{"abi":[{"type":"constructor","inputs":[{"name":"_externalPositionManager","type":"address","internalType":"address"},{"name":"_gasRelayPaymasterFactory","type":"address","internalType":"address"},{"name":"_protocolFeeReserve","type":"address","internalType":"address"},{"name":"_protocolFeeTracker","type":"address","internalType":"address"},{"name":"_mlnToken","type":"address","internalType":"address"},{"name":"_mlnBurner","type":"address","internalType":"address"},{"name":"_wethToken","type":"address","internalType":"address"},{"name":"_positionsLimit","type":"uint256","internalType":"uint256"}],"stateMutability":"nonpayable"},{"type":"receive","stateMutability":"payable"},{"type":"function","name":"addAssetManagers","inputs":[{"name":"_managers","type":"address[]","internalType":"address[]"}],"outputs":[],"stateMutability":"nonpayable"},{"type":"function","name":"addTrackedAsset","inputs":[{"name":"_asset","type":"address","internalType":"address"}],"outputs":[],"stateMutability":"nonpayable"},{"type":"function","name":"allowance","inputs":[{"name":"_owner","type":"address","internalType":"address"},{"name":"_spender","type":"address","internalType":"address"}],"outputs":[{"name":"","type":"uint256","internalType":"uint256"}],"stateMutability":"view"},{"type":"function","name":"approve","inputs":[{"name":"_spender","type":"address","internalType":"address"},{"name":"_amount","type":"uint256","internalType":"uint256"}],"outputs":[{"name":"","type":"bool","internalType":"bool"}],"stateMutability":"nonpayable"},{"type":"function","name":"balanceOf","inputs":[{"name":"_account","type":"address","internalType":"address"}],"outputs":[{"name":"","type":"uint256","internalType":"uint256"}],"stateMutability":"view"},{"type":"function","name":"burnShares","inputs":[{"name":"_target","type":"address","internalType":"address"},{"name":"_amount","type":"uint256","internalType":"uint256"}],"outputs":[],"stateMutability":"nonpayable"},{"type":"function","name":"buyBackProtocolFeeShares","inputs":[{"name":"_sharesAmount","type":"uint256","internalType":"uint256"},{"name":"_mlnValue","type":"uint256","internalType":"uint256"},{"name":"_gav","type":"uint256","internalType":"uint256"}],"outputs":[],"stateMutability":"nonpayable"},{"type":"function","name":"callOnContract","inputs":[{"name":"_contract","type":"address","internalType":"address"},{"name":"_callData","type":"bytes","internalType":"bytes"}],"outputs":[{"name":"returnData_","type":"bytes","internalType":"bytes"}],"stateMutability":"nonpayable"},{"type":"function","name":"canManageAssets","inputs":[{"name":"_who","type":"address","internalType":"address"}],"outputs":[{"name":"canManageAssets_","type":"bool","internalType":"bool"}],"stateMutability":"view"},{"type":"function","name":"canMigrate","inputs":[{"name":"_who","type":"address","internalType":"address"}],"outputs":[{"name":"canMigrate_","type":"bool","internalType":"bool"}],"stateMutability":"view"},{"type":"function","name":"canRelayCalls","inputs":[{"name":"_who","type":"address","internalType":"address"}],"outputs":[{"name":"canRelayCalls_","type":"bool","internalType":"bool"}],"stateMutability":"view"},{"type":"function","name":"claimOwnership","inputs":[],"outputs":[],"stateMutability":"nonpayable"},{"type":"function","name":"decimals","inputs":[],"outputs":[{"name":"","type":"uint8","internalType":"uint8"}],"stateMutability":"pure"},{"type":"function","name":"getAccessor","inputs":[],"outputs":[{"name":"accessor_","type":"address","internalType":"address"}],"stateMutability":"view"},{"type":"function","name":"getActiveExternalPositions","inputs":[],"outputs":[{"name":"activeExternalPositions_","type":"address[]","internalType":"address[]"}],"stateMutability":"view"},{"type":"function","name":"getCreator","inputs":[],"outputs":[{"name":"creator_","type":"address","internalType":"address"}],"stateMutability":"view"},{"type":"function","name":"getExternalPositionLibForType","inputs":[{"name":"_typeId","type":"uint256","internalType":"uint256"}],"outputs":[{"name":"externalPositionLib_","type":"address","internalType":"address"}],"stateMutability":"view"},{"type":"function","name":"getExternalPositionManager","inputs":[],"outputs":[{"name":"externalPositionManager_","type":"address","internalType":"address"}],"stateMutability":"view"},{"type":"function","name":"getFundDeployer","inputs":[],"outputs":[{"name":"fundDeployer_","type":"address","internalType":"address"}],"stateMutability":"view"},{"type":"function","name":"getGasRelayPaymasterFactory","inputs":[],"outputs":[{"name":"gasRelayPaymasterFactory_","type":"address","internalType":"address"}],"stateMutability":"view"},{"type":"function","name":"getGasRelayTrustedForwarder","inputs":[],"outputs":[{"name":"trustedForwarder_","type":"address","internalType":"address"}],"stateMutability":"view"},{"type":"function","name":"getMigrator","inputs":[],"outputs":[{"name":"migrator_","type":"address","internalType":"address"}],"stateMutability":"view"},{"type":"function","name":"getMlnBurner","inputs":[],"outputs":[{"name":"mlnBurner_","type":"address","internalType":"address"}],"stateMutability":"view"},{"type":"function","name":"getMlnToken","inputs":[],"outputs":[{"name":"mlnToken_","type":"address","internalType":"address"}],"stateMutability":"view"},{"type":"function","name":"getNominatedOwner","inputs":[],"outputs":[{"name":"nominatedOwner_","type":"address","internalType":"address"}],"stateMutability":"view"},{"type":"function","name":"getOwner","inputs":[],"outputs":[{"name":"owner_","type":"address","internalType":"address"}],"stateMutability":"view"},{"type":"function","name":"getPositionsLimit","inputs":[],"outputs":[{"name":"positionsLimit_","type":"uint256","internalType":"uint256"}],"stateMutability":"view"},{"type":"function","name":"getProtocolFeeReserve","inputs":[],"outputs":[{"name":"protocolFeeReserve_","type":"address","internalType":"address"}],"stateMutability":"view"},{"type":"function","name":"getProtocolFeeTracker","inputs":[],"outputs":[{"name":"protocolFeeTracker_","type":"address","internalType":"address"}],"stateMutability":"view"},{"type":"function","name":"getTrackedAssets","inputs":[],"outputs":[{"name":"trackedAssets_","type":"address[]","internalType":"address[]"}],"stateMutability":"view"},{"type":"function","name":"getVaultLib","inputs":[],"outputs":[{"name":"vaultLib_","type":"address","internalType":"address"}],"stateMutability":"view"},{"type":"function","name":"getWethToken","inputs":[],"outputs":[{"name":"wethToken_","type":"address","internalType":"address"}],"stateMutability":"view"},{"type":"function","name":"init","inputs":[{"name":"_owner","type":"address","internalType":"address"},{"name":"_accessor","type":"address","internalType":"address"},{"name":"_fundName","type":"string","internalType":"string"}],"outputs":[],"stateMutability":"nonpayable"},{"type":"function","name":"isActiveExternalPosition","inputs":[{"name":"_externalPosition","type":"address","internalType":"address"}],"outputs":[{"name":"isActiveExternalPosition_","type":"bool","internalType":"bool"}],"stateMutability":"view"},{"type":"function","name":"isAssetManager","inputs":[{"name":"_who","type":"address","internalType":"address"}],"outputs":[{"name":"isAssetManager_","type":"bool","internalType":"bool"}],"stateMutability":"view"},{"type":"function","name":"isTrackedAsset","inputs":[{"name":"_asset","type":"address","internalType":"address"}],"outputs":[{"name":"isTrackedAsset_","type":"bool","internalType":"bool"}],"stateMutability":"view"},{"type":"function","name":"mintShares","inputs":[{"name":"_target","type":"address","internalType":"address"},{"name":"_amount","type":"uint256","internalType":"uint256"}],"outputs":[],"stateMutability":"nonpayable"},{"type":"function","name":"name","inputs":[],"outputs":[{"name":"","type":"string","internalType":"string"}],"stateMutability":"view"},{"type":"function","name":"payProtocolFee","inputs":[],"outputs":[],"stateMutability":"nonpayable"},{"type":"function","name":"proxiableUUID","inputs":[],"outputs":[{"name":"uuid_","type":"bytes32","internalType":"bytes32"}],"stateMutability":"pure"},{"type":"function","name":"receiveValidatedVaultAction","inputs":[{"name":"_action","type":"uint8","internalType":"enum IVault.VaultAction"},{"name":"_actionData","type":"bytes","internalType":"bytes"}],"outputs":[],"stateMutability":"nonpayable"},{"type":"function","name":"removeAssetManagers","inputs":[{"name":"_managers","type":"address[]","internalType":"address[]"}],"outputs":[],"stateMutability":"nonpayable"},{"type":"function","name":"removeNominatedOwner","inputs":[],"outputs":[],"stateMutability":"nonpayable"},{"type":"function","name":"setAccessor","inputs":[{"name":"_nextAccessor","type":"address","internalType":"address"}],"outputs":[],"stateMutability":"nonpayable"},{"type":"function","name":"setAccessorForFundReconfiguration","inputs":[{"name":"_nextAccessor","type":"address","internalType":"address"}],"outputs":[],"stateMutability":"nonpayable"},{"type":"function","name":"setFreelyTransferableShares","inputs":[],"outputs":[],"stateMutability":"nonpayable"},{"type":"function","name":"setMigrator","inputs":[{"name":"_nextMigrator","type":"address","internalType":"address"}],"outputs":[],"stateMutability":"nonpayable"},{"type":"function","name":"setName","inputs":[{"name":"_nextName","type":"string","internalType":"string"}],"outputs":[],"stateMutability":"nonpayable"},{"type":"function","name":"setNominatedOwner","inputs":[{"name":"_nextNominatedOwner","type":"address","internalType":"address"}],"outputs":[],"stateMutability":"nonpayable"},{"type":"function","name":"setSymbol","inputs":[{"name":"_nextSymbol","type":"string","internalType":"string"}],"outputs":[],"stateMutability":"nonpayable"},{"type":"function","name":"setVaultLib","inputs":[{"name":"_nextVaultLib","type":"address","internalType":"address"}],"outputs":[],"stateMutability":"nonpayable"},{"type":"function","name":"sharesAreFreelyTransferable","inputs":[],"outputs":[{"name":"sharesAreFreelyTransferable_","type":"bool","internalType":"bool"}],"stateMutability":"view"},{"type":"function","name":"symbol","inputs":[],"outputs":[{"name":"symbol_","type":"string","internalType":"string"}],"stateMutability":"view"},{"type":"function","name":"totalSupply","inputs":[],"outputs":[{"name":"","type":"uint256","internalType":"uint256"}],"stateMutability":"view"},{"type":"function","name":"transfer","inputs":[{"name":"_recipient","type":"address","internalType":"address"},{"name":"_amount","type":"uint256","internalType":"uint256"}],"outputs":[{"name":"success_","type":"bool","internalType":"bool"}],"stateMutability":"nonpayable"},{"type":"function","name":"transferFrom","inputs":[{"name":"_sender","type":"address","internalType":"address"},{"name":"_recipient","type":"address","internalType":"address"},{"name":"_amount","type":"uint256","internalType":"uint256"}],"outputs":[{"name":"success_","type":"bool","internalType":"bool"}],"stateMutability":"nonpayable"},{"type":"function","name":"transferShares","inputs":[{"name":"_from","type":"address","internalType":"address"},{"name":"_to","type":"address","internalType":"address"},{"name":"_amount","type":"uint256","internalType":"uint256"}],"outputs":[],"stateMutability":"nonpayable"},{"type":"function","name":"withdrawAssetTo","inputs":[{"name":"_asset","type":"address","internalType":"address"},{"name":"_target","type":"address","internalType":"address"},{"name":"_amount","type":"uint256","internalType":"uint256"}],"outputs":[],"stateMutability":"nonpayable"},{"type":"event","name":"AccessorSet","inputs":[{"name":"prevAccessor","type":"address","indexed":false,"internalType":"address"},{"name":"nextAccessor","type":"address","indexed":false,"internalType":"address"}],"anonymous":false},{"type":"event","name":"Approval","inputs":[{"name":"owner","type":"address","indexed":true,"internalType":"address"},{"name":"spender","type":"address","indexed":true,"internalType":"address"},{"name":"value","type":"uint256","indexed":false,"internalType":"uint256"}],"anonymous":false},{"type":"event","name":"AssetManagerAdded","inputs":[{"name":"manager","type":"address","indexed":false,"internalType":"address"}],"anonymous":false},{"type":"event","name":"AssetManagerRemoved","inputs":[{"name":"manager","type":"address","indexed":false,"internalType":"address"}],"anonymous":false},{"type":"event","name":"AssetWithdrawn","inputs":[{"name":"asset","type":"address","indexed":true,"internalType":"address"},{"name":"target","type":"address","indexed":true,"internalType":"address"},{"name":"amount","type":"uint256","indexed":false,"internalType":"uint256"}],"anonymous":false},{"type":"event","name":"EthReceived","inputs":[{"name":"sender","type":"address","indexed":true,"internalType":"address"},{"name":"amount","type":"uint256","indexed":false,"internalType":"uint256"}],"anonymous":false},{"type":"event","name":"ExternalPositionAdded","inputs":[{"name":"externalPosition","type":"address","indexed":true,"internalType":"address"}],"anonymous":false},{"type":"event","name":"ExternalPositionRemoved","inputs":[{"name":"externalPosition","type":"address","indexed":true,"internalType":"address"}],"anonymous":false},{"type":"event","name":"FreelyTransferableSharesSet","inputs":[],"anonymous":false},{"type":"event","name":"MigratorSet","inputs":[{"name":"prevMigrator","type":"address","indexed":false,"internalType":"address"},{"name":"nextMigrator","type":"address","indexed":false,"internalType":"address"}],"anonymous":false},{"type":"event","name":"NameSet","inputs":[{"name":"name","type":"string","indexed":false,"internalType":"string"}],"anonymous":false},{"type":"event","name":"NominatedOwnerRemoved","inputs":[{"name":"nominatedOwner","type":"address","indexed":true,"internalType":"address"}],"anonymous":false},{"type":"event","name":"NominatedOwnerSet","inputs":[{"name":"nominatedOwner","type":"address","indexed":true,"internalType":"address"}],"anonymous":false},{"type":"event","name":"OwnerSet","inputs":[{"name":"prevOwner","type":"address","indexed":false,"internalType":"address"},{"name":"nextOwner","type":"address","indexed":false,"internalType":"address"}],"anonymous":false},{"type":"event","name":"OwnershipTransferred","inputs":[{"name":"prevOwner","type":"address","indexed":true,"internalType":"address"},{"name":"nextOwner","type":"address","indexed":true,"internalType":"address"}],"anonymous":false},{"type":"event","name":"ProtocolFeePaidInShares","inputs":[{"name":"sharesAmount","type":"uint256","indexed":false,"internalType":"uint256"}],"anonymous":false},{"type":"event","name":"ProtocolFeeSharesBoughtBack","inputs":[{"name":"sharesAmount","type":"uint256","indexed":false,"internalType":"uint256"},{"name":"mlnValue","type":"uint256","indexed":false,"internalType":"uint256"},{"name":"mlnBurned","type":"uint256","indexed":false,"internalType":"uint256"}],"anonymous":false},{"type":"event","name":"SymbolSet","inputs":[{"name":"symbol","type":"string","indexed":false,"internalType":"string"}],"anonymous":false},{"type":"event","name":"TrackedAssetAdded","inputs":[{"name":"asset","type":"address","indexed":false,"internalType":"address"}],"anonymous":false},{"type":"event","name":"TrackedAssetRemoved","inputs":[{"name":"asset","type":"address","indexed":false,"internalType":"address"}],"anonymous":false},{"type":"event","name":"Transfer","inputs":[{"name":"from","type":"address","indexed":true,"internalType":"address"},{"name":"to","type":"address","indexed":true,"internalType":"address"},{"name":"value","type":"uint256","indexed":false,"internalType":"uint256"}],"anonymous":false},{"type":"event","name":"VaultLibSet","inputs":[{"name":"prevVaultLib","type":"address","indexed":false,"internalType":"address"},{"name":"nextVaultLib","type":"address","indexed":false,"internalType":"address"}],"anonymous":false}],"bytecode":{"object":"0x6101806040523480156200001257600080fd5b50604051620078cf380380620078cf83398181016040526101008110156200003957600080fd5b810190808051906020019092919080519060200190929190805190602001909291908051906020019092919080519060200190929190805190602001909291908051906020019092919080519060200190929190505050868073ffffffffffffffffffffffffffffffffffffffff1660808173ffffffffffffffffffffffffffffffffffffffff1660601b81525050508773ffffffffffffffffffffffffffffffffffffffff1660a08173ffffffffffffffffffffffffffffffffffffffff1660601b815250508273ffffffffffffffffffffffffffffffffffffffff1660c08173ffffffffffffffffffffffffffffffffffffffff1660601b815250508373ffffffffffffffffffffffffffffffffffffffff1660e08173ffffffffffffffffffffffffffffffffffffffff1660601b815250508061010081815250508573ffffffffffffffffffffffffffffffffffffffff166101208173ffffffffffffffffffffffffffffffffffffffff1660601b815250508473ffffffffffffffffffffffffffffffffffffffff166101408173ffffffffffffffffffffffffffffffffffffffff1660601b815250508173ffffffffffffffffffffffffffffffffffffffff166101608173ffffffffffffffffffffffffffffffffffffffff1660601b81525050505050505050505060805160601c60a05160601c60c05160601c60e05160601c610100516101205160601c6101405160601c6101605160601c6176356200029a6000398061190452508061367852508061478852508061493b52508061483752508061491352508061412f52508061410752506176356000f3fe6080604052600436106103855760003560e01c8063728e17a0116101d1578063ac25945611610102578063cd63d578116100a0578063e70e605e1161006f578063e70e605e146117f8578063ee7a7c0414611839578063fe15c02a14611894578063ff3cdf56146118d55761045f565b8063cd63d578146116da578063d5c20fa21461171b578063da41962e14611732578063dd62ed3e146117735761045f565b8063b8b7f147116100dc578063b8b7f14714611501578063bfc77beb1461156d578063c47f0027146115e8578063c4b973701461166e5761045f565b8063ac259456146113f9578063b3fc38e91461143a578063b84c82461461147b5761045f565b80638156eecf1161016f57806397c0ac871161014957806397c0ac87146111d7578063a9059cbb14611218578063a90cce4b14611289578063ab9253ac146113a85761045f565b80638156eecf146110ef578063893d20e81461110657806395d89b41146111475761045f565b806375d8bb0e116101ab57806375d8bb0e14610fa5578063797ed3391461100a5780637c81ac2d146110715780637de07cea146110885761045f565b8063728e17a014610ec2578063740f2b5a14610f13578063749cc8f514610f645761045f565b8063495d753c116102b65780635c9a6d37116102545780636ea21143116102235780636ea2114314610d4e57806370a0823114610d8f578063712bd10214610df4578063714ca2d114610e5b5761045f565b80635c9a6d3714610b5a5780636487aa1114610c2057806364cb36cb14610c87578063682cea1914610d0d5761045f565b80634ef0762e116102905780634ef0762e14610a42578063528c198a14610a9357806352d1902d14610aee5780635a53e34814610b195761045f565b8063495d753c1461096f5780634c252f91146109ea5780634e71e0c814610a2b5761045f565b806324e6001211610323578063313ce567116102fd578063313ce5671461080357806336861889146108315780633e11553d146108985780634140d6071461091e5761045f565b806324e6001214610702578063288b6a361461079557806328c2ad9c146107d65761045f565b806318160ddd1161035f57806318160ddd146105a65780631ff46bfa146105d157806323b872dd1461062057806323cf3118146106b15761045f565b806306fdde0314610464578063095ea7b3146104f45780630ee2cb10146105655761045f565b3661045f5760003073ffffffffffffffffffffffffffffffffffffffff163190506103ae611900565b73ffffffffffffffffffffffffffffffffffffffff1663d0e30db0826040518263ffffffff1660e01b81526004016000604051808303818588803b1580156103f557600080fd5b505af1158015610409573d6000803e3d6000fd5b50505050503373ffffffffffffffffffffffffffffffffffffffff167f85177f287940f2f05425a4029951af0e047a7f9c4eaa9a6e6917bcd869f86695826040518082815260200191505060405180910390a250005b600080fd5b34801561047057600080fd5b50610479611928565b6040518080602001828103825283818151815260200191508051906020019080838360005b838110156104b957808201518184015260208101905061049e565b50505050905090810190601f1680156104e65780820380516001836020036101000a031916815260200191505b509250505060405180910390f35b34801561050057600080fd5b5061054d6004803603604081101561051757600080fd5b81019080803573ffffffffffffffffffffffffffffffffffffffff169060200190929190803590602001909291905050506119ca565b60405180821515815260200191505060405180910390f35b34801561057157600080fd5b5061057a6119e1565b604051808273ffffffffffffffffffffffffffffffffffffffff16815260200191505060405180910390f35b3480156105b257600080fd5b506105bb611a0b565b6040518082815260200191505060405180910390f35b3480156105dd57600080fd5b5061061e600480360360608110156105f457600080fd5b81019080803590602001909291908035906020019092919080359060200190929190505050611a15565b005b34801561062c57600080fd5b506106996004803603606081101561064357600080fd5b81019080803573ffffffffffffffffffffffffffffffffffffffff169060200190929190803573ffffffffffffffffffffffffffffffffffffffff16906020019092919080359060200190929190505050611cbf565b60405180821515815260200191505060405180910390f35b3480156106bd57600080fd5b50610700600480360360208110156106d457600080fd5b81019080803573ffffffffffffffffffffffffffffffffffffffff169060200190929190505050611ce0565b005b34801561070e57600080fd5b506107936004803603604081101561072557600080fd5b81019080803560ff1690602001909291908035906020019064010000000081111561074f57600080fd5b82018360208201111561076157600080fd5b8035906020019184600183028401116401000000008311171561078357600080fd5b9091929391929390505050611f06565b005b3480156107a157600080fd5b506107aa61241f565b604051808273ffffffffffffffffffffffffffffffffffffffff16815260200191505060405180910390f35b3480156107e257600080fd5b506107eb612449565b60405180821515815260200191505060405180910390f35b34801561080f57600080fd5b50610818612460565b604051808260ff16815260200191505060405180910390f35b34801561083d57600080fd5b506108806004803603602081101561085457600080fd5b81019080803573ffffffffffffffffffffffffffffffffffffffff169060200190929190505050612469565b60405180821515815260200191505060405180910390f35b3480156108a457600080fd5b5061091c600480360360208110156108bb57600080fd5b81019080803590602001906401000000008111156108d857600080fd5b8201836020820111156108ea57600080fd5b8035906020019184602083028401116401000000008311171561090c57600080fd5b90919293919293905050506124f5565b005b34801561092a57600080fd5b5061096d6004803603602081101561094157600080fd5b81019080803573ffffffffffffffffffffffffffffffffffffffff16906020019092919050505061273e565b005b34801561097b57600080fd5b506109e86004803603606081101561099257600080fd5b81019080803573ffffffffffffffffffffffffffffffffffffffff169060200190929190803573ffffffffffffffffffffffffffffffffffffffff16906020019092919080359060200190929190505050612868565b005b3480156109f657600080fd5b506109ff611900565b604051808273ffffffffffffffffffffffffffffffffffffffff16815260200191505060405180910390f35b348015610a3757600080fd5b50610a4061291e565b005b348015610a4e57600080fd5b50610a9160048036036020811015610a6557600080fd5b81019080803573ffffffffffffffffffffffffffffffffffffffff169060200190929190505050612ab4565b005b348015610a9f57600080fd5b50610aec60048036036040811015610ab657600080fd5b81019080803573ffffffffffffffffffffffffffffffffffffffff16906020019092919080359060200190929190505050612b66565b005b348015610afa57600080fd5b50610b03612c1a565b6040518082815260200191505060405180910390f35b348015610b2557600080fd5b50610b2e612c45565b604051808273ffffffffffffffffffffffffffffffffffffffff16815260200191505060405180910390f35b348015610b6657600080fd5b50610c1e60048036036060811015610b7d57600080fd5b81019080803573ffffffffffffffffffffffffffffffffffffffff169060200190929190803573ffffffffffffffffffffffffffffffffffffffff16906020019092919080359060200190640100000000811115610bda57600080fd5b820183602082011115610bec57600080fd5b80359060200191846001830284011164010000000083111715610c0e57600080fd5b9091929391929390505050612c6f565b005b348015610c2c57600080fd5b50610c6f60048036036020811015610c4357600080fd5b81019080803573ffffffffffffffffffffffffffffffffffffffff169060200190929190505050612e11565b60405180821515815260200191505060405180910390f35b348015610c9357600080fd5b50610d0b60048036036020811015610caa57600080fd5b8101908080359060200190640100000000811115610cc757600080fd5b820183602082011115610cd957600080fd5b80359060200191846020830284011164010000000083111715610cfb57600080fd5b9091929391929390505050612e67565b005b348015610d1957600080fd5b50610d226130af565b604051808273ffffffffffffffffffffffffffffffffffffffff16815260200191505060405180910390f35b348015610d5a57600080fd5b50610d636130d8565b604051808273ffffffffffffffffffffffffffffffffffffffff16815260200191505060405180910390f35b348015610d9b57600080fd5b50610dde60048036036020811015610db257600080fd5b81019080803573ffffffffffffffffffffffffffffffffffffffff1690602001909291905050506131e7565b6040518082815260200191505060405180910390f35b348015610e0057600080fd5b50610e4360048036036020811015610e1757600080fd5b81019080803573ffffffffffffffffffffffffffffffffffffffff169060200190929190505050613230565b60405180821515815260200191505060405180910390f35b348015610e6757600080fd5b50610eaa60048036036020811015610e7e57600080fd5b81019080803573ffffffffffffffffffffffffffffffffffffffff169060200190929190505050613286565b60405180821515815260200191505060405180910390f35b348015610ece57600080fd5b50610f1160048036036020811015610ee557600080fd5b81019080803573ffffffffffffffffffffffffffffffffffffffff1690602001909291905050506132d5565b005b348015610f1f57600080fd5b50610f6260048036036020811015610f3657600080fd5b81019080803573ffffffffffffffffffffffffffffffffffffffff1690602001909291905050506135dd565b005b348015610f7057600080fd5b50610f79613674565b604051808273ffffffffffffffffffffffffffffffffffffffff16815260200191505060405180910390f35b348015610fb157600080fd5b50610fde60048036036020811015610fc857600080fd5b810190808035906020019092919050505061369c565b604051808273ffffffffffffffffffffffffffffffffffffffff16815260200191505060405180910390f35b34801561101657600080fd5b506110596004803603602081101561102d57600080fd5b81019080803573ffffffffffffffffffffffffffffffffffffffff169060200190929190505050613738565b60405180821515815260200191505060405180910390f35b34801561107d57600080fd5b5061108661378e565b005b34801561109457600080fd5b506110d7600480360360208110156110ab57600080fd5b81019080803573ffffffffffffffffffffffffffffffffffffffff1690602001909291905050506138e2565b60405180821515815260200191505060405180910390f35b3480156110fb57600080fd5b50611104613994565b005b34801561111257600080fd5b5061111b613b59565b604051808273ffffffffffffffffffffffffffffffffffffffff16815260200191505060405180910390f35b34801561115357600080fd5b5061115c613b83565b6040518080602001828103825283818151815260200191508051906020019080838360005b8381101561119c578082015181840152602081019050611181565b50505050905090810190601f1680156111c95780820380516001836020036101000a031916815260200191505b509250505060405180910390f35b3480156111e357600080fd5b506111ec613d93565b604051808273ffffffffffffffffffffffffffffffffffffffff16815260200191505060405180910390f35b34801561122457600080fd5b506112716004803603604081101561123b57600080fd5b81019080803573ffffffffffffffffffffffffffffffffffffffff16906020019092919080359060200190929190505050613e5e565b60405180821515815260200191505060405180910390f35b34801561129557600080fd5b5061132d600480360360408110156112ac57600080fd5b81019080803573ffffffffffffffffffffffffffffffffffffffff169060200190929190803590602001906401000000008111156112e957600080fd5b8201836020820111156112fb57600080fd5b8035906020019184600183028401116401000000008311171561131d57600080fd5b9091929391929390505050613e7d565b6040518080602001828103825283818151815260200191508051906020019080838360005b8381101561136d578082015181840152602081019050611352565b50505050905090810190601f16801561139a5780820380516001836020036101000a031916815260200191505b509250505060405180910390f35b3480156113b457600080fd5b506113f7600480360360208110156113cb57600080fd5b81019080803573ffffffffffffffffffffffffffffffffffffffff169060200190929190505050614051565b005b34801561140557600080fd5b5061140e614103565b604051808273ffffffffffffffffffffffffffffffffffffffff16815260200191505060405180910390f35b34801561144657600080fd5b5061144f61412b565b604051808273ffffffffffffffffffffffffffffffffffffffff16815260200191505060405180910390f35b34801561148757600080fd5b506114ff6004803603602081101561149e57600080fd5b81019080803590602001906401000000008111156114bb57600080fd5b8201836020820111156114cd57600080fd5b803590602001918460018302840111640100000000831117156114ef57600080fd5b9091929391929390505050614153565b005b34801561150d57600080fd5b506115166142d3565b6040518080602001828103825283818151815260200191508051906020019060200280838360005b8381101561155957808201518184015260208101905061153e565b505050509050019250505060405180910390f35b34801561157957600080fd5b506115e66004803603606081101561159057600080fd5b81019080803573ffffffffffffffffffffffffffffffffffffffff169060200190929190803573ffffffffffffffffffffffffffffffffffffffff16906020019092919080359060200190929190505050614361565b005b3480156115f457600080fd5b5061166c6004803603602081101561160b57600080fd5b810190808035906020019064010000000081111561162857600080fd5b82018360208201111561163a57600080fd5b8035906020019184600183028401116401000000008311171561165c57600080fd5b9091929391929390505050614417565b005b34801561167a57600080fd5b5061168361453d565b6040518080602001828103825283818151815260200191508051906020019060200280838360005b838110156116c65780820151818401526020810190506116ab565b505050509050019250505060405180910390f35b3480156116e657600080fd5b506116ef6145cb565b604051808273ffffffffffffffffffffffffffffffffffffffff16815260200191505060405180910390f35b34801561172757600080fd5b506117306145f5565b005b34801561173e57600080fd5b50611747614784565b604051808273ffffffffffffffffffffffffffffffffffffffff16815260200191505060405180910390f35b34801561177f57600080fd5b506117e26004803603604081101561179657600080fd5b81019080803573ffffffffffffffffffffffffffffffffffffffff169060200190929190803573ffffffffffffffffffffffffffffffffffffffff1690602001909291905050506147ac565b6040518082815260200191505060405180910390f35b34801561180457600080fd5b5061180d614833565b604051808273ffffffffffffffffffffffffffffffffffffffff16815260200191505060405180910390f35b34801561184557600080fd5b506118926004803603604081101561185c57600080fd5b81019080803573ffffffffffffffffffffffffffffffffffffffff1690602001909291908035906020019092919050505061485b565b005b3480156118a057600080fd5b506118a961490f565b604051808273ffffffffffffffffffffffffffffffffffffffff16815260200191505060405180910390f35b3480156118e157600080fd5b506118ea614937565b6040518082815260200191505060405180910390f35b60007f0000000000000000000000000000000000000000000000000000000000000000905090565b606060008054600181600116156101000203166002900480601f0160208091040260200160405190810160405280929190818152602001828054600181600116156101000203166002900480156119c05780601f10611995576101008083540402835291602001916119c0565b820191906000526020600020905b8154815290600101906020018083116119a357829003601f168201915b5050505050905090565b60006119d733848461495f565b6001905092915050565b6000600660009054906101000a900473ffffffffffffffffffffffffffffffffffffffff16905090565b6000600254905090565b600560009054906101000a900473ffffffffffffffffffffffffffffffffffffffff1673ffffffffffffffffffffffffffffffffffffffff163373ffffffffffffffffffffffffffffffffffffffff1614611abb576040517f08c379a000000000000000000000000000000000000000000000000000000000815260040180806020018281038252602f81526020018061731c602f913960400191505060405180910390fd5b6000611ac5614784565b73ffffffffffffffffffffffffffffffffffffffff166396c45aec8585856040518463ffffffff1660e01b8152600401808481526020018381526020018281526020019350505050602060405180830381600087803b158015611b2757600080fd5b505af1158015611b3b573d6000803e3d6000fd5b505050506040513d6020811015611b5157600080fd5b810190808051906020019092919050505090506000811415611b735750611cba565b611b84611b7e614784565b85614b56565b600073ffffffffffffffffffffffffffffffffffffffff16611ba461490f565b73ffffffffffffffffffffffffffffffffffffffff161415611c3757611bc8614833565b73ffffffffffffffffffffffffffffffffffffffff166342966c68826040518263ffffffff1660e01b815260040180828152602001915050600060405180830381600087803b158015611c1a57600080fd5b505af1158015611c2e573d6000803e3d6000fd5b50505050611c71565b611c70611c4261490f565b82611c4b614833565b73ffffffffffffffffffffffffffffffffffffffff16614d109092919063ffffffff16565b5b7ff8c67da77ed4cb50a4dec91c60cf78ee219033bd3c55a86d133178c557c2d2cf84848360405180848152602001838152602001828152602001935050505060405180910390a1505b505050565b6000611ccc848484614db2565b611cd7848484614f34565b90509392505050565b600860009054906101000a900473ffffffffffffffffffffffffffffffffffffffff1673ffffffffffffffffffffffffffffffffffffffff16611d21614fff565b73ffffffffffffffffffffffffffffffffffffffff1614611d8d576040517f08c379a00000000000000000000000000000000000000000000000000000000081526004018080602001828103825260258152602001806170b26025913960400191505060405180910390fd5b6000600760009054906101000a900473ffffffffffffffffffffffffffffffffffffffff1690508073ffffffffffffffffffffffffffffffffffffffff168273ffffffffffffffffffffffffffffffffffffffff161415611e56576040517f08c379a000000000000000000000000000000000000000000000000000000000815260040180806020018281038252601e8152602001807f7365744d69677261746f723a2056616c756520616c726561647920736574000081525060200191505060405180910390fd5b81600760006101000a81548173ffffffffffffffffffffffffffffffffffffffff021916908373ffffffffffffffffffffffffffffffffffffffff1602179055507f9d0761a1fa4d686cd87f8dbf8ca52f90cf19c3c4dc36e66ebbf08fc5ba203f2c8183604051808373ffffffffffffffffffffffffffffffffffffffff1681526020018273ffffffffffffffffffffffffffffffffffffffff1681526020019250505060405180910390a15050565b600560009054906101000a900473ffffffffffffffffffffffffffffffffffffffff1673ffffffffffffffffffffffffffffffffffffffff163373ffffffffffffffffffffffffffffffffffffffff1614611fac576040517f08c379a000000000000000000000000000000000000000000000000000000000815260040180806020018281038252602f81526020018061731c602f913960400191505060405180910390fd5b6008600a811115611fb957fe5b83600a811115611fc557fe5b141561201d5761201882828080601f016020809104026020016040519081016040528093929190818152602001838380828437600081840152601f19601f82011690508083019250505050505050615063565b61241a565b6004600a81111561202a57fe5b83600a81111561203657fe5b141561208e5761208982828080601f016020809104026020016040519081016040528093929190818152602001838380828437600081840152601f19601f82011690508083019250505050505050615094565b612419565b6005600a81111561209b57fe5b83600a8111156120a757fe5b14156120ff576120fa82828080601f016020809104026020016040519081016040528093929190818152602001838380828437600081840152601f19601f820116905080830192505050505050506150c5565b612418565b6001600a81111561210c57fe5b83600a81111561211857fe5b14156121705761216b82828080601f016020809104026020016040519081016040528093929190818152602001838380828437600081840152601f19601f8201169050808301925050505050505061511b565b612417565b6009600a81111561217d57fe5b83600a81111561218957fe5b14156121e1576121dc82828080601f016020809104026020016040519081016040528093929190818152602001838380828437600081840152601f19601f82011690508083019250505050505050615161565b612416565b6002600a8111156121ee57fe5b83600a8111156121fa57fe5b14156122525761224d82828080601f016020809104026020016040519081016040528093929190818152602001838380828437600081840152601f19601f8201169050808301925050505050505061541b565b612415565b600a8081111561225e57fe5b83600a81111561226a57fe5b14156122c2576122bd82828080601f016020809104026020016040519081016040528093929190818152602001838380828437600081840152601f19601f82011690508083019250505050505050615461565b612414565b6006600a8111156122cf57fe5b83600a8111156122db57fe5b14156123335761232e82828080601f016020809104026020016040519081016040528093929190818152602001838380828437600081840152601f19601f82011690508083019250505050505050615492565b612413565b6003600a81111561234057fe5b83600a81111561234c57fe5b14156123a45761239f82828080601f016020809104026020016040519081016040528093929190818152602001838380828437600081840152601f19601f820116905080830192505050505050506154c3565b612412565b6007600a8111156123b157fe5b83600a8111156123bd57fe5b14156124115761241082828080601f016020809104026020016040519081016040528093929190818152602001838380828437600081840152601f19601f82011690508083019250505050505050615519565b5b5b5b5b5b5b5b5b5b5b505050565b6000600b60019054906101000a900473ffffffffffffffffffffffffffffffffffffffff16905090565b6000600b60009054906101000a900460ff16905090565b60006012905090565b6000612473613b59565b73ffffffffffffffffffffffffffffffffffffffff168273ffffffffffffffffffffffffffffffffffffffff1614806124b157506124b082612e11565b5b806124ee57506124bf6145cb565b73ffffffffffffffffffffffffffffffffffffffff168273ffffffffffffffffffffffffffffffffffffffff16145b9050919050565b600860009054906101000a900473ffffffffffffffffffffffffffffffffffffffff1673ffffffffffffffffffffffffffffffffffffffff16612536614fff565b73ffffffffffffffffffffffffffffffffffffffff16146125a2576040517f08c379a00000000000000000000000000000000000000000000000000000000081526004018080602001828103825260258152602001806170b26025913960400191505060405180910390fd5b60005b82829050811015612739576125e18383838181106125bf57fe5b9050602002013573ffffffffffffffffffffffffffffffffffffffff16612e11565b15612637576040517f08c379a000000000000000000000000000000000000000000000000000000000815260040180806020018281038252602c81526020018061716f602c913960400191505060405180910390fd5b6001600d600085858581811061264957fe5b9050602002013573ffffffffffffffffffffffffffffffffffffffff1673ffffffffffffffffffffffffffffffffffffffff1673ffffffffffffffffffffffffffffffffffffffff16815260200190815260200160002060006101000a81548160ff0219169083151502179055507f8cf4dd2d46ca2e74b9cc238f9e9c907b5a6a50e2f652162a062d5e8129f35d7a8383838181106126e457fe5b9050602002013573ffffffffffffffffffffffffffffffffffffffff16604051808273ffffffffffffffffffffffffffffffffffffffff16815260200191505060405180910390a180806001019150506125a5565b505050565b600660009054906101000a900473ffffffffffffffffffffffffffffffffffffffff1673ffffffffffffffffffffffffffffffffffffffff163373ffffffffffffffffffffffffffffffffffffffff16146127e4576040517f08c379a00000000000000000000000000000000000000000000000000000000081526004018080602001828103825260328152602001806172c26032913960400191505060405180910390fd5b60006127ee6130af565b90506127f98261556f565b7fe504a0278c9d64c1a72d2f528a0c5e3686e093fcd478b3b1224a5c6983207df68183604051808373ffffffffffffffffffffffffffffffffffffffff1681526020018273ffffffffffffffffffffffffffffffffffffffff1681526020019250505060405180910390a15050565b600560009054906101000a900473ffffffffffffffffffffffffffffffffffffffff1673ffffffffffffffffffffffffffffffffffffffff163373ffffffffffffffffffffffffffffffffffffffff161461290e576040517f08c379a000000000000000000000000000000000000000000000000000000000815260040180806020018281038252602f81526020018061731c602f913960400191505060405180910390fd5b612919838383615690565b505050565b6000600b60019054906101000a900473ffffffffffffffffffffffffffffffffffffffff1690508073ffffffffffffffffffffffffffffffffffffffff163373ffffffffffffffffffffffffffffffffffffffff16146129c9576040517f08c379a000000000000000000000000000000000000000000000000000000000815260040180806020018281038252603e8152602001806174db603e913960400191505060405180910390fd5b600b60016101000a81549073ffffffffffffffffffffffffffffffffffffffff02191690556000600860009054906101000a900473ffffffffffffffffffffffffffffffffffffffff16905081600860006101000a81548173ffffffffffffffffffffffffffffffffffffffff021916908373ffffffffffffffffffffffffffffffffffffffff1602179055508173ffffffffffffffffffffffffffffffffffffffff168173ffffffffffffffffffffffffffffffffffffffff167f8be0079c531659141344cd1fd0a4f28419497f9722a3daafe3b4186f6b6457e060405160405180910390a35050565b600560009054906101000a900473ffffffffffffffffffffffffffffffffffffffff1673ffffffffffffffffffffffffffffffffffffffff163373ffffffffffffffffffffffffffffffffffffffff1614612b5a576040517f08c379a000000000000000000000000000000000000000000000000000000000815260040180806020018281038252602f81526020018061731c602f913960400191505060405180910390fd5b612b63816157c9565b50565b600560009054906101000a900473ffffffffffffffffffffffffffffffffffffffff1673ffffffffffffffffffffffffffffffffffffffff163373ffffffffffffffffffffffffffffffffffffffff1614612c0c576040517f08c379a000000000000000000000000000000000000000000000000000000000815260040180806020018281038252602f81526020018061731c602f913960400191505060405180910390fd5b612c16828261598e565b5050565b60007f027b9570e9fedc1a80b937ae9a06861e5faef3992491af30b684a64b3fbec7a560001b905090565b6000600560009054906101000a900473ffffffffffffffffffffffffffffffffffffffff16905090565b600073ffffffffffffffffffffffffffffffffffffffff16600660009054906101000a900473ffffffffffffffffffffffffffffffffffffffff1673ffffffffffffffffffffffffffffffffffffffff1614612d33576040517f08c379a000000000000000000000000000000000000000000000000000000000815260040180806020018281038252601f8152602001807f696e69743a2050726f787920616c726561647920696e697469616c697a65640081525060200191505060405180910390fd5b33600660006101000a81548173ffffffffffffffffffffffffffffffffffffffff021916908373ffffffffffffffffffffffffffffffffffffffff160217905550818160009190612d85929190617014565b50612d8f83615b4b565b612d9884615ca8565b7fe504a0278c9d64c1a72d2f528a0c5e3686e093fcd478b3b1224a5c6983207df66000612dc36130af565b604051808373ffffffffffffffffffffffffffffffffffffffff1681526020018273ffffffffffffffffffffffffffffffffffffffff1681526020019250505060405180910390a150505050565b6000600d60008373ffffffffffffffffffffffffffffffffffffffff1673ffffffffffffffffffffffffffffffffffffffff16815260200190815260200160002060009054906101000a900460ff169050919050565b600860009054906101000a900473ffffffffffffffffffffffffffffffffffffffff1673ffffffffffffffffffffffffffffffffffffffff16612ea8614fff565b73ffffffffffffffffffffffffffffffffffffffff1614612f14576040517f08c379a00000000000000000000000000000000000000000000000000000000081526004018080602001828103825260258152602001806170b26025913960400191505060405180910390fd5b60005b828290508110156130aa57612f53838383818110612f3157fe5b9050602002013573ffffffffffffffffffffffffffffffffffffffff16612e11565b612fa8576040517f08c379a000000000000000000000000000000000000000000000000000000000815260040180806020018281038252602b8152602001806175c8602b913960400191505060405180910390fd5b6000600d6000858585818110612fba57fe5b9050602002013573ffffffffffffffffffffffffffffffffffffffff1673ffffffffffffffffffffffffffffffffffffffff1673ffffffffffffffffffffffffffffffffffffffff16815260200190815260200160002060006101000a81548160ff0219169083151502179055507f1a3f6d43a85364a6a2d8297f0cd634e060a6ef9bc11b3a0c89e47d40b89c2f7e83838381811061305557fe5b9050602002013573ffffffffffffffffffffffffffffffffffffffff16604051808273ffffffffffffffffffffffffffffffffffffffff16815260200191505060405180910390a18080600101915050612f17565b505050565b60007f360894a13ba1a3210667c828492db98dca3e2076cc3735a920a3ca505d382bbc54905090565b60006130e2614103565b73ffffffffffffffffffffffffffffffffffffffff166398a7c4c76040518163ffffffff1660e01b815260040160206040518083038186803b15801561312757600080fd5b505afa15801561313b573d6000803e3d6000fd5b505050506040513d602081101561315157600080fd5b810190808051906020019092919050505073ffffffffffffffffffffffffffffffffffffffff16637da0a8776040518163ffffffff1660e01b815260040160206040518083038186803b1580156131a757600080fd5b505afa1580156131bb573d6000803e3d6000fd5b505050506040513d60208110156131d157600080fd5b8101908080519060200190929190505050905090565b6000600360008373ffffffffffffffffffffffffffffffffffffffff1673ffffffffffffffffffffffffffffffffffffffff168152602001908152602001600020549050919050565b6000600e60008373ffffffffffffffffffffffffffffffffffffffff1673ffffffffffffffffffffffffffffffffffffffff16815260200190815260200160002060009054906101000a900460ff169050919050565b6000613290613b59565b73ffffffffffffffffffffffffffffffffffffffff168273ffffffffffffffffffffffffffffffffffffffff1614806132ce57506132cd82612e11565b5b9050919050565b600860009054906101000a900473ffffffffffffffffffffffffffffffffffffffff1673ffffffffffffffffffffffffffffffffffffffff16613316614fff565b73ffffffffffffffffffffffffffffffffffffffff1614613382576040517f08c379a00000000000000000000000000000000000000000000000000000000081526004018080602001828103825260258152602001806170b26025913960400191505060405180910390fd5b600073ffffffffffffffffffffffffffffffffffffffff168173ffffffffffffffffffffffffffffffffffffffff161415613408576040517f08c379a000000000000000000000000000000000000000000000000000000000815260040180806020018281038252603681526020018061728c6036913960400191505060405180910390fd5b600860009054906101000a900473ffffffffffffffffffffffffffffffffffffffff1673ffffffffffffffffffffffffffffffffffffffff168173ffffffffffffffffffffffffffffffffffffffff1614156134af576040517f08c379a000000000000000000000000000000000000000000000000000000000815260040180806020018281038252603b8152602001806173c1603b913960400191505060405180910390fd5b600b60019054906101000a900473ffffffffffffffffffffffffffffffffffffffff1673ffffffffffffffffffffffffffffffffffffffff168173ffffffffffffffffffffffffffffffffffffffff161415613556576040517f08c379a000000000000000000000000000000000000000000000000000000000815260040180806020018281038252603b81526020018061744f603b913960400191505060405180910390fd5b80600b60016101000a81548173ffffffffffffffffffffffffffffffffffffffff021916908373ffffffffffffffffffffffffffffffffffffffff1602179055508073ffffffffffffffffffffffffffffffffffffffff167f132c19de901bb4ed8403c34734b6c841d5dc57745824da452a52433519ea5abf60405160405180910390a250565b6135e5613d93565b73ffffffffffffffffffffffffffffffffffffffff163373ffffffffffffffffffffffffffffffffffffffff1614613668576040517f08c379a00000000000000000000000000000000000000000000000000000000081526004018080602001828103825260288152602001806172f46028913960400191505060405180910390fd5b61367181615b4b565b50565b60007f0000000000000000000000000000000000000000000000000000000000000000905090565b60006136a661412b565b73ffffffffffffffffffffffffffffffffffffffff166375d8bb0e836040518263ffffffff1660e01b81526004018082815260200191505060206040518083038186803b1580156136f657600080fd5b505afa15801561370a573d6000803e3d6000fd5b505050506040513d602081101561372057600080fd5b81019080805190602001909291905050509050919050565b6000600a60008373ffffffffffffffffffffffffffffffffffffffff1673ffffffffffffffffffffffffffffffffffffffff16815260200190815260200160002060009054906101000a900460ff169050919050565b600860009054906101000a900473ffffffffffffffffffffffffffffffffffffffff1673ffffffffffffffffffffffffffffffffffffffff166137cf614fff565b73ffffffffffffffffffffffffffffffffffffffff161461383b576040517f08c379a00000000000000000000000000000000000000000000000000000000081526004018080602001828103825260258152602001806170b26025913960400191505060405180910390fd5b613843612449565b15613899576040517f08c379a00000000000000000000000000000000000000000000000000000000081526004018080602001828103825260288152602001806175a06028913960400191505060405180910390fd5b6001600b60006101000a81548160ff0219169083151502179055507f505ab4202e673074a7b93ec3c2ca442c3526a42232835c56d223bd09672c5b0d60405160405180910390a1565b6000600860009054906101000a900473ffffffffffffffffffffffffffffffffffffffff1673ffffffffffffffffffffffffffffffffffffffff168273ffffffffffffffffffffffffffffffffffffffff16148061398d5750600760009054906101000a900473ffffffffffffffffffffffffffffffffffffffff1673ffffffffffffffffffffffffffffffffffffffff168273ffffffffffffffffffffffffffffffffffffffff16145b9050919050565b600860009054906101000a900473ffffffffffffffffffffffffffffffffffffffff1673ffffffffffffffffffffffffffffffffffffffff166139d5614fff565b73ffffffffffffffffffffffffffffffffffffffff1614613a41576040517f08c379a00000000000000000000000000000000000000000000000000000000081526004018080602001828103825260258152602001806170b26025913960400191505060405180910390fd5b6000600b60019054906101000a900473ffffffffffffffffffffffffffffffffffffffff169050600073ffffffffffffffffffffffffffffffffffffffff168173ffffffffffffffffffffffffffffffffffffffff161415613aee576040517f08c379a000000000000000000000000000000000000000000000000000000000815260040180806020018281038252603181526020018061725b6031913960400191505060405180910390fd5b600b60016101000a81549073ffffffffffffffffffffffffffffffffffffffff02191690558073ffffffffffffffffffffffffffffffffffffffff167fe4136584a5e8bb85d66301f3ce8b11cc2e5a8bea3979f10ea2451353849acc4760405160405180910390a250565b6000600860009054906101000a900473ffffffffffffffffffffffffffffffffffffffff16905090565b606060018054600181600116156101000203166002900480601f016020809104026020016040519081016040528092919081815260200182805460018160011615610100020316600290048015613c1b5780601f10613bf057610100808354040283529160200191613c1b565b820191906000526020600020905b815481529060010190602001808311613bfe57829003601f168201915b50505050509050600081511415613d9057600660009054906101000a900473ffffffffffffffffffffffffffffffffffffffff1673ffffffffffffffffffffffffffffffffffffffff1663b47b06006040518163ffffffff1660e01b815260040160006040518083038186803b158015613c9457600080fd5b505afa158015613ca8573d6000803e3d6000fd5b505050506040513d6000823e3d601f19601f820116820180604052506020811015613cd257600080fd5b8101908080516040519392919084640100000000821115613cf257600080fd5b83820191506020820185811115613d0857600080fd5b8251866001820283011164010000000082111715613d2557600080fd5b8083526020830192505050908051906020019080838360005b83811015613d59578082015181840152602081019050613d3e565b50505050905090810190601f168015613d865780820380516001836020036101000a031916815260200191505b5060405250505090505b90565b6000600660009054906101000a900473ffffffffffffffffffffffffffffffffffffffff1673ffffffffffffffffffffffffffffffffffffffff16633d7c74f8306040518263ffffffff1660e01b8152600401808273ffffffffffffffffffffffffffffffffffffffff16815260200191505060206040518083038186803b158015613e1e57600080fd5b505afa158015613e32573d6000803e3d6000fd5b505050506040513d6020811015613e4857600080fd5b8101908080519060200190929190505050905090565b6000613e6b338484614db2565b613e758383615e8a565b905092915050565b6060600560009054906101000a900473ffffffffffffffffffffffffffffffffffffffff1673ffffffffffffffffffffffffffffffffffffffff163373ffffffffffffffffffffffffffffffffffffffff1614613f25576040517f08c379a000000000000000000000000000000000000000000000000000000000815260040180806020018281038252602f81526020018061731c602f913960400191505060405180910390fd5b60008473ffffffffffffffffffffffffffffffffffffffff1684846040518083838082843780830192505050925050506000604051808303816000865af19150503d8060008114613f92576040519150601f19603f3d011682016040523d82523d6000602084013e613f97565b606091505b508093508192505050808290614048576040517f08c379a00000000000000000000000000000000000000000000000000000000081526004018080602001828103825283818151815260200191508051906020019080838360005b8381101561400d578082015181840152602081019050613ff2565b50505050905090810190601f16801561403a5780820380516001836020036101000a031916815260200191505b509250505060405180910390fd5b50509392505050565b600660009054906101000a900473ffffffffffffffffffffffffffffffffffffffff1673ffffffffffffffffffffffffffffffffffffffff163373ffffffffffffffffffffffffffffffffffffffff16146140f7576040517f08c379a00000000000000000000000000000000000000000000000000000000081526004018080602001828103825260328152602001806173fc6032913960400191505060405180910390fd5b61410081615b4b565b50565b60007f0000000000000000000000000000000000000000000000000000000000000000905090565b60007f0000000000000000000000000000000000000000000000000000000000000000905090565b600860009054906101000a900473ffffffffffffffffffffffffffffffffffffffff1673ffffffffffffffffffffffffffffffffffffffff16614194614fff565b73ffffffffffffffffffffffffffffffffffffffff1614806141e857506141b9613d93565b73ffffffffffffffffffffffffffffffffffffffff163373ffffffffffffffffffffffffffffffffffffffff16145b61425a576040517f08c379a000000000000000000000000000000000000000000000000000000000815260040180806020018281038252600c8152602001807f556e617574686f72697a6564000000000000000000000000000000000000000081525060200191505060405180910390fd5b81816001919061426b929190617014565b507f3e46ff90086ee29856e77591e82c82ff8ed513379b0fd82e84fc5290dd633c99828260405180806020018281038252848482818152602001925080828437600081840152601f19601f820116905080830192505050935050505060405180910390a15050565b6060600c80548060200260200160405190810160405280929190818152602001828054801561435757602002820191906000526020600020905b8160009054906101000a900473ffffffffffffffffffffffffffffffffffffffff1673ffffffffffffffffffffffffffffffffffffffff168152602001906001019080831161430d575b5050505050905090565b600560009054906101000a900473ffffffffffffffffffffffffffffffffffffffff1673ffffffffffffffffffffffffffffffffffffffff163373ffffffffffffffffffffffffffffffffffffffff1614614407576040517f08c379a000000000000000000000000000000000000000000000000000000000815260040180806020018281038252602f81526020018061731c602f913960400191505060405180910390fd5b614412838383615ea1565b505050565b600860009054906101000a900473ffffffffffffffffffffffffffffffffffffffff1673ffffffffffffffffffffffffffffffffffffffff16614458614fff565b73ffffffffffffffffffffffffffffffffffffffff16146144c4576040517f08c379a00000000000000000000000000000000000000000000000000000000081526004018080602001828103825260258152602001806170b26025913960400191505060405180910390fd5b8181600091906144d5929190617014565b507f13c98778b0c1a086bb98d7f1986e15788b5d3a1ad4c492e1d78f1c4cc51c20cf828260405180806020018281038252848482818152602001925080828437600081840152601f19601f820116905080830192505050935050505060405180910390a15050565b606060098054806020026020016040519081016040528092919081815260200182805480156145c157602002820191906000526020600020905b8160009054906101000a900473ffffffffffffffffffffffffffffffffffffffff1673ffffffffffffffffffffffffffffffffffffffff1681526020019060010190808311614577575b5050505050905090565b6000600760009054906101000a900473ffffffffffffffffffffffffffffffffffffffff16905090565b600560009054906101000a900473ffffffffffffffffffffffffffffffffffffffff1673ffffffffffffffffffffffffffffffffffffffff163373ffffffffffffffffffffffffffffffffffffffff161461469b576040517f08c379a000000000000000000000000000000000000000000000000000000000815260040180806020018281038252602f81526020018061731c602f913960400191505060405180910390fd5b60006146a5613674565b73ffffffffffffffffffffffffffffffffffffffff1663296102526040518163ffffffff1660e01b8152600401602060405180830381600087803b1580156146ec57600080fd5b505af1158015614700573d6000803e3d6000fd5b505050506040513d602081101561471657600080fd5b8101908080519060200190929190505050905060008114156147385750614782565b614749614743614784565b8261598e565b7f390f4e733d9d6104fbfb7508fdaf57640ea4179603e995d21027fda40e257697816040518082815260200191505060405180910390a1505b565b60007f0000000000000000000000000000000000000000000000000000000000000000905090565b6000600460008473ffffffffffffffffffffffffffffffffffffffff1673ffffffffffffffffffffffffffffffffffffffff16815260200190815260200160002060008373ffffffffffffffffffffffffffffffffffffffff1673ffffffffffffffffffffffffffffffffffffffff16815260200190815260200160002054905092915050565b60007f0000000000000000000000000000000000000000000000000000000000000000905090565b600560009054906101000a900473ffffffffffffffffffffffffffffffffffffffff1673ffffffffffffffffffffffffffffffffffffffff163373ffffffffffffffffffffffffffffffffffffffff1614614901576040517f08c379a000000000000000000000000000000000000000000000000000000000815260040180806020018281038252602f81526020018061731c602f913960400191505060405180910390fd5b61490b8282614b56565b5050565b60007f0000000000000000000000000000000000000000000000000000000000000000905090565b60007f0000000000000000000000000000000000000000000000000000000000000000905090565b600073ffffffffffffffffffffffffffffffffffffffff168373ffffffffffffffffffffffffffffffffffffffff1614156149e5576040517f08c379a00000000000000000000000000000000000000000000000000000000081526004018080602001828103825260248152602001806175526024913960400191505060405180910390fd5b600073ffffffffffffffffffffffffffffffffffffffff168273ffffffffffffffffffffffffffffffffffffffff161415614a6b576040517f08c379a000000000000000000000000000000000000000000000000000000000815260040180806020018281038252602281526020018061714d6022913960400191505060405180910390fd5b80600460008573ffffffffffffffffffffffffffffffffffffffff1673ffffffffffffffffffffffffffffffffffffffff16815260200190815260200160002060008473ffffffffffffffffffffffffffffffffffffffff1673ffffffffffffffffffffffffffffffffffffffff168152602001908152602001600020819055508173ffffffffffffffffffffffffffffffffffffffff168373ffffffffffffffffffffffffffffffffffffffff167f8c5be1e5ebec7d5bd14f71427d1e84f3dd0314c0f7b2291e5b200ac8c7c3b925836040518082815260200191505060405180910390a3505050565b600073ffffffffffffffffffffffffffffffffffffffff168273ffffffffffffffffffffffffffffffffffffffff161415614bdc576040517f08c379a000000000000000000000000000000000000000000000000000000000815260040180806020018281038252602181526020018061742e6021913960400191505060405180910390fd5b614c48816040518060600160405280602281526020016170fa60229139600360008673ffffffffffffffffffffffffffffffffffffffff1673ffffffffffffffffffffffffffffffffffffffff1681526020019081526020016000205461615b9092919063ffffffff16565b600360008473ffffffffffffffffffffffffffffffffffffffff1673ffffffffffffffffffffffffffffffffffffffff16815260200190815260200160002081905550614ca08160025461621b90919063ffffffff16565b600281905550600073ffffffffffffffffffffffffffffffffffffffff168273ffffffffffffffffffffffffffffffffffffffff167fddf252ad1be2c89b69c2b068fc378daa952ba7f163c4a11628f55a4df523b3ef836040518082815260200191505060405180910390a35050565b614dad8363a9059cbb60e01b8484604051602401808373ffffffffffffffffffffffffffffffffffffffff16815260200182815260200192505050604051602081830303815290604052907bffffffffffffffffffffffffffffffffffffffffffffffffffffffff19166020820180517bffffffffffffffffffffffffffffffffffffffffffffffffffffffff8381831617835250505050616248565b505050565b614dba612449565b15614e6557600560009054906101000a900473ffffffffffffffffffffffffffffffffffffffff1673ffffffffffffffffffffffffffffffffffffffff1663f9d5fe78846040518263ffffffff1660e01b8152600401808273ffffffffffffffffffffffffffffffffffffffff16815260200191505060006040518083038186803b158015614e4857600080fd5b505afa158015614e5c573d6000803e3d6000fd5b50505050614f2f565b600560009054906101000a900473ffffffffffffffffffffffffffffffffffffffff1673ffffffffffffffffffffffffffffffffffffffff166312f205268484846040518463ffffffff1660e01b8152600401808473ffffffffffffffffffffffffffffffffffffffff1681526020018373ffffffffffffffffffffffffffffffffffffffff1681526020018281526020019350505050600060405180830381600087803b158015614f1657600080fd5b505af1158015614f2a573d6000803e3d6000fd5b505050505b505050565b6000614f41848484615ea1565b614ff48433614fef8560405180606001604052806028815260200161734b60289139600460008b73ffffffffffffffffffffffffffffffffffffffff1673ffffffffffffffffffffffffffffffffffffffff16815260200190815260200160002060003373ffffffffffffffffffffffffffffffffffffffff1673ffffffffffffffffffffffffffffffffffffffff1681526020019081526020016000205461615b9092919063ffffffff16565b61495f565b600190509392505050565b6000601860003690501015801561504857506150196130d8565b73ffffffffffffffffffffffffffffffffffffffff163373ffffffffffffffffffffffffffffffffffffffff16145b1561505c57601436033560601c9050615060565b3390505b90565b61509181806020019051602081101561507b57600080fd5b8101908080519060200190929190505050616337565b50565b6150c28180602001905160208110156150ac57600080fd5b81019080805190602001909291905050506157c9565b50565b60008060008380602001905160608110156150df57600080fd5b8101908080519060200190929190805190602001909291908051906020019092919050505092509250925061511583838361644e565b50505050565b60008082806020019051604081101561513357600080fd5b8101908080519060200190929190805190602001909291905050509150915061515c8282614b56565b505050565b60006060806060808580602001905160a081101561517e57600080fd5b8101908080519060200190929190805160405193929190846401000000008211156151a857600080fd5b838201915060208201858111156151be57600080fd5b82518660018202830111640100000000821117156151db57600080fd5b8083526020830192505050908051906020019080838360005b8381101561520f5780820151818401526020810190506151f4565b50505050905090810190601f16801561523c5780820380516001836020036101000a031916815260200191505b506040526020018051604051939291908464010000000082111561525f57600080fd5b8382019150602082018581111561527557600080fd5b825186602082028301116401000000008211171561529257600080fd5b8083526020830192505050908051906020019060200280838360005b838110156152c95780820151818401526020810190506152ae565b50505050905001604052602001805160405193929190846401000000008211156152f257600080fd5b8382019150602082018581111561530857600080fd5b825186602082028301116401000000008211171561532557600080fd5b8083526020830192505050908051906020019060200280838360005b8381101561535c578082015181840152602081019050615341565b505050509050016040526020018051604051939291908464010000000082111561538557600080fd5b8382019150602082018581111561539b57600080fd5b82518660208202830111640100000000821117156153b857600080fd5b8083526020830192505050908051906020019060200280838360005b838110156153ef5780820151818401526020810190506153d4565b5050505090500160405250505094509450945094509450615413858585858561661d565b505050505050565b60008082806020019051604081101561543357600080fd5b8101908080519060200190929190805190602001909291905050509150915061545c828261598e565b505050565b61548f81806020019051602081101561547957600080fd5b81019080805190602001909291905050506167d3565b50565b6154c08180602001905160208110156154aa57600080fd5b8101908080519060200190929190505050616895565b50565b60008060008380602001905160608110156154dd57600080fd5b81019080805190602001909291908051906020019092919080519060200190929190505050925092509250615513838383615ea1565b50505050565b600080600083806020019051606081101561553357600080fd5b81019080805190602001909291908051906020019092919080519060200190929190505050925092509250615569838383615690565b50505050565b8073ffffffffffffffffffffffffffffffffffffffff166352d1902d6040518163ffffffff1660e01b815260040160206040518083038186803b1580156155b557600080fd5b505afa1580156155c9573d6000803e3d6000fd5b505050506040513d60208110156155df57600080fd5b81019080805190602001909291905050507f027b9570e9fedc1a80b937ae9a06861e5faef3992491af30b684a64b3fbec7a560001b1461566a576040517f08c379a000000000000000000000000000000000000000000000000000000000815260040180806020018281038252603181526020018061711c6031913960400191505060405180910390fd5b807f360894a13ba1a3210667c828492db98dca3e2076cc3735a920a3ca505d382bbc5550565b823073ffffffffffffffffffffffffffffffffffffffff168173ffffffffffffffffffffffffffffffffffffffff161415615733576040517f08c379a00000000000000000000000000000000000000000000000000000000081526004018080602001828103825260148152602001807f43616e6e6f7420616374206f6e2073686172657300000000000000000000000081525060200191505060405180910390fd5b61575e83838673ffffffffffffffffffffffffffffffffffffffff16614d109092919063ffffffff16565b8273ffffffffffffffffffffffffffffffffffffffff168473ffffffffffffffffffffffffffffffffffffffff167f6f9cbac839b826cc524f53d10416c053fce34ec15fd1001720e777cc49720e76846040518082815260200191505060405180910390a350505050565b803073ffffffffffffffffffffffffffffffffffffffff168173ffffffffffffffffffffffffffffffffffffffff16141561586c576040517f08c379a00000000000000000000000000000000000000000000000000000000081526004018080602001828103825260148152602001807f43616e6e6f7420616374206f6e2073686172657300000000000000000000000081525060200191505060405180910390fd5b61587582613738565b61598a57615881616961565b6001600a60008473ffffffffffffffffffffffffffffffffffffffff1673ffffffffffffffffffffffffffffffffffffffff16815260200190815260200160002060006101000a81548160ff0219169083151502179055506009829080600181540180825580915050600190039060005260206000200160009091909190916101000a81548173ffffffffffffffffffffffffffffffffffffffff021916908373ffffffffffffffffffffffffffffffffffffffff1602179055507fa0d2bfad19dc0c6970d2a2fcff65458a6d7c4fa3b6d904f44961b2c744bdf59182604051808273ffffffffffffffffffffffffffffffffffffffff16815260200191505060405180910390a15b5050565b600073ffffffffffffffffffffffffffffffffffffffff168273ffffffffffffffffffffffffffffffffffffffff161415615a31576040517f08c379a000000000000000000000000000000000000000000000000000000000815260040180806020018281038252601f8152602001807f45524332303a206d696e7420746f20746865207a65726f20616464726573730081525060200191505060405180910390fd5b615a46816002546169ce90919063ffffffff16565b600281905550615a9e81600360008573ffffffffffffffffffffffffffffffffffffffff1673ffffffffffffffffffffffffffffffffffffffff168152602001908152602001600020546169ce90919063ffffffff16565b600360008473ffffffffffffffffffffffffffffffffffffffff1673ffffffffffffffffffffffffffffffffffffffff168152602001908152602001600020819055508173ffffffffffffffffffffffffffffffffffffffff16600073ffffffffffffffffffffffffffffffffffffffff167fddf252ad1be2c89b69c2b068fc378daa952ba7f163c4a11628f55a4df523b3ef836040518082815260200191505060405180910390a35050565b600073ffffffffffffffffffffffffffffffffffffffff168173ffffffffffffffffffffffffffffffffffffffff161415615bd1576040517f08c379a000000000000000000000000000000000000000000000000000000000815260040180806020018281038252602c8152602001806174af602c913960400191505060405180910390fd5b6000600560009054906101000a900473ffffffffffffffffffffffffffffffffffffffff16905081600560006101000a81548173ffffffffffffffffffffffffffffffffffffffff021916908373ffffffffffffffffffffffffffffffffffffffff1602179055507fb5a9def940973a936e331170816650368964b0602957d4bc60f5ddc2dc1b69cd8183604051808373ffffffffffffffffffffffffffffffffffffffff1681526020018273ffffffffffffffffffffffffffffffffffffffff1681526020019250505060405180910390a15050565b600073ffffffffffffffffffffffffffffffffffffffff168173ffffffffffffffffffffffffffffffffffffffff161415615d2e576040517f08c379a00000000000000000000000000000000000000000000000000000000081526004018080602001828103825260268152602001806171c16026913960400191505060405180910390fd5b6000600860009054906101000a900473ffffffffffffffffffffffffffffffffffffffff1690508073ffffffffffffffffffffffffffffffffffffffff168273ffffffffffffffffffffffffffffffffffffffff161415615dda576040517f08c379a000000000000000000000000000000000000000000000000000000000815260040180806020018281038252602b815260200180617396602b913960400191505060405180910390fd5b81600860006101000a81548173ffffffffffffffffffffffffffffffffffffffff021916908373ffffffffffffffffffffffffffffffffffffffff1602179055507f342827c97908e5e2f71151c08502a66d44b6f758e3ac2f1de95f02eb95f0a7358183604051808373ffffffffffffffffffffffffffffffffffffffff1681526020018273ffffffffffffffffffffffffffffffffffffffff1681526020019250505060405180910390a15050565b6000615e97338484615ea1565b6001905092915050565b600073ffffffffffffffffffffffffffffffffffffffff168373ffffffffffffffffffffffffffffffffffffffff161415615f27576040517f08c379a000000000000000000000000000000000000000000000000000000000815260040180806020018281038252602581526020018061748a6025913960400191505060405180910390fd5b600073ffffffffffffffffffffffffffffffffffffffff168273ffffffffffffffffffffffffffffffffffffffff161415615fad576040517f08c379a00000000000000000000000000000000000000000000000000000000081526004018080602001828103825260238152602001806170d76023913960400191505060405180910390fd5b6160198160405180606001604052806026815260200161719b60269139600360008773ffffffffffffffffffffffffffffffffffffffff1673ffffffffffffffffffffffffffffffffffffffff1681526020019081526020016000205461615b9092919063ffffffff16565b600360008573ffffffffffffffffffffffffffffffffffffffff1673ffffffffffffffffffffffffffffffffffffffff168152602001908152602001600020819055506160ae81600360008573ffffffffffffffffffffffffffffffffffffffff1673ffffffffffffffffffffffffffffffffffffffff168152602001908152602001600020546169ce90919063ffffffff16565b600360008473ffffffffffffffffffffffffffffffffffffffff1673ffffffffffffffffffffffffffffffffffffffff168152602001908152602001600020819055508173ffffffffffffffffffffffffffffffffffffffff168373ffffffffffffffffffffffffffffffffffffffff167fddf252ad1be2c89b69c2b068fc378daa952ba7f163c4a11628f55a4df523b3ef836040518082815260200191505060405180910390a3505050565b6000838311158290616208576040517f08c379a00000000000000000000000000000000000000000000000000000000081526004018080602001828103825283818151815260200191508051906020019080838360005b838110156161cd5780820151818401526020810190506161b2565b50505050905090810190601f1680156161fa5780820380516001836020036101000a031916815260200191505b509250505060405180910390fd5b5060008385039050809150509392505050565b600061624083836040518060600160405280602681526020016172356026913961615b565b905092915050565b60606162aa826040518060400160405280602081526020017f5361666545524332303a206c6f772d6c6576656c2063616c6c206661696c65648152508573ffffffffffffffffffffffffffffffffffffffff16616a399092919063ffffffff16565b9050600081511115616332578080602001905160208110156162cb57600080fd5b8101908080519060200190929190505050616331576040517f08c379a000000000000000000000000000000000000000000000000000000000815260040180806020018281038252602a815260200180617576602a913960400191505060405180910390fd5b5b505050565b61634081613230565b61644b5761634c616961565b6001600e60008373ffffffffffffffffffffffffffffffffffffffff1673ffffffffffffffffffffffffffffffffffffffff16815260200190815260200160002060006101000a81548160ff021916908315150217905550600c819080600181540180825580915050600190039060005260206000200160009091909190916101000a81548173ffffffffffffffffffffffffffffffffffffffff021916908373ffffffffffffffffffffffffffffffffffffffff1602179055508073ffffffffffffffffffffffffffffffffffffffff167f07524f5de87a754cb09f25965c3355b50dfece5fa624111739d5bf5caa05ebe660405160405180910390a25b50565b823073ffffffffffffffffffffffffffffffffffffffff168173ffffffffffffffffffffffffffffffffffffffff1614156164f1576040517f08c379a00000000000000000000000000000000000000000000000000000000081526004018080602001828103825260148152602001807f43616e6e6f7420616374206f6e2073686172657300000000000000000000000081525060200191505060405180910390fd5b600084905060008173ffffffffffffffffffffffffffffffffffffffff1663dd62ed3e30876040518363ffffffff1660e01b8152600401808373ffffffffffffffffffffffffffffffffffffffff1681526020018273ffffffffffffffffffffffffffffffffffffffff1681526020019250505060206040518083038186803b15801561657d57600080fd5b505afa158015616591573d6000803e3d6000fd5b505050506040513d60208110156165a757600080fd5b810190808051906020019092919050505011156165eb576165ea8460008373ffffffffffffffffffffffffffffffffffffffff16616a519092919063ffffffff16565b5b61661684848373ffffffffffffffffffffffffffffffffffffffff16616a519092919063ffffffff16565b5050505050565b61662685613230565b61667b576040517f08c379a00000000000000000000000000000000000000000000000000000000081526004018080602001828103825260398152602001806175196039913960400191505060405180910390fd5b60005b83518110156166c5576166b884828151811061669657fe5b6020026020010151878584815181106166ab57fe5b6020026020010151615690565b808060010191505061667e565b508473ffffffffffffffffffffffffffffffffffffffff1663e5c23a97856040518263ffffffff1660e01b81526004018080602001828103825283818151815260200191508051906020019080838360005b83811015616732578082015181840152602081019050616717565b50505050905090810190601f16801561675f5780820380516001836020036101000a031916815260200191505b5092505050600060405180830381600087803b15801561677e57600080fd5b505af1158015616792573d6000803e3d6000fd5b5050505060005b81518110156167cb576167be8282815181106167b157fe5b60200260200101516157c9565b8080600101915050616799565b505050505050565b6167dc81613230565b15616892576000600e60008373ffffffffffffffffffffffffffffffffffffffff1673ffffffffffffffffffffffffffffffffffffffff16815260200190815260200160002060006101000a81548160ff02191690831515021790555061684d81600c616c1690919063ffffffff16565b508073ffffffffffffffffffffffffffffffffffffffff167f5af401380f7c5a87ba294191b430d5c1c6dcc133c1d774c092cb0d6a52e20bef60405160405180910390a25b50565b61689e81613738565b1561695e576000600a60008373ffffffffffffffffffffffffffffffffffffffff1673ffffffffffffffffffffffffffffffffffffffff16815260200190815260200160002060006101000a81548160ff02191690831515021790555061690f816009616c1690919063ffffffff16565b507f22c4fcf23b40d39b02733ec19a3975b31172f2a5b2ce5d0f1831525276cd715681604051808273ffffffffffffffffffffffffffffffffffffffff16815260200191505060405180910390a15b50565b616969614937565b600c8054905060098054905001106169cc576040517f08c379a00000000000000000000000000000000000000000000000000000000081526004018080602001828103825260288152602001806171e76028913960400191505060405180910390fd5b565b600080828401905083811015616a2f576040517f08c379a00000000000000000000000000000000000000000000000000000000081526004018080602001828103825260238152602001806173736023913960400191505060405180910390fd5b8091505092915050565b6060616a488484600085616d8c565b90509392505050565b6000811480616b1f575060008373ffffffffffffffffffffffffffffffffffffffff1663dd62ed3e30856040518363ffffffff1660e01b8152600401808373ffffffffffffffffffffffffffffffffffffffff1681526020018273ffffffffffffffffffffffffffffffffffffffff1681526020019250505060206040518083038186803b158015616ae257600080fd5b505afa158015616af6573d6000803e3d6000fd5b505050506040513d6020811015616b0c57600080fd5b8101908080519060200190929190505050145b616b74576040517f08c379a00000000000000000000000000000000000000000000000000000000081526004018080602001828103825260368152602001806175f36036913960400191505060405180910390fd5b616c118363095ea7b360e01b8484604051602401808373ffffffffffffffffffffffffffffffffffffffff16815260200182815260200192505050604051602081830303815290604052907bffffffffffffffffffffffffffffffffffffffffffffffffffffffff19166020820180517bffffffffffffffffffffffffffffffffffffffffffffffffffffffff8381831617835250505050616248565b505050565b6000808380549050905060005b81811015616d84578373ffffffffffffffffffffffffffffffffffffffff16858281548110616c4e57fe5b9060005260206000200160009054906101000a900473ffffffffffffffffffffffffffffffffffffffff1673ffffffffffffffffffffffffffffffffffffffff161415616d775760018203811015616d2f57846001830381548110616caf57fe5b9060005260206000200160009054906101000a900473ffffffffffffffffffffffffffffffffffffffff16858281548110616ce657fe5b9060005260206000200160006101000a81548173ffffffffffffffffffffffffffffffffffffffff021916908373ffffffffffffffffffffffffffffffffffffffff1602179055505b84805480616d3957fe5b6001900381819060005260206000200160006101000a81549073ffffffffffffffffffffffffffffffffffffffff0219169055905560019250616d84565b8080600101915050616c23565b505092915050565b606082471015616de7576040517f08c379a000000000000000000000000000000000000000000000000000000000815260040180806020018281038252602681526020018061720f6026913960400191505060405180910390fd5b616df085616f35565b616e62576040517f08c379a000000000000000000000000000000000000000000000000000000000815260040180806020018281038252601d8152602001807f416464726573733a2063616c6c20746f206e6f6e2d636f6e747261637400000081525060200191505060405180910390fd5b600060608673ffffffffffffffffffffffffffffffffffffffff1685876040518082805190602001908083835b60208310616eb25780518252602082019150602081019050602083039250616e8f565b6001836020036101000a03801982511681845116808217855250505050505090500191505060006040518083038185875af1925050503d8060008114616f14576040519150601f19603f3d011682016040523d82523d6000602084013e616f19565b606091505b5091509150616f29828286616f48565b92505050949350505050565b600080823b905060008111915050919050565b60608315616f585782905061700d565b600083511115616f6b5782518084602001fd5b816040517f08c379a00000000000000000000000000000000000000000000000000000000081526004018080602001828103825283818151815260200191508051906020019080838360005b83811015616fd2578082015181840152602081019050616fb7565b50505050905090810190601f168015616fff5780820380516001836020036101000a031916815260200191505b509250505060405180910390fd5b9392505050565b828054600181600116156101000203166002900490600052602060002090601f016020900481019282601f1061705557803560ff1916838001178555617083565b82800160010185558215617083579182015b82811115617082578235825591602001919060010190617067565b5b5090506170909190617094565b5090565b5b808211156170ad576000816000905550600101617095565b509056fe4f6e6c7920746865206f776e65722063616e2063616c6c20746869732066756e6374696f6e45524332303a207472616e7366657220746f20746865207a65726f206164647265737345524332303a206275726e20616d6f756e7420657863656564732062616c616e63655f5f757064617465436f6465416464726573733a205f6e6578745661756c744c6962206e6f7420636f6d70617469626c6545524332303a20617070726f766520746f20746865207a65726f206164647265737361646441737365744d616e61676572733a204d616e6167657220616c7265616479207265676973746572656445524332303a207472616e7366657220616d6f756e7420657863656564732062616c616e63655f5f7365744f776e65723a205f6e6578744f776e65722063616e6e6f7420626520656d7074795f5f76616c6964617465506f736974696f6e734c696d69743a204c696d6974206578636565646564416464726573733a20696e73756666696369656e742062616c616e636520666f722063616c6c5661756c744c6962536166654d6174683a207375627472616374696f6e206f766572666c6f7772656d6f76654e6f6d696e617465644f776e65723a205468657265206973206e6f206e6f6d696e61746564206f776e65727365744e6f6d696e617465644f776e65723a205f6e6578744e6f6d696e617465644f776e65722063616e6e6f7420626520656d7074797365745661756c744c69623a204f6e6c792063616c6c61626c652062792074686520636f6e74726163742063726561746f724f6e6c79207468652046756e644465706c6f7965722063616e206d616b6520746869732063616c6c4f6e6c79207468652064657369676e61746564206163636573736f722063616e206d616b6520746869732063616c6c45524332303a207472616e7366657220616d6f756e74206578636565647320616c6c6f77616e63655661756c744c6962536166654d6174683a206164646974696f6e206f766572666c6f775f5f7365744f776e65723a205f6e6578744f776e6572206973207468652063757272656e74206f776e65727365744e6f6d696e617465644f776e65723a205f6e6578744e6f6d696e617465644f776e657220697320616c726561647920746865206f776e65727365744163636573736f723a204f6e6c792063616c6c61626c652062792074686520636f6e74726163742063726561746f7245524332303a206275726e2066726f6d20746865207a65726f20616464726573737365744e6f6d696e617465644f776e65723a205f6e6578744e6f6d696e617465644f776e657220697320616c7265616479206e6f6d696e6174656445524332303a207472616e736665722066726f6d20746865207a65726f20616464726573735f5f7365744163636573736f723a205f6e6578744163636573736f722063616e6e6f7420626520656d707479636c61696d4f776e6572736869703a204f6e6c7920746865206e6f6d696e617465644f776e65722063616e2063616c6c20746869732066756e6374696f6e5f5f63616c6c4f6e45787465726e616c506f736974696f6e3a204e6f7420616e206163746976652065787465726e616c20706f736974696f6e45524332303a20617070726f76652066726f6d20746865207a65726f20616464726573735361666545524332303a204552433230206f7065726174696f6e20646964206e6f742073756363656564736574467265656c795472616e7366657261626c655368617265733a20416c72656164792073657472656d6f766541737365744d616e61676572733a204d616e61676572206e6f7420726567697374657265645361666545524332303a20617070726f76652066726f6d206e6f6e2d7a65726f20746f206e6f6e2d7a65726f20616c6c6f77616e6365a164736f6c634300060c000a","linkReferences":{}},"methodIdentifiers":{"addAssetManagers(address[])":"3e11553d","addTrackedAsset(address)":"4ef0762e","allowance(address,address)":"dd62ed3e","approve(address,uint256)":"095ea7b3","balanceOf(address)":"70a08231","burnShares(address,uint256)":"ee7a7c04","buyBackProtocolFeeShares(uint256,uint256,uint256)":"1ff46bfa","callOnContract(address,bytes)":"a90cce4b","canManageAssets(address)":"714ca2d1","canMigrate(address)":"7de07cea","canRelayCalls(address)":"36861889","claimOwnership()":"4e71e0c8","decimals()":"313ce567","getAccessor()":"5a53e348","getActiveExternalPositions()":"b8b7f147","getCreator()":"0ee2cb10","getExternalPositionLibForType(uint256)":"75d8bb0e","getExternalPositionManager()":"b3fc38e9","getFundDeployer()":"97c0ac87","getGasRelayPaymasterFactory()":"ac259456","getGasRelayTrustedForwarder()":"6ea21143","getMigrator()":"cd63d578","getMlnBurner()":"fe15c02a","getMlnToken()":"e70e605e","getNominatedOwner()":"288b6a36","getOwner()":"893d20e8","getPositionsLimit()":"ff3cdf56","getProtocolFeeReserve()":"da41962e","getProtocolFeeTracker()":"749cc8f5","getTrackedAssets()":"c4b97370","getVaultLib()":"682cea19","getWethToken()":"4c252f91","init(address,address,string)":"5c9a6d37","isActiveExternalPosition(address)":"712bd102","isAssetManager(address)":"6487aa11","isTrackedAsset(address)":"797ed339","mintShares(address,uint256)":"528c198a","name()":"06fdde03","payProtocolFee()":"d5c20fa2","proxiableUUID()":"52d1902d","receiveValidatedVaultAction(uint8,bytes)":"24e60012","removeAssetManagers(address[])":"64cb36cb","removeNominatedOwner()":"8156eecf","setAccessor(address)":"ab9253ac","setAccessorForFundReconfiguration(address)":"740f2b5a","setFreelyTransferableShares()":"7c81ac2d","setMigrator(address)":"23cf3118","setName(string)":"c47f0027","setNominatedOwner(address)":"728e17a0","setSymbol(string)":"b84c8246","setVaultLib(address)":"4140d607","sharesAreFreelyTransferable()":"28c2ad9c","symbol()":"95d89b41","totalSupply()":"18160ddd","transfer(address,uint256)":"a9059cbb","transferFrom(address,address,uint256)":"23b872dd","transferShares(address,address,uint256)":"bfc77beb","withdrawAssetTo(address,address,uint256)":"495d753c"},"id":136}