{"abi":[{"type":"constructor","inputs":[{"name":"_dispatcher","type":"address","internalType":"address"},{"name":"_fundDeployers","type":"address[]","internalType":"address[]"},{"name":"_helperDataReadersInfo","type":"tuple[]","internalType":"struct HelperDataReaderRouter.HelperDataReaderInfo[]","components":[{"name":"helperDataReader","type":"address","internalType":"contract IHelperDataReader"},{"name":"version","type":"uint8","internalType":"uint8"}]}],"stateMutability":"nonpayable"},{"type":"function","name":"getDispatcher","inputs":[],"outputs":[{"name":"dispatcher_","type":"address","internalType":"address"}],"stateMutability":"view"},{"type":"function","name":"getHelperDataReaderForVault","inputs":[{"name":"_vaultProxy","type":"address","internalType":"address"}],"outputs":[{"name":"","type":"tuple","internalType":"struct HelperDataReaderRouter.HelperDataReaderInfo","components":[{"name":"helperDataReader","type":"address","internalType":"contract IHelperDataReader"},{"name":"version","type":"uint8","internalType":"uint8"}]}],"stateMutability":"view"},{"type":"function","name":"getHelperDataReaderInfoForFundDeployer","inputs":[{"name":"_fundDeployer","type":"address","internalType":"address"}],"outputs":[{"name":"helperDataReader_","type":"tuple","internalType":"struct HelperDataReaderRouter.HelperDataReaderInfo","components":[{"name":"helperDataReader","type":"address","internalType":"contract IHelperDataReader"},{"name":"version","type":"uint8","internalType":"uint8"}]}],"stateMutability":"view"},{"type":"function","name":"getVaultActiveExternalPositionsDetails","inputs":[{"name":"_vaultProxy","type":"address","internalType":"address"}],"outputs":[{"name":"data","type":"bytes","internalType":"bytes"},{"name":"version","type":"uint8","internalType":"uint8"}],"stateMutability":"nonpayable"},{"type":"function","name":"getVaultDetails","inputs":[{"name":"_vaultProxy","type":"address","internalType":"address"}],"outputs":[{"name":"data","type":"bytes","internalType":"bytes"},{"name":"version","type":"uint8","internalType":"uint8"}],"stateMutability":"nonpayable"},{"type":"function","name":"getVaultFeesDetails","inputs":[{"name":"_vaultProxy","type":"address","internalType":"address"}],"outputs":[{"name":"data","type":"bytes","internalType":"bytes"},{"name":"version","type":"uint8","internalType":"uint8"}],"stateMutability":"nonpayable"},{"type":"function","name":"getVaultPoliciesDetails","inputs":[{"name":"_vaultProxy","type":"address","internalType":"address"}],"outputs":[{"name":"data","type":"bytes","internalType":"bytes"},{"name":"version","type":"uint8","internalType":"uint8"}],"stateMutability":"nonpayable"},{"type":"function","name":"getVaultTrackedAssetsAmounts","inputs":[{"name":"_vaultProxy","type":"address","internalType":"address"}],"outputs":[{"name":"data","type":"bytes","internalType":"bytes"},{"name":"version","type":"uint8","internalType":"uint8"}],"stateMutability":"nonpayable"},{"type":"function","name":"setHelperDataReaders","inputs":[{"name":"_fundDeployers","type":"address[]","internalType":"address[]"},{"name":"_helperDataReadersInfo","type":"tuple[]","internalType":"struct HelperDataReaderRouter.HelperDataReaderInfo[]","components":[{"name":"helperDataReader","type":"address","internalType":"contract IHelperDataReader"},{"name":"version","type":"uint8","internalType":"uint8"}]}],"outputs":[],"stateMutability":"nonpayable"},{"type":"event","name":"HelperDataReaderUpdated","inputs":[{"name":"fundDeployer","type":"address","indexed":true,"internalType":"address"},{"name":"HelperDataReader","type":"tuple","indexed":false,"internalType":"struct HelperDataReaderRouter.HelperDataReaderInfo","components":[{"name":"helperDataReader","type":"address","internalType":"contract IHelperDataReader"},{"name":"version","type":"uint8","internalType":"uint8"}]}],"anonymous":false}],"bytecode":{"object":"0x60a06040523480156200001157600080fd5b5060405162001da138038062001da1833981810160405281019062000037919062000608565b8273ffffffffffffffffffffffffffffffffffffffff1660808173ffffffffffffffffffffffffffffffffffffffff16815250506200007d82826200008660201b60201c565b505050620008cc565b8051825114620000cd576040517f08c379a0000000000000000000000000000000000000000000000000000000008152600401620000c49062000729565b60405180910390fd5b60005b82518110156200025e57818181518110620000f057620000ef6200074b565b5b60200260200101516000808584815181106200011157620001106200074b565b5b602002602001015173ffffffffffffffffffffffffffffffffffffffff1673ffffffffffffffffffffffffffffffffffffffff16815260200190815260200160002060008201518160000160006101000a81548173ffffffffffffffffffffffffffffffffffffffff021916908373ffffffffffffffffffffffffffffffffffffffff16021790555060208201518160000160146101000a81548160ff021916908360ff160217905550905050828181518110620001d457620001d36200074b565b5b602002602001015173ffffffffffffffffffffffffffffffffffffffff167f0289eda76b6c5a1e351d9910e6a6d0538a953f5345d8c24502da937eadc6bac78383815181106200022957620002286200074b565b5b602002602001015160405162000240919062000829565b60405180910390a2808062000255906200087f565b915050620000d0565b505050565b6000604051905090565b600080fd5b600080fd5b600073ffffffffffffffffffffffffffffffffffffffff82169050919050565b6000620002a48262000277565b9050919050565b620002b68162000297565b8114620002c257600080fd5b50565b600081519050620002d681620002ab565b92915050565b600080fd5b6000601f19601f8301169050919050565b7f4e487b7100000000000000000000000000000000000000000000000000000000600052604160045260246000fd5b6200032c82620002e1565b810181811067ffffffffffffffff821117156200034e576200034d620002f2565b5b80604052505050565b60006200036362000263565b905062000371828262000321565b919050565b600067ffffffffffffffff821115620003945762000393620002f2565b5b602082029050602081019050919050565b600080fd5b6000620003c1620003bb8462000376565b62000357565b90508083825260208201905060208402830185811115620003e757620003e6620003a5565b5b835b81811015620004145780620003ff8882620002c5565b845260208401935050602081019050620003e9565b5050509392505050565b600082601f830112620004365762000435620002dc565b5b815162000448848260208601620003aa565b91505092915050565b600067ffffffffffffffff8211156200046f576200046e620002f2565b5b602082029050602081019050919050565b600080fd5b6000620004928262000297565b9050919050565b620004a48162000485565b8114620004b057600080fd5b50565b600081519050620004c48162000499565b92915050565b600060ff82169050919050565b620004e281620004ca565b8114620004ee57600080fd5b50565b6000815190506200050281620004d7565b92915050565b60006040828403121562000521576200052062000480565b5b6200052d604062000357565b905060006200053f84828501620004b3565b60008301525060206200055584828501620004f1565b60208301525092915050565b600062000578620005728462000451565b62000357565b905080838252602082019050604084028301858111156200059e576200059d620003a5565b5b835b81811015620005cb5780620005b6888262000508565b845260208401935050604081019050620005a0565b5050509392505050565b600082601f830112620005ed57620005ec620002dc565b5b8151620005ff84826020860162000561565b91505092915050565b6000806000606084860312156200062457620006236200026d565b5b60006200063486828701620002c5565b935050602084015167ffffffffffffffff81111562000658576200065762000272565b5b62000666868287016200041e565b925050604084015167ffffffffffffffff8111156200068a576200068962000272565b5b6200069886828701620005d5565b9150509250925092565b600082825260208201905092915050565b7f5f5f73657448656c70657244617461526561646572733a20556e657175616c2060008201527f6172726179206c656e6774687300000000000000000000000000000000000000602082015250565b600062000711602d83620006a2565b91506200071e82620006b3565b604082019050919050565b60006020820190508181036000830152620007448162000702565b9050919050565b7f4e487b7100000000000000000000000000000000000000000000000000000000600052603260045260246000fd5b6000819050919050565b6000620007a56200079f620007998462000277565b6200077a565b62000277565b9050919050565b6000620007b98262000784565b9050919050565b6000620007cd82620007ac565b9050919050565b620007df81620007c0565b82525050565b620007f081620004ca565b82525050565b6040820160008201516200080e6000850182620007d4565b506020820151620008236020850182620007e5565b50505050565b6000604082019050620008406000830184620007f6565b92915050565b7f4e487b7100000000000000000000000000000000000000000000000000000000600052601160045260246000fd5b6000819050919050565b60006200088c8262000875565b91507fffffffffffffffffffffffffffffffffffffffffffffffffffffffffffffffff8203620008c157620008c062000846565b5b600182019050919050565b6080516114b2620008ef6000396000818161037b015261074b01526114b26000f3fe608060405234801561001057600080fd5b50600436106100935760003560e01c8063b002bbb111610066578063b002bbb11461015b578063c57e1be714610177578063ebb3d589146101a8578063fa45a29f146101c6578063fe3ba3ae146101f657610093565b80630241b4cf1461009857806315878250146100c957806355ed58a6146100fa57806367a44ca31461012a575b600080fd5b6100b260048036038101906100ad9190610b4b565b610227565b6040516100c0929190610c24565b60405180910390f35b6100e360048036038101906100de9190610b4b565b6102cb565b6040516100f1929190610c24565b60405180910390f35b610114600480360381019061010f9190610b4b565b61036f565b6040516101219190610cf1565b60405180910390f35b610144600480360381019061013f9190610b4b565b61050e565b604051610152929190610c24565b60405180910390f35b61017560048036038101906101709190610fd6565b6105b2565b005b610191600480360381019061018c9190610b4b565b6106a3565b60405161019f929190610c24565b60405180910390f35b6101b0610747565b6040516101bd919061105d565b60405180910390f35b6101e060048036038101906101db9190610b4b565b61076f565b6040516101ed9190610cf1565b60405180910390f35b610210600480360381019061020b9190610b4b565b61083a565b60405161021e929190610c24565b60405180910390f35b60606000806102358461036f565b9050806000015173ffffffffffffffffffffffffffffffffffffffff16630241b4cf856040518263ffffffff1660e01b8152600401610274919061105d565b6000604051808303816000875af1158015610293573d6000803e3d6000fd5b505050506040513d6000823e3d601f19601f820116820180604052508101906102bc919061111e565b81602001519250925050915091565b60606000806102d98461036f565b9050806000015173ffffffffffffffffffffffffffffffffffffffff166315878250856040518263ffffffff1660e01b8152600401610318919061105d565b6000604051808303816000875af1158015610337573d6000803e3d6000fd5b505050506040513d6000823e3d601f19601f82011682018060405250810190610360919061111e565b81602001519250925050915091565b610377610aa6565b60007f000000000000000000000000000000000000000000000000000000000000000073ffffffffffffffffffffffffffffffffffffffff16633d7c74f8846040518263ffffffff1660e01b81526004016103d2919061105d565b602060405180830381865afa1580156103ef573d6000803e3d6000fd5b505050506040513d601f19601f82011682018060405250810190610413919061117c565b9050600073ffffffffffffffffffffffffffffffffffffffff168173ffffffffffffffffffffffffffffffffffffffff1603610484576040517f08c379a000000000000000000000000000000000000000000000000000000000815260040161047b9061122c565b60405180910390fd5b600061048f8261076f565b9050600073ffffffffffffffffffffffffffffffffffffffff16816000015173ffffffffffffffffffffffffffffffffffffffff1603610504576040517f08c379a00000000000000000000000000000000000000000000000000000000081526004016104fb906112be565b60405180910390fd5b8092505050919050565b606060008061051c8461036f565b9050806000015173ffffffffffffffffffffffffffffffffffffffff166367a44ca3856040518263ffffffff1660e01b815260040161055b919061105d565b6000604051808303816000875af115801561057a573d6000803e3d6000fd5b505050506040513d6000823e3d601f19601f820116820180604052508101906105a3919061111e565b81602001519250925050915091565b6105ba610747565b73ffffffffffffffffffffffffffffffffffffffff1663893d20e86040518163ffffffff1660e01b8152600401602060405180830381865afa158015610604573d6000803e3d6000fd5b505050506040513d601f19601f82011682018060405250810190610628919061117c565b73ffffffffffffffffffffffffffffffffffffffff163373ffffffffffffffffffffffffffffffffffffffff1614610695576040517f08c379a000000000000000000000000000000000000000000000000000000000815260040161068c90611350565b60405180910390fd5b61069f82826108de565b5050565b60606000806106b18461036f565b9050806000015173ffffffffffffffffffffffffffffffffffffffff1663c57e1be7856040518263ffffffff1660e01b81526004016106f0919061105d565b6000604051808303816000875af115801561070f573d6000803e3d6000fd5b505050506040513d6000823e3d601f19601f82011682018060405250810190610738919061111e565b81602001519250925050915091565b60007f0000000000000000000000000000000000000000000000000000000000000000905090565b610777610aa6565b6000808373ffffffffffffffffffffffffffffffffffffffff1673ffffffffffffffffffffffffffffffffffffffff1681526020019081526020016000206040518060400160405290816000820160009054906101000a900473ffffffffffffffffffffffffffffffffffffffff1673ffffffffffffffffffffffffffffffffffffffff1673ffffffffffffffffffffffffffffffffffffffff1681526020016000820160149054906101000a900460ff1660ff1660ff16815250509050919050565b60606000806108488461036f565b9050806000015173ffffffffffffffffffffffffffffffffffffffff1663fe3ba3ae856040518263ffffffff1660e01b8152600401610887919061105d565b6000604051808303816000875af11580156108a6573d6000803e3d6000fd5b505050506040513d6000823e3d601f19601f820116820180604052508101906108cf919061111e565b81602001519250925050915091565b8051825114610922576040517f08c379a0000000000000000000000000000000000000000000000000000000008152600401610919906113e2565b60405180910390fd5b60005b8251811015610aa15781818151811061094157610940611402565b5b602002602001015160008085848151811061095f5761095e611402565b5b602002602001015173ffffffffffffffffffffffffffffffffffffffff1673ffffffffffffffffffffffffffffffffffffffff16815260200190815260200160002060008201518160000160006101000a81548173ffffffffffffffffffffffffffffffffffffffff021916908373ffffffffffffffffffffffffffffffffffffffff16021790555060208201518160000160146101000a81548160ff021916908360ff160217905550905050828181518110610a1f57610a1e611402565b5b602002602001015173ffffffffffffffffffffffffffffffffffffffff167f0289eda76b6c5a1e351d9910e6a6d0538a953f5345d8c24502da937eadc6bac7838381518110610a7157610a70611402565b5b6020026020010151604051610a869190610cf1565b60405180910390a28080610a999061146a565b915050610925565b505050565b6040518060400160405280600073ffffffffffffffffffffffffffffffffffffffff168152602001600060ff1681525090565b6000604051905090565b600080fd5b600080fd5b600073ffffffffffffffffffffffffffffffffffffffff82169050919050565b6000610b1882610aed565b9050919050565b610b2881610b0d565b8114610b3357600080fd5b50565b600081359050610b4581610b1f565b92915050565b600060208284031215610b6157610b60610ae3565b5b6000610b6f84828501610b36565b91505092915050565b600081519050919050565b600082825260208201905092915050565b60005b83811015610bb2578082015181840152602081019050610b97565b60008484015250505050565b6000601f19601f8301169050919050565b6000610bda82610b78565b610be48185610b83565b9350610bf4818560208601610b94565b610bfd81610bbe565b840191505092915050565b600060ff82169050919050565b610c1e81610c08565b82525050565b60006040820190508181036000830152610c3e8185610bcf565b9050610c4d6020830184610c15565b9392505050565b6000819050919050565b6000610c79610c74610c6f84610aed565b610c54565b610aed565b9050919050565b6000610c8b82610c5e565b9050919050565b6000610c9d82610c80565b9050919050565b610cad81610c92565b82525050565b610cbc81610c08565b82525050565b604082016000820151610cd86000850182610ca4565b506020820151610ceb6020850182610cb3565b50505050565b6000604082019050610d066000830184610cc2565b92915050565b600080fd5b7f4e487b7100000000000000000000000000000000000000000000000000000000600052604160045260246000fd5b610d4982610bbe565b810181811067ffffffffffffffff82111715610d6857610d67610d11565b5b80604052505050565b6000610d7b610ad9565b9050610d878282610d40565b919050565b600067ffffffffffffffff821115610da757610da6610d11565b5b602082029050602081019050919050565b600080fd5b6000610dd0610dcb84610d8c565b610d71565b90508083825260208201905060208402830185811115610df357610df2610db8565b5b835b81811015610e1c5780610e088882610b36565b845260208401935050602081019050610df5565b5050509392505050565b600082601f830112610e3b57610e3a610d0c565b5b8135610e4b848260208601610dbd565b91505092915050565b600067ffffffffffffffff821115610e6f57610e6e610d11565b5b602082029050602081019050919050565b600080fd5b6000610e9082610b0d565b9050919050565b610ea081610e85565b8114610eab57600080fd5b50565b600081359050610ebd81610e97565b92915050565b610ecc81610c08565b8114610ed757600080fd5b50565b600081359050610ee981610ec3565b92915050565b600060408284031215610f0557610f04610e80565b5b610f0f6040610d71565b90506000610f1f84828501610eae565b6000830152506020610f3384828501610eda565b60208301525092915050565b6000610f52610f4d84610e54565b610d71565b90508083825260208201905060408402830185811115610f7557610f74610db8565b5b835b81811015610f9e5780610f8a8882610eef565b845260208401935050604081019050610f77565b5050509392505050565b600082601f830112610fbd57610fbc610d0c565b5b8135610fcd848260208601610f3f565b91505092915050565b60008060408385031215610fed57610fec610ae3565b5b600083013567ffffffffffffffff81111561100b5761100a610ae8565b5b61101785828601610e26565b925050602083013567ffffffffffffffff81111561103857611037610ae8565b5b61104485828601610fa8565b9150509250929050565b61105781610b0d565b82525050565b6000602082019050611072600083018461104e565b92915050565b600080fd5b600067ffffffffffffffff82111561109857611097610d11565b5b6110a182610bbe565b9050602081019050919050565b60006110c16110bc8461107d565b610d71565b9050828152602081018484840111156110dd576110dc611078565b5b6110e8848285610b94565b509392505050565b600082601f83011261110557611104610d0c565b5b81516111158482602086016110ae565b91505092915050565b60006020828403121561113457611133610ae3565b5b600082015167ffffffffffffffff81111561115257611151610ae8565b5b61115e848285016110f0565b91505092915050565b60008151905061117681610b1f565b92915050565b60006020828403121561119257611191610ae3565b5b60006111a084828501611167565b91505092915050565b600082825260208201905092915050565b7f67657448656c70657244617461526561646572466f725661756c743a20496e7660008201527f616c6964205f7661756c7450726f787900000000000000000000000000000000602082015250565b60006112166030836111a9565b9150611221826111ba565b604082019050919050565b6000602082019050818103600083015261124581611209565b9050919050565b7f67657448656c70657244617461526561646572466f725661756c743a204e6f2060008201527f68656c7065724461746152656164657220736574000000000000000000000000602082015250565b60006112a86034836111a9565b91506112b38261124c565b604082019050919050565b600060208201905081810360008301526112d78161129b565b9050919050565b7f4f6e6c79207468652044697370617463686572206f776e65722063616e20636160008201527f6c6c20746869732066756e6374696f6e00000000000000000000000000000000602082015250565b600061133a6030836111a9565b9150611345826112de565b604082019050919050565b600060208201905081810360008301526113698161132d565b9050919050565b7f5f5f73657448656c70657244617461526561646572733a20556e657175616c2060008201527f6172726179206c656e6774687300000000000000000000000000000000000000602082015250565b60006113cc602d836111a9565b91506113d782611370565b604082019050919050565b600060208201905081810360008301526113fb816113bf565b9050919050565b7f4e487b7100000000000000000000000000000000000000000000000000000000600052603260045260246000fd5b7f4e487b7100000000000000000000000000000000000000000000000000000000600052601160045260246000fd5b6000819050919050565b600061147582611460565b91507fffffffffffffffffffffffffffffffffffffffffffffffffffffffffffffffff82036114a7576114a6611431565b5b60018201905091905056","linkReferences":{}},"methodIdentifiers":{"getDispatcher()":"ebb3d589","getHelperDataReaderForVault(address)":"55ed58a6","getHelperDataReaderInfoForFundDeployer(address)":"fa45a29f","getVaultActiveExternalPositionsDetails(address)":"15878250","getVaultDetails(address)":"67a44ca3","getVaultFeesDetails(address)":"fe3ba3ae","getVaultPoliciesDetails(address)":"0241b4cf","getVaultTrackedAssetsAmounts(address)":"c57e1be7","setHelperDataReaders(address[],(address,uint8)[])":"b002bbb1"},"id":24}