{"abi":[{"type":"function","name":"getDebtAssets","inputs":[],"outputs":[{"name":"assets_","type":"address[]","internalType":"address[]"},{"name":"amounts_","type":"uint256[]","internalType":"uint256[]"}],"stateMutability":"nonpayable"},{"type":"function","name":"getManagedAssets","inputs":[],"outputs":[{"name":"assets_","type":"address[]","internalType":"address[]"},{"name":"amounts_","type":"uint256[]","internalType":"uint256[]"}],"stateMutability":"nonpayable"},{"type":"function","name":"getUsedLendingPoolsV2","inputs":[],"outputs":[{"name":"poolsV2_","type":"address[]","internalType":"address[]"}],"stateMutability":"view"},{"type":"function","name":"init","inputs":[{"name":"","type":"bytes","internalType":"bytes"}],"outputs":[],"stateMutability":"nonpayable"},{"type":"function","name":"isUsedLendingPoolV2","inputs":[{"name":"_poolV2","type":"address","internalType":"address"}],"outputs":[{"name":"isUsed_","type":"bool","internalType":"bool"}],"stateMutability":"view"},{"type":"function","name":"receiveCallFromVault","inputs":[{"name":"_actionData","type":"bytes","internalType":"bytes"}],"outputs":[],"stateMutability":"nonpayable"},{"type":"event","name":"PoolTokenV1PreMigrationValueSnapshotted","inputs":[{"name":"lendingPoolV1","type":"address","indexed":true,"internalType":"address"},{"name":"value","type":"uint256","indexed":false,"internalType":"uint256"}],"anonymous":false},{"type":"event","name":"UsedLendingPoolAdded","inputs":[{"name":"lendingPool","type":"address","indexed":true,"internalType":"address"}],"anonymous":false},{"type":"event","name":"UsedLendingPoolRemoved","inputs":[{"name":"lendingPool","type":"address","indexed":true,"internalType":"address"}],"anonymous":false},{"type":"event","name":"UsedLendingPoolV2Added","inputs":[{"name":"lendingPoolV2","type":"address","indexed":true,"internalType":"address"}],"anonymous":false},{"type":"event","name":"UsedLendingPoolV2Removed","inputs":[{"name":"lendingPoolV2","type":"address","indexed":true,"internalType":"address"}],"anonymous":false}],"bytecode":{"object":"0x608060405234801561001057600080fd5b5061158c806100206000396000f3fe608060405234801561001057600080fd5b50600436106100625760003560e01c80634ddf47d41461006757806380daddb81461010f578063a3451a39146101b0578063be0a08e9146101ea578063e5c23a9714610242578063ecd658b4146102e8575b600080fd5b61010d6004803603602081101561007d57600080fd5b81019060208101813564010000000081111561009857600080fd5b8201836020820111156100aa57600080fd5b803590602001918460018302840111640100000000831117156100cc57600080fd5b91908080601f0160208091040260200160405190810160405280939291908181526020018383808284376000920191909152509295506102f0945050505050565b005b6101176102f3565b604051808060200180602001838103835285818151815260200191508051906020019060200280838360005b8381101561015b578181015183820152602001610143565b50505050905001838103825284818151815260200191508051906020019060200280838360005b8381101561019a578181015183820152602001610182565b5050505090500194505050505060405180910390f35b6101d6600480360360208110156101c657600080fd5b50356001600160a01b03166104ec565b604080519115158252519081900360200190f35b6101f26104ff565b60408051602080825283518183015283519192839290830191858101910280838360005b8381101561022e578181015183820152602001610216565b505050509050019250505060405180910390f35b61010d6004803603602081101561025857600080fd5b81019060208101813564010000000081111561027357600080fd5b82018360208201111561028557600080fd5b803590602001918460018302840111640100000000831117156102a757600080fd5b91908080601f016020809104026020016040519081016040528093929190818152602001838380828437600092019190915250929550610561945050505050565b6101176106c9565b50565b60608060606103006104ff565b80519091508067ffffffffffffffff8111801561031c57600080fd5b50604051908082528060200260200182016040528015610346578160200160208202803683370190505b5093508067ffffffffffffffff8111801561036057600080fd5b5060405190808252806020026020018201604052801561038a578160200160208202803683370190505b50925060005b818110156104cb5760008382815181106103a657fe5b60200260200101519050806001600160a01b03166338d52e0f6040518163ffffffff1660e01b815260040160206040518083038186803b1580156103e957600080fd5b505afa1580156103fd573d6000803e3d6000fd5b505050506040513d602081101561041357600080fd5b5051865187908490811061042357fe5b6001600160a01b03928316602091820292909201015281166350496cbd610449836106cf565b6040518263ffffffff1660e01b81526004018082815260200191505060206040518083038186803b15801561047d57600080fd5b505afa158015610491573d6000803e3d6000fd5b505050506040513d60208110156104a757600080fd5b505185518690849081106104b757fe5b602090810291909101015250600101610390565b506001845111156104e6576104e084846108b1565b90945092505b50509091565b60006104f9600183610af4565b92915050565b6060600180548060200260200160405190810160405280929190818152602001828054801561055757602002820191906000526020600020905b81546001600160a01b03168152600190910190602001808311610539575b5050505050905090565b6000606082806020019051604081101561057a57600080fd5b8151602083018051604051929492938301929190846401000000008211156105a157600080fd5b9083019060208201858111156105b657600080fd5b82516401000000008111828201881017156105d057600080fd5b82525081516020918201929091019080838360005b838110156105fd5781810151838201526020016105e5565b50505050905090810190601f16801561062a5780820380516001836020036101000a031916815260200191505b50604052505050915091506009600c81111561064257fe5b8214156106575761065281610b4c565b6106c4565b600a8214156106695761065281610c50565b600b82141561067b5761065281610cd4565b600c82141561068d5761065281610dbb565b60405162461bcd60e51b81526004018080602001828103825260268152602001806114fa6026913960400191505060405180910390fd5b505050565b60608091565b6000816001600160a01b03166370a08231306040518263ffffffff1660e01b815260040180826001600160a01b0316815260200191505060206040518083038186803b15801561071e57600080fd5b505afa158015610732573d6000803e3d6000fd5b505050506040513d602081101561074857600080fd5b50516040805163481c6a7560e01b815290519192506000916001600160a01b0385169163481c6a75916004808301926020929190829003018186803b15801561079057600080fd5b505afa1580156107a4573d6000803e3d6000fd5b505050506040513d60208110156107ba57600080fd5b50516040805163417f29ad60e11b815290516001600160a01b03909216916382fe535a91600480820192602092909190829003018186803b1580156107fe57600080fd5b505afa158015610812573d6000803e3d6000fd5b505050506040513d602081101561082857600080fd5b5051604080516338cdab1160e21b815230600482015290519192506108aa916001600160a01b0384169163e336ac44916024808301926020929190829003018186803b15801561087757600080fd5b505afa15801561088b573d6000803e3d6000fd5b505050506040513d60208110156108a157600080fd5b50518390610e22565b9392505050565b6060808351600014156108c357610aed565b6001805b8551811015610943576000805b8281101561092d578781815181106108e857fe5b60200260200101516001600160a01b031688848151811061090557fe5b60200260200101516001600160a01b03161415610925576001915061092d565b6001016108d4565b508061093a576001909201915b506001016108c7565b508067ffffffffffffffff8111801561095b57600080fd5b50604051908082528060200260200182016040528015610985578160200160208202803683370190505b5092508067ffffffffffffffff8111801561099f57600080fd5b506040519080825280602002602001820160405280156109c9578160200160208202803683370190505b5091506000805b8651811015610ae9576000805b83811015610a68578681815181106109f157fe5b60200260200101516001600160a01b0316898481518110610a0e57fe5b60200260200101516001600160a01b03161415610a605760019150878381518110610a3557fe5b6020026020010151868281518110610a4957fe5b602002602001018181510191508181525050610a68565b6001016109dd565b5080610ae057878281518110610a7a57fe5b6020026020010151868481518110610a8e57fe5b60200260200101906001600160a01b031690816001600160a01b031681525050868281518110610aba57fe5b6020026020010151858481518110610ace57fe5b60209081029190910101526001909201915b506001016109d0565b5050505b9250929050565b8154600090815b81811015610b4157848181548110610b0f57fe5b6000918252602090912001546001600160a01b0385811691161415610b39576001925050506104f9565b600101610afb565b506000949350505050565b600080610b5883610e7c565b91509150610bcb826001600160a01b03166338d52e0f6040518163ffffffff1660e01b815260040160206040518083038186803b158015610b9857600080fd5b505afa158015610bac573d6000803e3d6000fd5b505050506040513d6020811015610bc257600080fd5b50518383610ea7565b60408051636e553f6560e01b81526004810183905230602482015290516001600160a01b03841691636e553f659160448083019260209291908290030181600087803b158015610c1a57600080fd5b505af1158015610c2e573d6000803e3d6000fd5b505050506040513d6020811015610c4457600080fd5b506106c4905082610f65565b600080610c5c83610e7c565b91509150816001600160a01b031663107703ab82306040518363ffffffff1660e01b815260040180838152602001826001600160a01b0316815260200192505050600060405180830381600087803b158015610cb757600080fd5b505af1158015610ccb573d6000803e3d6000fd5b50505050505050565b600080610ce083610e7c565b60408051635d043b2960e11b81526004810183905233602482015230604482015290519294509092506001600160a01b0384169163ba087652916064808201926020929091908290030181600087803b158015610d3c57600080fd5b505af1158015610d50573d6000803e3d6000fd5b505050506040513d6020811015610d6657600080fd5b50610d729050826106cf565b6106c457610d81600183610fe9565b506040516001600160a01b038316907f9d6926baa57c10a6af1bafa91bb5183c5faae6fc2d152ebbd45a1ef6a265bb1690600090a2505050565b600080610dc783610e7c565b91509150816001600160a01b0316631b8f183082306040518363ffffffff1660e01b815260040180838152602001826001600160a01b0316815260200192505050600060405180830381600087803b158015610cb757600080fd5b6000828201838110156108aa576040805162461bcd60e51b815260206004820152601b60248201527f536166654d6174683a206164646974696f6e206f766572666c6f770000000000604482015290519081900360640190fd5b600080828060200190516040811015610e9457600080fd5b5080516020909101519092509050915091565b60408051636eb1769f60e11b81523060048201526001600160a01b038481166024830152915160009286169163dd62ed3e916044808301926020929190829003018186803b158015610ef857600080fd5b505afa158015610f0c573d6000803e3d6000fd5b505050506040513d6020811015610f2257600080fd5b5051905081811015610f5f578015610f4957610f496001600160a01b0385168460006110e1565b610f5f6001600160a01b038516846000196110e1565b50505050565b610f6e816104ec565b6102f05760018054808201825560009182527fb10e2d527612073b26eecdfd717e6a320cf44b4afac2b0732d9fcbe2b7fa0cf60180546001600160a01b0319166001600160a01b03841690811790915560405190917ff5adf0712ae89feadd26c8ee6a898759c89978dcc4c5f23811900dc45079821691a250565b8154600090815b818110156110d957836001600160a01b031685828154811061100e57fe5b6000918252602090912001546001600160a01b031614156110d1576001820381101561109c5784600183038154811061104357fe5b9060005260206000200160009054906101000a90046001600160a01b031685828154811061106d57fe5b9060005260206000200160006101000a8154816001600160a01b0302191690836001600160a01b031602179055505b848054806110a657fe5b600082815260209020810160001990810180546001600160a01b0319169055019055600192506110d9565b600101610ff0565b505092915050565b6106c46110ed846110f4565b83836110f7565b90565b80158061117d575060408051636eb1769f60e11b81523060048201526001600160a01b03848116602483015291519185169163dd62ed3e91604480820192602092909190829003018186803b15801561114f57600080fd5b505afa158015611163573d6000803e3d6000fd5b505050506040513d602081101561117957600080fd5b5051155b6111b85760405162461bcd60e51b815260040180806020018281038252603681526020018061154a6036913960400191505060405180910390fd5b604080516001600160a01b038416602482015260448082018490528251808303909101815260649091019091526020810180516001600160e01b031663095ea7b360e01b1790526106c4908490606061125a826040518060400160405280602081526020017f5361666545524332303a206c6f772d6c6576656c2063616c6c206661696c6564815250856001600160a01b03166112b69092919063ffffffff16565b8051909150156106c45780806020019051602081101561127957600080fd5b50516106c45760405162461bcd60e51b815260040180806020018281038252602a815260200180611520602a913960400191505060405180910390fd5b60606112c584846000856112cd565b949350505050565b60608247101561130e5760405162461bcd60e51b81526004018080602001828103825260268152602001806114d46026913960400191505060405180910390fd5b61131785611429565b611368576040805162461bcd60e51b815260206004820152601d60248201527f416464726573733a2063616c6c20746f206e6f6e2d636f6e7472616374000000604482015290519081900360640190fd5b60006060866001600160a01b031685876040518082805190602001908083835b602083106113a75780518252601f199092019160209182019101611388565b6001836020036101000a03801982511681845116808217855250505050505090500191505060006040518083038185875af1925050503d8060008114611409576040519150601f19603f3d011682016040523d82523d6000602084013e61140e565b606091505b509150915061141e82828661142f565b979650505050505050565b3b151590565b6060831561143e5750816108aa565b82511561144e5782518084602001fd5b8160405162461bcd60e51b81526004018080602001828103825283818151815260200191508051906020019080838360005b83811015611498578181015183820152602001611480565b50505050905090810190601f1680156114c55780820380516001836020036101000a031916815260200191505b509250505060405180910390fdfe416464726573733a20696e73756666696369656e742062616c616e636520666f722063616c6c7265636569766543616c6c46726f6d5661756c743a20496e76616c696420616374696f6e49645361666545524332303a204552433230206f7065726174696f6e20646964206e6f7420737563636565645361666545524332303a20617070726f76652066726f6d206e6f6e2d7a65726f20746f206e6f6e2d7a65726f20616c6c6f77616e6365a164736f6c634300060c000a","linkReferences":{}},"methodIdentifiers":{"getDebtAssets()":"ecd658b4","getManagedAssets()":"80daddb8","getUsedLendingPoolsV2()":"be0a08e9","init(bytes)":"4ddf47d4","isUsedLendingPoolV2(address)":"a3451a39","receiveCallFromVault(bytes)":"e5c23a97"},"id":143}