{"abi":[{"type":"constructor","inputs":[{"name":"_policyManager","type":"address","internalType":"address"}],"stateMutability":"nonpayable"},{"type":"function","name":"activateForFund","inputs":[{"name":"","type":"address","internalType":"address"}],"outputs":[],"stateMutability":"nonpayable"},{"type":"function","name":"addFundSettings","inputs":[{"name":"_comptrollerProxy","type":"address","internalType":"address"},{"name":"_encodedSettings","type":"bytes","internalType":"bytes"}],"outputs":[],"stateMutability":"nonpayable"},{"type":"function","name":"canDisable","inputs":[],"outputs":[{"name":"canDisable_","type":"bool","internalType":"bool"}],"stateMutability":"pure"},{"type":"function","name":"getMinAssetBalanceForFund","inputs":[{"name":"_comptrollerProxy","type":"address","internalType":"address"},{"name":"_asset","type":"address","internalType":"address"}],"outputs":[{"name":"minBalance_","type":"uint256","internalType":"uint256"}],"stateMutability":"view"},{"type":"function","name":"getPolicyManager","inputs":[],"outputs":[{"name":"policyManager_","type":"address","internalType":"address"}],"stateMutability":"view"},{"type":"function","name":"identifier","inputs":[],"outputs":[{"name":"identifier_","type":"string","internalType":"string"}],"stateMutability":"pure"},{"type":"function","name":"implementedHooks","inputs":[],"outputs":[{"name":"implementedHooks_","type":"uint8[]","internalType":"enum IPolicyManager.PolicyHook[]"}],"stateMutability":"pure"},{"type":"function","name":"updateFundSettings","inputs":[{"name":"","type":"address","internalType":"address"},{"name":"","type":"bytes","internalType":"bytes"}],"outputs":[],"stateMutability":"nonpayable"},{"type":"function","name":"validateRule","inputs":[{"name":"_comptrollerProxy","type":"address","internalType":"address"},{"name":"","type":"uint8","internalType":"enum IPolicyManager.PolicyHook"},{"name":"_encodedArgs","type":"bytes","internalType":"bytes"}],"outputs":[{"name":"isValid_","type":"bool","internalType":"bool"}],"stateMutability":"nonpayable"},{"type":"event","name":"MinAssetBalanceAddedForFund","inputs":[{"name":"comptrollerProxy","type":"address","indexed":true,"internalType":"address"},{"name":"asset","type":"address","indexed":true,"internalType":"address"},{"name":"minBalance","type":"uint256","indexed":false,"internalType":"uint256"}],"anonymous":false}],"bytecode":{"object":"0x60a060405234801561001057600080fd5b50604051610e83380380610e838339818101604052602081101561003357600080fd5b8101908080519060200190929190505050808073ffffffffffffffffffffffffffffffffffffffff1660808173ffffffffffffffffffffffffffffffffffffffff1660601b81525050505060805160601c610de36100a0600039806104cb5280610b815250610de36000f3fe608060405234801561001057600080fd5b50600436106100935760003560e01c8063579be71811610066578063579be718146102625780637998a1c41461031e578063cbf54bb2146103a1578063ceb9a0ad14610400578063d44ad6cb1461044457610093565b80630d4d7510146100985780630f5f6b4f146101315780631d19746d146101ca5780631ef9257814610242575b600080fd5b61012f600480360360408110156100ae57600080fd5b81019080803573ffffffffffffffffffffffffffffffffffffffff169060200190929190803590602001906401000000008111156100eb57600080fd5b8201836020820111156100fd57600080fd5b8035906020019184600183028401116401000000008311171561011f57600080fd5b9091929391929390505050610478565b005b6101c86004803603604081101561014757600080fd5b81019080803573ffffffffffffffffffffffffffffffffffffffff1690602001909291908035906020019064010000000081111561018457600080fd5b82018360208201111561019657600080fd5b803590602001918460018302840111640100000000831117156101b857600080fd5b90919293919293905050506104c9565b005b61022c600480360360408110156101e057600080fd5b81019080803573ffffffffffffffffffffffffffffffffffffffff169060200190929190803573ffffffffffffffffffffffffffffffffffffffff16906020019092919050505061085f565b6040518082815260200191505060405180910390f35b61024a6108e5565b60405180821515815260200191505060405180910390f35b6103066004803603606081101561027857600080fd5b81019080803573ffffffffffffffffffffffffffffffffffffffff169060200190929190803560ff169060200190929190803590602001906401000000008111156102c257600080fd5b8201836020820111156102d457600080fd5b803590602001918460018302840111640100000000831117156102f657600080fd5b90919293919293905050506108ee565b60405180821515815260200191505060405180910390f35b610326610ad8565b6040518080602001828103825283818151815260200191508051906020019080838360005b8381101561036657808201518184015260208101905061034b565b50505050905090810190601f1680156103935780820380516001836020036101000a031916815260200191505b509250505060405180910390f35b6103a9610af8565b6040518080602001828103825283818151815260200191508051906020019060200280838360005b838110156103ec5780820151818401526020810190506103d1565b505050509050019250505060405180910390f35b6104426004803603602081101561041657600080fd5b81019080803573ffffffffffffffffffffffffffffffffffffffff169060200190929190505050610b7a565b005b61044c610b7d565b604051808273ffffffffffffffffffffffffffffffffffffffff16815260200191505060405180910390f35b6040517f08c379a0000000000000000000000000000000000000000000000000000000008152600401808060200182810382526037815260200180610d556037913960400191505060405180910390fd5b7f000000000000000000000000000000000000000000000000000000000000000073ffffffffffffffffffffffffffffffffffffffff163373ffffffffffffffffffffffffffffffffffffffff161461056d576040517f08c379a0000000000000000000000000000000000000000000000000000000008152600401808060200182810382526029815260200180610d8c6029913960400191505060405180910390fd5b6060808383604081101561058057600080fd5b810190808035906020019064010000000081111561059d57600080fd5b8201836020820111156105af57600080fd5b803590602001918460208302840111640100000000831117156105d157600080fd5b919080806020026020016040519081016040528093929190818152602001838360200280828437600081840152601f19601f8201169050808301925050505050505091929192908035906020019064010000000081111561063157600080fd5b82018360208201111561064357600080fd5b8035906020019184602083028401116401000000008311171561066557600080fd5b919080806020026020016040519081016040528093929190818152602001838360200280828437600081840152601f19601f82011690508083019250505050505050919291929050505091509150805182511461070d576040517f08c379a0000000000000000000000000000000000000000000000000000000008152600401808060200182810382526026815260200180610d2f6026913960400191505060405180910390fd5b60005b82518110156108575781818151811061072557fe5b60200260200101516000808873ffffffffffffffffffffffffffffffffffffffff1673ffffffffffffffffffffffffffffffffffffffff168152602001908152602001600020600085848151811061077957fe5b602002602001015173ffffffffffffffffffffffffffffffffffffffff1673ffffffffffffffffffffffffffffffffffffffff168152602001908152602001600020819055508281815181106107cb57fe5b602002602001015173ffffffffffffffffffffffffffffffffffffffff168673ffffffffffffffffffffffffffffffffffffffff167fc337422678383b44aa667a4975f03ece744c19b20a4badde9dc5c355125b6ab784848151811061082d57fe5b60200260200101516040518082815260200191505060405180910390a38080600101915050610710565b505050505050565b60008060008473ffffffffffffffffffffffffffffffffffffffff1673ffffffffffffffffffffffffffffffffffffffff16815260200190815260200160002060008373ffffffffffffffffffffffffffffffffffffffff1673ffffffffffffffffffffffffffffffffffffffff16815260200190815260200160002054905092915050565b60006001905090565b6000606061093f84848080601f016020809104026020016040519081016040528093929190818152602001838380828437600081840152601f19601f82011690508083019250505050505050610ba5565b5050935050505060008673ffffffffffffffffffffffffffffffffffffffff1663c98091876040518163ffffffff1660e01b815260040160206040518083038186803b15801561098e57600080fd5b505afa1580156109a2573d6000803e3d6000fd5b505050506040513d60208110156109b857600080fd5b8101908080519060200190929190505050905060005b8251811015610ac8576109f4888483815181106109e757fe5b602002602001015161085f565b838281518110610a0057fe5b602002602001015173ffffffffffffffffffffffffffffffffffffffff166370a08231846040518263ffffffff1660e01b8152600401808273ffffffffffffffffffffffffffffffffffffffff16815260200191505060206040518083038186803b158015610a6e57600080fd5b505afa158015610a82573d6000803e3d6000fd5b505050506040513d6020811015610a9857600080fd5b81019080805190602001909291905050501015610abb5760009350505050610ad0565b80806001019150506109ce565b506001925050505b949350505050565b6060604051806060016040528060228152602001610db560229139905090565b6060600167ffffffffffffffff81118015610b1257600080fd5b50604051908082528060200260200182016040528015610b415781602001602082028036833780820191505090505b509050600381600081518110610b5357fe5b60200260200101906009811115610b6657fe5b90816009811115610b7357fe5b8152505090565b50565b60007f0000000000000000000000000000000000000000000000000000000000000000905090565b600080600060608060008680602001905160c0811015610bc457600080fd5b8101908080519060200190929190805190602001909291908051906020019092919080516040519392919084640100000000821115610c0257600080fd5b83820191506020820185811115610c1857600080fd5b8251866020820283011164010000000082111715610c3557600080fd5b8083526020830192505050908051906020019060200280838360005b83811015610c6c578082015181840152602081019050610c51565b5050505090500160405260200180516040519392919084640100000000821115610c9557600080fd5b83820191506020820185811115610cab57600080fd5b8251866020820283011164010000000082111715610cc857600080fd5b8083526020830192505050908051906020019060200280838360005b83811015610cff578082015181840152602081019050610ce4565b50505050905001604052602001805190602001909291905050509550955095509550955095509193955091939556fe61646446756e6453657474696e67733a20556e657175616c206172726179206c656e6774687375706461746546756e6453657474696e67733a2055706461746573206e6f7420616c6c6f77656420666f72207468697320706f6c6963794f6e6c792074686520506f6c6963794d616e616765722063616e206d616b6520746869732063616c6c4d494e5f41535345545f42414c414e4345535f504f53545f524544454d5054494f4ea164736f6c634300060c000a","linkReferences":{}},"methodIdentifiers":{"activateForFund(address)":"ceb9a0ad","addFundSettings(address,bytes)":"0f5f6b4f","canDisable()":"1ef92578","getMinAssetBalanceForFund(address,address)":"1d19746d","getPolicyManager()":"d44ad6cb","identifier()":"7998a1c4","implementedHooks()":"cbf54bb2","updateFundSettings(address,bytes)":"0d4d7510","validateRule(address,uint8,bytes)":"579be718"},"id":260}