{"abi":[{"type":"constructor","inputs":[{"name":"_sdTokenAddress","type":"address","internalType":"address"},{"name":"_staderOracleAddress","type":"address","internalType":"address"},{"name":"_wethAddress","type":"address","internalType":"address"}],"stateMutability":"nonpayable"},{"type":"function","name":"calcUnderlyingValues","inputs":[{"name":"","type":"address","internalType":"address"},{"name":"_derivativeAmount","type":"uint256","internalType":"uint256"}],"outputs":[{"name":"underlyings_","type":"address[]","internalType":"address[]"},{"name":"underlyingAmounts_","type":"uint256[]","internalType":"uint256[]"}],"stateMutability":"view"},{"type":"function","name":"isSupportedAsset","inputs":[{"name":"_asset","type":"address","internalType":"address"}],"outputs":[{"name":"isSupported_","type":"bool","internalType":"bool"}],"stateMutability":"view"}],"bytecode":{"object":"0x61010060405234801561001157600080fd5b50604051610619380380610619833981016040819052610030916100e3565b6001600160a01b03831660a08190526040805163313ce56760e01b8152905163313ce567916004808201926020929091908290030181865afa15801561007a573d6000803e3d6000fd5b505050506040513d601f19601f8201168201806040525081019061009e9190610126565b6100ac9060ff16600a61024c565b60c0526001600160a01b039182166080521660e05250610258565b80516001600160a01b03811681146100de57600080fd5b919050565b6000806000606084860312156100f857600080fd5b610101846100c7565b925061010f602085016100c7565b915061011d604085016100c7565b90509250925092565b60006020828403121561013857600080fd5b815160ff8116811461014957600080fd5b9392505050565b634e487b7160e01b600052601160045260246000fd5b600181815b808511156101a157816000190482111561018757610187610150565b8085161561019457918102915b93841c939080029061016b565b509250929050565b6000826101b857506001610246565b816101c557506000610246565b81600181146101db57600281146101e557610201565b6001915050610246565b60ff8411156101f6576101f6610150565b50506001821b610246565b5060208310610133831016604e8410600b8410161715610224575081810a610246565b61022e8383610166565b806000190482111561024257610242610150565b0290505b92915050565b600061014983836101a9565b60805160a05160c05160e05161038a61028f600039600060dc0152600061014601526000607501526000610168015261038a6000f3fe608060405234801561001057600080fd5b50600436106100365760003560e01c8063727212f61461003b5780639be918e614610065575b600080fd5b61004e61004936600461023e565b6100b5565b60405161005c929190610268565b60405180910390f35b6100a56100733660046102ec565b7f00000000000000000000000000000000000000000000000000000000000000006001600160a01b0390811691161490565b604051901515815260200161005c565b604080516001808252818301909252606091829190602080830190803683370190505091507f00000000000000000000000000000000000000000000000000000000000000008260008151811061010e5761010e61030e565b6001600160a01b03929092166020928302919091018201526040805160018082528183019092529182810190803683370190505090507f0000000000000000000000000000000000000000000000000000000000000000837f00000000000000000000000000000000000000000000000000000000000000006001600160a01b031663a6870e5b6040518163ffffffff1660e01b8152600401602060405180830381865afa1580156101c4573d6000803e3d6000fd5b505050506040513d601f19601f820116820180604052508101906101e89190610324565b6101f2919061033d565b6101fc9190610368565b8160008151811061020f5761020f61030e565b6020026020010181815250509250929050565b80356001600160a01b038116811461023957600080fd5b919050565b6000806040838503121561025157600080fd5b61025a83610222565b946020939093013593505050565b604080825283519082018190526000906020906060840190828701845b828110156102aa5781516001600160a01b031684529284019290840190600101610285565b5050508381038285015284518082528583019183019060005b818110156102df578351835292840192918401916001016102c3565b5090979650505050505050565b6000602082840312156102fe57600080fd5b61030782610222565b9392505050565b634e487b7160e01b600052603260045260246000fd5b60006020828403121561033657600080fd5b5051919050565b808202811582820484141761036257634e487b7160e01b600052601160045260246000fd5b92915050565b60008261038557634e487b7160e01b600052601260045260246000fd5b50049056","linkReferences":{}},"methodIdentifiers":{"calcUnderlyingValues(address,uint256)":"727212f6","isSupportedAsset(address)":"9be918e6"},"id":177}