{"abi":[{"type":"constructor","inputs":[{"name":"_stakeWiseV3VaultsRegistryAddress","type":"address","internalType":"address"},{"name":"_wethAddress","type":"address","internalType":"address"}],"stateMutability":"nonpayable"},{"type":"function","name":"STAKEWISE_V3_VAULT_REGISTRY","inputs":[],"outputs":[{"name":"","type":"address","internalType":"contract IStakeWiseV3VaultsRegistry"}],"stateMutability":"view"},{"type":"function","name":"WETH_ADDRESS","inputs":[],"outputs":[{"name":"","type":"address","internalType":"address"}],"stateMutability":"view"},{"type":"function","name":"parseAssetsForAction","inputs":[{"name":"","type":"address","internalType":"address"},{"name":"_actionId","type":"uint256","internalType":"uint256"},{"name":"_encodedActionArgs","type":"bytes","internalType":"bytes"}],"outputs":[{"name":"assetsToTransfer_","type":"address[]","internalType":"address[]"},{"name":"amountsToTransfer_","type":"uint256[]","internalType":"uint256[]"},{"name":"assetsToReceive_","type":"address[]","internalType":"address[]"}],"stateMutability":"view"},{"type":"function","name":"parseInitArgs","inputs":[{"name":"","type":"address","internalType":"address"},{"name":"","type":"bytes","internalType":"bytes"}],"outputs":[{"name":"initArgs_","type":"bytes","internalType":"bytes"}],"stateMutability":"pure"}],"bytecode":{"object":"0x60c060405234801561001057600080fd5b506040516107e43803806107e483398101604081905261002f91610062565b6001600160a01b039182166080521660a052610095565b80516001600160a01b038116811461005d57600080fd5b919050565b6000806040838503121561007557600080fd5b61007e83610046565b915061008c60208401610046565b90509250929050565b60805160a0516107176100cd60003960008181605601528181610171015261022b015260008181609a015261030c01526107176000f3fe608060405234801561001057600080fd5b506004361061004c5760003560e01c8063040141e514610051578063a8708a2214610095578063bbd2d646146100bc578063db16c72e146100de575b600080fd5b6100787f000000000000000000000000000000000000000000000000000000000000000081565b6040516001600160a01b0390911681526020015b60405180910390f35b6100787f000000000000000000000000000000000000000000000000000000000000000081565b6100cf6100ca3660046104ce565b61010d565b60405161008c9392919061056b565b6101006100ec3660046105d5565b505060408051602081019091526000815290565b60405161008c9190610625565b60608080846101ea57600080610122866102cd565b9150915061012f826102ed565b604080516001808252818301909252906020808301908036833750506040805160018082528183019092529297509050602080830190803683370190505093507f0000000000000000000000000000000000000000000000000000000000000000856000815181106101a3576101a3610673565b60200260200101906001600160a01b031690816001600160a01b03168152505080846000815181106101d7576101d7610673565b60200260200101818152505050506102c4565b600185036102835760006101fd856102cd565b509050610209816102ed565b60408051600180825281830190925290602080830190803683370190505091507f00000000000000000000000000000000000000000000000000000000000000008260008151811061025d5761025d610673565b60200260200101906001600160a01b031690816001600160a01b031681525050506102c4565b600385036102a3576000610296856103f0565b50509050610209816102ed565b600285036102c45760006102b6856102cd565b5090506102c2816102ed565b505b93509350939050565b600080828060200190518101906102e49190610689565b91509150915091565b604051632988bb9f60e21b81526001600160a01b0382811660048301527f0000000000000000000000000000000000000000000000000000000000000000169063a622ee7c90602401602060405180830381865afa158015610353573d6000803e3d6000fd5b505050506040513d601f19601f8201168201806040525081019061037791906106b7565b6103ed5760405162461bcd60e51b815260206004820152603a60248201527f5f5f76616c69646174655374616b65576973655661756c743a20496e76616c6960448201527f64207374616b6577697365207661756c7420636f6e7472616374000000000000606482015260840160405180910390fd5b50565b60008060008380602001905181019061040991906106e0565b9250925092509193909250565b6001600160a01b03811681146103ed57600080fd5b634e487b7160e01b600052604160045260246000fd5b600082601f83011261045257600080fd5b813567ffffffffffffffff8082111561046d5761046d61042b565b604051601f8301601f19908116603f011681019082821181831017156104955761049561042b565b816040528381528660208588010111156104ae57600080fd5b836020870160208301376000602085830101528094505050505092915050565b6000806000606084860312156104e357600080fd5b83356104ee81610416565b925060208401359150604084013567ffffffffffffffff81111561051157600080fd5b61051d86828701610441565b9150509250925092565b600081518084526020808501945080840160005b838110156105605781516001600160a01b03168752958201959082019060010161053b565b509495945050505050565b60608152600061057e6060830186610527565b82810360208481019190915285518083528682019282019060005b818110156105b557845183529383019391830191600101610599565b505084810360408601526105c98187610527565b98975050505050505050565b600080604083850312156105e857600080fd5b82356105f381610416565b9150602083013567ffffffffffffffff81111561060f57600080fd5b61061b85828601610441565b9150509250929050565b600060208083528351808285015260005b8181101561065257858101830151858201604001528201610636565b506000604082860101526040601f19601f8301168501019250505092915050565b634e487b7160e01b600052603260045260246000fd5b6000806040838503121561069c57600080fd5b82516106a781610416565b6020939093015192949293505050565b6000602082840312156106c957600080fd5b815180151581146106d957600080fd5b9392505050565b6000806000606084860312156106f557600080fd5b835161070081610416565b60208501516040909501519096949550939250505056","linkReferences":{}},"methodIdentifiers":{"STAKEWISE_V3_VAULT_REGISTRY()":"a8708a22","WETH_ADDRESS()":"040141e5","parseAssetsForAction(address,uint256,bytes)":"bbd2d646","parseInitArgs(address,bytes)":"db16c72e"},"id":133}