{"abi":[{"type":"constructor","inputs":[{"name":"_stakeWiseV3VaultsRegistryAddress","type":"address","internalType":"address"},{"name":"_wethAddress","type":"address","internalType":"address"}],"stateMutability":"nonpayable"},{"type":"function","name":"STAKEWISE_V3_VAULT_REGISTRY","inputs":[],"outputs":[{"name":"","type":"address","internalType":"contract IStakeWiseV3VaultsRegistry"}],"stateMutability":"view"},{"type":"function","name":"WETH_ADDRESS","inputs":[],"outputs":[{"name":"","type":"address","internalType":"address"}],"stateMutability":"view"},{"type":"function","name":"parseAssetsForAction","inputs":[{"name":"","type":"address","internalType":"address"},{"name":"_actionId","type":"uint256","internalType":"uint256"},{"name":"_encodedActionArgs","type":"bytes","internalType":"bytes"}],"outputs":[{"name":"assetsToTransfer_","type":"address[]","internalType":"address[]"},{"name":"amountsToTransfer_","type":"uint256[]","internalType":"uint256[]"},{"name":"assetsToReceive_","type":"address[]","internalType":"address[]"}],"stateMutability":"view"},{"type":"function","name":"parseInitArgs","inputs":[{"name":"","type":"address","internalType":"address"},{"name":"","type":"bytes","internalType":"bytes"}],"outputs":[{"name":"initArgs_","type":"bytes","internalType":"bytes"}],"stateMutability":"pure"}],"bytecode":{"object":"0x60c060405234801561001057600080fd5b50604051610a12380380610a1283398101604081905261002f9161007b565b6001600160a01b039182166080521660a0526100b8565b60006001600160a01b0382165b92915050565b61006281610046565b811461006d57600080fd5b50565b805161005381610059565b6000806040838503121561009157610091600080fd5b600061009d8585610070565b92505060206100ae85828601610070565b9150509250929050565b60805160a05161091b6100f7600039600081816056015281816101680152818161022301526102bc01526000818160930152610366015261091b6000f3fe608060405234801561001057600080fd5b506004361061004c5760003560e01c8063040141e514610051578063a8708a221461008e578063bbd2d646146100c2578063db16c72e146100e4575b600080fd5b6100787f000000000000000000000000000000000000000000000000000000000000000081565b604051610085919061044a565b60405180910390f35b6100b57f000000000000000000000000000000000000000000000000000000000000000081565b6040516100859190610477565b6100d56100d03660046105b8565b610104565b604051610085939291906106d0565b6100f76100f2366004610712565b610319565b60405161008591906107c0565b60608080846101e1576000806101198661032f565b915091506101268261034f565b604080516001808252818301909252906020808301908036833750506040805160018082528183019092529297509050602080830190803683370190505093507f00000000000000000000000000000000000000000000000000000000000000008560008151811061019a5761019a6107d8565b60200260200101906001600160a01b031690816001600160a01b03168152505080846000815181106101ce576101ce6107d8565b6020026020010181815250505050610310565b6003850361027b5760006101f485610404565b505090506102018161034f565b60408051600180825281830190925290602080830190803683370190505091507f000000000000000000000000000000000000000000000000000000000000000082600081518110610255576102556107d8565b60200260200101906001600160a01b031690816001600160a01b03168152505050610310565b6002850361031057600061028e8561032f565b50905061029a8161034f565b60408051600180825281830190925290602080830190803683370190505091507f0000000000000000000000000000000000000000000000000000000000000000826000815181106102ee576102ee6107d8565b60200260200101906001600160a01b031690816001600160a01b031681525050505b93509350939050565b6040805160208101909152600081525b92915050565b60008082806020019051810190610346919061080d565b91509150915091565b604051632988bb9f60e21b81526001600160a01b037f0000000000000000000000000000000000000000000000000000000000000000169063a622ee7c9061039b90849060040161044a565b602060405180830381865afa1580156103b8573d6000803e3d6000fd5b505050506040513d601f19601f820116820180604052508101906103dc9190610853565b6104015760405162461bcd60e51b81526004016103f890610874565b60405180910390fd5b50565b60008060008380602001905181019061041d91906108d5565b9250925092509193909250565b60006001600160a01b038216610329565b6104448161042a565b82525050565b60208101610329828461043b565b60006103298261042a565b600061032982610458565b61044481610463565b60208101610329828461046e565b61048e8161042a565b811461040157600080fd5b803561032981610485565b8061048e565b8035610329816104a4565b634e487b7160e01b600052604160045260246000fd5b601f19601f830116810181811067ffffffffffffffff821117156104f1576104f16104b5565b6040525050565b600061050360405190565b905061050f82826104cb565b919050565b600067ffffffffffffffff82111561052e5761052e6104b5565b601f19601f83011660200192915050565b82818337506000910152565b600061055e61055984610514565b6104f8565b90508281526020810184848401111561057957610579600080fd5b61058484828561053f565b509392505050565b600082601f8301126105a0576105a0600080fd5b81356105b084826020860161054b565b949350505050565b6000806000606084860312156105d0576105d0600080fd5b60006105dc8686610499565b93505060206105ed868287016104aa565b925050604084013567ffffffffffffffff81111561060d5761060d600080fd5b6106198682870161058c565b9150509250925092565b600061062f838361043b565b505060200190565b6000610641825190565b80845260209384019383018060005b838110156106755781516106648882610623565b975060208301925050600101610650565b509495945050505050565b80610444565b600061062f8383610680565b600061069c825190565b80845260209384019383018060005b838110156106755781516106bf8882610686565b9750602083019250506001016106ab565b606080825281016106e18186610637565b905081810360208301526106f58185610692565b905081810360408301526107098184610637565b95945050505050565b6000806040838503121561072857610728600080fd5b60006107348585610499565b925050602083013567ffffffffffffffff81111561075457610754600080fd5b6107608582860161058c565b9150509250929050565b60005b8381101561078557818101518382015260200161076d565b50506000910152565b6000610798825190565b8084526020840193506107af81856020860161076a565b601f01601f19169290920192915050565b602080825281016107d1818461078e565b9392505050565b634e487b7160e01b600052603260045260246000fd5b61048e81610458565b8051610329816107ee565b8051610329816104a4565b6000806040838503121561082357610823600080fd5b600061082f85856107f7565b925050602061076085828601610802565b80151561048e565b805161032981610840565b60006020828403121561086857610868600080fd5b60006105b08484610848565b6020808252810161032981603a81527f5f5f76616c69646174655374616b65576973655661756c743a20496e76616c6960208201527f64205374616b6557697365207661756c7420636f6e7472616374000000000000604082015260600190565b6000806000606084860312156108ed576108ed600080fd5b60006108f986866107f7565b935050602061090a86828701610802565b92505060406106198682870161080256","linkReferences":{}},"methodIdentifiers":{"STAKEWISE_V3_VAULT_REGISTRY()":"a8708a22","WETH_ADDRESS()":"040141e5","parseAssetsForAction(address,uint256,bytes)":"bbd2d646","parseInitArgs(address,bytes)":"db16c72e"},"id":138}