{"abi":[{"type":"constructor","inputs":[{"name":"_policyManager","type":"address","internalType":"address"},{"name":"_addressListRegistry","type":"address","internalType":"address"}],"stateMutability":"nonpayable"},{"type":"function","name":"activateForFund","inputs":[{"name":"","type":"address","internalType":"address"}],"outputs":[],"stateMutability":"nonpayable"},{"type":"function","name":"addFundSettings","inputs":[{"name":"_comptrollerProxy","type":"address","internalType":"address"},{"name":"_encodedSettings","type":"bytes","internalType":"bytes"}],"outputs":[],"stateMutability":"nonpayable"},{"type":"function","name":"canDisable","inputs":[],"outputs":[{"name":"canDisable_","type":"bool","internalType":"bool"}],"stateMutability":"pure"},{"type":"function","name":"getAddressListRegistry","inputs":[],"outputs":[{"name":"addressListRegistry_","type":"address","internalType":"address"}],"stateMutability":"view"},{"type":"function","name":"getListIdsForFund","inputs":[{"name":"_comptrollerProxy","type":"address","internalType":"address"}],"outputs":[{"name":"listIds_","type":"uint256[]","internalType":"uint256[]"}],"stateMutability":"view"},{"type":"function","name":"getPolicyManager","inputs":[],"outputs":[{"name":"policyManager_","type":"address","internalType":"address"}],"stateMutability":"view"},{"type":"function","name":"identifier","inputs":[],"outputs":[{"name":"identifier_","type":"string","internalType":"string"}],"stateMutability":"pure"},{"type":"function","name":"implementedHooks","inputs":[],"outputs":[{"name":"implementedHooks_","type":"uint8[]","internalType":"enum IPolicyManager.PolicyHook[]"}],"stateMutability":"pure"},{"type":"function","name":"passesRule","inputs":[{"name":"_comptrollerProxy","type":"address","internalType":"address"},{"name":"_assets","type":"address[]","internalType":"address[]"}],"outputs":[{"name":"isValid_","type":"bool","internalType":"bool"}],"stateMutability":"view"},{"type":"function","name":"updateFundSettings","inputs":[{"name":"","type":"address","internalType":"address"},{"name":"","type":"bytes","internalType":"bytes"}],"outputs":[],"stateMutability":"nonpayable"},{"type":"function","name":"validateRule","inputs":[{"name":"_comptrollerProxy","type":"address","internalType":"address"},{"name":"","type":"uint8","internalType":"enum IPolicyManager.PolicyHook"},{"name":"_encodedArgs","type":"bytes","internalType":"bytes"}],"outputs":[{"name":"isValid_","type":"bool","internalType":"bool"}],"stateMutability":"view"},{"type":"event","name":"ListsSetForFund","inputs":[{"name":"comptrollerProxy","type":"address","indexed":true,"internalType":"address"},{"name":"listIds","type":"uint256[]","indexed":false,"internalType":"uint256[]"}],"anonymous":false}],"bytecode":{"object":"0x60c06040523480156200001157600080fd5b506040516200156038038062001560833981016040819052620000349162000086565b6001600160a01b039182166080521660a052620000c9565b60006001600160a01b0382165b92915050565b6200006a816200004c565b81146200007657600080fd5b50565b805162000059816200005f565b600080604083850312156200009e576200009e600080fd5b6000620000ac858562000079565b9250506020620000bf8582860162000079565b9150509250929050565b60805160a05161145c6200010460003960008181610104015281816102c0015261076f01526000818161018101526101f1015261145c6000f3fe608060405234801561001057600080fd5b50600436106100a95760003560e01c80637998a1c4116100715780637998a1c414610131578063c18a633814610146578063cbf54bb214610159578063ceb9a0ad1461016e578063d44ad6cb1461017f578063dffd7c6f146101a557600080fd5b80630d4d7510146100ae5780630f5f6b4f146100c35780631ef92578146100d6578063579be718146100ef5780637470893414610102575b600080fd5b6100c16100bc3660046108e0565b6101c5565b005b6100c16100d13660046108e0565b6101e6565b60005b6040516100e69190610945565b60405180910390f35b6100d96100fd36600461096b565b61023e565b7f00000000000000000000000000000000000000000000000000000000000000005b6040516100e691906109e1565b61013961029c565b6040516100e69190610a45565b6100d9610154366004610b63565b6102bc565b61016161035e565b6040516100e69190610c5b565b6100c161017c366004610c6c565b50565b7f0000000000000000000000000000000000000000000000000000000000000000610124565b6101b86101b3366004610c6c565b6103c7565b6040516100e69190610cdd565b60405162461bcd60e51b81526004016101dd90610d4b565b60405180910390fd5b336001600160a01b037f0000000000000000000000000000000000000000000000000000000000000000161461022e5760405162461bcd60e51b81526004016101dd90610da1565b610239838383610431565b505050565b60008061028084848080601f01602080910402602001604051908101604052809392919081815260200183838082843760009201919091525061072292505050565b505050935050505061029286826102bc565b9695505050505050565b606060405180606001604052806022815260200161143a60229139905090565b60007f00000000000000000000000000000000000000000000000000000000000000006001600160a01b0316633a6914fe6102f6856103c7565b846040518363ffffffff1660e01b8152600401610314929190610dfb565b602060405180830381865afa158015610331573d6000803e3d6000fd5b505050506040513d601f19601f820116820180604052508101906103559190610e33565b90505b92915050565b6040805160018082528183019092526060916020808301908036833701905050905060018160008151811061039557610395610e54565b602002602001019060098111156103ae576103ae610bba565b908160098111156103c1576103c1610bba565b90525090565b6001600160a01b0381166000908152602081815260409182902080548351818402810184019094528084526060939283018282801561042557602002820191906000526020600020905b815481526020019060010190808311610411575b50505050509050919050565b60008061044083850185611017565b915091506000815183516104549190611093565b6001600160401b0381111561046b5761046b610a56565b604051908082528060200260200182016040528015610494578160200160208202803683370190505b50905080516000036104b85760405162461bcd60e51b81526004016101dd906110eb565b6001600160a01b038616600090815260208190526040902054156104f7576001600160a01b03861660009081526020819052604081206104f79161082d565b60005b83518110156105a25783818151811061051557610515610e54565b602002602001015182828151811061052f5761052f610e54565b602002602001018181525050600080886001600160a01b03166001600160a01b0316815260200190815260200160002084828151811061057157610571610e54565b602090810291909101810151825460018101845560009384529190922001558061059a816110fb565b9150506104fa565b508151156106d9576000866001600160a01b031663c98091876040518163ffffffff1660e01b8152600401602060405180830381865afa1580156105ea573d6000803e3d6000fd5b505050506040513d601f19601f8201168201806040525081019061060e9190611120565b905060005b83518110156106d657600081865161062b9190611093565b90506106508386848151811061064357610643610e54565b6020026020010151610758565b84828151811061066257610662610e54565b6020026020010181815250506000808a6001600160a01b03166001600160a01b031681526020019081526020016000208482815181106106a4576106a4610e54565b6020908102919091018101518254600181018455600093845291909220015550806106ce816110fb565b915050610613565b50505b856001600160a01b03167fd63f5b55f54cdda3234eab3aa26d85b99854a43efea66e0c459220fd7b3a332f826040516107129190610cdd565b60405180910390a2505050505050565b6000806000606080606080878060200190518101906107419190611251565b959e949d50929b5090995097509550909350915050565b60008060006107668461080c565b915091506107917f000000000000000000000000000000000000000000000000000000000000000090565b6001600160a01b031663be68406e8684846040518463ffffffff1660e01b81526004016107c093929190611386565b6020604051808303816000875af11580156107df573d6000803e3d6000fd5b505050506040513d601f19601f8201168201806040525081019061080391906113b3565b95945050505050565b600060608280602001905181019061082491906113ec565b91509150915091565b508054600082559060005260206000209081019061017c91905b8082111561085b5760008155600101610847565b5090565b60006001600160a01b038216610358565b6108798161085f565b811461017c57600080fd5b803561035881610870565b60008083601f8401126108a4576108a4600080fd5b5081356001600160401b038111156108be576108be600080fd5b6020830191508360018202830111156108d9576108d9600080fd5b9250929050565b6000806000604084860312156108f8576108f8600080fd5b60006109048686610884565b93505060208401356001600160401b0381111561092357610923600080fd5b61092f8682870161088f565b92509250509250925092565b8015155b82525050565b60208101610358828461093b565b600a811061017c57600080fd5b803561035881610953565b6000806000806060858703121561098457610984600080fd5b60006109908787610884565b94505060206109a187828801610960565b93505060408501356001600160401b038111156109c0576109c0600080fd5b6109cc8782880161088f565b95989497509550505050565b61093f8161085f565b6020810161035882846109d8565b60005b83811015610a0a5781810151838201526020016109f2565b50506000910152565b6000610a1d825190565b808452602084019350610a348185602086016109ef565b601f01601f19169290920192915050565b602080825281016103558184610a13565b634e487b7160e01b600052604160045260246000fd5b601f19601f83011681018181106001600160401b0382111715610a9157610a91610a56565b6040525050565b6000610aa360405190565b9050610aaf8282610a6c565b919050565b60006001600160401b03821115610acd57610acd610a56565b5060209081020190565b6000610aea610ae584610ab4565b610a98565b83815290506020808201908402830185811115610b0957610b09600080fd5b835b81811015610b2d5780610b1e8882610884565b84525060209283019201610b0b565b5050509392505050565b600082601f830112610b4b57610b4b600080fd5b8135610b5b848260208601610ad7565b949350505050565b60008060408385031215610b7957610b79600080fd5b6000610b858585610884565b92505060208301356001600160401b03811115610ba457610ba4600080fd5b610bb085828601610b37565b9150509250929050565b634e487b7160e01b600052602160045260246000fd5b600a811061017c5761017c610bba565b80610aaf81610bd0565b600061035882610be0565b61093f81610bea565b6000610c0a8383610bf5565b505060200190565b6000610c1c825190565b80845260209384019383018060005b83811015610c50578151610c3f8882610bfe565b975060208301925050600101610c2b565b509495945050505050565b602080825281016103558184610c12565b600060208284031215610c8157610c81600080fd5b6000610b5b8484610884565b8061093f565b6000610c0a8383610c8d565b6000610ca9825190565b80845260209384019383018060005b83811015610c50578151610ccc8882610c93565b975060208301925050600101610cb8565b602080825281016103558184610c9f565b603781526000602082017f75706461746546756e6453657474696e67733a2055706461746573206e6f742081527f616c6c6f77656420666f72207468697320706f6c696379000000000000000000602082015291505b5060400190565b6020808252810161035881610cee565b602981526000602082017f4f6e6c792074686520506f6c6963794d616e616765722063616e206d616b65208152681d1a1a5cc818d85b1b60ba1b60208201529150610d44565b6020808252810161035881610d5b565b6000610c0a83836109d8565b6000610dc7825190565b80845260209384019383018060005b83811015610c50578151610dea8882610db1565b975060208301925050600101610dd6565b60408082528101610e0c8185610c9f565b90508181036020830152610b5b8184610dbd565b801515610879565b805161035881610e20565b600060208284031215610e4857610e48600080fd5b6000610b5b8484610e28565b634e487b7160e01b600052603260045260246000fd5b80610879565b803561035881610e6a565b6000610e89610ae584610ab4565b83815290506020808201908402830185811115610ea857610ea8600080fd5b835b81811015610b2d5780610ebd8882610e70565b84525060209283019201610eaa565b600082601f830112610ee057610ee0600080fd5b8135610b5b848260208601610e7b565b60006001600160401b03821115610f0957610f09610a56565b601f19601f83011660200192915050565b82818337506000910152565b6000610f34610ae584610ef0565b905082815260208101848484011115610f4f57610f4f600080fd5b610f5a848285610f1a565b509392505050565b600082601f830112610f7657610f76600080fd5b8135610b5b848260208601610f26565b6000610f94610ae584610ab4565b83815290506020808201908402830185811115610fb357610fb3600080fd5b835b81811015610b2d5780356001600160401b03811115610fd657610fd6600080fd5b808601610fe38982610f62565b8552505060209283019201610fb5565b600082601f83011261100757611007600080fd5b8135610b5b848260208601610f86565b6000806040838503121561102d5761102d600080fd5b82356001600160401b0381111561104657611046600080fd5b61105285828601610ecc565b92505060208301356001600160401b0381111561107157611071600080fd5b610bb085828601610ff3565b634e487b7160e01b600052601160045260246000fd5b808201808211156103585761035861107d565b602881526000602082017f5f5f7570646174654c69737473466f7246756e643a204e6f206c6973747320738152671c1958da599a595960c21b60208201529150610d44565b60208082528101610358816110a6565b6000600019820361110e5761110e61107d565b5060010190565b805161035881610870565b60006020828403121561113557611135600080fd5b6000610b5b8484611115565b6001600160e01b03198116610879565b805161035881611141565b600061116a610ae584610ab4565b8381529050602080820190840283018581111561118957611189600080fd5b835b81811015610b2d578061119e8882611115565b8452506020928301920161118b565b600082601f8301126111c1576111c1600080fd5b8151610b5b84826020860161115c565b805161035881610e6a565b60006111ea610ae584610ab4565b8381529050602080820190840283018581111561120957611209600080fd5b835b81811015610b2d578061121e88826111d1565b8452506020928301920161120b565b600082601f83011261124157611241600080fd5b8151610b5b8482602086016111dc565b600080600080600080600060e0888a03121561126f5761126f600080fd5b600061127b8a8a611115565b975050602061128c8a828b01611115565b965050604061129d8a828b01611151565b95505060608801516001600160401b038111156112bc576112bc600080fd5b6112c88a828b016111ad565b94505060808801516001600160401b038111156112e7576112e7600080fd5b6112f38a828b0161122d565b93505060a08801516001600160401b0381111561131257611312600080fd5b61131e8a828b016111ad565b92505060c08801516001600160401b0381111561133d5761133d600080fd5b6113498a828b0161122d565b91505092959891949750929550565b6004811061017c5761017c610bba565b80610aaf81611358565b600061035882611368565b61093f81611372565b6060810161139482866109d8565b6113a1602083018561137d565b81810360408301526108038184610dbd565b6000602082840312156113c8576113c8600080fd5b6000610b5b84846111d1565b6004811061017c57600080fd5b8051610358816113d4565b6000806040838503121561140257611402600080fd5b600061140e85856113e1565b92505060208301516001600160401b0381111561142d5761142d600080fd5b610bb0858286016111ad56fe444953414c4c4f5745445f414441505445525f494e434f4d494e475f415353455453","linkReferences":{}},"methodIdentifiers":{"activateForFund(address)":"ceb9a0ad","addFundSettings(address,bytes)":"0f5f6b4f","canDisable()":"1ef92578","getAddressListRegistry()":"74708934","getListIdsForFund(address)":"dffd7c6f","getPolicyManager()":"d44ad6cb","identifier()":"7998a1c4","implementedHooks()":"cbf54bb2","passesRule(address,address[])":"c18a6338","updateFundSettings(address,bytes)":"0d4d7510","validateRule(address,uint8,bytes)":"579be718"},"id":180}