{"abi":[{"type":"constructor","inputs":[{"name":"_fundDeployer","type":"address","internalType":"address"},{"name":"_wethToken","type":"address","internalType":"address"},{"name":"_chainlinkStaleRateThreshold","type":"uint256","internalType":"uint256"}],"stateMutability":"nonpayable"},{"type":"function","name":"addDerivatives","inputs":[{"name":"_derivatives","type":"address[]","internalType":"address[]"},{"name":"_priceFeeds","type":"address[]","internalType":"address[]"}],"outputs":[],"stateMutability":"nonpayable"},{"type":"function","name":"addPrimitives","inputs":[{"name":"_primitives","type":"address[]","internalType":"address[]"},{"name":"_aggregators","type":"address[]","internalType":"address[]"},{"name":"_rateAssets","type":"uint8[]","internalType":"enum IChainlinkPriceFeedMixin.RateAsset[]"}],"outputs":[],"stateMutability":"nonpayable"},{"type":"function","name":"calcCanonicalAssetValue","inputs":[{"name":"_baseAsset","type":"address","internalType":"address"},{"name":"_amount","type":"uint256","internalType":"uint256"},{"name":"_quoteAsset","type":"address","internalType":"address"}],"outputs":[{"name":"value_","type":"uint256","internalType":"uint256"}],"stateMutability":"nonpayable"},{"type":"function","name":"calcCanonicalAssetsTotalValue","inputs":[{"name":"_baseAssets","type":"address[]","internalType":"address[]"},{"name":"_amounts","type":"uint256[]","internalType":"uint256[]"},{"name":"_quoteAsset","type":"address","internalType":"address"}],"outputs":[{"name":"value_","type":"uint256","internalType":"uint256"}],"stateMutability":"nonpayable"},{"type":"function","name":"getAggregatorForPrimitive","inputs":[{"name":"_primitive","type":"address","internalType":"address"}],"outputs":[{"name":"aggregator_","type":"address","internalType":"address"}],"stateMutability":"view"},{"type":"function","name":"getEthUsdAggregator","inputs":[],"outputs":[{"name":"ethUsdAggregator_","type":"address","internalType":"address"}],"stateMutability":"view"},{"type":"function","name":"getFundDeployer","inputs":[],"outputs":[{"name":"fundDeployer_","type":"address","internalType":"address"}],"stateMutability":"view"},{"type":"function","name":"getOwner","inputs":[],"outputs":[{"name":"owner_","type":"address","internalType":"address"}],"stateMutability":"view"},{"type":"function","name":"getPriceFeedForDerivative","inputs":[{"name":"_derivative","type":"address","internalType":"address"}],"outputs":[{"name":"priceFeed_","type":"address","internalType":"address"}],"stateMutability":"view"},{"type":"function","name":"getRateAssetForPrimitive","inputs":[{"name":"_primitive","type":"address","internalType":"address"}],"outputs":[{"name":"rateAsset_","type":"uint8","internalType":"enum IChainlinkPriceFeedMixin.RateAsset"}],"stateMutability":"view"},{"type":"function","name":"getStaleRateThreshold","inputs":[],"outputs":[{"name":"staleRateThreshold_","type":"uint256","internalType":"uint256"}],"stateMutability":"view"},{"type":"function","name":"getUnitForPrimitive","inputs":[{"name":"_primitive","type":"address","internalType":"address"}],"outputs":[{"name":"unit_","type":"uint256","internalType":"uint256"}],"stateMutability":"view"},{"type":"function","name":"getWethToken","inputs":[],"outputs":[{"name":"wethToken_","type":"address","internalType":"address"}],"stateMutability":"view"},{"type":"function","name":"isSupportedAsset","inputs":[{"name":"_asset","type":"address","internalType":"address"}],"outputs":[{"name":"isSupported_","type":"bool","internalType":"bool"}],"stateMutability":"view"},{"type":"function","name":"isSupportedDerivativeAsset","inputs":[{"name":"_asset","type":"address","internalType":"address"}],"outputs":[{"name":"isSupported_","type":"bool","internalType":"bool"}],"stateMutability":"view"},{"type":"function","name":"isSupportedPrimitiveAsset","inputs":[{"name":"_asset","type":"address","internalType":"address"}],"outputs":[{"name":"isSupported_","type":"bool","internalType":"bool"}],"stateMutability":"view"},{"type":"function","name":"removeDerivatives","inputs":[{"name":"_derivatives","type":"address[]","internalType":"address[]"}],"outputs":[],"stateMutability":"nonpayable"},{"type":"function","name":"removePrimitives","inputs":[{"name":"_primitives","type":"address[]","internalType":"address[]"}],"outputs":[],"stateMutability":"nonpayable"},{"type":"function","name":"setEthUsdAggregator","inputs":[{"name":"_nextEthUsdAggregator","type":"address","internalType":"address"}],"outputs":[],"stateMutability":"nonpayable"},{"type":"function","name":"updateDerivatives","inputs":[{"name":"_derivatives","type":"address[]","internalType":"address[]"},{"name":"_priceFeeds","type":"address[]","internalType":"address[]"}],"outputs":[],"stateMutability":"nonpayable"},{"type":"function","name":"updatePrimitives","inputs":[{"name":"_primitives","type":"address[]","internalType":"address[]"},{"name":"_aggregators","type":"address[]","internalType":"address[]"},{"name":"_rateAssets","type":"uint8[]","internalType":"enum IChainlinkPriceFeedMixin.RateAsset[]"}],"outputs":[],"stateMutability":"nonpayable"},{"type":"event","name":"DerivativeAdded","inputs":[{"name":"derivative","type":"address","indexed":true,"internalType":"address"},{"name":"priceFeed","type":"address","indexed":false,"internalType":"address"}],"anonymous":false},{"type":"event","name":"DerivativeRemoved","inputs":[{"name":"derivative","type":"address","indexed":true,"internalType":"address"}],"anonymous":false},{"type":"event","name":"EthUsdAggregatorSet","inputs":[{"name":"prevEthUsdAggregator","type":"address","indexed":false,"internalType":"address"},{"name":"nextEthUsdAggregator","type":"address","indexed":false,"internalType":"address"}],"anonymous":false},{"type":"event","name":"PrimitiveAdded","inputs":[{"name":"primitive","type":"address","indexed":true,"internalType":"address"},{"name":"aggregator","type":"address","indexed":false,"internalType":"address"},{"name":"rateAsset","type":"uint8","indexed":false,"internalType":"enum IChainlinkPriceFeedMixin.RateAsset"},{"name":"unit","type":"uint256","indexed":false,"internalType":"uint256"}],"anonymous":false},{"type":"event","name":"PrimitiveRemoved","inputs":[{"name":"primitive","type":"address","indexed":true,"internalType":"address"}],"anonymous":false}],"bytecode":{"object":"0x60e06040523480156200001157600080fd5b5060405162002d0938038062002d0983398101604081905262000034916200009d565b6001600160a01b0392831660805260a0521660c052620000f5565b60006001600160a01b0382165b92915050565b6200006d816200004f565b81146200007957600080fd5b50565b80516200005c8162000062565b806200006d565b80516200005c8162000089565b600080600060608486031215620000b757620000b7600080fd5b6000620000c586866200007c565b9350506020620000d8868287016200007c565b9250506040620000eb8682870162000090565b9150509250925092565b60805160a05160c051612bba6200014f600039600081816101530152818161052a01528181610826015281816108ff01526116020152600081816102a2015261187401526000818161023001526105900152612bba6000f3fe608060405234801561001057600080fd5b50600436106101375760003560e01c806397c0ac87116100b8578063b54fbdaa1161007c578063b54fbdaa146102a0578063c496f8e8146102c6578063cf0399c8146102d9578063e106264f146102ec578063e2dd0978146102ff578063e35e318e1461032b57600080fd5b806397c0ac871461022e5780639be918e614610254578063a98acadc14610267578063ae6f52ad1461027a578063b3d3af3b1461028d57600080fd5b80636d3b9410116100ff5780636d3b9410146101dc57806374626f87146101ef578063787f256814610200578063893d20e8146102135780638f72b1361461021b57600080fd5b806339cbb63c1461013c5780634c252f91146101515780634c67e1061461018957806364b01dc1146101a957806368e81c6d146101c9575b600080fd5b61014f61014a3660046119c6565b61034b565b005b7f00000000000000000000000000000000000000000000000000000000000000005b6040516101809190611a5d565b60405180910390f35b61019c610197366004611a9b565b6103ff565b6040516101809190611af1565b6101bc6101b7366004611aff565b610493565b6040516101809190611b28565b6101736101d7366004611aff565b6104b0565b61014f6101ea366004611b36565b6104ce565b6001546001600160a01b0316610173565b61019c61020e366004611aff565b610526565b61017361058c565b61014f610229366004611be0565b610615565b7f0000000000000000000000000000000000000000000000000000000000000000610173565b6101bc610262366004611aff565b61068d565b61014f610275366004611aff565b6106ad565b61019c610288366004611da1565b6106f1565b61014f61029b3660046119c6565b6107ae565b7f000000000000000000000000000000000000000000000000000000000000000061019c565b6101bc6102d4366004611aff565b610822565b61014f6102e7366004611b36565b610881565b61014f6102fa366004611be0565b6108b9565b61017361030d366004611aff565b6001600160a01b039081166000908152600260205260409020541690565b61033e610339366004611aff565b6108fb565b6040516101809190611e4d565b61035361058c565b6001600160a01b0316336001600160a01b03161461038c5760405162461bcd60e51b815260040161038390611eca565b60405180910390fd5b6103f98484808060200260200160405190810160405280939291908181526020018383602002808284376000920191909152505060408051602080880282810182019093528782529093508792508691829185019084908082843760009201919091525061096492505050565b50505050565b6000816001600160a01b0316846001600160a01b0316148061041f575082155b1561042b57508161048c565b61043482610822565b1561044b57610444848484610b25565b905061048c565b61045482610493565b8015610464575061046484610822565b1561047457610444848484610bb2565b60405162461bcd60e51b815260040161038390611f29565b9392505050565b60008061049f836104b0565b6001600160a01b0316141592915050565b6001600160a01b039081166000908152602081905260409020541690565b6104d661058c565b6001600160a01b0316336001600160a01b0316146105065760405162461bcd60e51b815260040161038390611eca565b6105108686610c85565b61051e868686868686610df2565b505050505050565b60007f00000000000000000000000000000000000000000000000000000000000000006001600160a01b0316826001600160a01b0316036105705750670de0b6b3a7640000919050565b506001600160a01b031660009081526003602052604090205490565b60007f00000000000000000000000000000000000000000000000000000000000000006001600160a01b031663893d20e86040518163ffffffff1660e01b8152600401602060405180830381865afa1580156105ec573d6000803e3d6000fd5b505050506040513d601f19601f820116820180604052508101906106109190611f44565b905090565b61061d61058c565b6001600160a01b0316336001600160a01b03161461064d5760405162461bcd60e51b815260040161038390611eca565b61068982828080602002602001604051908101604052809392919081815260200183836020028082843760009201919091525061116892505050565b5050565b600061069882610822565b806106a757506106a782610493565b92915050565b6106b561058c565b6001600160a01b0316336001600160a01b0316146106e55760405162461bcd60e51b815260040161038390611eca565b6106ee8161126e565b50565b600082518451146107145760405162461bcd60e51b815260040161038390611fb7565b61071d82610822565b6107395760405162461bcd60e51b81526004016103839061201a565b60005b84518110156107a657600061078486838151811061075c5761075c61202a565b60200260200101518684815181106107765761077661202a565b602002602001015186610b25565b90506107908184612056565b925050808061079e90612069565b91505061073c565b509392505050565b6107b661058c565b6001600160a01b0316336001600160a01b0316146107e65760405162461bcd60e51b815260040161038390611eca565b61038c84848080602002602001604051908101604052809392919081815260200183836020028082843760009201919091525061116892505050565b60007f00000000000000000000000000000000000000000000000000000000000000006001600160a01b0316826001600160a01b031614806106a757506001600160a01b0380831660009081526002602052604081205490911661049f565b61088961058c565b6001600160a01b0316336001600160a01b0316146105105760405162461bcd60e51b815260040161038390611eca565b6108c161058c565b6001600160a01b0316336001600160a01b0316146108f15760405162461bcd60e51b815260040161038390611eca565b6106898282610c85565b60007f00000000000000000000000000000000000000000000000000000000000000006001600160a01b0316826001600160a01b03160361093e57506000919050565b506001600160a01b0316600090815260026020526040902054600160a01b900460ff1690565b80518251146109855760405162461bcd60e51b8152600401610383906120ea565b60005b8251811015610b205760006001600160a01b03166109be8483815181106109b1576109b161202a565b60200260200101516104b0565b6001600160a01b0316146109e45760405162461bcd60e51b8152600401610383906120fa565b610a208382815181106109f9576109f961202a565b6020026020010151838381518110610a1357610a1361202a565b6020026020010151611317565b818181518110610a3257610a3261202a565b6020026020010151600080858481518110610a4f57610a4f61202a565b60200260200101516001600160a01b03166001600160a01b0316815260200190815260200160002060006101000a8154816001600160a01b0302191690836001600160a01b03160217905550828181518110610aad57610aad61202a565b60200260200101516001600160a01b03167faa4ae250fb435bb4b31ed0b95822bc179fc6c5dd0c727c3ffe08d444025efd98838381518110610af157610af161202a565b6020026020010151604051610b069190611a5d565b60405180910390a280610b1881612069565b915050610988565b505050565b6000816001600160a01b0316846001600160a01b03161480610b45575082155b15610b5157508161048c565b610b5a84610822565b15610b6a576104448484846113a0565b6000610b75856104b0565b90506001600160a01b03811615610b9a57610b9281868686611412565b91505061048c565b60405162461bcd60e51b81526004016103839061217a565b600080826001600160a01b031663313ce5676040518163ffffffff1660e01b8152600401602060405180830381865afa158015610bf3573d6000803e3d6000fd5b505050506040513d601f19601f82011682018060405250810190610c17919061219e565b610c259060ff16600a6122cd565b90506000610c32846104b0565b90506000610c428286858a611412565b90506127108111610c655760405162461bcd60e51b81526004016103839061232c565b610c7a610c73826001612056565b848861154a565b979650505050505050565b60005b81811015610b20576000610cbc848484818110610ca757610ca761202a565b905060200201602081019061030d9190611aff565b6001600160a01b031603610ce25760405162461bcd60e51b815260040161038390612384565b60026000848484818110610cf857610cf861202a565b9050602002016020810190610d0d9190611aff565b6001600160a01b031681526020810191909152604001600090812080546001600160a81b0319169055600390848484818110610d4b57610d4b61202a565b9050602002016020810190610d609190611aff565b6001600160a01b03166001600160a01b0316815260200190815260200160002060009055828282818110610d9657610d9661202a565b9050602002016020810190610dab9190611aff565b6001600160a01b03167fb100e8178a081ba9130260173ee2ebe0db3a6c3b6751a7801111ab3017df0e9760405160405180910390a280610dea81612069565b915050610c88565b848314610e115760405162461bcd60e51b8152600401610383906123fa565b848114610e305760405162461bcd60e51b81526004016103839061246f565b60005b8581101561115f576000610e52888884818110610ca757610ca761202a565b6001600160a01b031614610e785760405162461bcd60e51b8152600401610383906124be565b610ea7858583818110610e8d57610e8d61202a565b9050602002016020810190610ea29190611aff565b611569565b6040518060400160405280868684818110610ec457610ec461202a565b9050602002016020810190610ed99190611aff565b6001600160a01b03168152602001848484818110610ef957610ef961202a565b9050602002016020810190610f0e91906124e6565b6001811115610f1f57610f1f611e09565b905260026000898985818110610f3757610f3761202a565b9050602002016020810190610f4c9190611aff565b6001600160a01b03908116825260208083019390935260409091016000208351815492166001600160a01b0319831681178255928401519092909183916001600160a81b031990911617600160a01b836001811115610fad57610fad611e09565b02179055509050506000878783818110610fc957610fc961202a565b9050602002016020810190610fde9190611aff565b6001600160a01b031663313ce5676040518163ffffffff1660e01b8152600401602060405180830381865afa15801561101b573d6000803e3d6000fd5b505050506040513d601f19601f8201168201806040525081019061103f919061219e565b61104d9060ff16600a6122cd565b905080600360008a8a868181106110665761106661202a565b905060200201602081019061107b9190611aff565b6001600160a01b031681526020810191909152604001600020558787838181106110a7576110a761202a565b90506020020160208101906110bc9190611aff565b6001600160a01b03167f742bdf00da3d8f16c0fab93ce38eb6a536a019c9e283888dd44c3a08c0148c028787858181106110f8576110f861202a565b905060200201602081019061110d9190611aff565b86868681811061111f5761111f61202a565b905060200201602081019061113491906124e6565b8460405161114493929190612507565b60405180910390a2508061115781612069565b915050610e33565b50505050505050565b60005b81518110156106895760006001600160a01b03166111948383815181106109b1576109b161202a565b6001600160a01b0316036111ba5760405162461bcd60e51b815260040161038390612577565b6000808383815181106111cf576111cf61202a565b60200260200101516001600160a01b03166001600160a01b0316815260200190815260200160002060006101000a8154906001600160a01b03021916905581818151811061121f5761121f61202a565b60200260200101516001600160a01b03167fc15eb25d807b570f4567baf6e97c7b26d58a7d0512dc85e8db15375a056b860460405160405180910390a28061126681612069565b91505061116b565b60006112826001546001600160a01b031690565b9050806001600160a01b0316826001600160a01b0316036112b55760405162461bcd60e51b8152600401610383906125cc565b6112be82611569565b600180546001600160a01b0319166001600160a01b0384161790556040517f98b60a60ba6130248e985ae4140dc3109d9c2980c7e435fed385e2756bc944619061130b90839085906125dc565b60405180910390a15050565b604051634df48c7360e11b81526001600160a01b03821690639be918e690611343908590600401611a5d565b602060405180830381865afa158015611360573d6000803e3d6000fd5b505050506040513d601f19601f82011682018060405250810190611384919061260a565b6106895760405162461bcd60e51b81526004016103839061267d565b6000806113ac856115fe565b9050600081136113ce5760405162461bcd60e51b8152600401610383906126d7565b60006113d9846115fe565b9050600081136113fb5760405162461bcd60e51b815260040161038390612732565b61140886868487856116ff565b9695505050505050565b6000806000866001600160a01b031663727212f687876040518363ffffffff1660e01b8152600401611445929190612742565b6000604051808303816000875af1158015611464573d6000803e3d6000fd5b505050506040513d6000823e601f3d908101601f1916820160405261148c9190810190612852565b9150915060008251116114b15760405162461bcd60e51b815260040161038390612904565b80518251146114d25760405162461bcd60e51b81526004016103839061295e565b60005b825181101561153f57600061151d8483815181106114f5576114f561202a565b602002602001015184848151811061150f5761150f61202a565b602002602001015188610b25565b90506115298186612056565b945050808061153790612069565b9150506114d5565b505050949350505050565b600083611557848461296e565b61156191906129a3565b949350505050565b600080826001600160a01b031663feaf968c6040518163ffffffff1660e01b815260040160a060405180830381865afa1580156115aa573d6000803e3d6000fd5b505050506040513d601f19601f820116820180604052508101906115ce91906129d4565b50935050925050600082136115f55760405162461bcd60e51b815260040161038390612a8f565b610b208161186f565b60007f00000000000000000000000000000000000000000000000000000000000000006001600160a01b0316826001600160a01b0316036116485750670de0b6b3a7640000919050565b6001600160a01b0382811660009081526002602052604090205416806116805760405162461bcd60e51b815260040161038390612ae9565b6000816001600160a01b031663feaf968c6040518163ffffffff1660e01b815260040160a060405180830381865afa1580156116c0573d6000803e3d6000fd5b505050506040513d601f19601f820116820180604052508101906116e491906129d4565b509195509092506116f8915082905061186f565b5050919050565b60008061170b876108fb565b90506000611718856108fb565b9050600061172589610526565b9050600061173287610526565b905082600181111561174657611746611e09565b84600181111561175857611758611e09565b036117755761176a89838a848a6118b8565b945050505050611866565b60008061178a6001546001600160a01b031690565b6001600160a01b031663feaf968c6040518163ffffffff1660e01b815260040160a060405180830381865afa1580156117c7573d6000803e3d6000fd5b505050506040513d601f19601f820116820180604052508101906117eb91906129d4565b50935050925050600082136118125760405162461bcd60e51b815260040161038390612b3d565b61181b8161186f565b600086600181111561182f5761182f611e09565b0361184f576118428b858c868c876118e3565b9650505050505050611866565b61185d8b858c868c8761193c565b96505050505050505b95945050505050565b6118997f000000000000000000000000000000000000000000000000000000000000000042612b4d565b8110156106ee5760405162461bcd60e51b815260040161038390612baa565b60006118c4828661296e565b836118cf868961296e565b6118d9919061296e565b61140891906129a3565b600080670de0b6b3a7640000836118fa888b61296e565b611904919061296e565b61190e91906129a3565b9050838761191c878461296e565b61192691906129a3565b61193091906129a3565b98975050505050505050565b600080828561194b888b61296e565b611955919061296e565b61195f91906129a3565b9050838761191c670de0b6b3a76400008461296e565b60008083601f84011261198a5761198a600080fd5b5081356001600160401b038111156119a4576119a4600080fd5b6020830191508360208202830111156119bf576119bf600080fd5b9250929050565b600080600080604085870312156119df576119df600080fd5b84356001600160401b038111156119f8576119f8600080fd5b611a0487828801611975565b945094505060208501356001600160401b03811115611a2557611a25600080fd5b611a3187828801611975565b95989497509550505050565b60006001600160a01b0382166106a7565b611a5781611a3d565b82525050565b602081016106a78284611a4e565b611a7481611a3d565b81146106ee57600080fd5b80356106a781611a6b565b80611a74565b80356106a781611a8a565b600080600060608486031215611ab357611ab3600080fd5b6000611abf8686611a7f565b9350506020611ad086828701611a90565b9250506040611ae186828701611a7f565b9150509250925092565b80611a57565b602081016106a78284611aeb565b600060208284031215611b1457611b14600080fd5b60006115618484611a7f565b801515611a57565b602081016106a78284611b20565b60008060008060008060608789031215611b5257611b52600080fd5b86356001600160401b03811115611b6b57611b6b600080fd5b611b7789828a01611975565b965096505060208701356001600160401b03811115611b9857611b98600080fd5b611ba489828a01611975565b945094505060408701356001600160401b03811115611bc557611bc5600080fd5b611bd189828a01611975565b92509250509295509295509295565b60008060208385031215611bf657611bf6600080fd5b82356001600160401b03811115611c0f57611c0f600080fd5b611c1b85828601611975565b92509250509250929050565b634e487b7160e01b600052604160045260246000fd5b601f19601f83011681018181106001600160401b0382111715611c6257611c62611c27565b6040525050565b6000611c7460405190565b9050611c808282611c3d565b919050565b60006001600160401b03821115611c9e57611c9e611c27565b5060209081020190565b6000611cbb611cb684611c85565b611c69565b83815290506020808201908402830185811115611cda57611cda600080fd5b835b81811015611cfe5780611cef8882611a7f565b84525060209283019201611cdc565b5050509392505050565b600082601f830112611d1c57611d1c600080fd5b8135611561848260208601611ca8565b6000611d3a611cb684611c85565b83815290506020808201908402830185811115611d5957611d59600080fd5b835b81811015611cfe5780611d6e8882611a90565b84525060209283019201611d5b565b600082601f830112611d9157611d91600080fd5b8135611561848260208601611d2c565b600080600060608486031215611db957611db9600080fd5b83356001600160401b03811115611dd257611dd2600080fd5b611dde86828701611d08565b93505060208401356001600160401b03811115611dfd57611dfd600080fd5b611ad086828701611d7d565b634e487b7160e01b600052602160045260246000fd5b600281106106ee576106ee611e09565b80611c8081611e1f565b60006106a782611e2f565b611a5781611e39565b602081016106a78284611e44565b604981526000602082017f6f6e6c7946756e644465706c6f7965724f776e65723a204f6e6c79207468652081527f46756e644465706c6f796572206f776e65722063616e2063616c6c207468697360208201526810333ab731ba34b7b760b91b604082015291505b5060600190565b602080825281016106a781611e5b565b602f81526000602082017f63616c6343616e6f6e6963616c417373657456616c75653a20556e737570706f81526e393a32b21031b7b73b32b939b4b7b760891b602082015291505b5060400190565b602080825281016106a781611eda565b80516106a781611a6b565b600060208284031215611f5957611f59600080fd5b60006115618484611f39565b603581526000602082017f63616c6343616e6f6e6963616c417373657473546f74616c56616c75653a2041815274727261797320756e657175616c206c656e6774687360581b60208201529150611f22565b602080825281016106a781611f65565b603681526000602082017f63616c6343616e6f6e6963616c417373657473546f74616c56616c75653a20558152751b9cdd5c1c1bdc9d19590817dc5d5bdd19505cdcd95d60521b60208201529150611f22565b602080825281016106a781611fc7565b634e487b7160e01b600052603260045260246000fd5b634e487b7160e01b600052601160045260246000fd5b808201808211156106a7576106a7612040565b6000600019820361207c5761207c612040565b5060010190565b604481526000602082017f5f5f61646444657269766174697665733a20556e657175616c205f646572697681527f61746976657320616e64205f70726963654665656473206172726179206c656e6020820152636774687360e01b60408201529150611ec3565b602080825281016106a781612083565b602080825281016106a781601f81527f5f5f61646444657269766174697665733a20416c726561647920616464656400602082015260400190565b602881526000602082017f5f5f63616c63417373657456616c75653a20556e737570706f72746564205f62815267185cd9505cdcd95d60c21b60208201529150611f22565b602080825281016106a781612135565b60ff8116611a74565b80516106a78161218a565b6000602082840312156121b3576121b3600080fd5b60006115618484612193565b80825b60018511156121fe578086048111156121dd576121dd612040565b60018516156121eb57908102905b80026121f78560011c90565b94506121c2565b94509492505050565b6000826122165750600161048c565b816122235750600061048c565b8160018114612239576002811461224357612270565b600191505061048c565b60ff84111561225457612254612040565b8360020a91508482111561226a5761226a612040565b5061048c565b5060208310610133831016604e8410600b84101617156122a3575081810a8381111561229e5761229e612040565b61048c565b6122b084848460016121bf565b925090508184048111156122c6576122c6612040565b0292915050565b600061048c6000198484612207565b603381526000602082017f5f5f63616c635072696d6974697665546f4465726976617469766556616c75658152723a20496e73756666696369656e74207261746560681b60208201529150611f22565b602080825281016106a7816122dc565b602b81526000602082017f5f5f72656d6f76655072696d6974697665733a205072696d6974697665206e6f81526a1d081e595d08185919195960aa1b60208201529150611f22565b602080825281016106a78161233c565b604381526000602082017f5f5f6164645072696d6974697665733a20556e657175616c205f7072696d697481527f6976657320616e64205f61676772656761746f7273206172726179206c656e6760208201526274687360e81b60408201529150611ec3565b602080825281016106a781612394565b604281526000602082017f5f5f6164645072696d6974697665733a20556e657175616c205f7072696d697481527f6976657320616e64205f72617465417373657473206172726179206c656e6774602082015261687360f01b60408201529150611ec3565b602080825281016106a78161240a565b602281526000602082017f5f5f6164645072696d6974697665733a2056616c756520616c72656164792073815261195d60f21b60208201529150611f22565b602080825281016106a78161247f565b600281106106ee57600080fd5b80356106a7816124ce565b6000602082840312156124fb576124fb600080fd5b600061156184846124db565b606081016125158286611a4e565b6125226020830185611e44565b6115616040830184611aeb565b602b81526000602082017f72656d6f766544657269766174697665733a2044657269766174697665206e6f81526a1d081e595d08185919195960aa1b60208201529150611f22565b602080825281016106a78161252f565b602881526000602082017f5f5f73657445746855736441676772656761746f723a2056616c756520616c728152671958591e481cd95d60c21b60208201529150611f22565b602080825281016106a781612587565b604081016125ea8285611a4e565b61048c6020830184611a4e565b801515611a74565b80516106a7816125f7565b60006020828403121561261f5761261f600080fd5b600061156184846125ff565b603581526000602082017f5f5f76616c6964617465446572697661746976655072696365466565643a20558152746e737570706f72746564206465726976617469766560581b60208201529150611f22565b602080825281016106a78161262b565b602d81526000602082017f5f5f63616c6343616e6f6e6963616c56616c75653a20496e76616c696420626181526c7365206173736574207261746560981b60208201529150611f22565b602080825281016106a78161268d565b602e81526000602082017f5f5f63616c6343616e6f6e6963616c56616c75653a20496e76616c696420717581526d6f7465206173736574207261746560901b60208201529150611f22565b602080825281016106a7816126e7565b604081016127508285611a4e565b61048c6020830184611aeb565b600061276b611cb684611c85565b8381529050602080820190840283018581111561278a5761278a600080fd5b835b81811015611cfe578061279f8882611f39565b8452506020928301920161278c565b600082601f8301126127c2576127c2600080fd5b815161156184826020860161275d565b80516106a781611a8a565b60006127eb611cb684611c85565b8381529050602080820190840283018581111561280a5761280a600080fd5b835b81811015611cfe578061281f88826127d2565b8452506020928301920161280c565b600082601f83011261284257612842600080fd5b81516115618482602086016127dd565b6000806040838503121561286857612868600080fd5b82516001600160401b0381111561288157612881600080fd5b61288d858286016127ae565b92505060208301516001600160401b038111156128ac576128ac600080fd5b6128b88582860161282e565b9150509250929050565b602581526000602082017f5f5f63616c634465726976617469766556616c75653a204e6f20756e6465726c81526479696e677360d81b60208201529150611f22565b602080825281016106a7816128c2565b602d81526000602082017f5f5f63616c634465726976617469766556616c75653a2041727261797320756e81526c657175616c206c656e6774687360981b60208201529150611f22565b602080825281016106a781612914565b81810280821583820485141761298657612986612040565b5092915050565b634e487b7160e01b600052601260045260246000fd5b6000826129b2576129b261298d565b500490565b69ffffffffffffffffffff8116611a74565b80516106a7816129b7565b600080600080600060a086880312156129ef576129ef600080fd5b60006129fb88886129c9565b9550506020612a0c888289016127d2565b9450506040612a1d888289016127d2565b9350506060612a2e888289016127d2565b9250506080612a3f888289016129c9565b9150509295509295909350565b602681526000602082017f5f5f76616c696461746541676772656761746f723a204e6f20726174652064658152651d1958dd195960d21b60208201529150611f22565b602080825281016106a781612a4c565b602d81526000602082017f5f5f6765744c617465737452617465446174613a205072696d6974697665206481526c1bd95cc81b9bdd08195e1a5cdd609a1b60208201529150611f22565b602080825281016106a781612a9f565b602781526000602082017f5f5f63616c63436f6e76657273696f6e416d6f756e743a2042616420657468558152667364207261746560c81b60208201529150611f22565b602080825281016106a781612af9565b818103818111156106a7576106a7612040565b602d81526000602082017f5f5f76616c69646174655261746549734e6f745374616c653a205374616c652081526c1c985d194819195d1958dd1959609a1b60208201529150611f22565b602080825281016106a781612b6056","linkReferences":{}},"methodIdentifiers":{"addDerivatives(address[],address[])":"39cbb63c","addPrimitives(address[],address[],uint8[])":"cf0399c8","calcCanonicalAssetValue(address,uint256,address)":"4c67e106","calcCanonicalAssetsTotalValue(address[],uint256[],address)":"ae6f52ad","getAggregatorForPrimitive(address)":"e2dd0978","getEthUsdAggregator()":"74626f87","getFundDeployer()":"97c0ac87","getOwner()":"893d20e8","getPriceFeedForDerivative(address)":"68e81c6d","getRateAssetForPrimitive(address)":"e35e318e","getStaleRateThreshold()":"b54fbdaa","getUnitForPrimitive(address)":"787f2568","getWethToken()":"4c252f91","isSupportedAsset(address)":"9be918e6","isSupportedDerivativeAsset(address)":"64b01dc1","isSupportedPrimitiveAsset(address)":"c496f8e8","removeDerivatives(address[])":"8f72b136","removePrimitives(address[])":"e106264f","setEthUsdAggregator(address)":"a98acadc","updateDerivatives(address[],address[])":"b3d3af3b","updatePrimitives(address[],address[],uint8[])":"6d3b9410"},"id":226}