{"abi":[{"type":"constructor","inputs":[{"name":"_thisAggregatorDecimals","type":"uint8","internalType":"uint8"},{"name":"_quoteConversionAggregatorAddress","type":"address","internalType":"address"},{"name":"_quoteConversionAggregatorInverted","type":"bool","internalType":"bool"},{"name":"_sourceAggregatorAddress","type":"address","internalType":"address"}],"stateMutability":"nonpayable"},{"type":"function","name":"DECIMALS","inputs":[],"outputs":[{"name":"","type":"uint8","internalType":"uint8"}],"stateMutability":"view"},{"type":"function","name":"QUOTE_CONVERSION_AGGREGATOR_ADDRESS","inputs":[],"outputs":[{"name":"","type":"address","internalType":"address"}],"stateMutability":"view"},{"type":"function","name":"QUOTE_CONVERSION_AGGREGATOR_INVERTED","inputs":[],"outputs":[{"name":"","type":"bool","internalType":"bool"}],"stateMutability":"view"},{"type":"function","name":"SOURCE_AGGREGATOR_ADDRESS","inputs":[],"outputs":[{"name":"","type":"address","internalType":"address"}],"stateMutability":"view"},{"type":"function","name":"baseRate","inputs":[],"outputs":[{"name":"rate_","type":"uint256","internalType":"uint256"},{"name":"ratePrecision_","type":"uint256","internalType":"uint256"},{"name":"timestamp_","type":"uint256","internalType":"uint256"}],"stateMutability":"view"},{"type":"function","name":"decimals","inputs":[],"outputs":[{"name":"decimals_","type":"uint8","internalType":"uint8"}],"stateMutability":"view"},{"type":"function","name":"latestRoundData","inputs":[],"outputs":[{"name":"","type":"uint80","internalType":"uint80"},{"name":"","type":"int256","internalType":"int256"},{"name":"","type":"uint256","internalType":"uint256"},{"name":"","type":"uint256","internalType":"uint256"},{"name":"","type":"uint80","internalType":"uint80"}],"stateMutability":"view"},{"type":"error","name":"PriceFeedHelpersLib__ParseRateFromChainlinkAggregator__NegativeAnswer","inputs":[{"name":"answer","type":"int256","internalType":"int256"}]}],"bytecode":{"object":"0x6101606040523480156200001257600080fd5b5060405162000a8f38038062000a8f833981016040819052620000359162000186565b60ff84166080528383836200004c83600a6200033b565b60e0526001600160a01b03821660a081905281151560c052620000715760006200007c565b6200007c82620000ab565b610100525050506001600160a01b038116610120526200009c81620000ab565b61014052506200037f92505050565b6000816001600160a01b031663313ce5676040518163ffffffff1660e01b8152600401602060405180830381865afa158015620000ec573d6000803e3d6000fd5b505050506040513d601f19601f8201168201806040525081019062000112919062000352565b6200011f90600a6200033b565b92915050565b60ff81165b81146200013657600080fd5b50565b80516200011f8162000125565b60006001600160a01b0382166200011f565b6200012a8162000146565b80516200011f8162000158565b8015156200012a565b80516200011f8162000170565b60008060008060808587031215620001a157620001a1600080fd5b6000620001af878762000139565b9450506020620001c28782880162000163565b9350506040620001d58782880162000179565b9250506060620001e88782880162000163565b91505092959194509250565b634e487b7160e01b600052601160045260246000fd5b80825b600185111562000250578086048111156200022c576200022c620001f4565b60018516156200023b57908102905b8002620002488560011c90565b94506200020d565b94509492505050565b6000826200026a5750600162000334565b81620002795750600062000334565b81600181146200029257600281146200029d57620002d1565b600191505062000334565b60ff841115620002b157620002b1620001f4565b8360020a915084821115620002ca57620002ca620001f4565b5062000334565b5060208310610133831016604e8410600b841016171562000309575081810a83811115620003035762000303620001f4565b62000334565b6200031884848460016200020a565b92509050818404811115620003315762000331620001f4565b81025b9392505050565b600060ff8316925062000334600019848462000259565b600060208284031215620003695762000369600080fd5b600062000377848462000139565b949350505050565b60805160a05160c05160e05161010051610120516101405161068d6200040260003960006101a801526000818161016901526101cd0152600081816102a301526102ed015260006103340152600081816087015261027901526000818161010f01528181610218015261024d01526000818160db0152610140015261068d6000f3fe608060405234801561001057600080fd5b506004361061007d5760003560e01c80632faa3a091161005b5780632faa3a091461010a578063313ce5671461013e578063b4e6fb2614610164578063feaf968c1461018b57600080fd5b80630918d214146100825780631f68f20a146100bf5780632e0f2625146100d6575b600080fd5b6100a97f000000000000000000000000000000000000000000000000000000000000000081565b6040516100b6919061048f565b60405180910390f35b6100c76101a4565b6040516100b6939291906104a3565b6100fd7f000000000000000000000000000000000000000000000000000000000000000081565b6040516100b691906104dc565b6101317f000000000000000000000000000000000000000000000000000000000000000081565b6040516100b69190610504565b7f00000000000000000000000000000000000000000000000000000000000000006100fd565b6101317f000000000000000000000000000000000000000000000000000000000000000081565b6101936101fb565b6040516100b6959493929190610524565b60007f0000000000000000000000000000000000000000000000000000000000000000816101f17f000000000000000000000000000000000000000000000000000000000000000061036d565b9094929350919050565b60008060008060008060008061020f6101a4565b919450925090507f00000000000000000000000000000000000000000000000000000000000000006001600160a01b03161561032d576000806102717f000000000000000000000000000000000000000000000000000000000000000061036d565b9150915060007f0000000000000000000000000000000000000000000000000000000000000000156102ea576102d4837f00000000000000000000000000000000000000000000000000000000000000006b033b2e3c9fd0803ce8000000610411565b92506b033b2e3c9fd0803ce8000000905061030d565b507f00000000000000000000000000000000000000000000000000000000000000005b610318868685610432565b9550809450610327848361043f565b93505050505b61035883837f0000000000000000000000000000000000000000000000000000000000000000610454565b60009990985089975090955086945092505050565b6000806000836001600160a01b031663feaf968c6040518163ffffffff1660e01b815260040160a060405180830381865afa1580156103b0573d6000803e3d6000fd5b505050506040513d601f19601f820116820180604052508101906103d491906105a8565b509450909250505060008112156104095780604051630d6f078960e31b81526004016104009190610620565b60405180910390fd5b939092509050565b60008361041e8484610644565b6104289190610679565b90505b9392505050565b60008261041e8386610644565b600061044b838361046f565b90505b92915050565b600081830361046457508261042b565b8261041e8386610644565b600081831061047e578161044b565b5090919050565b8015155b82525050565b6020810161044e8284610485565b80610489565b606081016104b1828661049d565b6104be602083018561049d565b6104cb604083018461049d565b949350505050565b60ff8116610489565b6020810161044e82846104d3565b60006001600160a01b03821661044e565b610489816104ea565b6020810161044e82846104fb565b69ffffffffffffffffffff8116610489565b60a081016105328288610512565b61053f602083018761049d565b61054c604083018661049d565b610559606083018561049d565b6105666080830184610512565b9695505050505050565b69ffffffffffffffffffff81165b811461058957600080fd5b50565b805161044e81610570565b8061057e565b805161044e81610597565b600080600080600060a086880312156105c3576105c3600080fd5b60006105cf888861058c565b95505060206105e08882890161059d565b94505060406105f18882890161059d565b93505060606106028882890161059d565b92505060806106138882890161058c565b9150509295509295909350565b6020810161044e828461049d565b634e487b7160e01b600052601160045260246000fd5b81810280821583820485141761065c5761065c61062e565b5092915050565b634e487b7160e01b600052601260045260246000fd5b60008261068857610688610663565b50049056","linkReferences":{}},"methodIdentifiers":{"DECIMALS()":"2e0f2625","QUOTE_CONVERSION_AGGREGATOR_ADDRESS()":"2faa3a09","QUOTE_CONVERSION_AGGREGATOR_INVERTED()":"0918d214","SOURCE_AGGREGATOR_ADDRESS()":"b4e6fb26","baseRate()":"1f68f20a","decimals()":"313ce567","latestRoundData()":"feaf968c"},"id":183}