{"abi":[{"type":"constructor","inputs":[{"name":"_dataProvider","type":"address","internalType":"contract IAaveV3ProtocolDataProvider"},{"name":"_lendingPoolAddressProvider","type":"address","internalType":"contract IAaveV3PoolAddressProvider"},{"name":"_referralCode","type":"uint16","internalType":"uint16"}],"stateMutability":"nonpayable"},{"type":"function","name":"assetIsBorrowed","inputs":[{"name":"_asset","type":"address","internalType":"address"}],"outputs":[{"name":"isBorrowed_","type":"bool","internalType":"bool"}],"stateMutability":"view"},{"type":"function","name":"assetIsCollateral","inputs":[{"name":"_asset","type":"address","internalType":"address"}],"outputs":[{"name":"isCollateral_","type":"bool","internalType":"bool"}],"stateMutability":"view"},{"type":"function","name":"getDebtAssets","inputs":[],"outputs":[{"name":"assets_","type":"address[]","internalType":"address[]"},{"name":"amounts_","type":"uint256[]","internalType":"uint256[]"}],"stateMutability":"view"},{"type":"function","name":"getDebtTokenForBorrowedAsset","inputs":[{"name":"_borrowedAsset","type":"address","internalType":"address"}],"outputs":[{"name":"debtToken_","type":"address","internalType":"address"}],"stateMutability":"view"},{"type":"function","name":"getManagedAssets","inputs":[],"outputs":[{"name":"assets_","type":"address[]","internalType":"address[]"},{"name":"amounts_","type":"uint256[]","internalType":"uint256[]"}],"stateMutability":"view"},{"type":"function","name":"init","inputs":[{"name":"","type":"bytes","internalType":"bytes"}],"outputs":[],"stateMutability":"nonpayable"},{"type":"function","name":"receiveCallFromVault","inputs":[{"name":"_actionData","type":"bytes","internalType":"bytes"}],"outputs":[],"stateMutability":"nonpayable"},{"type":"event","name":"BorrowedAssetAdded","inputs":[{"name":"asset","type":"address","indexed":true,"internalType":"address"}],"anonymous":false},{"type":"event","name":"BorrowedAssetRemoved","inputs":[{"name":"asset","type":"address","indexed":true,"internalType":"address"}],"anonymous":false},{"type":"event","name":"CollateralAssetAdded","inputs":[{"name":"asset","type":"address","indexed":true,"internalType":"address"}],"anonymous":false},{"type":"event","name":"CollateralAssetRemoved","inputs":[{"name":"asset","type":"address","indexed":true,"internalType":"address"}],"anonymous":false}],"bytecode":{"object":"0x60e06040523480156200001157600080fd5b50604051620036cb380380620036cb8339818101604052810190620000379190620001ba565b8273ffffffffffffffffffffffffffffffffffffffff1660808173ffffffffffffffffffffffffffffffffffffffff16815250508173ffffffffffffffffffffffffffffffffffffffff1660a08173ffffffffffffffffffffffffffffffffffffffff16815250508061ffff1660c08161ffff168152505050505062000216565b600080fd5b600073ffffffffffffffffffffffffffffffffffffffff82169050919050565b6000620000ea82620000bd565b9050919050565b6000620000fe82620000dd565b9050919050565b6200011081620000f1565b81146200011c57600080fd5b50565b600081519050620001308162000105565b92915050565b60006200014382620000dd565b9050919050565b620001558162000136565b81146200016157600080fd5b50565b60008151905062000175816200014a565b92915050565b600061ffff82169050919050565b62000194816200017b565b8114620001a057600080fd5b50565b600081519050620001b48162000189565b92915050565b600080600060608486031215620001d657620001d5620000b8565b5b6000620001e6868287016200011f565b9350506020620001f98682870162000164565b92505060406200020c86828701620001a3565b9150509250925092565b60805160a05160c05161345b62000270600039600081816109b901526110a201526000818161082b01528181610b6001528181610fb1015281816113f60152818161189701526119aa0152600061119e015261345b6000f3fe608060405234801561001057600080fd5b506004361061007d5760003560e01c806366b4c5d11161005b57806366b4c5d1146100fe57806380daddb81461012e578063e5c23a971461014d578063ecd658b4146101695761007d565b806344c72102146100825780634ddf47d4146100b25780634eeb4a16146100ce575b600080fd5b61009c60048036038101906100979190612309565b610188565b6040516100a99190612351565b60405180910390f35b6100cc60048036038101906100c791906124b2565b6101c9565b005b6100e860048036038101906100e39190612309565b6101cc565b6040516100f59190612351565b60405180910390f35b61011860048036038101906101139190612309565b61026e565b604051610125919061250a565b60405180910390f35b6101366102d7565b6040516101449291906126ab565b60405180910390f35b610167600480360381019061016291906124b2565b61048a565b005b6101716105d9565b60405161017f9291906126ab565b60405180910390f35b60008073ffffffffffffffffffffffffffffffffffffffff166101aa8361026e565b73ffffffffffffffffffffffffffffffffffffffff1614159050919050565b50565b600061026782600180548060200260200160405190810160405280929190818152602001828054801561025457602002820191906000526020600020905b8160009054906101000a900473ffffffffffffffffffffffffffffffffffffffff1673ffffffffffffffffffffffffffffffffffffffff168152602001906001019080831161020a575b505050505061079090919063ffffffff16565b9050919050565b6000600260008373ffffffffffffffffffffffffffffffffffffffff1673ffffffffffffffffffffffffffffffffffffffff16815260200190815260200160002060009054906101000a900473ffffffffffffffffffffffffffffffffffffffff169050919050565b606080600180548060200260200160405190810160405280929190818152602001828054801561035c57602002820191906000526020600020905b8160009054906101000a900473ffffffffffffffffffffffffffffffffffffffff1673ffffffffffffffffffffffffffffffffffffffff1681526020019060010190808311610312575b5050505050915060018054905067ffffffffffffffff81111561038257610381612387565b5b6040519080825280602002602001820160405280156103b05781602001602082028036833780820191505090505b50905060005b8251811015610485578281815181106103d2576103d16126e2565b5b602002602001015173ffffffffffffffffffffffffffffffffffffffff166370a08231306040518263ffffffff1660e01b8152600401610412919061250a565b602060405180830381865afa15801561042f573d6000803e3d6000fd5b505050506040513d601f19601f82011682018060405250810190610453919061273d565b828281518110610466576104656126e2565b5b602002602001018181525050808061047d90612799565b9150506103b6565b509091565b600080828060200190518101906104a1919061287b565b91509150600060058111156104b9576104b86128d7565b5b82036104cd576104c881610813565b6105d4565b600160058111156104e1576104e06128d7565b5b82036104f5576104f081610b48565b6105d3565b60026005811115610509576105086128d7565b5b820361051d5761051881610f9d565b6105d2565b60036005811115610531576105306128d7565b5b820361054557610540816113e2565b6105d1565b60046005811115610559576105586128d7565b5b820361056d5761056881611886565b6105d0565b6005808111156105805761057f6128d7565b5b82036105945761058f81611996565b6105cf565b6040517f08c379a00000000000000000000000000000000000000000000000000000000081526004016105c690612989565b60405180910390fd5b5b5b5b5b5b505050565b606080600080548060200260200160405190810160405280929190818152602001828054801561065e57602002820191906000526020600020905b8160009054906101000a900473ffffffffffffffffffffffffffffffffffffffff1673ffffffffffffffffffffffffffffffffffffffff1681526020019060010190808311610614575b50505050509150815167ffffffffffffffff8111156106805761067f612387565b5b6040519080825280602002602001820160405280156106ae5781602001602082028036833780820191505090505b50905060005b825181101561078b576106e08382815181106106d3576106d26126e2565b5b602002602001015161026e565b73ffffffffffffffffffffffffffffffffffffffff166370a08231306040518263ffffffff1660e01b8152600401610718919061250a565b602060405180830381865afa158015610735573d6000803e3d6000fd5b505050506040513d601f19601f82011682018060405250810190610759919061273d565b82828151811061076c5761076b6126e2565b5b602002602001018181525050808061078390612799565b9150506106b4565b509091565b6000805b8351811015610807578381815181106107b0576107af6126e2565b5b602002602001015173ffffffffffffffffffffffffffffffffffffffff168373ffffffffffffffffffffffffffffffffffffffff16036107f457600191505061080d565b80806107ff90612799565b915050610794565b50600090505b92915050565b600080600061082184611aac565b92509250925060007f000000000000000000000000000000000000000000000000000000000000000073ffffffffffffffffffffffffffffffffffffffff1663026b1d5f6040518163ffffffff1660e01b8152600401602060405180830381865afa158015610894573d6000803e3d6000fd5b505050506040513d601f19601f820116820180604052508101906108b891906129be565b905060005b8451811015610b40578215610a2b5760008582815181106108e1576108e06126e2565b5b602002602001015173ffffffffffffffffffffffffffffffffffffffff1663b16a19de6040518163ffffffff1660e01b8152600401602060405180830381865afa158015610933573d6000803e3d6000fd5b505050506040513d601f19601f8201168201806040525081019061095791906129be565b905061097e8184878581518110610971576109706126e2565b5b6020026020010151611ad2565b8273ffffffffffffffffffffffffffffffffffffffff1663617ba037828785815181106109ae576109ad6126e2565b5b6020026020010151307f00000000000000000000000000000000000000000000000000000000000000006040518563ffffffff1660e01b81526004016109f79493929190612a17565b600060405180830381600087803b158015610a1157600080fd5b505af1158015610a25573d6000803e3d6000fd5b50505050505b610a4e858281518110610a4157610a406126e2565b5b60200260200101516101cc565b610b2d576001858281518110610a6757610a666126e2565b5b60200260200101519080600181540180825580915050600190039060005260206000200160009091909190916101000a81548173ffffffffffffffffffffffffffffffffffffffff021916908373ffffffffffffffffffffffffffffffffffffffff160217905550848181518110610ae257610ae16126e2565b5b602002602001015173ffffffffffffffffffffffffffffffffffffffff167f0c7515883121475b5d9289febf21a9de4ad53f18349a856d90c7acd6e099600b60405160405180910390a25b8080610b3890612799565b9150506108bd565b505050505050565b6000806000610b5684611be2565b92509250925060007f000000000000000000000000000000000000000000000000000000000000000073ffffffffffffffffffffffffffffffffffffffff1663026b1d5f6040518163ffffffff1660e01b8152600401602060405180830381865afa158015610bc9573d6000803e3d6000fd5b505050506040513d601f19601f82011682018060405250810190610bed91906129be565b905060005b8451811015610f9557610c1e858281518110610c1157610c106126e2565b5b60200260200101516101cc565b610c5d576040517f08c379a0000000000000000000000000000000000000000000000000000000008152600401610c5490612ace565b60405180910390fd5b6000858281518110610c7257610c716126e2565b5b602002602001015173ffffffffffffffffffffffffffffffffffffffff166370a08231306040518263ffffffff1660e01b8152600401610cb2919061250a565b602060405180830381865afa158015610ccf573d6000803e3d6000fd5b505050506040513d601f19601f82011682018060405250810190610cf3919061273d565b90507fffffffffffffffffffffffffffffffffffffffffffffffffffffffffffffffff858381518110610d2957610d286126e2565b5b602002602001015103610d575780858381518110610d4a57610d496126e2565b5b6020026020010181815250505b80858381518110610d6b57610d6a6126e2565b5b602002602001015103610e0557610da6868381518110610d8e57610d8d6126e2565b5b60200260200101516001611c0890919063ffffffff16565b50858281518110610dba57610db96126e2565b5b602002602001015173ffffffffffffffffffffffffffffffffffffffff167f4336391ada1af9dcb966fed43ebafa4404719b6d8e42c765ab28e3abc9a24e7a60405160405180910390a25b8315610f21578273ffffffffffffffffffffffffffffffffffffffff166369328dec878481518110610e3a57610e396126e2565b5b602002602001015173ffffffffffffffffffffffffffffffffffffffff1663b16a19de6040518163ffffffff1660e01b8152600401602060405180830381865afa158015610e8c573d6000803e3d6000fd5b505050506040513d601f19601f82011682018060405250810190610eb091906129be565b878581518110610ec357610ec26126e2565b5b6020026020010151336040518463ffffffff1660e01b8152600401610eea93929190612aee565b600060405180830381600087803b158015610f0457600080fd5b505af1158015610f18573d6000803e3d6000fd5b50505050610f81565b610f8033868481518110610f3857610f376126e2565b5b6020026020010151888581518110610f5357610f526126e2565b5b602002602001015173ffffffffffffffffffffffffffffffffffffffff16611db19092919063ffffffff16565b5b508080610f8d90612799565b915050610bf2565b505050505050565b600080610fa983611e37565b9150915060007f000000000000000000000000000000000000000000000000000000000000000073ffffffffffffffffffffffffffffffffffffffff1663026b1d5f6040518163ffffffff1660e01b8152600401602060405180830381865afa15801561101a573d6000803e3d6000fd5b505050506040513d601f19601f8201168201806040525081019061103e91906129be565b905060005b83518110156113db578173ffffffffffffffffffffffffffffffffffffffff1663a415bcad85838151811061107b5761107a6126e2565b5b6020026020010151858481518110611096576110956126e2565b5b602002602001015160027f0000000000000000000000000000000000000000000000000000000000000000306040518663ffffffff1660e01b81526004016110e2959493929190612b25565b600060405180830381600087803b1580156110fc57600080fd5b505af1158015611110573d6000803e3d6000fd5b505050506111733384838151811061112b5761112a6126e2565b5b6020026020010151868481518110611146576111456126e2565b5b602002602001015173ffffffffffffffffffffffffffffffffffffffff16611db19092919063ffffffff16565b611196848281518110611189576111886126e2565b5b6020026020010151610188565b6113c85760007f000000000000000000000000000000000000000000000000000000000000000073ffffffffffffffffffffffffffffffffffffffff1663d2493b6c8684815181106111eb576111ea6126e2565b5b60200260200101516040518263ffffffff1660e01b815260040161120f919061250a565b606060405180830381865afa15801561122c573d6000803e3d6000fd5b505050506040513d601f19601f820116820180604052508101906112509190612b78565b92505050806002600087858151811061126c5761126b6126e2565b5b602002602001015173ffffffffffffffffffffffffffffffffffffffff1673ffffffffffffffffffffffffffffffffffffffff16815260200190815260200160002060006101000a81548173ffffffffffffffffffffffffffffffffffffffff021916908373ffffffffffffffffffffffffffffffffffffffff1602179055506000858381518110611301576113006126e2565b5b60200260200101519080600181540180825580915050600190039060005260206000200160009091909190916101000a81548173ffffffffffffffffffffffffffffffffffffffff021916908373ffffffffffffffffffffffffffffffffffffffff16021790555084828151811061137c5761137b6126e2565b5b602002602001015173ffffffffffffffffffffffffffffffffffffffff167f97f7fb70b87eb9080ffe33222b1b155c19088727253265871a270021c9b3ecad60405160405180910390a2505b80806113d390612799565b915050611043565b5050505050565b6000806113ee83611e57565b9150915060007f000000000000000000000000000000000000000000000000000000000000000073ffffffffffffffffffffffffffffffffffffffff1663026b1d5f6040518163ffffffff1660e01b8152600401602060405180830381865afa15801561145f573d6000803e3d6000fd5b505050506040513d601f19601f8201168201806040525081019061148391906129be565b905060005b835181101561187f576114b48482815181106114a7576114a66126e2565b5b6020026020010151610188565b6114f3576040517f08c379a00000000000000000000000000000000000000000000000000000000081526004016114ea90612c3d565b60405180910390fd5b611532848281518110611509576115086126e2565b5b602002602001015183858481518110611525576115246126e2565b5b6020026020010151611ad2565b8173ffffffffffffffffffffffffffffffffffffffff1663573ade81858381518110611561576115606126e2565b5b602002602001015185848151811061157c5761157b6126e2565b5b60200260200101516002306040518563ffffffff1660e01b81526004016115a69493929190612c5d565b600060405180830381600087803b1580156115c057600080fd5b505af11580156115d4573d6000803e3d6000fd5b5050505060008482815181106115ed576115ec6126e2565b5b602002602001015173ffffffffffffffffffffffffffffffffffffffff166370a08231306040518263ffffffff1660e01b815260040161162d919061250a565b602060405180830381865afa15801561164a573d6000803e3d6000fd5b505050506040513d601f19601f8201168201806040525081019061166e919061273d565b905060008111156116bf576116be3382878581518110611691576116906126e2565b5b602002602001015173ffffffffffffffffffffffffffffffffffffffff16611db19092919063ffffffff16565b5b60006116e48684815181106116d7576116d66126e2565b5b602002602001015161026e565b73ffffffffffffffffffffffffffffffffffffffff166370a08231306040518263ffffffff1660e01b815260040161171c919061250a565b602060405180830381865afa158015611739573d6000803e3d6000fd5b505050506040513d601f19601f8201168201806040525081019061175d919061273d565b0361186b5760026000868481518110611779576117786126e2565b5b602002602001015173ffffffffffffffffffffffffffffffffffffffff1673ffffffffffffffffffffffffffffffffffffffff16815260200190815260200160002060006101000a81549073ffffffffffffffffffffffffffffffffffffffff021916905561180c8583815181106117f4576117f36126e2565b5b60200260200101516000611c0890919063ffffffff16565b508482815181106118205761181f6126e2565b5b602002602001015173ffffffffffffffffffffffffffffffffffffffff167fe826be1b7ceed778b8cb93dde171ee088cbddd7b16b9ebbe726a019988eb5fc060405160405180910390a25b50808061187790612799565b915050611488565b5050505050565b600061189182611e77565b905060007f000000000000000000000000000000000000000000000000000000000000000073ffffffffffffffffffffffffffffffffffffffff1663026b1d5f6040518163ffffffff1660e01b8152600401602060405180830381865afa158015611900573d6000803e3d6000fd5b505050506040513d601f19601f8201168201806040525081019061192491906129be565b90508073ffffffffffffffffffffffffffffffffffffffff166328530a47836040518263ffffffff1660e01b815260040161195f9190612cbe565b600060405180830381600087803b15801561197957600080fd5b505af115801561198d573d6000803e3d6000fd5b50505050505050565b6000806119a283611e94565b9150915060007f000000000000000000000000000000000000000000000000000000000000000073ffffffffffffffffffffffffffffffffffffffff1663026b1d5f6040518163ffffffff1660e01b8152600401602060405180830381865afa158015611a13573d6000803e3d6000fd5b505050506040513d601f19601f82011682018060405250810190611a3791906129be565b90508073ffffffffffffffffffffffffffffffffffffffff16635a3b74b984846040518363ffffffff1660e01b8152600401611a74929190612cd9565b600060405180830381600087803b158015611a8e57600080fd5b505af1158015611aa2573d6000803e3d6000fd5b5050505050505050565b606080600083806020019051810190611ac59190612eb9565b9250925092509193909250565b60008373ffffffffffffffffffffffffffffffffffffffff1663dd62ed3e30856040518363ffffffff1660e01b8152600401611b0f929190612f44565b602060405180830381865afa158015611b2c573d6000803e3d6000fd5b505050506040513d601f19601f82011682018060405250810190611b50919061273d565b905081811015611bdc576000811115611b9057611b8f8360008673ffffffffffffffffffffffffffffffffffffffff16611eb49092919063ffffffff16565b5b611bdb837fffffffffffffffffffffffffffffffffffffffffffffffffffffffffffffffff8673ffffffffffffffffffffffffffffffffffffffff16611eb49092919063ffffffff16565b5b50505050565b606080600083806020019051810190611bfb9190612eb9565b9250925092509193909250565b6000808380549050905060005b81811015611da9578373ffffffffffffffffffffffffffffffffffffffff16858281548110611c4757611c466126e2565b5b9060005260206000200160009054906101000a900473ffffffffffffffffffffffffffffffffffffffff1673ffffffffffffffffffffffffffffffffffffffff1603611d9657600182611c9a9190612f6d565b811015611d475784600183611caf9190612f6d565b81548110611cc057611cbf6126e2565b5b9060005260206000200160009054906101000a900473ffffffffffffffffffffffffffffffffffffffff16858281548110611cfe57611cfd6126e2565b5b9060005260206000200160006101000a81548173ffffffffffffffffffffffffffffffffffffffff021916908373ffffffffffffffffffffffffffffffffffffffff1602179055505b84805480611d5857611d57612fa1565b5b6001900381819060005260206000200160006101000a81549073ffffffffffffffffffffffffffffffffffffffff0219169055905560019250611da9565b8080611da190612799565b915050611c15565b505092915050565b611e328363a9059cbb60e01b8484604051602401611dd0929190612fd0565b604051602081830303815290604052907bffffffffffffffffffffffffffffffffffffffffffffffffffffffff19166020820180517bffffffffffffffffffffffffffffffffffffffffffffffffffffffff8381831617835250505050612003565b505050565b60608082806020019051810190611e4e9190612ff9565b91509150915091565b60608082806020019051810190611e6e9190612ff9565b91509150915091565b600081806020019051810190611e8d919061309d565b9050919050565b60008082806020019051810190611eab9190613108565b91509150915091565b6000811480611f3e575060008373ffffffffffffffffffffffffffffffffffffffff1663dd62ed3e30856040518363ffffffff1660e01b8152600401611efb929190612f44565b602060405180830381865afa158015611f18573d6000803e3d6000fd5b505050506040513d601f19601f82011682018060405250810190611f3c919061273d565b145b611f7d576040517f08c379a0000000000000000000000000000000000000000000000000000000008152600401611f74906131ba565b60405180910390fd5b611ffe8363095ea7b360e01b8484604051602401611f9c929190612fd0565b604051602081830303815290604052907bffffffffffffffffffffffffffffffffffffffffffffffffffffffff19166020820180517bffffffffffffffffffffffffffffffffffffffffffffffffffffffff8381831617835250505050612003565b505050565b6000612065826040518060400160405280602081526020017f5361666545524332303a206c6f772d6c6576656c2063616c6c206661696c65648152508573ffffffffffffffffffffffffffffffffffffffff166120ca9092919063ffffffff16565b90506000815111156120c5578080602001905181019061208591906131da565b6120c4576040517f08c379a00000000000000000000000000000000000000000000000000000000081526004016120bb90613279565b60405180910390fd5b5b505050565b60606120d984846000856120e2565b90509392505050565b606082471015612127576040517f08c379a000000000000000000000000000000000000000000000000000000000815260040161211e9061330b565b60405180910390fd5b6000808673ffffffffffffffffffffffffffffffffffffffff1685876040516121509190613372565b60006040518083038185875af1925050503d806000811461218d576040519150601f19603f3d011682016040523d82523d6000602084013e612192565b606091505b50915091506121a3878383876121af565b92505050949350505050565b60608315612211576000835103612209576121c985612224565b612208576040517f08c379a00000000000000000000000000000000000000000000000000000000081526004016121ff906133d5565b60405180910390fd5b5b82905061221c565b61221b8383612247565b5b949350505050565b6000808273ffffffffffffffffffffffffffffffffffffffff163b119050919050565b60008251111561225a5781518083602001fd5b806040517f08c379a000000000000000000000000000000000000000000000000000000000815260040161228e9190613439565b60405180910390fd5b6000604051905090565b600080fd5b600080fd5b600073ffffffffffffffffffffffffffffffffffffffff82169050919050565b60006122d6826122ab565b9050919050565b6122e6816122cb565b81146122f157600080fd5b50565b600081359050612303816122dd565b92915050565b60006020828403121561231f5761231e6122a1565b5b600061232d848285016122f4565b91505092915050565b60008115159050919050565b61234b81612336565b82525050565b60006020820190506123666000830184612342565b92915050565b600080fd5b600080fd5b6000601f19601f8301169050919050565b7f4e487b7100000000000000000000000000000000000000000000000000000000600052604160045260246000fd5b6123bf82612376565b810181811067ffffffffffffffff821117156123de576123dd612387565b5b80604052505050565b60006123f1612297565b90506123fd82826123b6565b919050565b600067ffffffffffffffff82111561241d5761241c612387565b5b61242682612376565b9050602081019050919050565b82818337600083830152505050565b600061245561245084612402565b6123e7565b90508281526020810184848401111561247157612470612371565b5b61247c848285612433565b509392505050565b600082601f8301126124995761249861236c565b5b81356124a9848260208601612442565b91505092915050565b6000602082840312156124c8576124c76122a1565b5b600082013567ffffffffffffffff8111156124e6576124e56122a6565b5b6124f284828501612484565b91505092915050565b612504816122cb565b82525050565b600060208201905061251f60008301846124fb565b92915050565b600081519050919050565b600082825260208201905092915050565b6000819050602082019050919050565b61255a816122cb565b82525050565b600061256c8383612551565b60208301905092915050565b6000602082019050919050565b600061259082612525565b61259a8185612530565b93506125a583612541565b8060005b838110156125d65781516125bd8882612560565b97506125c883612578565b9250506001810190506125a9565b5085935050505092915050565b600081519050919050565b600082825260208201905092915050565b6000819050602082019050919050565b6000819050919050565b6126228161260f565b82525050565b60006126348383612619565b60208301905092915050565b6000602082019050919050565b6000612658826125e3565b61266281856125ee565b935061266d836125ff565b8060005b8381101561269e5781516126858882612628565b975061269083612640565b925050600181019050612671565b5085935050505092915050565b600060408201905081810360008301526126c58185612585565b905081810360208301526126d9818461264d565b90509392505050565b7f4e487b7100000000000000000000000000000000000000000000000000000000600052603260045260246000fd5b61271a8161260f565b811461272557600080fd5b50565b60008151905061273781612711565b92915050565b600060208284031215612753576127526122a1565b5b600061276184828501612728565b91505092915050565b7f4e487b7100000000000000000000000000000000000000000000000000000000600052601160045260246000fd5b60006127a48261260f565b91507fffffffffffffffffffffffffffffffffffffffffffffffffffffffffffffffff82036127d6576127d561276a565b5b600182019050919050565b60005b838110156127ff5780820151818401526020810190506127e4565b60008484015250505050565b600061281e61281984612402565b6123e7565b90508281526020810184848401111561283a57612839612371565b5b6128458482856127e1565b509392505050565b600082601f8301126128625761286161236c565b5b815161287284826020860161280b565b91505092915050565b60008060408385031215612892576128916122a1565b5b60006128a085828601612728565b925050602083015167ffffffffffffffff8111156128c1576128c06122a6565b5b6128cd8582860161284d565b9150509250929050565b7f4e487b7100000000000000000000000000000000000000000000000000000000600052602160045260246000fd5b600082825260208201905092915050565b7f7265636569766543616c6c46726f6d5661756c743a20496e76616c696420616360008201527f74696f6e49640000000000000000000000000000000000000000000000000000602082015250565b6000612973602683612906565b915061297e82612917565b604082019050919050565b600060208201905081810360008301526129a281612966565b9050919050565b6000815190506129b8816122dd565b92915050565b6000602082840312156129d4576129d36122a1565b5b60006129e2848285016129a9565b91505092915050565b6129f48161260f565b82525050565b600061ffff82169050919050565b612a11816129fa565b82525050565b6000608082019050612a2c60008301876124fb565b612a3960208301866129eb565b612a4660408301856124fb565b612a536060830184612a08565b95945050505050565b7f5f5f72656d6f7665436f6c6c61746572616c4173736574733a20496e76616c6960008201527f6420636f6c6c61746572616c2061737365740000000000000000000000000000602082015250565b6000612ab8603283612906565b9150612ac382612a5c565b604082019050919050565b60006020820190508181036000830152612ae781612aab565b9050919050565b6000606082019050612b0360008301866124fb565b612b1060208301856129eb565b612b1d60408301846124fb565b949350505050565b600060a082019050612b3a60008301886124fb565b612b4760208301876129eb565b612b5460408301866129eb565b612b616060830185612a08565b612b6e60808301846124fb565b9695505050505050565b600080600060608486031215612b9157612b906122a1565b5b6000612b9f868287016129a9565b9350506020612bb0868287016129a9565b9250506040612bc1868287016129a9565b9150509250925092565b7f5f5f7265706179426f72726f7765644173736574733a20496e76616c6964206260008201527f6f72726f77656420617373657400000000000000000000000000000000000000602082015250565b6000612c27602d83612906565b9150612c3282612bcb565b604082019050919050565b60006020820190508181036000830152612c5681612c1a565b9050919050565b6000608082019050612c7260008301876124fb565b612c7f60208301866129eb565b612c8c60408301856129eb565b612c9960608301846124fb565b95945050505050565b600060ff82169050919050565b612cb881612ca2565b82525050565b6000602082019050612cd36000830184612caf565b92915050565b6000604082019050612cee60008301856124fb565b612cfb6020830184612342565b9392505050565b600067ffffffffffffffff821115612d1d57612d1c612387565b5b602082029050602081019050919050565b600080fd5b6000612d46612d4184612d02565b6123e7565b90508083825260208201905060208402830185811115612d6957612d68612d2e565b5b835b81811015612d925780612d7e88826129a9565b845260208401935050602081019050612d6b565b5050509392505050565b600082601f830112612db157612db061236c565b5b8151612dc1848260208601612d33565b91505092915050565b600067ffffffffffffffff821115612de557612de4612387565b5b602082029050602081019050919050565b6000612e09612e0484612dca565b6123e7565b90508083825260208201905060208402830185811115612e2c57612e2b612d2e565b5b835b81811015612e555780612e418882612728565b845260208401935050602081019050612e2e565b5050509392505050565b600082601f830112612e7457612e7361236c565b5b8151612e84848260208601612df6565b91505092915050565b612e9681612336565b8114612ea157600080fd5b50565b600081519050612eb381612e8d565b92915050565b600080600060608486031215612ed257612ed16122a1565b5b600084015167ffffffffffffffff811115612ef057612eef6122a6565b5b612efc86828701612d9c565b935050602084015167ffffffffffffffff811115612f1d57612f1c6122a6565b5b612f2986828701612e5f565b9250506040612f3a86828701612ea4565b9150509250925092565b6000604082019050612f5960008301856124fb565b612f6660208301846124fb565b9392505050565b6000612f788261260f565b9150612f838361260f565b9250828203905081811115612f9b57612f9a61276a565b5b92915050565b7f4e487b7100000000000000000000000000000000000000000000000000000000600052603160045260246000fd5b6000604082019050612fe560008301856124fb565b612ff260208301846129eb565b9392505050565b600080604083850312156130105761300f6122a1565b5b600083015167ffffffffffffffff81111561302e5761302d6122a6565b5b61303a85828601612d9c565b925050602083015167ffffffffffffffff81111561305b5761305a6122a6565b5b61306785828601612e5f565b9150509250929050565b61307a81612ca2565b811461308557600080fd5b50565b60008151905061309781613071565b92915050565b6000602082840312156130b3576130b26122a1565b5b60006130c184828501613088565b91505092915050565b60006130d5826122ab565b9050919050565b6130e5816130ca565b81146130f057600080fd5b50565b600081519050613102816130dc565b92915050565b6000806040838503121561311f5761311e6122a1565b5b600061312d858286016130f3565b925050602061313e85828601612ea4565b9150509250929050565b7f5361666545524332303a20617070726f76652066726f6d206e6f6e2d7a65726f60008201527f20746f206e6f6e2d7a65726f20616c6c6f77616e636500000000000000000000602082015250565b60006131a4603683612906565b91506131af82613148565b604082019050919050565b600060208201905081810360008301526131d381613197565b9050919050565b6000602082840312156131f0576131ef6122a1565b5b60006131fe84828501612ea4565b91505092915050565b7f5361666545524332303a204552433230206f7065726174696f6e20646964206e60008201527f6f74207375636365656400000000000000000000000000000000000000000000602082015250565b6000613263602a83612906565b915061326e82613207565b604082019050919050565b6000602082019050818103600083015261329281613256565b9050919050565b7f416464726573733a20696e73756666696369656e742062616c616e636520666f60008201527f722063616c6c0000000000000000000000000000000000000000000000000000602082015250565b60006132f5602683612906565b915061330082613299565b604082019050919050565b60006020820190508181036000830152613324816132e8565b9050919050565b600081519050919050565b600081905092915050565b600061334c8261332b565b6133568185613336565b93506133668185602086016127e1565b80840191505092915050565b600061337e8284613341565b915081905092915050565b7f416464726573733a2063616c6c20746f206e6f6e2d636f6e7472616374000000600082015250565b60006133bf601d83612906565b91506133ca82613389565b602082019050919050565b600060208201905081810360008301526133ee816133b2565b9050919050565b600081519050919050565b600061340b826133f5565b6134158185612906565b93506134258185602086016127e1565b61342e81612376565b840191505092915050565b600060208201905081810360008301526134538184613400565b90509291505056","linkReferences":{}},"methodIdentifiers":{"assetIsBorrowed(address)":"44c72102","assetIsCollateral(address)":"4eeb4a16","getDebtAssets()":"ecd658b4","getDebtTokenForBorrowedAsset(address)":"66b4c5d1","getManagedAssets()":"80daddb8","init(bytes)":"4ddf47d4","receiveCallFromVault(bytes)":"e5c23a97"},"id":44}