{"abi":[{"type":"constructor","inputs":[{"name":"_fundDeployerV4","type":"address","internalType":"address"}],"stateMutability":"nonpayable"},{"type":"function","name":"formatDepositCall","inputs":[{"name":"_vaultProxy","type":"address","internalType":"address"},{"name":"_depositAsset","type":"address","internalType":"address"},{"name":"_depositAssetAmount","type":"uint256","internalType":"uint256"}],"outputs":[{"name":"target_","type":"address","internalType":"address"},{"name":"payload_","type":"bytes","internalType":"bytes"}],"stateMutability":"view"},{"type":"function","name":"formatSingleAssetRedemptionCall","inputs":[{"name":"_vaultProxy","type":"address","internalType":"address"},{"name":"_recipient","type":"address","internalType":"address"},{"name":"_asset","type":"address","internalType":"address"},{"name":"_amount","type":"uint256","internalType":"uint256"},{"name":"_amountIsShares","type":"bool","internalType":"bool"}],"outputs":[{"name":"target_","type":"address","internalType":"address"},{"name":"payload_","type":"bytes","internalType":"bytes"}],"stateMutability":"view"},{"type":"function","name":"getDispatcher","inputs":[],"outputs":[{"name":"dispatcher_","type":"address","internalType":"address"}],"stateMutability":"view"},{"type":"function","name":"getGlobalConfigLib","inputs":[],"outputs":[{"name":"globalConfigLib_","type":"address","internalType":"address"}],"stateMutability":"view"},{"type":"function","name":"init","inputs":[{"name":"_dispatcher","type":"address","internalType":"address"}],"outputs":[],"stateMutability":"nonpayable"},{"type":"function","name":"isValidRedeemSharesCall","inputs":[{"name":"_vaultProxy","type":"address","internalType":"address"},{"name":"_recipientToValidate","type":"address","internalType":"address"},{"name":"_sharesAmountToValidate","type":"uint256","internalType":"uint256"},{"name":"_redeemContract","type":"address","internalType":"address"},{"name":"_redeemSelector","type":"bytes4","internalType":"bytes4"},{"name":"_redeemData","type":"bytes","internalType":"bytes"}],"outputs":[{"name":"isValid_","type":"bool","internalType":"bool"}],"stateMutability":"view"},{"type":"function","name":"proxiableUUID","inputs":[],"outputs":[{"name":"uuid_","type":"bytes32","internalType":"bytes32"}],"stateMutability":"pure"},{"type":"function","name":"setGlobalConfigLib","inputs":[{"name":"_nextGlobalConfigLib","type":"address","internalType":"address"}],"outputs":[],"stateMutability":"nonpayable"},{"type":"event","name":"GlobalConfigLibSet","inputs":[{"name":"nextGlobalConfigLib","type":"address","indexed":false,"internalType":"address"}],"anonymous":false}],"bytecode":{"object":"0x60a060405234801561001057600080fd5b5060405161153f38038061153f8339818101604052602081101561003357600080fd5b81019080805190602001909291905050508073ffffffffffffffffffffffffffffffffffffffff1660808173ffffffffffffffffffffffffffffffffffffffff1660601b815250505060805160601c61149c6100a3600039806106445280610b955280610e80525061149c6000f3fe608060405234801561001057600080fd5b50600436106100885760003560e01c80635d4755dc1161005b5780635d4755dc146102635780637f180433146103855780639528ee1614610489578063ebb3d589146104bd57610088565b806319ab453c1461008d5780632441593c146100d157806343233f011461020157806352d1902d14610245575b600080fd5b6100cf600480360360208110156100a357600080fd5b81019080803573ffffffffffffffffffffffffffffffffffffffff1690602001909291905050506104f1565b005b610169600480360360a08110156100e757600080fd5b81019080803573ffffffffffffffffffffffffffffffffffffffff169060200190929190803573ffffffffffffffffffffffffffffffffffffffff169060200190929190803573ffffffffffffffffffffffffffffffffffffffff16906020019092919080359060200190929190803515159060200190929190505050610631565b604051808373ffffffffffffffffffffffffffffffffffffffff16815260200180602001828103825283818151815260200191508051906020019080838360005b838110156101c55780820151818401526020810190506101aa565b50505050905090810190601f1680156101f25780820380516001836020036101000a031916815260200191505b50935050505060405180910390f35b6102436004803603602081101561021757600080fd5b81019080803573ffffffffffffffffffffffffffffffffffffffff1690602001909291905050506109f6565b005b61024d610b5a565b6040518082815260200191505060405180910390f35b61036d600480360360c081101561027957600080fd5b81019080803573ffffffffffffffffffffffffffffffffffffffff169060200190929190803573ffffffffffffffffffffffffffffffffffffffff16906020019092919080359060200190929190803573ffffffffffffffffffffffffffffffffffffffff16906020019092919080357bffffffffffffffffffffffffffffffffffffffffffffffffffffffff191690602001909291908035906020019064010000000081111561032957600080fd5b82018360208201111561033b57600080fd5b8035906020019184600183028401116401000000008311171561035d57600080fd5b9091929391929390505050610b85565b60405180821515815260200191505060405180910390f35b6103f16004803603606081101561039b57600080fd5b81019080803573ffffffffffffffffffffffffffffffffffffffff169060200190929190803573ffffffffffffffffffffffffffffffffffffffff16906020019092919080359060200190929190505050610e6d565b604051808373ffffffffffffffffffffffffffffffffffffffff16815260200180602001828103825283818151815260200191508051906020019080838360005b8381101561044d578082015181840152602081019050610432565b50505050905090810190601f16801561047a5780820380516001836020036101000a031916815260200191505b50935050505060405180910390f35b61049161113f565b604051808273ffffffffffffffffffffffffffffffffffffffff16815260200191505060405180910390f35b6104c5611168565b604051808273ffffffffffffffffffffffffffffffffffffffff16815260200191505060405180910390f35b600073ffffffffffffffffffffffffffffffffffffffff16610511611168565b73ffffffffffffffffffffffffffffffffffffffff161461059a576040517f08c379a000000000000000000000000000000000000000000000000000000000815260040180806020018281038252601f8152602001807f696e69743a2050726f787920616c726561647920696e697469616c697a65640081525060200191505060405180910390fd5b806000806101000a81548173ffffffffffffffffffffffffffffffffffffffff021916908373ffffffffffffffffffffffffffffffffffffffff1602179055507fce6de52b779ce41beea76a6e7a997211f0006af21ed2e2924caa5bdc92dac31861060361113f565b604051808273ffffffffffffffffffffffffffffffffffffffff16815260200191505060405180910390a150565b60006060600061064088611191565b90507f000000000000000000000000000000000000000000000000000000000000000073ffffffffffffffffffffffffffffffffffffffff168173ffffffffffffffffffffffffffffffffffffffff16141561099a57836106ec576040517f08c379a000000000000000000000000000000000000000000000000000000000815260040180806020018281038252603d815260200180611399603d913960400191505060405180910390fd5b8773ffffffffffffffffffffffffffffffffffffffff16635a53e3486040518163ffffffff1660e01b815260040160206040518083038186803b15801561073257600080fd5b505afa158015610746573d6000803e3d6000fd5b505050506040513d602081101561075c57600080fd5b810190808051906020019092919050505092506060600167ffffffffffffffff8111801561078957600080fd5b506040519080825280602002602001820160405280156107b85781602001602082028036833780820191505090505b50905086816000815181106107c957fe5b602002602001019073ffffffffffffffffffffffffffffffffffffffff16908173ffffffffffffffffffffffffffffffffffffffff16815250506060600167ffffffffffffffff8111801561081d57600080fd5b5060405190808252806020026020018201604052801561084c5781602001602082028036833780820191505090505b5090506127108160008151811061085f57fe5b602002602001018181525050633462fcc160e01b89888484604051602401808573ffffffffffffffffffffffffffffffffffffffff1681526020018481526020018060200180602001838103835285818151815260200191508051906020019060200280838360005b838110156108e35780820151818401526020810190506108c8565b50505050905001838103825284818151815260200191508051906020019060200280838360005b8381101561092557808201518184015260208101905061090a565b505050509050019650505050505050604051602081830303815290604052907bffffffffffffffffffffffffffffffffffffffffffffffffffffffff19166020820180517bffffffffffffffffffffffffffffffffffffffffffffffffffffffff8381831617835250505050935050506109eb565b6040517f08c379a00000000000000000000000000000000000000000000000000000000081526004018080602001828103825260348152602001806113656034913960400191505060405180910390fd5b509550959350505050565b6109fe611168565b73ffffffffffffffffffffffffffffffffffffffff1663893d20e86040518163ffffffff1660e01b815260040160206040518083038186803b158015610a4357600080fd5b505afa158015610a57573d6000803e3d6000fd5b505050506040513d6020811015610a6d57600080fd5b810190808051906020019092919050505073ffffffffffffffffffffffffffffffffffffffff163373ffffffffffffffffffffffffffffffffffffffff1614610b01576040517f08c379a000000000000000000000000000000000000000000000000000000000815260040180806020018281038252603081526020018061143a6030913960400191505060405180910390fd5b610b0a81611243565b7fce6de52b779ce41beea76a6e7a997211f0006af21ed2e2924caa5bdc92dac31881604051808273ffffffffffffffffffffffffffffffffffffffff16815260200191505060405180910390a150565b60007ff25d88d51901d7fabc9924b03f4c2fe4300e6fe1aae4b5134c0a90b68cd8e81c60001b905090565b600080610b9189611191565b90507f000000000000000000000000000000000000000000000000000000000000000073ffffffffffffffffffffffffffffffffffffffff168173ffffffffffffffffffffffffffffffffffffffff161415610e5c578873ffffffffffffffffffffffffffffffffffffffff16635a53e3486040518163ffffffff1660e01b815260040160206040518083038186803b158015610c2d57600080fd5b505afa158015610c41573d6000803e3d6000fd5b505050506040513d6020811015610c5757600080fd5b810190808051906020019092919050505073ffffffffffffffffffffffffffffffffffffffff168673ffffffffffffffffffffffffffffffffffffffff1614610ca4576000915050610e62565b633462fcc160e01b7bffffffffffffffffffffffffffffffffffffffffffffffffffffffff1916857bffffffffffffffffffffffffffffffffffffffffffffffffffffffff19161480610d3b5750636af8e7eb60e01b7bffffffffffffffffffffffffffffffffffffffffffffffffffffffff1916857bffffffffffffffffffffffffffffffffffffffffffffffffffffffff1916145b610d49576000915050610e62565b60008085856040811015610d5c57600080fd5b81019080803573ffffffffffffffffffffffffffffffffffffffff169060200190929190803590602001909291905050509150915061aaaa73ffffffffffffffffffffffffffffffffffffffff168a73ffffffffffffffffffffffffffffffffffffffff1614158015610dfb57508173ffffffffffffffffffffffffffffffffffffffff168a73ffffffffffffffffffffffffffffffffffffffff1614155b15610e0c5760009350505050610e62565b60017fffffffffffffffffffffffffffffffffffffffffffffffffffffffffffffffff038914158015610e3f5750808914155b15610e505760009350505050610e62565b60019350505050610e62565b60009150505b979650505050505050565b600060606000610e7c86611191565b90507f000000000000000000000000000000000000000000000000000000000000000073ffffffffffffffffffffffffffffffffffffffff168173ffffffffffffffffffffffffffffffffffffffff1614156110e55760008673ffffffffffffffffffffffffffffffffffffffff16635a53e3486040518163ffffffff1660e01b815260040160206040518083038186803b158015610f1a57600080fd5b505afa158015610f2e573d6000803e3d6000fd5b505050506040513d6020811015610f4457600080fd5b810190808051906020019092919050505090508073ffffffffffffffffffffffffffffffffffffffff1663e269c3d66040518163ffffffff1660e01b815260040160206040518083038186803b158015610f9d57600080fd5b505afa158015610fb1573d6000803e3d6000fd5b505050506040513d6020811015610fc757600080fd5b810190808051906020019092919050505073ffffffffffffffffffffffffffffffffffffffff168673ffffffffffffffffffffffffffffffffffffffff161461105b576040517f08c379a000000000000000000000000000000000000000000000000000000000815260040180806020018281038252602c81526020018061140e602c913960400191505060405180910390fd5b80935063beebc5da60e01b8560016040516024018083815260200182815260200192505050604051602081830303815290604052907bffffffffffffffffffffffffffffffffffffffffffffffffffffffff19166020820180517bffffffffffffffffffffffffffffffffffffffffffffffffffffffff8381831617835250505050925050611136565b6040517f08c379a000000000000000000000000000000000000000000000000000000000815260040180806020018281038252602681526020018061146a6026913960400191505060405180910390fd5b50935093915050565b60007f360894a13ba1a3210667c828492db98dca3e2076cc3735a920a3ca505d382bbc54905090565b60008060009054906101000a900473ffffffffffffffffffffffffffffffffffffffff16905090565b600061119b611168565b73ffffffffffffffffffffffffffffffffffffffff16633d7c74f8836040518263ffffffff1660e01b8152600401808273ffffffffffffffffffffffffffffffffffffffff16815260200191505060206040518083038186803b15801561120157600080fd5b505afa158015611215573d6000803e3d6000fd5b505050506040513d602081101561122b57600080fd5b81019080805190602001909291905050509050919050565b7ff25d88d51901d7fabc9924b03f4c2fe4300e6fe1aae4b5134c0a90b68cd8e81c60001b8173ffffffffffffffffffffffffffffffffffffffff166352d1902d6040518163ffffffff1660e01b815260040160206040518083038186803b1580156112ad57600080fd5b505afa1580156112c1573d6000803e3d6000fd5b505050506040513d60208110156112d757600080fd5b81019080805190602001909291905050501461133e576040517f08c379a00000000000000000000000000000000000000000000000000000000081526004018080602001828103825260388152602001806113d66038913960400191505060405180910390fd5b807f360894a13ba1a3210667c828492db98dca3e2076cc3735a920a3ca505d382bbc555056fe666f726d617453696e676c654173736574526564656d7074696f6e43616c6c3a20556e737570706f727465642072656c65617365666f726d617453696e676c654173736574526564656d7074696f6e43616c6c3a205f616d6f756e744973536861726573206d75737420626520747275655f5f757064617465436f6465416464726573733a205f6e657874476c6f62616c436f6e6669674c6962206e6f7420636f6d70617469626c65666f726d61744465706f73697443616c6c3a20556e737570706f72746564205f6465706f73697441737365744f6e6c79207468652044697370617463686572206f776e65722063616e2063616c6c20746869732066756e6374696f6e666f726d61744465706f73697443616c6c3a20556e737570706f727465642072656c65617365a164736f6c634300060c000a","linkReferences":{}},"methodIdentifiers":{"formatDepositCall(address,address,uint256)":"7f180433","formatSingleAssetRedemptionCall(address,address,address,uint256,bool)":"2441593c","getDispatcher()":"ebb3d589","getGlobalConfigLib()":"9528ee16","init(address)":"19ab453c","isValidRedeemSharesCall(address,address,uint256,address,bytes4,bytes)":"5d4755dc","proxiableUUID()":"52d1902d","setGlobalConfigLib(address)":"43233f01"},"id":88}