{"abi":[{"type":"constructor","inputs":[{"name":"_aliceOrderManagerAddress","type":"address","internalType":"address"},{"name":"_wrappedNativeAssetAddress","type":"address","internalType":"address"}],"stateMutability":"nonpayable"},{"type":"function","name":"getDebtAssets","inputs":[],"outputs":[{"name":"assets_","type":"address[]","internalType":"address[]"},{"name":"amounts_","type":"uint256[]","internalType":"uint256[]"}],"stateMutability":"view"},{"type":"function","name":"getManagedAssets","inputs":[],"outputs":[{"name":"assets_","type":"address[]","internalType":"address[]"},{"name":"amounts_","type":"uint256[]","internalType":"uint256[]"}],"stateMutability":"view"},{"type":"function","name":"getOrderDetails","inputs":[{"name":"_orderId","type":"uint256","internalType":"uint256"}],"outputs":[{"name":"orderDetails_","type":"tuple","internalType":"struct AlicePositionLibBase1.OrderDetails","components":[{"name":"outgoingAssetAddress","type":"address","internalType":"address"},{"name":"incomingAssetAddress","type":"address","internalType":"address"},{"name":"outgoingAmount","type":"uint256","internalType":"uint256"}]}],"stateMutability":"view"},{"type":"function","name":"getOrderIds","inputs":[],"outputs":[{"name":"orderIds_","type":"uint256[]","internalType":"uint256[]"}],"stateMutability":"view"},{"type":"function","name":"init","inputs":[{"name":"","type":"bytes","internalType":"bytes"}],"outputs":[],"stateMutability":"nonpayable"},{"type":"function","name":"receiveCallFromVault","inputs":[{"name":"_actionData","type":"bytes","internalType":"bytes"}],"outputs":[],"stateMutability":"nonpayable"},{"type":"event","name":"OrderIdAdded","inputs":[{"name":"orderId","type":"uint256","indexed":true,"internalType":"uint256"},{"name":"orderDetails","type":"tuple","indexed":false,"internalType":"struct AlicePositionLibBase1.OrderDetails","components":[{"name":"outgoingAssetAddress","type":"address","internalType":"address"},{"name":"incomingAssetAddress","type":"address","internalType":"address"},{"name":"outgoingAmount","type":"uint256","internalType":"uint256"}]}],"anonymous":false},{"type":"event","name":"OrderIdRemoved","inputs":[{"name":"orderId","type":"uint256","indexed":true,"internalType":"uint256"}],"anonymous":false},{"type":"error","name":"InvalidActionId","inputs":[]},{"type":"error","name":"OrderNotSettledOrCancelled","inputs":[]}],"bytecode":{"object":"0x60c06040523480156200001157600080fd5b5060405162001e1e38038062001e1e833981016040819052620000349162000069565b6001600160a01b039182166080521660a052620000a1565b80516001600160a01b03811681146200006457600080fd5b919050565b600080604083850312156200007d57600080fd5b62000088836200004c565b915062000098602084016200004c565b90509250929050565b60805160a051611d2d620000f1600039600081816101c50152610aa9015260008181610469015281816109ce01528181610b2801528181610b8d01528181610d7f0152610ef40152611d2d6000f3fe608060405234801561001057600080fd5b50600436106100625760003560e01c80634ddf47d41461006757806380daddb81461007a5780639e0acf8f14610099578063e5c23a97146100ae578063ec7dd7bb146100c1578063ecd658b414610104575b600080fd5b6100786100753660046117f4565b50565b005b61008261010c565b6040516100909291906118af565b60405180910390f35b6100a1610333565b604051610090919061190f565b6100786100bc3660046117f4565b61038b565b6100d46100cf366004611922565b6103f5565b6040805182516001600160a01b039081168252602080850151909116908201529181015190820152606001610090565b606080610082565b6060806000610119610333565b9050606060005b825181101561021d57600061014d8483815181106101405761014061193b565b60200260200101516103f5565b905060006101738584815181106101665761016661193b565b6020026020010151610450565b905080156101a85781516101889085906104ee565b93506101a18260200151856104ee90919063ffffffff16565b9350610208565b81516101ec906001600160a01b0316156101c35782516101e5565b7f00000000000000000000000000000000000000000000000000000000000000005b8890610519565b965061020582604001518761060a90919063ffffffff16565b95505b5050808061021590611967565b915050610120565b5060005b815181101561031e57600082828151811061023e5761023e61193b565b602002602001015190506000806001600160a01b0316826001600160a01b0316146102d0576040516370a0823160e01b81523060048201526001600160a01b038316906370a0823190602401602060405180830381865afa1580156102a7573d6000803e3d6000fd5b505050506040513d601f19601f820116820180604052508101906102cb9190611980565b6102d2565b475b9050806000036102e357505061030c565b6102fb6001600160a01b038316156101c357826101e5565b9650610307868261060a565b955050505b8061031681611967565b915050610221565b5061032984846106da565b9350935050509091565b6060600080548060200260200160405190810160405280929190818152602001828054801561038157602002820191906000526020600020905b81548152602001906001019080831161036d575b5050505050905090565b600080828060200190518101906103a291906119bd565b9092509050816103ba576103b58161098f565b505050565b600282036103cb576103b581610c34565b600182036103dc576103b581610ce4565b60405163703469d160e11b815260040160405180910390fd5b6040805160608082018352600080835260208084018290529284018190529384526001808352938390208351918201845280546001600160a01b03908116835294810154909416918101919091526002909201549082015290565b604051635cf86b4760e11b8152600481018290526000907f00000000000000000000000000000000000000000000000000000000000000006001600160a01b03169063b9f0d68e90602401602060405180830381865afa9250505080156104d4575060408051601f3d908101601f191682019092526104d191810190611980565b60015b6104e057506001919050565b50600092915050565b919050565b60606104fa8383610e80565b15610506575081610513565b6105108383610519565b90505b92915050565b6060825160016105299190611a40565b67ffffffffffffffff81111561054157610541611739565b60405190808252806020026020018201604052801561056a578160200160208202803683370190505b50905060005b83518110156105cf5783818151811061058b5761058b61193b565b60200260200101518282815181106105a5576105a561193b565b6001600160a01b0390921660209283029190910190910152806105c781611967565b915050610570565b5081818451815181106105e4576105e461193b565b60200260200101906001600160a01b031690816001600160a01b03168152505092915050565b60608251600161061a9190611a40565b67ffffffffffffffff81111561063257610632611739565b60405190808252806020026020018201604052801561065b578160200160208202803683370190505b50905060005b83518110156106b35783818151811061067c5761067c61193b565b60200260200101518282815181106106965761069661193b565b6020908102919091010152806106ab81611967565b915050610661565b5081818451815181106106c8576106c861193b565b60200260200101818152505092915050565b606080835160000315610988576001805b855181101561078d576000805b82811015610766578781815181106107125761071261193b565b60200260200101516001600160a01b03168884815181106107355761073561193b565b60200260200101516001600160a01b0316036107545760019150610766565b8061075e81611967565b9150506106f8565b508061077a578261077681611967565b9350505b508061078581611967565b9150506106eb565b508067ffffffffffffffff8111156107a7576107a7611739565b6040519080825280602002602001820160405280156107d0578160200160208202803683370190505b5092508067ffffffffffffffff8111156107ec576107ec611739565b604051908082528060200260200182016040528015610815578160200160208202803683370190505b5091506000805b8651811015610984576000805b838110156108da578681815181106108435761084361193b565b60200260200101516001600160a01b03168984815181106108665761086661193b565b60200260200101516001600160a01b0316036108c857600191508783815181106108925761089261193b565b60200260200101518682815181106108ac576108ac61193b565b602002602001018181516108c09190611a40565b9052506108da565b806108d281611967565b915050610829565b5080610971578782815181106108f2576108f261193b565b602002602001015186848151811061090c5761090c61193b565b60200260200101906001600160a01b031690816001600160a01b03168152505086828151811061093e5761093e61193b565b60200260200101518584815181106109585761095861193b565b60209081029190910101528261096d81611967565b9350505b508061097c81611967565b91505061081c565b5050505b9250929050565b6000818060200190518101906109a59190611a75565b80516040516310da0a2360e11b815261ffff9091166004820152600160248201529091506000907f00000000000000000000000000000000000000000000000000000000000000006001600160a01b0316906321b4144690604401608060405180830381865afa158015610a1d573d6000803e3d6000fd5b505050506040513d601f19601f82011682018060405250810190610a419190611ae0565b905060008260200151610a58578160400151610a5e565b81606001515b905060008360200151610a75578260600151610a7b565b82604001515b905060006001600160a01b038316610b1257506040848101519051632e1a7d4d60e01b8152600481018290527f00000000000000000000000000000000000000000000000000000000000000006001600160a01b031690632e1a7d4d90602401600060405180830381600087803b158015610af557600080fd5b505af1158015610b09573d6000803e3d6000fd5b50505050610b4d565b6040850151610b4d906001600160a01b038516907f000000000000000000000000000000000000000000000000000000000000000090610ee5565b84516020860151604080880151606089015191516311f5d2a960e31b815261ffff90941660048501529115156024840152604483019190915260648201527f00000000000000000000000000000000000000000000000000000000000000006001600160a01b031690638fae95489083906084016000604051808303818588803b158015610bda57600080fd5b505af1158015610bee573d6000803e3d6000fd5b5050505050610c2c6040518060600160405280856001600160a01b03168152602001846001600160a01b031681526020018760400151815250610ef0565b505050505050565b600081806020019051810190610c4a9190611b3f565b905060005b8151518110156103b557600082600001518281518110610c7157610c7161193b565b60200260200101519050610c8481610450565b610ca1576040516301870ddf60e71b815260040160405180910390fd5b6000610cac826103f5565b9050610cb782611042565b610cc481602001516110ab565b8051610ccf906110ab565b50508080610cdc90611967565b915050610c4f565b600081806020019051810190610cfa9190611c14565b90506000610d0b82600001516103f5565b9050610d1a8260000151611042565b815160208301516040808501516060860151608087015160a0880151935163796bc4c960e11b8152600481019690965230602487015261ffff90941660448601529015156064850152608484015260a483019190915260c48201526001600160a01b037f0000000000000000000000000000000000000000000000000000000000000000169063f2d789929060e401600060405180830381600087803b158015610dc357600080fd5b505af1158015610dd7573d6000803e3d6000fd5b505082519150506001600160a01b038116610dfb57610df63347611163565b610e7a565b6040516370a0823160e01b8152306004820152610e7a9033906001600160a01b038416906370a0823190602401602060405180830381865afa158015610e45573d6000803e3d6000fd5b505050506040513d601f19601f82011682018060405250810190610e699190611980565b6001600160a01b0384169190611281565b50505050565b6000805b8351811015610edb57838181518110610e9f57610e9f61193b565b60200260200101516001600160a01b0316836001600160a01b031603610ec9576001915050610513565b80610ed381611967565b915050610e84565b5060009392505050565b6103b583838361128c565b60007f00000000000000000000000000000000000000000000000000000000000000006001600160a01b031663b251d6056040518163ffffffff1660e01b8152600401602060405180830381865afa158015610f50573d6000803e3d6000fd5b505050506040513d601f19601f82011682018060405250810190610f749190611980565b60008054600180820183557f290decd9548b62a8d60345a988386fc84ba6bc95484008f6362f93160ef3e5639091018390558282526020818152604092839020865181546001600160a01b039182166001600160a01b03199182168117845589850180519685018054978516979093169690961790915588860180516002909401939093558551908152935116918301919091525181830152905191925082917fd9eeae417ff406e218312809f653d23ef0c3a029d2e9c3a1792c010fd35399ef9181900360600190a25050565b61104d6000826113d4565b50600081815260016020819052604080832080546001600160a01b03199081168255928101805490931690925560029091018290555182917fd00f9df87317e48136dba4680c6b7e5a9763552f7c9fe645f8e992f22231437a91a250565b60006001600160a01b03821615611129576040516370a0823160e01b81523060048201526001600160a01b038316906370a0823190602401602060405180830381865afa158015611100573d6000803e3d6000fd5b505050506040513d601f19601f820116820180604052508101906111249190611980565b61112b565b475b9050801561114b576001600160a01b03821661114f5761114b3382611163565b5050565b61114b6001600160a01b0383163383611281565b804710156111b85760405162461bcd60e51b815260206004820152601d60248201527f416464726573733a20696e73756666696369656e742062616c616e636500000060448201526064015b60405180910390fd5b6000826001600160a01b03168260405160006040518083038185875af1925050503d8060008114611205576040519150601f19603f3d011682016040523d82523d6000602084013e61120a565b606091505b50509050806103b55760405162461bcd60e51b815260206004820152603a60248201527f416464726573733a20756e61626c6520746f2073656e642076616c75652c207260448201527f6563697069656e74206d6179206861766520726576657274656400000000000060648201526084016111af565b6103b58383836114a7565b8015806113065750604051636eb1769f60e11b81523060048201526001600160a01b03838116602483015284169063dd62ed3e90604401602060405180830381865afa1580156112e0573d6000803e3d6000fd5b505050506040513d601f19601f820116820180604052508101906113049190611980565b155b6113715760405162461bcd60e51b815260206004820152603660248201527f5361666545524332303a20617070726f76652066726f6d206e6f6e2d7a65726f60448201527520746f206e6f6e2d7a65726f20616c6c6f77616e636560501b60648201526084016111af565b6040516001600160a01b0383166024820152604481018290526103b590849063095ea7b360e01b906064015b60408051601f198184030181529190526020810180516001600160e01b03166001600160e01b0319909316929092179091526114d7565b8154600090815b8181101561149f57838582815481106113f6576113f661193b565b90600052602060002001540361148d57611411600183611c9a565b81101561145e5784611424600184611c9a565b815481106114345761143461193b565b90600052602060002001548582815481106114515761145161193b565b6000918252602090912001555b8480548061146e5761146e611cad565b600190038181906000526020600020016000905590556001925061149f565b8061149781611967565b9150506113db565b505092915050565b6040516001600160a01b0383166024820152604481018290526103b590849063a9059cbb60e01b9060640161139d565b600061152c826040518060400160405280602081526020017f5361666545524332303a206c6f772d6c6576656c2063616c6c206661696c6564815250856001600160a01b03166115a99092919063ffffffff16565b8051909150156103b5578080602001905181019061154a9190611cc3565b6103b55760405162461bcd60e51b815260206004820152602a60248201527f5361666545524332303a204552433230206f7065726174696f6e20646964206e6044820152691bdd081cdd58d8d9595960b21b60648201526084016111af565b60606115b884846000856115c0565b949350505050565b6060824710156116215760405162461bcd60e51b815260206004820152602660248201527f416464726573733a20696e73756666696369656e742062616c616e636520666f6044820152651c8818d85b1b60d21b60648201526084016111af565b600080866001600160a01b0316858760405161163d9190611cde565b60006040518083038185875af1925050503d806000811461167a576040519150601f19603f3d011682016040523d82523d6000602084013e61167f565b606091505b50915091506116908783838761169b565b979650505050505050565b6060831561170a578251600003611703576001600160a01b0385163b6117035760405162461bcd60e51b815260206004820152601d60248201527f416464726573733a2063616c6c20746f206e6f6e2d636f6e747261637400000060448201526064016111af565b50816115b8565b6115b8838381511561171f5781518083602001fd5b8060405162461bcd60e51b81526004016111af9190611cfa565b634e487b7160e01b600052604160045260246000fd5b6040516080810167ffffffffffffffff8111828210171561177257611772611739565b60405290565b6040516020810167ffffffffffffffff8111828210171561177257611772611739565b604051601f8201601f1916810167ffffffffffffffff811182821017156117c4576117c4611739565b604052919050565b600067ffffffffffffffff8211156117e6576117e6611739565b50601f01601f191660200190565b60006020828403121561180657600080fd5b813567ffffffffffffffff81111561181d57600080fd5b8201601f8101841361182e57600080fd5b803561184161183c826117cc565b61179b565b81815285602083850101111561185657600080fd5b81602084016020830137600091810160200191909152949350505050565b600081518084526020808501945080840160005b838110156118a457815187529582019590820190600101611888565b509495945050505050565b604080825283519082018190526000906020906060840190828701845b828110156118f15781516001600160a01b0316845292840192908401906001016118cc565b505050838103828501526119058186611874565b9695505050505050565b6020815260006105106020830184611874565b60006020828403121561193457600080fd5b5035919050565b634e487b7160e01b600052603260045260246000fd5b634e487b7160e01b600052601160045260246000fd5b60006001820161197957611979611951565b5060010190565b60006020828403121561199257600080fd5b5051919050565b60005b838110156119b457818101518382015260200161199c565b50506000910152565b600080604083850312156119d057600080fd5b82519150602083015167ffffffffffffffff8111156119ee57600080fd5b8301601f810185136119ff57600080fd5b8051611a0d61183c826117cc565b818152866020838501011115611a2257600080fd5b611a33826020830160208601611999565b8093505050509250929050565b8082018082111561051357610513611951565b805161ffff811681146104e957600080fd5b805180151581146104e957600080fd5b600060808284031215611a8757600080fd5b611a8f61174f565b611a9883611a53565b8152611aa660208401611a65565b602082015260408301516040820152606083015160608201528091505092915050565b80516001600160a01b03811681146104e957600080fd5b600060808284031215611af257600080fd5b611afa61174f565b611b0383611a53565b8152611b1160208401611a65565b6020820152611b2260408401611ac9565b6040820152611b3360608401611ac9565b60608201529392505050565b60006020808385031215611b5257600080fd5b825167ffffffffffffffff80821115611b6a57600080fd5b8185019150828287031215611b7e57600080fd5b611b86611778565b825182811115611b9557600080fd5b80840193505086601f840112611baa57600080fd5b825182811115611bbc57611bbc611739565b8060051b9250611bcd85840161179b565b8181529284018501928581019089851115611be757600080fd5b948601945b84861015611c0557855182529486019490860190611bec565b83525090979650505050505050565b600060c08284031215611c2657600080fd5b60405160c0810181811067ffffffffffffffff82111715611c4957611c49611739565b60405282518152611c5c60208401611a53565b6020820152611c6d60408401611a65565b6040820152606083015160608201526080830151608082015260a083015160a08201528091505092915050565b8181038181111561051357610513611951565b634e487b7160e01b600052603160045260246000fd5b600060208284031215611cd557600080fd5b61051082611a65565b60008251611cf0818460208701611999565b9190910192915050565b6020815260008251806020840152611d19816040850160208701611999565b601f01601f1916919091016040019291505056","linkReferences":{}},"methodIdentifiers":{"getDebtAssets()":"ecd658b4","getManagedAssets()":"80daddb8","getOrderDetails(uint256)":"ec7dd7bb","getOrderIds()":"9e0acf8f","init(bytes)":"4ddf47d4","receiveCallFromVault(bytes)":"e5c23a97"},"id":99}