{"abi":[{"type":"constructor","inputs":[{"name":"_aliceOrderManagerAddress","type":"address","internalType":"address"},{"name":"_wrappedNativeAssetAddress","type":"address","internalType":"address"}],"stateMutability":"nonpayable"},{"type":"function","name":"getDebtAssets","inputs":[],"outputs":[{"name":"assets_","type":"address[]","internalType":"address[]"},{"name":"amounts_","type":"uint256[]","internalType":"uint256[]"}],"stateMutability":"view"},{"type":"function","name":"getManagedAssets","inputs":[],"outputs":[{"name":"assets_","type":"address[]","internalType":"address[]"},{"name":"amounts_","type":"uint256[]","internalType":"uint256[]"}],"stateMutability":"view"},{"type":"function","name":"getOrderDetails","inputs":[{"name":"_orderId","type":"uint256","internalType":"uint256"}],"outputs":[{"name":"orderDetails_","type":"tuple","internalType":"struct AlicePositionLibBase1.OrderDetails","components":[{"name":"outgoingAssetAddress","type":"address","internalType":"address"},{"name":"incomingAssetAddress","type":"address","internalType":"address"},{"name":"outgoingAmount","type":"uint256","internalType":"uint256"}]}],"stateMutability":"view"},{"type":"function","name":"getOrderIds","inputs":[],"outputs":[{"name":"orderIds_","type":"uint256[]","internalType":"uint256[]"}],"stateMutability":"view"},{"type":"function","name":"init","inputs":[{"name":"","type":"bytes","internalType":"bytes"}],"outputs":[],"stateMutability":"nonpayable"},{"type":"function","name":"receiveCallFromVault","inputs":[{"name":"_actionData","type":"bytes","internalType":"bytes"}],"outputs":[],"stateMutability":"nonpayable"},{"type":"event","name":"OrderIdAdded","inputs":[{"name":"orderId","type":"uint256","indexed":true,"internalType":"uint256"},{"name":"orderDetails","type":"tuple","indexed":false,"internalType":"struct AlicePositionLibBase1.OrderDetails","components":[{"name":"outgoingAssetAddress","type":"address","internalType":"address"},{"name":"incomingAssetAddress","type":"address","internalType":"address"},{"name":"outgoingAmount","type":"uint256","internalType":"uint256"}]}],"anonymous":false},{"type":"event","name":"OrderIdRemoved","inputs":[{"name":"orderId","type":"uint256","indexed":true,"internalType":"uint256"}],"anonymous":false},{"type":"error","name":"InvalidActionId","inputs":[]},{"type":"error","name":"OrderNotSettledOrCancelled","inputs":[]}],"bytecode":{"object":"0x60c06040523480156200001157600080fd5b506040516200219e3803806200219e833981016040819052620000349162000086565b6001600160a01b039182166080521660a052620000c9565b60006001600160a01b0382165b92915050565b6200006a816200004c565b81146200007657600080fd5b50565b805162000059816200005f565b600080604083850312156200009e576200009e600080fd5b6000620000ac858562000079565b9250506020620000bf8582860162000079565b9150509250929050565b60805160a05161208562000119600039600081816101a20152610a8b01526000818161044c015281816109aa01528181610b0d01528181610b5a01528181610cef0152610eab01526120856000f3fe608060405234801561001057600080fd5b50600436106100625760003560e01c80634ddf47d41461006757806380daddb81461007a5780639e0acf8f14610099578063e5c23a97146100ae578063ec7dd7bb146100c1578063ecd658b4146100e1575b600080fd5b610078610075366004611643565b50565b005b6100826100e9565b60405161009092919061174b565b60405180910390f35b6100a1610315565b6040516100909190611770565b6100786100bc366004611643565b61036d565b6100d46100cf366004611799565b6103d7565b60405161009091906117f1565b606080610082565b60608060006100f6610315565b9050606060005b82518110156101fa57600061012a84838151811061011d5761011d6117ff565b60200260200101516103d7565b90506000610150858481518110610143576101436117ff565b6020026020010151610432565b905080156101855781516101659085906104d4565b935061017e8260200151856104d490919063ffffffff16565b93506101e5565b81516101c9906001600160a01b0316156101a05782516101c2565b7f00000000000000000000000000000000000000000000000000000000000000005b88906104ff565b96506101e28260400151876105f090919063ffffffff16565b95505b505080806101f29061182b565b9150506100fd565b5060005b815181101561030057600082828151811061021b5761021b6117ff565b602002602001015190506000806001600160a01b0316826001600160a01b0316146102b2576040516370a0823160e01b81526001600160a01b038316906370a082319061026c903090600401611845565b602060405180830381865afa158015610289573d6000803e3d6000fd5b505050506040513d601f19601f820116820180604052508101906102ad919061185e565b6102b4565b475b9050806000036102c55750506102ee565b6102dd6001600160a01b038316156101a057826101c2565b96506102e986826105f0565b955050505b806102f88161182b565b9150506101fe565b5061030b84846106c0565b9350935050509091565b6060600080548060200260200160405190810160405280929190818152602001828054801561036357602002820191906000526020600020905b81548152602001906001019080831161034f575b5050505050905090565b6000808280602001905181019061038491906118fb565b90925090508161039c5761039781610975565b505050565b600282036103ad5761039781610c07565b600182036103be5761039781610cb7565b60405163703469d160e11b815260040160405180910390fd5b6040805160608082018352600080835260208084018290529284018190529384526001808352938390208351918201845280546001600160a01b03908116835294810154909416918101919091526002909201549082015290565b604051635cf86b4760e11b81526000906001600160a01b037f0000000000000000000000000000000000000000000000000000000000000000169063b9f0d68e90610481908590600401611953565b602060405180830381865afa9250505080156104ba575060408051601f3d908101601f191682019092526104b79181019061185e565b60015b6104c657506001919050565b50600092915050565b919050565b60606104e08383610e37565b156104ec5750816104f9565b6104f683836104ff565b90505b92915050565b60608251600161050f9190611961565b67ffffffffffffffff8111156105275761052761154d565b604051908082528060200260200182016040528015610550578160200160208202803683370190505b50905060005b83518110156105b557838181518110610571576105716117ff565b602002602001015182828151811061058b5761058b6117ff565b6001600160a01b0390921660209283029190910190910152806105ad8161182b565b915050610556565b5081818451815181106105ca576105ca6117ff565b60200260200101906001600160a01b031690816001600160a01b03168152505092915050565b6060825160016106009190611961565b67ffffffffffffffff8111156106185761061861154d565b604051908082528060200260200182016040528015610641578160200160208202803683370190505b50905060005b835181101561069957838181518110610662576106626117ff565b602002602001015182828151811061067c5761067c6117ff565b6020908102919091010152806106918161182b565b915050610647565b5081818451815181106106ae576106ae6117ff565b60200260200101818152505092915050565b60608083516000031561096e576001805b8551811015610773576000805b8281101561074c578781815181106106f8576106f86117ff565b60200260200101516001600160a01b031688848151811061071b5761071b6117ff565b60200260200101516001600160a01b03160361073a576001915061074c565b806107448161182b565b9150506106de565b5080610760578261075c8161182b565b9350505b508061076b8161182b565b9150506106d1565b508067ffffffffffffffff81111561078d5761078d61154d565b6040519080825280602002602001820160405280156107b6578160200160208202803683370190505b5092508067ffffffffffffffff8111156107d2576107d261154d565b6040519080825280602002602001820160405280156107fb578160200160208202803683370190505b5091506000805b865181101561096a576000805b838110156108c057868181518110610829576108296117ff565b60200260200101516001600160a01b031689848151811061084c5761084c6117ff565b60200260200101516001600160a01b0316036108ae5760019150878381518110610878576108786117ff565b6020026020010151868281518110610892576108926117ff565b602002602001018181516108a69190611961565b9052506108c0565b806108b88161182b565b91505061080f565b5080610957578782815181106108d8576108d86117ff565b60200260200101518684815181106108f2576108f26117ff565b60200260200101906001600160a01b031690816001600160a01b031681525050868281518110610924576109246117ff565b602002602001015185848151811061093e5761093e6117ff565b6020908102919091010152826109538161182b565b9350505b50806109628161182b565b915050610802565b5050505b9250929050565b60008180602001905181019061098b9190611a0e565b80516040516310da0a2360e11b81529192506000916001600160a01b037f000000000000000000000000000000000000000000000000000000000000000016916321b41446916109e19190600190600401611a41565b608060405180830381865afa1580156109fe573d6000803e3d6000fd5b505050506040513d601f19601f82011682018060405250810190610a229190611ad6565b905060008260200151610a39578160400151610a3f565b81606001515b905060008360200151610a56578260600151610a5c565b82604001515b905060006001600160a01b038316610af757506040808501519051632e1a7d4d60e01b81526001600160a01b037f00000000000000000000000000000000000000000000000000000000000000001690632e1a7d4d90610ac0908490600401611953565b600060405180830381600087803b158015610ada57600080fd5b505af1158015610aee573d6000803e3d6000fd5b50505050610b32565b6040850151610b32906001600160a01b038516907f000000000000000000000000000000000000000000000000000000000000000090610e9c565b84516020860151604080880151606089015191516311f5d2a960e31b81526001600160a01b037f00000000000000000000000000000000000000000000000000000000000000001694638fae9548948794610b94949293919291600401611af7565b6000604051808303818588803b158015610bad57600080fd5b505af1158015610bc1573d6000803e3d6000fd5b5050505050610bff6040518060600160405280856001600160a01b03168152602001846001600160a01b031681526020018760400151815250610ea7565b505050505050565b600081806020019051810190610c1d9190611c29565b905060005b81515181101561039757600082600001518281518110610c4457610c446117ff565b60200260200101519050610c5781610432565b610c74576040516301870ddf60e71b815260040160405180910390fd5b6000610c7f826103d7565b9050610c8a82610fe6565b610c97816020015161104f565b8051610ca29061104f565b50508080610caf9061182b565b915050610c22565b600081806020019051810190610ccd9190611cfe565b90506000610cde82600001516103d7565b9050610ced8260000151610fe6565b7f00000000000000000000000000000000000000000000000000000000000000006001600160a01b031663f2d7899283600001513085602001518660400151876060015188608001518960a001516040518863ffffffff1660e01b8152600401610d5d9796959493929190611d1f565b600060405180830381600087803b158015610d7757600080fd5b505af1158015610d8b573d6000803e3d6000fd5b505082519150506001600160a01b038116610daf57610daa334761110c565b610e31565b610e3133826001600160a01b03166370a08231306040518263ffffffff1660e01b8152600401610ddf9190611845565b602060405180830381865afa158015610dfc573d6000803e3d6000fd5b505050506040513d601f19601f82011682018060405250810190610e20919061185e565b6001600160a01b03841691906111b1565b50505050565b6000805b8351811015610e9257838181518110610e5657610e566117ff565b60200260200101516001600160a01b0316836001600160a01b031603610e805760019150506104f9565b80610e8a8161182b565b915050610e3b565b5060009392505050565b6103978383836111bc565b60007f00000000000000000000000000000000000000000000000000000000000000006001600160a01b031663b251d6056040518163ffffffff1660e01b8152600401602060405180830381865afa158015610f07573d6000803e3d6000fd5b505050506040513d601f19601f82011682018060405250810190610f2b919061185e565b60008054600180820183557f290decd9548b62a8d60345a988386fc84ba6bc95484008f6362f93160ef3e5639091018390558282526020818152604092839020865181546001600160a01b03199081166001600160a01b039283161783559288015193820180549093169316929092179055848201516002909101555190915081907fd9eeae417ff406e218312809f653d23ef0c3a029d2e9c3a1792c010fd35399ef90610fda9085906117f1565b60405180910390a25050565b610ff16000826112a7565b50600081815260016020819052604080832080546001600160a01b03199081168255928101805490931690925560029091018290555182917fd00f9df87317e48136dba4680c6b7e5a9763552f7c9fe645f8e992f22231437a91a250565b60006001600160a01b038216156110d2576040516370a0823160e01b81526001600160a01b038316906370a082319061108c903090600401611845565b602060405180830381865afa1580156110a9573d6000803e3d6000fd5b505050506040513d601f19601f820116820180604052508101906110cd919061185e565b6110d4565b475b905080156110f4576001600160a01b0382166110f8576110f4338261110c565b5050565b6110f46001600160a01b03831633836111b1565b804710156111355760405162461bcd60e51b815260040161112c90611dbe565b60405180910390fd5b6000826001600160a01b03168260405161114e90611dce565b60006040518083038185875af1925050503d806000811461118b576040519150601f19603f3d011682016040523d82523d6000602084013e611190565b606091505b50509050806103975760405162461bcd60e51b815260040161112c90611e33565b61039783838361137a565b8015806112355750604051636eb1769f60e11b81526001600160a01b0384169063dd62ed3e906111f29030908690600401611e43565b602060405180830381865afa15801561120f573d6000803e3d6000fd5b505050506040513d601f19601f82011682018060405250810190611233919061185e565b155b6112515760405162461bcd60e51b815260040161112c90611eb1565b6103978363095ea7b360e01b8484604051602401611270929190611ec1565b60408051601f198184030181529190526020810180516001600160e01b03166001600160e01b031990931692909217909152611399565b8154600090815b8181101561137257838582815481106112c9576112c96117ff565b906000526020600020015403611360576112e4600183611edc565b81101561133157846112f7600184611edc565b81548110611307576113076117ff565b9060005260206000200154858281548110611324576113246117ff565b6000918252602090912001555b8480548061134157611341611eef565b6001900381819060005260206000200160009055905560019250611372565b8061136a8161182b565b9150506112ae565b505092915050565b6103978363a9059cbb60e01b8484604051602401611270929190611ec1565b60006113ee826040518060400160405280602081526020017f5361666545524332303a206c6f772d6c6576656c2063616c6c206661696c6564815250856001600160a01b03166114289092919063ffffffff16565b805190915015610397578080602001905181019061140c9190611f05565b6103975760405162461bcd60e51b815260040161112c90611f6d565b60606114378484600085611441565b90505b9392505050565b6060824710156114635760405162461bcd60e51b815260040161112c90611fc0565b600080866001600160a01b0316858760405161147f9190611ff2565b60006040518083038185875af1925050503d80600081146114bc576040519150601f19603f3d011682016040523d82523d6000602084013e6114c1565b606091505b50915091506114d2878383876114df565b925050505b949350505050565b6060831561151e578251600003611517576001600160a01b0385163b6115175760405162461bcd60e51b815260040161112c90612032565b50816114d7565b6114d783838151156115335781518083602001fd5b8060405162461bcd60e51b815260040161112c9190612074565b634e487b7160e01b600052604160045260246000fd5b601f19601f830116810181811067ffffffffffffffff821117156115895761158961154d565b6040525050565b600061159b60405190565b90506104cf8282611563565b600067ffffffffffffffff8211156115c1576115c161154d565b601f19601f83011660200192915050565b82818337506000910152565b60006115f16115ec846115a7565b611590565b90508281526020810184848401111561160c5761160c600080fd5b6116178482856115d2565b509392505050565b600082601f83011261163357611633600080fd5b81356114d78482602086016115de565b60006020828403121561165857611658600080fd5b813567ffffffffffffffff81111561167257611672600080fd5b6114d78482850161161f565b60006001600160a01b0382166104f9565b6116988161167e565b82525050565b60006116aa838361168f565b505060200190565b60006116bc825190565b80845260209384019383018060005b838110156116f05781516116df888261169e565b9750602083019250506001016116cb565b509495945050505050565b80611698565b60006116aa83836116fb565b6000611717825190565b80845260209384019383018060005b838110156116f057815161173a8882611701565b975060208301925050600101611726565b6040808252810161175c81856116b2565b90508181036020830152611437818461170d565b602080825281016104f6818461170d565b805b811461007557600080fd5b80356104f981611781565b6000602082840312156117ae576117ae600080fd5b60006114d7848461178e565b805160608301906117cb848261168f565b5060208201516117de602085018261168f565b506040820151610e3160408501826116fb565b606081016104f982846117ba565b634e487b7160e01b600052603260045260246000fd5b634e487b7160e01b600052601160045260246000fd5b6000600019820361183e5761183e611815565b5060010190565b602081016104f9828461168f565b80516104f981611781565b60006020828403121561187357611873600080fd5b60006114d78484611853565b60005b8381101561189a578181015183820152602001611882565b50506000910152565b60006118b16115ec846115a7565b9050828152602081018484840111156118cc576118cc600080fd5b61161784828561187f565b600082601f8301126118eb576118eb600080fd5b81516114d78482602086016118a3565b6000806040838503121561191157611911600080fd5b600061191d8585611853565b925050602083015167ffffffffffffffff81111561193d5761193d600080fd5b611949858286016118d7565b9150509250929050565b602081016104f982846116fb565b808201808211156104f9576104f9611815565b61ffff8116611783565b80516104f981611974565b801515611783565b80516104f981611989565b6000608082840312156119b1576119b1600080fd5b6119bb6080611590565b905060006119c9848461197e565b82525060206119da84848301611991565b60208301525060406119ee84828501611853565b6040830152506060611a0284828501611853565b60608301525092915050565b600060808284031215611a2357611a23600080fd5b60006114d7848461199c565b61ffff8116611698565b801515611698565b60408101611a4f8285611a2f565b61143a6020830184611a39565b6117838161167e565b80516104f981611a5c565b600060808284031215611a8557611a85600080fd5b611a8f6080611590565b90506000611a9d848461197e565b8252506020611aae84848301611991565b6020830152506040611ac284828501611a65565b6040830152506060611a0284828501611a65565b600060808284031215611aeb57611aeb600080fd5b60006114d78484611a70565b60808101611b058287611a2f565b611b126020830186611a39565b611b1f60408301856116fb565b611b2c60608301846116fb565b95945050505050565b600067ffffffffffffffff821115611b4f57611b4f61154d565b5060209081020190565b6000611b676115ec84611b35565b83815290506020808201908402830185811115611b8657611b86600080fd5b835b81811015611baa5780611b9b8882611853565b84525060209283019201611b88565b5050509392505050565b600082601f830112611bc857611bc8600080fd5b81516114d7848260208601611b59565b600060208284031215611bed57611bed600080fd5b611bf76020611590565b825190915067ffffffffffffffff811115611c1457611c14600080fd5b611c2084828501611bb4565b82525092915050565b600060208284031215611c3e57611c3e600080fd5b815167ffffffffffffffff811115611c5857611c58600080fd5b6114d784828501611bd8565b600060c08284031215611c7957611c79600080fd5b611c8360c0611590565b90506000611c918484611853565b8252506020611ca28484830161197e565b6020830152506040611cb684828501611991565b6040830152506060611cca84828501611853565b6060830152506080611cde84828501611853565b60808301525060a0611cf284828501611853565b60a08301525092915050565b600060c08284031215611d1357611d13600080fd5b60006114d78484611c64565b60e08101611d2d828a6116fb565b611d3a602083018961168f565b611d476040830188611a2f565b611d546060830187611a39565b611d6160808301866116fb565b611d6e60a08301856116fb565b611d7b60c08301846116fb565b98975050505050505050565b601d81526000602082017f416464726573733a20696e73756666696369656e742062616c616e6365000000815291505b5060200190565b602080825281016104f981611d87565b6000816104f9565b603a81526000602082017f416464726573733a20756e61626c6520746f2073656e642076616c75652c207281527f6563697069656e74206d61792068617665207265766572746564000000000000602082015291505b5060400190565b602080825281016104f981611dd6565b60408101611e51828561168f565b61143a602083018461168f565b603681526000602082017f5361666545524332303a20617070726f76652066726f6d206e6f6e2d7a65726f81527520746f206e6f6e2d7a65726f20616c6c6f77616e636560501b60208201529150611e2c565b602080825281016104f981611e5e565b60408101611ecf828561168f565b61143a60208301846116fb565b818103818111156104f9576104f9611815565b634e487b7160e01b600052603160045260246000fd5b600060208284031215611f1a57611f1a600080fd5b60006114d78484611991565b602a81526000602082017f5361666545524332303a204552433230206f7065726174696f6e20646964206e8152691bdd081cdd58d8d9595960b21b60208201529150611e2c565b602080825281016104f981611f26565b602681526000602082017f416464726573733a20696e73756666696369656e742062616c616e636520666f8152651c8818d85b1b60d21b60208201529150611e2c565b602080825281016104f981611f7d565b6000611fda825190565b611fe881856020860161187f565b9290920192915050565b600061143a8284611fd0565b601d81526000602082017f416464726573733a2063616c6c20746f206e6f6e2d636f6e747261637400000081529150611db7565b602080825281016104f981611ffe565b600061204c825190565b80845260208401935061206381856020860161187f565b601f01601f19169290920192915050565b602080825281016104f6818461204256","linkReferences":{}},"methodIdentifiers":{"getDebtAssets()":"ecd658b4","getManagedAssets()":"80daddb8","getOrderDetails(uint256)":"ec7dd7bb","getOrderIds()":"9e0acf8f","init(bytes)":"4ddf47d4","receiveCallFromVault(bytes)":"e5c23a97"},"id":112}