{"abi":[{"type":"constructor","inputs":[{"name":"_integrationManager","type":"address","internalType":"address"},{"name":"_balancerVault","type":"address","internalType":"address"},{"name":"_balancerMinter","type":"address","internalType":"address"},{"name":"_balToken","type":"address","internalType":"address"}],"stateMutability":"nonpayable"},{"type":"function","name":"CLAIM_REWARDS_SELECTOR","inputs":[],"outputs":[{"name":"","type":"bytes4","internalType":"bytes4"}],"stateMutability":"view"},{"type":"function","name":"LEND_AND_STAKE_SELECTOR","inputs":[],"outputs":[{"name":"","type":"bytes4","internalType":"bytes4"}],"stateMutability":"view"},{"type":"function","name":"LEND_SELECTOR","inputs":[],"outputs":[{"name":"","type":"bytes4","internalType":"bytes4"}],"stateMutability":"view"},{"type":"function","name":"REDEEM_SELECTOR","inputs":[],"outputs":[{"name":"","type":"bytes4","internalType":"bytes4"}],"stateMutability":"view"},{"type":"function","name":"STAKE_SELECTOR","inputs":[],"outputs":[{"name":"","type":"bytes4","internalType":"bytes4"}],"stateMutability":"view"},{"type":"function","name":"TAKE_MULTIPLE_ORDERS_SELECTOR","inputs":[],"outputs":[{"name":"","type":"bytes4","internalType":"bytes4"}],"stateMutability":"view"},{"type":"function","name":"TAKE_ORDER_SELECTOR","inputs":[],"outputs":[{"name":"","type":"bytes4","internalType":"bytes4"}],"stateMutability":"view"},{"type":"function","name":"UNSTAKE_AND_REDEEM_SELECTOR","inputs":[],"outputs":[{"name":"","type":"bytes4","internalType":"bytes4"}],"stateMutability":"view"},{"type":"function","name":"UNSTAKE_SELECTOR","inputs":[],"outputs":[{"name":"","type":"bytes4","internalType":"bytes4"}],"stateMutability":"view"},{"type":"function","name":"claimRewards","inputs":[{"name":"_vaultProxy","type":"address","internalType":"address"},{"name":"_actionData","type":"bytes","internalType":"bytes"},{"name":"","type":"bytes","internalType":"bytes"}],"outputs":[],"stateMutability":"nonpayable"},{"type":"function","name":"getCurveGaugeV2RewardsHandlerCrvToken","inputs":[],"outputs":[{"name":"crvToken_","type":"address","internalType":"address"}],"stateMutability":"view"},{"type":"function","name":"getCurveGaugeV2RewardsHandlerMinter","inputs":[],"outputs":[{"name":"minter_","type":"address","internalType":"address"}],"stateMutability":"view"},{"type":"function","name":"getIntegrationManager","inputs":[],"outputs":[{"name":"integrationManager_","type":"address","internalType":"address"}],"stateMutability":"view"},{"type":"function","name":"lend","inputs":[{"name":"_vaultProxy","type":"address","internalType":"address"},{"name":"_actionData","type":"bytes","internalType":"bytes"},{"name":"","type":"bytes","internalType":"bytes"}],"outputs":[],"stateMutability":"nonpayable"},{"type":"function","name":"lendAndStake","inputs":[{"name":"_vaultProxy","type":"address","internalType":"address"},{"name":"_actionData","type":"bytes","internalType":"bytes"},{"name":"","type":"bytes","internalType":"bytes"}],"outputs":[],"stateMutability":"nonpayable"},{"type":"function","name":"parseAssetsForAction","inputs":[{"name":"_vaultProxy","type":"address","internalType":"address"},{"name":"_selector","type":"bytes4","internalType":"bytes4"},{"name":"_actionData","type":"bytes","internalType":"bytes"}],"outputs":[{"name":"spendAssetsHandleType_","type":"uint8","internalType":"enum IIntegrationManager.SpendAssetsHandleType"},{"name":"spendAssets_","type":"address[]","internalType":"address[]"},{"name":"spendAssetAmounts_","type":"uint256[]","internalType":"uint256[]"},{"name":"incomingAssets_","type":"address[]","internalType":"address[]"},{"name":"minIncomingAssetAmounts_","type":"uint256[]","internalType":"uint256[]"}],"stateMutability":"view"},{"type":"function","name":"redeem","inputs":[{"name":"_vaultProxy","type":"address","internalType":"address"},{"name":"_actionData","type":"bytes","internalType":"bytes"},{"name":"","type":"bytes","internalType":"bytes"}],"outputs":[],"stateMutability":"nonpayable"},{"type":"function","name":"stake","inputs":[{"name":"_vaultProxy","type":"address","internalType":"address"},{"name":"_actionData","type":"bytes","internalType":"bytes"},{"name":"","type":"bytes","internalType":"bytes"}],"outputs":[],"stateMutability":"nonpayable"},{"type":"function","name":"takeOrder","inputs":[{"name":"_vaultProxy","type":"address","internalType":"address"},{"name":"_actionData","type":"bytes","internalType":"bytes"},{"name":"","type":"bytes","internalType":"bytes"}],"outputs":[],"stateMutability":"nonpayable"},{"type":"function","name":"unstake","inputs":[{"name":"_vaultProxy","type":"address","internalType":"address"},{"name":"_actionData","type":"bytes","internalType":"bytes"},{"name":"","type":"bytes","internalType":"bytes"}],"outputs":[],"stateMutability":"nonpayable"},{"type":"function","name":"unstakeAndRedeem","inputs":[{"name":"_vaultProxy","type":"address","internalType":"address"},{"name":"_actionData","type":"bytes","internalType":"bytes"},{"name":"","type":"bytes","internalType":"bytes"}],"outputs":[],"stateMutability":"nonpayable"}],"bytecode":{"object":"0x6101006040523480156200001257600080fd5b5060405162003d9138038062003d91833981016040819052620000359162000077565b6001600160601b0319606094851b811660805292841b831660a052831b821660c05290911b1660e0526200010d565b80516200007181620000f3565b92915050565b600080600080608085870312156200008e57600080fd5b60006200009c878762000064565b9450506020620000af8782880162000064565b9350506040620000c28782880162000064565b9250506060620000d58782880162000064565b91505092959194509250565b60006001600160a01b03821662000071565b620000fe81620000e1565b81146200010a57600080fd5b50565b60805160601c60a05160601c60c05160601c60e05160601c613bf76200019a60003980610e195280611d6552806127525250806109435250806103ca5280611067528061121c52806114355280611c305280611d065250806102885280610747528061084f52806109b85280610a5b5280610c095280610ca05280610df55280610e6a5250613bf76000f3fe608060405234801561001057600080fd5b50600436106101375760003560e01c80638334eb99116100b8578063c32990a21161007c578063c32990a214610226578063c54efee51461022e578063e7c4569014610252578063f003eb851461025a578063f7d882b514610262578063fa7dd04d1461026a57610137565b80638334eb99146101dd578063863e5ad0146101f0578063b23228cf146101f8578063b9dfbacc14610200578063c29fa9dd1461021357610137565b806329fa046e116100ff57806329fa046e14610192578063332d709f146101a55780633ffc1591146101ba57806340da225d146101c257806368e30677146101ca57610137565b806303e38a2b1461013c578063080456c114610151578063099f75151461016f578063131461c014610182578063257cb1a31461018a575b600080fd5b61014f61014a366004612ecc565b61027d565b005b610159610718565b60405161016691906138e1565b60405180910390f35b61014f61017d366004612ecc565b61073c565b6101596107fc565b610159610820565b61014f6101a0366004612ecc565b610844565b6101ad610941565b6040516101669190613859565b610159610965565b610159610989565b61014f6101d8366004612ecc565b6109ad565b61014f6101eb366004612ecc565b610a50565b610159610bb6565b610159610bda565b61014f61020e366004612ecc565b610bfe565b61014f610221366004612ecc565b610c95565b610159610d51565b61024161023c366004612e65565b610d75565b6040516101669594939291906138ef565b6101ad610df3565b6101ad610e17565b610159610e3b565b61014f610278366004612ecc565b610e5f565b336001600160a01b037f000000000000000000000000000000000000000000000000000000000000000016146102ce5760405162461bcd60e51b81526004016102c590613a02565b60405180910390fd5b600060608060608061031589898080601f016020809104026020016040519081016040528093929190818152602001838380828437600092019190915250610ef892505050565b945094509450945094506000808451905060005b8181101561045057600085828151811061033f57fe5b602002602001015113156103f557600085828151811061035b57fe5b6020026020010151905060006001600160a01b031685838151811061037c57fe5b60200260200101516001600160a01b0316146103b1576103b130308785815181106103a357fe5b602002602001015184610f26565b6103ef8783815181106103c057fe5b60200260200101517f000000000000000000000000000000000000000000000000000000000000000083610f64565b50610448565b600085828151811061040357fe5b602002602001015112801561043e575060006001600160a01b031684828151811061042a57fe5b60200260200101516001600160a01b031614155b1561044857600192505b600101610329565b50606061046d3084610462578e610464565b305b8a8a8a8a611020565b905060005b8281101561070857600086828151811061048857fe5b602002602001015113156105b85760006001600160a01b03168582815181106104ad57fe5b60200260200101516001600160a01b0316141580156104d7575060018960018111156104d557fe5b145b156105955760008782815181106104ea57fe5b60200260200101516001600160a01b03166370a08231306040518263ffffffff1660e01b815260040161051d9190613859565b60206040518083038186803b15801561053557600080fd5b505afa158015610549573d6000803e3d6000fd5b505050506040513d601f19601f8201168201806040525081019061056d9190613121565b90508015610593576105938f87848151811061058557fe5b602002602001015183611108565b505b6105b28e8883815181106105a557fe5b6020026020010151611134565b50610700565b60008682815181106105c657fe5b602002602001015112156106cd5760006001600160a01b03168582815181106105eb57fe5b60200260200101516001600160a01b0316146106b2576106ad8e86838151811061061157fe5b602002602001015189848151811061062557fe5b60200260200101516001600160a01b03166370a08231306040518263ffffffff1660e01b81526004016106589190613859565b60206040518083038186803b15801561067057600080fd5b505afa158015610684573d6000803e3d6000fd5b505050506040513d601f19601f820116820180604052508101906106a89190613121565b611108565b6106c8565b83156106c8576105b28e8883815181106105a557fe5b610700565b8181815181106106d957fe5b60200260200101516000146107005760405162461bcd60e51b81526004016102c590613a12565b600101610472565b5050505050505050505050505050565b7f8334eb99be0145865eba9889fca2ee920288090caefff4cc776038e20ad9259a81565b336001600160a01b037f000000000000000000000000000000000000000000000000000000000000000016146107845760405162461bcd60e51b81526004016102c590613a02565b6000606080610791612905565b6107d088888080601f0160208091040260200160405190810160405280939291908181526020018383808284376000920191909152506111d592505050565b9450945094505093506107e689858585856111f7565b6107f08984611269565b50505050505050505050565b7f29fa046e79524c3c5ac4c01df692c35e217802b2b13b21121b76cf0ef02b138c81565b7f099f75155f0e997bf83a7993a71d5e7e7540bd386fe1e84643a09ce6b412521981565b336001600160a01b037f0000000000000000000000000000000000000000000000000000000000000000161461088c5760405162461bcd60e51b81526004016102c590613a02565b60008060608061089a612905565b6108d989898080601f0160208091040260200160405190810160405280939291908181526020018383808284376000920191909152506113c492505050565b95509550955050945094506108f130858585856111f7565b61092a8a866108ff876113fc565b6001600160a01b03166370a08231306040518263ffffffff1660e01b81526004016106589190613859565b6109348a84611269565b5050505050505050505050565b7f000000000000000000000000000000000000000000000000000000000000000090565b7ffa7dd04da627f433da73c4355ead9c75682a67a8fc84d3f6170ef0922f402d2481565b7fb9dfbaccbe5cd2a84fdcf1d15f23ef25d23086f5afbaa99516065ed4a5bbc7a381565b336001600160a01b037f000000000000000000000000000000000000000000000000000000000000000016146109f55760405162461bcd60e51b81526004016102c590613a02565b600080610a3786868080601f01602080910402602001604051908101604052809392919081815260200183838082843760009201919091525061140792505050565b91509150610a4787888484610f26565b50505050505050565b336001600160a01b037f00000000000000000000000000000000000000000000000000000000000000001614610a985760405162461bcd60e51b81526004016102c590613a02565b60008060006060610aa7612905565b610ae689898080601f0160208091040260200160405190810160405280939291908181526020018383808284376000920191909152506113c492505050565b9550509450945094509450610afd8a308786610f26565b610b0a8a85858585611427565b6000610b15856113fc565b90506000816001600160a01b03166370a08231306040518263ffffffff1660e01b8152600401610b459190613859565b60206040518083038186803b158015610b5d57600080fd5b505afa158015610b71573d6000803e3d6000fd5b505050506040513d601f19601f82011682018060405250810190610b959190613121565b90508015610ba857610ba88c8883611108565b505050505050505050505050565b7f03e38a2bd7063d45c897edeafc330e71657502dd86434d3c37a489caf116af6981565b7f68e30677f607df46e87da13e15b637784cfa62374b653f35ab43d10361a2f83081565b336001600160a01b037f00000000000000000000000000000000000000000000000000000000000000001614610c465760405162461bcd60e51b81526004016102c590613a02565b610c8e85610c8986868080601f0160208091040260200160405190810160405280939291908181526020018383808284376000920191909152506116c792505050565b6116dd565b5050505050565b336001600160a01b037f00000000000000000000000000000000000000000000000000000000000000001614610cdd5760405162461bcd60e51b81526004016102c590613a02565b6000806060610cea612905565b610d2988888080601f0160208091040260200160405190810160405280939291908181526020018383808284376000920191909152506111d592505050565b945050935093509350610d3f8985858585611427565b6107f089610d4c866113fc565b611134565b7f0e7f692dad5b88fdee426250d6eae91207e56a2e8112b7364579bed1790e5bf481565b600060608080806001600160e01b0319881663099f751560e01b1415610dae57610d9f87876116eb565b94509450945094509450610de8565b6001600160e01b0319881663c29fa9dd60e01b1415610dd157610d9f87876117f8565b610ddd898989896118d5565b945094509450945094505b945094509450945094565b7f000000000000000000000000000000000000000000000000000000000000000090565b7f000000000000000000000000000000000000000000000000000000000000000090565b7fc29fa9dde84204c2908778afd0613d802d31cf046179b88f6d2b4a4e507ea2d581565b336001600160a01b037f00000000000000000000000000000000000000000000000000000000000000001614610ea75760405162461bcd60e51b81526004016102c590613a02565b600080610ee986868080601f01602080910402602001604051908101604052809392919081815260200183838082843760009201919091525061140792505050565b91509150610a47878383611108565b600060608060608085806020019051810190610f14919061305d565b939a9299509097509550909350915050565b610f3082826119c4565b6001600160a01b0383163014610f5e57610f5e8382610f4e85611a26565b6001600160a01b03169190611a99565b50505050565b604051636eb1769f60e11b81526000906001600160a01b0385169063dd62ed3e90610f959030908790600401613867565b60206040518083038186803b158015610fad57600080fd5b505afa158015610fc1573d6000803e3d6000fd5b505050506040513d601f19601f82011682018060405250810190610fe59190613121565b905081811015610f5e57801561100a5761100a6001600160a01b038516846000611aef565b610f5e6001600160a01b03851684600019611aef565b606061102a61292f565b50604080516080810182526001600160a01b03808a168252600060208301819052898216838501526060830152915163945bcec960e01b815290917f0000000000000000000000000000000000000000000000000000000000000000169063945bcec9906110a69089908990899087908a90429060040161394b565b600060405180830381600087803b1580156110c057600080fd5b505af11580156110d4573d6000803e3d6000fd5b505050506040513d6000823e601f3d908101601f191682016040526110fc9190810190612f51565b98975050505050505050565b61111b8261111584611a26565b83611bb2565b61112f6001600160a01b0383168483611a99565b505050565b6040516370a0823160e01b81526000906001600160a01b038316906370a0823190611163903090600401613859565b60206040518083038186803b15801561117b57600080fd5b505afa15801561118f573d6000803e3d6000fd5b505050506040513d601f19601f820116820180604052508101906111b39190613121565b905080156111cf576111cf6001600160a01b0383168483611a99565b92915050565b6000806060806111e3612905565b85806020019051810190610f149190612fa3565b60005b835181101561125c5761125484828151811061121257fe5b60200260200101517f000000000000000000000000000000000000000000000000000000000000000085848151811061124757fe5b6020026020010151610f64565b6001016111fa565b50610c8e84308784611c19565b606081516001600160401b038111801561128257600080fd5b506040519080825280602002602001820160405280156112ac578160200160208202803683370190505b50905060005b82518110156113bd5760008382815181106112c957fe5b60200260200101519050806001600160a01b03166370a08231306040518263ffffffff1660e01b81526004016112ff9190613859565b60206040518083038186803b15801561131757600080fd5b505afa15801561132b573d6000803e3d6000fd5b505050506040513d601f19601f8201168201806040525081019061134f9190613121565b83838151811061135b57fe5b602002602001018181525050600083838151811061137557fe5b602002602001015111156113b4576113b48584848151811061139357fe5b6020026020010151836001600160a01b0316611a999092919063ffffffff16565b506001016112b2565b5092915050565b60008060006060806113d4612905565b868060200190518101906113e89190612d5f565b949c939b5091995097509550909350915050565b606081901c5b919050565b6000808280602001905181019061141e9190612e2b565b91509150915091565b61145a611433856113fc565b7f000000000000000000000000000000000000000000000000000000000000000085610f64565b815181515103606081156115a0578251516001600160401b038111801561148057600080fd5b506040519080825280602002602001820160405280156114aa578160200160208202803683370190505b5090508160005b811561159d576114e1856000015182815181106114ca57fe5b602002602001015187611c9990919063ffffffff16565b6115955784518051829081106114f357fe5b60200260200101516001600160a01b03166370a082318a6040518263ffffffff1660e01b81526004016115269190613859565b60206040518083038186803b15801561153e57600080fd5b505afa158015611552573d6000803e3d6000fd5b505050506040513d601f19601f820116820180604052508101906115769190613121565b83828151811061158257fe5b6020908102919091010152600019909101905b6001016114b1565b50505b6115ac86308986611cef565b8115610a475760005b82156116bd576115e5846000015182815181106115ce57fe5b602002602001015186611c9990919063ffffffff16565b6116b5578181815181106115f557fe5b60200260200101518460000151828151811061160d57fe5b60200260200101516001600160a01b03166370a082318a6040518263ffffffff1660e01b81526004016116409190613859565b60206040518083038186803b15801561165857600080fd5b505afa15801561166c573d6000803e3d6000fd5b505050506040513d601f19601f820116820180604052508101906116909190613121565b146116ad5760405162461bcd60e51b81526004016102c5906139c2565b600019909201915b6001016115b5565b5050505050505050565b6000818060200190518101906111cf9190612d39565b6116e78183611d41565b5050565b6040805160018082528183019092526000916060918291829182916020808301908036833750506040805160018082528183019092529294509050602080830190803683370190505090506000611740612905565b61177f89898080601f0160208091040260200160405190810160405280939291908181526020018383808284376000920191909152506111d592505050565b8760008151811061178c57fe5b60209081029190910101939093526060830151919950975091935091506117b290611dd9565b6117bb826113fc565b846000815181106117c857fe5b60200260200101906001600160a01b031690816001600160a01b0316815250506002965050509295509295909350565b604080516001808252818301909252600091606091829182918291602080830190803683375050604080516001808252818301909252929650905060208083019080368337019050509250600061184d612905565b61188c89898080601f0160208091040260200160405190810160405280939291908181526020018383808284376000920191909152506111d592505050565b8960008151811061189957fe5b60209081029190910101939093526060830151919750955091935091506118bf90611dd9565b6118c8826113fc565b866000815181106117c857fe5b600060608080806001600160e01b03198816632e77eeb360e21b14156118fd57610d9f611dfa565b6001600160e01b031988166314fd023760e11b141561192057610d9f8787611e5a565b6001600160e01b03198816638334eb9960e01b141561194357610d9f8787611f6d565b6001600160e01b031988166303e38a2b60e01b141561196657610d9f878761204f565b6001600160e01b0319881663fa7dd04d60e01b141561198957610d9f878761241d565b6001600160e01b031988166368e3067760e01b14156119ac57610d9f8787612594565b60405162461bcd60e51b81526004016102c590613a62565b604051632e1a7d4d60e01b81526001600160a01b03831690632e1a7d4d906119f0908490600401613a72565b600060405180830381600087803b158015611a0a57600080fd5b505af1158015611a1e573d6000803e3d6000fd5b505050505050565b6000816001600160a01b03166382c630666040518163ffffffff1660e01b815260040160206040518083038186803b158015611a6157600080fd5b505afa158015611a75573d6000803e3d6000fd5b505050506040513d601f19601f820116820180604052508101906111cf9190612d39565b61112f8363a9059cbb60e01b8484604051602401611ab8929190613882565b60408051601f198184030181529190526020810180516001600160e01b03166001600160e01b0319909316929092179091526126c1565b801580611b775750604051636eb1769f60e11b81526001600160a01b0384169063dd62ed3e90611b259030908690600401613867565b60206040518083038186803b158015611b3d57600080fd5b505afa158015611b51573d6000803e3d6000fd5b505050506040513d601f19601f82011682018060405250810190611b759190613121565b155b611b935760405162461bcd60e51b81526004016102c590613a52565b61112f8363095ea7b360e01b8484604051602401611ab8929190613882565b611bbd828483610f64565b604051636e553f6560e01b81526001600160a01b03841690636e553f6590611beb9084903090600401613a80565b600060405180830381600087803b158015611c0557600080fd5b505af1158015610a47573d6000803e3d6000fd5b60405163172b958560e31b81526001600160a01b037f0000000000000000000000000000000000000000000000000000000000000000169063b95cac2890611c6b90879087908790879060040161389d565b600060405180830381600087803b158015611c8557600080fd5b505af11580156116bd573d6000803e3d6000fd5b6000805b8351811015611ce557838181518110611cb257fe5b60200260200101516001600160a01b0316836001600160a01b03161415611cdd5760019150506111cf565b600101611c9d565b5060009392505050565b604051638bdb391360e01b81526001600160a01b037f00000000000000000000000000000000000000000000000000000000000000001690638bdb391390611c6b90879087908790879060040161389d565b611d49612750565b15611dcf576040516327f18ae360e01b81526001600160a01b037f000000000000000000000000000000000000000000000000000000000000000016906327f18ae390611d9c9085908590600401613867565b600060405180830381600087803b158015611db657600080fd5b505af1158015611dca573d6000803e3d6000fd5b505050505b6116e7828261277f565b8015611df75760405162461bcd60e51b81526004016102c590613a22565b50565b600060608080808480604051908082528060200260200182016040528015611e2c578160200160208202803683370190505b5060408051600080825260208201818152828401918252606083019093529399929850965094509092509050565b604080516001808252818301909252600091606091829182918291602080830190803683375050604080516001808252818301909252929450905060208083019080368337019050509050600080611eb0612905565b611eef8a8a8080601f0160208091040260200160405190810160405280939291908181526020018383808284376000920191909152506113c492505050565b89600081518110611efc57fe5b6020908102919091010193909352909a5098509094509092509050611f2182846127ab565b611f2e8160600151611dd9565b8185600081518110611f3c57fe5b60200260200101906001600160a01b031690816001600160a01b031681525050600297505050509295509295909350565b604080516001808252818301909252600091606091829182918291602080830190803683375050604080516001808252818301909252929650905060208083019080368337019050509250600080611fc3612905565b6120028a8a8080601f0160208091040260200160405190810160405280939291908181526020018383808284376000920191909152506113c492505050565b8b60008151811061200f57fe5b60209081029190910101939093529098509650909450909250905061203482846127ab565b6120418160600151611dd9565b8187600081518110611f3c57fe5b6000606080606080606080606061209b8a8a8080601f016020809104026020016040519081016040528093929190818152602001838380828437600092019190915250610ef892505050565b945094509450505060008060005b85518110156121045760008582815181106120c057fe5b602002602001015113156120d9576001909201916120fc565b60008582815181106120e757fe5b602002602001015112156120fc576001909101905b6001016120a9565b50816001600160401b038111801561211b57600080fd5b50604051908082528060200260200182016040528015612145578160200160208202803683370190505b509850816001600160401b038111801561215e57600080fd5b50604051908082528060200260200182016040528015612188578160200160208202803683370190505b509750806001600160401b03811180156121a157600080fd5b506040519080825280602002602001820160405280156121cb578160200160208202803683370190505b509650806001600160401b03811180156121e457600080fd5b5060405190808252806020026020018201604052801561220e578160200160208202803683370190505b50955060005b855181101561240957600085828151811061222b57fe5b60200260200101519050600081131561231b57600087838151811061224c57fe5b60200260200101519050600086848151811061226457fe5b6020026020010151905060006001600160a01b0316816001600160a01b0316146122c55761229181611a26565b6001600160a01b0316826001600160a01b0316146122c15760405162461bcd60e51b81526004016102c5906139d2565b8091505b858060019003965050818d87815181106122db57fe5b60200260200101906001600160a01b031690816001600160a01b031681525050828c878151811061230857fe5b6020026020010181815250505050612400565b600081121561240057600087838151811061233257fe5b60200260200101519050600086848151811061234a57fe5b6020026020010151905060006001600160a01b0316816001600160a01b0316146123ab5761237781611a26565b6001600160a01b0316826001600160a01b0316146123a75760405162461bcd60e51b81526004016102c5906139d2565b8091505b848060019003955050818b86815181106123c157fe5b60200260200101906001600160a01b031690816001600160a01b031681525050826000038a86815181106123f157fe5b60200260200101818152505050505b50600101612214565b506002995050505050509295509295909350565b600060608060608060008061246789898080601f01602080910402602001604051908101604052809392919081815260200183838082843760009201919091525061140792505050565b604080516001808252818301909252929450909250602080830190803683375050604080516001808252818301909252929850905060208083019080368337505060408051600180825281830190925292975090506020808301908036833750506040805160018082528183019092529296509050602080830190803683370190505092506124f582611a26565b8660008151811061250257fe5b60200260200101906001600160a01b031690816001600160a01b031681525050808560008151811061253057fe5b602002602001018181525050818460008151811061254a57fe5b60200260200101906001600160a01b031690816001600160a01b031681525050808360008151811061257857fe5b6020026020010181815250506002965050509295509295909350565b60006060806060806000806125de89898080601f01602080910402602001604051908101604052809392919081815260200183838082843760009201919091525061140792505050565b60408051600180825281830190925292945090925060208083019080368337505060408051600180825281830190925292985090506020808301908036833750506040805160018082528183019092529297509050602080830190803683375050604080516001808252818301909252929650905060208083019080368337019050509250818660008151811061267157fe5b60200260200101906001600160a01b031690816001600160a01b031681525050808560008151811061269f57fe5b6020026020010181815250506126b482611a26565b8460008151811061254a57fe5b6060612716826040518060400160405280602081526020017f5361666545524332303a206c6f772d6c6576656c2063616c6c206661696c6564815250856001600160a01b03166127ec9092919063ffffffff16565b80519091501561112f57808060200190518101906127349190612f85565b61112f5760405162461bcd60e51b81526004016102c590613a42565b7f00000000000000000000000000000000000000000000000000000000000000006001600160a01b0316151590565b604051634274debf60e11b81526001600160a01b038316906384e9bd7e906119f0908490600401613859565b6127b4816113fc565b6001600160a01b03166127c683611a26565b6001600160a01b0316146116e75760405162461bcd60e51b81526004016102c5906139e2565b60606127fb8484600085612805565b90505b9392505050565b6060824710156128275760405162461bcd60e51b81526004016102c5906139f2565b612830856128c6565b61284c5760405162461bcd60e51b81526004016102c590613a32565b60006060866001600160a01b03168587604051612869919061384d565b60006040518083038185875af1925050503d80600081146128a6576040519150601f19603f3d011682016040523d82523d6000602084013e6128ab565b606091505b50915091506128bb8282866128cc565b979650505050505050565b3b151590565b606083156128db5750816127fe565b8251156128eb5782518084602001fd5b8160405162461bcd60e51b81526004016102c591906139b1565b60405180608001604052806060815260200160608152602001606081526020016000151581525090565b60408051608081018252600080825260208201819052918101829052606081019190915290565b80356111cf81613bae565b80516111cf81613bae565b600082601f83011261297d57600080fd5b815161299061298b82613ab4565b613a8e565b915081818352602084019350602081019050838560208402820111156129b557600080fd5b60005b838110156129e157816129cb8882612961565b84525060209283019291909101906001016129b8565b5050505092915050565b600082601f8301126129fc57600080fd5b8151612a0a61298b82613ab4565b91508181835260208401935060208101905083856020840282011115612a2f57600080fd5b60005b838110156129e15781612a458882612b33565b8452506020928301929190910190600101612a32565b600082601f830112612a6c57600080fd5b8151612a7a61298b82613ab4565b81815260209384019390925082018360005b838110156129e15781518601612aa28882612beb565b8452506020928301929190910190600101612a8c565b600082601f830112612ac957600080fd5b8151612ad761298b82613ab4565b91508181835260208401935060208101905083856020840282011115612afc57600080fd5b60005b838110156129e15781612b128882612b33565b8452506020928301929190910190600101612aff565b80516111cf81613bc2565b80516111cf81613bcb565b80356111cf81613bd4565b60008083601f840112612b5b57600080fd5b5081356001600160401b03811115612b7257600080fd5b602083019150836001820283011115612b8a57600080fd5b9250929050565b600082601f830112612ba257600080fd5b8151612bb061298b82613ad4565b91508082526020830160208301858383011115612bcc57600080fd5b612bd7838284613b64565b50505092915050565b80516111cf81613bdd565b600060a08284031215612bfd57600080fd5b612c0760a0613a8e565b90506000612c158484612b33565b8252506020612c2684848301612b33565b6020830152506040612c3a84828501612b33565b6040830152506060612c4e84828501612b33565b60608301525060808201516001600160401b03811115612c6d57600080fd5b612c7984828501612b91565b60808301525092915050565b600060808284031215612c9757600080fd5b612ca16080613a8e565b82519091506001600160401b03811115612cba57600080fd5b612cc68482850161296c565b82525060208201516001600160401b03811115612ce257600080fd5b612cee84828501612ab8565b60208301525060408201516001600160401b03811115612d0d57600080fd5b612d1984828501612b91565b6040830152506060612d2d84828501612b28565b60608301525092915050565b600060208284031215612d4b57600080fd5b6000612d578484612961565b949350505050565b60008060008060008060c08789031215612d7857600080fd5b6000612d848989612961565b9650506020612d9589828a01612b33565b9550506040612da689828a01612b33565b94505060608701516001600160401b03811115612dc257600080fd5b612dce89828a0161296c565b93505060808701516001600160401b03811115612dea57600080fd5b612df689828a01612ab8565b92505060a08701516001600160401b03811115612e1257600080fd5b612e1e89828a01612c85565b9150509295509295509295565b60008060408385031215612e3e57600080fd5b6000612e4a8585612961565b9250506020612e5b85828601612b33565b9150509250929050565b60008060008060608587031215612e7b57600080fd5b6000612e878787612956565b9450506020612e9887828801612b3e565b93505060408501356001600160401b03811115612eb457600080fd5b612ec087828801612b49565b95989497509550505050565b600080600080600060608688031215612ee457600080fd5b6000612ef08888612956565b95505060208601356001600160401b03811115612f0c57600080fd5b612f1888828901612b49565b945094505060408601356001600160401b03811115612f3657600080fd5b612f4288828901612b49565b92509250509295509295909350565b600060208284031215612f6357600080fd5b81516001600160401b03811115612f7957600080fd5b612d57848285016129eb565b600060208284031215612f9757600080fd5b6000612d578484612b28565b600080600080600060a08688031215612fbb57600080fd5b6000612fc78888612b33565b9550506020612fd888828901612b33565b94505060408601516001600160401b03811115612ff457600080fd5b6130008882890161296c565b93505060608601516001600160401b0381111561301c57600080fd5b61302888828901612ab8565b92505060808601516001600160401b0381111561304457600080fd5b61305088828901612c85565b9150509295509295909350565b600080600080600060a0868803121561307557600080fd5b60006130818888612be0565b95505060208601516001600160401b0381111561309d57600080fd5b6130a988828901612a5b565b94505060408601516001600160401b038111156130c557600080fd5b6130d18882890161296c565b93505060608601516001600160401b038111156130ed57600080fd5b6130f9888289016129eb565b92505060808601516001600160401b0381111561311557600080fd5b6130508882890161296c565b60006020828403121561313357600080fd5b6000612d578484612b33565b600061314b838361316b565b505060200190565b600061314b8383613382565b60006127fe838361372c565b61317481613b0e565b82525050565b600061318582613b01565b61318f8185613b05565b935061319a83613afb565b8060005b838110156131c85781516131b2888261313f565b97506131bd83613afb565b92505060010161319e565b509495945050505050565b60006131de82613b01565b6131e88185613b05565b93506131f383613afb565b8060005b838110156131c857815161320b888261313f565b975061321683613afb565b9250506001016131f7565b600061322c82613b01565b6132368185613b05565b935061324183613afb565b8060005b838110156131c85781516132598882613153565b975061326483613afb565b925050600101613245565b600061327a82613b01565b6132848185613b05565b93508360208202850161329685613afb565b8060005b858110156132d057848403895281516132b3858261315f565b94506132be83613afb565b60209a909a019992505060010161329a565b5091979650505050505050565b60006132e882613b01565b6132f28185613b05565b93506132fd83613afb565b8060005b838110156131c85781516133158882613153565b975061332083613afb565b925050600101613301565b600061333682613b01565b6133408185613b05565b935061334b83613afb565b8060005b838110156131c85781516133638882613153565b975061336e83613afb565b92505060010161334f565b61317481613b19565b61317481613b1e565b61317481613b21565b600061339f82613b01565b6133a98185613b05565b93506133b9818560208601613b64565b6133c281613b90565b9093019392505050565b60006133d782613b01565b6133e18185611402565b93506133f1818560208601613b64565b9290920192915050565b61317481613b4e565b61317481613b59565b600061341a602b83613b05565b7f5f5f62616c616e63657252656465656d3a20556e65787065637465642061737381526a195d081c9958d95a5d995960aa1b602082015260400192915050565b6000613467602783613b05565b7f5f5f7061727365417373657473466f7254616b654f726465723a20425054206d8152660d2e6dac2e8c6d60cb1b602082015260400192915050565b60006134b0602583613b05565b7f5f5f76616c6964617465427074466f725374616b696e67546f6b656e3a20496e8152641d985b1a5960da1b602082015260400192915050565b60006134f7602683613b05565b7f416464726573733a20696e73756666696369656e742062616c616e636520666f8152651c8818d85b1b60d21b602082015260400192915050565b600061353f603283613b05565b7f4f6e6c792074686520496e746567726174696f6e4d616e616765722063616e2081527131b0b636103a3434b990333ab731ba34b7b760711b602082015260400192915050565b6000613593602083613b05565b7f74616b654f726465723a206c6566746f76657220696e7465726d656469617279815260200192915050565b60006135cc602583613b05565b7f5f5f76616c69646174654e6f496e7465726e616c42616c616e6365733a20496e8152641d985b1a5960da1b602082015260400192915050565b6000613613601d83613b05565b7f416464726573733a2063616c6c20746f206e6f6e2d636f6e7472616374000000815260200192915050565b600061364c602a83613b05565b7f5361666545524332303a204552433230206f7065726174696f6e20646964206e8152691bdd081cdd58d8d9595960b21b602082015260400192915050565b6000613698603683613b05565b7f5361666545524332303a20617070726f76652066726f6d206e6f6e2d7a65726f81527520746f206e6f6e2d7a65726f20616c6c6f77616e636560501b602082015260400192915050565b60006136f0602783613b05565b7f7061727365417373657473466f72416374696f6e3a205f73656c6563746f72208152661a5b9d985b1a5960ca1b602082015260400192915050565b805160009060a08401906137408582613382565b5060208301516137536020860182613382565b5060408301516137666040860182613382565b5060608301516137796060860182613382565b50608083015184820360808601526137918282613394565b95945050505050565b805160808301906137ab848261316b565b5060208201516137be6020850182613379565b5060408201516137d1604085018261316b565b506060820151610f5e6060850182613379565b80516080808452600091908401906137fc828261317a565b9150506020830151848203602086015261381682826132dd565b915050604083015184820360408601526138308282613394565b91505060608301516138456060860182613379565b509392505050565b60006127fe82846133cc565b602081016111cf828461316b565b60408101613875828561316b565b6127fe602083018461316b565b60408101613890828561316b565b6127fe6020830184613382565b608081016138ab8287613382565b6138b8602083018661316b565b6138c5604083018561316b565b81810360608301526138d781846137e4565b9695505050505050565b602081016111cf828461338b565b60a081016138fd82886133fb565b818103602083015261390f81876131d3565b90508181036040830152613923818661332b565b9050818103606083015261393781856131d3565b905081810360808301526128bb818461332b565b610120810161395a8289613404565b818103602083015261396c818861326f565b9050818103604083015261398081876131d3565b905061398f606083018661379a565b81810360e08301526139a18185613221565b90506128bb610100830184613382565b602080825281016127fe8184613394565b602080825281016111cf8161340d565b602080825281016111cf8161345a565b602080825281016111cf816134a3565b602080825281016111cf816134ea565b602080825281016111cf81613532565b602080825281016111cf81613586565b602080825281016111cf816135bf565b602080825281016111cf81613606565b602080825281016111cf8161363f565b602080825281016111cf8161368b565b602080825281016111cf816136e3565b602081016111cf8284613382565b604081016138758285613382565b6040518181016001600160401b0381118282101715613aac57600080fd5b604052919050565b60006001600160401b03821115613aca57600080fd5b5060209081020190565b60006001600160401b03821115613aea57600080fd5b506020601f91909101601f19160190565b60200190565b5190565b90815260200190565b60006111cf82613b42565b151590565b90565b6001600160e01b03191690565b8061140281613b9a565b8061140281613ba4565b6001600160a01b031690565b60006111cf82613b2e565b60006111cf82613b38565b60005b83811015613b7f578181015183820152602001613b67565b83811115610f5e5750506000910152565b601f01601f191690565b60038110611df757fe5b60028110611df757fe5b613bb781613b0e565b8114611df757600080fd5b613bb781613b19565b613bb781613b1e565b613bb781613b21565b60028110611df757600080fdfea164736f6c634300060c000a","linkReferences":{}},"methodIdentifiers":{"CLAIM_REWARDS_SELECTOR()":"40da225d","LEND_AND_STAKE_SELECTOR()":"131461c0","LEND_SELECTOR()":"257cb1a3","REDEEM_SELECTOR()":"f7d882b5","STAKE_SELECTOR()":"3ffc1591","TAKE_MULTIPLE_ORDERS_SELECTOR()":"c32990a2","TAKE_ORDER_SELECTOR()":"863e5ad0","UNSTAKE_AND_REDEEM_SELECTOR()":"080456c1","UNSTAKE_SELECTOR()":"b23228cf","claimRewards(address,bytes,bytes)":"b9dfbacc","getCurveGaugeV2RewardsHandlerCrvToken()":"332d709f","getCurveGaugeV2RewardsHandlerMinter()":"f003eb85","getIntegrationManager()":"e7c45690","lend(address,bytes,bytes)":"099f7515","lendAndStake(address,bytes,bytes)":"29fa046e","parseAssetsForAction(address,bytes4,bytes)":"c54efee5","redeem(address,bytes,bytes)":"c29fa9dd","stake(address,bytes,bytes)":"fa7dd04d","takeOrder(address,bytes,bytes)":"03e38a2b","unstake(address,bytes,bytes)":"68e30677","unstakeAndRedeem(address,bytes,bytes)":"8334eb99"},"id":209}