{"abi":[{"type":"constructor","inputs":[{"name":"_integrationManager","type":"address","internalType":"address"},{"name":"_balancerVault","type":"address","internalType":"address"},{"name":"_balancerMinter","type":"address","internalType":"address"},{"name":"_balToken","type":"address","internalType":"address"}],"stateMutability":"nonpayable"},{"type":"function","name":"CLAIM_REWARDS_SELECTOR","inputs":[],"outputs":[{"name":"","type":"bytes4","internalType":"bytes4"}],"stateMutability":"view"},{"type":"function","name":"LEND_AND_STAKE_SELECTOR","inputs":[],"outputs":[{"name":"","type":"bytes4","internalType":"bytes4"}],"stateMutability":"view"},{"type":"function","name":"LEND_SELECTOR","inputs":[],"outputs":[{"name":"","type":"bytes4","internalType":"bytes4"}],"stateMutability":"view"},{"type":"function","name":"REDEEM_SELECTOR","inputs":[],"outputs":[{"name":"","type":"bytes4","internalType":"bytes4"}],"stateMutability":"view"},{"type":"function","name":"STAKE_SELECTOR","inputs":[],"outputs":[{"name":"","type":"bytes4","internalType":"bytes4"}],"stateMutability":"view"},{"type":"function","name":"TAKE_MULTIPLE_ORDERS_SELECTOR","inputs":[],"outputs":[{"name":"","type":"bytes4","internalType":"bytes4"}],"stateMutability":"view"},{"type":"function","name":"TAKE_ORDER_SELECTOR","inputs":[],"outputs":[{"name":"","type":"bytes4","internalType":"bytes4"}],"stateMutability":"view"},{"type":"function","name":"UNSTAKE_AND_REDEEM_SELECTOR","inputs":[],"outputs":[{"name":"","type":"bytes4","internalType":"bytes4"}],"stateMutability":"view"},{"type":"function","name":"UNSTAKE_SELECTOR","inputs":[],"outputs":[{"name":"","type":"bytes4","internalType":"bytes4"}],"stateMutability":"view"},{"type":"function","name":"claimRewards","inputs":[{"name":"_vaultProxy","type":"address","internalType":"address"},{"name":"_actionData","type":"bytes","internalType":"bytes"},{"name":"","type":"bytes","internalType":"bytes"}],"outputs":[],"stateMutability":"nonpayable"},{"type":"function","name":"getCurveGaugeV2RewardsHandlerCrvToken","inputs":[],"outputs":[{"name":"crvToken_","type":"address","internalType":"address"}],"stateMutability":"view"},{"type":"function","name":"getCurveGaugeV2RewardsHandlerMinter","inputs":[],"outputs":[{"name":"minter_","type":"address","internalType":"address"}],"stateMutability":"view"},{"type":"function","name":"getIntegrationManager","inputs":[],"outputs":[{"name":"integrationManager_","type":"address","internalType":"address"}],"stateMutability":"view"},{"type":"function","name":"lend","inputs":[{"name":"_vaultProxy","type":"address","internalType":"address"},{"name":"_actionData","type":"bytes","internalType":"bytes"},{"name":"","type":"bytes","internalType":"bytes"}],"outputs":[],"stateMutability":"nonpayable"},{"type":"function","name":"lendAndStake","inputs":[{"name":"_vaultProxy","type":"address","internalType":"address"},{"name":"_actionData","type":"bytes","internalType":"bytes"},{"name":"","type":"bytes","internalType":"bytes"}],"outputs":[],"stateMutability":"nonpayable"},{"type":"function","name":"parseAssetsForAction","inputs":[{"name":"_vaultProxy","type":"address","internalType":"address"},{"name":"_selector","type":"bytes4","internalType":"bytes4"},{"name":"_actionData","type":"bytes","internalType":"bytes"}],"outputs":[{"name":"spendAssetsHandleType_","type":"uint8","internalType":"enum IIntegrationManager.SpendAssetsHandleType"},{"name":"spendAssets_","type":"address[]","internalType":"address[]"},{"name":"spendAssetAmounts_","type":"uint256[]","internalType":"uint256[]"},{"name":"incomingAssets_","type":"address[]","internalType":"address[]"},{"name":"minIncomingAssetAmounts_","type":"uint256[]","internalType":"uint256[]"}],"stateMutability":"view"},{"type":"function","name":"redeem","inputs":[{"name":"_vaultProxy","type":"address","internalType":"address"},{"name":"_actionData","type":"bytes","internalType":"bytes"},{"name":"","type":"bytes","internalType":"bytes"}],"outputs":[],"stateMutability":"nonpayable"},{"type":"function","name":"stake","inputs":[{"name":"_vaultProxy","type":"address","internalType":"address"},{"name":"_actionData","type":"bytes","internalType":"bytes"},{"name":"","type":"bytes","internalType":"bytes"}],"outputs":[],"stateMutability":"nonpayable"},{"type":"function","name":"takeOrder","inputs":[{"name":"_vaultProxy","type":"address","internalType":"address"},{"name":"_actionData","type":"bytes","internalType":"bytes"},{"name":"","type":"bytes","internalType":"bytes"}],"outputs":[],"stateMutability":"nonpayable"},{"type":"function","name":"unstake","inputs":[{"name":"_vaultProxy","type":"address","internalType":"address"},{"name":"_actionData","type":"bytes","internalType":"bytes"},{"name":"","type":"bytes","internalType":"bytes"}],"outputs":[],"stateMutability":"nonpayable"},{"type":"function","name":"unstakeAndRedeem","inputs":[{"name":"_vaultProxy","type":"address","internalType":"address"},{"name":"_actionData","type":"bytes","internalType":"bytes"},{"name":"","type":"bytes","internalType":"bytes"}],"outputs":[],"stateMutability":"nonpayable"}],"bytecode":{"object":"0x6101006040523480156200001257600080fd5b5060405162005a6038038062005a60833981810160405281019062000038919062000141565b8181858580828073ffffffffffffffffffffffffffffffffffffffff1660808173ffffffffffffffffffffffffffffffffffffffff1660601b81525050508073ffffffffffffffffffffffffffffffffffffffff1660a08173ffffffffffffffffffffffffffffffffffffffff1660601b815250505050508073ffffffffffffffffffffffffffffffffffffffff1660c08173ffffffffffffffffffffffffffffffffffffffff1660601b815250508173ffffffffffffffffffffffffffffffffffffffff1660e08173ffffffffffffffffffffffffffffffffffffffff1660601b81525050505050505050620001fb565b6000815190506200013b81620001e1565b92915050565b600080600080608085870312156200015857600080fd5b600062000168878288016200012a565b94505060206200017b878288016200012a565b93505060406200018e878288016200012a565b9250506060620001a1878288016200012a565b91505092959194509250565b6000620001ba82620001c1565b9050919050565b600073ffffffffffffffffffffffffffffffffffffffff82169050919050565b620001ec81620001ad565b8114620001f857600080fd5b50565b60805160601c60a05160601c60c05160601c60e05160601c6157d8620002886000398061139b5280612a0a52806139cc525080610ca652508061056b52806116ff52806119295280611b7b528061285852806129665250806103ba52806109955280610af15280610d145280610e0b528061101e5280611109528061137352806113e552506157d86000f3fe608060405234801561001057600080fd5b50600436106101375760003560e01c80638334eb99116100b8578063c32990a21161007c578063c32990a2146102f0578063c54efee51461030e578063e7c4569014610342578063f003eb8514610360578063f7d882b51461037e578063fa7dd04d1461039c57610137565b80638334eb9914610260578063863e5ad01461027c578063b23228cf1461029a578063b9dfbacc146102b8578063c29fa9dd146102d457610137565b806329fa046e116100ff57806329fa046e146101ce578063332d709f146101ea5780633ffc15911461020857806340da225d1461022657806368e306771461024457610137565b806303e38a2b1461013c578063080456c114610158578063099f751514610176578063131461c014610192578063257cb1a3146101b0575b600080fd5b610156600480360381019061015191906143a1565b6103b8565b005b61016061096f565b60405161016d91906150ce565b60405180910390f35b610190600480360381019061018b91906143a1565b610993565b005b61019a610aa7565b6040516101a791906150ce565b60405180910390f35b6101b8610acb565b6040516101c591906150ce565b60405180910390f35b6101e860048036038101906101e391906143a1565b610aef565b005b6101f2610ca2565b6040516101ff9190614fc9565b60405180910390f35b610210610cca565b60405161021d91906150ce565b60405180910390f35b61022e610cee565b60405161023b91906150ce565b60405180910390f35b61025e600480360381019061025991906143a1565b610d12565b005b61027a600480360381019061027591906143a1565b610e09565b005b610284610fd4565b60405161029191906150ce565b60405180910390f35b6102a2610ff8565b6040516102af91906150ce565b60405180910390f35b6102d260048036038101906102cd91906143a1565b61101c565b005b6102ee60048036038101906102e991906143a1565b611107565b005b6102f8611223565b60405161030591906150ce565b60405180910390f35b61032860048036038101906103239190614335565b611247565b6040516103399594939291906150e9565b60405180910390f35b61034a61136f565b6040516103579190614fc9565b60405180910390f35b610368611397565b6040516103759190614fc9565b60405180910390f35b6103866113bf565b60405161039391906150ce565b60405180910390f35b6103b660048036038101906103b191906143a1565b6113e3565b005b7f000000000000000000000000000000000000000000000000000000000000000073ffffffffffffffffffffffffffffffffffffffff163373ffffffffffffffffffffffffffffffffffffffff1614610446576040517f08c379a000000000000000000000000000000000000000000000000000000000815260040161043d90615272565b60405180910390fd5b600060608060608061049b89898080601f016020809104026020016040519081016040528093929190818152602001838380828437600081840152601f19601f820116905080830192505050505050506114d9565b945094509450945094506000808451905060005b818110156106115760008582815181106104c557fe5b602002602001015113156105965760008582815181106104e157fe5b60200260200101519050600073ffffffffffffffffffffffffffffffffffffffff1685838151811061050f57fe5b602002602001015173ffffffffffffffffffffffffffffffffffffffff161461055257610551303087858151811061054357fe5b602002602001015184611508565b5b61059087838151811061056157fe5b60200260200101517f00000000000000000000000000000000000000000000000000000000000000008361157f565b50610604565b60008582815181106105a457fe5b60200260200101511280156105f95750600073ffffffffffffffffffffffffffffffffffffffff168482815181106105d857fe5b602002602001015173ffffffffffffffffffffffffffffffffffffffff1614155b1561060357600192505b5b80806001019150506104af565b50606061062e3084610623578e610625565b305b8a8a8a8a61169e565b905060005b8281101561095f57600086828151811061064957fe5b602002602001015113156107ae57600073ffffffffffffffffffffffffffffffffffffffff1685828151811061067b57fe5b602002602001015173ffffffffffffffffffffffffffffffffffffffff16141580156106bc57506001808111156106ae57fe5b8960018111156106ba57fe5b145b1561078b5760008782815181106106cf57fe5b602002602001015173ffffffffffffffffffffffffffffffffffffffff166370a08231306040518263ffffffff1660e01b815260040161070f9190614fc9565b60206040518083038186803b15801561072757600080fd5b505afa15801561073b573d6000803e3d6000fd5b505050506040513d601f19601f8201168201806040525081019061075f919061462a565b90506000811115610789576107888f87848151811061077a57fe5b6020026020010151836117c4565b5b505b6107a88e88838151811061079b57fe5b6020026020010151611807565b50610952565b60008682815181106107bc57fe5b602002602001015112156108fa57600073ffffffffffffffffffffffffffffffffffffffff168582815181106107ee57fe5b602002602001015173ffffffffffffffffffffffffffffffffffffffff16146108cf576108ca8e86838151811061082157fe5b602002602001015189848151811061083557fe5b602002602001015173ffffffffffffffffffffffffffffffffffffffff166370a08231306040518263ffffffff1660e01b81526004016108759190614fc9565b60206040518083038186803b15801561088d57600080fd5b505afa1580156108a1573d6000803e3d6000fd5b505050506040513d601f19601f820116820180604052508101906108c5919061462a565b6117c4565b6108f5565b83156108f4576108f28e8883815181106108e557fe5b6020026020010151611807565b505b5b610951565b600082828151811061090857fe5b602002602001015114610950576040517f08c379a000000000000000000000000000000000000000000000000000000000815260040161094790615292565b60405180910390fd5b5b5b8080600101915050610633565b5050505050505050505050505050565b7f8334eb99be0145865eba9889fca2ee920288090caefff4cc776038e20ad9259a81565b7f000000000000000000000000000000000000000000000000000000000000000073ffffffffffffffffffffffffffffffffffffffff163373ffffffffffffffffffffffffffffffffffffffff1614610a21576040517f08c379a0000000000000000000000000000000000000000000000000000000008152600401610a1890615272565b60405180910390fd5b6000606080610a2e613ca0565b610a7b88888080601f016020809104026020016040519081016040528093929190818152602001838380828437600081840152601f19601f820116905080830192505050505050506118cf565b945094509450509350610a918985858585611904565b610a9b8984611982565b50505050505050505050565b7f29fa046e79524c3c5ac4c01df692c35e217802b2b13b21121b76cf0ef02b138c81565b7f099f75155f0e997bf83a7993a71d5e7e7540bd386fe1e84643a09ce6b412521981565b7f000000000000000000000000000000000000000000000000000000000000000073ffffffffffffffffffffffffffffffffffffffff163373ffffffffffffffffffffffffffffffffffffffff1614610b7d576040517f08c379a0000000000000000000000000000000000000000000000000000000008152600401610b7490615272565b60405180910390fd5b600080606080610b8b613ca0565b610bd889898080601f016020809104026020016040519081016040528093929190818152602001838380828437600081840152601f19601f82011690508083019250505050505050611b03565b9550955095505094509450610bf03085858585611904565b610c8b8a86610bfe87611b3c565b73ffffffffffffffffffffffffffffffffffffffff166370a08231306040518263ffffffff1660e01b8152600401610c369190614fc9565b60206040518083038186803b158015610c4e57600080fd5b505afa158015610c62573d6000803e3d6000fd5b505050506040513d601f19601f82011682018060405250810190610c86919061462a565b6117c4565b610c958a84611982565b5050505050505050505050565b60007f0000000000000000000000000000000000000000000000000000000000000000905090565b7ffa7dd04da627f433da73c4355ead9c75682a67a8fc84d3f6170ef0922f402d2481565b7fb9dfbaccbe5cd2a84fdcf1d15f23ef25d23086f5afbaa99516065ed4a5bbc7a381565b7f000000000000000000000000000000000000000000000000000000000000000073ffffffffffffffffffffffffffffffffffffffff163373ffffffffffffffffffffffffffffffffffffffff1614610da0576040517f08c379a0000000000000000000000000000000000000000000000000000000008152600401610d9790615272565b60405180910390fd5b600080610df086868080601f016020809104026020016040519081016040528093929190818152602001838380828437600081840152601f19601f82011690508083019250505050505050611b4d565b91509150610e0087888484611508565b50505050505050565b7f000000000000000000000000000000000000000000000000000000000000000073ffffffffffffffffffffffffffffffffffffffff163373ffffffffffffffffffffffffffffffffffffffff1614610e97576040517f08c379a0000000000000000000000000000000000000000000000000000000008152600401610e8e90615272565b60405180910390fd5b60008060006060610ea6613ca0565b610ef389898080601f016020809104026020016040519081016040528093929190818152602001838380828437600081840152601f19601f82011690508083019250505050505050611b03565b9550509450945094509450610f0a8a308786611508565b610f178a85858585611b6d565b6000610f2285611b3c565b905060008173ffffffffffffffffffffffffffffffffffffffff166370a08231306040518263ffffffff1660e01b8152600401610f5f9190614fc9565b60206040518083038186803b158015610f7757600080fd5b505afa158015610f8b573d6000803e3d6000fd5b505050506040513d601f19601f82011682018060405250810190610faf919061462a565b90506000811115610fc657610fc58c88836117c4565b5b505050505050505050505050565b7f03e38a2bd7063d45c897edeafc330e71657502dd86434d3c37a489caf116af6981565b7f68e30677f607df46e87da13e15b637784cfa62374b653f35ab43d10361a2f83081565b7f000000000000000000000000000000000000000000000000000000000000000073ffffffffffffffffffffffffffffffffffffffff163373ffffffffffffffffffffffffffffffffffffffff16146110aa576040517f08c379a00000000000000000000000000000000000000000000000000000000081526004016110a190615272565b60405180910390fd5b611100856110fb86868080601f016020809104026020016040519081016040528093929190818152602001838380828437600081840152601f19601f82011690508083019250505050505050611e7c565b611e99565b5050505050565b7f000000000000000000000000000000000000000000000000000000000000000073ffffffffffffffffffffffffffffffffffffffff163373ffffffffffffffffffffffffffffffffffffffff1614611195576040517f08c379a000000000000000000000000000000000000000000000000000000000815260040161118c90615272565b60405180910390fd5b60008060606111a2613ca0565b6111ef88888080601f016020809104026020016040519081016040528093929190818152602001838380828437600081840152601f19601f820116905080830192505050505050506118cf565b9450509350935093506112058985858585611b6d565b6112178961121286611b3c565b611807565b50505050505050505050565b7f0e7f692dad5b88fdee426250d6eae91207e56a2e8112b7364579bed1790e5bf481565b60006060806060807f099f75155f0e997bf83a7993a71d5e7e7540bd386fe1e84643a09ce6b41252197bffffffffffffffffffffffffffffffffffffffffffffffffffffffff1916887bffffffffffffffffffffffffffffffffffffffffffffffffffffffff191614156112ce576112bf8787611ea7565b94509450945094509450611364565b7fc29fa9dde84204c2908778afd0613d802d31cf046179b88f6d2b4a4e507ea2d57bffffffffffffffffffffffffffffffffffffffffffffffffffffffff1916887bffffffffffffffffffffffffffffffffffffffffffffffffffffffff1916141561134d5761133e8787612030565b94509450945094509450611364565b611359898989896121b9565b945094509450945094505b945094509450945094565b60007f0000000000000000000000000000000000000000000000000000000000000000905090565b60007f0000000000000000000000000000000000000000000000000000000000000000905090565b7fc29fa9dde84204c2908778afd0613d802d31cf046179b88f6d2b4a4e507ea2d581565b7f000000000000000000000000000000000000000000000000000000000000000073ffffffffffffffffffffffffffffffffffffffff163373ffffffffffffffffffffffffffffffffffffffff1614611471576040517f08c379a000000000000000000000000000000000000000000000000000000000815260040161146890615272565b60405180910390fd5b6000806114c186868080601f016020809104026020016040519081016040528093929190818152602001838380828437600081840152601f19601f82011690508083019250505050505050611b4d565b915091506114d08783836117c4565b50505050505050565b6000606080606080858060200190518101906114f59190614553565b9450945094509450945091939590929450565b61151282826124ff565b3073ffffffffffffffffffffffffffffffffffffffff168373ffffffffffffffffffffffffffffffffffffffff16146115795761157883826115538561256e565b73ffffffffffffffffffffffffffffffffffffffff166125f59092919063ffffffff16565b5b50505050565b60008373ffffffffffffffffffffffffffffffffffffffff1663dd62ed3e30856040518363ffffffff1660e01b81526004016115bc929190614fe4565b60206040518083038186803b1580156115d457600080fd5b505afa1580156115e8573d6000803e3d6000fd5b505050506040513d601f19601f8201168201806040525081019061160c919061462a565b90508181101561169857600081111561164c5761164b8360008673ffffffffffffffffffffffffffffffffffffffff1661267b9092919063ffffffff16565b5b611697837fffffffffffffffffffffffffffffffffffffffffffffffffffffffffffffffff8673ffffffffffffffffffffffffffffffffffffffff1661267b9092919063ffffffff16565b5b50505050565b60606116a8613cca565b60405180608001604052808973ffffffffffffffffffffffffffffffffffffffff1681526020016000151581526020018873ffffffffffffffffffffffffffffffffffffffff1681526020016000151581525090507f000000000000000000000000000000000000000000000000000000000000000073ffffffffffffffffffffffffffffffffffffffff1663945bcec98787878588426040518763ffffffff1660e01b815260040161176096959493929190615158565b600060405180830381600087803b15801561177a57600080fd5b505af115801561178e573d6000803e3d6000fd5b505050506040513d6000823e3d601f19601f820116820180604052508101906117b7919061442a565b9150509695505050505050565b6117d7826117d18461256e565b836127d9565b61180283828473ffffffffffffffffffffffffffffffffffffffff166125f59092919063ffffffff16565b505050565b60008173ffffffffffffffffffffffffffffffffffffffff166370a08231306040518263ffffffff1660e01b81526004016118429190614fc9565b60206040518083038186803b15801561185a57600080fd5b505afa15801561186e573d6000803e3d6000fd5b505050506040513d601f19601f82011682018060405250810190611892919061462a565b905060008111156118c9576118c883828473ffffffffffffffffffffffffffffffffffffffff166125f59092919063ffffffff16565b5b92915050565b6000806060806118dd613ca0565b858060200190518101906118f19190614494565b9450945094509450945091939590929450565b60005b835181101561196e5761196184828151811061191f57fe5b60200260200101517f000000000000000000000000000000000000000000000000000000000000000085848151811061195457fe5b602002602001015161157f565b8080600101915050611907565b5061197b84308784612856565b5050505050565b6060815167ffffffffffffffff8111801561199c57600080fd5b506040519080825280602002602001820160405280156119cb5781602001602082028036833780820191505090505b50905060005b8251811015611afc5760008382815181106119e857fe5b602002602001015190508073ffffffffffffffffffffffffffffffffffffffff166370a08231306040518263ffffffff1660e01b8152600401611a2b9190614fc9565b60206040518083038186803b158015611a4357600080fd5b505afa158015611a57573d6000803e3d6000fd5b505050506040513d601f19601f82011682018060405250810190611a7b919061462a565b838381518110611a8757fe5b6020026020010181815250506000838381518110611aa157fe5b60200260200101511115611aee57611aed85848481518110611abf57fe5b60200260200101518373ffffffffffffffffffffffffffffffffffffffff166125f59092919063ffffffff16565b5b5080806001019150506119d1565b5092915050565b6000806000606080611b13613ca0565b86806020019051810190611b279190614228565b95509550955095509550955091939550919395565b600060608260001c901c9050919050565b60008082806020019051810190611b6491906142f9565b91509150915091565b611ba0611b7985611b3c565b7f00000000000000000000000000000000000000000000000000000000000000008561157f565b6000825182600001515103905060606000821115611d175782600001515167ffffffffffffffff81118015611bd457600080fd5b50604051908082528060200260200182016040528015611c035781602001602082028036833780820191505090505b509050600082905060005b6000821115611d1457611c4185600001518281518110611c2a57fe5b6020026020010151876128ed90919063ffffffff16565b611d075784600001518181518110611c5557fe5b602002602001015173ffffffffffffffffffffffffffffffffffffffff166370a082318a6040518263ffffffff1660e01b8152600401611c959190614fc9565b60206040518083038186803b158015611cad57600080fd5b505afa158015611cc1573d6000803e3d6000fd5b505050506040513d601f19601f82011682018060405250810190611ce5919061462a565b838281518110611cf157fe5b6020026020010181815250508180600190039250505b8080600101915050611c0e565b50505b611d2386308986612964565b6000821115611e735760005b6000831115611e7157611d6284600001518281518110611d4b57fe5b6020026020010151866128ed90919063ffffffff16565b611e6457818181518110611d7257fe5b602002602001015184600001518281518110611d8a57fe5b602002602001015173ffffffffffffffffffffffffffffffffffffffff166370a082318a6040518263ffffffff1660e01b8152600401611dca9190614fc9565b60206040518083038186803b158015611de257600080fd5b505afa158015611df6573d6000803e3d6000fd5b505050506040513d601f19601f82011682018060405250810190611e1a919061462a565b14611e5a576040517f08c379a0000000000000000000000000000000000000000000000000000000008152600401611e51906151f2565b60405180910390fd5b8280600190039350505b8080600101915050611d2f565b505b50505050505050565b600081806020019051810190611e9291906141ff565b9050919050565b611ea381836129fb565b5050565b6000606080606080600167ffffffffffffffff81118015611ec757600080fd5b50604051908082528060200260200182016040528015611ef65781602001602082028036833780820191505090505b509150600167ffffffffffffffff81118015611f1157600080fd5b50604051908082528060200260200182016040528015611f405781602001602082028036833780820191505090505b5090506000611f4d613ca0565b611f9a89898080601f016020809104026020016040519081016040528093929190818152602001838380828437600081840152601f19601f820116905080830192505050505050506118cf565b87600081518110611fa757fe5b60200260200101819650829a50839b50848152508496505050505050611fd08160600151612aa4565b611fd982611b3c565b84600081518110611fe657fe5b602002602001019073ffffffffffffffffffffffffffffffffffffffff16908173ffffffffffffffffffffffffffffffffffffffff16815250506002965050509295509295909350565b6000606080606080600167ffffffffffffffff8111801561205057600080fd5b5060405190808252806020026020018201604052801561207f5781602001602082028036833780820191505090505b509350600167ffffffffffffffff8111801561209a57600080fd5b506040519080825280602002602001820160405280156120c95781602001602082028036833780820191505090505b50925060006120d6613ca0565b61212389898080601f016020809104026020016040519081016040528093929190818152602001838380828437600081840152601f19601f820116905080830192505050505050506118cf565b8960008151811061213057fe5b602002602001018196508298508399508481525084965050505050506121598160600151612aa4565b61216282611b3c565b8660008151811061216f57fe5b602002602001019073ffffffffffffffffffffffffffffffffffffffff16908173ffffffffffffffffffffffffffffffffffffffff16815250506002965050509295509295909350565b60006060806060807fb9dfbaccbe5cd2a84fdcf1d15f23ef25d23086f5afbaa99516065ed4a5bbc7a37bffffffffffffffffffffffffffffffffffffffffffffffffffffffff1916887bffffffffffffffffffffffffffffffffffffffffffffffffffffffff1916141561223e5761222f612ae8565b945094509450945094506124f4565b7f29fa046e79524c3c5ac4c01df692c35e217802b2b13b21121b76cf0ef02b138c7bffffffffffffffffffffffffffffffffffffffffffffffffffffffff1916887bffffffffffffffffffffffffffffffffffffffffffffffffffffffff191614156122bd576122ae8787612c22565b945094509450945094506124f4565b7f8334eb99be0145865eba9889fca2ee920288090caefff4cc776038e20ad9259a7bffffffffffffffffffffffffffffffffffffffffffffffffffffffff1916887bffffffffffffffffffffffffffffffffffffffffffffffffffffffff1916141561233c5761232d8787612db3565b945094509450945094506124f4565b7f03e38a2bd7063d45c897edeafc330e71657502dd86434d3c37a489caf116af697bffffffffffffffffffffffffffffffffffffffffffffffffffffffff1916887bffffffffffffffffffffffffffffffffffffffffffffffffffffffff191614156123bb576123ac8787612f44565b945094509450945094506124f4565b7ffa7dd04da627f433da73c4355ead9c75682a67a8fc84d3f6170ef0922f402d247bffffffffffffffffffffffffffffffffffffffffffffffffffffffff1916887bffffffffffffffffffffffffffffffffffffffffffffffffffffffff1916141561243a5761242b878761342a565b945094509450945094506124f4565b7f68e30677f607df46e87da13e15b637784cfa62374b653f35ab43d10361a2f8307bffffffffffffffffffffffffffffffffffffffffffffffffffffffff1916887bffffffffffffffffffffffffffffffffffffffffffffffffffffffff191614156124b9576124aa878761368a565b945094509450945094506124f4565b6040517f08c379a00000000000000000000000000000000000000000000000000000000081526004016124eb90615332565b60405180910390fd5b945094509450945094565b8173ffffffffffffffffffffffffffffffffffffffff16632e1a7d4d826040518263ffffffff1660e01b81526004016125389190615352565b600060405180830381600087803b15801561255257600080fd5b505af1158015612566573d6000803e3d6000fd5b505050505050565b60008173ffffffffffffffffffffffffffffffffffffffff166382c630666040518163ffffffff1660e01b815260040160206040518083038186803b1580156125b657600080fd5b505afa1580156125ca573d6000803e3d6000fd5b505050506040513d601f19601f820116820180604052508101906125ee91906141d6565b9050919050565b6126768363a9059cbb60e01b848460405160240161261492919061500d565b604051602081830303815290604052907bffffffffffffffffffffffffffffffffffffffffffffffffffffffff19166020820180517bffffffffffffffffffffffffffffffffffffffffffffffffffffffff83818316178352505050506138ea565b505050565b6000811480612714575060008373ffffffffffffffffffffffffffffffffffffffff1663dd62ed3e30856040518363ffffffff1660e01b81526004016126c2929190614fe4565b60206040518083038186803b1580156126da57600080fd5b505afa1580156126ee573d6000803e3d6000fd5b505050506040513d601f19601f82011682018060405250810190612712919061462a565b145b612753576040517f08c379a000000000000000000000000000000000000000000000000000000000815260040161274a90615312565b60405180910390fd5b6127d48363095ea7b360e01b848460405160240161277292919061500d565b604051602081830303815290604052907bffffffffffffffffffffffffffffffffffffffffffffffffffffffff19166020820180517bffffffffffffffffffffffffffffffffffffffffffffffffffffffff83818316178352505050506138ea565b505050565b6127e482848361157f565b8273ffffffffffffffffffffffffffffffffffffffff16636e553f6582306040518363ffffffff1660e01b815260040161281f92919061536d565b600060405180830381600087803b15801561283957600080fd5b505af115801561284d573d6000803e3d6000fd5b50505050505050565b7f000000000000000000000000000000000000000000000000000000000000000073ffffffffffffffffffffffffffffffffffffffff1663b95cac28858585856040518563ffffffff1660e01b81526004016128b59493929190615082565b600060405180830381600087803b1580156128cf57600080fd5b505af11580156128e3573d6000803e3d6000fd5b5050505050505050565b6000805b83518110156129585783818151811061290657fe5b602002602001015173ffffffffffffffffffffffffffffffffffffffff168373ffffffffffffffffffffffffffffffffffffffff16141561294b57600191505061295e565b80806001019150506128f1565b50600090505b92915050565b7f000000000000000000000000000000000000000000000000000000000000000073ffffffffffffffffffffffffffffffffffffffff16638bdb3913858585856040518563ffffffff1660e01b81526004016129c39493929190615036565b600060405180830381600087803b1580156129dd57600080fd5b505af11580156129f1573d6000803e3d6000fd5b5050505050505050565b612a036139b1565b15612a96577f000000000000000000000000000000000000000000000000000000000000000073ffffffffffffffffffffffffffffffffffffffff166327f18ae383836040518363ffffffff1660e01b8152600401612a63929190614fe4565b600060405180830381600087803b158015612a7d57600080fd5b505af1158015612a91573d6000803e3d6000fd5b505050505b612aa08282613a08565b5050565b8015612ae5576040517f08c379a0000000000000000000000000000000000000000000000000000000008152600401612adc906152b2565b60405180910390fd5b50565b600060608060608060008067ffffffffffffffff81118015612b0957600080fd5b50604051908082528060200260200182016040528015612b385781602001602082028036833780820191505090505b50600067ffffffffffffffff81118015612b5157600080fd5b50604051908082528060200260200182016040528015612b805781602001602082028036833780820191505090505b50600067ffffffffffffffff81118015612b9957600080fd5b50604051908082528060200260200182016040528015612bc85781602001602082028036833780820191505090505b50600067ffffffffffffffff81118015612be157600080fd5b50604051908082528060200260200182016040528015612c105781602001602082028036833780820191505090505b50945094509450945094509091929394565b6000606080606080600167ffffffffffffffff81118015612c4257600080fd5b50604051908082528060200260200182016040528015612c715781602001602082028036833780820191505090505b509150600167ffffffffffffffff81118015612c8c57600080fd5b50604051908082528060200260200182016040528015612cbb5781602001602082028036833780820191505090505b509050600080612cc9613ca0565b612d168a8a8080601f016020809104026020016040519081016040528093929190818152602001838380828437600081840152601f19601f82011690508083019250505050505050611b03565b89600081518110612d2357fe5b60200260200101819750829c50839d5084815250849850859750505050505050612d4d8284613a77565b612d5a8160600151612aa4565b8185600081518110612d6857fe5b602002602001019073ffffffffffffffffffffffffffffffffffffffff16908173ffffffffffffffffffffffffffffffffffffffff1681525050600297505050509295509295909350565b6000606080606080600167ffffffffffffffff81118015612dd357600080fd5b50604051908082528060200260200182016040528015612e025781602001602082028036833780820191505090505b509350600167ffffffffffffffff81118015612e1d57600080fd5b50604051908082528060200260200182016040528015612e4c5781602001602082028036833780820191505090505b509250600080612e5a613ca0565b612ea78a8a8080601f016020809104026020016040519081016040528093929190818152602001838380828437600081840152601f19601f82011690508083019250505050505050611b03565b8b600081518110612eb457fe5b60200260200101819750829a50839b5084815250849850859750505050505050612ede8284613a77565b612eeb8160600151612aa4565b8187600081518110612ef957fe5b602002602001019073ffffffffffffffffffffffffffffffffffffffff16908173ffffffffffffffffffffffffffffffffffffffff1681525050600297505050509295509295909350565b60006060806060806060806060612f9e8a8a8080601f016020809104026020016040519081016040528093929190818152602001838380828437600081840152601f19601f820116905080830192505050505050506114d9565b945094509450505060008060005b8551811015613011576000858281518110612fc357fe5b60200260200101511315612fde578280600101935050613004565b6000858281518110612fec57fe5b602002602001015112156130035781806001019250505b5b8080600101915050612fac565b508167ffffffffffffffff8111801561302957600080fd5b506040519080825280602002602001820160405280156130585781602001602082028036833780820191505090505b5098508167ffffffffffffffff8111801561307257600080fd5b506040519080825280602002602001820160405280156130a15781602001602082028036833780820191505090505b5097508067ffffffffffffffff811180156130bb57600080fd5b506040519080825280602002602001820160405280156130ea5781602001602082028036833780820191505090505b5096508067ffffffffffffffff8111801561310457600080fd5b506040519080825280602002602001820160405280156131335781602001602082028036833780820191505090505b50955060005b855181101561341657600085828151811061315057fe5b6020026020010151905060008113156132b157600087838151811061317157fe5b60200260200101519050600086848151811061318957fe5b60200260200101519050600073ffffffffffffffffffffffffffffffffffffffff168173ffffffffffffffffffffffffffffffffffffffff1614613241576131d08161256e565b73ffffffffffffffffffffffffffffffffffffffff168273ffffffffffffffffffffffffffffffffffffffff161461323d576040517f08c379a000000000000000000000000000000000000000000000000000000000815260040161323490615212565b60405180910390fd5b8091505b858060019003965050818d878151811061325757fe5b602002602001019073ffffffffffffffffffffffffffffffffffffffff16908173ffffffffffffffffffffffffffffffffffffffff1681525050828c878151811061329e57fe5b6020026020010181815250505050613408565b60008112156134075760008783815181106132c857fe5b6020026020010151905060008684815181106132e057fe5b60200260200101519050600073ffffffffffffffffffffffffffffffffffffffff168173ffffffffffffffffffffffffffffffffffffffff1614613398576133278161256e565b73ffffffffffffffffffffffffffffffffffffffff168273ffffffffffffffffffffffffffffffffffffffff1614613394576040517f08c379a000000000000000000000000000000000000000000000000000000000815260040161338b90615212565b60405180910390fd5b8091505b848060019003955050818b86815181106133ae57fe5b602002602001019073ffffffffffffffffffffffffffffffffffffffff16908173ffffffffffffffffffffffffffffffffffffffff1681525050826000038a86815181106133f857fe5b60200260200101818152505050505b5b508080600101915050613139565b506002995050505050509295509295909350565b600060608060608060008061348289898080601f016020809104026020016040519081016040528093929190818152602001838380828437600081840152601f19601f82011690508083019250505050505050611b4d565b91509150600167ffffffffffffffff8111801561349e57600080fd5b506040519080825280602002602001820160405280156134cd5781602001602082028036833780820191505090505b509550600167ffffffffffffffff811180156134e857600080fd5b506040519080825280602002602001820160405280156135175781602001602082028036833780820191505090505b509450600167ffffffffffffffff8111801561353257600080fd5b506040519080825280602002602001820160405280156135615781602001602082028036833780820191505090505b509350600167ffffffffffffffff8111801561357c57600080fd5b506040519080825280602002602001820160405280156135ab5781602001602082028036833780820191505090505b5092506135b78261256e565b866000815181106135c457fe5b602002602001019073ffffffffffffffffffffffffffffffffffffffff16908173ffffffffffffffffffffffffffffffffffffffff1681525050808560008151811061360c57fe5b602002602001018181525050818460008151811061362657fe5b602002602001019073ffffffffffffffffffffffffffffffffffffffff16908173ffffffffffffffffffffffffffffffffffffffff1681525050808360008151811061366e57fe5b6020026020010181815250506002965050509295509295909350565b60006060806060806000806136e289898080601f016020809104026020016040519081016040528093929190818152602001838380828437600081840152601f19601f82011690508083019250505050505050611b4d565b91509150600167ffffffffffffffff811180156136fe57600080fd5b5060405190808252806020026020018201604052801561372d5781602001602082028036833780820191505090505b509550600167ffffffffffffffff8111801561374857600080fd5b506040519080825280602002602001820160405280156137775781602001602082028036833780820191505090505b509450600167ffffffffffffffff8111801561379257600080fd5b506040519080825280602002602001820160405280156137c15781602001602082028036833780820191505090505b509350600167ffffffffffffffff811180156137dc57600080fd5b5060405190808252806020026020018201604052801561380b5781602001602082028036833780820191505090505b509250818660008151811061381c57fe5b602002602001019073ffffffffffffffffffffffffffffffffffffffff16908173ffffffffffffffffffffffffffffffffffffffff1681525050808560008151811061386457fe5b6020026020010181815250506138798261256e565b8460008151811061388657fe5b602002602001019073ffffffffffffffffffffffffffffffffffffffff16908173ffffffffffffffffffffffffffffffffffffffff168152505080836000815181106138ce57fe5b6020026020010181815250506002965050509295509295909350565b606061394c826040518060400160405280602081526020017f5361666545524332303a206c6f772d6c6576656c2063616c6c206661696c65648152508573ffffffffffffffffffffffffffffffffffffffff16613af99092919063ffffffff16565b90506000815111156139ac578080602001905181019061396c919061446b565b6139ab576040517f08c379a00000000000000000000000000000000000000000000000000000000081526004016139a2906152f2565b60405180910390fd5b5b505050565b60008073ffffffffffffffffffffffffffffffffffffffff167f000000000000000000000000000000000000000000000000000000000000000073ffffffffffffffffffffffffffffffffffffffff161415905090565b8173ffffffffffffffffffffffffffffffffffffffff166384e9bd7e826040518263ffffffff1660e01b8152600401613a419190614fc9565b600060405180830381600087803b158015613a5b57600080fd5b505af1158015613a6f573d6000803e3d6000fd5b505050505050565b613a8081611b3c565b73ffffffffffffffffffffffffffffffffffffffff16613a9f8361256e565b73ffffffffffffffffffffffffffffffffffffffff1614613af5576040517f08c379a0000000000000000000000000000000000000000000000000000000008152600401613aec90615232565b60405180910390fd5b5050565b6060613b088484600085613b11565b90509392505050565b606082471015613b56576040517f08c379a0000000000000000000000000000000000000000000000000000000008152600401613b4d90615252565b60405180910390fd5b613b5f85613c26565b613b9e576040517f08c379a0000000000000000000000000000000000000000000000000000000008152600401613b95906152d2565b60405180910390fd5b600060608673ffffffffffffffffffffffffffffffffffffffff168587604051613bc89190614fb2565b60006040518083038185875af1925050503d8060008114613c05576040519150601f19603f3d011682016040523d82523d6000602084013e613c0a565b606091505b5091509150613c1a828286613c39565b92505050949350505050565b600080823b905060008111915050919050565b60608315613c4957829050613c99565b600083511115613c5c5782518084602001fd5b816040517f08c379a0000000000000000000000000000000000000000000000000000000008152600401613c9091906151d0565b60405180910390fd5b9392505050565b60405180608001604052806060815260200160608152602001606081526020016000151581525090565b6040518060800160405280600073ffffffffffffffffffffffffffffffffffffffff168152602001600015158152602001600073ffffffffffffffffffffffffffffffffffffffff1681526020016000151581525090565b600081359050613d318161571a565b92915050565b600081519050613d468161571a565b92915050565b600081519050613d5b81615731565b92915050565b600082601f830112613d7257600080fd5b8151613d85613d80826153c3565b615396565b91508181835260208401935060208101905083856020840282011115613daa57600080fd5b60005b83811015613dda5781613dc08882613d37565b845260208401935060208301925050600181019050613dad565b5050505092915050565b600082601f830112613df557600080fd5b8151613e08613e03826153eb565b615396565b91508181835260208401935060208101905083856020840282011115613e2d57600080fd5b60005b83811015613e5d5781613e438882614050565b845260208401935060208301925050600181019050613e30565b5050505092915050565b600082601f830112613e7857600080fd5b8151613e8b613e8682615413565b615396565b9150818183526020840193506020810190508360005b83811015613ed15781518601613eb78882614065565b845260208401935060208301925050600181019050613ea1565b5050505092915050565b600082601f830112613eec57600080fd5b8151613eff613efa8261543b565b615396565b91508181835260208401935060208101905083856020840282011115613f2457600080fd5b60005b83811015613f545781613f3a88826141c1565b845260208401935060208301925050600181019050613f27565b5050505092915050565b600081519050613f6d81615748565b92915050565b600081519050613f828161575f565b92915050565b600081359050613f9781615776565b92915050565b60008083601f840112613faf57600080fd5b8235905067ffffffffffffffff811115613fc857600080fd5b602083019150836001820283011115613fe057600080fd5b9250929050565b600082601f830112613ff857600080fd5b815161400b61400682615463565b615396565b9150808252602083016020830185838301111561402757600080fd5b6140328382846156bc565b50505092915050565b60008151905061404a8161578d565b92915050565b60008151905061405f8161579d565b92915050565b600060a0828403121561407757600080fd5b61408160a0615396565b9050600061409184828501613f73565b60008301525060206140a5848285016141c1565b60208301525060406140b9848285016141c1565b60408301525060606140cd848285016141c1565b606083015250608082015167ffffffffffffffff8111156140ed57600080fd5b6140f984828501613fe7565b60808301525092915050565b60006080828403121561411757600080fd5b6141216080615396565b9050600082015167ffffffffffffffff81111561413d57600080fd5b61414984828501613d61565b600083015250602082015167ffffffffffffffff81111561416957600080fd5b61417584828501613edb565b602083015250604082015167ffffffffffffffff81111561419557600080fd5b6141a184828501613fe7565b60408301525060606141b584828501613f5e565b60608301525092915050565b6000815190506141d0816157b4565b92915050565b6000602082840312156141e857600080fd5b60006141f684828501613d37565b91505092915050565b60006020828403121561421157600080fd5b600061421f84828501613d4c565b91505092915050565b60008060008060008060c0878903121561424157600080fd5b600061424f89828a01613d4c565b965050602061426089828a01613f73565b955050604061427189828a016141c1565b945050606087015167ffffffffffffffff81111561428e57600080fd5b61429a89828a01613d61565b935050608087015167ffffffffffffffff8111156142b757600080fd5b6142c389828a01613edb565b92505060a087015167ffffffffffffffff8111156142e057600080fd5b6142ec89828a01614105565b9150509295509295509295565b6000806040838503121561430c57600080fd5b600061431a85828601613d4c565b925050602061432b858286016141c1565b9150509250929050565b6000806000806060858703121561434b57600080fd5b600061435987828801613d22565b945050602061436a87828801613f88565b935050604085013567ffffffffffffffff81111561438757600080fd5b61439387828801613f9d565b925092505092959194509250565b6000806000806000606086880312156143b957600080fd5b60006143c788828901613d22565b955050602086013567ffffffffffffffff8111156143e457600080fd5b6143f088828901613f9d565b9450945050604086013567ffffffffffffffff81111561440f57600080fd5b61441b88828901613f9d565b92509250509295509295909350565b60006020828403121561443c57600080fd5b600082015167ffffffffffffffff81111561445657600080fd5b61446284828501613de4565b91505092915050565b60006020828403121561447d57600080fd5b600061448b84828501613f5e565b91505092915050565b600080600080600060a086880312156144ac57600080fd5b60006144ba88828901613f73565b95505060206144cb888289016141c1565b945050604086015167ffffffffffffffff8111156144e857600080fd5b6144f488828901613d61565b935050606086015167ffffffffffffffff81111561451157600080fd5b61451d88828901613edb565b925050608086015167ffffffffffffffff81111561453a57600080fd5b61454688828901614105565b9150509295509295909350565b600080600080600060a0868803121561456b57600080fd5b60006145798882890161403b565b955050602086015167ffffffffffffffff81111561459657600080fd5b6145a288828901613e67565b945050604086015167ffffffffffffffff8111156145bf57600080fd5b6145cb88828901613d61565b935050606086015167ffffffffffffffff8111156145e857600080fd5b6145f488828901613de4565b925050608086015167ffffffffffffffff81111561461157600080fd5b61461d88828901613d61565b9150509295509295909350565b60006020828403121561463c57600080fd5b600061464a848285016141c1565b91505092915050565b600061465f83836146cd565b60208301905092915050565b600061467783836149fa565b60208301905092915050565b600061468f8383614e58565b905092915050565b60006146a38383614f94565b60208301905092915050565b6146b8816155ea565b82525050565b6146c7816155ea565b82525050565b6146d6816155d8565b82525050565b6146e5816155d8565b82525050565b60006146f6826154cf565b6147008185615545565b935061470b8361548f565b8060005b8381101561473c5781516147238882614653565b975061472e83615511565b92505060018101905061470f565b5085935050505092915050565b6000614754826154cf565b61475e8185615556565b93506147698361548f565b8060005b8381101561479a5781516147818882614653565b975061478c83615511565b92505060018101905061476d565b5085935050505092915050565b60006147b2826154da565b6147bc8185615567565b93506147c78361549f565b8060005b838110156147f85781516147df888261466b565b97506147ea8361551e565b9250506001810190506147cb565b5085935050505092915050565b6000614810826154e5565b61481a8185615578565b93508360208202850161482c856154af565b8060005b8581101561486857848403895281516148498582614683565b94506148548361552b565b925060208a01995050600181019050614830565b50829750879550505050505092915050565b6000614885826154f0565b61488f8185615589565b935061489a836154bf565b8060005b838110156148cb5781516148b28882614697565b97506148bd83615538565b92505060018101905061489e565b5085935050505092915050565b60006148e3826154f0565b6148ed818561559a565b93506148f8836154bf565b8060005b838110156149295781516149108882614697565b975061491b83615538565b9250506001810190506148fc565b5085935050505092915050565b61493f816155fc565b82525050565b61494e81615608565b82525050565b61495d81615608565b82525050565b61496c81615612565b82525050565b600061497d826154fb565b61498781856155ab565b93506149978185602086016156bc565b6149a0816156ef565b840191505092915050565b60006149b6826154fb565b6149c081856155bc565b93506149d08185602086016156bc565b80840191505092915050565b6149e581615698565b82525050565b6149f4816156aa565b82525050565b614a0381615664565b82525050565b6000614a1482615506565b614a1e81856155c7565b9350614a2e8185602086016156bc565b614a37816156ef565b840191505092915050565b6000614a4f602b836155c7565b91507f5f5f62616c616e63657252656465656d3a20556e65787065637465642061737360008301527f65742072656365697665640000000000000000000000000000000000000000006020830152604082019050919050565b6000614ab56027836155c7565b91507f5f5f7061727365417373657473466f7254616b654f726465723a20425054206d60008301527f69736d61746368000000000000000000000000000000000000000000000000006020830152604082019050919050565b6000614b1b6025836155c7565b91507f5f5f76616c6964617465427074466f725374616b696e67546f6b656e3a20496e60008301527f76616c69640000000000000000000000000000000000000000000000000000006020830152604082019050919050565b6000614b816026836155c7565b91507f416464726573733a20696e73756666696369656e742062616c616e636520666f60008301527f722063616c6c00000000000000000000000000000000000000000000000000006020830152604082019050919050565b6000614be76032836155c7565b91507f4f6e6c792074686520496e746567726174696f6e4d616e616765722063616e2060008301527f63616c6c20746869732066756e6374696f6e00000000000000000000000000006020830152604082019050919050565b6000614c4d6020836155c7565b91507f74616b654f726465723a206c6566746f76657220696e7465726d6564696172796000830152602082019050919050565b6000614c8d6025836155c7565b91507f5f5f76616c69646174654e6f496e7465726e616c42616c616e6365733a20496e60008301527f76616c69640000000000000000000000000000000000000000000000000000006020830152604082019050919050565b6000614cf3601d836155c7565b91507f416464726573733a2063616c6c20746f206e6f6e2d636f6e74726163740000006000830152602082019050919050565b6000614d33602a836155c7565b91507f5361666545524332303a204552433230206f7065726174696f6e20646964206e60008301527f6f742073756363656564000000000000000000000000000000000000000000006020830152604082019050919050565b6000614d996036836155c7565b91507f5361666545524332303a20617070726f76652066726f6d206e6f6e2d7a65726f60008301527f20746f206e6f6e2d7a65726f20616c6c6f77616e6365000000000000000000006020830152604082019050919050565b6000614dff6027836155c7565b91507f7061727365417373657473466f72416374696f6e3a205f73656c6563746f722060008301527f696e76616c6964000000000000000000000000000000000000000000000000006020830152604082019050919050565b600060a083016000830151614e706000860182614945565b506020830151614e836020860182614f94565b506040830151614e966040860182614f94565b506060830151614ea96060860182614f94565b5060808301518482036080860152614ec18282614972565b9150508091505092915050565b608082016000820151614ee460008501826146cd565b506020820151614ef76020850182614936565b506040820151614f0a60408501826146af565b506060820151614f1d6060850182614936565b50505050565b60006080830160008301518482036000860152614f4082826146eb565b91505060208301518482036020860152614f5a828261487a565b91505060408301518482036040860152614f748282614972565b9150506060830151614f896060860182614936565b508091505092915050565b614f9d8161568e565b82525050565b614fac8161568e565b82525050565b6000614fbe82846149ab565b915081905092915050565b6000602082019050614fde60008301846146dc565b92915050565b6000604082019050614ff960008301856146dc565b61500660208301846146dc565b9392505050565b600060408201905061502260008301856146dc565b61502f6020830184614fa3565b9392505050565b600060808201905061504b6000830187614954565b61505860208301866146dc565b61506560408301856146be565b81810360608301526150778184614f23565b905095945050505050565b60006080820190506150976000830187614954565b6150a460208301866146dc565b6150b160408301856146dc565b81810360608301526150c38184614f23565b905095945050505050565b60006020820190506150e36000830184614963565b92915050565b600060a0820190506150fe60008301886149dc565b81810360208301526151108187614749565b9050818103604083015261512481866148d8565b905081810360608301526151388185614749565b9050818103608083015261514c81846148d8565b90509695505050505050565b60006101208201905061516e60008301896149eb565b81810360208301526151808188614805565b905081810360408301526151948187614749565b90506151a36060830186614ece565b81810360e08301526151b581856147a7565b90506151c5610100830184614fa3565b979650505050505050565b600060208201905081810360008301526151ea8184614a09565b905092915050565b6000602082019050818103600083015261520b81614a42565b9050919050565b6000602082019050818103600083015261522b81614aa8565b9050919050565b6000602082019050818103600083015261524b81614b0e565b9050919050565b6000602082019050818103600083015261526b81614b74565b9050919050565b6000602082019050818103600083015261528b81614bda565b9050919050565b600060208201905081810360008301526152ab81614c40565b9050919050565b600060208201905081810360008301526152cb81614c80565b9050919050565b600060208201905081810360008301526152eb81614ce6565b9050919050565b6000602082019050818103600083015261530b81614d26565b9050919050565b6000602082019050818103600083015261532b81614d8c565b9050919050565b6000602082019050818103600083015261534b81614df2565b9050919050565b60006020820190506153676000830184614fa3565b92915050565b60006040820190506153826000830185614fa3565b61538f60208301846146dc565b9392505050565b6000604051905081810181811067ffffffffffffffff821117156153b957600080fd5b8060405250919050565b600067ffffffffffffffff8211156153da57600080fd5b602082029050602081019050919050565b600067ffffffffffffffff82111561540257600080fd5b602082029050602081019050919050565b600067ffffffffffffffff82111561542a57600080fd5b602082029050602081019050919050565b600067ffffffffffffffff82111561545257600080fd5b602082029050602081019050919050565b600067ffffffffffffffff82111561547a57600080fd5b601f19601f8301169050602081019050919050565b6000819050602082019050919050565b6000819050602082019050919050565b6000819050602082019050919050565b6000819050602082019050919050565b600081519050919050565b600081519050919050565b600081519050919050565b600081519050919050565b600081519050919050565b600081519050919050565b6000602082019050919050565b6000602082019050919050565b6000602082019050919050565b6000602082019050919050565b600082825260208201905092915050565b600082825260208201905092915050565b600082825260208201905092915050565b600082825260208201905092915050565b600082825260208201905092915050565b600082825260208201905092915050565b600082825260208201905092915050565b600081905092915050565b600082825260208201905092915050565b60006155e38261566e565b9050919050565b60006155f58261566e565b9050919050565b60008115159050919050565b6000819050919050565b60007fffffffff0000000000000000000000000000000000000000000000000000000082169050919050565b600081905061564c82615700565b919050565b600081905061565f8261570d565b919050565b6000819050919050565b600073ffffffffffffffffffffffffffffffffffffffff82169050919050565b6000819050919050565b60006156a38261563e565b9050919050565b60006156b582615651565b9050919050565b60005b838110156156da5780820151818401526020810190506156bf565b838111156156e9576000848401525b50505050565b6000601f19601f8301169050919050565b6003811061570a57fe5b50565b6002811061571757fe5b50565b615723816155d8565b811461572e57600080fd5b50565b61573a816155ea565b811461574557600080fd5b50565b615751816155fc565b811461575c57600080fd5b50565b61576881615608565b811461577357600080fd5b50565b61577f81615612565b811461578a57600080fd5b50565b6002811061579a57600080fd5b50565b6157a681615664565b81146157b157600080fd5b50565b6157bd8161568e565b81146157c857600080fd5b5056fea164736f6c634300060c000a","linkReferences":{}},"methodIdentifiers":{"CLAIM_REWARDS_SELECTOR()":"40da225d","LEND_AND_STAKE_SELECTOR()":"131461c0","LEND_SELECTOR()":"257cb1a3","REDEEM_SELECTOR()":"f7d882b5","STAKE_SELECTOR()":"3ffc1591","TAKE_MULTIPLE_ORDERS_SELECTOR()":"c32990a2","TAKE_ORDER_SELECTOR()":"863e5ad0","UNSTAKE_AND_REDEEM_SELECTOR()":"080456c1","UNSTAKE_SELECTOR()":"b23228cf","claimRewards(address,bytes,bytes)":"b9dfbacc","getCurveGaugeV2RewardsHandlerCrvToken()":"332d709f","getCurveGaugeV2RewardsHandlerMinter()":"f003eb85","getIntegrationManager()":"e7c45690","lend(address,bytes,bytes)":"099f7515","lendAndStake(address,bytes,bytes)":"29fa046e","parseAssetsForAction(address,bytes4,bytes)":"c54efee5","redeem(address,bytes,bytes)":"c29fa9dd","stake(address,bytes,bytes)":"fa7dd04d","takeOrder(address,bytes,bytes)":"03e38a2b","unstake(address,bytes,bytes)":"68e30677","unstakeAndRedeem(address,bytes,bytes)":"8334eb99"},"id":209}