{"abi":[{"type":"constructor","inputs":[{"name":"_fundDeployer","type":"address","internalType":"address"},{"name":"_addressProvider","type":"address","internalType":"address"},{"name":"_poolOwner","type":"address","internalType":"address"},{"name":"_virtualPriceDeviationThreshold","type":"uint256","internalType":"uint256"}],"stateMutability":"nonpayable"},{"type":"function","name":"addGaugeTokens","inputs":[{"name":"_gaugeTokens","type":"address[]","internalType":"address[]"},{"name":"_pools","type":"address[]","internalType":"address[]"}],"outputs":[],"stateMutability":"nonpayable"},{"type":"function","name":"addGaugeTokensWithoutValidation","inputs":[{"name":"_gaugeTokens","type":"address[]","internalType":"address[]"},{"name":"_pools","type":"address[]","internalType":"address[]"}],"outputs":[],"stateMutability":"nonpayable"},{"type":"function","name":"addPools","inputs":[{"name":"_pools","type":"address[]","internalType":"address[]"},{"name":"_invariantProxyAssets","type":"address[]","internalType":"address[]"},{"name":"_reentrantVirtualPrices","type":"bool[]","internalType":"bool[]"},{"name":"_lpTokens","type":"address[]","internalType":"address[]"},{"name":"_gaugeTokens","type":"address[]","internalType":"address[]"}],"outputs":[],"stateMutability":"nonpayable"},{"type":"function","name":"addPoolsWithoutValidation","inputs":[{"name":"_pools","type":"address[]","internalType":"address[]"},{"name":"_invariantProxyAssets","type":"address[]","internalType":"address[]"},{"name":"_reentrantVirtualPrices","type":"bool[]","internalType":"bool[]"},{"name":"_lpTokens","type":"address[]","internalType":"address[]"},{"name":"_gaugeTokens","type":"address[]","internalType":"address[]"}],"outputs":[],"stateMutability":"nonpayable"},{"type":"function","name":"calcUnderlyingValues","inputs":[{"name":"_derivative","type":"address","internalType":"address"},{"name":"_derivativeAmount","type":"uint256","internalType":"uint256"}],"outputs":[{"name":"underlyings_","type":"address[]","internalType":"address[]"},{"name":"underlyingAmounts_","type":"uint256[]","internalType":"uint256[]"}],"stateMutability":"nonpayable"},{"type":"function","name":"getCurvePoolOwner","inputs":[],"outputs":[{"name":"poolOwner_","type":"address","internalType":"address"}],"stateMutability":"view"},{"type":"function","name":"getFundDeployer","inputs":[],"outputs":[{"name":"fundDeployer_","type":"address","internalType":"address"}],"stateMutability":"view"},{"type":"function","name":"getLpTokenForPool","inputs":[{"name":"_pool","type":"address","internalType":"address"}],"outputs":[{"name":"lpToken_","type":"address","internalType":"address"}],"stateMutability":"view"},{"type":"function","name":"getOwner","inputs":[],"outputs":[{"name":"owner_","type":"address","internalType":"address"}],"stateMutability":"view"},{"type":"function","name":"getPoolForDerivative","inputs":[{"name":"_derivative","type":"address","internalType":"address"}],"outputs":[{"name":"pool_","type":"address","internalType":"address"}],"stateMutability":"view"},{"type":"function","name":"getPoolInfo","inputs":[{"name":"_pool","type":"address","internalType":"address"}],"outputs":[{"name":"poolInfo_","type":"tuple","internalType":"struct CurvePriceFeed.PoolInfo","components":[{"name":"invariantProxyAsset","type":"address","internalType":"address"},{"name":"invariantProxyAssetDecimals","type":"uint8","internalType":"uint8"},{"name":"lastValidatedVirtualPrice","type":"uint88","internalType":"uint88"}]}],"stateMutability":"view"},{"type":"function","name":"isSupportedAsset","inputs":[{"name":"_asset","type":"address","internalType":"address"}],"outputs":[{"name":"isSupported_","type":"bool","internalType":"bool"}],"stateMutability":"view"},{"type":"function","name":"removeDerivatives","inputs":[{"name":"_derivatives","type":"address[]","internalType":"address[]"}],"outputs":[],"stateMutability":"nonpayable"},{"type":"function","name":"removePools","inputs":[{"name":"_pools","type":"address[]","internalType":"address[]"}],"outputs":[],"stateMutability":"nonpayable"},{"type":"function","name":"setCurvePoolOwner","inputs":[{"name":"_nextPoolOwner","type":"address","internalType":"address"}],"outputs":[],"stateMutability":"nonpayable"},{"type":"function","name":"updatePoolInfo","inputs":[{"name":"_pools","type":"address[]","internalType":"address[]"},{"name":"_invariantProxyAssets","type":"address[]","internalType":"address[]"},{"name":"_reentrantVirtualPrices","type":"bool[]","internalType":"bool[]"}],"outputs":[],"stateMutability":"nonpayable"},{"type":"event","name":"CurvePoolOwnerSet","inputs":[{"name":"poolOwner","type":"address","indexed":false,"internalType":"address"}],"anonymous":false},{"type":"event","name":"DerivativeAdded","inputs":[{"name":"derivative","type":"address","indexed":true,"internalType":"address"},{"name":"pool","type":"address","indexed":true,"internalType":"address"}],"anonymous":false},{"type":"event","name":"DerivativeRemoved","inputs":[{"name":"derivative","type":"address","indexed":true,"internalType":"address"}],"anonymous":false},{"type":"event","name":"InvariantProxyAssetForPoolSet","inputs":[{"name":"pool","type":"address","indexed":true,"internalType":"address"},{"name":"invariantProxyAsset","type":"address","indexed":true,"internalType":"address"}],"anonymous":false},{"type":"event","name":"PoolRemoved","inputs":[{"name":"pool","type":"address","indexed":true,"internalType":"address"}],"anonymous":false},{"type":"event","name":"ValidatedVirtualPriceForPoolUpdated","inputs":[{"name":"pool","type":"address","indexed":true,"internalType":"address"},{"name":"virtualPrice","type":"uint256","indexed":false,"internalType":"uint256"}],"anonymous":false}],"bytecode":{"object":"0x60e06040523480156200001157600080fd5b5060405162003d0238038062003d02833981810160405281019062000037919062000174565b838073ffffffffffffffffffffffffffffffffffffffff1660808173ffffffffffffffffffffffffffffffffffffffff1660601b81525050508273ffffffffffffffffffffffffffffffffffffffff1660a08173ffffffffffffffffffffffffffffffffffffffff1660601b815250508060c08181525050620000c082620000ca60201b60201c565b5050505062000280565b806000806101000a81548173ffffffffffffffffffffffffffffffffffffffff021916908373ffffffffffffffffffffffffffffffffffffffff1602179055507f285938205335d4bea92402795be7d763d8fdcf6b363506d1e419f026c37f44bd816040516200013b9190620001f1565b60405180910390a150565b60008151905062000157816200024c565b92915050565b6000815190506200016e8162000266565b92915050565b600080600080608085870312156200018b57600080fd5b60006200019b8782880162000146565b9450506020620001ae8782880162000146565b9350506040620001c18782880162000146565b9250506060620001d4878288016200015d565b91505092959194509250565b620001eb816200020e565b82525050565b6000602082019050620002086000830184620001e0565b92915050565b60006200021b8262000222565b9050919050565b600073ffffffffffffffffffffffffffffffffffffffff82169050919050565b6000819050919050565b62000257816200020e565b81146200026357600080fd5b50565b620002718162000242565b81146200027d57600080fd5b50565b60805160601c60a05160601c60c051613a45620002bd6000398061201952508061168152806117265250806111ec528061140b5250613a456000f3fe608060405234801561001057600080fd5b50600436106101005760003560e01c8063727212f6116100975780639be918e6116100665780639be918e6146102aa578063bb5c7b15146102da578063f044506b146102f8578063f6d959c31461031457610100565b8063727212f614610221578063893d20e8146102525780638f72b1361461027057806397c0ac871461028c57610100565b80634b164140116100d35780634b1641401461019d57806351e7d01f146101b9578063540eaddc146101d55780636a2175c0146101f157610100565b80630254f0541461010557806305ecc2d41461012157806306bfa9381461013d5780631f5bce551461016d575b600080fd5b61011f600480360381019061011a9190612d0e565b610330565b005b61013b60048036038101906101369190612ae4565b6107a3565b005b61015760048036038101906101529190612ae4565b610824565b6040516101649190613822565b60405180910390f35b61018760048036038101906101829190612ae4565b61092b565b6040516101949190613595565b60405180910390f35b6101b760048036038101906101b29190612bb0565b610994565b005b6101d360048036038101906101ce9190612bf5565b610bc9565b005b6101ef60048036038101906101ea9190612d0e565b610dcd565b005b61020b60048036038101906102069190612ae4565b610e60565b6040516102189190613595565b60405180910390f35b61023b60048036038101906102369190612b36565b610ec9565b6040516102499291906135b0565b60405180910390f35b61025a6111e8565b6040516102679190613595565b60405180910390f35b61028a60048036038101906102859190612bb0565b61128d565b005b610294611407565b6040516102a19190613595565b60405180910390f35b6102c460048036038101906102bf9190612ae4565b61142f565b6040516102d191906135e7565b60405180910390f35b6102e2611470565b6040516102ef9190613595565b60405180910390f35b610312600480360381019061030d9190612c6a565b611499565b005b61032e60048036038101906103299190612bf5565b6115f6565b005b6103386111e8565b73ffffffffffffffffffffffffffffffffffffffff163373ffffffffffffffffffffffffffffffffffffffff16146103a5576040517f08c379a000000000000000000000000000000000000000000000000000000000815260040161039c90613622565b60405180910390fd5b60006103af61167d565b905060006103bb611722565b905060005b8c8c9050811015610782578273ffffffffffffffffffffffffffffffffffffffff1663379510498e8e848181106103f357fe5b90506020020160208101906104089190612ae4565b6040518263ffffffff1660e01b81526004016104249190613595565b60206040518083038186803b15801561043c57600080fd5b505afa158015610450573d6000803e3d6000fd5b505050506040513d601f19601f820116820180604052508101906104749190612b0d565b73ffffffffffffffffffffffffffffffffffffffff1687878381811061049657fe5b90506020020160208101906104ab9190612ae4565b73ffffffffffffffffffffffffffffffffffffffff16141561056c57600073ffffffffffffffffffffffffffffffffffffffff168585838181106104eb57fe5b90506020020160208101906105009190612ae4565b73ffffffffffffffffffffffffffffffffffffffff16146105675761056685858381811061052a57fe5b905060200201602081019061053f9190612ae4565b8e8e8481811061054b57fe5b90506020020160208101906105609190612ae4565b856117d3565b5b610775565b8c8c8281811061057857fe5b905060200201602081019061058d9190612ae4565b73ffffffffffffffffffffffffffffffffffffffff168787838181106105af57fe5b90506020020160208101906105c49190612ae4565b73ffffffffffffffffffffffffffffffffffffffff1614801561068f575060008273ffffffffffffffffffffffffffffffffffffffff1663940494f18f8f8581811061060c57fe5b90506020020160208101906106219190612ae4565b6040518263ffffffff1660e01b815260040161063d9190613595565b60206040518083038186803b15801561065557600080fd5b505afa158015610669573d6000803e3d6000fd5b505050506040513d601f19601f8201168201806040525081019061068d9190612e3c565b115b1561073957600073ffffffffffffffffffffffffffffffffffffffff168585838181106106b857fe5b90506020020160208101906106cd9190612ae4565b73ffffffffffffffffffffffffffffffffffffffff1614610734576107338585838181106106f757fe5b905060200201602081019061070c9190612ae4565b8e8e8481811061071857fe5b905060200201602081019061072d9190612ae4565b8461190d565b5b610774565b6040517f08c379a000000000000000000000000000000000000000000000000000000000815260040161076b906137c2565b60405180910390fd5b5b80806001019150506103c0565b506107958c8c8c8c8c8c8c8c8c8c611a08565b505050505050505050505050565b6107ab6111e8565b73ffffffffffffffffffffffffffffffffffffffff163373ffffffffffffffffffffffffffffffffffffffff1614610818576040517f08c379a000000000000000000000000000000000000000000000000000000000815260040161080f90613622565b60405180910390fd5b61082181611e0d565b50565b61082c61286b565b600260008373ffffffffffffffffffffffffffffffffffffffff1673ffffffffffffffffffffffffffffffffffffffff1681526020019081526020016000206040518060600160405290816000820160009054906101000a900473ffffffffffffffffffffffffffffffffffffffff1673ffffffffffffffffffffffffffffffffffffffff1673ffffffffffffffffffffffffffffffffffffffff1681526020016000820160149054906101000a900460ff1660ff1660ff1681526020016000820160159054906101000a90046affffffffffffffffffffff166affffffffffffffffffffff166affffffffffffffffffffff16815250509050919050565b6000600360008373ffffffffffffffffffffffffffffffffffffffff1673ffffffffffffffffffffffffffffffffffffffff16815260200190815260200160002060009054906101000a900473ffffffffffffffffffffffffffffffffffffffff169050919050565b61099c6111e8565b73ffffffffffffffffffffffffffffffffffffffff163373ffffffffffffffffffffffffffffffffffffffff1614610a09576040517f08c379a0000000000000000000000000000000000000000000000000000000008152600401610a0090613622565b60405180910390fd5b60005b82829050811015610bc45760026000848484818110610a2757fe5b9050602002016020810190610a3c9190612ae4565b73ffffffffffffffffffffffffffffffffffffffff1673ffffffffffffffffffffffffffffffffffffffff168152602001908152602001600020600080820160006101000a81549073ffffffffffffffffffffffffffffffffffffffff02191690556000820160146101000a81549060ff02191690556000820160156101000a8154906affffffffffffffffffffff0219169055505060036000848484818110610ae257fe5b9050602002016020810190610af79190612ae4565b73ffffffffffffffffffffffffffffffffffffffff1673ffffffffffffffffffffffffffffffffffffffff16815260200190815260200160002060006101000a81549073ffffffffffffffffffffffffffffffffffffffff0219169055828282818110610b6057fe5b9050602002016020810190610b759190612ae4565b73ffffffffffffffffffffffffffffffffffffffff167f4106dfdaa577573db51c0ca93f766dbedfa0758faa2e7f5bcdb7c142be803c3f60405160405180910390a28080600101915050610a0c565b505050565b610bd16111e8565b73ffffffffffffffffffffffffffffffffffffffff163373ffffffffffffffffffffffffffffffffffffffff1614610c3e576040517f08c379a0000000000000000000000000000000000000000000000000000000008152600401610c3590613622565b60405180910390fd5b6000610c4861167d565b90506000610c54611722565b905060005b86869050811015610db857868682818110610c7057fe5b9050602002016020810190610c859190612ae4565b73ffffffffffffffffffffffffffffffffffffffff168273ffffffffffffffffffffffffffffffffffffffff1663daf297b9878785818110610cc357fe5b9050602002016020810190610cd89190612ae4565b6040518263ffffffff1660e01b8152600401610cf49190613595565b60206040518083038186803b158015610d0c57600080fd5b505afa158015610d20573d6000803e3d6000fd5b505050506040513d601f19601f82011682018060405250810190610d449190612b0d565b73ffffffffffffffffffffffffffffffffffffffff1614610dab57610daa878783818110610d6e57fe5b9050602002016020810190610d839190612ae4565b868684818110610d8f57fe5b9050602002016020810190610da49190612ae4565b856117d3565b5b8080600101915050610c59565b50610dc586868686611e87565b505050505050565b610dd56111e8565b73ffffffffffffffffffffffffffffffffffffffff163373ffffffffffffffffffffffffffffffffffffffff1614610e42576040517f08c379a0000000000000000000000000000000000000000000000000000000008152600401610e3990613622565b60405180910390fd5b610e548a8a8a8a8a8a8a8a8a8a611a08565b50505050505050505050565b6000600160008373ffffffffffffffffffffffffffffffffffffffff1673ffffffffffffffffffffffffffffffffffffffff16815260200190815260200160002060009054906101000a900473ffffffffffffffffffffffffffffffffffffffff169050919050565b6060806000610ed785610e60565b9050600073ffffffffffffffffffffffffffffffffffffffff168173ffffffffffffffffffffffffffffffffffffffff161415610f49576040517f08c379a0000000000000000000000000000000000000000000000000000000008152600401610f4090613602565b60405180910390fd5b610f5161286b565b610f5a82610824565b905060008273ffffffffffffffffffffffffffffffffffffffff1663bb7b8b806040518163ffffffff1660e01b815260040160206040518083038186803b158015610fa457600080fd5b505afa158015610fb8573d6000803e3d6000fd5b505050506040513d601f19601f82011682018060405250810190610fdc9190612e3c565b9050600082604001516affffffffffffffffffffff1611801561101657506110158183604001516affffffffffffffffffffff16611fd3565b5b15611026576110258382612060565b5b600167ffffffffffffffff8111801561103e57600080fd5b5060405190808252806020026020018201604052801561106d5781602001602082028036833780820191505090505b50945081600001518560008151811061108257fe5b602002602001019073ffffffffffffffffffffffffffffffffffffffff16908173ffffffffffffffffffffffffffffffffffffffff1681525050600167ffffffffffffffff811180156110d457600080fd5b506040519080825280602002602001820160405280156111035781602001602082028036833780820191505090505b5093506012826020015160ff16141561116157611143670de0b6b3a7640000611135838961212a90919063ffffffff16565b61219a90919063ffffffff16565b8460008151811061115057fe5b6020026020010181815250506111de565b6111c4670de0b6b3a76400006111b6670de0b6b3a76400006111a8866020015160ff16600a0a61119a878d61212a90919063ffffffff16565b61212a90919063ffffffff16565b61219a90919063ffffffff16565b61219a90919063ffffffff16565b846000815181106111d157fe5b6020026020010181815250505b5050509250929050565b60007f000000000000000000000000000000000000000000000000000000000000000073ffffffffffffffffffffffffffffffffffffffff1663893d20e86040518163ffffffff1660e01b815260040160206040518083038186803b15801561125057600080fd5b505afa158015611264573d6000803e3d6000fd5b505050506040513d601f19601f820116820180604052508101906112889190612b0d565b905090565b6112956111e8565b73ffffffffffffffffffffffffffffffffffffffff163373ffffffffffffffffffffffffffffffffffffffff1614611302576040517f08c379a00000000000000000000000000000000000000000000000000000000081526004016112f990613622565b60405180910390fd5b60005b82829050811015611402576001600084848481811061132057fe5b90506020020160208101906113359190612ae4565b73ffffffffffffffffffffffffffffffffffffffff1673ffffffffffffffffffffffffffffffffffffffff16815260200190815260200160002060006101000a81549073ffffffffffffffffffffffffffffffffffffffff021916905582828281811061139e57fe5b90506020020160208101906113b39190612ae4565b73ffffffffffffffffffffffffffffffffffffffff167fc15eb25d807b570f4567baf6e97c7b26d58a7d0512dc85e8db15375a056b860460405160405180910390a28080600101915050611305565b505050565b60007f0000000000000000000000000000000000000000000000000000000000000000905090565b60008073ffffffffffffffffffffffffffffffffffffffff1661145183610e60565b73ffffffffffffffffffffffffffffffffffffffff1614159050919050565b60008060009054906101000a900473ffffffffffffffffffffffffffffffffffffffff16905090565b6114a16111e8565b73ffffffffffffffffffffffffffffffffffffffff163373ffffffffffffffffffffffffffffffffffffffff161461150e576040517f08c379a000000000000000000000000000000000000000000000000000000000815260040161150590613622565b60405180910390fd5b838390508686905014801561152857508181905086869050145b611567576040517f08c379a000000000000000000000000000000000000000000000000000000000815260040161155e906137e2565b60405180910390fd5b60005b868690508110156115ed576115e087878381811061158457fe5b90506020020160208101906115999190612ae4565b8686848181106115a557fe5b90506020020160208101906115ba9190612ae4565b8585858181106115c657fe5b90506020020160208101906115db9190612e13565b6121f0565b808060010191505061156a565b50505050505050565b6115fe6111e8565b73ffffffffffffffffffffffffffffffffffffffff163373ffffffffffffffffffffffffffffffffffffffff161461166b576040517f08c379a000000000000000000000000000000000000000000000000000000000815260040161166290613622565b60405180910390fd5b61167784848484611e87565b50505050565b60007f000000000000000000000000000000000000000000000000000000000000000073ffffffffffffffffffffffffffffffffffffffff1663a262904b6040518163ffffffff1660e01b815260040160206040518083038186803b1580156116e557600080fd5b505afa1580156116f9573d6000803e3d6000fd5b505050506040513d601f19601f8201168201806040525081019061171d9190612b0d565b905090565b60007f000000000000000000000000000000000000000000000000000000000000000073ffffffffffffffffffffffffffffffffffffffff1663493f4f7460036040518263ffffffff1660e01b815260040161177e919061383d565b60206040518083038186803b15801561179657600080fd5b505afa1580156117aa573d6000803e3d6000fd5b505050506040513d601f19601f820116820180604052508101906117ce9190612b0d565b905090565b6117db6128b2565b8173ffffffffffffffffffffffffffffffffffffffff166356059ffb846040518263ffffffff1660e01b81526004016118149190613595565b6102806040518083038186803b15801561182d57600080fd5b505afa158015611841573d6000803e3d6000fd5b505050506040513d601f19601f820116820180604052508101906118659190612b72565b50905060005b600a8110156118cc578181600a811061188057fe5b602002015173ffffffffffffffffffffffffffffffffffffffff168573ffffffffffffffffffffffffffffffffffffffff1614156118bf575050611908565b808060010191505061186b565b506040517f08c379a00000000000000000000000000000000000000000000000000000000081526004016118ff90613762565b60405180910390fd5b505050565b8073ffffffffffffffffffffffffffffffffffffffff1663daf297b9836040518263ffffffff1660e01b81526004016119469190613595565b60206040518083038186803b15801561195e57600080fd5b505afa158015611972573d6000803e3d6000fd5b505050506040513d601f19601f820116820180604052508101906119969190612b0d565b73ffffffffffffffffffffffffffffffffffffffff168373ffffffffffffffffffffffffffffffffffffffff1614611a03576040517f08c379a00000000000000000000000000000000000000000000000000000000081526004016119fa90613782565b60405180910390fd5b505050565b878790508a8a9050148015611a225750858590508a8a9050145b8015611a335750838390508a8a9050145b8015611a445750818190508a8a9050145b611a83576040517f08c379a0000000000000000000000000000000000000000000000000000000008152600401611a7a90613642565b60405180910390fd5b60005b8a8a9050811015611e0057600073ffffffffffffffffffffffffffffffffffffffff16858583818110611ab557fe5b9050602002016020810190611aca9190612ae4565b73ffffffffffffffffffffffffffffffffffffffff161415611b21576040517f08c379a0000000000000000000000000000000000000000000000000000000008152600401611b1890613742565b60405180910390fd5b600073ffffffffffffffffffffffffffffffffffffffff16611b628c8c84818110611b4857fe5b9050602002016020810190611b5d9190612ae4565b61092b565b73ffffffffffffffffffffffffffffffffffffffff1614611bb8576040517f08c379a0000000000000000000000000000000000000000000000000000000008152600401611baf906136e2565b60405180910390fd5b611be18b8b83818110611bc757fe5b9050602002016020810190611bdc9190612ae4565b6124cd565b611c4c8b8b83818110611bf057fe5b9050602002016020810190611c059190612ae4565b8a8a84818110611c1157fe5b9050602002016020810190611c269190612ae4565b898985818110611c3257fe5b9050602002016020810190611c479190612e13565b6121f0565b848482818110611c5857fe5b9050602002016020810190611c6d9190612ae4565b600360008d8d85818110611c7d57fe5b9050602002016020810190611c929190612ae4565b73ffffffffffffffffffffffffffffffffffffffff1673ffffffffffffffffffffffffffffffffffffffff16815260200190815260200160002060006101000a81548173ffffffffffffffffffffffffffffffffffffffff021916908373ffffffffffffffffffffffffffffffffffffffff160217905550611d54858583818110611d1957fe5b9050602002016020810190611d2e9190612ae4565b8c8c84818110611d3a57fe5b9050602002016020810190611d4f9190612ae4565b612590565b600073ffffffffffffffffffffffffffffffffffffffff16838383818110611d7857fe5b9050602002016020810190611d8d9190612ae4565b73ffffffffffffffffffffffffffffffffffffffff1614611df357611df2838383818110611db757fe5b9050602002016020810190611dcc9190612ae4565b8c8c84818110611dd857fe5b9050602002016020810190611ded9190612ae4565b612590565b5b8080600101915050611a86565b5050505050505050505050565b806000806101000a81548173ffffffffffffffffffffffffffffffffffffffff021916908373ffffffffffffffffffffffffffffffffffffffff1602179055507f285938205335d4bea92402795be7d763d8fdcf6b363506d1e419f026c37f44bd81604051611e7c9190613595565b60405180910390a150565b818190508484905014611ecf576040517f08c379a0000000000000000000000000000000000000000000000000000000008152600401611ec690613682565b60405180910390fd5b60005b84849050811015611fcc57600073ffffffffffffffffffffffffffffffffffffffff16611f1e848484818110611f0457fe5b9050602002016020810190611f199190612ae4565b61092b565b73ffffffffffffffffffffffffffffffffffffffff161415611f75576040517f08c379a0000000000000000000000000000000000000000000000000000000008152600401611f6c90613802565b60405180910390fd5b611fbf858583818110611f8457fe5b9050602002016020810190611f999190612ae4565b848484818110611fa557fe5b9050602002016020810190611fba9190612ae4565b612590565b8080600101915050611ed2565b5050505050565b60008082841115611ff857611ff183856127a690919063ffffffff16565b905061200e565b61200b84846127a690919063ffffffff16565b90505b6120556127106120477f00000000000000000000000000000000000000000000000000000000000000008661212a90919063ffffffff16565b61219a90919063ffffffff16565b811191505092915050565b612069826127f6565b80600260008473ffffffffffffffffffffffffffffffffffffffff1673ffffffffffffffffffffffffffffffffffffffff16815260200190815260200160002060000160156101000a8154816affffffffffffffffffffff02191690836affffffffffffffffffffff1602179055508173ffffffffffffffffffffffffffffffffffffffff167fe4e8751d7ee9680c15b1a348b174e860467c86da7f4da037714ff62621947fb58260405161211e919061383d565b60405180910390a25050565b60008083141561213d5760009050612194565b600082840290508284828161214e57fe5b041461218f576040517f08c379a000000000000000000000000000000000000000000000000000000000815260040161218690613702565b60405180910390fd5b809150505b92915050565b60008082116121de576040517f08c379a00000000000000000000000000000000000000000000000000000000081526004016121d5906136a2565b60405180910390fd5b8183816121e757fe5b04905092915050565b600081156122d057612201846127f6565b8373ffffffffffffffffffffffffffffffffffffffff1663bb7b8b806040518163ffffffff1660e01b815260040160206040518083038186803b15801561224757600080fd5b505afa15801561225b573d6000803e3d6000fd5b505050506040513d601f19601f8201168201806040525081019061227f9190612e3c565b90508373ffffffffffffffffffffffffffffffffffffffff167fe4e8751d7ee9680c15b1a348b174e860467c86da7f4da037714ff62621947fb5826040516122c7919061383d565b60405180910390a25b60405180606001604052808473ffffffffffffffffffffffffffffffffffffffff1681526020018473ffffffffffffffffffffffffffffffffffffffff1663313ce5676040518163ffffffff1660e01b815260040160206040518083038186803b15801561233d57600080fd5b505afa158015612351573d6000803e3d6000fd5b505050506040513d601f19601f820116820180604052508101906123759190612e65565b60ff168152602001826affffffffffffffffffffff16815250600260008673ffffffffffffffffffffffffffffffffffffffff1673ffffffffffffffffffffffffffffffffffffffff16815260200190815260200160002060008201518160000160006101000a81548173ffffffffffffffffffffffffffffffffffffffff021916908373ffffffffffffffffffffffffffffffffffffffff16021790555060208201518160000160146101000a81548160ff021916908360ff16021790555060408201518160000160156101000a8154816affffffffffffffffffffff02191690836affffffffffffffffffffff1602179055509050508273ffffffffffffffffffffffffffffffffffffffff168473ffffffffffffffffffffffffffffffffffffffff167fd748ce6086753f34f4a44a74c6e4ca397bcb452a0ce8389ba826794b0bd77dc360405160405180910390a350505050565b60008173ffffffffffffffffffffffffffffffffffffffff1663bb7b8b806040518163ffffffff1660e01b815260040160206040518083038186803b15801561251557600080fd5b505afa158015612529573d6000803e3d6000fd5b505050506040513d601f19601f8201168201806040525081019061254d9190612e3c565b1161258d576040517f08c379a0000000000000000000000000000000000000000000000000000000008152600401612584906136c2565b60405180910390fd5b50565b600073ffffffffffffffffffffffffffffffffffffffff166125b183610e60565b73ffffffffffffffffffffffffffffffffffffffff1614612607576040517f08c379a00000000000000000000000000000000000000000000000000000000081526004016125fe906137a2565b60405180910390fd5b60128273ffffffffffffffffffffffffffffffffffffffff1663313ce5676040518163ffffffff1660e01b815260040160206040518083038186803b15801561264f57600080fd5b505afa158015612663573d6000803e3d6000fd5b505050506040513d601f19601f820116820180604052508101906126879190612e65565b60ff16146126ca576040517f08c379a00000000000000000000000000000000000000000000000000000000081526004016126c190613722565b60405180910390fd5b80600160008473ffffffffffffffffffffffffffffffffffffffff1673ffffffffffffffffffffffffffffffffffffffff16815260200190815260200160002060006101000a81548173ffffffffffffffffffffffffffffffffffffffff021916908373ffffffffffffffffffffffffffffffffffffffff1602179055508073ffffffffffffffffffffffffffffffffffffffff168273ffffffffffffffffffffffffffffffffffffffff167faa4ae250fb435bb4b31ed0b95822bc179fc6c5dd0c727c3ffe08d444025efd9860405160405180910390a35050565b6000828211156127eb576040517f08c379a00000000000000000000000000000000000000000000000000000000081526004016127e290613662565b60405180910390fd5b818303905092915050565b6127fe611470565b73ffffffffffffffffffffffffffffffffffffffff1663e4e67c0f826040518263ffffffff1660e01b81526004016128369190613595565b600060405180830381600087803b15801561285057600080fd5b505af1158015612864573d6000803e3d6000fd5b5050505050565b6040518060600160405280600073ffffffffffffffffffffffffffffffffffffffff168152602001600060ff16815260200160006affffffffffffffffffffff1681525090565b604051806101400160405280600a90602082028036833780820191505090505090565b6000813590506128e4816139c5565b92915050565b6000815190506128f9816139c5565b92915050565b600082601f83011261291057600080fd5b600a61292361291e82613885565b613858565b9150818385602084028201111561293957600080fd5b60005b83811015612969578161294f88826128ea565b84526020840193506020830192505060018101905061293c565b5050505092915050565b60008083601f84011261298557600080fd5b8235905067ffffffffffffffff81111561299e57600080fd5b6020830191508360208202830111156129b657600080fd5b9250929050565b60008083601f8401126129cf57600080fd5b8235905067ffffffffffffffff8111156129e857600080fd5b602083019150836020820283011115612a0057600080fd5b9250929050565b600082601f830112612a1857600080fd5b600a612a2b612a26826138a7565b613858565b91508183856020840282011115612a4157600080fd5b60005b83811015612a715781612a578882612a90565b845260208401935060208301925050600181019050612a44565b5050505092915050565b600081359050612a8a816139dc565b92915050565b600081519050612a9f816139f3565b92915050565b600081359050612ab481613a0a565b92915050565b600081519050612ac981613a0a565b92915050565b600081519050612ade81613a21565b92915050565b600060208284031215612af657600080fd5b6000612b04848285016128d5565b91505092915050565b600060208284031215612b1f57600080fd5b6000612b2d848285016128ea565b91505092915050565b60008060408385031215612b4957600080fd5b6000612b57858286016128d5565b9250506020612b6885828601612aa5565b9150509250929050565b6000806102808385031215612b8657600080fd5b6000612b94858286016128ff565b925050610140612ba685828601612a07565b9150509250929050565b60008060208385031215612bc357600080fd5b600083013567ffffffffffffffff811115612bdd57600080fd5b612be985828601612973565b92509250509250929050565b60008060008060408587031215612c0b57600080fd5b600085013567ffffffffffffffff811115612c2557600080fd5b612c3187828801612973565b9450945050602085013567ffffffffffffffff811115612c5057600080fd5b612c5c87828801612973565b925092505092959194509250565b60008060008060008060608789031215612c8357600080fd5b600087013567ffffffffffffffff811115612c9d57600080fd5b612ca989828a01612973565b9650965050602087013567ffffffffffffffff811115612cc857600080fd5b612cd489828a01612973565b9450945050604087013567ffffffffffffffff811115612cf357600080fd5b612cff89828a016129bd565b92509250509295509295509295565b60008060008060008060008060008060a08b8d031215612d2d57600080fd5b60008b013567ffffffffffffffff811115612d4757600080fd5b612d538d828e01612973565b9a509a505060208b013567ffffffffffffffff811115612d7257600080fd5b612d7e8d828e01612973565b985098505060408b013567ffffffffffffffff811115612d9d57600080fd5b612da98d828e016129bd565b965096505060608b013567ffffffffffffffff811115612dc857600080fd5b612dd48d828e01612973565b945094505060808b013567ffffffffffffffff811115612df357600080fd5b612dff8d828e01612973565b92509250509295989b9194979a5092959850565b600060208284031215612e2557600080fd5b6000612e3384828501612a7b565b91505092915050565b600060208284031215612e4e57600080fd5b6000612e5c84828501612aba565b91505092915050565b600060208284031215612e7757600080fd5b6000612e8584828501612acf565b91505092915050565b6000612e9a8383612ebe565b60208301905092915050565b6000612eb28383613559565b60208301905092915050565b612ec78161394c565b82525050565b612ed68161394c565b82525050565b6000612ee7826138e9565b612ef18185613919565b9350612efc836138c9565b8060005b83811015612f2d578151612f148882612e8e565b9750612f1f836138ff565b925050600181019050612f00565b5085935050505092915050565b6000612f45826138f4565b612f4f818561392a565b9350612f5a836138d9565b8060005b83811015612f8b578151612f728882612ea6565b9750612f7d8361390c565b925050600181019050612f5e565b5085935050505092915050565b612fa18161395e565b82525050565b6000612fb460328361393b565b91507f63616c63556e6465726c79696e6756616c7565733a205f64657269766174697660008301527f65206973206e6f7420737570706f7274656400000000000000000000000000006020830152604082019050919050565b600061301a60498361393b565b91507f6f6e6c7946756e644465706c6f7965724f776e65723a204f6e6c79207468652060008301527f46756e644465706c6f796572206f776e65722063616e2063616c6c207468697360208301527f2066756e6374696f6e00000000000000000000000000000000000000000000006040830152606082019050919050565b60006130a6601a8361393b565b91507f5f5f616464506f6f6c733a20556e657175616c206172726179730000000000006000830152602082019050919050565b60006130e6601e8361393b565b91507f536166654d6174683a207375627472616374696f6e206f766572666c6f7700006000830152602082019050919050565b600061312660208361393b565b91507f5f5f6164644761756765546f6b656e733a20556e657175616c206172726179736000830152602082019050919050565b6000613166601a8361393b565b91507f536166654d6174683a206469766973696f6e206279207a65726f0000000000006000830152602082019050919050565b60006131a660298361393b565b91507f5f5f76616c6964617465506f6f6c436f6d7061746962696c6974793a20496e6360008301527f6f6d70617469626c6500000000000000000000000000000000000000000000006020830152604082019050919050565b600061320c601e8361393b565b91507f5f5f616464506f6f6c733a20416c7265616479207265676973746572656400006000830152602082019050919050565b600061324c60218361393b565b91507f536166654d6174683a206d756c7469706c69636174696f6e206f766572666c6f60008301527f77000000000000000000000000000000000000000000000000000000000000006020830152604082019050919050565b60006132b2601f8361393b565b91507f5f5f616464446572697661746976653a204e6f742031382d646563696d616c006000830152602082019050919050565b60006132f260198361393b565b91507f5f5f616464506f6f6c733a20456d707479206c70546f6b656e000000000000006000830152602082019050919050565b6000613332602a8361393b565b91507f5f5f76616c696461746547617567654d61696e52656769737472793a20496e7660008301527f616c6964206761756765000000000000000000000000000000000000000000006020830152604082019050919050565b600061339860358361393b565b91507f5f5f76616c696461746547617567654d657461706f6f6c466163746f7279526560008301527f6769737472793a20496e76616c696420676175676500000000000000000000006020830152604082019050919050565b60006133fe601f8361393b565b91507f5f5f616464446572697661746976653a20416c726561647920657869737473006000830152602082019050919050565b600061343e60188361393b565b91507f616464506f6f6c733a20496e76616c696420696e7075747300000000000000006000830152602082019050919050565b600061347e601e8361393b565b91507f757064617465506f6f6c496e666f3a20556e657175616c2061727261797300006000830152602082019050919050565b60006134be60258361393b565b91507f5f5f6164644761756765546f6b656e733a20506f6f6c206e6f7420726567697360008301527f74657265640000000000000000000000000000000000000000000000000000006020830152604082019050919050565b60608201600082015161352d6000850182612ebe565b5060208201516135406020850182613586565b5060408201516135536040850182613577565b50505050565b61356281613997565b82525050565b61357181613997565b82525050565b613580816139ae565b82525050565b61358f816139a1565b82525050565b60006020820190506135aa6000830184612ecd565b92915050565b600060408201905081810360008301526135ca8185612edc565b905081810360208301526135de8184612f3a565b90509392505050565b60006020820190506135fc6000830184612f98565b92915050565b6000602082019050818103600083015261361b81612fa7565b9050919050565b6000602082019050818103600083015261363b8161300d565b9050919050565b6000602082019050818103600083015261365b81613099565b9050919050565b6000602082019050818103600083015261367b816130d9565b9050919050565b6000602082019050818103600083015261369b81613119565b9050919050565b600060208201905081810360008301526136bb81613159565b9050919050565b600060208201905081810360008301526136db81613199565b9050919050565b600060208201905081810360008301526136fb816131ff565b9050919050565b6000602082019050818103600083015261371b8161323f565b9050919050565b6000602082019050818103600083015261373b816132a5565b9050919050565b6000602082019050818103600083015261375b816132e5565b9050919050565b6000602082019050818103600083015261377b81613325565b9050919050565b6000602082019050818103600083015261379b8161338b565b9050919050565b600060208201905081810360008301526137bb816133f1565b9050919050565b600060208201905081810360008301526137db81613431565b9050919050565b600060208201905081810360008301526137fb81613471565b9050919050565b6000602082019050818103600083015261381b816134b1565b9050919050565b60006060820190506138376000830184613517565b92915050565b60006020820190506138526000830184613568565b92915050565b6000604051905081810181811067ffffffffffffffff8211171561387b57600080fd5b8060405250919050565b600067ffffffffffffffff82111561389c57600080fd5b602082029050919050565b600067ffffffffffffffff8211156138be57600080fd5b602082029050919050565b6000819050602082019050919050565b6000819050602082019050919050565b600081519050919050565b600081519050919050565b6000602082019050919050565b6000602082019050919050565b600082825260208201905092915050565b600082825260208201905092915050565b600082825260208201905092915050565b600061395782613977565b9050919050565b60008115159050919050565b600081600f0b9050919050565b600073ffffffffffffffffffffffffffffffffffffffff82169050919050565b6000819050919050565b600060ff82169050919050565b60006affffffffffffffffffffff82169050919050565b6139ce8161394c565b81146139d957600080fd5b50565b6139e58161395e565b81146139f057600080fd5b50565b6139fc8161396a565b8114613a0757600080fd5b50565b613a1381613997565b8114613a1e57600080fd5b50565b613a2a816139a1565b8114613a3557600080fd5b5056fea164736f6c634300060c000a","linkReferences":{}},"methodIdentifiers":{"addGaugeTokens(address[],address[])":"51e7d01f","addGaugeTokensWithoutValidation(address[],address[])":"f6d959c3","addPools(address[],address[],bool[],address[],address[])":"0254f054","addPoolsWithoutValidation(address[],address[],bool[],address[],address[])":"540eaddc","calcUnderlyingValues(address,uint256)":"727212f6","getCurvePoolOwner()":"bb5c7b15","getFundDeployer()":"97c0ac87","getLpTokenForPool(address)":"1f5bce55","getOwner()":"893d20e8","getPoolForDerivative(address)":"6a2175c0","getPoolInfo(address)":"06bfa938","isSupportedAsset(address)":"9be918e6","removeDerivatives(address[])":"8f72b136","removePools(address[])":"4b164140","setCurvePoolOwner(address)":"05ecc2d4","updatePoolInfo(address[],address[],bool[])":"f044506b"},"id":288}