{"abi":[{"type":"constructor","inputs":[{"name":"_policyManagerAddress","type":"address","internalType":"address"},{"name":"_valueInterpreter","type":"address","internalType":"contract IValueInterpreter"}],"stateMutability":"nonpayable"},{"type":"function","name":"activateForFund","inputs":[{"name":"","type":"address","internalType":"address"}],"outputs":[],"stateMutability":"nonpayable"},{"type":"function","name":"addFundSettings","inputs":[{"name":"_comptrollerProxy","type":"address","internalType":"address"},{"name":"_encodedSettings","type":"bytes","internalType":"bytes"}],"outputs":[],"stateMutability":"nonpayable"},{"type":"function","name":"canDisable","inputs":[],"outputs":[{"name":"canDisable_","type":"bool","internalType":"bool"}],"stateMutability":"pure"},{"type":"function","name":"getAssetConfigsForFund","inputs":[{"name":"_comptrollerProxy","type":"address","internalType":"address"}],"outputs":[{"name":"assetConfigs_","type":"tuple[]","internalType":"struct NoDepegPolicyBase.AssetConfig[]","components":[{"name":"asset","type":"address","internalType":"contract ERC20"},{"name":"referenceAsset","type":"address","internalType":"contract ERC20"},{"name":"deviationToleranceInBps","type":"uint16","internalType":"uint16"}]}],"stateMutability":"view"},{"type":"function","name":"getPolicyManager","inputs":[],"outputs":[{"name":"policyManager_","type":"address","internalType":"address"}],"stateMutability":"view"},{"type":"function","name":"identifier","inputs":[],"outputs":[{"name":"identifier_","type":"string","internalType":"string"}],"stateMutability":"pure"},{"type":"function","name":"implementedHooks","inputs":[],"outputs":[{"name":"implementedHooks_","type":"uint8[]","internalType":"enum IPolicyManager.PolicyHook[]"}],"stateMutability":"pure"},{"type":"function","name":"updateFundSettings","inputs":[{"name":"_comptrollerProxy","type":"address","internalType":"address"},{"name":"_encodedSettings","type":"bytes","internalType":"bytes"}],"outputs":[],"stateMutability":"nonpayable"},{"type":"function","name":"validateRule","inputs":[{"name":"_comptrollerProxy","type":"address","internalType":"address"},{"name":"","type":"uint8","internalType":"enum IPolicyManager.PolicyHook"},{"name":"","type":"bytes","internalType":"bytes"}],"outputs":[{"name":"isValid_","type":"bool","internalType":"bool"}],"stateMutability":"nonpayable"},{"type":"event","name":"FundSettingsUpdated","inputs":[{"name":"comptrollerProxy","type":"address","indexed":true,"internalType":"address"},{"name":"assetConfigs","type":"tuple[]","indexed":false,"internalType":"struct NoDepegPolicyBase.AssetConfig[]","components":[{"name":"asset","type":"address","internalType":"contract ERC20"},{"name":"referenceAsset","type":"address","internalType":"contract ERC20"},{"name":"deviationToleranceInBps","type":"uint16","internalType":"uint16"}]}],"anonymous":false}],"bytecode":{"object":"0x60c06040523480156200001157600080fd5b5060405162001c7a38038062001c7a83398181016040528101906200003791906200015c565b8181818073ffffffffffffffffffffffffffffffffffffffff1660808173ffffffffffffffffffffffffffffffffffffffff1681525050508073ffffffffffffffffffffffffffffffffffffffff1660a08173ffffffffffffffffffffffffffffffffffffffff168152505050505050620001a3565b600080fd5b600073ffffffffffffffffffffffffffffffffffffffff82169050919050565b6000620000df82620000b2565b9050919050565b620000f181620000d2565b8114620000fd57600080fd5b50565b6000815190506200011181620000e6565b92915050565b60006200012482620000d2565b9050919050565b620001368162000117565b81146200014257600080fd5b50565b60008151905062000156816200012b565b92915050565b60008060408385031215620001765762000175620000ad565b5b6000620001868582860162000100565b9250506020620001998582860162000145565b9150509250929050565b60805160a051611aa3620001d760003960006104e20152600081816101c6015281816102ae01526107da0152611aa36000f3fe608060405234801561001057600080fd5b50600436106100935760003560e01c80637998a1c4116100665780637998a1c41461011e578063cbf54bb21461013c578063ceb9a0ad1461015a578063d44ad6cb14610176578063f6ffaa891461019457610093565b80630d4d7510146100985780630f5f6b4f146100b45780631ef92578146100d0578063579be718146100ee575b600080fd5b6100b260048036038101906100ad9190610d4d565b6101c4565b005b6100ce60048036038101906100c99190610d4d565b6102ac565b005b6100d861034a565b6040516100e59190610dc8565b60405180910390f35b61010860048036038101906101039190610e08565b610353565b6040516101159190610dc8565b60405180910390f35b61012661071a565b6040516101339190610f0c565b60405180910390f35b61014461073a565b6040516101519190611054565b60405180910390f35b610174600480360381019061016f9190611076565b6107d3565b005b61017e6107d6565b60405161018b91906110b2565b60405180910390f35b6101ae60048036038101906101a99190611076565b6107fe565b6040516101bb919061123a565b60405180910390f35b7f000000000000000000000000000000000000000000000000000000000000000073ffffffffffffffffffffffffffffffffffffffff163373ffffffffffffffffffffffffffffffffffffffff1614610252576040517f08c379a0000000000000000000000000000000000000000000000000000000008152600401610249906112ce565b60405180910390fd5b6000808473ffffffffffffffffffffffffffffffffffffffff1673ffffffffffffffffffffffffffffffffffffffff168152602001908152602001600020600061029c9190610bd8565b6102a7838383610967565b505050565b7f000000000000000000000000000000000000000000000000000000000000000073ffffffffffffffffffffffffffffffffffffffff163373ffffffffffffffffffffffffffffffffffffffff161461033a576040517f08c379a0000000000000000000000000000000000000000000000000000000008152600401610331906112ce565b60405180910390fd5b610345838383610967565b505050565b60006001905090565b6000806000808773ffffffffffffffffffffffffffffffffffffffff1673ffffffffffffffffffffffffffffffffffffffff16815260200190815260200160002080549050905060005b8181101561070b5760008060008973ffffffffffffffffffffffffffffffffffffffff1673ffffffffffffffffffffffffffffffffffffffff16815260200190815260200160002082815481106103f7576103f66112ee565b5b90600052602060002090600202016040518060600160405290816000820160009054906101000a900473ffffffffffffffffffffffffffffffffffffffff1673ffffffffffffffffffffffffffffffffffffffff1673ffffffffffffffffffffffffffffffffffffffff1681526020016001820160009054906101000a900473ffffffffffffffffffffffffffffffffffffffff1673ffffffffffffffffffffffffffffffffffffffff1673ffffffffffffffffffffffffffffffffffffffff1681526020016001820160149054906101000a900461ffff1661ffff1661ffff1681525050905060007f000000000000000000000000000000000000000000000000000000000000000073ffffffffffffffffffffffffffffffffffffffff16634c67e1068360000151846000015173ffffffffffffffffffffffffffffffffffffffff1663313ce5676040518163ffffffff1660e01b8152600401602060405180830381865afa158015610570573d6000803e3d6000fd5b505050506040513d601f19601f820116820180604052508101906105949190611356565b600a6105a091906114ef565b85602001516040518463ffffffff1660e01b81526004016105c393929190611549565b6020604051808303816000875af11580156105e2573d6000803e3d6000fd5b505050506040513d601f19601f8201168201806040525081019061060691906115ac565b90506000826020015173ffffffffffffffffffffffffffffffffffffffff1663313ce5676040518163ffffffff1660e01b8152600401602060405180830381865afa158015610659573d6000803e3d6000fd5b505050506040513d601f19601f8201168201806040525081019061067d9190611356565b600a61068991906114ef565b90506000818311156106a85781836106a191906115d9565b90506106b7565b82826106b491906115d9565b90505b600082826127106106c8919061160d565b6106d2919061167e565b9050846040015161ffff1681106106f3576000975050505050505050610712565b50505050508080610703906116af565b91505061039d565b5060019150505b949350505050565b60606040518060600160405280602d8152602001611a76602d9139905090565b6060600167ffffffffffffffff811115610757576107566116f7565b5b6040519080825280602002602001820160405280156107855781602001602082028036833780820191505090505b50905060038160008151811061079e5761079d6112ee565b5b602002602001019060098111156107b8576107b7610f5a565b5b908160098111156107cc576107cb610f5a565b5b8152505090565b50565b60007f0000000000000000000000000000000000000000000000000000000000000000905090565b60606000808373ffffffffffffffffffffffffffffffffffffffff1673ffffffffffffffffffffffffffffffffffffffff168152602001908152602001600020805480602002602001604051908101604052809291908181526020016000905b8282101561095c57838290600052602060002090600202016040518060600160405290816000820160009054906101000a900473ffffffffffffffffffffffffffffffffffffffff1673ffffffffffffffffffffffffffffffffffffffff1673ffffffffffffffffffffffffffffffffffffffff1681526020016001820160009054906101000a900473ffffffffffffffffffffffffffffffffffffffff1673ffffffffffffffffffffffffffffffffffffffff1673ffffffffffffffffffffffffffffffffffffffff1681526020016001820160149054906101000a900461ffff1661ffff1661ffff16815250508152602001906001019061085e565b505050509050919050565b600082828101906109789190611908565b905060008151905060005b81811015610b825760008382815181106109a05761099f6112ee565b5b60200260200101516040015161ffff169050600081116109f5576040517f08c379a00000000000000000000000000000000000000000000000000000000081526004016109ec906119c3565b60405180910390fd5b6127108110610a39576040517f08c379a0000000000000000000000000000000000000000000000000000000008152600401610a3090611a55565b60405180910390fd5b6000808873ffffffffffffffffffffffffffffffffffffffff1673ffffffffffffffffffffffffffffffffffffffff168152602001908152602001600020848381518110610a8a57610a896112ee565b5b6020026020010151908060018154018082558091505060019003906000526020600020906002020160009091909190915060008201518160000160006101000a81548173ffffffffffffffffffffffffffffffffffffffff021916908373ffffffffffffffffffffffffffffffffffffffff16021790555060208201518160010160006101000a81548173ffffffffffffffffffffffffffffffffffffffff021916908373ffffffffffffffffffffffffffffffffffffffff16021790555060408201518160010160146101000a81548161ffff021916908361ffff1602179055505050508080610b7a906116af565b915050610983565b508473ffffffffffffffffffffffffffffffffffffffff167fc5794448566f7731d3557a2e89a2af9fc082e68622e20f979b58e4dfb2c58e6d83604051610bc9919061123a565b60405180910390a25050505050565b5080546000825560020290600052602060002090810190610bf99190610bfc565b50565b5b80821115610c7257600080820160006101000a81549073ffffffffffffffffffffffffffffffffffffffff02191690556001820160006101000a81549073ffffffffffffffffffffffffffffffffffffffff02191690556001820160146101000a81549061ffff021916905550600201610bfd565b5090565b6000604051905090565b600080fd5b600080fd5b600073ffffffffffffffffffffffffffffffffffffffff82169050919050565b6000610cb582610c8a565b9050919050565b610cc581610caa565b8114610cd057600080fd5b50565b600081359050610ce281610cbc565b92915050565b600080fd5b600080fd5b600080fd5b60008083601f840112610d0d57610d0c610ce8565b5b8235905067ffffffffffffffff811115610d2a57610d29610ced565b5b602083019150836001820283011115610d4657610d45610cf2565b5b9250929050565b600080600060408486031215610d6657610d65610c80565b5b6000610d7486828701610cd3565b935050602084013567ffffffffffffffff811115610d9557610d94610c85565b5b610da186828701610cf7565b92509250509250925092565b60008115159050919050565b610dc281610dad565b82525050565b6000602082019050610ddd6000830184610db9565b92915050565b600a8110610df057600080fd5b50565b600081359050610e0281610de3565b92915050565b60008060008060608587031215610e2257610e21610c80565b5b6000610e3087828801610cd3565b9450506020610e4187828801610df3565b935050604085013567ffffffffffffffff811115610e6257610e61610c85565b5b610e6e87828801610cf7565b925092505092959194509250565b600081519050919050565b600082825260208201905092915050565b60005b83811015610eb6578082015181840152602081019050610e9b565b60008484015250505050565b6000601f19601f8301169050919050565b6000610ede82610e7c565b610ee88185610e87565b9350610ef8818560208601610e98565b610f0181610ec2565b840191505092915050565b60006020820190508181036000830152610f268184610ed3565b905092915050565b600081519050919050565b600082825260208201905092915050565b6000819050602082019050919050565b7f4e487b7100000000000000000000000000000000000000000000000000000000600052602160045260246000fd5b600a8110610f9a57610f99610f5a565b5b50565b6000819050610fab82610f89565b919050565b6000610fbb82610f9d565b9050919050565b610fcb81610fb0565b82525050565b6000610fdd8383610fc2565b60208301905092915050565b6000602082019050919050565b600061100182610f2e565b61100b8185610f39565b935061101683610f4a565b8060005b8381101561104757815161102e8882610fd1565b975061103983610fe9565b92505060018101905061101a565b5085935050505092915050565b6000602082019050818103600083015261106e8184610ff6565b905092915050565b60006020828403121561108c5761108b610c80565b5b600061109a84828501610cd3565b91505092915050565b6110ac81610caa565b82525050565b60006020820190506110c760008301846110a3565b92915050565b600081519050919050565b600082825260208201905092915050565b6000819050602082019050919050565b6000819050919050565b600061111e61111961111484610c8a565b6110f9565b610c8a565b9050919050565b600061113082611103565b9050919050565b600061114282611125565b9050919050565b61115281611137565b82525050565b600061ffff82169050919050565b61116f81611158565b82525050565b60608201600082015161118b6000850182611149565b50602082015161119e6020850182611149565b5060408201516111b16040850182611166565b50505050565b60006111c38383611175565b60608301905092915050565b6000602082019050919050565b60006111e7826110cd565b6111f181856110d8565b93506111fc836110e9565b8060005b8381101561122d57815161121488826111b7565b975061121f836111cf565b925050600181019050611200565b5085935050505092915050565b6000602082019050818103600083015261125481846111dc565b905092915050565b7f4f6e6c792074686520506f6c6963794d616e616765722063616e206d616b652060008201527f746869732063616c6c0000000000000000000000000000000000000000000000602082015250565b60006112b8602983610e87565b91506112c38261125c565b604082019050919050565b600060208201905081810360008301526112e7816112ab565b9050919050565b7f4e487b7100000000000000000000000000000000000000000000000000000000600052603260045260246000fd5b600060ff82169050919050565b6113338161131d565b811461133e57600080fd5b50565b6000815190506113508161132a565b92915050565b60006020828403121561136c5761136b610c80565b5b600061137a84828501611341565b91505092915050565b7f4e487b7100000000000000000000000000000000000000000000000000000000600052601160045260246000fd5b60008160011c9050919050565b6000808291508390505b6001851115611409578086048111156113e5576113e4611383565b5b60018516156113f45780820291505b8081029050611402856113b2565b94506113c9565b94509492505050565b60008261142257600190506114de565b8161143057600090506114de565b816001811461144657600281146114505761147f565b60019150506114de565b60ff84111561146257611461611383565b5b8360020a91508482111561147957611478611383565b5b506114de565b5060208310610133831016604e8410600b84101617156114b45782820a9050838111156114af576114ae611383565b5b6114de565b6114c184848460016113bf565b925090508184048111156114d8576114d7611383565b5b81810290505b9392505050565b6000819050919050565b60006114fa826114e5565b91506115058361131d565b92506115327fffffffffffffffffffffffffffffffffffffffffffffffffffffffffffffffff8484611412565b905092915050565b611543816114e5565b82525050565b600060608201905061155e60008301866110a3565b61156b602083018561153a565b61157860408301846110a3565b949350505050565b611589816114e5565b811461159457600080fd5b50565b6000815190506115a681611580565b92915050565b6000602082840312156115c2576115c1610c80565b5b60006115d084828501611597565b91505092915050565b60006115e4826114e5565b91506115ef836114e5565b925082820390508181111561160757611606611383565b5b92915050565b6000611618826114e5565b9150611623836114e5565b9250828202611631816114e5565b9150828204841483151761164857611647611383565b5b5092915050565b7f4e487b7100000000000000000000000000000000000000000000000000000000600052601260045260246000fd5b6000611689826114e5565b9150611694836114e5565b9250826116a4576116a361164f565b5b828204905092915050565b60006116ba826114e5565b91507fffffffffffffffffffffffffffffffffffffffffffffffffffffffffffffffff82036116ec576116eb611383565b5b600182019050919050565b7f4e487b7100000000000000000000000000000000000000000000000000000000600052604160045260246000fd5b61172f82610ec2565b810181811067ffffffffffffffff8211171561174e5761174d6116f7565b5b80604052505050565b6000611761610c76565b905061176d8282611726565b919050565b600067ffffffffffffffff82111561178d5761178c6116f7565b5b602082029050602081019050919050565b600080fd5b60006117ae82610caa565b9050919050565b6117be816117a3565b81146117c957600080fd5b50565b6000813590506117db816117b5565b92915050565b6117ea81611158565b81146117f557600080fd5b50565b600081359050611807816117e1565b92915050565b6000606082840312156118235761182261179e565b5b61182d6060611757565b9050600061183d848285016117cc565b6000830152506020611851848285016117cc565b6020830152506040611865848285016117f8565b60408301525092915050565b600061188461187f84611772565b611757565b905080838252602082019050606084028301858111156118a7576118a6610cf2565b5b835b818110156118d057806118bc888261180d565b8452602084019350506060810190506118a9565b5050509392505050565b600082601f8301126118ef576118ee610ce8565b5b81356118ff848260208601611871565b91505092915050565b60006020828403121561191e5761191d610c80565b5b600082013567ffffffffffffffff81111561193c5761193b610c85565b5b611948848285016118da565b91505092915050565b7f5f5f75706461746546756e6453657474696e67733a204d697373696e6720646560008201527f76696174696f6e20746f6c6572616e6365000000000000000000000000000000602082015250565b60006119ad603183610e87565b91506119b882611951565b604082019050919050565b600060208201905081810360008301526119dc816119a0565b9050919050565b7f5f5f75706461746546756e6453657474696e67733a204d61782064657669617460008201527f696f6e20746f6c6572616e636500000000000000000000000000000000000000602082015250565b6000611a3f602d83610e87565b9150611a4a826119e3565b604082019050919050565b60006020820190508181036000830152611a6e81611a32565b905091905056fe4e4f5f44455045475f4f4e5f52454445454d5f5348415245535f464f525f53504543494649435f415353455453","linkReferences":{}},"methodIdentifiers":{"activateForFund(address)":"ceb9a0ad","addFundSettings(address,bytes)":"0f5f6b4f","canDisable()":"1ef92578","getAssetConfigsForFund(address)":"f6ffaa89","getPolicyManager()":"d44ad6cb","identifier()":"7998a1c4","implementedHooks()":"cbf54bb2","updateFundSettings(address,bytes)":"0d4d7510","validateRule(address,uint8,bytes)":"579be718"},"id":74}