{"abi":[{"type":"constructor","inputs":[{"name":"_fundDeployer","type":"address","internalType":"address"}],"stateMutability":"nonpayable"},{"type":"function","name":"addDerivatives","inputs":[{"name":"_derivatives","type":"address[]","internalType":"address[]"},{"name":"_underlyings","type":"address[]","internalType":"address[]"}],"outputs":[],"stateMutability":"nonpayable"},{"type":"function","name":"calcUnderlyingValues","inputs":[{"name":"_derivative","type":"address","internalType":"address"},{"name":"_derivativeAmount","type":"uint256","internalType":"uint256"}],"outputs":[{"name":"underlyings_","type":"address[]","internalType":"address[]"},{"name":"underlyingAmounts_","type":"uint256[]","internalType":"uint256[]"}],"stateMutability":"nonpayable"},{"type":"function","name":"getFundDeployer","inputs":[],"outputs":[{"name":"fundDeployer_","type":"address","internalType":"address"}],"stateMutability":"view"},{"type":"function","name":"getOwner","inputs":[],"outputs":[{"name":"owner_","type":"address","internalType":"address"}],"stateMutability":"view"},{"type":"function","name":"getUnderlyingForDerivative","inputs":[{"name":"_derivative","type":"address","internalType":"address"}],"outputs":[{"name":"underlying_","type":"address","internalType":"address"}],"stateMutability":"view"},{"type":"function","name":"isSupportedAsset","inputs":[{"name":"_asset","type":"address","internalType":"address"}],"outputs":[{"name":"isSupported_","type":"bool","internalType":"bool"}],"stateMutability":"view"},{"type":"function","name":"removeDerivatives","inputs":[{"name":"_derivatives","type":"address[]","internalType":"address[]"}],"outputs":[],"stateMutability":"nonpayable"},{"type":"event","name":"DerivativeAdded","inputs":[{"name":"derivative","type":"address","indexed":true,"internalType":"address"},{"name":"underlying","type":"address","indexed":true,"internalType":"address"}],"anonymous":false},{"type":"event","name":"DerivativeRemoved","inputs":[{"name":"derivative","type":"address","indexed":true,"internalType":"address"}],"anonymous":false}],"bytecode":{"object":"0x60a060405234801561001057600080fd5b50604051610d23380380610d238339818101604052602081101561003357600080fd5b5051606081901b6001600160601b0319166080526001600160a01b0316610cb761006c600039806108095280610a4e5250610cb76000f3fe608060405234801561001057600080fd5b506004361061007d5760003560e01c8063893d20e81161005b578063893d20e8146102b25780638f72b136146102ba57806397c0ac871461035d5780639be918e6146103655761007d565b806339cbb63c1461008257806366adb867146101ab578063727212f6146101ed575b600080fd5b6101a96004803603604081101561009857600080fd5b8101906020810181356401000000008111156100b357600080fd5b8201836020820111156100c557600080fd5b803590602001918460208302840111640100000000831117156100e757600080fd5b919080806020026020016040519081016040528093929190818152602001838360200280828437600092019190915250929594936020810193503591505064010000000081111561013757600080fd5b82018360208201111561014957600080fd5b8035906020019184602083028401116401000000008311171561016b57600080fd5b91908080602002602001604051908101604052809392919081815260200183836020028082843760009201919091525092955061039f945050505050565b005b6101d1600480360360208110156101c157600080fd5b50356001600160a01b031661070c565b604080516001600160a01b039092168252519081900360200190f35b6102196004803603604081101561020357600080fd5b506001600160a01b03813516906020013561072a565b604051808060200180602001838103835285818151815260200191508051906020019060200280838360005b8381101561025d578181015183820152602001610245565b50505050905001838103825284818151815260200191508051906020019060200280838360005b8381101561029c578181015183820152602001610284565b5050505090500194505050505060405180910390f35b6101d1610805565b6101a9600480360360208110156102d057600080fd5b8101906020810181356401000000008111156102eb57600080fd5b8201836020820111156102fd57600080fd5b8035906020019184602083028401116401000000008311171561031f57600080fd5b919080806020026020016040519081016040528093929190818152602001838360200280828437600092019190915250929550610891945050505050565b6101d1610a4c565b61038b6004803603602081101561037b57600080fd5b50356001600160a01b0316610a70565b604080519115158252519081900360200190f35b6103a7610805565b6001600160a01b0316336001600160a01b0316146103f65760405162461bcd60e51b8152600401808060200182810382526049815260200180610bc96049913960600191505060405180910390fd5b60008251116104365760405162461bcd60e51b8152600401808060200182810382526022815260200180610c636022913960400191505060405180910390fd5b805182511461048c576040805162461bcd60e51b815260206004820152601e60248201527f61646444657269766174697665733a20556e657175616c206172726179730000604482015290519081900360640190fd5b60005b82518110156107075760006001600160a01b03168382815181106104af57fe5b60200260200101516001600160a01b03161415610513576040805162461bcd60e51b815260206004820181905260248201527f61646444657269766174697665733a20456d7074792064657269766174697665604482015290519081900360640190fd5b60006001600160a01b031682828151811061052a57fe5b60200260200101516001600160a01b0316141561058e576040805162461bcd60e51b815260206004820181905260248201527f61646444657269766174697665733a20456d70747920756e6465726c79696e67604482015290519081900360640190fd5b60006001600160a01b03166105b58483815181106105a857fe5b602002602001015161070c565b6001600160a01b0316146105fa5760405162461bcd60e51b8152600401808060200182810382526021815260200180610c126021913960400191505060405180910390fd5b61062a83828151811061060957fe5b602002602001015183838151811061061d57fe5b6020026020010151610a8d565b81818151811061063657fe5b602002602001015160008085848151811061064d57fe5b60200260200101516001600160a01b03166001600160a01b0316815260200190815260200160002060006101000a8154816001600160a01b0302191690836001600160a01b031602179055508181815181106106a557fe5b60200260200101516001600160a01b03168382815181106106c257fe5b60200260200101516001600160a01b03167faa4ae250fb435bb4b31ed0b95822bc179fc6c5dd0c727c3ffe08d444025efd9860405160405180910390a360010161048f565b505050565b6001600160a01b039081166000908152602081905260409020541690565b60608060006107388561070c565b90506001600160a01b03811661077f5760405162461bcd60e51b8152600401808060200182810382526030815260200180610c336030913960400191505060405180910390fd5b604080516001808252818301909252906020808301908036833701905050925080836000815181106107ad57fe5b6001600160a01b039290921660209283029190910182015260408051600180825281830190925291828101908036833701905050915083826000815181106107f157fe5b602002602001018181525050509250929050565b60007f00000000000000000000000000000000000000000000000000000000000000006001600160a01b031663893d20e86040518163ffffffff1660e01b815260040160206040518083038186803b15801561086057600080fd5b505afa158015610874573d6000803e3d6000fd5b505050506040513d602081101561088a57600080fd5b5051905090565b610899610805565b6001600160a01b0316336001600160a01b0316146108e85760405162461bcd60e51b8152600401808060200182810382526049815260200180610bc96049913960600191505060405180910390fd5b60008151116109285760405162461bcd60e51b8152600401808060200182810382526025815260200180610ba46025913960400191505060405180910390fd5b60005b8151811015610a485760006001600160a01b031661094e8383815181106105a857fe5b6001600160a01b031614156109aa576040805162461bcd60e51b815260206004820181905260248201527f72656d6f766544657269766174697665733a2056616c7565206e6f7420736574604482015290519081900360640190fd5b6000808383815181106109b957fe5b60200260200101516001600160a01b03166001600160a01b0316815260200190815260200160002060006101000a8154906001600160a01b030219169055818181518110610a0357fe5b60200260200101516001600160a01b03167fc15eb25d807b570f4567baf6e97c7b26d58a7d0512dc85e8db15375a056b860460405160405180910390a260010161092b565b5050565b7f000000000000000000000000000000000000000000000000000000000000000090565b600080610a7c8361070c565b6001600160a01b0316141592915050565b806001600160a01b031663313ce5676040518163ffffffff1660e01b815260040160206040518083038186803b158015610ac657600080fd5b505afa158015610ada573d6000803e3d6000fd5b505050506040513d6020811015610af057600080fd5b50516040805163313ce56760e01b8152905160ff909216916001600160a01b0385169163313ce567916004808301926020929190829003018186803b158015610b3857600080fd5b505afa158015610b4c573d6000803e3d6000fd5b505050506040513d6020811015610b6257600080fd5b505160ff1614610a485760405162461bcd60e51b8152600401808060200182810382526026815260200180610c856026913960400191505060405180910390fdfe72656d6f766544657269766174697665733a20456d707479205f64657269766174697665736f6e6c7946756e644465706c6f7965724f776e65723a204f6e6c79207468652046756e644465706c6f796572206f776e65722063616e2063616c6c20746869732066756e6374696f6e61646444657269766174697665733a2056616c756520616c72656164792073657463616c63556e6465726c79696e6756616c7565733a204e6f74206120737570706f72746564206465726976617469766561646444657269766174697665733a20456d707479205f64657269766174697665735f5f76616c6964617465446572697661746976653a20556e657175616c20646563696d616c73a164736f6c634300060c000a","linkReferences":{}},"methodIdentifiers":{"addDerivatives(address[],address[])":"39cbb63c","calcUnderlyingValues(address,uint256)":"727212f6","getFundDeployer()":"97c0ac87","getOwner()":"893d20e8","getUnderlyingForDerivative(address)":"66adb867","isSupportedAsset(address)":"9be918e6","removeDerivatives(address[])":"8f72b136"},"id":290}