{"abi":[{"type":"function","name":"calcUnderlyingValues","inputs":[{"name":"","type":"address","internalType":"address"},{"name":"","type":"uint256","internalType":"uint256"}],"outputs":[{"name":"","type":"address[]","internalType":"address[]"},{"name":"","type":"uint256[]","internalType":"uint256[]"}],"stateMutability":"nonpayable"},{"type":"function","name":"isSupportedAsset","inputs":[{"name":"","type":"address","internalType":"address"}],"outputs":[{"name":"isSupported_","type":"bool","internalType":"bool"}],"stateMutability":"view"}],"bytecode":{"object":"0x608060405234801561001057600080fd5b50610214806100206000396000f3fe608060405234801561001057600080fd5b50600436106100365760003560e01c8063727212f61461003b5780639be918e614610126575b600080fd5b6100876004803603604081101561005157600080fd5b81019080803573ffffffffffffffffffffffffffffffffffffffff16906020019092919080359060200190929190505050610180565b604051808060200180602001838103835285818151815260200191508051906020019060200280838360005b838110156100ce5780820151818401526020810190506100b3565b50505050905001838103825284818151815260200191508051906020019060200280838360005b838110156101105780820151818401526020810190506100f5565b5050505090500194505050505060405180910390f35b6101686004803603602081101561013c57600080fd5b81019080803573ffffffffffffffffffffffffffffffffffffffff1690602001909291905050506101d4565b60405180821515815260200191505060405180910390f35b6060806040517f08c379a00000000000000000000000000000000000000000000000000000000081526004018080602001828103825260288152602001806101e06028913960400191505060405180910390fd5b60006001905091905056fe63616c63556e6465726c79696e6756616c7565733a20526576657274696e67507269636546656564a164736f6c634300060c000a","linkReferences":{}},"methodIdentifiers":{"calcUnderlyingValues(address,uint256)":"727212f6","isSupportedAsset(address)":"9be918e6"},"id":291}