{"abi":[{"type":"constructor","inputs":[{"name":"_integrationManagerAddress","type":"address","internalType":"address"},{"name":"_fundDeployerAddress","type":"address","internalType":"address"},{"name":"_dispatcher","type":"address","internalType":"contract IDispatcher"}],"stateMutability":"nonpayable"},{"type":"function","name":"DISPATCHER","inputs":[],"outputs":[{"name":"","type":"address","internalType":"contract IDispatcher"}],"stateMutability":"view"},{"type":"function","name":"FUND_DEPLOYER_ADDRESS","inputs":[],"outputs":[{"name":"","type":"address","internalType":"address"}],"stateMutability":"view"},{"type":"function","name":"action","inputs":[{"name":"_vaultProxyAddress","type":"address","internalType":"address"},{"name":"_actionData","type":"bytes","internalType":"bytes"},{"name":"","type":"bytes","internalType":"bytes"}],"outputs":[],"stateMutability":"nonpayable"},{"type":"function","name":"getIntegrationManager","inputs":[],"outputs":[{"name":"integrationManager_","type":"address","internalType":"address"}],"stateMutability":"view"},{"type":"function","name":"parseAssetsForAction","inputs":[{"name":"","type":"address","internalType":"address"},{"name":"_selector","type":"bytes4","internalType":"bytes4"},{"name":"_actionData","type":"bytes","internalType":"bytes"}],"outputs":[{"name":"spendAssetsHandleType_","type":"uint8","internalType":"enum IIntegrationManager.SpendAssetsHandleType"},{"name":"spendAssets_","type":"address[]","internalType":"address[]"},{"name":"spendAssetAmounts_","type":"uint256[]","internalType":"uint256[]"},{"name":"incomingAssets_","type":"address[]","internalType":"address[]"},{"name":"minIncomingAssetAmounts_","type":"uint256[]","internalType":"uint256[]"}],"stateMutability":"view"},{"type":"error","name":"EnzymeV4VaultAdapter__InvalidAction","inputs":[]},{"type":"error","name":"EnzymeV4VaultAdapter__InvalidVaultProxy","inputs":[]}],"bytecode":{"object":"0x60e06040523480156200001157600080fd5b50604051620017fa380380620017fa8339810160408190526200003491620000b1565b6001600160a01b0392831660805290821660c0521660a05262000109565b60006001600160a01b0382165b92915050565b620000708162000052565b81146200007c57600080fd5b50565b80516200005f8162000065565b60006200005f8262000052565b62000070816200008c565b80516200005f8162000099565b600080600060608486031215620000cb57620000cb600080fd5b6000620000d986866200007f565b9350506020620000ec868287016200007f565b9250506040620000ff86828701620000a4565b9150509250925092565b60805160a05160c0516116b56200014560003960008181606101526107a301526000818160b301526107cd0152600061010801526116b56000f3fe608060405234801561001057600080fd5b50600436106100575760003560e01c8063024e11b61461005c578063a7a19e0014610099578063a7a5d12b146100ae578063c54efee5146100e2578063e7c4569014610106575b600080fd5b6100837f000000000000000000000000000000000000000000000000000000000000000081565b6040516100909190610c2e565b60405180910390f35b6100ac6100a7366004610cac565b61012c565b005b6100d57f000000000000000000000000000000000000000000000000000000000000000081565b6040516100909190610d6a565b6100f56100f0366004610d93565b6101ba565b604051610090959493929190610ef6565b7f0000000000000000000000000000000000000000000000000000000000000000610083565b60008061013b85870187611069565b9092509050600082600181111561015457610154610e00565b0361017b576101768782806020019051810190610171919061113a565b61053e565b6101b1565b600182600181111561018f5761018f610e00565b036101b1576101b187828060200190518101906101ac9190611346565b6106b2565b50505050505050565b600060608080806001600160e01b031988166253d0cf60e91b146101f1576040516386561e8160e01b815260040160405180910390fd5b600080610200888a018a611069565b9092509050600082600181111561021957610219610e00565b0361044357600081806020019051810190610234919061113a565b905061024381600001516107a1565b604080516001808252818301909252906020808301908036833750506040805160018082528183019092529299509050602080830190803683375050604080516001808252818301909252929850905060208083019080368337505060408051600180825281830190925292975090506020808301908036833701905050935080600001516001600160a01b0316635a53e3486040518163ffffffff1660e01b8152600401602060405180830381865afa158015610305573d6000803e3d6000fd5b505050506040513d601f19601f820116820180604052508101906103299190611380565b6001600160a01b031663e269c3d66040518163ffffffff1660e01b8152600401602060405180830381865afa158015610366573d6000803e3d6000fd5b505050506040513d601f19601f8201168201806040525081019061038a9190611380565b8760008151811061039d5761039d6113a1565b60200260200101906001600160a01b031690816001600160a01b0316815250508060200151866000815181106103d5576103d56113a1565b6020026020010181815250508060000151856000815181106103f9576103f96113a1565b60200260200101906001600160a01b031690816001600160a01b031681525050806040015184600081518110610431576104316113a1565b6020026020010181815250505061052d565b600182600181111561045757610457610e00565b0361052d576000818060200190518101906104729190611346565b905061048181600001516107a1565b604080516001808252818301909252906020808301908036833750506040805160018082528183019092529299509050602080830190803683370190505095508060000151876000815181106104d9576104d96113a1565b60200260200101906001600160a01b031690816001600160a01b031681525050806020015186600081518110610511576105116113a1565b6020026020010181815250508060400151945080608001519350505b600296505050945094509450945094565b600081600001516001600160a01b0316635a53e3486040518163ffffffff1660e01b8152600401602060405180830381865afa158015610582573d6000803e3d6000fd5b505050506040513d601f19601f820116820180604052508101906105a69190611380565b9050610618816001600160a01b031663e269c3d66040518163ffffffff1660e01b8152600401602060405180830381865afa1580156105e9573d6000803e3d6000fd5b505050506040513d601f19601f8201168201806040525081019061060d9190611380565b828460200151610882565b6000816001600160a01b031663beebc5da846020015185604001516040518363ffffffff1660e01b81526004016106509291906113b7565b6020604051808303816000875af115801561066f573d6000803e3d6000fd5b505050506040513d601f19601f8201168201806040525081019061069391906113d2565b83519091506106ac906001600160a01b0316858361092f565b50505050565b80600001516001600160a01b0316635a53e3486040518163ffffffff1660e01b8152600401602060405180830381865afa1580156106f4573d6000803e3d6000fd5b505050506040513d601f19601f820116820180604052508101906107189190611380565b6001600160a01b0316633462fcc1838360200151846040015185606001516040518563ffffffff1660e01b815260040161075594939291906113f3565b6000604051808303816000875af1158015610774573d6000803e3d6000fd5b505050506040513d6000823e601f3d908101601f1916820160405261079c919081019061143e565b505050565b7f00000000000000000000000000000000000000000000000000000000000000006001600160a01b03167f00000000000000000000000000000000000000000000000000000000000000006001600160a01b0316633d7c74f8836040518263ffffffff1660e01b81526004016108179190610c2e565b602060405180830381865afa158015610834573d6000803e3d6000fd5b505050506040513d601f19601f820116820180604052508101906108589190611380565b6001600160a01b03161461087f57604051636dabebad60e11b815260040160405180910390fd5b50565b604051636eb1769f60e11b81526000906001600160a01b0385169063dd62ed3e906108b39030908790600401611478565b602060405180830381865afa1580156108d0573d6000803e3d6000fd5b505050506040513d601f19601f820116820180604052508101906108f491906113d2565b9050818110156106ac578015610919576109196001600160a01b03851684600061093a565b6106ac6001600160a01b0385168460001961093a565b61079c838383610945565b61079c83838361099b565b61079c8363a9059cbb60e01b8484604051602401610964929190611493565b60408051601f198184030181529190526020810180516001600160e01b03166001600160e01b031990931692909217909152610a58565b801580610a145750604051636eb1769f60e11b81526001600160a01b0384169063dd62ed3e906109d19030908690600401611478565b602060405180830381865afa1580156109ee573d6000803e3d6000fd5b505050506040513d601f19601f82011682018060405250810190610a1291906113d2565b155b610a395760405162461bcd60e51b8152600401610a30906114f7565b60405180910390fd5b61079c8363095ea7b360e01b8484604051602401610964929190611493565b6000610aad826040518060400160405280602081526020017f5361666545524332303a206c6f772d6c6576656c2063616c6c206661696c6564815250856001600160a01b0316610ae79092919063ffffffff16565b80519091501561079c5780806020019051810190610acb919061151a565b61079c5760405162461bcd60e51b8152600401610a3090611582565b6060610af68484600085610b00565b90505b9392505050565b606082471015610b225760405162461bcd60e51b8152600401610a30906115d5565b600080866001600160a01b03168587604051610b3e919061162b565b60006040518083038185875af1925050503d8060008114610b7b576040519150601f19603f3d011682016040523d82523d6000602084013e610b80565b606091505b5091509150610b9187838387610b9e565b925050505b949350505050565b60608315610bdd578251600003610bd6576001600160a01b0385163b610bd65760405162461bcd60e51b8152600401610a3090611637565b5081610b96565b610b968383815115610bf25781518083602001fd5b8060405162461bcd60e51b8152600401610a3091906116a4565b60006001600160a01b0382165b92915050565b610c2881610c0c565b82525050565b60208101610c198284610c1f565b610c4581610c0c565b811461087f57600080fd5b8035610c1981610c3c565b60008083601f840112610c7057610c70600080fd5b5081356001600160401b03811115610c8a57610c8a600080fd5b602083019150836001820283011115610ca557610ca5600080fd5b9250929050565b600080600080600060608688031215610cc757610cc7600080fd5b6000610cd38888610c50565b95505060208601356001600160401b03811115610cf257610cf2600080fd5b610cfe88828901610c5b565b945094505060408601356001600160401b03811115610d1f57610d1f600080fd5b610d2b88828901610c5b565b92509250509295509295909350565b60006001600160a01b038216610c19565b6000610c1982610d3a565b6000610c1982610d4b565b610c2881610d56565b60208101610c198284610d61565b6001600160e01b03198116610c45565b8035610c1981610d78565b60008060008060608587031215610dac57610dac600080fd5b6000610db88787610c50565b9450506020610dc987828801610d88565b93505060408501356001600160401b03811115610de857610de8600080fd5b610df487828801610c5b565b95989497509550505050565b634e487b7160e01b600052602160045260246000fd5b6003811061087f5761087f610e00565b80610e3081610e16565b919050565b6000610c1982610e26565b610c2881610e35565b6000610e558383610c1f565b505060200190565b6000610e67825190565b80845260209384019383018060005b83811015610e9b578151610e8a8882610e49565b975060208301925050600101610e76565b509495945050505050565b80610c28565b6000610e558383610ea6565b6000610ec2825190565b80845260209384019383018060005b83811015610e9b578151610ee58882610eac565b975060208301925050600101610ed1565b60a08101610f048288610e40565b8181036020830152610f168187610e5d565b90508181036040830152610f2a8186610eb8565b90508181036060830152610f3e8185610e5d565b90508181036080830152610f528184610eb8565b979650505050505050565b6002811061087f57600080fd5b8035610c1981610f5d565b634e487b7160e01b600052604160045260246000fd5b601f19601f83011681018181106001600160401b0382111715610fb057610fb0610f75565b6040525050565b6000610fc260405190565b9050610e308282610f8b565b60006001600160401b03821115610fe757610fe7610f75565b601f19601f83011660200192915050565b82818337506000910152565b600061101761101284610fce565b610fb7565b90508281526020810184848401111561103257611032600080fd5b61103d848285610ff8565b509392505050565b600082601f83011261105957611059600080fd5b8135610b96848260208601611004565b6000806040838503121561107f5761107f600080fd5b600061108b8585610f6a565b92505060208301356001600160401b038111156110aa576110aa600080fd5b6110b685828601611045565b9150509250929050565b8051610c1981610c3c565b80610c45565b8051610c19816110cb565b6000606082840312156110f1576110f1600080fd5b6110fb6060610fb7565b9050600061110984846110c0565b825250602061111a848483016110d1565b602083015250604061112e848285016110d1565b60408301525092915050565b60006060828403121561114f5761114f600080fd5b6000610b9684846110dc565b60006001600160401b0382111561117457611174610f75565b5060209081020190565b600061118c6110128461115b565b838152905060208082019084028301858111156111ab576111ab600080fd5b835b818110156111cf57806111c088826110c0565b845250602092830192016111ad565b5050509392505050565b600082601f8301126111ed576111ed600080fd5b8151610b9684826020860161117e565b600061120b6110128461115b565b8381529050602080820190840283018581111561122a5761122a600080fd5b835b818110156111cf578061123f88826110d1565b8452506020928301920161122c565b600082601f83011261126257611262600080fd5b8151610b968482602086016111fd565b600060a0828403121561128757611287600080fd5b61129160a0610fb7565b9050600061129f84846110c0565b82525060206112b0848483016110d1565b60208301525060408201516001600160401b038111156112d2576112d2600080fd5b6112de848285016111d9565b60408301525060608201516001600160401b0381111561130057611300600080fd5b61130c8482850161124e565b60608301525060808201516001600160401b0381111561132e5761132e600080fd5b61133a8482850161124e565b60808301525092915050565b60006020828403121561135b5761135b600080fd5b81516001600160401b0381111561137457611374600080fd5b610b9684828501611272565b60006020828403121561139557611395600080fd5b6000610b9684846110c0565b634e487b7160e01b600052603260045260246000fd5b604081016113c58285610ea6565b610af96020830184610ea6565b6000602082840312156113e7576113e7600080fd5b6000610b9684846110d1565b608081016114018287610c1f565b61140e6020830186610ea6565b81810360408301526114208185610e5d565b905081810360608301526114348184610eb8565b9695505050505050565b60006020828403121561145357611453600080fd5b81516001600160401b0381111561146c5761146c600080fd5b610b968482850161124e565b604081016114868285610c1f565b610af96020830184610c1f565b604081016113c58285610c1f565b603681526000602082017f5361666545524332303a20617070726f76652066726f6d206e6f6e2d7a65726f81527520746f206e6f6e2d7a65726f20616c6c6f77616e636560501b602082015291505b5060400190565b60208082528101610c19816114a1565b801515610c45565b8051610c1981611507565b60006020828403121561152f5761152f600080fd5b6000610b96848461150f565b602a81526000602082017f5361666545524332303a204552433230206f7065726174696f6e20646964206e8152691bdd081cdd58d8d9595960b21b602082015291506114f0565b60208082528101610c198161153b565b602681526000602082017f416464726573733a20696e73756666696369656e742062616c616e636520666f8152651c8818d85b1b60d21b602082015291506114f0565b60208082528101610c1981611592565b60005b838110156116005781810151838201526020016115e8565b50506000910152565b6000611613825190565b6116218185602086016115e5565b9290920192915050565b6000610af98284611609565b60208082528101610c1981601d81527f416464726573733a2063616c6c20746f206e6f6e2d636f6e7472616374000000602082015260400190565b600061167c825190565b8084526020840193506116938185602086016115e5565b601f01601f19169290920192915050565b60208082528101610af9818461167256","linkReferences":{}},"methodIdentifiers":{"DISPATCHER()":"a7a5d12b","FUND_DEPLOYER_ADDRESS()":"024e11b6","action(address,bytes,bytes)":"a7a19e00","getIntegrationManager()":"e7c45690","parseAssetsForAction(address,bytes4,bytes)":"c54efee5"},"id":152}