{"abi":[{"type":"constructor","inputs":[{"name":"_integrationManager","type":"address","internalType":"address"},{"name":"_batchTrade","type":"address","internalType":"address"}],"stateMutability":"nonpayable"},{"type":"function","name":"getIntegrationManager","inputs":[],"outputs":[{"name":"integrationManager_","type":"address","internalType":"address"}],"stateMutability":"view"},{"type":"function","name":"parseAssetsForAction","inputs":[{"name":"","type":"address","internalType":"address"},{"name":"_selector","type":"bytes4","internalType":"bytes4"},{"name":"_actionData","type":"bytes","internalType":"bytes"}],"outputs":[{"name":"spendAssetsHandleType_","type":"uint8","internalType":"enum IIntegrationManager.SpendAssetsHandleType"},{"name":"spendAssets_","type":"address[]","internalType":"address[]"},{"name":"spendAssetAmounts_","type":"uint256[]","internalType":"uint256[]"},{"name":"incomingAssets_","type":"address[]","internalType":"address[]"},{"name":"minIncomingAssetAmounts_","type":"uint256[]","internalType":"uint256[]"}],"stateMutability":"view"},{"type":"function","name":"takeOrder","inputs":[{"name":"_vaultProxy","type":"address","internalType":"address"},{"name":"_actionData","type":"bytes","internalType":"bytes"},{"name":"_assetData","type":"bytes","internalType":"bytes"}],"outputs":[],"stateMutability":"nonpayable"}],"bytecode":{"object":"0x60c06040523480156200001157600080fd5b50604051620021c4380380620021c4833981016040819052620000349162000086565b6001600160a01b039182166080521660a052620000c9565b60006001600160a01b0382165b92915050565b6200006a816200004c565b81146200007657600080fd5b50565b805162000059816200005f565b600080604083850312156200009e576200009e600080fd5b6000620000ac858562000079565b9250506020620000bf8582860162000079565b9150509250929050565b60805160a0516120c8620000fc6000396000818161061c015281816108230152610d1f01526000608a01526120c86000f3fe608060405234801561001057600080fd5b50600436106100415760003560e01c806303e38a2b14610046578063c54efee51461005b578063e7c4569014610088575b600080fd5b610059610054366004611427565b6100b6565b005b61006e6100693660046114d0565b6101cd565b60405161007f959493929190611642565b60405180910390f35b7f000000000000000000000000000000000000000000000000000000000000000060405161007f919061169e565b8482828080601f01602080910402602001604051908101604052809392919081815260200183838082843760009201919091525050604080516020601f88018190048102820181019092528681528a9350915086908690819084018382808284376000920182905250604080516020601f8e018190048102820181019092528c815291945084935061016392508c908c90819084018382808284376000920191909152506105db92505050565b9150915061018a8260405180604001604052808415158152602001600115158152506105fc565b5050600061019782610689565b505090506101a583826106af565b5050505060006101b482610689565b925050506101c283826106af565b505050505050505050565b600060608080806001600160e01b031988166303e38a2b60e01b1461020d5760405162461bcd60e51b8152600401610204906116f3565b60405180910390fd5b600061021761081f565b9050600061025a89898080601f0160208091040260200160405190810160405280939291908181526020018383808284376000920191909152506105db92505050565b5080516040805160008082526020820181815282840190935293945091925b838110156104975760006102b386838151811061029857610298611719565b602002602001015160200151856108a890919063ffffffff16565b90506000198103610328576102ee8683815181106102d3576102d3611719565b6020026020010151602001518561090390919063ffffffff16565b935061032186838151811061030557610305611719565b60200260200101516040015161031a90611745565b84906109f3565b9250610370565b85828151811061033a5761033a611719565b60200260200101516040015183828151811061035857610358611719565b6020026020010181815161036c9190611761565b9052505b60006103a287848151811061038757610387611719565b602002602001015160600151866108a890919063ffffffff16565b90506000198103610433576103dd8784815181106103c2576103c2611719565b6020026020010151606001518661090390919063ffffffff16565b945061042c6104256103f18a612710611783565b61ffff1689868151811061040757610407611719565b60200260200101516080015161041d91906117a1565b612710610ac2565b85906109f3565b9350610482565b61045861044289612710611783565b61ffff1688858151811061040757610407611719565b84828151811061046a5761046a611719565b6020026020010181815161047e91906117b9565b9052505b5050808061048f906117dc565b915050610279565b508151604080516000808252602082018181528284018281526060840183815260808501909552929d509b509099509097505b818110156105c55760008382815181106104e6576104e6611719565b602002602001015112156105565761052084828151811061050957610509611719565b60200260200101518c61090390919063ffffffff16565b9a5061054f83828151811061053757610537611719565b602002602001015161054890611745565b8b90610afa565b99506105b3565b61058284828151811061056b5761056b611719565b60200260200101518a61090390919063ffffffff16565b98506105b083828151811061059957610599611719565b602002602001015189610afa90919063ffffffff16565b97505b806105bd816117dc565b9150506104ca565b5060029a50505050505050945094509450945094565b60606000828060200190518101906105f39190611ad5565b91509150915091565b61060582610ba2565b604051639396f45960e01b81526001600160a01b037f00000000000000000000000000000000000000000000000000000000000000001690639396f459906106539085908590600401611c9c565b600060405180830381600087803b15801561066d57600080fd5b505af1158015610681573d6000803e3d6000fd5b505050505050565b6060806060838060200190518101906106a29190611da6565b9250925092509193909250565b606081516001600160401b038111156106ca576106ca611703565b6040519080825280602002602001820160405280156106f3578160200160208202803683370190505b50905060005b825181101561081757600083828151811061071657610716611719565b60200260200101519050806001600160a01b03166370a08231306040518263ffffffff1660e01b815260040161074c919061169e565b602060405180830381865afa158015610769573d6000803e3d6000fd5b505050506040513d601f19601f8201168201806040525081019061078d9190611e43565b83838151811061079f5761079f611719565b60200260200101818152505060008383815181106107bf576107bf611719565b6020026020010151111561080457610804858484815181106107e3576107e3611719565b6020026020010151836001600160a01b0316610d6f9092919063ffffffff16565b508061080f816117dc565b9150506106f9565b505b92915050565b60007f00000000000000000000000000000000000000000000000000000000000000006001600160a01b031663b8606eef6040518163ffffffff1660e01b8152600401602060405180830381865afa15801561087f573d6000803e3d6000fd5b505050506040513d601f19601f820116820180604052508101906108a39190611e79565b905090565b60005b82518110156108f9578281815181106108c6576108c6611719565b60200260200101516001600160a01b0316826001600160a01b0316031561081957806108f1816117dc565b9150506108ab565b5060001992915050565b6060825160016109139190611e9a565b6001600160401b0381111561092a5761092a611703565b604051908082528060200260200182016040528015610953578160200160208202803683370190505b50905060005b83518110156109b85783818151811061097457610974611719565b602002602001015182828151811061098e5761098e611719565b6001600160a01b0390921660209283029190910190910152806109b0816117dc565b915050610959565b5081818451815181106109cd576109cd611719565b60200260200101906001600160a01b031690816001600160a01b03168152505092915050565b606082516001610a039190611e9a565b6001600160401b03811115610a1a57610a1a611703565b604051908082528060200260200182016040528015610a43578160200160208202803683370190505b50905060005b8351811015610a9b57838181518110610a6457610a64611719565b6020026020010151828281518110610a7e57610a7e611719565b602090810291909101015280610a93816117dc565b915050610a49565b508181845181518110610ab057610ab0611719565b60200260200101818152505092915050565b60008215610af05781610ad6600185611ead565b610ae09190611ed6565b610aeb906001611e9a565b610af3565b60005b9392505050565b606082516001610b0a9190611e9a565b6001600160401b03811115610b2157610b21611703565b604051908082528060200260200182016040528015610b4a578160200160208202803683370190505b50905060005b8351811015610a9b57838181518110610b6b57610b6b611719565b6020026020010151828281518110610b8557610b85611719565b602090810291909101015280610b9a816117dc565b915050610b50565b80516000816001600160401b03811115610bbe57610bbe611703565b604051908082528060200260200182016040528015610be7578160200160208202803683370190505b5090506000826001600160401b03811115610c0457610c04611703565b604051908082528060200260200182016040528015610c2d578160200160208202803683370190505b50905060005b83811015610cd857848181518110610c4d57610c4d611719565b602002602001015160200151838281518110610c6b57610c6b611719565b60200260200101906001600160a01b031690816001600160a01b031681525050848181518110610c9d57610c9d611719565b602002602001015160400151828281518110610cbb57610cbb611719565b602090810291909101015280610cd0816117dc565b915050610c33565b50600182511115610cf357610ced8282610d7f565b90925090505b815160005b8181101561068157610d5d848281518110610d1557610d15611719565b60200260200101517f0000000000000000000000000000000000000000000000000000000000000000858481518110610d5057610d50611719565b6020026020010151611032565b80610d67816117dc565b915050610cf8565b610d7a8383836110e5565b505050565b60608083516000031561102b576001805b8551811015610e32576000805b82811015610e0b57878181518110610db757610db7611719565b60200260200101516001600160a01b0316888481518110610dda57610dda611719565b60200260200101516001600160a01b031603610df95760019150610e0b565b80610e03816117dc565b915050610d9d565b5080610e1f5782610e1b816117dc565b9350505b5080610e2a816117dc565b915050610d90565b50806001600160401b03811115610e4b57610e4b611703565b604051908082528060200260200182016040528015610e74578160200160208202803683370190505b509250806001600160401b03811115610e8f57610e8f611703565b604051908082528060200260200182016040528015610eb8578160200160208202803683370190505b5091506000805b8651811015611027576000805b83811015610f7d57868181518110610ee657610ee6611719565b60200260200101516001600160a01b0316898481518110610f0957610f09611719565b60200260200101516001600160a01b031603610f6b5760019150878381518110610f3557610f35611719565b6020026020010151868281518110610f4f57610f4f611719565b60200260200101818151610f639190611e9a565b905250610f7d565b80610f75816117dc565b915050610ecc565b508061101457878281518110610f9557610f95611719565b6020026020010151868481518110610faf57610faf611719565b60200260200101906001600160a01b031690816001600160a01b031681525050868281518110610fe157610fe1611719565b6020026020010151858481518110610ffb57610ffb611719565b602090810291909101015282611010816117dc565b9350505b508061101f816117dc565b915050610ebf565b5050505b9250929050565b604051636eb1769f60e11b81526000906001600160a01b0385169063dd62ed3e906110639030908790600401611eea565b602060405180830381865afa158015611080573d6000803e3d6000fd5b505050506040513d601f19601f820116820180604052508101906110a49190611e43565b9050818110156110df5780156110c9576110c96001600160a01b03851684600061113b565b6110df6001600160a01b0385168460001961113b565b50505050565b610d7a8363a9059cbb60e01b8484604051602401611104929190611f05565b60408051601f198184030181529190526020810180516001600160e01b03166001600160e01b031990931692909217909152611146565b610d7a8383836111d5565b600061119b826040518060400160405280602081526020017f5361666545524332303a206c6f772d6c6576656c2063616c6c206661696c6564815250856001600160a01b03166112899092919063ffffffff16565b805190915015610d7a57808060200190518101906111b99190611f20565b610d7a5760405162461bcd60e51b815260040161020490611f88565b80158061124e5750604051636eb1769f60e11b81526001600160a01b0384169063dd62ed3e9061120b9030908690600401611eea565b602060405180830381865afa158015611228573d6000803e3d6000fd5b505050506040513d601f19601f8201168201806040525081019061124c9190611e43565b155b61126a5760405162461bcd60e51b815260040161020490611feb565b610d7a8363095ea7b360e01b8484604051602401611104929190611f05565b606061129884846000856112a0565b949350505050565b6060824710156112c25760405162461bcd60e51b81526004016102049061203e565b600080866001600160a01b031685876040516112de9190612070565b60006040518083038185875af1925050503d806000811461131b576040519150601f19603f3d011682016040523d82523d6000602084013e611320565b606091505b50915091506113318783838761133c565b979650505050505050565b6060831561137b578251600003611374576001600160a01b0385163b6113745760405162461bcd60e51b81526004016102049061207c565b5081611298565b61129883838151156113905781518083602001fd5b8060405162461bcd60e51b815260040161020491906120b7565b60006001600160a01b038216610819565b6113c4816113aa565b81146113cf57600080fd5b50565b8035610819816113bb565b60008083601f8401126113f2576113f2600080fd5b5081356001600160401b0381111561140c5761140c600080fd5b60208301915083600182028301111561102b5761102b600080fd5b60008060008060006060868803121561144257611442600080fd5b600061144e88886113d2565b95505060208601356001600160401b0381111561146d5761146d600080fd5b611479888289016113dd565b945094505060408601356001600160401b0381111561149a5761149a600080fd5b6114a6888289016113dd565b92509250509295509295909350565b6001600160e01b031981166113c4565b8035610819816114b5565b600080600080606085870312156114e9576114e9600080fd5b60006114f587876113d2565b9450506020611506878288016114c5565b93505060408501356001600160401b0381111561152557611525600080fd5b611531878288016113dd565b95989497509550505050565b634e487b7160e01b600052602160045260246000fd5b600381106113cf576113cf61153d565b8061156d81611553565b919050565b600061081982611563565b61158681611572565b82525050565b611586816113aa565b60006115a1838361158c565b505060200190565b60006115b3825190565b80845260209384019383018060005b838110156115e75781516115d68882611595565b9750602083019250506001016115c2565b509495945050505050565b80611586565b60006115a183836115f2565b600061160e825190565b80845260209384019383018060005b838110156115e757815161163188826115f8565b97506020830192505060010161161d565b60a08101611650828861157d565b818103602083015261166281876115a9565b905081810360408301526116768186611604565b9050818103606083015261168a81856115a9565b905081810360808301526113318184611604565b60208101610819828461158c565b602781526000602082017f7061727365417373657473466f72416374696f6e3a205f73656c6563746f72208152661a5b9d985b1a5960ca1b602082015291505b5060400190565b60208082528101610819816116ac565b634e487b7160e01b600052604160045260246000fd5b634e487b7160e01b600052603260045260246000fd5b634e487b7160e01b600052601160045260246000fd5b6000600160ff1b820361175a5761175a61172f565b5060000390565b818103600083128015838313168383129190911617156108195761081961172f565b61ffff9182169190811690828203908111156108195761081961172f565b8181028082158382048514176108175761081761172f565b80820160008212801584831290811690159190911617156108195761081961172f565b600060001982036117ef576117ef61172f565b5060010190565b601f19601f83011681018181106001600160401b038211171561181b5761181b611703565b6040525050565b600061182d60405190565b905061156d82826117f6565b60006001600160401b0382111561185257611852611703565b5060209081020190565b60006001600160401b0382111561187557611875611703565b601f19601f83011660200192915050565b60005b838110156118a1578181015183820152602001611889565b50506000910152565b60006118bd6118b88461185c565b611822565b9050828152602081018484840111156118d8576118d8600080fd5b6118e3848285611886565b509392505050565b600082601f8301126118ff576118ff600080fd5b81516112988482602086016118aa565b8051610819816113bb565b806113c4565b80516108198161191a565b600060e0828403121561194057611940600080fd5b61194a60e0611822565b82519091506001600160401b0381111561196657611966600080fd5b611972848285016118eb565b82525060206119838484830161190f565b602083015250604061199784828501611920565b60408301525060606119ab8482850161190f565b60608301525060806119bf84828501611920565b60808301525060a08201516001600160401b038111156119e1576119e1600080fd5b6119ed848285016118eb565b60a08301525060c08201516001600160401b03811115611a0f57611a0f600080fd5b611a1b848285016118eb565b60c08301525092915050565b6000611a356118b884611839565b83815290506020808201908402830185811115611a5457611a54600080fd5b835b81811015611a945780516001600160401b03811115611a7757611a77600080fd5b808601611a84898261192b565b8552505060209283019201611a56565b5050509392505050565b600082601f830112611ab257611ab2600080fd5b8151611298848260208601611a27565b8015156113c4565b805161081981611ac2565b60008060408385031215611aeb57611aeb600080fd5b82516001600160401b03811115611b0457611b04600080fd5b611b1085828601611a9e565b9250506020611b2185828601611aca565b9150509250929050565b6000611b35825190565b808452602084019350611b4c818560208601611886565b601f01601f19169290920192915050565b805160e080845260009190840190611b758282611b2b565b9150506020830151611b8a602086018261158c565b506040830151611b9d60408601826115f2565b506060830151611bb0606086018261158c565b506080830151611bc360808601826115f2565b5060a083015184820360a0860152611bdb8282611b2b565b91505060c083015184820360c0860152611bf58282611b2b565b95945050505050565b6000610af38383611b5d565b6000611c14825190565b80845260208401935083602082028501611c2e8560200190565b8060005b85811015611c635784840389528151611c4b8582611bfe565b94506020830160209a909a0199925050600101611c32565b5091979650505050505050565b801515611586565b80516040830190611c898482611c70565b5060208201516110df6020850182611c70565b60608082528101611cad8185611c0a565b9050610af36020830184611c78565b6000611cca6118b884611839565b83815290506020808201908402830185811115611ce957611ce9600080fd5b835b81811015611a945780611cfe888261190f565b84525060209283019201611ceb565b600082601f830112611d2157611d21600080fd5b8151611298848260208601611cbc565b6000611d3f6118b884611839565b83815290506020808201908402830185811115611d5e57611d5e600080fd5b835b81811015611a945780611d738882611920565b84525060209283019201611d60565b600082601f830112611d9657611d96600080fd5b8151611298848260208601611d31565b600080600060608486031215611dbe57611dbe600080fd5b83516001600160401b03811115611dd757611dd7600080fd5b611de386828701611d0d565b93505060208401516001600160401b03811115611e0257611e02600080fd5b611e0e86828701611d82565b92505060408401516001600160401b03811115611e2d57611e2d600080fd5b611e3986828701611d0d565b9150509250925092565b600060208284031215611e5857611e58600080fd5b60006112988484611920565b61ffff81166113c4565b805161081981611e64565b600060208284031215611e8e57611e8e600080fd5b60006112988484611e6e565b808201808211156108195761081961172f565b818103818111156108195761081961172f565b634e487b7160e01b600052601260045260246000fd5b600082611ee557611ee5611ec0565b500490565b60408101611ef8828561158c565b610af3602083018461158c565b60408101611f13828561158c565b610af360208301846115f2565b600060208284031215611f3557611f35600080fd5b60006112988484611aca565b602a81526000602082017f5361666545524332303a204552433230206f7065726174696f6e20646964206e8152691bdd081cdd58d8d9595960b21b602082015291506116ec565b6020808252810161081981611f41565b603681526000602082017f5361666545524332303a20617070726f76652066726f6d206e6f6e2d7a65726f81527520746f206e6f6e2d7a65726f20616c6c6f77616e636560501b602082015291506116ec565b6020808252810161081981611f98565b602681526000602082017f416464726573733a20696e73756666696369656e742062616c616e636520666f8152651c8818d85b1b60d21b602082015291506116ec565b6020808252810161081981611ffb565b6000612058825190565b612066818560208601611886565b9290920192915050565b6000610af3828461204e565b6020808252810161081981601d81527f416464726573733a2063616c6c20746f206e6f6e2d636f6e7472616374000000602082015260400190565b60208082528101610af38184611b2b56","linkReferences":{}},"methodIdentifiers":{"getIntegrationManager()":"e7c45690","parseAssetsForAction(address,bytes4,bytes)":"c54efee5","takeOrder(address,bytes,bytes)":"03e38a2b"},"id":171}