{"abi":[{"type":"constructor","inputs":[{"name":"_integrationManager","type":"address","internalType":"address"},{"name":"_balancerVault","type":"address","internalType":"address"},{"name":"_balancerMinter","type":"address","internalType":"address"},{"name":"_balToken","type":"address","internalType":"address"}],"stateMutability":"nonpayable"},{"type":"function","name":"claimRewards","inputs":[{"name":"_vaultProxy","type":"address","internalType":"address"},{"name":"_actionData","type":"bytes","internalType":"bytes"},{"name":"","type":"bytes","internalType":"bytes"}],"outputs":[],"stateMutability":"nonpayable"},{"type":"function","name":"getCurveGaugeV2RewardsHandlerCrvToken","inputs":[],"outputs":[{"name":"crvToken_","type":"address","internalType":"address"}],"stateMutability":"view"},{"type":"function","name":"getCurveGaugeV2RewardsHandlerMinter","inputs":[],"outputs":[{"name":"minter_","type":"address","internalType":"address"}],"stateMutability":"view"},{"type":"function","name":"getIntegrationManager","inputs":[],"outputs":[{"name":"integrationManager_","type":"address","internalType":"address"}],"stateMutability":"view"},{"type":"function","name":"lend","inputs":[{"name":"_vaultProxy","type":"address","internalType":"address"},{"name":"_actionData","type":"bytes","internalType":"bytes"},{"name":"","type":"bytes","internalType":"bytes"}],"outputs":[],"stateMutability":"nonpayable"},{"type":"function","name":"lendAndStake","inputs":[{"name":"_vaultProxy","type":"address","internalType":"address"},{"name":"_actionData","type":"bytes","internalType":"bytes"},{"name":"","type":"bytes","internalType":"bytes"}],"outputs":[],"stateMutability":"nonpayable"},{"type":"function","name":"parseAssetsForAction","inputs":[{"name":"_vaultProxy","type":"address","internalType":"address"},{"name":"_selector","type":"bytes4","internalType":"bytes4"},{"name":"_actionData","type":"bytes","internalType":"bytes"}],"outputs":[{"name":"spendAssetsHandleType_","type":"uint8","internalType":"enum IIntegrationManager.SpendAssetsHandleType"},{"name":"spendAssets_","type":"address[]","internalType":"address[]"},{"name":"spendAssetAmounts_","type":"uint256[]","internalType":"uint256[]"},{"name":"incomingAssets_","type":"address[]","internalType":"address[]"},{"name":"minIncomingAssetAmounts_","type":"uint256[]","internalType":"uint256[]"}],"stateMutability":"view"},{"type":"function","name":"redeem","inputs":[{"name":"_vaultProxy","type":"address","internalType":"address"},{"name":"_actionData","type":"bytes","internalType":"bytes"},{"name":"","type":"bytes","internalType":"bytes"}],"outputs":[],"stateMutability":"nonpayable"},{"type":"function","name":"stake","inputs":[{"name":"_vaultProxy","type":"address","internalType":"address"},{"name":"_actionData","type":"bytes","internalType":"bytes"},{"name":"","type":"bytes","internalType":"bytes"}],"outputs":[],"stateMutability":"nonpayable"},{"type":"function","name":"takeOrder","inputs":[{"name":"_vaultProxy","type":"address","internalType":"address"},{"name":"_actionData","type":"bytes","internalType":"bytes"},{"name":"","type":"bytes","internalType":"bytes"}],"outputs":[],"stateMutability":"nonpayable"},{"type":"function","name":"unstake","inputs":[{"name":"_vaultProxy","type":"address","internalType":"address"},{"name":"_actionData","type":"bytes","internalType":"bytes"},{"name":"","type":"bytes","internalType":"bytes"}],"outputs":[],"stateMutability":"nonpayable"},{"type":"function","name":"unstakeAndRedeem","inputs":[{"name":"_vaultProxy","type":"address","internalType":"address"},{"name":"_actionData","type":"bytes","internalType":"bytes"},{"name":"","type":"bytes","internalType":"bytes"}],"outputs":[],"stateMutability":"nonpayable"}],"bytecode":{"object":"0x6101006040523480156200001257600080fd5b506040516200365238038062003652833981016040819052620000359162000082565b6001600160601b0319606094851b811660805292841b831660a052831b821660c05290911b1660e052620000e2565b80516001600160a01b03811681146200007c57600080fd5b92915050565b6000806000806080858703121562000098578384fd5b620000a4868662000064565b9350620000b5866020870162000064565b9250620000c6866040870162000064565b9150620000d7866060870162000064565b905092959194509250565b60805160601c60a05160601c60c05160601c60e05160601c6134e36200016f60003980610c215280611a5652806124d05250806107ff5250806102f25280610e4b52806110005280611219528061192152806119f75250806101b0528061064b528061070b528061082c52806108cf5280610a355280610acc5280610bfd5280610c4e52506134e36000f3fe608060405234801561001057600080fd5b50600436106100b45760003560e01c8063b9dfbacc11610071578063b9dfbacc14610138578063c29fa9dd1461014b578063c54efee51461015e578063e7c4569014610182578063f003eb851461018a578063fa7dd04d14610192576100b4565b806303e38a2b146100b9578063099f7515146100ce57806329fa046e146100e1578063332d709f146100f457806368e30677146101125780638334eb9914610125575b600080fd5b6100cc6100c7366004612bb5565b6101a5565b005b6100cc6100dc366004612bb5565b610640565b6100cc6100ef366004612bb5565b610700565b6100fc6107fd565b6040516101099190612f7b565b60405180910390f35b6100cc610120366004612bb5565b610821565b6100cc610133366004612bb5565b6108c4565b6100cc610146366004612bb5565b610a2a565b6100cc610159366004612bb5565b610ac1565b61017161016c366004612b47565b610b7d565b604051610109959493929190612ffe565b6100fc610bfb565b6100fc610c1f565b6100cc6101a0366004612bb5565b610c43565b336001600160a01b037f000000000000000000000000000000000000000000000000000000000000000016146101f65760405162461bcd60e51b81526004016101ed9061323b565b60405180910390fd5b600060608060608061023d89898080601f016020809104026020016040519081016040528093929190818152602001838380828437600092019190915250610cdc92505050565b945094509450945094506000808451905060005b8181101561037857600085828151811061026757fe5b6020026020010151131561031d57600085828151811061028357fe5b6020026020010151905060006001600160a01b03168583815181106102a457fe5b60200260200101516001600160a01b0316146102d9576102d930308785815181106102cb57fe5b602002602001015184610d0a565b6103178783815181106102e857fe5b60200260200101517f000000000000000000000000000000000000000000000000000000000000000083610d48565b50610370565b600085828151811061032b57fe5b6020026020010151128015610366575060006001600160a01b031684828151811061035257fe5b60200260200101516001600160a01b031614155b1561037057600192505b600101610251565b506060610395308461038a578e61038c565b305b8a8a8a8a610e04565b905060005b828110156106305760008682815181106103b057fe5b602002602001015113156104e05760006001600160a01b03168582815181106103d557fe5b60200260200101516001600160a01b0316141580156103ff575060018960018111156103fd57fe5b145b156104bd57600087828151811061041257fe5b60200260200101516001600160a01b03166370a08231306040518263ffffffff1660e01b81526004016104459190612f7b565b60206040518083038186803b15801561045d57600080fd5b505afa158015610471573d6000803e3d6000fd5b505050506040513d601f19601f820116820180604052508101906104959190612dd6565b905080156104bb576104bb8f8784815181106104ad57fe5b602002602001015183610eec565b505b6104da8e8883815181106104cd57fe5b6020026020010151610f18565b50610628565b60008682815181106104ee57fe5b602002602001015112156105f55760006001600160a01b031685828151811061051357fe5b60200260200101516001600160a01b0316146105da576105d58e86838151811061053957fe5b602002602001015189848151811061054d57fe5b60200260200101516001600160a01b03166370a08231306040518263ffffffff1660e01b81526004016105809190612f7b565b60206040518083038186803b15801561059857600080fd5b505afa1580156105ac573d6000803e3d6000fd5b505050506040513d601f19601f820116820180604052508101906105d09190612dd6565b610eec565b6105f0565b83156105f0576104da8e8883815181106104cd57fe5b610628565b81818151811061060157fe5b60200260200101516000146106285760405162461bcd60e51b81526004016101ed9061328d565b60010161039a565b5050505050505050505050505050565b336001600160a01b037f000000000000000000000000000000000000000000000000000000000000000016146106885760405162461bcd60e51b81526004016101ed9061323b565b6000606080610695612712565b6106d488888080601f016020809104026020016040519081016040528093929190818152602001838380828437600092019190915250610fb992505050565b9450945094505093506106ea8985858585610fdb565b6106f4898461104d565b50505050505050505050565b336001600160a01b037f000000000000000000000000000000000000000000000000000000000000000016146107485760405162461bcd60e51b81526004016101ed9061323b565b600080606080610756612712565b61079589898080601f0160208091040260200160405190810160405280939291908181526020018383808284376000920191909152506111a892505050565b95509550955050945094506107ad3085858585610fdb565b6107e68a866107bb876111e0565b6001600160a01b03166370a08231306040518263ffffffff1660e01b81526004016105809190612f7b565b6107f08a8461104d565b5050505050505050505050565b7f000000000000000000000000000000000000000000000000000000000000000090565b336001600160a01b037f000000000000000000000000000000000000000000000000000000000000000016146108695760405162461bcd60e51b81526004016101ed9061323b565b6000806108ab86868080601f0160208091040260200160405190810160405280939291908181526020018383808284376000920191909152506111eb92505050565b915091506108bb87888484610d0a565b50505050505050565b336001600160a01b037f0000000000000000000000000000000000000000000000000000000000000000161461090c5760405162461bcd60e51b81526004016101ed9061323b565b6000806000606061091b612712565b61095a89898080601f0160208091040260200160405190810160405280939291908181526020018383808284376000920191909152506111a892505050565b95505094509450945094506109718a308786610d0a565b61097e8a8585858561120b565b6000610989856111e0565b90506000816001600160a01b03166370a08231306040518263ffffffff1660e01b81526004016109b99190612f7b565b60206040518083038186803b1580156109d157600080fd5b505afa1580156109e5573d6000803e3d6000fd5b505050506040513d601f19601f82011682018060405250810190610a099190612dd6565b90508015610a1c57610a1c8c8883610eec565b505050505050505050505050565b336001600160a01b037f00000000000000000000000000000000000000000000000000000000000000001614610a725760405162461bcd60e51b81526004016101ed9061323b565b610aba85610ab586868080601f0160208091040260200160405190810160405280939291908181526020018383808284376000920191909152506114ab92505050565b6114c1565b5050505050565b336001600160a01b037f00000000000000000000000000000000000000000000000000000000000000001614610b095760405162461bcd60e51b81526004016101ed9061323b565b6000806060610b16612712565b610b5588888080601f016020809104026020016040519081016040528093929190818152602001838380828437600092019190915250610fb992505050565b945050935093509350610b6b898585858561120b565b6106f489610b78866111e0565b610f18565b600060608080806001600160e01b0319881663099f751560e01b1415610bb657610ba787876114cf565b94509450945094509450610bf0565b6001600160e01b0319881663c29fa9dd60e01b1415610bd957610ba787876115dc565b610be5898989896116b9565b945094509450945094505b945094509450945094565b7f000000000000000000000000000000000000000000000000000000000000000090565b7f000000000000000000000000000000000000000000000000000000000000000090565b336001600160a01b037f00000000000000000000000000000000000000000000000000000000000000001614610c8b5760405162461bcd60e51b81526004016101ed9061323b565b600080610ccd86868080601f0160208091040260200160405190810160405280939291908181526020018383808284376000920191909152506111eb92505050565b915091506108bb878383610eec565b600060608060608085806020019051810190610cf89190612d25565b939a9299509097509550909350915050565b610d1482826117a8565b6001600160a01b0383163014610d4257610d428382610d328561180a565b6001600160a01b0316919061187d565b50505050565b604051636eb1769f60e11b81526000906001600160a01b0385169063dd62ed3e90610d799030908790600401612f8f565b60206040518083038186803b158015610d9157600080fd5b505afa158015610da5573d6000803e3d6000fd5b505050506040513d601f19601f82011682018060405250810190610dc99190612dd6565b905081811015610d42578015610dee57610dee6001600160a01b038516846000611890565b610d426001600160a01b03851684600019611890565b6060610e0e61273c565b50604080516080810182526001600160a01b03808a168252600060208301819052898216838501526060830152915163945bcec960e01b815290917f0000000000000000000000000000000000000000000000000000000000000000169063945bcec990610e8a9089908990899087908a90429060040161305b565b600060405180830381600087803b158015610ea457600080fd5b505af1158015610eb8573d6000803e3d6000fd5b505050506040513d6000823e601f3d908101601f19168201604052610ee09190810190612c34565b98975050505050505050565b610eff82610ef98461180a565b836118a3565b610f136001600160a01b038316848361187d565b505050565b6040516370a0823160e01b81526000906001600160a01b038316906370a0823190610f47903090600401612f7b565b60206040518083038186803b158015610f5f57600080fd5b505afa158015610f73573d6000803e3d6000fd5b505050506040513d601f19601f82011682018060405250810190610f979190612dd6565b90508015610fb357610fb36001600160a01b038316848361187d565b92915050565b600080606080610fc7612712565b85806020019051810190610cf89190612c8e565b60005b835181101561104057611038848281518110610ff657fe5b60200260200101517f000000000000000000000000000000000000000000000000000000000000000085848151811061102b57fe5b6020026020010151610d48565b600101610fde565b50610aba8430878461190a565b606081516001600160401b038111801561106657600080fd5b50604051908082528060200260200182016040528015611090578160200160208202803683370190505b50905060005b82518110156111a15760008382815181106110ad57fe5b60200260200101519050806001600160a01b03166370a08231306040518263ffffffff1660e01b81526004016110e39190612f7b565b60206040518083038186803b1580156110fb57600080fd5b505afa15801561110f573d6000803e3d6000fd5b505050506040513d601f19601f820116820180604052508101906111339190612dd6565b83838151811061113f57fe5b602002602001018181525050600083838151811061115957fe5b60200260200101511115611198576111988584848151811061117757fe5b6020026020010151836001600160a01b031661187d9092919063ffffffff16565b50600101611096565b5092915050565b60008060006060806111b8612712565b868060200190518101906111cc9190612a70565b949c939b5091995097509550909350915050565b606081901c5b919050565b600080828060200190518101906112029190612b1a565b91509150915091565b61123e611217856111e0565b7f000000000000000000000000000000000000000000000000000000000000000085610d48565b81518151510360608115611384578251516001600160401b038111801561126457600080fd5b5060405190808252806020026020018201604052801561128e578160200160208202803683370190505b5090508160005b8115611381576112c5856000015182815181106112ae57fe5b60200260200101518761198a90919063ffffffff16565b6113795784518051829081106112d757fe5b60200260200101516001600160a01b03166370a082318a6040518263ffffffff1660e01b815260040161130a9190612f7b565b60206040518083038186803b15801561132257600080fd5b505afa158015611336573d6000803e3d6000fd5b505050506040513d601f19601f8201168201806040525081019061135a9190612dd6565b83828151811061136657fe5b6020908102919091010152600019909101905b600101611295565b50505b611390863089866119e0565b81156108bb5760005b82156114a1576113c9846000015182815181106113b257fe5b60200260200101518661198a90919063ffffffff16565b611499578181815181106113d957fe5b6020026020010151846000015182815181106113f157fe5b60200260200101516001600160a01b03166370a082318a6040518263ffffffff1660e01b81526004016114249190612f7b565b60206040518083038186803b15801561143c57600080fd5b505afa158015611450573d6000803e3d6000fd5b505050506040513d601f19601f820116820180604052508101906114749190612dd6565b146114915760405162461bcd60e51b81526004016101ed9061311e565b600019909201915b600101611399565b5050505050505050565b600081806020019051810190610fb39190612a54565b6114cb8183611a32565b5050565b6040805160018082528183019092526000916060918291829182916020808301908036833750506040805160018082528183019092529294509050602080830190803683370190505090506000611524612712565b61156389898080601f016020809104026020016040519081016040528093929190818152602001838380828437600092019190915250610fb992505050565b8760008151811061157057fe5b602090810291909101019390935260608301519199509750919350915061159690611aca565b61159f826111e0565b846000815181106115ac57fe5b60200260200101906001600160a01b031690816001600160a01b0316815250506002965050509295509295909350565b6040805160018082528183019092526000916060918291829182916020808301908036833750506040805160018082528183019092529296509050602080830190803683370190505092506000611631612712565b61167089898080601f016020809104026020016040519081016040528093929190818152602001838380828437600092019190915250610fb992505050565b8960008151811061167d57fe5b60209081029190910101939093526060830151919750955091935091506116a390611aca565b6116ac826111e0565b866000815181106115ac57fe5b600060608080806001600160e01b03198816632e77eeb360e21b14156116e157610ba7611aeb565b6001600160e01b031988166314fd023760e11b141561170457610ba78787611b4b565b6001600160e01b03198816638334eb9960e01b141561172757610ba78787611c5e565b6001600160e01b031988166303e38a2b60e01b141561174a57610ba78787611d40565b6001600160e01b0319881663fa7dd04d60e01b141561176d57610ba7878761210e565b6001600160e01b031988166368e3067760e01b141561179057610ba78787612285565b60405162461bcd60e51b81526004016101ed906133de565b604051632e1a7d4d60e01b81526001600160a01b03831690632e1a7d4d906117d4908490600401613425565b600060405180830381600087803b1580156117ee57600080fd5b505af1158015611802573d6000803e3d6000fd5b505050505050565b6000816001600160a01b03166382c630666040518163ffffffff1660e01b815260040160206040518083038186803b15801561184557600080fd5b505afa158015611859573d6000803e3d6000fd5b505050506040513d601f19601f82011682018060405250810190610fb39190612a54565b610f13611889846123b2565b83836123b5565b610f1361189c846123b2565b838361240b565b6118ae828483610d48565b604051636e553f6560e01b81526001600160a01b03841690636e553f65906118dc908490309060040161342e565b600060405180830381600087803b1580156118f657600080fd5b505af11580156108bb573d6000803e3d6000fd5b60405163172b958560e31b81526001600160a01b037f0000000000000000000000000000000000000000000000000000000000000000169063b95cac289061195c908790879087908790600401612fc2565b600060405180830381600087803b15801561197657600080fd5b505af11580156114a1573d6000803e3d6000fd5b6000805b83518110156119d6578381815181106119a357fe5b60200260200101516001600160a01b0316836001600160a01b031614156119ce576001915050610fb3565b60010161198e565b5060009392505050565b604051638bdb391360e01b81526001600160a01b037f00000000000000000000000000000000000000000000000000000000000000001690638bdb39139061195c908790879087908790600401612fc2565b611a3a6124ce565b15611ac0576040516327f18ae360e01b81526001600160a01b037f000000000000000000000000000000000000000000000000000000000000000016906327f18ae390611a8d9085908590600401612f8f565b600060405180830381600087803b158015611aa757600080fd5b505af1158015611abb573d6000803e3d6000fd5b505050505b6114cb82826124fd565b8015611ae85760405162461bcd60e51b81526004016101ed906132c2565b50565b600060608080808480604051908082528060200260200182016040528015611b1d578160200160208202803683370190505b5060408051600080825260208201818152828401918252606083019093529399929850965094509092509050565b604080516001808252818301909252600091606091829182918291602080830190803683375050604080516001808252818301909252929450905060208083019080368337019050509050600080611ba1612712565b611be08a8a8080601f0160208091040260200160405190810160405280939291908181526020018383808284376000920191909152506111a892505050565b89600081518110611bed57fe5b6020908102919091010193909352909a5098509094509092509050611c128284612529565b611c1f8160600151611aca565b8185600081518110611c2d57fe5b60200260200101906001600160a01b031690816001600160a01b031681525050600297505050509295509295909350565b604080516001808252818301909252600091606091829182918291602080830190803683375050604080516001808252818301909252929650905060208083019080368337019050509250600080611cb4612712565b611cf38a8a8080601f0160208091040260200160405190810160405280939291908181526020018383808284376000920191909152506111a892505050565b8b600081518110611d0057fe5b602090810291909101019390935290985096509094509092509050611d258284612529565b611d328160600151611aca565b8187600081518110611c2d57fe5b60006060806060806060806060611d8c8a8a8080601f016020809104026020016040519081016040528093929190818152602001838380828437600092019190915250610cdc92505050565b945094509450505060008060005b8551811015611df5576000858281518110611db157fe5b60200260200101511315611dca57600190920191611ded565b6000858281518110611dd857fe5b60200260200101511215611ded576001909101905b600101611d9a565b50816001600160401b0381118015611e0c57600080fd5b50604051908082528060200260200182016040528015611e36578160200160208202803683370190505b509850816001600160401b0381118015611e4f57600080fd5b50604051908082528060200260200182016040528015611e79578160200160208202803683370190505b509750806001600160401b0381118015611e9257600080fd5b50604051908082528060200260200182016040528015611ebc578160200160208202803683370190505b509650806001600160401b0381118015611ed557600080fd5b50604051908082528060200260200182016040528015611eff578160200160208202803683370190505b50955060005b85518110156120fa576000858281518110611f1c57fe5b60200260200101519050600081131561200c576000878381518110611f3d57fe5b602002602001015190506000868481518110611f5557fe5b6020026020010151905060006001600160a01b0316816001600160a01b031614611fb657611f828161180a565b6001600160a01b0316826001600160a01b031614611fb25760405162461bcd60e51b81526004016101ed90613169565b8091505b858060019003965050818d8781518110611fcc57fe5b60200260200101906001600160a01b031690816001600160a01b031681525050828c8781518110611ff957fe5b60200260200101818152505050506120f1565b60008112156120f157600087838151811061202357fe5b60200260200101519050600086848151811061203b57fe5b6020026020010151905060006001600160a01b0316816001600160a01b03161461209c576120688161180a565b6001600160a01b0316826001600160a01b0316146120985760405162461bcd60e51b81526004016101ed90613169565b8091505b848060019003955050818b86815181106120b257fe5b60200260200101906001600160a01b031690816001600160a01b031681525050826000038a86815181106120e257fe5b60200260200101818152505050505b50600101611f05565b506002995050505050509295509295909350565b600060608060608060008061215889898080601f0160208091040260200160405190810160405280939291908181526020018383808284376000920191909152506111eb92505050565b604080516001808252818301909252929450909250602080830190803683375050604080516001808252818301909252929850905060208083019080368337505060408051600180825281830190925292975090506020808301908036833750506040805160018082528183019092529296509050602080830190803683370190505092506121e68261180a565b866000815181106121f357fe5b60200260200101906001600160a01b031690816001600160a01b031681525050808560008151811061222157fe5b602002602001018181525050818460008151811061223b57fe5b60200260200101906001600160a01b031690816001600160a01b031681525050808360008151811061226957fe5b6020026020010181815250506002965050509295509295909350565b60006060806060806000806122cf89898080601f0160208091040260200160405190810160405280939291908181526020018383808284376000920191909152506111eb92505050565b60408051600180825281830190925292945090925060208083019080368337505060408051600180825281830190925292985090506020808301908036833750506040805160018082528183019092529297509050602080830190803683375050604080516001808252818301909252929650905060208083019080368337019050509250818660008151811061236257fe5b60200260200101906001600160a01b031690816001600160a01b031681525050808560008151811061239057fe5b6020026020010181815250506123a58261180a565b8460008151811061223b57fe5b90565b610f138363a9059cbb60e01b84846040516024016123d4929190612fa9565b60408051601f198184030181529190526020810180516001600160e01b03166001600160e01b03199093169290921790915261256a565b8015806124935750604051636eb1769f60e11b81526001600160a01b0384169063dd62ed3e906124419030908690600401612f8f565b60206040518083038186803b15801561245957600080fd5b505afa15801561246d573d6000803e3d6000fd5b505050506040513d601f19601f820116820180604052508101906124919190612dd6565b155b6124af5760405162461bcd60e51b81526004016101ed90613388565b610f138363095ea7b360e01b84846040516024016123d4929190612fa9565b7f00000000000000000000000000000000000000000000000000000000000000006001600160a01b0316151590565b604051634274debf60e11b81526001600160a01b038316906384e9bd7e906117d4908490600401612f7b565b612532816111e0565b6001600160a01b03166125448361180a565b6001600160a01b0316146114cb5760405162461bcd60e51b81526004016101ed906131b0565b60606125bf826040518060400160405280602081526020017f5361666545524332303a206c6f772d6c6576656c2063616c6c206661696c6564815250856001600160a01b03166125f99092919063ffffffff16565b805190915015610f1357808060200190518101906125dd9190612c6e565b610f135760405162461bcd60e51b81526004016101ed9061333e565b60606126088484600085612612565b90505b9392505050565b6060824710156126345760405162461bcd60e51b81526004016101ed906131f5565b61263d856126d3565b6126595760405162461bcd60e51b81526004016101ed90613307565b60006060866001600160a01b031685876040516126769190612f5f565b60006040518083038185875af1925050503d80600081146126b3576040519150601f19603f3d011682016040523d82523d6000602084013e6126b8565b606091505b50915091506126c88282866126d9565b979650505050505050565b3b151590565b606083156126e857508161260b565b8251156126f85782518084602001fd5b8160405162461bcd60e51b81526004016101ed919061310b565b60405180608001604052806060815260200160608152602001606081526020016000151581525090565b60408051608081018252600080825260208201819052918101829052606081019190915290565b600082601f830112612773578081fd5b81516127866127818261346b565b613445565b8181529150602080830190848101818402860182018710156127a757600080fd5b60005b848110156127cf5781516127bd816134c1565b845292820192908201906001016127aa565b505050505092915050565b600082601f8301126127ea578081fd5b81516127f86127818261346b565b81815291506020808301908481018184028601820187101561281957600080fd5b60005b848110156127cf5781518452928201929082019060010161281c565b600082601f830112612848578081fd5b81516128566127818261346b565b818152915060208083019084810160005b848110156127cf578151870160a080601f19838c0301121561288857600080fd5b61289181613445565b8583015181526040808401518783015260608085015182840152608091508185015181840152508284015192506001600160401b038311156128d257600080fd5b6128e08c888587010161294e565b90820152865250509282019290820190600101612867565b80518015158114610fb357600080fd5b60008083601f840112612919578182fd5b5081356001600160401b0381111561292f578182fd5b60208301915083602082850101111561294757600080fd5b9250929050565b600082601f83011261295e578081fd5b81516001600160401b03811115612973578182fd5b612986601f8201601f1916602001613445565b915080825283602082850101111561299d57600080fd5b6111a1816020840160208601613495565b6000608082840312156129bf578081fd5b6129c96080613445565b905081516001600160401b03808211156129e257600080fd5b6129ee85838601612763565b83526020840151915080821115612a0457600080fd5b612a10858386016127da565b60208401526040840151915080821115612a2957600080fd5b50612a368482850161294e565b604083015250612a4983606084016128f8565b606082015292915050565b600060208284031215612a65578081fd5b815161260b816134c1565b60008060008060008060c08789031215612a88578182fd5b8651612a93816134c1565b80965050602087015194506040870151935060608701516001600160401b0380821115612abe578384fd5b612aca8a838b01612763565b94506080890151915080821115612adf578384fd5b612aeb8a838b016127da565b935060a0890151915080821115612b00578283fd5b50612b0d89828a016129ae565b9150509295509295509295565b60008060408385031215612b2c578182fd5b8251612b37816134c1565b6020939093015192949293505050565b60008060008060608587031215612b5c578081fd5b8435612b67816134c1565b935060208501356001600160e01b031981168114612b83578182fd5b925060408501356001600160401b03811115612b9d578182fd5b612ba987828801612908565b95989497509550505050565b600080600080600060608688031215612bcc578283fd5b8535612bd7816134c1565b945060208601356001600160401b0380821115612bf2578485fd5b612bfe89838a01612908565b90965094506040880135915080821115612c16578283fd5b50612c2388828901612908565b969995985093965092949392505050565b600060208284031215612c45578081fd5b81516001600160401b03811115612c5a578182fd5b612c66848285016127da565b949350505050565b600060208284031215612c7f578081fd5b8151801515811461260b578182fd5b600080600080600060a08688031215612ca5578283fd5b855194506020860151935060408601516001600160401b0380821115612cc9578485fd5b612cd589838a01612763565b94506060880151915080821115612cea578283fd5b612cf689838a016127da565b93506080880151915080821115612d0b578283fd5b50612d18888289016129ae565b9150509295509295909350565b600080600080600060a08688031215612d3c578283fd5b855160028110612d4a578384fd5b60208701519095506001600160401b0380821115612d66578485fd5b612d7289838a01612838565b95506040880151915080821115612d87578485fd5b612d9389838a01612763565b94506060880151915080821115612da8578283fd5b612db489838a016127da565b93506080880151915080821115612dc9578283fd5b50612d1888828901612763565b600060208284031215612de7578081fd5b5051919050565b600081518352602082015160208401526040820151604084015260608201516060840152608082015160a06080850152612c6660a0850182612e9d565b6000815180845260208085019450808401835b83811015612e635781516001600160a01b031687529582019590820190600101612e3e565b509495945050505050565b6000815180845260208085019450808401835b83811015612e6357815187529582019590820190600101612e81565b60008151808452612eb5816020860160208601613495565b601f01601f19169290920160200192915050565b80516001600160a01b039081168352602080830151151590840152604080830151909116908301526060908101511515910152565b6000815160808452612f136080850182612e2b565b905060208301518482036020860152612f2c8282612e6e565b91505060408301518482036040860152612f468282612e9d565b9150506060830151151560608501528091505092915050565b60008251612f71818460208701613495565b9190910192915050565b6001600160a01b0391909116815260200190565b6001600160a01b0392831681529116602082015260400190565b6001600160a01b03929092168252602082015260400190565b8481526001600160a01b03848116602083015283166040820152608060608201819052600090612ff490830184612efe565b9695505050505050565b60006003871061300a57fe5b86825260a0602083015261302160a0830187612e2b565b82810360408401526130338187612e6e565b905082810360608401526130478186612e2b565b90508281036080840152610ee08185612e6e565b600061012080830161306c8a61348a565b84526020828186015281925089516130848184613425565b93508392508181028401828c01865b838110156130bd5785830387526130ab838351612dee565b96850196925090840190600101613093565b505086810360408801526130d1818c612e2b565b9450505050506130e46060840187612ec9565b82810360e08401526130f68186612e6e565b91505082610100830152979650505050505050565b60006020825261260b6020830184612e9d565b6020808252602b908201527f5f5f62616c616e63657252656465656d3a20556e65787065637465642061737360408201526a195d081c9958d95a5d995960aa1b606082015260800190565b60208082526027908201527f5f5f7061727365417373657473466f7254616b654f726465723a20425054206d6040820152660d2e6dac2e8c6d60cb1b606082015260800190565b60208082526025908201527f5f5f76616c6964617465427074466f725374616b696e67546f6b656e3a20496e6040820152641d985b1a5960da1b606082015260800190565b60208082526026908201527f416464726573733a20696e73756666696369656e742062616c616e636520666f6040820152651c8818d85b1b60d21b606082015260800190565b60208082526032908201527f4f6e6c792074686520496e746567726174696f6e4d616e616765722063616e2060408201527131b0b636103a3434b990333ab731ba34b7b760711b606082015260800190565b6020808252818101527f74616b654f726465723a206c6566746f76657220696e7465726d656469617279604082015260600190565b60208082526025908201527f5f5f76616c69646174654e6f496e7465726e616c42616c616e6365733a20496e6040820152641d985b1a5960da1b606082015260800190565b6020808252601d908201527f416464726573733a2063616c6c20746f206e6f6e2d636f6e7472616374000000604082015260600190565b6020808252602a908201527f5361666545524332303a204552433230206f7065726174696f6e20646964206e6040820152691bdd081cdd58d8d9595960b21b606082015260800190565b60208082526036908201527f5361666545524332303a20617070726f76652066726f6d206e6f6e2d7a65726f60408201527520746f206e6f6e2d7a65726f20616c6c6f77616e636560501b606082015260800190565b60208082526027908201527f7061727365417373657473466f72416374696f6e3a205f73656c6563746f72206040820152661a5b9d985b1a5960ca1b606082015260800190565b90815260200190565b9182526001600160a01b0316602082015260400190565b6040518181016001600160401b038111828210171561346357600080fd5b604052919050565b60006001600160401b03821115613480578081fd5b5060209081020190565b80600281106111e657fe5b60005b838110156134b0578181015183820152602001613498565b83811115610d425750506000910152565b6001600160a01b0381168114611ae857600080fdfea164736f6c634300060c000a","linkReferences":{}},"methodIdentifiers":{"claimRewards(address,bytes,bytes)":"b9dfbacc","getCurveGaugeV2RewardsHandlerCrvToken()":"332d709f","getCurveGaugeV2RewardsHandlerMinter()":"f003eb85","getIntegrationManager()":"e7c45690","lend(address,bytes,bytes)":"099f7515","lendAndStake(address,bytes,bytes)":"29fa046e","parseAssetsForAction(address,bytes4,bytes)":"c54efee5","redeem(address,bytes,bytes)":"c29fa9dd","stake(address,bytes,bytes)":"fa7dd04d","takeOrder(address,bytes,bytes)":"03e38a2b","unstake(address,bytes,bytes)":"68e30677","unstakeAndRedeem(address,bytes,bytes)":"8334eb99"},"id":173}