{"abi":[{"type":"constructor","inputs":[{"name":"_vaultProxy","type":"address","internalType":"address"},{"name":"_typeId","type":"uint256","internalType":"uint256"},{"name":"_constructLib","type":"address","internalType":"address"},{"name":"_constructData","type":"bytes","internalType":"bytes"}],"stateMutability":"nonpayable"},{"type":"fallback","stateMutability":"payable"},{"type":"receive","stateMutability":"payable"},{"type":"function","name":"getExternalPositionType","inputs":[],"outputs":[{"name":"externalPositionType_","type":"uint256","internalType":"uint256"}],"stateMutability":"view"},{"type":"function","name":"getVaultProxy","inputs":[],"outputs":[{"name":"vaultProxy_","type":"address","internalType":"address"}],"stateMutability":"view"},{"type":"function","name":"receiveCallFromVault","inputs":[{"name":"_data","type":"bytes","internalType":"bytes"}],"outputs":[],"stateMutability":"nonpayable"}],"bytecode":{"object":"0x60c060405234801561001057600080fd5b5060405161089a38038061089a8339818101604052608081101561003357600080fd5b810190808051906020019092919080519060200190929190805190602001909291908051604051939291908464010000000082111561007157600080fd5b8382019150602082018581111561008757600080fd5b82518660018202830111640100000000821117156100a457600080fd5b8083526020830192505050908051906020019080838360005b838110156100d85780820151818401526020810190506100bd565b50505050905090810190601f1680156101055780820380516001836020036101000a031916815260200191505b506040525050508373ffffffffffffffffffffffffffffffffffffffff1660a08173ffffffffffffffffffffffffffffffffffffffff1660601b815250508260808181525050600060608373ffffffffffffffffffffffffffffffffffffffff16836040518082805190602001908083835b6020831061019a5780518252602082019150602081019050602083039250610177565b6001836020036101000a038019825116818451168082178552505050505050905001915050600060405180830381855af49150503d80600081146101fa576040519150601f19603f3d011682016040523d82523d6000602084013e6101ff565b606091505b50915091508181906102ac576040517f08c379a00000000000000000000000000000000000000000000000000000000081526004018080602001828103825283818151815260200191508051906020019080838360005b83811015610271578082015181840152602081019050610256565b50505050905090810190601f16801561029e5780820380516001836020036101000a031916815260200191505b509250505060405180910390fd5b5050505050505060805160a05160601c6105c16102d9600039806101fe52508061022652506105c16000f3fe6080604052600436106100385760003560e01c806312bc0a4414610108578063c980918714610133578063e5c23a97146101745761003f565b3661003f57005b60006100496101fa565b73ffffffffffffffffffffffffffffffffffffffff166375d8bb0e61006c610222565b6040518263ffffffff1660e01b81526004018082815260200191505060206040518083038186803b1580156100a057600080fd5b505afa1580156100b4573d6000803e3d6000fd5b505050506040513d60208110156100ca57600080fd5b810190808051906020019092919050505090503660008037600080366000846127105a03f43d806000803e816000811461010357816000f35b816000fd5b34801561011457600080fd5b5061011d610222565b6040518082815260200191505060405180910390f35b34801561013f57600080fd5b506101486101fa565b604051808273ffffffffffffffffffffffffffffffffffffffff16815260200191505060405180910390f35b34801561018057600080fd5b506101f86004803603602081101561019757600080fd5b81019080803590602001906401000000008111156101b457600080fd5b8201836020820111156101c657600080fd5b803590602001918460018302840111640100000000831117156101e857600080fd5b909192939192939050505061024a565b005b60007f0000000000000000000000000000000000000000000000000000000000000000905090565b60007f0000000000000000000000000000000000000000000000000000000000000000905090565b6102526101fa565b73ffffffffffffffffffffffffffffffffffffffff163373ffffffffffffffffffffffffffffffffffffffff16146102d5576040517f08c379a000000000000000000000000000000000000000000000000000000000815260040180806020018281038252603781526020018061057e6037913960400191505060405180910390fd5b60006102df6101fa565b73ffffffffffffffffffffffffffffffffffffffff166375d8bb0e610302610222565b6040518263ffffffff1660e01b81526004018082815260200191505060206040518083038186803b15801561033657600080fd5b505afa15801561034a573d6000803e3d6000fd5b505050506040513d602081101561036057600080fd5b81019080805190602001909291905050509050600060608273ffffffffffffffffffffffffffffffffffffffff1663e5c23a9760e01b868660405160240180806020018281038252848482818152602001925080828437600081840152601f19601f8201169050808301925050509350505050604051602081830303815290604052907bffffffffffffffffffffffffffffffffffffffffffffffffffffffff19166020820180517bffffffffffffffffffffffffffffffffffffffffffffffffffffffff83818316178352505050506040518082805190602001908083835b602083106104635780518252602082019150602081019050602083039250610440565b6001836020036101000a038019825116818451168082178552505050505050905001915050600060405180830381855af49150503d80600081146104c3576040519150601f19603f3d011682016040523d82523d6000602084013e6104c8565b606091505b5091509150818190610575576040517f08c379a00000000000000000000000000000000000000000000000000000000081526004018080602001828103825283818151815260200191508051906020019080838360005b8381101561053a57808201518184015260208101905061051f565b50505050905090810190601f1680156105675780820380516001836020036101000a031916815260200191505b509250505060405180910390fd5b50505050505056fe7265636569766543616c6c46726f6d5661756c743a204f6e6c7920746865207661756c742063616e206d616b6520746869732063616c6ca164736f6c634300060c000a","linkReferences":{}},"methodIdentifiers":{"getExternalPositionType()":"12bc0a44","getVaultProxy()":"c9809187","receiveCallFromVault(bytes)":"e5c23a97"},"id":84}