{"abi":[{"type":"constructor","inputs":[{"name":"_dispatcher","type":"address","internalType":"address"},{"name":"_fundDeployers","type":"address[]","internalType":"address[]"},{"name":"_fundValueCalculators","type":"address[]","internalType":"address[]"}],"stateMutability":"nonpayable"},{"type":"function","name":"calcGav","inputs":[{"name":"_vaultProxy","type":"address","internalType":"address"}],"outputs":[{"name":"denominationAsset_","type":"address","internalType":"address"},{"name":"gav_","type":"uint256","internalType":"uint256"}],"stateMutability":"nonpayable"},{"type":"function","name":"calcGavInAsset","inputs":[{"name":"_vaultProxy","type":"address","internalType":"address"},{"name":"_quoteAsset","type":"address","internalType":"address"}],"outputs":[{"name":"gav_","type":"uint256","internalType":"uint256"}],"stateMutability":"nonpayable"},{"type":"function","name":"calcGrossShareValue","inputs":[{"name":"_vaultProxy","type":"address","internalType":"address"}],"outputs":[{"name":"denominationAsset_","type":"address","internalType":"address"},{"name":"grossShareValue_","type":"uint256","internalType":"uint256"}],"stateMutability":"nonpayable"},{"type":"function","name":"calcGrossShareValueInAsset","inputs":[{"name":"_vaultProxy","type":"address","internalType":"address"},{"name":"_quoteAsset","type":"address","internalType":"address"}],"outputs":[{"name":"grossShareValue_","type":"uint256","internalType":"uint256"}],"stateMutability":"nonpayable"},{"type":"function","name":"calcNav","inputs":[{"name":"_vaultProxy","type":"address","internalType":"address"}],"outputs":[{"name":"denominationAsset_","type":"address","internalType":"address"},{"name":"nav_","type":"uint256","internalType":"uint256"}],"stateMutability":"nonpayable"},{"type":"function","name":"calcNavInAsset","inputs":[{"name":"_vaultProxy","type":"address","internalType":"address"},{"name":"_quoteAsset","type":"address","internalType":"address"}],"outputs":[{"name":"nav_","type":"uint256","internalType":"uint256"}],"stateMutability":"nonpayable"},{"type":"function","name":"calcNetShareValue","inputs":[{"name":"_vaultProxy","type":"address","internalType":"address"}],"outputs":[{"name":"denominationAsset_","type":"address","internalType":"address"},{"name":"netShareValue_","type":"uint256","internalType":"uint256"}],"stateMutability":"nonpayable"},{"type":"function","name":"calcNetShareValueInAsset","inputs":[{"name":"_vaultProxy","type":"address","internalType":"address"},{"name":"_quoteAsset","type":"address","internalType":"address"}],"outputs":[{"name":"netShareValue_","type":"uint256","internalType":"uint256"}],"stateMutability":"nonpayable"},{"type":"function","name":"calcNetValueForSharesHolder","inputs":[{"name":"_vaultProxy","type":"address","internalType":"address"},{"name":"_sharesHolder","type":"address","internalType":"address"}],"outputs":[{"name":"denominationAsset_","type":"address","internalType":"address"},{"name":"netValue_","type":"uint256","internalType":"uint256"}],"stateMutability":"nonpayable"},{"type":"function","name":"calcNetValueForSharesHolderInAsset","inputs":[{"name":"_vaultProxy","type":"address","internalType":"address"},{"name":"_sharesHolder","type":"address","internalType":"address"},{"name":"_quoteAsset","type":"address","internalType":"address"}],"outputs":[{"name":"netValue_","type":"uint256","internalType":"uint256"}],"stateMutability":"nonpayable"},{"type":"function","name":"getDispatcher","inputs":[],"outputs":[{"name":"dispatcher_","type":"address","internalType":"address"}],"stateMutability":"view"},{"type":"function","name":"getFundValueCalculatorForFundDeployer","inputs":[{"name":"_fundDeployer","type":"address","internalType":"address"}],"outputs":[{"name":"fundValueCalculator_","type":"address","internalType":"address"}],"stateMutability":"view"},{"type":"function","name":"getFundValueCalculatorForVault","inputs":[{"name":"_vaultProxy","type":"address","internalType":"address"}],"outputs":[{"name":"fundValueCalculatorContract_","type":"address","internalType":"contract IFundValueCalculator"}],"stateMutability":"view"},{"type":"function","name":"setFundValueCalculators","inputs":[{"name":"_fundDeployers","type":"address[]","internalType":"address[]"},{"name":"_fundValueCalculators","type":"address[]","internalType":"address[]"}],"outputs":[],"stateMutability":"nonpayable"},{"type":"event","name":"FundValueCalculatorUpdated","inputs":[{"name":"fundDeployer","type":"address","indexed":true,"internalType":"address"},{"name":"fundValueCalculator","type":"address","indexed":false,"internalType":"address"}],"anonymous":false}],"bytecode":{"object":"0x60a06040523480156200001157600080fd5b5060405162001a2d38038062001a2d833981810160405260608110156200003757600080fd5b8101908080519060200190929190805160405193929190846401000000008211156200006257600080fd5b838201915060208201858111156200007957600080fd5b82518660208202830111640100000000821117156200009757600080fd5b8083526020830192505050908051906020019060200280838360005b83811015620000d0578082015181840152602081019050620000b3565b5050505090500160405260200180516040519392919084640100000000821115620000fa57600080fd5b838201915060208201858111156200011157600080fd5b82518660208202830111640100000000821117156200012f57600080fd5b8083526020830192505050908051906020019060200280838360005b83811015620001685780820151818401526020810190506200014b565b505050509050016040525050508273ffffffffffffffffffffffffffffffffffffffff1660808173ffffffffffffffffffffffffffffffffffffffff1660601b81525050620001be8282620001c760201b60201c565b50505062000374565b805182511462000223576040517f08c379a0000000000000000000000000000000000000000000000000000000008152600401808060200182810382526030815260200180620019fd6030913960400191505060405180910390fd5b60005b82518110156200036f578181815181106200023d57fe5b60200260200101516000808584815181106200025557fe5b602002602001015173ffffffffffffffffffffffffffffffffffffffff1673ffffffffffffffffffffffffffffffffffffffff16815260200190815260200160002060006101000a81548173ffffffffffffffffffffffffffffffffffffffff021916908373ffffffffffffffffffffffffffffffffffffffff160217905550828181518110620002e257fe5b602002602001015173ffffffffffffffffffffffffffffffffffffffff167fb1d29f6ea94d91c5d37a117188a5b71f514ff0f0e0347c76232fbad7242ef97b8383815181106200032e57fe5b6020026020010151604051808273ffffffffffffffffffffffffffffffffffffffff16815260200191505060405180910390a2808060010191505062000226565b505050565b60805160601c61166662000397600039806108f2528061121b52506116666000f3fe608060405234801561001057600080fd5b50600436106100ea5760003560e01c806381dfa95b1161008c578063c65988ff11610066578063c65988ff14610690578063ebb3d58914610708578063eefcb1b31461073c578063faf6eeef146107b4576100ea565b806381dfa95b1461043a578063826e85e4146104cf578063c35526631461061b576100ea565b80633ba6b851116100c85780633ba6b851146102405780634807ccbd146102b557806351ac29c71461034d57806353d467f3146103c5576100ea565b8063037276c1146100ef578063360a91d8146101645780633b35b9a8146101d2575b600080fd5b6101316004803603602081101561010557600080fd5b81019080803573ffffffffffffffffffffffffffffffffffffffff16906020019092919050505061082c565b604051808373ffffffffffffffffffffffffffffffffffffffff1681526020018281526020019250505060405180910390f35b6101a66004803603602081101561017a57600080fd5b81019080803573ffffffffffffffffffffffffffffffffffffffff1690602001909291905050506108ed565b604051808273ffffffffffffffffffffffffffffffffffffffff16815260200191505060405180910390f35b610214600480360360208110156101e857600080fd5b81019080803573ffffffffffffffffffffffffffffffffffffffff169060200190929190505050610ad7565b604051808273ffffffffffffffffffffffffffffffffffffffff16815260200191505060405180910390f35b6102826004803603602081101561025657600080fd5b81019080803573ffffffffffffffffffffffffffffffffffffffff169060200190929190505050610b3f565b604051808373ffffffffffffffffffffffffffffffffffffffff1681526020018281526020019250505060405180910390f35b610337600480360360608110156102cb57600080fd5b81019080803573ffffffffffffffffffffffffffffffffffffffff169060200190929190803573ffffffffffffffffffffffffffffffffffffffff169060200190929190803573ffffffffffffffffffffffffffffffffffffffff169060200190929190505050610c00565b6040518082815260200191505060405180910390f35b6103af6004803603604081101561036357600080fd5b81019080803573ffffffffffffffffffffffffffffffffffffffff169060200190929190803573ffffffffffffffffffffffffffffffffffffffff169060200190929190505050610cf3565b6040518082815260200191505060405180910390f35b610407600480360360208110156103db57600080fd5b81019080803573ffffffffffffffffffffffffffffffffffffffff169060200190929190505050610dc7565b604051808373ffffffffffffffffffffffffffffffffffffffff1681526020018281526020019250505060405180910390f35b61049c6004803603604081101561045057600080fd5b81019080803573ffffffffffffffffffffffffffffffffffffffff169060200190929190803573ffffffffffffffffffffffffffffffffffffffff169060200190929190505050610e88565b604051808373ffffffffffffffffffffffffffffffffffffffff1681526020018281526020019250505060405180910390f35b610619600480360360408110156104e557600080fd5b810190808035906020019064010000000081111561050257600080fd5b82018360208201111561051457600080fd5b8035906020019184602083028401116401000000008311171561053657600080fd5b919080806020026020016040519081016040528093929190818152602001838360200280828437600081840152601f19601f8201169050808301925050505050505091929192908035906020019064010000000081111561059657600080fd5b8201836020820111156105a857600080fd5b803590602001918460208302840111640100000000831117156105ca57600080fd5b919080806020026020016040519081016040528093929190818152602001838360200280828437600081840152601f19601f820116905080830192505050505050509192919290505050610f69565b005b61065d6004803603602081101561063157600080fd5b81019080803573ffffffffffffffffffffffffffffffffffffffff169060200190929190505050611082565b604051808373ffffffffffffffffffffffffffffffffffffffff1681526020018281526020019250505060405180910390f35b6106f2600480360360408110156106a657600080fd5b81019080803573ffffffffffffffffffffffffffffffffffffffff169060200190929190803573ffffffffffffffffffffffffffffffffffffffff169060200190929190505050611143565b6040518082815260200191505060405180910390f35b610710611217565b604051808273ffffffffffffffffffffffffffffffffffffffff16815260200191505060405180910390f35b61079e6004803603604081101561075257600080fd5b81019080803573ffffffffffffffffffffffffffffffffffffffff169060200190929190803573ffffffffffffffffffffffffffffffffffffffff16906020019092919050505061123f565b6040518082815260200191505060405180910390f35b610816600480360360408110156107ca57600080fd5b81019080803573ffffffffffffffffffffffffffffffffffffffff169060200190929190803573ffffffffffffffffffffffffffffffffffffffff169060200190929190505050611313565b6040518082815260200191505060405180910390f35b600080610838836108ed565b73ffffffffffffffffffffffffffffffffffffffff1663037276c1846040518263ffffffff1660e01b8152600401808273ffffffffffffffffffffffffffffffffffffffff1681526020019150506040805180830381600087803b15801561089f57600080fd5b505af11580156108b3573d6000803e3d6000fd5b505050506040513d60408110156108c957600080fd5b81019080805190602001909291908051906020019092919050505091509150915091565b6000807f000000000000000000000000000000000000000000000000000000000000000073ffffffffffffffffffffffffffffffffffffffff16633d7c74f8846040518263ffffffff1660e01b8152600401808273ffffffffffffffffffffffffffffffffffffffff16815260200191505060206040518083038186803b15801561097757600080fd5b505afa15801561098b573d6000803e3d6000fd5b505050506040513d60208110156109a157600080fd5b81019080805190602001909291905050509050600073ffffffffffffffffffffffffffffffffffffffff168173ffffffffffffffffffffffffffffffffffffffff161415610a3a576040517f08c379a000000000000000000000000000000000000000000000000000000000815260040180806020018281038252603381526020018061158d6033913960400191505060405180910390fd5b6000610a4582610ad7565b9050600073ffffffffffffffffffffffffffffffffffffffff168173ffffffffffffffffffffffffffffffffffffffff161415610acd576040517f08c379a000000000000000000000000000000000000000000000000000000000815260040180806020018281038252603a8152602001806115c0603a913960400191505060405180910390fd5b8092505050919050565b60008060008373ffffffffffffffffffffffffffffffffffffffff1673ffffffffffffffffffffffffffffffffffffffff16815260200190815260200160002060009054906101000a900473ffffffffffffffffffffffffffffffffffffffff169050919050565b600080610b4b836108ed565b73ffffffffffffffffffffffffffffffffffffffff16633ba6b851846040518263ffffffff1660e01b8152600401808273ffffffffffffffffffffffffffffffffffffffff1681526020019150506040805180830381600087803b158015610bb257600080fd5b505af1158015610bc6573d6000803e3d6000fd5b505050506040513d6040811015610bdc57600080fd5b81019080805190602001909291908051906020019092919050505091509150915091565b6000610c0b846108ed565b73ffffffffffffffffffffffffffffffffffffffff16634807ccbd8585856040518463ffffffff1660e01b8152600401808473ffffffffffffffffffffffffffffffffffffffff1681526020018373ffffffffffffffffffffffffffffffffffffffff1681526020018273ffffffffffffffffffffffffffffffffffffffff1681526020019350505050602060405180830381600087803b158015610caf57600080fd5b505af1158015610cc3573d6000803e3d6000fd5b505050506040513d6020811015610cd957600080fd5b810190808051906020019092919050505090509392505050565b6000610cfe836108ed565b73ffffffffffffffffffffffffffffffffffffffff166351ac29c784846040518363ffffffff1660e01b8152600401808373ffffffffffffffffffffffffffffffffffffffff1681526020018273ffffffffffffffffffffffffffffffffffffffff16815260200192505050602060405180830381600087803b158015610d8457600080fd5b505af1158015610d98573d6000803e3d6000fd5b505050506040513d6020811015610dae57600080fd5b8101908080519060200190929190505050905092915050565b600080610dd3836108ed565b73ffffffffffffffffffffffffffffffffffffffff166353d467f3846040518263ffffffff1660e01b8152600401808273ffffffffffffffffffffffffffffffffffffffff1681526020019150506040805180830381600087803b158015610e3a57600080fd5b505af1158015610e4e573d6000803e3d6000fd5b505050506040513d6040811015610e6457600080fd5b81019080805190602001909291908051906020019092919050505091509150915091565b600080610e94846108ed565b73ffffffffffffffffffffffffffffffffffffffff166381dfa95b85856040518363ffffffff1660e01b8152600401808373ffffffffffffffffffffffffffffffffffffffff1681526020018273ffffffffffffffffffffffffffffffffffffffff168152602001925050506040805180830381600087803b158015610f1957600080fd5b505af1158015610f2d573d6000803e3d6000fd5b505050506040513d6040811015610f4357600080fd5b810190808051906020019092919080519060200190929190505050915091509250929050565b610f71611217565b73ffffffffffffffffffffffffffffffffffffffff1663893d20e86040518163ffffffff1660e01b815260040160206040518083038186803b158015610fb657600080fd5b505afa158015610fca573d6000803e3d6000fd5b505050506040513d6020811015610fe057600080fd5b810190808051906020019092919050505073ffffffffffffffffffffffffffffffffffffffff163373ffffffffffffffffffffffffffffffffffffffff1614611074576040517f08c379a00000000000000000000000000000000000000000000000000000000081526004018080602001828103825260308152602001806115fa6030913960400191505060405180910390fd5b61107e82826113e7565b5050565b60008061108e836108ed565b73ffffffffffffffffffffffffffffffffffffffff1663c3552663846040518263ffffffff1660e01b8152600401808273ffffffffffffffffffffffffffffffffffffffff1681526020019150506040805180830381600087803b1580156110f557600080fd5b505af1158015611109573d6000803e3d6000fd5b505050506040513d604081101561111f57600080fd5b81019080805190602001909291908051906020019092919050505091509150915091565b600061114e836108ed565b73ffffffffffffffffffffffffffffffffffffffff1663c65988ff84846040518363ffffffff1660e01b8152600401808373ffffffffffffffffffffffffffffffffffffffff1681526020018273ffffffffffffffffffffffffffffffffffffffff16815260200192505050602060405180830381600087803b1580156111d457600080fd5b505af11580156111e8573d6000803e3d6000fd5b505050506040513d60208110156111fe57600080fd5b8101908080519060200190929190505050905092915050565b60007f0000000000000000000000000000000000000000000000000000000000000000905090565b600061124a836108ed565b73ffffffffffffffffffffffffffffffffffffffff1663eefcb1b384846040518363ffffffff1660e01b8152600401808373ffffffffffffffffffffffffffffffffffffffff1681526020018273ffffffffffffffffffffffffffffffffffffffff16815260200192505050602060405180830381600087803b1580156112d057600080fd5b505af11580156112e4573d6000803e3d6000fd5b505050506040513d60208110156112fa57600080fd5b8101908080519060200190929190505050905092915050565b600061131e836108ed565b73ffffffffffffffffffffffffffffffffffffffff1663faf6eeef84846040518363ffffffff1660e01b8152600401808373ffffffffffffffffffffffffffffffffffffffff1681526020018273ffffffffffffffffffffffffffffffffffffffff16815260200192505050602060405180830381600087803b1580156113a457600080fd5b505af11580156113b8573d6000803e3d6000fd5b505050506040513d60208110156113ce57600080fd5b8101908080519060200190929190505050905092915050565b8051825114611441576040517f08c379a000000000000000000000000000000000000000000000000000000000815260040180806020018281038252603081526020018061162a6030913960400191505060405180910390fd5b60005b82518110156115875781818151811061145957fe5b602002602001015160008085848151811061147057fe5b602002602001015173ffffffffffffffffffffffffffffffffffffffff1673ffffffffffffffffffffffffffffffffffffffff16815260200190815260200160002060006101000a81548173ffffffffffffffffffffffffffffffffffffffff021916908373ffffffffffffffffffffffffffffffffffffffff1602179055508281815181106114fc57fe5b602002602001015173ffffffffffffffffffffffffffffffffffffffff167fb1d29f6ea94d91c5d37a117188a5b71f514ff0f0e0347c76232fbad7242ef97b83838151811061154757fe5b6020026020010151604051808273ffffffffffffffffffffffffffffffffffffffff16815260200191505060405180910390a28080600101915050611444565b50505056fe67657446756e6456616c756543616c63756c61746f72466f725661756c743a20496e76616c6964205f7661756c7450726f787967657446756e6456616c756543616c63756c61746f72466f725661756c743a204e6f2046756e6456616c756543616c63756c61746f72207365744f6e6c79207468652044697370617463686572206f776e65722063616e2063616c6c20746869732066756e6374696f6e5f5f73657446756e6456616c756543616c63756c61746f72733a20556e657175616c206172726179206c656e67746873a164736f6c634300060c000a5f5f73657446756e6456616c756543616c63756c61746f72733a20556e657175616c206172726179206c656e67746873","linkReferences":{}},"methodIdentifiers":{"calcGav(address)":"037276c1","calcGavInAsset(address,address)":"51ac29c7","calcGrossShareValue(address)":"c3552663","calcGrossShareValueInAsset(address,address)":"eefcb1b3","calcNav(address)":"53d467f3","calcNavInAsset(address,address)":"c65988ff","calcNetShareValue(address)":"3ba6b851","calcNetShareValueInAsset(address,address)":"faf6eeef","calcNetValueForSharesHolder(address,address)":"81dfa95b","calcNetValueForSharesHolderInAsset(address,address,address)":"4807ccbd","getDispatcher()":"ebb3d589","getFundValueCalculatorForFundDeployer(address)":"3b35b9a8","getFundValueCalculatorForVault(address)":"360a91d8","setFundValueCalculators(address[],address[])":"826e85e4"},"id":99}