{"abi":[{"type":"constructor","inputs":[{"name":"_fundValueCalculatorRouter","type":"address","internalType":"address"},{"name":"_wethToken","type":"address","internalType":"address"},{"name":"_ethUsdAggregator","type":"address","internalType":"address"},{"name":"_staleRateThreshold","type":"uint256","internalType":"uint256"}],"stateMutability":"nonpayable"},{"type":"function","name":"calcGav","inputs":[{"name":"_vaultProxy","type":"address","internalType":"address"}],"outputs":[{"name":"gav_","type":"uint256","internalType":"uint256"}],"stateMutability":"nonpayable"},{"type":"function","name":"calcGrossShareValue","inputs":[{"name":"_vaultProxy","type":"address","internalType":"address"}],"outputs":[{"name":"grossShareValue_","type":"uint256","internalType":"uint256"}],"stateMutability":"nonpayable"},{"type":"function","name":"calcNav","inputs":[{"name":"_vaultProxy","type":"address","internalType":"address"}],"outputs":[{"name":"nav_","type":"uint256","internalType":"uint256"}],"stateMutability":"nonpayable"},{"type":"function","name":"calcNetShareValue","inputs":[{"name":"_vaultProxy","type":"address","internalType":"address"}],"outputs":[{"name":"netShareValue_","type":"uint256","internalType":"uint256"}],"stateMutability":"nonpayable"},{"type":"function","name":"calcNetValueForSharesHolder","inputs":[{"name":"_vaultProxy","type":"address","internalType":"address"},{"name":"_sharesHolder","type":"address","internalType":"address"}],"outputs":[{"name":"netValue_","type":"uint256","internalType":"uint256"}],"stateMutability":"nonpayable"},{"type":"function","name":"getEthUsdAggregatorContract","inputs":[],"outputs":[{"name":"ethUsdAggregatorContract_","type":"address","internalType":"contract IChainlinkAggregatorFundValueCalculatorUsdWrapper"}],"stateMutability":"view"},{"type":"function","name":"getFundValueCalculatorRouter","inputs":[],"outputs":[{"name":"fundValueCalculatorRouter_","type":"address","internalType":"address"}],"stateMutability":"view"},{"type":"function","name":"getStaleRateThreshold","inputs":[],"outputs":[{"name":"staleRateThreshold_","type":"uint256","internalType":"uint256"}],"stateMutability":"view"},{"type":"function","name":"getWethToken","inputs":[],"outputs":[{"name":"wethToken_","type":"address","internalType":"address"}],"stateMutability":"view"}],"bytecode":{"object":"0x61010060405234801561001157600080fd5b5060405161077d38038061077d8339818101604052608081101561003457600080fd5b508051602082015160408301516060938401516001600160601b031991851b821660805292841b811660a05260c09290925290911b1660e05260805160601c60a05160601c60c05160e05160601c6106d26100ab6000398061029f5250806103cc52508061025d5250806102e552506106d26000f3fe608060405234801561001057600080fd5b50600436106100935760003560e01c806353d467f31161006657806353d467f3146101225780636ed0a4ef1461014857806381dfa95b14610150578063b54fbdaa1461017e578063c35526631461018657610093565b8063037276c1146100985780632f88698c146100d05780633ba6b851146100f45780634c252f911461011a575b600080fd5b6100be600480360360208110156100ae57600080fd5b50356001600160a01b03166101ac565b60408051918252519081900360200190f35b6100d861025b565b604080516001600160a01b039092168252519081900360200190f35b6100be6004803603602081101561010a57600080fd5b50356001600160a01b031661027f565b6100d861029d565b6100be6004803603602081101561013857600080fd5b50356001600160a01b03166102c1565b6100d86102e3565b6100be6004803603604081101561016657600080fd5b506001600160a01b0381358116916020013516610307565b6100be6103ca565b6100be6004803603602081101561019c57600080fd5b50356001600160a01b03166103ee565b6000806101b761025b565b6001600160a01b03166351ac29c7846101ce61029d565b6040518363ffffffff1660e01b815260040180836001600160a01b03168152602001826001600160a01b0316815260200192505050602060405180830381600087803b15801561021d57600080fd5b505af1158015610231573d6000803e3d6000fd5b505050506040513d602081101561024757600080fd5b5051905061025481610410565b9392505050565b7f000000000000000000000000000000000000000000000000000000000000000090565b60008061028a61025b565b6001600160a01b031663faf6eeef846101ce5b7f000000000000000000000000000000000000000000000000000000000000000090565b6000806102cc61025b565b6001600160a01b031663c65988ff846101ce61029d565b7f000000000000000000000000000000000000000000000000000000000000000090565b60008061031261025b565b6001600160a01b0316634807ccbd858561032a61029d565b6040518463ffffffff1660e01b815260040180846001600160a01b03168152602001836001600160a01b03168152602001826001600160a01b031681526020019350505050602060405180830381600087803b15801561038957600080fd5b505af115801561039d573d6000803e3d6000fd5b505050506040513d60208110156103b357600080fd5b505190506103c081610410565b9150505b92915050565b7f000000000000000000000000000000000000000000000000000000000000000090565b6000806103f961025b565b6001600160a01b031663eefcb1b3846101ce61029d565b600080600061041d6102e3565b6001600160a01b031663feaf968c6040518163ffffffff1660e01b815260040160a06040518083038186803b15801561045557600080fd5b505afa158015610469573d6000803e3d6000fd5b505050506040513d60a081101561047f57600080fd5b5060208101516060909101519092509050600082136104cf5760405162461bcd60e51b81526004018080602001828103825260228152602001806106a46022913960400191505060405180910390fd5b6104e16104da6103ca565b429061053f565b81101561051f5760405162461bcd60e51b815260040180806020018281038252602681526020018061065d6026913960400191505060405180910390fd5b6105376305f5e100610531868561059c565b906105f5565b949350505050565b600082821115610596576040805162461bcd60e51b815260206004820152601e60248201527f536166654d6174683a207375627472616374696f6e206f766572666c6f770000604482015290519081900360640190fd5b50900390565b6000826105ab575060006103c4565b828202828482816105b857fe5b04146102545760405162461bcd60e51b81526004018080602001828103825260218152602001806106836021913960400191505060405180910390fd5b600080821161064b576040805162461bcd60e51b815260206004820152601a60248201527f536166654d6174683a206469766973696f6e206279207a65726f000000000000604482015290519081900360640190fd5b81838161065457fe5b04939250505056fe5f5f636f6e76657274457468546f5573643a205374616c652072617465206465746563746564536166654d6174683a206d756c7469706c69636174696f6e206f766572666c6f775f5f636f6e76657274457468546f5573643a20426164206574685573642072617465a164736f6c634300060c000a","linkReferences":{}},"methodIdentifiers":{"calcGav(address)":"037276c1","calcGrossShareValue(address)":"c3552663","calcNav(address)":"53d467f3","calcNetShareValue(address)":"3ba6b851","calcNetValueForSharesHolder(address,address)":"81dfa95b","getEthUsdAggregatorContract()":"6ed0a4ef","getFundValueCalculatorRouter()":"2f88698c","getStaleRateThreshold()":"b54fbdaa","getWethToken()":"4c252f91"},"id":86}