{"abi":[{"type":"constructor","inputs":[{"name":"_integrationManager","type":"address","internalType":"address"},{"name":"_router","type":"address","internalType":"address"},{"name":"_factory","type":"address","internalType":"address"}],"stateMutability":"nonpayable"},{"type":"function","name":"getFactory","inputs":[],"outputs":[{"name":"factory_","type":"address","internalType":"address"}],"stateMutability":"view"},{"type":"function","name":"getIntegrationManager","inputs":[],"outputs":[{"name":"integrationManager_","type":"address","internalType":"address"}],"stateMutability":"view"},{"type":"function","name":"getUniswapV2Router2","inputs":[],"outputs":[{"name":"router_","type":"address","internalType":"address"}],"stateMutability":"view"},{"type":"function","name":"lend","inputs":[{"name":"_vaultProxy","type":"address","internalType":"address"},{"name":"_actionData","type":"bytes","internalType":"bytes"},{"name":"","type":"bytes","internalType":"bytes"}],"outputs":[],"stateMutability":"nonpayable"},{"type":"function","name":"parseAssetsForAction","inputs":[{"name":"","type":"address","internalType":"address"},{"name":"_selector","type":"bytes4","internalType":"bytes4"},{"name":"_actionData","type":"bytes","internalType":"bytes"}],"outputs":[{"name":"spendAssetsHandleType_","type":"uint8","internalType":"enum IIntegrationManager.SpendAssetsHandleType"},{"name":"spendAssets_","type":"address[]","internalType":"address[]"},{"name":"spendAssetAmounts_","type":"uint256[]","internalType":"uint256[]"},{"name":"incomingAssets_","type":"address[]","internalType":"address[]"},{"name":"minIncomingAssetAmounts_","type":"uint256[]","internalType":"uint256[]"}],"stateMutability":"view"},{"type":"function","name":"redeem","inputs":[{"name":"_vaultProxy","type":"address","internalType":"address"},{"name":"_actionData","type":"bytes","internalType":"bytes"},{"name":"_assetData","type":"bytes","internalType":"bytes"}],"outputs":[],"stateMutability":"nonpayable"}],"bytecode":{"object":"0x60e060405234801561001057600080fd5b5060405161173b38038061173b8339818101604052606081101561003357600080fd5b50805160208201516040909201516001600160601b0319606092831b811660805292821b831660a052901b1660c05260805160601c60a05160601c60c05160601c6116776100c4600039806104f55280610d8f5280610f1d52508061070e52806107a552806107d052806107f75280610adf5280610b065250806104065280610522528061073252506116776000f3fe608060405234801561001057600080fd5b50600436106100625760003560e01c8063099f75151461006757806388cc58e414610137578063c29fa9dd1461015b578063c54efee514610229578063d1ded408146103eb578063e7c45690146103f3575b600080fd5b6101356004803603606081101561007d57600080fd5b6001600160a01b038235169190810190604081016020820135600160201b8111156100a757600080fd5b8201836020820111156100b957600080fd5b803590602001918460018302840111600160201b831117156100da57600080fd5b919390929091602081019035600160201b8111156100f757600080fd5b82018360208201111561010957600080fd5b803590602001918460018302840111600160201b8311171561012a57600080fd5b5090925090506103fb565b005b61013f6104f3565b604080516001600160a01b039092168252519081900360200190f35b6101356004803603606081101561017157600080fd5b6001600160a01b038235169190810190604081016020820135600160201b81111561019b57600080fd5b8201836020820111156101ad57600080fd5b803590602001918460018302840111600160201b831117156101ce57600080fd5b919390929091602081019035600160201b8111156101eb57600080fd5b8201836020820111156101fd57600080fd5b803590602001918460018302840111600160201b8311171561021e57600080fd5b509092509050610517565b6102b66004803603606081101561023f57600080fd5b6001600160a01b03823516916001600160e01b031960208201351691810190606081016040820135600160201b81111561027857600080fd5b82018360208201111561028a57600080fd5b803590602001918460018302840111600160201b831117156102ab57600080fd5b50909250905061066e565b604051808660028111156102c657fe5b815260200180602001806020018060200180602001858103855289818151815260200191508051906020019060200280838360005b838110156103135781810151838201526020016102fb565b50505050905001858103845288818151815260200191508051906020019060200280838360005b8381101561035257818101518382015260200161033a565b50505050905001858103835287818151815260200191508051906020019060200280838360005b83811015610391578181015183820152602001610379565b50505050905001858103825286818151815260200191508051906020019060200280838360005b838110156103d05781810151838201526020016103b8565b50505050905001995050505050505050505060405180910390f35b61013f61070c565b61013f610730565b336001600160a01b037f000000000000000000000000000000000000000000000000000000000000000016146104625760405162461bcd60e51b81526004018080602001828103825260328152602001806115b26032913960400191505060405180910390fd5b61046a61156d565b61047261156d565b61047a61156d565b6104b987878080601f01602080910402602001604051908101604052809392919081815260200183838082843760009201919091525061075492505050565b508251602080850151845182860151855193860151979a509598509396506104e9958e959394919391929061079f565b5050505050505050565b7f000000000000000000000000000000000000000000000000000000000000000090565b336001600160a01b037f0000000000000000000000000000000000000000000000000000000000000000161461057e5760405162461bcd60e51b81526004018080602001828103825260328152602001806115b26032913960400191505060405180910390fd5b600061058861156d565b61059061156d565b6105cf87878080601f0160208091040260200160405190810160405280939291908181526020018383808284376000920191909152506108df92505050565b925092509250606061061686868080601f01602080910402602001604051908101604052809392919081815260200183838082843760009201919091525061091c92505050565b50509050610663898260008151811061062b57fe5b6020026020010151868660006002811061064157fe5b6020020151876001602002015187600060200201518860016020020151610ad9565b505050505050505050565b600060608080806001600160e01b0319881663099f751560e01b14156106a7576106988787610be5565b94509450945094509450610701565b6001600160e01b0319881663c29fa9dd60e01b14156106ca576106988787610e6d565b60405162461bcd60e51b81526004018080602001828103825260278152602001806116446027913960400191505060405180910390fd5b945094509450945094565b7f000000000000000000000000000000000000000000000000000000000000000090565b7f000000000000000000000000000000000000000000000000000000000000000090565b61075c61156d565b61076461156d565b61076c61156d565b60008480602001905160e081101561078357600080fd5b5060c08101519096604088019650608088019550909350915050565b6107ca867f0000000000000000000000000000000000000000000000000000000000000000866110af565b6107f5857f0000000000000000000000000000000000000000000000000000000000000000856110af565b7f00000000000000000000000000000000000000000000000000000000000000006001600160a01b031663e8e337008787878787878e61083361116d565b6040518963ffffffff1660e01b815260040180896001600160a01b03168152602001886001600160a01b03168152602001878152602001868152602001858152602001848152602001836001600160a01b0316815260200182815260200198505050505050505050606060405180830381600087803b1580156108b557600080fd5b505af11580156108c9573d6000803e3d6000fd5b505050506040513d606081101561066357600080fd5b60006108e961156d565b6108f161156d565b8380602001905160a081101561090657600080fd5b5080519560208201955060609091019350915050565b606080606083806020019051606081101561093657600080fd5b8101908080516040519392919084600160201b82111561095557600080fd5b90830190602082018581111561096a57600080fd5b82518660208202830111600160201b8211171561098657600080fd5b82525081516020918201928201910280838360005b838110156109b357818101518382015260200161099b565b5050505090500160405260200180516040519392919084600160201b8211156109db57600080fd5b9083019060208201858111156109f057600080fd5b82518660208202830111600160201b82111715610a0c57600080fd5b82525081516020918201928201910280838360005b83811015610a39578181015183820152602001610a21565b5050505090500160405260200180516040519392919084600160201b821115610a6157600080fd5b908301906020820185811115610a7657600080fd5b82518660208202830111600160201b82111715610a9257600080fd5b82525081516020918201928201910280838360005b83811015610abf578181015183820152602001610aa7565b505050509050016040525050509250925092509193909250565b610b04867f0000000000000000000000000000000000000000000000000000000000000000876110af565b7f00000000000000000000000000000000000000000000000000000000000000006001600160a01b031663baa2abde85858886868d610b4161116d565b6040518863ffffffff1660e01b815260040180886001600160a01b03168152602001876001600160a01b03168152602001868152602001858152602001848152602001836001600160a01b031681526020018281526020019750505050505050506040805180830381600087803b158015610bbb57600080fd5b505af1158015610bcf573d6000803e3d6000fd5b505050506040513d604081101561066357600080fd5b6000606080606080610bf561156d565b610bfd61156d565b6000610c3e8a8a8080601f01602080910402602001604051908101604052809392919081815260200183838082843760009201919091525061075492505050565b93505092509250600267ffffffffffffffff81118015610c5d57600080fd5b50604051908082528060200260200182016040528015610c87578160200160208202803683370190505b509650826000602002015187600081518110610c9f57fe5b6001600160a01b0392909216602092830291909101820152830151875188906001908110610cc957fe5b6001600160a01b039290921660209283029190910182015260408051600280825260608201835290929091908301908036833750508351825192985091889150600090610d1257fe5b6020908102919091010152816001602002015186600181518110610d3257fe5b602090810291909101015260408051600180825281830190925290816020016020820280368337505084516020808701516040805163e6a4390560e01b81526001600160a01b0394851660048201529184166024830152519499507f00000000000000000000000000000000000000000000000000000000000000009092169363e6a439059350604480840193829003018186803b158015610dd357600080fd5b505afa158015610de7573d6000803e3d6000fd5b505050506040513d6020811015610dfd57600080fd5b505185518690600090610e0c57fe5b6001600160a01b03929092166020928302919091018201526040805160018082528183019092529182810190803683370190505093508084600081518110610e5057fe5b602002602001018181525050600297505050509295509295909350565b60006060806060806000610e7f61156d565b610e8761156d565b610ec68a8a8080601f0160208091040260200160405190810160405280939291908181526020018383808284376000920191909152506108df92505050565b604080516001808252818301909252939650919450925060208083019080368337505083516020808601516040805163e6a4390560e01b81526001600160a01b039485166004820152918416602483015251949b507f00000000000000000000000000000000000000000000000000000000000000009092169363e6a439059350604480840193829003018186803b158015610f6157600080fd5b505afa158015610f75573d6000803e3d6000fd5b505050506040513d6020811015610f8b57600080fd5b505187518890600090610f9a57fe5b6001600160a01b03929092166020928302919091018201526040805160018082528183019092529182810190803683370190505095508286600081518110610fde57fe5b602090810291909101015260408051600280825260608201909252908160200160208202803683375050835182519297509187915060009061101c57fe5b6001600160a01b039290921660209283029190910182015282015185518690600190811061104657fe5b6001600160a01b03929092166020928302919091018201526040805160028082526060820183529092909190830190803683375050825182519296509186915060009061108f57fe5b6020908102919091010152806001602002015184600181518110610e5057fe5b60408051636eb1769f60e11b81523060048201526001600160a01b038481166024830152915160009286169163dd62ed3e916044808301926020929190829003018186803b15801561110057600080fd5b505afa158015611114573d6000803e3d6000fd5b505050506040513d602081101561112a57600080fd5b5051905081811015611167578015611151576111516001600160a01b038516846000611174565b6111676001600160a01b03851684600019611174565b50505050565b6001420190565b6111876111808461118c565b838361118f565b505050565b90565b801580611215575060408051636eb1769f60e11b81523060048201526001600160a01b03848116602483015291519185169163dd62ed3e91604480820192602092909190829003018186803b1580156111e757600080fd5b505afa1580156111fb573d6000803e3d6000fd5b505050506040513d602081101561121157600080fd5b5051155b6112505760405162461bcd60e51b815260040180806020018281038252603681526020018061160e6036913960400191505060405180910390fd5b604080516001600160a01b038416602482015260448082018490528251808303909101815260649091019091526020810180516001600160e01b031663095ea7b360e01b17905261118790849060606112f2826040518060400160405280602081526020017f5361666545524332303a206c6f772d6c6576656c2063616c6c206661696c6564815250856001600160a01b031661134e9092919063ffffffff16565b8051909150156111875780806020019051602081101561131157600080fd5b50516111875760405162461bcd60e51b815260040180806020018281038252602a8152602001806115e4602a913960400191505060405180910390fd5b606061135d8484600085611367565b90505b9392505050565b6060824710156113a85760405162461bcd60e51b815260040180806020018281038252602681526020018061158c6026913960400191505060405180910390fd5b6113b1856114c3565b611402576040805162461bcd60e51b815260206004820152601d60248201527f416464726573733a2063616c6c20746f206e6f6e2d636f6e7472616374000000604482015290519081900360640190fd5b60006060866001600160a01b031685876040518082805190602001908083835b602083106114415780518252601f199092019160209182019101611422565b6001836020036101000a03801982511681845116808217855250505050505090500191505060006040518083038185875af1925050503d80600081146114a3576040519150601f19603f3d011682016040523d82523d6000602084013e6114a8565b606091505b50915091506114b88282866114c9565b979650505050505050565b3b151590565b606083156114d8575081611360565b8251156114e85782518084602001fd5b8160405162461bcd60e51b81526004018080602001828103825283818151815260200191508051906020019080838360005b8381101561153257818101518382015260200161151a565b50505050905090810190601f16801561155f5780820380516001836020036101000a031916815260200191505b509250505060405180910390fd5b6040518060400160405280600290602082028036833750919291505056fe416464726573733a20696e73756666696369656e742062616c616e636520666f722063616c6c4f6e6c792074686520496e746567726174696f6e4d616e616765722063616e2063616c6c20746869732066756e6374696f6e5361666545524332303a204552433230206f7065726174696f6e20646964206e6f7420737563636565645361666545524332303a20617070726f76652066726f6d206e6f6e2d7a65726f20746f206e6f6e2d7a65726f20616c6c6f77616e63657061727365417373657473466f72416374696f6e3a205f73656c6563746f7220696e76616c6964a164736f6c634300060c000a","linkReferences":{}},"methodIdentifiers":{"getFactory()":"88cc58e4","getIntegrationManager()":"e7c45690","getUniswapV2Router2()":"d1ded408","lend(address,bytes,bytes)":"099f7515","parseAssetsForAction(address,bytes4,bytes)":"c54efee5","redeem(address,bytes,bytes)":"c29fa9dd"},"id":177}