{"abi":[{"type":"constructor","inputs":[{"name":"_dataProvider","type":"address","internalType":"contract IAaveV3ProtocolDataProvider"},{"name":"_lendingPoolAddressProvider","type":"address","internalType":"contract IAaveV3PoolAddressProvider"},{"name":"_merklDistributor","type":"address","internalType":"contract IMerklDistributor"},{"name":"_referralCode","type":"uint16","internalType":"uint16"},{"name":"_rewardsController","type":"address","internalType":"contract IAaveV3RewardsController"}],"stateMutability":"nonpayable"},{"type":"function","name":"DATA_PROVIDER_CONTRACT","inputs":[],"outputs":[{"name":"","type":"address","internalType":"contract IAaveV3ProtocolDataProvider"}],"stateMutability":"view"},{"type":"function","name":"LENDING_POOL_ADDRESS_PROVIDER_CONTRACT","inputs":[],"outputs":[{"name":"","type":"address","internalType":"contract IAaveV3PoolAddressProvider"}],"stateMutability":"view"},{"type":"function","name":"MERKL_DISTRIBUTOR","inputs":[],"outputs":[{"name":"","type":"address","internalType":"contract IMerklDistributor"}],"stateMutability":"view"},{"type":"function","name":"REFERRAL_CODE","inputs":[],"outputs":[{"name":"","type":"uint16","internalType":"uint16"}],"stateMutability":"view"},{"type":"function","name":"REWARDS_CONTROLLER","inputs":[],"outputs":[{"name":"","type":"address","internalType":"contract IAaveV3RewardsController"}],"stateMutability":"view"},{"type":"function","name":"assetIsBorrowed","inputs":[{"name":"_asset","type":"address","internalType":"address"}],"outputs":[{"name":"isBorrowed_","type":"bool","internalType":"bool"}],"stateMutability":"view"},{"type":"function","name":"assetIsCollateral","inputs":[{"name":"_asset","type":"address","internalType":"address"}],"outputs":[{"name":"isCollateral_","type":"bool","internalType":"bool"}],"stateMutability":"view"},{"type":"function","name":"getDebtAssets","inputs":[],"outputs":[{"name":"assets_","type":"address[]","internalType":"address[]"},{"name":"amounts_","type":"uint256[]","internalType":"uint256[]"}],"stateMutability":"view"},{"type":"function","name":"getDebtTokenForBorrowedAsset","inputs":[{"name":"_borrowedAsset","type":"address","internalType":"address"}],"outputs":[{"name":"debtToken_","type":"address","internalType":"address"}],"stateMutability":"view"},{"type":"function","name":"getManagedAssets","inputs":[],"outputs":[{"name":"assets_","type":"address[]","internalType":"address[]"},{"name":"amounts_","type":"uint256[]","internalType":"uint256[]"}],"stateMutability":"view"},{"type":"function","name":"init","inputs":[{"name":"","type":"bytes","internalType":"bytes"}],"outputs":[],"stateMutability":"nonpayable"},{"type":"function","name":"receiveCallFromVault","inputs":[{"name":"_actionData","type":"bytes","internalType":"bytes"}],"outputs":[],"stateMutability":"nonpayable"},{"type":"event","name":"BorrowedAssetAdded","inputs":[{"name":"asset","type":"address","indexed":true,"internalType":"address"}],"anonymous":false},{"type":"event","name":"BorrowedAssetRemoved","inputs":[{"name":"asset","type":"address","indexed":true,"internalType":"address"}],"anonymous":false},{"type":"event","name":"CollateralAssetAdded","inputs":[{"name":"asset","type":"address","indexed":true,"internalType":"address"}],"anonymous":false},{"type":"event","name":"CollateralAssetRemoved","inputs":[{"name":"asset","type":"address","indexed":true,"internalType":"address"}],"anonymous":false}],"bytecode":{"object":"0x6101206040523480156200001257600080fd5b5060405162003381380380620033818339810160408190526200003591620000c0565b6001600160a01b0394851660805292841660a05290831660c05261ffff1660e052166101005262000144565b60006001600160a01b0382165b92915050565b60006200006e8262000061565b6200008c8162000074565b81146200009857600080fd5b50565b80516200006e8162000081565b61ffff81166200008c565b80516200006e81620000a8565b600080600080600060a08688031215620000dd57620000dd600080fd5b6000620000eb88886200009b565b9550506020620000fe888289016200009b565b945050604062000111888289016200009b565b93505060606200012488828901620000b3565b925050608062000137888289016200009b565b9150509295509295909350565b60805160a05160c05160e051610100516131a6620001db6000396000818161021201526116d2015260008181610149015281816108a80152610e8801526000818160fb015281816118d401526119e501526000818160be0152818161074401528181610a1301528181610db30152818161112e015281816114d901526115d30152600081816101220152610f5401526131a66000f3fe608060405234801561001057600080fd5b50600436106100b45760003560e01c80634eeb4a16116100715780634eeb4a16146101ab57806366b4c5d1146101be57806380daddb8146101f7578063cd086d451461020d578063e5c23a9714610234578063ecd658b41461024757600080fd5b8063115a77c1146100b9578063219461ed146100f657806333a0599f1461011d5780633583849a1461014457806344c72102146101785780634ddf47d414610198575b600080fd5b6100e07f000000000000000000000000000000000000000000000000000000000000000081565b6040516100ed919061226a565b60405180910390f35b6100e07f000000000000000000000000000000000000000000000000000000000000000081565b6100e07f000000000000000000000000000000000000000000000000000000000000000081565b61016b7f000000000000000000000000000000000000000000000000000000000000000081565b6040516100ed9190612282565b61018b6101863660046122af565b61024f565b6040516100ed91906122d8565b6101a96101a63660046123df565b50565b005b61018b6101b93660046122af565b610285565b6101ea6101cc3660046122af565b6001600160a01b039081166000908152600260205260409020541690565b6040516100ed9190612422565b6101ff6102fa565b6040516100ed9291906124dd565b6100e07f000000000000000000000000000000000000000000000000000000000000000081565b6101a96102423660046123df565b610468565b6101ff610540565b600080610274836001600160a01b039081166000908152600260205260409020541690565b6001600160a01b0316141592915050565b60006102f48260018054806020026020016040519081016040528092919081815260200182805480156102e157602002820191906000526020600020905b81546001600160a01b031681526001909101906020018083116102c3575b50505050506106c790919063ffffffff16565b92915050565b606080600180548060200260200160405190810160405280929190818152602001828054801561035357602002820191906000526020600020905b81546001600160a01b03168152600190910190602001808311610335575b505060015493955050506001600160401b038211159050610376576103766122e6565b60405190808252806020026020018201604052801561039f578160200160208202803683370190505b50905060005b8251811015610463578281815181106103c0576103c0612502565b60200260200101516001600160a01b03166370a08231306040518263ffffffff1660e01b81526004016103f39190612422565b602060405180830381865afa158015610410573d6000803e3d6000fd5b505050506040513d601f19601f820116820180604052508101906104349190612529565b82828151811061044657610446612502565b60209081029190910101528061045b81612560565b9150506103a5565b509091565b6000808280602001905181019061047f91906125f6565b909250905081610497576104928161072c565b505050565b600182036104a857610492816109fb565b600282036104b95761049281610d9f565b600382036104ca576104928161111a565b600482036104db57610492816114c8565b600582036104ec57610492816115bf565b600682036104fd57610492816116bc565b6007820361050e5761049281611765565b6008820361051f57610492816117cd565b60405162461bcd60e51b815260040161053790612693565b60405180910390fd5b606080600080548060200260200160405190810160405280929190818152602001828054801561059957602002820191906000526020600020905b81546001600160a01b0316815260019091019060200180831161057b575b5050505050915081516001600160401b038111156105b9576105b96122e6565b6040519080825280602002602001820160405280156105e2578160200160208202803683370190505b50905060005b82518110156104635761062c83828151811061060657610606612502565b60200260200101516001600160a01b039081166000908152600260205260409020541690565b6001600160a01b03166370a08231306040518263ffffffff1660e01b81526004016106579190612422565b602060405180830381865afa158015610674573d6000803e3d6000fd5b505050506040513d601f19601f820116820180604052508101906106989190612529565b8282815181106106aa576106aa612502565b6020908102919091010152806106bf81612560565b9150506105e8565b6000805b8351811015610722578381815181106106e6576106e6612502565b60200260200101516001600160a01b0316836001600160a01b0316036107105760019150506102f4565b8061071a81612560565b9150506106cb565b5060009392505050565b600080600061073a84611a9f565b92509250925060007f00000000000000000000000000000000000000000000000000000000000000006001600160a01b031663026b1d5f6040518163ffffffff1660e01b8152600401602060405180830381865afa1580156107a0573d6000803e3d6000fd5b505050506040513d601f19601f820116820180604052508101906107c491906126ae565b905060005b84518110156109f357821561091a5760008582815181106107ec576107ec612502565b60200260200101516001600160a01b031663b16a19de6040518163ffffffff1660e01b8152600401602060405180830381865afa158015610831573d6000803e3d6000fd5b505050506040513d601f19601f8201168201806040525081019061085591906126ae565b905061087b818487858151811061086e5761086e612502565b6020026020010151611ac5565b826001600160a01b031663617ba0378287858151811061089d5761089d612502565b6020026020010151307f00000000000000000000000000000000000000000000000000000000000000006040518563ffffffff1660e01b81526004016108e694939291906126cf565b600060405180830381600087803b15801561090057600080fd5b505af1158015610914573d6000803e3d6000fd5b50505050505b61093c85828151811061092f5761092f612502565b6020026020010151610285565b6109e157600185828151811061095457610954612502565b60209081029190910181015182546001810184556000938452919092200180546001600160a01b0319166001600160a01b0390921691909117905584518590829081106109a3576109a3612502565b60200260200101516001600160a01b03167f0c7515883121475b5d9289febf21a9de4ad53f18349a856d90c7acd6e099600b60405160405180910390a25b806109eb81612560565b9150506107c9565b505050505050565b6000806000610a0984611a9f565b92509250925060007f00000000000000000000000000000000000000000000000000000000000000006001600160a01b031663026b1d5f6040518163ffffffff1660e01b8152600401602060405180830381865afa158015610a6f573d6000803e3d6000fd5b505050506040513d601f19601f82011682018060405250810190610a9391906126ae565b905060005b84518110156109f357610ab685828151811061092f5761092f612502565b610ad25760405162461bcd60e51b81526004016105379061275c565b6000858281518110610ae657610ae6612502565b60200260200101516001600160a01b03166370a08231306040518263ffffffff1660e01b8152600401610b199190612422565b602060405180830381865afa158015610b36573d6000803e3d6000fd5b505050506040513d601f19601f82011682018060405250810190610b5a9190612529565b9050600019858381518110610b7157610b71612502565b602002602001015103610b9e5780858381518110610b9157610b91612502565b6020026020010181815250505b80858381518110610bb157610bb1612502565b602002602001015103610c3c57610beb868381518110610bd357610bd3612502565b60200260200101516001611b7890919063ffffffff16565b50858281518110610bfe57610bfe612502565b60200260200101516001600160a01b03167f4336391ada1af9dcb966fed43ebafa4404719b6d8e42c765ab28e3abc9a24e7a60405160405180910390a25b8315610d3c57826001600160a01b03166369328dec878481518110610c6357610c63612502565b60200260200101516001600160a01b031663b16a19de6040518163ffffffff1660e01b8152600401602060405180830381865afa158015610ca8573d6000803e3d6000fd5b505050506040513d601f19601f82011682018060405250810190610ccc91906126ae565b878581518110610cde57610cde612502565b6020026020010151336040518463ffffffff1660e01b8152600401610d059392919061276c565b600060405180830381600087803b158015610d1f57600080fd5b505af1158015610d33573d6000803e3d6000fd5b50505050610d8c565b610d8c33868481518110610d5257610d52612502565b6020026020010151888581518110610d6c57610d6c612502565b60200260200101516001600160a01b0316611c9f9092919063ffffffff16565b5080610d9781612560565b915050610a98565b600080610dab83611caa565b9150915060007f00000000000000000000000000000000000000000000000000000000000000006001600160a01b031663026b1d5f6040518163ffffffff1660e01b8152600401602060405180830381865afa158015610e0f573d6000803e3d6000fd5b505050506040513d601f19601f82011682018060405250810190610e3391906126ae565b905060005b835181101561111357816001600160a01b031663a415bcad858381518110610e6257610e62612502565b6020026020010151858481518110610e7c57610e7c612502565b602002602001015160027f0000000000000000000000000000000000000000000000000000000000000000306040518663ffffffff1660e01b8152600401610ec8959493929190612794565b600060405180830381600087803b158015610ee257600080fd5b505af1158015610ef6573d6000803e3d6000fd5b50505050610f2a33848381518110610f1057610f10612502565b6020026020010151868481518110610d6c57610d6c612502565b610f4c848281518110610f3f57610f3f612502565b602002602001015161024f565b6111015760007f00000000000000000000000000000000000000000000000000000000000000006001600160a01b031663d2493b6c868481518110610f9357610f93612502565b60200260200101516040518263ffffffff1660e01b8152600401610fb79190612422565b606060405180830381865afa158015610fd4573d6000803e3d6000fd5b505050506040513d601f19601f82011682018060405250810190610ff891906127e0565b92505050806002600087858151811061101357611013612502565b60200260200101516001600160a01b03166001600160a01b0316815260200190815260200160002060006101000a8154816001600160a01b0302191690836001600160a01b03160217905550600085838151811061107357611073612502565b60209081029190910181015182546001810184556000938452919092200180546001600160a01b0319166001600160a01b0390921691909117905584518590839081106110c2576110c2612502565b60200260200101516001600160a01b03167f97f7fb70b87eb9080ffe33222b1b155c19088727253265871a270021c9b3ecad60405160405180910390a2505b8061110b81612560565b915050610e38565b5050505050565b60008061112683611caa565b9150915060007f00000000000000000000000000000000000000000000000000000000000000006001600160a01b031663026b1d5f6040518163ffffffff1660e01b8152600401602060405180830381865afa15801561118a573d6000803e3d6000fd5b505050506040513d601f19601f820116820180604052508101906111ae91906126ae565b905060005b8351811015611113576111d1848281518110610f3f57610f3f612502565b6111ed5760405162461bcd60e51b81526004016105379061287a565b61121d84828151811061120257611202612502565b60200260200101518385848151811061086e5761086e612502565b816001600160a01b031663573ade8185838151811061123e5761123e612502565b602002602001015185848151811061125857611258612502565b60200260200101516002306040518563ffffffff1660e01b8152600401611282949392919061288a565b600060405180830381600087803b15801561129c57600080fd5b505af11580156112b0573d6000803e3d6000fd5b5050505060008482815181106112c8576112c8612502565b60200260200101516001600160a01b03166370a08231306040518263ffffffff1660e01b81526004016112fb9190612422565b602060405180830381865afa158015611318573d6000803e3d6000fd5b505050506040513d601f19601f8201168201806040525081019061133c9190612529565b9050801561135b5761135b3382878581518110610d6c57610d6c612502565b61137085838151811061060657610606612502565b6001600160a01b03166370a08231306040518263ffffffff1660e01b815260040161139b9190612422565b602060405180830381865afa1580156113b8573d6000803e3d6000fd5b505050506040513d601f19601f820116820180604052508101906113dc9190612529565b6000036114b557600260008684815181106113f9576113f9612502565b60200260200101516001600160a01b03166001600160a01b0316815260200190815260200160002060006101000a8154906001600160a01b03021916905561146485838151811061144c5761144c612502565b60200260200101516000611b7890919063ffffffff16565b5084828151811061147757611477612502565b60200260200101516001600160a01b03167fe826be1b7ceed778b8cb93dde171ee088cbddd7b16b9ebbe726a019988eb5fc060405160405180910390a25b50806114c081612560565b9150506111b3565b60006114d382611cca565b905060007f00000000000000000000000000000000000000000000000000000000000000006001600160a01b031663026b1d5f6040518163ffffffff1660e01b8152600401602060405180830381865afa158015611535573d6000803e3d6000fd5b505050506040513d601f19601f8201168201806040525081019061155991906126ae565b6040516328530a4760e01b81529091506001600160a01b038216906328530a47906115889085906004016128c8565b600060405180830381600087803b1580156115a257600080fd5b505af11580156115b6573d6000803e3d6000fd5b50505050505050565b6000806115cb83611ce0565b9150915060007f00000000000000000000000000000000000000000000000000000000000000006001600160a01b031663026b1d5f6040518163ffffffff1660e01b8152600401602060405180830381865afa15801561162f573d6000803e3d6000fd5b505050506040513d601f19601f8201168201806040525081019061165391906126ae565b604051635a3b74b960e01b81529091506001600160a01b03821690635a3b74b99061168490869086906004016128d6565b600060405180830381600087803b15801561169e57600080fd5b505af11580156116b2573d6000803e3d6000fd5b5050505050505050565b60008060006116ca84611cf7565b9250925092507f00000000000000000000000000000000000000000000000000000000000000006001600160a01b031663236300dc848433856040518563ffffffff1660e01b815260040161172294939291906128f1565b6020604051808303816000875af1158015611741573d6000803e3d6000fd5b505050506040513d601f19601f820116820180604052508101906111139190612529565b600061177082611d10565b905060005b81518110156117c25761179382828151811061092f5761092f612502565b156117b05760405162461bcd60e51b815260040161053790612960565b806117ba81612560565b915050611775565b506104923382611d26565b60008060006117db84611e95565b9250925092506117ea83611eae565b6118065760405162461bcd60e51b8152600401610537906129bb565b82516000816001600160401b03811115611822576118226122e6565b60405190808252806020026020018201604052801561184b578160200160208202803683370190505b5090506000826001600160401b03811115611868576118686122e6565b604051908082528060200260200182016040528015611891578160200160208202803683370190505b50905060005b838110156119cd57308382815181106118b2576118b2612502565b60200260200101906001600160a01b031690816001600160a01b0316815250507f00000000000000000000000000000000000000000000000000000000000000006001600160a01b0316630c9cbf0e3089848151811061191457611914612502565b60200260200101516040518363ffffffff1660e01b81526004016119399291906129cb565b602060405180830381865afa158015611956573d6000803e3d6000fd5b505050506040513d601f19601f8201168201806040525081019061197a9190612529565b86828151811061198c5761198c612502565b602002602001015161199e91906129e6565b8282815181106119b0576119b0612502565b6020908102919091010152806119c581612560565b915050611897565b506040516301c7ba5760e61b81526001600160a01b037f000000000000000000000000000000000000000000000000000000000000000016906371ee95c090611a209085908a9086908a90600401612aa9565b600060405180830381600087803b158015611a3a57600080fd5b505af1158015611a4e573d6000803e3d6000fd5b5050505060005b838110156116b257611a8d33878381518110611a7357611a73612502565b6020026020010151898481518110610d6c57610d6c612502565b80611a9781612560565b915050611a55565b606080600083806020019051810190611ab89190612c20565b9250925092509193909250565b604051636eb1769f60e11b81526000906001600160a01b0385169063dd62ed3e90611af690309087906004016129cb565b602060405180830381865afa158015611b13573d6000803e3d6000fd5b505050506040513d601f19601f82011682018060405250810190611b379190612529565b905081811015611b72578015611b5c57611b5c6001600160a01b038516846000611f6b565b611b726001600160a01b03851684600019611f6b565b50505050565b8154600090815b81811015611c9757836001600160a01b0316858281548110611ba357611ba3612502565b6000918252602090912001546001600160a01b031603611c8557611bc8600183612c99565b811015611c4a5784611bdb600184612c99565b81548110611beb57611beb612502565b9060005260206000200160009054906101000a90046001600160a01b0316858281548110611c1b57611c1b612502565b9060005260206000200160006101000a8154816001600160a01b0302191690836001600160a01b031602179055505b84805480611c5a57611c5a612cac565b600082815260209020810160001990810180546001600160a01b031916905501905560019250611c97565b80611c8f81612560565b915050611b7f565b505092915050565b610492838383611f76565b60608082806020019051810190611cc19190612cc2565b91509150915091565b6000818060200190518101906102f49190612d3c565b60008082806020019051810190611cc19190612d5d565b606060008083806020019051810190611ab89190612d90565b6060818060200190518101906102f49190612dde565b606081516001600160401b03811115611d4157611d416122e6565b604051908082528060200260200182016040528015611d6a578160200160208202803683370190505b50905060005b8251811015611e8e576000838281518110611d8d57611d8d612502565b60200260200101519050806001600160a01b03166370a08231306040518263ffffffff1660e01b8152600401611dc39190612422565b602060405180830381865afa158015611de0573d6000803e3d6000fd5b505050506040513d601f19601f82011682018060405250810190611e049190612529565b838381518110611e1657611e16612502565b6020026020010181815250506000838381518110611e3657611e36612502565b60200260200101511115611e7b57611e7b85848481518110611e5a57611e5a612502565b6020026020010151836001600160a01b0316611c9f9092919063ffffffff16565b5080611e8681612560565b915050611d70565b5092915050565b606080606083806020019051810190611ab89190612f1e565b60006001825111611ec157506001919050565b815160005b81811015611f61576000611edb8260016129e6565b90505b82811015611f4e57848181518110611ef857611ef8612502565b60200260200101516001600160a01b0316858381518110611f1b57611f1b612502565b60200260200101516001600160a01b031603611f3c57506000949350505050565b80611f4681612560565b915050611ede565b5080611f5981612560565b915050611ec6565b5060019392505050565b610492838383611fcc565b6104928363a9059cbb60e01b8484604051602401611f95929190612fb1565b60408051601f198184030181529190526020810180516001600160e01b03166001600160e01b031990931692909217909152612080565b8015806120455750604051636eb1769f60e11b81526001600160a01b0384169063dd62ed3e9061200290309086906004016129cb565b602060405180830381865afa15801561201f573d6000803e3d6000fd5b505050506040513d601f19601f820116820180604052508101906120439190612529565b155b6120615760405162461bcd60e51b81526004016105379061301f565b6104928363095ea7b360e01b8484604051602401611f95929190612fb1565b60006120d5826040518060400160405280602081526020017f5361666545524332303a206c6f772d6c6576656c2063616c6c206661696c6564815250856001600160a01b031661210f9092919063ffffffff16565b80519091501561049257808060200190518101906120f3919061302f565b6104925760405162461bcd60e51b815260040161053790613097565b606061211e8484600085612128565b90505b9392505050565b60608247101561214a5760405162461bcd60e51b8152600401610537906130ea565b600080866001600160a01b03168587604051612166919061311c565b60006040518083038185875af1925050503d80600081146121a3576040519150601f19603f3d011682016040523d82523d6000602084013e6121a8565b606091505b50915091506121b9878383876121c6565b925050505b949350505050565b606083156122055782516000036121fe576001600160a01b0385163b6121fe5760405162461bcd60e51b815260040161053790613128565b50816121be565b6121be838381511561221a5781518083602001fd5b8060405162461bcd60e51b81526004016105379190613195565b60006001600160a01b0382166102f4565b60006102f482612234565b60006102f482612245565b61226481612250565b82525050565b602081016102f4828461225b565b61ffff8116612264565b602081016102f48284612278565b61229981612234565b81146101a657600080fd5b80356102f481612290565b6000602082840312156122c4576122c4600080fd5b60006121be84846122a4565b801515612264565b602081016102f482846122d0565b634e487b7160e01b600052604160045260246000fd5b601f19601f83011681018181106001600160401b0382111715612321576123216122e6565b6040525050565b600061233360405190565b905061233f82826122fc565b919050565b60006001600160401b0382111561235d5761235d6122e6565b601f19601f83011660200192915050565b82818337506000910152565b600061238d61238884612344565b612328565b9050828152602081018484840111156123a8576123a8600080fd5b6123b384828561236e565b509392505050565b600082601f8301126123cf576123cf600080fd5b81356121be84826020860161237a565b6000602082840312156123f4576123f4600080fd5b81356001600160401b0381111561240d5761240d600080fd5b6121be848285016123bb565b61226481612234565b602081016102f48284612419565b600061243c8383612419565b505060200190565b600061244e825190565b80845260209384019383018060005b838110156124825781516124718882612430565b97506020830192505060010161245d565b509495945050505050565b80612264565b600061243c838361248d565b60006124a9825190565b80845260209384019383018060005b838110156124825781516124cc8882612493565b9750602083019250506001016124b8565b604080825281016124ee8185612444565b9050818103602083015261211e818461249f565b634e487b7160e01b600052603260045260246000fd5b80612299565b80516102f481612518565b60006020828403121561253e5761253e600080fd5b60006121be848461251e565b634e487b7160e01b600052601160045260246000fd5b600060001982036125735761257361254a565b5060010190565b60005b8381101561259557818101518382015260200161257d565b50506000910152565b60006125ac61238884612344565b9050828152602081018484840111156125c7576125c7600080fd5b6123b384828561257a565b600082601f8301126125e6576125e6600080fd5b81516121be84826020860161259e565b6000806040838503121561260c5761260c600080fd5b6000612618858561251e565b92505060208301516001600160401b0381111561263757612637600080fd5b612643858286016125d2565b9150509250929050565b602681526000602082017f7265636569766543616c6c46726f6d5661756c743a20496e76616c69642061638152651d1a5bdb925960d21b602082015291505b5060400190565b602080825281016102f48161264d565b80516102f481612290565b6000602082840312156126c3576126c3600080fd5b60006121be84846126a3565b608081016126dd8287612419565b6126ea602083018661248d565b6126f76040830185612419565b6127046060830184612278565b95945050505050565b603281526000602082017f5f5f72656d6f7665436f6c6c61746572616c4173736574733a20496e76616c69815271190818dbdb1b185d195c985b08185cdcd95d60721b6020820152915061268c565b602080825281016102f48161270d565b6060810161277a8286612419565b612787602083018561248d565b6121be6040830184612419565b60a081016127a28288612419565b6127af602083018761248d565b6127bc604083018661248d565b6127c96060830185612278565b6127d66080830184612419565b9695505050505050565b6000806000606084860312156127f8576127f8600080fd5b600061280486866126a3565b9350506020612815868287016126a3565b9250506040612826868287016126a3565b9150509250925092565b602d81526000602082017f5f5f7265706179426f72726f7765644173736574733a20496e76616c6964206281526c1bdc9c9bddd95908185cdcd95d609a1b6020820152915061268c565b602080825281016102f481612830565b608081016128988287612419565b6128a5602083018661248d565b6128b2604083018561248d565b6127046060830184612419565b60ff8116612264565b602081016102f482846128bf565b604081016128e48285612419565b61212160208301846122d0565b608080825281016129028187612444565b9050612911602083018661248d565b6128b26040830185612419565b602581526000602082017f5f5f73776565703a20496e76616c69642061737365742c20697320636f6c6c618152641d195c985b60da1b6020820152915061268c565b602080825281016102f48161291e565b602e81526000602082017f5f5f636c61696d4d65726b6c526577617264733a204475706c6963617465207481526d6f6b656e7320746f20636c61696d60901b6020820152915061268c565b602080825281016102f481612970565b604081016129d98285612419565b6121216020830184612419565b808201808211156102f4576102f461254a565b6000612a03825190565b80845260209384019383018060005b83811015612482578151612a268882612493565b975060208301925050600101612a12565b600061212183836129f9565b6000612a4d825190565b80845260208401935083602082028501612a678560200190565b8060005b85811015612a9c5784840389528151612a848582612a37565b94506020830160209a909a0199925050600101612a6b565b5091979650505050505050565b60808082528101612aba8187612444565b90508181036020830152612ace8186612444565b90508181036040830152612ae2818561249f565b905081810360608301526127d68184612a43565b60006001600160401b03821115612b0f57612b0f6122e6565b5060209081020190565b6000612b2761238884612af6565b83815290506020808201908402830185811115612b4657612b46600080fd5b835b81811015612b6a5780612b5b88826126a3565b84525060209283019201612b48565b5050509392505050565b600082601f830112612b8857612b88600080fd5b81516121be848260208601612b19565b6000612ba661238884612af6565b83815290506020808201908402830185811115612bc557612bc5600080fd5b835b81811015612b6a5780612bda888261251e565b84525060209283019201612bc7565b600082601f830112612bfd57612bfd600080fd5b81516121be848260208601612b98565b801515612299565b80516102f481612c0d565b600080600060608486031215612c3857612c38600080fd5b83516001600160401b03811115612c5157612c51600080fd5b612c5d86828701612b74565b93505060208401516001600160401b03811115612c7c57612c7c600080fd5b612c8886828701612be9565b925050604061282686828701612c15565b818103818111156102f4576102f461254a565b634e487b7160e01b600052603160045260246000fd5b60008060408385031215612cd857612cd8600080fd5b82516001600160401b03811115612cf157612cf1600080fd5b612cfd85828601612b74565b92505060208301516001600160401b03811115612d1c57612d1c600080fd5b61264385828601612be9565b60ff8116612299565b80516102f481612d28565b600060208284031215612d5157612d51600080fd5b60006121be8484612d31565b60008060408385031215612d7357612d73600080fd5b6000612d7f85856126a3565b925050602061264385828601612c15565b600080600060608486031215612da857612da8600080fd5b83516001600160401b03811115612dc157612dc1600080fd5b612dcd86828701612b74565b93505060206128158682870161251e565b600060208284031215612df357612df3600080fd5b81516001600160401b03811115612e0c57612e0c600080fd5b6121be84828501612b74565b6000612e2661238884612af6565b83815290506020808201908402830185811115612e4557612e45600080fd5b835b81811015612b6a5780612e5a888261251e565b84525060209283019201612e47565b600082601f830112612e7d57612e7d600080fd5b81516121be848260208601612e18565b6000612e9b61238884612af6565b83815290506020808201908402830185811115612eba57612eba600080fd5b835b81811015612b6a5780516001600160401b03811115612edd57612edd600080fd5b808601612eea8982612e69565b8552505060209283019201612ebc565b600082601f830112612f0e57612f0e600080fd5b81516121be848260208601612e8d565b600080600060608486031215612f3657612f36600080fd5b83516001600160401b03811115612f4f57612f4f600080fd5b612f5b86828701612b74565b93505060208401516001600160401b03811115612f7a57612f7a600080fd5b612f8686828701612be9565b92505060408401516001600160401b03811115612fa557612fa5600080fd5b61282686828701612efa565b60408101612fbf8285612419565b612121602083018461248d565b603681526000602082017f5361666545524332303a20617070726f76652066726f6d206e6f6e2d7a65726f81527520746f206e6f6e2d7a65726f20616c6c6f77616e636560501b6020820152915061268c565b602080825281016102f481612fcc565b60006020828403121561304457613044600080fd5b60006121be8484612c15565b602a81526000602082017f5361666545524332303a204552433230206f7065726174696f6e20646964206e8152691bdd081cdd58d8d9595960b21b6020820152915061268c565b602080825281016102f481613050565b602681526000602082017f416464726573733a20696e73756666696369656e742062616c616e636520666f8152651c8818d85b1b60d21b6020820152915061268c565b602080825281016102f4816130a7565b6000613104825190565b61311281856020860161257a565b9290920192915050565b600061212182846130fa565b602080825281016102f481601d81527f416464726573733a2063616c6c20746f206e6f6e2d636f6e7472616374000000602082015260400190565b600061316d825190565b80845260208401935061318481856020860161257a565b601f01601f19169290920192915050565b60208082528101612121818461316356","linkReferences":{}},"methodIdentifiers":{"DATA_PROVIDER_CONTRACT()":"33a0599f","LENDING_POOL_ADDRESS_PROVIDER_CONTRACT()":"115a77c1","MERKL_DISTRIBUTOR()":"219461ed","REFERRAL_CODE()":"3583849a","REWARDS_CONTROLLER()":"cd086d45","assetIsBorrowed(address)":"44c72102","assetIsCollateral(address)":"4eeb4a16","getDebtAssets()":"ecd658b4","getDebtTokenForBorrowedAsset(address)":"66b4c5d1","getManagedAssets()":"80daddb8","init(bytes)":"4ddf47d4","receiveCallFromVault(bytes)":"e5c23a97"},"id":94}