{"abi":[{"type":"constructor","inputs":[{"name":"_dataProvider","type":"address","internalType":"contract IAaveV3ProtocolDataProvider"},{"name":"_lendingPoolAddressProvider","type":"address","internalType":"contract IAaveV3PoolAddressProvider"},{"name":"_merklDistributor","type":"address","internalType":"contract IMerklDistributor"},{"name":"_referralCode","type":"uint16","internalType":"uint16"},{"name":"_rewardsController","type":"address","internalType":"contract IAaveV3RewardsController"}],"stateMutability":"nonpayable"},{"type":"function","name":"DATA_PROVIDER_CONTRACT","inputs":[],"outputs":[{"name":"","type":"address","internalType":"contract IAaveV3ProtocolDataProvider"}],"stateMutability":"view"},{"type":"function","name":"LENDING_POOL_ADDRESS_PROVIDER_CONTRACT","inputs":[],"outputs":[{"name":"","type":"address","internalType":"contract IAaveV3PoolAddressProvider"}],"stateMutability":"view"},{"type":"function","name":"MERKL_DISTRIBUTOR","inputs":[],"outputs":[{"name":"","type":"address","internalType":"contract IMerklDistributor"}],"stateMutability":"view"},{"type":"function","name":"REFERRAL_CODE","inputs":[],"outputs":[{"name":"","type":"uint16","internalType":"uint16"}],"stateMutability":"view"},{"type":"function","name":"REWARDS_CONTROLLER","inputs":[],"outputs":[{"name":"","type":"address","internalType":"contract IAaveV3RewardsController"}],"stateMutability":"view"},{"type":"function","name":"assetIsBorrowed","inputs":[{"name":"_asset","type":"address","internalType":"address"}],"outputs":[{"name":"isBorrowed_","type":"bool","internalType":"bool"}],"stateMutability":"view"},{"type":"function","name":"assetIsCollateral","inputs":[{"name":"_asset","type":"address","internalType":"address"}],"outputs":[{"name":"isCollateral_","type":"bool","internalType":"bool"}],"stateMutability":"view"},{"type":"function","name":"getDebtAssets","inputs":[],"outputs":[{"name":"assets_","type":"address[]","internalType":"address[]"},{"name":"amounts_","type":"uint256[]","internalType":"uint256[]"}],"stateMutability":"view"},{"type":"function","name":"getDebtTokenForBorrowedAsset","inputs":[{"name":"_borrowedAsset","type":"address","internalType":"address"}],"outputs":[{"name":"debtToken_","type":"address","internalType":"address"}],"stateMutability":"view"},{"type":"function","name":"getManagedAssets","inputs":[],"outputs":[{"name":"assets_","type":"address[]","internalType":"address[]"},{"name":"amounts_","type":"uint256[]","internalType":"uint256[]"}],"stateMutability":"view"},{"type":"function","name":"init","inputs":[{"name":"","type":"bytes","internalType":"bytes"}],"outputs":[],"stateMutability":"nonpayable"},{"type":"function","name":"receiveCallFromVault","inputs":[{"name":"_actionData","type":"bytes","internalType":"bytes"}],"outputs":[],"stateMutability":"nonpayable"},{"type":"event","name":"BorrowedAssetAdded","inputs":[{"name":"asset","type":"address","indexed":true,"internalType":"address"}],"anonymous":false},{"type":"event","name":"BorrowedAssetRemoved","inputs":[{"name":"asset","type":"address","indexed":true,"internalType":"address"}],"anonymous":false},{"type":"event","name":"CollateralAssetAdded","inputs":[{"name":"asset","type":"address","indexed":true,"internalType":"address"}],"anonymous":false},{"type":"event","name":"CollateralAssetRemoved","inputs":[{"name":"asset","type":"address","indexed":true,"internalType":"address"}],"anonymous":false}],"bytecode":{"object":"0x6101206040523480156200001257600080fd5b50604051620030f5380380620030f58339810160408190526200003591620000c0565b6001600160a01b0394851660805292841660a05290831660c05261ffff1660e052166101005262000144565b60006001600160a01b0382165b92915050565b60006200006e8262000061565b6200008c8162000074565b81146200009857600080fd5b50565b80516200006e8162000081565b61ffff81166200008c565b80516200006e81620000a8565b600080600080600060a08688031215620000dd57620000dd600080fd5b6000620000eb88886200009b565b9550506020620000fe888289016200009b565b945050604062000111888289016200009b565b93505060606200012488828901620000b3565b925050608062000137888289016200009b565b9150509295509295909350565b60805160a05160c05160e05161010051612f21620001d46000396000818161021201526116d2015260008181610149015281816108a80152610e8801526000818160fb015261188b01526000818160be0152818161074401528181610a1301528181610db30152818161112e015281816114d901526115d30152600081816101220152610f540152612f216000f3fe608060405234801561001057600080fd5b50600436106100b45760003560e01c80634eeb4a16116100715780634eeb4a16146101ab57806366b4c5d1146101be57806380daddb8146101f7578063cd086d451461020d578063e5c23a9714610234578063ecd658b41461024757600080fd5b8063115a77c1146100b9578063219461ed146100f657806333a0599f1461011d5780633583849a1461014457806344c72102146101785780634ddf47d414610198575b600080fd5b6100e07f000000000000000000000000000000000000000000000000000000000000000081565b6040516100ed9190612053565b60405180910390f35b6100e07f000000000000000000000000000000000000000000000000000000000000000081565b6100e07f000000000000000000000000000000000000000000000000000000000000000081565b61016b7f000000000000000000000000000000000000000000000000000000000000000081565b6040516100ed919061206b565b61018b610186366004612098565b61024f565b6040516100ed91906120c1565b6101a96101a63660046121c8565b50565b005b61018b6101b9366004612098565b610285565b6101ea6101cc366004612098565b6001600160a01b039081166000908152600260205260409020541690565b6040516100ed919061220b565b6101ff6102fa565b6040516100ed9291906122c6565b6100e07f000000000000000000000000000000000000000000000000000000000000000081565b6101a96102423660046121c8565b610468565b6101ff610540565b600080610274836001600160a01b039081166000908152600260205260409020541690565b6001600160a01b0316141592915050565b60006102f48260018054806020026020016040519081016040528092919081815260200182805480156102e157602002820191906000526020600020905b81546001600160a01b031681526001909101906020018083116102c3575b50505050506106c790919063ffffffff16565b92915050565b606080600180548060200260200160405190810160405280929190818152602001828054801561035357602002820191906000526020600020905b81546001600160a01b03168152600190910190602001808311610335575b505060015493955050506001600160401b038211159050610376576103766120cf565b60405190808252806020026020018201604052801561039f578160200160208202803683370190505b50905060005b8251811015610463578281815181106103c0576103c06122eb565b60200260200101516001600160a01b03166370a08231306040518263ffffffff1660e01b81526004016103f3919061220b565b602060405180830381865afa158015610410573d6000803e3d6000fd5b505050506040513d601f19601f820116820180604052508101906104349190612312565b828281518110610446576104466122eb565b60209081029190910101528061045b81612349565b9150506103a5565b509091565b6000808280602001905181019061047f91906123df565b909250905081610497576104928161072c565b505050565b600182036104a857610492816109fb565b600282036104b95761049281610d9f565b600382036104ca576104928161111a565b600482036104db57610492816114c8565b600582036104ec57610492816115bf565b600682036104fd57610492816116bc565b6007820361050e5761049281611765565b6008820361051f57610492816117cd565b60405162461bcd60e51b81526004016105379061247c565b60405180910390fd5b606080600080548060200260200160405190810160405280929190818152602001828054801561059957602002820191906000526020600020905b81546001600160a01b0316815260019091019060200180831161057b575b5050505050915081516001600160401b038111156105b9576105b96120cf565b6040519080825280602002602001820160405280156105e2578160200160208202803683370190505b50905060005b82518110156104635761062c838281518110610606576106066122eb565b60200260200101516001600160a01b039081166000908152600260205260409020541690565b6001600160a01b03166370a08231306040518263ffffffff1660e01b8152600401610657919061220b565b602060405180830381865afa158015610674573d6000803e3d6000fd5b505050506040513d601f19601f820116820180604052508101906106989190612312565b8282815181106106aa576106aa6122eb565b6020908102919091010152806106bf81612349565b9150506105e8565b6000805b8351811015610722578381815181106106e6576106e66122eb565b60200260200101516001600160a01b0316836001600160a01b0316036107105760019150506102f4565b8061071a81612349565b9150506106cb565b5060009392505050565b600080600061073a84611945565b92509250925060007f00000000000000000000000000000000000000000000000000000000000000006001600160a01b031663026b1d5f6040518163ffffffff1660e01b8152600401602060405180830381865afa1580156107a0573d6000803e3d6000fd5b505050506040513d601f19601f820116820180604052508101906107c49190612497565b905060005b84518110156109f357821561091a5760008582815181106107ec576107ec6122eb565b60200260200101516001600160a01b031663b16a19de6040518163ffffffff1660e01b8152600401602060405180830381865afa158015610831573d6000803e3d6000fd5b505050506040513d601f19601f820116820180604052508101906108559190612497565b905061087b818487858151811061086e5761086e6122eb565b602002602001015161196b565b826001600160a01b031663617ba0378287858151811061089d5761089d6122eb565b6020026020010151307f00000000000000000000000000000000000000000000000000000000000000006040518563ffffffff1660e01b81526004016108e694939291906124b8565b600060405180830381600087803b15801561090057600080fd5b505af1158015610914573d6000803e3d6000fd5b50505050505b61093c85828151811061092f5761092f6122eb565b6020026020010151610285565b6109e1576001858281518110610954576109546122eb565b60209081029190910181015182546001810184556000938452919092200180546001600160a01b0319166001600160a01b0390921691909117905584518590829081106109a3576109a36122eb565b60200260200101516001600160a01b03167f0c7515883121475b5d9289febf21a9de4ad53f18349a856d90c7acd6e099600b60405160405180910390a25b806109eb81612349565b9150506107c9565b505050505050565b6000806000610a0984611945565b92509250925060007f00000000000000000000000000000000000000000000000000000000000000006001600160a01b031663026b1d5f6040518163ffffffff1660e01b8152600401602060405180830381865afa158015610a6f573d6000803e3d6000fd5b505050506040513d601f19601f82011682018060405250810190610a939190612497565b905060005b84518110156109f357610ab685828151811061092f5761092f6122eb565b610ad25760405162461bcd60e51b815260040161053790612545565b6000858281518110610ae657610ae66122eb565b60200260200101516001600160a01b03166370a08231306040518263ffffffff1660e01b8152600401610b19919061220b565b602060405180830381865afa158015610b36573d6000803e3d6000fd5b505050506040513d601f19601f82011682018060405250810190610b5a9190612312565b9050600019858381518110610b7157610b716122eb565b602002602001015103610b9e5780858381518110610b9157610b916122eb565b6020026020010181815250505b80858381518110610bb157610bb16122eb565b602002602001015103610c3c57610beb868381518110610bd357610bd36122eb565b60200260200101516001611a1e90919063ffffffff16565b50858281518110610bfe57610bfe6122eb565b60200260200101516001600160a01b03167f4336391ada1af9dcb966fed43ebafa4404719b6d8e42c765ab28e3abc9a24e7a60405160405180910390a25b8315610d3c57826001600160a01b03166369328dec878481518110610c6357610c636122eb565b60200260200101516001600160a01b031663b16a19de6040518163ffffffff1660e01b8152600401602060405180830381865afa158015610ca8573d6000803e3d6000fd5b505050506040513d601f19601f82011682018060405250810190610ccc9190612497565b878581518110610cde57610cde6122eb565b6020026020010151336040518463ffffffff1660e01b8152600401610d0593929190612555565b600060405180830381600087803b158015610d1f57600080fd5b505af1158015610d33573d6000803e3d6000fd5b50505050610d8c565b610d8c33868481518110610d5257610d526122eb565b6020026020010151888581518110610d6c57610d6c6122eb565b60200260200101516001600160a01b0316611b459092919063ffffffff16565b5080610d9781612349565b915050610a98565b600080610dab83611b50565b9150915060007f00000000000000000000000000000000000000000000000000000000000000006001600160a01b031663026b1d5f6040518163ffffffff1660e01b8152600401602060405180830381865afa158015610e0f573d6000803e3d6000fd5b505050506040513d601f19601f82011682018060405250810190610e339190612497565b905060005b835181101561111357816001600160a01b031663a415bcad858381518110610e6257610e626122eb565b6020026020010151858481518110610e7c57610e7c6122eb565b602002602001015160027f0000000000000000000000000000000000000000000000000000000000000000306040518663ffffffff1660e01b8152600401610ec895949392919061257d565b600060405180830381600087803b158015610ee257600080fd5b505af1158015610ef6573d6000803e3d6000fd5b50505050610f2a33848381518110610f1057610f106122eb565b6020026020010151868481518110610d6c57610d6c6122eb565b610f4c848281518110610f3f57610f3f6122eb565b602002602001015161024f565b6111015760007f00000000000000000000000000000000000000000000000000000000000000006001600160a01b031663d2493b6c868481518110610f9357610f936122eb565b60200260200101516040518263ffffffff1660e01b8152600401610fb7919061220b565b606060405180830381865afa158015610fd4573d6000803e3d6000fd5b505050506040513d601f19601f82011682018060405250810190610ff891906125c9565b925050508060026000878581518110611013576110136122eb565b60200260200101516001600160a01b03166001600160a01b0316815260200190815260200160002060006101000a8154816001600160a01b0302191690836001600160a01b031602179055506000858381518110611073576110736122eb565b60209081029190910181015182546001810184556000938452919092200180546001600160a01b0319166001600160a01b0390921691909117905584518590839081106110c2576110c26122eb565b60200260200101516001600160a01b03167f97f7fb70b87eb9080ffe33222b1b155c19088727253265871a270021c9b3ecad60405160405180910390a2505b8061110b81612349565b915050610e38565b5050505050565b60008061112683611b50565b9150915060007f00000000000000000000000000000000000000000000000000000000000000006001600160a01b031663026b1d5f6040518163ffffffff1660e01b8152600401602060405180830381865afa15801561118a573d6000803e3d6000fd5b505050506040513d601f19601f820116820180604052508101906111ae9190612497565b905060005b8351811015611113576111d1848281518110610f3f57610f3f6122eb565b6111ed5760405162461bcd60e51b815260040161053790612663565b61121d848281518110611202576112026122eb565b60200260200101518385848151811061086e5761086e6122eb565b816001600160a01b031663573ade8185838151811061123e5761123e6122eb565b6020026020010151858481518110611258576112586122eb565b60200260200101516002306040518563ffffffff1660e01b81526004016112829493929190612673565b600060405180830381600087803b15801561129c57600080fd5b505af11580156112b0573d6000803e3d6000fd5b5050505060008482815181106112c8576112c86122eb565b60200260200101516001600160a01b03166370a08231306040518263ffffffff1660e01b81526004016112fb919061220b565b602060405180830381865afa158015611318573d6000803e3d6000fd5b505050506040513d601f19601f8201168201806040525081019061133c9190612312565b9050801561135b5761135b3382878581518110610d6c57610d6c6122eb565b611370858381518110610606576106066122eb565b6001600160a01b03166370a08231306040518263ffffffff1660e01b815260040161139b919061220b565b602060405180830381865afa1580156113b8573d6000803e3d6000fd5b505050506040513d601f19601f820116820180604052508101906113dc9190612312565b6000036114b557600260008684815181106113f9576113f96122eb565b60200260200101516001600160a01b03166001600160a01b0316815260200190815260200160002060006101000a8154906001600160a01b03021916905561146485838151811061144c5761144c6122eb565b60200260200101516000611a1e90919063ffffffff16565b50848281518110611477576114776122eb565b60200260200101516001600160a01b03167fe826be1b7ceed778b8cb93dde171ee088cbddd7b16b9ebbe726a019988eb5fc060405160405180910390a25b50806114c081612349565b9150506111b3565b60006114d382611b70565b905060007f00000000000000000000000000000000000000000000000000000000000000006001600160a01b031663026b1d5f6040518163ffffffff1660e01b8152600401602060405180830381865afa158015611535573d6000803e3d6000fd5b505050506040513d601f19601f820116820180604052508101906115599190612497565b6040516328530a4760e01b81529091506001600160a01b038216906328530a47906115889085906004016126b1565b600060405180830381600087803b1580156115a257600080fd5b505af11580156115b6573d6000803e3d6000fd5b50505050505050565b6000806115cb83611b86565b9150915060007f00000000000000000000000000000000000000000000000000000000000000006001600160a01b031663026b1d5f6040518163ffffffff1660e01b8152600401602060405180830381865afa15801561162f573d6000803e3d6000fd5b505050506040513d601f19601f820116820180604052508101906116539190612497565b604051635a3b74b960e01b81529091506001600160a01b03821690635a3b74b99061168490869086906004016126bf565b600060405180830381600087803b15801561169e57600080fd5b505af11580156116b2573d6000803e3d6000fd5b5050505050505050565b60008060006116ca84611b9d565b9250925092507f00000000000000000000000000000000000000000000000000000000000000006001600160a01b031663236300dc848433856040518563ffffffff1660e01b815260040161172294939291906126da565b6020604051808303816000875af1158015611741573d6000803e3d6000fd5b505050506040513d601f19601f820116820180604052508101906111139190612312565b600061177082611bb6565b905060005b81518110156117c25761179382828151811061092f5761092f6122eb565b156117b05760405162461bcd60e51b815260040161053790612749565b806117ba81612349565b915050611775565b506104923382611bcc565b60008060006117db84611d3b565b825192955090935091506000816001600160401b038111156117ff576117ff6120cf565b604051908082528060200260200182016040528015611828578160200160208202803683370190505b50905060005b828110156118735730828281518110611849576118496122eb565b6001600160a01b03909216602092830291909101909101528061186b81612349565b91505061182e565b506040516301c7ba5760e61b81526001600160a01b037f000000000000000000000000000000000000000000000000000000000000000016906371ee95c0906118c6908490899089908990600401612809565b600060405180830381600087803b1580156118e057600080fd5b505af11580156118f4573d6000803e3d6000fd5b5050505060005b828110156115b65761193333868381518110611919576119196122eb565b6020026020010151888481518110610d6c57610d6c6122eb565b8061193d81612349565b9150506118fb565b60608060008380602001905181019061195e9190612980565b9250925092509193909250565b604051636eb1769f60e11b81526000906001600160a01b0385169063dd62ed3e9061199c90309087906004016129f9565b602060405180830381865afa1580156119b9573d6000803e3d6000fd5b505050506040513d601f19601f820116820180604052508101906119dd9190612312565b905081811015611a18578015611a0257611a026001600160a01b038516846000611d54565b611a186001600160a01b03851684600019611d54565b50505050565b8154600090815b81811015611b3d57836001600160a01b0316858281548110611a4957611a496122eb565b6000918252602090912001546001600160a01b031603611b2b57611a6e600183612a14565b811015611af05784611a81600184612a14565b81548110611a9157611a916122eb565b9060005260206000200160009054906101000a90046001600160a01b0316858281548110611ac157611ac16122eb565b9060005260206000200160006101000a8154816001600160a01b0302191690836001600160a01b031602179055505b84805480611b0057611b00612a27565b600082815260209020810160001990810180546001600160a01b031916905501905560019250611b3d565b80611b3581612349565b915050611a25565b505092915050565b610492838383611d5f565b60608082806020019051810190611b679190612a3d565b91509150915091565b6000818060200190518101906102f49190612ab7565b60008082806020019051810190611b679190612ad8565b60606000808380602001905181019061195e9190612b0b565b6060818060200190518101906102f49190612b59565b606081516001600160401b03811115611be757611be76120cf565b604051908082528060200260200182016040528015611c10578160200160208202803683370190505b50905060005b8251811015611d34576000838281518110611c3357611c336122eb565b60200260200101519050806001600160a01b03166370a08231306040518263ffffffff1660e01b8152600401611c69919061220b565b602060405180830381865afa158015611c86573d6000803e3d6000fd5b505050506040513d601f19601f82011682018060405250810190611caa9190612312565b838381518110611cbc57611cbc6122eb565b6020026020010181815250506000838381518110611cdc57611cdc6122eb565b60200260200101511115611d2157611d2185848481518110611d0057611d006122eb565b6020026020010151836001600160a01b0316611b459092919063ffffffff16565b5080611d2c81612349565b915050611c16565b5092915050565b60608060608380602001905181019061195e9190612c99565b610492838383611db5565b6104928363a9059cbb60e01b8484604051602401611d7e929190612d2c565b60408051601f198184030181529190526020810180516001600160e01b03166001600160e01b031990931692909217909152611e69565b801580611e2e5750604051636eb1769f60e11b81526001600160a01b0384169063dd62ed3e90611deb90309086906004016129f9565b602060405180830381865afa158015611e08573d6000803e3d6000fd5b505050506040513d601f19601f82011682018060405250810190611e2c9190612312565b155b611e4a5760405162461bcd60e51b815260040161053790612d9a565b6104928363095ea7b360e01b8484604051602401611d7e929190612d2c565b6000611ebe826040518060400160405280602081526020017f5361666545524332303a206c6f772d6c6576656c2063616c6c206661696c6564815250856001600160a01b0316611ef89092919063ffffffff16565b8051909150156104925780806020019051810190611edc9190612daa565b6104925760405162461bcd60e51b815260040161053790612e12565b6060611f078484600085611f11565b90505b9392505050565b606082471015611f335760405162461bcd60e51b815260040161053790612e65565b600080866001600160a01b03168587604051611f4f9190612e97565b60006040518083038185875af1925050503d8060008114611f8c576040519150601f19603f3d011682016040523d82523d6000602084013e611f91565b606091505b5091509150611fa287838387611faf565b925050505b949350505050565b60608315611fee578251600003611fe7576001600160a01b0385163b611fe75760405162461bcd60e51b815260040161053790612ea3565b5081611fa7565b611fa783838151156120035781518083602001fd5b8060405162461bcd60e51b81526004016105379190612f10565b60006001600160a01b0382166102f4565b60006102f48261201d565b60006102f48261202e565b61204d81612039565b82525050565b602081016102f48284612044565b61ffff811661204d565b602081016102f48284612061565b6120828161201d565b81146101a657600080fd5b80356102f481612079565b6000602082840312156120ad576120ad600080fd5b6000611fa7848461208d565b80151561204d565b602081016102f482846120b9565b634e487b7160e01b600052604160045260246000fd5b601f19601f83011681018181106001600160401b038211171561210a5761210a6120cf565b6040525050565b600061211c60405190565b905061212882826120e5565b919050565b60006001600160401b03821115612146576121466120cf565b601f19601f83011660200192915050565b82818337506000910152565b60006121766121718461212d565b612111565b90508281526020810184848401111561219157612191600080fd5b61219c848285612157565b509392505050565b600082601f8301126121b8576121b8600080fd5b8135611fa7848260208601612163565b6000602082840312156121dd576121dd600080fd5b81356001600160401b038111156121f6576121f6600080fd5b611fa7848285016121a4565b61204d8161201d565b602081016102f48284612202565b60006122258383612202565b505060200190565b6000612237825190565b80845260209384019383018060005b8381101561226b57815161225a8882612219565b975060208301925050600101612246565b509495945050505050565b8061204d565b60006122258383612276565b6000612292825190565b80845260209384019383018060005b8381101561226b5781516122b5888261227c565b9750602083019250506001016122a1565b604080825281016122d7818561222d565b90508181036020830152611f078184612288565b634e487b7160e01b600052603260045260246000fd5b80612082565b80516102f481612301565b60006020828403121561232757612327600080fd5b6000611fa78484612307565b634e487b7160e01b600052601160045260246000fd5b6000600019820361235c5761235c612333565b5060010190565b60005b8381101561237e578181015183820152602001612366565b50506000910152565b60006123956121718461212d565b9050828152602081018484840111156123b0576123b0600080fd5b61219c848285612363565b600082601f8301126123cf576123cf600080fd5b8151611fa7848260208601612387565b600080604083850312156123f5576123f5600080fd5b60006124018585612307565b92505060208301516001600160401b0381111561242057612420600080fd5b61242c858286016123bb565b9150509250929050565b602681526000602082017f7265636569766543616c6c46726f6d5661756c743a20496e76616c69642061638152651d1a5bdb925960d21b602082015291505b5060400190565b602080825281016102f481612436565b80516102f481612079565b6000602082840312156124ac576124ac600080fd5b6000611fa7848461248c565b608081016124c68287612202565b6124d36020830186612276565b6124e06040830185612202565b6124ed6060830184612061565b95945050505050565b603281526000602082017f5f5f72656d6f7665436f6c6c61746572616c4173736574733a20496e76616c69815271190818dbdb1b185d195c985b08185cdcd95d60721b60208201529150612475565b602080825281016102f4816124f6565b606081016125638286612202565b6125706020830185612276565b611fa76040830184612202565b60a0810161258b8288612202565b6125986020830187612276565b6125a56040830186612276565b6125b26060830185612061565b6125bf6080830184612202565b9695505050505050565b6000806000606084860312156125e1576125e1600080fd5b60006125ed868661248c565b93505060206125fe8682870161248c565b925050604061260f8682870161248c565b9150509250925092565b602d81526000602082017f5f5f7265706179426f72726f7765644173736574733a20496e76616c6964206281526c1bdc9c9bddd95908185cdcd95d609a1b60208201529150612475565b602080825281016102f481612619565b608081016126818287612202565b61268e6020830186612276565b61269b6040830185612276565b6124ed6060830184612202565b60ff811661204d565b602081016102f482846126a8565b604081016126cd8285612202565b611f0a60208301846120b9565b608080825281016126eb818761222d565b90506126fa6020830186612276565b61269b6040830185612202565b602581526000602082017f5f5f73776565703a20496e76616c69642061737365742c20697320636f6c6c618152641d195c985b60da1b60208201529150612475565b602080825281016102f481612707565b6000612763825190565b80845260209384019383018060005b8381101561226b578151612786888261227c565b975060208301925050600101612772565b6000611f0a8383612759565b60006127ad825190565b808452602084019350836020820285016127c78560200190565b8060005b858110156127fc57848403895281516127e48582612797565b94506020830160209a909a01999250506001016127cb565b5091979650505050505050565b6080808252810161281a818761222d565b9050818103602083015261282e818661222d565b905081810360408301526128428185612288565b905081810360608301526125bf81846127a3565b60006001600160401b0382111561286f5761286f6120cf565b5060209081020190565b600061288761217184612856565b838152905060208082019084028301858111156128a6576128a6600080fd5b835b818110156128ca57806128bb888261248c565b845250602092830192016128a8565b5050509392505050565b600082601f8301126128e8576128e8600080fd5b8151611fa7848260208601612879565b600061290661217184612856565b8381529050602080820190840283018581111561292557612925600080fd5b835b818110156128ca578061293a8882612307565b84525060209283019201612927565b600082601f83011261295d5761295d600080fd5b8151611fa78482602086016128f8565b801515612082565b80516102f48161296d565b60008060006060848603121561299857612998600080fd5b83516001600160401b038111156129b1576129b1600080fd5b6129bd868287016128d4565b93505060208401516001600160401b038111156129dc576129dc600080fd5b6129e886828701612949565b925050604061260f86828701612975565b60408101612a078285612202565b611f0a6020830184612202565b818103818111156102f4576102f4612333565b634e487b7160e01b600052603160045260246000fd5b60008060408385031215612a5357612a53600080fd5b82516001600160401b03811115612a6c57612a6c600080fd5b612a78858286016128d4565b92505060208301516001600160401b03811115612a9757612a97600080fd5b61242c85828601612949565b60ff8116612082565b80516102f481612aa3565b600060208284031215612acc57612acc600080fd5b6000611fa78484612aac565b60008060408385031215612aee57612aee600080fd5b6000612afa858561248c565b925050602061242c85828601612975565b600080600060608486031215612b2357612b23600080fd5b83516001600160401b03811115612b3c57612b3c600080fd5b612b48868287016128d4565b93505060206125fe86828701612307565b600060208284031215612b6e57612b6e600080fd5b81516001600160401b03811115612b8757612b87600080fd5b611fa7848285016128d4565b6000612ba161217184612856565b83815290506020808201908402830185811115612bc057612bc0600080fd5b835b818110156128ca5780612bd58882612307565b84525060209283019201612bc2565b600082601f830112612bf857612bf8600080fd5b8151611fa7848260208601612b93565b6000612c1661217184612856565b83815290506020808201908402830185811115612c3557612c35600080fd5b835b818110156128ca5780516001600160401b03811115612c5857612c58600080fd5b808601612c658982612be4565b8552505060209283019201612c37565b600082601f830112612c8957612c89600080fd5b8151611fa7848260208601612c08565b600080600060608486031215612cb157612cb1600080fd5b83516001600160401b03811115612cca57612cca600080fd5b612cd6868287016128d4565b93505060208401516001600160401b03811115612cf557612cf5600080fd5b612d0186828701612949565b92505060408401516001600160401b03811115612d2057612d20600080fd5b61260f86828701612c75565b60408101612d3a8285612202565b611f0a6020830184612276565b603681526000602082017f5361666545524332303a20617070726f76652066726f6d206e6f6e2d7a65726f81527520746f206e6f6e2d7a65726f20616c6c6f77616e636560501b60208201529150612475565b602080825281016102f481612d47565b600060208284031215612dbf57612dbf600080fd5b6000611fa78484612975565b602a81526000602082017f5361666545524332303a204552433230206f7065726174696f6e20646964206e8152691bdd081cdd58d8d9595960b21b60208201529150612475565b602080825281016102f481612dcb565b602681526000602082017f416464726573733a20696e73756666696369656e742062616c616e636520666f8152651c8818d85b1b60d21b60208201529150612475565b602080825281016102f481612e22565b6000612e7f825190565b612e8d818560208601612363565b9290920192915050565b6000611f0a8284612e75565b602080825281016102f481601d81527f416464726573733a2063616c6c20746f206e6f6e2d636f6e7472616374000000602082015260400190565b6000612ee8825190565b808452602084019350612eff818560208601612363565b601f01601f19169290920192915050565b60208082528101611f0a8184612ede56","linkReferences":{}},"methodIdentifiers":{"DATA_PROVIDER_CONTRACT()":"33a0599f","LENDING_POOL_ADDRESS_PROVIDER_CONTRACT()":"115a77c1","MERKL_DISTRIBUTOR()":"219461ed","REFERRAL_CODE()":"3583849a","REWARDS_CONTROLLER()":"cd086d45","assetIsBorrowed(address)":"44c72102","assetIsCollateral(address)":"4eeb4a16","getDebtAssets()":"ecd658b4","getDebtTokenForBorrowedAsset(address)":"66b4c5d1","getManagedAssets()":"80daddb8","init(bytes)":"4ddf47d4","receiveCallFromVault(bytes)":"e5c23a97"},"id":108}