{"abi":[{"type":"constructor","inputs":[{"name":"_addressListRegistry","type":"address","internalType":"address"},{"name":"_listDescription","type":"string","internalType":"string"},{"name":"_poolAddressProvider","type":"address","internalType":"address"}],"stateMutability":"nonpayable"},{"type":"function","name":"addValidatedItemsToList","inputs":[{"name":"_items","type":"address[]","internalType":"address[]"}],"outputs":[],"stateMutability":"nonpayable"}],"bytecode":{"object":"0x60e06040523480156200001157600080fd5b5060405162000e2e38038062000e2e83398101604081905262000034916200028f565b6001600160601b0319606084901b16608052828260006001600160a01b03831663be68406e3060018460405190808252806020026020018201604052801562000087578160200160208202803683370190505b506040518463ffffffff1660e01b8152600401620000a893929190620004fd565b602060405180830381600087803b158015620000c357600080fd5b505af1158015620000d8573d6000803e3d6000fd5b505050506040513d601f19601f82011682018060405250810190620000fe9190620002fb565b60a0819052604080516001808252818301909252919250606091906020808301908036833750506040805160018082528183019092529293506060929150602082015b60608152602001906001900390816200014157905050905082826000815181106200016857fe5b60200260200101818152505083816000815181106200018357fe5b6020908102919091010152604051635a137ca360e11b81526001600160a01b0386169063b426f94690620001be908590859060040162000539565b600060405180830381600087803b158015620001d957600080fd5b505af1158015620001ee573d6000803e3d6000fd5b505050505060609490941b6001600160601b03191660c052506200066b945050505050565b8051620002208162000649565b92915050565b600082601f8301126200023857600080fd5b81516200024f620002498262000589565b62000562565b915080825260208301602083018583830111156200026c57600080fd5b62000279838284620005fe565b50505092915050565b8051620002208162000660565b600080600060608486031215620002a557600080fd5b6000620002b3868662000213565b93505060208401516001600160401b03811115620002d057600080fd5b620002de8682870162000226565b9250506040620002f18682870162000213565b9150509250925092565b6000602082840312156200030e57600080fd5b60006200031c848462000282565b949350505050565b60006200033283836200035d565b505060200190565b6000620003488383620004b2565b9392505050565b6000620003328383620004f2565b6200036881620005c4565b82525050565b60006200037b82620005b7565b620003878185620005bb565b93506200039483620005b1565b8060005b83811015620003c8578151620003af888262000324565b9750620003bc83620005b1565b92505060010162000398565b509495945050505050565b6000620003e082620005b7565b620003ec8185620005bb565b9350836020820285016200040085620005b1565b8060005b858110156200044057848403895281516200042085826200033a565b94506200042d83620005b1565b60209a909a019992505060010162000404565b5091979650505050505050565b60006200045a82620005b7565b620004668185620005bb565b93506200047383620005b1565b8060005b83811015620003c85781516200048e88826200034f565b97506200049b83620005b1565b92505060010162000477565b6200036881620005f1565b6000620004bf82620005b7565b620004cb8185620005bb565b9350620004dd818560208601620005fe565b620004e88162000631565b9093019392505050565b6200036881620005ee565b606081016200050d82866200035d565b6200051c6020830185620004a7565b81810360408301526200053081846200036e565b95945050505050565b604080825281016200054c81856200044d565b905081810360208301526200031c8184620003d3565b6040518181016001600160401b03811182821017156200058157600080fd5b604052919050565b60006001600160401b03821115620005a057600080fd5b506020601f91909101601f19160190565b60200190565b5190565b90815260200190565b60006200022082620005e2565b80620005dd816200063b565b919050565b6001600160a01b031690565b90565b60006200022082620005d1565b60005b838110156200061b57818101518382015260200162000601565b838111156200062b576000848401525b50505050565b601f01601f191690565b600481106200064657fe5b50565b6200065481620005c4565b81146200064657600080fd5b6200065481620005ee565b60805160601c60a05160c05160601c6107936200069b6000398060f95250806093525080606652506107936000f3fe608060405234801561001057600080fd5b506004361061002b5760003560e01c8063a8f0bc4114610030575b600080fd5b61004361003e366004610559565b610045565b005b61004f82826100f5565b6040516346d1eb9b60e11b81526001600160a01b037f00000000000000000000000000000000000000000000000000000000000000001690638da3d736906100bf907f00000000000000000000000000000000000000000000000000000000000000009086908690600401610695565b600060405180830381600087803b1580156100d957600080fd5b505af11580156100ed573d6000803e3d6000fd5b505050505050565b60007f00000000000000000000000000000000000000000000000000000000000000006001600160a01b031663026b1d5f6040518163ffffffff1660e01b815260040160206040518083038186803b15801561015057600080fd5b505afa158015610164573d6000803e3d6000fd5b505050506040513d601f19601f82011682018060405250810190610188919061053b565b905060005b828110156102f05760008484838181106101a357fe5b90506020020160208101906101b89190610515565b9050826001600160a01b03166335ea6a75826001600160a01b031663b16a19de6040518163ffffffff1660e01b815260040160206040518083038186803b15801561020257600080fd5b505afa158015610216573d6000803e3d6000fd5b505050506040513d601f19601f8201168201806040525081019061023a919061053b565b6040518263ffffffff1660e01b81526004016102569190610677565b6101e060405180830381600087803b15801561027157600080fd5b505af1158015610285573d6000803e3d6000fd5b505050506040513d601f19601f820116820180604052508101906102a9919061059b565b61010001516001600160a01b0316816001600160a01b0316146102e75760405162461bcd60e51b81526004016102de90610685565b60405180910390fd5b5060010161018d565b50505050565b80356103018161074b565b92915050565b80516103018161074b565b60008083601f84011261032457600080fd5b50813567ffffffffffffffff81111561033c57600080fd5b60208301915083602082028301111561035457600080fd5b9250929050565b60006020828403121561036d57600080fd5b61037760206106bf565b9050600061038584846104ff565b82525092915050565b60006101e082840312156103a157600080fd5b6103ac6101e06106bf565b905060006103ba848461035b565b82525060206103cb848483016104e9565b60208301525060406103df848285016104e9565b60408301525060606103f3848285016104e9565b6060830152506080610407848285016104e9565b60808301525060a061041b848285016104e9565b60a08301525060c061042f8482850161050a565b60c08301525060e0610443848285016104f4565b60e08301525061010061045884828501610307565b6101008301525061012061046e84828501610307565b6101208301525061014061048484828501610307565b6101408301525061016061049a84828501610307565b610160830152506101806104b0848285016104e9565b610180830152506101a06104c6848285016104e9565b6101a0830152506101c06104dc848285016104e9565b6101c08301525092915050565b805161030181610762565b80516103018161076b565b805161030181610774565b80516103018161077d565b60006020828403121561052757600080fd5b600061053384846102f6565b949350505050565b60006020828403121561054d57600080fd5b60006105338484610307565b6000806020838503121561056c57600080fd5b823567ffffffffffffffff81111561058357600080fd5b61058f85828601610312565b92509250509250929050565b60006101e082840312156105ae57600080fd5b6000610533848461038e565b60006105c683836105ce565b505060200190565b6105d78161070e565b82525050565b60006105e983856106ef565b93506105f4826106e6565b8060005b8581101561062a5761060a82846106f8565b61061488826105ba565b975061061f836106e9565b9250506001016105f8565b509495945050505050565b6000610642601f836106ef565b7f5f5f76616c69646174654974656d733a20496e76616c69642061546f6b656e00815260200192915050565b6105d7816106e6565b6020810161030182846105ce565b6020808252810161030181610635565b604081016106a3828661066e565b81810360208301526106b68184866105dd565b95945050505050565b60405181810167ffffffffffffffff811182821017156106de57600080fd5b604052919050565b90565b60200190565b90815260200190565b600061070760208401846102f6565b9392505050565b600061030182610735565b6fffffffffffffffffffffffffffffffff1690565b61ffff1690565b6001600160a01b031690565b64ffffffffff1690565b6107548161070e565b811461075f57600080fd5b50565b61075481610719565b6107548161072e565b610754816106e6565b6107548161074156fea164736f6c634300060c000a","linkReferences":{}},"methodIdentifiers":{"addValidatedItemsToList(address[])":"a8f0bc41"},"id":56}