{"abi":[{"type":"constructor","inputs":[{"name":"_fundDeployer","type":"address","internalType":"address"},{"name":"_balancerVault","type":"address","internalType":"address"},{"name":"_poolFactories","type":"address[]","internalType":"address[]"}],"stateMutability":"nonpayable"},{"type":"function","name":"addPoolFactories","inputs":[{"name":"_poolFactories","type":"address[]","internalType":"address[]"}],"outputs":[],"stateMutability":"nonpayable"},{"type":"function","name":"addPools","inputs":[{"name":"_pools","type":"address[]","internalType":"address[]"},{"name":"_invariantProxyAssets","type":"address[]","internalType":"address[]"}],"outputs":[],"stateMutability":"nonpayable"},{"type":"function","name":"calcUnderlyingValues","inputs":[{"name":"_derivative","type":"address","internalType":"address"},{"name":"_derivativeAmount","type":"uint256","internalType":"uint256"}],"outputs":[{"name":"underlyings_","type":"address[]","internalType":"address[]"},{"name":"underlyingAmounts_","type":"uint256[]","internalType":"uint256[]"}],"stateMutability":"nonpayable"},{"type":"function","name":"getFundDeployer","inputs":[],"outputs":[{"name":"fundDeployer_","type":"address","internalType":"address"}],"stateMutability":"view"},{"type":"function","name":"getOwner","inputs":[],"outputs":[{"name":"owner_","type":"address","internalType":"address"}],"stateMutability":"view"},{"type":"function","name":"getPoolFactories","inputs":[],"outputs":[{"name":"factories_","type":"address[]","internalType":"address[]"}],"stateMutability":"view"},{"type":"function","name":"getPoolInfo","inputs":[{"name":"_pool","type":"address","internalType":"address"}],"outputs":[{"name":"poolInfo_","type":"tuple","internalType":"struct BalancerV2StablePoolPriceFeed.PoolInfo","components":[{"name":"invariantProxyAsset","type":"address","internalType":"address"},{"name":"invariantProxyAssetDecimals","type":"uint8","internalType":"uint8"}]}],"stateMutability":"view"},{"type":"function","name":"isSupportedAsset","inputs":[{"name":"_asset","type":"address","internalType":"address"}],"outputs":[{"name":"isSupported_","type":"bool","internalType":"bool"}],"stateMutability":"view"},{"type":"function","name":"removePoolFactories","inputs":[{"name":"_poolFactories","type":"address[]","internalType":"address[]"}],"outputs":[],"stateMutability":"nonpayable"},{"type":"function","name":"removePools","inputs":[{"name":"_pools","type":"address[]","internalType":"address[]"}],"outputs":[],"stateMutability":"nonpayable"},{"type":"event","name":"PoolAdded","inputs":[{"name":"pool","type":"address","indexed":true,"internalType":"address"},{"name":"invariantProxyAsset","type":"address","indexed":true,"internalType":"address"}],"anonymous":false},{"type":"event","name":"PoolFactoryAdded","inputs":[{"name":"poolFactory","type":"address","indexed":true,"internalType":"address"}],"anonymous":false},{"type":"event","name":"PoolFactoryRemoved","inputs":[{"name":"poolFactory","type":"address","indexed":true,"internalType":"address"}],"anonymous":false},{"type":"event","name":"PoolRemoved","inputs":[{"name":"pool","type":"address","indexed":true,"internalType":"address"}],"anonymous":false}],"bytecode":{"object":"0x60c06040523480156200001157600080fd5b50604051620016fb380380620016fb83398101604081905262000034916200023c565b6001600160601b0319606084811b821660805283901b1660a052620000598162000062565b5050506200031c565b60005b815181101562000143576200009e8282815181106200008057fe5b602002602001015160006200014760201b62000a021790919060201c565b6200013a576000828281518110620000b257fe5b60209081029190910181015182546001810184556000938452919092200180546001600160a01b0319166001600160a01b039092169190911790558151829082908110620000fc57fe5b60200260200101516001600160a01b03167fed48b5354ebc9ec871d70260374c2cdc552ec57a6b36e1dbc1fbdbe0921c136f60405160405180910390a25b60010162000065565b5050565b8154600090815b8181101562000199578481815481106200016457fe5b6000918252602090912001546001600160a01b03858116911614156200019057600192505050620001a0565b6001016200014e565b5060009150505b92915050565b8051620001a08162000302565b600082601f830112620001c557600080fd5b8151620001dc620001d682620002cf565b620002a8565b915081818352602084019350602081019050838560208402820111156200020257600080fd5b60005b838110156200023257816200021b8882620001a6565b845250602092830192919091019060010162000205565b5050505092915050565b6000806000606084860312156200025257600080fd5b6000620002608686620001a6565b93505060206200027386828701620001a6565b92505060408401516001600160401b038111156200029057600080fd5b6200029e86828701620001b3565b9150509250925092565b6040518181016001600160401b0381118282101715620002c757600080fd5b604052919050565b60006001600160401b03821115620002e657600080fd5b5060209081020190565b60006001600160a01b038216620001a0565b6200030d81620002f0565b81146200031957600080fd5b50565b60805160601c60a05160601c6113b06200034b600039806103dd5250806105b1528061064752506113b06000f3fe608060405234801561001057600080fd5b506004361061009e5760003560e01c8063893d20e811610066578063893d20e81461012a57806397c0ac871461013f5780639be918e614610147578063c10e7d1514610167578063ec421ea01461017a5761009e565b806306bfa938146100a357806327082f73146100cc5780634b164140146100e15780634c8f6529146100f6578063727212f614610109575b600080fd5b6100b66100b1366004610dfa565b61018d565b6040516100c3919061131a565b60405180910390f35b6100d46101d9565b6040516100c39190611276565b6100f46100ef366004610e78565b61023b565b005b6100f4610104366004610e78565b610360565b61011c610117366004610e3e565b6103d8565b6040516100c3929190611287565b6101326105ad565b6040516100c39190611240565b610132610645565b61015a610155366004610dfa565b610669565b6040516100c391906112ac565b6100f4610175366004610eba565b610687565b6100f4610188366004610e78565b61092f565b610195610d5f565b506001600160a01b038181166000908152600160209081526040918290208251808401909352549283168252600160a01b90920460ff16918101919091525b919050565b6060600080548060200260200160405190810160405280929190818152602001828054801561023157602002820191906000526020600020905b81546001600160a01b03168152600190910190602001808311610213575b5050505050905090565b6102436105ad565b6001600160a01b0316336001600160a01b03161461027c5760405162461bcd60e51b8152600401610273906112ca565b60405180910390fd5b60005b8181101561035b576102ab83838381811061029657fe5b90506020020160208101906101559190610dfa565b1561035357600160008484848181106102c057fe5b90506020020160208101906102d59190610dfa565b6001600160a01b03168152602081019190915260400160002080546001600160a81b031916905582828281811061030857fe5b905060200201602081019061031d9190610dfa565b6001600160a01b03167f4106dfdaa577573db51c0ca93f766dbedfa0758faa2e7f5bcdb7c142be803c3f60405160405180910390a25b60010161027f565b505050565b6103686105ad565b6001600160a01b0316336001600160a01b0316146103985760405162461bcd60e51b8152600401610273906112ca565b6103d4828280806020026020016040519081016040528093929190818152602001838360200280828437600092019190915250610a5c92505050565b5050565b6060807f00000000000000000000000000000000000000000000000000000000000000006001600160a01b031663fa6e671d306000806040518463ffffffff1660e01b815260040161042c9392919061124e565b600060405180830381600087803b15801561044657600080fd5b505af115801561045a573d6000803e3d6000fd5b50505050610466610d5f565b61046f8561018d565b6040805160018082528183019092529192506020808301908036833750506040805160018082528183019092529295509050602080830190803683370190505091508060000151836000815181106104c357fe5b60200260200101906001600160a01b031690816001600160a01b03168152505061058b6ec097ce7bc90715b34b9f1000000000610585836020015160ff16600a0a61057f896001600160a01b031663679aefce6040518163ffffffff1660e01b815260040160206040518083038186803b15801561054057600080fd5b505afa158015610554573d6000803e3d6000fd5b505050506040513d601f19601f820116820180604052508101906105789190610f48565b8990610b30565b90610b30565b90610b71565b8260008151811061059857fe5b602002602001018181525050505b9250929050565b60007f00000000000000000000000000000000000000000000000000000000000000006001600160a01b031663893d20e86040518163ffffffff1660e01b815260040160206040518083038186803b15801561060857600080fd5b505afa15801561061c573d6000803e3d6000fd5b505050506040513d601f19601f820116820180604052508101906106409190610e20565b905090565b7f000000000000000000000000000000000000000000000000000000000000000090565b6000806106758361018d565b516001600160a01b0316141592915050565b61068f6105ad565b6001600160a01b0316336001600160a01b0316146106bf5760405162461bcd60e51b8152600401610273906112ca565b8281146106de5760405162461bcd60e51b8152600401610273906112da565b60005b83811015610928576106f885858381811061029657fe5b156107155760405162461bcd60e51b81526004016102739061130a565b61073e85858381811061072457fe5b90506020020160208101906107399190610dfa565b610ba3565b61075a5760405162461bcd60e51b8152600401610273906112ba565b604051806040016040528084848481811061077157fe5b90506020020160208101906107869190610dfa565b6001600160a01b031681526020018484848181106107a057fe5b90506020020160208101906107b59190610dfa565b6001600160a01b031663313ce5676040518163ffffffff1660e01b815260040160206040518083038186803b1580156107ed57600080fd5b505afa158015610801573d6000803e3d6000fd5b505050506040513d601f19601f820116820180604052508101906108259190610f66565b60ff1690526001600087878581811061083a57fe5b905060200201602081019061084f9190610dfa565b6001600160a01b039081168252602080830193909352604090910160002083518154949093015160ff16600160a01b0260ff60a01b19939092166001600160a01b031990941693909317919091161790558282828181106108ac57fe5b90506020020160208101906108c19190610dfa565b6001600160a01b03168585838181106108d657fe5b90506020020160208101906108eb9190610dfa565b6001600160a01b03167f95f865c2808f8b2a85eea2611db7843150ee7835ef1403f9755918a97d76933c60405160405180910390a36001016106e1565b5050505050565b6109376105ad565b6001600160a01b0316336001600160a01b0316146109675760405162461bcd60e51b8152600401610273906112ca565b60005b8181101561035b5761099e83838381811061098157fe5b90506020020160208101906109969190610dfa565b600090610c67565b156109fa578282828181106109af57fe5b90506020020160208101906109c49190610dfa565b6001600160a01b03167faf425cea5645b25ac2f49fdb1a46bf13689e763057f4e556078fea1cc2ecfb9b60405160405180910390a25b60010161096a565b8154600090815b81811015610a4f57848181548110610a1d57fe5b6000918252602090912001546001600160a01b0385811691161415610a4757600192505050610a56565b600101610a09565b5060009150505b92915050565b60005b81518110156103d457610a8f828281518110610a7757fe5b60200260200101516000610a0290919063ffffffff16565b610b28576000828281518110610aa157fe5b60209081029190910181015182546001810184556000938452919092200180546001600160a01b0319166001600160a01b039092169190911790558151829082908110610aea57fe5b60200260200101516001600160a01b03167fed48b5354ebc9ec871d70260374c2cdc552ec57a6b36e1dbc1fbdbe0921c136f60405160405180910390a25b600101610a5f565b600082610b3f57506000610a56565b82820282848281610b4c57fe5b0414610b6a5760405162461bcd60e51b8152600401610273906112fa565b9392505050565b6000808211610b925760405162461bcd60e51b8152600401610273906112ea565b818381610b9b57fe5b049392505050565b6000805b600054811015610c5e5760008181548110610bbe57fe5b600091825260209091200154604051636634b75360e01b81526001600160a01b0390911690636634b75390610bf7908690600401611240565b60206040518083038186803b158015610c0f57600080fd5b505afa158015610c23573d6000803e3d6000fd5b505050506040513d601f19601f82011682018060405250810190610c479190610f2a565b15610c565760019150506101d4565b600101610ba7565b50600092915050565b8154600090815b81811015610d5757836001600160a01b0316858281548110610c8c57fe5b6000918252602090912001546001600160a01b03161415610d4f5760018203811015610d1a57846001830381548110610cc157fe5b9060005260206000200160009054906101000a90046001600160a01b0316858281548110610ceb57fe5b9060005260206000200160006101000a8154816001600160a01b0302191690836001600160a01b031602179055505b84805480610d2457fe5b600082815260209020810160001990810180546001600160a01b031916905501905560019250610d57565b600101610c6e565b505092915050565b604080518082019091526000808252602082015290565b8035610a5681611371565b8051610a5681611371565b60008083601f840112610d9e57600080fd5b50813567ffffffffffffffff811115610db657600080fd5b6020830191508360208202830111156105a657600080fd5b8051610a5681611388565b8035610a5681611391565b8051610a5681611391565b8051610a568161139a565b600060208284031215610e0c57600080fd5b6000610e188484610d76565b949350505050565b600060208284031215610e3257600080fd5b6000610e188484610d81565b60008060408385031215610e5157600080fd5b6000610e5d8585610d76565b9250506020610e6e85828601610dd9565b9150509250929050565b60008060208385031215610e8b57600080fd5b823567ffffffffffffffff811115610ea257600080fd5b610eae85828601610d8c565b92509250509250929050565b60008060008060408587031215610ed057600080fd5b843567ffffffffffffffff811115610ee757600080fd5b610ef387828801610d8c565b9450945050602085013567ffffffffffffffff811115610f1257600080fd5b610f1e87828801610d8c565b95989497509550505050565b600060208284031215610f3c57600080fd5b6000610e188484610dce565b600060208284031215610f5a57600080fd5b6000610e188484610de4565b600060208284031215610f7857600080fd5b6000610e188484610def565b6000610f908383610fb3565b505060200190565b6000610f90838361122e565b610fad81611360565b82525050565b610fad8161133b565b6000610fc78261132e565b610fd18185611332565b9350610fdc83611328565b8060005b8381101561100a578151610ff48882610f84565b9750610fff83611328565b925050600101610fe0565b509495945050505050565b60006110208261132e565b61102a8185611332565b935061103583611328565b8060005b8381101561100a57815161104d8882610f98565b975061105883611328565b925050600101611039565b610fad81611346565b6000611079601983611332565b7f616464506f6f6c733a20496e76616c696420666163746f727900000000000000815260200192915050565b60006110b2604983611332565b7f6f6e6c7946756e644465706c6f7965724f776e65723a204f6e6c79207468652081527f46756e644465706c6f796572206f776e65722063616e2063616c6c207468697360208201526810333ab731ba34b7b760b91b604082015260600192915050565b6000611123601883611332565b7f616464506f6f6c733a20556e657175616c206172726179730000000000000000815260200192915050565b600061115c601a83611332565b7f536166654d6174683a206469766973696f6e206279207a65726f000000000000815260200192915050565b6000611195602183611332565b7f536166654d6174683a206d756c7469706c69636174696f6e206f766572666c6f8152607760f81b602082015260400192915050565b60006111d8601c83611332565b7f616464506f6f6c733a20416c7265616479207265676973746572656400000000815260200192915050565b805160408301906112158482610fb3565b5060208201516112286020850182611237565b50505050565b610fad81611357565b610fad8161135a565b60208101610a568284610fb3565b6060810161125c8286610fb3565b6112696020830185610fa4565b610e186040830184611063565b60208082528101610b6a8184610fbc565b604080825281016112988185610fbc565b90508181036020830152610e188184611015565b60208101610a568284611063565b60208082528101610a568161106c565b60208082528101610a56816110a5565b60208082528101610a5681611116565b60208082528101610a568161114f565b60208082528101610a5681611188565b60208082528101610a56816111cb565b60408101610a568284611204565b60200190565b5190565b90815260200190565b6000610a568261134b565b151590565b6001600160a01b031690565b90565b60ff1690565b6000610a56826000610a568261133b565b61137a8161133b565b811461138557600080fd5b50565b61137a81611346565b61137a81611357565b61137a8161135a56fea164736f6c634300060c000a","linkReferences":{}},"methodIdentifiers":{"addPoolFactories(address[])":"4c8f6529","addPools(address[],address[])":"c10e7d15","calcUnderlyingValues(address,uint256)":"727212f6","getFundDeployer()":"97c0ac87","getOwner()":"893d20e8","getPoolFactories()":"27082f73","getPoolInfo(address)":"06bfa938","isSupportedAsset(address)":"9be918e6","removePoolFactories(address[])":"ec421ea0","removePools(address[])":"4b164140"},"id":284}