{"abi":[{"type":"constructor","inputs":[{"name":"_fundDeployer","type":"address","internalType":"address"},{"name":"_balancerVault","type":"address","internalType":"address"},{"name":"_poolFactories","type":"address[]","internalType":"address[]"}],"stateMutability":"nonpayable"},{"type":"function","name":"addPoolFactories","inputs":[{"name":"_poolFactories","type":"address[]","internalType":"address[]"}],"outputs":[],"stateMutability":"nonpayable"},{"type":"function","name":"addPools","inputs":[{"name":"_pools","type":"address[]","internalType":"address[]"},{"name":"_invariantProxyAssets","type":"address[]","internalType":"address[]"}],"outputs":[],"stateMutability":"nonpayable"},{"type":"function","name":"calcUnderlyingValues","inputs":[{"name":"_derivative","type":"address","internalType":"address"},{"name":"_derivativeAmount","type":"uint256","internalType":"uint256"}],"outputs":[{"name":"underlyings_","type":"address[]","internalType":"address[]"},{"name":"underlyingAmounts_","type":"uint256[]","internalType":"uint256[]"}],"stateMutability":"nonpayable"},{"type":"function","name":"getFundDeployer","inputs":[],"outputs":[{"name":"fundDeployer_","type":"address","internalType":"address"}],"stateMutability":"view"},{"type":"function","name":"getOwner","inputs":[],"outputs":[{"name":"owner_","type":"address","internalType":"address"}],"stateMutability":"view"},{"type":"function","name":"getPoolFactories","inputs":[],"outputs":[{"name":"factories_","type":"address[]","internalType":"address[]"}],"stateMutability":"view"},{"type":"function","name":"getPoolInfo","inputs":[{"name":"_pool","type":"address","internalType":"address"}],"outputs":[{"name":"poolInfo_","type":"tuple","internalType":"struct BalancerV2StablePoolPriceFeed.PoolInfo","components":[{"name":"invariantProxyAsset","type":"address","internalType":"address"},{"name":"invariantProxyAssetDecimals","type":"uint8","internalType":"uint8"}]}],"stateMutability":"view"},{"type":"function","name":"isSupportedAsset","inputs":[{"name":"_asset","type":"address","internalType":"address"}],"outputs":[{"name":"isSupported_","type":"bool","internalType":"bool"}],"stateMutability":"view"},{"type":"function","name":"removePoolFactories","inputs":[{"name":"_poolFactories","type":"address[]","internalType":"address[]"}],"outputs":[],"stateMutability":"nonpayable"},{"type":"function","name":"removePools","inputs":[{"name":"_pools","type":"address[]","internalType":"address[]"}],"outputs":[],"stateMutability":"nonpayable"},{"type":"event","name":"PoolAdded","inputs":[{"name":"pool","type":"address","indexed":true,"internalType":"address"},{"name":"invariantProxyAsset","type":"address","indexed":true,"internalType":"address"}],"anonymous":false},{"type":"event","name":"PoolFactoryAdded","inputs":[{"name":"poolFactory","type":"address","indexed":true,"internalType":"address"}],"anonymous":false},{"type":"event","name":"PoolFactoryRemoved","inputs":[{"name":"poolFactory","type":"address","indexed":true,"internalType":"address"}],"anonymous":false},{"type":"event","name":"PoolRemoved","inputs":[{"name":"pool","type":"address","indexed":true,"internalType":"address"}],"anonymous":false}],"bytecode":{"object":"0x60c06040523480156200001157600080fd5b506040516200213338038062002133833981810160405281019062000037919062000330565b828073ffffffffffffffffffffffffffffffffffffffff1660808173ffffffffffffffffffffffffffffffffffffffff1660601b81525050508173ffffffffffffffffffffffffffffffffffffffff1660a08173ffffffffffffffffffffffffffffffffffffffff1660601b81525050620000b881620000c160201b60201c565b50505062000444565b60005b8151811015620001df57620000fd828281518110620000df57fe5b60200260200101516000620001e360201b62000e961790919060201c565b620001d15760008282815181106200011157fe5b60200260200101519080600181540180825580915050600190039060005260206000200160009091909190916101000a81548173ffffffffffffffffffffffffffffffffffffffff021916908373ffffffffffffffffffffffffffffffffffffffff1602179055508181815181106200018657fe5b602002602001015173ffffffffffffffffffffffffffffffffffffffff167fed48b5354ebc9ec871d70260374c2cdc552ec57a6b36e1dbc1fbdbe0921c136f60405160405180910390a25b8080600101915050620000c4565b5050565b6000808380549050905060005b818110156200027f578481815481106200020657fe5b9060005260206000200160009054906101000a900473ffffffffffffffffffffffffffffffffffffffff1673ffffffffffffffffffffffffffffffffffffffff168473ffffffffffffffffffffffffffffffffffffffff161415620002715760019250505062000286565b8080600101915050620001f0565b5060009150505b92915050565b6000815190506200029d816200042a565b92915050565b600082601f830112620002b557600080fd5b8151620002cc620002c682620003cd565b6200039f565b91508181835260208401935060208101905083856020840282011115620002f257600080fd5b60005b838110156200032657816200030b88826200028c565b845260208401935060208301925050600181019050620002f5565b5050505092915050565b6000806000606084860312156200034657600080fd5b600062000356868287016200028c565b935050602062000369868287016200028c565b925050604084015167ffffffffffffffff8111156200038757600080fd5b6200039586828701620002a3565b9150509250925092565b6000604051905081810181811067ffffffffffffffff82111715620003c357600080fd5b8060405250919050565b600067ffffffffffffffff821115620003e557600080fd5b602082029050602081019050919050565b600062000403826200040a565b9050919050565b600073ffffffffffffffffffffffffffffffffffffffff82169050919050565b6200043581620003f6565b81146200044157600080fd5b50565b60805160601c60a05160601c611cc062000473600039806105e452508061085752806108fc5250611cc06000f3fe608060405234801561001057600080fd5b506004361061009e5760003560e01c8063893d20e811610066578063893d20e81461015a57806397c0ac87146101785780639be918e614610196578063c10e7d15146101c6578063ec421ea0146101e25761009e565b806306bfa938146100a357806327082f73146100d35780634b164140146100f15780634c8f65291461010d578063727212f614610129575b600080fd5b6100bd60048036038101906100b8919061147e565b6101fe565b6040516100ca9190611b2e565b60405180910390f35b6100db6102ca565b6040516100e891906119fa565b60405180910390f35b61010b6004803603810190610106919061150c565b610358565b005b6101276004803603810190610122919061150c565b61051c565b005b610143600480360381019061013e91906114d0565b6105df565b604051610151929190611a1c565b60405180910390f35b610162610853565b60405161016f91906119a8565b60405180910390f35b6101806108f8565b60405161018d91906119a8565b60405180910390f35b6101b060048036038101906101ab919061147e565b610920565b6040516101bd9190611a53565b60405180910390f35b6101e060048036038101906101db9190611551565b610965565b005b6101fc60048036038101906101f7919061150c565b610d64565b005b610206611383565b600160008373ffffffffffffffffffffffffffffffffffffffff1673ffffffffffffffffffffffffffffffffffffffff1681526020019081526020016000206040518060400160405290816000820160009054906101000a900473ffffffffffffffffffffffffffffffffffffffff1673ffffffffffffffffffffffffffffffffffffffff1673ffffffffffffffffffffffffffffffffffffffff1681526020016000820160149054906101000a900460ff1660ff1660ff16815250509050919050565b6060600080548060200260200160405190810160405280929190818152602001828054801561034e57602002820191906000526020600020905b8160009054906101000a900473ffffffffffffffffffffffffffffffffffffffff1673ffffffffffffffffffffffffffffffffffffffff1681526020019060010190808311610304575b5050505050905090565b610360610853565b73ffffffffffffffffffffffffffffffffffffffff163373ffffffffffffffffffffffffffffffffffffffff16146103cd576040517f08c379a00000000000000000000000000000000000000000000000000000000081526004016103c490611a8e565b60405180910390fd5b60005b82829050811015610517576104048383838181106103ea57fe5b90506020020160208101906103ff919061147e565b610920565b1561050a576001600084848481811061041957fe5b905060200201602081019061042e919061147e565b73ffffffffffffffffffffffffffffffffffffffff1673ffffffffffffffffffffffffffffffffffffffff168152602001908152602001600020600080820160006101000a81549073ffffffffffffffffffffffffffffffffffffffff02191690556000820160146101000a81549060ff021916905550508282828181106104b257fe5b90506020020160208101906104c7919061147e565b73ffffffffffffffffffffffffffffffffffffffff167f4106dfdaa577573db51c0ca93f766dbedfa0758faa2e7f5bcdb7c142be803c3f60405160405180910390a25b80806001019150506103d0565b505050565b610524610853565b73ffffffffffffffffffffffffffffffffffffffff163373ffffffffffffffffffffffffffffffffffffffff1614610591576040517f08c379a000000000000000000000000000000000000000000000000000000000815260040161058890611a8e565b60405180910390fd5b6105db828280806020026020016040519081016040528093929190818152602001838360200280828437600081840152601f19601f82011690508083019250505050505050610f3a565b5050565b6060807f000000000000000000000000000000000000000000000000000000000000000073ffffffffffffffffffffffffffffffffffffffff1663fa6e671d306000806040518463ffffffff1660e01b8152600401610640939291906119c3565b600060405180830381600087803b15801561065a57600080fd5b505af115801561066e573d6000803e3d6000fd5b5050505061067a611383565b610683856101fe565b9050600167ffffffffffffffff8111801561069d57600080fd5b506040519080825280602002602001820160405280156106cc5781602001602082028036833780820191505090505b509250600167ffffffffffffffff811180156106e757600080fd5b506040519080825280602002602001820160405280156107165781602001602082028036833780820191505090505b50915080600001518360008151811061072b57fe5b602002602001019073ffffffffffffffffffffffffffffffffffffffff16908173ffffffffffffffffffffffffffffffffffffffff16815250506108326ec097ce7bc90715b34b9f1000000000610824836020015160ff16600a0a6108168973ffffffffffffffffffffffffffffffffffffffff1663679aefce6040518163ffffffff1660e01b815260040160206040518083038186803b1580156107cf57600080fd5b505afa1580156107e3573d6000803e3d6000fd5b505050506040513d601f19601f8201168201806040525081019061080791906115ef565b8961104f90919063ffffffff16565b61104f90919063ffffffff16565b6110bf90919063ffffffff16565b8260008151811061083f57fe5b602002602001018181525050509250929050565b60007f000000000000000000000000000000000000000000000000000000000000000073ffffffffffffffffffffffffffffffffffffffff1663893d20e86040518163ffffffff1660e01b815260040160206040518083038186803b1580156108bb57600080fd5b505afa1580156108cf573d6000803e3d6000fd5b505050506040513d601f19601f820116820180604052508101906108f391906114a7565b905090565b60007f0000000000000000000000000000000000000000000000000000000000000000905090565b60008073ffffffffffffffffffffffffffffffffffffffff16610942836101fe565b6000015173ffffffffffffffffffffffffffffffffffffffff1614159050919050565b61096d610853565b73ffffffffffffffffffffffffffffffffffffffff163373ffffffffffffffffffffffffffffffffffffffff16146109da576040517f08c379a00000000000000000000000000000000000000000000000000000000081526004016109d190611a8e565b60405180910390fd5b818190508484905014610a22576040517f08c379a0000000000000000000000000000000000000000000000000000000008152600401610a1990611aae565b60405180910390fd5b60005b84849050811015610d5d57610a59858583818110610a3f57fe5b9050602002016020810190610a54919061147e565b610920565b15610a99576040517f08c379a0000000000000000000000000000000000000000000000000000000008152600401610a9090611b0e565b60405180910390fd5b610ac2858583818110610aa857fe5b9050602002016020810190610abd919061147e565b611115565b610b01576040517f08c379a0000000000000000000000000000000000000000000000000000000008152600401610af890611a6e565b60405180910390fd5b6040518060400160405280848484818110610b1857fe5b9050602002016020810190610b2d919061147e565b73ffffffffffffffffffffffffffffffffffffffff168152602001848484818110610b5457fe5b9050602002016020810190610b69919061147e565b73ffffffffffffffffffffffffffffffffffffffff1663313ce5676040518163ffffffff1660e01b815260040160206040518083038186803b158015610bae57600080fd5b505afa158015610bc2573d6000803e3d6000fd5b505050506040513d601f19601f82011682018060405250810190610be69190611618565b60ff1681525060016000878785818110610bfc57fe5b9050602002016020810190610c11919061147e565b73ffffffffffffffffffffffffffffffffffffffff1673ffffffffffffffffffffffffffffffffffffffff16815260200190815260200160002060008201518160000160006101000a81548173ffffffffffffffffffffffffffffffffffffffff021916908373ffffffffffffffffffffffffffffffffffffffff16021790555060208201518160000160146101000a81548160ff021916908360ff160217905550905050828282818110610cc257fe5b9050602002016020810190610cd7919061147e565b73ffffffffffffffffffffffffffffffffffffffff16858583818110610cf957fe5b9050602002016020810190610d0e919061147e565b73ffffffffffffffffffffffffffffffffffffffff167f95f865c2808f8b2a85eea2611db7843150ee7835ef1403f9755918a97d76933c60405160405180910390a38080600101915050610a25565b5050505050565b610d6c610853565b73ffffffffffffffffffffffffffffffffffffffff163373ffffffffffffffffffffffffffffffffffffffff1614610dd9576040517f08c379a0000000000000000000000000000000000000000000000000000000008152600401610dd090611a8e565b60405180910390fd5b60005b82829050811015610e9157610e1b838383818110610df657fe5b9050602002016020810190610e0b919061147e565b600061120d90919063ffffffff16565b15610e8457828282818110610e2c57fe5b9050602002016020810190610e41919061147e565b73ffffffffffffffffffffffffffffffffffffffff167faf425cea5645b25ac2f49fdb1a46bf13689e763057f4e556078fea1cc2ecfb9b60405160405180910390a25b8080600101915050610ddc565b505050565b6000808380549050905060005b81811015610f2d57848181548110610eb757fe5b9060005260206000200160009054906101000a900473ffffffffffffffffffffffffffffffffffffffff1673ffffffffffffffffffffffffffffffffffffffff168473ffffffffffffffffffffffffffffffffffffffff161415610f2057600192505050610f34565b8080600101915050610ea3565b5060009150505b92915050565b60005b815181101561104b57610f6d828281518110610f5557fe5b60200260200101516000610e9690919063ffffffff16565b61103e576000828281518110610f7f57fe5b60200260200101519080600181540180825580915050600190039060005260206000200160009091909190916101000a81548173ffffffffffffffffffffffffffffffffffffffff021916908373ffffffffffffffffffffffffffffffffffffffff160217905550818181518110610ff357fe5b602002602001015173ffffffffffffffffffffffffffffffffffffffff167fed48b5354ebc9ec871d70260374c2cdc552ec57a6b36e1dbc1fbdbe0921c136f60405160405180910390a25b8080600101915050610f3d565b5050565b60008083141561106257600090506110b9565b600082840290508284828161107357fe5b04146110b4576040517f08c379a00000000000000000000000000000000000000000000000000000000081526004016110ab90611aee565b60405180910390fd5b809150505b92915050565b6000808211611103576040517f08c379a00000000000000000000000000000000000000000000000000000000081526004016110fa90611ace565b60405180910390fd5b81838161110c57fe5b04905092915050565b6000805b600080549050811015611202576000818154811061113357fe5b9060005260206000200160009054906101000a900473ffffffffffffffffffffffffffffffffffffffff1673ffffffffffffffffffffffffffffffffffffffff16636634b753846040518263ffffffff1660e01b815260040161119691906119a8565b60206040518083038186803b1580156111ae57600080fd5b505afa1580156111c2573d6000803e3d6000fd5b505050506040513d601f19601f820116820180604052508101906111e691906115c6565b156111f5576001915050611208565b8080600101915050611119565b50600090505b919050565b6000808380549050905060005b8181101561137b578373ffffffffffffffffffffffffffffffffffffffff1685828154811061124557fe5b9060005260206000200160009054906101000a900473ffffffffffffffffffffffffffffffffffffffff1673ffffffffffffffffffffffffffffffffffffffff16141561136e5760018203811015611326578460018303815481106112a657fe5b9060005260206000200160009054906101000a900473ffffffffffffffffffffffffffffffffffffffff168582815481106112dd57fe5b9060005260206000200160006101000a81548173ffffffffffffffffffffffffffffffffffffffff021916908373ffffffffffffffffffffffffffffffffffffffff1602179055505b8480548061133057fe5b6001900381819060005260206000200160006101000a81549073ffffffffffffffffffffffffffffffffffffffff021916905590556001925061137b565b808060010191505061121a565b505092915050565b6040518060400160405280600073ffffffffffffffffffffffffffffffffffffffff168152602001600060ff1681525090565b6000813590506113c581611c57565b92915050565b6000815190506113da81611c57565b92915050565b60008083601f8401126113f257600080fd5b8235905067ffffffffffffffff81111561140b57600080fd5b60208301915083602082028301111561142357600080fd5b9250929050565b60008151905061143981611c6e565b92915050565b60008135905061144e81611c85565b92915050565b60008151905061146381611c85565b92915050565b60008151905061147881611c9c565b92915050565b60006020828403121561149057600080fd5b600061149e848285016113b6565b91505092915050565b6000602082840312156114b957600080fd5b60006114c7848285016113cb565b91505092915050565b600080604083850312156114e357600080fd5b60006114f1858286016113b6565b92505060206115028582860161143f565b9150509250929050565b6000806020838503121561151f57600080fd5b600083013567ffffffffffffffff81111561153957600080fd5b611545858286016113e0565b92509250509250929050565b6000806000806040858703121561156757600080fd5b600085013567ffffffffffffffff81111561158157600080fd5b61158d878288016113e0565b9450945050602085013567ffffffffffffffff8111156115ac57600080fd5b6115b8878288016113e0565b925092505092959194509250565b6000602082840312156115d857600080fd5b60006115e68482850161142a565b91505092915050565b60006020828403121561160157600080fd5b600061160f84828501611454565b91505092915050565b60006020828403121561162a57600080fd5b600061163884828501611469565b91505092915050565b600061164d8383611680565b60208301905092915050565b6000611665838361198a565b60208301905092915050565b61167a81611c21565b82525050565b61168981611bcc565b82525050565b61169881611bcc565b82525050565b60006116a982611b69565b6116b38185611b99565b93506116be83611b49565b8060005b838110156116ef5781516116d68882611641565b97506116e183611b7f565b9250506001810190506116c2565b5085935050505092915050565b600061170782611b74565b6117118185611baa565b935061171c83611b59565b8060005b8381101561174d5781516117348882611659565b975061173f83611b8c565b925050600181019050611720565b5085935050505092915050565b61176381611bde565b82525050565b6000611776601983611bbb565b91507f616464506f6f6c733a20496e76616c696420666163746f7279000000000000006000830152602082019050919050565b60006117b6604983611bbb565b91507f6f6e6c7946756e644465706c6f7965724f776e65723a204f6e6c79207468652060008301527f46756e644465706c6f796572206f776e65722063616e2063616c6c207468697360208301527f2066756e6374696f6e00000000000000000000000000000000000000000000006040830152606082019050919050565b6000611842601883611bbb565b91507f616464506f6f6c733a20556e657175616c2061727261797300000000000000006000830152602082019050919050565b6000611882601a83611bbb565b91507f536166654d6174683a206469766973696f6e206279207a65726f0000000000006000830152602082019050919050565b60006118c2602183611bbb565b91507f536166654d6174683a206d756c7469706c69636174696f6e206f766572666c6f60008301527f77000000000000000000000000000000000000000000000000000000000000006020830152604082019050919050565b6000611928601c83611bbb565b91507f616464506f6f6c733a20416c72656164792072656769737465726564000000006000830152602082019050919050565b6040820160008201516119716000850182611680565b5060208201516119846020850182611999565b50505050565b61199381611c0a565b82525050565b6119a281611c14565b82525050565b60006020820190506119bd600083018461168f565b92915050565b60006060820190506119d8600083018661168f565b6119e56020830185611671565b6119f2604083018461175a565b949350505050565b60006020820190508181036000830152611a14818461169e565b905092915050565b60006040820190508181036000830152611a36818561169e565b90508181036020830152611a4a81846116fc565b90509392505050565b6000602082019050611a68600083018461175a565b92915050565b60006020820190508181036000830152611a8781611769565b9050919050565b60006020820190508181036000830152611aa7816117a9565b9050919050565b60006020820190508181036000830152611ac781611835565b9050919050565b60006020820190508181036000830152611ae781611875565b9050919050565b60006020820190508181036000830152611b07816118b5565b9050919050565b60006020820190508181036000830152611b278161191b565b9050919050565b6000604082019050611b43600083018461195b565b92915050565b6000819050602082019050919050565b6000819050602082019050919050565b600081519050919050565b600081519050919050565b6000602082019050919050565b6000602082019050919050565b600082825260208201905092915050565b600082825260208201905092915050565b600082825260208201905092915050565b6000611bd782611bea565b9050919050565b60008115159050919050565b600073ffffffffffffffffffffffffffffffffffffffff82169050919050565b6000819050919050565b600060ff82169050919050565b6000611c2c82611c33565b9050919050565b6000611c3e82611c45565b9050919050565b6000611c5082611bea565b9050919050565b611c6081611bcc565b8114611c6b57600080fd5b50565b611c7781611bde565b8114611c8257600080fd5b50565b611c8e81611c0a565b8114611c9957600080fd5b50565b611ca581611c14565b8114611cb057600080fd5b5056fea164736f6c634300060c000a","linkReferences":{}},"methodIdentifiers":{"addPoolFactories(address[])":"4c8f6529","addPools(address[],address[])":"c10e7d15","calcUnderlyingValues(address,uint256)":"727212f6","getFundDeployer()":"97c0ac87","getOwner()":"893d20e8","getPoolFactories()":"27082f73","getPoolInfo(address)":"06bfa938","isSupportedAsset(address)":"9be918e6","removePoolFactories(address[])":"ec421ea0","removePools(address[])":"4b164140"},"id":284}