{"abi":[{"type":"constructor","inputs":[{"name":"_integrationManager","type":"address","internalType":"address"},{"name":"_divEthAddress","type":"address","internalType":"address"},{"name":"_wethAddress","type":"address","internalType":"address"}],"stateMutability":"nonpayable"},{"type":"receive","stateMutability":"payable"},{"type":"function","name":"getIntegrationManager","inputs":[],"outputs":[{"name":"integrationManager_","type":"address","internalType":"address"}],"stateMutability":"view"},{"type":"function","name":"parseAssetsForAction","inputs":[{"name":"","type":"address","internalType":"address"},{"name":"_selector","type":"bytes4","internalType":"bytes4"},{"name":"_actionData","type":"bytes","internalType":"bytes"}],"outputs":[{"name":"spendAssetsHandleType_","type":"uint8","internalType":"enum IIntegrationManager.SpendAssetsHandleType"},{"name":"spendAssets_","type":"address[]","internalType":"address[]"},{"name":"spendAssetAmounts_","type":"uint256[]","internalType":"uint256[]"},{"name":"incomingAssets_","type":"address[]","internalType":"address[]"},{"name":"minIncomingAssetAmounts_","type":"uint256[]","internalType":"uint256[]"}],"stateMutability":"view"},{"type":"function","name":"unwrap","inputs":[{"name":"_vaultProxy","type":"address","internalType":"address"},{"name":"_actionData","type":"bytes","internalType":"bytes"},{"name":"","type":"bytes","internalType":"bytes"}],"outputs":[],"stateMutability":"nonpayable"},{"type":"function","name":"wrap","inputs":[{"name":"_vaultProxy","type":"address","internalType":"address"},{"name":"_actionData","type":"bytes","internalType":"bytes"},{"name":"","type":"bytes","internalType":"bytes"}],"outputs":[],"stateMutability":"nonpayable"}],"bytecode":{"object":"0x61010060405234801561001157600080fd5b506040516110ef3803806110ef8339810160408190526100309161006e565b6001600160a01b0392831660805290821660a0521660c052600160e0526100b1565b80516001600160a01b038116811461006957600080fd5b919050565b60008060006060848603121561008357600080fd5b61008c84610052565b925061009a60208501610052565b91506100a860408501610052565b90509250925092565b60805160a05160c05160e051610fb9610136600039600081816101af01526103370152600081816102050152818161027a01528181610371015281816105ca01526106e3015260008181610402015281816104770152818161061e0152818161068f015261090d01526000818160e50152818161011a01526102b40152610fb96000f3fe6080604052600436106100435760003560e01c80639497f9181461004f578063a5ca2d7114610071578063c54efee514610091578063e7c45690146100cb57600080fd5b3661004a57005b600080fd5b34801561005b57600080fd5b5061006f61006a366004610c96565b61010f565b005b34801561007d57600080fd5b5061006f61008c366004610c96565b6102a9565b34801561009d57600080fd5b506100b16100ac366004610d17565b61049e565b6040516100c2959493929190610dfb565b60405180910390f35b3480156100d757600080fd5b506040516001600160a01b037f00000000000000000000000000000000000000000000000000000000000000001681526020016100c2565b336001600160a01b037f000000000000000000000000000000000000000000000000000000000000000016146101605760405162461bcd60e51b815260040161015790610e78565b60405180910390fd5b60006101a185858080601f01602080910402602001604051908101604052809392919081815260200183838082843760009201919091525061077a92505050565b5090506101ad8161079a565b7f0000000000000000000000000000000000000000000000000000000000000000156101e2576101dd86476107e2565b6102a1565b6040516370a0823160e01b81523060048201526102a19087906001600160a01b037f000000000000000000000000000000000000000000000000000000000000000016906370a0823190602401602060405180830381865afa15801561024c573d6000803e3d6000fd5b505050506040513d601f19601f820116820180604052508101906102709190610eca565b6001600160a01b037f0000000000000000000000000000000000000000000000000000000000000000169190610900565b505050505050565b336001600160a01b037f000000000000000000000000000000000000000000000000000000000000000016146102f15760405162461bcd60e51b815260040161015790610e78565b600061033285858080601f01602080910402602001604051908101604052809392919081815260200183838082843760009201919091525061077a92505050565b5090507f0000000000000000000000000000000000000000000000000000000000000000156103d657604051632e1a7d4d60e01b8152600481018290527f00000000000000000000000000000000000000000000000000000000000000006001600160a01b031690632e1a7d4d90602401600060405180830381600087803b1580156103bd57600080fd5b505af11580156103d1573d6000803e3d6000fd5b505050505b6103df8161090b565b6040516370a0823160e01b81523060048201526102a19087906001600160a01b037f000000000000000000000000000000000000000000000000000000000000000016906370a0823190602401602060405180830381865afa158015610449573d6000803e3d6000fd5b505050506040513d601f19601f8201168201806040525081019061046d9190610eca565b6001600160a01b037f0000000000000000000000000000000000000000000000000000000000000000169190610900565b60006060806060806000806104e889898080601f01602080910402602001604051908101604052809392919081815260200183838082843760009201919091525061077a92505050565b60408051600180825281830190925260029a5092945090925060208083019080368337505060408051600180825281830190925292985090506020808301908036833750506040805160018082528183019092529297509050602080830190803683375050604080516001808252818301909252929650905060208083019080368337019050509250818560008151811061058557610585610ee3565b60200260200101818152505080836000815181106105a5576105a5610ee3565b6020908102919091010152635a35d28f60e01b6001600160e01b03198b1601610675577f0000000000000000000000000000000000000000000000000000000000000000866000815181106105fc576105fc610ee3565b60200260200101906001600160a01b031690816001600160a01b0316815250507f00000000000000000000000000000000000000000000000000000000000000008460008151811061065057610650610ee3565b60200260200101906001600160a01b031690816001600160a01b03168152505061076d565b630d6d00dd60e31b6001600160e01b03198b1601610715577f0000000000000000000000000000000000000000000000000000000000000000866000815181106106c1576106c1610ee3565b60200260200101906001600160a01b031690816001600160a01b0316815250507f00000000000000000000000000000000000000000000000000000000000000008460008151811061065057610650610ee3565b60405162461bcd60e51b815260206004820152602760248201527f7061727365417373657473466f72416374696f6e3a205f73656c6563746f72206044820152661a5b9d985b1a5960ca1b6064820152608401610157565b5050945094509450945094565b600080828060200190518101906107919190610ef9565b91509150915091565b60405162461bcd60e51b815260206004820152601960248201527f5f5f756e777261703a204e6f7420696d706c656d656e746564000000000000006044820152606401610157565b804710156108325760405162461bcd60e51b815260206004820152601d60248201527f416464726573733a20696e73756666696369656e742062616c616e63650000006044820152606401610157565b6000826001600160a01b03168260405160006040518083038185875af1925050503d806000811461087f576040519150601f19603f3d011682016040523d82523d6000602084013e610884565b606091505b50509050806108fb5760405162461bcd60e51b815260206004820152603a60248201527f416464726573733a20756e61626c6520746f2073656e642076616c75652c207260448201527f6563697069656e74206d617920686176652072657665727465640000000000006064820152608401610157565b505050565b6108fb838383610994565b7f00000000000000000000000000000000000000000000000000000000000000006001600160a01b031663d0e30db0476040518263ffffffff1660e01b815260040160206040518083038185885af115801561096b573d6000803e3d6000fd5b50505050506040513d601f19601f820116820180604052508101906109909190610eca565b5050565b604080516001600160a01b03848116602483015260448083018590528351808403909101815260649092018352602080830180516001600160e01b031663a9059cbb60e01b17905283518085019094528084527f5361666545524332303a206c6f772d6c6576656c2063616c6c206661696c6564908401526108fb92869291600091610a24918516908490610aa1565b8051909150156108fb5780806020019051810190610a429190610f1d565b6108fb5760405162461bcd60e51b815260206004820152602a60248201527f5361666545524332303a204552433230206f7065726174696f6e20646964206e6044820152691bdd081cdd58d8d9595960b21b6064820152608401610157565b6060610ab08484600085610ab8565b949350505050565b606082471015610b195760405162461bcd60e51b815260206004820152602660248201527f416464726573733a20696e73756666696369656e742062616c616e636520666f6044820152651c8818d85b1b60d21b6064820152608401610157565b600080866001600160a01b03168587604051610b359190610f6a565b60006040518083038185875af1925050503d8060008114610b72576040519150601f19603f3d011682016040523d82523d6000602084013e610b77565b606091505b5091509150610b8887838387610b93565b979650505050505050565b60608315610c02578251600003610bfb576001600160a01b0385163b610bfb5760405162461bcd60e51b815260206004820152601d60248201527f416464726573733a2063616c6c20746f206e6f6e2d636f6e74726163740000006044820152606401610157565b5081610ab0565b610ab08383815115610c175781518083602001fd5b8060405162461bcd60e51b81526004016101579190610f86565b80356001600160a01b0381168114610c4857600080fd5b919050565b60008083601f840112610c5f57600080fd5b50813567ffffffffffffffff811115610c7757600080fd5b602083019150836020828501011115610c8f57600080fd5b9250929050565b600080600080600060608688031215610cae57600080fd5b610cb786610c31565b9450602086013567ffffffffffffffff80821115610cd457600080fd5b610ce089838a01610c4d565b90965094506040880135915080821115610cf957600080fd5b50610d0688828901610c4d565b969995985093965092949392505050565b60008060008060608587031215610d2d57600080fd5b610d3685610c31565b935060208501356001600160e01b031981168114610d5357600080fd5b9250604085013567ffffffffffffffff811115610d6f57600080fd5b610d7b87828801610c4d565b95989497509550505050565b600081518084526020808501945080840160005b83811015610dc05781516001600160a01b031687529582019590820190600101610d9b565b509495945050505050565b600081518084526020808501945080840160005b83811015610dc057815187529582019590820190600101610ddf565b600060038710610e1b57634e487b7160e01b600052602160045260246000fd5b86825260a06020830152610e3260a0830187610d87565b8281036040840152610e448187610dcb565b90508281036060840152610e588186610d87565b90508281036080840152610e6c8185610dcb565b98975050505050505050565b60208082526032908201527f4f6e6c792074686520496e746567726174696f6e4d616e616765722063616e2060408201527131b0b636103a3434b990333ab731ba34b7b760711b606082015260800190565b600060208284031215610edc57600080fd5b5051919050565b634e487b7160e01b600052603260045260246000fd5b60008060408385031215610f0c57600080fd5b505080516020909101519092909150565b600060208284031215610f2f57600080fd5b81518015158114610f3f57600080fd5b9392505050565b60005b83811015610f61578181015183820152602001610f49565b50506000910152565b60008251610f7c818460208701610f46565b9190910192915050565b6020815260008251806020840152610fa5816040850160208701610f46565b601f01601f1916919091016040019291505056","linkReferences":{}},"methodIdentifiers":{"getIntegrationManager()":"e7c45690","parseAssetsForAction(address,bytes4,bytes)":"c54efee5","unwrap(address,bytes,bytes)":"9497f918","wrap(address,bytes,bytes)":"a5ca2d71"},"id":146}