{"abi":[{"type":"constructor","inputs":[{"name":"_compoundPriceFeed","type":"address","internalType":"address"},{"name":"_compToken","type":"address","internalType":"address"},{"name":"_valueInterpreter","type":"address","internalType":"address"}],"stateMutability":"nonpayable"},{"type":"function","name":"getCompToken","inputs":[],"outputs":[{"name":"compToken_","type":"address","internalType":"address"}],"stateMutability":"view"},{"type":"function","name":"getCompoundPriceFeed","inputs":[],"outputs":[{"name":"compoundPriceFeed_","type":"address","internalType":"address"}],"stateMutability":"view"},{"type":"function","name":"getValueInterpreter","inputs":[],"outputs":[{"name":"valueInterpreter_","type":"address","internalType":"address"}],"stateMutability":"view"},{"type":"function","name":"parseAssetsForAction","inputs":[{"name":"_externalPosition","type":"address","internalType":"address"},{"name":"_actionId","type":"uint256","internalType":"uint256"},{"name":"_encodedActionArgs","type":"bytes","internalType":"bytes"}],"outputs":[{"name":"assetsToTransfer_","type":"address[]","internalType":"address[]"},{"name":"amountsToTransfer_","type":"uint256[]","internalType":"uint256[]"},{"name":"assetsToReceive_","type":"address[]","internalType":"address[]"}],"stateMutability":"nonpayable"},{"type":"function","name":"parseInitArgs","inputs":[{"name":"","type":"address","internalType":"address"},{"name":"","type":"bytes","internalType":"bytes"}],"outputs":[{"name":"initArgs_","type":"bytes","internalType":"bytes"}],"stateMutability":"nonpayable"}],"bytecode":{"object":"0x60e060405234801561001057600080fd5b50604051610fa0380380610fa08339818101604052606081101561003357600080fd5b810190808051906020019092919080519060200190929190805190602001909291905050508273ffffffffffffffffffffffffffffffffffffffff1660a08173ffffffffffffffffffffffffffffffffffffffff1660601b815250508173ffffffffffffffffffffffffffffffffffffffff1660808173ffffffffffffffffffffffffffffffffffffffff1660601b815250508073ffffffffffffffffffffffffffffffffffffffff1660c08173ffffffffffffffffffffffffffffffffffffffff1660601b8152505050505060805160601c60a05160601c60c05160601c610e6b6101356000398061046a52508061041a5250806104425250610e6b6000f3fe608060405234801561001057600080fd5b50600436106100575760003560e01c806332bf82271461005c57806370a58ec614610090578063875fb4b3146100c4578063bbd2d646146100f8578063db16c72e146102c2575b600080fd5b610064610416565b604051808273ffffffffffffffffffffffffffffffffffffffff16815260200191505060405180910390f35b61009861043e565b604051808273ffffffffffffffffffffffffffffffffffffffff16815260200191505060405180910390f35b6100cc610466565b604051808273ffffffffffffffffffffffffffffffffffffffff16815260200191505060405180910390f35b6101db6004803603606081101561010e57600080fd5b81019080803573ffffffffffffffffffffffffffffffffffffffff169060200190929190803590602001909291908035906020019064010000000081111561015557600080fd5b82018360208201111561016757600080fd5b8035906020019184600183028401116401000000008311171561018957600080fd5b91908080601f016020809104026020016040519081016040528093929190818152602001838380828437600081840152601f19601f82011690508083019250505050505050919291929050505061048e565b60405180806020018060200180602001848103845287818151815260200191508051906020019060200280838360005b8381101561022657808201518184015260208101905061020b565b50505050905001848103835286818151815260200191508051906020019060200280838360005b8381101561026857808201518184015260208101905061024d565b50505050905001848103825285818151815260200191508051906020019060200280838360005b838110156102aa57808201518184015260208101905061028f565b50505050905001965050505050505060405180910390f35b61039b600480360360408110156102d857600080fd5b81019080803573ffffffffffffffffffffffffffffffffffffffff1690602001909291908035906020019064010000000081111561031557600080fd5b82018360208201111561032757600080fd5b8035906020019184600183028401116401000000008311171561034957600080fd5b91908080601f016020809104026020016040519081016040528093929190818152602001838380828437600081840152601f19601f820116905080830192505050505050509192919290505050610bac565b6040518080602001828103825283818151815260200191508051906020019080838360005b838110156103db5780820151818401526020810190506103c0565b50505050905090810190601f1680156104085780820380516001836020036101000a031916815260200191505b509250505060405180910390f35b60007f0000000000000000000000000000000000000000000000000000000000000000905090565b60007f0000000000000000000000000000000000000000000000000000000000000000905090565b60007f0000000000000000000000000000000000000000000000000000000000000000905090565b6060806060806060806104a087610bc6565b925092509250600060048111156104b357fe5b8814156104c557829550819450610ba0565b600360048111156104d257fe5b8814156107895760005b835181101561077d5760008a73ffffffffffffffffffffffffffffffffffffffff1663d889378e86848151811061050f57fe5b60200260200101516040518263ffffffff1660e01b8152600401808273ffffffffffffffffffffffffffffffffffffffff16815260200191505060206040518083038186803b15801561056157600080fd5b505afa158015610575573d6000803e3d6000fd5b505050506040513d602081101561058b57600080fd5b810190808051906020019092919050505090507fffffffffffffffffffffffffffffffffffffffffffffffffffffffffffffffff8483815181106105cb57fe5b6020026020010151141561076f5760008173ffffffffffffffffffffffffffffffffffffffff1663a6afed956040518163ffffffff1660e01b8152600401602060405180830381600087803b15801561062357600080fd5b505af1158015610637573d6000803e3d6000fd5b505050506040513d602081101561064d57600080fd5b8101908080519060200190929190505050146106b4576040517f08c379a0000000000000000000000000000000000000000000000000000000008152600401808060200182810382526038815260200180610e276038913960400191505060405180910390fd5b8073ffffffffffffffffffffffffffffffffffffffff166395dd91938c6040518263ffffffff1660e01b8152600401808273ffffffffffffffffffffffffffffffffffffffff16815260200191505060206040518083038186803b15801561071b57600080fd5b505afa15801561072f573d6000803e3d6000fd5b505050506040513d602081101561074557600080fd5b810190808051906020019092919050505084838151811061076257fe5b6020026020010181815250505b5080806001019150506104dc565b50829550819450610b9f565b6002600481111561079657fe5b881415610ad35760608180602001905160208110156107b457600080fd5b81019080805160405193929190846401000000008211156107d457600080fd5b838201915060208201858111156107ea57600080fd5b825186602082028301116401000000008211171561080757600080fd5b8083526020830192505050908051906020019060200280838360005b8381101561083e578082015181840152602081019050610823565b50505050905001604052505050905060005b8451811015610ac957610861610466565b73ffffffffffffffffffffffffffffffffffffffff16639be918e686838151811061088857fe5b60200260200101516040518263ffffffff1660e01b8152600401808273ffffffffffffffffffffffffffffffffffffffff16815260200191505060206040518083038186803b1580156108da57600080fd5b505afa1580156108ee573d6000803e3d6000fd5b505050506040513d602081101561090457600080fd5b810190808051906020019092919050505061096a576040517f08c379a0000000000000000000000000000000000000000000000000000000008152600401808060200182810382526027815260200180610dd56027913960400191505060405180910390fd5b84818151811061097657fe5b602002602001015173ffffffffffffffffffffffffffffffffffffffff1661099c610416565b73ffffffffffffffffffffffffffffffffffffffff16634cae3ad78484815181106109c357fe5b60200260200101516040518263ffffffff1660e01b8152600401808273ffffffffffffffffffffffffffffffffffffffff16815260200191505060206040518083038186803b158015610a1557600080fd5b505afa158015610a29573d6000803e3d6000fd5b505050506040513d6020811015610a3f57600080fd5b810190808051906020019092919050505073ffffffffffffffffffffffffffffffffffffffff1614610abc576040517f08c379a000000000000000000000000000000000000000000000000000000000815260040180806020018281038252602b815260200180610dfc602b913960400191505060405180910390fd5b8080600101915050610850565b5083945050610b9e565b60016004811115610ae057fe5b881415610aef57829350610b9d565b600480811115610afb57fe5b881415610b9c57600167ffffffffffffffff81118015610b1a57600080fd5b50604051908082528060200260200182016040528015610b495781602001602082028036833780820191505090505b509350610b5461043e565b84600081518110610b6157fe5b602002602001019073ffffffffffffffffffffffffffffffffffffffff16908173ffffffffffffffffffffffffffffffffffffffff16815250505b5b5b5b5b50505093509350939050565b606060405180602001604052806000815250905092915050565b6060806060838060200190516060811015610be057600080fd5b8101908080516040519392919084640100000000821115610c0057600080fd5b83820191506020820185811115610c1657600080fd5b8251866020820283011164010000000082111715610c3357600080fd5b8083526020830192505050908051906020019060200280838360005b83811015610c6a578082015181840152602081019050610c4f565b5050505090500160405260200180516040519392919084640100000000821115610c9357600080fd5b83820191506020820185811115610ca957600080fd5b8251866020820283011164010000000082111715610cc657600080fd5b8083526020830192505050908051906020019060200280838360005b83811015610cfd578082015181840152602081019050610ce2565b5050505090500160405260200180516040519392919084640100000000821115610d2657600080fd5b83820191506020820185811115610d3c57600080fd5b8251866001820283011164010000000082111715610d5957600080fd5b8083526020830192505050908051906020019080838360005b83811015610d8d578082015181840152602081019050610d72565b50505050905090810190601f168015610dba5780820380516001836020036101000a031916815260200191505b50604052505050809350819450829550505050919390925056fe7061727365417373657473466f72416374696f6e3a20556e737570706f727465642061737365747061727365417373657473466f72416374696f6e3a2042616420746f6b656e2063546f6b656e20706169727061727365417373657473466f72416374696f6e3a204572726f72207768696c652063616c6c696e6720616363727565496e746572657374a164736f6c634300060c000a","linkReferences":{}},"methodIdentifiers":{"getCompToken()":"70a58ec6","getCompoundPriceFeed()":"32bf8227","getValueInterpreter()":"875fb4b3","parseAssetsForAction(address,uint256,bytes)":"bbd2d646","parseInitArgs(address,bytes)":"db16c72e"},"id":155}