{"abi":[{"type":"constructor","inputs":[{"name":"_compoundPriceFeed","type":"address","internalType":"address"},{"name":"_compToken","type":"address","internalType":"address"},{"name":"_valueInterpreter","type":"address","internalType":"address"}],"stateMutability":"nonpayable"},{"type":"function","name":"getCompToken","inputs":[],"outputs":[{"name":"compToken_","type":"address","internalType":"address"}],"stateMutability":"view"},{"type":"function","name":"getCompoundPriceFeed","inputs":[],"outputs":[{"name":"compoundPriceFeed_","type":"address","internalType":"address"}],"stateMutability":"view"},{"type":"function","name":"getValueInterpreter","inputs":[],"outputs":[{"name":"valueInterpreter_","type":"address","internalType":"address"}],"stateMutability":"view"},{"type":"function","name":"parseAssetsForAction","inputs":[{"name":"_externalPosition","type":"address","internalType":"address"},{"name":"_actionId","type":"uint256","internalType":"uint256"},{"name":"_encodedActionArgs","type":"bytes","internalType":"bytes"}],"outputs":[{"name":"assetsToTransfer_","type":"address[]","internalType":"address[]"},{"name":"amountsToTransfer_","type":"uint256[]","internalType":"uint256[]"},{"name":"assetsToReceive_","type":"address[]","internalType":"address[]"}],"stateMutability":"nonpayable"},{"type":"function","name":"parseInitArgs","inputs":[{"name":"","type":"address","internalType":"address"},{"name":"","type":"bytes","internalType":"bytes"}],"outputs":[{"name":"initArgs_","type":"bytes","internalType":"bytes"}],"stateMutability":"nonpayable"}],"bytecode":{"object":"0x60e060405234801561001057600080fd5b50604051610c24380380610c248339818101604052606081101561003357600080fd5b50805160208201516040909201516001600160601b0319606092831b811660a05292821b8316608052901b1660c05260805160601c60a05160601c60c05160601c610b8d6100976000398061039a5250806103525250806103765250610b8d6000f3fe608060405234801561001057600080fd5b50600436106100575760003560e01c806332bf82271461005c57806370a58ec614610080578063875fb4b314610088578063bbd2d64614610090578063db16c72e14610227575b600080fd5b610064610350565b604080516001600160a01b039092168252519081900360200190f35b610064610374565b610064610398565b610149600480360360608110156100a657600080fd5b6001600160a01b0382351691602081013591810190606081016040820135600160201b8111156100d557600080fd5b8201836020820111156100e757600080fd5b803590602001918460018302840111600160201b8311171561010857600080fd5b91908080601f0160208091040260200160405190810160405280939291908181526020018383808284376000920191909152509295506103bc945050505050565b60405180806020018060200180602001848103845287818151815260200191508051906020019060200280838360005b83811015610191578181015183820152602001610179565b50505050905001848103835286818151815260200191508051906020019060200280838360005b838110156101d05781810151838201526020016101b8565b50505050905001848103825285818151815260200191508051906020019060200280838360005b8381101561020f5781810151838201526020016101f7565b50505050905001965050505050505060405180910390f35b6102db6004803603604081101561023d57600080fd5b6001600160a01b038235169190810190604081016020820135600160201b81111561026757600080fd5b82018360208201111561027957600080fd5b803590602001918460018302840111600160201b8311171561029a57600080fd5b91908080601f016020809104026020016040519081016040528093929190818152602001838380828437600092019190915250929550610900945050505050565b6040805160208082528351818301528351919283929083019185019080838360005b838110156103155781810151838201526020016102fd565b50505050905090810190601f1680156103425780820380516001836020036101000a031916815260200191505b509250505060405180910390f35b7f000000000000000000000000000000000000000000000000000000000000000090565b7f000000000000000000000000000000000000000000000000000000000000000090565b7f000000000000000000000000000000000000000000000000000000000000000090565b6060806060806060806103ce87610914565b91945092509050876103e5578295508194506108f4565b60038814156105f75760005b83518110156105eb5760008a6001600160a01b031663d889378e86848151811061041757fe5b60200260200101516040518263ffffffff1660e01b815260040180826001600160a01b0316815260200191505060206040518083038186803b15801561045c57600080fd5b505afa158015610470573d6000803e3d6000fd5b505050506040513d602081101561048657600080fd5b505184519091506000199085908490811061049d57fe5b602002602001015114156105e257806001600160a01b031663a6afed956040518163ffffffff1660e01b8152600401602060405180830381600087803b1580156104e657600080fd5b505af11580156104fa573d6000803e3d6000fd5b505050506040513d602081101561051057600080fd5b50511561054e5760405162461bcd60e51b8152600401808060200182810382526038815260200180610b496038913960400191505060405180910390fd5b806001600160a01b03166395dd91938c6040518263ffffffff1660e01b815260040180826001600160a01b0316815260200191505060206040518083038186803b15801561059b57600080fd5b505afa1580156105af573d6000803e3d6000fd5b505050506040513d60208110156105c557600080fd5b505184518590849081106105d557fe5b6020026020010181815250505b506001016103f1565b508295508194506108f4565b600288141561088457606081806020019051602081101561061757600080fd5b8101908080516040519392919084600160201b82111561063657600080fd5b90830190602082018581111561064b57600080fd5b82518660208202830111600160201b8211171561066757600080fd5b82525081516020918201928201910280838360005b8381101561069457818101518382015260200161067c565b50505050905001604052505050905060005b845181101561087a576106b7610398565b6001600160a01b0316639be918e68683815181106106d157fe5b60200260200101516040518263ffffffff1660e01b815260040180826001600160a01b0316815260200191505060206040518083038186803b15801561071657600080fd5b505afa15801561072a573d6000803e3d6000fd5b505050506040513d602081101561074057600080fd5b505161077d5760405162461bcd60e51b8152600401808060200182810382526027815260200180610af76027913960400191505060405180910390fd5b84818151811061078957fe5b60200260200101516001600160a01b03166107a2610350565b6001600160a01b0316634cae3ad78484815181106107bc57fe5b60200260200101516040518263ffffffff1660e01b815260040180826001600160a01b0316815260200191505060206040518083038186803b15801561080157600080fd5b505afa158015610815573d6000803e3d6000fd5b505050506040513d602081101561082b57600080fd5b50516001600160a01b0316146108725760405162461bcd60e51b815260040180806020018281038252602b815260200180610b1e602b913960400191505060405180910390fd5b6001016106a6565b50839450506108f4565b6001881415610895578293506108f4565b60048814156108f45760408051600180825281830190925290602080830190803683370190505093506108c6610374565b846000815181106108d357fe5b60200260200101906001600160a01b031690816001600160a01b0316815250505b50505093509350939050565b505060408051602081019091526000815290565b606080606083806020019051606081101561092e57600080fd5b8101908080516040519392919084600160201b82111561094d57600080fd5b90830190602082018581111561096257600080fd5b82518660208202830111600160201b8211171561097e57600080fd5b82525081516020918201928201910280838360005b838110156109ab578181015183820152602001610993565b5050505090500160405260200180516040519392919084600160201b8211156109d357600080fd5b9083019060208201858111156109e857600080fd5b82518660208202830111600160201b82111715610a0457600080fd5b82525081516020918201928201910280838360005b83811015610a31578181015183820152602001610a19565b5050505090500160405260200180516040519392919084600160201b821115610a5957600080fd5b908301906020820185811115610a6e57600080fd5b8251600160201b811182820188101715610a8757600080fd5b82525081516020918201929091019080838360005b83811015610ab4578181015183820152602001610a9c565b50505050905090810190601f168015610ae15780820380516001836020036101000a031916815260200191505b5060405250939892975090955090935050505056fe7061727365417373657473466f72416374696f6e3a20556e737570706f727465642061737365747061727365417373657473466f72416374696f6e3a2042616420746f6b656e2063546f6b656e20706169727061727365417373657473466f72416374696f6e3a204572726f72207768696c652063616c6c696e6720616363727565496e746572657374a164736f6c634300060c000a","linkReferences":{}},"methodIdentifiers":{"getCompToken()":"70a58ec6","getCompoundPriceFeed()":"32bf8227","getValueInterpreter()":"875fb4b3","parseAssetsForAction(address,uint256,bytes)":"bbd2d646","parseInitArgs(address,bytes)":"db16c72e"},"id":155}