{"abi":[{"type":"constructor","inputs":[{"name":"_btcQuotedAggregatorAddress","type":"address","internalType":"address"},{"name":"_ethBtcAggregatorAddress","type":"address","internalType":"address"}],"stateMutability":"nonpayable"},{"type":"function","name":"BASE_ASSET_AGGREGATOR","inputs":[],"outputs":[{"name":"","type":"address","internalType":"contract IChainlinkAggregator"}],"stateMutability":"view"},{"type":"function","name":"PRECISION_DECIMALS","inputs":[],"outputs":[{"name":"","type":"uint8","internalType":"uint8"}],"stateMutability":"view"},{"type":"function","name":"QUOTE_ASSET_AGGREGATOR","inputs":[],"outputs":[{"name":"","type":"address","internalType":"contract IChainlinkAggregator"}],"stateMutability":"view"},{"type":"function","name":"decimals","inputs":[],"outputs":[{"name":"decimals_","type":"uint8","internalType":"uint8"}],"stateMutability":"view"},{"type":"function","name":"latestRoundData","inputs":[],"outputs":[{"name":"","type":"uint80","internalType":"uint80"},{"name":"answer_","type":"int256","internalType":"int256"},{"name":"","type":"uint256","internalType":"uint256"},{"name":"updatedAt_","type":"uint256","internalType":"uint256"},{"name":"","type":"uint80","internalType":"uint80"}],"stateMutability":"view"},{"type":"error","name":"TwoAggregatorsWithCommonQuoteSimulatedAggregator__NegativeNewBaseAnswer","inputs":[]},{"type":"error","name":"TwoAggregatorsWithCommonQuoteSimulatedAggregator__NegativeNewQuoteAnswer","inputs":[]}],"bytecode":{"object":"0x6101006040523480156200001257600080fd5b506040516200090c3803806200090c833981016040819052620000359162000193565b6001600160a01b03808316608081905290821660a052601260c08190526040805163313ce56760e01b815290518593859392909163313ce567916004808201926020929091908290030181865afa15801562000095573d6000803e3d6000fd5b505050506040513d601f19601f82011682018060405250810190620000bb9190620001ed565b60a0516001600160a01b031663313ce5676040518163ffffffff1660e01b8152600401602060405180830381865afa158015620000fc573d6000803e3d6000fd5b505050506040513d601f19601f82011682018060405250810190620001229190620001ed565b60c05162000131919062000230565b6200013d919062000250565b6200014a90600a620003a1565b60e05250620003b89350505050565b60006001600160a01b0382165b92915050565b620001778162000159565b81146200018357600080fd5b50565b805162000166816200016c565b60008060408385031215620001ab57620001ab600080fd5b6000620001b9858562000186565b9250506020620001cc8582860162000186565b9150509250929050565b60ff811662000177565b80516200016681620001d6565b600060208284031215620002045762000204600080fd5b6000620002128484620001e0565b949350505050565b634e487b7160e01b600052601160045260246000fd5b60ff9182169190811690828201908111156200016657620001666200021a565b60ff9182169190811690828203908111156200016657620001666200021a565b80825b6001851115620002b6578086048111156200029257620002926200021a565b6001851615620002a157908102905b8002620002ae8560011c90565b945062000273565b94509492505050565b600082620002d0575060016200039a565b81620002df575060006200039a565b8160018114620002f85760028114620003035762000337565b60019150506200039a565b60ff8411156200031757620003176200021a565b8360020a9150848211156200033057620003306200021a565b506200039a565b5060208310610133831016604e8410600b84101617156200036f575081810a838111156200036957620003696200021a565b6200039a565b6200037e848484600162000270565b925090508184048111156200039757620003976200021a565b81025b9392505050565b600060ff831692506200039a6000198484620002bf565b60805160a05160c05160e05161050962000403600039600061029e015260008181609b015260cd015260008181606101526101ec01526000818160f4015261013c01526105096000f3fe608060405234801561001057600080fd5b50600436106100575760003560e01c80630c871c6c1461005c578063313ce5671461009957806360ebfee6146100c857806381481cfb146100ef578063feaf968c14610116575b600080fd5b6100837f000000000000000000000000000000000000000000000000000000000000000081565b604051610090919061033e565b60405180910390f35b7f00000000000000000000000000000000000000000000000000000000000000005b6040516100909190610355565b6100bb7f000000000000000000000000000000000000000000000000000000000000000081565b6100837f000000000000000000000000000000000000000000000000000000000000000081565b61011e61012f565b60405161009095949392919061037b565b60008060008060008060007f00000000000000000000000000000000000000000000000000000000000000006001600160a01b031663feaf968c6040518163ffffffff1660e01b815260040160a060405180830381865afa158015610198573d6000803e3d6000fd5b505050506040513d601f19601f820116820180604052508101906101bc91906103ff565b50919450909250505060008212156101e75760405163066d864160e51b815260040160405180910390fd5b6000807f00000000000000000000000000000000000000000000000000000000000000006001600160a01b031663feaf968c6040518163ffffffff1660e01b815260040160a060405180830381865afa158015610248573d6000803e3d6000fd5b505050506040513d601f19601f8201168201806040525081019061026c91906103ff565b5091945090925050506000821215610297576040516307d3332160e01b815260040160405180910390fd5b816102c2857f000000000000000000000000000000000000000000000000000000000000000061048d565b6102cc91906104db565b97506102d883826102ee565b60009a9899508a98909750889650945050505050565b60008183106102fd57816102ff565b825b90505b92915050565b60006001600160a01b038216610302565b600061030282610308565b600061030282610319565b61033881610324565b82525050565b60208101610302828461032f565b60ff8116610338565b60208101610302828461034c565b69ffffffffffffffffffff8116610338565b80610338565b60a081016103898288610363565b6103966020830187610375565b6103a36040830186610375565b6103b06060830185610375565b6103bd6080830184610363565b9695505050505050565b69ffffffffffffffffffff81165b81146103e057600080fd5b50565b8051610302816103c7565b806103d5565b8051610302816103ee565b600080600080600060a0868803121561041a5761041a600080fd5b600061042688886103e3565b9550506020610437888289016103f4565b9450506040610448888289016103f4565b9350506060610459888289016103f4565b925050608061046a888289016103e3565b9150509295509295909350565b634e487b7160e01b600052601160045260246000fd5b8181028060008312600160ff1b851416156104aa576104aa610477565b82820584148315176104be576104be610477565b5092915050565b634e487b7160e01b600052601260045260246000fd5b6000826104ea576104ea6104c5565b600160ff1b82146000198414161561050457610504610477565b50059056","linkReferences":{}},"methodIdentifiers":{"BASE_ASSET_AGGREGATOR()":"81481cfb","PRECISION_DECIMALS()":"60ebfee6","QUOTE_ASSET_AGGREGATOR()":"0c871c6c","decimals()":"313ce567","latestRoundData()":"feaf968c"},"id":201}