{"abi":[{"type":"constructor","inputs":[{"name":"_fundValueCalculatorRouter","type":"address","internalType":"address"},{"name":"_wethToken","type":"address","internalType":"address"}],"stateMutability":"nonpayable"},{"type":"function","name":"getFundValueCalculatorRouter","inputs":[],"outputs":[{"name":"fundValueCalculatorRouter_","type":"address","internalType":"address"}],"stateMutability":"view"},{"type":"function","name":"getFundValueMetrics","inputs":[{"name":"_vaultProxy","type":"address","internalType":"address"}],"outputs":[{"name":"timestamp_","type":"uint256","internalType":"uint256"},{"name":"sharesSupply_","type":"uint256","internalType":"uint256"},{"name":"gavInDenominationAsset_","type":"uint256","internalType":"uint256"},{"name":"gavInEth_","type":"uint256","internalType":"uint256"},{"name":"gavIsValid_","type":"bool","internalType":"bool"},{"name":"navInDenominationAsset_","type":"uint256","internalType":"uint256"},{"name":"navInEth_","type":"uint256","internalType":"uint256"},{"name":"navIsValid_","type":"bool","internalType":"bool"},{"name":"ethConversionIsValid_","type":"bool","internalType":"bool"},{"name":"denominationAsset_","type":"address","internalType":"address"}],"stateMutability":"nonpayable"},{"type":"function","name":"getWethToken","inputs":[],"outputs":[{"name":"wethToken_","type":"address","internalType":"address"}],"stateMutability":"view"}],"bytecode":{"object":"0x60c060405234801561001057600080fd5b506040516105d23803806105d28339818101604052604081101561003357600080fd5b5080516020909101516001600160601b0319606092831b8116608052911b1660a05260805160601c60a05160601c61054b610087600039806103be5280610486528061051c52508060f7525061054b6000f3fe608060405234801561001057600080fd5b50600436106100415760003560e01c80632f88698c14610046578063405257491461006a5780634c252f91146100ed575b600080fd5b61004e6100f5565b604080516001600160a01b039092168252519081900360200190f35b6100906004803603602081101561008057600080fd5b50356001600160a01b0316610119565b604080519a8b5260208b0199909952898901979097526060890195909552921515608088015260a087019190915260c0860152151560e085015215156101008401526001600160a01b031661012083015251908190036101400190f35b61004e61051a565b7f000000000000000000000000000000000000000000000000000000000000000090565b6000806000806000806000806000804299508a6001600160a01b03166318160ddd6040518163ffffffff1660e01b815260040160206040518083038186803b15801561016457600080fd5b505afa158015610178573d6000803e3d6000fd5b505050506040513d602081101561018e57600080fd5b5051985061019a6100f5565b6001600160a01b031663037276c18c6040518263ffffffff1660e01b815260040180826001600160a01b031681526020019150506040805180830381600087803b1580156101e757600080fd5b505af192505050801561021357506040513d604081101561020757600080fd5b50805160209091015160015b61021c57610225565b98506001965090505b61022d6100f5565b6001600160a01b03166353d467f38c6040518263ffffffff1660e01b815260040180826001600160a01b031681526020019150506040805180830381600087803b15801561027a57600080fd5b505af19250505080156102a657506040513d604081101561029a57600080fd5b50805160209091015160015b6102af576102b7565b955060019350505b6102bf6100f5565b6001600160a01b031663360a91d88c6040518263ffffffff1660e01b815260040180826001600160a01b0316815260200191505060206040518083038186803b15801561030b57600080fd5b505afa15801561031f573d6000803e3d6000fd5b505050506040513d602081101561033557600080fd5b50516040805163875fb4b360e01b815290516001600160a01b039092169163875fb4b391600480820192602092909190829003018186803b15801561037957600080fd5b505afa92505050801561039e57506040513d602081101561039957600080fd5b505160015b6103a75761050d565b60019250806001600160a01b0316634c67e106838b7f00000000000000000000000000000000000000000000000000000000000000006040518463ffffffff1660e01b815260040180846001600160a01b03168152602001838152602001826001600160a01b031681526020019350505050602060405180830381600087803b15801561043357600080fd5b505af1158015610447573d6000803e3d6000fd5b505050506040513d602081101561045d57600080fd5b505160408051632633f08360e11b81526001600160a01b038581166004830152602482018a90527f0000000000000000000000000000000000000000000000000000000000000000811660448301529151929a5090831691634c67e106916064808201926020929091908290030181600087803b1580156104dd57600080fd5b505af11580156104f1573d6000803e3d6000fd5b505050506040513d602081101561050757600080fd5b50519450505b9193959799509193959799565b7f00000000000000000000000000000000000000000000000000000000000000009056fea164736f6c634300060c000a","linkReferences":{}},"methodIdentifiers":{"getFundValueCalculatorRouter()":"2f88698c","getFundValueMetrics(address)":"40525749","getWethToken()":"4c252f91"},"id":86}