{"abi":[{"type":"constructor","inputs":[{"name":"_fundValueCalculatorRouter","type":"address","internalType":"address"},{"name":"_wethToken","type":"address","internalType":"address"}],"stateMutability":"nonpayable"},{"type":"function","name":"getFundValueCalculatorRouter","inputs":[],"outputs":[{"name":"fundValueCalculatorRouter_","type":"address","internalType":"address"}],"stateMutability":"view"},{"type":"function","name":"getFundValueMetrics","inputs":[{"name":"_vaultProxy","type":"address","internalType":"address"}],"outputs":[{"name":"timestamp_","type":"uint256","internalType":"uint256"},{"name":"sharesSupply_","type":"uint256","internalType":"uint256"},{"name":"gavInEth_","type":"uint256","internalType":"uint256"},{"name":"gavIsValid_","type":"bool","internalType":"bool"},{"name":"navInEth_","type":"uint256","internalType":"uint256"},{"name":"navIsValid_","type":"bool","internalType":"bool"}],"stateMutability":"nonpayable"},{"type":"function","name":"getWethToken","inputs":[],"outputs":[{"name":"wethToken_","type":"address","internalType":"address"}],"stateMutability":"view"}],"bytecode":{"object":"0x60c060405234801561001057600080fd5b506040516104bf3803806104bf8339818101604052604081101561003357600080fd5b8101908080519060200190929190805190602001909291905050508173ffffffffffffffffffffffffffffffffffffffff1660808173ffffffffffffffffffffffffffffffffffffffff1660601b815250508073ffffffffffffffffffffffffffffffffffffffff1660a08173ffffffffffffffffffffffffffffffffffffffff1660601b81525050505060805160601c60a05160601c6103d86100e7600039806103a752508061013152506103d86000f3fe608060405234801561001057600080fd5b50600436106100415760003560e01c80632f88698c14610046578063405257491461007a5780634c252f91146100f9575b600080fd5b61004e61012d565b604051808273ffffffffffffffffffffffffffffffffffffffff16815260200191505060405180910390f35b6100bc6004803603602081101561009057600080fd5b81019080803573ffffffffffffffffffffffffffffffffffffffff169060200190929190505050610155565b6040518087815260200186815260200185815260200184151581526020018381526020018215158152602001965050505050505060405180910390f35b6101016103a3565b604051808273ffffffffffffffffffffffffffffffffffffffff16815260200191505060405180910390f35b60007f0000000000000000000000000000000000000000000000000000000000000000905090565b6000806000806000804295508673ffffffffffffffffffffffffffffffffffffffff166318160ddd6040518163ffffffff1660e01b815260040160206040518083038186803b1580156101a757600080fd5b505afa1580156101bb573d6000803e3d6000fd5b505050506040513d60208110156101d157600080fd5b810190808051906020019092919050505094506101ec61012d565b73ffffffffffffffffffffffffffffffffffffffff166351ac29c7886102106103a3565b6040518363ffffffff1660e01b8152600401808373ffffffffffffffffffffffffffffffffffffffff1681526020018273ffffffffffffffffffffffffffffffffffffffff16815260200192505050602060405180830381600087803b15801561027957600080fd5b505af19250505080156102ad57506040513d602081101561029957600080fd5b810190808051906020019092919050505060015b6102b6576102bf565b80945060019350505b6102c761012d565b73ffffffffffffffffffffffffffffffffffffffff1663c65988ff886102eb6103a3565b6040518363ffffffff1660e01b8152600401808373ffffffffffffffffffffffffffffffffffffffff1681526020018273ffffffffffffffffffffffffffffffffffffffff16815260200192505050602060405180830381600087803b15801561035457600080fd5b505af192505050801561038857506040513d602081101561037457600080fd5b810190808051906020019092919050505060015b6103915761039a565b80925060019150505b91939550919395565b60007f000000000000000000000000000000000000000000000000000000000000000090509056fea164736f6c634300060c000a","linkReferences":{}},"methodIdentifiers":{"getFundValueCalculatorRouter()":"2f88698c","getFundValueMetrics(address)":"40525749","getWethToken()":"4c252f91"},"id":97}