{"abi":[{"type":"constructor","inputs":[{"name":"_integrationManager","type":"address","internalType":"address"},{"name":"_exchange","type":"address","internalType":"address"},{"name":"_addressListRegistry","type":"address","internalType":"address"},{"name":"_allowedMakersListId","type":"uint256","internalType":"uint256"}],"stateMutability":"nonpayable"},{"type":"function","name":"getIntegrationManager","inputs":[],"outputs":[{"name":"integrationManager_","type":"address","internalType":"address"}],"stateMutability":"view"},{"type":"function","name":"isAllowedMaker","inputs":[{"name":"_who","type":"address","internalType":"address"}],"outputs":[{"name":"isAllowedMaker_","type":"bool","internalType":"bool"}],"stateMutability":"view"},{"type":"function","name":"parseAssetsForAction","inputs":[{"name":"","type":"address","internalType":"address"},{"name":"_selector","type":"bytes4","internalType":"bytes4"},{"name":"_actionData","type":"bytes","internalType":"bytes"}],"outputs":[{"name":"spendAssetsHandleType_","type":"uint8","internalType":"enum IIntegrationManager.SpendAssetsHandleType"},{"name":"spendAssets_","type":"address[]","internalType":"address[]"},{"name":"spendAssetAmounts_","type":"uint256[]","internalType":"uint256[]"},{"name":"incomingAssets_","type":"address[]","internalType":"address[]"},{"name":"minIncomingAssetAmounts_","type":"uint256[]","internalType":"uint256[]"}],"stateMutability":"view"},{"type":"function","name":"takeOrder","inputs":[{"name":"_vaultProxy","type":"address","internalType":"address"},{"name":"_actionData","type":"bytes","internalType":"bytes"},{"name":"_assetData","type":"bytes","internalType":"bytes"}],"outputs":[],"stateMutability":"nonpayable"}],"bytecode":{"object":"0x6101006040523480156200001257600080fd5b50604051620021113803806200211183398101604081905262000035916200007d565b6001600160601b0319606094851b811660805292841b831660a052921b1660c05260e052620000d1565b80516001600160a01b03811681146200007757600080fd5b92915050565b6000806000806080858703121562000093578384fd5b6200009f86866200005f565b9350620000b086602087016200005f565b9250620000c186604087016200005f565b6060959095015193969295505050565b60805160601c60a05160601c60c05160601c60e051611fe36200012e6000398061064752806106b152508061068452508061078e52806107f252806108b152806108f6528061095d52806109a55250806106215250611fe36000f3fe608060405234801561001057600080fd5b506004361061004c5760003560e01c806303e38a2b14610051578063c54efee514610066578063e7c4569014610093578063ff7ede37146100a8575b600080fd5b61006461005f366004611320565b6100c8565b005b6100796100743660046112b1565b61022f565b60405161008a95949392919061199d565b60405180910390f35b61009b61061f565b60405161008a919061194b565b6100bb6100b6366004611295565b610643565b60405161008a9190611992565b8482828080601f0160208091040260200160405190810160405280939291908181526020018383808284376000920182905250604080516020601f8c018190048102820181019092528a81526060955091935083925061014391908b908b908190840183828082843760009201919091525061073192505050565b91945092509050600081600281111561015857fe5b141561018d57610166611006565b61016e61106a565b61017785610757565b91509150610186828286610784565b5050610208565b600181600281111561019b57fe5b14156101c9576101a9611093565b6101b161106a565b6101ba85610883565b915091506101868282866108a7565b60028160028111156101d757fe5b1415610208576101e56110e7565b6101ed61106a565b6101f68561092f565b91509150610205828286610953565b50505b505050606061021682610a63565b925050506102248382610a7c565b505050505050505050565b600060608080806001600160e01b031988166303e38a2b60e01b1461026f5760405162461bcd60e51b815260040161026690611c6c565b60405180910390fd5b60606000806102b38a8a8080601f01602080910402602001604051908101604052809392919081815260200183838082843760009201919091525061073192505050565b6040805160018082528183019092529396506001600160801b0392909216945092506020808301908036833750506040805160018082528183019092529297509050602080830190803683375050604080516001808252818301909252929650905060208083019080368337505060408051600180825281830190925292995090506020808301908036833701905050955060008080808085600281111561035757fe5b141561041257610365611006565b61036e88610757565b5090508060a00151945080604001516001600160801b0316935080600001518a60008151811061039a57fe5b60200260200101906001600160a01b031690816001600160a01b03168152505080602001518c6000815181106103cc57fe5b60200260200101906001600160a01b031690816001600160a01b03168152505080606001516001600160801b0316925080608001516001600160801b031691505061056c565b600185600281111561042057fe5b14156104c15761042e611093565b61043788610883565b5090508060800151945080604001516001600160801b0316935080600001518a60008151811061046357fe5b60200260200101906001600160a01b031690816001600160a01b03168152505080602001518c60008151811061049557fe5b6001600160a01b0390921660209283029190910190910152606001516001600160801b0316915061056c565b60028560028111156104cf57fe5b141561056c576104dd6110e7565b6104e68861092f565b5090508060800151945080604001516001600160801b0316935080600001518a60008151811061051257fe5b60200260200101906001600160a01b031690816001600160a01b03168152505080602001518c60008151811061054457fe5b6001600160a01b0390921660209283029190910190910152606001516001600160801b031691505b61057584610643565b6105915760405162461bcd60e51b815260040161026690611ae8565b80156105ca576105ac6105a5838389610bd8565b8790610bf8565b8a6000815181106105b957fe5b6020026020010181815250506105e5565b858a6000815181106105d857fe5b6020026020010181815250505b6105f0828488610bd8565b886000815181106105fd57fe5b60200260200101818152505060029b5050505050505050945094509450945094565b7f000000000000000000000000000000000000000000000000000000000000000090565b60007f0000000000000000000000000000000000000000000000000000000000000000158061072b57506040516307158c8160e21b81526001600160a01b037f00000000000000000000000000000000000000000000000000000000000000001690631c563204906106db907f0000000000000000000000000000000000000000000000000000000000000000908690600401611f1f565b60206040518083038186803b1580156106f357600080fd5b505afa158015610707573d6000803e3d6000fd5b505050506040513d601f19601f8201168201806040525081019061072b919061147a565b92915050565b60606000808380602001905181019061074a919061149a565b9250925092509193909250565b61075f611006565b61076761106a565b8280602001905181019061077b919061154a565b91509150915091565b6107db83602001517f00000000000000000000000000000000000000000000000000000000000000006107d686608001516001600160801b0316856001600160801b0316610bf890919063ffffffff16565b610c1d565b60405163249014a760e21b81526001600160a01b037f00000000000000000000000000000000000000000000000000000000000000001690639240529c9061082b90869086908690600401611cb3565b602060405180830381600087803b15801561084557600080fd5b505af1158015610859573d6000803e3d6000fd5b505050506040513d601f19601f8201168201806040525081019061087d91906117f9565b50505050565b61088b611093565b61089361106a565b8280602001905181019061077b919061171a565b6108df83602001517f0000000000000000000000000000000000000000000000000000000000000000836001600160801b0316610c1d565b60405163438cdfc560e01b81526001600160a01b037f0000000000000000000000000000000000000000000000000000000000000000169063438cdfc59061082b90869086908690600401611e53565b6109376110e7565b61093f61106a565b8280602001905181019061077b919061165a565b61098b83602001517f0000000000000000000000000000000000000000000000000000000000000000836001600160801b0316610c1d565b6040516336b1d23560e21b81526000906001600160a01b037f0000000000000000000000000000000000000000000000000000000000000000169063dac748d4906109de90879087908790600401611da8565b6040805180830381600087803b1580156109f757600080fd5b505af1158015610a0b573d6000803e3d6000fd5b505050506040513d601f19601f82011682018060405250810190610a2f9190611814565b509050816001600160801b0316816001600160801b03161461087d5760405162461bcd60e51b815260040161026690611b6f565b60608060608380602001905181019061074a91906113a0565b6060815167ffffffffffffffff81118015610a9657600080fd5b50604051908082528060200260200182016040528015610ac0578160200160208202803683370190505b50905060005b8251811015610bd1576000838281518110610add57fe5b60200260200101519050806001600160a01b03166370a08231306040518263ffffffff1660e01b8152600401610b13919061194b565b60206040518083038186803b158015610b2b57600080fd5b505afa158015610b3f573d6000803e3d6000fd5b505050506040513d601f19601f82011682018060405250810190610b63919061184d565b838381518110610b6f57fe5b6020026020010181815250506000838381518110610b8957fe5b60200260200101511115610bc857610bc885848481518110610ba757fe5b6020026020010151836001600160a01b0316610cd99092919063ffffffff16565b50600101610ac6565b5092915050565b6000610bee84610be88486610cf1565b90610d2b565b90505b9392505050565b600082820183811015610bf15760405162461bcd60e51b815260040161026690611a39565b604051636eb1769f60e11b81526000906001600160a01b0385169063dd62ed3e90610c4e903090879060040161195f565b60206040518083038186803b158015610c6657600080fd5b505afa158015610c7a573d6000803e3d6000fd5b505050506040513d601f19601f82011682018060405250810190610c9e919061184d565b90508181101561087d578015610cc357610cc36001600160a01b038516846000610d5d565b61087d6001600160a01b03851684600019610d5d565b610cec610ce584610d70565b8383610d73565b505050565b600082610d005750600061072b565b82820282848281610d0d57fe5b0414610bf15760405162461bcd60e51b815260040161026690611aa7565b6000808211610d4c5760405162461bcd60e51b815260040161026690611a70565b818381610d5557fe5b049392505050565b610cec610d6984610d70565b8383610dc9565b90565b610cec8363a9059cbb60e01b8484604051602401610d92929190611979565b60408051601f198184030181529190526020810180516001600160e01b03166001600160e01b031990931692909217909152610e8c565b801580610e515750604051636eb1769f60e11b81526001600160a01b0384169063dd62ed3e90610dff903090869060040161195f565b60206040518083038186803b158015610e1757600080fd5b505afa158015610e2b573d6000803e3d6000fd5b505050506040513d601f19601f82011682018060405250810190610e4f919061184d565b155b610e6d5760405162461bcd60e51b815260040161026690611c16565b610cec8363095ea7b360e01b8484604051602401610d92929190611979565b6060610ee1826040518060400160405280602081526020017f5361666545524332303a206c6f772d6c6576656c2063616c6c206661696c6564815250856001600160a01b0316610f1b9092919063ffffffff16565b805190915015610cec5780806020019051810190610eff919061147a565b610cec5760405162461bcd60e51b815260040161026690611bcc565b6060610bee848460008585610f2f85610fc7565b610f4b5760405162461bcd60e51b815260040161026690611b38565b60006060866001600160a01b03168587604051610f68919061192f565b60006040518083038185875af1925050503d8060008114610fa5576040519150601f19603f3d011682016040523d82523d6000602084013e610faa565b606091505b5091509150610fba828286610fcd565b925050505b949350505050565b3b151590565b60608315610fdc575081610bf1565b825115610fec5782518084602001fd5b8160405162461bcd60e51b81526004016102669190611a06565b6040805161018081018252600080825260208201819052918101829052606081018290526080810182905260a0810182905260c0810182905260e0810182905261010081018290526101208101829052610140810182905261016081019190915290565b604080516080810190915280600081526000602082018190526040820181905260609091015290565b6040805161014081018252600080825260208201819052918101829052606081018290526080810182905260a0810182905260c0810182905260e08101829052610100810182905261012081019190915290565b6040805161010081018252600080825260208201819052918101829052606081018290526080810182905260a0810182905260c0810182905260e081019190915290565b805161072b81611fa9565b600082601f830112611146578081fd5b815161115961115482611f5d565b611f36565b81815291506020808301908481018184028601820187101561117a57600080fd5b60005b848110156111a257815161119081611fa9565b8452928201929082019060010161117d565b505050505092915050565b60008083601f8401126111be578182fd5b50813567ffffffffffffffff8111156111d5578182fd5b6020830191508360208285010111156111ed57600080fd5b9250929050565b80516003811061072b57600080fd5b600060808284031215611214578081fd5b61121e6080611f36565b905081516005811061122f57600080fd5b8152602082015160ff8116811461124557600080fd5b80602083015250604082015160408201526060820151606082015292915050565b80516001600160801b038116811461072b57600080fd5b805167ffffffffffffffff8116811461072b57600080fd5b6000602082840312156112a6578081fd5b8135610bf181611fa9565b600080600080606085870312156112c6578283fd5b84356112d181611fa9565b935060208501356001600160e01b0319811681146112ed578384fd5b9250604085013567ffffffffffffffff811115611308578283fd5b611314878288016111ad565b95989497509550505050565b600080600080600060608688031215611337578283fd5b853561134281611fa9565b9450602086013567ffffffffffffffff8082111561135e578485fd5b61136a89838a016111ad565b90965094506040880135915080821115611382578283fd5b5061138f888289016111ad565b969995985093965092949392505050565b6000806000606084860312156113b4578081fd5b835167ffffffffffffffff808211156113cb578283fd5b6113d787838801611136565b94506020915081860151818111156113ed578384fd5b8601601f810188136113fd578384fd5b805161140b61115482611f5d565b81815284810190838601868402850187018c1015611427578788fd5b8794505b8385101561144957805183526001949094019391860191860161142b565b5060408a0151909750945050505080821115611463578283fd5b5061147086828701611136565b9150509250925092565b60006020828403121561148b578081fd5b81518015158114610bf1578182fd5b6000806000606084860312156114ae578081fd5b835167ffffffffffffffff808211156114c5578283fd5b818601915086601f8301126114d8578283fd5b8151818111156114e6578384fd5b6114f9601f8201601f1916602001611f36565b915080825287602082850101111561150f578384fd5b611520816020840160208601611f7d565b50935061153290508560208601611266565b915061154185604086016111f4565b90509250925092565b60008082840361020081121561155e578283fd5b6101808082121561156d578384fd5b61157681611f36565b9150611582868661112b565b8252611591866020870161112b565b60208301526115a38660408701611266565b60408301526115b58660608701611266565b60608301526115c78660808701611266565b60808301526115d98660a0870161112b565b60a08301526115eb8660c0870161112b565b60c08301526115fd8660e0870161112b565b60e08301526101006116118782880161112b565b90830152610120858101519083015261014061162f8782880161127d565b818401525061016080860151818401525081935061164f86828701611203565b925050509250929050565b60008082840361018081121561166e578283fd5b6101008082121561167d578384fd5b61168681611f36565b9150845161169381611fa9565b82526116a2866020870161112b565b60208301526116b48660408701611266565b60408301526116c68660608701611266565b60608301526116d8866080870161112b565b60808301526116ea8660a0870161112b565b60a08301526116fc8660c0870161112b565b60c083015260e085015160e083015281935061164f86828701611203565b6000808284036101c081121561172e578283fd5b6101408082121561173d578384fd5b61174681611f36565b9150611752868661112b565b8252611761866020870161112b565b60208301526117738660408701611266565b60408301526117858660608701611266565b6060830152611797866080870161112b565b60808301526117a98660a0870161112b565b60a08301526117bb8660c0870161112b565b60c083015260e085015160e08301526101006117d98782880161127d565b818401525061012080860151818401525081935061164f86828701611203565b60006020828403121561180a578081fd5b610bf18383611266565b60008060408385031215611826578182fd5b825161183181611fc1565b602084015190925061184281611fc1565b809150509250929050565b60006020828403121561185e578081fd5b5051919050565b6001600160a01b03169052565b6000815180845260208085019450808401835b838110156118aa5781516001600160a01b031687529582019590820190600101611885565b509495945050505050565b6000815180845260208085019450808401835b838110156118aa578151875295820195908201906001016118c8565b8051600581106118f057fe5b825260208181015160ff169083015260408082015190830152606090810151910152565b6001600160801b03169052565b67ffffffffffffffff169052565b60008251611941818460208701611f7d565b9190910192915050565b6001600160a01b0391909116815260200190565b6001600160a01b0392831681529116602082015260400190565b6001600160a01b03929092168252602082015260400190565b901515815260200190565b6000600387106119a957fe5b86825260a060208301526119c060a0830187611872565b82810360408401526119d281876118b5565b905082810360608401526119e68186611872565b905082810360808401526119fa81856118b5565b98975050505050505050565b6000602082528251806020840152611a25816040850160208701611f7d565b601f01601f19169190910160400192915050565b6020808252601b908201527f536166654d6174683a206164646974696f6e206f766572666c6f770000000000604082015260600190565b6020808252601a908201527f536166654d6174683a206469766973696f6e206279207a65726f000000000000604082015260600190565b60208082526021908201527f536166654d6174683a206d756c7469706c69636174696f6e206f766572666c6f6040820152607760f81b606082015260800190565b60208082526030908201527f7061727365417373657473466f72416374696f6e3a204f72646572206d616b6560408201526f1c881a5cc81b9bdd08185b1b1bddd95960821b606082015260800190565b6020808252601d908201527f416464726573733a2063616c6c20746f206e6f6e2d636f6e7472616374000000604082015260600190565b60208082526037908201527f5f5f7a65726f4578563454616b654f74634f726465723a20696e73756666696360408201527f69656e742074616b65722061737365742066696c6c6564000000000000000000606082015260800190565b6020808252602a908201527f5361666545524332303a204552433230206f7065726174696f6e20646964206e6040820152691bdd081cdd58d8d9595960b21b606082015260800190565b60208082526036908201527f5361666545524332303a20617070726f76652066726f6d206e6f6e2d7a65726f60408201527520746f206e6f6e2d7a65726f20616c6c6f77616e636560501b606082015260800190565b60208082526027908201527f7061727365417373657473466f72416374696f6e3a205f73656c6563746f72206040820152661a5b9d985b1a5960ca1b606082015260800190565b600061022082019050611cc7828651611865565b6020850151611cd96020840182611865565b506040850151611cec6040840182611914565b506060850151611cff6060840182611914565b506080850151611d126080840182611914565b5060a0850151611d2560a0840182611865565b5060c0850151611d3860c0840182611865565b5060e0850151611d4b60e0840182611865565b5061010080860151611d5f82850182611865565b5050610120858101519083015261014080860151611d7f82850182611921565b50506101608581015190830152611d9a6101808301856118e4565b610fbf610200830184611914565b83516001600160a01b031681526020808501516101a0830191611dcd90840182611865565b506040850151611de06040840182611914565b506060850151611df36060840182611914565b506080850151611e066080840182611865565b5060a0850151611e1960a0840182611865565b5060c0850151611e2c60c0840182611865565b5060e085015160e0830152611e456101008301856118e4565b610fbf610180830184611914565b60006101e082019050611e67828651611865565b6020850151611e796020840182611865565b506040850151611e8c6040840182611914565b506060850151611e9f6060840182611914565b506080850151611eb26080840182611865565b5060a0850151611ec560a0840182611865565b5060c0850151611ed860c0840182611865565b5060e085015160e083015261010080860151611ef682850182611921565b50506101208581015190830152611f116101408301856118e4565b610fbf6101c0830184611914565b9182526001600160a01b0316602082015260400190565b60405181810167ffffffffffffffff81118282101715611f5557600080fd5b604052919050565b600067ffffffffffffffff821115611f73578081fd5b5060209081020190565b60005b83811015611f98578181015183820152602001611f80565b8381111561087d5750506000910152565b6001600160a01b0381168114611fbe57600080fd5b50565b6001600160801b0381168114611fbe57600080fdfea164736f6c634300060c000a","linkReferences":{}},"methodIdentifiers":{"getIntegrationManager()":"e7c45690","isAllowedMaker(address)":"ff7ede37","parseAssetsForAction(address,bytes4,bytes)":"c54efee5","takeOrder(address,bytes,bytes)":"03e38a2b"},"id":184}