{"abi":[{"type":"constructor","inputs":[{"name":"_integrationManager","type":"address","internalType":"address"},{"name":"_exchange","type":"address","internalType":"address"},{"name":"_addressListRegistry","type":"address","internalType":"address"},{"name":"_allowedMakersListId","type":"uint256","internalType":"uint256"}],"stateMutability":"nonpayable"},{"type":"function","name":"getIntegrationManager","inputs":[],"outputs":[{"name":"integrationManager_","type":"address","internalType":"address"}],"stateMutability":"view"},{"type":"function","name":"isAllowedMaker","inputs":[{"name":"_who","type":"address","internalType":"address"}],"outputs":[{"name":"isAllowedMaker_","type":"bool","internalType":"bool"}],"stateMutability":"view"},{"type":"function","name":"parseAssetsForAction","inputs":[{"name":"","type":"address","internalType":"address"},{"name":"_selector","type":"bytes4","internalType":"bytes4"},{"name":"_actionData","type":"bytes","internalType":"bytes"}],"outputs":[{"name":"spendAssetsHandleType_","type":"uint8","internalType":"enum IIntegrationManager.SpendAssetsHandleType"},{"name":"spendAssets_","type":"address[]","internalType":"address[]"},{"name":"spendAssetAmounts_","type":"uint256[]","internalType":"uint256[]"},{"name":"incomingAssets_","type":"address[]","internalType":"address[]"},{"name":"minIncomingAssetAmounts_","type":"uint256[]","internalType":"uint256[]"}],"stateMutability":"view"},{"type":"function","name":"takeOrder","inputs":[{"name":"_vaultProxy","type":"address","internalType":"address"},{"name":"_actionData","type":"bytes","internalType":"bytes"},{"name":"_assetData","type":"bytes","internalType":"bytes"}],"outputs":[],"stateMutability":"nonpayable"}],"bytecode":{"object":"0x6101006040523480156200001257600080fd5b506040516200252e3803806200252e83398101604081905262000035916200007f565b6001600160601b0319606094851b811660805292841b831660a052921b1660c05260e05262000123565b80516200006c81620000fe565b92915050565b80516200006c8162000118565b600080600080608085870312156200009657600080fd5b6000620000a487876200005f565b9450506020620000b7878288016200005f565b9350506040620000ca878288016200005f565b9250506060620000dd8782880162000072565b91505092959194509250565b60006001600160a01b0382166200006c565b90565b6200010981620000e9565b81146200011557600080fd5b50565b6200010981620000fb565b60805160601c60a05160601c60c05160601c60e0516123ae620001806000398061064752806106b152508061068452508061079052806107f452806108b352806108f8528061095f52806109a752508061062152506123ae6000f3fe608060405234801561001057600080fd5b506004361061004c5760003560e01c806303e38a2b14610051578063c54efee514610066578063e7c4569014610093578063ff7ede37146100a8575b600080fd5b61006461005f3660046116dc565b6100c8565b005b610079610074366004611675565b61022f565b60405161008a959493929190612068565b60405180910390f35b61009b61061f565b60405161008a9190612016565b6100bb6100b6366004611657565b610643565b60405161008a919061205a565b8482828080601f0160208091040260200160405190810160405280939291908181526020018383808284376000920182905250604080516020601f8c018190048102820181019092528a81526060955091935083925061014391908b908b908190840183828082843760009201919091525061073392505050565b91945092509050600081600281111561015857fe5b141561018d57610166611008565b61016e61106c565b61017785610759565b91509150610186828286610786565b5050610208565b600181600281111561019b57fe5b14156101c9576101a9611095565b6101b161106c565b6101ba85610885565b915091506101868282866108a9565b60028160028111156101d757fe5b1415610208576101e56110e9565b6101ed61106c565b6101f685610931565b91509150610205828286610955565b50505b505050606061021682610a65565b925050506102248382610a7e565b505050505050505050565b600060608080806001600160e01b031988166303e38a2b60e01b1461026f5760405162461bcd60e51b815260040161026690612160565b60405180910390fd5b60606000806102b38a8a8080601f01602080910402602001604051908101604052809392919081815260200183838082843760009201919091525061073392505050565b6040805160018082528183019092529396506001600160801b0392909216945092506020808301908036833750506040805160018082528183019092529297509050602080830190803683375050604080516001808252818301909252929650905060208083019080368337505060408051600180825281830190925292995090506020808301908036833701905050955060008080808085600281111561035757fe5b141561041257610365611008565b61036e88610759565b5090508060a00151945080604001516001600160801b0316935080600001518a60008151811061039a57fe5b60200260200101906001600160a01b031690816001600160a01b03168152505080602001518c6000815181106103cc57fe5b60200260200101906001600160a01b031690816001600160a01b03168152505080606001516001600160801b0316925080608001516001600160801b031691505061056c565b600185600281111561042057fe5b14156104c15761042e611095565b61043788610885565b5090508060800151945080604001516001600160801b0316935080600001518a60008151811061046357fe5b60200260200101906001600160a01b031690816001600160a01b03168152505080602001518c60008151811061049557fe5b6001600160a01b0390921660209283029190910190910152606001516001600160801b0316915061056c565b60028560028111156104cf57fe5b141561056c576104dd6110e9565b6104e688610931565b5090508060800151945080604001516001600160801b0316935080600001518a60008151811061051257fe5b60200260200101906001600160a01b031690816001600160a01b03168152505080602001518c60008151811061054457fe5b6001600160a01b0390921660209283029190910190910152606001516001600160801b031691505b61057584610643565b6105915760405162461bcd60e51b815260040161026690612110565b80156105ca576105ac6105a5838389610bda565b8790610bfa565b8a6000815181106105b957fe5b6020026020010181815250506105e5565b858a6000815181106105d857fe5b6020026020010181815250505b6105f0828488610bda565b886000815181106105fd57fe5b60200260200101818152505060029b5050505050505050945094509450945094565b7f000000000000000000000000000000000000000000000000000000000000000090565b60007f0000000000000000000000000000000000000000000000000000000000000000158061072b57506040516307158c8160e21b81526001600160a01b037f00000000000000000000000000000000000000000000000000000000000000001690631c563204906106db907f00000000000000000000000000000000000000000000000000000000000000009086906004016121f1565b60206040518083038186803b1580156106f357600080fd5b505afa158015610707573d6000803e3d6000fd5b505050506040513d601f19601f8201168201806040525081019061072b91906117f2565b90505b919050565b60606000808380602001905181019061074c9190611810565b9250925092509193909250565b610761611008565b61076961106c565b8280602001905181019061077d9190611869565b91509150915091565b6107dd83602001517f00000000000000000000000000000000000000000000000000000000000000006107d886608001516001600160801b0316856001600160801b0316610bfa90919063ffffffff16565b610c1f565b60405163249014a760e21b81526001600160a01b037f00000000000000000000000000000000000000000000000000000000000000001690639240529c9061082d90869086908690600401612170565b602060405180830381600087803b15801561084757600080fd5b505af115801561085b573d6000803e3d6000fd5b505050506040513d601f19601f8201168201806040525081019061087f9190611909565b50505050565b61088d611095565b61089561106c565b8280602001905181019061077d91906118d7565b6108e183602001517f0000000000000000000000000000000000000000000000000000000000000000836001600160801b0316610c1f565b60405163438cdfc560e01b81526001600160a01b037f0000000000000000000000000000000000000000000000000000000000000000169063438cdfc59061082d908690869086906004016121c6565b6109396110e9565b61094161106c565b8280602001905181019061077d91906118a5565b61098d83602001517f0000000000000000000000000000000000000000000000000000000000000000836001600160801b0316610c1f565b6040516336b1d23560e21b81526000906001600160a01b037f0000000000000000000000000000000000000000000000000000000000000000169063dac748d4906109e09087908790879060040161219b565b6040805180830381600087803b1580156109f957600080fd5b505af1158015610a0d573d6000803e3d6000fd5b505050506040513d601f19601f82011682018060405250810190610a319190611927565b509050816001600160801b0316816001600160801b03161461087f5760405162461bcd60e51b815260040161026690612130565b60608060608380602001905181019061074c9190611761565b606081516001600160401b0381118015610a9757600080fd5b50604051908082528060200260200182016040528015610ac1578160200160208202803683370190505b50905060005b8251811015610bd2576000838281518110610ade57fe5b60200260200101519050806001600160a01b03166370a08231306040518263ffffffff1660e01b8152600401610b149190612016565b60206040518083038186803b158015610b2c57600080fd5b505afa158015610b40573d6000803e3d6000fd5b505050506040513d601f19601f82011682018060405250810190610b649190611957565b838381518110610b7057fe5b6020026020010181815250506000838381518110610b8a57fe5b60200260200101511115610bc957610bc985848481518110610ba857fe5b6020026020010151836001600160a01b0316610cdb9092919063ffffffff16565b50600101610ac7565b505b92915050565b6000610bf084610bea8486610cf3565b90610d2d565b90505b9392505050565b600082820183811015610bf35760405162461bcd60e51b8152600401610266906120e0565b604051636eb1769f60e11b81526000906001600160a01b0385169063dd62ed3e90610c509030908790600401612024565b60206040518083038186803b158015610c6857600080fd5b505afa158015610c7c573d6000803e3d6000fd5b505050506040513d601f19601f82011682018060405250810190610ca09190611957565b90508181101561087f578015610cc557610cc56001600160a01b038516846000610d5f565b61087f6001600160a01b03851684600019610d5f565b610cee610ce784610d72565b8383610d75565b505050565b600082610d0257506000610bd4565b82820282848281610d0f57fe5b0414610bf35760405162461bcd60e51b815260040161026690612100565b6000808211610d4e5760405162461bcd60e51b8152600401610266906120f0565b818381610d5757fe5b049392505050565b610cee610d6b84610d72565b8383610dcb565b90565b610cee8363a9059cbb60e01b8484604051602401610d9492919061203f565b60408051601f198184030181529190526020810180516001600160e01b03166001600160e01b031990931692909217909152610e8e565b801580610e535750604051636eb1769f60e11b81526001600160a01b0384169063dd62ed3e90610e019030908690600401612024565b60206040518083038186803b158015610e1957600080fd5b505afa158015610e2d573d6000803e3d6000fd5b505050506040513d601f19601f82011682018060405250810190610e519190611957565b155b610e6f5760405162461bcd60e51b815260040161026690612150565b610cee8363095ea7b360e01b8484604051602401610d9492919061203f565b6060610ee3826040518060400160405280602081526020017f5361666545524332303a206c6f772d6c6576656c2063616c6c206661696c6564815250856001600160a01b0316610f1d9092919063ffffffff16565b805190915015610cee5780806020019051810190610f0191906117f2565b610cee5760405162461bcd60e51b815260040161026690612140565b6060610bf0848460008585610f3185610fc9565b610f4d5760405162461bcd60e51b815260040161026690612120565b60006060866001600160a01b03168587604051610f6a919061200a565b60006040518083038185875af1925050503d8060008114610fa7576040519150601f19603f3d011682016040523d82523d6000602084013e610fac565b606091505b5091509150610fbc828286610fcf565b925050505b949350505050565b3b151590565b60608315610fde575081610bf3565b825115610fee5782518084602001fd5b8160405162461bcd60e51b815260040161026691906120cf565b6040805161018081018252600080825260208201819052918101829052606081018290526080810182905260a0810182905260c0810182905260e0810182905261010081018290526101208101829052610140810182905261016081019190915290565b604080516080810190915280600081526000602082018190526040820181905260609091015290565b6040805161014081018252600080825260208201819052918101829052606081018290526080810182905260a0810182905260c0810182905260e08101829052610100810182905261012081019190915290565b6040805161010081018252600080825260208201819052918101829052606081018290526080810182905260a0810182905260c0810182905260e081019190915290565b8035610bd48161233d565b8051610bd48161233d565b600082601f83011261115457600080fd5b815161116761116282612225565b6121ff565b9150818183526020840193506020810190508385602084028201111561118c57600080fd5b60005b838110156111b857816111a28882611138565b845250602092830192919091019060010161118f565b5050505092915050565b600082601f8301126111d357600080fd5b81516111e161116282612225565b9150818183526020840193506020810190508385602084028201111561120657600080fd5b60005b838110156111b8578161121c888261123d565b8452506020928301929190910190600101611209565b8051610bd481612351565b8051610bd48161235a565b8035610bd481612363565b60008083601f84011261126557600080fd5b5081356001600160401b0381111561127c57600080fd5b60208301915083600182028301111561129457600080fd5b9250929050565b600082601f8301126112ac57600080fd5b81516112ba61116282612245565b915080825260208301602083018583830111156112d657600080fd5b6112e18382846122f0565b50505092915050565b8051610bd48161236c565b8051610bd481612379565b6000610180828403121561131357600080fd5b61131e6101806121ff565b9050600061132c8484611138565b825250602061133d84848301611138565b602083015250604061135184828501611636565b604083015250606061136584828501611636565b606083015250608061137984828501611636565b60808301525060a061138d84828501611138565b60a08301525060c06113a184828501611138565b60c08301525060e06113b584828501611138565b60e0830152506101006113ca84828501611138565b610100830152506101206113e08482850161123d565b610120830152506101406113f684828501611641565b6101408301525061016061140c8482850161123d565b6101608301525092915050565b6000610100828403121561142c57600080fd5b6114376101006121ff565b905060006114458484611138565b825250602061145684848301611138565b602083015250604061146a84828501611636565b604083015250606061147e84828501611636565b606083015250608061149284828501611138565b60808301525060a06114a684828501611138565b60a08301525060c06114ba84828501611138565b60c08301525060e06114ce8482850161123d565b60e08301525092915050565b600061014082840312156114ed57600080fd5b6114f86101406121ff565b905060006115068484611138565b825250602061151784848301611138565b602083015250604061152b84828501611636565b604083015250606061153f84828501611636565b606083015250608061155384828501611138565b60808301525060a061156784828501611138565b60a08301525060c061157b84828501611138565b60c08301525060e061158f8482850161123d565b60e0830152506101006115a484828501611641565b610100830152506101206115ba8482850161123d565b6101208301525092915050565b6000608082840312156115d957600080fd5b6115e360806121ff565b905060006115f184846112f5565b82525060206116028484830161164c565b60208301525060406116168482850161123d565b604083015250606061162a8482850161123d565b60608301525092915050565b8051610bd481612386565b8051610bd48161238f565b8051610bd481612398565b60006020828403121561166957600080fd5b6000610fc1848461112d565b6000806000806060858703121561168b57600080fd5b6000611697878761112d565b94505060206116a887828801611248565b93505060408501356001600160401b038111156116c457600080fd5b6116d087828801611253565b95989497509550505050565b6000806000806000606086880312156116f457600080fd5b6000611700888861112d565b95505060208601356001600160401b0381111561171c57600080fd5b61172888828901611253565b945094505060408601356001600160401b0381111561174657600080fd5b61175288828901611253565b92509250509295509295909350565b60008060006060848603121561177657600080fd5b83516001600160401b0381111561178c57600080fd5b61179886828701611143565b93505060208401516001600160401b038111156117b457600080fd5b6117c0868287016111c2565b92505060408401516001600160401b038111156117dc57600080fd5b6117e886828701611143565b9150509250925092565b60006020828403121561180457600080fd5b6000610fc18484611232565b60008060006060848603121561182557600080fd5b83516001600160401b0381111561183b57600080fd5b6118478682870161129b565b935050602061185886828701611636565b92505060406117e8868287016112ea565b600080610200838503121561187d57600080fd5b60006118898585611300565b92505061018061189b858286016115c7565b9150509250929050565b60008061018083850312156118b957600080fd5b60006118c58585611419565b92505061010061189b858286016115c7565b6000806101c083850312156118eb57600080fd5b60006118f785856114da565b92505061014061189b858286016115c7565b60006020828403121561191b57600080fd5b6000610fc18484611636565b6000806040838503121561193a57600080fd5b60006119468585611636565b925050602061189b85828601611636565b60006020828403121561196957600080fd5b6000610fc1848461123d565b60006119818383611995565b505060200190565b60006119818383611a54565b61199e8161227f565b82525050565b60006119af82612272565b6119b98185612276565b93506119c48361226c565b8060005b838110156119f25781516119dc8882611975565b97506119e78361226c565b9250506001016119c8565b509495945050505050565b6000611a0882612272565b611a128185612276565b9350611a1d8361226c565b8060005b838110156119f2578151611a358882611989565b9750611a408361226c565b925050600101611a21565b61199e8161228a565b61199e81610d72565b6000611a6882612272565b611a72818561072e565b9350611a828185602086016122f0565b9290920192915050565b61199e816122da565b61199e816122e5565b6000611aa982612272565b611ab38185612276565b9350611ac38185602086016122f0565b611acc8161231c565b9093019392505050565b6000611ae3601b83612276565b7f536166654d6174683a206164646974696f6e206f766572666c6f770000000000815260200192915050565b6000611b1c601a83612276565b7f536166654d6174683a206469766973696f6e206279207a65726f000000000000815260200192915050565b6000611b55602183612276565b7f536166654d6174683a206d756c7469706c69636174696f6e206f766572666c6f8152607760f81b602082015260400192915050565b6000611b98603083612276565b7f7061727365417373657473466f72416374696f6e3a204f72646572206d616b6581526f1c881a5cc81b9bdd08185b1b1bddd95960821b602082015260400192915050565b6000611bea601d83612276565b7f416464726573733a2063616c6c20746f206e6f6e2d636f6e7472616374000000815260200192915050565b6000611c23603783612276565b7f5f5f7a65726f4578563454616b654f74634f726465723a20696e73756666696381527f69656e742074616b65722061737365742066696c6c6564000000000000000000602082015260400192915050565b6000611c82602a83612276565b7f5361666545524332303a204552433230206f7065726174696f6e20646964206e8152691bdd081cdd58d8d9595960b21b602082015260400192915050565b6000611cce603683612276565b7f5361666545524332303a20617070726f76652066726f6d206e6f6e2d7a65726f81527520746f206e6f6e2d7a65726f20616c6c6f77616e636560501b602082015260400192915050565b6000611d26602783612276565b7f7061727365417373657473466f72416374696f6e3a205f73656c6563746f72208152661a5b9d985b1a5960ca1b602082015260400192915050565b8051610180830190611d748482611995565b506020820151611d876020850182611995565b506040820151611d9a6040850182611fef565b506060820151611dad6060850182611fef565b506080820151611dc06080850182611fef565b5060a0820151611dd360a0850182611995565b5060c0820151611de660c0850182611995565b5060e0820151611df960e0850182611995565b50610100820151611e0e610100850182611995565b50610120820151611e23610120850182611a54565b50610140820151611e38610140850182611ff8565b5061016082015161087f610160850182611a54565b8051610100830190611e5f8482611995565b506020820151611e726020850182611995565b506040820151611e856040850182611fef565b506060820151611e986060850182611fef565b506080820151611eab6080850182611995565b5060a0820151611ebe60a0850182611995565b5060c0820151611ed160c0850182611995565b5060e082015161087f60e0850182611a54565b8051610140830190611ef68482611995565b506020820151611f096020850182611995565b506040820151611f1c6040850182611fef565b506060820151611f2f6060850182611fef565b506080820151611f426080850182611995565b5060a0820151611f5560a0850182611995565b5060c0820151611f6860c0850182611995565b5060e0820151611f7b60e0850182611a54565b50610100820151611f90610100850182611ff8565b5061012082015161087f610120850182611a54565b80516080830190611fb68482611a8c565b506020820151611fc96020850182612001565b506040820151611fdc6040850182611a54565b50606082015161087f6060850182611a54565b61199e816122b0565b61199e816122c8565b61199e816122d4565b6000610bf38284611a5d565b60208101610bd48284611995565b604081016120328285611995565b610bf36020830184611995565b6040810161204d8285611995565b610bf36020830184611a54565b60208101610bd48284611a4b565b60a081016120768288611a95565b818103602083015261208881876119a4565b9050818103604083015261209c81866119fd565b905081810360608301526120b081856119a4565b905081810360808301526120c481846119fd565b979650505050505050565b60208082528101610bf38184611a9e565b6020808252810161072b81611ad6565b6020808252810161072b81611b0f565b6020808252810161072b81611b48565b6020808252810161072b81611b8b565b6020808252810161072b81611bdd565b6020808252810161072b81611c16565b6020808252810161072b81611c75565b6020808252810161072b81611cc1565b6020808252810161072b81611d19565b610220810161217f8286611d62565b61218d610180830185611fa5565b610fc1610200830184611fef565b6101a081016121aa8286611e4d565b6121b8610100830185611fa5565b610fc1610180830184611fef565b6101e081016121d58286611ee4565b6121e3610140830185611fa5565b610fc16101c0830184611fef565b604081016120328285611a54565b6040518181016001600160401b038111828210171561221d57600080fd5b604052919050565b60006001600160401b0382111561223b57600080fd5b5060209081020190565b60006001600160401b0382111561225b57600080fd5b506020601f91909101601f19160190565b60200190565b5190565b90815260200190565b600061072b826122bc565b151590565b6001600160e01b03191690565b8061072e81612326565b8061072e81612333565b6001600160801b031690565b6001600160a01b031690565b6001600160401b031690565b60ff1690565b600061072b8261229c565b600061072b826122a6565b60005b8381101561230b5781810151838201526020016122f3565b8381111561087f5750506000910152565b601f01601f191690565b6005811061233057fe5b50565b6003811061233057fe5b6123468161227f565b811461233057600080fd5b6123468161228a565b61234681610d72565b6123468161228f565b6003811061233057600080fd5b6005811061233057600080fd5b612346816122b0565b612346816122c8565b612346816122d456fea164736f6c634300060c000a","linkReferences":{}},"methodIdentifiers":{"getIntegrationManager()":"e7c45690","isAllowedMaker(address)":"ff7ede37","parseAssetsForAction(address,bytes4,bytes)":"c54efee5","takeOrder(address,bytes,bytes)":"03e38a2b"},"id":194}