{"abi":[{"type":"constructor","inputs":[{"name":"_dispatcher","type":"address","internalType":"address"}],"stateMutability":"nonpayable"},{"type":"function","name":"addToList","inputs":[{"name":"_id","type":"uint256","internalType":"uint256"},{"name":"_items","type":"address[]","internalType":"address[]"}],"outputs":[],"stateMutability":"nonpayable"},{"type":"function","name":"areAllInAllLists","inputs":[{"name":"_ids","type":"uint256[]","internalType":"uint256[]"},{"name":"_items","type":"address[]","internalType":"address[]"}],"outputs":[{"name":"areAllInAllLists_","type":"bool","internalType":"bool"}],"stateMutability":"view"},{"type":"function","name":"areAllInList","inputs":[{"name":"_id","type":"uint256","internalType":"uint256"},{"name":"_items","type":"address[]","internalType":"address[]"}],"outputs":[{"name":"areAllInList_","type":"bool","internalType":"bool"}],"stateMutability":"view"},{"type":"function","name":"areAllInSomeOfLists","inputs":[{"name":"_ids","type":"uint256[]","internalType":"uint256[]"},{"name":"_items","type":"address[]","internalType":"address[]"}],"outputs":[{"name":"areAllInSomeOfLists_","type":"bool","internalType":"bool"}],"stateMutability":"view"},{"type":"function","name":"areAllNotInAnyOfLists","inputs":[{"name":"_ids","type":"uint256[]","internalType":"uint256[]"},{"name":"_items","type":"address[]","internalType":"address[]"}],"outputs":[{"name":"areAllNotInAnyOfLists_","type":"bool","internalType":"bool"}],"stateMutability":"view"},{"type":"function","name":"areAllNotInList","inputs":[{"name":"_id","type":"uint256","internalType":"uint256"},{"name":"_items","type":"address[]","internalType":"address[]"}],"outputs":[{"name":"areAllNotInList_","type":"bool","internalType":"bool"}],"stateMutability":"view"},{"type":"function","name":"attestLists","inputs":[{"name":"_ids","type":"uint256[]","internalType":"uint256[]"},{"name":"_descriptions","type":"string[]","internalType":"string[]"}],"outputs":[],"stateMutability":"nonpayable"},{"type":"function","name":"createList","inputs":[{"name":"_owner","type":"address","internalType":"address"},{"name":"_updateType","type":"uint8","internalType":"enum IAddressListRegistry.UpdateType"},{"name":"_initialItems","type":"address[]","internalType":"address[]"}],"outputs":[{"name":"id_","type":"uint256","internalType":"uint256"}],"stateMutability":"nonpayable"},{"type":"function","name":"getDispatcher","inputs":[],"outputs":[{"name":"dispatcher_","type":"address","internalType":"address"}],"stateMutability":"view"},{"type":"function","name":"getListCount","inputs":[],"outputs":[{"name":"count_","type":"uint256","internalType":"uint256"}],"stateMutability":"view"},{"type":"function","name":"getListOwner","inputs":[{"name":"_id","type":"uint256","internalType":"uint256"}],"outputs":[{"name":"owner_","type":"address","internalType":"address"}],"stateMutability":"view"},{"type":"function","name":"getListUpdateType","inputs":[{"name":"_id","type":"uint256","internalType":"uint256"}],"outputs":[{"name":"updateType_","type":"uint8","internalType":"enum IAddressListRegistry.UpdateType"}],"stateMutability":"view"},{"type":"function","name":"isInAllLists","inputs":[{"name":"_ids","type":"uint256[]","internalType":"uint256[]"},{"name":"_item","type":"address","internalType":"address"}],"outputs":[{"name":"isInAllLists_","type":"bool","internalType":"bool"}],"stateMutability":"view"},{"type":"function","name":"isInList","inputs":[{"name":"_id","type":"uint256","internalType":"uint256"},{"name":"_item","type":"address","internalType":"address"}],"outputs":[{"name":"isInList_","type":"bool","internalType":"bool"}],"stateMutability":"view"},{"type":"function","name":"isInSomeOfLists","inputs":[{"name":"_ids","type":"uint256[]","internalType":"uint256[]"},{"name":"_item","type":"address","internalType":"address"}],"outputs":[{"name":"isInSomeOfLists_","type":"bool","internalType":"bool"}],"stateMutability":"view"},{"type":"function","name":"removeFromList","inputs":[{"name":"_id","type":"uint256","internalType":"uint256"},{"name":"_items","type":"address[]","internalType":"address[]"}],"outputs":[],"stateMutability":"nonpayable"},{"type":"function","name":"setListOwner","inputs":[{"name":"_id","type":"uint256","internalType":"uint256"},{"name":"_nextOwner","type":"address","internalType":"address"}],"outputs":[],"stateMutability":"nonpayable"},{"type":"function","name":"setListUpdateType","inputs":[{"name":"_id","type":"uint256","internalType":"uint256"},{"name":"_nextUpdateType","type":"uint8","internalType":"enum IAddressListRegistry.UpdateType"}],"outputs":[],"stateMutability":"nonpayable"},{"type":"event","name":"ItemAddedToList","inputs":[{"name":"id","type":"uint256","indexed":true,"internalType":"uint256"},{"name":"item","type":"address","indexed":false,"internalType":"address"}],"anonymous":false},{"type":"event","name":"ItemRemovedFromList","inputs":[{"name":"id","type":"uint256","indexed":true,"internalType":"uint256"},{"name":"item","type":"address","indexed":false,"internalType":"address"}],"anonymous":false},{"type":"event","name":"ListAttested","inputs":[{"name":"id","type":"uint256","indexed":true,"internalType":"uint256"},{"name":"description","type":"string","indexed":false,"internalType":"string"}],"anonymous":false},{"type":"event","name":"ListCreated","inputs":[{"name":"creator","type":"address","indexed":true,"internalType":"address"},{"name":"owner","type":"address","indexed":true,"internalType":"address"},{"name":"id","type":"uint256","indexed":false,"internalType":"uint256"},{"name":"updateType","type":"uint8","indexed":false,"internalType":"enum IAddressListRegistry.UpdateType"}],"anonymous":false},{"type":"event","name":"ListOwnerSet","inputs":[{"name":"id","type":"uint256","indexed":true,"internalType":"uint256"},{"name":"nextOwner","type":"address","indexed":true,"internalType":"address"}],"anonymous":false},{"type":"event","name":"ListUpdateTypeSet","inputs":[{"name":"id","type":"uint256","indexed":true,"internalType":"uint256"},{"name":"prevUpdateType","type":"uint8","indexed":false,"internalType":"enum IAddressListRegistry.UpdateType"},{"name":"nextUpdateType","type":"uint8","indexed":true,"internalType":"enum IAddressListRegistry.UpdateType"}],"anonymous":false}],"bytecode":{"object":"0x60a060405234801561001057600080fd5b5060405161144a38038061144a83398101604081905261002f916100d5565b606081901b6001600160601b031916608052604080518082019091526000808252602082018181528154600181018355918052825160029092027f290decd9548b62a8d60345a988386fc84ba6bc95484008f6362f93160ef3e5630180546001600160a01b039093166001600160a01b031990931692909217808355905190829060ff60a01b1916600160a01b8360038111156100c857fe5b0217905550505050610103565b6000602082840312156100e6578081fd5b81516001600160a01b03811681146100fc578182fd5b9392505050565b60805160601c61132a610120600039806109c0525061132a6000f3fe608060405234801561001057600080fd5b50600436106101165760003560e01c806375674f46116100a2578063afc8dd6111610071578063afc8dd6114610246578063b426f94614610259578063be68406e1461026c578063ebb3d5891461027f578063ee4483dc1461028757610116565b806375674f46146101fa5780638da3d7361461020d578063956e8faa14610220578063abdf62151461023357610116565b806330bdd386116100e957806330bdd3861461018c5780633a6914fe1461019f5780634446fe37146101b257806351d3a322146101c5578063539f2ab4146101da57610116565b8063107df6c51461011b57806319bcc938146101445780631c563204146101645780632ce37b1014610177575b600080fd5b61012e610129366004610f11565b61029a565b60405161013b919061106b565b60405180910390f35b610157610152366004610f72565b6102e6565b60405161013b9190611057565b61012e610172366004610f8a565b610316565b61017f610358565b60405161013b919061123c565b61012e61019a366004610f11565b61035e565b61012e6101ad366004610f11565b61039e565b61012e6101c0366004610ff8565b6103d2565b6101d86101d3366004610fae565b610413565b005b6101ed6101e8366004610f72565b610599565b60405161013b9190611076565b61012e610208366004610ec1565b6105c8565b6101d861021b366004610fae565b610613565b6101d861022e366004610f8a565b6106cc565b61012e610241366004610ff8565b61075c565b61012e610254366004610ec1565b61078f565b6101d8610267366004610e64565b6107c1565b61017f61027a366004610e01565b610893565b6101576109be565b6101d8610295366004611033565b6109e2565b6000805b82518110156102da576102c4848483815181106102b757fe5b602002602001015161078f565b6102d25760009150506102e0565b60010161029e565b50600190505b92915050565b60008082815481106102f457fe5b60009182526020909120600290910201546001600160a01b031690505b919050565b600080838154811061032457fe5b600091825260208083206001600160a01b03861684526001600290930201919091019052604090205460ff16905092915050565b60005490565b6000805b82518110156102da576103888484838151811061037b57fe5b60200260200101516105c8565b6103965760009150506102e0565b600101610362565b6000805b82518110156102da576103bb8484838151811061037b57fe5b156103ca5760009150506102e0565b6001016103a2565b6000805b82518110156102da576103fc848483815181106103ef57fe5b6020026020010151610316565b1561040b5760009150506102e0565b6001016103d6565b8261041e3382610ade565b6104435760405162461bcd60e51b815260040161043a906110ba565b60405180910390fd5b600061044e85610599565b9050600281600381111561045e57fe5b14806104755750600381600381111561047357fe5b145b6104915760405162461bcd60e51b815260040161043a90611170565b60005b83811015610591576104c1868686848181106104ac57fe5b90506020020160208101906101729190610dc2565b156105895760008087815481106104d457fe5b906000526020600020906002020160010160008787858181106104f357fe5b90506020020160208101906105089190610dc2565b6001600160a01b031681526020810191909152604001600020805460ff1916911515919091179055857f810f138e6e0ca6f5ac0bf2efc960187bce2c3b5afbb1e2d05905f2be7b3810b686868481811061055e57fe5b90506020020160208101906105739190610dc2565b6040516105809190611057565b60405180910390a25b600101610494565b505050505050565b60008082815481106105a757fe5b6000918252602090912060029091020154600160a01b900460ff1692915050565b6000805b8351811015610609576105f28482815181106105e457fe5b602002602001015184610316565b156106015760019150506102e0565b6001016105cc565b5060009392505050565b8261061e3382610ade565b61063a5760405162461bcd60e51b815260040161043a906110ba565b600061064585610599565b9050600181600381111561065557fe5b148061066c5750600381600381111561066a57fe5b145b6106885760405162461bcd60e51b815260040161043a906111b7565b6106c585858580806020026020016040519081016040528093929190818152602001838360200280828437600092019190915250610bbe92505050565b5050505050565b816106d73382610ade565b6106f35760405162461bcd60e51b815260040161043a906110ba565b816000848154811061070157fe5b6000918252602082206002919091020180546001600160a01b0319166001600160a01b039384161790556040519184169185917f2d1c424d2803af2219fba896bc3092aed0ab3f7b022f412b79562b0fc2c2907d91a3505050565b6000805b82518110156102da57610779848483815181106103ef57fe5b6107875760009150506102e0565b600101610760565b6000805b83518110156102da576107ab8482815181106105e457fe5b6107b95760009150506102e0565b600101610793565b8281146107e05760405162461bcd60e51b815260040161043a906110f1565b60005b838110156106c557610807338686848181106107fb57fe5b90506020020135610ade565b6108235760405162461bcd60e51b815260040161043a90611128565b84848281811061082f57fe5b905060200201357fddbb257b211697fab7f1ee9f59674cba284dbd7b9f6e1f3da5b645c890bf940084848481811061086357fe5b90506020028101906108759190611261565b60405161088392919061108b565b60405180910390a26001016107e3565b600061089d610358565b905060006040518060400160405280876001600160a01b031681526020018660038111156108c757fe5b905281546001810183556000928352602092839020825160029092020180546001600160a01b0319166001600160a01b0390921691909117808255928201519192909190829060ff60a01b1916600160a01b83600381111561092557fe5b02179055505050846001600160a01b0316336001600160a01b03167fc2b2d696fda57bcf0347d9ea036ce8258434f4171cd131b4c1d22a6f0ae960d28387604051610971929190611245565b60405180910390a36109b681848480806020026020016040519081016040528093929190818152602001838360200280828437600092019190915250610bbe92505050565b949350505050565b7f000000000000000000000000000000000000000000000000000000000000000090565b816109ed3382610ade565b610a095760405162461bcd60e51b815260040161043a906110ba565b6000610a1484610599565b90506000836003811115610a2457fe5b1480610a3b57506003816003811115610a3957fe5b145b610a575760405162461bcd60e51b815260040161043a906111ee565b8260008581548110610a6557fe5b60009182526020909120600290910201805460ff60a01b1916600160a01b836003811115610a8f57fe5b0217905550826003811115610aa057fe5b847f44966c6bc2b3eef1eea6958dc704bb8527d350a282589bb13dd056819bd9d64683604051610ad09190611076565b60405180910390a350505050565b600080610aea836102e6565b9050806001600160a01b0316846001600160a01b031614806109b65750610b0f6109be565b6001600160a01b0316816001600160a01b03161480156109b65750610b326109be565b6001600160a01b031663893d20e86040518163ffffffff1660e01b815260040160206040518083038186803b158015610b6a57600080fd5b505afa158015610b7e573d6000803e3d6000fd5b505050506040513d601f19601f82011682018060405250810190610ba29190610de5565b6001600160a01b0316846001600160a01b031614949350505050565b60005b8151811015610c9f57610bda838383815181106103ef57fe5b610c9757600160008481548110610bed57fe5b90600052602060002090600202016001016000848481518110610c0c57fe5b60200260200101516001600160a01b03166001600160a01b0316815260200190815260200160002060006101000a81548160ff021916908315150217905550827fb8848f994c7d66cdc76defd3606ffefb56ad840b408bf51230110196d5f4d8c4838381518110610c7957fe5b6020026020010151604051610c8e9190611057565b60405180910390a25b600101610bc1565b505050565b60008083601f840112610cb5578182fd5b50813567ffffffffffffffff811115610ccc578182fd5b6020830191508360208083028501011115610ce657600080fd5b9250929050565b600082601f830112610cfd578081fd5b8135610d10610d0b826112cd565b6112a6565b818152915060208083019084810181840286018201871015610d3157600080fd5b60005b84811015610d59578135610d47816112f8565b84529282019290820190600101610d34565b505050505092915050565b600082601f830112610d74578081fd5b8135610d82610d0b826112cd565b818152915060208083019084810181840286018201871015610da357600080fd5b60005b84811015610d5957813584529282019290820190600101610da6565b600060208284031215610dd3578081fd5b8135610dde816112f8565b9392505050565b600060208284031215610df6578081fd5b8151610dde816112f8565b60008060008060608587031215610e16578283fd5b8435610e21816112f8565b93506020850135610e3181611310565b9250604085013567ffffffffffffffff811115610e4c578283fd5b610e5887828801610ca4565b95989497509550505050565b60008060008060408587031215610e79578384fd5b843567ffffffffffffffff80821115610e90578586fd5b610e9c88838901610ca4565b90965094506020870135915080821115610eb4578384fd5b50610e5887828801610ca4565b60008060408385031215610ed3578182fd5b823567ffffffffffffffff811115610ee9578283fd5b610ef585828601610d64565b9250506020830135610f06816112f8565b809150509250929050565b60008060408385031215610f23578182fd5b823567ffffffffffffffff80821115610f3a578384fd5b610f4686838701610d64565b93506020850135915080821115610f5b578283fd5b50610f6885828601610ced565b9150509250929050565b600060208284031215610f83578081fd5b5035919050565b60008060408385031215610f9c578182fd5b823591506020830135610f06816112f8565b600080600060408486031215610fc2578283fd5b83359250602084013567ffffffffffffffff811115610fdf578283fd5b610feb86828701610ca4565b9497909650939450505050565b6000806040838503121561100a578182fd5b82359150602083013567ffffffffffffffff811115611027578182fd5b610f6885828601610ced565b60008060408385031215611045578182fd5b823591506020830135610f0681611310565b6001600160a01b0391909116815260200190565b901515815260200190565b60208101611083836112ed565b825292915050565b60006020825282602083015282846040840137818301604090810191909152601f909201601f19160101919050565b6020808252601b908201527f4f6e6c792063616c6c61626c65206279206c697374206f776e65720000000000604082015260600190565b6020808252601b908201527f6174746573744c697374733a20556e657175616c206172726179730000000000604082015260600190565b60208082526028908201527f6174746573744c697374733a204f6e6c792063616c6c61626c65206279206c6960408201526739ba1037bbb732b960c11b606082015260800190565b60208082526027908201527f72656d6f766546726f6d4c6973743a2043616e6e6f742072656d6f76652066726040820152661bdb481b1a5cdd60ca1b606082015260800190565b6020808252601d908201527f616464546f4c6973743a2043616e6e6f742061646420746f206c697374000000604082015260600190565b6020808252602e908201527f7365744c697374557064617465547970653a205f6e657874557064617465547960408201526d1c19481b9bdd08185b1b1bddd95960921b606082015260800190565b90815260200190565b82815260408101611255836112ed565b60208301529392505050565b6000808335601e19843603018112611277578283fd5b83018035915067ffffffffffffffff821115611291578283fd5b602001915036819003821315610ce657600080fd5b60405181810167ffffffffffffffff811182821017156112c557600080fd5b604052919050565b600067ffffffffffffffff8211156112e3578081fd5b5060209081020190565b806004811061031157fe5b6001600160a01b038116811461130d57600080fd5b50565b6004811061130d57600080fdfea164736f6c634300060c000a","linkReferences":{}},"methodIdentifiers":{"addToList(uint256,address[])":"8da3d736","areAllInAllLists(uint256[],address[])":"107df6c5","areAllInList(uint256,address[])":"abdf6215","areAllInSomeOfLists(uint256[],address[])":"30bdd386","areAllNotInAnyOfLists(uint256[],address[])":"3a6914fe","areAllNotInList(uint256,address[])":"4446fe37","attestLists(uint256[],string[])":"b426f946","createList(address,uint8,address[])":"be68406e","getDispatcher()":"ebb3d589","getListCount()":"2ce37b10","getListOwner(uint256)":"19bcc938","getListUpdateType(uint256)":"539f2ab4","isInAllLists(uint256[],address)":"afc8dd61","isInList(uint256,address)":"1c563204","isInSomeOfLists(uint256[],address)":"75674f46","removeFromList(uint256,address[])":"51d3a322","setListOwner(uint256,address)":"956e8faa","setListUpdateType(uint256,uint8)":"ee4483dc"},"id":56}