{"abi":[{"type":"constructor","inputs":[{"name":"_addressListRegistryAddress","type":"address","internalType":"address"},{"name":"_pendleMarketsRegistryAddress","type":"address","internalType":"address"},{"name":"_pendleOracleAddress","type":"address","internalType":"address"},{"name":"_pendlePeggedSyTokensListId","type":"uint256","internalType":"uint256"},{"name":"_pendleRouterAddress","type":"address","internalType":"address"},{"name":"_wrappedNativeAssetAddress","type":"address","internalType":"address"}],"stateMutability":"nonpayable"},{"type":"function","name":"getDebtAssets","inputs":[],"outputs":[{"name":"assets_","type":"address[]","internalType":"address[]"},{"name":"amounts_","type":"uint256[]","internalType":"uint256[]"}],"stateMutability":"pure"},{"type":"function","name":"getLPTokens","inputs":[],"outputs":[{"name":"lpTokenAddresses_","type":"address[]","internalType":"address[]"}],"stateMutability":"view"},{"type":"function","name":"getManagedAssets","inputs":[],"outputs":[{"name":"assets_","type":"address[]","internalType":"address[]"},{"name":"amounts_","type":"uint256[]","internalType":"uint256[]"}],"stateMutability":"view"},{"type":"function","name":"getPrincipalTokens","inputs":[],"outputs":[{"name":"principalTokenAddresses_","type":"address[]","internalType":"address[]"}],"stateMutability":"view"},{"type":"function","name":"init","inputs":[{"name":"","type":"bytes","internalType":"bytes"}],"outputs":[],"stateMutability":"nonpayable"},{"type":"function","name":"receiveCallFromVault","inputs":[{"name":"_actionData","type":"bytes","internalType":"bytes"}],"outputs":[],"stateMutability":"nonpayable"},{"type":"event","name":"LpTokenAdded","inputs":[{"name":"lpToken","type":"address","indexed":true,"internalType":"address"}],"anonymous":false},{"type":"event","name":"LpTokenRemoved","inputs":[{"name":"lpToken","type":"address","indexed":true,"internalType":"address"}],"anonymous":false},{"type":"event","name":"PrincipalTokenAdded","inputs":[{"name":"principalToken","type":"address","indexed":true,"internalType":"address"}],"anonymous":false},{"type":"event","name":"PrincipalTokenRemoved","inputs":[{"name":"principalToken","type":"address","indexed":true,"internalType":"address"}],"anonymous":false}],"bytecode":{"object":"0x6101406040523480156200001257600080fd5b506040516200362a3803806200362a833981016040819052620000359162000080565b6001600160a01b0395861660805293851660a05291841660c05260e0528216610100521661012052620000f8565b80516001600160a01b03811681146200007b57600080fd5b919050565b60008060008060008060c087890312156200009a57600080fd5b620000a58762000063565b9550620000b56020880162000063565b9450620000c56040880162000063565b935060608701519250620000dc6080880162000063565b9150620000ec60a0880162000063565b90509295509295509295565b60805160a05160c05160e0516101005161012051613479620001b1600039600081816108e001528181610c2201526120b601526000818161108d015281816110d1015281816111f4015281816112b5015281816113480152818161162401528181611668015281816118bf015261190601526000611db00152600081816107a50152610b84015260008181610696015281816107d101528181610a80015281816114db0152611f3101526000611de601526134796000f3fe608060405234801561001057600080fd5b50600436106100625760003560e01c80631224abfb146100675780634ddf47d41461008557806380daddb814610098578063e5c23a97146100ae578063ecd658b4146100c1578063edc24b94146100c9575b600080fd5b61006f6100d1565b60405161007c9190612adf565b60405180910390f35b610096610093366004612b8e565b50565b005b6100a0610133565b60405161007c929190612c0d565b6100966100bc366004612b8e565b610452565b6060806100a0565b61006f6104c5565b6060600180548060200260200160405190810160405280929190818152602001828054801561012957602002820191906000526020600020905b81546001600160a01b0316815260019091019060200180831161010b575b5050505050905090565b6060806000306001600160a01b031663c98091876040518163ffffffff1660e01b8152600401602060405180830381865afa158015610176573d6000803e3d6000fd5b505050506040513d601f19601f8201168201806040525081019061019a9190612c79565b90506000808054806020026020016040519081016040528092919081815260200182805480156101f357602002820191906000526020600020905b81546001600160a01b031681526001909101906020018083116101d5575b505050505090506000815190506000600180548060200260200160405190810160405280929190818152602001828054801561025857602002820191906000526020600020905b81546001600160a01b0316815260019091019060200180831161023a575b50508351939450508415915050801561026f575080155b1561027d5750505050509091565b60006102898285612cac565b6001600160401b038111156102a0576102a0612af9565b6040519080825280602002602001820160405280156102c9578160200160208202803683370190505b50905060006102d88386612cac565b6001600160401b038111156102ef576102ef612af9565b604051908082528060200260200182016040528015610318578160200160208202803683370190505b50905060005b858110156103a1576103498888838151811061033c5761033c612cbf565b6020026020010151610525565b84838151811061035b5761035b612cbf565b6020026020010184848151811061037457610374612cbf565b60209081029190910101919091526001600160a01b0390911690528061039981612cd5565b91505061031e565b5060005b838110156104375760006103b98288612cac565b90506103de898784815181106103d1576103d1612cbf565b602002602001015161090f565b8583815181106103f0576103f0612cbf565b6020026020010185848151811061040957610409612cbf565b60209081029190910101919091526001600160a01b039091169052508061042f81612cd5565b9150506103a5565b506104428282610c4f565b909a909950975050505050505050565b600080828060200190518101906104699190612d12565b9092509050816104815761047c81610f01565b505050565b600182036104925761047c81611160565b600282036104a35761047c81611495565b600382036104b45761047c816117d9565b6004820361047c5761047c81611ab7565b60606000805480602002602001604051908101604052809291908181526020018280548015610129576020028201919060005260206000209081546001600160a01b0316815260019091019060200180831161010b575050505050905090565b6040516370a0823160e01b8152306004820152600090819081906001600160a01b038516906370a0823190602401602060405180830381865afa158015610570573d6000803e3d6000fd5b505050506040513d601f19601f820116820180604052508101906105949190612d94565b90506000846001600160a01b031663afd27bf56040518163ffffffff1660e01b8152600401602060405180830381865afa1580156105d6573d6000803e3d6000fd5b505050506040513d601f19601f820116820180604052508101906105fa9190612c79565b905061060581611da1565b806001600160a01b03166376d5de856040518163ffffffff1660e01b8152600401602060405180830381865afa158015610643573d6000803e3d6000fd5b505050506040513d601f19601f820116820180604052508101906106679190612c79565b604051630df3b4ab60e21b81526001600160a01b038881166004830152878116602483015291955060009182917f0000000000000000000000000000000000000000000000000000000000000000909116906337ced2ac906044016040805180830381865afa1580156106de573d6000803e3d6000fd5b505050506040513d601f19601f820116820180604052508101906107029190612dc6565b9150915060008163ffffffff161161077b5760405162461bcd60e51b815260206004820152603160248201527f5f5f6765745072696e636970616c546f6b656e56616c75653a204475726174696044820152701bdb881b9bdd081c9959da5cdd195c9959607a1b60648201526084015b60405180910390fd5b604051636878394360e01b81526001600160a01b03898116600483015283811660248301526000917f000000000000000000000000000000000000000000000000000000000000000082169163a31426d19186917f00000000000000000000000000000000000000000000000000000000000000001690636878394390604401602060405180830381865afa158015610818573d6000803e3d6000fd5b505050506040513d601f19601f8201168201806040525081019061083c9190612dfb565b6040516001600160e01b031960e085901b1681526001600160a01b03909216600483015263ffffffff166024820152604401602060405180830381865afa15801561088b573d6000803e3d6000fd5b505050506040513d601f19601f820116820180604052508101906108af9190612d94565b9050670de0b6b3a76400006108c48287612e16565b6108ce9190612e2d565b95506001600160a01b038716610902577f000000000000000000000000000000000000000000000000000000000000000096505b50505050505b9250929050565b6040516370a0823160e01b8152306004820152600090819081906001600160a01b038516906370a0823190602401602060405180830381865afa15801561095a573d6000803e3d6000fd5b505050506040513d601f19601f8201168201806040525081019061097e9190612d94565b90506000846001600160a01b0316632c8ce6bc6040518163ffffffff1660e01b8152600401606060405180830381865afa1580156109c0573d6000803e3d6000fd5b505050506040513d601f19601f820116820180604052508101906109e49190612e4f565b505090506109f181611da1565b806001600160a01b03166376d5de856040518163ffffffff1660e01b8152600401602060405180830381865afa158015610a2f573d6000803e3d6000fd5b505050506040513d601f19601f82011682018060405250810190610a539190612c79565b604051636878394360e01b81526001600160a01b03888116600483015287811660248301529195506000917f00000000000000000000000000000000000000000000000000000000000000001690636878394390604401602060405180830381865afa158015610ac7573d6000803e3d6000fd5b505050506040513d601f19601f82011682018060405250810190610aeb9190612dfb565b905060008163ffffffff1611610b565760405162461bcd60e51b815260206004820152602a60248201527f5f5f6765744c70546f6b656e56616c75653a204475726174696f6e206e6f74206044820152691c9959da5cdd195c995960b21b6064820152608401610772565b604051634d44ca8960e01b81526001600160a01b03878116600483015263ffffffff831660248301526000917f000000000000000000000000000000000000000000000000000000000000000090911690634d44ca8990604401602060405180830381865afa158015610bcd573d6000803e3d6000fd5b505050506040513d601f19601f82011682018060405250810190610bf19190612d94565b9050670de0b6b3a7640000610c068286612e16565b610c109190612e2d565b94506001600160a01b038616610c44577f000000000000000000000000000000000000000000000000000000000000000095505b505050509250929050565b606080835160000315610908576001805b8551811015610d02576000805b82811015610cdb57878181518110610c8757610c87612cbf565b60200260200101516001600160a01b0316888481518110610caa57610caa612cbf565b60200260200101516001600160a01b031603610cc95760019150610cdb565b80610cd381612cd5565b915050610c6d565b5080610cef5782610ceb81612cd5565b9350505b5080610cfa81612cd5565b915050610c60565b50806001600160401b03811115610d1b57610d1b612af9565b604051908082528060200260200182016040528015610d44578160200160208202803683370190505b509250806001600160401b03811115610d5f57610d5f612af9565b604051908082528060200260200182016040528015610d88578160200160208202803683370190505b5091506000805b8651811015610ef7576000805b83811015610e4d57868181518110610db657610db6612cbf565b60200260200101516001600160a01b0316898481518110610dd957610dd9612cbf565b60200260200101516001600160a01b031603610e3b5760019150878381518110610e0557610e05612cbf565b6020026020010151868281518110610e1f57610e1f612cbf565b60200260200101818151610e339190612cac565b905250610e4d565b80610e4581612cd5565b915050610d9c565b5080610ee457878281518110610e6557610e65612cbf565b6020026020010151868481518110610e7f57610e7f612cbf565b60200260200101906001600160a01b031690816001600160a01b031681525050868281518110610eb157610eb1612cbf565b6020026020010151858481518110610ecb57610ecb612cbf565b602090810291909101015282610ee081612cd5565b9350505b5080610eef81612cd5565b915050610d8f565b5050509250929050565b6000806000806000610f1286611ead565b94509450945094509450600080866001600160a01b0316632c8ce6bc6040518163ffffffff1660e01b8152600401606060405180830381865afa158015610f5d573d6000803e3d6000fd5b505050506040513d601f19601f82011682018060405250810190610f819190612e4f565b5091509150610f908188611f0c565b610ffd816000805480602002602001604051908101604052809291908181526020018280548015610fea57602002820191906000526020600020905b81546001600160a01b03168152600190910190602001808311610fcc575b505050505061201290919063ffffffff16565b61107557600080546001810182558180527f290decd9548b62a8d60345a988386fc84ba6bc95484008f6362f93160ef3e5630180546001600160a01b0319166001600160a01b03841690811790915560405190917fbf7bcee7480b1c77c06547ef8fd0cfacfb518606c897ba637ca0c9061533042f91a25b6000611085838888600030612079565b90506110b2837f0000000000000000000000000000000000000000000000000000000000000000836121bd565b6110ba612a63565b604051630a94245f60e21b81526001600160a01b037f00000000000000000000000000000000000000000000000000000000000000001690632a50917c906111109030908d9087908b908d9089906004016130ba565b60408051808303816000875af115801561112e573d6000803e3d6000fd5b505050506040513d601f19601f820116820180604052508101906111529190613130565b505050505050505050505050565b60008060008061116f8561226c565b93509350935093506000806000866001600160a01b0316632c8ce6bc6040518163ffffffff1660e01b8152600401606060405180830381865afa1580156111ba573d6000803e3d6000fd5b505050506040513d601f19601f820116820180604052508101906111de9190612e4f565b9250925092506111ee8288611f0c565b611219827f0000000000000000000000000000000000000000000000000000000000000000876121bd565b6000826001600160a01b0316632f13b60c6040518163ffffffff1660e01b8152600401602060405180830381865afa158015611259573d6000803e3d6000fd5b505050506040513d601f19601f8201168201806040525081019061127d9190613154565b156113295760405163339748cb60e01b81523060048201526001600160a01b03838116602483015260448201889052600060648301527f0000000000000000000000000000000000000000000000000000000000000000169063339748cb906084016020604051808303816000875af11580156112fe573d6000803e3d6000fd5b505050506040513d601f19601f820116820180604052508101906113229190612d94565b90506113cd565b611331612a63565b604051633346d3a360e01b81526001600160a01b037f00000000000000000000000000000000000000000000000000000000000000001690633346d3a3906113869030908d908c906000908890600401613176565b60408051808303816000875af11580156113a4573d6000803e3d6000fd5b505050506040513d601f19601f820116820180604052508101906113c89190613130565b509150505b6113da8585898433612295565b6040516370a0823160e01b81523060048201526001600160a01b038416906370a0823190602401602060405180830381865afa15801561141e573d6000803e3d6000fd5b505050506040513d601f19601f820116820180604052508101906114429190612d94565b60000361148a57611454600084612336565b506040516001600160a01b038416907fc690541461a4cee9666e3815924fe8130226dea7b434be0fb929f43dcaaa9a6d90600090a25b505050505050505050565b60008060008060006114a686611ead565b604051636878394360e01b81523360048201526001600160a01b038087166024830152959a50939850919650945092506000917f00000000000000000000000000000000000000000000000000000000000000001690636878394390604401602060405180830381865afa158015611522573d6000803e3d6000fd5b505050506040513d601f19601f820116820180604052508101906115469190612dfb565b63ffffffff16116115a45760405162461bcd60e51b815260206004820152602260248201527f5f5f6164644c69717569646974793a20556e737570706f72746564206d61726b604482015261195d60f21b6064820152608401610772565b6000856001600160a01b0316632c8ce6bc6040518163ffffffff1660e01b8152600401606060405180830381865afa1580156115e4573d6000803e3d6000fd5b505050506040513d601f19601f820116820180604052508101906116089190612e4f565b50509050600061161c828787600030612079565b9050611649827f0000000000000000000000000000000000000000000000000000000000000000836121bd565b611651612a63565b6040516358bda47560e01b81526001600160a01b037f000000000000000000000000000000000000000000000000000000000000000016906358bda475906116a79030908c9087908a908c9089906004016130ba565b60408051808303816000875af11580156116c5573d6000803e3d6000fd5b505050506040513d601f19601f820116820180604052508101906116e99190613130565b5050611756886001805480602002602001604051908101604052809291908181526020018280548015610fea576020028201919060005260206000209081546001600160a01b03168152600190910190602001808311610fcc57505050505061201290919063ffffffff16565b61148a5760018054808201825560009182527fb10e2d527612073b26eecdfd717e6a320cf44b4afac2b0732d9fcbe2b7fa0cf60180546001600160a01b0319166001600160a01b038b1690811790915560405190917fe3f670e6822c094d10714f36e6da8a4877971fe52f1b05858a65a1ba11c0a91791a2505050505050505050565b60008060008060006117ea8661245d565b9450945094509450945061185f856001805480602002602001604051908101604052809291908181526020018280548015610fea576020028201919060005260206000209081546001600160a01b03168152600190910190602001808311610fcc57505050505061201290919063ffffffff16565b6118b95760405162461bcd60e51b815260206004820152602560248201527f5f5f72656d6f76654c69717569646974793a20556e737570706f72746564206d604482015264185c9ad95d60da1b6064820152608401610772565b6118e4857f0000000000000000000000000000000000000000000000000000000000000000856121bd565b6118ec612a63565b60405163344ed3f760e21b81526000906001600160a01b037f0000000000000000000000000000000000000000000000000000000000000000169063d13b4fdc906119439030908b908a908a908990600401613176565b60408051808303816000875af1158015611961573d6000803e3d6000fd5b505050506040513d601f19601f820116820180604052508101906119859190613130565b5090506000876001600160a01b0316632c8ce6bc6040518163ffffffff1660e01b8152600401606060405180830381865afa1580156119c8573d6000803e3d6000fd5b505050506040513d601f19601f820116820180604052508101906119ec9190612e4f565b505090506119fd8482898533612295565b6040516370a0823160e01b81523060048201526001600160a01b038916906370a0823190602401602060405180830381865afa158015611a41573d6000803e3d6000fd5b505050506040513d601f19601f82011682018060405250810190611a659190612d94565b60000361148a57611a77600189612336565b506040516001600160a01b038916907fc149b3759d19e33f2a94a08f0e7bb809f2caffdd15c509478d7fdff7005fce3990600090a2505050505050505050565b6000611ac282612479565b9050606060005b8251811015611be6576000838281518110611ae657611ae6612cbf565b60200260200101519050611b60816001600160a01b031663c4f59f9b6040518163ffffffff1660e01b8152600401600060405180830381865afa158015611b31573d6000803e3d6000fd5b505050506040513d6000823e601f3d908101601f19168201604052611b5991908101906131d3565b849061248f565b604051639262187b60e01b81523060048201529093506001600160a01b03821690639262187b906024016000604051808303816000875af1158015611ba9573d6000803e3d6000fd5b505050506040513d6000823e601f3d908101601f19168201604052611bd19190810190613261565b50508080611bde90612cd5565b915050611ac9565b5060005b8151811015611d9b576000828281518110611c0757611c07612cbf565b60209081029190910101516040516370a0823160e01b81523060048201529091506000906001600160a01b038316906370a0823190602401602060405180830381865afa158015611c5c573d6000803e3d6000fd5b505050506040513d601f19601f82011682018060405250810190611c809190612d94565b9050801580611cf55750611cf5826000805480602002602001604051908101604052809291908181526020018280548015610fea576020028201919060005260206000209081546001600160a01b03168152600190910190602001808311610fcc57505050505061201290919063ffffffff16565b80611d665750611d66826001805480602002602001604051908101604052809291908181526020018280548015610fea576020028201919060005260206000209081546001600160a01b03168152600190910190602001808311610fcc57505050505061201290919063ffffffff16565b15611d72575050611d89565b611d866001600160a01b038316338361263f565b50505b80611d9381612cd5565b915050611bea565b50505050565b6040516307158c8160e21b81527f000000000000000000000000000000000000000000000000000000000000000060048201526001600160a01b0382811660248301527f00000000000000000000000000000000000000000000000000000000000000001690631c56320490604401602060405180830381865afa158015611e2d573d6000803e3d6000fd5b505050506040513d601f19601f82011682018060405250810190611e519190613154565b6100935760405162461bcd60e51b815260206004820152602760248201527f5f5f76616c69646174655379546f6b656e3a20556e737570706f7274656420536044820152662c902a37b5b2b760c91b6064820152608401610772565b6000806000611ee46040518060a0016040528060008152602001600081526020016000815260200160008152602001600081525090565b600085806020019051810190611efa91906132e6565b939a9299509097509550909350915050565b604051632a7e2d9b60e01b81523360048201526001600160a01b0383811660248301527f00000000000000000000000000000000000000000000000000000000000000001690632a7e2d9b90604401602060405180830381865afa158015611f78573d6000803e3d6000fd5b505050506040513d601f19601f82011682018060405250810190611f9c9190612c79565b6001600160a01b0316816001600160a01b03161461200e5760405162461bcd60e51b815260206004820152602960248201527f5f5f76616c69646174654d61726b6574466f7250743a20556e737570706f72746044820152681959081b585c9ad95d60ba1b6064820152608401610772565b5050565b6000805b835181101561206d5783818151811061203157612031612cbf565b60200260200101516001600160a01b0316836001600160a01b03160361205b576001915050612073565b8061206581612cd5565b915050612016565b50600090505b92915050565b600061208486611da1565b6000806120908761264a565b90506001600160a01b03811661212257604051632e1a7d4d60e01b8152600481018790527f00000000000000000000000000000000000000000000000000000000000000006001600160a01b031690632e1a7d4d90602401600060405180830381600087803b15801561210257600080fd5b505af1158015612116573d6000803e3d6000fd5b5050505085915061212d565b61212d8189886121bd565b6040516320e8c56560e01b81526001600160a01b038581166004830152828116602483015260448201889052606482018790528916906320e8c56590849060840160206040518083038185885af115801561218c573d6000803e3d6000fd5b50505050506040513d601f19601f820116820180604052508101906121b19190612d94565b98975050505050505050565b604051636eb1769f60e11b81523060048201526001600160a01b0383811660248301526000919085169063dd62ed3e90604401602060405180830381865afa15801561220d573d6000803e3d6000fd5b505050506040513d601f19601f820116820180604052508101906122319190612d94565b905081811015611d9b578015612256576122566001600160a01b03851684600061267e565b611d9b6001600160a01b0385168460001961267e565b600080600080848060200190518101906122869190613386565b93509350935093509193509193565b60006122a08461264a565b60405163769f8e5d60e01b81526001600160a01b03848116600483015260248201869052808316604483015260648201899052600060848301529192509086169063769f8e5d9060a4016020604051808303816000875af1158015612309573d6000803e3d6000fd5b505050506040513d601f19601f8201168201806040525081019061232d9190612d94565b50505050505050565b8154600090815b8181101561245557836001600160a01b031685828154811061236157612361612cbf565b6000918252602090912001546001600160a01b031603612443576123866001836133ce565b81101561240857846123996001846133ce565b815481106123a9576123a9612cbf565b9060005260206000200160009054906101000a90046001600160a01b03168582815481106123d9576123d9612cbf565b9060005260206000200160006101000a8154816001600160a01b0302191690836001600160a01b031602179055505b84805480612418576124186133e1565b600082815260209020810160001990810180546001600160a01b031916905501905560019250612455565b8061244d81612cd5565b91505061233d565b505092915050565b600080600080600085806020019051810190611efa91906133f7565b60608180602001905181019061207391906131d3565b60606000805b83518110156124e5576124c1858583815181106124b4576124b4612cbf565b6020026020010151612012565b6124d357816124cf81612cd5565b9250505b806124dd81612cd5565b915050612495565b50806000036124f75783915050612073565b8084516125049190612cac565b6001600160401b0381111561251b5761251b612af9565b604051908082528060200260200182016040528015612544578160200160208202803683370190505b50915060005b84518110156125a95784818151811061256557612565612cbf565b602002602001015183828151811061257f5761257f612cbf565b6001600160a01b0390921660209283029190910190910152806125a181612cd5565b91505061254a565b50835160005b8451811015612636576125ce868683815181106124b4576124b4612cbf565b612624578481815181106125e4576125e4612cbf565b60200260200101518483815181106125fe576125fe612cbf565b6001600160a01b03909216602092830291909101909101528161262081612cd5565b9250505b8061262e81612cd5565b9150506125af565b50505092915050565b61047c838383612689565b60006001600160a01b03821673eeeeeeeeeeeeeeeeeeeeeeeeeeeeeeeeeeeeeeee146126765781612073565b600092915050565b61047c8383836126ec565b6040516001600160a01b03831660248201526044810182905261047c90849063a9059cbb60e01b906064015b60408051601f198184030181529190526020810180516001600160e01b03166001600160e01b031990931692909217909152612801565b8015806127665750604051636eb1769f60e11b81523060048201526001600160a01b03838116602483015284169063dd62ed3e90604401602060405180830381865afa158015612740573d6000803e3d6000fd5b505050506040513d601f19601f820116820180604052508101906127649190612d94565b155b6127d15760405162461bcd60e51b815260206004820152603660248201527f5361666545524332303a20617070726f76652066726f6d206e6f6e2d7a65726f60448201527520746f206e6f6e2d7a65726f20616c6c6f77616e636560501b6064820152608401610772565b6040516001600160a01b03831660248201526044810182905261047c90849063095ea7b360e01b906064016126b5565b6000612856826040518060400160405280602081526020017f5361666545524332303a206c6f772d6c6576656c2063616c6c206661696c6564815250856001600160a01b03166128d39092919063ffffffff16565b80519091501561047c57808060200190518101906128749190613154565b61047c5760405162461bcd60e51b815260206004820152602a60248201527f5361666545524332303a204552433230206f7065726174696f6e20646964206e6044820152691bdd081cdd58d8d9595960b21b6064820152608401610772565b60606128e284846000856128ea565b949350505050565b60608247101561294b5760405162461bcd60e51b815260206004820152602660248201527f416464726573733a20696e73756666696369656e742062616c616e636520666f6044820152651c8818d85b1b60d21b6064820152608401610772565b600080866001600160a01b03168587604051612967919061344a565b60006040518083038185875af1925050503d80600081146129a4576040519150601f19603f3d011682016040523d82523d6000602084013e6129a9565b606091505b50915091506129ba878383876129c5565b979650505050505050565b60608315612a34578251600003612a2d576001600160a01b0385163b612a2d5760405162461bcd60e51b815260206004820152601d60248201527f416464726573733a2063616c6c20746f206e6f6e2d636f6e74726163740000006044820152606401610772565b50816128e2565b6128e28383815115612a495781518083602001fd5b8060405162461bcd60e51b81526004016107729190613466565b6040518060a0016040528060006001600160a01b03168152602001600081526020016060815260200160608152602001606081525090565b600081518084526020808501945080840160005b83811015612ad45781516001600160a01b031687529582019590820190600101612aaf565b509495945050505050565b602081526000612af26020830184612a9b565b9392505050565b634e487b7160e01b600052604160045260246000fd5b60405160a081016001600160401b0381118282101715612b3157612b31612af9565b60405290565b604051601f8201601f191681016001600160401b0381118282101715612b5f57612b5f612af9565b604052919050565b60006001600160401b03821115612b8057612b80612af9565b50601f01601f191660200190565b600060208284031215612ba057600080fd5b81356001600160401b03811115612bb657600080fd5b8201601f81018413612bc757600080fd5b8035612bda612bd582612b67565b612b37565b818152856020838501011115612bef57600080fd5b81602084016020830137600091810160200191909152949350505050565b604081526000612c206040830185612a9b565b82810360208481019190915284518083528582019282019060005b81811015612c5757845183529383019391830191600101612c3b565b5090979650505050505050565b6001600160a01b038116811461009357600080fd5b600060208284031215612c8b57600080fd5b8151612af281612c64565b634e487b7160e01b600052601160045260246000fd5b8082018082111561207357612073612c96565b634e487b7160e01b600052603260045260246000fd5b600060018201612ce757612ce7612c96565b5060010190565b60005b83811015612d09578181015183820152602001612cf1565b50506000910152565b60008060408385031215612d2557600080fd5b8251915060208301516001600160401b03811115612d4257600080fd5b8301601f81018513612d5357600080fd5b8051612d61612bd582612b67565b818152866020838501011115612d7657600080fd5b612d87826020830160208601612cee565b8093505050509250929050565b600060208284031215612da657600080fd5b5051919050565b805163ffffffff81168114612dc157600080fd5b919050565b60008060408385031215612dd957600080fd5b8251612de481612c64565b9150612df260208401612dad565b90509250929050565b600060208284031215612e0d57600080fd5b612af282612dad565b808202811582820484141761207357612073612c96565b600082612e4a57634e487b7160e01b600052601260045260246000fd5b500490565b600080600060608486031215612e6457600080fd5b8351612e6f81612c64565b6020850151909350612e8081612c64565b6040850151909250612e9181612c64565b809150509250925092565b60048110612eba57634e487b7160e01b600052602160045260246000fd5b9052565b60008151808452612ed6816020860160208601612cee565b601f01601f19169290920160200192915050565b600081518084526020808501808196508360051b8101915082860160005b8581101561304057828403895281516060815181875280518288015287810151608081818a0152604091508183015160a081818c015285850151955060c09150612f54828c0187612e9c565b91840151945060e091612f718b8401876001600160a01b03169052565b8401519450610100612f8d8b8201876001600160a01b03169052565b90840151945061012090612fab8b8301876001600160a01b03169052565b91840151945061014091612fc98b8401876001600160a01b03169052565b8401516101608b81019190915290840151610180808c0191909152918401516101a08b01528301516101c08a0191909152925061300a6101e0890184612ebe565b9250888401519150878303898901526130238383612ebe565b938101519701969096525098850198935090840190600101612f08565b5091979650505050505050565b60018060a01b038151168252602081015160208301526000604082015160a0604085015261307e60a0850182612eea565b9050606083015184820360608601526130978282612eea565b915050608083015184820360808601526130b18282612ebe565b95945050505050565b600061014060018060a01b03808a16845280891660208501525086604084015285606084015284516080840152602085015160a0840152604085015160c0840152606085015160e08401526080850151610100840152806101208401526131238184018561304d565b9998505050505050505050565b6000806040838503121561314357600080fd5b505080516020909101519092909150565b60006020828403121561316657600080fd5b81518015158114612af257600080fd5b6001600160a01b03868116825285166020820152604081018490526060810183905260a0608082018190526000906129ba9083018461304d565b60006001600160401b038211156131c9576131c9612af9565b5060051b60200190565b600060208083850312156131e657600080fd5b82516001600160401b038111156131fc57600080fd5b8301601f8101851361320d57600080fd5b805161321b612bd5826131b0565b81815260059190911b8201830190838101908783111561323a57600080fd5b928401925b828410156129ba57835161325281612c64565b8252928401929084019061323f565b6000602080838503121561327457600080fd5b82516001600160401b0381111561328a57600080fd5b8301601f8101851361329b57600080fd5b80516132a9612bd5826131b0565b81815260059190911b820183019083810190878311156132c857600080fd5b928401925b828410156129ba578351825292840192908401906132cd565b600080600080600085870361012081121561330057600080fd5b865161330b81612c64565b602088015190965061331c81612c64565b6040880151909550935060a0605f198201121561333857600080fd5b50613341612b0f565b606087015181526080870151602082015260a0870151604082015260c0870151606082015260e087015160808201528092505061010086015190509295509295909350565b6000806000806080858703121561339c57600080fd5b84516133a781612c64565b60208601519094506133b881612c64565b6040860151606090960151949790965092505050565b8181038181111561207357612073612c96565b634e487b7160e01b600052603160045260246000fd5b600080600080600060a0868803121561340f57600080fd5b855161341a81612c64565b602087015190955061342b81612c64565b6040870151606088015160809098015196999198509695945092505050565b6000825161345c818460208701612cee565b9190910192915050565b602081526000612af26020830184612ebe56","linkReferences":{}},"methodIdentifiers":{"getDebtAssets()":"ecd658b4","getLPTokens()":"1224abfb","getManagedAssets()":"80daddb8","getPrincipalTokens()":"edc24b94","init(bytes)":"4ddf47d4","receiveCallFromVault(bytes)":"e5c23a97"},"id":125}