{"abi":[{"type":"constructor","inputs":[{"name":"_addressListRegistryAddress","type":"address","internalType":"address"},{"name":"_pendleMarketsRegistryAddress","type":"address","internalType":"address"},{"name":"_pendleOracleAddress","type":"address","internalType":"address"},{"name":"_pendlePeggedSyTokensListId","type":"uint256","internalType":"uint256"},{"name":"_pendleRouterAddress","type":"address","internalType":"address"},{"name":"_wrappedNativeAssetAddress","type":"address","internalType":"address"}],"stateMutability":"nonpayable"},{"type":"function","name":"getDebtAssets","inputs":[],"outputs":[{"name":"assets_","type":"address[]","internalType":"address[]"},{"name":"amounts_","type":"uint256[]","internalType":"uint256[]"}],"stateMutability":"pure"},{"type":"function","name":"getLPTokens","inputs":[],"outputs":[{"name":"lpTokenAddresses_","type":"address[]","internalType":"address[]"}],"stateMutability":"view"},{"type":"function","name":"getManagedAssets","inputs":[],"outputs":[{"name":"assets_","type":"address[]","internalType":"address[]"},{"name":"amounts_","type":"uint256[]","internalType":"uint256[]"}],"stateMutability":"view"},{"type":"function","name":"getPrincipalTokens","inputs":[],"outputs":[{"name":"principalTokenAddresses_","type":"address[]","internalType":"address[]"}],"stateMutability":"view"},{"type":"function","name":"init","inputs":[{"name":"","type":"bytes","internalType":"bytes"}],"outputs":[],"stateMutability":"nonpayable"},{"type":"function","name":"receiveCallFromVault","inputs":[{"name":"_actionData","type":"bytes","internalType":"bytes"}],"outputs":[],"stateMutability":"nonpayable"},{"type":"event","name":"LpTokenAdded","inputs":[{"name":"lpToken","type":"address","indexed":true,"internalType":"address"}],"anonymous":false},{"type":"event","name":"LpTokenRemoved","inputs":[{"name":"lpToken","type":"address","indexed":true,"internalType":"address"}],"anonymous":false},{"type":"event","name":"MigratedToVault","inputs":[],"anonymous":false},{"type":"event","name":"PrincipalTokenAdded","inputs":[{"name":"principalToken","type":"address","indexed":true,"internalType":"address"}],"anonymous":false},{"type":"event","name":"PrincipalTokenRemoved","inputs":[{"name":"principalToken","type":"address","indexed":true,"internalType":"address"}],"anonymous":false}],"bytecode":{"object":"0x6101406040523480156200001257600080fd5b5060405162003d7a38038062003d7a8339810160408190526200003591620000b1565b6001600160a01b0395861660805293851660a05291841660c05260e052821661010052166101205262000149565b60006001600160a01b0382165b92915050565b620000818162000063565b81146200008d57600080fd5b50565b8051620000708162000076565b8062000081565b805162000070816200009d565b60008060008060008060c08789031215620000cf57620000cf600080fd5b6000620000dd898962000090565b9650506020620000f089828a0162000090565b95505060406200010389828a0162000090565b94505060606200011689828a01620000a4565b93505060806200012989828a0162000090565b92505060a06200013c89828a0162000090565b9150509295509295509295565b60805160a05160c05160e0516101005161012051613b78620002026000396000818161089001528181610b840152611f8e015260008181610fef0152818161103301528181611156015281816111fb015281816112a001528181611541015281816115850152818161179e01526117e501526000611d400152600081816107440152610adb0152600081816106810152818161077401528181610a0c015281816114110152611e3d01526000611d130152613b786000f3fe608060405234801561001057600080fd5b50600436106100625760003560e01c80631224abfb146100675780634ddf47d41461008557806380daddb814610098578063e5c23a97146100ae578063ecd658b4146100c1578063edc24b94146100c9575b600080fd5b61006f6100d1565b60405161007c9190612a59565b60405180910390f35b610096610093366004612b63565b50565b005b6100a0610133565b60405161007c929190612bed565b6100966100bc366004612b63565b610452565b6060806100a0565b61006f6104d5565b6060600180548060200260200160405190810160405280929190818152602001828054801561012957602002820191906000526020600020905b81546001600160a01b0316815260019091019060200180831161010b575b5050505050905090565b6060806000306001600160a01b031663c98091876040518163ffffffff1660e01b8152600401602060405180830381865afa158015610176573d6000803e3d6000fd5b505050506040513d601f19601f8201168201806040525081019061019a9190612c31565b90506000808054806020026020016040519081016040528092919081815260200182805480156101f357602002820191906000526020600020905b81546001600160a01b031681526001909101906020018083116101d5575b505050505090506000815190506000600180548060200260200160405190810160405280929190818152602001828054801561025857602002820191906000526020600020905b81546001600160a01b0316815260019091019060200180831161023a575b50508351939450508415915050801561026f575080155b1561027d5750505050509091565b60006102898285612c68565b6001600160401b038111156102a0576102a0612a6a565b6040519080825280602002602001820160405280156102c9578160200160208202803683370190505b50905060006102d88386612c68565b6001600160401b038111156102ef576102ef612a6a565b604051908082528060200260200182016040528015610318578160200160208202803683370190505b50905060005b858110156103a1576103498888838151811061033c5761033c612c7b565b6020026020010151610535565b84838151811061035b5761035b612c7b565b6020026020010184848151811061037457610374612c7b565b60209081029190910101919091526001600160a01b0390911690528061039981612c91565b91505061031e565b5060005b838110156104375760006103b98288612c68565b90506103de898784815181106103d1576103d1612c7b565b60200260200101516108bf565b8583815181106103f0576103f0612c7b565b6020026020010185848151811061040957610409612c7b565b60209081029190910101919091526001600160a01b039091169052508061042f81612c91565b9150506103a5565b506104428282610bb1565b909a909950975050505050505050565b600080828060200190518101906104699190612d38565b9092509050816104815761047c81610e63565b505050565b600182036104925761047c816110c2565b600282036104a35761047c816113f2565b600382036104b45761047c816116f6565b600482036104c55761047c8161199b565b6005820361047c5761047c611c8a565b60606000805480602002602001604051908101604052809291908181526020018280548015610129576020028201919060005260206000209081546001600160a01b0316815260019091019060200180831161010b575050505050905090565b6000806000836001600160a01b03166370a08231306040518263ffffffff1660e01b81526004016105669190612da5565b602060405180830381865afa158015610583573d6000803e3d6000fd5b505050506040513d601f19601f820116820180604052508101906105a79190612db3565b90506000846001600160a01b031663afd27bf56040518163ffffffff1660e01b8152600401602060405180830381865afa1580156105e9573d6000803e3d6000fd5b505050506040513d601f19601f8201168201806040525081019061060d9190612c31565b905061061881611cfc565b806001600160a01b03166376d5de856040518163ffffffff1660e01b8152600401602060405180830381865afa158015610656573d6000803e3d6000fd5b505050506040513d601f19601f8201168201806040525081019061067a9190612c31565b93506000807f00000000000000000000000000000000000000000000000000000000000000006001600160a01b03166337ced2ac89896040518363ffffffff1660e01b81526004016106cd929190612dd4565b6040805180830381865afa1580156106e9573d6000803e3d6000fd5b505050506040513d601f19601f8201168201806040525081019061070d9190612e06565b9150915060008163ffffffff16116107405760405162461bcd60e51b815260040161073790612e8a565b60405180910390fd5b60007f00000000000000000000000000000000000000000000000000000000000000006001600160a01b031663a31426d1847f00000000000000000000000000000000000000000000000000000000000000006001600160a01b031663687839438d886040518363ffffffff1660e01b81526004016107c0929190612dd4565b602060405180830381865afa1580156107dd573d6000803e3d6000fd5b505050506040513d601f19601f820116820180604052508101906108019190612e9a565b6040518363ffffffff1660e01b815260040161081e929190612ec7565b602060405180830381865afa15801561083b573d6000803e3d6000fd5b505050506040513d601f19601f8201168201806040525081019061085f9190612db3565b9050670de0b6b3a76400006108748287612ee2565b61087e9190612f10565b95506001600160a01b0387166108b2577f000000000000000000000000000000000000000000000000000000000000000096505b50505050505b9250929050565b6000806000836001600160a01b03166370a08231306040518263ffffffff1660e01b81526004016108f09190612da5565b602060405180830381865afa15801561090d573d6000803e3d6000fd5b505050506040513d601f19601f820116820180604052508101906109319190612db3565b90506000846001600160a01b0316632c8ce6bc6040518163ffffffff1660e01b8152600401606060405180830381865afa158015610973573d6000803e3d6000fd5b505050506040513d601f19601f820116820180604052508101906109979190612f43565b505090506109a481611cfc565b806001600160a01b03166376d5de856040518163ffffffff1660e01b8152600401602060405180830381865afa1580156109e2573d6000803e3d6000fd5b505050506040513d601f19601f82011682018060405250810190610a069190612c31565b935060007f00000000000000000000000000000000000000000000000000000000000000006001600160a01b0316636878394388886040518363ffffffff1660e01b8152600401610a58929190612dd4565b602060405180830381865afa158015610a75573d6000803e3d6000fd5b505050506040513d601f19601f82011682018060405250810190610a999190612e9a565b905060008163ffffffff1611610ac15760405162461bcd60e51b815260040161073790612fda565b604051634d44ca8960e01b81526000906001600160a01b037f00000000000000000000000000000000000000000000000000000000000000001690634d44ca8990610b12908a908690600401612ec7565b602060405180830381865afa158015610b2f573d6000803e3d6000fd5b505050506040513d601f19601f82011682018060405250810190610b539190612db3565b9050670de0b6b3a7640000610b688286612ee2565b610b729190612f10565b94506001600160a01b038616610ba6577f000000000000000000000000000000000000000000000000000000000000000095505b505050509250929050565b6060808351600003156108b8576001805b8551811015610c64576000805b82811015610c3d57878181518110610be957610be9612c7b565b60200260200101516001600160a01b0316888481518110610c0c57610c0c612c7b565b60200260200101516001600160a01b031603610c2b5760019150610c3d565b80610c3581612c91565b915050610bcf565b5080610c515782610c4d81612c91565b9350505b5080610c5c81612c91565b915050610bc2565b50806001600160401b03811115610c7d57610c7d612a6a565b604051908082528060200260200182016040528015610ca6578160200160208202803683370190505b509250806001600160401b03811115610cc157610cc1612a6a565b604051908082528060200260200182016040528015610cea578160200160208202803683370190505b5091506000805b8651811015610e59576000805b83811015610daf57868181518110610d1857610d18612c7b565b60200260200101516001600160a01b0316898481518110610d3b57610d3b612c7b565b60200260200101516001600160a01b031603610d9d5760019150878381518110610d6757610d67612c7b565b6020026020010151868281518110610d8157610d81612c7b565b60200260200101818151610d959190612c68565b905250610daf565b80610da781612c91565b915050610cfe565b5080610e4657878281518110610dc757610dc7612c7b565b6020026020010151868481518110610de157610de1612c7b565b60200260200101906001600160a01b031690816001600160a01b031681525050868281518110610e1357610e13612c7b565b6020026020010151858481518110610e2d57610e2d612c7b565b602090810291909101015282610e4281612c91565b9350505b5080610e5181612c91565b915050610cf1565b5050509250929050565b6000806000806000610e7486611dc7565b94509450945094509450600080866001600160a01b0316632c8ce6bc6040518163ffffffff1660e01b8152600401606060405180830381865afa158015610ebf573d6000803e3d6000fd5b505050506040513d601f19601f82011682018060405250810190610ee39190612f43565b5091509150610ef28188611e26565b610f5f816000805480602002602001604051908101604052809291908181526020018280548015610f4c57602002820191906000526020600020905b81546001600160a01b03168152600190910190602001808311610f2e575b5050505050611ee990919063ffffffff16565b610fd757600080546001810182558180527f290decd9548b62a8d60345a988386fc84ba6bc95484008f6362f93160ef3e5630180546001600160a01b0319166001600160a01b03841690811790915560405190917fbf7bcee7480b1c77c06547ef8fd0cfacfb518606c897ba637ca0c9061533042f91a25b6000610fe7838888600030611f50565b9050611014837f00000000000000000000000000000000000000000000000000000000000000008361208d565b61101c612972565b604051630a94245f60e21b81526001600160a01b037f00000000000000000000000000000000000000000000000000000000000000001690632a50917c906110729030908d9087908b908d9089906004016132c6565b60408051808303816000875af1158015611090573d6000803e3d6000fd5b505050506040513d601f19601f820116820180604052508101906110b49190613328565b505050505050505050505050565b6000806000806110d18561213a565b93509350935093506000806000866001600160a01b0316632c8ce6bc6040518163ffffffff1660e01b8152600401606060405180830381865afa15801561111c573d6000803e3d6000fd5b505050506040513d601f19601f820116820180604052508101906111409190612f43565b9250925092506111508288611e26565b61117b827f00000000000000000000000000000000000000000000000000000000000000008761208d565b6000826001600160a01b0316632f13b60c6040518163ffffffff1660e01b8152600401602060405180830381865afa1580156111bb573d6000803e3d6000fd5b505050506040513d601f19601f820116820180604052508101906111df919061336e565b156112815760405163339748cb60e01b81526001600160a01b037f0000000000000000000000000000000000000000000000000000000000000000169063339748cb9061123790309086908b906000906004016133a7565b6020604051808303816000875af1158015611256573d6000803e3d6000fd5b505050506040513d601f19601f8201168201806040525081019061127a9190612db3565b9050611325565b611289612972565b604051633346d3a360e01b81526001600160a01b037f00000000000000000000000000000000000000000000000000000000000000001690633346d3a3906112de9030908d908c9060009088906004016133dc565b60408051808303816000875af11580156112fc573d6000803e3d6000fd5b505050506040513d601f19601f820116820180604052508101906113209190613328565b509150505b6113328585898433612163565b6040516370a0823160e01b81526001600160a01b038416906370a082319061135e903090600401612da5565b602060405180830381865afa15801561137b573d6000803e3d6000fd5b505050506040513d601f19601f8201168201806040525081019061139f9190612db3565b6000036113e7576113b16000846121f2565b506040516001600160a01b038416907fc690541461a4cee9666e3815924fe8130226dea7b434be0fb929f43dcaaa9a6d90600090a25b505050505050505050565b600080600080600061140386611dc7565b9450945094509450945060007f00000000000000000000000000000000000000000000000000000000000000006001600160a01b0316636878394333886040518363ffffffff1660e01b815260040161145d929190612dd4565b602060405180830381865afa15801561147a573d6000803e3d6000fd5b505050506040513d601f19601f8201168201806040525081019061149e9190612e9a565b63ffffffff16116114c15760405162461bcd60e51b81526004016107379061346d565b6000856001600160a01b0316632c8ce6bc6040518163ffffffff1660e01b8152600401606060405180830381865afa158015611501573d6000803e3d6000fd5b505050506040513d601f19601f820116820180604052508101906115259190612f43565b505090506000611539828787600030611f50565b9050611566827f00000000000000000000000000000000000000000000000000000000000000008361208d565b61156e612972565b6040516358bda47560e01b81526001600160a01b037f000000000000000000000000000000000000000000000000000000000000000016906358bda475906115c49030908c9087908a908c9089906004016132c6565b60408051808303816000875af11580156115e2573d6000803e3d6000fd5b505050506040513d601f19601f820116820180604052508101906116069190613328565b5050611673886001805480602002602001604051908101604052809291908181526020018280548015610f4c576020028201919060005260206000209081546001600160a01b03168152600190910190602001808311610f2e575050505050611ee990919063ffffffff16565b6113e75760018054808201825560009182527fb10e2d527612073b26eecdfd717e6a320cf44b4afac2b0732d9fcbe2b7fa0cf60180546001600160a01b0319166001600160a01b038b1690811790915560405190917fe3f670e6822c094d10714f36e6da8a4877971fe52f1b05858a65a1ba11c0a91791a2505050505050505050565b600080600080600061170786612319565b9450945094509450945061177c856001805480602002602001604051908101604052809291908181526020018280548015610f4c576020028201919060005260206000209081546001600160a01b03168152600190910190602001808311610f2e575050505050611ee990919063ffffffff16565b6117985760405162461bcd60e51b8152600401610737906134bf565b6117c3857f00000000000000000000000000000000000000000000000000000000000000008561208d565b6117cb612972565b60405163344ed3f760e21b81526000906001600160a01b037f0000000000000000000000000000000000000000000000000000000000000000169063d13b4fdc906118229030908b908a908a9089906004016134cf565b60408051808303816000875af1158015611840573d6000803e3d6000fd5b505050506040513d601f19601f820116820180604052508101906118649190613328565b5090506000876001600160a01b0316632c8ce6bc6040518163ffffffff1660e01b8152600401606060405180830381865afa1580156118a7573d6000803e3d6000fd5b505050506040513d601f19601f820116820180604052508101906118cb9190612f43565b505090506118dc8482898533612163565b6040516370a0823160e01b81526001600160a01b038916906370a0823190611908903090600401612da5565b602060405180830381865afa158015611925573d6000803e3d6000fd5b505050506040513d601f19601f820116820180604052508101906119499190612db3565b6000036113e75761195b6001896121f2565b506040516001600160a01b038916907fc149b3759d19e33f2a94a08f0e7bb809f2caffdd15c509478d7fdff7005fce3990600090a2505050505050505050565b60006119a682612335565b9050606060005b8251811015611acf5760008382815181106119ca576119ca612c7b565b60200260200101519050611a44816001600160a01b031663c4f59f9b6040518163ffffffff1660e01b8152600401600060405180830381865afa158015611a15573d6000803e3d6000fd5b505050506040513d6000823e601f3d908101601f19168201604052611a3d91908101906135a6565b849061234b565b604051639262187b60e01b81529093506001600160a01b03821690639262187b90611a73903090600401612da5565b6000604051808303816000875af1158015611a92573d6000803e3d6000fd5b505050506040513d6000823e601f3d908101601f19168201604052611aba9190810190613655565b50508080611ac790612c91565b9150506119ad565b5060005b8151811015611c84576000828281518110611af057611af0612c7b565b602002602001015190506000816001600160a01b03166370a08231306040518263ffffffff1660e01b8152600401611b289190612da5565b602060405180830381865afa158015611b45573d6000803e3d6000fd5b505050506040513d601f19601f82011682018060405250810190611b699190612db3565b9050801580611bde5750611bde826000805480602002602001604051908101604052809291908181526020018280548015610f4c576020028201919060005260206000209081546001600160a01b03168152600190910190602001808311610f2e575050505050611ee990919063ffffffff16565b80611c4f5750611c4f826001805480602002602001604051908101604052809291908181526020018280548015610f4c576020028201919060005260206000209081546001600160a01b03168152600190910190602001808311610f2e575050505050611ee990919063ffffffff16565b15611c5b575050611c72565b611c6f6001600160a01b03831633836124fb565b50505b80611c7c81612c91565b915050611ad3565b50505050565b6000611c946104d5565b90506000611ca06100d1565b9050611cad6000806129aa565b611cb9600160006129aa565b611cc33383612506565b50611cce3382612506565b506040517f6334d00e826110696ccebce6950f593bdba5ed71c878bd43122495c80c5e10c690600090a15050565b6040516307158c8160e21b81526001600160a01b037f00000000000000000000000000000000000000000000000000000000000000001690631c56320490611d6a907f000000000000000000000000000000000000000000000000000000000000000090859060040161368f565b602060405180830381865afa158015611d87573d6000803e3d6000fd5b505050506040513d601f19601f82011682018060405250810190611dab919061336e565b6100935760405162461bcd60e51b8152600401610737906136e1565b6000806000611dfe6040518060a0016040528060008152602001600081526020016000815260200160008152602001600081525090565b600085806020019051810190611e149190613777565b939a9299509097509550909350915050565b604051632a7e2d9b60e01b81526001600160a01b037f00000000000000000000000000000000000000000000000000000000000000001690632a7e2d9b90611e749033908690600401612dd4565b602060405180830381865afa158015611e91573d6000803e3d6000fd5b505050506040513d601f19601f82011682018060405250810190611eb59190612c31565b6001600160a01b0316816001600160a01b031614611ee55760405162461bcd60e51b815260040161073790613837565b5050565b6000805b8351811015611f4457838181518110611f0857611f08612c7b565b60200260200101516001600160a01b0316836001600160a01b031603611f32576001915050611f4a565b80611f3c81612c91565b915050611eed565b50600090505b92915050565b6000611f5b86611cfc565b600080611f6787612675565b90506001600160a01b038116611ffd57604051632e1a7d4d60e01b81526001600160a01b037f00000000000000000000000000000000000000000000000000000000000000001690632e1a7d4d90611fc3908990600401613847565b600060405180830381600087803b158015611fdd57600080fd5b505af1158015611ff1573d6000803e3d6000fd5b50505050859150612008565b61200881898861208d565b6040516320e8c56560e01b81526001600160a01b038916906320e8c56590849061203c90889086908c908c90600401613855565b60206040518083038185885af115801561205a573d6000803e3d6000fd5b50505050506040513d601f19601f8201168201806040525081019061207f9190612db3565b925050505b95945050505050565b604051636eb1769f60e11b81526000906001600160a01b0385169063dd62ed3e906120be9030908790600401612dd4565b602060405180830381865afa1580156120db573d6000803e3d6000fd5b505050506040513d601f19601f820116820180604052508101906120ff9190612db3565b905081811015611c84578015612124576121246001600160a01b0385168460006126a9565b611c846001600160a01b038516846000196126a9565b60008060008084806020019051810190612154919061388a565b93509350935093509193509193565b600061216e84612675565b60405163769f8e5d60e01b81529091506001600160a01b0386169063769f8e5d906121a6908590879086908c906000906004016138f6565b6020604051808303816000875af11580156121c5573d6000803e3d6000fd5b505050506040513d601f19601f820116820180604052508101906121e99190612db3565b50505050505050565b8154600090815b8181101561231157836001600160a01b031685828154811061221d5761221d612c7b565b6000918252602090912001546001600160a01b0316036122ff57612242600183613942565b8110156122c45784612255600184613942565b8154811061226557612265612c7b565b9060005260206000200160009054906101000a90046001600160a01b031685828154811061229557612295612c7b565b9060005260206000200160006101000a8154816001600160a01b0302191690836001600160a01b031602179055505b848054806122d4576122d4613955565b600082815260209020810160001990810180546001600160a01b031916905501905560019250612311565b8061230981612c91565b9150506121f9565b505092915050565b600080600080600085806020019051810190611e14919061396b565b606081806020019051810190611f4a91906135a6565b60606000805b83518110156123a15761237d8585838151811061237057612370612c7b565b6020026020010151611ee9565b61238f578161238b81612c91565b9250505b8061239981612c91565b915050612351565b50806000036123b35783915050611f4a565b8084516123c09190612c68565b6001600160401b038111156123d7576123d7612a6a565b604051908082528060200260200182016040528015612400578160200160208202803683370190505b50915060005b84518110156124655784818151811061242157612421612c7b565b602002602001015183828151811061243b5761243b612c7b565b6001600160a01b03909216602092830291909101909101528061245d81612c91565b915050612406565b50835160005b84518110156124f25761248a8686838151811061237057612370612c7b565b6124e0578481815181106124a0576124a0612c7b565b60200260200101518483815181106124ba576124ba612c7b565b6001600160a01b0390921660209283029190910190910152816124dc81612c91565b9250505b806124ea81612c91565b91505061246b565b50505092915050565b61047c8383836126b4565b606081516001600160401b0381111561252157612521612a6a565b60405190808252806020026020018201604052801561254a578160200160208202803683370190505b50905060005b825181101561266e57600083828151811061256d5761256d612c7b565b60200260200101519050806001600160a01b03166370a08231306040518263ffffffff1660e01b81526004016125a39190612da5565b602060405180830381865afa1580156125c0573d6000803e3d6000fd5b505050506040513d601f19601f820116820180604052508101906125e49190612db3565b8383815181106125f6576125f6612c7b565b602002602001018181525050600083838151811061261657612616612c7b565b6020026020010151111561265b5761265b8584848151811061263a5761263a612c7b565b6020026020010151836001600160a01b03166124fb9092919063ffffffff16565b508061266681612c91565b915050612550565b5092915050565b60006001600160a01b03821673eeeeeeeeeeeeeeeeeeeeeeeeeeeeeeeeeeeeeeee146126a15781611f4a565b600092915050565b61047c83838361270a565b61047c8363a9059cbb60e01b84846040516024016126d39291906139d6565b60408051601f198184030181529190526020810180516001600160e01b03166001600160e01b0319909316929092179091526127be565b8015806127835750604051636eb1769f60e11b81526001600160a01b0384169063dd62ed3e906127409030908690600401612dd4565b602060405180830381865afa15801561275d573d6000803e3d6000fd5b505050506040513d601f19601f820116820180604052508101906127819190612db3565b155b61279f5760405162461bcd60e51b815260040161073790613a44565b61047c8363095ea7b360e01b84846040516024016126d39291906139d6565b6000612813826040518060400160405280602081526020017f5361666545524332303a206c6f772d6c6576656c2063616c6c206661696c6564815250856001600160a01b031661284d9092919063ffffffff16565b80519091501561047c5780806020019051810190612831919061336e565b61047c5760405162461bcd60e51b815260040161073790613a9b565b606061285c8484600085612866565b90505b9392505050565b6060824710156128885760405162461bcd60e51b815260040161073790613aee565b600080866001600160a01b031685876040516128a49190613b20565b60006040518083038185875af1925050503d80600081146128e1576040519150601f19603f3d011682016040523d82523d6000602084013e6128e6565b606091505b50915091506128f787838387612904565b925050505b949350505050565b6060831561294357825160000361293c576001600160a01b0385163b61293c5760405162461bcd60e51b815260040161073790613b2c565b50816128fc565b6128fc83838151156129585781518083602001fd5b8060405162461bcd60e51b81526004016107379190613b67565b6040518060a0016040528060006001600160a01b03168152602001600081526020016060815260200160608152602001606081525090565b508054600082559060005260206000209081019061009391905b808211156129d857600081556001016129c4565b5090565b60006001600160a01b038216611f4a565b6129f6816129dc565b82525050565b6000612a0883836129ed565b505060200190565b6000612a1a825190565b80845260209384019383018060005b83811015612a4e578151612a3d88826129fc565b975060208301925050600101612a29565b509495945050505050565b6020808252810161285f8184612a10565b634e487b7160e01b600052604160045260246000fd5b601f19601f83011681018181106001600160401b0382111715612aa557612aa5612a6a565b6040525050565b6000612ab760405190565b9050612ac38282612a80565b919050565b60006001600160401b03821115612ae157612ae1612a6a565b601f19601f83011660200192915050565b82818337506000910152565b6000612b11612b0c84612ac8565b612aac565b905082815260208101848484011115612b2c57612b2c600080fd5b612b37848285612af2565b509392505050565b600082601f830112612b5357612b53600080fd5b81356128fc848260208601612afe565b600060208284031215612b7857612b78600080fd5b81356001600160401b03811115612b9157612b91600080fd5b6128fc84828501612b3f565b806129f6565b6000612a088383612b9d565b6000612bb9825190565b80845260209384019383018060005b83811015612a4e578151612bdc8882612ba3565b975060208301925050600101612bc8565b60408082528101612bfe8185612a10565b9050818103602083015261285c8184612baf565b612c1b816129dc565b811461009357600080fd5b8051611f4a81612c12565b600060208284031215612c4657612c46600080fd5b60006128fc8484612c26565b634e487b7160e01b600052601160045260246000fd5b80820180821115611f4a57611f4a612c52565b634e487b7160e01b600052603260045260246000fd5b60006000198203612ca457612ca4612c52565b5060010190565b80612c1b565b8051611f4a81612cab565b60005b83811015612cd7578181015183820152602001612cbf565b50506000910152565b6000612cee612b0c84612ac8565b905082815260208101848484011115612d0957612d09600080fd5b612b37848285612cbc565b600082601f830112612d2857612d28600080fd5b81516128fc848260208601612ce0565b60008060408385031215612d4e57612d4e600080fd5b6000612d5a8585612cb1565b92505060208301516001600160401b03811115612d7957612d79600080fd5b612d8585828601612d14565b9150509250929050565b634e487b7160e01b600052602160045260246000fd5b60208101611f4a82846129ed565b600060208284031215612dc857612dc8600080fd5b60006128fc8484612cb1565b60408101612de282856129ed565b61285f60208301846129ed565b63ffffffff8116612c1b565b8051611f4a81612def565b60008060408385031215612e1c57612e1c600080fd5b6000612e288585612c26565b9250506020612d8585828601612dfb565b603181526000602082017f5f5f6765745072696e636970616c546f6b656e56616c75653a204475726174698152701bdb881b9bdd081c9959da5cdd195c9959607a1b602082015291505b5060400190565b60208082528101611f4a81612e39565b600060208284031215612eaf57612eaf600080fd5b60006128fc8484612dfb565b63ffffffff81166129f6565b60408101612ed582856129ed565b61285f6020830184612ebb565b81810280821583820485141761266e5761266e612c52565b634e487b7160e01b600052601260045260246000fd5b600082612f1f57612f1f612efa565b500490565b6000611f4a826129dc565b612c1b81612f24565b8051611f4a81612f2f565b600080600060608486031215612f5b57612f5b600080fd5b6000612f678686612f38565b9350506020612f7886828701612f38565b9250506040612f8986828701612c26565b9150509250925092565b602a81526000602082017f5f5f6765744c70546f6b656e56616c75653a204475726174696f6e206e6f74208152691c9959da5cdd195c995960b21b60208201529150612e83565b60208082528101611f4a81612f93565b805160a0830190612ffb8482612b9d565b50602082015161300e6020850182612b9d565b5060408201516130216040850182612b9d565b5060608201516130346060850182612b9d565b506080820151611c846080850182612b9d565b6004811061009357610093612d8f565b80612ac381613047565b6000611f4a82613057565b6129f681613061565b600061307f825190565b808452602084019350613096818560208601612cbc565b601f01601f19169290920192915050565b80516000906101808401906130bc8582612b9d565b5060208301516130cf6020860182612b9d565b5060408301516130e26040860182612b9d565b5060608301516130f5606086018261306c565b50608083015161310860808601826129ed565b5060a083015161311b60a08601826129ed565b5060c083015161312e60c08601826129ed565b5060e083015161314160e08601826129ed565b50610100830151613156610100860182612b9d565b5061012083015161316b610120860182612b9d565b50610140830151613180610140860182612b9d565b506101608301518482036101608601526120848282613075565b80516060808452600091908401906131b282826130a7565b915050602083015184820360208601526131cc8282613075565b9150506040830151612b376040860182612b9d565b600061285f838361319a565b60006131f7825190565b808452602084019350836020820285016132118560200190565b8060005b85811015613246578484038952815161322e85826131e1565b94506020830160209a909a0199925050600101613215565b5091979650505050505050565b805160009060a084019061326785826129ed565b50602083015161327a6020860182612b9d565b506040830151848203604086015261329282826131ed565b915050606083015184820360608601526132ac82826131ed565b915050608083015184820360808601526120848282613075565b61014081016132d582896129ed565b6132e260208301886129ed565b6132ef6040830187612b9d565b6132fc6060830186612b9d565b6133096080830185612fea565b81810361012083015261331c8184613253565b98975050505050505050565b6000806040838503121561333e5761333e600080fd5b600061334a8585612cb1565b9250506020612d8585828601612cb1565b801515612c1b565b8051611f4a8161335b565b60006020828403121561338357613383600080fd5b60006128fc8484613363565b6000611f4a61339b8381565b90565b6129f68161338f565b608081016133b582876129ed565b6133c260208301866129ed565b6133cf6040830185612b9d565b612084606083018461339e565b60a081016133ea82886129ed565b6133f760208301876129ed565b6134046040830186612b9d565b613411606083018561339e565b81810360808301526134238184613253565b979650505050505050565b602281526000602082017f5f5f6164644c69717569646974793a20556e737570706f72746564206d61726b815261195d60f21b60208201529150612e83565b60208082528101611f4a8161342e565b602581526000602082017f5f5f72656d6f76654c69717569646974793a20556e737570706f72746564206d815264185c9ad95d60da1b60208201529150612e83565b60208082528101611f4a8161347d565b60a081016134dd82886129ed565b6134ea60208301876129ed565b6134f76040830186612b9d565b6134116060830185612b9d565b60006001600160401b0382111561351d5761351d612a6a565b5060209081020190565b6000613535612b0c84613504565b8381529050602080820190840283018581111561355457613554600080fd5b835b8181101561357857806135698882612c26565b84525060209283019201613556565b5050509392505050565b600082601f83011261359657613596600080fd5b81516128fc848260208601613527565b6000602082840312156135bb576135bb600080fd5b81516001600160401b038111156135d4576135d4600080fd5b6128fc84828501613582565b60006135ee612b0c84613504565b8381529050602080820190840283018581111561360d5761360d600080fd5b835b8181101561357857806136228882612cb1565b8452506020928301920161360f565b600082601f83011261364557613645600080fd5b81516128fc8482602086016135e0565b60006020828403121561366a5761366a600080fd5b81516001600160401b0381111561368357613683600080fd5b6128fc84828501613631565b60408101612de28285612b9d565b602781526000602082017f5f5f76616c69646174655379546f6b656e3a20556e737570706f7274656420538152662c902a37b5b2b760c91b60208201529150612e83565b60208082528101611f4a8161369d565b600060a0828403121561370657613706600080fd5b61371060a0612aac565b9050600061371e8484612cb1565b825250602061372f84848301612cb1565b602083015250604061374384828501612cb1565b604083015250606061375784828501612cb1565b606083015250608061376b84828501612cb1565b60808301525092915050565b6000806000806000610120868803121561379357613793600080fd5b600061379f8888612f38565b95505060206137b088828901612c26565b94505060406137c188828901612cb1565b93505060606137d2888289016136f1565b9250506101006137e488828901612cb1565b9150509295509295909350565b602981526000602082017f5f5f76616c69646174654d61726b6574466f7250743a20556e737570706f72748152681959081b585c9ad95d60ba1b60208201529150612e83565b60208082528101611f4a816137f1565b60208101611f4a8284612b9d565b6080810161386382876129ed565b61387060208301866129ed565b61387d6040830185612b9d565b6120846060830184612b9d565b600080600080608085870312156138a3576138a3600080fd5b60006138af8787612f38565b94505060206138c087828801612c26565b93505060406138d187828801612cb1565b92505060606138e287828801612cb1565b91505092959194509250565b8015156129f6565b60a0810161390482886129ed565b6139116020830187612b9d565b61391e60408301866129ed565b61392b6060830185612b9d565b61393860808301846138ee565b9695505050505050565b81810381811115611f4a57611f4a612c52565b634e487b7160e01b600052603160045260246000fd5b600080600080600060a0868803121561398657613986600080fd5b60006139928888612f38565b95505060206139a388828901612c26565b94505060406139b488828901612cb1565b93505060606139c588828901612cb1565b92505060806137e488828901612cb1565b604081016139e482856129ed565b61285f6020830184612b9d565b603681526000602082017f5361666545524332303a20617070726f76652066726f6d206e6f6e2d7a65726f81527520746f206e6f6e2d7a65726f20616c6c6f77616e636560501b60208201529150612e83565b60208082528101611f4a816139f1565b602a81526000602082017f5361666545524332303a204552433230206f7065726174696f6e20646964206e8152691bdd081cdd58d8d9595960b21b60208201529150612e83565b60208082528101611f4a81613a54565b602681526000602082017f416464726573733a20696e73756666696369656e742062616c616e636520666f8152651c8818d85b1b60d21b60208201529150612e83565b60208082528101611f4a81613aab565b6000613b08825190565b613b16818560208601612cbc565b9290920192915050565b600061285f8284613afe565b60208082528101611f4a81601d81527f416464726573733a2063616c6c20746f206e6f6e2d636f6e7472616374000000602082015260400190565b6020808252810161285f818461307556","linkReferences":{}},"methodIdentifiers":{"getDebtAssets()":"ecd658b4","getLPTokens()":"1224abfb","getManagedAssets()":"80daddb8","getPrincipalTokens()":"edc24b94","init(bytes)":"4ddf47d4","receiveCallFromVault(bytes)":"e5c23a97"},"id":140}