{"abi":[{"type":"constructor","inputs":[{"name":"_integrationManager","type":"address","internalType":"address"}],"stateMutability":"nonpayable"},{"type":"function","name":"CLAIM_REWARDS_SELECTOR","inputs":[],"outputs":[{"name":"","type":"bytes4","internalType":"bytes4"}],"stateMutability":"view"},{"type":"function","name":"LEND_AND_STAKE_SELECTOR","inputs":[],"outputs":[{"name":"","type":"bytes4","internalType":"bytes4"}],"stateMutability":"view"},{"type":"function","name":"LEND_SELECTOR","inputs":[],"outputs":[{"name":"","type":"bytes4","internalType":"bytes4"}],"stateMutability":"view"},{"type":"function","name":"REDEEM_SELECTOR","inputs":[],"outputs":[{"name":"","type":"bytes4","internalType":"bytes4"}],"stateMutability":"view"},{"type":"function","name":"STAKE_SELECTOR","inputs":[],"outputs":[{"name":"","type":"bytes4","internalType":"bytes4"}],"stateMutability":"view"},{"type":"function","name":"TAKE_MULTIPLE_ORDERS_SELECTOR","inputs":[],"outputs":[{"name":"","type":"bytes4","internalType":"bytes4"}],"stateMutability":"view"},{"type":"function","name":"TAKE_ORDER_SELECTOR","inputs":[],"outputs":[{"name":"","type":"bytes4","internalType":"bytes4"}],"stateMutability":"view"},{"type":"function","name":"UNSTAKE_AND_REDEEM_SELECTOR","inputs":[],"outputs":[{"name":"","type":"bytes4","internalType":"bytes4"}],"stateMutability":"view"},{"type":"function","name":"UNSTAKE_SELECTOR","inputs":[],"outputs":[{"name":"","type":"bytes4","internalType":"bytes4"}],"stateMutability":"view"},{"type":"function","name":"getIntegrationManager","inputs":[],"outputs":[{"name":"integrationManager_","type":"address","internalType":"address"}],"stateMutability":"view"},{"type":"function","name":"lend","inputs":[{"name":"_vaultProxy","type":"address","internalType":"address"},{"name":"_actionData","type":"bytes","internalType":"bytes"},{"name":"_assetData","type":"bytes","internalType":"bytes"}],"outputs":[],"stateMutability":"nonpayable"},{"type":"function","name":"parseAssetsForAction","inputs":[{"name":"","type":"address","internalType":"address"},{"name":"_selector","type":"bytes4","internalType":"bytes4"},{"name":"_actionData","type":"bytes","internalType":"bytes"}],"outputs":[{"name":"spendAssetsHandleType_","type":"uint8","internalType":"enum IIntegrationManager.SpendAssetsHandleType"},{"name":"spendAssets_","type":"address[]","internalType":"address[]"},{"name":"spendAssetAmounts_","type":"uint256[]","internalType":"uint256[]"},{"name":"incomingAssets_","type":"address[]","internalType":"address[]"},{"name":"minIncomingAssetAmounts_","type":"uint256[]","internalType":"uint256[]"}],"stateMutability":"view"},{"type":"function","name":"redeem","inputs":[{"name":"_vaultProxy","type":"address","internalType":"address"},{"name":"_actionData","type":"bytes","internalType":"bytes"},{"name":"","type":"bytes","internalType":"bytes"}],"outputs":[],"stateMutability":"nonpayable"}],"bytecode":{"object":"0x60a06040523480156200001157600080fd5b5060405162002852380380620028528339818101604052810190620000379190620000de565b808073ffffffffffffffffffffffffffffffffffffffff1660808173ffffffffffffffffffffffffffffffffffffffff1681525050505062000110565b600080fd5b600073ffffffffffffffffffffffffffffffffffffffff82169050919050565b6000620000a68262000079565b9050919050565b620000b88162000099565b8114620000c457600080fd5b50565b600081519050620000d881620000ad565b92915050565b600060208284031215620000f757620000f662000074565b5b60006200010784828501620000c7565b91505092915050565b6080516127266200012c60003960006107cb01526127266000f3fe608060405234801561001057600080fd5b50600436106100cf5760003560e01c8063863e5ad01161008c578063c32990a211610066578063c32990a2146101de578063c54efee5146101fc578063e7c4569014610230578063f7d882b51461024e576100cf565b8063863e5ad014610186578063b23228cf146101a4578063c29fa9dd146101c2576100cf565b8063080456c1146100d4578063099f7515146100f2578063131461c01461010e578063257cb1a31461012c5780633ffc15911461014a57806340da225d14610168575b600080fd5b6100dc61026c565b6040516100e991906117f8565b60405180910390f35b61010c600480360381019061010791906118ea565b610290565b005b6101166104a4565b60405161012391906117f8565b60405180910390f35b6101346104c8565b60405161014191906117f8565b60405180910390f35b6101526104ec565b60405161015f91906117f8565b60405180910390f35b610170610510565b60405161017d91906117f8565b60405180910390f35b61018e610534565b60405161019b91906117f8565b60405180910390f35b6101ac610558565b6040516101b991906117f8565b60405180910390f35b6101dc60048036038101906101d791906118ea565b61057c565b005b6101e6610659565b6040516101f391906117f8565b60405180910390f35b610216600480360381019061021191906119ab565b61067d565b604051610227959493929190611c1c565b60405180910390f35b6102386107c7565b6040516102459190611c9a565b60405180910390f35b6102566107ef565b60405161026391906117f8565b60405180910390f35b7f8334eb99be0145865eba9889fca2ee920288090caefff4cc776038e20ad9259a81565b8482828080601f016020809104026020016040519081016040528093929190818152602001838380828437600081840152601f19601f82011690508083019250505050505050600080600061032889898080601f016020809104026020016040519081016040528093929190818152602001838380828437600081840152601f19601f82011690508083019250505050505050610813565b925092509250600061037d88888080601f016020809104026020016040519081016040528093929190818152602001838380828437600081840152601f19601f82011690508083019250505050505050610840565b505090506103bf8160008151811061039857610397611cb5565b5b602002602001015185856000600281106103b5576103b4611cb5565b5b6020020151610866565b6103fd816001815181106103d6576103d5611cb5565b5b602002602001015185856001600281106103f3576103f2611cb5565b5b6020020151610866565b8373ffffffffffffffffffffffffffffffffffffffff166394bf804d838d6040518363ffffffff1660e01b8152600401610438929190611cf3565b60408051808303816000875af1158015610456573d6000803e3d6000fd5b505050506040513d601f19601f8201168201806040525081019061047a9190611d48565b505050505050600061048b82610840565b505090506104998382610976565b505050505050505050565b7f29fa046e79524c3c5ac4c01df692c35e217802b2b13b21121b76cf0ef02b138c81565b7f099f75155f0e997bf83a7993a71d5e7e7540bd386fe1e84643a09ce6b412521981565b7ffa7dd04da627f433da73c4355ead9c75682a67a8fc84d3f6170ef0922f402d2481565b7fb9dfbaccbe5cd2a84fdcf1d15f23ef25d23086f5afbaa99516065ed4a5bbc7a381565b7f03e38a2bd7063d45c897edeafc330e71657502dd86434d3c37a489caf116af6981565b7f68e30677f607df46e87da13e15b637784cfa62374b653f35ab43d10361a2f83081565b6000806105cc86868080601f016020809104026020016040519081016040528093929190818152602001838380828437600081840152601f19601f82011690508083019250505050505050610b0c565b50915091508173ffffffffffffffffffffffffffffffffffffffff1663fcd3533c82896040518363ffffffff1660e01b815260040161060c929190611cf3565b60408051808303816000875af115801561062a573d6000803e3d6000fd5b505050506040513d601f19601f8201168201806040525081019061064e9190611d48565b505050505050505050565b7f0e7f692dad5b88fdee426250d6eae91207e56a2e8112b7364579bed1790e5bf481565b60006060806060807f099f75155f0e997bf83a7993a71d5e7e7540bd386fe1e84643a09ce6b41252197bffffffffffffffffffffffffffffffffffffffffffffffffffffffff1916887bffffffffffffffffffffffffffffffffffffffffffffffffffffffff191603610703576106f48787610b38565b945094509450945094506107bc565b7fc29fa9dde84204c2908778afd0613d802d31cf046179b88f6d2b4a4e507ea2d57bffffffffffffffffffffffffffffffffffffffffffffffffffffffff1916887bffffffffffffffffffffffffffffffffffffffffffffffffffffffff191603610781576107728787610f35565b945094509450945094506107bc565b6040517f08c379a00000000000000000000000000000000000000000000000000000000081526004016107b390611e0b565b60405180910390fd5b945094509450945094565b60007f0000000000000000000000000000000000000000000000000000000000000000905090565b7fc29fa9dde84204c2908778afd0613d802d31cf046179b88f6d2b4a4e507ea2d581565b600061081d61179b565b6000838060200190518101906108339190611fa6565b9250925092509193909250565b6060806060838060200190518101906108599190612194565b9250925092509193909250565b60008373ffffffffffffffffffffffffffffffffffffffff1663dd62ed3e30856040518363ffffffff1660e01b81526004016108a392919061223b565b602060405180830381865afa1580156108c0573d6000803e3d6000fd5b505050506040513d601f19601f820116820180604052508101906108e49190612264565b905081811015610970576000811115610924576109238360008673ffffffffffffffffffffffffffffffffffffffff166113329092919063ffffffff16565b5b61096f837fffffffffffffffffffffffffffffffffffffffffffffffffffffffffffffffff8673ffffffffffffffffffffffffffffffffffffffff166113329092919063ffffffff16565b5b50505050565b6060815167ffffffffffffffff81111561099357610992611e7a565b5b6040519080825280602002602001820160405280156109c15781602001602082028036833780820191505090505b50905060005b8251811015610b055760008382815181106109e5576109e4611cb5565b5b602002602001015190508073ffffffffffffffffffffffffffffffffffffffff166370a08231306040518263ffffffff1660e01b8152600401610a289190611c9a565b602060405180830381865afa158015610a45573d6000803e3d6000fd5b505050506040513d601f19601f82011682018060405250810190610a699190612264565b838381518110610a7c57610a7b611cb5565b5b6020026020010181815250506000838381518110610a9d57610a9c611cb5565b5b60200260200101511115610af157610af085848481518110610ac257610ac1611cb5565b5b60200260200101518373ffffffffffffffffffffffffffffffffffffffff166114819092919063ffffffff16565b5b508080610afd906122c0565b9150506109c7565b5092915050565b600080610b1761179b565b83806020019051810190610b2b9190612308565b9250925092509193909250565b60006060806060806000806000610b928a8a8080601f016020809104026020016040519081016040528093929190818152602001838380828437600081840152601f19601f82011690508083019250505050505050610813565b925092509250600267ffffffffffffffff811115610bb357610bb2611e7a565b5b604051908082528060200260200182016040528015610be15781602001602082028036833780820191505090505b5096508273ffffffffffffffffffffffffffffffffffffffff16630dfe16816040518163ffffffff1660e01b8152600401602060405180830381865afa158015610c2f573d6000803e3d6000fd5b505050506040513d601f19601f82011682018060405250810190610c53919061235b565b87600081518110610c6757610c66611cb5565b5b602002602001019073ffffffffffffffffffffffffffffffffffffffff16908173ffffffffffffffffffffffffffffffffffffffff16815250508273ffffffffffffffffffffffffffffffffffffffff1663d21220a76040518163ffffffff1660e01b8152600401602060405180830381865afa158015610cec573d6000803e3d6000fd5b505050506040513d601f19601f82011682018060405250810190610d10919061235b565b87600181518110610d2457610d23611cb5565b5b602002602001019073ffffffffffffffffffffffffffffffffffffffff16908173ffffffffffffffffffffffffffffffffffffffff1681525050600267ffffffffffffffff811115610d7957610d78611e7a565b5b604051908082528060200260200182016040528015610da75781602001602082028036833780820191505090505b50955081600060028110610dbe57610dbd611cb5565b5b602002015186600081518110610dd757610dd6611cb5565b5b60200260200101818152505081600160028110610df757610df6611cb5565b5b602002015186600181518110610e1057610e0f611cb5565b5b602002602001018181525050600167ffffffffffffffff811115610e3757610e36611e7a565b5b604051908082528060200260200182016040528015610e655781602001602082028036833780820191505090505b5094508285600081518110610e7d57610e7c611cb5565b5b602002602001019073ffffffffffffffffffffffffffffffffffffffff16908173ffffffffffffffffffffffffffffffffffffffff1681525050600167ffffffffffffffff811115610ed257610ed1611e7a565b5b604051908082528060200260200182016040528015610f005781602001602082028036833780820191505090505b5093508084600081518110610f1857610f17611cb5565b5b602002602001018181525050600297505050509295509295909350565b60006060806060806000806000610f8f8a8a8080601f016020809104026020016040519081016040528093929190818152602001838380828437600081840152601f19601f82011690508083019250505050505050610b0c565b925092509250600167ffffffffffffffff811115610fb057610faf611e7a565b5b604051908082528060200260200182016040528015610fde5781602001602082028036833780820191505090505b5096508287600081518110610ff657610ff5611cb5565b5b602002602001019073ffffffffffffffffffffffffffffffffffffffff16908173ffffffffffffffffffffffffffffffffffffffff1681525050600167ffffffffffffffff81111561104b5761104a611e7a565b5b6040519080825280602002602001820160405280156110795781602001602082028036833780820191505090505b509550818660008151811061109157611090611cb5565b5b602002602001018181525050600267ffffffffffffffff8111156110b8576110b7611e7a565b5b6040519080825280602002602001820160405280156110e65781602001602082028036833780820191505090505b5094508273ffffffffffffffffffffffffffffffffffffffff16630dfe16816040518163ffffffff1660e01b8152600401602060405180830381865afa158015611134573d6000803e3d6000fd5b505050506040513d601f19601f82011682018060405250810190611158919061235b565b8560008151811061116c5761116b611cb5565b5b602002602001019073ffffffffffffffffffffffffffffffffffffffff16908173ffffffffffffffffffffffffffffffffffffffff16815250508273ffffffffffffffffffffffffffffffffffffffff1663d21220a76040518163ffffffff1660e01b8152600401602060405180830381865afa1580156111f1573d6000803e3d6000fd5b505050506040513d601f19601f82011682018060405250810190611215919061235b565b8560018151811061122957611228611cb5565b5b602002602001019073ffffffffffffffffffffffffffffffffffffffff16908173ffffffffffffffffffffffffffffffffffffffff1681525050600267ffffffffffffffff81111561127e5761127d611e7a565b5b6040519080825280602002602001820160405280156112ac5781602001602082028036833780820191505090505b509350806000600281106112c3576112c2611cb5565b5b6020020151846000815181106112dc576112db611cb5565b5b602002602001018181525050806001600281106112fc576112fb611cb5565b5b60200201518460018151811061131557611314611cb5565b5b602002602001018181525050600297505050509295509295909350565b60008114806113bc575060008373ffffffffffffffffffffffffffffffffffffffff1663dd62ed3e30856040518363ffffffff1660e01b815260040161137992919061223b565b602060405180830381865afa158015611396573d6000803e3d6000fd5b505050506040513d601f19601f820116820180604052508101906113ba9190612264565b145b6113fb576040517f08c379a00000000000000000000000000000000000000000000000000000000081526004016113f2906123fa565b60405180910390fd5b61147c8363095ea7b360e01b848460405160240161141a92919061241a565b604051602081830303815290604052907bffffffffffffffffffffffffffffffffffffffffffffffffffffffff19166020820180517bffffffffffffffffffffffffffffffffffffffffffffffffffffffff8381831617835250505050611507565b505050565b6115028363a9059cbb60e01b84846040516024016114a092919061241a565b604051602081830303815290604052907bffffffffffffffffffffffffffffffffffffffffffffffffffffffff19166020820180517bffffffffffffffffffffffffffffffffffffffffffffffffffffffff8381831617835250505050611507565b505050565b6000611569826040518060400160405280602081526020017f5361666545524332303a206c6f772d6c6576656c2063616c6c206661696c65648152508573ffffffffffffffffffffffffffffffffffffffff166115ce9092919063ffffffff16565b90506000815111156115c95780806020019051810190611589919061247b565b6115c8576040517f08c379a00000000000000000000000000000000000000000000000000000000081526004016115bf9061251a565b60405180910390fd5b5b505050565b60606115dd84846000856115e6565b90509392505050565b60608247101561162b576040517f08c379a0000000000000000000000000000000000000000000000000000000008152600401611622906125ac565b60405180910390fd5b6000808673ffffffffffffffffffffffffffffffffffffffff168587604051611654919061263d565b60006040518083038185875af1925050503d8060008114611691576040519150601f19603f3d011682016040523d82523d6000602084013e611696565b606091505b50915091506116a7878383876116b3565b92505050949350505050565b6060831561171557600083510361170d576116cd85611728565b61170c576040517f08c379a0000000000000000000000000000000000000000000000000000000008152600401611703906126a0565b60405180910390fd5b5b829050611720565b61171f838361174b565b5b949350505050565b6000808273ffffffffffffffffffffffffffffffffffffffff163b119050919050565b60008251111561175e5781518083602001fd5b806040517f08c379a00000000000000000000000000000000000000000000000000000000081526004016117929190612704565b60405180910390fd5b6040518060400160405280600290602082028036833780820191505090505090565b60007fffffffff0000000000000000000000000000000000000000000000000000000082169050919050565b6117f2816117bd565b82525050565b600060208201905061180d60008301846117e9565b92915050565b6000604051905090565b600080fd5b600080fd5b600073ffffffffffffffffffffffffffffffffffffffff82169050919050565b600061185282611827565b9050919050565b61186281611847565b811461186d57600080fd5b50565b60008135905061187f81611859565b92915050565b600080fd5b600080fd5b600080fd5b60008083601f8401126118aa576118a9611885565b5b8235905067ffffffffffffffff8111156118c7576118c661188a565b5b6020830191508360018202830111156118e3576118e261188f565b5b9250929050565b6000806000806000606086880312156119065761190561181d565b5b600061191488828901611870565b955050602086013567ffffffffffffffff81111561193557611934611822565b5b61194188828901611894565b9450945050604086013567ffffffffffffffff81111561196457611963611822565b5b61197088828901611894565b92509250509295509295909350565b611988816117bd565b811461199357600080fd5b50565b6000813590506119a58161197f565b92915050565b600080600080606085870312156119c5576119c461181d565b5b60006119d387828801611870565b94505060206119e487828801611996565b935050604085013567ffffffffffffffff811115611a0557611a04611822565b5b611a1187828801611894565b925092505092959194509250565b7f4e487b7100000000000000000000000000000000000000000000000000000000600052602160045260246000fd5b60038110611a5f57611a5e611a1f565b5b50565b6000819050611a7082611a4e565b919050565b6000611a8082611a62565b9050919050565b611a9081611a75565b82525050565b600081519050919050565b600082825260208201905092915050565b6000819050602082019050919050565b611acb81611847565b82525050565b6000611add8383611ac2565b60208301905092915050565b6000602082019050919050565b6000611b0182611a96565b611b0b8185611aa1565b9350611b1683611ab2565b8060005b83811015611b47578151611b2e8882611ad1565b9750611b3983611ae9565b925050600181019050611b1a565b5085935050505092915050565b600081519050919050565b600082825260208201905092915050565b6000819050602082019050919050565b6000819050919050565b611b9381611b80565b82525050565b6000611ba58383611b8a565b60208301905092915050565b6000602082019050919050565b6000611bc982611b54565b611bd38185611b5f565b9350611bde83611b70565b8060005b83811015611c0f578151611bf68882611b99565b9750611c0183611bb1565b925050600181019050611be2565b5085935050505092915050565b600060a082019050611c316000830188611a87565b8181036020830152611c438187611af6565b90508181036040830152611c578186611bbe565b90508181036060830152611c6b8185611af6565b90508181036080830152611c7f8184611bbe565b90509695505050505050565b611c9481611847565b82525050565b6000602082019050611caf6000830184611c8b565b92915050565b7f4e487b7100000000000000000000000000000000000000000000000000000000600052603260045260246000fd5b611ced81611b80565b82525050565b6000604082019050611d086000830185611ce4565b611d156020830184611c8b565b9392505050565b611d2581611b80565b8114611d3057600080fd5b50565b600081519050611d4281611d1c565b92915050565b60008060408385031215611d5f57611d5e61181d565b5b6000611d6d85828601611d33565b9250506020611d7e85828601611d33565b9150509250929050565b600082825260208201905092915050565b7f7061727365417373657473466f72416374696f6e3a205f73656c6563746f722060008201527f696e76616c696400000000000000000000000000000000000000000000000000602082015250565b6000611df5602783611d88565b9150611e0082611d99565b604082019050919050565b60006020820190508181036000830152611e2481611de8565b9050919050565b6000611e3682611847565b9050919050565b611e4681611e2b565b8114611e5157600080fd5b50565b600081519050611e6381611e3d565b92915050565b6000601f19601f8301169050919050565b7f4e487b7100000000000000000000000000000000000000000000000000000000600052604160045260246000fd5b611eb282611e69565b810181811067ffffffffffffffff82111715611ed157611ed0611e7a565b5b80604052505050565b6000611ee4611813565b9050611ef08282611ea9565b919050565b600067ffffffffffffffff821115611f1057611f0f611e7a565b5b602082029050919050565b6000611f2e611f2984611ef5565b611eda565b90508060208402830185811115611f4857611f4761188f565b5b835b81811015611f715780611f5d8882611d33565b845260208401935050602081019050611f4a565b5050509392505050565b600082601f830112611f9057611f8f611885565b5b6002611f9d848285611f1b565b91505092915050565b600080600060808486031215611fbf57611fbe61181d565b5b6000611fcd86828701611e54565b9350506020611fde86828701611f7b565b9250506060611fef86828701611d33565b9150509250925092565b600067ffffffffffffffff82111561201457612013611e7a565b5b602082029050602081019050919050565b60008151905061203481611859565b92915050565b600061204d61204884611ff9565b611eda565b905080838252602082019050602084028301858111156120705761206f61188f565b5b835b8181101561209957806120858882612025565b845260208401935050602081019050612072565b5050509392505050565b600082601f8301126120b8576120b7611885565b5b81516120c884826020860161203a565b91505092915050565b600067ffffffffffffffff8211156120ec576120eb611e7a565b5b602082029050602081019050919050565b600061211061210b846120d1565b611eda565b905080838252602082019050602084028301858111156121335761213261188f565b5b835b8181101561215c57806121488882611d33565b845260208401935050602081019050612135565b5050509392505050565b600082601f83011261217b5761217a611885565b5b815161218b8482602086016120fd565b91505092915050565b6000806000606084860312156121ad576121ac61181d565b5b600084015167ffffffffffffffff8111156121cb576121ca611822565b5b6121d7868287016120a3565b935050602084015167ffffffffffffffff8111156121f8576121f7611822565b5b61220486828701612166565b925050604084015167ffffffffffffffff81111561222557612224611822565b5b612231868287016120a3565b9150509250925092565b60006040820190506122506000830185611c8b565b61225d6020830184611c8b565b9392505050565b60006020828403121561227a5761227961181d565b5b600061228884828501611d33565b91505092915050565b7f4e487b7100000000000000000000000000000000000000000000000000000000600052601160045260246000fd5b60006122cb82611b80565b91507fffffffffffffffffffffffffffffffffffffffffffffffffffffffffffffffff82036122fd576122fc612291565b5b600182019050919050565b6000806000608084860312156123215761232061181d565b5b600061232f86828701611e54565b935050602061234086828701611d33565b925050604061235186828701611f7b565b9150509250925092565b6000602082840312156123715761237061181d565b5b600061237f84828501612025565b91505092915050565b7f5361666545524332303a20617070726f76652066726f6d206e6f6e2d7a65726f60008201527f20746f206e6f6e2d7a65726f20616c6c6f77616e636500000000000000000000602082015250565b60006123e4603683611d88565b91506123ef82612388565b604082019050919050565b60006020820190508181036000830152612413816123d7565b9050919050565b600060408201905061242f6000830185611c8b565b61243c6020830184611ce4565b9392505050565b60008115159050919050565b61245881612443565b811461246357600080fd5b50565b6000815190506124758161244f565b92915050565b6000602082840312156124915761249061181d565b5b600061249f84828501612466565b91505092915050565b7f5361666545524332303a204552433230206f7065726174696f6e20646964206e60008201527f6f74207375636365656400000000000000000000000000000000000000000000602082015250565b6000612504602a83611d88565b915061250f826124a8565b604082019050919050565b60006020820190508181036000830152612533816124f7565b9050919050565b7f416464726573733a20696e73756666696369656e742062616c616e636520666f60008201527f722063616c6c0000000000000000000000000000000000000000000000000000602082015250565b6000612596602683611d88565b91506125a18261253a565b604082019050919050565b600060208201905081810360008301526125c581612589565b9050919050565b600081519050919050565b600081905092915050565b60005b838110156126005780820151818401526020810190506125e5565b60008484015250505050565b6000612617826125cc565b61262181856125d7565b93506126318185602086016125e2565b80840191505092915050565b6000612649828461260c565b915081905092915050565b7f416464726573733a2063616c6c20746f206e6f6e2d636f6e7472616374000000600082015250565b600061268a601d83611d88565b915061269582612654565b602082019050919050565b600060208201905081810360008301526126b98161267d565b9050919050565b600081519050919050565b60006126d6826126c0565b6126e08185611d88565b93506126f08185602086016125e2565b6126f981611e69565b840191505092915050565b6000602082019050818103600083015261271e81846126cb565b90509291505056","linkReferences":{}},"methodIdentifiers":{"CLAIM_REWARDS_SELECTOR()":"40da225d","LEND_AND_STAKE_SELECTOR()":"131461c0","LEND_SELECTOR()":"257cb1a3","REDEEM_SELECTOR()":"f7d882b5","STAKE_SELECTOR()":"3ffc1591","TAKE_MULTIPLE_ORDERS_SELECTOR()":"c32990a2","TAKE_ORDER_SELECTOR()":"863e5ad0","UNSTAKE_AND_REDEEM_SELECTOR()":"080456c1","UNSTAKE_SELECTOR()":"b23228cf","getIntegrationManager()":"e7c45690","lend(address,bytes,bytes)":"099f7515","parseAssetsForAction(address,bytes4,bytes)":"c54efee5","redeem(address,bytes,bytes)":"c29fa9dd"},"id":68}