{"abi":[{"type":"constructor","inputs":[{"name":"_dispatcher","type":"address","internalType":"address"}],"stateMutability":"nonpayable"},{"type":"function","name":"addToList","inputs":[{"name":"_id","type":"uint256","internalType":"uint256"},{"name":"_items","type":"address[]","internalType":"address[]"}],"outputs":[],"stateMutability":"nonpayable"},{"type":"function","name":"areAllInAllLists","inputs":[{"name":"_ids","type":"uint256[]","internalType":"uint256[]"},{"name":"_items","type":"address[]","internalType":"address[]"}],"outputs":[{"name":"areAllInAllLists_","type":"bool","internalType":"bool"}],"stateMutability":"view"},{"type":"function","name":"areAllInList","inputs":[{"name":"_id","type":"uint256","internalType":"uint256"},{"name":"_items","type":"address[]","internalType":"address[]"}],"outputs":[{"name":"areAllInList_","type":"bool","internalType":"bool"}],"stateMutability":"view"},{"type":"function","name":"areAllInSomeOfLists","inputs":[{"name":"_ids","type":"uint256[]","internalType":"uint256[]"},{"name":"_items","type":"address[]","internalType":"address[]"}],"outputs":[{"name":"areAllInSomeOfLists_","type":"bool","internalType":"bool"}],"stateMutability":"view"},{"type":"function","name":"areAllNotInAnyOfLists","inputs":[{"name":"_ids","type":"uint256[]","internalType":"uint256[]"},{"name":"_items","type":"address[]","internalType":"address[]"}],"outputs":[{"name":"areAllNotInAnyOfLists_","type":"bool","internalType":"bool"}],"stateMutability":"view"},{"type":"function","name":"areAllNotInList","inputs":[{"name":"_id","type":"uint256","internalType":"uint256"},{"name":"_items","type":"address[]","internalType":"address[]"}],"outputs":[{"name":"areAllNotInList_","type":"bool","internalType":"bool"}],"stateMutability":"view"},{"type":"function","name":"attestLists","inputs":[{"name":"_ids","type":"uint256[]","internalType":"uint256[]"},{"name":"_descriptions","type":"string[]","internalType":"string[]"}],"outputs":[],"stateMutability":"nonpayable"},{"type":"function","name":"createList","inputs":[{"name":"_owner","type":"address","internalType":"address"},{"name":"_updateType","type":"uint8","internalType":"enum IAddressListRegistry.UpdateType"},{"name":"_initialItems","type":"address[]","internalType":"address[]"}],"outputs":[{"name":"id_","type":"uint256","internalType":"uint256"}],"stateMutability":"nonpayable"},{"type":"function","name":"getDispatcher","inputs":[],"outputs":[{"name":"dispatcher_","type":"address","internalType":"address"}],"stateMutability":"view"},{"type":"function","name":"getListCount","inputs":[],"outputs":[{"name":"count_","type":"uint256","internalType":"uint256"}],"stateMutability":"view"},{"type":"function","name":"getListOwner","inputs":[{"name":"_id","type":"uint256","internalType":"uint256"}],"outputs":[{"name":"owner_","type":"address","internalType":"address"}],"stateMutability":"view"},{"type":"function","name":"getListUpdateType","inputs":[{"name":"_id","type":"uint256","internalType":"uint256"}],"outputs":[{"name":"updateType_","type":"uint8","internalType":"enum IAddressListRegistry.UpdateType"}],"stateMutability":"view"},{"type":"function","name":"isInAllLists","inputs":[{"name":"_ids","type":"uint256[]","internalType":"uint256[]"},{"name":"_item","type":"address","internalType":"address"}],"outputs":[{"name":"isInAllLists_","type":"bool","internalType":"bool"}],"stateMutability":"view"},{"type":"function","name":"isInList","inputs":[{"name":"_id","type":"uint256","internalType":"uint256"},{"name":"_item","type":"address","internalType":"address"}],"outputs":[{"name":"isInList_","type":"bool","internalType":"bool"}],"stateMutability":"view"},{"type":"function","name":"isInSomeOfLists","inputs":[{"name":"_ids","type":"uint256[]","internalType":"uint256[]"},{"name":"_item","type":"address","internalType":"address"}],"outputs":[{"name":"isInSomeOfLists_","type":"bool","internalType":"bool"}],"stateMutability":"view"},{"type":"function","name":"removeFromList","inputs":[{"name":"_id","type":"uint256","internalType":"uint256"},{"name":"_items","type":"address[]","internalType":"address[]"}],"outputs":[],"stateMutability":"nonpayable"},{"type":"function","name":"setListOwner","inputs":[{"name":"_id","type":"uint256","internalType":"uint256"},{"name":"_nextOwner","type":"address","internalType":"address"}],"outputs":[],"stateMutability":"nonpayable"},{"type":"function","name":"setListUpdateType","inputs":[{"name":"_id","type":"uint256","internalType":"uint256"},{"name":"_nextUpdateType","type":"uint8","internalType":"enum IAddressListRegistry.UpdateType"}],"outputs":[],"stateMutability":"nonpayable"},{"type":"event","name":"ItemAddedToList","inputs":[{"name":"id","type":"uint256","indexed":true,"internalType":"uint256"},{"name":"item","type":"address","indexed":false,"internalType":"address"}],"anonymous":false},{"type":"event","name":"ItemRemovedFromList","inputs":[{"name":"id","type":"uint256","indexed":true,"internalType":"uint256"},{"name":"item","type":"address","indexed":false,"internalType":"address"}],"anonymous":false},{"type":"event","name":"ListAttested","inputs":[{"name":"id","type":"uint256","indexed":true,"internalType":"uint256"},{"name":"description","type":"string","indexed":false,"internalType":"string"}],"anonymous":false},{"type":"event","name":"ListCreated","inputs":[{"name":"creator","type":"address","indexed":true,"internalType":"address"},{"name":"owner","type":"address","indexed":true,"internalType":"address"},{"name":"id","type":"uint256","indexed":false,"internalType":"uint256"},{"name":"updateType","type":"uint8","indexed":false,"internalType":"enum IAddressListRegistry.UpdateType"}],"anonymous":false},{"type":"event","name":"ListOwnerSet","inputs":[{"name":"id","type":"uint256","indexed":true,"internalType":"uint256"},{"name":"nextOwner","type":"address","indexed":true,"internalType":"address"}],"anonymous":false},{"type":"event","name":"ListUpdateTypeSet","inputs":[{"name":"id","type":"uint256","indexed":true,"internalType":"uint256"},{"name":"prevUpdateType","type":"uint8","indexed":false,"internalType":"enum IAddressListRegistry.UpdateType"},{"name":"nextUpdateType","type":"uint8","indexed":true,"internalType":"enum IAddressListRegistry.UpdateType"}],"anonymous":false}],"bytecode":{"object":"0x60a06040523480156200001157600080fd5b50604051620015dd380380620015dd8339810160408190526200003491620000ef565b606081901b6001600160601b031916608052604080518082019091526000808252602082018181528154600181018355918052825160029092027f290decd9548b62a8d60345a988386fc84ba6bc95484008f6362f93160ef3e5630180546001600160a01b039093166001600160a01b031990931692909217808355905190829060ff60a01b1916600160a01b836003811115620000ce57fe5b021790555050505062000144565b8051620000e9816200012a565b92915050565b6000602082840312156200010257600080fd5b6000620001108484620000dc565b949350505050565b60006001600160a01b038216620000e9565b620001358162000118565b81146200014157600080fd5b50565b60805160601c61147b62000162600039806109c0525061147b6000f3fe608060405234801561001057600080fd5b50600436106101165760003560e01c806375674f46116100a2578063afc8dd6111610071578063afc8dd6114610246578063b426f94614610259578063be68406e1461026c578063ebb3d5891461027f578063ee4483dc1461028757610116565b806375674f46146101fa5780638da3d7361461020d578063956e8faa14610220578063abdf62151461023357610116565b806330bdd386116100e957806330bdd3861461018c5780633a6914fe1461019f5780634446fe37146101b257806351d3a322146101c5578063539f2ab4146101da57610116565b8063107df6c51461011b57806319bcc938146101445780631c563204146101645780632ce37b1014610177575b600080fd5b61012e610129366004610f55565b61029a565b60405161013b9190611288565b60405180910390f35b610157610152366004610fb4565b6102e6565b60405161013b919061127a565b61012e610172366004610fd2565b610316565b61017f610358565b60405161013b9190611316565b61012e61019a366004610f55565b61035e565b61012e6101ad366004610f55565b61039e565b61012e6101c0366004611047565b6103d2565b6101d86101d3366004610ff1565b610413565b005b6101ed6101e8366004610fb4565b610599565b60405161013b9190611296565b61012e610208366004610f04565b6105c8565b6101d861021b366004610ff1565b610613565b6101d861022e366004610fd2565b6106cc565b61012e610241366004611047565b61075c565b61012e610254366004610f04565b61078f565b6101d8610267366004610eac565b6107c1565b61017f61027a366004610e44565b610893565b6101576109be565b6101d8610295366004611066565b6109e2565b6000805b82518110156102da576102c4848483815181106102b757fe5b602002602001015161078f565b6102d25760009150506102e0565b60010161029e565b50600190505b92915050565b60008082815481106102f457fe5b60009182526020909120600290910201546001600160a01b031690505b919050565b600080838154811061032457fe5b600091825260208083206001600160a01b03861684526001600290930201919091019052604090205460ff16905092915050565b60005490565b6000805b82518110156102da576103888484838151811061037b57fe5b60200260200101516105c8565b6103965760009150506102e0565b600101610362565b6000805b82518110156102da576103bb8484838151811061037b57fe5b156103ca5760009150506102e0565b6001016103a2565b6000805b82518110156102da576103fc848483815181106103ef57fe5b6020026020010151610316565b1561040b5760009150506102e0565b6001016103d6565b8261041e3382610ade565b6104435760405162461bcd60e51b815260040161043a906112b6565b60405180910390fd5b600061044e85610599565b9050600281600381111561045e57fe5b14806104755750600381600381111561047357fe5b145b6104915760405162461bcd60e51b815260040161043a906112e6565b60005b83811015610591576104c1868686848181106104ac57fe5b90506020020160208101906101729190610e08565b156105895760008087815481106104d457fe5b906000526020600020906002020160010160008787858181106104f357fe5b90506020020160208101906105089190610e08565b6001600160a01b031681526020810191909152604001600020805460ff1916911515919091179055857f810f138e6e0ca6f5ac0bf2efc960187bce2c3b5afbb1e2d05905f2be7b3810b686868481811061055e57fe5b90506020020160208101906105739190610e08565b604051610580919061127a565b60405180910390a25b600101610494565b505050505050565b60008082815481106105a757fe5b6000918252602090912060029091020154600160a01b900460ff1692915050565b6000805b8351811015610609576105f28482815181106105e457fe5b602002602001015184610316565b156106015760019150506102e0565b6001016105cc565b5060009392505050565b8261061e3382610ade565b61063a5760405162461bcd60e51b815260040161043a906112b6565b600061064585610599565b9050600181600381111561065557fe5b148061066c5750600381600381111561066a57fe5b145b6106885760405162461bcd60e51b815260040161043a906112f6565b6106c585858580806020026020016040519081016040528093929190818152602001838360200280828437600092019190915250610bbe92505050565b5050505050565b816106d73382610ade565b6106f35760405162461bcd60e51b815260040161043a906112b6565b816000848154811061070157fe5b6000918252602082206002919091020180546001600160a01b0319166001600160a01b039384161790556040519184169185917f2d1c424d2803af2219fba896bc3092aed0ab3f7b022f412b79562b0fc2c2907d91a3505050565b6000805b82518110156102da57610779848483815181106103ef57fe5b6107875760009150506102e0565b600101610760565b6000805b83518110156102da576107ab8482815181106105e457fe5b6107b95760009150506102e0565b600101610793565b8281146107e05760405162461bcd60e51b815260040161043a906112c6565b60005b838110156106c557610807338686848181106107fb57fe5b90506020020135610ade565b6108235760405162461bcd60e51b815260040161043a906112d6565b84848281811061082f57fe5b905060200201357fddbb257b211697fab7f1ee9f59674cba284dbd7b9f6e1f3da5b645c890bf940084848481811061086357fe5b90506020028101906108759190611346565b6040516108839291906112a4565b60405180910390a26001016107e3565b600061089d610358565b905060006040518060400160405280876001600160a01b031681526020018660038111156108c757fe5b905281546001810183556000928352602092839020825160029092020180546001600160a01b0319166001600160a01b0390921691909117808255928201519192909190829060ff60a01b1916600160a01b83600381111561092557fe5b02179055505050846001600160a01b0316336001600160a01b03167fc2b2d696fda57bcf0347d9ea036ce8258434f4171cd131b4c1d22a6f0ae960d28387604051610971929190611324565b60405180910390a36109b681848480806020026020016040519081016040528093929190818152602001838360200280828437600092019190915250610bbe92505050565b949350505050565b7f000000000000000000000000000000000000000000000000000000000000000090565b816109ed3382610ade565b610a095760405162461bcd60e51b815260040161043a906112b6565b6000610a1484610599565b90506000836003811115610a2457fe5b1480610a3b57506003816003811115610a3957fe5b145b610a575760405162461bcd60e51b815260040161043a90611306565b8260008581548110610a6557fe5b60009182526020909120600290910201805460ff60a01b1916600160a01b836003811115610a8f57fe5b0217905550826003811115610aa057fe5b847f44966c6bc2b3eef1eea6958dc704bb8527d350a282589bb13dd056819bd9d64683604051610ad09190611296565b60405180910390a350505050565b600080610aea836102e6565b9050806001600160a01b0316846001600160a01b031614806109b65750610b0f6109be565b6001600160a01b0316816001600160a01b03161480156109b65750610b326109be565b6001600160a01b031663893d20e86040518163ffffffff1660e01b815260040160206040518083038186803b158015610b6a57600080fd5b505afa158015610b7e573d6000803e3d6000fd5b505050506040513d601f19601f82011682018060405250810190610ba29190610e26565b6001600160a01b0316846001600160a01b031614949350505050565b60005b8151811015610c9f57610bda838383815181106103ef57fe5b610c9757600160008481548110610bed57fe5b90600052602060002090600202016001016000848481518110610c0c57fe5b60200260200101516001600160a01b03166001600160a01b0316815260200190815260200160002060006101000a81548160ff021916908315150217905550827fb8848f994c7d66cdc76defd3606ffefb56ad840b408bf51230110196d5f4d8c4838381518110610c7957fe5b6020026020010151604051610c8e919061127a565b60405180910390a25b600101610bc1565b505050565b80356102e081611444565b80516102e081611444565b60008083601f840112610ccc57600080fd5b50813567ffffffffffffffff811115610ce457600080fd5b602083019150836020820283011115610cfc57600080fd5b9250929050565b600082601f830112610d1457600080fd5b8135610d27610d22826113c3565b61139c565b91508181835260208401935060208101905083856020840282011115610d4c57600080fd5b60005b83811015610d785781610d628882610ca4565b8452506020928301929190910190600101610d4f565b5050505092915050565b600082601f830112610d9357600080fd5b8135610da1610d22826113c3565b91508181835260208401935060208101905083856020840282011115610dc657600080fd5b60005b83811015610d785781610ddc8882610dfd565b8452506020928301929190910190600101610dc9565b80356102e081611458565b80356102e081611465565b600060208284031215610e1a57600080fd5b60006109b68484610ca4565b600060208284031215610e3857600080fd5b60006109b68484610caf565b60008060008060608587031215610e5a57600080fd5b6000610e668787610ca4565b9450506020610e7787828801610df2565b935050604085013567ffffffffffffffff811115610e9457600080fd5b610ea087828801610cba565b95989497509550505050565b60008060008060408587031215610ec257600080fd5b843567ffffffffffffffff811115610ed957600080fd5b610ee587828801610cba565b9450945050602085013567ffffffffffffffff811115610e9457600080fd5b60008060408385031215610f1757600080fd5b823567ffffffffffffffff811115610f2e57600080fd5b610f3a85828601610d82565b9250506020610f4b85828601610ca4565b9150509250929050565b60008060408385031215610f6857600080fd5b823567ffffffffffffffff811115610f7f57600080fd5b610f8b85828601610d82565b925050602083013567ffffffffffffffff811115610fa857600080fd5b610f4b85828601610d03565b600060208284031215610fc657600080fd5b60006109b68484610dfd565b60008060408385031215610fe557600080fd5b6000610f3a8585610dfd565b60008060006040848603121561100657600080fd5b60006110128686610dfd565b935050602084013567ffffffffffffffff81111561102f57600080fd5b61103b86828701610cba565b92509250509250925092565b6000806040838503121561105a57600080fd5b6000610f8b8585610dfd565b6000806040838503121561107957600080fd5b60006110858585610dfd565b9250506020610f4b85828601610df2565b61109f816113ed565b82525050565b61109f816113f8565b61109f81611416565b60006110c383856113e4565b93506110d0838584611421565b6110d98361142d565b9093019392505050565b60006110f0601b836113e4565b7f4f6e6c792063616c6c61626c65206279206c697374206f776e65720000000000815260200192915050565b6000611129601b836113e4565b7f6174746573744c697374733a20556e657175616c206172726179730000000000815260200192915050565b60006111626028836113e4565b7f6174746573744c697374733a204f6e6c792063616c6c61626c65206279206c6981526739ba1037bbb732b960c11b602082015260400192915050565b60006111ac6027836113e4565b7f72656d6f766546726f6d4c6973743a2043616e6e6f742072656d6f76652066728152661bdb481b1a5cdd60ca1b602082015260400192915050565b60006111f5601d836113e4565b7f616464546f4c6973743a2043616e6e6f742061646420746f206c697374000000815260200192915050565b600061122e602e836113e4565b7f7365744c697374557064617465547970653a205f6e657874557064617465547981526d1c19481b9bdd08185b1b1bddd95960921b602082015260400192915050565b61109f81611413565b602081016102e08284611096565b602081016102e082846110a5565b602081016102e082846110ae565b602080825281016109b68184866110b7565b602080825281016102e0816110e3565b602080825281016102e08161111c565b602080825281016102e081611155565b602080825281016102e08161119f565b602080825281016102e0816111e8565b602080825281016102e081611221565b602081016102e08284611271565b604081016113328285611271565b61133f60208301846110ae565b9392505050565b6000808335601e193685900301811261135e57600080fd5b80840192508235915067ffffffffffffffff82111561137c57600080fd5b60208301925060018202360383131561139457600080fd5b509250929050565b60405181810167ffffffffffffffff811182821017156113bb57600080fd5b604052919050565b600067ffffffffffffffff8211156113da57600080fd5b5060209081020190565b90815260200190565b60006102e082611407565b151590565b8061031181611437565b6001600160a01b031690565b90565b60006102e0826113fd565b82818337506000910152565b601f01601f191690565b6004811061144157fe5b50565b61144d816113ed565b811461144157600080fd5b6004811061144157600080fd5b61144d8161141356fea164736f6c634300060c000a","linkReferences":{}},"methodIdentifiers":{"addToList(uint256,address[])":"8da3d736","areAllInAllLists(uint256[],address[])":"107df6c5","areAllInList(uint256,address[])":"abdf6215","areAllInSomeOfLists(uint256[],address[])":"30bdd386","areAllNotInAnyOfLists(uint256[],address[])":"3a6914fe","areAllNotInList(uint256,address[])":"4446fe37","attestLists(uint256[],string[])":"b426f946","createList(address,uint8,address[])":"be68406e","getDispatcher()":"ebb3d589","getListCount()":"2ce37b10","getListOwner(uint256)":"19bcc938","getListUpdateType(uint256)":"539f2ab4","isInAllLists(uint256[],address)":"afc8dd61","isInList(uint256,address)":"1c563204","isInSomeOfLists(uint256[],address)":"75674f46","removeFromList(uint256,address[])":"51d3a322","setListOwner(uint256,address)":"956e8faa","setListUpdateType(uint256,uint8)":"ee4483dc"},"id":68}