{"abi":[{"type":"constructor","inputs":[{"name":"_addressListRegistry","type":"address","internalType":"address"},{"name":"_gsnTrustedForwardersAddressListId","type":"uint256","internalType":"uint256"},{"name":"_fundValueCalculatorRouter","type":"address","internalType":"contract IFundValueCalculator"}],"stateMutability":"nonpayable"},{"type":"function","name":"executeCalls","inputs":[{"name":"_calls","type":"tuple[]","internalType":"struct IMultiCallAccountMixin.Call[]","components":[{"name":"target","type":"address","internalType":"address"},{"name":"data","type":"bytes","internalType":"bytes"}]}],"outputs":[],"stateMutability":"nonpayable"},{"type":"function","name":"getLossTolerance","inputs":[],"outputs":[{"name":"lossTolerance_","type":"uint256","internalType":"uint256"}],"stateMutability":"view"},{"type":"function","name":"getLossTolerancePeriodDuration","inputs":[],"outputs":[{"name":"lossTolerancePeriodDuration_","type":"uint256","internalType":"uint256"}],"stateMutability":"view"},{"type":"function","name":"getOwner","inputs":[],"outputs":[{"name":"owner_","type":"address","internalType":"address"}],"stateMutability":"view"},{"type":"function","name":"getShutdowner","inputs":[],"outputs":[{"name":"shutdowner_","type":"address","internalType":"address"}],"stateMutability":"view"},{"type":"function","name":"getThrottle","inputs":[],"outputs":[{"name":"throttle_","type":"tuple","internalType":"struct ISharePriceThrottledAssetManagerLib.Throttle","components":[{"name":"cumulativeLoss","type":"uint64","internalType":"uint64"},{"name":"lastLossTimestamp","type":"uint64","internalType":"uint64"}]}],"stateMutability":"view"},{"type":"function","name":"getVaultProxyAddress","inputs":[],"outputs":[{"name":"vaultProxyAddress_","type":"address","internalType":"address"}],"stateMutability":"view"},{"type":"function","name":"init","inputs":[{"name":"_owner","type":"address","internalType":"address"},{"name":"_vaultProxyAddress","type":"address","internalType":"address"},{"name":"_lossTolerance","type":"uint64","internalType":"uint64"},{"name":"_lossTolerancePeriodDuration","type":"uint32","internalType":"uint32"},{"name":"_shutdowner","type":"address","internalType":"address"}],"outputs":[],"stateMutability":"nonpayable"},{"type":"function","name":"shutdown","inputs":[],"outputs":[],"stateMutability":"nonpayable"},{"type":"event","name":"Initialized","inputs":[{"name":"vaultProxy","type":"address","indexed":true,"internalType":"address"},{"name":"lossTolerance","type":"uint64","indexed":false,"internalType":"uint64"},{"name":"lossTolerancePeriodDuration","type":"uint32","indexed":false,"internalType":"uint32"},{"name":"shutDowner","type":"address","indexed":true,"internalType":"address"}],"anonymous":false},{"type":"event","name":"OwnerSet","inputs":[{"name":"nextOwner","type":"address","indexed":false,"internalType":"address"}],"anonymous":false},{"type":"event","name":"ThrottleUpdated","inputs":[{"name":"nextCumulativeLoss","type":"uint256","indexed":false,"internalType":"uint256"}],"anonymous":false},{"type":"error","name":"AlreadyInitialized","inputs":[]},{"type":"error","name":"ExceedsOneHundredPercent","inputs":[]},{"type":"error","name":"ToleranceExceeded","inputs":[{"name":"cumulativeLoss","type":"uint256","internalType":"uint256"}]},{"type":"error","name":"Unauthorized","inputs":[]}],"bytecode":{"object":"0x60e06040523480156200001157600080fd5b5060405162000fc138038062000fc18339810160408190526200003491620000c5565b6001600160a01b0392831660805260a0919091521660c0526200011d565b60006001600160a01b0382165b92915050565b620000708162000052565b81146200007c57600080fd5b50565b80516200005f8162000065565b8062000070565b80516200005f816200008c565b60006200005f8262000052565b6200007081620000a0565b80516200005f81620000ad565b600080600060608486031215620000df57620000df600080fd5b6000620000ed86866200007f565b9350506020620001008682870162000093565b92505060406200011386828701620000b8565b9150509250925092565b60805160a05160c051610e746200014d6000396000610361015260006106f0015260006106c30152610e746000f3fe608060405234801561001057600080fd5b50600436106100935760003560e01c8063893d20e811610066578063893d20e814610102578063de9443bf14610113578063ec8936ff14610126578063fc0e74d11461013b578063ff59df0b1461014357600080fd5b806305986d96146100985780632d5fdbeb146100c25780635aa3d6df146100d757806363746bc8146100f1575b600080fd5b600254600160a01b90046001600160401b03165b6040516100b9919061086f565b60405180910390f35b6100d56100d03660046108e1565b610189565b005b6001546001600160a01b03165b6040516100b99190610962565b6002546001600160a01b03166100e4565b6000546001600160a01b03166100e4565b6100d56101213660046109c1565b61029d565b600254600160e01b900463ffffffff166100ac565b6100d56102c1565b604080518082018252600080825260209182015281518083019092526003546001600160401b038082168452600160401b90910416908201526040516100b99190610a3b565b600061019d6002546001600160a01b031690565b6001600160a01b0316146101c35760405162dc149f60e41b815260040160405180910390fd5b670de0b6b3a7640000836001600160401b031611156101f5576040516307e3267960e01b815260040160405180910390fd5b6101fe85610307565b600280546001600160a01b038681166001600160e01b03199092168217600160a01b6001600160401b03881602176001600160e01b0316600160e01b63ffffffff87160217909255600180546001600160a01b03191692841692831790556040517fddba49a53464d30048b3640739bf0d9df348ddd49e5c1e0b698192296ebced129061028e9087908790610a55565b60405180910390a35050505050565b60006102a761035d565b90506102b38383610404565b6102bc816104a8565b505050565b6001546001600160a01b03166102d5610630565b6001600160a01b0316146102fb576040516282b42960e81b815260040160405180910390fd5b6103056000610307565b565b600080546001600160a01b0319166001600160a01b0383161790556040517f50146d0e3c60aa1d17a70635b05494f864e86144a2201275021014fbf08bafe290610352908390610962565b60405180910390a150565b60007f00000000000000000000000000000000000000000000000000000000000000006001600160a01b031663c35526636103a06002546001600160a01b031690565b6040518263ffffffff1660e01b81526004016103bc9190610962565b60408051808303816000875af11580156103da573d6000803e3d6000fd5b505050506040513d601f19601f820116820180604052508101906103fe9190610a8c565b92915050565b6000546001600160a01b0316610418610630565b6001600160a01b03161461043e576040516282b42960e81b815260040160405180910390fd5b8060005b818110156104a257600084848381811061045e5761045e610ac9565b90506020028101906104709190610adf565b61047990610c60565b905061048d8160000151826020015161065e565b5050808061049a90610c82565b915050610442565b50505050565b60006104b261035d565b90508181106104bf575050565b6003546001600160401b0316801561054a57600254600090600160e01b900463ffffffff1660035461050190600160401b90046001600160401b031642610c9c565b600254600160a01b90046001600160401b031661051e9190610caf565b6105289190610ce4565b9050818110156105435761053c8183610c9c565b9150610548565b600091505b505b6000836105578482610c9c565b61056990670de0b6b3a7640000610caf565b6105739190610ce4565b905061057f8183610cf8565b600254909250600160a01b90046001600160401b03168211156105c05781604051631cdb34b560e31b81526004016105b7919061086f565b60405180910390fd5b60038054426001600160401b03908116600160401b026fffffffffffffffffffffffffffffffff19909216908516171790556040517f7b2125f7088cf03b60d38a7e93a920e68b0a9cb1a9a7f7cca51a8312837c9d6c9061062290849061086f565b60405180910390a150505050565b6000601436108015906106475750610647336106a9565b15610659575060131936013560601c90565b503390565b60606106a2838360006040518060400160405280601e81526020017f416464726573733a206c6f772d6c6576656c2063616c6c206661696c6564000081525061075b565b9392505050565b6040516307158c8160e21b81526000906001600160a01b037f00000000000000000000000000000000000000000000000000000000000000001690631c5632049061071a907f0000000000000000000000000000000000000000000000000000000000000000908690600401610d0b565b602060405180830381865afa158015610737573d6000803e3d6000fd5b505050506040513d601f19601f820116820180604052508101906103fe9190610d39565b60608247101561077d5760405162461bcd60e51b81526004016105b790610d5a565b600080866001600160a01b031685876040516107999190610dea565b60006040518083038185875af1925050503d80600081146107d6576040519150601f19603f3d011682016040523d82523d6000602084013e6107db565b606091505b50915091506107ec878383876107f9565b925050505b949350505050565b60608315610838578251600003610831576001600160a01b0385163b6108315760405162461bcd60e51b81526004016105b790610df6565b50816107f1565b6107f1838381511561084d5781518083602001fd5b8060405162461bcd60e51b81526004016105b79190610e63565b805b82525050565b602081016103fe8284610867565b60006001600160a01b0382166103fe565b6108978161087d565b81146108a257600080fd5b50565b80356103fe8161088e565b6001600160401b038116610897565b80356103fe816108b0565b63ffffffff8116610897565b80356103fe816108ca565b600080600080600060a086880312156108fc576108fc600080fd5b600061090888886108a5565b9550506020610919888289016108a5565b945050604061092a888289016108bf565b935050606061093b888289016108d6565b925050608061094c888289016108a5565b9150509295509295909350565b6108698161087d565b602081016103fe8284610959565b60008083601f84011261098557610985600080fd5b5081356001600160401b0381111561099f5761099f600080fd5b6020830191508360208202830111156109ba576109ba600080fd5b9250929050565b600080602083850312156109d7576109d7600080fd5b82356001600160401b038111156109f0576109f0600080fd5b6109fc85828601610970565b92509250509250929050565b6001600160401b038116610869565b80516040830190610a288482610a08565b5060208201516104a26020850182610a08565b604081016103fe8284610a17565b63ffffffff8116610869565b60408101610a638285610a08565b6106a26020830184610a49565b80516103fe8161088e565b80610897565b80516103fe81610a7b565b60008060408385031215610aa257610aa2600080fd5b6000610aae8585610a70565b9250506020610abf85828601610a81565b9150509250929050565b634e487b7160e01b600052603260045260246000fd5b60008235603e1936849003018112610af957610af9600080fd5b9190910192915050565b634e487b7160e01b600052604160045260246000fd5b601f19601f83011681018181106001600160401b0382111715610b3e57610b3e610b03565b6040525050565b6000610b5060405190565b9050610b5c8282610b19565b919050565b60006001600160401b03821115610b7a57610b7a610b03565b601f19601f83011660200192915050565b82818337506000910152565b6000610baa610ba584610b61565b610b45565b905082815260208101848484011115610bc557610bc5600080fd5b610bd0848285610b8b565b509392505050565b600082601f830112610bec57610bec600080fd5b81356107f1848260208601610b97565b600060408284031215610c1157610c11600080fd5b610c1b6040610b45565b90506000610c2984846108a5565b82525060208201356001600160401b03811115610c4857610c48600080fd5b610c5484828501610bd8565b60208301525092915050565b60006103fe3683610bfc565b634e487b7160e01b600052601160045260246000fd5b60006000198203610c9557610c95610c6c565b5060010190565b818103818111156103fe576103fe610c6c565b818102808215838204851417610cc757610cc7610c6c565b5092915050565b634e487b7160e01b600052601260045260246000fd5b600082610cf357610cf3610cce565b500490565b808201808211156103fe576103fe610c6c565b60408101610d198285610867565b6106a26020830184610959565b801515610897565b80516103fe81610d26565b600060208284031215610d4e57610d4e600080fd5b60006107f18484610d2e565b602080825281016103fe81602681527f416464726573733a20696e73756666696369656e742062616c616e636520666f6020820152651c8818d85b1b60d21b604082015260600190565b60005b83811015610dbf578181015183820152602001610da7565b50506000910152565b6000610dd2825190565b610de0818560208601610da4565b9290920192915050565b60006106a28284610dc8565b602080825281016103fe81601d81527f416464726573733a2063616c6c20746f206e6f6e2d636f6e7472616374000000602082015260400190565b6000610e3b825190565b808452602084019350610e52818560208601610da4565b601f01601f19169290920192915050565b602080825281016106a28184610e3156","linkReferences":{}},"methodIdentifiers":{"executeCalls((address,bytes)[])":"de9443bf","getLossTolerance()":"05986d96","getLossTolerancePeriodDuration()":"ec8936ff","getOwner()":"893d20e8","getShutdowner()":"5aa3d6df","getThrottle()":"ff59df0b","getVaultProxyAddress()":"63746bc8","init(address,address,uint64,uint32,address)":"2d5fdbeb","shutdown()":"fc0e74d1"},"id":81}