{"abi":[{"type":"constructor","inputs":[{"name":"_addressListRegistry","type":"address","internalType":"address"},{"name":"_gsnTrustedForwardersAddressListId","type":"uint256","internalType":"uint256"},{"name":"_fundValueCalculatorRouter","type":"address","internalType":"contract IFundValueCalculator"}],"stateMutability":"nonpayable"},{"type":"function","name":"executeCalls","inputs":[{"name":"_calls","type":"tuple[]","internalType":"struct IMultiCallAccountMixin.Call[]","components":[{"name":"target","type":"address","internalType":"address"},{"name":"data","type":"bytes","internalType":"bytes"}]}],"outputs":[],"stateMutability":"nonpayable"},{"type":"function","name":"getLossTolerance","inputs":[],"outputs":[{"name":"lossTolerance_","type":"uint256","internalType":"uint256"}],"stateMutability":"view"},{"type":"function","name":"getLossTolerancePeriodDuration","inputs":[],"outputs":[{"name":"lossTolerancePeriodDuration_","type":"uint256","internalType":"uint256"}],"stateMutability":"view"},{"type":"function","name":"getOwner","inputs":[],"outputs":[{"name":"owner_","type":"address","internalType":"address"}],"stateMutability":"view"},{"type":"function","name":"getShutdowner","inputs":[],"outputs":[{"name":"shutdowner_","type":"address","internalType":"address"}],"stateMutability":"view"},{"type":"function","name":"getThrottle","inputs":[],"outputs":[{"name":"throttle_","type":"tuple","internalType":"struct ISharePriceThrottledAssetManagerLib.Throttle","components":[{"name":"cumulativeLoss","type":"uint64","internalType":"uint64"},{"name":"lastLossTimestamp","type":"uint64","internalType":"uint64"}]}],"stateMutability":"view"},{"type":"function","name":"getVaultProxyAddress","inputs":[],"outputs":[{"name":"vaultProxyAddress_","type":"address","internalType":"address"}],"stateMutability":"view"},{"type":"function","name":"init","inputs":[{"name":"_owner","type":"address","internalType":"address"},{"name":"_vaultProxyAddress","type":"address","internalType":"address"},{"name":"_lossTolerance","type":"uint64","internalType":"uint64"},{"name":"_lossTolerancePeriodDuration","type":"uint32","internalType":"uint32"},{"name":"_shutdowner","type":"address","internalType":"address"}],"outputs":[],"stateMutability":"nonpayable"},{"type":"function","name":"shutdown","inputs":[],"outputs":[],"stateMutability":"nonpayable"},{"type":"event","name":"Initialized","inputs":[{"name":"vaultProxy","type":"address","indexed":true,"internalType":"address"},{"name":"lossTolerance","type":"uint64","indexed":false,"internalType":"uint64"},{"name":"lossTolerancePeriodDuration","type":"uint32","indexed":false,"internalType":"uint32"},{"name":"shutDowner","type":"address","indexed":true,"internalType":"address"}],"anonymous":false},{"type":"event","name":"OwnerSet","inputs":[{"name":"nextOwner","type":"address","indexed":false,"internalType":"address"}],"anonymous":false},{"type":"event","name":"ThrottleUpdated","inputs":[{"name":"nextCumulativeLoss","type":"uint256","indexed":false,"internalType":"uint256"}],"anonymous":false},{"type":"error","name":"AlreadyInitialized","inputs":[]},{"type":"error","name":"ExceedsOneHundredPercent","inputs":[]},{"type":"error","name":"ToleranceExceeded","inputs":[{"name":"cumulativeLoss","type":"uint256","internalType":"uint256"}]},{"type":"error","name":"Unauthorized","inputs":[]}],"bytecode":{"object":"0x60e060405234801561001057600080fd5b50604051610d82380380610d8283398101604081905261002f91610064565b6001600160a01b0392831660805260a0919091521660c0526100a7565b6001600160a01b038116811461006157600080fd5b50565b60008060006060848603121561007957600080fd5b83516100848161004c565b60208501516040860151919450925061009c8161004c565b809150509250925092565b60805160a05160c051610cac6100d66000396000610380015260006106e10152600061071a0152610cac6000f3fe608060405234801561001057600080fd5b50600436106100935760003560e01c8063893d20e811610066578063893d20e81461010a578063de9443bf1461011b578063ec8936ff1461012e578063fc0e74d114610143578063ff59df0b1461014b57600080fd5b806305986d96146100985780632d5fdbeb146100bf5780635aa3d6df146100d457806363746bc8146100f9575b600080fd5b600254600160a01b90046001600160401b03165b6040519081526020015b60405180910390f35b6100d26100cd36600461091a565b61019e565b005b6001546001600160a01b03165b6040516001600160a01b0390911681526020016100b6565b6002546001600160a01b03166100e1565b6000546001600160a01b03166100e1565b6100d26101293660046109a0565b6102be565b600254600160e01b900463ffffffff166100ac565b6100d26102e2565b6040805180820182526000808252602091820152815180830183526003546001600160401b03808216808452600160401b90920481169284019283528451918252915190911691810191909152016100b6565b60006101b26002546001600160a01b031690565b6001600160a01b0316146101d85760405162dc149f60e41b815260040160405180910390fd5b670de0b6b3a7640000836001600160401b0316111561020a576040516307e3267960e01b815260040160405180910390fd5b61021385610328565b600280546001600160a01b038681166001600160e01b03199092168217600160a01b6001600160401b038816908102919091176001600160e01b0316600160e01b63ffffffff881690810291909117909455600180546001600160a01b031916928616928317905560408051918252602082019490945290927fddba49a53464d30048b3640739bf0d9df348ddd49e5c1e0b698192296ebced12910160405180910390a35050505050565b60006102c861037c565b90506102d4838361042e565b6102dd816104d2565b505050565b6001546001600160a01b03166102f6610659565b6001600160a01b03161461031c576040516282b42960e81b815260040160405180910390fd5b6103266000610328565b565b600080546001600160a01b0319166001600160a01b0383169081179091556040519081527f50146d0e3c60aa1d17a70635b05494f864e86144a2201275021014fbf08bafe29060200160405180910390a150565b60007f00000000000000000000000000000000000000000000000000000000000000006001600160a01b031663c35526636103bf6002546001600160a01b031690565b6040516001600160e01b031960e084901b1681526001600160a01b03909116600482015260240160408051808303816000875af1158015610404573d6000803e3d6000fd5b505050506040513d601f19601f820116820180604052508101906104289190610a14565b92915050565b6000546001600160a01b0316610442610659565b6001600160a01b031614610468576040516282b42960e81b815260040160405180910390fd5b8060005b818110156104cc57600084848381811061048857610488610a42565b905060200281019061049a9190610a58565b6104a390610ae6565b90506104b781600001518260200151610687565b505080806104c490610ba9565b91505061046c565b50505050565b60006104dc61037c565b90508181106104e9575050565b6003546001600160401b0316801561057457600254600090600160e01b900463ffffffff1660035461052b90600160401b90046001600160401b031642610bc2565b600254600160a01b90046001600160401b03166105489190610bd5565b6105529190610bec565b90508181101561056d576105668183610bc2565b9150610572565b600091505b505b6000836105818482610bc2565b61059390670de0b6b3a7640000610bd5565b61059d9190610bec565b90506105a98183610c0e565b600254909250600160a01b90046001600160401b03168211156105e757604051631cdb34b560e31b8152600481018390526024015b60405180910390fd5b60038054426001600160401b03908116600160401b026fffffffffffffffffffffffffffffffff19909216908516171790556040517f7b2125f7088cf03b60d38a7e93a920e68b0a9cb1a9a7f7cca51a8312837c9d6c9061064b9084815260200190565b60405180910390a150505050565b6000601436108015906106705750610670336106d2565b15610682575060131936013560601c90565b503390565b60606106cb838360006040518060400160405280601e81526020017f416464726573733a206c6f772d6c6576656c2063616c6c206661696c65640000815250610787565b9392505050565b6040516307158c8160e21b81527f000000000000000000000000000000000000000000000000000000000000000060048201526001600160a01b0382811660248301526000917f000000000000000000000000000000000000000000000000000000000000000090911690631c56320490604401602060405180830381865afa158015610763573d6000803e3d6000fd5b505050506040513d601f19601f820116820180604052508101906104289190610c21565b6060824710156107e85760405162461bcd60e51b815260206004820152602660248201527f416464726573733a20696e73756666696369656e742062616c616e636520666f6044820152651c8818d85b1b60d21b60648201526084016105de565b600080866001600160a01b031685876040516108049190610c67565b60006040518083038185875af1925050503d8060008114610841576040519150601f19603f3d011682016040523d82523d6000602084013e610846565b606091505b509150915061085787838387610864565b925050505b949350505050565b606083156108d35782516000036108cc576001600160a01b0385163b6108cc5760405162461bcd60e51b815260206004820152601d60248201527f416464726573733a2063616c6c20746f206e6f6e2d636f6e747261637400000060448201526064016105de565b508161085c565b61085c83838151156108e85781518083602001fd5b8060405162461bcd60e51b81526004016105de9190610c79565b6001600160a01b038116811461091757600080fd5b50565b600080600080600060a0868803121561093257600080fd5b853561093d81610902565b9450602086013561094d81610902565b935060408601356001600160401b038116811461096957600080fd5b9250606086013563ffffffff8116811461098257600080fd5b9150608086013561099281610902565b809150509295509295909350565b600080602083850312156109b357600080fd5b82356001600160401b03808211156109ca57600080fd5b818501915085601f8301126109de57600080fd5b8135818111156109ed57600080fd5b8660208260051b8501011115610a0257600080fd5b60209290920196919550909350505050565b60008060408385031215610a2757600080fd5b8251610a3281610902565b6020939093015192949293505050565b634e487b7160e01b600052603260045260246000fd5b60008235603e19833603018112610a6e57600080fd5b9190910192915050565b634e487b7160e01b600052604160045260246000fd5b604080519081016001600160401b0381118282101715610ab057610ab0610a78565b60405290565b604051601f8201601f191681016001600160401b0381118282101715610ade57610ade610a78565b604052919050565b600060408236031215610af857600080fd5b610b00610a8e565b8235610b0b81610902565b81526020838101356001600160401b0380821115610b2857600080fd5b9085019036601f830112610b3b57600080fd5b813581811115610b4d57610b4d610a78565b610b5f601f8201601f19168501610ab6565b91508082523684828501011115610b7557600080fd5b80848401858401376000908201840152918301919091525092915050565b634e487b7160e01b600052601160045260246000fd5b600060018201610bbb57610bbb610b93565b5060010190565b8181038181111561042857610428610b93565b808202811582820484141761042857610428610b93565b600082610c0957634e487b7160e01b600052601260045260246000fd5b500490565b8082018082111561042857610428610b93565b600060208284031215610c3357600080fd5b815180151581146106cb57600080fd5b60005b83811015610c5e578181015183820152602001610c46565b50506000910152565b60008251610a6e818460208701610c43565b6020815260008251806020840152610c98816040850160208701610c43565b601f01601f1916919091016040019291505056","linkReferences":{}},"methodIdentifiers":{"executeCalls((address,bytes)[])":"de9443bf","getLossTolerance()":"05986d96","getLossTolerancePeriodDuration()":"ec8936ff","getOwner()":"893d20e8","getShutdowner()":"5aa3d6df","getThrottle()":"ff59df0b","getVaultProxyAddress()":"63746bc8","init(address,address,uint64,uint32,address)":"2d5fdbeb","shutdown()":"fc0e74d1"},"id":68}