{"abi":[{"type":"constructor","inputs":[{"name":"_addressListRegistry","type":"address","internalType":"address"},{"name":"_gsnTrustedForwardersAddressListId","type":"uint256","internalType":"uint256"}],"stateMutability":"nonpayable"},{"type":"function","name":"executeCalls","inputs":[{"name":"_calls","type":"tuple[]","internalType":"struct IMultiCallAccountMixin.Call[]","components":[{"name":"target","type":"address","internalType":"address"},{"name":"data","type":"bytes","internalType":"bytes"}]}],"outputs":[],"stateMutability":"nonpayable"},{"type":"function","name":"exposed_setOwner","inputs":[{"name":"_nextOwner","type":"address","internalType":"address"}],"outputs":[],"stateMutability":"nonpayable"},{"type":"function","name":"getOwner","inputs":[],"outputs":[{"name":"owner_","type":"address","internalType":"address"}],"stateMutability":"view"},{"type":"event","name":"OwnerSet","inputs":[{"name":"nextOwner","type":"address","indexed":false,"internalType":"address"}],"anonymous":false},{"type":"error","name":"Unauthorized","inputs":[]}],"bytecode":{"object":"0x60c060405234801561001057600080fd5b5060405161091938038061091983398101604081905261002f9161008b565b6001600160a01b0390911660805260a0526100c8565b60006001600160a01b0382165b92915050565b61006181610045565b811461006c57600080fd5b50565b805161005281610058565b80610061565b80516100528161007a565b600080604083850312156100a1576100a1600080fd5b60006100ad858561006f565b92505060206100be85828601610080565b9150509250929050565b60805160a05161082c6100ed60003960006102580152600061022b015261082c6000f3fe608060405234801561001057600080fd5b50600436106100415760003560e01c8063893d20e8146100465780639c7ba03e14610068578063de9443bf1461007d575b600080fd5b6000546001600160a01b031660405161005f91906103f8565b60405180910390f35b61007b610076366004610425565b610090565b005b61007b61008b366004610498565b61009c565b61009981610140565b50565b6000546001600160a01b03166100b0610196565b6001600160a01b0316146100d6576040516282b42960e81b815260040160405180910390fd5b8060005b8181101561013a5760008484838181106100f6576100f66104e0565b905060200281019061010891906104f6565b6101119061067a565b9050610125816000015182602001516101c4565b505080806101329061069c565b9150506100da565b50505050565b600080546001600160a01b0319166001600160a01b0383161790556040517f50146d0e3c60aa1d17a70635b05494f864e86144a2201275021014fbf08bafe29061018b9083906103f8565b60405180910390a150565b6000601436108015906101ad57506101ad33610211565b156101bf575060131936013560601c90565b503390565b6060610208838360006040518060400160405280601e81526020017f416464726573733a206c6f772d6c6576656c2063616c6c206661696c656400008152506102c3565b90505b92915050565b6040516307158c8160e21b81526000906001600160a01b037f00000000000000000000000000000000000000000000000000000000000000001690631c56320490610282907f00000000000000000000000000000000000000000000000000000000000000009086906004016106bc565b602060405180830381865afa15801561029f573d6000803e3d6000fd5b505050506040513d601f19601f8201168201806040525081019061020b91906106f1565b6060824710156102ee5760405162461bcd60e51b81526004016102e590610712565b60405180910390fd5b600080866001600160a01b0316858760405161030a91906107a2565b60006040518083038185875af1925050503d8060008114610347576040519150601f19603f3d011682016040523d82523d6000602084013e61034c565b606091505b509150915061035d8783838761036a565b925050505b949350505050565b606083156103a95782516000036103a2576001600160a01b0385163b6103a25760405162461bcd60e51b81526004016102e5906107ae565b5081610362565b61036283838151156103be5781518083602001fd5b8060405162461bcd60e51b81526004016102e5919061081b565b60006001600160a01b03821661020b565b6103f2816103d8565b82525050565b6020810161020b82846103e9565b61040f816103d8565b811461009957600080fd5b803561020b81610406565b60006020828403121561043a5761043a600080fd5b6000610362848461041a565b60008083601f84011261045b5761045b600080fd5b50813567ffffffffffffffff81111561047657610476600080fd5b60208301915083602082028301111561049157610491600080fd5b9250929050565b600080602083850312156104ae576104ae600080fd5b823567ffffffffffffffff8111156104c8576104c8600080fd5b6104d485828601610446565b92509250509250929050565b634e487b7160e01b600052603260045260246000fd5b60008235603e193684900301811261051057610510600080fd5b9190910192915050565b634e487b7160e01b600052604160045260246000fd5b601f19601f830116810181811067ffffffffffffffff821117156105565761055661051a565b6040525050565b600061056860405190565b90506105748282610530565b919050565b600067ffffffffffffffff8211156105935761059361051a565b601f19601f83011660200192915050565b82818337506000910152565b60006105c36105be84610579565b61055d565b9050828152602081018484840111156105de576105de600080fd5b6105e98482856105a4565b509392505050565b600082601f83011261060557610605600080fd5b81356103628482602086016105b0565b60006040828403121561062a5761062a600080fd5b610634604061055d565b90506000610642848461041a565b825250602082013567ffffffffffffffff81111561066257610662600080fd5b61066e848285016105f1565b60208301525092915050565b600061020b3683610615565b634e487b7160e01b600052601160045260246000fd5b600060001982036106af576106af610686565b5060010190565b806103f2565b604081016106ca82856106b6565b6106d760208301846103e9565b9392505050565b80151561040f565b805161020b816106de565b60006020828403121561070657610706600080fd5b600061036284846106e6565b6020808252810161020b81602681527f416464726573733a20696e73756666696369656e742062616c616e636520666f6020820152651c8818d85b1b60d21b604082015260600190565b60005b8381101561077757818101518382015260200161075f565b50506000910152565b600061078a825190565b61079881856020860161075c565b9290920192915050565b60006106d78284610780565b6020808252810161020b81601d81527f416464726573733a2063616c6c20746f206e6f6e2d636f6e7472616374000000602082015260400190565b60006107f3825190565b80845260208401935061080a81856020860161075c565b601f01601f19169290920192915050565b6020808252810161020881846107e956","linkReferences":{}},"methodIdentifiers":{"executeCalls((address,bytes)[])":"de9443bf","exposed_setOwner(address)":"9c7ba03e","getOwner()":"893d20e8"},"id":210}