{"abi":[{"type":"constructor","inputs":[{"name":"_addressListRegistry","type":"address","internalType":"address"},{"name":"_gsnTrustedForwardersAddressListId","type":"uint256","internalType":"uint256"}],"stateMutability":"nonpayable"},{"type":"function","name":"executeCalls","inputs":[{"name":"_calls","type":"tuple[]","internalType":"struct IMultiCallAccountMixin.Call[]","components":[{"name":"target","type":"address","internalType":"address"},{"name":"data","type":"bytes","internalType":"bytes"}]}],"outputs":[],"stateMutability":"nonpayable"},{"type":"function","name":"exposed_setOwner","inputs":[{"name":"_nextOwner","type":"address","internalType":"address"}],"outputs":[],"stateMutability":"nonpayable"},{"type":"function","name":"getOwner","inputs":[],"outputs":[{"name":"owner_","type":"address","internalType":"address"}],"stateMutability":"view"},{"type":"event","name":"OwnerSet","inputs":[{"name":"nextOwner","type":"address","indexed":false,"internalType":"address"}],"anonymous":false},{"type":"error","name":"Unauthorized","inputs":[]}],"bytecode":{"object":"0x60c060405234801561001057600080fd5b5060405161079938038061079983398101604081905261002f91610045565b6001600160a01b0390911660805260a05261007f565b6000806040838503121561005857600080fd5b82516001600160a01b038116811461006f57600080fd5b6020939093015192949293505050565b60805160a0516106f56100a460003960006102190152600061025201526106f56000f3fe608060405234801561001057600080fd5b50600436106100415760003560e01c8063893d20e8146100465780639c7ba03e14610065578063de9443bf1461007a575b600080fd5b600054604080516001600160a01b039092168252519081900360200190f35b610078610073366004610461565b61008d565b005b61007861008836600461047c565b610099565b6100968161013d565b50565b6000546001600160a01b03166100ad610191565b6001600160a01b0316146100d3576040516282b42960e81b815260040160405180910390fd5b8060005b818110156101375760008484838181106100f3576100f36104f1565b90506020028101906101059190610507565b61010e90610597565b9050610122816000015182602001516101bf565b5050808061012f90610643565b9150506100d7565b50505050565b600080546001600160a01b0319166001600160a01b0383169081179091556040519081527f50146d0e3c60aa1d17a70635b05494f864e86144a2201275021014fbf08bafe29060200160405180910390a150565b6000601436108015906101a857506101a83361020a565b156101ba575060131936013560601c90565b503390565b6060610203838360006040518060400160405280601e81526020017f416464726573733a206c6f772d6c6576656c2063616c6c206661696c656400008152506102c5565b9392505050565b6040516307158c8160e21b81527f000000000000000000000000000000000000000000000000000000000000000060048201526001600160a01b0382811660248301526000917f000000000000000000000000000000000000000000000000000000000000000090911690631c56320490604401602060405180830381865afa15801561029b573d6000803e3d6000fd5b505050506040513d601f19601f820116820180604052508101906102bf919061066a565b92915050565b60608247101561032b5760405162461bcd60e51b815260206004820152602660248201527f416464726573733a20696e73756666696369656e742062616c616e636520666f6044820152651c8818d85b1b60d21b60648201526084015b60405180910390fd5b600080866001600160a01b0316858760405161034791906106b0565b60006040518083038185875af1925050503d8060008114610384576040519150601f19603f3d011682016040523d82523d6000602084013e610389565b606091505b509150915061039a878383876103a7565b925050505b949350505050565b6060831561041657825160000361040f576001600160a01b0385163b61040f5760405162461bcd60e51b815260206004820152601d60248201527f416464726573733a2063616c6c20746f206e6f6e2d636f6e74726163740000006044820152606401610322565b508161039f565b61039f838381511561042b5781518083602001fd5b8060405162461bcd60e51b815260040161032291906106c2565b80356001600160a01b038116811461045c57600080fd5b919050565b60006020828403121561047357600080fd5b61020382610445565b6000806020838503121561048f57600080fd5b823567ffffffffffffffff808211156104a757600080fd5b818501915085601f8301126104bb57600080fd5b8135818111156104ca57600080fd5b8660208260051b85010111156104df57600080fd5b60209290920196919550909350505050565b634e487b7160e01b600052603260045260246000fd5b60008235603e1983360301811261051d57600080fd5b9190910192915050565b634e487b7160e01b600052604160045260246000fd5b6040805190810167ffffffffffffffff8111828210171561056057610560610527565b60405290565b604051601f8201601f1916810167ffffffffffffffff8111828210171561058f5761058f610527565b604052919050565b6000604082360312156105a957600080fd5b6105b161053d565b6105ba83610445565b815260208084013567ffffffffffffffff808211156105d857600080fd5b9085019036601f8301126105eb57600080fd5b8135818111156105fd576105fd610527565b61060f601f8201601f19168501610566565b9150808252368482850101111561062557600080fd5b80848401858401376000908201840152918301919091525092915050565b60006001820161066357634e487b7160e01b600052601160045260246000fd5b5060010190565b60006020828403121561067c57600080fd5b8151801515811461020357600080fd5b60005b838110156106a757818101518382015260200161068f565b50506000910152565b6000825161051d81846020870161068c565b60208152600082518060208401526106e181604085016020870161068c565b601f01601f1916919091016040019291505056","linkReferences":{}},"methodIdentifiers":{"executeCalls((address,bytes)[])":"de9443bf","exposed_setOwner(address)":"9c7ba03e","getOwner()":"893d20e8"},"id":192}