{"abi":[{"type":"constructor","inputs":[{"name":"_policyManager","type":"address","internalType":"address"},{"name":"_uintListRegistry","type":"address","internalType":"address"}],"stateMutability":"nonpayable"},{"type":"function","name":"BYPASS_FLAG","inputs":[],"outputs":[{"name":"","type":"uint256","internalType":"uint256"}],"stateMutability":"view"},{"type":"function","name":"activateForFund","inputs":[{"name":"","type":"address","internalType":"address"}],"outputs":[],"stateMutability":"nonpayable"},{"type":"function","name":"addFundSettings","inputs":[{"name":"_comptrollerProxy","type":"address","internalType":"address"},{"name":"_encodedSettings","type":"bytes","internalType":"bytes"}],"outputs":[],"stateMutability":"nonpayable"},{"type":"function","name":"canDisable","inputs":[],"outputs":[{"name":"canDisable_","type":"bool","internalType":"bool"}],"stateMutability":"pure"},{"type":"function","name":"getListIdsForFundAndUser","inputs":[{"name":"_comptrollerProxy","type":"address","internalType":"address"},{"name":"_user","type":"address","internalType":"address"}],"outputs":[{"name":"listIds_","type":"uint256[]","internalType":"uint256[]"}],"stateMutability":"view"},{"type":"function","name":"getPolicyManager","inputs":[],"outputs":[{"name":"policyManager_","type":"address","internalType":"address"}],"stateMutability":"view"},{"type":"function","name":"identifier","inputs":[],"outputs":[{"name":"identifier_","type":"string","internalType":"string"}],"stateMutability":"pure"},{"type":"function","name":"implementedHooks","inputs":[],"outputs":[{"name":"implementedHooks_","type":"uint8[]","internalType":"enum IPolicyManager.PolicyHook[]"}],"stateMutability":"pure"},{"type":"function","name":"passesRule","inputs":[{"name":"_comptrollerProxy","type":"address","internalType":"address"},{"name":"_caller","type":"address","internalType":"address"},{"name":"_externalPositionTypeId","type":"uint256","internalType":"uint256"}],"outputs":[{"name":"isValid_","type":"bool","internalType":"bool"}],"stateMutability":"view"},{"type":"function","name":"updateFundSettings","inputs":[{"name":"_comptrollerProxy","type":"address","internalType":"address"},{"name":"_encodedSettings","type":"bytes","internalType":"bytes"}],"outputs":[],"stateMutability":"nonpayable"},{"type":"function","name":"validateRule","inputs":[{"name":"_comptrollerProxy","type":"address","internalType":"address"},{"name":"_hook","type":"uint8","internalType":"enum IPolicyManager.PolicyHook"},{"name":"_encodedArgs","type":"bytes","internalType":"bytes"}],"outputs":[{"name":"isValid_","type":"bool","internalType":"bool"}],"stateMutability":"nonpayable"},{"type":"event","name":"ListsSetForFundAndUser","inputs":[{"name":"comptrollerProxy","type":"address","indexed":true,"internalType":"address"},{"name":"user","type":"address","indexed":true,"internalType":"address"},{"name":"listIds","type":"uint256[]","indexed":false,"internalType":"uint256[]"}],"anonymous":false}],"bytecode":{"object":"0x60c060405234801561001057600080fd5b5060405162001798380380620017988339810160408190526100319161004f565b6001600160601b0319606092831b8116608052911b1660a0526100a0565b60008060408385031215610061578182fd5b825161006c81610088565b602084015190925061007d81610088565b809150509250929050565b6001600160a01b038116811461009d57600080fd5b50565b60805160601c60a05160601c6116c4620000d4600039806107915280610c6d525080610199528061082852506116c46000f3fe608060405234801561001057600080fd5b50600436106100a95760003560e01c80637998a1c4116100715780637998a1c414610109578063b174666c1461011e578063cbf54bb21461013e578063cdb6552c14610153578063ceb9a0ad14610166578063d44ad6cb14610179576100a9565b80630d4d7510146100ae5780630f5f6b4f146100ae5780631ef92578146100c3578063572a45e1146100e1578063579be718146100f6575b600080fd5b6100c16100bc36600461115a565b61018e565b005b6100cb6101ef565b6040516100d89190611508565b60405180910390f35b6100e96101f4565b6040516100d891906115d3565b6100cb6101043660046111ad565b6101fa565b6101116104a3565b6040516100d89190611513565b61013161012c3660046110ed565b6104c3565b6040516100d891906114d3565b61014661053b565b6040516100d89190611485565b6100cb61016136600461111a565b61062c565b6100c1610174366004610f5a565b610823565b610181610826565b6040516100d8919061143f565b336001600160a01b037f000000000000000000000000000000000000000000000000000000000000000016146101df5760405162461bcd60e51b81526004016101d69061158a565b60405180910390fd5b6101ea83838361084a565b505050565b600190565b60001981565b60008080600686600981111561020c57fe5b141561025b5761025185858080601f0160208091040260200160405190810160405280939291908181526020018383808284376000920191909152506108c992505050565b509250905061048d565b600786600981111561026957fe5b14156103395760006102b086868080601f0160208091040260200160405190810160405280939291908181526020018383808284376000920191909152506108ef92505050565b5050604080516304af029160e21b81529051949650929450506001600160a01b038416926312bc0a44926004808201935060209291829003018186803b1580156102f957600080fd5b505afa15801561030d573d6000803e3d6000fd5b505050506040513d601f19601f8201168201806040525081019061033191906113ed565b92505061048d565b600986600981111561034757fe5b14156103cf57600061038e86868080601f01602080910402602001604051908101604052809392919081815260200183838082843760009201919091525061092092505050565b8092508193505050806001600160a01b03166312bc0a446040518163ffffffff1660e01b815260040160206040518083038186803b1580156102f957600080fd5b600061041086868080601f01602080910402602001604051908101604052809392919081815260200183838082843760009201919091525061092092505050565b8092508193505050806001600160a01b03166312bc0a446040518163ffffffff1660e01b815260040160206040518083038186803b15801561045157600080fd5b505afa158015610465573d6000803e3d6000fd5b505050506040513d601f19601f8201168201806040525081019061048991906113ed565b9250505b61049887828461062c565b979650505050505050565b60606040518060600160405280602b815260200161168d602b9139905090565b6001600160a01b0380831660009081526020818152604080832093851683529281529082902080548351818402810184019094528084526060939283018282801561052d57602002820191906000526020600020905b815481526020019060010190808311610519575b505050505090505b92915050565b60408051600480825260a082019092526060916020820160808036833701905050905060068160008151811061056d57fe5b6020026020010190600981111561058057fe5b9081600981111561058d57fe5b815250506007816001815181106105a057fe5b602002602001019060098111156105b357fe5b908160098111156105c057fe5b815250506009816002815181106105d357fe5b602002602001019060098111156105e657fe5b908160098111156105f357fe5b8152505060088160038151811061060657fe5b6020026020010190600981111561061957fe5b9081600981111561062657fe5b90525090565b6000836001600160a01b031663c98091876040518163ffffffff1660e01b815260040160206040518083038186803b15801561066757600080fd5b505afa15801561067b573d6000803e3d6000fd5b505050506040513d601f19601f8201168201806040525081019061069f9190610f76565b6001600160a01b031663893d20e86040518163ffffffff1660e01b815260040160206040518083038186803b1580156106d757600080fd5b505afa1580156106eb573d6000803e3d6000fd5b505050506040513d601f19601f8201168201806040525081019061070f9190610f76565b6001600160a01b0316836001600160a01b031614156107305750600161081c565b606061073c85856104c3565b905080516000141561075257600091505061081c565b6000198160008151811061076257fe5b6020026020010151141561077a57600191505061081c565b604051632772da5560e11b81526001600160a01b037f00000000000000000000000000000000000000000000000000000000000000001690634ee5b4aa906107c890849087906004016114e6565b60206040518083038186803b1580156107e057600080fd5b505afa1580156107f4573d6000803e3d6000fd5b505050506040513d601f19601f820116820180604052508101906108189190611385565b9150505b9392505050565b50565b7f000000000000000000000000000000000000000000000000000000000000000090565b6060806108578484610940565b91509150805182511461087c5760405162461bcd60e51b81526004016101d690611546565b60005b81518110156108c1576108b98684838151811061089857fe5b60200260200101518484815181106108ac57fe5b602002602001015161095b565b60010161087f565b505050505050565b6000806060838060200190518101906108e29190611095565b9250925092509193909250565b6000806060806060808680602001905181019061090c9190610fcb565b949c939b5091995097509550909350915050565b600080828060200190518101906109379190610f92565b91509150915091565b60608061094f83850185611213565b915091505b9250929050565b60608061096783610c2c565b6001600160a01b03808816600090815260208181526040808320938a16835292905220549193509150156109c3576001600160a01b0380861660009081526020818152604080832093881683529290529081206109c391610d19565b6060815183510167ffffffffffffffff811180156109e057600080fd5b50604051908082528060200260200182016040528015610a0a578160200160208202803683370190505b50805190915015610bd95760005b8351811015610aac57838181518110610a2d57fe5b6020026020010151828281518110610a4157fe5b6020908102919091018101919091526001600160a01b0380891660009081528083526040808220928a1682529190925290208451859083908110610a8157fe5b6020908102919091018101518254600181810185556000948552929093209092019190915501610a18565b50815115610bd9576000866001600160a01b031663c98091876040518163ffffffff1660e01b815260040160206040518083038186803b158015610aef57600080fd5b505afa158015610b03573d6000803e3d6000fd5b505050506040513d601f19601f82011682018060405250810190610b279190610f76565b905060005b8351811015610bd6576000818651019050610b5a83868481518110610b4d57fe5b6020026020010151610c43565b848281518110610b6657fe5b6020908102919091018101919091526001600160a01b03808b1660009081528083526040808220928c1682529190925290208451859083908110610ba657fe5b60209081029190910181015182546001818101855560009485529290932090920191909155919091019050610b2c565b50505b846001600160a01b0316866001600160a01b03167fe737257df130e7ddcae83b49adac67dc3dcc32950b3e5ee558eae2f0b842a50f83604051610c1c91906114d3565b60405180910390a3505050505050565b6060808280602001905181019061093791906112d5565b6000806060610c5184610d01565b60405163f71e466960e01b815291935091506001600160a01b037f0000000000000000000000000000000000000000000000000000000000000000169063f71e466990610ca690889086908690600401611453565b602060405180830381600087803b158015610cc057600080fd5b505af1158015610cd4573d6000803e3d6000fd5b505050506040513d601f19601f82011682018060405250810190610cf891906113ed565b95945050505050565b600060608280602001905181019061093791906113a5565b508054600082559060005260206000209081019061082391905b80821115610d475760008155600101610d33565b5090565b803561053581611677565b805161053581611677565b600082601f830112610d71578081fd5b8151610d84610d7f82611603565b6115dc565b818152915060208083019084810181840286018201871015610da557600080fd5b60005b84811015610dcd578151610dbb81611677565b84529282019290820190600101610da8565b505050505092915050565b600082601f830112610de8578081fd5b8135610df6610d7f82611603565b818152915060208083019084810160005b84811015610dcd578135870188603f820112610e2257600080fd5b83810135610e32610d7f82611623565b81815260408b81848601011115610e4857600080fd5b82818501888401375060009181018601919091528552509282019290820190600101610e07565b600082601f830112610e7f578081fd5b8151610e8d610d7f82611603565b818152915060208083019084810181840286018201871015610eae57600080fd5b60005b84811015610dcd57815184529282019290820190600101610eb1565b60008083601f840112610ede578182fd5b50813567ffffffffffffffff811115610ef5578182fd5b60208301915083602082850101111561095457600080fd5b600082601f830112610f1d578081fd5b8151610f2b610d7f82611623565b9150808252836020828501011115610f4257600080fd5b610f53816020840160208601611647565b5092915050565b600060208284031215610f6b578081fd5b813561081c81611677565b600060208284031215610f87578081fd5b815161081c81611677565b60008060408385031215610fa4578081fd5b8251610faf81611677565b6020840151909250610fc081611677565b809150509250929050565b60008060008060008060c08789031215610fe3578182fd5b610fed8888610d56565b9550610ffc8860208901610d56565b9450604087015167ffffffffffffffff80821115611018578384fd5b6110248a838b01610d61565b95506060890151915080821115611039578384fd5b6110458a838b01610e6f565b9450608089015191508082111561105a578384fd5b6110668a838b01610d61565b935060a089015191508082111561107b578283fd5b5061108889828a01610f0d565b9150509295509295509295565b6000806000606084860312156110a9578283fd5b83516110b481611677565b60208501516040860151919450925067ffffffffffffffff8111156110d7578182fd5b6110e386828701610f0d565b9150509250925092565b600080604083850312156110ff578182fd5b823561110a81611677565b91506020830135610fc081611677565b60008060006060848603121561112e578081fd5b833561113981611677565b9250602084013561114981611677565b929592945050506040919091013590565b60008060006040848603121561116e578081fd5b833561117981611677565b9250602084013567ffffffffffffffff811115611194578182fd5b6111a086828701610ecd565b9497909650939450505050565b600080600080606085870312156111c2578182fd5b84356111cd81611677565b93506020850135600a81106111e0578283fd5b9250604085013567ffffffffffffffff8111156111fb578283fd5b61120787828801610ecd565b95989497509550505050565b60008060408385031215611225578182fd5b823567ffffffffffffffff8082111561123c578384fd5b818501915085601f83011261124f578384fd5b813561125d610d7f82611603565b80828252602080830192508086018a82838702890101111561127d578889fd5b8896505b848710156112a7576112938b82610d4b565b845260019690960195928101928101611281565b5090965087013593505050808211156112be578283fd5b506112cb85828601610dd8565b9150509250929050565b600080604083850312156112e7578182fd5b825167ffffffffffffffff808211156112fe578384fd5b61130a86838701610e6f565b9350602091508185015181811115611320578384fd5b85019050601f81018613611332578283fd5b8051611340610d7f82611603565b81815283810190838501865b84811015611375576113638b888451890101610f0d565b8452928601929086019060010161134c565b5096999098509650505050505050565b600060208284031215611396578081fd5b8151801515811461081c578182fd5b600080604083850312156113b7578182fd5b8251600481106113c5578283fd5b602084015190925067ffffffffffffffff8111156113e1578182fd5b6112cb85828601610e6f565b6000602082840312156113fe578081fd5b5051919050565b6000815180845260208085019450808401835b8381101561143457815187529582019590820190600101611418565b509495945050505050565b6001600160a01b0391909116815260200190565b6001600160a01b038416815260006004841061146b57fe5b83602083015260606040830152610cf86060830184611405565b6020808252825182820181905260009190848201906040850190845b818110156114c7578351600a81106114b557fe5b835292840192918401916001016114a1565b50909695505050505050565b60006020825261081c6020830184611405565b6000604082526114f96040830185611405565b90508260208301529392505050565b901515815260200190565b6000602082528251806020840152611532816040850160208701611647565b601f01601f19169190910160400192915050565b60208082526024908201527f5f5f7570646174654c69737473466f7246756e643a20756e657175616c2061726040820152637261797360e01b606082015260800190565b60208082526029908201527f4f6e6c792074686520506f6c6963794d616e616765722063616e206d616b65206040820152681d1a1a5cc818d85b1b60ba1b606082015260800190565b90815260200190565b60405181810167ffffffffffffffff811182821017156115fb57600080fd5b604052919050565b600067ffffffffffffffff821115611619578081fd5b5060209081020190565b600067ffffffffffffffff821115611639578081fd5b50601f01601f191660200190565b60005b8381101561166257818101518382015260200161164a565b83811115611671576000848401525b50505050565b6001600160a01b038116811461082357600080fdfe414c4c4f5745445f45585445524e414c5f504f534954494f4e5f54595045535f5045525f4d414e41474552a164736f6c634300060c000a","linkReferences":{}},"methodIdentifiers":{"BYPASS_FLAG()":"572a45e1","activateForFund(address)":"ceb9a0ad","addFundSettings(address,bytes)":"0f5f6b4f","canDisable()":"1ef92578","getListIdsForFundAndUser(address,address)":"b174666c","getPolicyManager()":"d44ad6cb","identifier()":"7998a1c4","implementedHooks()":"cbf54bb2","passesRule(address,address,uint256)":"cdb6552c","updateFundSettings(address,bytes)":"0d4d7510","validateRule(address,uint8,bytes)":"579be718"},"id":214}