{"abi":[{"type":"constructor","inputs":[{"name":"_integrationManager","type":"address","internalType":"address"},{"name":"_compoundV3Configurator","type":"address","internalType":"address"},{"name":"_compoundV3Rewards","type":"address","internalType":"address"},{"name":"_addressListRegistry","type":"address","internalType":"address"},{"name":"_cTokenListId","type":"uint256","internalType":"uint256"}],"stateMutability":"nonpayable"},{"type":"function","name":"CLAIM_REWARDS_SELECTOR","inputs":[],"outputs":[{"name":"","type":"bytes4","internalType":"bytes4"}],"stateMutability":"view"},{"type":"function","name":"LEND_AND_STAKE_SELECTOR","inputs":[],"outputs":[{"name":"","type":"bytes4","internalType":"bytes4"}],"stateMutability":"view"},{"type":"function","name":"LEND_SELECTOR","inputs":[],"outputs":[{"name":"","type":"bytes4","internalType":"bytes4"}],"stateMutability":"view"},{"type":"function","name":"REDEEM_SELECTOR","inputs":[],"outputs":[{"name":"","type":"bytes4","internalType":"bytes4"}],"stateMutability":"view"},{"type":"function","name":"STAKE_SELECTOR","inputs":[],"outputs":[{"name":"","type":"bytes4","internalType":"bytes4"}],"stateMutability":"view"},{"type":"function","name":"TAKE_MULTIPLE_ORDERS_SELECTOR","inputs":[],"outputs":[{"name":"","type":"bytes4","internalType":"bytes4"}],"stateMutability":"view"},{"type":"function","name":"TAKE_ORDER_SELECTOR","inputs":[],"outputs":[{"name":"","type":"bytes4","internalType":"bytes4"}],"stateMutability":"view"},{"type":"function","name":"UNSTAKE_AND_REDEEM_SELECTOR","inputs":[],"outputs":[{"name":"","type":"bytes4","internalType":"bytes4"}],"stateMutability":"view"},{"type":"function","name":"UNSTAKE_SELECTOR","inputs":[],"outputs":[{"name":"","type":"bytes4","internalType":"bytes4"}],"stateMutability":"view"},{"type":"function","name":"claimRewards","inputs":[{"name":"_vaultProxy","type":"address","internalType":"address"},{"name":"_actionData","type":"bytes","internalType":"bytes"},{"name":"","type":"bytes","internalType":"bytes"}],"outputs":[],"stateMutability":"nonpayable"},{"type":"function","name":"getIntegrationManager","inputs":[],"outputs":[{"name":"integrationManager_","type":"address","internalType":"address"}],"stateMutability":"view"},{"type":"function","name":"lend","inputs":[{"name":"_vaultProxy","type":"address","internalType":"address"},{"name":"","type":"bytes","internalType":"bytes"},{"name":"_assetData","type":"bytes","internalType":"bytes"}],"outputs":[],"stateMutability":"nonpayable"},{"type":"function","name":"parseAssetsForAction","inputs":[{"name":"_vaultProxy","type":"address","internalType":"address"},{"name":"_selector","type":"bytes4","internalType":"bytes4"},{"name":"_actionData","type":"bytes","internalType":"bytes"}],"outputs":[{"name":"spendAssetsHandleType_","type":"uint8","internalType":"enum IIntegrationManager.SpendAssetsHandleType"},{"name":"spendAssets_","type":"address[]","internalType":"address[]"},{"name":"spendAssetAmounts_","type":"uint256[]","internalType":"uint256[]"},{"name":"incomingAssets_","type":"address[]","internalType":"address[]"},{"name":"minIncomingAssetAmounts_","type":"uint256[]","internalType":"uint256[]"}],"stateMutability":"view"},{"type":"function","name":"redeem","inputs":[{"name":"_vaultProxy","type":"address","internalType":"address"},{"name":"","type":"bytes","internalType":"bytes"},{"name":"_assetData","type":"bytes","internalType":"bytes"}],"outputs":[],"stateMutability":"nonpayable"}],"bytecode":{"object":"0x6101406040523480156200001257600080fd5b50604051620021be380380620021be83398101604081905262000035916200015d565b6001600160601b0319606086811b821660805283901b1660a05260c0819052604051630337992760e31b81528390839083906000906001600160a01b038416906319bcc938906200008b908590600401620001ee565b60206040518083038186803b158015620000a457600080fd5b505afa158015620000b9573d6000803e3d6000fd5b505050506040513d601f19601f82011682018060405250810190620000df919062000134565b6001600160601b0319606091821b811660e05294811b8516610100529790971b90921661012052506200023895505050505050565b8051620001218162000213565b92915050565b805162000121816200022d565b6000602082840312156200014757600080fd5b600062000155848462000114565b949350505050565b600080600080600060a086880312156200017657600080fd5b600062000184888862000114565b9550506020620001978882890162000114565b9450506040620001aa8882890162000114565b9350506060620001bd8882890162000114565b9250506080620001d08882890162000127565b9150509295509295909350565b620001e88162000210565b82525050565b60208101620001218284620001dd565b60006001600160a01b03821662000121565b90565b6200021e81620001fe565b81146200022a57600080fd5b50565b6200021e8162000210565b60805160601c60a05160601c60c05160e05160601c6101005160601c6101205160601c611f286200029660003980610a2c5280610c995250806108e45250806107ce5250806106fb5250806106ce52508061064b5250611f286000f3fe608060405234801561001057600080fd5b50600436106100ea5760003560e01c8063b23228cf1161008c578063c32990a211610066578063c32990a214610178578063c54efee514610180578063e7c45690146101a4578063f7d882b5146101b9576100ea565b8063b23228cf1461014a578063b9dfbacc14610152578063c29fa9dd14610165576100ea565b8063257cb1a3116100c8578063257cb1a31461012a5780633ffc15911461013257806340da225d1461013a578063863e5ad014610142576100ea565b8063080456c1146100ef578063099f75151461010d578063131461c014610122575b600080fd5b6100f76101c1565b6040516101049190611cc1565b60405180910390f35b61012061011b36600461174e565b6101e5565b005b6100f7610315565b6100f7610339565b6100f761035d565b6100f7610381565b6100f76103a5565b6100f76103c9565b61012061016036600461174e565b6103ed565b61012061017336600461174e565b610461565b6100f761057b565b61019361018e3660046116e7565b61059f565b604051610104959493929190611ccf565b6101ac610649565b6040516101049190611c1c565b6100f761066d565b7f8334eb99be0145865eba9889fca2ee920288090caefff4cc776038e20ad9259a81565b60608061022784848080601f01602080910402602001604051908101604052809392919081815260200183838082843760009201919091525061069192505050565b92505091506102498160008151811061023c57fe5b60200260200101516106b7565b61030c8260008151811061025957fe5b60200260200101518260008151811061026e57fe5b6020026020010151898560008151811061028457fe5b60200260200101516001600160a01b03166370a08231306040518263ffffffff1660e01b81526004016102b79190611c1c565b60206040518083038186803b1580156102cf57600080fd5b505afa1580156102e3573d6000803e3d6000fd5b505050506040513d601f19601f8201168201806040525081019061030791906118ea565b61083c565b50505050505050565b7f29fa046e79524c3c5ac4c01df692c35e217802b2b13b21121b76cf0ef02b138c81565b7f099f75155f0e997bf83a7993a71d5e7e7540bd386fe1e84643a09ce6b412521981565b7ffa7dd04da627f433da73c4355ead9c75682a67a8fc84d3f6170ef0922f402d2481565b7fb9dfbaccbe5cd2a84fdcf1d15f23ef25d23086f5afbaa99516065ed4a5bbc7a381565b7f03e38a2bd7063d45c897edeafc330e71657502dd86434d3c37a489caf116af6981565b7f68e30677f607df46e87da13e15b637784cfa62374b653f35ab43d10361a2f83081565b606061042e85858080601f0160208091040260200160405190810160405280939291908181526020018383808284376000920191909152506108af92505050565b905060005b815181101561030c5761045982828151811061044b57fe5b6020026020010151886108cd565b600101610433565b6060806104a384848080601f01602080910402602001604051908101604052809392919081815260200183838082843760009201919091525061069192505050565b92505091506104b88260008151811061023c57fe5b61030c826000815181106104c857fe5b6020026020010151826000815181106104dd57fe5b602002602001015189856000815181106104f357fe5b60200260200101516001600160a01b03166370a08231306040518263ffffffff1660e01b81526004016105269190611c1c565b60206040518083038186803b15801561053e57600080fd5b505afa158015610552573d6000803e3d6000fd5b505050506040513d601f19601f8201168201806040525081019061057691906118ea565b61091e565b7f0e7f692dad5b88fdee426250d6eae91207e56a2e8112b7364579bed1790e5bf481565b600060608080806001600160e01b03198816632e77eeb360e21b14156105d6576105c761094e565b9450945094509450945061063e565b6001600160e01b0319881663099f751560e01b14156105f9576105c787876109ae565b6001600160e01b0319881663c29fa9dd60e01b141561061d576105c7898888610bb7565b60405162461bcd60e51b815260040161063590611d97565b60405180910390fd5b945094509450945094565b7f000000000000000000000000000000000000000000000000000000000000000090565b7fc29fa9dde84204c2908778afd0613d802d31cf046179b88f6d2b4a4e507ea2d581565b6060806060838060200190518101906106aa9190611807565b9250925092509193909250565b6040516307158c8160e21b81526001600160a01b037f00000000000000000000000000000000000000000000000000000000000000001690631c56320490610725907f0000000000000000000000000000000000000000000000000000000000000000908590600401611da7565b60206040518083038186803b15801561073d57600080fd5b505afa158015610751573d6000803e3d6000fd5b505050506040513d601f19601f820116820180604052508101906107759190611898565b610839576040805160018082528183019092526060916020808301908036833701905050905081816000815181106107a957fe5b6001600160a01b03928316602091820292909201015260405163a8f0bc4160e01b81527f00000000000000000000000000000000000000000000000000000000000000009091169063a8f0bc4190610805908490600401611cb0565b600060405180830381600087803b15801561081f57600080fd5b505af1158015610833573d6000803e3d6000fd5b50505050505b50565b610847848483610e48565b604051634232cd6360e01b81526001600160a01b03841690634232cd639061087790859088908690600401611c6d565b600060405180830381600087803b15801561089157600080fd5b505af11580156108a5573d6000803e3d6000fd5b5050505050505050565b6060818060200190518101906108c591906117d3565b90505b919050565b604051635b81a7bf60e11b81526001600160a01b037f0000000000000000000000000000000000000000000000000000000000000000169063b7034f7e906108059085908590600190600401611c45565b6040516361d9ad3f60e11b81526001600160a01b0385169063c3b35a7e9061087790859087908690600401611c6d565b600060608080808480604051908082528060200260200182016040528015610980578160200160208202803683370190505b5060408051600080825260208201818152828401918252606083019093529399929850965094509092509050565b60006060806060806000806109f889898080601f016020809104026020016040519081016040528093929190818152602001838380828437600092019190915250610f0a92505050565b60408051600180825281830190925292945090925060208083019080368337505060405163c44b11f760e01b8152919750507f00000000000000000000000000000000000000000000000000000000000000006001600160a01b03169063c44b11f790610a69908590600401611c1c565b60006040518083038186803b158015610a8157600080fd5b505afa158015610a95573d6000803e3d6000fd5b505050506040513d6000823e601f3d908101601f19168201604052610abd91908101906118b6565b6040015186600081518110610ace57fe5b6001600160a01b03929092166020928302919091018201526040805160018082528183019092529182810190803683370190505094508085600081518110610b1257fe5b6020908102919091010152604080516001808252818301909252908160200160208202803683370190505093508184600081518110610b4d57fe5b6001600160a01b0392909216602092830291909101820152604080516001808252818301909252918281019080368337019050509250610b8e816002610f2a565b83600081518110610b9b57fe5b6020026020010181815250506002965050509295509295909350565b6000606080606080600080610c0189898080601f016020809104026020016040519081016040528093929190818152602001838380828437600092019190915250610f0a92505050565b604080516001808252818301909252929450909250602080830190803683370190505095508186600081518110610c3457fe5b6001600160a01b03929092166020928302919091018201526040805160018082528183019092529182810190803683375050604080516001808252818301909252929750905060208083019080368337505060405163c44b11f760e01b8152919550507f00000000000000000000000000000000000000000000000000000000000000006001600160a01b03169063c44b11f790610cd6908590600401611c1c565b60006040518083038186803b158015610cee57600080fd5b505afa158015610d02573d6000803e3d6000fd5b505050506040513d6000823e601f3d908101601f19168201604052610d2a91908101906118b6565b6040015184600081518110610d3b57fe5b6001600160a01b0392909216602092830291909101820152604080516001808252818301909252918281019080368337019050509250600019811415610dfa576040516370a0823160e01b81526001600160a01b038316906370a0823190610da7908d90600401611c1c565b60206040518083038186803b158015610dbf57600080fd5b505afa158015610dd3573d6000803e3d6000fd5b505050506040513d601f19601f82011682018060405250810190610df791906118ea565b90505b8085600081518110610e0857fe5b6020908102919091010152610e1e816002610f2a565b83600081518110610e2b57fe5b602002602001018181525050600296505050939792965093509350565b604051636eb1769f60e11b81526000906001600160a01b0385169063dd62ed3e90610e799030908790600401611c2a565b60206040518083038186803b158015610e9157600080fd5b505afa158015610ea5573d6000803e3d6000fd5b505050506040513d601f19601f82011682018060405250810190610ec991906118ea565b905081811015610f04578015610eee57610eee6001600160a01b038516846000610f57565b610f046001600160a01b03851684600019610f57565b50505050565b60008082806020019051810190610f2191906116ad565b91509150915091565b600082821115610f4c5760405162461bcd60e51b815260040161063590611d47565b508082035b92915050565b801580610fdf5750604051636eb1769f60e11b81526001600160a01b0384169063dd62ed3e90610f8d9030908690600401611c2a565b60206040518083038186803b158015610fa557600080fd5b505afa158015610fb9573d6000803e3d6000fd5b505050506040513d601f19601f82011682018060405250810190610fdd91906118ea565b155b610ffb5760405162461bcd60e51b815260040161063590611d87565b6110518363095ea7b360e01b848460405160240161101a929190611c95565b60408051601f198184030181529190526020810180516001600160e01b03166001600160e01b031990931692909217909152611056565b505050565b60606110ab826040518060400160405280602081526020017f5361666545524332303a206c6f772d6c6576656c2063616c6c206661696c6564815250856001600160a01b03166110e59092919063ffffffff16565b80519091501561105157808060200190518101906110c99190611898565b6110515760405162461bcd60e51b815260040161063590611d77565b60606110f484846000856110fe565b90505b9392505050565b6060824710156111205760405162461bcd60e51b815260040161063590611d57565b611129856111c1565b6111455760405162461bcd60e51b815260040161063590611d67565b60006060866001600160a01b031685876040516111629190611c10565b60006040518083038185875af1925050503d806000811461119f576040519150601f19603f3d011682016040523d82523d6000602084013e6111a4565b606091505b50915091506111b48282866111c7565b925050505b949350505050565b3b151590565b606083156111d65750816110f7565b8251156111e65782518084602001fd5b8160405162461bcd60e51b81526004016106359190611d36565b8035610f5181611ec8565b8051610f5181611ec8565b600082601f83011261122757600080fd5b815161123a61123582611ddb565b611db5565b9150818183526020840193506020810190508385602084028201111561125f57600080fd5b60005b8381101561128b5781611275888261120b565b8452506020928301929190910190600101611262565b5050505092915050565b600082601f8301126112a657600080fd5b81516112b461123582611ddb565b915081818352602084019350602081019050838560e08402820111156112d957600080fd5b60005b8381101561128b57816112ef88826113d5565b84525060209092019160e091909101906001016112dc565b600082601f83011261131857600080fd5b815161132661123582611ddb565b9150818183526020840193506020810190508385602084028201111561134b57600080fd5b60005b8381101561128b5781611361888261168c565b845250602092830192919091019060010161134e565b8051610f5181611edc565b8035610f5181611ee5565b60008083601f84011261139f57600080fd5b5081356001600160401b038111156113b657600080fd5b6020830191508360018202830111156113ce57600080fd5b9250929050565b600060e082840312156113e757600080fd5b6113f160e0611db5565b905060006113ff848461120b565b82525060206114108484830161120b565b6020830152506040611424848285016116a2565b604083015250606061143884828501611697565b606083015250608061144c84828501611697565b60808301525060a061146084828501611697565b60a08301525060c061147484828501611681565b60c08301525092915050565b60006102a0828403121561149357600080fd5b61149e6102a0611db5565b905060006114ac848461120b565b82525060206114bd8484830161120b565b60208301525060406114d18482850161120b565b60408301525060606114e58482850161120b565b60608301525060806114f98482850161120b565b60808301525060a061150d84828501611697565b60a08301525060c061152184828501611697565b60c08301525060e061153584828501611697565b60e08301525061010061154a84828501611697565b6101008301525061012061156084828501611697565b6101208301525061014061157684828501611697565b6101408301525061016061158c84828501611697565b610160830152506101806115a284828501611697565b610180830152506101a06115b884828501611697565b6101a0830152506101c06115ce84828501611697565b6101c0830152506101e06115e484828501611697565b6101e0830152506102006115fa84828501611697565b6102008301525061022061161084828501611676565b6102208301525061024061162684828501611676565b6102408301525061026061163c84828501611676565b610260830152506102808201516001600160401b0381111561165d57600080fd5b61166984828501611295565b6102808301525092915050565b8051610f5181611eee565b8051610f5181611ef7565b8051610f5181611f00565b8051610f5181611f09565b8051610f5181611f12565b600080604083850312156116c057600080fd5b60006116cc858561120b565b92505060206116dd8582860161168c565b9150509250929050565b600080600080606085870312156116fd57600080fd5b60006117098787611200565b945050602061171a87828801611382565b93505060408501356001600160401b0381111561173657600080fd5b6117428782880161138d565b95989497509550505050565b60008060008060006060868803121561176657600080fd5b60006117728888611200565b95505060208601356001600160401b0381111561178e57600080fd5b61179a8882890161138d565b945094505060408601356001600160401b038111156117b857600080fd5b6117c48882890161138d565b92509250509295509295909350565b6000602082840312156117e557600080fd5b81516001600160401b038111156117fb57600080fd5b6111b984828501611216565b60008060006060848603121561181c57600080fd5b83516001600160401b0381111561183257600080fd5b61183e86828701611216565b93505060208401516001600160401b0381111561185a57600080fd5b61186686828701611307565b92505060408401516001600160401b0381111561188257600080fd5b61188e86828701611216565b9150509250925092565b6000602082840312156118aa57600080fd5b60006111b98484611377565b6000602082840312156118c857600080fd5b81516001600160401b038111156118de57600080fd5b6111b984828501611480565b6000602082840312156118fc57600080fd5b60006111b9848461168c565b60006119148383611928565b505060200190565b60006119148383611c07565b61193181611e0e565b82525050565b600061194282611e01565b61194c8185611e05565b935061195783611dfb565b8060005b8381101561198557815161196f8882611908565b975061197a83611dfb565b92505060010161195b565b509495945050505050565b600061199b82611e01565b6119a58185611e05565b93506119b083611dfb565b8060005b838110156119855781516119c8888261191c565b97506119d383611dfb565b9250506001016119b4565b61193181611e19565b61193181611e1e565b60006119fb82611e01565b611a0581856108c8565b9350611a15818560208601611e88565b9290920192915050565b61193181611e7d565b6000611a3382611e01565b611a3d8185611e05565b9350611a4d818560208601611e88565b611a5681611eb4565b9093019392505050565b6000611a6d601e83611e05565b7f536166654d6174683a207375627472616374696f6e206f766572666c6f770000815260200192915050565b6000611aa6602683611e05565b7f416464726573733a20696e73756666696369656e742062616c616e636520666f8152651c8818d85b1b60d21b602082015260400192915050565b6000611aee601d83611e05565b7f416464726573733a2063616c6c20746f206e6f6e2d636f6e7472616374000000815260200192915050565b6000611b27602a83611e05565b7f5361666545524332303a204552433230206f7065726174696f6e20646964206e8152691bdd081cdd58d8d9595960b21b602082015260400192915050565b6000611b73603683611e05565b7f5361666545524332303a20617070726f76652066726f6d206e6f6e2d7a65726f81527520746f206e6f6e2d7a65726f20616c6c6f77616e636560501b602082015260400192915050565b6000611bcb602783611e05565b7f7061727365417373657473466f72416374696f6e3a205f73656c6563746f72208152661a5b9d985b1a5960ca1b602082015260400192915050565b61193181611e68565b60006110f782846119f0565b60208101610f518284611928565b60408101611c388285611928565b6110f76020830184611928565b60608101611c538286611928565b611c606020830185611928565b6111b960408301846119de565b60608101611c7b8286611928565b611c886020830185611928565b6111b96040830184611c07565b60408101611ca38285611928565b6110f76020830184611c07565b602080825281016110f78184611937565b60208101610f5182846119e7565b60a08101611cdd8288611a1f565b8181036020830152611cef8187611937565b90508181036040830152611d038186611990565b90508181036060830152611d178185611937565b90508181036080830152611d2b8184611990565b979650505050505050565b602080825281016110f78184611a28565b602080825281016108c581611a60565b602080825281016108c581611a99565b602080825281016108c581611ae1565b602080825281016108c581611b1a565b602080825281016108c581611b66565b602080825281016108c581611bbe565b60408101611c388285611c07565b6040518181016001600160401b0381118282101715611dd357600080fd5b604052919050565b60006001600160401b03821115611df157600080fd5b5060209081020190565b60200190565b5190565b90815260200190565b60006108c582611e5c565b151590565b6001600160e01b03191690565b806108c881611ebe565b6cffffffffffffffffffffffffff1690565b6fffffffffffffffffffffffffffffffff1690565b6001600160a01b031690565b90565b6001600160401b031690565b60ff1690565b60006108c582611e2b565b60005b83811015611ea3578181015183820152602001611e8b565b83811115610f045750506000910152565b601f01601f191690565b6003811061083957fe5b611ed181611e0e565b811461083957600080fd5b611ed181611e19565b611ed181611e1e565b611ed181611e35565b611ed181611e47565b611ed181611e68565b611ed181611e6b565b611ed181611e7756fea164736f6c634300060c000a","linkReferences":{}},"methodIdentifiers":{"CLAIM_REWARDS_SELECTOR()":"40da225d","LEND_AND_STAKE_SELECTOR()":"131461c0","LEND_SELECTOR()":"257cb1a3","REDEEM_SELECTOR()":"f7d882b5","STAKE_SELECTOR()":"3ffc1591","TAKE_MULTIPLE_ORDERS_SELECTOR()":"c32990a2","TAKE_ORDER_SELECTOR()":"863e5ad0","UNSTAKE_AND_REDEEM_SELECTOR()":"080456c1","UNSTAKE_SELECTOR()":"b23228cf","claimRewards(address,bytes,bytes)":"b9dfbacc","getIntegrationManager()":"e7c45690","lend(address,bytes,bytes)":"099f7515","parseAssetsForAction(address,bytes4,bytes)":"c54efee5","redeem(address,bytes,bytes)":"c29fa9dd"},"id":211}