{"abi":[{"type":"constructor","inputs":[{"name":"_integrationManager","type":"address","internalType":"address"},{"name":"_compoundV3Configurator","type":"address","internalType":"address"},{"name":"_compoundV3Rewards","type":"address","internalType":"address"},{"name":"_addressListRegistry","type":"address","internalType":"address"},{"name":"_cTokenListId","type":"uint256","internalType":"uint256"}],"stateMutability":"nonpayable"},{"type":"function","name":"CLAIM_REWARDS_SELECTOR","inputs":[],"outputs":[{"name":"","type":"bytes4","internalType":"bytes4"}],"stateMutability":"view"},{"type":"function","name":"LEND_AND_STAKE_SELECTOR","inputs":[],"outputs":[{"name":"","type":"bytes4","internalType":"bytes4"}],"stateMutability":"view"},{"type":"function","name":"LEND_SELECTOR","inputs":[],"outputs":[{"name":"","type":"bytes4","internalType":"bytes4"}],"stateMutability":"view"},{"type":"function","name":"REDEEM_SELECTOR","inputs":[],"outputs":[{"name":"","type":"bytes4","internalType":"bytes4"}],"stateMutability":"view"},{"type":"function","name":"STAKE_SELECTOR","inputs":[],"outputs":[{"name":"","type":"bytes4","internalType":"bytes4"}],"stateMutability":"view"},{"type":"function","name":"TAKE_MULTIPLE_ORDERS_SELECTOR","inputs":[],"outputs":[{"name":"","type":"bytes4","internalType":"bytes4"}],"stateMutability":"view"},{"type":"function","name":"TAKE_ORDER_SELECTOR","inputs":[],"outputs":[{"name":"","type":"bytes4","internalType":"bytes4"}],"stateMutability":"view"},{"type":"function","name":"UNSTAKE_AND_REDEEM_SELECTOR","inputs":[],"outputs":[{"name":"","type":"bytes4","internalType":"bytes4"}],"stateMutability":"view"},{"type":"function","name":"UNSTAKE_SELECTOR","inputs":[],"outputs":[{"name":"","type":"bytes4","internalType":"bytes4"}],"stateMutability":"view"},{"type":"function","name":"claimRewards","inputs":[{"name":"_vaultProxy","type":"address","internalType":"address"},{"name":"_actionData","type":"bytes","internalType":"bytes"},{"name":"","type":"bytes","internalType":"bytes"}],"outputs":[],"stateMutability":"nonpayable"},{"type":"function","name":"getIntegrationManager","inputs":[],"outputs":[{"name":"integrationManager_","type":"address","internalType":"address"}],"stateMutability":"view"},{"type":"function","name":"lend","inputs":[{"name":"_vaultProxy","type":"address","internalType":"address"},{"name":"","type":"bytes","internalType":"bytes"},{"name":"_assetData","type":"bytes","internalType":"bytes"}],"outputs":[],"stateMutability":"nonpayable"},{"type":"function","name":"parseAssetsForAction","inputs":[{"name":"_vaultProxy","type":"address","internalType":"address"},{"name":"_selector","type":"bytes4","internalType":"bytes4"},{"name":"_actionData","type":"bytes","internalType":"bytes"}],"outputs":[{"name":"spendAssetsHandleType_","type":"uint8","internalType":"enum IIntegrationManager.SpendAssetsHandleType"},{"name":"spendAssets_","type":"address[]","internalType":"address[]"},{"name":"spendAssetAmounts_","type":"uint256[]","internalType":"uint256[]"},{"name":"incomingAssets_","type":"address[]","internalType":"address[]"},{"name":"minIncomingAssetAmounts_","type":"uint256[]","internalType":"uint256[]"}],"stateMutability":"view"},{"type":"function","name":"redeem","inputs":[{"name":"_vaultProxy","type":"address","internalType":"address"},{"name":"","type":"bytes","internalType":"bytes"},{"name":"_assetData","type":"bytes","internalType":"bytes"}],"outputs":[],"stateMutability":"nonpayable"}],"bytecode":{"object":"0x6101406040523480156200001257600080fd5b5060405162002ffa38038062002ffa833981810160405281019062000038919062000256565b828282878073ffffffffffffffffffffffffffffffffffffffff1660808173ffffffffffffffffffffffffffffffffffffffff1660601b81525050508173ffffffffffffffffffffffffffffffffffffffff1660a08173ffffffffffffffffffffffffffffffffffffffff1660601b815250508060c0818152505060008273ffffffffffffffffffffffffffffffffffffffff166319bcc938836040518263ffffffff1660e01b8152600401620000f09190620002e9565b60206040518083038186803b1580156200010957600080fd5b505afa1580156200011e573d6000803e3d6000fd5b505050506040513d601f19601f820116820180604052508101906200014491906200022a565b90508073ffffffffffffffffffffffffffffffffffffffff1660e08173ffffffffffffffffffffffffffffffffffffffff1660601b815250505050508073ffffffffffffffffffffffffffffffffffffffff166101008173ffffffffffffffffffffffffffffffffffffffff1660601b81525050508373ffffffffffffffffffffffffffffffffffffffff166101208173ffffffffffffffffffffffffffffffffffffffff1660601b81525050505050505062000378565b6000815190506200020d8162000344565b92915050565b60008151905062000224816200035e565b92915050565b6000602082840312156200023d57600080fd5b60006200024d84828501620001fc565b91505092915050565b600080600080600060a086880312156200026f57600080fd5b60006200027f88828901620001fc565b95505060206200029288828901620001fc565b9450506040620002a588828901620001fc565b9350506060620002b888828901620001fc565b9250506080620002cb8882890162000213565b9150509295509295909350565b620002e3816200033a565b82525050565b6000602082019050620003006000830184620002d8565b92915050565b600062000313826200031a565b9050919050565b600073ffffffffffffffffffffffffffffffffffffffff82169050919050565b6000819050919050565b6200034f8162000306565b81146200035b57600080fd5b50565b62000369816200033a565b81146200037557600080fd5b50565b60805160601c60a05160601c60c05160e05160601c6101005160601c6101205160601c612c24620003d660003980610ea05280611298525080610bb7525080610a8a5250806109635250806109275250806108b75250612c246000f3fe608060405234801561001057600080fd5b50600436106100ea5760003560e01c8063b23228cf1161008c578063c32990a211610066578063c32990a214610215578063c54efee514610233578063e7c4569014610267578063f7d882b514610285576100ea565b8063b23228cf146101bf578063b9dfbacc146101dd578063c29fa9dd146101f9576100ea565b8063257cb1a3116100c8578063257cb1a3146101475780633ffc15911461016557806340da225d14610183578063863e5ad0146101a1576100ea565b8063080456c1146100ef578063099f75151461010d578063131461c014610129575b600080fd5b6100f76102a3565b6040516101049190612718565b60405180910390f35b61012760048036038101906101229190612039565b6102c7565b005b610131610412565b60405161013e9190612718565b60405180910390f35b61014f610436565b60405161015c9190612718565b60405180910390f35b61016d61045a565b60405161017a9190612718565b60405180910390f35b61018b61047e565b6040516101989190612718565b60405180910390f35b6101a96104a2565b6040516101b69190612718565b60405180910390f35b6101c76104c6565b6040516101d49190612718565b60405180910390f35b6101f760048036038101906101f29190612039565b6104ea565b005b610213600480360381019061020e9190612039565b61057a565b005b61021d6106c5565b60405161022a9190612718565b60405180910390f35b61024d60048036038101906102489190611fcd565b6106e9565b60405161025e959493929190612733565b60405180910390f35b61026f6108b3565b60405161027c919061261b565b60405180910390f35b61028d6108db565b60405161029a9190612718565b60405180910390f35b7f8334eb99be0145865eba9889fca2ee920288090caefff4cc776038e20ad9259a81565b60608061031784848080601f016020809104026020016040519081016040528093929190818152602001838380828437600081840152601f19601f820116905080830192505050505050506108ff565b92505091506103398160008151811061032c57fe5b6020026020010151610925565b6104098260008151811061034957fe5b60200260200101518260008151811061035e57fe5b6020026020010151898560008151811061037457fe5b602002602001015173ffffffffffffffffffffffffffffffffffffffff166370a08231306040518263ffffffff1660e01b81526004016103b4919061261b565b60206040518083038186803b1580156103cc57600080fd5b505afa1580156103e0573d6000803e3d6000fd5b505050506040513d601f19601f820116820180604052508101906104049190612204565b610b18565b50505050505050565b7f29fa046e79524c3c5ac4c01df692c35e217802b2b13b21121b76cf0ef02b138c81565b7f099f75155f0e997bf83a7993a71d5e7e7540bd386fe1e84643a09ce6b412521981565b7ffa7dd04da627f433da73c4355ead9c75682a67a8fc84d3f6170ef0922f402d2481565b7fb9dfbaccbe5cd2a84fdcf1d15f23ef25d23086f5afbaa99516065ed4a5bbc7a381565b7f03e38a2bd7063d45c897edeafc330e71657502dd86434d3c37a489caf116af6981565b7f68e30677f607df46e87da13e15b637784cfa62374b653f35ab43d10361a2f83081565b606061053985858080601f016020809104026020016040519081016040528093929190818152602001838380828437600081840152601f19601f82011690508083019250505050505050610b98565b905060005b81518110156105715761056482828151811061055657fe5b602002602001015188610bb5565b808060010191505061053e565b50505050505050565b6060806105ca84848080601f016020809104026020016040519081016040528093929190818152602001838380828437600081840152601f19601f820116905080830192505050505050506108ff565b92505091506105ec826000815181106105df57fe5b6020026020010151610925565b6106bc826000815181106105fc57fe5b60200260200101518260008151811061061157fe5b6020026020010151898560008151811061062757fe5b602002602001015173ffffffffffffffffffffffffffffffffffffffff166370a08231306040518263ffffffff1660e01b8152600401610667919061261b565b60206040518083038186803b15801561067f57600080fd5b505afa158015610693573d6000803e3d6000fd5b505050506040513d601f19601f820116820180604052508101906106b79190612204565b610c49565b50505050505050565b7f0e7f692dad5b88fdee426250d6eae91207e56a2e8112b7364579bed1790e5bf481565b60006060806060807fb9dfbaccbe5cd2a84fdcf1d15f23ef25d23086f5afbaa99516065ed4a5bbc7a37bffffffffffffffffffffffffffffffffffffffffffffffffffffffff1916887bffffffffffffffffffffffffffffffffffffffffffffffffffffffff1916141561076e5761075f610cbe565b945094509450945094506108a8565b7f099f75155f0e997bf83a7993a71d5e7e7540bd386fe1e84643a09ce6b41252197bffffffffffffffffffffffffffffffffffffffffffffffffffffffff1916887bffffffffffffffffffffffffffffffffffffffffffffffffffffffff191614156107ed576107de8787610df8565b945094509450945094506108a8565b7fc29fa9dde84204c2908778afd0613d802d31cf046179b88f6d2b4a4e507ea2d57bffffffffffffffffffffffffffffffffffffffffffffffffffffffff1916887bffffffffffffffffffffffffffffffffffffffffffffffffffffffff1916141561086d5761085e898888611114565b945094509450945094506108a8565b6040517f08c379a000000000000000000000000000000000000000000000000000000000815260040161089f90612864565b60405180910390fd5b945094509450945094565b60007f0000000000000000000000000000000000000000000000000000000000000000905090565b7fc29fa9dde84204c2908778afd0613d802d31cf046179b88f6d2b4a4e507ea2d581565b6060806060838060200190518101906109189190612103565b9250925092509193909250565b7f000000000000000000000000000000000000000000000000000000000000000073ffffffffffffffffffffffffffffffffffffffff16631c5632047f0000000000000000000000000000000000000000000000000000000000000000836040518363ffffffff1660e01b81526004016109a0929190612884565b60206040518083038186803b1580156109b857600080fd5b505afa1580156109cc573d6000803e3d6000fd5b505050506040513d601f19601f820116820180604052508101906109f0919061219a565b610b15576060600167ffffffffffffffff81118015610a0e57600080fd5b50604051908082528060200260200182016040528015610a3d5781602001602082028036833780820191505090505b5090508181600081518110610a4e57fe5b602002602001019073ffffffffffffffffffffffffffffffffffffffff16908173ffffffffffffffffffffffffffffffffffffffff16815250507f000000000000000000000000000000000000000000000000000000000000000073ffffffffffffffffffffffffffffffffffffffff1663a8f0bc41826040518263ffffffff1660e01b8152600401610ae191906126f6565b600060405180830381600087803b158015610afb57600080fd5b505af1158015610b0f573d6000803e3d6000fd5b50505050505b50565b610b238484836114e5565b8273ffffffffffffffffffffffffffffffffffffffff16634232cd638386846040518463ffffffff1660e01b8152600401610b6093929190612696565b600060405180830381600087803b158015610b7a57600080fd5b505af1158015610b8e573d6000803e3d6000fd5b5050505050505050565b606081806020019051810190610bae91906120c2565b9050919050565b7f000000000000000000000000000000000000000000000000000000000000000073ffffffffffffffffffffffffffffffffffffffff1663b7034f7e838360016040518463ffffffff1660e01b8152600401610c139392919061265f565b600060405180830381600087803b158015610c2d57600080fd5b505af1158015610c41573d6000803e3d6000fd5b505050505050565b8373ffffffffffffffffffffffffffffffffffffffff1663c3b35a7e8385846040518463ffffffff1660e01b8152600401610c8693929190612696565b600060405180830381600087803b158015610ca057600080fd5b505af1158015610cb4573d6000803e3d6000fd5b5050505050505050565b600060608060608060008067ffffffffffffffff81118015610cdf57600080fd5b50604051908082528060200260200182016040528015610d0e5781602001602082028036833780820191505090505b50600067ffffffffffffffff81118015610d2757600080fd5b50604051908082528060200260200182016040528015610d565781602001602082028036833780820191505090505b50600067ffffffffffffffff81118015610d6f57600080fd5b50604051908082528060200260200182016040528015610d9e5781602001602082028036833780820191505090505b50600067ffffffffffffffff81118015610db757600080fd5b50604051908082528060200260200182016040528015610de65781602001602082028036833780820191505090505b50945094509450945094509091929394565b6000606080606080600080610e5089898080601f016020809104026020016040519081016040528093929190818152602001838380828437600081840152601f19601f82011690508083019250505050505050611604565b91509150600167ffffffffffffffff81118015610e6c57600080fd5b50604051908082528060200260200182016040528015610e9b5781602001602082028036833780820191505090505b5095507f000000000000000000000000000000000000000000000000000000000000000073ffffffffffffffffffffffffffffffffffffffff1663c44b11f7836040518263ffffffff1660e01b8152600401610ef7919061261b565b60006040518083038186803b158015610f0f57600080fd5b505afa158015610f23573d6000803e3d6000fd5b505050506040513d6000823e3d601f19601f82011682018060405250810190610f4c91906121c3565b6040015186600081518110610f5d57fe5b602002602001019073ffffffffffffffffffffffffffffffffffffffff16908173ffffffffffffffffffffffffffffffffffffffff1681525050600167ffffffffffffffff81118015610faf57600080fd5b50604051908082528060200260200182016040528015610fde5781602001602082028036833780820191505090505b5094508085600081518110610fef57fe5b602002602001018181525050600167ffffffffffffffff8111801561101357600080fd5b506040519080825280602002602001820160405280156110425781602001602082028036833780820191505090505b509350818460008151811061105357fe5b602002602001019073ffffffffffffffffffffffffffffffffffffffff16908173ffffffffffffffffffffffffffffffffffffffff1681525050600167ffffffffffffffff811180156110a557600080fd5b506040519080825280602002602001820160405280156110d45781602001602082028036833780820191505090505b5092506110eb60028261162490919063ffffffff16565b836000815181106110f857fe5b6020026020010181815250506002965050509295509295909350565b600060608060608060008061116c89898080601f016020809104026020016040519081016040528093929190818152602001838380828437600081840152601f19601f82011690508083019250505050505050611604565b91509150600167ffffffffffffffff8111801561118857600080fd5b506040519080825280602002602001820160405280156111b75781602001602082028036833780820191505090505b50955081866000815181106111c857fe5b602002602001019073ffffffffffffffffffffffffffffffffffffffff16908173ffffffffffffffffffffffffffffffffffffffff1681525050600167ffffffffffffffff8111801561121a57600080fd5b506040519080825280602002602001820160405280156112495781602001602082028036833780820191505090505b509450600167ffffffffffffffff8111801561126457600080fd5b506040519080825280602002602001820160405280156112935781602001602082028036833780820191505090505b5093507f000000000000000000000000000000000000000000000000000000000000000073ffffffffffffffffffffffffffffffffffffffff1663c44b11f7836040518263ffffffff1660e01b81526004016112ef919061261b565b60006040518083038186803b15801561130757600080fd5b505afa15801561131b573d6000803e3d6000fd5b505050506040513d6000823e3d601f19601f8201168201806040525081019061134491906121c3565b604001518460008151811061135557fe5b602002602001019073ffffffffffffffffffffffffffffffffffffffff16908173ffffffffffffffffffffffffffffffffffffffff1681525050600167ffffffffffffffff811180156113a757600080fd5b506040519080825280602002602001820160405280156113d65781602001602082028036833780820191505090505b5092507fffffffffffffffffffffffffffffffffffffffffffffffffffffffffffffffff81141561148d578173ffffffffffffffffffffffffffffffffffffffff166370a082318b6040518263ffffffff1660e01b815260040161143a919061261b565b60206040518083038186803b15801561145257600080fd5b505afa158015611466573d6000803e3d6000fd5b505050506040513d601f19601f8201168201806040525081019061148a9190612204565b90505b808560008151811061149b57fe5b6020026020010181815250506114bb60028261162490919063ffffffff16565b836000815181106114c857fe5b602002602001018181525050600296505050939792965093509350565b60008373ffffffffffffffffffffffffffffffffffffffff1663dd62ed3e30856040518363ffffffff1660e01b8152600401611522929190612636565b60206040518083038186803b15801561153a57600080fd5b505afa15801561154e573d6000803e3d6000fd5b505050506040513d601f19601f820116820180604052508101906115729190612204565b9050818110156115fe5760008111156115b2576115b18360008673ffffffffffffffffffffffffffffffffffffffff166116749092919063ffffffff16565b5b6115fd837fffffffffffffffffffffffffffffffffffffffffffffffffffffffffffffffff8673ffffffffffffffffffffffffffffffffffffffff166116749092919063ffffffff16565b5b50505050565b6000808280602001905181019061161b9190611f91565b91509150915091565b600082821115611669576040517f08c379a0000000000000000000000000000000000000000000000000000000008152600401611660906127c4565b60405180910390fd5b818303905092915050565b600081148061170d575060008373ffffffffffffffffffffffffffffffffffffffff1663dd62ed3e30856040518363ffffffff1660e01b81526004016116bb929190612636565b60206040518083038186803b1580156116d357600080fd5b505afa1580156116e7573d6000803e3d6000fd5b505050506040513d601f19601f8201168201806040525081019061170b9190612204565b145b61174c576040517f08c379a000000000000000000000000000000000000000000000000000000000815260040161174390612844565b60405180910390fd5b6117cd8363095ea7b360e01b848460405160240161176b9291906126cd565b604051602081830303815290604052907bffffffffffffffffffffffffffffffffffffffffffffffffffffffff19166020820180517bffffffffffffffffffffffffffffffffffffffffffffffffffffffff83818316178352505050506117d2565b505050565b6060611834826040518060400160405280602081526020017f5361666545524332303a206c6f772d6c6576656c2063616c6c206661696c65648152508573ffffffffffffffffffffffffffffffffffffffff166118999092919063ffffffff16565b90506000815111156118945780806020019051810190611854919061219a565b611893576040517f08c379a000000000000000000000000000000000000000000000000000000000815260040161188a90612824565b60405180910390fd5b5b505050565b60606118a884846000856118b1565b90509392505050565b6060824710156118f6576040517f08c379a00000000000000000000000000000000000000000000000000000000081526004016118ed906127e4565b60405180910390fd5b6118ff856119c6565b61193e576040517f08c379a000000000000000000000000000000000000000000000000000000000815260040161193590612804565b60405180910390fd5b600060608673ffffffffffffffffffffffffffffffffffffffff1685876040516119689190612604565b60006040518083038185875af1925050503d80600081146119a5576040519150601f19603f3d011682016040523d82523d6000602084013e6119aa565b606091505b50915091506119ba8282866119d9565b92505050949350505050565b600080823b905060008111915050919050565b606083156119e957829050611a39565b6000835111156119fc5782518084602001fd5b816040517f08c379a0000000000000000000000000000000000000000000000000000000008152600401611a3091906127a2565b60405180910390fd5b9392505050565b600081359050611a4f81612b48565b92915050565b600081519050611a6481612b48565b92915050565b600081519050611a7981612b5f565b92915050565b600082601f830112611a9057600080fd5b8151611aa3611a9e826128da565b6128ad565b91508181835260208401935060208101905083856020840282011115611ac857600080fd5b60005b83811015611af85781611ade8882611a55565b845260208401935060208301925050600181019050611acb565b5050505092915050565b600082601f830112611b1357600080fd5b8151611b26611b2182612902565b6128ad565b915081818352602084019350602081019050838560e0840282011115611b4b57600080fd5b60005b83811015611b7b5781611b618882611c7c565b845260208401935060e08301925050600181019050611b4e565b5050505092915050565b600082601f830112611b9657600080fd5b8151611ba9611ba48261292a565b6128ad565b91508181835260208401935060208101905083856020840282011115611bce57600080fd5b60005b83811015611bfe5781611be48882611f52565b845260208401935060208301925050600181019050611bd1565b5050505092915050565b600081519050611c1781612b76565b92915050565b600081359050611c2c81612b8d565b92915050565b60008083601f840112611c4457600080fd5b8235905067ffffffffffffffff811115611c5d57600080fd5b602083019150836001820283011115611c7557600080fd5b9250929050565b600060e08284031215611c8e57600080fd5b611c9860e06128ad565b90506000611ca884828501611a55565b6000830152506020611cbc84828501611a55565b6020830152506040611cd084828501611f7c565b6040830152506060611ce484828501611f67565b6060830152506080611cf884828501611f67565b60808301525060a0611d0c84828501611f67565b60a08301525060c0611d2084828501611f3d565b60c08301525092915050565b60006102a08284031215611d3f57600080fd5b611d4a6102a06128ad565b90506000611d5a84828501611a55565b6000830152506020611d6e84828501611a55565b6020830152506040611d8284828501611a55565b6040830152506060611d9684828501611a55565b6060830152506080611daa84828501611a55565b60808301525060a0611dbe84828501611f67565b60a08301525060c0611dd284828501611f67565b60c08301525060e0611de684828501611f67565b60e083015250610100611dfb84828501611f67565b61010083015250610120611e1184828501611f67565b61012083015250610140611e2784828501611f67565b61014083015250610160611e3d84828501611f67565b61016083015250610180611e5384828501611f67565b610180830152506101a0611e6984828501611f67565b6101a0830152506101c0611e7f84828501611f67565b6101c0830152506101e0611e9584828501611f67565b6101e083015250610200611eab84828501611f67565b61020083015250610220611ec184828501611f28565b61022083015250610240611ed784828501611f28565b61024083015250610260611eed84828501611f28565b6102608301525061028082015167ffffffffffffffff811115611f0f57600080fd5b611f1b84828501611b02565b6102808301525092915050565b600081519050611f3781612ba4565b92915050565b600081519050611f4c81612bbb565b92915050565b600081519050611f6181612bd2565b92915050565b600081519050611f7681612be9565b92915050565b600081519050611f8b81612c00565b92915050565b60008060408385031215611fa457600080fd5b6000611fb285828601611a6a565b9250506020611fc385828601611f52565b9150509250929050565b60008060008060608587031215611fe357600080fd5b6000611ff187828801611a40565b945050602061200287828801611c1d565b935050604085013567ffffffffffffffff81111561201f57600080fd5b61202b87828801611c32565b925092505092959194509250565b60008060008060006060868803121561205157600080fd5b600061205f88828901611a40565b955050602086013567ffffffffffffffff81111561207c57600080fd5b61208888828901611c32565b9450945050604086013567ffffffffffffffff8111156120a757600080fd5b6120b388828901611c32565b92509250509295509295909350565b6000602082840312156120d457600080fd5b600082015167ffffffffffffffff8111156120ee57600080fd5b6120fa84828501611a7f565b91505092915050565b60008060006060848603121561211857600080fd5b600084015167ffffffffffffffff81111561213257600080fd5b61213e86828701611a7f565b935050602084015167ffffffffffffffff81111561215b57600080fd5b61216786828701611b85565b925050604084015167ffffffffffffffff81111561218457600080fd5b61219086828701611a7f565b9150509250925092565b6000602082840312156121ac57600080fd5b60006121ba84828501611c08565b91505092915050565b6000602082840312156121d557600080fd5b600082015167ffffffffffffffff8111156121ef57600080fd5b6121fb84828501611d2c565b91505092915050565b60006020828403121561221657600080fd5b600061222484828501611f52565b91505092915050565b6000612239838361225d565b60208301905092915050565b600061225183836125e6565b60208301905092915050565b612266816129f6565b82525050565b612275816129f6565b82525050565b600061228682612972565b61229081856129b8565b935061229b83612952565b8060005b838110156122cc5781516122b3888261222d565b97506122be8361299e565b92505060018101905061229f565b5085935050505092915050565b60006122e48261297d565b6122ee81856129c9565b93506122f983612962565b8060005b8381101561232a5781516123118882612245565b975061231c836129ab565b9250506001810190506122fd565b5085935050505092915050565b61234081612a1a565b82525050565b61234f81612a26565b82525050565b600061236082612988565b61236a81856129da565b935061237a818560208601612af7565b80840191505092915050565b61238f81612ae5565b82525050565b60006123a082612993565b6123aa81856129e5565b93506123ba818560208601612af7565b6123c381612b2a565b840191505092915050565b60006123db601e836129e5565b91507f536166654d6174683a207375627472616374696f6e206f766572666c6f7700006000830152602082019050919050565b600061241b6026836129e5565b91507f416464726573733a20696e73756666696369656e742062616c616e636520666f60008301527f722063616c6c00000000000000000000000000000000000000000000000000006020830152604082019050919050565b6000612481601d836129e5565b91507f416464726573733a2063616c6c20746f206e6f6e2d636f6e74726163740000006000830152602082019050919050565b60006124c1602a836129e5565b91507f5361666545524332303a204552433230206f7065726174696f6e20646964206e60008301527f6f742073756363656564000000000000000000000000000000000000000000006020830152604082019050919050565b60006125276036836129e5565b91507f5361666545524332303a20617070726f76652066726f6d206e6f6e2d7a65726f60008301527f20746f206e6f6e2d7a65726f20616c6c6f77616e6365000000000000000000006020830152604082019050919050565b600061258d6027836129e5565b91507f7061727365417373657473466f72416374696f6e3a205f73656c6563746f722060008301527f696e76616c6964000000000000000000000000000000000000000000000000006020830152604082019050919050565b6125ef81612aba565b82525050565b6125fe81612aba565b82525050565b60006126108284612355565b915081905092915050565b6000602082019050612630600083018461226c565b92915050565b600060408201905061264b600083018561226c565b612658602083018461226c565b9392505050565b6000606082019050612674600083018661226c565b612681602083018561226c565b61268e6040830184612337565b949350505050565b60006060820190506126ab600083018661226c565b6126b8602083018561226c565b6126c560408301846125f5565b949350505050565b60006040820190506126e2600083018561226c565b6126ef60208301846125f5565b9392505050565b60006020820190508181036000830152612710818461227b565b905092915050565b600060208201905061272d6000830184612346565b92915050565b600060a0820190506127486000830188612386565b818103602083015261275a818761227b565b9050818103604083015261276e81866122d9565b90508181036060830152612782818561227b565b9050818103608083015261279681846122d9565b90509695505050505050565b600060208201905081810360008301526127bc8184612395565b905092915050565b600060208201905081810360008301526127dd816123ce565b9050919050565b600060208201905081810360008301526127fd8161240e565b9050919050565b6000602082019050818103600083015261281d81612474565b9050919050565b6000602082019050818103600083015261283d816124b4565b9050919050565b6000602082019050818103600083015261285d8161251a565b9050919050565b6000602082019050818103600083015261287d81612580565b9050919050565b600060408201905061289960008301856125f5565b6128a6602083018461226c565b9392505050565b6000604051905081810181811067ffffffffffffffff821117156128d057600080fd5b8060405250919050565b600067ffffffffffffffff8211156128f157600080fd5b602082029050602081019050919050565b600067ffffffffffffffff82111561291957600080fd5b602082029050602081019050919050565b600067ffffffffffffffff82111561294157600080fd5b602082029050602081019050919050565b6000819050602082019050919050565b6000819050602082019050919050565b600081519050919050565b600081519050919050565b600081519050919050565b600081519050919050565b6000602082019050919050565b6000602082019050919050565b600082825260208201905092915050565b600082825260208201905092915050565b600081905092915050565b600082825260208201905092915050565b6000612a0182612a9a565b9050919050565b6000612a1382612a9a565b9050919050565b60008115159050919050565b60007fffffffff0000000000000000000000000000000000000000000000000000000082169050919050565b6000819050612a6082612b3b565b919050565b60006cffffffffffffffffffffffffff82169050919050565b60006fffffffffffffffffffffffffffffffff82169050919050565b600073ffffffffffffffffffffffffffffffffffffffff82169050919050565b6000819050919050565b600067ffffffffffffffff82169050919050565b600060ff82169050919050565b6000612af082612a52565b9050919050565b60005b83811015612b15578082015181840152602081019050612afa565b83811115612b24576000848401525b50505050565b6000601f19601f8301169050919050565b60038110612b4557fe5b50565b612b51816129f6565b8114612b5c57600080fd5b50565b612b6881612a08565b8114612b7357600080fd5b50565b612b7f81612a1a565b8114612b8a57600080fd5b50565b612b9681612a26565b8114612ba157600080fd5b50565b612bad81612a65565b8114612bb857600080fd5b50565b612bc481612a7e565b8114612bcf57600080fd5b50565b612bdb81612aba565b8114612be657600080fd5b50565b612bf281612ac4565b8114612bfd57600080fd5b50565b612c0981612ad8565b8114612c1457600080fd5b5056fea164736f6c634300060c000a","linkReferences":{}},"methodIdentifiers":{"CLAIM_REWARDS_SELECTOR()":"40da225d","LEND_AND_STAKE_SELECTOR()":"131461c0","LEND_SELECTOR()":"257cb1a3","REDEEM_SELECTOR()":"f7d882b5","STAKE_SELECTOR()":"3ffc1591","TAKE_MULTIPLE_ORDERS_SELECTOR()":"c32990a2","TAKE_ORDER_SELECTOR()":"863e5ad0","UNSTAKE_AND_REDEEM_SELECTOR()":"080456c1","UNSTAKE_SELECTOR()":"b23228cf","claimRewards(address,bytes,bytes)":"b9dfbacc","getIntegrationManager()":"e7c45690","lend(address,bytes,bytes)":"099f7515","parseAssetsForAction(address,bytes4,bytes)":"c54efee5","redeem(address,bytes,bytes)":"c29fa9dd"},"id":211}