{"abi":[{"type":"constructor","inputs":[{"name":"_dispatcher","type":"address","internalType":"address"},{"name":"_protocolFeeReserve","type":"address","internalType":"address"},{"name":"_fundDeployer","type":"address","internalType":"address"},{"name":"_valueInterpreter","type":"address","internalType":"address"},{"name":"_externalPositionManager","type":"address","internalType":"address"},{"name":"_feeManager","type":"address","internalType":"address"},{"name":"_integrationManager","type":"address","internalType":"address"},{"name":"_policyManager","type":"address","internalType":"address"},{"name":"_gasRelayPaymasterFactory","type":"address","internalType":"address"},{"name":"_mlnToken","type":"address","internalType":"address"},{"name":"_wethToken","type":"address","internalType":"address"}],"stateMutability":"nonpayable"},{"type":"function","name":"activate","inputs":[{"name":"_isMigration","type":"bool","internalType":"bool"}],"outputs":[],"stateMutability":"nonpayable"},{"type":"function","name":"buyBackProtocolFeeShares","inputs":[{"name":"_sharesAmount","type":"uint256","internalType":"uint256"}],"outputs":[],"stateMutability":"nonpayable"},{"type":"function","name":"buyShares","inputs":[{"name":"_investmentAmount","type":"uint256","internalType":"uint256"},{"name":"_minSharesQuantity","type":"uint256","internalType":"uint256"}],"outputs":[{"name":"sharesReceived_","type":"uint256","internalType":"uint256"}],"stateMutability":"nonpayable"},{"type":"function","name":"buySharesOnBehalf","inputs":[{"name":"_buyer","type":"address","internalType":"address"},{"name":"_investmentAmount","type":"uint256","internalType":"uint256"},{"name":"_minSharesQuantity","type":"uint256","internalType":"uint256"}],"outputs":[{"name":"sharesReceived_","type":"uint256","internalType":"uint256"}],"stateMutability":"nonpayable"},{"type":"function","name":"calcGav","inputs":[],"outputs":[{"name":"gav_","type":"uint256","internalType":"uint256"}],"stateMutability":"nonpayable"},{"type":"function","name":"calcGrossShareValue","inputs":[],"outputs":[{"name":"grossShareValue_","type":"uint256","internalType":"uint256"}],"stateMutability":"nonpayable"},{"type":"function","name":"callOnExtension","inputs":[{"name":"_extension","type":"address","internalType":"address"},{"name":"_actionId","type":"uint256","internalType":"uint256"},{"name":"_callArgs","type":"bytes","internalType":"bytes"}],"outputs":[],"stateMutability":"nonpayable"},{"type":"function","name":"deployGasRelayPaymaster","inputs":[],"outputs":[],"stateMutability":"nonpayable"},{"type":"function","name":"depositToGasRelayPaymaster","inputs":[],"outputs":[],"stateMutability":"nonpayable"},{"type":"function","name":"destructActivated","inputs":[{"name":"_deactivateFeeManagerGasLimit","type":"uint256","internalType":"uint256"},{"name":"_payProtocolFeeGasLimit","type":"uint256","internalType":"uint256"}],"outputs":[],"stateMutability":"nonpayable"},{"type":"function","name":"destructUnactivated","inputs":[],"outputs":[],"stateMutability":"nonpayable"},{"type":"function","name":"doesAutoProtocolFeeSharesBuyback","inputs":[],"outputs":[{"name":"doesAutoBuyback_","type":"bool","internalType":"bool"}],"stateMutability":"view"},{"type":"function","name":"getDenominationAsset","inputs":[],"outputs":[{"name":"denominationAsset_","type":"address","internalType":"address"}],"stateMutability":"view"},{"type":"function","name":"getDispatcher","inputs":[],"outputs":[{"name":"dispatcher_","type":"address","internalType":"address"}],"stateMutability":"view"},{"type":"function","name":"getExternalPositionManager","inputs":[],"outputs":[{"name":"externalPositionManager_","type":"address","internalType":"address"}],"stateMutability":"view"},{"type":"function","name":"getFeeManager","inputs":[],"outputs":[{"name":"feeManager_","type":"address","internalType":"address"}],"stateMutability":"view"},{"type":"function","name":"getFundDeployer","inputs":[],"outputs":[{"name":"fundDeployer_","type":"address","internalType":"address"}],"stateMutability":"view"},{"type":"function","name":"getGasRelayPaymaster","inputs":[],"outputs":[{"name":"gasRelayPaymaster_","type":"address","internalType":"address"}],"stateMutability":"view"},{"type":"function","name":"getGasRelayPaymasterFactory","inputs":[],"outputs":[{"name":"gasRelayPaymasterFactory_","type":"address","internalType":"address"}],"stateMutability":"view"},{"type":"function","name":"getGasRelayTrustedForwarder","inputs":[],"outputs":[{"name":"trustedForwarder_","type":"address","internalType":"address"}],"stateMutability":"view"},{"type":"function","name":"getIntegrationManager","inputs":[],"outputs":[{"name":"integrationManager_","type":"address","internalType":"address"}],"stateMutability":"view"},{"type":"function","name":"getLastSharesBoughtTimestampForAccount","inputs":[{"name":"_who","type":"address","internalType":"address"}],"outputs":[{"name":"lastSharesBoughtTimestamp_","type":"uint256","internalType":"uint256"}],"stateMutability":"view"},{"type":"function","name":"getMlnToken","inputs":[],"outputs":[{"name":"mlnToken_","type":"address","internalType":"address"}],"stateMutability":"view"},{"type":"function","name":"getPolicyManager","inputs":[],"outputs":[{"name":"policyManager_","type":"address","internalType":"address"}],"stateMutability":"view"},{"type":"function","name":"getProtocolFeeReserve","inputs":[],"outputs":[{"name":"protocolFeeReserve_","type":"address","internalType":"address"}],"stateMutability":"view"},{"type":"function","name":"getSharesActionTimelock","inputs":[],"outputs":[{"name":"sharesActionTimelock_","type":"uint256","internalType":"uint256"}],"stateMutability":"view"},{"type":"function","name":"getValueInterpreter","inputs":[],"outputs":[{"name":"valueInterpreter_","type":"address","internalType":"address"}],"stateMutability":"view"},{"type":"function","name":"getVaultProxy","inputs":[],"outputs":[{"name":"vaultProxy_","type":"address","internalType":"address"}],"stateMutability":"view"},{"type":"function","name":"getWethToken","inputs":[],"outputs":[{"name":"wethToken_","type":"address","internalType":"address"}],"stateMutability":"view"},{"type":"function","name":"init","inputs":[{"name":"_denominationAsset","type":"address","internalType":"address"},{"name":"_sharesActionTimelock","type":"uint256","internalType":"uint256"}],"outputs":[],"stateMutability":"nonpayable"},{"type":"function","name":"permissionedVaultAction","inputs":[{"name":"_action","type":"uint8","internalType":"enum IVault.VaultAction"},{"name":"_actionData","type":"bytes","internalType":"bytes"}],"outputs":[],"stateMutability":"nonpayable"},{"type":"function","name":"preTransferSharesHook","inputs":[{"name":"_sender","type":"address","internalType":"address"},{"name":"_recipient","type":"address","internalType":"address"},{"name":"_amount","type":"uint256","internalType":"uint256"}],"outputs":[],"stateMutability":"nonpayable"},{"type":"function","name":"preTransferSharesHookFreelyTransferable","inputs":[{"name":"_sender","type":"address","internalType":"address"}],"outputs":[],"stateMutability":"view"},{"type":"function","name":"pullWethForGasRelayer","inputs":[{"name":"_amount","type":"uint256","internalType":"uint256"}],"outputs":[],"stateMutability":"nonpayable"},{"type":"function","name":"redeemSharesForSpecificAssets","inputs":[{"name":"_recipient","type":"address","internalType":"address"},{"name":"_sharesQuantity","type":"uint256","internalType":"uint256"},{"name":"_payoutAssets","type":"address[]","internalType":"address[]"},{"name":"_payoutAssetPercentages","type":"uint256[]","internalType":"uint256[]"}],"outputs":[{"name":"payoutAmounts_","type":"uint256[]","internalType":"uint256[]"}],"stateMutability":"nonpayable"},{"type":"function","name":"redeemSharesInKind","inputs":[{"name":"_recipient","type":"address","internalType":"address"},{"name":"_sharesQuantity","type":"uint256","internalType":"uint256"},{"name":"_additionalAssets","type":"address[]","internalType":"address[]"},{"name":"_assetsToSkip","type":"address[]","internalType":"address[]"}],"outputs":[{"name":"payoutAssets_","type":"address[]","internalType":"address[]"},{"name":"payoutAmounts_","type":"uint256[]","internalType":"uint256[]"}],"stateMutability":"nonpayable"},{"type":"function","name":"setAutoProtocolFeeSharesBuyback","inputs":[{"name":"_nextAutoProtocolFeeSharesBuyback","type":"bool","internalType":"bool"}],"outputs":[],"stateMutability":"nonpayable"},{"type":"function","name":"setGasRelayPaymaster","inputs":[{"name":"_nextGasRelayPaymaster","type":"address","internalType":"address"}],"outputs":[],"stateMutability":"nonpayable"},{"type":"function","name":"setVaultProxy","inputs":[{"name":"_vaultProxy","type":"address","internalType":"address"}],"outputs":[],"stateMutability":"nonpayable"},{"type":"function","name":"shutdownGasRelayPaymaster","inputs":[],"outputs":[],"stateMutability":"nonpayable"},{"type":"function","name":"vaultCallOnContract","inputs":[{"name":"_contract","type":"address","internalType":"address"},{"name":"_selector","type":"bytes4","internalType":"bytes4"},{"name":"_encodedArgs","type":"bytes","internalType":"bytes"}],"outputs":[{"name":"returnData_","type":"bytes","internalType":"bytes"}],"stateMutability":"nonpayable"},{"type":"event","name":"AutoProtocolFeeSharesBuybackSet","inputs":[{"name":"autoProtocolFeeSharesBuyback","type":"bool","indexed":false,"internalType":"bool"}],"anonymous":false},{"type":"event","name":"BuyBackMaxProtocolFeeSharesFailed","inputs":[{"name":"failureReturnData","type":"bytes","indexed":true,"internalType":"bytes"},{"name":"sharesAmount","type":"uint256","indexed":false,"internalType":"uint256"},{"name":"buybackValueInMln","type":"uint256","indexed":false,"internalType":"uint256"},{"name":"gav","type":"uint256","indexed":false,"internalType":"uint256"}],"anonymous":false},{"type":"event","name":"DeactivateFeeManagerFailed","inputs":[],"anonymous":false},{"type":"event","name":"GasRelayPaymasterSet","inputs":[{"name":"gasRelayPaymaster","type":"address","indexed":false,"internalType":"address"}],"anonymous":false},{"type":"event","name":"MigratedSharesDuePaid","inputs":[{"name":"sharesDue","type":"uint256","indexed":false,"internalType":"uint256"}],"anonymous":false},{"type":"event","name":"PayProtocolFeeDuringDestructFailed","inputs":[],"anonymous":false},{"type":"event","name":"PreRedeemSharesHookFailed","inputs":[{"name":"failureReturnData","type":"bytes","indexed":true,"internalType":"bytes"},{"name":"redeemer","type":"address","indexed":true,"internalType":"address"},{"name":"sharesAmount","type":"uint256","indexed":false,"internalType":"uint256"}],"anonymous":false},{"type":"event","name":"RedeemSharesInKindCalcGavFailed","inputs":[],"anonymous":false},{"type":"event","name":"SharesBought","inputs":[{"name":"buyer","type":"address","indexed":true,"internalType":"address"},{"name":"investmentAmount","type":"uint256","indexed":false,"internalType":"uint256"},{"name":"sharesIssued","type":"uint256","indexed":false,"internalType":"uint256"},{"name":"sharesReceived","type":"uint256","indexed":false,"internalType":"uint256"}],"anonymous":false},{"type":"event","name":"SharesRedeemed","inputs":[{"name":"redeemer","type":"address","indexed":true,"internalType":"address"},{"name":"recipient","type":"address","indexed":true,"internalType":"address"},{"name":"sharesAmount","type":"uint256","indexed":false,"internalType":"uint256"},{"name":"receivedAssets","type":"address[]","indexed":false,"internalType":"address[]"},{"name":"receivedAssetAmounts","type":"uint256[]","indexed":false,"internalType":"uint256[]"}],"anonymous":false},{"type":"event","name":"VaultProxySet","inputs":[{"name":"vaultProxy","type":"address","indexed":false,"internalType":"address"}],"anonymous":false}],"bytecode":{"object":"0x6101e06040523480156200001257600080fd5b5060405162007e4238038062007e4283398181016040526101608110156200003957600080fd5b810190808051906020019092919080519060200190929190805190602001909291908051906020019092919080519060200190929190805190602001909291908051906020019092919080519060200190929190805190602001909291908051906020019092919080519060200190929190505050828073ffffffffffffffffffffffffffffffffffffffff1660808173ffffffffffffffffffffffffffffffffffffffff1660601b81525050508a73ffffffffffffffffffffffffffffffffffffffff1660a08173ffffffffffffffffffffffffffffffffffffffff1660601b815250508673ffffffffffffffffffffffffffffffffffffffff1660c08173ffffffffffffffffffffffffffffffffffffffff1660601b815250508573ffffffffffffffffffffffffffffffffffffffff166101008173ffffffffffffffffffffffffffffffffffffffff1660601b815250508873ffffffffffffffffffffffffffffffffffffffff1660e08173ffffffffffffffffffffffffffffffffffffffff1660601b815250508473ffffffffffffffffffffffffffffffffffffffff166101208173ffffffffffffffffffffffffffffffffffffffff1660601b815250508173ffffffffffffffffffffffffffffffffffffffff166101408173ffffffffffffffffffffffffffffffffffffffff1660601b815250508373ffffffffffffffffffffffffffffffffffffffff166101608173ffffffffffffffffffffffffffffffffffffffff1660601b815250508973ffffffffffffffffffffffffffffffffffffffff166101808173ffffffffffffffffffffffffffffffffffffffff1660601b815250508773ffffffffffffffffffffffffffffffffffffffff166101a08173ffffffffffffffffffffffffffffffffffffffff1660601b815250508073ffffffffffffffffffffffffffffffffffffffff166101c08173ffffffffffffffffffffffffffffffffffffffff1660601b8152505060018060146101000a81548160ff021916908315150217905550505050505050505050505060805160601c60a05160601c60c05160601c60e05160601c6101005160601c6101205160601c6101405160601c6101605160601c6101805160601c6101a05160601c6101c05160601c617a6c620003d660003980611ac6525080612a725250806133e05250806133b8525080613b76525080613b9e525080613bee525080612d73525080612f95525080613bc6525080612db25250617a6c6000f3fe608060405234801561001057600080fd5b50600436106102535760003560e01c8063a01fd15711610146578063db69681f116100c3578063e7c4569011610087578063e7c4569014610dba578063ebb3d58914610dee578063f2d6382614610e22578063f9005af314610e56578063f9d5fe7814610e60578063faf9096b14610ea457610253565b8063db69681f14610c03578063e269c3d614610c0d578063e53a73b914610c41578063e572ced114610c4b578063e70e605e14610d8657610253565b8063c98091871161010a578063c980918714610b19578063ce5e84a314610b4d578063d44ad6cb14610b7d578063da41962e14610bb1578063da72503c14610be557610253565b8063a01fd15714610a17578063ac25945614610a37578063b10ea2b014610a6b578063b3fc38e914610a99578063beebc5da14610acd57610253565b80636af8e7eb116101d45780637f20170d116101985780637f20170d146108b3578063875fb4b31461090b578063877fd8941461093f57806392b575b6146109ab57806397c0ac87146109e357610253565b80636af8e7eb1461066e5780636ea2114314610803578063716d4da41461083757806373eecf471461084157806379951f0f1461088557610253565b8063399ae7241161021b578063399ae7241461050d57806339bf70d11461055b5780634c252f91146105fe5780634da471b71461063257806356cff99f1461065057610253565b806310acd06d1461025857806312f20526146102de5780632dc7a3a01461034c5780633462fcc11461037c578063397bfe55146104c9575b600080fd5b6102dc6004803603604081101561026e57600080fd5b81019080803560ff1690602001909291908035906020019064010000000081111561029857600080fd5b8201836020820111156102aa57600080fd5b803590602001918460018302840111640100000000831117156102cc57600080fd5b9091929391929390505050610ed8565b005b61034a600480360360608110156102f457600080fd5b81019080803573ffffffffffffffffffffffffffffffffffffffff169060200190929190803573ffffffffffffffffffffffffffffffffffffffff1690602001909291908035906020019092919050505061107a565b005b61037a6004803603602081101561036257600080fd5b8101908080351515906020019092919050505061127e565b005b6104726004803603608081101561039257600080fd5b81019080803573ffffffffffffffffffffffffffffffffffffffff16906020019092919080359060200190929190803590602001906401000000008111156103d957600080fd5b8201836020820111156103eb57600080fd5b8035906020019184602083028401116401000000008311171561040d57600080fd5b90919293919293908035906020019064010000000081111561042e57600080fd5b82018360208201111561044057600080fd5b8035906020019184602083028401116401000000008311171561046257600080fd5b90919293919293905050506112e4565b6040518080602001828103825283818151815260200191508051906020019060200280838360005b838110156104b557808201518184015260208101905061049a565b505050509050019250505060405180910390f35b61050b600480360360208110156104df57600080fd5b81019080803573ffffffffffffffffffffffffffffffffffffffff1690602001909291905050506115d1565b005b6105596004803603604081101561052357600080fd5b81019080803573ffffffffffffffffffffffffffffffffffffffff1690602001909291908035906020019092919050505061166a565b005b6105fc6004803603606081101561057157600080fd5b81019080803573ffffffffffffffffffffffffffffffffffffffff16906020019092919080359060200190929190803590602001906401000000008111156105b857600080fd5b8201836020820111156105ca57600080fd5b803590602001918460018302840111640100000000831117156105ec57600080fd5b9091929391929390505050611879565b005b610606611ac2565b604051808273ffffffffffffffffffffffffffffffffffffffff16815260200191505060405180910390f35b61063a611aea565b6040518082815260200191505060405180910390f35b610658611af4565b6040518082815260200191505060405180910390f35b6107646004803603608081101561068457600080fd5b81019080803573ffffffffffffffffffffffffffffffffffffffff16906020019092919080359060200190929190803590602001906401000000008111156106cb57600080fd5b8201836020820111156106dd57600080fd5b803590602001918460208302840111640100000000831117156106ff57600080fd5b90919293919293908035906020019064010000000081111561072057600080fd5b82018360208201111561073257600080fd5b8035906020019184602083028401116401000000008311171561075457600080fd5b909192939192939050505061203e565b604051808060200180602001838103835285818151815260200191508051906020019060200280838360005b838110156107ab578082015181840152602081019050610790565b50505050905001838103825284818151815260200191508051906020019060200280838360005b838110156107ed5780820151818401526020810190506107d2565b5050505090500194505050505060405180910390f35b61080b612819565b604051808273ffffffffffffffffffffffffffffffffffffffff16815260200191505060405180910390f35b61083f612928565b005b6108836004803603602081101561085757600080fd5b81019080803573ffffffffffffffffffffffffffffffffffffffff16906020019092919050505061294a565b005b6108b16004803603602081101561089b57600080fd5b810190808035906020019092919050505061295e565b005b6108f5600480360360208110156108c957600080fd5b81019080803573ffffffffffffffffffffffffffffffffffffffff169060200190929190505050612a25565b6040518082815260200191505060405180910390f35b610913612a6e565b604051808273ffffffffffffffffffffffffffffffffffffffff16815260200191505060405180910390f35b6109956004803603606081101561095557600080fd5b81019080803573ffffffffffffffffffffffffffffffffffffffff1690602001909291908035906020019092919080359060200190929190505050612a96565b6040518082815260200191505060405180910390f35b6109e1600480360360408110156109c157600080fd5b810190808035906020019092919080359060200190929190505050612bee565b005b6109eb612d6f565b604051808273ffffffffffffffffffffffffffffffffffffffff16815260200191505060405180910390f35b610a1f612d97565b60405180821515815260200191505060405180910390f35b610a3f612dae565b604051808273ffffffffffffffffffffffffffffffffffffffff16815260200191505060405180910390f35b610a9760048036036020811015610a8157600080fd5b8101908080359060200190929190505050612dd6565b005b610aa1612f91565b604051808273ffffffffffffffffffffffffffffffffffffffff16815260200191505060405180910390f35b610b0360048036036040811015610ae357600080fd5b810190808035906020019092919080359060200190929190505050612fb9565b6040518082815260200191505060405180910390f35b610b21612fec565b604051808273ffffffffffffffffffffffffffffffffffffffff16815260200191505060405180910390f35b610b7b60048036036020811015610b6357600080fd5b81019080803515159060200190929190505050613016565b005b610b856133b4565b604051808273ffffffffffffffffffffffffffffffffffffffff16815260200191505060405180910390f35b610bb96133dc565b604051808273ffffffffffffffffffffffffffffffffffffffff16815260200191505060405180910390f35b610bed613404565b6040518082815260200191505060405180910390f35b610c0b613536565b005b610c1561378e565b604051808273ffffffffffffffffffffffffffffffffffffffff16815260200191505060405180910390f35b610c496137b7565b005b610d0b60048036036060811015610c6157600080fd5b81019080803573ffffffffffffffffffffffffffffffffffffffff16906020019092919080357bffffffffffffffffffffffffffffffffffffffffffffffffffffffff1916906020019092919080359060200190640100000000811115610cc757600080fd5b820183602082011115610cd957600080fd5b80359060200191846001830284011164010000000083111715610cfb57600080fd5b90919293919293905050506137c9565b6040518080602001828103825283818151815260200191508051906020019080838360005b83811015610d4b578082015181840152602081019050610d30565b50505050905090810190601f168015610d785780820380516001836020036101000a031916815260200191505b509250505060405180910390f35b610d8e613b72565b604051808273ffffffffffffffffffffffffffffffffffffffff16815260200191505060405180910390f35b610dc2613b9a565b604051808273ffffffffffffffffffffffffffffffffffffffff16815260200191505060405180910390f35b610df6613bc2565b604051808273ffffffffffffffffffffffffffffffffffffffff16815260200191505060405180910390f35b610e2a613bea565b604051808273ffffffffffffffffffffffffffffffffffffffff16815260200191505060405180910390f35b610e5e613c12565b005b610ea260048036036020811015610e7657600080fd5b81019080803573ffffffffffffffffffffffffffffffffffffffff169060200190929190505050613dbc565b005b610eac613dd0565b604051808273ffffffffffffffffffffffffffffffffffffffff16815260200191505060405180910390f35b610ee23384613dfa565b6006600a811115610eef57fe5b83600a811115610efb57fe5b1415610fc457610f0961378e565b73ffffffffffffffffffffffffffffffffffffffff1682826020811015610f2f57600080fd5b81019080803573ffffffffffffffffffffffffffffffffffffffff16906020019092919050505073ffffffffffffffffffffffffffffffffffffffff161415610fc3576040517f08c379a000000000000000000000000000000000000000000000000000000000815260040180806020018281038252603a8152602001806179a6603a913960400191505060405180910390fd5b5b610fcc612fec565b73ffffffffffffffffffffffffffffffffffffffff166324e600128484846040518463ffffffff1660e01b81526004018084600a81111561100957fe5b8152602001806020018281038252848482818152602001925080828437600081840152601f19601f820116905080830192505050945050505050600060405180830381600087803b15801561105d57600080fd5b505af1158015611071573d6000803e3d6000fd5b50505050505050565b6000611084612fec565b90508073ffffffffffffffffffffffffffffffffffffffff163373ffffffffffffffffffffffffffffffffffffffff161461110a576040517f08c379a000000000000000000000000000000000000000000000000000000000815260040180806020018281038252602f815260200180617951602f913960400191505060405180910390fd5b611114818561407d565b61111c6133b4565b73ffffffffffffffffffffffffffffffffffffffff16630442bad5306002878787604051602001808473ffffffffffffffffffffffffffffffffffffffff1681526020018373ffffffffffffffffffffffffffffffffffffffff16815260200182815260200193505050506040516020818303038152906040526040518463ffffffff1660e01b8152600401808473ffffffffffffffffffffffffffffffffffffffff1681526020018360098111156111d157fe5b815260200180602001828103825283818151815260200191508051906020019080838360005b838110156112125780820151818401526020810190506111f7565b50505050905090810190601f16801561123f5780820380516001836020036101000a031916815260200191505b50945050505050600060405180830381600087803b15801561126057600080fd5b505af1158015611274573d6000803e3d6000fd5b5050505050505050565b61128e611289614139565b61419d565b80600160156101000a81548160ff0219169083151502179055507f8ccd4cc3a51ed6f61f2b34b8d0a1ac137376931714380a7702b410ed174d6a738160405180821515815260200191505060405180910390a150565b60606112ee6142c8565b60018060176101000a81548160ff0219169083151502179055506000611312614139565b9050838390508686905014611372576040517f08c379a000000000000000000000000000000000000000000000000000000000815260040180806020018281038252602d815260200180617705602d913960400191505060405180910390fd5b6113bc868680806020026020016040519081016040528093929190818152602001838360200280828437600081840152601f19601f8201169050808301925050505050505061434d565b611411576040517f08c379a00000000000000000000000000000000000000000000000000000000081526004018080602001828103825260358152602001806177326035913960400191505060405180910390fd5b600061141b611af4565b90506000611427612fec565b905060008061143a83868d600188614410565b91509150611471838d8c8c8c8c61146c8861145e8b8e61480590919063ffffffff16565b61488b90919063ffffffff16565b614914565b95506114c2858d848d8d80806020026020016040519081016040528093929190818152602001838360200280828437600081840152601f19601f820116905080830192505050505050508a89614d15565b8b73ffffffffffffffffffffffffffffffffffffffff168573ffffffffffffffffffffffffffffffffffffffff167fbf88879a1555e4d7d38ebeffabce61fdf5e12ea0468abf855a72ec17b432bed5848d8d8b6040518085815260200180602001806020018381038352868682818152602001925060200280828437600081840152601f19601f820116905080830192505050838103825284818151815260200191508051906020019060200280838360005b83811015611590578082015181840152602081019050611575565b50505050905001965050505050505060405180910390a350505050506000600160176101000a81548160ff0219169083151502179055509695505050505050565b6115d9614f1b565b80600160006101000a81548173ffffffffffffffffffffffffffffffffffffffff021916908373ffffffffffffffffffffffffffffffffffffffff1602179055507f5be181178e61e61e33f79c396c7194b8f3c80f77899da7bd96fe537411300bcb81604051808273ffffffffffffffffffffffffffffffffffffffff16815260200191505060405180910390a150565b600073ffffffffffffffffffffffffffffffffffffffff1661168a61378e565b73ffffffffffffffffffffffffffffffffffffffff1614611713576040517f08c379a00000000000000000000000000000000000000000000000000000000081526004018080602001828103825260198152602001807f696e69743a20416c726561647920696e697469616c697a65640000000000000081525060200191505060405180910390fd5b61171b612a6e565b73ffffffffffffffffffffffffffffffffffffffff1663c496f8e8836040518263ffffffff1660e01b8152600401808273ffffffffffffffffffffffffffffffffffffffff16815260200191505060206040518083038186803b15801561178157600080fd5b505afa158015611795573d6000803e3d6000fd5b505050506040513d60208110156117ab57600080fd5b810190808051906020019092919050505061182e576040517f08c379a000000000000000000000000000000000000000000000000000000000815260040180806020018281038252601c8152602001807f696e69743a204261642064656e6f6d696e6174696f6e2061737365740000000081525060200191505060405180910390fd5b816000806101000a81548173ffffffffffffffffffffffffffffffffffffffff021916908373ffffffffffffffffffffffffffffffffffffffff160217905550806002819055505050565b6118816142c8565b60018060176101000a81548160ff0219169083151502179055506118a3614fc5565b60018060166101000a81548160ff0219169083151502179055506118c5613bea565b73ffffffffffffffffffffffffffffffffffffffff168473ffffffffffffffffffffffffffffffffffffffff1614806119305750611901613b9a565b73ffffffffffffffffffffffffffffffffffffffff168473ffffffffffffffffffffffffffffffffffffffff16145b8061196d575061193e612f91565b73ffffffffffffffffffffffffffffffffffffffff168473ffffffffffffffffffffffffffffffffffffffff16145b6119c2576040517f08c379a00000000000000000000000000000000000000000000000000000000081526004018080602001828103825260238152602001806178206023913960400191505060405180910390fd5b8373ffffffffffffffffffffffffffffffffffffffff16631bee801e6119e6614139565b8585856040518563ffffffff1660e01b8152600401808573ffffffffffffffffffffffffffffffffffffffff168152602001848152602001806020018281038252848482818152602001925080828437600081840152601f19601f82011690508083019250505095505050505050600060405180830381600087803b158015611a6e57600080fd5b505af1158015611a82573d6000803e3d6000fd5b505050506000600160166101000a81548160ff0219169083151502179055506000600160176101000a81548160ff02191690831515021790555050505050565b60007f0000000000000000000000000000000000000000000000000000000000000000905090565b6000600254905090565b600080611aff612fec565b905060608173ffffffffffffffffffffffffffffffffffffffff1663c4b973706040518163ffffffff1660e01b815260040160006040518083038186803b158015611b4957600080fd5b505afa158015611b5d573d6000803e3d6000fd5b505050506040513d6000823e3d601f19601f820116820180604052506020811015611b8757600080fd5b8101908080516040519392919084640100000000821115611ba757600080fd5b83820191506020820185811115611bbd57600080fd5b8251866020820283011164010000000082111715611bda57600080fd5b8083526020830192505050908051906020019060200280838360005b83811015611c11578082015181840152602081019050611bf6565b50505050905001604052505050905060608273ffffffffffffffffffffffffffffffffffffffff1663b8b7f1476040518163ffffffff1660e01b815260040160006040518083038186803b158015611c6857600080fd5b505afa158015611c7c573d6000803e3d6000fd5b505050506040513d6000823e3d601f19601f820116820180604052506020811015611ca657600080fd5b8101908080516040519392919084640100000000821115611cc657600080fd5b83820191506020820185811115611cdc57600080fd5b8251866020820283011164010000000082111715611cf957600080fd5b8083526020830192505050908051906020019060200280838360005b83811015611d30578082015181840152602081019050611d15565b50505050905001604052505050905060008251148015611d51575060008151145b15611d62576000935050505061203b565b6060825167ffffffffffffffff81118015611d7c57600080fd5b50604051908082528060200260200182016040528015611dab5781602001602082028036833780820191505090505b50905060005b8351811015611e9457838181518110611dc657fe5b602002602001015173ffffffffffffffffffffffffffffffffffffffff166370a08231866040518263ffffffff1660e01b8152600401808273ffffffffffffffffffffffffffffffffffffffff16815260200191505060206040518083038186803b158015611e3457600080fd5b505afa158015611e48573d6000803e3d6000fd5b505050506040513d6020811015611e5e57600080fd5b8101908080519060200190929190505050828281518110611e7b57fe5b6020026020010181815250508080600101915050611db1565b50611e9d612a6e565b73ffffffffffffffffffffffffffffffffffffffff1663ae6f52ad8483611ec261378e565b6040518463ffffffff1660e01b81526004018080602001806020018473ffffffffffffffffffffffffffffffffffffffff168152602001838103835286818151815260200191508051906020019060200280838360005b83811015611f34578082015181840152602081019050611f19565b50505050905001838103825285818151815260200191508051906020019060200280838360005b83811015611f76578082015181840152602081019050611f5b565b5050505090500195505050505050602060405180830381600087803b158015611f9e57600080fd5b505af1158015611fb2573d6000803e3d6000fd5b505050506040513d6020811015611fc857600080fd5b810190808051906020019092919050505094506000825111156120365760005b825181101561203457600061200f84838151811061200257fe5b602002602001015161504a565b9050612024818861567390919063ffffffff16565b9650508080600101915050611fe8565b505b505050505b90565b6060806120496142c8565b60018060176101000a81548160ff021916908315150217905550600061206d614139565b90506120b9878780806020026020016040519081016040528093929190818152602001838360200280828437600081840152601f19601f8201169050808301925050505050505061434d565b61210e576040517f08c379a00000000000000000000000000000000000000000000000000000000081526004018080602001828103825260398152602001806178436039913960400191505060405180910390fd5b612158858580806020026020016040519081016040528093929190818152602001838360200280828437600081840152601f19601f8201169050808301925050505050505061434d565b6121ad576040517f08c379a0000000000000000000000000000000000000000000000000000000008152600401808060200182810382526035815260200180617a2b6035913960400191505060405180910390fd5b612376600160009054906101000a900473ffffffffffffffffffffffffffffffffffffffff1673ffffffffffffffffffffffffffffffffffffffff1663c4b973706040518163ffffffff1660e01b815260040160006040518083038186803b15801561221857600080fd5b505afa15801561222c573d6000803e3d6000fd5b505050506040513d6000823e3d601f19601f82011682018060405250602081101561225657600080fd5b810190808051604051939291908464010000000082111561227657600080fd5b8382019150602082018581111561228c57600080fd5b82518660208202830111640100000000821117156122a957600080fd5b8083526020830192505050908051906020019060200280838360005b838110156122e05780820151818401526020810190506122c5565b50505050905001604052505050888880806020026020016040519081016040528093929190818152602001838360200280828437600081840152601f19601f82011690508083019250505050505050878780806020026020016040519081016040528093929190818152602001838360200280828437600081840152601f19601f820116905080830192505050505050506156fb565b92506000612382612d97565b1561243e573073ffffffffffffffffffffffffffffffffffffffff166356cff99f6040518163ffffffff1660e01b8152600401602060405180830381600087803b1580156123cf57600080fd5b505af192505050801561240357506040513d60208110156123ef57600080fd5b810190808051906020019092919050505060015b612438577ff5939ff9a66cf6d21ec93b246060bc17f5c062847e28d967d3dd617636b238d460405160405180910390a161243d565b809150505b5b600080612471600160009054906101000a900473ffffffffffffffffffffffffffffffffffffffff16858d600087614410565b91509150855167ffffffffffffffff8111801561248d57600080fd5b506040519080825280602002602001820160405280156124bc5781602001602082028036833780820191505090505b50945060005b86518110156126f7576125c6826125b8858a85815181106124df57fe5b602002602001015173ffffffffffffffffffffffffffffffffffffffff166370a08231600160009054906101000a900473ffffffffffffffffffffffffffffffffffffffff166040518263ffffffff1660e01b8152600401808273ffffffffffffffffffffffffffffffffffffffff16815260200191505060206040518083038186803b15801561256f57600080fd5b505afa158015612583573d6000803e3d6000fd5b505050506040513d602081101561259957600080fd5b810190808051906020019092919050505061480590919063ffffffff16565b61488b90919063ffffffff16565b8682815181106125d257fe5b60200260200101818152505060008682815181106125ec57fe5b602002602001015111156126ea57600160009054906101000a900473ffffffffffffffffffffffffffffffffffffffff1673ffffffffffffffffffffffffffffffffffffffff1663495d753c88838151811061264457fe5b60200260200101518f89858151811061265957fe5b60200260200101516040518463ffffffff1660e01b8152600401808473ffffffffffffffffffffffffffffffffffffffff1681526020018373ffffffffffffffffffffffffffffffffffffffff1681526020018281526020019350505050600060405180830381600087803b1580156126d157600080fd5b505af11580156126e5573d6000803e3d6000fd5b505050505b80806001019150506124c2565b508b73ffffffffffffffffffffffffffffffffffffffff168473ffffffffffffffffffffffffffffffffffffffff167fbf88879a1555e4d7d38ebeffabce61fdf5e12ea0468abf855a72ec17b432bed5848989604051808481526020018060200180602001838103835285818151815260200191508051906020019060200280838360005b8381101561279757808201518184015260208101905061277c565b50505050905001838103825284818151815260200191508051906020019060200280838360005b838110156127d95780820151818401526020810190506127be565b505050509050019550505050505060405180910390a3505050506000600160176101000a81548160ff021916908315150217905550965096945050505050565b6000612823612dae565b73ffffffffffffffffffffffffffffffffffffffff166398a7c4c76040518163ffffffff1660e01b815260040160206040518083038186803b15801561286857600080fd5b505afa15801561287c573d6000803e3d6000fd5b505050506040513d602081101561289257600080fd5b810190808051906020019092919050505073ffffffffffffffffffffffffffffffffffffffff16637da0a8776040518163ffffffff1660e01b815260040160206040518083038186803b1580156128e857600080fd5b505afa1580156128fc573d6000803e3d6000fd5b505050506040513d602081101561291257600080fd5b8101908080519060200190929190505050905090565b612938612933614139565b61419d565b612948612943613dd0565b61596c565b565b612952614f1b565b61295b816159cf565b50565b612966615a60565b61296e612fec565b73ffffffffffffffffffffffffffffffffffffffff1663495d753c612991611ac2565b612999613dd0565b846040518463ffffffff1660e01b8152600401808473ffffffffffffffffffffffffffffffffffffffff1681526020018373ffffffffffffffffffffffffffffffffffffffff1681526020018281526020019350505050600060405180830381600087803b158015612a0a57600080fd5b505af1158015612a1e573d6000803e3d6000fd5b5050505050565b6000600360008373ffffffffffffffffffffffffffffffffffffffff1673ffffffffffffffffffffffffffffffffffffffff168152602001908152602001600020549050919050565b60007f0000000000000000000000000000000000000000000000000000000000000000905090565b6000806000612aa3611aea565b1190506000612ab0614139565b9050811580612b645750612ac2612d6f565b73ffffffffffffffffffffffffffffffffffffffff166354391f09826040518263ffffffff1660e01b8152600401808273ffffffffffffffffffffffffffffffffffffffff16815260200191505060206040518083038186803b158015612b2857600080fd5b505afa158015612b3c573d6000803e3d6000fd5b505050506040513d6020811015612b5257600080fd5b81019080805190602001909291905050505b612bd6576040517f08c379a000000000000000000000000000000000000000000000000000000000815260040180806020018281038252601f8152602001807f6275795368617265734f6e426568616c663a20556e617574686f72697a65640081525060200191505060405180910390fd5b612be38686868585615aed565b925050509392505050565b612bf6614f1b565b612bfe614fc5565b60018060166101000a81548160ff021916908315150217905550612c20612fec565b73ffffffffffffffffffffffffffffffffffffffff1663d5c20fa2826040518263ffffffff1660e01b8152600401600060405180830381600088803b158015612c6857600080fd5b5087f193505050508015612c7a575060015b612caf577f8a7579328a911284dedef6a7e68bbb1eae7d59418f2699cb5a3c26f6e57e4d7760405160405180910390a1612cb0565b5b612cb8613bea565b73ffffffffffffffffffffffffffffffffffffffff1663bd8e959a836040518263ffffffff1660e01b8152600401600060405180830381600088803b158015612d0057600080fd5b5087f193505050508015612d12575060015b612d47577f681c534f5c2e473c9cc8ab1693257fb2b0e19a5c5ecd7d040201f1cf2a190c8760405160405180910390a1612d48565b5b612d5061612b565b6000600160166101000a81548160ff0219169083151502179055505050565b60007f0000000000000000000000000000000000000000000000000000000000000000905090565b6000600160159054906101000a900460ff16905090565b60007f0000000000000000000000000000000000000000000000000000000000000000905090565b6000600160009054906101000a900473ffffffffffffffffffffffffffffffffffffffff1690508073ffffffffffffffffffffffffffffffffffffffff1663714ca2d1612e21614139565b6040518263ffffffff1660e01b8152600401808273ffffffffffffffffffffffffffffffffffffffff16815260200191505060206040518083038186803b158015612e6b57600080fd5b505afa158015612e7f573d6000803e3d6000fd5b505050506040513d6020811015612e9557600080fd5b8101908080519060200190929190505050612efb576040517f08c379a00000000000000000000000000000000000000000000000000000000081526004018080602001828103825260268152602001806179806026913960400191505060405180910390fd5b6000612f05611af4565b90508173ffffffffffffffffffffffffffffffffffffffff16631ff46bfa84612f2f8587866161aa565b846040518463ffffffff1660e01b8152600401808481526020018381526020018281526020019350505050600060405180830381600087803b158015612f7457600080fd5b505af1158015612f88573d6000803e3d6000fd5b50505050505050565b60007f0000000000000000000000000000000000000000000000000000000000000000905090565b6000806000612fc6611aea565b1190506000612fd3614139565b9050612fe28186868585615aed565b9250505092915050565b6000600160009054906101000a900473ffffffffffffffffffffffffffffffffffffffff16905090565b61301e614f1b565b6000613028612fec565b905081156132405760008173ffffffffffffffffffffffffffffffffffffffff166370a08231836040518263ffffffff1660e01b8152600401808273ffffffffffffffffffffffffffffffffffffffff16815260200191505060206040518083038186803b15801561309957600080fd5b505afa1580156130ad573d6000803e3d6000fd5b505050506040513d60208110156130c357600080fd5b81019080805190602001909291905050509050600081111561323e578173ffffffffffffffffffffffffffffffffffffffff1663bfc77beb838473ffffffffffffffffffffffffffffffffffffffff1663893d20e86040518163ffffffff1660e01b815260040160206040518083038186803b15801561314257600080fd5b505afa158015613156573d6000803e3d6000fd5b505050506040513d602081101561316c57600080fd5b8101908080519060200190929190505050846040518463ffffffff1660e01b8152600401808473ffffffffffffffffffffffffffffffffffffffff1681526020018373ffffffffffffffffffffffffffffffffffffffff1681526020018281526020019350505050600060405180830381600087803b1580156131ee57600080fd5b505af1158015613202573d6000803e3d6000fd5b505050507f8f9ec2c1cf1f95fcb5d89d3141949092850c5cfe04da4d9425dd840bf18cdc70816040518082815260200191505060405180910390a15b505b8073ffffffffffffffffffffffffffffffffffffffff16634ef0762e61326461378e565b6040518263ffffffff1660e01b8152600401808273ffffffffffffffffffffffffffffffffffffffff168152602001915050600060405180830381600087803b1580156132b057600080fd5b505af11580156132c4573d6000803e3d6000fd5b505050506132d0613bea565b73ffffffffffffffffffffffffffffffffffffffff166380d57063836040518263ffffffff1660e01b8152600401808215158152602001915050600060405180830381600087803b15801561332457600080fd5b505af1158015613338573d6000803e3d6000fd5b505050506133446133b4565b73ffffffffffffffffffffffffffffffffffffffff166380d57063836040518263ffffffff1660e01b8152600401808215158152602001915050600060405180830381600087803b15801561339857600080fd5b505af11580156133ac573d6000803e3d6000fd5b505050505050565b60007f0000000000000000000000000000000000000000000000000000000000000000905090565b60007f0000000000000000000000000000000000000000000000000000000000000000905090565b60008061340f611af4565b90506135308161341d612fec565b73ffffffffffffffffffffffffffffffffffffffff166318160ddd6040518163ffffffff1660e01b815260040160206040518083038186803b15801561346257600080fd5b505afa158015613476573d6000803e3d6000fd5b505050506040513d602081101561348c57600080fd5b81019080805190602001909291905050506134a561378e565b73ffffffffffffffffffffffffffffffffffffffff1663313ce5676040518163ffffffff1660e01b815260040160206040518083038186803b1580156134ea57600080fd5b505afa1580156134fe573d6000803e3d6000fd5b505050506040513d602081101561351457600080fd5b810190808051906020019092919050505060ff16600a0a6163e1565b91505090565b61353f3361419d565b600073ffffffffffffffffffffffffffffffffffffffff1661355f613dd0565b73ffffffffffffffffffffffffffffffffffffffff16146135cb576040517f08c379a00000000000000000000000000000000000000000000000000000000081526004018080602001828103825260338152602001806177ed6033913960400191505060405180910390fd5b60606135d5612fec565b604051602401808273ffffffffffffffffffffffffffffffffffffffff1681526020019150506040516020818303038152906040527f19ab453c000000000000000000000000000000000000000000000000000000007bffffffffffffffffffffffffffffffffffffffffffffffffffffffff19166020820180517bffffffffffffffffffffffffffffffffffffffffffffffffffffffff838183161783525050505090506000613684612dae565b73ffffffffffffffffffffffffffffffffffffffff16630c0872f5836040518263ffffffff1660e01b81526004018080602001828103825283818151815260200191508051906020019080838360005b838110156136ef5780820151818401526020810190506136d4565b50505050905090810190601f16801561371c5780820380516001836020036101000a031916815260200191505b5092505050602060405180830381600087803b15801561373b57600080fd5b505af115801561374f573d6000803e3d6000fd5b505050506040513d602081101561376557600080fd5b81019080805190602001909291905050509050613781816159cf565b61378a8161596c565b5050565b60008060009054906101000a900473ffffffffffffffffffffffffffffffffffffffff16905090565b6137bf614f1b565b6137c761612b565b565b60606137db6137d6614139565b61419d565b6137e3612d6f565b73ffffffffffffffffffffffffffffffffffffffff16638c500ea38686868660405180838380828437808301925050509250505060405180910390206040518463ffffffff1660e01b8152600401808473ffffffffffffffffffffffffffffffffffffffff168152602001837bffffffffffffffffffffffffffffffffffffffffffffffffffffffff19168152602001828152602001935050505060206040518083038186803b15801561389657600080fd5b505afa1580156138aa573d6000803e3d6000fd5b505050506040513d60208110156138c057600080fd5b8101908080519060200190929190505050613943576040517f08c379a00000000000000000000000000000000000000000000000000000000081526004018080602001828103825260208152602001807f7661756c7443616c6c4f6e436f6e74726163743a204e6f7420616c6c6f77656481525060200191505060405180910390fd5b61394b612fec565b73ffffffffffffffffffffffffffffffffffffffff1663a90cce4b8686868660405160200180847bffffffffffffffffffffffffffffffffffffffffffffffffffffffff191681526004018383808284378083019250505093505050506040516020818303038152906040526040518363ffffffff1660e01b8152600401808373ffffffffffffffffffffffffffffffffffffffff16815260200180602001828103825283818151815260200191508051906020019080838360005b83811015613a22578082015181840152602081019050613a07565b50505050905090810190601f168015613a4f5780820380516001836020036101000a031916815260200191505b509350505050600060405180830381600087803b158015613a6f57600080fd5b505af1158015613a83573d6000803e3d6000fd5b505050506040513d6000823e3d601f19601f820116820180604052506020811015613aad57600080fd5b8101908080516040519392919084640100000000821115613acd57600080fd5b83820191506020820185811115613ae357600080fd5b8251866001820283011164010000000082111715613b0057600080fd5b8083526020830192505050908051906020019080838360005b83811015613b34578082015181840152602081019050613b19565b50505050905090810190601f168015613b615780820380516001836020036101000a031916815260200191505b506040525050509050949350505050565b60007f0000000000000000000000000000000000000000000000000000000000000000905090565b60007f0000000000000000000000000000000000000000000000000000000000000000905090565b60007f0000000000000000000000000000000000000000000000000000000000000000905090565b60007f0000000000000000000000000000000000000000000000000000000000000000905090565b613c1b3361419d565b600460009054906101000a900473ffffffffffffffffffffffffffffffffffffffff1673ffffffffffffffffffffffffffffffffffffffff16635fd8c7106040518163ffffffff1660e01b8152600401600060405180830381600087803b158015613c8557600080fd5b505af1158015613c99573d6000803e3d6000fd5b50505050600160009054906101000a900473ffffffffffffffffffffffffffffffffffffffff1673ffffffffffffffffffffffffffffffffffffffff16634ef0762e613ce3611ac2565b6040518263ffffffff1660e01b8152600401808273ffffffffffffffffffffffffffffffffffffffff168152602001915050600060405180830381600087803b158015613d2f57600080fd5b505af1158015613d43573d6000803e3d6000fd5b50505050600460006101000a81549073ffffffffffffffffffffffffffffffffffffffff02191690557f66756eda85190d0bcec058815fd7e2154167d102e21d96cab701630af02f24736000604051808273ffffffffffffffffffffffffffffffffffffffff16815260200191505060405180910390a1565b613dcd613dc7612fec565b8261407d565b50565b6000600460009054906101000a900473ffffffffffffffffffffffffffffffffffffffff16905090565b6000600160169054906101000a900460ff161561402257613e19613b9a565b73ffffffffffffffffffffffffffffffffffffffff168373ffffffffffffffffffffffffffffffffffffffff161415613ed8576004600a811115613e5957fe5b82600a811115613e6557fe5b1480613e8757506006600a811115613e7957fe5b82600a811115613e8557fe5b145b80613ea857506007600a811115613e9a57fe5b82600a811115613ea657fe5b145b80613ec957506005600a811115613ebb57fe5b82600a811115613ec757fe5b145b15613ed357600190505b614021565b613ee0613bea565b73ffffffffffffffffffffffffffffffffffffffff168373ffffffffffffffffffffffffffffffffffffffff161415613f7e576002600a811115613f2057fe5b82600a811115613f2c57fe5b1480613f4e57506001600a811115613f4057fe5b82600a811115613f4c57fe5b145b80613f6f57506003600a811115613f6157fe5b82600a811115613f6d57fe5b145b15613f7957600190505b614020565b613f86612f91565b73ffffffffffffffffffffffffffffffffffffffff168373ffffffffffffffffffffffffffffffffffffffff16141561401f576009600a811115613fc657fe5b82600a811115613fd257fe5b1480613ff457506008600a811115613fe657fe5b82600a811115613ff257fe5b145b806140145750600a8081111561400657fe5b82600a81111561401257fe5b145b1561401e57600190505b5b5b5b5b80614078576040517f08c379a000000000000000000000000000000000000000000000000000000000815260040180806020018281038252603381526020018061791e6033913960400191505060405180910390fd5b505050565b600061408882612a25565b905060008114806140b2575061409c611aea565b6140af824261642a90919063ffffffff16565b10155b806140c257506140c1836164ad565b5b614134576040517f08c379a00000000000000000000000000000000000000000000000000000000081526004018080602001828103825260188152602001807f53686172657320616374696f6e2074696d656c6f636b6564000000000000000081525060200191505060405180910390fd5b505050565b600060186000369050101580156141825750614153612819565b73ffffffffffffffffffffffffffffffffffffffff163373ffffffffffffffffffffffffffffffffffffffff16145b1561419657601436033560601c905061419a565b3390505b90565b6141a5612fec565b73ffffffffffffffffffffffffffffffffffffffff1663893d20e86040518163ffffffff1660e01b815260040160206040518083038186803b1580156141ea57600080fd5b505afa1580156141fe573d6000803e3d6000fd5b505050506040513d602081101561421457600080fd5b810190808051906020019092919050505073ffffffffffffffffffffffffffffffffffffffff168173ffffffffffffffffffffffffffffffffffffffff16146142c5576040517f08c379a00000000000000000000000000000000000000000000000000000000081526004018080602001828103825260188152602001807f4f6e6c792066756e64206f776e65722063616c6c61626c65000000000000000081525060200191505060405180910390fd5b50565b600160179054906101000a900460ff161561434b576040517f08c379a000000000000000000000000000000000000000000000000000000000815260040180806020018281038252600b8152602001807f52652d656e7472616e636500000000000000000000000000000000000000000081525060200191505060405180910390fd5b565b60006001825111614361576001905061440b565b60008251905060005b818110156144045760006001820190505b828110156143f65784818151811061438f57fe5b602002602001015173ffffffffffffffffffffffffffffffffffffffff168583815181106143b957fe5b602002602001015173ffffffffffffffffffffffffffffffffffffffff1614156143e9576000935050505061440b565b808060010191505061437b565b50808060010191505061436a565b5060019150505b919050565b60008061441d878761407d565b600087905060008173ffffffffffffffffffffffffffffffffffffffff166370a08231896040518263ffffffff1660e01b8152600401808273ffffffffffffffffffffffffffffffffffffffff16815260200191505060206040518083038186803b15801561448b57600080fd5b505afa15801561449f573d6000803e3d6000fd5b505050506040513d60208110156144b557600080fd5b810190808051906020019092919050505090507fffffffffffffffffffffffffffffffffffffffffffffffffffffffffffffffff8714156144f8578093506144fc565b8693505b60008411614555576040517f08c379a000000000000000000000000000000000000000000000000000000000815260040180806020018281038252602881526020018061779f6028913960400191505060405180910390fd5b6145618885888861660f565b60008273ffffffffffffffffffffffffffffffffffffffff166370a082318a6040518263ffffffff1660e01b8152600401808273ffffffffffffffffffffffffffffffffffffffff16815260200191505060206040518083038186803b1580156145ca57600080fd5b505afa1580156145de573d6000803e3d6000fd5b505050506040513d60208110156145f457600080fd5b810190808051906020019092919050505090507fffffffffffffffffffffffffffffffffffffffffffffffffffffffffffffffff88141561463757809450614668565b8181101561466757614664614655828461642a90919063ffffffff16565b8661642a90919063ffffffff16565b94505b5b8973ffffffffffffffffffffffffffffffffffffffff1663d5c20fa26040518163ffffffff1660e01b8152600401600060405180830381600087803b1580156146b057600080fd5b505af11580156146c4573d6000803e3d6000fd5b505050506000861180156146dc57506146db612d97565b5b156146ec576146eb8a87616871565b5b8273ffffffffffffffffffffffffffffffffffffffff166318160ddd6040518163ffffffff1660e01b815260040160206040518083038186803b15801561473257600080fd5b505afa158015614746573d6000803e3d6000fd5b505050506040513d602081101561475c57600080fd5b810190808051906020019092919050505093508973ffffffffffffffffffffffffffffffffffffffff1663ee7a7c048a876040518363ffffffff1660e01b8152600401808373ffffffffffffffffffffffffffffffffffffffff16815260200182815260200192505050600060405180830381600087803b1580156147e057600080fd5b505af11580156147f4573d6000803e3d6000fd5b505050505050509550959350505050565b6000808314156148185760009050614885565b600082840290508284828161482957fe5b0414614880576040517f08c379a000000000000000000000000000000000000000000000000000000000815260040180806020018281038252602181526020018061787c6021913960400191505060405180910390fd5b809150505b92915050565b6000808211614902576040517f08c379a000000000000000000000000000000000000000000000000000000000815260040180806020018281038252601a8152602001807f536166654d6174683a206469766973696f6e206279207a65726f00000000000081525060200191505060405180910390fd5b81838161490b57fe5b04905092915050565b6060600061492061378e565b905060008787905067ffffffffffffffff8111801561493e57600080fd5b5060405190808252806020026020018201604052801561496d5781602001602082028036833780820191505090505b50925060005b88889050811015614cad576149a387878381811061498d57fe5b905060200201358361567390919063ffffffff16565b915061aaaa73ffffffffffffffffffffffffffffffffffffffff168989838181106149ca57fe5b9050602002013573ffffffffffffffffffffffffffffffffffffffff1673ffffffffffffffffffffffffffffffffffffffff161415614a0857614ca0565b614a10612a6e565b73ffffffffffffffffffffffffffffffffffffffff16634c67e10684614a65612710614a578c8c88818110614a4157fe5b905060200201358b61480590919063ffffffff16565b61488b90919063ffffffff16565b8c8c86818110614a7157fe5b9050602002013573ffffffffffffffffffffffffffffffffffffffff166040518463ffffffff1660e01b8152600401808473ffffffffffffffffffffffffffffffffffffffff1681526020018381526020018273ffffffffffffffffffffffffffffffffffffffff1681526020019350505050602060405180830381600087803b158015614afe57600080fd5b505af1158015614b12573d6000803e3d6000fd5b505050506040513d6020811015614b2857600080fd5b8101908080519060200190929190505050848281518110614b4557fe5b6020026020010181815250506000848281518110614b5f57fe5b602002602001015111614bbd576040517f08c379a00000000000000000000000000000000000000000000000000000000081526004018080602001828103825260388152602001806177676038913960400191505060405180910390fd5b8a73ffffffffffffffffffffffffffffffffffffffff1663495d753c8a8a84818110614be557fe5b9050602002013573ffffffffffffffffffffffffffffffffffffffff168c878581518110614c0f57fe5b60200260200101516040518463ffffffff1660e01b8152600401808473ffffffffffffffffffffffffffffffffffffffff1681526020018373ffffffffffffffffffffffffffffffffffffffff1681526020018281526020019350505050600060405180830381600087803b158015614c8757600080fd5b505af1158015614c9b573d6000803e3d6000fd5b505050505b8080600101915050614973565b506127108114614d08576040517f08c379a000000000000000000000000000000000000000000000000000000000815260040180806020018281038252603b815260200180617699603b913960400191505060405180910390fd5b5050979650505050505050565b614d1d6133b4565b73ffffffffffffffffffffffffffffffffffffffff16630442bad5306003898989898989604051602001808773ffffffffffffffffffffffffffffffffffffffff1681526020018673ffffffffffffffffffffffffffffffffffffffff1681526020018581526020018060200180602001848152602001838103835286818151815260200191508051906020019060200280838360005b83811015614dcf578082015181840152602081019050614db4565b50505050905001838103825285818151815260200191508051906020019060200280838360005b83811015614e11578082015181840152602081019050614df6565b50505050905001985050505050505050506040516020818303038152906040526040518463ffffffff1660e01b8152600401808473ffffffffffffffffffffffffffffffffffffffff168152602001836009811115614e6c57fe5b815260200180602001828103825283818151815260200191508051906020019080838360005b83811015614ead578082015181840152602081019050614e92565b50505050905090810190601f168015614eda5780820380516001836020036101000a031916815260200191505b50945050505050600060405180830381600087803b158015614efb57600080fd5b505af1158015614f0f573d6000803e3d6000fd5b50505050505050505050565b614f23612d6f565b73ffffffffffffffffffffffffffffffffffffffff163373ffffffffffffffffffffffffffffffffffffffff1614614fc3576040517f08c379a000000000000000000000000000000000000000000000000000000000815260040180806020018281038252601a8152602001807f4f6e6c792046756e644465706c6f7965722063616c6c61626c6500000000000081525060200191505060405180910390fd5b565b600160169054906101000a900460ff1615615048576040517f08c379a00000000000000000000000000000000000000000000000000000000081526004018080602001828103825260188152602001807f5661756c7420616374696f6e2072652d656e7472616e6365000000000000000081525060200191505060405180910390fd5b565b60006060808373ffffffffffffffffffffffffffffffffffffffff166380daddb86040518163ffffffff1660e01b8152600401600060405180830381600087803b15801561509757600080fd5b505af11580156150ab573d6000803e3d6000fd5b505050506040513d6000823e3d601f19601f8201168201806040525060408110156150d557600080fd5b81019080805160405193929190846401000000008211156150f557600080fd5b8382019150602082018581111561510b57600080fd5b825186602082028301116401000000008211171561512857600080fd5b8083526020830192505050908051906020019060200280838360005b8381101561515f578082015181840152602081019050615144565b505050509050016040526020018051604051939291908464010000000082111561518857600080fd5b8382019150602082018581111561519e57600080fd5b82518660208202830111640100000000821117156151bb57600080fd5b8083526020830192505050908051906020019060200280838360005b838110156151f25780820151818401526020810190506151d7565b5050505090500160405250505091509150600061520d612a6e565b73ffffffffffffffffffffffffffffffffffffffff1663ae6f52ad848461523261378e565b6040518463ffffffff1660e01b81526004018080602001806020018473ffffffffffffffffffffffffffffffffffffffff168152602001838103835286818151815260200191508051906020019060200280838360005b838110156152a4578082015181840152602081019050615289565b50505050905001838103825285818151815260200191508051906020019060200280838360005b838110156152e65780820151818401526020810190506152cb565b5050505090500195505050505050602060405180830381600087803b15801561530e57600080fd5b505af1158015615322573d6000803e3d6000fd5b505050506040513d602081101561533857600080fd5b810190808051906020019092919050505090506060808673ffffffffffffffffffffffffffffffffffffffff1663ecd658b46040518163ffffffff1660e01b8152600401600060405180830381600087803b15801561539657600080fd5b505af11580156153aa573d6000803e3d6000fd5b505050506040513d6000823e3d601f19601f8201168201806040525060408110156153d457600080fd5b81019080805160405193929190846401000000008211156153f457600080fd5b8382019150602082018581111561540a57600080fd5b825186602082028301116401000000008211171561542757600080fd5b8083526020830192505050908051906020019060200280838360005b8381101561545e578082015181840152602081019050615443565b505050509050016040526020018051604051939291908464010000000082111561548757600080fd5b8382019150602082018581111561549d57600080fd5b82518660208202830111640100000000821117156154ba57600080fd5b8083526020830192505050908051906020019060200280838360005b838110156154f15780820151818401526020810190506154d6565b5050505090500160405250505091509150600061550c612a6e565b73ffffffffffffffffffffffffffffffffffffffff1663ae6f52ad848461553161378e565b6040518463ffffffff1660e01b81526004018080602001806020018473ffffffffffffffffffffffffffffffffffffffff168152602001838103835286818151815260200191508051906020019060200280838360005b838110156155a3578082015181840152602081019050615588565b50505050905001838103825285818151815260200191508051906020019060200280838360005b838110156155e55780820151818401526020810190506155ca565b5050505090500195505050505050602060405180830381600087803b15801561560d57600080fd5b505af1158015615621573d6000803e3d6000fd5b505050506040513d602081101561563757600080fd5b810190808051906020019092919050505090508084111561566857615665818561642a90919063ffffffff16565b96505b505050505050919050565b6000808284019050838110156156f1576040517f08c379a000000000000000000000000000000000000000000000000000000000815260040180806020018281038252601b8152602001807f536166654d6174683a206164646974696f6e206f766572666c6f77000000000081525060200191505060405180910390fd5b8091505092915050565b6060806157118386616a8c90919063ffffffff16565b90506000845114156157265780915050615965565b6060845167ffffffffffffffff8111801561574057600080fd5b5060405190808252806020026020018201604052801561576f5781602001602082028036833780820191505090505b5090506000805b86518110156157df576157a587828151811061578e57fe5b602002602001015185616c5d90919063ffffffff16565b6157d25760018382815181106157b757fe5b60200260200101901515908115158152505081806001019250505b8080600101915050615776565b5060008114156157f457829350505050615965565b61580881845161567390919063ffffffff16565b67ffffffffffffffff8111801561581e57600080fd5b5060405190808252806020026020018201604052801561584d5781602001602082028036833780820191505090505b50935060005b83518110156158c35783818151811061586857fe5b602002602001015185828151811061587c57fe5b602002602001019073ffffffffffffffffffffffffffffffffffffffff16908173ffffffffffffffffffffffffffffffffffffffff16815250508080600101915050615853565b5060008351905060005b875181101561595f578381815181106158e257fe5b602002602001015115615952578781815181106158fb57fe5b602002602001015186838151811061590f57fe5b602002602001019073ffffffffffffffffffffffffffffffffffffffff16908173ffffffffffffffffffffffffffffffffffffffff168152505081806001019250505b80806001019150506158cd565b50505050505b9392505050565b8073ffffffffffffffffffffffffffffffffffffffff1663d0e30db06040518163ffffffff1660e01b8152600401600060405180830381600087803b1580156159b457600080fd5b505af11580156159c8573d6000803e3d6000fd5b5050505050565b80600460006101000a81548173ffffffffffffffffffffffffffffffffffffffff021916908373ffffffffffffffffffffffffffffffffffffffff1602179055507f66756eda85190d0bcec058815fd7e2154167d102e21d96cab701630af02f247381604051808273ffffffffffffffffffffffffffffffffffffffff16815260200191505060405180910390a150565b615a68613dd0565b73ffffffffffffffffffffffffffffffffffffffff163373ffffffffffffffffffffffffffffffffffffffff1614615aeb576040517f08c379a0000000000000000000000000000000000000000000000000000000008152600401808060200182810382526021815260200180617a0a6021913960400191505060405180910390fd5b565b6000615af76142c8565b60018060176101000a81548160ff021916908315150217905550615b19614fc5565b60018060166101000a81548160ff02191690831515021790555060008411615b8c576040517f08c379a000000000000000000000000000000000000000000000000000000000815260040180806020018281038252602a8152602001806178c3602a913960400191505060405180910390fd5b6000615b96612fec565b9050831580615bab5750615ba9816164ad565b155b615c00576040517f08c379a00000000000000000000000000000000000000000000000000000000081526004018080602001828103825260318152602001806178ed6031913960400191505060405180910390fd5b6000615c0a611af4565b9050615c17888883616cd4565b8173ffffffffffffffffffffffffffffffffffffffff1663d5c20fa26040518163ffffffff1660e01b8152600401600060405180830381600087803b158015615c5f57600080fd5b505af1158015615c73573d6000803e3d6000fd5b50505050615c7f612d97565b15615c8f57615c8e8282616871565b5b6000615ca4615c9c61378e565b86858b616e09565b90506000615dc0838573ffffffffffffffffffffffffffffffffffffffff166318160ddd6040518163ffffffff1660e01b815260040160206040518083038186803b158015615cf257600080fd5b505afa158015615d06573d6000803e3d6000fd5b505050506040513d6020811015615d1c57600080fd5b8101908080519060200190929190505050615d3561378e565b73ffffffffffffffffffffffffffffffffffffffff1663313ce5676040518163ffffffff1660e01b815260040160206040518083038186803b158015615d7a57600080fd5b505afa158015615d8e573d6000803e3d6000fd5b505050506040513d6020811015615da457600080fd5b810190808051906020019092919050505060ff16600a0a6163e1565b90506000615df182615de3670de0b6b3a76400008661480590919063ffffffff16565b61488b90919063ffffffff16565b905060008573ffffffffffffffffffffffffffffffffffffffff166370a082318d6040518263ffffffff1660e01b8152600401808273ffffffffffffffffffffffffffffffffffffffff16815260200191505060206040518083038186803b158015615e5c57600080fd5b505afa158015615e70573d6000803e3d6000fd5b505050506040513d6020811015615e8657600080fd5b810190808051906020019092919050505090508573ffffffffffffffffffffffffffffffffffffffff1663528c198a8d846040518363ffffffff1660e01b8152600401808373ffffffffffffffffffffffffffffffffffffffff16815260200182815260200192505050600060405180830381600087803b158015615f0a57600080fd5b505af1158015615f1e573d6000803e3d6000fd5b50505050615f2e8c858488616f9c565b615fe2818773ffffffffffffffffffffffffffffffffffffffff166370a082318f6040518263ffffffff1660e01b8152600401808273ffffffffffffffffffffffffffffffffffffffff16815260200191505060206040518083038186803b158015615f9957600080fd5b505afa158015615fad573d6000803e3d6000fd5b505050506040513d6020811015615fc357600080fd5b810190808051906020019092919050505061642a90919063ffffffff16565b96508987101561603d576040517f08c379a00000000000000000000000000000000000000000000000000000000081526004018080602001828103825260318152602001806176d46031913960400191505060405180910390fd5b88156160885742600360008e73ffffffffffffffffffffffffffffffffffffffff1673ffffffffffffffffffffffffffffffffffffffff168152602001908152602001600020819055505b8b73ffffffffffffffffffffffffffffffffffffffff167f849165c18b9d0fb161bcb145e4ab523d350e5c98f1dbbb1960331e7ee3ca676785848a60405180848152602001838152602001828152602001935050505060405180910390a25050505050506000600160166101000a81548160ff0219169083151502179055506000600160176101000a81548160ff02191690831515021790555095945050505050565b600160149054906101000a900460ff1615616191576040517f08c379a000000000000000000000000000000000000000000000000000000000815260040180806020018281038252602681526020018061789d6026913960400191505060405180910390fd5b3073ffffffffffffffffffffffffffffffffffffffff16ff5b6000806161b561378e565b905060006162ca848773ffffffffffffffffffffffffffffffffffffffff166318160ddd6040518163ffffffff1660e01b815260040160206040518083038186803b15801561620357600080fd5b505afa158015616217573d6000803e3d6000fd5b505050506040513d602081101561622d57600080fd5b81019080805190602001909291905050508473ffffffffffffffffffffffffffffffffffffffff1663313ce5676040518163ffffffff1660e01b815260040160206040518083038186803b15801561628457600080fd5b505afa158015616298573d6000803e3d6000fd5b505050506040513d60208110156162ae57600080fd5b810190808051906020019092919050505060ff16600a0a6163e1565b905060006162fb670de0b6b3a76400006162ed888561480590919063ffffffff16565b61488b90919063ffffffff16565b9050616305612a6e565b73ffffffffffffffffffffffffffffffffffffffff16634c67e106848361632a613b72565b6040518463ffffffff1660e01b8152600401808473ffffffffffffffffffffffffffffffffffffffff1681526020018381526020018273ffffffffffffffffffffffffffffffffffffffff1681526020019350505050602060405180830381600087803b15801561639a57600080fd5b505af11580156163ae573d6000803e3d6000fd5b505050506040513d60208110156163c457600080fd5b810190808051906020019092919050505093505050509392505050565b6000808314156163f357819050616423565b61642083616412670de0b6b3a76400008761480590919063ffffffff16565b61488b90919063ffffffff16565b90505b9392505050565b6000828211156164a2576040517f08c379a000000000000000000000000000000000000000000000000000000000815260040180806020018281038252601e8152602001807f536166654d6174683a207375627472616374696f6e206f766572666c6f77000081525060200191505060405180910390fd5b818303905092915050565b60006164b7613bc2565b73ffffffffffffffffffffffffffffffffffffffff1663d0449d3d836040518263ffffffff1660e01b8152600401808273ffffffffffffffffffffffffffffffffffffffff16815260200191505060206040518083038186803b15801561651d57600080fd5b505afa158015616531573d6000803e3d6000fd5b505050506040513d602081101561654757600080fd5b8101908080519060200190929190505050806166085750616566612d6f565b73ffffffffffffffffffffffffffffffffffffffff16636c579e57836040518263ffffffff1660e01b8152600401808273ffffffffffffffffffffffffffffffffffffffff16815260200191505060206040518083038186803b1580156165cc57600080fd5b505afa1580156165e0573d6000803e3d6000fd5b505050506040513d60208110156165f657600080fd5b81019080805190602001909291905050505b9050919050565b616617614fc5565b60018060166101000a81548160ff021916908315150217905550616639613bea565b73ffffffffffffffffffffffffffffffffffffffff16637759c1646003868686604051602001808473ffffffffffffffffffffffffffffffffffffffff16815260200183815260200182151581526020019350505050604051602081830303815290604052846040518463ffffffff1660e01b8152600401808460038111156166be57fe5b815260200180602001838152602001828103825284818151815260200191508051906020019080838360005b838110156167055780820151818401526020810190506166ea565b50505050905090810190601f1680156167325780820380516001836020036101000a031916815260200191505b50945050505050600060405180830381600087803b15801561675357600080fd5b505af1925050508015616764575060015b61684f573d8060008114616794576040519150601f19603f3d011682016040523d82523d6000602084013e616799565b606091505b508473ffffffffffffffffffffffffffffffffffffffff16816040518082805190602001908083835b602083106167e557805182526020820191506020810190506020830392506167c2565b6001836020036101000a03801982511681845116808217855250505050505090500191505060405180910390207fb3ea7e5141baf21804d12f5a635e83e0cb869c8b06b88648364769f85aa73fc2866040518082815260200191505060405180910390a350616850565b5b6000600160166101000a81548160ff02191690831515021790555050505050565b60008273ffffffffffffffffffffffffffffffffffffffff166370a082316168976133dc565b6040518263ffffffff1660e01b8152600401808273ffffffffffffffffffffffffffffffffffffffff16815260200191505060206040518083038186803b1580156168e157600080fd5b505afa1580156168f5573d6000803e3d6000fd5b505050506040513d602081101561690b57600080fd5b81019080805190602001909291905050509050600061692b8483856161aa565b90508373ffffffffffffffffffffffffffffffffffffffff16631ff46bfa8383866040518463ffffffff1660e01b8152600401808481526020018381526020018281526020019350505050600060405180830381600087803b15801561699057600080fd5b505af19250505080156169a1575060015b616a85573d80600081146169d1576040519150601f19603f3d011682016040523d82523d6000602084013e6169d6565b606091505b50806040518082805190602001908083835b60208310616a0b57805182526020820191506020810190506020830392506169e8565b6001836020036101000a03801982511681845116808217855250505050505090500191505060405180910390207f0917b727c8497d0fc305acafacb424e8c9b12715d2b9b19bee777ef9d134f08f84848760405180848152602001838152602001828152602001935050505060405180910390a250616a86565b5b50505050565b6060600082511415616aa057829050616c57565b6060835167ffffffffffffffff81118015616aba57600080fd5b50604051908082528060200260200182016040528015616ae95781602001602082028036833780820191505090505b50905060008451905060005b8551811015616b5757616b1b85878381518110616b0e57fe5b6020026020010151616c5d565b15616b4a576001838281518110616b2e57fe5b6020026020010190151590811515815250508180600190039250505b8080600101915050616af5565b508451811415616b6957849250616c54565b6000811115616c53578067ffffffffffffffff81118015616b8957600080fd5b50604051908082528060200260200182016040528015616bb85781602001602082028036833780820191505090505b5092506000805b8651811015616c5057838181518110616bd457fe5b6020026020010151616c4357868181518110616bec57fe5b6020026020010151858381518110616c0057fe5b602002602001019073ffffffffffffffffffffffffffffffffffffffff16908173ffffffffffffffffffffffffffffffffffffffff168152505081806001019250505b8080600101915050616bbf565b50505b5b50505b92915050565b6000805b8351811015616cc857838181518110616c7657fe5b602002602001015173ffffffffffffffffffffffffffffffffffffffff168373ffffffffffffffffffffffffffffffffffffffff161415616cbb576001915050616cce565b8080600101915050616c61565b50600090505b92915050565b616cdc613bea565b73ffffffffffffffffffffffffffffffffffffffff16637759c16460018585604051602001808373ffffffffffffffffffffffffffffffffffffffff16815260200182815260200192505050604051602081830303815290604052846040518463ffffffff1660e01b815260040180846003811115616d5757fe5b815260200180602001838152602001828103825284818151815260200191508051906020019080838360005b83811015616d9e578082015181840152602081019050616d83565b50505050905090810190601f168015616dcb5780820380516001836020036101000a031916815260200191505b50945050505050600060405180830381600087803b158015616dec57600080fd5b505af1158015616e00573d6000803e3d6000fd5b50505050505050565b6000808573ffffffffffffffffffffffffffffffffffffffff166370a08231856040518263ffffffff1660e01b8152600401808273ffffffffffffffffffffffffffffffffffffffff16815260200191505060206040518083038186803b158015616e7357600080fd5b505afa158015616e87573d6000803e3d6000fd5b505050506040513d6020811015616e9d57600080fd5b81019080805190602001909291905050509050616edd8585858973ffffffffffffffffffffffffffffffffffffffff16617248909392919063ffffffff16565b616f91818773ffffffffffffffffffffffffffffffffffffffff166370a08231876040518263ffffffff1660e01b8152600401808273ffffffffffffffffffffffffffffffffffffffff16815260200191505060206040518083038186803b158015616f4857600080fd5b505afa158015616f5c573d6000803e3d6000fd5b505050506040513d6020811015616f7257600080fd5b810190808051906020019092919050505061642a90919063ffffffff16565b915050949350505050565b6000616fb1848361567390919063ffffffff16565b9050616fbb613bea565b73ffffffffffffffffffffffffffffffffffffffff16637759c1646002878787604051602001808473ffffffffffffffffffffffffffffffffffffffff1681526020018381526020018281526020019350505050604051602081830303815290604052846040518463ffffffff1660e01b81526004018084600381111561703e57fe5b815260200180602001838152602001828103825284818151815260200191508051906020019080838360005b8381101561708557808201518184015260208101905061706a565b50505050905090810190601f1680156170b25780820380516001836020036101000a031916815260200191505b50945050505050600060405180830381600087803b1580156170d357600080fd5b505af11580156170e7573d6000803e3d6000fd5b505050506170f36133b4565b73ffffffffffffffffffffffffffffffffffffffff16630442bad530600088888887604051602001808573ffffffffffffffffffffffffffffffffffffffff1681526020018481526020018381526020018281526020019450505050506040516020818303038152906040526040518463ffffffff1660e01b8152600401808473ffffffffffffffffffffffffffffffffffffffff16815260200183600981111561719a57fe5b815260200180602001828103825283818151815260200191508051906020019080838360005b838110156171db5780820151818401526020810190506171c0565b50505050905090810190601f1680156172085780820380516001836020036101000a031916815260200191505b50945050505050600060405180830381600087803b15801561722957600080fd5b505af115801561723d573d6000803e3d6000fd5b505050505050505050565b617303846323b872dd60e01b858585604051602401808473ffffffffffffffffffffffffffffffffffffffff1681526020018373ffffffffffffffffffffffffffffffffffffffff1681526020018281526020019350505050604051602081830303815290604052907bffffffffffffffffffffffffffffffffffffffffffffffffffffffff19166020820180517bffffffffffffffffffffffffffffffffffffffffffffffffffffffff8381831617835250505050617309565b50505050565b606061736b826040518060400160405280602081526020017f5361666545524332303a206c6f772d6c6576656c2063616c6c206661696c65648152508573ffffffffffffffffffffffffffffffffffffffff166173f89092919063ffffffff16565b90506000815111156173f35780806020019051602081101561738c57600080fd5b81019080805190602001909291905050506173f2576040517f08c379a000000000000000000000000000000000000000000000000000000000815260040180806020018281038252602a8152602001806179e0602a913960400191505060405180910390fd5b5b505050565b60606174078484600085617410565b90509392505050565b60608247101561746b576040517f08c379a00000000000000000000000000000000000000000000000000000000081526004018080602001828103825260268152602001806177c76026913960400191505060405180910390fd5b617474856175b9565b6174e6576040517f08c379a000000000000000000000000000000000000000000000000000000000815260040180806020018281038252601d8152602001807f416464726573733a2063616c6c20746f206e6f6e2d636f6e747261637400000081525060200191505060405180910390fd5b600060608673ffffffffffffffffffffffffffffffffffffffff1685876040518082805190602001908083835b602083106175365780518252602082019150602081019050602083039250617513565b6001836020036101000a03801982511681845116808217855250505050505090500191505060006040518083038185875af1925050503d8060008114617598576040519150601f19603f3d011682016040523d82523d6000602084013e61759d565b606091505b50915091506175ad8282866175cc565b92505050949350505050565b600080823b905060008111915050919050565b606083156175dc57829050617691565b6000835111156175ef5782518084602001fd5b816040517f08c379a00000000000000000000000000000000000000000000000000000000081526004018080602001828103825283818151815260200191508051906020019080838360005b8381101561765657808201518184015260208101905061763b565b50505050905090810190601f1680156176835780820380516001836020036101000a031916815260200191505b509250505060405180910390fd5b939250505056fe5f5f7061796f7574537065636966696564417373657450657263656e74616765733a2050657263656e7473206d75737420746f74616c20313030255f5f6275795368617265733a20536861726573207265636569766564203c205f6d696e5368617265735175616e7469747972656465656d536861726573466f7253706563696669634173736574733a20556e657175616c2061727261797372656465656d536861726573466f7253706563696669634173736574733a204475706c6963617465207061796f75742061737365745f5f7061796f7574537065636966696564417373657450657263656e74616765733a205a65726f20616d6f756e7420666f722061737365745f5f72656465656d53686172657353657475703a204e6f2073686172657320746f2072656465656d416464726573733a20696e73756666696369656e742062616c616e636520666f722063616c6c6465706c6f7947617352656c61795061796d61737465723a205061796d617374657220616c7265616479206465706c6f79656463616c6c4f6e457874656e73696f6e3a205f657874656e73696f6e20696e76616c696472656465656d536861726573496e4b696e643a205f6164646974696f6e616c41737365747320636f6e7461696e73206475706c696361746573536166654d6174683a206d756c7469706c69636174696f6e206f766572666c6f775f5f73656c6644657374727563743a204f6e6c792064656c65676174652063616c6c61626c655f5f6275795368617265733a205f6d696e5368617265735175616e74697479206d757374206265203e305f5f6275795368617265733a2050656e64696e67206d6967726174696f6e206f72207265636f6e66696775726174696f6e5f5f6173736572745065726d697373696f6e65645661756c74416374696f6e3a20416374696f6e206e6f7420616c6c6f7765647072655472616e73666572536861726573486f6f6b3a204f6e6c79205661756c7450726f78792063616c6c61626c656275794261636b50726f746f636f6c4665655368617265733a20556e617574686f72697a65647065726d697373696f6e65645661756c74416374696f6e3a2043616e6e6f7420756e747261636b2064656e6f6d696e6174696f6e2061737365745361666545524332303a204552433230206f7065726174696f6e20646964206e6f7420737563636565644f6e6c79204761732052656c6179205061796d61737465722063616c6c61626c6572656465656d536861726573496e4b696e643a205f617373657473546f536b697020636f6e7461696e73206475706c696361746573a164736f6c634300060c000a","linkReferences":{}},"methodIdentifiers":{"activate(bool)":"ce5e84a3","buyBackProtocolFeeShares(uint256)":"b10ea2b0","buyShares(uint256,uint256)":"beebc5da","buySharesOnBehalf(address,uint256,uint256)":"877fd894","calcGav()":"56cff99f","calcGrossShareValue()":"da72503c","callOnExtension(address,uint256,bytes)":"39bf70d1","deployGasRelayPaymaster()":"db69681f","depositToGasRelayPaymaster()":"716d4da4","destructActivated(uint256,uint256)":"92b575b6","destructUnactivated()":"e53a73b9","doesAutoProtocolFeeSharesBuyback()":"a01fd157","getDenominationAsset()":"e269c3d6","getDispatcher()":"ebb3d589","getExternalPositionManager()":"b3fc38e9","getFeeManager()":"f2d63826","getFundDeployer()":"97c0ac87","getGasRelayPaymaster()":"faf9096b","getGasRelayPaymasterFactory()":"ac259456","getGasRelayTrustedForwarder()":"6ea21143","getIntegrationManager()":"e7c45690","getLastSharesBoughtTimestampForAccount(address)":"7f20170d","getMlnToken()":"e70e605e","getPolicyManager()":"d44ad6cb","getProtocolFeeReserve()":"da41962e","getSharesActionTimelock()":"4da471b7","getValueInterpreter()":"875fb4b3","getVaultProxy()":"c9809187","getWethToken()":"4c252f91","init(address,uint256)":"399ae724","permissionedVaultAction(uint8,bytes)":"10acd06d","preTransferSharesHook(address,address,uint256)":"12f20526","preTransferSharesHookFreelyTransferable(address)":"f9d5fe78","pullWethForGasRelayer(uint256)":"79951f0f","redeemSharesForSpecificAssets(address,uint256,address[],uint256[])":"3462fcc1","redeemSharesInKind(address,uint256,address[],address[])":"6af8e7eb","setAutoProtocolFeeSharesBuyback(bool)":"2dc7a3a0","setGasRelayPaymaster(address)":"73eecf47","setVaultProxy(address)":"397bfe55","shutdownGasRelayPaymaster()":"f9005af3","vaultCallOnContract(address,bytes4,bytes)":"e572ced1"},"id":132}