{"abi":[{"type":"constructor","inputs":[{"name":"_addressListRegistry","type":"address","internalType":"address"},{"name":"_gsnTrustedForwardersAddressListId","type":"uint256","internalType":"uint256"},{"name":"_globalConfigProxy","type":"address","internalType":"address"}],"stateMutability":"nonpayable"},{"type":"function","name":"addManagers","inputs":[{"name":"_managers","type":"address[]","internalType":"address[]"}],"outputs":[],"stateMutability":"nonpayable"},{"type":"function","name":"getBypassableSharesThreshold","inputs":[],"outputs":[{"name":"sharesAmount_","type":"uint256","internalType":"uint256"}],"stateMutability":"view"},{"type":"function","name":"getNextNewId","inputs":[],"outputs":[{"name":"id_","type":"uint256","internalType":"uint256"}],"stateMutability":"view"},{"type":"function","name":"getNextQueuedId","inputs":[],"outputs":[{"name":"id_","type":"uint256","internalType":"uint256"}],"stateMutability":"view"},{"type":"function","name":"getRedemptionAsset","inputs":[],"outputs":[{"name":"asset_","type":"address","internalType":"contract IERC20"}],"stateMutability":"view"},{"type":"function","name":"getSharesForRequest","inputs":[{"name":"_id","type":"uint256","internalType":"uint256"}],"outputs":[{"name":"sharesAmount_","type":"uint256","internalType":"uint256"}],"stateMutability":"view"},{"type":"function","name":"getUserForRequest","inputs":[{"name":"_id","type":"uint256","internalType":"uint256"}],"outputs":[{"name":"user_","type":"address","internalType":"address"}],"stateMutability":"view"},{"type":"function","name":"getVaultProxy","inputs":[],"outputs":[{"name":"vaultProxy_","type":"address","internalType":"address"}],"stateMutability":"view"},{"type":"function","name":"init","inputs":[{"name":"_vaultProxy","type":"address","internalType":"address"},{"name":"_redemptionAsset","type":"address","internalType":"contract IERC20"},{"name":"_bypassableSharesThreshold","type":"uint256","internalType":"uint256"},{"name":"_managers","type":"address[]","internalType":"address[]"}],"outputs":[],"stateMutability":"nonpayable"},{"type":"function","name":"isManager","inputs":[{"name":"_user","type":"address","internalType":"address"}],"outputs":[{"name":"isManager_","type":"bool","internalType":"bool"}],"stateMutability":"view"},{"type":"function","name":"queueIsShutdown","inputs":[],"outputs":[{"name":"isShutdown_","type":"bool","internalType":"bool"}],"stateMutability":"view"},{"type":"function","name":"redeemFromQueue","inputs":[{"name":"_endId","type":"uint256","internalType":"uint256"},{"name":"_idsToBypass","type":"uint256[]","internalType":"uint256[]"}],"outputs":[],"stateMutability":"nonpayable"},{"type":"function","name":"removeManagers","inputs":[{"name":"_managers","type":"address[]","internalType":"address[]"}],"outputs":[],"stateMutability":"nonpayable"},{"type":"function","name":"requestRedeem","inputs":[{"name":"_sharesAmount","type":"uint256","internalType":"uint256"}],"outputs":[{"name":"id_","type":"uint256","internalType":"uint256"}],"stateMutability":"nonpayable"},{"type":"function","name":"setBypassableSharesThreshold","inputs":[{"name":"_nextSharesThreshold","type":"uint256","internalType":"uint256"}],"outputs":[],"stateMutability":"nonpayable"},{"type":"function","name":"setRedemptionAsset","inputs":[{"name":"_nextRedemptionAsset","type":"address","internalType":"contract IERC20"}],"outputs":[],"stateMutability":"nonpayable"},{"type":"function","name":"shutdown","inputs":[],"outputs":[],"stateMutability":"nonpayable"},{"type":"function","name":"withdrawRequest","inputs":[{"name":"_id","type":"uint256","internalType":"uint256"}],"outputs":[],"stateMutability":"nonpayable"},{"type":"event","name":"BypassableSharesThresholdSet","inputs":[{"name":"nextSharesAmount","type":"uint256","indexed":false,"internalType":"uint256"}],"anonymous":false},{"type":"event","name":"Initialized","inputs":[{"name":"vaultProxy","type":"address","indexed":true,"internalType":"address"}],"anonymous":false},{"type":"event","name":"ManagerAdded","inputs":[{"name":"user","type":"address","indexed":true,"internalType":"address"}],"anonymous":false},{"type":"event","name":"ManagerRemoved","inputs":[{"name":"user","type":"address","indexed":true,"internalType":"address"}],"anonymous":false},{"type":"event","name":"Redeemed","inputs":[{"name":"id","type":"uint256","indexed":true,"internalType":"uint256"},{"name":"redemptionAsset","type":"address","indexed":true,"internalType":"address"},{"name":"redemptionAssetAmount","type":"uint256","indexed":false,"internalType":"uint256"}],"anonymous":false},{"type":"event","name":"RedemptionAssetSet","inputs":[{"name":"asset","type":"address","indexed":true,"internalType":"contract IERC20"}],"anonymous":false},{"type":"event","name":"RedemptionRequestAdded","inputs":[{"name":"id","type":"uint256","indexed":true,"internalType":"uint256"},{"name":"user","type":"address","indexed":true,"internalType":"address"},{"name":"sharesAmount","type":"uint256","indexed":false,"internalType":"uint256"}],"anonymous":false},{"type":"event","name":"RequestBypassed","inputs":[{"name":"id","type":"uint256","indexed":true,"internalType":"uint256"}],"anonymous":false},{"type":"event","name":"RequestWithdrawn","inputs":[{"name":"id","type":"uint256","indexed":true,"internalType":"uint256"}],"anonymous":false},{"type":"event","name":"Shutdown","inputs":[],"anonymous":false},{"type":"error","name":"AlreadyInitialized","inputs":[]},{"type":"error","name":"IsShutdown","inputs":[]},{"type":"error","name":"NotBypassable","inputs":[]},{"type":"error","name":"NotWithdrawable","inputs":[]},{"type":"error","name":"OutOfRange","inputs":[]},{"type":"error","name":"Unauthorized","inputs":[]},{"type":"error","name":"UndefinedVaultProxy","inputs":[]},{"type":"error","name":"ZeroShares","inputs":[]}],"bytecode":{"object":"0x60e06040523480156200001157600080fd5b5060405162001b4e38038062001b4e8339810160408190526200003491620000a0565b6001600160a01b0392831660805260a0919091521660c052620000f8565b60006001600160a01b0382165b92915050565b620000708162000052565b81146200007c57600080fd5b50565b80516200005f8162000065565b8062000070565b80516200005f816200008c565b600080600060608486031215620000ba57620000ba600080fd5b6000620000c886866200007f565b9350506020620000db8682870162000093565b9250506040620000ee868287016200007f565b9150509250925092565b60805160a05160c051611a26620001286000396000610a0301526000610fb001526000610f830152611a266000f3fe608060405234801561001057600080fd5b50600436106101165760003560e01c8063ac194422116100a2578063dca138e911610071578063dca138e914610249578063e77e720414610251578063f3ae241514610264578063fc0e74d11461029d578063fd56ff27146102a557600080fd5b8063ac194422146101f8578063ad6e5f4814610200578063c313693f14610213578063c98091871461023357600080fd5b806374899a7e116100e957806374899a7e14610176578063772ce44c146101895780637ba06931146101bf5780638c5f9e74146101d2578063aa2f892d146101e557600080fd5b80630b8880101461011b57806310f3ee29146101355780632aa423961461014a5780636829bda71461015d575b600080fd5b6004545b60405161012c9190611249565b60405180910390f35b6101486101433660046112a9565b6102b0565b005b610148610158366004611351565b6103b7565b6001546001600160a01b031660405161012c91906113e9565b6101486101843660046113f7565b610483565b6101b26101973660046113f7565b6000908152600760205260409020546001600160a01b031690565b60405161012c9190611421565b6101486101cd36600461142f565b610565565b6101486101e03660046112a9565b610598565b61011f6101f33660046113f7565b6105cd565b60035461011f565b61014861020e3660046113f7565b6106d7565b61011f6102213660046113f7565b60009081526006602052604090205490565b60005461010090046001600160a01b03166101b2565b60055461011f565b61014861025f366004611450565b610707565b6102906102723660046114ac565b6001600160a01b031660009081526002602052604090205460ff1690565b60405161012c91906114d5565b610148610c38565b60005460ff16610290565b6102c06102bb610c95565b610cc3565b6102dc576040516282b42960e81b815260040160405180910390fd5b60005b818110156103b25760008383838181106102fb576102fb6114e3565b905060200201602081019061031091906114ac565b9050610334816001600160a01b031660009081526002602052604090205460ff1690565b6103595760405162461bcd60e51b815260040161035090611530565b60405180910390fd5b6001600160a01b038116600081815260026020526040808220805460ff19169055517fef69f7d97228658c92417be1b16b19058315de71fecb435d07b7d23728b6bd319190a250806103aa81611556565b9150506102df565b505050565b60005461010090046001600160a01b0316156103e55760405162dc149f60e41b815260040160405180910390fd5b6001600160a01b03851661040c57604051632c276d8960e21b815260040160405180910390fd5b60008054610100600160a81b0319166101006001600160a01b0388160217905561043583610d51565b61043f8282610d91565b61044884610e62565b6040516001600160a01b038616907f908408e307fc569b417f6cbec5d5a06f44a0a505ac0479b47d421a4b2fd6a1e690600090a25050505050565b6000818152600760205260409020546001600160a01b03163381146104ba576040516282b42960e81b815260040160405180910390fd5b6000805460ff16806104cd575060045483105b9050806104ed576040516328c5214b60e01b815260040160405180910390fd5b60008381526006602090815260408083208054908490556007909252822080546001600160a01b031916905590546105349061010090046001600160a01b03168483610eac565b60405184907fa96b5d0d7f26bd7262aefaa969b62e7b98f59439bca50822d598df9c16a20d6790600090a250505050565b6105706102bb610c95565b61058c576040516282b42960e81b815260040160405180910390fd5b61059581610e62565b50565b6105a36102bb610c95565b6105bf576040516282b42960e81b815260040160405180910390fd5b6105c98282610d91565b5050565b6000805460ff16156105f257604051631b0e923f60e11b815260040160405180910390fd5b8160000361061357604051639811e0c760e01b815260040160405180910390fd5b600380543391600061062483611556565b9091555060008181526006602090815260408083208790556007909152902080546001600160a01b0384166001600160a01b0319909116179055915061068f81308561067e6000546001600160a01b036101009091041690565b6001600160a01b0316929190610eb7565b806001600160a01b0316827f6287dcdc3117a17e5a7b04a75285c1b8b6c663f8f0180f0a6ef85b56c8ac0d5a856040516106c99190611249565b60405180910390a350919050565b6106e26102bb610c95565b6106fe576040516282b42960e81b815260040160405180910390fd5b61059581610d51565b60005460ff161561072b57604051631b0e923f60e11b815260040160405180910390fd5b6000610735610c95565b9050600061075b826001600160a01b031660009081526002602052604090205460ff1690565b8061076a575061076a82610cc3565b905080610789576040516282b42960e81b815260040160405180910390fd5b60035485106107ab57604051637db3aba760e01b815260040160405180910390fd5b60006107b660045490565b90506107c3866001611570565b60045560006107d28288611583565b6107dd906001611570565b905060008167ffffffffffffffff8111156107fa576107fa611596565b604051908082528060200260200182016040528015610823578160200160208202803683370190505b50905060008267ffffffffffffffff81111561084157610841611596565b60405190808252806020026020018201604052801561086a578160200160208202803683370190505b5090506000845b8a81116109e75760006108848783611583565b600083815260066020526040812054919250506108d7838d8d808060200260200160405190810160405280939291908181526020018383602002808284376000920191909152509293925050610ec99050565b15610931576005548111156108ff57604051634abddacf60e11b815260040160405180910390fd5b60405183907f97e32df2d646f7a7b90ef51d66fda528a3bc3607e898022e504e66cf278d423590600090a250506109d5565b6000838152600760205260408120546001600160a01b031690508087848151811061095e5761095e6114e3565b60200260200101906001600160a01b031690816001600160a01b03168152505081868481518110610991576109916114e3565b60209081029190910101526109a68286611570565b60008581526006602090815260408083208390556007909152902080546001600160a01b031916905594505050505b806109df81611556565b915050610871565b5060006109fc6001546001600160a01b031690565b90506000807f00000000000000000000000000000000000000000000000000000000000000006001600160a01b0316632441593c610a486000546001600160a01b036101009091041690565b30868860016040518663ffffffff1660e01b8152600401610a6d9594939291906115ac565b600060405180830381865afa158015610a8a573d6000803e3d6000fd5b505050506040513d6000823e601f3d908101601f19168201604052610ab29190810190611700565b9092509050610aca6001600160a01b03831682610f1e565b506040516370a0823160e01b81526000906001600160a01b038516906370a0823190610afa903090600401611421565b602060405180830381865afa158015610b17573d6000803e3d6000fd5b505050506040513d601f19601f82011682018060405250810190610b3b9190611763565b9050885b8e8111610c27576000610b528b83611583565b90506000888281518110610b6857610b686114e3565b6020026020010151905080600003610b81575050610c15565b60008a8381518110610b9557610b956114e3565b602002602001015190506000898387610bae9190611784565b610bb891906117b9565b9050610bce6001600160a01b038a168383610eac565b886001600160a01b0316857fa18626381edd3d7a115c4a09f678bb79665034a541affcdba9fe65a1d3d107ee83604051610c089190611249565b60405180910390a3505050505b80610c1f81611556565b915050610b3f565b505050505050505050505050505050565b610c436102bb610c95565b610c5f576040516282b42960e81b815260040160405180910390fd5b6000805460ff191660011781556040517f4426aa1fb73e391071491fcfe21a88b5c38a0a0333a1f6e77161470439704cf89190a1565b600060143610801590610cac5750610cac33610f69565b15610cbe575060131936013560601c90565b503390565b6000805461010090046001600160a01b03166001600160a01b031663893d20e86040518163ffffffff1660e01b8152600401602060405180830381865afa158015610d12573d6000803e3d6000fd5b505050506040513d601f19601f82011682018060405250810190610d3691906117cd565b6001600160a01b0316826001600160a01b0316149050919050565b60058190556040517f3d5b4dcc7570f13bb7739aecd28f7512517b8bdf7d4fc250ff1a79febdf5307a90610d86908390611249565b60405180910390a150565b60005b818110156103b2576000838383818110610db057610db06114e3565b9050602002016020810190610dc591906114ac565b9050610de9816001600160a01b031660009081526002602052604090205460ff1690565b15610e065760405162461bcd60e51b815260040161035090611822565b6001600160a01b038116600081815260026020526040808220805460ff19166001179055517f3b4a40cccf2058c593542587329dd385be4f0b588db5471fbd9598e56dd7093a9190a25080610e5a81611556565b915050610d94565b600180546001600160a01b0319166001600160a01b0383169081179091556040517f410f9465288aecd0c52f8000879de6419ab719bcb75db47009c66d629155208e90600090a250565b6103b283838361101b565b610ec384848484611071565b50505050565b6000805b8351811015610f1257838181518110610ee857610ee86114e3565b60200260200101518303610f00576001915050610f18565b80610f0a81611556565b915050610ecd565b50600090505b92915050565b6060610f62838360006040518060400160405280601e81526020017f416464726573733a206c6f772d6c6576656c2063616c6c206661696c65640000815250611092565b9392505050565b6040516307158c8160e21b81526000906001600160a01b037f00000000000000000000000000000000000000000000000000000000000000001690631c56320490610fda907f0000000000000000000000000000000000000000000000000000000000000000908690600401611832565b602060405180830381865afa158015610ff7573d6000803e3d6000fd5b505050506040513d601f19601f82011682018060405250810190610f189190611860565b6103b28363a9059cbb60e01b848460405160240161103a929190611881565b60408051601f198184030181529190526020810180516001600160e01b03166001600160e01b031990931692909217909152611130565b610ec3846323b872dd60e01b85858560405160240161103a9392919061189c565b6060824710156110b45760405162461bcd60e51b81526004016103509061190a565b600080866001600160a01b031685876040516110d0919061193c565b60006040518083038185875af1925050503d806000811461110d576040519150601f19603f3d011682016040523d82523d6000602084013e611112565b606091505b5091509150611123878383876111bf565b925050505b949350505050565b6000611185826040518060400160405280602081526020017f5361666545524332303a206c6f772d6c6576656c2063616c6c206661696c6564815250856001600160a01b03166112089092919063ffffffff16565b8051909150156103b257808060200190518101906111a39190611860565b6103b25760405162461bcd60e51b81526004016103509061198f565b606083156111fe5782516000036111f7576001600160a01b0385163b6111f75760405162461bcd60e51b8152600401610350906119d3565b5081611128565b6111288383611217565b60606111288484600085611092565b8151156112275781518083602001fd5b8060405162461bcd60e51b81526004016103509190611a15565b805b82525050565b60208101610f188284611241565b60008083601f84011261126c5761126c600080fd5b50813567ffffffffffffffff81111561128757611287600080fd5b6020830191508360208202830111156112a2576112a2600080fd5b9250929050565b600080602083850312156112bf576112bf600080fd5b823567ffffffffffffffff8111156112d9576112d9600080fd5b6112e585828601611257565b92509250509250929050565b60006001600160a01b038216610f18565b61130b816112f1565b811461059557600080fd5b8035610f1881611302565b6000610f18826112f1565b61130b81611321565b8035610f188161132c565b8061130b565b8035610f1881611340565b60008060008060006080868803121561136c5761136c600080fd5b60006113788888611316565b955050602061138988828901611335565b945050604061139a88828901611346565b935050606086013567ffffffffffffffff8111156113ba576113ba600080fd5b6113c688828901611257565b92509250509295509295909350565b6000610f1882611321565b611243816113d5565b60208101610f1882846113e0565b60006020828403121561140c5761140c600080fd5b60006111288484611346565b611243816112f1565b60208101610f188284611418565b60006020828403121561144457611444600080fd5b60006111288484611335565b60008060006040848603121561146857611468600080fd5b60006114748686611346565b935050602084013567ffffffffffffffff81111561149457611494600080fd5b6114a086828701611257565b92509250509250925092565b6000602082840312156114c1576114c1600080fd5b60006111288484611316565b801515611243565b60208101610f1882846114cd565b634e487b7160e01b600052603260045260246000fd5b601d81526000602082017f72656d6f76654d616e61676572733a204e6f742061206d616e61676572000000815291505b5060200190565b60208082528101610f18816114f9565b634e487b7160e01b600052601160045260246000fd5b6000600019820361156957611569611540565b5060010190565b80820180821115610f1857610f18611540565b81810381811115610f1857610f18611540565b634e487b7160e01b600052604160045260246000fd5b60a081016115ba8288611418565b6115c76020830187611418565b6115d46040830186611418565b6115e16060830185611241565b6115ee60808301846114cd565b9695505050505050565b8051610f1881611302565b601f19601f830116810181811067ffffffffffffffff8211171561162957611629611596565b6040525050565b600061163b60405190565b90506116478282611603565b919050565b600067ffffffffffffffff82111561166657611666611596565b601f19601f83011660200192915050565b60005b8381101561169257818101518382015260200161167a565b50506000910152565b60006116ae6116a98461164c565b611630565b9050828152602081018484840111156116c9576116c9600080fd5b6116d4848285611677565b509392505050565b600082601f8301126116f0576116f0600080fd5b815161112884826020860161169b565b6000806040838503121561171657611716600080fd5b600061172285856115f8565b925050602083015167ffffffffffffffff81111561174257611742600080fd5b61174e858286016116dc565b9150509250929050565b8051610f1881611340565b60006020828403121561177857611778600080fd5b60006111288484611758565b81810280821583820485141761179c5761179c611540565b5092915050565b634e487b7160e01b600052601260045260246000fd5b6000826117c8576117c86117a3565b500490565b6000602082840312156117e2576117e2600080fd5b600061112884846115f8565b601e81526000602082017f5f5f6164644d616e61676572733a20416c7265616479206d616e61676572000081529150611529565b60208082528101610f18816117ee565b604081016118408285611241565b610f626020830184611418565b80151561130b565b8051610f188161184d565b60006020828403121561187557611875600080fd5b60006111288484611855565b6040810161188f8285611418565b610f626020830184611241565b606081016118aa8286611418565b6118b76020830185611418565b6111286040830184611241565b602681526000602082017f416464726573733a20696e73756666696369656e742062616c616e636520666f8152651c8818d85b1b60d21b602082015291505b5060400190565b60208082528101610f18816118c4565b6000611924825190565b611932818560208601611677565b9290920192915050565b6000610f62828461191a565b602a81526000602082017f5361666545524332303a204552433230206f7065726174696f6e20646964206e8152691bdd081cdd58d8d9595960b21b60208201529150611903565b60208082528101610f1881611948565b601d81526000602082017f416464726573733a2063616c6c20746f206e6f6e2d636f6e747261637400000081529150611529565b60208082528101610f188161199f565b60006119ed825190565b808452602084019350611a04818560208601611677565b601f01601f19169290920192915050565b60208082528101610f6281846119e356","linkReferences":{}},"methodIdentifiers":{"addManagers(address[])":"8c5f9e74","getBypassableSharesThreshold()":"dca138e9","getNextNewId()":"ac194422","getNextQueuedId()":"0b888010","getRedemptionAsset()":"6829bda7","getSharesForRequest(uint256)":"c313693f","getUserForRequest(uint256)":"772ce44c","getVaultProxy()":"c9809187","init(address,address,uint256,address[])":"2aa42396","isManager(address)":"f3ae2415","queueIsShutdown()":"fd56ff27","redeemFromQueue(uint256,uint256[])":"e77e7204","removeManagers(address[])":"10f3ee29","requestRedeem(uint256)":"aa2f892d","setBypassableSharesThreshold(uint256)":"ad6e5f48","setRedemptionAsset(address)":"7ba06931","shutdown()":"fc0e74d1","withdrawRequest(uint256)":"74899a7e"},"id":73}