{"abi":[{"type":"constructor","inputs":[{"name":"_addressListRegistry","type":"address","internalType":"address"},{"name":"_gsnTrustedForwardersAddressListId","type":"uint256","internalType":"uint256"},{"name":"_globalConfigProxy","type":"address","internalType":"address"}],"stateMutability":"nonpayable"},{"type":"function","name":"addManagers","inputs":[{"name":"_managers","type":"address[]","internalType":"address[]"}],"outputs":[],"stateMutability":"nonpayable"},{"type":"function","name":"getBypassableSharesThreshold","inputs":[],"outputs":[{"name":"sharesAmount_","type":"uint256","internalType":"uint256"}],"stateMutability":"view"},{"type":"function","name":"getNextNewId","inputs":[],"outputs":[{"name":"id_","type":"uint256","internalType":"uint256"}],"stateMutability":"view"},{"type":"function","name":"getNextQueuedId","inputs":[],"outputs":[{"name":"id_","type":"uint256","internalType":"uint256"}],"stateMutability":"view"},{"type":"function","name":"getRedemptionAsset","inputs":[],"outputs":[{"name":"asset_","type":"address","internalType":"contract IERC20"}],"stateMutability":"view"},{"type":"function","name":"getSharesForRequest","inputs":[{"name":"_id","type":"uint256","internalType":"uint256"}],"outputs":[{"name":"sharesAmount_","type":"uint256","internalType":"uint256"}],"stateMutability":"view"},{"type":"function","name":"getUserForRequest","inputs":[{"name":"_id","type":"uint256","internalType":"uint256"}],"outputs":[{"name":"user_","type":"address","internalType":"address"}],"stateMutability":"view"},{"type":"function","name":"getVaultProxy","inputs":[],"outputs":[{"name":"vaultProxy_","type":"address","internalType":"address"}],"stateMutability":"view"},{"type":"function","name":"init","inputs":[{"name":"_vaultProxy","type":"address","internalType":"address"},{"name":"_redemptionAsset","type":"address","internalType":"contract IERC20"},{"name":"_bypassableSharesThreshold","type":"uint256","internalType":"uint256"},{"name":"_managers","type":"address[]","internalType":"address[]"}],"outputs":[],"stateMutability":"nonpayable"},{"type":"function","name":"isManager","inputs":[{"name":"_user","type":"address","internalType":"address"}],"outputs":[{"name":"isManager_","type":"bool","internalType":"bool"}],"stateMutability":"view"},{"type":"function","name":"queueIsShutdown","inputs":[],"outputs":[{"name":"isShutdown_","type":"bool","internalType":"bool"}],"stateMutability":"view"},{"type":"function","name":"redeemFromQueue","inputs":[{"name":"_endId","type":"uint256","internalType":"uint256"},{"name":"_idsToBypass","type":"uint256[]","internalType":"uint256[]"}],"outputs":[],"stateMutability":"nonpayable"},{"type":"function","name":"removeManagers","inputs":[{"name":"_managers","type":"address[]","internalType":"address[]"}],"outputs":[],"stateMutability":"nonpayable"},{"type":"function","name":"requestRedeem","inputs":[{"name":"_sharesAmount","type":"uint256","internalType":"uint256"}],"outputs":[{"name":"id_","type":"uint256","internalType":"uint256"}],"stateMutability":"nonpayable"},{"type":"function","name":"setBypassableSharesThreshold","inputs":[{"name":"_nextSharesThreshold","type":"uint256","internalType":"uint256"}],"outputs":[],"stateMutability":"nonpayable"},{"type":"function","name":"setRedemptionAsset","inputs":[{"name":"_nextRedemptionAsset","type":"address","internalType":"contract IERC20"}],"outputs":[],"stateMutability":"nonpayable"},{"type":"function","name":"shutdown","inputs":[],"outputs":[],"stateMutability":"nonpayable"},{"type":"function","name":"withdrawRequest","inputs":[{"name":"_id","type":"uint256","internalType":"uint256"}],"outputs":[],"stateMutability":"nonpayable"},{"type":"event","name":"BypassableSharesThresholdSet","inputs":[{"name":"nextSharesAmount","type":"uint256","indexed":false,"internalType":"uint256"}],"anonymous":false},{"type":"event","name":"Initialized","inputs":[{"name":"vaultProxy","type":"address","indexed":true,"internalType":"address"}],"anonymous":false},{"type":"event","name":"ManagerAdded","inputs":[{"name":"user","type":"address","indexed":true,"internalType":"address"}],"anonymous":false},{"type":"event","name":"ManagerRemoved","inputs":[{"name":"user","type":"address","indexed":true,"internalType":"address"}],"anonymous":false},{"type":"event","name":"Redeemed","inputs":[{"name":"id","type":"uint256","indexed":true,"internalType":"uint256"},{"name":"redemptionAsset","type":"address","indexed":true,"internalType":"address"},{"name":"redemptionAssetAmount","type":"uint256","indexed":false,"internalType":"uint256"}],"anonymous":false},{"type":"event","name":"RedemptionAssetSet","inputs":[{"name":"asset","type":"address","indexed":true,"internalType":"contract IERC20"}],"anonymous":false},{"type":"event","name":"RedemptionRequestAdded","inputs":[{"name":"id","type":"uint256","indexed":true,"internalType":"uint256"},{"name":"user","type":"address","indexed":true,"internalType":"address"},{"name":"sharesAmount","type":"uint256","indexed":false,"internalType":"uint256"}],"anonymous":false},{"type":"event","name":"RequestBypassed","inputs":[{"name":"id","type":"uint256","indexed":true,"internalType":"uint256"}],"anonymous":false},{"type":"event","name":"RequestWithdrawn","inputs":[{"name":"id","type":"uint256","indexed":true,"internalType":"uint256"}],"anonymous":false},{"type":"event","name":"Shutdown","inputs":[],"anonymous":false},{"type":"error","name":"AlreadyInitialized","inputs":[]},{"type":"error","name":"IsShutdown","inputs":[]},{"type":"error","name":"NotBypassable","inputs":[]},{"type":"error","name":"NotWithdrawable","inputs":[]},{"type":"error","name":"OutOfRange","inputs":[]},{"type":"error","name":"Unauthorized","inputs":[]},{"type":"error","name":"UndefinedVaultProxy","inputs":[]},{"type":"error","name":"ZeroShares","inputs":[]}],"bytecode":{"object":"0x60e06040523480156200001157600080fd5b506040516200184d3803806200184d83398101604081905262000034916200006f565b6001600160a01b0392831660805260a0919091521660c052620000b0565b80516001600160a01b03811681146200006a57600080fd5b919050565b6000806000606084860312156200008557600080fd5b620000908462000052565b925060208401519150620000a76040850162000052565b90509250925092565b60805160a05160c05161176d620000e06000396000610a3001526000610feb01526000611024015261176d6000f3fe608060405234801561001057600080fd5b50600436106101165760003560e01c8063ac194422116100a2578063dca138e911610071578063dca138e914610245578063e77e72041461024d578063f3ae241514610260578063fc0e74d11461029c578063fd56ff27146102a457600080fd5b8063ac194422146101f4578063ad6e5f48146101fc578063c313693f1461020f578063c98091871461022f57600080fd5b806374899a7e116100e957806374899a7e1461017f578063772ce44c146101925780637ba06931146101bb5780638c5f9e74146101ce578063aa2f892d146101e157600080fd5b80630b8880101461011b57806310f3ee29146101325780632aa42396146101475780636829bda71461015a575b600080fd5b6004545b6040519081526020015b60405180910390f35b6101456101403660046113d9565b6102af565b005b610145610155366004611430565b6103e2565b6001546001600160a01b03165b6040516001600160a01b039091168152602001610129565b61014561018d3660046114a3565b6104ae565b6101676101a03660046114a3565b6000908152600760205260409020546001600160a01b031690565b6101456101c93660046114bc565b610590565b6101456101dc3660046113d9565b6105c3565b61011f6101ef3660046114a3565b6105f8565b60035461011f565b61014561020a3660046114a3565b610704565b61011f61021d3660046114a3565b60009081526006602052604090205490565b60005461010090046001600160a01b0316610167565b60055461011f565b61014561025b3660046114d9565b610734565b61028c61026e3660046114bc565b6001600160a01b031660009081526002602052604090205460ff1690565b6040519015158152602001610129565b610145610c80565b60005460ff1661028c565b6102bf6102ba610cdd565b610d0b565b6102db576040516282b42960e81b815260040160405180910390fd5b60005b818110156103dd5760008383838181106102fa576102fa611525565b905060200201602081019061030f91906114bc565b9050610333816001600160a01b031660009081526002602052604090205460ff1690565b6103845760405162461bcd60e51b815260206004820152601d60248201527f72656d6f76654d616e61676572733a204e6f742061206d616e6167657200000060448201526064015b60405180910390fd5b6001600160a01b038116600081815260026020526040808220805460ff19169055517fef69f7d97228658c92417be1b16b19058315de71fecb435d07b7d23728b6bd319190a250806103d581611551565b9150506102de565b505050565b60005461010090046001600160a01b0316156104105760405162dc149f60e41b815260040160405180910390fd5b6001600160a01b03851661043757604051632c276d8960e21b815260040160405180910390fd5b60008054610100600160a81b0319166101006001600160a01b0388160217905561046083610d99565b61046a8282610dd4565b61047384610ed5565b6040516001600160a01b038616907f908408e307fc569b417f6cbec5d5a06f44a0a505ac0479b47d421a4b2fd6a1e690600090a25050505050565b6000818152600760205260409020546001600160a01b03163381146104e5576040516282b42960e81b815260040160405180910390fd5b6000805460ff16806104f8575060045483105b905080610518576040516328c5214b60e01b815260040160405180910390fd5b60008381526006602090815260408083208054908490556007909252822080546001600160a01b0319169055905461055f9061010090046001600160a01b03168483610f1f565b60405184907fa96b5d0d7f26bd7262aefaa969b62e7b98f59439bca50822d598df9c16a20d6790600090a250505050565b61059b6102ba610cdd565b6105b7576040516282b42960e81b815260040160405180910390fd5b6105c081610ed5565b50565b6105ce6102ba610cdd565b6105ea576040516282b42960e81b815260040160405180910390fd5b6105f48282610dd4565b5050565b6000805460ff161561061d57604051631b0e923f60e11b815260040160405180910390fd5b8160000361063e57604051639811e0c760e01b815260040160405180910390fd5b600380543391600061064f83611551565b9091555060008181526006602090815260408083208790556007909152902080546001600160a01b0384166001600160a01b031990911617905591506106ba8130856106a96000546001600160a01b036101009091041690565b6001600160a01b0316929190610f2a565b806001600160a01b0316827f6287dcdc3117a17e5a7b04a75285c1b8b6c663f8f0180f0a6ef85b56c8ac0d5a856040516106f691815260200190565b60405180910390a350919050565b61070f6102ba610cdd565b61072b576040516282b42960e81b815260040160405180910390fd5b6105c081610d99565b60005460ff161561075857604051631b0e923f60e11b815260040160405180910390fd5b6000610762610cdd565b90506000610788826001600160a01b031660009081526002602052604090205460ff1690565b80610797575061079782610d0b565b9050806107b6576040516282b42960e81b815260040160405180910390fd5b60035485106107d857604051637db3aba760e01b815260040160405180910390fd5b60006107e360045490565b90506107f086600161156a565b60045560006107ff828861157d565b61080a90600161156a565b905060008167ffffffffffffffff81111561082757610827611590565b604051908082528060200260200182016040528015610850578160200160208202803683370190505b50905060008267ffffffffffffffff81111561086e5761086e611590565b604051908082528060200260200182016040528015610897578160200160208202803683370190505b5090506000845b8a8111610a145760006108b1878361157d565b60008381526006602052604081205491925050610904838d8d808060200260200160405190810160405280939291908181526020018383602002808284376000920191909152509293925050610f3c9050565b1561095e5760055481111561092c57604051634abddacf60e11b815260040160405180910390fd5b60405183907f97e32df2d646f7a7b90ef51d66fda528a3bc3607e898022e504e66cf278d423590600090a25050610a02565b6000838152600760205260408120546001600160a01b031690508087848151811061098b5761098b611525565b60200260200101906001600160a01b031690816001600160a01b031681525050818684815181106109be576109be611525565b60209081029190910101526109d3828661156a565b60008581526006602090815260408083208390556007909152902080546001600160a01b031916905594505050505b80610a0c81611551565b91505061089e565b506000610a296001546001600160a01b031690565b90506000807f00000000000000000000000000000000000000000000000000000000000000006001600160a01b0316632441593c610a756000546001600160a01b036101009091041690565b6040516001600160e01b031960e084901b1681526001600160a01b0391821660048201523060248201529086166044820152606481018790526001608482015260a401600060405180830381865afa158015610ad5573d6000803e3d6000fd5b505050506040513d6000823e601f3d908101601f19168201604052610afd91908101906115ca565b9092509050610b156001600160a01b03831682610f91565b506040516370a0823160e01b81523060048201526000906001600160a01b038516906370a0823190602401602060405180830381865afa158015610b5d573d6000803e3d6000fd5b505050506040513d601f19601f82011682018060405250810190610b81919061168d565b9050885b8e8111610c6f576000610b988b8361157d565b90506000888281518110610bae57610bae611525565b6020026020010151905080600003610bc7575050610c5d565b60008a8381518110610bdb57610bdb611525565b602002602001015190506000898387610bf491906116a6565b610bfe91906116bd565b9050610c146001600160a01b038a168383610f1f565b886001600160a01b0316857fa18626381edd3d7a115c4a09f678bb79665034a541affcdba9fe65a1d3d107ee83604051610c5091815260200190565b60405180910390a3505050505b80610c6781611551565b915050610b85565b505050505050505050505050505050565b610c8b6102ba610cdd565b610ca7576040516282b42960e81b815260040160405180910390fd5b6000805460ff191660011781556040517f4426aa1fb73e391071491fcfe21a88b5c38a0a0333a1f6e77161470439704cf89190a1565b600060143610801590610cf45750610cf433610fdc565b15610d06575060131936013560601c90565b503390565b6000805461010090046001600160a01b03166001600160a01b031663893d20e86040518163ffffffff1660e01b8152600401602060405180830381865afa158015610d5a573d6000803e3d6000fd5b505050506040513d601f19601f82011682018060405250810190610d7e91906116df565b6001600160a01b0316826001600160a01b0316149050919050565b60058190556040518181527f3d5b4dcc7570f13bb7739aecd28f7512517b8bdf7d4fc250ff1a79febdf5307a9060200160405180910390a150565b60005b818110156103dd576000838383818110610df357610df3611525565b9050602002016020810190610e0891906114bc565b9050610e2c816001600160a01b031660009081526002602052604090205460ff1690565b15610e795760405162461bcd60e51b815260206004820152601e60248201527f5f5f6164644d616e61676572733a20416c7265616479206d616e616765720000604482015260640161037b565b6001600160a01b038116600081815260026020526040808220805460ff19166001179055517f3b4a40cccf2058c593542587329dd385be4f0b588db5471fbd9598e56dd7093a9190a25080610ecd81611551565b915050610dd7565b600180546001600160a01b0319166001600160a01b0383169081179091556040517f410f9465288aecd0c52f8000879de6419ab719bcb75db47009c66d629155208e90600090a250565b6103dd838383611091565b610f36848484846110f4565b50505050565b6000805b8351811015610f8557838181518110610f5b57610f5b611525565b60200260200101518303610f73576001915050610f8b565b80610f7d81611551565b915050610f40565b50600090505b92915050565b6060610fd5838360006040518060400160405280601e81526020017f416464726573733a206c6f772d6c6576656c2063616c6c206661696c6564000081525061112c565b9392505050565b6040516307158c8160e21b81527f000000000000000000000000000000000000000000000000000000000000000060048201526001600160a01b0382811660248301526000917f000000000000000000000000000000000000000000000000000000000000000090911690631c56320490604401602060405180830381865afa15801561106d573d6000803e3d6000fd5b505050506040513d601f19601f82011682018060405250810190610f8b91906116fc565b6040516001600160a01b0383166024820152604481018290526103dd90849063a9059cbb60e01b906064015b60408051601f198184030181529190526020810180516001600160e01b03166001600160e01b031990931692909217909152611209565b6040516001600160a01b0380851660248301528316604482015260648101829052610f369085906323b872dd60e01b906084016110bd565b60608247101561118d5760405162461bcd60e51b815260206004820152602660248201527f416464726573733a20696e73756666696369656e742062616c616e636520666f6044820152651c8818d85b1b60d21b606482015260840161037b565b600080866001600160a01b031685876040516111a9919061171e565b60006040518083038185875af1925050503d80600081146111e6576040519150601f19603f3d011682016040523d82523d6000602084013e6111eb565b606091505b50915091506111fc878383876112db565b925050505b949350505050565b600061125e826040518060400160405280602081526020017f5361666545524332303a206c6f772d6c6576656c2063616c6c206661696c6564815250856001600160a01b03166113549092919063ffffffff16565b8051909150156103dd578080602001905181019061127c91906116fc565b6103dd5760405162461bcd60e51b815260206004820152602a60248201527f5361666545524332303a204552433230206f7065726174696f6e20646964206e6044820152691bdd081cdd58d8d9595960b21b606482015260840161037b565b6060831561134a578251600003611343576001600160a01b0385163b6113435760405162461bcd60e51b815260206004820152601d60248201527f416464726573733a2063616c6c20746f206e6f6e2d636f6e7472616374000000604482015260640161037b565b5081611201565b6112018383611363565b6060611201848460008561112c565b8151156113735781518083602001fd5b8060405162461bcd60e51b815260040161037b919061173a565b60008083601f84011261139f57600080fd5b50813567ffffffffffffffff8111156113b757600080fd5b6020830191508360208260051b85010111156113d257600080fd5b9250929050565b600080602083850312156113ec57600080fd5b823567ffffffffffffffff81111561140357600080fd5b61140f8582860161138d565b90969095509350505050565b6001600160a01b03811681146105c057600080fd5b60008060008060006080868803121561144857600080fd5b85356114538161141b565b945060208601356114638161141b565b935060408601359250606086013567ffffffffffffffff81111561148657600080fd5b6114928882890161138d565b969995985093965092949392505050565b6000602082840312156114b557600080fd5b5035919050565b6000602082840312156114ce57600080fd5b8135610fd58161141b565b6000806000604084860312156114ee57600080fd5b83359250602084013567ffffffffffffffff81111561150c57600080fd5b6115188682870161138d565b9497909650939450505050565b634e487b7160e01b600052603260045260246000fd5b634e487b7160e01b600052601160045260246000fd5b6000600182016115635761156361153b565b5060010190565b80820180821115610f8b57610f8b61153b565b81810381811115610f8b57610f8b61153b565b634e487b7160e01b600052604160045260246000fd5b60005b838110156115c15781810151838201526020016115a9565b50506000910152565b600080604083850312156115dd57600080fd5b82516115e88161141b565b602084015190925067ffffffffffffffff8082111561160657600080fd5b818501915085601f83011261161a57600080fd5b81518181111561162c5761162c611590565b604051601f8201601f19908116603f0116810190838211818310171561165457611654611590565b8160405282815288602084870101111561166d57600080fd5b61167e8360208301602088016115a6565b80955050505050509250929050565b60006020828403121561169f57600080fd5b5051919050565b8082028115828204841417610f8b57610f8b61153b565b6000826116da57634e487b7160e01b600052601260045260246000fd5b500490565b6000602082840312156116f157600080fd5b8151610fd58161141b565b60006020828403121561170e57600080fd5b81518015158114610fd557600080fd5b600082516117308184602087016115a6565b9190910192915050565b60208152600082518060208401526117598160408501602087016115a6565b601f01601f1916919091016040019291505056","linkReferences":{}},"methodIdentifiers":{"addManagers(address[])":"8c5f9e74","getBypassableSharesThreshold()":"dca138e9","getNextNewId()":"ac194422","getNextQueuedId()":"0b888010","getRedemptionAsset()":"6829bda7","getSharesForRequest(uint256)":"c313693f","getUserForRequest(uint256)":"772ce44c","getVaultProxy()":"c9809187","init(address,address,uint256,address[])":"2aa42396","isManager(address)":"f3ae2415","queueIsShutdown()":"fd56ff27","redeemFromQueue(uint256,uint256[])":"e77e7204","removeManagers(address[])":"10f3ee29","requestRedeem(uint256)":"aa2f892d","setBypassableSharesThreshold(uint256)":"ad6e5f48","setRedemptionAsset(address)":"7ba06931","shutdown()":"fc0e74d1","withdrawRequest(uint256)":"74899a7e"},"id":63}