{"abi":[{"type":"constructor","inputs":[{"name":"_initialBondOfferingMarket","type":"address","internalType":"address"}],"stateMutability":"nonpayable"},{"type":"function","name":"getDebtAssets","inputs":[],"outputs":[{"name":"assets_","type":"address[]","internalType":"address[]"},{"name":"amounts_","type":"uint256[]","internalType":"uint256[]"}],"stateMutability":"nonpayable"},{"type":"function","name":"getManagedAssets","inputs":[],"outputs":[{"name":"assets_","type":"address[]","internalType":"address[]"},{"name":"amounts_","type":"uint256[]","internalType":"uint256[]"}],"stateMutability":"nonpayable"},{"type":"function","name":"getVoucherTokenIds","inputs":[],"outputs":[{"name":"voucherTokenIds_","type":"tuple[]","internalType":"struct SolvV2BondBuyerPositionLibBase1.VoucherTokenId[]","components":[{"name":"voucher","type":"address","internalType":"address"},{"name":"tokenId","type":"uint32","internalType":"uint32"}]}],"stateMutability":"view"},{"type":"function","name":"init","inputs":[{"name":"","type":"bytes","internalType":"bytes"}],"outputs":[],"stateMutability":"nonpayable"},{"type":"function","name":"onVNFTReceived","inputs":[{"name":"","type":"address","internalType":"address"},{"name":"","type":"address","internalType":"address"},{"name":"","type":"uint256","internalType":"uint256"},{"name":"","type":"uint256","internalType":"uint256"},{"name":"","type":"bytes","internalType":"bytes"}],"outputs":[{"name":"selector_","type":"bytes4","internalType":"bytes4"}],"stateMutability":"pure"},{"type":"function","name":"receiveCallFromVault","inputs":[{"name":"_actionData","type":"bytes","internalType":"bytes"}],"outputs":[],"stateMutability":"nonpayable"},{"type":"event","name":"VoucherTokenIdAdded","inputs":[{"name":"voucher","type":"address","indexed":true,"internalType":"address"},{"name":"tokenId","type":"uint32","indexed":true,"internalType":"uint32"}],"anonymous":false},{"type":"event","name":"VoucherTokenIdRemoved","inputs":[{"name":"voucher","type":"address","indexed":true,"internalType":"address"},{"name":"tokenId","type":"uint32","indexed":true,"internalType":"uint32"}],"anonymous":false}],"bytecode":{"object":"0x60a06040523480156200001157600080fd5b50604051620026893803806200268983398101604081905262000034916200005d565b60601b6001600160601b031916608052620000b2565b8051620000578162000098565b92915050565b6000602082840312156200007057600080fd5b60006200007e84846200004a565b949350505050565b60006001600160a01b03821662000057565b620000a38162000086565b8114620000af57600080fd5b50565b60805160601c6125aa620000df60003980610da15280610ebe5280610efc5280610f9652506125aa6000f3fe608060405234801561001057600080fd5b50600436106100625760003560e01c80634ddf47d41461006757806380daddb81461007c578063b382cdcd1461009b578063e5c23a97146100bb578063ecd658b4146100ce578063f4c1032a146100d6575b600080fd5b61007a610075366004611c9d565b6100eb565b005b6100846100ee565b6040516100929291906122bc565b60405180910390f35b6100ae6100a9366004611bef565b6101cb565b60405161009291906122f2565b61007a6100c9366004611c9d565b6101f6565b61008461025e565b6100de610264565b60405161009291906122e1565b50565b60608060606100fb610264565b805190915060005b818110156101b657610113611720565b83828151811061011f57fe5b6020026020010151905060608061013e836000015184602001516102dd565b9150915060005b82518110156101a65761017483828151811061015d57fe5b60200260200101518a6109ba90919063ffffffff16565b985061019c82828151811061018557fe5b602002602001015189610a8690919063ffffffff16565b9750600101610145565b5050600190920191506101039050565b506101c18484610b30565b9350935050509091565b7fb382cdcdbd920ddd5cea8c35269cf1a93503df07a561581b76664c03c351b58b9695505050505050565b600060608280602001905181019061020e9190611d86565b9092509050816102265761022181610d72565b610259565b60018214156102385761022181610fd4565b60405162461bcd60e51b815260040161025090612341565b60405180910390fd5b505050565b60608091565b60606000805480602002602001604051908101604052809291908181526020016000905b828210156102d457600084815260209081902060408051808201909152908401546001600160a01b0381168252600160a01b900463ffffffff1681830152825260019092019101610288565b50505050905090565b60608060008490506000816001600160a01b0316634118ca7d6040518163ffffffff1660e01b815260040160206040518083038186803b15801561032057600080fd5b505afa158015610334573d6000803e3d6000fd5b505050506040513d601f19601f820116820180604052508101906103589190611b84565b90506000826001600160a01b031663bde4c3cb876040518263ffffffff1660e01b815260040161038891906123e6565b602060405180830381600087803b1580156103a257600080fd5b505af11580156103b6573d6000803e3d6000fd5b505050506040513d601f19601f820116820180604052508101906103da9190611d68565b90506000826001600160a01b031663fb7056b7836040518263ffffffff1660e01b815260040161040a91906123ca565b60206040518083038186803b15801561042257600080fd5b505afa158015610436573d6000803e3d6000fd5b505050506040513d601f19601f8201168201806040525081019061045a9190611d10565b90506000816001600160801b0316116104855760405162461bcd60e51b815260040161025090612361565b61048d611737565b60405163d3ceafb960e01b81526001600160a01b0386169063d3ceafb9906104b99086906004016123ca565b6101a06040518083038186803b1580156104d257600080fd5b505afa1580156104e6573d6000803e3d6000fd5b505050506040513d601f19601f8201168201806040525081019061050a9190611cf1565b90506000856001600160a01b031663becef6078a6040518263ffffffff1660e01b815260040161053a91906123e6565b60206040518083038186803b15801561055257600080fd5b505afa158015610566573d6000803e3d6000fd5b505050506040513d601f19601f8201168201806040525081019061058a9190611d68565b9050600080836101200151156106fc5761069f876001600160a01b0316633e7e86696040518163ffffffff1660e01b815260040160206040518083038186803b1580156105d657600080fd5b505afa1580156105ea573d6000803e3d6000fd5b505050506040513d601f19601f8201168201806040525081019061060e9190611e0b565b60ff16600a0a61069986602001516001600160a01b031663313ce5676040518163ffffffff1660e01b815260040160206040518083038186803b15801561065457600080fd5b505afa158015610668573d6000803e3d6000fd5b505050506040513d601f19601f8201168201806040525081019061068c9190611e0b565b869060ff16600a0a61115d565b9061119e565b915083608001516001600160801b0316856001600160801b031611156106f7576106f46106d5846001600160801b03881661119e565b60808601516106ee9086906001600160801b031661119e565b906111d0565b90505b610762565b83606001516001600160801b0316856001600160801b03161015610726578360600151945061074c565b83608001516001600160801b0316856001600160801b0316111561074c57836080015194505b61075f836001600160801b03871661119e565b90505b811561081b57602084015160405163e55ced3160e01b81526000916001600160a01b038a169163e55ced319161079d918b91906004016123d8565b60206040518083038186803b1580156107b557600080fd5b505afa1580156107c9573d6000803e3d6000fd5b505050506040513d601f19601f820116820180604052508101906107ed9190611d68565b9050808311156107fb578092505b602085015161080b908c906109ba565b9a506108178a84610a86565b9950505b80156109aa576000876001600160a01b031663e55ced31888b6001600160a01b0316636f307dc36040518163ffffffff1660e01b815260040160206040518083038186803b15801561086c57600080fd5b505afa158015610880573d6000803e3d6000fd5b505050506040513d601f19601f820116820180604052508101906108a49190611b84565b6040518363ffffffff1660e01b81526004016108c19291906123d8565b60206040518083038186803b1580156108d957600080fd5b505afa1580156108ed573d6000803e3d6000fd5b505050506040513d601f19601f820116820180604052508101906109119190611d68565b90508082111561091f578091505b61099a896001600160a01b0316636f307dc36040518163ffffffff1660e01b815260040160206040518083038186803b15801561095b57600080fd5b505afa15801561096f573d6000803e3d6000fd5b505050506040513d601f19601f820116820180604052508101906109939190611b84565b8c906109ba565b9a506109a68a83610a86565b9950505b50505050505050505b9250929050565b6060825160010167ffffffffffffffff811180156109d757600080fd5b50604051908082528060200260200182016040528015610a01578160200160208202803683370190505b50905060005b8351811015610a5057838181518110610a1c57fe5b6020026020010151828281518110610a3057fe5b6001600160a01b0390921660209283029190910190910152600101610a07565b508181845181518110610a5f57fe5b60200260200101906001600160a01b031690816001600160a01b0316815250505b92915050565b6060825160010167ffffffffffffffff81118015610aa357600080fd5b50604051908082528060200260200182016040528015610acd578160200160208202803683370190505b50905060005b8351811015610b0f57838181518110610ae857fe5b6020026020010151828281518110610afc57fe5b6020908102919091010152600101610ad3565b508181845181518110610b1e57fe5b60200260200101818152505092915050565b606080835160001415610b42576109b3565b6001805b8551811015610bc2576000805b82811015610bac57878181518110610b6757fe5b60200260200101516001600160a01b0316888481518110610b8457fe5b60200260200101516001600160a01b03161415610ba45760019150610bac565b600101610b53565b5080610bb9576001909201915b50600101610b46565b508067ffffffffffffffff81118015610bda57600080fd5b50604051908082528060200260200182016040528015610c04578160200160208202803683370190505b5092508067ffffffffffffffff81118015610c1e57600080fd5b50604051908082528060200260200182016040528015610c48578160200160208202803683370190505b5091506000805b8651811015610d68576000805b83811015610ce757868181518110610c7057fe5b60200260200101516001600160a01b0316898481518110610c8d57fe5b60200260200101516001600160a01b03161415610cdf5760019150878381518110610cb457fe5b6020026020010151868281518110610cc857fe5b602002602001018181510191508181525050610ce7565b600101610c5c565b5080610d5f57878281518110610cf957fe5b6020026020010151868481518110610d0d57fe5b60200260200101906001600160a01b031690816001600160a01b031681525050868281518110610d3957fe5b6020026020010151858481518110610d4d57fe5b60209081029190910101526001909201915b50600101610c4f565b5050509250929050565b600080610d7e836111f8565b91509150610d8a6117a0565b6040516309cfb2ab60e41b81526001600160a01b037f00000000000000000000000000000000000000000000000000000000000000001690639cfb2ab090610dd69086906004016123a1565b6101a06040518083038186803b158015610def57600080fd5b505afa158015610e03573d6000803e3d6000fd5b505050506040513d601f19601f82011682018060405250810190610e279190611cd2565b9050600081610100015190506000816001600160a01b03166375794a3c6040518163ffffffff1660e01b815260040160206040518083038186803b158015610e6e57600080fd5b505afa158015610e82573d6000803e3d6000fd5b505050506040513d601f19601f82011682018060405250810190610ea69190611ded565b610120840151909150610ee56001600160a01b0382167f0000000000000000000000000000000000000000000000000000000000000000600019611218565b6040516341ec4ef360e01b81526001600160a01b037f000000000000000000000000000000000000000000000000000000000000000016906341ec4ef390610f3390899089906004016123af565b6040805180830381600087803b158015610f4c57600080fd5b505af1158015610f60573d6000803e3d6000fd5b505050506040513d601f19601f82011682018060405250810190610f849190611dce565b50610fbc90506001600160a01b0382167f00000000000000000000000000000000000000000000000000000000000000006000611218565b610fcb84610100015183611312565b50505050505050565b6000806000610fe2846113ca565b60405163becef60760e01b8152929550909350915083906000906001600160a01b0383169063becef6079061101b9087906004016123e6565b60206040518083038186803b15801561103357600080fd5b505afa158015611047573d6000803e3d6000fd5b505050506040513d601f19601f8201168201806040525081019061106b9190611d68565b905060001983148061107c57508083145b156110f257604051637e2985f360e01b81526001600160a01b03831690637e2985f3906110b1908790339086906004016123f4565b600060405180830381600087803b1580156110cb57600080fd5b505af11580156110df573d6000803e3d6000fd5b505050506110ed85856113f0565b611155565b604051637e2985f360e01b81526001600160a01b03831690637e2985f390611122908790339088906004016123f4565b600060405180830381600087803b15801561113c57600080fd5b505af1158015611150573d6000803e3d6000fd5b505050505b505050505050565b60008261116c57506000610a80565b8282028284828161117957fe5b04146111975760405162461bcd60e51b815260040161025090612351565b9392505050565b60008082116111bf5760405162461bcd60e51b815260040161025090612331565b8183816111c857fe5b049392505050565b6000828211156111f25760405162461bcd60e51b815260040161025090612311565b50900390565b6000808280602001905181019061120f9190611d2e565b91509150915091565b8015806112a05750604051636eb1769f60e11b81526001600160a01b0384169063dd62ed3e9061124e9030908690600401612286565b60206040518083038186803b15801561126657600080fd5b505afa15801561127a573d6000803e3d6000fd5b505050506040513d601f19601f8201168201806040525081019061129e9190611d68565b155b6112bc5760405162461bcd60e51b815260040161025090612391565b6102598363095ea7b360e01b84846040516024016112db9291906122a1565b60408051601f198184030181529190526020810180516001600160e01b03166001600160e01b03199093169290921790915261157a565b6040805180820182526001600160a01b0384811680835263ffffffff858116602085018181526000805460018101825581805296517f290decd9548b62a8d60345a988386fc84ba6bc95484008f6362f93160ef3e563909701805492516001600160a01b0319909316979096169690961763ffffffff60a01b1916600160a01b91909316029190911790925592519092917f9064e110f4af8c3afc5cb815841bb7b2d7b4324b194a740015a249c929d3d0c791a35050565b6000806000838060200190518101906113e39190611ba2565b9250925092509193909250565b60008054905b8181101561157457611406611720565b6000828154811061141357fe5b6000918252602091829020604080518082019091529101546001600160a01b038116825263ffffffff600160a01b909104811692820183905290925085161480156114735750846001600160a01b031681600001516001600160a01b0316145b1561156b57600183038210156114fb576000600184038154811061149357fe5b90600052602060002001600083815481106114aa57fe5b600091825260209091208254910180546001600160a01b0319166001600160a01b0390921691909117808255915463ffffffff600160a01b91829004160263ffffffff60a01b199092169190911790555b600080548061150657fe5b600082815260208120820160001990810180546001600160c01b031916905590910190915560405163ffffffff8616916001600160a01b038816917f0d5bcf97415af39ded48a8e8b4386016db43ed02862eefbd9e5b466c4329ad959190a350611574565b506001016113f6565b50505050565b60606115cf826040518060400160405280602081526020017f5361666545524332303a206c6f772d6c6576656c2063616c6c206661696c6564815250856001600160a01b03166116099092919063ffffffff16565b80519091501561025957808060200190518101906115ed9190611c7f565b6102595760405162461bcd60e51b815260040161025090612381565b60606116188484600085611620565b949350505050565b6060824710156116425760405162461bcd60e51b815260040161025090612321565b61164b856116e1565b6116675760405162461bcd60e51b815260040161025090612371565b60006060866001600160a01b03168587604051611684919061227a565b60006040518083038185875af1925050503d80600081146116c1576040519150601f19603f3d011682016040523d82523d6000602084013e6116c6565b606091505b50915091506116d68282866116e7565b979650505050505050565b3b151590565b606083156116f6575081611197565b8251156117065782518084602001fd5b8160405162461bcd60e51b81526004016102509190612300565b604080518082019091526000808252602082015290565b604080516101a081018252600080825260208201819052918101829052606081018290526080810182905260a0810182905260c0810182905260e08101829052906101008201908152600060208201819052604082018190526060820181905260809091015290565b604080516101a081018252600080825260208201819052918101829052906060820190815260006020820181905260408201819052606082018190526080820181905260a0820181905260c0820181905260e0820181905261010082018190526101209091015290565b8035610a808161253d565b8051610a808161253d565b8051610a8081612551565b60008083601f84011261183d57600080fd5b50813567ffffffffffffffff81111561185557600080fd5b6020830191508360018202830111156109b357600080fd5b600082601f83011261187e57600080fd5b813561189161188c82612443565b61241c565b915080825260208301602083018583830111156118ad57600080fd5b6118b88382846124fb565b50505092915050565b600082601f8301126118d257600080fd5b81516118e061188c82612443565b915080825260208301602083018583830111156118fc57600080fd5b6118b8838284612507565b8051610a808161255a565b60006101a0828403121561192557600080fd5b6119306101a061241c565b9050600061193e8484611b42565b825250602061194f84848301611b63565b602083015250604061196384828501611b63565b604083015250606061197784828501611907565b606083015250608061198b84828501611b37565b60808301525060a061199f84828501611b37565b60a08301525060c06119b384828501611b37565b60c08301525060e06119c784828501611b37565b60e0830152506101006119dc84828501611815565b610100830152506101206119f284828501611815565b61012083015250610140611a0884828501611815565b61014083015250610160611a1e84828501611820565b61016083015250610180611a3484828501611820565b6101808301525092915050565b60006101a08284031215611a5457600080fd5b611a5f6101a061241c565b90506000611a6d8484611815565b8252506020611a7e84848301611815565b6020830152506040611a9284828501611b58565b6040830152506060611aa684828501611b37565b6060830152506080611aba84828501611b37565b60808301525060a0611ace84828501611b37565b60a08301525060c0611ae284828501611b6e565b60c08301525060e0611af684828501611b6e565b60e083015250610100611b0b84828501611907565b61010083015250610120611b2184828501611820565b61012083015250610140611a0884828501611820565b8051610a8081612567565b8051610a8081612570565b8035610a8081612579565b8051610a8081612579565b8051610a8081612582565b8051610a808161258b565b8051610a8081612594565b600060208284031215611b9657600080fd5b60006116188484611815565b600080600060608486031215611bb757600080fd5b6000611bc38686611815565b9350506020611bd486828701611b63565b9250506040611be586828701611b58565b9150509250925092565b60008060008060008060a08789031215611c0857600080fd5b6000611c14898961180a565b9650506020611c2589828a0161180a565b9550506040611c3689828a01611b4d565b9450506060611c4789828a01611b4d565b935050608087013567ffffffffffffffff811115611c6457600080fd5b611c7089828a0161182b565b92509250509295509295509295565b600060208284031215611c9157600080fd5b60006116188484611820565b600060208284031215611caf57600080fd5b813567ffffffffffffffff811115611cc657600080fd5b6116188482850161186d565b60006101a08284031215611ce557600080fd5b60006116188484611912565b60006101a08284031215611d0457600080fd5b60006116188484611a41565b600060208284031215611d2257600080fd5b60006116188484611b37565b60008060408385031215611d4157600080fd5b6000611d4d8585611b42565b9250506020611d5e85828601611b37565b9150509250929050565b600060208284031215611d7a57600080fd5b60006116188484611b58565b60008060408385031215611d9957600080fd5b6000611da58585611b58565b925050602083015167ffffffffffffffff811115611dc257600080fd5b611d5e858286016118c1565b60008060408385031215611de157600080fd5b6000611d4d8585611b58565b600060208284031215611dff57600080fd5b60006116188484611b63565b600060208284031215611e1d57600080fd5b60006116188484611b79565b6000611e358383611e6c565b505060200190565b6000611e498383612229565b505060400190565b6000611e35838361225f565b611e66816124df565b82525050565b611e6681612483565b6000611e8082612471565b611e8a8185612475565b9350611e958361246b565b8060005b83811015611ec3578151611ead8882611e29565b9750611eb88361246b565b925050600101611e99565b509495945050505050565b6000611ed982612471565b611ee38185612475565b9350611eee8361246b565b8060005b83811015611ec3578151611f068882611e3d565b9750611f118361246b565b925050600101611ef2565b6000611f2782612471565b611f318185612475565b9350611f3c8361246b565b8060005b83811015611ec3578151611f548882611e51565b9750611f5f8361246b565b925050600101611f40565b611e6681612493565b6000611f7e82612471565b611f88818561247e565b9350611f98818560208601612507565b9290920192915050565b6000611fad82612471565b611fb78185612475565b9350611fc7818560208601612507565b611fd081612533565b9093019392505050565b6000611fe7601e83612475565b7f536166654d6174683a207375627472616374696f6e206f766572666c6f770000815260200192915050565b6000612020602683612475565b7f416464726573733a20696e73756666696369656e742062616c616e636520666f8152651c8818d85b1b60d21b602082015260400192915050565b6000612068601a83612475565b7f536166654d6174683a206469766973696f6e206279207a65726f000000000000815260200192915050565b60006120a1602683612475565b7f7265636569766543616c6c46726f6d5661756c743a20496e76616c69642061638152651d1a5bdb925960d21b602082015260400192915050565b60006120e9602183612475565b7f536166654d6174683a206d756c7469706c69636174696f6e206f766572666c6f8152607760f81b602082015260400192915050565b600061212c601183612475565b70141c9a58d9481b9bdd081cd95d1d1b1959607a1b815260200192915050565b6000612159601d83612475565b7f416464726573733a2063616c6c20746f206e6f6e2d636f6e7472616374000000815260200192915050565b6000612192602a83612475565b7f5361666545524332303a204552433230206f7065726174696f6e20646964206e8152691bdd081cdd58d8d9595960b21b602082015260400192915050565b60006121de603683612475565b7f5361666545524332303a20617070726f76652066726f6d206e6f6e2d7a65726f81527520746f206e6f6e2d7a65726f20616c6c6f77616e636560501b602082015260400192915050565b8051604083019061223a8482611e6c565b5060208201516115746020850182612271565b611e66816124a0565b611e66816124b8565b611e66816124c0565b611e66816124f0565b611e66816124c3565b60006111978284611f73565b604081016122948285611e6c565b6111976020830184611e6c565b604081016122af8285611e6c565b611197602083018461225f565b604080825281016122cd8185611e75565b905081810360208301526116188184611f1c565b602080825281016111978184611ece565b60208101610a808284611f6a565b602080825281016111978184611fa2565b60208082528101610a8081611fda565b60208082528101610a8081612013565b60208082528101610a808161205b565b60208082528101610a8081612094565b60208082528101610a80816120dc565b60208082528101610a808161211f565b60208082528101610a808161214c565b60208082528101610a8081612185565b60208082528101610a80816121d1565b60208101610a808284612256565b604081016123bd8285612256565b611197602083018461224d565b60208101610a80828461225f565b60408101612294828561225f565b60208101610a808284612268565b606081016124028286612268565b61240f6020830185611e5d565b611618604083018461225f565b60405181810167ffffffffffffffff8111828210171561243b57600080fd5b604052919050565b600067ffffffffffffffff82111561245a57600080fd5b506020601f91909101601f19160190565b60200190565b5190565b90815260200190565b919050565b6000610a80826124ac565b151590565b6001600160e01b03191690565b6001600160801b031690565b6001600160a01b031690565b62ffffff1690565b90565b63ffffffff1690565b67ffffffffffffffff1690565b60ff1690565b6000610a80826000610a8082612483565b6000610a80826124c3565b82818337506000910152565b60005b8381101561252257818101518382015260200161250a565b838111156115745750506000910152565b601f01601f191690565b61254681612483565b81146100eb57600080fd5b6125468161248e565b600281106100eb57600080fd5b612546816124a0565b612546816124b8565b612546816124c0565b612546816124c3565b612546816124cc565b612546816124d956fea164736f6c634300060c000a","linkReferences":{}},"methodIdentifiers":{"getDebtAssets()":"ecd658b4","getManagedAssets()":"80daddb8","getVoucherTokenIds()":"f4c1032a","init(bytes)":"4ddf47d4","onVNFTReceived(address,address,uint256,uint256,bytes)":"b382cdcd","receiveCallFromVault(bytes)":"e5c23a97"},"id":175}