{"abi":[{"type":"constructor","inputs":[{"name":"_initialBondOfferingMarket","type":"address","internalType":"address"}],"stateMutability":"nonpayable"},{"type":"function","name":"getDebtAssets","inputs":[],"outputs":[{"name":"assets_","type":"address[]","internalType":"address[]"},{"name":"amounts_","type":"uint256[]","internalType":"uint256[]"}],"stateMutability":"nonpayable"},{"type":"function","name":"getManagedAssets","inputs":[],"outputs":[{"name":"assets_","type":"address[]","internalType":"address[]"},{"name":"amounts_","type":"uint256[]","internalType":"uint256[]"}],"stateMutability":"nonpayable"},{"type":"function","name":"getVoucherTokenIds","inputs":[],"outputs":[{"name":"voucherTokenIds_","type":"tuple[]","internalType":"struct SolvV2BondBuyerPositionLibBase1.VoucherTokenId[]","components":[{"name":"voucher","type":"address","internalType":"address"},{"name":"tokenId","type":"uint32","internalType":"uint32"}]}],"stateMutability":"view"},{"type":"function","name":"init","inputs":[{"name":"","type":"bytes","internalType":"bytes"}],"outputs":[],"stateMutability":"nonpayable"},{"type":"function","name":"onVNFTReceived","inputs":[{"name":"","type":"address","internalType":"address"},{"name":"","type":"address","internalType":"address"},{"name":"","type":"uint256","internalType":"uint256"},{"name":"","type":"uint256","internalType":"uint256"},{"name":"","type":"bytes","internalType":"bytes"}],"outputs":[{"name":"selector_","type":"bytes4","internalType":"bytes4"}],"stateMutability":"pure"},{"type":"function","name":"receiveCallFromVault","inputs":[{"name":"_actionData","type":"bytes","internalType":"bytes"}],"outputs":[],"stateMutability":"nonpayable"},{"type":"event","name":"VoucherTokenIdAdded","inputs":[{"name":"voucher","type":"address","indexed":true,"internalType":"address"},{"name":"tokenId","type":"uint32","indexed":true,"internalType":"uint32"}],"anonymous":false},{"type":"event","name":"VoucherTokenIdRemoved","inputs":[{"name":"voucher","type":"address","indexed":true,"internalType":"address"},{"name":"tokenId","type":"uint32","indexed":true,"internalType":"uint32"}],"anonymous":false}],"bytecode":{"object":"0x60a06040523480156200001157600080fd5b506040516200355b3803806200355b83398181016040528101906200003791906200008c565b8073ffffffffffffffffffffffffffffffffffffffff1660808173ffffffffffffffffffffffffffffffffffffffff1660601b815250505062000106565b6000815190506200008681620000ec565b92915050565b6000602082840312156200009f57600080fd5b6000620000af8482850162000075565b91505092915050565b6000620000c582620000cc565b9050919050565b600073ffffffffffffffffffffffffffffffffffffffff82169050919050565b620000f781620000b8565b81146200010357600080fd5b50565b60805160601c613428620001336000398061109d52806111e2528061124a52806112fb52506134286000f3fe608060405234801561001057600080fd5b50600436106100625760003560e01c80634ddf47d41461006757806380daddb814610083578063b382cdcd146100a2578063e5c23a97146100d2578063ecd658b4146100ee578063f4c1032a1461010d575b600080fd5b610081600480360381019061007c91906125ec565b61012b565b005b61008b61012e565b604051610099929190612de9565b60405180910390f35b6100bc60048036038101906100b79190612531565b610214565b6040516100c99190612e42565b60405180910390f35b6100ec60048036038101906100e791906125ec565b610243565b005b6100f66102e3565b604051610104929190612de9565b60405180910390f35b6101156102e9565b6040516101229190612e20565b60405180910390f35b50565b606080606061013b6102e9565b905060008151905060005b818110156101ff57610156611e15565b83828151811061016257fe5b60200260200101519050606080610181836000015184602001516103c0565b9150915060005b82518110156101ee576101b78382815181106101a057fe5b60200260200101518a610c0090919063ffffffff16565b98506101df8282815181106101c857fe5b602002602001015189610d1190919063ffffffff16565b97508080600101915050610188565b505050508080600101915050610146565b5061020a8484610dc6565b9350935050509091565b60007fb382cdcdbd920ddd5cea8c35269cf1a93503df07a561581b76664c03c351b58b90509695505050505050565b600060608280602001905181019061025b919061270f565b915091506000600181111561026c57fe5b8214156102815761027c81611083565b6102de565b60018081111561028d57fe5b8214156102a25761029d8161135a565b6102dd565b6040517f08c379a00000000000000000000000000000000000000000000000000000000081526004016102d490612edf565b60405180910390fd5b5b505050565b60608091565b60606000805480602002602001604051908101604052809291908181526020016000905b828210156103b7578382906000526020600020016040518060400160405290816000820160009054906101000a900473ffffffffffffffffffffffffffffffffffffffff1673ffffffffffffffffffffffffffffffffffffffff1673ffffffffffffffffffffffffffffffffffffffff1681526020016000820160149054906101000a900463ffffffff1663ffffffff1663ffffffff16815250508152602001906001019061030d565b50505050905090565b606080600084905060008173ffffffffffffffffffffffffffffffffffffffff16634118ca7d6040518163ffffffff1660e01b815260040160206040518083038186803b15801561041057600080fd5b505afa158015610424573d6000803e3d6000fd5b505050506040513d601f19601f8201168201806040525081019061044891906124b9565b905060008273ffffffffffffffffffffffffffffffffffffffff1663bde4c3cb876040518263ffffffff1660e01b81526004016104859190613027565b602060405180830381600087803b15801561049f57600080fd5b505af11580156104b3573d6000803e3d6000fd5b505050506040513d601f19601f820116820180604052508101906104d791906126e6565b905060008273ffffffffffffffffffffffffffffffffffffffff1663fb7056b7836040518263ffffffff1660e01b81526004016105149190612fe3565b60206040518083038186803b15801561052c57600080fd5b505afa158015610540573d6000803e3d6000fd5b505050506040513d601f19601f820116820180604052508101906105649190612681565b90506000816fffffffffffffffffffffffffffffffff16116105bb576040517f08c379a00000000000000000000000000000000000000000000000000000000081526004016105b290612f1f565b60405180910390fd5b6105c3611e4b565b8473ffffffffffffffffffffffffffffffffffffffff1663d3ceafb9846040518263ffffffff1660e01b81526004016105fc9190612fe3565b6101a06040518083038186803b15801561061557600080fd5b505afa158015610629573d6000803e3d6000fd5b505050506040513d601f19601f8201168201806040525081019061064d9190612657565b905060008573ffffffffffffffffffffffffffffffffffffffff1663becef6078a6040518263ffffffff1660e01b815260040161068a9190613027565b60206040518083038186803b1580156106a257600080fd5b505afa1580156106b6573d6000803e3d6000fd5b505050506040513d601f19601f820116820180604052508101906106da91906126e6565b9050600080836101200151156108b2576108198773ffffffffffffffffffffffffffffffffffffffff16633e7e86696040518163ffffffff1660e01b815260040160206040518083038186803b15801561073357600080fd5b505afa158015610747573d6000803e3d6000fd5b505050506040513d601f19601f8201168201806040525081019061076b91906127c8565b60ff16600a0a61080b866020015173ffffffffffffffffffffffffffffffffffffffff1663313ce5676040518163ffffffff1660e01b815260040160206040518083038186803b1580156107be57600080fd5b505afa1580156107d2573d6000803e3d6000fd5b505050506040513d601f19601f820116820180604052508101906107f691906127c8565b60ff16600a0a8661152890919063ffffffff16565b61159890919063ffffffff16565b915083608001516fffffffffffffffffffffffffffffffff16856fffffffffffffffffffffffffffffffff1611156108ad576108aa610873866fffffffffffffffffffffffffffffffff168561159890919063ffffffff16565b61089c86608001516fffffffffffffffffffffffffffffffff168661159890919063ffffffff16565b6115ee90919063ffffffff16565b90505b61094f565b83606001516fffffffffffffffffffffffffffffffff16856fffffffffffffffffffffffffffffffff1610156108ee5783606001519450610927565b83608001516fffffffffffffffffffffffffffffffff16856fffffffffffffffffffffffffffffffff16111561092657836080015194505b5b61094c856fffffffffffffffffffffffffffffffff168461159890919063ffffffff16565b90505b6000821115610a275760008773ffffffffffffffffffffffffffffffffffffffff1663e55ced318887602001516040518363ffffffff1660e01b8152600401610999929190612ffe565b60206040518083038186803b1580156109b157600080fd5b505afa1580156109c5573d6000803e3d6000fd5b505050506040513d601f19601f820116820180604052508101906109e991906126e6565b9050808311156109f7578092505b610a0e85602001518c610c0090919063ffffffff16565b9a50610a23838b610d1190919063ffffffff16565b9950505b6000811115610bf15760008773ffffffffffffffffffffffffffffffffffffffff1663e55ced31888b73ffffffffffffffffffffffffffffffffffffffff16636f307dc36040518163ffffffff1660e01b815260040160206040518083038186803b158015610a9557600080fd5b505afa158015610aa9573d6000803e3d6000fd5b505050506040513d601f19601f82011682018060405250810190610acd91906124b9565b6040518363ffffffff1660e01b8152600401610aea929190612ffe565b60206040518083038186803b158015610b0257600080fd5b505afa158015610b16573d6000803e3d6000fd5b505050506040513d601f19601f82011682018060405250810190610b3a91906126e6565b905080821115610b48578091505b610bd88973ffffffffffffffffffffffffffffffffffffffff16636f307dc36040518163ffffffff1660e01b815260040160206040518083038186803b158015610b9157600080fd5b505afa158015610ba5573d6000803e3d6000fd5b505050506040513d601f19601f82011682018060405250810190610bc991906124b9565b8c610c0090919063ffffffff16565b9a50610bed828b610d1190919063ffffffff16565b9950505b50505050505050509250929050565b6060600183510167ffffffffffffffff81118015610c1d57600080fd5b50604051908082528060200260200182016040528015610c4c5781602001602082028036833780820191505090505b50905060005b8351811015610cc257838181518110610c6757fe5b6020026020010151828281518110610c7b57fe5b602002602001019073ffffffffffffffffffffffffffffffffffffffff16908173ffffffffffffffffffffffffffffffffffffffff16815250508080600101915050610c52565b508181845181518110610cd157fe5b602002602001019073ffffffffffffffffffffffffffffffffffffffff16908173ffffffffffffffffffffffffffffffffffffffff168152505092915050565b6060600183510167ffffffffffffffff81118015610d2e57600080fd5b50604051908082528060200260200182016040528015610d5d5781602001602082028036833780820191505090505b50905060005b8351811015610da557838181518110610d7857fe5b6020026020010151828281518110610d8c57fe5b6020026020010181815250508080600101915050610d63565b508181845181518110610db457fe5b60200260200101818152505092915050565b606080600084511415610dd85761107c565b6000600190506000600190505b8551811015610e87576000805b82811015610e6a57878181518110610e0657fe5b602002602001015173ffffffffffffffffffffffffffffffffffffffff16888481518110610e3057fe5b602002602001015173ffffffffffffffffffffffffffffffffffffffff161415610e5d5760019150610e6a565b8080600101915050610df2565b5080610e795782806001019350505b508080600101915050610de5565b508067ffffffffffffffff81118015610e9f57600080fd5b50604051908082528060200260200182016040528015610ece5781602001602082028036833780820191505090505b5092508067ffffffffffffffff81118015610ee857600080fd5b50604051908082528060200260200182016040528015610f175781602001602082028036833780820191505090505b5091506000805b8651811015611078576000805b83811015610fd557868181518110610f3f57fe5b602002602001015173ffffffffffffffffffffffffffffffffffffffff16898481518110610f6957fe5b602002602001015173ffffffffffffffffffffffffffffffffffffffff161415610fc85760019150878381518110610f9d57fe5b6020026020010151868281518110610fb157fe5b602002602001018181510191508181525050610fd5565b8080600101915050610f2b565b508061106a57878281518110610fe757fe5b6020026020010151868481518110610ffb57fe5b602002602001019073ffffffffffffffffffffffffffffffffffffffff16908173ffffffffffffffffffffffffffffffffffffffff168152505086828151811061104157fe5b602002602001015185848151811061105557fe5b60200260200101818152505082806001019350505b508080600101915050610f1e565b5050505b9250929050565b60008061108f8361163e565b9150915061109b611f3c565b7f000000000000000000000000000000000000000000000000000000000000000073ffffffffffffffffffffffffffffffffffffffff16639cfb2ab0846040518263ffffffff1660e01b81526004016110f49190612f9f565b6101a06040518083038186803b15801561110d57600080fd5b505afa158015611121573d6000803e3d6000fd5b505050506040513d601f19601f82011682018060405250810190611145919061262d565b90506000816101000151905060008173ffffffffffffffffffffffffffffffffffffffff166375794a3c6040518163ffffffff1660e01b815260040160206040518083038186803b15801561119957600080fd5b505afa1580156111ad573d6000803e3d6000fd5b505050506040513d601f19601f820116820180604052508101906111d1919061279f565b9050600083610120015190506112487f00000000000000000000000000000000000000000000000000000000000000007fffffffffffffffffffffffffffffffffffffffffffffffffffffffffffffffff8373ffffffffffffffffffffffffffffffffffffffff1661165e9092919063ffffffff16565b7f000000000000000000000000000000000000000000000000000000000000000073ffffffffffffffffffffffffffffffffffffffff166341ec4ef387876040518363ffffffff1660e01b81526004016112a3929190612fba565b6040805180830381600087803b1580156112bc57600080fd5b505af11580156112d0573d6000803e3d6000fd5b505050506040513d601f19601f820116820180604052508101906112f49190612763565b50506113427f000000000000000000000000000000000000000000000000000000000000000060008373ffffffffffffffffffffffffffffffffffffffff1661165e9092919063ffffffff16565b611351846101000151836117bc565b50505050505050565b6000806000611368846118d2565b925092509250600083905060008173ffffffffffffffffffffffffffffffffffffffff1663becef607856040518263ffffffff1660e01b81526004016113ae9190613027565b60206040518083038186803b1580156113c657600080fd5b505afa1580156113da573d6000803e3d6000fd5b505050506040513d601f19601f820116820180604052508101906113fe91906126e6565b90507fffffffffffffffffffffffffffffffffffffffffffffffffffffffffffffffff83148061142d57508083145b156114b0578173ffffffffffffffffffffffffffffffffffffffff16637e2985f38533846040518463ffffffff1660e01b815260040161146f93929190613042565b600060405180830381600087803b15801561148957600080fd5b505af115801561149d573d6000803e3d6000fd5b505050506114ab85856118f8565b611520565b8173ffffffffffffffffffffffffffffffffffffffff16637e2985f38533866040518463ffffffff1660e01b81526004016114ed93929190613042565b600060405180830381600087803b15801561150757600080fd5b505af115801561151b573d6000803e3d6000fd5b505050505b505050505050565b60008083141561153b5760009050611592565b600082840290508284828161154c57fe5b041461158d576040517f08c379a000000000000000000000000000000000000000000000000000000000815260040161158490612eff565b60405180910390fd5b809150505b92915050565b60008082116115dc576040517f08c379a00000000000000000000000000000000000000000000000000000000081526004016115d390612ebf565b60405180910390fd5b8183816115e557fe5b04905092915050565b600082821115611633576040517f08c379a000000000000000000000000000000000000000000000000000000000815260040161162a90612e7f565b60405180910390fd5b818303905092915050565b6000808280602001905181019061165591906126aa565b91509150915091565b60008114806116f7575060008373ffffffffffffffffffffffffffffffffffffffff1663dd62ed3e30856040518363ffffffff1660e01b81526004016116a5929190612d97565b60206040518083038186803b1580156116bd57600080fd5b505afa1580156116d1573d6000803e3d6000fd5b505050506040513d601f19601f820116820180604052508101906116f591906126e6565b145b611736576040517f08c379a000000000000000000000000000000000000000000000000000000000815260040161172d90612f7f565b60405180910390fd5b6117b78363095ea7b360e01b8484604051602401611755929190612dc0565b604051602081830303815290604052907bffffffffffffffffffffffffffffffffffffffffffffffffffffffff19166020820180517bffffffffffffffffffffffffffffffffffffffffffffffffffffffff8381831617835250505050611ba7565b505050565b600060405180604001604052808473ffffffffffffffffffffffffffffffffffffffff1681526020018363ffffffff168152509080600181540180825580915050600190039060005260206000200160009091909190915060008201518160000160006101000a81548173ffffffffffffffffffffffffffffffffffffffff021916908373ffffffffffffffffffffffffffffffffffffffff16021790555060208201518160000160146101000a81548163ffffffff021916908363ffffffff16021790555050508063ffffffff168273ffffffffffffffffffffffffffffffffffffffff167f9064e110f4af8c3afc5cb815841bb7b2d7b4324b194a740015a249c929d3d0c760405160405180910390a35050565b6000806000838060200190518101906118eb91906124e2565b9250925092509193909250565b60008080549050905060005b81811015611ba157611914611e15565b6000828154811061192157fe5b906000526020600020016040518060400160405290816000820160009054906101000a900473ffffffffffffffffffffffffffffffffffffffff1673ffffffffffffffffffffffffffffffffffffffff1673ffffffffffffffffffffffffffffffffffffffff1681526020016000820160149054906101000a900463ffffffff1663ffffffff1663ffffffff168152505090508363ffffffff16816020015163ffffffff16148015611a0257508473ffffffffffffffffffffffffffffffffffffffff16816000015173ffffffffffffffffffffffffffffffffffffffff16145b15611b935760018303821015611ae55760006001840381548110611a2257fe5b9060005260206000200160008381548110611a3957fe5b906000526020600020016000820160009054906101000a900473ffffffffffffffffffffffffffffffffffffffff168160000160006101000a81548173ffffffffffffffffffffffffffffffffffffffff021916908373ffffffffffffffffffffffffffffffffffffffff1602179055506000820160149054906101000a900463ffffffff168160000160146101000a81548163ffffffff021916908363ffffffff1602179055509050505b6000805480611af057fe5b60019003818190600052602060002001600080820160006101000a81549073ffffffffffffffffffffffffffffffffffffffff02191690556000820160146101000a81549063ffffffff0219169055505090558363ffffffff168573ffffffffffffffffffffffffffffffffffffffff167f0d5bcf97415af39ded48a8e8b4386016db43ed02862eefbd9e5b466c4329ad9560405160405180910390a350611ba1565b508080600101915050611904565b50505050565b6060611c09826040518060400160405280602081526020017f5361666545524332303a206c6f772d6c6576656c2063616c6c206661696c65648152508573ffffffffffffffffffffffffffffffffffffffff16611c6e9092919063ffffffff16565b9050600081511115611c695780806020019051810190611c2991906125c3565b611c68576040517f08c379a0000000000000000000000000000000000000000000000000000000008152600401611c5f90612f5f565b60405180910390fd5b5b505050565b6060611c7d8484600085611c86565b90509392505050565b606082471015611ccb576040517f08c379a0000000000000000000000000000000000000000000000000000000008152600401611cc290612e9f565b60405180910390fd5b611cd485611d9b565b611d13576040517f08c379a0000000000000000000000000000000000000000000000000000000008152600401611d0a90612f3f565b60405180910390fd5b600060608673ffffffffffffffffffffffffffffffffffffffff168587604051611d3d9190612d80565b60006040518083038185875af1925050503d8060008114611d7a576040519150601f19603f3d011682016040523d82523d6000602084013e611d7f565b606091505b5091509150611d8f828286611dae565b92505050949350505050565b600080823b905060008111915050919050565b60608315611dbe57829050611e0e565b600083511115611dd15782518084602001fd5b816040517f08c379a0000000000000000000000000000000000000000000000000000000008152600401611e059190612e5d565b60405180910390fd5b9392505050565b6040518060400160405280600073ffffffffffffffffffffffffffffffffffffffff168152602001600063ffffffff1681525090565b604051806101a00160405280600073ffffffffffffffffffffffffffffffffffffffff168152602001600073ffffffffffffffffffffffffffffffffffffffff1681526020016000815260200160006fffffffffffffffffffffffffffffffff16815260200160006fffffffffffffffffffffffffffffffff16815260200160006fffffffffffffffffffffffffffffffff168152602001600067ffffffffffffffff168152602001600067ffffffffffffffff16815260200160006001811115611f1257fe5b81526020016000151581526020016000151581526020016000151581526020016000151581525090565b604051806101a00160405280600062ffffff168152602001600063ffffffff168152602001600063ffffffff16815260200160006001811115611f7b57fe5b815260200160006fffffffffffffffffffffffffffffffff16815260200160006fffffffffffffffffffffffffffffffff16815260200160006fffffffffffffffffffffffffffffffff16815260200160006fffffffffffffffffffffffffffffffff168152602001600073ffffffffffffffffffffffffffffffffffffffff168152602001600073ffffffffffffffffffffffffffffffffffffffff168152602001600073ffffffffffffffffffffffffffffffffffffffff1681526020016000151581526020016000151581525090565b60008135905061205d8161332c565b92915050565b6000815190506120728161332c565b92915050565b60008151905061208781613343565b92915050565b60008151905061209c8161335a565b92915050565b60008083601f8401126120b457600080fd5b8235905067ffffffffffffffff8111156120cd57600080fd5b6020830191508360018202830111156120e557600080fd5b9250929050565b600082601f8301126120fd57600080fd5b813561211061210b826130a6565b613079565b9150808252602083016020830185838301111561212c57600080fd5b6121378382846132d9565b50505092915050565b600082601f83011261215157600080fd5b815161216461215f826130a6565b613079565b9150808252602083016020830185838301111561218057600080fd5b61218b8382846132e8565b50505092915050565b6000815190506121a381613371565b92915050565b6000815190506121b881613381565b92915050565b60006101a082840312156121d157600080fd5b6121dc6101a0613079565b905060006121ec8482850161243b565b60008301525060206122008482850161247a565b60208301525060406122148482850161247a565b6040830152506060612228848285016121a9565b606083015250608061223c84828501612426565b60808301525060a061225084828501612426565b60a08301525060c061226484828501612426565b60c08301525060e061227884828501612426565b60e08301525061010061228d84828501612063565b610100830152506101206122a384828501612063565b610120830152506101406122b984828501612063565b610140830152506101606122cf8482850161208d565b610160830152506101806122e58482850161208d565b6101808301525092915050565b60006101a0828403121561230557600080fd5b6123106101a0613079565b9050600061232084828501612063565b600083015250602061233484828501612063565b602083015250604061234884828501612465565b604083015250606061235c84828501612426565b606083015250608061237084828501612426565b60808301525060a061238484828501612426565b60a08301525060c06123988482850161248f565b60c08301525060e06123ac8482850161248f565b60e0830152506101006123c184828501612194565b610100830152506101206123d78482850161208d565b610120830152506101406123ed8482850161208d565b610140830152506101606124038482850161208d565b610160830152506101806124198482850161208d565b6101808301525092915050565b60008151905061243581613391565b92915050565b60008151905061244a816133a8565b92915050565b60008135905061245f816133bf565b92915050565b600081519050612474816133bf565b92915050565b600081519050612489816133d6565b92915050565b60008151905061249e816133ed565b92915050565b6000815190506124b381613404565b92915050565b6000602082840312156124cb57600080fd5b60006124d984828501612063565b91505092915050565b6000806000606084860312156124f757600080fd5b600061250586828701612078565b93505060206125168682870161247a565b925050604061252786828701612465565b9150509250925092565b60008060008060008060a0878903121561254a57600080fd5b600061255889828a0161204e565b965050602061256989828a0161204e565b955050604061257a89828a01612450565b945050606061258b89828a01612450565b935050608087013567ffffffffffffffff8111156125a857600080fd5b6125b489828a016120a2565b92509250509295509295509295565b6000602082840312156125d557600080fd5b60006125e38482850161208d565b91505092915050565b6000602082840312156125fe57600080fd5b600082013567ffffffffffffffff81111561261857600080fd5b612624848285016120ec565b91505092915050565b60006101a0828403121561264057600080fd5b600061264e848285016121be565b91505092915050565b60006101a0828403121561266a57600080fd5b6000612678848285016122f2565b91505092915050565b60006020828403121561269357600080fd5b60006126a184828501612426565b91505092915050565b600080604083850312156126bd57600080fd5b60006126cb8582860161243b565b92505060206126dc85828601612426565b9150509250929050565b6000602082840312156126f857600080fd5b600061270684828501612465565b91505092915050565b6000806040838503121561272257600080fd5b600061273085828601612465565b925050602083015167ffffffffffffffff81111561274d57600080fd5b61275985828601612140565b9150509250929050565b6000806040838503121561277657600080fd5b600061278485828601612465565b925050602061279585828601612426565b9150509250929050565b6000602082840312156127b157600080fd5b60006127bf8482850161247a565b91505092915050565b6000602082840312156127da57600080fd5b60006127e8848285016124a4565b91505092915050565b60006127fd8383612848565b60208301905092915050565b60006128158383612cf7565b60408301905092915050565b600061282d8383612d44565b60208301905092915050565b61284281613291565b82525050565b612851816131af565b82525050565b612860816131af565b82525050565b600061287182613102565b61287b8185613160565b9350612886836130d2565b8060005b838110156128b757815161289e88826127f1565b97506128a983613139565b92505060018101905061288a565b5085935050505092915050565b60006128cf8261310d565b6128d98185613171565b93506128e4836130e2565b8060005b838110156129155781516128fc8882612809565b975061290783613146565b9250506001810190506128e8565b5085935050505092915050565b600061292d82613118565b6129378185613182565b9350612942836130f2565b8060005b8381101561297357815161295a8882612821565b975061296583613153565b925050600181019050612946565b5085935050505092915050565b612989816131df565b82525050565b600061299a82613123565b6129a48185613193565b93506129b48185602086016132e8565b80840191505092915050565b60006129cb8261312e565b6129d5818561319e565b93506129e58185602086016132e8565b6129ee8161331b565b840191505092915050565b6000612a06601e8361319e565b91507f536166654d6174683a207375627472616374696f6e206f766572666c6f7700006000830152602082019050919050565b6000612a4660268361319e565b91507f416464726573733a20696e73756666696369656e742062616c616e636520666f60008301527f722063616c6c00000000000000000000000000000000000000000000000000006020830152604082019050919050565b6000612aac601a8361319e565b91507f536166654d6174683a206469766973696f6e206279207a65726f0000000000006000830152602082019050919050565b6000612aec60268361319e565b91507f7265636569766543616c6c46726f6d5661756c743a20496e76616c696420616360008301527f74696f6e496400000000000000000000000000000000000000000000000000006020830152604082019050919050565b6000612b5260218361319e565b91507f536166654d6174683a206d756c7469706c69636174696f6e206f766572666c6f60008301527f77000000000000000000000000000000000000000000000000000000000000006020830152604082019050919050565b6000612bb860118361319e565b91507f5072696365206e6f7420736574746c65640000000000000000000000000000006000830152602082019050919050565b6000612bf8601d8361319e565b91507f416464726573733a2063616c6c20746f206e6f6e2d636f6e74726163740000006000830152602082019050919050565b6000612c38602a8361319e565b91507f5361666545524332303a204552433230206f7065726174696f6e20646964206e60008301527f6f742073756363656564000000000000000000000000000000000000000000006020830152604082019050919050565b6000612c9e60368361319e565b91507f5361666545524332303a20617070726f76652066726f6d206e6f6e2d7a65726f60008301527f20746f206e6f6e2d7a65726f20616c6c6f77616e6365000000000000000000006020830152604082019050919050565b604082016000820151612d0d6000850182612848565b506020820151612d206020850182612d71565b50505050565b612d2f8161320b565b82525050565b612d3e81613247565b82525050565b612d4d81613256565b82525050565b612d5c81613256565b82525050565b612d6b816132c7565b82525050565b612d7a81613260565b82525050565b6000612d8c828461298f565b915081905092915050565b6000604082019050612dac6000830185612857565b612db96020830184612857565b9392505050565b6000604082019050612dd56000830185612857565b612de26020830184612d53565b9392505050565b60006040820190508181036000830152612e038185612866565b90508181036020830152612e178184612922565b90509392505050565b60006020820190508181036000830152612e3a81846128c4565b905092915050565b6000602082019050612e576000830184612980565b92915050565b60006020820190508181036000830152612e7781846129c0565b905092915050565b60006020820190508181036000830152612e98816129f9565b9050919050565b60006020820190508181036000830152612eb881612a39565b9050919050565b60006020820190508181036000830152612ed881612a9f565b9050919050565b60006020820190508181036000830152612ef881612adf565b9050919050565b60006020820190508181036000830152612f1881612b45565b9050919050565b60006020820190508181036000830152612f3881612bab565b9050919050565b60006020820190508181036000830152612f5881612beb565b9050919050565b60006020820190508181036000830152612f7881612c2b565b9050919050565b60006020820190508181036000830152612f9881612c91565b9050919050565b6000602082019050612fb46000830184612d35565b92915050565b6000604082019050612fcf6000830185612d35565b612fdc6020830184612d26565b9392505050565b6000602082019050612ff86000830184612d53565b92915050565b60006040820190506130136000830185612d53565b6130206020830184612857565b9392505050565b600060208201905061303c6000830184612d62565b92915050565b60006060820190506130576000830186612d62565b6130646020830185612839565b6130716040830184612d53565b949350505050565b6000604051905081810181811067ffffffffffffffff8211171561309c57600080fd5b8060405250919050565b600067ffffffffffffffff8211156130bd57600080fd5b601f19601f8301169050602081019050919050565b6000819050602082019050919050565b6000819050602082019050919050565b6000819050602082019050919050565b600081519050919050565b600081519050919050565b600081519050919050565b600081519050919050565b600081519050919050565b6000602082019050919050565b6000602082019050919050565b6000602082019050919050565b600082825260208201905092915050565b600082825260208201905092915050565b600082825260208201905092915050565b600081905092915050565b600082825260208201905092915050565b60006131ba82613227565b9050919050565b60006131cc82613227565b9050919050565b60008115159050919050565b60007fffffffff0000000000000000000000000000000000000000000000000000000082169050919050565b60006fffffffffffffffffffffffffffffffff82169050919050565b600073ffffffffffffffffffffffffffffffffffffffff82169050919050565b600062ffffff82169050919050565b6000819050919050565b600063ffffffff82169050919050565b600067ffffffffffffffff82169050919050565b600060ff82169050919050565b600061329c826132a3565b9050919050565b60006132ae826132b5565b9050919050565b60006132c082613227565b9050919050565b60006132d282613260565b9050919050565b82818337600083830152505050565b60005b838110156133065780820151818401526020810190506132eb565b83811115613315576000848401525b50505050565b6000601f19601f8301169050919050565b613335816131af565b811461334057600080fd5b50565b61334c816131c1565b811461335757600080fd5b50565b613363816131d3565b811461336e57600080fd5b50565b6002811061337e57600080fd5b50565b6002811061338e57600080fd5b50565b61339a8161320b565b81146133a557600080fd5b50565b6133b181613247565b81146133bc57600080fd5b50565b6133c881613256565b81146133d357600080fd5b50565b6133df81613260565b81146133ea57600080fd5b50565b6133f681613270565b811461340157600080fd5b50565b61340d81613284565b811461341857600080fd5b5056fea164736f6c634300060c000a","linkReferences":{}},"methodIdentifiers":{"getDebtAssets()":"ecd658b4","getManagedAssets()":"80daddb8","getVoucherTokenIds()":"f4c1032a","init(bytes)":"4ddf47d4","onVNFTReceived(address,address,uint256,uint256,bytes)":"b382cdcd","receiveCallFromVault(bytes)":"e5c23a97"},"id":175}