{"abi":[{"type":"constructor","inputs":[{"name":"_withdrawalQueue","type":"address","internalType":"contract ILidoWithdrawalQueue"},{"name":"_stethAddress","type":"address","internalType":"address"}],"stateMutability":"nonpayable"},{"type":"function","name":"getDebtAssets","inputs":[],"outputs":[{"name":"assets_","type":"address[]","internalType":"address[]"},{"name":"amounts_","type":"uint256[]","internalType":"uint256[]"}],"stateMutability":"pure"},{"type":"function","name":"getManagedAssets","inputs":[],"outputs":[{"name":"assets_","type":"address[]","internalType":"address[]"},{"name":"amounts_","type":"uint256[]","internalType":"uint256[]"}],"stateMutability":"view"},{"type":"function","name":"getRequests","inputs":[],"outputs":[{"name":"requests_","type":"tuple[]","internalType":"struct LidoWithdrawalsPositionLibBase1.Request[]","components":[{"name":"amount","type":"uint128","internalType":"uint128"},{"name":"id","type":"uint128","internalType":"uint128"}]}],"stateMutability":"view"},{"type":"function","name":"init","inputs":[{"name":"","type":"bytes","internalType":"bytes"}],"outputs":[],"stateMutability":"nonpayable"},{"type":"function","name":"receiveCallFromVault","inputs":[{"name":"_actionData","type":"bytes","internalType":"bytes"}],"outputs":[],"stateMutability":"nonpayable"},{"type":"event","name":"RequestAdded","inputs":[{"name":"id","type":"uint256","indexed":true,"internalType":"uint256"},{"name":"amount","type":"uint256","indexed":false,"internalType":"uint256"}],"anonymous":false},{"type":"event","name":"RequestRemoved","inputs":[{"name":"id","type":"uint256","indexed":true,"internalType":"uint256"}],"anonymous":false}],"bytecode":{"object":"0x60c06040523480156200001157600080fd5b5060405162000f0c38038062000f0c8339810160408190526200003491620000ab565b6001600160a01b039081166080521660a052620000ee565b60006001600160a01b0382165b92915050565b600062000059826200004c565b62000077816200005f565b81146200008357600080fd5b50565b805162000059816200006c565b62000077816200004c565b8051620000598162000093565b60008060408385031215620000c357620000c3600080fd5b6000620000d1858562000086565b9250506020620000e4858286016200009e565b9150509250929050565b60805160a051610de4620001286000396000818161010401528181610373015261053701526000818160d701526101af0152610de46000f3fe608060405234801561001057600080fd5b50600436106100575760003560e01c80634ddf47d41461005c57806380daddb8146100715780638813ce1214610090578063e5c23a97146100a5578063ecd658b4146100b8575b600080fd5b61006f61006a366004610868565b6100c0565b005b610079610177565b604051610087929190610970565b60405180910390f35b61009861028b565b6040516100879190610a1a565b61006f6100b3366004610868565b610301565b606080610079565b60405163095ea7b360e01b81526001600160a01b037f0000000000000000000000000000000000000000000000000000000000000000169063095ea7b390610130907f00000000000000000000000000000000000000000000000000000000000000009060001990600401610a32565b6020604051808303816000875af115801561014f573d6000803e3d6000fd5b505050506040513d601f19601f820116820180604052508101906101739190610a6a565b5050565b6000805460609182919081900361018d57509091565b60408051600180825281830190925290602080830190803683370190505092507f0000000000000000000000000000000000000000000000000000000000000000836000815181106101e1576101e1610a8b565b6001600160a01b039290921660209283029190910182015260408051600180825281830190925291828101908036833701905050915060005b81811015610285576000818154811061023557610235610a8b565b600091825260208220015484516001600160801b0390911691859161025c5761025c610a8b565b602002602001018181516102709190610ab7565b9052508061027d81610aca565b91505061021a565b50509091565b60606000805480602002602001604051908101604052809291908181526020016000905b828210156102f857600084815260209081902060408051808201909152908401546001600160801b038082168352600160801b90910416818301528252600190920191016102af565b50505050905090565b600080828060200190518101906103189190610b71565b9092509050816103305761032b81610362565b505050565b600182036103415761032b8161050f565b60405162461bcd60e51b815260040161035990610bc9565b60405180910390fd5b600061036d82610729565b905060007f00000000000000000000000000000000000000000000000000000000000000006001600160a01b031663d668104283306040518363ffffffff1660e01b81526004016103bf929190610c13565b6000604051808303816000875af11580156103de573d6000803e3d6000fd5b505050506040513d6000823e601f3d908101601f191682016040526104069190810190610cd6565b905060005b815181101561050957600082828151811061042857610428610a8b565b60200260200101519050600084838151811061044657610446610a8b565b6020908102919091018101516040805180820182526001600160801b03808416825286811694820194855260008054600181018255908052915194518116600160801b029416939093177f290decd9548b62a8d60345a988386fc84ba6bc95484008f6362f93160ef3e56390930192909255905190915082907f1ae31ed5af955981f8f956e11e030e2d8650cf0b1c5fa1177f40a94c92bc2393906104ec908490610d11565b60405180910390a25050808061050190610aca565b91505061040b565b50505050565b60008061051b83610745565b604051635e7eead960e01b815291935091506001600160a01b037f00000000000000000000000000000000000000000000000000000000000000001690635e7eead99061057090859085903390600401610d1f565b600060405180830381600087803b15801561058a57600080fd5b505af115801561059e573d6000803e3d6000fd5b5050505060005b82518110156105095760008382815181106105c2576105c2610a8b565b6020908102919091010151600080549192505b818110156107135760008082815481106105f1576105f1610a8b565b600091825260209091200154600160801b90046001600160801b03169050838103610700576000610623600185610d53565b90508082146106a6576000818154811061063f5761063f610a8b565b906000526020600020016000848154811061065c5761065c610a8b565b600091825260209091208254910180546fffffffffffffffffffffffffffffffff19166001600160801b0392831690811782559254600160801b9081900490921690910290911790555b60008054806106b7576106b7610d66565b600082815260208120820160001990810182905590910190915560405186917f5fa4d8243d9549d33d615899224efcef51bfcacb970a31f68862ce74c858dbf091a25050610713565b508061070b81610aca565b9150506105d5565b505050808061072190610aca565b9150506105a5565b60608180602001905181019061073f9190610cd6565b92915050565b6060808280602001905181019061075c9190610d7c565b91509150915091565b634e487b7160e01b600052604160045260246000fd5b601f19601f830116810181811067ffffffffffffffff821117156107a1576107a1610765565b6040525050565b60006107b360405190565b90506107bf828261077b565b919050565b600067ffffffffffffffff8211156107de576107de610765565b601f19601f83011660200192915050565b82818337506000910152565b600061080e610809846107c4565b6107a8565b90508281526020810184848401111561082957610829600080fd5b6108348482856107ef565b509392505050565b600082601f83011261085057610850600080fd5b81356108608482602086016107fb565b949350505050565b60006020828403121561087d5761087d600080fd5b813567ffffffffffffffff81111561089757610897600080fd5b6108608482850161083c565b60006001600160a01b03821661073f565b6108bd816108a3565b82525050565b60006108cf83836108b4565b505060200190565b60006108e1825190565b80845260209384019383018060005b8381101561091557815161090488826108c3565b9750602083019250506001016108f0565b509495945050505050565b806108bd565b60006108cf8383610920565b600061093c825190565b80845260209384019383018060005b8381101561091557815161095f8882610926565b97506020830192505060010161094b565b6040808252810161098181856108d7565b905081810360208301526108608184610932565b6001600160801b0381166108bd565b805160408301906109b58482610995565b5060208201516105096020850182610995565b60006109d483836109a4565b505060400190565b60006109e6825190565b80845260209384019383018060005b83811015610915578151610a0988826109c8565b9750602083019250506001016109f5565b60208082528101610a2b81846109dc565b9392505050565b60408101610a4082856108b4565b610a2b6020830184610920565b8015155b8114610a5c57600080fd5b50565b805161073f81610a4d565b600060208284031215610a7f57610a7f600080fd5b60006108608484610a5f565b634e487b7160e01b600052603260045260246000fd5b634e487b7160e01b600052601160045260246000fd5b8082018082111561073f5761073f610aa1565b60006000198203610add57610add610aa1565b5060010190565b80610a51565b805161073f81610ae4565b60005b83811015610b10578181015183820152602001610af8565b50506000910152565b6000610b27610809846107c4565b905082815260208101848484011115610b4257610b42600080fd5b610834848285610af5565b600082601f830112610b6157610b61600080fd5b8151610860848260208601610b19565b60008060408385031215610b8757610b87600080fd5b6000610b938585610aea565b925050602083015167ffffffffffffffff811115610bb357610bb3600080fd5b610bbf85828601610b4d565b9150509250929050565b6020808252810161073f81602681527f7265636569766543616c6c46726f6d5661756c743a20496e76616c69642061636020820152651d1a5bdb925960d21b604082015260600190565b60408082528101610c248185610932565b9050610a2b60208301846108b4565b600067ffffffffffffffff821115610c4d57610c4d610765565b5060209081020190565b6000610c6561080984610c33565b83815290506020808201908402830185811115610c8457610c84600080fd5b835b81811015610ca85780610c998882610aea565b84525060209283019201610c86565b5050509392505050565b600082601f830112610cc657610cc6600080fd5b8151610860848260208601610c57565b600060208284031215610ceb57610ceb600080fd5b815167ffffffffffffffff811115610d0557610d05600080fd5b61086084828501610cb2565b6020810161073f8284610920565b60608082528101610d308186610932565b90508181036020830152610d448185610932565b905061086060408301846108b4565b8181038181111561073f5761073f610aa1565b634e487b7160e01b600052603160045260246000fd5b60008060408385031215610d9257610d92600080fd5b825167ffffffffffffffff811115610dac57610dac600080fd5b610db885828601610cb2565b925050602083015167ffffffffffffffff811115610dd857610dd8600080fd5b610bbf85828601610cb256","linkReferences":{}},"methodIdentifiers":{"getDebtAssets()":"ecd658b4","getManagedAssets()":"80daddb8","getRequests()":"8813ce12","init(bytes)":"4ddf47d4","receiveCallFromVault(bytes)":"e5c23a97"},"id":56}