{"abi":[{"type":"constructor","inputs":[{"name":"_withdrawalQueue","type":"address","internalType":"contract ILidoWithdrawalQueue"},{"name":"_stethAddress","type":"address","internalType":"address"}],"stateMutability":"nonpayable"},{"type":"function","name":"getDebtAssets","inputs":[],"outputs":[{"name":"assets_","type":"address[]","internalType":"address[]"},{"name":"amounts_","type":"uint256[]","internalType":"uint256[]"}],"stateMutability":"pure"},{"type":"function","name":"getManagedAssets","inputs":[],"outputs":[{"name":"assets_","type":"address[]","internalType":"address[]"},{"name":"amounts_","type":"uint256[]","internalType":"uint256[]"}],"stateMutability":"view"},{"type":"function","name":"getRequests","inputs":[],"outputs":[{"name":"requests_","type":"tuple[]","internalType":"struct LidoWithdrawalsPositionLibBase1.Request[]","components":[{"name":"amount","type":"uint128","internalType":"uint128"},{"name":"id","type":"uint128","internalType":"uint128"}]}],"stateMutability":"view"},{"type":"function","name":"init","inputs":[{"name":"","type":"bytes","internalType":"bytes"}],"outputs":[],"stateMutability":"nonpayable"},{"type":"function","name":"receiveCallFromVault","inputs":[{"name":"_actionData","type":"bytes","internalType":"bytes"}],"outputs":[],"stateMutability":"nonpayable"},{"type":"event","name":"RequestAdded","inputs":[{"name":"id","type":"uint256","indexed":true,"internalType":"uint256"},{"name":"amount","type":"uint256","indexed":false,"internalType":"uint256"}],"anonymous":false},{"type":"event","name":"RequestRemoved","inputs":[{"name":"id","type":"uint256","indexed":true,"internalType":"uint256"}],"anonymous":false}],"bytecode":{"object":"0x60c06040523480156200001157600080fd5b506040516200174638038062001746833981810160405281019062000037919062000156565b8073ffffffffffffffffffffffffffffffffffffffff1660808173ffffffffffffffffffffffffffffffffffffffff16815250508173ffffffffffffffffffffffffffffffffffffffff1660a08173ffffffffffffffffffffffffffffffffffffffff168152505050506200019d565b600080fd5b600073ffffffffffffffffffffffffffffffffffffffff82169050919050565b6000620000d982620000ac565b9050919050565b6000620000ed82620000cc565b9050919050565b620000ff81620000e0565b81146200010b57600080fd5b50565b6000815190506200011f81620000f4565b92915050565b6200013081620000cc565b81146200013c57600080fd5b50565b600081519050620001508162000125565b92915050565b6000806040838503121562000170576200016f620000a7565b5b600062000180858286016200010e565b925050602062000193858286016200013f565b9150509250929050565b60805160a05161156f620001d76000396000818161012e01528181610548015261077a01526000818160f2015261023a015261156f6000f3fe608060405234801561001057600080fd5b50600436106100575760003560e01c80634ddf47d41461005c57806380daddb8146100785780638813ce1214610097578063e5c23a97146100b5578063ecd658b4146100d1575b600080fd5b61007660048036038101906100719190610c16565b6100f0565b005b6100806101d2565b60405161008e929190610e17565b60405180910390f35b61009f610397565b6040516100ac9190610f57565b60405180910390f35b6100cf60048036038101906100ca9190610c16565b610486565b005b6100d9610531565b6040516100e7929190610e17565b60405180910390f35b7f000000000000000000000000000000000000000000000000000000000000000073ffffffffffffffffffffffffffffffffffffffff1663095ea7b37f00000000000000000000000000000000000000000000000000000000000000007fffffffffffffffffffffffffffffffffffffffffffffffffffffffffffffffff6040518363ffffffff1660e01b815260040161018b929190610f97565b6020604051808303816000875af11580156101aa573d6000803e3d6000fd5b505050506040513d601f19601f820116820180604052508101906101ce9190610ff8565b5050565b606080600080805490509050600081036101ec5750610393565b600167ffffffffffffffff81111561020757610206610aeb565b5b6040519080825280602002602001820160405280156102355781602001602082028036833780820191505090505b5092507f00000000000000000000000000000000000000000000000000000000000000008360008151811061026d5761026c611025565b5b602002602001019073ffffffffffffffffffffffffffffffffffffffff16908173ffffffffffffffffffffffffffffffffffffffff1681525050600167ffffffffffffffff8111156102c2576102c1610aeb565b5b6040519080825280602002602001820160405280156102f05781602001602082028036833780820191505090505b50915060005b81811015610390576000818154811061031257610311611025565b5b9060005260206000200160000160009054906101000a90046fffffffffffffffffffffffffffffffff166fffffffffffffffffffffffffffffffff168360008151811061036257610361611025565b5b602002602001018181516103769190611083565b915081815250508080610388906110b7565b9150506102f6565b50505b9091565b60606000805480602002602001604051908101604052809291908181526020016000905b8282101561047d578382906000526020600020016040518060400160405290816000820160009054906101000a90046fffffffffffffffffffffffffffffffff166fffffffffffffffffffffffffffffffff166fffffffffffffffffffffffffffffffff1681526020016000820160109054906101000a90046fffffffffffffffffffffffffffffffff166fffffffffffffffffffffffffffffffff166fffffffffffffffffffffffffffffffff1681525050815260200190600101906103bb565b50505050905090565b6000808280602001905181019061049d91906111c5565b91509150600060018111156104b5576104b4611221565b5b82036104c9576104c481610537565b61052c565b6001808111156104dc576104db611221565b5b82036104f0576104eb81610768565b61052b565b6040517f08c379a0000000000000000000000000000000000000000000000000000000008152600401610522906112d3565b60405180910390fd5b5b505050565b60608091565b600061054282610a7f565b905060007f000000000000000000000000000000000000000000000000000000000000000073ffffffffffffffffffffffffffffffffffffffff1663d668104283306040518363ffffffff1660e01b81526004016105a19291906112f3565b6000604051808303816000875af11580156105c0573d6000803e3d6000fd5b505050506040513d6000823e3d601f19601f820116820180604052508101906105e991906113eb565b905060005b815181101561076257600082828151811061060c5761060b611025565b5b60200260200101519050600084838151811061062b5761062a611025565b5b6020026020010151905060006040518060400160405280836fffffffffffffffffffffffffffffffff168152602001846fffffffffffffffffffffffffffffffff168152509080600181540180825580915050600190039060005260206000200160009091909190915060008201518160000160006101000a8154816fffffffffffffffffffffffffffffffff02191690836fffffffffffffffffffffffffffffffff16021790555060208201518160000160106101000a8154816fffffffffffffffffffffffffffffffff02191690836fffffffffffffffffffffffffffffffff1602179055505050817f1ae31ed5af955981f8f956e11e030e2d8650cf0b1c5fa1177f40a94c92bc2393826040516107459190611434565b60405180910390a25050808061075a906110b7565b9150506105ee565b50505050565b60008061077483610a9c565b915091507f000000000000000000000000000000000000000000000000000000000000000073ffffffffffffffffffffffffffffffffffffffff16635e7eead98383336040518463ffffffff1660e01b81526004016107d59392919061144f565b600060405180830381600087803b1580156107ef57600080fd5b505af1158015610803573d6000803e3d6000fd5b5050505060005b8251811015610a7957600083828151811061082857610827611025565b5b6020026020010151905060008080549050905060005b81811015610a6357600080828154811061085b5761085a611025565b5b9060005260206000200160000160109054906101000a90046fffffffffffffffffffffffffffffffff166fffffffffffffffffffffffffffffffff169050838103610a4f5760006001846108af9190611494565b90508082146109ae57600081815481106108cc576108cb611025565b5b90600052602060002001600084815481106108ea576108e9611025565b5b906000526020600020016000820160009054906101000a90046fffffffffffffffffffffffffffffffff168160000160006101000a8154816fffffffffffffffffffffffffffffffff02191690836fffffffffffffffffffffffffffffffff1602179055506000820160109054906101000a90046fffffffffffffffffffffffffffffffff168160000160106101000a8154816fffffffffffffffffffffffffffffffff02191690836fffffffffffffffffffffffffffffffff1602179055509050505b60008054806109c0576109bf6114c8565b5b60019003818190600052602060002001600080820160006101000a8154906fffffffffffffffffffffffffffffffff02191690556000820160106101000a8154906fffffffffffffffffffffffffffffffff021916905550509055847f5fa4d8243d9549d33d615899224efcef51bfcacb970a31f68862ce74c858dbf060405160405180910390a25050610a63565b508080610a5b906110b7565b91505061083e565b5050508080610a71906110b7565b91505061080a565b50505050565b606081806020019051810190610a9591906113eb565b9050919050565b60608082806020019051810190610ab391906114f7565b91509150915091565b6000604051905090565b600080fd5b600080fd5b600080fd5b600080fd5b6000601f19601f8301169050919050565b7f4e487b7100000000000000000000000000000000000000000000000000000000600052604160045260246000fd5b610b2382610ada565b810181811067ffffffffffffffff82111715610b4257610b41610aeb565b5b80604052505050565b6000610b55610abc565b9050610b618282610b1a565b919050565b600067ffffffffffffffff821115610b8157610b80610aeb565b5b610b8a82610ada565b9050602081019050919050565b82818337600083830152505050565b6000610bb9610bb484610b66565b610b4b565b905082815260208101848484011115610bd557610bd4610ad5565b5b610be0848285610b97565b509392505050565b600082601f830112610bfd57610bfc610ad0565b5b8135610c0d848260208601610ba6565b91505092915050565b600060208284031215610c2c57610c2b610ac6565b5b600082013567ffffffffffffffff811115610c4a57610c49610acb565b5b610c5684828501610be8565b91505092915050565b600081519050919050565b600082825260208201905092915050565b6000819050602082019050919050565b600073ffffffffffffffffffffffffffffffffffffffff82169050919050565b6000610cb682610c8b565b9050919050565b610cc681610cab565b82525050565b6000610cd88383610cbd565b60208301905092915050565b6000602082019050919050565b6000610cfc82610c5f565b610d068185610c6a565b9350610d1183610c7b565b8060005b83811015610d42578151610d298882610ccc565b9750610d3483610ce4565b925050600181019050610d15565b5085935050505092915050565b600081519050919050565b600082825260208201905092915050565b6000819050602082019050919050565b6000819050919050565b610d8e81610d7b565b82525050565b6000610da08383610d85565b60208301905092915050565b6000602082019050919050565b6000610dc482610d4f565b610dce8185610d5a565b9350610dd983610d6b565b8060005b83811015610e0a578151610df18882610d94565b9750610dfc83610dac565b925050600181019050610ddd565b5085935050505092915050565b60006040820190508181036000830152610e318185610cf1565b90508181036020830152610e458184610db9565b90509392505050565b600081519050919050565b600082825260208201905092915050565b6000819050602082019050919050565b60006fffffffffffffffffffffffffffffffff82169050919050565b610e9f81610e7a565b82525050565b604082016000820151610ebb6000850182610e96565b506020820151610ece6020850182610e96565b50505050565b6000610ee08383610ea5565b60408301905092915050565b6000602082019050919050565b6000610f0482610e4e565b610f0e8185610e59565b9350610f1983610e6a565b8060005b83811015610f4a578151610f318882610ed4565b9750610f3c83610eec565b925050600181019050610f1d565b5085935050505092915050565b60006020820190508181036000830152610f718184610ef9565b905092915050565b610f8281610cab565b82525050565b610f9181610d7b565b82525050565b6000604082019050610fac6000830185610f79565b610fb96020830184610f88565b9392505050565b60008115159050919050565b610fd581610fc0565b8114610fe057600080fd5b50565b600081519050610ff281610fcc565b92915050565b60006020828403121561100e5761100d610ac6565b5b600061101c84828501610fe3565b91505092915050565b7f4e487b7100000000000000000000000000000000000000000000000000000000600052603260045260246000fd5b7f4e487b7100000000000000000000000000000000000000000000000000000000600052601160045260246000fd5b600061108e82610d7b565b915061109983610d7b565b92508282019050808211156110b1576110b0611054565b5b92915050565b60006110c282610d7b565b91507fffffffffffffffffffffffffffffffffffffffffffffffffffffffffffffffff82036110f4576110f3611054565b5b600182019050919050565b61110881610d7b565b811461111357600080fd5b50565b600081519050611125816110ff565b92915050565b60005b8381101561114957808201518184015260208101905061112e565b60008484015250505050565b600061116861116384610b66565b610b4b565b90508281526020810184848401111561118457611183610ad5565b5b61118f84828561112b565b509392505050565b600082601f8301126111ac576111ab610ad0565b5b81516111bc848260208601611155565b91505092915050565b600080604083850312156111dc576111db610ac6565b5b60006111ea85828601611116565b925050602083015167ffffffffffffffff81111561120b5761120a610acb565b5b61121785828601611197565b9150509250929050565b7f4e487b7100000000000000000000000000000000000000000000000000000000600052602160045260246000fd5b600082825260208201905092915050565b7f7265636569766543616c6c46726f6d5661756c743a20496e76616c696420616360008201527f74696f6e49640000000000000000000000000000000000000000000000000000602082015250565b60006112bd602683611250565b91506112c882611261565b604082019050919050565b600060208201905081810360008301526112ec816112b0565b9050919050565b6000604082019050818103600083015261130d8185610db9565b905061131c6020830184610f79565b9392505050565b600067ffffffffffffffff82111561133e5761133d610aeb565b5b602082029050602081019050919050565b600080fd5b600061136761136284611323565b610b4b565b9050808382526020820190506020840283018581111561138a5761138961134f565b5b835b818110156113b3578061139f8882611116565b84526020840193505060208101905061138c565b5050509392505050565b600082601f8301126113d2576113d1610ad0565b5b81516113e2848260208601611354565b91505092915050565b60006020828403121561140157611400610ac6565b5b600082015167ffffffffffffffff81111561141f5761141e610acb565b5b61142b848285016113bd565b91505092915050565b60006020820190506114496000830184610f88565b92915050565b600060608201905081810360008301526114698186610db9565b9050818103602083015261147d8185610db9565b905061148c6040830184610f79565b949350505050565b600061149f82610d7b565b91506114aa83610d7b565b92508282039050818111156114c2576114c1611054565b5b92915050565b7f4e487b7100000000000000000000000000000000000000000000000000000000600052603160045260246000fd5b6000806040838503121561150e5761150d610ac6565b5b600083015167ffffffffffffffff81111561152c5761152b610acb565b5b611538858286016113bd565b925050602083015167ffffffffffffffff81111561155957611558610acb565b5b611565858286016113bd565b915050925092905056","linkReferences":{}},"methodIdentifiers":{"getDebtAssets()":"ecd658b4","getManagedAssets()":"80daddb8","getRequests()":"8813ce12","init(bytes)":"4ddf47d4","receiveCallFromVault(bytes)":"e5c23a97"},"id":56}