{"abi":[{"type":"constructor","inputs":[{"name":"_integrationManager","type":"address","internalType":"address"},{"name":"_router","type":"address","internalType":"address"}],"stateMutability":"nonpayable"},{"type":"function","name":"CLAIM_REWARDS_SELECTOR","inputs":[],"outputs":[{"name":"","type":"bytes4","internalType":"bytes4"}],"stateMutability":"view"},{"type":"function","name":"LEND_AND_STAKE_SELECTOR","inputs":[],"outputs":[{"name":"","type":"bytes4","internalType":"bytes4"}],"stateMutability":"view"},{"type":"function","name":"LEND_SELECTOR","inputs":[],"outputs":[{"name":"","type":"bytes4","internalType":"bytes4"}],"stateMutability":"view"},{"type":"function","name":"REDEEM_SELECTOR","inputs":[],"outputs":[{"name":"","type":"bytes4","internalType":"bytes4"}],"stateMutability":"view"},{"type":"function","name":"STAKE_SELECTOR","inputs":[],"outputs":[{"name":"","type":"bytes4","internalType":"bytes4"}],"stateMutability":"view"},{"type":"function","name":"TAKE_MULTIPLE_ORDERS_SELECTOR","inputs":[],"outputs":[{"name":"","type":"bytes4","internalType":"bytes4"}],"stateMutability":"view"},{"type":"function","name":"TAKE_ORDER_SELECTOR","inputs":[],"outputs":[{"name":"","type":"bytes4","internalType":"bytes4"}],"stateMutability":"view"},{"type":"function","name":"UNSTAKE_AND_REDEEM_SELECTOR","inputs":[],"outputs":[{"name":"","type":"bytes4","internalType":"bytes4"}],"stateMutability":"view"},{"type":"function","name":"UNSTAKE_SELECTOR","inputs":[],"outputs":[{"name":"","type":"bytes4","internalType":"bytes4"}],"stateMutability":"view"},{"type":"function","name":"getIntegrationManager","inputs":[],"outputs":[{"name":"integrationManager_","type":"address","internalType":"address"}],"stateMutability":"view"},{"type":"function","name":"getUniswapV3Router","inputs":[],"outputs":[{"name":"router_","type":"address","internalType":"address"}],"stateMutability":"view"},{"type":"function","name":"parseAssetsForAction","inputs":[{"name":"","type":"address","internalType":"address"},{"name":"_selector","type":"bytes4","internalType":"bytes4"},{"name":"_actionData","type":"bytes","internalType":"bytes"}],"outputs":[{"name":"spendAssetsHandleType_","type":"uint8","internalType":"enum IIntegrationManager.SpendAssetsHandleType"},{"name":"spendAssets_","type":"address[]","internalType":"address[]"},{"name":"spendAssetAmounts_","type":"uint256[]","internalType":"uint256[]"},{"name":"incomingAssets_","type":"address[]","internalType":"address[]"},{"name":"minIncomingAssetAmounts_","type":"uint256[]","internalType":"uint256[]"}],"stateMutability":"view"},{"type":"function","name":"takeOrder","inputs":[{"name":"_vaultProxy","type":"address","internalType":"address"},{"name":"_actionData","type":"bytes","internalType":"bytes"},{"name":"","type":"bytes","internalType":"bytes"}],"outputs":[],"stateMutability":"nonpayable"}],"bytecode":{"object":"0x60c06040523480156200001157600080fd5b5060405162002080380380620020808339818101604052810190620000379190620000c8565b80828073ffffffffffffffffffffffffffffffffffffffff1660808173ffffffffffffffffffffffffffffffffffffffff1660601b81525050508073ffffffffffffffffffffffffffffffffffffffff1660a08173ffffffffffffffffffffffffffffffffffffffff1660601b8152505050505062000157565b600081519050620000c2816200013d565b92915050565b60008060408385031215620000dc57600080fd5b6000620000ec85828601620000b1565b9250506020620000ff85828601620000b1565b9150509250929050565b600062000116826200011d565b9050919050565b600073ffffffffffffffffffffffffffffffffffffffff82169050919050565b620001488162000109565b81146200015457600080fd5b50565b60805160601c60a05160601c611ef0620001906000398061046f52806108ff5280610a2052508061027052806108745250611ef06000f3fe608060405234801561001057600080fd5b50600436106100cf5760003560e01c8063863e5ad01161008c578063c32990a211610066578063c32990a2146101e0578063c54efee5146101fe578063e7c4569014610232578063f7d882b514610250576100cf565b8063863e5ad014610186578063b23228cf146101a4578063b9e3de44146101c2576100cf565b806303e38a2b146100d4578063080456c1146100f0578063131461c01461010e578063257cb1a31461012c5780633ffc15911461014a57806340da225d14610168575b600080fd5b6100ee60048036038101906100e9919061123d565b61026e565b005b6100f861036f565b6040516101059190611a27565b60405180910390f35b610116610393565b6040516101239190611a27565b60405180910390f35b6101346103b7565b6040516101419190611a27565b60405180910390f35b6101526103db565b60405161015f9190611a27565b60405180910390f35b6101706103ff565b60405161017d9190611a27565b60405180910390f35b61018e610423565b60405161019b9190611a27565b60405180910390f35b6101ac610447565b6040516101b99190611a27565b60405180910390f35b6101ca61046b565b6040516101d791906119ba565b60405180910390f35b6101e8610493565b6040516101f59190611a27565b60405180910390f35b610218600480360381019061021391906111d1565b6104b7565b604051610229959493929190611a42565b60405180910390f35b61023a610870565b60405161024791906119ba565b60405180910390f35b610258610898565b6040516102659190611a27565b60405180910390f35b7f000000000000000000000000000000000000000000000000000000000000000073ffffffffffffffffffffffffffffffffffffffff163373ffffffffffffffffffffffffffffffffffffffff16146102fc576040517f08c379a00000000000000000000000000000000000000000000000000000000081526004016102f390611b33565b60405180910390fd5b60608060008061034f88888080601f016020809104026020016040519081016040528093929190818152602001838380828437600081840152601f19601f820116905080830192505050505050506108bc565b935093509350935061036489858585856108e5565b505050505050505050565b7f8334eb99be0145865eba9889fca2ee920288090caefff4cc776038e20ad9259a81565b7f29fa046e79524c3c5ac4c01df692c35e217802b2b13b21121b76cf0ef02b138c81565b7f099f75155f0e997bf83a7993a71d5e7e7540bd386fe1e84643a09ce6b412521981565b7ffa7dd04da627f433da73c4355ead9c75682a67a8fc84d3f6170ef0922f402d2481565b7fb9dfbaccbe5cd2a84fdcf1d15f23ef25d23086f5afbaa99516065ed4a5bbc7a381565b7f03e38a2bd7063d45c897edeafc330e71657502dd86434d3c37a489caf116af6981565b7f68e30677f607df46e87da13e15b637784cfa62374b653f35ab43d10361a2f83081565b60007f0000000000000000000000000000000000000000000000000000000000000000905090565b7f0e7f692dad5b88fdee426250d6eae91207e56a2e8112b7364579bed1790e5bf481565b60006060806060807f03e38a2bd7063d45c897edeafc330e71657502dd86434d3c37a489caf116af697bffffffffffffffffffffffffffffffffffffffffffffffffffffffff1916887bffffffffffffffffffffffffffffffffffffffffffffffffffffffff19161461055f576040517f08c379a000000000000000000000000000000000000000000000000000000000815260040161055690611bb3565b60405180910390fd5b6060806000806105b28b8b8080601f016020809104026020016040519081016040528093929190818152602001838380828437600081840152601f19601f820116905080830192505050505050506108bc565b93509350935093506002845110156105ff576040517f08c379a00000000000000000000000000000000000000000000000000000000081526004016105f690611b13565b60405180910390fd5b6001835101845114610646576040517f08c379a000000000000000000000000000000000000000000000000000000000815260040161063d90611ad3565b60405180910390fd5b600167ffffffffffffffff8111801561065e57600080fd5b5060405190808252806020026020018201604052801561068d5781602001602082028036833780820191505090505b5097508360008151811061069d57fe5b6020026020010151886000815181106106b257fe5b602002602001019073ffffffffffffffffffffffffffffffffffffffff16908173ffffffffffffffffffffffffffffffffffffffff1681525050600167ffffffffffffffff8111801561070457600080fd5b506040519080825280602002602001820160405280156107335781602001602082028036833780820191505090505b509650818760008151811061074457fe5b602002602001018181525050600167ffffffffffffffff8111801561076857600080fd5b506040519080825280602002602001820160405280156107975781602001602082028036833780820191505090505b509550836001855103815181106107aa57fe5b6020026020010151866000815181106107bf57fe5b602002602001019073ffffffffffffffffffffffffffffffffffffffff16908173ffffffffffffffffffffffffffffffffffffffff1681525050600167ffffffffffffffff8111801561081157600080fd5b506040519080825280602002602001820160405280156108405781602001602082028036833780820191505090505b509450808560008151811061085157fe5b6020026020010181815250506002985050505050945094509450945094565b60007f0000000000000000000000000000000000000000000000000000000000000000905090565b7fc29fa9dde84204c2908778afd0613d802d31cf046179b88f6d2b4a4e507ea2d581565b606080600080848060200190518101906108d691906112c6565b93509350935093509193509193565b610924846000815181106108f557fe5b60200260200101517f000000000000000000000000000000000000000000000000000000000000000084610ad3565b606060005b85518110156109d3576001865103811461098e578186828151811061094a57fe5b602002602001015186838151811061095e57fe5b602002602001015160405160200161097893929190611981565b60405160208183030381529060405291506109c6565b8186828151811061099b57fe5b60200260200101516040516020016109b4929190611959565b60405160208183030381529060405291505b8080600101915050610929565b506109dc610fbe565b6040518060a001604052808381526020018873ffffffffffffffffffffffffffffffffffffffff1681526020016001420181526020018581526020018481525090507f000000000000000000000000000000000000000000000000000000000000000073ffffffffffffffffffffffffffffffffffffffff1663c04b8d59826040518263ffffffff1660e01b8152600401610a779190611bd3565b602060405180830381600087803b158015610a9157600080fd5b505af1158015610aa5573d6000803e3d6000fd5b505050506040513d601f19601f82011682018060405250810190610ac99190611382565b5050505050505050565b60008373ffffffffffffffffffffffffffffffffffffffff1663dd62ed3e30856040518363ffffffff1660e01b8152600401610b109291906119d5565b60206040518083038186803b158015610b2857600080fd5b505afa158015610b3c573d6000803e3d6000fd5b505050506040513d601f19601f82011682018060405250810190610b609190611382565b905081811015610bec576000811115610ba057610b9f8360008673ffffffffffffffffffffffffffffffffffffffff16610bf29092919063ffffffff16565b5b610beb837fffffffffffffffffffffffffffffffffffffffffffffffffffffffffffffffff8673ffffffffffffffffffffffffffffffffffffffff16610bf29092919063ffffffff16565b5b50505050565b6000811480610c8b575060008373ffffffffffffffffffffffffffffffffffffffff1663dd62ed3e30856040518363ffffffff1660e01b8152600401610c399291906119d5565b60206040518083038186803b158015610c5157600080fd5b505afa158015610c65573d6000803e3d6000fd5b505050506040513d601f19601f82011682018060405250810190610c899190611382565b145b610cca576040517f08c379a0000000000000000000000000000000000000000000000000000000008152600401610cc190611b93565b60405180910390fd5b610d4b8363095ea7b360e01b8484604051602401610ce99291906119fe565b604051602081830303815290604052907bffffffffffffffffffffffffffffffffffffffffffffffffffffffff19166020820180517bffffffffffffffffffffffffffffffffffffffffffffffffffffffff8381831617835250505050610d50565b505050565b6060610db2826040518060400160405280602081526020017f5361666545524332303a206c6f772d6c6576656c2063616c6c206661696c65648152508573ffffffffffffffffffffffffffffffffffffffff16610e179092919063ffffffff16565b9050600081511115610e125780806020019051810190610dd29190611359565b610e11576040517f08c379a0000000000000000000000000000000000000000000000000000000008152600401610e0890611b73565b60405180910390fd5b5b505050565b6060610e268484600085610e2f565b90509392505050565b606082471015610e74576040517f08c379a0000000000000000000000000000000000000000000000000000000008152600401610e6b90611af3565b60405180910390fd5b610e7d85610f44565b610ebc576040517f08c379a0000000000000000000000000000000000000000000000000000000008152600401610eb390611b53565b60405180910390fd5b600060608673ffffffffffffffffffffffffffffffffffffffff168587604051610ee69190611942565b60006040518083038185875af1925050503d8060008114610f23576040519150601f19603f3d011682016040523d82523d6000602084013e610f28565b606091505b5091509150610f38828286610f57565b92505050949350505050565b600080823b905060008111915050919050565b60608315610f6757829050610fb7565b600083511115610f7a5782518084602001fd5b816040517f08c379a0000000000000000000000000000000000000000000000000000000008152600401610fae9190611ab1565b60405180910390fd5b9392505050565b6040518060a0016040528060608152602001600073ffffffffffffffffffffffffffffffffffffffff1681526020016000815260200160008152602001600081525090565b60008135905061101281611e70565b92915050565b60008151905061102781611e70565b92915050565b600082601f83011261103e57600080fd5b815161105161104c82611c22565b611bf5565b9150818183526020840193506020810190508385602084028201111561107657600080fd5b60005b838110156110a6578161108c8882611018565b845260208401935060208301925050600181019050611079565b5050505092915050565b600082601f8301126110c157600080fd5b81516110d46110cf82611c4a565b611bf5565b915081818352602084019350602081019050838560208402820111156110f957600080fd5b60005b83811015611129578161110f88826111a7565b8452602084019350602083019250506001810190506110fc565b5050505092915050565b60008151905061114281611e87565b92915050565b60008135905061115781611e9e565b92915050565b60008083601f84011261116f57600080fd5b8235905067ffffffffffffffff81111561118857600080fd5b6020830191508360018202830111156111a057600080fd5b9250929050565b6000815190506111b681611eb5565b92915050565b6000815190506111cb81611ecc565b92915050565b600080600080606085870312156111e757600080fd5b60006111f587828801611003565b945050602061120687828801611148565b935050604085013567ffffffffffffffff81111561122357600080fd5b61122f8782880161115d565b925092505092959194509250565b60008060008060006060868803121561125557600080fd5b600061126388828901611003565b955050602086013567ffffffffffffffff81111561128057600080fd5b61128c8882890161115d565b9450945050604086013567ffffffffffffffff8111156112ab57600080fd5b6112b78882890161115d565b92509250509295509295909350565b600080600080608085870312156112dc57600080fd5b600085015167ffffffffffffffff8111156112f657600080fd5b6113028782880161102d565b945050602085015167ffffffffffffffff81111561131f57600080fd5b61132b878288016110b0565b935050604061133c878288016111bc565b925050606061134d878288016111bc565b91505092959194509250565b60006020828403121561136b57600080fd5b600061137984828501611133565b91505092915050565b60006020828403121561139457600080fd5b60006113a2848285016111bc565b91505092915050565b60006113b783836113db565b60208301905092915050565b60006113cf8383611924565b60208301905092915050565b6113e481611d27565b82525050565b6113f381611d27565b82525050565b61140a61140582611d27565b611e02565b82525050565b600061141b82611c92565b6114258185611cd8565b935061143083611c72565b8060005b8381101561146157815161144888826113ab565b975061145383611cbe565b925050600181019050611434565b5085935050505092915050565b600061147982611c9d565b6114838185611ce9565b935061148e83611c82565b8060005b838110156114bf5781516114a688826113c3565b97506114b183611ccb565b925050600181019050611492565b5085935050505092915050565b6114d581611d45565b82525050565b60006114e682611ca8565b6114f08185611cfa565b9350611500818560208601611dcf565b61150981611e38565b840191505092915050565b600061151f82611ca8565b6115298185611d0b565b9350611539818560208601611dcf565b80840191505092915050565b61154e81611dbd565b82525050565b600061155f82611cb3565b6115698185611d16565b9350611579818560208601611dcf565b61158281611e38565b840191505092915050565b600061159a604083611d16565b91507f7061727365417373657473466f72416374696f6e3a20696e636f72726563742060008301527f70617468416464726573736573206f72207061746846656573206c656e6774686020830152604082019050919050565b6000611600602683611d16565b91507f416464726573733a20696e73756666696369656e742062616c616e636520666f60008301527f722063616c6c00000000000000000000000000000000000000000000000000006020830152604082019050919050565b6000611666603083611d16565b91507f7061727365417373657473466f72416374696f6e3a207061746841646472657360008301527f736573206d757374206265203e3d2032000000000000000000000000000000006020830152604082019050919050565b60006116cc603283611d16565b91507f4f6e6c792074686520496e746567726174696f6e4d616e616765722063616e2060008301527f63616c6c20746869732066756e6374696f6e00000000000000000000000000006020830152604082019050919050565b6000611732601d83611d16565b91507f416464726573733a2063616c6c20746f206e6f6e2d636f6e74726163740000006000830152602082019050919050565b6000611772602a83611d16565b91507f5361666545524332303a204552433230206f7065726174696f6e20646964206e60008301527f6f742073756363656564000000000000000000000000000000000000000000006020830152604082019050919050565b60006117d8603683611d16565b91507f5361666545524332303a20617070726f76652066726f6d206e6f6e2d7a65726f60008301527f20746f206e6f6e2d7a65726f20616c6c6f77616e6365000000000000000000006020830152604082019050919050565b600061183e602783611d16565b91507f7061727365417373657473466f72416374696f6e3a205f73656c6563746f722060008301527f696e76616c6964000000000000000000000000000000000000000000000000006020830152604082019050919050565b600060a08301600083015184820360008601526118b482826114db565b91505060208301516118c960208601826113db565b5060408301516118dc6040860182611924565b5060608301516118ef6060860182611924565b5060808301516119026080860182611924565b508091505092915050565b61191e61191982611da4565b611e26565b82525050565b61192d81611db3565b82525050565b61193c81611db3565b82525050565b600061194e8284611514565b915081905092915050565b60006119658285611514565b915061197182846113f9565b6014820191508190509392505050565b600061198d8286611514565b915061199982856113f9565b6014820191506119a9828461190d565b600382019150819050949350505050565b60006020820190506119cf60008301846113ea565b92915050565b60006040820190506119ea60008301856113ea565b6119f760208301846113ea565b9392505050565b6000604082019050611a1360008301856113ea565b611a206020830184611933565b9392505050565b6000602082019050611a3c60008301846114cc565b92915050565b600060a082019050611a576000830188611545565b8181036020830152611a698187611410565b90508181036040830152611a7d818661146e565b90508181036060830152611a918185611410565b90508181036080830152611aa5818461146e565b90509695505050505050565b60006020820190508181036000830152611acb8184611554565b905092915050565b60006020820190508181036000830152611aec8161158d565b9050919050565b60006020820190508181036000830152611b0c816115f3565b9050919050565b60006020820190508181036000830152611b2c81611659565b9050919050565b60006020820190508181036000830152611b4c816116bf565b9050919050565b60006020820190508181036000830152611b6c81611725565b9050919050565b60006020820190508181036000830152611b8c81611765565b9050919050565b60006020820190508181036000830152611bac816117cb565b9050919050565b60006020820190508181036000830152611bcc81611831565b9050919050565b60006020820190508181036000830152611bed8184611897565b905092915050565b6000604051905081810181811067ffffffffffffffff82111715611c1857600080fd5b8060405250919050565b600067ffffffffffffffff821115611c3957600080fd5b602082029050602081019050919050565b600067ffffffffffffffff821115611c6157600080fd5b602082029050602081019050919050565b6000819050602082019050919050565b6000819050602082019050919050565b600081519050919050565b600081519050919050565b600081519050919050565b600081519050919050565b6000602082019050919050565b6000602082019050919050565b600082825260208201905092915050565b600082825260208201905092915050565b600082825260208201905092915050565b600081905092915050565b600082825260208201905092915050565b6000611d3282611d84565b9050919050565b60008115159050919050565b60007fffffffff0000000000000000000000000000000000000000000000000000000082169050919050565b6000819050611d7f82611e63565b919050565b600073ffffffffffffffffffffffffffffffffffffffff82169050919050565b600062ffffff82169050919050565b6000819050919050565b6000611dc882611d71565b9050919050565b60005b83811015611ded578082015181840152602081019050611dd2565b83811115611dfc576000848401525b50505050565b6000611e0d82611e14565b9050919050565b6000611e1f82611e56565b9050919050565b6000611e3182611e49565b9050919050565b6000601f19601f8301169050919050565b60008160e81b9050919050565b60008160601b9050919050565b60038110611e6d57fe5b50565b611e7981611d27565b8114611e8457600080fd5b50565b611e9081611d39565b8114611e9b57600080fd5b50565b611ea781611d45565b8114611eb257600080fd5b50565b611ebe81611da4565b8114611ec957600080fd5b50565b611ed581611db3565b8114611ee057600080fd5b5056fea164736f6c634300060c000a","linkReferences":{}},"methodIdentifiers":{"CLAIM_REWARDS_SELECTOR()":"40da225d","LEND_AND_STAKE_SELECTOR()":"131461c0","LEND_SELECTOR()":"257cb1a3","REDEEM_SELECTOR()":"f7d882b5","STAKE_SELECTOR()":"3ffc1591","TAKE_MULTIPLE_ORDERS_SELECTOR()":"c32990a2","TAKE_ORDER_SELECTOR()":"863e5ad0","UNSTAKE_AND_REDEEM_SELECTOR()":"080456c1","UNSTAKE_SELECTOR()":"b23228cf","getIntegrationManager()":"e7c45690","getUniswapV3Router()":"b9e3de44","parseAssetsForAction(address,bytes4,bytes)":"c54efee5","takeOrder(address,bytes,bytes)":"03e38a2b"},"id":221}