{"abi":[{"type":"constructor","inputs":[{"name":"_integrationManager","type":"address","internalType":"address"},{"name":"_router","type":"address","internalType":"address"}],"stateMutability":"nonpayable"},{"type":"function","name":"CLAIM_REWARDS_SELECTOR","inputs":[],"outputs":[{"name":"","type":"bytes4","internalType":"bytes4"}],"stateMutability":"view"},{"type":"function","name":"LEND_AND_STAKE_SELECTOR","inputs":[],"outputs":[{"name":"","type":"bytes4","internalType":"bytes4"}],"stateMutability":"view"},{"type":"function","name":"LEND_SELECTOR","inputs":[],"outputs":[{"name":"","type":"bytes4","internalType":"bytes4"}],"stateMutability":"view"},{"type":"function","name":"REDEEM_SELECTOR","inputs":[],"outputs":[{"name":"","type":"bytes4","internalType":"bytes4"}],"stateMutability":"view"},{"type":"function","name":"STAKE_SELECTOR","inputs":[],"outputs":[{"name":"","type":"bytes4","internalType":"bytes4"}],"stateMutability":"view"},{"type":"function","name":"TAKE_MULTIPLE_ORDERS_SELECTOR","inputs":[],"outputs":[{"name":"","type":"bytes4","internalType":"bytes4"}],"stateMutability":"view"},{"type":"function","name":"TAKE_ORDER_SELECTOR","inputs":[],"outputs":[{"name":"","type":"bytes4","internalType":"bytes4"}],"stateMutability":"view"},{"type":"function","name":"UNSTAKE_AND_REDEEM_SELECTOR","inputs":[],"outputs":[{"name":"","type":"bytes4","internalType":"bytes4"}],"stateMutability":"view"},{"type":"function","name":"UNSTAKE_SELECTOR","inputs":[],"outputs":[{"name":"","type":"bytes4","internalType":"bytes4"}],"stateMutability":"view"},{"type":"function","name":"getIntegrationManager","inputs":[],"outputs":[{"name":"integrationManager_","type":"address","internalType":"address"}],"stateMutability":"view"},{"type":"function","name":"getUniswapV3Router","inputs":[],"outputs":[{"name":"router_","type":"address","internalType":"address"}],"stateMutability":"view"},{"type":"function","name":"parseAssetsForAction","inputs":[{"name":"","type":"address","internalType":"address"},{"name":"_selector","type":"bytes4","internalType":"bytes4"},{"name":"_actionData","type":"bytes","internalType":"bytes"}],"outputs":[{"name":"spendAssetsHandleType_","type":"uint8","internalType":"enum IIntegrationManager.SpendAssetsHandleType"},{"name":"spendAssets_","type":"address[]","internalType":"address[]"},{"name":"spendAssetAmounts_","type":"uint256[]","internalType":"uint256[]"},{"name":"incomingAssets_","type":"address[]","internalType":"address[]"},{"name":"minIncomingAssetAmounts_","type":"uint256[]","internalType":"uint256[]"}],"stateMutability":"view"},{"type":"function","name":"takeOrder","inputs":[{"name":"_vaultProxy","type":"address","internalType":"address"},{"name":"_actionData","type":"bytes","internalType":"bytes"},{"name":"","type":"bytes","internalType":"bytes"}],"outputs":[],"stateMutability":"nonpayable"}],"bytecode":{"object":"0x60c06040523480156200001157600080fd5b506040516200171938038062001719833981016040819052620000349162000066565b6001600160601b0319606092831b8116608052911b1660a052620000d1565b80516200006081620000b7565b92915050565b600080604083850312156200007a57600080fd5b600062000088858562000053565b92505060206200009b8582860162000053565b9150509250929050565b60006001600160a01b03821662000060565b620000c281620000a5565b8114620000ce57600080fd5b50565b60805160601c60a05160601c61160f6200010a6000398061033c528061061252806107215250806101935280610589525061160f6000f3fe608060405234801561001057600080fd5b50600436106100cf5760003560e01c8063863e5ad01161008c578063c32990a211610066578063c32990a21461014c578063c54efee514610154578063e7c4569014610178578063f7d882b514610180576100cf565b8063863e5ad014610127578063b23228cf1461012f578063b9e3de4414610137576100cf565b806303e38a2b146100d4578063080456c1146100e9578063131461c014610107578063257cb1a31461010f5780633ffc15911461011757806340da225d1461011f575b600080fd5b6100e76100e2366004610d54565b610188565b005b6100f161023e565b6040516100fe91906113af565b60405180910390f35b6100f1610262565b6100f1610286565b6100f16102aa565b6100f16102ce565b6100f16102f2565b6100f1610316565b61013f61033a565b6040516100fe919061136b565b6100f161035e565b610167610162366004610cec565b610382565b6040516100fe9594939291906113bd565b61013f610587565b6100f16105ab565b336001600160a01b037f000000000000000000000000000000000000000000000000000000000000000016146101d95760405162461bcd60e51b81526004016101d09061145a565b60405180910390fd5b60608060008061021e88888080601f0160208091040260200160405190810160405280939291908181526020018383808284376000920191909152506105cf92505050565b935093509350935061023389858585856105f8565b505050505050505050565b7f8334eb99be0145865eba9889fca2ee920288090caefff4cc776038e20ad9259a81565b7f29fa046e79524c3c5ac4c01df692c35e217802b2b13b21121b76cf0ef02b138c81565b7f099f75155f0e997bf83a7993a71d5e7e7540bd386fe1e84643a09ce6b412521981565b7ffa7dd04da627f433da73c4355ead9c75682a67a8fc84d3f6170ef0922f402d2481565b7fb9dfbaccbe5cd2a84fdcf1d15f23ef25d23086f5afbaa99516065ed4a5bbc7a381565b7f03e38a2bd7063d45c897edeafc330e71657502dd86434d3c37a489caf116af6981565b7f68e30677f607df46e87da13e15b637784cfa62374b653f35ab43d10361a2f83081565b7f000000000000000000000000000000000000000000000000000000000000000090565b7f0e7f692dad5b88fdee426250d6eae91207e56a2e8112b7364579bed1790e5bf481565b600060608080806001600160e01b031988166303e38a2b60e01b146103b95760405162461bcd60e51b81526004016101d09061149a565b6060806000806103fe8b8b8080601f0160208091040260200160405190810160405280939291908181526020018383808284376000920191909152506105cf92505050565b93509350935093506002845110156104285760405162461bcd60e51b81526004016101d09061144a565b825160010184511461044c5760405162461bcd60e51b81526004016101d09061142a565b60408051600180825281830190925290602080830190803683370190505097508360008151811061047957fe5b60200260200101518860008151811061048e57fe5b6001600160a01b039290921660209283029190910182015260408051600180825281830190925291828101908036833701905050965081876000815181106104d257fe5b6020908102919091010152604080516001808252818301909252908160200160208202803683370190505095508360018551038151811061050f57fe5b60200260200101518660008151811061052457fe5b6001600160a01b0392909216602092830291909101820152604080516001808252818301909252918281019080368337019050509450808560008151811061056857fe5b6020026020010181815250506002985050505050945094509450945094565b7f000000000000000000000000000000000000000000000000000000000000000090565b7fc29fa9dde84204c2908778afd0613d802d31cf046179b88f6d2b4a4e507ea2d581565b606080600080848060200190518101906105e99190610ddb565b93509350935093509193509193565b6106378460008151811061060857fe5b60200260200101517f0000000000000000000000000000000000000000000000000000000000000000846107c7565b606060005b85518110156106e157600186510381146106a1578186828151811061065d57fe5b602002602001015186838151811061067157fe5b602002602001015160405160200161068b93929190611338565b60405160208183030381529060405291506106d9565b818682815181106106ae57fe5b60200260200101516040516020016106c7929190611316565b60405160208183030381529060405291505b60010161063c565b506106ea610b34565b6040518060a00160405280838152602001886001600160a01b031681526020014260010181526020018581526020018481525090507f00000000000000000000000000000000000000000000000000000000000000006001600160a01b031663c04b8d59826040518263ffffffff1660e01b815260040161076b91906114aa565b602060405180830381600087803b15801561078557600080fd5b505af1158015610799573d6000803e3d6000fd5b505050506040513d601f19601f820116820180604052508101906107bd9190610e91565b5050505050505050565b604051636eb1769f60e11b81526000906001600160a01b0385169063dd62ed3e906107f89030908790600401611379565b60206040518083038186803b15801561081057600080fd5b505afa158015610824573d6000803e3d6000fd5b505050506040513d601f19601f820116820180604052508101906108489190610e91565b90508181101561088357801561086d5761086d6001600160a01b038516846000610889565b6108836001600160a01b03851684600019610889565b50505050565b8015806109115750604051636eb1769f60e11b81526001600160a01b0384169063dd62ed3e906108bf9030908690600401611379565b60206040518083038186803b1580156108d757600080fd5b505afa1580156108eb573d6000803e3d6000fd5b505050506040513d601f19601f8201168201806040525081019061090f9190610e91565b155b61092d5760405162461bcd60e51b81526004016101d09061148a565b6109838363095ea7b360e01b848460405160240161094c929190611394565b60408051601f198184030181529190526020810180516001600160e01b03166001600160e01b031990931692909217909152610988565b505050565b60606109dd826040518060400160405280602081526020017f5361666545524332303a206c6f772d6c6576656c2063616c6c206661696c6564815250856001600160a01b0316610a179092919063ffffffff16565b80519091501561098357808060200190518101906109fb9190610e6b565b6109835760405162461bcd60e51b81526004016101d09061147a565b6060610a268484600085610a30565b90505b9392505050565b606082471015610a525760405162461bcd60e51b81526004016101d09061143a565b610a5b85610af1565b610a775760405162461bcd60e51b81526004016101d09061146a565b60006060866001600160a01b03168587604051610a94919061130a565b60006040518083038185875af1925050503d8060008114610ad1576040519150601f19603f3d011682016040523d82523d6000602084013e610ad6565b606091505b5091509150610ae6828286610afb565b979650505050505050565b803b15155b919050565b60608315610b0a575081610a29565b825115610b1a5782518084602001fd5b8160405162461bcd60e51b81526004016101d09190611419565b6040518060a001604052806060815260200160006001600160a01b031681526020016000815260200160008152602001600081525090565b8035610b77816115ca565b92915050565b8051610b77816115ca565b600082601f830112610b9957600080fd5b8151610bac610ba7826114e2565b6114bb565b91508181835260208401935060208101905083856020840282011115610bd157600080fd5b60005b83811015610bfd5781610be78882610b7d565b8452506020928301929190910190600101610bd4565b5050505092915050565b600082601f830112610c1857600080fd5b8151610c26610ba7826114e2565b91508181835260208401935060208101905083856020840282011115610c4b57600080fd5b60005b83811015610bfd5781610c618882610cd6565b8452506020928301929190910190600101610c4e565b8051610b77816115de565b8035610b77816115e7565b60008083601f840112610c9f57600080fd5b50813567ffffffffffffffff811115610cb757600080fd5b602083019150836001820283011115610ccf57600080fd5b9250929050565b8051610b77816115f0565b8051610b77816115f9565b60008060008060608587031215610d0257600080fd5b6000610d0e8787610b6c565b9450506020610d1f87828801610c82565b935050604085013567ffffffffffffffff811115610d3c57600080fd5b610d4887828801610c8d565b95989497509550505050565b600080600080600060608688031215610d6c57600080fd5b6000610d788888610b6c565b955050602086013567ffffffffffffffff811115610d9557600080fd5b610da188828901610c8d565b9450945050604086013567ffffffffffffffff811115610dc057600080fd5b610dcc88828901610c8d565b92509250509295509295909350565b60008060008060808587031215610df157600080fd5b845167ffffffffffffffff811115610e0857600080fd5b610e1487828801610b88565b945050602085015167ffffffffffffffff811115610e3157600080fd5b610e3d87828801610c07565b9350506040610e4e87828801610ce1565b9250506060610e5f87828801610ce1565b91505092959194509250565b600060208284031215610e7d57600080fd5b6000610e898484610c77565b949350505050565b600060208284031215610ea357600080fd5b6000610e898484610ce1565b6000610ebb8383610ecf565b505060200190565b6000610ebb8383611301565b610ed881611516565b82525050565b610ed8610eea82611516565b61158b565b6000610efa82611509565b610f04818561150d565b9350610f0f83611503565b8060005b83811015610f3d578151610f278882610eaf565b9750610f3283611503565b925050600101610f13565b509495945050505050565b6000610f5382611509565b610f5d818561150d565b9350610f6883611503565b8060005b83811015610f3d578151610f808882610ec3565b9750610f8b83611503565b925050600101610f6c565b610ed881611526565b6000610faa82611509565b610fb4818561150d565b9350610fc481856020860161155f565b610fcd816115a7565b9093019392505050565b6000610fe282611509565b610fec8185610af6565b9350610ffc81856020860161155f565b9290920192915050565b610ed881611554565b600061101c60408361150d565b7f7061727365417373657473466f72416374696f6e3a20696e636f72726563742081527f70617468416464726573736573206f72207061746846656573206c656e677468602082015260400192915050565b600061107b60268361150d565b7f416464726573733a20696e73756666696369656e742062616c616e636520666f8152651c8818d85b1b60d21b602082015260400192915050565b60006110c360308361150d565b7f7061727365417373657473466f72416374696f6e3a207061746841646472657381526f39b2b99036bab9ba103132901f1e901960811b602082015260400192915050565b600061111560328361150d565b7f4f6e6c792074686520496e746567726174696f6e4d616e616765722063616e2081527131b0b636103a3434b990333ab731ba34b7b760711b602082015260400192915050565b6000611169601d8361150d565b7f416464726573733a2063616c6c20746f206e6f6e2d636f6e7472616374000000815260200192915050565b60006111a2602a8361150d565b7f5361666545524332303a204552433230206f7065726174696f6e20646964206e8152691bdd081cdd58d8d9595960b21b602082015260400192915050565b60006111ee60368361150d565b7f5361666545524332303a20617070726f76652066726f6d206e6f6e2d7a65726f81527520746f206e6f6e2d7a65726f20616c6c6f77616e636560501b602082015260400192915050565b600061124660278361150d565b7f7061727365417373657473466f72416374696f6e3a205f73656c6563746f72208152661a5b9d985b1a5960ca1b602082015260400192915050565b805160a08084526000919084019061129a8282610f9f565b91505060208301516112af6020860182610ecf565b5060408301516112c26040860182611301565b5060608301516112d56060860182611301565b5060808301516112e86080860182611301565b509392505050565b610ed86112fc82611549565b61159c565b610ed881611551565b6000610a298284610fd7565b60006113228285610fd7565b915061132e8284610ede565b5060140192915050565b60006113448286610fd7565b91506113508285610ede565b60148201915061136082846112f0565b506003019392505050565b60208101610b778284610ecf565b604081016113878285610ecf565b610a296020830184610ecf565b604081016113a28285610ecf565b610a296020830184611301565b60208101610b778284610f96565b60a081016113cb8288611006565b81810360208301526113dd8187610eef565b905081810360408301526113f18186610f48565b905081810360608301526114058185610eef565b90508181036080830152610ae68184610f48565b60208082528101610a298184610f9f565b60208082528101610b778161100f565b60208082528101610b778161106e565b60208082528101610b77816110b6565b60208082528101610b7781611108565b60208082528101610b778161115c565b60208082528101610b7781611195565b60208082528101610b77816111e1565b60208082528101610b7781611239565b60208082528101610a298184611282565b60405181810167ffffffffffffffff811182821017156114da57600080fd5b604052919050565b600067ffffffffffffffff8211156114f957600080fd5b5060209081020190565b60200190565b5190565b90815260200190565b6000610b778261153d565b151590565b6001600160e01b03191690565b80610af6816115bd565b6001600160a01b031690565b62ffffff1690565b90565b6000610b7782611533565b60005b8381101561157a578181015183820152602001611562565b838111156108835750506000910152565b6000610b77826000610b77826115b7565b6000610b77826115b1565b601f01601f191690565b60e81b90565b60601b90565b600381106115c757fe5b50565b6115d381611516565b81146115c757600080fd5b6115d381611521565b6115d381611526565b6115d381611549565b6115d38161155156fea164736f6c634300060c000a","linkReferences":{}},"methodIdentifiers":{"CLAIM_REWARDS_SELECTOR()":"40da225d","LEND_AND_STAKE_SELECTOR()":"131461c0","LEND_SELECTOR()":"257cb1a3","REDEEM_SELECTOR()":"f7d882b5","STAKE_SELECTOR()":"3ffc1591","TAKE_MULTIPLE_ORDERS_SELECTOR()":"c32990a2","TAKE_ORDER_SELECTOR()":"863e5ad0","UNSTAKE_AND_REDEEM_SELECTOR()":"080456c1","UNSTAKE_SELECTOR()":"b23228cf","getIntegrationManager()":"e7c45690","getUniswapV3Router()":"b9e3de44","parseAssetsForAction(address,bytes4,bytes)":"c54efee5","takeOrder(address,bytes,bytes)":"03e38a2b"},"id":221}