{"abi":[{"type":"constructor","inputs":[{"name":"_fundValueCalculatorRouter","type":"address","internalType":"contract IFundValueCalculatorRouter"},{"name":"_externalPositionFactory","type":"address","internalType":"contract IExternalPositionFactory"},{"name":"_policyManager","type":"address","internalType":"contract IPolicyManagerExtended"},{"name":"_feeManager","type":"address","internalType":"contract IFeeManagerExtended"}],"stateMutability":"nonpayable"},{"type":"function","name":"getVaultActiveExternalPositionsDetails","inputs":[{"name":"_vaultProxy","type":"address","internalType":"address"}],"outputs":[{"name":"","type":"bytes","internalType":"bytes"}],"stateMutability":"nonpayable"},{"type":"function","name":"getVaultActiveExternalPositionsDetailsDecoded","inputs":[{"name":"_vaultProxy","type":"address","internalType":"address"}],"outputs":[{"name":"","type":"tuple[]","internalType":"struct IHelperDataReader.ExternalPositionDetails[]","components":[{"name":"label","type":"string","internalType":"string"},{"name":"id","type":"address","internalType":"address"},{"name":"typeId","type":"uint256","internalType":"uint256"},{"name":"debtAssetsAmounts","type":"tuple[]","internalType":"struct IHelperDataReader.AssetAmount[]","components":[{"name":"asset","type":"address","internalType":"address"},{"name":"amount","type":"uint256","internalType":"uint256"}]},{"name":"managedAssetsAmounts","type":"tuple[]","internalType":"struct IHelperDataReader.AssetAmount[]","components":[{"name":"asset","type":"address","internalType":"address"},{"name":"amount","type":"uint256","internalType":"uint256"}]}]}],"stateMutability":"nonpayable"},{"type":"function","name":"getVaultDetails","inputs":[{"name":"_vaultProxy","type":"address","internalType":"address"}],"outputs":[{"name":"","type":"bytes","internalType":"bytes"}],"stateMutability":"nonpayable"},{"type":"function","name":"getVaultDetailsDecoded","inputs":[{"name":"_vaultProxy","type":"address","internalType":"address"}],"outputs":[{"name":"","type":"tuple","internalType":"struct IHelperDataReader.VaultDetails","components":[{"name":"name","type":"string","internalType":"string"},{"name":"symbol","type":"string","internalType":"string"},{"name":"totalSupply","type":"uint256","internalType":"uint256"},{"name":"denominationAsset","type":"address","internalType":"address"},{"name":"netShareValue","type":"uint256","internalType":"uint256"},{"name":"grossAssetValue","type":"uint256","internalType":"uint256"},{"name":"owner","type":"address","internalType":"address"},{"name":"hasInvalidAum","type":"bool","internalType":"bool"}]}],"stateMutability":"nonpayable"},{"type":"function","name":"getVaultDetailsExtended","inputs":[{"name":"_vaultProxy","type":"address","internalType":"address"}],"outputs":[{"name":"","type":"bytes","internalType":"bytes"}],"stateMutability":"nonpayable"},{"type":"function","name":"getVaultDetailsExtendedDecoded","inputs":[{"name":"_vaultProxy","type":"address","internalType":"address"}],"outputs":[{"name":"","type":"tuple","internalType":"struct IHelperDataReader.VaultDetailsExtended","components":[{"name":"name","type":"string","internalType":"string"},{"name":"symbol","type":"string","internalType":"string"},{"name":"totalSupply","type":"uint256","internalType":"uint256"},{"name":"denominationAsset","type":"address","internalType":"address"},{"name":"netShareValue","type":"uint256","internalType":"uint256"},{"name":"grossAssetValue","type":"uint256","internalType":"uint256"},{"name":"owner","type":"address","internalType":"address"},{"name":"hasInvalidAum","type":"bool","internalType":"bool"},{"name":"trackedAssetsAmounts","type":"tuple[]","internalType":"struct IHelperDataReader.AssetAmount[]","components":[{"name":"asset","type":"address","internalType":"address"},{"name":"amount","type":"uint256","internalType":"uint256"}]},{"name":"activeExternalPositionsDetails","type":"tuple[]","internalType":"struct IHelperDataReader.ExternalPositionDetails[]","components":[{"name":"label","type":"string","internalType":"string"},{"name":"id","type":"address","internalType":"address"},{"name":"typeId","type":"uint256","internalType":"uint256"},{"name":"debtAssetsAmounts","type":"tuple[]","internalType":"struct IHelperDataReader.AssetAmount[]","components":[{"name":"asset","type":"address","internalType":"address"},{"name":"amount","type":"uint256","internalType":"uint256"}]},{"name":"managedAssetsAmounts","type":"tuple[]","internalType":"struct IHelperDataReader.AssetAmount[]","components":[{"name":"asset","type":"address","internalType":"address"},{"name":"amount","type":"uint256","internalType":"uint256"}]}]},{"name":"policiesDetails","type":"tuple[]","internalType":"struct IHelperDataReader.PolicyDetails[]","components":[{"name":"identifier","type":"string","internalType":"string"},{"name":"id","type":"address","internalType":"address"}]},{"name":"feesDetails","type":"tuple[]","internalType":"struct IHelperDataReader.FeeDetails[]","components":[{"name":"recipientForFund","type":"address","internalType":"address"},{"name":"id","type":"address","internalType":"address"}]}]}],"stateMutability":"nonpayable"},{"type":"function","name":"getVaultFeesDetails","inputs":[{"name":"_vaultProxy","type":"address","internalType":"address"}],"outputs":[{"name":"","type":"bytes","internalType":"bytes"}],"stateMutability":"view"},{"type":"function","name":"getVaultFeesDetailsDecoded","inputs":[{"name":"_vaultProxy","type":"address","internalType":"address"}],"outputs":[{"name":"","type":"tuple[]","internalType":"struct IHelperDataReader.FeeDetails[]","components":[{"name":"recipientForFund","type":"address","internalType":"address"},{"name":"id","type":"address","internalType":"address"}]}],"stateMutability":"view"},{"type":"function","name":"getVaultPoliciesDetails","inputs":[{"name":"_vaultProxy","type":"address","internalType":"address"}],"outputs":[{"name":"","type":"bytes","internalType":"bytes"}],"stateMutability":"view"},{"type":"function","name":"getVaultPoliciesDetailsDecoded","inputs":[{"name":"_vaultProxy","type":"address","internalType":"address"}],"outputs":[{"name":"","type":"tuple[]","internalType":"struct IHelperDataReader.PolicyDetails[]","components":[{"name":"identifier","type":"string","internalType":"string"},{"name":"id","type":"address","internalType":"address"}]}],"stateMutability":"view"},{"type":"function","name":"getVaultTrackedAssetsAmounts","inputs":[{"name":"_vaultProxy","type":"address","internalType":"address"}],"outputs":[{"name":"","type":"bytes","internalType":"bytes"}],"stateMutability":"view"},{"type":"function","name":"getVaultTrackedAssetsAmountsDecoded","inputs":[{"name":"_vaultProxy","type":"address","internalType":"address"}],"outputs":[{"name":"","type":"tuple[]","internalType":"struct IHelperDataReader.AssetAmount[]","components":[{"name":"asset","type":"address","internalType":"address"},{"name":"amount","type":"uint256","internalType":"uint256"}]}],"stateMutability":"view"}],"bytecode":{"object":"0x6101006040523480156200001257600080fd5b5060405162001fed38038062001fed83398101604081905262000035916200009f565b6001600160a01b0393841660805291831660a052821660c0521660e0526200010d565b60006001600160a01b0382165b92915050565b6000620000658262000058565b62000083816200006b565b81146200008f57600080fd5b50565b8051620000658162000078565b60008060008060808587031215620000ba57620000ba600080fd5b6000620000c8878762000092565b9450506020620000db8782880162000092565b9350506040620000ee8782880162000092565b9250506060620001018782880162000092565b91505092959194509250565b60805160a05160c05160e051611e9f6200014e6000396000610ad90152600061088b0152600061101a01526000818161052d01526106090152611e9f6000f3fe608060405234801561001057600080fd5b50600436106100b45760003560e01c806383677c1e1161007157806383677c1e14610168578063a562c03014610188578063aae1bd7a146101a8578063c57e1be7146101c8578063ee5ad2e4146101db578063fe3ba3ae146101ee57600080fd5b80630241b4cf146100b957806315878250146100e25780634b19e522146100f557806365c1afb01461011557806367a44ca3146101355780637932436a14610148575b600080fd5b6100cc6100c7366004611458565b610201565b6040516100d991906114d7565b60405180910390f35b6100cc6100f0366004611458565b610232565b610108610103366004611458565b61024d565b6040516100d991906115af565b610128610123366004611458565b6106d3565b6040516100d99190611949565b6100cc610143366004611458565b610804565b61015b610156366004611458565b61081f565b6040516100d991906119b3565b61017b610176366004611458565b610a6d565b6040516100d99190611a02565b61019b610196366004611458565b610cc1565b6040516100d99190611a51565b6101bb6101b6366004611458565b610e90565b6040516100d99190611abb565b6100cc6101d6366004611458565b6113d2565b6100cc6101e9366004611458565b6113ed565b6100cc6101fc366004611458565b611408565b606061020c8261081f565b60405160200161021c91906119b3565b6040516020818303038152906040529050919050565b606061023d82610e90565b60405160200161021c9190611abb565b6102a960405180610100016040528060608152602001606081526020016000815260200160006001600160a01b03168152602001600081526020016000815260200160006001600160a01b031681526020016000151581525090565b6000826001600160a01b03166306fdde036040518163ffffffff1660e01b8152600401600060405180830381865afa1580156102e9573d6000803e3d6000fd5b505050506040513d6000823e601f3d908101601f191682016040526103119190810190611bb1565b90506000836001600160a01b03166395d89b416040518163ffffffff1660e01b8152600401600060405180830381865afa158015610353573d6000803e3d6000fd5b505050506040513d6000823e601f3d908101601f1916820160405261037b9190810190611bb1565b90506000846001600160a01b03166318160ddd6040518163ffffffff1660e01b8152600401602060405180830381865afa1580156103bd573d6000803e3d6000fd5b505050506040513d601f19601f820116820180604052508101906103e19190611bfc565b90506000856001600160a01b0316635a53e3486040518163ffffffff1660e01b8152600401602060405180830381865afa158015610423573d6000803e3d6000fd5b505050506040513d601f19601f820116820180604052508101906104479190611c28565b90506000866001600160a01b031663893d20e86040518163ffffffff1660e01b8152600401602060405180830381865afa158015610489573d6000803e3d6000fd5b505050506040513d601f19601f820116820180604052508101906104ad9190611c28565b90506000826001600160a01b031663e269c3d66040518163ffffffff1660e01b8152600401602060405180830381865afa1580156104ef573d6000803e3d6000fd5b505050506040513d601f19601f820116820180604052508101906105139190611c28565b604051633ba6b85160e01b81529091506001600160a01b037f00000000000000000000000000000000000000000000000000000000000000001690633ba6b85190610562908b90600401611c49565b60408051808303816000875af192505050801561059c575060408051601f3d908101601f1916820190925261059991810190611c57565b60015b6105ef576040805161010081018252968752602087019590955293850192909252506001600160a01b03918216606084015260006080840181905260a08401521660c0820152600160e082015292915050565b60405163037276c160e01b81526000906001600160a01b037f0000000000000000000000000000000000000000000000000000000000000000169063037276c19061063e908e90600401611c49565b60408051808303816000875af115801561065c573d6000803e3d6000fd5b505050506040513d601f19601f820116820180604052508101906106809190611c57565b60408051610100810182529b8c5260208c019a909a52988a0197909752506001600160a01b03928316606089015260808801525060a086019490945290921660c08401525050600060e082015292915050565b61074b60405180610180016040528060608152602001606081526020016000815260200160006001600160a01b03168152602001600081526020016000815260200160006001600160a01b03168152602001600015158152602001606081526020016060815260200160608152602001606081525090565b60006107568361024d565b905060405180610180016040528082600001518152602001826020015181526020018260400151815260200182606001516001600160a01b03168152602001826080015181526020018260a0015181526020018260c001516001600160a01b031681526020018260e00151151581526020016107d185610cc1565b81526020016107df85610e90565b81526020016107ed8561081f565b81526020016107fb85610a6d565b90529392505050565b606061080f8261024d565b60405160200161021c91906115af565b60606000826001600160a01b0316635a53e3486040518163ffffffff1660e01b8152600401602060405180830381865afa158015610861573d6000803e3d6000fd5b505050506040513d601f19601f820116820180604052508101906108859190611c28565b905060007f00000000000000000000000000000000000000000000000000000000000000006001600160a01b0316638af6d89e836040518263ffffffff1660e01b81526004016108d59190611c49565b600060405180830381865afa1580156108f2573d6000803e3d6000fd5b505050506040513d6000823e601f3d908101601f1916820160405261091a9190810190611d36565b9050600081516001600160401b0381111561093757610937611acc565b60405190808252806020026020018201604052801561097d57816020015b6040805180820190915260608152600060208201528152602001906001900390816109555790505b50905060005b8251811015610a645760008382815181106109a0576109a0611d70565b602002602001015190506000816001600160a01b0316637998a1c46040518163ffffffff1660e01b8152600401600060405180830381865afa1580156109ea573d6000803e3d6000fd5b505050506040513d6000823e601f3d908101601f19168201604052610a129190810190611bb1565b90506040518060400160405280828152602001836001600160a01b0316815250848481518110610a4457610a44611d70565b602002602001018190525050508080610a5c90611d9c565b915050610983565b50949350505050565b60606000826001600160a01b0316635a53e3486040518163ffffffff1660e01b8152600401602060405180830381865afa158015610aaf573d6000803e3d6000fd5b505050506040513d601f19601f82011682018060405250810190610ad39190611c28565b905060007f00000000000000000000000000000000000000000000000000000000000000006001600160a01b031663a9f3b42f836040518263ffffffff1660e01b8152600401610b239190611c49565b600060405180830381865afa158015610b40573d6000803e3d6000fd5b505050506040513d6000823e601f3d908101601f19168201604052610b689190810190611d36565b9050600081516001600160401b03811115610b8557610b85611acc565b604051908082528060200260200182016040528015610bca57816020015b6040805180820190915260008082526020820152815260200190600190039081610ba35790505b50905060005b8251811015610a64576000838281518110610bed57610bed611d70565b602002602001015190506000816001600160a01b03166362780b3c876040518263ffffffff1660e01b8152600401610c259190611c49565b602060405180830381865afa158015610c42573d6000803e3d6000fd5b505050506040513d601f19601f82011682018060405250810190610c669190611c28565b90506040518060400160405280826001600160a01b03168152602001836001600160a01b0316815250848481518110610ca157610ca1611d70565b602002602001018190525050508080610cb990611d9c565b915050610bd0565b60606000826001600160a01b031663c4b973706040518163ffffffff1660e01b8152600401600060405180830381865afa158015610d03573d6000803e3d6000fd5b505050506040513d6000823e601f3d908101601f19168201604052610d2b9190810190611d36565b9050600081516001600160401b03811115610d4857610d48611acc565b604051908082528060200260200182016040528015610d8d57816020015b6040805180820190915260008082526020820152815260200190600190039081610d665790505b50905060005b8251811015610e88576040518060400160405280848381518110610db957610db9611d70565b60200260200101516001600160a01b03168152602001848381518110610de157610de1611d70565b60200260200101516001600160a01b03166370a08231886040518263ffffffff1660e01b8152600401610e149190611c49565b602060405180830381865afa158015610e31573d6000803e3d6000fd5b505050506040513d601f19601f82011682018060405250810190610e559190611bfc565b815250828281518110610e6a57610e6a611d70565b60200260200101819052508080610e8090611d9c565b915050610d93565b509392505050565b60606000826001600160a01b031663b8b7f1476040518163ffffffff1660e01b8152600401600060405180830381865afa158015610ed2573d6000803e3d6000fd5b505050506040513d6000823e601f3d908101601f19168201604052610efa9190810190611d36565b9050600081516001600160401b03811115610f1757610f17611acc565b604051908082528060200260200182016040528015610f8357816020015b610f706040518060a001604052806060815260200160006001600160a01b031681526020016000815260200160608152602001606081525090565b815260200190600190039081610f355790505b50905060005b8251811015610e88576000838281518110610fa657610fa6611d70565b602002602001015190506000816001600160a01b03166312bc0a446040518163ffffffff1660e01b8152600401602060405180830381865afa158015610ff0573d6000803e3d6000fd5b505050506040513d601f19601f820116820180604052508101906110149190611bfc565b905060007f00000000000000000000000000000000000000000000000000000000000000006001600160a01b0316639b6832a5836040518263ffffffff1660e01b81526004016110649190611db6565b600060405180830381865afa158015611081573d6000803e3d6000fd5b505050506040513d6000823e601f3d908101601f191682016040526110a99190810190611bb1565b9050600080846001600160a01b031663ecd658b46040518163ffffffff1660e01b81526004016000604051808303816000875af11580156110ee573d6000803e3d6000fd5b505050506040513d6000823e601f3d908101601f191682016040526111169190810190611e39565b91509150600080866001600160a01b03166380daddb86040518163ffffffff1660e01b81526004016000604051808303816000875af115801561115d573d6000803e3d6000fd5b505050506040513d6000823e601f3d908101601f191682016040526111859190810190611e39565b91509150600084516001600160401b038111156111a4576111a4611acc565b6040519080825280602002602001820160405280156111e957816020015b60408051808201909152600080825260208201528152602001906001900390816111c25790505b50905060005b855181101561127857604051806040016040528087838151811061121557611215611d70565b60200260200101516001600160a01b0316815260200186838151811061123d5761123d611d70565b602002602001015181525082828151811061125a5761125a611d70565b6020026020010181905250808061127090611d9c565b9150506111ef565b50600083516001600160401b0381111561129457611294611acc565b6040519080825280602002602001820160405280156112d957816020015b60408051808201909152600080825260208201528152602001906001900390816112b25790505b50905060005b845181101561136857604051806040016040528086838151811061130557611305611d70565b60200260200101516001600160a01b0316815260200185838151811061132d5761132d611d70565b602002602001015181525082828151811061134a5761134a611d70565b6020026020010181905250808061136090611d9c565b9150506112df565b506040518060a001604052808881526020018a6001600160a01b03168152602001898152602001838152602001828152508b8b815181106113ab576113ab611d70565b602002602001018190525050505050505050505080806113ca90611d9c565b915050610f89565b60606113dd82610cc1565b60405160200161021c9190611a51565b60606113f8826106d3565b60405160200161021c9190611949565b606061141382610a6d565b60405160200161021c9190611a02565b60006001600160a01b0382165b92915050565b61143f81611423565b811461144a57600080fd5b50565b803561143081611436565b60006020828403121561146d5761146d600080fd5b6000611479848461144d565b949350505050565b60005b8381101561149c578181015183820152602001611484565b50506000910152565b60006114af825190565b8084526020840193506114c6818560208601611481565b601f01601f19169290920192915050565b602080825281016114e881846114a5565b9392505050565b805b82525050565b6114f181611423565b8015156114f1565b80516101008084526000919084019061152182826114a5565b9150506020830151848203602086015261153b82826114a5565b915050604083015161155060408601826114ef565b50606083015161156360608601826114f7565b50608083015161157660808601826114ef565b5060a083015161158960a08601826114ef565b5060c083015161159c60c08601826114f7565b5060e0830151610e8860e0860182611500565b602080825281016114e88184611508565b805160408301906115d184826114f7565b5060208201516115e460208501826114ef565b50505050565b60006115f683836115c0565b505060400190565b6000611608825190565b80845260209384019383018060005b8381101561163c57815161162b88826115ea565b975060208301925050600101611617565b509495945050505050565b805160a08084526000919084019061165f82826114a5565b915050602083015161167460208601826114f7565b50604083015161168760408601826114ef565b506060830151848203606086015261169f82826115fe565b915050608083015184820360808601526116b982826115fe565b95945050505050565b60006114e88383611647565b60006116d8825190565b808452602084019350836020820285016116f28560200190565b8060005b85811015611727578484038952815161170f85826116c2565b94506020830160209a909a01999250506001016116f6565b5091979650505050505050565b805160408084526000919084019061174c82826114a5565b9150506020830151610e8860208601826114f7565b60006114e88383611734565b6000611777825190565b808452602084019350836020820285016117918560200190565b8060005b8581101561172757848403895281516117ae8582611761565b94506020830160209a909a0199925050600101611795565b805160408301906117d784826114f7565b5060208201516115e460208501826114f7565b60006115f683836117c6565b6000611800825190565b80845260209384019383018060005b8381101561163c57815161182388826117ea565b97506020830192505060010161180f565b80516101808084526000919084019061184d82826114a5565b9150506020830151848203602086015261186782826114a5565b915050604083015161187c60408601826114ef565b50606083015161188f60608601826114f7565b5060808301516118a260808601826114ef565b5060a08301516118b560a08601826114ef565b5060c08301516118c860c08601826114f7565b5060e08301516118db60e0860182611500565b506101008301518482036101008601526118f582826115fe565b91505061012083015184820361012086015261191182826116ce565b91505061014083015184820361014086015261192d828261176d565b9150506101608301518482036101608601526116b982826117f6565b602080825281016114e88184611834565b6000611964825190565b8084526020840193508360208202850161197e8560200190565b8060005b85811015611727578484038952815161199b8582611761565b94506020830160209a909a0199925050600101611982565b602080825281016114e8818461195a565b60006119ce825190565b80845260209384019383018060005b8381101561163c5781516119f188826117ea565b9750602083019250506001016119dd565b602080825281016114e881846119c4565b6000611a1d825190565b80845260209384019383018060005b8381101561163c578151611a4088826115ea565b975060208301925050600101611a2c565b602080825281016114e88184611a13565b6000611a6c825190565b80845260208401935083602082028501611a868560200190565b8060005b858110156117275784840389528151611aa385826116c2565b94506020830160209a909a0199925050600101611a8a565b602080825281016114e88184611a62565b634e487b7160e01b600052604160045260246000fd5b601f19601f83011681018181106001600160401b0382111715611b0757611b07611acc565b6040525050565b6000611b1960405190565b9050611b258282611ae2565b919050565b60006001600160401b03821115611b4357611b43611acc565b601f19601f83011660200192915050565b6000611b67611b6284611b2a565b611b0e565b905082815260208101848484011115611b8257611b82600080fd5b610e88848285611481565b600082601f830112611ba157611ba1600080fd5b8151611479848260208601611b54565b600060208284031215611bc657611bc6600080fd5b81516001600160401b03811115611bdf57611bdf600080fd5b61147984828501611b8d565b8061143f565b805161143081611beb565b600060208284031215611c1157611c11600080fd5b60006114798484611bf1565b805161143081611436565b600060208284031215611c3d57611c3d600080fd5b60006114798484611c1d565b6020810161143082846114f7565b60008060408385031215611c6d57611c6d600080fd5b6000611c798585611c1d565b9250506020611c8a85828601611bf1565b9150509250929050565b60006001600160401b03821115611cad57611cad611acc565b5060209081020190565b6000611cc5611b6284611c94565b83815290506020808201908402830185811115611ce457611ce4600080fd5b835b81811015611d085780611cf98882611c1d565b84525060209283019201611ce6565b5050509392505050565b600082601f830112611d2657611d26600080fd5b8151611479848260208601611cb7565b600060208284031215611d4b57611d4b600080fd5b81516001600160401b03811115611d6457611d64600080fd5b61147984828501611d12565b634e487b7160e01b600052603260045260246000fd5b634e487b7160e01b600052601160045260246000fd5b60006000198203611daf57611daf611d86565b5060010190565b6020810161143082846114ef565b6000611dd2611b6284611c94565b83815290506020808201908402830185811115611df157611df1600080fd5b835b81811015611d085780611e068882611bf1565b84525060209283019201611df3565b600082601f830112611e2957611e29600080fd5b8151611479848260208601611dc4565b60008060408385031215611e4f57611e4f600080fd5b82516001600160401b03811115611e6857611e68600080fd5b611e7485828601611d12565b92505060208301516001600160401b03811115611e9357611e93600080fd5b611c8a85828601611e1556","linkReferences":{}},"methodIdentifiers":{"getVaultActiveExternalPositionsDetails(address)":"15878250","getVaultActiveExternalPositionsDetailsDecoded(address)":"aae1bd7a","getVaultDetails(address)":"67a44ca3","getVaultDetailsDecoded(address)":"4b19e522","getVaultDetailsExtended(address)":"ee5ad2e4","getVaultDetailsExtendedDecoded(address)":"65c1afb0","getVaultFeesDetails(address)":"fe3ba3ae","getVaultFeesDetailsDecoded(address)":"83677c1e","getVaultPoliciesDetails(address)":"0241b4cf","getVaultPoliciesDetailsDecoded(address)":"7932436a","getVaultTrackedAssetsAmounts(address)":"c57e1be7","getVaultTrackedAssetsAmountsDecoded(address)":"a562c030"},"id":202}