{"abi":[{"type":"constructor","inputs":[{"name":"_integrationManager","type":"address","internalType":"address"},{"name":"_exchange","type":"address","internalType":"address"},{"name":"_addressListRegistry","type":"address","internalType":"address"},{"name":"_allowedMakersListId","type":"uint256","internalType":"uint256"}],"stateMutability":"nonpayable"},{"type":"function","name":"CLAIM_REWARDS_SELECTOR","inputs":[],"outputs":[{"name":"","type":"bytes4","internalType":"bytes4"}],"stateMutability":"view"},{"type":"function","name":"LEND_AND_STAKE_SELECTOR","inputs":[],"outputs":[{"name":"","type":"bytes4","internalType":"bytes4"}],"stateMutability":"view"},{"type":"function","name":"LEND_SELECTOR","inputs":[],"outputs":[{"name":"","type":"bytes4","internalType":"bytes4"}],"stateMutability":"view"},{"type":"function","name":"REDEEM_SELECTOR","inputs":[],"outputs":[{"name":"","type":"bytes4","internalType":"bytes4"}],"stateMutability":"view"},{"type":"function","name":"STAKE_SELECTOR","inputs":[],"outputs":[{"name":"","type":"bytes4","internalType":"bytes4"}],"stateMutability":"view"},{"type":"function","name":"TAKE_MULTIPLE_ORDERS_SELECTOR","inputs":[],"outputs":[{"name":"","type":"bytes4","internalType":"bytes4"}],"stateMutability":"view"},{"type":"function","name":"TAKE_ORDER_SELECTOR","inputs":[],"outputs":[{"name":"","type":"bytes4","internalType":"bytes4"}],"stateMutability":"view"},{"type":"function","name":"UNSTAKE_AND_REDEEM_SELECTOR","inputs":[],"outputs":[{"name":"","type":"bytes4","internalType":"bytes4"}],"stateMutability":"view"},{"type":"function","name":"UNSTAKE_SELECTOR","inputs":[],"outputs":[{"name":"","type":"bytes4","internalType":"bytes4"}],"stateMutability":"view"},{"type":"function","name":"getIntegrationManager","inputs":[],"outputs":[{"name":"integrationManager_","type":"address","internalType":"address"}],"stateMutability":"view"},{"type":"function","name":"isAllowedMaker","inputs":[{"name":"_who","type":"address","internalType":"address"}],"outputs":[{"name":"isAllowedMaker_","type":"bool","internalType":"bool"}],"stateMutability":"view"},{"type":"function","name":"parseAssetsForAction","inputs":[{"name":"","type":"address","internalType":"address"},{"name":"_selector","type":"bytes4","internalType":"bytes4"},{"name":"_actionData","type":"bytes","internalType":"bytes"}],"outputs":[{"name":"spendAssetsHandleType_","type":"uint8","internalType":"enum IIntegrationManager.SpendAssetsHandleType"},{"name":"spendAssets_","type":"address[]","internalType":"address[]"},{"name":"spendAssetAmounts_","type":"uint256[]","internalType":"uint256[]"},{"name":"incomingAssets_","type":"address[]","internalType":"address[]"},{"name":"minIncomingAssetAmounts_","type":"uint256[]","internalType":"uint256[]"}],"stateMutability":"view"},{"type":"function","name":"takeOrder","inputs":[{"name":"_vaultProxy","type":"address","internalType":"address"},{"name":"_actionData","type":"bytes","internalType":"bytes"},{"name":"_assetData","type":"bytes","internalType":"bytes"}],"outputs":[],"stateMutability":"nonpayable"}],"bytecode":{"object":"0x6101006040523480156200001257600080fd5b506040516200227a3803806200227a83398101604081905262000035916200007f565b6001600160601b0319606094851b811660805292841b831660a052921b1660c05260e05262000123565b80516200006c81620000fe565b92915050565b80516200006c8162000118565b600080600080608085870312156200009657600080fd5b6000620000a487876200005f565b9450506020620000b7878288016200005f565b9350506040620000ca878288016200005f565b9250506060620000dd8782880162000072565b91505092959194509250565b60006001600160a01b0382166200006c565b90565b6200010981620000e9565b81146200011557600080fd5b50565b6200010981620000fb565b60805160601c60a05160601c60c05160601c60e051612104620001766000398061077852806107e25250806107b55250806108c1528061092552806109e45280610a2952508061072e52506121046000f3fe608060405234801561001057600080fd5b50600436106100cf5760003560e01c8063863e5ad01161008c578063c54efee511610066578063c54efee51461013f578063e7c4569014610163578063f7d882b514610178578063ff7ede3714610180576100cf565b8063863e5ad014610127578063b23228cf1461012f578063c32990a214610137576100cf565b806303e38a2b146100d4578063080456c1146100e9578063131461c014610107578063257cb1a31461010f5780633ffc15911461011757806340da225d1461011f575b600080fd5b6100e76100e23660046115ab565b6101a0565b005b6100f16102cb565b6040516100fe9190611de8565b60405180910390f35b6100f16102ef565b6100f1610313565b6100f1610337565b6100f161035b565b6100f161037f565b6100f16103a3565b6100f16103c7565b61015261014d366004611544565b6103eb565b6040516100fe959493929190611df6565b61016b61072c565b6040516100fe9190611d96565b6100f1610750565b61019361018e366004611526565b610774565b6040516100fe9190611dda565b8482828080601f0160208091040260200160405190810160405280939291908181526020018383808284376000920182905250604080516020601f8c018190048102820181019092528a81526060955091935083925061021b91908b908b908190840183828082843760009201919091525061086492505050565b91945092509050600081600181111561023057fe5b14156102655761023e610fdc565b610246611040565b61024f8561088a565b9150915061025e8282866108b7565b50506102a4565b600181600181111561027357fe5b14156102a457610281611069565b610289611040565b610292856109b6565b915091506102a18282866109da565b50505b50505060606102b282610a62565b925050506102c08382610a7b565b505050505050505050565b7f8334eb99be0145865eba9889fca2ee920288090caefff4cc776038e20ad9259a81565b7f29fa046e79524c3c5ac4c01df692c35e217802b2b13b21121b76cf0ef02b138c81565b7f099f75155f0e997bf83a7993a71d5e7e7540bd386fe1e84643a09ce6b412521981565b7ffa7dd04da627f433da73c4355ead9c75682a67a8fc84d3f6170ef0922f402d2481565b7fb9dfbaccbe5cd2a84fdcf1d15f23ef25d23086f5afbaa99516065ed4a5bbc7a381565b7f03e38a2bd7063d45c897edeafc330e71657502dd86434d3c37a489caf116af6981565b7f68e30677f607df46e87da13e15b637784cfa62374b653f35ab43d10361a2f83081565b7f0e7f692dad5b88fdee426250d6eae91207e56a2e8112b7364579bed1790e5bf481565b600060608080806001600160e01b031988166303e38a2b60e01b1461042b5760405162461bcd60e51b815260040161042290611ede565b60405180910390fd5b606060008061046f8a8a8080601f01602080910402602001604051908101604052809392919081815260200183838082843760009201919091525061086492505050565b6040805160018082528183019092529396506001600160801b0392909216945092506020808301908036833750506040805160018082528183019092529297509050602080830190803683375050604080516001808252818301909252929650905060208083019080368337505060408051600180825281830190925292995090506020808301908036833701905050955060008080808085600181111561051357fe5b14156105ce57610521610fdc565b61052a8861088a565b5090508060a00151945080604001516001600160801b0316935080600001518a60008151811061055657fe5b60200260200101906001600160a01b031690816001600160a01b03168152505080602001518c60008151811061058857fe5b60200260200101906001600160a01b031690816001600160a01b03168152505080606001516001600160801b0316925080608001516001600160801b0316915050610679565b60018560018111156105dc57fe5b1415610679576105ea611069565b6105f3886109b6565b5090508060800151945080604001516001600160801b0316935080600001518a60008151811061061f57fe5b60200260200101906001600160a01b031690816001600160a01b03168152505080602001518c60008151811061065157fe5b6001600160a01b0390921660209283029190910190910152606001516001600160801b031691505b61068284610774565b61069e5760405162461bcd60e51b815260040161042290611e9e565b80156106d7576106b96106b2838389610bd7565b8790610bf7565b8a6000815181106106c657fe5b6020026020010181815250506106f2565b858a6000815181106106e557fe5b6020026020010181815250505b6106fd828488610bd7565b8860008151811061070a57fe5b60200260200101818152505060029b5050505050505050945094509450945094565b7f000000000000000000000000000000000000000000000000000000000000000090565b7fc29fa9dde84204c2908778afd0613d802d31cf046179b88f6d2b4a4e507ea2d581565b60007f0000000000000000000000000000000000000000000000000000000000000000158061085c57506040516307158c8160e21b81526001600160a01b037f00000000000000000000000000000000000000000000000000000000000000001690631c5632049061080c907f0000000000000000000000000000000000000000000000000000000000000000908690600401611f44565b60206040518083038186803b15801561082457600080fd5b505afa158015610838573d6000803e3d6000fd5b505050506040513d601f19601f8201168201806040525081019061085c91906116c1565b90505b919050565b60606000808380602001905181019061087d91906116df565b9250925092509193909250565b610892610fdc565b61089a611040565b828060200190518101906108ae9190611738565b91509150915091565b61090e83602001517f000000000000000000000000000000000000000000000000000000000000000061090986608001516001600160801b0316856001600160801b0316610bf790919063ffffffff16565b610c1c565b60405163249014a760e21b81526001600160a01b037f00000000000000000000000000000000000000000000000000000000000000001690639240529c9061095e90869086908690600401611eee565b602060405180830381600087803b15801561097857600080fd5b505af115801561098c573d6000803e3d6000fd5b505050506040513d601f19601f820116820180604052508101906109b091906117a6565b50505050565b6109be611069565b6109c6611040565b828060200190518101906108ae9190611774565b610a1283602001517f0000000000000000000000000000000000000000000000000000000000000000836001600160801b0316610c1c565b60405163438cdfc560e01b81526001600160a01b037f0000000000000000000000000000000000000000000000000000000000000000169063438cdfc59061095e90869086908690600401611f19565b60608060608380602001905181019061087d9190611630565b606081516001600160401b0381118015610a9457600080fd5b50604051908082528060200260200182016040528015610abe578160200160208202803683370190505b50905060005b8251811015610bcf576000838281518110610adb57fe5b60200260200101519050806001600160a01b03166370a08231306040518263ffffffff1660e01b8152600401610b119190611d96565b60206040518083038186803b158015610b2957600080fd5b505afa158015610b3d573d6000803e3d6000fd5b505050506040513d601f19601f82011682018060405250810190610b6191906117c4565b838381518110610b6d57fe5b6020026020010181815250506000838381518110610b8757fe5b60200260200101511115610bc657610bc685848481518110610ba557fe5b6020026020010151836001600160a01b0316610cd89092919063ffffffff16565b50600101610ac4565b505b92915050565b6000610bed84610be78486610d33565b90610d6d565b90505b9392505050565b600082820183811015610bf05760405162461bcd60e51b815260040161042290611e6e565b604051636eb1769f60e11b81526000906001600160a01b0385169063dd62ed3e90610c4d9030908790600401611da4565b60206040518083038186803b158015610c6557600080fd5b505afa158015610c79573d6000803e3d6000fd5b505050506040513d601f19601f82011682018060405250810190610c9d91906117c4565b9050818110156109b0578015610cc257610cc26001600160a01b038516846000610d9f565b6109b06001600160a01b03851684600019610d9f565b610d2e8363a9059cbb60e01b8484604051602401610cf7929190611dbf565b60408051601f198184030181529190526020810180516001600160e01b03166001600160e01b031990931692909217909152610e62565b505050565b600082610d4257506000610bd1565b82820282848281610d4f57fe5b0414610bf05760405162461bcd60e51b815260040161042290611e8e565b6000808211610d8e5760405162461bcd60e51b815260040161042290611e7e565b818381610d9757fe5b049392505050565b801580610e275750604051636eb1769f60e11b81526001600160a01b0384169063dd62ed3e90610dd59030908690600401611da4565b60206040518083038186803b158015610ded57600080fd5b505afa158015610e01573d6000803e3d6000fd5b505050506040513d601f19601f82011682018060405250810190610e2591906117c4565b155b610e435760405162461bcd60e51b815260040161042290611ece565b610d2e8363095ea7b360e01b8484604051602401610cf7929190611dbf565b6060610eb7826040518060400160405280602081526020017f5361666545524332303a206c6f772d6c6576656c2063616c6c206661696c6564815250856001600160a01b0316610ef19092919063ffffffff16565b805190915015610d2e5780806020019051810190610ed591906116c1565b610d2e5760405162461bcd60e51b815260040161042290611ebe565b6060610bed848460008585610f0585610f9d565b610f215760405162461bcd60e51b815260040161042290611eae565b60006060866001600160a01b03168587604051610f3e9190611d8a565b60006040518083038185875af1925050503d8060008114610f7b576040519150601f19603f3d011682016040523d82523d6000602084013e610f80565b606091505b5091509150610f90828286610fa3565b925050505b949350505050565b3b151590565b60608315610fb2575081610bf0565b825115610fc25782518084602001fd5b8160405162461bcd60e51b81526004016104229190611e5d565b6040805161018081018252600080825260208201819052918101829052606081018290526080810182905260a0810182905260c0810182905260e0810182905261010081018290526101208101829052610140810182905261016081019190915290565b604080516080810190915280600081526000602082018190526040820181905260609091015290565b6040805161014081018252600080825260208201819052918101829052606081018290526080810182905260a0810182905260c0810182905260e08101829052610100810182905261012081019190915290565b8035610bd181612093565b8051610bd181612093565b600082601f8301126110e457600080fd5b81516110f76110f282611f78565b611f52565b9150818183526020840193506020810190508385602084028201111561111c57600080fd5b60005b83811015611148578161113288826110c8565b845250602092830192919091019060010161111f565b5050505092915050565b600082601f83011261116357600080fd5b81516111716110f282611f78565b9150818183526020840193506020810190508385602084028201111561119657600080fd5b60005b8381101561114857816111ac88826111cd565b8452506020928301929190910190600101611199565b8051610bd1816120a7565b8051610bd1816120b0565b8035610bd1816120b9565b60008083601f8401126111f557600080fd5b5081356001600160401b0381111561120c57600080fd5b60208301915083600182028301111561122457600080fd5b9250929050565b600082601f83011261123c57600080fd5b815161124a6110f282611f98565b9150808252602083016020830185838301111561126657600080fd5b611271838284612046565b50505092915050565b8051610bd1816120c2565b8051610bd1816120cf565b600061018082840312156112a357600080fd5b6112ae610180611f52565b905060006112bc84846110c8565b82525060206112cd848483016110c8565b60208301525060406112e184828501611505565b60408301525060606112f584828501611505565b606083015250608061130984828501611505565b60808301525060a061131d848285016110c8565b60a08301525060c0611331848285016110c8565b60c08301525060e0611345848285016110c8565b60e08301525061010061135a848285016110c8565b61010083015250610120611370848285016111cd565b6101208301525061014061138684828501611510565b6101408301525061016061139c848285016111cd565b6101608301525092915050565b600061014082840312156113bc57600080fd5b6113c7610140611f52565b905060006113d584846110c8565b82525060206113e6848483016110c8565b60208301525060406113fa84828501611505565b604083015250606061140e84828501611505565b6060830152506080611422848285016110c8565b60808301525060a0611436848285016110c8565b60a08301525060c061144a848285016110c8565b60c08301525060e061145e848285016111cd565b60e08301525061010061147384828501611510565b61010083015250610120611489848285016111cd565b6101208301525092915050565b6000608082840312156114a857600080fd5b6114b26080611f52565b905060006114c08484611285565b82525060206114d18484830161151b565b60208301525060406114e5848285016111cd565b60408301525060606114f9848285016111cd565b60608301525092915050565b8051610bd1816120dc565b8051610bd1816120e5565b8051610bd1816120ee565b60006020828403121561153857600080fd5b6000610f9584846110bd565b6000806000806060858703121561155a57600080fd5b600061156687876110bd565b9450506020611577878288016111d8565b93505060408501356001600160401b0381111561159357600080fd5b61159f878288016111e3565b95989497509550505050565b6000806000806000606086880312156115c357600080fd5b60006115cf88886110bd565b95505060208601356001600160401b038111156115eb57600080fd5b6115f7888289016111e3565b945094505060408601356001600160401b0381111561161557600080fd5b611621888289016111e3565b92509250509295509295909350565b60008060006060848603121561164557600080fd5b83516001600160401b0381111561165b57600080fd5b611667868287016110d3565b93505060208401516001600160401b0381111561168357600080fd5b61168f86828701611152565b92505060408401516001600160401b038111156116ab57600080fd5b6116b7868287016110d3565b9150509250925092565b6000602082840312156116d357600080fd5b6000610f9584846111c2565b6000806000606084860312156116f457600080fd5b83516001600160401b0381111561170a57600080fd5b6117168682870161122b565b935050602061172786828701611505565b92505060406116b78682870161127a565b600080610200838503121561174c57600080fd5b60006117588585611290565b92505061018061176a85828601611496565b9150509250929050565b6000806101c0838503121561178857600080fd5b600061179485856113a9565b92505061014061176a85828601611496565b6000602082840312156117b857600080fd5b6000610f958484611505565b6000602082840312156117d657600080fd5b6000610f9584846111cd565b60006117ee8383611802565b505060200190565b60006117ee83836118c1565b61180b81611fd2565b82525050565b600061181c82611fc5565b6118268185611fc9565b935061183183611fbf565b8060005b8381101561185f57815161184988826117e2565b975061185483611fbf565b925050600101611835565b509495945050505050565b600061187582611fc5565b61187f8185611fc9565b935061188a83611fbf565b8060005b8381101561185f5781516118a288826117f6565b97506118ad83611fbf565b92505060010161188e565b61180b81611fdd565b61180b81611fe2565b61180b81611fe5565b60006118de82611fc5565b6118e8818561085f565b93506118f8818560208601612046565b9290920192915050565b61180b81612030565b61180b8161203b565b600061191f82611fc5565b6119298185611fc9565b9350611939818560208601612046565b61194281612072565b9093019392505050565b6000611959601b83611fc9565b7f536166654d6174683a206164646974696f6e206f766572666c6f770000000000815260200192915050565b6000611992601a83611fc9565b7f536166654d6174683a206469766973696f6e206279207a65726f000000000000815260200192915050565b60006119cb602183611fc9565b7f536166654d6174683a206d756c7469706c69636174696f6e206f766572666c6f8152607760f81b602082015260400192915050565b6000611a0e603083611fc9565b7f7061727365417373657473466f72416374696f6e3a204f72646572206d616b6581526f1c881a5cc81b9bdd08185b1b1bddd95960821b602082015260400192915050565b6000611a60601d83611fc9565b7f416464726573733a2063616c6c20746f206e6f6e2d636f6e7472616374000000815260200192915050565b6000611a99602a83611fc9565b7f5361666545524332303a204552433230206f7065726174696f6e20646964206e8152691bdd081cdd58d8d9595960b21b602082015260400192915050565b6000611ae5603683611fc9565b7f5361666545524332303a20617070726f76652066726f6d206e6f6e2d7a65726f81527520746f206e6f6e2d7a65726f20616c6c6f77616e636560501b602082015260400192915050565b6000611b3d602783611fc9565b7f7061727365417373657473466f72416374696f6e3a205f73656c6563746f72208152661a5b9d985b1a5960ca1b602082015260400192915050565b8051610180830190611b8b8482611802565b506020820151611b9e6020850182611802565b506040820151611bb16040850182611d6f565b506060820151611bc46060850182611d6f565b506080820151611bd76080850182611d6f565b5060a0820151611bea60a0850182611802565b5060c0820151611bfd60c0850182611802565b5060e0820151611c1060e0850182611802565b50610100820151611c25610100850182611802565b50610120820151611c3a6101208501826118c1565b50610140820151611c4f610140850182611d78565b506101608201516109b06101608501826118c1565b8051610140830190611c768482611802565b506020820151611c896020850182611802565b506040820151611c9c6040850182611d6f565b506060820151611caf6060850182611d6f565b506080820151611cc26080850182611802565b5060a0820151611cd560a0850182611802565b5060c0820151611ce860c0850182611802565b5060e0820151611cfb60e08501826118c1565b50610100820151611d10610100850182611d78565b506101208201516109b06101208501826118c1565b80516080830190611d368482611902565b506020820151611d496020850182611d81565b506040820151611d5c60408501826118c1565b5060608201516109b060608501826118c1565b61180b81612006565b61180b8161201e565b61180b8161202a565b6000610bf082846118d3565b60208101610bd18284611802565b60408101611db28285611802565b610bf06020830184611802565b60408101611dcd8285611802565b610bf060208301846118c1565b60208101610bd182846118b8565b60208101610bd182846118ca565b60a08101611e04828861190b565b8181036020830152611e168187611811565b90508181036040830152611e2a818661186a565b90508181036060830152611e3e8185611811565b90508181036080830152611e52818461186a565b979650505050505050565b60208082528101610bf08184611914565b6020808252810161085c8161194c565b6020808252810161085c81611985565b6020808252810161085c816119be565b6020808252810161085c81611a01565b6020808252810161085c81611a53565b6020808252810161085c81611a8c565b6020808252810161085c81611ad8565b6020808252810161085c81611b30565b6102208101611efd8286611b79565b611f0b610180830185611d25565b610f95610200830184611d6f565b6101e08101611f288286611c64565b611f36610140830185611d25565b610f956101c0830184611d6f565b60408101611db282856118c1565b6040518181016001600160401b0381118282101715611f7057600080fd5b604052919050565b60006001600160401b03821115611f8e57600080fd5b5060209081020190565b60006001600160401b03821115611fae57600080fd5b506020601f91909101601f19160190565b60200190565b5190565b90815260200190565b600061085c82612012565b151590565b90565b6001600160e01b03191690565b8061085f8161207c565b8061085f81612089565b6001600160801b031690565b6001600160a01b031690565b6001600160401b031690565b60ff1690565b600061085c82611ff2565b600061085c82611ffc565b60005b83811015612061578181015183820152602001612049565b838111156109b05750506000910152565b601f01601f191690565b6005811061208657fe5b50565b6003811061208657fe5b61209c81611fd2565b811461208657600080fd5b61209c81611fdd565b61209c81611fe2565b61209c81611fe5565b6002811061208657600080fd5b6005811061208657600080fd5b61209c81612006565b61209c8161201e565b61209c8161202a56fea164736f6c634300060c000a","linkReferences":{}},"methodIdentifiers":{"CLAIM_REWARDS_SELECTOR()":"40da225d","LEND_AND_STAKE_SELECTOR()":"131461c0","LEND_SELECTOR()":"257cb1a3","REDEEM_SELECTOR()":"f7d882b5","STAKE_SELECTOR()":"3ffc1591","TAKE_MULTIPLE_ORDERS_SELECTOR()":"c32990a2","TAKE_ORDER_SELECTOR()":"863e5ad0","UNSTAKE_AND_REDEEM_SELECTOR()":"080456c1","UNSTAKE_SELECTOR()":"b23228cf","getIntegrationManager()":"e7c45690","isAllowedMaker(address)":"ff7ede37","parseAssetsForAction(address,bytes4,bytes)":"c54efee5","takeOrder(address,bytes,bytes)":"03e38a2b"},"id":223}