{"abi":[{"type":"constructor","inputs":[{"name":"_integrationManager","type":"address","internalType":"address"},{"name":"_exchange","type":"address","internalType":"address"},{"name":"_addressListRegistry","type":"address","internalType":"address"},{"name":"_allowedMakersListId","type":"uint256","internalType":"uint256"}],"stateMutability":"nonpayable"},{"type":"function","name":"CLAIM_REWARDS_SELECTOR","inputs":[],"outputs":[{"name":"","type":"bytes4","internalType":"bytes4"}],"stateMutability":"view"},{"type":"function","name":"LEND_AND_STAKE_SELECTOR","inputs":[],"outputs":[{"name":"","type":"bytes4","internalType":"bytes4"}],"stateMutability":"view"},{"type":"function","name":"LEND_SELECTOR","inputs":[],"outputs":[{"name":"","type":"bytes4","internalType":"bytes4"}],"stateMutability":"view"},{"type":"function","name":"REDEEM_SELECTOR","inputs":[],"outputs":[{"name":"","type":"bytes4","internalType":"bytes4"}],"stateMutability":"view"},{"type":"function","name":"STAKE_SELECTOR","inputs":[],"outputs":[{"name":"","type":"bytes4","internalType":"bytes4"}],"stateMutability":"view"},{"type":"function","name":"TAKE_MULTIPLE_ORDERS_SELECTOR","inputs":[],"outputs":[{"name":"","type":"bytes4","internalType":"bytes4"}],"stateMutability":"view"},{"type":"function","name":"TAKE_ORDER_SELECTOR","inputs":[],"outputs":[{"name":"","type":"bytes4","internalType":"bytes4"}],"stateMutability":"view"},{"type":"function","name":"UNSTAKE_AND_REDEEM_SELECTOR","inputs":[],"outputs":[{"name":"","type":"bytes4","internalType":"bytes4"}],"stateMutability":"view"},{"type":"function","name":"UNSTAKE_SELECTOR","inputs":[],"outputs":[{"name":"","type":"bytes4","internalType":"bytes4"}],"stateMutability":"view"},{"type":"function","name":"getIntegrationManager","inputs":[],"outputs":[{"name":"integrationManager_","type":"address","internalType":"address"}],"stateMutability":"view"},{"type":"function","name":"isAllowedMaker","inputs":[{"name":"_who","type":"address","internalType":"address"}],"outputs":[{"name":"isAllowedMaker_","type":"bool","internalType":"bool"}],"stateMutability":"view"},{"type":"function","name":"parseAssetsForAction","inputs":[{"name":"","type":"address","internalType":"address"},{"name":"_selector","type":"bytes4","internalType":"bytes4"},{"name":"_actionData","type":"bytes","internalType":"bytes"}],"outputs":[{"name":"spendAssetsHandleType_","type":"uint8","internalType":"enum IIntegrationManager.SpendAssetsHandleType"},{"name":"spendAssets_","type":"address[]","internalType":"address[]"},{"name":"spendAssetAmounts_","type":"uint256[]","internalType":"uint256[]"},{"name":"incomingAssets_","type":"address[]","internalType":"address[]"},{"name":"minIncomingAssetAmounts_","type":"uint256[]","internalType":"uint256[]"}],"stateMutability":"view"},{"type":"function","name":"takeOrder","inputs":[{"name":"_vaultProxy","type":"address","internalType":"address"},{"name":"_actionData","type":"bytes","internalType":"bytes"},{"name":"_assetData","type":"bytes","internalType":"bytes"}],"outputs":[],"stateMutability":"nonpayable"}],"bytecode":{"object":"0x6101006040523480156200001257600080fd5b506040516200314338038062003143833981810160405281019062000038919062000121565b82848073ffffffffffffffffffffffffffffffffffffffff1660808173ffffffffffffffffffffffffffffffffffffffff1660601b81525050508073ffffffffffffffffffffffffffffffffffffffff1660a08173ffffffffffffffffffffffffffffffffffffffff1660601b81525050508173ffffffffffffffffffffffffffffffffffffffff1660c08173ffffffffffffffffffffffffffffffffffffffff1660601b815250508060e0818152505050505050620001ff565b6000815190506200010481620001cb565b92915050565b6000815190506200011b81620001e5565b92915050565b600080600080608085870312156200013857600080fd5b60006200014887828801620000f3565b94505060206200015b87828801620000f3565b93505060406200016e87828801620000f3565b925050606062000181878288016200010a565b91505092959194509250565b60006200019a82620001a1565b9050919050565b600073ffffffffffffffffffffffffffffffffffffffff82169050919050565b6000819050919050565b620001d6816200018d565b8114620001e257600080fd5b50565b620001f081620001c1565b8114620001fc57600080fd5b50565b60805160601c60a05160601c60c05160601c60e051612ef16200025260003980610a985280610afc525080610ac0525080610bee5280610c4f5280610d395280610d72525080610a4b5250612ef16000f3fe608060405234801561001057600080fd5b50600436106100cf5760003560e01c8063863e5ad01161008c578063c54efee511610066578063c54efee5146101e0578063e7c4569014610214578063f7d882b514610232578063ff7ede3714610250576100cf565b8063863e5ad014610186578063b23228cf146101a4578063c32990a2146101c2576100cf565b806303e38a2b146100d4578063080456c1146100f0578063131461c01461010e578063257cb1a31461012c5780633ffc15911461014a57806340da225d14610168575b600080fd5b6100ee60048036038101906100e99190611e82565b610280565b005b6100f86103dd565b60405161010591906128f3565b60405180910390f35b610116610401565b60405161012391906128f3565b60405180910390f35b610134610425565b60405161014191906128f3565b60405180910390f35b610152610449565b60405161015f91906128f3565b60405180910390f35b61017061046d565b60405161017d91906128f3565b60405180910390f35b61018e610491565b60405161019b91906128f3565b60405180910390f35b6101ac6104b5565b6040516101b991906128f3565b60405180910390f35b6101ca6104d9565b6040516101d791906128f3565b60405180910390f35b6101fa60048036038101906101f59190611e16565b6104fd565b60405161020b95949392919061290e565b60405180910390f35b61021c610a47565b604051610229919061286b565b60405180910390f35b61023a610a6f565b60405161024791906128f3565b60405180910390f35b61026a60048036038101906102659190611ded565b610a93565b60405161027791906128d8565b60405180910390f35b8482828080601f016020809104026020016040519081016040528093929190818152602001838380828437600081840152601f19601f82011690508083019250505050505050606060008061031889898080601f016020809104026020016040519081016040528093929190818152602001838380828437600081840152601f19601f82011690508083019250505050505050610b91565b9250925092506000600181111561032b57fe5b81600181111561033757fe5b141561036c57610345611688565b61034d6117b0565b61035685610bb7565b91509150610365828286610be4565b50506103b6565b60018081111561037857fe5b81600181111561038457fe5b14156103b5576103926117ec565b61039a6117b0565b6103a385610d02565b915091506103b2828286610d2f565b50505b5b50505060606103c482610e25565b925050506103d28382610e4b565b505050505050505050565b7f8334eb99be0145865eba9889fca2ee920288090caefff4cc776038e20ad9259a81565b7f29fa046e79524c3c5ac4c01df692c35e217802b2b13b21121b76cf0ef02b138c81565b7f099f75155f0e997bf83a7993a71d5e7e7540bd386fe1e84643a09ce6b412521981565b7ffa7dd04da627f433da73c4355ead9c75682a67a8fc84d3f6170ef0922f402d2481565b7fb9dfbaccbe5cd2a84fdcf1d15f23ef25d23086f5afbaa99516065ed4a5bbc7a381565b7f03e38a2bd7063d45c897edeafc330e71657502dd86434d3c37a489caf116af6981565b7f68e30677f607df46e87da13e15b637784cfa62374b653f35ab43d10361a2f83081565b7f0e7f692dad5b88fdee426250d6eae91207e56a2e8112b7364579bed1790e5bf481565b60006060806060807f03e38a2bd7063d45c897edeafc330e71657502dd86434d3c37a489caf116af697bffffffffffffffffffffffffffffffffffffffffffffffffffffffff1916887bffffffffffffffffffffffffffffffffffffffffffffffffffffffff1916146105a5576040517f08c379a000000000000000000000000000000000000000000000000000000000815260040161059c90612a9f565b60405180910390fd5b60606000806105f78a8a8080601f016020809104026020016040519081016040528093929190818152602001838380828437600081840152601f19601f82011690508083019250505050505050610b91565b92506fffffffffffffffffffffffffffffffff1692509250600167ffffffffffffffff8111801561062757600080fd5b506040519080825280602002602001820160405280156106565781602001602082028036833780820191505090505b509450600167ffffffffffffffff8111801561067157600080fd5b506040519080825280602002602001820160405280156106a05781602001602082028036833780820191505090505b509350600167ffffffffffffffff811180156106bb57600080fd5b506040519080825280602002602001820160405280156106ea5781602001602082028036833780820191505090505b509650600167ffffffffffffffff8111801561070557600080fd5b506040519080825280602002602001820160405280156107345781602001602082028036833780820191505090505b5095506000806000806000600181111561074a57fe5b85600181111561075657fe5b141561086057610764611688565b61076d88610bb7565b5090508060a00151945080604001516fffffffffffffffffffffffffffffffff16935080600001518a6000815181106107a257fe5b602002602001019073ffffffffffffffffffffffffffffffffffffffff16908173ffffffffffffffffffffffffffffffffffffffff168152505080602001518c6000815181106107ee57fe5b602002602001019073ffffffffffffffffffffffffffffffffffffffff16908173ffffffffffffffffffffffffffffffffffffffff168152505080606001516fffffffffffffffffffffffffffffffff16925080608001516fffffffffffffffffffffffffffffffff16915050610966565b60018081111561086c57fe5b85600181111561087857fe5b1415610965576108866117ec565b61088f88610d02565b5090508060800151945080604001516fffffffffffffffffffffffffffffffff16935080600001518a6000815181106108c457fe5b602002602001019073ffffffffffffffffffffffffffffffffffffffff16908173ffffffffffffffffffffffffffffffffffffffff168152505080602001518c60008151811061091057fe5b602002602001019073ffffffffffffffffffffffffffffffffffffffff16908173ffffffffffffffffffffffffffffffffffffffff168152505080606001516fffffffffffffffffffffffffffffffff169250505b5b61096f84610a93565b6109ae576040517f08c379a00000000000000000000000000000000000000000000000000000000081526004016109a590612a1f565b60405180910390fd5b60008111156109f2576109d46109c5838389610fcc565b87610ffc90919063ffffffff16565b8a6000815181106109e157fe5b602002602001018181525050610a0d565b858a600081518110610a0057fe5b6020026020010181815250505b610a18828488610fcc565b88600081518110610a2557fe5b60200260200101818152505060029b5050505050505050945094509450945094565b60007f0000000000000000000000000000000000000000000000000000000000000000905090565b7fc29fa9dde84204c2908778afd0613d802d31cf046179b88f6d2b4a4e507ea2d581565b6000807f00000000000000000000000000000000000000000000000000000000000000001480610b8a57507f000000000000000000000000000000000000000000000000000000000000000073ffffffffffffffffffffffffffffffffffffffff16631c5632047f0000000000000000000000000000000000000000000000000000000000000000846040518363ffffffff1660e01b8152600401610b39929190612b33565b60206040518083038186803b158015610b5157600080fd5b505afa158015610b65573d6000803e3d6000fd5b505050506040513d601f19601f82011682018060405250810190610b899190611fa2565b5b9050919050565b606060008083806020019051810190610baa9190611fcb565b9250925092509193909250565b610bbf611688565b610bc76117b0565b82806020019051810190610bdb9190612032565b91509150915091565b610c4d83602001517f0000000000000000000000000000000000000000000000000000000000000000610c4886608001516fffffffffffffffffffffffffffffffff16856fffffffffffffffffffffffffffffffff16610ffc90919063ffffffff16565b611051565b7f000000000000000000000000000000000000000000000000000000000000000073ffffffffffffffffffffffffffffffffffffffff16639240529c8484846040518463ffffffff1660e01b8152600401610caa93929190612abf565b602060405180830381600087803b158015610cc457600080fd5b505af1158015610cd8573d6000803e3d6000fd5b505050506040513d601f19601f82011682018060405250810190610cfc91906120ae565b50505050565b610d0a6117ec565b610d126117b0565b82806020019051810190610d269190612070565b91509150915091565b610d7083602001517f0000000000000000000000000000000000000000000000000000000000000000836fffffffffffffffffffffffffffffffff16611051565b7f000000000000000000000000000000000000000000000000000000000000000073ffffffffffffffffffffffffffffffffffffffff1663438cdfc58484846040518463ffffffff1660e01b8152600401610dcd93929190612af9565b602060405180830381600087803b158015610de757600080fd5b505af1158015610dfb573d6000803e3d6000fd5b505050506040513d601f19601f82011682018060405250810190610e1f91906120ae565b50505050565b606080606083806020019051810190610e3e9190611f0b565b9250925092509193909250565b6060815167ffffffffffffffff81118015610e6557600080fd5b50604051908082528060200260200182016040528015610e945781602001602082028036833780820191505090505b50905060005b8251811015610fc5576000838281518110610eb157fe5b602002602001015190508073ffffffffffffffffffffffffffffffffffffffff166370a08231306040518263ffffffff1660e01b8152600401610ef4919061286b565b60206040518083038186803b158015610f0c57600080fd5b505afa158015610f20573d6000803e3d6000fd5b505050506040513d601f19601f82011682018060405250810190610f4491906120d7565b838381518110610f5057fe5b6020026020010181815250506000838381518110610f6a57fe5b60200260200101511115610fb757610fb685848481518110610f8857fe5b60200260200101518373ffffffffffffffffffffffffffffffffffffffff166111709092919063ffffffff16565b5b508080600101915050610e9a565b5092915050565b6000610ff384610fe585856111f690919063ffffffff16565b61126690919063ffffffff16565b90509392505050565b600080828401905083811015611047576040517f08c379a000000000000000000000000000000000000000000000000000000000815260040161103e9061299f565b60405180910390fd5b8091505092915050565b60008373ffffffffffffffffffffffffffffffffffffffff1663dd62ed3e30856040518363ffffffff1660e01b815260040161108e929190612886565b60206040518083038186803b1580156110a657600080fd5b505afa1580156110ba573d6000803e3d6000fd5b505050506040513d601f19601f820116820180604052508101906110de91906120d7565b90508181101561116a57600081111561111e5761111d8360008673ffffffffffffffffffffffffffffffffffffffff166112bc9092919063ffffffff16565b5b611169837fffffffffffffffffffffffffffffffffffffffffffffffffffffffffffffffff8673ffffffffffffffffffffffffffffffffffffffff166112bc9092919063ffffffff16565b5b50505050565b6111f18363a9059cbb60e01b848460405160240161118f9291906128af565b604051602081830303815290604052907bffffffffffffffffffffffffffffffffffffffffffffffffffffffff19166020820180517bffffffffffffffffffffffffffffffffffffffffffffffffffffffff838183161783525050505061141a565b505050565b6000808314156112095760009050611260565b600082840290508284828161121a57fe5b041461125b576040517f08c379a0000000000000000000000000000000000000000000000000000000008152600401611252906129ff565b60405180910390fd5b809150505b92915050565b60008082116112aa576040517f08c379a00000000000000000000000000000000000000000000000000000000081526004016112a1906129df565b60405180910390fd5b8183816112b357fe5b04905092915050565b6000811480611355575060008373ffffffffffffffffffffffffffffffffffffffff1663dd62ed3e30856040518363ffffffff1660e01b8152600401611303929190612886565b60206040518083038186803b15801561131b57600080fd5b505afa15801561132f573d6000803e3d6000fd5b505050506040513d601f19601f8201168201806040525081019061135391906120d7565b145b611394576040517f08c379a000000000000000000000000000000000000000000000000000000000815260040161138b90612a7f565b60405180910390fd5b6114158363095ea7b360e01b84846040516024016113b39291906128af565b604051602081830303815290604052907bffffffffffffffffffffffffffffffffffffffffffffffffffffffff19166020820180517bffffffffffffffffffffffffffffffffffffffffffffffffffffffff838183161783525050505061141a565b505050565b606061147c826040518060400160405280602081526020017f5361666545524332303a206c6f772d6c6576656c2063616c6c206661696c65648152508573ffffffffffffffffffffffffffffffffffffffff166114e19092919063ffffffff16565b90506000815111156114dc578080602001905181019061149c9190611fa2565b6114db576040517f08c379a00000000000000000000000000000000000000000000000000000000081526004016114d290612a5f565b60405180910390fd5b5b505050565b60606114f084846000856114f9565b90509392505050565b60608247101561153e576040517f08c379a0000000000000000000000000000000000000000000000000000000008152600401611535906129bf565b60405180910390fd5b6115478561160e565b611586576040517f08c379a000000000000000000000000000000000000000000000000000000000815260040161157d90612a3f565b60405180910390fd5b600060608673ffffffffffffffffffffffffffffffffffffffff1685876040516115b09190612854565b60006040518083038185875af1925050503d80600081146115ed576040519150601f19603f3d011682016040523d82523d6000602084013e6115f2565b606091505b5091509150611602828286611621565b92505050949350505050565b600080823b905060008111915050919050565b6060831561163157829050611681565b6000835111156116445782518084602001fd5b816040517f08c379a0000000000000000000000000000000000000000000000000000000008152600401611678919061297d565b60405180910390fd5b9392505050565b604051806101800160405280600073ffffffffffffffffffffffffffffffffffffffff168152602001600073ffffffffffffffffffffffffffffffffffffffff16815260200160006fffffffffffffffffffffffffffffffff16815260200160006fffffffffffffffffffffffffffffffff16815260200160006fffffffffffffffffffffffffffffffff168152602001600073ffffffffffffffffffffffffffffffffffffffff168152602001600073ffffffffffffffffffffffffffffffffffffffff168152602001600073ffffffffffffffffffffffffffffffffffffffff168152602001600073ffffffffffffffffffffffffffffffffffffffff16815260200160008019168152602001600067ffffffffffffffff168152602001600081525090565b6040518060800160405280600060048111156117c857fe5b8152602001600060ff16815260200160008019168152602001600080191681525090565b604051806101400160405280600073ffffffffffffffffffffffffffffffffffffffff168152602001600073ffffffffffffffffffffffffffffffffffffffff16815260200160006fffffffffffffffffffffffffffffffff16815260200160006fffffffffffffffffffffffffffffffff168152602001600073ffffffffffffffffffffffffffffffffffffffff168152602001600073ffffffffffffffffffffffffffffffffffffffff168152602001600073ffffffffffffffffffffffffffffffffffffffff16815260200160008019168152602001600067ffffffffffffffff168152602001600081525090565b6000813590506118ed81612e0c565b92915050565b60008151905061190281612e0c565b92915050565b600082601f83011261191957600080fd5b815161192c61192782612b89565b612b5c565b9150818183526020840193506020810190508385602084028201111561195157600080fd5b60005b83811015611981578161196788826118f3565b845260208401935060208301925050600181019050611954565b5050505092915050565b600082601f83011261199c57600080fd5b81516119af6119aa82612bb1565b612b5c565b915081818352602084019350602081019050838560208402820111156119d457600080fd5b60005b83811015611a0457816119ea8882611dae565b8452602084019350602083019250506001810190506119d7565b5050505092915050565b600081519050611a1d81612e23565b92915050565b600081519050611a3281612e3a565b92915050565b600081359050611a4781612e51565b92915050565b60008083601f840112611a5f57600080fd5b8235905067ffffffffffffffff811115611a7857600080fd5b602083019150836001820283011115611a9057600080fd5b9250929050565b600082601f830112611aa857600080fd5b8151611abb611ab682612bd9565b612b5c565b91508082526020830160208301858383011115611ad757600080fd5b611ae2838284612dae565b50505092915050565b600081519050611afa81612e68565b92915050565b600081519050611b0f81612e78565b92915050565b60006101808284031215611b2857600080fd5b611b33610180612b5c565b90506000611b43848285016118f3565b6000830152506020611b57848285016118f3565b6020830152506040611b6b84828501611d99565b6040830152506060611b7f84828501611d99565b6060830152506080611b9384828501611d99565b60808301525060a0611ba7848285016118f3565b60a08301525060c0611bbb848285016118f3565b60c08301525060e0611bcf848285016118f3565b60e083015250610100611be4848285016118f3565b61010083015250610120611bfa84828501611a23565b61012083015250610140611c1084828501611dc3565b61014083015250610160611c2684828501611dae565b6101608301525092915050565b60006101408284031215611c4657600080fd5b611c51610140612b5c565b90506000611c61848285016118f3565b6000830152506020611c75848285016118f3565b6020830152506040611c8984828501611d99565b6040830152506060611c9d84828501611d99565b6060830152506080611cb1848285016118f3565b60808301525060a0611cc5848285016118f3565b60a08301525060c0611cd9848285016118f3565b60c08301525060e0611ced84828501611a23565b60e083015250610100611d0284828501611dc3565b61010083015250610120611d1884828501611dae565b6101208301525092915050565b600060808284031215611d3757600080fd5b611d416080612b5c565b90506000611d5184828501611b00565b6000830152506020611d6584828501611dd8565b6020830152506040611d7984828501611a23565b6040830152506060611d8d84828501611a23565b60608301525092915050565b600081519050611da881612e88565b92915050565b600081519050611dbd81612e9f565b92915050565b600081519050611dd281612eb6565b92915050565b600081519050611de781612ecd565b92915050565b600060208284031215611dff57600080fd5b6000611e0d848285016118de565b91505092915050565b60008060008060608587031215611e2c57600080fd5b6000611e3a878288016118de565b9450506020611e4b87828801611a38565b935050604085013567ffffffffffffffff811115611e6857600080fd5b611e7487828801611a4d565b925092505092959194509250565b600080600080600060608688031215611e9a57600080fd5b6000611ea8888289016118de565b955050602086013567ffffffffffffffff811115611ec557600080fd5b611ed188828901611a4d565b9450945050604086013567ffffffffffffffff811115611ef057600080fd5b611efc88828901611a4d565b92509250509295509295909350565b600080600060608486031215611f2057600080fd5b600084015167ffffffffffffffff811115611f3a57600080fd5b611f4686828701611908565b935050602084015167ffffffffffffffff811115611f6357600080fd5b611f6f8682870161198b565b925050604084015167ffffffffffffffff811115611f8c57600080fd5b611f9886828701611908565b9150509250925092565b600060208284031215611fb457600080fd5b6000611fc284828501611a0e565b91505092915050565b600080600060608486031215611fe057600080fd5b600084015167ffffffffffffffff811115611ffa57600080fd5b61200686828701611a97565b935050602061201786828701611d99565b925050604061202886828701611aeb565b9150509250925092565b600080610200838503121561204657600080fd5b600061205485828601611b15565b92505061018061206685828601611d25565b9150509250929050565b6000806101c0838503121561208457600080fd5b600061209285828601611c33565b9250506101406120a485828601611d25565b9150509250929050565b6000602082840312156120c057600080fd5b60006120ce84828501611d99565b91505092915050565b6000602082840312156120e957600080fd5b60006120f784828501611dae565b91505092915050565b600061210c8383612130565b60208301905092915050565b60006121248383612818565b60208301905092915050565b61213981612ca9565b82525050565b61214881612ca9565b82525050565b600061215982612c25565b6121638185612c6b565b935061216e83612c05565b8060005b8381101561219f5781516121868882612100565b975061219183612c51565b925050600181019050612172565b5085935050505092915050565b60006121b782612c30565b6121c18185612c7c565b93506121cc83612c15565b8060005b838110156121fd5781516121e48882612118565b97506121ef83612c5e565b9250506001810190506121d0565b5085935050505092915050565b61221381612cbb565b82525050565b61222281612cc7565b82525050565b61223181612cd1565b82525050565b600061224282612c3b565b61224c8185612c8d565b935061225c818560208601612dae565b80840191505092915050565b61227181612d8a565b82525050565b61228081612d9c565b82525050565b600061229182612c46565b61229b8185612c98565b93506122ab818560208601612dae565b6122b481612de1565b840191505092915050565b60006122cc601b83612c98565b91507f536166654d6174683a206164646974696f6e206f766572666c6f7700000000006000830152602082019050919050565b600061230c602683612c98565b91507f416464726573733a20696e73756666696369656e742062616c616e636520666f60008301527f722063616c6c00000000000000000000000000000000000000000000000000006020830152604082019050919050565b6000612372601a83612c98565b91507f536166654d6174683a206469766973696f6e206279207a65726f0000000000006000830152602082019050919050565b60006123b2602183612c98565b91507f536166654d6174683a206d756c7469706c69636174696f6e206f766572666c6f60008301527f77000000000000000000000000000000000000000000000000000000000000006020830152604082019050919050565b6000612418603083612c98565b91507f7061727365417373657473466f72416374696f6e3a204f72646572206d616b6560008301527f72206973206e6f7420616c6c6f776564000000000000000000000000000000006020830152604082019050919050565b600061247e601d83612c98565b91507f416464726573733a2063616c6c20746f206e6f6e2d636f6e74726163740000006000830152602082019050919050565b60006124be602a83612c98565b91507f5361666545524332303a204552433230206f7065726174696f6e20646964206e60008301527f6f742073756363656564000000000000000000000000000000000000000000006020830152604082019050919050565b6000612524603683612c98565b91507f5361666545524332303a20617070726f76652066726f6d206e6f6e2d7a65726f60008301527f20746f206e6f6e2d7a65726f20616c6c6f77616e6365000000000000000000006020830152604082019050919050565b600061258a602783612c98565b91507f7061727365417373657473466f72416374696f6e3a205f73656c6563746f722060008301527f696e76616c6964000000000000000000000000000000000000000000000000006020830152604082019050919050565b610180820160008201516125fa6000850182612130565b50602082015161260d6020850182612130565b50604082015161262060408501826127fa565b50606082015161263360608501826127fa565b50608082015161264660808501826127fa565b5060a082015161265960a0850182612130565b5060c082015161266c60c0850182612130565b5060e082015161267f60e0850182612130565b50610100820151612694610100850182612130565b506101208201516126a9610120850182612219565b506101408201516126be610140850182612836565b506101608201516126d3610160850182612818565b50505050565b610140820160008201516126f06000850182612130565b5060208201516127036020850182612130565b50604082015161271660408501826127fa565b50606082015161272960608501826127fa565b50608082015161273c6080850182612130565b5060a082015161274f60a0850182612130565b5060c082015161276260c0850182612130565b5060e082015161277560e0850182612219565b5061010082015161278a610100850182612836565b5061012082015161279f610120850182612818565b50505050565b6080820160008201516127bb6000850182612268565b5060208201516127ce6020850182612845565b5060408201516127e16040850182612219565b5060608201516127f46060850182612219565b50505050565b61280381612d23565b82525050565b61281281612d23565b82525050565b61282181612d5f565b82525050565b61283081612d5f565b82525050565b61283f81612d69565b82525050565b61284e81612d7d565b82525050565b60006128608284612237565b915081905092915050565b6000602082019050612880600083018461213f565b92915050565b600060408201905061289b600083018561213f565b6128a8602083018461213f565b9392505050565b60006040820190506128c4600083018561213f565b6128d16020830184612827565b9392505050565b60006020820190506128ed600083018461220a565b92915050565b60006020820190506129086000830184612228565b92915050565b600060a0820190506129236000830188612277565b8181036020830152612935818761214e565b9050818103604083015261294981866121ac565b9050818103606083015261295d818561214e565b9050818103608083015261297181846121ac565b90509695505050505050565b600060208201905081810360008301526129978184612286565b905092915050565b600060208201905081810360008301526129b8816122bf565b9050919050565b600060208201905081810360008301526129d8816122ff565b9050919050565b600060208201905081810360008301526129f881612365565b9050919050565b60006020820190508181036000830152612a18816123a5565b9050919050565b60006020820190508181036000830152612a388161240b565b9050919050565b60006020820190508181036000830152612a5881612471565b9050919050565b60006020820190508181036000830152612a78816124b1565b9050919050565b60006020820190508181036000830152612a9881612517565b9050919050565b60006020820190508181036000830152612ab88161257d565b9050919050565b600061022082019050612ad560008301866125e3565b612ae36101808301856127a5565b612af1610200830184612809565b949350505050565b60006101e082019050612b0f60008301866126d9565b612b1d6101408301856127a5565b612b2b6101c0830184612809565b949350505050565b6000604082019050612b486000830185612827565b612b55602083018461213f565b9392505050565b6000604051905081810181811067ffffffffffffffff82111715612b7f57600080fd5b8060405250919050565b600067ffffffffffffffff821115612ba057600080fd5b602082029050602081019050919050565b600067ffffffffffffffff821115612bc857600080fd5b602082029050602081019050919050565b600067ffffffffffffffff821115612bf057600080fd5b601f19601f8301169050602081019050919050565b6000819050602082019050919050565b6000819050602082019050919050565b600081519050919050565b600081519050919050565b600081519050919050565b600081519050919050565b6000602082019050919050565b6000602082019050919050565b600082825260208201905092915050565b600082825260208201905092915050565b600081905092915050565b600082825260208201905092915050565b6000612cb482612d3f565b9050919050565b60008115159050919050565b6000819050919050565b60007fffffffff0000000000000000000000000000000000000000000000000000000082169050919050565b6000819050612d0b82612df2565b919050565b6000819050612d1e82612dff565b919050565b60006fffffffffffffffffffffffffffffffff82169050919050565b600073ffffffffffffffffffffffffffffffffffffffff82169050919050565b6000819050919050565b600067ffffffffffffffff82169050919050565b600060ff82169050919050565b6000612d9582612cfd565b9050919050565b6000612da782612d10565b9050919050565b60005b83811015612dcc578082015181840152602081019050612db1565b83811115612ddb576000848401525b50505050565b6000601f19601f8301169050919050565b60058110612dfc57fe5b50565b60038110612e0957fe5b50565b612e1581612ca9565b8114612e2057600080fd5b50565b612e2c81612cbb565b8114612e3757600080fd5b50565b612e4381612cc7565b8114612e4e57600080fd5b50565b612e5a81612cd1565b8114612e6557600080fd5b50565b60028110612e7557600080fd5b50565b60058110612e8557600080fd5b50565b612e9181612d23565b8114612e9c57600080fd5b50565b612ea881612d5f565b8114612eb357600080fd5b50565b612ebf81612d69565b8114612eca57600080fd5b50565b612ed681612d7d565b8114612ee157600080fd5b5056fea164736f6c634300060c000a","linkReferences":{}},"methodIdentifiers":{"CLAIM_REWARDS_SELECTOR()":"40da225d","LEND_AND_STAKE_SELECTOR()":"131461c0","LEND_SELECTOR()":"257cb1a3","REDEEM_SELECTOR()":"f7d882b5","STAKE_SELECTOR()":"3ffc1591","TAKE_MULTIPLE_ORDERS_SELECTOR()":"c32990a2","TAKE_ORDER_SELECTOR()":"863e5ad0","UNSTAKE_AND_REDEEM_SELECTOR()":"080456c1","UNSTAKE_SELECTOR()":"b23228cf","getIntegrationManager()":"e7c45690","isAllowedMaker(address)":"ff7ede37","parseAssetsForAction(address,bytes4,bytes)":"c54efee5","takeOrder(address,bytes,bytes)":"03e38a2b"},"id":223}