{"abi":[{"type":"constructor","inputs":[{"name":"_integrationManager","type":"address","internalType":"address"},{"name":"_compoundV3Configurator","type":"address","internalType":"address"},{"name":"_compoundV3Rewards","type":"address","internalType":"address"},{"name":"_addressListRegistry","type":"address","internalType":"address"},{"name":"_cTokenListId","type":"uint256","internalType":"uint256"}],"stateMutability":"nonpayable"},{"type":"function","name":"claimRewards","inputs":[{"name":"_vaultProxy","type":"address","internalType":"address"},{"name":"_actionData","type":"bytes","internalType":"bytes"},{"name":"","type":"bytes","internalType":"bytes"}],"outputs":[],"stateMutability":"nonpayable"},{"type":"function","name":"getIntegrationManager","inputs":[],"outputs":[{"name":"integrationManager_","type":"address","internalType":"address"}],"stateMutability":"view"},{"type":"function","name":"lend","inputs":[{"name":"_vaultProxy","type":"address","internalType":"address"},{"name":"","type":"bytes","internalType":"bytes"},{"name":"_assetData","type":"bytes","internalType":"bytes"}],"outputs":[],"stateMutability":"nonpayable"},{"type":"function","name":"parseAssetsForAction","inputs":[{"name":"_vaultProxy","type":"address","internalType":"address"},{"name":"_selector","type":"bytes4","internalType":"bytes4"},{"name":"_actionData","type":"bytes","internalType":"bytes"}],"outputs":[{"name":"spendAssetsHandleType_","type":"uint8","internalType":"enum IIntegrationManager.SpendAssetsHandleType"},{"name":"spendAssets_","type":"address[]","internalType":"address[]"},{"name":"spendAssetAmounts_","type":"uint256[]","internalType":"uint256[]"},{"name":"incomingAssets_","type":"address[]","internalType":"address[]"},{"name":"minIncomingAssetAmounts_","type":"uint256[]","internalType":"uint256[]"}],"stateMutability":"view"},{"type":"function","name":"redeem","inputs":[{"name":"_vaultProxy","type":"address","internalType":"address"},{"name":"","type":"bytes","internalType":"bytes"},{"name":"_assetData","type":"bytes","internalType":"bytes"}],"outputs":[],"stateMutability":"nonpayable"}],"bytecode":{"object":"0x6101406040523480156200001257600080fd5b5060405162001f8938038062001f8983398101604081905262000035916200015d565b6001600160601b0319606086811b821660805283901b1660a05260c0819052604051630337992760e31b81528390839083906000906001600160a01b038416906319bcc938906200008b908590600401620001ee565b60206040518083038186803b158015620000a457600080fd5b505afa158015620000b9573d6000803e3d6000fd5b505050506040513d601f19601f82011682018060405250810190620000df919062000134565b6001600160601b0319606091821b811660e05294811b8516610100529790971b90921661012052506200023895505050505050565b8051620001218162000213565b92915050565b805162000121816200022d565b6000602082840312156200014757600080fd5b600062000155848462000114565b949350505050565b600080600080600060a086880312156200017657600080fd5b600062000184888862000114565b9550506020620001978882890162000114565b9450506040620001aa8882890162000114565b9350506060620001bd8882890162000114565b9250506080620001d08882890162000127565b9150509295509295909350565b620001e88162000210565b82525050565b60208101620001218284620001dd565b60006001600160a01b03821662000121565b90565b6200021e81620001fe565b81146200022a57600080fd5b50565b6200021e8162000210565b60805160601c60a05160601c60c05160e05160601c6101005160601c6101205160601c611cf362000296600039806108005280610a6d5250806106b85250806105a25250806104cf5250806104a25250806104435250611cf36000f3fe608060405234801561001057600080fd5b50600436106100575760003560e01c8063099f75151461005c578063b9dfbacc14610071578063c29fa9dd14610084578063c54efee514610097578063e7c45690146100c4575b600080fd5b61006f61006a366004611533565b6100d9565b005b61006f61007f366004611533565b610209565b61006f610092366004611533565b61027d565b6100aa6100a53660046114cc565b610397565b6040516100bb959493929190611a9d565b60405180910390f35b6100cc610441565b6040516100bb91906119f8565b60608061011b84848080601f01602080910402602001604051908101604052809392919081815260200183838082843760009201919091525061046592505050565b925050915061013d8160008151811061013057fe5b602002602001015161048b565b6102008260008151811061014d57fe5b60200260200101518260008151811061016257fe5b6020026020010151898560008151811061017857fe5b60200260200101516001600160a01b03166370a08231306040518263ffffffff1660e01b81526004016101ab91906119f8565b60206040518083038186803b1580156101c357600080fd5b505afa1580156101d7573d6000803e3d6000fd5b505050506040513d601f19601f820116820180604052508101906101fb91906116cf565b610610565b50505050505050565b606061024a85858080601f01602080910402602001604051908101604052809392919081815260200183838082843760009201919091525061068392505050565b905060005b81518110156102005761027582828151811061026757fe5b6020026020010151886106a1565b60010161024f565b6060806102bf84848080601f01602080910402602001604051908101604052809392919081815260200183838082843760009201919091525061046592505050565b92505091506102d48260008151811061013057fe5b610200826000815181106102e457fe5b6020026020010151826000815181106102f957fe5b6020026020010151898560008151811061030f57fe5b60200260200101516001600160a01b03166370a08231306040518263ffffffff1660e01b815260040161034291906119f8565b60206040518083038186803b15801561035a57600080fd5b505afa15801561036e573d6000803e3d6000fd5b505050506040513d601f19601f8201168201806040525081019061039291906116cf565b6106f2565b600060608080806001600160e01b03198816632e77eeb360e21b14156103ce576103bf610722565b94509450945094509450610436565b6001600160e01b0319881663099f751560e01b14156103f1576103bf8787610782565b6001600160e01b0319881663c29fa9dd60e01b1415610415576103bf89888861098b565b60405162461bcd60e51b815260040161042d90611b65565b60405180910390fd5b945094509450945094565b7f000000000000000000000000000000000000000000000000000000000000000090565b60608060608380602001905181019061047e91906115ec565b9250925092509193909250565b6040516307158c8160e21b81526001600160a01b037f00000000000000000000000000000000000000000000000000000000000000001690631c563204906104f9907f0000000000000000000000000000000000000000000000000000000000000000908590600401611b75565b60206040518083038186803b15801561051157600080fd5b505afa158015610525573d6000803e3d6000fd5b505050506040513d601f19601f82011682018060405250810190610549919061167d565b61060d5760408051600180825281830190925260609160208083019080368337019050509050818160008151811061057d57fe5b6001600160a01b03928316602091820292909201015260405163a8f0bc4160e01b81527f00000000000000000000000000000000000000000000000000000000000000009091169063a8f0bc41906105d9908490600401611a8c565b600060405180830381600087803b1580156105f357600080fd5b505af1158015610607573d6000803e3d6000fd5b50505050505b50565b61061b848483610c1c565b604051634232cd6360e01b81526001600160a01b03841690634232cd639061064b90859088908690600401611a49565b600060405180830381600087803b15801561066557600080fd5b505af1158015610679573d6000803e3d6000fd5b5050505050505050565b60608180602001905181019061069991906115b8565b90505b919050565b604051635b81a7bf60e11b81526001600160a01b037f0000000000000000000000000000000000000000000000000000000000000000169063b7034f7e906105d99085908590600190600401611a21565b6040516361d9ad3f60e11b81526001600160a01b0385169063c3b35a7e9061064b90859087908690600401611a49565b600060608080808480604051908082528060200260200182016040528015610754578160200160208202803683370190505b5060408051600080825260208201818152828401918252606083019093529399929850965094509092509050565b60006060806060806000806107cc89898080601f016020809104026020016040519081016040528093929190818152602001838380828437600092019190915250610cde92505050565b60408051600180825281830190925292945090925060208083019080368337505060405163c44b11f760e01b8152919750507f00000000000000000000000000000000000000000000000000000000000000006001600160a01b03169063c44b11f79061083d9085906004016119f8565b60006040518083038186803b15801561085557600080fd5b505afa158015610869573d6000803e3d6000fd5b505050506040513d6000823e601f3d908101601f19168201604052610891919081019061169b565b60400151866000815181106108a257fe5b6001600160a01b039290921660209283029190910182015260408051600180825281830190925291828101908036833701905050945080856000815181106108e657fe5b602090810291909101015260408051600180825281830190925290816020016020820280368337019050509350818460008151811061092157fe5b6001600160a01b0392909216602092830291909101820152604080516001808252818301909252918281019080368337019050509250610962816002610cfe565b8360008151811061096f57fe5b6020026020010181815250506002965050509295509295909350565b60006060806060806000806109d589898080601f016020809104026020016040519081016040528093929190818152602001838380828437600092019190915250610cde92505050565b604080516001808252818301909252929450909250602080830190803683370190505095508186600081518110610a0857fe5b6001600160a01b03929092166020928302919091018201526040805160018082528183019092529182810190803683375050604080516001808252818301909252929750905060208083019080368337505060405163c44b11f760e01b8152919550507f00000000000000000000000000000000000000000000000000000000000000006001600160a01b03169063c44b11f790610aaa9085906004016119f8565b60006040518083038186803b158015610ac257600080fd5b505afa158015610ad6573d6000803e3d6000fd5b505050506040513d6000823e601f3d908101601f19168201604052610afe919081019061169b565b6040015184600081518110610b0f57fe5b6001600160a01b0392909216602092830291909101820152604080516001808252818301909252918281019080368337019050509250600019811415610bce576040516370a0823160e01b81526001600160a01b038316906370a0823190610b7b908d906004016119f8565b60206040518083038186803b158015610b9357600080fd5b505afa158015610ba7573d6000803e3d6000fd5b505050506040513d601f19601f82011682018060405250810190610bcb91906116cf565b90505b8085600081518110610bdc57fe5b6020908102919091010152610bf2816002610cfe565b83600081518110610bff57fe5b602002602001018181525050600296505050939792965093509350565b604051636eb1769f60e11b81526000906001600160a01b0385169063dd62ed3e90610c4d9030908790600401611a06565b60206040518083038186803b158015610c6557600080fd5b505afa158015610c79573d6000803e3d6000fd5b505050506040513d601f19601f82011682018060405250810190610c9d91906116cf565b905081811015610cd8578015610cc257610cc26001600160a01b038516846000610d2b565b610cd86001600160a01b03851684600019610d2b565b50505050565b60008082806020019051810190610cf59190611492565b91509150915091565b600082821115610d205760405162461bcd60e51b815260040161042d90611b15565b508082035b92915050565b610d3e610d3784610d43565b8383610d46565b505050565b90565b801580610dce5750604051636eb1769f60e11b81526001600160a01b0384169063dd62ed3e90610d7c9030908690600401611a06565b60206040518083038186803b158015610d9457600080fd5b505afa158015610da8573d6000803e3d6000fd5b505050506040513d601f19601f82011682018060405250810190610dcc91906116cf565b155b610dea5760405162461bcd60e51b815260040161042d90611b55565b610d3e8363095ea7b360e01b8484604051602401610e09929190611a71565b60408051601f198184030181529190526020810180516001600160e01b03166001600160e01b0319909316929092179091526060610e90826040518060400160405280602081526020017f5361666545524332303a206c6f772d6c6576656c2063616c6c206661696c6564815250856001600160a01b0316610eca9092919063ffffffff16565b805190915015610d3e5780806020019051810190610eae919061167d565b610d3e5760405162461bcd60e51b815260040161042d90611b45565b6060610ed98484600085610ee3565b90505b9392505050565b606082471015610f055760405162461bcd60e51b815260040161042d90611b25565b610f0e85610fa6565b610f2a5760405162461bcd60e51b815260040161042d90611b35565b60006060866001600160a01b03168587604051610f4791906119ec565b60006040518083038185875af1925050503d8060008114610f84576040519150601f19603f3d011682016040523d82523d6000602084013e610f89565b606091505b5091509150610f99828286610fac565b925050505b949350505050565b3b151590565b60608315610fbb575081610edc565b825115610fcb5782518084602001fd5b8160405162461bcd60e51b815260040161042d9190611b04565b8035610d2581611c93565b8051610d2581611c93565b600082601f83011261100c57600080fd5b815161101f61101a82611ba9565b611b83565b9150818183526020840193506020810190508385602084028201111561104457600080fd5b60005b83811015611070578161105a8882610ff0565b8452506020928301929190910190600101611047565b5050505092915050565b600082601f83011261108b57600080fd5b815161109961101a82611ba9565b915081818352602084019350602081019050838560e08402820111156110be57600080fd5b60005b8381101561107057816110d488826111ba565b84525060209092019160e091909101906001016110c1565b600082601f8301126110fd57600080fd5b815161110b61101a82611ba9565b9150818183526020840193506020810190508385602084028201111561113057600080fd5b60005b8381101561107057816111468882611471565b8452506020928301929190910190600101611133565b8051610d2581611ca7565b8035610d2581611cb0565b60008083601f84011261118457600080fd5b5081356001600160401b0381111561119b57600080fd5b6020830191508360018202830111156111b357600080fd5b9250929050565b600060e082840312156111cc57600080fd5b6111d660e0611b83565b905060006111e48484610ff0565b82525060206111f584848301610ff0565b602083015250604061120984828501611487565b604083015250606061121d8482850161147c565b60608301525060806112318482850161147c565b60808301525060a06112458482850161147c565b60a08301525060c061125984828501611466565b60c08301525092915050565b60006102a0828403121561127857600080fd5b6112836102a0611b83565b905060006112918484610ff0565b82525060206112a284848301610ff0565b60208301525060406112b684828501610ff0565b60408301525060606112ca84828501610ff0565b60608301525060806112de84828501610ff0565b60808301525060a06112f28482850161147c565b60a08301525060c06113068482850161147c565b60c08301525060e061131a8482850161147c565b60e08301525061010061132f8482850161147c565b610100830152506101206113458482850161147c565b6101208301525061014061135b8482850161147c565b610140830152506101606113718482850161147c565b610160830152506101806113878482850161147c565b610180830152506101a061139d8482850161147c565b6101a0830152506101c06113b38482850161147c565b6101c0830152506101e06113c98482850161147c565b6101e0830152506102006113df8482850161147c565b610200830152506102206113f58482850161145b565b6102208301525061024061140b8482850161145b565b610240830152506102606114218482850161145b565b610260830152506102808201516001600160401b0381111561144257600080fd5b61144e8482850161107a565b6102808301525092915050565b8051610d2581611cb9565b8051610d2581611cc2565b8051610d2581611ccb565b8051610d2581611cd4565b8051610d2581611cdd565b600080604083850312156114a557600080fd5b60006114b18585610ff0565b92505060206114c285828601611471565b9150509250929050565b600080600080606085870312156114e257600080fd5b60006114ee8787610fe5565b94505060206114ff87828801611167565b93505060408501356001600160401b0381111561151b57600080fd5b61152787828801611172565b95989497509550505050565b60008060008060006060868803121561154b57600080fd5b60006115578888610fe5565b95505060208601356001600160401b0381111561157357600080fd5b61157f88828901611172565b945094505060408601356001600160401b0381111561159d57600080fd5b6115a988828901611172565b92509250509295509295909350565b6000602082840312156115ca57600080fd5b81516001600160401b038111156115e057600080fd5b610f9e84828501610ffb565b60008060006060848603121561160157600080fd5b83516001600160401b0381111561161757600080fd5b61162386828701610ffb565b93505060208401516001600160401b0381111561163f57600080fd5b61164b868287016110ec565b92505060408401516001600160401b0381111561166757600080fd5b61167386828701610ffb565b9150509250925092565b60006020828403121561168f57600080fd5b6000610f9e848461115c565b6000602082840312156116ad57600080fd5b81516001600160401b038111156116c357600080fd5b610f9e84828501611265565b6000602082840312156116e157600080fd5b6000610f9e8484611471565b60006116f9838361170d565b505060200190565b60006116f983836119e3565b61171681611bdc565b82525050565b600061172782611bcf565b6117318185611bd3565b935061173c83611bc9565b8060005b8381101561176a57815161175488826116ed565b975061175f83611bc9565b925050600101611740565b509495945050505050565b600061178082611bcf565b61178a8185611bd3565b935061179583611bc9565b8060005b8381101561176a5781516117ad8882611701565b97506117b883611bc9565b925050600101611799565b61171681611be7565b60006117d782611bcf565b6117e1818561069c565b93506117f1818560208601611c53565b9290920192915050565b61171681611c48565b600061180f82611bcf565b6118198185611bd3565b9350611829818560208601611c53565b61183281611c7f565b9093019392505050565b6000611849601e83611bd3565b7f536166654d6174683a207375627472616374696f6e206f766572666c6f770000815260200192915050565b6000611882602683611bd3565b7f416464726573733a20696e73756666696369656e742062616c616e636520666f8152651c8818d85b1b60d21b602082015260400192915050565b60006118ca601d83611bd3565b7f416464726573733a2063616c6c20746f206e6f6e2d636f6e7472616374000000815260200192915050565b6000611903602a83611bd3565b7f5361666545524332303a204552433230206f7065726174696f6e20646964206e8152691bdd081cdd58d8d9595960b21b602082015260400192915050565b600061194f603683611bd3565b7f5361666545524332303a20617070726f76652066726f6d206e6f6e2d7a65726f81527520746f206e6f6e2d7a65726f20616c6c6f77616e636560501b602082015260400192915050565b60006119a7602783611bd3565b7f7061727365417373657473466f72416374696f6e3a205f73656c6563746f72208152661a5b9d985b1a5960ca1b602082015260400192915050565b61171681610d43565b6000610edc82846117cc565b60208101610d25828461170d565b60408101611a14828561170d565b610edc602083018461170d565b60608101611a2f828661170d565b611a3c602083018561170d565b610f9e60408301846117c3565b60608101611a57828661170d565b611a64602083018561170d565b610f9e60408301846119e3565b60408101611a7f828561170d565b610edc60208301846119e3565b60208082528101610edc818461171c565b60a08101611aab82886117fb565b8181036020830152611abd818761171c565b90508181036040830152611ad18186611775565b90508181036060830152611ae5818561171c565b90508181036080830152611af98184611775565b979650505050505050565b60208082528101610edc8184611804565b602080825281016106998161183c565b6020808252810161069981611875565b60208082528101610699816118bd565b60208082528101610699816118f6565b6020808252810161069981611942565b602080825281016106998161199a565b60408101611a1482856119e3565b6040518181016001600160401b0381118282101715611ba157600080fd5b604052919050565b60006001600160401b03821115611bbf57600080fd5b5060209081020190565b60200190565b5190565b90815260200190565b600061069982611c2a565b151590565b6001600160e01b03191690565b8061069c81611c89565b6cffffffffffffffffffffffffff1690565b6fffffffffffffffffffffffffffffffff1690565b6001600160a01b031690565b6001600160401b031690565b60ff1690565b600061069982611bf9565b60005b83811015611c6e578181015183820152602001611c56565b83811115610cd85750506000910152565b601f01601f191690565b6003811061060d57fe5b611c9c81611bdc565b811461060d57600080fd5b611c9c81611be7565b611c9c81611bec565b611c9c81611c03565b611c9c81611c15565b611c9c81610d43565b611c9c81611c36565b611c9c81611c4256fea164736f6c634300060c000a","linkReferences":{}},"methodIdentifiers":{"claimRewards(address,bytes,bytes)":"b9dfbacc","getIntegrationManager()":"e7c45690","lend(address,bytes,bytes)":"099f7515","parseAssetsForAction(address,bytes4,bytes)":"c54efee5","redeem(address,bytes,bytes)":"c29fa9dd"},"id":172}