{"abi":[{"type":"constructor","inputs":[{"name":"_integrationManager","type":"address","internalType":"address"},{"name":"_compoundV3Configurator","type":"address","internalType":"address"},{"name":"_compoundV3Rewards","type":"address","internalType":"address"},{"name":"_addressListRegistry","type":"address","internalType":"address"},{"name":"_cTokenListId","type":"uint256","internalType":"uint256"}],"stateMutability":"nonpayable"},{"type":"function","name":"claimRewards","inputs":[{"name":"_vaultProxy","type":"address","internalType":"address"},{"name":"_actionData","type":"bytes","internalType":"bytes"},{"name":"","type":"bytes","internalType":"bytes"}],"outputs":[],"stateMutability":"nonpayable"},{"type":"function","name":"getIntegrationManager","inputs":[],"outputs":[{"name":"integrationManager_","type":"address","internalType":"address"}],"stateMutability":"view"},{"type":"function","name":"lend","inputs":[{"name":"_vaultProxy","type":"address","internalType":"address"},{"name":"","type":"bytes","internalType":"bytes"},{"name":"_assetData","type":"bytes","internalType":"bytes"}],"outputs":[],"stateMutability":"nonpayable"},{"type":"function","name":"parseAssetsForAction","inputs":[{"name":"_vaultProxy","type":"address","internalType":"address"},{"name":"_selector","type":"bytes4","internalType":"bytes4"},{"name":"_actionData","type":"bytes","internalType":"bytes"}],"outputs":[{"name":"spendAssetsHandleType_","type":"uint8","internalType":"enum IIntegrationManager.SpendAssetsHandleType"},{"name":"spendAssets_","type":"address[]","internalType":"address[]"},{"name":"spendAssetAmounts_","type":"uint256[]","internalType":"uint256[]"},{"name":"incomingAssets_","type":"address[]","internalType":"address[]"},{"name":"minIncomingAssetAmounts_","type":"uint256[]","internalType":"uint256[]"}],"stateMutability":"view"},{"type":"function","name":"redeem","inputs":[{"name":"_vaultProxy","type":"address","internalType":"address"},{"name":"","type":"bytes","internalType":"bytes"},{"name":"_assetData","type":"bytes","internalType":"bytes"}],"outputs":[],"stateMutability":"nonpayable"}],"bytecode":{"object":"0x6101406040523480156200001257600080fd5b5060405162001c9e38038062001c9e833981016040819052620000359162000144565b6001600160601b0319606086811b821660805283901b1660a05260c0819052604051630337992760e31b81528390839083906000906001600160a01b038416906319bcc938906200008b908590600401620001b7565b60206040518083038186803b158015620000a457600080fd5b505afa158015620000b9573d6000803e3d6000fd5b505050506040513d601f19601f82011682018060405250810190620000df919062000114565b6001600160601b0319606091821b811660e05294811b8516610100529790971b9092166101205250620001d995505050505050565b60006020828403121562000126578081fd5b81516001600160a01b03811681146200013d578182fd5b9392505050565b600080600080600060a086880312156200015c578081fd5b85516200016981620001c0565b60208701519095506200017c81620001c0565b60408701519094506200018f81620001c0565b6060870151909350620001a281620001c0565b80925050608086015190509295509295909350565b90815260200190565b6001600160a01b0381168114620001d657600080fd5b50565b60805160601c60a05160601c60c05160e05160601c6101005160601c6101205160601c611a6762000237600039806107fe5280610a6b5250806106b65250806105a25250806104cf5250806104a25250806104435250611a676000f3fe608060405234801561001057600080fd5b50600436106100575760003560e01c8063099f75151461005c578063b9dfbacc14610071578063c29fa9dd14610084578063c54efee514610097578063e7c45690146100c4575b600080fd5b61006f61006a3660046112a0565b6100d9565b005b61006f61007f3660046112a0565b610209565b61006f6100923660046112a0565b61027d565b6100aa6100a5366004611231565b610397565b6040516100bb959493929190611784565b60405180910390f35b6100cc610441565b6040516100bb91906116e2565b60608061011b84848080601f01602080910402602001604051908101604052809392919081815260200183838082843760009201919091525061046592505050565b925050915061013d8160008151811061013057fe5b602002602001015161048b565b6102008260008151811061014d57fe5b60200260200101518260008151811061016257fe5b6020026020010151898560008151811061017857fe5b60200260200101516001600160a01b03166370a08231306040518263ffffffff1660e01b81526004016101ab91906116e2565b60206040518083038186803b1580156101c357600080fd5b505afa1580156101d7573d6000803e3d6000fd5b505050506040513d601f19601f820116820180604052508101906101fb919061163c565b610610565b50505050505050565b606061024a85858080601f01602080910402602001604051908101604052809392919081815260200183838082843760009201919091525061068392505050565b905060005b81518110156102005761027582828151811061026757fe5b60200260200101518861069f565b60010161024f565b6060806102bf84848080601f01602080910402602001604051908101604052809392919081815260200183838082843760009201919091525061046592505050565b92505091506102d48260008151811061013057fe5b610200826000815181106102e457fe5b6020026020010151826000815181106102f957fe5b6020026020010151898560008151811061030f57fe5b60200260200101516001600160a01b03166370a08231306040518263ffffffff1660e01b815260040161034291906116e2565b60206040518083038186803b15801561035a57600080fd5b505afa15801561036e573d6000803e3d6000fd5b505050506040513d601f19601f82011682018060405250810190610392919061163c565b6106f0565b600060608080806001600160e01b03198816632e77eeb360e21b14156103ce576103bf610720565b94509450945094509450610436565b6001600160e01b0319881663099f751560e01b14156103f1576103bf8787610780565b6001600160e01b0319881663c29fa9dd60e01b1415610415576103bf898888610989565b60405162461bcd60e51b815260040161042d90611974565b60405180910390fd5b945094509450945094565b7f000000000000000000000000000000000000000000000000000000000000000090565b60608060608380602001905181019061047e919061135b565b9250925092509193909250565b6040516307158c8160e21b81526001600160a01b037f00000000000000000000000000000000000000000000000000000000000000001690631c563204906104f9907f00000000000000000000000000000000000000000000000000000000000000009085906004016119bb565b60206040518083038186803b15801561051157600080fd5b505afa158015610525573d6000803e3d6000fd5b505050506040513d601f19601f820116820180604052508101906105499190611435565b61060d5760408051600180825281830190925260609160208083019080368337019050509050818160008151811061057d57fe5b6001600160a01b03928316602091820292909201015260405163a8f0bc4160e01b81527f00000000000000000000000000000000000000000000000000000000000000009091169063a8f0bc41906105d9908490600401611771565b600060405180830381600087803b1580156105f357600080fd5b505af1158015610607573d6000803e3d6000fd5b50505050505b50565b61061b848483610c1a565b604051634232cd6360e01b81526001600160a01b03841690634232cd639061064b90859088908690600401611734565b600060405180830381600087803b15801561066557600080fd5b505af1158015610679573d6000803e3d6000fd5b5050505050505050565b6060818060200190518101906106999190611320565b92915050565b604051635b81a7bf60e11b81526001600160a01b037f0000000000000000000000000000000000000000000000000000000000000000169063b7034f7e906105d99085908590600190600401611710565b6040516361d9ad3f60e11b81526001600160a01b0385169063c3b35a7e9061064b90859087908690600401611734565b600060608080808480604051908082528060200260200182016040528015610752578160200160208202803683370190505b5060408051600080825260208201818152828401918252606083019093529399929850965094509092509050565b60006060806060806000806107ca89898080601f016020809104026020016040519081016040528093929190818152602001838380828437600092019190915250610cdc92505050565b60408051600180825281830190925292945090925060208083019080368337505060405163c44b11f760e01b8152919750507f00000000000000000000000000000000000000000000000000000000000000006001600160a01b03169063c44b11f79061083b9085906004016116e2565b60006040518083038186803b15801561085357600080fd5b505afa158015610867573d6000803e3d6000fd5b505050506040513d6000823e601f3d908101601f1916820160405261088f9190810190611455565b60400151866000815181106108a057fe5b6001600160a01b039290921660209283029190910182015260408051600180825281830190925291828101908036833701905050945080856000815181106108e457fe5b602090810291909101015260408051600180825281830190925290816020016020820280368337019050509350818460008151811061091f57fe5b6001600160a01b0392909216602092830291909101820152604080516001808252818301909252918281019080368337019050509250610960816002610cfc565b8360008151811061096d57fe5b6020026020010181815250506002965050509295509295909350565b60006060806060806000806109d389898080601f016020809104026020016040519081016040528093929190818152602001838380828437600092019190915250610cdc92505050565b604080516001808252818301909252929450909250602080830190803683370190505095508186600081518110610a0657fe5b6001600160a01b03929092166020928302919091018201526040805160018082528183019092529182810190803683375050604080516001808252818301909252929750905060208083019080368337505060405163c44b11f760e01b8152919550507f00000000000000000000000000000000000000000000000000000000000000006001600160a01b03169063c44b11f790610aa89085906004016116e2565b60006040518083038186803b158015610ac057600080fd5b505afa158015610ad4573d6000803e3d6000fd5b505050506040513d6000823e601f3d908101601f19168201604052610afc9190810190611455565b6040015184600081518110610b0d57fe5b6001600160a01b0392909216602092830291909101820152604080516001808252818301909252918281019080368337019050509250600019811415610bcc576040516370a0823160e01b81526001600160a01b038316906370a0823190610b79908d906004016116e2565b60206040518083038186803b158015610b9157600080fd5b505afa158015610ba5573d6000803e3d6000fd5b505050506040513d601f19601f82011682018060405250810190610bc9919061163c565b90505b8085600081518110610bda57fe5b6020908102919091010152610bf0816002610cfc565b83600081518110610bfd57fe5b602002602001018181525050600296505050939792965093509350565b604051636eb1769f60e11b81526000906001600160a01b0385169063dd62ed3e90610c4b90309087906004016116f6565b60206040518083038186803b158015610c6357600080fd5b505afa158015610c77573d6000803e3d6000fd5b505050506040513d601f19601f82011682018060405250810190610c9b919061163c565b905081811015610cd6578015610cc057610cc06001600160a01b038516846000610d24565b610cd66001600160a01b03851684600019610d24565b50505050565b60008082806020019051810190610cf39190611204565b91509150915091565b600082821115610d1e5760405162461bcd60e51b815260040161042d90611820565b50900390565b610d37610d3084610d3c565b8383610d3f565b505050565b90565b801580610dc75750604051636eb1769f60e11b81526001600160a01b0384169063dd62ed3e90610d7590309086906004016116f6565b60206040518083038186803b158015610d8d57600080fd5b505afa158015610da1573d6000803e3d6000fd5b505050506040513d601f19601f82011682018060405250810190610dc5919061163c565b155b610de35760405162461bcd60e51b815260040161042d9061191e565b610d378363095ea7b360e01b8484604051602401610e02929190611758565b60408051601f198184030181529190526020810180516001600160e01b03166001600160e01b0319909316929092179091526060610e89826040518060400160405280602081526020017f5361666545524332303a206c6f772d6c6576656c2063616c6c206661696c6564815250856001600160a01b0316610ec39092919063ffffffff16565b805190915015610d375780806020019051810190610ea79190611435565b610d375760405162461bcd60e51b815260040161042d906118d4565b6060610ed28484600085610edc565b90505b9392505050565b606082471015610efe5760405162461bcd60e51b815260040161042d90611857565b610f0785610f9d565b610f235760405162461bcd60e51b815260040161042d9061189d565b60006060866001600160a01b03168587604051610f4091906116c6565b60006040518083038185875af1925050503d8060008114610f7d576040519150601f19603f3d011682016040523d82523d6000602084013e610f82565b606091505b5091509150610f92828286610fa3565b979650505050505050565b3b151590565b60608315610fb2575081610ed5565b825115610fc25782518084602001fd5b8160405162461bcd60e51b815260040161042d91906117ed565b805161069981611a45565b600082601f830112610ff7578081fd5b815161100a611005826119f9565b6119d2565b81815291506020808301908481018184028601820187101561102b57600080fd5b60005b8481101561105357815161104181611a45565b8452928201929082019060010161102e565b505050505092915050565b600082601f83011261106e578081fd5b815161107c611005826119f9565b818152915060208083019084810160e08085028701830188101561109f57600080fd5b6000805b8681101561114a5782848b0312156110b9578182fd5b6110c2836119d2565b6110cc8b86610fdc565b81526110da8b878701610fdc565b8682015260406110ec8c8288016111f3565b9082015260606110fe8c8783016111db565b9082015260806111108c8783016111db565b9082015260a06111228c8783016111db565b9082015260c06111348c8783016111bb565b90820152865294840194928201926001016110a3565b5050505050505092915050565b60008083601f840112611168578182fd5b50813567ffffffffffffffff81111561117f578182fd5b60208301915083602082850101111561119757600080fd5b9250929050565b80516cffffffffffffffffffffffffff8116811461069957600080fd5b80516fffffffffffffffffffffffffffffffff8116811461069957600080fd5b805167ffffffffffffffff8116811461069957600080fd5b805160ff8116811461069957600080fd5b60008060408385031215611216578182fd5b825161122181611a45565b6020939093015192949293505050565b60008060008060608587031215611246578182fd5b843561125181611a45565b935060208501356001600160e01b03198116811461126d578283fd5b9250604085013567ffffffffffffffff811115611288578283fd5b61129487828801611157565b95989497509550505050565b6000806000806000606086880312156112b7578081fd5b85356112c281611a45565b9450602086013567ffffffffffffffff808211156112de578283fd5b6112ea89838a01611157565b90965094506040880135915080821115611302578283fd5b5061130f88828901611157565b969995985093965092949392505050565b600060208284031215611331578081fd5b815167ffffffffffffffff811115611347578182fd5b61135384828501610fe7565b949350505050565b60008060006060848603121561136f578081fd5b835167ffffffffffffffff80821115611386578283fd5b61139287838801610fe7565b94506020915081860151818111156113a8578384fd5b8601601f810188136113b8578384fd5b80516113c6611005826119f9565b81815284810190838601868402850187018c10156113e2578788fd5b8794505b838510156114045780518352600194909401939186019186016113e6565b5060408a015190975094505050508082111561141e578283fd5b5061142b86828701610fe7565b9150509250925092565b600060208284031215611446578081fd5b81518015158114610ed5578182fd5b600060208284031215611466578081fd5b815167ffffffffffffffff8082111561147d578283fd5b81840191506102a0808387031215611493578384fd5b61149c816119d2565b90506114a88684610fdc565b81526114b78660208501610fdc565b60208201526114c98660408501610fdc565b60408201526114db8660608501610fdc565b60608201526114ed8660808501610fdc565b60808201526114ff8660a085016111db565b60a08201526115118660c085016111db565b60c08201526115238660e085016111db565b60e0820152610100611537878286016111db565b9082015261012061154a878583016111db565b9082015261014061155d878583016111db565b90820152610160611570878583016111db565b90820152610180611583878583016111db565b908201526101a0611596878583016111db565b908201526101c06115a9878583016111db565b908201526101e06115bc878583016111db565b908201526102006115cf878583016111db565b908201526102206115e28785830161119e565b908201526102406115f58785830161119e565b908201526102606116088785830161119e565b90820152610280838101518381111561161f578586fd5b61162b8882870161105e565b918301919091525095945050505050565b60006020828403121561164d578081fd5b5051919050565b6000815180845260208085019450808401835b8381101561168c5781516001600160a01b031687529582019590820190600101611667565b509495945050505050565b6000815180845260208085019450808401835b8381101561168c578151875295820195908201906001016116aa565b600082516116d8818460208701611a19565b9190910192915050565b6001600160a01b0391909116815260200190565b6001600160a01b0392831681529116602082015260400190565b6001600160a01b039384168152919092166020820152901515604082015260600190565b6001600160a01b039384168152919092166020820152604081019190915260600190565b6001600160a01b03929092168252602082015260400190565b600060208252610ed56020830184611654565b60006003871061179057fe5b86825260a060208301526117a760a0830187611654565b82810360408401526117b98187611697565b905082810360608401526117cd8186611654565b905082810360808401526117e18185611697565b98975050505050505050565b600060208252825180602084015261180c816040850160208701611a19565b601f01601f19169190910160400192915050565b6020808252601e908201527f536166654d6174683a207375627472616374696f6e206f766572666c6f770000604082015260600190565b60208082526026908201527f416464726573733a20696e73756666696369656e742062616c616e636520666f6040820152651c8818d85b1b60d21b606082015260800190565b6020808252601d908201527f416464726573733a2063616c6c20746f206e6f6e2d636f6e7472616374000000604082015260600190565b6020808252602a908201527f5361666545524332303a204552433230206f7065726174696f6e20646964206e6040820152691bdd081cdd58d8d9595960b21b606082015260800190565b60208082526036908201527f5361666545524332303a20617070726f76652066726f6d206e6f6e2d7a65726f60408201527520746f206e6f6e2d7a65726f20616c6c6f77616e636560501b606082015260800190565b60208082526027908201527f7061727365417373657473466f72416374696f6e3a205f73656c6563746f72206040820152661a5b9d985b1a5960ca1b606082015260800190565b9182526001600160a01b0316602082015260400190565b60405181810167ffffffffffffffff811182821017156119f157600080fd5b604052919050565b600067ffffffffffffffff821115611a0f578081fd5b5060209081020190565b60005b83811015611a34578181015183820152602001611a1c565b83811115610cd65750506000910152565b6001600160a01b038116811461060d57600080fdfea164736f6c634300060c000a","linkReferences":{}},"methodIdentifiers":{"claimRewards(address,bytes,bytes)":"b9dfbacc","getIntegrationManager()":"e7c45690","lend(address,bytes,bytes)":"099f7515","parseAssetsForAction(address,bytes4,bytes)":"c54efee5","redeem(address,bytes,bytes)":"c29fa9dd"},"id":175}