{"abi":[{"type":"constructor","inputs":[{"name":"_wethToken","type":"address","internalType":"address"},{"name":"_relayHub","type":"address","internalType":"address"},{"name":"_trustedForwarder","type":"address","internalType":"address"},{"name":"_depositCooldown","type":"uint256","internalType":"uint256"},{"name":"_depositMaxTotal","type":"uint256","internalType":"uint256"},{"name":"_relayFeeMaxBase","type":"uint256","internalType":"uint256"},{"name":"_relayFeeMaxPercent","type":"uint256","internalType":"uint256"}],"stateMutability":"nonpayable"},{"type":"function","name":"deposit","inputs":[],"outputs":[],"stateMutability":"nonpayable"},{"type":"function","name":"getGasAndDataLimits","inputs":[],"outputs":[{"name":"limits_","type":"tuple","internalType":"struct IGsnPaymaster.GasAndDataLimits","components":[{"name":"acceptanceBudget","type":"uint256","internalType":"uint256"},{"name":"preRelayedCallGasLimit","type":"uint256","internalType":"uint256"},{"name":"postRelayedCallGasLimit","type":"uint256","internalType":"uint256"},{"name":"calldataSizeLimit","type":"uint256","internalType":"uint256"}]}],"stateMutability":"pure"},{"type":"function","name":"getHubAddr","inputs":[],"outputs":[{"name":"relayHub_","type":"address","internalType":"address"}],"stateMutability":"view"},{"type":"function","name":"getLastDepositTimestamp","inputs":[],"outputs":[{"name":"lastDepositTimestamp_","type":"uint256","internalType":"uint256"}],"stateMutability":"view"},{"type":"function","name":"getParentComptroller","inputs":[],"outputs":[{"name":"parentComptroller_","type":"address","internalType":"address"}],"stateMutability":"view"},{"type":"function","name":"getParentVault","inputs":[],"outputs":[{"name":"parentVault_","type":"address","internalType":"address"}],"stateMutability":"view"},{"type":"function","name":"getRelayHubDeposit","inputs":[],"outputs":[{"name":"depositBalance_","type":"uint256","internalType":"uint256"}],"stateMutability":"view"},{"type":"function","name":"getWethToken","inputs":[],"outputs":[{"name":"wethToken_","type":"address","internalType":"address"}],"stateMutability":"view"},{"type":"function","name":"init","inputs":[{"name":"_vault","type":"address","internalType":"address"}],"outputs":[],"stateMutability":"nonpayable"},{"type":"function","name":"postRelayedCall","inputs":[{"name":"_context","type":"bytes","internalType":"bytes"},{"name":"_success","type":"bool","internalType":"bool"},{"name":"","type":"uint256","internalType":"uint256"},{"name":"_relayData","type":"tuple","internalType":"struct IGsnTypes.RelayData","components":[{"name":"gasPrice","type":"uint256","internalType":"uint256"},{"name":"pctRelayFee","type":"uint256","internalType":"uint256"},{"name":"baseRelayFee","type":"uint256","internalType":"uint256"},{"name":"relayWorker","type":"address","internalType":"address"},{"name":"paymaster","type":"address","internalType":"address"},{"name":"forwarder","type":"address","internalType":"address"},{"name":"paymasterData","type":"bytes","internalType":"bytes"},{"name":"clientId","type":"uint256","internalType":"uint256"}]}],"outputs":[],"stateMutability":"nonpayable"},{"type":"function","name":"preRelayedCall","inputs":[{"name":"_relayRequest","type":"tuple","internalType":"struct IGsnTypes.RelayRequest","components":[{"name":"request","type":"tuple","internalType":"struct IGsnForwarder.ForwardRequest","components":[{"name":"from","type":"address","internalType":"address"},{"name":"to","type":"address","internalType":"address"},{"name":"value","type":"uint256","internalType":"uint256"},{"name":"gas","type":"uint256","internalType":"uint256"},{"name":"nonce","type":"uint256","internalType":"uint256"},{"name":"data","type":"bytes","internalType":"bytes"},{"name":"validUntil","type":"uint256","internalType":"uint256"}]},{"name":"relayData","type":"tuple","internalType":"struct IGsnTypes.RelayData","components":[{"name":"gasPrice","type":"uint256","internalType":"uint256"},{"name":"pctRelayFee","type":"uint256","internalType":"uint256"},{"name":"baseRelayFee","type":"uint256","internalType":"uint256"},{"name":"relayWorker","type":"address","internalType":"address"},{"name":"paymaster","type":"address","internalType":"address"},{"name":"forwarder","type":"address","internalType":"address"},{"name":"paymasterData","type":"bytes","internalType":"bytes"},{"name":"clientId","type":"uint256","internalType":"uint256"}]}]},{"name":"","type":"bytes","internalType":"bytes"},{"name":"","type":"bytes","internalType":"bytes"},{"name":"","type":"uint256","internalType":"uint256"}],"outputs":[{"name":"context_","type":"bytes","internalType":"bytes"},{"name":"rejectOnRecipientRevert_","type":"bool","internalType":"bool"}],"stateMutability":"view"},{"type":"function","name":"trustedForwarder","inputs":[],"outputs":[{"name":"trustedForwarder_","type":"address","internalType":"address"}],"stateMutability":"view"},{"type":"function","name":"versionPaymaster","inputs":[],"outputs":[{"name":"versionString_","type":"string","internalType":"string"}],"stateMutability":"pure"},{"type":"function","name":"withdrawBalance","inputs":[],"outputs":[],"stateMutability":"nonpayable"},{"type":"event","name":"Deposited","inputs":[{"name":"amount","type":"uint256","indexed":false,"internalType":"uint256"}],"anonymous":false},{"type":"event","name":"TransactionRelayed","inputs":[{"name":"authorizer","type":"address","indexed":true,"internalType":"address"},{"name":"invokedSelector","type":"bytes4","indexed":false,"internalType":"bytes4"},{"name":"successful","type":"bool","indexed":false,"internalType":"bool"}],"anonymous":false},{"type":"event","name":"Withdrawn","inputs":[{"name":"amount","type":"uint256","indexed":false,"internalType":"uint256"}],"anonymous":false}],"bytecode":{"object":"0x6101606040523480156200001257600080fd5b5060405162001c7f38038062001c7f8339810160408190526200003591620000b5565b60809390935260a09190915260c05260e0526001600160a01b0391821661010052811661012052166101405262000164565b60006001600160a01b0382165b92915050565b620000858162000067565b81146200009157600080fd5b50565b805162000074816200007a565b8062000085565b80516200007481620000a1565b600080600080600080600060e0888a031215620000d557620000d5600080fd5b6000620000e38a8a62000094565b9750506020620000f68a828b0162000094565b9650506040620001098a828b0162000094565b95505060606200011c8a828b01620000a8565b94505060806200012f8a828b01620000a8565b93505060a0620001428a828b01620000a8565b92505060c0620001558a828b01620000a8565b91505092959891949750929550565b60805160a05160c05160e051610100516101205161014051611a88620001f7600039600081816101440152610e950152600081816101b4015261028a01526000818161017b0152818161023a0152818161055e015281816106a0015281816107790152610f1901526000610340015260006102f0015260008181610dd50152610e0501526000610d8d0152611a886000f3fe608060405234801561001057600080fd5b50600436106100e95760003560e01c80637da0a8771161008c578063ad5cb1cf11610066578063ad5cb1cf146101f5578063b039a88f146101fd578063d0e30db014610212578063de8662001461021a57600080fd5b80637da0a877146101b25780638f4698d2146101d8578063921276ea146101e057600080fd5b80634c252f91116100c85780634c252f91146101425780635fd8c7101461017157806374e861d61461017957806376fa01c31461019f57600080fd5b8062be5dd4146100ee57806319ab453c146101185780632afe31c11461012d575b600080fd5b6101016100fc36600461109a565b61022b565b60405161010f9291906111b6565b60405180910390f35b61012b6101263660046111fb565b6104f9565b005b610135610544565b60405161010f919061122a565b7f00000000000000000000000000000000000000000000000000000000000000005b60405161010f9190611241565b61012b6105d9565b7f0000000000000000000000000000000000000000000000000000000000000000610164565b61012b6101ad366004611278565b61076e565b7f0000000000000000000000000000000000000000000000000000000000000000610164565b600154610135565b6101e8610842565b60405161010f9190611316565b610164610862565b610205610878565b60405161010f9190611377565b61012b6108d4565b6000546001600160a01b0316610164565b60606000336001600160a01b037f000000000000000000000000000000000000000000000000000000000000000016146102805760405162461bcd60e51b8152600401610277906113bc565b60405180910390fd5b6001600160a01b037f0000000000000000000000000000000000000000000000000000000000000000166102b760208a018a6113cc565b6102c89060c081019060a0016111fb565b6001600160a01b0316146102ee5760405162461bcd60e51b815260040161027790611436565b7f000000000000000000000000000000000000000000000000000000000000000061031c60208a018a6113cc565b60400135111561033e5760405162461bcd60e51b815260040161027790611484565b7f000000000000000000000000000000000000000000000000000000000000000061036c60208a018a6113cc565b60200135111561038e5760405162461bcd60e51b8152600401610277906114c6565b6000546001600160a01b03168063368618896103aa8b806114d6565b6103b89060208101906111fb565b6040518263ffffffff1660e01b81526004016103d49190611241565b602060405180830381865afa1580156103f1573d6000803e3d6000fd5b505050506040513d601f19601f8201168201806040525081019061041591906114fb565b6104315760405162461bcd60e51b81526004016102779061155c565b60006104536104408b806114d6565b61044e9060a081019061156c565b610916565b9050610492826104638c806114d6565b6104749060408101906020016111fb565b8361047f8e806114d6565b61048d9060a081019061156c565b6109e2565b6104ae5760405162461bcd60e51b815260040161027790611613565b6104b88a806114d6565b6104c69060208101906111fb565b816040516020016104d8929190611633565b60408051601f198184030181529190529a60009a5098505050505050505050565b6000546001600160a01b0316156105225760405162461bcd60e51b81526004016102779061168e565b600080546001600160a01b0319166001600160a01b0392909216919091179055565b6040516370a0823160e01b81526000906001600160a01b037f000000000000000000000000000000000000000000000000000000000000000016906370a0823190610593903090600401611241565b602060405180830381865afa1580156105b0573d6000803e3d6000fd5b505050506040513d601f19601f820116820180604052508101906105d491906116a9565b905090565b600080546001600160a01b03169050806001600160a01b031663893d20e86040518163ffffffff1660e01b8152600401602060405180830381865afa158015610626573d6000803e3d6000fd5b505050506040513d601f19601f8201168201806040525081019061064a91906116d5565b6001600160a01b0316336001600160a01b03161480610682575061066d81610c86565b6001600160a01b0316336001600160a01b0316145b61069e5760405162461bcd60e51b815260040161027790611750565b7f00000000000000000000000000000000000000000000000000000000000000006001600160a01b031662f714ce6106d4610544565b306040518363ffffffff1660e01b81526004016106f2929190611760565b600060405180830381600087803b15801561070c57600080fd5b505af1158015610720573d6000803e3d6000fd5b5050505060004790506107338282610cea565b7f430648de173157e069201c943adb2d4e340e7cf5b27b1b09c9cb852f03d63b5681604051610762919061122a565b60405180910390a15050565b336001600160a01b037f000000000000000000000000000000000000000000000000000000000000000016146107b65760405162461bcd60e51b8152600401610277906113bc565b60006107c560c083018361156c565b8101906107d2919061177b565b905080156107e2576107e2610d8b565b6000806107f1878901896117b7565b91509150816001600160a01b03167f0899cabaea081bac7a32055422e160973f6e38e6ecb8faee1f6aa46b1b76d91482886040516108309291906117f4565b60405180910390a25050505050505050565b6060604051806060016040528060238152602001611a6560239139905090565b600080546105d4906001600160a01b0316610c86565b6108a36040518060800160405280600081526020016000815260200160008152602001600081525090565b6040518060800160405280620249f08152602001620186a081526020016201adb08152602001612904815250905090565b6108dc610862565b6001600160a01b0316336001600160a01b03161461090c5760405162461bcd60e51b815260040161027790611858565b610914610d8b565b565b600060048210156109395760405162461bcd60e51b8152600401610277906118c2565b60188383600381811061094e5761094e6118d2565b909101356001600160f81b03191690911c9050601084846002818110610976576109766118d2565b909101356001600160f81b03191690911c905060088585600181811061099e5761099e6118d2565b909101356001600160f81b03191690911c905085856000816109c2576109c26118d2565b9050013560f81c60f81b6001600160f81b03191617171790505b92915050565b6000856001600160a01b0316856001600160a01b031603610a0557506001610c7d565b6000610a1087610c86565b9050806001600160a01b0316866001600160a01b031603610aa4576001600160e01b031985166339bf70d160e01b1480610a5a57506001600160e01b0319851663e572ced160e01b145b80610a7557506001600160e01b03198516630b10ea2b60e41b145b80610a9057506001600160e01b0319851663016e3d1d60e51b145b15610a9f576001915050610c7d565b610c77565b806001600160a01b031663d44ad6cb6040518163ffffffff1660e01b8152600401602060405180830381865afa158015610ae2573d6000803e3d6000fd5b505050506040513d601f19601f82011682018060405250810190610b0691906116d5565b6001600160a01b0316866001600160a01b031603610b9a576001600160e01b03198516634ed28b3f60e01b1480610b4d57506001600160e01b031985166348f3520960e01b145b80610b6857506001600160e01b031985166345d582e760e01b145b15610a9f57610b75610862565b6001600160a01b0316610b888585610fcd565b6001600160a01b031614915050610c7d565b806001600160a01b03166397c0ac876040518163ffffffff1660e01b8152600401602060405180830381865afa158015610bd8573d6000803e3d6000fd5b505050506040513d601f19601f82011682018060405250810190610bfc91906116d5565b6001600160a01b0316866001600160a01b031603610c77576001600160e01b0319851663cd3ecbeb60e01b1480610c4657506001600160e01b031985166001620f751d60e31b0319145b80610c6157506001600160e01b0319851663d5189add60e01b145b15610c77576000546001600160a01b0316610b75565b60009150505b95945050505050565b6000816001600160a01b0316635a53e3486040518163ffffffff1660e01b8152600401602060405180830381865afa158015610cc6573d6000803e3d6000fd5b505050506040513d601f19601f820116820180604052508101906109dc91906116d5565b80471015610d0a5760405162461bcd60e51b81526004016102779061191c565b6000826001600160a01b031682604051610d239061192c565b60006040518083038185875af1925050503d8060008114610d60576040519150601f19603f3d011682016040523d82523d6000602084013e610d65565b606091505b5050905080610d865760405162461bcd60e51b81526004016102779061198e565b505050565b7f0000000000000000000000000000000000000000000000000000000000000000610db560015490565b610dbf90426119b4565b1015610dc757565b6000610dd1610544565b90507f00000000000000000000000000000000000000000000000000000000000000008110610dfd5750565b6000610e29827f00000000000000000000000000000000000000000000000000000000000000006119b4565b9050610e33610862565b6001600160a01b03166379951f0f826040518263ffffffff1660e01b8152600401610e5e919061122a565b600060405180830381600087803b158015610e7857600080fd5b505af1158015610e8c573d6000803e3d6000fd5b50505050610eb77f000000000000000000000000000000000000000000000000000000000000000090565b6001600160a01b0316632e1a7d4d826040518263ffffffff1660e01b8152600401610ee2919061122a565b600060405180830381600087803b158015610efc57600080fd5b505af1158015610f10573d6000803e3d6000fd5b50505050610f3b7f000000000000000000000000000000000000000000000000000000000000000090565b6001600160a01b031663aa67c91982306040518363ffffffff1660e01b8152600401610f679190611241565b6000604051808303818588803b158015610f8057600080fd5b505af1158015610f94573d6000803e3d6000fd5b50504260015550506040517f2a89b2e3d580398d6dc2db5e0f336b52602bbaa51afa9bb5cdf59239cf0d2bea915061076290839061122a565b60006024821015610ff05760405162461bcd60e51b8152600401610277906119c7565b610ffe602460048486611a34565b81019061100b91906111fb565b9392505050565b60006040828403121561102757611027600080fd5b50919050565b60008083601f84011261104257611042600080fd5b50813567ffffffffffffffff81111561105d5761105d600080fd5b60208301915083600182028301111561107857611078600080fd5b9250929050565b805b811461108c57600080fd5b50565b80356109dc8161107f565b600080600080600080608087890312156110b6576110b6600080fd5b863567ffffffffffffffff8111156110d0576110d0600080fd5b6110dc89828a01611012565b965050602087013567ffffffffffffffff8111156110fc576110fc600080fd5b61110889828a0161102d565b9550955050604087013567ffffffffffffffff81111561112a5761112a600080fd5b61113689828a0161102d565b9350935050606061114989828a0161108f565b9150509295509295509295565b60005b83811015611171578181015183820152602001611159565b50506000910152565b6000611184825190565b80845260208401935061119b818560208601611156565b601f01601f19169290920192915050565b8015155b82525050565b604080825281016111c7818561117a565b905061100b60208301846111ac565b60006001600160a01b0382166109dc565b611081816111d6565b80356109dc816111e7565b60006020828403121561121057611210600080fd5b600061121c84846111f0565b949350505050565b806111b0565b602081016109dc8284611224565b6111b0816111d6565b602081016109dc8284611238565b801515611081565b80356109dc8161124f565b6000610100828403121561102757611027600080fd5b60008060008060006080868803121561129357611293600080fd5b853567ffffffffffffffff8111156112ad576112ad600080fd5b6112b98882890161102d565b955095505060206112cc88828901611257565b93505060406112dd8882890161108f565b925050606086013567ffffffffffffffff8111156112fd576112fd600080fd5b61130988828901611262565b9150509295509295909350565b6020808252810161100b818461117a565b805160808301906113388482611224565b50602082015161134b6020850182611224565b50604082015161135e6040850182611224565b5060608201516113716060850182611224565b50505050565b608081016109dc8284611327565b601e81526000602082017f43616e206f6e6c792062652063616c6c65642062792052656c61794875620000815291505b5060200190565b602080825281016109dc81611385565b6000823560fe19368490030181126113e6576113e6600080fd5b9190910192915050565b602681526000602082017f70726552656c6179656443616c6c3a20556e617574686f72697a656420666f728152653bb0b93232b960d11b602082015291505b5060400190565b602080825281016109dc816113f0565b602181526000602082017f70726552656c6179656443616c6c3a2048696768206261736552656c617946658152606560f81b6020820152915061142f565b602080825281016109dc81611446565b60208082527f70726552656c6179656443616c6c3a20486967682070637452656c6179466565910190815260006113b5565b602080825281016109dc81611494565b6000823560de19368490030181126113e6576113e6600080fd5b80516109dc8161124f565b60006020828403121561151057611510600080fd5b600061121c84846114f0565b602381526000602082017f70726552656c6179656443616c6c3a20556e617574686f72697a65642063616c8152623632b960e91b6020820152915061142f565b602080825281016109dc8161151c565b6000808335601e193685900301811261158757611587600080fd5b80840192508235915067ffffffffffffffff8211156115a8576115a8600080fd5b6020830192506001820236038313156115c3576115c3600080fd5b509250929050565b602b81526000602082017f70726552656c6179656443616c6c3a2046756e6374696f6e2063616c6c206e6f81526a1d081c195c9b5a5d1d195960aa1b6020820152915061142f565b602080825281016109dc816115cb565b6001600160e01b031981166111b0565b604081016116418285611238565b61100b6020830184611623565b602381526000602082017f696e69743a205061796d617374657220616c726561647920696e697469616c698152621e995960ea1b6020820152915061142f565b602080825281016109dc8161164e565b80516109dc8161107f565b6000602082840312156116be576116be600080fd5b600061121c848461169e565b80516109dc816111e7565b6000602082840312156116ea576116ea600080fd5b600061121c84846116ca565b603881526000602082017f776974686472617742616c616e63653a204f6e6c79206f776e6572206f72206381527f6f6d7074726f6c6c657220697320617574686f72697a656400000000000000006020820152915061142f565b602080825281016109dc816116f6565b6040810161176e8285611224565b61100b6020830184611238565b60006020828403121561179057611790600080fd5b600061121c8484611257565b6001600160e01b03198116611081565b80356109dc8161179c565b600080604083850312156117cd576117cd600080fd5b60006117d985856111f0565b92505060206117ea858286016117ac565b9150509250929050565b604081016118028285611623565b61100b60208301846111ac565b602c81526000602082017f43616e206f6e6c792062652063616c6c65642062792074686520706172656e7481526b1031b7b6b83a3937b63632b960a11b6020820152915061142f565b602080825281016109dc8161180f565b603c81526000602082017f5f5f706172736554784461746146756e6374696f6e53656c6563746f723a205f81527f747844617461206973206e6f7420612076616c6964206c656e677468000000006020820152915061142f565b602080825281016109dc81611868565b634e487b7160e01b600052603260045260246000fd5b601d81526000602082017f416464726573733a20696e73756666696369656e742062616c616e6365000000815291506113b5565b602080825281016109dc816118e8565b6000816109dc565b603a81526000602082017f416464726573733a20756e61626c6520746f2073656e642076616c75652c207281527f6563697069656e74206d617920686176652072657665727465640000000000006020820152915061142f565b602080825281016109dc81611934565b634e487b7160e01b600052601160045260246000fd5b818103818111156109dc576109dc61199e565b602080825281016109dc81604381527f5f5f70617273655478446174614669727374506172616d65746572417341646460208201527f726573733a205f747844617461206973206e6f7420612076616c6964206c656e6040820152620cee8d60eb1b606082015260800190565b60008085851115611a4757611a47600080fd5b83861115611a5757611a57600080fd5b505082019391909203915056fe322e322e332b6f70656e67736e2e656e7a796d6566756e642e697061796d6173746572","linkReferences":{}},"methodIdentifiers":{"deposit()":"d0e30db0","getGasAndDataLimits()":"b039a88f","getHubAddr()":"74e861d6","getLastDepositTimestamp()":"8f4698d2","getParentComptroller()":"ad5cb1cf","getParentVault()":"de866200","getRelayHubDeposit()":"2afe31c1","getWethToken()":"4c252f91","init(address)":"19ab453c","postRelayedCall(bytes,bool,uint256,(uint256,uint256,uint256,address,address,address,bytes,uint256))":"76fa01c3","preRelayedCall(((address,address,uint256,uint256,uint256,bytes,uint256),(uint256,uint256,uint256,address,address,address,bytes,uint256)),bytes,bytes,uint256)":"00be5dd4","trustedForwarder()":"7da0a877","versionPaymaster()":"921276ea","withdrawBalance()":"5fd8c710"},"id":190}