{"abi":[{"type":"constructor","inputs":[{"name":"_wethToken","type":"address","internalType":"address"},{"name":"_relayHub","type":"address","internalType":"address"},{"name":"_trustedForwarder","type":"address","internalType":"address"},{"name":"_depositCooldown","type":"uint256","internalType":"uint256"},{"name":"_depositMaxTotal","type":"uint256","internalType":"uint256"},{"name":"_relayFeeMaxBase","type":"uint256","internalType":"uint256"},{"name":"_relayFeeMaxPercent","type":"uint256","internalType":"uint256"}],"stateMutability":"nonpayable"},{"type":"function","name":"deposit","inputs":[],"outputs":[],"stateMutability":"nonpayable"},{"type":"function","name":"getGasAndDataLimits","inputs":[],"outputs":[{"name":"limits_","type":"tuple","internalType":"struct IGsnPaymaster.GasAndDataLimits","components":[{"name":"acceptanceBudget","type":"uint256","internalType":"uint256"},{"name":"preRelayedCallGasLimit","type":"uint256","internalType":"uint256"},{"name":"postRelayedCallGasLimit","type":"uint256","internalType":"uint256"},{"name":"calldataSizeLimit","type":"uint256","internalType":"uint256"}]}],"stateMutability":"pure"},{"type":"function","name":"getHubAddr","inputs":[],"outputs":[{"name":"relayHub_","type":"address","internalType":"address"}],"stateMutability":"view"},{"type":"function","name":"getLastDepositTimestamp","inputs":[],"outputs":[{"name":"lastDepositTimestamp_","type":"uint256","internalType":"uint256"}],"stateMutability":"view"},{"type":"function","name":"getParentComptroller","inputs":[],"outputs":[{"name":"parentComptroller_","type":"address","internalType":"address"}],"stateMutability":"view"},{"type":"function","name":"getParentVault","inputs":[],"outputs":[{"name":"parentVault_","type":"address","internalType":"address"}],"stateMutability":"view"},{"type":"function","name":"getRelayHubDeposit","inputs":[],"outputs":[{"name":"depositBalance_","type":"uint256","internalType":"uint256"}],"stateMutability":"view"},{"type":"function","name":"getWethToken","inputs":[],"outputs":[{"name":"wethToken_","type":"address","internalType":"address"}],"stateMutability":"view"},{"type":"function","name":"init","inputs":[{"name":"_vault","type":"address","internalType":"address"}],"outputs":[],"stateMutability":"nonpayable"},{"type":"function","name":"postRelayedCall","inputs":[{"name":"_context","type":"bytes","internalType":"bytes"},{"name":"_success","type":"bool","internalType":"bool"},{"name":"","type":"uint256","internalType":"uint256"},{"name":"_relayData","type":"tuple","internalType":"struct IGsnTypes.RelayData","components":[{"name":"gasPrice","type":"uint256","internalType":"uint256"},{"name":"pctRelayFee","type":"uint256","internalType":"uint256"},{"name":"baseRelayFee","type":"uint256","internalType":"uint256"},{"name":"relayWorker","type":"address","internalType":"address"},{"name":"paymaster","type":"address","internalType":"address"},{"name":"forwarder","type":"address","internalType":"address"},{"name":"paymasterData","type":"bytes","internalType":"bytes"},{"name":"clientId","type":"uint256","internalType":"uint256"}]}],"outputs":[],"stateMutability":"nonpayable"},{"type":"function","name":"preRelayedCall","inputs":[{"name":"_relayRequest","type":"tuple","internalType":"struct IGsnTypes.RelayRequest","components":[{"name":"request","type":"tuple","internalType":"struct IGsnForwarder.ForwardRequest","components":[{"name":"from","type":"address","internalType":"address"},{"name":"to","type":"address","internalType":"address"},{"name":"value","type":"uint256","internalType":"uint256"},{"name":"gas","type":"uint256","internalType":"uint256"},{"name":"nonce","type":"uint256","internalType":"uint256"},{"name":"data","type":"bytes","internalType":"bytes"},{"name":"validUntil","type":"uint256","internalType":"uint256"}]},{"name":"relayData","type":"tuple","internalType":"struct IGsnTypes.RelayData","components":[{"name":"gasPrice","type":"uint256","internalType":"uint256"},{"name":"pctRelayFee","type":"uint256","internalType":"uint256"},{"name":"baseRelayFee","type":"uint256","internalType":"uint256"},{"name":"relayWorker","type":"address","internalType":"address"},{"name":"paymaster","type":"address","internalType":"address"},{"name":"forwarder","type":"address","internalType":"address"},{"name":"paymasterData","type":"bytes","internalType":"bytes"},{"name":"clientId","type":"uint256","internalType":"uint256"}]}]},{"name":"","type":"bytes","internalType":"bytes"},{"name":"","type":"bytes","internalType":"bytes"},{"name":"","type":"uint256","internalType":"uint256"}],"outputs":[{"name":"context_","type":"bytes","internalType":"bytes"},{"name":"rejectOnRecipientRevert_","type":"bool","internalType":"bool"}],"stateMutability":"view"},{"type":"function","name":"trustedForwarder","inputs":[],"outputs":[{"name":"trustedForwarder_","type":"address","internalType":"address"}],"stateMutability":"view"},{"type":"function","name":"versionPaymaster","inputs":[],"outputs":[{"name":"versionString_","type":"string","internalType":"string"}],"stateMutability":"pure"},{"type":"function","name":"withdrawBalance","inputs":[],"outputs":[],"stateMutability":"nonpayable"},{"type":"event","name":"Deposited","inputs":[{"name":"amount","type":"uint256","indexed":false,"internalType":"uint256"}],"anonymous":false},{"type":"event","name":"TransactionRelayed","inputs":[{"name":"authorizer","type":"address","indexed":true,"internalType":"address"},{"name":"invokedSelector","type":"bytes4","indexed":false,"internalType":"bytes4"},{"name":"successful","type":"bool","indexed":false,"internalType":"bool"}],"anonymous":false},{"type":"event","name":"Withdrawn","inputs":[{"name":"amount","type":"uint256","indexed":false,"internalType":"uint256"}],"anonymous":false}],"bytecode":{"object":"0x6101606040523480156200001257600080fd5b506040516200198438038062001984833981016040819052620000359162000084565b60809390935260a09190915260c05260e0526001600160a01b03918216610100528116610120521661014052620000f5565b80516001600160a01b03811681146200007f57600080fd5b919050565b600080600080600080600060e0888a031215620000a057600080fd5b620000ab8862000067565b9650620000bb6020890162000067565b9550620000cb6040890162000067565b9450606088015193506080880151925060a0880151915060c0880151905092959891949750929550565b60805160a05160c05160e0516101005161012051610140516117fc620001886000396000818161014501526112260152600081816101c001526102e80152600081816101870152818161026c0152818161072a015281816108d5015281816109b201526112ac015260006104170152600061038d01526000818161116401526111940152600061111c01526117fc6000f3fe608060405234801561001057600080fd5b50600436106100e95760003560e01c80637da0a8771161008c578063ad5cb1cf11610066578063ad5cb1cf14610201578063b039a88f14610209578063d0e30db014610244578063de8662001461024c57600080fd5b80637da0a877146101be5780638f4698d2146101e4578063921276ea146101ec57600080fd5b80634c252f91116100c85780634c252f91146101435780635fd8c7101461017d57806374e861d61461018557806376fa01c3146101ab57600080fd5b8062be5dd4146100ee57806319ab453c146101185780632afe31c11461012d575b600080fd5b6101016100fc36600461144f565b61025d565b60405161010f92919061153a565b60405180910390f35b61012b610126366004611576565b61069f565b005b610135610726565b60405190815260200161010f565b7f00000000000000000000000000000000000000000000000000000000000000005b6040516001600160a01b03909116815260200161010f565b61012b6107b8565b7f0000000000000000000000000000000000000000000000000000000000000000610165565b61012b6101b93660046115a1565b6109a7565b7f0000000000000000000000000000000000000000000000000000000000000000610165565b600154610135565b6101f4610ab9565b60405161010f9190611631565b610165610ad9565b610211610aef565b60405161010f91908151815260208083015190820152604080830151908201526060918201519181019190915260800190565b61012b610b4b565b6000546001600160a01b0316610165565b60606000336001600160a01b037f000000000000000000000000000000000000000000000000000000000000000016146102de5760405162461bcd60e51b815260206004820152601e60248201527f43616e206f6e6c792062652063616c6c65642062792052656c6179487562000060448201526064015b60405180910390fd5b6001600160a01b037f00000000000000000000000000000000000000000000000000000000000000001661031560208a018a611644565b6103269060c081019060a001611576565b6001600160a01b03161461038b5760405162461bcd60e51b815260206004820152602660248201527f70726552656c6179656443616c6c3a20556e617574686f72697a656420666f726044820152653bb0b93232b960d11b60648201526084016102d5565b7f00000000000000000000000000000000000000000000000000000000000000006103b960208a018a611644565b6040013511156104155760405162461bcd60e51b815260206004820152602160248201527f70726552656c6179656443616c6c3a2048696768206261736552656c617946656044820152606560f81b60648201526084016102d5565b7f000000000000000000000000000000000000000000000000000000000000000061044360208a018a611644565b6020013511156104955760405162461bcd60e51b815260206004820181905260248201527f70726552656c6179656443616c6c3a20486967682070637452656c617946656560448201526064016102d5565b6000546001600160a01b03168063368618896104b18b80611664565b6104bf906020810190611576565b6040516001600160e01b031960e084901b1681526001600160a01b039091166004820152602401602060405180830381865afa158015610503573d6000803e3d6000fd5b505050506040513d601f19601f82011682018060405250810190610527919061167a565b61057f5760405162461bcd60e51b815260206004820152602360248201527f70726552656c6179656443616c6c3a20556e617574686f72697a65642063616c6044820152623632b960e91b60648201526084016102d5565b60006105a161058e8b80611664565b61059c9060a0810190611697565b610bd2565b90506105e0826105b18c80611664565b6105c2906040810190602001611576565b836105cd8e80611664565b6105db9060a0810190611697565b610cf4565b6106405760405162461bcd60e51b815260206004820152602b60248201527f70726552656c6179656443616c6c3a2046756e6374696f6e2063616c6c206e6f60448201526a1d081c195c9b5a5d1d195960aa1b60648201526084016102d5565b61064a8a80611664565b610658906020810190611576565b604080516001600160a01b0390921660208301526001600160e01b031983169082015260600160408051601f198184030181529190529a60009a5098505050505050505050565b6000546001600160a01b0316156107045760405162461bcd60e51b815260206004820152602360248201527f696e69743a205061796d617374657220616c726561647920696e697469616c696044820152621e995960ea1b60648201526084016102d5565b600080546001600160a01b0319166001600160a01b0392909216919091179055565b60007f00000000000000000000000000000000000000000000000000000000000000006040516370a0823160e01b81523060048201526001600160a01b0391909116906370a0823190602401602060405180830381865afa15801561078f573d6000803e3d6000fd5b505050506040513d601f19601f820116820180604052508101906107b391906116de565b905090565b600080546001600160a01b03169050806001600160a01b031663893d20e86040518163ffffffff1660e01b8152600401602060405180830381865afa158015610805573d6000803e3d6000fd5b505050506040513d601f19601f8201168201806040525081019061082991906116f7565b6001600160a01b0316336001600160a01b03161480610861575061084c81610f98565b6001600160a01b0316336001600160a01b0316145b6108d35760405162461bcd60e51b815260206004820152603860248201527f776974686472617742616c616e63653a204f6e6c79206f776e6572206f72206360448201527f6f6d7074726f6c6c657220697320617574686f72697a6564000000000000000060648201526084016102d5565b7f00000000000000000000000000000000000000000000000000000000000000006001600160a01b031662f714ce610909610726565b6040516001600160e01b031960e084901b1681526004810191909152306024820152604401600060405180830381600087803b15801561094857600080fd5b505af115801561095c573d6000803e3d6000fd5b50505050600047905061096f8282610ffc565b6040518181527f430648de173157e069201c943adb2d4e340e7cf5b27b1b09c9cb852f03d63b56906020015b60405180910390a15050565b336001600160a01b037f00000000000000000000000000000000000000000000000000000000000000001614610a1f5760405162461bcd60e51b815260206004820152601e60248201527f43616e206f6e6c792062652063616c6c65642062792052656c6179487562000060448201526064016102d5565b6000610a2e60c0830183611697565b810190610a3b9190611714565b90508015610a4b57610a4b61111a565b600080610a5a87890189611731565b604080516001600160e01b03198316815289151560208201529294509092506001600160a01b038416917f0899cabaea081bac7a32055422e160973f6e38e6ecb8faee1f6aa46b1b76d914910160405180910390a25050505050505050565b60606040518060600160405280602381526020016117d960239139905090565b600080546107b3906001600160a01b0316610f98565b610b1a6040518060800160405280600081526020016000815260200160008152602001600081525090565b6040518060800160405280620249f08152602001620186a081526020016201adb08152602001612904815250905090565b610b53610ad9565b6001600160a01b0316336001600160a01b031614610bc85760405162461bcd60e51b815260206004820152602c60248201527f43616e206f6e6c792062652063616c6c65642062792074686520706172656e7460448201526b1031b7b6b83a3937b63632b960a11b60648201526084016102d5565b610bd061111a565b565b60006004821015610c4b5760405162461bcd60e51b815260206004820152603c60248201527f5f5f706172736554784461746146756e6374696f6e53656c6563746f723a205f60448201527f747844617461206973206e6f7420612076616c6964206c656e6774680000000060648201526084016102d5565b601883836003818110610c6057610c60611777565b909101356001600160f81b03191690911c9050601084846002818110610c8857610c88611777565b909101356001600160f81b03191690911c9050600885856001818110610cb057610cb0611777565b909101356001600160f81b03191690911c90508585600081610cd457610cd4611777565b9050013560f81c60f81b6001600160f81b03191617171790505b92915050565b6000856001600160a01b0316856001600160a01b031603610d1757506001610f8f565b6000610d2287610f98565b9050806001600160a01b0316866001600160a01b031603610db6576001600160e01b031985166339bf70d160e01b1480610d6c57506001600160e01b0319851663e572ced160e01b145b80610d8757506001600160e01b03198516630b10ea2b60e41b145b80610da257506001600160e01b0319851663016e3d1d60e51b145b15610db1576001915050610f8f565b610f89565b806001600160a01b031663d44ad6cb6040518163ffffffff1660e01b8152600401602060405180830381865afa158015610df4573d6000803e3d6000fd5b505050506040513d601f19601f82011682018060405250810190610e1891906116f7565b6001600160a01b0316866001600160a01b031603610eac576001600160e01b03198516634ed28b3f60e01b1480610e5f57506001600160e01b031985166348f3520960e01b145b80610e7a57506001600160e01b031985166345d582e760e01b145b15610db157610e87610ad9565b6001600160a01b0316610e9a858561135f565b6001600160a01b031614915050610f8f565b806001600160a01b03166397c0ac876040518163ffffffff1660e01b8152600401602060405180830381865afa158015610eea573d6000803e3d6000fd5b505050506040513d601f19601f82011682018060405250810190610f0e91906116f7565b6001600160a01b0316866001600160a01b031603610f89576001600160e01b0319851663cd3ecbeb60e01b1480610f5857506001600160e01b031985166001620f751d60e31b0319145b80610f7357506001600160e01b0319851663d5189add60e01b145b15610f89576000546001600160a01b0316610e87565b60009150505b95945050505050565b6000816001600160a01b0316635a53e3486040518163ffffffff1660e01b8152600401602060405180830381865afa158015610fd8573d6000803e3d6000fd5b505050506040513d601f19601f82011682018060405250810190610cee91906116f7565b8047101561104c5760405162461bcd60e51b815260206004820152601d60248201527f416464726573733a20696e73756666696369656e742062616c616e636500000060448201526064016102d5565b6000826001600160a01b03168260405160006040518083038185875af1925050503d8060008114611099576040519150601f19603f3d011682016040523d82523d6000602084013e61109e565b606091505b50509050806111155760405162461bcd60e51b815260206004820152603a60248201527f416464726573733a20756e61626c6520746f2073656e642076616c75652c207260448201527f6563697069656e74206d6179206861766520726576657274656400000000000060648201526084016102d5565b505050565b7f000000000000000000000000000000000000000000000000000000000000000061114460015490565b61114e904261178d565b101561115657565b6000611160610726565b90507f0000000000000000000000000000000000000000000000000000000000000000811061118c5750565b60006111b8827f000000000000000000000000000000000000000000000000000000000000000061178d565b90506111c2610ad9565b6001600160a01b03166379951f0f826040518263ffffffff1660e01b81526004016111ef91815260200190565b600060405180830381600087803b15801561120957600080fd5b505af115801561121d573d6000803e3d6000fd5b505050506112487f000000000000000000000000000000000000000000000000000000000000000090565b6001600160a01b0316632e1a7d4d826040518263ffffffff1660e01b815260040161127591815260200190565b600060405180830381600087803b15801561128f57600080fd5b505af11580156112a3573d6000803e3d6000fd5b505050506112ce7f000000000000000000000000000000000000000000000000000000000000000090565b60405163aa67c91960e01b81523060048201526001600160a01b03919091169063aa67c9199083906024016000604051808303818588803b15801561131257600080fd5b505af1158015611326573d6000803e3d6000fd5b50504260015550506040518281527f2a89b2e3d580398d6dc2db5e0f336b52602bbaa51afa9bb5cdf59239cf0d2bea915060200161099b565b600060248210156113e45760405162461bcd60e51b815260206004820152604360248201527f5f5f70617273655478446174614669727374506172616d65746572417341646460448201527f726573733a205f747844617461206973206e6f7420612076616c6964206c656e6064820152620cee8d60eb1b608482015260a4016102d5565b6113f26024600484866117ae565b8101906113ff9190611576565b9392505050565b60008083601f84011261141857600080fd5b50813567ffffffffffffffff81111561143057600080fd5b60208301915083602082850101111561144857600080fd5b9250929050565b6000806000806000806080878903121561146857600080fd5b863567ffffffffffffffff8082111561148057600080fd5b908801906040828b03121561149457600080fd5b909650602088013590808211156114aa57600080fd5b6114b68a838b01611406565b909750955060408901359150808211156114cf57600080fd5b506114dc89828a01611406565b979a9699509497949695606090950135949350505050565b6000815180845260005b8181101561151a576020818501810151868301820152016114fe565b506000602082860101526020601f19601f83011685010191505092915050565b60408152600061154d60408301856114f4565b905082151560208301529392505050565b6001600160a01b038116811461157357600080fd5b50565b60006020828403121561158857600080fd5b81356113ff8161155e565b801515811461157357600080fd5b6000806000806000608086880312156115b957600080fd5b853567ffffffffffffffff808211156115d157600080fd5b6115dd89838a01611406565b9097509550602088013591506115f282611593565b909350604087013592506060870135908082111561160f57600080fd5b508601610100818903121561162357600080fd5b809150509295509295909350565b6020815260006113ff60208301846114f4565b6000823560fe1983360301811261165a57600080fd5b9190910192915050565b6000823560de1983360301811261165a57600080fd5b60006020828403121561168c57600080fd5b81516113ff81611593565b6000808335601e198436030181126116ae57600080fd5b83018035915067ffffffffffffffff8211156116c957600080fd5b60200191503681900382131561144857600080fd5b6000602082840312156116f057600080fd5b5051919050565b60006020828403121561170957600080fd5b81516113ff8161155e565b60006020828403121561172657600080fd5b81356113ff81611593565b6000806040838503121561174457600080fd5b823561174f8161155e565b915060208301356001600160e01b03198116811461176c57600080fd5b809150509250929050565b634e487b7160e01b600052603260045260246000fd5b81810381811115610cee57634e487b7160e01b600052601160045260246000fd5b600080858511156117be57600080fd5b838611156117cb57600080fd5b505082019391909203915056fe322e322e332b6f70656e67736e2e656e7a796d6566756e642e697061796d6173746572","linkReferences":{}},"methodIdentifiers":{"deposit()":"d0e30db0","getGasAndDataLimits()":"b039a88f","getHubAddr()":"74e861d6","getLastDepositTimestamp()":"8f4698d2","getParentComptroller()":"ad5cb1cf","getParentVault()":"de866200","getRelayHubDeposit()":"2afe31c1","getWethToken()":"4c252f91","init(address)":"19ab453c","postRelayedCall(bytes,bool,uint256,(uint256,uint256,uint256,address,address,address,bytes,uint256))":"76fa01c3","preRelayedCall(((address,address,uint256,uint256,uint256,bytes,uint256),(uint256,uint256,uint256,address,address,address,bytes,uint256)),bytes,bytes,uint256)":"00be5dd4","trustedForwarder()":"7da0a877","versionPaymaster()":"921276ea","withdrawBalance()":"5fd8c710"},"id":167}