{"abi":[{"type":"constructor","inputs":[{"name":"_feeManager","type":"address","internalType":"address"}],"stateMutability":"nonpayable"},{"type":"function","name":"activateForFund","inputs":[{"name":"","type":"address","internalType":"address"},{"name":"","type":"address","internalType":"address"}],"outputs":[],"stateMutability":"nonpayable"},{"type":"function","name":"addFundSettings","inputs":[{"name":"_comptrollerProxy","type":"address","internalType":"address"},{"name":"_settingsData","type":"bytes","internalType":"bytes"}],"outputs":[],"stateMutability":"nonpayable"},{"type":"function","name":"getFeeManager","inputs":[],"outputs":[{"name":"feeManager_","type":"address","internalType":"address"}],"stateMutability":"view"},{"type":"function","name":"getInKindRateForFund","inputs":[{"name":"_comptrollerProxy","type":"address","internalType":"address"}],"outputs":[{"name":"rate_","type":"uint256","internalType":"uint256"}],"stateMutability":"view"},{"type":"function","name":"getRecipientForFund","inputs":[{"name":"_comptrollerProxy","type":"address","internalType":"address"}],"outputs":[{"name":"recipient_","type":"address","internalType":"address"}],"stateMutability":"view"},{"type":"function","name":"getSettlementType","inputs":[],"outputs":[{"name":"settlementType_","type":"uint8","internalType":"enum IFeeManager.SettlementType"}],"stateMutability":"view"},{"type":"function","name":"getSpecificAssetsRateForFund","inputs":[{"name":"_comptrollerProxy","type":"address","internalType":"address"}],"outputs":[{"name":"rate_","type":"uint256","internalType":"uint256"}],"stateMutability":"view"},{"type":"function","name":"payout","inputs":[{"name":"","type":"address","internalType":"address"},{"name":"","type":"address","internalType":"address"}],"outputs":[{"name":"","type":"bool","internalType":"bool"}],"stateMutability":"nonpayable"},{"type":"function","name":"setRecipientForFund","inputs":[{"name":"_comptrollerProxy","type":"address","internalType":"address"},{"name":"_recipient","type":"address","internalType":"address"}],"outputs":[],"stateMutability":"nonpayable"},{"type":"function","name":"settle","inputs":[{"name":"_comptrollerProxy","type":"address","internalType":"address"},{"name":"","type":"address","internalType":"address"},{"name":"","type":"uint8","internalType":"enum IFeeManager.FeeHook"},{"name":"_settlementData","type":"bytes","internalType":"bytes"},{"name":"","type":"uint256","internalType":"uint256"}],"outputs":[{"name":"settlementType_","type":"uint8","internalType":"enum IFeeManager.SettlementType"},{"name":"payer_","type":"address","internalType":"address"},{"name":"sharesDue_","type":"uint256","internalType":"uint256"}],"stateMutability":"nonpayable"},{"type":"function","name":"settlesOnHook","inputs":[{"name":"_hook","type":"uint8","internalType":"enum IFeeManager.FeeHook"}],"outputs":[{"name":"settles_","type":"bool","internalType":"bool"},{"name":"usesGav_","type":"bool","internalType":"bool"}],"stateMutability":"view"},{"type":"function","name":"update","inputs":[{"name":"","type":"address","internalType":"address"},{"name":"","type":"address","internalType":"address"},{"name":"","type":"uint8","internalType":"enum IFeeManager.FeeHook"},{"name":"","type":"bytes","internalType":"bytes"},{"name":"","type":"uint256","internalType":"uint256"}],"outputs":[],"stateMutability":"nonpayable"},{"type":"function","name":"updatesOnHook","inputs":[{"name":"","type":"uint8","internalType":"enum IFeeManager.FeeHook"}],"outputs":[{"name":"updates_","type":"bool","internalType":"bool"},{"name":"usesGav_","type":"bool","internalType":"bool"}],"stateMutability":"view"},{"type":"event","name":"FundSettingsAdded","inputs":[{"name":"comptrollerProxy","type":"address","indexed":true,"internalType":"address"},{"name":"inKindRate","type":"uint256","indexed":false,"internalType":"uint256"},{"name":"specificAssetsRate","type":"uint256","indexed":false,"internalType":"uint256"}],"anonymous":false},{"type":"event","name":"RecipientSetForFund","inputs":[{"name":"comptrollerProxy","type":"address","indexed":true,"internalType":"address"},{"name":"recipient","type":"address","indexed":true,"internalType":"address"}],"anonymous":false},{"type":"event","name":"Settled","inputs":[{"name":"comptrollerProxy","type":"address","indexed":true,"internalType":"address"},{"name":"payer","type":"address","indexed":true,"internalType":"address"},{"name":"sharesQuantity","type":"uint256","indexed":false,"internalType":"uint256"},{"name":"forSpecificAssets","type":"bool","indexed":true,"internalType":"bool"}],"anonymous":false}],"bytecode":{"object":"0x60c060405234801561001057600080fd5b506040516113f33803806113f38339818101604052602081101561003357600080fd5b8101908080519060200190929190505050806001818073ffffffffffffffffffffffffffffffffffffffff1660808173ffffffffffffffffffffffffffffffffffffffff1660601b81525050506003600581111561008d57fe5b81600581111561009957fe5b14806100bb5750600160058111156100ad57fe5b8160058111156100b957fe5b145b610110576040517f08c379a00000000000000000000000000000000000000000000000000000000081526004018080602001828103825260248152602001806113cf6024913960400191505060405180910390fd5b80600581111561011c57fe5b60a081600581111561012a57fe5b60f81b8152505050505060805160601c60a05160f81c611268610167600039806109f85250806107f95280610c265280610c4c52506112686000f3fe608060405234801561001057600080fd5b50600436106100cf5760003560e01c806362780b3c1161008c578063a8a0fa7d11610066578063a8a0fa7d14610557578063b78b4813146105af578063e337a91f14610629578063f2d6382614610679576100cf565b806362780b3c1461045c5780637bdd5b1d146104ca5780638c55f80f146104f3576100cf565b80630f5f6b4f146100d4578063223e65051461016d578063233faf5f146101c55780633146d05814610295578063320f0ddd146102f957806341892d7e14610349575b600080fd5b61016b600480360360408110156100ea57600080fd5b81019080803573ffffffffffffffffffffffffffffffffffffffff1690602001909291908035906020019064010000000081111561012757600080fd5b82018360208201111561013957600080fd5b8035906020019184600183028401116401000000008311171561015b57600080fd5b90919293919293905050506106ad565b005b6101af6004803603602081101561018357600080fd5b81019080803573ffffffffffffffffffffffffffffffffffffffff16906020019092919050505061074e565b6040518082815260200191505060405180910390f35b610293600480360360a08110156101db57600080fd5b81019080803573ffffffffffffffffffffffffffffffffffffffff169060200190929190803573ffffffffffffffffffffffffffffffffffffffff169060200190929190803560ff1690602001909291908035906020019064010000000081111561024557600080fd5b82018360208201111561025757600080fd5b8035906020019184600183028401116401000000008311171561027957600080fd5b9091929391929390803590602001909291905050506107ab565b005b6102f7600480360360408110156102ab57600080fd5b81019080803573ffffffffffffffffffffffffffffffffffffffff169060200190929190803573ffffffffffffffffffffffffffffffffffffffff1690602001909291905050506107b3565b005b6103286004803603602081101561030f57600080fd5b81019080803560ff1690602001909291905050506107b7565b60405180831515815260200182151581526020019250505060405180910390f35b610417600480360360a081101561035f57600080fd5b81019080803573ffffffffffffffffffffffffffffffffffffffff169060200190929190803573ffffffffffffffffffffffffffffffffffffffff169060200190929190803560ff169060200190929190803590602001906401000000008111156103c957600080fd5b8201836020820111156103db57600080fd5b803590602001918460018302840111640100000000831117156103fd57600080fd5b9091929391929390803590602001909291905050506107f2565b6040518084600581111561042757fe5b81526020018373ffffffffffffffffffffffffffffffffffffffff168152602001828152602001935050505060405180910390f35b61049e6004803603602081101561047257600080fd5b81019080803573ffffffffffffffffffffffffffffffffffffffff1690602001909291905050506109e2565b604051808273ffffffffffffffffffffffffffffffffffffffff16815260200191505060405180910390f35b6104d26109f4565b604051808260058111156104e257fe5b815260200191505060405180910390f35b6105556004803603604081101561050957600080fd5b81019080803573ffffffffffffffffffffffffffffffffffffffff169060200190929190803573ffffffffffffffffffffffffffffffffffffffff169060200190929190505050610a1c565b005b6105996004803603602081101561056d57600080fd5b81019080803573ffffffffffffffffffffffffffffffffffffffff169060200190929190505050610bae565b6040518082815260200191505060405180910390f35b610611600480360360408110156105c557600080fd5b81019080803573ffffffffffffffffffffffffffffffffffffffff169060200190929190803573ffffffffffffffffffffffffffffffffffffffff169060200190929190505050610c0b565b60405180821515815260200191505060405180910390f35b6106586004803603602081101561063f57600080fd5b81019080803560ff169060200190929190505050610c13565b60405180831515815260200182151581526020019250505060405180910390f35b610681610c22565b604051808273ffffffffffffffffffffffffffffffffffffffff16815260200191505060405180910390f35b6106b8838383610c4a565b6000828260608110156106ca57600080fd5b810190808035906020019092919080359060200190929190803573ffffffffffffffffffffffffffffffffffffffff16906020019092919050505092505050600073ffffffffffffffffffffffffffffffffffffffff168173ffffffffffffffffffffffffffffffffffffffff1614610748576107478482610eed565b5b50505050565b60008060008373ffffffffffffffffffffffffffffffffffffffff1673ffffffffffffffffffffffffffffffffffffffff16815260200190815260200160002060000160009054906101000a900461ffff1661ffff169050919050565b505050505050565b5050565b6000806003808111156107c657fe5b8360038111156107d257fe5b14156107e55760016000915091506107ed565b600080915091505b915091565b60008060007f000000000000000000000000000000000000000000000000000000000000000073ffffffffffffffffffffffffffffffffffffffff163373ffffffffffffffffffffffffffffffffffffffff161461089b576040517f08c379a00000000000000000000000000000000000000000000000000000000081526004018080602001828103825260258152602001806111b66025913960400191505060405180910390fd5b6000806108eb88888080601f016020809104026020016040519081016040528093929190818152602001838380828437600081840152601f19601f82011690508083019250505050505050610fc9565b8094508193508296505050506000821561090f576109088c610bae565b905061091b565b6109188c61074e565b90505b610942612710610934838561101590919063ffffffff16565b61109b90919063ffffffff16565b935060008414156109605760008060009550955095505050506109d6565b8215158573ffffffffffffffffffffffffffffffffffffffff168d73ffffffffffffffffffffffffffffffffffffffff167f3535fa1da8a29b0e085cee0bb81ac6587dd875222e0854b76f3ffa3c16ab1a7f876040518082815260200191505060405180910390a46109d06109f4565b95505050505b96509650969350505050565b60006109ed82611124565b9050919050565b60007f0000000000000000000000000000000000000000000000000000000000000000905090565b8173ffffffffffffffffffffffffffffffffffffffff1663c98091876040518163ffffffff1660e01b815260040160206040518083038186803b158015610a6257600080fd5b505afa158015610a76573d6000803e3d6000fd5b505050506040513d6020811015610a8c57600080fd5b810190808051906020019092919050505073ffffffffffffffffffffffffffffffffffffffff1663893d20e86040518163ffffffff1660e01b815260040160206040518083038186803b158015610ae257600080fd5b505afa158015610af6573d6000803e3d6000fd5b505050506040513d6020811015610b0c57600080fd5b810190808051906020019092919050505073ffffffffffffffffffffffffffffffffffffffff163373ffffffffffffffffffffffffffffffffffffffff1614610ba0576040517f08c379a000000000000000000000000000000000000000000000000000000000815260040180806020018281038252603081526020018061122c6030913960400191505060405180910390fd5b610baa8282610eed565b5050565b60008060008373ffffffffffffffffffffffffffffffffffffffff1673ffffffffffffffffffffffffffffffffffffffff16815260200190815260200160002060000160029054906101000a900461ffff1661ffff169050919050565b600092915050565b60008060008091509150915091565b60007f0000000000000000000000000000000000000000000000000000000000000000905090565b7f000000000000000000000000000000000000000000000000000000000000000073ffffffffffffffffffffffffffffffffffffffff163373ffffffffffffffffffffffffffffffffffffffff1614610cee576040517f08c379a00000000000000000000000000000000000000000000000000000000081526004018080602001828103825260258152602001806111b66025913960400191505060405180910390fd5b60008083836040811015610d0157600080fd5b81019080803561ffff169060200190929190803561ffff169060200190929190505050915091506127108261ffff1610610d86576040517f08c379a000000000000000000000000000000000000000000000000000000000815260040180806020018281038252602881526020018061118e6028913960400191505060405180910390fd5b6127108161ffff1610610de4576040517f08c379a00000000000000000000000000000000000000000000000000000000081526004018080602001828103825260308152602001806111db6030913960400191505060405180910390fd5b60405180604001604052808361ffff1681526020018261ffff168152506000808773ffffffffffffffffffffffffffffffffffffffff1673ffffffffffffffffffffffffffffffffffffffff16815260200190815260200160002060008201518160000160006101000a81548161ffff021916908361ffff16021790555060208201518160000160026101000a81548161ffff021916908361ffff1602179055509050508473ffffffffffffffffffffffffffffffffffffffff167f9f856f74192181b265e61298e386477299c53e0cb24be55a84416f2af4ba4a618383604051808361ffff1681526020018261ffff1681526020019250505060405180910390a25050505050565b80600160008473ffffffffffffffffffffffffffffffffffffffff1673ffffffffffffffffffffffffffffffffffffffff16815260200190815260200160002060006101000a81548173ffffffffffffffffffffffffffffffffffffffff021916908373ffffffffffffffffffffffffffffffffffffffff1602179055508073ffffffffffffffffffffffffffffffffffffffff168273ffffffffffffffffffffffffffffffffffffffff167fa11fc98cfb391622348acc16de92f0efb77d55f71a6e9fa18bfef387ae8d19ce60405160405180910390a35050565b6000806000838060200190516060811015610fe357600080fd5b810190808051906020019092919080519060200190929190805190602001909291905050509250925092509193909250565b6000808314156110285760009050611095565b600082840290508284828161103957fe5b0414611090576040517f08c379a000000000000000000000000000000000000000000000000000000000815260040180806020018281038252602181526020018061120b6021913960400191505060405180910390fd5b809150505b92915050565b6000808211611112576040517f08c379a000000000000000000000000000000000000000000000000000000000815260040180806020018281038252601a8152602001807f536166654d6174683a206469766973696f6e206279207a65726f00000000000081525060200191505060405180910390fd5b81838161111b57fe5b04905092915050565b6000600160008373ffffffffffffffffffffffffffffffffffffffff1673ffffffffffffffffffffffffffffffffffffffff16815260200190815260200160002060009054906101000a900473ffffffffffffffffffffffffffffffffffffffff16905091905056fe61646446756e6453657474696e67733a20696e4b696e6452617465206d61782065786365656465644f6e6c7920746865204665654d616e6765722063616e206d616b6520746869732063616c6c61646446756e6453657474696e67733a20737065636966696341737365747352617465206d6178206578636565646564536166654d6174683a206d756c7469706c69636174696f6e206f766572666c6f775f5f736574526563697069656e74466f7246756e643a204f6e6c79207661756c74206f776e65722063616c6c61626c65a164736f6c634300060c000a636f6e7374727563746f723a20496e76616c6964205f736574746c656d656e7454797065","linkReferences":{}},"methodIdentifiers":{"activateForFund(address,address)":"3146d058","addFundSettings(address,bytes)":"0f5f6b4f","getFeeManager()":"f2d63826","getInKindRateForFund(address)":"223e6505","getRecipientForFund(address)":"62780b3c","getSettlementType()":"7bdd5b1d","getSpecificAssetsRateForFund(address)":"a8a0fa7d","payout(address,address)":"b78b4813","setRecipientForFund(address,address)":"8c55f80f","settle(address,address,uint8,bytes,uint256)":"41892d7e","settlesOnHook(uint8)":"320f0ddd","update(address,address,uint8,bytes,uint256)":"233faf5f","updatesOnHook(uint8)":"e337a91f"},"id":194}