{"abi":[{"type":"constructor","inputs":[{"name":"_addressListRegistryAddress","type":"address","internalType":"address"},{"name":"_allowedExchangesListId","type":"uint256","internalType":"uint256"},{"name":"_wrappedNativeAsset","type":"address","internalType":"contract IWETH"}],"stateMutability":"nonpayable"},{"type":"receive","stateMutability":"payable"},{"type":"function","name":"exchangeErc20AndBuyShares","inputs":[{"name":"_comptrollerProxy","type":"address","internalType":"contract IComptroller"},{"name":"_minSharesQuantity","type":"uint256","internalType":"uint256"},{"name":"_inputAsset","type":"address","internalType":"contract ERC20"},{"name":"_maxInputAssetAmount","type":"uint256","internalType":"uint256"},{"name":"_exchange","type":"address","internalType":"address"},{"name":"_exchangeApproveTarget","type":"address","internalType":"address"},{"name":"_exchangeData","type":"bytes","internalType":"bytes"},{"name":"_exchangeMinReceived","type":"uint256","internalType":"uint256"}],"outputs":[{"name":"sharesReceived_","type":"uint256","internalType":"uint256"}],"stateMutability":"nonpayable"},{"type":"function","name":"exchangeEthAndBuyShares","inputs":[{"name":"_comptrollerProxy","type":"address","internalType":"contract IComptroller"},{"name":"_minSharesQuantity","type":"uint256","internalType":"uint256"},{"name":"_exchange","type":"address","internalType":"address"},{"name":"_exchangeApproveTarget","type":"address","internalType":"address"},{"name":"_exchangeData","type":"bytes","internalType":"bytes"},{"name":"_exchangeMinReceived","type":"uint256","internalType":"uint256"}],"outputs":[{"name":"sharesReceived_","type":"uint256","internalType":"uint256"}],"stateMutability":"payable"}],"bytecode":{"object":"0x60e06040523480156200001157600080fd5b5060405162001292380380620012928339810160408190526200003491620000c5565b6001600160a01b0392831660805260a0919091521660c0526200011d565b60006001600160a01b0382165b92915050565b620000708162000052565b81146200007c57600080fd5b50565b80516200005f8162000065565b8062000070565b80516200005f816200008c565b60006200005f8262000052565b6200007081620000a0565b80516200005f81620000ad565b600080600060608486031215620000df57620000df600080fd5b6000620000ed86866200007f565b9350506020620001008682870162000093565b92505060406200011386828701620000b8565b9150509250925092565b60805160a05160c051611139620001596000396000818160870152818160af01526101e8015260006103fc015260006103cf01526111396000f3fe60806040526004361061002d5760003560e01c80639a98f01b14610039578063c9560f3f1461006257600080fd5b3661003457005b600080fd5b61004c610047366004610b21565b610082565b6040516100599190610bd4565b60405180910390f35b34801561006e57600080fd5b5061004c61007d366004610be2565b610268565b6000807f0000000000000000000000000000000000000000000000000000000000000000905060003490507f00000000000000000000000000000000000000000000000000000000000000006001600160a01b031663d0e30db0826040518263ffffffff1660e01b81526004016000604051808303818588803b15801561010857600080fd5b505af115801561011c573d6000803e3d6000fd5b5050506001600160a01b038a16915061014790505761013e8a33838c8661032b565b9250505061025d565b6101588a8a8a8a8a8a8a89896103b5565b92506000826001600160a01b03166370a08231306040518263ffffffff1660e01b81526004016101889190610cbd565b602060405180830381865afa1580156101a5573d6000803e3d6000fd5b505050506040513d601f19601f820116820180604052508101906101c99190610cd6565b9050801561025957604051632e1a7d4d60e01b81526001600160a01b037f00000000000000000000000000000000000000000000000000000000000000001690632e1a7d4d9061021d908490600401610bd4565b600060405180830381600087803b15801561023757600080fd5b505af115801561024b573d6000803e3d6000fd5b5050505061025933826105ec565b5050505b979650505050505050565b600061027f6001600160a01b03891633308a61068d565b6102908a8a88888888888f8f6103b5565b90506000886001600160a01b03166370a08231306040518263ffffffff1660e01b81526004016102c09190610cbd565b602060405180830381865afa1580156102dd573d6000803e3d6000fd5b505050506040513d601f19601f820116820180604052508101906103019190610cd6565b9050801561031d5761031d6001600160a01b038a1633836106eb565b509998505050505050505050565b600061033882878661070a565b6040516321dff62560e21b81526001600160a01b0387169063877fd8949061036890889088908890600401610cf7565b6020604051808303816000875af1158015610387573d6000803e3d6000fd5b505050506040513d601f19601f820116820180604052508101906103ab9190610cd6565b9695505050505050565b6040516307158c8160e21b81526000906001600160a01b037f00000000000000000000000000000000000000000000000000000000000000001690631c56320490610426907f0000000000000000000000000000000000000000000000000000000000000000908c90600401610d1f565b602060405180830381865afa158015610443573d6000803e3d6000fd5b505050506040513d601f19601f820116820180604052508101906104679190610d4d565b61048c5760405162461bcd60e51b815260040161048390610db9565b60405180910390fd5b61049783888461070a565b6104d78887878080601f0160208091040260200160405190810160405280939291908181526020018383808284376000920191909152506107b792505050565b5060008a6001600160a01b031663e269c3d66040518163ffffffff1660e01b8152600401602060405180830381865afa158015610518573d6000803e3d6000fd5b505050506040513d601f19601f8201168201806040525081019061053c9190610dd4565b90506000816001600160a01b03166370a08231306040518263ffffffff1660e01b815260040161056c9190610cbd565b602060405180830381865afa158015610589573d6000803e3d6000fd5b505050506040513d601f19601f820116820180604052508101906105ad9190610cd6565b9050858110156105cf5760405162461bcd60e51b815260040161048390610e46565b6105dc8c33838e8661032b565b9c9b505050505050505050505050565b8047101561060c5760405162461bcd60e51b815260040161048390610e8d565b6000826001600160a01b03168260405161062590610e9d565b60006040518083038185875af1925050503d8060008114610662576040519150601f19603f3d011682016040523d82523d6000602084013e610667565b606091505b50509050806106885760405162461bcd60e51b815260040161048390610eff565b505050565b6106e5846323b872dd60e01b8585856040516024016106ae93929190610f0f565b60408051601f198184030181529190526020810180516001600160e01b03166001600160e01b031990931692909217909152610804565b50505050565b6106888363a9059cbb60e01b84846040516024016106ae929190610f2a565b604051636eb1769f60e11b81526000906001600160a01b0385169063dd62ed3e9061073b9030908790600401610f45565b602060405180830381865afa158015610758573d6000803e3d6000fd5b505050506040513d601f19601f8201168201806040525081019061077c9190610cd6565b9050818110156106e55780156107a1576107a16001600160a01b038516846000610893565b6106e56001600160a01b03851684600019610893565b60606107fb838360006040518060400160405280601e81526020017f416464726573733a206c6f772d6c6576656c2063616c6c206661696c65640000815250610947565b90505b92915050565b6000610859826040518060400160405280602081526020017f5361666545524332303a206c6f772d6c6576656c2063616c6c206661696c6564815250856001600160a01b03166109e59092919063ffffffff16565b80519091501561068857808060200190518101906108779190610d4d565b6106885760405162461bcd60e51b815260040161048390610f9a565b80158061090c5750604051636eb1769f60e11b81526001600160a01b0384169063dd62ed3e906108c99030908690600401610f45565b602060405180830381865afa1580156108e6573d6000803e3d6000fd5b505050506040513d601f19601f8201168201806040525081019061090a9190610cd6565b155b6109285760405162461bcd60e51b815260040161048390610ffd565b6106888363095ea7b360e01b84846040516024016106ae929190610f2a565b6060824710156109695760405162461bcd60e51b815260040161048390611050565b600080866001600160a01b0316858760405161098591906110a6565b60006040518083038185875af1925050503d80600081146109c2576040519150601f19603f3d011682016040523d82523d6000602084013e6109c7565b606091505b50915091506109d8878383876109fe565b925050505b949350505050565b60606109f48484600085610947565b90505b9392505050565b60608315610a3d578251600003610a36576001600160a01b0385163b610a365760405162461bcd60e51b8152600401610483906110e6565b50816109dd565b6109dd8383815115610a525781518083602001fd5b8060405162461bcd60e51b81526004016104839190611128565b60006001600160a01b0382166107fe565b60006107fe82610a6c565b610a9181610a7d565b8114610a9c57600080fd5b50565b80356107fe81610a88565b80610a91565b80356107fe81610aaa565b610a9181610a6c565b80356107fe81610abb565b60008083601f840112610ae457610ae4600080fd5b50813567ffffffffffffffff811115610aff57610aff600080fd5b602083019150836001820283011115610b1a57610b1a600080fd5b9250929050565b600080600080600080600060c0888a031215610b3f57610b3f600080fd5b6000610b4b8a8a610a9f565b9750506020610b5c8a828b01610ab0565b9650506040610b6d8a828b01610ac4565b9550506060610b7e8a828b01610ac4565b945050608088013567ffffffffffffffff811115610b9e57610b9e600080fd5b610baa8a828b01610acf565b935093505060a0610bbd8a828b01610ab0565b91505092959891949750929550565b805b82525050565b602081016107fe8284610bcc565b60008060008060008060008060006101008a8c031215610c0457610c04600080fd5b6000610c108c8c610a9f565b9950506020610c218c828d01610ab0565b9850506040610c328c828d01610a9f565b9750506060610c438c828d01610ab0565b9650506080610c548c828d01610ac4565b95505060a0610c658c828d01610ac4565b94505060c08a013567ffffffffffffffff811115610c8557610c85600080fd5b610c918c828d01610acf565b935093505060e0610ca48c828d01610ab0565b9150509295985092959850929598565b610bce81610a6c565b602081016107fe8284610cb4565b80516107fe81610aaa565b600060208284031215610ceb57610ceb600080fd5b60006109dd8484610ccb565b60608101610d058286610cb4565b610d126020830185610bcc565b6109dd6040830184610bcc565b60408101610d2d8285610bcc565b6109f76020830184610cb4565b801515610a91565b80516107fe81610d3a565b600060208284031215610d6257610d62600080fd5b60006109dd8484610d42565b602b81526000602082017f5f5f65786368616e6765416e644275795368617265733a20556e616c6c6f776581526a64205f65786368616e676560a81b602082015291505b5060400190565b602080825281016107fe81610d6e565b80516107fe81610abb565b600060208284031215610de957610de9600080fd5b60006109dd8484610dc9565b603481526000602082017f5f5f65786368616e6765416e644275795368617265733a205f65786368616e6781527319535a5b949958d95a5d9959081b9bdd081b595d60621b60208201529150610db2565b602080825281016107fe81610df5565b601d81526000602082017f416464726573733a20696e73756666696369656e742062616c616e6365000000815291505b5060200190565b602080825281016107fe81610e56565b6000816107fe565b603a81526000602082017f416464726573733a20756e61626c6520746f2073656e642076616c75652c207281527f6563697069656e74206d6179206861766520726576657274656400000000000060208201529150610db2565b602080825281016107fe81610ea5565b60608101610f1d8286610cb4565b610d126020830185610cb4565b60408101610f388285610cb4565b6109f76020830184610bcc565b60408101610d2d8285610cb4565b602a81526000602082017f5361666545524332303a204552433230206f7065726174696f6e20646964206e8152691bdd081cdd58d8d9595960b21b60208201529150610db2565b602080825281016107fe81610f53565b603681526000602082017f5361666545524332303a20617070726f76652066726f6d206e6f6e2d7a65726f81527520746f206e6f6e2d7a65726f20616c6c6f77616e636560501b60208201529150610db2565b602080825281016107fe81610faa565b602681526000602082017f416464726573733a20696e73756666696369656e742062616c616e636520666f8152651c8818d85b1b60d21b60208201529150610db2565b602080825281016107fe8161100d565b60005b8381101561107b578181015183820152602001611063565b50506000910152565b600061108e825190565b61109c818560208601611060565b9290920192915050565b60006109f78284611084565b601d81526000602082017f416464726573733a2063616c6c20746f206e6f6e2d636f6e747261637400000081529150610e86565b602080825281016107fe816110b2565b6000611100825190565b808452602084019350611117818560208601611060565b601f01601f19169290920192915050565b602080825281016107fb81846110f656","linkReferences":{}},"methodIdentifiers":{"exchangeErc20AndBuyShares(address,uint256,address,uint256,address,address,bytes,uint256)":"c9560f3f","exchangeEthAndBuyShares(address,uint256,address,address,bytes,uint256)":"9a98f01b"},"id":84}