{"abi":[{"type":"constructor","inputs":[{"name":"_integrationManager","type":"address","internalType":"address"},{"name":"_yearnVaultV2PriceFeed","type":"address","internalType":"address"}],"stateMutability":"nonpayable"},{"type":"function","name":"CLAIM_REWARDS_SELECTOR","inputs":[],"outputs":[{"name":"","type":"bytes4","internalType":"bytes4"}],"stateMutability":"view"},{"type":"function","name":"LEND_AND_STAKE_SELECTOR","inputs":[],"outputs":[{"name":"","type":"bytes4","internalType":"bytes4"}],"stateMutability":"view"},{"type":"function","name":"LEND_SELECTOR","inputs":[],"outputs":[{"name":"","type":"bytes4","internalType":"bytes4"}],"stateMutability":"view"},{"type":"function","name":"REDEEM_SELECTOR","inputs":[],"outputs":[{"name":"","type":"bytes4","internalType":"bytes4"}],"stateMutability":"view"},{"type":"function","name":"STAKE_SELECTOR","inputs":[],"outputs":[{"name":"","type":"bytes4","internalType":"bytes4"}],"stateMutability":"view"},{"type":"function","name":"TAKE_MULTIPLE_ORDERS_SELECTOR","inputs":[],"outputs":[{"name":"","type":"bytes4","internalType":"bytes4"}],"stateMutability":"view"},{"type":"function","name":"TAKE_ORDER_SELECTOR","inputs":[],"outputs":[{"name":"","type":"bytes4","internalType":"bytes4"}],"stateMutability":"view"},{"type":"function","name":"UNSTAKE_AND_REDEEM_SELECTOR","inputs":[],"outputs":[{"name":"","type":"bytes4","internalType":"bytes4"}],"stateMutability":"view"},{"type":"function","name":"UNSTAKE_SELECTOR","inputs":[],"outputs":[{"name":"","type":"bytes4","internalType":"bytes4"}],"stateMutability":"view"},{"type":"function","name":"getIntegrationManager","inputs":[],"outputs":[{"name":"integrationManager_","type":"address","internalType":"address"}],"stateMutability":"view"},{"type":"function","name":"getYearnVaultV2PriceFeed","inputs":[],"outputs":[{"name":"yearnVaultV2PriceFeed_","type":"address","internalType":"address"}],"stateMutability":"view"},{"type":"function","name":"lend","inputs":[{"name":"_vaultProxy","type":"address","internalType":"address"},{"name":"","type":"bytes","internalType":"bytes"},{"name":"_assetData","type":"bytes","internalType":"bytes"}],"outputs":[],"stateMutability":"nonpayable"},{"type":"function","name":"parseAssetsForAction","inputs":[{"name":"","type":"address","internalType":"address"},{"name":"_selector","type":"bytes4","internalType":"bytes4"},{"name":"_actionData","type":"bytes","internalType":"bytes"}],"outputs":[{"name":"spendAssetsHandleType_","type":"uint8","internalType":"enum IIntegrationManager.SpendAssetsHandleType"},{"name":"spendAssets_","type":"address[]","internalType":"address[]"},{"name":"spendAssetAmounts_","type":"uint256[]","internalType":"uint256[]"},{"name":"incomingAssets_","type":"address[]","internalType":"address[]"},{"name":"minIncomingAssetAmounts_","type":"uint256[]","internalType":"uint256[]"}],"stateMutability":"view"},{"type":"function","name":"redeem","inputs":[{"name":"_vaultProxy","type":"address","internalType":"address"},{"name":"_actionData","type":"bytes","internalType":"bytes"},{"name":"_assetData","type":"bytes","internalType":"bytes"}],"outputs":[],"stateMutability":"nonpayable"}],"bytecode":{"object":"0x60c060405234801561001057600080fd5b506040516123223803806123228339818101604052604081101561003357600080fd5b810190808051906020019092919080519060200190929190505050818073ffffffffffffffffffffffffffffffffffffffff1660808173ffffffffffffffffffffffffffffffffffffffff1660601b81525050508073ffffffffffffffffffffffffffffffffffffffff1660a08173ffffffffffffffffffffffffffffffffffffffff1660601b81525050505060805160601c60a05160601c61222f6100f360003980610d2e52508061077f5280610a085280610d06525061222f6000f3fe608060405234801561001057600080fd5b50600436106100ea5760003560e01c8063b23228cf1161008c578063c54efee511610066578063c54efee5146104b3578063e7c45690146106b4578063f702e0ea146106e8578063f7d882b51461071c576100ea565b8063b23228cf1461034b578063c29fa9dd14610388578063c32990a214610476576100ea565b8063257cb1a3116100c8578063257cb1a3146102575780633ffc15911461029457806340da225d146102d1578063863e5ad01461030e576100ea565b8063080456c1146100ef578063099f75151461012c578063131461c01461021a575b600080fd5b6100f7610759565b60405180827bffffffffffffffffffffffffffffffffffffffffffffffffffffffff1916815260200191505060405180910390f35b6102186004803603606081101561014257600080fd5b81019080803573ffffffffffffffffffffffffffffffffffffffff1690602001909291908035906020019064010000000081111561017f57600080fd5b82018360208201111561019157600080fd5b803590602001918460018302840111640100000000831117156101b357600080fd5b9091929391929390803590602001906401000000008111156101d457600080fd5b8201836020820111156101e657600080fd5b8035906020019184600183028401116401000000008311171561020857600080fd5b909192939192939050505061077d565b005b61022261092e565b60405180827bffffffffffffffffffffffffffffffffffffffffffffffffffffffff1916815260200191505060405180910390f35b61025f610952565b60405180827bffffffffffffffffffffffffffffffffffffffffffffffffffffffff1916815260200191505060405180910390f35b61029c610976565b60405180827bffffffffffffffffffffffffffffffffffffffffffffffffffffffff1916815260200191505060405180910390f35b6102d961099a565b60405180827bffffffffffffffffffffffffffffffffffffffffffffffffffffffff1916815260200191505060405180910390f35b6103166109be565b60405180827bffffffffffffffffffffffffffffffffffffffffffffffffffffffff1916815260200191505060405180910390f35b6103536109e2565b60405180827bffffffffffffffffffffffffffffffffffffffffffffffffffffffff1916815260200191505060405180910390f35b6104746004803603606081101561039e57600080fd5b81019080803573ffffffffffffffffffffffffffffffffffffffff169060200190929190803590602001906401000000008111156103db57600080fd5b8201836020820111156103ed57600080fd5b8035906020019184600183028401116401000000008311171561040f57600080fd5b90919293919293908035906020019064010000000081111561043057600080fd5b82018360208201111561044257600080fd5b8035906020019184600183028401116401000000008311171561046457600080fd5b9091929391929390505050610a06565b005b61047e610b7c565b60405180827bffffffffffffffffffffffffffffffffffffffffffffffffffffffff1916815260200191505060405180910390f35b610573600480360360608110156104c957600080fd5b81019080803573ffffffffffffffffffffffffffffffffffffffff16906020019092919080357bffffffffffffffffffffffffffffffffffffffffffffffffffffffff191690602001909291908035906020019064010000000081111561052f57600080fd5b82018360208201111561054157600080fd5b8035906020019184600183028401116401000000008311171561056357600080fd5b9091929391929390505050610ba0565b6040518086600281111561058357fe5b815260200180602001806020018060200180602001858103855289818151815260200191508051906020019060200280838360005b838110156105d35780820151818401526020810190506105b8565b50505050905001858103845288818151815260200191508051906020019060200280838360005b838110156106155780820151818401526020810190506105fa565b50505050905001858103835287818151815260200191508051906020019060200280838360005b8381101561065757808201518184015260208101905061063c565b50505050905001858103825286818151815260200191508051906020019060200280838360005b8381101561069957808201518184015260208101905061067e565b50505050905001995050505050505050505060405180910390f35b6106bc610d02565b604051808273ffffffffffffffffffffffffffffffffffffffff16815260200191505060405180910390f35b6106f0610d2a565b604051808273ffffffffffffffffffffffffffffffffffffffff16815260200191505060405180910390f35b610724610d52565b60405180827bffffffffffffffffffffffffffffffffffffffffffffffffffffffff1916815260200191505060405180910390f35b7f8334eb99be0145865eba9889fca2ee920288090caefff4cc776038e20ad9259a81565b7f000000000000000000000000000000000000000000000000000000000000000073ffffffffffffffffffffffffffffffffffffffff163373ffffffffffffffffffffffffffffffffffffffff1614610821576040517f08c379a00000000000000000000000000000000000000000000000000000000081526004018080602001828103825260328152602001806121426032913960400191505060405180910390fd5b8482828080601f016020809104026020016040519081016040528093929190818152602001838380828437600081840152601f19601f8201169050808301925050505050505060608060606108b987878080601f016020809104026020016040519081016040528093929190818152602001838380828437600081840152601f19601f82011690508083019250505050505050610d76565b9250925092506109078a826000815181106108d057fe5b6020026020010151856000815181106108e557fe5b6020026020010151856000815181106108fa57fe5b6020026020010151610f5a565b505050606061091582610d76565b505090506109238382611018565b505050505050505050565b7f29fa046e79524c3c5ac4c01df692c35e217802b2b13b21121b76cf0ef02b138c81565b7f099f75155f0e997bf83a7993a71d5e7e7540bd386fe1e84643a09ce6b412521981565b7ffa7dd04da627f433da73c4355ead9c75682a67a8fc84d3f6170ef0922f402d2481565b7fb9dfbaccbe5cd2a84fdcf1d15f23ef25d23086f5afbaa99516065ed4a5bbc7a381565b7f03e38a2bd7063d45c897edeafc330e71657502dd86434d3c37a489caf116af6981565b7f68e30677f607df46e87da13e15b637784cfa62374b653f35ab43d10361a2f83081565b7f000000000000000000000000000000000000000000000000000000000000000073ffffffffffffffffffffffffffffffffffffffff163373ffffffffffffffffffffffffffffffffffffffff1614610aaa576040517f08c379a00000000000000000000000000000000000000000000000000000000081526004018080602001828103825260328152602001806121426032913960400191505060405180910390fd5b8482828080601f016020809104026020016040519081016040528093929190818152602001838380828437600081840152601f19601f820116905080830192505050505050506000806000610b4289898080601f016020809104026020016040519081016040528093929190818152602001838380828437600081840152601f19601f820116905080830192505050505050506111b2565b93505092509250610b558a84848461120b565b5050506060610b6382610d76565b50509050610b718382611018565b505050505050505050565b7f0e7f692dad5b88fdee426250d6eae91207e56a2e8112b7364579bed1790e5bf481565b60006060806060807f099f75155f0e997bf83a7993a71d5e7e7540bd386fe1e84643a09ce6b41252197bffffffffffffffffffffffffffffffffffffffffffffffffffffffff1916887bffffffffffffffffffffffffffffffffffffffffffffffffffffffff19161415610c2757610c1887876112c6565b94509450945094509450610cf7565b7fc29fa9dde84204c2908778afd0613d802d31cf046179b88f6d2b4a4e507ea2d57bffffffffffffffffffffffffffffffffffffffffffffffffffffffff1916887bffffffffffffffffffffffffffffffffffffffffffffffffffffffff19161415610ca657610c9787876115b7565b94509450945094509450610cf7565b6040517f08c379a00000000000000000000000000000000000000000000000000000000081526004018080602001828103825260278152602001806121fc6027913960400191505060405180910390fd5b945094509450945094565b60007f0000000000000000000000000000000000000000000000000000000000000000905090565b60007f0000000000000000000000000000000000000000000000000000000000000000905090565b7fc29fa9dde84204c2908778afd0613d802d31cf046179b88f6d2b4a4e507ea2d581565b6060806060838060200190516060811015610d9057600080fd5b8101908080516040519392919084640100000000821115610db057600080fd5b83820191506020820185811115610dc657600080fd5b8251866020820283011164010000000082111715610de357600080fd5b8083526020830192505050908051906020019060200280838360005b83811015610e1a578082015181840152602081019050610dff565b5050505090500160405260200180516040519392919084640100000000821115610e4357600080fd5b83820191506020820185811115610e5957600080fd5b8251866020820283011164010000000082111715610e7657600080fd5b8083526020830192505050908051906020019060200280838360005b83811015610ead578082015181840152602081019050610e92565b5050505090500160405260200180516040519392919084640100000000821115610ed657600080fd5b83820191506020820185811115610eec57600080fd5b8251866020820283011164010000000082111715610f0957600080fd5b8083526020830192505050908051906020019060200280838360005b83811015610f40578082015181840152602081019050610f25565b505050509050016040525050509250925092509193909250565b610f658284836118a9565b8273ffffffffffffffffffffffffffffffffffffffff16636e553f6582866040518363ffffffff1660e01b8152600401808381526020018273ffffffffffffffffffffffffffffffffffffffff16815260200192505050602060405180830381600087803b158015610fd657600080fd5b505af1158015610fea573d6000803e3d6000fd5b505050506040513d602081101561100057600080fd5b81019080805190602001909291905050505050505050565b6060815167ffffffffffffffff8111801561103257600080fd5b506040519080825280602002602001820160405280156110615781602001602082028036833780820191505090505b50905060005b82518110156111ab57600083828151811061107e57fe5b602002602001015190508073ffffffffffffffffffffffffffffffffffffffff166370a08231306040518263ffffffff1660e01b8152600401808273ffffffffffffffffffffffffffffffffffffffff16815260200191505060206040518083038186803b1580156110ef57600080fd5b505afa158015611103573d6000803e3d6000fd5b505050506040513d602081101561111957600080fd5b810190808051906020019092919050505083838151811061113657fe5b602002602001018181525050600083838151811061115057fe5b6020026020010151111561119d5761119c8584848151811061116e57fe5b60200260200101518373ffffffffffffffffffffffffffffffffffffffff166119fd9092919063ffffffff16565b5b508080600101915050611067565b5092915050565b6000806000808480602001905160808110156111cd57600080fd5b810190808051906020019092919080519060200190929190805190602001909291908051906020019092919050505093509350935093509193509193565b8273ffffffffffffffffffffffffffffffffffffffff1663e63697c88386846040518463ffffffff1660e01b8152600401808481526020018373ffffffffffffffffffffffffffffffffffffffff1681526020018281526020019350505050602060405180830381600087803b15801561128457600080fd5b505af1158015611298573d6000803e3d6000fd5b505050506040513d60208110156112ae57600080fd5b81019080805190602001909291905050505050505050565b600060608060608060008060006113208a8a8080601f016020809104026020016040519081016040528093929190818152602001838380828437600081840152601f19601f82011690508083019250505050505050611a9f565b925092509250600061133184611aeb565b9050600073ffffffffffffffffffffffffffffffffffffffff168173ffffffffffffffffffffffffffffffffffffffff1614156113b9576040517f08c379a00000000000000000000000000000000000000000000000000000000081526004018080602001828103825260288152602001806121746028913960400191505060405180910390fd5b600167ffffffffffffffff811180156113d157600080fd5b506040519080825280602002602001820160405280156114005781602001602082028036833780820191505090505b509750808860008151811061141157fe5b602002602001019073ffffffffffffffffffffffffffffffffffffffff16908173ffffffffffffffffffffffffffffffffffffffff1681525050600167ffffffffffffffff8111801561146357600080fd5b506040519080825280602002602001820160405280156114925781602001602082028036833780820191505090505b50965082876000815181106114a357fe5b602002602001018181525050600167ffffffffffffffff811180156114c757600080fd5b506040519080825280602002602001820160405280156114f65781602001602082028036833780820191505090505b509550838660008151811061150757fe5b602002602001019073ffffffffffffffffffffffffffffffffffffffff16908173ffffffffffffffffffffffffffffffffffffffff1681525050600167ffffffffffffffff8111801561155957600080fd5b506040519080825280602002602001820160405280156115885781602001602082028036833780820191505090505b509450818560008151811061159957fe5b60200260200101818152505060029850505050509295509295909350565b600060608060608060008060006116118a8a8080601f016020809104026020016040519081016040528093929190818152602001838380828437600081840152601f19601f820116905080830192505050505050506111b2565b50925092509250600061162384611aeb565b9050600073ffffffffffffffffffffffffffffffffffffffff168173ffffffffffffffffffffffffffffffffffffffff1614156116ab576040517f08c379a000000000000000000000000000000000000000000000000000000000815260040180806020018281038252602a8152602001806120f2602a913960400191505060405180910390fd5b600167ffffffffffffffff811180156116c357600080fd5b506040519080825280602002602001820160405280156116f25781602001602082028036833780820191505090505b509750838860008151811061170357fe5b602002602001019073ffffffffffffffffffffffffffffffffffffffff16908173ffffffffffffffffffffffffffffffffffffffff1681525050600167ffffffffffffffff8111801561175557600080fd5b506040519080825280602002602001820160405280156117845781602001602082028036833780820191505090505b509650828760008151811061179557fe5b602002602001018181525050600167ffffffffffffffff811180156117b957600080fd5b506040519080825280602002602001820160405280156117e85781602001602082028036833780820191505090505b50955080866000815181106117f957fe5b602002602001019073ffffffffffffffffffffffffffffffffffffffff16908173ffffffffffffffffffffffffffffffffffffffff1681525050600167ffffffffffffffff8111801561184b57600080fd5b5060405190808252806020026020018201604052801561187a5781602001602082028036833780820191505090505b509450818560008151811061188b57fe5b60200260200101818152505060029850505050509295509295909350565b60008373ffffffffffffffffffffffffffffffffffffffff1663dd62ed3e30856040518363ffffffff1660e01b8152600401808373ffffffffffffffffffffffffffffffffffffffff1681526020018273ffffffffffffffffffffffffffffffffffffffff1681526020019250505060206040518083038186803b15801561193057600080fd5b505afa158015611944573d6000803e3d6000fd5b505050506040513d602081101561195a57600080fd5b81019080805190602001909291905050509050818110156119f75760008111156119ab576119aa8360008673ffffffffffffffffffffffffffffffffffffffff16611b9d9092919063ffffffff16565b5b6119f6837fffffffffffffffffffffffffffffffffffffffffffffffffffffffffffffffff8673ffffffffffffffffffffffffffffffffffffffff16611b9d9092919063ffffffff16565b5b50505050565b611a9a8363a9059cbb60e01b8484604051602401808373ffffffffffffffffffffffffffffffffffffffff16815260200182815260200192505050604051602081830303815290604052907bffffffffffffffffffffffffffffffffffffffffffffffffffffffff19166020820180517bffffffffffffffffffffffffffffffffffffffffffffffffffffffff8381831617835250505050611d62565b505050565b6000806000838060200190516060811015611ab957600080fd5b810190808051906020019092919080519060200190929190805190602001909291905050509250925092509193909250565b6000611af5610d2a565b73ffffffffffffffffffffffffffffffffffffffff166366adb867836040518263ffffffff1660e01b8152600401808273ffffffffffffffffffffffffffffffffffffffff16815260200191505060206040518083038186803b158015611b5b57600080fd5b505afa158015611b6f573d6000803e3d6000fd5b505050506040513d6020811015611b8557600080fd5b81019080805190602001909291905050509050919050565b6000811480611c6b575060008373ffffffffffffffffffffffffffffffffffffffff1663dd62ed3e30856040518363ffffffff1660e01b8152600401808373ffffffffffffffffffffffffffffffffffffffff1681526020018273ffffffffffffffffffffffffffffffffffffffff1681526020019250505060206040518083038186803b158015611c2e57600080fd5b505afa158015611c42573d6000803e3d6000fd5b505050506040513d6020811015611c5857600080fd5b8101908080519060200190929190505050145b611cc0576040517f08c379a00000000000000000000000000000000000000000000000000000000081526004018080602001828103825260368152602001806121c66036913960400191505060405180910390fd5b611d5d8363095ea7b360e01b8484604051602401808373ffffffffffffffffffffffffffffffffffffffff16815260200182815260200192505050604051602081830303815290604052907bffffffffffffffffffffffffffffffffffffffffffffffffffffffff19166020820180517bffffffffffffffffffffffffffffffffffffffffffffffffffffffff8381831617835250505050611d62565b505050565b6060611dc4826040518060400160405280602081526020017f5361666545524332303a206c6f772d6c6576656c2063616c6c206661696c65648152508573ffffffffffffffffffffffffffffffffffffffff16611e519092919063ffffffff16565b9050600081511115611e4c57808060200190516020811015611de557600080fd5b8101908080519060200190929190505050611e4b576040517f08c379a000000000000000000000000000000000000000000000000000000000815260040180806020018281038252602a81526020018061219c602a913960400191505060405180910390fd5b5b505050565b6060611e608484600085611e69565b90509392505050565b606082471015611ec4576040517f08c379a000000000000000000000000000000000000000000000000000000000815260040180806020018281038252602681526020018061211c6026913960400191505060405180910390fd5b611ecd85612012565b611f3f576040517f08c379a000000000000000000000000000000000000000000000000000000000815260040180806020018281038252601d8152602001807f416464726573733a2063616c6c20746f206e6f6e2d636f6e747261637400000081525060200191505060405180910390fd5b600060608673ffffffffffffffffffffffffffffffffffffffff1685876040518082805190602001908083835b60208310611f8f5780518252602082019150602081019050602083039250611f6c565b6001836020036101000a03801982511681845116808217855250505050505090500191505060006040518083038185875af1925050503d8060008114611ff1576040519150601f19603f3d011682016040523d82523d6000602084013e611ff6565b606091505b5091509150612006828286612025565b92505050949350505050565b600080823b905060008111915050919050565b60608315612035578290506120ea565b6000835111156120485782518084602001fd5b816040517f08c379a00000000000000000000000000000000000000000000000000000000081526004018080602001828103825283818151815260200191508051906020019080838360005b838110156120af578082015181840152602081019050612094565b50505050905090810190601f1680156120dc5780820380516001836020036101000a031916815260200191505b509250505060405180910390fd5b939250505056fe5f5f7061727365417373657473466f7252656465656d3a20556e737570706f7274656420795661756c74416464726573733a20696e73756666696369656e742062616c616e636520666f722063616c6c4f6e6c792074686520496e746567726174696f6e4d616e616765722063616e2063616c6c20746869732066756e6374696f6e5f5f7061727365417373657473466f724c656e643a20556e737570706f7274656420795661756c745361666545524332303a204552433230206f7065726174696f6e20646964206e6f7420737563636565645361666545524332303a20617070726f76652066726f6d206e6f6e2d7a65726f20746f206e6f6e2d7a65726f20616c6c6f77616e63657061727365417373657473466f72416374696f6e3a205f73656c6563746f7220696e76616c6964a164736f6c634300060c000a","linkReferences":{}},"methodIdentifiers":{"CLAIM_REWARDS_SELECTOR()":"40da225d","LEND_AND_STAKE_SELECTOR()":"131461c0","LEND_SELECTOR()":"257cb1a3","REDEEM_SELECTOR()":"f7d882b5","STAKE_SELECTOR()":"3ffc1591","TAKE_MULTIPLE_ORDERS_SELECTOR()":"c32990a2","TAKE_ORDER_SELECTOR()":"863e5ad0","UNSTAKE_AND_REDEEM_SELECTOR()":"080456c1","UNSTAKE_SELECTOR()":"b23228cf","getIntegrationManager()":"e7c45690","getYearnVaultV2PriceFeed()":"f702e0ea","lend(address,bytes,bytes)":"099f7515","parseAssetsForAction(address,bytes4,bytes)":"c54efee5","redeem(address,bytes,bytes)":"c29fa9dd"},"id":222}