{"abi":[{"type":"constructor","inputs":[{"name":"_integrationManager","type":"address","internalType":"address"},{"name":"_yearnVaultV2PriceFeed","type":"address","internalType":"address"}],"stateMutability":"nonpayable"},{"type":"function","name":"CLAIM_REWARDS_SELECTOR","inputs":[],"outputs":[{"name":"","type":"bytes4","internalType":"bytes4"}],"stateMutability":"view"},{"type":"function","name":"LEND_AND_STAKE_SELECTOR","inputs":[],"outputs":[{"name":"","type":"bytes4","internalType":"bytes4"}],"stateMutability":"view"},{"type":"function","name":"LEND_SELECTOR","inputs":[],"outputs":[{"name":"","type":"bytes4","internalType":"bytes4"}],"stateMutability":"view"},{"type":"function","name":"REDEEM_SELECTOR","inputs":[],"outputs":[{"name":"","type":"bytes4","internalType":"bytes4"}],"stateMutability":"view"},{"type":"function","name":"STAKE_SELECTOR","inputs":[],"outputs":[{"name":"","type":"bytes4","internalType":"bytes4"}],"stateMutability":"view"},{"type":"function","name":"TAKE_MULTIPLE_ORDERS_SELECTOR","inputs":[],"outputs":[{"name":"","type":"bytes4","internalType":"bytes4"}],"stateMutability":"view"},{"type":"function","name":"TAKE_ORDER_SELECTOR","inputs":[],"outputs":[{"name":"","type":"bytes4","internalType":"bytes4"}],"stateMutability":"view"},{"type":"function","name":"UNSTAKE_AND_REDEEM_SELECTOR","inputs":[],"outputs":[{"name":"","type":"bytes4","internalType":"bytes4"}],"stateMutability":"view"},{"type":"function","name":"UNSTAKE_SELECTOR","inputs":[],"outputs":[{"name":"","type":"bytes4","internalType":"bytes4"}],"stateMutability":"view"},{"type":"function","name":"getIntegrationManager","inputs":[],"outputs":[{"name":"integrationManager_","type":"address","internalType":"address"}],"stateMutability":"view"},{"type":"function","name":"getYearnVaultV2PriceFeed","inputs":[],"outputs":[{"name":"yearnVaultV2PriceFeed_","type":"address","internalType":"address"}],"stateMutability":"view"},{"type":"function","name":"lend","inputs":[{"name":"_vaultProxy","type":"address","internalType":"address"},{"name":"","type":"bytes","internalType":"bytes"},{"name":"_assetData","type":"bytes","internalType":"bytes"}],"outputs":[],"stateMutability":"nonpayable"},{"type":"function","name":"parseAssetsForAction","inputs":[{"name":"","type":"address","internalType":"address"},{"name":"_selector","type":"bytes4","internalType":"bytes4"},{"name":"_actionData","type":"bytes","internalType":"bytes"}],"outputs":[{"name":"spendAssetsHandleType_","type":"uint8","internalType":"enum IIntegrationManager.SpendAssetsHandleType"},{"name":"spendAssets_","type":"address[]","internalType":"address[]"},{"name":"spendAssetAmounts_","type":"uint256[]","internalType":"uint256[]"},{"name":"incomingAssets_","type":"address[]","internalType":"address[]"},{"name":"minIncomingAssetAmounts_","type":"uint256[]","internalType":"uint256[]"}],"stateMutability":"view"},{"type":"function","name":"redeem","inputs":[{"name":"_vaultProxy","type":"address","internalType":"address"},{"name":"_actionData","type":"bytes","internalType":"bytes"},{"name":"_assetData","type":"bytes","internalType":"bytes"}],"outputs":[],"stateMutability":"nonpayable"}],"bytecode":{"object":"0x60c060405234801561001057600080fd5b506040516118193803806118198339818101604052604081101561003357600080fd5b5080516020909101516001600160601b0319606092831b8116608052911b1660a05260805160601c60a05160601c6117916100886000398061091052508061050f528061073f52806108ec52506117916000f3fe608060405234801561001057600080fd5b50600436106100ea5760003560e01c8063b23228cf1161008c578063c54efee511610066578063c54efee5146102ea578063e7c45690146104ac578063f702e0ea146104d0578063f7d882b5146104d8576100ea565b8063b23228cf1461020c578063c29fa9dd14610214578063c32990a2146102e2576100ea565b8063257cb1a3116100c8578063257cb1a3146101ec5780633ffc1591146101f457806340da225d146101fc578063863e5ad014610204576100ea565b8063080456c1146100ef578063099f751514610114578063131461c0146101e4575b600080fd5b6100f76104e0565b604080516001600160e01b03199092168252519081900360200190f35b6101e26004803603606081101561012a57600080fd5b6001600160a01b038235169190810190604081016020820135600160201b81111561015457600080fd5b82018360208201111561016657600080fd5b803590602001918460018302840111600160201b8311171561018757600080fd5b919390929091602081019035600160201b8111156101a457600080fd5b8201836020820111156101b657600080fd5b803590602001918460018302840111600160201b831117156101d757600080fd5b509092509050610504565b005b6100f761065c565b6100f7610680565b6100f76106a4565b6100f76106c8565b6100f76106ec565b6100f7610710565b6101e26004803603606081101561022a57600080fd5b6001600160a01b038235169190810190604081016020820135600160201b81111561025457600080fd5b82018360208201111561026657600080fd5b803590602001918460018302840111600160201b8311171561028757600080fd5b919390929091602081019035600160201b8111156102a457600080fd5b8201836020820111156102b657600080fd5b803590602001918460018302840111600160201b831117156102d757600080fd5b509092509050610734565b6100f7610828565b6103776004803603606081101561030057600080fd5b6001600160a01b03823516916001600160e01b031960208201351691810190606081016040820135600160201b81111561033957600080fd5b82018360208201111561034b57600080fd5b803590602001918460018302840111600160201b8311171561036c57600080fd5b50909250905061084c565b6040518086600281111561038757fe5b815260200180602001806020018060200180602001858103855289818151815260200191508051906020019060200280838360005b838110156103d45781810151838201526020016103bc565b50505050905001858103845288818151815260200191508051906020019060200280838360005b838110156104135781810151838201526020016103fb565b50505050905001858103835287818151815260200191508051906020019060200280838360005b8381101561045257818101518382015260200161043a565b50505050905001858103825286818151815260200191508051906020019060200280838360005b83811015610491578181015183820152602001610479565b50505050905001995050505050505050505060405180910390f35b6104b46108ea565b604080516001600160a01b039092168252519081900360200190f35b6104b461090e565b6100f7610932565b7f8334eb99be0145865eba9889fca2ee920288090caefff4cc776038e20ad9259a81565b336001600160a01b037f0000000000000000000000000000000000000000000000000000000000000000161461056b5760405162461bcd60e51b81526004018080602001828103825260328152602001806116a46032913960400191505060405180910390fd5b8482828080601f01602080910402602001604051908101604052809392919081815260200183838082843760009201919091525050604080516020601f88018190048102820181019092528681526060935083925082916105e79190899089908190840183828082843760009201919091525061095692505050565b9250925092506106358a826000815181106105fe57fe5b60200260200101518560008151811061061357fe5b60200260200101518560008151811061062857fe5b6020026020010151610b13565b505050606061064382610956565b505090506106518382610ba7565b505050505050505050565b7f29fa046e79524c3c5ac4c01df692c35e217802b2b13b21121b76cf0ef02b138c81565b7f099f75155f0e997bf83a7993a71d5e7e7540bd386fe1e84643a09ce6b412521981565b7ffa7dd04da627f433da73c4355ead9c75682a67a8fc84d3f6170ef0922f402d2481565b7fb9dfbaccbe5cd2a84fdcf1d15f23ef25d23086f5afbaa99516065ed4a5bbc7a381565b7f03e38a2bd7063d45c897edeafc330e71657502dd86434d3c37a489caf116af6981565b7f68e30677f607df46e87da13e15b637784cfa62374b653f35ab43d10361a2f83081565b336001600160a01b037f0000000000000000000000000000000000000000000000000000000000000000161461079b5760405162461bcd60e51b81526004018080602001828103825260328152602001806116a46032913960400191505060405180910390fd5b8482828080601f0160208091040260200160405190810160405280939291908181526020018383808284376000920182905250604080516020601f8c018190048102820181019092528a815291945084935083925061081591908b908b9081908401838280828437600092019190915250610d0292505050565b935050925092506106358a848484610d3f565b7f0e7f692dad5b88fdee426250d6eae91207e56a2e8112b7364579bed1790e5bf481565b600060608080806001600160e01b0319881663099f751560e01b1415610885576108768787610d9e565b945094509450945094506108df565b6001600160e01b0319881663c29fa9dd60e01b14156108a8576108768787610f51565b60405162461bcd60e51b815260040180806020018281038252602781526020018061175e6027913960400191505060405180910390fd5b945094509450945094565b7f000000000000000000000000000000000000000000000000000000000000000090565b7f000000000000000000000000000000000000000000000000000000000000000090565b7fc29fa9dde84204c2908778afd0613d802d31cf046179b88f6d2b4a4e507ea2d581565b606080606083806020019051606081101561097057600080fd5b8101908080516040519392919084600160201b82111561098f57600080fd5b9083019060208201858111156109a457600080fd5b82518660208202830111600160201b821117156109c057600080fd5b82525081516020918201928201910280838360005b838110156109ed5781810151838201526020016109d5565b5050505090500160405260200180516040519392919084600160201b821115610a1557600080fd5b908301906020820185811115610a2a57600080fd5b82518660208202830111600160201b82111715610a4657600080fd5b82525081516020918201928201910280838360005b83811015610a73578181015183820152602001610a5b565b5050505090500160405260200180516040519392919084600160201b821115610a9b57600080fd5b908301906020820185811115610ab057600080fd5b82518660208202830111600160201b82111715610acc57600080fd5b82525081516020918201928201910280838360005b83811015610af9578181015183820152602001610ae1565b505050509050016040525050509250925092509193909250565b610b1e8284836110a3565b826001600160a01b0316636e553f6582866040518363ffffffff1660e01b815260040180838152602001826001600160a01b0316815260200192505050602060405180830381600087803b158015610b7557600080fd5b505af1158015610b89573d6000803e3d6000fd5b505050506040513d6020811015610b9f57600080fd5b505050505050565b6060815167ffffffffffffffff81118015610bc157600080fd5b50604051908082528060200260200182016040528015610beb578160200160208202803683370190505b50905060005b8251811015610cfb576000838281518110610c0857fe5b60200260200101519050806001600160a01b03166370a08231306040518263ffffffff1660e01b815260040180826001600160a01b0316815260200191505060206040518083038186803b158015610c5f57600080fd5b505afa158015610c73573d6000803e3d6000fd5b505050506040513d6020811015610c8957600080fd5b50518351849084908110610c9957fe5b6020026020010181815250506000838381518110610cb357fe5b60200260200101511115610cf257610cf285848481518110610cd157fe5b6020026020010151836001600160a01b03166111619092919063ffffffff16565b50600101610bf1565b5092915050565b600080600080848060200190516080811015610d1d57600080fd5b5080516020820151604083015160609093015191989097509195509350915050565b826001600160a01b031663e63697c88386846040518463ffffffff1660e01b815260040180848152602001836001600160a01b031681526020018281526020019350505050602060405180830381600087803b158015610b7557600080fd5b60006060806060806000806000610dea8a8a8080601f0160208091040260200160405190810160405280939291908181526020018383808284376000920191909152506111b892505050565b9250925092506000610dfb846111ec565b90506001600160a01b038116610e425760405162461bcd60e51b81526004018080602001828103825260288152602001806116d66028913960400191505060405180910390fd5b60408051600180825281830190925290602080830190803683370190505097508088600081518110610e7057fe5b6001600160a01b03929092166020928302919091018201526040805160018082528183019092529182810190803683370190505096508287600081518110610eb457fe5b6020908102919091010152604080516001808252818301909252908160200160208202803683370190505095508386600081518110610eef57fe5b6001600160a01b03929092166020928302919091018201526040805160018082528183019092529182810190803683370190505094508185600081518110610f3357fe5b60200260200101818152505060029850505050509295509295909350565b60006060806060806000806000610f9d8a8a8080601f016020809104026020016040519081016040528093929190818152602001838380828437600092019190915250610d0292505050565b509250925092506000610faf846111ec565b90506001600160a01b038116610ff65760405162461bcd60e51b815260040180806020018281038252602a815260200180611654602a913960400191505060405180910390fd5b6040805160018082528183019092529060208083019080368337019050509750838860008151811061102457fe5b6001600160a01b0392909216602092830291909101820152604080516001808252818301909252918281019080368337019050509650828760008151811061106857fe5b6020908102919091010152604080516001808252818301909252908160200160208202803683370190505095508086600081518110610eef57fe5b60408051636eb1769f60e11b81523060048201526001600160a01b038481166024830152915160009286169163dd62ed3e916044808301926020929190829003018186803b1580156110f457600080fd5b505afa158015611108573d6000803e3d6000fd5b505050506040513d602081101561111e57600080fd5b505190508181101561115b578015611145576111456001600160a01b038516846000611274565b61115b6001600160a01b03851684600019611274565b50505050565b604080516001600160a01b038416602482015260448082018490528251808303909101815260649091019091526020810180516001600160e01b031663a9059cbb60e01b1790526111b3908490611383565b505050565b60008060008380602001905160608110156111d257600080fd5b508051602082015160409092015190969195509350915050565b60006111f661090e565b6001600160a01b03166366adb867836040518263ffffffff1660e01b815260040180826001600160a01b0316815260200191505060206040518083038186803b15801561124257600080fd5b505afa158015611256573d6000803e3d6000fd5b505050506040513d602081101561126c57600080fd5b505192915050565b8015806112fa575060408051636eb1769f60e11b81523060048201526001600160a01b03848116602483015291519185169163dd62ed3e91604480820192602092909190829003018186803b1580156112cc57600080fd5b505afa1580156112e0573d6000803e3d6000fd5b505050506040513d60208110156112f657600080fd5b5051155b6113355760405162461bcd60e51b81526004018080602001828103825260368152602001806117286036913960400191505060405180910390fd5b604080516001600160a01b038416602482015260448082018490528251808303909101815260649091019091526020810180516001600160e01b031663095ea7b360e01b1790526111b39084905b60606113d8826040518060400160405280602081526020017f5361666545524332303a206c6f772d6c6576656c2063616c6c206661696c6564815250856001600160a01b03166114349092919063ffffffff16565b8051909150156111b3578080602001905160208110156113f757600080fd5b50516111b35760405162461bcd60e51b815260040180806020018281038252602a8152602001806116fe602a913960400191505060405180910390fd5b6060611443848460008561144d565b90505b9392505050565b60608247101561148e5760405162461bcd60e51b815260040180806020018281038252602681526020018061167e6026913960400191505060405180910390fd5b611497856115a9565b6114e8576040805162461bcd60e51b815260206004820152601d60248201527f416464726573733a2063616c6c20746f206e6f6e2d636f6e7472616374000000604482015290519081900360640190fd5b60006060866001600160a01b031685876040518082805190602001908083835b602083106115275780518252601f199092019160209182019101611508565b6001836020036101000a03801982511681845116808217855250505050505090500191505060006040518083038185875af1925050503d8060008114611589576040519150601f19603f3d011682016040523d82523d6000602084013e61158e565b606091505b509150915061159e8282866115af565b979650505050505050565b3b151590565b606083156115be575081611446565b8251156115ce5782518084602001fd5b8160405162461bcd60e51b81526004018080602001828103825283818151815260200191508051906020019080838360005b83811015611618578181015183820152602001611600565b50505050905090810190601f1680156116455780820380516001836020036101000a031916815260200191505b509250505060405180910390fdfe5f5f7061727365417373657473466f7252656465656d3a20556e737570706f7274656420795661756c74416464726573733a20696e73756666696369656e742062616c616e636520666f722063616c6c4f6e6c792074686520496e746567726174696f6e4d616e616765722063616e2063616c6c20746869732066756e6374696f6e5f5f7061727365417373657473466f724c656e643a20556e737570706f7274656420795661756c745361666545524332303a204552433230206f7065726174696f6e20646964206e6f7420737563636565645361666545524332303a20617070726f76652066726f6d206e6f6e2d7a65726f20746f206e6f6e2d7a65726f20616c6c6f77616e63657061727365417373657473466f72416374696f6e3a205f73656c6563746f7220696e76616c6964a164736f6c634300060c000a","linkReferences":{}},"methodIdentifiers":{"CLAIM_REWARDS_SELECTOR()":"40da225d","LEND_AND_STAKE_SELECTOR()":"131461c0","LEND_SELECTOR()":"257cb1a3","REDEEM_SELECTOR()":"f7d882b5","STAKE_SELECTOR()":"3ffc1591","TAKE_MULTIPLE_ORDERS_SELECTOR()":"c32990a2","TAKE_ORDER_SELECTOR()":"863e5ad0","UNSTAKE_AND_REDEEM_SELECTOR()":"080456c1","UNSTAKE_SELECTOR()":"b23228cf","getIntegrationManager()":"e7c45690","getYearnVaultV2PriceFeed()":"f702e0ea","lend(address,bytes,bytes)":"099f7515","parseAssetsForAction(address,bytes4,bytes)":"c54efee5","redeem(address,bytes,bytes)":"c29fa9dd"},"id":222}