{"abi":[{"type":"constructor","inputs":[{"name":"_integrationManager","type":"address","internalType":"address"},{"name":"_addressProvider","type":"address","internalType":"address"},{"name":"_wethToken","type":"address","internalType":"address"}],"stateMutability":"nonpayable"},{"type":"receive","stateMutability":"payable"},{"type":"function","name":"getCurveExchangeAddressProvider","inputs":[],"outputs":[{"name":"curveExchangeAddressProvider_","type":"address","internalType":"address"}],"stateMutability":"view"},{"type":"function","name":"getCurveExchangeWethToken","inputs":[],"outputs":[{"name":"curveExchangeWethToken_","type":"address","internalType":"address"}],"stateMutability":"view"},{"type":"function","name":"getIntegrationManager","inputs":[],"outputs":[{"name":"integrationManager_","type":"address","internalType":"address"}],"stateMutability":"view"},{"type":"function","name":"parseAssetsForAction","inputs":[{"name":"","type":"address","internalType":"address"},{"name":"_selector","type":"bytes4","internalType":"bytes4"},{"name":"_actionData","type":"bytes","internalType":"bytes"}],"outputs":[{"name":"spendAssetsHandleType_","type":"uint8","internalType":"enum IIntegrationManager.SpendAssetsHandleType"},{"name":"spendAssets_","type":"address[]","internalType":"address[]"},{"name":"spendAssetAmounts_","type":"uint256[]","internalType":"uint256[]"},{"name":"incomingAssets_","type":"address[]","internalType":"address[]"},{"name":"minIncomingAssetAmounts_","type":"uint256[]","internalType":"uint256[]"}],"stateMutability":"view"},{"type":"function","name":"takeOrder","inputs":[{"name":"_vaultProxy","type":"address","internalType":"address"},{"name":"_actionData","type":"bytes","internalType":"bytes"},{"name":"","type":"bytes","internalType":"bytes"}],"outputs":[],"stateMutability":"nonpayable"}],"bytecode":{"object":"0x60e060405234801561001057600080fd5b5060405161123c38038061123c8339818101604052606081101561003357600080fd5b50805160208201516040909201516001600160601b0319606092831b811660805292821b831660a052901b1660c05260805160601c60a05160601c60c05160601c6111826100ba60003980610682528061078152806107b652806108eb52806109f15280610a6752508061043b52806106ee525080610372528061065e52506111826000f3fe60806040526004361061004e5760003560e01c806303e38a2b1461005a57806372202e8f1461013b578063c54efee51461016c578063e7c456901461033d578063fd070ae41461035257610055565b3661005557005b600080fd5b34801561006657600080fd5b506101396004803603606081101561007d57600080fd5b6001600160a01b0382351691908101906040810160208201356401000000008111156100a857600080fd5b8201836020820111156100ba57600080fd5b803590602001918460018302840111640100000000831117156100dc57600080fd5b9193909290916020810190356401000000008111156100fa57600080fd5b82018360208201111561010c57600080fd5b8035906020019184600183028401116401000000008311171561012e57600080fd5b509092509050610367565b005b34801561014757600080fd5b50610150610439565b604080516001600160a01b039092168252519081900360200190f35b34801561017857600080fd5b506102086004803603606081101561018f57600080fd5b6001600160a01b03823516916001600160e01b0319602082013516918101906060810160408201356401000000008111156101c957600080fd5b8201836020820111156101db57600080fd5b803590602001918460018302840111640100000000831117156101fd57600080fd5b50909250905061045d565b6040518086600281111561021857fe5b815260200180602001806020018060200180602001858103855289818151815260200191508051906020019060200280838360005b8381101561026557818101518382015260200161024d565b50505050905001858103845288818151815260200191508051906020019060200280838360005b838110156102a457818101518382015260200161028c565b50505050905001858103835287818151815260200191508051906020019060200280838360005b838110156102e35781810151838201526020016102cb565b50505050905001858103825286818151815260200191508051906020019060200280838360005b8381101561032257818101518382015260200161030a565b50505050905001995050505050505050505060405180910390f35b34801561034957600080fd5b5061015061065c565b34801561035e57600080fd5b50610150610680565b336001600160a01b037f000000000000000000000000000000000000000000000000000000000000000016146103ce5760405162461bcd60e51b81526004018080602001828103825260328152602001806110bd6032913960400191505060405180910390fd5b600080600080600061041589898080601f0160208091040260200160405190810160405280939291908181526020018383808284376000920191909152506106a492505050565b9450945094509450945061042d8a86868686866106ea565b50505050505050505050565b7f000000000000000000000000000000000000000000000000000000000000000090565b600060608080806001600160e01b031988166303e38a2b60e01b146104b35760405162461bcd60e51b815260040180806020018281038252602781526020018061114f6027913960400191505060405180910390fd5b60008060008060006104fa8c8c8080601f0160208091040260200160405190810160405280939291908181526020018383808284376000920191909152506106a492505050565b9398509196509450925090506001600160a01b03851661054b5760405162461bcd60e51b815260040180806020018281038252602e81526020018061108f602e913960400191505060405180910390fd5b6040805160018082528183019092529060208083019080368337019050509850838960008151811061057957fe5b6001600160a01b039290921660209283029190910182015260408051600180825281830190925291828101908036833701905050975082886000815181106105bd57fe5b60209081029190910101526040805160018082528183019092529081602001602082028036833701905050965081876000815181106105f857fe5b6001600160a01b0392909216602092830291909101820152604080516001808252818301909252918281019080368337019050509550808660008151811061063c57fe5b602002602001018181525050600299505050505050945094509450945094565b7f000000000000000000000000000000000000000000000000000000000000000090565b7f000000000000000000000000000000000000000000000000000000000000000090565b60008060008060008580602001905160a08110156106c157600080fd5b508051602082015160408301516060840151608090940151929a91995097509195509350915050565b60007f00000000000000000000000000000000000000000000000000000000000000006001600160a01b031663493f4f7460026040518263ffffffff1660e01b81526004018082815260200191505060206040518083038186803b15801561075157600080fd5b505afa158015610765573d6000803e3d6000fd5b505050506040513d602081101561077b57600080fd5b505190507f00000000000000000000000000000000000000000000000000000000000000006001600160a01b0390811690861614156108e9577f00000000000000000000000000000000000000000000000000000000000000006001600160a01b0316632e1a7d4d856040518263ffffffff1660e01b815260040180828152602001915050600060405180830381600087803b15801561081a57600080fd5b505af115801561082e573d6000803e3d6000fd5b505060408051631a4c1ca360e01b81526001600160a01b038a8116600483015273eeeeeeeeeeeeeeeeeeeeeeeeeeeeeeeeeeeeeeee6024830152878116604483015260648201899052608482018790528b811660a483015291519185169350631a4c1ca39250879160c480830192602092919082900301818588803b1580156108b657600080fd5b505af11580156108ca573d6000803e3d6000fd5b50505050506040513d60208110156108e157600080fd5b50610b429050565b7f00000000000000000000000000000000000000000000000000000000000000006001600160a01b0316836001600160a01b03161415610a985761092e858286610b4b565b60408051631a4c1ca360e01b81526001600160a01b038881166004830152878116602483015273eeeeeeeeeeeeeeeeeeeeeeeeeeeeeeeeeeeeeeee604483015260648201879052608482018590523060a4830152915191831691631a4c1ca39160c4808201926020929091908290030181600087803b1580156109b057600080fd5b505af11580156109c4573d6000803e3d6000fd5b505050506040513d60208110156109da57600080fd5b505060408051630d0e30db60e41b815290513031917f00000000000000000000000000000000000000000000000000000000000000006001600160a01b03169163d0e30db0918491600480830192600092919082900301818588803b158015610a4257600080fd5b505af1158015610a56573d6000803e3d6000fd5b50610a929350506001600160a01b037f00000000000000000000000000000000000000000000000000000000000000001691508a905083610c09565b50610b42565b610aa3858286610b4b565b60408051631a4c1ca360e01b81526001600160a01b03888116600483015287811660248301528581166044830152606482018790526084820185905289811660a4830152915191831691631a4c1ca39160c4808201926020929091908290030181600087803b158015610b1557600080fd5b505af1158015610b29573d6000803e3d6000fd5b505050506040513d6020811015610b3f57600080fd5b50505b50505050505050565b60408051636eb1769f60e11b81523060048201526001600160a01b038481166024830152915160009286169163dd62ed3e916044808301926020929190829003018186803b158015610b9c57600080fd5b505afa158015610bb0573d6000803e3d6000fd5b505050506040513d6020811015610bc657600080fd5b5051905081811015610c03578015610bed57610bed6001600160a01b038516846000610c21565b610c036001600160a01b03851684600019610c21565b50505050565b610c1c610c1584610c34565b8383610c37565b505050565b610c1c610c2d84610c34565b8383610c89565b90565b604080516001600160a01b038416602482015260448082018490528251808303909101815260649091019091526020810180516001600160e01b031663a9059cbb60e01b179052610c1c908490610d98565b801580610d0f575060408051636eb1769f60e11b81523060048201526001600160a01b03848116602483015291519185169163dd62ed3e91604480820192602092909190829003018186803b158015610ce157600080fd5b505afa158015610cf5573d6000803e3d6000fd5b505050506040513d6020811015610d0b57600080fd5b5051155b610d4a5760405162461bcd60e51b81526004018080602001828103825260368152602001806111196036913960400191505060405180910390fd5b604080516001600160a01b038416602482015260448082018490528251808303909101815260649091019091526020810180516001600160e01b031663095ea7b360e01b179052610c1c9084905b6060610ded826040518060400160405280602081526020017f5361666545524332303a206c6f772d6c6576656c2063616c6c206661696c6564815250856001600160a01b0316610e499092919063ffffffff16565b805190915015610c1c57808060200190516020811015610e0c57600080fd5b5051610c1c5760405162461bcd60e51b815260040180806020018281038252602a8152602001806110ef602a913960400191505060405180910390fd5b6060610e588484600085610e62565b90505b9392505050565b606082471015610ea35760405162461bcd60e51b81526004018080602001828103825260268152602001806110696026913960400191505060405180910390fd5b610eac85610fbe565b610efd576040805162461bcd60e51b815260206004820152601d60248201527f416464726573733a2063616c6c20746f206e6f6e2d636f6e7472616374000000604482015290519081900360640190fd5b60006060866001600160a01b031685876040518082805190602001908083835b60208310610f3c5780518252601f199092019160209182019101610f1d565b6001836020036101000a03801982511681845116808217855250505050505090500191505060006040518083038185875af1925050503d8060008114610f9e576040519150601f19603f3d011682016040523d82523d6000602084013e610fa3565b606091505b5091509150610fb3828286610fc4565b979650505050505050565b3b151590565b60608315610fd3575081610e5b565b825115610fe35782518084602001fd5b8160405162461bcd60e51b81526004018080602001828103825283818151815260200191508051906020019080838360005b8381101561102d578181015183820152602001611015565b50505050905090810190601f16801561105a5780820380516001836020036101000a031916815260200191505b509250505060405180910390fdfe416464726573733a20696e73756666696369656e742062616c616e636520666f722063616c6c7061727365417373657473466f72416374696f6e3a204e6f20706f6f6c20616464726573732070726f76696465644f6e6c792074686520496e746567726174696f6e4d616e616765722063616e2063616c6c20746869732066756e6374696f6e5361666545524332303a204552433230206f7065726174696f6e20646964206e6f7420737563636565645361666545524332303a20617070726f76652066726f6d206e6f6e2d7a65726f20746f206e6f6e2d7a65726f20616c6c6f77616e63657061727365417373657473466f72416374696f6e3a205f73656c6563746f7220696e76616c6964a164736f6c634300060c000a","linkReferences":{}},"methodIdentifiers":{"getCurveExchangeAddressProvider()":"72202e8f","getCurveExchangeWethToken()":"fd070ae4","getIntegrationManager()":"e7c45690","parseAssetsForAction(address,bytes4,bytes)":"c54efee5","takeOrder(address,bytes,bytes)":"03e38a2b"},"id":176}