{"abi":[{"type":"constructor","inputs":[{"name":"_owner","type":"address","internalType":"address"},{"name":"_convexBooster","type":"address","internalType":"address"},{"name":"_balToken","type":"address","internalType":"address"},{"name":"_auraToken","type":"address","internalType":"address"}],"stateMutability":"nonpayable"},{"type":"function","name":"addExtraRewards","inputs":[],"outputs":[],"stateMutability":"nonpayable"},{"type":"function","name":"allowance","inputs":[{"name":"owner","type":"address","internalType":"address"},{"name":"spender","type":"address","internalType":"address"}],"outputs":[{"name":"","type":"uint256","internalType":"uint256"}],"stateMutability":"view"},{"type":"function","name":"approve","inputs":[{"name":"spender","type":"address","internalType":"address"},{"name":"amount","type":"uint256","internalType":"uint256"}],"outputs":[{"name":"","type":"bool","internalType":"bool"}],"stateMutability":"nonpayable"},{"type":"function","name":"balanceOf","inputs":[{"name":"account","type":"address","internalType":"address"}],"outputs":[{"name":"","type":"uint256","internalType":"uint256"}],"stateMutability":"view"},{"type":"function","name":"claimRewardsFor","inputs":[{"name":"_for","type":"address","internalType":"address"}],"outputs":[{"name":"rewardTokens_","type":"address[]","internalType":"address[]"},{"name":"claimedAmounts_","type":"uint256[]","internalType":"uint256[]"}],"stateMutability":"nonpayable"},{"type":"function","name":"claimRewardsForWithoutCheckpoint","inputs":[{"name":"_for","type":"address","internalType":"address"}],"outputs":[{"name":"rewardTokens_","type":"address[]","internalType":"address[]"},{"name":"claimedAmounts_","type":"uint256[]","internalType":"uint256[]"}],"stateMutability":"nonpayable"},{"type":"function","name":"decimals","inputs":[],"outputs":[{"name":"decimals_","type":"uint8","internalType":"uint8"}],"stateMutability":"view"},{"type":"function","name":"decreaseAllowance","inputs":[{"name":"spender","type":"address","internalType":"address"},{"name":"subtractedValue","type":"uint256","internalType":"uint256"}],"outputs":[{"name":"","type":"bool","internalType":"bool"}],"stateMutability":"nonpayable"},{"type":"function","name":"depositTo","inputs":[{"name":"_to","type":"address","internalType":"address"},{"name":"_amount","type":"uint256","internalType":"uint256"}],"outputs":[],"stateMutability":"nonpayable"},{"type":"function","name":"getConvexPool","inputs":[],"outputs":[{"name":"convexPool_","type":"address","internalType":"address"}],"stateMutability":"view"},{"type":"function","name":"getConvexPoolId","inputs":[],"outputs":[{"name":"convexPoolId_","type":"uint256","internalType":"uint256"}],"stateMutability":"view"},{"type":"function","name":"getCurveLpToken","inputs":[],"outputs":[{"name":"curveLPToken_","type":"address","internalType":"address"}],"stateMutability":"view"},{"type":"function","name":"getRewardTokenAtIndex","inputs":[{"name":"_index","type":"uint256","internalType":"uint256"}],"outputs":[{"name":"rewardToken_","type":"address","internalType":"address"}],"stateMutability":"view"},{"type":"function","name":"getRewardTokenCount","inputs":[],"outputs":[{"name":"count_","type":"uint256","internalType":"uint256"}],"stateMutability":"view"},{"type":"function","name":"getRewardTokens","inputs":[],"outputs":[{"name":"rewardTokens_","type":"address[]","internalType":"address[]"}],"stateMutability":"view"},{"type":"function","name":"getTotalHarvestDataForRewardToken","inputs":[{"name":"_rewardToken","type":"address","internalType":"address"}],"outputs":[{"name":"totalHarvestData_","type":"tuple","internalType":"struct IStakingWrapper.TotalHarvestData","components":[{"name":"integral","type":"uint128","internalType":"uint128"},{"name":"lastCheckpointBalance","type":"uint128","internalType":"uint128"}]}],"stateMutability":"view"},{"type":"function","name":"getUserHarvestDataForRewardToken","inputs":[{"name":"_user","type":"address","internalType":"address"},{"name":"_rewardToken","type":"address","internalType":"address"}],"outputs":[{"name":"userHarvestData_","type":"tuple","internalType":"struct IStakingWrapper.UserHarvestData","components":[{"name":"integral","type":"uint128","internalType":"uint128"},{"name":"claimableReward","type":"uint128","internalType":"uint128"}]}],"stateMutability":"view"},{"type":"function","name":"increaseAllowance","inputs":[{"name":"spender","type":"address","internalType":"address"},{"name":"addedValue","type":"uint256","internalType":"uint256"}],"outputs":[{"name":"","type":"bool","internalType":"bool"}],"stateMutability":"nonpayable"},{"type":"function","name":"init","inputs":[{"name":"_pid","type":"uint256","internalType":"uint256"}],"outputs":[],"stateMutability":"nonpayable"},{"type":"function","name":"isPaused","inputs":[],"outputs":[{"name":"isPaused_","type":"bool","internalType":"bool"}],"stateMutability":"view"},{"type":"function","name":"name","inputs":[],"outputs":[{"name":"name_","type":"string","internalType":"string"}],"stateMutability":"view"},{"type":"function","name":"setApprovals","inputs":[],"outputs":[],"stateMutability":"nonpayable"},{"type":"function","name":"symbol","inputs":[],"outputs":[{"name":"symbol_","type":"string","internalType":"string"}],"stateMutability":"view"},{"type":"function","name":"togglePause","inputs":[{"name":"_isPaused","type":"bool","internalType":"bool"}],"outputs":[],"stateMutability":"nonpayable"},{"type":"function","name":"totalSupply","inputs":[],"outputs":[{"name":"","type":"uint256","internalType":"uint256"}],"stateMutability":"view"},{"type":"function","name":"transfer","inputs":[{"name":"to","type":"address","internalType":"address"},{"name":"amount","type":"uint256","internalType":"uint256"}],"outputs":[{"name":"","type":"bool","internalType":"bool"}],"stateMutability":"nonpayable"},{"type":"function","name":"transferFrom","inputs":[{"name":"from","type":"address","internalType":"address"},{"name":"to","type":"address","internalType":"address"},{"name":"amount","type":"uint256","internalType":"uint256"}],"outputs":[{"name":"","type":"bool","internalType":"bool"}],"stateMutability":"nonpayable"},{"type":"function","name":"withdrawTo","inputs":[{"name":"_to","type":"address","internalType":"address"},{"name":"_amount","type":"uint256","internalType":"uint256"}],"outputs":[],"stateMutability":"nonpayable"},{"type":"function","name":"withdrawToOnBehalf","inputs":[{"name":"_onBehalf","type":"address","internalType":"address"},{"name":"_to","type":"address","internalType":"address"},{"name":"_amount","type":"uint256","internalType":"uint256"}],"outputs":[],"stateMutability":"nonpayable"},{"type":"function","name":"withdrawToWithoutCheckpoint","inputs":[{"name":"_to","type":"address","internalType":"address"},{"name":"_amount","type":"uint256","internalType":"uint256"}],"outputs":[],"stateMutability":"nonpayable"},{"type":"event","name":"Approval","inputs":[{"name":"owner","type":"address","indexed":true,"internalType":"address"},{"name":"spender","type":"address","indexed":true,"internalType":"address"},{"name":"value","type":"uint256","indexed":false,"internalType":"uint256"}],"anonymous":false},{"type":"event","name":"Deposited","inputs":[{"name":"from","type":"address","indexed":true,"internalType":"address"},{"name":"to","type":"address","indexed":true,"internalType":"address"},{"name":"amount","type":"uint256","indexed":false,"internalType":"uint256"}],"anonymous":false},{"type":"event","name":"PauseToggled","inputs":[{"name":"isPaused","type":"bool","indexed":false,"internalType":"bool"}],"anonymous":false},{"type":"event","name":"RewardTokenAdded","inputs":[{"name":"token","type":"address","indexed":false,"internalType":"address"}],"anonymous":false},{"type":"event","name":"TokenNameSet","inputs":[{"name":"name","type":"string","indexed":false,"internalType":"string"}],"anonymous":false},{"type":"event","name":"TokenSymbolSet","inputs":[{"name":"symbol","type":"string","indexed":false,"internalType":"string"}],"anonymous":false},{"type":"event","name":"TotalHarvestIntegralUpdated","inputs":[{"name":"rewardToken","type":"address","indexed":true,"internalType":"address"},{"name":"integral","type":"uint256","indexed":false,"internalType":"uint256"}],"anonymous":false},{"type":"event","name":"TotalHarvestLastCheckpointBalanceUpdated","inputs":[{"name":"rewardToken","type":"address","indexed":true,"internalType":"address"},{"name":"lastCheckpointBalance","type":"uint256","indexed":false,"internalType":"uint256"}],"anonymous":false},{"type":"event","name":"Transfer","inputs":[{"name":"from","type":"address","indexed":true,"internalType":"address"},{"name":"to","type":"address","indexed":true,"internalType":"address"},{"name":"value","type":"uint256","indexed":false,"internalType":"uint256"}],"anonymous":false},{"type":"event","name":"UserHarvestUpdated","inputs":[{"name":"user","type":"address","indexed":true,"internalType":"address"},{"name":"rewardToken","type":"address","indexed":true,"internalType":"address"},{"name":"integral","type":"uint256","indexed":false,"internalType":"uint256"},{"name":"claimableReward","type":"uint256","indexed":false,"internalType":"uint256"}],"anonymous":false},{"type":"event","name":"Withdrawn","inputs":[{"name":"caller","type":"address","indexed":true,"internalType":"address"},{"name":"from","type":"address","indexed":true,"internalType":"address"},{"name":"to","type":"address","indexed":true,"internalType":"address"},{"name":"amount","type":"uint256","indexed":false,"internalType":"uint256"}],"anonymous":false}],"bytecode":{"object":"0x6101006040523480156200001257600080fd5b5060405162003138380380620031388339810160408190526200003591620000ea565b83838383836040518060200160405280600081525060405180602001604052806000815250818181600390816200006d919062000266565b5060046200007c828262000266565b505060016005555050506001600160a01b0390811660805292831660a05290821660c0521660e05250620003369350505050565b60006001600160a01b0382165b92915050565b620000ce81620000b0565b8114620000da57600080fd5b50565b8051620000bd81620000c3565b60008060008060808587031215620001055762000105600080fd5b6000620001138787620000dd565b94505060206200012687828801620000dd565b93505060406200013987828801620000dd565b92505060606200014c87828801620000dd565b91505092959194509250565b634e487b7160e01b600052604160045260246000fd5b634e487b7160e01b600052602260045260246000fd5b6002810460018216806200019957607f821691505b602082108103620001ae57620001ae6200016e565b50919050565b6000620000bd620001c28381565b90565b620001d083620001b4565b815460001960089490940293841b1916921b91909117905550565b6000620001fa818484620001c5565b505050565b818110156200021e5762000215600082620001eb565b600101620001ff565b5050565b601f821115620001fa576000818152602090206020601f850104810160208510156200024b5750805b6200025f6020601f860104830182620001ff565b5050505050565b81516001600160401b0381111562000282576200028262000158565b6200028e825462000184565b6200029b82828562000222565b6020601f831160018114620002d25760008415620002b95750858201515b600019600886021c19811660028602178655506200032e565b600085815260208120601f198616915b82811015620003045788850151825560209485019460019092019101620002e2565b86831015620003215784890151600019601f89166008021c191682555b6001600288020188555050505b505050505050565b60805160a05160c05160e051612dba6200037e6000396000610c0801526000610bdf0152600081816108d901528181610a080152611c4e0152600061081e0152612dba6000f3fe608060405234801561001057600080fd5b50600436106101da5760003560e01c80637efe721011610104578063a9059cbb116100a2578063c4f59f9b11610071578063c4f59f9b14610434578063d12f8df014610449578063dd62ed3e14610451578063ffaad6a51461046457600080fd5b8063a9059cbb146103f2578063b187bd2614610405578063b7b0422d14610410578063b899aea41461042357600080fd5b806395d89b41116100de57806395d89b41146103605780639655dd6114610368578063a457c2d7146103cc578063a7d2793f146103df57600080fd5b80637efe72101461033d57806382e5d073146103505780638757b15b1461035857600080fd5b806320c718101161017c578063395093511161014b57806339509351146102db5780634c6cb622146102ee57806357d159c61461030157806370a082311461031457600080fd5b806320c718101461028c5780632251ab5e146102a657806323b872dd146102b9578063313ce567146102cc57600080fd5b8063095ea7b3116101b8578063095ea7b31461022757806318160ddd146102475780631ac6d19d14610258578063205c28781461027957600080fd5b80630663b22c146101df57806306fdde03146101e9578063093f636514610207575b600080fd5b6101e7610477565b005b6101f161064d565b6040516101fe9190611ef5565b60405180910390f35b61021a610215366004611f36565b6106df565b6040516101fe9190611fa8565b61023a610235366004611fc7565b61073d565b6040516101fe9190612002565b6002545b6040516101fe9190612016565b61026b610266366004612024565b610755565b6040516101fe9291906120f5565b6101e7610287366004611fc7565b6107a2565b600c546001600160a01b03165b6040516101fe919061211a565b6101e76102b4366004611fc7565b6107b3565b61023a6102c7366004612128565b6107c0565b60126040516101fe9190612181565b61023a6102e9366004611fc7565b6107e6565b61026b6102fc366004612024565b610808565b6101e761030f3660046121a2565b610813565b61024b610322366004612024565b6001600160a01b031660009081526020819052604090205490565b6101e761034b366004612128565b6108ad565b60075461024b565b6101e76108d4565b6101f161091f565b61021a610376366004612024565b6040805180820190915260008082526020820152506001600160a01b03166000908152600860209081526040918290208251808401909352546001600160801b038082168452600160801b909104169082015290565b61023a6103da366004611fc7565b61092e565b6102996103ed3660046121c3565b610976565b61023a610400366004611fc7565b6109a6565b60065460ff1661023a565b6101e761041e3660046121c3565b6109b4565b600e546001600160a01b0316610299565b61043c610c3c565b6040516101fe91906121e4565b600d5461024b565b61024b61045f366004611f36565b610c9d565b6101e7610472366004611fc7565b610cc8565b600061048b600c546001600160a01b031690565b90506000816001600160a01b031663d55a23f46040518163ffffffff1660e01b8152600401602060405180830381865afa1580156104cd573d6000803e3d6000fd5b505050506040513d601f19601f820116820180604052508101906104f19190612200565b905060005b8181101561064857604051632061aa2360e11b81526000906001600160a01b038516906340c354469061052d908590600401612016565b602060405180830381865afa15801561054a573d6000803e3d6000fd5b505050506040513d601f19601f8201168201806040525081019061056e919061222c565b6001600160a01b031663f7c618c16040518163ffffffff1660e01b8152600401602060405180830381865afa1580156105ab573d6000803e3d6000fd5b505050506040513d601f19601f820116820180604052508101906105cf919061222c565b90506030600d541061062c576040805160048152602481019091526020810180516001600160e01b031663c55dae6360e01b179052600090610612908390610cd3565b905080806020019051810190610628919061222c565b9150505b61063581610cf8565b508061064081612263565b9150506104f6565b505050565b6060600a805461065c90612293565b80601f016020809104026020016040519081016040528092919081815260200182805461068890612293565b80156106d55780601f106106aa576101008083540402835291602001916106d5565b820191906000526020600020905b8154815290600101906020018083116106b857829003601f168201915b5050505050905090565b604080518082018252600080825260209182018190526001600160a01b03848116825260098352838220908616825282528290208251808401909352546001600160801b038082168452600160801b90910416908201525b92915050565b60003361074b818585610de7565b5060019392505050565b606080610760610e9b565b604080518082019091526001600160a01b03841681526000602082015261078690610ec4565b61078f83610f32565b9150915061079d6001600555565b915091565b6107af3383836001611099565b5050565b6107af3383836000611099565b6000336107ce858285611168565b6107d98585856111ac565b60019150505b9392505050565b60003361074b8185856107f98383610c9d565b61080391906122bf565b610de7565b606080610786610e9b565b336001600160a01b037f000000000000000000000000000000000000000000000000000000000000000016146108645760405162461bcd60e51b815260040161085b906122ff565b60405180910390fd5b6006805460ff19168215151790556040517f9077d36bc00859b5c3f320310707208543dd35092cb0a0fe117d0c6a558b148b906108a2908390612002565b60405180910390a150565b6108c78333836108bd8733610c9d565b610803919061230f565b6106488383836001611099565b61091d7f000000000000000000000000000000000000000000000000000000000000000060001961090d600e546001600160a01b031690565b6001600160a01b031691906111f0565b565b6060600b805461065c90612293565b6000338161093c8286610c9d565b90508381101561095e5760405162461bcd60e51b815260040161085b90612367565b61096b8286868403610de7565b506001949350505050565b60006007828154811061098b5761098b612377565b6000918252602090912001546001600160a01b031692915050565b60003361074b8185856111ac565b60006109c8600e546001600160a01b031690565b6001600160a01b0316146109ee5760405162461bcd60e51b815260040161085b906123b5565b604051631526fe2760e01b81526000906001600160a01b037f00000000000000000000000000000000000000000000000000000000000000001690631526fe2790610a3d908590600401612016565b60c060405180830381865afa158015610a5a573d6000803e3d6000fd5b505050506040513d601f19601f82011682018060405250810190610a7e91906124c9565b9050610b1181602001516001600160a01b03166306fdde036040518163ffffffff1660e01b8152600401600060405180830381865afa158015610ac5573d6000803e3d6000fd5b505050506040513d6000823e601f3d908101601f19168201604052610aed919081019061257a565b604051602001610afd91906125d7565b6040516020818303038152906040526112db565b610ba281602001516001600160a01b03166395d89b416040518163ffffffff1660e01b8152600401600060405180830381865afa158015610b56573d6000803e3d6000fd5b505050506040513d6000823e601f3d908101601f19168201604052610b7e919081019061257a565b604051602001610b8e91906125ff565b604051602081830303815290604052611317565b8051600e80546001600160a01b039283166001600160a01b0319918216179091556060830151600c8054919093169116179055600d829055610c037f0000000000000000000000000000000000000000000000000000000000000000610cf8565b610c2c7f0000000000000000000000000000000000000000000000000000000000000000610cf8565b610c34610477565b6107af6108d4565b606060078054806020026020016040519081016040528092919081815260200182805480156106d557602002820191906000526020600020905b81546001600160a01b03168152600190910190602001808311610c76575050505050905090565b6001600160a01b03918216600090815260016020908152604080832093909416825291909152205490565b6107af338383611353565b60606107df8383604051806060016040528060258152602001612d9560259139611435565b610d65816007805480602002602001604051908101604052809291908181526020018280548015610d5257602002820191906000526020600020905b81546001600160a01b03168152600190910190602001808311610d34575b50505050506114ad90919063ffffffff16565b610de457600780546001810182556000919091527fa66cc928b5edb82af9bd49922954155ab7b0942694bea4ce44661d9a8736c6880180546001600160a01b0319166001600160a01b0383161790556040517ff3e4c2c64e71e6ba2eaab9a599bced62f9eb91d2cda610bf41aa8c80ff2cf826906108a290839061211a565b50565b6001600160a01b038316610e0d5760405162461bcd60e51b815260040161085b90612654565b6001600160a01b038216610e335760405162461bcd60e51b815260040161085b906126a3565b6001600160a01b0380841660008181526001602090815260408083209487168084529490915290819020849055517f8c5be1e5ebec7d5bd14f71427d1e84f3dd0314c0f7b2291e5b200ac8c7c3b92590610e8e908590612016565b60405180910390a3505050565b600260055403610ebd5760405162461bcd60e51b815260040161085b906126e7565b6002600555565b610ecc611512565b6000610ed760025490565b60075490915060005b81811015610f2c57610f1a60078281548110610efe57610efe612377565b6000918252602090912001546001600160a01b03168585611589565b80610f2481612263565b915050610ee0565b50505050565b606080610f3d610c3c565b80519092508067ffffffffffffffff811115610f5b57610f5b6123c5565b604051908082528060200260200182016040528015610f84578160200160208202803683370190505b50915060005b81811015611092576000848281518110610fa657610fa6612377565b6020908102919091018101516001600160a01b038082166000908152600984526040808220928b16825291909352909120805491925090600160801b90046001600160801b0316801561107c578086858151811061100657611006612377565b602090810291909101015281546001600160801b03168083556040516001600160a01b0380861692908b16917fe3bdf7e684a4024370a702abfcca4a32b08642aadc27065f3356458bd23e977e916110609160009061272d565b60405180910390a361107c6001600160a01b0384168983611882565b505050808061108a90612263565b915050610f8a565b5050915091565b6110a1610e9b565b826001600160a01b0381166110c85760405162461bcd60e51b815260040161085b9061276c565b81156110f457604080518082019091526001600160a01b0386168152600060208201526110f490610ec4565b6110fe85846118a1565b6111088484611958565b836001600160a01b0316856001600160a01b0316336001600160a01b03167fa4195c37c2947bbe89165f03e320b6903116f0b10d8cfdb522330f7ce6f9fa24866040516111559190612016565b60405180910390a450610f2c6001600555565b60006111748484610c9d565b90506000198114610f2c578181101561119f5760405162461bcd60e51b815260040161085b906127b0565b610f2c8484848403610de7565b6111b4610e9b565b604080518082019091526001600160a01b038085168252831660208201526111db90610ec4565b6111e68383836119f6565b6106486001600555565b8015806112695750604051636eb1769f60e11b81526001600160a01b0384169063dd62ed3e9061122690309086906004016127c0565b602060405180830381865afa158015611243573d6000803e3d6000fd5b505050506040513d601f19601f820116820180604052508101906112679190612200565b155b6112855760405162461bcd60e51b815260040161085b9061282e565b6106488363095ea7b360e01b84846040516024016112a492919061283e565b60408051601f198184030181529190526020810180516001600160e01b03166001600160e01b031990931692909217909152611ae6565b600a6112e782826128e5565b507f12e9cab73c0c48661414f76e810af7d10c67f0db958722bf9f26b28a4b4afd69816040516108a29190611ef5565b600b61132382826128e5565b507f862f26027c5033c09d43eacd856547decb3227c210f6eb7b6bdc0cf5edaa3f4b816040516108a29190611ef5565b61135b610e9b565b816001600160a01b0381166113825760405162461bcd60e51b815260040161085b9061276c565b60065460ff16156113a55760405162461bcd60e51b815260040161085b906129d1565b604080518082019091526001600160a01b0384168152600060208201526113cb90610ec4565b6113d58383611b75565b6113df8483611c0b565b826001600160a01b0316846001600160a01b03167f8752a472e571a816aea92eec8dae9baf628e840f4929fbcc2d155e6233ff68a7846040516114229190612016565b60405180910390a3506106486001600555565b6060600080856001600160a01b03168560405161145291906129e1565b600060405180830381855afa9150503d806000811461148d576040519150601f19603f3d011682016040523d82523d6000602084013e611492565b606091505b50915091506114a386838387611cca565b9695505050505050565b6000805b8351811015611508578381815181106114cc576114cc612377565b60200260200101516001600160a01b0316836001600160a01b0316036114f6576001915050610737565b8061150081612263565b9150506114b1565b5060009392505050565b61151a610477565b600c546001600160a01b03166001600160a01b0316633d18b9126040518163ffffffff1660e01b81526004016020604051808303816000875af1158015611565573d6000803e3d6000fd5b505050506040513d601f19601f82011682018060405250810190610de491906129ed565b6001600160a01b038316600081815260086020526040808220805491516370a0823160e01b815290936001600160801b039092169291906370a08231906115d490309060040161211a565b602060405180830381865afa1580156115f1573d6000803e3d6000fd5b505050506040513d601f19601f820116820180604052508101906116159190612200565b835490915060009061163a9086908490600160801b90046001600160801b0316611d1b565b905080156117075761164c81846122bf565b84546001600160801b0319166001600160801b0382161785556040519093506001600160a01b038816907f64dcb34f2e45bc61753d72992aa4199ec96717158435e8085568ff38844bcd1c906116a3908690612016565b60405180910390a283546001600160801b03808416600160801b0291161784556040516001600160a01b038816907fdeb2652df61fdedd2d231dc4d777175097cc26369032d339be2a6db36d7754f2906116fe908590612016565b60405180910390a25b60005b600281101561187857600087826002811061172757611727612377565b60200201516001600160a01b031614611866576001600160a01b03881660009081526009602052604081208189846002811061176557611765612377565b602090810291909101516001600160a01b0316825281019190915260400160002080549091506001600160801b0316858110156118635760006117bf8a85600281106117b3576117b3612377565b60200201518884611d67565b83546117db9190600160801b90046001600160801b03166122bf565b6001600160801b03888116908216600160801b026001600160801b03191617845590506001600160a01b038b168a856002811061181a5761181a612377565b60200201516001600160a01b03167fe3bdf7e684a4024370a702abfcca4a32b08642aadc27065f3356458bd23e977e8984604051611859929190612a0e565b60405180910390a3505b50505b8061187081612263565b91505061170a565b5050505050505050565b6106488363a9059cbb60e01b84846040516024016112a492919061283e565b6001600160a01b0382166118c75760405162461bcd60e51b815260040161085b90612a5a565b6001600160a01b038216600090815260208190526040902054818110156119005760405162461bcd60e51b815260040161085b90612aa9565b6001600160a01b0383166000818152602081905260408082208585039055600280548690039055519091907fddf252ad1be2c89b69c2b068fc378daa952ba7f163c4a11628f55a4df523b3ef90610e8e908690612016565b600c54604051636197390160e11b81526001600160a01b039091169063c32e72029061198b908490600090600401612ab9565b6020604051808303816000875af11580156119aa573d6000803e3d6000fd5b505050506040513d601f19601f820116820180604052508101906119ce91906129ed565b506107af82826119e6600e546001600160a01b031690565b6001600160a01b03169190611882565b6001600160a01b038316611a1c5760405162461bcd60e51b815260040161085b90612b16565b6001600160a01b038216611a425760405162461bcd60e51b815260040161085b90612b66565b6001600160a01b03831660009081526020819052604090205481811015611a7b5760405162461bcd60e51b815260040161085b90612bb9565b6001600160a01b0380851660008181526020819052604080822086860390559286168082529083902080548601905591517fddf252ad1be2c89b69c2b068fc378daa952ba7f163c4a11628f55a4df523b3ef90611ad9908690612016565b60405180910390a3610f2c565b6000611b3b826040518060400160405280602081526020017f5361666545524332303a206c6f772d6c6576656c2063616c6c206661696c6564815250856001600160a01b0316611da99092919063ffffffff16565b8051909150156106485780806020019051810190611b5991906129ed565b6106485760405162461bcd60e51b815260040161085b90612c10565b6001600160a01b038216611b9b5760405162461bcd60e51b815260040161085b90612c54565b8060026000828254611bad91906122bf565b90915550506001600160a01b038216600081815260208190526040808220805485019055517fddf252ad1be2c89b69c2b068fc378daa952ba7f163c4a11628f55a4df523b3ef90611bff908590612016565b60405180910390a35050565b611c34823083611c23600e546001600160a01b031690565b6001600160a01b0316929190611db8565b600d546040516321d0683360e11b81526001600160a01b037f000000000000000000000000000000000000000000000000000000000000000016916343a0d06691611c8791908590600190600401612c64565b6020604051808303816000875af1158015611ca6573d6000803e3d6000fd5b505050506040513d601f19601f8201168201806040525081019061064891906129ed565b60608315611d09578251600003611d02576001600160a01b0385163b611d025760405162461bcd60e51b815260040161085b90612cc0565b5081611d13565b611d138383611dd9565b949350505050565b60008315611508576000611d2f838561230f565b90508015611d5c5784611d4a670de0b6b3a764000083612cd0565b611d549190612d05565b9150506107df565b505060009392505050565b6000670de0b6b3a7640000611d7c838561230f565b6001600160a01b038616600090815260208190526040902054611d9f9190612cd0565b611d139190612d05565b6060611d138484600085611e03565b610f2c846323b872dd60e01b8585856040516024016112a493929190612d19565b815115611de95781518083602001fd5b8060405162461bcd60e51b815260040161085b9190611ef5565b606082471015611e255760405162461bcd60e51b815260040161085b90612d84565b600080866001600160a01b03168587604051611e4191906129e1565b60006040518083038185875af1925050503d8060008114611e7e576040519150601f19603f3d011682016040523d82523d6000602084013e611e83565b606091505b5091509150611e9487838387611cca565b979650505050505050565b60005b83811015611eba578181015183820152602001611ea2565b50506000910152565b6000611ecd825190565b808452602084019350611ee4818560208601611e9f565b601f01601f19169290920192915050565b602080825281016107df8184611ec3565b60006001600160a01b038216610737565b611f2081611f06565b8114610de457600080fd5b803561073781611f17565b60008060408385031215611f4c57611f4c600080fd5b6000611f588585611f2b565b9250506020611f6985828601611f2b565b9150509250929050565b6001600160801b0381165b82525050565b80516040830190611f958482611f73565b506020820151610f2c6020850182611f73565b604081016107378284611f84565b80611f20565b803561073781611fb6565b60008060408385031215611fdd57611fdd600080fd5b6000611fe98585611f2b565b9250506020611f6985828601611fbc565b801515611f7e565b602081016107378284611ffa565b80611f7e565b602081016107378284612010565b60006020828403121561203957612039600080fd5b6000611d138484611f2b565b611f7e81611f06565b600061205a8383612045565b505060200190565b600061206c825190565b80845260209384019383018060005b838110156120a057815161208f888261204e565b97506020830192505060010161207b565b509495945050505050565b600061205a8383612010565b60006120c1825190565b80845260209384019383018060005b838110156120a05781516120e488826120ab565b9750602083019250506001016120d0565b604080825281016121068185612062565b90508181036020830152611d1381846120b7565b602081016107378284612045565b60008060006060848603121561214057612140600080fd5b600061214c8686611f2b565b935050602061215d86828701611f2b565b925050604061216e86828701611fbc565b9150509250925092565b60ff8116611f7e565b602081016107378284612178565b801515611f20565b80356107378161218f565b6000602082840312156121b7576121b7600080fd5b6000611d138484612197565b6000602082840312156121d8576121d8600080fd5b6000611d138484611fbc565b602080825281016107df8184612062565b805161073781611fb6565b60006020828403121561221557612215600080fd5b6000611d1384846121f5565b805161073781611f17565b60006020828403121561224157612241600080fd5b6000611d138484612221565b634e487b7160e01b600052601160045260246000fd5b600060001982036122765761227661224d565b5060010190565b634e487b7160e01b600052602260045260246000fd5b6002810460018216806122a757607f821691505b6020821081036122b9576122b961227d565b50919050565b808201808211156107375761073761224d565b60138152600060208201724f6e6c79206f776e65722063616c6c61626c6560681b815291505b5060200190565b60208082528101610737816122d2565b818103818111156107375761073761224d565b602581526000602082017f45524332303a2064656372656173656420616c6c6f77616e63652062656c6f77815264207a65726f60d81b602082015291505b5060400190565b6020808252810161073781612322565b634e487b7160e01b600052603260045260246000fd5b60118152600060208201701a5b9a5d0e88125b9a5d1a585b1a5e9959607a1b815291506122f8565b602080825281016107378161238d565b634e487b7160e01b600052604160045260246000fd5b601f19601f830116810181811067ffffffffffffffff82111715612401576124016123c5565b6040525050565b600061241360405190565b905061241f82826123db565b919050565b80516107378161218f565b600060c0828403121561244457612444600080fd5b61244e60c0612408565b9050600061245c8484612221565b825250602061246d84848301612221565b602083015250604061248184828501612221565b604083015250606061249584828501612221565b60608301525060806124a984828501612221565b60808301525060a06124bd84828501612424565b60a08301525092915050565b600060c082840312156124de576124de600080fd5b6000611d13848461242f565b600067ffffffffffffffff821115612504576125046123c5565b601f19601f83011660200192915050565b6000612528612523846124ea565b612408565b90508281526020810184848401111561254357612543600080fd5b61254e848285611e9f565b509392505050565b600082601f83011261256a5761256a600080fd5b8151611d13848260208601612515565b60006020828403121561258f5761258f600080fd5b815167ffffffffffffffff8111156125a9576125a9600080fd5b611d1384828501612556565b60006125bf825190565b6125cd818560208601611e9f565b9290920192915050565b6e022b73d3cb6b29029ba30b5b2b21d1608d1b81526000600f82015b91506107df82846125b5565b6273746b60e81b81526000600382016125f3565b602481526000602082017f45524332303a20617070726f76652066726f6d20746865207a65726f206164648152637265737360e01b60208201529150612360565b6020808252810161073781612613565b602281526000602082017f45524332303a20617070726f766520746f20746865207a65726f206164647265815261737360f01b60208201529150612360565b6020808252810161073781612664565b601f81526000602082017f5265656e7472616e637947756172643a207265656e7472616e742063616c6c00815291506122f8565b60208082528101610737816126b3565b600061073761270c6001600160801b03841681565b90565b611f7e816126f7565b600061073761270c8381565b611f7e81612718565b6040810161273b828561270f565b6107df6020830184612724565b600d81526000602082016c115b5c1d1e481858d8dbdd5b9d609a1b815291506122f8565b6020808252810161073781612748565b601d81526000602082017f45524332303a20696e73756666696369656e7420616c6c6f77616e6365000000815291506122f8565b602080825281016107378161277c565b604081016127ce8285612045565b6107df6020830184612045565b603681526000602082017f5361666545524332303a20617070726f76652066726f6d206e6f6e2d7a65726f81527520746f206e6f6e2d7a65726f20616c6c6f77616e636560501b60208201529150612360565b60208082528101610737816127db565b6040810161284c8285612045565b6107df6020830184612010565b61286283612718565b815460001960089490940293841b1916921b91909117905550565b6000610648818484612859565b818110156107af5761289d60008261287d565b60010161288a565b601f821115610648576000818152602090206020601f850104810160208510156128cc5750805b6128de6020601f86010483018261288a565b5050505050565b815167ffffffffffffffff8111156128ff576128ff6123c5565b6129098254612293565b6129148282856128a5565b6020601f83116001811461294857600084156129305750858201515b600019600886021c19811660028602178655506129a1565b600085815260208120601f198616915b828110156129785788850151825560209485019460019092019101612958565b868310156129945784890151600019601f89166008021c191682555b6001600288020188555050505b505050505050565b601181526000602082017017d7d9195c1bdcda5d0e8814185d5cd959607a1b815291506122f8565b60208082528101610737816129a9565b60006107df82846125b5565b600060208284031215612a0257612a02600080fd5b6000611d138484612424565b6040810161284c8285612010565b602181526000602082017f45524332303a206275726e2066726f6d20746865207a65726f206164647265738152607360f81b60208201529150612360565b6020808252810161073781612a1c565b602281526000602082017f45524332303a206275726e20616d6f756e7420657863656564732062616c616e815261636560f01b60208201529150612360565b6020808252810161073781612a6a565b60408101612ac78285612010565b6107df6020830184611ffa565b602581526000602082017f45524332303a207472616e736665722066726f6d20746865207a65726f206164815264647265737360d81b60208201529150612360565b6020808252810161073781612ad4565b602381526000602082017f45524332303a207472616e7366657220746f20746865207a65726f206164647281526265737360e81b60208201529150612360565b6020808252810161073781612b26565b602681526000602082017f45524332303a207472616e7366657220616d6f756e7420657863656564732062815265616c616e636560d01b60208201529150612360565b6020808252810161073781612b76565b602a81526000602082017f5361666545524332303a204552433230206f7065726174696f6e20646964206e8152691bdd081cdd58d8d9595960b21b60208201529150612360565b6020808252810161073781612bc9565b601f81526000602082017f45524332303a206d696e7420746f20746865207a65726f206164647265737300815291506122f8565b6020808252810161073781612c20565b60608101612c728286612010565b612c7f6020830185612010565b611d136040830184611ffa565b601d81526000602082017f416464726573733a2063616c6c20746f206e6f6e2d636f6e7472616374000000815291506122f8565b6020808252810161073781612c8c565b818102808215838204851417612ce857612ce861224d565b5092915050565b634e487b7160e01b600052601260045260246000fd5b600082612d1457612d14612cef565b500490565b60608101612d278286612045565b612d346020830185612045565b611d136040830184612010565b602681526000602082017f416464726573733a20696e73756666696369656e742062616c616e636520666f8152651c8818d85b1b60d21b60208201529150612360565b6020808252810161073781612d4156fe416464726573733a206c6f772d6c6576656c207374617469632063616c6c206661696c6564","linkReferences":{}},"methodIdentifiers":{"addExtraRewards()":"0663b22c","allowance(address,address)":"dd62ed3e","approve(address,uint256)":"095ea7b3","balanceOf(address)":"70a08231","claimRewardsFor(address)":"1ac6d19d","claimRewardsForWithoutCheckpoint(address)":"4c6cb622","decimals()":"313ce567","decreaseAllowance(address,uint256)":"a457c2d7","depositTo(address,uint256)":"ffaad6a5","getConvexPool()":"20c71810","getConvexPoolId()":"d12f8df0","getCurveLpToken()":"b899aea4","getRewardTokenAtIndex(uint256)":"a7d2793f","getRewardTokenCount()":"82e5d073","getRewardTokens()":"c4f59f9b","getTotalHarvestDataForRewardToken(address)":"9655dd61","getUserHarvestDataForRewardToken(address,address)":"093f6365","increaseAllowance(address,uint256)":"39509351","init(uint256)":"b7b0422d","isPaused()":"b187bd26","name()":"06fdde03","setApprovals()":"8757b15b","symbol()":"95d89b41","togglePause(bool)":"57d159c6","totalSupply()":"18160ddd","transfer(address,uint256)":"a9059cbb","transferFrom(address,address,uint256)":"23b872dd","withdrawTo(address,uint256)":"205c2878","withdrawToOnBehalf(address,address,uint256)":"7efe7210","withdrawToWithoutCheckpoint(address,uint256)":"2251ab5e"},"id":30}