{"abi":[{"type":"constructor","inputs":[{"name":"_owner","type":"address","internalType":"address"},{"name":"_convexBooster","type":"address","internalType":"address"},{"name":"_balToken","type":"address","internalType":"address"},{"name":"_auraToken","type":"address","internalType":"address"}],"stateMutability":"nonpayable"},{"type":"function","name":"addExtraRewards","inputs":[],"outputs":[],"stateMutability":"nonpayable"},{"type":"function","name":"allowance","inputs":[{"name":"owner","type":"address","internalType":"address"},{"name":"spender","type":"address","internalType":"address"}],"outputs":[{"name":"","type":"uint256","internalType":"uint256"}],"stateMutability":"view"},{"type":"function","name":"approve","inputs":[{"name":"spender","type":"address","internalType":"address"},{"name":"amount","type":"uint256","internalType":"uint256"}],"outputs":[{"name":"","type":"bool","internalType":"bool"}],"stateMutability":"nonpayable"},{"type":"function","name":"balanceOf","inputs":[{"name":"account","type":"address","internalType":"address"}],"outputs":[{"name":"","type":"uint256","internalType":"uint256"}],"stateMutability":"view"},{"type":"function","name":"claimRewardsFor","inputs":[{"name":"_for","type":"address","internalType":"address"}],"outputs":[{"name":"rewardTokens_","type":"address[]","internalType":"address[]"},{"name":"claimedAmounts_","type":"uint256[]","internalType":"uint256[]"}],"stateMutability":"nonpayable"},{"type":"function","name":"claimRewardsForWithoutCheckpoint","inputs":[{"name":"_for","type":"address","internalType":"address"}],"outputs":[{"name":"rewardTokens_","type":"address[]","internalType":"address[]"},{"name":"claimedAmounts_","type":"uint256[]","internalType":"uint256[]"}],"stateMutability":"nonpayable"},{"type":"function","name":"decimals","inputs":[],"outputs":[{"name":"decimals_","type":"uint8","internalType":"uint8"}],"stateMutability":"view"},{"type":"function","name":"decreaseAllowance","inputs":[{"name":"spender","type":"address","internalType":"address"},{"name":"subtractedValue","type":"uint256","internalType":"uint256"}],"outputs":[{"name":"","type":"bool","internalType":"bool"}],"stateMutability":"nonpayable"},{"type":"function","name":"depositTo","inputs":[{"name":"_to","type":"address","internalType":"address"},{"name":"_amount","type":"uint256","internalType":"uint256"}],"outputs":[],"stateMutability":"nonpayable"},{"type":"function","name":"getConvexPool","inputs":[],"outputs":[{"name":"convexPool_","type":"address","internalType":"address"}],"stateMutability":"view"},{"type":"function","name":"getConvexPoolId","inputs":[],"outputs":[{"name":"convexPoolId_","type":"uint256","internalType":"uint256"}],"stateMutability":"view"},{"type":"function","name":"getCurveLpToken","inputs":[],"outputs":[{"name":"curveLPToken_","type":"address","internalType":"address"}],"stateMutability":"view"},{"type":"function","name":"getRewardTokenAtIndex","inputs":[{"name":"_index","type":"uint256","internalType":"uint256"}],"outputs":[{"name":"rewardToken_","type":"address","internalType":"address"}],"stateMutability":"view"},{"type":"function","name":"getRewardTokenCount","inputs":[],"outputs":[{"name":"count_","type":"uint256","internalType":"uint256"}],"stateMutability":"view"},{"type":"function","name":"getRewardTokens","inputs":[],"outputs":[{"name":"rewardTokens_","type":"address[]","internalType":"address[]"}],"stateMutability":"view"},{"type":"function","name":"getTotalHarvestDataForRewardToken","inputs":[{"name":"_rewardToken","type":"address","internalType":"address"}],"outputs":[{"name":"totalHarvestData_","type":"tuple","internalType":"struct IStakingWrapper.TotalHarvestData","components":[{"name":"integral","type":"uint128","internalType":"uint128"},{"name":"lastCheckpointBalance","type":"uint128","internalType":"uint128"}]}],"stateMutability":"view"},{"type":"function","name":"getUserHarvestDataForRewardToken","inputs":[{"name":"_user","type":"address","internalType":"address"},{"name":"_rewardToken","type":"address","internalType":"address"}],"outputs":[{"name":"userHarvestData_","type":"tuple","internalType":"struct IStakingWrapper.UserHarvestData","components":[{"name":"integral","type":"uint128","internalType":"uint128"},{"name":"claimableReward","type":"uint128","internalType":"uint128"}]}],"stateMutability":"view"},{"type":"function","name":"increaseAllowance","inputs":[{"name":"spender","type":"address","internalType":"address"},{"name":"addedValue","type":"uint256","internalType":"uint256"}],"outputs":[{"name":"","type":"bool","internalType":"bool"}],"stateMutability":"nonpayable"},{"type":"function","name":"init","inputs":[{"name":"_pid","type":"uint256","internalType":"uint256"}],"outputs":[],"stateMutability":"nonpayable"},{"type":"function","name":"isPaused","inputs":[],"outputs":[{"name":"isPaused_","type":"bool","internalType":"bool"}],"stateMutability":"view"},{"type":"function","name":"name","inputs":[],"outputs":[{"name":"name_","type":"string","internalType":"string"}],"stateMutability":"view"},{"type":"function","name":"setApprovals","inputs":[],"outputs":[],"stateMutability":"nonpayable"},{"type":"function","name":"symbol","inputs":[],"outputs":[{"name":"symbol_","type":"string","internalType":"string"}],"stateMutability":"view"},{"type":"function","name":"togglePause","inputs":[{"name":"_isPaused","type":"bool","internalType":"bool"}],"outputs":[],"stateMutability":"nonpayable"},{"type":"function","name":"totalSupply","inputs":[],"outputs":[{"name":"","type":"uint256","internalType":"uint256"}],"stateMutability":"view"},{"type":"function","name":"transfer","inputs":[{"name":"to","type":"address","internalType":"address"},{"name":"amount","type":"uint256","internalType":"uint256"}],"outputs":[{"name":"","type":"bool","internalType":"bool"}],"stateMutability":"nonpayable"},{"type":"function","name":"transferFrom","inputs":[{"name":"from","type":"address","internalType":"address"},{"name":"to","type":"address","internalType":"address"},{"name":"amount","type":"uint256","internalType":"uint256"}],"outputs":[{"name":"","type":"bool","internalType":"bool"}],"stateMutability":"nonpayable"},{"type":"function","name":"withdrawTo","inputs":[{"name":"_to","type":"address","internalType":"address"},{"name":"_amount","type":"uint256","internalType":"uint256"}],"outputs":[],"stateMutability":"nonpayable"},{"type":"function","name":"withdrawToOnBehalf","inputs":[{"name":"_onBehalf","type":"address","internalType":"address"},{"name":"_to","type":"address","internalType":"address"},{"name":"_amount","type":"uint256","internalType":"uint256"}],"outputs":[],"stateMutability":"nonpayable"},{"type":"function","name":"withdrawToWithoutCheckpoint","inputs":[{"name":"_to","type":"address","internalType":"address"},{"name":"_amount","type":"uint256","internalType":"uint256"}],"outputs":[],"stateMutability":"nonpayable"},{"type":"event","name":"Approval","inputs":[{"name":"owner","type":"address","indexed":true,"internalType":"address"},{"name":"spender","type":"address","indexed":true,"internalType":"address"},{"name":"value","type":"uint256","indexed":false,"internalType":"uint256"}],"anonymous":false},{"type":"event","name":"Deposited","inputs":[{"name":"from","type":"address","indexed":true,"internalType":"address"},{"name":"to","type":"address","indexed":true,"internalType":"address"},{"name":"amount","type":"uint256","indexed":false,"internalType":"uint256"}],"anonymous":false},{"type":"event","name":"PauseToggled","inputs":[{"name":"isPaused","type":"bool","indexed":false,"internalType":"bool"}],"anonymous":false},{"type":"event","name":"RewardTokenAdded","inputs":[{"name":"token","type":"address","indexed":false,"internalType":"address"}],"anonymous":false},{"type":"event","name":"TokenNameSet","inputs":[{"name":"name","type":"string","indexed":false,"internalType":"string"}],"anonymous":false},{"type":"event","name":"TokenSymbolSet","inputs":[{"name":"symbol","type":"string","indexed":false,"internalType":"string"}],"anonymous":false},{"type":"event","name":"TotalHarvestIntegralUpdated","inputs":[{"name":"rewardToken","type":"address","indexed":true,"internalType":"address"},{"name":"integral","type":"uint256","indexed":false,"internalType":"uint256"}],"anonymous":false},{"type":"event","name":"TotalHarvestLastCheckpointBalanceUpdated","inputs":[{"name":"rewardToken","type":"address","indexed":true,"internalType":"address"},{"name":"lastCheckpointBalance","type":"uint256","indexed":false,"internalType":"uint256"}],"anonymous":false},{"type":"event","name":"Transfer","inputs":[{"name":"from","type":"address","indexed":true,"internalType":"address"},{"name":"to","type":"address","indexed":true,"internalType":"address"},{"name":"value","type":"uint256","indexed":false,"internalType":"uint256"}],"anonymous":false},{"type":"event","name":"UserHarvestUpdated","inputs":[{"name":"user","type":"address","indexed":true,"internalType":"address"},{"name":"rewardToken","type":"address","indexed":true,"internalType":"address"},{"name":"integral","type":"uint256","indexed":false,"internalType":"uint256"},{"name":"claimableReward","type":"uint256","indexed":false,"internalType":"uint256"}],"anonymous":false},{"type":"event","name":"Withdrawn","inputs":[{"name":"caller","type":"address","indexed":true,"internalType":"address"},{"name":"from","type":"address","indexed":true,"internalType":"address"},{"name":"to","type":"address","indexed":true,"internalType":"address"},{"name":"amount","type":"uint256","indexed":false,"internalType":"uint256"}],"anonymous":false}],"bytecode":{"object":"0x6101006040523480156200001257600080fd5b5060405162005531380380620055318339818101604052810190620000389190620001d8565b8383838383604051806020016040528060008152506040518060200160405280600081525081818160039081620000709190620004c4565b508060049081620000829190620004c4565b50505060016005819055508273ffffffffffffffffffffffffffffffffffffffff1660808173ffffffffffffffffffffffffffffffffffffffff16815250505050508273ffffffffffffffffffffffffffffffffffffffff1660a08173ffffffffffffffffffffffffffffffffffffffff16815250508173ffffffffffffffffffffffffffffffffffffffff1660c08173ffffffffffffffffffffffffffffffffffffffff16815250508073ffffffffffffffffffffffffffffffffffffffff1660e08173ffffffffffffffffffffffffffffffffffffffff16815250505050505050505050620005ab565b600080fd5b600073ffffffffffffffffffffffffffffffffffffffff82169050919050565b6000620001a08262000173565b9050919050565b620001b28162000193565b8114620001be57600080fd5b50565b600081519050620001d281620001a7565b92915050565b60008060008060808587031215620001f557620001f46200016e565b5b60006200020587828801620001c1565b94505060206200021887828801620001c1565b93505060406200022b87828801620001c1565b92505060606200023e87828801620001c1565b91505092959194509250565b600081519050919050565b7f4e487b7100000000000000000000000000000000000000000000000000000000600052604160045260246000fd5b7f4e487b7100000000000000000000000000000000000000000000000000000000600052602260045260246000fd5b60006002820490506001821680620002cc57607f821691505b602082108103620002e257620002e162000284565b5b50919050565b60008190508160005260206000209050919050565b60006020601f8301049050919050565b600082821b905092915050565b6000600883026200034c7fffffffffffffffffffffffffffffffffffffffffffffffffffffffffffffffff826200030d565b6200035886836200030d565b95508019841693508086168417925050509392505050565b6000819050919050565b6000819050919050565b6000620003a56200039f620003998462000370565b6200037a565b62000370565b9050919050565b6000819050919050565b620003c18362000384565b620003d9620003d082620003ac565b8484546200031a565b825550505050565b600090565b620003f0620003e1565b620003fd818484620003b6565b505050565b5b81811015620004255762000419600082620003e6565b60018101905062000403565b5050565b601f82111562000474576200043e81620002e8565b6200044984620002fd565b8101602085101562000459578190505b620004716200046885620002fd565b83018262000402565b50505b505050565b600082821c905092915050565b6000620004996000198460080262000479565b1980831691505092915050565b6000620004b4838362000486565b9150826002028217905092915050565b620004cf826200024a565b67ffffffffffffffff811115620004eb57620004ea62000255565b5b620004f78254620002b3565b6200050482828562000429565b600060209050601f8311600181146200053c576000841562000527578287015190505b620005338582620004a6565b865550620005a3565b601f1984166200054c86620002e8565b60005b8281101562000576578489015182556001820191506020850194506020810190506200054f565b8683101562000596578489015162000592601f89168262000486565b8355505b6001600288020188555050505b505050505050565b60805160a05160c05160e051614f3e620005f3600039600061130b015260006112e2015260008181610d1301528181611074015261300901526000610ba80152614f3e6000f3fe608060405234801561001057600080fd5b50600436106101da5760003560e01c80637efe721011610104578063a9059cbb116100a2578063c4f59f9b11610071578063c4f59f9b14610581578063d12f8df01461059f578063dd62ed3e146105bd578063ffaad6a5146105ed576101da565b8063a9059cbb146104f9578063b187bd2614610529578063b7b0422d14610547578063b899aea414610563576101da565b806395d89b41116100de57806395d89b411461044b5780639655dd6114610469578063a457c2d714610499578063a7d2793f146104c9576101da565b80637efe72101461040757806382e5d073146104235780638757b15b14610441576101da565b806320c718101161017c578063395093511161014b578063395093511461035a5780634c6cb6221461038a57806357d159c6146103bb57806370a08231146103d7576101da565b806320c71810146102d25780632251ab5e146102f057806323b872dd1461030c578063313ce5671461033c576101da565b8063095ea7b3116101b8578063095ea7b31461023757806318160ddd146102675780631ac6d19d14610285578063205c2878146102b6576101da565b80630663b22c146101df57806306fdde03146101e9578063093f636514610207575b600080fd5b6101e7610609565b005b6101f1610841565b6040516101fe91906134b0565b60405180910390f35b610221600480360381019061021c9190613544565b6108d3565b60405161022e91906135de565b60405180910390f35b610251600480360381019061024c919061362f565b6109fe565b60405161025e919061368a565b60405180910390f35b61026f610a21565b60405161027c91906136b4565b60405180910390f35b61029f600480360381019061029a91906136cf565b610a2b565b6040516102ad929190613878565b60405180910390f35b6102d060048036038101906102cb919061362f565b610ac6565b005b6102da610ad7565b6040516102e791906138be565b60405180910390f35b61030a6004803603810190610305919061362f565b610b01565b005b610326600480360381019061032191906138d9565b610b12565b604051610333919061368a565b60405180910390f35b610344610b41565b6040516103519190613948565b60405180910390f35b610374600480360381019061036f919061362f565b610b4a565b604051610381919061368a565b60405180910390f35b6103a4600480360381019061039f91906136cf565b610b81565b6040516103b2929190613878565b60405180910390f35b6103d560048036038101906103d0919061398f565b610ba6565b005b6103f160048036038101906103ec91906136cf565b610c88565b6040516103fe91906136b4565b60405180910390f35b610421600480360381019061041c91906138d9565b610cd0565b005b61042b610d01565b60405161043891906136b4565b60405180910390f35b610449610d0e565b005b610453610d82565b60405161046091906134b0565b60405180910390f35b610483600480360381019061047e91906136cf565b610e14565b60405161049091906139eb565b60405180910390f35b6104b360048036038101906104ae919061362f565b610f01565b6040516104c0919061368a565b60405180910390f35b6104e360048036038101906104de9190613a06565b610f78565b6040516104f091906138be565b60405180910390f35b610513600480360381019061050e919061362f565b610fc0565b604051610520919061368a565b60405180910390f35b610531610fe3565b60405161053e919061368a565b60405180910390f35b610561600480360381019061055c9190613a06565b610ffa565b005b61056b611343565b60405161057891906138be565b60405180910390f35b61058961136d565b6040516105969190613a33565b60405180910390f35b6105a76113fb565b6040516105b491906136b4565b60405180910390f35b6105d760048036038101906105d29190613544565b611405565b6040516105e491906136b4565b60405180910390f35b6106076004803603810190610602919061362f565b61148c565b005b6000610613610ad7565b905060008173ffffffffffffffffffffffffffffffffffffffff1663d55a23f46040518163ffffffff1660e01b8152600401602060405180830381865afa158015610662573d6000803e3d6000fd5b505050506040513d601f19601f820116820180604052508101906106869190613a6a565b905060005b8181101561083c5760008373ffffffffffffffffffffffffffffffffffffffff166340c35446836040518263ffffffff1660e01b81526004016106ce91906136b4565b602060405180830381865afa1580156106eb573d6000803e3d6000fd5b505050506040513d601f19601f8201168201806040525081019061070f9190613aac565b73ffffffffffffffffffffffffffffffffffffffff1663f7c618c16040518163ffffffff1660e01b8152600401602060405180830381865afa158015610759573d6000803e3d6000fd5b505050506040513d601f19601f8201168201806040525081019061077d9190613aac565b905061078761149b565b600d541061081f5760006108058261079d6114a4565b604051602401604051602081830303815290604052907bffffffffffffffffffffffffffffffffffffffffffffffffffffffff19166020820180517bffffffffffffffffffffffffffffffffffffffffffffffffffffffff83818316178352505050506114b3565b90508080602001905181019061081b9190613b17565b9150505b610828816114e0565b50808061083490613b73565b91505061068b565b505050565b6060600a805461085090613bea565b80601f016020809104026020016040519081016040528092919081815260200182805461087c90613bea565b80156108c95780601f1061089e576101008083540402835291602001916108c9565b820191906000526020600020905b8154815290600101906020018083116108ac57829003601f168201915b5050505050905090565b6108db6133a4565b600960008373ffffffffffffffffffffffffffffffffffffffff1673ffffffffffffffffffffffffffffffffffffffff16815260200190815260200160002060008473ffffffffffffffffffffffffffffffffffffffff1673ffffffffffffffffffffffffffffffffffffffff1681526020019081526020016000206040518060400160405290816000820160009054906101000a90046fffffffffffffffffffffffffffffffff166fffffffffffffffffffffffffffffffff166fffffffffffffffffffffffffffffffff1681526020016000820160109054906101000a90046fffffffffffffffffffffffffffffffff166fffffffffffffffffffffffffffffffff166fffffffffffffffffffffffffffffffff1681525050905092915050565b600080610a0961161b565b9050610a16818585611623565b600191505092915050565b6000600254905090565b606080610a366117ec565b610aac60405180604001604052808573ffffffffffffffffffffffffffffffffffffffff1673ffffffffffffffffffffffffffffffffffffffff168152602001600073ffffffffffffffffffffffffffffffffffffffff1673ffffffffffffffffffffffffffffffffffffffff1681525061183b565b610ab5836118c6565b91509150610ac1611b3b565b915091565b610ad33383836001611b45565b5050565b6000600c60009054906101000a900473ffffffffffffffffffffffffffffffffffffffff16905090565b610b0e3383836000611b45565b5050565b600080610b1d61161b565b9050610b2a858285611cd9565b610b35858585611d65565b60019150509392505050565b60006012905090565b600080610b5561161b565b9050610b76818585610b678589611405565b610b719190613c1b565b611623565b600191505092915050565b606080610b8c6117ec565b610b95836118c6565b91509150610ba1611b3b565b915091565b7f000000000000000000000000000000000000000000000000000000000000000073ffffffffffffffffffffffffffffffffffffffff163373ffffffffffffffffffffffffffffffffffffffff1614610c34576040517f08c379a0000000000000000000000000000000000000000000000000000000008152600401610c2b90613c9b565b60405180910390fd5b80600660006101000a81548160ff0219169083151502179055507f9077d36bc00859b5c3f320310707208543dd35092cb0a0fe117d0c6a558b148b81604051610c7d919061368a565b60405180910390a150565b60008060008373ffffffffffffffffffffffffffffffffffffffff1673ffffffffffffffffffffffffffffffffffffffff168152602001908152602001600020549050919050565b610cef833383610ce08733611405565b610cea9190613cbb565b611623565b610cfc8383836001611b45565b505050565b6000600780549050905090565b610d807f00000000000000000000000000000000000000000000000000000000000000007fffffffffffffffffffffffffffffffffffffffffffffffffffffffffffffffff610d5b611343565b73ffffffffffffffffffffffffffffffffffffffff16611dfa9092919063ffffffff16565b565b6060600b8054610d9190613bea565b80601f0160208091040260200160405190810160405280929190818152602001828054610dbd90613bea565b8015610e0a5780601f10610ddf57610100808354040283529160200191610e0a565b820191906000526020600020905b815481529060010190602001808311610ded57829003601f168201915b5050505050905090565b610e1c6133e2565b600860008373ffffffffffffffffffffffffffffffffffffffff1673ffffffffffffffffffffffffffffffffffffffff1681526020019081526020016000206040518060400160405290816000820160009054906101000a90046fffffffffffffffffffffffffffffffff166fffffffffffffffffffffffffffffffff166fffffffffffffffffffffffffffffffff1681526020016000820160109054906101000a90046fffffffffffffffffffffffffffffffff166fffffffffffffffffffffffffffffffff166fffffffffffffffffffffffffffffffff16815250509050919050565b600080610f0c61161b565b90506000610f1a8286611405565b905083811015610f5f576040517f08c379a0000000000000000000000000000000000000000000000000000000008152600401610f5690613d61565b60405180910390fd5b610f6c8286868403611623565b60019250505092915050565b600060078281548110610f8e57610f8d613d81565b5b9060005260206000200160009054906101000a900473ffffffffffffffffffffffffffffffffffffffff169050919050565b600080610fcb61161b565b9050610fd8818585611d65565b600191505092915050565b6000600660009054906101000a900460ff16905090565b600073ffffffffffffffffffffffffffffffffffffffff1661101a611343565b73ffffffffffffffffffffffffffffffffffffffff1614611070576040517f08c379a000000000000000000000000000000000000000000000000000000000815260040161106790613dfc565b60405180910390fd5b60007f000000000000000000000000000000000000000000000000000000000000000073ffffffffffffffffffffffffffffffffffffffff16631526fe27836040518263ffffffff1660e01b81526004016110cb91906136b4565b60c060405180830381865afa1580156110e8573d6000803e3d6000fd5b505050506040513d601f19601f8201168201806040525081019061110c9190613f51565b90506111ad816020015173ffffffffffffffffffffffffffffffffffffffff166306fdde036040518163ffffffff1660e01b8152600401600060405180830381865afa158015611160573d6000803e3d6000fd5b505050506040513d6000823e3d601f19601f820116820180604052508101906111899190614029565b60405160200161119991906140fa565b604051602081830303815290604052611f49565b61124c816020015173ffffffffffffffffffffffffffffffffffffffff166395d89b416040518163ffffffff1660e01b8152600401600060405180830381865afa1580156111ff573d6000803e3d6000fd5b505050506040513d6000823e3d601f19601f820116820180604052508101906112289190614029565b6040516020016112389190614168565b604051602081830303815290604052611f93565b8060000151600e60006101000a81548173ffffffffffffffffffffffffffffffffffffffff021916908373ffffffffffffffffffffffffffffffffffffffff1602179055508060600151600c60006101000a81548173ffffffffffffffffffffffffffffffffffffffff021916908373ffffffffffffffffffffffffffffffffffffffff16021790555081600d819055506113067f00000000000000000000000000000000000000000000000000000000000000006114e0565b61132f7f00000000000000000000000000000000000000000000000000000000000000006114e0565b611337610609565b61133f610d0e565b5050565b6000600e60009054906101000a900473ffffffffffffffffffffffffffffffffffffffff16905090565b606060078054806020026020016040519081016040528092919081815260200182805480156113f157602002820191906000526020600020905b8160009054906101000a900473ffffffffffffffffffffffffffffffffffffffff1673ffffffffffffffffffffffffffffffffffffffff16815260200190600101908083116113a7575b5050505050905090565b6000600d54905090565b6000600160008473ffffffffffffffffffffffffffffffffffffffff1673ffffffffffffffffffffffffffffffffffffffff16815260200190815260200160002060008373ffffffffffffffffffffffffffffffffffffffff1673ffffffffffffffffffffffffffffffffffffffff16815260200190815260200160002054905092915050565b611497338383611fdd565b5050565b60006030905090565b600063c55dae6360e01b905090565b60606114d88383604051806060016040528060258152602001614f196025913961219a565b905092915050565b61157981600780548060200260200160405190810160405280929190818152602001828054801561156657602002820191906000526020600020905b8160009054906101000a900473ffffffffffffffffffffffffffffffffffffffff1673ffffffffffffffffffffffffffffffffffffffff168152602001906001019080831161151c575b505050505061222090919063ffffffff16565b611618576007819080600181540180825580915050600190039060005260206000200160009091909190916101000a81548173ffffffffffffffffffffffffffffffffffffffff021916908373ffffffffffffffffffffffffffffffffffffffff1602179055507ff3e4c2c64e71e6ba2eaab9a599bced62f9eb91d2cda610bf41aa8c80ff2cf8268160405161160f91906138be565b60405180910390a15b50565b600033905090565b600073ffffffffffffffffffffffffffffffffffffffff168373ffffffffffffffffffffffffffffffffffffffff1603611692576040517f08c379a0000000000000000000000000000000000000000000000000000000008152600401611689906141fc565b60405180910390fd5b600073ffffffffffffffffffffffffffffffffffffffff168273ffffffffffffffffffffffffffffffffffffffff1603611701576040517f08c379a00000000000000000000000000000000000000000000000000000000081526004016116f89061428e565b60405180910390fd5b80600160008573ffffffffffffffffffffffffffffffffffffffff1673ffffffffffffffffffffffffffffffffffffffff16815260200190815260200160002060008473ffffffffffffffffffffffffffffffffffffffff1673ffffffffffffffffffffffffffffffffffffffff168152602001908152602001600020819055508173ffffffffffffffffffffffffffffffffffffffff168373ffffffffffffffffffffffffffffffffffffffff167f8c5be1e5ebec7d5bd14f71427d1e84f3dd0314c0f7b2291e5b200ac8c7c3b925836040516117df91906136b4565b60405180910390a3505050565b600260055403611831576040517f08c379a0000000000000000000000000000000000000000000000000000000008152600401611828906142fa565b60405180910390fd5b6002600581905550565b6118436122a3565b600061184d610a21565b90506000600780549050905060005b818110156118c0576118ad6007828154811061187b5761187a613d81565b5b9060005260206000200160009054906101000a900473ffffffffffffffffffffffffffffffffffffffff168585612326565b80806118b890613b73565b91505061185c565b50505050565b6060806118d161136d565b91506000825190508067ffffffffffffffff8111156118f3576118f2613e21565b5b6040519080825280602002602001820160405280156119215781602001602082028036833780820191505090505b50915060005b81811015611b3457600084828151811061194457611943613d81565b5b602002602001015190506000600960008373ffffffffffffffffffffffffffffffffffffffff1673ffffffffffffffffffffffffffffffffffffffff16815260200190815260200160002060008873ffffffffffffffffffffffffffffffffffffffff1673ffffffffffffffffffffffffffffffffffffffff168152602001908152602001600020905060008160000160109054906101000a90046fffffffffffffffffffffffffffffffff166fffffffffffffffffffffffffffffffff1690506000811115611b1e5780868581518110611a2257611a21613d81565b5b60200260200101818152505060008260000160106101000a8154816fffffffffffffffffffffffffffffffff02191690836fffffffffffffffffffffffffffffffff1602179055508273ffffffffffffffffffffffffffffffffffffffff168873ffffffffffffffffffffffffffffffffffffffff167fe3bdf7e684a4024370a702abfcca4a32b08642aadc27065f3356458bd23e977e8460000160009054906101000a90046fffffffffffffffffffffffffffffffff166000604051611aea929190614390565b60405180910390a3611b1d88828573ffffffffffffffffffffffffffffffffffffffff166128309092919063ffffffff16565b5b5050508080611b2c90613b73565b915050611927565b5050915091565b6001600581905550565b611b4d6117ec565b82600073ffffffffffffffffffffffffffffffffffffffff168173ffffffffffffffffffffffffffffffffffffffff1603611bbd576040517f08c379a0000000000000000000000000000000000000000000000000000000008152600401611bb490614405565b60405180910390fd5b8115611c3a57611c3960405180604001604052808773ffffffffffffffffffffffffffffffffffffffff1673ffffffffffffffffffffffffffffffffffffffff168152602001600073ffffffffffffffffffffffffffffffffffffffff1673ffffffffffffffffffffffffffffffffffffffff1681525061183b565b5b611c4485846128b6565b611c4e8484612a83565b8373ffffffffffffffffffffffffffffffffffffffff168573ffffffffffffffffffffffffffffffffffffffff163373ffffffffffffffffffffffffffffffffffffffff167fa4195c37c2947bbe89165f03e320b6903116f0b10d8cfdb522330f7ce6f9fa2486604051611cc291906136b4565b60405180910390a450611cd3611b3b565b50505050565b6000611ce58484611405565b90507fffffffffffffffffffffffffffffffffffffffffffffffffffffffffffffffff8114611d5f5781811015611d51576040517f08c379a0000000000000000000000000000000000000000000000000000000008152600401611d4890614471565b60405180910390fd5b611d5e8484848403611623565b5b50505050565b611d6d6117ec565b611de260405180604001604052808573ffffffffffffffffffffffffffffffffffffffff1673ffffffffffffffffffffffffffffffffffffffff1681526020018473ffffffffffffffffffffffffffffffffffffffff1673ffffffffffffffffffffffffffffffffffffffff1681525061183b565b611ded838383612b40565b611df5611b3b565b505050565b6000811480611e84575060008373ffffffffffffffffffffffffffffffffffffffff1663dd62ed3e30856040518363ffffffff1660e01b8152600401611e41929190614491565b602060405180830381865afa158015611e5e573d6000803e3d6000fd5b505050506040513d601f19601f82011682018060405250810190611e829190613a6a565b145b611ec3576040517f08c379a0000000000000000000000000000000000000000000000000000000008152600401611eba9061452c565b60405180910390fd5b611f448363095ea7b360e01b8484604051602401611ee292919061454c565b604051602081830303815290604052907bffffffffffffffffffffffffffffffffffffffffffffffffffffffff19166020820180517bffffffffffffffffffffffffffffffffffffffffffffffffffffffff8381831617835250505050612db6565b505050565b80600a9081611f589190614717565b507f12e9cab73c0c48661414f76e810af7d10c67f0db958722bf9f26b28a4b4afd6981604051611f8891906134b0565b60405180910390a150565b80600b9081611fa29190614717565b507f862f26027c5033c09d43eacd856547decb3227c210f6eb7b6bdc0cf5edaa3f4b81604051611fd291906134b0565b60405180910390a150565b611fe56117ec565b81600073ffffffffffffffffffffffffffffffffffffffff168173ffffffffffffffffffffffffffffffffffffffff1603612055576040517f08c379a000000000000000000000000000000000000000000000000000000000815260040161204c90614405565b60405180910390fd5b61205d610fe3565b1561209d576040517f08c379a000000000000000000000000000000000000000000000000000000000815260040161209490614835565b60405180910390fd5b61211360405180604001604052808573ffffffffffffffffffffffffffffffffffffffff1673ffffffffffffffffffffffffffffffffffffffff168152602001600073ffffffffffffffffffffffffffffffffffffffff1673ffffffffffffffffffffffffffffffffffffffff1681525061183b565b61211d8383612e7d565b6121278483612fd3565b8273ffffffffffffffffffffffffffffffffffffffff168473ffffffffffffffffffffffffffffffffffffffff167f8752a472e571a816aea92eec8dae9baf628e840f4929fbcc2d155e6233ff68a78460405161218491906136b4565b60405180910390a350612195611b3b565b505050565b60606000808573ffffffffffffffffffffffffffffffffffffffff16856040516121c4919061489c565b600060405180830381855afa9150503d80600081146121ff576040519150601f19603f3d011682016040523d82523d6000602084013e612204565b606091505b5091509150612215868383876130af565b925050509392505050565b6000805b8351811015612297578381815181106122405761223f613d81565b5b602002602001015173ffffffffffffffffffffffffffffffffffffffff168373ffffffffffffffffffffffffffffffffffffffff160361228457600191505061229d565b808061228f90613b73565b915050612224565b50600090505b92915050565b6122ab610609565b6122b3610ad7565b73ffffffffffffffffffffffffffffffffffffffff16633d18b9126040518163ffffffff1660e01b81526004016020604051808303816000875af11580156122ff573d6000803e3d6000fd5b505050506040513d601f19601f8201168201806040525081019061232391906148b3565b50565b6000600860008573ffffffffffffffffffffffffffffffffffffffff1673ffffffffffffffffffffffffffffffffffffffff168152602001908152602001600020905060008160000160009054906101000a90046fffffffffffffffffffffffffffffffff166fffffffffffffffffffffffffffffffff16905060008573ffffffffffffffffffffffffffffffffffffffff166370a08231306040518263ffffffff1660e01b81526004016123db91906138be565b602060405180830381865afa1580156123f8573d6000803e3d6000fd5b505050506040513d601f19601f8201168201806040525081019061241c9190613a6a565b9050600061245d85838660000160109054906101000a90046fffffffffffffffffffffffffffffffff166fffffffffffffffffffffffffffffffff16613124565b905060008111156125895780836124749190613c1b565b9250828460000160006101000a8154816fffffffffffffffffffffffffffffffff02191690836fffffffffffffffffffffffffffffffff1602179055508673ffffffffffffffffffffffffffffffffffffffff167f64dcb34f2e45bc61753d72992aa4199ec96717158435e8085568ff38844bcd1c846040516124f791906136b4565b60405180910390a2818460000160106101000a8154816fffffffffffffffffffffffffffffffff02191690836fffffffffffffffffffffffffffffffff1602179055508673ffffffffffffffffffffffffffffffffffffffff167fdeb2652df61fdedd2d231dc4d777175097cc26369032d339be2a6db36d7754f28360405161258091906136b4565b60405180910390a25b60005b600281101561282657600073ffffffffffffffffffffffffffffffffffffffff168782600281106125c0576125bf613d81565b5b602002015173ffffffffffffffffffffffffffffffffffffffff160315612813576000600960008a73ffffffffffffffffffffffffffffffffffffffff1673ffffffffffffffffffffffffffffffffffffffff168152602001908152602001600020600089846002811061263757612636613d81565b5b602002015173ffffffffffffffffffffffffffffffffffffffff1673ffffffffffffffffffffffffffffffffffffffff168152602001908152602001600020905060008160000160009054906101000a90046fffffffffffffffffffffffffffffffff166fffffffffffffffffffffffffffffffff169050858110156128105760006126db8a85600281106126cf576126ce613d81565b5b6020020151888461317c565b8360000160109054906101000a90046fffffffffffffffffffffffffffffffff166fffffffffffffffffffffffffffffffff166127189190613c1b565b9050808360000160106101000a8154816fffffffffffffffffffffffffffffffff02191690836fffffffffffffffffffffffffffffffff160217905550868360000160006101000a8154816fffffffffffffffffffffffffffffffff02191690836fffffffffffffffffffffffffffffffff1602179055508a73ffffffffffffffffffffffffffffffffffffffff168a85600281106127ba576127b9613d81565b5b602002015173ffffffffffffffffffffffffffffffffffffffff167fe3bdf7e684a4024370a702abfcca4a32b08642aadc27065f3356458bd23e977e89846040516128069291906148e0565b60405180910390a3505b50505b808061281e90613b73565b91505061258c565b5050505050505050565b6128b18363a9059cbb60e01b848460405160240161284f92919061454c565b604051602081830303815290604052907bffffffffffffffffffffffffffffffffffffffffffffffffffffffff19166020820180517bffffffffffffffffffffffffffffffffffffffffffffffffffffffff8381831617835250505050612db6565b505050565b600073ffffffffffffffffffffffffffffffffffffffff168273ffffffffffffffffffffffffffffffffffffffff1603612925576040517f08c379a000000000000000000000000000000000000000000000000000000000815260040161291c9061497b565b60405180910390fd5b612931826000836131b9565b60008060008473ffffffffffffffffffffffffffffffffffffffff1673ffffffffffffffffffffffffffffffffffffffff168152602001908152602001600020549050818110156129b7576040517f08c379a00000000000000000000000000000000000000000000000000000000081526004016129ae90614a0d565b60405180910390fd5b8181036000808573ffffffffffffffffffffffffffffffffffffffff1673ffffffffffffffffffffffffffffffffffffffff1681526020019081526020016000208190555081600260008282540392505081905550600073ffffffffffffffffffffffffffffffffffffffff168373ffffffffffffffffffffffffffffffffffffffff167fddf252ad1be2c89b69c2b068fc378daa952ba7f163c4a11628f55a4df523b3ef84604051612a6a91906136b4565b60405180910390a3612a7e836000846131be565b505050565b612a8b610ad7565b73ffffffffffffffffffffffffffffffffffffffff1663c32e72028260006040518363ffffffff1660e01b8152600401612ac6929190614a2d565b6020604051808303816000875af1158015612ae5573d6000803e3d6000fd5b505050506040513d601f19601f82011682018060405250810190612b0991906148b3565b50612b3c8282612b17611343565b73ffffffffffffffffffffffffffffffffffffffff166128309092919063ffffffff16565b5050565b600073ffffffffffffffffffffffffffffffffffffffff168373ffffffffffffffffffffffffffffffffffffffff1603612baf576040517f08c379a0000000000000000000000000000000000000000000000000000000008152600401612ba690614ac8565b60405180910390fd5b600073ffffffffffffffffffffffffffffffffffffffff168273ffffffffffffffffffffffffffffffffffffffff1603612c1e576040517f08c379a0000000000000000000000000000000000000000000000000000000008152600401612c1590614b5a565b60405180910390fd5b612c298383836131b9565b60008060008573ffffffffffffffffffffffffffffffffffffffff1673ffffffffffffffffffffffffffffffffffffffff16815260200190815260200160002054905081811015612caf576040517f08c379a0000000000000000000000000000000000000000000000000000000008152600401612ca690614bec565b60405180910390fd5b8181036000808673ffffffffffffffffffffffffffffffffffffffff1673ffffffffffffffffffffffffffffffffffffffff16815260200190815260200160002081905550816000808573ffffffffffffffffffffffffffffffffffffffff1673ffffffffffffffffffffffffffffffffffffffff168152602001908152602001600020600082825401925050819055508273ffffffffffffffffffffffffffffffffffffffff168473ffffffffffffffffffffffffffffffffffffffff167fddf252ad1be2c89b69c2b068fc378daa952ba7f163c4a11628f55a4df523b3ef84604051612d9d91906136b4565b60405180910390a3612db08484846131be565b50505050565b6000612e18826040518060400160405280602081526020017f5361666545524332303a206c6f772d6c6576656c2063616c6c206661696c65648152508573ffffffffffffffffffffffffffffffffffffffff166131c39092919063ffffffff16565b9050600081511115612e785780806020019051810190612e3891906148b3565b612e77576040517f08c379a0000000000000000000000000000000000000000000000000000000008152600401612e6e90614c7e565b60405180910390fd5b5b505050565b600073ffffffffffffffffffffffffffffffffffffffff168273ffffffffffffffffffffffffffffffffffffffff1603612eec576040517f08c379a0000000000000000000000000000000000000000000000000000000008152600401612ee390614cea565b60405180910390fd5b612ef8600083836131b9565b8060026000828254612f0a9190613c1b565b92505081905550806000808473ffffffffffffffffffffffffffffffffffffffff1673ffffffffffffffffffffffffffffffffffffffff168152602001908152602001600020600082825401925050819055508173ffffffffffffffffffffffffffffffffffffffff16600073ffffffffffffffffffffffffffffffffffffffff167fddf252ad1be2c89b69c2b068fc378daa952ba7f163c4a11628f55a4df523b3ef83604051612fbb91906136b4565b60405180910390a3612fcf600083836131be565b5050565b613007823083612fe1611343565b73ffffffffffffffffffffffffffffffffffffffff166131db909392919063ffffffff16565b7f000000000000000000000000000000000000000000000000000000000000000073ffffffffffffffffffffffffffffffffffffffff166343a0d066600d548360016040518463ffffffff1660e01b815260040161306793929190614d0a565b6020604051808303816000875af1158015613086573d6000803e3d6000fd5b505050506040513d601f19601f820116820180604052508101906130aa91906148b3565b505050565b60608315613111576000835103613109576130c985613264565b613108576040517f08c379a00000000000000000000000000000000000000000000000000000000081526004016130ff90614d8d565b60405180910390fd5b5b82905061311c565b61311b8383613287565b5b949350505050565b600080841115613170576000828461313c9190613cbb565b9050600081111561316e5784670de0b6b3a76400008261315c9190614dad565b6131669190614e1e565b915050613175565b505b600090505b9392505050565b6000670de0b6b3a764000082846131939190613cbb565b61319c86610c88565b6131a69190614dad565b6131b09190614e1e565b90509392505050565b505050565b505050565b60606131d284846000856132d7565b90509392505050565b61325e846323b872dd60e01b8585856040516024016131fc93929190614e4f565b604051602081830303815290604052907bffffffffffffffffffffffffffffffffffffffffffffffffffffffff19166020820180517bffffffffffffffffffffffffffffffffffffffffffffffffffffffff8381831617835250505050612db6565b50505050565b6000808273ffffffffffffffffffffffffffffffffffffffff163b119050919050565b60008251111561329a5781518083602001fd5b806040517f08c379a00000000000000000000000000000000000000000000000000000000081526004016132ce91906134b0565b60405180910390fd5b60608247101561331c576040517f08c379a000000000000000000000000000000000000000000000000000000000815260040161331390614ef8565b60405180910390fd5b6000808673ffffffffffffffffffffffffffffffffffffffff168587604051613345919061489c565b60006040518083038185875af1925050503d8060008114613382576040519150601f19603f3d011682016040523d82523d6000602084013e613387565b606091505b5091509150613398878383876130af565b92505050949350505050565b604051806040016040528060006fffffffffffffffffffffffffffffffff16815260200160006fffffffffffffffffffffffffffffffff1681525090565b604051806040016040528060006fffffffffffffffffffffffffffffffff16815260200160006fffffffffffffffffffffffffffffffff1681525090565b600081519050919050565b600082825260208201905092915050565b60005b8381101561345a57808201518184015260208101905061343f565b60008484015250505050565b6000601f19601f8301169050919050565b600061348282613420565b61348c818561342b565b935061349c81856020860161343c565b6134a581613466565b840191505092915050565b600060208201905081810360008301526134ca8184613477565b905092915050565b6000604051905090565b600080fd5b600080fd5b600073ffffffffffffffffffffffffffffffffffffffff82169050919050565b6000613511826134e6565b9050919050565b61352181613506565b811461352c57600080fd5b50565b60008135905061353e81613518565b92915050565b6000806040838503121561355b5761355a6134dc565b5b60006135698582860161352f565b925050602061357a8582860161352f565b9150509250929050565b60006fffffffffffffffffffffffffffffffff82169050919050565b6135a981613584565b82525050565b6040820160008201516135c560008501826135a0565b5060208201516135d860208501826135a0565b50505050565b60006040820190506135f360008301846135af565b92915050565b6000819050919050565b61360c816135f9565b811461361757600080fd5b50565b60008135905061362981613603565b92915050565b60008060408385031215613646576136456134dc565b5b60006136548582860161352f565b92505060206136658582860161361a565b9150509250929050565b60008115159050919050565b6136848161366f565b82525050565b600060208201905061369f600083018461367b565b92915050565b6136ae816135f9565b82525050565b60006020820190506136c960008301846136a5565b92915050565b6000602082840312156136e5576136e46134dc565b5b60006136f38482850161352f565b91505092915050565b600081519050919050565b600082825260208201905092915050565b6000819050602082019050919050565b61373181613506565b82525050565b60006137438383613728565b60208301905092915050565b6000602082019050919050565b6000613767826136fc565b6137718185613707565b935061377c83613718565b8060005b838110156137ad5781516137948882613737565b975061379f8361374f565b925050600181019050613780565b5085935050505092915050565b600081519050919050565b600082825260208201905092915050565b6000819050602082019050919050565b6137ef816135f9565b82525050565b600061380183836137e6565b60208301905092915050565b6000602082019050919050565b6000613825826137ba565b61382f81856137c5565b935061383a836137d6565b8060005b8381101561386b57815161385288826137f5565b975061385d8361380d565b92505060018101905061383e565b5085935050505092915050565b60006040820190508181036000830152613892818561375c565b905081810360208301526138a6818461381a565b90509392505050565b6138b881613506565b82525050565b60006020820190506138d360008301846138af565b92915050565b6000806000606084860312156138f2576138f16134dc565b5b60006139008682870161352f565b93505060206139118682870161352f565b92505060406139228682870161361a565b9150509250925092565b600060ff82169050919050565b6139428161392c565b82525050565b600060208201905061395d6000830184613939565b92915050565b61396c8161366f565b811461397757600080fd5b50565b60008135905061398981613963565b92915050565b6000602082840312156139a5576139a46134dc565b5b60006139b38482850161397a565b91505092915050565b6040820160008201516139d260008501826135a0565b5060208201516139e560208501826135a0565b50505050565b6000604082019050613a0060008301846139bc565b92915050565b600060208284031215613a1c57613a1b6134dc565b5b6000613a2a8482850161361a565b91505092915050565b60006020820190508181036000830152613a4d818461375c565b905092915050565b600081519050613a6481613603565b92915050565b600060208284031215613a8057613a7f6134dc565b5b6000613a8e84828501613a55565b91505092915050565b600081519050613aa681613518565b92915050565b600060208284031215613ac257613ac16134dc565b5b6000613ad084828501613a97565b91505092915050565b6000613ae4826134e6565b9050919050565b613af481613ad9565b8114613aff57600080fd5b50565b600081519050613b1181613aeb565b92915050565b600060208284031215613b2d57613b2c6134dc565b5b6000613b3b84828501613b02565b91505092915050565b7f4e487b7100000000000000000000000000000000000000000000000000000000600052601160045260246000fd5b6000613b7e826135f9565b91507fffffffffffffffffffffffffffffffffffffffffffffffffffffffffffffffff8203613bb057613baf613b44565b5b600182019050919050565b7f4e487b7100000000000000000000000000000000000000000000000000000000600052602260045260246000fd5b60006002820490506001821680613c0257607f821691505b602082108103613c1557613c14613bbb565b5b50919050565b6000613c26826135f9565b9150613c31836135f9565b9250828201905080821115613c4957613c48613b44565b5b92915050565b7f4f6e6c79206f776e65722063616c6c61626c6500000000000000000000000000600082015250565b6000613c8560138361342b565b9150613c9082613c4f565b602082019050919050565b60006020820190508181036000830152613cb481613c78565b9050919050565b6000613cc6826135f9565b9150613cd1836135f9565b9250828203905081811115613ce957613ce8613b44565b5b92915050565b7f45524332303a2064656372656173656420616c6c6f77616e63652062656c6f7760008201527f207a65726f000000000000000000000000000000000000000000000000000000602082015250565b6000613d4b60258361342b565b9150613d5682613cef565b604082019050919050565b60006020820190508181036000830152613d7a81613d3e565b9050919050565b7f4e487b7100000000000000000000000000000000000000000000000000000000600052603260045260246000fd5b7f696e69743a20496e697469616c697a6564000000000000000000000000000000600082015250565b6000613de660118361342b565b9150613df182613db0565b602082019050919050565b60006020820190508181036000830152613e1581613dd9565b9050919050565b600080fd5b7f4e487b7100000000000000000000000000000000000000000000000000000000600052604160045260246000fd5b613e5982613466565b810181811067ffffffffffffffff82111715613e7857613e77613e21565b5b80604052505050565b6000613e8b6134d2565b9050613e978282613e50565b919050565b600081519050613eab81613963565b92915050565b600060c08284031215613ec757613ec6613e1c565b5b613ed160c0613e81565b90506000613ee184828501613a97565b6000830152506020613ef584828501613a97565b6020830152506040613f0984828501613a97565b6040830152506060613f1d84828501613a97565b6060830152506080613f3184828501613a97565b60808301525060a0613f4584828501613e9c565b60a08301525092915050565b600060c08284031215613f6757613f666134dc565b5b6000613f7584828501613eb1565b91505092915050565b600080fd5b600080fd5b600067ffffffffffffffff821115613fa357613fa2613e21565b5b613fac82613466565b9050602081019050919050565b6000613fcc613fc784613f88565b613e81565b905082815260208101848484011115613fe857613fe7613f83565b5b613ff384828561343c565b509392505050565b600082601f8301126140105761400f613f7e565b5b8151614020848260208601613fb9565b91505092915050565b60006020828403121561403f5761403e6134dc565b5b600082015167ffffffffffffffff81111561405d5761405c6134e1565b5b61406984828501613ffb565b91505092915050565b600081905092915050565b7f456e7a796d65205374616b65643a200000000000000000000000000000000000600082015250565b60006140b3600f83614072565b91506140be8261407d565b600f82019050919050565b60006140d482613420565b6140de8185614072565b93506140ee81856020860161343c565b80840191505092915050565b6000614105826140a6565b915061411182846140c9565b915081905092915050565b7f73746b0000000000000000000000000000000000000000000000000000000000600082015250565b6000614152600383614072565b915061415d8261411c565b600382019050919050565b600061417382614145565b915061417f82846140c9565b915081905092915050565b7f45524332303a20617070726f76652066726f6d20746865207a65726f2061646460008201527f7265737300000000000000000000000000000000000000000000000000000000602082015250565b60006141e660248361342b565b91506141f18261418a565b604082019050919050565b60006020820190508181036000830152614215816141d9565b9050919050565b7f45524332303a20617070726f766520746f20746865207a65726f20616464726560008201527f7373000000000000000000000000000000000000000000000000000000000000602082015250565b600061427860228361342b565b91506142838261421c565b604082019050919050565b600060208201905081810360008301526142a78161426b565b9050919050565b7f5265656e7472616e637947756172643a207265656e7472616e742063616c6c00600082015250565b60006142e4601f8361342b565b91506142ef826142ae565b602082019050919050565b60006020820190508181036000830152614313816142d7565b9050919050565b6000819050919050565b600061433f61433a61433584613584565b61431a565b6135f9565b9050919050565b61434f81614324565b82525050565b6000819050919050565b600061437a61437561437084614355565b61431a565b6135f9565b9050919050565b61438a8161435f565b82525050565b60006040820190506143a56000830185614346565b6143b26020830184614381565b9392505050565b7f456d707479206163636f756e7400000000000000000000000000000000000000600082015250565b60006143ef600d8361342b565b91506143fa826143b9565b602082019050919050565b6000602082019050818103600083015261441e816143e2565b9050919050565b7f45524332303a20696e73756666696369656e7420616c6c6f77616e6365000000600082015250565b600061445b601d8361342b565b915061446682614425565b602082019050919050565b6000602082019050818103600083015261448a8161444e565b9050919050565b60006040820190506144a660008301856138af565b6144b360208301846138af565b9392505050565b7f5361666545524332303a20617070726f76652066726f6d206e6f6e2d7a65726f60008201527f20746f206e6f6e2d7a65726f20616c6c6f77616e636500000000000000000000602082015250565b600061451660368361342b565b9150614521826144ba565b604082019050919050565b6000602082019050818103600083015261454581614509565b9050919050565b600060408201905061456160008301856138af565b61456e60208301846136a5565b9392505050565b60008190508160005260206000209050919050565b60006020601f8301049050919050565b600082821b905092915050565b6000600883026145d77fffffffffffffffffffffffffffffffffffffffffffffffffffffffffffffffff8261459a565b6145e1868361459a565b95508019841693508086168417925050509392505050565b600061461461460f61460a846135f9565b61431a565b6135f9565b9050919050565b6000819050919050565b61462e836145f9565b61464261463a8261461b565b8484546145a7565b825550505050565b600090565b61465761464a565b614662818484614625565b505050565b5b818110156146865761467b60008261464f565b600181019050614668565b5050565b601f8211156146cb5761469c81614575565b6146a58461458a565b810160208510156146b4578190505b6146c86146c08561458a565b830182614667565b50505b505050565b600082821c905092915050565b60006146ee600019846008026146d0565b1980831691505092915050565b600061470783836146dd565b9150826002028217905092915050565b61472082613420565b67ffffffffffffffff81111561473957614738613e21565b5b6147438254613bea565b61474e82828561468a565b600060209050601f831160018114614781576000841561476f578287015190505b61477985826146fb565b8655506147e1565b601f19841661478f86614575565b60005b828110156147b757848901518255600182019150602085019450602081019050614792565b868310156147d457848901516147d0601f8916826146dd565b8355505b6001600288020188555050505b505050505050565b7f5f5f6465706f7369743a20506175736564000000000000000000000000000000600082015250565b600061481f60118361342b565b915061482a826147e9565b602082019050919050565b6000602082019050818103600083015261484e81614812565b9050919050565b600081519050919050565b600081905092915050565b600061487682614855565b6148808185614860565b935061489081856020860161343c565b80840191505092915050565b60006148a8828461486b565b915081905092915050565b6000602082840312156148c9576148c86134dc565b5b60006148d784828501613e9c565b91505092915050565b60006040820190506148f560008301856136a5565b61490260208301846136a5565b9392505050565b7f45524332303a206275726e2066726f6d20746865207a65726f2061646472657360008201527f7300000000000000000000000000000000000000000000000000000000000000602082015250565b600061496560218361342b565b915061497082614909565b604082019050919050565b6000602082019050818103600083015261499481614958565b9050919050565b7f45524332303a206275726e20616d6f756e7420657863656564732062616c616e60008201527f6365000000000000000000000000000000000000000000000000000000000000602082015250565b60006149f760228361342b565b9150614a028261499b565b604082019050919050565b60006020820190508181036000830152614a26816149ea565b9050919050565b6000604082019050614a4260008301856136a5565b614a4f602083018461367b565b9392505050565b7f45524332303a207472616e736665722066726f6d20746865207a65726f20616460008201527f6472657373000000000000000000000000000000000000000000000000000000602082015250565b6000614ab260258361342b565b9150614abd82614a56565b604082019050919050565b60006020820190508181036000830152614ae181614aa5565b9050919050565b7f45524332303a207472616e7366657220746f20746865207a65726f206164647260008201527f6573730000000000000000000000000000000000000000000000000000000000602082015250565b6000614b4460238361342b565b9150614b4f82614ae8565b604082019050919050565b60006020820190508181036000830152614b7381614b37565b9050919050565b7f45524332303a207472616e7366657220616d6f756e742065786365656473206260008201527f616c616e63650000000000000000000000000000000000000000000000000000602082015250565b6000614bd660268361342b565b9150614be182614b7a565b604082019050919050565b60006020820190508181036000830152614c0581614bc9565b9050919050565b7f5361666545524332303a204552433230206f7065726174696f6e20646964206e60008201527f6f74207375636365656400000000000000000000000000000000000000000000602082015250565b6000614c68602a8361342b565b9150614c7382614c0c565b604082019050919050565b60006020820190508181036000830152614c9781614c5b565b9050919050565b7f45524332303a206d696e7420746f20746865207a65726f206164647265737300600082015250565b6000614cd4601f8361342b565b9150614cdf82614c9e565b602082019050919050565b60006020820190508181036000830152614d0381614cc7565b9050919050565b6000606082019050614d1f60008301866136a5565b614d2c60208301856136a5565b614d39604083018461367b565b949350505050565b7f416464726573733a2063616c6c20746f206e6f6e2d636f6e7472616374000000600082015250565b6000614d77601d8361342b565b9150614d8282614d41565b602082019050919050565b60006020820190508181036000830152614da681614d6a565b9050919050565b6000614db8826135f9565b9150614dc3836135f9565b9250828202614dd1816135f9565b91508282048414831517614de857614de7613b44565b5b5092915050565b7f4e487b7100000000000000000000000000000000000000000000000000000000600052601260045260246000fd5b6000614e29826135f9565b9150614e34836135f9565b925082614e4457614e43614def565b5b828204905092915050565b6000606082019050614e6460008301866138af565b614e7160208301856138af565b614e7e60408301846136a5565b949350505050565b7f416464726573733a20696e73756666696369656e742062616c616e636520666f60008201527f722063616c6c0000000000000000000000000000000000000000000000000000602082015250565b6000614ee260268361342b565b9150614eed82614e86565b604082019050919050565b60006020820190508181036000830152614f1181614ed5565b905091905056fe416464726573733a206c6f772d6c6576656c207374617469632063616c6c206661696c6564","linkReferences":{}},"methodIdentifiers":{"addExtraRewards()":"0663b22c","allowance(address,address)":"dd62ed3e","approve(address,uint256)":"095ea7b3","balanceOf(address)":"70a08231","claimRewardsFor(address)":"1ac6d19d","claimRewardsForWithoutCheckpoint(address)":"4c6cb622","decimals()":"313ce567","decreaseAllowance(address,uint256)":"a457c2d7","depositTo(address,uint256)":"ffaad6a5","getConvexPool()":"20c71810","getConvexPoolId()":"d12f8df0","getCurveLpToken()":"b899aea4","getRewardTokenAtIndex(uint256)":"a7d2793f","getRewardTokenCount()":"82e5d073","getRewardTokens()":"c4f59f9b","getTotalHarvestDataForRewardToken(address)":"9655dd61","getUserHarvestDataForRewardToken(address,address)":"093f6365","increaseAllowance(address,uint256)":"39509351","init(uint256)":"b7b0422d","isPaused()":"b187bd26","name()":"06fdde03","setApprovals()":"8757b15b","symbol()":"95d89b41","togglePause(bool)":"57d159c6","totalSupply()":"18160ddd","transfer(address,uint256)":"a9059cbb","transferFrom(address,address,uint256)":"23b872dd","withdrawTo(address,uint256)":"205c2878","withdrawToOnBehalf(address,address,uint256)":"7efe7210","withdrawToWithoutCheckpoint(address,uint256)":"2251ab5e"},"id":30}