{"abi":[{"type":"constructor","inputs":[{"name":"_vlCvx","type":"address","internalType":"address"},{"name":"_vlCvxExtraRewards","type":"address","internalType":"address"},{"name":"_cvxCrvStaking","type":"address","internalType":"address"},{"name":"_cvxToken","type":"address","internalType":"address"},{"name":"_snapshotDelegateRegistry","type":"address","internalType":"address"},{"name":"_votiumMultiMerkleStash","type":"address","internalType":"address"}],"stateMutability":"nonpayable"},{"type":"function","name":"getDebtAssets","inputs":[],"outputs":[{"name":"assets_","type":"address[]","internalType":"address[]"},{"name":"amounts_","type":"uint256[]","internalType":"uint256[]"}],"stateMutability":"nonpayable"},{"type":"function","name":"getManagedAssets","inputs":[],"outputs":[{"name":"assets_","type":"address[]","internalType":"address[]"},{"name":"amounts_","type":"uint256[]","internalType":"uint256[]"}],"stateMutability":"nonpayable"},{"type":"function","name":"init","inputs":[{"name":"","type":"bytes","internalType":"bytes"}],"outputs":[],"stateMutability":"nonpayable"},{"type":"function","name":"receiveCallFromVault","inputs":[{"name":"_actionData","type":"bytes","internalType":"bytes"}],"outputs":[],"stateMutability":"nonpayable"}],"bytecode":{"object":"0x6101406040523480156200001257600080fd5b5060405162002407380380620024078339818101604052810190620000389190620001a7565b8373ffffffffffffffffffffffffffffffffffffffff1660808173ffffffffffffffffffffffffffffffffffffffff1660601b815250508273ffffffffffffffffffffffffffffffffffffffff1660a08173ffffffffffffffffffffffffffffffffffffffff1660601b815250508173ffffffffffffffffffffffffffffffffffffffff1660c08173ffffffffffffffffffffffffffffffffffffffff1660601b815250508573ffffffffffffffffffffffffffffffffffffffff1660e08173ffffffffffffffffffffffffffffffffffffffff1660601b815250508473ffffffffffffffffffffffffffffffffffffffff166101008173ffffffffffffffffffffffffffffffffffffffff1660601b815250508073ffffffffffffffffffffffffffffffffffffffff166101208173ffffffffffffffffffffffffffffffffffffffff1660601b815250505050505050506200028b565b600081519050620001a18162000271565b92915050565b60008060008060008060c08789031215620001c157600080fd5b6000620001d189828a0162000190565b9650506020620001e489828a0162000190565b9550506040620001f789828a0162000190565b94505060606200020a89828a0162000190565b93505060806200021d89828a0162000190565b92505060a06200023089828a0162000190565b9150509295509295509295565b60006200024a8262000251565b9050919050565b600073ffffffffffffffffffffffffffffffffffffffff82169050919050565b6200027c816200023d565b81146200028857600080fd5b50565b60805160601c60a05160601c60c05160601c60e05160601c6101005160601c6101205160601c6120f96200030e600039806109725250806108ba52508060cc528061015c528061065152806106e552806107735280610822525080610b7e52508061010e52806102055280610304525080610a065280610a4252506120f96000f3fe608060405234801561001057600080fd5b506004361061004c5760003560e01c80634ddf47d41461005157806380daddb81461006d578063e5c23a971461008c578063ecd658b4146100a8575b600080fd5b61006b60048036038101906100669190611537565b6100c7565b005b610075610155565b604051610083929190611c3f565b60405180910390f35b6100a660048036038101906100a19190611537565b6103d4565b005b6100b06104db565b6040516100be929190611c3f565b60405180910390f35b6101527f00000000000000000000000000000000000000000000000000000000000000007fffffffffffffffffffffffffffffffffffffffffffffffffffffffffffffffff7f000000000000000000000000000000000000000000000000000000000000000073ffffffffffffffffffffffffffffffffffffffff166104e19092919063ffffffff16565b50565b60608060007f000000000000000000000000000000000000000000000000000000000000000073ffffffffffffffffffffffffffffffffffffffff166359355736306040518263ffffffff1660e01b81526004016101b39190611b50565b60206040518083038186803b1580156101cb57600080fd5b505afa1580156101df573d6000803e3d6000fd5b505050506040513d601f19601f820116820180604052508101906102039190611578565b7f000000000000000000000000000000000000000000000000000000000000000073ffffffffffffffffffffffffffffffffffffffff166370a08231306040518263ffffffff1660e01b815260040161025c9190611b50565b60206040518083038186803b15801561027457600080fd5b505afa158015610288573d6000803e3d6000fd5b505050506040513d601f19601f820116820180604052508101906102ac9190611578565b01905060008111156103cf57600167ffffffffffffffff811180156102d057600080fd5b506040519080825280602002602001820160405280156102ff5781602001602082028036833780820191505090505b5092507f00000000000000000000000000000000000000000000000000000000000000008360008151811061033057fe5b602002602001019073ffffffffffffffffffffffffffffffffffffffff16908173ffffffffffffffffffffffffffffffffffffffff1681525050600167ffffffffffffffff8111801561038257600080fd5b506040519080825280602002602001820160405280156103b15781602001602082028036833780820191505090505b50915080826000815181106103c257fe5b6020026020010181815250505b509091565b60006060828060200190518101906103ec91906115a1565b91509150600060048111156103fd57fe5b8214156104125761040d8161063f565b6104d6565b6001600481111561041f57fe5b8214156104335761042e6106e3565b6104d5565b6002600481111561044057fe5b8214156104545761044f610771565b6104d4565b6003600481111561046157fe5b82141561047657610471816107fe565b6104d3565b60048081111561048257fe5b8214156104975761049281610b6f565b6104d2565b6040517f08c379a00000000000000000000000000000000000000000000000000000000081526004016104c990611cfc565b60405180910390fd5b5b5b5b5b505050565b60608091565b600081148061057a575060008373ffffffffffffffffffffffffffffffffffffffff1663dd62ed3e30856040518363ffffffff1660e01b8152600401610528929190611b86565b60206040518083038186803b15801561054057600080fd5b505afa158015610554573d6000803e3d6000fd5b505050506040513d601f19601f820116820180604052508101906105789190611578565b145b6105b9576040517f08c379a00000000000000000000000000000000000000000000000000000000081526004016105b090611d5c565b60405180910390fd5b61063a8363095ea7b360e01b84846040516024016105d8929190611bdf565b604051602081830303815290604052907bffffffffffffffffffffffffffffffffffffffffffffffffffffffff19166020820180517bffffffffffffffffffffffffffffffffffffffffffffffffffffffff8381831617835250505050610c2d565b505050565b60008061064b83610cf4565b915091507f000000000000000000000000000000000000000000000000000000000000000073ffffffffffffffffffffffffffffffffffffffff1663e2ab691d3084846040518463ffffffff1660e01b81526004016106ac93929190611c08565b600060405180830381600087803b1580156106c657600080fd5b505af11580156106da573d6000803e3d6000fd5b50505050505050565b7f000000000000000000000000000000000000000000000000000000000000000073ffffffffffffffffffffffffffffffffffffffff1663312ff83960016040518263ffffffff1660e01b815260040161073d9190611c76565b600060405180830381600087803b15801561075757600080fd5b505af115801561076b573d6000803e3d6000fd5b50505050565b7f000000000000000000000000000000000000000000000000000000000000000073ffffffffffffffffffffffffffffffffffffffff1663d36f12fb336040518263ffffffff1660e01b81526004016107ca9190611b6b565b600060405180830381600087803b1580156107e457600080fd5b505af11580156107f8573d6000803e3d6000fd5b50505050565b60606000606080600061081086610d14565b9450945094509450945083156108ac577f000000000000000000000000000000000000000000000000000000000000000073ffffffffffffffffffffffffffffffffffffffff1663c00007b0306040518263ffffffff1660e01b81526004016108799190611b50565b600060405180830381600087803b15801561089357600080fd5b505af11580156108a7573d6000803e3d6000fd5b505050505b60005b8351811015610965577f000000000000000000000000000000000000000000000000000000000000000073ffffffffffffffffffffffffffffffffffffffff16636b0916953086848151811061090157fe5b60200260200101516040518363ffffffff1660e01b8152600401610926929190611b86565b600060405180830381600087803b15801561094057600080fd5b505af1158015610954573d6000803e3d6000fd5b5050505080806001019150506108af565b506000825111156109fe577f000000000000000000000000000000000000000000000000000000000000000073ffffffffffffffffffffffffffffffffffffffff166320ce64de30846040518363ffffffff1660e01b81526004016109cb929190611baf565b600060405180830381600087803b1580156109e557600080fd5b505af11580156109f9573d6000803e3d6000fd5b505050505b8015610b5c577f000000000000000000000000000000000000000000000000000000000000000073ffffffffffffffffffffffffffffffffffffffff166338d074367f000000000000000000000000000000000000000000000000000000000000000073ffffffffffffffffffffffffffffffffffffffff166370a08231306040518263ffffffff1660e01b8152600401610a999190611b50565b60206040518083038186803b158015610ab157600080fd5b505afa158015610ac5573d6000803e3d6000fd5b505050506040513d601f19601f82011682018060405250810190610ae99190611578565b60016040518363ffffffff1660e01b8152600401610b08929190611d7c565b602060405180830381600087803b158015610b2257600080fd5b505af1158015610b36573d6000803e3d6000fd5b505050506040513d601f19601f82011682018060405250810190610b5a919061150e565b505b610b663386610d44565b50505050505050565b6000610b7a82610ec5565b90507f000000000000000000000000000000000000000000000000000000000000000073ffffffffffffffffffffffffffffffffffffffff1663bd86e5087f6376782e65746800000000000000000000000000000000000000000000000000836040518363ffffffff1660e01b8152600401610bf7929190611c91565b600060405180830381600087803b158015610c1157600080fd5b505af1158015610c25573d6000803e3d6000fd5b505050505050565b6060610c8f826040518060400160405280602081526020017f5361666545524332303a206c6f772d6c6576656c2063616c6c206661696c65648152508573ffffffffffffffffffffffffffffffffffffffff16610ee29092919063ffffffff16565b9050600081511115610cef5780806020019051810190610caf919061150e565b610cee576040517f08c379a0000000000000000000000000000000000000000000000000000000008152600401610ce590611d3c565b60405180910390fd5b5b505050565b60008082806020019051810190610d0b91906115f5565b91509150915091565b60606000606080600085806020019051810190610d31919061144f565b9450945094509450945091939590929450565b6060815167ffffffffffffffff81118015610d5e57600080fd5b50604051908082528060200260200182016040528015610d8d5781602001602082028036833780820191505090505b50905060005b8251811015610ebe576000838281518110610daa57fe5b602002602001015190508073ffffffffffffffffffffffffffffffffffffffff166370a08231306040518263ffffffff1660e01b8152600401610ded9190611b50565b60206040518083038186803b158015610e0557600080fd5b505afa158015610e19573d6000803e3d6000fd5b505050506040513d601f19601f82011682018060405250810190610e3d9190611578565b838381518110610e4957fe5b6020026020010181815250506000838381518110610e6357fe5b60200260200101511115610eb057610eaf85848481518110610e8157fe5b60200260200101518373ffffffffffffffffffffffffffffffffffffffff16610efa9092919063ffffffff16565b5b508080600101915050610d93565b5092915050565b600081806020019051810190610edb9190611426565b9050919050565b6060610ef18484600085610f80565b90509392505050565b610f7b8363a9059cbb60e01b8484604051602401610f19929190611bdf565b604051602081830303815290604052907bffffffffffffffffffffffffffffffffffffffffffffffffffffffff19166020820180517bffffffffffffffffffffffffffffffffffffffffffffffffffffffff8381831617835250505050610c2d565b505050565b606082471015610fc5576040517f08c379a0000000000000000000000000000000000000000000000000000000008152600401610fbc90611cdc565b60405180910390fd5b610fce85611095565b61100d576040517f08c379a000000000000000000000000000000000000000000000000000000000815260040161100490611d1c565b60405180910390fd5b600060608673ffffffffffffffffffffffffffffffffffffffff1685876040516110379190611b39565b60006040518083038185875af1925050503d8060008114611074576040519150601f19603f3d011682016040523d82523d6000602084013e611079565b606091505b50915091506110898282866110a8565b92505050949350505050565b600080823b905060008111915050919050565b606083156110b857829050611108565b6000835111156110cb5782518084602001fd5b816040517f08c379a00000000000000000000000000000000000000000000000000000000081526004016110ff9190611cba565b60405180910390fd5b9392505050565b60008151905061111e81612079565b92915050565b60008151905061113381612090565b92915050565b600082601f83011261114a57600080fd5b815161115d61115882611dd2565b611da5565b9150818183526020840193506020810190508385602084028201111561118257600080fd5b60005b838110156111b25781611198888261110f565b845260208401935060208301925050600181019050611185565b5050505092915050565b600082601f8301126111cd57600080fd5b81516111e06111db82611dfa565b611da5565b9150818183526020840193506020810190508385602084028201111561120557600080fd5b60005b83811015611235578161121b88826112c8565b845260208401935060208301925050600181019050611208565b5050505092915050565b600082601f83011261125057600080fd5b815161126361125e82611e22565b611da5565b9150818183526020840193506020810190508360005b838110156112a9578151860161128f8882611385565b845260208401935060208301925050600181019050611279565b5050505092915050565b6000815190506112c2816120a7565b92915050565b6000815190506112d7816120be565b92915050565b600082601f8301126112ee57600080fd5b81356113016112fc82611e4a565b611da5565b9150808252602083016020830185838301111561131d57600080fd5b611328838284612026565b50505092915050565b600082601f83011261134257600080fd5b815161135561135082611e4a565b611da5565b9150808252602083016020830185838301111561137157600080fd5b61137c838284612035565b50505092915050565b60006080828403121561139757600080fd5b6113a16080611da5565b905060006113b18482850161110f565b60008301525060206113c584828501611411565b60208301525060406113d984828501611411565b604083015250606082015167ffffffffffffffff8111156113f957600080fd5b611405848285016111bc565b60608301525092915050565b600081519050611420816120d5565b92915050565b60006020828403121561143857600080fd5b600061144684828501611124565b91505092915050565b600080600080600060a0868803121561146757600080fd5b600086015167ffffffffffffffff81111561148157600080fd5b61148d88828901611139565b955050602061149e888289016112b3565b945050604086015167ffffffffffffffff8111156114bb57600080fd5b6114c788828901611139565b935050606086015167ffffffffffffffff8111156114e457600080fd5b6114f08882890161123f565b9250506080611501888289016112b3565b9150509295509295909350565b60006020828403121561152057600080fd5b600061152e848285016112b3565b91505092915050565b60006020828403121561154957600080fd5b600082013567ffffffffffffffff81111561156357600080fd5b61156f848285016112dd565b91505092915050565b60006020828403121561158a57600080fd5b600061159884828501611411565b91505092915050565b600080604083850312156115b457600080fd5b60006115c285828601611411565b925050602083015167ffffffffffffffff8111156115df57600080fd5b6115eb85828601611331565b9150509250929050565b6000806040838503121561160857600080fd5b600061161685828601611411565b925050602061162785828601611411565b9150509250929050565b600061163d838361169c565b60208301905092915050565b60006116558383611858565b60208301905092915050565b600061166d8383611ab8565b905092915050565b60006116818383611b1b565b60208301905092915050565b61169681611ff0565b82525050565b6116a581611f8c565b82525050565b6116b481611f8c565b82525050565b60006116c582611eb6565b6116cf8185611f2c565b93506116da83611e76565b8060005b8381101561170b5781516116f28882611631565b97506116fd83611ef8565b9250506001810190506116de565b5085935050505092915050565b600061172382611ec1565b61172d8185611f3d565b935061173883611e86565b8060005b838110156117695781516117508882611649565b975061175b83611f05565b92505060018101905061173c565b5085935050505092915050565b600061178182611ecc565b61178b8185611f4e565b93508360208202850161179d85611e96565b8060005b858110156117d957848403895281516117ba8582611661565b94506117c583611f12565b925060208a019950506001810190506117a1565b50829750879550505050505092915050565b60006117f682611ed7565b6118008185611f5f565b935061180b83611ea6565b8060005b8381101561183c5781516118238882611675565b975061182e83611f1f565b92505060018101905061180f565b5085935050505092915050565b61185281611fb0565b82525050565b61186181611fbc565b82525050565b61187081611fbc565b82525050565b600061188182611ee2565b61188b8185611f70565b935061189b818560208601612035565b80840191505092915050565b60006118b282611eed565b6118bc8185611f7b565b93506118cc818560208601612035565b6118d581612068565b840191505092915050565b60006118ed602683611f7b565b91507f416464726573733a20696e73756666696369656e742062616c616e636520666f60008301527f722063616c6c00000000000000000000000000000000000000000000000000006020830152604082019050919050565b6000611953602683611f7b565b91507f7265636569766543616c6c46726f6d5661756c743a20496e76616c696420616360008301527f74696f6e496400000000000000000000000000000000000000000000000000006020830152604082019050919050565b60006119b9601d83611f7b565b91507f416464726573733a2063616c6c20746f206e6f6e2d636f6e74726163740000006000830152602082019050919050565b60006119f9602a83611f7b565b91507f5361666545524332303a204552433230206f7065726174696f6e20646964206e60008301527f6f742073756363656564000000000000000000000000000000000000000000006020830152604082019050919050565b6000611a5f603683611f7b565b91507f5361666545524332303a20617070726f76652066726f6d206e6f6e2d7a65726f60008301527f20746f206e6f6e2d7a65726f20616c6c6f77616e6365000000000000000000006020830152604082019050919050565b6000608083016000830151611ad0600086018261169c565b506020830151611ae36020860182611b1b565b506040830151611af66040860182611b1b565b5060608301518482036060860152611b0e8282611718565b9150508091505092915050565b611b2481611fe6565b82525050565b611b3381611fe6565b82525050565b6000611b458284611876565b915081905092915050565b6000602082019050611b6560008301846116ab565b92915050565b6000602082019050611b80600083018461168d565b92915050565b6000604082019050611b9b60008301856116ab565b611ba860208301846116ab565b9392505050565b6000604082019050611bc460008301856116ab565b8181036020830152611bd68184611776565b90509392505050565b6000604082019050611bf460008301856116ab565b611c016020830184611b2a565b9392505050565b6000606082019050611c1d60008301866116ab565b611c2a6020830185611b2a565b611c376040830184611b2a565b949350505050565b60006040820190508181036000830152611c5981856116ba565b90508181036020830152611c6d81846117eb565b90509392505050565b6000602082019050611c8b6000830184611849565b92915050565b6000604082019050611ca66000830185611867565b611cb360208301846116ab565b9392505050565b60006020820190508181036000830152611cd481846118a7565b905092915050565b60006020820190508181036000830152611cf5816118e0565b9050919050565b60006020820190508181036000830152611d1581611946565b9050919050565b60006020820190508181036000830152611d35816119ac565b9050919050565b60006020820190508181036000830152611d55816119ec565b9050919050565b60006020820190508181036000830152611d7581611a52565b9050919050565b6000604082019050611d916000830185611b2a565b611d9e6020830184611849565b9392505050565b6000604051905081810181811067ffffffffffffffff82111715611dc857600080fd5b8060405250919050565b600067ffffffffffffffff821115611de957600080fd5b602082029050602081019050919050565b600067ffffffffffffffff821115611e1157600080fd5b602082029050602081019050919050565b600067ffffffffffffffff821115611e3957600080fd5b602082029050602081019050919050565b600067ffffffffffffffff821115611e6157600080fd5b601f19601f8301169050602081019050919050565b6000819050602082019050919050565b6000819050602082019050919050565b6000819050602082019050919050565b6000819050602082019050919050565b600081519050919050565b600081519050919050565b600081519050919050565b600081519050919050565b600081519050919050565b600081519050919050565b6000602082019050919050565b6000602082019050919050565b6000602082019050919050565b6000602082019050919050565b600082825260208201905092915050565b600082825260208201905092915050565b600082825260208201905092915050565b600082825260208201905092915050565b600081905092915050565b600082825260208201905092915050565b6000611f9782611fc6565b9050919050565b6000611fa982611fc6565b9050919050565b60008115159050919050565b6000819050919050565b600073ffffffffffffffffffffffffffffffffffffffff82169050919050565b6000819050919050565b6000611ffb82612002565b9050919050565b600061200d82612014565b9050919050565b600061201f82611fc6565b9050919050565b82818337600083830152505050565b60005b83811015612053578082015181840152602081019050612038565b83811115612062576000848401525b50505050565b6000601f19601f8301169050919050565b61208281611f8c565b811461208d57600080fd5b50565b61209981611f9e565b81146120a457600080fd5b50565b6120b081611fb0565b81146120bb57600080fd5b50565b6120c781611fbc565b81146120d257600080fd5b50565b6120de81611fe6565b81146120e957600080fd5b5056fea164736f6c634300060c000a","linkReferences":{}},"methodIdentifiers":{"getDebtAssets()":"ecd658b4","getManagedAssets()":"80daddb8","init(bytes)":"4ddf47d4","receiveCallFromVault(bytes)":"e5c23a97"},"id":159}