{"abi":[{"type":"constructor","inputs":[{"name":"_dispatcher","type":"address","internalType":"address"},{"name":"_fundDeployers","type":"address[]","internalType":"address[]"},{"name":"_helperDataReadersInfo","type":"tuple[]","internalType":"struct HelperDataReaderRouter.HelperDataReaderInfo[]","components":[{"name":"helperDataReader","type":"address","internalType":"contract IHelperDataReader"},{"name":"version","type":"uint8","internalType":"uint8"}]}],"stateMutability":"nonpayable"},{"type":"function","name":"getDispatcher","inputs":[],"outputs":[{"name":"dispatcher_","type":"address","internalType":"address"}],"stateMutability":"view"},{"type":"function","name":"getHelperDataReaderForVault","inputs":[{"name":"_vaultProxy","type":"address","internalType":"address"}],"outputs":[{"name":"","type":"tuple","internalType":"struct HelperDataReaderRouter.HelperDataReaderInfo","components":[{"name":"helperDataReader","type":"address","internalType":"contract IHelperDataReader"},{"name":"version","type":"uint8","internalType":"uint8"}]}],"stateMutability":"view"},{"type":"function","name":"getHelperDataReaderInfoForFundDeployer","inputs":[{"name":"_fundDeployer","type":"address","internalType":"address"}],"outputs":[{"name":"helperDataReader_","type":"tuple","internalType":"struct HelperDataReaderRouter.HelperDataReaderInfo","components":[{"name":"helperDataReader","type":"address","internalType":"contract IHelperDataReader"},{"name":"version","type":"uint8","internalType":"uint8"}]}],"stateMutability":"view"},{"type":"function","name":"getVaultActiveExternalPositionsDetails","inputs":[{"name":"_vaultProxy","type":"address","internalType":"address"}],"outputs":[{"name":"data","type":"bytes","internalType":"bytes"},{"name":"version","type":"uint8","internalType":"uint8"}],"stateMutability":"nonpayable"},{"type":"function","name":"getVaultDetails","inputs":[{"name":"_vaultProxy","type":"address","internalType":"address"}],"outputs":[{"name":"data","type":"bytes","internalType":"bytes"},{"name":"version","type":"uint8","internalType":"uint8"}],"stateMutability":"nonpayable"},{"type":"function","name":"getVaultFeesDetails","inputs":[{"name":"_vaultProxy","type":"address","internalType":"address"}],"outputs":[{"name":"data","type":"bytes","internalType":"bytes"},{"name":"version","type":"uint8","internalType":"uint8"}],"stateMutability":"nonpayable"},{"type":"function","name":"getVaultPoliciesDetails","inputs":[{"name":"_vaultProxy","type":"address","internalType":"address"}],"outputs":[{"name":"data","type":"bytes","internalType":"bytes"},{"name":"version","type":"uint8","internalType":"uint8"}],"stateMutability":"nonpayable"},{"type":"function","name":"getVaultTrackedAssetsAmounts","inputs":[{"name":"_vaultProxy","type":"address","internalType":"address"}],"outputs":[{"name":"data","type":"bytes","internalType":"bytes"},{"name":"version","type":"uint8","internalType":"uint8"}],"stateMutability":"nonpayable"},{"type":"function","name":"setHelperDataReaders","inputs":[{"name":"_fundDeployers","type":"address[]","internalType":"address[]"},{"name":"_helperDataReadersInfo","type":"tuple[]","internalType":"struct HelperDataReaderRouter.HelperDataReaderInfo[]","components":[{"name":"helperDataReader","type":"address","internalType":"contract IHelperDataReader"},{"name":"version","type":"uint8","internalType":"uint8"}]}],"outputs":[],"stateMutability":"nonpayable"},{"type":"event","name":"HelperDataReaderUpdated","inputs":[{"name":"fundDeployer","type":"address","indexed":true,"internalType":"address"},{"name":"HelperDataReader","type":"tuple","indexed":false,"internalType":"struct HelperDataReaderRouter.HelperDataReaderInfo","components":[{"name":"helperDataReader","type":"address","internalType":"contract IHelperDataReader"},{"name":"version","type":"uint8","internalType":"uint8"}]}],"anonymous":false}],"bytecode":{"object":"0x60a06040523480156200001157600080fd5b506040516200101738038062001017833981016040819052620000349162000372565b6001600160a01b0383166080526200004d828262000056565b50505062000498565b8051825114620000c25760405162461bcd60e51b815260206004820152602d60248201527f5f5f73657448656c70657244617461526561646572733a20556e657175616c2060448201526c6172726179206c656e6774687360981b606482015260840160405180910390fd5b60005b82518110156200020457818181518110620000e457620000e46200045a565b60200260200101516000808584815181106200010457620001046200045a565b6020908102919091018101516001600160a01b03908116835282820193909352604090910160002083518154949092015160ff16600160a01b026001600160a81b0319909416919092161791909117905582518390829081106200016c576200016c6200045a565b60200260200101516001600160a01b03167f0289eda76b6c5a1e351d9910e6a6d0538a953f5345d8c24502da937eadc6bac7838381518110620001b357620001b36200045a565b6020026020010151604051620001e7919081516001600160a01b0316815260209182015160ff169181019190915260400190565b60405180910390a280620001fb8162000470565b915050620000c5565b505050565b6001600160a01b03811681146200021f57600080fd5b50565b634e487b7160e01b600052604160045260246000fd5b604080519081016001600160401b03811182821017156200025d576200025d62000222565b60405290565b604051601f8201601f191681016001600160401b03811182821017156200028e576200028e62000222565b604052919050565b60006001600160401b03821115620002b257620002b262000222565b5060051b60200190565b600082601f830112620002ce57600080fd5b81516020620002e7620002e18362000296565b62000263565b82815260069290921b840181019181810190868411156200030757600080fd5b8286015b84811015620003675760408189031215620003265760008081fd5b6200033062000238565b81516200033d8162000209565b81528185015160ff81168114620003545760008081fd5b818601528352918301916040016200030b565b509695505050505050565b6000806000606084860312156200038857600080fd5b8351620003958162000209565b602085810151919450906001600160401b0380821115620003b557600080fd5b818701915087601f830112620003ca57600080fd5b8151620003db620002e18262000296565b81815260059190911b8301840190848101908a831115620003fb57600080fd5b938501935b8285101562000426578451620004168162000209565b8252938501939085019062000400565b60408a015190975094505050808311156200044057600080fd5b50506200045086828701620002bc565b9150509250925092565b634e487b7160e01b600052603260045260246000fd5b6000600182016200049157634e487b7160e01b600052601160045260246000fd5b5060010190565b608051610b55620004c260003960008181610157015281816102b101526104600152610b556000f3fe608060405234801561001057600080fd5b50600436106100935760003560e01c8063b002bbb111610066578063b002bbb114610122578063c57e1be714610137578063ebb3d5891461014a578063fa45a29f14610181578063fe3ba3ae1461019457600080fd5b80630241b4cf1461009857806315878250146100c257806355ed58a6146100d557806367a44ca31461010f575b600080fd5b6100ab6100a63660046107ea565b6101a7565b6040516100b992919061082b565b60405180910390f35b6100ab6100d03660046107ea565b61023a565b6100e86100e33660046107ea565b61027b565b6040805182516001600160a01b0316815260209283015160ff1692810192909252016100b9565b6100ab61011d3660046107ea565b61041d565b6101356101303660046109a5565b61045e565b005b6100ab6101453660046107ea565b610567565b6040516001600160a01b037f00000000000000000000000000000000000000000000000000000000000000001681526020016100b9565b6100e861018f3660046107ea565b6105a8565b6100ab6101a23660046107ea565b6105f4565b60606000806101b58461027b565b8051604051630241b4cf60e01b81526001600160a01b038781166004830152929350911690630241b4cf906024015b6000604051808303816000875af1158015610203573d6000803e3d6000fd5b505050506040513d6000823e601f3d908101601f1916820160405261022b9190810190610a67565b81602001519250925050915091565b60606000806102488461027b565b8051604051630158782560e41b81526001600160a01b0387811660048301529293509116906315878250906024016101e4565b60408051808201909152600080825260208201526040516307af8e9f60e31b81526001600160a01b0383811660048301526000917f000000000000000000000000000000000000000000000000000000000000000090911690633d7c74f890602401602060405180830381865afa1580156102fa573d6000803e3d6000fd5b505050506040513d601f19601f8201168201806040525081019061031e9190610afb565b90506001600160a01b0381166103945760405162461bcd60e51b815260206004820152603060248201527f67657448656c70657244617461526561646572466f725661756c743a20496e7660448201526f616c6964205f7661756c7450726f787960801b60648201526084015b60405180910390fd5b600061039f826105a8565b80519091506001600160a01b03166104165760405162461bcd60e51b815260206004820152603460248201527f67657448656c70657244617461526561646572466f725661756c743a204e6f206044820152731a195b1c195c91185d1854995859195c881cd95d60621b606482015260840161038b565b9392505050565b606060008061042b8461027b565b80516040516367a44ca360e01b81526001600160a01b0387811660048301529293509116906367a44ca3906024016101e4565b7f00000000000000000000000000000000000000000000000000000000000000006001600160a01b031663893d20e86040518163ffffffff1660e01b8152600401602060405180830381865afa1580156104bc573d6000803e3d6000fd5b505050506040513d601f19601f820116820180604052508101906104e09190610afb565b6001600160a01b0316336001600160a01b0316146105595760405162461bcd60e51b815260206004820152603060248201527f4f6e6c79207468652044697370617463686572206f776e65722063616e20636160448201526f3636103a3434b990333ab731ba34b7b760811b606482015260840161038b565b6105638282610635565b5050565b60606000806105758461027b565b805160405163c57e1be760e01b81526001600160a01b03878116600483015292935091169063c57e1be7906024016101e4565b604080518082018252600080825260209182018190526001600160a01b0393841681528082528290208251808401909352549283168252600160a01b90920460ff169181019190915290565b60606000806106028461027b565b8051604051637f1dd1d760e11b81526001600160a01b03878116600483015292935091169063fe3ba3ae906024016101e4565b805182511461069c5760405162461bcd60e51b815260206004820152602d60248201527f5f5f73657448656c70657244617461526561646572733a20556e657175616c2060448201526c6172726179206c656e6774687360981b606482015260840161038b565b60005b82518110156107cd578181815181106106ba576106ba610b18565b60200260200101516000808584815181106106d7576106d7610b18565b6020908102919091018101516001600160a01b03908116835282820193909352604090910160002083518154949092015160ff16600160a01b026001600160a81b03199094169190921617919091179055825183908290811061073c5761073c610b18565b60200260200101516001600160a01b03167f0289eda76b6c5a1e351d9910e6a6d0538a953f5345d8c24502da937eadc6bac783838151811061078057610780610b18565b60200260200101516040516107b3919081516001600160a01b0316815260209182015160ff169181019190915260400190565b60405180910390a2806107c581610b2e565b91505061069f565b505050565b6001600160a01b03811681146107e757600080fd5b50565b6000602082840312156107fc57600080fd5b8135610416816107d2565b60005b8381101561082257818101518382015260200161080a565b50506000910152565b604081526000835180604084015261084a816060850160208801610807565b60ff93909316602083015250601f91909101601f191601606001919050565b634e487b7160e01b600052604160045260246000fd5b6040805190810167ffffffffffffffff811182821017156108a2576108a2610869565b60405290565b604051601f8201601f1916810167ffffffffffffffff811182821017156108d1576108d1610869565b604052919050565b600067ffffffffffffffff8211156108f3576108f3610869565b5060051b60200190565b600082601f83011261090e57600080fd5b8135602061092361091e836108d9565b6108a8565b82815260069290921b8401810191818101908684111561094257600080fd5b8286015b8481101561099a576040818903121561095f5760008081fd5b61096761087f565b8135610972816107d2565b81528185013560ff811681146109885760008081fd5b81860152835291830191604001610946565b509695505050505050565b600080604083850312156109b857600080fd5b823567ffffffffffffffff808211156109d057600080fd5b818501915085601f8301126109e457600080fd5b813560206109f461091e836108d9565b82815260059290921b84018101918181019089841115610a1357600080fd5b948201945b83861015610a3a578535610a2b816107d2565b82529482019490820190610a18565b96505086013592505080821115610a5057600080fd5b50610a5d858286016108fd565b9150509250929050565b600060208284031215610a7957600080fd5b815167ffffffffffffffff80821115610a9157600080fd5b818401915084601f830112610aa557600080fd5b815181811115610ab757610ab7610869565b610aca601f8201601f19166020016108a8565b9150808252856020828501011115610ae157600080fd5b610af2816020840160208601610807565b50949350505050565b600060208284031215610b0d57600080fd5b8151610416816107d2565b634e487b7160e01b600052603260045260246000fd5b600060018201610b4e57634e487b7160e01b600052601160045260246000fd5b506001019056","linkReferences":{}},"methodIdentifiers":{"getDispatcher()":"ebb3d589","getHelperDataReaderForVault(address)":"55ed58a6","getHelperDataReaderInfoForFundDeployer(address)":"fa45a29f","getVaultActiveExternalPositionsDetails(address)":"15878250","getVaultDetails(address)":"67a44ca3","getVaultFeesDetails(address)":"fe3ba3ae","getVaultPoliciesDetails(address)":"0241b4cf","getVaultTrackedAssetsAmounts(address)":"c57e1be7","setHelperDataReaders(address[],(address,uint8)[])":"b002bbb1"},"id":58}