{"abi":[{"type":"constructor","inputs":[{"name":"_fundDeployer","type":"address","internalType":"address"}],"stateMutability":"nonpayable"},{"type":"function","name":"getFeeBpsDefault","inputs":[],"outputs":[{"name":"feeBpsDefault_","type":"uint256","internalType":"uint256"}],"stateMutability":"view"},{"type":"function","name":"getFeeBpsForVault","inputs":[{"name":"_vaultProxy","type":"address","internalType":"address"}],"outputs":[{"name":"feeBps_","type":"uint256","internalType":"uint256"}],"stateMutability":"view"},{"type":"function","name":"getFeeBpsOverrideForVault","inputs":[{"name":"_vaultProxy","type":"address","internalType":"address"}],"outputs":[{"name":"feeBpsOverride_","type":"uint256","internalType":"uint256"}],"stateMutability":"view"},{"type":"function","name":"getFundDeployer","inputs":[],"outputs":[{"name":"fundDeployer_","type":"address","internalType":"address"}],"stateMutability":"view"},{"type":"function","name":"getLastPaidForVault","inputs":[{"name":"_vaultProxy","type":"address","internalType":"address"}],"outputs":[{"name":"lastPaid_","type":"uint256","internalType":"uint256"}],"stateMutability":"view"},{"type":"function","name":"getOwner","inputs":[],"outputs":[{"name":"owner_","type":"address","internalType":"address"}],"stateMutability":"view"},{"type":"function","name":"initializeForVault","inputs":[{"name":"_vaultProxy","type":"address","internalType":"address"}],"outputs":[],"stateMutability":"nonpayable"},{"type":"function","name":"payFee","inputs":[],"outputs":[{"name":"sharesDue_","type":"uint256","internalType":"uint256"}],"stateMutability":"nonpayable"},{"type":"function","name":"setFeeBpsDefault","inputs":[{"name":"_nextFeeBpsDefault","type":"uint256","internalType":"uint256"}],"outputs":[],"stateMutability":"nonpayable"},{"type":"function","name":"setFeeBpsOverrideForVault","inputs":[{"name":"_vaultProxy","type":"address","internalType":"address"},{"name":"_nextFeeBpsOverride","type":"uint256","internalType":"uint256"}],"outputs":[],"stateMutability":"nonpayable"},{"type":"function","name":"setLastPaidForVault","inputs":[{"name":"_vaultProxy","type":"address","internalType":"address"},{"name":"_nextTimestamp","type":"uint256","internalType":"uint256"}],"outputs":[],"stateMutability":"nonpayable"},{"type":"event","name":"FeeBpsDefaultSet","inputs":[{"name":"nextFeeBpsDefault","type":"uint256","indexed":false,"internalType":"uint256"}],"anonymous":false},{"type":"event","name":"FeeBpsOverrideSetForVault","inputs":[{"name":"vaultProxy","type":"address","indexed":true,"internalType":"address"},{"name":"nextFeeBpsOverride","type":"uint256","indexed":false,"internalType":"uint256"}],"anonymous":false},{"type":"event","name":"FeePaidForVault","inputs":[{"name":"vaultProxy","type":"address","indexed":true,"internalType":"address"},{"name":"sharesAmount","type":"uint256","indexed":false,"internalType":"uint256"},{"name":"secondsPaid","type":"uint256","indexed":false,"internalType":"uint256"}],"anonymous":false},{"type":"event","name":"InitializedForVault","inputs":[{"name":"vaultProxy","type":"address","indexed":false,"internalType":"address"}],"anonymous":false},{"type":"event","name":"LastPaidSetForVault","inputs":[{"name":"vaultProxy","type":"address","indexed":true,"internalType":"address"},{"name":"prevTimestamp","type":"uint256","indexed":false,"internalType":"uint256"},{"name":"nextTimestamp","type":"uint256","indexed":false,"internalType":"uint256"}],"anonymous":false}],"bytecode":{"object":"0x60a060405234801561001057600080fd5b506040516110f13803806110f18339818101604052602081101561003357600080fd5b8101908080519060200190929190505050808073ffffffffffffffffffffffffffffffffffffffff1660808173ffffffffffffffffffffffffffffffffffffffff1660601b81525050506301e187e080146100d9576040517f08c379a00000000000000000000000000000000000000000000000000000000081526004018080602001828103825260268152602001806110cb6026913960400191505060405180910390fd5b5060805160601c610fcf6100fc6000398061081752806108bf5250610fcf6000f3fe608060405234801561001057600080fd5b50600436106100a95760003560e01c806397c0ac871161007157806397c0ac87146101c05780639f178188146101f4578063b69f36521461024c578063bcdba20a146102a4578063f033ac56146102c2578063f8fc296114610310576100a9565b80630a48e041146100ae578063137e8d9b146100f257806329610252146101205780637c73c6991461013e578063893d20e81461018c575b600080fd5b6100f0600480360360208110156100c457600080fd5b81019080803573ffffffffffffffffffffffffffffffffffffffff169060200190929190505050610368565b005b61011e6004803603602081101561010857600080fd5b810190808035906020019092919050505061044d565b005b610128610590565b6040518082815260200191505060405180910390f35b61018a6004803603604081101561015457600080fd5b81019080803573ffffffffffffffffffffffffffffffffffffffff16906020019092919080359060200190929190505050610698565b005b610194610813565b604051808273ffffffffffffffffffffffffffffffffffffffff16815260200191505060405180910390f35b6101c86108bb565b604051808273ffffffffffffffffffffffffffffffffffffffff16815260200191505060405180910390f35b6102366004803603602081101561020a57600080fd5b81019080803573ffffffffffffffffffffffffffffffffffffffff1690602001909291905050506108e3565b6040518082815260200191505060405180910390f35b61028e6004803603602081101561026257600080fd5b81019080803573ffffffffffffffffffffffffffffffffffffffff16906020019092919050505061092c565b6040518082815260200191505060405180910390f35b6102ac610975565b6040518082815260200191505060405180910390f35b61030e600480360360408110156102d857600080fd5b81019080803573ffffffffffffffffffffffffffffffffffffffff1690602001909291908035906020019092919050505061097e565b005b6103526004803603602081101561032657600080fd5b81019080803573ffffffffffffffffffffffffffffffffffffffff169060200190929190505050610b36565b6040518082815260200191505060405180910390f35b6103706108bb565b73ffffffffffffffffffffffffffffffffffffffff163373ffffffffffffffffffffffffffffffffffffffff16146103f3576040517f08c379a000000000000000000000000000000000000000000000000000000000815260040180806020018281038252602c815260200180610f57602c913960400191505060405180910390fd5b6103fd8142610b5c565b7fd3ba69979a943b00f5eea9e34dba3f3104dcf0c16890e7d8c693a0d52de0745881604051808273ffffffffffffffffffffffffffffffffffffffff16815260200191505060405180910390a150565b610455610813565b73ffffffffffffffffffffffffffffffffffffffff163373ffffffffffffffffffffffffffffffffffffffff16146104d8576040517f08c379a0000000000000000000000000000000000000000000000000000000008152600401808060200182810382526049815260200180610e756049913960600191505060405180910390fd5b612710811061054f576040517f08c379a000000000000000000000000000000000000000000000000000000000815260040180806020018281038252601d8152602001807f73657444656661756c744665654270733a2045786365656473206d617800000081525060200191505060405180910390fd5b806000819055507f39c6a3e3a79878fee4b8deeec6702a2c4971f2bdcb4bb41aa2b6cf58c9905e5d816040518082815260200191505060405180910390a150565b60008033905060006105a18261092c565b90504281106105b557600092505050610695565b6000811161060e576040517f08c379a0000000000000000000000000000000000000000000000000000000008152600401808060200182810382526022815260200180610ebe6022913960400191505060405180910390fd5b60006106238242610ba490919063ffffffff16565b905061062f8382610c27565b935061063b8342610b5c565b8273ffffffffffffffffffffffffffffffffffffffff167f1e6728e7f6ab409f42c28a298d4691e94f5426e54658999f76770bff70e56eaf8583604051808381526020018281526020019250505060405180910390a25050505b90565b6106a0610813565b73ffffffffffffffffffffffffffffffffffffffff163373ffffffffffffffffffffffffffffffffffffffff1614610723576040517f08c379a0000000000000000000000000000000000000000000000000000000008152600401808060200182810382526049815260200180610e756049913960600191505060405180910390fd5b612710811061077d576040517f08c379a0000000000000000000000000000000000000000000000000000000008152600401808060200182810382526026815260200180610ee06026913960400191505060405180910390fd5b80600160008473ffffffffffffffffffffffffffffffffffffffff1673ffffffffffffffffffffffffffffffffffffffff168152602001908152602001600020819055508173ffffffffffffffffffffffffffffffffffffffff167fb1a79d5ffbf14d3dbd6507eb9ea97f172baa93ff87773c8a9613841bcf363275826040518082815260200191505060405180910390a25050565b60007f000000000000000000000000000000000000000000000000000000000000000073ffffffffffffffffffffffffffffffffffffffff1663893d20e86040518163ffffffff1660e01b815260040160206040518083038186803b15801561087b57600080fd5b505afa15801561088f573d6000803e3d6000fd5b505050506040513d60208110156108a557600080fd5b8101908080519060200190929190505050905090565b60007f0000000000000000000000000000000000000000000000000000000000000000905090565b6000600160008373ffffffffffffffffffffffffffffffffffffffff1673ffffffffffffffffffffffffffffffffffffffff168152602001908152602001600020549050919050565b6000600260008373ffffffffffffffffffffffffffffffffffffffff1673ffffffffffffffffffffffffffffffffffffffff168152602001908152602001600020549050919050565b60008054905090565b610986610813565b73ffffffffffffffffffffffffffffffffffffffff163373ffffffffffffffffffffffffffffffffffffffff1614610a09576040517f08c379a0000000000000000000000000000000000000000000000000000000008152600401808060200182810382526049815260200180610e756049913960600191505060405180910390fd5b6000610a148361092c565b905060008111610a6f576040517f08c379a0000000000000000000000000000000000000000000000000000000008152600401808060200182810382526030815260200180610f066030913960400191505060405180910390fd5b80821180610a7c57504282115b610ad1576040517f08c379a0000000000000000000000000000000000000000000000000000000008152600401808060200182810382526040815260200180610f836040913960400191505060405180910390fd5b610adb8383610b5c565b8273ffffffffffffffffffffffffffffffffffffffff167fbcfa0c3d77a6e27e439a116566a0dd57d1f2c68d510dc877c6ac541b5275a9cf8284604051808381526020018281526020019250505060405180910390a2505050565b6000610b41826108e3565b90506000811415610b5757610b54610975565b90505b919050565b80600260008473ffffffffffffffffffffffffffffffffffffffff1673ffffffffffffffffffffffffffffffffffffffff168152602001908152602001600020819055505050565b600082821115610c1c576040517f08c379a000000000000000000000000000000000000000000000000000000000815260040180806020018281038252601e8152602001807f536166654d6174683a207375627472616374696f6e206f766572666c6f77000081525060200191505060405180910390fd5b818303905092915050565b6000808373ffffffffffffffffffffffffffffffffffffffff166318160ddd6040518163ffffffff1660e01b815260040160206040518083038186803b158015610c7057600080fd5b505afa158015610c84573d6000803e3d6000fd5b505050506040513d6020811015610c9a57600080fd5b810190808051906020019092919050505090506000610d06612710610cf86301e187e0610cea88610cdc610ccd8c610b36565b89610d6590919063ffffffff16565b610d6590919063ffffffff16565b610deb90919063ffffffff16565b610deb90919063ffffffff16565b90506000610d1d8284610ba490919063ffffffff16565b90506000811415610d345760009350505050610d5f565b610d5981610d4b8585610d6590919063ffffffff16565b610deb90919063ffffffff16565b93505050505b92915050565b600080831415610d785760009050610de5565b6000828402905082848281610d8957fe5b0414610de0576040517f08c379a0000000000000000000000000000000000000000000000000000000008152600401808060200182810382526021815260200180610f366021913960400191505060405180910390fd5b809150505b92915050565b6000808211610e62576040517f08c379a000000000000000000000000000000000000000000000000000000000815260040180806020018281038252601a8152602001807f536166654d6174683a206469766973696f6e206279207a65726f00000000000081525060200191505060405180910390fd5b818381610e6b57fe5b0490509291505056fe6f6e6c7946756e644465706c6f7965724f776e65723a204f6e6c79207468652046756e644465706c6f796572206f776e65722063616e2063616c6c20746869732066756e6374696f6e7061794665653a205661756c7450726f7879206e6f7420696e697469616c697a65647365744665654270734f76657272696465466f725661756c743a2045786365656473206d61787365744c61737450616964466f725661756c743a205f7661756c7450726f7879206e6f7420696e697469616c697a6564536166654d6174683a206d756c7469706c69636174696f6e206f766572666c6f774f6e6c79207468652046756e644465706c6f7965722063616e2063616c6c20746869732066756e6374696f6e7365744c61737450616964466f725661756c743a2043616e206f6e6c7920696e637265617365206f72207365742061206675747572652074696d657374616d70a164736f6c634300060c000a636f6e7374727563746f723a20496e636f7272656374205345434f4e44535f494e5f59454152","linkReferences":{}},"methodIdentifiers":{"getFeeBpsDefault()":"bcdba20a","getFeeBpsForVault(address)":"f8fc2961","getFeeBpsOverrideForVault(address)":"9f178188","getFundDeployer()":"97c0ac87","getLastPaidForVault(address)":"b69f3652","getOwner()":"893d20e8","initializeForVault(address)":"0a48e041","payFee()":"29610252","setFeeBpsDefault(uint256)":"137e8d9b","setFeeBpsOverrideForVault(address,uint256)":"7c73c699","setLastPaidForVault(address,uint256)":"f033ac56"},"id":303}