{"abi":[{"type":"constructor","inputs":[{"name":"_fundDeployer","type":"address","internalType":"address"},{"name":"_policyManager","type":"address","internalType":"address"}],"stateMutability":"nonpayable"},{"type":"function","name":"activateForFund","inputs":[],"outputs":[],"stateMutability":"nonpayable"},{"type":"function","name":"deactivateForFund","inputs":[],"outputs":[],"stateMutability":"nonpayable"},{"type":"function","name":"getFundDeployer","inputs":[],"outputs":[{"name":"fundDeployer_","type":"address","internalType":"address"}],"stateMutability":"view"},{"type":"function","name":"getOwner","inputs":[],"outputs":[{"name":"owner_","type":"address","internalType":"address"}],"stateMutability":"view"},{"type":"function","name":"getPolicyManager","inputs":[],"outputs":[{"name":"policyManager_","type":"address","internalType":"address"}],"stateMutability":"view"},{"type":"function","name":"getVaultProxyForFund","inputs":[{"name":"_comptrollerProxy","type":"address","internalType":"address"}],"outputs":[{"name":"vaultProxy_","type":"address","internalType":"address"}],"stateMutability":"view"},{"type":"function","name":"receiveCallFromComptroller","inputs":[{"name":"_caller","type":"address","internalType":"address"},{"name":"_actionId","type":"uint256","internalType":"uint256"},{"name":"_callArgs","type":"bytes","internalType":"bytes"}],"outputs":[],"stateMutability":"nonpayable"},{"type":"function","name":"setConfigForFund","inputs":[{"name":"","type":"bytes","internalType":"bytes"}],"outputs":[],"stateMutability":"nonpayable"},{"type":"event","name":"CallOnIntegrationExecutedForFund","inputs":[{"name":"comptrollerProxy","type":"address","indexed":true,"internalType":"address"},{"name":"caller","type":"address","indexed":false,"internalType":"address"},{"name":"adapter","type":"address","indexed":true,"internalType":"address"},{"name":"selector","type":"bytes4","indexed":true,"internalType":"bytes4"},{"name":"integrationData","type":"bytes","indexed":false,"internalType":"bytes"},{"name":"incomingAssets","type":"address[]","indexed":false,"internalType":"address[]"},{"name":"incomingAssetAmounts","type":"uint256[]","indexed":false,"internalType":"uint256[]"},{"name":"spendAssets","type":"address[]","indexed":false,"internalType":"address[]"},{"name":"spendAssetAmounts","type":"uint256[]","indexed":false,"internalType":"uint256[]"}],"anonymous":false},{"type":"event","name":"ValidatedVaultProxySetForFund","inputs":[{"name":"comptrollerProxy","type":"address","indexed":true,"internalType":"address"},{"name":"vaultProxy","type":"address","indexed":true,"internalType":"address"}],"anonymous":false}],"bytecode":{"object":"0x60c06040523480156200001157600080fd5b506040516200234238038062002342833981016040819052620000349162000086565b6001600160a01b039182166080521660a052620000c9565b60006001600160a01b0382165b92915050565b6200006a816200004c565b81146200007657600080fd5b50565b805162000059816200005f565b600080604083850312156200009e576200009e600080fd5b6000620000ac858562000079565b9250506020620000bf8582860162000079565b9150509250929050565b60805160a051612230620001126000396000818161012701528181610471015281816105a701526106ab0152600081816101010152818161031801526107a801526122306000f3fe608060405234801561001057600080fd5b50600436106100885760003560e01c806389cbe1d01161005b57806389cbe1d0146100ec57806397c0ac87146100ff578063bd8e959a146100a0578063d44ad6cb1461012557600080fd5b80631bee801e1461008d57806321725d01146100a057806346790346146100a2578063893d20e8146100e4575b600080fd5b6100a061009b366004611489565b61014b565b005b6100ce6100b03660046114f6565b6001600160a01b039081166000908152602081905260409020541690565b6040516100db919061152e565b60405180910390f35b6100ce610314565b6100a06100fa36600461153c565b61039d565b7f00000000000000000000000000000000000000000000000000000000000000006100ce565b7f00000000000000000000000000000000000000000000000000000000000000006100ce565b336000818152602081905260409020546001600160a01b03168061018a5760405162461bcd60e51b8152600401610181906115d0565b60405180910390fd5b60405163714ca2d160e01b81526001600160a01b0382169063714ca2d1906101b690899060040161152e565b602060405180830381865afa1580156101d3573d6000803e3d6000fd5b505050506040513d601f19601f820116820180604052508101906101f791906115f3565b6102135760405162461bcd60e51b815260040161018190611659565b846000036102625761025d86838387878080601f0160208091040260200160405190810160405280939291908181526020018383808284376000920191909152506103ab92505050565b61030c565b846001036102ab5761025d868386868080601f01602080910402602001604051908101604052809392919081815260200183838082843760009201919091525061058d92505050565b846002036102f45761025d868386868080601f01602080910402602001604051908101604052809392919081815260200183838082843760009201919091525061069192505050565b60405162461bcd60e51b8152600401610181906116b3565b505050505050565b60007f00000000000000000000000000000000000000000000000000000000000000006001600160a01b031663893d20e86040518163ffffffff1660e01b8152600401602060405180830381865afa158015610374573d6000803e3d6000fd5b505050506040513d601f19601f8201168201806040525081019061039891906116ce565b905090565b6103a63361078e565b505050565b816001600160a01b0316635a53e3486040518163ffffffff1660e01b8152600401602060405180830381865afa1580156103e9573d6000803e3d6000fd5b505050506040513d601f19601f8201168201806040525081019061040d91906116ce565b6001600160a01b0316836001600160a01b03161461043d5760405162461bcd60e51b81526004016101819061173a565b600080600061044b8461089e565b9250925092506000806000806104648a8a8989896108c4565b93509350935093506104937f000000000000000000000000000000000000000000000000000000000000000090565b6001600160a01b0316630442bad58b60018e8b8b8a8a8a8a6040516020016104c19796959493929190611807565b6040516020818303038152906040526040518463ffffffff1660e01b81526004016104ee93929190611929565b600060405180830381600087803b15801561050857600080fd5b505af115801561051c573d6000803e3d6000fd5b50505050856001600160e01b031916876001600160a01b03168b6001600160a01b03167ff9a77e6aa0d5e80e8c932c9586e789fc0f4efe610f844fc982129c6f385bfffa8e89898989896040516105789695949392919061195f565b60405180910390a45050505050505050505050565b6000818060200190518101906105a39190611adb565b90507f00000000000000000000000000000000000000000000000000000000000000006001600160a01b0316630442bad584600487856040516020016105ea929190611b15565b6040516020818303038152906040526040518463ffffffff1660e01b815260040161061793929190611929565b600060405180830381600087803b15801561063157600080fd5b505af1158015610645573d6000803e3d6000fd5b5050505060005b815181101561068a576106788483838151811061066b5761066b611b35565b6020026020010151610953565b8061068281611b61565b91505061064c565b5050505050565b6000818060200190518101906106a79190611adb565b90507f00000000000000000000000000000000000000000000000000000000000000006001600160a01b0316630442bad584600587856040516020016106ee929190611b15565b6040516020818303038152906040526040518463ffffffff1660e01b815260040161071b93929190611929565b600060405180830381600087803b15801561073557600080fd5b505af1158015610749573d6000803e3d6000fd5b5050505060005b815181101561068a5761077c8483838151811061076f5761076f611b35565b60200260200101516109cf565b8061078681611b61565b915050610750565b604051631054b35560e21b81526000906001600160a01b037f00000000000000000000000000000000000000000000000000000000000000001690634152cd54906107dd90859060040161152e565b602060405180830381865afa1580156107fa573d6000803e3d6000fd5b505050506040513d601f19601f8201168201806040525081019061081e91906116ce565b90506001600160a01b0381166108465760405162461bcd60e51b815260040161018190611bca565b6001600160a01b0382811660008181526020819052604080822080546001600160a01b0319169486169485179055517f8852dcaa71340ea616a65ffac013450dfb238607481fb9d78346c667fe256c139190a3919050565b6000806060838060200190518101906108b79190611c7f565b9250925092509193909250565b60608060608060608060006060806108df8e8e8e8e8e6109f1565b809750819850829d50839950849a50859b50869f505050505050505061092b8d8d8d8d8b878f60405160200161091793929190611ce9565b604051602081830303815290604052610ddc565b61093d8e8e8e8c8989898e8a8a610eae565b9098509550505050505095509550955095915050565b816001600160a01b03166310acd06d600483604051602001610975919061152e565b6040516020818303038152906040526040518363ffffffff1660e01b81526004016109a1929190611d50565b600060405180830381600087803b1580156109bb57600080fd5b505af115801561030c573d6000803e3d6000fd5b816001600160a01b03166310acd06d600683604051602001610975919061152e565b606080606060006060806060896001600160a01b031663c54efee58c8b8b6040518463ffffffff1660e01b8152600401610a2d93929190611d70565b600060405180830381865afa158015610a4a573d6000803e3d6000fd5b505050506040513d6000823e601f3d908101601f19168201604052610a729190810190611e23565b82518451929c50909950939750919550935014610aa15760405162461bcd60e51b815260040161018190611f4c565b8451875114610ac25760405162461bcd60e51b815260040161018190611fa8565b610acb83611218565b610ae75760405162461bcd60e51b815260040161018190611ffb565b610af087611218565b610b0c5760405162461bcd60e51b815260040161018190612051565b86516001600160401b03811115610b2557610b256119db565b604051908082528060200260200182016040528015610b4e578160200160208202803683370190505b50955060005b8751811015610c1257878181518110610b6f57610b6f611b35565b60200260200101516001600160a01b03166370a082318d6040518263ffffffff1660e01b8152600401610ba2919061152e565b602060405180830381865afa158015610bbf573d6000803e3d6000fd5b505050506040513d601f19601f82011682018060405250810190610be39190612061565b878281518110610bf557610bf5611b35565b602090810291909101015280610c0a81611b61565b915050610b54565b5082516001600160401b03811115610c2c57610c2c6119db565b604051908082528060200260200182016040528015610c55578160200160208202803683370190505b50905060005b8351811015610dcc57838181518110610c7657610c76611b35565b60200260200101516001600160a01b03166370a082318d6040518263ffffffff1660e01b8152600401610ca9919061152e565b602060405180830381865afa158015610cc6573d6000803e3d6000fd5b505050506040513d601f19601f82011682018060405250810190610cea9190612061565b828281518110610cfc57610cfc611b35565b60209081029190910101526001856002811115610d1b57610d1b61188a565b03610d6357610d5e8d858381518110610d3657610d36611b35565b60200260200101518d868581518110610d5157610d51611b35565b60200260200101516112d5565b610dba565b6002856002811115610d7757610d7761188a565b03610dba57610dba8d858381518110610d9257610d92611b35565b60200260200101518d868581518110610dad57610dad611b35565b6020026020010151611355565b80610dc481611b61565b915050610c5b565b50959b949a509550955095509550565b600080856001600160a01b031685888686604051602401610dff93929190612082565b60408051601f198184030181529181526020820180516001600160e01b03166001600160e01b0319909416939093179092529051610e3d91906120d8565b6000604051808303816000865af19150503d8060008114610e7a576040519150601f19603f3d011682016040523d82523d6000602084013e610e7f565b606091505b5091509150818190610ea45760405162461bcd60e51b815260040161018191906120eb565b5050505050505050565b60608088516001600160401b03811115610eca57610eca6119db565b604051908082528060200260200182016040528015610ef3578160200160208202803683370190505b50915060005b8951811015610fe157888181518110610f1457610f14611b35565b6020026020010151610f3f8d8c8481518110610f3257610f32611b35565b602002602001015161137b565b610f4991906120fc565b838281518110610f5b57610f5b611b35565b602002602001018181525050878181518110610f7957610f79611b35565b6020026020010151838281518110610f9357610f93611b35565b60200260200101511015610fb95760405162461bcd60e51b815260040161018190612169565b610fcf8d8b838151811061066b5761066b611b35565b80610fd981611b61565b915050610ef9565b5084516001600160401b03811115610ffb57610ffb6119db565b604051908082528060200260200182016040528015611024578160200160208202803683370190505b50905060005b855181101561120857600061104b8d888481518110610f3257610f32611b35565b905084828151811061105f5761105f611b35565b60200260200101518110156110b2578085838151811061108157611081611b35565b602002602001015161109391906120fc565b8383815181106110a5576110a5611b35565b6020026020010181815250505b60018860028111156110c6576110c661188a565b14801561115a575060008783815181106110e2576110e2611b35565b60200260200101516001600160a01b031663dd62ed3e8f8f6040518363ffffffff1660e01b8152600401611117929190612179565b602060405180830381865afa158015611134573d6000803e3d6000fd5b505050506040513d601f19601f820116820180604052508101906111589190612061565b115b1561118a576111858e88848151811061117557611175611b35565b60200260200101518e60006112d5565b6111f5565b600088600281111561119e5761119e61188a565b036111f5578582815181106111b5576111b5611b35565b60200260200101518383815181106111cf576111cf611b35565b602002602001015111156111f55760405162461bcd60e51b8152600401610181906121e5565b508061120081611b61565b91505061102a565b509a509a98505050505050505050565b6000600182511161122b57506001919050565b815160005b818110156112cb5760006112458260016121f5565b90505b828110156112b85784818151811061126257611262611b35565b60200260200101516001600160a01b031685838151811061128557611285611b35565b60200260200101516001600160a01b0316036112a657506000949350505050565b806112b081611b61565b915050611248565b50806112c381611b61565b915050611230565b5060019392505050565b836001600160a01b03166310acd06d60058585856040516020016112fb93929190612208565b6040516020818303038152906040526040518363ffffffff1660e01b8152600401611327929190611d50565b600060405180830381600087803b15801561134157600080fd5b505af1158015610ea4573d6000803e3d6000fd5b836001600160a01b03166310acd06d60078585856040516020016112fb93929190612208565b6040516370a0823160e01b81526000906001600160a01b038316906370a08231906113aa90869060040161152e565b602060405180830381865afa1580156113c7573d6000803e3d6000fd5b505050506040513d601f19601f820116820180604052508101906113eb9190612061565b90505b92915050565b60006001600160a01b0382166113ee565b61140e816113f4565b811461141957600080fd5b50565b80356113ee81611405565b8061140e565b80356113ee81611427565b60008083601f84011261144d5761144d600080fd5b5081356001600160401b0381111561146757611467600080fd5b60208301915083600182028301111561148257611482600080fd5b9250929050565b600080600080606085870312156114a2576114a2600080fd5b60006114ae878761141c565b94505060206114bf8782880161142d565b93505060408501356001600160401b038111156114de576114de600080fd5b6114ea87828801611438565b95989497509550505050565b60006020828403121561150b5761150b600080fd5b6000611517848461141c565b949350505050565b611528816113f4565b82525050565b602081016113ee828461151f565b6000806020838503121561155257611552600080fd5b82356001600160401b0381111561156b5761156b600080fd5b61157785828601611438565b92509250509250929050565b602d81526000602082017f7265636569766543616c6c46726f6d436f6d7074726f6c6c65723a2046756e6481526c081a5cc81b9bdd081d985b1a59609a1b602082015291505b5060400190565b602080825281016113ee81611583565b80151561140e565b80516113ee816115e0565b60006020828403121561160857611608600080fd5b600061151784846115e8565b602881526000602082017f7265636569766543616c6c46726f6d436f6d7074726f6c6c65723a20556e61758152671d1a1bdc9a5e995960c21b602082015291506115c9565b602080825281016113ee81611614565b602d81526000602082017f7265636569766543616c6c46726f6d436f6d7074726f6c6c65723a20496e766181526c1b1a590817d858dd1a5bdb9259609a1b602082015291506115c9565b602080825281016113ee81611669565b80516113ee81611405565b6000602082840312156116e3576116e3600080fd5b600061151784846116c3565b602e81526000602082017f7265636569766543616c6c46726f6d436f6d7074726f6c6c65723a2046756e6481526d206973206e6f742061637469766560901b602082015291506115c9565b602080825281016113ee816116ef565b6001600160e01b03198116611528565b6000611766838361151f565b505060200190565b6000611778825190565b80845260209384019383018060005b838110156117ac57815161179b888261175a565b975060208301925050600101611787565b509495945050505050565b80611528565b600061176683836117b7565b60006117d3825190565b80845260209384019383018060005b838110156117ac5781516117f688826117bd565b9750602083019250506001016117e2565b60e08101611815828a61151f565b611822602083018961151f565b61182f604083018861174a565b8181036060830152611841818761176e565b9050818103608083015261185581866117c9565b905081810360a0830152611869818561176e565b905081810360c083015261187d81846117c9565b9998505050505050505050565b634e487b7160e01b600052602160045260246000fd5b600a81106114195761141961188a565b806118ba816118a0565b919050565b60006113ee826118b0565b611528816118bf565b60005b838110156118ee5781810151838201526020016118d6565b50506000910152565b6000611901825190565b8084526020840193506119188185602086016118d3565b601f01601f19169290920192915050565b60608101611937828661151f565b61194460208301856118ca565b818103604083015261195681846118f7565b95945050505050565b60c0810161196d828961151f565b818103602083015261197f81886118f7565b90508181036040830152611993818761176e565b905081810360608301526119a781866117c9565b905081810360808301526119bb818561176e565b905081810360a08301526119cf81846117c9565b98975050505050505050565b634e487b7160e01b600052604160045260246000fd5b601f19601f83011681018181106001600160401b0382111715611a1657611a166119db565b6040525050565b6000611a2860405190565b90506118ba82826119f1565b60006001600160401b03821115611a4d57611a4d6119db565b5060209081020190565b6000611a6a611a6584611a34565b611a1d565b83815290506020808201908402830185811115611a8957611a89600080fd5b835b81811015611aad5780611a9e88826116c3565b84525060209283019201611a8b565b5050509392505050565b600082601f830112611acb57611acb600080fd5b8151611517848260208601611a57565b600060208284031215611af057611af0600080fd5b81516001600160401b03811115611b0957611b09600080fd5b61151784828501611ab7565b60408101611b23828561151f565b8181036020830152611517818461176e565b634e487b7160e01b600052603260045260246000fd5b634e487b7160e01b600052601160045260246000fd5b60006000198203611b7457611b74611b4b565b5060010190565b603281526000602082017f5f5f73657456616c6964617465645661756c7450726f78793a20496e76616c698152716420436f6d7074726f6c6c657250726f787960701b602082015291506115c9565b602080825281016113ee81611b7b565b6001600160e01b0319811661140e565b80516113ee81611bda565b60006001600160401b03821115611c0e57611c0e6119db565b601f19601f83011660200192915050565b6000611c2d611a6584611bf5565b905082815260208101848484011115611c4857611c48600080fd5b611c538482856118d3565b509392505050565b600082601f830112611c6f57611c6f600080fd5b8151611517848260208601611c1f565b600080600060608486031215611c9757611c97600080fd5b6000611ca386866116c3565b9350506020611cb486828701611bea565b92505060408401516001600160401b03811115611cd357611cd3600080fd5b611cdf86828701611c5b565b9150509250925092565b60608082528101611cfa818661176e565b90508181036020830152611d0e81856117c9565b90508181036040830152611956818461176e565b600b81106114195761141961188a565b806118ba81611d22565b60006113ee82611d32565b61152881611d3c565b60408101611d5e8285611d47565b818103602083015261151781846118f7565b60608101611d7e828661151f565b611944602083018561174a565b6003811061141957600080fd5b80516113ee81611d8b565b80516113ee81611427565b6000611dbc611a6584611a34565b83815290506020808201908402830185811115611ddb57611ddb600080fd5b835b81811015611aad5780611df08882611da3565b84525060209283019201611ddd565b600082601f830112611e1357611e13600080fd5b8151611517848260208601611dae565b600080600080600060a08688031215611e3e57611e3e600080fd5b6000611e4a8888611d98565b95505060208601516001600160401b03811115611e6957611e69600080fd5b611e7588828901611ab7565b94505060408601516001600160401b03811115611e9457611e94600080fd5b611ea088828901611dff565b93505060608601516001600160401b03811115611ebf57611ebf600080fd5b611ecb88828901611ab7565b92505060808601516001600160401b03811115611eea57611eea600080fd5b611ef688828901611dff565b9150509295509295909350565b602c81526000602082017f5f5f70726550726f63657373436f493a205370656e642061737365747320617281526b1c985e5cc81d5b995c5d585b60a21b602082015291506115c9565b602080825281016113ee81611f03565b602f81526000602082017f5f5f70726550726f63657373436f493a20496e636f6d696e672061737365747381526e08185c9c985e5cc81d5b995c5d585b608a1b602082015291506115c9565b602080825281016113ee81611f5c565b602681526000602082017f5f5f70726550726f63657373436f493a204475706c6963617465207370656e6481526508185cdcd95d60d21b602082015291506115c9565b602080825281016113ee81611fb8565b602981526000602082017f5f5f70726550726f63657373436f493a204475706c696361746520696e636f6d8152681a5b99c8185cdcd95d60ba1b602082015291506115c9565b602080825281016113ee8161200b565b60006020828403121561207657612076600080fd5b60006115178484611da3565b60608101612090828661151f565b81810360208301526120a281856118f7565b9050818103604083015261195681846118f7565b60006120c0825190565b6120ce8185602086016118d3565b9290920192915050565b60006120e482846120b6565b9392505050565b602080825281016113eb81846118f7565b818103818111156113ee576113ee611b4b565b603c81526000602082017f5f5f706f737450726f63657373436f493a20526563656976656420696e636f6d81527f696e67206173736574206c657373207468616e20657870656374656400000000602082015291506115c9565b602080825281016113ee8161210f565b60408101612187828561151f565b6120e4602083018461151f565b603481526000602082017f5f5f706f737450726f63657373436f493a205370656e7420616d6f756e7420678152731c99585d195c881d1a185b88195e1c1958dd195960621b602082015291506115c9565b602080825281016113ee81612194565b808201808211156113ee576113ee611b4b565b60608101612216828661151f565b612223602083018561151f565b61151760408301846117b756","linkReferences":{}},"methodIdentifiers":{"activateForFund()":"21725d01","deactivateForFund()":"bd8e959a","getFundDeployer()":"97c0ac87","getOwner()":"893d20e8","getPolicyManager()":"d44ad6cb","getVaultProxyForFund(address)":"46790346","receiveCallFromComptroller(address,uint256,bytes)":"1bee801e","setConfigForFund(bytes)":"89cbe1d0"},"id":163}