{"abi":[{"type":"constructor","inputs":[{"name":"_fundDeployer","type":"address","internalType":"address"},{"name":"_policyManager","type":"address","internalType":"address"}],"stateMutability":"nonpayable"},{"type":"function","name":"activateForFund","inputs":[],"outputs":[],"stateMutability":"nonpayable"},{"type":"function","name":"deactivateForFund","inputs":[],"outputs":[],"stateMutability":"nonpayable"},{"type":"function","name":"getFundDeployer","inputs":[],"outputs":[{"name":"fundDeployer_","type":"address","internalType":"address"}],"stateMutability":"view"},{"type":"function","name":"getOwner","inputs":[],"outputs":[{"name":"owner_","type":"address","internalType":"address"}],"stateMutability":"view"},{"type":"function","name":"getPolicyManager","inputs":[],"outputs":[{"name":"policyManager_","type":"address","internalType":"address"}],"stateMutability":"view"},{"type":"function","name":"getVaultProxyForFund","inputs":[{"name":"_comptrollerProxy","type":"address","internalType":"address"}],"outputs":[{"name":"vaultProxy_","type":"address","internalType":"address"}],"stateMutability":"view"},{"type":"function","name":"receiveCallFromComptroller","inputs":[{"name":"_caller","type":"address","internalType":"address"},{"name":"_actionId","type":"uint256","internalType":"uint256"},{"name":"_callArgs","type":"bytes","internalType":"bytes"}],"outputs":[],"stateMutability":"nonpayable"},{"type":"function","name":"setConfigForFund","inputs":[{"name":"","type":"bytes","internalType":"bytes"}],"outputs":[],"stateMutability":"nonpayable"},{"type":"event","name":"CallOnIntegrationExecutedForFund","inputs":[{"name":"comptrollerProxy","type":"address","indexed":true,"internalType":"address"},{"name":"caller","type":"address","indexed":false,"internalType":"address"},{"name":"adapter","type":"address","indexed":true,"internalType":"address"},{"name":"selector","type":"bytes4","indexed":true,"internalType":"bytes4"},{"name":"integrationData","type":"bytes","indexed":false,"internalType":"bytes"},{"name":"incomingAssets","type":"address[]","indexed":false,"internalType":"address[]"},{"name":"incomingAssetAmounts","type":"uint256[]","indexed":false,"internalType":"uint256[]"},{"name":"spendAssets","type":"address[]","indexed":false,"internalType":"address[]"},{"name":"spendAssetAmounts","type":"uint256[]","indexed":false,"internalType":"uint256[]"}],"anonymous":false},{"type":"event","name":"ValidatedVaultProxySetForFund","inputs":[{"name":"comptrollerProxy","type":"address","indexed":true,"internalType":"address"},{"name":"vaultProxy","type":"address","indexed":true,"internalType":"address"}],"anonymous":false}],"bytecode":{"object":"0x60c06040523480156200001157600080fd5b506040516200206238038062002062833981016040819052620000349162000069565b6001600160a01b039182166080521660a052620000a1565b80516001600160a01b03811681146200006457600080fd5b919050565b600080604083850312156200007d57600080fd5b62000088836200004c565b915062000098602084016200004c565b90509250929050565b60805160a051611f78620000ea6000396000818161012d01528181610584015281816106ba01526107be015260008181610107015281816103e401526108a50152611f786000f3fe608060405234801561001057600080fd5b50600436106100885760003560e01c806389cbe1d01161005b57806389cbe1d0146100f257806397c0ac8714610105578063bd8e959a146100a0578063d44ad6cb1461012b57600080fd5b80631bee801e1461008d57806321725d01146100a057806346790346146100a2578063893d20e8146100ea575b600080fd5b6100a061009b3660046117a6565b610151565b005b6100ce6100b0366004611802565b6001600160a01b039081166000908152602081905260409020541690565b6040516001600160a01b03909116815260200160405180910390f35b6100ce6103e0565b6100a0610100366004611826565b610469565b7f00000000000000000000000000000000000000000000000000000000000000006100ce565b7f00000000000000000000000000000000000000000000000000000000000000006100ce565b336000818152602081905260409020546001600160a01b0316806101d25760405162461bcd60e51b815260206004820152602d60248201527f7265636569766543616c6c46726f6d436f6d7074726f6c6c65723a2046756e6460448201526c081a5cc81b9bdd081d985b1a59609a1b60648201526084015b60405180910390fd5b60405163714ca2d160e01b81526001600160a01b03878116600483015282169063714ca2d190602401602060405180830381865afa158015610218573d6000803e3d6000fd5b505050506040513d601f19601f8201168201806040525081019061023c9190611868565b6102995760405162461bcd60e51b815260206004820152602860248201527f7265636569766543616c6c46726f6d436f6d7074726f6c6c65723a20556e61756044820152671d1a1bdc9a5e995960c21b60648201526084016101c9565b846000036102e8576102e386838387878080601f01602080910402602001604051908101604052809392919081815260200183838082843760009201919091525061047792505050565b6103d8565b84600103610331576102e3868386868080601f0160208091040260200160405190810160405280939291908181526020018383808284376000920191909152506106a092505050565b8460020361037a576102e3868386868080601f0160208091040260200160405190810160405280939291908181526020018383808284376000920191909152506107a492505050565b60405162461bcd60e51b815260206004820152602d60248201527f7265636569766543616c6c46726f6d436f6d7074726f6c6c65723a20496e766160448201526c1b1a590817d858dd1a5bdb9259609a1b60648201526084016101c9565b505050505050565b60007f00000000000000000000000000000000000000000000000000000000000000006001600160a01b031663893d20e86040518163ffffffff1660e01b8152600401602060405180830381865afa158015610440573d6000803e3d6000fd5b505050506040513d601f19601f82011682018060405250810190610464919061188a565b905090565b610472336108a1565b505050565b816001600160a01b0316635a53e3486040518163ffffffff1660e01b8152600401602060405180830381865afa1580156104b5573d6000803e3d6000fd5b505050506040513d601f19601f820116820180604052508101906104d9919061188a565b6001600160a01b0316836001600160a01b0316146105505760405162461bcd60e51b815260206004820152602e60248201527f7265636569766543616c6c46726f6d436f6d7074726f6c6c65723a2046756e6460448201526d206973206e6f742061637469766560901b60648201526084016101c9565b600080600061055e846109fb565b9250925092506000806000806105778a8a898989610a21565b93509350935093506105a67f000000000000000000000000000000000000000000000000000000000000000090565b6001600160a01b0316630442bad58b60018e8b8b8a8a8a8a6040516020016105d4979695949392919061191b565b6040516020818303038152906040526040518463ffffffff1660e01b815260040161060193929190611a05565b600060405180830381600087803b15801561061b57600080fd5b505af115801561062f573d6000803e3d6000fd5b50505050856001600160e01b031916876001600160a01b03168b6001600160a01b03167ff9a77e6aa0d5e80e8c932c9586e789fc0f4efe610f844fc982129c6f385bfffa8e898989898960405161068b96959493929190611a46565b60405180910390a45050505050505050505050565b6000818060200190518101906106b69190611ba4565b90507f00000000000000000000000000000000000000000000000000000000000000006001600160a01b0316630442bad584600487856040516020016106fd929190611be1565b6040516020818303038152906040526040518463ffffffff1660e01b815260040161072a93929190611a05565b600060405180830381600087803b15801561074457600080fd5b505af1158015610758573d6000803e3d6000fd5b5050505060005b815181101561079d5761078b8483838151811061077e5761077e611c05565b6020026020010151610ab0565b8061079581611c31565b91505061075f565b5050505050565b6000818060200190518101906107ba9190611ba4565b90507f00000000000000000000000000000000000000000000000000000000000000006001600160a01b0316630442bad58460058785604051602001610801929190611be1565b6040516020818303038152906040526040518463ffffffff1660e01b815260040161082e93929190611a05565b600060405180830381600087803b15801561084857600080fd5b505af115801561085c573d6000803e3d6000fd5b5050505060005b815181101561079d5761088f8483838151811061088257610882611c05565b6020026020010151610b2c565b8061089981611c31565b915050610863565b60007f0000000000000000000000000000000000000000000000000000000000000000604051631054b35560e21b81526001600160a01b0384811660048301529190911690634152cd5490602401602060405180830381865afa15801561090c573d6000803e3d6000fd5b505050506040513d601f19601f82011682018060405250810190610930919061188a565b90506001600160a01b0381166109a35760405162461bcd60e51b815260206004820152603260248201527f5f5f73657456616c6964617465645661756c7450726f78793a20496e76616c696044820152716420436f6d7074726f6c6c657250726f787960701b60648201526084016101c9565b6001600160a01b0382811660008181526020819052604080822080546001600160a01b0319169486169485179055517f8852dcaa71340ea616a65ffac013450dfb238607481fb9d78346c667fe256c139190a3919050565b600080606083806020019051810190610a149190611c4a565b9250925092509193909250565b6060806060806060806000606080610a3c8e8e8e8e8e610b52565b809750819850829d50839950849a50859b50869f5050505050505050610a888d8d8d8d8b878f604051602001610a7493929190611d14565b604051602081830303815290604052611051565b610a9a8e8e8e8c8989898e8a8a611123565b9098509550505050505095509550955095915050565b604080516001600160a01b0383811660208301528416916310acd06d91600491015b6040516020818303038152906040526040518363ffffffff1660e01b8152600401610afe929190611d57565b600060405180830381600087803b158015610b1857600080fd5b505af11580156103d8573d6000803e3d6000fd5b604080516001600160a01b0383811660208301528416916310acd06d9160069101610ad2565b606080606060006060806060896001600160a01b031663c54efee58c8b8b6040518463ffffffff1660e01b8152600401610b8e93929190611d80565b600060405180830381865afa158015610bab573d6000803e3d6000fd5b505050506040513d6000823e601f3d908101601f19168201604052610bd39190810190611e0f565b82518451929c50909950939750919550935014610c475760405162461bcd60e51b815260206004820152602c60248201527f5f5f70726550726f63657373436f493a205370656e642061737365747320617260448201526b1c985e5cc81d5b995c5d585b60a21b60648201526084016101c9565b8451875114610cb05760405162461bcd60e51b815260206004820152602f60248201527f5f5f70726550726f63657373436f493a20496e636f6d696e672061737365747360448201526e08185c9c985e5cc81d5b995c5d585b608a1b60648201526084016101c9565b610cb983611547565b610d145760405162461bcd60e51b815260206004820152602660248201527f5f5f70726550726f63657373436f493a204475706c6963617465207370656e6460448201526508185cdcd95d60d21b60648201526084016101c9565b610d1d87611547565b610d7b5760405162461bcd60e51b815260206004820152602960248201527f5f5f70726550726f63657373436f493a204475706c696361746520696e636f6d6044820152681a5b99c8185cdcd95d60ba1b60648201526084016101c9565b865167ffffffffffffffff811115610d9557610d95611ac5565b604051908082528060200260200182016040528015610dbe578160200160208202803683370190505b50955060005b8751811015610e8457878181518110610ddf57610ddf611c05565b60209081029190910101516040516370a0823160e01b81526001600160a01b038e81166004830152909116906370a0823190602401602060405180830381865afa158015610e31573d6000803e3d6000fd5b505050506040513d601f19601f82011682018060405250810190610e559190611ed4565b878281518110610e6757610e67611c05565b602090810291909101015280610e7c81611c31565b915050610dc4565b50825167ffffffffffffffff811115610e9f57610e9f611ac5565b604051908082528060200260200182016040528015610ec8578160200160208202803683370190505b50905060005b835181101561104157838181518110610ee957610ee9611c05565b60209081029190910101516040516370a0823160e01b81526001600160a01b038e81166004830152909116906370a0823190602401602060405180830381865afa158015610f3b573d6000803e3d6000fd5b505050506040513d601f19601f82011682018060405250810190610f5f9190611ed4565b828281518110610f7157610f71611c05565b60209081029190910101526001856002811115610f9057610f9061199f565b03610fd857610fd38d858381518110610fab57610fab611c05565b60200260200101518d868581518110610fc657610fc6611c05565b6020026020010151611604565b61102f565b6002856002811115610fec57610fec61199f565b0361102f5761102f8d85838151811061100757611007611c05565b60200260200101518d86858151811061102257611022611c05565b6020026020010151611694565b8061103981611c31565b915050610ece565b50959b949a509550955095509550565b600080856001600160a01b03168588868660405160240161107493929190611eed565b60408051601f198184030181529181526020820180516001600160e01b03166001600160e01b03199094169390931790925290516110b29190611f23565b6000604051808303816000865af19150503d80600081146110ef576040519150601f19603f3d011682016040523d82523d6000602084013e6110f4565b606091505b50915091508181906111195760405162461bcd60e51b81526004016101c99190611f3f565b5050505050505050565b606080885167ffffffffffffffff81111561114057611140611ac5565b604051908082528060200260200182016040528015611169578160200160208202803683370190505b50915060005b89518110156112ad5788818151811061118a5761118a611c05565b60200260200101516111b58d8c84815181106111a8576111a8611c05565b60200260200101516116ce565b6111bf9190611f52565b8382815181106111d1576111d1611c05565b6020026020010181815250508781815181106111ef576111ef611c05565b602002602001015183828151811061120957611209611c05565b602002602001015110156112855760405162461bcd60e51b815260206004820152603c60248201527f5f5f706f737450726f63657373436f493a20526563656976656420696e636f6d60448201527f696e67206173736574206c657373207468616e2065787065637465640000000060648201526084016101c9565b61129b8d8b838151811061077e5761077e611c05565b806112a581611c31565b91505061116f565b50845167ffffffffffffffff8111156112c8576112c8611ac5565b6040519080825280602002602001820160405280156112f1578160200160208202803683370190505b50905060005b85518110156115375760006113188d8884815181106111a8576111a8611c05565b905084828151811061132c5761132c611c05565b602002602001015181101561137f578085838151811061134e5761134e611c05565b60200260200101516113609190611f52565b83838151811061137257611372611c05565b6020026020010181815250505b60018860028111156113935761139361199f565b14801561143c575060008783815181106113af576113af611c05565b60200260200101516001600160a01b031663dd62ed3e8f8f6040518363ffffffff1660e01b81526004016113f99291906001600160a01b0392831681529116602082015260400190565b602060405180830381865afa158015611416573d6000803e3d6000fd5b505050506040513d601f19601f8201168201806040525081019061143a9190611ed4565b115b1561146c576114678e88848151811061145757611457611c05565b60200260200101518e6000611604565b611524565b60008860028111156114805761148061199f565b036115245785828151811061149757611497611c05565b60200260200101518383815181106114b1576114b1611c05565b602002602001015111156115245760405162461bcd60e51b815260206004820152603460248201527f5f5f706f737450726f63657373436f493a205370656e7420616d6f756e7420676044820152731c99585d195c881d1a185b88195e1c1958dd195960621b60648201526084016101c9565b508061152f81611c31565b9150506112f7565b509a509a98505050505050505050565b6000600182511161155a57506001919050565b815160005b818110156115fa576000611574826001611f65565b90505b828110156115e75784818151811061159157611591611c05565b60200260200101516001600160a01b03168583815181106115b4576115b4611c05565b60200260200101516001600160a01b0316036115d557506000949350505050565b806115df81611c31565b915050611577565b50806115f281611c31565b91505061155f565b5060019392505050565b604080516001600160a01b0385811660208301528481169282019290925260608101839052908516906310acd06d906005906080015b6040516020818303038152906040526040518363ffffffff1660e01b8152600401611666929190611d57565b600060405180830381600087803b15801561168057600080fd5b505af1158015611119573d6000803e3d6000fd5b604080516001600160a01b0385811660208301528481169282019290925260608101839052908516906310acd06d9060079060800161163a565b6040516370a0823160e01b81526001600160a01b038381166004830152600091908316906370a0823190602401602060405180830381865afa158015611718573d6000803e3d6000fd5b505050506040513d601f19601f8201168201806040525081019061173c9190611ed4565b90505b92915050565b6001600160a01b038116811461175a57600080fd5b50565b60008083601f84011261176f57600080fd5b50813567ffffffffffffffff81111561178757600080fd5b60208301915083602082850101111561179f57600080fd5b9250929050565b600080600080606085870312156117bc57600080fd5b84356117c781611745565b935060208501359250604085013567ffffffffffffffff8111156117ea57600080fd5b6117f68782880161175d565b95989497509550505050565b60006020828403121561181457600080fd5b813561181f81611745565b9392505050565b6000806020838503121561183957600080fd5b823567ffffffffffffffff81111561185057600080fd5b61185c8582860161175d565b90969095509350505050565b60006020828403121561187a57600080fd5b8151801515811461181f57600080fd5b60006020828403121561189c57600080fd5b815161181f81611745565b600081518084526020808501945080840160005b838110156118e05781516001600160a01b0316875295820195908201906001016118bb565b509495945050505050565b600081518084526020808501945080840160005b838110156118e0578151875295820195908201906001016118ff565b6001600160a01b038881168252871660208201526001600160e01b03198616604082015260e060608201819052600090611957908301876118a7565b828103608084015261196981876118eb565b905082810360a084015261197d81866118a7565b905082810360c084015261199181856118eb565b9a9950505050505050505050565b634e487b7160e01b600052602160045260246000fd5b60005b838110156119d05781810151838201526020016119b8565b50506000910152565b600081518084526119f18160208601602086016119b5565b601f01601f19169290920160200192915050565b6001600160a01b03841681526000600a8410611a2357611a2361199f565b83602083015260606040830152611a3d60608301846119d9565b95945050505050565b6001600160a01b038716815260c060208201819052600090611a6a908301886119d9565b8281036040840152611a7c81886118a7565b90508281036060840152611a9081876118eb565b90508281036080840152611aa481866118a7565b905082810360a0840152611ab881856118eb565b9998505050505050505050565b634e487b7160e01b600052604160045260246000fd5b604051601f8201601f1916810167ffffffffffffffff81118282101715611b0457611b04611ac5565b604052919050565b600067ffffffffffffffff821115611b2657611b26611ac5565b5060051b60200190565b600082601f830112611b4157600080fd5b81516020611b56611b5183611b0c565b611adb565b82815260059290921b84018101918181019086841115611b7557600080fd5b8286015b84811015611b99578051611b8c81611745565b8352918301918301611b79565b509695505050505050565b600060208284031215611bb657600080fd5b815167ffffffffffffffff811115611bcd57600080fd5b611bd984828501611b30565b949350505050565b6001600160a01b0383168152604060208201819052600090611bd9908301846118a7565b634e487b7160e01b600052603260045260246000fd5b634e487b7160e01b600052601160045260246000fd5b600060018201611c4357611c43611c1b565b5060010190565b600080600060608486031215611c5f57600080fd5b8351611c6a81611745565b60208501519093506001600160e01b031981168114611c8857600080fd5b604085015190925067ffffffffffffffff80821115611ca657600080fd5b818601915086601f830112611cba57600080fd5b815181811115611ccc57611ccc611ac5565b611cdf601f8201601f1916602001611adb565b9150808252876020828501011115611cf657600080fd5b611d078160208401602086016119b5565b5080925050509250925092565b606081526000611d2760608301866118a7565b8281036020840152611d3981866118eb565b90508281036040840152611d4d81856118a7565b9695505050505050565b6000600b8410611d6957611d6961199f565b83825260406020830152611bd960408301846119d9565b6001600160a01b03841681526001600160e01b031983166020820152606060408201819052600090611a3d908301846119d9565b600082601f830112611dc557600080fd5b81516020611dd5611b5183611b0c565b82815260059290921b84018101918181019086841115611df457600080fd5b8286015b84811015611b995780518352918301918301611df8565b600080600080600060a08688031215611e2757600080fd5b855160038110611e3657600080fd5b602087015190955067ffffffffffffffff80821115611e5457600080fd5b611e6089838a01611b30565b95506040880151915080821115611e7657600080fd5b611e8289838a01611db4565b94506060880151915080821115611e9857600080fd5b611ea489838a01611b30565b93506080880151915080821115611eba57600080fd5b50611ec788828901611db4565b9150509295509295909350565b600060208284031215611ee657600080fd5b5051919050565b6001600160a01b0384168152606060208201819052600090611f11908301856119d9565b8281036040840152611d4d81856119d9565b60008251611f358184602087016119b5565b9190910192915050565b60208152600061173c60208301846119d9565b8181038181111561173f5761173f611c1b565b8082018082111561173f5761173f611c1b56","linkReferences":{}},"methodIdentifiers":{"activateForFund()":"21725d01","deactivateForFund()":"bd8e959a","getFundDeployer()":"97c0ac87","getOwner()":"893d20e8","getPolicyManager()":"d44ad6cb","getVaultProxyForFund(address)":"46790346","receiveCallFromComptroller(address,uint256,bytes)":"1bee801e","setConfigForFund(bytes)":"89cbe1d0"},"id":145}