{"abi":[{"type":"constructor","inputs":[{"name":"_mapleV1ToV2PoolMapper","type":"address","internalType":"address"}],"stateMutability":"nonpayable"},{"type":"function","name":"getDebtAssets","inputs":[],"outputs":[{"name":"assets_","type":"address[]","internalType":"address[]"},{"name":"amounts_","type":"uint256[]","internalType":"uint256[]"}],"stateMutability":"nonpayable"},{"type":"function","name":"getManagedAssets","inputs":[],"outputs":[{"name":"assets_","type":"address[]","internalType":"address[]"},{"name":"amounts_","type":"uint256[]","internalType":"uint256[]"}],"stateMutability":"nonpayable"},{"type":"function","name":"getPreMigrationValueSnapshotOfPoolTokenV1","inputs":[{"name":"_poolV1","type":"address","internalType":"address"}],"outputs":[{"name":"valueSnapshot_","type":"uint256","internalType":"uint256"}],"stateMutability":"view"},{"type":"function","name":"getUsedLendingPoolsV1","inputs":[],"outputs":[{"name":"poolsV1_","type":"address[]","internalType":"address[]"}],"stateMutability":"view"},{"type":"function","name":"getUsedLendingPoolsV2","inputs":[],"outputs":[{"name":"poolsV2_","type":"address[]","internalType":"address[]"}],"stateMutability":"view"},{"type":"function","name":"init","inputs":[{"name":"","type":"bytes","internalType":"bytes"}],"outputs":[],"stateMutability":"nonpayable"},{"type":"function","name":"isUsedLendingPoolV2","inputs":[{"name":"_poolV2","type":"address","internalType":"address"}],"outputs":[{"name":"isUsed_","type":"bool","internalType":"bool"}],"stateMutability":"view"},{"type":"function","name":"migratePoolsV1ToV2","inputs":[],"outputs":[],"stateMutability":"nonpayable"},{"type":"function","name":"receiveCallFromVault","inputs":[{"name":"_actionData","type":"bytes","internalType":"bytes"}],"outputs":[],"stateMutability":"nonpayable"},{"type":"function","name":"snapshotPoolTokenV1BalanceValues","inputs":[],"outputs":[],"stateMutability":"nonpayable"},{"type":"event","name":"PoolTokenV1PreMigrationValueSnapshotted","inputs":[{"name":"lendingPoolV1","type":"address","indexed":true,"internalType":"address"},{"name":"value","type":"uint256","indexed":false,"internalType":"uint256"}],"anonymous":false},{"type":"event","name":"UsedLendingPoolAdded","inputs":[{"name":"lendingPool","type":"address","indexed":true,"internalType":"address"}],"anonymous":false},{"type":"event","name":"UsedLendingPoolRemoved","inputs":[{"name":"lendingPool","type":"address","indexed":true,"internalType":"address"}],"anonymous":false},{"type":"event","name":"UsedLendingPoolV2Added","inputs":[{"name":"lendingPoolV2","type":"address","indexed":true,"internalType":"address"}],"anonymous":false},{"type":"event","name":"UsedLendingPoolV2Removed","inputs":[{"name":"lendingPoolV2","type":"address","indexed":true,"internalType":"address"}],"anonymous":false}],"bytecode":{"object":"0x60a060405234801561001057600080fd5b5060405161233e38038061233e8339818101604052602081101561003357600080fd5b5051606081901b6001600160601b0319166080526001600160a01b03166122c86100766000398061037e528061047252806105da528061074552506122c86000f3fe608060405234801561001057600080fd5b506004361061009e5760003560e01c8063be0a08e911610066578063be0a08e914610236578063c4c54c921461028e578063e5c23a9714610296578063e8ffc97b1461033c578063ecd658b4146103745761009e565b80632d13e051146100a35780634ddf47d4146100ad5780637f15233f1461015357806380daddb81461015b578063a3451a39146101fc575b600080fd5b6100ab61037c565b005b6100ab600480360360208110156100c357600080fd5b8101906020810181356401000000008111156100de57600080fd5b8201836020820111156100f057600080fd5b8035906020019184600183028401116401000000008311171561011257600080fd5b91908080601f0160208091040260200160405190810160405280939291908181526020018383808284376000920191909152509295506105d5945050505050565b6100ab6105d8565b610163610735565b604051808060200180602001838103835285818151815260200191508051906020019060200280838360005b838110156101a757818101518382015260200161018f565b50505050905001838103825284818151815260200191508051906020019060200280838360005b838110156101e65781810151838201526020016101ce565b5050505090500194505050505060405180910390f35b6102226004803603602081101561021257600080fd5b50356001600160a01b0316610be2565b604080519115158252519081900360200190f35b61023e610bf5565b60408051602080825283518183015283519192839290830191858101910280838360005b8381101561027a578181015183820152602001610262565b505050509050019250505060405180910390f35b61023e610c57565b6100ab600480360360208110156102ac57600080fd5b8101906020810181356401000000008111156102c757600080fd5b8201836020820111156102d957600080fd5b803590602001918460018302840111640100000000831117156102fb57600080fd5b91908080601f016020809104026020016040519081016040528093929190818152602001838380828437600092019190915250929550610cb7945050505050565b6103626004803603602081101561035257600080fd5b50356001600160a01b0316610e2c565b60408051918252519081900360200190f35b610163610e47565b7f00000000000000000000000000000000000000000000000000000000000000006001600160a01b0316639cf7922f6040518163ffffffff1660e01b815260040160206040518083038186803b1580156103d557600080fd5b505afa1580156103e9573d6000803e3d6000fd5b505050506040513d60208110156103ff57600080fd5b505161043c5760405162461bcd60e51b81526004018080602001828103825260298152602001806121956029913960400191505060405180910390fd5b6060610446610c57565b805190915060005b818110156105d057600083828151811061046457fe5b6020026020010151905060007f00000000000000000000000000000000000000000000000000000000000000006001600160a01b03166337dd8196836040518263ffffffff1660e01b815260040180826001600160a01b0316815260200191505060206040518083038186803b1580156104dd57600080fd5b505afa1580156104f1573d6000803e3d6000fd5b505050506040513d602081101561050757600080fd5b505190506001600160a01b038116610566576040805162461bcd60e51b815260206004820152601e60248201527f6d696772617465506f6f6c735631546f56323a204e6f206d617070696e670000604482015290519081900360640190fd5b61056f81610e4d565b61057a600083610ed1565b506040516001600160a01b038316907f33051e89b0c4d3b7fb9db3bcf71cdf9536833424b480c169231a80157f3dd6ee90600090a2506001600160a01b031660009081526002602052604081205560010161044e565b505050565b50565b7f00000000000000000000000000000000000000000000000000000000000000006001600160a01b0316638580eb5b6040518163ffffffff1660e01b815260040160206040518083038186803b15801561063157600080fd5b505afa158015610645573d6000803e3d6000fd5b505050506040513d602081101561065b57600080fd5b50516106985760405162461bcd60e51b815260040180806020018281038252603281526020018061222a6032913960400191505060405180910390fd5b60606106a2610c57565b805190915060005b818110156105d05760008382815181106106c057fe5b6020026020010151905060006106d582610fc9565b6001600160a01b0383166000818152600260209081526040918290208490558151848152915193945091927fe3086fdf58014fc6068d005890131ac0cb6f8c29a66d7f7bc15a097e1f85746e929181900390910190a250506001016106aa565b600054606090819080156109e5577f00000000000000000000000000000000000000000000000000000000000000006001600160a01b0316639cf7922f6040518163ffffffff1660e01b815260040160206040518083038186803b15801561079c57600080fd5b505afa1580156107b0573d6000803e3d6000fd5b505050506040513d60208110156107c657600080fd5b5051156107dd576107d561037c565b5060006109e5565b306001600160a01b0316637f15233f6040518163ffffffff1660e01b8152600401600060405180830381600087803b15801561081857600080fd5b505af1925050508015610829575060015b506060610834610c57565b90508167ffffffffffffffff8111801561084d57600080fd5b50604051908082528060200260200182016040528015610877578160200160208202803683370190505b5093508167ffffffffffffffff8111801561089157600080fd5b506040519080825280602002602001820160405280156108bb578160200160208202803683370190505b50925060005b828110156109e25760008282815181106108d757fe5b6020026020010151905060006108ec82610e2c565b90506000811161092d5760405162461bcd60e51b81526004018080602001828103825260258152602001806122056025913960400191505060405180910390fd5b816001600160a01b031663209b2bca6040518163ffffffff1660e01b815260040160206040518083038186803b15801561096657600080fd5b505afa15801561097a573d6000803e3d6000fd5b505050506040513d602081101561099057600080fd5b505187518890859081106109a057fe5b60200260200101906001600160a01b031690816001600160a01b031681525050808684815181106109cd57fe5b602090810291909101015250506001016108c1565b50505b80610bc35760606109f4610bf5565b80519091508067ffffffffffffffff81118015610a1057600080fd5b50604051908082528060200260200182016040528015610a3a578160200160208202803683370190505b5094508067ffffffffffffffff81118015610a5457600080fd5b50604051908082528060200260200182016040528015610a7e578160200160208202803683370190505b50935060005b81811015610bbf576000838281518110610a9a57fe5b60200260200101519050806001600160a01b03166338d52e0f6040518163ffffffff1660e01b815260040160206040518083038186803b158015610add57600080fd5b505afa158015610af1573d6000803e3d6000fd5b505050506040513d6020811015610b0757600080fd5b50518751889084908110610b1757fe5b6001600160a01b03928316602091820292909201015281166350496cbd610b3d836111c8565b6040518263ffffffff1660e01b81526004018082815260200191505060206040518083038186803b158015610b7157600080fd5b505afa158015610b85573d6000803e3d6000fd5b505050506040513d6020811015610b9b57600080fd5b50518651879084908110610bab57fe5b602090810291909101015250600101610a84565b5050505b600183511115610bdd57610bd783836113aa565b90935091505b509091565b6000610bef6001836115ed565b92915050565b60606001805480602002602001604051908101604052809291908181526020018280548015610c4d57602002820191906000526020600020905b81546001600160a01b03168152600190910190602001808311610c2f575b5050505050905090565b60606000805480602002602001604051908101604052809291908181526020018280548015610c4d576020028201919060005260206000209081546001600160a01b03168152600190910190602001808311610c2f575050505050905090565b60006060828060200190516040811015610cd057600080fd5b815160208301805160405192949293830192919084640100000000821115610cf757600080fd5b908301906020820185811115610d0c57600080fd5b8251640100000000811182820188101715610d2657600080fd5b82525081516020918201929091019080838360005b83811015610d53578181015183820152602001610d3b565b50505050905090810190601f168015610d805780820380516001836020036101000a031916815260200191505b50604052505050915091506009600c811115610d9857fe5b821415610dad57610da881611645565b6105d0565b600a821415610dbf57610da881611759565b600b821415610dd157610da8816117ed565b600c821415610de357610da8816118d4565b6008821415610df557610da88161193b565b60405162461bcd60e51b81526004018080602001828103825260268152602001806121be6026913960400191505060405180910390fd5b6001600160a01b031660009081526002602052604090205490565b60608091565b610e5681610be2565b6105d55760018054808201825560009182527fb10e2d527612073b26eecdfd717e6a320cf44b4afac2b0732d9fcbe2b7fa0cf60180546001600160a01b0319166001600160a01b03841690811790915560405190917ff5adf0712ae89feadd26c8ee6a898759c89978dcc4c5f23811900dc45079821691a250565b8154600090815b81811015610fc157836001600160a01b0316858281548110610ef657fe5b6000918252602090912001546001600160a01b03161415610fb95760018203811015610f8457846001830381548110610f2b57fe5b9060005260206000200160009054906101000a90046001600160a01b0316858281548110610f5557fe5b9060005260206000200160006101000a8154816001600160a01b0302191690836001600160a01b031602179055505b84805480610f8e57fe5b600082815260209020810160001990810180546001600160a01b031916905501905560019250610fc1565b600101610ed8565b505092915050565b60008082905060006110b0826001600160a01b031663209b2bca6040518163ffffffff1660e01b815260040160206040518083038186803b15801561100d57600080fd5b505afa158015611021573d6000803e3d6000fd5b505050506040513d602081101561103757600080fd5b5051604080516370a0823160e01b815230600482015290516001600160a01b038816916370a08231916024808301926020929190829003018186803b15801561107f57600080fd5b505afa158015611093573d6000803e3d6000fd5b505050506040513d60208110156110a957600080fd5b5051611aa5565b90506000826001600160a01b031663443bb293306040518263ffffffff1660e01b815260040180826001600160a01b03168152602001915050602060405180830381600087803b15801561110357600080fd5b505af1158015611117573d6000803e3d6000fd5b505050506040513d602081101561112d57600080fd5b505160408051636696779160e01b815230600482015290519192506000916001600160a01b03861691636696779191602480830192602092919082900301818787803b15801561117c57600080fd5b505af1158015611190573d6000803e3d6000fd5b505050506040513d60208110156111a657600080fd5b505190506111be816111b88585611b39565b90611b93565b9695505050505050565b6000816001600160a01b03166370a08231306040518263ffffffff1660e01b815260040180826001600160a01b0316815260200191505060206040518083038186803b15801561121757600080fd5b505afa15801561122b573d6000803e3d6000fd5b505050506040513d602081101561124157600080fd5b50516040805163481c6a7560e01b815290519192506000916001600160a01b0385169163481c6a75916004808301926020929190829003018186803b15801561128957600080fd5b505afa15801561129d573d6000803e3d6000fd5b505050506040513d60208110156112b357600080fd5b50516040805163417f29ad60e11b815290516001600160a01b03909216916382fe535a91600480820192602092909190829003018186803b1580156112f757600080fd5b505afa15801561130b573d6000803e3d6000fd5b505050506040513d602081101561132157600080fd5b5051604080516338cdab1160e21b815230600482015290519192506113a3916001600160a01b0384169163e336ac44916024808301926020929190829003018186803b15801561137057600080fd5b505afa158015611384573d6000803e3d6000fd5b505050506040513d602081101561139a57600080fd5b50518390611b39565b9392505050565b6060808351600014156113bc576115e6565b6001805b855181101561143c576000805b82811015611426578781815181106113e157fe5b60200260200101516001600160a01b03168884815181106113fe57fe5b60200260200101516001600160a01b0316141561141e5760019150611426565b6001016113cd565b5080611433576001909201915b506001016113c0565b508067ffffffffffffffff8111801561145457600080fd5b5060405190808252806020026020018201604052801561147e578160200160208202803683370190505b5092508067ffffffffffffffff8111801561149857600080fd5b506040519080825280602002602001820160405280156114c2578160200160208202803683370190505b5091506000805b86518110156115e2576000805b83811015611561578681815181106114ea57fe5b60200260200101516001600160a01b031689848151811061150757fe5b60200260200101516001600160a01b03161415611559576001915087838151811061152e57fe5b602002602001015186828151811061154257fe5b602002602001018181510191508181525050611561565b6001016114d6565b50806115d95787828151811061157357fe5b602002602001015186848151811061158757fe5b60200260200101906001600160a01b031690816001600160a01b0316815250508682815181106115b357fe5b60200260200101518584815181106115c757fe5b60209081029190910101526001909201915b506001016114c9565b5050505b9250929050565b8154600090815b8181101561163a5784818154811061160857fe5b6000918252602090912001546001600160a01b038581169116141561163257600192505050610bef565b6001016115f4565b506000949350505050565b600054156116555761165561037c565b60008061166183611bf0565b915091506116d4826001600160a01b03166338d52e0f6040518163ffffffff1660e01b815260040160206040518083038186803b1580156116a157600080fd5b505afa1580156116b5573d6000803e3d6000fd5b505050506040513d60208110156116cb57600080fd5b50518383611c1b565b60408051636e553f6560e01b81526004810183905230602482015290516001600160a01b03841691636e553f659160448083019260209291908290030181600087803b15801561172357600080fd5b505af1158015611737573d6000803e3d6000fd5b505050506040513d602081101561174d57600080fd5b506105d0905082610e4d565b600054156117695761176961037c565b60008061177583611bf0565b91509150816001600160a01b031663107703ab82306040518363ffffffff1660e01b815260040180838152602001826001600160a01b0316815260200192505050600060405180830381600087803b1580156117d057600080fd5b505af11580156117e4573d6000803e3d6000fd5b50505050505050565b6000806117f983611bf0565b60408051635d043b2960e11b81526004810183905233602482015230604482015290519294509092506001600160a01b0384169163ba087652916064808201926020929091908290030181600087803b15801561185557600080fd5b505af1158015611869573d6000803e3d6000fd5b505050506040513d602081101561187f57600080fd5b5061188b9050826111c8565b6105d05761189a600183610ed1565b506040516001600160a01b038316907f9d6926baa57c10a6af1bafa91bb5183c5faae6fc2d152ebbd45a1ef6a265bb1690600090a2505050565b6000806118e083611bf0565b91509150816001600160a01b0316631b8f183082306040518363ffffffff1660e01b815260040180838152602001826001600160a01b0316815260200192505050600060405180830381600087803b1580156117d057600080fd5b600061194682611cd3565b905060008190506000816001600160a01b031663d1af0c7d6040518163ffffffff1660e01b815260040160206040518083038186803b15801561198857600080fd5b505afa15801561199c573d6000803e3d6000fd5b505050506040513d60208110156119b257600080fd5b505160408051631e8c5c8960e11b815290519192506001600160a01b03841691633d18b9129160048082019260009290919082900301818387803b1580156119f957600080fd5b505af1158015611a0d573d6000803e3d6000fd5b50505050611a9f33826001600160a01b03166370a08231306040518263ffffffff1660e01b815260040180826001600160a01b0316815260200191505060206040518083038186803b158015611a6257600080fd5b505afa158015611a76573d6000803e3d6000fd5b505050506040513d6020811015611a8c57600080fd5b50516001600160a01b0384169190611cf2565b50505050565b600080836001600160a01b031663313ce5676040518163ffffffff1660e01b815260040160206040518083038186803b158015611ae157600080fd5b505afa158015611af5573d6000803e3d6000fd5b505050506040513d6020811015611b0b57600080fd5b505160ff16600a0a9050611b31670de0b6b3a7640000611b2b8584611d44565b90611d9d565b949350505050565b6000828201838110156113a3576040805162461bcd60e51b815260206004820152601b60248201527f536166654d6174683a206164646974696f6e206f766572666c6f770000000000604482015290519081900360640190fd5b600082821115611bea576040805162461bcd60e51b815260206004820152601e60248201527f536166654d6174683a207375627472616374696f6e206f766572666c6f770000604482015290519081900360640190fd5b50900390565b600080828060200190516040811015611c0857600080fd5b5080516020909101519092509050915091565b60408051636eb1769f60e11b81523060048201526001600160a01b038481166024830152915160009286169163dd62ed3e916044808301926020929190829003018186803b158015611c6c57600080fd5b505afa158015611c80573d6000803e3d6000fd5b505050506040513d6020811015611c9657600080fd5b5051905081811015611a9f578015611cbd57611cbd6001600160a01b038516846000611e04565b611a9f6001600160a01b03851684600019611e04565b6000818060200190516020811015611cea57600080fd5b505192915050565b604080516001600160a01b038416602482015260448082018490528251808303909101815260649091019091526020810180516001600160e01b031663a9059cbb60e01b1790526105d0908490611f13565b600082611d5357506000610bef565b82820282848281611d6057fe5b04146113a35760405162461bcd60e51b81526004018080602001828103825260218152602001806121e46021913960400191505060405180910390fd5b6000808211611df3576040805162461bcd60e51b815260206004820152601a60248201527f536166654d6174683a206469766973696f6e206279207a65726f000000000000604482015290519081900360640190fd5b818381611dfc57fe5b049392505050565b801580611e8a575060408051636eb1769f60e11b81523060048201526001600160a01b03848116602483015291519185169163dd62ed3e91604480820192602092909190829003018186803b158015611e5c57600080fd5b505afa158015611e70573d6000803e3d6000fd5b505050506040513d6020811015611e8657600080fd5b5051155b611ec55760405162461bcd60e51b81526004018080602001828103825260368152602001806122866036913960400191505060405180910390fd5b604080516001600160a01b038416602482015260448082018490528251808303909101815260649091019091526020810180516001600160e01b031663095ea7b360e01b1790526105d09084905b6060611f68826040518060400160405280602081526020017f5361666545524332303a206c6f772d6c6576656c2063616c6c206661696c6564815250856001600160a01b0316611fc49092919063ffffffff16565b8051909150156105d057808060200190516020811015611f8757600080fd5b50516105d05760405162461bcd60e51b815260040180806020018281038252602a81526020018061225c602a913960400191505060405180910390fd5b6060611b31848460008585611fd8856120ea565b612029576040805162461bcd60e51b815260206004820152601d60248201527f416464726573733a2063616c6c20746f206e6f6e2d636f6e7472616374000000604482015290519081900360640190fd5b60006060866001600160a01b031685876040518082805190602001908083835b602083106120685780518252601f199092019160209182019101612049565b6001836020036101000a03801982511681845116808217855250505050505090500191505060006040518083038185875af1925050503d80600081146120ca576040519150601f19603f3d011682016040523d82523d6000602084013e6120cf565b606091505b50915091506120df8282866120f0565b979650505050505050565b3b151590565b606083156120ff5750816113a3565b82511561210f5782518084602001fd5b8160405162461bcd60e51b81526004018080602001828103825283818151815260200191508051906020019080838360005b83811015612159578181015183820152602001612141565b50505050905090810190601f1680156121865780820380516001836020036101000a031916815260200191505b509250505060405180910390fdfe6d696772617465506f6f6c735631546f56323a204d6967726174696f6e206e6f7420616c6c6f7765647265636569766543616c6c46726f6d5661756c743a20496e76616c696420616374696f6e4964536166654d6174683a206d756c7469706c69636174696f6e206f766572666c6f776765744d616e616765644173736574733a204e6f20706f6f6c20763120736e617073686f74736e617073686f74506f6f6c546f6b656e563142616c616e636556616c7565733a20536e617073686f74732066726f7a656e5361666545524332303a204552433230206f7065726174696f6e20646964206e6f7420737563636565645361666545524332303a20617070726f76652066726f6d206e6f6e2d7a65726f20746f206e6f6e2d7a65726f20616c6c6f77616e6365a164736f6c634300060c000a","linkReferences":{}},"methodIdentifiers":{"getDebtAssets()":"ecd658b4","getManagedAssets()":"80daddb8","getPreMigrationValueSnapshotOfPoolTokenV1(address)":"e8ffc97b","getUsedLendingPoolsV1()":"c4c54c92","getUsedLendingPoolsV2()":"be0a08e9","init(bytes)":"4ddf47d4","isUsedLendingPoolV2(address)":"a3451a39","migratePoolsV1ToV2()":"2d13e051","receiveCallFromVault(bytes)":"e5c23a97","snapshotPoolTokenV1BalanceValues()":"7f15233f"},"id":168}