{"abi":[{"type":"constructor","inputs":[{"name":"_mapleV1ToV2PoolMapper","type":"address","internalType":"address"}],"stateMutability":"nonpayable"},{"type":"function","name":"getDebtAssets","inputs":[],"outputs":[{"name":"assets_","type":"address[]","internalType":"address[]"},{"name":"amounts_","type":"uint256[]","internalType":"uint256[]"}],"stateMutability":"nonpayable"},{"type":"function","name":"getManagedAssets","inputs":[],"outputs":[{"name":"assets_","type":"address[]","internalType":"address[]"},{"name":"amounts_","type":"uint256[]","internalType":"uint256[]"}],"stateMutability":"nonpayable"},{"type":"function","name":"getPreMigrationValueSnapshotOfPoolTokenV1","inputs":[{"name":"_poolV1","type":"address","internalType":"address"}],"outputs":[{"name":"valueSnapshot_","type":"uint256","internalType":"uint256"}],"stateMutability":"view"},{"type":"function","name":"getUsedLendingPoolsV1","inputs":[],"outputs":[{"name":"poolsV1_","type":"address[]","internalType":"address[]"}],"stateMutability":"view"},{"type":"function","name":"getUsedLendingPoolsV2","inputs":[],"outputs":[{"name":"poolsV2_","type":"address[]","internalType":"address[]"}],"stateMutability":"view"},{"type":"function","name":"init","inputs":[{"name":"","type":"bytes","internalType":"bytes"}],"outputs":[],"stateMutability":"nonpayable"},{"type":"function","name":"isUsedLendingPoolV2","inputs":[{"name":"_poolV2","type":"address","internalType":"address"}],"outputs":[{"name":"isUsed_","type":"bool","internalType":"bool"}],"stateMutability":"view"},{"type":"function","name":"migratePoolsV1ToV2","inputs":[],"outputs":[],"stateMutability":"nonpayable"},{"type":"function","name":"receiveCallFromVault","inputs":[{"name":"_actionData","type":"bytes","internalType":"bytes"}],"outputs":[],"stateMutability":"nonpayable"},{"type":"function","name":"snapshotPoolTokenV1BalanceValues","inputs":[],"outputs":[],"stateMutability":"nonpayable"},{"type":"event","name":"PoolTokenV1PreMigrationValueSnapshotted","inputs":[{"name":"lendingPoolV1","type":"address","indexed":true,"internalType":"address"},{"name":"value","type":"uint256","indexed":false,"internalType":"uint256"}],"anonymous":false},{"type":"event","name":"UsedLendingPoolAdded","inputs":[{"name":"lendingPool","type":"address","indexed":true,"internalType":"address"}],"anonymous":false},{"type":"event","name":"UsedLendingPoolRemoved","inputs":[{"name":"lendingPool","type":"address","indexed":true,"internalType":"address"}],"anonymous":false},{"type":"event","name":"UsedLendingPoolV2Added","inputs":[{"name":"lendingPoolV2","type":"address","indexed":true,"internalType":"address"}],"anonymous":false},{"type":"event","name":"UsedLendingPoolV2Removed","inputs":[{"name":"lendingPoolV2","type":"address","indexed":true,"internalType":"address"}],"anonymous":false}],"bytecode":{"object":"0x60a060405234801561001057600080fd5b506040516131073803806131078339818101604052602081101561003357600080fd5b81019080805190602001909291905050508073ffffffffffffffffffffffffffffffffffffffff1660808173ffffffffffffffffffffffffffffffffffffffff1660601b815250505060805160601c61305f6100a8600039806104ed528061061a528061083c5280610a2f525061305f6000f3fe608060405234801561001057600080fd5b506004361061009e5760003560e01c8063be0a08e911610066578063be0a08e914610273578063c4c54c92146102d2578063e5c23a9714610331578063e8ffc97b146103ec578063ecd658b4146104445761009e565b80632d13e051146100a35780634ddf47d4146100ad5780637f15233f1461016857806380daddb814610172578063a3451a3914610219575b600080fd5b6100ab6104eb565b005b610166600480360360208110156100c357600080fd5b81019080803590602001906401000000008111156100e057600080fd5b8201836020820111156100f257600080fd5b8035906020019184600183028401116401000000008311171561011457600080fd5b91908080601f016020809104026020016040519081016040528093929190818152602001838380828437600081840152601f19601f820116905080830192505050505050509192919290505050610837565b005b61017061083a565b005b61017a610a18565b604051808060200180602001838103835285818151815260200191508051906020019060200280838360005b838110156101c15780820151818401526020810190506101a6565b50505050905001838103825284818151815260200191508051906020019060200280838360005b838110156102035780820151818401526020810190506101e8565b5050505090500194505050505060405180910390f35b61025b6004803603602081101561022f57600080fd5b81019080803573ffffffffffffffffffffffffffffffffffffffff169060200190929190505050610fd8565b60405180821515815260200191505060405180910390f35b61027b610ff5565b6040518080602001828103825283818151815260200191508051906020019060200280838360005b838110156102be5780820151818401526020810190506102a3565b505050509050019250505060405180910390f35b6102da611083565b6040518080602001828103825283818151815260200191508051906020019060200280838360005b8381101561031d578082015181840152602081019050610302565b505050509050019250505060405180910390f35b6103ea6004803603602081101561034757600080fd5b810190808035906020019064010000000081111561036457600080fd5b82018360208201111561037657600080fd5b8035906020019184600183028401116401000000008311171561039857600080fd5b91908080601f016020809104026020016040519081016040528093929190818152602001838380828437600081840152601f19601f820116905080830192505050505050509192919290505050611111565b005b61042e6004803603602081101561040257600080fd5b81019080803573ffffffffffffffffffffffffffffffffffffffff1690602001909291905050506112f6565b6040518082815260200191505060405180910390f35b61044c61133f565b604051808060200180602001838103835285818151815260200191508051906020019060200280838360005b83811015610493578082015181840152602081019050610478565b50505050905001838103825284818151815260200191508051906020019060200280838360005b838110156104d55780820151818401526020810190506104ba565b5050505090500194505050505060405180910390f35b7f000000000000000000000000000000000000000000000000000000000000000073ffffffffffffffffffffffffffffffffffffffff16639cf7922f6040518163ffffffff1660e01b815260040160206040518083038186803b15801561055157600080fd5b505afa158015610565573d6000803e3d6000fd5b505050506040513d602081101561057b57600080fd5b81019080805190602001909291905050506105e1576040517f08c379a0000000000000000000000000000000000000000000000000000000008152600401808060200182810382526029815260200180612f066029913960400191505060405180910390fd5b60606105eb611083565b905060008151905060005b8181101561083257600083828151811061060c57fe5b6020026020010151905060007f000000000000000000000000000000000000000000000000000000000000000073ffffffffffffffffffffffffffffffffffffffff166337dd8196836040518263ffffffff1660e01b8152600401808273ffffffffffffffffffffffffffffffffffffffff16815260200191505060206040518083038186803b15801561069f57600080fd5b505afa1580156106b3573d6000803e3d6000fd5b505050506040513d60208110156106c957600080fd5b81019080805190602001909291905050509050600073ffffffffffffffffffffffffffffffffffffffff168173ffffffffffffffffffffffffffffffffffffffff16141561077f576040517f08c379a000000000000000000000000000000000000000000000000000000000815260040180806020018281038252601e8152602001807f6d696772617465506f6f6c735631546f56323a204e6f206d617070696e67000081525060200191505060405180910390fd5b61078881611345565b61079c8260006113fc90919063ffffffff16565b508173ffffffffffffffffffffffffffffffffffffffff167f33051e89b0c4d3b7fb9db3bcf71cdf9536833424b480c169231a80157f3dd6ee60405160405180910390a2600260008373ffffffffffffffffffffffffffffffffffffffff1673ffffffffffffffffffffffffffffffffffffffff16815260200190815260200160002060009055505080806001019150506105f6565b505050565b50565b7f000000000000000000000000000000000000000000000000000000000000000073ffffffffffffffffffffffffffffffffffffffff16638580eb5b6040518163ffffffff1660e01b815260040160206040518083038186803b1580156108a057600080fd5b505afa1580156108b4573d6000803e3d6000fd5b505050506040513d60208110156108ca57600080fd5b8101908080519060200190929190505050610930576040517f08c379a0000000000000000000000000000000000000000000000000000000008152600401808060200182810382526032815260200180612fc16032913960400191505060405180910390fd5b606061093a611083565b905060008151905060005b81811015610a1357600083828151811061095b57fe5b60200260200101519050600061097082611572565b905080600260008473ffffffffffffffffffffffffffffffffffffffff1673ffffffffffffffffffffffffffffffffffffffff168152602001908152602001600020819055508173ffffffffffffffffffffffffffffffffffffffff167fe3086fdf58014fc6068d005890131ac0cb6f8c29a66d7f7bc15a097e1f85746e826040518082815260200191505060405180910390a250508080600101915050610945565b505050565b6060806000808054905090506000811115610d61577f000000000000000000000000000000000000000000000000000000000000000073ffffffffffffffffffffffffffffffffffffffff16639cf7922f6040518163ffffffff1660e01b815260040160206040518083038186803b158015610a9357600080fd5b505afa158015610aa7573d6000803e3d6000fd5b505050506040513d6020811015610abd57600080fd5b810190808051906020019092919050505015610ae457610adb6104eb565b60009050610d60565b3073ffffffffffffffffffffffffffffffffffffffff16637f15233f6040518163ffffffff1660e01b8152600401600060405180830381600087803b158015610b2c57600080fd5b505af1925050508015610b3d575060015b610b4657610b47565b5b6060610b51611083565b90508167ffffffffffffffff81118015610b6a57600080fd5b50604051908082528060200260200182016040528015610b995781602001602082028036833780820191505090505b5093508167ffffffffffffffff81118015610bb357600080fd5b50604051908082528060200260200182016040528015610be25781602001602082028036833780820191505090505b50925060005b82811015610d5d576000828281518110610bfe57fe5b602002602001015190506000610c13826112f6565b905060008111610c6e576040517f08c379a0000000000000000000000000000000000000000000000000000000008152600401808060200182810382526025815260200180612f9c6025913960400191505060405180910390fd5b8173ffffffffffffffffffffffffffffffffffffffff1663209b2bca6040518163ffffffff1660e01b815260040160206040518083038186803b158015610cb457600080fd5b505afa158015610cc8573d6000803e3d6000fd5b505050506040513d6020811015610cde57600080fd5b8101908080519060200190929190505050878481518110610cfb57fe5b602002602001019073ffffffffffffffffffffffffffffffffffffffff16908173ffffffffffffffffffffffffffffffffffffffff168152505080868481518110610d4257fe5b60200260200101818152505050508080600101915050610be8565b50505b5b6000811415610fb6576060610d74610ff5565b90506000815190508067ffffffffffffffff81118015610d9357600080fd5b50604051908082528060200260200182016040528015610dc25781602001602082028036833780820191505090505b5094508067ffffffffffffffff81118015610ddc57600080fd5b50604051908082528060200260200182016040528015610e0b5781602001602082028036833780820191505090505b50935060005b81811015610fb2576000838281518110610e2757fe5b602002602001015190508073ffffffffffffffffffffffffffffffffffffffff166338d52e0f6040518163ffffffff1660e01b815260040160206040518083038186803b158015610e7757600080fd5b505afa158015610e8b573d6000803e3d6000fd5b505050506040513d6020811015610ea157600080fd5b8101908080519060200190929190505050878381518110610ebe57fe5b602002602001019073ffffffffffffffffffffffffffffffffffffffff16908173ffffffffffffffffffffffffffffffffffffffff16815250508073ffffffffffffffffffffffffffffffffffffffff166350496cbd610f1d83611827565b6040518263ffffffff1660e01b81526004018082815260200191505060206040518083038186803b158015610f5157600080fd5b505afa158015610f65573d6000803e3d6000fd5b505050506040513d6020811015610f7b57600080fd5b8101908080519060200190929190505050868381518110610f9857fe5b602002602001018181525050508080600101915050610e11565b5050505b600183511115610fd357610fca8383611a8e565b80935081945050505b509091565b6000610fee826001611d4b90919063ffffffff16565b9050919050565b6060600180548060200260200160405190810160405280929190818152602001828054801561107957602002820191906000526020600020905b8160009054906101000a900473ffffffffffffffffffffffffffffffffffffffff1673ffffffffffffffffffffffffffffffffffffffff168152602001906001019080831161102f575b5050505050905090565b6060600080548060200260200160405190810160405280929190818152602001828054801561110757602002820191906000526020600020905b8160009054906101000a900473ffffffffffffffffffffffffffffffffffffffff1673ffffffffffffffffffffffffffffffffffffffff16815260200190600101908083116110bd575b5050505050905090565b6000606082806020019051604081101561112a57600080fd5b81019080805190602001909291908051604051939291908464010000000082111561115457600080fd5b8382019150602082018581111561116a57600080fd5b825186600182028301116401000000008211171561118757600080fd5b8083526020830192505050908051906020019080838360005b838110156111bb5780820151818401526020810190506111a0565b50505050905090810190601f1680156111e85780820380516001836020036101000a031916815260200191505b50604052505050915091506009600c81111561120057fe5b8214156112155761121081611def565b6112f1565b600a600c81111561122257fe5b8214156112375761123281611f5b565b6112f0565b600b600c81111561124457fe5b821415611259576112548161200f565b6112ef565b600c8081111561126557fe5b82141561127a5761127581612159565b6112ee565b6008600c81111561128757fe5b82141561129c57611297816121f7565b6112ed565b6040517f08c379a0000000000000000000000000000000000000000000000000000000008152600401808060200182810382526026815260200180612f556026913960400191505060405180910390fd5b5b5b5b5b505050565b6000600260008373ffffffffffffffffffffffffffffffffffffffff1673ffffffffffffffffffffffffffffffffffffffff168152602001908152602001600020549050919050565b60608091565b61134e81610fd8565b6113f9576001819080600181540180825580915050600190039060005260206000200160009091909190916101000a81548173ffffffffffffffffffffffffffffffffffffffff021916908373ffffffffffffffffffffffffffffffffffffffff1602179055508073ffffffffffffffffffffffffffffffffffffffff167ff5adf0712ae89feadd26c8ee6a898759c89978dcc4c5f23811900dc45079821660405160405180910390a25b50565b6000808380549050905060005b8181101561156a578373ffffffffffffffffffffffffffffffffffffffff1685828154811061143457fe5b9060005260206000200160009054906101000a900473ffffffffffffffffffffffffffffffffffffffff1673ffffffffffffffffffffffffffffffffffffffff16141561155d57600182038110156115155784600183038154811061149557fe5b9060005260206000200160009054906101000a900473ffffffffffffffffffffffffffffffffffffffff168582815481106114cc57fe5b9060005260206000200160006101000a81548173ffffffffffffffffffffffffffffffffffffffff021916908373ffffffffffffffffffffffffffffffffffffffff1602179055505b8480548061151f57fe5b6001900381819060005260206000200160006101000a81549073ffffffffffffffffffffffffffffffffffffffff021916905590556001925061156a565b8080600101915050611409565b505092915050565b60008082905060006116a58273ffffffffffffffffffffffffffffffffffffffff1663209b2bca6040518163ffffffff1660e01b815260040160206040518083038186803b1580156115c357600080fd5b505afa1580156115d7573d6000803e3d6000fd5b505050506040513d60208110156115ed57600080fd5b81019080805190602001909291905050508573ffffffffffffffffffffffffffffffffffffffff166370a08231306040518263ffffffff1660e01b8152600401808273ffffffffffffffffffffffffffffffffffffffff16815260200191505060206040518083038186803b15801561166557600080fd5b505afa158015611679573d6000803e3d6000fd5b505050506040513d602081101561168f57600080fd5b81019080805190602001909291905050506123c0565b905060008273ffffffffffffffffffffffffffffffffffffffff1663443bb293306040518263ffffffff1660e01b8152600401808273ffffffffffffffffffffffffffffffffffffffff168152602001915050602060405180830381600087803b15801561171257600080fd5b505af1158015611726573d6000803e3d6000fd5b505050506040513d602081101561173c57600080fd5b8101908080519060200190929190505050905060008373ffffffffffffffffffffffffffffffffffffffff166366967791306040518263ffffffff1660e01b8152600401808273ffffffffffffffffffffffffffffffffffffffff168152602001915050602060405180830381600087803b1580156117ba57600080fd5b505af11580156117ce573d6000803e3d6000fd5b505050506040513d60208110156117e457600080fd5b8101908080519060200190929190505050905061181c8161180e848661248290919063ffffffff16565b61250a90919063ffffffff16565b945050505050919050565b60008173ffffffffffffffffffffffffffffffffffffffff166370a08231306040518263ffffffff1660e01b8152600401808273ffffffffffffffffffffffffffffffffffffffff16815260200191505060206040518083038186803b15801561189057600080fd5b505afa1580156118a4573d6000803e3d6000fd5b505050506040513d60208110156118ba57600080fd5b8101908080519060200190929190505050905060008273ffffffffffffffffffffffffffffffffffffffff1663481c6a756040518163ffffffff1660e01b815260040160206040518083038186803b15801561191557600080fd5b505afa158015611929573d6000803e3d6000fd5b505050506040513d602081101561193f57600080fd5b810190808051906020019092919050505073ffffffffffffffffffffffffffffffffffffffff166382fe535a6040518163ffffffff1660e01b815260040160206040518083038186803b15801561199557600080fd5b505afa1580156119a9573d6000803e3d6000fd5b505050506040513d60208110156119bf57600080fd5b81019080805190602001909291905050509050611a868173ffffffffffffffffffffffffffffffffffffffff1663e336ac44306040518263ffffffff1660e01b8152600401808273ffffffffffffffffffffffffffffffffffffffff16815260200191505060206040518083038186803b158015611a3c57600080fd5b505afa158015611a50573d6000803e3d6000fd5b505050506040513d6020811015611a6657600080fd5b81019080805190602001909291905050508361248290919063ffffffff16565b915050919050565b606080600084511415611aa057611d44565b6000600190506000600190505b8551811015611b4f576000805b82811015611b3257878181518110611ace57fe5b602002602001015173ffffffffffffffffffffffffffffffffffffffff16888481518110611af857fe5b602002602001015173ffffffffffffffffffffffffffffffffffffffff161415611b255760019150611b32565b8080600101915050611aba565b5080611b415782806001019350505b508080600101915050611aad565b508067ffffffffffffffff81118015611b6757600080fd5b50604051908082528060200260200182016040528015611b965781602001602082028036833780820191505090505b5092508067ffffffffffffffff81118015611bb057600080fd5b50604051908082528060200260200182016040528015611bdf5781602001602082028036833780820191505090505b5091506000805b8651811015611d40576000805b83811015611c9d57868181518110611c0757fe5b602002602001015173ffffffffffffffffffffffffffffffffffffffff16898481518110611c3157fe5b602002602001015173ffffffffffffffffffffffffffffffffffffffff161415611c905760019150878381518110611c6557fe5b6020026020010151868281518110611c7957fe5b602002602001018181510191508181525050611c9d565b8080600101915050611bf3565b5080611d3257878281518110611caf57fe5b6020026020010151868481518110611cc357fe5b602002602001019073ffffffffffffffffffffffffffffffffffffffff16908173ffffffffffffffffffffffffffffffffffffffff1681525050868281518110611d0957fe5b6020026020010151858481518110611d1d57fe5b60200260200101818152505082806001019350505b508080600101915050611be6565b5050505b9250929050565b6000808380549050905060005b81811015611de257848181548110611d6c57fe5b9060005260206000200160009054906101000a900473ffffffffffffffffffffffffffffffffffffffff1673ffffffffffffffffffffffffffffffffffffffff168473ffffffffffffffffffffffffffffffffffffffff161415611dd557600192505050611de9565b8080600101915050611d58565b5060009150505b92915050565b600080805490501115611e0557611e046104eb565b5b600080611e118361258d565b91509150611ea08273ffffffffffffffffffffffffffffffffffffffff166338d52e0f6040518163ffffffff1660e01b815260040160206040518083038186803b158015611e5e57600080fd5b505afa158015611e72573d6000803e3d6000fd5b505050506040513d6020811015611e8857600080fd5b810190808051906020019092919050505083836125c9565b8173ffffffffffffffffffffffffffffffffffffffff16636e553f6582306040518363ffffffff1660e01b8152600401808381526020018273ffffffffffffffffffffffffffffffffffffffff16815260200192505050602060405180830381600087803b158015611f1157600080fd5b505af1158015611f25573d6000803e3d6000fd5b505050506040513d6020811015611f3b57600080fd5b810190808051906020019092919050505050611f5682611345565b505050565b600080805490501115611f7157611f706104eb565b5b600080611f7d8361271d565b915091508173ffffffffffffffffffffffffffffffffffffffff1663107703ab82306040518363ffffffff1660e01b8152600401808381526020018273ffffffffffffffffffffffffffffffffffffffff16815260200192505050600060405180830381600087803b158015611ff257600080fd5b505af1158015612006573d6000803e3d6000fd5b50505050505050565b60008061201b83612759565b915091508173ffffffffffffffffffffffffffffffffffffffff1663ba0876528233306040518463ffffffff1660e01b8152600401808481526020018373ffffffffffffffffffffffffffffffffffffffff1681526020018273ffffffffffffffffffffffffffffffffffffffff1681526020019350505050602060405180830381600087803b1580156120ae57600080fd5b505af11580156120c2573d6000803e3d6000fd5b505050506040513d60208110156120d857600080fd5b81019080805190602001909291905050505060006120f583611827565b14156121545761210f8260016113fc90919063ffffffff16565b508173ffffffffffffffffffffffffffffffffffffffff167f9d6926baa57c10a6af1bafa91bb5183c5faae6fc2d152ebbd45a1ef6a265bb1660405160405180910390a25b505050565b60008061216583612795565b915091508173ffffffffffffffffffffffffffffffffffffffff16631b8f183082306040518363ffffffff1660e01b8152600401808381526020018273ffffffffffffffffffffffffffffffffffffffff16815260200192505050600060405180830381600087803b1580156121da57600080fd5b505af11580156121ee573d6000803e3d6000fd5b50505050505050565b6000612202826127d1565b9050600081905060008173ffffffffffffffffffffffffffffffffffffffff1663d1af0c7d6040518163ffffffff1660e01b815260040160206040518083038186803b15801561225157600080fd5b505afa158015612265573d6000803e3d6000fd5b505050506040513d602081101561227b57600080fd5b810190808051906020019092919050505090508173ffffffffffffffffffffffffffffffffffffffff16633d18b9126040518163ffffffff1660e01b8152600401600060405180830381600087803b1580156122d657600080fd5b505af11580156122ea573d6000803e3d6000fd5b505050506123ba338273ffffffffffffffffffffffffffffffffffffffff166370a08231306040518263ffffffff1660e01b8152600401808273ffffffffffffffffffffffffffffffffffffffff16815260200191505060206040518083038186803b15801561235957600080fd5b505afa15801561236d573d6000803e3d6000fd5b505050506040513d602081101561238357600080fd5b81019080805190602001909291905050508373ffffffffffffffffffffffffffffffffffffffff166128009092919063ffffffff16565b50505050565b6000808373ffffffffffffffffffffffffffffffffffffffff1663313ce5676040518163ffffffff1660e01b815260040160206040518083038186803b15801561240957600080fd5b505afa15801561241d573d6000803e3d6000fd5b505050506040513d602081101561243357600080fd5b810190808051906020019092919050505060ff16600a0a9050612479670de0b6b3a764000061246b83866128a290919063ffffffff16565b61292890919063ffffffff16565b91505092915050565b600080828401905083811015612500576040517f08c379a000000000000000000000000000000000000000000000000000000000815260040180806020018281038252601b8152602001807f536166654d6174683a206164646974696f6e206f766572666c6f77000000000081525060200191505060405180910390fd5b8091505092915050565b600082821115612582576040517f08c379a000000000000000000000000000000000000000000000000000000000815260040180806020018281038252601e8152602001807f536166654d6174683a207375627472616374696f6e206f766572666c6f77000081525060200191505060405180910390fd5b818303905092915050565b6000808280602001905160408110156125a557600080fd5b81019080805190602001909291908051906020019092919050505091509150915091565b60008373ffffffffffffffffffffffffffffffffffffffff1663dd62ed3e30856040518363ffffffff1660e01b8152600401808373ffffffffffffffffffffffffffffffffffffffff1681526020018273ffffffffffffffffffffffffffffffffffffffff1681526020019250505060206040518083038186803b15801561265057600080fd5b505afa158015612664573d6000803e3d6000fd5b505050506040513d602081101561267a57600080fd5b81019080805190602001909291905050509050818110156127175760008111156126cb576126ca8360008673ffffffffffffffffffffffffffffffffffffffff166129b19092919063ffffffff16565b5b612716837fffffffffffffffffffffffffffffffffffffffffffffffffffffffffffffffff8673ffffffffffffffffffffffffffffffffffffffff166129b19092919063ffffffff16565b5b50505050565b60008082806020019051604081101561273557600080fd5b81019080805190602001909291908051906020019092919050505091509150915091565b60008082806020019051604081101561277157600080fd5b81019080805190602001909291908051906020019092919050505091509150915091565b6000808280602001905160408110156127ad57600080fd5b81019080805190602001909291908051906020019092919050505091509150915091565b60008180602001905160208110156127e857600080fd5b81019080805190602001909291905050509050919050565b61289d8363a9059cbb60e01b8484604051602401808373ffffffffffffffffffffffffffffffffffffffff16815260200182815260200192505050604051602081830303815290604052907bffffffffffffffffffffffffffffffffffffffffffffffffffffffff19166020820180517bffffffffffffffffffffffffffffffffffffffffffffffffffffffff8381831617835250505050612b76565b505050565b6000808314156128b55760009050612922565b60008284029050828482816128c657fe5b041461291d576040517f08c379a0000000000000000000000000000000000000000000000000000000008152600401808060200182810382526021815260200180612f7b6021913960400191505060405180910390fd5b809150505b92915050565b600080821161299f576040517f08c379a000000000000000000000000000000000000000000000000000000000815260040180806020018281038252601a8152602001807f536166654d6174683a206469766973696f6e206279207a65726f00000000000081525060200191505060405180910390fd5b8183816129a857fe5b04905092915050565b6000811480612a7f575060008373ffffffffffffffffffffffffffffffffffffffff1663dd62ed3e30856040518363ffffffff1660e01b8152600401808373ffffffffffffffffffffffffffffffffffffffff1681526020018273ffffffffffffffffffffffffffffffffffffffff1681526020019250505060206040518083038186803b158015612a4257600080fd5b505afa158015612a56573d6000803e3d6000fd5b505050506040513d6020811015612a6c57600080fd5b8101908080519060200190929190505050145b612ad4576040517f08c379a000000000000000000000000000000000000000000000000000000000815260040180806020018281038252603681526020018061301d6036913960400191505060405180910390fd5b612b718363095ea7b360e01b8484604051602401808373ffffffffffffffffffffffffffffffffffffffff16815260200182815260200192505050604051602081830303815290604052907bffffffffffffffffffffffffffffffffffffffffffffffffffffffff19166020820180517bffffffffffffffffffffffffffffffffffffffffffffffffffffffff8381831617835250505050612b76565b505050565b6060612bd8826040518060400160405280602081526020017f5361666545524332303a206c6f772d6c6576656c2063616c6c206661696c65648152508573ffffffffffffffffffffffffffffffffffffffff16612c659092919063ffffffff16565b9050600081511115612c6057808060200190516020811015612bf957600080fd5b8101908080519060200190929190505050612c5f576040517f08c379a000000000000000000000000000000000000000000000000000000000815260040180806020018281038252602a815260200180612ff3602a913960400191505060405180910390fd5b5b505050565b6060612c748484600085612c7d565b90509392505050565b606082471015612cd8576040517f08c379a0000000000000000000000000000000000000000000000000000000008152600401808060200182810382526026815260200180612f2f6026913960400191505060405180910390fd5b612ce185612e26565b612d53576040517f08c379a000000000000000000000000000000000000000000000000000000000815260040180806020018281038252601d8152602001807f416464726573733a2063616c6c20746f206e6f6e2d636f6e747261637400000081525060200191505060405180910390fd5b600060608673ffffffffffffffffffffffffffffffffffffffff1685876040518082805190602001908083835b60208310612da35780518252602082019150602081019050602083039250612d80565b6001836020036101000a03801982511681845116808217855250505050505090500191505060006040518083038185875af1925050503d8060008114612e05576040519150601f19603f3d011682016040523d82523d6000602084013e612e0a565b606091505b5091509150612e1a828286612e39565b92505050949350505050565b600080823b905060008111915050919050565b60608315612e4957829050612efe565b600083511115612e5c5782518084602001fd5b816040517f08c379a00000000000000000000000000000000000000000000000000000000081526004018080602001828103825283818151815260200191508051906020019080838360005b83811015612ec3578082015181840152602081019050612ea8565b50505050905090810190601f168015612ef05780820380516001836020036101000a031916815260200191505b509250505060405180910390fd5b939250505056fe6d696772617465506f6f6c735631546f56323a204d6967726174696f6e206e6f7420616c6c6f776564416464726573733a20696e73756666696369656e742062616c616e636520666f722063616c6c7265636569766543616c6c46726f6d5661756c743a20496e76616c696420616374696f6e4964536166654d6174683a206d756c7469706c69636174696f6e206f766572666c6f776765744d616e616765644173736574733a204e6f20706f6f6c20763120736e617073686f74736e617073686f74506f6f6c546f6b656e563142616c616e636556616c7565733a20536e617073686f74732066726f7a656e5361666545524332303a204552433230206f7065726174696f6e20646964206e6f7420737563636565645361666545524332303a20617070726f76652066726f6d206e6f6e2d7a65726f20746f206e6f6e2d7a65726f20616c6c6f77616e6365a164736f6c634300060c000a","linkReferences":{}},"methodIdentifiers":{"getDebtAssets()":"ecd658b4","getManagedAssets()":"80daddb8","getPreMigrationValueSnapshotOfPoolTokenV1(address)":"e8ffc97b","getUsedLendingPoolsV1()":"c4c54c92","getUsedLendingPoolsV2()":"be0a08e9","init(bytes)":"4ddf47d4","isUsedLendingPoolV2(address)":"a3451a39","migratePoolsV1ToV2()":"2d13e051","receiveCallFromVault(bytes)":"e5c23a97","snapshotPoolTokenV1BalanceValues()":"7f15233f"},"id":168}