{"abi":[{"type":"constructor","inputs":[{"name":"_integrationManager","type":"address","internalType":"address"},{"name":"_balancerVault","type":"address","internalType":"address"},{"name":"_stakingWrapperFactory","type":"address","internalType":"address"}],"stateMutability":"nonpayable"},{"type":"function","name":"CLAIM_REWARDS_SELECTOR","inputs":[],"outputs":[{"name":"","type":"bytes4","internalType":"bytes4"}],"stateMutability":"view"},{"type":"function","name":"LEND_AND_STAKE_SELECTOR","inputs":[],"outputs":[{"name":"","type":"bytes4","internalType":"bytes4"}],"stateMutability":"view"},{"type":"function","name":"LEND_SELECTOR","inputs":[],"outputs":[{"name":"","type":"bytes4","internalType":"bytes4"}],"stateMutability":"view"},{"type":"function","name":"REDEEM_SELECTOR","inputs":[],"outputs":[{"name":"","type":"bytes4","internalType":"bytes4"}],"stateMutability":"view"},{"type":"function","name":"STAKE_SELECTOR","inputs":[],"outputs":[{"name":"","type":"bytes4","internalType":"bytes4"}],"stateMutability":"view"},{"type":"function","name":"TAKE_MULTIPLE_ORDERS_SELECTOR","inputs":[],"outputs":[{"name":"","type":"bytes4","internalType":"bytes4"}],"stateMutability":"view"},{"type":"function","name":"TAKE_ORDER_SELECTOR","inputs":[],"outputs":[{"name":"","type":"bytes4","internalType":"bytes4"}],"stateMutability":"view"},{"type":"function","name":"UNSTAKE_AND_REDEEM_SELECTOR","inputs":[],"outputs":[{"name":"","type":"bytes4","internalType":"bytes4"}],"stateMutability":"view"},{"type":"function","name":"UNSTAKE_SELECTOR","inputs":[],"outputs":[{"name":"","type":"bytes4","internalType":"bytes4"}],"stateMutability":"view"},{"type":"function","name":"claimRewards","inputs":[{"name":"_vaultProxy","type":"address","internalType":"address"},{"name":"_actionData","type":"bytes","internalType":"bytes"},{"name":"","type":"bytes","internalType":"bytes"}],"outputs":[],"stateMutability":"nonpayable"},{"type":"function","name":"getIntegrationManager","inputs":[],"outputs":[{"name":"integrationManager_","type":"address","internalType":"address"}],"stateMutability":"view"},{"type":"function","name":"lendAndStake","inputs":[{"name":"_vaultProxy","type":"address","internalType":"address"},{"name":"_actionData","type":"bytes","internalType":"bytes"},{"name":"","type":"bytes","internalType":"bytes"}],"outputs":[],"stateMutability":"nonpayable"},{"type":"function","name":"parseAssetsForAction","inputs":[{"name":"","type":"address","internalType":"address"},{"name":"_selector","type":"bytes4","internalType":"bytes4"},{"name":"_actionData","type":"bytes","internalType":"bytes"}],"outputs":[{"name":"spendAssetsHandleType_","type":"uint8","internalType":"enum IIntegrationManager.SpendAssetsHandleType"},{"name":"spendAssets_","type":"address[]","internalType":"address[]"},{"name":"spendAssetAmounts_","type":"uint256[]","internalType":"uint256[]"},{"name":"incomingAssets_","type":"address[]","internalType":"address[]"},{"name":"minIncomingAssetAmounts_","type":"uint256[]","internalType":"uint256[]"}],"stateMutability":"view"},{"type":"function","name":"stake","inputs":[{"name":"_vaultProxy","type":"address","internalType":"address"},{"name":"_actionData","type":"bytes","internalType":"bytes"},{"name":"","type":"bytes","internalType":"bytes"}],"outputs":[],"stateMutability":"nonpayable"},{"type":"function","name":"takeOrder","inputs":[{"name":"_vaultProxy","type":"address","internalType":"address"},{"name":"_actionData","type":"bytes","internalType":"bytes"},{"name":"","type":"bytes","internalType":"bytes"}],"outputs":[],"stateMutability":"nonpayable"},{"type":"function","name":"unstake","inputs":[{"name":"_vaultProxy","type":"address","internalType":"address"},{"name":"_actionData","type":"bytes","internalType":"bytes"},{"name":"","type":"bytes","internalType":"bytes"}],"outputs":[],"stateMutability":"nonpayable"},{"type":"function","name":"unstakeAndRedeem","inputs":[{"name":"_vaultProxy","type":"address","internalType":"address"},{"name":"_actionData","type":"bytes","internalType":"bytes"},{"name":"","type":"bytes","internalType":"bytes"}],"outputs":[],"stateMutability":"nonpayable"}],"bytecode":{"object":"0x60e06040523480156200001157600080fd5b50604051620051d9380380620051d9833981810160405281019062000037919062000104565b828280828073ffffffffffffffffffffffffffffffffffffffff1660808173ffffffffffffffffffffffffffffffffffffffff1660601b81525050508073ffffffffffffffffffffffffffffffffffffffff1660a08173ffffffffffffffffffffffffffffffffffffffff1660601b815250505050508073ffffffffffffffffffffffffffffffffffffffff1660c08173ffffffffffffffffffffffffffffffffffffffff1660601b81525050505050620001a8565b600081519050620000fe816200018e565b92915050565b6000806000606084860312156200011a57600080fd5b60006200012a86828701620000ed565b93505060206200013d86828701620000ed565b92505060406200015086828701620000ed565b9150509250925092565b600062000167826200016e565b9050919050565b600073ffffffffffffffffffffffffffffffffffffffff82169050919050565b62000199816200015a565b8114620001a557600080fd5b50565b60805160601c60a05160601c60c05160601c614fc462000215600039806129da5250806104cb5280611598528061179c52806119b55280612b8e5280612c9c52508061031a528061093d5280610b385280610c2f5280610e42528061129952806112e35250614fc46000f3fe608060405234801561001057600080fd5b506004361061010b5760003560e01c80638334eb99116100a2578063c32990a211610071578063c32990a21461026e578063c54efee51461028c578063e7c45690146102c0578063f7d882b5146102de578063fa7dd04d146102fc5761010b565b80638334eb99146101fa578063863e5ad014610216578063b23228cf14610234578063b9dfbacc146102525761010b565b806329fa046e116100de57806329fa046e146101865780633ffc1591146101a257806340da225d146101c057806368e30677146101de5761010b565b806303e38a2b14610110578063080456c11461012c578063131461c01461014a578063257cb1a314610168575b600080fd5b61012a60048036038101906101259190613bed565b610318565b005b6101346108cf565b60405161014191906148fe565b60405180910390f35b6101526108f3565b60405161015f91906148fe565b60405180910390f35b610170610917565b60405161017d91906148fe565b60405180910390f35b6101a0600480360381019061019b9190613bed565b61093b565b005b6101aa610aee565b6040516101b791906148fe565b60405180910390f35b6101c8610b12565b6040516101d591906148fe565b60405180910390f35b6101f860048036038101906101f39190613bed565b610b36565b005b610214600480360381019061020f9190613bed565b610c2d565b005b61021e610df8565b60405161022b91906148fe565b60405180910390f35b61023c610e1c565b60405161024991906148fe565b60405180910390f35b61026c60048036038101906102679190613bed565b610e40565b005b610276610f2b565b60405161028391906148fe565b60405180910390f35b6102a660048036038101906102a19190613b81565b610f4f565b6040516102b7959493929190614919565b60405180910390f35b6102c8611295565b6040516102d591906147c2565b60405180910390f35b6102e66112bd565b6040516102f391906148fe565b60405180910390f35b61031660048036038101906103119190613bed565b6112e1565b005b7f000000000000000000000000000000000000000000000000000000000000000073ffffffffffffffffffffffffffffffffffffffff163373ffffffffffffffffffffffffffffffffffffffff16146103a6576040517f08c379a000000000000000000000000000000000000000000000000000000000815260040161039d90614aa2565b60405180910390fd5b60006060806060806103fb89898080601f016020809104026020016040519081016040528093929190818152602001838380828437600081840152601f19601f820116905080830192505050505050506113d7565b945094509450945094506000808451905060005b8181101561057157600085828151811061042557fe5b602002602001015113156104f657600085828151811061044157fe5b60200260200101519050600073ffffffffffffffffffffffffffffffffffffffff1685838151811061046f57fe5b602002602001015173ffffffffffffffffffffffffffffffffffffffff16146104b2576104b130308785815181106104a357fe5b602002602001015184611406565b5b6104f08783815181106104c157fe5b60200260200101517f000000000000000000000000000000000000000000000000000000000000000083611418565b50610564565b600085828151811061050457fe5b60200260200101511280156105595750600073ffffffffffffffffffffffffffffffffffffffff1684828151811061053857fe5b602002602001015173ffffffffffffffffffffffffffffffffffffffff1614155b1561056357600192505b5b808060010191505061040f565b50606061058e3084610583578e610585565b305b8a8a8a8a611537565b905060005b828110156108bf5760008682815181106105a957fe5b6020026020010151131561070e57600073ffffffffffffffffffffffffffffffffffffffff168582815181106105db57fe5b602002602001015173ffffffffffffffffffffffffffffffffffffffff161415801561061c575060018081111561060e57fe5b89600181111561061a57fe5b145b156106eb57600087828151811061062f57fe5b602002602001015173ffffffffffffffffffffffffffffffffffffffff166370a08231306040518263ffffffff1660e01b815260040161066f91906147c2565b60206040518083038186803b15801561068757600080fd5b505afa15801561069b573d6000803e3d6000fd5b505050506040513d601f19601f820116820180604052508101906106bf9190613e23565b905060008111156106e9576106e88f8784815181106106da57fe5b60200260200101518361165d565b5b505b6107088e8883815181106106fb57fe5b6020026020010151611676565b506108b2565b600086828151811061071c57fe5b6020026020010151121561085a57600073ffffffffffffffffffffffffffffffffffffffff1685828151811061074e57fe5b602002602001015173ffffffffffffffffffffffffffffffffffffffff161461082f5761082a8e86838151811061078157fe5b602002602001015189848151811061079557fe5b602002602001015173ffffffffffffffffffffffffffffffffffffffff166370a08231306040518263ffffffff1660e01b81526004016107d591906147c2565b60206040518083038186803b1580156107ed57600080fd5b505afa158015610801573d6000803e3d6000fd5b505050506040513d601f19601f820116820180604052508101906108259190613e23565b61165d565b610855565b8315610854576108528e88838151811061084557fe5b6020026020010151611676565b505b5b6108b1565b600082828151811061086857fe5b6020026020010151146108b0576040517f08c379a00000000000000000000000000000000000000000000000000000000081526004016108a790614ac2565b60405180910390fd5b5b5b8080600101915050610593565b5050505050505050505050505050565b7f8334eb99be0145865eba9889fca2ee920288090caefff4cc776038e20ad9259a81565b7f29fa046e79524c3c5ac4c01df692c35e217802b2b13b21121b76cf0ef02b138c81565b7f099f75155f0e997bf83a7993a71d5e7e7540bd386fe1e84643a09ce6b412521981565b7f000000000000000000000000000000000000000000000000000000000000000073ffffffffffffffffffffffffffffffffffffffff163373ffffffffffffffffffffffffffffffffffffffff16146109c9576040517f08c379a00000000000000000000000000000000000000000000000000000000081526004016109c090614aa2565b60405180910390fd5b6000806060806109d76134ec565b610a2489898080601f016020809104026020016040519081016040528093929190818152602001838380828437600081840152601f19601f8201169050808301925050505050505061173e565b9550955095505094509450610a3c3085858585611777565b610ad78a86610a4a876117f5565b73ffffffffffffffffffffffffffffffffffffffff166370a08231306040518263ffffffff1660e01b8152600401610a8291906147c2565b60206040518083038186803b158015610a9a57600080fd5b505afa158015610aae573d6000803e3d6000fd5b505050506040513d601f19601f82011682018060405250810190610ad29190613e23565b61165d565b610ae18a84611806565b5050505050505050505050565b7ffa7dd04da627f433da73c4355ead9c75682a67a8fc84d3f6170ef0922f402d2481565b7fb9dfbaccbe5cd2a84fdcf1d15f23ef25d23086f5afbaa99516065ed4a5bbc7a381565b7f000000000000000000000000000000000000000000000000000000000000000073ffffffffffffffffffffffffffffffffffffffff163373ffffffffffffffffffffffffffffffffffffffff1614610bc4576040517f08c379a0000000000000000000000000000000000000000000000000000000008152600401610bbb90614aa2565b60405180910390fd5b600080610c1486868080601f016020809104026020016040519081016040528093929190818152602001838380828437600081840152601f19601f82011690508083019250505050505050611987565b91509150610c2487888484611406565b50505050505050565b7f000000000000000000000000000000000000000000000000000000000000000073ffffffffffffffffffffffffffffffffffffffff163373ffffffffffffffffffffffffffffffffffffffff1614610cbb576040517f08c379a0000000000000000000000000000000000000000000000000000000008152600401610cb290614aa2565b60405180910390fd5b60008060006060610cca6134ec565b610d1789898080601f016020809104026020016040519081016040528093929190818152602001838380828437600081840152601f19601f8201169050808301925050505050505061173e565b9550509450945094509450610d2e8a308786611406565b610d3b8a858585856119a7565b6000610d46856117f5565b905060008173ffffffffffffffffffffffffffffffffffffffff166370a08231306040518263ffffffff1660e01b8152600401610d8391906147c2565b60206040518083038186803b158015610d9b57600080fd5b505afa158015610daf573d6000803e3d6000fd5b505050506040513d601f19601f82011682018060405250810190610dd39190613e23565b90506000811115610dea57610de98c888361165d565b5b505050505050505050505050565b7f03e38a2bd7063d45c897edeafc330e71657502dd86434d3c37a489caf116af6981565b7f68e30677f607df46e87da13e15b637784cfa62374b653f35ab43d10361a2f83081565b7f000000000000000000000000000000000000000000000000000000000000000073ffffffffffffffffffffffffffffffffffffffff163373ffffffffffffffffffffffffffffffffffffffff1614610ece576040517f08c379a0000000000000000000000000000000000000000000000000000000008152600401610ec590614aa2565b60405180910390fd5b610f2485610f1f86868080601f016020809104026020016040519081016040528093929190818152602001838380828437600081840152601f19601f82011690508083019250505050505050611cb6565b611cd3565b5050505050565b7f0e7f692dad5b88fdee426250d6eae91207e56a2e8112b7364579bed1790e5bf481565b60006060806060807fb9dfbaccbe5cd2a84fdcf1d15f23ef25d23086f5afbaa99516065ed4a5bbc7a37bffffffffffffffffffffffffffffffffffffffffffffffffffffffff1916887bffffffffffffffffffffffffffffffffffffffffffffffffffffffff19161415610fd457610fc5611ce1565b9450945094509450945061128a565b7f29fa046e79524c3c5ac4c01df692c35e217802b2b13b21121b76cf0ef02b138c7bffffffffffffffffffffffffffffffffffffffffffffffffffffffff1916887bffffffffffffffffffffffffffffffffffffffffffffffffffffffff19161415611053576110448787611e1b565b9450945094509450945061128a565b7f8334eb99be0145865eba9889fca2ee920288090caefff4cc776038e20ad9259a7bffffffffffffffffffffffffffffffffffffffffffffffffffffffff1916887bffffffffffffffffffffffffffffffffffffffffffffffffffffffff191614156110d2576110c38787611fac565b9450945094509450945061128a565b7f03e38a2bd7063d45c897edeafc330e71657502dd86434d3c37a489caf116af697bffffffffffffffffffffffffffffffffffffffffffffffffffffffff1916887bffffffffffffffffffffffffffffffffffffffffffffffffffffffff19161415611151576111428787611fe1565b9450945094509450945061128a565b7ffa7dd04da627f433da73c4355ead9c75682a67a8fc84d3f6170ef0922f402d247bffffffffffffffffffffffffffffffffffffffffffffffffffffffff1916887bffffffffffffffffffffffffffffffffffffffffffffffffffffffff191614156111d0576111c187876124c7565b9450945094509450945061128a565b7f68e30677f607df46e87da13e15b637784cfa62374b653f35ab43d10361a2f8307bffffffffffffffffffffffffffffffffffffffffffffffffffffffff1916887bffffffffffffffffffffffffffffffffffffffffffffffffffffffff1916141561124f576112408787612727565b9450945094509450945061128a565b6040517f08c379a000000000000000000000000000000000000000000000000000000000815260040161128190614b62565b60405180910390fd5b945094509450945094565b60007f0000000000000000000000000000000000000000000000000000000000000000905090565b7fc29fa9dde84204c2908778afd0613d802d31cf046179b88f6d2b4a4e507ea2d581565b7f000000000000000000000000000000000000000000000000000000000000000073ffffffffffffffffffffffffffffffffffffffff163373ffffffffffffffffffffffffffffffffffffffff161461136f576040517f08c379a000000000000000000000000000000000000000000000000000000000815260040161136690614aa2565b60405180910390fd5b6000806113bf86868080601f016020809104026020016040519081016040528093929190818152602001838380828437600081840152601f19601f82011690508083019250505050505050611987565b915091506113ce87838361165d565b50505050505050565b6000606080606080858060200190518101906113f39190613d4c565b9450945094509450945091939590929450565b6114128285858461275c565b50505050565b60008373ffffffffffffffffffffffffffffffffffffffff1663dd62ed3e30856040518363ffffffff1660e01b81526004016114559291906147dd565b60206040518083038186803b15801561146d57600080fd5b505afa158015611481573d6000803e3d6000fd5b505050506040513d601f19601f820116820180604052508101906114a59190613e23565b9050818110156115315760008111156114e5576114e48360008673ffffffffffffffffffffffffffffffffffffffff166128789092919063ffffffff16565b5b611530837fffffffffffffffffffffffffffffffffffffffffffffffffffffffffffffffff8673ffffffffffffffffffffffffffffffffffffffff166128789092919063ffffffff16565b5b50505050565b6060611541613516565b60405180608001604052808973ffffffffffffffffffffffffffffffffffffffff1681526020016000151581526020018873ffffffffffffffffffffffffffffffffffffffff1681526020016000151581525090507f000000000000000000000000000000000000000000000000000000000000000073ffffffffffffffffffffffffffffffffffffffff1663945bcec98787878588426040518763ffffffff1660e01b81526004016115f996959493929190614988565b600060405180830381600087803b15801561161357600080fd5b505af1158015611627573d6000803e3d6000fd5b505050506040513d6000823e3d601f19601f820116820180604052508101906116509190613ce2565b9150509695505050505050565b61167182848361166c866129d6565b612a88565b505050565b60008173ffffffffffffffffffffffffffffffffffffffff166370a08231306040518263ffffffff1660e01b81526004016116b191906147c2565b60206040518083038186803b1580156116c957600080fd5b505afa1580156116dd573d6000803e3d6000fd5b505050506040513d601f19601f820116820180604052508101906117019190613e23565b905060008111156117385761173783828473ffffffffffffffffffffffffffffffffffffffff16612b069092919063ffffffff16565b5b92915050565b600080600060608061174e6134ec565b868060200190518101906117629190613a74565b95509550955095509550955091939550919395565b60005b83518110156117e1576117d484828151811061179257fe5b60200260200101517f00000000000000000000000000000000000000000000000000000000000000008584815181106117c757fe5b6020026020010151611418565b808060010191505061177a565b506117ee84308784612b8c565b5050505050565b600060608260001c901c9050919050565b6060815167ffffffffffffffff8111801561182057600080fd5b5060405190808252806020026020018201604052801561184f5781602001602082028036833780820191505090505b50905060005b825181101561198057600083828151811061186c57fe5b602002602001015190508073ffffffffffffffffffffffffffffffffffffffff166370a08231306040518263ffffffff1660e01b81526004016118af91906147c2565b60206040518083038186803b1580156118c757600080fd5b505afa1580156118db573d6000803e3d6000fd5b505050506040513d601f19601f820116820180604052508101906118ff9190613e23565b83838151811061190b57fe5b602002602001018181525050600083838151811061192557fe5b60200260200101511115611972576119718584848151811061194357fe5b60200260200101518373ffffffffffffffffffffffffffffffffffffffff16612b069092919063ffffffff16565b5b508080600101915050611855565b5092915050565b6000808280602001905181019061199e9190613b45565b91509150915091565b6119da6119b3856117f5565b7f000000000000000000000000000000000000000000000000000000000000000085611418565b6000825182600001515103905060606000821115611b515782600001515167ffffffffffffffff81118015611a0e57600080fd5b50604051908082528060200260200182016040528015611a3d5781602001602082028036833780820191505090505b509050600082905060005b6000821115611b4e57611a7b85600001518281518110611a6457fe5b602002602001015187612c2390919063ffffffff16565b611b415784600001518181518110611a8f57fe5b602002602001015173ffffffffffffffffffffffffffffffffffffffff166370a082318a6040518263ffffffff1660e01b8152600401611acf91906147c2565b60206040518083038186803b158015611ae757600080fd5b505afa158015611afb573d6000803e3d6000fd5b505050506040513d601f19601f82011682018060405250810190611b1f9190613e23565b838281518110611b2b57fe5b6020026020010181815250508180600190039250505b8080600101915050611a48565b50505b611b5d86308986612c9a565b6000821115611cad5760005b6000831115611cab57611b9c84600001518281518110611b8557fe5b602002602001015186612c2390919063ffffffff16565b611c9e57818181518110611bac57fe5b602002602001015184600001518281518110611bc457fe5b602002602001015173ffffffffffffffffffffffffffffffffffffffff166370a082318a6040518263ffffffff1660e01b8152600401611c0491906147c2565b60206040518083038186803b158015611c1c57600080fd5b505afa158015611c30573d6000803e3d6000fd5b505050506040513d601f19601f82011682018060405250810190611c549190613e23565b14611c94576040517f08c379a0000000000000000000000000000000000000000000000000000000008152600401611c8b90614a22565b60405180910390fd5b8280600190039350505b8080600101915050611b69565b505b50505050505050565b600081806020019051810190611ccc9190613a4b565b9050919050565b611cdd8183612d31565b5050565b600060608060608060008067ffffffffffffffff81118015611d0257600080fd5b50604051908082528060200260200182016040528015611d315781602001602082028036833780820191505090505b50600067ffffffffffffffff81118015611d4a57600080fd5b50604051908082528060200260200182016040528015611d795781602001602082028036833780820191505090505b50600067ffffffffffffffff81118015611d9257600080fd5b50604051908082528060200260200182016040528015611dc15781602001602082028036833780820191505090505b50600067ffffffffffffffff81118015611dda57600080fd5b50604051908082528060200260200182016040528015611e095781602001602082028036833780820191505090505b50945094509450945094509091929394565b6000606080606080600167ffffffffffffffff81118015611e3b57600080fd5b50604051908082528060200260200182016040528015611e6a5781602001602082028036833780820191505090505b509150600167ffffffffffffffff81118015611e8557600080fd5b50604051908082528060200260200182016040528015611eb45781602001602082028036833780820191505090505b509050600080611ec26134ec565b611f0f8a8a8080601f016020809104026020016040519081016040528093929190818152602001838380828437600081840152601f19601f8201169050808301925050505050505061173e565b89600081518110611f1c57fe5b60200260200101819750829c50839d5084815250849850859750505050505050611f468284612dc7565b611f538160600151612e49565b8185600081518110611f6157fe5b602002602001019073ffffffffffffffffffffffffffffffffffffffff16908173ffffffffffffffffffffffffffffffffffffffff1681525050600297505050509295509295909350565b6000606080606080611fbe8787612e8d565b909192935080945081955082965083975050505050600194509295509295909350565b6000606080606080606080606061203b8a8a8080601f016020809104026020016040519081016040528093929190818152602001838380828437600081840152601f19601f820116905080830192505050505050506113d7565b945094509450505060008060005b85518110156120ae57600085828151811061206057fe5b6020026020010151131561207b5782806001019350506120a1565b600085828151811061208957fe5b602002602001015112156120a05781806001019250505b5b8080600101915050612049565b508167ffffffffffffffff811180156120c657600080fd5b506040519080825280602002602001820160405280156120f55781602001602082028036833780820191505090505b5098508167ffffffffffffffff8111801561210f57600080fd5b5060405190808252806020026020018201604052801561213e5781602001602082028036833780820191505090505b5097508067ffffffffffffffff8111801561215857600080fd5b506040519080825280602002602001820160405280156121875781602001602082028036833780820191505090505b5096508067ffffffffffffffff811180156121a157600080fd5b506040519080825280602002602001820160405280156121d05781602001602082028036833780820191505090505b50955060005b85518110156124b35760008582815181106121ed57fe5b60200260200101519050600081131561234e57600087838151811061220e57fe5b60200260200101519050600086848151811061222657fe5b60200260200101519050600073ffffffffffffffffffffffffffffffffffffffff168173ffffffffffffffffffffffffffffffffffffffff16146122de5761226d816129d6565b73ffffffffffffffffffffffffffffffffffffffff168273ffffffffffffffffffffffffffffffffffffffff16146122da576040517f08c379a00000000000000000000000000000000000000000000000000000000081526004016122d190614a42565b60405180910390fd5b8091505b858060019003965050818d87815181106122f457fe5b602002602001019073ffffffffffffffffffffffffffffffffffffffff16908173ffffffffffffffffffffffffffffffffffffffff1681525050828c878151811061233b57fe5b60200260200101818152505050506124a5565b60008112156124a457600087838151811061236557fe5b60200260200101519050600086848151811061237d57fe5b60200260200101519050600073ffffffffffffffffffffffffffffffffffffffff168173ffffffffffffffffffffffffffffffffffffffff1614612435576123c4816129d6565b73ffffffffffffffffffffffffffffffffffffffff168273ffffffffffffffffffffffffffffffffffffffff1614612431576040517f08c379a000000000000000000000000000000000000000000000000000000000815260040161242890614a42565b60405180910390fd5b8091505b848060019003955050818b868151811061244b57fe5b602002602001019073ffffffffffffffffffffffffffffffffffffffff16908173ffffffffffffffffffffffffffffffffffffffff1681525050826000038a868151811061249557fe5b60200260200101818152505050505b5b5080806001019150506121d6565b506002995050505050509295509295909350565b600060608060608060008061251f89898080601f016020809104026020016040519081016040528093929190818152602001838380828437600081840152601f19601f82011690508083019250505050505050611987565b91509150600167ffffffffffffffff8111801561253b57600080fd5b5060405190808252806020026020018201604052801561256a5781602001602082028036833780820191505090505b509550600167ffffffffffffffff8111801561258557600080fd5b506040519080825280602002602001820160405280156125b45781602001602082028036833780820191505090505b509450600167ffffffffffffffff811180156125cf57600080fd5b506040519080825280602002602001820160405280156125fe5781602001602082028036833780820191505090505b509350600167ffffffffffffffff8111801561261957600080fd5b506040519080825280602002602001820160405280156126485781602001602082028036833780820191505090505b509250612654826129d6565b8660008151811061266157fe5b602002602001019073ffffffffffffffffffffffffffffffffffffffff16908173ffffffffffffffffffffffffffffffffffffffff168152505080856000815181106126a957fe5b60200260200101818152505081846000815181106126c357fe5b602002602001019073ffffffffffffffffffffffffffffffffffffffff16908173ffffffffffffffffffffffffffffffffffffffff1681525050808360008151811061270b57fe5b6020026020010181815250506002965050509295509295909350565b6000606080606080612739878761301e565b909192935080945081955082965083975050505050600194509295509295909350565b3073ffffffffffffffffffffffffffffffffffffffff168373ffffffffffffffffffffffffffffffffffffffff161415612802578373ffffffffffffffffffffffffffffffffffffffff1663205c287883836040518363ffffffff1660e01b81526004016127cb92919061483d565b600060405180830381600087803b1580156127e557600080fd5b505af11580156127f9573d6000803e3d6000fd5b50505050612872565b8373ffffffffffffffffffffffffffffffffffffffff16637efe72108484846040518463ffffffff1660e01b815260040161283f93929190614806565b600060405180830381600087803b15801561285957600080fd5b505af115801561286d573d6000803e3d6000fd5b505050505b50505050565b6000811480612911575060008373ffffffffffffffffffffffffffffffffffffffff1663dd62ed3e30856040518363ffffffff1660e01b81526004016128bf9291906147dd565b60206040518083038186803b1580156128d757600080fd5b505afa1580156128eb573d6000803e3d6000fd5b505050506040513d601f19601f8201168201806040525081019061290f9190613e23565b145b612950576040517f08c379a000000000000000000000000000000000000000000000000000000000815260040161294790614b42565b60405180910390fd5b6129d18363095ea7b360e01b848460405160240161296f92919061483d565b604051602081830303815290604052907bffffffffffffffffffffffffffffffffffffffffffffffffffffffff19166020820180517bffffffffffffffffffffffffffffffffffffffffffffffffffffffff838183161783525050505061327e565b505050565b60007f000000000000000000000000000000000000000000000000000000000000000073ffffffffffffffffffffffffffffffffffffffff1663456b4a37836040518263ffffffff1660e01b8152600401612a3191906147c2565b60206040518083038186803b158015612a4957600080fd5b505afa158015612a5d573d6000803e3d6000fd5b505050506040513d601f19601f82011682018060405250810190612a819190613a22565b9050919050565b612a93818584611418565b8373ffffffffffffffffffffffffffffffffffffffff1663ffaad6a584846040518363ffffffff1660e01b8152600401612ace92919061483d565b600060405180830381600087803b158015612ae857600080fd5b505af1158015612afc573d6000803e3d6000fd5b5050505050505050565b612b878363a9059cbb60e01b8484604051602401612b2592919061483d565b604051602081830303815290604052907bffffffffffffffffffffffffffffffffffffffffffffffffffffffff19166020820180517bffffffffffffffffffffffffffffffffffffffffffffffffffffffff838183161783525050505061327e565b505050565b7f000000000000000000000000000000000000000000000000000000000000000073ffffffffffffffffffffffffffffffffffffffff1663b95cac28858585856040518563ffffffff1660e01b8152600401612beb94939291906148b2565b600060405180830381600087803b158015612c0557600080fd5b505af1158015612c19573d6000803e3d6000fd5b5050505050505050565b6000805b8351811015612c8e57838181518110612c3c57fe5b602002602001015173ffffffffffffffffffffffffffffffffffffffff168373ffffffffffffffffffffffffffffffffffffffff161415612c81576001915050612c94565b8080600101915050612c27565b50600090505b92915050565b7f000000000000000000000000000000000000000000000000000000000000000073ffffffffffffffffffffffffffffffffffffffff16638bdb3913858585856040518563ffffffff1660e01b8152600401612cf99493929190614866565b600060405180830381600087803b158015612d1357600080fd5b505af1158015612d27573d6000803e3d6000fd5b5050505050505050565b8173ffffffffffffffffffffffffffffffffffffffff16631ac6d19d826040518263ffffffff1660e01b8152600401612d6a91906147c2565b600060405180830381600087803b158015612d8457600080fd5b505af1158015612d98573d6000803e3d6000fd5b505050506040513d6000823e3d601f19601f82011682018060405250810190612dc19190613c76565b50505050565b612dd0816117f5565b73ffffffffffffffffffffffffffffffffffffffff16612def836129d6565b73ffffffffffffffffffffffffffffffffffffffff1614612e45576040517f08c379a0000000000000000000000000000000000000000000000000000000008152600401612e3c90614a62565b60405180910390fd5b5050565b8015612e8a576040517f08c379a0000000000000000000000000000000000000000000000000000000008152600401612e8190614ae2565b60405180910390fd5b50565b6000606080606080600167ffffffffffffffff81118015612ead57600080fd5b50604051908082528060200260200182016040528015612edc5781602001602082028036833780820191505090505b509350600167ffffffffffffffff81118015612ef757600080fd5b50604051908082528060200260200182016040528015612f265781602001602082028036833780820191505090505b509250600080612f346134ec565b612f818a8a8080601f016020809104026020016040519081016040528093929190818152602001838380828437600081840152601f19601f8201169050808301925050505050505061173e565b8b600081518110612f8e57fe5b60200260200101819750829a50839b5084815250849850859750505050505050612fb88284612dc7565b612fc58160600151612e49565b8187600081518110612fd357fe5b602002602001019073ffffffffffffffffffffffffffffffffffffffff16908173ffffffffffffffffffffffffffffffffffffffff1681525050600297505050509295509295909350565b600060608060608060008061307689898080601f016020809104026020016040519081016040528093929190818152602001838380828437600081840152601f19601f82011690508083019250505050505050611987565b91509150600167ffffffffffffffff8111801561309257600080fd5b506040519080825280602002602001820160405280156130c15781602001602082028036833780820191505090505b509550600167ffffffffffffffff811180156130dc57600080fd5b5060405190808252806020026020018201604052801561310b5781602001602082028036833780820191505090505b509450600167ffffffffffffffff8111801561312657600080fd5b506040519080825280602002602001820160405280156131555781602001602082028036833780820191505090505b509350600167ffffffffffffffff8111801561317057600080fd5b5060405190808252806020026020018201604052801561319f5781602001602082028036833780820191505090505b50925081866000815181106131b057fe5b602002602001019073ffffffffffffffffffffffffffffffffffffffff16908173ffffffffffffffffffffffffffffffffffffffff168152505080856000815181106131f857fe5b60200260200101818152505061320d826129d6565b8460008151811061321a57fe5b602002602001019073ffffffffffffffffffffffffffffffffffffffff16908173ffffffffffffffffffffffffffffffffffffffff1681525050808360008151811061326257fe5b6020026020010181815250506002965050509295509295909350565b60606132e0826040518060400160405280602081526020017f5361666545524332303a206c6f772d6c6576656c2063616c6c206661696c65648152508573ffffffffffffffffffffffffffffffffffffffff166133459092919063ffffffff16565b905060008151111561334057808060200190518101906133009190613d23565b61333f576040517f08c379a000000000000000000000000000000000000000000000000000000000815260040161333690614b22565b60405180910390fd5b5b505050565b6060613354848460008561335d565b90509392505050565b6060824710156133a2576040517f08c379a000000000000000000000000000000000000000000000000000000000815260040161339990614a82565b60405180910390fd5b6133ab85613472565b6133ea576040517f08c379a00000000000000000000000000000000000000000000000000000000081526004016133e190614b02565b60405180910390fd5b600060608673ffffffffffffffffffffffffffffffffffffffff16858760405161341491906147ab565b60006040518083038185875af1925050503d8060008114613451576040519150601f19603f3d011682016040523d82523d6000602084013e613456565b606091505b5091509150613466828286613485565b92505050949350505050565b600080823b905060008111915050919050565b60608315613495578290506134e5565b6000835111156134a85782518084602001fd5b816040517f08c379a00000000000000000000000000000000000000000000000000000000081526004016134dc9190614a00565b60405180910390fd5b9392505050565b60405180608001604052806060815260200160608152602001606081526020016000151581525090565b6040518060800160405280600073ffffffffffffffffffffffffffffffffffffffff168152602001600015158152602001600073ffffffffffffffffffffffffffffffffffffffff1681526020016000151581525090565b60008135905061357d81614f06565b92915050565b60008151905061359281614f06565b92915050565b6000815190506135a781614f1d565b92915050565b600082601f8301126135be57600080fd5b81516135d16135cc82614baf565b614b82565b915081818352602084019350602081019050838560208402820111156135f657600080fd5b60005b83811015613626578161360c8882613583565b8452602084019350602083019250506001810190506135f9565b5050505092915050565b600082601f83011261364157600080fd5b815161365461364f82614bd7565b614b82565b9150818183526020840193506020810190508385602084028201111561367957600080fd5b60005b838110156136a9578161368f888261389c565b84526020840193506020830192505060018101905061367c565b5050505092915050565b600082601f8301126136c457600080fd5b81516136d76136d282614bff565b614b82565b9150818183526020840193506020810190508360005b8381101561371d578151860161370388826138b1565b8452602084019350602083019250506001810190506136ed565b5050505092915050565b600082601f83011261373857600080fd5b815161374b61374682614c27565b614b82565b9150818183526020840193506020810190508385602084028201111561377057600080fd5b60005b838110156137a057816137868882613a0d565b845260208401935060208301925050600181019050613773565b5050505092915050565b6000815190506137b981614f34565b92915050565b6000815190506137ce81614f4b565b92915050565b6000813590506137e381614f62565b92915050565b60008083601f8401126137fb57600080fd5b8235905067ffffffffffffffff81111561381457600080fd5b60208301915083600182028301111561382c57600080fd5b9250929050565b600082601f83011261384457600080fd5b815161385761385282614c4f565b614b82565b9150808252602083016020830185838301111561387357600080fd5b61387e838284614ea8565b50505092915050565b60008151905061389681614f79565b92915050565b6000815190506138ab81614f89565b92915050565b600060a082840312156138c357600080fd5b6138cd60a0614b82565b905060006138dd848285016137bf565b60008301525060206138f184828501613a0d565b602083015250604061390584828501613a0d565b604083015250606061391984828501613a0d565b606083015250608082015167ffffffffffffffff81111561393957600080fd5b61394584828501613833565b60808301525092915050565b60006080828403121561396357600080fd5b61396d6080614b82565b9050600082015167ffffffffffffffff81111561398957600080fd5b613995848285016135ad565b600083015250602082015167ffffffffffffffff8111156139b557600080fd5b6139c184828501613727565b602083015250604082015167ffffffffffffffff8111156139e157600080fd5b6139ed84828501613833565b6040830152506060613a01848285016137aa565b60608301525092915050565b600081519050613a1c81614fa0565b92915050565b600060208284031215613a3457600080fd5b6000613a4284828501613583565b91505092915050565b600060208284031215613a5d57600080fd5b6000613a6b84828501613598565b91505092915050565b60008060008060008060c08789031215613a8d57600080fd5b6000613a9b89828a01613598565b9650506020613aac89828a016137bf565b9550506040613abd89828a01613a0d565b945050606087015167ffffffffffffffff811115613ada57600080fd5b613ae689828a016135ad565b935050608087015167ffffffffffffffff811115613b0357600080fd5b613b0f89828a01613727565b92505060a087015167ffffffffffffffff811115613b2c57600080fd5b613b3889828a01613951565b9150509295509295509295565b60008060408385031215613b5857600080fd5b6000613b6685828601613598565b9250506020613b7785828601613a0d565b9150509250929050565b60008060008060608587031215613b9757600080fd5b6000613ba58782880161356e565b9450506020613bb6878288016137d4565b935050604085013567ffffffffffffffff811115613bd357600080fd5b613bdf878288016137e9565b925092505092959194509250565b600080600080600060608688031215613c0557600080fd5b6000613c138882890161356e565b955050602086013567ffffffffffffffff811115613c3057600080fd5b613c3c888289016137e9565b9450945050604086013567ffffffffffffffff811115613c5b57600080fd5b613c67888289016137e9565b92509250509295509295909350565b60008060408385031215613c8957600080fd5b600083015167ffffffffffffffff811115613ca357600080fd5b613caf858286016135ad565b925050602083015167ffffffffffffffff811115613ccc57600080fd5b613cd885828601613727565b9150509250929050565b600060208284031215613cf457600080fd5b600082015167ffffffffffffffff811115613d0e57600080fd5b613d1a84828501613630565b91505092915050565b600060208284031215613d3557600080fd5b6000613d43848285016137aa565b91505092915050565b600080600080600060a08688031215613d6457600080fd5b6000613d7288828901613887565b955050602086015167ffffffffffffffff811115613d8f57600080fd5b613d9b888289016136b3565b945050604086015167ffffffffffffffff811115613db857600080fd5b613dc4888289016135ad565b935050606086015167ffffffffffffffff811115613de157600080fd5b613ded88828901613630565b925050608086015167ffffffffffffffff811115613e0a57600080fd5b613e16888289016135ad565b9150509295509295909350565b600060208284031215613e3557600080fd5b6000613e4384828501613a0d565b91505092915050565b6000613e588383613ec6565b60208301905092915050565b6000613e7083836141f3565b60208301905092915050565b6000613e888383614651565b905092915050565b6000613e9c838361478d565b60208301905092915050565b613eb181614dd6565b82525050565b613ec081614dd6565b82525050565b613ecf81614dc4565b82525050565b613ede81614dc4565b82525050565b6000613eef82614cbb565b613ef98185614d31565b9350613f0483614c7b565b8060005b83811015613f35578151613f1c8882613e4c565b9750613f2783614cfd565b925050600181019050613f08565b5085935050505092915050565b6000613f4d82614cbb565b613f578185614d42565b9350613f6283614c7b565b8060005b83811015613f93578151613f7a8882613e4c565b9750613f8583614cfd565b925050600181019050613f66565b5085935050505092915050565b6000613fab82614cc6565b613fb58185614d53565b9350613fc083614c8b565b8060005b83811015613ff1578151613fd88882613e64565b9750613fe383614d0a565b925050600181019050613fc4565b5085935050505092915050565b600061400982614cd1565b6140138185614d64565b93508360208202850161402585614c9b565b8060005b8581101561406157848403895281516140428582613e7c565b945061404d83614d17565b925060208a01995050600181019050614029565b50829750879550505050505092915050565b600061407e82614cdc565b6140888185614d75565b935061409383614cab565b8060005b838110156140c45781516140ab8882613e90565b97506140b683614d24565b925050600181019050614097565b5085935050505092915050565b60006140dc82614cdc565b6140e68185614d86565b93506140f183614cab565b8060005b838110156141225781516141098882613e90565b975061411483614d24565b9250506001810190506140f5565b5085935050505092915050565b61413881614de8565b82525050565b61414781614df4565b82525050565b61415681614df4565b82525050565b61416581614dfe565b82525050565b600061417682614ce7565b6141808185614d97565b9350614190818560208601614ea8565b61419981614edb565b840191505092915050565b60006141af82614ce7565b6141b98185614da8565b93506141c9818560208601614ea8565b80840191505092915050565b6141de81614e84565b82525050565b6141ed81614e96565b82525050565b6141fc81614e50565b82525050565b600061420d82614cf2565b6142178185614db3565b9350614227818560208601614ea8565b61423081614edb565b840191505092915050565b6000614248602b83614db3565b91507f5f5f62616c616e63657252656465656d3a20556e65787065637465642061737360008301527f65742072656365697665640000000000000000000000000000000000000000006020830152604082019050919050565b60006142ae602783614db3565b91507f5f5f7061727365417373657473466f7254616b654f726465723a20425054206d60008301527f69736d61746368000000000000000000000000000000000000000000000000006020830152604082019050919050565b6000614314602583614db3565b91507f5f5f76616c6964617465427074466f725374616b696e67546f6b656e3a20496e60008301527f76616c69640000000000000000000000000000000000000000000000000000006020830152604082019050919050565b600061437a602683614db3565b91507f416464726573733a20696e73756666696369656e742062616c616e636520666f60008301527f722063616c6c00000000000000000000000000000000000000000000000000006020830152604082019050919050565b60006143e0603283614db3565b91507f4f6e6c792074686520496e746567726174696f6e4d616e616765722063616e2060008301527f63616c6c20746869732066756e6374696f6e00000000000000000000000000006020830152604082019050919050565b6000614446602083614db3565b91507f74616b654f726465723a206c6566746f76657220696e7465726d6564696172796000830152602082019050919050565b6000614486602583614db3565b91507f5f5f76616c69646174654e6f496e7465726e616c42616c616e6365733a20496e60008301527f76616c69640000000000000000000000000000000000000000000000000000006020830152604082019050919050565b60006144ec601d83614db3565b91507f416464726573733a2063616c6c20746f206e6f6e2d636f6e74726163740000006000830152602082019050919050565b600061452c602a83614db3565b91507f5361666545524332303a204552433230206f7065726174696f6e20646964206e60008301527f6f742073756363656564000000000000000000000000000000000000000000006020830152604082019050919050565b6000614592603683614db3565b91507f5361666545524332303a20617070726f76652066726f6d206e6f6e2d7a65726f60008301527f20746f206e6f6e2d7a65726f20616c6c6f77616e6365000000000000000000006020830152604082019050919050565b60006145f8602783614db3565b91507f7061727365417373657473466f72416374696f6e3a205f73656c6563746f722060008301527f696e76616c6964000000000000000000000000000000000000000000000000006020830152604082019050919050565b600060a083016000830151614669600086018261413e565b50602083015161467c602086018261478d565b50604083015161468f604086018261478d565b5060608301516146a2606086018261478d565b50608083015184820360808601526146ba828261416b565b9150508091505092915050565b6080820160008201516146dd6000850182613ec6565b5060208201516146f0602085018261412f565b5060408201516147036040850182613ea8565b506060820151614716606085018261412f565b50505050565b600060808301600083015184820360008601526147398282613ee4565b915050602083015184820360208601526147538282614073565b9150506040830151848203604086015261476d828261416b565b9150506060830151614782606086018261412f565b508091505092915050565b61479681614e7a565b82525050565b6147a581614e7a565b82525050565b60006147b782846141a4565b915081905092915050565b60006020820190506147d76000830184613ed5565b92915050565b60006040820190506147f26000830185613ed5565b6147ff6020830184613ed5565b9392505050565b600060608201905061481b6000830186613ed5565b6148286020830185613ed5565b614835604083018461479c565b949350505050565b60006040820190506148526000830185613ed5565b61485f602083018461479c565b9392505050565b600060808201905061487b600083018761414d565b6148886020830186613ed5565b6148956040830185613eb7565b81810360608301526148a7818461471c565b905095945050505050565b60006080820190506148c7600083018761414d565b6148d46020830186613ed5565b6148e16040830185613ed5565b81810360608301526148f3818461471c565b905095945050505050565b6000602082019050614913600083018461415c565b92915050565b600060a08201905061492e60008301886141d5565b81810360208301526149408187613f42565b9050818103604083015261495481866140d1565b905081810360608301526149688185613f42565b9050818103608083015261497c81846140d1565b90509695505050505050565b60006101208201905061499e60008301896141e4565b81810360208301526149b08188613ffe565b905081810360408301526149c48187613f42565b90506149d360608301866146c7565b81810360e08301526149e58185613fa0565b90506149f561010083018461479c565b979650505050505050565b60006020820190508181036000830152614a1a8184614202565b905092915050565b60006020820190508181036000830152614a3b8161423b565b9050919050565b60006020820190508181036000830152614a5b816142a1565b9050919050565b60006020820190508181036000830152614a7b81614307565b9050919050565b60006020820190508181036000830152614a9b8161436d565b9050919050565b60006020820190508181036000830152614abb816143d3565b9050919050565b60006020820190508181036000830152614adb81614439565b9050919050565b60006020820190508181036000830152614afb81614479565b9050919050565b60006020820190508181036000830152614b1b816144df565b9050919050565b60006020820190508181036000830152614b3b8161451f565b9050919050565b60006020820190508181036000830152614b5b81614585565b9050919050565b60006020820190508181036000830152614b7b816145eb565b9050919050565b6000604051905081810181811067ffffffffffffffff82111715614ba557600080fd5b8060405250919050565b600067ffffffffffffffff821115614bc657600080fd5b602082029050602081019050919050565b600067ffffffffffffffff821115614bee57600080fd5b602082029050602081019050919050565b600067ffffffffffffffff821115614c1657600080fd5b602082029050602081019050919050565b600067ffffffffffffffff821115614c3e57600080fd5b602082029050602081019050919050565b600067ffffffffffffffff821115614c6657600080fd5b601f19601f8301169050602081019050919050565b6000819050602082019050919050565b6000819050602082019050919050565b6000819050602082019050919050565b6000819050602082019050919050565b600081519050919050565b600081519050919050565b600081519050919050565b600081519050919050565b600081519050919050565b600081519050919050565b6000602082019050919050565b6000602082019050919050565b6000602082019050919050565b6000602082019050919050565b600082825260208201905092915050565b600082825260208201905092915050565b600082825260208201905092915050565b600082825260208201905092915050565b600082825260208201905092915050565b600082825260208201905092915050565b600082825260208201905092915050565b600081905092915050565b600082825260208201905092915050565b6000614dcf82614e5a565b9050919050565b6000614de182614e5a565b9050919050565b60008115159050919050565b6000819050919050565b60007fffffffff0000000000000000000000000000000000000000000000000000000082169050919050565b6000819050614e3882614eec565b919050565b6000819050614e4b82614ef9565b919050565b6000819050919050565b600073ffffffffffffffffffffffffffffffffffffffff82169050919050565b6000819050919050565b6000614e8f82614e2a565b9050919050565b6000614ea182614e3d565b9050919050565b60005b83811015614ec6578082015181840152602081019050614eab565b83811115614ed5576000848401525b50505050565b6000601f19601f8301169050919050565b60038110614ef657fe5b50565b60028110614f0357fe5b50565b614f0f81614dc4565b8114614f1a57600080fd5b50565b614f2681614dd6565b8114614f3157600080fd5b50565b614f3d81614de8565b8114614f4857600080fd5b50565b614f5481614df4565b8114614f5f57600080fd5b50565b614f6b81614dfe565b8114614f7657600080fd5b50565b60028110614f8657600080fd5b50565b614f9281614e50565b8114614f9d57600080fd5b50565b614fa981614e7a565b8114614fb457600080fd5b5056fea164736f6c634300060c000a","linkReferences":{}},"methodIdentifiers":{"CLAIM_REWARDS_SELECTOR()":"40da225d","LEND_AND_STAKE_SELECTOR()":"131461c0","LEND_SELECTOR()":"257cb1a3","REDEEM_SELECTOR()":"f7d882b5","STAKE_SELECTOR()":"3ffc1591","TAKE_MULTIPLE_ORDERS_SELECTOR()":"c32990a2","TAKE_ORDER_SELECTOR()":"863e5ad0","UNSTAKE_AND_REDEEM_SELECTOR()":"080456c1","UNSTAKE_SELECTOR()":"b23228cf","claimRewards(address,bytes,bytes)":"b9dfbacc","getIntegrationManager()":"e7c45690","lendAndStake(address,bytes,bytes)":"29fa046e","parseAssetsForAction(address,bytes4,bytes)":"c54efee5","stake(address,bytes,bytes)":"fa7dd04d","takeOrder(address,bytes,bytes)":"03e38a2b","unstake(address,bytes,bytes)":"68e30677","unstakeAndRedeem(address,bytes,bytes)":"8334eb99"},"id":208}