{"abi":[{"type":"constructor","inputs":[{"name":"_integrationManager","type":"address","internalType":"address"},{"name":"_balancerVault","type":"address","internalType":"address"},{"name":"_stakingWrapperFactory","type":"address","internalType":"address"}],"stateMutability":"nonpayable"},{"type":"function","name":"CLAIM_REWARDS_SELECTOR","inputs":[],"outputs":[{"name":"","type":"bytes4","internalType":"bytes4"}],"stateMutability":"view"},{"type":"function","name":"LEND_AND_STAKE_SELECTOR","inputs":[],"outputs":[{"name":"","type":"bytes4","internalType":"bytes4"}],"stateMutability":"view"},{"type":"function","name":"LEND_SELECTOR","inputs":[],"outputs":[{"name":"","type":"bytes4","internalType":"bytes4"}],"stateMutability":"view"},{"type":"function","name":"REDEEM_SELECTOR","inputs":[],"outputs":[{"name":"","type":"bytes4","internalType":"bytes4"}],"stateMutability":"view"},{"type":"function","name":"STAKE_SELECTOR","inputs":[],"outputs":[{"name":"","type":"bytes4","internalType":"bytes4"}],"stateMutability":"view"},{"type":"function","name":"TAKE_MULTIPLE_ORDERS_SELECTOR","inputs":[],"outputs":[{"name":"","type":"bytes4","internalType":"bytes4"}],"stateMutability":"view"},{"type":"function","name":"TAKE_ORDER_SELECTOR","inputs":[],"outputs":[{"name":"","type":"bytes4","internalType":"bytes4"}],"stateMutability":"view"},{"type":"function","name":"UNSTAKE_AND_REDEEM_SELECTOR","inputs":[],"outputs":[{"name":"","type":"bytes4","internalType":"bytes4"}],"stateMutability":"view"},{"type":"function","name":"UNSTAKE_SELECTOR","inputs":[],"outputs":[{"name":"","type":"bytes4","internalType":"bytes4"}],"stateMutability":"view"},{"type":"function","name":"claimRewards","inputs":[{"name":"_vaultProxy","type":"address","internalType":"address"},{"name":"_actionData","type":"bytes","internalType":"bytes"},{"name":"","type":"bytes","internalType":"bytes"}],"outputs":[],"stateMutability":"nonpayable"},{"type":"function","name":"getIntegrationManager","inputs":[],"outputs":[{"name":"integrationManager_","type":"address","internalType":"address"}],"stateMutability":"view"},{"type":"function","name":"lendAndStake","inputs":[{"name":"_vaultProxy","type":"address","internalType":"address"},{"name":"_actionData","type":"bytes","internalType":"bytes"},{"name":"","type":"bytes","internalType":"bytes"}],"outputs":[],"stateMutability":"nonpayable"},{"type":"function","name":"parseAssetsForAction","inputs":[{"name":"","type":"address","internalType":"address"},{"name":"_selector","type":"bytes4","internalType":"bytes4"},{"name":"_actionData","type":"bytes","internalType":"bytes"}],"outputs":[{"name":"spendAssetsHandleType_","type":"uint8","internalType":"enum IIntegrationManager.SpendAssetsHandleType"},{"name":"spendAssets_","type":"address[]","internalType":"address[]"},{"name":"spendAssetAmounts_","type":"uint256[]","internalType":"uint256[]"},{"name":"incomingAssets_","type":"address[]","internalType":"address[]"},{"name":"minIncomingAssetAmounts_","type":"uint256[]","internalType":"uint256[]"}],"stateMutability":"view"},{"type":"function","name":"stake","inputs":[{"name":"_vaultProxy","type":"address","internalType":"address"},{"name":"_actionData","type":"bytes","internalType":"bytes"},{"name":"","type":"bytes","internalType":"bytes"}],"outputs":[],"stateMutability":"nonpayable"},{"type":"function","name":"takeOrder","inputs":[{"name":"_vaultProxy","type":"address","internalType":"address"},{"name":"_actionData","type":"bytes","internalType":"bytes"},{"name":"","type":"bytes","internalType":"bytes"}],"outputs":[],"stateMutability":"nonpayable"},{"type":"function","name":"unstake","inputs":[{"name":"_vaultProxy","type":"address","internalType":"address"},{"name":"_actionData","type":"bytes","internalType":"bytes"},{"name":"","type":"bytes","internalType":"bytes"}],"outputs":[],"stateMutability":"nonpayable"},{"type":"function","name":"unstakeAndRedeem","inputs":[{"name":"_vaultProxy","type":"address","internalType":"address"},{"name":"_actionData","type":"bytes","internalType":"bytes"},{"name":"","type":"bytes","internalType":"bytes"}],"outputs":[],"stateMutability":"nonpayable"}],"bytecode":{"object":"0x60e06040523480156200001157600080fd5b506040516200384b3803806200384b83398101604081905262000034916200006f565b6001600160601b0319606093841b811660805291831b821660a05290911b1660c052620000ef565b80516200006981620000d5565b92915050565b6000806000606084860312156200008557600080fd5b60006200009386866200005c565b9350506020620000a6868287016200005c565b9250506040620000b9868287016200005c565b9150509250925092565b60006001600160a01b03821662000069565b620000e081620000c3565b8114620000ec57600080fd5b50565b60805160601c60a05160601c60c05160601c6136ef6200015c60003980611dc75250806103685280610ea0528061105852806112395280611ebe5280611f66525080610226528061072d528061087252806109155280610ac35280610c7e5280610ccf52506136ef6000f3fe608060405234801561001057600080fd5b506004361061010b5760003560e01c80638334eb99116100a2578063c32990a211610071578063c32990a2146101bf578063c54efee5146101c7578063e7c45690146101eb578063f7d882b514610200578063fa7dd04d146102085761010b565b80638334eb9914610189578063863e5ad01461019c578063b23228cf146101a4578063b9dfbacc146101ac5761010b565b806329fa046e116100de57806329fa046e146101535780633ffc15911461016657806340da225d1461016e57806368e30677146101765761010b565b806303e38a2b14610110578063080456c114610125578063131461c014610143578063257cb1a31461014b575b600080fd5b61012361011e3660046129fd565b61021b565b005b61012d6106b6565b60405161013a91906133ea565b60405180910390f35b61012d6106da565b61012d6106fe565b6101236101613660046129fd565b610722565b61012d61081f565b61012d610843565b6101236101843660046129fd565b610867565b6101236101973660046129fd565b61090a565b61012d610a70565b61012d610a94565b6101236101ba3660046129fd565b610ab8565b61012d610b4f565b6101da6101d5366004612996565b610b73565b60405161013a9594939291906133f8565b6101f3610c7c565b60405161013a919061333a565b61012d610ca0565b6101236102163660046129fd565b610cc4565b336001600160a01b037f0000000000000000000000000000000000000000000000000000000000000000161461026c5760405162461bcd60e51b815260040161026390613516565b60405180910390fd5b60006060806060806102b389898080601f016020809104026020016040519081016040528093929190818152602001838380828437600092019190915250610d5d92505050565b945094509450945094506000808451905060005b818110156103ee5760008582815181106102dd57fe5b602002602001015113156103935760008582815181106102f957fe5b6020026020010151905060006001600160a01b031685838151811061031a57fe5b60200260200101516001600160a01b03161461034f5761034f303087858151811061034157fe5b602002602001015184610d8b565b61038d87838151811061035e57fe5b60200260200101517f000000000000000000000000000000000000000000000000000000000000000083610d9d565b506103e6565b60008582815181106103a157fe5b60200260200101511280156103dc575060006001600160a01b03168482815181106103c857fe5b60200260200101516001600160a01b031614155b156103e657600192505b6001016102c7565b50606061040b3084610400578e610402565b305b8a8a8a8a610e59565b905060005b828110156106a657600086828151811061042657fe5b602002602001015113156105565760006001600160a01b031685828151811061044b57fe5b60200260200101516001600160a01b0316141580156104755750600189600181111561047357fe5b145b1561053357600087828151811061048857fe5b60200260200101516001600160a01b03166370a08231306040518263ffffffff1660e01b81526004016104bb919061333a565b60206040518083038186803b1580156104d357600080fd5b505afa1580156104e7573d6000803e3d6000fd5b505050506040513d601f19601f8201168201806040525081019061050b9190612c02565b90508015610531576105318f87848151811061052357fe5b602002602001015183610f41565b505b6105508e88838151811061054357fe5b6020026020010151610f5a565b5061069e565b600086828151811061056457fe5b6020026020010151121561066b5760006001600160a01b031685828151811061058957fe5b60200260200101516001600160a01b0316146106505761064b8e8683815181106105af57fe5b60200260200101518984815181106105c357fe5b60200260200101516001600160a01b03166370a08231306040518263ffffffff1660e01b81526004016105f6919061333a565b60206040518083038186803b15801561060e57600080fd5b505afa158015610622573d6000803e3d6000fd5b505050506040513d601f19601f820116820180604052508101906106469190612c02565b610f41565b610666565b8315610666576105508e88838151811061054357fe5b61069e565b81818151811061067757fe5b602002602001015160001461069e5760405162461bcd60e51b815260040161026390613526565b600101610410565b5050505050505050505050505050565b7f8334eb99be0145865eba9889fca2ee920288090caefff4cc776038e20ad9259a81565b7f29fa046e79524c3c5ac4c01df692c35e217802b2b13b21121b76cf0ef02b138c81565b7f099f75155f0e997bf83a7993a71d5e7e7540bd386fe1e84643a09ce6b412521981565b336001600160a01b037f0000000000000000000000000000000000000000000000000000000000000000161461076a5760405162461bcd60e51b815260040161026390613516565b60008060608061077861243e565b6107b789898080601f016020809104026020016040519081016040528093929190818152602001838380828437600092019190915250610ffb92505050565b95509550955050945094506107cf3085858585611033565b6108088a866107dd876110a5565b6001600160a01b03166370a08231306040518263ffffffff1660e01b81526004016105f6919061333a565b6108128a846110b0565b5050505050505050505050565b7ffa7dd04da627f433da73c4355ead9c75682a67a8fc84d3f6170ef0922f402d2481565b7fb9dfbaccbe5cd2a84fdcf1d15f23ef25d23086f5afbaa99516065ed4a5bbc7a381565b336001600160a01b037f000000000000000000000000000000000000000000000000000000000000000016146108af5760405162461bcd60e51b815260040161026390613516565b6000806108f186868080601f01602080910402602001604051908101604052809392919081815260200183838082843760009201919091525061120b92505050565b9150915061090187888484610d8b565b50505050505050565b336001600160a01b037f000000000000000000000000000000000000000000000000000000000000000016146109525760405162461bcd60e51b815260040161026390613516565b6000806000606061096161243e565b6109a089898080601f016020809104026020016040519081016040528093929190818152602001838380828437600092019190915250610ffb92505050565b95505094509450945094506109b78a308786610d8b565b6109c48a8585858561122b565b60006109cf856110a5565b90506000816001600160a01b03166370a08231306040518263ffffffff1660e01b81526004016109ff919061333a565b60206040518083038186803b158015610a1757600080fd5b505afa158015610a2b573d6000803e3d6000fd5b505050506040513d601f19601f82011682018060405250810190610a4f9190612c02565b90508015610a6257610a628c8883610f41565b505050505050505050505050565b7f03e38a2bd7063d45c897edeafc330e71657502dd86434d3c37a489caf116af6981565b7f68e30677f607df46e87da13e15b637784cfa62374b653f35ab43d10361a2f83081565b336001600160a01b037f00000000000000000000000000000000000000000000000000000000000000001614610b005760405162461bcd60e51b815260040161026390613516565b610b4885610b4386868080601f0160208091040260200160405190810160405280939291908181526020018383808284376000920191909152506114cb92505050565b6114e1565b5050505050565b7f0e7f692dad5b88fdee426250d6eae91207e56a2e8112b7364579bed1790e5bf481565b600060608080806001600160e01b03198816632e77eeb360e21b1415610baa57610b9b6114ef565b94509450945094509450610c71565b6001600160e01b031988166314fd023760e11b1415610bcd57610b9b878761154f565b6001600160e01b03198816638334eb9960e01b1415610bf057610b9b8787611662565b6001600160e01b031988166303e38a2b60e01b1415610c1357610b9b8787611688565b6001600160e01b0319881663fa7dd04d60e01b1415610c3657610b9b8787611a56565b6001600160e01b031988166368e3067760e01b1415610c5957610b9b8787611bcd565b60405162461bcd60e51b815260040161026390613576565b945094509450945094565b7f000000000000000000000000000000000000000000000000000000000000000090565b7fc29fa9dde84204c2908778afd0613d802d31cf046179b88f6d2b4a4e507ea2d581565b336001600160a01b037f00000000000000000000000000000000000000000000000000000000000000001614610d0c5760405162461bcd60e51b815260040161026390613516565b600080610d4e86868080601f01602080910402602001604051908101604052809392919081815260200183838082843760009201919091525061120b92505050565b91509150610901878383610f41565b600060608060608085806020019051810190610d799190612b31565b939a9299509097509550909350915050565b610d9782858584611bdf565b50505050565b604051636eb1769f60e11b81526000906001600160a01b0385169063dd62ed3e90610dce9030908790600401613348565b60206040518083038186803b158015610de657600080fd5b505afa158015610dfa573d6000803e3d6000fd5b505050506040513d601f19601f82011682018060405250810190610e1e9190612c02565b905081811015610d97578015610e4357610e436001600160a01b038516846000611cb3565b610d976001600160a01b03851684600019611cb3565b6060610e63612468565b50604080516080810182526001600160a01b03808a168252600060208301819052898216838501526060830152915163945bcec960e01b815290917f0000000000000000000000000000000000000000000000000000000000000000169063945bcec990610edf9089908990899087908a90429060040161345f565b600060405180830381600087803b158015610ef957600080fd5b505af1158015610f0d573d6000803e3d6000fd5b505050506040513d6000823e601f3d908101601f19168201604052610f359190810190612adf565b98975050505050505050565b610f55828483610f5086611dad565b611e4c565b505050565b6040516370a0823160e01b81526000906001600160a01b038316906370a0823190610f8990309060040161333a565b60206040518083038186803b158015610fa157600080fd5b505afa158015610fb5573d6000803e3d6000fd5b505050506040513d601f19601f82011682018060405250810190610fd99190612c02565b90508015610ff557610ff56001600160a01b0383168483611e88565b92915050565b600080600060608061100b61243e565b8680602001905181019061101f9190612890565b949c939b5091995097509550909350915050565b60005b83518110156110985761109084828151811061104e57fe5b60200260200101517f000000000000000000000000000000000000000000000000000000000000000085848151811061108357fe5b6020026020010151610d9d565b600101611036565b50610b4884308784611ea7565b606081901c5b919050565b606081516001600160401b03811180156110c957600080fd5b506040519080825280602002602001820160405280156110f3578160200160208202803683370190505b50905060005b825181101561120457600083828151811061111057fe5b60200260200101519050806001600160a01b03166370a08231306040518263ffffffff1660e01b8152600401611146919061333a565b60206040518083038186803b15801561115e57600080fd5b505afa158015611172573d6000803e3d6000fd5b505050506040513d601f19601f820116820180604052508101906111969190612c02565b8383815181106111a257fe5b60200260200101818152505060008383815181106111bc57fe5b602002602001015111156111fb576111fb858484815181106111da57fe5b6020026020010151836001600160a01b0316611e889092919063ffffffff16565b506001016110f9565b5092915050565b60008082806020019051810190611222919061295c565b91509150915091565b61125e611237856110a5565b7f000000000000000000000000000000000000000000000000000000000000000085610d9d565b815181515103606081156113a4578251516001600160401b038111801561128457600080fd5b506040519080825280602002602001820160405280156112ae578160200160208202803683370190505b5090508160005b81156113a1576112e5856000015182815181106112ce57fe5b602002602001015187611ef990919063ffffffff16565b6113995784518051829081106112f757fe5b60200260200101516001600160a01b03166370a082318a6040518263ffffffff1660e01b815260040161132a919061333a565b60206040518083038186803b15801561134257600080fd5b505afa158015611356573d6000803e3d6000fd5b505050506040513d601f19601f8201168201806040525081019061137a9190612c02565b83828151811061138657fe5b6020908102919091010152600019909101905b6001016112b5565b50505b6113b086308986611f4f565b81156109015760005b82156114c1576113e9846000015182815181106113d257fe5b602002602001015186611ef990919063ffffffff16565b6114b9578181815181106113f957fe5b60200260200101518460000151828151811061141157fe5b60200260200101516001600160a01b03166370a082318a6040518263ffffffff1660e01b8152600401611444919061333a565b60206040518083038186803b15801561145c57600080fd5b505afa158015611470573d6000803e3d6000fd5b505050506040513d601f19601f820116820180604052508101906114949190612c02565b146114b15760405162461bcd60e51b8152600401610263906134d6565b600019909201915b6001016113b9565b5050505050505050565b600081806020019051810190610ff59190612872565b6114eb8183611fa1565b5050565b600060608080808480604051908082528060200260200182016040528015611521578160200160208202803683370190505b5060408051600080825260208201818152828401918252606083019093529399929850965094509092509050565b6040805160018082528183019092526000916060918291829182916020808301908036833750506040805160018082528183019092529294509050602080830190803683370190505090506000806115a561243e565b6115e48a8a8080601f016020809104026020016040519081016040528093929190818152602001838380828437600092019190915250610ffb92505050565b896000815181106115f157fe5b6020908102919091010193909352909a50985090945090925090506116168284612023565b6116238160600151612064565b818560008151811061163157fe5b60200260200101906001600160a01b031690816001600160a01b031681525050600297505050509295509295909350565b60006060806060806116748787612085565b60019c939b50919950975095509350505050565b600060608060608060608060606116d48a8a8080601f016020809104026020016040519081016040528093929190818152602001838380828437600092019190915250610d5d92505050565b945094509450505060008060005b855181101561173d5760008582815181106116f957fe5b6020026020010151131561171257600190920191611735565b600085828151811061172057fe5b60200260200101511215611735576001909101905b6001016116e2565b50816001600160401b038111801561175457600080fd5b5060405190808252806020026020018201604052801561177e578160200160208202803683370190505b509850816001600160401b038111801561179757600080fd5b506040519080825280602002602001820160405280156117c1578160200160208202803683370190505b509750806001600160401b03811180156117da57600080fd5b50604051908082528060200260200182016040528015611804578160200160208202803683370190505b509650806001600160401b038111801561181d57600080fd5b50604051908082528060200260200182016040528015611847578160200160208202803683370190505b50955060005b8551811015611a4257600085828151811061186457fe5b60200260200101519050600081131561195457600087838151811061188557fe5b60200260200101519050600086848151811061189d57fe5b6020026020010151905060006001600160a01b0316816001600160a01b0316146118fe576118ca81611dad565b6001600160a01b0316826001600160a01b0316146118fa5760405162461bcd60e51b8152600401610263906134e6565b8091505b858060019003965050818d878151811061191457fe5b60200260200101906001600160a01b031690816001600160a01b031681525050828c878151811061194157fe5b6020026020010181815250505050611a39565b6000811215611a3957600087838151811061196b57fe5b60200260200101519050600086848151811061198357fe5b6020026020010151905060006001600160a01b0316816001600160a01b0316146119e4576119b081611dad565b6001600160a01b0316826001600160a01b0316146119e05760405162461bcd60e51b8152600401610263906134e6565b8091505b848060019003955050818b86815181106119fa57fe5b60200260200101906001600160a01b031690816001600160a01b031681525050826000038a8681518110611a2a57fe5b60200260200101818152505050505b5060010161184d565b506002995050505050509295509295909350565b6000606080606080600080611aa089898080601f01602080910402602001604051908101604052809392919081815260200183838082843760009201919091525061120b92505050565b60408051600180825281830190925292945090925060208083019080368337505060408051600180825281830190925292985090506020808301908036833750506040805160018082528183019092529297509050602080830190803683375050604080516001808252818301909252929650905060208083019080368337019050509250611b2e82611dad565b86600081518110611b3b57fe5b60200260200101906001600160a01b031690816001600160a01b0316815250508085600081518110611b6957fe5b6020026020010181815250508184600081518110611b8357fe5b60200260200101906001600160a01b031690816001600160a01b0316815250508083600081518110611bb157fe5b6020026020010181815250506002965050509295509295909350565b60006060806060806116748787612167565b6001600160a01b038316301415611c555760405163040b850f60e31b81526001600160a01b0385169063205c287890611c1e908590859060040161338b565b600060405180830381600087803b158015611c3857600080fd5b505af1158015611c4c573d6000803e3d6000fd5b50505050610d97565b6040516307efe72160e41b81526001600160a01b03851690637efe721090611c8590869086908690600401613363565b600060405180830381600087803b158015611c9f57600080fd5b505af11580156114c1573d6000803e3d6000fd5b801580611d3b5750604051636eb1769f60e11b81526001600160a01b0384169063dd62ed3e90611ce99030908690600401613348565b60206040518083038186803b158015611d0157600080fd5b505afa158015611d15573d6000803e3d6000fd5b505050506040513d601f19601f82011682018060405250810190611d399190612c02565b155b611d575760405162461bcd60e51b815260040161026390613566565b610f558363095ea7b360e01b8484604051602401611d7692919061338b565b60408051601f198184030181529190526020810180516001600160e01b03166001600160e01b031990931692909217909152612294565b60405163456b4a3760e01b81526000906001600160a01b037f0000000000000000000000000000000000000000000000000000000000000000169063456b4a3790611dfc90859060040161333a565b60206040518083038186803b158015611e1457600080fd5b505afa158015611e28573d6000803e3d6000fd5b505050506040513d601f19601f82011682018060405250810190610ff59190612872565b611e57818584610d9d565b60405160016255295b60e01b031981526001600160a01b0385169063ffaad6a590611c85908690869060040161338b565b610f558363a9059cbb60e01b8484604051602401611d7692919061338b565b60405163172b958560e31b81526001600160a01b037f0000000000000000000000000000000000000000000000000000000000000000169063b95cac2890611c859087908790879087906004016133a6565b6000805b8351811015611f4557838181518110611f1257fe5b60200260200101516001600160a01b0316836001600160a01b03161415611f3d576001915050610ff5565b600101611efd565b5060009392505050565b604051638bdb391360e01b81526001600160a01b037f00000000000000000000000000000000000000000000000000000000000000001690638bdb391390611c859087908790879087906004016133a6565b604051631ac6d19d60e01b81526001600160a01b03831690631ac6d19d90611fcd90849060040161333a565b600060405180830381600087803b158015611fe757600080fd5b505af1158015611ffb573d6000803e3d6000fd5b505050506040513d6000823e601f3d908101601f19168201604052610d979190810190612a82565b61202c816110a5565b6001600160a01b031661203e83611dad565b6001600160a01b0316146114eb5760405162461bcd60e51b8152600401610263906134f6565b80156120825760405162461bcd60e51b815260040161026390613536565b50565b6040805160018082528183019092526000916060918291829182916020808301908036833750506040805160018082528183019092529296509050602080830190803683370190505092506000806120db61243e565b61211a8a8a8080601f016020809104026020016040519081016040528093929190818152602001838380828437600092019190915250610ffb92505050565b8b60008151811061212757fe5b60209081029190910101939093529098509650909450909250905061214c8284612023565b6121598160600151612064565b818760008151811061163157fe5b60006060806060806000806121b189898080601f01602080910402602001604051908101604052809392919081815260200183838082843760009201919091525061120b92505050565b60408051600180825281830190925292945090925060208083019080368337505060408051600180825281830190925292985090506020808301908036833750506040805160018082528183019092529297509050602080830190803683375050604080516001808252818301909252929650905060208083019080368337019050509250818660008151811061224457fe5b60200260200101906001600160a01b031690816001600160a01b031681525050808560008151811061227257fe5b60200260200101818152505061228782611dad565b84600081518110611b8357fe5b60606122e9826040518060400160405280602081526020017f5361666545524332303a206c6f772d6c6576656c2063616c6c206661696c6564815250856001600160a01b03166123239092919063ffffffff16565b805190915015610f5557808060200190518101906123079190612b13565b610f555760405162461bcd60e51b815260040161026390613556565b6060612332848460008561233c565b90505b9392505050565b60608247101561235e5760405162461bcd60e51b815260040161026390613506565b612367856123ff565b6123835760405162461bcd60e51b815260040161026390613546565b60006060866001600160a01b031685876040516123a0919061332e565b60006040518083038185875af1925050503d80600081146123dd576040519150601f19603f3d011682016040523d82523d6000602084013e6123e2565b606091505b50915091506123f2828286612405565b925050505b949350505050565b3b151590565b60608315612414575081612335565b8251156124245782518084602001fd5b8160405162461bcd60e51b815260040161026391906134c5565b60405180608001604052806060815260200160608152602001606081526020016000151581525090565b60408051608081018252600080825260208201819052918101829052606081019190915290565b8035610ff5816136a6565b8051610ff5816136a6565b600082601f8301126124b657600080fd5b81516124c96124c4826135ac565b613586565b915081818352602084019350602081019050838560208402820111156124ee57600080fd5b60005b8381101561251a5781612504888261249a565b84525060209283019291909101906001016124f1565b5050505092915050565b600082601f83011261253557600080fd5b81516125436124c4826135ac565b9150818183526020840193506020810190508385602084028201111561256857600080fd5b60005b8381101561251a578161257e888261266c565b845250602092830192919091019060010161256b565b600082601f8301126125a557600080fd5b81516125b36124c4826135ac565b81815260209384019390925082018360005b8381101561251a57815186016125db8882612724565b84525060209283019291909101906001016125c5565b600082601f83011261260257600080fd5b81516126106124c4826135ac565b9150818183526020840193506020810190508385602084028201111561263557600080fd5b60005b8381101561251a578161264b888261266c565b8452506020928301929190910190600101612638565b8051610ff5816136ba565b8051610ff5816136c3565b8035610ff5816136cc565b60008083601f84011261269457600080fd5b5081356001600160401b038111156126ab57600080fd5b6020830191508360018202830111156126c357600080fd5b9250929050565b600082601f8301126126db57600080fd5b81516126e96124c4826135cc565b9150808252602083016020830185838301111561270557600080fd5b61271083828461365c565b50505092915050565b8051610ff5816136d5565b600060a0828403121561273657600080fd5b61274060a0613586565b9050600061274e848461266c565b825250602061275f8484830161266c565b60208301525060406127738482850161266c565b60408301525060606127878482850161266c565b60608301525060808201516001600160401b038111156127a657600080fd5b6127b2848285016126ca565b60808301525092915050565b6000608082840312156127d057600080fd5b6127da6080613586565b82519091506001600160401b038111156127f357600080fd5b6127ff848285016124a5565b82525060208201516001600160401b0381111561281b57600080fd5b612827848285016125f1565b60208301525060408201516001600160401b0381111561284657600080fd5b612852848285016126ca565b604083015250606061286684828501612661565b60608301525092915050565b60006020828403121561288457600080fd5b60006123f7848461249a565b60008060008060008060c087890312156128a957600080fd5b60006128b5898961249a565b96505060206128c689828a0161266c565b95505060406128d789828a0161266c565b94505060608701516001600160401b038111156128f357600080fd5b6128ff89828a016124a5565b93505060808701516001600160401b0381111561291b57600080fd5b61292789828a016125f1565b92505060a08701516001600160401b0381111561294357600080fd5b61294f89828a016127be565b9150509295509295509295565b6000806040838503121561296f57600080fd5b600061297b858561249a565b925050602061298c8582860161266c565b9150509250929050565b600080600080606085870312156129ac57600080fd5b60006129b8878761248f565b94505060206129c987828801612677565b93505060408501356001600160401b038111156129e557600080fd5b6129f187828801612682565b95989497509550505050565b600080600080600060608688031215612a1557600080fd5b6000612a21888861248f565b95505060208601356001600160401b03811115612a3d57600080fd5b612a4988828901612682565b945094505060408601356001600160401b03811115612a6757600080fd5b612a7388828901612682565b92509250509295509295909350565b60008060408385031215612a9557600080fd5b82516001600160401b03811115612aab57600080fd5b612ab7858286016124a5565b92505060208301516001600160401b03811115612ad357600080fd5b61298c858286016125f1565b600060208284031215612af157600080fd5b81516001600160401b03811115612b0757600080fd5b6123f784828501612524565b600060208284031215612b2557600080fd5b60006123f78484612661565b600080600080600060a08688031215612b4957600080fd5b6000612b558888612719565b95505060208601516001600160401b03811115612b7157600080fd5b612b7d88828901612594565b94505060408601516001600160401b03811115612b9957600080fd5b612ba5888289016124a5565b93505060608601516001600160401b03811115612bc157600080fd5b612bcd88828901612524565b92505060808601516001600160401b03811115612be957600080fd5b612bf5888289016124a5565b9150509295509295909350565b600060208284031215612c1457600080fd5b60006123f7848461266c565b6000612c2c8383612c4c565b505060200190565b6000612c2c8383612e63565b6000612335838361320d565b612c5581613606565b82525050565b6000612c66826135f9565b612c7081856135fd565b9350612c7b836135f3565b8060005b83811015612ca9578151612c938882612c20565b9750612c9e836135f3565b925050600101612c7f565b509495945050505050565b6000612cbf826135f9565b612cc981856135fd565b9350612cd4836135f3565b8060005b83811015612ca9578151612cec8882612c20565b9750612cf7836135f3565b925050600101612cd8565b6000612d0d826135f9565b612d1781856135fd565b9350612d22836135f3565b8060005b83811015612ca9578151612d3a8882612c34565b9750612d45836135f3565b925050600101612d26565b6000612d5b826135f9565b612d6581856135fd565b935083602082028501612d77856135f3565b8060005b85811015612db15784840389528151612d948582612c40565b9450612d9f836135f3565b60209a909a0199925050600101612d7b565b5091979650505050505050565b6000612dc9826135f9565b612dd381856135fd565b9350612dde836135f3565b8060005b83811015612ca9578151612df68882612c34565b9750612e01836135f3565b925050600101612de2565b6000612e17826135f9565b612e2181856135fd565b9350612e2c836135f3565b8060005b83811015612ca9578151612e448882612c34565b9750612e4f836135f3565b925050600101612e30565b612c5581613611565b612c5581613616565b612c5581613619565b6000612e80826135f9565b612e8a81856135fd565b9350612e9a81856020860161365c565b612ea381613688565b9093019392505050565b6000612eb8826135f9565b612ec281856110ab565b9350612ed281856020860161365c565b9290920192915050565b612c5581613646565b612c5581613651565b6000612efb602b836135fd565b7f5f5f62616c616e63657252656465656d3a20556e65787065637465642061737381526a195d081c9958d95a5d995960aa1b602082015260400192915050565b6000612f486027836135fd565b7f5f5f7061727365417373657473466f7254616b654f726465723a20425054206d8152660d2e6dac2e8c6d60cb1b602082015260400192915050565b6000612f916025836135fd565b7f5f5f76616c6964617465427074466f725374616b696e67546f6b656e3a20496e8152641d985b1a5960da1b602082015260400192915050565b6000612fd86026836135fd565b7f416464726573733a20696e73756666696369656e742062616c616e636520666f8152651c8818d85b1b60d21b602082015260400192915050565b60006130206032836135fd565b7f4f6e6c792074686520496e746567726174696f6e4d616e616765722063616e2081527131b0b636103a3434b990333ab731ba34b7b760711b602082015260400192915050565b60006130746020836135fd565b7f74616b654f726465723a206c6566746f76657220696e7465726d656469617279815260200192915050565b60006130ad6025836135fd565b7f5f5f76616c69646174654e6f496e7465726e616c42616c616e6365733a20496e8152641d985b1a5960da1b602082015260400192915050565b60006130f4601d836135fd565b7f416464726573733a2063616c6c20746f206e6f6e2d636f6e7472616374000000815260200192915050565b600061312d602a836135fd565b7f5361666545524332303a204552433230206f7065726174696f6e20646964206e8152691bdd081cdd58d8d9595960b21b602082015260400192915050565b60006131796036836135fd565b7f5361666545524332303a20617070726f76652066726f6d206e6f6e2d7a65726f81527520746f206e6f6e2d7a65726f20616c6c6f77616e636560501b602082015260400192915050565b60006131d16027836135fd565b7f7061727365417373657473466f72416374696f6e3a205f73656c6563746f72208152661a5b9d985b1a5960ca1b602082015260400192915050565b805160009060a08401906132218582612e63565b5060208301516132346020860182612e63565b5060408301516132476040860182612e63565b50606083015161325a6060860182612e63565b50608083015184820360808601526132728282612e75565b95945050505050565b8051608083019061328c8482612c4c565b50602082015161329f6020850182612e5a565b5060408201516132b26040850182612c4c565b506060820151610d976060850182612e5a565b80516080808452600091908401906132dd8282612c5b565b915050602083015184820360208601526132f78282612dbe565b915050604083015184820360408601526133118282612e75565b91505060608301516133266060860182612e5a565b509392505050565b60006123358284612ead565b60208101610ff58284612c4c565b604081016133568285612c4c565b6123356020830184612c4c565b606081016133718286612c4c565b61337e6020830185612c4c565b6123f76040830184612e63565b604081016133998285612c4c565b6123356020830184612e63565b608081016133b48287612e63565b6133c16020830186612c4c565b6133ce6040830185612c4c565b81810360608301526133e081846132c5565b9695505050505050565b60208101610ff58284612e6c565b60a081016134068288612edc565b81810360208301526134188187612cb4565b9050818103604083015261342c8186612e0c565b905081810360608301526134408185612cb4565b905081810360808301526134548184612e0c565b979650505050505050565b610120810161346e8289612ee5565b81810360208301526134808188612d50565b905081810360408301526134948187612cb4565b90506134a3606083018661327b565b81810360e08301526134b58185612d02565b9050613454610100830184612e63565b602080825281016123358184612e75565b60208082528101610ff581612eee565b60208082528101610ff581612f3b565b60208082528101610ff581612f84565b60208082528101610ff581612fcb565b60208082528101610ff581613013565b60208082528101610ff581613067565b60208082528101610ff5816130a0565b60208082528101610ff5816130e7565b60208082528101610ff581613120565b60208082528101610ff58161316c565b60208082528101610ff5816131c4565b6040518181016001600160401b03811182821017156135a457600080fd5b604052919050565b60006001600160401b038211156135c257600080fd5b5060209081020190565b60006001600160401b038211156135e257600080fd5b506020601f91909101601f19160190565b60200190565b5190565b90815260200190565b6000610ff58261363a565b151590565b90565b6001600160e01b03191690565b806110ab81613692565b806110ab8161369c565b6001600160a01b031690565b6000610ff582613626565b6000610ff582613630565b60005b8381101561367757818101518382015260200161365f565b83811115610d975750506000910152565b601f01601f191690565b6003811061208257fe5b6002811061208257fe5b6136af81613606565b811461208257600080fd5b6136af81613611565b6136af81613616565b6136af81613619565b6002811061208257600080fdfea164736f6c634300060c000a","linkReferences":{}},"methodIdentifiers":{"CLAIM_REWARDS_SELECTOR()":"40da225d","LEND_AND_STAKE_SELECTOR()":"131461c0","LEND_SELECTOR()":"257cb1a3","REDEEM_SELECTOR()":"f7d882b5","STAKE_SELECTOR()":"3ffc1591","TAKE_MULTIPLE_ORDERS_SELECTOR()":"c32990a2","TAKE_ORDER_SELECTOR()":"863e5ad0","UNSTAKE_AND_REDEEM_SELECTOR()":"080456c1","UNSTAKE_SELECTOR()":"b23228cf","claimRewards(address,bytes,bytes)":"b9dfbacc","getIntegrationManager()":"e7c45690","lendAndStake(address,bytes,bytes)":"29fa046e","parseAssetsForAction(address,bytes4,bytes)":"c54efee5","stake(address,bytes,bytes)":"fa7dd04d","takeOrder(address,bytes,bytes)":"03e38a2b","unstake(address,bytes,bytes)":"68e30677","unstakeAndRedeem(address,bytes,bytes)":"8334eb99"},"id":208}