{"abi":[{"type":"constructor","inputs":[{"name":"_feeManager","type":"address","internalType":"address"}],"stateMutability":"nonpayable"},{"type":"function","name":"getContinuousFeesForFund","inputs":[{"name":"_comptrollerProxy","type":"address","internalType":"address"}],"outputs":[{"name":"continuousFees_","type":"address[]","internalType":"address[]"}],"stateMutability":"view"},{"type":"function","name":"getFeeManager","inputs":[],"outputs":[{"name":"feeManager_","type":"address","internalType":"address"}],"stateMutability":"view"},{"type":"function","name":"invokeContinuousFeeHookAndPayoutSharesOutstandingForFund","inputs":[{"name":"_comptrollerProxy","type":"address","internalType":"address"},{"name":"_fees","type":"address[]","internalType":"address[]"}],"outputs":[],"stateMutability":"nonpayable"}],"bytecode":{"object":"0x60a060405234801561001057600080fd5b5060405161085c38038061085c8339818101604052602081101561003357600080fd5b81019080805190602001909291905050508073ffffffffffffffffffffffffffffffffffffffff1660808173ffffffffffffffffffffffffffffffffffffffff1660601b815250505060805160601c6107c36100996000398061079252506107c36000f3fe608060405234801561001057600080fd5b50600436106100415760003560e01c80630efe688014610046578063ace7cc9c146100df578063f2d6382614610178575b600080fd5b6100886004803603602081101561005c57600080fd5b81019080803573ffffffffffffffffffffffffffffffffffffffff1690602001909291905050506101ac565b6040518080602001828103825283818151815260200191508051906020019060200280838360005b838110156100cb5780820151818401526020810190506100b0565b505050509050019250505060405180910390f35b610176600480360360408110156100f557600080fd5b81019080803573ffffffffffffffffffffffffffffffffffffffff1690602001909291908035906020019064010000000081111561013257600080fd5b82018360208201111561014457600080fd5b8035906020019184602083028401116401000000008311171561016657600080fd5b9091929391929390505050610592565b005b61018061078e565b604051808273ffffffffffffffffffffffffffffffffffffffff16815260200191505060405180910390f35b606060006101b861078e565b905060608173ffffffffffffffffffffffffffffffffffffffff1663a9f3b42f856040518263ffffffff1660e01b8152600401808273ffffffffffffffffffffffffffffffffffffffff16815260200191505060006040518083038186803b15801561022357600080fd5b505afa158015610237573d6000803e3d6000fd5b505050506040513d6000823e3d601f19601f82011682018060405250602081101561026157600080fd5b810190808051604051939291908464010000000082111561028157600080fd5b8382019150602082018581111561029757600080fd5b82518660208202830111640100000000821117156102b457600080fd5b8083526020830192505050908051906020019060200280838360005b838110156102eb5780820151818401526020810190506102d0565b50505050905001604052505050905060006060825167ffffffffffffffff8111801561031657600080fd5b506040519080825280602002602001820160405280156103455781602001602082028036833780820191505090505b50905060005b835181101561044a57600084828151811061036257fe5b602002602001015173ffffffffffffffffffffffffffffffffffffffff1663320f0ddd60006040518263ffffffff1660e01b8152600401808260038111156103a657fe5b8152602001915050604080518083038186803b1580156103c557600080fd5b505afa1580156103d9573d6000803e3d6000fd5b505050506040513d60408110156103ef57600080fd5b810190808051906020019092919080519060200190929190505050509050801561043c578380600101945050600183838151811061042957fe5b6020026020010190151590811515815250505b50808060010191505061034b565b5060008214156104a757600067ffffffffffffffff8111801561046c57600080fd5b5060405190808252806020026020018201604052801561049b5781602001602082028036833780820191505090505b5094505050505061058d565b8167ffffffffffffffff811180156104be57600080fd5b506040519080825280602002602001820160405280156104ed5781602001602082028036833780820191505090505b5094506000805b84518110156105865782818151811061050957fe5b6020026020010151156105795784818151811061052257fe5b602002602001015187838151811061053657fe5b602002602001019073ffffffffffffffffffffffffffffffffffffffff16908173ffffffffffffffffffffffffffffffffffffffff168152505081806001019250505b80806001019150506104f4565b5050505050505b919050565b60008390508073ffffffffffffffffffffffffffffffffffffffff166339bf70d16105bb61078e565b60006040518363ffffffff1660e01b8152600401808373ffffffffffffffffffffffffffffffffffffffff168152602001828152602001806020018281038252600081526020016020019350505050600060405180830381600087803b15801561062457600080fd5b505af1158015610638573d6000803e3d6000fd5b505050508073ffffffffffffffffffffffffffffffffffffffff166339bf70d161066061078e565b6001868660405160200180806020018281038252848482818152602001925060200280828437600081840152601f19601f82011690508083019250505093505050506040516020818303038152906040526040518463ffffffff1660e01b8152600401808473ffffffffffffffffffffffffffffffffffffffff16815260200183815260200180602001828103825283818151815260200191508051906020019080838360005b83811015610722578082015181840152602081019050610707565b50505050905090810190601f16801561074f5780820380516001836020036101000a031916815260200191505b50945050505050600060405180830381600087803b15801561077057600080fd5b505af1158015610784573d6000803e3d6000fd5b5050505050505050565b60007f000000000000000000000000000000000000000000000000000000000000000090509056fea164736f6c634300060c000a","linkReferences":{}},"methodIdentifiers":{"getContinuousFeesForFund(address)":"0efe6880","getFeeManager()":"f2d63826","invokeContinuousFeeHookAndPayoutSharesOutstandingForFund(address,address[])":"ace7cc9c"},"id":308}