{"abi":[{"type":"constructor","inputs":[{"name":"_vlCvx","type":"address","internalType":"address"},{"name":"_vlCvxExtraRewards","type":"address","internalType":"address"},{"name":"_cvxCrvStaking","type":"address","internalType":"address"},{"name":"_cvxToken","type":"address","internalType":"address"},{"name":"_snapshotDelegateRegistry","type":"address","internalType":"address"},{"name":"_votiumMultiMerkleStash","type":"address","internalType":"address"}],"stateMutability":"nonpayable"},{"type":"function","name":"getDebtAssets","inputs":[],"outputs":[{"name":"assets_","type":"address[]","internalType":"address[]"},{"name":"amounts_","type":"uint256[]","internalType":"uint256[]"}],"stateMutability":"nonpayable"},{"type":"function","name":"getManagedAssets","inputs":[],"outputs":[{"name":"assets_","type":"address[]","internalType":"address[]"},{"name":"amounts_","type":"uint256[]","internalType":"uint256[]"}],"stateMutability":"nonpayable"},{"type":"function","name":"init","inputs":[{"name":"","type":"bytes","internalType":"bytes"}],"outputs":[],"stateMutability":"nonpayable"},{"type":"function","name":"receiveCallFromVault","inputs":[{"name":"_actionData","type":"bytes","internalType":"bytes"}],"outputs":[],"stateMutability":"nonpayable"}],"bytecode":{"object":"0x6101406040523480156200001257600080fd5b506040516200170a3803806200170a833981016040819052620000359162000096565b6001600160601b0319606094851b811660805292841b831660a05290831b821660c05293821b811660e05291811b8216610100529190911b16610120526200011c565b80516001600160a01b03811681146200009057600080fd5b92915050565b60008060008060008060c08789031215620000af578182fd5b620000bb888862000078565b9550620000cc886020890162000078565b9450620000dd886040890162000078565b9350620000ee886060890162000078565b9250620000ff886080890162000078565b9150620001108860a0890162000078565b90509295509295509295565b60805160601c60a05160601c60c05160601c60e05160601c6101005160601c6101205160601c61157162000199600039806106685250806105ac52508060cf528061010052806103c0528061044752806104c8528061053652508061081e52508060ad52806101b152806102615250806106ef52506115716000f3fe608060405234801561001057600080fd5b506004361061004c5760003560e01c80634ddf47d41461005157806380daddb814610066578063e5c23a9714610085578063ecd658b414610098575b600080fd5b61006461005f366004610fae565b6100a0565b005b61006e6100f9565b60405161007c92919061123f565b60405180910390f35b610064610093366004610fae565b6102e3565b61006e61037f565b6100f66001600160a01b037f0000000000000000000000000000000000000000000000000000000000000000167f0000000000000000000000000000000000000000000000000000000000000000600019610385565b50565b60608060007f00000000000000000000000000000000000000000000000000000000000000006001600160a01b03166359355736306040518263ffffffff1660e01b815260040161014a919061110d565b60206040518083038186803b15801561016257600080fd5b505afa158015610176573d6000803e3d6000fd5b505050506040513d601f19601f8201168201806040525081019061019a9190611022565b6040516370a0823160e01b81526001600160a01b037f000000000000000000000000000000000000000000000000000000000000000016906370a08231906101e690309060040161110d565b60206040518083038186803b1580156101fe57600080fd5b505afa158015610212573d6000803e3d6000fd5b505050506040513d601f19601f820116820180604052508101906102369190611022565b01905080156102de5760408051600180825281830190925290602080830190803683370190505092507f00000000000000000000000000000000000000000000000000000000000000008360008151811061028d57fe5b6001600160a01b039290921660209283029190910182015260408051600180825281830190925291828101908036833701905050915080826000815181106102d157fe5b6020026020010181815250505b509091565b60006060828060200190518101906102fb919061103a565b9092509050816103135761030e81610398565b61037a565b60018214156103245761030e610430565b60028214156103355761030e6104b1565b60038214156103475761030e816104fd565b60048214156103595761030e816107f9565b60405162461bcd60e51b815260040161037190611368565b60405180910390fd5b505050565b60608091565b61037a61039184610895565b8383610898565b6000806103a483610992565b60405163e2ab691d60e01b815291935091506001600160a01b037f0000000000000000000000000000000000000000000000000000000000000000169063e2ab691d906103f99030908690869060040161121e565b600060405180830381600087803b15801561041357600080fd5b505af1158015610427573d6000803e3d6000fd5b50505050505050565b60405163312ff83960e01b81526001600160a01b037f0000000000000000000000000000000000000000000000000000000000000000169063312ff8399061047d906001906004016112cd565b600060405180830381600087803b15801561049757600080fd5b505af11580156104ab573d6000803e3d6000fd5b50505050565b60405163d36f12fb60e01b81526001600160a01b037f0000000000000000000000000000000000000000000000000000000000000000169063d36f12fb9061047d90339060040161110d565b60606000606080600061050f866109b2565b94509450945094509450831561059e57604051630c00007b60e41b81526001600160a01b037f0000000000000000000000000000000000000000000000000000000000000000169063c00007b09061056b90309060040161110d565b600060405180830381600087803b15801561058557600080fd5b505af1158015610599573d6000803e3d6000fd5b505050505b60005b8351811015610649577f00000000000000000000000000000000000000000000000000000000000000006001600160a01b0316636b091695308684815181106105e657fe5b60200260200101516040518363ffffffff1660e01b815260040161060b929190611121565b600060405180830381600087803b15801561062557600080fd5b505af1158015610639573d6000803e3d6000fd5b5050600190920191506105a19050565b508151156106d257604051631067326f60e11b81526001600160a01b037f000000000000000000000000000000000000000000000000000000000000000016906320ce64de9061069f903090869060040161113b565b600060405180830381600087803b1580156106b957600080fd5b505af11580156106cd573d6000803e3d6000fd5b505050505b80156107ef576040516370a0823160e01b81526001600160a01b037f000000000000000000000000000000000000000000000000000000000000000016906338d074369082906370a082319061072c90309060040161110d565b60206040518083038186803b15801561074457600080fd5b505afa158015610758573d6000803e3d6000fd5b505050506040513d601f19601f8201168201806040525081019061077c9190611022565b60016040518363ffffffff1660e01b815260040161079b929190611485565b602060405180830381600087803b1580156107b557600080fd5b505af11580156107c9573d6000803e3d6000fd5b505050506040513d601f19601f820116820180604052508101906107ed9190610f92565b505b61042733866109e1565b600061080482610b3e565b6040516317b0dca160e31b81529091506001600160a01b037f0000000000000000000000000000000000000000000000000000000000000000169063bd86e5089061085f90660c6ecf05ccae8d60cb1b9085906004016112d8565b600060405180830381600087803b15801561087957600080fd5b505af115801561088d573d6000803e3d6000fd5b505050505050565b90565b8015806109205750604051636eb1769f60e11b81526001600160a01b0384169063dd62ed3e906108ce9030908690600401611121565b60206040518083038186803b1580156108e657600080fd5b505afa1580156108fa573d6000803e3d6000fd5b505050506040513d601f19601f8201168201806040525081019061091e9190611022565b155b61093c5760405162461bcd60e51b81526004016103719061142f565b61037a8363095ea7b360e01b848460405160240161095b929190611205565b60408051601f198184030181529190526020810180516001600160e01b03166001600160e01b031990931692909217909152610b54565b600080828060200190518101906109a991906110b9565b91509150915091565b606060006060806000858060200190518101906109cf9190610e99565b939a9299509097509550909350915050565b6060815167ffffffffffffffff811180156109fb57600080fd5b50604051908082528060200260200182016040528015610a25578160200160208202803683370190505b50905060005b8251811015610b36576000838281518110610a4257fe5b60200260200101519050806001600160a01b03166370a08231306040518263ffffffff1660e01b8152600401610a78919061110d565b60206040518083038186803b158015610a9057600080fd5b505afa158015610aa4573d6000803e3d6000fd5b505050506040513d601f19601f82011682018060405250810190610ac89190611022565b838381518110610ad457fe5b6020026020010181815250506000838381518110610aee57fe5b60200260200101511115610b2d57610b2d85848481518110610b0c57fe5b6020026020010151836001600160a01b0316610be39092919063ffffffff16565b50600101610a2b565b505b92915050565b600081806020019051810190610b389190610e7d565b6060610ba9826040518060400160405280602081526020017f5361666545524332303a206c6f772d6c6576656c2063616c6c206661696c6564815250856001600160a01b0316610bf69092919063ffffffff16565b80519091501561037a5780806020019051810190610bc79190610f92565b61037a5760405162461bcd60e51b8152600401610371906113e5565b61037a610bef84610895565b8383610c0f565b6060610c058484600085610c2e565b90505b9392505050565b61037a8363a9059cbb60e01b848460405160240161095b929190611205565b606082471015610c505760405162461bcd60e51b815260040161037190611322565b610c5985610cef565b610c755760405162461bcd60e51b8152600401610371906113ae565b60006060866001600160a01b03168587604051610c9291906110f1565b60006040518083038185875af1925050503d8060008114610ccf576040519150601f19603f3d011682016040523d82523d6000602084013e610cd4565b606091505b5091509150610ce4828286610cf5565b979650505050505050565b3b151590565b60608315610d04575081610c08565b825115610d145782518084602001fd5b8160405162461bcd60e51b815260040161037191906112ef565b600082601f830112610d3e578081fd5b8151610d51610d4c826114bc565b611495565b818152915060208083019084810181840286018201871015610d7257600080fd5b60005b84811015610d9a578151610d8881611541565b84529282019290820190600101610d75565b505050505092915050565b80518015158114610b3857600080fd5b600060808284031215610dc6578081fd5b610dd06080611495565b90508151610ddd81611541565b81526020828101518183015260408084015190830152606083015167ffffffffffffffff811115610e0d57600080fd5b8301601f81018513610e1e57600080fd5b8051610e2c610d4c826114bc565b8181528381019083850185840285018601891015610e4957600080fd5b600094505b83851015610e6c578051835260019490940193918501918501610e4e565b506060860152509295945050505050565b600060208284031215610e8e578081fd5b8151610c0881611541565b600080600080600060a08688031215610eb0578081fd5b855167ffffffffffffffff80821115610ec7578283fd5b610ed389838a01610d2e565b96506020915081880151610ee681611556565b604089015190965081811115610efa578384fd5b610f068a828b01610d2e565b955050606088015181811115610f1a578384fd5b88019050601f81018913610f2c578283fd5b8051610f3a610d4c826114bc565b81815283810190838501865b84811015610f6f57610f5d8e888451890101610db5565b84529286019290860190600101610f46565b50508096505050505050610f868760808801610da5565b90509295509295909350565b600060208284031215610fa3578081fd5b8151610c0881611556565b600060208284031215610fbf578081fd5b813567ffffffffffffffff811115610fd5578182fd5b8201601f81018413610fe5578182fd5b8035610ff3610d4c826114dc565b818152856020838501011115611007578384fd5b81602084016020830137908101602001929092525092915050565b600060208284031215611033578081fd5b5051919050565b6000806040838503121561104c578182fd5b82519150602083015167ffffffffffffffff811115611069578182fd5b8301601f81018513611079578182fd5b8051611087610d4c826114dc565b81815286602083850101111561109b578384fd5b6110ac826020830160208601611515565b8093505050509250929050565b600080604083850312156110cb578182fd5b505080516020909101519092909150565b815260200190565b6001600160a01b03169052565b60008251611103818460208701611515565b9190910192915050565b6001600160a01b0391909116815260200190565b6001600160a01b0392831681529116602082015260400190565b6001600160a01b0383168152604060208083018290528351838301819052600092916060918286019080830287018401888401875b838110156111f557605f198a8403018552815160808085016111928351611509565b865282890151898701528a8301518b870152918901518986019190915280519182905287019060a08501908b905b808210156111e057835183529289019291890191600191909101906111c0565b50509587019593505090850190600101611170565b50909a9950505050505050505050565b6001600160a01b03929092168252602082015260400190565b6001600160a01b039390931683526020830191909152604082015260600190565b604080825283519082018190526000906020906060840190828701845b8281101561127f5761126f8483516110e4565b928401929084019060010161125c565b505050838103828501528085516112968184611500565b91508387019250845b818110156112c0576112b28385516110dc565b93850193925060010161129f565b5090979650505050505050565b901515815260200190565b9182526001600160a01b0316602082015260400190565b600060208252825180602084015261130e816040850160208701611515565b601f01601f19169190910160400192915050565b60208082526026908201527f416464726573733a20696e73756666696369656e742062616c616e636520666f6040820152651c8818d85b1b60d21b606082015260800190565b60208082526026908201527f7265636569766543616c6c46726f6d5661756c743a20496e76616c69642061636040820152651d1a5bdb925960d21b606082015260800190565b6020808252601d908201527f416464726573733a2063616c6c20746f206e6f6e2d636f6e7472616374000000604082015260600190565b6020808252602a908201527f5361666545524332303a204552433230206f7065726174696f6e20646964206e6040820152691bdd081cdd58d8d9595960b21b606082015260800190565b60208082526036908201527f5361666545524332303a20617070726f76652066726f6d206e6f6e2d7a65726f60408201527520746f206e6f6e2d7a65726f20616c6c6f77616e636560501b606082015260800190565b9182521515602082015260400190565b60405181810167ffffffffffffffff811182821017156114b457600080fd5b604052919050565b600067ffffffffffffffff8211156114d2578081fd5b5060209081020190565b600067ffffffffffffffff8211156114f2578081fd5b50601f01601f191660200190565b90815260200190565b6001600160a01b031690565b60005b83811015611530578181015183820152602001611518565b838111156104ab5750506000910152565b6001600160a01b03811681146100f657600080fd5b80151581146100f657600080fdfea164736f6c634300060c000a","linkReferences":{}},"methodIdentifiers":{"getDebtAssets()":"ecd658b4","getManagedAssets()":"80daddb8","init(bytes)":"4ddf47d4","receiveCallFromVault(bytes)":"e5c23a97"},"id":134}