{"abi":[{"type":"constructor","inputs":[{"name":"_libAddress","type":"address","internalType":"address"}],"stateMutability":"nonpayable"},{"type":"function","name":"deployProxy","inputs":[{"name":"_vaultProxy","type":"address","internalType":"address"},{"name":"_redemptionAssetAddress","type":"address","internalType":"address"},{"name":"_bypassableSharesThreshold","type":"uint256","internalType":"uint256"},{"name":"_managers","type":"address[]","internalType":"address[]"}],"outputs":[{"name":"proxyAddress_","type":"address","internalType":"address"}],"stateMutability":"nonpayable"},{"type":"event","name":"ProxyDeployed","inputs":[{"name":"deployer","type":"address","indexed":true,"internalType":"address"},{"name":"proxyAddress","type":"address","indexed":true,"internalType":"address"},{"name":"vaultProxy","type":"address","indexed":true,"internalType":"address"}],"anonymous":false}],"bytecode":{"object":"0x60a060405234801561001057600080fd5b5060405161080d38038061080d83398101604081905261002f91610075565b6001600160a01b031660805261009e565b60006001600160a01b0382165b92915050565b61005c81610040565b811461006757600080fd5b50565b805161004d81610053565b60006020828403121561008a5761008a600080fd5b6000610096848461006a565b949350505050565b6080516107556100b8600039600060b501526107556000f3fe608060405234801561001057600080fd5b506004361061002b5760003560e01c80639e912fd714610030575b600080fd5b61004361003e366004610203565b610059565b6040516100509190610296565b60405180910390f35b600080632aa4239660e01b878787878760405160240161007d95949392919061031c565b604051602081830303815290604052906001600160e01b0319166020820180516001600160e01b0383818316178352505050509050807f00000000000000000000000000000000000000000000000000000000000000006040516100e09061015e565b6100eb9291906103b8565b604051809103906000f080158015610107573d6000803e3d6000fd5b509150866001600160a01b0316826001600160a01b0316336001600160a01b03167f9e0862c4ebff2150fbbfd3f8547483f55bdec0c34fd977d3fccaa55d6c4ce78460405160405180910390a45095945050505050565b61037c806103d983390190565b60006001600160a01b0382165b92915050565b6101878161016b565b811461019257600080fd5b50565b80356101788161017e565b80610187565b8035610178816101a0565b60008083601f8401126101c6576101c6600080fd5b50813567ffffffffffffffff8111156101e1576101e1600080fd5b6020830191508360208202830111156101fc576101fc600080fd5b9250929050565b60008060008060006080868803121561021e5761021e600080fd5b600061022a8888610195565b955050602061023b88828901610195565b945050604061024c888289016101a6565b935050606086013567ffffffffffffffff81111561026c5761026c600080fd5b610278888289016101b1565b92509250509295509295909350565b6102908161016b565b82525050565b602081016101788284610287565b80610290565b60006102b68383610287565b505060200190565b60006102cd6020840184610195565b9392505050565b8183526000602084019350818060005b85811015610311576102f682846102be565b61030088826102aa565b9750602083019250506001016102e4565b509495945050505050565b6080810161032a8288610287565b6103376020830187610287565b61034460408301866102a4565b81810360608301526103578184866102d4565b979650505050505050565b60005b8381101561037d578181015183820152602001610365565b50506000910152565b6000610390825190565b8084526020840193506103a7818560208601610362565b601f01601f19169290920192915050565b604080825281016103c98185610386565b90506102cd602083018461028756fe60a060405234801561001057600080fd5b5060405161037c38038061037c83398101604081905261002f91610249565b6001600160a01b0381166080527f360894a13ba1a3210667c828492db98dca3e2076cc3735a920a3ca505d382bbc8190558151156100f457600080826001600160a01b03168460405161008291906102c1565b600060405180830381855af49150503d80600081146100bd576040519150601f19603f3d011682016040523d82523d6000602084013e6100c2565b606091505b50915091508181906100f05760405162461bcd60e51b81526004016100e79190610306565b60405180910390fd5b5050505b5050610317565b634e487b7160e01b600052604160045260246000fd5b601f19601f83011681018181106001600160401b0382111715610136576101366100fb565b6040525050565b600061014860405190565b90506101548282610111565b919050565b60006001600160401b03821115610172576101726100fb565b601f19601f83011660200192915050565b60005b8381101561019e578181015183820152602001610186565b50506000910152565b60006101ba6101b584610159565b61013d565b9050828152602081018484840111156101d5576101d5600080fd5b6101e0848285610183565b509392505050565b600082601f8301126101fc576101fc600080fd5b815161020c8482602086016101a7565b949350505050565b60006001600160a01b0382165b92915050565b61023081610214565b811461023b57600080fd5b50565b805161022181610227565b6000806040838503121561025f5761025f600080fd5b82516001600160401b0381111561027857610278600080fd5b610284858286016101e8565b92505060206102958582860161023e565b9150509250929050565b60006102a9825190565b6102b7818560208601610183565b9290920192915050565b60006102cd828461029f565b9392505050565b60006102de825190565b8084526020840193506102f5818560208601610183565b601f01601f19169290920192915050565b602080825281016102cd81846102d4565b608051604d61032f600039600060060152604d6000f3fe60806040527f00000000000000000000000000000000000000000000000000000000000000003660008037600080366000846127105a03f43d806000803e818015604857816000f35b816000fd","linkReferences":{}},"methodIdentifiers":{"deployProxy(address,address,uint256,address[])":"9e912fd7"},"id":73}