{"abi":[{"type":"constructor","inputs":[{"name":"_libAddress","type":"address","internalType":"address"}],"stateMutability":"nonpayable"},{"type":"function","name":"deployProxy","inputs":[{"name":"_vaultProxy","type":"address","internalType":"address"},{"name":"_redemptionAssetAddress","type":"address","internalType":"address"},{"name":"_bypassableSharesThreshold","type":"uint256","internalType":"uint256"},{"name":"_managers","type":"address[]","internalType":"address[]"}],"outputs":[{"name":"proxyAddress_","type":"address","internalType":"address"}],"stateMutability":"nonpayable"},{"type":"event","name":"ProxyDeployed","inputs":[{"name":"deployer","type":"address","indexed":true,"internalType":"address"},{"name":"proxyAddress","type":"address","indexed":true,"internalType":"address"},{"name":"vaultProxy","type":"address","indexed":true,"internalType":"address"}],"anonymous":false}],"bytecode":{"object":"0x60a060405234801561001057600080fd5b5060405161064738038061064783398101604081905261002f91610040565b6001600160a01b0316608052610070565b60006020828403121561005257600080fd5b81516001600160a01b038116811461006957600080fd5b9392505050565b6080516105bd61008a600039600060bb01526105bd6000f3fe608060405234801561001057600080fd5b506004361061002b5760003560e01c80639e912fd714610030575b600080fd5b61004361003e36600461018d565b61005f565b6040516001600160a01b03909116815260200160405180910390f35b600080632aa4239660e01b878787878760405160240161008395949392919061022b565b604051602081830303815290604052906001600160e01b0319166020820180516001600160e01b0383818316178352505050509050807f00000000000000000000000000000000000000000000000000000000000000006040516100e690610164565b6100f1929190610298565b604051809103906000f08015801561010d573d6000803e3d6000fd5b509150866001600160a01b0316826001600160a01b0316336001600160a01b03167f9e0862c4ebff2150fbbfd3f8547483f55bdec0c34fd977d3fccaa55d6c4ce78460405160405180910390a45095945050505050565b6102c4806102f983390190565b80356001600160a01b038116811461018857600080fd5b919050565b6000806000806000608086880312156101a557600080fd5b6101ae86610171565b94506101bc60208701610171565b935060408601359250606086013567ffffffffffffffff808211156101e057600080fd5b818801915088601f8301126101f457600080fd5b81358181111561020357600080fd5b8960208260051b850101111561021857600080fd5b9699959850939650602001949392505050565b6001600160a01b038681168252858116602080840191909152604083018690526080606084018190528301849052600091859160a08501845b87811015610289578361027686610171565b1682529382019390820190600101610264565b509a9950505050505050505050565b604081526000835180604084015260005b818110156102c657602081870181015160608684010152016102a9565b50600060608285018101919091526001600160a01b03949094166020840152601f01601f19169091019091019291505056fe60a060405234801561001057600080fd5b506040516102c43803806102c483398101604081905261002f91610151565b6001600160a01b0381166080527f360894a13ba1a3210667c828492db98dca3e2076cc3735a920a3ca505d382bbc8190558151156100f457600080826001600160a01b0316846040516100829190610210565b600060405180830381855af49150503d80600081146100bd576040519150601f19603f3d011682016040523d82523d6000602084013e6100c2565b606091505b50915091508181906100f05760405162461bcd60e51b81526004016100e7919061022c565b60405180910390fd5b5050505b505061025f565b634e487b7160e01b600052604160045260246000fd5b60005b8381101561012c578181015183820152602001610114565b50506000910152565b80516001600160a01b038116811461014c57600080fd5b919050565b6000806040838503121561016457600080fd5b82516001600160401b038082111561017b57600080fd5b818501915085601f83011261018f57600080fd5b8151818111156101a1576101a16100fb565b604051601f8201601f19908116603f011681019083821181831017156101c9576101c96100fb565b816040528281528860208487010111156101e257600080fd5b6101f3836020830160208801610111565b809650505050505061020760208401610135565b90509250929050565b60008251610222818460208701610111565b9190910192915050565b602081526000825180602084015261024b816040850160208701610111565b601f01601f19169190910160400192915050565b608051604d610277600039600060060152604d6000f3fe60806040527f00000000000000000000000000000000000000000000000000000000000000003660008037600080366000846127105a03f43d806000803e818015604857816000f35b816000fd","linkReferences":{}},"methodIdentifiers":{"deployProxy(address,address,uint256,address[])":"9e912fd7"},"id":62}