{"abi":[{"type":"constructor","inputs":[{"name":"_fundDeployer","type":"address","internalType":"address"},{"name":"_valueInterpreter","type":"address","internalType":"address"},{"name":"_intermediaryAsset","type":"address","internalType":"address"},{"name":"_balancerVault","type":"address","internalType":"address"},{"name":"_poolFactories","type":"address[]","internalType":"address[]"}],"stateMutability":"nonpayable"},{"type":"function","name":"addPoolFactories","inputs":[{"name":"_poolFactories","type":"address[]","internalType":"address[]"}],"outputs":[],"stateMutability":"nonpayable"},{"type":"function","name":"calcUnderlyingValues","inputs":[{"name":"_derivative","type":"address","internalType":"address"},{"name":"_derivativeAmount","type":"uint256","internalType":"uint256"}],"outputs":[{"name":"underlyings_","type":"address[]","internalType":"address[]"},{"name":"underlyingAmounts_","type":"uint256[]","internalType":"uint256[]"}],"stateMutability":"nonpayable"},{"type":"function","name":"getFundDeployer","inputs":[],"outputs":[{"name":"fundDeployer_","type":"address","internalType":"address"}],"stateMutability":"view"},{"type":"function","name":"getOwner","inputs":[],"outputs":[{"name":"owner_","type":"address","internalType":"address"}],"stateMutability":"view"},{"type":"function","name":"getPoolFactories","inputs":[],"outputs":[{"name":"factories_","type":"address[]","internalType":"address[]"}],"stateMutability":"view"},{"type":"function","name":"isSupportedAsset","inputs":[{"name":"_asset","type":"address","internalType":"address"}],"outputs":[{"name":"isSupported_","type":"bool","internalType":"bool"}],"stateMutability":"view"},{"type":"function","name":"removePoolFactories","inputs":[{"name":"_poolFactories","type":"address[]","internalType":"address[]"}],"outputs":[],"stateMutability":"nonpayable"},{"type":"event","name":"PoolFactoryAdded","inputs":[{"name":"poolFactory","type":"address","indexed":false,"internalType":"address"}],"anonymous":false},{"type":"event","name":"PoolFactoryRemoved","inputs":[{"name":"poolFactory","type":"address","indexed":false,"internalType":"address"}],"anonymous":false}],"bytecode":{"object":"0x6101006040523480156200001257600080fd5b5060405162002033380380620020338339810160408190526200003591620001d5565b6001600160601b0319606086811b821660805283811b821660a05284811b821660c05285901b1660e0526200006a8162000075565b505050505062000317565b60005b81518110156200015a57620000b18282815181106200009357fe5b602002602001015160006200015e60201b62000a201790919060201c565b62000151576000828281518110620000c557fe5b60209081029190910181015182546001810184556000938452919092200180546001600160a01b0319166001600160a01b0390921691909117905581517fed48b5354ebc9ec871d70260374c2cdc552ec57a6b36e1dbc1fbdbe0921c136f908390839081106200013157fe5b6020026020010151604051620001489190620002dc565b60405180910390a15b60010162000078565b5050565b8154600090815b81811015620001b0578481815481106200017b57fe5b6000918252602090912001546001600160a01b0385811691161415620001a757600192505050620001b7565b60010162000165565b5060009150505b92915050565b80516001600160a01b0381168114620001b757600080fd5b600080600080600060a08688031215620001ed578081fd5b620001f98787620001bd565b945060206200020b88828901620001bd565b94506200021c8860408901620001bd565b93506200022d8860608901620001bd565b60808801519093506001600160401b03808211156200024a578384fd5b818901915089601f8301126200025e578384fd5b8151818111156200026d578485fd5b83810291506200027f848301620002f0565b8181528481019084860184860187018e10156200029a578788fd5b8795505b83861015620002c857620002b38e82620001bd565b8352600195909501949186019186016200029e565b508096505050505050509295509295909350565b6001600160a01b0391909116815260200190565b6040518181016001600160401b03811182821017156200030f57600080fd5b604052919050565b60805160601c60a05160601c60c05160601c60e05160601c611ccb620003686000398061056152508061062e528061075152508061020e52806102935250806107c9528061085f5250611ccb6000f3fe608060405234801561001057600080fd5b506004361061007d5760003560e01c8063893d20e81161005b578063893d20e8146100d657806397c0ac87146100eb5780639be918e6146100f3578063ec421ea0146101135761007d565b806327082f73146100825780634c8f6529146100a0578063727212f6146100b5575b600080fd5b61008a610126565b6040516100979190611a53565b60405180910390f35b6100b36100ae3660046117e7565b610188565b005b6100c86100c33660046117bc565b610209565b604051610097929190611a66565b6100de6107c5565b60405161009791906119f8565b6100de61085d565b61010661010136600461177d565b610881565b6040516100979190611abc565b6100b36101213660046117e7565b610947565b6060600080548060200260200160405190810160405280929190818152602001828054801561017e57602002820191906000526020600020905b81546001600160a01b03168152600190910190602001808311610160575b5050505050905090565b6101906107c5565b6001600160a01b0316336001600160a01b0316146101c95760405162461bcd60e51b81526004016101c090611ad0565b60405180910390fd5b610205828280806020026020016040519081016040528093929190818152602001838360200280828437600092019190915250610a7a92505050565b5050565b6060807f00000000000000000000000000000000000000000000000000000000000000006001600160a01b031663fa6e671d306000806040518463ffffffff1660e01b815260040161025d93929190611a0c565b600060405180830381600087803b15801561027757600080fd5b505af115801561028b573d6000803e3d6000fd5b5050505060607f00000000000000000000000000000000000000000000000000000000000000006001600160a01b031663f94d4668866001600160a01b03166338fff2d06040518163ffffffff1660e01b815260040160206040518083038186803b1580156102f957600080fd5b505afa15801561030d573d6000803e3d6000fd5b505050506040513d601f19601f82011682018060405250810190610331919061197c565b6040518263ffffffff1660e01b815260040161034d9190611ac7565b60006040518083038186803b15801561036557600080fd5b505afa158015610379573d6000803e3d6000fd5b505050506040513d6000823e601f3d908101601f191682016040526103a19190810190611856565b50506040805160018082528183019092529192506020808301908036833750506040805160018082528183019092529295509050602080830190803683370190505091506000856001600160a01b03166318160ddd6040518163ffffffff1660e01b815260040160206040518083038186803b15801561042057600080fd5b505afa158015610434573d6000803e3d6000fd5b505050506040513d601f19601f82011682018060405250810190610458919061197c565b90506000866001600160a01b031663c0ff1a156040518163ffffffff1660e01b815260040160206040518083038186803b15801561049557600080fd5b505afa1580156104a9573d6000803e3d6000fd5b505050506040513d601f19601f820116820180604052508101906104cd919061197c565b90506060876001600160a01b031663f89f27ed6040518163ffffffff1660e01b815260040160006040518083038186803b15801561050a57600080fd5b505afa15801561051e573d6000803e3d6000fd5b505050506040513d6000823e601f3d908101601f191682016040526105469190810190611921565b9050670de0b6b3a764000060005b855181101561073c5760007f00000000000000000000000000000000000000000000000000000000000000006001600160a01b0316634c67e10688848151811061059a57fe5b60200260200101518985815181106105ae57fe5b60200260200101516001600160a01b031663313ce5676040518163ffffffff1660e01b815260040160206040518083038186803b1580156105ee57600080fd5b505afa158015610602573d6000803e3d6000fd5b505050506040513d601f19601f820116820180604052508101906106269190611994565b60ff16600a0a7f00000000000000000000000000000000000000000000000000000000000000006040518463ffffffff1660e01b815260040161066b93929190611a30565b602060405180830381600087803b15801561068557600080fd5b505af1158015610699573d6000803e3d6000fd5b505050506040513d601f19601f820116820180604052508101906106bd919061197c565b905061073161072a6106fe8685815181106106d457fe5b60200260200101518786815181106106e857fe5b6020026020010151610b5090919063ffffffff16565b61072487868151811061070d57fe5b602002602001015185610b5090919063ffffffff16565b90610c90565b8490610d08565b925050600101610554565b50600061074d856107248487610d08565b90507f00000000000000000000000000000000000000000000000000000000000000008860008151811061077d57fe5b6001600160a01b039092166020928302919091019091015261079f8982610d08565b876000815181106107ac57fe5b6020026020010181815250505050505050509250929050565b60007f00000000000000000000000000000000000000000000000000000000000000006001600160a01b031663893d20e86040518163ffffffff1660e01b815260040160206040518083038186803b15801561082057600080fd5b505afa158015610834573d6000803e3d6000fd5b505050506040513d601f19601f8201168201806040525081019061085891906117a0565b905090565b7f000000000000000000000000000000000000000000000000000000000000000090565b6000805b60005481101561093c576000818154811061089c57fe5b600091825260209091200154604051636634b75360e01b81526001600160a01b0390911690636634b753906108d59086906004016119f8565b60206040518083038186803b1580156108ed57600080fd5b505afa158015610901573d6000803e3d6000fd5b505050506040513d601f19601f82011682018060405250810190610925919061195c565b15610934576001915050610942565b600101610885565b50600090505b919050565b61094f6107c5565b6001600160a01b0316336001600160a01b03161461097f5760405162461bcd60e51b81526004016101c090611ad0565b60005b81811015610a1b576109b683838381811061099957fe5b90506020020160208101906109ae919061177d565b600090610d60565b15610a13577faf425cea5645b25ac2f49fdb1a46bf13689e763057f4e556078fea1cc2ecfb9b8383838181106109e857fe5b90506020020160208101906109fd919061177d565b604051610a0a91906119f8565b60405180910390a15b600101610982565b505050565b8154600090815b81811015610a6d57848181548110610a3b57fe5b6000918252602090912001546001600160a01b0385811691161415610a6557600192505050610a74565b600101610a27565b5060009150505b92915050565b60005b815181101561020557610aad828281518110610a9557fe5b60200260200101516000610a2090919063ffffffff16565b610b48576000828281518110610abf57fe5b60209081029190910181015182546001810184556000938452919092200180546001600160a01b0319166001600160a01b0390921691909117905581517fed48b5354ebc9ec871d70260374c2cdc552ec57a6b36e1dbc1fbdbe0921c136f90839083908110610b2a57fe5b6020026020010151604051610b3f91906119f8565b60405180910390a15b600101610a7d565b600081610b665750670de0b6b3a7640000610a74565b82610b7357506000610a74565b60ff83901c15610b955760405162461bcd60e51b81526004016101c090611b98565b82770bce5086492111aea88f4bb1ca6bcf584181ea8059f765328310610bcd5760405162461bcd60e51b81526004016101c090611b6e565b826000670c7d713b49da000083138015610bee5750670f43fc2c04ee000083125b15610c25576000610bfe84610e58565b9050670de0b6b3a764000080820784020583670de0b6b3a764000083050201915050610c33565b81610c2f84610f76565b0290505b670de0b6b3a76400009005680238fd42c5cf03ffff198112801590610c61575068070c1cc73b00c800008113155b610c7d5760405162461bcd60e51b81526004016101c090611b3f565b610c8681611315565b9695505050505050565b600081610caf5760405162461bcd60e51b81526004016101c090611c38565b82610cbc57506000610a74565b670de0b6b3a764000083810290848281610cd257fe5b0414610cf05760405162461bcd60e51b81526004016101c090611bc2565b826001820381610cfc57fe5b04600101915050610a74565b6000828202831580610d22575082848281610d1f57fe5b04145b610d3e5760405162461bcd60e51b81526004016101c090611be8565b80610d4d576000915050610a74565b670de0b6b3a76400006000198201610cfc565b8154600090815b81811015610e5057836001600160a01b0316858281548110610d8557fe5b6000918252602090912001546001600160a01b03161415610e485760018203811015610e1357846001830381548110610dba57fe5b9060005260206000200160009054906101000a90046001600160a01b0316858281548110610de457fe5b9060005260206000200160006101000a8154816001600160a01b0302191690836001600160a01b031602179055505b84805480610e1d57fe5b600082815260209020810160001990810180546001600160a01b031916905501905560019250610e50565b600101610d67565b505092915050565b670de0b6b3a7640000026000806a0c097ce7bc90715b34b9f160241b808401906ec097ce7bc90715b34b9f0fffffffff1985010281610e9357fe5b05905060006a0c097ce7bc90715b34b9f160241b82800205905081806a0c097ce7bc90715b34b9f160241b81840205915060038205016a0c097ce7bc90715b34b9f160241b82840205915060058205016a0c097ce7bc90715b34b9f160241b82840205915060078205016a0c097ce7bc90715b34b9f160241b82840205915060098205016a0c097ce7bc90715b34b9f160241b828402059150600b8205016a0c097ce7bc90715b34b9f160241b828402059150600d8205016a0c097ce7bc90715b34b9f160241b828402059150600f826002919005919091010295945050505050565b6000670de0b6b3a7640000821215610fb257610fa8826a0c097ce7bc90715b34b9f160241b81610fa257fe5b05610f76565b6000039050610942565b60007e1600ef3172e58d2e933ec884fde10064c63b5372d805e203c0000000000000831261100357770195e54c5dd42177f53a27172fa9ec630262827000000000830592506806f05b59d3b2000000015b73011798004d755d3c8bc8e03204cf44619e000000831261103b576b1425982cf597cd205cef7380830592506803782dace9d9000000015b606492830292026e01855144814a7ff805980ff00840008312611083576e01855144814a7ff805980ff008400068056bc75e2d63100000840205925068ad78ebc5ac62000000015b6b02df0ab5a80a22c61ab5a70083126110be576b02df0ab5a80a22c61ab5a70068056bc75e2d6310000084020592506856bc75e2d631000000015b693f1fce3da636ea5cf85083126110f557693f1fce3da636ea5cf85068056bc75e2d631000008402059250682b5e3af16b18800000015b690127fa27722cc06cc5e2831261112c57690127fa27722cc06cc5e268056bc75e2d6310000084020592506815af1d78b58c400000015b68280e60114edb805d0383126111615768280e60114edb805d0368056bc75e2d631000008402059250680ad78ebc5ac6200000015b680ebc5fb41746121110831261118c57680ebc5fb4174612111068056bc75e2d631000009384020592015b6808f00f760a4b2db55d83126111c1576808f00f760a4b2db55d68056bc75e2d6310000084020592506802b5e3af16b1880000015b6806f5f177578893793783126111f6576806f5f177578893793768056bc75e2d63100000840205925068015af1d78b58c40000015b6806248f33704b286603831261122a576806248f33704b28660368056bc75e2d63100000840205925067ad78ebc5ac620000015b6805c548670b9510e7ac831261125e576805c548670b9510e7ac68056bc75e2d6310000084020592506756bc75e2d6310000015b600068056bc75e2d63100000840168056bc75e2d63100000808603028161128157fe5b059050600068056bc75e2d63100000828002059050818068056bc75e2d63100000818402059150600382050168056bc75e2d63100000828402059150600582050168056bc75e2d63100000828402059150600782050168056bc75e2d63100000828402059150600982050168056bc75e2d63100000828402059150600b820501600202606485820105979650505050505050565b6000680238fd42c5cf03ffff19821215801561133a575068070c1cc73b00c800008213155b6113565760405162461bcd60e51b81526004016101c090611c0e565b60008212156113895761136b82600003611315565b6a0c097ce7bc90715b34b9f160241b8161138157fe5b059050610942565b60006806f05b59d3b200000083126113c957506806f05b59d3b1ffffff1990910190770195e54c5dd42177f53a27172fa9ec6302628270000000006113ff565b6803782dace9d900000083126113fb57506803782dace9d8ffffff19909101906b1425982cf597cd205cef73806113ff565b5060015b6064929092029168056bc75e2d6310000068ad78ebc5ac62000000841261144f5768ad78ebc5ac61ffffff199093019268056bc75e2d631000006e01855144814a7ff805980ff008400082020590505b6856bc75e2d631000000841261148b576856bc75e2d630ffffff199093019268056bc75e2d631000006b02df0ab5a80a22c61ab5a70082020590505b682b5e3af16b1880000084126114c557682b5e3af16b187fffff199093019268056bc75e2d63100000693f1fce3da636ea5cf85082020590505b6815af1d78b58c40000084126114ff576815af1d78b58c3fffff199093019268056bc75e2d63100000690127fa27722cc06cc5e282020590505b680ad78ebc5ac6200000841261153857680ad78ebc5ac61fffff199093019268056bc75e2d6310000068280e60114edb805d0382020590505b68056bc75e2d6310000084126115715768056bc75e2d630fffff199093019268056bc75e2d63100000680ebc5fb4174612111082020590505b6802b5e3af16b188000084126115aa576802b5e3af16b187ffff199093019268056bc75e2d631000006808f00f760a4b2db55d82020590505b68015af1d78b58c4000084126115e35768015af1d78b58c3ffff199093019268056bc75e2d631000006806f5f177578893793782020590505b68056bc75e2d631000008481019085906002908280020505918201919050600368056bc75e2d631000008783020505918201919050600468056bc75e2d631000008783020505918201919050600568056bc75e2d631000008783020505918201919050600668056bc75e2d631000008783020505918201919050600768056bc75e2d631000008783020505918201919050600868056bc75e2d631000008783020505918201919050600968056bc75e2d631000008783020505918201919050600a68056bc75e2d631000008783020505918201919050600b68056bc75e2d631000008783020505918201919050600c68056bc75e2d631000008783020505918201919050606468056bc75e2d63100000848402058502059695505050505050565b8051610a7481611ca6565b600082601f83011261171f578081fd5b815161173261172d82611c86565b611c5f565b81815291506020808301908481018184028601820187101561175357600080fd5b60005b8481101561177257815184529282019290820190600101611756565b505050505092915050565b60006020828403121561178e578081fd5b813561179981611ca6565b9392505050565b6000602082840312156117b1578081fd5b815161179981611ca6565b600080604083850312156117ce578081fd5b82356117d981611ca6565b946020939093013593505050565b600080602083850312156117f9578182fd5b823567ffffffffffffffff80821115611810578384fd5b818501915085601f830112611823578384fd5b813581811115611831578485fd5b8660208083028501011115611844578485fd5b60209290920196919550909350505050565b60008060006060848603121561186a578081fd5b835167ffffffffffffffff80821115611881578283fd5b818601915086601f830112611894578283fd5b81516118a261172d82611c86565b80828252602080830192508086018b8283870289010111156118c2578788fd5b8796505b848710156118ec576118d88c82611704565b8452600196909601959281019281016118c6565b508901519097509350505080821115611903578283fd5b506119108682870161170f565b925050604084015190509250925092565b600060208284031215611932578081fd5b815167ffffffffffffffff811115611948578182fd5b6119548482850161170f565b949350505050565b60006020828403121561196d578081fd5b81518015158114611799578182fd5b60006020828403121561198d578081fd5b5051919050565b6000602082840312156119a5578081fd5b815160ff81168114611799578182fd5b6000815180845260208085019450808401835b838110156119ed5781516001600160a01b0316875295820195908201906001016119c8565b509495945050505050565b6001600160a01b0391909116815260200190565b6001600160a01b039384168152919092166020820152901515604082015260600190565b6001600160a01b0393841681526020810192909252909116604082015260600190565b60006020825261179960208301846119b5565b600060408252611a7960408301856119b5565b828103602084810191909152845180835285820192820190845b81811015611aaf57845183529383019391830191600101611a93565b5090979650505050505050565b901515815260200190565b90815260200190565b60208082526049908201527f6f6e6c7946756e644465706c6f7965724f776e65723a204f6e6c79207468652060408201527f46756e644465706c6f796572206f776e65722063616e2063616c6c207468697360608201526810333ab731ba34b7b760b91b608082015260a00190565b60208082526015908201527470726f64756374206f7574206f6620626f756e647360581b604082015260600190565b60208082526010908201526f5f79206f7574206f6620626f756e647360801b604082015260600190565b60208082526010908201526f5f78206f7574206f6620626f756e647360801b604082015260600190565b6020808252600c908201526b191a5d881a5b9d195c9b985b60a21b604082015260600190565b6020808252600c908201526b6d756c206f766572666c6f7760a01b604082015260600190565b60208082526010908201526f1a5b9d985b1a5908195e1c1bdb995b9d60821b604082015260600190565b6020808252600d908201526c3d32b937903234bb34b9b4b7b760991b604082015260600190565b60405181810167ffffffffffffffff81118282101715611c7e57600080fd5b604052919050565b600067ffffffffffffffff821115611c9c578081fd5b5060209081020190565b6001600160a01b0381168114611cbb57600080fd5b5056fea164736f6c634300060c000a","linkReferences":{}},"methodIdentifiers":{"addPoolFactories(address[])":"4c8f6529","calcUnderlyingValues(address,uint256)":"727212f6","getFundDeployer()":"97c0ac87","getOwner()":"893d20e8","getPoolFactories()":"27082f73","isSupportedAsset(address)":"9be918e6","removePoolFactories(address[])":"ec421ea0"},"id":236}