{"abi":[{"type":"constructor","inputs":[{"name":"_aaveDataProvider","type":"address","internalType":"address"},{"name":"_aaveLendingPoolAddressProvider","type":"address","internalType":"address"},{"name":"_aaveIncentivesController","type":"address","internalType":"address"}],"stateMutability":"nonpayable"},{"type":"function","name":"assetIsBorrowed","inputs":[{"name":"_asset","type":"address","internalType":"address"}],"outputs":[{"name":"isBorrowed_","type":"bool","internalType":"bool"}],"stateMutability":"view"},{"type":"function","name":"assetIsCollateral","inputs":[{"name":"_asset","type":"address","internalType":"address"}],"outputs":[{"name":"isCollateral_","type":"bool","internalType":"bool"}],"stateMutability":"view"},{"type":"function","name":"getDebtAssets","inputs":[],"outputs":[{"name":"assets_","type":"address[]","internalType":"address[]"},{"name":"amounts_","type":"uint256[]","internalType":"uint256[]"}],"stateMutability":"nonpayable"},{"type":"function","name":"getDebtTokenForBorrowedAsset","inputs":[{"name":"_borrowedAsset","type":"address","internalType":"address"}],"outputs":[{"name":"debtToken_","type":"address","internalType":"address"}],"stateMutability":"view"},{"type":"function","name":"getManagedAssets","inputs":[],"outputs":[{"name":"assets_","type":"address[]","internalType":"address[]"},{"name":"amounts_","type":"uint256[]","internalType":"uint256[]"}],"stateMutability":"nonpayable"},{"type":"function","name":"init","inputs":[{"name":"","type":"bytes","internalType":"bytes"}],"outputs":[],"stateMutability":"nonpayable"},{"type":"function","name":"receiveCallFromVault","inputs":[{"name":"_actionData","type":"bytes","internalType":"bytes"}],"outputs":[],"stateMutability":"nonpayable"},{"type":"event","name":"BorrowedAssetAdded","inputs":[{"name":"asset","type":"address","indexed":true,"internalType":"address"}],"anonymous":false},{"type":"event","name":"BorrowedAssetRemoved","inputs":[{"name":"asset","type":"address","indexed":true,"internalType":"address"}],"anonymous":false},{"type":"event","name":"CollateralAssetAdded","inputs":[{"name":"asset","type":"address","indexed":true,"internalType":"address"}],"anonymous":false},{"type":"event","name":"CollateralAssetRemoved","inputs":[{"name":"asset","type":"address","indexed":true,"internalType":"address"}],"anonymous":false}],"bytecode":{"object":"0x60e060405234801561001057600080fd5b50604051611ce7380380611ce78339818101604052606081101561003357600080fd5b50805160208201516040909201516001600160601b0319606092831b811660805292821b831660c052901b1660a05260805160601c60a05160601c60c05160601c611c4b61009c60003980610b605280610ec052508061129c525080610cf55250611c4b6000f3fe608060405234801561001057600080fd5b506004361061007d5760003560e01c806366b4c5d11161005b57806366b4c5d11461018857806380daddb8146101ca578063e5c23a971461026b578063ecd658b41461030f5761007d565b806344c72102146100825780634ddf47d4146100bc5780634eeb4a1614610162575b600080fd5b6100a86004803603602081101561009857600080fd5b50356001600160a01b0316610317565b604080519115158252519081900360200190f35b610160600480360360208110156100d257600080fd5b810190602081018135600160201b8111156100ec57600080fd5b8201836020820111156100fe57600080fd5b803590602001918460018302840111600160201b8311171561011f57600080fd5b91908080601f016020809104026020016040519081016040528093929190818152602001838380828437600092019190915250929550610334945050505050565b005b6100a86004803603602081101561017857600080fd5b50356001600160a01b0316610337565b6101ae6004803603602081101561019e57600080fd5b50356001600160a01b03166103ac565b604080516001600160a01b039092168252519081900360200190f35b6101d26103ca565b604051808060200180602001838103835285818151815260200191508051906020019060200280838360005b838110156102165781810151838201526020016101fe565b50505050905001838103825284818151815260200191508051906020019060200280838360005b8381101561025557818101518382015260200161023d565b5050505090500194505050505060405180910390f35b6101606004803603602081101561028157600080fd5b810190602081018135600160201b81111561029b57600080fd5b8201836020820111156102ad57600080fd5b803590602001918460018302840111600160201b831117156102ce57600080fd5b91908080601f016020809104026020016040519081016040528093929190818152602001838380828437600092019190915250929550610530945050505050565b6101d26106a8565b600080610323836103ac565b6001600160a01b0316141592915050565b50565b60006103a682600180548060200260200160405190810160405280929190818152602001828054801561039357602002820191906000526020600020905b81546001600160a01b03168152600190910190602001808311610375575b505050505061080e90919063ffffffff16565b92915050565b6001600160a01b039081166000908152600260205260409020541690565b606080600180548060200260200160405190810160405280929190818152602001828054801561042357602002820191906000526020600020905b81546001600160a01b03168152600190910190602001808311610405575b50506001549395505067ffffffffffffffff8311915050801561044557600080fd5b5060405190808252806020026020018201604052801561046f578160200160208202803683370190505b50905060005b825181101561052b5782818151811061048a57fe5b60200260200101516001600160a01b03166370a08231306040518263ffffffff1660e01b815260040180826001600160a01b0316815260200191505060206040518083038186803b1580156104de57600080fd5b505afa1580156104f2573d6000803e3d6000fd5b505050506040513d602081101561050857600080fd5b5051825183908390811061051857fe5b6020908102919091010152600101610475565b509091565b6000606082806020019051604081101561054957600080fd5b815160208301805160405192949293830192919084600160201b82111561056f57600080fd5b90830190602082018581111561058457600080fd5b8251600160201b81118282018810171561059d57600080fd5b82525081516020918201929091019080838360005b838110156105ca5781810151838201526020016105b2565b50505050905090810190601f1680156105f75780820380516001836020036101000a031916815260200191505b50604052505050915091506000600481111561060f57fe5b8214156106245761061f81610864565b6106a3565b60018214156106365761061f8161093b565b60028214156106485761061f81610b4c565b600382141561065a5761061f81610eac565b600482141561066c5761061f8161128d565b60405162461bcd60e51b8152600401808060200182810382526026815260200180611bb96026913960400191505060405180910390fd5b505050565b606080600080548060200260200160405190810160405280929190818152602001828054801561070157602002820191906000526020600020905b81546001600160a01b031681526001909101906020018083116106e3575b50505050509150815167ffffffffffffffff8111801561072057600080fd5b5060405190808252806020026020018201604052801561074a578160200160208202803683370190505b50905060005b825181101561052b5761077583828151811061076857fe5b60200260200101516103ac565b6001600160a01b03166370a08231306040518263ffffffff1660e01b815260040180826001600160a01b0316815260200191505060206040518083038186803b1580156107c157600080fd5b505afa1580156107d5573d6000803e3d6000fd5b505050506040513d60208110156107eb57600080fd5b505182518390839081106107fb57fe5b6020908102919091010152600101610750565b6000805b835181101561085a5783818151811061082757fe5b60200260200101516001600160a01b0316836001600160a01b031614156108525760019150506103a6565b600101610812565b5060009392505050565b606061086f82611375565b50905060005b81518110156106a35761089a82828151811061088d57fe5b6020026020010151610337565b6109335760018282815181106108ac57fe5b60209081029190910181015182546001810184556000938452919092200180546001600160a01b0319166001600160a01b0390921691909117905581518290829081106108f557fe5b60200260200101516001600160a01b03167f0c7515883121475b5d9289febf21a9de4ad53f18349a856d90c7acd6e099600b60405160405180910390a25b600101610875565b60608061094783611375565b9150915060005b8251811015610b465761096683828151811061088d57fe5b6109a15760405162461bcd60e51b8152600401808060200182810382526032815260200180611b346032913960400191505060405180910390fd5b60008382815181106109af57fe5b60200260200101516001600160a01b03166370a08231306040518263ffffffff1660e01b815260040180826001600160a01b0316815260200191505060206040518083038186803b158015610a0357600080fd5b505afa158015610a17573d6000803e3d6000fd5b505050506040513d6020811015610a2d57600080fd5b5051835190915060001990849084908110610a4457fe5b60200260200101511415610a6c5780838381518110610a5f57fe5b6020026020010181815250505b80838381518110610a7957fe5b60200260200101511415610af957610aae848381518110610a9657fe5b602002602001015160016114a690919063ffffffff16565b50838281518110610abb57fe5b60200260200101516001600160a01b03167f4336391ada1af9dcb966fed43ebafa4404719b6d8e42c765ab28e3abc9a24e7a60405160405180910390a25b610b3d33848481518110610b0957fe5b6020026020010151868581518110610b1d57fe5b60200260200101516001600160a01b031661159e9092919063ffffffff16565b5060010161094e565b50505050565b606080610b5883611375565b9150915060007f00000000000000000000000000000000000000000000000000000000000000006001600160a01b0316630261bf8b6040518163ffffffff1660e01b815260040160206040518083038186803b158015610bb757600080fd5b505afa158015610bcb573d6000803e3d6000fd5b505050506040513d6020811015610be157600080fd5b5051905060005b8351811015610ea557816001600160a01b031663a415bcad858381518110610c0c57fe5b6020026020010151858481518110610c2057fe5b60200260200101516002609e306040518663ffffffff1660e01b815260040180866001600160a01b031681526020018581526020018481526020018361ffff168152602001826001600160a01b0316815260200195505050505050600060405180830381600087803b158015610c9557600080fd5b505af1158015610ca9573d6000803e3d6000fd5b50505050610cd133848381518110610cbd57fe5b6020026020010151868481518110610b1d57fe5b610ced848281518110610ce057fe5b6020026020010151610317565b610e9d5760007f00000000000000000000000000000000000000000000000000000000000000006001600160a01b031663d2493b6c868481518110610d2e57fe5b60200260200101516040518263ffffffff1660e01b815260040180826001600160a01b0316815260200191505060606040518083038186803b158015610d7357600080fd5b505afa158015610d87573d6000803e3d6000fd5b505050506040513d6060811015610d9d57600080fd5b506040015185519091508190600290600090889086908110610dbb57fe5b60200260200101516001600160a01b03166001600160a01b0316815260200190815260200160002060006101000a8154816001600160a01b0302191690836001600160a01b031602179055506000858381518110610e1557fe5b60209081029190910181015182546001810184556000938452919092200180546001600160a01b0319166001600160a01b039092169190911790558451859083908110610e5e57fe5b60200260200101516001600160a01b03167f97f7fb70b87eb9080ffe33222b1b155c19088727253265871a270021c9b3ecad60405160405180910390a2505b600101610be8565b5050505050565b606080610eb883611375565b9150915060007f00000000000000000000000000000000000000000000000000000000000000006001600160a01b0316630261bf8b6040518163ffffffff1660e01b815260040160206040518083038186803b158015610f1757600080fd5b505afa158015610f2b573d6000803e3d6000fd5b505050506040513d6020811015610f4157600080fd5b5051905060005b8351811015610ea557610f60848281518110610ce057fe5b610f9b5760405162461bcd60e51b815260040180806020018281038252602d815260200180611b66602d913960400191505060405180910390fd5b610fcc848281518110610faa57fe5b602002602001015183858481518110610fbf57fe5b60200260200101516115f0565b816001600160a01b031663573ade81858381518110610fe757fe5b6020026020010151858481518110610ffb57fe5b60200260200101516002306040518563ffffffff1660e01b815260040180856001600160a01b03168152602001848152602001838152602001826001600160a01b03168152602001945050505050602060405180830381600087803b15801561106357600080fd5b505af1158015611077573d6000803e3d6000fd5b505050506040513d602081101561108d57600080fd5b505083516000908590839081106110a057fe5b60200260200101516001600160a01b03166370a08231306040518263ffffffff1660e01b815260040180826001600160a01b0316815260200191505060206040518083038186803b1580156110f457600080fd5b505afa158015611108573d6000803e3d6000fd5b505050506040513d602081101561111e57600080fd5b505190508015611139576111393382878581518110610b1d57fe5b61114885838151811061076857fe5b6001600160a01b03166370a08231306040518263ffffffff1660e01b815260040180826001600160a01b0316815260200191505060206040518083038186803b15801561119457600080fd5b505afa1580156111a8573d6000803e3d6000fd5b505050506040513d60208110156111be57600080fd5b505161128457600260008684815181106111d457fe5b60200260200101516001600160a01b03166001600160a01b0316815260200190815260200160002060006101000a8154906001600160a01b03021916905561123985838151811061122157fe5b602002602001015160006114a690919063ffffffff16565b5084828151811061124657fe5b60200260200101516001600160a01b03167fe826be1b7ceed778b8cb93dde171ee088cbddd7b16b9ebbe726a019988eb5fc060405160405180910390a25b50600101610f48565b6060611298826116a8565b90507f00000000000000000000000000000000000000000000000000000000000000006001600160a01b0316633111e7b382600019336040518463ffffffff1660e01b81526004018080602001848152602001836001600160a01b03168152602001828103825285818151815260200191508051906020019060200280838360005b8381101561133257818101518382015260200161131a565b50505050905001945050505050600060405180830381600087803b15801561135957600080fd5b505af115801561136d573d6000803e3d6000fd5b505050505050565b60608082806020019051604081101561138d57600080fd5b8101908080516040519392919084600160201b8211156113ac57600080fd5b9083019060208201858111156113c157600080fd5b82518660208202830111600160201b821117156113dd57600080fd5b82525081516020918201928201910280838360005b8381101561140a5781810151838201526020016113f2565b5050505090500160405260200180516040519392919084600160201b82111561143257600080fd5b90830190602082018581111561144757600080fd5b82518660208202830111600160201b8211171561146357600080fd5b82525081516020918201928201910280838360005b83811015611490578181015183820152602001611478565b5050505090500160405250505091509150915091565b8154600090815b8181101561159657836001600160a01b03168582815481106114cb57fe5b6000918252602090912001546001600160a01b0316141561158e57600182038110156115595784600183038154811061150057fe5b9060005260206000200160009054906101000a90046001600160a01b031685828154811061152a57fe5b9060005260206000200160006101000a8154816001600160a01b0302191690836001600160a01b031602179055505b8480548061156357fe5b600082815260209020810160001990810180546001600160a01b031916905501905560019250611596565b6001016114ad565b505092915050565b604080516001600160a01b038416602482015260448082018490528251808303909101815260649091019091526020810180516001600160e01b031663a9059cbb60e01b1790526106a3908490611750565b60408051636eb1769f60e11b81523060048201526001600160a01b038481166024830152915160009286169163dd62ed3e916044808301926020929190829003018186803b15801561164157600080fd5b505afa158015611655573d6000803e3d6000fd5b505050506040513d602081101561166b57600080fd5b5051905081811015610b46578015611692576116926001600160a01b038516846000611801565b610b466001600160a01b03851684600019611801565b60608180602001905160208110156116bf57600080fd5b8101908080516040519392919084600160201b8211156116de57600080fd5b9083019060208201858111156116f357600080fd5b82518660208202830111600160201b8211171561170f57600080fd5b82525081516020918201928201910280838360005b8381101561173c578181015183820152602001611724565b505050509050016040525050509050919050565b60606117a5826040518060400160405280602081526020017f5361666545524332303a206c6f772d6c6576656c2063616c6c206661696c6564815250856001600160a01b03166119149092919063ffffffff16565b8051909150156106a3578080602001905160208110156117c457600080fd5b50516106a35760405162461bcd60e51b815260040180806020018281038252602a815260200180611bdf602a913960400191505060405180910390fd5b801580611887575060408051636eb1769f60e11b81523060048201526001600160a01b03848116602483015291519185169163dd62ed3e91604480820192602092909190829003018186803b15801561185957600080fd5b505afa15801561186d573d6000803e3d6000fd5b505050506040513d602081101561188357600080fd5b5051155b6118c25760405162461bcd60e51b8152600401808060200182810382526036815260200180611c096036913960400191505060405180910390fd5b604080516001600160a01b038416602482015260448082018490528251808303909101815260649091019091526020810180516001600160e01b031663095ea7b360e01b1790526106a3908490611750565b6060611923848460008561192d565b90505b9392505050565b60608247101561196e5760405162461bcd60e51b8152600401808060200182810382526026815260200180611b936026913960400191505060405180910390fd5b61197785611a89565b6119c8576040805162461bcd60e51b815260206004820152601d60248201527f416464726573733a2063616c6c20746f206e6f6e2d636f6e7472616374000000604482015290519081900360640190fd5b60006060866001600160a01b031685876040518082805190602001908083835b60208310611a075780518252601f1990920191602091820191016119e8565b6001836020036101000a03801982511681845116808217855250505050505090500191505060006040518083038185875af1925050503d8060008114611a69576040519150601f19603f3d011682016040523d82523d6000602084013e611a6e565b606091505b5091509150611a7e828286611a8f565b979650505050505050565b3b151590565b60608315611a9e575081611926565b825115611aae5782518084602001fd5b8160405162461bcd60e51b81526004018080602001828103825283818151815260200191508051906020019080838360005b83811015611af8578181015183820152602001611ae0565b50505050905090810190601f168015611b255780820380516001836020036101000a031916815260200191505b509250505060405180910390fdfe5f5f72656d6f7665436f6c6c61746572616c4173736574733a20496e76616c696420636f6c6c61746572616c2061737365745f5f7265706179426f72726f7765644173736574733a20496e76616c696420626f72726f776564206173736574416464726573733a20696e73756666696369656e742062616c616e636520666f722063616c6c7265636569766543616c6c46726f6d5661756c743a20496e76616c696420616374696f6e49645361666545524332303a204552433230206f7065726174696f6e20646964206e6f7420737563636565645361666545524332303a20617070726f76652066726f6d206e6f6e2d7a65726f20746f206e6f6e2d7a65726f20616c6c6f77616e6365a164736f6c634300060c000a","linkReferences":{}},"methodIdentifiers":{"assetIsBorrowed(address)":"44c72102","assetIsCollateral(address)":"4eeb4a16","getDebtAssets()":"ecd658b4","getDebtTokenForBorrowedAsset(address)":"66b4c5d1","getManagedAssets()":"80daddb8","init(bytes)":"4ddf47d4","receiveCallFromVault(bytes)":"e5c23a97"},"id":143}