{"abi":[{"type":"constructor","inputs":[{"name":"_nonFungibleTokenManager","type":"address","internalType":"address"},{"name":"_valueInterpreter","type":"address","internalType":"address"}],"stateMutability":"nonpayable"},{"type":"function","name":"getDebtAssets","inputs":[],"outputs":[{"name":"assets_","type":"address[]","internalType":"address[]"},{"name":"amounts_","type":"uint256[]","internalType":"uint256[]"}],"stateMutability":"pure"},{"type":"function","name":"getManagedAssets","inputs":[],"outputs":[{"name":"assets_","type":"address[]","internalType":"address[]"},{"name":"amounts_","type":"uint256[]","internalType":"uint256[]"}],"stateMutability":"nonpayable"},{"type":"function","name":"getNftIds","inputs":[],"outputs":[{"name":"nftIds_","type":"uint256[]","internalType":"uint256[]"}],"stateMutability":"view"},{"type":"function","name":"getNonFungibleTokenManager","inputs":[],"outputs":[{"name":"nonFungibleTokenManager_","type":"address","internalType":"address"}],"stateMutability":"view"},{"type":"function","name":"getPairForNft","inputs":[{"name":"_nftId","type":"uint256","internalType":"uint256"}],"outputs":[{"name":"token0_","type":"address","internalType":"address"},{"name":"token1_","type":"address","internalType":"address"}],"stateMutability":"view"},{"type":"function","name":"getToken0ForNft","inputs":[{"name":"_nftId","type":"uint256","internalType":"uint256"}],"outputs":[{"name":"token0_","type":"address","internalType":"address"}],"stateMutability":"view"},{"type":"function","name":"getToken1ForNft","inputs":[{"name":"_nftId","type":"uint256","internalType":"uint256"}],"outputs":[{"name":"token1_","type":"address","internalType":"address"}],"stateMutability":"view"},{"type":"function","name":"getValueInterpreter","inputs":[],"outputs":[{"name":"valueInterpreter_","type":"address","internalType":"address"}],"stateMutability":"view"},{"type":"function","name":"init","inputs":[{"name":"","type":"bytes","internalType":"bytes"}],"outputs":[],"stateMutability":"nonpayable"},{"type":"function","name":"receiveCallFromVault","inputs":[{"name":"_actionData","type":"bytes","internalType":"bytes"}],"outputs":[],"stateMutability":"nonpayable"},{"type":"event","name":"NFTPositionAdded","inputs":[{"name":"tokenId","type":"uint256","indexed":true,"internalType":"uint256"}],"anonymous":false},{"type":"event","name":"NFTPositionRemoved","inputs":[{"name":"tokenId","type":"uint256","indexed":true,"internalType":"uint256"}],"anonymous":false}],"bytecode":{"object":"0x60c06040523480156200001157600080fd5b506040516200436f3803806200436f8339818101604052810190620000379190620000c4565b8173ffffffffffffffffffffffffffffffffffffffff1660808173ffffffffffffffffffffffffffffffffffffffff1660601b815250508073ffffffffffffffffffffffffffffffffffffffff1660a08173ffffffffffffffffffffffffffffffffffffffff1660601b81525050505062000153565b600081519050620000be8162000139565b92915050565b60008060408385031215620000d857600080fd5b6000620000e885828601620000ad565b9250506020620000fb85828601620000ad565b9150509250929050565b6000620001128262000119565b9050919050565b600073ffffffffffffffffffffffffffffffffffffffff82169050919050565b620001448162000105565b81146200015057600080fd5b50565b60805160601c60a05160601c6141ed6200018260003980610585528061076552508061024852506141ed6000f3fe608060405234801561001057600080fd5b506004361061009e5760003560e01c8063875fb4b311610066578063875fb4b31461014a578063e0d803ad14610168578063e5c23a9714610198578063ecd658b4146101b4578063eff2452a146101d35761009e565b80634ddf47d4146100a35780635f358573146100bf5780636904481a146100ef578063804ff1431461010d57806380daddb81461012b575b600080fd5b6100bd60048036038101906100b8919061363d565b610204565b005b6100d960048036038101906100d491906136cd565b610207565b6040516100e69190613d19565b60405180910390f35b6100f7610244565b6040516101049190613d19565b60405180910390f35b61011561026c565b6040516101229190613dcb565b60405180910390f35b6101336102c4565b604051610141929190613d94565b60405180910390f35b610152610761565b60405161015f9190613d19565b60405180910390f35b610182600480360381019061017d91906136cd565b610789565b60405161018f9190613d19565b60405180910390f35b6101b260048036038101906101ad919061363d565b6107c6565b005b6101bc610a5d565b6040516101ca929190613d94565b60405180910390f35b6101ed60048036038101906101e891906136cd565b610a63565b6040516101fb929190613d34565b60405180910390f35b50565b60006002600083815260200190815260200160002060009054906101000a900473ffffffffffffffffffffffffffffffffffffffff169050919050565b60007f0000000000000000000000000000000000000000000000000000000000000000905090565b606060008054806020026020016040519081016040528092919081815260200182805480156102ba57602002820191906000526020600020905b8154815260200190600101908083116102a6575b5050505050905090565b60608060006102d161026c565b90506000815114156102e3575061075d565b600281510267ffffffffffffffff811180156102fe57600080fd5b5060405190808252806020026020018201604052801561032d5781602001602082028036833780820191505090505b509250825167ffffffffffffffff8111801561034857600080fd5b506040519080825280602002602001820160405280156103775781602001602082028036833780820191505090505b5091506000815167ffffffffffffffff8111801561039457600080fd5b506040519080825280602002602001820160405280156103c35781602001602082028036833780820191505090505b50905060005b825181101561073c576000806103f18584815181106103e457fe5b6020026020010151610a63565b91509150600060028402905060006001820190508389838151811061041257fe5b602002602001019073ffffffffffffffffffffffffffffffffffffffff16908173ffffffffffffffffffffffffffffffffffffffff16815250508289828151811061045957fe5b602002602001019073ffffffffffffffffffffffffffffffffffffffff16908173ffffffffffffffffffffffffffffffffffffffff16815250506000805b86811015610561578a60028202815181106104ae57fe5b602002602001015173ffffffffffffffffffffffffffffffffffffffff168673ffffffffffffffffffffffffffffffffffffffff1614801561053457508a60016002830201815181106104fd57fe5b602002602001015173ffffffffffffffffffffffffffffffffffffffff168573ffffffffffffffffffffffffffffffffffffffff16145b156105545787818151811061054557fe5b60200260200101519150610561565b8080600101915050610497565b5060008173ffffffffffffffffffffffffffffffffffffffff1614156106d55760007f000000000000000000000000000000000000000000000000000000000000000073ffffffffffffffffffffffffffffffffffffffff16634c67e10686670de0b6b3a7640000896040518463ffffffff1660e01b81526004016105e893929190613d5d565b602060405180830381600087803b15801561060257600080fd5b505af1158015610616573d6000803e3d6000fd5b505050506040513d601f19601f8201168201806040525081019061063a91906136f6565b905061068a61068582610677670de0b6b3a76400007801000000000000000000000000000000000000000000000000610a8190919063ffffffff16565b610b0790919063ffffffff16565b610b90565b91508188888151811061069957fe5b602002602001019073ffffffffffffffffffffffffffffffffffffffff16908173ffffffffffffffffffffffffffffffffffffffff1681525050505b6106fa6106e0610244565b8988815181106106ec57fe5b602002602001015183610bf2565b8a858151811061070657fe5b602002602001018b858151811061071957fe5b6020026020010182815250828152505050505050505080806001019150506103c9565b5060018251111561075a576107518484610c2e565b80945081955050505b50505b9091565b60007f0000000000000000000000000000000000000000000000000000000000000000905090565b60006001600083815260200190815260200160002060009054906101000a900473ffffffffffffffffffffffffffffffffffffffff169050919050565b600080828060200190518101906107dd919061371f565b91509150600060048111156107ee57fe5b8214156108cd57600080600080600080600080600061080c8a610eeb565b9850985098509850985098509850985098506108bf6040518061016001604052808b73ffffffffffffffffffffffffffffffffffffffff1681526020018a73ffffffffffffffffffffffffffffffffffffffff1681526020018962ffffff1681526020018860020b81526020018760020b81526020018681526020018581526020018481526020018381526020013073ffffffffffffffffffffffffffffffffffffffff16815260200142815250610f8f565b505050505050505050610a58565b600160048111156108da57fe5b82141561093b5760008060008060006108f2866112f9565b945094509450945094506109316040518060c0016040528087815260200186815260200185815260200184815260200183815260200142815250611362565b5050505050610a57565b6002600481111561094857fe5b8214156109b05760008060008061095e856115a5565b93509350935093506109a76040518060a00160405280868152602001856fffffffffffffffffffffffffffffffff168152602001848152602001838152602001428152506115fe565b50505050610a56565b6004808111156109bc57fe5b8214156109ef576000806000806109d2856116a1565b93509350935093506109e6848484846116fa565b50505050610a55565b600360048111156109fc57fe5b821415610a1957610a14610a0f826119dd565b611a0c565b610a54565b6040517f08c379a0000000000000000000000000000000000000000000000000000000008152600401610a4b90613e0f565b60405180910390fd5b5b5b5b5b505050565b60608091565b600080610a6f83610789565b610a7884610207565b91509150915091565b600080831415610a945760009050610b01565b6000828402905082848281610aa557fe5b0414610afc576040517f08c379a00000000000000000000000000000000000000000000000000000000081526004018080602001828103825260218152602001806141606021913960400191505060405180910390fd5b809150505b92915050565b6000808211610b7e576040517f08c379a000000000000000000000000000000000000000000000000000000000815260040180806020018281038252601a8152602001807f536166654d6174683a206469766973696f6e206279207a65726f00000000000081525060200191505060405180910390fd5b818381610b8757fe5b04905092915050565b60006003821115610bdf578190506000600160028481610bac57fe5b040190505b81811015610bd957809150600281828581610bc857fe5b040181610bd157fe5b049050610bb1565b50610bed565b60008214610bec57600190505b5b919050565b600080600080610c03878787611afc565b91509150600080610c148989611c3a565b915091508184018184019550955050505050935093915050565b606080600084511415610c4057610ee4565b6000600190506000600190505b8551811015610cef576000805b82811015610cd257878181518110610c6e57fe5b602002602001015173ffffffffffffffffffffffffffffffffffffffff16888481518110610c9857fe5b602002602001015173ffffffffffffffffffffffffffffffffffffffff161415610cc55760019150610cd2565b8080600101915050610c5a565b5080610ce15782806001019350505b508080600101915050610c4d565b508067ffffffffffffffff81118015610d0757600080fd5b50604051908082528060200260200182016040528015610d365781602001602082028036833780820191505090505b5092508067ffffffffffffffff81118015610d5057600080fd5b50604051908082528060200260200182016040528015610d7f5781602001602082028036833780820191505090505b5091506000805b8651811015610ee0576000805b83811015610e3d57868181518110610da757fe5b602002602001015173ffffffffffffffffffffffffffffffffffffffff16898481518110610dd157fe5b602002602001015173ffffffffffffffffffffffffffffffffffffffff161415610e305760019150878381518110610e0557fe5b6020026020010151868281518110610e1957fe5b602002602001018181510191508181525050610e3d565b8080600101915050610d93565b5080610ed257878281518110610e4f57fe5b6020026020010151868481518110610e6357fe5b602002602001019073ffffffffffffffffffffffffffffffffffffffff16908173ffffffffffffffffffffffffffffffffffffffff1681525050868281518110610ea957fe5b6020026020010151858481518110610ebd57fe5b60200260200101818152505082806001019350505b508080600101915050610d86565b5050505b9250929050565b600080600080600080600080600089806020019051610120811015610f0f57600080fd5b810190808051906020019092919080519060200190929190805190602001909291908051906020019092919080519060200190929190805190602001909291908051906020019092919080519060200190929190805190602001909291905050509850985098509850985098509850985098509193959799909294969850565b610fa98160000151610f9f610244565b8360a00151611e2f565b610fc38160200151610fb9610244565b8360c00151611e2f565b6000806000610fd0610244565b73ffffffffffffffffffffffffffffffffffffffff166388316456856040518263ffffffff1660e01b81526004016110089190613e80565b608060405180830381600087803b15801561102257600080fd5b505af1158015611036573d6000803e3d6000fd5b505050506040513d601f19601f8201168201806040525081019061105a9190613773565b93509350509250600083908060018154018082558091505060019003906000526020600020016000909190919091505583600001516001600085815260200190815260200160002060006101000a81548173ffffffffffffffffffffffffffffffffffffffff021916908373ffffffffffffffffffffffffffffffffffffffff16021790555083602001516002600085815260200190815260200160002060006101000a81548173ffffffffffffffffffffffffffffffffffffffff021916908373ffffffffffffffffffffffffffffffffffffffff1602179055508360a001518210156111fe576111fd33856000015173ffffffffffffffffffffffffffffffffffffffff166370a08231306040518263ffffffff1660e01b81526004016111839190613d19565b60206040518083038186803b15801561119b57600080fd5b505afa1580156111af573d6000803e3d6000fd5b505050506040513d601f19601f820116820180604052508101906111d391906136f6565b866000015173ffffffffffffffffffffffffffffffffffffffff16611f4e9092919063ffffffff16565b5b8360c001518110156112c6576112c533856020015173ffffffffffffffffffffffffffffffffffffffff166370a08231306040518263ffffffff1660e01b815260040161124b9190613d19565b60206040518083038186803b15801561126357600080fd5b505afa158015611277573d6000803e3d6000fd5b505050506040513d601f19601f8201168201806040525081019061129b91906136f6565b866020015173ffffffffffffffffffffffffffffffffffffffff16611f4e9092919063ffffffff16565b5b827fa831009a1dec500e6875fc241cfbe036162eb78da63101cbd7bfa24eaef48b3a60405160405180910390a250505050565b60008060008060008580602001905160a081101561131657600080fd5b8101908080519060200190929190805190602001909291908051906020019092919080519060200190929190805190602001909291905050509450945094509450945091939590929450565b60008061136d610244565b73ffffffffffffffffffffffffffffffffffffffff1663219f5d17846040518263ffffffff1660e01b81526004016113a59190613e65565b606060405180830381600087803b1580156113bf57600080fd5b505af11580156113d3573d6000803e3d6000fd5b505050506040513d601f19601f820116820180604052508101906113f7919061367e565b925092505082602001518210156114ce5760006114178460000151610789565b90506114cc338273ffffffffffffffffffffffffffffffffffffffff166370a08231306040518263ffffffff1660e01b81526004016114569190613d19565b60206040518083038186803b15801561146e57600080fd5b505afa158015611482573d6000803e3d6000fd5b505050506040513d601f19601f820116820180604052508101906114a691906136f6565b8373ffffffffffffffffffffffffffffffffffffffff16611f4e9092919063ffffffff16565b505b82604001518110156115a05760006114e98460000151610207565b905061159e338273ffffffffffffffffffffffffffffffffffffffff166370a08231306040518263ffffffff1660e01b81526004016115289190613d19565b60206040518083038186803b15801561154057600080fd5b505afa158015611554573d6000803e3d6000fd5b505050506040513d601f19601f8201168201806040525081019061157891906136f6565b8373ffffffffffffffffffffffffffffffffffffffff16611f4e9092919063ffffffff16565b505b505050565b6000806000808480602001905160808110156115c057600080fd5b810190808051906020019092919080519060200190929190805190602001909291908051906020019092919050505093509350935093509193509193565b611606610244565b73ffffffffffffffffffffffffffffffffffffffff16630c49ccbe826040518263ffffffff1660e01b815260040161163e9190613e4a565b6040805180830381600087803b15801561165757600080fd5b505af115801561166b573d6000803e3d6000fd5b505050506040513d601f19601f8201168201806040525081019061168f91906137d6565b505061169e8160000151611a0c565b50565b6000806000808480602001905160808110156116bc57600080fd5b810190808051906020019092919080519060200190929190805190602001909291908051906020019092919050505093509350935093509193509193565b6fffffffffffffffffffffffffffffffff8016836fffffffffffffffffffffffffffffffff1614156117325761172f84611ff0565b92505b6000836fffffffffffffffffffffffffffffffff16111561181957611755610244565b73ffffffffffffffffffffffffffffffffffffffff16630c49ccbe6040518060a00160405280878152602001866fffffffffffffffffffffffffffffffff168152602001858152602001848152602001428152506040518263ffffffff1660e01b81526004016117c59190613e4a565b6040805180830381600087803b1580156117de57600080fd5b505af11580156117f2573d6000803e3d6000fd5b505050506040513d601f19601f8201168201806040525081019061181691906137d6565b50505b61182284611a0c565b61182a610244565b73ffffffffffffffffffffffffffffffffffffffff166342966c68856040518263ffffffff1660e01b81526004016118629190613e9c565b600060405180830381600087803b15801561187c57600080fd5b505af1158015611890573d6000803e3d6000fd5b5050505060008080549050905060005b8181101561193c5785600082815481106118b657fe5b9060005260206000200154141561192f576001820381101561190957600060018303815481106118e257fe5b9060005260206000200154600082815481106118fa57fe5b90600052602060002001819055505b600080548061191457fe5b6001900381819060005260206000200160009055905561193c565b80806001019150506118a0565b506001600086815260200190815260200160002060006101000a81549073ffffffffffffffffffffffffffffffffffffffff02191690556002600086815260200190815260200160002060006101000a81549073ffffffffffffffffffffffffffffffffffffffff0219169055847fb308fd4e2abaef716bcb96e9c382d61e5917345fd816de0d20278a23fbe109c760405160405180910390a25050505050565b60008180602001905160208110156119f457600080fd5b81019080805190602001909291905050509050919050565b611a14610244565b73ffffffffffffffffffffffffffffffffffffffff1663fc6f786560405180608001604052808481526020013373ffffffffffffffffffffffffffffffffffffffff1681526020016fffffffffffffffffffffffffffffffff801681526020016fffffffffffffffffffffffffffffffff80168152506040518263ffffffff1660e01b8152600401611aa69190613e2f565b6040805180830381600087803b158015611abf57600080fd5b505af1158015611ad3573d6000803e3d6000fd5b505050506040513d601f19601f82011682018060405250810190611af791906137d6565b505050565b60008060008060008773ffffffffffffffffffffffffffffffffffffffff166399fbab88886040518263ffffffff1660e01b8152600401808281526020019150506101806040518083038186803b158015611b5657600080fd5b505afa158015611b6a573d6000803e3d6000fd5b505050506040513d610180811015611b8157600080fd5b81019080805190602001909291908051906020019092919080519060200190929190805190602001909291908051906020019092919080519060200190929190805190602001909291908051906020019092919080519060200190929190805190602001909291908051906020019092919080519060200190929190505050505050509750975097505050505050611c2b86611c1c85612161565b611c2585612161565b8461259c565b94509450505050935093915050565b6000806000806000806000806000806000808d73ffffffffffffffffffffffffffffffffffffffff166399fbab888e6040518263ffffffff1660e01b8152600401808281526020019150506101806040518083038186803b158015611c9e57600080fd5b505afa158015611cb2573d6000803e3d6000fd5b505050506040513d610180811015611cc957600080fd5b810190808051906020019092919080519060200190929190805190602001909291908051906020019092919080519060200190929190805190602001909291908051906020019092919080519060200190929190805190602001909291908051906020019092919080519060200190929190805190602001909291905050506fffffffffffffffffffffffffffffffff169b506fffffffffffffffffffffffffffffffff169b509b509b509b509b509b509b509b509b505050611e1a8e6040518061014001604052808d73ffffffffffffffffffffffffffffffffffffffff1681526020018c73ffffffffffffffffffffffffffffffffffffffff1681526020018b62ffffff1681526020018a60020b81526020018960020b8152602001886fffffffffffffffffffffffffffffffff1681526020018781526020018681526020018581526020018481525061268e565b9b509b50505050505050505050509250929050565b60008373ffffffffffffffffffffffffffffffffffffffff1663dd62ed3e30856040518363ffffffff1660e01b8152600401611e6c929190613d34565b60206040518083038186803b158015611e8457600080fd5b505afa158015611e98573d6000803e3d6000fd5b505050506040513d601f19601f82011682018060405250810190611ebc91906136f6565b905081811015611f48576000811115611efc57611efb8360008673ffffffffffffffffffffffffffffffffffffffff166128169092919063ffffffff16565b5b611f47837fffffffffffffffffffffffffffffffffffffffffffffffffffffffffffffffff8673ffffffffffffffffffffffffffffffffffffffff166128169092919063ffffffff16565b5b50505050565b611feb8363a9059cbb60e01b8484604051602401808373ffffffffffffffffffffffffffffffffffffffff16815260200182815260200192505050604051602081830303815290604052907bffffffffffffffffffffffffffffffffffffffffffffffffffffffff19166020820180517bffffffffffffffffffffffffffffffffffffffffffffffffffffffff83818316178352505050506129db565b505050565b6000806000611ffd610244565b73ffffffffffffffffffffffffffffffffffffffff166399fbab8860e01b8560405160240161202c9190613e9c565b604051602081830303815290604052907bffffffffffffffffffffffffffffffffffffffffffffffffffffffff19166020820180517bffffffffffffffffffffffffffffffffffffffffffffffffffffffff83818316178352505050506040516120969190613d02565b600060405180830381855afa9150503d80600081146120d1576040519150601f19603f3d011682016040523d82523d6000602084013e6120d6565b606091505b509150915081819061211e576040517f08c379a00000000000000000000000000000000000000000000000000000000081526004016121159190613ded565b60405180910390fd5b50808060200190518101906121339190613812565b9091929394959650909192939495509091929394509091929350909192509091509050809350505050919050565b60008060008360020b12612178578260020b612180565b8260020b6000035b90507ffffffffffffffffffffffffffffffffffffffffffffffffffffffffffff2761860000360020b81111561221e576040517f08c379a00000000000000000000000000000000000000000000000000000000081526004018080602001828103825260018152602001807f540000000000000000000000000000000000000000000000000000000000000081525060200191505060405180910390fd5b60008060018316141561224257700100000000000000000000000000000000612254565b6ffffcb933bd6fad37aa2d162d1a5940015b70ffffffffffffffffffffffffffffffffff1690506000600283161461228e5760806ffff97272373d413259a46990580e213a8202901c90505b600060048316146122b35760806ffff2e50f5f656932ef12357cf3c7fdcc8202901c90505b600060088316146122d85760806fffe5caca7e10e4e61c3624eaa0941cd08202901c90505b600060108316146122fd5760806fffcb9843d60f6159c9db58835c9266448202901c90505b600060208316146123225760806fff973b41fa98c081472e6896dfb254c08202901c90505b600060408316146123475760806fff2ea16466c96a3843ec78b326b528618202901c90505b6000608083161461236c5760806ffe5dee046a99a2a811c461f1969c30538202901c90505b60006101008316146123925760806ffcbe86c7900a88aedcffc83b479aa3a48202901c90505b60006102008316146123b85760806ff987a7253ac413176f2b074cf7815e548202901c90505b60006104008316146123de5760806ff3392b0822b70005940c7a398e4b70f38202901c90505b60006108008316146124045760806fe7159475a2c29b7443b29c7fa6e889d98202901c90505b600061100083161461242a5760806fd097f3bdfd2022b8845ad8f792aa58258202901c90505b60006120008316146124505760806fa9f746462d870fdf8a65dc1f90e061e58202901c90505b60006140008316146124765760806f70d869a156d2a1b890bb3df62baf32f78202901c90505b600061800083161461249c5760806f31be135f97d08fd981231505542fcfa68202901c90505b6000620100008316146124c35760806f09aa508b5b7a84e1c677de54f3e99bc98202901c90505b6000620200008316146124e95760806e5d6af8dedb81196699c329225ee6048202901c90505b60006204000083161461250e5760806d2216e584f5fa1ea926041bedfe988202901c90505b6000620800008316146125315760806b048a170391f7dc42444e8fa28202901c90505b60008460020b131561256a57807fffffffffffffffffffffffffffffffffffffffffffffffffffffffffffffffff8161256657fe5b0490505b6000640100000000828161257a57fe5b061461258757600161258a565b60005b60ff16602082901c0192505050919050565b6000808373ffffffffffffffffffffffffffffffffffffffff168573ffffffffffffffffffffffffffffffffffffffff1611156125de57838580955081965050505b8473ffffffffffffffffffffffffffffffffffffffff168673ffffffffffffffffffffffffffffffffffffffff16116126235761261c858585612aca565b9150612685565b8373ffffffffffffffffffffffffffffffffffffffff168673ffffffffffffffffffffffffffffffffffffffff16101561267657612662868585612aca565b915061266f858785612b85565b9050612684565b612681858585612b85565b90505b5b94509492505050565b6000806000806127876127788773ffffffffffffffffffffffffffffffffffffffff1663c45a01556040518163ffffffff1660e01b815260040160206040518083038186803b1580156126e057600080fd5b505afa1580156126f4573d6000803e3d6000fd5b505050506040513d602081101561270a57600080fd5b81019080805190602001909291905050506040518060600160405280896000015173ffffffffffffffffffffffffffffffffffffffff168152602001896020015173ffffffffffffffffffffffffffffffffffffffff168152602001896040015162ffffff16815250612c11565b86606001518760800151612d6c565b915091508461010001516127c98660c0015184038760a001516fffffffffffffffffffffffffffffffff16700100000000000000000000000000000000613161565b01935084610120015161280a8660e0015183038760a001516fffffffffffffffffffffffffffffffff16700100000000000000000000000000000000613161565b01925050509250929050565b60008114806128e4575060008373ffffffffffffffffffffffffffffffffffffffff1663dd62ed3e30856040518363ffffffff1660e01b8152600401808373ffffffffffffffffffffffffffffffffffffffff1681526020018273ffffffffffffffffffffffffffffffffffffffff1681526020019250505060206040518083038186803b1580156128a757600080fd5b505afa1580156128bb573d6000803e3d6000fd5b505050506040513d60208110156128d157600080fd5b8101908080519060200190929190505050145b612939576040517f08c379a00000000000000000000000000000000000000000000000000000000081526004018080602001828103825260368152602001806141ab6036913960400191505060405180910390fd5b6129d68363095ea7b360e01b8484604051602401808373ffffffffffffffffffffffffffffffffffffffff16815260200182815260200192505050604051602081830303815290604052907bffffffffffffffffffffffffffffffffffffffffffffffffffffffff19166020820180517bffffffffffffffffffffffffffffffffffffffffffffffffffffffff83818316178352505050506129db565b505050565b6000612a3d826040518060400160405280602081526020017f5361666545524332303a206c6f772d6c6576656c2063616c6c206661696c65648152508573ffffffffffffffffffffffffffffffffffffffff1661323b9092919063ffffffff16565b9050600081511115612ac557808060200190516020811015612a5e57600080fd5b8101908080519060200190929190505050612ac4576040517f08c379a000000000000000000000000000000000000000000000000000000000815260040180806020018281038252602a815260200180614181602a913960400191505060405180910390fd5b5b505050565b60008273ffffffffffffffffffffffffffffffffffffffff168473ffffffffffffffffffffffffffffffffffffffff161115612b0b57828480945081955050505b8373ffffffffffffffffffffffffffffffffffffffff16612b74606060ff16846fffffffffffffffffffffffffffffffff16901b86860373ffffffffffffffffffffffffffffffffffffffff168673ffffffffffffffffffffffffffffffffffffffff16613161565b81612b7b57fe5b0490509392505050565b60008273ffffffffffffffffffffffffffffffffffffffff168473ffffffffffffffffffffffffffffffffffffffff161115612bc657828480945081955050505b612c08826fffffffffffffffffffffffffffffffff1685850373ffffffffffffffffffffffffffffffffffffffff166c01000000000000000000000000613161565b90509392505050565b6000816020015173ffffffffffffffffffffffffffffffffffffffff16826000015173ffffffffffffffffffffffffffffffffffffffff1610612c5357600080fd5b82826000015183602001518460400151604051602001808473ffffffffffffffffffffffffffffffffffffffff1681526020018373ffffffffffffffffffffffffffffffffffffffff1681526020018262ffffff1681526020019350505050604051602081830303815290604052805190602001207fe34f199b19b2b4f47f68442619d555527d244f78a3297ea89325f843f87b8b5460001b60405160200180807fff000000000000000000000000000000000000000000000000000000000000008152506001018473ffffffffffffffffffffffffffffffffffffffff1660601b815260140183815260200182815260200193505050506040516020818303038152906040528051906020012060001c905092915050565b60008060008573ffffffffffffffffffffffffffffffffffffffff16633850c7bd6040518163ffffffff1660e01b815260040160e06040518083038186803b158015612db757600080fd5b505afa158015612dcb573d6000803e3d6000fd5b505050506040513d60e0811015612de157600080fd5b810190808051906020019092919080519060200190929190805190602001909291908051906020019092919080519060200190929190805190602001909291908051906020019092919050505050505050509150506000808773ffffffffffffffffffffffffffffffffffffffff1663f30dba93886040518263ffffffff1660e01b8152600401808260020b81526020019150506101006040518083038186803b158015612e8e57600080fd5b505afa158015612ea2573d6000803e3d6000fd5b505050506040513d610100811015612eb957600080fd5b810190808051906020019092919080519060200190929190805190602001909291908051906020019092919080519060200190929190805190602001909291908051906020019092919080519060200190929190505050505050509350935050506000808973ffffffffffffffffffffffffffffffffffffffff1663f30dba93896040518263ffffffff1660e01b8152600401808260020b81526020019150506101006040518083038186803b158015612f7257600080fd5b505afa158015612f86573d6000803e3d6000fd5b505050506040513d610100811015612f9d57600080fd5b810190808051906020019092919080519060200190929190805190602001909291908051906020019092919080519060200190929190805190602001909291908051906020019092919080519060200190929190505050505050509350935050508860020b8560020b121561301b5781840396508083039550613154565b8760020b8560020b12156131485760008a73ffffffffffffffffffffffffffffffffffffffff1663f30583996040518163ffffffff1660e01b815260040160206040518083038186803b15801561307157600080fd5b505afa158015613085573d6000803e3d6000fd5b505050506040513d602081101561309b57600080fd5b8101908080519060200190929190505050905060008b73ffffffffffffffffffffffffffffffffffffffff1663461413196040518163ffffffff1660e01b815260040160206040518083038186803b1580156130f657600080fd5b505afa15801561310a573d6000803e3d6000fd5b505050506040513d602081101561312057600080fd5b8101908080519060200190929190505050905083868303039850828582030397505050613153565b838203965082810395505b5b5050505050935093915050565b60008060008019858709858702925082811083820303915050600081141561319c576000841161319057600080fd5b83820492505050613234565b8084116131a857600080fd5b600084868809905082811182039150808303925060008586600003169050808604955080840493506001818260000304019050808302841793506000600287600302189050808702600203810290508087026002038102905080870260020381029050808702600203810290508087026002038102905080870260020381029050808502955050505050505b9392505050565b606061324a8484600085613253565b90509392505050565b6060824710156132ae576040517f08c379a000000000000000000000000000000000000000000000000000000000815260040180806020018281038252602681526020018061413a6026913960400191505060405180910390fd5b6132b7856133fb565b613329576040517f08c379a000000000000000000000000000000000000000000000000000000000815260040180806020018281038252601d8152602001807f416464726573733a2063616c6c20746f206e6f6e2d636f6e747261637400000081525060200191505060405180910390fd5b6000808673ffffffffffffffffffffffffffffffffffffffff1685876040518082805190602001908083835b602083106133785780518252602082019150602081019050602083039250613355565b6001836020036101000a03801982511681845116808217855250505050505090500191505060006040518083038185875af1925050503d80600081146133da576040519150601f19603f3d011682016040523d82523d6000602084013e6133df565b606091505b50915091506133ef82828661340e565b92505050949350505050565b600080823b905060008111915050919050565b6060831561341e578290506134d3565b6000835111156134315782518084602001fd5b816040517f08c379a00000000000000000000000000000000000000000000000000000000081526004018080602001828103825283818151815260200191508051906020019080838360005b8381101561349857808201518184015260208101905061347d565b50505050905090810190601f1680156134c55780820380516001836020036101000a031916815260200191505b509250505060405180910390fd5b9392505050565b60006134ed6134e884613ee8565b613eb7565b90508281526020810184848401111561350557600080fd5b61351084828561405a565b509392505050565b600061352b61352684613ee8565b613eb7565b90508281526020810184848401111561354357600080fd5b61354e848285614069565b509392505050565b600081519050613565816140af565b92915050565b600082601f83011261357c57600080fd5b813561358c8482602086016134da565b91505092915050565b600082601f8301126135a657600080fd5b81516135b6848260208601613518565b91505092915050565b6000815190506135ce816140c6565b92915050565b6000815190506135e3816140dd565b92915050565b6000815190506135f8816140f4565b92915050565b60008135905061360d8161410b565b92915050565b6000815190506136228161410b565b92915050565b60008151905061363781614122565b92915050565b60006020828403121561364f57600080fd5b600082013567ffffffffffffffff81111561366957600080fd5b6136758482850161356b565b91505092915050565b60008060006060848603121561369357600080fd5b60006136a1868287016135d4565b93505060206136b286828701613613565b92505060406136c386828701613613565b9150509250925092565b6000602082840312156136df57600080fd5b60006136ed848285016135fe565b91505092915050565b60006020828403121561370857600080fd5b600061371684828501613613565b91505092915050565b6000806040838503121561373257600080fd5b600061374085828601613613565b925050602083015167ffffffffffffffff81111561375d57600080fd5b61376985828601613595565b9150509250929050565b6000806000806080858703121561378957600080fd5b600061379787828801613613565b94505060206137a8878288016135d4565b93505060406137b987828801613613565b92505060606137ca87828801613613565b91505092959194509250565b600080604083850312156137e957600080fd5b60006137f785828601613613565b925050602061380885828601613613565b9150509250929050565b600080600080600080600080610100898b03121561382f57600080fd5b600061383d8b828c01613628565b985050602061384e8b828c01613556565b975050604061385f8b828c01613556565b96505060606138708b828c01613556565b95505060806138818b828c016135e9565b94505060a06138928b828c016135bf565b93505060c06138a38b828c016135bf565b92505060e06138b48b828c016135d4565b9150509295985092959890939650565b60006138d083836138f4565b60208301905092915050565b60006138e88383613ce4565b60208301905092915050565b6138fd81613fbc565b82525050565b61390c81613fbc565b82525050565b600061391d82613f38565b6139278185613f7e565b935061393283613f18565b8060005b8381101561396357815161394a88826138c4565b975061395583613f64565b925050600181019050613936565b5085935050505092915050565b600061397b82613f43565b6139858185613f8f565b935061399083613f28565b8060005b838110156139c15781516139a888826138dc565b97506139b383613f71565b925050600181019050613994565b5085935050505092915050565b60006139d982613f4e565b6139e38185613fa0565b93506139f3818560208601614069565b80840191505092915050565b613a0881613fe0565b82525050565b6000613a1982613f59565b613a238185613fab565b9350613a33818560208601614069565b613a3c8161409e565b840191505092915050565b6000613a54602683613fab565b91507f7265636569766543616c6c46726f6d5661756c743a20496e76616c696420616360008301527f74696f6e496400000000000000000000000000000000000000000000000000006020830152604082019050919050565b608082016000820151613ac36000850182613ce4565b506020820151613ad660208501826138f4565b506040820151613ae96040850182613cc6565b506060820151613afc6060850182613cc6565b50505050565b60a082016000820151613b186000850182613ce4565b506020820151613b2b6020850182613cc6565b506040820151613b3e6040850182613ce4565b506060820151613b516060850182613ce4565b506080820151613b646080850182613ce4565b50505050565b60c082016000820151613b806000850182613ce4565b506020820151613b936020850182613ce4565b506040820151613ba66040850182613ce4565b506060820151613bb96060850182613ce4565b506080820151613bcc6080850182613ce4565b5060a0820151613bdf60a0850182613ce4565b50505050565b61016082016000820151613bfc60008501826138f4565b506020820151613c0f60208501826138f4565b506040820151613c226040850182613cd5565b506060820151613c3560608501826139ff565b506080820151613c4860808501826139ff565b5060a0820151613c5b60a0850182613ce4565b5060c0820151613c6e60c0850182613ce4565b5060e0820151613c8160e0850182613ce4565b50610100820151613c96610100850182613ce4565b50610120820151613cab6101208501826138f4565b50610140820151613cc0610140850182613ce4565b50505050565b613ccf81613fed565b82525050565b613cde81614029565b82525050565b613ced81614038565b82525050565b613cfc81614038565b82525050565b6000613d0e82846139ce565b915081905092915050565b6000602082019050613d2e6000830184613903565b92915050565b6000604082019050613d496000830185613903565b613d566020830184613903565b9392505050565b6000606082019050613d726000830186613903565b613d7f6020830185613cf3565b613d8c6040830184613903565b949350505050565b60006040820190508181036000830152613dae8185613912565b90508181036020830152613dc28184613970565b90509392505050565b60006020820190508181036000830152613de58184613970565b905092915050565b60006020820190508181036000830152613e078184613a0e565b905092915050565b60006020820190508181036000830152613e2881613a47565b9050919050565b6000608082019050613e446000830184613aad565b92915050565b600060a082019050613e5f6000830184613b02565b92915050565b600060c082019050613e7a6000830184613b6a565b92915050565b600061016082019050613e966000830184613be5565b92915050565b6000602082019050613eb16000830184613cf3565b92915050565b6000604051905081810181811067ffffffffffffffff82111715613ede57613edd61409c565b5b8060405250919050565b600067ffffffffffffffff821115613f0357613f0261409c565b5b601f19601f8301169050602081019050919050565b6000819050602082019050919050565b6000819050602082019050919050565b600081519050919050565b600081519050919050565b600081519050919050565b600081519050919050565b6000602082019050919050565b6000602082019050919050565b600082825260208201905092915050565b600082825260208201905092915050565b600081905092915050565b600082825260208201905092915050565b6000613fc782614009565b9050919050565b6000613fd982614009565b9050919050565b60008160020b9050919050565b60006fffffffffffffffffffffffffffffffff82169050919050565b600073ffffffffffffffffffffffffffffffffffffffff82169050919050565b600062ffffff82169050919050565b6000819050919050565b60006bffffffffffffffffffffffff82169050919050565b82818337600083830152505050565b60005b8381101561408757808201518184015260208101905061406c565b83811115614096576000848401525b50505050565bfe5b6000601f19601f8301169050919050565b6140b881613fce565b81146140c357600080fd5b50565b6140cf81613fe0565b81146140da57600080fd5b50565b6140e681613fed565b81146140f157600080fd5b50565b6140fd81614029565b811461410857600080fd5b50565b61411481614038565b811461411f57600080fd5b50565b61412b81614042565b811461413657600080fd5b5056fe416464726573733a20696e73756666696369656e742062616c616e636520666f722063616c6c536166654d6174683a206d756c7469706c69636174696f6e206f766572666c6f775361666545524332303a204552433230206f7065726174696f6e20646964206e6f7420737563636565645361666545524332303a20617070726f76652066726f6d206e6f6e2d7a65726f20746f206e6f6e2d7a65726f20616c6c6f77616e6365a164736f6c6343000706000a","linkReferences":{}},"methodIdentifiers":{"getDebtAssets()":"ecd658b4","getManagedAssets()":"80daddb8","getNftIds()":"804ff143","getNonFungibleTokenManager()":"6904481a","getPairForNft(uint256)":"eff2452a","getToken0ForNft(uint256)":"e0d803ad","getToken1ForNft(uint256)":"5f358573","getValueInterpreter()":"875fb4b3","init(bytes)":"4ddf47d4","receiveCallFromVault(bytes)":"e5c23a97"},"id":9}