{"abi":[{"type":"function","name":"deployEth","inputs":[{"name":"_erc4626Address","type":"address","internalType":"address"}],"outputs":[],"stateMutability":"nonpayable"},{"type":"function","name":"deployEthWithQuote","inputs":[{"name":"_erc4626Address","type":"address","internalType":"address"},{"name":"_quoteConversionAggregatorAddress","type":"address","internalType":"address"}],"outputs":[],"stateMutability":"nonpayable"},{"type":"function","name":"deployEthWithQuoteInverse","inputs":[{"name":"_erc4626Address","type":"address","internalType":"address"},{"name":"_quoteConversionAggregatorAddress","type":"address","internalType":"address"}],"outputs":[],"stateMutability":"nonpayable"},{"type":"function","name":"deployUsd","inputs":[{"name":"_erc4626Address","type":"address","internalType":"address"}],"outputs":[],"stateMutability":"nonpayable"},{"type":"function","name":"deployUsdWithQuote","inputs":[{"name":"_erc4626Address","type":"address","internalType":"address"},{"name":"_quoteConversionAggregatorAddress","type":"address","internalType":"address"}],"outputs":[],"stateMutability":"nonpayable"},{"type":"function","name":"deployUsdWithQuoteInverse","inputs":[{"name":"_erc4626Address","type":"address","internalType":"address"},{"name":"_quoteConversionAggregatorAddress","type":"address","internalType":"address"}],"outputs":[],"stateMutability":"nonpayable"},{"type":"function","name":"deployVerbose","inputs":[{"name":"_thisAggregatorDecimals","type":"uint8","internalType":"uint8"},{"name":"_quoteConversionAggregatorAddress","type":"address","internalType":"address"},{"name":"_quoteConversionAggregatorInverted","type":"bool","internalType":"bool"},{"name":"_erc4626Address","type":"address","internalType":"address"}],"outputs":[],"stateMutability":"nonpayable"},{"type":"event","name":"InstanceDeployed","inputs":[{"name":"instanceAddress","type":"address","indexed":false,"internalType":"address"}],"anonymous":false}],"bytecode":{"object":"0x608060405234801561001057600080fd5b506110c5806100206000396000f3fe60806040523480156200001157600080fd5b5060043610620000875760003560e01c8063847dd5a81162000062578063847dd5a814620000d35780638bebb7e914620000ea578063a5b14b4e1462000101578063e0e8e849146200011857600080fd5b80631bf14b7c146200008c5780633257ae6e14620000a55780637303464014620000bc575b600080fd5b620000a36200009d36600462000259565b6200012f565b005b620000a3620000b636600462000259565b62000143565b620000a3620000cd3660046200029c565b62000153565b620000a3620000e436600462000259565b62000166565b620000a3620000fb36600462000259565b62000176565b620000a362000112366004620002f6565b62000181565b620000a3620001293660046200029c565b62000204565b6200013f60128260008562000181565b5050565b6200013f60088260018562000181565b6200016360086000808462000181565b50565b6200013f60088260008562000181565b6200013f6012826001855b600084848484604051620001959062000214565b620001a4949392919062000383565b604051809103906000f080158015620001c1573d6000803e3d6000fd5b5090507f117c72e6c25f0a072e36e148df71468ce2f3dbe7defec5b2c257a6e3eb65278c81604051620001f59190620003c9565b60405180910390a15050505050565b6200016360126000808462000181565b610ceb80620003da83390190565b60006001600160a01b0382165b92915050565b620002408162000222565b81146200016357600080fd5b80356200022f8162000235565b60008060408385031215620002715762000271600080fd5b60006200027f85856200024c565b925050602062000292858286016200024c565b9150509250929050565b600060208284031215620002b357620002b3600080fd5b6000620002c184846200024c565b949350505050565b60ff811662000240565b80356200022f81620002c9565b80151562000240565b80356200022f81620002e0565b60008060008060808587031215620003115762000311600080fd5b60006200031f8787620002d3565b945050602062000332878288016200024c565b93505060406200034587828801620002e9565b925050606062000358878288016200024c565b91505092959194509250565b60ff81165b82525050565b620003698162000222565b80151562000369565b6080810162000393828762000364565b620003a260208301866200036f565b620003b160408301856200037a565b620003c060608301846200036f565b95945050505050565b602081016200022f82846200036f56fe6101806040523480156200001257600080fd5b5060405162000ceb38038062000ceb8339810160408190526200003591620002d1565b60ff84166080528383836200004c83600a62000486565b60e0526001600160a01b03821660a081905281151560c052620000715760006200007c565b6200007c82620001f6565b610100525050506001600160a01b038116610120819052604080516338d52e0f60e01b81529051600092916338d52e0f9160048083019260209291908290030181865afa158015620000d2573d6000803e3d6000fd5b505050506040513d601f19601f82011682018060405250810190620000f891906200049d565b9050806001600160a01b031663313ce5676040518163ffffffff1660e01b8152600401602060405180830381865afa15801562000139573d6000803e3d6000fd5b505050506040513d601f19601f820116820180604052508101906200015f9190620004ca565b6200016c90600a62000486565b6101408181525050816001600160a01b031663313ce5676040518163ffffffff1660e01b8152600401602060405180830381865afa158015620001b3573d6000803e3d6000fd5b505050506040513d601f19601f82011682018060405250810190620001d99190620004ca565b620001e690600a62000486565b6101605250620004ef9350505050565b6000816001600160a01b031663313ce5676040518163ffffffff1660e01b8152600401602060405180830381865afa15801562000237573d6000803e3d6000fd5b505050506040513d601f19601f820116820180604052508101906200025d9190620004ca565b6200026a90600a62000486565b92915050565b60ff81165b81146200028157600080fd5b50565b80516200026a8162000270565b60006001600160a01b0382166200026a565b620002758162000291565b80516200026a81620002a3565b80151562000275565b80516200026a81620002bb565b60008060008060808587031215620002ec57620002ec600080fd5b6000620002fa878762000284565b94505060206200030d87828801620002ae565b93505060406200032087828801620002c4565b92505060606200033387828801620002ae565b91505092959194509250565b634e487b7160e01b600052601160045260246000fd5b80825b60018511156200039b578086048111156200037757620003776200033f565b60018516156200038657908102905b8002620003938560011c90565b945062000358565b94509492505050565b600082620003b5575060016200047f565b81620003c4575060006200047f565b8160018114620003dd5760028114620003e8576200041c565b60019150506200047f565b60ff841115620003fc57620003fc6200033f565b8360020a9150848211156200041557620004156200033f565b506200047f565b5060208310610133831016604e8410600b841016171562000454575081810a838111156200044e576200044e6200033f565b6200047f565b62000463848484600162000355565b925090508184048111156200047c576200047c6200033f565b81025b9392505050565b600060ff831692506200047f6000198484620003a4565b600060208284031215620004b457620004b4600080fd5b6000620004c28484620002ae565b949350505050565b600060208284031215620004e157620004e1600080fd5b6000620004c2848462000284565b60805160a05160c05160e0516101005161012051610140516101605161076e6200057d60003960006101e70152600061026601526000818161016901526101b80152600081816103360152610380015260006103c70152600081816087015261030c01526000818161010f015281816102ab01526102e001526000818160db0152610140015261076e6000f3fe608060405234801561001057600080fd5b506004361061007d5760003560e01c80632faa3a091161005b5780632faa3a091461010a578063313ce5671461013e57806366c4c2dd14610164578063feaf968c1461019857600080fd5b80630918d214146100825780631f68f20a146100bf5780632e0f2625146100d6575b600080fd5b6100a97f000000000000000000000000000000000000000000000000000000000000000081565b6040516100b69190610522565b60405180910390f35b6100c76101b1565b6040516100b693929190610536565b6100fd7f000000000000000000000000000000000000000000000000000000000000000081565b6040516100b6919061056f565b6101317f000000000000000000000000000000000000000000000000000000000000000081565b6040516100b69190610597565b7f00000000000000000000000000000000000000000000000000000000000000006100fd565b61018b7f000000000000000000000000000000000000000000000000000000000000000081565b6040516100b691906105c4565b6101a061028e565b6040516100b69594939291906105e4565b60008060007f00000000000000000000000000000000000000000000000000000000000000006001600160a01b03166307a2d13a7f00000000000000000000000000000000000000000000000000000000000000006040518263ffffffff1660e01b81526004016102229190610630565b602060405180830381865afa15801561023f573d6000803e3d6000fd5b505050506040513d601f19601f820116820180604052508101906102639190610659565b937f000000000000000000000000000000000000000000000000000000000000000093504292509050565b6000806000806000806000806102a26101b1565b919450925090507f00000000000000000000000000000000000000000000000000000000000000006001600160a01b0316156103c0576000806103047f0000000000000000000000000000000000000000000000000000000000000000610400565b9150915060007f00000000000000000000000000000000000000000000000000000000000000001561037d57610367837f00000000000000000000000000000000000000000000000000000000000000006b033b2e3c9fd0803ce80000006104a4565b92506b033b2e3c9fd0803ce800000090506103a0565b507f00000000000000000000000000000000000000000000000000000000000000005b6103ab8686856104c5565b95508094506103ba84836104d2565b93505050505b6103eb83837f00000000000000000000000000000000000000000000000000000000000000006104e7565b60009990985089975090955086945092505050565b6000806000836001600160a01b031663feaf968c6040518163ffffffff1660e01b815260040160a060405180830381865afa158015610443573d6000803e3d6000fd5b505050506040513d601f19601f820116820180604052508101906104679190610697565b5094509092505050600081121561049c5780604051630d6f078960e31b81526004016104939190610630565b60405180910390fd5b939092509050565b6000836104b18484610725565b6104bb919061075a565b90505b9392505050565b6000826104b18386610725565b60006104de8383610502565b90505b92915050565b60008183036104f75750826104be565b826104b18386610725565b600081831061051157816104de565b5090919050565b8015155b82525050565b602081016104e18284610518565b8061051c565b606081016105448286610530565b6105516020830185610530565b61055e6040830184610530565b949350505050565b60ff811661051c565b602081016104e18284610566565b60006001600160a01b0382166104e1565b61051c8161057d565b602081016104e1828461058e565b60006104e18261057d565b60006104e1826105a5565b61051c816105b0565b602081016104e182846105bb565b69ffffffffffffffffffff811661051c565b60a081016105f282886105d2565b6105ff6020830187610530565b61060c6040830186610530565b6106196060830185610530565b61062660808301846105d2565b9695505050505050565b602081016104e18284610530565b805b811461064b57600080fd5b50565b80516104e18161063e565b60006020828403121561066e5761066e600080fd5b600061055e848461064e565b69ffffffffffffffffffff8116610640565b80516104e18161067a565b600080600080600060a086880312156106b2576106b2600080fd5b60006106be888861068c565b95505060206106cf8882890161064e565b94505060406106e08882890161064e565b93505060606106f18882890161064e565b92505060806107028882890161068c565b9150509295509295909350565b634e487b7160e01b600052601160045260246000fd5b81810280821583820485141761073d5761073d61070f565b5092915050565b634e487b7160e01b600052601260045260246000fd5b60008261076957610769610744565b50049056","linkReferences":{}},"methodIdentifiers":{"deployEth(address)":"e0e8e849","deployEthWithQuote(address,address)":"1bf14b7c","deployEthWithQuoteInverse(address,address)":"8bebb7e9","deployUsd(address)":"73034640","deployUsdWithQuote(address,address)":"847dd5a8","deployUsdWithQuoteInverse(address,address)":"3257ae6e","deployVerbose(uint8,address,bool,address)":"a5b14b4e"},"id":214}