{"abi":[{"type":"constructor","inputs":[{"name":"_integrationManager","type":"address","internalType":"address"}],"stateMutability":"nonpayable"},{"type":"function","name":"getIntegrationManager","inputs":[],"outputs":[{"name":"integrationManager_","type":"address","internalType":"address"}],"stateMutability":"view"},{"type":"function","name":"lend","inputs":[{"name":"_vaultProxy","type":"address","internalType":"address"},{"name":"","type":"bytes","internalType":"bytes"},{"name":"_assetData","type":"bytes","internalType":"bytes"}],"outputs":[],"stateMutability":"nonpayable"},{"type":"function","name":"parseAssetsForAction","inputs":[{"name":"","type":"address","internalType":"address"},{"name":"_selector","type":"bytes4","internalType":"bytes4"},{"name":"_actionData","type":"bytes","internalType":"bytes"}],"outputs":[{"name":"spendAssetsHandleType_","type":"uint8","internalType":"enum IIntegrationManager.SpendAssetsHandleType"},{"name":"spendAssets_","type":"address[]","internalType":"address[]"},{"name":"spendAssetAmounts_","type":"uint256[]","internalType":"uint256[]"},{"name":"incomingAssets_","type":"address[]","internalType":"address[]"},{"name":"minIncomingAssetAmounts_","type":"uint256[]","internalType":"uint256[]"}],"stateMutability":"view"},{"type":"function","name":"redeem","inputs":[{"name":"_vaultProxy","type":"address","internalType":"address"},{"name":"","type":"bytes","internalType":"bytes"},{"name":"_assetData","type":"bytes","internalType":"bytes"}],"outputs":[],"stateMutability":"nonpayable"}],"bytecode":{"object":"0x60a060405234801561001057600080fd5b506040516111e33803806111e383398101604081905261002f91610040565b6001600160a01b0316608052610070565b60006020828403121561005257600080fd5b81516001600160a01b038116811461006957600080fd5b9392505050565b60805161115961008a600039600060b301526111596000f3fe608060405234801561001057600080fd5b506004361061004c5760003560e01c8063099f751514610051578063c29fa9dd14610066578063c54efee514610079578063e7c45690146100a6575b600080fd5b61006461005f366004610c98565b6100dd565b005b610064610074366004610c98565b610242565b61008c610087366004610d1b565b610354565b60405161009d959493929190610e01565b60405180910390f35b6040516001600160a01b037f000000000000000000000000000000000000000000000000000000000000000016815260200161009d565b600080600061012185858080601f0160208091040260200160405190810160405280939291908181526020018383808284376000920191909152506107b192505050565b9250925092506101808360008151811061013d5761013d610e7e565b60200260200101518260008151811061015857610158610e7e565b60200260200101518460008151811061017357610173610e7e565b60200260200101516107d7565b8060008151811061019357610193610e7e565b60200260200101516001600160a01b0316636e553f65836000815181106101bc576101bc610e7e565b60200260200101518a6040518363ffffffff1660e01b81526004016101f49291909182526001600160a01b0316602082015260400190565b6020604051808303816000875af1158015610213573d6000803e3d6000fd5b505050506040513d601f19601f820116820180604052508101906102379190610e94565b505050505050505050565b60008061028484848080601f0160208091040260200160405190810160405280939291908181526020018383808284376000920191909152506107b192505050565b50915091508160008151811061029c5761029c610e7e565b60200260200101516001600160a01b031663ba087652826000815181106102c5576102c5610e7e565b6020026020010151898a6040518463ffffffff1660e01b8152600401610307939291909283526001600160a01b03918216602084015216604082015260600190565b6020604051808303816000875af1158015610326573d6000803e3d6000fd5b505050506040513d601f19601f8201168201806040525081019061034a9190610e94565b5050505050505050565b6000606080808063f6608aeb60e01b6001600160e01b031989160161055257604080516001808252818301909252906020808301908036833750506040805160018082528183019092529296509050602080830190803683375050604080516001808252818301909252929550905060208083019080368337505060408051600180825281830190925292945090506020808301908036833701905050905060008060006104378a8a8080601f01602080910402602001604051908101604052809392919081815260200183838082843760009201919091525061088c92505050565b925092509250826001600160a01b03166338d52e0f6040518163ffffffff1660e01b8152600401602060405180830381865afa15801561047b573d6000803e3d6000fd5b505050506040513d601f19601f8201168201806040525081019061049f9190610ec3565b876000815181106104b2576104b2610e7e565b60200260200101906001600160a01b031690816001600160a01b03168152505081866000815181106104e6576104e6610e7e565b602002602001018181525050828560008151811061050657610506610e7e565b60200260200101906001600160a01b031690816001600160a01b031681525050808460008151811061053a5761053a610e7e565b602002602001018181525050600297505050506107a6565b633d60562360e01b6001600160e01b0319891601610749576040805160018082528183019092529060208083019080368337505060408051600180825281830190925292965090506020808301908036833750506040805160018082528183019092529295509050602080830190803683375050604080516001808252818301909252929450905060208083019080368337019050509050600080600061062e8a8a8080601f01602080910402602001604051908101604052809392919081815260200183838082843760009201919091525061088c92505050565b925092509250828760008151811061064857610648610e7e565b60200260200101906001600160a01b031690816001600160a01b031681525050818660008151811061067c5761067c610e7e565b602002602001018181525050826001600160a01b03166338d52e0f6040518163ffffffff1660e01b8152600401602060405180830381865afa1580156106c6573d6000803e3d6000fd5b505050506040513d601f19601f820116820180604052508101906106ea9190610ec3565b856000815181106106fd576106fd610e7e565b60200260200101906001600160a01b031690816001600160a01b031681525050808460008151811061073157610731610e7e565b602002602001018181525050600197505050506107a6565b60405162461bcd60e51b815260206004820152602760248201527f7061727365417373657473466f72416374696f6e3a205f73656c6563746f72206044820152661a5b9d985b1a5960ca1b60648201526084015b60405180910390fd5b945094509450945094565b6060806060838060200190518101906107ca9190610fb0565b9250925092509193909250565b604051636eb1769f60e11b81523060048201526001600160a01b0383811660248301526000919085169063dd62ed3e90604401602060405180830381865afa158015610827573d6000803e3d6000fd5b505050506040513d601f19601f8201168201806040525081019061084b9190610e94565b905081811015610886578015610870576108706001600160a01b0385168460006108a5565b6108866001600160a01b038516846000196108a5565b50505050565b6000806000838060200190518101906107ca919061108d565b6108b08383836108b5565b505050565b80158061092f5750604051636eb1769f60e11b81523060048201526001600160a01b03838116602483015284169063dd62ed3e90604401602060405180830381865afa158015610909573d6000803e3d6000fd5b505050506040513d601f19601f8201168201806040525081019061092d9190610e94565b155b61099a5760405162461bcd60e51b815260206004820152603660248201527f5361666545524332303a20617070726f76652066726f6d206e6f6e2d7a65726f60448201527520746f206e6f6e2d7a65726f20616c6c6f77616e636560501b606482015260840161079d565b604080516001600160a01b03848116602483015260448083018590528351808403909101815260649092018352602080830180516001600160e01b031663095ea7b360e01b17905283518085019094528084527f5361666545524332303a206c6f772d6c6576656c2063616c6c206661696c6564908401526108b092869291600091610a2a918516908490610aa7565b8051909150156108b05780806020019051810190610a4891906110c4565b6108b05760405162461bcd60e51b815260206004820152602a60248201527f5361666545524332303a204552433230206f7065726174696f6e20646964206e6044820152691bdd081cdd58d8d9595960b21b606482015260840161079d565b6060610ab68484600085610abe565b949350505050565b606082471015610b1f5760405162461bcd60e51b815260206004820152602660248201527f416464726573733a20696e73756666696369656e742062616c616e636520666f6044820152651c8818d85b1b60d21b606482015260840161079d565b600080866001600160a01b03168587604051610b3b919061110a565b60006040518083038185875af1925050503d8060008114610b78576040519150601f19603f3d011682016040523d82523d6000602084013e610b7d565b606091505b5091509150610b8e87838387610b99565b979650505050505050565b60608315610c08578251600003610c01576001600160a01b0385163b610c015760405162461bcd60e51b815260206004820152601d60248201527f416464726573733a2063616c6c20746f206e6f6e2d636f6e7472616374000000604482015260640161079d565b5081610ab6565b610ab68383815115610c1d5781518083602001fd5b8060405162461bcd60e51b815260040161079d9190611126565b6001600160a01b0381168114610c4c57600080fd5b50565b60008083601f840112610c6157600080fd5b50813567ffffffffffffffff811115610c7957600080fd5b602083019150836020828501011115610c9157600080fd5b9250929050565b600080600080600060608688031215610cb057600080fd5b8535610cbb81610c37565b9450602086013567ffffffffffffffff80821115610cd857600080fd5b610ce489838a01610c4f565b90965094506040880135915080821115610cfd57600080fd5b50610d0a88828901610c4f565b969995985093965092949392505050565b60008060008060608587031215610d3157600080fd5b8435610d3c81610c37565b935060208501356001600160e01b031981168114610d5957600080fd5b9250604085013567ffffffffffffffff811115610d7557600080fd5b610d8187828801610c4f565b95989497509550505050565b600081518084526020808501945080840160005b83811015610dc65781516001600160a01b031687529582019590820190600101610da1565b509495945050505050565b600081518084526020808501945080840160005b83811015610dc657815187529582019590820190600101610de5565b600060038710610e2157634e487b7160e01b600052602160045260246000fd5b86825260a06020830152610e3860a0830187610d8d565b8281036040840152610e4a8187610dd1565b90508281036060840152610e5e8186610d8d565b90508281036080840152610e728185610dd1565b98975050505050505050565b634e487b7160e01b600052603260045260246000fd5b600060208284031215610ea657600080fd5b5051919050565b634e487b7160e01b600052604160045260246000fd5b600060208284031215610ed557600080fd5b8151610ee081610c37565b9392505050565b604051601f8201601f1916810167ffffffffffffffff81118282101715610f1057610f10610ead565b604052919050565b600067ffffffffffffffff821115610f3257610f32610ead565b5060051b60200190565b600082601f830112610f4d57600080fd5b81516020610f62610f5d83610f18565b610ee7565b82815260059290921b84018101918181019086841115610f8157600080fd5b8286015b84811015610fa5578051610f9881610c37565b8352918301918301610f85565b509695505050505050565b600080600060608486031215610fc557600080fd5b835167ffffffffffffffff80821115610fdd57600080fd5b610fe987838801610f3c565b945060209150818601518181111561100057600080fd5b8601601f8101881361101157600080fd5b805161101f610f5d82610f18565b81815260059190911b8201840190848101908a83111561103e57600080fd5b928501925b8284101561105c57835182529285019290850190611043565b60408a015190975094505050508082111561107657600080fd5b5061108386828701610f3c565b9150509250925092565b6000806000606084860312156110a257600080fd5b83516110ad81610c37565b602085015160409095015190969495509392505050565b6000602082840312156110d657600080fd5b81518015158114610ee057600080fd5b60005b838110156111015781810151838201526020016110e9565b50506000910152565b6000825161111c8184602087016110e6565b9190910192915050565b60208152600082518060208401526111458160408501602087016110e6565b601f01601f1916919091016040019291505056","linkReferences":{}},"methodIdentifiers":{"getIntegrationManager()":"e7c45690","lend(address,bytes,bytes)":"099f7515","parseAssetsForAction(address,bytes4,bytes)":"c54efee5","redeem(address,bytes,bytes)":"c29fa9dd"},"id":147}