{"abi":[{"type":"constructor","inputs":[{"name":"_integrationManager","type":"address","internalType":"address"}],"stateMutability":"nonpayable"},{"type":"function","name":"getIntegrationManager","inputs":[],"outputs":[{"name":"integrationManager_","type":"address","internalType":"address"}],"stateMutability":"view"},{"type":"function","name":"lend","inputs":[{"name":"_vaultProxy","type":"address","internalType":"address"},{"name":"","type":"bytes","internalType":"bytes"},{"name":"_assetData","type":"bytes","internalType":"bytes"}],"outputs":[],"stateMutability":"nonpayable"},{"type":"function","name":"parseAssetsForAction","inputs":[{"name":"","type":"address","internalType":"address"},{"name":"_selector","type":"bytes4","internalType":"bytes4"},{"name":"_actionData","type":"bytes","internalType":"bytes"}],"outputs":[{"name":"spendAssetsHandleType_","type":"uint8","internalType":"enum IIntegrationManager.SpendAssetsHandleType"},{"name":"spendAssets_","type":"address[]","internalType":"address[]"},{"name":"spendAssetAmounts_","type":"uint256[]","internalType":"uint256[]"},{"name":"incomingAssets_","type":"address[]","internalType":"address[]"},{"name":"minIncomingAssetAmounts_","type":"uint256[]","internalType":"uint256[]"}],"stateMutability":"view"},{"type":"function","name":"redeem","inputs":[{"name":"_vaultProxy","type":"address","internalType":"address"},{"name":"","type":"bytes","internalType":"bytes"},{"name":"_assetData","type":"bytes","internalType":"bytes"}],"outputs":[],"stateMutability":"nonpayable"}],"bytecode":{"object":"0x60a06040523480156200001157600080fd5b506040516200146338038062001463833981016040819052620000349162000080565b6001600160a01b0316608052620000ad565b60006001600160a01b0382165b92915050565b620000648162000046565b81146200007057600080fd5b50565b8051620000538162000059565b600060208284031215620000975762000097600080fd5b6000620000a5848462000073565b949350505050565b60805161139b620000c8600039600060a8015261139b6000f3fe608060405234801561001057600080fd5b506004361061004c5760003560e01c8063099f751514610051578063c29fa9dd14610066578063c54efee514610079578063e7c45690146100a6575b600080fd5b61006461005f366004610b63565b6100d4565b005b610064610074366004610b63565b610227565b61008c610087366004610c0e565b61031f565b60405161009d959493929190610d81565b60405180910390f35b7f000000000000000000000000000000000000000000000000000000000000000060405161009d9190610de8565b600080600061011885858080601f01602080910402602001604051908101604052809392919081815260200183838082843760009201919091525061074092505050565b9250925092506101778360008151811061013457610134610df6565b60200260200101518260008151811061014f5761014f610df6565b60200260200101518460008151811061016a5761016a610df6565b6020026020010151610766565b8060008151811061018a5761018a610df6565b60200260200101516001600160a01b0316636e553f65836000815181106101b3576101b3610df6565b60200260200101518a6040518363ffffffff1660e01b81526004016101d9929190610e0c565b6020604051808303816000875af11580156101f8573d6000803e3d6000fd5b505050506040513d601f19601f8201168201806040525081019061021c9190610e38565b505050505050505050565b60008061026984848080601f01602080910402602001604051908101604052809392919081815260200183838082843760009201919091525061074092505050565b50915091508160008151811061028157610281610df6565b60200260200101516001600160a01b031663ba087652826000815181106102aa576102aa610df6565b6020026020010151898a6040518463ffffffff1660e01b81526004016102d293929190610e59565b6020604051808303816000875af11580156102f1573d6000803e3d6000fd5b505050506040513d601f19601f820116820180604052508101906103159190610e38565b5050505050505050565b6000606080808063f6608aeb60e01b6001600160e01b031989160161051d57604080516001808252818301909252906020808301908036833750506040805160018082528183019092529296509050602080830190803683375050604080516001808252818301909252929550905060208083019080368337505060408051600180825281830190925292945090506020808301908036833701905050905060008060006104028a8a8080601f01602080910402602001604051908101604052809392919081815260200183838082843760009201919091525061081992505050565b925092509250826001600160a01b03166338d52e0f6040518163ffffffff1660e01b8152600401602060405180830381865afa158015610446573d6000803e3d6000fd5b505050506040513d601f19601f8201168201806040525081019061046a9190610ea2565b8760008151811061047d5761047d610df6565b60200260200101906001600160a01b031690816001600160a01b03168152505081866000815181106104b1576104b1610df6565b60200260200101818152505082856000815181106104d1576104d1610df6565b60200260200101906001600160a01b031690816001600160a01b031681525050808460008151811061050557610505610df6565b60200260200101818152505060029750505050610735565b633d60562360e01b6001600160e01b031989160161071457604080516001808252818301909252906020808301908036833750506040805160018082528183019092529296509050602080830190803683375050604080516001808252818301909252929550905060208083019080368337505060408051600180825281830190925292945090506020808301908036833701905050905060008060006105f98a8a8080601f01602080910402602001604051908101604052809392919081815260200183838082843760009201919091525061081992505050565b925092509250828760008151811061061357610613610df6565b60200260200101906001600160a01b031690816001600160a01b031681525050818660008151811061064757610647610df6565b602002602001018181525050826001600160a01b03166338d52e0f6040518163ffffffff1660e01b8152600401602060405180830381865afa158015610691573d6000803e3d6000fd5b505050506040513d601f19601f820116820180604052508101906106b59190610ea2565b856000815181106106c8576106c8610df6565b60200260200101906001600160a01b031690816001600160a01b03168152505080846000815181106106fc576106fc610df6565b60200260200101818152505060019750505050610735565b60405162461bcd60e51b815260040161072c90610f0a565b60405180910390fd5b945094509450945094565b606080606083806020019051810190610759919061107b565b9250925092509193909250565b604051636eb1769f60e11b81526000906001600160a01b0385169063dd62ed3e90610797903090879060040161111b565b602060405180830381865afa1580156107b4573d6000803e3d6000fd5b505050506040513d601f19601f820116820180604052508101906107d89190610e38565b9050818110156108135780156107fd576107fd6001600160a01b038516846000610832565b6108136001600160a01b03851684600019610832565b50505050565b6000806000838060200190518101906107599190611129565b61083d838383610842565b505050565b8015806108bb5750604051636eb1769f60e11b81526001600160a01b0384169063dd62ed3e90610878903090869060040161111b565b602060405180830381865afa158015610895573d6000803e3d6000fd5b505050506040513d601f19601f820116820180604052508101906108b99190610e38565b155b6108d75760405162461bcd60e51b815260040161072c906111c2565b61083d8363095ea7b360e01b84846040516024016108f69291906111d2565b60408051601f198184030181529190526020810180516001600160e01b03166001600160e01b031990931692909217909152600061097d826040518060400160405280602081526020017f5361666545524332303a206c6f772d6c6576656c2063616c6c206661696c6564815250856001600160a01b03166109b79092919063ffffffff16565b80519091501561083d578080602001905181019061099b9190611200565b61083d5760405162461bcd60e51b815260040161072c90611268565b60606109c684846000856109d0565b90505b9392505050565b6060824710156109f25760405162461bcd60e51b815260040161072c906112bb565b600080866001600160a01b03168587604051610a0e9190611311565b60006040518083038185875af1925050503d8060008114610a4b576040519150601f19603f3d011682016040523d82523d6000602084013e610a50565b606091505b5091509150610a6187838387610a6e565b925050505b949350505050565b60608315610aad578251600003610aa6576001600160a01b0385163b610aa65760405162461bcd60e51b815260040161072c9061131d565b5081610a66565b610a668383815115610ac25781518083602001fd5b8060405162461bcd60e51b815260040161072c919061138a565b60006001600160a01b0382165b92915050565b610af881610adc565b8114610b0357600080fd5b50565b8035610ae981610aef565b60008083601f840112610b2657610b26600080fd5b50813567ffffffffffffffff811115610b4157610b41600080fd5b602083019150836001820283011115610b5c57610b5c600080fd5b9250929050565b600080600080600060608688031215610b7e57610b7e600080fd5b6000610b8a8888610b06565b955050602086013567ffffffffffffffff811115610baa57610baa600080fd5b610bb688828901610b11565b9450945050604086013567ffffffffffffffff811115610bd857610bd8600080fd5b610be488828901610b11565b92509250509295509295909350565b6001600160e01b03198116610af8565b8035610ae981610bf3565b60008060008060608587031215610c2757610c27600080fd5b6000610c338787610b06565b9450506020610c4487828801610c03565b935050604085013567ffffffffffffffff811115610c6457610c64600080fd5b610c7087828801610b11565b95989497509550505050565b634e487b7160e01b600052602160045260246000fd5b60038110610b0357610b03610c7c565b80610cac81610c92565b919050565b6000610ae982610ca2565b610cc581610cb1565b82525050565b610cc581610adc565b6000610ce08383610ccb565b505060200190565b6000610cf2825190565b80845260209384019383018060005b83811015610d26578151610d158882610cd4565b975060208301925050600101610d01565b509495945050505050565b80610cc5565b6000610ce08383610d31565b6000610d4d825190565b80845260209384019383018060005b83811015610d26578151610d708882610d37565b975060208301925050600101610d5c565b60a08101610d8f8288610cbc565b8181036020830152610da18187610ce8565b90508181036040830152610db58186610d43565b90508181036060830152610dc98185610ce8565b90508181036080830152610ddd8184610d43565b979650505050505050565b60208101610ae98284610ccb565b634e487b7160e01b600052603260045260246000fd5b60408101610e1a8285610d31565b6109c96020830184610ccb565b80610af8565b8051610ae981610e27565b600060208284031215610e4d57610e4d600080fd5b6000610a668484610e2d565b60608101610e678286610d31565b610e746020830185610ccb565b610a666040830184610ccb565b634e487b7160e01b600052604160045260246000fd5b8051610ae981610aef565b600060208284031215610eb757610eb7600080fd5b6000610a668484610e97565b602781526000602082017f7061727365417373657473466f72416374696f6e3a205f73656c6563746f72208152661a5b9d985b1a5960ca1b602082015291505b5060400190565b60208082528101610ae981610ec3565b601f19601f830116810181811067ffffffffffffffff82111715610f4057610f40610e81565b6040525050565b6000610f5260405190565b9050610cac8282610f1a565b600067ffffffffffffffff821115610f7857610f78610e81565b5060209081020190565b6000610f95610f9084610f5e565b610f47565b83815290506020808201908402830185811115610fb457610fb4600080fd5b835b81811015610fd85780610fc98882610e97565b84525060209283019201610fb6565b5050509392505050565b600082601f830112610ff657610ff6600080fd5b8151610a66848260208601610f82565b6000611014610f9084610f5e565b8381529050602080820190840283018581111561103357611033600080fd5b835b81811015610fd857806110488882610e2d565b84525060209283019201611035565b600082601f83011261106b5761106b600080fd5b8151610a66848260208601611006565b60008060006060848603121561109357611093600080fd5b835167ffffffffffffffff8111156110ad576110ad600080fd5b6110b986828701610fe2565b935050602084015167ffffffffffffffff8111156110d9576110d9600080fd5b6110e586828701611057565b925050604084015167ffffffffffffffff81111561110557611105600080fd5b61111186828701610fe2565b9150509250925092565b60408101610e1a8285610ccb565b60008060006060848603121561114157611141600080fd5b600061114d8686610e97565b935050602061115e86828701610e2d565b925050604061111186828701610e2d565b603681526000602082017f5361666545524332303a20617070726f76652066726f6d206e6f6e2d7a65726f81527520746f206e6f6e2d7a65726f20616c6c6f77616e636560501b60208201529150610f03565b60208082528101610ae98161116f565b604081016111e08285610ccb565b6109c96020830184610d31565b801515610af8565b8051610ae9816111ed565b60006020828403121561121557611215600080fd5b6000610a6684846111f5565b602a81526000602082017f5361666545524332303a204552433230206f7065726174696f6e20646964206e8152691bdd081cdd58d8d9595960b21b60208201529150610f03565b60208082528101610ae981611221565b602681526000602082017f416464726573733a20696e73756666696369656e742062616c616e636520666f8152651c8818d85b1b60d21b60208201529150610f03565b60208082528101610ae981611278565b60005b838110156112e65781810151838201526020016112ce565b50506000910152565b60006112f9825190565b6113078185602086016112cb565b9290920192915050565b60006109c982846112ef565b60208082528101610ae981601d81527f416464726573733a2063616c6c20746f206e6f6e2d636f6e7472616374000000602082015260400190565b6000611362825190565b8084526020840193506113798185602086016112cb565b601f01601f19169290920192915050565b602080825281016109c9818461135856","linkReferences":{}},"methodIdentifiers":{"getIntegrationManager()":"e7c45690","lend(address,bytes,bytes)":"099f7515","parseAssetsForAction(address,bytes4,bytes)":"c54efee5","redeem(address,bytes,bytes)":"c29fa9dd"},"id":165}