{"abi":[{"type":"constructor","inputs":[{"name":"_dispatcherAddress","type":"address","internalType":"address"},{"name":"_implementationAddress","type":"address","internalType":"address"}],"stateMutability":"nonpayable"},{"type":"function","name":"deployProxy","inputs":[{"name":"_constructData","type":"bytes","internalType":"bytes"}],"outputs":[{"name":"proxyAddress_","type":"address","internalType":"address"}],"stateMutability":"nonpayable"},{"type":"function","name":"getOwner","inputs":[],"outputs":[{"name":"owner_","type":"address","internalType":"address"}],"stateMutability":"view"},{"type":"function","name":"implementation","inputs":[],"outputs":[{"name":"","type":"address","internalType":"address"}],"stateMutability":"view"},{"type":"function","name":"setImplementation","inputs":[{"name":"_nextImplementation","type":"address","internalType":"address"}],"outputs":[],"stateMutability":"nonpayable"},{"type":"event","name":"ImplementationSet","inputs":[{"name":"implementation","type":"address","indexed":false,"internalType":"address"}],"anonymous":false},{"type":"event","name":"ProxyDeployed","inputs":[{"name":"proxy","type":"address","indexed":false,"internalType":"address"}],"anonymous":false}],"bytecode":{"object":"0x60a060405234801561001057600080fd5b50604051610b2f380380610b2f83398101604081905261002f91610073565b6001600160a01b03918216608052600080546001600160a01b031916919092161790556100a6565b80516001600160a01b038116811461006e57600080fd5b919050565b6000806040838503121561008657600080fd5b61008f83610057565b915061009d60208401610057565b90509250929050565b608051610a6f6100c0600039600060fc0152610a6f6000f3fe608060405234801561001057600080fd5b506004361061004c5760003560e01c80630c0872f5146100515780635c60da1b14610080578063893d20e814610093578063d784d4261461009b575b600080fd5b61006461005f3660046102b6565b6100b0565b6040516001600160a01b03909116815260200160405180910390f35b600054610064906001600160a01b031681565b6100646100f8565b6100ae6100a9366004610340565b610181565b005b60006100f183838080601f01602080910402602001604051908101604052809392919081815260200183838082843760009201919091525061022d92505050565b9392505050565b60007f00000000000000000000000000000000000000000000000000000000000000006001600160a01b031663893d20e86040518163ffffffff1660e01b8152600401602060405180830381865afa158015610158573d6000803e3d6000fd5b505050506040513d601f19601f8201168201806040525081019061017c919061035d565b905090565b6101896100f8565b6001600160a01b0316336001600160a01b0316146101d95760405162461bcd60e51b815260206004820152600960248201526837b7363ca7bbb732b960b91b604482015260640160405180910390fd5b600080546001600160a01b0319166001600160a01b0383169081179091556040519081527fab64f92ab780ecbf4f3866f57cee465ff36c89450dcce20237ca7a8d81fb7d139060200160405180910390a150565b6000308260405161023d906102a9565b61024892919061037a565b604051809103906000f080158015610264573d6000803e3d6000fd5b506040516001600160a01b03821681529091507fe542a942474a745be15595bbad9536fc3040d687435b060b2b9f07c1b74498189060200160405180910390a1919050565b610696806103d983390190565b600080602083850312156102c957600080fd5b823567ffffffffffffffff808211156102e157600080fd5b818501915085601f8301126102f557600080fd5b81358181111561030457600080fd5b86602082850101111561031657600080fd5b60209290920196919550909350505050565b6001600160a01b038116811461033d57600080fd5b50565b60006020828403121561035257600080fd5b81356100f181610328565b60006020828403121561036f57600080fd5b81516100f181610328565b60018060a01b038316815260006020604081840152835180604085015260005b818110156103b65785810183015185820160600152820161039a565b506000606082860101526060601f19601f83011685010192505050939250505056fe608060405260405161069638038061069683398101604081905261002291610420565b61002e82826000610035565b505061054a565b61003e836100f6565b6040516001600160a01b038416907f1cf3b03a6cf19fa2baba4df148e9dcabedea7f8a5c07840e207e5c089be95d3e90600090a260008251118061007f5750805b156100f1576100ef836001600160a01b0316635c60da1b6040518163ffffffff1660e01b8152600401602060405180830381865afa1580156100c5573d6000803e3d6000fd5b505050506040513d601f19601f820116820180604052508101906100e991906104e0565b8361027a565b505b505050565b6001600160a01b0381163b6101605760405162461bcd60e51b815260206004820152602560248201527f455243313936373a206e657720626561636f6e206973206e6f74206120636f6e6044820152641d1c9858dd60da1b60648201526084015b60405180910390fd5b6101d4816001600160a01b0316635c60da1b6040518163ffffffff1660e01b8152600401602060405180830381865afa1580156101a1573d6000803e3d6000fd5b505050506040513d601f19601f820116820180604052508101906101c591906104e0565b6001600160a01b03163b151590565b6102395760405162461bcd60e51b815260206004820152603060248201527f455243313936373a20626561636f6e20696d706c656d656e746174696f6e206960448201526f1cc81b9bdd08184818dbdb9d1c9858dd60821b6064820152608401610157565b7fa3f0ad74e5423aebfd80d3ef4346578335a9a72aeaee59ff6cb3582b35133d5080546001600160a01b0319166001600160a01b0392909216919091179055565b606061029f838360405180606001604052806027815260200161066f602791396102a6565b9392505050565b6060600080856001600160a01b0316856040516102c391906104fb565b600060405180830381855af49150503d80600081146102fe576040519150601f19603f3d011682016040523d82523d6000602084013e610303565b606091505b5090925090506103158683838761031f565b9695505050505050565b6060831561038e578251600003610387576001600160a01b0385163b6103875760405162461bcd60e51b815260206004820152601d60248201527f416464726573733a2063616c6c20746f206e6f6e2d636f6e74726163740000006044820152606401610157565b5081610398565b61039883836103a0565b949350505050565b8151156103b05781518083602001fd5b8060405162461bcd60e51b81526004016101579190610517565b80516001600160a01b03811681146103e157600080fd5b919050565b634e487b7160e01b600052604160045260246000fd5b60005b838110156104175781810151838201526020016103ff565b50506000910152565b6000806040838503121561043357600080fd5b61043c836103ca565b60208401519092506001600160401b038082111561045957600080fd5b818501915085601f83011261046d57600080fd5b81518181111561047f5761047f6103e6565b604051601f8201601f19908116603f011681019083821181831017156104a7576104a76103e6565b816040528281528860208487010111156104c057600080fd5b6104d18360208301602088016103fc565b80955050505050509250929050565b6000602082840312156104f257600080fd5b61029f826103ca565b6000825161050d8184602087016103fc565b9190910192915050565b60208152600082518060208401526105368160408501602087016103fc565b601f01601f19169190910160400192915050565b610116806105596000396000f3fe60806040523661001357610011610017565b005b6100115b610027610022610029565b6100c2565b565b600061005c7fa3f0ad74e5423aebfd80d3ef4346578335a9a72aeaee59ff6cb3582b35133d50546001600160a01b031690565b6001600160a01b0316635c60da1b6040518163ffffffff1660e01b8152600401602060405180830381865afa158015610099573d6000803e3d6000fd5b505050506040513d601f19601f820116820180604052508101906100bd91906100e6565b905090565b3660008037600080366000845af43d6000803e8080156100e1573d6000f35b3d6000fd5b6000602082840312156100f857600080fd5b81516001600160a01b038116811461010f57600080fd5b939250505056416464726573733a206c6f772d6c6576656c2064656c65676174652063616c6c206661696c6564","linkReferences":{}},"methodIdentifiers":{"deployProxy(bytes)":"0c0872f5","getOwner()":"893d20e8","implementation()":"5c60da1b","setImplementation(address)":"d784d426"},"id":205}