{"abi":[{"type":"constructor","inputs":[{"name":"_aliceV2OrderManagerAddress","type":"address","internalType":"address"},{"name":"_wrappedNativeAssetAddress","type":"address","internalType":"address"}],"stateMutability":"nonpayable"},{"type":"function","name":"ALICE_NATIVE_ETH","inputs":[],"outputs":[{"name":"","type":"address","internalType":"address"}],"stateMutability":"view"},{"type":"function","name":"ALICE_V2_ORDER_MANAGER","inputs":[],"outputs":[{"name":"","type":"address","internalType":"contract IAliceInstantOrderV2"}],"stateMutability":"view"},{"type":"function","name":"WRAPPED_NATIVE_TOKEN_ADDRESS","inputs":[],"outputs":[{"name":"","type":"address","internalType":"address"}],"stateMutability":"view"},{"type":"function","name":"parseAssetsForAction","inputs":[{"name":"_externalPositionAddress","type":"address","internalType":"address"},{"name":"_actionId","type":"uint256","internalType":"uint256"},{"name":"_encodedActionArgs","type":"bytes","internalType":"bytes"}],"outputs":[{"name":"assetsToTransfer_","type":"address[]","internalType":"address[]"},{"name":"amountsToTransfer_","type":"uint256[]","internalType":"uint256[]"},{"name":"assetsToReceive_","type":"address[]","internalType":"address[]"}],"stateMutability":"view"},{"type":"function","name":"parseInitArgs","inputs":[{"name":"","type":"address","internalType":"address"},{"name":"","type":"bytes","internalType":"bytes"}],"outputs":[{"name":"","type":"bytes","internalType":"bytes"}],"stateMutability":"pure"},{"type":"error","name":"DuplicateOrderId","inputs":[]},{"type":"error","name":"InvalidActionId","inputs":[]},{"type":"error","name":"UnknownOrderId","inputs":[]}],"bytecode":{"object":"0x60c06040523480156200001157600080fd5b506040516200127c3803806200127c833981016040819052620000349162000086565b6001600160a01b039182166080521660a052620000c9565b60006001600160a01b0382165b92915050565b6200006a816200004c565b81146200007657600080fd5b50565b805162000059816200005f565b600080604083850312156200009e576200009e600080fd5b6000620000ac858562000079565b9250506020620000bf8582860162000079565b9150509250929050565b60805160a051611188620000f460003960008181607f01526106df0152600060a601526111886000f3fe608060405234801561001057600080fd5b50600436106100575760003560e01c806331bf88a01461005c5780635162e6b91461007a578063520de5aa146100a1578063bbd2d646146100d5578063db16c72e146100f7575b600080fd5b610064600081565b6040516100719190610a64565b60405180910390f35b6100647f000000000000000000000000000000000000000000000000000000000000000081565b6100c87f000000000000000000000000000000000000000000000000000000000000000081565b6040516100719190610a91565b6100e86100e3366004610bd5565b610117565b60405161007193929190610ced565b61010a610105366004610d2f565b6106b0565b6040516100719190610ddd565b60608080846101e2576000848060200190518101906101369190610e76565b60408051600180825281830190925291925060208083019080368337505060408051600180825281830190925292965090506020808301908036833701905050925061018581600001516106c6565b8460008151811061019857610198610e97565b60200260200101906001600160a01b031690816001600160a01b0316815250508060400151836000815181106101d0576101d0610e97565b602002602001018181525050506106a7565b60028503610433576000848060200190518101906102009190610fa1565b9050610210878260000151610704565b60005b81515181101561042c576000886001600160a01b031663ec7dd7bb8460000151848151811061024457610244610e97565b60200260200101516040518263ffffffff1660e01b81526004016102689190610fdc565b606060405180830381865afa158015610285573d6000803e3d6000fd5b505050506040513d601f19601f820116820180604052508101906102a99190611048565b80519091506000906001600160a01b0316156103345781516040516370a0823160e01b81526001600160a01b03909116906370a08231906102ee908d90600401610a64565b602060405180830381865afa15801561030b573d6000803e3d6000fd5b505050506040513d601f19601f8201168201806040525081019061032f9190611069565b610340565b896001600160a01b0316315b60208301519091506000906001600160a01b0316156103cf5782602001516001600160a01b03166370a082318c6040518263ffffffff1660e01b81526004016103899190610a64565b602060405180830381865afa1580156103a6573d6000803e3d6000fd5b505050506040513d601f19601f820116820180604052508101906103ca9190611069565b6103db565b8a6001600160a01b0316315b905081156103fd576103fa6103f384600001516106c6565b879061081a565b95505b8015610416576104136103f384602001516106c6565b95505b5050508080610424906110a0565b915050610213565b50506106a7565b6001850361052e576000848060200190518101906104519190611154565b805160405163ec7dd7bb60e01b81529192506000916001600160a01b038a169163ec7dd7bb916104849190600401610fdc565b606060405180830381865afa1580156104a1573d6000803e3d6000fd5b505050506040513d601f19601f820116820180604052508101906104c59190611048565b604080516001808252818301909252919250602080830190803683370190505092506104f481600001516106c6565b8360008151811061050757610507610e97565b60200260200101906001600160a01b031690816001600160a01b03168152505050506106a7565b6003850361068e5760008480602001905181019061054c9190610e76565b60408051600180825281830190925291925060208083019080368337505060408051600180825281830190925292965090506020808301908036833750506040805160028082526060820183529396509291506020830190803683370190505091506105bb81600001516106c6565b846000815181106105ce576105ce610e97565b60200260200101906001600160a01b031690816001600160a01b03168152505080604001518360008151811061060657610606610e97565b60200260200101818152505061061f81602001516106c6565b8260008151811061063257610632610e97565b6001600160a01b03909216602092830291909101909101528051610655906106c6565b8260018151811061066857610668610e97565b60200260200101906001600160a01b031690816001600160a01b031681525050506106a7565b60405163703469d160e11b815260040160405180910390fd5b93509350939050565b6040805160208101909152600081525b92915050565b60006001600160a01b038216156106dd57816106c0565b7f000000000000000000000000000000000000000000000000000000000000000092915050565b61070d81610843565b61072a576040516321c4c60560e11b815260040160405180910390fd5b60005b8151811015610815576000836001600160a01b031663ec7dd7bb84848151811061075957610759610e97565b60200260200101516040518263ffffffff1660e01b815260040161077d9190610fdc565b606060405180830381865afa15801561079a573d6000803e3d6000fd5b505050506040513d601f19601f820116820180604052508101906107be9190611048565b80519091506001600160a01b03161580156107e4575060208101516001600160a01b0316155b156108025760405163bd7e973b60e01b815260040160405180910390fd5b508061080d816110a0565b91505061072d565b505050565b606061082683836108ee565b156108325750816106c0565b61083c8383610953565b9392505050565b6000600182511161085657506001919050565b815160005b818110156108e4576000610870826001611175565b90505b828110156108d15784818151811061088d5761088d610e97565b60200260200101518583815181106108a7576108a7610e97565b6020026020010151036108bf57506000949350505050565b806108c9816110a0565b915050610873565b50806108dc816110a0565b91505061085b565b5060019392505050565b6000805b83518110156109495783818151811061090d5761090d610e97565b60200260200101516001600160a01b0316836001600160a01b0316036109375760019150506106c0565b80610941816110a0565b9150506108f2565b5060009392505050565b6060825160016109639190611175565b67ffffffffffffffff81111561097b5761097b610ad2565b6040519080825280602002602001820160405280156109a4578160200160208202803683370190505b50905060005b8351811015610a09578381815181106109c5576109c5610e97565b60200260200101518282815181106109df576109df610e97565b6001600160a01b039092166020928302919091019091015280610a01816110a0565b9150506109aa565b508181845181518110610a1e57610a1e610e97565b60200260200101906001600160a01b031690816001600160a01b03168152505092915050565b60006001600160a01b0382166106c0565b610a5e81610a44565b82525050565b602081016106c08284610a55565b60006106c082610a44565b60006106c082610a72565b610a5e81610a7d565b602081016106c08284610a88565b610aa881610a44565b8114610ab357600080fd5b50565b80356106c081610a9f565b80610aa8565b80356106c081610ac1565b634e487b7160e01b600052604160045260246000fd5b601f19601f830116810181811067ffffffffffffffff82111715610b0e57610b0e610ad2565b6040525050565b6000610b2060405190565b9050610b2c8282610ae8565b919050565b600067ffffffffffffffff821115610b4b57610b4b610ad2565b601f19601f83011660200192915050565b82818337506000910152565b6000610b7b610b7684610b31565b610b15565b905082815260208101848484011115610b9657610b96600080fd5b610ba1848285610b5c565b509392505050565b600082601f830112610bbd57610bbd600080fd5b8135610bcd848260208601610b68565b949350505050565b600080600060608486031215610bed57610bed600080fd5b6000610bf98686610ab6565b9350506020610c0a86828701610ac7565b925050604084013567ffffffffffffffff811115610c2a57610c2a600080fd5b610c3686828701610ba9565b9150509250925092565b6000610c4c8383610a55565b505060200190565b6000610c5e825190565b80845260209384019383018060005b83811015610c92578151610c818882610c40565b975060208301925050600101610c6d565b509495945050505050565b80610a5e565b6000610c4c8383610c9d565b6000610cb9825190565b80845260209384019383018060005b83811015610c92578151610cdc8882610ca3565b975060208301925050600101610cc8565b60608082528101610cfe8186610c54565b90508181036020830152610d128185610caf565b90508181036040830152610d268184610c54565b95945050505050565b60008060408385031215610d4557610d45600080fd5b6000610d518585610ab6565b925050602083013567ffffffffffffffff811115610d7157610d71600080fd5b610d7d85828601610ba9565b9150509250929050565b60005b83811015610da2578181015183820152602001610d8a565b50506000910152565b6000610db5825190565b808452602084019350610dcc818560208601610d87565b601f01601f19169290920192915050565b6020808252810161083c8184610dab565b80516106c081610a9f565b80516106c081610ac1565b600060808284031215610e1957610e19600080fd5b610e236080610b15565b90506000610e318484610dee565b8252506020610e4284848301610dee565b6020830152506040610e5684828501610df9565b6040830152506060610e6a84828501610df9565b60608301525092915050565b600060808284031215610e8b57610e8b600080fd5b6000610bcd8484610e04565b634e487b7160e01b600052603260045260246000fd5b600067ffffffffffffffff821115610ec757610ec7610ad2565b5060209081020190565b6000610edf610b7684610ead565b83815290506020808201908402830185811115610efe57610efe600080fd5b835b81811015610f225780610f138882610df9565b84525060209283019201610f00565b5050509392505050565b600082601f830112610f4057610f40600080fd5b8151610bcd848260208601610ed1565b600060208284031215610f6557610f65600080fd5b610f6f6020610b15565b825190915067ffffffffffffffff811115610f8c57610f8c600080fd5b610f9884828501610f2c565b82525092915050565b600060208284031215610fb657610fb6600080fd5b815167ffffffffffffffff811115610fd057610fd0600080fd5b610bcd84828501610f50565b602081016106c08284610c9d565b600060608284031215610fff57610fff600080fd5b6110096060610b15565b905060006110178484610dee565b825250602061102884848301610dee565b602083015250604061103c84828501610df9565b60408301525092915050565b60006060828403121561105d5761105d600080fd5b6000610bcd8484610fea565b60006020828403121561107e5761107e600080fd5b6000610bcd8484610df9565b634e487b7160e01b600052601160045260246000fd5b600060001982036110b3576110b361108a565b5060010190565b600060c082840312156110cf576110cf600080fd5b6110d960c0610b15565b905060006110e78484610df9565b82525060206110f884848301610dee565b602083015250604061110c84828501610dee565b604083015250606061112084828501610df9565b606083015250608061113484828501610df9565b60808301525060a061114884828501610df9565b60a08301525092915050565b600060c0828403121561116957611169600080fd5b6000610bcd84846110ba565b808201808211156106c0576106c061108a56","linkReferences":{}},"methodIdentifiers":{"ALICE_NATIVE_ETH()":"31bf88a0","ALICE_V2_ORDER_MANAGER()":"520de5aa","WRAPPED_NATIVE_TOKEN_ADDRESS()":"5162e6b9","parseAssetsForAction(address,uint256,bytes)":"bbd2d646","parseInitArgs(address,bytes)":"db16c72e"},"id":99}