{"abi":[{"type":"constructor","inputs":[{"name":"_usdnProtocolAddress","type":"address","internalType":"address"}],"stateMutability":"nonpayable"},{"type":"function","name":"DECIMALS","inputs":[],"outputs":[{"name":"","type":"uint8","internalType":"uint8"}],"stateMutability":"view"},{"type":"function","name":"QUOTE_CONVERSION_AGGREGATOR_ADDRESS","inputs":[],"outputs":[{"name":"","type":"address","internalType":"address"}],"stateMutability":"view"},{"type":"function","name":"QUOTE_CONVERSION_AGGREGATOR_INVERTED","inputs":[],"outputs":[{"name":"","type":"bool","internalType":"bool"}],"stateMutability":"view"},{"type":"function","name":"USDN_PROTOCOL","inputs":[],"outputs":[{"name":"","type":"address","internalType":"contract ISmarDexUsdnProtocol"}],"stateMutability":"view"},{"type":"function","name":"baseRate","inputs":[],"outputs":[{"name":"rate_","type":"uint256","internalType":"uint256"},{"name":"ratePrecision_","type":"uint256","internalType":"uint256"},{"name":"timestamp_","type":"uint256","internalType":"uint256"}],"stateMutability":"view"},{"type":"function","name":"decimals","inputs":[],"outputs":[{"name":"decimals_","type":"uint8","internalType":"uint8"}],"stateMutability":"view"},{"type":"function","name":"latestRoundData","inputs":[],"outputs":[{"name":"","type":"uint80","internalType":"uint80"},{"name":"","type":"int256","internalType":"int256"},{"name":"","type":"uint256","internalType":"uint256"},{"name":"","type":"uint256","internalType":"uint256"},{"name":"","type":"uint80","internalType":"uint80"}],"stateMutability":"view"},{"type":"error","name":"PriceFeedHelpersLib__ParseRateFromChainlinkAggregator__NegativeAnswer","inputs":[{"name":"answer","type":"int256","internalType":"int256"}]}],"bytecode":{"object":"0x6101406040523480156200001257600080fd5b5060405162000d8b38038062000d8b833981016040819052620000359162000152565b60086080819052600090819081806200005083600a620002c6565b60e0526001600160a01b03821660a081905281151560c0526200007557600062000080565b62000080826200009f565b610100525050506001600160a01b039092166101205250620003199050565b6000816001600160a01b031663313ce5676040518163ffffffff1660e01b8152600401602060405180830381865afa158015620000e0573d6000803e3d6000fd5b505050506040513d601f19601f82011682018060405250810190620001069190620002f4565b6200011390600a620002c6565b92915050565b60006001600160a01b03821662000113565b620001368162000119565b81146200014257600080fd5b50565b805162000113816200012b565b600060208284031215620001695762000169600080fd5b600062000177848462000145565b949350505050565b634e487b7160e01b600052601160045260246000fd5b80825b6001851115620001db57808604811115620001b757620001b76200017f565b6001851615620001c657908102905b8002620001d38560011c90565b945062000198565b94509492505050565b600082620001f557506001620002bf565b816200020457506000620002bf565b81600181146200021d576002811462000228576200025c565b6001915050620002bf565b60ff8411156200023c576200023c6200017f565b8360020a9150848211156200025557620002556200017f565b50620002bf565b5060208310610133831016604e8410600b841016171562000294575081810a838111156200028e576200028e6200017f565b620002bf565b620002a3848484600162000195565b92509050818404811115620002bc57620002bc6200017f565b81025b9392505050565b600060ff83169250620002bf6000198484620001e4565b60ff811662000136565b80516200011381620002dd565b6000602082840312156200030b576200030b600080fd5b6000620001778484620002e7565b60805160a05160c05160e05161010051610120516109f36200039860003960008181610143015281816101b901526102cc015260008181610403015261044d01526000610494015260008181608701526103d901526000818161010f0152818161037801526103ad01526000818160db015261017401526109f36000f3fe608060405234801561001057600080fd5b506004361061007d5760003560e01c80632faa3a091161005b5780632faa3a091461010a5780632fe54fc51461013e578063313ce56714610172578063feaf968c1461019857600080fd5b80630918d214146100825780631f68f20a146100bf5780632e0f2625146100d6575b600080fd5b6100a97f000000000000000000000000000000000000000000000000000000000000000081565b6040516100b691906105ef565b60405180910390f35b6100c76101b1565b6040516100b693929190610603565b6100fd7f000000000000000000000000000000000000000000000000000000000000000081565b6040516100b6919061063c565b6101317f000000000000000000000000000000000000000000000000000000000000000081565b6040516100b69190610664565b6101657f000000000000000000000000000000000000000000000000000000000000000081565b6040516100b69190610691565b7f00000000000000000000000000000000000000000000000000000000000000006100fd565b6101a061035b565b6040516100b69594939291906106b1565b6000806000807f00000000000000000000000000000000000000000000000000000000000000006001600160a01b0316633ef101736040518163ffffffff1660e01b8152600401602060405180830381865afa158015610215573d6000803e3d6000fd5b505050506040513d601f19601f82011682018060405250810190610239919061071f565b90506000816001600160a01b031663f211abcc4260016040518363ffffffff1660e01b815260040161026c9291906107a1565b606060405180830381865afa158015610289573d6000803e3d6000fd5b505050506040513d601f19601f820116820180604052508101906102ad91906108a1565b6020810151604051637aeabd9960e01b81529192506001600160a01b037f00000000000000000000000000000000000000000000000000000000000000001691637aeabd99916102ff916004016108c2565b602060405180830381865afa15801561031c573d6000803e3d6000fd5b505050506040513d601f19601f8201168201806040525081019061034091906108d0565b9450670de0b6b3a76400009350806040015192505050909192565b60008060008060008060008061036f6101b1565b919450925090507f00000000000000000000000000000000000000000000000000000000000000006001600160a01b03161561048d576000806103d17f00000000000000000000000000000000000000000000000000000000000000006104cd565b9150915060007f00000000000000000000000000000000000000000000000000000000000000001561044a57610434837f00000000000000000000000000000000000000000000000000000000000000006b033b2e3c9fd0803ce8000000610571565b92506b033b2e3c9fd0803ce8000000905061046d565b507f00000000000000000000000000000000000000000000000000000000000000005b610478868685610592565b9550809450610487848361059f565b93505050505b6104b883837f00000000000000000000000000000000000000000000000000000000000000006105b4565b60009990985089975090955086945092505050565b6000806000836001600160a01b031663feaf968c6040518163ffffffff1660e01b815260040160a060405180830381865afa158015610510573d6000803e3d6000fd5b505050506040513d601f19601f82011682018060405250810190610534919061090e565b509450909250505060008112156105695780604051630d6f078960e31b81526004016105609190610986565b60405180910390fd5b939092509050565b60008361057e84846109aa565b61058891906109df565b90505b9392505050565b60008261057e83866109aa565b60006105ab83836105cf565b90505b92915050565b60008183036105c457508261058b565b8261057e83866109aa565b60008183106105de57816105ab565b5090919050565b8015155b82525050565b602081016105ae82846105e5565b806105e9565b6060810161061182866105fd565b61061e60208301856105fd565b61062b60408301846105fd565b949350505050565b60ff81166105e9565b602081016105ae8284610633565b60006001600160a01b0382166105ae565b6105e98161064a565b602081016105ae828461065b565b60006105ae8261064a565b60006105ae82610672565b6105e98161067d565b602081016105ae8284610688565b69ffffffffffffffffffff81166105e9565b60a081016106bf828861069f565b6106cc60208301876105fd565b6106d960408301866105fd565b6106e660608301856105fd565b6106f3608083018461069f565b9695505050505050565b6107068161064a565b811461071157600080fd5b50565b80516105ae816106fd565b60006020828403121561073457610734600080fd5b600061062b8484610714565b6fffffffffffffffffffffffffffffffff81166105e9565b634e487b7160e01b600052602160045260246000fd5b600b811061071157610711610758565b806107888161076e565b919050565b60006105ae8261077e565b6105e98161078d565b60008152608081016107b66020830185610740565b6107c36040830184610798565b81810360608301526000815260208101610588565b634e487b7160e01b600052604160045260246000fd5b601f19601f830116810181811067ffffffffffffffff82111715610814576108146107d8565b6040525050565b600061082660405190565b905061078882826107ee565b80610706565b80516105ae81610832565b60006060828403121561085857610858600080fd5b610862606061081b565b905060006108708484610838565b825250602061088184848301610838565b602083015250604061089584828501610838565b60408301525092915050565b6000606082840312156108b6576108b6600080fd5b600061062b8484610843565b602081016105ae8284610740565b6000602082840312156108e5576108e5600080fd5b600061062b8484610838565b69ffffffffffffffffffff8116610706565b80516105ae816108f1565b600080600080600060a0868803121561092957610929600080fd5b60006109358888610903565b955050602061094688828901610838565b945050604061095788828901610838565b935050606061096888828901610838565b925050608061097988828901610903565b9150509295509295909350565b602081016105ae82846105fd565b634e487b7160e01b600052601160045260246000fd5b8181028082158382048514176109c2576109c2610994565b5092915050565b634e487b7160e01b600052601260045260246000fd5b6000826109ee576109ee6109c9565b50049056","linkReferences":{}},"methodIdentifiers":{"DECIMALS()":"2e0f2625","QUOTE_CONVERSION_AGGREGATOR_ADDRESS()":"2faa3a09","QUOTE_CONVERSION_AGGREGATOR_INVERTED()":"0918d214","USDN_PROTOCOL()":"2fe54fc5","baseRate()":"1f68f20a","decimals()":"313ce567","latestRoundData()":"feaf968c"},"id":210}