{"abi":[{"type":"constructor","inputs":[{"name":"_dispatcher","type":"address","internalType":"address"},{"name":"_gasRelayPaymasterFactory","type":"address","internalType":"address"}],"stateMutability":"nonpayable"},{"type":"function","name":"cancelMigration","inputs":[{"name":"_vaultProxy","type":"address","internalType":"address"},{"name":"_bypassPrevReleaseFailure","type":"bool","internalType":"bool"}],"outputs":[],"stateMutability":"nonpayable"},{"type":"function","name":"cancelReconfiguration","inputs":[{"name":"_vaultProxy","type":"address","internalType":"address"}],"outputs":[],"stateMutability":"nonpayable"},{"type":"function","name":"createMigrationRequest","inputs":[{"name":"_vaultProxy","type":"address","internalType":"address"},{"name":"_denominationAsset","type":"address","internalType":"address"},{"name":"_sharesActionTimelock","type":"uint256","internalType":"uint256"},{"name":"_feeManagerConfigData","type":"bytes","internalType":"bytes"},{"name":"_policyManagerConfigData","type":"bytes","internalType":"bytes"},{"name":"_bypassPrevReleaseFailure","type":"bool","internalType":"bool"}],"outputs":[{"name":"comptrollerProxy_","type":"address","internalType":"address"}],"stateMutability":"nonpayable"},{"type":"function","name":"createNewFund","inputs":[{"name":"_fundOwner","type":"address","internalType":"address"},{"name":"_fundName","type":"string","internalType":"string"},{"name":"_fundSymbol","type":"string","internalType":"string"},{"name":"_denominationAsset","type":"address","internalType":"address"},{"name":"_sharesActionTimelock","type":"uint256","internalType":"uint256"},{"name":"_feeManagerConfigData","type":"bytes","internalType":"bytes"},{"name":"_policyManagerConfigData","type":"bytes","internalType":"bytes"}],"outputs":[{"name":"comptrollerProxy_","type":"address","internalType":"address"},{"name":"vaultProxy_","type":"address","internalType":"address"}],"stateMutability":"nonpayable"},{"type":"function","name":"createReconfigurationRequest","inputs":[{"name":"_vaultProxy","type":"address","internalType":"address"},{"name":"_denominationAsset","type":"address","internalType":"address"},{"name":"_sharesActionTimelock","type":"uint256","internalType":"uint256"},{"name":"_feeManagerConfigData","type":"bytes","internalType":"bytes"},{"name":"_policyManagerConfigData","type":"bytes","internalType":"bytes"}],"outputs":[{"name":"comptrollerProxy_","type":"address","internalType":"address"}],"stateMutability":"nonpayable"},{"type":"function","name":"deregisterBuySharesOnBehalfCallers","inputs":[{"name":"_callers","type":"address[]","internalType":"address[]"}],"outputs":[],"stateMutability":"nonpayable"},{"type":"function","name":"deregisterVaultCalls","inputs":[{"name":"_contracts","type":"address[]","internalType":"address[]"},{"name":"_selectors","type":"bytes4[]","internalType":"bytes4[]"},{"name":"_dataHashes","type":"bytes32[]","internalType":"bytes32[]"}],"outputs":[],"stateMutability":"nonpayable"},{"type":"function","name":"executeMigration","inputs":[{"name":"_vaultProxy","type":"address","internalType":"address"},{"name":"_bypassPrevReleaseFailure","type":"bool","internalType":"bool"}],"outputs":[],"stateMutability":"nonpayable"},{"type":"function","name":"executeReconfiguration","inputs":[{"name":"_vaultProxy","type":"address","internalType":"address"}],"outputs":[],"stateMutability":"nonpayable"},{"type":"function","name":"getComptrollerLib","inputs":[],"outputs":[{"name":"comptrollerLib_","type":"address","internalType":"address"}],"stateMutability":"view"},{"type":"function","name":"getCreator","inputs":[],"outputs":[{"name":"creator_","type":"address","internalType":"address"}],"stateMutability":"view"},{"type":"function","name":"getDispatcher","inputs":[],"outputs":[{"name":"dispatcher_","type":"address","internalType":"address"}],"stateMutability":"view"},{"type":"function","name":"getGasLimitsForDestructCall","inputs":[],"outputs":[{"name":"deactivateFeeManagerGasLimit_","type":"uint256","internalType":"uint256"},{"name":"payProtocolFeeGasLimit_","type":"uint256","internalType":"uint256"}],"stateMutability":"view"},{"type":"function","name":"getGasRelayPaymasterFactory","inputs":[],"outputs":[{"name":"gasRelayPaymasterFactory_","type":"address","internalType":"address"}],"stateMutability":"view"},{"type":"function","name":"getGasRelayTrustedForwarder","inputs":[],"outputs":[{"name":"trustedForwarder_","type":"address","internalType":"address"}],"stateMutability":"view"},{"type":"function","name":"getOwner","inputs":[],"outputs":[{"name":"owner_","type":"address","internalType":"address"}],"stateMutability":"view"},{"type":"function","name":"getProtocolFeeTracker","inputs":[],"outputs":[{"name":"protocolFeeTracker_","type":"address","internalType":"address"}],"stateMutability":"view"},{"type":"function","name":"getReconfigurationRequestForVaultProxy","inputs":[{"name":"_vaultProxy","type":"address","internalType":"address"}],"outputs":[{"name":"reconfigurationRequest_","type":"tuple","internalType":"struct IFundDeployer.ReconfigurationRequest","components":[{"name":"nextComptrollerProxy","type":"address","internalType":"address"},{"name":"executableTimestamp","type":"uint256","internalType":"uint256"}]}],"stateMutability":"view"},{"type":"function","name":"getReconfigurationTimelock","inputs":[],"outputs":[{"name":"reconfigurationTimelock_","type":"uint256","internalType":"uint256"}],"stateMutability":"view"},{"type":"function","name":"getVaultLib","inputs":[],"outputs":[{"name":"vaultLib_","type":"address","internalType":"address"}],"stateMutability":"view"},{"type":"function","name":"hasReconfigurationRequest","inputs":[{"name":"_vaultProxy","type":"address","internalType":"address"}],"outputs":[{"name":"hasReconfigurationRequest_","type":"bool","internalType":"bool"}],"stateMutability":"view"},{"type":"function","name":"invokeMigrationInCancelHook","inputs":[{"name":"","type":"address","internalType":"address"},{"name":"","type":"address","internalType":"address"},{"name":"_nextComptrollerProxy","type":"address","internalType":"address"},{"name":"","type":"address","internalType":"address"}],"outputs":[],"stateMutability":"nonpayable"},{"type":"function","name":"invokeMigrationOutHook","inputs":[{"name":"_hook","type":"uint8","internalType":"enum IMigrationHookHandler.MigrationOutHook"},{"name":"_vaultProxy","type":"address","internalType":"address"},{"name":"","type":"address","internalType":"address"},{"name":"","type":"address","internalType":"address"},{"name":"","type":"address","internalType":"address"}],"outputs":[],"stateMutability":"nonpayable"},{"type":"function","name":"isAllowedBuySharesOnBehalfCaller","inputs":[{"name":"_who","type":"address","internalType":"address"}],"outputs":[{"name":"isAllowed_","type":"bool","internalType":"bool"}],"stateMutability":"view"},{"type":"function","name":"isAllowedVaultCall","inputs":[{"name":"_contract","type":"address","internalType":"address"},{"name":"_selector","type":"bytes4","internalType":"bytes4"},{"name":"_dataHash","type":"bytes32","internalType":"bytes32"}],"outputs":[{"name":"isAllowed_","type":"bool","internalType":"bool"}],"stateMutability":"view"},{"type":"function","name":"isRegisteredVaultCall","inputs":[{"name":"_contract","type":"address","internalType":"address"},{"name":"_selector","type":"bytes4","internalType":"bytes4"},{"name":"_dataHash","type":"bytes32","internalType":"bytes32"}],"outputs":[{"name":"isRegistered_","type":"bool","internalType":"bool"}],"stateMutability":"view"},{"type":"function","name":"registerBuySharesOnBehalfCallers","inputs":[{"name":"_callers","type":"address[]","internalType":"address[]"}],"outputs":[],"stateMutability":"nonpayable"},{"type":"function","name":"registerVaultCalls","inputs":[{"name":"_contracts","type":"address[]","internalType":"address[]"},{"name":"_selectors","type":"bytes4[]","internalType":"bytes4[]"},{"name":"_dataHashes","type":"bytes32[]","internalType":"bytes32[]"}],"outputs":[],"stateMutability":"nonpayable"},{"type":"function","name":"releaseIsLive","inputs":[],"outputs":[{"name":"isLive_","type":"bool","internalType":"bool"}],"stateMutability":"view"},{"type":"function","name":"setComptrollerLib","inputs":[{"name":"_comptrollerLib","type":"address","internalType":"address"}],"outputs":[],"stateMutability":"nonpayable"},{"type":"function","name":"setGasLimitsForDestructCall","inputs":[{"name":"_nextDeactivateFeeManagerGasLimit","type":"uint32","internalType":"uint32"},{"name":"_nextPayProtocolFeeGasLimit","type":"uint32","internalType":"uint32"}],"outputs":[],"stateMutability":"nonpayable"},{"type":"function","name":"setProtocolFeeTracker","inputs":[{"name":"_protocolFeeTracker","type":"address","internalType":"address"}],"outputs":[],"stateMutability":"nonpayable"},{"type":"function","name":"setReconfigurationTimelock","inputs":[{"name":"_nextTimelock","type":"uint256","internalType":"uint256"}],"outputs":[],"stateMutability":"nonpayable"},{"type":"function","name":"setReleaseLive","inputs":[],"outputs":[],"stateMutability":"nonpayable"},{"type":"function","name":"setVaultLib","inputs":[{"name":"_vaultLib","type":"address","internalType":"address"}],"outputs":[],"stateMutability":"nonpayable"},{"type":"event","name":"BuySharesOnBehalfCallerDeregistered","inputs":[{"name":"caller","type":"address","indexed":false,"internalType":"address"}],"anonymous":false},{"type":"event","name":"BuySharesOnBehalfCallerRegistered","inputs":[{"name":"caller","type":"address","indexed":false,"internalType":"address"}],"anonymous":false},{"type":"event","name":"ComptrollerLibSet","inputs":[{"name":"comptrollerLib","type":"address","indexed":false,"internalType":"address"}],"anonymous":false},{"type":"event","name":"ComptrollerProxyDeployed","inputs":[{"name":"creator","type":"address","indexed":true,"internalType":"address"},{"name":"comptrollerProxy","type":"address","indexed":false,"internalType":"address"},{"name":"denominationAsset","type":"address","indexed":true,"internalType":"address"},{"name":"sharesActionTimelock","type":"uint256","indexed":false,"internalType":"uint256"}],"anonymous":false},{"type":"event","name":"GasLimitsForDestructCallSet","inputs":[{"name":"nextDeactivateFeeManagerGasLimit","type":"uint256","indexed":false,"internalType":"uint256"},{"name":"nextPayProtocolFeeGasLimit","type":"uint256","indexed":false,"internalType":"uint256"}],"anonymous":false},{"type":"event","name":"MigrationRequestCreated","inputs":[{"name":"creator","type":"address","indexed":true,"internalType":"address"},{"name":"vaultProxy","type":"address","indexed":true,"internalType":"address"},{"name":"comptrollerProxy","type":"address","indexed":false,"internalType":"address"}],"anonymous":false},{"type":"event","name":"NewFundCreated","inputs":[{"name":"creator","type":"address","indexed":true,"internalType":"address"},{"name":"vaultProxy","type":"address","indexed":false,"internalType":"address"},{"name":"comptrollerProxy","type":"address","indexed":false,"internalType":"address"}],"anonymous":false},{"type":"event","name":"ProtocolFeeTrackerSet","inputs":[{"name":"protocolFeeTracker","type":"address","indexed":false,"internalType":"address"}],"anonymous":false},{"type":"event","name":"ReconfigurationRequestCancelled","inputs":[{"name":"vaultProxy","type":"address","indexed":true,"internalType":"address"},{"name":"nextComptrollerProxy","type":"address","indexed":true,"internalType":"address"}],"anonymous":false},{"type":"event","name":"ReconfigurationRequestCreated","inputs":[{"name":"creator","type":"address","indexed":true,"internalType":"address"},{"name":"vaultProxy","type":"address","indexed":true,"internalType":"address"},{"name":"comptrollerProxy","type":"address","indexed":false,"internalType":"address"},{"name":"executableTimestamp","type":"uint256","indexed":false,"internalType":"uint256"}],"anonymous":false},{"type":"event","name":"ReconfigurationRequestExecuted","inputs":[{"name":"vaultProxy","type":"address","indexed":true,"internalType":"address"},{"name":"prevComptrollerProxy","type":"address","indexed":true,"internalType":"address"},{"name":"nextComptrollerProxy","type":"address","indexed":true,"internalType":"address"}],"anonymous":false},{"type":"event","name":"ReconfigurationTimelockSet","inputs":[{"name":"nextTimelock","type":"uint256","indexed":false,"internalType":"uint256"}],"anonymous":false},{"type":"event","name":"ReleaseIsLive","inputs":[],"anonymous":false},{"type":"event","name":"VaultCallDeregistered","inputs":[{"name":"contractAddress","type":"address","indexed":true,"internalType":"address"},{"name":"selector","type":"bytes4","indexed":false,"internalType":"bytes4"},{"name":"dataHash","type":"bytes32","indexed":false,"internalType":"bytes32"}],"anonymous":false},{"type":"event","name":"VaultCallRegistered","inputs":[{"name":"contractAddress","type":"address","indexed":true,"internalType":"address"},{"name":"selector","type":"bytes4","indexed":false,"internalType":"bytes4"},{"name":"dataHash","type":"bytes32","indexed":false,"internalType":"bytes32"}],"anonymous":false},{"type":"event","name":"VaultLibSet","inputs":[{"name":"vaultLib","type":"address","indexed":false,"internalType":"address"}],"anonymous":false}],"bytecode":{"object":"0x60e06040523480156200001157600080fd5b50604051620048493803806200484983398101604081905262000034916200011a565b6001600160601b0319606082901b166080526040516200005790602001620001d1565b604051602081830303815290604052805190602001207f5bf1898dd28c4d29f33c4c1bb9b8a7e2f6322847d70be63e8f89de024d08a66960001b14620000ba5760405162461bcd60e51b8152600401620000b190620001de565b60405180910390fd5b5033606090811b60a0521b6001600160601b03191660c0526002805463ffffffff60a01b191661249f60a51b1763ffffffff60c01b1916610c3560c61b1790556202a3006003556200022a565b8051620001148162000210565b92915050565b600080604083850312156200012e57600080fd5b60006200013c858562000107565b92505060206200014f8582860162000107565b9150509250929050565b600062000168601183620001f9565b706d6c6e2e7661756c7443616c6c2e616e7960781b815260110192915050565b600062000197602583620001f0565b7f636f6e7374727563746f723a20496e636f727265637420414e595f5641554c5481526417d0d0531360da1b602082015260400192915050565b6000620001148262000159565b60208082528101620001148162000188565b90815260200190565b919050565b60006001600160a01b03821662000114565b6200021b81620001fe565b81146200022757600080fd5b50565b60805160601c60a05160601c60c05160601c6145df6200026a60003980610a575280611c1a5280611cb752508061060e5250806115e952506145df6000f3fe60806040523480156200001157600080fd5b5060043610620002445760003560e01c806372eb5f2b1162000141578063b8f8a84c11620000bd578063df369ba71162000087578063df369ba714620004d3578063ebb3d58914620004ea578063ed9eeb7f14620004f4578063efcde9e3146200050b578063ff84571814620005225762000244565b8063b8f8a84c1462000465578063c83980dd146200047c578063cebffb5814620004a3578063d5189add14620004bc5762000244565b806393a2ecd9116200010b57806393a2ecd9146200041957806398f0d4bb14620004235780639c9d48da146200042d5780639f9df7851462000444578063ac259456146200045b5762000244565b806372eb5f2b14620003c8578063749cc8f514620003ee578063893d20e814620003f85780638c500ea314620004025762000244565b80634140d60711620001d1578063575403dc116200019b578063575403dc146200036f578063682cea1914620003865780636c579e5714620003905780636ea2114314620003a75780636f2b757414620003b15762000244565b80634140d60714620003135780634348ab62146200032a5780634bacc5f7146200034157806354391f0914620003585762000244565b806338b3eb1b116200021357806338b3eb1b14620002b45780633b30dce714620002cb5780633d0d4abb14620002e25780633f84c12c14620002fc5762000244565b80630d2fcd7614620002495780630ee2cb101462000262578063164dd2d4146200028457806336b4ea4f146200028e575b600080fd5b620002606200025a36600462002da6565b62000539565b005b6200026c6200060c565b6040516200027b919062003dd1565b60405180910390f35b6200026062000631565b620002a56200029f3660046200307e565b62000778565b6040516200027b919062003f2e565b62000260620002c53660046200303f565b620007d1565b62000260620002dc3660046200338e565b620009af565b620002ec62000a2e565b6040516200027b9291906200417a565b620002606200030d3660046200331b565b62000a4c565b620002606200032436600462002da6565b62000b3f565b6200026c6200033b36600462002eb8565b62000bfd565b6200026062000352366004620031ef565b62000e8e565b620002a56200036936600462002da6565b62000fda565b6200026062000380366004620033af565b62000ff8565b6200026c620010dd565b620002a5620003a136600462002da6565b620010ec565b6200026c6200110c565b62000260620003c2366004620031ef565b62001205565b620003df620003d936600462002da6565b62001336565b6040516200027b91906200415a565b6200026c6200137d565b6200026c6200138c565b620002a5620004133660046200307e565b620013f2565b6200026c6200148b565b620002a56200149a565b620002606200043e3660046200303f565b620014aa565b620002606200045536600462002da6565b62001529565b6200026c620015e7565b6200026c6200047636600462002f71565b6200160b565b620004936200048d366004620030d2565b620018ab565b6040516200027b92919062003de1565b620004ad62001b07565b6040516200027b91906200416a565b62000260620004cd36600462002da6565b62001b0d565b62000260620004e436600462002df0565b62001c0f565b6200026c62001cb5565b620002606200050536600462003234565b62001cd9565b620002606200051c36600462003234565b62001f60565b620002606200053336600462002da6565b62002192565b620005436200138c565b6001600160a01b0316336001600160a01b0316146200057f5760405162461bcd60e51b8152600401620005769062003ff2565b60405180910390fd5b620005896200148b565b6001600160a01b03811615620005b35760405162461bcd60e51b8152600401620005769062003fce565b600080546001600160a01b0319166001600160a01b0384161790556040517f38e37d5fdf60e4358769c3b616594ad451626b1e023c65eaa1062116feadacf8906200060090849062003dd1565b60405180910390a15050565b7f00000000000000000000000000000000000000000000000000000000000000005b90565b6200063b6200060c565b6001600160a01b0316336001600160a01b0316146200066e5760405162461bcd60e51b8152600401620005769062004124565b620006786200149a565b15620006985760405162461bcd60e51b815260040162000576906200405e565b6000620006a46200148b565b6001600160a01b03161415620006ce5760405162461bcd60e51b8152600401620005769062003fbc565b6000620006da6200137d565b6001600160a01b03161415620007045760405162461bcd60e51b81526004016200057690620040a6565b600062000710620010dd565b6001600160a01b031614156200073a5760405162461bcd60e51b8152600401620005769062003f98565b6002805460ff60e01b1916600160e01b1790556040517f0356d4f8f825c1c2803d9e1f15724b6b8eea8992d04fad04da8bcbe6ff30296f90600090a1565b60006005600085856040516020016200079392919062003da7565b60408051601f1981840301815291815281516020928301208352828201939093529082016000908120858252909152205460ff1690505b9392505050565b81620007de813362002560565b6000620007ea62001cb5565b90506000816001600160a01b0316637dad9fc8866040518263ffffffff1660e01b81526004016200081c919062003dd1565b60806040518083038186803b1580156200083557600080fd5b505afa1580156200084a573d6000803e3d6000fd5b505050506040513d601f19601f8201168201806040525081019062000870919062002e5a565b50506040516338b3eb1b60e01b81529092506001600160a01b03841691506338b3eb1b90620008a6908890889060040162003ef0565b600060405180830381600087803b158015620008c157600080fd5b505af1158015620008d6573d6000803e3d6000fd5b505060405163ce5e84a360e01b81526001600160a01b038416925063ce5e84a39150620009099060019060040162003f2e565b600060405180830381600087803b1580156200092457600080fd5b505af115801562000939573d6000803e3d6000fd5b50505050620009476200137d565b6001600160a01b0316630a48e041866040518263ffffffff1660e01b815260040162000974919062003dd1565b600060405180830381600087803b1580156200098f57600080fd5b505af1158015620009a4573d6000803e3d6000fd5b505050505050505050565b620009b96200138c565b6001600160a01b0316336001600160a01b031614620009ec5760405162461bcd60e51b8152600401620005769062003ff2565b60038190556040517fa12f25dbb69b970318f8cc02d37f8cfe5bb3fec3a55630fd7e419d6dc42f1d919062000a239083906200416a565b60405180910390a150565b60025463ffffffff600160a01b8204811691600160c01b9004169091565b336001600160a01b037f0000000000000000000000000000000000000000000000000000000000000000161462000a975760405162461bcd60e51b815260040162000576906200403a565b600285600481111562000aa657fe5b1462000ab25762000b38565b6000846001600160a01b0316635a53e3486040518163ffffffff1660e01b815260040160206040518083038186803b15801562000aee57600080fd5b505afa15801562000b03573d6000803e3d6000fd5b505050506040513d601f19601f8201168201806040525081019062000b29919062002dcf565b905062000b368162002605565b505b5050505050565b62000b496200138c565b6001600160a01b0316336001600160a01b03161462000b7c5760405162461bcd60e51b8152600401620005769062003ff2565b62000b86620010dd565b6001600160a01b0381161562000bb05760405162461bcd60e51b8152600401620005769062003fce565b600280546001600160a01b0319166001600160a01b0384161790556040517f1e01982aac1b1376985c41ed48c69e04ff4c75107bfe0b8a4827693d2ddba04e906200060090849062003dd1565b60008062000c0a62002647565b905062000c18898262002560565b3062000c2362001cb5565b6001600160a01b0316633d7c74f88b6040518263ffffffff1660e01b815260040162000c50919062003dd1565b60206040518083038186803b15801562000c6957600080fd5b505afa15801562000c7e573d6000803e3d6000fd5b505050506040513d601f19601f8201168201806040525081019062000ca4919062002dcf565b6001600160a01b03161462000ccd5760405162461bcd60e51b8152600401620005769062004004565b62000cd889620010ec565b1562000cf85760405162461bcd60e51b8152600401620005769062004112565b62000d0581898962002690565b60405163397bfe5560e01b81529092506001600160a01b0383169063397bfe559062000d36908c9060040162003dd1565b600060405180830381600087803b15801562000d5157600080fd5b505af115801562000d66573d6000803e3d6000fd5b5050505062000de1828a88888080601f01602080910402602001604051908101604052809392919081815260200183838082843760009201919091525050604080516020601f8c018190048102820181019092528a815292508a91508990819084018382808284376000920191909152506200278292505050565b600062000ded62001b07565b6040805180820182526001600160a01b038681168252429390930160208083018281528f86166000818152600690935291859020935184546001600160a01b031916908716178455516001909301929092559151919350918416907fbc4a5bba58d663a7e6752f3a72d2737260a60caeec28e0bf880ee25711f7fe1e9062000e79908790869062003f0f565b60405180910390a35050979650505050505050565b62000e986200138c565b6001600160a01b0316336001600160a01b03161462000ecb5760405162461bcd60e51b8152600401620005769062003ff2565b60005b8181101562000fd55762000eff83838381811062000ee857fe5b905060200201602081019062000369919062002da6565b62000f1e5760405162461bcd60e51b81526004016200057690620040ca565b60006004600085858581811062000f3157fe5b905060200201602081019062000f48919062002da6565b6001600160a01b031681526020810191909152604001600020805460ff19169115159190911790557fe49a33dc7a73a9833a0358b29ef8d5fecbfff419af0c4fd9219f57a7147009c683838381811062000f9e57fe5b905060200201602081019062000fb5919062002da6565b60405162000fc4919062003dd1565b60405180910390a160010162000ece565b505050565b6001600160a01b031660009081526004602052604090205460ff1690565b620010026200138c565b6001600160a01b0316336001600160a01b031614620010355760405162461bcd60e51b8152600401620005769062003ff2565b60008263ffffffff1611801562001052575060008163ffffffff16115b620010715760405162461bcd60e51b8152600401620005769062004082565b6002805463ffffffff838116600160c01b0263ffffffff60c01b19918616600160a01b0263ffffffff60a01b1990931692909217161790556040517f09069ba7f5bded3e9f9f7d353e606ae6ee8496309d9cbe09241d1c741e1dceed906200060090849084906200418a565b6002546001600160a01b031690565b6001600160a01b0390811660009081526006602052604090205416151590565b600062001118620015e7565b6001600160a01b03166398a7c4c76040518163ffffffff1660e01b815260040160206040518083038186803b1580156200115157600080fd5b505afa15801562001166573d6000803e3d6000fd5b505050506040513d601f19601f820116820180604052508101906200118c919062002dcf565b6001600160a01b0316637da0a8776040518163ffffffff1660e01b815260040160206040518083038186803b158015620011c557600080fd5b505afa158015620011da573d6000803e3d6000fd5b505050506040513d601f19601f8201168201806040525081019062001200919062002dcf565b905090565b6200120f6200138c565b6001600160a01b0316336001600160a01b031614620012425760405162461bcd60e51b8152600401620005769062003ff2565b60005b8181101562000fd5576200125f83838381811062000ee857fe5b156200127f5760405162461bcd60e51b8152600401620005769062003fe0565b6001600460008585858181106200129257fe5b9050602002016020810190620012a9919062002da6565b6001600160a01b031681526020810191909152604001600020805460ff19169115159190911790557f7b322f508cd6b0cc569822d5a028bb23e6698192d88a7b9669ab48fd68916eda838383818110620012ff57fe5b905060200201602081019062001316919062002da6565b60405162001325919062003dd1565b60405180910390a160010162001245565b6200134062002bee565b506001600160a01b039081166000908152600660209081526040918290208251808401909352805490931682526001909201549181019190915290565b6001546001600160a01b031690565b6000620013986200149a565b620013af57620013a76200060c565b90506200062e565b620013b962001cb5565b6001600160a01b031663893d20e86040518163ffffffff1660e01b815260040160206040518083038186803b158015620011c557600080fd5b60008084846040516020016200140a92919062003da7565b60408051601f19818403018152918152815160209283012060008181526005845282812087825290935291205490915060ff168062001482575060008181526005602090815260408083207f5bf1898dd28c4d29f33c4c1bb9b8a7e2f6322847d70be63e8f89de024d08a669845290915290205460ff165b95945050505050565b6000546001600160a01b031690565b600254600160e01b900460ff1690565b81620014b7813362002560565b620014c162001cb5565b6001600160a01b0316639c9d48da84846040518363ffffffff1660e01b8152600401620014f092919062003ef0565b600060405180830381600087803b1580156200150b57600080fd5b505af115801562001520573d6000803e3d6000fd5b50505050505050565b620015336200138c565b6001600160a01b0316336001600160a01b031614620015665760405162461bcd60e51b8152600401620005769062003ff2565b620015706200137d565b6001600160a01b038116156200159a5760405162461bcd60e51b8152600401620005769062003fce565b600180546001600160a01b0319166001600160a01b0384161790556040517f1a8919bc714742db0ed6eb86960768bdd5103c1dabb914651aaec5796907db15906200060090849062003dd1565b7f000000000000000000000000000000000000000000000000000000000000000090565b6000620016176200149a565b620016365760405162461bcd60e51b8152600401620005769062004094565b8862001643813362002560565b6200164d62001cb5565b6001600160a01b031663d0449d3d8b6040518263ffffffff1660e01b81526004016200167a919062003dd1565b60206040518083038186803b1580156200169357600080fd5b505afa158015620016a8573d6000803e3d6000fd5b505050506040513d601f19601f82011682018060405250810190620016ce9190620032d9565b15620016ee5760405162461bcd60e51b815260040162000576906200404c565b620016fb338a8a62002690565b60405163397bfe5560e01b81529092506001600160a01b0383169063397bfe55906200172c908d9060040162003dd1565b600060405180830381600087803b1580156200174757600080fd5b505af11580156200175c573d6000803e3d6000fd5b50505050620017d7828b89898080601f01602080910402602001604051908101604052809392919081815260200183838082843760009201919091525050604080516020601f8d018190048102820181019092528b815292508b91508a90819084018382808284376000920191909152506200278292505050565b620017e162001cb5565b6001600160a01b031663d15f9b9c8b84620017fb620010dd565b876040518563ffffffff1660e01b81526004016200181d949392919062003e00565b600060405180830381600087803b1580156200183857600080fd5b505af11580156200184d573d6000803e3d6000fd5b50505050896001600160a01b0316336001600160a01b03167f7cb609d1845028175b74ce1b27f0b41ba93711f8699a747463f0cf89c5c95b818460405162001896919062003dd1565b60405180910390a35098975050505050505050565b600080620018b86200149a565b620018d75760405162461bcd60e51b8152600401620005769062004094565b6000620018e362002647565b9050620018f2818a8a62002690565b9250620019048e848f8f8f8f62002ad6565b60405163397bfe5560e01b815290925083906001600160a01b0382169063397bfe55906200193790869060040162003dd1565b600060405180830381600087803b1580156200195257600080fd5b505af115801562001967573d6000803e3d6000fd5b50505050620019e284848a8a8080601f01602080910402602001604051908101604052809392919081815260200183838082843760009201919091525050604080516020601f8e018190048102820181019092528c815292508c91508b90819084018382808284376000920191909152506200278292505050565b60405163ce5e84a360e01b81526001600160a01b0382169063ce5e84a39062001a119060009060040162003f2e565b600060405180830381600087803b15801562001a2c57600080fd5b505af115801562001a41573d6000803e3d6000fd5b5050505062001a4f6200137d565b6001600160a01b0316630a48e041846040518263ffffffff1660e01b815260040162001a7c919062003dd1565b600060405180830381600087803b15801562001a9757600080fd5b505af115801562001aac573d6000803e3d6000fd5b50505050816001600160a01b03167f04dab3bc63cc7e4b52aa28a026644559e2937d78dbf7b81e26dfecdd8bbe33b9848660405162001aed92919062003de1565b60405180910390a250509b509b9950505050505050505050565b60035490565b8062001b238162001b1d62002647565b62002560565b6001600160a01b03808316600090815260066020526040902054168062001b5e5760405162461bcd60e51b8152600401620005769062003f86565b806001600160a01b031663e53a73b96040518163ffffffff1660e01b8152600401600060405180830381600087803b15801562001b9a57600080fd5b505af115801562001baf573d6000803e3d6000fd5b505050506001600160a01b0383811660008181526006602052604080822080546001600160a01b031916815560010182905551928416927f8eae645f408f18cb738736a49846a7ccb7a4ed8cdf9b960624ea965ffbe96e919190a3505050565b336001600160a01b037f0000000000000000000000000000000000000000000000000000000000000000161462001c5a5760405162461bcd60e51b815260040162000576906200403a565b816001600160a01b031663e53a73b96040518163ffffffff1660e01b8152600401600060405180830381600087803b15801562001c9657600080fd5b505af115801562001cab573d6000803e3d6000fd5b5050505050505050565b7f000000000000000000000000000000000000000000000000000000000000000090565b62001ce36200138c565b6001600160a01b0316336001600160a01b03161462001d165760405162461bcd60e51b8152600401620005769062003ff2565b8362001d365760405162461bcd60e51b8152600401620005769062004100565b838214801562001d465750805184145b62001d655760405162461bcd60e51b8152600401620005769062004148565b60005b8481101562000b365762001dd886868381811062001d8257fe5b905060200201602081019062001d99919062002da6565b85858481811062001da657fe5b905060200201602081019062001dbd9190620032fa565b84848151811062001dca57fe5b602002602001015162000778565b62001df75760405162461bcd60e51b8152600401620005769062004016565b60006005600088888581811062001e0a57fe5b905060200201602081019062001e21919062002da6565b87878681811062001e2e57fe5b905060200201602081019062001e459190620032fa565b60405160200162001e5892919062003da7565b604051602081830303815290604052805190602001208152602001908152602001600020600084848151811062001e8b57fe5b6020026020010151815260200190815260200160002060006101000a81548160ff02191690831515021790555085858281811062001ec557fe5b905060200201602081019062001edc919062002da6565b6001600160a01b03167f845c9ef356cc5570a54e9eb6be3e6d95a2aaad4c4c7d7b2c0cf8c7cdd78d614d85858481811062001f1357fe5b905060200201602081019062001f2a9190620032fa565b84848151811062001f3757fe5b602002602001015160405162001f4f92919062003f3e565b60405180910390a260010162001d68565b62001f6a6200138c565b6001600160a01b0316336001600160a01b03161462001f9d5760405162461bcd60e51b8152600401620005769062003ff2565b8362001fbd5760405162461bcd60e51b81526004016200057690620040b8565b838214801562001fcd5750805184145b62001fec5760405162461bcd60e51b81526004016200057690620040ee565b60005b8481101562000b36576200200986868381811062001d8257fe5b15620020295760405162461bcd60e51b81526004016200057690620040dc565b6001600560008888858181106200203c57fe5b905060200201602081019062002053919062002da6565b8787868181106200206057fe5b9050602002016020810190620020779190620032fa565b6040516020016200208a92919062003da7565b6040516020818303038152906040528051906020012081526020019081526020016000206000848481518110620020bd57fe5b6020026020010151815260200190815260200160002060006101000a81548160ff021916908315150217905550858582818110620020f757fe5b90506020020160208101906200210e919062002da6565b6001600160a01b03167fb1fbe377864edcbf521713f906125bd99a3638c7a9e4087f6a70019686a741d18585848181106200214557fe5b90506020020160208101906200215c9190620032fa565b8484815181106200216957fe5b60200260200101516040516200218192919062003f3e565b60405180910390a260010162001fef565b80620021a28162001b1d62002647565b620021ac62002bee565b620021b78362001336565b80519091506001600160a01b0316620021e45760405162461bcd60e51b8152600401620005769062003faa565b80602001514210156200220b5760405162461bcd60e51b8152600401620005769062004136565b306200221662001cb5565b6001600160a01b0316633d7c74f8856040518263ffffffff1660e01b815260040162002243919062003dd1565b60206040518083038186803b1580156200225c57600080fd5b505afa15801562002271573d6000803e3d6000fd5b505050506040513d601f19601f8201168201806040525081019062002297919062002dcf565b6001600160a01b031614620022c05760405162461bcd60e51b8152600401620005769062004070565b6000836001600160a01b0316635a53e3486040518163ffffffff1660e01b815260040160206040518083038186803b158015620022fc57600080fd5b505afa15801562002311573d6000803e3d6000fd5b505050506040513d601f19601f8201168201806040525081019062002337919062002dcf565b90506000816001600160a01b031663faf9096b6040518163ffffffff1660e01b815260040160206040518083038186803b1580156200237557600080fd5b505afa1580156200238a573d6000803e3d6000fd5b505050506040513d601f19601f82011682018060405250810190620023b0919062002dcf565b9050620023bd8262002605565b8251604051633a0795ad60e11b81526001600160a01b0387169163740f2b5a91620023ec919060040162003dd1565b600060405180830381600087803b1580156200240757600080fd5b505af11580156200241c573d6000803e3d6000fd5b5050845160405163ce5e84a360e01b81526001600160a01b03909116925063ce5e84a39150620024529060019060040162003f2e565b600060405180830381600087803b1580156200246d57600080fd5b505af115801562002482573d6000803e3d6000fd5b505050506001600160a01b03811615620024fc5782516040516373eecf4760e01b81526001600160a01b03909116906373eecf4790620024c790849060040162003dd1565b600060405180830381600087803b158015620024e257600080fd5b505af1158015620024f7573d6000803e3d6000fd5b505050505b6001600160a01b0380861660008181526006602052604080822080546001600160a01b03191681556001018290558651905190841693861692917fa587629d93edeac6431610facaeec919890c8bc040ef849f720e42315148d7d991a45050505050565b604051633ef03e7560e11b81526001600160a01b03831690637de07cea906200258e90849060040162003dd1565b60206040518083038186803b158015620025a757600080fd5b505afa158015620025bc573d6000803e3d6000fd5b505050506040513d601f19601f82011682018060405250810190620025e29190620032d9565b620026015760405162461bcd60e51b8152600401620005769062004028565b5050565b6000806200261262000a2e565b60405163495abadb60e11b815291935091506001600160a01b038416906392b575b690620014f090859085906004016200417a565b600060183610801590620026755750620026606200110c565b6001600160a01b0316336001600160a01b0316145b156200268b575060131936013560601c6200062e565b503390565b6000606063399ae72460e01b8484604051602401620026b192919062003f0f565b60408051601f198184030181529190526020810180516001600160e01b03166001600160e01b031990931692909217909152905080620026f06200148b565b604051620026fe9062002c05565b6200270b92919062003f4e565b604051809103906000f08015801562002728573d6000803e3d6000fd5b509150836001600160a01b0316856001600160a01b03167f19dbe5ac5bcfdc5074f78d1e907e1dce6f6e3b50a56b50d990926abaf9c5505784866040516200277292919062003f0f565b60405180910390a3509392505050565b8151156200286557836001600160a01b031663f2d638266040518163ffffffff1660e01b815260040160206040518083038186803b158015620027c457600080fd5b505afa158015620027d9573d6000803e3d6000fd5b505050506040513d601f19601f82011682018060405250810190620027ff919062002dcf565b6001600160a01b031663f067cc118585856040518463ffffffff1660e01b8152600401620028309392919062003e8b565b600060405180830381600087803b1580156200284b57600080fd5b505af115801562002860573d6000803e3d6000fd5b505050505b836001600160a01b031663b3fc38e96040518163ffffffff1660e01b815260040160206040518083038186803b1580156200289f57600080fd5b505afa158015620028b4573d6000803e3d6000fd5b505050506040513d601f19601f82011682018060405250810190620028da919062002dcf565b6001600160a01b031663f067cc1185856040518363ffffffff1660e01b81526004016200290992919062003ebe565b600060405180830381600087803b1580156200292457600080fd5b505af115801562002939573d6000803e3d6000fd5b50505050836001600160a01b031663e7c456906040518163ffffffff1660e01b815260040160206040518083038186803b1580156200297757600080fd5b505afa1580156200298c573d6000803e3d6000fd5b505050506040513d601f19601f82011682018060405250810190620029b2919062002dcf565b6001600160a01b031663f067cc1185856040518363ffffffff1660e01b8152600401620029e192919062003ebe565b600060405180830381600087803b158015620029fc57600080fd5b505af115801562002a11573d6000803e3d6000fd5b50505050836001600160a01b031663d44ad6cb6040518163ffffffff1660e01b815260040160206040518083038186803b15801562002a4f57600080fd5b505afa15801562002a64573d6000803e3d6000fd5b505050506040513d601f19601f8201168201806040525081019062002a8a919062002dcf565b6001600160a01b031663f067cc118585846040518463ffffffff1660e01b815260040162002abb9392919062003e8b565b600060405180830381600087803b15801562001c9657600080fd5b600062002ae262001cb5565b6001600160a01b03166322a0c08b62002afa620010dd565b898989896040518663ffffffff1660e01b815260040162002b2095949392919062003e3d565b602060405180830381600087803b15801562002b3b57600080fd5b505af115801562002b50573d6000803e3d6000fd5b505050506040513d601f19601f8201168201806040525081019062002b76919062002dcf565b9050811562002be457604051635c26412360e11b81526001600160a01b0382169063b84c82469062002baf908690869060040162003f72565b600060405180830381600087803b15801562002bca57600080fd5b505af115801562002bdf573d6000803e3d6000fd5b505050505b9695505050505050565b604080518082019091526000808252602082015290565b6102e080620042f383390190565b803562002c20816200429e565b92915050565b805162002c20816200429e565b60008083601f84011262002c4657600080fd5b5081356001600160401b0381111562002c5e57600080fd5b60208301915083602082028301111562002c7757600080fd5b9250929050565b600082601f83011262002c9057600080fd5b813562002ca762002ca182620041d0565b620041a9565b9150818183526020840193506020810190508385602084028201111562002ccd57600080fd5b60005b8381101562002cfd578162002ce6888262002d21565b845250602092830192919091019060010162002cd0565b5050505092915050565b803562002c2081620042b8565b805162002c2081620042b8565b803562002c2081620042c3565b803562002c2081620042ce565b60008083601f84011262002d4e57600080fd5b5081356001600160401b0381111562002d6657600080fd5b60208301915083600182028301111562002c7757600080fd5b803562002c2081620042d9565b805162002c2081620042c3565b803562002c2081620042e7565b60006020828403121562002db957600080fd5b600062002dc7848462002c13565b949350505050565b60006020828403121562002de257600080fd5b600062002dc7848462002c26565b6000806000806080858703121562002e0757600080fd5b600062002e15878762002c13565b945050602062002e288782880162002c13565b935050604062002e3b8782880162002c13565b925050606062002e4e8782880162002c13565b91505092959194509250565b6000806000806080858703121562002e7157600080fd5b600062002e7f878762002c26565b945050602062002e928782880162002c26565b935050604062002ea58782880162002c26565b925050606062002e4e8782880162002d8c565b600080600080600080600060a0888a03121562002ed457600080fd5b600062002ee28a8a62002c13565b975050602062002ef58a828b0162002c13565b965050604062002f088a828b0162002d21565b95505060608801356001600160401b0381111562002f2557600080fd5b62002f338a828b0162002d3b565b945094505060808801356001600160401b0381111562002f5257600080fd5b62002f608a828b0162002d3b565b925092505092959891949750929550565b60008060008060008060008060c0898b03121562002f8e57600080fd5b600062002f9c8b8b62002c13565b985050602062002faf8b828c0162002c13565b975050604062002fc28b828c0162002d21565b96505060608901356001600160401b0381111562002fdf57600080fd5b62002fed8b828c0162002d3b565b955095505060808901356001600160401b038111156200300c57600080fd5b6200301a8b828c0162002d3b565b935093505060a06200302f8b828c0162002d07565b9150509295985092959890939650565b600080604083850312156200305357600080fd5b600062003061858562002c13565b9250506020620030748582860162002d07565b9150509250929050565b6000806000606084860312156200309457600080fd5b6000620030a2868662002c13565b9350506020620030b58682870162002d2e565b9250506040620030c88682870162002d21565b9150509250925092565b600080600080600080600080600080600060e08c8e031215620030f457600080fd5b6000620031028e8e62002c13565b9b505060208c01356001600160401b038111156200311f57600080fd5b6200312d8e828f0162002d3b565b9a509a505060408c01356001600160401b038111156200314c57600080fd5b6200315a8e828f0162002d3b565b985098505060606200316f8e828f0162002c13565b9650506080620031828e828f0162002d21565b95505060a08c01356001600160401b038111156200319f57600080fd5b620031ad8e828f0162002d3b565b945094505060c08c01356001600160401b03811115620031cc57600080fd5b620031da8e828f0162002d3b565b92509250509295989b509295989b9093969950565b600080602083850312156200320357600080fd5b82356001600160401b038111156200321a57600080fd5b620032288582860162002c33565b92509250509250929050565b6000806000806000606086880312156200324d57600080fd5b85356001600160401b038111156200326457600080fd5b620032728882890162002c33565b955095505060208601356001600160401b038111156200329157600080fd5b6200329f8882890162002c33565b935093505060408601356001600160401b03811115620032be57600080fd5b620032cc8882890162002c7e565b9150509295509295909350565b600060208284031215620032ec57600080fd5b600062002dc7848462002d14565b6000602082840312156200330d57600080fd5b600062002dc7848462002d2e565b600080600080600060a086880312156200333457600080fd5b600062003342888862002d7f565b9550506020620033558882890162002c13565b9450506040620033688882890162002c13565b93505060606200337b8882890162002c13565b9250506080620032cc8882890162002c13565b600060208284031215620033a157600080fd5b600062002dc7848462002d21565b60008060408385031215620033c357600080fd5b6000620033d1858562002d99565b9250506020620030748582860162002d99565b620033ef81620041fe565b82525050565b620033ef6200340482620041fe565b6200427a565b620033ef816200420b565b620033ef816200062e565b620033ef8162004210565b620033ef6200343a8262004210565b6200062e565b60006200344d82620041f1565b620034598185620041f5565b93506200346b8185602086016200424b565b62003476816200428e565b9093019392505050565b60006200348e8385620041f5565b93506200349d8385846200423f565b62003476836200428e565b6000620034b7604883620041f5565b7f63616e63656c5265636f6e66696775726174696f6e3a204e6f207265636f6e6681527f696775726174696f6e20726571756573742065786973747320666f72205f7661602082015267756c7450726f787960c01b604082015260600192915050565b600062003529602383620041f5565b7f73657452656c656173654c6976653a207661756c744c6962206973206e6f74208152621cd95d60ea1b602082015260400192915050565b600062003570604983620041f5565b7f657865637574655265636f6e66696775726174696f6e3a204e6f207265636f6e81527f66696775726174696f6e20726571756573742065786973747320666f72205f7660208201526861756c7450726f787960b81b604082015260600192915050565b6000620035e3602983620041f5565b7f73657452656c656173654c6976653a20636f6d7074726f6c6c65724c696220698152681cc81b9bdd081cd95d60ba1b602082015260400192915050565b600062003630601f83620041f5565b7f546869732076616c75652063616e206f6e6c7920626520736574206f6e636500815260200192915050565b60006200366b603b83620041f5565b7f72656769737465724275795368617265734f6e426568616c6643616c6c65727381527f3a2043616c6c657220616c726561647920726567697374657265640000000000602082015260400192915050565b6000620036cc602e83620041f5565b7f4f6e6c792074686520636f6e7472616374206f776e65722063616e2063616c6c81526d103a3434b990333ab731ba34b7b760911b602082015260400192915050565b60006200371e603c83620041f5565b7f6372656174655265636f6e66696775726174696f6e526571756573743a20566181527f756c7450726f7879206e6f74206f6e20746869732072656c6561736500000000602082015260400192915050565b60006200377f602983620041f5565b7f646572656769737465725661756c7443616c6c733a2043616c6c206e6f7420728152681959da5cdd195c995960ba1b602082015260400192915050565b6000620037cc603383620041f5565b7f4f6e6c792061207065726d697373696f6e6564206d69677261746f722063616e8152721031b0b636103a3434b990333ab731ba34b7b760691b602082015260400192915050565b600062003823602683620041f5565b7f4f6e6c7920446973706174636865722063616e2063616c6c20746869732066758152653731ba34b7b760d11b602082015260400192915050565b60006200386d603983620041f5565b7f6372656174654d6967726174696f6e526571756573743a2041204d696772617481527f696f6e5265717565737420616c72656164792065786973747300000000000000602082015260400192915050565b6000620038ce601c83620041f5565b7f73657452656c656173654c6976653a20416c7265616479206c69766500000000815260200192915050565b600062003909604083620041f5565b7f657865637574655265636f6e66696775726174696f6e3a205f7661756c74507281527f6f7879206973206e6f206c6f6e676572206f6e20746869732072656c65617365602082015260400192915050565b60006200396a603383620041f5565b7f7365744761734c696d697473466f72446573747275637443616c6c3a205a65728152721bc81d985b1d59481b9bdd08185b1b1bddd959606a1b602082015260400192915050565b6000620039c1601783620041f5565b7f52656c65617365206973206e6f7420796574206c697665000000000000000000815260200192915050565b6000620039fc602d83620041f5565b7f73657452656c656173654c6976653a2070726f746f636f6c466565547261636b81526c195c881a5cc81b9bdd081cd95d609a1b602082015260400192915050565b600062003a4d602483620041f5565b7f72656769737465725661756c7443616c6c733a20456d707479205f636f6e74728152636163747360e01b602082015260400192915050565b600062002c20600083620041f5565b600062003aa4603983620041f5565b7f646572656769737465724275795368617265734f6e426568616c6643616c6c6581527f72733a2043616c6c6572206e6f74207265676973746572656400000000000000602082015260400192915050565b600062003b05602b83620041f5565b7f72656769737465725661756c7443616c6c733a2043616c6c20616c726561647981526a081c9959da5cdd195c995960aa1b602082015260400192915050565b600062003b54602783620041f5565b7f72656769737465725661756c7443616c6c733a20556e6576656e20696e7075748152662061727261797360c81b602082015260400192915050565b600062003b9f602683620041f5565b7f646572656769737465725661756c7443616c6c733a20456d707479205f636f6e81526574726163747360d01b602082015260400192915050565b600062003be9604e83620041f5565b7f6372656174655265636f6e66696775726174696f6e526571756573743a20566181527f756c7450726f78792068617320612070656e64696e67207265636f6e6669677560208201526d1c985d1a5bdb881c995c5d595cdd60921b604082015260600192915050565b600062003c61603783620041f5565b7f73657452656c656173654c6976653a204f6e6c79207468652063726561746f7281527f2063616e2063616c6c20746869732066756e6374696f6e000000000000000000602082015260400192915050565b600062003cc2604483620041f5565b7f657865637574655265636f6e66696775726174696f6e3a20546865207265636f81527f6e66696775726174696f6e2074696d656c6f636b20686173206e6f7420656c616020820152631c1cd95960e21b604082015260600192915050565b600062003d30602983620041f5565b7f646572656769737465725661756c7443616c6c733a20556e6576656e20696e7081526875742061727261797360b81b602082015260400192915050565b8051604083019062003d818482620033e4565b50602082015162003d96602085018262003415565b50505050565b620033ef8162004232565b600062003db58285620033f5565b60148201915062003dc782846200342b565b5060040192915050565b6020810162002c208284620033e4565b6040810162003df18285620033e4565b620007ca6020830184620033e4565b6080810162003e108287620033e4565b62003e1f6020830186620033e4565b62003e2e6040830185620033e4565b6200148260608301846200340a565b6080810162003e4d8288620033e4565b62003e5c6020830187620033e4565b62003e6b6040830186620033e4565b818103606083015262003e8081848662003480565b979650505050505050565b6060810162003e9b8286620033e4565b62003eaa6020830185620033e4565b818103604083015262001482818462003440565b6060810162003ece8285620033e4565b62003edd6020830184620033e4565b818103604083015262002dc78162003a86565b6040810162003f008285620033e4565b620007ca60208301846200340a565b6040810162003f1f8285620033e4565b620007ca602083018462003415565b6020810162002c2082846200340a565b6040810162003f1f828562003420565b6040808252810162003f61818562003440565b9050620007ca6020830184620033e4565b6020808252810162002dc781848662003480565b6020808252810162002c2081620034a8565b6020808252810162002c20816200351a565b6020808252810162002c208162003561565b6020808252810162002c2081620035d4565b6020808252810162002c208162003621565b6020808252810162002c20816200365c565b6020808252810162002c2081620036bd565b6020808252810162002c20816200370f565b6020808252810162002c208162003770565b6020808252810162002c2081620037bd565b6020808252810162002c208162003814565b6020808252810162002c20816200385e565b6020808252810162002c2081620038bf565b6020808252810162002c2081620038fa565b6020808252810162002c20816200395b565b6020808252810162002c2081620039b2565b6020808252810162002c2081620039ed565b6020808252810162002c208162003a3e565b6020808252810162002c208162003a95565b6020808252810162002c208162003af6565b6020808252810162002c208162003b45565b6020808252810162002c208162003b90565b6020808252810162002c208162003bda565b6020808252810162002c208162003c52565b6020808252810162002c208162003cb3565b6020808252810162002c208162003d21565b6040810162002c20828462003d6e565b6020810162002c20828462003415565b6040810162003f1f828562003415565b604081016200419a828562003d9c565b620007ca602083018462003d9c565b6040518181016001600160401b0381118282101715620041c857600080fd5b604052919050565b60006001600160401b03821115620041e757600080fd5b5060209081020190565b5190565b90815260200190565b600062002c20826200421d565b151590565b6001600160e01b03191690565b6001600160a01b031690565b63ffffffff1690565b600062002c208262004229565b82818337506000910152565b60005b83811015620042685781810151838201526020016200424e565b8381111562003d965750506000910152565b600062002c2082600062002c208262004298565b601f01601f191690565b60601b90565b620042a981620041fe565b8114620042b557600080fd5b50565b620042a9816200420b565b620042a9816200062e565b620042a98162004210565b60058110620042b557600080fd5b620042a9816200422956fe60a060405234801561001057600080fd5b506040516102e03803806102e08339818101604052604081101561003357600080fd5b810190808051604051939291908464010000000082111561005357600080fd5b90830190602082018581111561006857600080fd5b825164010000000081118282018810171561008257600080fd5b82525081516020918201929091019080838360005b838110156100af578181015183820152602001610097565b50505050905090810190601f1680156100dc5780820380516001836020036101000a031916815260200191505b50604052602001805190602001909291905050508181806001600160a01b03166080816001600160a01b031660601b81525050807f360894a13ba1a3210667c828492db98dca3e2076cc3735a920a3ca505d382bbc5560006060826001600160a01b0316846040518082805190602001908083835b602083106101705780518252601f199092019160209182019101610151565b6001836020036101000a038019825116818451168082178552505050505050905001915050600060405180830381855af49150503d80600081146101d0576040519150601f19603f3d011682016040523d82523d6000602084013e6101d5565b606091505b50915091508181906102655760405162461bcd60e51b81526004018080602001828103825283818151815260200191508051906020019080838360005b8381101561022a578181015183820152602001610212565b50505050905090810190601f1680156102575780820380516001836020036101000a031916815260200191505b509250505060405180910390fd5b5050505050505060805160601c605a6102866000398060065250605a6000f3fe60806040527f00000000000000000000000000000000000000000000000000000000000000003660008037600080366000846127105a03f43d806000803e818015604857816000f35b816000fdfea164736f6c634300060c000aa164736f6c634300060c000a","linkReferences":{}},"methodIdentifiers":{"cancelMigration(address,bool)":"9c9d48da","cancelReconfiguration(address)":"d5189add","createMigrationRequest(address,address,uint256,bytes,bytes,bool)":"b8f8a84c","createNewFund(address,string,string,address,uint256,bytes,bytes)":"c83980dd","createReconfigurationRequest(address,address,uint256,bytes,bytes)":"4348ab62","deregisterBuySharesOnBehalfCallers(address[])":"4bacc5f7","deregisterVaultCalls(address[],bytes4[],bytes32[])":"ed9eeb7f","executeMigration(address,bool)":"38b3eb1b","executeReconfiguration(address)":"ff845718","getComptrollerLib()":"93a2ecd9","getCreator()":"0ee2cb10","getDispatcher()":"ebb3d589","getGasLimitsForDestructCall()":"3d0d4abb","getGasRelayPaymasterFactory()":"ac259456","getGasRelayTrustedForwarder()":"6ea21143","getOwner()":"893d20e8","getProtocolFeeTracker()":"749cc8f5","getReconfigurationRequestForVaultProxy(address)":"72eb5f2b","getReconfigurationTimelock()":"cebffb58","getVaultLib()":"682cea19","hasReconfigurationRequest(address)":"6c579e57","invokeMigrationInCancelHook(address,address,address,address)":"df369ba7","invokeMigrationOutHook(uint8,address,address,address,address)":"3f84c12c","isAllowedBuySharesOnBehalfCaller(address)":"54391f09","isAllowedVaultCall(address,bytes4,bytes32)":"8c500ea3","isRegisteredVaultCall(address,bytes4,bytes32)":"36b4ea4f","registerBuySharesOnBehalfCallers(address[])":"6f2b7574","registerVaultCalls(address[],bytes4[],bytes32[])":"efcde9e3","releaseIsLive()":"98f0d4bb","setComptrollerLib(address)":"0d2fcd76","setGasLimitsForDestructCall(uint32,uint32)":"575403dc","setProtocolFeeTracker(address)":"9f9df785","setReconfigurationTimelock(uint256)":"3b30dce7","setReleaseLive()":"164dd2d4","setVaultLib(address)":"4140d607"},"id":130}