{"abi":[{"type":"constructor","inputs":[{"name":"_dispatcher","type":"address","internalType":"address"},{"name":"_gasRelayPaymasterFactory","type":"address","internalType":"address"}],"stateMutability":"nonpayable"},{"type":"function","name":"cancelMigration","inputs":[{"name":"_vaultProxy","type":"address","internalType":"address"},{"name":"_bypassPrevReleaseFailure","type":"bool","internalType":"bool"}],"outputs":[],"stateMutability":"nonpayable"},{"type":"function","name":"cancelReconfiguration","inputs":[{"name":"_vaultProxy","type":"address","internalType":"address"}],"outputs":[],"stateMutability":"nonpayable"},{"type":"function","name":"createMigrationRequest","inputs":[{"name":"_vaultProxy","type":"address","internalType":"address"},{"name":"_denominationAsset","type":"address","internalType":"address"},{"name":"_sharesActionTimelock","type":"uint256","internalType":"uint256"},{"name":"_feeManagerConfigData","type":"bytes","internalType":"bytes"},{"name":"_policyManagerConfigData","type":"bytes","internalType":"bytes"},{"name":"_bypassPrevReleaseFailure","type":"bool","internalType":"bool"}],"outputs":[{"name":"comptrollerProxy_","type":"address","internalType":"address"}],"stateMutability":"nonpayable"},{"type":"function","name":"createNewFund","inputs":[{"name":"_fundOwner","type":"address","internalType":"address"},{"name":"_fundName","type":"string","internalType":"string"},{"name":"_fundSymbol","type":"string","internalType":"string"},{"name":"_denominationAsset","type":"address","internalType":"address"},{"name":"_sharesActionTimelock","type":"uint256","internalType":"uint256"},{"name":"_feeManagerConfigData","type":"bytes","internalType":"bytes"},{"name":"_policyManagerConfigData","type":"bytes","internalType":"bytes"}],"outputs":[{"name":"comptrollerProxy_","type":"address","internalType":"address"},{"name":"vaultProxy_","type":"address","internalType":"address"}],"stateMutability":"nonpayable"},{"type":"function","name":"createReconfigurationRequest","inputs":[{"name":"_vaultProxy","type":"address","internalType":"address"},{"name":"_denominationAsset","type":"address","internalType":"address"},{"name":"_sharesActionTimelock","type":"uint256","internalType":"uint256"},{"name":"_feeManagerConfigData","type":"bytes","internalType":"bytes"},{"name":"_policyManagerConfigData","type":"bytes","internalType":"bytes"}],"outputs":[{"name":"comptrollerProxy_","type":"address","internalType":"address"}],"stateMutability":"nonpayable"},{"type":"function","name":"deregisterBuySharesOnBehalfCallers","inputs":[{"name":"_callers","type":"address[]","internalType":"address[]"}],"outputs":[],"stateMutability":"nonpayable"},{"type":"function","name":"deregisterVaultCalls","inputs":[{"name":"_contracts","type":"address[]","internalType":"address[]"},{"name":"_selectors","type":"bytes4[]","internalType":"bytes4[]"},{"name":"_dataHashes","type":"bytes32[]","internalType":"bytes32[]"}],"outputs":[],"stateMutability":"nonpayable"},{"type":"function","name":"executeMigration","inputs":[{"name":"_vaultProxy","type":"address","internalType":"address"},{"name":"_bypassPrevReleaseFailure","type":"bool","internalType":"bool"}],"outputs":[],"stateMutability":"nonpayable"},{"type":"function","name":"executeReconfiguration","inputs":[{"name":"_vaultProxy","type":"address","internalType":"address"}],"outputs":[],"stateMutability":"nonpayable"},{"type":"function","name":"getComptrollerLib","inputs":[],"outputs":[{"name":"comptrollerLib_","type":"address","internalType":"address"}],"stateMutability":"view"},{"type":"function","name":"getCreator","inputs":[],"outputs":[{"name":"creator_","type":"address","internalType":"address"}],"stateMutability":"view"},{"type":"function","name":"getDispatcher","inputs":[],"outputs":[{"name":"dispatcher_","type":"address","internalType":"address"}],"stateMutability":"view"},{"type":"function","name":"getGasLimitsForDestructCall","inputs":[],"outputs":[{"name":"deactivateFeeManagerGasLimit_","type":"uint256","internalType":"uint256"},{"name":"payProtocolFeeGasLimit_","type":"uint256","internalType":"uint256"}],"stateMutability":"view"},{"type":"function","name":"getGasRelayPaymasterFactory","inputs":[],"outputs":[{"name":"gasRelayPaymasterFactory_","type":"address","internalType":"address"}],"stateMutability":"view"},{"type":"function","name":"getGasRelayTrustedForwarder","inputs":[],"outputs":[{"name":"trustedForwarder_","type":"address","internalType":"address"}],"stateMutability":"view"},{"type":"function","name":"getOwner","inputs":[],"outputs":[{"name":"owner_","type":"address","internalType":"address"}],"stateMutability":"view"},{"type":"function","name":"getProtocolFeeTracker","inputs":[],"outputs":[{"name":"protocolFeeTracker_","type":"address","internalType":"address"}],"stateMutability":"view"},{"type":"function","name":"getReconfigurationRequestForVaultProxy","inputs":[{"name":"_vaultProxy","type":"address","internalType":"address"}],"outputs":[{"name":"reconfigurationRequest_","type":"tuple","internalType":"struct IFundDeployer.ReconfigurationRequest","components":[{"name":"nextComptrollerProxy","type":"address","internalType":"address"},{"name":"executableTimestamp","type":"uint256","internalType":"uint256"}]}],"stateMutability":"view"},{"type":"function","name":"getReconfigurationTimelock","inputs":[],"outputs":[{"name":"reconfigurationTimelock_","type":"uint256","internalType":"uint256"}],"stateMutability":"view"},{"type":"function","name":"getVaultLib","inputs":[],"outputs":[{"name":"vaultLib_","type":"address","internalType":"address"}],"stateMutability":"view"},{"type":"function","name":"hasReconfigurationRequest","inputs":[{"name":"_vaultProxy","type":"address","internalType":"address"}],"outputs":[{"name":"hasReconfigurationRequest_","type":"bool","internalType":"bool"}],"stateMutability":"view"},{"type":"function","name":"invokeMigrationInCancelHook","inputs":[{"name":"","type":"address","internalType":"address"},{"name":"","type":"address","internalType":"address"},{"name":"_nextComptrollerProxy","type":"address","internalType":"address"},{"name":"","type":"address","internalType":"address"}],"outputs":[],"stateMutability":"nonpayable"},{"type":"function","name":"invokeMigrationOutHook","inputs":[{"name":"_hook","type":"uint8","internalType":"enum IMigrationHookHandler.MigrationOutHook"},{"name":"_vaultProxy","type":"address","internalType":"address"},{"name":"","type":"address","internalType":"address"},{"name":"","type":"address","internalType":"address"},{"name":"","type":"address","internalType":"address"}],"outputs":[],"stateMutability":"nonpayable"},{"type":"function","name":"isAllowedBuySharesOnBehalfCaller","inputs":[{"name":"_who","type":"address","internalType":"address"}],"outputs":[{"name":"isAllowed_","type":"bool","internalType":"bool"}],"stateMutability":"view"},{"type":"function","name":"isAllowedVaultCall","inputs":[{"name":"_contract","type":"address","internalType":"address"},{"name":"_selector","type":"bytes4","internalType":"bytes4"},{"name":"_dataHash","type":"bytes32","internalType":"bytes32"}],"outputs":[{"name":"isAllowed_","type":"bool","internalType":"bool"}],"stateMutability":"view"},{"type":"function","name":"isRegisteredVaultCall","inputs":[{"name":"_contract","type":"address","internalType":"address"},{"name":"_selector","type":"bytes4","internalType":"bytes4"},{"name":"_dataHash","type":"bytes32","internalType":"bytes32"}],"outputs":[{"name":"isRegistered_","type":"bool","internalType":"bool"}],"stateMutability":"view"},{"type":"function","name":"registerBuySharesOnBehalfCallers","inputs":[{"name":"_callers","type":"address[]","internalType":"address[]"}],"outputs":[],"stateMutability":"nonpayable"},{"type":"function","name":"registerVaultCalls","inputs":[{"name":"_contracts","type":"address[]","internalType":"address[]"},{"name":"_selectors","type":"bytes4[]","internalType":"bytes4[]"},{"name":"_dataHashes","type":"bytes32[]","internalType":"bytes32[]"}],"outputs":[],"stateMutability":"nonpayable"},{"type":"function","name":"releaseIsLive","inputs":[],"outputs":[{"name":"isLive_","type":"bool","internalType":"bool"}],"stateMutability":"view"},{"type":"function","name":"setComptrollerLib","inputs":[{"name":"_comptrollerLib","type":"address","internalType":"address"}],"outputs":[],"stateMutability":"nonpayable"},{"type":"function","name":"setGasLimitsForDestructCall","inputs":[{"name":"_nextDeactivateFeeManagerGasLimit","type":"uint32","internalType":"uint32"},{"name":"_nextPayProtocolFeeGasLimit","type":"uint32","internalType":"uint32"}],"outputs":[],"stateMutability":"nonpayable"},{"type":"function","name":"setProtocolFeeTracker","inputs":[{"name":"_protocolFeeTracker","type":"address","internalType":"address"}],"outputs":[],"stateMutability":"nonpayable"},{"type":"function","name":"setReconfigurationTimelock","inputs":[{"name":"_nextTimelock","type":"uint256","internalType":"uint256"}],"outputs":[],"stateMutability":"nonpayable"},{"type":"function","name":"setReleaseLive","inputs":[],"outputs":[],"stateMutability":"nonpayable"},{"type":"function","name":"setVaultLib","inputs":[{"name":"_vaultLib","type":"address","internalType":"address"}],"outputs":[],"stateMutability":"nonpayable"},{"type":"event","name":"BuySharesOnBehalfCallerDeregistered","inputs":[{"name":"caller","type":"address","indexed":false,"internalType":"address"}],"anonymous":false},{"type":"event","name":"BuySharesOnBehalfCallerRegistered","inputs":[{"name":"caller","type":"address","indexed":false,"internalType":"address"}],"anonymous":false},{"type":"event","name":"ComptrollerLibSet","inputs":[{"name":"comptrollerLib","type":"address","indexed":false,"internalType":"address"}],"anonymous":false},{"type":"event","name":"ComptrollerProxyDeployed","inputs":[{"name":"creator","type":"address","indexed":true,"internalType":"address"},{"name":"comptrollerProxy","type":"address","indexed":false,"internalType":"address"},{"name":"denominationAsset","type":"address","indexed":true,"internalType":"address"},{"name":"sharesActionTimelock","type":"uint256","indexed":false,"internalType":"uint256"}],"anonymous":false},{"type":"event","name":"GasLimitsForDestructCallSet","inputs":[{"name":"nextDeactivateFeeManagerGasLimit","type":"uint256","indexed":false,"internalType":"uint256"},{"name":"nextPayProtocolFeeGasLimit","type":"uint256","indexed":false,"internalType":"uint256"}],"anonymous":false},{"type":"event","name":"MigrationRequestCreated","inputs":[{"name":"creator","type":"address","indexed":true,"internalType":"address"},{"name":"vaultProxy","type":"address","indexed":true,"internalType":"address"},{"name":"comptrollerProxy","type":"address","indexed":false,"internalType":"address"}],"anonymous":false},{"type":"event","name":"NewFundCreated","inputs":[{"name":"creator","type":"address","indexed":true,"internalType":"address"},{"name":"vaultProxy","type":"address","indexed":false,"internalType":"address"},{"name":"comptrollerProxy","type":"address","indexed":false,"internalType":"address"}],"anonymous":false},{"type":"event","name":"ProtocolFeeTrackerSet","inputs":[{"name":"protocolFeeTracker","type":"address","indexed":false,"internalType":"address"}],"anonymous":false},{"type":"event","name":"ReconfigurationRequestCancelled","inputs":[{"name":"vaultProxy","type":"address","indexed":true,"internalType":"address"},{"name":"nextComptrollerProxy","type":"address","indexed":true,"internalType":"address"}],"anonymous":false},{"type":"event","name":"ReconfigurationRequestCreated","inputs":[{"name":"creator","type":"address","indexed":true,"internalType":"address"},{"name":"vaultProxy","type":"address","indexed":true,"internalType":"address"},{"name":"comptrollerProxy","type":"address","indexed":false,"internalType":"address"},{"name":"executableTimestamp","type":"uint256","indexed":false,"internalType":"uint256"}],"anonymous":false},{"type":"event","name":"ReconfigurationRequestExecuted","inputs":[{"name":"vaultProxy","type":"address","indexed":true,"internalType":"address"},{"name":"prevComptrollerProxy","type":"address","indexed":true,"internalType":"address"},{"name":"nextComptrollerProxy","type":"address","indexed":true,"internalType":"address"}],"anonymous":false},{"type":"event","name":"ReconfigurationTimelockSet","inputs":[{"name":"nextTimelock","type":"uint256","indexed":false,"internalType":"uint256"}],"anonymous":false},{"type":"event","name":"ReleaseIsLive","inputs":[],"anonymous":false},{"type":"event","name":"VaultCallDeregistered","inputs":[{"name":"contractAddress","type":"address","indexed":true,"internalType":"address"},{"name":"selector","type":"bytes4","indexed":false,"internalType":"bytes4"},{"name":"dataHash","type":"bytes32","indexed":false,"internalType":"bytes32"}],"anonymous":false},{"type":"event","name":"VaultCallRegistered","inputs":[{"name":"contractAddress","type":"address","indexed":true,"internalType":"address"},{"name":"selector","type":"bytes4","indexed":false,"internalType":"bytes4"},{"name":"dataHash","type":"bytes32","indexed":false,"internalType":"bytes32"}],"anonymous":false},{"type":"event","name":"VaultLibSet","inputs":[{"name":"vaultLib","type":"address","indexed":false,"internalType":"address"}],"anonymous":false}],"bytecode":{"object":"0x60e06040523480156200001157600080fd5b5060405162006524380380620065248339818101604052810190620000379190620001dd565b808073ffffffffffffffffffffffffffffffffffffffff1660808173ffffffffffffffffffffffffffffffffffffffff1660601b81525050506040516020016200008190620002c8565b604051602081830303815290604052805190602001207f5bf1898dd28c4d29f33c4c1bb9b8a7e2f6322847d70be63e8f89de024d08a66960001b14620000fe576040517f08c379a0000000000000000000000000000000000000000000000000000000008152600401620000f590620002df565b60405180910390fd5b3373ffffffffffffffffffffffffffffffffffffffff1660a08173ffffffffffffffffffffffffffffffffffffffff1660601b815250508173ffffffffffffffffffffffffffffffffffffffff1660c08173ffffffffffffffffffffffffffffffffffffffff1660601b81525050620493e0600260146101000a81548163ffffffff021916908363ffffffff16021790555062030d40600260186101000a81548163ffffffff021916908363ffffffff1602179055506202a30060038190555050506200036b565b600081519050620001d78162000351565b92915050565b60008060408385031215620001f157600080fd5b60006200020185828601620001c6565b92505060206200021485828601620001c6565b9150509250929050565b60006200022d60118362000312565b91507f6d6c6e2e7661756c7443616c6c2e616e790000000000000000000000000000006000830152601182019050919050565b60006200026f60258362000301565b91507f636f6e7374727563746f723a20496e636f727265637420414e595f5641554c5460008301527f5f43414c4c0000000000000000000000000000000000000000000000000000006020830152604082019050919050565b6000620002d5826200021e565b9150819050919050565b60006020820190508181036000830152620002fa8162000260565b9050919050565b600082825260208201905092915050565b600081905092915050565b60006200032a8262000331565b9050919050565b600073ffffffffffffffffffffffffffffffffffffffff82169050919050565b6200035c816200031d565b81146200036857600080fd5b50565b60805160601c60a05160601c60c05160601c616179620003ab60003980610ef652806129e35280612ade5250806108d452508061217852506161796000f3fe60806040523480156200001157600080fd5b5060043610620002445760003560e01c806372eb5f2b1162000141578063b8f8a84c11620000bd578063df369ba71162000087578063df369ba714620006bb578063ebb3d58914620006db578063ed9eeb7f14620006fd578063efcde9e3146200071d578063ff845718146200073d5762000244565b8063b8f8a84c146200060c578063c83980dd1462000642578063cebffb581462000679578063d5189add146200069b5762000244565b806393a2ecd9116200010b57806393a2ecd9146200056657806398f0d4bb14620005885780639c9d48da14620005aa5780639f9df78514620005ca578063ac25945614620005ea5762000244565b806372eb5f2b14620004b6578063749cc8f514620004ec578063893d20e8146200050e5780638c500ea314620005305762000244565b80634140d60711620001d1578063575403dc116200019b578063575403dc14620003fc578063682cea19146200041c5780636c579e57146200043e5780636ea2114314620004745780636f2b757414620004965762000244565b80634140d60714620003505780634348ab6214620003705780634bacc5f714620003a657806354391f0914620003c65762000244565b806338b3eb1b116200021357806338b3eb1b14620002cd5780633b30dce714620002ed5780633d0d4abb146200030d5780633f84c12c14620003305762000244565b80630d2fcd7614620002495780630ee2cb101462000269578063164dd2d4146200028b57806336b4ea4f1462000297575b600080fd5b62000267600480360381019062000261919062004235565b6200075d565b005b62000273620008d0565b60405162000282919062005550565b60405180910390f35b62000295620008f8565b005b620002b56004803603810190620002af919062004535565b62000b7c565b604051620002c491906200571d565b60405180910390f35b620002eb6004803603810190620002e59190620044f4565b62000be3565b005b6200030b60048036038101906200030591906200487c565b62000df4565b005b6200031762000eb1565b6040516200032792919062005b6f565b60405180910390f35b6200034e6004803603810190620003489190620047fa565b62000ef4565b005b6200036e600480360381019062000368919062004235565b62001046565b005b6200038e600480360381019062000388919062004365565b620011ba565b6040516200039d919062005550565b60405180910390f35b620003c46004803603810190620003be9190620046ae565b62001583565b005b620003e46004803603810190620003de919062004235565b62001766565b604051620003f391906200571d565b60405180910390f35b6200041a6004803603810190620004149190620048a8565b620017bc565b005b6200042662001916565b60405162000435919062005550565b60405180910390f35b6200045c600480360381019062000456919062004235565b62001940565b6040516200046b91906200571d565b60405180910390f35b6200047e620019db565b6040516200048d919062005550565b60405180910390f35b620004b46004803603810190620004ae9190620046ae565b62001aee565b005b620004d46004803603810190620004ce919062004235565b62001cd2565b604051620004e3919062005b35565b60405180910390f35b620004f662001d8d565b60405162000505919062005550565b60405180910390f35b6200051862001db7565b60405162000527919062005550565b60405180910390f35b6200054e600480360381019062000548919062004535565b62001e6b565b6040516200055d91906200571d565b60405180910390f35b6200057062001f34565b6040516200057f919062005550565b60405180910390f35b6200059262001f5d565b604051620005a191906200571d565b60405180910390f35b620005c86004803603810190620005c29190620044f4565b62001f74565b005b620005e86004803603810190620005e2919062004235565b62002000565b005b620005f462002174565b60405162000603919062005550565b60405180910390f35b6200062a600480360381019062000624919062004422565b6200219c565b60405162000639919062005550565b60405180910390f35b6200066060048036038101906200065a91906200458b565b620024e1565b604051620006709291906200556d565b60405180910390f35b62000683620027b5565b60405162000692919062005b52565b60405180910390f35b620006b96004803603810190620006b3919062004235565b620027bf565b005b620006d96004803603810190620006d391906200428d565b620029e1565b005b620006e562002ada565b604051620006f4919062005550565b60405180910390f35b6200071b6004803603810190620007159190620046f7565b62002b02565b005b6200073b6004803603810190620007359190620046f7565b62002e5b565b005b6200075b600480360381019062000755919062004235565b620031b5565b005b6200076762001db7565b73ffffffffffffffffffffffffffffffffffffffff163373ffffffffffffffffffffffffffffffffffffffff1614620007d7576040517f08c379a0000000000000000000000000000000000000000000000000000000008152600401620007ce906200588d565b60405180910390fd5b620007e162001f34565b600073ffffffffffffffffffffffffffffffffffffffff168173ffffffffffffffffffffffffffffffffffffffff161462000853576040517f08c379a00000000000000000000000000000000000000000000000000000000081526004016200084a9062005849565b60405180910390fd5b816000806101000a81548173ffffffffffffffffffffffffffffffffffffffff021916908373ffffffffffffffffffffffffffffffffffffffff1602179055507f38e37d5fdf60e4358769c3b616594ad451626b1e023c65eaa1062116feadacf882604051620008c4919062005550565b60405180910390a15050565b60007f0000000000000000000000000000000000000000000000000000000000000000905090565b62000902620008d0565b73ffffffffffffffffffffffffffffffffffffffff163373ffffffffffffffffffffffffffffffffffffffff161462000972576040517f08c379a0000000000000000000000000000000000000000000000000000000008152600401620009699062005acf565b60405180910390fd5b6200097c62001f5d565b15620009bf576040517f08c379a0000000000000000000000000000000000000000000000000000000008152600401620009b69062005959565b60405180910390fd5b600073ffffffffffffffffffffffffffffffffffffffff16620009e162001f34565b73ffffffffffffffffffffffffffffffffffffffff16141562000a3b576040517f08c379a000000000000000000000000000000000000000000000000000000000815260040162000a329062005827565b60405180910390fd5b600073ffffffffffffffffffffffffffffffffffffffff1662000a5d62001d8d565b73ffffffffffffffffffffffffffffffffffffffff16141562000ab7576040517f08c379a000000000000000000000000000000000000000000000000000000000815260040162000aae90620059e1565b60405180910390fd5b600073ffffffffffffffffffffffffffffffffffffffff1662000ad962001916565b73ffffffffffffffffffffffffffffffffffffffff16141562000b33576040517f08c379a000000000000000000000000000000000000000000000000000000000815260040162000b2a90620057e3565b60405180910390fd5b60016002601c6101000a81548160ff0219169083151502179055507f0356d4f8f825c1c2803d9e1f15724b6b8eea8992d04fad04da8bcbe6ff30296f60405160405180910390a1565b600060056000858560405160200162000b9792919062005520565b604051602081830303815290604052805190602001208152602001908152602001600020600083815260200190815260200160002060009054906101000a900460ff1690509392505050565b8162000bf081336200373f565b600062000bfc62002ada565b905060008173ffffffffffffffffffffffffffffffffffffffff16637dad9fc8866040518263ffffffff1660e01b815260040162000c3b919062005550565b60806040518083038186803b15801562000c5457600080fd5b505afa15801562000c69573d6000803e3d6000fd5b505050506040513d601f19601f8201168201806040525081019062000c8f9190620042f9565b50509150508173ffffffffffffffffffffffffffffffffffffffff166338b3eb1b86866040518363ffffffff1660e01b815260040162000cd1929190620056c3565b600060405180830381600087803b15801562000cec57600080fd5b505af115801562000d01573d6000803e3d6000fd5b505050508073ffffffffffffffffffffffffffffffffffffffff1663ce5e84a360016040518263ffffffff1660e01b815260040162000d4191906200571d565b600060405180830381600087803b15801562000d5c57600080fd5b505af115801562000d71573d6000803e3d6000fd5b5050505062000d7f62001d8d565b73ffffffffffffffffffffffffffffffffffffffff16630a48e041866040518263ffffffff1660e01b815260040162000db9919062005550565b600060405180830381600087803b15801562000dd457600080fd5b505af115801562000de9573d6000803e3d6000fd5b505050505050505050565b62000dfe62001db7565b73ffffffffffffffffffffffffffffffffffffffff163373ffffffffffffffffffffffffffffffffffffffff161462000e6e576040517f08c379a000000000000000000000000000000000000000000000000000000000815260040162000e65906200588d565b60405180910390fd5b806003819055507fa12f25dbb69b970318f8cc02d37f8cfe5bb3fec3a55630fd7e419d6dc42f1d918160405162000ea6919062005b52565b60405180910390a150565b600080600260149054906101000a900463ffffffff16600260189054906101000a900463ffffffff168163ffffffff1691508063ffffffff169050915091509091565b7f000000000000000000000000000000000000000000000000000000000000000073ffffffffffffffffffffffffffffffffffffffff163373ffffffffffffffffffffffffffffffffffffffff161462000f85576040517f08c379a000000000000000000000000000000000000000000000000000000000815260040162000f7c9062005915565b60405180910390fd5b6002600481111562000f9357fe5b85600481111562000fa057fe5b1462000fac576200103f565b60008473ffffffffffffffffffffffffffffffffffffffff16635a53e3486040518163ffffffff1660e01b815260040160206040518083038186803b15801562000ff557600080fd5b505afa1580156200100a573d6000803e3d6000fd5b505050506040513d601f19601f8201168201806040525081019062001030919062004261565b90506200103d8162003814565b505b5050505050565b6200105062001db7565b73ffffffffffffffffffffffffffffffffffffffff163373ffffffffffffffffffffffffffffffffffffffff1614620010c0576040517f08c379a0000000000000000000000000000000000000000000000000000000008152600401620010b7906200588d565b60405180910390fd5b620010ca62001916565b600073ffffffffffffffffffffffffffffffffffffffff168173ffffffffffffffffffffffffffffffffffffffff16146200113c576040517f08c379a0000000000000000000000000000000000000000000000000000000008152600401620011339062005849565b60405180910390fd5b81600260006101000a81548173ffffffffffffffffffffffffffffffffffffffff021916908373ffffffffffffffffffffffffffffffffffffffff1602179055507f1e01982aac1b1376985c41ed48c69e04ff4c75107bfe0b8a4827693d2ddba04e82604051620011ae919062005550565b60405180910390a15050565b600080620011c76200389b565b9050620011d589826200373f565b3073ffffffffffffffffffffffffffffffffffffffff16620011f662002ada565b73ffffffffffffffffffffffffffffffffffffffff16633d7c74f88b6040518263ffffffff1660e01b815260040162001230919062005550565b60206040518083038186803b1580156200124957600080fd5b505afa1580156200125e573d6000803e3d6000fd5b505050506040513d601f19601f8201168201806040525081019062001284919062004261565b73ffffffffffffffffffffffffffffffffffffffff1614620012dd576040517f08c379a0000000000000000000000000000000000000000000000000000000008152600401620012d490620058af565b60405180910390fd5b620012e88962001940565b156200132b576040517f08c379a0000000000000000000000000000000000000000000000000000000008152600401620013229062005aad565b60405180910390fd5b6200133881898962003904565b91508173ffffffffffffffffffffffffffffffffffffffff1663397bfe558a6040518263ffffffff1660e01b815260040162001375919062005550565b600060405180830381600087803b1580156200139057600080fd5b505af1158015620013a5573d6000803e3d6000fd5b505050506200143f828a88888080601f016020809104026020016040519081016040528093929190818152602001838380828437600081840152601f19601f8201169050808301925050505050505087878080601f016020809104026020016040519081016040528093929190818152602001838380828437600081840152601f19601f8201169050808301925050505050505062003a3b565b60006200144b620027b5565b4201905060405180604001604052808473ffffffffffffffffffffffffffffffffffffffff16815260200182815250600660008c73ffffffffffffffffffffffffffffffffffffffff1673ffffffffffffffffffffffffffffffffffffffff16815260200190815260200160002060008201518160000160006101000a81548173ffffffffffffffffffffffffffffffffffffffff021916908373ffffffffffffffffffffffffffffffffffffffff160217905550602082015181600101559050508973ffffffffffffffffffffffffffffffffffffffff168273ffffffffffffffffffffffffffffffffffffffff167fbc4a5bba58d663a7e6752f3a72d2737260a60caeec28e0bf880ee25711f7fe1e85846040516200156e929190620056f0565b60405180910390a35050979650505050505050565b6200158d62001db7565b73ffffffffffffffffffffffffffffffffffffffff163373ffffffffffffffffffffffffffffffffffffffff1614620015fd576040517f08c379a0000000000000000000000000000000000000000000000000000000008152600401620015f4906200588d565b60405180910390fd5b60005b8282905081101562001761576200163a8383838181106200161d57fe5b905060200201602081019062001634919062004235565b62001766565b6200167c576040517f08c379a0000000000000000000000000000000000000000000000000000000008152600401620016739062005a25565b60405180910390fd5b6000600460008585858181106200168f57fe5b9050602002016020810190620016a6919062004235565b73ffffffffffffffffffffffffffffffffffffffff1673ffffffffffffffffffffffffffffffffffffffff16815260200190815260200160002060006101000a81548160ff0219169083151502179055507fe49a33dc7a73a9833a0358b29ef8d5fecbfff419af0c4fd9219f57a7147009c68383838181106200172557fe5b90506020020160208101906200173c919062004235565b6040516200174b919062005550565b60405180910390a1808060010191505062001600565b505050565b6000600460008373ffffffffffffffffffffffffffffffffffffffff1673ffffffffffffffffffffffffffffffffffffffff16815260200190815260200160002060009054906101000a900460ff169050919050565b620017c662001db7565b73ffffffffffffffffffffffffffffffffffffffff163373ffffffffffffffffffffffffffffffffffffffff161462001836576040517f08c379a00000000000000000000000000000000000000000000000000000000081526004016200182d906200588d565b60405180910390fd5b60008263ffffffff1611801562001853575060008163ffffffff16115b62001895576040517f08c379a00000000000000000000000000000000000000000000000000000000081526004016200188c906200599d565b60405180910390fd5b81600260146101000a81548163ffffffff021916908363ffffffff16021790555080600260186101000a81548163ffffffff021916908363ffffffff1602179055507f09069ba7f5bded3e9f9f7d353e606ae6ee8496309d9cbe09241d1c741e1dceed82826040516200190a92919062005b9c565b60405180910390a15050565b6000600260009054906101000a900473ffffffffffffffffffffffffffffffffffffffff16905090565b60008073ffffffffffffffffffffffffffffffffffffffff16600660008473ffffffffffffffffffffffffffffffffffffffff1673ffffffffffffffffffffffffffffffffffffffff16815260200190815260200160002060000160009054906101000a900473ffffffffffffffffffffffffffffffffffffffff1673ffffffffffffffffffffffffffffffffffffffff1614159050919050565b6000620019e762002174565b73ffffffffffffffffffffffffffffffffffffffff166398a7c4c76040518163ffffffff1660e01b815260040160206040518083038186803b15801562001a2d57600080fd5b505afa15801562001a42573d6000803e3d6000fd5b505050506040513d601f19601f8201168201806040525081019062001a68919062004261565b73ffffffffffffffffffffffffffffffffffffffff16637da0a8776040518163ffffffff1660e01b815260040160206040518083038186803b15801562001aae57600080fd5b505afa15801562001ac3573d6000803e3d6000fd5b505050506040513d601f19601f8201168201806040525081019062001ae9919062004261565b905090565b62001af862001db7565b73ffffffffffffffffffffffffffffffffffffffff163373ffffffffffffffffffffffffffffffffffffffff161462001b68576040517f08c379a000000000000000000000000000000000000000000000000000000000815260040162001b5f906200588d565b60405180910390fd5b60005b8282905081101562001ccd5762001ba583838381811062001b8857fe5b905060200201602081019062001b9f919062004235565b62001766565b1562001be8576040517f08c379a000000000000000000000000000000000000000000000000000000000815260040162001bdf906200586b565b60405180910390fd5b60016004600085858581811062001bfb57fe5b905060200201602081019062001c12919062004235565b73ffffffffffffffffffffffffffffffffffffffff1673ffffffffffffffffffffffffffffffffffffffff16815260200190815260200160002060006101000a81548160ff0219169083151502179055507f7b322f508cd6b0cc569822d5a028bb23e6698192d88a7b9669ab48fd68916eda83838381811062001c9157fe5b905060200201602081019062001ca8919062004235565b60405162001cb7919062005550565b60405180910390a1808060010191505062001b6b565b505050565b62001cdc62003f50565b600660008373ffffffffffffffffffffffffffffffffffffffff1673ffffffffffffffffffffffffffffffffffffffff1681526020019081526020016000206040518060400160405290816000820160009054906101000a900473ffffffffffffffffffffffffffffffffffffffff1673ffffffffffffffffffffffffffffffffffffffff1673ffffffffffffffffffffffffffffffffffffffff1681526020016001820154815250509050919050565b6000600160009054906101000a900473ffffffffffffffffffffffffffffffffffffffff16905090565b600062001dc362001f5d565b62001dda5762001dd2620008d0565b905062001e68565b62001de462002ada565b73ffffffffffffffffffffffffffffffffffffffff1663893d20e86040518163ffffffff1660e01b815260040160206040518083038186803b15801562001e2a57600080fd5b505afa15801562001e3f573d6000803e3d6000fd5b505050506040513d601f19601f8201168201806040525081019062001e65919062004261565b90505b90565b600080848460405160200162001e8392919062005520565b60405160208183030381529060405280519060200120905060056000828152602001908152602001600020600084815260200190815260200160002060009054906101000a900460ff168062001f2a57506005600082815260200190815260200160002060007f5bf1898dd28c4d29f33c4c1bb9b8a7e2f6322847d70be63e8f89de024d08a66960001b815260200190815260200160002060009054906101000a900460ff165b9150509392505050565b60008060009054906101000a900473ffffffffffffffffffffffffffffffffffffffff16905090565b60006002601c9054906101000a900460ff16905090565b8162001f8181336200373f565b62001f8b62002ada565b73ffffffffffffffffffffffffffffffffffffffff16639c9d48da84846040518363ffffffff1660e01b815260040162001fc7929190620056c3565b600060405180830381600087803b15801562001fe257600080fd5b505af115801562001ff7573d6000803e3d6000fd5b50505050505050565b6200200a62001db7565b73ffffffffffffffffffffffffffffffffffffffff163373ffffffffffffffffffffffffffffffffffffffff16146200207a576040517f08c379a000000000000000000000000000000000000000000000000000000000815260040162002071906200588d565b60405180910390fd5b6200208462001d8d565b600073ffffffffffffffffffffffffffffffffffffffff168173ffffffffffffffffffffffffffffffffffffffff1614620020f6576040517f08c379a0000000000000000000000000000000000000000000000000000000008152600401620020ed9062005849565b60405180910390fd5b81600160006101000a81548173ffffffffffffffffffffffffffffffffffffffff021916908373ffffffffffffffffffffffffffffffffffffffff1602179055507f1a8919bc714742db0ed6eb86960768bdd5103c1dabb914651aaec5796907db158260405162002168919062005550565b60405180910390a15050565b60007f0000000000000000000000000000000000000000000000000000000000000000905090565b6000620021a862001f5d565b620021ea576040517f08c379a0000000000000000000000000000000000000000000000000000000008152600401620021e190620059bf565b60405180910390fd5b88620021f781336200373f565b6200220162002ada565b73ffffffffffffffffffffffffffffffffffffffff1663d0449d3d8b6040518263ffffffff1660e01b81526004016200223b919062005550565b60206040518083038186803b1580156200225457600080fd5b505afa15801562002269573d6000803e3d6000fd5b505050506040513d601f19601f820116820180604052508101906200228f9190620047a2565b15620022d2576040517f08c379a0000000000000000000000000000000000000000000000000000000008152600401620022c99062005937565b60405180910390fd5b620022df338a8a62003904565b91508173ffffffffffffffffffffffffffffffffffffffff1663397bfe558b6040518263ffffffff1660e01b81526004016200231c919062005550565b600060405180830381600087803b1580156200233757600080fd5b505af11580156200234c573d6000803e3d6000fd5b50505050620023e6828b89898080601f016020809104026020016040519081016040528093929190818152602001838380828437600081840152601f19601f8201169050808301925050505050505088888080601f016020809104026020016040519081016040528093929190818152602001838380828437600081840152601f19601f8201169050808301925050505050505062003a3b565b620023f062002ada565b73ffffffffffffffffffffffffffffffffffffffff1663d15f9b9c8b846200241762001916565b876040518563ffffffff1660e01b81526004016200243994939291906200559a565b600060405180830381600087803b1580156200245457600080fd5b505af115801562002469573d6000803e3d6000fd5b505050508973ffffffffffffffffffffffffffffffffffffffff163373ffffffffffffffffffffffffffffffffffffffff167f7cb609d1845028175b74ce1b27f0b41ba93711f8699a747463f0cf89c5c95b8184604051620024cc919062005550565b60405180910390a35098975050505050505050565b600080620024ee62001f5d565b62002530576040517f08c379a00000000000000000000000000000000000000000000000000000000081526004016200252790620059bf565b60405180910390fd5b60006200253c6200389b565b90506200254b818a8a62003904565b92506200255d8e848f8f8f8f62003e19565b915060008390508073ffffffffffffffffffffffffffffffffffffffff1663397bfe55846040518263ffffffff1660e01b81526004016200259f919062005550565b600060405180830381600087803b158015620025ba57600080fd5b505af1158015620025cf573d6000803e3d6000fd5b505050506200266984848a8a8080601f016020809104026020016040519081016040528093929190818152602001838380828437600081840152601f19601f8201169050808301925050505050505089898080601f016020809104026020016040519081016040528093929190818152602001838380828437600081840152601f19601f8201169050808301925050505050505062003a3b565b8073ffffffffffffffffffffffffffffffffffffffff1663ce5e84a360006040518263ffffffff1660e01b8152600401620026a591906200571d565b600060405180830381600087803b158015620026c057600080fd5b505af1158015620026d5573d6000803e3d6000fd5b50505050620026e362001d8d565b73ffffffffffffffffffffffffffffffffffffffff16630a48e041846040518263ffffffff1660e01b81526004016200271d919062005550565b600060405180830381600087803b1580156200273857600080fd5b505af11580156200274d573d6000803e3d6000fd5b505050508173ffffffffffffffffffffffffffffffffffffffff167f04dab3bc63cc7e4b52aa28a026644559e2937d78dbf7b81e26dfecdd8bbe33b984866040516200279b9291906200556d565b60405180910390a250509b509b9950505050505050505050565b6000600354905090565b80620027d581620027cf6200389b565b6200373f565b6000600660008473ffffffffffffffffffffffffffffffffffffffff1673ffffffffffffffffffffffffffffffffffffffff16815260200190815260200160002060000160009054906101000a900473ffffffffffffffffffffffffffffffffffffffff169050600073ffffffffffffffffffffffffffffffffffffffff168173ffffffffffffffffffffffffffffffffffffffff161415620028af576040517f08c379a0000000000000000000000000000000000000000000000000000000008152600401620028a690620057c1565b60405180910390fd5b8073ffffffffffffffffffffffffffffffffffffffff1663e53a73b96040518163ffffffff1660e01b8152600401600060405180830381600087803b158015620028f857600080fd5b505af11580156200290d573d6000803e3d6000fd5b50505050600660008473ffffffffffffffffffffffffffffffffffffffff1673ffffffffffffffffffffffffffffffffffffffff168152602001908152602001600020600080820160006101000a81549073ffffffffffffffffffffffffffffffffffffffff0219169055600182016000905550508073ffffffffffffffffffffffffffffffffffffffff168373ffffffffffffffffffffffffffffffffffffffff167f8eae645f408f18cb738736a49846a7ccb7a4ed8cdf9b960624ea965ffbe96e9160405160405180910390a3505050565b7f000000000000000000000000000000000000000000000000000000000000000073ffffffffffffffffffffffffffffffffffffffff163373ffffffffffffffffffffffffffffffffffffffff161462002a72576040517f08c379a000000000000000000000000000000000000000000000000000000000815260040162002a699062005915565b60405180910390fd5b8173ffffffffffffffffffffffffffffffffffffffff1663e53a73b96040518163ffffffff1660e01b8152600401600060405180830381600087803b15801562002abb57600080fd5b505af115801562002ad0573d6000803e3d6000fd5b5050505050505050565b60007f0000000000000000000000000000000000000000000000000000000000000000905090565b62002b0c62001db7565b73ffffffffffffffffffffffffffffffffffffffff163373ffffffffffffffffffffffffffffffffffffffff161462002b7c576040517f08c379a000000000000000000000000000000000000000000000000000000000815260040162002b73906200588d565b60405180910390fd5b6000858590501162002bc5576040517f08c379a000000000000000000000000000000000000000000000000000000000815260040162002bbc9062005a8b565b60405180910390fd5b828290508585905014801562002bde5750805185859050145b62002c20576040517f08c379a000000000000000000000000000000000000000000000000000000000815260040162002c179062005b13565b60405180910390fd5b60005b8585905081101562002e535762002c9686868381811062002c4057fe5b905060200201602081019062002c57919062004235565b85858481811062002c6457fe5b905060200201602081019062002c7b9190620047ce565b84848151811062002c8857fe5b602002602001015162000b7c565b62002cd8576040517f08c379a000000000000000000000000000000000000000000000000000000000815260040162002ccf90620058d1565b60405180910390fd5b60006005600088888581811062002ceb57fe5b905060200201602081019062002d02919062004235565b87878681811062002d0f57fe5b905060200201602081019062002d269190620047ce565b60405160200162002d3992919062005520565b604051602081830303815290604052805190602001208152602001908152602001600020600084848151811062002d6c57fe5b6020026020010151815260200190815260200160002060006101000a81548160ff02191690831515021790555085858281811062002da657fe5b905060200201602081019062002dbd919062004235565b73ffffffffffffffffffffffffffffffffffffffff167f845c9ef356cc5570a54e9eb6be3e6d95a2aaad4c4c7d7b2c0cf8c7cdd78d614d85858481811062002e0157fe5b905060200201602081019062002e189190620047ce565b84848151811062002e2557fe5b602002602001015160405162002e3d9291906200573a565b60405180910390a2808060010191505062002c23565b505050505050565b62002e6562001db7565b73ffffffffffffffffffffffffffffffffffffffff163373ffffffffffffffffffffffffffffffffffffffff161462002ed5576040517f08c379a000000000000000000000000000000000000000000000000000000000815260040162002ecc906200588d565b60405180910390fd5b6000858590501162002f1e576040517f08c379a000000000000000000000000000000000000000000000000000000000815260040162002f159062005a03565b60405180910390fd5b828290508585905014801562002f375750805185859050145b62002f79576040517f08c379a000000000000000000000000000000000000000000000000000000000815260040162002f709062005a69565b60405180910390fd5b60005b85859050811015620031ad5762002fef86868381811062002f9957fe5b905060200201602081019062002fb0919062004235565b85858481811062002fbd57fe5b905060200201602081019062002fd49190620047ce565b84848151811062002fe157fe5b602002602001015162000b7c565b1562003032576040517f08c379a0000000000000000000000000000000000000000000000000000000008152600401620030299062005a47565b60405180910390fd5b6001600560008888858181106200304557fe5b90506020020160208101906200305c919062004235565b8787868181106200306957fe5b9050602002016020810190620030809190620047ce565b6040516020016200309392919062005520565b6040516020818303038152906040528051906020012081526020019081526020016000206000848481518110620030c657fe5b6020026020010151815260200190815260200160002060006101000a81548160ff0219169083151502179055508585828181106200310057fe5b905060200201602081019062003117919062004235565b73ffffffffffffffffffffffffffffffffffffffff167fb1fbe377864edcbf521713f906125bd99a3638c7a9e4087f6a70019686a741d18585848181106200315b57fe5b9050602002016020810190620031729190620047ce565b8484815181106200317f57fe5b6020026020010151604051620031979291906200573a565b60405180910390a2808060010191505062002f7c565b505050505050565b80620031cb81620031c56200389b565b6200373f565b620031d562003f50565b620031e08362001cd2565b9050600073ffffffffffffffffffffffffffffffffffffffff16816000015173ffffffffffffffffffffffffffffffffffffffff16141562003259576040517f08c379a0000000000000000000000000000000000000000000000000000000008152600401620032509062005805565b60405180910390fd5b8060200151421015620032a3576040517f08c379a00000000000000000000000000000000000000000000000000000000081526004016200329a9062005af1565b60405180910390fd5b3073ffffffffffffffffffffffffffffffffffffffff16620032c462002ada565b73ffffffffffffffffffffffffffffffffffffffff16633d7c74f8856040518263ffffffff1660e01b8152600401620032fe919062005550565b60206040518083038186803b1580156200331757600080fd5b505afa1580156200332c573d6000803e3d6000fd5b505050506040513d601f19601f8201168201806040525081019062003352919062004261565b73ffffffffffffffffffffffffffffffffffffffff1614620033ab576040517f08c379a0000000000000000000000000000000000000000000000000000000008152600401620033a2906200597b565b60405180910390fd5b60008373ffffffffffffffffffffffffffffffffffffffff16635a53e3486040518163ffffffff1660e01b815260040160206040518083038186803b158015620033f457600080fd5b505afa15801562003409573d6000803e3d6000fd5b505050506040513d601f19601f820116820180604052508101906200342f919062004261565b905060008173ffffffffffffffffffffffffffffffffffffffff1663faf9096b6040518163ffffffff1660e01b815260040160206040518083038186803b1580156200347a57600080fd5b505afa1580156200348f573d6000803e3d6000fd5b505050506040513d601f19601f82011682018060405250810190620034b5919062004261565b9050620034c28262003814565b8473ffffffffffffffffffffffffffffffffffffffff1663740f2b5a84600001516040518263ffffffff1660e01b815260040162003501919062005550565b600060405180830381600087803b1580156200351c57600080fd5b505af115801562003531573d6000803e3d6000fd5b50505050826000015173ffffffffffffffffffffffffffffffffffffffff1663ce5e84a360016040518263ffffffff1660e01b81526004016200357591906200571d565b600060405180830381600087803b1580156200359057600080fd5b505af1158015620035a5573d6000803e3d6000fd5b50505050600073ffffffffffffffffffffffffffffffffffffffff168173ffffffffffffffffffffffffffffffffffffffff16146200365257826000015173ffffffffffffffffffffffffffffffffffffffff166373eecf47826040518263ffffffff1660e01b81526004016200361d919062005550565b600060405180830381600087803b1580156200363857600080fd5b505af11580156200364d573d6000803e3d6000fd5b505050505b600660008673ffffffffffffffffffffffffffffffffffffffff1673ffffffffffffffffffffffffffffffffffffffff168152602001908152602001600020600080820160006101000a81549073ffffffffffffffffffffffffffffffffffffffff021916905560018201600090555050826000015173ffffffffffffffffffffffffffffffffffffffff168273ffffffffffffffffffffffffffffffffffffffff168673ffffffffffffffffffffffffffffffffffffffff167fa587629d93edeac6431610facaeec919890c8bc040ef849f720e42315148d7d960405160405180910390a45050505050565b8173ffffffffffffffffffffffffffffffffffffffff16637de07cea826040518263ffffffff1660e01b81526004016200377a919062005550565b60206040518083038186803b1580156200379357600080fd5b505afa158015620037a8573d6000803e3d6000fd5b505050506040513d601f19601f82011682018060405250810190620037ce9190620047a2565b62003810576040517f08c379a00000000000000000000000000000000000000000000000000000000081526004016200380790620058f3565b60405180910390fd5b5050565b6000806200382162000eb1565b915091508273ffffffffffffffffffffffffffffffffffffffff166392b575b683836040518363ffffffff1660e01b81526004016200386292919062005b6f565b600060405180830381600087803b1580156200387d57600080fd5b505af115801562003892573d6000803e3d6000fd5b50505050505050565b60006018600036905010158015620038e75750620038b8620019db565b73ffffffffffffffffffffffffffffffffffffffff163373ffffffffffffffffffffffffffffffffffffffff16145b15620038fd57601436033560601c905062003901565b3390505b90565b6000606063399ae72460e01b848460405160240162003925929190620056f0565b604051602081830303815290604052907bffffffffffffffffffffffffffffffffffffffffffffffffffffffff19166020820180517bffffffffffffffffffffffffffffffffffffffffffffffffffffffff83818316178352505050509050806200398f62001f34565b6040516200399d9062003f80565b620039aa92919062005767565b604051809103906000f080158015620039c7573d6000803e3d6000fd5b5091508373ffffffffffffffffffffffffffffffffffffffff168573ffffffffffffffffffffffffffffffffffffffff167f19dbe5ac5bcfdc5074f78d1e907e1dce6f6e3b50a56b50d990926abaf9c55057848660405162003a2b929190620056f0565b60405180910390a3509392505050565b60008251111562003b3b578373ffffffffffffffffffffffffffffffffffffffff1663f2d638266040518163ffffffff1660e01b815260040160206040518083038186803b15801562003a8d57600080fd5b505afa15801562003aa2573d6000803e3d6000fd5b505050506040513d601f19601f8201168201806040525081019062003ac8919062004261565b73ffffffffffffffffffffffffffffffffffffffff1663f067cc118585856040518463ffffffff1660e01b815260040162003b06939291906200563d565b600060405180830381600087803b15801562003b2157600080fd5b505af115801562003b36573d6000803e3d6000fd5b505050505b8373ffffffffffffffffffffffffffffffffffffffff1663b3fc38e96040518163ffffffff1660e01b815260040160206040518083038186803b15801562003b8257600080fd5b505afa15801562003b97573d6000803e3d6000fd5b505050506040513d601f19601f8201168201806040525081019062003bbd919062004261565b73ffffffffffffffffffffffffffffffffffffffff1663f067cc1185856040518363ffffffff1660e01b815260040162003bf992919062005681565b600060405180830381600087803b15801562003c1457600080fd5b505af115801562003c29573d6000803e3d6000fd5b505050508373ffffffffffffffffffffffffffffffffffffffff1663e7c456906040518163ffffffff1660e01b815260040160206040518083038186803b15801562003c7457600080fd5b505afa15801562003c89573d6000803e3d6000fd5b505050506040513d601f19601f8201168201806040525081019062003caf919062004261565b73ffffffffffffffffffffffffffffffffffffffff1663f067cc1185856040518363ffffffff1660e01b815260040162003ceb92919062005681565b600060405180830381600087803b15801562003d0657600080fd5b505af115801562003d1b573d6000803e3d6000fd5b505050508373ffffffffffffffffffffffffffffffffffffffff1663d44ad6cb6040518163ffffffff1660e01b815260040160206040518083038186803b15801562003d6657600080fd5b505afa15801562003d7b573d6000803e3d6000fd5b505050506040513d601f19601f8201168201806040525081019062003da1919062004261565b73ffffffffffffffffffffffffffffffffffffffff1663f067cc118585846040518463ffffffff1660e01b815260040162003ddf939291906200563d565b600060405180830381600087803b15801562003dfa57600080fd5b505af115801562003e0f573d6000803e3d6000fd5b5050505050505050565b600062003e2562002ada565b73ffffffffffffffffffffffffffffffffffffffff166322a0c08b62003e4a62001916565b898989896040518663ffffffff1660e01b815260040162003e70959493929190620055e7565b602060405180830381600087803b15801562003e8b57600080fd5b505af115801562003ea0573d6000803e3d6000fd5b505050506040513d601f19601f8201168201806040525081019062003ec6919062004261565b90506000838390501462003f46578073ffffffffffffffffffffffffffffffffffffffff1663b84c824684846040518363ffffffff1660e01b815260040162003f119291906200579b565b600060405180830381600087803b15801562003f2c57600080fd5b505af115801562003f41573d6000803e3d6000fd5b505050505b9695505050505050565b6040518060400160405280600073ffffffffffffffffffffffffffffffffffffffff168152602001600081525090565b6103398062005e3483390190565b60008135905062003f9f8162005d86565b92915050565b60008151905062003fb68162005d86565b92915050565b60008083601f84011262003fcf57600080fd5b8235905067ffffffffffffffff81111562003fe957600080fd5b6020830191508360208202830111156200400257600080fd5b9250929050565b600082601f8301126200401b57600080fd5b8135620040326200402c8262005bf7565b62005bc9565b915081818352602084019350602081019050838560208402820111156200405857600080fd5b60005b838110156200408c578162004071888262004111565b8452602084019350602083019250506001810190506200405b565b5050505092915050565b60008083601f840112620040a957600080fd5b8235905067ffffffffffffffff811115620040c357600080fd5b602083019150836020820283011115620040dc57600080fd5b9250929050565b600081359050620040f48162005da0565b92915050565b6000815190506200410b8162005da0565b92915050565b600081359050620041228162005dba565b92915050565b600081359050620041398162005dd4565b92915050565b60008083601f8401126200415257600080fd5b8235905067ffffffffffffffff8111156200416c57600080fd5b6020830191508360018202830111156200418557600080fd5b9250929050565b6000813590506200419d8162005dee565b92915050565b60008083601f840112620041b657600080fd5b8235905067ffffffffffffffff811115620041d057600080fd5b602083019150836001820283011115620041e957600080fd5b9250929050565b600081359050620042018162005dff565b92915050565b600081519050620042188162005dff565b92915050565b6000813590506200422f8162005e19565b92915050565b6000602082840312156200424857600080fd5b6000620042588482850162003f8e565b91505092915050565b6000602082840312156200427457600080fd5b6000620042848482850162003fa5565b91505092915050565b60008060008060808587031215620042a457600080fd5b6000620042b48782880162003f8e565b9450506020620042c78782880162003f8e565b9350506040620042da8782880162003f8e565b9250506060620042ed8782880162003f8e565b91505092959194509250565b600080600080608085870312156200431057600080fd5b6000620043208782880162003fa5565b9450506020620043338782880162003fa5565b9350506040620043468782880162003fa5565b9250506060620043598782880162004207565b91505092959194509250565b600080600080600080600060a0888a0312156200438157600080fd5b6000620043918a828b0162003f8e565b9750506020620043a48a828b0162003f8e565b9650506040620043b78a828b01620041f0565b955050606088013567ffffffffffffffff811115620043d557600080fd5b620043e38a828b016200413f565b9450945050608088013567ffffffffffffffff8111156200440357600080fd5b620044118a828b016200413f565b925092505092959891949750929550565b60008060008060008060008060c0898b0312156200443f57600080fd5b60006200444f8b828c0162003f8e565b9850506020620044628b828c0162003f8e565b9750506040620044758b828c01620041f0565b965050606089013567ffffffffffffffff8111156200449357600080fd5b620044a18b828c016200413f565b9550955050608089013567ffffffffffffffff811115620044c157600080fd5b620044cf8b828c016200413f565b935093505060a0620044e48b828c01620040e3565b9150509295985092959890939650565b600080604083850312156200450857600080fd5b6000620045188582860162003f8e565b92505060206200452b85828601620040e3565b9150509250929050565b6000806000606084860312156200454b57600080fd5b60006200455b8682870162003f8e565b93505060206200456e8682870162004128565b9250506040620045818682870162004111565b9150509250925092565b600080600080600080600080600080600060e08c8e031215620045ad57600080fd5b6000620045bd8e828f0162003f8e565b9b505060208c013567ffffffffffffffff811115620045db57600080fd5b620045e98e828f01620041a3565b9a509a505060408c013567ffffffffffffffff8111156200460957600080fd5b620046178e828f01620041a3565b985098505060606200462c8e828f0162003f8e565b96505060806200463f8e828f01620041f0565b95505060a08c013567ffffffffffffffff8111156200465d57600080fd5b6200466b8e828f016200413f565b945094505060c08c013567ffffffffffffffff8111156200468b57600080fd5b620046998e828f016200413f565b92509250509295989b509295989b9093969950565b60008060208385031215620046c257600080fd5b600083013567ffffffffffffffff811115620046dd57600080fd5b620046eb8582860162003fbc565b92509250509250929050565b6000806000806000606086880312156200471057600080fd5b600086013567ffffffffffffffff8111156200472b57600080fd5b620047398882890162003fbc565b9550955050602086013567ffffffffffffffff8111156200475957600080fd5b620047678882890162004096565b9350935050604086013567ffffffffffffffff8111156200478757600080fd5b620047958882890162004009565b9150509295509295909350565b600060208284031215620047b557600080fd5b6000620047c584828501620040fa565b91505092915050565b600060208284031215620047e157600080fd5b6000620047f18482850162004128565b91505092915050565b600080600080600060a086880312156200481357600080fd5b600062004823888289016200418c565b9550506020620048368882890162003f8e565b9450506040620048498882890162003f8e565b93505060606200485c8882890162003f8e565b92505060806200486f8882890162003f8e565b9150509295509295909350565b6000602082840312156200488f57600080fd5b60006200489f84828501620041f0565b91505092915050565b60008060408385031215620048bc57600080fd5b6000620048cc858286016200421e565b9250506020620048df858286016200421e565b9150509250929050565b620048f48162005c4d565b82525050565b620049058162005c4d565b82525050565b620049206200491a8262005c4d565b62005d36565b82525050565b620049318162005c61565b82525050565b620049428162005c6d565b82525050565b620049538162005c77565b82525050565b6200496e620049688262005c77565b62005d4a565b82525050565b6000620049818262005c20565b6200498d818562005c2b565b93506200499f81856020860162005d00565b620049aa8162005d68565b840191505092915050565b6000620049c3838562005c3c565b9350620049d283858462005cf1565b620049dd8362005d68565b840190509392505050565b6000620049f760488362005c3c565b91507f63616e63656c5265636f6e66696775726174696f6e3a204e6f207265636f6e6660008301527f696775726174696f6e20726571756573742065786973747320666f72205f766160208301527f756c7450726f78790000000000000000000000000000000000000000000000006040830152606082019050919050565b600062004a8560238362005c3c565b91507f73657452656c656173654c6976653a207661756c744c6962206973206e6f742060008301527f73657400000000000000000000000000000000000000000000000000000000006020830152604082019050919050565b600062004aed60498362005c3c565b91507f657865637574655265636f6e66696775726174696f6e3a204e6f207265636f6e60008301527f66696775726174696f6e20726571756573742065786973747320666f72205f7660208301527f61756c7450726f787900000000000000000000000000000000000000000000006040830152606082019050919050565b600062004b7b60298362005c3c565b91507f73657452656c656173654c6976653a20636f6d7074726f6c6c65724c6962206960008301527f73206e6f742073657400000000000000000000000000000000000000000000006020830152604082019050919050565b600062004be3601f8362005c3c565b91507f546869732076616c75652063616e206f6e6c7920626520736574206f6e6365006000830152602082019050919050565b600062004c25603b8362005c3c565b91507f72656769737465724275795368617265734f6e426568616c6643616c6c65727360008301527f3a2043616c6c657220616c7265616479207265676973746572656400000000006020830152604082019050919050565b600062004c8d602e8362005c3c565b91507f4f6e6c792074686520636f6e7472616374206f776e65722063616e2063616c6c60008301527f20746869732066756e6374696f6e0000000000000000000000000000000000006020830152604082019050919050565b600062004cf5603c8362005c3c565b91507f6372656174655265636f6e66696775726174696f6e526571756573743a20566160008301527f756c7450726f7879206e6f74206f6e20746869732072656c65617365000000006020830152604082019050919050565b600062004d5d60298362005c3c565b91507f646572656769737465725661756c7443616c6c733a2043616c6c206e6f74207260008301527f65676973746572656400000000000000000000000000000000000000000000006020830152604082019050919050565b600062004dc560338362005c3c565b91507f4f6e6c792061207065726d697373696f6e6564206d69677261746f722063616e60008301527f2063616c6c20746869732066756e6374696f6e000000000000000000000000006020830152604082019050919050565b600062004e2d60268362005c3c565b91507f4f6e6c7920446973706174636865722063616e2063616c6c207468697320667560008301527f6e6374696f6e00000000000000000000000000000000000000000000000000006020830152604082019050919050565b600062004e9560398362005c3c565b91507f6372656174654d6967726174696f6e526571756573743a2041204d696772617460008301527f696f6e5265717565737420616c726561647920657869737473000000000000006020830152604082019050919050565b600062004efd601c8362005c3c565b91507f73657452656c656173654c6976653a20416c7265616479206c697665000000006000830152602082019050919050565b600062004f3f60408362005c3c565b91507f657865637574655265636f6e66696775726174696f6e3a205f7661756c74507260008301527f6f7879206973206e6f206c6f6e676572206f6e20746869732072656c656173656020830152604082019050919050565b600062004fa760338362005c3c565b91507f7365744761734c696d697473466f72446573747275637443616c6c3a205a657260008301527f6f2076616c7565206e6f7420616c6c6f776564000000000000000000000000006020830152604082019050919050565b60006200500f60178362005c3c565b91507f52656c65617365206973206e6f7420796574206c6976650000000000000000006000830152602082019050919050565b600062005051602d8362005c3c565b91507f73657452656c656173654c6976653a2070726f746f636f6c466565547261636b60008301527f6572206973206e6f7420736574000000000000000000000000000000000000006020830152604082019050919050565b6000620050b960248362005c3c565b91507f72656769737465725661756c7443616c6c733a20456d707479205f636f6e747260008301527f61637473000000000000000000000000000000000000000000000000000000006020830152604082019050919050565b60006200512160008362005c2b565b9150600082019050919050565b60006200513d60398362005c3c565b91507f646572656769737465724275795368617265734f6e426568616c6643616c6c6560008301527f72733a2043616c6c6572206e6f742072656769737465726564000000000000006020830152604082019050919050565b6000620051a5602b8362005c3c565b91507f72656769737465725661756c7443616c6c733a2043616c6c20616c726561647960008301527f20726567697374657265640000000000000000000000000000000000000000006020830152604082019050919050565b60006200520d60278362005c3c565b91507f72656769737465725661756c7443616c6c733a20556e6576656e20696e70757460008301527f20617272617973000000000000000000000000000000000000000000000000006020830152604082019050919050565b60006200527560268362005c3c565b91507f646572656769737465725661756c7443616c6c733a20456d707479205f636f6e60008301527f74726163747300000000000000000000000000000000000000000000000000006020830152604082019050919050565b6000620052dd604e8362005c3c565b91507f6372656174655265636f6e66696775726174696f6e526571756573743a20566160008301527f756c7450726f78792068617320612070656e64696e67207265636f6e6669677560208301527f726174696f6e20726571756573740000000000000000000000000000000000006040830152606082019050919050565b60006200536b60378362005c3c565b91507f73657452656c656173654c6976653a204f6e6c79207468652063726561746f7260008301527f2063616e2063616c6c20746869732066756e6374696f6e0000000000000000006020830152604082019050919050565b6000620053d360448362005c3c565b91507f657865637574655265636f6e66696775726174696f6e3a20546865207265636f60008301527f6e66696775726174696f6e2074696d656c6f636b20686173206e6f7420656c6160208301527f70736564000000000000000000000000000000000000000000000000000000006040830152606082019050919050565b60006200546160298362005c3c565b91507f646572656769737465725661756c7443616c6c733a20556e6576656e20696e7060008301527f75742061727261797300000000000000000000000000000000000000000000006020830152604082019050919050565b604082016000820151620054d26000850182620048e9565b506020820151620054e76020850182620054ed565b50505050565b620054f88162005cc3565b82525050565b620055098162005cc3565b82525050565b6200551a8162005cdd565b82525050565b60006200552e82856200490b565b60148201915062005540828462004959565b6004820191508190509392505050565b6000602082019050620055676000830184620048fa565b92915050565b6000604082019050620055846000830185620048fa565b620055936020830184620048fa565b9392505050565b6000608082019050620055b16000830187620048fa565b620055c06020830186620048fa565b620055cf6040830185620048fa565b620055de606083018462004926565b95945050505050565b6000608082019050620055fe6000830188620048fa565b6200560d6020830187620048fa565b6200561c6040830186620048fa565b818103606083015262005631818486620049b5565b90509695505050505050565b6000606082019050620056546000830186620048fa565b620056636020830185620048fa565b818103604083015262005677818462004974565b9050949350505050565b6000606082019050620056986000830185620048fa565b620056a76020830184620048fa565b8181036040830152620056ba8162005112565b90509392505050565b6000604082019050620056da6000830185620048fa565b620056e9602083018462004926565b9392505050565b6000604082019050620057076000830185620048fa565b620057166020830184620054fe565b9392505050565b600060208201905062005734600083018462004926565b92915050565b600060408201905062005751600083018562004948565b62005760602083018462004937565b9392505050565b6000604082019050818103600083015262005783818562004974565b9050620057946020830184620048fa565b9392505050565b60006020820190508181036000830152620057b8818486620049b5565b90509392505050565b60006020820190508181036000830152620057dc81620049e8565b9050919050565b60006020820190508181036000830152620057fe8162004a76565b9050919050565b60006020820190508181036000830152620058208162004ade565b9050919050565b60006020820190508181036000830152620058428162004b6c565b9050919050565b60006020820190508181036000830152620058648162004bd4565b9050919050565b60006020820190508181036000830152620058868162004c16565b9050919050565b60006020820190508181036000830152620058a88162004c7e565b9050919050565b60006020820190508181036000830152620058ca8162004ce6565b9050919050565b60006020820190508181036000830152620058ec8162004d4e565b9050919050565b600060208201905081810360008301526200590e8162004db6565b9050919050565b60006020820190508181036000830152620059308162004e1e565b9050919050565b60006020820190508181036000830152620059528162004e86565b9050919050565b60006020820190508181036000830152620059748162004eee565b9050919050565b60006020820190508181036000830152620059968162004f30565b9050919050565b60006020820190508181036000830152620059b88162004f98565b9050919050565b60006020820190508181036000830152620059da8162005000565b9050919050565b60006020820190508181036000830152620059fc8162005042565b9050919050565b6000602082019050818103600083015262005a1e81620050aa565b9050919050565b6000602082019050818103600083015262005a40816200512e565b9050919050565b6000602082019050818103600083015262005a628162005196565b9050919050565b6000602082019050818103600083015262005a8481620051fe565b9050919050565b6000602082019050818103600083015262005aa68162005266565b9050919050565b6000602082019050818103600083015262005ac881620052ce565b9050919050565b6000602082019050818103600083015262005aea816200535c565b9050919050565b6000602082019050818103600083015262005b0c81620053c4565b9050919050565b6000602082019050818103600083015262005b2e8162005452565b9050919050565b600060408201905062005b4c6000830184620054ba565b92915050565b600060208201905062005b696000830184620054fe565b92915050565b600060408201905062005b866000830185620054fe565b62005b956020830184620054fe565b9392505050565b600060408201905062005bb360008301856200550f565b62005bc260208301846200550f565b9392505050565b6000604051905081810181811067ffffffffffffffff8211171562005bed57600080fd5b8060405250919050565b600067ffffffffffffffff82111562005c0f57600080fd5b602082029050602081019050919050565b600081519050919050565b600082825260208201905092915050565b600082825260208201905092915050565b600062005c5a8262005ca3565b9050919050565b60008115159050919050565b6000819050919050565b60007fffffffff0000000000000000000000000000000000000000000000000000000082169050919050565b600073ffffffffffffffffffffffffffffffffffffffff82169050919050565b6000819050919050565b600063ffffffff82169050919050565b600062005cea8262005ccd565b9050919050565b82818337600083830152505050565b60005b8381101562005d2057808201518184015260208101905062005d03565b8381111562005d30576000848401525b50505050565b600062005d438262005d54565b9050919050565b6000819050919050565b600062005d618262005d79565b9050919050565b6000601f19601f8301169050919050565b60008160601b9050919050565b62005d918162005c4d565b811462005d9d57600080fd5b50565b62005dab8162005c61565b811462005db757600080fd5b50565b62005dc58162005c6d565b811462005dd157600080fd5b50565b62005ddf8162005c77565b811462005deb57600080fd5b50565b6005811062005dfc57600080fd5b50565b62005e0a8162005cc3565b811462005e1657600080fd5b50565b62005e248162005ccd565b811462005e3057600080fd5b5056fe60a060405234801561001057600080fd5b506040516103393803806103398339818101604052604081101561003357600080fd5b810190808051604051939291908464010000000082111561005357600080fd5b8382019150602082018581111561006957600080fd5b825186600182028301116401000000008211171561008657600080fd5b8083526020830192505050908051906020019080838360005b838110156100ba57808201518184015260208101905061009f565b50505050905090810190601f1680156100e75780820380516001836020036101000a031916815260200191505b506040526020018051906020019092919050505081818073ffffffffffffffffffffffffffffffffffffffff1660808173ffffffffffffffffffffffffffffffffffffffff1660601b81525050807f360894a13ba1a3210667c828492db98dca3e2076cc3735a920a3ca505d382bbc55600060608273ffffffffffffffffffffffffffffffffffffffff16846040518082805190602001908083835b602083106101a65780518252602082019150602081019050602083039250610183565b6001836020036101000a038019825116818451168082178552505050505050905001915050600060405180830381855af49150503d8060008114610206576040519150601f19603f3d011682016040523d82523d6000602084013e61020b565b606091505b50915091508181906102b8576040517f08c379a00000000000000000000000000000000000000000000000000000000081526004018080602001828103825283818151815260200191508051906020019080838360005b8381101561027d578082015181840152602081019050610262565b50505050905090810190601f1680156102aa5780820380516001836020036101000a031916815260200191505b509250505060405180910390fd5b5050505050505060805160601c60606102d9600039806008525060606000f3fe608060405260007f000000000000000000000000000000000000000000000000000000000000000090503660008037600080366000846127105a03f43d806000803e8160008114604e57816000f35b816000fdfea164736f6c634300060c000aa164736f6c634300060c000a","linkReferences":{}},"methodIdentifiers":{"cancelMigration(address,bool)":"9c9d48da","cancelReconfiguration(address)":"d5189add","createMigrationRequest(address,address,uint256,bytes,bytes,bool)":"b8f8a84c","createNewFund(address,string,string,address,uint256,bytes,bytes)":"c83980dd","createReconfigurationRequest(address,address,uint256,bytes,bytes)":"4348ab62","deregisterBuySharesOnBehalfCallers(address[])":"4bacc5f7","deregisterVaultCalls(address[],bytes4[],bytes32[])":"ed9eeb7f","executeMigration(address,bool)":"38b3eb1b","executeReconfiguration(address)":"ff845718","getComptrollerLib()":"93a2ecd9","getCreator()":"0ee2cb10","getDispatcher()":"ebb3d589","getGasLimitsForDestructCall()":"3d0d4abb","getGasRelayPaymasterFactory()":"ac259456","getGasRelayTrustedForwarder()":"6ea21143","getOwner()":"893d20e8","getProtocolFeeTracker()":"749cc8f5","getReconfigurationRequestForVaultProxy(address)":"72eb5f2b","getReconfigurationTimelock()":"cebffb58","getVaultLib()":"682cea19","hasReconfigurationRequest(address)":"6c579e57","invokeMigrationInCancelHook(address,address,address,address)":"df369ba7","invokeMigrationOutHook(uint8,address,address,address,address)":"3f84c12c","isAllowedBuySharesOnBehalfCaller(address)":"54391f09","isAllowedVaultCall(address,bytes4,bytes32)":"8c500ea3","isRegisteredVaultCall(address,bytes4,bytes32)":"36b4ea4f","registerBuySharesOnBehalfCallers(address[])":"6f2b7574","registerVaultCalls(address[],bytes4[],bytes32[])":"efcde9e3","releaseIsLive()":"98f0d4bb","setComptrollerLib(address)":"0d2fcd76","setGasLimitsForDestructCall(uint32,uint32)":"575403dc","setProtocolFeeTracker(address)":"9f9df785","setReconfigurationTimelock(uint256)":"3b30dce7","setReleaseLive()":"164dd2d4","setVaultLib(address)":"4140d607"},"id":130}