{"abi":[{"type":"constructor","inputs":[{"name":"_aliceV2OrderManagerAddress","type":"address","internalType":"address"},{"name":"_wrappedNativeAssetAddress","type":"address","internalType":"address"}],"stateMutability":"nonpayable"},{"type":"function","name":"ALICEV2_NATIVE_ASSET_ADDRESS","inputs":[],"outputs":[{"name":"","type":"address","internalType":"address"}],"stateMutability":"view"},{"type":"function","name":"ALICE_INSTANT_ORDER_V2","inputs":[],"outputs":[{"name":"","type":"address","internalType":"contract IAliceInstantOrderV2"}],"stateMutability":"view"},{"type":"function","name":"WRAPPED_NATIVE_TOKEN","inputs":[],"outputs":[{"name":"","type":"address","internalType":"contract IWETH"}],"stateMutability":"view"},{"type":"function","name":"getDebtAssets","inputs":[],"outputs":[{"name":"assets_","type":"address[]","internalType":"address[]"},{"name":"amounts_","type":"uint256[]","internalType":"uint256[]"}],"stateMutability":"view"},{"type":"function","name":"getManagedAssets","inputs":[],"outputs":[{"name":"assets_","type":"address[]","internalType":"address[]"},{"name":"amounts_","type":"uint256[]","internalType":"uint256[]"}],"stateMutability":"view"},{"type":"function","name":"getOrderDetails","inputs":[{"name":"_orderId","type":"uint256","internalType":"uint256"}],"outputs":[{"name":"orderDetails_","type":"tuple","internalType":"struct AliceV2PositionLibBase1.OrderDetails","components":[{"name":"outgoingAssetAddress","type":"address","internalType":"address"},{"name":"incomingAssetAddress","type":"address","internalType":"address"},{"name":"outgoingAmount","type":"uint256","internalType":"uint256"}]}],"stateMutability":"view"},{"type":"function","name":"getOrderIds","inputs":[],"outputs":[{"name":"orderIds_","type":"uint256[]","internalType":"uint256[]"}],"stateMutability":"view"},{"type":"function","name":"init","inputs":[{"name":"","type":"bytes","internalType":"bytes"}],"outputs":[],"stateMutability":"nonpayable"},{"type":"function","name":"isPendingReferenceId","inputs":[{"name":"_referenceId","type":"bytes32","internalType":"bytes32"}],"outputs":[{"name":"isPending_","type":"bool","internalType":"bool"}],"stateMutability":"view"},{"type":"function","name":"notifyCancel","inputs":[{"name":"_referenceId","type":"bytes32","internalType":"bytes32"}],"outputs":[],"stateMutability":"nonpayable"},{"type":"function","name":"notifySettle","inputs":[{"name":"","type":"address","internalType":"address"},{"name":"","type":"uint256","internalType":"uint256"},{"name":"_referenceId","type":"bytes32","internalType":"bytes32"}],"outputs":[],"stateMutability":"nonpayable"},{"type":"function","name":"receiveCallFromVault","inputs":[{"name":"_actionData","type":"bytes","internalType":"bytes"}],"outputs":[],"stateMutability":"nonpayable"},{"type":"event","name":"OrderIdAdded","inputs":[{"name":"orderId","type":"uint256","indexed":true,"internalType":"uint256"},{"name":"orderDetails","type":"tuple","indexed":false,"internalType":"struct AliceV2PositionLibBase1.OrderDetails","components":[{"name":"outgoingAssetAddress","type":"address","internalType":"address"},{"name":"incomingAssetAddress","type":"address","internalType":"address"},{"name":"outgoingAmount","type":"uint256","internalType":"uint256"}]}],"anonymous":false},{"type":"event","name":"OrderIdRemoved","inputs":[{"name":"orderId","type":"uint256","indexed":true,"internalType":"uint256"}],"anonymous":false},{"type":"event","name":"ReferenceIdAdded","inputs":[{"name":"referenceId","type":"bytes32","indexed":true,"internalType":"bytes32"}],"anonymous":false},{"type":"event","name":"ReferenceIdRemoved","inputs":[{"name":"referenceId","type":"bytes32","indexed":true,"internalType":"bytes32"}],"anonymous":false},{"type":"error","name":"InvalidActionId","inputs":[]},{"type":"error","name":"InvalidReferenceId","inputs":[]},{"type":"error","name":"InvalidSender","inputs":[]},{"type":"error","name":"OrderNotSettledOrCancelled","inputs":[]}],"bytecode":{"object":"0x60c06040523480156200001157600080fd5b506040516200268938038062002689833981016040819052620000349162000086565b6001600160a01b039182166080521660a052620000c9565b60006001600160a01b0382165b92915050565b6200006a816200004c565b81146200007657600080fd5b50565b805162000059816200005f565b600080604083850312156200009e576200009e600080fd5b6000620000ac858562000079565b9250506020620000bf8582860162000079565b9150509250929050565b60805160a05161254e6200013b6000396000818160be0152818161058301526114a70152600081816101740152818161020c015281816103840152818161083901528181610eeb0152818161105c01528181611137015281816111f50152818161153e0152611607015261254e6000f3fe608060405234801561001057600080fd5b50600436106100b45760003560e01c80639e0acf8f116100715780639e0acf8f1461015a578063ca7e5ca81461016f578063e4fa546114610196578063e5c23a97146101c6578063ec7dd7bb146101d9578063ecd658b4146101f957600080fd5b80631b3f8c5e146100b95780634cf775fe146100f65780634ddf47d41461010b578063693673431461011c57806374223f781461012f57806380daddb814610144575b600080fd5b6100e07f000000000000000000000000000000000000000000000000000000000000000081565b6040516100ed91906119f6565b60405180910390f35b610109610104366004611a1c565b610201565b005b610109610119366004611b33565b50565b61010961012a366004611b82565b610379565b610137600081565b6040516100ed9190611bdb565b61014c6104ca565b6040516100ed929190611c96565b6101626106f6565b6040516100ed9190611cbb565b6100e07f000000000000000000000000000000000000000000000000000000000000000081565b6101b96101a4366004611a1c565b60009081526002602052604090205460ff1690565b6040516100ed9190611cd4565b6101096101d4366004611b33565b61074e565b6101ec6101e7366004611a1c565b6107c4565b6040516100ed9190611d1f565b60608061014c565b336001600160a01b037f0000000000000000000000000000000000000000000000000000000000000000161461024a57604051636edaef2f60e11b815260040160405180910390fd5b60008181526002602052604090205460ff1661027957604051630e65e5c960e11b815260040160405180910390fd5b806102838161081f565b6102a0576040516301870ddf60e71b815260040160405180910390fd5b60006102ab826107c4565b90506102b6826108c1565b6102bf8361092a565b61032e8160000151306001600160a01b031663c98091876040518163ffffffff1660e01b8152600401602060405180830381865afa158015610305573d6000803e3d6000fd5b505050506040513d601f19601f820116820180604052508101906103299190611d38565b61096a565b6103748160200151306001600160a01b031663c98091876040518163ffffffff1660e01b8152600401602060405180830381865afa158015610305573d6000803e3d6000fd5b505050565b336001600160a01b037f000000000000000000000000000000000000000000000000000000000000000016146103c257604051636edaef2f60e11b815260040160405180910390fd5b60008181526002602052604090205460ff166103f157604051630e65e5c960e11b815260040160405180910390fd5b806103fb8161081f565b610418576040516301870ddf60e71b815260040160405180910390fd5b6000610423826107c4565b905061042e826108c1565b6104378361092a565b61047d8160000151306001600160a01b031663c98091876040518163ffffffff1660e01b8152600401602060405180830381865afa158015610305573d6000803e3d6000fd5b6104c38160200151306001600160a01b031663c98091876040518163ffffffff1660e01b8152600401602060405180830381865afa158015610305573d6000803e3d6000fd5b5050505050565b60608060006104d76106f6565b9050606060005b82518110156105db57600061050b8483815181106104fe576104fe611d59565b60200260200101516107c4565b9050600061053185848151811061052457610524611d59565b602002602001015161081f565b90508015610566578151610546908590610a23565b935061055f826020015185610a2390919063ffffffff16565b93506105c6565b81516105aa906001600160a01b0316156105815782516105a3565b7f00000000000000000000000000000000000000000000000000000000000000005b8890610a4e565b96506105c3826040015187610b3f90919063ffffffff16565b95505b505080806105d390611d85565b9150506104de565b5060005b81518110156106e15760008282815181106105fc576105fc611d59565b602002602001015190506000806001600160a01b0316826001600160a01b031614610693576040516370a0823160e01b81526001600160a01b038316906370a082319061064d903090600401611bdb565b602060405180830381865afa15801561066a573d6000803e3d6000fd5b505050506040513d601f19601f8201168201806040525081019061068e9190611daa565b610695565b475b9050806000036106a65750506106cf565b6106be6001600160a01b0383161561058157826105a3565b96506106ca8682610b3f565b955050505b806106d981611d85565b9150506105df565b506106ec8484610c0f565b9350935050509091565b6060600080548060200260200160405190810160405280929190818152602001828054801561074457602002820191906000526020600020905b815481526020019060010190808311610730575b5050505050905090565b600080828060200190518101906107659190611e47565b9092509050816107785761037481610ec4565b600282036107895761037481610f83565b6001820361079a5761037481611035565b600382036107ab576103748161110e565b60405163703469d160e11b815260040160405180910390fd5b6040805160608082018352600080835260208084018290529284018190529384526001808352938390208351918201845280546001600160a01b03908116835294810154909416918101919091526002909201549082015290565b604051635cf86b4760e11b81526000906001600160a01b037f0000000000000000000000000000000000000000000000000000000000000000169063b9f0d68e9061086e908590600401611e9f565b602060405180830381865afa9250505080156108a7575060408051601f3d908101601f191682019092526108a491810190611daa565b60015b6108b357506001919050565b50600092915050565b919050565b6108cc60008261126b565b50600081815260016020819052604080832080546001600160a01b03199081168255928101805490931690925560029091018290555182917fd00f9df87317e48136dba4680c6b7e5a9763552f7c9fe645f8e992f22231437a91a250565b600081815260026020526040808220805460ff191690555182917f8ab1567bb8fb0d0c5f4669d635689bdfaa5e0a2bf9f38d387e203bfa8d6994da91a250565b60006001600160a01b038316156109ed576040516370a0823160e01b81526001600160a01b038416906370a08231906109a7903090600401611bdb565b602060405180830381865afa1580156109c4573d6000803e3d6000fd5b505050506040513d601f19601f820116820180604052508101906109e89190611daa565b6109ef565b475b90508015610374576001600160a01b038316610a0f57610374828261133e565b6103746001600160a01b03841683836113e3565b6060610a2f83836113ee565b15610a3b575081610a48565b610a458383610a4e565b90505b92915050565b606082516001610a5e9190611ead565b67ffffffffffffffff811115610a7657610a76611a3d565b604051908082528060200260200182016040528015610a9f578160200160208202803683370190505b50905060005b8351811015610b0457838181518110610ac057610ac0611d59565b6020026020010151828281518110610ada57610ada611d59565b6001600160a01b039092166020928302919091019091015280610afc81611d85565b915050610aa5565b508181845181518110610b1957610b19611d59565b60200260200101906001600160a01b031690816001600160a01b03168152505092915050565b606082516001610b4f9190611ead565b67ffffffffffffffff811115610b6757610b67611a3d565b604051908082528060200260200182016040528015610b90578160200160208202803683370190505b50905060005b8351811015610be857838181518110610bb157610bb1611d59565b6020026020010151828281518110610bcb57610bcb611d59565b602090810291909101015280610be081611d85565b915050610b96565b508181845181518110610bfd57610bfd611d59565b60200260200101818152505092915050565b606080835160000315610ebd576001805b8551811015610cc2576000805b82811015610c9b57878181518110610c4757610c47611d59565b60200260200101516001600160a01b0316888481518110610c6a57610c6a611d59565b60200260200101516001600160a01b031603610c895760019150610c9b565b80610c9381611d85565b915050610c2d565b5080610caf5782610cab81611d85565b9350505b5080610cba81611d85565b915050610c20565b508067ffffffffffffffff811115610cdc57610cdc611a3d565b604051908082528060200260200182016040528015610d05578160200160208202803683370190505b5092508067ffffffffffffffff811115610d2157610d21611a3d565b604051908082528060200260200182016040528015610d4a578160200160208202803683370190505b5091506000805b8651811015610eb9576000805b83811015610e0f57868181518110610d7857610d78611d59565b60200260200101516001600160a01b0316898481518110610d9b57610d9b611d59565b60200260200101516001600160a01b031603610dfd5760019150878381518110610dc757610dc7611d59565b6020026020010151868281518110610de157610de1611d59565b60200260200101818151610df59190611ead565b905250610e0f565b80610e0781611d85565b915050610d5e565b5080610ea657878281518110610e2757610e27611d59565b6020026020010151868481518110610e4157610e41611d59565b60200260200101906001600160a01b031690816001600160a01b031681525050868281518110610e7357610e73611d59565b6020026020010151858481518110610e8d57610e8d611d59565b602090810291909101015282610ea281611d85565b9350505b5080610eb181611d85565b915050610d51565b5050505b9250929050565b600081806020019051810190610eda9190611f32565b90506000610ee782611453565b90507f00000000000000000000000000000000000000000000000000000000000000006001600160a01b031663559bf6fd8284600001518560200151866040015187606001516040518663ffffffff1660e01b8152600401610f4c9493929190611f53565b6000604051808303818588803b158015610f6557600080fd5b505af1158015610f79573d6000803e3d6000fd5b5050505050505050565b600081806020019051810190610f999190612085565b905060005b81515181101561037457600082600001518281518110610fc057610fc0611d59565b60200260200101519050610fd38161081f565b610ff0576040516301870ddf60e71b815260040160405180910390fd5b6000610ffb826107c4565b9050611006826108c1565b61101481602001513361096a565b8051611020903361096a565b5050808061102d90611d85565b915050610f9e565b60008180602001905181019061104b919061215a565b905061105a81600001516108c1565b7f00000000000000000000000000000000000000000000000000000000000000006001600160a01b031663567014b382600001513084602001518560400151866060015187608001518860a001516040518863ffffffff1660e01b81526004016110ca979695949392919061217b565b600060405180830381600087803b1580156110e457600080fd5b505af11580156110f8573d6000803e3d6000fd5b5050505061110a81602001513361096a565b5050565b6000818060200190518101906111249190611f32565b9050600061113182611453565b905060007f00000000000000000000000000000000000000000000000000000000000000006001600160a01b031663b251d6056040518163ffffffff1660e01b8152600401602060405180830381865afa158015611193573d6000803e3d6000fd5b505050506040513d601f19601f820116820180604052508101906111b79190611daa565b6111c2906001611ead565b90506111cd8161156a565b82516020840151604080860151606087015191516312e9d42160e01b81526001600160a01b037f000000000000000000000000000000000000000000000000000000000000000016946312e9d42194889461123394929391929130908a906004016121e3565b6000604051808303818588803b15801561124c57600080fd5b505af1158015611260573d6000803e3d6000fd5b505050505050505050565b8154600090815b81811015611336578385828154811061128d5761128d611d59565b906000526020600020015403611324576112a860018361223d565b8110156112f557846112bb60018461223d565b815481106112cb576112cb611d59565b90600052602060002001548582815481106112e8576112e8611d59565b6000918252602090912001555b8480548061130557611305612250565b6001900381819060005260206000200160009055905560019250611336565b8061132e81611d85565b915050611272565b505092915050565b804710156113675760405162461bcd60e51b815260040161135e9061229d565b60405180910390fd5b6000826001600160a01b031682604051611380906122ad565b60006040518083038185875af1925050503d80600081146113bd576040519150601f19603f3d011682016040523d82523d6000602084013e6113c2565b606091505b50509050806103745760405162461bcd60e51b815260040161135e90612312565b6103748383836115ad565b6000805b83518110156114495783818151811061140d5761140d611d59565b60200260200101516001600160a01b0316836001600160a01b031603611437576001915050610a48565b8061144181611d85565b9150506113f2565b5060009392505050565b8051602080830151604080516060810182526001600160a01b03808616825283169381019390935280850151908301526000929161149090611603565b6001600160a01b03821661152857836040015192507f00000000000000000000000000000000000000000000000000000000000000006001600160a01b0316632e1a7d4d846040518263ffffffff1660e01b81526004016114f19190611e9f565b600060405180830381600087803b15801561150b57600080fd5b505af115801561151f573d6000803e3d6000fd5b50505050611563565b6040840151611563906001600160a01b038416907f00000000000000000000000000000000000000000000000000000000000000009061174d565b5050919050565b600081815260026020526040808220805460ff191660011790555182917f251e3327dcd313dd100eb170bdf91f32150e74f662f92fe67b9dfeda24c5ab6b91a250565b6103748363a9059cbb60e01b84846040516024016115cc929190612322565b60408051601f198184030181529190526020810180516001600160e01b03166001600160e01b031990931692909217909152611758565b60007f00000000000000000000000000000000000000000000000000000000000000006001600160a01b031663b251d6056040518163ffffffff1660e01b8152600401602060405180830381865afa158015611663573d6000803e3d6000fd5b505050506040513d601f19601f820116820180604052508101906116879190611daa565b611692906001611ead565b60008054600180820183557f290decd9548b62a8d60345a988386fc84ba6bc95484008f6362f93160ef3e5639091018390558282526020818152604092839020865181546001600160a01b03199081166001600160a01b039283161783559288015193820180549093169316929092179055848201516002909101555190915081907fd9eeae417ff406e218312809f653d23ef0c3a029d2e9c3a1792c010fd35399ef90611741908590611d1f565b60405180910390a25050565b6103748383836117e7565b60006117ad826040518060400160405280602081526020017f5361666545524332303a206c6f772d6c6576656c2063616c6c206661696c6564815250856001600160a01b031661189b9092919063ffffffff16565b80519091501561037457808060200190518101906117cb9190612350565b6103745760405162461bcd60e51b815260040161135e906123b8565b8015806118605750604051636eb1769f60e11b81526001600160a01b0384169063dd62ed3e9061181d90309086906004016123c8565b602060405180830381865afa15801561183a573d6000803e3d6000fd5b505050506040513d601f19601f8201168201806040525081019061185e9190611daa565b155b61187c5760405162461bcd60e51b815260040161135e90612436565b6103748363095ea7b360e01b84846040516024016115cc929190612322565b60606118aa84846000856118b4565b90505b9392505050565b6060824710156118d65760405162461bcd60e51b815260040161135e90612489565b600080866001600160a01b031685876040516118f291906124bb565b60006040518083038185875af1925050503d806000811461192f576040519150601f19603f3d011682016040523d82523d6000602084013e611934565b606091505b509150915061194587838387611952565b925050505b949350505050565b6060831561199157825160000361198a576001600160a01b0385163b61198a5760405162461bcd60e51b815260040161135e906124fb565b508161194a565b61194a83838151156119a65781518083602001fd5b8060405162461bcd60e51b815260040161135e919061253d565b60006001600160a01b038216610a48565b6000610a48826119c0565b6000610a48826119d1565b6119f0816119dc565b82525050565b60208101610a4882846119e7565b805b811461011957600080fd5b8035610a4881611a04565b600060208284031215611a3157611a31600080fd5b600061194a8484611a11565b634e487b7160e01b600052604160045260246000fd5b601f19601f830116810181811067ffffffffffffffff82111715611a7957611a79611a3d565b6040525050565b6000611a8b60405190565b90506108bc8282611a53565b600067ffffffffffffffff821115611ab157611ab1611a3d565b601f19601f83011660200192915050565b82818337506000910152565b6000611ae1611adc84611a97565b611a80565b905082815260208101848484011115611afc57611afc600080fd5b611b07848285611ac2565b509392505050565b600082601f830112611b2357611b23600080fd5b813561194a848260208601611ace565b600060208284031215611b4857611b48600080fd5b813567ffffffffffffffff811115611b6257611b62600080fd5b61194a84828501611b0f565b611a06816119c0565b8035610a4881611b6e565b600080600060608486031215611b9a57611b9a600080fd5b6000611ba68686611b77565b9350506020611bb786828701611a11565b9250506040611bc886828701611a11565b9150509250925092565b6119f0816119c0565b60208101610a488284611bd2565b6000611bf58383611bd2565b505060200190565b6000611c07825190565b80845260209384019383018060005b83811015611c3b578151611c2a8882611be9565b975060208301925050600101611c16565b509495945050505050565b806119f0565b6000611bf58383611c46565b6000611c62825190565b80845260209384019383018060005b83811015611c3b578151611c858882611c4c565b975060208301925050600101611c71565b60408082528101611ca78185611bfd565b905081810360208301526118aa8184611c58565b60208082528101610a458184611c58565b8015156119f0565b60208101610a488284611ccc565b80516060830190611cf38482611bd2565b506020820151611d066020850182611bd2565b506040820151611d196040850182611c46565b50505050565b60608101610a488284611ce2565b8051610a4881611b6e565b600060208284031215611d4d57611d4d600080fd5b600061194a8484611d2d565b634e487b7160e01b600052603260045260246000fd5b634e487b7160e01b600052601160045260246000fd5b60006000198203611d9857611d98611d6f565b5060010190565b8051610a4881611a04565b600060208284031215611dbf57611dbf600080fd5b600061194a8484611d9f565b60005b83811015611de6578181015183820152602001611dce565b50506000910152565b6000611dfd611adc84611a97565b905082815260208101848484011115611e1857611e18600080fd5b611b07848285611dcb565b600082601f830112611e3757611e37600080fd5b815161194a848260208601611def565b60008060408385031215611e5d57611e5d600080fd5b6000611e698585611d9f565b925050602083015167ffffffffffffffff811115611e8957611e89600080fd5b611e9585828601611e23565b9150509250929050565b60208101610a488284611c46565b80820180821115610a4857610a48611d6f565b600060808284031215611ed557611ed5600080fd5b611edf6080611a80565b90506000611eed8484611d2d565b8252506020611efe84848301611d2d565b6020830152506040611f1284828501611d9f565b6040830152506060611f2684828501611d9f565b60608301525092915050565b600060808284031215611f4757611f47600080fd5b600061194a8484611ec0565b60808101611f618287611bd2565b611f6e6020830186611bd2565b611f7b6040830185611c46565b611f886060830184611c46565b95945050505050565b600067ffffffffffffffff821115611fab57611fab611a3d565b5060209081020190565b6000611fc3611adc84611f91565b83815290506020808201908402830185811115611fe257611fe2600080fd5b835b818110156120065780611ff78882611d9f565b84525060209283019201611fe4565b5050509392505050565b600082601f83011261202457612024600080fd5b815161194a848260208601611fb5565b60006020828403121561204957612049600080fd5b6120536020611a80565b825190915067ffffffffffffffff81111561207057612070600080fd5b61207c84828501612010565b82525092915050565b60006020828403121561209a5761209a600080fd5b815167ffffffffffffffff8111156120b4576120b4600080fd5b61194a84828501612034565b600060c082840312156120d5576120d5600080fd5b6120df60c0611a80565b905060006120ed8484611d9f565b82525060206120fe84848301611d2d565b602083015250604061211284828501611d2d565b604083015250606061212684828501611d9f565b606083015250608061213a84828501611d9f565b60808301525060a061214e84828501611d9f565b60a08301525092915050565b600060c0828403121561216f5761216f600080fd5b600061194a84846120c0565b60e08101612189828a611c46565b6121966020830189611bd2565b6121a36040830188611bd2565b6121b06060830187611bd2565b6121bd6080830186611c46565b6121ca60a0830185611c46565b6121d760c0830184611c46565b98975050505050505050565b60c081016121f18289611bd2565b6121fe6020830188611bd2565b61220b6040830187611c46565b6122186060830186611c46565b6122256080830185611bd2565b61223260a0830184611c46565b979650505050505050565b81810381811115610a4857610a48611d6f565b634e487b7160e01b600052603160045260246000fd5b601d81526000602082017f416464726573733a20696e73756666696369656e742062616c616e6365000000815291505b5060200190565b60208082528101610a4881612266565b600081610a48565b603a81526000602082017f416464726573733a20756e61626c6520746f2073656e642076616c75652c207281527f6563697069656e74206d61792068617665207265766572746564000000000000602082015291505b5060400190565b60208082528101610a48816122b5565b604081016123308285611bd2565b6118ad6020830184611c46565b801515611a06565b8051610a488161233d565b60006020828403121561236557612365600080fd5b600061194a8484612345565b602a81526000602082017f5361666545524332303a204552433230206f7065726174696f6e20646964206e8152691bdd081cdd58d8d9595960b21b6020820152915061230b565b60208082528101610a4881612371565b604081016123d68285611bd2565b6118ad6020830184611bd2565b603681526000602082017f5361666545524332303a20617070726f76652066726f6d206e6f6e2d7a65726f81527520746f206e6f6e2d7a65726f20616c6c6f77616e636560501b6020820152915061230b565b60208082528101610a48816123e3565b602681526000602082017f416464726573733a20696e73756666696369656e742062616c616e636520666f8152651c8818d85b1b60d21b6020820152915061230b565b60208082528101610a4881612446565b60006124a3825190565b6124b1818560208601611dcb565b9290920192915050565b60006118ad8284612499565b601d81526000602082017f416464726573733a2063616c6c20746f206e6f6e2d636f6e747261637400000081529150612296565b60208082528101610a48816124c7565b6000612515825190565b80845260208401935061252c818560208601611dcb565b601f01601f19169290920192915050565b60208082528101610a45818461250b56","linkReferences":{}},"methodIdentifiers":{"ALICEV2_NATIVE_ASSET_ADDRESS()":"74223f78","ALICE_INSTANT_ORDER_V2()":"ca7e5ca8","WRAPPED_NATIVE_TOKEN()":"1b3f8c5e","getDebtAssets()":"ecd658b4","getManagedAssets()":"80daddb8","getOrderDetails(uint256)":"ec7dd7bb","getOrderIds()":"9e0acf8f","init(bytes)":"4ddf47d4","isPendingReferenceId(bytes32)":"e4fa5461","notifyCancel(bytes32)":"4cf775fe","notifySettle(address,uint256,bytes32)":"69367343","receiveCallFromVault(bytes)":"e5c23a97"},"id":98}