{"abi":[{"type":"constructor","inputs":[{"name":"_integrationManagerAddress","type":"address","internalType":"address"},{"name":"_augustusSwapper","type":"address","internalType":"contract IParaSwapV6AugustusSwapper"}],"stateMutability":"nonpayable"},{"type":"function","name":"PARA_SWAP_V6_AUGUSTUS_SWAPPER","inputs":[],"outputs":[{"name":"","type":"address","internalType":"contract IParaSwapV6AugustusSwapper"}],"stateMutability":"view"},{"type":"function","name":"action","inputs":[{"name":"_vaultProxyAddress","type":"address","internalType":"address"},{"name":"_actionData","type":"bytes","internalType":"bytes"},{"name":"","type":"bytes","internalType":"bytes"}],"outputs":[],"stateMutability":"nonpayable"},{"type":"function","name":"getIntegrationManager","inputs":[],"outputs":[{"name":"integrationManager_","type":"address","internalType":"address"}],"stateMutability":"view"},{"type":"function","name":"parseAssetsForAction","inputs":[{"name":"","type":"address","internalType":"address"},{"name":"_selector","type":"bytes4","internalType":"bytes4"},{"name":"_actionData","type":"bytes","internalType":"bytes"}],"outputs":[{"name":"spendAssetsHandleType_","type":"uint8","internalType":"enum IIntegrationManager.SpendAssetsHandleType"},{"name":"spendAssets_","type":"address[]","internalType":"address[]"},{"name":"spendAssetAmounts_","type":"uint256[]","internalType":"uint256[]"},{"name":"incomingAssets_","type":"address[]","internalType":"address[]"},{"name":"minIncomingAssetAmounts_","type":"uint256[]","internalType":"uint256[]"}],"stateMutability":"pure"},{"type":"error","name":"ParaSwapV6Adapter__InvalidAction","inputs":[]}],"bytecode":{"object":"0x60c06040523480156200001157600080fd5b5060405162001695380380620016958339810160408190526200003491620000ab565b6001600160a01b039182166080521660a052620000ee565b60006001600160a01b0382165b92915050565b6200006a816200004c565b81146200007657600080fd5b50565b805162000059816200005f565b600062000059826200004c565b6200006a8162000086565b8051620000598162000093565b60008060408385031215620000c357620000c3600080fd5b6000620000d1858562000079565b9250506020620000e4858286016200009e565b9150509250929050565b60805160a0516115676200012e6000396000818160560152818161039e015281816104bb0152818161057001526106190152600060c901526115676000f3fe608060405234801561001057600080fd5b506004361061004c5760003560e01c806316c8a06614610051578063a7a19e001461008e578063c54efee5146100a3578063e7c45690146100c7575b600080fd5b6100787f000000000000000000000000000000000000000000000000000000000000000081565b6040516100859190610b09565b60405180910390f35b6100a161009c366004610b8b565b6100f5565b005b6100b66100b1366004610c36565b61019c565b604051610085959493929190610da3565b7f00000000000000000000000000000000000000000000000000000000000000006040516100859190610e0a565b60008061010485870187610f26565b9092509050600082600181111561011d5761011d610ca4565b036101445761013f878280602001905181019061013a919061113f565b610390565b610193565b600182600181111561015857610158610ca4565b0361017a5761013f8782806020019051810190610175919061113f565b610562565b604051633f0b938160e21b815260040160405180910390fd5b50505050505050565b600060608080806001600160e01b031988166253d0cf60e91b146101d357604051633f0b938160e21b815260040160405180910390fd5b6000806101e2888a018a610f26565b909250905060008260018111156101fb576101fb610ca4565b14806102185750600182600181111561021657610216610ca4565b145b1561037f57600081806020019051810190610233919061113f565b60408051600180825281830190925291925060208083019080368337505060408051600180825281830190925292995090506020808301908036833750506040805160018082528183019092529298509050602080830190803683375050604080516001808252818301909252929750905060208083019080368337019050509350806020015160000151876000815181106102d1576102d161117a565b60200260200101906001600160a01b031690816001600160a01b0316815250508060200151604001518660008151811061030d5761030d61117a565b602002602001018181525050806020015160200151856000815181106103355761033561117a565b60200260200101906001600160a01b031690816001600160a01b031681525050806020015160600151846000815181106103715761037161117a565b602002602001018181525050505b600296505050945094509450945094565b6103cb8160200151600001517f00000000000000000000000000000000000000000000000000000000000000008360200151604001516106b2565b60006040518060e001604052808360200151600001516001600160a01b031681526020018360200151602001516001600160a01b031681526020018360200151600001516001600160a01b03166370a08231306040518263ffffffff1660e01b815260040161043a9190610e0a565b602060405180830381865afa158015610457573d6000803e3d6000fd5b505050506040513d601f19601f8201168201806040525081019061047b9190611190565b815260200183602001516060015181526020018360200151608001518152602001836020015160a001518152602001846001600160a01b031681525090507f00000000000000000000000000000000000000000000000000000000000000006001600160a01b031663e3ead59e836000015183856040015186606001516040518563ffffffff1660e01b81526004016105179493929190611266565b6060604051808303816000875af1158015610536573d6000803e3d6000fd5b505050506040513d601f19601f8201168201806040525081019061055a91906112bf565b505050505050565b61059d8160200151600001517f00000000000000000000000000000000000000000000000000000000000000008360200151604001516106b2565b6040805160e08101825260208084018051516001600160a01b0390811684528151830151811692840192909252805184015183850152805160609081015181850152815160809081015190850152905160a0908101519084015285821660c0840152845185850151918601519451637f45767560e01b815293947f000000000000000000000000000000000000000000000000000000000000000090931693637f45767593610653938792909190600401611266565b6080604051808303816000875af1158015610672573d6000803e3d6000fd5b505050506040513d601f19601f82011682018060405250810190610696919061130f565b505050506106ac8383602001516000015161075f565b50505050565b604051636eb1769f60e11b81526000906001600160a01b0385169063dd62ed3e906106e39030908790600401611373565b602060405180830381865afa158015610700573d6000803e3d6000fd5b505050506040513d601f19601f820116820180604052508101906107249190611190565b9050818110156106ac578015610749576107496001600160a01b0385168460006107f1565b6106ac6001600160a01b038516846000196107f1565b6040516370a0823160e01b81526000906001600160a01b038316906370a082319061078e903090600401610e0a565b602060405180830381865afa1580156107ab573d6000803e3d6000fd5b505050506040513d601f19601f820116820180604052508101906107cf9190611190565b905080156107eb576107eb6001600160a01b0383168483610801565b92915050565b6107fc83838361080c565b505050565b6107fc838383610900565b8015806108855750604051636eb1769f60e11b81526001600160a01b0384169063dd62ed3e906108429030908690600401611373565b602060405180830381865afa15801561085f573d6000803e3d6000fd5b505050506040513d601f19601f820116820180604052508101906108839190611190565b155b6108aa5760405162461bcd60e51b81526004016108a1906113e4565b60405180910390fd5b6107fc8363095ea7b360e01b84846040516024016108c99291906113f4565b60408051601f198184030181529190526020810180516001600160e01b03166001600160e01b03199093169290921790915261091f565b6107fc8363a9059cbb60e01b84846040516024016108c99291906113f4565b6000610974826040518060400160405280602081526020017f5361666545524332303a206c6f772d6c6576656c2063616c6c206661696c6564815250856001600160a01b03166109ae9092919063ffffffff16565b8051909150156107fc57808060200190518101906109929190611422565b6107fc5760405162461bcd60e51b81526004016108a19061148a565b60606109bd84846000856109c7565b90505b9392505050565b6060824710156109e95760405162461bcd60e51b81526004016108a1906114dd565b600080866001600160a01b03168587604051610a05919061150f565b60006040518083038185875af1925050503d8060008114610a42576040519150601f19603f3d011682016040523d82523d6000602084013e610a47565b606091505b5091509150610a5887838387610a65565b925050505b949350505050565b60608315610aa4578251600003610a9d576001600160a01b0385163b610a9d5760405162461bcd60e51b81526004016108a19061151b565b5081610a5d565b610a5d8383815115610ab95781518083602001fd5b8060405162461bcd60e51b81526004016108a19190611556565b60006001600160a01b0382166107eb565b60006107eb82610ad3565b60006107eb82610ae4565b610b0381610aef565b82525050565b602081016107eb8284610afa565b610b2081610ad3565b8114610b2b57600080fd5b50565b80356107eb81610b17565b60008083601f840112610b4e57610b4e600080fd5b50813567ffffffffffffffff811115610b6957610b69600080fd5b602083019150836001820283011115610b8457610b84600080fd5b9250929050565b600080600080600060608688031215610ba657610ba6600080fd5b6000610bb28888610b2e565b955050602086013567ffffffffffffffff811115610bd257610bd2600080fd5b610bde88828901610b39565b9450945050604086013567ffffffffffffffff811115610c0057610c00600080fd5b610c0c88828901610b39565b92509250509295509295909350565b6001600160e01b03198116610b20565b80356107eb81610c1b565b60008060008060608587031215610c4f57610c4f600080fd5b6000610c5b8787610b2e565b9450506020610c6c87828801610c2b565b935050604085013567ffffffffffffffff811115610c8c57610c8c600080fd5b610c9887828801610b39565b95989497509550505050565b634e487b7160e01b600052602160045260246000fd5b60038110610b2b57610b2b610ca4565b80610cd481610cba565b919050565b60006107eb82610cca565b610b0381610cd9565b610b0381610ad3565b6000610d028383610ced565b505060200190565b6000610d14825190565b80845260209384019383018060005b83811015610d48578151610d378882610cf6565b975060208301925050600101610d23565b509495945050505050565b80610b03565b6000610d028383610d53565b6000610d6f825190565b80845260209384019383018060005b83811015610d48578151610d928882610d59565b975060208301925050600101610d7e565b60a08101610db18288610ce4565b8181036020830152610dc38187610d0a565b90508181036040830152610dd78186610d65565b90508181036060830152610deb8185610d0a565b90508181036080830152610dff8184610d65565b979650505050505050565b602081016107eb8284610ced565b60028110610b2b57600080fd5b80356107eb81610e18565b634e487b7160e01b600052604160045260246000fd5b601f19601f830116810181811067ffffffffffffffff82111715610e6c57610e6c610e30565b6040525050565b6000610e7e60405190565b9050610cd48282610e46565b600067ffffffffffffffff821115610ea457610ea4610e30565b601f19601f83011660200192915050565b82818337506000910152565b6000610ed4610ecf84610e8a565b610e73565b905082815260208101848484011115610eef57610eef600080fd5b610efa848285610eb5565b509392505050565b600082601f830112610f1657610f16600080fd5b8135610a5d848260208601610ec1565b60008060408385031215610f3c57610f3c600080fd5b6000610f488585610e25565b925050602083013567ffffffffffffffff811115610f6857610f68600080fd5b610f7485828601610f02565b9150509250929050565b80516107eb81610b17565b80610b20565b80516107eb81610f89565b600060c08284031215610faf57610faf600080fd5b610fb960c0610e73565b90506000610fc78484610f7e565b8252506020610fd884848301610f7e565b6020830152506040610fec84828501610f8f565b604083015250606061100084828501610f8f565b606083015250608061101484828501610f8f565b60808301525060a061102884828501610f8f565b60a08301525092915050565b60005b8381101561104f578181015183820152602001611037565b50506000910152565b6000611066610ecf84610e8a565b90508281526020810184848401111561108157611081600080fd5b610efa848285611034565b600082601f8301126110a0576110a0600080fd5b8151610a5d848260208601611058565b600061012082840312156110c6576110c6600080fd5b6110d06080610e73565b905060006110de8484610f7e565b82525060206110ef84848301610f9a565b60208301525060e061110384828501610f8f565b60408301525061010082015167ffffffffffffffff81111561112757611127600080fd5b6111338482850161108c565b60608301525092915050565b60006020828403121561115457611154600080fd5b815167ffffffffffffffff81111561116e5761116e600080fd5b610a5d848285016110b0565b634e487b7160e01b600052603260045260246000fd5b6000602082840312156111a5576111a5600080fd5b6000610a5d8484610f8f565b805160e08301906111c28482610ced565b5060208201516111d56020850182610ced565b5060408201516111e86040850182610d53565b5060608201516111fb6060850182610d53565b50608082015161120e6080850182610d53565b5060a082015161122160a0850182610d53565b5060c08201516106ac60c0850182610ced565b600061123e825190565b808452602084019350611255818560208601611034565b601f01601f19169290920192915050565b61016081016112758287610ced565b61128260208301866111b1565b611290610100830185610d53565b8181036101208301819052600082526020908101610140840152016112b58184611234565b9695505050505050565b6000806000606084860312156112d7576112d7600080fd5b60006112e38686610f8f565b93505060206112f486828701610f8f565b925050604061130586828701610f8f565b9150509250925092565b6000806000806080858703121561132857611328600080fd5b60006113348787610f8f565b945050602061134587828801610f8f565b935050604061135687828801610f8f565b925050606061136787828801610f8f565b91505092959194509250565b604081016113818285610ced565b6109c06020830184610ced565b603681526000602082017f5361666545524332303a20617070726f76652066726f6d206e6f6e2d7a65726f81527520746f206e6f6e2d7a65726f20616c6c6f77616e636560501b602082015291505b5060400190565b602080825281016107eb8161138e565b604081016114028285610ced565b6109c06020830184610d53565b801515610b20565b80516107eb8161140f565b60006020828403121561143757611437600080fd5b6000610a5d8484611417565b602a81526000602082017f5361666545524332303a204552433230206f7065726174696f6e20646964206e8152691bdd081cdd58d8d9595960b21b602082015291506113dd565b602080825281016107eb81611443565b602681526000602082017f416464726573733a20696e73756666696369656e742062616c616e636520666f8152651c8818d85b1b60d21b602082015291506113dd565b602080825281016107eb8161149a565b60006114f7825190565b611505818560208601611034565b9290920192915050565b60006109c082846114ed565b602080825281016107eb81601d81527f416464726573733a2063616c6c20746f206e6f6e2d636f6e7472616374000000602082015260400190565b602080825281016109c0818461123456","linkReferences":{}},"methodIdentifiers":{"PARA_SWAP_V6_AUGUSTUS_SWAPPER()":"16c8a066","action(address,bytes,bytes)":"a7a19e00","getIntegrationManager()":"e7c45690","parseAssetsForAction(address,bytes4,bytes)":"c54efee5"},"id":166}