{"abi":[{"type":"constructor","inputs":[{"name":"_integrationManagerAddress","type":"address","internalType":"address"},{"name":"_augustusSwapper","type":"address","internalType":"contract IParaSwapV6AugustusSwapper"}],"stateMutability":"nonpayable"},{"type":"function","name":"PARA_SWAP_V6_AUGUSTUS_SWAPPER","inputs":[],"outputs":[{"name":"","type":"address","internalType":"contract IParaSwapV6AugustusSwapper"}],"stateMutability":"view"},{"type":"function","name":"action","inputs":[{"name":"_vaultProxyAddress","type":"address","internalType":"address"},{"name":"_actionData","type":"bytes","internalType":"bytes"},{"name":"","type":"bytes","internalType":"bytes"}],"outputs":[],"stateMutability":"nonpayable"},{"type":"function","name":"getIntegrationManager","inputs":[],"outputs":[{"name":"integrationManager_","type":"address","internalType":"address"}],"stateMutability":"view"},{"type":"function","name":"parseAssetsForAction","inputs":[{"name":"","type":"address","internalType":"address"},{"name":"_selector","type":"bytes4","internalType":"bytes4"},{"name":"_actionData","type":"bytes","internalType":"bytes"}],"outputs":[{"name":"spendAssetsHandleType_","type":"uint8","internalType":"enum IIntegrationManager.SpendAssetsHandleType"},{"name":"spendAssets_","type":"address[]","internalType":"address[]"},{"name":"spendAssetAmounts_","type":"uint256[]","internalType":"uint256[]"},{"name":"incomingAssets_","type":"address[]","internalType":"address[]"},{"name":"minIncomingAssetAmounts_","type":"uint256[]","internalType":"uint256[]"}],"stateMutability":"pure"},{"type":"error","name":"ParaSwapV6Adapter__InvalidAction","inputs":[]}],"bytecode":{"object":"0x60c06040523480156200001157600080fd5b5060405162001663380380620016638339810160408190526200003491620000ab565b6001600160a01b039182166080521660a052620000ee565b60006001600160a01b0382165b92915050565b6200006a816200004c565b81146200007657600080fd5b50565b805162000059816200005f565b600062000059826200004c565b6200006a8162000086565b8051620000598162000093565b60008060408385031215620000c357620000c3600080fd5b6000620000d1858562000079565b9250506020620000e4858286016200009e565b9150509250929050565b60805160a0516115356200012e60003960008181605601528181610415015281816104b30152818161053e01526105e70152600060c901526115356000f3fe608060405234801561001057600080fd5b506004361061004c5760003560e01c806316c8a06614610051578063a7a19e001461008e578063c54efee5146100a3578063e7c45690146100c7575b600080fd5b6100787f000000000000000000000000000000000000000000000000000000000000000081565b6040516100859190610ad7565b60405180910390f35b6100a161009c366004610b59565b6100f5565b005b6100b66100b1366004610c04565b61019c565b604051610085959493929190610d71565b7f00000000000000000000000000000000000000000000000000000000000000006040516100859190610dd8565b60008061010485870187610ef4565b9092509050600082600181111561011d5761011d610c72565b036101445761013f878280602001905181019061013a919061110d565b610390565b610193565b600182600181111561015857610158610c72565b0361017a5761013f8782806020019051810190610175919061110d565b610530565b604051633f0b938160e21b815260040160405180910390fd5b50505050505050565b600060608080806001600160e01b031988166253d0cf60e91b146101d357604051633f0b938160e21b815260040160405180910390fd5b6000806101e2888a018a610ef4565b909250905060008260018111156101fb576101fb610c72565b14806102185750600182600181111561021657610216610c72565b145b1561037f57600081806020019051810190610233919061110d565b60408051600180825281830190925291925060208083019080368337505060408051600180825281830190925292995090506020808301908036833750506040805160018082528183019092529298509050602080830190803683375050604080516001808252818301909252929750905060208083019080368337019050509350806020015160000151876000815181106102d1576102d1611148565b60200260200101906001600160a01b031690816001600160a01b0316815250508060200151604001518660008151811061030d5761030d611148565b6020026020010181815250508060200151602001518560008151811061033557610335611148565b60200260200101906001600160a01b031690816001600160a01b0316815250508060200151606001518460008151811061037157610371611148565b602002602001018181525050505b600296505050945094509450945094565b6020810151516040516370a0823160e01b81526000916001600160a01b0316906370a08231906103c4903090600401610dd8565b602060405180830381865afa1580156103e1573d6000803e3d6000fd5b505050506040513d601f19601f82011682018060405250810190610405919061115e565b905061043a8260200151600001517f000000000000000000000000000000000000000000000000000000000000000083610680565b6040805160e08101825260208085018051516001600160a01b0390811684528151830151811692840192909252828401859052805160609081015181850152815160809081015190850152905160a0908101519084015286821660c08401528551868501519187015194516371f56acf60e11b815293947f00000000000000000000000000000000000000000000000000000000000000009093169363e3ead59e936104ed938792909190600401611234565b6060604051808303816000875af115801561050c573d6000803e3d6000fd5b505050506040513d601f19601f82011682018060405250810190610193919061128d565b61056b8160200151600001517f0000000000000000000000000000000000000000000000000000000000000000836020015160400151610680565b6040805160e08101825260208084018051516001600160a01b0390811684528151830151811692840192909252805184015183850152805160609081015181850152815160809081015190850152905160a0908101519084015285821660c0840152845185850151918601519451637f45767560e01b815293947f000000000000000000000000000000000000000000000000000000000000000090931693637f45767593610621938792909190600401611234565b6080604051808303816000875af1158015610640573d6000803e3d6000fd5b505050506040513d601f19601f8201168201806040525081019061066491906112dd565b5050505061067a8383602001516000015161072d565b50505050565b604051636eb1769f60e11b81526000906001600160a01b0385169063dd62ed3e906106b19030908790600401611341565b602060405180830381865afa1580156106ce573d6000803e3d6000fd5b505050506040513d601f19601f820116820180604052508101906106f2919061115e565b90508181101561067a578015610717576107176001600160a01b0385168460006107bf565b61067a6001600160a01b038516846000196107bf565b6040516370a0823160e01b81526000906001600160a01b038316906370a082319061075c903090600401610dd8565b602060405180830381865afa158015610779573d6000803e3d6000fd5b505050506040513d601f19601f8201168201806040525081019061079d919061115e565b905080156107b9576107b96001600160a01b03831684836107cf565b92915050565b6107ca8383836107da565b505050565b6107ca8383836108ce565b8015806108535750604051636eb1769f60e11b81526001600160a01b0384169063dd62ed3e906108109030908690600401611341565b602060405180830381865afa15801561082d573d6000803e3d6000fd5b505050506040513d601f19601f82011682018060405250810190610851919061115e565b155b6108785760405162461bcd60e51b815260040161086f906113b2565b60405180910390fd5b6107ca8363095ea7b360e01b84846040516024016108979291906113c2565b60408051601f198184030181529190526020810180516001600160e01b03166001600160e01b0319909316929092179091526108ed565b6107ca8363a9059cbb60e01b84846040516024016108979291906113c2565b6000610942826040518060400160405280602081526020017f5361666545524332303a206c6f772d6c6576656c2063616c6c206661696c6564815250856001600160a01b031661097c9092919063ffffffff16565b8051909150156107ca578080602001905181019061096091906113f0565b6107ca5760405162461bcd60e51b815260040161086f90611458565b606061098b8484600085610995565b90505b9392505050565b6060824710156109b75760405162461bcd60e51b815260040161086f906114ab565b600080866001600160a01b031685876040516109d391906114dd565b60006040518083038185875af1925050503d8060008114610a10576040519150601f19603f3d011682016040523d82523d6000602084013e610a15565b606091505b5091509150610a2687838387610a33565b925050505b949350505050565b60608315610a72578251600003610a6b576001600160a01b0385163b610a6b5760405162461bcd60e51b815260040161086f906114e9565b5081610a2b565b610a2b8383815115610a875781518083602001fd5b8060405162461bcd60e51b815260040161086f9190611524565b60006001600160a01b0382166107b9565b60006107b982610aa1565b60006107b982610ab2565b610ad181610abd565b82525050565b602081016107b98284610ac8565b610aee81610aa1565b8114610af957600080fd5b50565b80356107b981610ae5565b60008083601f840112610b1c57610b1c600080fd5b50813567ffffffffffffffff811115610b3757610b37600080fd5b602083019150836001820283011115610b5257610b52600080fd5b9250929050565b600080600080600060608688031215610b7457610b74600080fd5b6000610b808888610afc565b955050602086013567ffffffffffffffff811115610ba057610ba0600080fd5b610bac88828901610b07565b9450945050604086013567ffffffffffffffff811115610bce57610bce600080fd5b610bda88828901610b07565b92509250509295509295909350565b6001600160e01b03198116610aee565b80356107b981610be9565b60008060008060608587031215610c1d57610c1d600080fd5b6000610c298787610afc565b9450506020610c3a87828801610bf9565b935050604085013567ffffffffffffffff811115610c5a57610c5a600080fd5b610c6687828801610b07565b95989497509550505050565b634e487b7160e01b600052602160045260246000fd5b60038110610af957610af9610c72565b80610ca281610c88565b919050565b60006107b982610c98565b610ad181610ca7565b610ad181610aa1565b6000610cd08383610cbb565b505060200190565b6000610ce2825190565b80845260209384019383018060005b83811015610d16578151610d058882610cc4565b975060208301925050600101610cf1565b509495945050505050565b80610ad1565b6000610cd08383610d21565b6000610d3d825190565b80845260209384019383018060005b83811015610d16578151610d608882610d27565b975060208301925050600101610d4c565b60a08101610d7f8288610cb2565b8181036020830152610d918187610cd8565b90508181036040830152610da58186610d33565b90508181036060830152610db98185610cd8565b90508181036080830152610dcd8184610d33565b979650505050505050565b602081016107b98284610cbb565b60028110610af957600080fd5b80356107b981610de6565b634e487b7160e01b600052604160045260246000fd5b601f19601f830116810181811067ffffffffffffffff82111715610e3a57610e3a610dfe565b6040525050565b6000610e4c60405190565b9050610ca28282610e14565b600067ffffffffffffffff821115610e7257610e72610dfe565b601f19601f83011660200192915050565b82818337506000910152565b6000610ea2610e9d84610e58565b610e41565b905082815260208101848484011115610ebd57610ebd600080fd5b610ec8848285610e83565b509392505050565b600082601f830112610ee457610ee4600080fd5b8135610a2b848260208601610e8f565b60008060408385031215610f0a57610f0a600080fd5b6000610f168585610df3565b925050602083013567ffffffffffffffff811115610f3657610f36600080fd5b610f4285828601610ed0565b9150509250929050565b80516107b981610ae5565b80610aee565b80516107b981610f57565b600060c08284031215610f7d57610f7d600080fd5b610f8760c0610e41565b90506000610f958484610f4c565b8252506020610fa684848301610f4c565b6020830152506040610fba84828501610f5d565b6040830152506060610fce84828501610f5d565b6060830152506080610fe284828501610f5d565b60808301525060a0610ff684828501610f5d565b60a08301525092915050565b60005b8381101561101d578181015183820152602001611005565b50506000910152565b6000611034610e9d84610e58565b90508281526020810184848401111561104f5761104f600080fd5b610ec8848285611002565b600082601f83011261106e5761106e600080fd5b8151610a2b848260208601611026565b6000610120828403121561109457611094600080fd5b61109e6080610e41565b905060006110ac8484610f4c565b82525060206110bd84848301610f68565b60208301525060e06110d184828501610f5d565b60408301525061010082015167ffffffffffffffff8111156110f5576110f5600080fd5b6111018482850161105a565b60608301525092915050565b60006020828403121561112257611122600080fd5b815167ffffffffffffffff81111561113c5761113c600080fd5b610a2b8482850161107e565b634e487b7160e01b600052603260045260246000fd5b60006020828403121561117357611173600080fd5b6000610a2b8484610f5d565b805160e08301906111908482610cbb565b5060208201516111a36020850182610cbb565b5060408201516111b66040850182610d21565b5060608201516111c96060850182610d21565b5060808201516111dc6080850182610d21565b5060a08201516111ef60a0850182610d21565b5060c082015161067a60c0850182610cbb565b600061120c825190565b808452602084019350611223818560208601611002565b601f01601f19169290920192915050565b61016081016112438287610cbb565b611250602083018661117f565b61125e610100830185610d21565b8181036101208301819052600082526020908101610140840152016112838184611202565b9695505050505050565b6000806000606084860312156112a5576112a5600080fd5b60006112b18686610f5d565b93505060206112c286828701610f5d565b92505060406112d386828701610f5d565b9150509250925092565b600080600080608085870312156112f6576112f6600080fd5b60006113028787610f5d565b945050602061131387828801610f5d565b935050604061132487828801610f5d565b925050606061133587828801610f5d565b91505092959194509250565b6040810161134f8285610cbb565b61098e6020830184610cbb565b603681526000602082017f5361666545524332303a20617070726f76652066726f6d206e6f6e2d7a65726f81527520746f206e6f6e2d7a65726f20616c6c6f77616e636560501b602082015291505b5060400190565b602080825281016107b98161135c565b604081016113d08285610cbb565b61098e6020830184610d21565b801515610aee565b80516107b9816113dd565b60006020828403121561140557611405600080fd5b6000610a2b84846113e5565b602a81526000602082017f5361666545524332303a204552433230206f7065726174696f6e20646964206e8152691bdd081cdd58d8d9595960b21b602082015291506113ab565b602080825281016107b981611411565b602681526000602082017f416464726573733a20696e73756666696369656e742062616c616e636520666f8152651c8818d85b1b60d21b602082015291506113ab565b602080825281016107b981611468565b60006114c5825190565b6114d3818560208601611002565b9290920192915050565b600061098e82846114bb565b602080825281016107b981601d81527f416464726573733a2063616c6c20746f206e6f6e2d636f6e7472616374000000602082015260400190565b6020808252810161098e818461120256","linkReferences":{}},"methodIdentifiers":{"PARA_SWAP_V6_AUGUSTUS_SWAPPER()":"16c8a066","action(address,bytes,bytes)":"a7a19e00","getIntegrationManager()":"e7c45690","parseAssetsForAction(address,bytes4,bytes)":"c54efee5"},"id":153}