{"abi":[{"type":"constructor","inputs":[{"name":"_integrationManager","type":"address","internalType":"address"},{"name":"_curvePriceFeed","type":"address","internalType":"address"},{"name":"_wrappedNativeAsset","type":"address","internalType":"address"},{"name":"_curveMinter","type":"address","internalType":"address"},{"name":"_crvToken","type":"address","internalType":"address"},{"name":"_nativeAssetAddress","type":"address","internalType":"address"}],"stateMutability":"nonpayable"},{"type":"receive","stateMutability":"payable"},{"type":"function","name":"CLAIM_REWARDS_SELECTOR","inputs":[],"outputs":[{"name":"","type":"bytes4","internalType":"bytes4"}],"stateMutability":"view"},{"type":"function","name":"LEND_AND_STAKE_SELECTOR","inputs":[],"outputs":[{"name":"","type":"bytes4","internalType":"bytes4"}],"stateMutability":"view"},{"type":"function","name":"LEND_SELECTOR","inputs":[],"outputs":[{"name":"","type":"bytes4","internalType":"bytes4"}],"stateMutability":"view"},{"type":"function","name":"REDEEM_SELECTOR","inputs":[],"outputs":[{"name":"","type":"bytes4","internalType":"bytes4"}],"stateMutability":"view"},{"type":"function","name":"STAKE_SELECTOR","inputs":[],"outputs":[{"name":"","type":"bytes4","internalType":"bytes4"}],"stateMutability":"view"},{"type":"function","name":"TAKE_MULTIPLE_ORDERS_SELECTOR","inputs":[],"outputs":[{"name":"","type":"bytes4","internalType":"bytes4"}],"stateMutability":"view"},{"type":"function","name":"TAKE_ORDER_SELECTOR","inputs":[],"outputs":[{"name":"","type":"bytes4","internalType":"bytes4"}],"stateMutability":"view"},{"type":"function","name":"UNSTAKE_AND_REDEEM_SELECTOR","inputs":[],"outputs":[{"name":"","type":"bytes4","internalType":"bytes4"}],"stateMutability":"view"},{"type":"function","name":"UNSTAKE_SELECTOR","inputs":[],"outputs":[{"name":"","type":"bytes4","internalType":"bytes4"}],"stateMutability":"view"},{"type":"function","name":"claimRewards","inputs":[{"name":"_vaultProxy","type":"address","internalType":"address"},{"name":"_actionData","type":"bytes","internalType":"bytes"},{"name":"","type":"bytes","internalType":"bytes"}],"outputs":[],"stateMutability":"nonpayable"},{"type":"function","name":"getCurveGaugeV2RewardsHandlerCrvToken","inputs":[],"outputs":[{"name":"crvToken_","type":"address","internalType":"address"}],"stateMutability":"view"},{"type":"function","name":"getCurveGaugeV2RewardsHandlerMinter","inputs":[],"outputs":[{"name":"minter_","type":"address","internalType":"address"}],"stateMutability":"view"},{"type":"function","name":"getCurveLiquidityWrappedNativeAsset","inputs":[],"outputs":[{"name":"addressProvider_","type":"address","internalType":"address"}],"stateMutability":"view"},{"type":"function","name":"getIntegrationManager","inputs":[],"outputs":[{"name":"integrationManager_","type":"address","internalType":"address"}],"stateMutability":"view"},{"type":"function","name":"lend","inputs":[{"name":"_vaultProxy","type":"address","internalType":"address"},{"name":"_actionData","type":"bytes","internalType":"bytes"},{"name":"_assetData","type":"bytes","internalType":"bytes"}],"outputs":[],"stateMutability":"nonpayable"},{"type":"function","name":"lendAndStake","inputs":[{"name":"_vaultProxy","type":"address","internalType":"address"},{"name":"_actionData","type":"bytes","internalType":"bytes"},{"name":"_assetData","type":"bytes","internalType":"bytes"}],"outputs":[],"stateMutability":"nonpayable"},{"type":"function","name":"parseAssetsForAction","inputs":[{"name":"","type":"address","internalType":"address"},{"name":"_selector","type":"bytes4","internalType":"bytes4"},{"name":"_actionData","type":"bytes","internalType":"bytes"}],"outputs":[{"name":"spendAssetsHandleType_","type":"uint8","internalType":"enum IIntegrationManager.SpendAssetsHandleType"},{"name":"spendAssets_","type":"address[]","internalType":"address[]"},{"name":"spendAssetAmounts_","type":"uint256[]","internalType":"uint256[]"},{"name":"incomingAssets_","type":"address[]","internalType":"address[]"},{"name":"minIncomingAssetAmounts_","type":"uint256[]","internalType":"uint256[]"}],"stateMutability":"view"},{"type":"function","name":"redeem","inputs":[{"name":"_vaultProxy","type":"address","internalType":"address"},{"name":"_actionData","type":"bytes","internalType":"bytes"},{"name":"_assetData","type":"bytes","internalType":"bytes"}],"outputs":[],"stateMutability":"nonpayable"},{"type":"function","name":"stake","inputs":[{"name":"_vaultProxy","type":"address","internalType":"address"},{"name":"","type":"bytes","internalType":"bytes"},{"name":"_assetData","type":"bytes","internalType":"bytes"}],"outputs":[],"stateMutability":"nonpayable"},{"type":"function","name":"unstake","inputs":[{"name":"_vaultProxy","type":"address","internalType":"address"},{"name":"_actionData","type":"bytes","internalType":"bytes"},{"name":"_assetData","type":"bytes","internalType":"bytes"}],"outputs":[],"stateMutability":"nonpayable"},{"type":"function","name":"unstakeAndRedeem","inputs":[{"name":"_vaultProxy","type":"address","internalType":"address"},{"name":"_actionData","type":"bytes","internalType":"bytes"},{"name":"_assetData","type":"bytes","internalType":"bytes"}],"outputs":[],"stateMutability":"nonpayable"}],"bytecode":{"object":"0x6101406040523480156200001257600080fd5b5060405162005d9438038062005d94833981810160405260c08110156200003857600080fd5b81019080805190602001909291908051906020019092919080519060200190929190805190602001909291908051906020019092919080519060200190929190505050828287868481838073ffffffffffffffffffffffffffffffffffffffff1660808173ffffffffffffffffffffffffffffffffffffffff1660601b81525050508073ffffffffffffffffffffffffffffffffffffffff1660a08173ffffffffffffffffffffffffffffffffffffffff1660601b81525050508073ffffffffffffffffffffffffffffffffffffffff1660c08173ffffffffffffffffffffffffffffffffffffffff1660601b815250505050508073ffffffffffffffffffffffffffffffffffffffff1660e08173ffffffffffffffffffffffffffffffffffffffff1660601b815250508173ffffffffffffffffffffffffffffffffffffffff166101008173ffffffffffffffffffffffffffffffffffffffff1660601b8152505050508473ffffffffffffffffffffffffffffffffffffffff166101208173ffffffffffffffffffffffffffffffffffffffff1660601b8152505050505050505060805160601c60a05160601c60c05160601c60e05160601c6101005160601c6101205160601c615b176200027d600039806111c75280612f365280613307528061354f528061396d52806147a0525080611dcd5280612b6d528061451d525080611371525080615739525080610fba525080610de9528061102852806113df528061154e528061172452806118255280611da55280611e175250615b176000f3fe60806040526004361061012e5760003560e01c80638334eb99116100ab578063c32990a21161006f578063c32990a2146109a4578063c54efee5146109ee578063e7c4569014610bfc578063f003eb8514610c3d578063f7d882b514610c7e578063fa7dd04d14610cc857610135565b80638334eb991461061f578063863e5ad01461071a578063b23228cf14610764578063b9dfbacc146107ae578063c29fa9dd146108a957610135565b806329fa046e116100f257806329fa046e14610354578063332d709f1461044f5780633ffc15911461049057806340da225d146104da57806368e306771461052457610135565b8063080456c11461013a578063099f75151461018457806312c9d3861461027f578063131461c0146102c0578063257cb1a31461030a57610135565b3661013557005b600080fd5b34801561014657600080fd5b5061014f610dc3565b60405180827bffffffffffffffffffffffffffffffffffffffffffffffffffffffff1916815260200191505060405180910390f35b34801561019057600080fd5b5061027d600480360360608110156101a757600080fd5b81019080803573ffffffffffffffffffffffffffffffffffffffff169060200190929190803590602001906401000000008111156101e457600080fd5b8201836020820111156101f657600080fd5b8035906020019184600183028401116401000000008311171561021857600080fd5b90919293919293908035906020019064010000000081111561023957600080fd5b82018360208201111561024b57600080fd5b8035906020019184600183028401116401000000008311171561026d57600080fd5b9091929391929390505050610de7565b005b34801561028b57600080fd5b50610294610fb6565b604051808273ffffffffffffffffffffffffffffffffffffffff16815260200191505060405180910390f35b3480156102cc57600080fd5b506102d5610fde565b60405180827bffffffffffffffffffffffffffffffffffffffffffffffffffffffff1916815260200191505060405180910390f35b34801561031657600080fd5b5061031f611002565b60405180827bffffffffffffffffffffffffffffffffffffffffffffffffffffffff1916815260200191505060405180910390f35b34801561036057600080fd5b5061044d6004803603606081101561037757600080fd5b81019080803573ffffffffffffffffffffffffffffffffffffffff169060200190929190803590602001906401000000008111156103b457600080fd5b8201836020820111156103c657600080fd5b803590602001918460018302840111640100000000831117156103e857600080fd5b90919293919293908035906020019064010000000081111561040957600080fd5b82018360208201111561041b57600080fd5b8035906020019184600183028401116401000000008311171561043d57600080fd5b9091929391929390505050611026565b005b34801561045b57600080fd5b5061046461136d565b604051808273ffffffffffffffffffffffffffffffffffffffff16815260200191505060405180910390f35b34801561049c57600080fd5b506104a5611395565b60405180827bffffffffffffffffffffffffffffffffffffffffffffffffffffffff1916815260200191505060405180910390f35b3480156104e657600080fd5b506104ef6113b9565b60405180827bffffffffffffffffffffffffffffffffffffffffffffffffffffffff1916815260200191505060405180910390f35b34801561053057600080fd5b5061061d6004803603606081101561054757600080fd5b81019080803573ffffffffffffffffffffffffffffffffffffffff1690602001909291908035906020019064010000000081111561058457600080fd5b82018360208201111561059657600080fd5b803590602001918460018302840111640100000000831117156105b857600080fd5b9091929391929390803590602001906401000000008111156105d957600080fd5b8201836020820111156105eb57600080fd5b8035906020019184600183028401116401000000008311171561060d57600080fd5b90919293919293905050506113dd565b005b34801561062b57600080fd5b506107186004803603606081101561064257600080fd5b81019080803573ffffffffffffffffffffffffffffffffffffffff1690602001909291908035906020019064010000000081111561067f57600080fd5b82018360208201111561069157600080fd5b803590602001918460018302840111640100000000831117156106b357600080fd5b9091929391929390803590602001906401000000008111156106d457600080fd5b8201836020820111156106e657600080fd5b8035906020019184600183028401116401000000008311171561070857600080fd5b909192939192939050505061154c565b005b34801561072657600080fd5b5061072f6116da565b60405180827bffffffffffffffffffffffffffffffffffffffffffffffffffffffff1916815260200191505060405180910390f35b34801561077057600080fd5b506107796116fe565b60405180827bffffffffffffffffffffffffffffffffffffffffffffffffffffffff1916815260200191505060405180910390f35b3480156107ba57600080fd5b506108a7600480360360608110156107d157600080fd5b81019080803573ffffffffffffffffffffffffffffffffffffffff1690602001909291908035906020019064010000000081111561080e57600080fd5b82018360208201111561082057600080fd5b8035906020019184600183028401116401000000008311171561084257600080fd5b90919293919293908035906020019064010000000081111561086357600080fd5b82018360208201111561087557600080fd5b8035906020019184600183028401116401000000008311171561089757600080fd5b9091929391929390505050611722565b005b3480156108b557600080fd5b506109a2600480360360608110156108cc57600080fd5b81019080803573ffffffffffffffffffffffffffffffffffffffff1690602001909291908035906020019064010000000081111561090957600080fd5b82018360208201111561091b57600080fd5b8035906020019184600183028401116401000000008311171561093d57600080fd5b90919293919293908035906020019064010000000081111561095e57600080fd5b82018360208201111561097057600080fd5b8035906020019184600183028401116401000000008311171561099257600080fd5b9091929391929390505050611823565b005b3480156109b057600080fd5b506109b96119a2565b60405180827bffffffffffffffffffffffffffffffffffffffffffffffffffffffff1916815260200191505060405180910390f35b3480156109fa57600080fd5b50610abb60048036036060811015610a1157600080fd5b81019080803573ffffffffffffffffffffffffffffffffffffffff16906020019092919080357bffffffffffffffffffffffffffffffffffffffffffffffffffffffff1916906020019092919080359060200190640100000000811115610a7757600080fd5b820183602082011115610a8957600080fd5b80359060200191846001830284011164010000000083111715610aab57600080fd5b90919293919293905050506119c6565b60405180866002811115610acb57fe5b815260200180602001806020018060200180602001858103855289818151815260200191508051906020019060200280838360005b83811015610b1b578082015181840152602081019050610b00565b50505050905001858103845288818151815260200191508051906020019060200280838360005b83811015610b5d578082015181840152602081019050610b42565b50505050905001858103835287818151815260200191508051906020019060200280838360005b83811015610b9f578082015181840152602081019050610b84565b50505050905001858103825286818151815260200191508051906020019060200280838360005b83811015610be1578082015181840152602081019050610bc6565b50505050905001995050505050505050505060405180910390f35b348015610c0857600080fd5b50610c11611da1565b604051808273ffffffffffffffffffffffffffffffffffffffff16815260200191505060405180910390f35b348015610c4957600080fd5b50610c52611dc9565b604051808273ffffffffffffffffffffffffffffffffffffffff16815260200191505060405180910390f35b348015610c8a57600080fd5b50610c93611df1565b60405180827bffffffffffffffffffffffffffffffffffffffffffffffffffffffff1916815260200191505060405180910390f35b348015610cd457600080fd5b50610dc160048036036060811015610ceb57600080fd5b81019080803573ffffffffffffffffffffffffffffffffffffffff16906020019092919080359060200190640100000000811115610d2857600080fd5b820183602082011115610d3a57600080fd5b80359060200191846001830284011164010000000083111715610d5c57600080fd5b909192939192939080359060200190640100000000811115610d7d57600080fd5b820183602082011115610d8f57600080fd5b80359060200191846001830284011164010000000083111715610db157600080fd5b9091929391929390505050611e15565b005b7f8334eb99be0145865eba9889fca2ee920288090caefff4cc776038e20ad9259a81565b7f000000000000000000000000000000000000000000000000000000000000000073ffffffffffffffffffffffffffffffffffffffff163373ffffffffffffffffffffffffffffffffffffffff1614610e8b576040517f08c379a0000000000000000000000000000000000000000000000000000000008152600401808060200182810382526032815260200180615a526032913960400191505060405180910390fd5b8482828080601f016020809104026020016040519081016040528093929190818152602001838380828437600081840152601f19601f8201169050808301925050505050505060006060600080610f258a8a8080601f016020809104026020016040519081016040528093929190818152602001838380828437600081840152601f19601f82011690508083019250505050505050611fc5565b93509350935093506060610f7c89898080601f016020809104026020016040519081016040528093929190818152602001838380828437600081840152601f19601f820116905080830192505050505050506120a8565b50509050610f8d858286868661228c565b50505050506060610f9d826120a8565b92505050610fab83826125cf565b505050505050505050565b60007f0000000000000000000000000000000000000000000000000000000000000000905090565b7f29fa046e79524c3c5ac4c01df692c35e217802b2b13b21121b76cf0ef02b138c81565b7f099f75155f0e997bf83a7993a71d5e7e7540bd386fe1e84643a09ce6b412521981565b7f000000000000000000000000000000000000000000000000000000000000000073ffffffffffffffffffffffffffffffffffffffff163373ffffffffffffffffffffffffffffffffffffffff16146110ca576040517f08c379a0000000000000000000000000000000000000000000000000000000008152600401808060200182810382526032815260200180615a526032913960400191505060405180910390fd5b8482828080601f016020809104026020016040519081016040528093929190818152602001838380828437600081840152601f19601f820116905080830192505050505050506000606060008060006111668b8b8080601f016020809104026020016040519081016040528093929190818152602001838380828437600081840152601f19601f82011690508083019250505050505050612769565b9450945094509450945060606111bf8a8a8080601f016020809104026020016040519081016040528093929190818152602001838380828437600081840152601f19601f820116905080830192505050505050506120a8565b5050905060007f000000000000000000000000000000000000000000000000000000000000000073ffffffffffffffffffffffffffffffffffffffff16631f5bce55886040518263ffffffff1660e01b8152600401808273ffffffffffffffffffffffffffffffffffffffff16815260200191505060206040518083038186803b15801561124c57600080fd5b505afa158015611260573d6000803e3d6000fd5b505050506040513d602081101561127657600080fd5b81019080805190602001909291905050509050611296878388878761228c565b61134285828373ffffffffffffffffffffffffffffffffffffffff166370a08231306040518263ffffffff1660e01b8152600401808273ffffffffffffffffffffffffffffffffffffffff16815260200191505060206040518083038186803b15801561130257600080fd5b505afa158015611316573d6000803e3d6000fd5b505050506040513d602081101561132c57600080fd5b810190808051906020019092919050505061285c565b505050505050506060611354826120a8565b9250505061136283826125cf565b505050505050505050565b60007f0000000000000000000000000000000000000000000000000000000000000000905090565b7ffa7dd04da627f433da73c4355ead9c75682a67a8fc84d3f6170ef0922f402d2481565b7fb9dfbaccbe5cd2a84fdcf1d15f23ef25d23086f5afbaa99516065ed4a5bbc7a381565b7f000000000000000000000000000000000000000000000000000000000000000073ffffffffffffffffffffffffffffffffffffffff163373ffffffffffffffffffffffffffffffffffffffff1614611481576040517f08c379a0000000000000000000000000000000000000000000000000000000008152600401808060200182810382526032815260200180615a526032913960400191505060405180910390fd5b8482828080601f016020809104026020016040519081016040528093929190818152602001838380828437600081840152601f19601f8201169050808301925050505050505060008061151788888080601f016020809104026020016040519081016040528093929190818152602001838380828437600081840152601f19601f820116905080830192505050505050506128f5565b92509250506115268282612941565b50506060611533826120a8565b9250505061154183826125cf565b505050505050505050565b7f000000000000000000000000000000000000000000000000000000000000000073ffffffffffffffffffffffffffffffffffffffff163373ffffffffffffffffffffffffffffffffffffffff16146115f0576040517f08c379a0000000000000000000000000000000000000000000000000000000008152600401808060200182810382526032815260200180615a526032913960400191505060405180910390fd5b8482828080601f016020809104026020016040519081016040528093929190818152602001838380828437600081840152601f19601f820116905080830192505050505050506000806000806000606061168d8c8c8080601f016020809104026020016040519081016040528093929190818152602001838380828437600081840152601f19601f820116905080830192505050505050506129b0565b9550955095509550955095506116a38585612941565b6116b08685858585612ad1565b50505050505060606116c1826120a8565b925050506116cf83826125cf565b505050505050505050565b7f03e38a2bd7063d45c897edeafc330e71657502dd86434d3c37a489caf116af6981565b7f68e30677f607df46e87da13e15b637784cfa62374b653f35ab43d10361a2f83081565b7f000000000000000000000000000000000000000000000000000000000000000073ffffffffffffffffffffffffffffffffffffffff163373ffffffffffffffffffffffffffffffffffffffff16146117c6576040517f08c379a0000000000000000000000000000000000000000000000000000000008152600401808060200182810382526032815260200180615a526032913960400191505060405180910390fd5b61181c61181685858080601f016020809104026020016040519081016040528093929190818152602001838380828437600081840152601f19601f82011690508083019250505050505050612b2f565b86612b5e565b5050505050565b7f000000000000000000000000000000000000000000000000000000000000000073ffffffffffffffffffffffffffffffffffffffff163373ffffffffffffffffffffffffffffffffffffffff16146118c7576040517f08c379a0000000000000000000000000000000000000000000000000000000008152600401808060200182810382526032815260200180615a526032913960400191505060405180910390fd5b8482828080601f016020809104026020016040519081016040528093929190818152602001838380828437600081840152601f19601f8201169050808301925050505050505060008060008060606119628b8b8080601f016020809104026020016040519081016040528093929190818152602001838380828437600081840152601f19601f82011690508083019250505050505050612c39565b945094509450945094506119798585858585612ad1565b50505050506060611989826120a8565b9250505061199783826125cf565b505050505050505050565b7f0e7f692dad5b88fdee426250d6eae91207e56a2e8112b7364579bed1790e5bf481565b60006060806060807fb9dfbaccbe5cd2a84fdcf1d15f23ef25d23086f5afbaa99516065ed4a5bbc7a37bffffffffffffffffffffffffffffffffffffffffffffffffffffffff1916887bffffffffffffffffffffffffffffffffffffffffffffffffffffffff19161415611a4b57611a3c612d4c565b94509450945094509450611d96565b7f099f75155f0e997bf83a7993a71d5e7e7540bd386fe1e84643a09ce6b41252197bffffffffffffffffffffffffffffffffffffffffffffffffffffffff1916887bffffffffffffffffffffffffffffffffffffffffffffffffffffffff19161415611aca57611abb8787612e86565b94509450945094509450611d96565b7f29fa046e79524c3c5ac4c01df692c35e217802b2b13b21121b76cf0ef02b138c7bffffffffffffffffffffffffffffffffffffffffffffffffffffffff1916887bffffffffffffffffffffffffffffffffffffffffffffffffffffffff19161415611b4957611b3a87876130c6565b94509450945094509450611d96565b7fc29fa9dde84204c2908778afd0613d802d31cf046179b88f6d2b4a4e507ea2d57bffffffffffffffffffffffffffffffffffffffffffffffffffffffff1916887bffffffffffffffffffffffffffffffffffffffffffffffffffffffff19161415611bc857611bb98787613254565b94509450945094509450611d96565b7ffa7dd04da627f433da73c4355ead9c75682a67a8fc84d3f6170ef0922f402d247bffffffffffffffffffffffffffffffffffffffffffffffffffffffff1916887bffffffffffffffffffffffffffffffffffffffffffffffffffffffff19161415611c4757611c388787613499565b94509450945094509450611d96565b7f68e30677f607df46e87da13e15b637784cfa62374b653f35ab43d10361a2f8307bffffffffffffffffffffffffffffffffffffffffffffffffffffffff1916887bffffffffffffffffffffffffffffffffffffffffffffffffffffffff19161415611cc657611cb787876137c1565b94509450945094509450611d96565b7f8334eb99be0145865eba9889fca2ee920288090caefff4cc776038e20ad9259a7bffffffffffffffffffffffffffffffffffffffffffffffffffffffff1916887bffffffffffffffffffffffffffffffffffffffffffffffffffffffff19161415611d4557611d368787613ae9565b94509450945094509450611d96565b6040517f08c379a0000000000000000000000000000000000000000000000000000000008152600401808060200182810382526027815260200180615ae46027913960400191505060405180910390fd5b945094509450945094565b60007f0000000000000000000000000000000000000000000000000000000000000000905090565b60007f0000000000000000000000000000000000000000000000000000000000000000905090565b7fc29fa9dde84204c2908778afd0613d802d31cf046179b88f6d2b4a4e507ea2d581565b7f000000000000000000000000000000000000000000000000000000000000000073ffffffffffffffffffffffffffffffffffffffff163373ffffffffffffffffffffffffffffffffffffffff1614611eb9576040517f08c379a0000000000000000000000000000000000000000000000000000000008152600401808060200182810382526032815260200180615a526032913960400191505060405180910390fd5b8482828080601f016020809104026020016040519081016040528093929190818152602001838380828437600081840152601f19601f820116905080830192505050505050506060806060611f5187878080601f016020809104026020016040519081016040528093929190818152602001838380828437600081840152601f19601f820116905080830192505050505050506120a8565b925092509250611f9e81600081518110611f6757fe5b602002602001015184600081518110611f7c57fe5b602002602001015184600081518110611f9157fe5b602002602001015161285c565b5050506060611fac826120a8565b92505050611fba83826125cf565b505050505050505050565b60006060600080848060200190516080811015611fe157600080fd5b81019080805190602001909291908051604051939291908464010000000082111561200b57600080fd5b8382019150602082018581111561202157600080fd5b825186602082028301116401000000008211171561203e57600080fd5b8083526020830192505050908051906020019060200280838360005b8381101561207557808201518184015260208101905061205a565b50505050905001604052602001805190602001909291908051906020019092919050505093509350935093509193509193565b60608060608380602001905160608110156120c257600080fd5b81019080805160405193929190846401000000008211156120e257600080fd5b838201915060208201858111156120f857600080fd5b825186602082028301116401000000008211171561211557600080fd5b8083526020830192505050908051906020019060200280838360005b8381101561214c578082015181840152602081019050612131565b505050509050016040526020018051604051939291908464010000000082111561217557600080fd5b8382019150602082018581111561218b57600080fd5b82518660208202830111640100000000821117156121a857600080fd5b8083526020830192505050908051906020019060200280838360005b838110156121df5780820151818401526020810190506121c4565b505050509050016040526020018051604051939291908464010000000082111561220857600080fd5b8382019150602082018581111561221e57600080fd5b825186602082028301116401000000008211171561223b57600080fd5b8083526020830192505050908051906020019060200280838360005b83811015612272578082015181840152602081019050612257565b505050509050016040525050509250925092509193909250565b6000805b8551811015612455576122a1610fb6565b73ffffffffffffffffffffffffffffffffffffffff168682815181106122c357fe5b602002602001015173ffffffffffffffffffffffffffffffffffffffff161415612409576122ef610fb6565b73ffffffffffffffffffffffffffffffffffffffff166370a08231306040518263ffffffff1660e01b8152600401808273ffffffffffffffffffffffffffffffffffffffff16815260200191505060206040518083038186803b15801561235557600080fd5b505afa158015612369573d6000803e3d6000fd5b505050506040513d602081101561237f57600080fd5b8101908080519060200190929190505050915061239a610fb6565b73ffffffffffffffffffffffffffffffffffffffff16632e1a7d4d836040518263ffffffff1660e01b815260040180828152602001915050600060405180830381600087803b1580156123ec57600080fd5b505af1158015612400573d6000803e3d6000fd5b50505050612448565b61244786828151811061241857fe5b6020026020010151887f161bcca7119915b50764b4abe86529797775a5f1719510000000000000000000613c7c565b5b8080600101915050612290565b50600060608773ffffffffffffffffffffffffffffffffffffffff168361247d888888613dd0565b6040518082805190602001908083835b602083106124b0578051825260208201915060208101905060208303925061248d565b6001836020036101000a03801982511681845116808217855250505050505090500191505060006040518083038185875af1925050503d8060008114612512576040519150601f19603f3d011682016040523d82523d6000602084013e612517565b606091505b50915091508181906125c4576040517f08c379a00000000000000000000000000000000000000000000000000000000081526004018080602001828103825283818151815260200191508051906020019080838360005b8381101561258957808201518184015260208101905061256e565b50505050905090810190601f1680156125b65780820380516001836020036101000a031916815260200191505b509250505060405180910390fd5b505050505050505050565b6060815167ffffffffffffffff811180156125e957600080fd5b506040519080825280602002602001820160405280156126185781602001602082028036833780820191505090505b50905060005b825181101561276257600083828151811061263557fe5b602002602001015190508073ffffffffffffffffffffffffffffffffffffffff166370a08231306040518263ffffffff1660e01b8152600401808273ffffffffffffffffffffffffffffffffffffffff16815260200191505060206040518083038186803b1580156126a657600080fd5b505afa1580156126ba573d6000803e3d6000fd5b505050506040513d60208110156126d057600080fd5b81019080805190602001909291905050508383815181106126ed57fe5b602002602001018181525050600083838151811061270757fe5b60200260200101511115612754576127538584848151811061272557fe5b60200260200101518373ffffffffffffffffffffffffffffffffffffffff16613f4c9092919063ffffffff16565b5b50808060010191505061261e565b5092915050565b6000606060008060008580602001905160a081101561278757600080fd5b8101908080519060200190929190805160405193929190846401000000008211156127b157600080fd5b838201915060208201858111156127c757600080fd5b82518660208202830111640100000000821117156127e457600080fd5b8083526020830192505050908051906020019060200280838360005b8381101561281b578082015181840152602081019050612800565b505050509050016040526020018051906020019092919080519060200190929190805190602001909291905050509450945094509450945091939590929450565b612867828483613c7c565b8273ffffffffffffffffffffffffffffffffffffffff16636e553f6582306040518363ffffffff1660e01b8152600401808381526020018273ffffffffffffffffffffffffffffffffffffffff16815260200192505050600060405180830381600087803b1580156128d857600080fd5b505af11580156128ec573d6000803e3d6000fd5b50505050505050565b600080600083806020019051606081101561290f57600080fd5b810190808051906020019092919080519060200190929190805190602001909291905050509250925092509193909250565b8173ffffffffffffffffffffffffffffffffffffffff16632e1a7d4d826040518263ffffffff1660e01b815260040180828152602001915050600060405180830381600087803b15801561299457600080fd5b505af11580156129a8573d6000803e3d6000fd5b505050505050565b600080600080600060608680602001905160c08110156129cf57600080fd5b81019080805190602001909291908051906020019092919080519060200190929190805190602001909291908051906020019092919080516040519392919084640100000000821115612a2157600080fd5b83820191506020820185811115612a3757600080fd5b8251866001820283011164010000000082111715612a5457600080fd5b8083526020830192505050908051906020019080838360005b83811015612a88578082015181840152602081019050612a6d565b50505050905090810190601f168015612ab55780820380516001836020036101000a031916815260200191505b5060405250505095509550955095509550955091939550919395565b600180811115612add57fe5b826001811115612ae957fe5b1415612b1357600080612afb83613fee565b91509150612b0c878784848961402a565b5050612b28565b612b278585612b21846142cf565b86614384565b5b5050505050565b6000818060200190516020811015612b4657600080fd5b81019080805190602001909291905050509050919050565b612b66614502565b15612c2b577f000000000000000000000000000000000000000000000000000000000000000073ffffffffffffffffffffffffffffffffffffffff166327f18ae383836040518363ffffffff1660e01b8152600401808373ffffffffffffffffffffffffffffffffffffffff1681526020018273ffffffffffffffffffffffffffffffffffffffff16815260200192505050600060405180830381600087803b158015612c1257600080fd5b505af1158015612c26573d6000803e3d6000fd5b505050505b612c358282614559565b5050565b60008060008060608580602001905160a0811015612c5657600080fd5b810190808051906020019092919080519060200190929190805190602001909291908051906020019092919080516040519392919084640100000000821115612c9e57600080fd5b83820191506020820185811115612cb457600080fd5b8251866001820283011164010000000082111715612cd157600080fd5b8083526020830192505050908051906020019080838360005b83811015612d05578082015181840152602081019050612cea565b50505050905090810190601f168015612d325780820380516001836020036101000a031916815260200191505b506040525050509450945094509450945091939590929450565b600060608060608060008067ffffffffffffffff81118015612d6d57600080fd5b50604051908082528060200260200182016040528015612d9c5781602001602082028036833780820191505090505b50600067ffffffffffffffff81118015612db557600080fd5b50604051908082528060200260200182016040528015612de45781602001602082028036833780820191505090505b50600067ffffffffffffffff81118015612dfd57600080fd5b50604051908082528060200260200182016040528015612e2c5781602001602082028036833780820191505090505b50600067ffffffffffffffff81118015612e4557600080fd5b50604051908082528060200260200182016040528015612e745781602001602082028036833780820191505090505b50945094509450945094509091929394565b600060608060608060006060600080612ee28b8b8080601f016020809104026020016040519081016040528093929190818152602001838380828437600081840152601f19601f82011690508083019250505050505050611fc5565b9350935093509350600167ffffffffffffffff81118015612f0257600080fd5b50604051908082528060200260200182016040528015612f315781602001602082028036833780820191505090505b5095507f000000000000000000000000000000000000000000000000000000000000000073ffffffffffffffffffffffffffffffffffffffff16631f5bce55856040518263ffffffff1660e01b8152600401808273ffffffffffffffffffffffffffffffffffffffff16815260200191505060206040518083038186803b158015612fbb57600080fd5b505afa158015612fcf573d6000803e3d6000fd5b505050506040513d6020811015612fe557600080fd5b81019080805190602001909291905050508660008151811061300357fe5b602002602001019073ffffffffffffffffffffffffffffffffffffffff16908173ffffffffffffffffffffffffffffffffffffffff1681525050600167ffffffffffffffff8111801561305557600080fd5b506040519080825280602002602001820160405280156130845781602001602082028036833780820191505090505b509450818560008151811061309557fe5b6020026020010181815250506130ac8484836145de565b809850819950505060029850505050509295509295909350565b60006060806060806000606060008060006131248c8c8080601f016020809104026020016040519081016040528093929190818152602001838380828437600081840152601f19601f82011690508083019250505050505050612769565b945094509450945094506131388584614787565b6131438585836145de565b809950819a505050600167ffffffffffffffff8111801561316357600080fd5b506040519080825280602002602001820160405280156131925781602001602082028036833780820191505090505b50965082876000815181106131a357fe5b602002602001019073ffffffffffffffffffffffffffffffffffffffff16908173ffffffffffffffffffffffffffffffffffffffff1681525050600167ffffffffffffffff811180156131f557600080fd5b506040519080825280602002602001820160405280156132245781602001602082028036833780820191505090505b509550818660008151811061323557fe5b6020026020010181815250506002995050505050509295509295909350565b600060608060608060008060008060606132b18c8c8080601f016020809104026020016040519081016040528093929190818152602001838380828437600081840152601f19601f82011690508083019250505050505050612c39565b94509450945094509450600167ffffffffffffffff811180156132d357600080fd5b506040519080825280602002602001820160405280156133025781602001602082028036833780820191505090505b5098507f000000000000000000000000000000000000000000000000000000000000000073ffffffffffffffffffffffffffffffffffffffff16631f5bce55866040518263ffffffff1660e01b8152600401808273ffffffffffffffffffffffffffffffffffffffff16815260200191505060206040518083038186803b15801561338c57600080fd5b505afa1580156133a0573d6000803e3d6000fd5b505050506040513d60208110156133b657600080fd5b8101908080519060200190929190505050896000815181106133d457fe5b602002602001019073ffffffffffffffffffffffffffffffffffffffff16908173ffffffffffffffffffffffffffffffffffffffff1681525050600167ffffffffffffffff8111801561342657600080fd5b506040519080825280602002602001820160405280156134555781602001602082028036833780820191505090505b509750838860008151811061346657fe5b60200260200101818152505061347e858484846148ed565b80975081985050506002995050505050509295509295909350565b600060608060608060008060006134f38a8a8080601f016020809104026020016040519081016040528093929190818152602001838380828437600081840152601f19601f82011690508083019250505050505050614aef565b9250925092506135038383614787565b600167ffffffffffffffff8111801561351b57600080fd5b5060405190808252806020026020018201604052801561354a5781602001602082028036833780820191505090505b5096507f000000000000000000000000000000000000000000000000000000000000000073ffffffffffffffffffffffffffffffffffffffff16631f5bce55846040518263ffffffff1660e01b8152600401808273ffffffffffffffffffffffffffffffffffffffff16815260200191505060206040518083038186803b1580156135d457600080fd5b505afa1580156135e8573d6000803e3d6000fd5b505050506040513d60208110156135fe57600080fd5b81019080805190602001909291905050508760008151811061361c57fe5b602002602001019073ffffffffffffffffffffffffffffffffffffffff16908173ffffffffffffffffffffffffffffffffffffffff1681525050600167ffffffffffffffff8111801561366e57600080fd5b5060405190808252806020026020018201604052801561369d5781602001602082028036833780820191505090505b50955080866000815181106136ae57fe5b602002602001018181525050600167ffffffffffffffff811180156136d257600080fd5b506040519080825280602002602001820160405280156137015781602001602082028036833780820191505090505b509450818560008151811061371257fe5b602002602001019073ffffffffffffffffffffffffffffffffffffffff16908173ffffffffffffffffffffffffffffffffffffffff1681525050600167ffffffffffffffff8111801561376457600080fd5b506040519080825280602002602001820160405280156137935781602001602082028036833780820191505090505b50935080846000815181106137a457fe5b602002602001018181525050600297505050509295509295909350565b6000606080606080600080600061381b8a8a8080601f016020809104026020016040519081016040528093929190818152602001838380828437600081840152601f19601f820116905080830192505050505050506128f5565b92509250925061382b8383614787565b600167ffffffffffffffff8111801561384357600080fd5b506040519080825280602002602001820160405280156138725781602001602082028036833780820191505090505b509650818760008151811061388357fe5b602002602001019073ffffffffffffffffffffffffffffffffffffffff16908173ffffffffffffffffffffffffffffffffffffffff1681525050600167ffffffffffffffff811180156138d557600080fd5b506040519080825280602002602001820160405280156139045781602001602082028036833780820191505090505b509550808660008151811061391557fe5b602002602001018181525050600167ffffffffffffffff8111801561393957600080fd5b506040519080825280602002602001820160405280156139685781602001602082028036833780820191505090505b5094507f000000000000000000000000000000000000000000000000000000000000000073ffffffffffffffffffffffffffffffffffffffff16631f5bce55846040518263ffffffff1660e01b8152600401808273ffffffffffffffffffffffffffffffffffffffff16815260200191505060206040518083038186803b1580156139f257600080fd5b505afa158015613a06573d6000803e3d6000fd5b505050506040513d6020811015613a1c57600080fd5b810190808051906020019092919050505085600081518110613a3a57fe5b602002602001019073ffffffffffffffffffffffffffffffffffffffff16908173ffffffffffffffffffffffffffffffffffffffff1681525050600167ffffffffffffffff81118015613a8c57600080fd5b50604051908082528060200260200182016040528015613abb5781602001602082028036833780820191505090505b5093508084600081518110613acc57fe5b602002602001018181525050600297505050509295509295909350565b600060608060608060008060008060006060613b488d8d8080601f016020809104026020016040519081016040528093929190818152602001838380828437600081840152601f19601f820116905080830192505050505050506129b0565b955095509550955095509550613b5e8686614787565b600167ffffffffffffffff81118015613b7657600080fd5b50604051908082528060200260200182016040528015613ba55781602001602082028036833780820191505090505b509950848a600081518110613bb657fe5b602002602001019073ffffffffffffffffffffffffffffffffffffffff16908173ffffffffffffffffffffffffffffffffffffffff1681525050600167ffffffffffffffff81118015613c0857600080fd5b50604051908082528060200260200182016040528015613c375781602001602082028036833780820191505090505b5098508389600081518110613c4857fe5b602002602001018181525050613c60868484846148ed565b809850819950505060029a505050505050509295509295909350565b60008373ffffffffffffffffffffffffffffffffffffffff1663dd62ed3e30856040518363ffffffff1660e01b8152600401808373ffffffffffffffffffffffffffffffffffffffff1681526020018273ffffffffffffffffffffffffffffffffffffffff1681526020019250505060206040518083038186803b158015613d0357600080fd5b505afa158015613d17573d6000803e3d6000fd5b505050506040513d6020811015613d2d57600080fd5b8101908080519060200190929190505050905081811015613dca576000811115613d7e57613d7d8360008673ffffffffffffffffffffffffffffffffffffffff16614b3b9092919063ffffffff16565b5b613dc9837fffffffffffffffffffffffffffffffffffffffffffffffffffffffffffffffff8673ffffffffffffffffffffffffffffffffffffffff16614b3b9092919063ffffffff16565b5b50505050565b6060808215613dff57600160405160200180821515815260200191505060405160208183030381529060405290505b613e0a855184614d00565b8560405160200180828051906020019060200280838360005b83811015613e3e578082015181840152602081019050613e23565b50505050905001915050604051602081830303815290604052858360405160200180857bffffffffffffffffffffffffffffffffffffffffffffffffffffffff1916815260040184805190602001908083835b60208310613eb45780518252602082019150602081019050602083039250613e91565b6001836020036101000a03801982511681845116808217855250505050505090500183815260200182805190602001908083835b60208310613f0b5780518252602082019150602081019050602083039250613ee8565b6001836020036101000a0380198251168184511680821785525050505050509050019450505050506040516020818303038152906040529150509392505050565b613fe98363a9059cbb60e01b8484604051602401808373ffffffffffffffffffffffffffffffffffffffff16815260200182815260200192505050604051602081830303815290604052907bffffffffffffffffffffffffffffffffffffffffffffffffffffffff19166020820180517bffffffffffffffffffffffffffffffffffffffffffffffffffffffff8381831617835250505050614eb9565b505050565b60008082806020019051604081101561400657600080fd5b81019080805190602001909291908051906020019092919050505091509150915091565b606081156140cd5763517a55a360e01b85858560016040516024018085815260200184600f0b81526020018381526020018215158152602001945050505050604051602081830303815290604052907bffffffffffffffffffffffffffffffffffffffffffffffffffffffff19166020820180517bffffffffffffffffffffffffffffffffffffffffffffffffffffffff83818316178352505050509050614159565b631a4d01d260e01b8585856040516024018084815260200183600f0b81526020018281526020019350505050604051602081830303815290604052907bffffffffffffffffffffffffffffffffffffffffffffffffffffffff19166020820180517bffffffffffffffffffffffffffffffffffffffffffffffffffffffff838183161783525050505090505b600060608773ffffffffffffffffffffffffffffffffffffffff16836040518082805190602001908083835b602083106141a85780518252602082019150602081019050602083039250614185565b6001836020036101000a0380198251168184511680821785525050505050509050019150506000604051808303816000865af19150503d806000811461420a576040519150601f19603f3d011682016040523d82523d6000602084013e61420f565b606091505b50915091508181906142bc576040517f08c379a00000000000000000000000000000000000000000000000000000000081526004018080602001828103825283818151815260200191508051906020019080838360005b83811015614281578082015181840152602081019050614266565b50505050905090810190601f1680156142ae5780820380516001836020036101000a031916815260200191505b509250505060405180910390fd5b506142c5614fa8565b5050505050505050565b60608180602001905160208110156142e657600080fd5b810190808051604051939291908464010000000082111561430657600080fd5b8382019150602082018581111561431c57600080fd5b825186602082028301116401000000008211171561433957600080fd5b8083526020830192505050908051906020019060200280838360005b83811015614370578082015181840152602081019050614355565b505050509050016040525050509050919050565b600060608573ffffffffffffffffffffffffffffffffffffffff166143aa868686615039565b6040518082805190602001908083835b602083106143dd57805182526020820191506020810190506020830392506143ba565b6001836020036101000a0380198251168184511680821785525050505050509050019150506000604051808303816000865af19150503d806000811461443f576040519150601f19603f3d011682016040523d82523d6000602084013e614444565b606091505b50915091508181906144f1576040517f08c379a00000000000000000000000000000000000000000000000000000000081526004018080602001828103825283818151815260200191508051906020019080838360005b838110156144b657808201518184015260208101905061449b565b50505050905090810190601f1680156144e35780820380516001836020036101000a031916815260200191505b509250505060405180910390fd5b506144fa614fa8565b505050505050565b60008073ffffffffffffffffffffffffffffffffffffffff167f000000000000000000000000000000000000000000000000000000000000000073ffffffffffffffffffffffffffffffffffffffff161415905090565b8173ffffffffffffffffffffffffffffffffffffffff166384e9bd7e826040518263ffffffff1660e01b8152600401808273ffffffffffffffffffffffffffffffffffffffff168152602001915050600060405180830381600087803b1580156145c257600080fd5b505af11580156145d6573d6000803e3d6000fd5b505050505050565b6060806000805b85518110156146205760008682815181106145fc57fe5b602002602001015111156146135781806001019250505b80806001019150506145e5565b508067ffffffffffffffff8111801561463857600080fd5b506040519080825280602002602001820160405280156146675781602001602082028036833780820191505090505b5092508067ffffffffffffffff8111801561468157600080fd5b506040519080825280602002602001820160405280156146b05781602001602082028036833780820191505090505b5091506000805b865181101561477c5760008782815181106146ce57fe5b6020026020010151111561476f576146e78882886151b5565b8583815181106146f357fe5b602002602001019073ffffffffffffffffffffffffffffffffffffffff16908173ffffffffffffffffffffffffffffffffffffffff168152505086818151811061473957fe5b602002602001015184838151811061474d57fe5b60200260200101818152505081806001019250508282141561476e5761477c565b5b80806001019150506146b7565b505050935093915050565b8173ffffffffffffffffffffffffffffffffffffffff167f000000000000000000000000000000000000000000000000000000000000000073ffffffffffffffffffffffffffffffffffffffff16636a2175c0836040518263ffffffff1660e01b8152600401808273ffffffffffffffffffffffffffffffffffffffff16815260200191505060206040518083038186803b15801561482557600080fd5b505afa158015614839573d6000803e3d6000fd5b505050506040513d602081101561484f57600080fd5b810190808051906020019092919050505073ffffffffffffffffffffffffffffffffffffffff16146148e9576040517f08c379a00000000000000000000000000000000000000000000000000000000081526004018080602001828103825260188152602001807f5f5f76616c696461746547617567653a20496e76616c6964000000000000000081525060200191505060405180910390fd5b5050565b6060806001808111156148fc57fe5b84600181111561490857fe5b1415614a255760008061491a85613fee565b91509150600167ffffffffffffffff8111801561493657600080fd5b506040519080825280602002602001820160405280156149655781602001602082028036833780820191505090505b5093506149738883896151b5565b8460008151811061498057fe5b602002602001019073ffffffffffffffffffffffffffffffffffffffff16908173ffffffffffffffffffffffffffffffffffffffff1681525050600167ffffffffffffffff811180156149d257600080fd5b50604051908082528060200260200182016040528015614a015781602001602082028036833780820191505090505b5092508083600081518110614a1257fe5b6020026020010181815250505050614ae6565b614a2e836142cf565b9050805167ffffffffffffffff81118015614a4857600080fd5b50604051908082528060200260200182016040528015614a775781602001602082028036833780820191505090505b50915060005b8251811015614ae457614a918782886151b5565b838281518110614a9d57fe5b602002602001019073ffffffffffffffffffffffffffffffffffffffff16908173ffffffffffffffffffffffffffffffffffffffff16815250508080600101915050614a7d565b505b94509492505050565b6000806000838060200190516060811015614b0957600080fd5b810190808051906020019092919080519060200190929190805190602001909291905050509250925092509193909250565b6000811480614c09575060008373ffffffffffffffffffffffffffffffffffffffff1663dd62ed3e30856040518363ffffffff1660e01b8152600401808373ffffffffffffffffffffffffffffffffffffffff1681526020018273ffffffffffffffffffffffffffffffffffffffff1681526020019250505060206040518083038186803b158015614bcc57600080fd5b505afa158015614be0573d6000803e3d6000fd5b505050506040513d6020811015614bf657600080fd5b8101908080519060200190929190505050145b614c5e576040517f08c379a0000000000000000000000000000000000000000000000000000000008152600401808060200182810382526036815260200180615aae6036913960400191505060405180910390fd5b614cfb8363095ea7b360e01b8484604051602401808373ffffffffffffffffffffffffffffffffffffffff16815260200182815260200192505050604051602081830303815290604052907bffffffffffffffffffffffffffffffffffffffffffffffffffffffff19166020820180517bffffffffffffffffffffffffffffffffffffffffffffffffffffffff8381831617835250505050614eb9565b505050565b600060608215614d43576040518060400160405280600581526020017f2c626f6f6c00000000000000000000000000000000000000000000000000000081525090505b614d4c8461541d565b8160405160200180807f6164645f6c69717569646974792875696e743235365b0000000000000000000081525060160183805190602001908083835b60208310614dab5780518252602082019150602081019050602083039250614d88565b6001836020036101000a038019825116818451168082178552505050505050905001807f5d2c000000000000000000000000000000000000000000000000000000000000815250600201807f75696e743235360000000000000000000000000000000000000000000000000081525060070182805190602001908083835b60208310614e4c5780518252602082019150602081019050602083039250614e29565b6001836020036101000a038019825116818451168082178552505050505050905001807f2900000000000000000000000000000000000000000000000000000000000000815250600101925050506040516020818303038152906040528051906020012091505092915050565b6060614f1b826040518060400160405280602081526020017f5361666545524332303a206c6f772d6c6576656c2063616c6c206661696c65648152508573ffffffffffffffffffffffffffffffffffffffff166155649092919063ffffffff16565b9050600081511115614fa357808060200190516020811015614f3c57600080fd5b8101908080519060200190929190505050614fa2576040517f08c379a000000000000000000000000000000000000000000000000000000000815260040180806020018281038252602a815260200180615a84602a913960400191505060405180910390fd5b5b505050565b60003073ffffffffffffffffffffffffffffffffffffffff16319050600081111561503657614fd5610fb6565b73ffffffffffffffffffffffffffffffffffffffff1663d0e30db0826040518263ffffffff1660e01b81526004016000604051808303818588803b15801561501c57600080fd5b505af1158015615030573d6000803e3d6000fd5b50505050505b50565b606080821561506857600160405160200180821515815260200191505060405160208183030381529060405290505b61507384518461557c565b858560405160200180828051906020019060200280838360005b838110156150a857808201518184015260208101905061508d565b505050509050019150506040516020818303038152906040528360405160200180857bffffffffffffffffffffffffffffffffffffffffffffffffffffffff1916815260040184815260200183805190602001908083835b602083106151235780518252602082019150602081019050602083039250615100565b6001836020036101000a03801982511681845116808217855250505050505090500182805190602001908083835b602083106151745780518252602082019150602081019050602083039250615151565b6001836020036101000a0380198251168184511680821785525050505050509050019450505050506040516020818303038152906040529150509392505050565b600081156152e6578373ffffffffffffffffffffffffffffffffffffffff1663b9947eb0846040518263ffffffff1660e01b81526004018082815260200191505060206040518083038186803b15801561520e57600080fd5b505afa92505050801561524257506040513d602081101561522e57600080fd5b810190808051906020019092919050505060015b6152dc578373ffffffffffffffffffffffffffffffffffffffff1663b739953e846040518263ffffffff1660e01b81526004018082600f0b815260200191505060206040518083038186803b15801561529a57600080fd5b505afa1580156152ae573d6000803e3d6000fd5b505050506040513d60208110156152c457600080fd5b810190808051906020019092919050505090506152e1565b809150505b61540b565b8373ffffffffffffffffffffffffffffffffffffffff1663c6610657846040518263ffffffff1660e01b81526004018082815260200191505060206040518083038186803b15801561533757600080fd5b505afa92505050801561536b57506040513d602081101561535757600080fd5b810190808051906020019092919050505060015b615405578373ffffffffffffffffffffffffffffffffffffffff166323746eb8846040518263ffffffff1660e01b81526004018082600f0b815260200191505060206040518083038186803b1580156153c357600080fd5b505afa1580156153d7573d6000803e3d6000fd5b505050506040513d60208110156153ed57600080fd5b8101908080519060200190929190505050905061540a565b809150505b5b61541481615735565b90509392505050565b60606000821415615465576040518060400160405280600181526020017f3000000000000000000000000000000000000000000000000000000000000000815250905061555f565b600082905060005b6000821461548f578080600101915050600a828161548757fe5b04915061546d565b60608167ffffffffffffffff811180156154a857600080fd5b506040519080825280601f01601f1916602001820160405280156154db5781602001600182028036833780820191505090505b50905060006001830390508593505b6000841461555757600a84816154fc57fe5b0660300160f81b8282806001900393508151811061551657fe5b60200101907effffffffffffffffffffffffffffffffffffffffffffffffffffffffffffff1916908160001a905350600a848161554f57fe5b0493506154ea565b819450505050505b919050565b606061557384846000856157a3565b90509392505050565b6000606082156155bf576040518060400160405280600581526020017f2c626f6f6c00000000000000000000000000000000000000000000000000000081525090505b6155c88461541d565b8160405160200180807f72656d6f76655f6c69717569646974792875696e743235362c00000000000000815250601901807f75696e743235365b00000000000000000000000000000000000000000000000081525060080183805190602001908083835b6020831061564f578051825260208201915060208101905060208303925061562c565b6001836020036101000a038019825116818451168082178552505050505050905001807f5d0000000000000000000000000000000000000000000000000000000000000081525060010182805190602001908083835b602083106156c857805182526020820191506020810190506020830392506156a5565b6001836020036101000a038019825116818451168082178552505050505050905001807f2900000000000000000000000000000000000000000000000000000000000000815250600101925050506040516020818303038152906040528051906020012091505092915050565b60007f000000000000000000000000000000000000000000000000000000000000000073ffffffffffffffffffffffffffffffffffffffff168273ffffffffffffffffffffffffffffffffffffffff16141561579a57615793610fb6565b905061579e565b8190505b919050565b6060824710156157fe576040517f08c379a0000000000000000000000000000000000000000000000000000000008152600401808060200182810382526026815260200180615a2c6026913960400191505060405180910390fd5b6158078561594c565b615879576040517f08c379a000000000000000000000000000000000000000000000000000000000815260040180806020018281038252601d8152602001807f416464726573733a2063616c6c20746f206e6f6e2d636f6e747261637400000081525060200191505060405180910390fd5b600060608673ffffffffffffffffffffffffffffffffffffffff1685876040518082805190602001908083835b602083106158c957805182526020820191506020810190506020830392506158a6565b6001836020036101000a03801982511681845116808217855250505050505090500191505060006040518083038185875af1925050503d806000811461592b576040519150601f19603f3d011682016040523d82523d6000602084013e615930565b606091505b509150915061594082828661595f565b92505050949350505050565b600080823b905060008111915050919050565b6060831561596f57829050615a24565b6000835111156159825782518084602001fd5b816040517f08c379a00000000000000000000000000000000000000000000000000000000081526004018080602001828103825283818151815260200191508051906020019080838360005b838110156159e95780820151818401526020810190506159ce565b50505050905090810190601f168015615a165780820380516001836020036101000a031916815260200191505b509250505060405180910390fd5b939250505056fe416464726573733a20696e73756666696369656e742062616c616e636520666f722063616c6c4f6e6c792074686520496e746567726174696f6e4d616e616765722063616e2063616c6c20746869732066756e6374696f6e5361666545524332303a204552433230206f7065726174696f6e20646964206e6f7420737563636565645361666545524332303a20617070726f76652066726f6d206e6f6e2d7a65726f20746f206e6f6e2d7a65726f20616c6c6f77616e63657061727365417373657473466f72416374696f6e3a205f73656c6563746f7220696e76616c6964a164736f6c634300060c000a","linkReferences":{}},"methodIdentifiers":{"CLAIM_REWARDS_SELECTOR()":"40da225d","LEND_AND_STAKE_SELECTOR()":"131461c0","LEND_SELECTOR()":"257cb1a3","REDEEM_SELECTOR()":"f7d882b5","STAKE_SELECTOR()":"3ffc1591","TAKE_MULTIPLE_ORDERS_SELECTOR()":"c32990a2","TAKE_ORDER_SELECTOR()":"863e5ad0","UNSTAKE_AND_REDEEM_SELECTOR()":"080456c1","UNSTAKE_SELECTOR()":"b23228cf","claimRewards(address,bytes,bytes)":"b9dfbacc","getCurveGaugeV2RewardsHandlerCrvToken()":"332d709f","getCurveGaugeV2RewardsHandlerMinter()":"f003eb85","getCurveLiquidityWrappedNativeAsset()":"12c9d386","getIntegrationManager()":"e7c45690","lend(address,bytes,bytes)":"099f7515","lendAndStake(address,bytes,bytes)":"29fa046e","parseAssetsForAction(address,bytes4,bytes)":"c54efee5","redeem(address,bytes,bytes)":"c29fa9dd","stake(address,bytes,bytes)":"fa7dd04d","unstake(address,bytes,bytes)":"68e30677","unstakeAndRedeem(address,bytes,bytes)":"8334eb99"},"id":214}