{"abi":[{"type":"constructor","inputs":[{"name":"_integrationManager","type":"address","internalType":"address"},{"name":"_curvePriceFeed","type":"address","internalType":"address"},{"name":"_wrappedNativeAsset","type":"address","internalType":"address"},{"name":"_curveMinter","type":"address","internalType":"address"},{"name":"_crvToken","type":"address","internalType":"address"},{"name":"_nativeAssetAddress","type":"address","internalType":"address"}],"stateMutability":"nonpayable"},{"type":"receive","stateMutability":"payable"},{"type":"function","name":"CLAIM_REWARDS_SELECTOR","inputs":[],"outputs":[{"name":"","type":"bytes4","internalType":"bytes4"}],"stateMutability":"view"},{"type":"function","name":"LEND_AND_STAKE_SELECTOR","inputs":[],"outputs":[{"name":"","type":"bytes4","internalType":"bytes4"}],"stateMutability":"view"},{"type":"function","name":"LEND_SELECTOR","inputs":[],"outputs":[{"name":"","type":"bytes4","internalType":"bytes4"}],"stateMutability":"view"},{"type":"function","name":"REDEEM_SELECTOR","inputs":[],"outputs":[{"name":"","type":"bytes4","internalType":"bytes4"}],"stateMutability":"view"},{"type":"function","name":"STAKE_SELECTOR","inputs":[],"outputs":[{"name":"","type":"bytes4","internalType":"bytes4"}],"stateMutability":"view"},{"type":"function","name":"TAKE_MULTIPLE_ORDERS_SELECTOR","inputs":[],"outputs":[{"name":"","type":"bytes4","internalType":"bytes4"}],"stateMutability":"view"},{"type":"function","name":"TAKE_ORDER_SELECTOR","inputs":[],"outputs":[{"name":"","type":"bytes4","internalType":"bytes4"}],"stateMutability":"view"},{"type":"function","name":"UNSTAKE_AND_REDEEM_SELECTOR","inputs":[],"outputs":[{"name":"","type":"bytes4","internalType":"bytes4"}],"stateMutability":"view"},{"type":"function","name":"UNSTAKE_SELECTOR","inputs":[],"outputs":[{"name":"","type":"bytes4","internalType":"bytes4"}],"stateMutability":"view"},{"type":"function","name":"claimRewards","inputs":[{"name":"_vaultProxy","type":"address","internalType":"address"},{"name":"_actionData","type":"bytes","internalType":"bytes"},{"name":"","type":"bytes","internalType":"bytes"}],"outputs":[],"stateMutability":"nonpayable"},{"type":"function","name":"getCurveGaugeV2RewardsHandlerCrvToken","inputs":[],"outputs":[{"name":"crvToken_","type":"address","internalType":"address"}],"stateMutability":"view"},{"type":"function","name":"getCurveGaugeV2RewardsHandlerMinter","inputs":[],"outputs":[{"name":"minter_","type":"address","internalType":"address"}],"stateMutability":"view"},{"type":"function","name":"getCurveLiquidityWrappedNativeAsset","inputs":[],"outputs":[{"name":"addressProvider_","type":"address","internalType":"address"}],"stateMutability":"view"},{"type":"function","name":"getIntegrationManager","inputs":[],"outputs":[{"name":"integrationManager_","type":"address","internalType":"address"}],"stateMutability":"view"},{"type":"function","name":"lend","inputs":[{"name":"_vaultProxy","type":"address","internalType":"address"},{"name":"_actionData","type":"bytes","internalType":"bytes"},{"name":"_assetData","type":"bytes","internalType":"bytes"}],"outputs":[],"stateMutability":"nonpayable"},{"type":"function","name":"lendAndStake","inputs":[{"name":"_vaultProxy","type":"address","internalType":"address"},{"name":"_actionData","type":"bytes","internalType":"bytes"},{"name":"_assetData","type":"bytes","internalType":"bytes"}],"outputs":[],"stateMutability":"nonpayable"},{"type":"function","name":"parseAssetsForAction","inputs":[{"name":"","type":"address","internalType":"address"},{"name":"_selector","type":"bytes4","internalType":"bytes4"},{"name":"_actionData","type":"bytes","internalType":"bytes"}],"outputs":[{"name":"spendAssetsHandleType_","type":"uint8","internalType":"enum IIntegrationManager.SpendAssetsHandleType"},{"name":"spendAssets_","type":"address[]","internalType":"address[]"},{"name":"spendAssetAmounts_","type":"uint256[]","internalType":"uint256[]"},{"name":"incomingAssets_","type":"address[]","internalType":"address[]"},{"name":"minIncomingAssetAmounts_","type":"uint256[]","internalType":"uint256[]"}],"stateMutability":"view"},{"type":"function","name":"redeem","inputs":[{"name":"_vaultProxy","type":"address","internalType":"address"},{"name":"_actionData","type":"bytes","internalType":"bytes"},{"name":"_assetData","type":"bytes","internalType":"bytes"}],"outputs":[],"stateMutability":"nonpayable"},{"type":"function","name":"stake","inputs":[{"name":"_vaultProxy","type":"address","internalType":"address"},{"name":"","type":"bytes","internalType":"bytes"},{"name":"_assetData","type":"bytes","internalType":"bytes"}],"outputs":[],"stateMutability":"nonpayable"},{"type":"function","name":"unstake","inputs":[{"name":"_vaultProxy","type":"address","internalType":"address"},{"name":"_actionData","type":"bytes","internalType":"bytes"},{"name":"_assetData","type":"bytes","internalType":"bytes"}],"outputs":[],"stateMutability":"nonpayable"},{"type":"function","name":"unstakeAndRedeem","inputs":[{"name":"_vaultProxy","type":"address","internalType":"address"},{"name":"_actionData","type":"bytes","internalType":"bytes"},{"name":"_assetData","type":"bytes","internalType":"bytes"}],"outputs":[],"stateMutability":"nonpayable"}],"bytecode":{"object":"0x61014060405234801561001157600080fd5b50604051620041bd380380620041bd833981810160405260c081101561003657600080fd5b5080516020820151604083015160608085015160808087015160a0978801516001600160601b031997851b881690925293831b861690965294811b841660c05290811b831660e05292831b82166101005290911b166101205260805160601c60a05160601c60c05160601c60e05160601c6101005160601c6101205160601c61408c6200013160003980610d8152806122bd528061255552806126ea528061296b52806133125250806114cd52806120455280613115525080610ebe525080613d8d525080610bde525080610a815280610c535280610f33528061102d5280611190528061124652806114a9528061151e525061408c6000f3fe60806040526004361061012e5760003560e01c80638334eb99116100ab578063c32990a21161006f578063c32990a214610754578063c54efee514610769578063e7c4569014610938578063f003eb851461094d578063f7d882b514610962578063fa7dd04d1461097757610135565b80638334eb9914610499578063863e5ad014610574578063b23228cf14610589578063b9dfbacc1461059e578063c29fa9dd1461067957610135565b806329fa046e116100f257806329fa046e146102a4578063332d709f1461037f5780633ffc15911461039457806340da225d146103a957806368e30677146103be57610135565b8063080456c11461013a578063099f75151461016c57806312c9d38614610249578063131461c01461027a578063257cb1a31461028f57610135565b3661013557005b600080fd5b34801561014657600080fd5b5061014f610a52565b604080516001600160e01b03199092168252519081900360200190f35b34801561017857600080fd5b506102476004803603606081101561018f57600080fd5b6001600160a01b038235169190810190604081016020820135600160201b8111156101b957600080fd5b8201836020820111156101cb57600080fd5b803590602001918460018302840111600160201b831117156101ec57600080fd5b919390929091602081019035600160201b81111561020957600080fd5b82018360208201111561021b57600080fd5b803590602001918460018302840111600160201b8311171561023c57600080fd5b509092509050610a76565b005b34801561025557600080fd5b5061025e610bdc565b604080516001600160a01b039092168252519081900360200190f35b34801561028657600080fd5b5061014f610c00565b34801561029b57600080fd5b5061014f610c24565b3480156102b057600080fd5b50610247600480360360608110156102c757600080fd5b6001600160a01b038235169190810190604081016020820135600160201b8111156102f157600080fd5b82018360208201111561030357600080fd5b803590602001918460018302840111600160201b8311171561032457600080fd5b919390929091602081019035600160201b81111561034157600080fd5b82018360208201111561035357600080fd5b803590602001918460018302840111600160201b8311171561037457600080fd5b509092509050610c48565b34801561038b57600080fd5b5061025e610ebc565b3480156103a057600080fd5b5061014f610ee0565b3480156103b557600080fd5b5061014f610f04565b3480156103ca57600080fd5b50610247600480360360608110156103e157600080fd5b6001600160a01b038235169190810190604081016020820135600160201b81111561040b57600080fd5b82018360208201111561041d57600080fd5b803590602001918460018302840111600160201b8311171561043e57600080fd5b919390929091602081019035600160201b81111561045b57600080fd5b82018360208201111561046d57600080fd5b803590602001918460018302840111600160201b8311171561048e57600080fd5b509092509050610f28565b3480156104a557600080fd5b50610247600480360360608110156104bc57600080fd5b6001600160a01b038235169190810190604081016020820135600160201b8111156104e657600080fd5b8201836020820111156104f857600080fd5b803590602001918460018302840111600160201b8311171561051957600080fd5b919390929091602081019035600160201b81111561053657600080fd5b82018360208201111561054857600080fd5b803590602001918460018302840111600160201b8311171561056957600080fd5b509092509050611022565b34801561058057600080fd5b5061014f61113d565b34801561059557600080fd5b5061014f611161565b3480156105aa57600080fd5b50610247600480360360608110156105c157600080fd5b6001600160a01b038235169190810190604081016020820135600160201b8111156105eb57600080fd5b8201836020820111156105fd57600080fd5b803590602001918460018302840111600160201b8311171561061e57600080fd5b919390929091602081019035600160201b81111561063b57600080fd5b82018360208201111561064d57600080fd5b803590602001918460018302840111600160201b8311171561066e57600080fd5b509092509050611185565b34801561068557600080fd5b506102476004803603606081101561069c57600080fd5b6001600160a01b038235169190810190604081016020820135600160201b8111156106c657600080fd5b8201836020820111156106d857600080fd5b803590602001918460018302840111600160201b831117156106f957600080fd5b919390929091602081019035600160201b81111561071657600080fd5b82018360208201111561072857600080fd5b803590602001918460018302840111600160201b8311171561074957600080fd5b50909250905061123b565b34801561076057600080fd5b5061014f611338565b34801561077557600080fd5b506108036004803603606081101561078c57600080fd5b6001600160a01b03823516916001600160e01b031960208201351691810190606081016040820135600160201b8111156107c557600080fd5b8201836020820111156107d757600080fd5b803590602001918460018302840111600160201b831117156107f857600080fd5b50909250905061135c565b6040518086600281111561081357fe5b815260200180602001806020018060200180602001858103855289818151815260200191508051906020019060200280838360005b83811015610860578181015183820152602001610848565b50505050905001858103845288818151815260200191508051906020019060200280838360005b8381101561089f578181015183820152602001610887565b50505050905001858103835287818151815260200191508051906020019060200280838360005b838110156108de5781810151838201526020016108c6565b50505050905001858103825286818151815260200191508051906020019060200280838360005b8381101561091d578181015183820152602001610905565b50505050905001995050505050505050505060405180910390f35b34801561094457600080fd5b5061025e6114a7565b34801561095957600080fd5b5061025e6114cb565b34801561096e57600080fd5b5061014f6114ef565b34801561098357600080fd5b506102476004803603606081101561099a57600080fd5b6001600160a01b038235169190810190604081016020820135600160201b8111156109c457600080fd5b8201836020820111156109d657600080fd5b803590602001918460018302840111600160201b831117156109f757600080fd5b919390929091602081019035600160201b811115610a1457600080fd5b820183602082011115610a2657600080fd5b803590602001918460018302840111600160201b83111715610a4757600080fd5b509092509050611513565b7f8334eb99be0145865eba9889fca2ee920288090caefff4cc776038e20ad9259a81565b336001600160a01b037f00000000000000000000000000000000000000000000000000000000000000001614610add5760405162461bcd60e51b8152600401808060200182810382526032815260200180613fc76032913960400191505060405180910390fd5b8482828080601f0160208091040260200160405190810160405280939291908181526020018383808284376000920182905250604080516020601f8c018190048102820181019092528a8152919450606093508492508291610b59918c908c908190840183828082843760009201919091525061165192505050565b93509350935093506060610ba289898080601f01602080910402602001604051908101604052809392919081815260200183838082843760009201919091525061171a92505050565b50509050610bb385828686866118d7565b50505050506060610bc38261171a565b92505050610bd18382611b8b565b505050505050505050565b7f000000000000000000000000000000000000000000000000000000000000000090565b7f29fa046e79524c3c5ac4c01df692c35e217802b2b13b21121b76cf0ef02b138c81565b7f099f75155f0e997bf83a7993a71d5e7e7540bd386fe1e84643a09ce6b412521981565b336001600160a01b037f00000000000000000000000000000000000000000000000000000000000000001614610caf5760405162461bcd60e51b8152600401808060200182810382526032815260200180613fc76032913960400191505060405180910390fd5b8482828080601f0160208091040260200160405190810160405280939291908181526020018383808284376000920182905250604080516020601f8c018190048102820181019092528a81529194506060935084925082918291610d2e91908d908d9081908401838280828437600092019190915250611ce692505050565b945094509450945094506060610d798a8a8080601f01602080910402602001604051908101604052809392919081815260200183838082843760009201919091525061171a92505050565b5050905060007f00000000000000000000000000000000000000000000000000000000000000006001600160a01b0316631f5bce55886040518263ffffffff1660e01b815260040180826001600160a01b0316815260200191505060206040518083038186803b158015610dec57600080fd5b505afa158015610e00573d6000803e3d6000fd5b505050506040513d6020811015610e1657600080fd5b50519050610e2787838887876118d7565b610eaa8582836001600160a01b03166370a08231306040518263ffffffff1660e01b815260040180826001600160a01b0316815260200191505060206040518083038186803b158015610e7957600080fd5b505afa158015610e8d573d6000803e3d6000fd5b505050506040513d6020811015610ea357600080fd5b5051611dba565b505050505050506060610bc38261171a565b7f000000000000000000000000000000000000000000000000000000000000000090565b7ffa7dd04da627f433da73c4355ead9c75682a67a8fc84d3f6170ef0922f402d2481565b7fb9dfbaccbe5cd2a84fdcf1d15f23ef25d23086f5afbaa99516065ed4a5bbc7a381565b336001600160a01b037f00000000000000000000000000000000000000000000000000000000000000001614610f8f5760405162461bcd60e51b8152600401808060200182810382526032815260200180613fc76032913960400191505060405180910390fd5b8482828080601f0160208091040260200160405190810160405280939291908181526020018383808284376000920182905250604080516020601f8c018190048102820181019092528a815291945084935061100692508a908a9081908401838280828437600092019190915250611e3092505050565b92509250506110158282611e64565b50506060610bc38261171a565b336001600160a01b037f000000000000000000000000000000000000000000000000000000000000000016146110895760405162461bcd60e51b8152600401808060200182810382526032815260200180613fc76032913960400191505060405180910390fd5b8482828080601f0160208091040260200160405190810160405280939291908181526020018383808284376000920182905250604080516020601f8c018190048102820181019092528a815291945084935083925082918291606091611109918e908e9081908401838280828437600092019190915250611ec692505050565b95509550955095509550955061111f8585611e64565b61112c8685858585611fc9565b5050505050506060610bc38261171a565b7f03e38a2bd7063d45c897edeafc330e71657502dd86434d3c37a489caf116af6981565b7f68e30677f607df46e87da13e15b637784cfa62374b653f35ab43d10361a2f83081565b336001600160a01b037f000000000000000000000000000000000000000000000000000000000000000016146111ec5760405162461bcd60e51b8152600401808060200182810382526032815260200180613fc76032913960400191505060405180910390fd5b61123461122e85858080601f01602080910402602001604051908101604052809392919081815260200183838082843760009201919091525061201592505050565b86612036565b5050505050565b336001600160a01b037f000000000000000000000000000000000000000000000000000000000000000016146112a25760405162461bcd60e51b8152600401808060200182810382526032815260200180613fc76032913960400191505060405180910390fd5b8482828080601f0160208091040260200160405190810160405280939291908181526020018383808284376000920182905250604080516020601f8c018190048102820181019092528a8152919450849350839250829160609161132191908d908d90819084018382808284376000920191909152506120ea92505050565b94509450945094509450610bb38585858585611fc9565b7f0e7f692dad5b88fdee426250d6eae91207e56a2e8112b7364579bed1790e5bf481565b600060608080806001600160e01b03198816632e77eeb360e21b1415611393576113846121e3565b9450945094509450945061149c565b6001600160e01b0319881663099f751560e01b14156113b6576113848787612243565b6001600160e01b031988166314fd023760e11b14156113d95761138487876123d3565b6001600160e01b0319881663c29fa9dd60e01b14156113fc5761138487876124d8565b6001600160e01b0319881663fa7dd04d60e01b141561141f57611384878761266c565b6001600160e01b031988166368e3067760e01b141561144257611384878761286e565b6001600160e01b03198816638334eb9960e01b1415611465576113848787612a0f565b60405162461bcd60e51b81526004018080602001828103825260278152602001806140596027913960400191505060405180910390fd5b945094509450945094565b7f000000000000000000000000000000000000000000000000000000000000000090565b7f000000000000000000000000000000000000000000000000000000000000000090565b7fc29fa9dde84204c2908778afd0613d802d31cf046179b88f6d2b4a4e507ea2d581565b336001600160a01b037f0000000000000000000000000000000000000000000000000000000000000000161461157a5760405162461bcd60e51b8152600401808060200182810382526032815260200180613fc76032913960400191505060405180910390fd5b8482828080601f01602080910402602001604051908101604052809392919081815260200183838082843760009201919091525050604080516020601f88018190048102820181019092528681526060935083925082916115f69190899089908190840183828082843760009201919091525061171a92505050565b9250925092506116438160008151811061160c57fe5b60200260200101518460008151811061162157fe5b60200260200101518460008151811061163657fe5b6020026020010151611dba565b5050506060610bc38261171a565b6000606060008084806020019051608081101561166d57600080fd5b815160208301805160405192949293830192919084600160201b82111561169357600080fd5b9083019060208201858111156116a857600080fd5b82518660208202830111600160201b821117156116c457600080fd5b82525081516020918201928201910280838360005b838110156116f15781810151838201526020016116d9565b505050509190910160409081526020830151920151959b949a5090985093965091945050505050565b606080606083806020019051606081101561173457600080fd5b8101908080516040519392919084600160201b82111561175357600080fd5b90830190602082018581111561176857600080fd5b82518660208202830111600160201b8211171561178457600080fd5b82525081516020918201928201910280838360005b838110156117b1578181015183820152602001611799565b5050505090500160405260200180516040519392919084600160201b8211156117d957600080fd5b9083019060208201858111156117ee57600080fd5b82518660208202830111600160201b8211171561180a57600080fd5b82525081516020918201928201910280838360005b8381101561183757818101518382015260200161181f565b5050505090500160405260200180516040519392919084600160201b82111561185f57600080fd5b90830190602082018581111561187457600080fd5b82518660208202830111600160201b8211171561189057600080fd5b82525081516020918201928201910280838360005b838110156118bd5781810151838201526020016118a5565b505050509050016040525050509250925092509193909250565b6000805b8551811015611a4a576118ec610bdc565b6001600160a01b031686828151811061190157fe5b60200260200101516001600160a01b03161415611a0457611920610bdc565b6001600160a01b03166370a08231306040518263ffffffff1660e01b815260040180826001600160a01b0316815260200191505060206040518083038186803b15801561196c57600080fd5b505afa158015611980573d6000803e3d6000fd5b505050506040513d602081101561199657600080fd5b505191506119a2610bdc565b6001600160a01b0316632e1a7d4d836040518263ffffffff1660e01b815260040180828152602001915050600060405180830381600087803b1580156119e757600080fd5b505af11580156119fb573d6000803e3d6000fd5b50505050611a42565b611a42868281518110611a1357fe5b6020026020010151887f161bcca7119915b50764b4abe86529797775a5f1719510000000000000000000612b18565b6001016118db565b5060006060876001600160a01b031683611a65888888612bd6565b6040518082805190602001908083835b60208310611a945780518252601f199092019160209182019101611a75565b6001836020036101000a03801982511681845116808217855250505050505090500191505060006040518083038185875af1925050503d8060008114611af6576040519150601f19603f3d011682016040523d82523d6000602084013e611afb565b606091505b5091509150818190610bd15760405162461bcd60e51b81526004018080602001828103825283818151815260200191508051906020019080838360005b83811015611b50578181015183820152602001611b38565b50505050905090810190601f168015611b7d5780820380516001836020036101000a031916815260200191505b509250505060405180910390fd5b6060815167ffffffffffffffff81118015611ba557600080fd5b50604051908082528060200260200182016040528015611bcf578160200160208202803683370190505b50905060005b8251811015611cdf576000838281518110611bec57fe5b60200260200101519050806001600160a01b03166370a08231306040518263ffffffff1660e01b815260040180826001600160a01b0316815260200191505060206040518083038186803b158015611c4357600080fd5b505afa158015611c57573d6000803e3d6000fd5b505050506040513d6020811015611c6d57600080fd5b50518351849084908110611c7d57fe5b6020026020010181815250506000838381518110611c9757fe5b60200260200101511115611cd657611cd685848481518110611cb557fe5b6020026020010151836001600160a01b0316612d279092919063ffffffff16565b50600101611bd5565b5092915050565b6000606060008060008580602001905160a0811015611d0457600080fd5b815160208301805160405192949293830192919084600160201b821115611d2a57600080fd5b908301906020820185811115611d3f57600080fd5b82518660208202830111600160201b82111715611d5b57600080fd5b82525081516020918201928201910280838360005b83811015611d88578181015183820152602001611d70565b50505050919091016040908152602083015190830151606090930151969d959c509a5090985093965091945050505050565b611dc5828483612b18565b60408051636e553f6560e01b81526004810183905230602482015290516001600160a01b03851691636e553f6591604480830192600092919082900301818387803b158015611e1357600080fd5b505af1158015611e27573d6000803e3d6000fd5b50505050505050565b6000806000838060200190516060811015611e4a57600080fd5b508051602082015160409092015190969195509350915050565b816001600160a01b0316632e1a7d4d826040518263ffffffff1660e01b815260040180828152602001915050600060405180830381600087803b158015611eaa57600080fd5b505af1158015611ebe573d6000803e3d6000fd5b505050505050565b600080600080600060608680602001905160c0811015611ee557600080fd5b815160208301516040808501516060860151608087015160a088018051945196989597939692959194929382019284600160201b821115611f2557600080fd5b908301906020820185811115611f3a57600080fd5b8251600160201b811182820188101715611f5357600080fd5b82525081516020918201929091019080838360005b83811015611f80578181015183820152602001611f68565b50505050905090810190601f168015611fad5780820380516001836020036101000a031916815260200191505b5060405250505095509550955095509550955091939550919395565b6001826001811115611fd757fe5b141561200157600080611fe983612d7e565b91509150611ffa8787848489612da9565b5050611234565b611234858561200f84612f60565b86613008565b600081806020019051602081101561202c57600080fd5b505190505b919050565b61203e613113565b156120dc577f00000000000000000000000000000000000000000000000000000000000000006001600160a01b03166327f18ae383836040518363ffffffff1660e01b815260040180836001600160a01b03168152602001826001600160a01b0316815260200192505050600060405180830381600087803b1580156120c357600080fd5b505af11580156120d7573d6000803e3d6000fd5b505050505b6120e68282613142565b5050565b60008060008060608580602001905160a081101561210757600080fd5b8151602083015160408085015160608601516080870180519351959794969295919491939282019284600160201b82111561214157600080fd5b90830190602082018581111561215657600080fd5b8251600160201b81118282018810171561216f57600080fd5b82525081516020918201929091019080838360005b8381101561219c578181015183820152602001612184565b50505050905090810190601f1680156121c95780820380516001836020036101000a031916815260200191505b506040525050509450945094509450945091939590929450565b600060608080808480604051908082528060200260200182016040528015612215578160200160208202803683370190505b5060408051600080825260208201818152828401918252606083019093529399929850965094509092509050565b6000606080606080600060606000806122918b8b8080601f01602080910402602001604051908101604052809392919081815260200183838082843760009201919091525061165192505050565b6040805160018082528183019092529498509296509094509250602080830190803683370190505095507f00000000000000000000000000000000000000000000000000000000000000006001600160a01b0316631f5bce55856040518263ffffffff1660e01b815260040180826001600160a01b0316815260200191505060206040518083038186803b15801561232857600080fd5b505afa15801561233c573d6000803e3d6000fd5b505050506040513d602081101561235257600080fd5b50518651879060009061236157fe5b6001600160a01b039290921660209283029190910182015260408051600180825281830190925291828101908036833701905050945081856000815181106123a557fe5b6020026020010181815250506123bc848483613191565b60029a509098509650505050509295509295909350565b60006060806060806000606060008060006124238c8c8080601f016020809104026020016040519081016040528093929190818152602001838380828437600092019190915250611ce692505050565b945094509450945094506124378584613306565b612442858583613191565b604080516001808252818301909252929b5090995060208083019080368337019050509650828760008151811061247557fe5b6001600160a01b039290921660209283029190910182015260408051600180825281830190925291828101908036833701905050955081866000815181106124b957fe5b6020026020010181815250506002995050505050509295509295909350565b600060608060608060008060008060606125278c8c8080601f0160208091040260200160405190810160405280939291908181526020018383808284376000920191909152506120ea92505050565b604080516001808252818301909252959a5093985091965094509250602080830190803683370190505098507f00000000000000000000000000000000000000000000000000000000000000006001600160a01b0316631f5bce55866040518263ffffffff1660e01b815260040180826001600160a01b0316815260200191505060206040518083038186803b1580156125c057600080fd5b505afa1580156125d4573d6000803e3d6000fd5b505050506040513d60208110156125ea57600080fd5b505189518a906000906125f957fe5b6001600160a01b0392909216602092830291909101820152604080516001808252818301909252918281019080368337019050509750838860008151811061263d57fe5b60200260200101818152505061265585848484613404565b60029e9a9d50989b50995096979650505050505050565b600060608060608060008060006126b88a8a8080601f016020809104026020016040519081016040528093929190818152602001838380828437600092019190915250611e3092505050565b9250925092506126c88383613306565b60408051600180825281830190925290602080830190803683370190505096507f00000000000000000000000000000000000000000000000000000000000000006001600160a01b0316631f5bce55846040518263ffffffff1660e01b815260040180826001600160a01b0316815260200191505060206040518083038186803b15801561275557600080fd5b505afa158015612769573d6000803e3d6000fd5b505050506040513d602081101561277f57600080fd5b50518751889060009061278e57fe5b6001600160a01b039290921660209283029190910182015260408051600180825281830190925291828101908036833701905050955080866000815181106127d257fe5b602090810291909101015260408051600180825281830190925290816020016020820280368337019050509450818560008151811061280d57fe5b6001600160a01b0392909216602092830291909101820152604080516001808252818301909252918281019080368337019050509350808460008151811061285157fe5b602002602001018181525050600297505050509295509295909350565b600060608060608060008060006128ba8a8a8080601f016020809104026020016040519081016040528093929190818152602001838380828437600092019190915250611e3092505050565b9250925092506128ca8383613306565b604080516001808252818301909252906020808301908036833701905050965081876000815181106128f857fe5b6001600160a01b0392909216602092830291909101820152604080516001808252818301909252918281019080368337019050509550808660008151811061293c57fe5b6020908102919091010152604080516001808252818301909252908160200160208202803683370190505094507f00000000000000000000000000000000000000000000000000000000000000006001600160a01b0316631f5bce55846040518263ffffffff1660e01b815260040180826001600160a01b0316815260200191505060206040518083038186803b1580156129d657600080fd5b505afa1580156129ea573d6000803e3d6000fd5b505050506040513d6020811015612a0057600080fd5b50518551869060009061280d57fe5b600060608060608060008060008060006060612a608d8d8080601f016020809104026020016040519081016040528093929190818152602001838380828437600092019190915250611ec692505050565b955095509550955095509550612a768686613306565b6040805160018082528183019092529060208083019080368337019050509950848a600081518110612aa457fe5b6001600160a01b03929092166020928302919091018201526040805160018082528183019092529182810190803683370190505098508389600081518110612ae857fe5b602002602001018181525050612b0086848484613404565b60029f9b9e50999c509a509798975050505050505050565b60408051636eb1769f60e11b81523060048201526001600160a01b038481166024830152915160009286169163dd62ed3e916044808301926020929190829003018186803b158015612b6957600080fd5b505afa158015612b7d573d6000803e3d6000fd5b505050506040513d6020811015612b9357600080fd5b5051905081811015612bd0578015612bba57612bba6001600160a01b038516846000613559565b612bd06001600160a01b03851684600019613559565b50505050565b6060808215612c005750604080516001602080830191909152825180830390910181529082019091525b612c0b85518461366c565b8560405160200180828051906020019060200280838360005b83811015612c3c578181015183820152602001612c24565b50505050905001915050604051602081830303815290604052858360405160200180856001600160e01b031916815260040184805190602001908083835b60208310612c995780518252601f199092019160209182019101612c7a565b51815160209384036101000a60001901801990921691161790529201858152845190830192850191508083835b60208310612ce55780518252601f199092019160209182019101612cc6565b6001836020036101000a0380198251168184511680821785525050505050509050019450505050506040516020818303038152906040529150505b9392505050565b604080516001600160a01b038416602482015260448082018490528251808303909101815260649091019091526020810180516001600160e01b031663a9059cbb60e01b179052612d799084906137a8565b505050565b600080828060200190516040811015612d9657600080fd5b5080516020909101519092509050915091565b60608115612e0a57506040805160248101869052600f85900b60448201526064810184905260016084808301919091528251808303909101815260a49091019091526020810180516001600160e01b031663517a55a360e01b179052612e55565b506040805160248101869052600f85900b604482015260648082018590528251808303909101815260849091019091526020810180516001600160e01b0316630d2680e960e11b1790525b60006060876001600160a01b0316836040518082805190602001908083835b60208310612e935780518252601f199092019160209182019101612e74565b6001836020036101000a0380198251168184511680821785525050505050509050019150506000604051808303816000865af19150503d8060008114612ef5576040519150601f19603f3d011682016040523d82523d6000602084013e612efa565b606091505b5091509150818190612f4d5760405162461bcd60e51b8152602060048201818152835160248401528351909283926044909101919085019080838360008315611b50578181015183820152602001611b38565b50612f56613859565b5050505050505050565b6060818060200190516020811015612f7757600080fd5b8101908080516040519392919084600160201b821115612f9657600080fd5b908301906020820185811115612fab57600080fd5b82518660208202830111600160201b82111715612fc757600080fd5b82525081516020918201928201910280838360005b83811015612ff4578181015183820152602001612fdc565b505050509050016040525050509050919050565b60006060856001600160a01b03166130218686866138a6565b6040518082805190602001908083835b602083106130505780518252601f199092019160209182019101613031565b6001836020036101000a0380198251168184511680821785525050505050509050019150506000604051808303816000865af19150503d80600081146130b2576040519150601f19603f3d011682016040523d82523d6000602084013e6130b7565b606091505b509150915081819061310a5760405162461bcd60e51b8152602060048201818152835160248401528351909283926044909101919085019080838360008315611b50578181015183820152602001611b38565b50611ebe613859565b7f00000000000000000000000000000000000000000000000000000000000000006001600160a01b0316151590565b816001600160a01b03166384e9bd7e826040518263ffffffff1660e01b815260040180826001600160a01b03168152602001915050600060405180830381600087803b158015611eaa57600080fd5b6060806000805b85518110156131cc5760008682815181106131af57fe5b602002602001015111156131c4576001909101905b600101613198565b508067ffffffffffffffff811180156131e457600080fd5b5060405190808252806020026020018201604052801561320e578160200160208202803683370190505b5092508067ffffffffffffffff8111801561322857600080fd5b50604051908082528060200260200182016040528015613252578160200160208202803683370190505b5091506000805b86518110156132fb57600087828151811061327057fe5b602002602001015111156132f3576132898882886139b9565b85838151811061329557fe5b60200260200101906001600160a01b031690816001600160a01b0316815250508681815181106132c157fe5b60200260200101518483815181106132d557fe5b6020908102919091010152600190910190828214156132f3576132fb565b600101613259565b505050935093915050565b816001600160a01b03167f00000000000000000000000000000000000000000000000000000000000000006001600160a01b0316636a2175c0836040518263ffffffff1660e01b815260040180826001600160a01b0316815260200191505060206040518083038186803b15801561337d57600080fd5b505afa158015613391573d6000803e3d6000fd5b505050506040513d60208110156133a757600080fd5b50516001600160a01b0316146120e6576040805162461bcd60e51b815260206004820152601860248201527f5f5f76616c696461746547617567653a20496e76616c69640000000000000000604482015290519081900360640190fd5b606080600184600181111561341557fe5b14156134bb5760008061342785612d7e565b604080516001808252818301909252929450909250602080830190803683370190505093506134578883896139b9565b8460008151811061346457fe5b6001600160a01b039290921660209283029190910182015260408051600180825281830190925291828101908036833701905050925080836000815181106134a857fe5b6020026020010181815250505050613550565b6134c483612f60565b9050805167ffffffffffffffff811180156134de57600080fd5b50604051908082528060200260200182016040528015613508578160200160208202803683370190505b50915060005b825181101561354e576135228782886139b9565b83828151811061352e57fe5b6001600160a01b039092166020928302919091019091015260010161350e565b505b94509492505050565b8015806135df575060408051636eb1769f60e11b81523060048201526001600160a01b03848116602483015291519185169163dd62ed3e91604480820192602092909190829003018186803b1580156135b157600080fd5b505afa1580156135c5573d6000803e3d6000fd5b505050506040513d60208110156135db57600080fd5b5051155b61361a5760405162461bcd60e51b81526004018080602001828103825260368152602001806140236036913960400191505060405180910390fd5b604080516001600160a01b038416602482015260448082018490528251808303909101815260649091019091526020810180516001600160e01b031663095ea7b360e01b179052612d799084906137a8565b60006060821561369457506040805180820190915260058152640b189bdbdb60da1b60208201525b61369d84613bab565b816040516020018080756164645f6c69717569646974792875696e743235365b60501b81525060160183805190602001908083835b602083106136f15780518252601f1990920191602091820191016136d2565b51815160209384036101000a600019018019909216911617905261174b60f21b91909301908152663ab4b73a191a9b60c91b60028201528451600990910192850191508083835b602083106137575780518252601f199092019160209182019101613738565b6001836020036101000a03801982511681845116808217855250505050505090500180602960f81b815250600101925050506040516020818303038152906040528051906020012091505092915050565b60606137fd826040518060400160405280602081526020017f5361666545524332303a206c6f772d6c6576656c2063616c6c206661696c6564815250856001600160a01b0316613c869092919063ffffffff16565b805190915015612d795780806020019051602081101561381c57600080fd5b5051612d795760405162461bcd60e51b815260040180806020018281038252602a815260200180613ff9602a913960400191505060405180910390fd5b303180156138a357613869610bdc565b6001600160a01b031663d0e30db0826040518263ffffffff1660e01b81526004016000604051808303818588803b158015611eaa57600080fd5b50565b60608082156138d05750604080516001602080830191909152825180830390910181529082019091525b6138db845184613c95565b858560405160200180828051906020019060200280838360005b8381101561390d5781810151838201526020016138f5565b505050509050019150506040516020818303038152906040528360405160200180856001600160e01b031916815260040184815260200183805190602001908083835b6020831061396f5780518252601f199092019160209182019101613950565b51815160001960209485036101000a0190811690199190911617905285519390910192908501915080838360208310612ce55780518252601f199092019160209182019101612cc6565b60008115613ab057836001600160a01b031663b9947eb0846040518263ffffffff1660e01b81526004018082815260200191505060206040518083038186803b158015613a0557600080fd5b505afa925050508015613a2a57506040513d6020811015613a2557600080fd5b505160015b613aa857836001600160a01b031663b739953e846040518263ffffffff1660e01b81526004018082600f0b815260200191505060206040518083038186803b158015613a7557600080fd5b505afa158015613a89573d6000803e3d6000fd5b505050506040513d6020811015613a9f57600080fd5b50519050613aab565b90505b613b9a565b836001600160a01b031663c6610657846040518263ffffffff1660e01b81526004018082815260200191505060206040518083038186803b158015613af457600080fd5b505afa925050508015613b1957506040513d6020811015613b1457600080fd5b505160015b613b9757836001600160a01b03166323746eb8846040518263ffffffff1660e01b81526004018082600f0b815260200191505060206040518083038186803b158015613b6457600080fd5b505afa158015613b78573d6000803e3d6000fd5b505050506040513d6020811015613b8e57600080fd5b50519050613b9a565b90505b613ba381613d89565b949350505050565b606081613bd057506040805180820190915260018152600360fc1b6020820152612031565b8160005b8115613be857600101600a82049150613bd4565b60608167ffffffffffffffff81118015613c0157600080fd5b506040519080825280601f01601f191660200182016040528015613c2c576020820181803683370190505b50859350905060001982015b8315613c7d57600a840660300160f81b82828060019003935081518110613c5b57fe5b60200101906001600160f81b031916908160001a905350600a84049350613c38565b50949350505050565b6060613ba38484600085613dd8565b600060608215613cbd57506040805180820190915260058152640b189bdbdb60da1b60208201525b613cc684613bab565b6040517f72656d6f76655f6c69717569646974792875696e743235362c0000000000000060208083019182526775696e743235365b60c01b603984015283518593604101918501908083835b60208310613d315780518252601f199092019160209182019101613d12565b6001836020036101000a03801982511681845116808217855250505050505090500180605d60f81b8152506001018280519060200190808383602083106137575780518252601f199092019160209182019101613738565b60007f00000000000000000000000000000000000000000000000000000000000000006001600160a01b0316826001600160a01b03161415613dd457613dcd610bdc565b9050612031565b5090565b606082471015613e195760405162461bcd60e51b8152600401808060200182810382526026815260200180613fa16026913960400191505060405180910390fd5b613e2285613f34565b613e73576040805162461bcd60e51b815260206004820152601d60248201527f416464726573733a2063616c6c20746f206e6f6e2d636f6e7472616374000000604482015290519081900360640190fd5b60006060866001600160a01b031685876040518082805190602001908083835b60208310613eb25780518252601f199092019160209182019101613e93565b6001836020036101000a03801982511681845116808217855250505050505090500191505060006040518083038185875af1925050503d8060008114613f14576040519150601f19603f3d011682016040523d82523d6000602084013e613f19565b606091505b5091509150613f29828286613f3a565b979650505050505050565b3b151590565b60608315613f49575081612d20565b825115613f595782518084602001fd5b60405162461bcd60e51b8152602060048201818152845160248401528451859391928392604401919085019080838360008315611b50578181015183820152602001611b3856fe416464726573733a20696e73756666696369656e742062616c616e636520666f722063616c6c4f6e6c792074686520496e746567726174696f6e4d616e616765722063616e2063616c6c20746869732066756e6374696f6e5361666545524332303a204552433230206f7065726174696f6e20646964206e6f7420737563636565645361666545524332303a20617070726f76652066726f6d206e6f6e2d7a65726f20746f206e6f6e2d7a65726f20616c6c6f77616e63657061727365417373657473466f72416374696f6e3a205f73656c6563746f7220696e76616c6964a164736f6c634300060c000a","linkReferences":{}},"methodIdentifiers":{"CLAIM_REWARDS_SELECTOR()":"40da225d","LEND_AND_STAKE_SELECTOR()":"131461c0","LEND_SELECTOR()":"257cb1a3","REDEEM_SELECTOR()":"f7d882b5","STAKE_SELECTOR()":"3ffc1591","TAKE_MULTIPLE_ORDERS_SELECTOR()":"c32990a2","TAKE_ORDER_SELECTOR()":"863e5ad0","UNSTAKE_AND_REDEEM_SELECTOR()":"080456c1","UNSTAKE_SELECTOR()":"b23228cf","claimRewards(address,bytes,bytes)":"b9dfbacc","getCurveGaugeV2RewardsHandlerCrvToken()":"332d709f","getCurveGaugeV2RewardsHandlerMinter()":"f003eb85","getCurveLiquidityWrappedNativeAsset()":"12c9d386","getIntegrationManager()":"e7c45690","lend(address,bytes,bytes)":"099f7515","lendAndStake(address,bytes,bytes)":"29fa046e","parseAssetsForAction(address,bytes4,bytes)":"c54efee5","redeem(address,bytes,bytes)":"c29fa9dd","stake(address,bytes,bytes)":"fa7dd04d","unstake(address,bytes,bytes)":"68e30677","unstakeAndRedeem(address,bytes,bytes)":"8334eb99"},"id":214}