{"abi":[{"type":"constructor","inputs":[{"name":"_wrappedNativeToken","type":"address","internalType":"contract IWETH"},{"name":"_dataStore","type":"address","internalType":"contract IGMXV2DataStore"},{"name":"_chainlinkPriceFeedProvider","type":"address","internalType":"contract IGMXV2ChainlinkPriceFeedProvider"},{"name":"_reader","type":"address","internalType":"contract IGMXV2Reader"},{"name":"_roleStore","type":"address","internalType":"contract IGMXV2RoleStore"},{"name":"_callbackGasLimit","type":"uint256","internalType":"uint256"},{"name":"_referralCode","type":"bytes32","internalType":"bytes32"},{"name":"_referralStorageAddress","type":"address","internalType":"address"},{"name":"_uiFeeReceiverAddress","type":"address","internalType":"address"}],"stateMutability":"nonpayable"},{"type":"function","name":"afterOrderExecution","inputs":[{"name":"","type":"bytes32","internalType":"bytes32"},{"name":"_order","type":"tuple","internalType":"struct IGMXV2Order.Props","components":[{"name":"addresses","type":"tuple","internalType":"struct IGMXV2Order.Addresses","components":[{"name":"account","type":"address","internalType":"address"},{"name":"receiver","type":"address","internalType":"address"},{"name":"cancellationReceiver","type":"address","internalType":"address"},{"name":"callbackContract","type":"address","internalType":"address"},{"name":"uiFeeReceiver","type":"address","internalType":"address"},{"name":"market","type":"address","internalType":"address"},{"name":"initialCollateralToken","type":"address","internalType":"address"},{"name":"swapPath","type":"address[]","internalType":"address[]"}]},{"name":"numbers","type":"tuple","internalType":"struct IGMXV2Order.Numbers","components":[{"name":"orderType","type":"uint8","internalType":"enum IGMXV2Order.OrderType"},{"name":"decreasePositionSwapType","type":"uint8","internalType":"enum IGMXV2Order.DecreasePositionSwapType"},{"name":"sizeDeltaUsd","type":"uint256","internalType":"uint256"},{"name":"initialCollateralDeltaAmount","type":"uint256","internalType":"uint256"},{"name":"triggerPrice","type":"uint256","internalType":"uint256"},{"name":"acceptablePrice","type":"uint256","internalType":"uint256"},{"name":"executionFee","type":"uint256","internalType":"uint256"},{"name":"callbackGasLimit","type":"uint256","internalType":"uint256"},{"name":"minOutputAmount","type":"uint256","internalType":"uint256"},{"name":"updatedAtBlock","type":"uint256","internalType":"uint256"},{"name":"updatedAtTime","type":"uint256","internalType":"uint256"}]},{"name":"flags","type":"tuple","internalType":"struct IGMXV2Order.Flags","components":[{"name":"isLong","type":"bool","internalType":"bool"},{"name":"shouldUnwrapNativeToken","type":"bool","internalType":"bool"},{"name":"isFrozen","type":"bool","internalType":"bool"},{"name":"autoCancel","type":"bool","internalType":"bool"}]}]},{"name":"","type":"tuple","internalType":"struct IGMXV2Event.EventLogData","components":[{"name":"addressItems","type":"tuple","internalType":"struct IGMXV2Event.AddressItems","components":[{"name":"items","type":"tuple[]","internalType":"struct IGMXV2Event.AddressKeyValue[]","components":[{"name":"key","type":"string","internalType":"string"},{"name":"value","type":"address","internalType":"address"}]},{"name":"arrayItems","type":"tuple[]","internalType":"struct IGMXV2Event.AddressArrayKeyValue[]","components":[{"name":"key","type":"string","internalType":"string"},{"name":"value","type":"address[]","internalType":"address[]"}]}]},{"name":"uintItems","type":"tuple","internalType":"struct IGMXV2Event.UintItems","components":[{"name":"items","type":"tuple[]","internalType":"struct IGMXV2Event.UintKeyValue[]","components":[{"name":"key","type":"string","internalType":"string"},{"name":"value","type":"uint256","internalType":"uint256"}]},{"name":"arrayItems","type":"tuple[]","internalType":"struct IGMXV2Event.UintArrayKeyValue[]","components":[{"name":"key","type":"string","internalType":"string"},{"name":"value","type":"uint256[]","internalType":"uint256[]"}]}]},{"name":"intItems","type":"tuple","internalType":"struct IGMXV2Event.IntItems","components":[{"name":"items","type":"tuple[]","internalType":"struct IGMXV2Event.IntKeyValue[]","components":[{"name":"key","type":"string","internalType":"string"},{"name":"value","type":"int256","internalType":"int256"}]},{"name":"arrayItems","type":"tuple[]","internalType":"struct IGMXV2Event.IntArrayKeyValue[]","components":[{"name":"key","type":"string","internalType":"string"},{"name":"value","type":"int256[]","internalType":"int256[]"}]}]},{"name":"boolItems","type":"tuple","internalType":"struct IGMXV2Event.BoolItems","components":[{"name":"items","type":"tuple[]","internalType":"struct IGMXV2Event.BoolKeyValue[]","components":[{"name":"key","type":"string","internalType":"string"},{"name":"value","type":"bool","internalType":"bool"}]},{"name":"arrayItems","type":"tuple[]","internalType":"struct IGMXV2Event.BoolArrayKeyValue[]","components":[{"name":"key","type":"string","internalType":"string"},{"name":"value","type":"bool[]","internalType":"bool[]"}]}]},{"name":"bytes32Items","type":"tuple","internalType":"struct IGMXV2Event.Bytes32Items","components":[{"name":"items","type":"tuple[]","internalType":"struct IGMXV2Event.Bytes32KeyValue[]","components":[{"name":"key","type":"string","internalType":"string"},{"name":"value","type":"bytes32","internalType":"bytes32"}]},{"name":"arrayItems","type":"tuple[]","internalType":"struct IGMXV2Event.Bytes32ArrayKeyValue[]","components":[{"name":"key","type":"string","internalType":"string"},{"name":"value","type":"bytes32[]","internalType":"bytes32[]"}]}]},{"name":"bytesItems","type":"tuple","internalType":"struct IGMXV2Event.BytesItems","components":[{"name":"items","type":"tuple[]","internalType":"struct IGMXV2Event.BytesKeyValue[]","components":[{"name":"key","type":"string","internalType":"string"},{"name":"value","type":"bytes","internalType":"bytes"}]},{"name":"arrayItems","type":"tuple[]","internalType":"struct IGMXV2Event.BytesArrayKeyValue[]","components":[{"name":"key","type":"string","internalType":"string"},{"name":"value","type":"bytes[]","internalType":"bytes[]"}]}]},{"name":"stringItems","type":"tuple","internalType":"struct IGMXV2Event.StringItems","components":[{"name":"items","type":"tuple[]","internalType":"struct IGMXV2Event.StringKeyValue[]","components":[{"name":"key","type":"string","internalType":"string"},{"name":"value","type":"string","internalType":"string"}]},{"name":"arrayItems","type":"tuple[]","internalType":"struct IGMXV2Event.StringArrayKeyValue[]","components":[{"name":"key","type":"string","internalType":"string"},{"name":"value","type":"string[]","internalType":"string[]"}]}]}]}],"outputs":[],"stateMutability":"nonpayable"},{"type":"function","name":"getClaimableCollateralKeyToClaimableCollateralInfo","inputs":[{"name":"_key","type":"bytes32","internalType":"bytes32"}],"outputs":[{"name":"info_","type":"tuple","internalType":"struct GMXV2LeverageTradingPositionLibBase1.ClaimableCollateralInfo","components":[{"name":"token","type":"address","internalType":"address"},{"name":"market","type":"address","internalType":"address"},{"name":"timeKey","type":"uint256","internalType":"uint256"}]}],"stateMutability":"view"},{"type":"function","name":"getClaimableCollateralKeys","inputs":[],"outputs":[{"name":"claimableCollateralKeys_","type":"bytes32[]","internalType":"bytes32[]"}],"stateMutability":"view"},{"type":"function","name":"getDebtAssets","inputs":[],"outputs":[{"name":"assets_","type":"address[]","internalType":"address[]"},{"name":"amounts_","type":"uint256[]","internalType":"uint256[]"}],"stateMutability":"view"},{"type":"function","name":"getManagedAssets","inputs":[],"outputs":[{"name":"assets_","type":"address[]","internalType":"address[]"},{"name":"amounts_","type":"uint256[]","internalType":"uint256[]"}],"stateMutability":"view"},{"type":"function","name":"getMarketToIsCallbackContractSet","inputs":[{"name":"_market","type":"address","internalType":"address"}],"outputs":[{"name":"isCallbackContractSet_","type":"bool","internalType":"bool"}],"stateMutability":"view"},{"type":"function","name":"getTrackedAssets","inputs":[],"outputs":[{"name":"trackedAssets_","type":"address[]","internalType":"address[]"}],"stateMutability":"view"},{"type":"function","name":"getTrackedMarkets","inputs":[],"outputs":[{"name":"trackedMarkets_","type":"address[]","internalType":"address[]"}],"stateMutability":"view"},{"type":"function","name":"init","inputs":[{"name":"","type":"bytes","internalType":"bytes"}],"outputs":[],"stateMutability":"nonpayable"},{"type":"function","name":"receiveCallFromVault","inputs":[{"name":"_actionData","type":"bytes","internalType":"bytes"}],"outputs":[],"stateMutability":"nonpayable"},{"type":"event","name":"CallbackContractSet","inputs":[{"name":"market","type":"address","indexed":false,"internalType":"address"}],"anonymous":false},{"type":"event","name":"ClaimableCollateralAdded","inputs":[{"name":"claimableCollateralKey","type":"bytes32","indexed":false,"internalType":"bytes32"},{"name":"token","type":"address","indexed":false,"internalType":"address"},{"name":"market","type":"address","indexed":false,"internalType":"address"},{"name":"timeKey","type":"uint256","indexed":false,"internalType":"uint256"}],"anonymous":false},{"type":"event","name":"ClaimableCollateralRemoved","inputs":[{"name":"claimableCollateralKey","type":"bytes32","indexed":false,"internalType":"bytes32"}],"anonymous":false},{"type":"event","name":"TrackedAssetAdded","inputs":[{"name":"asset","type":"address","indexed":false,"internalType":"address"}],"anonymous":false},{"type":"event","name":"TrackedAssetsCleared","inputs":[],"anonymous":false},{"type":"event","name":"TrackedMarketAdded","inputs":[{"name":"market","type":"address","indexed":false,"internalType":"address"}],"anonymous":false},{"type":"event","name":"TrackedMarketRemoved","inputs":[{"name":"market","type":"address","indexed":false,"internalType":"address"}],"anonymous":false},{"type":"error","name":"InvalidActionId","inputs":[]},{"type":"error","name":"InvalidCallbackAccount","inputs":[]},{"type":"error","name":"InvalidHandler","inputs":[]},{"type":"error","name":"InvalidOrderType","inputs":[{"name":"orderType","type":"uint8","internalType":"enum IGMXV2Order.OrderType"}]}],"bytecode":{"object":"0x6101a06040523480156200001257600080fd5b50604051620061a2380380620061a2833981016040819052620000359162000095565b6001600160a01b039889166101805296881660a05294871660c05292861660e052610100929092529184166101205291831661016052608091909152166101405262000155565b6001600160a01b03811681146200009257600080fd5b50565b60008060008060008060008060006101208a8c031215620000b557600080fd5b8951620000c2816200007c565b60208b0151909950620000d5816200007c565b60408b0151909850620000e8816200007c565b60608b0151909750620000fb816200007c565b60808b01519096506200010e816200007c565b8095505060a08a0151935060c08a0151925060e08a015162000130816200007c565b6101008b015190925062000144816200007c565b809150509295985092959850929598565b60805160a05160c05160e0516101005161012051610140516101605161018051615f42620002606000396000818161072d0152818161084901528181611b140152818161285a015281816128b0015261298f0152600081816104b80152612d500152600061182c0152600061049201526000612ecb01526000818161044301528181610efd01528181610fda015281816113330152611c480152600061109101526000818161020901528181610470015281816108f5015281816109ae01528181610b8c01528181610ebd01528181610faa015281816112f30152818161144f0152818161193101528181611c15015281816121f3015261228201526000612e350152615f426000f3fe608060405234801561001057600080fd5b506004361061009e5760003560e01c80639e61105e116100665780639e61105e146101b5578063c4b97370146101ca578063e5c23a97146101d2578063ecd658b4146101e5578063eed1a37a146101ed57600080fd5b8063449efa50146100a35780634ddf47d4146100e457806380daddb8146100f75780638b9e55dc1461010d5780639231b0fc14610120575b600080fd5b6100cf6100b13660046136e3565b6001600160a01b031660009081526020819052604090205460ff1690565b60405190151581526020015b60405180910390f35b6100f56100f23660046138dc565b50565b005b6100ff610202565b6040516100db929190613984565b6100f561011b366004614a85565b610b53565b61018561012e366004614beb565b60408051606080820183526000808352602080840182905292840181905293845260048252928290208251938401835280546001600160a01b03908116855260018201541691840191909152600201549082015290565b6040805182516001600160a01b0390811682526020808501519091169082015291810151908201526060016100db565b6101bd610cf1565b6040516100db9190614c04565b6101bd610d53565b6100f56101e03660046138dc565b610db3565b6060806100ff565b6101f5610e4f565b6040516100db9190614c17565b60608060007f00000000000000000000000000000000000000000000000000000000000000006001600160a01b031663f069052a60405160200161026f906020808252601590820152741050d0d3d5539517d413d4d2551253d397d31254d5605a1b604082015260600190565b60408051601f19818403018152828252805160209182012090830152309082015260600160408051601f198184030181529082905280516020909101206001600160e01b031960e084901b1682526004820152600060248201526000196044820152606401600060405180830381865afa1580156102f1573d6000803e3d6000fd5b505050506040513d6000823e601f3d908101601f191682016040526103199190810190614c2a565b90506000610325610ea6565b9050600081516001600160401b0381111561034257610342613700565b60405190808252806020026020018201604052801561037b57816020015b610368613562565b8152602001906001900390816103605790505b50905060005b81518110156104285760006103b68483815181106103a1576103a1614caf565b60200260200101516000015160200151610f73565b905060405180606001604052806103d0836020015161104b565b81526020016103e2836040015161104b565b81526020016103f4836060015161104b565b81525083838151811061040957610409614caf565b602002602001018190525050808061042090614cdb565b915050610381565b50604051631d9d3c1960e31b81526000906001600160a01b037f0000000000000000000000000000000000000000000000000000000000000000169063ece9e0c8906104e0907f0000000000000000000000000000000000000000000000000000000000000000907f000000000000000000000000000000000000000000000000000000000000000090899088907f000000000000000000000000000000000000000000000000000000000000000090600401614cf4565b600060405180830381865afa1580156104fd573d6000803e3d6000fd5b505050506040513d6000823e601f3d908101601f191682016040526105259190810190615109565b905060005b815181101561065f57600082828151811061054757610547614caf565b60200260200101519050600081600001516020015160400151905081604001516020015160001461059f578160200151608001516020015182604001516020015161059291906152e4565b61059c9082615306565b90505b60008260a0015113156105d957816020015160800151602001518260a001516105c891906152e4565b6105d29082615306565b9050610622565b6000826020015160800151600001518360a001516105f690615319565b61060091906152e4565b90508181101561061b576106148183615335565b9150610620565b600091505b505b801561064a57610632888261111d565b82515160400151909850610647908a906111ec565b98505b5050808061065790614cdb565b91505061052a565b50600061066a6112dc565b90506000805b825181101561072057600083828151811061068d5761068d614caf565b60200260200101519050600260078111156106aa576106aa615348565b60208201515160078111156106c1576106c1615348565b036106f757805160c001516106d7908b906111ec565b99506106f48160200151606001518a61111d90919063ffffffff16565b98505b602081015160c0015161070a9084615306565b925050808061071890614cdb565b915050610670565b50801561076057610751887f00000000000000000000000000000000000000000000000000000000000000006111ec565b975061075d878261111d565b96505b60005b60015481101561082f5760006001828154811061078257610782614caf565b60009182526020822001546040516370a0823160e01b81523060048201526001600160a01b03909116925082906370a0823190602401602060405180830381865afa1580156107d5573d6000803e3d6000fd5b505050506040513d601f19601f820116820180604052508101906107f9919061535e565b9050801561081a5761080b8b836111ec565b9a506108178a8261111d565b99505b5050808061082790614cdb565b915050610763565b5047801561087057610841888261111d565b975061086d897f00000000000000000000000000000000000000000000000000000000000000006111ec565b98505b60005b600354811015610a495760006003828154811061089257610892614caf565b600091825260208083209091015480835260048252604092839020835160608101855281546001600160a01b039081168083526001840154909116948201949094526002909101549381019390935292506108ee908d906111ec565b9b50610a327f00000000000000000000000000000000000000000000000000000000000000006001600160a01b031663bd02d0f56109398460200151856000015186604001516113a4565b6040518263ffffffff1660e01b815260040161095791815260200190565b602060405180830381865afa158015610974573d6000803e3d6000fd5b505050506040513d601f19601f82011682018060405250810190610998919061535e565b60405163bd02d0f560e01b8152600481018590527f00000000000000000000000000000000000000000000000000000000000000006001600160a01b03169063bd02d0f590602401602060405180830381865afa1580156109fd573d6000803e3d6000fd5b505050506040513d601f19601f82011682018060405250810190610a21919061535e565b610a2b9190615335565b8c9061111d565b9a5050508080610a4190614cdb565b915050610873565b5060005b600254811015610b39576000610a8960028381548110610a6f57610a6f614caf565b6000918252602090912001546001600160a01b0316610f73565b90506000610a9f8260000151836040015161144b565b90508015610ac6576040820151610ab7908d906111ec565b9b50610ac38b8261111d565b9a505b81606001516001600160a01b031682604001516001600160a01b031614610b24576000610afb8360000151846060015161144b565b90508015610b22576060830151610b13908e906111ec565b9c50610b1f8c8261111d565b9b505b505b50508080610b3190614cdb565b915050610a4d565b50610b448989611577565b98509850505050505050509091565b610b5c3361182a565b8151516001600160a01b0381163014610b8857604051631b96384360e21b815260040160405180910390fd5b60007f00000000000000000000000000000000000000000000000000000000000000006001600160a01b031663bd02d0f5604051602001610c049060208082526021908201527f434c41494d41424c455f434f4c4c41544552414c5f54494d455f44495649534f6040820152602960f91b606082015260800190565b604051602081830303815290604052805190602001206040518263ffffffff1660e01b8152600401610c3891815260200190565b602060405180830381865afa158015610c55573d6000803e3d6000fd5b505050506040513d601f19601f82011682018060405250810190610c79919061535e565b610c8390426152e4565b90506000610c98856000015160a00151610f73565b9050610cb1856000015160a0015182604001518461192d565b80606001516001600160a01b031681604001516001600160a01b031614610ce957610ce9856000015160a0015182606001518461192d565b505050505050565b60606002805480602002602001604051908101604052809291908181526020018280548015610d4957602002820191906000526020600020905b81546001600160a01b03168152600190910190602001808311610d2b575b5050505050905090565b60606001805480602002602001604051908101604052809291908181526020018280548015610d49576020028201919060005260206000209081546001600160a01b03168152600190910190602001808311610d2b575050505050905090565b60008082806020019051810190610dca919061539b565b909250905081610de257610ddd816119e1565b505050565b60018203610df357610ddd81611ad1565b60028203610e0457610ddd81611bd7565b60038203610e1557610ddd81611d67565b60048203610e2657610ddd81612046565b60058203610e3657610ddd612385565b60405163703469d160e11b815260040160405180910390fd5b60606003805480602002602001604051908101604052809291908181526020018280548015610d4957602002820191906000526020600020905b815481526020019060010190808311610e89575050505050905090565b604051633be7d8b160e11b81526001600160a01b037f0000000000000000000000000000000000000000000000000000000000000000811660048301523060248301526000604483015260001960648301526060917f0000000000000000000000000000000000000000000000000000000000000000909116906377cfb16290608401600060405180830381865afa158015610f46573d6000803e3d6000fd5b505050506040513d6000823e601f3d908101601f19168201604052610f6e919081019061541d565b905090565b604080516080810182526000808252602082018190528183018190526060820152905163714af34b60e01b81526001600160a01b037f00000000000000000000000000000000000000000000000000000000000000008116600483015283811660248301527f0000000000000000000000000000000000000000000000000000000000000000169063714af34b90604401608060405180830381865afa158015611021573d6000803e3d6000fd5b505050506040513d601f19601f8201168201806040525081019061104591906154ab565b92915050565b60408051808201909152600080825260208201526040805163377bbdaf60e01b81526001600160a01b0384811660048301526024820192909252600060448201819052917f0000000000000000000000000000000000000000000000000000000000000000169063377bbdaf9060640160a060405180830381865afa1580156110d8573d6000803e3d6000fd5b505050506040513d601f19601f820116820180604052508101906110fc9190615512565b60408051808201825260208084015182529190920151908201529392505050565b60608251600161112d9190615306565b6001600160401b0381111561114457611144613700565b60405190808252806020026020018201604052801561116d578160200160208202803683370190505b50905060005b83518110156111c55783818151811061118e5761118e614caf565b60200260200101518282815181106111a8576111a8614caf565b6020908102919091010152806111bd81614cdb565b915050611173565b5081818451815181106111da576111da614caf565b60200260200101818152505092915050565b6060825160016111fc9190615306565b6001600160401b0381111561121357611213613700565b60405190808252806020026020018201604052801561123c578160200160208202803683370190505b50905060005b83518110156112a15783818151811061125d5761125d614caf565b602002602001015182828151811061127757611277614caf565b6001600160a01b03909216602092830291909101909101528061129981614cdb565b915050611242565b5081818451815181106112b6576112b6614caf565b60200260200101906001600160a01b031690816001600160a01b03168152505092915050565b6040516342a6f8d360e01b81526001600160a01b037f0000000000000000000000000000000000000000000000000000000000000000811660048301523060248301526000604483015260001960648301526060917f0000000000000000000000000000000000000000000000000000000000000000909116906342a6f8d390608401600060405180830381865afa15801561137c573d6000803e3d6000fd5b505050506040513d6000823e601f3d908101601f19168201604052610f6e9190810190615811565b60006040516020016113e79060208082526019908201527f434c41494d45445f434f4c4c41544552414c5f414d4f554e5400000000000000604082015260600190565b60408051601f198184030181528282528051602091820120908301526001600160a01b038087169183019190915284166060820152608081018390523060a082015260c0016040516020818303038152906040528051906020012090509392505050565b60007f00000000000000000000000000000000000000000000000000000000000000006001600160a01b031663bd02d0f56040516020016114bd9060208082526018908201527f434c41494d41424c455f46554e44494e475f414d4f554e540000000000000000604082015260600190565b60408051601f198184030181528282528051602091820120908301526001600160a01b03808816918301919091528516606082015230608082015260a001604051602081830303815290604052805190602001206040518263ffffffff1660e01b815260040161152f91815260200190565b602060405180830381865afa15801561154c573d6000803e3d6000fd5b505050506040513d601f19601f82011682018060405250810190611570919061535e565b9392505050565b606080835160000315611823576001805b855181101561162a576000805b82811015611603578781815181106115af576115af614caf565b60200260200101516001600160a01b03168884815181106115d2576115d2614caf565b60200260200101516001600160a01b0316036115f15760019150611603565b806115fb81614cdb565b915050611595565b5080611617578261161381614cdb565b9350505b508061162281614cdb565b915050611588565b50806001600160401b0381111561164357611643613700565b60405190808252806020026020018201604052801561166c578160200160208202803683370190505b509250806001600160401b0381111561168757611687613700565b6040519080825280602002602001820160405280156116b0578160200160208202803683370190505b5091506000805b865181101561181f576000805b83811015611775578681815181106116de576116de614caf565b60200260200101516001600160a01b031689848151811061170157611701614caf565b60200260200101516001600160a01b031603611763576001915087838151811061172d5761172d614caf565b602002602001015186828151811061174757611747614caf565b6020026020010181815161175b9190615306565b905250611775565b8061176d81614cdb565b9150506116c4565b508061180c5787828151811061178d5761178d614caf565b60200260200101518684815181106117a7576117a7614caf565b60200260200101906001600160a01b031690816001600160a01b0316815250508682815181106117d9576117d9614caf565b60200260200101518584815181106117f3576117f3614caf565b60209081029190910101528261180881614cdb565b9350505b508061181781614cdb565b9150506116b7565b5050505b9250929050565b7f00000000000000000000000000000000000000000000000000000000000000006001600160a01b031663ac4ab3fb82604051602001611888906020808252600a908201526921a7a72a2927a62622a960b11b604082015260600190565b604051602081830303815290604052805190602001206040518363ffffffff1660e01b81526004016118cf9291906001600160a01b03929092168252602082015260400190565b602060405180830381865afa1580156118ec573d6000803e3d6000fd5b505050506040513d601f19601f8201168201806040525081019061191091906158c1565b6100f25760405163d8f59fa560e01b815260040160405180910390fd5b60007f00000000000000000000000000000000000000000000000000000000000000006001600160a01b031663bd02d0f56119698686866125de565b6040518263ffffffff1660e01b815260040161198791815260200190565b602060405180830381865afa1580156119a4573d6000803e3d6000fd5b505050506040513d601f19601f820116820180604052508101906119c8919061535e565b905080156119db576119db848484612621565b50505050565b6000818060200190518101906119f791906158de565b9050611a068160a0015161182a565b600281604001516007811115611a1e57611a1e615348565b03611a425760a0810151815151611a35919061273f565b611a3e81612819565b5050565b600481604001516007811115611a5a57611a5a615348565b1480611a7b5750600681604001516007811115611a7957611a79615348565b145b80611a9b5750600581604001516007811115611a9957611a99615348565b145b15611aa957611a3e8161296c565b806040015160405163795e0ddb60e11b8152600401611ac891906159bd565b60405180910390fd5b600081806020019051810190611ae791906159cb565b90508060c00151600014611b3b57611b3b611b058260e00151612a31565b60c08301516001600160a01b037f0000000000000000000000000000000000000000000000000000000000000000169190612af6565b60e0810151815160208301516040808501516060860151608087015160a08801519351637c15113960e11b815260048101969096526024860194909452604485019190915260648401526084830191909152151560a48201526001600160a01b039091169063f82a22729060c401600060405180830381600087803b158015611bc357600080fd5b505af1158015610ce9573d6000803e3d6000fd5b600081806020019051810190611bed9190615a49565b9050611bfc816020015161182a565b80516040516324b28db560e11b81526001600160a01b037f00000000000000000000000000000000000000000000000000000000000000008116600483015260248201929092526000917f000000000000000000000000000000000000000000000000000000000000000016906349651b6a90604401600060405180830381865afa158015611c8f573d6000803e3d6000fd5b505050506040513d6000823e601f3d908101601f19168201604052611cb79190810190615a81565b60208301518351604051637489ec2360e01b815260048101919091529192506001600160a01b031690637489ec2390602401600060405180830381600087803b158015611d0357600080fd5b505af1158015611d17573d6000803e3d6000fd5b50505050611d23612b01565b60026020820151516007811115611d3c57611d3c615348565b03610ddd57602081015160600151815160c00151610ddd916001600160a01b03909116903390612af6565b600081806020019051810190611d7d9190615ab5565b9050611d8c816040015161182a565b60408082015182516020840151925163c41b1ab360e01b81526001600160a01b039092169263c41b1ab392611dc79291903390600401615b5c565b6000604051808303816000875af1158015611de6573d6000803e3d6000fd5b505050506040513d6000823e601f3d908101601f19168201604052611e0e9190810190615bf5565b506000611e19610ea6565b9050606060005b8251811015611e7157611e5d838281518110611e3e57611e3e614caf565b6020026020010151600001516020015183612b0d90919063ffffffff16565b915080611e6981614cdb565b915050611e20565b506000611e7c6112dc565b905060005b8151811015611efe576000828281518110611e9e57611e9e614caf565b6020026020010151905060026007811115611ebb57611ebb615348565b6020820151516007811115611ed257611ed2615348565b03611eeb57805160a00151611ee8908590612b0d565b93505b5080611ef681614cdb565b915050611e81565b5060005b845151811015610ce957600085600001518281518110611f2457611f24614caf565b60200260200101519050611f418185612b2f90919063ffffffff16565b80611fb65750611fb4816002805480602002602001604051908101604052809291908181526020018280548015611fa157602002820191906000526020600020905b81546001600160a01b03168152600190910190602001808311611f83575b5050505050612b2f90919063ffffffff16565b155b15611fc15750612034565b6000611fcc82610f73565b905080606001516001600160a01b031681604001516001600160a01b03161461200257611ffd82826060015161144b565b612005565b60005b6120178260000151836040015161144b565b6120219190615306565b6000036120315761203182612b94565b50505b8061203e81614cdb565b915050611f02565b60008180602001905181019061205c9190615c29565b905061206b816060015161182a565b80606001516001600160a01b031663e9249b57826000015183602001518460400151336040518563ffffffff1660e01b81526004016120ad9493929190615cf4565b6000604051808303816000875af11580156120cc573d6000803e3d6000fd5b505050506040513d6000823e601f3d908101601f191682016040526120f49190810190615bf5565b5060005b816040015151811015610ddd5760006121698360000151838151811061212057612120614caf565b60200260200101518460200151848151811061213e5761213e614caf565b60200260200101518560400151858151811061215c5761215c614caf565b60200260200101516125de565b905060006121cf8460000151848151811061218657612186614caf565b6020026020010151856020015185815181106121a4576121a4614caf565b6020026020010151866040015186815181106121c2576121c2614caf565b60200260200101516113a4565b60405163bd02d0f560e01b8152600481018490529091506000906001600160a01b037f0000000000000000000000000000000000000000000000000000000000000000169063bd02d0f590602401602060405180830381865afa15801561223a573d6000803e3d6000fd5b505050506040513d601f19601f8201168201806040525081019061225e919061535e565b60405163bd02d0f560e01b8152600481018490529091506000906001600160a01b037f0000000000000000000000000000000000000000000000000000000000000000169063bd02d0f590602401602060405180830381865afa1580156122c9573d6000803e3d6000fd5b505050506040513d601f19601f820116820180604052508101906122ed919061535e565b905080821161236e57600084815260046020526040812080546001600160a01b031990811682556001820180549091169055600201819055612330600386612be0565b9050801561236c576040518581527f8ea559c5d00245baf00dbebc518ca4180a1e99c59aa2bfddb7395b1db7cfd7d89060200160405180910390a15b505b50505050808061237d90614cdb565b9150506120f8565b600060018054806020026020016040519081016040528092919081815260200182805480156123dd57602002820191906000526020600020905b81546001600160a01b031681526001909101906020018083116123bf575b50505050509050600160006123f291906135c9565b6040517fbe68b86a2877767aebbbd147688052686e8794545ed4f4746ac608e5da81f93f90600090a16000612425610ea6565b905060005b815181101561248357600082828151811061244757612447614caf565b602002602001015190508060200151604001516000146124705780516020015161247090612cb3565b508061247b81614cdb565b91505061242a565b50600061248e6112dc565b905060005b815181101561250b5760008282815181106124b0576124b0614caf565b60200260200101519050600260078111156124cd576124cd615348565b60208201515160078111156124e4576124e4615348565b036124f857805160a001516124f890612cb3565b508061250381614cdb565b915050612493565b50612514612b01565b60005b83518110156119db57600084828151811061253457612534614caf565b60209081029190910101516040516370a0823160e01b81523060048201529091506000906001600160a01b038316906370a0823190602401602060405180830381865afa158015612589573d6000803e3d6000fd5b505050506040513d601f19601f820116820180604052508101906125ad919061535e565b905080156125c9576125c96001600160a01b0383163383612af6565b505080806125d690614cdb565b915050612517565b60006040516020016113e7906020808252601b908201527f434c41494d41424c455f434f4c4c41544552414c5f414d4f554e540000000000604082015260600190565b600061262e8484846125de565b6000818152600460205260409020600101549091506001600160a01b0316156126575750505050565b6003805460018082019092557fc2575a0e9e593c00f959f8c92f12db2869c3395a3b0502d05e2516446f71f85b0182905560408051606080820183526001600160a01b0387811680845289821660208086018281528688018b815260008b815260048452899020975188546001600160a01b031990811691881691909117895591519988018054909216999095169890981790975591516002909401939093558351868152948501929092529183015281018390527fa8016e9e1d202cb1650b45eb73529034cf6bb633ae4c73beda292a3f77a89d409060800160405180910390a150505050565b6001600160a01b03811660009081526020819052604090205460ff16611a3e5760405163039fd84f60e11b81526001600160a01b03828116600483015230602483015283169063073fb09e90604401600060405180830381600087803b1580156127a857600080fd5b505af11580156127bc573d6000803e3d6000fd5b505050506001600160a01b03811660008181526020818152604091829020805460ff1916600117905590519182527f669111c08006053f49c4c13e8480526e6a8be55408e4e6862865853a2424f50e910160405180910390a15050565b60006128288260a00151612a31565b9050612858818360200151602001518460000151602001516001600160a01b0316612af69092919063ffffffff16565b7f00000000000000000000000000000000000000000000000000000000000000006001600160a01b03168260000151602001516001600160a01b0316146128d8576020820151608001516128d8906001600160a01b037f000000000000000000000000000000000000000000000000000000000000000016908390612af6565b8160a001516001600160a01b031663083cfcee6128f484612cfb565b6040518263ffffffff1660e01b81526004016129109190615deb565b6020604051808303816000875af115801561292f573d6000803e3d6000fd5b505050506040513d601f19601f82011682018060405250810190612953919061535e565b5081515161296090612cb3565b815151611a3e90612ef5565b6129b661297c8260a00151612a31565b6020830151608001516001600160a01b037f0000000000000000000000000000000000000000000000000000000000000000169190612af6565b8060a001516001600160a01b031663083cfcee6129d283612cfb565b6040518263ffffffff1660e01b81526004016129ee9190615deb565b6020604051808303816000875af1158015612a0d573d6000803e3d6000fd5b505050506040513d601f19601f82011682018060405250810190611a3e919061535e565b6000816001600160a01b031663b58483056040518163ffffffff1660e01b8152600401602060405180830381865afa158015612a71573d6000803e3d6000fd5b505050506040513d601f19601f82011682018060405250810190612a959190615ec0565b6001600160a01b03166393845e466040518163ffffffff1660e01b8152600401602060405180830381865afa158015612ad2573d6000803e3d6000fd5b505050506040513d601f19601f820116820180604052508101906110459190615ec0565b610ddd838383612f82565b612b0b3347612fd4565b565b6060612b198383612b2f565b15612b25575081611045565b61157083836111ec565b6000805b8351811015612b8a57838181518110612b4e57612b4e614caf565b60200260200101516001600160a01b0316836001600160a01b031603612b78576001915050611045565b80612b8281614cdb565b915050612b33565b5060009392505050565b612b9f6002826130ed565b506040516001600160a01b03821681527fb2b8057bebef48929f4c98a8496e9d77df569681c8b5cbaaab4e5961a4aeb091906020015b60405180910390a150565b8154600090815b81811015612cab5783858281548110612c0257612c02614caf565b906000526020600020015403612c9957612c1d600183615335565b811015612c6a5784612c30600184615335565b81548110612c4057612c40614caf565b9060005260206000200154858281548110612c5d57612c5d614caf565b6000918252602090912001555b84805480612c7a57612c7a615edd565b6001900381819060005260206000200160009055905560019250612cab565b80612ca381614cdb565b915050612be7565b505092915050565b6000612cbe82610f73565b9050612ccd816040015161320c565b80606001516001600160a01b031681604001516001600160a01b031614611a3e57611a3e816060015161320c565b612d036135e7565b6040805160e0810182523080825260208201526000918101600285604001516007811115612d3357612d33615348565b14612d3e5730612d41565b60005b6001600160a01b0390811682527f0000000000000000000000000000000000000000000000000000000000000000811660208084019190915286515182166040840152865101511660608201526080016000604051908082528060200260200182016040528015612dbc578160200160208202803683370190505b5090526040805161010081018252828152815160e0810183526020878101805151835280518201518284015280518501518386015280516060908101519084015251608090810151908301529287015193945090929183019160a08201906002906007811115612e2e57612e2e615348565b14612e59577f0000000000000000000000000000000000000000000000000000000000000000612e5c565b60005b8152602001866020015160a00151815250815260200184604001516007811115612e8857612e88615348565b815260200184606001516002811115612ea357612ea3615348565b81526020018460800151151581526020016000151581526020018460c00151151581526020017f0000000000000000000000000000000000000000000000000000000000000000815250915050919050565b612f00600282613298565b6100f257600280546001810182556000919091527f405787fa12a823e0f2b7631cc41b3ba8828b3321ca811111fa75cd3aa3bb5ace0180546001600160a01b0319166001600160a01b0383169081179091556040519081527feca989eaf67bd5b0fd2079414a3cacc14cd3df5765a27bc1efe2c3220fb6deb890602001612bd5565b604080516001600160a01b038416602482015260448082018490528251808303909101815260649091019091526020810180516001600160e01b031663a9059cbb60e01b179052610ddd908490613300565b804710156130245760405162461bcd60e51b815260206004820152601d60248201527f416464726573733a20696e73756666696369656e742062616c616e63650000006044820152606401611ac8565b6000826001600160a01b03168260405160006040518083038185875af1925050503d8060008114613071576040519150601f19603f3d011682016040523d82523d6000602084013e613076565b606091505b5050905080610ddd5760405162461bcd60e51b815260206004820152603a60248201527f416464726573733a20756e61626c6520746f2073656e642076616c75652c207260448201527f6563697069656e74206d617920686176652072657665727465640000000000006064820152608401611ac8565b8154600090815b81811015612cab57836001600160a01b031685828154811061311857613118614caf565b6000918252602090912001546001600160a01b0316036131fa5761313d600183615335565b8110156131bf5784613150600184615335565b8154811061316057613160614caf565b9060005260206000200160009054906101000a90046001600160a01b031685828154811061319057613190614caf565b9060005260206000200160006101000a8154816001600160a01b0302191690836001600160a01b031602179055505b848054806131cf576131cf615edd565b600082815260209020810160001990810180546001600160a01b031916905501905560019250612cab565b8061320481614cdb565b9150506130f4565b613217600182613298565b6100f2576001805480820182556000919091527fb10e2d527612073b26eecdfd717e6a320cf44b4afac2b0732d9fcbe2b7fa0cf60180546001600160a01b0319166001600160a01b0383169081179091556040519081527fa0d2bfad19dc0c6970d2a2fcff65458a6d7c4fa3b6d904f44961b2c744bdf59190602001612bd5565b8154600090815b818110156132f5578481815481106132b9576132b9614caf565b6000918252602090912001546001600160a01b03908116908516036132e357600192505050611045565b806132ed81614cdb565b91505061329f565b506000949350505050565b6000613355826040518060400160405280602081526020017f5361666545524332303a206c6f772d6c6576656c2063616c6c206661696c6564815250856001600160a01b03166133d29092919063ffffffff16565b805190915015610ddd578080602001905181019061337391906158c1565b610ddd5760405162461bcd60e51b815260206004820152602a60248201527f5361666545524332303a204552433230206f7065726174696f6e20646964206e6044820152691bdd081cdd58d8d9595960b21b6064820152608401611ac8565b60606133e184846000856133e9565b949350505050565b60608247101561344a5760405162461bcd60e51b815260206004820152602660248201527f416464726573733a20696e73756666696369656e742062616c616e636520666f6044820152651c8818d85b1b60d21b6064820152608401611ac8565b600080866001600160a01b031685876040516134669190615ef3565b60006040518083038185875af1925050503d80600081146134a3576040519150601f19603f3d011682016040523d82523d6000602084013e6134a8565b606091505b50915091506134b9878383876134c4565b979650505050505050565b6060831561353357825160000361352c576001600160a01b0385163b61352c5760405162461bcd60e51b815260206004820152601d60248201527f416464726573733a2063616c6c20746f206e6f6e2d636f6e74726163740000006044820152606401611ac8565b50816133e1565b6133e183838151156135485781518083602001fd5b8060405162461bcd60e51b8152600401611ac89190615f0f565b6040805160a081019091526000606082018181526080830191909152819081526020016135a2604051806040016040528060008152602001600081525090565b81526020016135c4604051806040016040528060008152602001600081525090565b905290565b50805460008255906000526020600020908101906100f291906136a5565b604080516101e081019091526000610100820181815261012083018290526101408301829052610160830182905261018083018290526101a083019190915260606101c0830152819081526020016136756040518060e00160405280600081526020016000815260200160008152602001600081526020016000815260200160008152602001600081525090565b81526020016000815260200160008152600060208201819052604082018190526060820181905260809091015290565b5b808211156136ba57600081556001016136a6565b5090565b6001600160a01b03811681146100f257600080fd5b80356136de816136be565b919050565b6000602082840312156136f557600080fd5b8135611570816136be565b634e487b7160e01b600052604160045260246000fd5b60405161016081016001600160401b038111828210171561373957613739613700565b60405290565b604051608081016001600160401b038111828210171561373957613739613700565b604080519081016001600160401b038111828210171561373957613739613700565b60405160e081016001600160401b038111828210171561373957613739613700565b604051606081016001600160401b038111828210171561373957613739613700565b60405161010081016001600160401b038111828210171561373957613739613700565b60405160c081016001600160401b038111828210171561373957613739613700565b6040516101c081016001600160401b038111828210171561373957613739613700565b604051601f8201601f191681016001600160401b038111828210171561385757613857613700565b604052919050565b60006001600160401b0382111561387857613878613700565b50601f01601f191660200190565b600082601f83011261389757600080fd5b81356138aa6138a58261385f565b61382f565b8181528460208386010111156138bf57600080fd5b816020850160208301376000918101602001919091529392505050565b6000602082840312156138ee57600080fd5b81356001600160401b0381111561390457600080fd5b6133e184828501613886565b600081518084526020808501945080840160005b838110156139495781516001600160a01b031687529582019590820190600101613924565b509495945050505050565b600081518084526020808501945080840160005b8381101561394957815187529582019590820190600101613968565b6040815260006139976040830185613910565b82810360208401526139a98185613954565b95945050505050565b60006001600160401b038211156139cb576139cb613700565b5060051b60200190565b600082601f8301126139e657600080fd5b813560206139f66138a5836139b2565b82815260059290921b84018101918181019086841115613a1557600080fd5b8286015b84811015613a39578035613a2c816136be565b8352918301918301613a19565b509695505050505050565b600881106100f257600080fd5b80356136de81613a44565b600381106100f257600080fd5b80356136de81613a5c565b60006101608284031215613a8757600080fd5b613a8f613716565b9050613a9a82613a51565b8152613aa860208301613a69565b602082015260408201356040820152606082013560608201526080820135608082015260a082013560a082015260c082013560c082015260e082013560e082015261010080830135818301525061012080830135818301525061014080830135818301525092915050565b80151581146100f257600080fd5b600060808284031215613b3357600080fd5b613b3b61373f565b90508135613b4881613b13565b81526020820135613b5881613b13565b60208201526040820135613b6b81613b13565b60408201526060820135613b7e81613b13565b606082015292915050565b600082601f830112613b9a57600080fd5b81356020613baa6138a5836139b2565b82815260059290921b84018101918181019086841115613bc957600080fd5b8286015b84811015613a395780356001600160401b0380821115613bed5760008081fd5b908801906040828b03601f1901811315613c075760008081fd5b613c0f613761565b8784013583811115613c215760008081fd5b613c2f8d8a83880101613886565b825250908301359082821115613c455760008081fd5b613c538c89848701016139d5565b818901528652505050918301918301613bcd565b60006040808385031215613c7a57600080fd5b613c82613761565b915082356001600160401b0380821115613c9b57600080fd5b818501915085601f830112613caf57600080fd5b81356020613cbf6138a5836139b2565b82815260059290921b84018101918181019089841115613cde57600080fd5b8286015b84811015613d5d57803586811115613cfa5760008081fd5b8701808c03601f1901891315613d105760008081fd5b613d18613761565b8582013588811115613d2a5760008081fd5b613d388e8883860101613886565b8252509089013590613d49826136be565b808601919091528352918301918301613ce2565b5087525086810135945082851115613d7457600080fd5b613d8088868901613b89565b81870152505050505092915050565b600082601f830112613da057600080fd5b81356020613db06138a5836139b2565b828152600592831b8501820192828201919087851115613dcf57600080fd5b8387015b85811015613ec45780356001600160401b0380821115613df35760008081fd5b908901906040828c03601f1901811315613e0d5760008081fd5b613e15613761565b8884013583811115613e275760008081fd5b613e358e8b83880101613886565b8252508184013583811115613e4a5760008081fd5b8085019450508c603f850112613e6257600092508283fd5b888401359250613e746138a5846139b2565b83815292861b8401820192898101908e851115613e915760008081fd5b948301945b84861015613eaf5785358252948a0194908a0190613e96565b828b0152508752505050928401928401613dd3565b5090979650505050505050565b60006040808385031215613ee457600080fd5b613eec613761565b915082356001600160401b0380821115613f0557600080fd5b818501915085601f830112613f1957600080fd5b81356020613f296138a5836139b2565b82815260059290921b84018101918181019089841115613f4857600080fd5b8286015b84811015613fba57803586811115613f645760008081fd5b8701808c03601f1901891315613f7a5760008081fd5b613f82613761565b8582013588811115613f945760008081fd5b613fa28e8883860101613886565b82525090890135858201528352918301918301613f4c565b5087525086810135945082851115613fd157600080fd5b613d8088868901613d8f565b600082601f830112613fee57600080fd5b81356020613ffe6138a5836139b2565b828152600592831b850182019282820191908785111561401d57600080fd5b8387015b85811015613ec45780356001600160401b03808211156140415760008081fd5b908901906040828c03601f190181131561405b5760008081fd5b614063613761565b88840135838111156140755760008081fd5b6140838e8b83880101613886565b82525081840135838111156140985760008081fd5b8085019450508c603f8501126140b057600092508283fd5b8884013592506140c26138a5846139b2565b83815292861b8401820192898101908e8511156140df5760008081fd5b948301945b848610156140fd5785358252948a0194908a01906140e4565b828b0152508752505050928401928401614021565b6000604080838503121561412557600080fd5b61412d613761565b915082356001600160401b038082111561414657600080fd5b818501915085601f83011261415a57600080fd5b8135602061416a6138a5836139b2565b82815260059290921b8401810191818101908984111561418957600080fd5b8286015b848110156141fb578035868111156141a55760008081fd5b8701808c03601f19018913156141bb5760008081fd5b6141c3613761565b85820135888111156141d55760008081fd5b6141e38e8883860101613886565b8252509089013585820152835291830191830161418d565b508752508681013594508285111561421257600080fd5b613d8088868901613fdd565b600082601f83011261422f57600080fd5b8135602061423f6138a5836139b2565b828152600592831b850182019282820191908785111561425e57600080fd5b8387015b85811015613ec45780356001600160401b03808211156142825760008081fd5b908901906040828c03601f190181131561429c5760008081fd5b6142a4613761565b88840135838111156142b65760008081fd5b6142c48e8b83880101613886565b82525081840135838111156142d95760008081fd5b8085019450508c603f8501126142f157600092508283fd5b8884013592506143036138a5846139b2565b83815292861b8401820192898101908e8511156143205760008081fd5b948301945b8486101561434a578535935061433a84613b13565b838252948a0194908a0190614325565b828b0152508752505050928401928401614262565b6000604080838503121561437257600080fd5b61437a613761565b915082356001600160401b038082111561439357600080fd5b818501915085601f8301126143a757600080fd5b813560206143b76138a5836139b2565b82815260059290921b840181019181810190898411156143d657600080fd5b8286015b84811015614455578035868111156143f25760008081fd5b8701808c03601f19018913156144085760008081fd5b614410613761565b85820135888111156144225760008081fd5b6144308e8883860101613886565b825250908901359061444182613b13565b8086019190915283529183019183016143da565b508752508681013594508285111561446c57600080fd5b613d808886890161421e565b600082601f83011261448957600080fd5b813560206144996138a5836139b2565b82815260059290921b840181019181810190868411156144b857600080fd5b8286015b84811015613a39576001600160401b0380823511156144da57600080fd5b813588016040818b03601f190112156144f257600080fd5b6144fa613761565b868201358381111561450b57600080fd5b6145198c8983860101613886565b82525060408201358381111561452e57600080fd5b8083019250508a603f83011261454357600080fd5b868201356145536138a5826139b2565b81815260059190911b830160400190888101908d83111561457357600080fd5b604085015b838110156145ab57868135111561458e57600080fd5b61459e8f60408335890101613886565b8352918a01918a01614578565b50838a01525050855250509183019183016144bc565b600060408083850312156145d457600080fd5b6145dc613761565b915082356001600160401b03808211156145f557600080fd5b818501915085601f83011261460957600080fd5b813560206146196138a5836139b2565b82815260059290921b8401810191818101908984111561463857600080fd5b8286015b848110156146c8578035868111156146545760008081fd5b8701808c03601f190189131561466a5760008081fd5b614672613761565b85820135888111156146845760008081fd5b6146928e8883860101613886565b82525089820135888111156146a75760008081fd5b6146b58e8883860101613886565b828801525084525091830191830161463c565b50875250868101359450828511156146df57600080fd5b613d8088868901614478565b600082601f8301126146fc57600080fd5b8135602061470c6138a5836139b2565b82815260059290921b8401810191818101908684111561472b57600080fd5b8286015b84811015613a39576001600160401b03808235111561474d57600080fd5b813588016040818b03601f1901121561476557600080fd5b61476d613761565b868201358381111561477e57600080fd5b61478c8c8983860101613886565b8252506040820135838111156147a157600080fd5b8083019250508a603f8301126147b657600080fd5b868201356147c66138a5826139b2565b81815260059190911b830160400190888101908d8311156147e657600080fd5b604085015b8381101561481e57868135111561480157600080fd5b6148118f60408335890101613886565b8352918a01918a016147eb565b50838a015250508552505091830191830161472f565b6000604080838503121561484757600080fd5b61484f613761565b915082356001600160401b038082111561486857600080fd5b818501915085601f83011261487c57600080fd5b8135602061488c6138a5836139b2565b82815260059290921b840181019181810190898411156148ab57600080fd5b8286015b8481101561493b578035868111156148c75760008081fd5b8701808c03601f19018913156148dd5760008081fd5b6148e5613761565b85820135888111156148f75760008081fd5b6149058e8883860101613886565b825250898201358881111561491a5760008081fd5b6149288e8883860101613886565b82880152508452509183019183016148af565b508752508681013594508285111561495257600080fd5b613d80888689016146eb565b600060e0828403121561497057600080fd5b614978613783565b905081356001600160401b038082111561499157600080fd5b61499d85838601613c67565b835260208401359150808211156149b357600080fd5b6149bf85838601613ed1565b602084015260408401359150808211156149d857600080fd5b6149e485838601614112565b604084015260608401359150808211156149fd57600080fd5b614a098583860161435f565b60608401526080840135915080821115614a2257600080fd5b614a2e85838601613ed1565b608084015260a0840135915080821115614a4757600080fd5b614a53858386016145c1565b60a084015260c0840135915080821115614a6c57600080fd5b50614a7984828501614834565b60c08301525092915050565b600080600060608486031215614a9a57600080fd5b8335925060208401356001600160401b0380821115614ab857600080fd5b908501906102008288031215614acd57600080fd5b614ad56137a5565b823582811115614ae457600080fd5b8301610100818a031215614af757600080fd5b614aff6137c7565b614b08826136d3565b8152614b16602083016136d3565b6020820152614b27604083016136d3565b6040820152614b38606083016136d3565b6060820152614b49608083016136d3565b6080820152614b5a60a083016136d3565b60a0820152614b6b60c083016136d3565b60c082015260e082013584811115614b8257600080fd5b614b8e8b8285016139d5565b60e083015250825250614ba48860208501613a74565b6020820152614bb7886101808501613b21565b6040820152809450506040860135915080821115614bd457600080fd5b50614be18682870161495e565b9150509250925092565b600060208284031215614bfd57600080fd5b5035919050565b6020815260006115706020830184613910565b6020815260006115706020830184613954565b60006020808385031215614c3d57600080fd5b82516001600160401b03811115614c5357600080fd5b8301601f81018513614c6457600080fd5b8051614c726138a5826139b2565b81815260059190911b82018301908381019087831115614c9157600080fd5b928401925b828410156134b957835182529284019290840190614c96565b634e487b7160e01b600052603260045260246000fd5b634e487b7160e01b600052601160045260246000fd5b600060018201614ced57614ced614cc5565b5060010190565b600060018060a01b0380881683526020818816818501526040915060a082850152614d2260a0850188613954565b848103606086015286518082528288019183019060005b81811015614d98578351614d5884825180518252602090810151910152565b85810151614d728886018280518252602090810151910152565b50860151805160808501526020015160a08401529284019260c090920191600101614d39565b50506001600160a01b03871660808701529350614db492505050565b9695505050505050565b80516136de816136be565b80516136de81613b13565b600060208284031215614de657600080fd5b604051602081018181106001600160401b0382111715614e0857614e08613700565b80604052508091508251614e1b81613b13565b905292915050565b60008183036101e0811215614e3757600080fd5b614e3f6137a5565b91506060811215614e4f57600080fd5b614e576137a5565b8351614e62816136be565b81526020840151614e72816136be565b60208201526040840151614e85816136be565b60408201528252610160605f198201811315614ea057600080fd5b614ea8613716565b9150606084015182526080840151602083015260a0840151604083015260c0840151606083015260e084015160808301526101008085015160a08401526101208086015160c08501526101408087015160e08601528387015183860152610180870151828601526101a0870151818601525050505080602083015250614f32836101c08401614dd4565b604082015292915050565b60006101008284031215614f5057600080fd5b614f586137c7565b9050815181526020820151614f6c816136be565b60208201526040820151614f7f816136be565b80604083015250606082015160608201526080820151608082015260a082015160a082015260c082015160c082015260e082015160e082015292915050565b600060c08284031215614fd057600080fd5b614fd86137ea565b9050815181526020820151602082015260408201516040820152606082015160608201526080820151608082015260a082015160a082015292915050565b60006080828403121561502857600080fd5b61503061373f565b90508151815260208201516020820152604082015160408201526060820151606082015292915050565b60006060828403121561506c57600080fd5b6150746137a5565b90508151615081816136be565b80825250602082015160208201526040820151604082015292915050565b6000604082840312156150b157600080fd5b6150b9613761565b9050815181526020820151602082015292915050565b6000606082840312156150e157600080fd5b6150e96137a5565b905081518152602082015160208201526040820151604082015292915050565b6000602080838503121561511c57600080fd5b82516001600160401b0381111561513257600080fd5b8301601f8101851361514357600080fd5b80516151516138a5826139b2565b8181526106a0918202830184019184820191908884111561517157600080fd5b938501935b838510156152d8578489038181121561518e57600080fd5b6151966137ea565b6151a08b88614e23565b81526104006101df19830112156151b657600080fd5b6151be61380c565b91506151ce8b6101e08901614f3d565b82526151de8b6102e08901614fbe565b888301526151f08b6103a08901615016565b60408301526152038b610420890161505a565b606081818501526152188d6104808b0161509f565b9150608082818601526104c08a0151925060a083818701526104e08b015160c08701526105008b015160e08701526105208b01516101008701526105408b01516101208701526105608b01516101408701526105808b01516101608701526105a08b01516101808701526105c08b01516101a0870152858c8601526152a18f6105e08d016150cf565b60408601526106408b0151928501929092526106608a01519084015261068089015190830152508452509384019391850191615176565b50979650505050505050565b60008261530157634e487b7160e01b600052601260045260246000fd5b500490565b8082018082111561104557611045614cc5565b6000600160ff1b820161532e5761532e614cc5565b5060000390565b8181038181111561104557611045614cc5565b634e487b7160e01b600052602160045260246000fd5b60006020828403121561537057600080fd5b5051919050565b60005b8381101561539257818101518382015260200161537a565b50506000910152565b600080604083850312156153ae57600080fd5b8251915060208301516001600160401b038111156153cb57600080fd5b8301601f810185136153dc57600080fd5b80516153ea6138a58261385f565b8181528660208385010111156153ff57600080fd5b615410826020830160208601615377565b8093505050509250929050565b6000602080838503121561543057600080fd5b82516001600160401b0381111561544657600080fd5b8301601f8101851361545757600080fd5b80516154656138a5826139b2565b8181526101e0918202830184019184820191908884111561548557600080fd5b938501935b838510156152d85761549c8986614e23565b8352938401939185019161548a565b6000608082840312156154bd57600080fd5b6154c561373f565b82516154d0816136be565b815260208301516154e0816136be565b602082015260408301516154f3816136be565b60408201526060830151615506816136be565b60608201529392505050565b600060a0828403121561552457600080fd5b60405160a081018181106001600160401b038211171561554657615546613700565b6040528251615554816136be565b808252506020830151602082015260408301516040820152606083015160608201526080830151615584816136be565b60808201529392505050565b600082601f8301126155a157600080fd5b815160206155b16138a5836139b2565b82815260059290921b840181019181810190868411156155d057600080fd5b8286015b84811015613a395780516155e7816136be565b83529183019183016155d4565b80516136de81613a44565b80516136de81613a5c565b6000610160828403121561561d57600080fd5b615625613716565b9050615630826155f4565b815261563e602083016155ff565b602082015260408201516040820152606082015160608201526080820151608082015260a082015160a082015260c082015160c082015260e082015160e082015261010080830151818301525061012080830151818301525061014080830151818301525092915050565b6000608082840312156156bb57600080fd5b6156c361373f565b905081516156d081613b13565b815260208201516156e081613b13565b602082015260408201516156f381613b13565b60408201526060820151613b7e81613b13565b6000610200828403121561571957600080fd5b6157216137a5565b905081516001600160401b038082111561573a57600080fd5b90830190610100828603121561574f57600080fd5b6157576137c7565b61576083614dbe565b815261576e60208401614dbe565b602082015261577f60408401614dbe565b604082015261579060608401614dbe565b60608201526157a160808401614dbe565b60808201526157b260a08401614dbe565b60a08201526157c360c08401614dbe565b60c082015260e0830151828111156157da57600080fd5b6157e687828601615590565b60e0830152508352506157fe9050836020840161560a565b6020820152614f328361018084016156a9565b6000602080838503121561582457600080fd5b82516001600160401b038082111561583b57600080fd5b818501915085601f83011261584f57600080fd5b815161585d6138a5826139b2565b81815260059190911b8301840190848101908883111561587c57600080fd5b8585015b838110156158b4578051858111156158985760008081fd5b6158a68b89838a0101615706565b845250918601918601615880565b5098975050505050505050565b6000602082840312156158d357600080fd5b815161157081613b13565b60008183036101a08112156158f257600080fd5b6158fa613783565b604082121561590857600080fd5b615910613761565b9150835161591d816136be565b8252602084015161592d816136be565b60208301528181526159428560408601614fbe565b602082015261595461010085016155f4565b604082015261596661012085016155ff565b60608201526159786101408501614dc9565b608082015261598a6101608501614dbe565b60a082015261599c6101808501614dc9565b60c0820152949350505050565b600881106159b9576159b9615348565b9052565b6020810161104582846159a9565b600061010082840312156159de57600080fd5b6159e66137c7565b825181526020830151602082015260408301516040820152606083015160608201526080830151608082015260a0830151615a2081613b13565b60a082015260c0838101519082015260e0830151615a3d816136be565b60e08201529392505050565b600060408284031215615a5b57600080fd5b615a63613761565b825181526020830151615a75816136be565b60208201529392505050565b600060208284031215615a9357600080fd5b81516001600160401b03811115615aa957600080fd5b6133e184828501615706565b600060208284031215615ac757600080fd5b81516001600160401b0380821115615ade57600080fd5b9083019060608286031215615af257600080fd5b615afa6137a5565b825182811115615b0957600080fd5b615b1587828601615590565b825250602083015182811115615b2a57600080fd5b615b3687828601615590565b60208301525060408301519250615b4c836136be565b6040810192909252509392505050565b606081526000615b6f6060830186613910565b8281036020840152615b818186613910565b91505060018060a01b0383166040830152949350505050565b600082601f830112615bab57600080fd5b81516020615bbb6138a5836139b2565b82815260059290921b84018101918181019086841115615bda57600080fd5b8286015b84811015613a395780518352918301918301615bde565b600060208284031215615c0757600080fd5b81516001600160401b03811115615c1d57600080fd5b6133e184828501615b9a565b600060208284031215615c3b57600080fd5b81516001600160401b0380821115615c5257600080fd5b9083019060808286031215615c6657600080fd5b615c6e61373f565b825182811115615c7d57600080fd5b615c8987828601615590565b825250602083015182811115615c9e57600080fd5b615caa87828601615590565b602083015250604083015182811115615cc257600080fd5b615cce87828601615b9a565b60408301525060608301519250615ce4836136be565b6060810192909252509392505050565b608081526000615d076080830187613910565b8281036020840152615d198187613910565b90508281036040840152615d2d8186613954565b91505060018060a01b038316606083015295945050505050565b600060e0830160018060a01b038084511685526020818186015116818701528160408601511660408701528160608601511660608701528160808601511660808701528160a08601511660a087015260c085015160e060c0880152838151808652610100890191508383019550600092505b808310156152d857855185168252948301946001929092019190830190615db9565b600381106159b9576159b9615348565b60208152600082516101c0806020850152615e0a6101e0850183615d47565b91506020850151615e5d6040860182805182526020810151602083015260408101516040830152606081015160608301526080810151608083015260a081015160a083015260c081015160c08301525050565b506040850151615e716101208601826159a9565b506060850151615e85610140860182615ddb565b506080850151151561016085015260a0850151151561018085015260c085015115156101a085015260e0909401519390920192909252919050565b600060208284031215615ed257600080fd5b8151611570816136be565b634e487b7160e01b600052603160045260246000fd5b60008251615f05818460208701615377565b9190910192915050565b6020815260008251806020840152615f2e816040850160208701615377565b601f01601f1916919091016040019291505056","linkReferences":{}},"methodIdentifiers":{"afterOrderExecution(bytes32,((address,address,address,address,address,address,address,address[]),(uint8,uint8,uint256,uint256,uint256,uint256,uint256,uint256,uint256,uint256,uint256),(bool,bool,bool,bool)),(((string,address)[],(string,address[])[]),((string,uint256)[],(string,uint256[])[]),((string,int256)[],(string,int256[])[]),((string,bool)[],(string,bool[])[]),((string,bytes32)[],(string,bytes32[])[]),((string,bytes)[],(string,bytes[])[]),((string,string)[],(string,string[])[])))":"8b9e55dc","getClaimableCollateralKeyToClaimableCollateralInfo(bytes32)":"9231b0fc","getClaimableCollateralKeys()":"eed1a37a","getDebtAssets()":"ecd658b4","getManagedAssets()":"80daddb8","getMarketToIsCallbackContractSet(address)":"449efa50","getTrackedAssets()":"c4b97370","getTrackedMarkets()":"9e61105e","init(bytes)":"4ddf47d4","receiveCallFromVault(bytes)":"e5c23a97"},"id":103}