{"abi":[{"type":"constructor","inputs":[{"name":"_callbackGasLimit","type":"uint256","internalType":"uint256"},{"name":"_dataStore","type":"address","internalType":"contract IGMXV2DataStore"},{"name":"_managedAssetsLib","type":"address","internalType":"contract GMXV2LeverageTradingPositionLibManagedAssets"},{"name":"_reader","type":"address","internalType":"contract IGMXV2Reader"},{"name":"_referralCode","type":"bytes32","internalType":"bytes32"},{"name":"_referralStorageAddress","type":"address","internalType":"address"},{"name":"_roleStore","type":"address","internalType":"contract IGMXV2RoleStore"},{"name":"_uiFeeReceiverAddress","type":"address","internalType":"address"},{"name":"_wrappedNativeToken","type":"address","internalType":"contract IWETH"}],"stateMutability":"nonpayable"},{"type":"function","name":"CALLBACK_GAS_LIMIT","inputs":[],"outputs":[{"name":"","type":"uint256","internalType":"uint256"}],"stateMutability":"view"},{"type":"function","name":"DATA_STORE","inputs":[],"outputs":[{"name":"","type":"address","internalType":"contract IGMXV2DataStore"}],"stateMutability":"view"},{"type":"function","name":"MANAGED_ASSETS_LIB","inputs":[],"outputs":[{"name":"","type":"address","internalType":"contract GMXV2LeverageTradingPositionLibManagedAssets"}],"stateMutability":"view"},{"type":"function","name":"READER","inputs":[],"outputs":[{"name":"","type":"address","internalType":"contract IGMXV2Reader"}],"stateMutability":"view"},{"type":"function","name":"REFERRAL_CODE","inputs":[],"outputs":[{"name":"","type":"bytes32","internalType":"bytes32"}],"stateMutability":"view"},{"type":"function","name":"REFERRAL_STORAGE_ADDRESS","inputs":[],"outputs":[{"name":"","type":"address","internalType":"address"}],"stateMutability":"view"},{"type":"function","name":"ROLE_STORE","inputs":[],"outputs":[{"name":"","type":"address","internalType":"contract IGMXV2RoleStore"}],"stateMutability":"view"},{"type":"function","name":"UI_FEE_RECEIVER_ADDRESS","inputs":[],"outputs":[{"name":"","type":"address","internalType":"address"}],"stateMutability":"view"},{"type":"function","name":"WRAPPED_NATIVE_TOKEN","inputs":[],"outputs":[{"name":"","type":"address","internalType":"contract IWETH"}],"stateMutability":"view"},{"type":"function","name":"afterOrderExecution","inputs":[{"name":"","type":"bytes32","internalType":"bytes32"},{"name":"_order","type":"tuple","internalType":"struct IGMXV2Order.Props","components":[{"name":"addresses","type":"tuple","internalType":"struct IGMXV2Order.Addresses","components":[{"name":"account","type":"address","internalType":"address"},{"name":"receiver","type":"address","internalType":"address"},{"name":"cancellationReceiver","type":"address","internalType":"address"},{"name":"callbackContract","type":"address","internalType":"address"},{"name":"uiFeeReceiver","type":"address","internalType":"address"},{"name":"market","type":"address","internalType":"address"},{"name":"initialCollateralToken","type":"address","internalType":"address"},{"name":"swapPath","type":"address[]","internalType":"address[]"}]},{"name":"numbers","type":"tuple","internalType":"struct IGMXV2Order.Numbers","components":[{"name":"orderType","type":"uint8","internalType":"enum IGMXV2Order.OrderType"},{"name":"decreasePositionSwapType","type":"uint8","internalType":"enum IGMXV2Order.DecreasePositionSwapType"},{"name":"sizeDeltaUsd","type":"uint256","internalType":"uint256"},{"name":"initialCollateralDeltaAmount","type":"uint256","internalType":"uint256"},{"name":"triggerPrice","type":"uint256","internalType":"uint256"},{"name":"acceptablePrice","type":"uint256","internalType":"uint256"},{"name":"executionFee","type":"uint256","internalType":"uint256"},{"name":"callbackGasLimit","type":"uint256","internalType":"uint256"},{"name":"minOutputAmount","type":"uint256","internalType":"uint256"},{"name":"updatedAtTime","type":"uint256","internalType":"uint256"},{"name":"validFromTime","type":"uint256","internalType":"uint256"},{"name":"srcChainId","type":"uint256","internalType":"uint256"}]},{"name":"flags","type":"tuple","internalType":"struct IGMXV2Order.Flags","components":[{"name":"isLong","type":"bool","internalType":"bool"},{"name":"shouldUnwrapNativeToken","type":"bool","internalType":"bool"},{"name":"isFrozen","type":"bool","internalType":"bool"},{"name":"autoCancel","type":"bool","internalType":"bool"}]},{"name":"dataList","type":"bytes32[]","internalType":"bytes32[]"}]},{"name":"","type":"tuple","internalType":"struct IGMXV2Event.EventLogData","components":[{"name":"addressItems","type":"tuple","internalType":"struct IGMXV2Event.AddressItems","components":[{"name":"items","type":"tuple[]","internalType":"struct IGMXV2Event.AddressKeyValue[]","components":[{"name":"key","type":"string","internalType":"string"},{"name":"value","type":"address","internalType":"address"}]},{"name":"arrayItems","type":"tuple[]","internalType":"struct IGMXV2Event.AddressArrayKeyValue[]","components":[{"name":"key","type":"string","internalType":"string"},{"name":"value","type":"address[]","internalType":"address[]"}]}]},{"name":"uintItems","type":"tuple","internalType":"struct IGMXV2Event.UintItems","components":[{"name":"items","type":"tuple[]","internalType":"struct IGMXV2Event.UintKeyValue[]","components":[{"name":"key","type":"string","internalType":"string"},{"name":"value","type":"uint256","internalType":"uint256"}]},{"name":"arrayItems","type":"tuple[]","internalType":"struct IGMXV2Event.UintArrayKeyValue[]","components":[{"name":"key","type":"string","internalType":"string"},{"name":"value","type":"uint256[]","internalType":"uint256[]"}]}]},{"name":"intItems","type":"tuple","internalType":"struct IGMXV2Event.IntItems","components":[{"name":"items","type":"tuple[]","internalType":"struct IGMXV2Event.IntKeyValue[]","components":[{"name":"key","type":"string","internalType":"string"},{"name":"value","type":"int256","internalType":"int256"}]},{"name":"arrayItems","type":"tuple[]","internalType":"struct IGMXV2Event.IntArrayKeyValue[]","components":[{"name":"key","type":"string","internalType":"string"},{"name":"value","type":"int256[]","internalType":"int256[]"}]}]},{"name":"boolItems","type":"tuple","internalType":"struct IGMXV2Event.BoolItems","components":[{"name":"items","type":"tuple[]","internalType":"struct IGMXV2Event.BoolKeyValue[]","components":[{"name":"key","type":"string","internalType":"string"},{"name":"value","type":"bool","internalType":"bool"}]},{"name":"arrayItems","type":"tuple[]","internalType":"struct IGMXV2Event.BoolArrayKeyValue[]","components":[{"name":"key","type":"string","internalType":"string"},{"name":"value","type":"bool[]","internalType":"bool[]"}]}]},{"name":"bytes32Items","type":"tuple","internalType":"struct IGMXV2Event.Bytes32Items","components":[{"name":"items","type":"tuple[]","internalType":"struct IGMXV2Event.Bytes32KeyValue[]","components":[{"name":"key","type":"string","internalType":"string"},{"name":"value","type":"bytes32","internalType":"bytes32"}]},{"name":"arrayItems","type":"tuple[]","internalType":"struct IGMXV2Event.Bytes32ArrayKeyValue[]","components":[{"name":"key","type":"string","internalType":"string"},{"name":"value","type":"bytes32[]","internalType":"bytes32[]"}]}]},{"name":"bytesItems","type":"tuple","internalType":"struct IGMXV2Event.BytesItems","components":[{"name":"items","type":"tuple[]","internalType":"struct IGMXV2Event.BytesKeyValue[]","components":[{"name":"key","type":"string","internalType":"string"},{"name":"value","type":"bytes","internalType":"bytes"}]},{"name":"arrayItems","type":"tuple[]","internalType":"struct IGMXV2Event.BytesArrayKeyValue[]","components":[{"name":"key","type":"string","internalType":"string"},{"name":"value","type":"bytes[]","internalType":"bytes[]"}]}]},{"name":"stringItems","type":"tuple","internalType":"struct IGMXV2Event.StringItems","components":[{"name":"items","type":"tuple[]","internalType":"struct IGMXV2Event.StringKeyValue[]","components":[{"name":"key","type":"string","internalType":"string"},{"name":"value","type":"string","internalType":"string"}]},{"name":"arrayItems","type":"tuple[]","internalType":"struct IGMXV2Event.StringArrayKeyValue[]","components":[{"name":"key","type":"string","internalType":"string"},{"name":"value","type":"string[]","internalType":"string[]"}]}]}]}],"outputs":[],"stateMutability":"nonpayable"},{"type":"function","name":"afterOrderExecution","inputs":[{"name":"","type":"bytes32","internalType":"bytes32"},{"name":"_orderData","type":"tuple","internalType":"struct IGMXV2Event.EventLogData","components":[{"name":"addressItems","type":"tuple","internalType":"struct IGMXV2Event.AddressItems","components":[{"name":"items","type":"tuple[]","internalType":"struct IGMXV2Event.AddressKeyValue[]","components":[{"name":"key","type":"string","internalType":"string"},{"name":"value","type":"address","internalType":"address"}]},{"name":"arrayItems","type":"tuple[]","internalType":"struct IGMXV2Event.AddressArrayKeyValue[]","components":[{"name":"key","type":"string","internalType":"string"},{"name":"value","type":"address[]","internalType":"address[]"}]}]},{"name":"uintItems","type":"tuple","internalType":"struct IGMXV2Event.UintItems","components":[{"name":"items","type":"tuple[]","internalType":"struct IGMXV2Event.UintKeyValue[]","components":[{"name":"key","type":"string","internalType":"string"},{"name":"value","type":"uint256","internalType":"uint256"}]},{"name":"arrayItems","type":"tuple[]","internalType":"struct IGMXV2Event.UintArrayKeyValue[]","components":[{"name":"key","type":"string","internalType":"string"},{"name":"value","type":"uint256[]","internalType":"uint256[]"}]}]},{"name":"intItems","type":"tuple","internalType":"struct IGMXV2Event.IntItems","components":[{"name":"items","type":"tuple[]","internalType":"struct IGMXV2Event.IntKeyValue[]","components":[{"name":"key","type":"string","internalType":"string"},{"name":"value","type":"int256","internalType":"int256"}]},{"name":"arrayItems","type":"tuple[]","internalType":"struct IGMXV2Event.IntArrayKeyValue[]","components":[{"name":"key","type":"string","internalType":"string"},{"name":"value","type":"int256[]","internalType":"int256[]"}]}]},{"name":"boolItems","type":"tuple","internalType":"struct IGMXV2Event.BoolItems","components":[{"name":"items","type":"tuple[]","internalType":"struct IGMXV2Event.BoolKeyValue[]","components":[{"name":"key","type":"string","internalType":"string"},{"name":"value","type":"bool","internalType":"bool"}]},{"name":"arrayItems","type":"tuple[]","internalType":"struct IGMXV2Event.BoolArrayKeyValue[]","components":[{"name":"key","type":"string","internalType":"string"},{"name":"value","type":"bool[]","internalType":"bool[]"}]}]},{"name":"bytes32Items","type":"tuple","internalType":"struct IGMXV2Event.Bytes32Items","components":[{"name":"items","type":"tuple[]","internalType":"struct IGMXV2Event.Bytes32KeyValue[]","components":[{"name":"key","type":"string","internalType":"string"},{"name":"value","type":"bytes32","internalType":"bytes32"}]},{"name":"arrayItems","type":"tuple[]","internalType":"struct IGMXV2Event.Bytes32ArrayKeyValue[]","components":[{"name":"key","type":"string","internalType":"string"},{"name":"value","type":"bytes32[]","internalType":"bytes32[]"}]}]},{"name":"bytesItems","type":"tuple","internalType":"struct IGMXV2Event.BytesItems","components":[{"name":"items","type":"tuple[]","internalType":"struct IGMXV2Event.BytesKeyValue[]","components":[{"name":"key","type":"string","internalType":"string"},{"name":"value","type":"bytes","internalType":"bytes"}]},{"name":"arrayItems","type":"tuple[]","internalType":"struct IGMXV2Event.BytesArrayKeyValue[]","components":[{"name":"key","type":"string","internalType":"string"},{"name":"value","type":"bytes[]","internalType":"bytes[]"}]}]},{"name":"stringItems","type":"tuple","internalType":"struct IGMXV2Event.StringItems","components":[{"name":"items","type":"tuple[]","internalType":"struct IGMXV2Event.StringKeyValue[]","components":[{"name":"key","type":"string","internalType":"string"},{"name":"value","type":"string","internalType":"string"}]},{"name":"arrayItems","type":"tuple[]","internalType":"struct IGMXV2Event.StringArrayKeyValue[]","components":[{"name":"key","type":"string","internalType":"string"},{"name":"value","type":"string[]","internalType":"string[]"}]}]}]},{"name":"","type":"tuple","internalType":"struct IGMXV2Event.EventLogData","components":[{"name":"addressItems","type":"tuple","internalType":"struct IGMXV2Event.AddressItems","components":[{"name":"items","type":"tuple[]","internalType":"struct IGMXV2Event.AddressKeyValue[]","components":[{"name":"key","type":"string","internalType":"string"},{"name":"value","type":"address","internalType":"address"}]},{"name":"arrayItems","type":"tuple[]","internalType":"struct IGMXV2Event.AddressArrayKeyValue[]","components":[{"name":"key","type":"string","internalType":"string"},{"name":"value","type":"address[]","internalType":"address[]"}]}]},{"name":"uintItems","type":"tuple","internalType":"struct IGMXV2Event.UintItems","components":[{"name":"items","type":"tuple[]","internalType":"struct IGMXV2Event.UintKeyValue[]","components":[{"name":"key","type":"string","internalType":"string"},{"name":"value","type":"uint256","internalType":"uint256"}]},{"name":"arrayItems","type":"tuple[]","internalType":"struct IGMXV2Event.UintArrayKeyValue[]","components":[{"name":"key","type":"string","internalType":"string"},{"name":"value","type":"uint256[]","internalType":"uint256[]"}]}]},{"name":"intItems","type":"tuple","internalType":"struct IGMXV2Event.IntItems","components":[{"name":"items","type":"tuple[]","internalType":"struct IGMXV2Event.IntKeyValue[]","components":[{"name":"key","type":"string","internalType":"string"},{"name":"value","type":"int256","internalType":"int256"}]},{"name":"arrayItems","type":"tuple[]","internalType":"struct IGMXV2Event.IntArrayKeyValue[]","components":[{"name":"key","type":"string","internalType":"string"},{"name":"value","type":"int256[]","internalType":"int256[]"}]}]},{"name":"boolItems","type":"tuple","internalType":"struct IGMXV2Event.BoolItems","components":[{"name":"items","type":"tuple[]","internalType":"struct IGMXV2Event.BoolKeyValue[]","components":[{"name":"key","type":"string","internalType":"string"},{"name":"value","type":"bool","internalType":"bool"}]},{"name":"arrayItems","type":"tuple[]","internalType":"struct IGMXV2Event.BoolArrayKeyValue[]","components":[{"name":"key","type":"string","internalType":"string"},{"name":"value","type":"bool[]","internalType":"bool[]"}]}]},{"name":"bytes32Items","type":"tuple","internalType":"struct IGMXV2Event.Bytes32Items","components":[{"name":"items","type":"tuple[]","internalType":"struct IGMXV2Event.Bytes32KeyValue[]","components":[{"name":"key","type":"string","internalType":"string"},{"name":"value","type":"bytes32","internalType":"bytes32"}]},{"name":"arrayItems","type":"tuple[]","internalType":"struct IGMXV2Event.Bytes32ArrayKeyValue[]","components":[{"name":"key","type":"string","internalType":"string"},{"name":"value","type":"bytes32[]","internalType":"bytes32[]"}]}]},{"name":"bytesItems","type":"tuple","internalType":"struct IGMXV2Event.BytesItems","components":[{"name":"items","type":"tuple[]","internalType":"struct IGMXV2Event.BytesKeyValue[]","components":[{"name":"key","type":"string","internalType":"string"},{"name":"value","type":"bytes","internalType":"bytes"}]},{"name":"arrayItems","type":"tuple[]","internalType":"struct IGMXV2Event.BytesArrayKeyValue[]","components":[{"name":"key","type":"string","internalType":"string"},{"name":"value","type":"bytes[]","internalType":"bytes[]"}]}]},{"name":"stringItems","type":"tuple","internalType":"struct IGMXV2Event.StringItems","components":[{"name":"items","type":"tuple[]","internalType":"struct IGMXV2Event.StringKeyValue[]","components":[{"name":"key","type":"string","internalType":"string"},{"name":"value","type":"string","internalType":"string"}]},{"name":"arrayItems","type":"tuple[]","internalType":"struct IGMXV2Event.StringArrayKeyValue[]","components":[{"name":"key","type":"string","internalType":"string"},{"name":"value","type":"string[]","internalType":"string[]"}]}]}]}],"outputs":[],"stateMutability":"nonpayable"},{"type":"function","name":"getClaimableCollateralKeyToClaimableCollateralInfo","inputs":[{"name":"_key","type":"bytes32","internalType":"bytes32"}],"outputs":[{"name":"info_","type":"tuple","internalType":"struct GMXV2LeverageTradingPositionLibBase1.ClaimableCollateralInfo","components":[{"name":"token","type":"address","internalType":"address"},{"name":"market","type":"address","internalType":"address"},{"name":"timeKey","type":"uint256","internalType":"uint256"}]}],"stateMutability":"view"},{"type":"function","name":"getClaimableCollateralKeys","inputs":[],"outputs":[{"name":"claimableCollateralKeys_","type":"bytes32[]","internalType":"bytes32[]"}],"stateMutability":"view"},{"type":"function","name":"getDebtAssets","inputs":[],"outputs":[{"name":"assets_","type":"address[]","internalType":"address[]"},{"name":"amounts_","type":"uint256[]","internalType":"uint256[]"}],"stateMutability":"view"},{"type":"function","name":"getManagedAssets","inputs":[],"outputs":[{"name":"assets_","type":"address[]","internalType":"address[]"},{"name":"amounts_","type":"uint256[]","internalType":"uint256[]"}],"stateMutability":"nonpayable"},{"type":"function","name":"getMarketToIsCallbackContractSet","inputs":[{"name":"_market","type":"address","internalType":"address"}],"outputs":[{"name":"isCallbackContractSet_","type":"bool","internalType":"bool"}],"stateMutability":"view"},{"type":"function","name":"getTrackedAssets","inputs":[],"outputs":[{"name":"trackedAssets_","type":"address[]","internalType":"address[]"}],"stateMutability":"view"},{"type":"function","name":"getTrackedMarkets","inputs":[],"outputs":[{"name":"trackedMarkets_","type":"address[]","internalType":"address[]"}],"stateMutability":"view"},{"type":"function","name":"init","inputs":[{"name":"","type":"bytes","internalType":"bytes"}],"outputs":[],"stateMutability":"nonpayable"},{"type":"function","name":"receiveCallFromVault","inputs":[{"name":"_actionData","type":"bytes","internalType":"bytes"}],"outputs":[],"stateMutability":"nonpayable"},{"type":"event","name":"CallbackContractSet","inputs":[{"name":"market","type":"address","indexed":false,"internalType":"address"}],"anonymous":false},{"type":"event","name":"ClaimableCollateralAdded","inputs":[{"name":"claimableCollateralKey","type":"bytes32","indexed":false,"internalType":"bytes32"},{"name":"token","type":"address","indexed":false,"internalType":"address"},{"name":"market","type":"address","indexed":false,"internalType":"address"},{"name":"timeKey","type":"uint256","indexed":false,"internalType":"uint256"}],"anonymous":false},{"type":"event","name":"ClaimableCollateralRemoved","inputs":[{"name":"claimableCollateralKey","type":"bytes32","indexed":false,"internalType":"bytes32"}],"anonymous":false},{"type":"event","name":"TrackedAssetAdded","inputs":[{"name":"asset","type":"address","indexed":false,"internalType":"address"}],"anonymous":false},{"type":"event","name":"TrackedAssetsCleared","inputs":[],"anonymous":false},{"type":"event","name":"TrackedMarketAdded","inputs":[{"name":"market","type":"address","indexed":false,"internalType":"address"}],"anonymous":false},{"type":"event","name":"TrackedMarketRemoved","inputs":[{"name":"market","type":"address","indexed":false,"internalType":"address"}],"anonymous":false},{"type":"error","name":"InvalidActionId","inputs":[]},{"type":"error","name":"InvalidCallbackAccount","inputs":[]},{"type":"error","name":"InvalidHandler","inputs":[]},{"type":"error","name":"InvalidOrderType","inputs":[{"name":"orderType","type":"uint8","internalType":"enum IGMXV2Order.OrderType"}]}],"bytecode":{"object":"0x6101a06040523480156200001257600080fd5b50604051620061af380380620061af8339810160408190526200003591620000ee565b6001600160a01b0397881660805294871660a05260c09790975293851660e0526101009190915283166101205290821661014052918116610160521661018052620001c9565b805b81146200008957600080fd5b50565b805162000099816200007b565b92915050565b60006001600160a01b03821662000099565b600062000099826200009f565b6200007d81620000b1565b80516200009981620000be565b6200007d816200009f565b80516200009981620000d6565b60008060008060008060008060006101208a8c031215620001125762000112600080fd5b6000620001208c8c6200008c565b9950506020620001338c828d01620000c9565b9850506040620001468c828d01620000c9565b9750506060620001598c828d01620000c9565b96505060806200016c8c828d016200008c565b95505060a06200017f8c828d01620000e1565b94505060c0620001928c828d01620000c9565b93505060e0620001a58c828d01620000e1565b925050610100620001b98c828d01620000c9565b9150509295985092959850929598565b60805160a05160c05160e0516101005161012051610140516101605161018051615edb620002d4600039600081816101a70152818161094e015281816118050152818161185b015261193a01526000818161017301526121280152600081816102c3015261149c015260006101ce01526000818161022901526122b2015260008181610136015261043e0152600081816101f5015261220e01526000818161029c01528181610a450152818161159901528181611ad20152611bb60152600081816103870152818161070101528181610a720152818161100801528181611099015281816115ce0152818161163d01528181611aff01528181611be30152611cc20152615edb6000f3fe608060405234801561001057600080fd5b506004361061012c5760003560e01c806380daddb8116100ad578063c4b9737011610071578063c4b97370146103bc578063e5c23a97146103c4578063ecd658b4146103d7578063eed1a37a146103df578063ffaf393f146103f457600080fd5b806380daddb8146102e55780639231b0fc146102fb5780639e61105e1461036d578063c1d07cc214610382578063c2819f55146103a957600080fd5b80633583849a116100f45780633583849a14610224578063449efa501461024b5780634ddf47d414610284578063698eec4414610297578063721f499c146102be57600080fd5b806307159e971461013157806308b3b26b1461016e5780631b3f8c5e146101a25780632091304b146101c957806333d608f1146101f0575b600080fd5b6101587f000000000000000000000000000000000000000000000000000000000000000081565b6040516101659190612a2a565b60405180910390f35b6101957f000000000000000000000000000000000000000000000000000000000000000081565b6040516101659190612a52565b6101587f000000000000000000000000000000000000000000000000000000000000000081565b6101957f000000000000000000000000000000000000000000000000000000000000000081565b6102177f000000000000000000000000000000000000000000000000000000000000000081565b6040516101659190612a66565b6102177f000000000000000000000000000000000000000000000000000000000000000081565b610277610259366004612a93565b6001600160a01b031660009081526020819052604090205460ff1690565b6040516101659190612abc565b610295610292366004612bc3565b50565b005b6101587f000000000000000000000000000000000000000000000000000000000000000081565b6101587f000000000000000000000000000000000000000000000000000000000000000081565b6102ed610407565b604051610165929190612ca4565b610360610309366004612cda565b60408051606080820183526000808352602080840182905292840181905293845260048252928290208251938401835280546001600160a01b03908116855260018201541691840191909152600201549082015290565b6040516101659190612d32565b610375610482565b6040516101659190612d40565b6101587f000000000000000000000000000000000000000000000000000000000000000081565b6102956103b7366004614535565b6104e4565b6103756104fc565b6102956103d2366004612bc3565b61055c565b6060806102ed565b6103e76105f3565b60405161016591906145f7565b610295610402366004614608565b61064a565b6040805160048152602481019091526020810180516001600160e01b031663101b5bb760e31b1790526060908190600090610463907f00000000000000000000000000000000000000000000000000000000000000009061069d565b9050808060200190518101906104799190614757565b92509250509091565b606060028054806020026020016040519081016040528092919081815260200182805480156104da57602002820191906000526020600020905b81546001600160a01b031681526001909101906020018083116104bc575b5050505050905090565b815160a081015190516104f791906106cb565b505050565b606060018054806020026020016040519081016040528092919081815260200182805480156104da576020028201919060005260206000209081546001600160a01b031681526001909101906020018083116104bc575050505050905090565b600080828060200190518101906105739190614843565b909250905081610586576104f78161080e565b60018203610597576104f7816108fe565b600282036105a8576104f781610a04565b600382036105b9576104f781610b93565b600482036105ca576104f781610e79565b600582036105da576104f76111c0565b60405163703469d160e11b815260040160405180910390fd5b606060038054806020026020016040519081016040528092919081815260200182805480156104da57602002820191906000526020600020905b81548152602001906001019080831161062d575050505050905090565b81515180516104f791906004908110610665576106656148a6565b60200260200101516020015183600001516000015160008151811061068c5761068c6148a6565b6020026020010151602001516106cb565b60606106c28383604051806060016040528060278152602001615eb460279139611420565b90505b92915050565b6106d43361149a565b6001600160a01b03811630146106fd57604051631b96384360e21b815260040160405180910390fd5b60007f00000000000000000000000000000000000000000000000000000000000000006001600160a01b031663bd02d0f560405160200161073d906148fd565b604051602081830303815290604052805190602001206040518263ffffffff1660e01b815260040161076f9190612a66565b602060405180830381865afa15801561078c573d6000803e3d6000fd5b505050506040513d601f19601f820116820180604052508101906107b0919061490d565b6107ba904261495a565b905060006107c78461156a565b90506107d884826040015184611639565b80606001516001600160a01b031681604001516001600160a01b0316146108085761080884826060015184611639565b50505050565b6000818060200190518101906108249190614b17565b90506108338160a0015161149a565b60028160400151600881111561084b5761084b614890565b0361086f5760a081015181515161086291906116e5565b61086b816117c4565b5050565b60048160400151600881111561088757610887614890565b14806108a857506006816040015160088111156108a6576108a6614890565b145b806108c857506005816040015160088111156108c6576108c6614890565b145b156108d65761086b81611917565b806040015160405163795e0ddb60e11b81526004016108f59190614b67565b60405180910390fd5b6000818060200190518101906109149190614c4f565b905061092481610100015161149a565b60e0810151156109755761097561093f8261010001516119dc565b60e08301516001600160a01b037f0000000000000000000000000000000000000000000000000000000000000000169190611aa1565b8061010001516001600160a01b031663dd5baad2826000015183602001518460400151856060015186608001518760a001518860c001516040518863ffffffff1660e01b81526004016109ce9796959493929190614c71565b600060405180830381600087803b1580156109e857600080fd5b505af11580156109fc573d6000803e3d6000fd5b505050505050565b600081806020019051810190610a1a9190614d06565b9050610a29816020015161149a565b80516040516324b28db560e11b81526000916001600160a01b037f000000000000000000000000000000000000000000000000000000000000000016916349651b6a91610a9b917f00000000000000000000000000000000000000000000000000000000000000009190600401614d27565b600060405180830381865afa158015610ab8573d6000803e3d6000fd5b505050506040513d6000823e601f3d908101601f19168201604052610ae0919081019061509b565b60208301518351604051637489ec2360e01b81529293506001600160a01b0390911691637489ec2391610b1591600401612a66565b600060405180830381600087803b158015610b2f57600080fd5b505af1158015610b43573d6000803e3d6000fd5b50505050610b4f611aac565b60026020820151516008811115610b6857610b68614890565b036104f757602081015160600151815160c001516104f7916001600160a01b03909116903390611aa1565b600081806020019051810190610ba99190615167565b9050610bb8816040015161149a565b60408082015182516020840151925163c41b1ab360e01b81526001600160a01b039092169263c41b1ab392610bf392919033906004016151a1565b6000604051808303816000875af1158015610c12573d6000803e3d6000fd5b505050506040513d6000823e601f3d908101601f19168201604052610c3a91908101906151d5565b506000610c45611ab8565b9050606060005b8251811015610c9d57610c89838281518110610c6a57610c6a6148a6565b6020026020010151600001516020015183611b7a90919063ffffffff16565b915080610c958161520f565b915050610c4c565b506000610ca8611b9c565b905060005b8151811015610d31576000828281518110610cca57610cca6148a6565b6020026020010151905060026008811115610ce757610ce7614890565b6020808301510151516008811115610d0157610d01614890565b03610d1e5760208101515160a00151610d1b908590611b7a565b93505b5080610d298161520f565b915050610cad565b5060005b8451518110156109fc57600085600001518281518110610d5757610d576148a6565b60200260200101519050610d748185611c5990919063ffffffff16565b80610de95750610de7816002805480602002602001604051908101604052809291908181526020018280548015610dd457602002820191906000526020600020905b81546001600160a01b03168152600190910190602001808311610db6575b5050505050611c5990919063ffffffff16565b155b15610df45750610e67565b6000610dff8261156a565b905080606001516001600160a01b031681604001516001600160a01b031614610e3557610e30828260600151611cbe565b610e38565b60005b610e4a82600001518360400151611cbe565b610e549190615229565b600003610e6457610e6482611d9d565b50505b80610e718161520f565b915050610d35565b600081806020019051810190610e8f91906152f0565b9050610e9e816060015161149a565b80606001516001600160a01b031663e9249b57826000015183602001518460400151336040518563ffffffff1660e01b8152600401610ee0949392919061532a565b6000604051808303816000875af1158015610eff573d6000803e3d6000fd5b505050506040513d6000823e601f3d908101601f19168201604052610f2791908101906151d5565b5060005b8160400151518110156104f7576000610f9c83600001518381518110610f5357610f536148a6565b602002602001015184602001518481518110610f7157610f716148a6565b602002602001015185604001518581518110610f8f57610f8f6148a6565b6020026020010151611de3565b9050600061100284600001518481518110610fb957610fb96148a6565b602002602001015185602001518581518110610fd757610fd76148a6565b602002602001015186604001518681518110610ff557610ff56148a6565b6020026020010151611e41565b905060007f00000000000000000000000000000000000000000000000000000000000000006001600160a01b031663bd02d0f5846040518263ffffffff1660e01b81526004016110529190612a66565b602060405180830381865afa15801561106f573d6000803e3d6000fd5b505050506040513d601f19601f82011682018060405250810190611093919061490d565b905060007f00000000000000000000000000000000000000000000000000000000000000006001600160a01b031663bd02d0f5846040518263ffffffff1660e01b81526004016110e39190612a66565b602060405180830381865afa158015611100573d6000803e3d6000fd5b505050506040513d601f19601f82011682018060405250810190611124919061490d565b90508082116111a957600084815260046020526040812080546001600160a01b031990811682556001820180549091169055600201819055611167600386611e52565b905080156111a7577f8ea559c5d00245baf00dbebc518ca4180a1e99c59aa2bfddb7395b1db7cfd7d88560405161119e9190612a66565b60405180910390a15b505b5050505080806111b89061520f565b915050610f2b565b6000600180548060200260200160405190810160405280929190818152602001828054801561121857602002820191906000526020600020905b81546001600160a01b031681526001909101906020018083116111fa575b505050505090506001600061122d91906128dc565b6040517fbe68b86a2877767aebbbd147688052686e8794545ed4f4746ac608e5da81f93f90600090a16000611260611ab8565b905060005b81518110156112be576000828281518110611282576112826148a6565b602002602001015190508060200151604001516000146112ab578051602001516112ab90611f25565b50806112b68161520f565b915050611265565b5060006112c9611b9c565b905060005b815181101561134d5760008282815181106112eb576112eb6148a6565b602002602001015190506002600881111561130857611308614890565b602080830151015151600881111561132257611322614890565b0361133a5760208101515160a0015161133a90611f25565b50806113458161520f565b9150506112ce565b50611356611aac565b60005b8351811015610808576000848281518110611376576113766148a6565b602002602001015190506000816001600160a01b03166370a08231306040518263ffffffff1660e01b81526004016113ae9190612a52565b602060405180830381865afa1580156113cb573d6000803e3d6000fd5b505050506040513d601f19601f820116820180604052508101906113ef919061490d565b9050801561140b5761140b6001600160a01b0383163383611aa1565b505080806114189061520f565b915050611359565b6060600080856001600160a01b03168560405161143d919061539d565b600060405180830381855af49150503d8060008114611478576040519150601f19603f3d011682016040523d82523d6000602084013e61147d565b606091505b509150915061148e86838387611f6d565b925050505b9392505050565b7f00000000000000000000000000000000000000000000000000000000000000006001600160a01b031663ac4ab3fb826040516020016114d9906153cd565b604051602081830303815290604052805190602001206040518363ffffffff1660e01b815260040161150c9291906153dd565b602060405180830381865afa158015611529573d6000803e3d6000fd5b505050506040513d601f19601f8201168201806040525081019061154d91906153eb565b6102925760405163d8f59fa560e01b815260040160405180910390fd5b604080516080810182526000808252602082018190528183018190526060820152905163714af34b60e01b81527f00000000000000000000000000000000000000000000000000000000000000006001600160a01b03169063714af34b906115f8907f000000000000000000000000000000000000000000000000000000000000000090869060040161540c565b608060405180830381865afa158015611615573d6000803e3d6000fd5b505050506040513d601f19601f820116820180604052508101906106c59190615479565b60007f00000000000000000000000000000000000000000000000000000000000000006001600160a01b031663bd02d0f5611675868686611de3565b6040518263ffffffff1660e01b81526004016116919190612a66565b602060405180830381865afa1580156116ae573d6000803e3d6000fd5b505050506040513d601f19601f820116820180604052508101906116d2919061490d565b9050801561080857610808848484611fbe565b6001600160a01b03811660009081526020819052604090205460ff1661086b5760405163039fd84f60e11b81526001600160a01b0383169063073fb09e90611733908490309060040161549a565b600060405180830381600087803b15801561174d57600080fd5b505af1158015611761573d6000803e3d6000fd5b5050506001600160a01b03821660009081526020819052604090819020805460ff19166001179055517f669111c08006053f49c4c13e8480526e6a8be55408e4e6862865853a2424f50e91506117b8908390612a52565b60405180910390a15050565b60006117d38260a001516119dc565b9050611803818360200151602001518460000151602001516001600160a01b0316611aa19092919063ffffffff16565b7f00000000000000000000000000000000000000000000000000000000000000006001600160a01b03168260000151602001516001600160a01b03161461188357602082015160800151611883906001600160a01b037f000000000000000000000000000000000000000000000000000000000000000016908390611aa1565b8160a001516001600160a01b031663f59c48eb61189f846120d3565b6040518263ffffffff1660e01b81526004016118bb9190615734565b6020604051808303816000875af11580156118da573d6000803e3d6000fd5b505050506040513d601f19601f820116820180604052508101906118fe919061490d565b5081515161190b90611f25565b81515161086b90612322565b6119616119278260a001516119dc565b6020830151608001516001600160a01b037f0000000000000000000000000000000000000000000000000000000000000000169190611aa1565b8060a001516001600160a01b031663f59c48eb61197d836120d3565b6040518263ffffffff1660e01b81526004016119999190615734565b6020604051808303816000875af11580156119b8573d6000803e3d6000fd5b505050506040513d601f19601f8201168201806040525081019061086b919061490d565b6000816001600160a01b031663b58483056040518163ffffffff1660e01b8152600401602060405180830381865afa158015611a1c573d6000803e3d6000fd5b505050506040513d601f19601f82011682018060405250810190611a409190615764565b6001600160a01b03166393845e466040518163ffffffff1660e01b8152600401602060405180830381865afa158015611a7d573d6000803e3d6000fd5b505050506040513d601f19601f820116820180604052508101906106c59190615785565b6104f78383836123ac565b611ab63347612402565b565b604051633be7d8b160e11b81526060906001600160a01b037f000000000000000000000000000000000000000000000000000000000000000016906377cfb16290611b30907f0000000000000000000000000000000000000000000000000000000000000000903090600090600019906004016157bb565b600060405180830381865afa158015611b4d573d6000803e3d6000fd5b505050506040513d6000823e601f3d908101601f19168201604052611b759190810190615a21565b905090565b6060611b868383611c59565b15611b925750816106c5565b6106c2838361249e565b6040516342a6f8d360e01b81526060906001600160a01b037f000000000000000000000000000000000000000000000000000000000000000016906342a6f8d390611c14907f0000000000000000000000000000000000000000000000000000000000000000903090600090600019906004016157bb565b600060405180830381865afa158015611c31573d6000803e3d6000fd5b505050506040513d6000823e601f3d908101601f19168201604052611b759190810190615b44565b6000805b8351811015611cb457838181518110611c7857611c786148a6565b60200260200101516001600160a01b0316836001600160a01b031603611ca25760019150506106c5565b80611cac8161520f565b915050611c5d565b5060009392505050565b60007f00000000000000000000000000000000000000000000000000000000000000006001600160a01b031663bd02d0f5604051602001611cfe90615bb2565b60405160208183030381529060405280519060200120858530604051602001611d2a9493929190615bc2565b604051602081830303815290604052805190602001206040518263ffffffff1660e01b8152600401611d5c9190612a66565b602060405180830381865afa158015611d79573d6000803e3d6000fd5b505050506040513d601f19601f820116820180604052508101906106c2919061490d565b611da860028261258e565b507fb2b8057bebef48929f4c98a8496e9d77df569681c8b5cbaaab4e5961a4aeb09181604051611dd89190612a52565b60405180910390a150565b6000604051602001611df490615c2b565b6040516020818303038152906040528051906020012084848430604051602001611e22959493929190615c3b565b6040516020818303038152906040528051906020012090509392505050565b6000604051602001611df490615cbb565b8154600090815b81811015611f1d5783858281548110611e7457611e746148a6565b906000526020600020015403611f0b57611e8f600183615ccb565b811015611edc5784611ea2600184615ccb565b81548110611eb257611eb26148a6565b9060005260206000200154858281548110611ecf57611ecf6148a6565b6000918252602090912001555b84805480611eec57611eec615cde565b6001900381819060005260206000200160009055905560019250611f1d565b80611f158161520f565b915050611e59565b505092915050565b6000611f308261156a565b9050611f3f81604001516126ad565b80606001516001600160a01b031681604001516001600160a01b03161461086b5761086b81606001516126ad565b60608315611fac578251600003611fa5576001600160a01b0385163b611fa55760405162461bcd60e51b81526004016108f590615d28565b5081611fb6565b611fb68383612736565b949350505050565b6000611fcb848484611de3565b6000818152600460205260409020600101549091506001600160a01b031615611ff45750505050565b6003805460018181019092557fc2575a0e9e593c00f959f8c92f12db2869c3395a3b0502d05e2516446f71f85b01829055604080516060810182526001600160a01b03808716825287811660208381019182528385018881526000888152600490925290859020935184549084166001600160a01b03199182161785559151958401805496909316959091169490941790559151600290920191909155517fa8016e9e1d202cb1650b45eb73529034cf6bb633ae4c73beda292a3f77a89d40906120c5908390869088908790615d38565b60405180910390a150505050565b6120db6128fa565b6040805160e081018252308082526020820152600091810160028560400151600881111561210b5761210b614890565b146121165730612119565b60005b6001600160a01b0390811682527f0000000000000000000000000000000000000000000000000000000000000000811660208084019190915286515182166040840152865101511660608201526080016000604051908082528060200260200182016040528015612194578160200160208202803683370190505b50905260408051610120810182528281528151610100810183526020878101805151835280518201518284015280518501518386015280516060908101519084015251608090810151908301529287015193945090929183019160a0820190600290600881111561220757612207614890565b14612232577f0000000000000000000000000000000000000000000000000000000000000000612235565b60005b8152602001866020015160a001518152602001866020015160c0015181525081526020018460400151600881111561226f5761226f614890565b81526020018460600151600281111561228a5761228a614890565b81526020018460800151151581526020016000151581526020018460c00151151581526020017f0000000000000000000000000000000000000000000000000000000000000000815260200160006001600160401b038111156122ef576122ef612aca565b604051908082528060200260200182016040528015612318578160200160208202803683370190505b5090529392505050565b61232d600282612760565b61029257600280546001810182556000919091527f405787fa12a823e0f2b7631cc41b3ba8828b3321ca811111fa75cd3aa3bb5ace0180546001600160a01b0319166001600160a01b0383161790556040517feca989eaf67bd5b0fd2079414a3cacc14cd3df5765a27bc1efe2c3220fb6deb890611dd8908390612a52565b6104f78363a9059cbb60e01b84846040516024016123cb9291906153dd565b60408051601f198184030181529190526020810180516001600160e01b03166001600160e01b0319909316929092179091526127c8565b804710156124225760405162461bcd60e51b81526004016108f590615d94565b6000826001600160a01b03168260405161243b90615da4565b60006040518083038185875af1925050503d8060008114612478576040519150601f19603f3d011682016040523d82523d6000602084013e61247d565b606091505b50509050806104f75760405162461bcd60e51b81526004016108f590615e09565b6060825160016124ae9190615229565b6001600160401b038111156124c5576124c5612aca565b6040519080825280602002602001820160405280156124ee578160200160208202803683370190505b50905060005b83518110156125535783818151811061250f5761250f6148a6565b6020026020010151828281518110612529576125296148a6565b6001600160a01b03909216602092830291909101909101528061254b8161520f565b9150506124f4565b508181845181518110612568576125686148a6565b60200260200101906001600160a01b031690816001600160a01b03168152505092915050565b8154600090815b81811015611f1d57836001600160a01b03168582815481106125b9576125b96148a6565b6000918252602090912001546001600160a01b03160361269b576125de600183615ccb565b81101561266057846125f1600184615ccb565b81548110612601576126016148a6565b9060005260206000200160009054906101000a90046001600160a01b0316858281548110612631576126316148a6565b9060005260206000200160006101000a8154816001600160a01b0302191690836001600160a01b031602179055505b8480548061267057612670615cde565b600082815260209020810160001990810180546001600160a01b031916905501905560019250611f1d565b806126a58161520f565b915050612595565b6126b8600182612760565b610292576001805480820182556000919091527fb10e2d527612073b26eecdfd717e6a320cf44b4afac2b0732d9fcbe2b7fa0cf60180546001600160a01b0319166001600160a01b0383161790556040517fa0d2bfad19dc0c6970d2a2fcff65458a6d7c4fa3b6d904f44961b2c744bdf59190611dd8908390612a52565b8151156127465781518083602001fd5b8060405162461bcd60e51b81526004016108f59190615e4b565b8154600090815b818110156127bd57848181548110612781576127816148a6565b6000918252602090912001546001600160a01b03908116908516036127ab576001925050506106c5565b806127b58161520f565b915050612767565b506000949350505050565b600061281d826040518060400160405280602081526020017f5361666545524332303a206c6f772d6c6576656c2063616c6c206661696c6564815250856001600160a01b03166128579092919063ffffffff16565b8051909150156104f7578080602001905181019061283b91906153eb565b6104f75760405162461bcd60e51b81526004016108f590615ea3565b6060611fb6848460008585600080866001600160a01b0316858760405161287e919061539d565b60006040518083038185875af1925050503d80600081146128bb576040519150601f19603f3d011682016040523d82523d6000602084013e6128c0565b606091505b50915091506128d187838387611f6d565b979650505050505050565b508054600082559060005260206000209081019061029291906129c9565b604080516102008101909152600061012082018181526101408301829052610160830182905261018083018290526101a083018290526101c083019190915260606101e08301528190815260200161299060405180610100016040528060008152602001600081526020016000815260200160008152602001600081526020016000815260200160008152602001600081525090565b81526020016000815260200160008152600060208201819052604082018190526060808301829052608083019190915260a09091015290565b5b808211156129de57600081556001016129ca565b5090565b60006106c56001600160a01b0383166129f9565b90565b6001600160a01b031690565b60006106c5826129e2565b60006106c582612a05565b612a2481612a10565b82525050565b602081016106c58284612a1b565b60006001600160a01b0382166106c5565b612a2481612a38565b602081016106c58284612a49565b80612a24565b602081016106c58284612a60565b612a7d81612a38565b811461029257600080fd5b80356106c581612a74565b600060208284031215612aa857612aa8600080fd5b6000611fb68484612a88565b801515612a24565b602081016106c58284612ab4565b634e487b7160e01b600052604160045260246000fd5b601f19601f83011681018181106001600160401b0382111715612b0557612b05612aca565b6040525050565b6000612b1760405190565b9050612b238282612ae0565b919050565b60006001600160401b03821115612b4157612b41612aca565b601f19601f83011660200192915050565b82818337506000910152565b6000612b71612b6c84612b28565b612b0c565b905082815260208101848484011115612b8c57612b8c600080fd5b612b97848285612b52565b509392505050565b600082601f830112612bb357612bb3600080fd5b8135611fb6848260208601612b5e565b600060208284031215612bd857612bd8600080fd5b81356001600160401b03811115612bf157612bf1600080fd5b611fb684828501612b9f565b6000612c098383612a49565b505060200190565b6000612c1b825190565b80845260209384019383018060005b83811015612c4f578151612c3e8882612bfd565b975060208301925050600101612c2a565b509495945050505050565b6000612c098383612a60565b6000612c70825190565b80845260209384019383018060005b83811015612c4f578151612c938882612c5a565b975060208301925050600101612c7f565b60408082528101612cb58185612c11565b90508181036020830152611fb68184612c66565b80612a7d565b80356106c581612cc9565b600060208284031215612cef57612cef600080fd5b6000611fb68484612ccf565b80516060830190612d0c8482612a49565b506020820151612d1f6020850182612a49565b5060408201516108086040850182612a60565b606081016106c58284612cfb565b602080825281016106c28184612c11565b60006001600160401b03821115612d6a57612d6a612aca565b5060209081020190565b6000612d82612b6c84612d51565b83815290506020808201908402830185811115612da157612da1600080fd5b835b81811015612dc55780612db68882612a88565b84525060209283019201612da3565b5050509392505050565b600082601f830112612de357612de3600080fd5b8135611fb6848260208601612d74565b60006101008284031215612e0957612e09600080fd5b612e14610100612b0c565b90506000612e228484612a88565b8252506020612e3384848301612a88565b6020830152506040612e4784828501612a88565b6040830152506060612e5b84828501612a88565b6060830152506080612e6f84828501612a88565b60808301525060a0612e8384828501612a88565b60a08301525060c0612e9784828501612a88565b60c08301525060e08201356001600160401b03811115612eb957612eb9600080fd5b612ec584828501612dcf565b60e08301525092915050565b6009811061029257600080fd5b80356106c581612ed1565b6003811061029257600080fd5b80356106c581612ee9565b60006101808284031215612f1757612f17600080fd5b612f22610180612b0c565b90506000612f308484612ede565b8252506020612f4184848301612ef6565b6020830152506040612f5584828501612ccf565b6040830152506060612f6984828501612ccf565b6060830152506080612f7d84828501612ccf565b60808301525060a0612f9184828501612ccf565b60a08301525060c0612fa584828501612ccf565b60c08301525060e0612fb984828501612ccf565b60e083015250610100612fce84828501612ccf565b61010083015250610120612fe484828501612ccf565b61012083015250610140612ffa84828501612ccf565b6101408301525061016061301084828501612ccf565b6101608301525092915050565b801515612a7d565b80356106c58161301d565b60006080828403121561304557613045600080fd5b61304f6080612b0c565b9050600061305d8484613025565b825250602061306e84848301613025565b602083015250604061308284828501613025565b604083015250606061309684828501613025565b60608301525092915050565b60006130b0612b6c84612d51565b838152905060208082019084028301858111156130cf576130cf600080fd5b835b81811015612dc557806130e48882612ccf565b845250602092830192016130d1565b600082601f83011261310757613107600080fd5b8135611fb68482602086016130a2565b6000610240828403121561312d5761312d600080fd5b6131376080612b0c565b905081356001600160401b0381111561315257613152600080fd5b61315e84828501612df3565b825250602061316f84848301612f01565b6020830152506101a061318484828501613030565b6040830152506102208201356001600160401b038111156131a7576131a7600080fd5b613096848285016130f3565b6000604082840312156131c8576131c8600080fd5b6131d26040612b0c565b905081356001600160401b038111156131ed576131ed600080fd5b6131f984828501612b9f565b825250602061320a84848301612a88565b60208301525092915050565b6000613224612b6c84612d51565b8381529050602080820190840283018581111561324357613243600080fd5b835b81811015612dc55780356001600160401b0381111561326657613266600080fd5b80860161327389826131b3565b8552505060209283019201613245565b600082601f83011261329757613297600080fd5b8135611fb6848260208601613216565b6000604082840312156132bc576132bc600080fd5b6132c66040612b0c565b905081356001600160401b038111156132e1576132e1600080fd5b6132ed84828501612b9f565b82525060208201356001600160401b0381111561330c5761330c600080fd5b61320a84828501612dcf565b6000613326612b6c84612d51565b8381529050602080820190840283018581111561334557613345600080fd5b835b81811015612dc55780356001600160401b0381111561336857613368600080fd5b80860161337589826132a7565b8552505060209283019201613347565b600082601f83011261339957613399600080fd5b8135611fb6848260208601613318565b6000604082840312156133be576133be600080fd5b6133c86040612b0c565b905081356001600160401b038111156133e3576133e3600080fd5b6133ef84828501613283565b82525060208201356001600160401b0381111561340e5761340e600080fd5b61320a84828501613385565b60006040828403121561342f5761342f600080fd5b6134396040612b0c565b905081356001600160401b0381111561345457613454600080fd5b61346084828501612b9f565b825250602061320a84848301612ccf565b600061347f612b6c84612d51565b8381529050602080820190840283018581111561349e5761349e600080fd5b835b81811015612dc55780356001600160401b038111156134c1576134c1600080fd5b8086016134ce898261341a565b85525050602092830192016134a0565b600082601f8301126134f2576134f2600080fd5b8135611fb6848260208601613471565b6000613510612b6c84612d51565b8381529050602080820190840283018581111561352f5761352f600080fd5b835b81811015612dc557806135448882612ccf565b84525060209283019201613531565b600082601f83011261356757613567600080fd5b8135611fb6848260208601613502565b60006040828403121561358c5761358c600080fd5b6135966040612b0c565b905081356001600160401b038111156135b1576135b1600080fd5b6135bd84828501612b9f565b82525060208201356001600160401b038111156135dc576135dc600080fd5b61320a84828501613553565b60006135f6612b6c84612d51565b8381529050602080820190840283018581111561361557613615600080fd5b835b81811015612dc55780356001600160401b0381111561363857613638600080fd5b8086016136458982613577565b8552505060209283019201613617565b600082601f83011261366957613669600080fd5b8135611fb68482602086016135e8565b60006040828403121561368e5761368e600080fd5b6136986040612b0c565b905081356001600160401b038111156136b3576136b3600080fd5b6136bf848285016134de565b82525060208201356001600160401b038111156136de576136de600080fd5b61320a84828501613655565b60006136f8612b6c84612d51565b8381529050602080820190840283018581111561371757613717600080fd5b835b81811015612dc55780356001600160401b0381111561373a5761373a600080fd5b808601613747898261341a565b8552505060209283019201613719565b600082601f83011261376b5761376b600080fd5b8135611fb68482602086016136ea565b6000613789612b6c84612d51565b838152905060208082019084028301858111156137a8576137a8600080fd5b835b81811015612dc557806137bd8882612ccf565b845250602092830192016137aa565b600082601f8301126137e0576137e0600080fd5b8135611fb684826020860161377b565b60006040828403121561380557613805600080fd5b61380f6040612b0c565b905081356001600160401b0381111561382a5761382a600080fd5b61383684828501612b9f565b82525060208201356001600160401b0381111561385557613855600080fd5b61320a848285016137cc565b600061386f612b6c84612d51565b8381529050602080820190840283018581111561388e5761388e600080fd5b835b81811015612dc55780356001600160401b038111156138b1576138b1600080fd5b8086016138be89826137f0565b8552505060209283019201613890565b600082601f8301126138e2576138e2600080fd5b8135611fb6848260208601613861565b60006040828403121561390757613907600080fd5b6139116040612b0c565b905081356001600160401b0381111561392c5761392c600080fd5b61393884828501613757565b82525060208201356001600160401b0381111561395757613957600080fd5b61320a848285016138ce565b60006040828403121561397857613978600080fd5b6139826040612b0c565b905081356001600160401b0381111561399d5761399d600080fd5b6139a984828501612b9f565b825250602061320a84848301613025565b60006139c8612b6c84612d51565b838152905060208082019084028301858111156139e7576139e7600080fd5b835b81811015612dc55780356001600160401b03811115613a0a57613a0a600080fd5b808601613a178982613963565b85525050602092830192016139e9565b600082601f830112613a3b57613a3b600080fd5b8135611fb68482602086016139ba565b6000613a59612b6c84612d51565b83815290506020808201908402830185811115613a7857613a78600080fd5b835b81811015612dc55780613a8d8882613025565b84525060209283019201613a7a565b600082601f830112613ab057613ab0600080fd5b8135611fb6848260208601613a4b565b600060408284031215613ad557613ad5600080fd5b613adf6040612b0c565b905081356001600160401b03811115613afa57613afa600080fd5b613b0684828501612b9f565b82525060208201356001600160401b03811115613b2557613b25600080fd5b61320a84828501613a9c565b6000613b3f612b6c84612d51565b83815290506020808201908402830185811115613b5e57613b5e600080fd5b835b81811015612dc55780356001600160401b03811115613b8157613b81600080fd5b808601613b8e8982613ac0565b8552505060209283019201613b60565b600082601f830112613bb257613bb2600080fd5b8135611fb6848260208601613b31565b600060408284031215613bd757613bd7600080fd5b613be16040612b0c565b905081356001600160401b03811115613bfc57613bfc600080fd5b613c0884828501613a27565b82525060208201356001600160401b03811115613c2757613c27600080fd5b61320a84828501613b9e565b6000613c41612b6c84612d51565b83815290506020808201908402830185811115613c6057613c60600080fd5b835b81811015612dc55780356001600160401b03811115613c8357613c83600080fd5b808601613c90898261341a565b8552505060209283019201613c62565b600082601f830112613cb457613cb4600080fd5b8135611fb6848260208601613c33565b600060408284031215613cd957613cd9600080fd5b613ce36040612b0c565b905081356001600160401b03811115613cfe57613cfe600080fd5b613d0a84828501612b9f565b82525060208201356001600160401b03811115613d2957613d29600080fd5b61320a848285016130f3565b6000613d43612b6c84612d51565b83815290506020808201908402830185811115613d6257613d62600080fd5b835b81811015612dc55780356001600160401b03811115613d8557613d85600080fd5b808601613d928982613cc4565b8552505060209283019201613d64565b600082601f830112613db657613db6600080fd5b8135611fb6848260208601613d35565b600060408284031215613ddb57613ddb600080fd5b613de56040612b0c565b905081356001600160401b03811115613e0057613e00600080fd5b613e0c84828501613ca0565b82525060208201356001600160401b03811115613e2b57613e2b600080fd5b61320a84828501613da2565b600060408284031215613e4c57613e4c600080fd5b613e566040612b0c565b905081356001600160401b03811115613e7157613e71600080fd5b613e7d84828501612b9f565b82525060208201356001600160401b03811115613e9c57613e9c600080fd5b61320a84828501612b9f565b6000613eb6612b6c84612d51565b83815290506020808201908402830185811115613ed557613ed5600080fd5b835b81811015612dc55780356001600160401b03811115613ef857613ef8600080fd5b808601613f058982613e37565b8552505060209283019201613ed7565b600082601f830112613f2957613f29600080fd5b8135611fb6848260208601613ea8565b6000613f47612b6c84612d51565b83815290506020808201908402830185811115613f6657613f66600080fd5b835b81811015612dc55780356001600160401b03811115613f8957613f89600080fd5b808601613f968982612b9f565b8552505060209283019201613f68565b600082601f830112613fba57613fba600080fd5b8135611fb6848260208601613f39565b600060408284031215613fdf57613fdf600080fd5b613fe96040612b0c565b905081356001600160401b0381111561400457614004600080fd5b61401084828501612b9f565b82525060208201356001600160401b0381111561402f5761402f600080fd5b61320a84828501613fa6565b6000614049612b6c84612d51565b8381529050602080820190840283018581111561406857614068600080fd5b835b81811015612dc55780356001600160401b0381111561408b5761408b600080fd5b8086016140988982613fca565b855250506020928301920161406a565b600082601f8301126140bc576140bc600080fd5b8135611fb684826020860161403b565b6000604082840312156140e1576140e1600080fd5b6140eb6040612b0c565b905081356001600160401b0381111561410657614106600080fd5b61411284828501613f15565b82525060208201356001600160401b0381111561413157614131600080fd5b61320a848285016140a8565b600061414b612b6c84612d51565b8381529050602080820190840283018581111561416a5761416a600080fd5b835b81811015612dc55780356001600160401b0381111561418d5761418d600080fd5b80860161419a8982613e37565b855250506020928301920161416c565b600082601f8301126141be576141be600080fd5b8135611fb684826020860161413d565b60006141dc612b6c84612d51565b838152905060208082019084028301858111156141fb576141fb600080fd5b835b81811015612dc55780356001600160401b0381111561421e5761421e600080fd5b80860161422b8982612b9f565b85525050602092830192016141fd565b600082601f83011261424f5761424f600080fd5b8135611fb68482602086016141ce565b60006040828403121561427457614274600080fd5b61427e6040612b0c565b905081356001600160401b0381111561429957614299600080fd5b6142a584828501612b9f565b82525060208201356001600160401b038111156142c4576142c4600080fd5b61320a8482850161423b565b60006142de612b6c84612d51565b838152905060208082019084028301858111156142fd576142fd600080fd5b835b81811015612dc55780356001600160401b0381111561432057614320600080fd5b80860161432d898261425f565b85525050602092830192016142ff565b600082601f83011261435157614351600080fd5b8135611fb68482602086016142d0565b60006040828403121561437657614376600080fd5b6143806040612b0c565b905081356001600160401b0381111561439b5761439b600080fd5b6143a7848285016141aa565b82525060208201356001600160401b038111156143c6576143c6600080fd5b61320a8482850161433d565b600060e082840312156143e7576143e7600080fd5b6143f160e0612b0c565b905081356001600160401b0381111561440c5761440c600080fd5b614418848285016133a9565b82525060208201356001600160401b0381111561443757614437600080fd5b61444384828501613679565b60208301525060408201356001600160401b0381111561446557614465600080fd5b614471848285016138f2565b60408301525060608201356001600160401b0381111561449357614493600080fd5b61449f84828501613bc2565b60608301525060808201356001600160401b038111156144c1576144c1600080fd5b6144cd84828501613dc6565b60808301525060a08201356001600160401b038111156144ef576144ef600080fd5b6144fb848285016140cc565b60a08301525060c08201356001600160401b0381111561451d5761451d600080fd5b61452984828501614361565b60c08301525092915050565b60008060006060848603121561454d5761454d600080fd5b60006145598686612ccf565b93505060208401356001600160401b0381111561457857614578600080fd5b61458486828701613117565b92505060408401356001600160401b038111156145a3576145a3600080fd5b6145af868287016143d2565b9150509250925092565b60006145c3825190565b80845260209384019383018060005b83811015612c4f5781516145e68882612c5a565b9750602083019250506001016145d2565b602080825281016106c281846145b9565b60008060006060848603121561462057614620600080fd5b600061462c8686612ccf565b93505060208401356001600160401b0381111561464b5761464b600080fd5b614584868287016143d2565b80516106c581612a74565b6000614670612b6c84612d51565b8381529050602080820190840283018581111561468f5761468f600080fd5b835b81811015612dc557806146a48882614657565b84525060209283019201614691565b600082601f8301126146c7576146c7600080fd5b8151611fb6848260208601614662565b80516106c581612cc9565b60006146f0612b6c84612d51565b8381529050602080820190840283018581111561470f5761470f600080fd5b835b81811015612dc5578061472488826146d7565b84525060209283019201614711565b600082601f83011261474757614747600080fd5b8151611fb68482602086016146e2565b6000806040838503121561476d5761476d600080fd5b82516001600160401b0381111561478657614786600080fd5b614792858286016146b3565b92505060208301516001600160401b038111156147b1576147b1600080fd5b6147bd85828601614733565b9150509250929050565b60005b838110156147e25781810151838201526020016147ca565b50506000910152565b60006147f9612b6c84612b28565b90508281526020810184848401111561481457614814600080fd5b612b978482856147c7565b600082601f83011261483357614833600080fd5b8151611fb68482602086016147eb565b6000806040838503121561485957614859600080fd5b600061486585856146d7565b92505060208301516001600160401b0381111561488457614884600080fd5b6147bd8582860161481f565b634e487b7160e01b600052602160045260246000fd5b634e487b7160e01b600052603260045260246000fd5b602181526000602082017f434c41494d41424c455f434f4c4c41544552414c5f54494d455f44495649534f8152602960f91b602082015291505b5060400190565b602080825281016106c5816148bc565b60006020828403121561492257614922600080fd5b6000611fb684846146d7565b634e487b7160e01b600052601260045260246000fd5b634e487b7160e01b600052601160045260246000fd5b6000826149695761496961492e565b500490565b60006040828403121561498357614983600080fd5b61498d6040612b0c565b9050600061499b8484614657565b825250602061320a84848301614657565b600060e082840312156149c1576149c1600080fd5b6149cb60e0612b0c565b905060006149d984846146d7565b82525060206149ea848483016146d7565b60208301525060406149fe848285016146d7565b6040830152506060614a12848285016146d7565b6060830152506080614a26848285016146d7565b60808301525060a0614a3a848285016146d7565b60a08301525060c0614529848285016146d7565b80516106c581612ed1565b80516106c581612ee9565b80516106c58161301d565b60006101c08284031215614a8557614a85600080fd5b614a8f60e0612b0c565b90506000614a9d848461496e565b8252506040614aae848483016149ac565b602083015250610120614ac384828501614a4e565b604083015250610140614ad884828501614a59565b606083015250610160614aed84828501614a64565b608083015250610180614b0284828501614657565b60a0830152506101a061452984828501614a64565b60006101c08284031215614b2d57614b2d600080fd5b6000611fb68484614a6f565b6009811061029257610292614890565b80612b2381614b39565b60006106c582614b49565b612a2481614b53565b602081016106c58284614b5e565b60006101208284031215614b8b57614b8b600080fd5b614b96610120612b0c565b90506000614ba484846146d7565b8252506020614bb5848483016146d7565b6020830152506040614bc9848285016146d7565b6040830152506060614bdd848285016146d7565b6060830152506080614bf1848285016146d7565b60808301525060a0614c05848285016146d7565b60a08301525060c0614c1984828501614a64565b60c08301525060e0614c2d848285016146d7565b60e083015250610100614c4284828501614657565b6101008301525092915050565b60006101208284031215614c6557614c65600080fd5b6000611fb68484614b75565b60e08101614c7f828a612a60565b614c8c6020830189612a60565b614c996040830188612a60565b614ca66060830187612a60565b614cb36080830186612a60565b614cc060a0830185612a60565b614ccd60c0830184612ab4565b98975050505050505050565b600060408284031215614cee57614cee600080fd5b614cf86040612b0c565b9050600061499b84846146d7565b600060408284031215614d1b57614d1b600080fd5b6000611fb68484614cd9565b60408101614d358285612a1b565b6114936020830184612a60565b60006101008284031215614d5857614d58600080fd5b614d63610100612b0c565b90506000614d718484614657565b8252506020614d8284848301614657565b6020830152506040614d9684828501614657565b6040830152506060614daa84828501614657565b6060830152506080614dbe84828501614657565b60808301525060a0614dd284828501614657565b60a08301525060c0614de684828501614657565b60c08301525060e08201516001600160401b03811115614e0857614e08600080fd5b612ec5848285016146b3565b60006101808284031215614e2a57614e2a600080fd5b614e35610180612b0c565b90506000614e438484614a4e565b8252506020614e5484848301614a59565b6020830152506040614e68848285016146d7565b6040830152506060614e7c848285016146d7565b6060830152506080614e90848285016146d7565b60808301525060a0614ea4848285016146d7565b60a08301525060c0614eb8848285016146d7565b60c08301525060e0614ecc848285016146d7565b60e083015250610100614ee1848285016146d7565b61010083015250610120614ef7848285016146d7565b61012083015250610140614f0d848285016146d7565b61014083015250610160613010848285016146d7565b600060808284031215614f3857614f38600080fd5b614f426080612b0c565b90506000614f508484614a64565b8252506020614f6184848301614a64565b6020830152506040614f7584828501614a64565b604083015250606061309684828501614a64565b6000614f97612b6c84612d51565b83815290506020808201908402830185811115614fb657614fb6600080fd5b835b81811015612dc55780614fcb88826146d7565b84525060209283019201614fb8565b600082601f830112614fee57614fee600080fd5b8151611fb6848260208601614f89565b6000610240828403121561501457615014600080fd5b61501e6080612b0c565b82519091506001600160401b0381111561503a5761503a600080fd5b61504684828501614d42565b825250602061505784848301614e14565b6020830152506101a061506c84828501614f23565b6040830152506102208201516001600160401b0381111561508f5761508f600080fd5b61309684828501614fda565b6000602082840312156150b0576150b0600080fd5b81516001600160401b038111156150c9576150c9600080fd5b611fb684828501614ffe565b6000606082840312156150ea576150ea600080fd5b6150f46060612b0c565b82519091506001600160401b0381111561511057615110600080fd5b61511c848285016146b3565b82525060208201516001600160401b0381111561513b5761513b600080fd5b615147848285016146b3565b602083015250604061515b84828501614657565b60408301525092915050565b60006020828403121561517c5761517c600080fd5b81516001600160401b0381111561519557615195600080fd5b611fb6848285016150d5565b606080825281016151b28186612c11565b905081810360208301526151c68185612c11565b9050611fb66040830184612a49565b6000602082840312156151ea576151ea600080fd5b81516001600160401b0381111561520357615203600080fd5b611fb684828501614733565b6000600019820361522257615222614944565b5060010190565b808201808211156106c5576106c5614944565b60006080828403121561525157615251600080fd5b61525b6080612b0c565b82519091506001600160401b0381111561527757615277600080fd5b615283848285016146b3565b82525060208201516001600160401b038111156152a2576152a2600080fd5b6152ae848285016146b3565b60208301525060408201516001600160401b038111156152d0576152d0600080fd5b6152dc84828501614733565b604083015250606061309684828501614657565b60006020828403121561530557615305600080fd5b81516001600160401b0381111561531e5761531e600080fd5b611fb68482850161523c565b6080808252810161533b8187612c11565b9050818103602083015261534f8186612c11565b905081810360408301526153638185612c66565b90506153726060830184612a49565b95945050505050565b6000615385825190565b6153938185602086016147c7565b9290920192915050565b6000611493828461537b565b600a81526000602082016921a7a72a2927a62622a960b11b815291505b5060200190565b602080825281016106c5816153a9565b60408101614d358285612a49565b60006020828403121561540057615400600080fd5b6000611fb68484614a64565b6040810161541a8285612a1b565b6114936020830184612a49565b60006080828403121561543c5761543c600080fd5b6154466080612b0c565b905060006154548484614657565b825250602061546584848301614657565b60208301525060406152dc84828501614657565b60006080828403121561548e5761548e600080fd5b6000611fb68484615427565b6040810161541a8285612a49565b60006154b2825190565b80845260209384019383018060005b83811015612c4f5781516154d58882612bfd565b9750602083019250506001016154c1565b805160009060e08401906154fa8582612a49565b50602083015161550d6020860182612a49565b5060408301516155206040860182612a49565b5060608301516155336060860182612a49565b5060808301516155466080860182612a49565b5060a083015161555960a0860182612a49565b5060c083015184820360c086015261537282826154a8565b80516101008301906155838482612a60565b5060208201516155966020850182612a60565b5060408201516155a96040850182612a60565b5060608201516155bc6060850182612a60565b5060808201516155cf6080850182612a60565b5060a08201516155e260a0850182612a60565b5060c08201516155f560c0850182612a60565b5060e082015161080860e0850182612a60565b6003811061029257610292614890565b80612b2381615608565b60006106c582615618565b612a2481615622565b6000615640825190565b80845260209384019383018060005b83811015612c4f5781516156638882612c5a565b97506020830192505060010161564f565b80516102008084526000919084019061568d82826154e6565b91505060208301516156a26020860182615571565b5060408301516156b6610120860182614b5e565b5060608301516156ca61014086018261562d565b5060808301516156de610160860182612ab4565b5060a08301516156f2610180860182612ab4565b5060c08301516157066101a0860182612ab4565b5060e083015161571a6101c0860182612a60565b506101008301518482036101e08601526153728282615636565b602080825281016106c28184615674565b60006106c582612a38565b612a7d81615745565b80516106c581615750565b60006020828403121561577957615779600080fd5b6000611fb68484615759565b60006020828403121561579a5761579a600080fd5b6000611fb68484614657565b60006106c56129f68381565b612a24816157a6565b608081016157c98287612a1b565b6157d66020830186612a49565b6157e360408301856157b2565b6153726060830184612a60565b60006060828403121561580557615805600080fd5b61580f6060612b0c565b9050600061581d8484614657565b825250602061514784848301614657565b6000610140828403121561584457615844600080fd5b61584f610140612b0c565b9050600061585d84846146d7565b825250602061586e848483016146d7565b6020830152506040615882848285016146d7565b6040830152506060615896848285016146d7565b60608301525060806158aa848285016146d7565b60808301525060a06158be848285016146d7565b60a08301525060c06158d2848285016146d7565b60c08301525060e06158e6848285016146d7565b60e0830152506101006158fb848285016146d7565b61010083015250610120615911848285016146d7565b6101208301525092915050565b60006020828403121561593357615933600080fd5b61593d6020612b0c565b9050600061594b8484614a64565b82525092915050565b60006101c0828403121561596a5761596a600080fd5b6159746060612b0c565b9050600061598284846157f0565b82525060606159938484830161582e565b6020830152506101a061515b8482850161591e565b60006159b6612b6c84612d51565b8381529050602081016101c084028301858111156159d6576159d6600080fd5b835b81811015612dc557806159eb8882615954565b8452506020909201916101c0016159d8565b600082601f830112615a1157615a11600080fd5b8151611fb68482602086016159a8565b600060208284031215615a3657615a36600080fd5b81516001600160401b03811115615a4f57615a4f600080fd5b611fb6848285016159fd565b600060408284031215615a7057615a70600080fd5b615a7a6040612b0c565b90506000615a8884846146d7565b82525060208201516001600160401b03811115615aa757615aa7600080fd5b61320a84828501614ffe565b6000615ac1612b6c84612d51565b83815290506020808201908402830185811115615ae057615ae0600080fd5b835b81811015612dc55780516001600160401b03811115615b0357615b03600080fd5b808601615b108982615a5b565b8552505060209283019201615ae2565b600082601f830112615b3457615b34600080fd5b8151611fb6848260208601615ab3565b600060208284031215615b5957615b59600080fd5b81516001600160401b03811115615b7257615b72600080fd5b611fb684828501615b20565b601881526000602082017f434c41494d41424c455f46554e44494e475f414d4f554e540000000000000000815291506153c6565b602080825281016106c581615b7e565b60808101615bd08287612a60565b615bdd6020830186612a49565b615bea6040830185612a49565b6153726060830184612a49565b601b81526000602082017f434c41494d41424c455f434f4c4c41544552414c5f414d4f554e540000000000815291506153c6565b602080825281016106c581615bf7565b60a08101615c498288612a60565b615c566020830187612a49565b615c636040830186612a49565b615c706060830185612a60565b615c7d6080830184612a49565b9695505050505050565b601981526000602082017f434c41494d45445f434f4c4c41544552414c5f414d4f554e5400000000000000815291506153c6565b602080825281016106c581615c87565b818103818111156106c5576106c5614944565b634e487b7160e01b600052603160045260246000fd5b601d81526000602082017f416464726573733a2063616c6c20746f206e6f6e2d636f6e7472616374000000815291506153c6565b602080825281016106c581615cf4565b60808101615d468287612a60565b615d536020830186612a49565b6157e36040830185612a49565b601d81526000602082017f416464726573733a20696e73756666696369656e742062616c616e6365000000815291506153c6565b602080825281016106c581615d60565b60006106c5826129f6565b603a81526000602082017f416464726573733a20756e61626c6520746f2073656e642076616c75652c207281527f6563697069656e74206d61792068617665207265766572746564000000000000602082015291506148f6565b602080825281016106c581615daf565b6000615e23825190565b808452602084019350615e3a8185602086016147c7565b601f01601f19169290920192915050565b602080825281016106c28184615e19565b602a81526000602082017f5361666545524332303a204552433230206f7065726174696f6e20646964206e8152691bdd081cdd58d8d9595960b21b602082015291506148f6565b602080825281016106c581615e5c56fe416464726573733a206c6f772d6c6576656c2064656c65676174652063616c6c206661696c6564","linkReferences":{}},"methodIdentifiers":{"CALLBACK_GAS_LIMIT()":"33d608f1","DATA_STORE()":"c1d07cc2","MANAGED_ASSETS_LIB()":"07159e97","READER()":"698eec44","REFERRAL_CODE()":"3583849a","REFERRAL_STORAGE_ADDRESS()":"2091304b","ROLE_STORE()":"721f499c","UI_FEE_RECEIVER_ADDRESS()":"08b3b26b","WRAPPED_NATIVE_TOKEN()":"1b3f8c5e","afterOrderExecution(bytes32,(((string,address)[],(string,address[])[]),((string,uint256)[],(string,uint256[])[]),((string,int256)[],(string,int256[])[]),((string,bool)[],(string,bool[])[]),((string,bytes32)[],(string,bytes32[])[]),((string,bytes)[],(string,bytes[])[]),((string,string)[],(string,string[])[])),(((string,address)[],(string,address[])[]),((string,uint256)[],(string,uint256[])[]),((string,int256)[],(string,int256[])[]),((string,bool)[],(string,bool[])[]),((string,bytes32)[],(string,bytes32[])[]),((string,bytes)[],(string,bytes[])[]),((string,string)[],(string,string[])[])))":"ffaf393f","afterOrderExecution(bytes32,((address,address,address,address,address,address,address,address[]),(uint8,uint8,uint256,uint256,uint256,uint256,uint256,uint256,uint256,uint256,uint256,uint256),(bool,bool,bool,bool),bytes32[]),(((string,address)[],(string,address[])[]),((string,uint256)[],(string,uint256[])[]),((string,int256)[],(string,int256[])[]),((string,bool)[],(string,bool[])[]),((string,bytes32)[],(string,bytes32[])[]),((string,bytes)[],(string,bytes[])[]),((string,string)[],(string,string[])[])))":"c2819f55","getClaimableCollateralKeyToClaimableCollateralInfo(bytes32)":"9231b0fc","getClaimableCollateralKeys()":"eed1a37a","getDebtAssets()":"ecd658b4","getManagedAssets()":"80daddb8","getMarketToIsCallbackContractSet(address)":"449efa50","getTrackedAssets()":"c4b97370","getTrackedMarkets()":"9e61105e","init(bytes)":"4ddf47d4","receiveCallFromVault(bytes)":"e5c23a97"},"id":106}