{"abi":[{"type":"constructor","inputs":[{"name":"_callbackGasLimit","type":"uint256","internalType":"uint256"},{"name":"_dataStore","type":"address","internalType":"contract IGMXV2DataStore"},{"name":"_managedAssetsLib","type":"address","internalType":"contract GMXV2LeverageTradingPositionLibManagedAssets"},{"name":"_reader","type":"address","internalType":"contract IGMXV2Reader"},{"name":"_referralCode","type":"bytes32","internalType":"bytes32"},{"name":"_referralStorageAddress","type":"address","internalType":"address"},{"name":"_roleStore","type":"address","internalType":"contract IGMXV2RoleStore"},{"name":"_uiFeeReceiverAddress","type":"address","internalType":"address"},{"name":"_wrappedNativeToken","type":"address","internalType":"contract IWETH"}],"stateMutability":"nonpayable"},{"type":"function","name":"CALLBACK_GAS_LIMIT","inputs":[],"outputs":[{"name":"","type":"uint256","internalType":"uint256"}],"stateMutability":"view"},{"type":"function","name":"DATA_STORE","inputs":[],"outputs":[{"name":"","type":"address","internalType":"contract IGMXV2DataStore"}],"stateMutability":"view"},{"type":"function","name":"MANAGED_ASSETS_LIB","inputs":[],"outputs":[{"name":"","type":"address","internalType":"contract GMXV2LeverageTradingPositionLibManagedAssets"}],"stateMutability":"view"},{"type":"function","name":"READER","inputs":[],"outputs":[{"name":"","type":"address","internalType":"contract IGMXV2Reader"}],"stateMutability":"view"},{"type":"function","name":"REFERRAL_CODE","inputs":[],"outputs":[{"name":"","type":"bytes32","internalType":"bytes32"}],"stateMutability":"view"},{"type":"function","name":"REFERRAL_STORAGE_ADDRESS","inputs":[],"outputs":[{"name":"","type":"address","internalType":"address"}],"stateMutability":"view"},{"type":"function","name":"ROLE_STORE","inputs":[],"outputs":[{"name":"","type":"address","internalType":"contract IGMXV2RoleStore"}],"stateMutability":"view"},{"type":"function","name":"UI_FEE_RECEIVER_ADDRESS","inputs":[],"outputs":[{"name":"","type":"address","internalType":"address"}],"stateMutability":"view"},{"type":"function","name":"WRAPPED_NATIVE_TOKEN","inputs":[],"outputs":[{"name":"","type":"address","internalType":"contract IWETH"}],"stateMutability":"view"},{"type":"function","name":"afterOrderExecution","inputs":[{"name":"","type":"bytes32","internalType":"bytes32"},{"name":"_order","type":"tuple","internalType":"struct IGMXV2Order.Props","components":[{"name":"addresses","type":"tuple","internalType":"struct IGMXV2Order.Addresses","components":[{"name":"account","type":"address","internalType":"address"},{"name":"receiver","type":"address","internalType":"address"},{"name":"cancellationReceiver","type":"address","internalType":"address"},{"name":"callbackContract","type":"address","internalType":"address"},{"name":"uiFeeReceiver","type":"address","internalType":"address"},{"name":"market","type":"address","internalType":"address"},{"name":"initialCollateralToken","type":"address","internalType":"address"},{"name":"swapPath","type":"address[]","internalType":"address[]"}]},{"name":"numbers","type":"tuple","internalType":"struct IGMXV2Order.Numbers","components":[{"name":"orderType","type":"uint8","internalType":"enum IGMXV2Order.OrderType"},{"name":"decreasePositionSwapType","type":"uint8","internalType":"enum IGMXV2Order.DecreasePositionSwapType"},{"name":"sizeDeltaUsd","type":"uint256","internalType":"uint256"},{"name":"initialCollateralDeltaAmount","type":"uint256","internalType":"uint256"},{"name":"triggerPrice","type":"uint256","internalType":"uint256"},{"name":"acceptablePrice","type":"uint256","internalType":"uint256"},{"name":"executionFee","type":"uint256","internalType":"uint256"},{"name":"callbackGasLimit","type":"uint256","internalType":"uint256"},{"name":"minOutputAmount","type":"uint256","internalType":"uint256"},{"name":"updatedAtTime","type":"uint256","internalType":"uint256"},{"name":"validFromTime","type":"uint256","internalType":"uint256"}]},{"name":"flags","type":"tuple","internalType":"struct IGMXV2Order.Flags","components":[{"name":"isLong","type":"bool","internalType":"bool"},{"name":"shouldUnwrapNativeToken","type":"bool","internalType":"bool"},{"name":"isFrozen","type":"bool","internalType":"bool"},{"name":"autoCancel","type":"bool","internalType":"bool"}]}]},{"name":"","type":"tuple","internalType":"struct IGMXV2Event.EventLogData","components":[{"name":"addressItems","type":"tuple","internalType":"struct IGMXV2Event.AddressItems","components":[{"name":"items","type":"tuple[]","internalType":"struct IGMXV2Event.AddressKeyValue[]","components":[{"name":"key","type":"string","internalType":"string"},{"name":"value","type":"address","internalType":"address"}]},{"name":"arrayItems","type":"tuple[]","internalType":"struct IGMXV2Event.AddressArrayKeyValue[]","components":[{"name":"key","type":"string","internalType":"string"},{"name":"value","type":"address[]","internalType":"address[]"}]}]},{"name":"uintItems","type":"tuple","internalType":"struct IGMXV2Event.UintItems","components":[{"name":"items","type":"tuple[]","internalType":"struct IGMXV2Event.UintKeyValue[]","components":[{"name":"key","type":"string","internalType":"string"},{"name":"value","type":"uint256","internalType":"uint256"}]},{"name":"arrayItems","type":"tuple[]","internalType":"struct IGMXV2Event.UintArrayKeyValue[]","components":[{"name":"key","type":"string","internalType":"string"},{"name":"value","type":"uint256[]","internalType":"uint256[]"}]}]},{"name":"intItems","type":"tuple","internalType":"struct IGMXV2Event.IntItems","components":[{"name":"items","type":"tuple[]","internalType":"struct IGMXV2Event.IntKeyValue[]","components":[{"name":"key","type":"string","internalType":"string"},{"name":"value","type":"int256","internalType":"int256"}]},{"name":"arrayItems","type":"tuple[]","internalType":"struct IGMXV2Event.IntArrayKeyValue[]","components":[{"name":"key","type":"string","internalType":"string"},{"name":"value","type":"int256[]","internalType":"int256[]"}]}]},{"name":"boolItems","type":"tuple","internalType":"struct IGMXV2Event.BoolItems","components":[{"name":"items","type":"tuple[]","internalType":"struct IGMXV2Event.BoolKeyValue[]","components":[{"name":"key","type":"string","internalType":"string"},{"name":"value","type":"bool","internalType":"bool"}]},{"name":"arrayItems","type":"tuple[]","internalType":"struct IGMXV2Event.BoolArrayKeyValue[]","components":[{"name":"key","type":"string","internalType":"string"},{"name":"value","type":"bool[]","internalType":"bool[]"}]}]},{"name":"bytes32Items","type":"tuple","internalType":"struct IGMXV2Event.Bytes32Items","components":[{"name":"items","type":"tuple[]","internalType":"struct IGMXV2Event.Bytes32KeyValue[]","components":[{"name":"key","type":"string","internalType":"string"},{"name":"value","type":"bytes32","internalType":"bytes32"}]},{"name":"arrayItems","type":"tuple[]","internalType":"struct IGMXV2Event.Bytes32ArrayKeyValue[]","components":[{"name":"key","type":"string","internalType":"string"},{"name":"value","type":"bytes32[]","internalType":"bytes32[]"}]}]},{"name":"bytesItems","type":"tuple","internalType":"struct IGMXV2Event.BytesItems","components":[{"name":"items","type":"tuple[]","internalType":"struct IGMXV2Event.BytesKeyValue[]","components":[{"name":"key","type":"string","internalType":"string"},{"name":"value","type":"bytes","internalType":"bytes"}]},{"name":"arrayItems","type":"tuple[]","internalType":"struct IGMXV2Event.BytesArrayKeyValue[]","components":[{"name":"key","type":"string","internalType":"string"},{"name":"value","type":"bytes[]","internalType":"bytes[]"}]}]},{"name":"stringItems","type":"tuple","internalType":"struct IGMXV2Event.StringItems","components":[{"name":"items","type":"tuple[]","internalType":"struct IGMXV2Event.StringKeyValue[]","components":[{"name":"key","type":"string","internalType":"string"},{"name":"value","type":"string","internalType":"string"}]},{"name":"arrayItems","type":"tuple[]","internalType":"struct IGMXV2Event.StringArrayKeyValue[]","components":[{"name":"key","type":"string","internalType":"string"},{"name":"value","type":"string[]","internalType":"string[]"}]}]}]}],"outputs":[],"stateMutability":"nonpayable"},{"type":"function","name":"getClaimableCollateralKeyToClaimableCollateralInfo","inputs":[{"name":"_key","type":"bytes32","internalType":"bytes32"}],"outputs":[{"name":"info_","type":"tuple","internalType":"struct GMXV2LeverageTradingPositionLibBase1.ClaimableCollateralInfo","components":[{"name":"token","type":"address","internalType":"address"},{"name":"market","type":"address","internalType":"address"},{"name":"timeKey","type":"uint256","internalType":"uint256"}]}],"stateMutability":"view"},{"type":"function","name":"getClaimableCollateralKeys","inputs":[],"outputs":[{"name":"claimableCollateralKeys_","type":"bytes32[]","internalType":"bytes32[]"}],"stateMutability":"view"},{"type":"function","name":"getDebtAssets","inputs":[],"outputs":[{"name":"assets_","type":"address[]","internalType":"address[]"},{"name":"amounts_","type":"uint256[]","internalType":"uint256[]"}],"stateMutability":"view"},{"type":"function","name":"getManagedAssets","inputs":[],"outputs":[{"name":"assets_","type":"address[]","internalType":"address[]"},{"name":"amounts_","type":"uint256[]","internalType":"uint256[]"}],"stateMutability":"nonpayable"},{"type":"function","name":"getMarketToIsCallbackContractSet","inputs":[{"name":"_market","type":"address","internalType":"address"}],"outputs":[{"name":"isCallbackContractSet_","type":"bool","internalType":"bool"}],"stateMutability":"view"},{"type":"function","name":"getTrackedAssets","inputs":[],"outputs":[{"name":"trackedAssets_","type":"address[]","internalType":"address[]"}],"stateMutability":"view"},{"type":"function","name":"getTrackedMarkets","inputs":[],"outputs":[{"name":"trackedMarkets_","type":"address[]","internalType":"address[]"}],"stateMutability":"view"},{"type":"function","name":"init","inputs":[{"name":"","type":"bytes","internalType":"bytes"}],"outputs":[],"stateMutability":"nonpayable"},{"type":"function","name":"receiveCallFromVault","inputs":[{"name":"_actionData","type":"bytes","internalType":"bytes"}],"outputs":[],"stateMutability":"nonpayable"},{"type":"event","name":"CallbackContractSet","inputs":[{"name":"market","type":"address","indexed":false,"internalType":"address"}],"anonymous":false},{"type":"event","name":"ClaimableCollateralAdded","inputs":[{"name":"claimableCollateralKey","type":"bytes32","indexed":false,"internalType":"bytes32"},{"name":"token","type":"address","indexed":false,"internalType":"address"},{"name":"market","type":"address","indexed":false,"internalType":"address"},{"name":"timeKey","type":"uint256","indexed":false,"internalType":"uint256"}],"anonymous":false},{"type":"event","name":"ClaimableCollateralRemoved","inputs":[{"name":"claimableCollateralKey","type":"bytes32","indexed":false,"internalType":"bytes32"}],"anonymous":false},{"type":"event","name":"TrackedAssetAdded","inputs":[{"name":"asset","type":"address","indexed":false,"internalType":"address"}],"anonymous":false},{"type":"event","name":"TrackedAssetsCleared","inputs":[],"anonymous":false},{"type":"event","name":"TrackedMarketAdded","inputs":[{"name":"market","type":"address","indexed":false,"internalType":"address"}],"anonymous":false},{"type":"event","name":"TrackedMarketRemoved","inputs":[{"name":"market","type":"address","indexed":false,"internalType":"address"}],"anonymous":false},{"type":"error","name":"InvalidActionId","inputs":[]},{"type":"error","name":"InvalidCallbackAccount","inputs":[]},{"type":"error","name":"InvalidHandler","inputs":[]},{"type":"error","name":"InvalidOrderType","inputs":[{"name":"orderType","type":"uint8","internalType":"enum IGMXV2Order.OrderType"}]}],"bytecode":{"object":"0x6101a06040523480156200001257600080fd5b5060405162005ec738038062005ec78339810160408190526200003591620000ee565b6001600160a01b0397881660805294871660a05260c09790975293851660e0526101009190915283166101205290821661014052918116610160521661018052620001c9565b805b81146200008957600080fd5b50565b805162000099816200007b565b92915050565b60006001600160a01b03821662000099565b600062000099826200009f565b6200007d81620000b1565b80516200009981620000be565b6200007d816200009f565b80516200009981620000d6565b60008060008060008060008060006101208a8c031215620001125762000112600080fd5b6000620001208c8c6200008c565b9950506020620001338c828d01620000c9565b9850506040620001468c828d01620000c9565b9750506060620001598c828d01620000c9565b96505060806200016c8c828d016200008c565b95505060a06200017f8c828d01620000e1565b94505060c0620001928c828d01620000c9565b93505060e0620001a58c828d01620000e1565b925050610100620001b98c828d01620000c9565b9150509295985092959850929598565b60805160a05160c05160e0516101005161012051610140516101605161018051615bf3620002d46000396000818161019c01528181610b3801528181611901015281816119570152611a3601526000818161016801526120b10152600081816102b801526107a9015260006101c301526000818161021e015261223a01526000818161012b01526104200152600081816101ea0152612196015260008181610291015281816108a601528181610c2701528181611bce0152611cb201526000818161038f0152818161049d015281816108db0152818161094a01528181610c54015281816111e30152818161127401528181611bfb01528181611cdf0152611dbe0152615bf36000f3fe608060405234801561001057600080fd5b50600436106101215760003560e01c8063721f499c116100ad578063c1d07cc211610071578063c1d07cc21461038a578063c4b97370146103b1578063e5c23a97146103b9578063ecd658b4146103cc578063eed1a37a146103d457600080fd5b8063721f499c146102b357806380daddb8146102da5780638b9e55dc146102f05780639231b0fc146103035780639e61105e1461037557600080fd5b806333d608f1116100f457806333d608f1146101e55780633583849a14610219578063449efa50146102405780634ddf47d414610279578063698eec441461028c57600080fd5b806307159e971461012657806308b3b26b146101635780631b3f8c5e146101975780632091304b146101be575b600080fd5b61014d7f000000000000000000000000000000000000000000000000000000000000000081565b60405161015a9190612963565b60405180910390f35b61018a7f000000000000000000000000000000000000000000000000000000000000000081565b60405161015a919061298b565b61014d7f000000000000000000000000000000000000000000000000000000000000000081565b61018a7f000000000000000000000000000000000000000000000000000000000000000081565b61020c7f000000000000000000000000000000000000000000000000000000000000000081565b60405161015a919061299f565b61020c7f000000000000000000000000000000000000000000000000000000000000000081565b61026c61024e3660046129cc565b6001600160a01b031660009081526020819052604090205460ff1690565b60405161015a91906129f5565b61028a610287366004612afc565b50565b005b61014d7f000000000000000000000000000000000000000000000000000000000000000081565b61014d7f000000000000000000000000000000000000000000000000000000000000000081565b6102e26103e9565b60405161015a929190612bdd565b61028a6102fe3660046143be565b610464565b610368610311366004614442565b60408051606080820183526000808352602080840182905292840181905293845260048252928290208251938401835280546001600160a01b03908116855260018201541691840191909152600201549082015290565b60405161015a919061449a565b61037d6105c4565b60405161015a91906144a8565b61014d7f000000000000000000000000000000000000000000000000000000000000000081565b61037d610626565b61028a6103c7366004612afc565b610686565b6060806102e2565b6103dc610722565b60405161015a91906144f7565b6040805160048152602481019091526020810180516001600160e01b031663101b5bb760e31b1790526060908190600090610445907f000000000000000000000000000000000000000000000000000000000000000090610779565b90508080602001905181019061045b9190614608565b92509250509091565b61046d336107a7565b8151516001600160a01b038116301461049957604051631b96384360e21b815260040160405180910390fd5b60007f00000000000000000000000000000000000000000000000000000000000000006001600160a01b031663bd02d0f56040516020016104d9906146b9565b604051602081830303815290604052805190602001206040518263ffffffff1660e01b815260040161050b919061299f565b602060405180830381865afa158015610528573d6000803e3d6000fd5b505050506040513d601f19601f8201168201806040525081019061054c91906146c9565b6105569042614716565b9050600061056b856000015160a00151610877565b9050610584856000015160a00151826040015184610946565b80606001516001600160a01b031681604001516001600160a01b0316146105bc576105bc856000015160a00151826060015184610946565b505050505050565b6060600280548060200260200160405190810160405280929190818152602001828054801561061c57602002820191906000526020600020905b81546001600160a01b031681526001909101906020018083116105fe575b5050505050905090565b6060600180548060200260200160405190810160405280929190818152602001828054801561061c576020028201919060005260206000209081546001600160a01b031681526001909101906020018083116105fe575050505050905090565b6000808280602001905181019061069d91906147a6565b9092509050816106b5576106b0816109f8565b505050565b600182036106c6576106b081610ae8565b600282036106d7576106b081610be6565b600382036106e8576106b081610d75565b600482036106f9576106b081611054565b60058203610709576106b061139b565b60405163703469d160e11b815260040160405180910390fd5b6060600380548060200260200160405190810160405280929190818152602001828054801561061c57602002820191906000526020600020905b81548152602001906001019080831161075c575050505050905090565b606061079e8383604051806060016040528060278152602001615bcc602791396115f4565b90505b92915050565b7f00000000000000000000000000000000000000000000000000000000000000006001600160a01b031663ac4ab3fb826040516020016107e69061482d565b604051602081830303815290604052805190602001206040518363ffffffff1660e01b815260040161081992919061483d565b602060405180830381865afa158015610836573d6000803e3d6000fd5b505050506040513d601f19601f8201168201806040525081019061085a9190614863565b6102875760405163d8f59fa560e01b815260040160405180910390fd5b604080516080810182526000808252602082018190528183018190526060820152905163714af34b60e01b81527f00000000000000000000000000000000000000000000000000000000000000006001600160a01b03169063714af34b90610905907f0000000000000000000000000000000000000000000000000000000000000000908690600401614884565b608060405180830381865afa158015610922573d6000803e3d6000fd5b505050506040513d601f19601f820116820180604052508101906107a19190614905565b60007f00000000000000000000000000000000000000000000000000000000000000006001600160a01b031663bd02d0f561098286868661166e565b6040518263ffffffff1660e01b815260040161099e919061299f565b602060405180830381865afa1580156109bb573d6000803e3d6000fd5b505050506040513d601f19601f820116820180604052508101906109df91906146c9565b905080156109f2576109f28484846116cc565b50505050565b600081806020019051810190610a0e9190614ac4565b9050610a1d8160a001516107a7565b600281604001516008811115610a3557610a356147f3565b03610a595760a0810151815151610a4c91906117e1565b610a55816118c0565b5050565b600481604001516008811115610a7157610a716147f3565b1480610a925750600681604001516008811115610a9057610a906147f3565b145b80610ab25750600581604001516008811115610ab057610ab06147f3565b145b15610ac057610a5581611a13565b806040015160405163795e0ddb60e11b8152600401610adf9190614b14565b60405180910390fd5b600081806020019051810190610afe9190614bfc565b9050610b0e8161010001516107a7565b60e081015115610b5f57610b5f610b29826101000151611ad8565b60e08301516001600160a01b037f0000000000000000000000000000000000000000000000000000000000000000169190611b9d565b8061010001516001600160a01b031663dd5baad2826000015183602001518460400151856060015186608001518760a001518860c001516040518863ffffffff1660e01b8152600401610bb89796959493929190614c1e565b600060405180830381600087803b158015610bd257600080fd5b505af11580156105bc573d6000803e3d6000fd5b600081806020019051810190610bfc9190614cb3565b9050610c0b81602001516107a7565b80516040516324b28db560e11b81526000916001600160a01b037f000000000000000000000000000000000000000000000000000000000000000016916349651b6a91610c7d917f00000000000000000000000000000000000000000000000000000000000000009190600401614cd4565b600060405180830381865afa158015610c9a573d6000803e3d6000fd5b505050506040513d6000823e601f3d908101601f19168201604052610cc29190810190614f81565b60208301518351604051637489ec2360e01b81529293506001600160a01b0390911691637489ec2391610cf79160040161299f565b600060405180830381600087803b158015610d1157600080fd5b505af1158015610d25573d6000803e3d6000fd5b50505050610d31611ba8565b60026020820151516008811115610d4a57610d4a6147f3565b036106b057602081015160600151815160c001516106b0916001600160a01b03909116903390611b9d565b600081806020019051810190610d8b9190615041565b9050610d9a81604001516107a7565b60408082015182516020840151925163c41b1ab360e01b81526001600160a01b039092169263c41b1ab392610dd5929190339060040161507b565b6000604051808303816000875af1158015610df4573d6000803e3d6000fd5b505050506040513d6000823e601f3d908101601f19168201604052610e1c91908101906150af565b506000610e27611bb4565b9050606060005b8251811015610e7f57610e6b838281518110610e4c57610e4c6150e9565b6020026020010151600001516020015183611c7690919063ffffffff16565b915080610e77816150ff565b915050610e2e565b506000610e8a611c98565b905060005b8151811015610f0c576000828281518110610eac57610eac6150e9565b6020026020010151905060026008811115610ec957610ec96147f3565b6020820151516008811115610ee057610ee06147f3565b03610ef957805160a00151610ef6908590611c76565b93505b5080610f04816150ff565b915050610e8f565b5060005b8451518110156105bc57600085600001518281518110610f3257610f326150e9565b60200260200101519050610f4f8185611d5590919063ffffffff16565b80610fc45750610fc2816002805480602002602001604051908101604052809291908181526020018280548015610faf57602002820191906000526020600020905b81546001600160a01b03168152600190910190602001808311610f91575b5050505050611d5590919063ffffffff16565b155b15610fcf5750611042565b6000610fda82610877565b905080606001516001600160a01b031681604001516001600160a01b0316146110105761100b828260600151611dba565b611013565b60005b61102582600001518360400151611dba565b61102f9190615119565b60000361103f5761103f82611e99565b50505b8061104c816150ff565b915050610f10565b60008180602001905181019061106a91906151cc565b905061107981606001516107a7565b80606001516001600160a01b031663e9249b57826000015183602001518460400151336040518563ffffffff1660e01b81526004016110bb9493929190615206565b6000604051808303816000875af11580156110da573d6000803e3d6000fd5b505050506040513d6000823e601f3d908101601f1916820160405261110291908101906150af565b5060005b8160400151518110156106b05760006111778360000151838151811061112e5761112e6150e9565b60200260200101518460200151848151811061114c5761114c6150e9565b60200260200101518560400151858151811061116a5761116a6150e9565b602002602001015161166e565b905060006111dd84600001518481518110611194576111946150e9565b6020026020010151856020015185815181106111b2576111b26150e9565b6020026020010151866040015186815181106111d0576111d06150e9565b6020026020010151611edf565b905060007f00000000000000000000000000000000000000000000000000000000000000006001600160a01b031663bd02d0f5846040518263ffffffff1660e01b815260040161122d919061299f565b602060405180830381865afa15801561124a573d6000803e3d6000fd5b505050506040513d601f19601f8201168201806040525081019061126e91906146c9565b905060007f00000000000000000000000000000000000000000000000000000000000000006001600160a01b031663bd02d0f5846040518263ffffffff1660e01b81526004016112be919061299f565b602060405180830381865afa1580156112db573d6000803e3d6000fd5b505050506040513d601f19601f820116820180604052508101906112ff91906146c9565b905080821161138457600084815260046020526040812080546001600160a01b031990811682556001820180549091169055600201819055611342600386611ef0565b90508015611382577f8ea559c5d00245baf00dbebc518ca4180a1e99c59aa2bfddb7395b1db7cfd7d885604051611379919061299f565b60405180910390a15b505b505050508080611393906150ff565b915050611106565b600060018054806020026020016040519081016040528092919081815260200182805480156113f357602002820191906000526020600020905b81546001600160a01b031681526001909101906020018083116113d5575b5050505050905060016000611408919061281e565b6040517fbe68b86a2877767aebbbd147688052686e8794545ed4f4746ac608e5da81f93f90600090a1600061143b611bb4565b905060005b815181101561149957600082828151811061145d5761145d6150e9565b602002602001015190508060200151604001516000146114865780516020015161148690611fc3565b5080611491816150ff565b915050611440565b5060006114a4611c98565b905060005b81518110156115215760008282815181106114c6576114c66150e9565b60200260200101519050600260088111156114e3576114e36147f3565b60208201515160088111156114fa576114fa6147f3565b0361150e57805160a0015161150e90611fc3565b5080611519816150ff565b9150506114a9565b5061152a611ba8565b60005b83518110156109f257600084828151811061154a5761154a6150e9565b602002602001015190506000816001600160a01b03166370a08231306040518263ffffffff1660e01b8152600401611582919061298b565b602060405180830381865afa15801561159f573d6000803e3d6000fd5b505050506040513d601f19601f820116820180604052508101906115c391906146c9565b905080156115df576115df6001600160a01b0383163383611b9d565b505080806115ec906150ff565b91505061152d565b6060600080856001600160a01b0316856040516116119190615279565b600060405180830381855af49150503d806000811461164c576040519150601f19603f3d011682016040523d82523d6000602084013e611651565b606091505b50915091506116628683838761200b565b925050505b9392505050565b600060405160200161167f906152b9565b60405160208183030381529060405280519060200120848484306040516020016116ad9594939291906152c9565b6040516020818303038152906040528051906020012090509392505050565b60006116d984848461166e565b6000818152600460205260409020600101549091506001600160a01b0316156117025750505050565b6003805460018181019092557fc2575a0e9e593c00f959f8c92f12db2869c3395a3b0502d05e2516446f71f85b01829055604080516060810182526001600160a01b03808716825287811660208381019182528385018881526000888152600490925290859020935184549084166001600160a01b03199182161785559151958401805496909316959091169490941790559151600290920191909155517fa8016e9e1d202cb1650b45eb73529034cf6bb633ae4c73beda292a3f77a89d40906117d3908390869088908790615315565b60405180910390a150505050565b6001600160a01b03811660009081526020819052604090205460ff16610a555760405163039fd84f60e11b81526001600160a01b0383169063073fb09e9061182f908490309060040161534a565b600060405180830381600087803b15801561184957600080fd5b505af115801561185d573d6000803e3d6000fd5b5050506001600160a01b03821660009081526020819052604090819020805460ff19166001179055517f669111c08006053f49c4c13e8480526e6a8be55408e4e6862865853a2424f50e91506118b490839061298b565b60405180910390a15050565b60006118cf8260a00151611ad8565b90506118ff818360200151602001518460000151602001516001600160a01b0316611b9d9092919063ffffffff16565b7f00000000000000000000000000000000000000000000000000000000000000006001600160a01b03168260000151602001516001600160a01b03161461197f5760208201516080015161197f906001600160a01b037f000000000000000000000000000000000000000000000000000000000000000016908390611b9d565b8160a001516001600160a01b0316636996807b61199b8461205c565b6040518263ffffffff1660e01b81526004016119b7919061558c565b6020604051808303816000875af11580156119d6573d6000803e3d6000fd5b505050506040513d601f19601f820116820180604052508101906119fa91906146c9565b50815151611a0790611fc3565b815151610a5590612264565b611a5d611a238260a00151611ad8565b6020830151608001516001600160a01b037f0000000000000000000000000000000000000000000000000000000000000000169190611b9d565b8060a001516001600160a01b0316636996807b611a798361205c565b6040518263ffffffff1660e01b8152600401611a95919061558c565b6020604051808303816000875af1158015611ab4573d6000803e3d6000fd5b505050506040513d601f19601f82011682018060405250810190610a5591906146c9565b6000816001600160a01b031663b58483056040518163ffffffff1660e01b8152600401602060405180830381865afa158015611b18573d6000803e3d6000fd5b505050506040513d601f19601f82011682018060405250810190611b3c91906155bc565b6001600160a01b03166393845e466040518163ffffffff1660e01b8152600401602060405180830381865afa158015611b79573d6000803e3d6000fd5b505050506040513d601f19601f820116820180604052508101906107a191906155dd565b6106b08383836122ee565b611bb23347612344565b565b604051633be7d8b160e11b81526060906001600160a01b037f000000000000000000000000000000000000000000000000000000000000000016906377cfb16290611c2c907f000000000000000000000000000000000000000000000000000000000000000090309060009060001990600401615613565b600060405180830381865afa158015611c49573d6000803e3d6000fd5b505050506040513d6000823e601f3d908101601f19168201604052611c719190810190615849565b905090565b6060611c828383611d55565b15611c8e5750816107a1565b61079e83836123e0565b6040516342a6f8d360e01b81526060906001600160a01b037f000000000000000000000000000000000000000000000000000000000000000016906342a6f8d390611d10907f000000000000000000000000000000000000000000000000000000000000000090309060009060001990600401615613565b600060405180830381865afa158015611d2d573d6000803e3d6000fd5b505050506040513d6000823e601f3d908101601f19168201604052611c719190810190615914565b6000805b8351811015611db057838181518110611d7457611d746150e9565b60200260200101516001600160a01b0316836001600160a01b031603611d9e5760019150506107a1565b80611da8816150ff565b915050611d59565b5060009392505050565b60007f00000000000000000000000000000000000000000000000000000000000000006001600160a01b031663bd02d0f5604051602001611dfa90615982565b60405160208183030381529060405280519060200120858530604051602001611e269493929190615992565b604051602081830303815290604052805190602001206040518263ffffffff1660e01b8152600401611e58919061299f565b602060405180830381865afa158015611e75573d6000803e3d6000fd5b505050506040513d601f19601f8201168201806040525081019061079e91906146c9565b611ea46002826124d0565b507fb2b8057bebef48929f4c98a8496e9d77df569681c8b5cbaaab4e5961a4aeb09181604051611ed4919061298b565b60405180910390a150565b600060405160200161167f906159fb565b8154600090815b81811015611fbb5783858281548110611f1257611f126150e9565b906000526020600020015403611fa957611f2d600183615a0b565b811015611f7a5784611f40600184615a0b565b81548110611f5057611f506150e9565b9060005260206000200154858281548110611f6d57611f6d6150e9565b6000918252602090912001555b84805480611f8a57611f8a615a1e565b6001900381819060005260206000200160009055905560019250611fbb565b80611fb3816150ff565b915050611ef7565b505092915050565b6000611fce82610877565b9050611fdd81604001516125ef565b80606001516001600160a01b031681604001516001600160a01b031614610a5557610a5581606001516125ef565b6060831561204a578251600003612043576001600160a01b0385163b6120435760405162461bcd60e51b8152600401610adf90615a68565b5081612054565b6120548383612678565b949350505050565b61206461283c565b6040805160e0810182523080825260208201526000918101600285604001516008811115612094576120946147f3565b1461209f57306120a2565b60005b6001600160a01b0390811682527f000000000000000000000000000000000000000000000000000000000000000081166020808401919091528651518216604084015286510151166060820152608001600060405190808252806020026020018201604052801561211d578160200160208202803683370190505b509052604080516101008082018352838252825190810183526020878101805151835280518201518284015280518501518386015280516060908101519084015251608090810151908301529287015193945090929183019160a0820190600290600881111561218f5761218f6147f3565b146121ba577f00000000000000000000000000000000000000000000000000000000000000006121bd565b60005b8152602001866020015160a001518152602001866020015160c001518152508152602001846040015160088111156121f7576121f76147f3565b815260200184606001516002811115612212576122126147f3565b81526020018460800151151581526020016000151581526020018460c00151151581526020017f0000000000000000000000000000000000000000000000000000000000000000815250915050919050565b61226f6002826126a2565b61028757600280546001810182556000919091527f405787fa12a823e0f2b7631cc41b3ba8828b3321ca811111fa75cd3aa3bb5ace0180546001600160a01b0319166001600160a01b0383161790556040517feca989eaf67bd5b0fd2079414a3cacc14cd3df5765a27bc1efe2c3220fb6deb890611ed490839061298b565b6106b08363a9059cbb60e01b848460405160240161230d92919061483d565b60408051601f198184030181529190526020810180516001600160e01b03166001600160e01b03199093169290921790915261270a565b804710156123645760405162461bcd60e51b8152600401610adf90615aac565b6000826001600160a01b03168260405161237d90615abc565b60006040518083038185875af1925050503d80600081146123ba576040519150601f19603f3d011682016040523d82523d6000602084013e6123bf565b606091505b50509050806106b05760405162461bcd60e51b8152600401610adf90615b21565b6060825160016123f09190615119565b6001600160401b0381111561240757612407612a03565b604051908082528060200260200182016040528015612430578160200160208202803683370190505b50905060005b835181101561249557838181518110612451576124516150e9565b602002602001015182828151811061246b5761246b6150e9565b6001600160a01b03909216602092830291909101909101528061248d816150ff565b915050612436565b5081818451815181106124aa576124aa6150e9565b60200260200101906001600160a01b031690816001600160a01b03168152505092915050565b8154600090815b81811015611fbb57836001600160a01b03168582815481106124fb576124fb6150e9565b6000918252602090912001546001600160a01b0316036125dd57612520600183615a0b565b8110156125a25784612533600184615a0b565b81548110612543576125436150e9565b9060005260206000200160009054906101000a90046001600160a01b0316858281548110612573576125736150e9565b9060005260206000200160006101000a8154816001600160a01b0302191690836001600160a01b031602179055505b848054806125b2576125b2615a1e565b600082815260209020810160001990810180546001600160a01b031916905501905560019250611fbb565b806125e7816150ff565b9150506124d7565b6125fa6001826126a2565b610287576001805480820182556000919091527fb10e2d527612073b26eecdfd717e6a320cf44b4afac2b0732d9fcbe2b7fa0cf60180546001600160a01b0319166001600160a01b0383161790556040517fa0d2bfad19dc0c6970d2a2fcff65458a6d7c4fa3b6d904f44961b2c744bdf59190611ed490839061298b565b8151156126885781518083602001fd5b8060405162461bcd60e51b8152600401610adf9190615b63565b8154600090815b818110156126ff578481815481106126c3576126c36150e9565b6000918252602090912001546001600160a01b03908116908516036126ed576001925050506107a1565b806126f7816150ff565b9150506126a9565b506000949350505050565b600061275f826040518060400160405280602081526020017f5361666545524332303a206c6f772d6c6576656c2063616c6c206661696c6564815250856001600160a01b03166127999092919063ffffffff16565b8051909150156106b0578080602001905181019061277d9190614863565b6106b05760405162461bcd60e51b8152600401610adf90615bbb565b6060612054848460008585600080866001600160a01b031685876040516127c09190615279565b60006040518083038185875af1925050503d80600081146127fd576040519150601f19603f3d011682016040523d82523d6000602084013e612802565b606091505b50915091506128138783838761200b565b979650505050505050565b50805460008255906000526020600020908101906102879190612902565b604080516101e081019091526000610100820181815261012083018290526101408301829052610160830182905261018083018290526101a083019190915260606101c0830152819081526020016128d260405180610100016040528060008152602001600081526020016000815260200160008152602001600081526020016000815260200160008152602001600081525090565b81526020016000815260200160008152600060208201819052604082018190526060820181905260809091015290565b5b808211156129175760008155600101612903565b5090565b60006107a16001600160a01b038316612932565b90565b6001600160a01b031690565b60006107a18261291b565b60006107a18261293e565b61295d81612949565b82525050565b602081016107a18284612954565b60006001600160a01b0382166107a1565b61295d81612971565b602081016107a18284612982565b8061295d565b602081016107a18284612999565b6129b681612971565b811461028757600080fd5b80356107a1816129ad565b6000602082840312156129e1576129e1600080fd5b600061205484846129c1565b80151561295d565b602081016107a182846129ed565b634e487b7160e01b600052604160045260246000fd5b601f19601f83011681018181106001600160401b0382111715612a3e57612a3e612a03565b6040525050565b6000612a5060405190565b9050612a5c8282612a19565b919050565b60006001600160401b03821115612a7a57612a7a612a03565b601f19601f83011660200192915050565b82818337506000910152565b6000612aaa612aa584612a61565b612a45565b905082815260208101848484011115612ac557612ac5600080fd5b612ad0848285612a8b565b509392505050565b600082601f830112612aec57612aec600080fd5b8135612054848260208601612a97565b600060208284031215612b1157612b11600080fd5b81356001600160401b03811115612b2a57612b2a600080fd5b61205484828501612ad8565b6000612b428383612982565b505060200190565b6000612b54825190565b80845260209384019383018060005b83811015612b88578151612b778882612b36565b975060208301925050600101612b63565b509495945050505050565b6000612b428383612999565b6000612ba9825190565b80845260209384019383018060005b83811015612b88578151612bcc8882612b93565b975060208301925050600101612bb8565b60408082528101612bee8185612b4a565b905081810360208301526120548184612b9f565b806129b6565b80356107a181612c02565b60006001600160401b03821115612c2c57612c2c612a03565b5060209081020190565b6000612c44612aa584612c13565b83815290506020808201908402830185811115612c6357612c63600080fd5b835b81811015612c875780612c7888826129c1565b84525060209283019201612c65565b5050509392505050565b600082601f830112612ca557612ca5600080fd5b8135612054848260208601612c36565b60006101008284031215612ccb57612ccb600080fd5b612cd6610100612a45565b90506000612ce484846129c1565b8252506020612cf5848483016129c1565b6020830152506040612d09848285016129c1565b6040830152506060612d1d848285016129c1565b6060830152506080612d31848285016129c1565b60808301525060a0612d45848285016129c1565b60a08301525060c0612d59848285016129c1565b60c08301525060e08201356001600160401b03811115612d7b57612d7b600080fd5b612d8784828501612c91565b60e08301525092915050565b6009811061028757600080fd5b80356107a181612d93565b6003811061028757600080fd5b80356107a181612dab565b60006101608284031215612dd957612dd9600080fd5b612de4610160612a45565b90506000612df28484612da0565b8252506020612e0384848301612db8565b6020830152506040612e1784828501612c08565b6040830152506060612e2b84828501612c08565b6060830152506080612e3f84828501612c08565b60808301525060a0612e5384828501612c08565b60a08301525060c0612e6784828501612c08565b60c08301525060e0612e7b84828501612c08565b60e083015250610100612e9084828501612c08565b61010083015250610120612ea684828501612c08565b61012083015250610140612ebc84828501612c08565b6101408301525092915050565b8015156129b6565b80356107a181612ec9565b600060808284031215612ef157612ef1600080fd5b612efb6080612a45565b90506000612f098484612ed1565b8252506020612f1a84848301612ed1565b6020830152506040612f2e84828501612ed1565b6040830152506060612f4284828501612ed1565b60608301525092915050565b60006102008284031215612f6457612f64600080fd5b612f6e6060612a45565b905081356001600160401b03811115612f8957612f89600080fd5b612f9584828501612cb5565b8252506020612fa684848301612dc3565b602083015250610180612fbb84828501612edc565b60408301525092915050565b600060408284031215612fdc57612fdc600080fd5b612fe66040612a45565b905081356001600160401b0381111561300157613001600080fd5b61300d84828501612ad8565b825250602061301e848483016129c1565b60208301525092915050565b6000613038612aa584612c13565b8381529050602080820190840283018581111561305757613057600080fd5b835b81811015612c875780356001600160401b0381111561307a5761307a600080fd5b8086016130878982612fc7565b8552505060209283019201613059565b600082601f8301126130ab576130ab600080fd5b813561205484826020860161302a565b6000604082840312156130d0576130d0600080fd5b6130da6040612a45565b905081356001600160401b038111156130f5576130f5600080fd5b61310184828501612ad8565b82525060208201356001600160401b0381111561312057613120600080fd5b61301e84828501612c91565b600061313a612aa584612c13565b8381529050602080820190840283018581111561315957613159600080fd5b835b81811015612c875780356001600160401b0381111561317c5761317c600080fd5b80860161318989826130bb565b855250506020928301920161315b565b600082601f8301126131ad576131ad600080fd5b813561205484826020860161312c565b6000604082840312156131d2576131d2600080fd5b6131dc6040612a45565b905081356001600160401b038111156131f7576131f7600080fd5b61320384828501613097565b82525060208201356001600160401b0381111561322257613222600080fd5b61301e84828501613199565b60006040828403121561324357613243600080fd5b61324d6040612a45565b905081356001600160401b0381111561326857613268600080fd5b61327484828501612ad8565b825250602061301e84848301612c08565b6000613293612aa584612c13565b838152905060208082019084028301858111156132b2576132b2600080fd5b835b81811015612c875780356001600160401b038111156132d5576132d5600080fd5b8086016132e2898261322e565b85525050602092830192016132b4565b600082601f83011261330657613306600080fd5b8135612054848260208601613285565b6000613324612aa584612c13565b8381529050602080820190840283018581111561334357613343600080fd5b835b81811015612c8757806133588882612c08565b84525060209283019201613345565b600082601f83011261337b5761337b600080fd5b8135612054848260208601613316565b6000604082840312156133a0576133a0600080fd5b6133aa6040612a45565b905081356001600160401b038111156133c5576133c5600080fd5b6133d184828501612ad8565b82525060208201356001600160401b038111156133f0576133f0600080fd5b61301e84828501613367565b600061340a612aa584612c13565b8381529050602080820190840283018581111561342957613429600080fd5b835b81811015612c875780356001600160401b0381111561344c5761344c600080fd5b808601613459898261338b565b855250506020928301920161342b565b600082601f83011261347d5761347d600080fd5b81356120548482602086016133fc565b6000604082840312156134a2576134a2600080fd5b6134ac6040612a45565b905081356001600160401b038111156134c7576134c7600080fd5b6134d3848285016132f2565b82525060208201356001600160401b038111156134f2576134f2600080fd5b61301e84828501613469565b600061350c612aa584612c13565b8381529050602080820190840283018581111561352b5761352b600080fd5b835b81811015612c875780356001600160401b0381111561354e5761354e600080fd5b80860161355b898261322e565b855250506020928301920161352d565b600082601f83011261357f5761357f600080fd5b81356120548482602086016134fe565b600061359d612aa584612c13565b838152905060208082019084028301858111156135bc576135bc600080fd5b835b81811015612c8757806135d18882612c08565b845250602092830192016135be565b600082601f8301126135f4576135f4600080fd5b813561205484826020860161358f565b60006040828403121561361957613619600080fd5b6136236040612a45565b905081356001600160401b0381111561363e5761363e600080fd5b61364a84828501612ad8565b82525060208201356001600160401b0381111561366957613669600080fd5b61301e848285016135e0565b6000613683612aa584612c13565b838152905060208082019084028301858111156136a2576136a2600080fd5b835b81811015612c875780356001600160401b038111156136c5576136c5600080fd5b8086016136d28982613604565b85525050602092830192016136a4565b600082601f8301126136f6576136f6600080fd5b8135612054848260208601613675565b60006040828403121561371b5761371b600080fd5b6137256040612a45565b905081356001600160401b0381111561374057613740600080fd5b61374c8482850161356b565b82525060208201356001600160401b0381111561376b5761376b600080fd5b61301e848285016136e2565b60006040828403121561378c5761378c600080fd5b6137966040612a45565b905081356001600160401b038111156137b1576137b1600080fd5b6137bd84828501612ad8565b825250602061301e84848301612ed1565b60006137dc612aa584612c13565b838152905060208082019084028301858111156137fb576137fb600080fd5b835b81811015612c875780356001600160401b0381111561381e5761381e600080fd5b80860161382b8982613777565b85525050602092830192016137fd565b600082601f83011261384f5761384f600080fd5b81356120548482602086016137ce565b600061386d612aa584612c13565b8381529050602080820190840283018581111561388c5761388c600080fd5b835b81811015612c8757806138a18882612ed1565b8452506020928301920161388e565b600082601f8301126138c4576138c4600080fd5b813561205484826020860161385f565b6000604082840312156138e9576138e9600080fd5b6138f36040612a45565b905081356001600160401b0381111561390e5761390e600080fd5b61391a84828501612ad8565b82525060208201356001600160401b0381111561393957613939600080fd5b61301e848285016138b0565b6000613953612aa584612c13565b8381529050602080820190840283018581111561397257613972600080fd5b835b81811015612c875780356001600160401b0381111561399557613995600080fd5b8086016139a289826138d4565b8552505060209283019201613974565b600082601f8301126139c6576139c6600080fd5b8135612054848260208601613945565b6000604082840312156139eb576139eb600080fd5b6139f56040612a45565b905081356001600160401b03811115613a1057613a10600080fd5b613a1c8482850161383b565b82525060208201356001600160401b03811115613a3b57613a3b600080fd5b61301e848285016139b2565b6000613a55612aa584612c13565b83815290506020808201908402830185811115613a7457613a74600080fd5b835b81811015612c875780356001600160401b03811115613a9757613a97600080fd5b808601613aa4898261322e565b8552505060209283019201613a76565b600082601f830112613ac857613ac8600080fd5b8135612054848260208601613a47565b6000613ae6612aa584612c13565b83815290506020808201908402830185811115613b0557613b05600080fd5b835b81811015612c875780613b1a8882612c08565b84525060209283019201613b07565b600082601f830112613b3d57613b3d600080fd5b8135612054848260208601613ad8565b600060408284031215613b6257613b62600080fd5b613b6c6040612a45565b905081356001600160401b03811115613b8757613b87600080fd5b613b9384828501612ad8565b82525060208201356001600160401b03811115613bb257613bb2600080fd5b61301e84828501613b29565b6000613bcc612aa584612c13565b83815290506020808201908402830185811115613beb57613beb600080fd5b835b81811015612c875780356001600160401b03811115613c0e57613c0e600080fd5b808601613c1b8982613b4d565b8552505060209283019201613bed565b600082601f830112613c3f57613c3f600080fd5b8135612054848260208601613bbe565b600060408284031215613c6457613c64600080fd5b613c6e6040612a45565b905081356001600160401b03811115613c8957613c89600080fd5b613c9584828501613ab4565b82525060208201356001600160401b03811115613cb457613cb4600080fd5b61301e84828501613c2b565b600060408284031215613cd557613cd5600080fd5b613cdf6040612a45565b905081356001600160401b03811115613cfa57613cfa600080fd5b613d0684828501612ad8565b82525060208201356001600160401b03811115613d2557613d25600080fd5b61301e84828501612ad8565b6000613d3f612aa584612c13565b83815290506020808201908402830185811115613d5e57613d5e600080fd5b835b81811015612c875780356001600160401b03811115613d8157613d81600080fd5b808601613d8e8982613cc0565b8552505060209283019201613d60565b600082601f830112613db257613db2600080fd5b8135612054848260208601613d31565b6000613dd0612aa584612c13565b83815290506020808201908402830185811115613def57613def600080fd5b835b81811015612c875780356001600160401b03811115613e1257613e12600080fd5b808601613e1f8982612ad8565b8552505060209283019201613df1565b600082601f830112613e4357613e43600080fd5b8135612054848260208601613dc2565b600060408284031215613e6857613e68600080fd5b613e726040612a45565b905081356001600160401b03811115613e8d57613e8d600080fd5b613e9984828501612ad8565b82525060208201356001600160401b03811115613eb857613eb8600080fd5b61301e84828501613e2f565b6000613ed2612aa584612c13565b83815290506020808201908402830185811115613ef157613ef1600080fd5b835b81811015612c875780356001600160401b03811115613f1457613f14600080fd5b808601613f218982613e53565b8552505060209283019201613ef3565b600082601f830112613f4557613f45600080fd5b8135612054848260208601613ec4565b600060408284031215613f6a57613f6a600080fd5b613f746040612a45565b905081356001600160401b03811115613f8f57613f8f600080fd5b613f9b84828501613d9e565b82525060208201356001600160401b03811115613fba57613fba600080fd5b61301e84828501613f31565b6000613fd4612aa584612c13565b83815290506020808201908402830185811115613ff357613ff3600080fd5b835b81811015612c875780356001600160401b0381111561401657614016600080fd5b8086016140238982613cc0565b8552505060209283019201613ff5565b600082601f83011261404757614047600080fd5b8135612054848260208601613fc6565b6000614065612aa584612c13565b8381529050602080820190840283018581111561408457614084600080fd5b835b81811015612c875780356001600160401b038111156140a7576140a7600080fd5b8086016140b48982612ad8565b8552505060209283019201614086565b600082601f8301126140d8576140d8600080fd5b8135612054848260208601614057565b6000604082840312156140fd576140fd600080fd5b6141076040612a45565b905081356001600160401b0381111561412257614122600080fd5b61412e84828501612ad8565b82525060208201356001600160401b0381111561414d5761414d600080fd5b61301e848285016140c4565b6000614167612aa584612c13565b8381529050602080820190840283018581111561418657614186600080fd5b835b81811015612c875780356001600160401b038111156141a9576141a9600080fd5b8086016141b689826140e8565b8552505060209283019201614188565b600082601f8301126141da576141da600080fd5b8135612054848260208601614159565b6000604082840312156141ff576141ff600080fd5b6142096040612a45565b905081356001600160401b0381111561422457614224600080fd5b61423084828501614033565b82525060208201356001600160401b0381111561424f5761424f600080fd5b61301e848285016141c6565b600060e0828403121561427057614270600080fd5b61427a60e0612a45565b905081356001600160401b0381111561429557614295600080fd5b6142a1848285016131bd565b82525060208201356001600160401b038111156142c0576142c0600080fd5b6142cc8482850161348d565b60208301525060408201356001600160401b038111156142ee576142ee600080fd5b6142fa84828501613706565b60408301525060608201356001600160401b0381111561431c5761431c600080fd5b614328848285016139d6565b60608301525060808201356001600160401b0381111561434a5761434a600080fd5b61435684828501613c4f565b60808301525060a08201356001600160401b0381111561437857614378600080fd5b61438484828501613f55565b60a08301525060c08201356001600160401b038111156143a6576143a6600080fd5b6143b2848285016141ea565b60c08301525092915050565b6000806000606084860312156143d6576143d6600080fd5b60006143e28686612c08565b93505060208401356001600160401b0381111561440157614401600080fd5b61440d86828701612f4e565b92505060408401356001600160401b0381111561442c5761442c600080fd5b6144388682870161425b565b9150509250925092565b60006020828403121561445757614457600080fd5b60006120548484612c08565b805160608301906144748482612982565b5060208201516144876020850182612982565b5060408201516109f26040850182612999565b606081016107a18284614463565b6020808252810161079e8184612b4a565b60006144c3825190565b80845260209384019383018060005b83811015612b885781516144e68882612b93565b9750602083019250506001016144d2565b6020808252810161079e81846144b9565b80516107a1816129ad565b6000614521612aa584612c13565b8381529050602080820190840283018581111561454057614540600080fd5b835b81811015612c8757806145558882614508565b84525060209283019201614542565b600082601f83011261457857614578600080fd5b8151612054848260208601614513565b80516107a181612c02565b60006145a1612aa584612c13565b838152905060208082019084028301858111156145c0576145c0600080fd5b835b81811015612c8757806145d58882614588565b845250602092830192016145c2565b600082601f8301126145f8576145f8600080fd5b8151612054848260208601614593565b6000806040838503121561461e5761461e600080fd5b82516001600160401b0381111561463757614637600080fd5b61464385828601614564565b92505060208301516001600160401b0381111561466257614662600080fd5b61466e858286016145e4565b9150509250929050565b602181526000602082017f434c41494d41424c455f434f4c4c41544552414c5f54494d455f44495649534f8152602960f91b602082015291505b5060400190565b602080825281016107a181614678565b6000602082840312156146de576146de600080fd5b60006120548484614588565b634e487b7160e01b600052601260045260246000fd5b634e487b7160e01b600052601160045260246000fd5b600082614725576147256146ea565b500490565b60005b8381101561474557818101518382015260200161472d565b50506000910152565b600061475c612aa584612a61565b90508281526020810184848401111561477757614777600080fd5b612ad084828561472a565b600082601f83011261479657614796600080fd5b815161205484826020860161474e565b600080604083850312156147bc576147bc600080fd5b60006147c88585614588565b92505060208301516001600160401b038111156147e7576147e7600080fd5b61466e85828601614782565b634e487b7160e01b600052602160045260246000fd5b600a81526000602082016921a7a72a2927a62622a960b11b815291505b5060200190565b602080825281016107a181614809565b6040810161484b8285612982565b6116676020830184612999565b80516107a181612ec9565b60006020828403121561487857614878600080fd5b60006120548484614858565b604081016148928285612954565b6116676020830184612982565b6000608082840312156148b4576148b4600080fd5b6148be6080612a45565b905060006148cc8484614508565b82525060206148dd84848301614508565b60208301525060406148f184828501614508565b6040830152506060612f4284828501614508565b60006080828403121561491a5761491a600080fd5b6000612054848461489f565b60006040828403121561493b5761493b600080fd5b6149456040612a45565b905060006149538484614508565b825250602061301e84848301614508565b600060e0828403121561497957614979600080fd5b61498360e0612a45565b905060006149918484614588565b82525060206149a284848301614588565b60208301525060406149b684828501614588565b60408301525060606149ca84828501614588565b60608301525060806149de84828501614588565b60808301525060a06149f284828501614588565b60a08301525060c06143b284828501614588565b80516107a181612d93565b80516107a181612dab565b60006101c08284031215614a3257614a32600080fd5b614a3c60e0612a45565b90506000614a4a8484614926565b8252506040614a5b84848301614964565b602083015250610120614a7084828501614a06565b604083015250610140614a8584828501614a11565b606083015250610160614a9a84828501614858565b608083015250610180614aaf84828501614508565b60a0830152506101a06143b284828501614858565b60006101c08284031215614ada57614ada600080fd5b60006120548484614a1c565b60098110610287576102876147f3565b80612a5c81614ae6565b60006107a182614af6565b61295d81614b00565b602081016107a18284614b0b565b60006101208284031215614b3857614b38600080fd5b614b43610120612a45565b90506000614b518484614588565b8252506020614b6284848301614588565b6020830152506040614b7684828501614588565b6040830152506060614b8a84828501614588565b6060830152506080614b9e84828501614588565b60808301525060a0614bb284828501614588565b60a08301525060c0614bc684828501614858565b60c08301525060e0614bda84828501614588565b60e083015250610100614bef84828501614508565b6101008301525092915050565b60006101208284031215614c1257614c12600080fd5b60006120548484614b22565b60e08101614c2c828a612999565b614c396020830189612999565b614c466040830188612999565b614c536060830187612999565b614c606080830186612999565b614c6d60a0830185612999565b614c7a60c08301846129ed565b98975050505050505050565b600060408284031215614c9b57614c9b600080fd5b614ca56040612a45565b905060006149538484614588565b600060408284031215614cc857614cc8600080fd5b60006120548484614c86565b6040810161484b8285612954565b60006101008284031215614cf857614cf8600080fd5b614d03610100612a45565b90506000614d118484614508565b8252506020614d2284848301614508565b6020830152506040614d3684828501614508565b6040830152506060614d4a84828501614508565b6060830152506080614d5e84828501614508565b60808301525060a0614d7284828501614508565b60a08301525060c0614d8684828501614508565b60c08301525060e08201516001600160401b03811115614da857614da8600080fd5b612d8784828501614564565b60006101608284031215614dca57614dca600080fd5b614dd5610160612a45565b90506000614de38484614a06565b8252506020614df484848301614a11565b6020830152506040614e0884828501614588565b6040830152506060614e1c84828501614588565b6060830152506080614e3084828501614588565b60808301525060a0614e4484828501614588565b60a08301525060c0614e5884828501614588565b60c08301525060e0614e6c84828501614588565b60e083015250610100614e8184828501614588565b61010083015250610120614e9784828501614588565b61012083015250610140612ebc84828501614588565b600060808284031215614ec257614ec2600080fd5b614ecc6080612a45565b90506000614eda8484614858565b8252506020614eeb84848301614858565b6020830152506040614eff84828501614858565b6040830152506060612f4284828501614858565b60006102008284031215614f2957614f29600080fd5b614f336060612a45565b82519091506001600160401b03811115614f4f57614f4f600080fd5b614f5b84828501614ce2565b8252506020614f6c84848301614db4565b602083015250610180612fbb84828501614ead565b600060208284031215614f9657614f96600080fd5b81516001600160401b03811115614faf57614faf600080fd5b61205484828501614f13565b600060608284031215614fd057614fd0600080fd5b614fda6060612a45565b82519091506001600160401b03811115614ff657614ff6600080fd5b61500284828501614564565b82525060208201516001600160401b0381111561502157615021600080fd5b61502d84828501614564565b6020830152506040612fbb84828501614508565b60006020828403121561505657615056600080fd5b81516001600160401b0381111561506f5761506f600080fd5b61205484828501614fbb565b6060808252810161508c8186612b4a565b905081810360208301526150a08185612b4a565b90506120546040830184612982565b6000602082840312156150c4576150c4600080fd5b81516001600160401b038111156150dd576150dd600080fd5b612054848285016145e4565b634e487b7160e01b600052603260045260246000fd5b6000600019820361511257615112614700565b5060010190565b808201808211156107a1576107a1614700565b60006080828403121561514157615141600080fd5b61514b6080612a45565b82519091506001600160401b0381111561516757615167600080fd5b61517384828501614564565b82525060208201516001600160401b0381111561519257615192600080fd5b61519e84828501614564565b60208301525060408201516001600160401b038111156151c0576151c0600080fd5b6148f1848285016145e4565b6000602082840312156151e1576151e1600080fd5b81516001600160401b038111156151fa576151fa600080fd5b6120548482850161512c565b608080825281016152178187612b4a565b9050818103602083015261522b8186612b4a565b9050818103604083015261523f8185612b9f565b905061524e6060830184612982565b95945050505050565b6000615261825190565b61526f81856020860161472a565b9290920192915050565b60006116678284615257565b601b81526000602082017f434c41494d41424c455f434f4c4c41544552414c5f414d4f554e54000000000081529150614826565b602080825281016107a181615285565b60a081016152d78288612999565b6152e46020830187612982565b6152f16040830186612982565b6152fe6060830185612999565b61530b6080830184612982565b9695505050505050565b608081016153238287612999565b6153306020830186612982565b61533d6040830185612982565b61524e6060830184612999565b604081016148928285612982565b6000615362825190565b80845260209384019383018060005b83811015612b885781516153858882612b36565b975060208301925050600101615371565b805160009060e08401906153aa8582612982565b5060208301516153bd6020860182612982565b5060408301516153d06040860182612982565b5060608301516153e36060860182612982565b5060808301516153f66080860182612982565b5060a083015161540960a0860182612982565b5060c083015184820360c086015261524e8282615358565b80516101008301906154338482612999565b5060208201516154466020850182612999565b5060408201516154596040850182612999565b50606082015161546c6060850182612999565b50608082015161547f6080850182612999565b5060a082015161549260a0850182612999565b5060c08201516154a560c0850182612999565b5060e08201516109f260e0850182612999565b60038110610287576102876147f3565b80612a5c816154b8565b60006107a1826154c8565b61295d816154d2565b80516101e0808452600091908401906154ff8282615396565b91505060208301516155146020860182615421565b506040830151615528610120860182614b0b565b50606083015161553c6101408601826154dd565b5060808301516155506101608601826129ed565b5060a08301516155646101808601826129ed565b5060c08301516155786101a08601826129ed565b5060e0830151612ad06101c0860182612999565b6020808252810161079e81846154e6565b60006107a182612971565b6129b68161559d565b80516107a1816155a8565b6000602082840312156155d1576155d1600080fd5b600061205484846155b1565b6000602082840312156155f2576155f2600080fd5b60006120548484614508565b60006107a161292f8381565b61295d816155fe565b608081016156218287612954565b61562e6020830186612982565b61533d604083018561560a565b60006060828403121561565057615650600080fd5b61565a6060612a45565b905060006156688484614508565b825250602061502d84848301614508565b6000610120828403121561568f5761568f600080fd5b61569a610120612a45565b905060006156a88484614588565b82525060206156b984848301614588565b60208301525060406156cd84828501614588565b60408301525060606156e184828501614588565b60608301525060806156f584828501614588565b60808301525060a061570984828501614588565b60a08301525060c061571d84828501614588565b60c08301525060e061573184828501614588565b60e083015250610100614bef84828501614588565b60006020828403121561575b5761575b600080fd5b6157656020612a45565b905060006157738484614858565b82525092915050565b60006101a0828403121561579257615792600080fd5b61579c6060612a45565b905060006157aa848461563b565b82525060606157bb84848301615679565b602083015250610180612fbb84828501615746565b60006157de612aa584612c13565b8381529050602081016101a084028301858111156157fe576157fe600080fd5b835b81811015612c875780615813888261577c565b8452506020909201916101a001615800565b600082601f83011261583957615839600080fd5b81516120548482602086016157d0565b60006020828403121561585e5761585e600080fd5b81516001600160401b0381111561587757615877600080fd5b61205484828501615825565b6000615891612aa584612c13565b838152905060208082019084028301858111156158b0576158b0600080fd5b835b81811015612c875780516001600160401b038111156158d3576158d3600080fd5b8086016158e08982614f13565b85525050602092830192016158b2565b600082601f83011261590457615904600080fd5b8151612054848260208601615883565b60006020828403121561592957615929600080fd5b81516001600160401b0381111561594257615942600080fd5b612054848285016158f0565b601881526000602082017f434c41494d41424c455f46554e44494e475f414d4f554e54000000000000000081529150614826565b602080825281016107a18161594e565b608081016159a08287612999565b6159ad6020830186612982565b6159ba6040830185612982565b61524e6060830184612982565b601981526000602082017f434c41494d45445f434f4c4c41544552414c5f414d4f554e540000000000000081529150614826565b602080825281016107a1816159c7565b818103818111156107a1576107a1614700565b634e487b7160e01b600052603160045260246000fd5b601d81526000602082017f416464726573733a2063616c6c20746f206e6f6e2d636f6e747261637400000081529150614826565b602080825281016107a181615a34565b601d81526000602082017f416464726573733a20696e73756666696369656e742062616c616e636500000081529150614826565b602080825281016107a181615a78565b60006107a18261292f565b603a81526000602082017f416464726573733a20756e61626c6520746f2073656e642076616c75652c207281527f6563697069656e74206d61792068617665207265766572746564000000000000602082015291506146b2565b602080825281016107a181615ac7565b6000615b3b825190565b808452602084019350615b5281856020860161472a565b601f01601f19169290920192915050565b6020808252810161079e8184615b31565b602a81526000602082017f5361666545524332303a204552433230206f7065726174696f6e20646964206e8152691bdd081cdd58d8d9595960b21b602082015291506146b2565b602080825281016107a181615b7456fe416464726573733a206c6f772d6c6576656c2064656c65676174652063616c6c206661696c6564","linkReferences":{}},"methodIdentifiers":{"CALLBACK_GAS_LIMIT()":"33d608f1","DATA_STORE()":"c1d07cc2","MANAGED_ASSETS_LIB()":"07159e97","READER()":"698eec44","REFERRAL_CODE()":"3583849a","REFERRAL_STORAGE_ADDRESS()":"2091304b","ROLE_STORE()":"721f499c","UI_FEE_RECEIVER_ADDRESS()":"08b3b26b","WRAPPED_NATIVE_TOKEN()":"1b3f8c5e","afterOrderExecution(bytes32,((address,address,address,address,address,address,address,address[]),(uint8,uint8,uint256,uint256,uint256,uint256,uint256,uint256,uint256,uint256,uint256),(bool,bool,bool,bool)),(((string,address)[],(string,address[])[]),((string,uint256)[],(string,uint256[])[]),((string,int256)[],(string,int256[])[]),((string,bool)[],(string,bool[])[]),((string,bytes32)[],(string,bytes32[])[]),((string,bytes)[],(string,bytes[])[]),((string,string)[],(string,string[])[])))":"8b9e55dc","getClaimableCollateralKeyToClaimableCollateralInfo(bytes32)":"9231b0fc","getClaimableCollateralKeys()":"eed1a37a","getDebtAssets()":"ecd658b4","getManagedAssets()":"80daddb8","getMarketToIsCallbackContractSet(address)":"449efa50","getTrackedAssets()":"c4b97370","getTrackedMarkets()":"9e61105e","init(bytes)":"4ddf47d4","receiveCallFromVault(bytes)":"e5c23a97"},"id":116}