{"abi":[{"type":"constructor","inputs":[{"name":"_wethToken","type":"address","internalType":"address"},{"name":"_referrer","type":"address","internalType":"address"},{"name":"_addressListRegistry","type":"address","internalType":"contract IAddressListRegistry"},{"name":"_supportedImplementationsListID","type":"uint256","internalType":"uint256"}],"stateMutability":"nonpayable"},{"type":"function","name":"ADDRESS_LIST_REGISTRY","inputs":[],"outputs":[{"name":"","type":"address","internalType":"contract IAddressListRegistry"}],"stateMutability":"view"},{"type":"function","name":"SUPPORTED_IMPLEMENTATIONS_LIST_ID","inputs":[],"outputs":[{"name":"","type":"uint256","internalType":"uint256"}],"stateMutability":"view"},{"type":"function","name":"WETH_TOKEN","inputs":[],"outputs":[{"name":"","type":"address","internalType":"contract IWETH"}],"stateMutability":"view"},{"type":"function","name":"getDebtAssets","inputs":[],"outputs":[{"name":"assets_","type":"address[]","internalType":"address[]"},{"name":"amounts_","type":"uint256[]","internalType":"uint256[]"}],"stateMutability":"pure"},{"type":"function","name":"getExitRequests","inputs":[],"outputs":[{"name":"exitRequests_","type":"tuple[]","internalType":"struct IStakeWiseV3StakingPosition.ExitRequest[]","components":[{"name":"stakeWiseVaultAddress","type":"address","internalType":"address"},{"name":"positionTicket","type":"uint256","internalType":"uint256"},{"name":"timestamp","type":"uint256","internalType":"uint256"},{"name":"sharesAmount","type":"uint256","internalType":"uint256"}]}],"stateMutability":"view"},{"type":"function","name":"getManagedAssets","inputs":[],"outputs":[{"name":"assets_","type":"address[]","internalType":"address[]"},{"name":"amounts_","type":"uint256[]","internalType":"uint256[]"}],"stateMutability":"view"},{"type":"function","name":"getStakeWiseVaultTokens","inputs":[],"outputs":[{"name":"stakeWiseVaultTokens_","type":"address[]","internalType":"address[]"}],"stateMutability":"view"},{"type":"function","name":"init","inputs":[{"name":"","type":"bytes","internalType":"bytes"}],"outputs":[],"stateMutability":"nonpayable"},{"type":"function","name":"receiveCallFromVault","inputs":[{"name":"_actionData","type":"bytes","internalType":"bytes"}],"outputs":[],"stateMutability":"nonpayable"},{"type":"event","name":"ExitRequestAdded","inputs":[{"name":"stakeWiseVaultAddress","type":"address","indexed":true,"internalType":"address"},{"name":"positionTicket","type":"uint256","indexed":false,"internalType":"uint256"},{"name":"timestamp","type":"uint256","indexed":false,"internalType":"uint256"},{"name":"sharesAmount","type":"uint256","indexed":false,"internalType":"uint256"}],"anonymous":false},{"type":"event","name":"ExitRequestRemoved","inputs":[{"name":"stakeWiseVaultAddress","type":"address","indexed":true,"internalType":"address"},{"name":"positionTicket","type":"uint256","indexed":false,"internalType":"uint256"}],"anonymous":false},{"type":"event","name":"VaultTokenAdded","inputs":[{"name":"stakeWiseVaultAddress","type":"address","indexed":true,"internalType":"address"}],"anonymous":false},{"type":"event","name":"VaultTokenRemoved","inputs":[{"name":"stakeWiseVaultAddress","type":"address","indexed":true,"internalType":"address"}],"anonymous":false}],"bytecode":{"object":"0x6101006040523480156200001257600080fd5b5060405162001d9838038062001d988339810160408190526200003591620000cb565b6001600160a01b0393841660805291831660a05290911660c05260e05262000139565b60006001600160a01b0382165b92915050565b620000768162000058565b81146200008257600080fd5b50565b805162000065816200006b565b6000620000658262000058565b620000768162000092565b805162000065816200009f565b8062000076565b80516200006581620000b7565b60008060008060808587031215620000e657620000e6600080fd5b6000620000f4878762000085565b9450506020620001078782880162000085565b93505060406200011a87828801620000aa565b92505060606200012d87828801620000be565b91505092959194509250565b60805160a05160c05160e051611c0b6200018d60003960008181609d015261083f01526000818160da0152610810015260006109f901526000818161010e0152818161028c015261096a0152611c0b6000f3fe608060405234801561001057600080fd5b50600436106100935760003560e01c8063700380ba11610066578063700380ba1461014357806380daddb814610158578063d17de0f51461016e578063e5c23a9714610183578063ecd658b41461019657600080fd5b80631b6da13c1461009857806329bcea29146100d557806337d277d4146101095780634ddf47d414610130575b600080fd5b6100bf7f000000000000000000000000000000000000000000000000000000000000000081565b6040516100cc91906113aa565b60405180910390f35b6100fc7f000000000000000000000000000000000000000000000000000000000000000081565b6040516100cc91906113e8565b6100fc7f000000000000000000000000000000000000000000000000000000000000000081565b61014161013e3660046114f9565b50565b005b61014b61019e565b6040516100cc91906115e4565b610160610228565b6040516100cc929190611698565b610176610732565b6040516100cc91906116bd565b6101416101913660046114f9565b610794565b606080610160565b60606000805480602002602001604051908101604052809291908181526020016000905b8282101561021f576000848152602090819020604080516080810182526004860290920180546001600160a01b031683526001808201548486015260028201549284019290925260030154606083015290835290920191016101c2565b50505050905090565b60015460005460609182918115801561023f575080155b1561024a5750509091565b604080516001808252818301909252906020808301908036833750506040805160018082528183019092529296509050602080830190803683370190505092507f0000000000000000000000000000000000000000000000000000000000000000846000815181106102be576102be6116ce565b60200260200101906001600160a01b031690816001600160a01b03168152505060005b8281101561042e576000600182815481106102fe576102fe6116ce565b6000918252602090912001546001600160a01b0316905061031e8161080e565b60405163f04da65b60e01b81526001600160a01b038216906307a2d13a90829063f04da65b906103529030906004016116e4565b602060405180830381865afa15801561036f573d6000803e3d6000fd5b505050506040513d601f19601f82011682018060405250810190610393919061170a565b6040518263ffffffff1660e01b81526004016103af91906113aa565b602060405180830381865afa1580156103cc573d6000803e3d6000fd5b505050506040513d601f19601f820116820180604052508101906103f0919061170a565b85600081518110610403576104036116ce565b602002602001018181516104179190611741565b90525081905061042681611754565b9150506102e1565b5060005b8181101561072b57600080828154811061044e5761044e6116ce565b600091825260209182902060408051608081018252600490930290910180546001600160a01b031680845260018201549484019490945260028101549183019190915260030154606082015291506104a58161080e565b602082015160405163306b073760e11b81526000916001600160a01b038416916360d60e6e916104d7916004016113aa565b602060405180830381865afa1580156104f4573d6000803e3d6000fd5b505050506040513d601f19601f82011682018060405250810190610518919061170a565b905060008112156105c75760608301516040516303d1689d60e11b81526001600160a01b038416916307a2d13a9161055391906004016113aa565b602060405180830381865afa158015610570573d6000803e3d6000fd5b505050506040513d601f19601f82011682018060405250810190610594919061170a565b876000815181106105a7576105a76116ce565b602002602001018181516105bb9190611741565b90525061071992505050565b6020830151604080850151905163076b58b960e41b815260009283926001600160a01b038716926376b58b9092610604923092899060040161176e565b606060405180830381865afa158015610621573d6000803e3d6000fd5b505050506040513d601f19601f8201168201806040525081019061064591906117ac565b9250509150808960008151811061065e5761065e6116ce565b602002602001018181516106729190611741565b9052508115610713576040516303d1689d60e11b81526001600160a01b038516906307a2d13a906106a79085906004016113aa565b602060405180830381865afa1580156106c4573d6000803e3d6000fd5b505050506040513d601f19601f820116820180604052508101906106e8919061170a565b896000815181106106fb576106fb6116ce565b6020026020010181815161070f9190611741565b9052505b50505050505b8061072381611754565b915050610432565b5050509091565b6060600180548060200260200160405190810160405280929190818152602001828054801561078a57602002820191906000526020600020905b81546001600160a01b0316815260019091019060200180831161076c575b5050505050905090565b600080828060200190518101906107ab9190611878565b9092509050816107c3576107be8161093a565b505050565b600182036107ec5760405162461bcd60e51b81526004016107e3906118d0565b60405180910390fd5b600282036107fd576107be81610aed565b600382036107be576107be81610cce565b7f00000000000000000000000000000000000000000000000000000000000000006001600160a01b0316631c5632047f0000000000000000000000000000000000000000000000000000000000000000836001600160a01b0316635c60da1b6040518163ffffffff1660e01b8152600401602060405180830381865afa15801561089c573d6000803e3d6000fd5b505050506040513d601f19601f820116820180604052508101906108c09190611955565b6040518363ffffffff1660e01b81526004016108dd929190611976565b602060405180830381865afa1580156108fa573d6000803e3d6000fd5b505050506040513d601f19601f8201168201806040525081019061091e91906119a4565b61013e5760405162461bcd60e51b81526004016107e390611a1a565b60008061094683611078565b915091506109538261080e565b604051632e1a7d4d60e01b81526001600160a01b037f00000000000000000000000000000000000000000000000000000000000000001690632e1a7d4d9061099f9084906004016113aa565b600060405180830381600087803b1580156109b957600080fd5b505af11580156109cd573d6000803e3d6000fd5b5050604051631f2c13e160e31b81526001600160a01b038516925063f9609f0891508390610a219030907f000000000000000000000000000000000000000000000000000000000000000090600401611a2a565b60206040518083038185885af1158015610a3f573d6000803e3d6000fd5b50505050506040513d601f19601f82011682018060405250810190610a64919061170a565b50610a70600183611098565b6107be5760018054808201825560009182527fb10e2d527612073b26eecdfd717e6a320cf44b4afac2b0732d9fcbe2b7fa0cf60180546001600160a01b0319166001600160a01b03851690811790915560405190917f88ef01b059028b2eca86c5b93c590d72cdc40e9f86f5456836dfc9e4b6f647c691a2505050565b600080610af983611078565b91509150610b068261080e565b6040516346755cd560e11b81526000906001600160a01b03841690638ceab9aa90610b379085903090600401611976565b6020604051808303816000875af1158015610b56573d6000803e3d6000fd5b505050506040513d601f19601f82011682018060405250810190610b7a919061170a565b90506000198103610b9457610b8f3347611102565b610cbf565b604080516080810182526001600160a01b038581168083526020830185815242848601818152606086018981526000805460018101825590805296517f290decd9548b62a8d60345a988386fc84ba6bc95484008f6362f93160ef3e563600490980297880180546001600160a01b031916919097161790955591517f290decd9548b62a8d60345a988386fc84ba6bc95484008f6362f93160ef3e56486015590517f290decd9548b62a8d60345a988386fc84ba6bc95484008f6362f93160ef3e56585015591517f290decd9548b62a8d60345a988386fc84ba6bc95484008f6362f93160ef3e56690930192909255915190917fbcd4a56817fd755e873bbed6b8ca8ddeb89a2a3c04f2d147e9ed2073d4a0cb6691610cb69185918790611a38565b60405180910390a25b610cc88361119e565b50505050565b6000806000610cdc84611255565b925092509250610ceb8361080e565b60405163306b073760e11b81526000906001600160a01b038516906360d60e6e90610d1a9086906004016113aa565b602060405180830381865afa158015610d37573d6000803e3d6000fd5b505050506040513d601f19601f82011682018060405250810190610d5b919061170a565b90506000811215610d7e5760405162461bcd60e51b81526004016107e390611aba565b600080856001600160a01b03166376b58b90308787876040518563ffffffff1660e01b8152600401610db3949392919061176e565b606060405180830381865afa158015610dd0573d6000803e3d6000fd5b505050506040513d601f19601f82011682018060405250810190610df491906117ac565b5060405163434be96160e11b815291935091506001600160a01b03871690638697d2c290610e2a90889088908890600401611a38565b600060405180830381600087803b158015610e4457600080fd5b505af1158015610e58573d6000803e3d6000fd5b505060008054909250610e6e9150600190611aca565b905060005b818111611063576000808281548110610e8e57610e8e6116ce565b6000918252602090912060049091020180549091506001600160a01b038a81169116148015610ec05750878160010154145b15611050576001851115610f38576000610eda858a611741565b60018301819055600383018790556040519091506001600160a01b038b16907fbcd4a56817fd755e873bbed6b8ca8ddeb89a2a3c04f2d147e9ed2073d4a0cb6690610f2a9084908c908b90611a38565b60405180910390a250611009565b828214610fc05760008381548110610f5257610f526116ce565b906000526020600020906004020160008381548110610f7357610f736116ce565b60009182526020909120825460049092020180546001600160a01b0319166001600160a01b0390921691909117815560018083015490820155600280830154908201556003918201549101555b6000805480610fd157610fd1611add565b60008281526020812060046000199093019283020180546001600160a01b031916815560018101829055600281018290556003015590555b886001600160a01b03167f3d261e373117a307d2d181b4f314d3766a6faf5993ff506bfbf45c1ca6e4f3208960405161104291906113aa565b60405180910390a250611063565b508061105b81611754565b915050610e73565b5061106e3347611102565b5050505050505050565b6000808280602001905181019061108f9190611b07565b91509150915091565b8154600090815b818110156110f5578481815481106110b9576110b96116ce565b6000918252602090912001546001600160a01b03908116908516036110e3576001925050506110fc565b806110ed81611754565b91505061109f565b5060009150505b92915050565b804710156111225760405162461bcd60e51b81526004016107e390611b3a565b6000826001600160a01b03168260405161113b90611b75565b60006040518083038185875af1925050503d8060008114611178576040519150601f19603f3d011682016040523d82523d6000602084013e61117d565b606091505b50509050806107be5760405162461bcd60e51b81526004016107e390611bd7565b60405163f04da65b60e01b81526001600160a01b0382169063f04da65b906111ca9030906004016116e4565b602060405180830381865afa1580156111e7573d6000803e3d6000fd5b505050506040513d601f19601f8201168201806040525081019061120b919061170a565b60000361013e5761121d60018261127b565b506040516001600160a01b038216907f8f2293508f2042f4fd7587fb58da874871c269886a75fa451596732e4886b59390600090a250565b60008060008380602001905181019061126e9190611be7565b9250925092509193909250565b8154600090815b8181101561139a57836001600160a01b03168582815481106112a6576112a66116ce565b6000918252602090912001546001600160a01b031603611388576112cb600183611aca565b81101561134d57846112de600184611aca565b815481106112ee576112ee6116ce565b9060005260206000200160009054906101000a90046001600160a01b031685828154811061131e5761131e6116ce565b9060005260206000200160006101000a8154816001600160a01b0302191690836001600160a01b031602179055505b8480548061135d5761135d611add565b600082815260209020810160001990810180546001600160a01b03191690550190556001925061139a565b8061139281611754565b915050611282565b505092915050565b805b82525050565b602081016110fc82846113a2565b60006001600160a01b0382166110fc565b60006110fc826113b8565b60006110fc826113c9565b6113a4816113d4565b602081016110fc82846113df565b634e487b7160e01b600052604160045260246000fd5b601f19601f830116810181811067ffffffffffffffff82111715611432576114326113f6565b6040525050565b600061144460405190565b9050611450828261140c565b919050565b600067ffffffffffffffff82111561146f5761146f6113f6565b601f19601f83011660200192915050565b82818337506000910152565b600061149f61149a84611455565b611439565b9050828152602081018484840111156114ba576114ba600080fd5b6114c5848285611480565b509392505050565b600082601f8301126114e1576114e1600080fd5b81356114f184826020860161148c565b949350505050565b60006020828403121561150e5761150e600080fd5b813567ffffffffffffffff81111561152857611528600080fd5b6114f1848285016114cd565b6113a4816113b8565b8051608083019061154e8482611534565b50602082015161156160208501826113a2565b50604082015161157460408501826113a2565b506060820151610cc860608501826113a2565b6000611593838361153d565b505060800190565b60006115a5825190565b80845260209384019383018060005b838110156115d95781516115c88882611587565b9750602083019250506001016115b4565b509495945050505050565b602080825281016115f5818461159b565b9392505050565b60006116088383611534565b505060200190565b600061161a825190565b80845260209384019383018060005b838110156115d957815161163d88826115fc565b975060208301925050600101611629565b600061160883836113a2565b6000611664825190565b80845260209384019383018060005b838110156115d9578151611687888261164e565b975060208301925050600101611673565b604080825281016116a98185611610565b905081810360208301526114f1818461165a565b602080825281016115f58184611610565b634e487b7160e01b600052603260045260246000fd5b602081016110fc8284611534565b805b811461013e57600080fd5b80516110fc816116f2565b60006020828403121561171f5761171f600080fd5b60006114f184846116ff565b634e487b7160e01b600052601160045260246000fd5b808201808211156110fc576110fc61172b565b600060001982036117675761176761172b565b5060010190565b6080810161177c8287611534565b61178960208301866113a2565b61179660408301856113a2565b6117a360608301846113a2565b95945050505050565b6000806000606084860312156117c4576117c4600080fd5b60006117d086866116ff565b93505060206117e1868287016116ff565b92505060406117f2868287016116ff565b9150509250925092565b60005b838110156118175781810151838201526020016117ff565b50506000910152565b600061182e61149a84611455565b90508281526020810184848401111561184957611849600080fd5b6114c58482856117fc565b600082601f83011261186857611868600080fd5b81516114f1848260208601611820565b6000806040838503121561188e5761188e600080fd5b600061189a85856116ff565b925050602083015167ffffffffffffffff8111156118ba576118ba600080fd5b6118c685828601611854565b9150509250929050565b602080825281016110fc81604781527f7265636569766543616c6c46726f6d5661756c743a2052656465656d2069732060208201527f61206c6567616379206d6574686f642074686174206973206e6f7720756e73756040820152661c1c1bdc9d195960ca1b606082015260800190565b6116f4816113b8565b80516110fc81611941565b60006020828403121561196a5761196a600080fd5b60006114f1848461194a565b6040810161198482856113a2565b6115f56020830184611534565b8015156116f4565b80516110fc81611991565b6000602082840312156119b9576119b9600080fd5b60006114f18484611999565b603581526000602082017f5f5f76616c69646174655374616b65576973655661756c743a20556e7265676981527439ba32b932b21034b6b83632b6b2b73a30ba34b7b760591b602082015291505b5060400190565b602080825281016110fc816119c5565b604081016119848285611534565b60608101611a4682866113a2565b611a5360208301856113a2565b6114f160408301846113a2565b603881526000602082017f5f5f636c61696d4578697465644173736574733a20706f736974696f6e54696381527f6b6574206973206e6f7420696e2065786974207175657565000000000000000060208201529150611a13565b602080825281016110fc81611a60565b818103818111156110fc576110fc61172b565b634e487b7160e01b600052603160045260246000fd5b6116f4816113c9565b80516110fc81611af3565b60008060408385031215611b1d57611b1d600080fd5b6000611b298585611afc565b92505060206118c6858286016116ff565b602080825281016110fc81601d81527f416464726573733a20696e73756666696369656e742062616c616e6365000000602082015260400190565b6000816110fc565b603a81526000602082017f416464726573733a20756e61626c6520746f2073656e642076616c75652c207281527f6563697069656e74206d6179206861766520726576657274656400000000000060208201529150611a13565b602080825281016110fc81611b7d565b600080600060608486031215611bff57611bff600080fd5b60006117d08686611afc56","linkReferences":{}},"methodIdentifiers":{"ADDRESS_LIST_REGISTRY()":"29bcea29","SUPPORTED_IMPLEMENTATIONS_LIST_ID()":"1b6da13c","WETH_TOKEN()":"37d277d4","getDebtAssets()":"ecd658b4","getExitRequests()":"700380ba","getManagedAssets()":"80daddb8","getStakeWiseVaultTokens()":"d17de0f5","init(bytes)":"4ddf47d4","receiveCallFromVault(bytes)":"e5c23a97"},"id":137}