{"abi":[{"type":"constructor","inputs":[{"name":"_wethToken","type":"address","internalType":"address"},{"name":"_referrer","type":"address","internalType":"address"}],"stateMutability":"nonpayable"},{"type":"function","name":"WETH_TOKEN","inputs":[],"outputs":[{"name":"","type":"address","internalType":"contract IWETH"}],"stateMutability":"view"},{"type":"function","name":"getDebtAssets","inputs":[],"outputs":[{"name":"assets_","type":"address[]","internalType":"address[]"},{"name":"amounts_","type":"uint256[]","internalType":"uint256[]"}],"stateMutability":"pure"},{"type":"function","name":"getExitRequests","inputs":[],"outputs":[{"name":"exitRequests_","type":"tuple[]","internalType":"struct IStakeWiseV3StakingPosition.ExitRequest[]","components":[{"name":"stakeWiseVaultAddress","type":"address","internalType":"address"},{"name":"positionTicket","type":"uint256","internalType":"uint256"},{"name":"timestamp","type":"uint256","internalType":"uint256"},{"name":"sharesAmount","type":"uint256","internalType":"uint256"}]}],"stateMutability":"view"},{"type":"function","name":"getManagedAssets","inputs":[],"outputs":[{"name":"assets_","type":"address[]","internalType":"address[]"},{"name":"amounts_","type":"uint256[]","internalType":"uint256[]"}],"stateMutability":"view"},{"type":"function","name":"getStakeWiseVaultTokens","inputs":[],"outputs":[{"name":"stakeWiseVaultTokens_","type":"address[]","internalType":"address[]"}],"stateMutability":"view"},{"type":"function","name":"init","inputs":[{"name":"","type":"bytes","internalType":"bytes"}],"outputs":[],"stateMutability":"nonpayable"},{"type":"function","name":"receiveCallFromVault","inputs":[{"name":"_actionData","type":"bytes","internalType":"bytes"}],"outputs":[],"stateMutability":"nonpayable"},{"type":"event","name":"ExitRequestAdded","inputs":[{"name":"stakeWiseVaultAddress","type":"address","indexed":true,"internalType":"address"},{"name":"positionTicket","type":"uint256","indexed":false,"internalType":"uint256"},{"name":"timestamp","type":"uint256","indexed":false,"internalType":"uint256"},{"name":"sharesAmount","type":"uint256","indexed":false,"internalType":"uint256"}],"anonymous":false},{"type":"event","name":"ExitRequestRemoved","inputs":[{"name":"stakeWiseVaultAddress","type":"address","indexed":true,"internalType":"address"},{"name":"positionTicket","type":"uint256","indexed":false,"internalType":"uint256"}],"anonymous":false},{"type":"event","name":"VaultTokenAdded","inputs":[{"name":"stakeWiseVaultAddress","type":"address","indexed":true,"internalType":"address"}],"anonymous":false},{"type":"event","name":"VaultTokenRemoved","inputs":[{"name":"stakeWiseVaultAddress","type":"address","indexed":true,"internalType":"address"}],"anonymous":false}],"bytecode":{"object":"0x60c060405234801561001057600080fd5b50604051620017423803806200174283398101604081905261003191610064565b6001600160a01b039182166080521660a052610097565b80516001600160a01b038116811461005f57600080fd5b919050565b6000806040838503121561007757600080fd5b61008083610048565b915061008e60208401610048565b90509250929050565b60805160a051611678620000ca600039600061076f01526000818160870152818161022201526106f001526116786000f3fe608060405234801561001057600080fd5b506004361061007d5760003560e01c806380daddb81161005b57806380daddb8146100ee578063d17de0f514610104578063e5c23a9714610119578063ecd658b41461012c57600080fd5b806337d277d4146100825780634ddf47d4146100c6578063700380ba146100d9575b600080fd5b6100a97f000000000000000000000000000000000000000000000000000000000000000081565b6040516001600160a01b0390911681526020015b60405180910390f35b6100d76100d43660046112f8565b50565b005b6100e1610134565b6040516100bd9190611378565b6100f66101be565b6040516100bd929190611429565b61010c610605565b6040516100bd9190611480565b6100d76101273660046112f8565b610667565b6060806100f6565b60606000805480602002602001604051908101604052809291908181526020016000905b828210156101b5576000848152602090819020604080516080810182526004860290920180546001600160a01b03168352600180820154848601526002820154928401929092526003015460608301529083529092019101610158565b50505050905090565b6001546000546060918291811580156101d5575080155b156101e05750509091565b604080516001808252818301909252906020808301908036833750506040805160018082528183019092529296509050602080830190803683370190505092507f0000000000000000000000000000000000000000000000000000000000000000846000815181106102545761025461149a565b60200260200101906001600160a01b031690816001600160a01b03168152505060005b828110156103b1576000600182815481106102945761029461149a565b60009182526020909120015460405163f04da65b60e01b81523060048201526001600160a01b03909116915081906307a2d13a90829063f04da65b90602401602060405180830381865afa1580156102f0573d6000803e3d6000fd5b505050506040513d601f19601f8201168201806040525081019061031491906114b0565b6040518263ffffffff1660e01b815260040161033291815260200190565b602060405180830381865afa15801561034f573d6000803e3d6000fd5b505050506040513d601f19601f8201168201806040525081019061037391906114b0565b856000815181106103865761038661149a565b6020026020010181815161039a91906114df565b9052508190506103a9816114f2565b915050610277565b5060005b818110156105fe5760008082815481106103d1576103d161149a565b6000918252602080832060408051608081018252600494850290920180546001600160a01b031680845260018201549484018590526002820154848401526003909101546060840152905163306b073760e11b8152919550939284926360d60e6e92610441920190815260200190565b602060405180830381865afa15801561045e573d6000803e3d6000fd5b505050506040513d601f19601f8201168201806040525081019061048291906114b0565b9050600081121561052f5760608301516040516303d1689d60e11b815260048101919091526001600160a01b038316906307a2d13a90602401602060405180830381865afa1580156104d8573d6000803e3d6000fd5b505050506040513d601f19601f820116820180604052508101906104fc91906114b0565b8760008151811061050f5761050f61149a565b6020026020010181815161052391906114df565b9052506105ec92505050565b6020830151604080850151905163076b58b960e41b815230600482015260248101929092526044820152606481018290526000906001600160a01b038416906376b58b9090608401606060405180830381865afa158015610594573d6000803e3d6000fd5b505050506040513d601f19601f820116820180604052508101906105b8919061150b565b9250505080886000815181106105d0576105d061149a565b602002602001018181516105e491906114df565b905250505050505b806105f6816114f2565b9150506103b5565b5050509091565b6060600180548060200260200160405190810160405280929190818152602001828054801561065d57602002820191906000526020600020905b81546001600160a01b0316815260019091019060200180831161063f575b5050505050905090565b6000808280602001905181019061067e9190611539565b90925090508161069657610691816106c9565b505050565b600182036106a75761069181610871565b600282036106b857610691816108fd565b600382036106915761069181610ac3565b6000806106d583610ee7565b604051632e1a7d4d60e01b81526004810182905291935091507f00000000000000000000000000000000000000000000000000000000000000006001600160a01b031690632e1a7d4d90602401600060405180830381600087803b15801561073c57600080fd5b505af1158015610750573d6000803e3d6000fd5b5050604051631f2c13e160e31b81523060048201526001600160a01b037f0000000000000000000000000000000000000000000000000000000000000000811660248301528516925063f9609f089150839060440160206040518083038185885af11580156107c3573d6000803e3d6000fd5b50505050506040513d601f19601f820116820180604052508101906107e891906114b0565b506107f4600183610f07565b6106915760018054808201825560009182527fb10e2d527612073b26eecdfd717e6a320cf44b4afac2b0732d9fcbe2b7fa0cf60180546001600160a01b0319166001600160a01b03851690811790915560405190917f88ef01b059028b2eca86c5b93c590d72cdc40e9f86f5456836dfc9e4b6f647c691a2505050565b60008061087d83610ee7565b604051633def417960e11b81526004810182905233602482015291935091506001600160a01b03831690637bde82f2906044016020604051808303816000875af11580156108cf573d6000803e3d6000fd5b505050506040513d601f19601f820116820180604052508101906108f391906114b0565b5061069182610f71565b60008061090983610ee7565b6040516346755cd560e11b81526004810182905230602482015291935091506000906001600160a01b03841690638ceab9aa906044016020604051808303816000875af115801561095e573d6000803e3d6000fd5b505050506040513d601f19601f8201168201806040525081019061098291906114b0565b604080516080810182526001600160a01b0386811680835260208084018681524285870181815260608088018c81526000805460018101825590805298517f290decd9548b62a8d60345a988386fc84ba6bc95484008f6362f93160ef3e5636004909a02998a0180546001600160a01b031916919099161790975592517f290decd9548b62a8d60345a988386fc84ba6bc95484008f6362f93160ef3e564880155517f290decd9548b62a8d60345a988386fc84ba6bc95484008f6362f93160ef3e56587015593517f290decd9548b62a8d60345a988386fc84ba6bc95484008f6362f93160ef3e5669095019490945584518681529081019290925292810186905292935090917fbcd4a56817fd755e873bbed6b8ca8ddeb89a2a3c04f2d147e9ed2073d4a0cb66910160405180910390a2610abd83610f71565b50505050565b6000806000610ad184611023565b9250925092506000836001600160a01b03166360d60e6e846040518263ffffffff1660e01b8152600401610b0791815260200190565b602060405180830381865afa158015610b24573d6000803e3d6000fd5b505050506040513d601f19601f82011682018060405250810190610b4891906114b0565b90506000811215610bc65760405162461bcd60e51b815260206004820152603860248201527f5f5f636c61696d4578697465644173736574733a20706f736974696f6e54696360448201527f6b6574206973206e6f7420696e2065786974207175657565000000000000000060648201526084015b60405180910390fd5b60405163434be96160e11b815260048101849052602481018390526044810182905260009081906001600160a01b03871690638697d2c2906064016060604051808303816000875af1158015610c20573d6000803e3d6000fd5b505050506040513d601f19601f82011682018060405250810190610c44919061150b565b509150915060008111610cbf5760405162461bcd60e51b815260206004820152603960248201527f5f5f636c61696d4578697465644173736574733a20636c61696d65645368617260448201527f6573206d7573742062652067726561746572207468616e2030000000000000006064820152608401610bbd565b60008054610ccf906001906115d2565b905060005b818111610ed2576000808281548110610cef57610cef61149a565b6000918252602090912060049091020180549091506001600160a01b038a81169116148015610d215750878160010154145b15610ebf578415610da55784816001018190555083816003016000828254610d4991906115d2565b9091555050600381015460408051878152602081018a9052908101919091526001600160a01b038a16907fbcd4a56817fd755e873bbed6b8ca8ddeb89a2a3c04f2d147e9ed2073d4a0cb669060600160405180910390a2610e76565b828214610e2d5760008381548110610dbf57610dbf61149a565b906000526020600020906004020160008381548110610de057610de061149a565b60009182526020909120825460049092020180546001600160a01b0319166001600160a01b0390921691909117815560018083015490820155600280830154908201556003918201549101555b6000805480610e3e57610e3e6115e5565b60008281526020812060046000199093019283020180546001600160a01b031916815560018101829055600281018290556003015590555b886001600160a01b03167f3d261e373117a307d2d181b4f314d3766a6faf5993ff506bfbf45c1ca6e4f32089604051610eb191815260200190565b60405180910390a250610ed2565b5080610eca816114f2565b915050610cd4565b50610edd3347611049565b5050505050505050565b60008082806020019051810190610efe9190611617565b91509150915091565b8154600090815b81811015610f6457848181548110610f2857610f2861149a565b6000918252602090912001546001600160a01b0390811690851603610f5257600192505050610f6b565b80610f5c816114f2565b915050610f0e565b5060009150505b92915050565b60405163f04da65b60e01b81523060048201526001600160a01b0382169063f04da65b90602401602060405180830381865afa158015610fb5573d6000803e3d6000fd5b505050506040513d601f19601f82011682018060405250810190610fd991906114b0565b6000036100d457610feb600182611162565b506040516001600160a01b038216907f8f2293508f2042f4fd7587fb58da874871c269886a75fa451596732e4886b59390600090a250565b60008060008380602001905181019061103c9190611643565b9250925092509193909250565b804710156110995760405162461bcd60e51b815260206004820152601d60248201527f416464726573733a20696e73756666696369656e742062616c616e63650000006044820152606401610bbd565b6000826001600160a01b03168260405160006040518083038185875af1925050503d80600081146110e6576040519150601f19603f3d011682016040523d82523d6000602084013e6110eb565b606091505b50509050806106915760405162461bcd60e51b815260206004820152603a60248201527f416464726573733a20756e61626c6520746f2073656e642076616c75652c207260448201527f6563697069656e74206d617920686176652072657665727465640000000000006064820152608401610bbd565b8154600090815b8181101561128157836001600160a01b031685828154811061118d5761118d61149a565b6000918252602090912001546001600160a01b03160361126f576111b26001836115d2565b81101561123457846111c56001846115d2565b815481106111d5576111d561149a565b9060005260206000200160009054906101000a90046001600160a01b03168582815481106112055761120561149a565b9060005260206000200160006101000a8154816001600160a01b0302191690836001600160a01b031602179055505b84805480611244576112446115e5565b600082815260209020810160001990810180546001600160a01b031916905501905560019250611281565b80611279816114f2565b915050611169565b505092915050565b634e487b7160e01b600052604160045260246000fd5b604051601f8201601f1916810167ffffffffffffffff811182821017156112c8576112c8611289565b604052919050565b600067ffffffffffffffff8211156112ea576112ea611289565b50601f01601f191660200190565b60006020828403121561130a57600080fd5b813567ffffffffffffffff81111561132157600080fd5b8201601f8101841361133257600080fd5b8035611345611340826112d0565b61129f565b81815285602083850101111561135a57600080fd5b81602084016020830137600091810160200191909152949350505050565b602080825282518282018190526000919060409081850190868401855b828110156113d857815180516001600160a01b03168552868101518786015285810151868601526060908101519085015260809093019290850190600101611395565b5091979650505050505050565b600081518084526020808501945080840160005b8381101561141e5781516001600160a01b0316875295820195908201906001016113f9565b509495945050505050565b60408152600061143c60408301856113e5565b82810360208481019190915284518083528582019282019060005b8181101561147357845183529383019391830191600101611457565b5090979650505050505050565b60208152600061149360208301846113e5565b9392505050565b634e487b7160e01b600052603260045260246000fd5b6000602082840312156114c257600080fd5b5051919050565b634e487b7160e01b600052601160045260246000fd5b80820180821115610f6b57610f6b6114c9565b600060018201611504576115046114c9565b5060010190565b60008060006060848603121561152057600080fd5b8351925060208401519150604084015190509250925092565b6000806040838503121561154c57600080fd5b8251915060208084015167ffffffffffffffff81111561156b57600080fd5b8401601f8101861361157c57600080fd5b805161158a611340826112d0565b818152878483850101111561159e57600080fd5b60005b828110156115bc5783810185015182820186015284016115a1565b5060009181019093015250919491935090915050565b81810381811115610f6b57610f6b6114c9565b634e487b7160e01b600052603160045260246000fd5b80516001600160a01b038116811461161257600080fd5b919050565b6000806040838503121561162a57600080fd5b611633836115fb565b9150602083015190509250929050565b60008060006060848603121561165857600080fd5b611661846115fb565b92506020840151915060408401519050925092509256","linkReferences":{}},"methodIdentifiers":{"WETH_TOKEN()":"37d277d4","getDebtAssets()":"ecd658b4","getExitRequests()":"700380ba","getManagedAssets()":"80daddb8","getStakeWiseVaultTokens()":"d17de0f5","init(bytes)":"4ddf47d4","receiveCallFromVault(bytes)":"e5c23a97"},"id":132}