{"abi":[{"type":"constructor","inputs":[{"name":"_addressListRegistry","type":"address","internalType":"address"},{"name":"_stakingContractsListId","type":"uint256","internalType":"uint256"},{"name":"_weth","type":"address","internalType":"address"}],"stateMutability":"nonpayable"},{"type":"function","name":"ADDRESS_LIST_REGISTRY_CONTRACT","inputs":[],"outputs":[{"name":"","type":"address","internalType":"contract IAddressListRegistry"}],"stateMutability":"view"},{"type":"function","name":"ETH_AMOUNT_PER_NODE","inputs":[],"outputs":[{"name":"","type":"uint256","internalType":"uint256"}],"stateMutability":"view"},{"type":"function","name":"STAKING_CONTRACTS_LIST_ID","inputs":[],"outputs":[{"name":"","type":"uint256","internalType":"uint256"}],"stateMutability":"view"},{"type":"function","name":"WETH_TOKEN","inputs":[],"outputs":[{"name":"","type":"address","internalType":"address"}],"stateMutability":"view"},{"type":"function","name":"parseAssetsForAction","inputs":[{"name":"","type":"address","internalType":"address"},{"name":"_actionId","type":"uint256","internalType":"uint256"},{"name":"_encodedActionArgs","type":"bytes","internalType":"bytes"}],"outputs":[{"name":"assetsToTransfer_","type":"address[]","internalType":"address[]"},{"name":"amountsToTransfer_","type":"uint256[]","internalType":"uint256[]"},{"name":"assetsToReceive_","type":"address[]","internalType":"address[]"}],"stateMutability":"view"},{"type":"function","name":"parseInitArgs","inputs":[{"name":"","type":"address","internalType":"address"},{"name":"","type":"bytes","internalType":"bytes"}],"outputs":[{"name":"initArgs_","type":"bytes","internalType":"bytes"}],"stateMutability":"pure"}],"bytecode":{"object":"0x60e06040523480156200001157600080fd5b506040516200138e3803806200138e833981810160405281019062000037919062000155565b8273ffffffffffffffffffffffffffffffffffffffff1660808173ffffffffffffffffffffffffffffffffffffffff16815250508160a081815250508073ffffffffffffffffffffffffffffffffffffffff1660c08173ffffffffffffffffffffffffffffffffffffffff1681525050505050620001b1565b600080fd5b600073ffffffffffffffffffffffffffffffffffffffff82169050919050565b6000620000e282620000b5565b9050919050565b620000f481620000d5565b81146200010057600080fd5b50565b6000815190506200011481620000e9565b92915050565b6000819050919050565b6200012f816200011a565b81146200013b57600080fd5b50565b6000815190506200014f8162000124565b92915050565b600080600060608486031215620001715762000170620000b0565b5b6000620001818682870162000103565b935050602062000194868287016200013e565b9250506040620001a78682870162000103565b9150509250925092565b60805160a05160c05161118a6200020460003960008181610167015281816102680152818161039101526104a301526000818161051f01526105b9015260008181610143015261057d015261118a6000f3fe608060405234801561001057600080fd5b50600436106100625760003560e01c806328cb563c1461006757806337d277d41461008557806356e277f0146100a3578063bbd2d646146100c1578063caacbe0a146100f3578063db16c72e14610111575b600080fd5b61006f610141565b60405161007c9190610740565b60405180910390f35b61008d610165565b60405161009a919061077c565b60405180910390f35b6100ab610189565b6040516100b891906107b0565b60405180910390f35b6100db60048036038101906100d6919061097d565b610196565b6040516100ea93929190610b68565b60405180910390f35b6100fb61051d565b60405161010891906107b0565b60405180910390f35b61012b60048036038101906101269190610bb4565b610541565b6040516101389190610c8f565b60405180910390f35b7f000000000000000000000000000000000000000000000000000000000000000081565b7f000000000000000000000000000000000000000000000000000000000000000081565b6801bc16d674ec80000081565b6060806060600060058111156101af576101ae610cb1565b5b8503610311576000806101c18661055b565b915091506101ce8261057b565b600167ffffffffffffffff8111156101e9576101e8610852565b5b6040519080825280602002602001820160405280156102175781602001602082028036833780820191505090505b509450600167ffffffffffffffff81111561023557610234610852565b5b6040519080825280602002602001820160405280156102635781602001602082028036833780820191505090505b5093507f00000000000000000000000000000000000000000000000000000000000000008560008151811061029b5761029a610ce0565b5b602002602001019073ffffffffffffffffffffffffffffffffffffffff16908173ffffffffffffffffffffffffffffffffffffffff16815250506801bc16d674ec800000816102ea9190610d3e565b846000815181106102fe576102fd610ce0565b5b6020026020010181815250505050610514565b6001600581111561032557610324610cb1565b5b850361040457600061033685610679565b505090506103438161057b565b600167ffffffffffffffff81111561035e5761035d610852565b5b60405190808252806020026020018201604052801561038c5781602001602082028036833780820191505090505b5091507f0000000000000000000000000000000000000000000000000000000000000000826000815181106103c4576103c3610ce0565b5b602002602001019073ffffffffffffffffffffffffffffffffffffffff16908173ffffffffffffffffffffffffffffffffffffffff168152505050610513565b6003600581111561041857610417610cb1565b5b850361043b576000610429856106a0565b5090506104358161057b565b50610512565b6002600581111561044f5761044e610cb1565b5b850361051157600167ffffffffffffffff8111156104705761046f610852565b5b60405190808252806020026020018201604052801561049e5781602001602082028036833780820191505090505b5090507f0000000000000000000000000000000000000000000000000000000000000000816000815181106104d6576104d5610ce0565b5b602002602001019073ffffffffffffffffffffffffffffffffffffffff16908173ffffffffffffffffffffffffffffffffffffffff16815250505b5b5b5b93509350939050565b7f000000000000000000000000000000000000000000000000000000000000000081565b606060405180602001604052806000815250905092915050565b600080828060200190518101906105729190610dd3565b91509150915091565b7f000000000000000000000000000000000000000000000000000000000000000073ffffffffffffffffffffffffffffffffffffffff16631c5632047f0000000000000000000000000000000000000000000000000000000000000000836040518363ffffffff1660e01b81526004016105f6929190610e13565b602060405180830381865afa158015610613573d6000803e3d6000fd5b505050506040513d601f19601f820116820180604052508101906106379190610e74565b610676576040517f08c379a000000000000000000000000000000000000000000000000000000000815260040161066d90610f24565b60405180910390fd5b50565b6000606060008380602001905181019061069391906110bf565b9250925092509193909250565b60006060828060200190518101906106b8919061112e565b91509150915091565b600073ffffffffffffffffffffffffffffffffffffffff82169050919050565b6000819050919050565b60006107066107016106fc846106c1565b6106e1565b6106c1565b9050919050565b6000610718826106eb565b9050919050565b600061072a8261070d565b9050919050565b61073a8161071f565b82525050565b60006020820190506107556000830184610731565b92915050565b6000610766826106c1565b9050919050565b6107768161075b565b82525050565b6000602082019050610791600083018461076d565b92915050565b6000819050919050565b6107aa81610797565b82525050565b60006020820190506107c560008301846107a1565b92915050565b6000604051905090565b600080fd5b600080fd5b6107e88161075b565b81146107f357600080fd5b50565b600081359050610805816107df565b92915050565b61081481610797565b811461081f57600080fd5b50565b6000813590506108318161080b565b92915050565b600080fd5b600080fd5b6000601f19601f8301169050919050565b7f4e487b7100000000000000000000000000000000000000000000000000000000600052604160045260246000fd5b61088a82610841565b810181811067ffffffffffffffff821117156108a9576108a8610852565b5b80604052505050565b60006108bc6107cb565b90506108c88282610881565b919050565b600067ffffffffffffffff8211156108e8576108e7610852565b5b6108f182610841565b9050602081019050919050565b82818337600083830152505050565b600061092061091b846108cd565b6108b2565b90508281526020810184848401111561093c5761093b61083c565b5b6109478482856108fe565b509392505050565b600082601f83011261096457610963610837565b5b813561097484826020860161090d565b91505092915050565b600080600060608486031215610996576109956107d5565b5b60006109a4868287016107f6565b93505060206109b586828701610822565b925050604084013567ffffffffffffffff8111156109d6576109d56107da565b5b6109e28682870161094f565b9150509250925092565b600081519050919050565b600082825260208201905092915050565b6000819050602082019050919050565b610a218161075b565b82525050565b6000610a338383610a18565b60208301905092915050565b6000602082019050919050565b6000610a57826109ec565b610a6181856109f7565b9350610a6c83610a08565b8060005b83811015610a9d578151610a848882610a27565b9750610a8f83610a3f565b925050600181019050610a70565b5085935050505092915050565b600081519050919050565b600082825260208201905092915050565b6000819050602082019050919050565b610adf81610797565b82525050565b6000610af18383610ad6565b60208301905092915050565b6000602082019050919050565b6000610b1582610aaa565b610b1f8185610ab5565b9350610b2a83610ac6565b8060005b83811015610b5b578151610b428882610ae5565b9750610b4d83610afd565b925050600181019050610b2e565b5085935050505092915050565b60006060820190508181036000830152610b828186610a4c565b90508181036020830152610b968185610b0a565b90508181036040830152610baa8184610a4c565b9050949350505050565b60008060408385031215610bcb57610bca6107d5565b5b6000610bd9858286016107f6565b925050602083013567ffffffffffffffff811115610bfa57610bf96107da565b5b610c068582860161094f565b9150509250929050565b600081519050919050565b600082825260208201905092915050565b60005b83811015610c4a578082015181840152602081019050610c2f565b60008484015250505050565b6000610c6182610c10565b610c6b8185610c1b565b9350610c7b818560208601610c2c565b610c8481610841565b840191505092915050565b60006020820190508181036000830152610ca98184610c56565b905092915050565b7f4e487b7100000000000000000000000000000000000000000000000000000000600052602160045260246000fd5b7f4e487b7100000000000000000000000000000000000000000000000000000000600052603260045260246000fd5b7f4e487b7100000000000000000000000000000000000000000000000000000000600052601160045260246000fd5b6000610d4982610797565b9150610d5483610797565b9250828202610d6281610797565b91508282048414831517610d7957610d78610d0f565b5b5092915050565b6000610d8b826106c1565b9050919050565b610d9b81610d80565b8114610da657600080fd5b50565b600081519050610db881610d92565b92915050565b600081519050610dcd8161080b565b92915050565b60008060408385031215610dea57610de96107d5565b5b6000610df885828601610da9565b9250506020610e0985828601610dbe565b9150509250929050565b6000604082019050610e2860008301856107a1565b610e35602083018461076d565b9392505050565b60008115159050919050565b610e5181610e3c565b8114610e5c57600080fd5b50565b600081519050610e6e81610e48565b92915050565b600060208284031215610e8a57610e896107d5565b5b6000610e9884828501610e5f565b91505092915050565b600082825260208201905092915050565b7f5f5f76616c69646174655374616b696e67436f6e74726163743a20496e76616c60008201527f6964207374616b696e6720636f6e747261637400000000000000000000000000602082015250565b6000610f0e603383610ea1565b9150610f1982610eb2565b604082019050919050565b60006020820190508181036000830152610f3d81610f01565b9050919050565b600067ffffffffffffffff821115610f5f57610f5e610852565b5b602082029050602081019050919050565b600080fd5b6000610f88610f83846108cd565b6108b2565b905082815260208101848484011115610fa457610fa361083c565b5b610faf848285610c2c565b509392505050565b600082601f830112610fcc57610fcb610837565b5b8151610fdc848260208601610f75565b91505092915050565b6000610ff8610ff384610f44565b6108b2565b9050808382526020820190506020840283018581111561101b5761101a610f70565b5b835b8181101561106257805167ffffffffffffffff8111156110405761103f610837565b5b80860161104d8982610fb7565b8552602085019450505060208101905061101d565b5050509392505050565b600082601f83011261108157611080610837565b5b8151611091848260208601610fe5565b91505092915050565b600381106110a757600080fd5b50565b6000815190506110b98161109a565b92915050565b6000806000606084860312156110d8576110d76107d5565b5b60006110e686828701610da9565b935050602084015167ffffffffffffffff811115611107576111066107da565b5b6111138682870161106c565b9250506040611124868287016110aa565b9150509250925092565b60008060408385031215611145576111446107d5565b5b600061115385828601610da9565b925050602083015167ffffffffffffffff811115611174576111736107da565b5b61118085828601610fb7565b915050925092905056","linkReferences":{}},"methodIdentifiers":{"ADDRESS_LIST_REGISTRY_CONTRACT()":"28cb563c","ETH_AMOUNT_PER_NODE()":"56e277f0","STAKING_CONTRACTS_LIST_ID()":"caacbe0a","WETH_TOKEN()":"37d277d4","parseAssetsForAction(address,uint256,bytes)":"bbd2d646","parseInitArgs(address,bytes)":"db16c72e"},"id":51}