{"abi":[{"type":"constructor","inputs":[{"name":"_addressListRegistry","type":"address","internalType":"address"},{"name":"_stakingContractsListId","type":"uint256","internalType":"uint256"},{"name":"_weth","type":"address","internalType":"address"}],"stateMutability":"nonpayable"},{"type":"function","name":"ADDRESS_LIST_REGISTRY_CONTRACT","inputs":[],"outputs":[{"name":"","type":"address","internalType":"contract IAddressListRegistry"}],"stateMutability":"view"},{"type":"function","name":"ETH_AMOUNT_PER_NODE","inputs":[],"outputs":[{"name":"","type":"uint256","internalType":"uint256"}],"stateMutability":"view"},{"type":"function","name":"STAKING_CONTRACTS_LIST_ID","inputs":[],"outputs":[{"name":"","type":"uint256","internalType":"uint256"}],"stateMutability":"view"},{"type":"function","name":"WETH_TOKEN","inputs":[],"outputs":[{"name":"","type":"address","internalType":"address"}],"stateMutability":"view"},{"type":"function","name":"parseAssetsForAction","inputs":[{"name":"","type":"address","internalType":"address"},{"name":"_actionId","type":"uint256","internalType":"uint256"},{"name":"_encodedActionArgs","type":"bytes","internalType":"bytes"}],"outputs":[{"name":"assetsToTransfer_","type":"address[]","internalType":"address[]"},{"name":"amountsToTransfer_","type":"uint256[]","internalType":"uint256[]"},{"name":"assetsToReceive_","type":"address[]","internalType":"address[]"}],"stateMutability":"view"},{"type":"function","name":"parseInitArgs","inputs":[{"name":"","type":"address","internalType":"address"},{"name":"","type":"bytes","internalType":"bytes"}],"outputs":[{"name":"initArgs_","type":"bytes","internalType":"bytes"}],"stateMutability":"pure"}],"bytecode":{"object":"0x60e060405234801561001057600080fd5b5060405162000ce038038062000ce083398101604081905261003191610094565b6001600160a01b0392831660805260a0919091521660c0526100e4565b60006001600160a01b0382165b92915050565b61006a8161004e565b811461007557600080fd5b50565b805161005b81610061565b8061006a565b805161005b81610083565b6000806000606084860312156100ac576100ac600080fd5b60006100b88686610078565b93505060206100c986828701610089565b92505060406100da86828701610078565b9150509250925092565b60805160a05160c051610bab620001356000396000818160a9015281816101c201528181610287015261032e01526000818161011c0152610404015260008181606c01526103d70152610bab6000f3fe608060405234801561001057600080fd5b50600436106100625760003560e01c806328cb563c1461006757806337d277d4146100a457806356e277f0146100d8578063bbd2d646146100f5578063caacbe0a14610117578063db16c72e1461013e575b600080fd5b61008e7f000000000000000000000000000000000000000000000000000000000000000081565b60405161009b919061050c565b60405180910390f35b6100cb7f000000000000000000000000000000000000000000000000000000000000000081565b60405161009b9190610523565b6100e86801bc16d674ec80000081565b60405161009b9190610537565b610108610103366004610678565b61015e565b60405161009b9392919061078a565b6100e87f000000000000000000000000000000000000000000000000000000000000000081565b61015161014c3660046107cc565b61038a565b60405161009b919061087a565b606080808461024557600080610173866103a0565b91509150610180826103c0565b604080516001808252818301909252906020808301908036833750506040805160018082528183019092529297509050602080830190803683370190505093507f0000000000000000000000000000000000000000000000000000000000000000856000815181106101f4576101f4610892565b6001600160a01b039092166020928302919091019091015261021f6801bc16d674ec800000826108be565b8460008151811061023257610232610892565b6020026020010181815250505050610381565b600185036102df57600061025885610497565b50509050610265816103c0565b60408051600180825281830190925290602080830190803683370190505091507f0000000000000000000000000000000000000000000000000000000000000000826000815181106102b9576102b9610892565b60200260200101906001600160a01b031690816001600160a01b03168152505050610381565b600385036103045760006102f2856104be565b5090506102fe816103c0565b50610381565b600285036103815760408051600180825281830190925290602080830190803683370190505090507f00000000000000000000000000000000000000000000000000000000000000008160008151811061036057610360610892565b60200260200101906001600160a01b031690816001600160a01b0316815250505b93509350939050565b6040805160208101909152600081525b92915050565b600080828060200190518101906103b791906108f3565b91509150915091565b6040516307158c8160e21b81526001600160a01b037f00000000000000000000000000000000000000000000000000000000000000001690631c5632049061042e907f0000000000000000000000000000000000000000000000000000000000000000908590600401610926565b602060405180830381865afa15801561044b573d6000803e3d6000fd5b505050506040513d601f19601f8201168201806040525081019061046f9190610954565b6104945760405162461bcd60e51b815260040161048b90610975565b60405180910390fd5b50565b600060606000838060200190518101906104b19190610afc565b9250925092509193909250565b60006060828060200190518101906103b79190610b5d565b60006001600160a01b03821661039a565b600061039a826104d6565b600061039a826104e7565b610506816104f2565b82525050565b6020810161039a82846104fd565b610506816104d6565b6020810161039a828461051a565b80610506565b6020810161039a8284610531565b61054e816104d6565b811461049457600080fd5b803561039a81610545565b8061054e565b803561039a81610564565b634e487b7160e01b600052604160045260246000fd5b601f19601f830116810181811067ffffffffffffffff821117156105b1576105b1610575565b6040525050565b60006105c360405190565b90506105cf828261058b565b919050565b600067ffffffffffffffff8211156105ee576105ee610575565b601f19601f83011660200192915050565b82818337506000910152565b600061061e610619846105d4565b6105b8565b90508281526020810184848401111561063957610639600080fd5b6106448482856105ff565b509392505050565b600082601f83011261066057610660600080fd5b813561067084826020860161060b565b949350505050565b60008060006060848603121561069057610690600080fd5b600061069c8686610559565b93505060206106ad8682870161056a565b925050604084013567ffffffffffffffff8111156106cd576106cd600080fd5b6106d98682870161064c565b9150509250925092565b60006106ef838361051a565b505060200190565b6000610701825190565b80845260209384019383018060005b8381101561073557815161072488826106e3565b975060208301925050600101610710565b509495945050505050565b60006106ef8383610531565b6000610756825190565b80845260209384019383018060005b838110156107355781516107798882610740565b975060208301925050600101610765565b6060808252810161079b81866106f7565b905081810360208301526107af818561074c565b905081810360408301526107c381846106f7565b95945050505050565b600080604083850312156107e2576107e2600080fd5b60006107ee8585610559565b925050602083013567ffffffffffffffff81111561080e5761080e600080fd5b61081a8582860161064c565b9150509250929050565b60005b8381101561083f578181015183820152602001610827565b50506000910152565b6000610852825190565b808452602084019350610869818560208601610824565b601f01601f19169290920192915050565b6020808252810161088b8184610848565b9392505050565b634e487b7160e01b600052603260045260246000fd5b634e487b7160e01b600052601160045260246000fd5b8181028082158382048514176108d6576108d66108a8565b5092915050565b805161039a81610545565b805161039a81610564565b6000806040838503121561090957610909600080fd5b600061091585856108dd565b925050602061081a858286016108e8565b604081016109348285610531565b61088b602083018461051a565b80151561054e565b805161039a81610941565b60006020828403121561096957610969600080fd5b60006106708484610949565b6020808252810161039a81603381527f5f5f76616c69646174655374616b696e67436f6e74726163743a20496e76616c6020820152721a59081cdd185ada5b99c818dbdb9d1c9858dd606a1b604082015260600190565b600067ffffffffffffffff8211156109e6576109e6610575565b5060209081020190565b60006109fe610619846105d4565b905082815260208101848484011115610a1957610a19600080fd5b610644848285610824565b600082601f830112610a3857610a38600080fd5b81516106708482602086016109f0565b6000610a56610619846109cc565b83815290506020808201908402830185811115610a7557610a75600080fd5b835b81811015610ab657805167ffffffffffffffff811115610a9957610a99600080fd5b808601610aa68982610a24565b8552505060209283019201610a77565b5050509392505050565b600082601f830112610ad457610ad4600080fd5b8151610670848260208601610a48565b6003811061049457600080fd5b805161039a81610ae4565b600080600060608486031215610b1457610b14600080fd5b6000610b2086866108dd565b935050602084015167ffffffffffffffff811115610b4057610b40600080fd5b610b4c86828701610ac0565b92505060406106d986828701610af1565b60008060408385031215610b7357610b73600080fd5b6000610b7f85856108dd565b925050602083015167ffffffffffffffff811115610b9f57610b9f600080fd5b61081a85828601610a2456","linkReferences":{}},"methodIdentifiers":{"ADDRESS_LIST_REGISTRY_CONTRACT()":"28cb563c","ETH_AMOUNT_PER_NODE()":"56e277f0","STAKING_CONTRACTS_LIST_ID()":"caacbe0a","WETH_TOKEN()":"37d277d4","parseAssetsForAction(address,uint256,bytes)":"bbd2d646","parseInitArgs(address,bytes)":"db16c72e"},"id":51}