{"abi":[{"type":"constructor","inputs":[{"name":"_stakingProxy","type":"address","internalType":"address"},{"name":"_grtToken","type":"address","internalType":"address"}],"stateMutability":"nonpayable"},{"type":"function","name":"getDebtAssets","inputs":[],"outputs":[{"name":"assets_","type":"address[]","internalType":"address[]"},{"name":"amounts_","type":"uint256[]","internalType":"uint256[]"}],"stateMutability":"nonpayable"},{"type":"function","name":"getDelegationGrtValue","inputs":[{"name":"_indexer","type":"address","internalType":"address"}],"outputs":[{"name":"grtValue_","type":"uint256","internalType":"uint256"}],"stateMutability":"view"},{"type":"function","name":"getIndexers","inputs":[],"outputs":[{"name":"","type":"address[]","internalType":"address[]"}],"stateMutability":"view"},{"type":"function","name":"getManagedAssets","inputs":[],"outputs":[{"name":"assets_","type":"address[]","internalType":"address[]"},{"name":"amounts_","type":"uint256[]","internalType":"uint256[]"}],"stateMutability":"nonpayable"},{"type":"function","name":"init","inputs":[{"name":"","type":"bytes","internalType":"bytes"}],"outputs":[],"stateMutability":"nonpayable"},{"type":"function","name":"isDelegatorTo","inputs":[{"name":"_indexer","type":"address","internalType":"address"}],"outputs":[{"name":"isDelegator_","type":"bool","internalType":"bool"}],"stateMutability":"view"},{"type":"function","name":"receiveCallFromVault","inputs":[{"name":"_actionData","type":"bytes","internalType":"bytes"}],"outputs":[],"stateMutability":"nonpayable"},{"type":"event","name":"IndexerAdded","inputs":[{"name":"indexer","type":"address","indexed":true,"internalType":"address"}],"anonymous":false},{"type":"event","name":"IndexerRemoved","inputs":[{"name":"indexer","type":"address","indexed":true,"internalType":"address"}],"anonymous":false}],"bytecode":{"object":"0x60c060405234801561001057600080fd5b50604051611ed2380380611ed28339818101604052604081101561003357600080fd5b8101908080519060200190929190805190602001909291905050508173ffffffffffffffffffffffffffffffffffffffff1660808173ffffffffffffffffffffffffffffffffffffffff1660601b815250508073ffffffffffffffffffffffffffffffffffffffff1660a08173ffffffffffffffffffffffffffffffffffffffff1660601b81525050505060805160601c60a05160601c611db461011e600039806104bb52806107c852806110f852806111ca52806114ba528061157c525080610479528061050952806106055280610f4752806110295280611227528061130d5250611db46000f3fe608060405234801561001057600080fd5b506004361061007d5760003560e01c806380daddb81161005b57806380daddb8146101ef578063e5c23a9714610296578063ecd658b414610351578063f3b60567146103f85761007d565b80634682b645146100825780634ddf47d4146100dc5780635d0e651714610197575b600080fd5b6100c46004803603602081101561009857600080fd5b81019080803573ffffffffffffffffffffffffffffffffffffffff169060200190929190505050610457565b60405180821515815260200191505060405180910390f35b610195600480360360208110156100f257600080fd5b810190808035906020019064010000000081111561010f57600080fd5b82018360208201111561012157600080fd5b8035906020019184600183028401116401000000008311171561014357600080fd5b91908080601f016020809104026020016040519081016040528093929190818152602001838380828437600081840152601f19601f820116905080830192505050505050509192919290505050610474565b005b6101d9600480360360208110156101ad57600080fd5b81019080803573ffffffffffffffffffffffffffffffffffffffff169060200190929190505050610502565b6040518082815260200191505060405180910390f35b6101f7610757565b604051808060200180602001838103835285818151815260200191508051906020019060200280838360005b8381101561023e578082015181840152602081019050610223565b50505050905001838103825284818151815260200191508051906020019060200280838360005b83811015610280578082015181840152602081019050610265565b5050505090500194505050505060405180910390f35b61034f600480360360208110156102ac57600080fd5b81019080803590602001906401000000008111156102c957600080fd5b8201836020820111156102db57600080fd5b803590602001918460018302840111640100000000831117156102fd57600080fd5b91908080601f016020809104026020016040519081016040528093929190818152602001838380828437600081840152601f19601f8201169050808301925050505050505091929192905050506108f9565b005b610359610a98565b604051808060200180602001838103835285818151815260200191508051906020019060200280838360005b838110156103a0578082015181840152602081019050610385565b50505050905001838103825284818151815260200191508051906020019060200280838360005b838110156103e25780820151818401526020810190506103c7565b5050505090500194505050505060405180910390f35b610400610a9e565b6040518080602001828103825283818151815260200191508051906020019060200280838360005b83811015610443578082015181840152602081019050610428565b505050509050019250505060405180910390f35b600061046d826000610b2c90919063ffffffff16565b9050919050565b6104ff7f00000000000000000000000000000000000000000000000000000000000000007fffffffffffffffffffffffffffffffffffffffffffffffffffffffffffffffff7f000000000000000000000000000000000000000000000000000000000000000073ffffffffffffffffffffffffffffffffffffffff16610bd09092919063ffffffff16565b50565b60008060007f000000000000000000000000000000000000000000000000000000000000000073ffffffffffffffffffffffffffffffffffffffff166315049a5a85306040518363ffffffff1660e01b8152600401808373ffffffffffffffffffffffffffffffffffffffff1681526020018273ffffffffffffffffffffffffffffffffffffffff1681526020019250505060606040518083038186803b1580156105ac57600080fd5b505afa1580156105c0573d6000803e3d6000fd5b505050506040513d60608110156105d657600080fd5b8101908080519060200190929190805190602001909291908051906020019092919050505050915091506000807f000000000000000000000000000000000000000000000000000000000000000073ffffffffffffffffffffffffffffffffffffffff166392511c8f876040518263ffffffff1660e01b8152600401808273ffffffffffffffffffffffffffffffffffffffff16815260200191505060c06040518083038186803b15801561068a57600080fd5b505afa15801561069e573d6000803e3d6000fd5b505050506040513d60c08110156106b457600080fd5b810190808051906020019092919080519060200190929190805190602001909291908051906020019092919080519060200190929190805190602001909291905050509550955050505050600084111561074a5761073f83610731836107238689610d9590919063ffffffff16565b610e1b90919063ffffffff16565b610ea490919063ffffffff16565b945050505050610752565b829450505050505b919050565b6060806060610764610a9e565b9050600081519050600081141561077c5750506108f5565b600167ffffffffffffffff8111801561079457600080fd5b506040519080825280602002602001820160405280156107c35781602001602082028036833780820191505090505b5093507f0000000000000000000000000000000000000000000000000000000000000000846000815181106107f457fe5b602002602001019073ffffffffffffffffffffffffffffffffffffffff16908173ffffffffffffffffffffffffffffffffffffffff1681525050600167ffffffffffffffff8111801561084657600080fd5b506040519080825280602002602001820160405280156108755781602001602082028036833780820191505090505b50925060005b818110156108f15760006108a184838151811061089457fe5b6020026020010151610502565b90506108ca81866000815181106108b457fe5b6020026020010151610ea490919063ffffffff16565b856000815181106108d757fe5b60200260200101818152505050808060010191505061087b565b5050505b9091565b6000606082806020019051604081101561091257600080fd5b81019080805190602001909291908051604051939291908464010000000082111561093c57600080fd5b8382019150602082018581111561095257600080fd5b825186600182028301116401000000008211171561096f57600080fd5b8083526020830192505050908051906020019080838360005b838110156109a3578082015181840152602081019050610988565b50505050905090810190601f1680156109d05780820380516001836020036101000a031916815260200191505b5060405250505091509150600060028111156109e857fe5b8214156109fd576109f881610f2c565b610a93565b60016002811115610a0a57fe5b821415610a1f57610a1a81611017565b610a92565b600280811115610a2b57fe5b821415610a4057610a3b81611215565b610a91565b6040517f08c379a0000000000000000000000000000000000000000000000000000000008152600401808060200182810382526026815260200180611d016026913960400191505060405180910390fd5b5b5b505050565b60608091565b60606000805480602002602001604051908101604052809291908181526020018280548015610b2257602002820191906000526020600020905b8160009054906101000a900473ffffffffffffffffffffffffffffffffffffffff1673ffffffffffffffffffffffffffffffffffffffff1681526020019060010190808311610ad8575b5050505050905090565b6000808380549050905060005b81811015610bc357848181548110610b4d57fe5b9060005260206000200160009054906101000a900473ffffffffffffffffffffffffffffffffffffffff1673ffffffffffffffffffffffffffffffffffffffff168473ffffffffffffffffffffffffffffffffffffffff161415610bb657600192505050610bca565b8080600101915050610b39565b5060009150505b92915050565b6000811480610c9e575060008373ffffffffffffffffffffffffffffffffffffffff1663dd62ed3e30856040518363ffffffff1660e01b8152600401808373ffffffffffffffffffffffffffffffffffffffff1681526020018273ffffffffffffffffffffffffffffffffffffffff1681526020019250505060206040518083038186803b158015610c6157600080fd5b505afa158015610c75573d6000803e3d6000fd5b505050506040513d6020811015610c8b57600080fd5b8101908080519060200190929190505050145b610cf3576040517f08c379a0000000000000000000000000000000000000000000000000000000008152600401808060200182810382526036815260200180611d726036913960400191505060405180910390fd5b610d908363095ea7b360e01b8484604051602401808373ffffffffffffffffffffffffffffffffffffffff16815260200182815260200192505050604051602081830303815290604052907bffffffffffffffffffffffffffffffffffffffffffffffffffffffff19166020820180517bffffffffffffffffffffffffffffffffffffffffffffffffffffffff83818316178352505050506115c8565b505050565b600080831415610da85760009050610e15565b6000828402905082848281610db957fe5b0414610e10576040517f08c379a0000000000000000000000000000000000000000000000000000000008152600401808060200182810382526021815260200180611d276021913960400191505060405180910390fd5b809150505b92915050565b6000808211610e92576040517f08c379a000000000000000000000000000000000000000000000000000000000815260040180806020018281038252601a8152602001807f536166654d6174683a206469766973696f6e206279207a65726f00000000000081525060200191505060405180910390fd5b818381610e9b57fe5b04905092915050565b600080828401905083811015610f22576040517f08c379a000000000000000000000000000000000000000000000000000000000815260040180806020018281038252601b8152602001807f536166654d6174683a206164646974696f6e206f766572666c6f77000000000081525060200191505060405180910390fd5b8091505092915050565b600080610f38836116b7565b91509150610f45826116f3565b7f000000000000000000000000000000000000000000000000000000000000000073ffffffffffffffffffffffffffffffffffffffff1663026e402b83836040518363ffffffff1660e01b8152600401808373ffffffffffffffffffffffffffffffffffffffff16815260200182815260200192505050602060405180830381600087803b158015610fd657600080fd5b505af1158015610fea573d6000803e3d6000fd5b505050506040513d602081101561100057600080fd5b810190808051906020019092919050505050505050565b600080611023836117aa565b915091507f000000000000000000000000000000000000000000000000000000000000000073ffffffffffffffffffffffffffffffffffffffff16634d99dd1683836040518363ffffffff1660e01b8152600401808373ffffffffffffffffffffffffffffffffffffffff16815260200182815260200192505050602060405180830381600087803b1580156110b857600080fd5b505af11580156110cc573d6000803e3d6000fd5b505050506040513d60208110156110e257600080fd5b81019080805190602001909291905050505060007f000000000000000000000000000000000000000000000000000000000000000073ffffffffffffffffffffffffffffffffffffffff166370a08231306040518263ffffffff1660e01b8152600401808273ffffffffffffffffffffffffffffffffffffffff16815260200191505060206040518083038186803b15801561117d57600080fd5b505afa158015611191573d6000803e3d6000fd5b505050506040513d60208110156111a757600080fd5b81019080805190602001909291905050509050600081111561120f5761120e33827f000000000000000000000000000000000000000000000000000000000000000073ffffffffffffffffffffffffffffffffffffffff166117e69092919063ffffffff16565b5b50505050565b60008061122183611888565b915091507f000000000000000000000000000000000000000000000000000000000000000073ffffffffffffffffffffffffffffffffffffffff166351a60b0283836040518363ffffffff1660e01b8152600401808373ffffffffffffffffffffffffffffffffffffffff1681526020018273ffffffffffffffffffffffffffffffffffffffff16815260200192505050602060405180830381600087803b1580156112cc57600080fd5b505af11580156112e0573d6000803e3d6000fd5b505050506040513d60208110156112f657600080fd5b8101908080519060200190929190505050506000807f000000000000000000000000000000000000000000000000000000000000000073ffffffffffffffffffffffffffffffffffffffff166315049a5a85306040518363ffffffff1660e01b8152600401808373ffffffffffffffffffffffffffffffffffffffff1681526020018273ffffffffffffffffffffffffffffffffffffffff1681526020019250505060606040518083038186803b1580156113b057600080fd5b505afa1580156113c4573d6000803e3d6000fd5b505050506040513d60608110156113da57600080fd5b8101908080519060200190929190805190602001909291908051906020019092919050505050915091506000821480156114145750600081145b156114725761142d8460006118c490919063ffffffff16565b508373ffffffffffffffffffffffffffffffffffffffff167fc2311cd5b528d092b51bcba1ab9da737e9f7062ee61ab27aac6693ec84a0e64360405160405180910390a25b600073ffffffffffffffffffffffffffffffffffffffff168373ffffffffffffffffffffffffffffffffffffffff16146114b4576114af836116f3565b6115c1565b6115c0337f000000000000000000000000000000000000000000000000000000000000000073ffffffffffffffffffffffffffffffffffffffff166370a08231306040518263ffffffff1660e01b8152600401808273ffffffffffffffffffffffffffffffffffffffff16815260200191505060206040518083038186803b15801561153f57600080fd5b505afa158015611553573d6000803e3d6000fd5b505050506040513d602081101561156957600080fd5b81019080805190602001909291905050507f000000000000000000000000000000000000000000000000000000000000000073ffffffffffffffffffffffffffffffffffffffff166117e69092919063ffffffff16565b5b5050505050565b606061162a826040518060400160405280602081526020017f5361666545524332303a206c6f772d6c6576656c2063616c6c206661696c65648152508573ffffffffffffffffffffffffffffffffffffffff16611a3a9092919063ffffffff16565b90506000815111156116b25780806020019051602081101561164b57600080fd5b81019080805190602001909291905050506116b1576040517f08c379a000000000000000000000000000000000000000000000000000000000815260040180806020018281038252602a815260200180611d48602a913960400191505060405180910390fd5b5b505050565b6000808280602001905160408110156116cf57600080fd5b81019080805190602001909291908051906020019092919050505091509150915091565b6116fc81610457565b6117a7576000819080600181540180825580915050600190039060005260206000200160009091909190916101000a81548173ffffffffffffffffffffffffffffffffffffffff021916908373ffffffffffffffffffffffffffffffffffffffff1602179055508073ffffffffffffffffffffffffffffffffffffffff167fc858d0245daa67035a21710c35419a4f810d8ac380aae2ac337683b4a957cbe860405160405180910390a25b50565b6000808280602001905160408110156117c257600080fd5b81019080805190602001909291908051906020019092919050505091509150915091565b6118838363a9059cbb60e01b8484604051602401808373ffffffffffffffffffffffffffffffffffffffff16815260200182815260200192505050604051602081830303815290604052907bffffffffffffffffffffffffffffffffffffffffffffffffffffffff19166020820180517bffffffffffffffffffffffffffffffffffffffffffffffffffffffff83818316178352505050506115c8565b505050565b6000808280602001905160408110156118a057600080fd5b81019080805190602001909291908051906020019092919050505091509150915091565b6000808380549050905060005b81811015611a32578373ffffffffffffffffffffffffffffffffffffffff168582815481106118fc57fe5b9060005260206000200160009054906101000a900473ffffffffffffffffffffffffffffffffffffffff1673ffffffffffffffffffffffffffffffffffffffff161415611a2557600182038110156119dd5784600183038154811061195d57fe5b9060005260206000200160009054906101000a900473ffffffffffffffffffffffffffffffffffffffff1685828154811061199457fe5b9060005260206000200160006101000a81548173ffffffffffffffffffffffffffffffffffffffff021916908373ffffffffffffffffffffffffffffffffffffffff1602179055505b848054806119e757fe5b6001900381819060005260206000200160006101000a81549073ffffffffffffffffffffffffffffffffffffffff0219169055905560019250611a32565b80806001019150506118d1565b505092915050565b6060611a498484600085611a52565b90509392505050565b606082471015611aad576040517f08c379a0000000000000000000000000000000000000000000000000000000008152600401808060200182810382526026815260200180611cdb6026913960400191505060405180910390fd5b611ab685611bfb565b611b28576040517f08c379a000000000000000000000000000000000000000000000000000000000815260040180806020018281038252601d8152602001807f416464726573733a2063616c6c20746f206e6f6e2d636f6e747261637400000081525060200191505060405180910390fd5b600060608673ffffffffffffffffffffffffffffffffffffffff1685876040518082805190602001908083835b60208310611b785780518252602082019150602081019050602083039250611b55565b6001836020036101000a03801982511681845116808217855250505050505090500191505060006040518083038185875af1925050503d8060008114611bda576040519150601f19603f3d011682016040523d82523d6000602084013e611bdf565b606091505b5091509150611bef828286611c0e565b92505050949350505050565b600080823b905060008111915050919050565b60608315611c1e57829050611cd3565b600083511115611c315782518084602001fd5b816040517f08c379a00000000000000000000000000000000000000000000000000000000081526004018080602001828103825283818151815260200191508051906020019080838360005b83811015611c98578082015181840152602081019050611c7d565b50505050905090810190601f168015611cc55780820380516001836020036101000a031916815260200191505b509250505060405180910390fd5b939250505056fe416464726573733a20696e73756666696369656e742062616c616e636520666f722063616c6c7265636569766543616c6c46726f6d5661756c743a20496e76616c696420616374696f6e4964536166654d6174683a206d756c7469706c69636174696f6e206f766572666c6f775361666545524332303a204552433230206f7065726174696f6e20646964206e6f7420737563636565645361666545524332303a20617070726f76652066726f6d206e6f6e2d7a65726f20746f206e6f6e2d7a65726f20616c6c6f77616e6365a164736f6c634300060c000a","linkReferences":{}},"methodIdentifiers":{"getDebtAssets()":"ecd658b4","getDelegationGrtValue(address)":"5d0e6517","getIndexers()":"f3b60567","getManagedAssets()":"80daddb8","init(bytes)":"4ddf47d4","isDelegatorTo(address)":"4682b645","receiveCallFromVault(bytes)":"e5c23a97"},"id":185}