{"abi":[{"type":"constructor","inputs":[{"name":"_integrationManager","type":"address","internalType":"address"},{"name":"_router","type":"address","internalType":"address"}],"stateMutability":"nonpayable"},{"type":"function","name":"getIntegrationManager","inputs":[],"outputs":[{"name":"integrationManager_","type":"address","internalType":"address"}],"stateMutability":"view"},{"type":"function","name":"getUniswapV3Router","inputs":[],"outputs":[{"name":"router_","type":"address","internalType":"address"}],"stateMutability":"view"},{"type":"function","name":"parseAssetsForAction","inputs":[{"name":"","type":"address","internalType":"address"},{"name":"_selector","type":"bytes4","internalType":"bytes4"},{"name":"_actionData","type":"bytes","internalType":"bytes"}],"outputs":[{"name":"spendAssetsHandleType_","type":"uint8","internalType":"enum IIntegrationManager.SpendAssetsHandleType"},{"name":"spendAssets_","type":"address[]","internalType":"address[]"},{"name":"spendAssetAmounts_","type":"uint256[]","internalType":"uint256[]"},{"name":"incomingAssets_","type":"address[]","internalType":"address[]"},{"name":"minIncomingAssetAmounts_","type":"uint256[]","internalType":"uint256[]"}],"stateMutability":"view"},{"type":"function","name":"takeOrder","inputs":[{"name":"_vaultProxy","type":"address","internalType":"address"},{"name":"_actionData","type":"bytes","internalType":"bytes"},{"name":"","type":"bytes","internalType":"bytes"}],"outputs":[],"stateMutability":"nonpayable"}],"bytecode":{"object":"0x60c06040523480156200001157600080fd5b50604051620014f3380380620014f3833981016040819052620000349162000066565b6001600160601b0319606092831b8116608052911b1660a052620000d1565b80516200006081620000b7565b92915050565b600080604083850312156200007a57600080fd5b600062000088858562000053565b92505060206200009b8582860162000053565b9150509250929050565b60006001600160a01b03821662000060565b620000c281620000a5565b8114620000ce57600080fd5b50565b60805160601c60a05160601c6113ea620001096000398061016852806103f6528061050552508060bb528061039152506113ea6000f3fe608060405234801561001057600080fd5b506004361061004c5760003560e01c806303e38a2b14610051578063b9e3de4414610066578063c54efee514610084578063e7c45690146100a8575b600080fd5b61006461005f366004610b49565b6100b0565b005b61006e610166565b60405161007b9190611157565b60405180910390f35b610097610092366004610ae1565b61018a565b60405161007b95949392919061119b565b61006e61038f565b336001600160a01b037f000000000000000000000000000000000000000000000000000000000000000016146101015760405162461bcd60e51b81526004016100f890611238565b60405180910390fd5b60608060008061014688888080601f0160208091040260200160405190810160405280939291908181526020018383808284376000920191909152506103b392505050565b935093509350935061015b89858585856103dc565b505050505050505050565b7f000000000000000000000000000000000000000000000000000000000000000090565b600060608080806001600160e01b031988166303e38a2b60e01b146101c15760405162461bcd60e51b81526004016100f890611278565b6060806000806102068b8b8080601f0160208091040260200160405190810160405280939291908181526020018383808284376000920191909152506103b392505050565b93509350935093506002845110156102305760405162461bcd60e51b81526004016100f890611228565b82516001018451146102545760405162461bcd60e51b81526004016100f890611208565b60408051600180825281830190925290602080830190803683370190505097508360008151811061028157fe5b60200260200101518860008151811061029657fe5b6001600160a01b039290921660209283029190910182015260408051600180825281830190925291828101908036833701905050965081876000815181106102da57fe5b6020908102919091010152604080516001808252818301909252908160200160208202803683370190505095508360018551038151811061031757fe5b60200260200101518660008151811061032c57fe5b6001600160a01b0392909216602092830291909101820152604080516001808252818301909252918281019080368337019050509450808560008151811061037057fe5b6020026020010181815250506002985050505050945094509450945094565b7f000000000000000000000000000000000000000000000000000000000000000090565b606080600080848060200190518101906103cd9190610bd0565b93509350935093509193509193565b61041b846000815181106103ec57fe5b60200260200101517f0000000000000000000000000000000000000000000000000000000000000000846105ab565b606060005b85518110156104c55760018651038114610485578186828151811061044157fe5b602002602001015186838151811061045557fe5b602002602001015160405160200161046f93929190611124565b60405160208183030381529060405291506104bd565b8186828151811061049257fe5b60200260200101516040516020016104ab929190611102565b60405160208183030381529060405291505b600101610420565b506104ce610929565b6040518060a00160405280838152602001886001600160a01b031681526020014260010181526020018581526020018481525090507f00000000000000000000000000000000000000000000000000000000000000006001600160a01b031663c04b8d59826040518263ffffffff1660e01b815260040161054f9190611288565b602060405180830381600087803b15801561056957600080fd5b505af115801561057d573d6000803e3d6000fd5b505050506040513d601f19601f820116820180604052508101906105a19190610c86565b5050505050505050565b604051636eb1769f60e11b81526000906001600160a01b0385169063dd62ed3e906105dc9030908790600401611165565b60206040518083038186803b1580156105f457600080fd5b505afa158015610608573d6000803e3d6000fd5b505050506040513d601f19601f8201168201806040525081019061062c9190610c86565b905081811015610667578015610651576106516001600160a01b03851684600061066d565b6106676001600160a01b0385168460001961066d565b50505050565b61068061067984610685565b838361068c565b505050565b805b919050565b8015806107145750604051636eb1769f60e11b81526001600160a01b0384169063dd62ed3e906106c29030908690600401611165565b60206040518083038186803b1580156106da57600080fd5b505afa1580156106ee573d6000803e3d6000fd5b505050506040513d601f19601f820116820180604052508101906107129190610c86565b155b6107305760405162461bcd60e51b81526004016100f890611268565b6106808363095ea7b360e01b848460405160240161074f929190611180565b60408051601f198184030181529190526020810180516001600160e01b03166001600160e01b03199093169290921790915260606107d6826040518060400160405280602081526020017f5361666545524332303a206c6f772d6c6576656c2063616c6c206661696c6564815250856001600160a01b03166108109092919063ffffffff16565b80519091501561068057808060200190518101906107f49190610c60565b6106805760405162461bcd60e51b81526004016100f890611258565b606061081f8484600085610829565b90505b9392505050565b60608247101561084b5760405162461bcd60e51b81526004016100f890611218565b610854856108ea565b6108705760405162461bcd60e51b81526004016100f890611248565b60006060866001600160a01b0316858760405161088d91906110f6565b60006040518083038185875af1925050503d80600081146108ca576040519150601f19603f3d011682016040523d82523d6000602084013e6108cf565b606091505b50915091506108df8282866108f0565b979650505050505050565b3b151590565b606083156108ff575081610822565b82511561090f5782518084602001fd5b8160405162461bcd60e51b81526004016100f891906111f7565b6040518060a001604052806060815260200160006001600160a01b031681526020016000815260200160008152602001600081525090565b803561096c816113a5565b92915050565b805161096c816113a5565b600082601f83011261098e57600080fd5b81516109a161099c826112c0565b611299565b915081818352602084019350602081019050838560208402820111156109c657600080fd5b60005b838110156109f257816109dc8882610972565b84525060209283019291909101906001016109c9565b5050505092915050565b600082601f830112610a0d57600080fd5b8151610a1b61099c826112c0565b91508181835260208401935060208101905083856020840282011115610a4057600080fd5b60005b838110156109f25781610a568882610acb565b8452506020928301929190910190600101610a43565b805161096c816113b9565b803561096c816113c2565b60008083601f840112610a9457600080fd5b50813567ffffffffffffffff811115610aac57600080fd5b602083019150836001820283011115610ac457600080fd5b9250929050565b805161096c816113cb565b805161096c816113d4565b60008060008060608587031215610af757600080fd5b6000610b038787610961565b9450506020610b1487828801610a77565b935050604085013567ffffffffffffffff811115610b3157600080fd5b610b3d87828801610a82565b95989497509550505050565b600080600080600060608688031215610b6157600080fd5b6000610b6d8888610961565b955050602086013567ffffffffffffffff811115610b8a57600080fd5b610b9688828901610a82565b9450945050604086013567ffffffffffffffff811115610bb557600080fd5b610bc188828901610a82565b92509250509295509295909350565b60008060008060808587031215610be657600080fd5b845167ffffffffffffffff811115610bfd57600080fd5b610c098782880161097d565b945050602085015167ffffffffffffffff811115610c2657600080fd5b610c32878288016109fc565b9350506040610c4387828801610ad6565b9250506060610c5487828801610ad6565b91505092959194509250565b600060208284031215610c7257600080fd5b6000610c7e8484610a6c565b949350505050565b600060208284031215610c9857600080fd5b6000610c7e8484610ad6565b6000610cb08383610cc4565b505060200190565b6000610cb083836110ed565b610ccd816112f4565b82525050565b610ccd610cdf826112f4565b611366565b6000610cef826112e7565b610cf981856112eb565b9350610d04836112e1565b8060005b83811015610d32578151610d1c8882610ca4565b9750610d27836112e1565b925050600101610d08565b509495945050505050565b6000610d48826112e7565b610d5281856112eb565b9350610d5d836112e1565b8060005b83811015610d32578151610d758882610cb8565b9750610d80836112e1565b925050600101610d61565b6000610d96826112e7565b610da081856112eb565b9350610db081856020860161133a565b610db981611382565b9093019392505050565b6000610dce826112e7565b610dd88185610687565b9350610de881856020860161133a565b9290920192915050565b610ccd8161132f565b6000610e086040836112eb565b7f7061727365417373657473466f72416374696f6e3a20696e636f72726563742081527f70617468416464726573736573206f72207061746846656573206c656e677468602082015260400192915050565b6000610e676026836112eb565b7f416464726573733a20696e73756666696369656e742062616c616e636520666f8152651c8818d85b1b60d21b602082015260400192915050565b6000610eaf6030836112eb565b7f7061727365417373657473466f72416374696f6e3a207061746841646472657381526f39b2b99036bab9ba103132901f1e901960811b602082015260400192915050565b6000610f016032836112eb565b7f4f6e6c792074686520496e746567726174696f6e4d616e616765722063616e2081527131b0b636103a3434b990333ab731ba34b7b760711b602082015260400192915050565b6000610f55601d836112eb565b7f416464726573733a2063616c6c20746f206e6f6e2d636f6e7472616374000000815260200192915050565b6000610f8e602a836112eb565b7f5361666545524332303a204552433230206f7065726174696f6e20646964206e8152691bdd081cdd58d8d9595960b21b602082015260400192915050565b6000610fda6036836112eb565b7f5361666545524332303a20617070726f76652066726f6d206e6f6e2d7a65726f81527520746f206e6f6e2d7a65726f20616c6c6f77616e636560501b602082015260400192915050565b60006110326027836112eb565b7f7061727365417373657473466f72416374696f6e3a205f73656c6563746f72208152661a5b9d985b1a5960ca1b602082015260400192915050565b805160a0808452600091908401906110868282610d8b565b915050602083015161109b6020860182610cc4565b5060408301516110ae60408601826110ed565b5060608301516110c160608601826110ed565b5060808301516110d460808601826110ed565b509392505050565b610ccd6110e882611327565b611377565b610ccd81610685565b60006108228284610dc3565b600061110e8285610dc3565b915061111a8284610cd3565b5060140192915050565b60006111308286610dc3565b915061113c8285610cd3565b60148201915061114c82846110dc565b506003019392505050565b6020810161096c8284610cc4565b604081016111738285610cc4565b6108226020830184610cc4565b6040810161118e8285610cc4565b61082260208301846110ed565b60a081016111a98288610df2565b81810360208301526111bb8187610ce4565b905081810360408301526111cf8186610d3d565b905081810360608301526111e38185610ce4565b905081810360808301526108df8184610d3d565b602080825281016108228184610d8b565b6020808252810161096c81610dfb565b6020808252810161096c81610e5a565b6020808252810161096c81610ea2565b6020808252810161096c81610ef4565b6020808252810161096c81610f48565b6020808252810161096c81610f81565b6020808252810161096c81610fcd565b6020808252810161096c81611025565b60208082528101610822818461106e565b60405181810167ffffffffffffffff811182821017156112b857600080fd5b604052919050565b600067ffffffffffffffff8211156112d757600080fd5b5060209081020190565b60200190565b5190565b90815260200190565b600061096c8261131b565b151590565b6001600160e01b03191690565b8061068781611398565b6001600160a01b031690565b62ffffff1690565b600061096c82611311565b60005b8381101561135557818101518382015260200161133d565b838111156106675750506000910152565b600061096c82600061096c82611392565b600061096c8261138c565b601f01601f191690565b60e81b90565b60601b90565b600381106113a257fe5b50565b6113ae816112f4565b81146113a257600080fd5b6113ae816112ff565b6113ae81611304565b6113ae81611327565b6113ae8161068556fea164736f6c634300060c000a","linkReferences":{}},"methodIdentifiers":{"getIntegrationManager()":"e7c45690","getUniswapV3Router()":"b9e3de44","parseAssetsForAction(address,bytes4,bytes)":"c54efee5","takeOrder(address,bytes,bytes)":"03e38a2b"},"id":192}