{"abi":[{"type":"constructor","inputs":[{"name":"_integrationManager","type":"address","internalType":"address"},{"name":"_router","type":"address","internalType":"address"}],"stateMutability":"nonpayable"},{"type":"function","name":"getIntegrationManager","inputs":[],"outputs":[{"name":"integrationManager_","type":"address","internalType":"address"}],"stateMutability":"view"},{"type":"function","name":"getUniswapV3Router","inputs":[],"outputs":[{"name":"router_","type":"address","internalType":"address"}],"stateMutability":"view"},{"type":"function","name":"parseAssetsForAction","inputs":[{"name":"","type":"address","internalType":"address"},{"name":"_selector","type":"bytes4","internalType":"bytes4"},{"name":"_actionData","type":"bytes","internalType":"bytes"}],"outputs":[{"name":"spendAssetsHandleType_","type":"uint8","internalType":"enum IIntegrationManager.SpendAssetsHandleType"},{"name":"spendAssets_","type":"address[]","internalType":"address[]"},{"name":"spendAssetAmounts_","type":"uint256[]","internalType":"uint256[]"},{"name":"incomingAssets_","type":"address[]","internalType":"address[]"},{"name":"minIncomingAssetAmounts_","type":"uint256[]","internalType":"uint256[]"}],"stateMutability":"view"},{"type":"function","name":"takeOrder","inputs":[{"name":"_vaultProxy","type":"address","internalType":"address"},{"name":"_actionData","type":"bytes","internalType":"bytes"},{"name":"","type":"bytes","internalType":"bytes"}],"outputs":[],"stateMutability":"nonpayable"}],"bytecode":{"object":"0x60c060405234801561001057600080fd5b5060405161124738038061124783398101604081905261002f9161004d565b6001600160601b0319606092831b8116608052911b1660a05261009e565b6000806040838503121561005f578182fd5b825161006a81610086565b602084015190925061007b81610086565b809150509250929050565b6001600160a01b038116811461009b57600080fd5b50565b60805160601c60a05160601c6111726100d56000398061016852806103f6528061050552508060bb528061039152506111726000f3fe608060405234801561001057600080fd5b506004361061004c5760003560e01c806303e38a2b14610051578063b9e3de4414610066578063c54efee514610084578063e7c45690146100a8575b600080fd5b61006461005f366004610a93565b6100b0565b005b61006e610166565b60405161007b9190610d5b565b60405180910390f35b610097610092366004610a24565b61018a565b60405161007b959493929190610da2565b61006e61038f565b336001600160a01b037f000000000000000000000000000000000000000000000000000000000000000016146101015760405162461bcd60e51b81526004016100f890610f12565b60405180910390fd5b60608060008061014688888080601f0160208091040260200160405190810160405280939291908181526020018383808284376000920191909152506103b392505050565b935093509350935061015b89858585856103dc565b505050505050505050565b7f000000000000000000000000000000000000000000000000000000000000000090565b600060608080806001600160e01b031988166303e38a2b60e01b146101c15760405162461bcd60e51b81526004016100f89061103b565b6060806000806102068b8b8080601f0160208091040260200160405190810160405280939291908181526020018383808284376000920191909152506103b392505050565b93509350935093506002845110156102305760405162461bcd60e51b81526004016100f890610ec2565b82516001018451146102545760405162461bcd60e51b81526004016100f890610e1e565b60408051600180825281830190925290602080830190803683370190505097508360008151811061028157fe5b60200260200101518860008151811061029657fe5b6001600160a01b039290921660209283029190910182015260408051600180825281830190925291828101908036833701905050965081876000815181106102da57fe5b6020908102919091010152604080516001808252818301909252908160200160208202803683370190505095508360018551038151811061031757fe5b60200260200101518660008151811061032c57fe5b6001600160a01b0392909216602092830291909101820152604080516001808252818301909252918281019080368337019050509450808560008151811061037057fe5b6020026020010181815250506002985050505050945094509450945094565b7f000000000000000000000000000000000000000000000000000000000000000090565b606080600080848060200190518101906103cd9190610b13565b93509350935093509193509193565b61041b846000815181106103ec57fe5b60200260200101517f0000000000000000000000000000000000000000000000000000000000000000846105ab565b606060005b85518110156104c55760018651038114610485578186828151811061044157fe5b602002602001015186838151811061045557fe5b602002602001015160405160200161046f93929190610d0f565b60405160208183030381529060405291506104bd565b8186828151811061049257fe5b60200260200101516040516020016104ab929190610cd8565b60405160208183030381529060405291505b600101610420565b506104ce610925565b6040518060a00160405280838152602001886001600160a01b031681526020014260010181526020018581526020018481525090507f00000000000000000000000000000000000000000000000000000000000000006001600160a01b031663c04b8d59826040518263ffffffff1660e01b815260040161054f9190611082565b602060405180830381600087803b15801561056957600080fd5b505af115801561057d573d6000803e3d6000fd5b505050506040513d601f19601f820116820180604052508101906105a19190610c06565b5050505050505050565b604051636eb1769f60e11b81526000906001600160a01b0385169063dd62ed3e906105dc9030908790600401610d6f565b60206040518083038186803b1580156105f457600080fd5b505afa158015610608573d6000803e3d6000fd5b505050506040513d601f19601f8201168201806040525081019061062c9190610c06565b905081811015610667578015610651576106516001600160a01b03851684600061066d565b6106676001600160a01b0385168460001961066d565b50505050565b61068061067984610685565b8383610688565b505050565b90565b8015806107105750604051636eb1769f60e11b81526001600160a01b0384169063dd62ed3e906106be9030908690600401610d6f565b60206040518083038186803b1580156106d657600080fd5b505afa1580156106ea573d6000803e3d6000fd5b505050506040513d601f19601f8201168201806040525081019061070e9190610c06565b155b61072c5760405162461bcd60e51b81526004016100f890610fe5565b6106808363095ea7b360e01b848460405160240161074b929190610d89565b60408051601f198184030181529190526020810180516001600160e01b03166001600160e01b03199093169290921790915260606107d2826040518060400160405280602081526020017f5361666545524332303a206c6f772d6c6576656c2063616c6c206661696c6564815250856001600160a01b031661080c9092919063ffffffff16565b80519091501561068057808060200190518101906107f09190610be6565b6106805760405162461bcd60e51b81526004016100f890610f9b565b606061081b8484600085610825565b90505b9392505050565b6060824710156108475760405162461bcd60e51b81526004016100f890610e7c565b610850856108e6565b61086c5760405162461bcd60e51b81526004016100f890610f64565b60006060866001600160a01b031685876040516108899190610cbc565b60006040518083038185875af1925050503d80600081146108c6576040519150601f19603f3d011682016040523d82523d6000602084013e6108cb565b606091505b50915091506108db8282866108ec565b979650505050505050565b3b151590565b606083156108fb57508161081e565b82511561090b5782518084602001fd5b8160405162461bcd60e51b81526004016100f89190610e0b565b6040518060a001604052806060815260200160006001600160a01b031681526020016000815260200160008152602001600081525090565b600082601f83011261096d578081fd5b815161098061097b82611101565b6110da565b8181529150602080830190848101818402860182018710156109a157600080fd5b6000805b858110156109d157825162ffffff811681146109bf578283fd5b855293830193918301916001016109a5565b50505050505092915050565b60008083601f8401126109ee578182fd5b50813567ffffffffffffffff811115610a05578182fd5b602083019150836020828501011115610a1d57600080fd5b9250929050565b60008060008060608587031215610a39578384fd5b8435610a448161114d565b935060208501356001600160e01b031981168114610a60578384fd5b9250604085013567ffffffffffffffff811115610a7b578283fd5b610a87878288016109dd565b95989497509550505050565b600080600080600060608688031215610aaa578081fd5b8535610ab58161114d565b9450602086013567ffffffffffffffff80821115610ad1578283fd5b610add89838a016109dd565b90965094506040880135915080821115610af5578283fd5b50610b02888289016109dd565b969995985093965092949392505050565b60008060008060808587031215610b28578384fd5b845167ffffffffffffffff80821115610b3f578586fd5b818701915087601f830112610b52578586fd5b8151610b6061097b82611101565b80828252602080830192508086018c828387028901011115610b80578a8bfd5b8a96505b84871015610bab578051610b978161114d565b845260019690960195928101928101610b84565b508a01519098509350505080821115610bc2578485fd5b50610bcf8782880161095d565b604087015160609097015195989097509350505050565b600060208284031215610bf7578081fd5b8151801515811461081e578182fd5b600060208284031215610c17578081fd5b5051919050565b6000815180845260208085019450808401835b83811015610c565781516001600160a01b031687529582019590820190600101610c31565b509495945050505050565b6000815180845260208085019450808401835b83811015610c5657815187529582019590820190600101610c74565b60008151808452610ca8816020860160208601611121565b601f01601f19169290920160200192915050565b60008251610cce818460208701611121565b9190910192915050565b60008351610cea818460208801611121565b60609390931b6bffffffffffffffffffffffff19169190920190815260140192915050565b60008451610d21818460208901611121565b60609490941b6bffffffffffffffffffffffff19169190930190815260e89190911b6001600160e81b031916601482015260170192915050565b6001600160a01b0391909116815260200190565b6001600160a01b0392831681529116602082015260400190565b6001600160a01b03929092168252602082015260400190565b600060038710610dae57fe5b86825260a06020830152610dc560a0830187610c1e565b8281036040840152610dd78187610c61565b90508281036060840152610deb8186610c1e565b90508281036080840152610dff8185610c61565b98975050505050505050565b60006020825261081e6020830184610c90565b602080825260409082018190527f7061727365417373657473466f72416374696f6e3a20696e636f727265637420908201527f70617468416464726573736573206f72207061746846656573206c656e677468606082015260800190565b60208082526026908201527f416464726573733a20696e73756666696369656e742062616c616e636520666f6040820152651c8818d85b1b60d21b606082015260800190565b60208082526030908201527f7061727365417373657473466f72416374696f6e3a207061746841646472657360408201526f39b2b99036bab9ba103132901f1e901960811b606082015260800190565b60208082526032908201527f4f6e6c792074686520496e746567726174696f6e4d616e616765722063616e2060408201527131b0b636103a3434b990333ab731ba34b7b760711b606082015260800190565b6020808252601d908201527f416464726573733a2063616c6c20746f206e6f6e2d636f6e7472616374000000604082015260600190565b6020808252602a908201527f5361666545524332303a204552433230206f7065726174696f6e20646964206e6040820152691bdd081cdd58d8d9595960b21b606082015260800190565b60208082526036908201527f5361666545524332303a20617070726f76652066726f6d206e6f6e2d7a65726f60408201527520746f206e6f6e2d7a65726f20616c6c6f77616e636560501b606082015260800190565b60208082526027908201527f7061727365417373657473466f72416374696f6e3a205f73656c6563746f72206040820152661a5b9d985b1a5960ca1b606082015260800190565b600060208252825160a0602084015261109e60c0840182610c90565b905060018060a01b0360208501511660408401526040840151606084015260608401516080840152608084015160a08401528091505092915050565b60405181810167ffffffffffffffff811182821017156110f957600080fd5b604052919050565b600067ffffffffffffffff821115611117578081fd5b5060209081020190565b60005b8381101561113c578181015183820152602001611124565b838111156106675750506000910152565b6001600160a01b038116811461116257600080fd5b5056fea164736f6c634300060c000a","linkReferences":{}},"methodIdentifiers":{"getIntegrationManager()":"e7c45690","getUniswapV3Router()":"b9e3de44","parseAssetsForAction(address,bytes4,bytes)":"c54efee5","takeOrder(address,bytes,bytes)":"03e38a2b"},"id":182}