{"abi":[{"type":"constructor","inputs":[],"stateMutability":"nonpayable"},{"type":"function","name":"deploy","inputs":[{"name":"_owner","type":"address","internalType":"address"},{"name":"_updater","type":"address","internalType":"address"},{"name":"_description","type":"bytes32","internalType":"bytes32"}],"outputs":[{"name":"proxy_","type":"address","internalType":"address"}],"stateMutability":"nonpayable"},{"type":"event","name":"ProxyDeployed","inputs":[{"name":"caller","type":"address","indexed":true,"internalType":"address"},{"name":"proxy","type":"address","indexed":false,"internalType":"address"}],"anonymous":false}],"bytecode":{"object":"0x60a060405234801561001057600080fd5b5060405161001d9061004f565b604051809103906000f080158015610039573d6000803e3d6000fd5b5060601b6001600160601b03191660805261005c565b6106ab8061055783390190565b60805160601c6104df6100786000398060da52506104df6000f3fe608060405234801561001057600080fd5b506004361061002b5760003560e01c8063b031107914610030575b600080fd5b6100666004803603606081101561004657600080fd5b506001600160a01b03813581169160208101359091169060400135610082565b604080516001600160a01b039092168252519081900360200190f35b604080516001600160a01b03808616602483015284166044820152606480820184905282518083039091018152608490910182526020810180516001600160e01b0316631a392c5560e11b17905290516000919081907f000000000000000000000000000000000000000000000000000000000000000090610103906101e5565b8080602001836001600160a01b03168152602001828103825284818151815260200191508051906020019080838360005b8381101561014c578181015183820152602001610134565b50505050905090810190601f1680156101795780820380516001836020036101000a031916815260200191505b509350505050604051809103906000f08015801561019b573d6000803e3d6000fd5b50604080516001600160a01b0383168152905191935033917f3d2489efb661e8b1c3679865db649ca1de61d76a71184a1234de2e55786a6aad9181900360200190a2509392505050565b6102e0806101f38339019056fe60a060405234801561001057600080fd5b506040516102e03803806102e08339818101604052604081101561003357600080fd5b810190808051604051939291908464010000000082111561005357600080fd5b90830190602082018581111561006857600080fd5b825164010000000081118282018810171561008257600080fd5b82525081516020918201929091019080838360005b838110156100af578181015183820152602001610097565b50505050905090810190601f1680156100dc5780820380516001836020036101000a031916815260200191505b50604052602001805190602001909291905050508181806001600160a01b03166080816001600160a01b031660601b81525050807f360894a13ba1a3210667c828492db98dca3e2076cc3735a920a3ca505d382bbc5560006060826001600160a01b0316846040518082805190602001908083835b602083106101705780518252601f199092019160209182019101610151565b6001836020036101000a038019825116818451168082178552505050505050905001915050600060405180830381855af49150503d80600081146101d0576040519150601f19603f3d011682016040523d82523d6000602084013e6101d5565b606091505b50915091508181906102655760405162461bcd60e51b81526004018080602001828103825283818151815260200191508051906020019080838360005b8381101561022a578181015183820152602001610212565b50505050905090810190601f1680156102575780820380516001836020036101000a031916815260200191505b509250505060405180910390fd5b5050505050505060805160601c605a6102866000398060065250605a6000f3fe60806040527f00000000000000000000000000000000000000000000000000000000000000003660008037600080366000846127105a03f43d806000803e818015604857816000f35b816000fdfea164736f6c634300060c000aa164736f6c634300060c000a608060405234801561001057600080fd5b5061068b806100206000396000f3fe608060405234801561001057600080fd5b50600436106100a95760003560e01c80634e71e0c8116100715780634e71e0c814610165578063728e17a01461016d57806378121dd414610193578063893d20e81461019b57806399d54d39146101a35780639d54f419146101ab576100a9565b806320965255146100ae578063288b6a36146100c85780632cd56672146100ec578063347258aa1461010e5780634def985514610144575b600080fd5b6100b66101d1565b60408051918252519081900360200190f35b6100d06101de565b604080516001600160a01b039092168252519081900360200190f35b61010c6004803603602081101561010257600080fd5b503560170b6101ed565b005b61010c6004803603606081101561012457600080fd5b506001600160a01b038135811691602081013590911690604001356102c8565b61014c6103d6565b6040805192835260208301919091528051918290030190f35b61010c6103f1565b61010c6004803603602081101561018357600080fd5b50356001600160a01b0316610476565b6100b66104e9565b6100d0610500565b6100d061050f565b61010c600480360360208110156101c157600080fd5b50356001600160a01b031661051e565b600354601790810b900b90565b6000546001600160a01b031690565b6101f561050f565b6001600160a01b0316336001600160a01b03161461025a576040805162461bcd60e51b815260206004820152601960248201527f75706461746556616c75653a20556e617574686f72697a656400000000000000604482015290519081900360640190fd5b600380546001600160c01b0319166001600160c01b03601784900b8181169290921716600160c01b4267ffffffffffffffff16021790915560408051918252517f6577488b46c5d4bec17c8c7e5461e3b03f90932b44b31572d9b9cf30d21bdd8f916020908290030190a150565b60006102d2610500565b6001600160a01b03161461032d576040805162461bcd60e51b815260206004820152601960248201527f696e69743a20416c726561647920696e697469616c697a656400000000000000604482015290519081900360640190fd5b6001600160a01b03831661037d576040805162461bcd60e51b815260206004820152601260248201527134b734ba1d1022b6b83a3c902fb7bbb732b960711b604482015290519081900360640190fd5b6103868361058e565b6040805182815290517fdc73717d728bcfa015e8117438a65319aa06e979ca324afa6e1ea645c28ea15d9181900360200190a16001600160a01b038216156103d1576103d1826105e2565b505050565b6000806103e16101d1565b6103e96104e9565b915091509091565b60006103fb6101de565b9050336001600160a01b0382161461045a576040805162461bcd60e51b815260206004820152601c60248201527f636c61696d4f776e6572736869703a20556e617574686f72697a656400000000604482015290519081900360640190fd5b6104638161058e565b50600080546001600160a01b0319169055565b61047e610500565b6001600160a01b0316336001600160a01b0316146104dd576040805162461bcd60e51b81526020600482015260176024820152761bdb9b1e53dddb995c8e88155b985d5d1a1bdc9a5e9959604a1b604482015290519081900360640190fd5b6104e681610636565b50565b600354600160c01b900467ffffffffffffffff1690565b6001546001600160a01b031690565b6002546001600160a01b031690565b610526610500565b6001600160a01b0316336001600160a01b031614610585576040805162461bcd60e51b81526020600482015260176024820152761bdb9b1e53dddb995c8e88155b985d5d1a1bdc9a5e9959604a1b604482015290519081900360640190fd5b6104e6816105e2565b600180546001600160a01b0383166001600160a01b0319909116811790915560408051918252517f50146d0e3c60aa1d17a70635b05494f864e86144a2201275021014fbf08bafe29181900360200190a150565b600280546001600160a01b0383166001600160a01b0319909116811790915560408051918252517f5a39b8d3fd7361f3c5173afba233b7f1530567d03f9dfb0a2ca414960f08541d9181900360200190a150565b600080546001600160a01b0319166001600160a01b038316908117825560405190917f132c19de901bb4ed8403c34734b6c841d5dc57745824da452a52433519ea5abf91a25056fea164736f6c634300060c000a","linkReferences":{}},"methodIdentifiers":{"deploy(address,address,bytes32)":"b0311079"},"id":62}