{"abi":[{"type":"constructor","inputs":[{"name":"_integrationManager","type":"address","internalType":"address"},{"name":"_curvePriceFeed","type":"address","internalType":"address"},{"name":"_wrappedNativeAsset","type":"address","internalType":"address"},{"name":"_stakingWrapperFactory","type":"address","internalType":"address"},{"name":"_nativeAssetAddress","type":"address","internalType":"address"}],"stateMutability":"nonpayable"},{"type":"receive","stateMutability":"payable"},{"type":"function","name":"CLAIM_REWARDS_SELECTOR","inputs":[],"outputs":[{"name":"","type":"bytes4","internalType":"bytes4"}],"stateMutability":"view"},{"type":"function","name":"LEND_AND_STAKE_SELECTOR","inputs":[],"outputs":[{"name":"","type":"bytes4","internalType":"bytes4"}],"stateMutability":"view"},{"type":"function","name":"LEND_SELECTOR","inputs":[],"outputs":[{"name":"","type":"bytes4","internalType":"bytes4"}],"stateMutability":"view"},{"type":"function","name":"REDEEM_SELECTOR","inputs":[],"outputs":[{"name":"","type":"bytes4","internalType":"bytes4"}],"stateMutability":"view"},{"type":"function","name":"STAKE_SELECTOR","inputs":[],"outputs":[{"name":"","type":"bytes4","internalType":"bytes4"}],"stateMutability":"view"},{"type":"function","name":"TAKE_MULTIPLE_ORDERS_SELECTOR","inputs":[],"outputs":[{"name":"","type":"bytes4","internalType":"bytes4"}],"stateMutability":"view"},{"type":"function","name":"TAKE_ORDER_SELECTOR","inputs":[],"outputs":[{"name":"","type":"bytes4","internalType":"bytes4"}],"stateMutability":"view"},{"type":"function","name":"UNSTAKE_AND_REDEEM_SELECTOR","inputs":[],"outputs":[{"name":"","type":"bytes4","internalType":"bytes4"}],"stateMutability":"view"},{"type":"function","name":"UNSTAKE_SELECTOR","inputs":[],"outputs":[{"name":"","type":"bytes4","internalType":"bytes4"}],"stateMutability":"view"},{"type":"function","name":"claimRewards","inputs":[{"name":"_vaultProxy","type":"address","internalType":"address"},{"name":"_actionData","type":"bytes","internalType":"bytes"},{"name":"","type":"bytes","internalType":"bytes"}],"outputs":[],"stateMutability":"nonpayable"},{"type":"function","name":"getCurveLiquidityWrappedNativeAsset","inputs":[],"outputs":[{"name":"addressProvider_","type":"address","internalType":"address"}],"stateMutability":"view"},{"type":"function","name":"getIntegrationManager","inputs":[],"outputs":[{"name":"integrationManager_","type":"address","internalType":"address"}],"stateMutability":"view"},{"type":"function","name":"lendAndStake","inputs":[{"name":"_vaultProxy","type":"address","internalType":"address"},{"name":"_actionData","type":"bytes","internalType":"bytes"},{"name":"_assetData","type":"bytes","internalType":"bytes"}],"outputs":[],"stateMutability":"nonpayable"},{"type":"function","name":"parseAssetsForAction","inputs":[{"name":"","type":"address","internalType":"address"},{"name":"_selector","type":"bytes4","internalType":"bytes4"},{"name":"_actionData","type":"bytes","internalType":"bytes"}],"outputs":[{"name":"spendAssetsHandleType_","type":"uint8","internalType":"enum IIntegrationManager.SpendAssetsHandleType"},{"name":"spendAssets_","type":"address[]","internalType":"address[]"},{"name":"spendAssetAmounts_","type":"uint256[]","internalType":"uint256[]"},{"name":"incomingAssets_","type":"address[]","internalType":"address[]"},{"name":"minIncomingAssetAmounts_","type":"uint256[]","internalType":"uint256[]"}],"stateMutability":"view"},{"type":"function","name":"stake","inputs":[{"name":"_vaultProxy","type":"address","internalType":"address"},{"name":"_actionData","type":"bytes","internalType":"bytes"},{"name":"_assetData","type":"bytes","internalType":"bytes"}],"outputs":[],"stateMutability":"nonpayable"},{"type":"function","name":"unstake","inputs":[{"name":"_vaultProxy","type":"address","internalType":"address"},{"name":"_actionData","type":"bytes","internalType":"bytes"},{"name":"","type":"bytes","internalType":"bytes"}],"outputs":[],"stateMutability":"nonpayable"},{"type":"function","name":"unstakeAndRedeem","inputs":[{"name":"_vaultProxy","type":"address","internalType":"address"},{"name":"_actionData","type":"bytes","internalType":"bytes"},{"name":"_assetData","type":"bytes","internalType":"bytes"}],"outputs":[],"stateMutability":"nonpayable"}],"bytecode":{"object":"0x61012060405234801561001157600080fd5b5060405161391f38038061391f833981810160405260a081101561003457600080fd5b508051602082015160408301516060808501516080958601516001600160601b031995831b861690965291811b841660a05293841b831660c05290831b82166101005290911b1660e05260805160601c60a05160601c60c05160601c60e05160601c6101005160601c61382b6100f4600039806109d8528061293b525080611e05528061207b528061287f52508061350b52508061086c5250806108e15280610b635280610c265280610da45280610f7a5280610fcb525061382b6000f3fe6080604052600436106101025760003560e01c80638334eb9911610095578063c32990a211610064578063c32990a21461055d578063c54efee514610572578063e7c4569014610741578063f7d882b514610756578063fa7dd04d1461076b57610109565b80638334eb991461037d578063863e5ad014610458578063b23228cf1461046d578063b9dfbacc1461048257610109565b806329fa046e116100d157806329fa046e1461019b5780633ffc15911461027857806340da225d1461028d57806368e30677146102a257610109565b8063080456c11461010e57806312c9d38614610140578063131461c014610171578063257cb1a31461018657610109565b3661010957005b600080fd5b34801561011a57600080fd5b50610123610846565b604080516001600160e01b03199092168252519081900360200190f35b34801561014c57600080fd5b5061015561086a565b604080516001600160a01b039092168252519081900360200190f35b34801561017d57600080fd5b5061012361088e565b34801561019257600080fd5b506101236108b2565b3480156101a757600080fd5b50610276600480360360608110156101be57600080fd5b6001600160a01b038235169190810190604081016020820135600160201b8111156101e857600080fd5b8201836020820111156101fa57600080fd5b803590602001918460018302840111600160201b8311171561021b57600080fd5b919390929091602081019035600160201b81111561023857600080fd5b82018360208201111561024a57600080fd5b803590602001918460018302840111600160201b8311171561026b57600080fd5b5090925090506108d6565b005b34801561028457600080fd5b50610123610b10565b34801561029957600080fd5b50610123610b34565b3480156102ae57600080fd5b50610276600480360360608110156102c557600080fd5b6001600160a01b038235169190810190604081016020820135600160201b8111156102ef57600080fd5b82018360208201111561030157600080fd5b803590602001918460018302840111600160201b8311171561032257600080fd5b919390929091602081019035600160201b81111561033f57600080fd5b82018360208201111561035157600080fd5b803590602001918460018302840111600160201b8311171561037257600080fd5b509092509050610b58565b34801561038957600080fd5b50610276600480360360608110156103a057600080fd5b6001600160a01b038235169190810190604081016020820135600160201b8111156103ca57600080fd5b8201836020820111156103dc57600080fd5b803590602001918460018302840111600160201b831117156103fd57600080fd5b919390929091602081019035600160201b81111561041a57600080fd5b82018360208201111561042c57600080fd5b803590602001918460018302840111600160201b8311171561044d57600080fd5b509092509050610c1b565b34801561046457600080fd5b50610123610d51565b34801561047957600080fd5b50610123610d75565b34801561048e57600080fd5b50610276600480360360608110156104a557600080fd5b6001600160a01b038235169190810190604081016020820135600160201b8111156104cf57600080fd5b8201836020820111156104e157600080fd5b803590602001918460018302840111600160201b8311171561050257600080fd5b919390929091602081019035600160201b81111561051f57600080fd5b82018360208201111561053157600080fd5b803590602001918460018302840111600160201b8311171561055257600080fd5b509092509050610d99565b34801561056957600080fd5b50610123610e4f565b34801561057e57600080fd5b5061060c6004803603606081101561059557600080fd5b6001600160a01b03823516916001600160e01b031960208201351691810190606081016040820135600160201b8111156105ce57600080fd5b8201836020820111156105e057600080fd5b803590602001918460018302840111600160201b8311171561060157600080fd5b509092509050610e73565b6040518086600281111561061c57fe5b815260200180602001806020018060200180602001858103855289818151815260200191508051906020019060200280838360005b83811015610669578181015183820152602001610651565b50505050905001858103845288818151815260200191508051906020019060200280838360005b838110156106a8578181015183820152602001610690565b50505050905001858103835287818151815260200191508051906020019060200280838360005b838110156106e75781810151838201526020016106cf565b50505050905001858103825286818151815260200191508051906020019060200280838360005b8381101561072657818101518382015260200161070e565b50505050905001995050505050505050505060405180910390f35b34801561074d57600080fd5b50610155610f78565b34801561076257600080fd5b50610123610f9c565b34801561077757600080fd5b506102766004803603606081101561078e57600080fd5b6001600160a01b038235169190810190604081016020820135600160201b8111156107b857600080fd5b8201836020820111156107ca57600080fd5b803590602001918460018302840111600160201b831117156107eb57600080fd5b919390929091602081019035600160201b81111561080857600080fd5b82018360208201111561081a57600080fd5b803590602001918460018302840111600160201b8311171561083b57600080fd5b509092509050610fc0565b7f8334eb99be0145865eba9889fca2ee920288090caefff4cc776038e20ad9259a81565b7f000000000000000000000000000000000000000000000000000000000000000090565b7f29fa046e79524c3c5ac4c01df692c35e217802b2b13b21121b76cf0ef02b138c81565b7f099f75155f0e997bf83a7993a71d5e7e7540bd386fe1e84643a09ce6b412521981565b336001600160a01b037f0000000000000000000000000000000000000000000000000000000000000000161461093d5760405162461bcd60e51b81526004018080602001828103825260328152602001806137456032913960400191505060405180910390fd5b60006060600080600061098589898080601f0160208091040260200160405190810160405280939291908181526020018383808284376000920191909152506110dd92505050565b9450945094509450945060606109d088888080601f0160208091040260200160405190810160405280939291908181526020018383808284376000920191909152506111b192505050565b5050905060007f00000000000000000000000000000000000000000000000000000000000000006001600160a01b0316631f5bce55886040518263ffffffff1660e01b815260040180826001600160a01b0316815260200191505060206040518083038186803b158015610a4357600080fd5b505afa158015610a57573d6000803e3d6000fd5b505050506040513d6020811015610a6d57600080fd5b50519050610a7e878388878761136e565b610b02858d836001600160a01b03166370a08231306040518263ffffffff1660e01b815260040180826001600160a01b0316815260200191505060206040518083038186803b158015610ad057600080fd5b505afa158015610ae4573d6000803e3d6000fd5b505050506040513d6020811015610afa57600080fd5b505184611622565b505050505050505050505050565b7ffa7dd04da627f433da73c4355ead9c75682a67a8fc84d3f6170ef0922f402d2481565b7fb9dfbaccbe5cd2a84fdcf1d15f23ef25d23086f5afbaa99516065ed4a5bbc7a381565b336001600160a01b037f00000000000000000000000000000000000000000000000000000000000000001614610bbf5760405162461bcd60e51b81526004018080602001828103825260328152602001806137456032913960400191505060405180910390fd5b600080610c0186868080601f01602080910402602001604051908101604052809392919081815260200183838082843760009201919091525061169892505050565b9250925050610c12828889846116cc565b50505050505050565b336001600160a01b037f00000000000000000000000000000000000000000000000000000000000000001614610c825760405162461bcd60e51b81526004018080602001828103825260328152602001806137456032913960400191505060405180910390fd5b8482828080601f0160208091040260200160405190810160405280939291908181526020018383808284376000920182905250604080516020601f8c018190048102820181019092528a815291945084935083925082918291606091610d02918e908e90819084018382808284376000920191909152506117bf92505050565b955095509550955095509550610d1a858e30876116cc565b610d2786858585856118c2565b5050505050506060610d38826111b1565b92505050610d46838261190e565b505050505050505050565b7f03e38a2bd7063d45c897edeafc330e71657502dd86434d3c37a489caf116af6981565b7f68e30677f607df46e87da13e15b637784cfa62374b653f35ab43d10361a2f83081565b336001600160a01b037f00000000000000000000000000000000000000000000000000000000000000001614610e005760405162461bcd60e51b81526004018080602001828103825260328152602001806137456032913960400191505060405180910390fd5b610e48610e4285858080601f016020809104026020016040519081016040528093929190818152602001838380828437600092019190915250611a6992505050565b86611a8a565b5050505050565b7f0e7f692dad5b88fdee426250d6eae91207e56a2e8112b7364579bed1790e5bf481565b600060608080806001600160e01b03198816632e77eeb360e21b1415610eaa57610e9b611c2c565b94509450945094509450610f6d565b6001600160e01b031988166314fd023760e11b1415610ecd57610e9b8787611c8c565b6001600160e01b0319881663fa7dd04d60e01b1415610ef057610e9b8787611d91565b6001600160e01b031988166368e3067760e01b1415610f1357610e9b8787611f88565b6001600160e01b03198816638334eb9960e01b1415610f3657610e9b878761217f565b60405162461bcd60e51b81526004018080602001828103825260278152602001806137f86027913960400191505060405180910390fd5b945094509450945094565b7f000000000000000000000000000000000000000000000000000000000000000090565b7fc29fa9dde84204c2908778afd0613d802d31cf046179b88f6d2b4a4e507ea2d581565b336001600160a01b037f000000000000000000000000000000000000000000000000000000000000000016146110275760405162461bcd60e51b81526004018080602001828103825260328152602001806137456032913960400191505060405180910390fd5b60008061106986868080601f01602080910402602001604051908101604052809392919081815260200183838082843760009201919091525061169892505050565b925092505060606110af85858080601f0160208091040260200160405190810160405280939291908181526020018383808284376000920191909152506111b192505050565b505090506110d3838984846000815181106110c657fe5b6020026020010151611622565b5050505050505050565b6000606060008060008580602001905160a08110156110fb57600080fd5b815160208301805160405192949293830192919084600160201b82111561112157600080fd5b90830190602082018581111561113657600080fd5b82518660208202830111600160201b8211171561115257600080fd5b82525081516020918201928201910280838360005b8381101561117f578181015183820152602001611167565b50505050919091016040908152602083015190830151606090930151969d959c509a5090985093965091945050505050565b60608060608380602001905160608110156111cb57600080fd5b8101908080516040519392919084600160201b8211156111ea57600080fd5b9083019060208201858111156111ff57600080fd5b82518660208202830111600160201b8211171561121b57600080fd5b82525081516020918201928201910280838360005b83811015611248578181015183820152602001611230565b5050505090500160405260200180516040519392919084600160201b82111561127057600080fd5b90830190602082018581111561128557600080fd5b82518660208202830111600160201b821117156112a157600080fd5b82525081516020918201928201910280838360005b838110156112ce5781810151838201526020016112b6565b5050505090500160405260200180516040519392919084600160201b8211156112f657600080fd5b90830190602082018581111561130b57600080fd5b82518660208202830111600160201b8211171561132757600080fd5b82525081516020918201928201910280838360005b8381101561135457818101518382015260200161133c565b505050509050016040525050509250925092509193909250565b6000805b85518110156114e15761138361086a565b6001600160a01b031686828151811061139857fe5b60200260200101516001600160a01b0316141561149b576113b761086a565b6001600160a01b03166370a08231306040518263ffffffff1660e01b815260040180826001600160a01b0316815260200191505060206040518083038186803b15801561140357600080fd5b505afa158015611417573d6000803e3d6000fd5b505050506040513d602081101561142d57600080fd5b5051915061143961086a565b6001600160a01b0316632e1a7d4d836040518263ffffffff1660e01b815260040180828152602001915050600060405180830381600087803b15801561147e57600080fd5b505af1158015611492573d6000803e3d6000fd5b505050506114d9565b6114d98682815181106114aa57fe5b6020026020010151887f161bcca7119915b50764b4abe86529797775a5f1719510000000000000000000612288565b600101611372565b5060006060876001600160a01b0316836114fc888888612340565b6040518082805190602001908083835b6020831061152b5780518252601f19909201916020918201910161150c565b6001836020036101000a03801982511681845116808217855250505050505090500191505060006040518083038185875af1925050503d806000811461158d576040519150601f19603f3d011682016040523d82523d6000602084013e611592565b606091505b5091509150818190610d465760405162461bcd60e51b81526004018080602001828103825283818151815260200191508051906020019080838360005b838110156115e75781810151838201526020016115cf565b50505050905090810190601f1680156116145780820380516001836020036101000a031916815260200191505b509250505060405180910390fd5b61162d818584612288565b836001600160a01b031663ffaad6a584846040518363ffffffff1660e01b815260040180836001600160a01b0316815260200182815260200192505050600060405180830381600087803b15801561168457600080fd5b505af11580156110d3573d6000803e3d6000fd5b60008060008380602001905160608110156116b257600080fd5b508051602082015160409092015190969195509350915050565b6001600160a01b03831630141561175157836001600160a01b031663205c287883836040518363ffffffff1660e01b815260040180836001600160a01b0316815260200182815260200192505050600060405180830381600087803b15801561173457600080fd5b505af1158015611748573d6000803e3d6000fd5b505050506117b9565b836001600160a01b0316637efe72108484846040518463ffffffff1660e01b815260040180846001600160a01b03168152602001836001600160a01b031681526020018281526020019350505050600060405180830381600087803b15801561168457600080fd5b50505050565b600080600080600060608680602001905160c08110156117de57600080fd5b815160208301516040808501516060860151608087015160a088018051945196989597939692959194929382019284600160201b82111561181e57600080fd5b90830190602082018581111561183357600080fd5b8251600160201b81118282018810171561184c57600080fd5b82525081516020918201929091019080838360005b83811015611879578181015183820152602001611861565b50505050905090810190601f1680156118a65780820380516001836020036101000a031916815260200191505b5060405250505095509550955095509550955091939550919395565b60018260018111156118d057fe5b14156118fa576000806118e283612491565b915091506118f387878484896124bc565b5050610e48565b610e48858561190884612669565b86612711565b6060815167ffffffffffffffff8111801561192857600080fd5b50604051908082528060200260200182016040528015611952578160200160208202803683370190505b50905060005b8251811015611a6257600083828151811061196f57fe5b60200260200101519050806001600160a01b03166370a08231306040518263ffffffff1660e01b815260040180826001600160a01b0316815260200191505060206040518083038186803b1580156119c657600080fd5b505afa1580156119da573d6000803e3d6000fd5b505050506040513d60208110156119f057600080fd5b50518351849084908110611a0057fe5b6020026020010181815250506000838381518110611a1a57fe5b60200260200101511115611a5957611a5985848481518110611a3857fe5b6020026020010151836001600160a01b03166128249092919063ffffffff16565b50600101611958565b5092915050565b6000818060200190516020811015611a8057600080fd5b505190505b919050565b816001600160a01b0316631ac6d19d826040518263ffffffff1660e01b815260040180826001600160a01b03168152602001915050600060405180830381600087803b158015611ad957600080fd5b505af1158015611aed573d6000803e3d6000fd5b505050506040513d6000823e601f3d908101601f191682016040908152811015611b1657600080fd5b8101908080516040519392919084600160201b821115611b3557600080fd5b908301906020820185811115611b4a57600080fd5b82518660208202830111600160201b82111715611b6657600080fd5b82525081516020918201928201910280838360005b83811015611b93578181015183820152602001611b7b565b5050505090500160405260200180516040519392919084600160201b821115611bbb57600080fd5b908301906020820185811115611bd057600080fd5b82518660208202830111600160201b82111715611bec57600080fd5b82525081516020918201928201910280838360005b83811015611c19578181015183820152602001611c01565b5050505090500160405250505050505050565b600060608080808480604051908082528060200260200182016040528015611c5e578160200160208202803683370190505b5060408051600080825260208201818152828401918252606083019093529399929850965094509092509050565b6000606080606080600060606000806000611cdc8c8c8080601f0160208091040260200160405190810160405280939291908181526020018383808284376000920191909152506110dd92505050565b94509450945094509450611cf0858461287b565b611cfb8585836129f9565b604080516001808252818301909252929b50909950602080830190803683370190505096508287600081518110611d2e57fe5b6001600160a01b03929092166020928302919091018201526040805160018082528183019092529182810190803683370190505095508186600081518110611d7257fe5b6020026020010181815250506002995050505050509295509295909350565b6000606080606080600080611ddb89898080601f01602080910402602001604051908101604052809392919081815260200183838082843760009201919091525061169892505050565b604080516001808252818301909252929550909350909150602080830190803683370190505095507f00000000000000000000000000000000000000000000000000000000000000006001600160a01b031663456b4a37836040518263ffffffff1660e01b815260040180826001600160a01b0316815260200191505060206040518083038186803b158015611e7057600080fd5b505afa158015611e84573d6000803e3d6000fd5b505050506040513d6020811015611e9a57600080fd5b505186518790600090611ea957fe5b6001600160a01b03929092166020928302919091018201526040805160018082528183019092529182810190803683370190505094508085600081518110611eed57fe5b6020908102919091010152604080516001808252818301909252908160200160208202803683370190505093508184600081518110611f2857fe5b6001600160a01b03929092166020928302919091018201526040805160018082528183019092529182810190803683370190505092508083600081518110611f6c57fe5b6020026020010181815250506002965050509295509295909350565b6000606080606080600080611fd289898080601f01602080910402602001604051908101604052809392919081815260200183838082843760009201919091525061169892505050565b60408051600180825281830190925292955090935090915060208083019080368337019050509550818660008151811061200857fe5b6001600160a01b0392909216602092830291909101820152604080516001808252818301909252918281019080368337019050509450808560008151811061204c57fe5b6020908102919091010152604080516001808252818301909252908160200160208202803683370190505093507f00000000000000000000000000000000000000000000000000000000000000006001600160a01b031663456b4a37836040518263ffffffff1660e01b815260040180826001600160a01b0316815260200191505060206040518083038186803b1580156120e657600080fd5b505afa1580156120fa573d6000803e3d6000fd5b505050506040513d602081101561211057600080fd5b50518451859060009061211f57fe5b6001600160a01b0392909216602092830291909101820152604080516001808252818301909252918281019080368337019050509250808360008151811061216357fe5b6020026020010181815250506001965050509295509295909350565b6000606080606080600080600080600060606121d08d8d8080601f0160208091040260200160405190810160405280939291908181526020018383808284376000920191909152506117bf92505050565b9550955095509550955095506121e6868661287b565b6040805160018082528183019092529060208083019080368337019050509950848a60008151811061221457fe5b6001600160a01b0392909216602092830291909101820152604080516001808252818301909252918281019080368337019050509850838960008151811061225857fe5b60200260200101818152505061227086848484612b6e565b60019f9b9e50999c509a509798975050505050505050565b60408051636eb1769f60e11b81523060048201526001600160a01b038481166024830152915160009286169163dd62ed3e916044808301926020929190829003018186803b1580156122d957600080fd5b505afa1580156122ed573d6000803e3d6000fd5b505050506040513d602081101561230357600080fd5b50519050818110156117b957801561232a5761232a6001600160a01b038516846000612cc3565b6117b96001600160a01b03851684600019612cc3565b606080821561236a5750604080516001602080830191909152825180830390910181529082019091525b612375855184612dd6565b8560405160200180828051906020019060200280838360005b838110156123a657818101518382015260200161238e565b50505050905001915050604051602081830303815290604052858360405160200180856001600160e01b031916815260040184805190602001908083835b602083106124035780518252601f1990920191602091820191016123e4565b51815160209384036101000a60001901801990921691161790529201858152845190830192850191508083835b6020831061244f5780518252601f199092019160209182019101612430565b6001836020036101000a0380198251168184511680821785525050505050509050019450505050506040516020818303038152906040529150505b9392505050565b6000808280602001905160408110156124a957600080fd5b5080516020909101519092509050915091565b6060811561251d57506040805160248101869052600f85900b60448201526064810184905260016084808301919091528251808303909101815260a49091019091526020810180516001600160e01b031663517a55a360e01b179052612568565b506040805160248101869052600f85900b604482015260648082018590528251808303909101815260849091019091526020810180516001600160e01b0316630d2680e960e11b1790525b60006060876001600160a01b0316836040518082805190602001908083835b602083106125a65780518252601f199092019160209182019101612587565b6001836020036101000a0380198251168184511680821785525050505050509050019150506000604051808303816000865af19150503d8060008114612608576040519150601f19603f3d011682016040523d82523d6000602084013e61260d565b606091505b50915091508181906126605760405162461bcd60e51b81526020600482018181528351602484015283519092839260449091019190850190808383600083156115e75781810151838201526020016115cf565b506110d3612f12565b606081806020019051602081101561268057600080fd5b8101908080516040519392919084600160201b82111561269f57600080fd5b9083019060208201858111156126b457600080fd5b82518660208202830111600160201b821117156126d057600080fd5b82525081516020918201928201910280838360005b838110156126fd5781810151838201526020016126e5565b505050509050016040525050509050919050565b60006060856001600160a01b031661272a868686612f73565b6040518082805190602001908083835b602083106127595780518252601f19909201916020918201910161273a565b6001836020036101000a0380198251168184511680821785525050505050509050019150506000604051808303816000865af19150503d80600081146127bb576040519150601f19603f3d011682016040523d82523d6000602084013e6127c0565b606091505b50915091508181906128135760405162461bcd60e51b81526020600482018181528351602484015283519092839260449091019190850190808383600083156115e75781810151838201526020016115cf565b5061281c612f12565b505050505050565b604080516001600160a01b038416602482015260448082018490528251808303909101815260649091019091526020810180516001600160e01b031663a9059cbb60e01b179052612876908490613086565b505050565b60007f00000000000000000000000000000000000000000000000000000000000000006001600160a01b031663456b4a37836040518263ffffffff1660e01b815260040180826001600160a01b0316815260200191505060206040518083038186803b1580156128ea57600080fd5b505afa1580156128fe573d6000803e3d6000fd5b505050506040513d602081101561291457600080fd5b505160408051631f5bce5560e01b81526001600160a01b03868116600483015291519293507f000000000000000000000000000000000000000000000000000000000000000090911691631f5bce5591602480820192602092909190829003018186803b15801561298457600080fd5b505afa158015612998573d6000803e3d6000fd5b505050506040513d60208110156129ae57600080fd5b50516001600160a01b038281169116146128765760405162461bcd60e51b81526004018080602001828103825260218152602001806137776021913960400191505060405180910390fd5b6060806000805b8551811015612a34576000868281518110612a1757fe5b60200260200101511115612a2c576001909101905b600101612a00565b508067ffffffffffffffff81118015612a4c57600080fd5b50604051908082528060200260200182016040528015612a76578160200160208202803683370190505b5092508067ffffffffffffffff81118015612a9057600080fd5b50604051908082528060200260200182016040528015612aba578160200160208202803683370190505b5091506000805b8651811015612b63576000878281518110612ad857fe5b60200260200101511115612b5b57612af1888288613137565b858381518110612afd57fe5b60200260200101906001600160a01b031690816001600160a01b031681525050868181518110612b2957fe5b6020026020010151848381518110612b3d57fe5b602090810291909101015260019091019082821415612b5b57612b63565b600101612ac1565b505050935093915050565b6060806001846001811115612b7f57fe5b1415612c2557600080612b9185612491565b60408051600180825281830190925292945090925060208083019080368337019050509350612bc1888389613137565b84600081518110612bce57fe5b6001600160a01b03929092166020928302919091018201526040805160018082528183019092529182810190803683370190505092508083600081518110612c1257fe5b6020026020010181815250505050612cba565b612c2e83612669565b9050805167ffffffffffffffff81118015612c4857600080fd5b50604051908082528060200260200182016040528015612c72578160200160208202803683370190505b50915060005b8251811015612cb857612c8c878288613137565b838281518110612c9857fe5b6001600160a01b0390921660209283029190910190910152600101612c78565b505b94509492505050565b801580612d49575060408051636eb1769f60e11b81523060048201526001600160a01b03848116602483015291519185169163dd62ed3e91604480820192602092909190829003018186803b158015612d1b57600080fd5b505afa158015612d2f573d6000803e3d6000fd5b505050506040513d6020811015612d4557600080fd5b5051155b612d845760405162461bcd60e51b81526004018080602001828103825260368152602001806137c26036913960400191505060405180910390fd5b604080516001600160a01b038416602482015260448082018490528251808303909101815260649091019091526020810180516001600160e01b031663095ea7b360e01b179052612876908490613086565b600060608215612dfe57506040805180820190915260058152640b189bdbdb60da1b60208201525b612e0784613329565b816040516020018080756164645f6c69717569646974792875696e743235365b60501b81525060160183805190602001908083835b60208310612e5b5780518252601f199092019160209182019101612e3c565b51815160209384036101000a600019018019909216911617905261174b60f21b91909301908152663ab4b73a191a9b60c91b60028201528451600990910192850191508083835b60208310612ec15780518252601f199092019160209182019101612ea2565b6001836020036101000a03801982511681845116808217855250505050505090500180602960f81b815250600101925050506040516020818303038152906040528051906020012091505092915050565b30318015612f7057612f2261086a565b6001600160a01b031663d0e30db0826040518263ffffffff1660e01b81526004016000604051808303818588803b158015612f5c57600080fd5b505af115801561281c573d6000803e3d6000fd5b50565b6060808215612f9d5750604080516001602080830191909152825180830390910181529082019091525b612fa8845184613404565b858560405160200180828051906020019060200280838360005b83811015612fda578181015183820152602001612fc2565b505050509050019150506040516020818303038152906040528360405160200180856001600160e01b031916815260040184815260200183805190602001908083835b6020831061303c5780518252601f19909201916020918201910161301d565b51815160001960209485036101000a019081169019919091161790528551939091019290850191508083836020831061244f5780518252601f199092019160209182019101612430565b60606130db826040518060400160405280602081526020017f5361666545524332303a206c6f772d6c6576656c2063616c6c206661696c6564815250856001600160a01b03166134f89092919063ffffffff16565b805190915015612876578080602001905160208110156130fa57600080fd5b50516128765760405162461bcd60e51b815260040180806020018281038252602a815260200180613798602a913960400191505060405180910390fd5b6000811561322e57836001600160a01b031663b9947eb0846040518263ffffffff1660e01b81526004018082815260200191505060206040518083038186803b15801561318357600080fd5b505afa9250505080156131a857506040513d60208110156131a357600080fd5b505160015b61322657836001600160a01b031663b739953e846040518263ffffffff1660e01b81526004018082600f0b815260200191505060206040518083038186803b1580156131f357600080fd5b505afa158015613207573d6000803e3d6000fd5b505050506040513d602081101561321d57600080fd5b50519050613229565b90505b613318565b836001600160a01b031663c6610657846040518263ffffffff1660e01b81526004018082815260200191505060206040518083038186803b15801561327257600080fd5b505afa92505050801561329757506040513d602081101561329257600080fd5b505160015b61331557836001600160a01b03166323746eb8846040518263ffffffff1660e01b81526004018082600f0b815260200191505060206040518083038186803b1580156132e257600080fd5b505afa1580156132f6573d6000803e3d6000fd5b505050506040513d602081101561330c57600080fd5b50519050613318565b90505b61332181613507565b949350505050565b60608161334e57506040805180820190915260018152600360fc1b6020820152611a85565b8160005b811561336657600101600a82049150613352565b60608167ffffffffffffffff8111801561337f57600080fd5b506040519080825280601f01601f1916602001820160405280156133aa576020820181803683370190505b50859350905060001982015b83156133fb57600a840660300160f81b828280600190039350815181106133d957fe5b60200101906001600160f81b031916908160001a905350600a840493506133b6565b50949350505050565b60006060821561342c57506040805180820190915260058152640b189bdbdb60da1b60208201525b61343584613329565b6040517f72656d6f76655f6c69717569646974792875696e743235362c0000000000000060208083019182526775696e743235365b60c01b603984015283518593604101918501908083835b602083106134a05780518252601f199092019160209182019101613481565b6001836020036101000a03801982511681845116808217855250505050505090500180605d60f81b815250600101828051906020019080838360208310612ec15780518252601f199092019160209182019101612ea2565b60606133218484600085613556565b60007f00000000000000000000000000000000000000000000000000000000000000006001600160a01b0316826001600160a01b031614156135525761354b61086a565b9050611a85565b5090565b6060824710156135975760405162461bcd60e51b815260040180806020018281038252602681526020018061371f6026913960400191505060405180910390fd5b6135a0856136b2565b6135f1576040805162461bcd60e51b815260206004820152601d60248201527f416464726573733a2063616c6c20746f206e6f6e2d636f6e7472616374000000604482015290519081900360640190fd5b60006060866001600160a01b031685876040518082805190602001908083835b602083106136305780518252601f199092019160209182019101613611565b6001836020036101000a03801982511681845116808217855250505050505090500191505060006040518083038185875af1925050503d8060008114613692576040519150601f19603f3d011682016040523d82523d6000602084013e613697565b606091505b50915091506136a78282866136b8565b979650505050505050565b3b151590565b606083156136c757508161248a565b8251156136d75782518084602001fd5b60405162461bcd60e51b81526020600482018181528451602484015284518593919283926044019190850190808383600083156115e75781810151838201526020016115cf56fe416464726573733a20696e73756666696369656e742062616c616e636520666f722063616c6c4f6e6c792074686520496e746567726174696f6e4d616e616765722063616e2063616c6c20746869732066756e6374696f6e5f5f76616c6964617465506f6f6c466f72577261707065723a20496e76616c69645361666545524332303a204552433230206f7065726174696f6e20646964206e6f7420737563636565645361666545524332303a20617070726f76652066726f6d206e6f6e2d7a65726f20746f206e6f6e2d7a65726f20616c6c6f77616e63657061727365417373657473466f72416374696f6e3a205f73656c6563746f7220696e76616c6964a164736f6c634300060c000a","linkReferences":{}},"methodIdentifiers":{"CLAIM_REWARDS_SELECTOR()":"40da225d","LEND_AND_STAKE_SELECTOR()":"131461c0","LEND_SELECTOR()":"257cb1a3","REDEEM_SELECTOR()":"f7d882b5","STAKE_SELECTOR()":"3ffc1591","TAKE_MULTIPLE_ORDERS_SELECTOR()":"c32990a2","TAKE_ORDER_SELECTOR()":"863e5ad0","UNSTAKE_AND_REDEEM_SELECTOR()":"080456c1","UNSTAKE_SELECTOR()":"b23228cf","claimRewards(address,bytes,bytes)":"b9dfbacc","getCurveLiquidityWrappedNativeAsset()":"12c9d386","getIntegrationManager()":"e7c45690","lendAndStake(address,bytes,bytes)":"29fa046e","parseAssetsForAction(address,bytes4,bytes)":"c54efee5","stake(address,bytes,bytes)":"fa7dd04d","unstake(address,bytes,bytes)":"68e30677","unstakeAndRedeem(address,bytes,bytes)":"8334eb99"},"id":212}