{"abi":[{"type":"constructor","inputs":[{"name":"_integrationManager","type":"address","internalType":"address"},{"name":"_curvePriceFeed","type":"address","internalType":"address"},{"name":"_wrappedNativeAsset","type":"address","internalType":"address"},{"name":"_stakingWrapperFactory","type":"address","internalType":"address"},{"name":"_nativeAssetAddress","type":"address","internalType":"address"}],"stateMutability":"nonpayable"},{"type":"receive","stateMutability":"payable"},{"type":"function","name":"CLAIM_REWARDS_SELECTOR","inputs":[],"outputs":[{"name":"","type":"bytes4","internalType":"bytes4"}],"stateMutability":"view"},{"type":"function","name":"LEND_AND_STAKE_SELECTOR","inputs":[],"outputs":[{"name":"","type":"bytes4","internalType":"bytes4"}],"stateMutability":"view"},{"type":"function","name":"LEND_SELECTOR","inputs":[],"outputs":[{"name":"","type":"bytes4","internalType":"bytes4"}],"stateMutability":"view"},{"type":"function","name":"REDEEM_SELECTOR","inputs":[],"outputs":[{"name":"","type":"bytes4","internalType":"bytes4"}],"stateMutability":"view"},{"type":"function","name":"STAKE_SELECTOR","inputs":[],"outputs":[{"name":"","type":"bytes4","internalType":"bytes4"}],"stateMutability":"view"},{"type":"function","name":"TAKE_MULTIPLE_ORDERS_SELECTOR","inputs":[],"outputs":[{"name":"","type":"bytes4","internalType":"bytes4"}],"stateMutability":"view"},{"type":"function","name":"TAKE_ORDER_SELECTOR","inputs":[],"outputs":[{"name":"","type":"bytes4","internalType":"bytes4"}],"stateMutability":"view"},{"type":"function","name":"UNSTAKE_AND_REDEEM_SELECTOR","inputs":[],"outputs":[{"name":"","type":"bytes4","internalType":"bytes4"}],"stateMutability":"view"},{"type":"function","name":"UNSTAKE_SELECTOR","inputs":[],"outputs":[{"name":"","type":"bytes4","internalType":"bytes4"}],"stateMutability":"view"},{"type":"function","name":"claimRewards","inputs":[{"name":"_vaultProxy","type":"address","internalType":"address"},{"name":"_actionData","type":"bytes","internalType":"bytes"},{"name":"","type":"bytes","internalType":"bytes"}],"outputs":[],"stateMutability":"nonpayable"},{"type":"function","name":"getCurveLiquidityWrappedNativeAsset","inputs":[],"outputs":[{"name":"addressProvider_","type":"address","internalType":"address"}],"stateMutability":"view"},{"type":"function","name":"getIntegrationManager","inputs":[],"outputs":[{"name":"integrationManager_","type":"address","internalType":"address"}],"stateMutability":"view"},{"type":"function","name":"lendAndStake","inputs":[{"name":"_vaultProxy","type":"address","internalType":"address"},{"name":"_actionData","type":"bytes","internalType":"bytes"},{"name":"_assetData","type":"bytes","internalType":"bytes"}],"outputs":[],"stateMutability":"nonpayable"},{"type":"function","name":"parseAssetsForAction","inputs":[{"name":"","type":"address","internalType":"address"},{"name":"_selector","type":"bytes4","internalType":"bytes4"},{"name":"_actionData","type":"bytes","internalType":"bytes"}],"outputs":[{"name":"spendAssetsHandleType_","type":"uint8","internalType":"enum IIntegrationManager.SpendAssetsHandleType"},{"name":"spendAssets_","type":"address[]","internalType":"address[]"},{"name":"spendAssetAmounts_","type":"uint256[]","internalType":"uint256[]"},{"name":"incomingAssets_","type":"address[]","internalType":"address[]"},{"name":"minIncomingAssetAmounts_","type":"uint256[]","internalType":"uint256[]"}],"stateMutability":"view"},{"type":"function","name":"stake","inputs":[{"name":"_vaultProxy","type":"address","internalType":"address"},{"name":"_actionData","type":"bytes","internalType":"bytes"},{"name":"_assetData","type":"bytes","internalType":"bytes"}],"outputs":[],"stateMutability":"nonpayable"},{"type":"function","name":"unstake","inputs":[{"name":"_vaultProxy","type":"address","internalType":"address"},{"name":"_actionData","type":"bytes","internalType":"bytes"},{"name":"","type":"bytes","internalType":"bytes"}],"outputs":[],"stateMutability":"nonpayable"},{"type":"function","name":"unstakeAndRedeem","inputs":[{"name":"_vaultProxy","type":"address","internalType":"address"},{"name":"_actionData","type":"bytes","internalType":"bytes"},{"name":"_assetData","type":"bytes","internalType":"bytes"}],"outputs":[],"stateMutability":"nonpayable"}],"bytecode":{"object":"0x61012060405234801561001157600080fd5b506040516200503b3803806200503b833981810160405260a081101561003657600080fd5b81019080805190602001909291908051906020019092919080519060200190929190805190602001909291908051906020019092919050505084838281838073ffffffffffffffffffffffffffffffffffffffff1660808173ffffffffffffffffffffffffffffffffffffffff1660601b81525050508073ffffffffffffffffffffffffffffffffffffffff1660a08173ffffffffffffffffffffffffffffffffffffffff1660601b81525050508073ffffffffffffffffffffffffffffffffffffffff1660c08173ffffffffffffffffffffffffffffffffffffffff1660601b815250505050508373ffffffffffffffffffffffffffffffffffffffff166101008173ffffffffffffffffffffffffffffffffffffffff1660601b815250508173ffffffffffffffffffffffffffffffffffffffff1660e08173ffffffffffffffffffffffffffffffffffffffff1660601b81525050505050505060805160601c60a05160601c60c05160601c60e05160601c6101005160601c614e326200020960003980610d0e528061394252508061288a5280612c9a528061387e525080614a33525080610b47525080610bb55280610ee25280610ff052806111c852806115cc52806116165250614e326000f3fe6080604052600436106101025760003560e01c80638334eb9911610095578063c32990a211610064578063c32990a214610741578063c54efee51461078b578063e7c4569014610999578063f7d882b5146109da578063fa7dd04d14610a2457610109565b80638334eb99146104b7578063863e5ad0146105b2578063b23228cf146105fc578063b9dfbacc1461064657610109565b806329fa046e116100d157806329fa046e1461022d5780633ffc15911461032857806340da225d1461037257806368e30677146103bc57610109565b8063080456c11461010e57806312c9d38614610158578063131461c014610199578063257cb1a3146101e357610109565b3661010957005b600080fd5b34801561011a57600080fd5b50610123610b1f565b60405180827bffffffffffffffffffffffffffffffffffffffffffffffffffffffff1916815260200191505060405180910390f35b34801561016457600080fd5b5061016d610b43565b604051808273ffffffffffffffffffffffffffffffffffffffff16815260200191505060405180910390f35b3480156101a557600080fd5b506101ae610b6b565b60405180827bffffffffffffffffffffffffffffffffffffffffffffffffffffffff1916815260200191505060405180910390f35b3480156101ef57600080fd5b506101f8610b8f565b60405180827bffffffffffffffffffffffffffffffffffffffffffffffffffffffff1916815260200191505060405180910390f35b34801561023957600080fd5b506103266004803603606081101561025057600080fd5b81019080803573ffffffffffffffffffffffffffffffffffffffff1690602001909291908035906020019064010000000081111561028d57600080fd5b82018360208201111561029f57600080fd5b803590602001918460018302840111640100000000831117156102c157600080fd5b9091929391929390803590602001906401000000008111156102e257600080fd5b8201836020820111156102f457600080fd5b8035906020019184600183028401116401000000008311171561031657600080fd5b9091929391929390505050610bb3565b005b34801561033457600080fd5b5061033d610e98565b60405180827bffffffffffffffffffffffffffffffffffffffffffffffffffffffff1916815260200191505060405180910390f35b34801561037e57600080fd5b50610387610ebc565b60405180827bffffffffffffffffffffffffffffffffffffffffffffffffffffffff1916815260200191505060405180910390f35b3480156103c857600080fd5b506104b5600480360360608110156103df57600080fd5b81019080803573ffffffffffffffffffffffffffffffffffffffff1690602001909291908035906020019064010000000081111561041c57600080fd5b82018360208201111561042e57600080fd5b8035906020019184600183028401116401000000008311171561045057600080fd5b90919293919293908035906020019064010000000081111561047157600080fd5b82018360208201111561048357600080fd5b803590602001918460018302840111640100000000831117156104a557600080fd5b9091929391929390505050610ee0565b005b3480156104c357600080fd5b506105b0600480360360608110156104da57600080fd5b81019080803573ffffffffffffffffffffffffffffffffffffffff1690602001909291908035906020019064010000000081111561051757600080fd5b82018360208201111561052957600080fd5b8035906020019184600183028401116401000000008311171561054b57600080fd5b90919293919293908035906020019064010000000081111561056c57600080fd5b82018360208201111561057e57600080fd5b803590602001918460018302840111640100000000831117156105a057600080fd5b9091929391929390505050610fee565b005b3480156105be57600080fd5b506105c761117e565b60405180827bffffffffffffffffffffffffffffffffffffffffffffffffffffffff1916815260200191505060405180910390f35b34801561060857600080fd5b506106116111a2565b60405180827bffffffffffffffffffffffffffffffffffffffffffffffffffffffff1916815260200191505060405180910390f35b34801561065257600080fd5b5061073f6004803603606081101561066957600080fd5b81019080803573ffffffffffffffffffffffffffffffffffffffff169060200190929190803590602001906401000000008111156106a657600080fd5b8201836020820111156106b857600080fd5b803590602001918460018302840111640100000000831117156106da57600080fd5b9091929391929390803590602001906401000000008111156106fb57600080fd5b82018360208201111561070d57600080fd5b8035906020019184600183028401116401000000008311171561072f57600080fd5b90919293919293905050506111c6565b005b34801561074d57600080fd5b506107566112c7565b60405180827bffffffffffffffffffffffffffffffffffffffffffffffffffffffff1916815260200191505060405180910390f35b34801561079757600080fd5b50610858600480360360608110156107ae57600080fd5b81019080803573ffffffffffffffffffffffffffffffffffffffff16906020019092919080357bffffffffffffffffffffffffffffffffffffffffffffffffffffffff191690602001909291908035906020019064010000000081111561081457600080fd5b82018360208201111561082657600080fd5b8035906020019184600183028401116401000000008311171561084857600080fd5b90919293919293905050506112eb565b6040518086600281111561086857fe5b815260200180602001806020018060200180602001858103855289818151815260200191508051906020019060200280838360005b838110156108b857808201518184015260208101905061089d565b50505050905001858103845288818151815260200191508051906020019060200280838360005b838110156108fa5780820151818401526020810190506108df565b50505050905001858103835287818151815260200191508051906020019060200280838360005b8381101561093c578082015181840152602081019050610921565b50505050905001858103825286818151815260200191508051906020019060200280838360005b8381101561097e578082015181840152602081019050610963565b50505050905001995050505050505050505060405180910390f35b3480156109a557600080fd5b506109ae6115c8565b604051808273ffffffffffffffffffffffffffffffffffffffff16815260200191505060405180910390f35b3480156109e657600080fd5b506109ef6115f0565b60405180827bffffffffffffffffffffffffffffffffffffffffffffffffffffffff1916815260200191505060405180910390f35b348015610a3057600080fd5b50610b1d60048036036060811015610a4757600080fd5b81019080803573ffffffffffffffffffffffffffffffffffffffff16906020019092919080359060200190640100000000811115610a8457600080fd5b820183602082011115610a9657600080fd5b80359060200191846001830284011164010000000083111715610ab857600080fd5b909192939192939080359060200190640100000000811115610ad957600080fd5b820183602082011115610aeb57600080fd5b80359060200191846001830284011164010000000083111715610b0d57600080fd5b9091929391929390505050611614565b005b7f8334eb99be0145865eba9889fca2ee920288090caefff4cc776038e20ad9259a81565b60007f0000000000000000000000000000000000000000000000000000000000000000905090565b7f29fa046e79524c3c5ac4c01df692c35e217802b2b13b21121b76cf0ef02b138c81565b7f099f75155f0e997bf83a7993a71d5e7e7540bd386fe1e84643a09ce6b412521981565b7f000000000000000000000000000000000000000000000000000000000000000073ffffffffffffffffffffffffffffffffffffffff163373ffffffffffffffffffffffffffffffffffffffff1614610c57576040517f08c379a0000000000000000000000000000000000000000000000000000000008152600401808060200182810382526032815260200180614d4c6032913960400191505060405180910390fd5b600060606000806000610cad89898080601f016020809104026020016040519081016040528093929190818152602001838380828437600081840152601f19601f8201169050808301925050505050505061178a565b945094509450945094506060610d0688888080601f016020809104026020016040519081016040528093929190818152602001838380828437600081840152601f19601f8201169050808301925050505050505061187d565b5050905060007f000000000000000000000000000000000000000000000000000000000000000073ffffffffffffffffffffffffffffffffffffffff16631f5bce55886040518263ffffffff1660e01b8152600401808273ffffffffffffffffffffffffffffffffffffffff16815260200191505060206040518083038186803b158015610d9357600080fd5b505afa158015610da7573d6000803e3d6000fd5b505050506040513d6020811015610dbd57600080fd5b81019080805190602001909291905050509050610ddd8783888787611a61565b610e8a858d8373ffffffffffffffffffffffffffffffffffffffff166370a08231306040518263ffffffff1660e01b8152600401808273ffffffffffffffffffffffffffffffffffffffff16815260200191505060206040518083038186803b158015610e4957600080fd5b505afa158015610e5d573d6000803e3d6000fd5b505050506040513d6020811015610e7357600080fd5b810190808051906020019092919050505084611da4565b505050505050505050505050565b7ffa7dd04da627f433da73c4355ead9c75682a67a8fc84d3f6170ef0922f402d2481565b7fb9dfbaccbe5cd2a84fdcf1d15f23ef25d23086f5afbaa99516065ed4a5bbc7a381565b7f000000000000000000000000000000000000000000000000000000000000000073ffffffffffffffffffffffffffffffffffffffff163373ffffffffffffffffffffffffffffffffffffffff1614610f84576040517f08c379a0000000000000000000000000000000000000000000000000000000008152600401808060200182810382526032815260200180614d4c6032913960400191505060405180910390fd5b600080610fd486868080601f016020809104026020016040519081016040528093929190818152602001838380828437600081840152601f19601f82011690508083019250505050505050611e3e565b9250925050610fe582888984611e8a565b50505050505050565b7f000000000000000000000000000000000000000000000000000000000000000073ffffffffffffffffffffffffffffffffffffffff163373ffffffffffffffffffffffffffffffffffffffff1614611092576040517f08c379a0000000000000000000000000000000000000000000000000000000008152600401808060200182810382526032815260200180614d4c6032913960400191505060405180910390fd5b8482828080601f016020809104026020016040519081016040528093929190818152602001838380828437600081840152601f19601f820116905080830192505050505050506000806000806000606061112f8c8c8080601f016020809104026020016040519081016040528093929190818152602001838380828437600081840152601f19601f82011690508083019250505050505050611ffa565b955095509550955095509550611147858e3087611e8a565b611154868585858561211b565b50505050505060606111658261187d565b925050506111738382612179565b505050505050505050565b7f03e38a2bd7063d45c897edeafc330e71657502dd86434d3c37a489caf116af6981565b7f68e30677f607df46e87da13e15b637784cfa62374b653f35ab43d10361a2f83081565b7f000000000000000000000000000000000000000000000000000000000000000073ffffffffffffffffffffffffffffffffffffffff163373ffffffffffffffffffffffffffffffffffffffff161461126a576040517f08c379a0000000000000000000000000000000000000000000000000000000008152600401808060200182810382526032815260200180614d4c6032913960400191505060405180910390fd5b6112c06112ba85858080601f016020809104026020016040519081016040528093929190818152602001838380828437600081840152601f19601f82011690508083019250505050505050612313565b86612342565b5050505050565b7f0e7f692dad5b88fdee426250d6eae91207e56a2e8112b7364579bed1790e5bf481565b60006060806060807fb9dfbaccbe5cd2a84fdcf1d15f23ef25d23086f5afbaa99516065ed4a5bbc7a37bffffffffffffffffffffffffffffffffffffffffffffffffffffffff1916887bffffffffffffffffffffffffffffffffffffffffffffffffffffffff1916141561137057611361612519565b945094509450945094506115bd565b7f29fa046e79524c3c5ac4c01df692c35e217802b2b13b21121b76cf0ef02b138c7bffffffffffffffffffffffffffffffffffffffffffffffffffffffff1916887bffffffffffffffffffffffffffffffffffffffffffffffffffffffff191614156113ef576113e08787612653565b945094509450945094506115bd565b7ffa7dd04da627f433da73c4355ead9c75682a67a8fc84d3f6170ef0922f402d247bffffffffffffffffffffffffffffffffffffffffffffffffffffffff1916887bffffffffffffffffffffffffffffffffffffffffffffffffffffffff1916141561146e5761145f87876127e1565b945094509450945094506115bd565b7f68e30677f607df46e87da13e15b637784cfa62374b653f35ab43d10361a2f8307bffffffffffffffffffffffffffffffffffffffffffffffffffffffff1916887bffffffffffffffffffffffffffffffffffffffffffffffffffffffff191614156114ed576114de8787612afb565b945094509450945094506115bd565b7f8334eb99be0145865eba9889fca2ee920288090caefff4cc776038e20ad9259a7bffffffffffffffffffffffffffffffffffffffffffffffffffffffff1916887bffffffffffffffffffffffffffffffffffffffffffffffffffffffff1916141561156c5761155d8787612e15565b945094509450945094506115bd565b6040517f08c379a0000000000000000000000000000000000000000000000000000000008152600401808060200182810382526027815260200180614dff6027913960400191505060405180910390fd5b945094509450945094565b60007f0000000000000000000000000000000000000000000000000000000000000000905090565b7fc29fa9dde84204c2908778afd0613d802d31cf046179b88f6d2b4a4e507ea2d581565b7f000000000000000000000000000000000000000000000000000000000000000073ffffffffffffffffffffffffffffffffffffffff163373ffffffffffffffffffffffffffffffffffffffff16146116b8576040517f08c379a0000000000000000000000000000000000000000000000000000000008152600401808060200182810382526032815260200180614d4c6032913960400191505060405180910390fd5b60008061170886868080601f016020809104026020016040519081016040528093929190818152602001838380828437600081840152601f19601f82011690508083019250505050505050612fa8565b9250925050606061175c85858080601f016020809104026020016040519081016040528093929190818152602001838380828437600081840152601f19601f8201169050808301925050505050505061187d565b505090506117808389848460008151811061177357fe5b6020026020010151611da4565b5050505050505050565b6000606060008060008580602001905160a08110156117a857600080fd5b8101908080519060200190929190805160405193929190846401000000008211156117d257600080fd5b838201915060208201858111156117e857600080fd5b825186602082028301116401000000008211171561180557600080fd5b8083526020830192505050908051906020019060200280838360005b8381101561183c578082015181840152602081019050611821565b505050509050016040526020018051906020019092919080519060200190929190805190602001909291905050509450945094509450945091939590929450565b606080606083806020019051606081101561189757600080fd5b81019080805160405193929190846401000000008211156118b757600080fd5b838201915060208201858111156118cd57600080fd5b82518660208202830111640100000000821117156118ea57600080fd5b8083526020830192505050908051906020019060200280838360005b83811015611921578082015181840152602081019050611906565b505050509050016040526020018051604051939291908464010000000082111561194a57600080fd5b8382019150602082018581111561196057600080fd5b825186602082028301116401000000008211171561197d57600080fd5b8083526020830192505050908051906020019060200280838360005b838110156119b4578082015181840152602081019050611999565b50505050905001604052602001805160405193929190846401000000008211156119dd57600080fd5b838201915060208201858111156119f357600080fd5b8251866020820283011164010000000082111715611a1057600080fd5b8083526020830192505050908051906020019060200280838360005b83811015611a47578082015181840152602081019050611a2c565b505050509050016040525050509250925092509193909250565b6000805b8551811015611c2a57611a76610b43565b73ffffffffffffffffffffffffffffffffffffffff16868281518110611a9857fe5b602002602001015173ffffffffffffffffffffffffffffffffffffffff161415611bde57611ac4610b43565b73ffffffffffffffffffffffffffffffffffffffff166370a08231306040518263ffffffff1660e01b8152600401808273ffffffffffffffffffffffffffffffffffffffff16815260200191505060206040518083038186803b158015611b2a57600080fd5b505afa158015611b3e573d6000803e3d6000fd5b505050506040513d6020811015611b5457600080fd5b81019080805190602001909291905050509150611b6f610b43565b73ffffffffffffffffffffffffffffffffffffffff16632e1a7d4d836040518263ffffffff1660e01b815260040180828152602001915050600060405180830381600087803b158015611bc157600080fd5b505af1158015611bd5573d6000803e3d6000fd5b50505050611c1d565b611c1c868281518110611bed57fe5b6020026020010151887f161bcca7119915b50764b4abe86529797775a5f1719510000000000000000000612ff4565b5b8080600101915050611a65565b50600060608773ffffffffffffffffffffffffffffffffffffffff1683611c52888888613148565b6040518082805190602001908083835b60208310611c855780518252602082019150602081019050602083039250611c62565b6001836020036101000a03801982511681845116808217855250505050505090500191505060006040518083038185875af1925050503d8060008114611ce7576040519150601f19603f3d011682016040523d82523d6000602084013e611cec565b606091505b5091509150818190611d99576040517f08c379a00000000000000000000000000000000000000000000000000000000081526004018080602001828103825283818151815260200191508051906020019080838360005b83811015611d5e578082015181840152602081019050611d43565b50505050905090810190601f168015611d8b5780820380516001836020036101000a031916815260200191505b509250505060405180910390fd5b505050505050505050565b611daf818584612ff4565b8373ffffffffffffffffffffffffffffffffffffffff1663ffaad6a584846040518363ffffffff1660e01b8152600401808373ffffffffffffffffffffffffffffffffffffffff16815260200182815260200192505050600060405180830381600087803b158015611e2057600080fd5b505af1158015611e34573d6000803e3d6000fd5b5050505050505050565b6000806000838060200190516060811015611e5857600080fd5b810190808051906020019092919080519060200190929190805190602001909291905050509250925092509193909250565b3073ffffffffffffffffffffffffffffffffffffffff168373ffffffffffffffffffffffffffffffffffffffff161415611f4c578373ffffffffffffffffffffffffffffffffffffffff1663205c287883836040518363ffffffff1660e01b8152600401808373ffffffffffffffffffffffffffffffffffffffff16815260200182815260200192505050600060405180830381600087803b158015611f2f57600080fd5b505af1158015611f43573d6000803e3d6000fd5b50505050611ff4565b8373ffffffffffffffffffffffffffffffffffffffff16637efe72108484846040518463ffffffff1660e01b8152600401808473ffffffffffffffffffffffffffffffffffffffff1681526020018373ffffffffffffffffffffffffffffffffffffffff1681526020018281526020019350505050600060405180830381600087803b158015611fdb57600080fd5b505af1158015611fef573d6000803e3d6000fd5b505050505b50505050565b600080600080600060608680602001905160c081101561201957600080fd5b8101908080519060200190929190805190602001909291908051906020019092919080519060200190929190805190602001909291908051604051939291908464010000000082111561206b57600080fd5b8382019150602082018581111561208157600080fd5b825186600182028301116401000000008211171561209e57600080fd5b8083526020830192505050908051906020019080838360005b838110156120d25780820151818401526020810190506120b7565b50505050905090810190601f1680156120ff5780820380516001836020036101000a031916815260200191505b5060405250505095509550955095509550955091939550919395565b60018081111561212757fe5b82600181111561213357fe5b141561215d57600080612145836132c4565b915091506121568787848489613300565b5050612172565b612171858561216b846135a5565b8661365a565b5b5050505050565b6060815167ffffffffffffffff8111801561219357600080fd5b506040519080825280602002602001820160405280156121c25781602001602082028036833780820191505090505b50905060005b825181101561230c5760008382815181106121df57fe5b602002602001015190508073ffffffffffffffffffffffffffffffffffffffff166370a08231306040518263ffffffff1660e01b8152600401808273ffffffffffffffffffffffffffffffffffffffff16815260200191505060206040518083038186803b15801561225057600080fd5b505afa158015612264573d6000803e3d6000fd5b505050506040513d602081101561227a57600080fd5b810190808051906020019092919050505083838151811061229757fe5b60200260200101818152505060008383815181106122b157fe5b602002602001015111156122fe576122fd858484815181106122cf57fe5b60200260200101518373ffffffffffffffffffffffffffffffffffffffff166137d89092919063ffffffff16565b5b5080806001019150506121c8565b5092915050565b600081806020019051602081101561232a57600080fd5b81019080805190602001909291905050509050919050565b8173ffffffffffffffffffffffffffffffffffffffff16631ac6d19d826040518263ffffffff1660e01b8152600401808273ffffffffffffffffffffffffffffffffffffffff168152602001915050600060405180830381600087803b1580156123ab57600080fd5b505af11580156123bf573d6000803e3d6000fd5b505050506040513d6000823e3d601f19601f8201168201806040525060408110156123e957600080fd5b810190808051604051939291908464010000000082111561240957600080fd5b8382019150602082018581111561241f57600080fd5b825186602082028301116401000000008211171561243c57600080fd5b8083526020830192505050908051906020019060200280838360005b83811015612473578082015181840152602081019050612458565b505050509050016040526020018051604051939291908464010000000082111561249c57600080fd5b838201915060208201858111156124b257600080fd5b82518660208202830111640100000000821117156124cf57600080fd5b8083526020830192505050908051906020019060200280838360005b838110156125065780820151818401526020810190506124eb565b5050505090500160405250505050505050565b600060608060608060008067ffffffffffffffff8111801561253a57600080fd5b506040519080825280602002602001820160405280156125695781602001602082028036833780820191505090505b50600067ffffffffffffffff8111801561258257600080fd5b506040519080825280602002602001820160405280156125b15781602001602082028036833780820191505090505b50600067ffffffffffffffff811180156125ca57600080fd5b506040519080825280602002602001820160405280156125f95781602001602082028036833780820191505090505b50600067ffffffffffffffff8111801561261257600080fd5b506040519080825280602002602001820160405280156126415781602001602082028036833780820191505090505b50945094509450945094509091929394565b60006060806060806000606060008060006126b18c8c8080601f016020809104026020016040519081016040528093929190818152602001838380828437600081840152601f19601f8201169050808301925050505050505061178a565b945094509450945094506126c5858461387a565b6126d0858583613a8a565b809950819a505050600167ffffffffffffffff811180156126f057600080fd5b5060405190808252806020026020018201604052801561271f5781602001602082028036833780820191505090505b509650828760008151811061273057fe5b602002602001019073ffffffffffffffffffffffffffffffffffffffff16908173ffffffffffffffffffffffffffffffffffffffff1681525050600167ffffffffffffffff8111801561278257600080fd5b506040519080825280602002602001820160405280156127b15781602001602082028036833780820191505090505b50955081866000815181106127c257fe5b6020026020010181815250506002995050505050509295509295909350565b600060608060608060008061283989898080601f016020809104026020016040519081016040528093929190818152602001838380828437600081840152601f19601f82011690508083019250505050505050612fa8565b9250925050600167ffffffffffffffff8111801561285657600080fd5b506040519080825280602002602001820160405280156128855781602001602082028036833780820191505090505b5095507f000000000000000000000000000000000000000000000000000000000000000073ffffffffffffffffffffffffffffffffffffffff1663456b4a37836040518263ffffffff1660e01b8152600401808273ffffffffffffffffffffffffffffffffffffffff16815260200191505060206040518083038186803b15801561290f57600080fd5b505afa158015612923573d6000803e3d6000fd5b505050506040513d602081101561293957600080fd5b81019080805190602001909291905050508660008151811061295757fe5b602002602001019073ffffffffffffffffffffffffffffffffffffffff16908173ffffffffffffffffffffffffffffffffffffffff1681525050600167ffffffffffffffff811180156129a957600080fd5b506040519080825280602002602001820160405280156129d85781602001602082028036833780820191505090505b50945080856000815181106129e957fe5b602002602001018181525050600167ffffffffffffffff81118015612a0d57600080fd5b50604051908082528060200260200182016040528015612a3c5781602001602082028036833780820191505090505b5093508184600081518110612a4d57fe5b602002602001019073ffffffffffffffffffffffffffffffffffffffff16908173ffffffffffffffffffffffffffffffffffffffff1681525050600167ffffffffffffffff81118015612a9f57600080fd5b50604051908082528060200260200182016040528015612ace5781602001602082028036833780820191505090505b5092508083600081518110612adf57fe5b6020026020010181815250506002965050509295509295909350565b6000606080606080600080612b5389898080601f016020809104026020016040519081016040528093929190818152602001838380828437600081840152601f19601f82011690508083019250505050505050611e3e565b9250925050600167ffffffffffffffff81118015612b7057600080fd5b50604051908082528060200260200182016040528015612b9f5781602001602082028036833780820191505090505b5095508186600081518110612bb057fe5b602002602001019073ffffffffffffffffffffffffffffffffffffffff16908173ffffffffffffffffffffffffffffffffffffffff1681525050600167ffffffffffffffff81118015612c0257600080fd5b50604051908082528060200260200182016040528015612c315781602001602082028036833780820191505090505b5094508085600081518110612c4257fe5b602002602001018181525050600167ffffffffffffffff81118015612c6657600080fd5b50604051908082528060200260200182016040528015612c955781602001602082028036833780820191505090505b5093507f000000000000000000000000000000000000000000000000000000000000000073ffffffffffffffffffffffffffffffffffffffff1663456b4a37836040518263ffffffff1660e01b8152600401808273ffffffffffffffffffffffffffffffffffffffff16815260200191505060206040518083038186803b158015612d1f57600080fd5b505afa158015612d33573d6000803e3d6000fd5b505050506040513d6020811015612d4957600080fd5b810190808051906020019092919050505084600081518110612d6757fe5b602002602001019073ffffffffffffffffffffffffffffffffffffffff16908173ffffffffffffffffffffffffffffffffffffffff1681525050600167ffffffffffffffff81118015612db957600080fd5b50604051908082528060200260200182016040528015612de85781602001602082028036833780820191505090505b5092508083600081518110612df957fe5b6020026020010181815250506001965050509295509295909350565b600060608060608060008060008060006060612e748d8d8080601f016020809104026020016040519081016040528093929190818152602001838380828437600081840152601f19601f82011690508083019250505050505050611ffa565b955095509550955095509550612e8a868661387a565b600167ffffffffffffffff81118015612ea257600080fd5b50604051908082528060200260200182016040528015612ed15781602001602082028036833780820191505090505b509950848a600081518110612ee257fe5b602002602001019073ffffffffffffffffffffffffffffffffffffffff16908173ffffffffffffffffffffffffffffffffffffffff1681525050600167ffffffffffffffff81118015612f3457600080fd5b50604051908082528060200260200182016040528015612f635781602001602082028036833780820191505090505b5098508389600081518110612f7457fe5b602002602001018181525050612f8c86848484613c33565b809850819950505060019a505050505050509295509295909350565b6000806000838060200190516060811015612fc257600080fd5b810190808051906020019092919080519060200190929190805190602001909291905050509250925092509193909250565b60008373ffffffffffffffffffffffffffffffffffffffff1663dd62ed3e30856040518363ffffffff1660e01b8152600401808373ffffffffffffffffffffffffffffffffffffffff1681526020018273ffffffffffffffffffffffffffffffffffffffff1681526020019250505060206040518083038186803b15801561307b57600080fd5b505afa15801561308f573d6000803e3d6000fd5b505050506040513d60208110156130a557600080fd5b81019080805190602001909291905050509050818110156131425760008111156130f6576130f58360008673ffffffffffffffffffffffffffffffffffffffff16613e359092919063ffffffff16565b5b613141837fffffffffffffffffffffffffffffffffffffffffffffffffffffffffffffffff8673ffffffffffffffffffffffffffffffffffffffff16613e359092919063ffffffff16565b5b50505050565b606080821561317757600160405160200180821515815260200191505060405160208183030381529060405290505b613182855184613ffa565b8560405160200180828051906020019060200280838360005b838110156131b657808201518184015260208101905061319b565b50505050905001915050604051602081830303815290604052858360405160200180857bffffffffffffffffffffffffffffffffffffffffffffffffffffffff1916815260040184805190602001908083835b6020831061322c5780518252602082019150602081019050602083039250613209565b6001836020036101000a03801982511681845116808217855250505050505090500183815260200182805190602001908083835b602083106132835780518252602082019150602081019050602083039250613260565b6001836020036101000a0380198251168184511680821785525050505050509050019450505050506040516020818303038152906040529150509392505050565b6000808280602001905160408110156132dc57600080fd5b81019080805190602001909291908051906020019092919050505091509150915091565b606081156133a35763517a55a360e01b85858560016040516024018085815260200184600f0b81526020018381526020018215158152602001945050505050604051602081830303815290604052907bffffffffffffffffffffffffffffffffffffffffffffffffffffffff19166020820180517bffffffffffffffffffffffffffffffffffffffffffffffffffffffff8381831617835250505050905061342f565b631a4d01d260e01b8585856040516024018084815260200183600f0b81526020018281526020019350505050604051602081830303815290604052907bffffffffffffffffffffffffffffffffffffffffffffffffffffffff19166020820180517bffffffffffffffffffffffffffffffffffffffffffffffffffffffff838183161783525050505090505b600060608773ffffffffffffffffffffffffffffffffffffffff16836040518082805190602001908083835b6020831061347e578051825260208201915060208101905060208303925061345b565b6001836020036101000a0380198251168184511680821785525050505050509050019150506000604051808303816000865af19150503d80600081146134e0576040519150601f19603f3d011682016040523d82523d6000602084013e6134e5565b606091505b5091509150818190613592576040517f08c379a00000000000000000000000000000000000000000000000000000000081526004018080602001828103825283818151815260200191508051906020019080838360005b8381101561355757808201518184015260208101905061353c565b50505050905090810190601f1680156135845780820380516001836020036101000a031916815260200191505b509250505060405180910390fd5b5061359b6141b3565b5050505050505050565b60608180602001905160208110156135bc57600080fd5b81019080805160405193929190846401000000008211156135dc57600080fd5b838201915060208201858111156135f257600080fd5b825186602082028301116401000000008211171561360f57600080fd5b8083526020830192505050908051906020019060200280838360005b8381101561364657808201518184015260208101905061362b565b505050509050016040525050509050919050565b600060608573ffffffffffffffffffffffffffffffffffffffff16613680868686614244565b6040518082805190602001908083835b602083106136b35780518252602082019150602081019050602083039250613690565b6001836020036101000a0380198251168184511680821785525050505050509050019150506000604051808303816000865af19150503d8060008114613715576040519150601f19603f3d011682016040523d82523d6000602084013e61371a565b606091505b50915091508181906137c7576040517f08c379a00000000000000000000000000000000000000000000000000000000081526004018080602001828103825283818151815260200191508051906020019080838360005b8381101561378c578082015181840152602081019050613771565b50505050905090810190601f1680156137b95780820380516001836020036101000a031916815260200191505b509250505060405180910390fd5b506137d06141b3565b505050505050565b6138758363a9059cbb60e01b8484604051602401808373ffffffffffffffffffffffffffffffffffffffff16815260200182815260200192505050604051602081830303815290604052907bffffffffffffffffffffffffffffffffffffffffffffffffffffffff19166020820180517bffffffffffffffffffffffffffffffffffffffffffffffffffffffff83818316178352505050506143c0565b505050565b60007f000000000000000000000000000000000000000000000000000000000000000073ffffffffffffffffffffffffffffffffffffffff1663456b4a37836040518263ffffffff1660e01b8152600401808273ffffffffffffffffffffffffffffffffffffffff16815260200191505060206040518083038186803b15801561390357600080fd5b505afa158015613917573d6000803e3d6000fd5b505050506040513d602081101561392d57600080fd5b810190808051906020019092919050505090507f000000000000000000000000000000000000000000000000000000000000000073ffffffffffffffffffffffffffffffffffffffff16631f5bce55846040518263ffffffff1660e01b8152600401808273ffffffffffffffffffffffffffffffffffffffff16815260200191505060206040518083038186803b1580156139c757600080fd5b505afa1580156139db573d6000803e3d6000fd5b505050506040513d60208110156139f157600080fd5b810190808051906020019092919050505073ffffffffffffffffffffffffffffffffffffffff168173ffffffffffffffffffffffffffffffffffffffff1614613a85576040517f08c379a0000000000000000000000000000000000000000000000000000000008152600401808060200182810382526021815260200180614d7e6021913960400191505060405180910390fd5b505050565b6060806000805b8551811015613acc576000868281518110613aa857fe5b60200260200101511115613abf5781806001019250505b8080600101915050613a91565b508067ffffffffffffffff81118015613ae457600080fd5b50604051908082528060200260200182016040528015613b135781602001602082028036833780820191505090505b5092508067ffffffffffffffff81118015613b2d57600080fd5b50604051908082528060200260200182016040528015613b5c5781602001602082028036833780820191505090505b5091506000805b8651811015613c28576000878281518110613b7a57fe5b60200260200101511115613c1b57613b938882886144af565b858381518110613b9f57fe5b602002602001019073ffffffffffffffffffffffffffffffffffffffff16908173ffffffffffffffffffffffffffffffffffffffff1681525050868181518110613be557fe5b6020026020010151848381518110613bf957fe5b602002602001018181525050818060010192505082821415613c1a57613c28565b5b8080600101915050613b63565b505050935093915050565b606080600180811115613c4257fe5b846001811115613c4e57fe5b1415613d6b57600080613c60856132c4565b91509150600167ffffffffffffffff81118015613c7c57600080fd5b50604051908082528060200260200182016040528015613cab5781602001602082028036833780820191505090505b509350613cb98883896144af565b84600081518110613cc657fe5b602002602001019073ffffffffffffffffffffffffffffffffffffffff16908173ffffffffffffffffffffffffffffffffffffffff1681525050600167ffffffffffffffff81118015613d1857600080fd5b50604051908082528060200260200182016040528015613d475781602001602082028036833780820191505090505b5092508083600081518110613d5857fe5b6020026020010181815250505050613e2c565b613d74836135a5565b9050805167ffffffffffffffff81118015613d8e57600080fd5b50604051908082528060200260200182016040528015613dbd5781602001602082028036833780820191505090505b50915060005b8251811015613e2a57613dd78782886144af565b838281518110613de357fe5b602002602001019073ffffffffffffffffffffffffffffffffffffffff16908173ffffffffffffffffffffffffffffffffffffffff16815250508080600101915050613dc3565b505b94509492505050565b6000811480613f03575060008373ffffffffffffffffffffffffffffffffffffffff1663dd62ed3e30856040518363ffffffff1660e01b8152600401808373ffffffffffffffffffffffffffffffffffffffff1681526020018273ffffffffffffffffffffffffffffffffffffffff1681526020019250505060206040518083038186803b158015613ec657600080fd5b505afa158015613eda573d6000803e3d6000fd5b505050506040513d6020811015613ef057600080fd5b8101908080519060200190929190505050145b613f58576040517f08c379a0000000000000000000000000000000000000000000000000000000008152600401808060200182810382526036815260200180614dc96036913960400191505060405180910390fd5b613ff58363095ea7b360e01b8484604051602401808373ffffffffffffffffffffffffffffffffffffffff16815260200182815260200192505050604051602081830303815290604052907bffffffffffffffffffffffffffffffffffffffffffffffffffffffff19166020820180517bffffffffffffffffffffffffffffffffffffffffffffffffffffffff83818316178352505050506143c0565b505050565b60006060821561403d576040518060400160405280600581526020017f2c626f6f6c00000000000000000000000000000000000000000000000000000081525090505b61404684614717565b8160405160200180807f6164645f6c69717569646974792875696e743235365b0000000000000000000081525060160183805190602001908083835b602083106140a55780518252602082019150602081019050602083039250614082565b6001836020036101000a038019825116818451168082178552505050505050905001807f5d2c000000000000000000000000000000000000000000000000000000000000815250600201807f75696e743235360000000000000000000000000000000000000000000000000081525060070182805190602001908083835b602083106141465780518252602082019150602081019050602083039250614123565b6001836020036101000a038019825116818451168082178552505050505050905001807f2900000000000000000000000000000000000000000000000000000000000000815250600101925050506040516020818303038152906040528051906020012091505092915050565b60003073ffffffffffffffffffffffffffffffffffffffff163190506000811115614241576141e0610b43565b73ffffffffffffffffffffffffffffffffffffffff1663d0e30db0826040518263ffffffff1660e01b81526004016000604051808303818588803b15801561422757600080fd5b505af115801561423b573d6000803e3d6000fd5b50505050505b50565b606080821561427357600160405160200180821515815260200191505060405160208183030381529060405290505b61427e84518461485e565b858560405160200180828051906020019060200280838360005b838110156142b3578082015181840152602081019050614298565b505050509050019150506040516020818303038152906040528360405160200180857bffffffffffffffffffffffffffffffffffffffffffffffffffffffff1916815260040184815260200183805190602001908083835b6020831061432e578051825260208201915060208101905060208303925061430b565b6001836020036101000a03801982511681845116808217855250505050505090500182805190602001908083835b6020831061437f578051825260208201915060208101905060208303925061435c565b6001836020036101000a0380198251168184511680821785525050505050509050019450505050506040516020818303038152906040529150509392505050565b6060614422826040518060400160405280602081526020017f5361666545524332303a206c6f772d6c6576656c2063616c6c206661696c65648152508573ffffffffffffffffffffffffffffffffffffffff16614a179092919063ffffffff16565b90506000815111156144aa5780806020019051602081101561444357600080fd5b81019080805190602001909291905050506144a9576040517f08c379a000000000000000000000000000000000000000000000000000000000815260040180806020018281038252602a815260200180614d9f602a913960400191505060405180910390fd5b5b505050565b600081156145e0578373ffffffffffffffffffffffffffffffffffffffff1663b9947eb0846040518263ffffffff1660e01b81526004018082815260200191505060206040518083038186803b15801561450857600080fd5b505afa92505050801561453c57506040513d602081101561452857600080fd5b810190808051906020019092919050505060015b6145d6578373ffffffffffffffffffffffffffffffffffffffff1663b739953e846040518263ffffffff1660e01b81526004018082600f0b815260200191505060206040518083038186803b15801561459457600080fd5b505afa1580156145a8573d6000803e3d6000fd5b505050506040513d60208110156145be57600080fd5b810190808051906020019092919050505090506145db565b809150505b614705565b8373ffffffffffffffffffffffffffffffffffffffff1663c6610657846040518263ffffffff1660e01b81526004018082815260200191505060206040518083038186803b15801561463157600080fd5b505afa92505050801561466557506040513d602081101561465157600080fd5b810190808051906020019092919050505060015b6146ff578373ffffffffffffffffffffffffffffffffffffffff166323746eb8846040518263ffffffff1660e01b81526004018082600f0b815260200191505060206040518083038186803b1580156146bd57600080fd5b505afa1580156146d1573d6000803e3d6000fd5b505050506040513d60208110156146e757600080fd5b81019080805190602001909291905050509050614704565b809150505b5b61470e81614a2f565b90509392505050565b6060600082141561475f576040518060400160405280600181526020017f30000000000000000000000000000000000000000000000000000000000000008152509050614859565b600082905060005b60008214614789578080600101915050600a828161478157fe5b049150614767565b60608167ffffffffffffffff811180156147a257600080fd5b506040519080825280601f01601f1916602001820160405280156147d55781602001600182028036833780820191505090505b50905060006001830390508593505b6000841461485157600a84816147f657fe5b0660300160f81b8282806001900393508151811061481057fe5b60200101907effffffffffffffffffffffffffffffffffffffffffffffffffffffffffffff1916908160001a905350600a848161484957fe5b0493506147e4565b819450505050505b919050565b6000606082156148a1576040518060400160405280600581526020017f2c626f6f6c00000000000000000000000000000000000000000000000000000081525090505b6148aa84614717565b8160405160200180807f72656d6f76655f6c69717569646974792875696e743235362c00000000000000815250601901807f75696e743235365b00000000000000000000000000000000000000000000000081525060080183805190602001908083835b60208310614931578051825260208201915060208101905060208303925061490e565b6001836020036101000a038019825116818451168082178552505050505050905001807f5d0000000000000000000000000000000000000000000000000000000000000081525060010182805190602001908083835b602083106149aa5780518252602082019150602081019050602083039250614987565b6001836020036101000a038019825116818451168082178552505050505050905001807f2900000000000000000000000000000000000000000000000000000000000000815250600101925050506040516020818303038152906040528051906020012091505092915050565b6060614a268484600085614a9d565b90509392505050565b60007f000000000000000000000000000000000000000000000000000000000000000073ffffffffffffffffffffffffffffffffffffffff168273ffffffffffffffffffffffffffffffffffffffff161415614a9457614a8d610b43565b9050614a98565b8190505b919050565b606082471015614af8576040517f08c379a0000000000000000000000000000000000000000000000000000000008152600401808060200182810382526026815260200180614d266026913960400191505060405180910390fd5b614b0185614c46565b614b73576040517f08c379a000000000000000000000000000000000000000000000000000000000815260040180806020018281038252601d8152602001807f416464726573733a2063616c6c20746f206e6f6e2d636f6e747261637400000081525060200191505060405180910390fd5b600060608673ffffffffffffffffffffffffffffffffffffffff1685876040518082805190602001908083835b60208310614bc35780518252602082019150602081019050602083039250614ba0565b6001836020036101000a03801982511681845116808217855250505050505090500191505060006040518083038185875af1925050503d8060008114614c25576040519150601f19603f3d011682016040523d82523d6000602084013e614c2a565b606091505b5091509150614c3a828286614c59565b92505050949350505050565b600080823b905060008111915050919050565b60608315614c6957829050614d1e565b600083511115614c7c5782518084602001fd5b816040517f08c379a00000000000000000000000000000000000000000000000000000000081526004018080602001828103825283818151815260200191508051906020019080838360005b83811015614ce3578082015181840152602081019050614cc8565b50505050905090810190601f168015614d105780820380516001836020036101000a031916815260200191505b509250505060405180910390fd5b939250505056fe416464726573733a20696e73756666696369656e742062616c616e636520666f722063616c6c4f6e6c792074686520496e746567726174696f6e4d616e616765722063616e2063616c6c20746869732066756e6374696f6e5f5f76616c6964617465506f6f6c466f72577261707065723a20496e76616c69645361666545524332303a204552433230206f7065726174696f6e20646964206e6f7420737563636565645361666545524332303a20617070726f76652066726f6d206e6f6e2d7a65726f20746f206e6f6e2d7a65726f20616c6c6f77616e63657061727365417373657473466f72416374696f6e3a205f73656c6563746f7220696e76616c6964a164736f6c634300060c000a","linkReferences":{}},"methodIdentifiers":{"CLAIM_REWARDS_SELECTOR()":"40da225d","LEND_AND_STAKE_SELECTOR()":"131461c0","LEND_SELECTOR()":"257cb1a3","REDEEM_SELECTOR()":"f7d882b5","STAKE_SELECTOR()":"3ffc1591","TAKE_MULTIPLE_ORDERS_SELECTOR()":"c32990a2","TAKE_ORDER_SELECTOR()":"863e5ad0","UNSTAKE_AND_REDEEM_SELECTOR()":"080456c1","UNSTAKE_SELECTOR()":"b23228cf","claimRewards(address,bytes,bytes)":"b9dfbacc","getCurveLiquidityWrappedNativeAsset()":"12c9d386","getIntegrationManager()":"e7c45690","lendAndStake(address,bytes,bytes)":"29fa046e","parseAssetsForAction(address,bytes4,bytes)":"c54efee5","stake(address,bytes,bytes)":"fa7dd04d","unstake(address,bytes,bytes)":"68e30677","unstakeAndRedeem(address,bytes,bytes)":"8334eb99"},"id":212}