{"abi":[{"type":"constructor","inputs":[{"name":"_integrationManager","type":"address","internalType":"address"},{"name":"_augustusSwapper","type":"address","internalType":"address"},{"name":"_tokenTransferProxy","type":"address","internalType":"address"},{"name":"_feePartner","type":"address","internalType":"address"},{"name":"_feePercent","type":"uint256","internalType":"uint256"}],"stateMutability":"nonpayable"},{"type":"function","name":"CLAIM_REWARDS_SELECTOR","inputs":[],"outputs":[{"name":"","type":"bytes4","internalType":"bytes4"}],"stateMutability":"view"},{"type":"function","name":"LEND_AND_STAKE_SELECTOR","inputs":[],"outputs":[{"name":"","type":"bytes4","internalType":"bytes4"}],"stateMutability":"view"},{"type":"function","name":"LEND_SELECTOR","inputs":[],"outputs":[{"name":"","type":"bytes4","internalType":"bytes4"}],"stateMutability":"view"},{"type":"function","name":"REDEEM_SELECTOR","inputs":[],"outputs":[{"name":"","type":"bytes4","internalType":"bytes4"}],"stateMutability":"view"},{"type":"function","name":"STAKE_SELECTOR","inputs":[],"outputs":[{"name":"","type":"bytes4","internalType":"bytes4"}],"stateMutability":"view"},{"type":"function","name":"TAKE_MULTIPLE_ORDERS_SELECTOR","inputs":[],"outputs":[{"name":"","type":"bytes4","internalType":"bytes4"}],"stateMutability":"view"},{"type":"function","name":"TAKE_ORDER_SELECTOR","inputs":[],"outputs":[{"name":"","type":"bytes4","internalType":"bytes4"}],"stateMutability":"view"},{"type":"function","name":"UNSTAKE_AND_REDEEM_SELECTOR","inputs":[],"outputs":[{"name":"","type":"bytes4","internalType":"bytes4"}],"stateMutability":"view"},{"type":"function","name":"UNSTAKE_SELECTOR","inputs":[],"outputs":[{"name":"","type":"bytes4","internalType":"bytes4"}],"stateMutability":"view"},{"type":"function","name":"getIntegrationManager","inputs":[],"outputs":[{"name":"integrationManager_","type":"address","internalType":"address"}],"stateMutability":"view"},{"type":"function","name":"getParaSwapV5AugustusSwapper","inputs":[],"outputs":[{"name":"augustusSwapper_","type":"address","internalType":"address"}],"stateMutability":"view"},{"type":"function","name":"getParaSwapV5TokenTransferProxy","inputs":[],"outputs":[{"name":"tokenTransferProxy_","type":"address","internalType":"address"}],"stateMutability":"view"},{"type":"function","name":"parseAssetsForAction","inputs":[{"name":"","type":"address","internalType":"address"},{"name":"_selector","type":"bytes4","internalType":"bytes4"},{"name":"_actionData","type":"bytes","internalType":"bytes"}],"outputs":[{"name":"spendAssetsHandleType_","type":"uint8","internalType":"enum IIntegrationManager.SpendAssetsHandleType"},{"name":"spendAssets_","type":"address[]","internalType":"address[]"},{"name":"spendAssetAmounts_","type":"uint256[]","internalType":"uint256[]"},{"name":"incomingAssets_","type":"address[]","internalType":"address[]"},{"name":"minIncomingAssetAmounts_","type":"uint256[]","internalType":"uint256[]"}],"stateMutability":"view"},{"type":"function","name":"takeMultipleOrders","inputs":[{"name":"_vaultProxy","type":"address","internalType":"address"},{"name":"_actionData","type":"bytes","internalType":"bytes"},{"name":"_assetData","type":"bytes","internalType":"bytes"}],"outputs":[],"stateMutability":"nonpayable"},{"type":"function","name":"takeOrder","inputs":[{"name":"_vaultProxy","type":"address","internalType":"address"},{"name":"_actionData","type":"bytes","internalType":"bytes"},{"name":"","type":"bytes","internalType":"bytes"}],"outputs":[],"stateMutability":"nonpayable"},{"type":"function","name":"takeOrderAndValidateIncoming","inputs":[{"name":"_vaultProxy","type":"address","internalType":"address"},{"name":"_orderData","type":"bytes","internalType":"bytes"}],"outputs":[],"stateMutability":"nonpayable"},{"type":"event","name":"MultipleOrdersItemFailed","inputs":[{"name":"index","type":"uint256","indexed":false,"internalType":"uint256"},{"name":"reason","type":"bytes","indexed":false,"internalType":"bytes"}],"anonymous":false}],"bytecode":{"object":"0x6101206040523480156200001257600080fd5b506040516200331e3803806200331e833981016040819052620000359162000089565b6001600160601b0319606095861b811660805293851b841660a05290841b831660c05260e05290911b166101005262000143565b805162000076816200011e565b92915050565b8051620000768162000138565b600080600080600060a08688031215620000a257600080fd5b6000620000b0888862000069565b9550506020620000c38882890162000069565b9450506040620000d68882890162000069565b9350506060620000e98882890162000069565b9250506080620000fc888289016200007c565b9150509295509295909350565b60006001600160a01b03821662000076565b90565b620001298162000109565b81146200013557600080fd5b50565b62000129816200011b565b60805160601c60a05160601c60c05160601c60e0516101005160601c61317b620001a3600039806104395250806110dc528061124d52806113a75250806110ad528061121e528061137852508061050e5250806108cd525061317b6000f3fe608060405234801561001057600080fd5b50600436106101005760003560e01c806340da225d11610097578063c32990a211610066578063c32990a2146101ab578063c54efee5146101b3578063e7c45690146101d7578063f7d882b5146101df57610100565b806340da225d1461018b578063863e5ad01461019357806391bc27dc1461019b578063b23228cf146101a357610100565b8063257cb1a3116100d3578063257cb1a3146101535780632c4286791461015b5780632d979b8c146101705780633ffc15911461018357610100565b806303e38a2b14610105578063080456c11461011a5780630e7f692d14610138578063131461c01461014b575b600080fd5b6101186101133660046121ba565b6101e7565b005b61012261022e565b60405161012f9190612ed7565b60405180910390f35b6101186101463660046121ba565b610252565b6101226103ef565b610122610413565b610163610437565b60405161012f9190612e73565b61011861017e366004612165565b61045b565b6101226104a0565b6101226104c4565b6101226104e8565b61016361050c565b610122610530565b610122610554565b6101c66101c13660046120fe565b610578565b60405161012f959493929190612ee5565b6101636108cb565b6101226108ef565b6102278585858080601f01602080910402602001604051908101604052809392919081815260200183838082843760009201919091525061091392505050565b5050505050565b7f8334eb99be0145865eba9889fca2ee920288090caefff4cc776038e20ad9259a81565b8482828080601f0160208091040260200160405190810160405280939291908181526020018383808284376000920182905250606093509150610297905088886109be565b9150915080156103965760005b825181101561039057306001600160a01b0316632d979b8c8b8584815181106102c957fe5b60200260200101516040518363ffffffff1660e01b81526004016102ee929190612e9c565b600060405180830381600087803b15801561030857600080fd5b505af1925050508015610319575060015b610388573d808015610347576040519150601f19603f3d011682016040523d82523d6000602084013e61034c565b606091505b507f3a14c92f155e1c07fef79933a3b56bd101ab83092702170ae1a4c53712c5099b828260405161037e929190612ff5565b60405180910390a1505b6001016102a4565b506103c9565b60005b82518110156103c7576103bf8a8483815181106103b257fe5b60200260200101516109da565b600101610399565b505b505060606103d682610b38565b505090506103e48382610b5e565b505050505050505050565b7f29fa046e79524c3c5ac4c01df692c35e217802b2b13b21121b76cf0ef02b138c81565b7f099f75155f0e997bf83a7993a71d5e7e7540bd386fe1e84643a09ce6b412521981565b7f000000000000000000000000000000000000000000000000000000000000000090565b61049b8383838080601f0160208091040260200160405190810160405280939291908181526020018383808284376000920191909152506109da92505050565b505050565b7ffa7dd04da627f433da73c4355ead9c75682a67a8fc84d3f6170ef0922f402d2481565b7fb9dfbaccbe5cd2a84fdcf1d15f23ef25d23086f5afbaa99516065ed4a5bbc7a381565b7f03e38a2bd7063d45c897edeafc330e71657502dd86434d3c37a489caf116af6981565b7f000000000000000000000000000000000000000000000000000000000000000090565b7f68e30677f607df46e87da13e15b637784cfa62374b653f35ab43d10361a2f83081565b7f0e7f692dad5b88fdee426250d6eae91207e56a2e8112b7364579bed1790e5bf481565b600060608080806001600160e01b031988166303e38a2b60e01b14156106fc5760408051600180825281830190925290602080830190803683375050604080516001808252818301909252929650905060208083019080368337505060408051600180825281830190925292955090506020808301908036833750506040805160018082528183019092529294509050602080830190803683370190505090506000606061065b89898080601f016020809104026020016040519081016040528093929190818152602001838380828437600092019190915250610cba92505050565b9091929394509091508760008151811061067157fe5b602002602001018b60008151811061068557fe5b602002602001018b60008151811061069957fe5b60209081029190910101949094526001600160a01b039094169092529290915290925090506106c88282610cf0565b846000815181106106d557fe5b60200260200101906001600160a01b031690816001600160a01b03168152505050506108bc565b6001600160e01b03198816630e7f692d60e01b141561089b57606061072188886109be565b50905080516001600160401b038111801561073b57600080fd5b50604051908082528060200260200182016040528015610765578160200160208202803683370190505b50945080516001600160401b038111801561077f57600080fd5b506040519080825280602002602001820160405280156107a9578160200160208202803683370190505b50935060005b815181101561084157600060606107d88484815181106107cb57fe5b6020026020010151610cba565b8e51949650929450928d9150889081106107ee57fe5b602002602001018b888151811061080157fe5b60209081029190910101939093526001600160a01b039093169091529250905061083561082e8383610cf0565b8790610dc8565b955050506001016107af565b5061084c8585610df1565b845191965094506001600160401b038111801561086857600080fd5b50604051908082528060200260200182016040528015610892578160200160208202803683370190505b509150506108bc565b60405162461bcd60e51b81526004016108b390612fb2565b60405180910390fd5b60029450945094509450945094565b7f000000000000000000000000000000000000000000000000000000000000000090565b7fc29fa9dde84204c2908778afd0613d802d31cf046179b88f6d2b4a4e507ea2d581565b600080600080600080606061092788610cba565b959c50939a509198509650945092509050600282600281111561094657fe5b141561096857610963858589898d8861095e88611031565b61104f565b6103e4565b600182600281111561097657fe5b141561099357610963858589898d8861098e886111b0565b6111c6565b60008260028111156109a157fe5b14156103e4576103e4858589896109b7866112cf565b8e896112eb565b606060006109ce838501856122d0565b915091505b9250929050565b60008060606109e884610cba565b9650965050505050925060006109fe8383610cf0565b90506000816001600160a01b03166370a08231886040518263ffffffff1660e01b8152600401610a2e9190612e73565b60206040518083038186803b158015610a4657600080fd5b505afa158015610a5a573d6000803e3d6000fd5b505050506040513d601f19601f82011682018060405250810190610a7e91906123da565b9050610a8a8787610913565b84610b1182846001600160a01b03166370a082318b6040518263ffffffff1660e01b8152600401610abb9190612e73565b60206040518083038186803b158015610ad357600080fd5b505afa158015610ae7573d6000803e3d6000fd5b505050506040513d601f19601f82011682018060405250810190610b0b91906123da565b90611429565b1015610b2f5760405162461bcd60e51b81526004016108b390612f52565b50505050505050565b606080606083806020019051810190610b51919061223f565b9250925092509193909250565b606081516001600160401b0381118015610b7757600080fd5b50604051908082528060200260200182016040528015610ba1578160200160208202803683370190505b50905060005b8251811015610cb2576000838281518110610bbe57fe5b60200260200101519050806001600160a01b03166370a08231306040518263ffffffff1660e01b8152600401610bf49190612e73565b60206040518083038186803b158015610c0c57600080fd5b505afa158015610c20573d6000803e3d6000fd5b505050506040513d601f19601f82011682018060405250810190610c4491906123da565b838381518110610c5057fe5b6020026020010181815250506000838381518110610c6a57fe5b60200260200101511115610ca957610ca985848481518110610c8857fe5b6020026020010151836001600160a01b03166114519092919063ffffffff16565b50600101610ba7565b505b92915050565b600080600080600080606087806020019051810190610cd991906123f8565b959e949d50929b5090995097509550909350915050565b60006002836002811115610d0057fe5b1415610d55576060610d1183611031565b9050606081600081518110610d2257fe5b602002602001015160200151905080600182510381518110610d4057fe5b60200260200101516000015192505050610cb4565b6001836002811115610d6357fe5b1415610d9a576060610d74836111b0565b905080600182510381518110610d8657fe5b602002602001015160000151915050610cb4565b6000836002811115610da857fe5b1415610cb457610db66118f2565b610dbf836112cf565b51949350505050565b6060610dd483836114a7565b15610de0575081610cb4565b610dea83836114fd565b9392505050565b606080835160001415610e03576109d3565b6001805b8551811015610e83576000805b82811015610e6d57878181518110610e2857fe5b60200260200101516001600160a01b0316888481518110610e4557fe5b60200260200101516001600160a01b03161415610e655760019150610e6d565b600101610e14565b5080610e7a576001909201915b50600101610e07565b50806001600160401b0381118015610e9a57600080fd5b50604051908082528060200260200182016040528015610ec4578160200160208202803683370190505b509250806001600160401b0381118015610edd57600080fd5b50604051908082528060200260200182016040528015610f07578160200160208202803683370190505b5091506000805b8651811015611027576000805b83811015610fa657868181518110610f2f57fe5b60200260200101516001600160a01b0316898481518110610f4c57fe5b60200260200101516001600160a01b03161415610f9e5760019150878381518110610f7357fe5b6020026020010151868281518110610f8757fe5b602002602001018181510191508181525050610fa6565b600101610f1b565b508061101e57878281518110610fb857fe5b6020026020010151868481518110610fcc57fe5b60200260200101906001600160a01b031690816001600160a01b031681525050868281518110610ff857fe5b602002602001015185848151811061100c57fe5b60209081029190910101526001909201915b50600101610f0e565b5050509250929050565b6060818060200190518101906110479190612320565b90505b919050565b6110618761105b610437565b886115c7565b61106961192a565b604051806101600160405280896001600160a01b03168152602001888152602001878152602001868152602001856001600160a01b031681526020018381526020017f00000000000000000000000000000000000000000000000000000000000000006001600160a01b031681526020017f00000000000000000000000000000000000000000000000000000000000000008152602001604051806020016040528060008152508152602001428152602001846001600160801b031916815250905061113361050c565b6001600160a01b03166346c67b6d826040518263ffffffff1660e01b815260040161115e9190612fc2565b602060405180830381600087803b15801561117857600080fd5b505af115801561118c573d6000803e3d6000fd5b505050506040513d601f19601f820116820180604052508101906103e491906123da565b6060818060200190518101906110479190612354565b6111d28761105b610437565b6111da61192a565b604051806101600160405280896001600160a01b03168152602001888152602001878152602001868152602001856001600160a01b031681526020018381526020017f00000000000000000000000000000000000000000000000000000000000000006001600160a01b031681526020017f00000000000000000000000000000000000000000000000000000000000000008152602001604051806020016040528060008152508152602001428152602001846001600160801b03191681525090506112a461050c565b6001600160a01b031663a94e78ef826040518263ffffffff1660e01b815260040161115e9190612fd3565b6112d76118f2565b8180602001905181019061104791906123a6565b6112f78761105b610437565b6112ff6119a9565b604051806101e00160405280896001600160a01b0316815260200185600001516001600160a01b0316815260200188815260200187815260200186815260200185602001518152602001856040015181526020018560600151815260200185608001518152602001846001600160a01b031681526020017f00000000000000000000000000000000000000000000000000000000000000006001600160a01b031681526020017f00000000000000000000000000000000000000000000000000000000000000008152602001604051806020016040528060008152508152602001428152602001836001600160801b03191681525090506113fe61050c565b6001600160a01b03166354e3f31b826040518263ffffffff1660e01b815260040161115e9190612fe4565b60008282111561144b5760405162461bcd60e51b81526004016108b390612f62565b50900390565b61049b8363a9059cbb60e01b8484604051602401611470929190612ebc565b60408051601f198184030181529190526020810180516001600160e01b03166001600160e01b031990931692909217909152611689565b6000805b83518110156114f3578381815181106114c057fe5b60200260200101516001600160a01b0316836001600160a01b031614156114eb576001915050610cb4565b6001016114ab565b5060009392505050565b606082516001016001600160401b038111801561151957600080fd5b50604051908082528060200260200182016040528015611543578160200160208202803683370190505b50905060005b83518110156115925783818151811061155e57fe5b602002602001015182828151811061157257fe5b6001600160a01b0390921660209283029190910190910152600101611549565b5081818451815181106115a157fe5b60200260200101906001600160a01b031690816001600160a01b03168152505092915050565b604051636eb1769f60e11b81526000906001600160a01b0385169063dd62ed3e906115f89030908790600401612e81565b60206040518083038186803b15801561161057600080fd5b505afa158015611624573d6000803e3d6000fd5b505050506040513d601f19601f8201168201806040525081019061164891906123da565b90508181101561168357801561166d5761166d6001600160a01b038516846000611718565b6116836001600160a01b03851684600019611718565b50505050565b60606116de826040518060400160405280602081526020017f5361666545524332303a206c6f772d6c6576656c2063616c6c206661696c6564815250856001600160a01b03166117db9092919063ffffffff16565b80519091501561049b57808060200190518101906116fc9190612388565b61049b5760405162461bcd60e51b81526004016108b390612f92565b8015806117a05750604051636eb1769f60e11b81526001600160a01b0384169063dd62ed3e9061174e9030908690600401612e81565b60206040518083038186803b15801561176657600080fd5b505afa15801561177a573d6000803e3d6000fd5b505050506040513d601f19601f8201168201806040525081019061179e91906123da565b155b6117bc5760405162461bcd60e51b81526004016108b390612fa2565b61049b8363095ea7b360e01b8484604051602401611470929190612ebc565b60606117ea84846000856117f2565b949350505050565b6060824710156118145760405162461bcd60e51b81526004016108b390612f72565b61181d856118b3565b6118395760405162461bcd60e51b81526004016108b390612f82565b60006060866001600160a01b031685876040516118569190612e67565b60006040518083038185875af1925050503d8060008114611893576040519150601f19603f3d011682016040523d82523d6000602084013e611898565b606091505b50915091506118a88282866118b9565b979650505050505050565b3b151590565b606083156118c8575081610dea565b8251156118d85782518084602001fd5b8160405162461bcd60e51b81526004016108b39190612f41565b6040518060a0016040528060006001600160a01b03168152602001606081526020016060815260200160608152602001606081525090565b60405180610160016040528060006001600160a01b0316815260200160008152602001600081526020016000815260200160006001600160a01b031681526020016060815260200160006001600160a01b0316815260200160008152602001606081526020016000815260200160006001600160801b03191681525090565b604051806101e0016040528060006001600160a01b0316815260200160006001600160a01b031681526020016000815260200160008152602001600081526020016060815260200160608152602001606081526020016060815260200160006001600160a01b0316815260200160006001600160a01b0316815260200160008152602001606081526020016000815260200160006001600160801b03191681525090565b8035610cb481613129565b8051610cb481613129565b600082601f830112611a7457600080fd5b8151611a87611a8282613029565b613003565b91508181835260208401935060208101905083856020840282011115611aac57600080fd5b60005b83811015611ad85781611ac28882611a58565b8452506020928301929190910190600101611aaf565b5050505092915050565b600082601f830112611af357600080fd5b8135611b01611a8282613029565b81815260209384019390925082018360005b83811015611ad85781358601611b298882611d90565b8452506020928301929190910190600101611b13565b600082601f830112611b5057600080fd5b8151611b5e611a8282613029565b81815260209384019390925082018360005b83811015611ad85781518601611b868882611e30565b8452506020928301929190910190600101611b70565b600082601f830112611bad57600080fd5b8151611bbb611a8282613029565b81815260209384019390925082018360005b83811015611ad85781518601611be38882611eb6565b8452506020928301929190910190600101611bcd565b600082601f830112611c0a57600080fd5b8151611c18611a8282613029565b81815260209384019390925082018360005b83811015611ad85781518601611c408882611f14565b8452506020928301929190910190600101611c2a565b600082601f830112611c6757600080fd5b8151611c75611a8282613029565b81815260209384019390925082018360005b83811015611ad85781518601611c9d8882611f86565b8452506020928301929190910190600101611c87565b600082601f830112611cc457600080fd5b8151611cd2611a8282613029565b91508181835260208401935060208101905083856020840282011115611cf757600080fd5b60005b83811015611ad85781611d0d88826120f3565b8452506020928301929190910190600101611cfa565b8035610cb48161313d565b8051610cb48161313d565b8051610cb481613146565b8035610cb48161314f565b60008083601f840112611d6157600080fd5b5081356001600160401b03811115611d7857600080fd5b6020830191508360018202830111156109d357600080fd5b600082601f830112611da157600080fd5b8135611daf611a8282613049565b91508082526020830160208301858383011115611dcb57600080fd5b611dd68382846130da565b50505092915050565b600082601f830112611df057600080fd5b8151611dfe611a8282613049565b91508082526020830160208301858383011115611e1a57600080fd5b611dd68382846130e6565b8051610cb481613158565b600060808284031215611e4257600080fd5b611e4c6080613003565b90506000611e5a8484611a58565b8252506020611e6b848483016120f3565b6020830152506040611e7f848285016120f3565b60408301525060608201516001600160401b03811115611e9e57600080fd5b611eaa84828501611c56565b60608301525092915050565b600060408284031215611ec857600080fd5b611ed26040613003565b90506000611ee084846120f3565b82525060208201516001600160401b03811115611efc57600080fd5b611f0884828501611bf9565b60208301525092915050565b600060608284031215611f2657600080fd5b611f306060613003565b90506000611f3e8484611a58565b8252506020611f4f848483016120f3565b60208301525060408201516001600160401b03811115611f6e57600080fd5b611f7a84828501611b3f565b60408301525092915050565b600060a08284031215611f9857600080fd5b611fa260a0613003565b90506000611fb084846120f3565b8252506020611fc184848301611a58565b6020830152506040611fd5848285016120f3565b60408301525060608201516001600160401b03811115611ff457600080fd5b61200084828501611ddf565b6060830152506080612014848285016120f3565b60808301525092915050565b600060a0828403121561203257600080fd5b61203c60a0613003565b9050600061204a8484611a58565b82525060208201516001600160401b0381111561206657600080fd5b61207284828501611a63565b60208301525060408201516001600160401b0381111561209157600080fd5b61209d84828501611ddf565b60408301525060608201516001600160401b038111156120bc57600080fd5b6120c884828501611cb3565b60608301525060808201516001600160401b038111156120e757600080fd5b61201484828501611cb3565b8051610cb481613165565b6000806000806060858703121561211457600080fd5b60006121208787611a4d565b945050602061213187828801611d44565b93505060408501356001600160401b0381111561214d57600080fd5b61215987828801611d4f565b95989497509550505050565b60008060006040848603121561217a57600080fd5b60006121868686611a4d565b93505060208401356001600160401b038111156121a257600080fd5b6121ae86828701611d4f565b92509250509250925092565b6000806000806000606086880312156121d257600080fd5b60006121de8888611a4d565b95505060208601356001600160401b038111156121fa57600080fd5b61220688828901611d4f565b945094505060408601356001600160401b0381111561222457600080fd5b61223088828901611d4f565b92509250509295509295909350565b60008060006060848603121561225457600080fd5b83516001600160401b0381111561226a57600080fd5b61227686828701611a63565b93505060208401516001600160401b0381111561229257600080fd5b61229e86828701611cb3565b92505060408401516001600160401b038111156122ba57600080fd5b6122c686828701611a63565b9150509250925092565b600080604083850312156122e357600080fd5b82356001600160401b038111156122f957600080fd5b61230585828601611ae2565b925050602061231685828601611d23565b9150509250929050565b60006020828403121561233257600080fd5b81516001600160401b0381111561234857600080fd5b6117ea84828501611b9c565b60006020828403121561236657600080fd5b81516001600160401b0381111561237c57600080fd5b6117ea84828501611bf9565b60006020828403121561239a57600080fd5b60006117ea8484611d2e565b6000602082840312156123b857600080fd5b81516001600160401b038111156123ce57600080fd5b6117ea84828501612020565b6000602082840312156123ec57600080fd5b60006117ea84846120f3565b600080600080600080600060e0888a03121561241357600080fd5b600061241f8a8a6120f3565b97505060206124308a828b016120f3565b96505060406124418a828b01611a58565b95505060606124528a828b016120f3565b94505060806124638a828b01611d39565b93505060a06124748a828b01611e25565b92505060c08801516001600160401b0381111561249057600080fd5b61249c8a828b01611ddf565b91505092959891949750929550565b60006124b783836124fb565b505060200190565b6000610dea8383612a79565b6000610dea8383612ad4565b6000610dea8383612bef565b6000610dea8383612c2e565b60006124b78383612e5e565b61250481613083565b82525050565b600061251582613076565b61251f818561307a565b935061252a83613070565b8060005b8381101561255857815161254288826124ab565b975061254d83613070565b92505060010161252e565b509495945050505050565b600061256e82613076565b612578818561307a565b935061258383613070565b8060005b8381101561255857815161259b88826124ab565b97506125a683613070565b925050600101612587565b60006125bc82613076565b6125c6818561307a565b9350836020820285016125d885613070565b8060005b8581101561261257848403895281516125f585826124bf565b945061260083613070565b60209a909a01999250506001016125dc565b5091979650505050505050565b600061262a82613076565b612634818561307a565b93508360208202850161264685613070565b8060005b85811015612612578484038952815161266385826124cb565b945061266e83613070565b60209a909a019992505060010161264a565b600061268b82613076565b612695818561307a565b9350836020820285016126a785613070565b8060005b8581101561261257848403895281516126c485826124d7565b94506126cf83613070565b60209a909a01999250506001016126ab565b60006126ec82613076565b6126f6818561307a565b93508360208202850161270885613070565b8060005b85811015612612578484038952815161272585826124e3565b945061273083613070565b60209a909a019992505060010161270c565b600061274d82613076565b612757818561307a565b935061276283613070565b8060005b8381101561255857815161277a88826124ef565b975061278583613070565b925050600101612766565b600061279b82613076565b6127a5818561307a565b93506127b083613070565b8060005b838110156125585781516127c888826124ef565b97506127d383613070565b9250506001016127b4565b61250481613093565b612504816130a9565b60006127fb82613076565b612805818561307a565b93506128158185602086016130e6565b61281e81613112565b9093019392505050565b600061283382613076565b61283d818561104a565b935061284d8185602086016130e6565b9290920192915050565b612504816130cf565b600061286d604a8361307a565b7f5f5f74616b654f72646572416e6456616c6964617465496e636f6d696e673a2081527f526563656976656420696e636f6d696e67206173736574206c657373207468616020820152691b88195e1c1958dd195960b21b604082015260600192915050565b60006128df601e8361307a565b7f536166654d6174683a207375627472616374696f6e206f766572666c6f770000815260200192915050565b600061291860268361307a565b7f416464726573733a20696e73756666696369656e742062616c616e636520666f8152651c8818d85b1b60d21b602082015260400192915050565b6000612960601d8361307a565b7f416464726573733a2063616c6c20746f206e6f6e2d636f6e7472616374000000815260200192915050565b6000612999602a8361307a565b7f5361666545524332303a204552433230206f7065726174696f6e20646964206e8152691bdd081cdd58d8d9595960b21b602082015260400192915050565b60006129e560368361307a565b7f5361666545524332303a20617070726f76652066726f6d206e6f6e2d7a65726f81527520746f206e6f6e2d7a65726f20616c6c6f77616e636560501b602082015260400192915050565b6000612a3d60278361307a565b7f7061727365417373657473466f72416374696f6e3a205f73656c6563746f72208152661a5b9d985b1a5960ca1b602082015260400192915050565b80516000906080840190612a8d85826124fb565b506020830151612aa06020860182612e5e565b506040830151612ab36040860182612e5e565b5060608301518482036060860152612acb82826126e1565b95945050505050565b80516000906040840190612ae88582612e5e565b5060208301518482036020860152612acb8282612680565b8051600090610160840190612b1585826124fb565b506020830151612b286020860182612e5e565b506040830151612b3b6040860182612e5e565b506060830151612b4e6060860182612e5e565b506080830151612b6160808601826124fb565b5060a083015184820360a0860152612b79828261261f565b91505060c0830151612b8e60c08601826124fb565b5060e0830151612ba160e0860182612e5e565b50610100830151848203610100860152612bbb82826127f0565b915050610120830151612bd2610120860182612e5e565b50610140830151612be76101408601826127de565b509392505050565b80516000906060840190612c0385826124fb565b506020830151612c166020860182612e5e565b5060408301518482036040860152612acb82826125b1565b805160009060a0840190612c428582612e5e565b506020830151612c5560208601826124fb565b506040830151612c686040860182612e5e565b5060608301518482036060860152612c8082826127f0565b9150506080830151612be76080860182612e5e565b8051600090610160840190612caa85826124fb565b506020830151612cbd6020860182612e5e565b506040830151612cd06040860182612e5e565b506060830151612ce36060860182612e5e565b506080830151612cf660808601826124fb565b5060a083015184820360a0860152612b798282612680565b80516000906101e0840190612d2385826124fb565b506020830151612d3660208601826124fb565b506040830151612d496040860182612e5e565b506060830151612d5c6060860182612e5e565b506080830151612d6f6080860182612e5e565b5060a083015184820360a0860152612d87828261250a565b91505060c083015184820360c0860152612da182826127f0565b91505060e083015184820360e0860152612dbb8282612742565b915050610100830151848203610100860152612dd78282612742565b915050610120830151612dee6101208601826124fb565b50610140830151612e036101408601826124fb565b50610160830151612e18610160860182612e5e565b50610180830151848203610180860152612e3282826127f0565b9150506101a0830151612e496101a0860182612e5e565b506101c0830151612be76101c08601826127de565b612504816130cc565b6000610dea8284612828565b60208101610cb482846124fb565b60408101612e8f82856124fb565b610dea60208301846124fb565b60408101612eaa82856124fb565b81810360208301526117ea81846127f0565b60408101612eca82856124fb565b610dea6020830184612e5e565b60208101610cb482846127e7565b60a08101612ef38288612857565b8181036020830152612f058187612563565b90508181036040830152612f198186612790565b90508181036060830152612f2d8185612563565b905081810360808301526118a88184612790565b60208082528101610dea81846127f0565b6020808252810161104781612860565b60208082528101611047816128d2565b602080825281016110478161290b565b6020808252810161104781612953565b602080825281016110478161298c565b60208082528101611047816129d8565b6020808252810161104781612a30565b60208082528101610dea8184612b00565b60208082528101610dea8184612c95565b60208082528101610dea8184612d0e565b60408101612eaa8285612e5e565b6040518181016001600160401b038111828210171561302157600080fd5b604052919050565b60006001600160401b0382111561303f57600080fd5b5060209081020190565b60006001600160401b0382111561305f57600080fd5b506020601f91909101601f19160190565b60200190565b5190565b90815260200190565b6000611047826130c0565b151590565b6fffffffffffffffffffffffffffffffff191690565b6001600160e01b03191690565b8061104a8161311c565b6001600160a01b031690565b90565b6000611047826130b6565b82818337506000910152565b60005b838110156131015781810151838201526020016130e9565b838111156116835750506000910152565b601f01601f191690565b6003811061312657fe5b50565b61313281613083565b811461312657600080fd5b6131328161308e565b61313281613093565b613132816130a9565b6003811061312657600080fd5b613132816130cc56fea164736f6c634300060c000a","linkReferences":{}},"methodIdentifiers":{"CLAIM_REWARDS_SELECTOR()":"40da225d","LEND_AND_STAKE_SELECTOR()":"131461c0","LEND_SELECTOR()":"257cb1a3","REDEEM_SELECTOR()":"f7d882b5","STAKE_SELECTOR()":"3ffc1591","TAKE_MULTIPLE_ORDERS_SELECTOR()":"c32990a2","TAKE_ORDER_SELECTOR()":"863e5ad0","UNSTAKE_AND_REDEEM_SELECTOR()":"080456c1","UNSTAKE_SELECTOR()":"b23228cf","getIntegrationManager()":"e7c45690","getParaSwapV5AugustusSwapper()":"91bc27dc","getParaSwapV5TokenTransferProxy()":"2c428679","parseAssetsForAction(address,bytes4,bytes)":"c54efee5","takeMultipleOrders(address,bytes,bytes)":"0e7f692d","takeOrder(address,bytes,bytes)":"03e38a2b","takeOrderAndValidateIncoming(address,bytes)":"2d979b8c"},"id":217}