{"abi":[{"type":"constructor","inputs":[{"name":"_integrationManager","type":"address","internalType":"address"},{"name":"_augustusSwapper","type":"address","internalType":"address"},{"name":"_tokenTransferProxy","type":"address","internalType":"address"},{"name":"_feePartner","type":"address","internalType":"address"},{"name":"_feePercent","type":"uint256","internalType":"uint256"}],"stateMutability":"nonpayable"},{"type":"function","name":"CLAIM_REWARDS_SELECTOR","inputs":[],"outputs":[{"name":"","type":"bytes4","internalType":"bytes4"}],"stateMutability":"view"},{"type":"function","name":"LEND_AND_STAKE_SELECTOR","inputs":[],"outputs":[{"name":"","type":"bytes4","internalType":"bytes4"}],"stateMutability":"view"},{"type":"function","name":"LEND_SELECTOR","inputs":[],"outputs":[{"name":"","type":"bytes4","internalType":"bytes4"}],"stateMutability":"view"},{"type":"function","name":"REDEEM_SELECTOR","inputs":[],"outputs":[{"name":"","type":"bytes4","internalType":"bytes4"}],"stateMutability":"view"},{"type":"function","name":"STAKE_SELECTOR","inputs":[],"outputs":[{"name":"","type":"bytes4","internalType":"bytes4"}],"stateMutability":"view"},{"type":"function","name":"TAKE_MULTIPLE_ORDERS_SELECTOR","inputs":[],"outputs":[{"name":"","type":"bytes4","internalType":"bytes4"}],"stateMutability":"view"},{"type":"function","name":"TAKE_ORDER_SELECTOR","inputs":[],"outputs":[{"name":"","type":"bytes4","internalType":"bytes4"}],"stateMutability":"view"},{"type":"function","name":"UNSTAKE_AND_REDEEM_SELECTOR","inputs":[],"outputs":[{"name":"","type":"bytes4","internalType":"bytes4"}],"stateMutability":"view"},{"type":"function","name":"UNSTAKE_SELECTOR","inputs":[],"outputs":[{"name":"","type":"bytes4","internalType":"bytes4"}],"stateMutability":"view"},{"type":"function","name":"getIntegrationManager","inputs":[],"outputs":[{"name":"integrationManager_","type":"address","internalType":"address"}],"stateMutability":"view"},{"type":"function","name":"getParaSwapV5AugustusSwapper","inputs":[],"outputs":[{"name":"augustusSwapper_","type":"address","internalType":"address"}],"stateMutability":"view"},{"type":"function","name":"getParaSwapV5TokenTransferProxy","inputs":[],"outputs":[{"name":"tokenTransferProxy_","type":"address","internalType":"address"}],"stateMutability":"view"},{"type":"function","name":"parseAssetsForAction","inputs":[{"name":"","type":"address","internalType":"address"},{"name":"_selector","type":"bytes4","internalType":"bytes4"},{"name":"_actionData","type":"bytes","internalType":"bytes"}],"outputs":[{"name":"spendAssetsHandleType_","type":"uint8","internalType":"enum IIntegrationManager.SpendAssetsHandleType"},{"name":"spendAssets_","type":"address[]","internalType":"address[]"},{"name":"spendAssetAmounts_","type":"uint256[]","internalType":"uint256[]"},{"name":"incomingAssets_","type":"address[]","internalType":"address[]"},{"name":"minIncomingAssetAmounts_","type":"uint256[]","internalType":"uint256[]"}],"stateMutability":"view"},{"type":"function","name":"takeMultipleOrders","inputs":[{"name":"_vaultProxy","type":"address","internalType":"address"},{"name":"_actionData","type":"bytes","internalType":"bytes"},{"name":"_assetData","type":"bytes","internalType":"bytes"}],"outputs":[],"stateMutability":"nonpayable"},{"type":"function","name":"takeOrder","inputs":[{"name":"_vaultProxy","type":"address","internalType":"address"},{"name":"_actionData","type":"bytes","internalType":"bytes"},{"name":"","type":"bytes","internalType":"bytes"}],"outputs":[],"stateMutability":"nonpayable"},{"type":"function","name":"takeOrderAndValidateIncoming","inputs":[{"name":"_vaultProxy","type":"address","internalType":"address"},{"name":"_orderData","type":"bytes","internalType":"bytes"}],"outputs":[],"stateMutability":"nonpayable"},{"type":"event","name":"MultipleOrdersItemFailed","inputs":[{"name":"index","type":"uint256","indexed":false,"internalType":"uint256"},{"name":"reason","type":"bytes","indexed":false,"internalType":"bytes"}],"anonymous":false}],"bytecode":{"object":"0x6101206040523480156200001257600080fd5b506040516200474138038062004741833981810160405281019062000038919062000160565b83838383888073ffffffffffffffffffffffffffffffffffffffff1660808173ffffffffffffffffffffffffffffffffffffffff1660601b81525050508373ffffffffffffffffffffffffffffffffffffffff1660a08173ffffffffffffffffffffffffffffffffffffffff1660601b815250508173ffffffffffffffffffffffffffffffffffffffff1660c08173ffffffffffffffffffffffffffffffffffffffff1660601b815250508060e081815250508273ffffffffffffffffffffffffffffffffffffffff166101008173ffffffffffffffffffffffffffffffffffffffff1660601b8152505050505050505050505062000254565b600081519050620001438162000220565b92915050565b6000815190506200015a816200023a565b92915050565b600080600080600060a086880312156200017957600080fd5b6000620001898882890162000132565b95505060206200019c8882890162000132565b9450506040620001af8882890162000132565b9350506060620001c28882890162000132565b9250506080620001d58882890162000149565b9150509295509295909350565b6000620001ef82620001f6565b9050919050565b600073ffffffffffffffffffffffffffffffffffffffff82169050919050565b6000819050919050565b6200022b81620001e2565b81146200023757600080fd5b50565b620002458162000216565b81146200025157600080fd5b50565b60805160601c60a05160601c60c05160601c60e0516101005160601c61448d620002b4600039806105845250806115a5528061176b5280611979525080611569528061172f528061193d52508061066b525080610c26525061448d6000f3fe608060405234801561001057600080fd5b50600436106101005760003560e01c806340da225d11610097578063c32990a211610066578063c32990a214610267578063c54efee514610285578063e7c45690146102b9578063f7d882b5146102d757610100565b806340da225d146101ef578063863e5ad01461020d57806391bc27dc1461022b578063b23228cf1461024957610100565b8063257cb1a3116100d3578063257cb1a3146101795780632c428679146101975780632d979b8c146101b55780633ffc1591146101d157610100565b806303e38a2b14610105578063080456c1146101215780630e7f692d1461013f578063131461c01461015b575b600080fd5b61011f600480360381019061011a9190612ce8565b6102f5565b005b61012961034a565b6040516101369190613d50565b60405180910390f35b61015960048036038101906101549190612ce8565b61036e565b005b610163610538565b6040516101709190613d50565b60405180910390f35b61018161055c565b60405161018e9190613d50565b60405180910390f35b61019f610580565b6040516101ac9190613cb3565b60405180910390f35b6101cf60048036038101906101ca9190612c90565b6105a8565b005b6101d96105fb565b6040516101e69190613d50565b60405180910390f35b6101f761061f565b6040516102049190613d50565b60405180910390f35b610215610643565b6040516102229190613d50565b60405180910390f35b610233610667565b6040516102409190613cb3565b60405180910390f35b61025161068f565b60405161025e9190613d50565b60405180910390f35b61026f6106b3565b60405161027c9190613d50565b60405180910390f35b61029f600480360381019061029a9190612c24565b6106d7565b6040516102b0959493929190613d6b565b60405180910390f35b6102c1610c22565b6040516102ce9190613cb3565b60405180910390f35b6102df610c4a565b6040516102ec9190613d50565b60405180910390f35b6103438585858080601f016020809104026020016040519081016040528093929190818152602001838380828437600081840152601f19601f82011690508083019250505050505050610c6e565b5050505050565b7f8334eb99be0145865eba9889fca2ee920288090caefff4cc776038e20ad9259a81565b8482828080601f016020809104026020016040519081016040528093929190818152602001838380828437600081840152601f19601f82011690508083019250505050505050606060006103c28888610d49565b9150915080156104da5760005b82518110156104d4573073ffffffffffffffffffffffffffffffffffffffff16632d979b8c8b85848151811061040157fe5b60200260200101516040518363ffffffff1660e01b8152600401610426929190613cf7565b600060405180830381600087803b15801561044057600080fd5b505af1925050508015610451575060015b6104c6573d8060008114610481576040519150601f19603f3d011682016040523d82523d6000602084013e610486565b606091505b507f3a14c92f155e1c07fef79933a3b56bd101ab83092702170ae1a4c53712c5099b82826040516104b8929190613f42565b60405180910390a1506104c7565b5b80806001019150506103cf565b50610512565b60005b8251811015610510576105038a8483815181106104f657fe5b6020026020010151610d67565b80806001019150506104dd565b505b5050606061051f82610f0a565b5050905061052d8382610f30565b505050505050505050565b7f29fa046e79524c3c5ac4c01df692c35e217802b2b13b21121b76cf0ef02b138c81565b7f099f75155f0e997bf83a7993a71d5e7e7540bd386fe1e84643a09ce6b412521981565b60007f0000000000000000000000000000000000000000000000000000000000000000905090565b6105f68383838080601f016020809104026020016040519081016040528093929190818152602001838380828437600081840152601f19601f82011690508083019250505050505050610d67565b505050565b7ffa7dd04da627f433da73c4355ead9c75682a67a8fc84d3f6170ef0922f402d2481565b7fb9dfbaccbe5cd2a84fdcf1d15f23ef25d23086f5afbaa99516065ed4a5bbc7a381565b7f03e38a2bd7063d45c897edeafc330e71657502dd86434d3c37a489caf116af6981565b60007f0000000000000000000000000000000000000000000000000000000000000000905090565b7f68e30677f607df46e87da13e15b637784cfa62374b653f35ab43d10361a2f83081565b7f0e7f692dad5b88fdee426250d6eae91207e56a2e8112b7364579bed1790e5bf481565b60006060806060807f03e38a2bd7063d45c897edeafc330e71657502dd86434d3c37a489caf116af697bffffffffffffffffffffffffffffffffffffffffffffffffffffffff1916887bffffffffffffffffffffffffffffffffffffffffffffffffffffffff1916141561099e57600167ffffffffffffffff8111801561075d57600080fd5b5060405190808252806020026020018201604052801561078c5781602001602082028036833780820191505090505b509350600167ffffffffffffffff811180156107a757600080fd5b506040519080825280602002602001820160405280156107d65781602001602082028036833780820191505090505b509250600167ffffffffffffffff811180156107f157600080fd5b506040519080825280602002602001820160405280156108205781602001602082028036833780820191505090505b509150600167ffffffffffffffff8111801561083b57600080fd5b5060405190808252806020026020018201604052801561086a5781602001602082028036833780820191505090505b509050600060606108be89898080601f016020809104026020016040519081016040528093929190818152602001838380828437600081840152601f19601f820116905080830192505050505050506110b1565b909192939450909150876000815181106108d457fe5b602002602001018b6000815181106108e857fe5b602002602001018b6000815181106108fc57fe5b60200260200101839850849950858152508573ffffffffffffffffffffffffffffffffffffffff1673ffffffffffffffffffffffffffffffffffffffff1681525085815250505050505061095082826110e9565b8460008151811061095d57fe5b602002602001019073ffffffffffffffffffffffffffffffffffffffff16908173ffffffffffffffffffffffffffffffffffffffff16815250505050610c13565b7f0e7f692dad5b88fdee426250d6eae91207e56a2e8112b7364579bed1790e5bf47bffffffffffffffffffffffffffffffffffffffffffffffffffffffff1916887bffffffffffffffffffffffffffffffffffffffffffffffffffffffff19161415610bd7576060610a108888610d49565b509050805167ffffffffffffffff81118015610a2b57600080fd5b50604051908082528060200260200182016040528015610a5a5781602001602082028036833780820191505090505b509450805167ffffffffffffffff81118015610a7557600080fd5b50604051908082528060200260200182016040528015610aa45781602001602082028036833780820191505090505b50935060005b8151811015610b745760006060610ad3848481518110610ac657fe5b60200260200101516110b1565b909192939495509091929394509091508b8781518110610aef57fe5b602002602001018b8881518110610b0257fe5b60200260200101829650839750848152508473ffffffffffffffffffffffffffffffffffffffff1673ffffffffffffffffffffffffffffffffffffffff1681525050505050610b63610b5483836110e9565b876111eb90919063ffffffff16565b955050508080600101915050610aaa565b50610b7f8585611217565b8095508196505050825167ffffffffffffffff81118015610b9f57600080fd5b50604051908082528060200260200182016040528015610bce5781602001602082028036833780820191505090505b50915050610c12565b6040517f08c379a0000000000000000000000000000000000000000000000000000000008152600401610c0990613ebc565b60405180910390fd5b5b60029450945094509450945094565b60007f0000000000000000000000000000000000000000000000000000000000000000905090565b7fc29fa9dde84204c2908778afd0613d802d31cf046179b88f6d2b4a4e507ea2d581565b6000806000806000806060610c82886110b1565b9650965096509650965096509650600280811115610c9c57fe5b826002811115610ca857fe5b1415610cca57610cc5858589898d88610cc0886114d4565b6114f1565b610d3e565b60016002811115610cd757fe5b826002811115610ce357fe5b1415610d0557610d00858589898d88610cfb8861169a565b6116b7565b610d3d565b60006002811115610d1257fe5b826002811115610d1e57fe5b1415610d3c57610d3b85858989610d3486611860565b8e89611883565b5b5b5b505050505050505050565b606060008383810190610d5c9190612e08565b915091509250929050565b6000806060610d75846110b1565b965096505050505092506000610d8b83836110e9565b905060008173ffffffffffffffffffffffffffffffffffffffff166370a08231886040518263ffffffff1660e01b8152600401610dc89190613cb3565b60206040518083038186803b158015610de057600080fd5b505afa158015610df4573d6000803e3d6000fd5b505050506040513d601f19601f82011682018060405250810190610e189190612f48565b9050610e248787610c6e565b84610ec0828473ffffffffffffffffffffffffffffffffffffffff166370a082318b6040518263ffffffff1660e01b8152600401610e629190613cb3565b60206040518083038186803b158015610e7a57600080fd5b505afa158015610e8e573d6000803e3d6000fd5b505050506040513d601f19601f82011682018060405250810190610eb29190612f48565b611a6e90919063ffffffff16565b1015610f01576040517f08c379a0000000000000000000000000000000000000000000000000000000008152600401610ef890613dfc565b60405180910390fd5b50505050505050565b606080606083806020019051810190610f239190612d71565b9250925092509193909250565b6060815167ffffffffffffffff81118015610f4a57600080fd5b50604051908082528060200260200182016040528015610f795781602001602082028036833780820191505090505b50905060005b82518110156110aa576000838281518110610f9657fe5b602002602001015190508073ffffffffffffffffffffffffffffffffffffffff166370a08231306040518263ffffffff1660e01b8152600401610fd99190613cb3565b60206040518083038186803b158015610ff157600080fd5b505afa158015611005573d6000803e3d6000fd5b505050506040513d601f19601f820116820180604052508101906110299190612f48565b83838151811061103557fe5b602002602001018181525050600083838151811061104f57fe5b6020026020010151111561109c5761109b8584848151811061106d57fe5b60200260200101518373ffffffffffffffffffffffffffffffffffffffff16611abe9092919063ffffffff16565b5b508080600101915050610f7f565b5092915050565b6000806000806000806060878060200190518101906110d09190612f71565b9650965096509650965096509650919395979092949650565b60006002808111156110f757fe5b83600281111561110357fe5b1415611158576060611114836114d4565b905060608160008151811061112557fe5b60200260200101516020015190508060018251038151811061114357fe5b602002602001015160000151925050506111e5565b6001600281111561116557fe5b83600281111561117157fe5b14156111a85760606111828361169a565b90508060018251038151811061119457fe5b6020026020010151600001519150506111e4565b600060028111156111b557fe5b8360028111156111c157fe5b14156111e3576111cf6121b7565b6111d883611860565b905080600001519150505b5b5b92915050565b60606111f78383611b44565b1561120457829050611211565b61120e8383611bbb565b90505b92915050565b606080600084511415611229576114cd565b6000600190506000600190505b85518110156112d8576000805b828110156112bb5787818151811061125757fe5b602002602001015173ffffffffffffffffffffffffffffffffffffffff1688848151811061128157fe5b602002602001015173ffffffffffffffffffffffffffffffffffffffff1614156112ae57600191506112bb565b8080600101915050611243565b50806112ca5782806001019350505b508080600101915050611236565b508067ffffffffffffffff811180156112f057600080fd5b5060405190808252806020026020018201604052801561131f5781602001602082028036833780820191505090505b5092508067ffffffffffffffff8111801561133957600080fd5b506040519080825280602002602001820160405280156113685781602001602082028036833780820191505090505b5091506000805b86518110156114c9576000805b838110156114265786818151811061139057fe5b602002602001015173ffffffffffffffffffffffffffffffffffffffff168984815181106113ba57fe5b602002602001015173ffffffffffffffffffffffffffffffffffffffff16141561141957600191508783815181106113ee57fe5b602002602001015186828151811061140257fe5b602002602001018181510191508181525050611426565b808060010191505061137c565b50806114bb5787828151811061143857fe5b602002602001015186848151811061144c57fe5b602002602001019073ffffffffffffffffffffffffffffffffffffffff16908173ffffffffffffffffffffffffffffffffffffffff168152505086828151811061149257fe5b60200260200101518584815181106114a657fe5b60200260200101818152505082806001019350505b50808060010191505061136f565b5050505b9250929050565b6060818060200190518101906114ea9190612e5c565b9050919050565b611503876114fd610580565b88611ccc565b61150b6121fc565b6040518061016001604052808973ffffffffffffffffffffffffffffffffffffffff1681526020018881526020018781526020018681526020018573ffffffffffffffffffffffffffffffffffffffff1681526020018381526020017f000000000000000000000000000000000000000000000000000000000000000073ffffffffffffffffffffffffffffffffffffffff1681526020017f00000000000000000000000000000000000000000000000000000000000000008152602001604051806020016040528060008152508152602001428152602001846fffffffffffffffffffffffffffffffff19168152509050611605610667565b73ffffffffffffffffffffffffffffffffffffffff166346c67b6d826040518263ffffffff1660e01b815260040161163d9190613edc565b602060405180830381600087803b15801561165757600080fd5b505af115801561166b573d6000803e3d6000fd5b505050506040513d601f19601f8201168201806040525081019061168f9190612f48565b505050505050505050565b6060818060200190518101906116b09190612e9d565b9050919050565b6116c9876116c3610580565b88611ccc565b6116d16122ab565b6040518061016001604052808973ffffffffffffffffffffffffffffffffffffffff1681526020018881526020018781526020018681526020018573ffffffffffffffffffffffffffffffffffffffff1681526020018381526020017f000000000000000000000000000000000000000000000000000000000000000073ffffffffffffffffffffffffffffffffffffffff1681526020017f00000000000000000000000000000000000000000000000000000000000000008152602001604051806020016040528060008152508152602001428152602001846fffffffffffffffffffffffffffffffff191681525090506117cb610667565b73ffffffffffffffffffffffffffffffffffffffff1663a94e78ef826040518263ffffffff1660e01b81526004016118039190613efe565b602060405180830381600087803b15801561181d57600080fd5b505af1158015611831573d6000803e3d6000fd5b505050506040513d601f19601f820116820180604052508101906118559190612f48565b505050505050505050565b6118686121b7565b8180602001905181019061187c9190612f07565b9050919050565b6118958761188f610580565b88611ccc565b61189d61235a565b604051806101e001604052808973ffffffffffffffffffffffffffffffffffffffff168152602001856000015173ffffffffffffffffffffffffffffffffffffffff168152602001888152602001878152602001868152602001856020015181526020018560400151815260200185606001518152602001856080015181526020018473ffffffffffffffffffffffffffffffffffffffff1681526020017f000000000000000000000000000000000000000000000000000000000000000073ffffffffffffffffffffffffffffffffffffffff1681526020017f00000000000000000000000000000000000000000000000000000000000000008152602001604051806020016040528060008152508152602001428152602001836fffffffffffffffffffffffffffffffff191681525090506119d9610667565b73ffffffffffffffffffffffffffffffffffffffff166354e3f31b826040518263ffffffff1660e01b8152600401611a119190613f20565b602060405180830381600087803b158015611a2b57600080fd5b505af1158015611a3f573d6000803e3d6000fd5b505050506040513d601f19601f82011682018060405250810190611a639190612f48565b505050505050505050565b600082821115611ab3576040517f08c379a0000000000000000000000000000000000000000000000000000000008152600401611aaa90613e1c565b60405180910390fd5b818303905092915050565b611b3f8363a9059cbb60e01b8484604051602401611add929190613d27565b604051602081830303815290604052907bffffffffffffffffffffffffffffffffffffffffffffffffffffffff19166020820180517bffffffffffffffffffffffffffffffffffffffffffffffffffffffff8381831617835250505050611deb565b505050565b6000805b8351811015611baf57838181518110611b5d57fe5b602002602001015173ffffffffffffffffffffffffffffffffffffffff168373ffffffffffffffffffffffffffffffffffffffff161415611ba2576001915050611bb5565b8080600101915050611b48565b50600090505b92915050565b6060600183510167ffffffffffffffff81118015611bd857600080fd5b50604051908082528060200260200182016040528015611c075781602001602082028036833780820191505090505b50905060005b8351811015611c7d57838181518110611c2257fe5b6020026020010151828281518110611c3657fe5b602002602001019073ffffffffffffffffffffffffffffffffffffffff16908173ffffffffffffffffffffffffffffffffffffffff16815250508080600101915050611c0d565b508181845181518110611c8c57fe5b602002602001019073ffffffffffffffffffffffffffffffffffffffff16908173ffffffffffffffffffffffffffffffffffffffff168152505092915050565b60008373ffffffffffffffffffffffffffffffffffffffff1663dd62ed3e30856040518363ffffffff1660e01b8152600401611d09929190613cce565b60206040518083038186803b158015611d2157600080fd5b505afa158015611d35573d6000803e3d6000fd5b505050506040513d601f19601f82011682018060405250810190611d599190612f48565b905081811015611de5576000811115611d9957611d988360008673ffffffffffffffffffffffffffffffffffffffff16611eb29092919063ffffffff16565b5b611de4837fffffffffffffffffffffffffffffffffffffffffffffffffffffffffffffffff8673ffffffffffffffffffffffffffffffffffffffff16611eb29092919063ffffffff16565b5b50505050565b6060611e4d826040518060400160405280602081526020017f5361666545524332303a206c6f772d6c6576656c2063616c6c206661696c65648152508573ffffffffffffffffffffffffffffffffffffffff166120109092919063ffffffff16565b9050600081511115611ead5780806020019051810190611e6d9190612ede565b611eac576040517f08c379a0000000000000000000000000000000000000000000000000000000008152600401611ea390613e7c565b60405180910390fd5b5b505050565b6000811480611f4b575060008373ffffffffffffffffffffffffffffffffffffffff1663dd62ed3e30856040518363ffffffff1660e01b8152600401611ef9929190613cce565b60206040518083038186803b158015611f1157600080fd5b505afa158015611f25573d6000803e3d6000fd5b505050506040513d601f19601f82011682018060405250810190611f499190612f48565b145b611f8a576040517f08c379a0000000000000000000000000000000000000000000000000000000008152600401611f8190613e9c565b60405180910390fd5b61200b8363095ea7b360e01b8484604051602401611fa9929190613d27565b604051602081830303815290604052907bffffffffffffffffffffffffffffffffffffffffffffffffffffffff19166020820180517bffffffffffffffffffffffffffffffffffffffffffffffffffffffff8381831617835250505050611deb565b505050565b606061201f8484600085612028565b90509392505050565b60608247101561206d576040517f08c379a000000000000000000000000000000000000000000000000000000000815260040161206490613e3c565b60405180910390fd5b6120768561213d565b6120b5576040517f08c379a00000000000000000000000000000000000000000000000000000000081526004016120ac90613e5c565b60405180910390fd5b600060608673ffffffffffffffffffffffffffffffffffffffff1685876040516120df9190613c9c565b60006040518083038185875af1925050503d806000811461211c576040519150601f19603f3d011682016040523d82523d6000602084013e612121565b606091505b5091509150612131828286612150565b92505050949350505050565b600080823b905060008111915050919050565b60608315612160578290506121b0565b6000835111156121735782518084602001fd5b816040517f08c379a00000000000000000000000000000000000000000000000000000000081526004016121a79190613dda565b60405180910390fd5b9392505050565b6040518060a00160405280600073ffffffffffffffffffffffffffffffffffffffff168152602001606081526020016060815260200160608152602001606081525090565b604051806101600160405280600073ffffffffffffffffffffffffffffffffffffffff168152602001600081526020016000815260200160008152602001600073ffffffffffffffffffffffffffffffffffffffff16815260200160608152602001600073ffffffffffffffffffffffffffffffffffffffff16815260200160008152602001606081526020016000815260200160006fffffffffffffffffffffffffffffffff191681525090565b604051806101600160405280600073ffffffffffffffffffffffffffffffffffffffff168152602001600081526020016000815260200160008152602001600073ffffffffffffffffffffffffffffffffffffffff16815260200160608152602001600073ffffffffffffffffffffffffffffffffffffffff16815260200160008152602001606081526020016000815260200160006fffffffffffffffffffffffffffffffff191681525090565b604051806101e00160405280600073ffffffffffffffffffffffffffffffffffffffff168152602001600073ffffffffffffffffffffffffffffffffffffffff16815260200160008152602001600081526020016000815260200160608152602001606081526020016060815260200160608152602001600073ffffffffffffffffffffffffffffffffffffffff168152602001600073ffffffffffffffffffffffffffffffffffffffff16815260200160008152602001606081526020016000815260200160006fffffffffffffffffffffffffffffffff191681525090565b60008135905061244a816143e6565b92915050565b60008151905061245f816143e6565b92915050565b600081519050612474816143fd565b92915050565b600082601f83011261248b57600080fd5b815161249e61249982613f9f565b613f72565b915081818352602084019350602081019050838560208402820111156124c357600080fd5b60005b838110156124f357816124d98882612450565b8452602084019350602083019250506001810190506124c6565b5050505092915050565b600082601f83011261250e57600080fd5b813561252161251c82613fc7565b613f72565b9150818183526020840193506020810190508360005b83811015612567578135860161254d8882612862565b845260208401935060208301925050600181019050612537565b5050505092915050565b600082601f83011261258257600080fd5b815161259561259082613fef565b613f72565b9150818183526020840193506020810190508360005b838110156125db57815186016125c1888261291f565b8452602084019350602083019250506001810190506125ab565b5050505092915050565b600082601f8301126125f657600080fd5b815161260961260482614017565b613f72565b9150818183526020840193506020810190508360005b8381101561264f578151860161263588826129ab565b84526020840193506020830192505060018101905061261f565b5050505092915050565b600082601f83011261266a57600080fd5b815161267d6126788261403f565b613f72565b9150818183526020840193506020810190508360005b838110156126c357815186016126a98882612a0f565b845260208401935060208301925050600181019050612693565b5050505092915050565b600082601f8301126126de57600080fd5b81516126f16126ec82614067565b613f72565b9150818183526020840193506020810190508360005b83811015612737578151860161271d8882612a87565b845260208401935060208301925050600181019050612707565b5050505092915050565b600082601f83011261275257600080fd5b81516127656127608261408f565b613f72565b9150818183526020840193506020810190508385602084028201111561278a57600080fd5b60005b838110156127ba57816127a08882612c0f565b84526020840193506020830192505060018101905061278d565b5050505092915050565b6000813590506127d381614414565b92915050565b6000815190506127e881614414565b92915050565b6000815190506127fd8161442b565b92915050565b60008135905061281281614442565b92915050565b60008083601f84011261282a57600080fd5b8235905067ffffffffffffffff81111561284357600080fd5b60208301915083600182028301111561285b57600080fd5b9250929050565b600082601f83011261287357600080fd5b8135612886612881826140b7565b613f72565b915080825260208301602083018583830111156128a257600080fd5b6128ad838284614386565b50505092915050565b600082601f8301126128c757600080fd5b81516128da6128d5826140b7565b613f72565b915080825260208301602083018583830111156128f657600080fd5b612901838284614395565b50505092915050565b60008151905061291981614459565b92915050565b60006080828403121561293157600080fd5b61293b6080613f72565b9050600061294b84828501612465565b600083015250602061295f84828501612c0f565b602083015250604061297384828501612c0f565b604083015250606082015167ffffffffffffffff81111561299357600080fd5b61299f848285016126cd565b60608301525092915050565b6000604082840312156129bd57600080fd5b6129c76040613f72565b905060006129d784828501612c0f565b600083015250602082015167ffffffffffffffff8111156129f757600080fd5b612a0384828501612659565b60208301525092915050565b600060608284031215612a2157600080fd5b612a2b6060613f72565b90506000612a3b84828501612450565b6000830152506020612a4f84828501612c0f565b602083015250604082015167ffffffffffffffff811115612a6f57600080fd5b612a7b84828501612571565b60408301525092915050565b600060a08284031215612a9957600080fd5b612aa360a0613f72565b90506000612ab384828501612c0f565b6000830152506020612ac784828501612450565b6020830152506040612adb84828501612c0f565b604083015250606082015167ffffffffffffffff811115612afb57600080fd5b612b07848285016128b6565b6060830152506080612b1b84828501612c0f565b60808301525092915050565b600060a08284031215612b3957600080fd5b612b4360a0613f72565b90506000612b5384828501612450565b600083015250602082015167ffffffffffffffff811115612b7357600080fd5b612b7f8482850161247a565b602083015250604082015167ffffffffffffffff811115612b9f57600080fd5b612bab848285016128b6565b604083015250606082015167ffffffffffffffff811115612bcb57600080fd5b612bd784828501612741565b606083015250608082015167ffffffffffffffff811115612bf757600080fd5b612c0384828501612741565b60808301525092915050565b600081519050612c1e81614469565b92915050565b60008060008060608587031215612c3a57600080fd5b6000612c488782880161243b565b9450506020612c5987828801612803565b935050604085013567ffffffffffffffff811115612c7657600080fd5b612c8287828801612818565b925092505092959194509250565b600080600060408486031215612ca557600080fd5b6000612cb38682870161243b565b935050602084013567ffffffffffffffff811115612cd057600080fd5b612cdc86828701612818565b92509250509250925092565b600080600080600060608688031215612d0057600080fd5b6000612d0e8882890161243b565b955050602086013567ffffffffffffffff811115612d2b57600080fd5b612d3788828901612818565b9450945050604086013567ffffffffffffffff811115612d5657600080fd5b612d6288828901612818565b92509250509295509295909350565b600080600060608486031215612d8657600080fd5b600084015167ffffffffffffffff811115612da057600080fd5b612dac8682870161247a565b935050602084015167ffffffffffffffff811115612dc957600080fd5b612dd586828701612741565b925050604084015167ffffffffffffffff811115612df257600080fd5b612dfe8682870161247a565b9150509250925092565b60008060408385031215612e1b57600080fd5b600083013567ffffffffffffffff811115612e3557600080fd5b612e41858286016124fd565b9250506020612e52858286016127c4565b9150509250929050565b600060208284031215612e6e57600080fd5b600082015167ffffffffffffffff811115612e8857600080fd5b612e94848285016125e5565b91505092915050565b600060208284031215612eaf57600080fd5b600082015167ffffffffffffffff811115612ec957600080fd5b612ed584828501612659565b91505092915050565b600060208284031215612ef057600080fd5b6000612efe848285016127d9565b91505092915050565b600060208284031215612f1957600080fd5b600082015167ffffffffffffffff811115612f3357600080fd5b612f3f84828501612b27565b91505092915050565b600060208284031215612f5a57600080fd5b6000612f6884828501612c0f565b91505092915050565b600080600080600080600060e0888a031215612f8c57600080fd5b6000612f9a8a828b01612c0f565b9750506020612fab8a828b01612c0f565b9650506040612fbc8a828b01612465565b9550506060612fcd8a828b01612c0f565b9450506080612fde8a828b016127ee565b93505060a0612fef8a828b0161290a565b92505060c088015167ffffffffffffffff81111561300c57600080fd5b6130188a828b016128b6565b91505092959891949750929550565b600061303383836130b6565b60208301905092915050565b600061304b83836137cd565b905092915050565b600061305f8383613830565b905092915050565b60006130738383613963565b905092915050565b600061308783836139b3565b905092915050565b600061309b8383613c7e565b60208301905092915050565b6130b0816142c1565b82525050565b6130bf816142af565b82525050565b6130ce816142af565b82525050565b60006130df82614143565b6130e981856141e9565b93506130f4836140e3565b8060005b8381101561312557815161310c8882613027565b97506131178361419b565b9250506001810190506130f8565b5085935050505092915050565b600061313d82614143565b61314781856141fa565b9350613152836140e3565b8060005b8381101561318357815161316a8882613027565b97506131758361419b565b925050600181019050613156565b5085935050505092915050565b600061319b8261414e565b6131a5818561420b565b9350836020820285016131b7856140f3565b8060005b858110156131f357848403895281516131d4858261303f565b94506131df836141a8565b925060208a019950506001810190506131bb565b50829750879550505050505092915050565b600061321082614159565b61321a818561421c565b93508360208202850161322c85614103565b8060005b8581101561326857848403895281516132498582613053565b9450613254836141b5565b925060208a01995050600181019050613230565b50829750879550505050505092915050565b600061328582614164565b61328f818561422d565b9350836020820285016132a185614113565b8060005b858110156132dd57848403895281516132be8582613067565b94506132c9836141c2565b925060208a019950506001810190506132a5565b50829750879550505050505092915050565b60006132fa8261416f565b613304818561423e565b93508360208202850161331685614123565b8060005b858110156133525784840389528151613333858261307b565b945061333e836141cf565b925060208a0199505060018101905061331a565b50829750879550505050505092915050565b600061336f8261417a565b613379818561424f565b935061338483614133565b8060005b838110156133b557815161339c888261308f565b97506133a7836141dc565b925050600181019050613388565b5085935050505092915050565b60006133cd8261417a565b6133d78185614260565b93506133e283614133565b8060005b838110156134135781516133fa888261308f565b9750613405836141dc565b9250506001810190506133e6565b5085935050505092915050565b613429816142df565b82525050565b6134388161430b565b82525050565b600061344982614185565b6134538185614271565b9350613463818560208601614395565b61346c816143c8565b840191505092915050565b600061348282614185565b61348c8185614282565b935061349c818560208601614395565b6134a5816143c8565b840191505092915050565b60006134bb82614185565b6134c58185614293565b93506134d5818560208601614395565b80840191505092915050565b6134ea81614374565b82525050565b60006134fb82614190565b613505818561429e565b9350613515818560208601614395565b61351e816143c8565b840191505092915050565b6000613536604a8361429e565b91507f5f5f74616b654f72646572416e6456616c6964617465496e636f6d696e673a2060008301527f526563656976656420696e636f6d696e67206173736574206c6573732074686160208301527f6e206578706563746564000000000000000000000000000000000000000000006040830152606082019050919050565b60006135c2601e8361429e565b91507f536166654d6174683a207375627472616374696f6e206f766572666c6f7700006000830152602082019050919050565b600061360260268361429e565b91507f416464726573733a20696e73756666696369656e742062616c616e636520666f60008301527f722063616c6c00000000000000000000000000000000000000000000000000006020830152604082019050919050565b6000613668601d8361429e565b91507f416464726573733a2063616c6c20746f206e6f6e2d636f6e74726163740000006000830152602082019050919050565b60006136a8602a8361429e565b91507f5361666545524332303a204552433230206f7065726174696f6e20646964206e60008301527f6f742073756363656564000000000000000000000000000000000000000000006020830152604082019050919050565b600061370e60368361429e565b91507f5361666545524332303a20617070726f76652066726f6d206e6f6e2d7a65726f60008301527f20746f206e6f6e2d7a65726f20616c6c6f77616e6365000000000000000000006020830152604082019050919050565b600061377460278361429e565b91507f7061727365417373657473466f72416374696f6e3a205f73656c6563746f722060008301527f696e76616c6964000000000000000000000000000000000000000000000000006020830152604082019050919050565b60006080830160008301516137e560008601826130a7565b5060208301516137f86020860182613c7e565b50604083015161380b6040860182613c7e565b506060830151848203606086015261382382826132ef565b9150508091505092915050565b60006040830160008301516138486000860182613c7e565b5060208301518482036020860152613860828261327a565b9150508091505092915050565b60006101608301600083015161388660008601826130b6565b5060208301516138996020860182613c7e565b5060408301516138ac6040860182613c7e565b5060608301516138bf6060860182613c7e565b5060808301516138d260808601826130a7565b5060a083015184820360a08601526138ea8282613205565b91505060c08301516138ff60c08601826130a7565b5060e083015161391260e0860182613c7e565b5061010083015184820361010086015261392c828261343e565b915050610120830151613943610120860182613c7e565b50610140830151613958610140860182613420565b508091505092915050565b600060608301600083015161397b60008601826130b6565b50602083015161398e6020860182613c7e565b50604083015184820360408601526139a68282613190565b9150508091505092915050565b600060a0830160008301516139cb6000860182613c7e565b5060208301516139de60208601826130b6565b5060408301516139f16040860182613c7e565b5060608301518482036060860152613a09828261343e565b9150506080830151613a1e6080860182613c7e565b508091505092915050565b600061016083016000830151613a4260008601826130b6565b506020830151613a556020860182613c7e565b506040830151613a686040860182613c7e565b506060830151613a7b6060860182613c7e565b506080830151613a8e60808601826130a7565b5060a083015184820360a0860152613aa6828261327a565b91505060c0830151613abb60c08601826130a7565b5060e0830151613ace60e0860182613c7e565b50610100830151848203610100860152613ae8828261343e565b915050610120830151613aff610120860182613c7e565b50610140830151613b14610140860182613420565b508091505092915050565b60006101e083016000830151613b3860008601826130b6565b506020830151613b4b60208601826130b6565b506040830151613b5e6040860182613c7e565b506060830151613b716060860182613c7e565b506080830151613b846080860182613c7e565b5060a083015184820360a0860152613b9c82826130d4565b91505060c083015184820360c0860152613bb6828261343e565b91505060e083015184820360e0860152613bd08282613364565b915050610100830151848203610100860152613bec8282613364565b915050610120830151613c036101208601826130a7565b50610140830151613c186101408601826130a7565b50610160830151613c2d610160860182613c7e565b50610180830151848203610180860152613c47828261343e565b9150506101a0830151613c5e6101a0860182613c7e565b506101c0830151613c736101c0860182613420565b508091505092915050565b613c878161436a565b82525050565b613c968161436a565b82525050565b6000613ca882846134b0565b915081905092915050565b6000602082019050613cc860008301846130c5565b92915050565b6000604082019050613ce360008301856130c5565b613cf060208301846130c5565b9392505050565b6000604082019050613d0c60008301856130c5565b8181036020830152613d1e8184613477565b90509392505050565b6000604082019050613d3c60008301856130c5565b613d496020830184613c8d565b9392505050565b6000602082019050613d65600083018461342f565b92915050565b600060a082019050613d8060008301886134e1565b8181036020830152613d928187613132565b90508181036040830152613da681866133c2565b90508181036060830152613dba8185613132565b90508181036080830152613dce81846133c2565b90509695505050505050565b60006020820190508181036000830152613df481846134f0565b905092915050565b60006020820190508181036000830152613e1581613529565b9050919050565b60006020820190508181036000830152613e35816135b5565b9050919050565b60006020820190508181036000830152613e55816135f5565b9050919050565b60006020820190508181036000830152613e758161365b565b9050919050565b60006020820190508181036000830152613e958161369b565b9050919050565b60006020820190508181036000830152613eb581613701565b9050919050565b60006020820190508181036000830152613ed581613767565b9050919050565b60006020820190508181036000830152613ef6818461386d565b905092915050565b60006020820190508181036000830152613f188184613a29565b905092915050565b60006020820190508181036000830152613f3a8184613b1f565b905092915050565b6000604082019050613f576000830185613c8d565b8181036020830152613f698184613477565b90509392505050565b6000604051905081810181811067ffffffffffffffff82111715613f9557600080fd5b8060405250919050565b600067ffffffffffffffff821115613fb657600080fd5b602082029050602081019050919050565b600067ffffffffffffffff821115613fde57600080fd5b602082029050602081019050919050565b600067ffffffffffffffff82111561400657600080fd5b602082029050602081019050919050565b600067ffffffffffffffff82111561402e57600080fd5b602082029050602081019050919050565b600067ffffffffffffffff82111561405657600080fd5b602082029050602081019050919050565b600067ffffffffffffffff82111561407e57600080fd5b602082029050602081019050919050565b600067ffffffffffffffff8211156140a657600080fd5b602082029050602081019050919050565b600067ffffffffffffffff8211156140ce57600080fd5b601f19601f8301169050602081019050919050565b6000819050602082019050919050565b6000819050602082019050919050565b6000819050602082019050919050565b6000819050602082019050919050565b6000819050602082019050919050565b6000819050602082019050919050565b600081519050919050565b600081519050919050565b600081519050919050565b600081519050919050565b600081519050919050565b600081519050919050565b600081519050919050565b600081519050919050565b6000602082019050919050565b6000602082019050919050565b6000602082019050919050565b6000602082019050919050565b6000602082019050919050565b6000602082019050919050565b600082825260208201905092915050565b600082825260208201905092915050565b600082825260208201905092915050565b600082825260208201905092915050565b600082825260208201905092915050565b600082825260208201905092915050565b600082825260208201905092915050565b600082825260208201905092915050565b600082825260208201905092915050565b600082825260208201905092915050565b600081905092915050565b600082825260208201905092915050565b60006142ba8261434a565b9050919050565b60006142cc8261434a565b9050919050565b60008115159050919050565b60007fffffffffffffffffffffffffffffffff0000000000000000000000000000000082169050919050565b60007fffffffff0000000000000000000000000000000000000000000000000000000082169050919050565b6000819050614345826143d9565b919050565b600073ffffffffffffffffffffffffffffffffffffffff82169050919050565b6000819050919050565b600061437f82614337565b9050919050565b82818337600083830152505050565b60005b838110156143b3578082015181840152602081019050614398565b838111156143c2576000848401525b50505050565b6000601f19601f8301169050919050565b600381106143e357fe5b50565b6143ef816142af565b81146143fa57600080fd5b50565b614406816142c1565b811461441157600080fd5b50565b61441d816142d3565b811461442857600080fd5b50565b614434816142df565b811461443f57600080fd5b50565b61444b8161430b565b811461445657600080fd5b50565b6003811061446657600080fd5b50565b6144728161436a565b811461447d57600080fd5b5056fea164736f6c634300060c000a","linkReferences":{}},"methodIdentifiers":{"CLAIM_REWARDS_SELECTOR()":"40da225d","LEND_AND_STAKE_SELECTOR()":"131461c0","LEND_SELECTOR()":"257cb1a3","REDEEM_SELECTOR()":"f7d882b5","STAKE_SELECTOR()":"3ffc1591","TAKE_MULTIPLE_ORDERS_SELECTOR()":"c32990a2","TAKE_ORDER_SELECTOR()":"863e5ad0","UNSTAKE_AND_REDEEM_SELECTOR()":"080456c1","UNSTAKE_SELECTOR()":"b23228cf","getIntegrationManager()":"e7c45690","getParaSwapV5AugustusSwapper()":"91bc27dc","getParaSwapV5TokenTransferProxy()":"2c428679","parseAssetsForAction(address,bytes4,bytes)":"c54efee5","takeMultipleOrders(address,bytes,bytes)":"0e7f692d","takeOrder(address,bytes,bytes)":"03e38a2b","takeOrderAndValidateIncoming(address,bytes)":"2d979b8c"},"id":217}