{"abi":[{"type":"constructor","inputs":[{"name":"_fundDeployer","type":"address","internalType":"address"}],"stateMutability":"nonpayable"},{"type":"function","name":"activateForFund","inputs":[],"outputs":[],"stateMutability":"nonpayable"},{"type":"function","name":"deactivateForFund","inputs":[],"outputs":[],"stateMutability":"nonpayable"},{"type":"function","name":"disablePolicyForFund","inputs":[{"name":"_comptrollerProxy","type":"address","internalType":"address"},{"name":"_policy","type":"address","internalType":"address"}],"outputs":[],"stateMutability":"nonpayable"},{"type":"function","name":"enablePolicyForFund","inputs":[{"name":"_comptrollerProxy","type":"address","internalType":"address"},{"name":"_policy","type":"address","internalType":"address"},{"name":"_settingsData","type":"bytes","internalType":"bytes"}],"outputs":[],"stateMutability":"nonpayable"},{"type":"function","name":"getEnabledPoliciesForFund","inputs":[{"name":"_comptrollerProxy","type":"address","internalType":"address"}],"outputs":[{"name":"enabledPolicies_","type":"address[]","internalType":"address[]"}],"stateMutability":"view"},{"type":"function","name":"getEnabledPoliciesOnHookForFund","inputs":[{"name":"_comptrollerProxy","type":"address","internalType":"address"},{"name":"_hook","type":"uint8","internalType":"enum IPolicyManager.PolicyHook"}],"outputs":[{"name":"enabledPolicies_","type":"address[]","internalType":"address[]"}],"stateMutability":"view"},{"type":"function","name":"getFundDeployer","inputs":[],"outputs":[{"name":"fundDeployer_","type":"address","internalType":"address"}],"stateMutability":"view"},{"type":"function","name":"getOwner","inputs":[],"outputs":[{"name":"owner_","type":"address","internalType":"address"}],"stateMutability":"view"},{"type":"function","name":"getVaultProxyForFund","inputs":[{"name":"_comptrollerProxy","type":"address","internalType":"address"}],"outputs":[{"name":"vaultProxy_","type":"address","internalType":"address"}],"stateMutability":"view"},{"type":"function","name":"policyIsEnabledOnHookForFund","inputs":[{"name":"_comptrollerProxy","type":"address","internalType":"address"},{"name":"_hook","type":"uint8","internalType":"enum IPolicyManager.PolicyHook"},{"name":"_policy","type":"address","internalType":"address"}],"outputs":[{"name":"isEnabled_","type":"bool","internalType":"bool"}],"stateMutability":"view"},{"type":"function","name":"receiveCallFromComptroller","inputs":[{"name":"","type":"address","internalType":"address"},{"name":"","type":"uint256","internalType":"uint256"},{"name":"","type":"bytes","internalType":"bytes"}],"outputs":[],"stateMutability":"nonpayable"},{"type":"function","name":"setConfigForFund","inputs":[{"name":"_configData","type":"bytes","internalType":"bytes"}],"outputs":[],"stateMutability":"nonpayable"},{"type":"function","name":"updatePolicySettingsForFund","inputs":[{"name":"_comptrollerProxy","type":"address","internalType":"address"},{"name":"_policy","type":"address","internalType":"address"},{"name":"_settingsData","type":"bytes","internalType":"bytes"}],"outputs":[],"stateMutability":"nonpayable"},{"type":"function","name":"validatePolicies","inputs":[{"name":"_comptrollerProxy","type":"address","internalType":"address"},{"name":"_hook","type":"uint8","internalType":"enum IPolicyManager.PolicyHook"},{"name":"_validationData","type":"bytes","internalType":"bytes"}],"outputs":[],"stateMutability":"nonpayable"},{"type":"event","name":"PolicyDisabledOnHookForFund","inputs":[{"name":"comptrollerProxy","type":"address","indexed":true,"internalType":"address"},{"name":"policy","type":"address","indexed":true,"internalType":"address"},{"name":"hook","type":"uint8","indexed":true,"internalType":"enum IPolicyManager.PolicyHook"}],"anonymous":false},{"type":"event","name":"PolicyEnabledForFund","inputs":[{"name":"comptrollerProxy","type":"address","indexed":true,"internalType":"address"},{"name":"policy","type":"address","indexed":true,"internalType":"address"},{"name":"settingsData","type":"bytes","indexed":false,"internalType":"bytes"}],"anonymous":false},{"type":"event","name":"ValidatedVaultProxySetForFund","inputs":[{"name":"comptrollerProxy","type":"address","indexed":true,"internalType":"address"},{"name":"vaultProxy","type":"address","indexed":true,"internalType":"address"}],"anonymous":false}],"bytecode":{"object":"0x60a06040523480156200001157600080fd5b50604051620021e8380380620021e8833981016040819052620000349162000080565b6001600160a01b0316608052620000ad565b60006001600160a01b0382165b92915050565b620000648162000046565b81146200007057600080fd5b50565b8051620000538162000059565b600060208284031215620000975762000097600080fd5b6000620000a5848462000073565b949350505050565b608051612111620000d76000396000818161020a01528181610a72015261111001526121116000f3fe608060405234801561001057600080fd5b50600436106100ea5760003560e01c80634ed28b3f1161008c5780638aa740b4116100665780638aa740b4146101d55780638af6d89e146101f557806397c0ac8714610208578063bd8e959a1461010257600080fd5b80634ed28b3f146101a7578063893d20e8146101ba57806389cbe1d0146101c257600080fd5b8063248a2aab116100c8578063248a2aab1461011f57806345d582e714610148578063467903461461015b57806348f352091461019457600080fd5b80630442bad5146100ef5780631bee801e1461010457806321725d0114610117575b600080fd5b6101026100fd3660046114d0565b61022e565b005b61010261011236600461154f565b610461565b610102610479565b61013261012d366004611585565b6104cd565b60405161013f91906115df565b60405180910390f35b6101026101563660046115ed565b6104eb565b61018761016936600461162a565b6001600160a01b039081166000908152602081905260409020541690565b60405161013f9190611654565b6101026101a2366004611662565b610795565b6101026101b5366004611662565b610958565b610187610a6e565b6101026101d0366004611698565b610af7565b6101e86101e33660046116e0565b610c1e565b60405161013f9190611770565b6101e861020336600461162a565b610ccc565b7f0000000000000000000000000000000000000000000000000000000000000000610187565b600061023a8585610c1e565b9050805160000361024b575061045b565b336001600160a01b03861614806102ca5750604051631f08fda960e31b81526001600160a01b0386169063f847ed4890610289903390600401611654565b602060405180830381865afa1580156102a6573d6000803e3d6000fd5b505050506040513d601f19601f820116820180604052508101906102ca919061179b565b6102ef5760405162461bcd60e51b81526004016102e690611800565b60405180910390fd5b60005b81518110156104585781818151811061030d5761030d611810565b60200260200101516001600160a01b031663579be718878787876040518563ffffffff1660e01b815260040161034694939291906118a4565b6020604051808303816000875af1158015610365573d6000803e3d6000fd5b505050506040513d601f19601f82011682018060405250810190610389919061179b565b82828151811061039b5761039b611810565b60200260200101516001600160a01b0316637998a1c46040518163ffffffff1660e01b8152600401600060405180830381865afa1580156103e0573d6000803e3d6000fd5b505050506040513d6000823e601f3d908101601f1916820160405261040891908101906119ea565b6040516020016104189190611a47565b604051602081830303815290604052906104455760405162461bcd60e51b81526004016102e69190611aa7565b508061045081611ace565b9150506102f2565b50505b50505050565b60405162461bcd60e51b81526004016102e690611b42565b33600061048582610ccc565b905060005b81518110156104c8576104b6838383815181106104a9576104a9611810565b6020026020010151610d2b565b806104c081611ace565b91505061048a565b505050565b60006104e3826104dd8686610c1e565b90610d85565b949350505050565b6001600160a01b038083166000908152602081905260409020548391166001600160a01b031663893d20e86040518163ffffffff1660e01b8152600401602060405180830381865afa158015610545573d6000803e3d6000fd5b505050506040513d601f19601f820116820180604052508101906105699190611b5d565b6001600160a01b0316336001600160a01b0316146105995760405162461bcd60e51b81526004016102e690611bc5565b816001600160a01b0316631ef925786040518163ffffffff1660e01b8152600401602060405180830381865afa1580156105d7573d6000803e3d6000fd5b505050506040513d601f19601f820116820180604052508101906105fb919061179b565b6106175760405162461bcd60e51b81526004016102e690611c22565b6000826001600160a01b031663cbf54bb26040518163ffffffff1660e01b8152600401600060405180830381865afa158015610657573d6000803e3d6000fd5b505050506040513d6000823e601f3d908101601f1916820160405261067f9190810190611ce0565b905060005b815181101561078e576001600160a01b0385166000908152600160205260408120835161070791879184908790879081106106c1576106c1611810565b602002602001015160098111156106da576106da611826565b60098111156106eb576106eb611826565b8152602001908152602001600020610dea90919063ffffffff16565b9050801561077b5782828151811061072157610721611810565b6020026020010151600981111561073a5761073a611826565b856001600160a01b0316876001600160a01b03167f672fd0d75642b1e8875f32a1c3f8197c03288c7215329c9a99336feafb801c0260405160405180910390a45b508061078681611ace565b915050610684565b5050505050565b6001600160a01b038085166000908152602081905260409020548591166001600160a01b031663893d20e86040518163ffffffff1660e01b8152600401602060405180830381865afa1580156107ef573d6000803e3d6000fd5b505050506040513d601f19601f820116820180604052508101906108139190611b5d565b6001600160a01b0316336001600160a01b0316146108435760405162461bcd60e51b81526004016102e690611bc5565b6000846001600160a01b031663cbf54bb26040518163ffffffff1660e01b8152600401600060405180830381865afa158015610883573d6000803e3d6000fd5b505050506040513d6000823e601f3d908101601f191682016040526108ab9190810190611ce0565b905060005b815181101561090a576108db8282815181106108ce576108ce611810565b6020026020010151610f11565b156108f85760405162461bcd60e51b81526004016102e690611d84565b8061090281611ace565b9150506108b0565b5061094e868686868080601f016020809104026020016040519081016040528093929190818152602001838380828437600092019190915250879250610f49915050565b6104588686610d2b565b6001600160a01b038085166000908152602081905260409020548591166001600160a01b031663893d20e86040518163ffffffff1660e01b8152600401602060405180830381865afa1580156109b2573d6000803e3d6000fd5b505050506040513d601f19601f820116820180604052508101906109d69190611b5d565b6001600160a01b0316336001600160a01b031614610a065760405162461bcd60e51b81526004016102e690611bc5565b60405162d4d75160e41b81526001600160a01b03851690630d4d751090610a3590889087908790600401611d94565b600060405180830381600087803b158015610a4f57600080fd5b505af1158015610a63573d6000803e3d6000fd5b505050505050505050565b60007f00000000000000000000000000000000000000000000000000000000000000006001600160a01b031663893d20e86040518163ffffffff1660e01b8152600401602060405180830381865afa158015610ace573d6000803e3d6000fd5b505050506040513d601f19601f82011682018060405250810190610af29190611b5d565b905090565b33610b01816110f6565b506000829003610b1057505050565b600080610b1f84860186611f1d565b915091508051825114610b445760405162461bcd60e51b81526004016102e690611fe9565b60005b825181101561045857610c0c84848381518110610b6657610b66611810565b6020026020010151848481518110610b8057610b80611810565b6020026020010151868581518110610b9a57610b9a611810565b60200260200101516001600160a01b031663cbf54bb26040518163ffffffff1660e01b8152600401600060405180830381865afa158015610bdf573d6000803e3d6000fd5b505050506040513d6000823e601f3d908101601f19168201604052610c079190810190611ce0565b610f49565b80610c1681611ace565b915050610b47565b6001600160a01b0382166000908152600160205260408120606091836009811115610c4b57610c4b611826565b6009811115610c5c57610c5c611826565b8152602001908152602001600020805480602002602001604051908101604052809291908181526020018280548015610cbe57602002820191906000526020600020905b81546001600160a01b03168152600190910190602001808311610ca0575b505050505090505b92915050565b60606000610cd8611206565b905060005b600a811015610d2457610d10610d09858484600a8110610cff57610cff611810565b6020020151610c1e565b8490611263565b925080610d1c81611ace565b915050610cdd565b5050919050565b60405163ceb9a0ad60e01b81526001600160a01b0382169063ceb9a0ad90610d57908590600401611654565b600060405180830381600087803b158015610d7157600080fd5b505af1158015610458573d6000803e3d6000fd5b6000805b8351811015610de057838181518110610da457610da4611810565b60200260200101516001600160a01b0316836001600160a01b031603610dce576001915050610cc6565b80610dd881611ace565b915050610d89565b5060009392505050565b8154600090815b81811015610f0957836001600160a01b0316858281548110610e1557610e15611810565b6000918252602090912001546001600160a01b031603610ef757610e3a600183611ff9565b811015610ebc5784610e4d600184611ff9565b81548110610e5d57610e5d611810565b9060005260206000200160009054906101000a90046001600160a01b0316858281548110610e8d57610e8d611810565b9060005260206000200160006101000a8154816001600160a01b0302191690836001600160a01b031602179055505b84805480610ecc57610ecc61200c565b600082815260209020810160001990810180546001600160a01b031916905501905560019250610f09565b80610f0181611ace565b915050610df1565b505092915050565b60006002826009811115610f2757610f27611826565b1480610cc657506003826009811115610f4257610f42611826565b1492915050565b815115610fb157604051630f5f6b4f60e01b81526001600160a01b03841690630f5f6b4f90610f7e9087908690600401612022565b600060405180830381600087803b158015610f9857600080fd5b505af1158015610fac573d6000803e3d6000fd5b505050505b60005b81518110156110a457610fe185838381518110610fd357610fd3611810565b6020026020010151866104cd565b15610ffe5760405162461bcd60e51b81526004016102e69061208f565b6001600160a01b0385166000908152600160205260408120835190919084908490811061102d5761102d611810565b6020026020010151600981111561104657611046611826565b600981111561105757611057611826565b8152602080820192909252604001600090812080546001810182559082529190200180546001600160a01b0319166001600160a01b0386161790558061109c81611ace565b915050610fb4565b50826001600160a01b0316846001600160a01b03167faa4df4fe117c520783cfff01c11283496ff2999c77c2a9b800808251a9a0332a846040516110e89190611aa7565b60405180910390a350505050565b604051631054b35560e21b81526000906001600160a01b037f00000000000000000000000000000000000000000000000000000000000000001690634152cd5490611145908590600401611654565b602060405180830381865afa158015611162573d6000803e3d6000fd5b505050506040513d601f19601f820116820180604052508101906111869190611b5d565b90506001600160a01b0381166111ae5760405162461bcd60e51b81526004016102e6906120ee565b6001600160a01b0382811660008181526020819052604080822080546001600160a01b0319169486169485179055517f8852dcaa71340ea616a65ffac013450dfb238607481fb9d78346c667fe256c139190a3919050565b61120e611414565b6040805161014081019091528060008152602001600181526020016002815260200160038152602001600481526020016005815260200160068152602001600781526020016008815260200160099052919050565b60606000805b83518110156112b9576112958585838151811061128857611288611810565b6020026020010151610d85565b6112a757816112a381611ace565b9250505b806112b181611ace565b915050611269565b50806000036112cb5783915050610cc6565b8084516112d891906120fe565b67ffffffffffffffff8111156112f0576112f06118dc565b604051908082528060200260200182016040528015611319578160200160208202803683370190505b50915060005b845181101561137e5784818151811061133a5761133a611810565b602002602001015183828151811061135457611354611810565b6001600160a01b03909216602092830291909101909101528061137681611ace565b91505061131f565b50835160005b845181101561140b576113a38686838151811061128857611288611810565b6113f9578481815181106113b9576113b9611810565b60200260200101518483815181106113d3576113d3611810565b6001600160a01b0390921660209283029190910190910152816113f581611ace565b9250505b8061140381611ace565b915050611384565b50505092915050565b604051806101400160405280600a906020820280368337509192915050565b60006001600160a01b038216610cc6565b61144d81611433565b811461145857600080fd5b50565b8035610cc681611444565b600a811061145857600080fd5b8035610cc681611466565b60008083601f84011261149357611493600080fd5b50813567ffffffffffffffff8111156114ae576114ae600080fd5b6020830191508360018202830111156114c9576114c9600080fd5b9250929050565b600080600080606085870312156114e9576114e9600080fd5b60006114f5878761145b565b945050602061150687828801611473565b935050604085013567ffffffffffffffff81111561152657611526600080fd5b6115328782880161147e565b95989497509550505050565b8061144d565b8035610cc68161153e565b6000806000806060858703121561156857611568600080fd5b6000611574878761145b565b945050602061150687828801611544565b60008060006060848603121561159d5761159d600080fd5b60006115a9868661145b565b93505060206115ba86828701611473565b92505060406115cb8682870161145b565b9150509250925092565b8015155b82525050565b60208101610cc682846115d5565b6000806040838503121561160357611603600080fd5b600061160f858561145b565b92505060206116208582860161145b565b9150509250929050565b60006020828403121561163f5761163f600080fd5b60006104e3848461145b565b6115d981611433565b60208101610cc6828461164b565b6000806000806060858703121561167b5761167b600080fd5b6000611687878761145b565b94505060206115068782880161145b565b600080602083850312156116ae576116ae600080fd5b823567ffffffffffffffff8111156116c8576116c8600080fd5b6116d48582860161147e565b92509250509250929050565b600080604083850312156116f6576116f6600080fd5b6000611702858561145b565b925050602061162085828601611473565b600061171f838361164b565b505060200190565b6000611731825190565b80845260209384019383018060005b838110156117655781516117548882611713565b975060208301925050600101611740565b509495945050505050565b602080825281016117818184611727565b9392505050565b80151561144d565b8051610cc681611788565b6000602082840312156117b0576117b0600080fd5b60006104e38484611790565b602481526000602082017f76616c6964617465506f6c69636965733a2043616c6c6572206e6f7420616c6c8152631bddd95960e21b602082015291505b5060400190565b60208082528101610cc6816117bc565b634e487b7160e01b600052603260045260246000fd5b634e487b7160e01b600052602160045260246000fd5b600a811061145857611458611826565b806118568161183c565b919050565b6000610cc68261184c565b6115d98161185b565b82818337506000910152565b818352600060208401935061189183858461186f565b601f19601f8401165b9093019392505050565b606081016118b2828761164b565b6118bf6020830186611866565b81810360408301526118d281848661187b565b9695505050505050565b634e487b7160e01b600052604160045260246000fd5b601f19601f830116810181811067ffffffffffffffff82111715611918576119186118dc565b6040525050565b600061192a60405190565b905061185682826118f2565b600067ffffffffffffffff821115611950576119506118dc565b601f19601f83011660200192915050565b60005b8381101561197c578181015183820152602001611964565b50506000910152565b600061199861199384611936565b61191f565b9050828152602081018484840111156119b3576119b3600080fd5b6119be848285611961565b509392505050565b600082601f8301126119da576119da600080fd5b81516104e3848260208601611985565b6000602082840312156119ff576119ff600080fd5b815167ffffffffffffffff811115611a1957611a19600080fd5b6104e3848285016119c6565b6000611a2f825190565b611a3d818560208601611961565b9290920192915050565b7f52756c65206576616c756174656420746f2066616c73653a2000000000000000815260190160006117818284611a25565b6000611a83825190565b808452602084019350611a9a818560208601611961565b601f19601f82011661189a565b602080825281016117818184611a79565b634e487b7160e01b600052601160045260246000fd5b60006000198203611ae157611ae1611ab8565b5060010190565b603781526000602082017f7265636569766543616c6c46726f6d436f6d7074726f6c6c65723a20556e696d81527f706c656d656e74656420666f7220457874656e73696f6e000000000000000000602082015291506117f9565b60208082528101610cc681611ae8565b8051610cc681611444565b600060208284031215611b7257611b72600080fd5b60006104e38484611b52565b602a81526000602082017f4f6e6c79207468652066756e64206f776e65722063616e2063616c6c207468698152693990333ab731ba34b7b760b11b602082015291506117f9565b60208082528101610cc681611b7e565b603081526000602082017f64697361626c65506f6c696379466f7246756e643a205f706f6c69637920636181526f1b9b9bdd08189948191a5cd8589b195960821b602082015291506117f9565b60208082528101610cc681611bd5565b600067ffffffffffffffff821115611c4c57611c4c6118dc565b5060209081020190565b8051610cc681611466565b6000611c6f61199384611c32565b83815290506020808201908402830185811115611c8e57611c8e600080fd5b835b81811015611cb25780611ca38882611c56565b84525060209283019201611c90565b5050509392505050565b600082601f830112611cd057611cd0600080fd5b81516104e3848260208601611c61565b600060208284031215611cf557611cf5600080fd5b815167ffffffffffffffff811115611d0f57611d0f600080fd5b6104e384828501611cbc565b604381526000602082017f656e61626c65506f6c696379466f7246756e643a205f706f6c6963792072657381527f74726963747320616374696f6e73206f662063757272656e7420696e766573746020820152626f727360e81b604082015291505b5060600190565b60208082528101610cc681611d1b565b60408101611da2828661164b565b8181036020830152611db581848661187b565b95945050505050565b6000611dcc61199384611c32565b83815290506020808201908402830185811115611deb57611deb600080fd5b835b81811015611cb25780611e00888261145b565b84525060209283019201611ded565b600082601f830112611e2357611e23600080fd5b81356104e3848260208601611dbe565b6000611e4161199384611936565b905082815260208101848484011115611e5c57611e5c600080fd5b6119be84828561186f565b600082601f830112611e7b57611e7b600080fd5b81356104e3848260208601611e33565b6000611e9961199384611c32565b83815290506020808201908402830185811115611eb857611eb8600080fd5b835b81811015611cb257803567ffffffffffffffff811115611edc57611edc600080fd5b808601611ee98982611e67565b8552505060209283019201611eba565b600082601f830112611f0d57611f0d600080fd5b81356104e3848260208601611e8b565b60008060408385031215611f3357611f33600080fd5b823567ffffffffffffffff811115611f4d57611f4d600080fd5b611f5985828601611e0f565b925050602083013567ffffffffffffffff811115611f7957611f79600080fd5b61162085828601611ef9565b604181526000602082017f736574436f6e666967466f7246756e643a20706f6c696369657320616e64207381527f657474696e677344617461206172726179206c656e6774687320756e657175616020820152601b60fa1b60408201529150611d7d565b60208082528101610cc681611f85565b81810381811115610cc657610cc6611ab8565b634e487b7160e01b600052603160045260246000fd5b60408101612030828561164b565b81810360208301526104e38184611a79565b603081526000602082017f5f5f656e61626c65506f6c696379466f7246756e643a20506f6c69637920697381526f08185b1c9958591e48195b98589b195960821b602082015291506117f9565b60208082528101610cc681612042565b603281526000602082017f5f5f73657456616c6964617465645661756c7450726f78793a20496e76616c698152716420436f6d7074726f6c6c657250726f787960701b602082015291506117f9565b60208082528101610cc68161209f565b80820180821115610cc657610cc6611ab856","linkReferences":{}},"methodIdentifiers":{"activateForFund()":"21725d01","deactivateForFund()":"bd8e959a","disablePolicyForFund(address,address)":"45d582e7","enablePolicyForFund(address,address,bytes)":"48f35209","getEnabledPoliciesForFund(address)":"8af6d89e","getEnabledPoliciesOnHookForFund(address,uint8)":"8aa740b4","getFundDeployer()":"97c0ac87","getOwner()":"893d20e8","getVaultProxyForFund(address)":"46790346","policyIsEnabledOnHookForFund(address,uint8,address)":"248a2aab","receiveCallFromComptroller(address,uint256,bytes)":"1bee801e","setConfigForFund(bytes)":"89cbe1d0","updatePolicySettingsForFund(address,address,bytes)":"4ed28b3f","validatePolicies(address,uint8,bytes)":"0442bad5"},"id":179}