{"abi":[{"type":"constructor","inputs":[{"name":"_fundDeployer","type":"address","internalType":"address"}],"stateMutability":"nonpayable"},{"type":"function","name":"activateForFund","inputs":[],"outputs":[],"stateMutability":"nonpayable"},{"type":"function","name":"deactivateForFund","inputs":[],"outputs":[],"stateMutability":"nonpayable"},{"type":"function","name":"disablePolicyForFund","inputs":[{"name":"_comptrollerProxy","type":"address","internalType":"address"},{"name":"_policy","type":"address","internalType":"address"}],"outputs":[],"stateMutability":"nonpayable"},{"type":"function","name":"enablePolicyForFund","inputs":[{"name":"_comptrollerProxy","type":"address","internalType":"address"},{"name":"_policy","type":"address","internalType":"address"},{"name":"_settingsData","type":"bytes","internalType":"bytes"}],"outputs":[],"stateMutability":"nonpayable"},{"type":"function","name":"getEnabledPoliciesForFund","inputs":[{"name":"_comptrollerProxy","type":"address","internalType":"address"}],"outputs":[{"name":"enabledPolicies_","type":"address[]","internalType":"address[]"}],"stateMutability":"view"},{"type":"function","name":"getEnabledPoliciesOnHookForFund","inputs":[{"name":"_comptrollerProxy","type":"address","internalType":"address"},{"name":"_hook","type":"uint8","internalType":"enum IPolicyManager.PolicyHook"}],"outputs":[{"name":"enabledPolicies_","type":"address[]","internalType":"address[]"}],"stateMutability":"view"},{"type":"function","name":"getFundDeployer","inputs":[],"outputs":[{"name":"fundDeployer_","type":"address","internalType":"address"}],"stateMutability":"view"},{"type":"function","name":"getOwner","inputs":[],"outputs":[{"name":"owner_","type":"address","internalType":"address"}],"stateMutability":"view"},{"type":"function","name":"getVaultProxyForFund","inputs":[{"name":"_comptrollerProxy","type":"address","internalType":"address"}],"outputs":[{"name":"vaultProxy_","type":"address","internalType":"address"}],"stateMutability":"view"},{"type":"function","name":"policyIsEnabledOnHookForFund","inputs":[{"name":"_comptrollerProxy","type":"address","internalType":"address"},{"name":"_hook","type":"uint8","internalType":"enum IPolicyManager.PolicyHook"},{"name":"_policy","type":"address","internalType":"address"}],"outputs":[{"name":"isEnabled_","type":"bool","internalType":"bool"}],"stateMutability":"view"},{"type":"function","name":"receiveCallFromComptroller","inputs":[{"name":"","type":"address","internalType":"address"},{"name":"","type":"uint256","internalType":"uint256"},{"name":"","type":"bytes","internalType":"bytes"}],"outputs":[],"stateMutability":"nonpayable"},{"type":"function","name":"setConfigForFund","inputs":[{"name":"_configData","type":"bytes","internalType":"bytes"}],"outputs":[],"stateMutability":"nonpayable"},{"type":"function","name":"updatePolicySettingsForFund","inputs":[{"name":"_comptrollerProxy","type":"address","internalType":"address"},{"name":"_policy","type":"address","internalType":"address"},{"name":"_settingsData","type":"bytes","internalType":"bytes"}],"outputs":[],"stateMutability":"nonpayable"},{"type":"function","name":"validatePolicies","inputs":[{"name":"_comptrollerProxy","type":"address","internalType":"address"},{"name":"_hook","type":"uint8","internalType":"enum IPolicyManager.PolicyHook"},{"name":"_validationData","type":"bytes","internalType":"bytes"}],"outputs":[],"stateMutability":"nonpayable"},{"type":"event","name":"PolicyDisabledOnHookForFund","inputs":[{"name":"comptrollerProxy","type":"address","indexed":true,"internalType":"address"},{"name":"policy","type":"address","indexed":true,"internalType":"address"},{"name":"hook","type":"uint8","indexed":true,"internalType":"enum IPolicyManager.PolicyHook"}],"anonymous":false},{"type":"event","name":"PolicyEnabledForFund","inputs":[{"name":"comptrollerProxy","type":"address","indexed":true,"internalType":"address"},{"name":"policy","type":"address","indexed":true,"internalType":"address"},{"name":"settingsData","type":"bytes","indexed":false,"internalType":"bytes"}],"anonymous":false},{"type":"event","name":"ValidatedVaultProxySetForFund","inputs":[{"name":"comptrollerProxy","type":"address","indexed":true,"internalType":"address"},{"name":"vaultProxy","type":"address","indexed":true,"internalType":"address"}],"anonymous":false}],"bytecode":{"object":"0x60a060405234801561001057600080fd5b50604051611f67380380611f6783398101604081905261002f91610040565b6001600160a01b0316608052610070565b60006020828403121561005257600080fd5b81516001600160a01b038116811461006957600080fd5b9392505050565b608051611ece6100996000396000818161021401528181610bb001526112de0152611ece6000f3fe608060405234801561001057600080fd5b50600436106100ea5760003560e01c80634ed28b3f1161008c5780638aa740b4116100665780638aa740b4146101df5780638af6d89e146101ff57806397c0ac8714610212578063bd8e959a1461010257600080fd5b80634ed28b3f146101b1578063893d20e8146101c457806389cbe1d0146101cc57600080fd5b8063248a2aab116100c8578063248a2aab1461011f57806345d582e714610147578063467903461461015a57806348f352091461019e57600080fd5b80630442bad5146100ef5780631bee801e1461010457806321725d0114610117575b600080fd5b6101026100fd3660046116cf565b610238565b005b610102610112366004611734565b61049e565b61010261050c565b61013261012d366004611778565b610560565b60405190151581526020015b60405180910390f35b6101026101553660046117c3565b61057e565b6101866101683660046117fc565b6001600160a01b039081166000908152602081905260409020541690565b6040516001600160a01b03909116815260200161013e565b6101026101ac366004611820565b610871565b6101026101bf366004611820565b610a96565b610186610bac565b6101026101da366004611851565b610c35565b6101f26101ed366004611893565b610dbc565b60405161013e91906118c1565b6101f261020d3660046117fc565b610e6a565b7f0000000000000000000000000000000000000000000000000000000000000000610186565b60006102448585610dbc565b905080516000036102555750610498565b336001600160a01b03861614806102cf5750604051631f08fda960e31b81523360048201526001600160a01b0386169063f847ed4890602401602060405180830381865afa1580156102ab573d6000803e3d6000fd5b505050506040513d601f19601f820116820180604052508101906102cf919061190e565b61032c5760405162461bcd60e51b8152602060048201526024808201527f76616c6964617465506f6c69636965733a2043616c6c6572206e6f7420616c6c6044820152631bddd95960e21b60648201526084015b60405180910390fd5b60005b81518110156104955781818151811061034a5761034a611930565b60200260200101516001600160a01b031663579be718878787876040518563ffffffff1660e01b81526004016103839493929190611985565b6020604051808303816000875af11580156103a2573d6000803e3d6000fd5b505050506040513d601f19601f820116820180604052508101906103c6919061190e565b8282815181106103d8576103d8611930565b60200260200101516001600160a01b0316637998a1c46040518163ffffffff1660e01b8152600401600060405180830381865afa15801561041d573d6000803e3d6000fd5b505050506040513d6000823e601f3d908101601f191682016040526104459190810190611a69565b6040516020016104559190611ae5565b604051602081830303815290604052906104825760405162461bcd60e51b81526004016103239190611b56565b508061048d81611b7f565b91505061032f565b50505b50505050565b60405162461bcd60e51b815260206004820152603760248201527f7265636569766543616c6c46726f6d436f6d7074726f6c6c65723a20556e696d60448201527f706c656d656e74656420666f7220457874656e73696f6e0000000000000000006064820152608401610323565b33600061051882610e6a565b905060005b815181101561055b576105498383838151811061053c5761053c611930565b6020026020010151610ec9565b8061055381611b7f565b91505061051d565b505050565b6000610576826105708686610dbc565b90610f20565b949350505050565b6001600160a01b038083166000908152602081905260409020548391166001600160a01b031663893d20e86040518163ffffffff1660e01b8152600401602060405180830381865afa1580156105d8573d6000803e3d6000fd5b505050506040513d601f19601f820116820180604052508101906105fc9190611b98565b6001600160a01b0316336001600160a01b03161461062c5760405162461bcd60e51b815260040161032390611bb5565b816001600160a01b0316631ef925786040518163ffffffff1660e01b8152600401602060405180830381865afa15801561066a573d6000803e3d6000fd5b505050506040513d601f19601f8201168201806040525081019061068e919061190e565b6106f35760405162461bcd60e51b815260206004820152603060248201527f64697361626c65506f6c696379466f7246756e643a205f706f6c69637920636160448201526f1b9b9bdd08189948191a5cd8589b195960821b6064820152608401610323565b6000826001600160a01b031663cbf54bb26040518163ffffffff1660e01b8152600401600060405180830381865afa158015610733573d6000803e3d6000fd5b505050506040513d6000823e601f3d908101601f1916820160405261075b9190810190611c23565b905060005b815181101561086a576001600160a01b038516600090815260016020526040812083516107e3918791849087908790811061079d5761079d611930565b602002602001015160098111156107b6576107b6611946565b60098111156107c7576107c7611946565b8152602001908152602001600020610f8590919063ffffffff16565b90508015610857578282815181106107fd576107fd611930565b6020026020010151600981111561081657610816611946565b856001600160a01b0316876001600160a01b03167f672fd0d75642b1e8875f32a1c3f8197c03288c7215329c9a99336feafb801c0260405160405180910390a45b508061086281611b7f565b915050610760565b5050505050565b6001600160a01b038085166000908152602081905260409020548591166001600160a01b031663893d20e86040518163ffffffff1660e01b8152600401602060405180830381865afa1580156108cb573d6000803e3d6000fd5b505050506040513d601f19601f820116820180604052508101906108ef9190611b98565b6001600160a01b0316336001600160a01b03161461091f5760405162461bcd60e51b815260040161032390611bb5565b6000846001600160a01b031663cbf54bb26040518163ffffffff1660e01b8152600401600060405180830381865afa15801561095f573d6000803e3d6000fd5b505050506040513d6000823e601f3d908101601f191682016040526109879190810190611c23565b905060005b8151811015610a48576109b78282815181106109aa576109aa611930565b60200260200101516110ac565b15610a365760405162461bcd60e51b815260206004820152604360248201527f656e61626c65506f6c696379466f7246756e643a205f706f6c6963792072657360448201527f74726963747320616374696f6e73206f662063757272656e7420696e766573746064820152626f727360e81b608482015260a401610323565b80610a4081611b7f565b91505061098c565b50610a8c868686868080601f0160208091040260200160405190810160405280939291908181526020018383808284376000920191909152508792506110e4915050565b6104958686610ec9565b6001600160a01b038085166000908152602081905260409020548591166001600160a01b031663893d20e86040518163ffffffff1660e01b8152600401602060405180830381865afa158015610af0573d6000803e3d6000fd5b505050506040513d601f19601f82011682018060405250810190610b149190611b98565b6001600160a01b0316336001600160a01b031614610b445760405162461bcd60e51b815260040161032390611bb5565b60405162d4d75160e41b81526001600160a01b03851690630d4d751090610b7390889087908790600401611cbd565b600060405180830381600087803b158015610b8d57600080fd5b505af1158015610ba1573d6000803e3d6000fd5b505050505050505050565b60007f00000000000000000000000000000000000000000000000000000000000000006001600160a01b031663893d20e86040518163ffffffff1660e01b8152600401602060405180830381865afa158015610c0c573d6000803e3d6000fd5b505050506040513d601f19601f82011682018060405250810190610c309190611b98565b905090565b33610c3f816112da565b506000829003610c4e57505050565b600080610c5d84860186611dac565b915091508051825114610ce25760405162461bcd60e51b815260206004820152604160248201527f736574436f6e666967466f7246756e643a20706f6c696369657320616e64207360448201527f657474696e677344617461206172726179206c656e6774687320756e657175616064820152601b60fa1b608482015260a401610323565b60005b825181101561049557610daa84848381518110610d0457610d04611930565b6020026020010151848481518110610d1e57610d1e611930565b6020026020010151868581518110610d3857610d38611930565b60200260200101516001600160a01b031663cbf54bb26040518163ffffffff1660e01b8152600401600060405180830381865afa158015610d7d573d6000803e3d6000fd5b505050506040513d6000823e601f3d908101601f19168201604052610da59190810190611c23565b6110e4565b80610db481611b7f565b915050610ce5565b6001600160a01b0382166000908152600160205260408120606091836009811115610de957610de9611946565b6009811115610dfa57610dfa611946565b8152602001908152602001600020805480602002602001604051908101604052809291908181526020018280548015610e5c57602002820191906000526020600020905b81546001600160a01b03168152600190910190602001808311610e3e575b505050505090505b92915050565b60606000610e76611434565b905060005b600a811015610ec257610eae610ea7858484600a8110610e9d57610e9d611930565b6020020151610dbc565b8490611491565b925080610eba81611b7f565b915050610e7b565b5050919050565b60405163ceb9a0ad60e01b81526001600160a01b03838116600483015282169063ceb9a0ad90602401600060405180830381600087803b158015610f0c57600080fd5b505af1158015610495573d6000803e3d6000fd5b6000805b8351811015610f7b57838181518110610f3f57610f3f611930565b60200260200101516001600160a01b0316836001600160a01b031603610f69576001915050610e64565b80610f7381611b7f565b915050610f24565b5060009392505050565b8154600090815b818110156110a457836001600160a01b0316858281548110610fb057610fb0611930565b6000918252602090912001546001600160a01b03160361109257610fd5600183611e6e565b8110156110575784610fe8600184611e6e565b81548110610ff857610ff8611930565b9060005260206000200160009054906101000a90046001600160a01b031685828154811061102857611028611930565b9060005260206000200160006101000a8154816001600160a01b0302191690836001600160a01b031602179055505b8480548061106757611067611e81565b600082815260209020810160001990810180546001600160a01b0319169055019055600192506110a4565b8061109c81611b7f565b915050610f8c565b505092915050565b600060028260098111156110c2576110c2611946565b1480610e64575060038260098111156110dd576110dd611946565b1492915050565b81511561114c57604051630f5f6b4f60e01b81526001600160a01b03841690630f5f6b4f906111199087908690600401611e97565b600060405180830381600087803b15801561113357600080fd5b505af1158015611147573d6000803e3d6000fd5b505050505b60005b81518110156112885761117c8583838151811061116e5761116e611930565b602002602001015186610560565b156111e25760405162461bcd60e51b815260206004820152603060248201527f5f5f656e61626c65506f6c696379466f7246756e643a20506f6c69637920697360448201526f08185b1c9958591e48195b98589b195960821b6064820152608401610323565b6001600160a01b0385166000908152600160205260408120835190919084908490811061121157611211611930565b6020026020010151600981111561122a5761122a611946565b600981111561123b5761123b611946565b8152602080820192909252604001600090812080546001810182559082529190200180546001600160a01b0319166001600160a01b0386161790558061128081611b7f565b91505061114f565b50826001600160a01b0316846001600160a01b03167faa4df4fe117c520783cfff01c11283496ff2999c77c2a9b800808251a9a0332a846040516112cc9190611b56565b60405180910390a350505050565b60007f0000000000000000000000000000000000000000000000000000000000000000604051631054b35560e21b81526001600160a01b0384811660048301529190911690634152cd5490602401602060405180830381865afa158015611345573d6000803e3d6000fd5b505050506040513d601f19601f820116820180604052508101906113699190611b98565b90506001600160a01b0381166113dc5760405162461bcd60e51b815260206004820152603260248201527f5f5f73657456616c6964617465645661756c7450726f78793a20496e76616c696044820152716420436f6d7074726f6c6c657250726f787960701b6064820152608401610323565b6001600160a01b0382811660008181526020819052604080822080546001600160a01b0319169486169485179055517f8852dcaa71340ea616a65ffac013450dfb238607481fb9d78346c667fe256c139190a3919050565b61143c611642565b6040805161014081019091528060008152602001600181526020016002815260200160038152602001600481526020016005815260200160068152602001600781526020016008815260200160099052919050565b60606000805b83518110156114e7576114c3858583815181106114b6576114b6611930565b6020026020010151610f20565b6114d557816114d181611b7f565b9250505b806114df81611b7f565b915050611497565b50806000036114f95783915050610e64565b8084516115069190611ebb565b67ffffffffffffffff81111561151e5761151e6119d6565b604051908082528060200260200182016040528015611547578160200160208202803683370190505b50915060005b84518110156115ac5784818151811061156857611568611930565b602002602001015183828151811061158257611582611930565b6001600160a01b0390921660209283029190910190910152806115a481611b7f565b91505061154d565b50835160005b8451811015611639576115d1868683815181106114b6576114b6611930565b611627578481815181106115e7576115e7611930565b602002602001015184838151811061160157611601611930565b6001600160a01b03909216602092830291909101909101528161162381611b7f565b9250505b8061163181611b7f565b9150506115b2565b50505092915050565b604051806101400160405280600a906020820280368337509192915050565b6001600160a01b038116811461167657600080fd5b50565b600a811061167657600080fd5b60008083601f84011261169857600080fd5b50813567ffffffffffffffff8111156116b057600080fd5b6020830191508360208285010111156116c857600080fd5b9250929050565b600080600080606085870312156116e557600080fd5b84356116f081611661565b9350602085013561170081611679565b9250604085013567ffffffffffffffff81111561171c57600080fd5b61172887828801611686565b95989497509550505050565b6000806000806060858703121561174a57600080fd5b843561175581611661565b935060208501359250604085013567ffffffffffffffff81111561171c57600080fd5b60008060006060848603121561178d57600080fd5b833561179881611661565b925060208401356117a881611679565b915060408401356117b881611661565b809150509250925092565b600080604083850312156117d657600080fd5b82356117e181611661565b915060208301356117f181611661565b809150509250929050565b60006020828403121561180e57600080fd5b813561181981611661565b9392505050565b6000806000806060858703121561183657600080fd5b843561184181611661565b9350602085013561170081611661565b6000806020838503121561186457600080fd5b823567ffffffffffffffff81111561187b57600080fd5b61188785828601611686565b90969095509350505050565b600080604083850312156118a657600080fd5b82356118b181611661565b915060208301356117f181611679565b6020808252825182820181905260009190848201906040850190845b818110156119025783516001600160a01b0316835292840192918401916001016118dd565b50909695505050505050565b60006020828403121561192057600080fd5b8151801515811461181957600080fd5b634e487b7160e01b600052603260045260246000fd5b634e487b7160e01b600052602160045260246000fd5b81835281816020850137506000828201602090810191909152601f909101601f19169091010190565b6001600160a01b03851681526000600a85106119b157634e487b7160e01b600052602160045260246000fd5b846020830152606060408301526119cc60608301848661195c565b9695505050505050565b634e487b7160e01b600052604160045260246000fd5b604051601f8201601f1916810167ffffffffffffffff81118282101715611a1557611a156119d6565b604052919050565b600067ffffffffffffffff821115611a3757611a376119d6565b50601f01601f191660200190565b60005b83811015611a60578181015183820152602001611a48565b50506000910152565b600060208284031215611a7b57600080fd5b815167ffffffffffffffff811115611a9257600080fd5b8201601f81018413611aa357600080fd5b8051611ab6611ab182611a1d565b6119ec565b818152856020838501011115611acb57600080fd5b611adc826020830160208601611a45565b95945050505050565b7f52756c65206576616c756174656420746f2066616c73653a2000000000000000815260008251611b1d816019850160208701611a45565b9190910160190192915050565b60008151808452611b42816020860160208601611a45565b601f01601f19169290920160200192915050565b6020815260006118196020830184611b2a565b634e487b7160e01b600052601160045260246000fd5b600060018201611b9157611b91611b69565b5060010190565b600060208284031215611baa57600080fd5b815161181981611661565b6020808252602a908201527f4f6e6c79207468652066756e64206f776e65722063616e2063616c6c207468696040820152693990333ab731ba34b7b760b11b606082015260800190565b600067ffffffffffffffff821115611c1957611c196119d6565b5060051b60200190565b60006020808385031215611c3657600080fd5b825167ffffffffffffffff811115611c4d57600080fd5b8301601f81018513611c5e57600080fd5b8051611c6c611ab182611bff565b81815260059190911b82018301908381019087831115611c8b57600080fd5b928401925b82841015611cb2578351611ca381611679565b82529284019290840190611c90565b979650505050505050565b6001600160a01b0384168152604060208201819052600090611adc908301848661195c565b600082601f830112611cf357600080fd5b81356020611d03611ab183611bff565b82815260059290921b84018101918181019086841115611d2257600080fd5b8286015b84811015611da157803567ffffffffffffffff811115611d465760008081fd5b8701603f81018913611d585760008081fd5b848101356040611d6a611ab183611a1d565b8281528b82848601011115611d7f5760008081fd5b8282850189830137600092810188019290925250845250918301918301611d26565b509695505050505050565b60008060408385031215611dbf57600080fd5b823567ffffffffffffffff80821115611dd757600080fd5b818501915085601f830112611deb57600080fd5b81356020611dfb611ab183611bff565b82815260059290921b84018101918181019089841115611e1a57600080fd5b948201945b83861015611e41578535611e3281611661565b82529482019490820190611e1f565b96505086013592505080821115611e5757600080fd5b50611e6485828601611ce2565b9150509250929050565b81810381811115610e6457610e64611b69565b634e487b7160e01b600052603160045260246000fd5b6001600160a01b038316815260406020820181905260009061057690830184611b2a565b80820180821115610e6457610e64611b6956","linkReferences":{}},"methodIdentifiers":{"activateForFund()":"21725d01","deactivateForFund()":"bd8e959a","disablePolicyForFund(address,address)":"45d582e7","enablePolicyForFund(address,address,bytes)":"48f35209","getEnabledPoliciesForFund(address)":"8af6d89e","getEnabledPoliciesOnHookForFund(address,uint8)":"8aa740b4","getFundDeployer()":"97c0ac87","getOwner()":"893d20e8","getVaultProxyForFund(address)":"46790346","policyIsEnabledOnHookForFund(address,uint8,address)":"248a2aab","receiveCallFromComptroller(address,uint256,bytes)":"1bee801e","setConfigForFund(bytes)":"89cbe1d0","updatePolicySettingsForFund(address,address,bytes)":"4ed28b3f","validatePolicies(address,uint8,bytes)":"0442bad5"},"id":156}