{"abi":[{"type":"constructor","inputs":[{"name":"_feeManager","type":"address","internalType":"address"}],"stateMutability":"nonpayable"},{"type":"function","name":"activateForFund","inputs":[{"name":"","type":"address","internalType":"address"},{"name":"","type":"address","internalType":"address"}],"outputs":[],"stateMutability":"nonpayable"},{"type":"function","name":"addFundSettings","inputs":[{"name":"_comptrollerProxy","type":"address","internalType":"address"},{"name":"_settingsData","type":"bytes","internalType":"bytes"}],"outputs":[],"stateMutability":"nonpayable"},{"type":"function","name":"getFeeManager","inputs":[],"outputs":[{"name":"feeManager_","type":"address","internalType":"address"}],"stateMutability":"view"},{"type":"function","name":"getRateForFund","inputs":[{"name":"_comptrollerProxy","type":"address","internalType":"address"}],"outputs":[{"name":"rate_","type":"uint256","internalType":"uint256"}],"stateMutability":"view"},{"type":"function","name":"getRecipientForFund","inputs":[{"name":"","type":"address","internalType":"address"}],"outputs":[{"name":"recipient_","type":"address","internalType":"address"}],"stateMutability":"view"},{"type":"function","name":"getSettlementType","inputs":[],"outputs":[{"name":"settlementType_","type":"uint8","internalType":"enum IFeeManager.SettlementType"}],"stateMutability":"view"},{"type":"function","name":"payout","inputs":[{"name":"","type":"address","internalType":"address"},{"name":"","type":"address","internalType":"address"}],"outputs":[{"name":"","type":"bool","internalType":"bool"}],"stateMutability":"nonpayable"},{"type":"function","name":"settle","inputs":[{"name":"_comptrollerProxy","type":"address","internalType":"address"},{"name":"","type":"address","internalType":"address"},{"name":"","type":"uint8","internalType":"enum IFeeManager.FeeHook"},{"name":"_settlementData","type":"bytes","internalType":"bytes"},{"name":"","type":"uint256","internalType":"uint256"}],"outputs":[{"name":"settlementType_","type":"uint8","internalType":"enum IFeeManager.SettlementType"},{"name":"payer_","type":"address","internalType":"address"},{"name":"sharesDue_","type":"uint256","internalType":"uint256"}],"stateMutability":"nonpayable"},{"type":"function","name":"settlesOnHook","inputs":[{"name":"_hook","type":"uint8","internalType":"enum IFeeManager.FeeHook"}],"outputs":[{"name":"settles_","type":"bool","internalType":"bool"},{"name":"usesGav_","type":"bool","internalType":"bool"}],"stateMutability":"view"},{"type":"function","name":"update","inputs":[{"name":"","type":"address","internalType":"address"},{"name":"","type":"address","internalType":"address"},{"name":"","type":"uint8","internalType":"enum IFeeManager.FeeHook"},{"name":"","type":"bytes","internalType":"bytes"},{"name":"","type":"uint256","internalType":"uint256"}],"outputs":[],"stateMutability":"nonpayable"},{"type":"function","name":"updatesOnHook","inputs":[{"name":"","type":"uint8","internalType":"enum IFeeManager.FeeHook"}],"outputs":[{"name":"updates_","type":"bool","internalType":"bool"},{"name":"usesGav_","type":"bool","internalType":"bool"}],"stateMutability":"view"},{"type":"event","name":"FundSettingsAdded","inputs":[{"name":"comptrollerProxy","type":"address","indexed":true,"internalType":"address"},{"name":"rate","type":"uint256","indexed":false,"internalType":"uint256"}],"anonymous":false},{"type":"event","name":"Settled","inputs":[{"name":"comptrollerProxy","type":"address","indexed":true,"internalType":"address"},{"name":"payer","type":"address","indexed":true,"internalType":"address"},{"name":"sharesQuantity","type":"uint256","indexed":false,"internalType":"uint256"}],"anonymous":false}],"bytecode":{"object":"0x60c060405234801561001057600080fd5b50604051610e84380380610e848339818101604052602081101561003357600080fd5b8101908080519060200190929190505050806003818073ffffffffffffffffffffffffffffffffffffffff1660808173ffffffffffffffffffffffffffffffffffffffff1660601b81525050506003600581111561008d57fe5b81600581111561009957fe5b14806100bb5750600160058111156100ad57fe5b8160058111156100b957fe5b145b610110576040517f08c379a0000000000000000000000000000000000000000000000000000000008152600401808060200182810382526024815260200180610e606024913960400191505060405180910390fd5b80600581111561011c57fe5b60a081600581111561012a57fe5b60f81b8152505050505060805160601c60a05160f81c610cf461016c60003980610a5e5280610a995250806105cd52806108755280610ad85250610cf46000f3fe608060405234801561001057600080fd5b50600436106100a95760003560e01c806341892d7e1161007157806341892d7e1461032357806362780b3c146104365780637bdd5b1d146104a4578063b78b4813146104cd578063e337a91f14610547578063f2d6382614610597576100a9565b80630f5f6b4f146100ae578063233faf5f146101475780633146d05814610217578063320f0ddd1461027b5780633eecc2bf146102cb575b600080fd5b610145600480360360408110156100c457600080fd5b81019080803573ffffffffffffffffffffffffffffffffffffffff1690602001909291908035906020019064010000000081111561010157600080fd5b82018360208201111561011357600080fd5b8035906020019184600183028401116401000000008311171561013557600080fd5b90919293919293905050506105cb565b005b610215600480360360a081101561015d57600080fd5b81019080803573ffffffffffffffffffffffffffffffffffffffff169060200190929190803573ffffffffffffffffffffffffffffffffffffffff169060200190929190803560ff169060200190929190803590602001906401000000008111156101c757600080fd5b8201836020820111156101d957600080fd5b803590602001918460018302840111640100000000831117156101fb57600080fd5b9091929391929390803590602001909291905050506107de565b005b6102796004803603604081101561022d57600080fd5b81019080803573ffffffffffffffffffffffffffffffffffffffff169060200190929190803573ffffffffffffffffffffffffffffffffffffffff1690602001909291905050506107e6565b005b6102aa6004803603602081101561029157600080fd5b81019080803560ff1690602001909291905050506107ea565b60405180831515815260200182151581526020019250505060405180910390f35b61030d600480360360208110156102e157600080fd5b81019080803573ffffffffffffffffffffffffffffffffffffffff169060200190929190505050610826565b6040518082815260200191505060405180910390f35b6103f1600480360360a081101561033957600080fd5b81019080803573ffffffffffffffffffffffffffffffffffffffff169060200190929190803573ffffffffffffffffffffffffffffffffffffffff169060200190929190803560ff169060200190929190803590602001906401000000008111156103a357600080fd5b8201836020820111156103b557600080fd5b803590602001918460018302840111640100000000831117156103d757600080fd5b90919293919293908035906020019092919050505061086e565b6040518084600581111561040157fe5b81526020018373ffffffffffffffffffffffffffffffffffffffff168152602001828152602001935050505060405180910390f35b6104786004803603602081101561044c57600080fd5b81019080803573ffffffffffffffffffffffffffffffffffffffff169060200190929190505050610a8e565b604051808273ffffffffffffffffffffffffffffffffffffffff16815260200191505060405180910390f35b6104ac610a95565b604051808260058111156104bc57fe5b815260200191505060405180910390f35b61052f600480360360408110156104e357600080fd5b81019080803573ffffffffffffffffffffffffffffffffffffffff169060200190929190803573ffffffffffffffffffffffffffffffffffffffff169060200190929190505050610abd565b60405180821515815260200191505060405180910390f35b6105766004803603602081101561055d57600080fd5b81019080803560ff169060200190929190505050610ac5565b60405180831515815260200182151581526020019250505060405180910390f35b61059f610ad4565b604051808273ffffffffffffffffffffffffffffffffffffffff16815260200191505060405180910390f35b7f000000000000000000000000000000000000000000000000000000000000000073ffffffffffffffffffffffffffffffffffffffff163373ffffffffffffffffffffffffffffffffffffffff161461066f576040517f08c379a0000000000000000000000000000000000000000000000000000000008152600401808060200182810382526025815260200180610c586025913960400191505060405180910390fd5b60008282602081101561068157600080fd5b81019080803590602001909291905050509050600081116106ed576040517f08c379a0000000000000000000000000000000000000000000000000000000008152600401808060200182810382526024815260200180610cc46024913960400191505060405180910390fd5b6127108110610747576040517f08c379a0000000000000000000000000000000000000000000000000000000008152600401808060200182810382526026815260200180610c9e6026913960400191505060405180910390fd5b806000808673ffffffffffffffffffffffffffffffffffffffff1673ffffffffffffffffffffffffffffffffffffffff168152602001908152602001600020819055508373ffffffffffffffffffffffffffffffffffffffff167f90b7d1516011c1da1279f3ae0ed052b1416e7c373d4ec40cf515aa53c5f839df826040518082815260200191505060405180910390a250505050565b505050505050565b5050565b600080600260038111156107fa57fe5b83600381111561080657fe5b1415610819576001600091509150610821565b600080915091505b915091565b60008060008373ffffffffffffffffffffffffffffffffffffffff1673ffffffffffffffffffffffffffffffffffffffff168152602001908152602001600020549050919050565b60008060007f000000000000000000000000000000000000000000000000000000000000000073ffffffffffffffffffffffffffffffffffffffff163373ffffffffffffffffffffffffffffffffffffffff1614610917576040517f08c379a0000000000000000000000000000000000000000000000000000000008152600401808060200182810382526025815260200180610c586025913960400191505060405180910390fd5b600061096687878080601f016020809104026020016040519081016040528093929190818152602001838380828437600081840152601f19601f82011690508083019250505050505050610afc565b9050809250819450505060008060008c73ffffffffffffffffffffffffffffffffffffffff1673ffffffffffffffffffffffffffffffffffffffff1681526020019081526020016000205490506109da6127106109cc8385610b4890919063ffffffff16565b610bce90919063ffffffff16565b925060008314156109f75760008060009450945094505050610a82565b8373ffffffffffffffffffffffffffffffffffffffff168b73ffffffffffffffffffffffffffffffffffffffff167f7e79a2206061184e05985ae0578dec52f817756a441996f984cdc817efc25a68856040518082815260200191505060405180910390a37f0000000000000000000000000000000000000000000000000000000000000000945050505b96509650969350505050565b6000919050565b60007f0000000000000000000000000000000000000000000000000000000000000000905090565b600092915050565b60008060008091509150915091565b60007f0000000000000000000000000000000000000000000000000000000000000000905090565b6000806000838060200190516060811015610b1657600080fd5b810190808051906020019092919080519060200190929190805190602001909291905050509250925092509193909250565b600080831415610b5b5760009050610bc8565b6000828402905082848281610b6c57fe5b0414610bc3576040517f08c379a0000000000000000000000000000000000000000000000000000000008152600401808060200182810382526021815260200180610c7d6021913960400191505060405180910390fd5b809150505b92915050565b6000808211610c45576040517f08c379a000000000000000000000000000000000000000000000000000000000815260040180806020018281038252601a8152602001807f536166654d6174683a206469766973696f6e206279207a65726f00000000000081525060200191505060405180910390fd5b818381610c4e57fe5b0490509291505056fe4f6e6c7920746865204665654d616e6765722063616e206d616b6520746869732063616c6c536166654d6174683a206d756c7469706c69636174696f6e206f766572666c6f7761646446756e6453657474696e67733a204665652072617465206d617820657863656564656461646446756e6453657474696e67733a204665652072617465206d757374206265203e30a164736f6c634300060c000a636f6e7374727563746f723a20496e76616c6964205f736574746c656d656e7454797065","linkReferences":{}},"methodIdentifiers":{"activateForFund(address,address)":"3146d058","addFundSettings(address,bytes)":"0f5f6b4f","getFeeManager()":"f2d63826","getRateForFund(address)":"3eecc2bf","getRecipientForFund(address)":"62780b3c","getSettlementType()":"7bdd5b1d","payout(address,address)":"b78b4813","settle(address,address,uint8,bytes,uint256)":"41892d7e","settlesOnHook(uint8)":"320f0ddd","update(address,address,uint8,bytes,uint256)":"233faf5f","updatesOnHook(uint8)":"e337a91f"},"id":191}