{"abi":[{"type":"constructor","inputs":[{"name":"_integrationManager","type":"address","internalType":"address"},{"name":"_yearnVaultV2PriceFeed","type":"address","internalType":"address"}],"stateMutability":"nonpayable"},{"type":"function","name":"getIntegrationManager","inputs":[],"outputs":[{"name":"integrationManager_","type":"address","internalType":"address"}],"stateMutability":"view"},{"type":"function","name":"getYearnVaultV2PriceFeed","inputs":[],"outputs":[{"name":"yearnVaultV2PriceFeed_","type":"address","internalType":"address"}],"stateMutability":"view"},{"type":"function","name":"lend","inputs":[{"name":"_vaultProxy","type":"address","internalType":"address"},{"name":"","type":"bytes","internalType":"bytes"},{"name":"_assetData","type":"bytes","internalType":"bytes"}],"outputs":[],"stateMutability":"nonpayable"},{"type":"function","name":"parseAssetsForAction","inputs":[{"name":"","type":"address","internalType":"address"},{"name":"_selector","type":"bytes4","internalType":"bytes4"},{"name":"_actionData","type":"bytes","internalType":"bytes"}],"outputs":[{"name":"spendAssetsHandleType_","type":"uint8","internalType":"enum IIntegrationManager.SpendAssetsHandleType"},{"name":"spendAssets_","type":"address[]","internalType":"address[]"},{"name":"spendAssetAmounts_","type":"uint256[]","internalType":"uint256[]"},{"name":"incomingAssets_","type":"address[]","internalType":"address[]"},{"name":"minIncomingAssetAmounts_","type":"uint256[]","internalType":"uint256[]"}],"stateMutability":"view"},{"type":"function","name":"redeem","inputs":[{"name":"_vaultProxy","type":"address","internalType":"address"},{"name":"_actionData","type":"bytes","internalType":"bytes"},{"name":"_assetData","type":"bytes","internalType":"bytes"}],"outputs":[],"stateMutability":"nonpayable"}],"bytecode":{"object":"0x60c060405234801561001057600080fd5b506040516116063803806116068339818101604052604081101561003357600080fd5b5080516020909101516001600160601b0319606092831b8116608052911b1660a05260805160601c60a05160601c61157e610088600039806106f85250806103f3528061054b52806106d4525061157e6000f3fe608060405234801561001057600080fd5b50600436106100575760003560e01c8063099f75151461005c578063c29fa9dd1461012c578063c54efee5146101fa578063e7c45690146103bc578063f702e0ea146103e0575b600080fd5b61012a6004803603606081101561007257600080fd5b6001600160a01b038235169190810190604081016020820135600160201b81111561009c57600080fd5b8201836020820111156100ae57600080fd5b803590602001918460018302840111600160201b831117156100cf57600080fd5b919390929091602081019035600160201b8111156100ec57600080fd5b8201836020820111156100fe57600080fd5b803590602001918460018302840111600160201b8311171561011f57600080fd5b5090925090506103e8565b005b61012a6004803603606081101561014257600080fd5b6001600160a01b038235169190810190604081016020820135600160201b81111561016c57600080fd5b82018360208201111561017e57600080fd5b803590602001918460018302840111600160201b8311171561019f57600080fd5b919390929091602081019035600160201b8111156101bc57600080fd5b8201836020820111156101ce57600080fd5b803590602001918460018302840111600160201b831117156101ef57600080fd5b509092509050610540565b6102876004803603606081101561021057600080fd5b6001600160a01b03823516916001600160e01b031960208201351691810190606081016040820135600160201b81111561024957600080fd5b82018360208201111561025b57600080fd5b803590602001918460018302840111600160201b8311171561027c57600080fd5b509092509050610634565b6040518086600281111561029757fe5b815260200180602001806020018060200180602001858103855289818151815260200191508051906020019060200280838360005b838110156102e45781810151838201526020016102cc565b50505050905001858103845288818151815260200191508051906020019060200280838360005b8381101561032357818101518382015260200161030b565b50505050905001858103835287818151815260200191508051906020019060200280838360005b8381101561036257818101518382015260200161034a565b50505050905001858103825286818151815260200191508051906020019060200280838360005b838110156103a1578181015183820152602001610389565b50505050905001995050505050505050505060405180910390f35b6103c46106d2565b604080516001600160a01b039092168252519081900360200190f35b6103c46106f6565b336001600160a01b037f0000000000000000000000000000000000000000000000000000000000000000161461044f5760405162461bcd60e51b81526004018080602001828103825260328152602001806114916032913960400191505060405180910390fd5b8482828080601f01602080910402602001604051908101604052809392919081815260200183838082843760009201919091525050604080516020601f88018190048102820181019092528681526060935083925082916104cb9190899089908190840183828082843760009201919091525061071a92505050565b9250925092506105198a826000815181106104e257fe5b6020026020010151856000815181106104f757fe5b60200260200101518560008151811061050c57fe5b60200260200101516108d7565b50505060606105278261071a565b50509050610535838261096b565b505050505050505050565b336001600160a01b037f000000000000000000000000000000000000000000000000000000000000000016146105a75760405162461bcd60e51b81526004018080602001828103825260328152602001806114916032913960400191505060405180910390fd5b8482828080601f0160208091040260200160405190810160405280939291908181526020018383808284376000920182905250604080516020601f8c018190048102820181019092528a815291945084935083925061062191908b908b9081908401838280828437600092019190915250610ac692505050565b935050925092506105198a848484610b03565b600060608080806001600160e01b0319881663099f751560e01b141561066d5761065e8787610b62565b945094509450945094506106c7565b6001600160e01b0319881663c29fa9dd60e01b14156106905761065e8787610d15565b60405162461bcd60e51b815260040180806020018281038252602781526020018061154b6027913960400191505060405180910390fd5b945094509450945094565b7f000000000000000000000000000000000000000000000000000000000000000090565b7f000000000000000000000000000000000000000000000000000000000000000090565b606080606083806020019051606081101561073457600080fd5b8101908080516040519392919084600160201b82111561075357600080fd5b90830190602082018581111561076857600080fd5b82518660208202830111600160201b8211171561078457600080fd5b82525081516020918201928201910280838360005b838110156107b1578181015183820152602001610799565b5050505090500160405260200180516040519392919084600160201b8211156107d957600080fd5b9083019060208201858111156107ee57600080fd5b82518660208202830111600160201b8211171561080a57600080fd5b82525081516020918201928201910280838360005b8381101561083757818101518382015260200161081f565b5050505090500160405260200180516040519392919084600160201b82111561085f57600080fd5b90830190602082018581111561087457600080fd5b82518660208202830111600160201b8211171561089057600080fd5b82525081516020918201928201910280838360005b838110156108bd5781810151838201526020016108a5565b505050509050016040525050509250925092509193909250565b6108e2828483610e67565b826001600160a01b0316636e553f6582866040518363ffffffff1660e01b815260040180838152602001826001600160a01b0316815260200192505050602060405180830381600087803b15801561093957600080fd5b505af115801561094d573d6000803e3d6000fd5b505050506040513d602081101561096357600080fd5b505050505050565b6060815167ffffffffffffffff8111801561098557600080fd5b506040519080825280602002602001820160405280156109af578160200160208202803683370190505b50905060005b8251811015610abf5760008382815181106109cc57fe5b60200260200101519050806001600160a01b03166370a08231306040518263ffffffff1660e01b815260040180826001600160a01b0316815260200191505060206040518083038186803b158015610a2357600080fd5b505afa158015610a37573d6000803e3d6000fd5b505050506040513d6020811015610a4d57600080fd5b50518351849084908110610a5d57fe5b6020026020010181815250506000838381518110610a7757fe5b60200260200101511115610ab657610ab685848481518110610a9557fe5b6020026020010151836001600160a01b0316610f259092919063ffffffff16565b506001016109b5565b5092915050565b600080600080848060200190516080811015610ae157600080fd5b5080516020820151604083015160609093015191989097509195509350915050565b826001600160a01b031663e63697c88386846040518463ffffffff1660e01b815260040180848152602001836001600160a01b031681526020018281526020019350505050602060405180830381600087803b15801561093957600080fd5b60006060806060806000806000610bae8a8a8080601f016020809104026020016040519081016040528093929190818152602001838380828437600092019190915250610f3d92505050565b9250925092506000610bbf84610f71565b90506001600160a01b038116610c065760405162461bcd60e51b81526004018080602001828103825260288152602001806114c36028913960400191505060405180910390fd5b60408051600180825281830190925290602080830190803683370190505097508088600081518110610c3457fe5b6001600160a01b03929092166020928302919091018201526040805160018082528183019092529182810190803683370190505096508287600081518110610c7857fe5b6020908102919091010152604080516001808252818301909252908160200160208202803683370190505095508386600081518110610cb357fe5b6001600160a01b03929092166020928302919091018201526040805160018082528183019092529182810190803683370190505094508185600081518110610cf757fe5b60200260200101818152505060029850505050509295509295909350565b60006060806060806000806000610d618a8a8080601f016020809104026020016040519081016040528093929190818152602001838380828437600092019190915250610ac692505050565b509250925092506000610d7384610f71565b90506001600160a01b038116610dba5760405162461bcd60e51b815260040180806020018281038252602a815260200180611441602a913960400191505060405180910390fd5b60408051600180825281830190925290602080830190803683370190505097508388600081518110610de857fe5b6001600160a01b03929092166020928302919091018201526040805160018082528183019092529182810190803683370190505096508287600081518110610e2c57fe5b6020908102919091010152604080516001808252818301909252908160200160208202803683370190505095508086600081518110610cb357fe5b60408051636eb1769f60e11b81523060048201526001600160a01b038481166024830152915160009286169163dd62ed3e916044808301926020929190829003018186803b158015610eb857600080fd5b505afa158015610ecc573d6000803e3d6000fd5b505050506040513d6020811015610ee257600080fd5b5051905081811015610f1f578015610f0957610f096001600160a01b038516846000610ff9565b610f1f6001600160a01b03851684600019610ff9565b50505050565b610f38610f318461100c565b838361100f565b505050565b6000806000838060200190516060811015610f5757600080fd5b508051602082015160409092015190969195509350915050565b6000610f7b6106f6565b6001600160a01b03166366adb867836040518263ffffffff1660e01b815260040180826001600160a01b0316815260200191505060206040518083038186803b158015610fc757600080fd5b505afa158015610fdb573d6000803e3d6000fd5b505050506040513d6020811015610ff157600080fd5b505192915050565b610f386110058461100c565b8383611061565b90565b604080516001600160a01b038416602482015260448082018490528251808303909101815260649091019091526020810180516001600160e01b031663a9059cbb60e01b179052610f38908490611170565b8015806110e7575060408051636eb1769f60e11b81523060048201526001600160a01b03848116602483015291519185169163dd62ed3e91604480820192602092909190829003018186803b1580156110b957600080fd5b505afa1580156110cd573d6000803e3d6000fd5b505050506040513d60208110156110e357600080fd5b5051155b6111225760405162461bcd60e51b81526004018080602001828103825260368152602001806115156036913960400191505060405180910390fd5b604080516001600160a01b038416602482015260448082018490528251808303909101815260649091019091526020810180516001600160e01b031663095ea7b360e01b179052610f389084905b60606111c5826040518060400160405280602081526020017f5361666545524332303a206c6f772d6c6576656c2063616c6c206661696c6564815250856001600160a01b03166112219092919063ffffffff16565b805190915015610f38578080602001905160208110156111e457600080fd5b5051610f385760405162461bcd60e51b815260040180806020018281038252602a8152602001806114eb602a913960400191505060405180910390fd5b6060611230848460008561123a565b90505b9392505050565b60608247101561127b5760405162461bcd60e51b815260040180806020018281038252602681526020018061146b6026913960400191505060405180910390fd5b61128485611396565b6112d5576040805162461bcd60e51b815260206004820152601d60248201527f416464726573733a2063616c6c20746f206e6f6e2d636f6e7472616374000000604482015290519081900360640190fd5b60006060866001600160a01b031685876040518082805190602001908083835b602083106113145780518252601f1990920191602091820191016112f5565b6001836020036101000a03801982511681845116808217855250505050505090500191505060006040518083038185875af1925050503d8060008114611376576040519150601f19603f3d011682016040523d82523d6000602084013e61137b565b606091505b509150915061138b82828661139c565b979650505050505050565b3b151590565b606083156113ab575081611233565b8251156113bb5782518084602001fd5b8160405162461bcd60e51b81526004018080602001828103825283818151815260200191508051906020019080838360005b838110156114055781810151838201526020016113ed565b50505050905090810190601f1680156114325780820380516001836020036101000a031916815260200191505b509250505060405180910390fdfe5f5f7061727365417373657473466f7252656465656d3a20556e737570706f7274656420795661756c74416464726573733a20696e73756666696369656e742062616c616e636520666f722063616c6c4f6e6c792074686520496e746567726174696f6e4d616e616765722063616e2063616c6c20746869732066756e6374696f6e5f5f7061727365417373657473466f724c656e643a20556e737570706f7274656420795661756c745361666545524332303a204552433230206f7065726174696f6e20646964206e6f7420737563636565645361666545524332303a20617070726f76652066726f6d206e6f6e2d7a65726f20746f206e6f6e2d7a65726f20616c6c6f77616e63657061727365417373657473466f72416374696f6e3a205f73656c6563746f7220696e76616c6964a164736f6c634300060c000a","linkReferences":{}},"methodIdentifiers":{"getIntegrationManager()":"e7c45690","getYearnVaultV2PriceFeed()":"f702e0ea","lend(address,bytes,bytes)":"099f7515","parseAssetsForAction(address,bytes4,bytes)":"c54efee5","redeem(address,bytes,bytes)":"c29fa9dd"},"id":183}