{"abi":[{"type":"constructor","inputs":[{"name":"_dispatcher","type":"address","internalType":"address"},{"name":"_implementation","type":"address","internalType":"address"}],"stateMutability":"nonpayable"},{"type":"function","name":"getOwner","inputs":[],"outputs":[{"name":"owner_","type":"address","internalType":"address"}],"stateMutability":"view"},{"type":"function","name":"implementation","inputs":[],"outputs":[{"name":"","type":"address","internalType":"address"}],"stateMutability":"view"},{"type":"function","name":"setImplementation","inputs":[{"name":"_nextImplementation","type":"address","internalType":"address"}],"outputs":[],"stateMutability":"nonpayable"},{"type":"event","name":"ImplementationSet","inputs":[{"name":"implementation","type":"address","indexed":false,"internalType":"address"}],"anonymous":false},{"type":"event","name":"ProxyDeployed","inputs":[{"name":"proxy","type":"address","indexed":false,"internalType":"address"}],"anonymous":false}],"bytecode":{"object":"0x60a060405234801561001057600080fd5b506040516102e03803806102e083398101604081905261002f91610073565b6001600160a01b03918216608052600080546001600160a01b031916919092161790556100a6565b80516001600160a01b038116811461006e57600080fd5b919050565b6000806040838503121561008657600080fd5b61008f83610057565b915061009d60208401610057565b90509250929050565b6080516102206100c06000396000609601526102206000f3fe608060405234801561001057600080fd5b50600436106100415760003560e01c80635c60da1b14610046578063893d20e814610075578063d784d4261461007d575b600080fd5b600054610059906001600160a01b031681565b6040516001600160a01b03909116815260200160405180910390f35b610059610092565b61009061008b3660046101df565b61011b565b005b60007f00000000000000000000000000000000000000000000000000000000000000006001600160a01b031663893d20e86040518163ffffffff1660e01b8152600401602060405180830381865afa1580156100f2573d6000803e3d6000fd5b505050506040513d601f19601f820116820180604052508101906101169190610203565b905090565b610123610092565b6001600160a01b0316336001600160a01b0316146101735760405162461bcd60e51b815260206004820152600960248201526837b7363ca7bbb732b960b91b604482015260640160405180910390fd5b600080546001600160a01b0319166001600160a01b0383169081179091556040519081527fab64f92ab780ecbf4f3866f57cee465ff36c89450dcce20237ca7a8d81fb7d139060200160405180910390a150565b6001600160a01b03811681146101dc57600080fd5b50565b6000602082840312156101f157600080fd5b81356101fc816101c7565b9392505050565b60006020828403121561021557600080fd5b81516101fc816101c756","linkReferences":{}},"methodIdentifiers":{"getOwner()":"893d20e8","implementation()":"5c60da1b","setImplementation(address)":"d784d426"},"id":204}