{"abi":[{"type":"constructor","inputs":[{"name":"_feeManager","type":"address","internalType":"address"}],"stateMutability":"nonpayable"},{"type":"function","name":"activateForFund","inputs":[{"name":"","type":"address","internalType":"address"},{"name":"","type":"address","internalType":"address"}],"outputs":[],"stateMutability":"nonpayable"},{"type":"function","name":"addFundSettings","inputs":[{"name":"","type":"address","internalType":"address"},{"name":"","type":"bytes","internalType":"bytes"}],"outputs":[],"stateMutability":"nonpayable"},{"type":"function","name":"getFeeManager","inputs":[],"outputs":[{"name":"feeManager_","type":"address","internalType":"address"}],"stateMutability":"view"},{"type":"function","name":"getRecipientForFund","inputs":[{"name":"","type":"address","internalType":"address"}],"outputs":[{"name":"recipient_","type":"address","internalType":"address"}],"stateMutability":"view"},{"type":"function","name":"payout","inputs":[{"name":"","type":"address","internalType":"address"},{"name":"","type":"address","internalType":"address"}],"outputs":[{"name":"","type":"bool","internalType":"bool"}],"stateMutability":"nonpayable"},{"type":"function","name":"settle","inputs":[{"name":"_comptrollerProxy","type":"address","internalType":"address"},{"name":"_vaultProxy","type":"address","internalType":"address"},{"name":"","type":"uint8","internalType":"enum IFeeManager.FeeHook"},{"name":"_settlementData","type":"bytes","internalType":"bytes"},{"name":"","type":"uint256","internalType":"uint256"}],"outputs":[{"name":"settlementType_","type":"uint8","internalType":"enum IFeeManager.SettlementType"},{"name":"payer_","type":"address","internalType":"address"},{"name":"sharesDue_","type":"uint256","internalType":"uint256"}],"stateMutability":"nonpayable"},{"type":"function","name":"settlesOnHook","inputs":[{"name":"_hook","type":"uint8","internalType":"enum IFeeManager.FeeHook"}],"outputs":[{"name":"settles_","type":"bool","internalType":"bool"},{"name":"usesGav_","type":"bool","internalType":"bool"}],"stateMutability":"view"},{"type":"function","name":"update","inputs":[{"name":"","type":"address","internalType":"address"},{"name":"","type":"address","internalType":"address"},{"name":"","type":"uint8","internalType":"enum IFeeManager.FeeHook"},{"name":"","type":"bytes","internalType":"bytes"},{"name":"","type":"uint256","internalType":"uint256"}],"outputs":[],"stateMutability":"nonpayable"},{"type":"function","name":"updatesOnHook","inputs":[{"name":"","type":"uint8","internalType":"enum IFeeManager.FeeHook"}],"outputs":[{"name":"updates_","type":"bool","internalType":"bool"},{"name":"usesGav_","type":"bool","internalType":"bool"}],"stateMutability":"view"},{"type":"event","name":"Settled","inputs":[{"name":"comptrollerProxy","type":"address","indexed":true,"internalType":"address"},{"name":"payer","type":"address","indexed":true,"internalType":"address"},{"name":"sharesQuantity","type":"uint256","indexed":false,"internalType":"uint256"}],"anonymous":false}],"bytecode":{"object":"0x60a060405234801561001057600080fd5b506040516109273803806109278339818101604052602081101561003357600080fd5b8101908080519060200190929190505050808073ffffffffffffffffffffffffffffffffffffffff1660808173ffffffffffffffffffffffffffffffffffffffff1660601b81525050505060805160601c6108876100a06000398061058852806107e552506108876000f3fe608060405234801561001057600080fd5b50600436106100935760003560e01c806341892d7e1161006657806341892d7e146102b557806362780b3c146103c8578063b78b481314610436578063e337a91f146104b0578063f2d638261461050057610093565b80630f5f6b4f14610098578063233faf5f146101315780633146d05814610201578063320f0ddd14610265575b600080fd5b61012f600480360360408110156100ae57600080fd5b81019080803573ffffffffffffffffffffffffffffffffffffffff169060200190929190803590602001906401000000008111156100eb57600080fd5b8201836020820111156100fd57600080fd5b8035906020019184600183028401116401000000008311171561011f57600080fd5b9091929391929390505050610534565b005b6101ff600480360360a081101561014757600080fd5b81019080803573ffffffffffffffffffffffffffffffffffffffff169060200190929190803573ffffffffffffffffffffffffffffffffffffffff169060200190929190803560ff169060200190929190803590602001906401000000008111156101b157600080fd5b8201836020820111156101c357600080fd5b803590602001918460018302840111640100000000831117156101e557600080fd5b909192939192939080359060200190929190505050610539565b005b6102636004803603604081101561021757600080fd5b81019080803573ffffffffffffffffffffffffffffffffffffffff169060200190929190803573ffffffffffffffffffffffffffffffffffffffff169060200190929190505050610541565b005b6102946004803603602081101561027b57600080fd5b81019080803560ff169060200190929190505050610545565b60405180831515815260200182151581526020019250505060405180910390f35b610383600480360360a08110156102cb57600080fd5b81019080803573ffffffffffffffffffffffffffffffffffffffff169060200190929190803573ffffffffffffffffffffffffffffffffffffffff169060200190929190803560ff1690602001909291908035906020019064010000000081111561033557600080fd5b82018360208201111561034757600080fd5b8035906020019184600183028401116401000000008311171561036957600080fd5b909192939192939080359060200190929190505050610581565b6040518084600581111561039357fe5b81526020018373ffffffffffffffffffffffffffffffffffffffff168152602001828152602001935050505060405180910390f35b61040a600480360360208110156103de57600080fd5b81019080803573ffffffffffffffffffffffffffffffffffffffff1690602001909291905050506107bf565b604051808273ffffffffffffffffffffffffffffffffffffffff16815260200191505060405180910390f35b6104986004803603604081101561044c57600080fd5b81019080803573ffffffffffffffffffffffffffffffffffffffff169060200190929190803573ffffffffffffffffffffffffffffffffffffffff1690602001909291905050506107ca565b60405180821515815260200191505060405180910390f35b6104df600480360360208110156104c657600080fd5b81019080803560ff1690602001909291905050506107d2565b60405180831515815260200182151581526020019250505060405180910390f35b6105086107e1565b604051808273ffffffffffffffffffffffffffffffffffffffff16815260200191505060405180910390f35b505050565b505050505050565b5050565b6000806002600381111561055557fe5b83600381111561056157fe5b141561057457600160009150915061057c565b600080915091505b915091565b60008060007f000000000000000000000000000000000000000000000000000000000000000073ffffffffffffffffffffffffffffffffffffffff163373ffffffffffffffffffffffffffffffffffffffff161461062a576040517f08c379a00000000000000000000000000000000000000000000000000000000081526004018080602001828103825260258152602001806108566025913960400191505060405180910390fd5b60008873ffffffffffffffffffffffffffffffffffffffff166370a0823160016040518263ffffffff1660e01b8152600401808273ffffffffffffffffffffffffffffffffffffffff16815260200191505060206040518083038186803b15801561069457600080fd5b505afa1580156106a8573d6000803e3d6000fd5b505050506040513d60208110156106be57600080fd5b81019080805190602001909291905050509050620f424081106106ec576000806000935093509350506107b3565b80620f424003915061074187878080601f016020809104026020016040519081016040528093929190818152602001838380828437600081840152601f19601f82011690508083019250505050505050610809565b905050809350508273ffffffffffffffffffffffffffffffffffffffff168a73ffffffffffffffffffffffffffffffffffffffff167f7e79a2206061184e05985ae0578dec52f817756a441996f984cdc817efc25a68846040518082815260200191505060405180910390a360019350505b96509650969350505050565b600060019050919050565b600092915050565b60008060008091509150915091565b60007f0000000000000000000000000000000000000000000000000000000000000000905090565b600080600083806020019051606081101561082357600080fd5b81019080805190602001909291908051906020019092919080519060200190929190505050925092509250919390925056fe4f6e6c7920746865204665654d616e6765722063616e206d616b6520746869732063616c6ca164736f6c634300060c000a","linkReferences":{}},"methodIdentifiers":{"activateForFund(address,address)":"3146d058","addFundSettings(address,bytes)":"0f5f6b4f","getFeeManager()":"f2d63826","getRecipientForFund(address)":"62780b3c","payout(address,address)":"b78b4813","settle(address,address,uint8,bytes,uint256)":"41892d7e","settlesOnHook(uint8)":"320f0ddd","update(address,address,uint8,bytes,uint256)":"233faf5f","updatesOnHook(uint8)":"e337a91f"},"id":196}