{"abi":[{"type":"constructor","inputs":[{"name":"_integrationManager","type":"address","internalType":"address"},{"name":"_pendleRouterAddress","type":"address","internalType":"address"},{"name":"_wrappedNativeAssetAddress","type":"address","internalType":"address"}],"stateMutability":"nonpayable"},{"type":"receive","stateMutability":"payable"},{"type":"function","name":"action","inputs":[{"name":"_vaultProxyAddress","type":"address","internalType":"address"},{"name":"_actionData","type":"bytes","internalType":"bytes"},{"name":"","type":"bytes","internalType":"bytes"}],"outputs":[],"stateMutability":"nonpayable"},{"type":"function","name":"getIntegrationManager","inputs":[],"outputs":[{"name":"integrationManager_","type":"address","internalType":"address"}],"stateMutability":"view"},{"type":"function","name":"parseAssetsForAction","inputs":[{"name":"","type":"address","internalType":"address"},{"name":"_selector","type":"bytes4","internalType":"bytes4"},{"name":"_actionData","type":"bytes","internalType":"bytes"}],"outputs":[{"name":"spendAssetsHandleType_","type":"uint8","internalType":"enum IIntegrationManager.SpendAssetsHandleType"},{"name":"spendAssets_","type":"address[]","internalType":"address[]"},{"name":"spendAssetAmounts_","type":"uint256[]","internalType":"uint256[]"},{"name":"incomingAssets_","type":"address[]","internalType":"address[]"},{"name":"minIncomingAssetAmounts_","type":"uint256[]","internalType":"uint256[]"}],"stateMutability":"view"},{"type":"error","name":"PendleV2Adapter__InvalidAction","inputs":[]}],"bytecode":{"object":"0x60e06040523480156200001157600080fd5b50604051620029cb380380620029cb83398101604081905262000034916200008c565b6001600160a01b0392831660805290821660a0521660c052620000e4565b60006001600160a01b0382165b92915050565b620000708162000052565b81146200007c57600080fd5b50565b80516200005f8162000065565b600080600060608486031215620000a657620000a6600080fd5b6000620000b486866200007f565b9350506020620000c7868287016200007f565b9250506040620000da868287016200007f565b9150509250925092565b60805160a05160c0516128656200016660003960008181611340015261139b015260008181610bea01528181610c3a01528181610d2e01528181610ddc01528181610e8701528181610fb301528181611003015281816110480152818161109f015281816111af01526111fb01526000818160af015260e601526128656000f3fe6080604052600436106100385760003560e01c8063a7a19e0014610044578063c54efee514610066578063e7c45690146100a057600080fd5b3661003f57005b600080fd5b34801561005057600080fd5b5061006461005f366004611997565b6100db565b005b34801561007257600080fd5b50610086610081366004611a42565b610275565b604051610097959493929190611bb5565b60405180910390f35b3480156100ac57600080fd5b507f00000000000000000000000000000000000000000000000000000000000000006040516100979190611c1c565b336001600160a01b037f0000000000000000000000000000000000000000000000000000000000000000161461012c5760405162461bcd60e51b815260040161012390611c7c565b60405180910390fd5b60008061013b85870187611d9a565b9092509050600082600481111561015457610154611ab0565b0361017b5761017687828060200190518101906101719190611f2f565b610b5e565b61026c565b600182600481111561018f5761018f611ab0565b036101b15761017687828060200190518101906101ac9190611fc3565b610cb7565b60028260048111156101c5576101c5611ab0565b036101e75761017687828060200190518101906101e29190611f2f565b610f27565b60038260048111156101fb576101fb611ab0565b0361021d5761017687828060200190518101906102189190612022565b61103e565b600482600481111561023157610231611ab0565b0361025357610176878280602001905181019061024e9190612095565b6111a5565b60405163312146f560e01b815260040160405180910390fd5b50505050505050565b600060608080806001600160e01b031988166253d0cf60e91b146102ac5760405163312146f560e01b815260040160405180910390fd5b6000806102bb888a018a611d9a565b909250905060008260048111156102d4576102d4611ab0565b036104a2576000818060200190518101906102ef9190611f2f565b9050600081600001516001600160a01b0316632c8ce6bc6040518163ffffffff1660e01b8152600401606060405180830381865afa158015610335573d6000803e3d6000fd5b505050506040513d601f19601f8201168201806040525081019061035991906120b6565b50604080516001808252818301909252919350909150602080830190803683375050604080516001808252818301909252929a50905060208083019080368337505060408051600180825281830190925292995090506020808301908036833750506040805160018082528183019092529298509050602080830190803683370190505094506103ec8260200151611312565b886000815181106103ff576103ff612106565b60200260200101906001600160a01b031690816001600160a01b03168152505081604001518760008151811061043757610437612106565b602002602001018181525050808660008151811061045757610457612106565b60200260200101906001600160a01b031690816001600160a01b03168152505081608001518560008151811061048f5761048f612106565b6020026020010181815250505050610b4d565b60018260048111156104b6576104b6611ab0565b03610671576000818060200190518101906104d19190611fc3565b9050600081600001516001600160a01b0316632c8ce6bc6040518163ffffffff1660e01b8152600401606060405180830381865afa158015610517573d6000803e3d6000fd5b505050506040513d601f19601f8201168201806040525081019061053b91906120b6565b50604080516001808252818301909252919350909150602080830190803683375050604080516001808252818301909252929a509050602080830190803683375050604080516001808252818301909252929950905060208083019080368337505060408051600180825281830190925292985090506020808301908036833701905050945080886000815181106105d5576105d5612106565b60200260200101906001600160a01b031690816001600160a01b03168152505081604001518760008151811061060d5761060d612106565b6020026020010181815250506106268260200151611312565b8660008151811061063957610639612106565b60200260200101906001600160a01b031690816001600160a01b03168152505081606001518560008151811061048f5761048f612106565b600282600481111561068557610685611ab0565b036107e8576000818060200190518101906106a09190611f2f565b6040805160018082528183019092529192506020808301908036833750506040805160018082528183019092529299509050602080830190803683375050604080516001808252818301909252929850905060208083019080368337505060408051600180825281830190925292975090506020808301908036833701905050935061072f8160200151611312565b8760008151811061074257610742612106565b60200260200101906001600160a01b031690816001600160a01b03168152505080604001518660008151811061077a5761077a612106565b60200260200101818152505080600001518560008151811061079e5761079e612106565b60200260200101906001600160a01b031690816001600160a01b0316815250508060800151846000815181106107d6576107d6612106565b60200260200101818152505050610b4d565b60038260048111156107fc576107fc611ab0565b03610915576000818060200190518101906108179190612022565b604080516001808252818301909252919250602080830190803683375050604080516001808252818301909252929950905060208083019080368337505060408051600180825281830190925292985090506020808301908036833750506040805160018082528183019092529297509050602080830190803683370190505093508060000151876000815181106108b1576108b1612106565b60200260200101906001600160a01b031690816001600160a01b0316815250508060400151866000815181106108e9576108e9612106565b6020026020010181815250506109028160200151611312565b8560008151811061079e5761079e612106565b600482600481111561092957610929611ab0565b03610b4d576000818060200190518101906109449190612095565b604080516001808252818301909252919250602080830190803683375050604080516001808252818301909252929950905060208083019080368337505060408051600280825260608201835293995092915060208301908036833750506040805160028082526060820183529398509291506020830190803683370190505093508060000151876000815181106109de576109de612106565b60200260200101906001600160a01b031690816001600160a01b031681525050806020015186600081518110610a1657610a16612106565b602002602001018181525050610a2f8160400151611312565b85600081518110610a4257610a42612106565b60200260200101906001600160a01b031690816001600160a01b031681525050806060015184600081518110610a7a57610a7a612106565b602002602001018181525050600081600001516001600160a01b0316632c8ce6bc6040518163ffffffff1660e01b8152600401606060405180830381865afa158015610aca573d6000803e3d6000fd5b505050506040513d601f19601f82011682018060405250810190610aee91906120b6565b509150508086600181518110610b0657610b06612106565b60200260200101906001600160a01b031690816001600160a01b031681525050816080015185600181518110610b3e57610b3e612106565b60200260200101818152505050505b600296505050945094509450945094565b600081600001516001600160a01b0316632c8ce6bc6040518163ffffffff1660e01b8152600401606060405180830381865afa158015610ba2573d6000803e3d6000fd5b505050506040513d601f19601f82011682018060405250810190610bc691906120b6565b505090506000610be28260008560200151866040015130611366565b9050610c0f827f00000000000000000000000000000000000000000000000000000000000000008361149a565b610c176118da565b835160808501516060860151604051630a94245f60e21b81526001600160a01b037f00000000000000000000000000000000000000000000000000000000000000001693632a50917c93610c75938b9389929190899060040161241c565b60408051808303816000875af1158015610c93573d6000803e3d6000fd5b505050506040513d601f19601f8201168201806040525081019061026c919061247e565b600080600083600001516001600160a01b0316632c8ce6bc6040518163ffffffff1660e01b8152600401606060405180830381865afa158015610cfe573d6000803e3d6000fd5b505050506040513d601f19601f82011682018060405250810190610d2291906120b6565b925092509250610d57827f0000000000000000000000000000000000000000000000000000000000000000866040015161149a565b6000826001600160a01b0316632f13b60c6040518163ffffffff1660e01b8152600401602060405180830381865afa158015610d97573d6000803e3d6000fd5b505050506040513d601f19601f82011682018060405250810190610dbb91906124c4565b15610e6157604080860151905163339748cb60e01b81526001600160a01b037f0000000000000000000000000000000000000000000000000000000000000000169163339748cb91610e179130918791906000906004016124fd565b6020604051808303816000875af1158015610e36573d6000803e3d6000fd5b505050506040513d601f19601f82011682018060405250810190610e5a9190612532565b9050610f0a565b610e696118da565b85516040808801519051633346d3a360e01b81526001600160a01b037f00000000000000000000000000000000000000000000000000000000000000001692633346d3a392610ec392309291906000908890600401612553565b60408051808303816000875af1158015610ee1573d6000803e3d6000fd5b505050506040513d601f19601f82011682018060405250810190610f05919061247e565b509150505b610f1f8482876020015188606001518a61154d565b505050505050565b600081600001516001600160a01b0316632c8ce6bc6040518163ffffffff1660e01b8152600401606060405180830381865afa158015610f6b573d6000803e3d6000fd5b505050506040513d601f19601f82011682018060405250810190610f8f91906120b6565b505090506000610fab8260008560200151866040015130611366565b9050610fd8827f00000000000000000000000000000000000000000000000000000000000000008361149a565b610fe06118da565b8351608085015160608601516040516358bda47560e01b81526001600160a01b037f000000000000000000000000000000000000000000000000000000000000000016936358bda47593610c75938b9389929190899060040161241c565b61107181600001517f0000000000000000000000000000000000000000000000000000000000000000836040015161149a565b6110796118da565b81516040808401516060850151915163344ed3f760e21b81526000936001600160a01b037f0000000000000000000000000000000000000000000000000000000000000000169363d13b4fdc936110d89330939290899060040161259a565b60408051808303816000875af11580156110f6573d6000803e3d6000fd5b505050506040513d601f19601f8201168201806040525081019061111a919061247e565b509050600083600001516001600160a01b0316632c8ce6bc6040518163ffffffff1660e01b8152600401606060405180830381865afa158015611161573d6000803e3d6000fd5b505050506040513d601f19601f8201168201806040525081019061118591906120b6565b5050905061119e8183866020015187608001518961154d565b5050505050565b6111d881600001517f0000000000000000000000000000000000000000000000000000000000000000836020015161149a565b8051602082015160405163b7d75b8b60e01b815260009283926001600160a01b037f0000000000000000000000000000000000000000000000000000000000000000169263b7d75b8b9261123592309260019081906004016125cf565b60408051808303816000875af1158015611253573d6000803e3d6000fd5b505050506040513d601f19601f82011682018060405250810190611277919061247e565b9150915060008084600001516001600160a01b0316632c8ce6bc6040518163ffffffff1660e01b8152600401606060405180830381865afa1580156112c0573d6000803e3d6000fd5b505050506040513d601f19601f820116820180604052508101906112e491906120b6565b50915091506112fe8285876040015188606001518a61154d565b610f1f6001600160a01b03821687856115cd565b60006001600160a01b03821673eeeeeeeeeeeeeeeeeeeeeeeeeeeeeeeeeeeeeeee1461133e5781611360565b7f00000000000000000000000000000000000000000000000000000000000000005b92915050565b6000806000611374866115dd565b90506001600160a01b03811661140a57604051632e1a7d4d60e01b81526001600160a01b037f00000000000000000000000000000000000000000000000000000000000000001690632e1a7d4d906113d090889060040161261b565b600060405180830381600087803b1580156113ea57600080fd5b505af11580156113fe573d6000803e3d6000fd5b50505050849150611415565b61141581898761149a565b6040516320e8c56560e01b81526001600160a01b038916906320e8c56590849061144990889086908b908e90600401612629565b60206040518083038185885af1158015611467573d6000803e3d6000fd5b50505050506040513d601f19601f8201168201806040525081019061148c9190612532565b925050505b95945050505050565b604051636eb1769f60e11b81526000906001600160a01b0385169063dd62ed3e906114cb903090879060040161265e565b602060405180830381865afa1580156114e8573d6000803e3d6000fd5b505050506040513d601f19601f8201168201806040525081019061150c9190612532565b905081811015611547578015611531576115316001600160a01b038516846000611611565b6115476001600160a01b03851684600019611611565b50505050565b846001600160a01b031663769f8e5d8286611567876115dd565b8660006040518663ffffffff1660e01b815260040161158a959493929190612681565b6020604051808303816000875af11580156115a9573d6000803e3d6000fd5b505050506040513d601f19601f82011682018060405250810190610f1f9190612532565b6115d883838361161c565b505050565b60006001600160a01b03821673eeeeeeeeeeeeeeeeeeeeeeeeeeeeeeeeeeeeeeee146116095781611360565b600092915050565b6115d8838383611672565b6115d88363a9059cbb60e01b848460405160240161163b9291906126c3565b60408051601f198184030181529190526020810180516001600160e01b03166001600160e01b031990931692909217909152611726565b8015806116eb5750604051636eb1769f60e11b81526001600160a01b0384169063dd62ed3e906116a8903090869060040161265e565b602060405180830381865afa1580156116c5573d6000803e3d6000fd5b505050506040513d601f19601f820116820180604052508101906116e99190612532565b155b6117075760405162461bcd60e51b815260040161012390612731565b6115d88363095ea7b360e01b848460405160240161163b9291906126c3565b600061177b826040518060400160405280602081526020017f5361666545524332303a206c6f772d6c6576656c2063616c6c206661696c6564815250856001600160a01b03166117b59092919063ffffffff16565b8051909150156115d8578080602001905181019061179991906124c4565b6115d85760405162461bcd60e51b815260040161012390612788565b60606117c484846000856117ce565b90505b9392505050565b6060824710156117f05760405162461bcd60e51b8152600401610123906127db565b600080866001600160a01b0316858760405161180c919061280d565b60006040518083038185875af1925050503d8060008114611849576040519150601f19603f3d011682016040523d82523d6000602084013e61184e565b606091505b509150915061185f8783838761186c565b925050505b949350505050565b606083156118ab5782516000036118a4576001600160a01b0385163b6118a45760405162461bcd60e51b815260040161012390612819565b5081611864565b61186483838151156118c05781518083602001fd5b8060405162461bcd60e51b81526004016101239190612854565b6040518060a0016040528060006001600160a01b03168152602001600081526020016060815260200160608152602001606081525090565b60006001600160a01b038216611360565b61192c81611912565b811461193757600080fd5b50565b803561136081611923565b60008083601f84011261195a5761195a600080fd5b50813567ffffffffffffffff81111561197557611975600080fd5b60208301915083600182028301111561199057611990600080fd5b9250929050565b6000806000806000606086880312156119b2576119b2600080fd5b60006119be888861193a565b955050602086013567ffffffffffffffff8111156119de576119de600080fd5b6119ea88828901611945565b9450945050604086013567ffffffffffffffff811115611a0c57611a0c600080fd5b611a1888828901611945565b92509250509295509295909350565b6001600160e01b0319811661192c565b803561136081611a27565b60008060008060608587031215611a5b57611a5b600080fd5b6000611a67878761193a565b9450506020611a7887828801611a37565b935050604085013567ffffffffffffffff811115611a9857611a98600080fd5b611aa487828801611945565b95989497509550505050565b634e487b7160e01b600052602160045260246000fd5b6003811061193757611937611ab0565b80611ae081611ac6565b919050565b600061136082611ad6565b611af981611ae5565b82525050565b611af981611912565b6000611b148383611aff565b505060200190565b6000611b26825190565b80845260209384019383018060005b83811015611b5a578151611b498882611b08565b975060208301925050600101611b35565b509495945050505050565b80611af9565b6000611b148383611b65565b6000611b81825190565b80845260209384019383018060005b83811015611b5a578151611ba48882611b6b565b975060208301925050600101611b90565b60a08101611bc38288611af0565b8181036020830152611bd58187611b1c565b90508181036040830152611be98186611b77565b90508181036060830152611bfd8185611b1c565b90508181036080830152611c118184611b77565b979650505050505050565b602081016113608284611aff565b603281526000602082017f4f6e6c792074686520496e746567726174696f6e4d616e616765722063616e2081527131b0b636103a3434b990333ab731ba34b7b760711b602082015291505b5060400190565b6020808252810161136081611c2a565b6005811061193757600080fd5b803561136081611c8c565b634e487b7160e01b600052604160045260246000fd5b601f19601f830116810181811067ffffffffffffffff82111715611ce057611ce0611ca4565b6040525050565b6000611cf260405190565b9050611ae08282611cba565b600067ffffffffffffffff821115611d1857611d18611ca4565b601f19601f83011660200192915050565b82818337506000910152565b6000611d48611d4384611cfe565b611ce7565b905082815260208101848484011115611d6357611d63600080fd5b611d6e848285611d29565b509392505050565b600082601f830112611d8a57611d8a600080fd5b8135611864848260208601611d35565b60008060408385031215611db057611db0600080fd5b6000611dbc8585611c99565b925050602083013567ffffffffffffffff811115611ddc57611ddc600080fd5b611de885828601611d76565b9150509250929050565b600061136082611912565b61192c81611df2565b805161136081611dfd565b805161136081611923565b8061192c565b805161136081611e1c565b600060a08284031215611e4257611e42600080fd5b611e4c60a0611ce7565b90506000611e5a8484611e22565b8252506020611e6b84848301611e22565b6020830152506040611e7f84828501611e22565b6040830152506060611e9384828501611e22565b6060830152506080611ea784828501611e22565b60808301525092915050565b60006101208284031215611ec957611ec9600080fd5b611ed360a0611ce7565b90506000611ee18484611e06565b8252506020611ef284848301611e11565b6020830152506040611f0684828501611e22565b6040830152506060611f1a84828501611e2d565b606083015250610100611ea784828501611e22565b60006101208284031215611f4557611f45600080fd5b60006118648484611eb3565b600060808284031215611f6657611f66600080fd5b611f706080611ce7565b90506000611f7e8484611e06565b8252506020611f8f84848301611e11565b6020830152506040611fa384828501611e22565b6040830152506060611fb784828501611e22565b60608301525092915050565b600060808284031215611fd857611fd8600080fd5b60006118648484611f51565b600060a08284031215611ff957611ff9600080fd5b61200360a0611ce7565b905060006120118484611e06565b8252506020611e6b84848301611e11565b600060a0828403121561203757612037600080fd5b60006118648484611fe4565b600060a0828403121561205857612058600080fd5b61206260a0611ce7565b905060006120708484611e06565b825250602061208184848301611e22565b6020830152506040611e7f84828501611e11565b600060a082840312156120aa576120aa600080fd5b60006118648484612043565b6000806000606084860312156120ce576120ce600080fd5b60006120da8686611e06565b93505060206120eb86828701611e06565b92505060406120fc86828701611e11565b9150509250925092565b634e487b7160e01b600052603260045260246000fd5b805160a083019061212d8482611b65565b5060208201516121406020850182611b65565b5060408201516121536040850182611b65565b5060608201516121666060850182611b65565b5060808201516115476080850182611b65565b6004811061193757611937611ab0565b80611ae081612179565b600061136082612189565b611af981612193565b60005b838110156121c25781810151838201526020016121aa565b50506000910152565b60006121d5825190565b8084526020840193506121ec8185602086016121a7565b601f01601f19169290920192915050565b80516000906101808401906122128582611b65565b5060208301516122256020860182611b65565b5060408301516122386040860182611b65565b50606083015161224b606086018261219e565b50608083015161225e6080860182611aff565b5060a083015161227160a0860182611aff565b5060c083015161228460c0860182611aff565b5060e083015161229760e0860182611aff565b506101008301516122ac610100860182611b65565b506101208301516122c1610120860182611b65565b506101408301516122d6610140860182611b65565b5061016083015184820361016086015261149182826121cb565b805160608084526000919084019061230882826121fd565b9150506020830151848203602086015261232282826121cb565b9150506040830151611d6e6040860182611b65565b60006117c783836122f0565b600061234d825190565b808452602084019350836020820285016123678560200190565b8060005b8581101561239c57848403895281516123848582612337565b94506020830160209a909a019992505060010161236b565b5091979650505050505050565b805160009060a08401906123bd8582611aff565b5060208301516123d06020860182611b65565b50604083015184820360408601526123e88282612343565b915050606083015184820360608601526124028282612343565b9150506080830151848203608086015261149182826121cb565b610140810161242b8289611aff565b6124386020830188611aff565b6124456040830187611b65565b6124526060830186611b65565b61245f608083018561211c565b81810361012083015261247281846123a9565b98975050505050505050565b6000806040838503121561249457612494600080fd5b60006124a08585611e22565b9250506020611de885828601611e22565b80151561192c565b8051611360816124b1565b6000602082840312156124d9576124d9600080fd5b600061186484846124b9565b60006113606124f18381565b90565b611af9816124e5565b6080810161250b8287611aff565b6125186020830186611aff565b6125256040830185611b65565b61149160608301846124f4565b60006020828403121561254757612547600080fd5b60006118648484611e22565b60a081016125618288611aff565b61256e6020830187611aff565b61257b6040830186611b65565b61258860608301856124f4565b8181036080830152611c1181846123a9565b60a081016125a88288611aff565b6125b56020830187611aff565b6125c26040830186611b65565b6125886060830185611b65565b60a081016125dd8288611aff565b6125ea6020830187611aff565b6125f76040830186611b65565b61260460608301856124f4565b61261160808301846124f4565b9695505050505050565b602081016113608284611b65565b608081016126378287611aff565b6126446020830186611aff565b6126516040830185611b65565b6114916060830184611b65565b6040810161266c8285611aff565b6117c76020830184611aff565b801515611af9565b60a0810161268f8288611aff565b61269c6020830187611b65565b6126a96040830186611aff565b6126b66060830185611b65565b6126116080830184612679565b604081016126d18285611aff565b6117c76020830184611b65565b603681526000602082017f5361666545524332303a20617070726f76652066726f6d206e6f6e2d7a65726f81527520746f206e6f6e2d7a65726f20616c6c6f77616e636560501b60208201529150611c75565b60208082528101611360816126de565b602a81526000602082017f5361666545524332303a204552433230206f7065726174696f6e20646964206e8152691bdd081cdd58d8d9595960b21b60208201529150611c75565b6020808252810161136081612741565b602681526000602082017f416464726573733a20696e73756666696369656e742062616c616e636520666f8152651c8818d85b1b60d21b60208201529150611c75565b6020808252810161136081612798565b60006127f5825190565b6128038185602086016121a7565b9290920192915050565b60006117c782846127eb565b6020808252810161136081601d81527f416464726573733a2063616c6c20746f206e6f6e2d636f6e7472616374000000602082015260400190565b602080825281016117c781846121cb56","linkReferences":{}},"methodIdentifiers":{"action(address,bytes,bytes)":"a7a19e00","getIntegrationManager()":"e7c45690","parseAssetsForAction(address,bytes4,bytes)":"c54efee5"},"id":154}