{"abi":[{"type":"constructor","inputs":[{"name":"_fundDeployer","type":"address","internalType":"address"},{"name":"_gasRelayPaymasterFactory","type":"address","internalType":"address"}],"stateMutability":"nonpayable"},{"type":"function","name":"activateForFund","inputs":[{"name":"_isMigratedFund","type":"bool","internalType":"bool"}],"outputs":[],"stateMutability":"nonpayable"},{"type":"function","name":"deactivateForFund","inputs":[],"outputs":[],"stateMutability":"nonpayable"},{"type":"function","name":"disablePolicyForFund","inputs":[{"name":"_comptrollerProxy","type":"address","internalType":"address"},{"name":"_policy","type":"address","internalType":"address"}],"outputs":[],"stateMutability":"nonpayable"},{"type":"function","name":"enablePolicyForFund","inputs":[{"name":"_comptrollerProxy","type":"address","internalType":"address"},{"name":"_policy","type":"address","internalType":"address"},{"name":"_settingsData","type":"bytes","internalType":"bytes"}],"outputs":[],"stateMutability":"nonpayable"},{"type":"function","name":"getEnabledPoliciesForFund","inputs":[{"name":"_comptrollerProxy","type":"address","internalType":"address"}],"outputs":[{"name":"enabledPolicies_","type":"address[]","internalType":"address[]"}],"stateMutability":"view"},{"type":"function","name":"getEnabledPoliciesOnHookForFund","inputs":[{"name":"_comptrollerProxy","type":"address","internalType":"address"},{"name":"_hook","type":"uint8","internalType":"enum IPolicyManager.PolicyHook"}],"outputs":[{"name":"enabledPolicies_","type":"address[]","internalType":"address[]"}],"stateMutability":"view"},{"type":"function","name":"getFundDeployer","inputs":[],"outputs":[{"name":"fundDeployer_","type":"address","internalType":"address"}],"stateMutability":"view"},{"type":"function","name":"getGasRelayPaymasterFactory","inputs":[],"outputs":[{"name":"gasRelayPaymasterFactory_","type":"address","internalType":"address"}],"stateMutability":"view"},{"type":"function","name":"getGasRelayTrustedForwarder","inputs":[],"outputs":[{"name":"trustedForwarder_","type":"address","internalType":"address"}],"stateMutability":"view"},{"type":"function","name":"getOwner","inputs":[],"outputs":[{"name":"owner_","type":"address","internalType":"address"}],"stateMutability":"view"},{"type":"function","name":"getVaultProxyForFund","inputs":[{"name":"_comptrollerProxy","type":"address","internalType":"address"}],"outputs":[{"name":"vaultProxy_","type":"address","internalType":"address"}],"stateMutability":"view"},{"type":"function","name":"policyIsEnabledOnHookForFund","inputs":[{"name":"_comptrollerProxy","type":"address","internalType":"address"},{"name":"_hook","type":"uint8","internalType":"enum IPolicyManager.PolicyHook"},{"name":"_policy","type":"address","internalType":"address"}],"outputs":[{"name":"isEnabled_","type":"bool","internalType":"bool"}],"stateMutability":"view"},{"type":"function","name":"receiveCallFromComptroller","inputs":[{"name":"","type":"address","internalType":"address"},{"name":"","type":"uint256","internalType":"uint256"},{"name":"","type":"bytes","internalType":"bytes"}],"outputs":[],"stateMutability":"nonpayable"},{"type":"function","name":"setConfigForFund","inputs":[{"name":"_comptrollerProxy","type":"address","internalType":"address"},{"name":"_vaultProxy","type":"address","internalType":"address"},{"name":"_configData","type":"bytes","internalType":"bytes"}],"outputs":[],"stateMutability":"nonpayable"},{"type":"function","name":"updatePolicySettingsForFund","inputs":[{"name":"_comptrollerProxy","type":"address","internalType":"address"},{"name":"_policy","type":"address","internalType":"address"},{"name":"_settingsData","type":"bytes","internalType":"bytes"}],"outputs":[],"stateMutability":"nonpayable"},{"type":"function","name":"validatePolicies","inputs":[{"name":"_comptrollerProxy","type":"address","internalType":"address"},{"name":"_hook","type":"uint8","internalType":"enum IPolicyManager.PolicyHook"},{"name":"_validationData","type":"bytes","internalType":"bytes"}],"outputs":[],"stateMutability":"nonpayable"},{"type":"event","name":"PolicyDisabledOnHookForFund","inputs":[{"name":"comptrollerProxy","type":"address","indexed":true,"internalType":"address"},{"name":"policy","type":"address","indexed":true,"internalType":"address"},{"name":"hook","type":"uint8","indexed":true,"internalType":"enum IPolicyManager.PolicyHook"}],"anonymous":false},{"type":"event","name":"PolicyEnabledForFund","inputs":[{"name":"comptrollerProxy","type":"address","indexed":true,"internalType":"address"},{"name":"policy","type":"address","indexed":true,"internalType":"address"},{"name":"settingsData","type":"bytes","indexed":false,"internalType":"bytes"}],"anonymous":false},{"type":"event","name":"ValidatedVaultProxySetForFund","inputs":[{"name":"comptrollerProxy","type":"address","indexed":true,"internalType":"address"},{"name":"vaultProxy","type":"address","indexed":true,"internalType":"address"}],"anonymous":false}],"bytecode":{"object":"0x60c06040523480156200001157600080fd5b5060405162002fdd38038062002fdd8339818101604052810190620000379190620000ca565b8082808073ffffffffffffffffffffffffffffffffffffffff1660808173ffffffffffffffffffffffffffffffffffffffff1660601b8152505050508073ffffffffffffffffffffffffffffffffffffffff1660a08173ffffffffffffffffffffffffffffffffffffffff1660601b8152505050505062000159565b600081519050620000c4816200013f565b92915050565b60008060408385031215620000de57600080fd5b6000620000ee85828601620000b3565b92505060206200010185828601620000b3565b9150509250929050565b600062000118826200011f565b9050919050565b600073ffffffffffffffffffffffffffffffffffffffff82169050919050565b6200014a816200010b565b81146200015657600080fd5b50565b60805160601c60a05160601c612e556200018860003980611244525080611020528061121c5250612e556000f3fe608060405234801561001057600080fd5b50600436106101005760003560e01c806380d570631161009757806397c0ac871161006657806397c0ac87146102a9578063ac259456146102c7578063bd8e959a146102e5578063f067cc11146102ef57610100565b806380d570631461020f578063893d20e81461022b5780638aa740b4146102495780638af6d89e1461027957610100565b806346790346116100d3578063467903461461018957806348f35209146101b95780634ed28b3f146101d55780636ea21143146101f157610100565b80630442bad5146101055780631bee801e14610121578063248a2aab1461013d57806345d582e71461016d575b600080fd5b61011f600480360381019061011a91906121f7565b61030b565b005b61013b60048036038101906101369190612263565b6106ba565b005b610157600480360381019061015291906121a8565b6106f5565b6040516101649190612a4e565b60405180910390f35b610187600480360381019061018291906120c4565b61071c565b005b6101a3600480360381019061019e9190612072565b610a8b565b6040516101b0919061296f565b60405180910390f35b6101d360048036038101906101ce9190612100565b610af3565b005b6101ef60048036038101906101ea9190612100565b610d4d565b005b6101f9610ebe565b604051610206919061296f565b60405180910390f35b6102296004803603810190610224919061237c565b610fc7565b005b61023361101c565b604051610240919061296f565b60405180910390f35b610263600480360381019061025e919061216c565b6110c1565b6040516102709190612a2c565b60405180910390f35b610293600480360381019061028e9190612072565b6111b6565b6040516102a09190612a2c565b60405180910390f35b6102b1611218565b6040516102be919061296f565b60405180910390f35b6102cf611240565b6040516102dc919061296f565b60405180910390f35b6102ed611268565b005b61030960048036038101906103049190612100565b61126a565b005b606061031785856110c1565b905060008151141561032957506106b4565b8473ffffffffffffffffffffffffffffffffffffffff163373ffffffffffffffffffffffffffffffffffffffff16148061040b57508473ffffffffffffffffffffffffffffffffffffffff1663e7c456906040518163ffffffff1660e01b815260040160206040518083038186803b1580156103a457600080fd5b505afa1580156103b8573d6000803e3d6000fd5b505050506040513d601f19601f820116820180604052508101906103dc919061209b565b73ffffffffffffffffffffffffffffffffffffffff163373ffffffffffffffffffffffffffffffffffffffff16145b806104be57508473ffffffffffffffffffffffffffffffffffffffff1663b3fc38e96040518163ffffffff1660e01b815260040160206040518083038186803b15801561045757600080fd5b505afa15801561046b573d6000803e3d6000fd5b505050506040513d601f19601f8201168201806040525081019061048f919061209b565b73ffffffffffffffffffffffffffffffffffffffff163373ffffffffffffffffffffffffffffffffffffffff16145b6104fd576040517f08c379a00000000000000000000000000000000000000000000000000000000081526004016104f490612aed565b60405180910390fd5b60005b81518110156106b15781818151811061051557fe5b602002602001015173ffffffffffffffffffffffffffffffffffffffff1663579be718878787876040518563ffffffff1660e01b815260040161055b94939291906129ec565b602060405180830381600087803b15801561057557600080fd5b505af1158015610589573d6000803e3d6000fd5b505050506040513d601f19601f820116820180604052508101906105ad91906123a5565b8282815181106105b957fe5b602002602001015173ffffffffffffffffffffffffffffffffffffffff16637998a1c46040518163ffffffff1660e01b815260040160006040518083038186803b15801561060657600080fd5b505afa15801561061a573d6000803e3d6000fd5b505050506040513d6000823e3d601f19601f8201168201806040525081019061064391906123ce565b604051602001610653919061294d565b604051602081830303815290604052906106a3576040517f08c379a000000000000000000000000000000000000000000000000000000000815260040161069a9190612a8b565b60405180910390fd5b508080600101915050610500565b50505b50505050565b6040517f08c379a00000000000000000000000000000000000000000000000000000000081526004016106ec90612b0d565b60405180910390fd5b60006107138261070586866110c1565b61143e90919063ffffffff16565b90509392505050565b8161072681610a8b565b73ffffffffffffffffffffffffffffffffffffffff1663893d20e86040518163ffffffff1660e01b815260040160206040518083038186803b15801561076b57600080fd5b505afa15801561077f573d6000803e3d6000fd5b505050506040513d601f19601f820116820180604052508101906107a3919061209b565b73ffffffffffffffffffffffffffffffffffffffff166107c16114b5565b73ffffffffffffffffffffffffffffffffffffffff1614610817576040517f08c379a000000000000000000000000000000000000000000000000000000000815260040161080e90612b8d565b60405180910390fd5b8173ffffffffffffffffffffffffffffffffffffffff16631ef925786040518163ffffffff1660e01b815260040160206040518083038186803b15801561085d57600080fd5b505afa158015610871573d6000803e3d6000fd5b505050506040513d601f19601f8201168201806040525081019061089591906123a5565b6108d4576040517f08c379a00000000000000000000000000000000000000000000000000000000081526004016108cb90612b4d565b60405180910390fd5b60608273ffffffffffffffffffffffffffffffffffffffff1663cbf54bb26040518163ffffffff1660e01b815260040160006040518083038186803b15801561091c57600080fd5b505afa158015610930573d6000803e3d6000fd5b505050506040513d6000823e3d601f19601f82011682018060405250810190610959919061233b565b905060005b8151811015610a845760006109f485600160008973ffffffffffffffffffffffffffffffffffffffff1673ffffffffffffffffffffffffffffffffffffffff16815260200190815260200160002060008686815181106109ba57fe5b602002602001015160098111156109cd57fe5b60098111156109d857fe5b815260200190815260200160002061151990919063ffffffff16565b90508015610a7657828281518110610a0857fe5b60200260200101516009811115610a1b57fe5b8573ffffffffffffffffffffffffffffffffffffffff168773ffffffffffffffffffffffffffffffffffffffff167f672fd0d75642b1e8875f32a1c3f8197c03288c7215329c9a99336feafb801c0260405160405180910390a45b50808060010191505061095e565b5050505050565b60008060008373ffffffffffffffffffffffffffffffffffffffff1673ffffffffffffffffffffffffffffffffffffffff16815260200190815260200160002060009054906101000a900473ffffffffffffffffffffffffffffffffffffffff169050919050565b83610afd81610a8b565b73ffffffffffffffffffffffffffffffffffffffff1663893d20e86040518163ffffffff1660e01b815260040160206040518083038186803b158015610b4257600080fd5b505afa158015610b56573d6000803e3d6000fd5b505050506040513d601f19601f82011682018060405250810190610b7a919061209b565b73ffffffffffffffffffffffffffffffffffffffff16610b986114b5565b73ffffffffffffffffffffffffffffffffffffffff1614610bee576040517f08c379a0000000000000000000000000000000000000000000000000000000008152600401610be590612b8d565b60405180910390fd5b60608473ffffffffffffffffffffffffffffffffffffffff1663cbf54bb26040518163ffffffff1660e01b815260040160006040518083038186803b158015610c3657600080fd5b505afa158015610c4a573d6000803e3d6000fd5b505050506040513d6000823e3d601f19601f82011682018060405250810190610c73919061233b565b905060005b8151811015610cea57610c9d828281518110610c9057fe5b602002602001015161168f565b15610cdd576040517f08c379a0000000000000000000000000000000000000000000000000000000008152600401610cd490612aad565b60405180910390fd5b8080600101915050610c78565b50610d3b868686868080601f016020809104026020016040519081016040528093929190818152602001838380828437600081840152601f19601f82011690508083019250505050505050846116d3565b610d458686611908565b505050505050565b83610d5781610a8b565b73ffffffffffffffffffffffffffffffffffffffff1663893d20e86040518163ffffffff1660e01b815260040160206040518083038186803b158015610d9c57600080fd5b505afa158015610db0573d6000803e3d6000fd5b505050506040513d601f19601f82011682018060405250810190610dd4919061209b565b73ffffffffffffffffffffffffffffffffffffffff16610df26114b5565b73ffffffffffffffffffffffffffffffffffffffff1614610e48576040517f08c379a0000000000000000000000000000000000000000000000000000000008152600401610e3f90612b8d565b60405180910390fd5b8373ffffffffffffffffffffffffffffffffffffffff16630d4d75108685856040518463ffffffff1660e01b8152600401610e859392919061298a565b600060405180830381600087803b158015610e9f57600080fd5b505af1158015610eb3573d6000803e3d6000fd5b505050505050505050565b6000610ec8611240565b73ffffffffffffffffffffffffffffffffffffffff166398a7c4c76040518163ffffffff1660e01b815260040160206040518083038186803b158015610f0d57600080fd5b505afa158015610f21573d6000803e3d6000fd5b505050506040513d601f19601f82011682018060405250810190610f45919061209b565b73ffffffffffffffffffffffffffffffffffffffff16637da0a8776040518163ffffffff1660e01b815260040160206040518083038186803b158015610f8a57600080fd5b505afa158015610f9e573d6000803e3d6000fd5b505050506040513d601f19601f82011682018060405250810190610fc2919061209b565b905090565b60003390508115611018576060610fdd826111b6565b905060005b81518110156110155761100883838381518110610ffb57fe5b6020026020010151611908565b8080600101915050610fe2565b50505b5050565b60007f000000000000000000000000000000000000000000000000000000000000000073ffffffffffffffffffffffffffffffffffffffff1663893d20e86040518163ffffffff1660e01b815260040160206040518083038186803b15801561108457600080fd5b505afa158015611098573d6000803e3d6000fd5b505050506040513d601f19601f820116820180604052508101906110bc919061209b565b905090565b6060600160008473ffffffffffffffffffffffffffffffffffffffff1673ffffffffffffffffffffffffffffffffffffffff168152602001908152602001600020600083600981111561111057fe5b600981111561111b57fe5b81526020019081526020016000208054806020026020016040519081016040528092919081815260200182805480156111a957602002820191906000526020600020905b8160009054906101000a900473ffffffffffffffffffffffffffffffffffffffff1673ffffffffffffffffffffffffffffffffffffffff168152602001906001019080831161115f575b5050505050905092915050565b60606111c0611d50565b6111c8611977565b905060005b600a811015611211576112026111f3858484600a81106111e957fe5b60200201516110c1565b84611aaf90919063ffffffff16565b925080806001019150506111cd565b5050919050565b60007f0000000000000000000000000000000000000000000000000000000000000000905090565b60007f0000000000000000000000000000000000000000000000000000000000000000905090565b565b611272611218565b73ffffffffffffffffffffffffffffffffffffffff163373ffffffffffffffffffffffffffffffffffffffff16146112df576040517f08c379a00000000000000000000000000000000000000000000000000000000081526004016112d690612b2d565b60405180910390fd5b6112e98484611c75565b60008282905014156112fa57611438565b606080838381019061130c91906122cf565b915091508051825114611354576040517f08c379a000000000000000000000000000000000000000000000000000000000815260040161134b90612acd565b60405180910390fd5b60005b8251811015611434576114278784838151811061137057fe5b602002602001015184848151811061138457fe5b602002602001015186858151811061139857fe5b602002602001015173ffffffffffffffffffffffffffffffffffffffff1663cbf54bb26040518163ffffffff1660e01b815260040160006040518083038186803b1580156113e557600080fd5b505afa1580156113f9573d6000803e3d6000fd5b505050506040513d6000823e3d601f19601f82011682018060405250810190611422919061233b565b6116d3565b8080600101915050611357565b5050505b50505050565b6000805b83518110156114a95783818151811061145757fe5b602002602001015173ffffffffffffffffffffffffffffffffffffffff168373ffffffffffffffffffffffffffffffffffffffff16141561149c5760019150506114af565b8080600101915050611442565b50600090505b92915050565b600060186000369050101580156114fe57506114cf610ebe565b73ffffffffffffffffffffffffffffffffffffffff163373ffffffffffffffffffffffffffffffffffffffff16145b1561151257601436033560601c9050611516565b3390505b90565b6000808380549050905060005b81811015611687578373ffffffffffffffffffffffffffffffffffffffff1685828154811061155157fe5b9060005260206000200160009054906101000a900473ffffffffffffffffffffffffffffffffffffffff1673ffffffffffffffffffffffffffffffffffffffff16141561167a5760018203811015611632578460018303815481106115b257fe5b9060005260206000200160009054906101000a900473ffffffffffffffffffffffffffffffffffffffff168582815481106115e957fe5b9060005260206000200160006101000a81548173ffffffffffffffffffffffffffffffffffffffff021916908373ffffffffffffffffffffffffffffffffffffffff1602179055505b8480548061163c57fe5b6001900381819060005260206000200160006101000a81549073ffffffffffffffffffffffffffffffffffffffff0219169055905560019250611687565b8080600101915050611526565b505092915050565b60006002600981111561169e57fe5b8260098111156116aa57fe5b14806116cc5750600360098111156116be57fe5b8260098111156116ca57fe5b145b9050919050565b60008251111561174b578273ffffffffffffffffffffffffffffffffffffffff16630f5f6b4f85846040518363ffffffff1660e01b81526004016117189291906129bc565b600060405180830381600087803b15801561173257600080fd5b505af1158015611746573d6000803e3d6000fd5b505050505b60005b815181101561189c576117758583838151811061176757fe5b6020026020010151866106f5565b156117b5576040517f08c379a00000000000000000000000000000000000000000000000000000000081526004016117ac90612b6d565b60405180910390fd5b600160008673ffffffffffffffffffffffffffffffffffffffff1673ffffffffffffffffffffffffffffffffffffffff168152602001908152602001600020600083838151811061180257fe5b6020026020010151600981111561181557fe5b600981111561182057fe5b8152602001908152602001600020849080600181540180825580915050600190039060005260206000200160009091909190916101000a81548173ffffffffffffffffffffffffffffffffffffffff021916908373ffffffffffffffffffffffffffffffffffffffff160217905550808060010191505061174e565b508273ffffffffffffffffffffffffffffffffffffffff168473ffffffffffffffffffffffffffffffffffffffff167faa4df4fe117c520783cfff01c11283496ff2999c77c2a9b800808251a9a0332a846040516118fa9190612a69565b60405180910390a350505050565b8073ffffffffffffffffffffffffffffffffffffffff1663ceb9a0ad836040518263ffffffff1660e01b8152600401611941919061296f565b600060405180830381600087803b15801561195b57600080fd5b505af115801561196f573d6000803e3d6000fd5b505050505050565b61197f611d50565b6040518061014001604052806000600981111561199857fe5b60098111156119a357fe5b8152602001600160098111156119b557fe5b60098111156119c057fe5b8152602001600260098111156119d257fe5b60098111156119dd57fe5b8152602001600360098111156119ef57fe5b60098111156119fa57fe5b815260200160046009811115611a0c57fe5b6009811115611a1757fe5b815260200160056009811115611a2957fe5b6009811115611a3457fe5b815260200160066009811115611a4657fe5b6009811115611a5157fe5b815260200160076009811115611a6357fe5b6009811115611a6e57fe5b815260200160086009811115611a8057fe5b6009811115611a8b57fe5b8152602001600980811115611a9c57fe5b6009811115611aa757fe5b815250905090565b60606000805b8351811015611af557611adb85858381518110611ace57fe5b602002602001015161143e565b611ae85781806001019250505b8080600101915050611ab5565b506000811415611b085783915050611c6f565b8084510167ffffffffffffffff81118015611b2257600080fd5b50604051908082528060200260200182016040528015611b515781602001602082028036833780820191505090505b50915060005b8451811015611bc757848181518110611b6c57fe5b6020026020010151838281518110611b8057fe5b602002602001019073ffffffffffffffffffffffffffffffffffffffff16908173ffffffffffffffffffffffffffffffffffffffff16815250508080600101915050611b57565b5060008451905060005b8451811015611c6b57611bf786868381518110611bea57fe5b602002602001015161143e565b611c5e57848181518110611c0757fe5b6020026020010151848381518110611c1b57fe5b602002602001019073ffffffffffffffffffffffffffffffffffffffff16908173ffffffffffffffffffffffffffffffffffffffff168152505081806001019250505b8080600101915050611bd1565b5050505b92915050565b806000808473ffffffffffffffffffffffffffffffffffffffff1673ffffffffffffffffffffffffffffffffffffffff16815260200190815260200160002060006101000a81548173ffffffffffffffffffffffffffffffffffffffff021916908373ffffffffffffffffffffffffffffffffffffffff1602179055508073ffffffffffffffffffffffffffffffffffffffff168273ffffffffffffffffffffffffffffffffffffffff167f8852dcaa71340ea616a65ffac013450dfb238607481fb9d78346c667fe256c1360405160405180910390a35050565b604051806101400160405280600a90602082028036833780820191505090505090565b600081359050611d8281612df3565b92915050565b600081519050611d9781612df3565b92915050565b600082601f830112611dae57600080fd5b8135611dc1611dbc82612bda565b612bad565b91508181835260208401935060208101905083856020840282011115611de657600080fd5b60005b83811015611e165781611dfc8882611d73565b845260208401935060208301925050600181019050611de9565b5050505092915050565b600082601f830112611e3157600080fd5b8135611e44611e3f82612c02565b612bad565b9150818183526020840193506020810190508360005b83811015611e8a5781358601611e708882611f8b565b845260208401935060208301925050600181019050611e5a565b5050505092915050565b600082601f830112611ea557600080fd5b8151611eb8611eb382612c2a565b612bad565b91508181835260208401935060208101905083856020840282011115611edd57600080fd5b60005b83811015611f0d5781611ef38882611ff4565b845260208401935060208301925050600181019050611ee0565b5050505092915050565b600081359050611f2681612e0a565b92915050565b600081519050611f3b81612e0a565b92915050565b60008083601f840112611f5357600080fd5b8235905067ffffffffffffffff811115611f6c57600080fd5b602083019150836001820283011115611f8457600080fd5b9250929050565b600082601f830112611f9c57600080fd5b8135611faf611faa82612c52565b612bad565b91508082526020830160208301858383011115611fcb57600080fd5b611fd6838284612d93565b50505092915050565b600081359050611fee81612e21565b92915050565b60008151905061200381612e21565b92915050565b600082601f83011261201a57600080fd5b815161202d61202882612c7e565b612bad565b9150808252602083016020830185838301111561204957600080fd5b612054838284612da2565b50505092915050565b60008135905061206c81612e31565b92915050565b60006020828403121561208457600080fd5b600061209284828501611d73565b91505092915050565b6000602082840312156120ad57600080fd5b60006120bb84828501611d88565b91505092915050565b600080604083850312156120d757600080fd5b60006120e585828601611d73565b92505060206120f685828601611d73565b9150509250929050565b6000806000806060858703121561211657600080fd5b600061212487828801611d73565b945050602061213587828801611d73565b935050604085013567ffffffffffffffff81111561215257600080fd5b61215e87828801611f41565b925092505092959194509250565b6000806040838503121561217f57600080fd5b600061218d85828601611d73565b925050602061219e85828601611fdf565b9150509250929050565b6000806000606084860312156121bd57600080fd5b60006121cb86828701611d73565b93505060206121dc86828701611fdf565b92505060406121ed86828701611d73565b9150509250925092565b6000806000806060858703121561220d57600080fd5b600061221b87828801611d73565b945050602061222c87828801611fdf565b935050604085013567ffffffffffffffff81111561224957600080fd5b61225587828801611f41565b925092505092959194509250565b6000806000806060858703121561227957600080fd5b600061228787828801611d73565b94505060206122988782880161205d565b935050604085013567ffffffffffffffff8111156122b557600080fd5b6122c187828801611f41565b925092505092959194509250565b600080604083850312156122e257600080fd5b600083013567ffffffffffffffff8111156122fc57600080fd5b61230885828601611d9d565b925050602083013567ffffffffffffffff81111561232557600080fd5b61233185828601611e20565b9150509250929050565b60006020828403121561234d57600080fd5b600082015167ffffffffffffffff81111561236757600080fd5b61237384828501611e94565b91505092915050565b60006020828403121561238e57600080fd5b600061239c84828501611f17565b91505092915050565b6000602082840312156123b757600080fd5b60006123c584828501611f2c565b91505092915050565b6000602082840312156123e057600080fd5b600082015167ffffffffffffffff8111156123fa57600080fd5b61240684828501612009565b91505092915050565b600061241b8383612427565b60208301905092915050565b61243081612d26565b82525050565b61243f81612d26565b82525050565b600061245082612cba565b61245a8185612ce8565b935061246583612caa565b8060005b8381101561249657815161247d888261240f565b975061248883612cdb565b925050600181019050612469565b5085935050505092915050565b6124ac81612d38565b82525050565b60006124be8385612cf9565b93506124cb838584612d93565b6124d483612dd5565b840190509392505050565b60006124ea82612cc5565b6124f48185612cf9565b9350612504818560208601612da2565b61250d81612dd5565b840191505092915050565b61252181612d81565b82525050565b600061253282612cd0565b61253c8185612d0a565b935061254c818560208601612da2565b61255581612dd5565b840191505092915050565b600061256b82612cd0565b6125758185612d1b565b9350612585818560208601612da2565b80840191505092915050565b600061259e604383612d0a565b91507f656e61626c65506f6c696379466f7246756e643a205f706f6c6963792072657360008301527f74726963747320616374696f6e73206f662063757272656e7420696e7665737460208301527f6f727300000000000000000000000000000000000000000000000000000000006040830152606082019050919050565b600061262a604183612d0a565b91507f736574436f6e666967466f7246756e643a20706f6c696369657320616e64207360008301527f657474696e677344617461206172726179206c656e6774687320756e6571756160208301527f6c000000000000000000000000000000000000000000000000000000000000006040830152606082019050919050565b60006126b6601983612d1b565b91507f52756c65206576616c756174656420746f2066616c73653a20000000000000006000830152601982019050919050565b60006126f6602483612d0a565b91507f76616c6964617465506f6c69636965733a2043616c6c6572206e6f7420616c6c60008301527f6f776564000000000000000000000000000000000000000000000000000000006020830152604082019050919050565b600061275c603783612d0a565b91507f7265636569766543616c6c46726f6d436f6d7074726f6c6c65723a20556e696d60008301527f706c656d656e74656420666f7220457874656e73696f6e0000000000000000006020830152604082019050919050565b60006127c2602883612d0a565b91507f4f6e6c79207468652046756e644465706c6f7965722063616e206d616b65207460008301527f6869732063616c6c0000000000000000000000000000000000000000000000006020830152604082019050919050565b6000612828603083612d0a565b91507f64697361626c65506f6c696379466f7246756e643a205f706f6c69637920636160008301527f6e6e6f742062652064697361626c6564000000000000000000000000000000006020830152604082019050919050565b600061288e603083612d0a565b91507f5f5f656e61626c65506f6c696379466f7246756e643a20506f6c69637920697360008301527f20616c726561647920656e61626c6564000000000000000000000000000000006020830152604082019050919050565b60006128f4602a83612d0a565b91507f4f6e6c79207468652066756e64206f776e65722063616e2063616c6c2074686960008301527f732066756e6374696f6e000000000000000000000000000000000000000000006020830152604082019050919050565b6000612958826126a9565b91506129648284612560565b915081905092915050565b60006020820190506129846000830184612436565b92915050565b600060408201905061299f6000830186612436565b81810360208301526129b28184866124b2565b9050949350505050565b60006040820190506129d16000830185612436565b81810360208301526129e381846124df565b90509392505050565b6000606082019050612a016000830187612436565b612a0e6020830186612518565b8181036040830152612a218184866124b2565b905095945050505050565b60006020820190508181036000830152612a468184612445565b905092915050565b6000602082019050612a6360008301846124a3565b92915050565b60006020820190508181036000830152612a8381846124df565b905092915050565b60006020820190508181036000830152612aa58184612527565b905092915050565b60006020820190508181036000830152612ac681612591565b9050919050565b60006020820190508181036000830152612ae68161261d565b9050919050565b60006020820190508181036000830152612b06816126e9565b9050919050565b60006020820190508181036000830152612b268161274f565b9050919050565b60006020820190508181036000830152612b46816127b5565b9050919050565b60006020820190508181036000830152612b668161281b565b9050919050565b60006020820190508181036000830152612b8681612881565b9050919050565b60006020820190508181036000830152612ba6816128e7565b9050919050565b6000604051905081810181811067ffffffffffffffff82111715612bd057600080fd5b8060405250919050565b600067ffffffffffffffff821115612bf157600080fd5b602082029050602081019050919050565b600067ffffffffffffffff821115612c1957600080fd5b602082029050602081019050919050565b600067ffffffffffffffff821115612c4157600080fd5b602082029050602081019050919050565b600067ffffffffffffffff821115612c6957600080fd5b601f19601f8301169050602081019050919050565b600067ffffffffffffffff821115612c9557600080fd5b601f19601f8301169050602081019050919050565b6000819050602082019050919050565b600081519050919050565b600081519050919050565b600081519050919050565b6000602082019050919050565b600082825260208201905092915050565b600082825260208201905092915050565b600082825260208201905092915050565b600081905092915050565b6000612d3182612d57565b9050919050565b60008115159050919050565b6000819050612d5282612de6565b919050565b600073ffffffffffffffffffffffffffffffffffffffff82169050919050565b6000819050919050565b6000612d8c82612d44565b9050919050565b82818337600083830152505050565b60005b83811015612dc0578082015181840152602081019050612da5565b83811115612dcf576000848401525b50505050565b6000601f19601f8301169050919050565b600a8110612df057fe5b50565b612dfc81612d26565b8114612e0757600080fd5b50565b612e1381612d38565b8114612e1e57600080fd5b50565b600a8110612e2e57600080fd5b50565b612e3a81612d77565b8114612e4557600080fd5b5056fea164736f6c634300060c000a","linkReferences":{}},"methodIdentifiers":{"activateForFund(bool)":"80d57063","deactivateForFund()":"bd8e959a","disablePolicyForFund(address,address)":"45d582e7","enablePolicyForFund(address,address,bytes)":"48f35209","getEnabledPoliciesForFund(address)":"8af6d89e","getEnabledPoliciesOnHookForFund(address,uint8)":"8aa740b4","getFundDeployer()":"97c0ac87","getGasRelayPaymasterFactory()":"ac259456","getGasRelayTrustedForwarder()":"6ea21143","getOwner()":"893d20e8","getVaultProxyForFund(address)":"46790346","policyIsEnabledOnHookForFund(address,uint8,address)":"248a2aab","receiveCallFromComptroller(address,uint256,bytes)":"1bee801e","setConfigForFund(address,address,bytes)":"f067cc11","updatePolicySettingsForFund(address,address,bytes)":"4ed28b3f","validatePolicies(address,uint8,bytes)":"0442bad5"},"id":250}