{"abi":[{"type":"constructor","inputs":[{"name":"_dispatcher","type":"address","internalType":"address"},{"name":"_implementation","type":"address","internalType":"address"}],"stateMutability":"nonpayable"},{"type":"function","name":"deploy","inputs":[{"name":"_pid","type":"uint256","internalType":"uint256"}],"outputs":[{"name":"wrapperProxy_","type":"address","internalType":"address"}],"stateMutability":"nonpayable"},{"type":"function","name":"getCurveLpTokenForWrapper","inputs":[{"name":"_wrapper","type":"address","internalType":"address"}],"outputs":[{"name":"lpToken_","type":"address","internalType":"address"}],"stateMutability":"view"},{"type":"function","name":"getOwner","inputs":[],"outputs":[{"name":"owner_","type":"address","internalType":"address"}],"stateMutability":"view"},{"type":"function","name":"getWrapperForConvexPool","inputs":[{"name":"_pid","type":"uint256","internalType":"uint256"}],"outputs":[{"name":"wrapper_","type":"address","internalType":"address"}],"stateMutability":"view"},{"type":"function","name":"implementation","inputs":[],"outputs":[{"name":"","type":"address","internalType":"address"}],"stateMutability":"view"},{"type":"function","name":"pauseWrappers","inputs":[{"name":"_wrappers","type":"address[]","internalType":"address[]"}],"outputs":[],"stateMutability":"nonpayable"},{"type":"function","name":"setImplementation","inputs":[{"name":"_nextImplementation","type":"address","internalType":"address"}],"outputs":[],"stateMutability":"nonpayable"},{"type":"function","name":"unpauseWrappers","inputs":[{"name":"_wrappers","type":"address[]","internalType":"address[]"}],"outputs":[],"stateMutability":"nonpayable"},{"type":"event","name":"ImplementationSet","inputs":[{"name":"implementation","type":"address","indexed":false,"internalType":"address"}],"anonymous":false},{"type":"event","name":"ProxyDeployed","inputs":[{"name":"proxy","type":"address","indexed":false,"internalType":"address"}],"anonymous":false},{"type":"event","name":"WrapperDeployed","inputs":[{"name":"pid","type":"uint256","indexed":true,"internalType":"uint256"},{"name":"wrapperProxy","type":"address","indexed":false,"internalType":"address"},{"name":"curveLpToken","type":"address","indexed":false,"internalType":"address"}],"anonymous":false}],"bytecode":{"object":"0x60a060405234801561001057600080fd5b5060405161128138038061128183398101604081905261002f9161008c565b6001600160a01b03918216608052600080546001600160a01b031916919092161790556100c9565b60006001600160a01b0382165b92915050565b61007381610057565b811461007e57600080fd5b50565b80516100648161006a565b600080604083850312156100a2576100a2600080fd5b60006100ae8585610081565b92505060206100bf85828601610081565b9150509250929050565b60805161119d6100e4600039600061018b015261119d6000f3fe60806040523480156200001157600080fd5b5060043610620000935760003560e01c80638aeb8b8411620000625780638aeb8b84146200012957806397b02f0c1462000142578063a5e387511462000159578063d784d426146200017057600080fd5b80631c25201c1462000098578063456b4a3714620000dc5780635c60da1b146200010b578063893d20e8146200011f575b600080fd5b620000c4620000a9366004620006d9565b6000908152600160205260409020546001600160a01b031690565b604051620000d3919062000729565b60405180910390f35b620000c4620000ed36600462000751565b6001600160a01b039081166000908152600260205260409020541690565b600054620000c4906001600160a01b031681565b620000c462000187565b620001406200013a366004620007ce565b62000213565b005b6200014062000153366004620007ce565b6200030e565b620000c46200016a366004620006d9565b620003fb565b620001406200018136600462000751565b62000595565b60007f00000000000000000000000000000000000000000000000000000000000000006001600160a01b031663893d20e86040518163ffffffff1660e01b8152600401602060405180830381865afa158015620001e8573d6000803e3d6000fd5b505050506040513d601f19601f820116820180604052508101906200020e919062000829565b905090565b6200021d62000187565b6001600160a01b0316336001600160a01b031614620002595760405162461bcd60e51b8152600401620002509062000871565b60405180910390fd5b60005b8181101562000309578282828181106200027a576200027a62000883565b905060200201602081019062000291919062000751565b6001600160a01b03166357d159c660006040518263ffffffff1660e01b8152600401620002bf9190620008a2565b600060405180830381600087803b158015620002da57600080fd5b505af1158015620002ef573d6000803e3d6000fd5b5050505080806200030090620008c8565b9150506200025c565b505050565b6200031862000187565b6001600160a01b0316336001600160a01b0316146200034b5760405162461bcd60e51b8152600401620002509062000871565b60005b8181101562000309578282828181106200036c576200036c62000883565b905060200201602081019062000383919062000751565b6001600160a01b03166357d159c660016040518263ffffffff1660e01b8152600401620003b19190620008a2565b600060405180830381600087803b158015620003cc57600080fd5b505af1158015620003e1573d6000803e3d6000fd5b505050508080620003f290620008c8565b9150506200034e565b6000818152600160205260408120546001600160a01b031615620004335760405162461bcd60e51b815260040162000250906200091a565b600063b7b0422d60e01b8360405160240162000450919062000933565b60408051601f198184030181529190526020810180516001600160e01b03166001600160e01b03199093169290921790915290506200048f816200062a565b600084815260016020908152604080832080546001600160a01b0319166001600160a01b0386169081179091558151632e266ba960e21b81529151949650929363b899aea4926004808401939192918290030181865afa158015620004f8573d6000803e3d6000fd5b505050506040513d601f19601f820116820180604052508101906200051e919062000829565b6001600160a01b038481166000908152600260205260409081902080546001600160a01b031916928416929092179091555190915084907fe547dfbae0eb3c2c335669b841fa076eb2a1a64eab9bd2fb49868b5e624586f19062000586908690859062000943565b60405180910390a25050919050565b6200059f62000187565b6001600160a01b0316336001600160a01b031614620005d25760405162461bcd60e51b8152600401620002509062000871565b600080546001600160a01b0319166001600160a01b0383161790556040517fab64f92ab780ecbf4f3866f57cee465ff36c89450dcce20237ca7a8d81fb7d13906200061f90839062000729565b60405180910390a150565b600030826040516200063c90620006a7565b62000649929190620009c4565b604051809103906000f08015801562000666573d6000803e3d6000fd5b5090507fe542a942474a745be15595bbad9536fc3040d687435b060b2b9f07c1b7449818816040516200069a919062000729565b60405180910390a1919050565b6107b480620009e983390190565b805b8114620006c357600080fd5b50565b8035620006d381620006b5565b92915050565b600060208284031215620006f057620006f0600080fd5b6000620006fe8484620006c6565b949350505050565b60006001600160a01b038216620006d3565b620007238162000706565b82525050565b60208101620006d3828462000718565b620006b78162000706565b8035620006d38162000739565b600060208284031215620007685762000768600080fd5b6000620006fe848462000744565b60008083601f8401126200078d576200078d600080fd5b50813567ffffffffffffffff811115620007aa57620007aa600080fd5b602083019150836020820283011115620007c757620007c7600080fd5b9250929050565b60008060208385031215620007e657620007e6600080fd5b823567ffffffffffffffff811115620008025762000802600080fd5b620008108582860162000776565b92509250509250929050565b8051620006d38162000739565b600060208284031215620008405762000840600080fd5b6000620006fe84846200081c565b600981526000602082016837b7363ca7bbb732b960b91b815291505b5060200190565b60208082528101620006d3816200084e565b634e487b7160e01b600052603260045260246000fd5b80151562000723565b60208101620006d3828462000899565b634e487b7160e01b600052601160045260246000fd5b60006000198203620008de57620008de620008b2565b5060010190565b601e81526000602082017f6465706c6f793a205772617070657220616c7265616479206578697374730000815291506200086a565b60208082528101620006d381620008e5565b8062000723565b60208101620006d382846200092c565b6040810162000953828562000718565b62000962602083018462000718565b9392505050565b60005b83811015620009865781810151838201526020016200096c565b50506000910152565b60006200099a825190565b808452602084019350620009b381856020860162000969565b601f01601f19169290920192915050565b60408101620009d4828562000718565b8181036020830152620006fe81846200098f56fe60806040526040516107b43803806107b48339810160408190526100229161045d565b61002e82826000610035565b505061063a565b61003e836100f6565b6040516001600160a01b038416907f1cf3b03a6cf19fa2baba4df148e9dcabedea7f8a5c07840e207e5c089be95d3e90600090a260008251118061007f5750805b156100f1576100ef836001600160a01b0316635c60da1b6040518163ffffffff1660e01b8152600401602060405180830381865afa1580156100c5573d6000803e3d6000fd5b505050506040513d601f19601f820116820180604052508101906100e991906104b4565b836101f7565b505b505050565b6001600160a01b0381163b6101265760405162461bcd60e51b815260040161011d9061051a565b60405180910390fd5b61019a816001600160a01b0316635c60da1b6040518163ffffffff1660e01b8152600401602060405180830381865afa158015610167573d6000803e3d6000fd5b505050506040513d601f19601f8201168201806040525081019061018b91906104b4565b6001600160a01b03163b151590565b6101b65760405162461bcd60e51b815260040161011d90610577565b7fa3f0ad74e5423aebfd80d3ef4346578335a9a72aeaee59ff6cb3582b35133d5080546001600160a01b0319166001600160a01b0392909216919091179055565b606061021c838360405180606001604052806027815260200161078d60279139610225565b90505b92915050565b6060600080856001600160a01b03168560405161024291906105a9565b600060405180830381855af49150503d806000811461027d576040519150601f19603f3d011682016040523d82523d6000602084013e610282565b606091505b5090925090506102948683838761029e565b9695505050505050565b606083156102dd5782516000036102d6576001600160a01b0385163b6102d65760405162461bcd60e51b815260040161011d906105bc565b50816102e7565b6102e783836102ef565b949350505050565b8151156102ff5781518083602001fd5b8060405162461bcd60e51b815260040161011d9190610629565b60006001600160a01b03821661021f565b61033381610319565b811461033e57600080fd5b50565b805161021f8161032a565b634e487b7160e01b600052604160045260246000fd5b601f19601f83011681018181106001600160401b03821117156103875761038761034c565b6040525050565b600061039960405190565b90506103a58282610362565b919050565b60006001600160401b038211156103c3576103c361034c565b601f19601f83011660200192915050565b60005b838110156103ef5781810151838201526020016103d7565b50506000910152565b600061040b610406846103aa565b61038e565b90508281526020810184848401111561042657610426600080fd5b6104318482856103d4565b509392505050565b600082601f83011261044d5761044d600080fd5b81516102e78482602086016103f8565b6000806040838503121561047357610473600080fd5b600061047f8585610341565b92505060208301516001600160401b0381111561049e5761049e600080fd5b6104aa85828601610439565b9150509250929050565b6000602082840312156104c9576104c9600080fd5b60006102e78484610341565b602581526000602082017f455243313936373a206e657720626561636f6e206973206e6f74206120636f6e8152641d1c9858dd60da1b602082015291505b5060400190565b6020808252810161021f816104d5565b603081526000602082017f455243313936373a20626561636f6e20696d706c656d656e746174696f6e206981526f1cc81b9bdd08184818dbdb9d1c9858dd60821b60208201529150610513565b6020808252810161021f8161052a565b6000610591825190565b61059f8185602086016103d4565b9290920192915050565b60006105b58284610587565b9392505050565b6020808252810161021f81601d81527f416464726573733a2063616c6c20746f206e6f6e2d636f6e7472616374000000602082015260400190565b6000610601825190565b8084526020840193506106188185602086016103d4565b601f01601f19169290920192915050565b6020808252810161021c81846105f7565b610144806106496000396000f3fe60806040523661001357610011610017565b005b6100115b610027610022610029565b6100c2565b565b600061005c7fa3f0ad74e5423aebfd80d3ef4346578335a9a72aeaee59ff6cb3582b35133d50546001600160a01b031690565b6001600160a01b0316635c60da1b6040518163ffffffff1660e01b8152600401602060405180830381865afa158015610099573d6000803e3d6000fd5b505050506040513d601f19601f820116820180604052508101906100bd919061011b565b905090565b3660008037600080366000845af43d6000803e8080156100e1573d6000f35b3d6000fd5b60006001600160a01b0382165b92915050565b610102816100e6565b811461010d57600080fd5b50565b80516100f3816100f9565b60006020828403121561013057610130600080fd5b600061013c8484610110565b94935050505056416464726573733a206c6f772d6c6576656c2064656c65676174652063616c6c206661696c6564","linkReferences":{}},"methodIdentifiers":{"deploy(uint256)":"a5e38751","getCurveLpTokenForWrapper(address)":"456b4a37","getOwner()":"893d20e8","getWrapperForConvexPool(uint256)":"1c25201c","implementation()":"5c60da1b","pauseWrappers(address[])":"97b02f0c","setImplementation(address)":"d784d426","unpauseWrappers(address[])":"8aeb8b84"},"id":31}