{"abi":[{"type":"function","name":"buyBackSharesViaTrustedVaultProxy","inputs":[{"name":"_sharesAmount","type":"uint256","internalType":"uint256"},{"name":"_mlnValue","type":"uint256","internalType":"uint256"},{"name":"","type":"uint256","internalType":"uint256"}],"outputs":[{"name":"mlnAmountToBurn_","type":"uint256","internalType":"uint256"}],"stateMutability":"nonpayable"},{"type":"function","name":"callOnContract","inputs":[{"name":"_contract","type":"address","internalType":"address"},{"name":"_callData","type":"bytes","internalType":"bytes"}],"outputs":[],"stateMutability":"nonpayable"},{"type":"function","name":"getDispatcher","inputs":[],"outputs":[{"name":"dispatcher_","type":"address","internalType":"address"}],"stateMutability":"view"},{"type":"function","name":"getProtocolFeeReserveLib","inputs":[],"outputs":[{"name":"protocolFeeReserveLib_","type":"address","internalType":"address"}],"stateMutability":"view"},{"type":"function","name":"init","inputs":[{"name":"_dispatcher","type":"address","internalType":"address"}],"outputs":[],"stateMutability":"nonpayable"},{"type":"function","name":"proxiableUUID","inputs":[],"outputs":[{"name":"uuid_","type":"bytes32","internalType":"bytes32"}],"stateMutability":"pure"},{"type":"function","name":"setProtocolFeeReserveLib","inputs":[{"name":"_nextProtocolFeeReserveLib","type":"address","internalType":"address"}],"outputs":[],"stateMutability":"nonpayable"},{"type":"event","name":"MlnTokenBalanceWithdrawn","inputs":[{"name":"to","type":"address","indexed":true,"internalType":"address"},{"name":"amount","type":"uint256","indexed":false,"internalType":"uint256"}],"anonymous":false},{"type":"event","name":"ProtocolFeeReserveLibSet","inputs":[{"name":"nextProtocolFeeReserveLib","type":"address","indexed":false,"internalType":"address"}],"anonymous":false},{"type":"event","name":"SharesBoughtBack","inputs":[{"name":"vaultProxy","type":"address","indexed":true,"internalType":"address"},{"name":"sharesAmount","type":"uint256","indexed":false,"internalType":"uint256"},{"name":"mlnValue","type":"uint256","indexed":false,"internalType":"uint256"},{"name":"mlnBurned","type":"uint256","indexed":false,"internalType":"uint256"}],"anonymous":false}],"bytecode":{"object":"0x608060405234801561001057600080fd5b50610a89806100206000396000f3fe608060405234801561001057600080fd5b506004361061007d5760003560e01c8063a90cce4b1161005b578063a90cce4b1461013a578063b3e2546b146101d3578063c75a882a14610207578063ebb3d5891461024b5761007d565b806319ab453c1461008257806352d1902d146100c657806396c45aec146100e4575b600080fd5b6100c46004803603602081101561009857600080fd5b81019080803573ffffffffffffffffffffffffffffffffffffffff16906020019092919050505061027f565b005b6100ce6103bf565b6040518082815260200191505060405180910390f35b610124600480360360608110156100fa57600080fd5b810190808035906020019092919080359060200190929190803590602001909291905050506103ea565b6040518082815260200191505060405180910390f35b6101d16004803603604081101561015057600080fd5b81019080803573ffffffffffffffffffffffffffffffffffffffff1690602001909291908035906020019064010000000081111561018d57600080fd5b82018360208201111561019f57600080fd5b803590602001918460018302840111640100000000831117156101c157600080fd5b909192939192939050505061047a565b005b6101db6106ae565b604051808273ffffffffffffffffffffffffffffffffffffffff16815260200191505060405180910390f35b6102496004803603602081101561021d57600080fd5b81019080803573ffffffffffffffffffffffffffffffffffffffff1690602001909291905050506106d7565b005b61025361083b565b604051808273ffffffffffffffffffffffffffffffffffffffff16815260200191505060405180910390f35b600073ffffffffffffffffffffffffffffffffffffffff1661029f61083b565b73ffffffffffffffffffffffffffffffffffffffff1614610328576040517f08c379a000000000000000000000000000000000000000000000000000000000815260040180806020018281038252601f8152602001807f696e69743a2050726f787920616c726561647920696e697469616c697a65640081525060200191505060405180910390fd5b806000806101000a81548173ffffffffffffffffffffffffffffffffffffffff021916908373ffffffffffffffffffffffffffffffffffffffff1602179055507f637d0ba5806b2c873952a12cd23e7cf28669dba115b2ded43df3d2d75c71e8c16103916106ae565b604051808273ffffffffffffffffffffffffffffffffffffffff16815260200191505060405180910390a150565b60007fbc966524590ce702cc9340e80d86ea9095afa6b8eecbb5d6213f57633223918160001b905090565b600061040060028461086490919063ffffffff16565b905060008114156104145760009050610473565b3373ffffffffffffffffffffffffffffffffffffffff167f6b63e290827c0f9226da4ffa1b681a509f0764acfc1ab99503a4f55012ec3c1985858460405180848152602001838152602001828152602001935050505060405180910390a25b9392505050565b61048261083b565b73ffffffffffffffffffffffffffffffffffffffff1663893d20e86040518163ffffffff1660e01b815260040160206040518083038186803b1580156104c757600080fd5b505afa1580156104db573d6000803e3d6000fd5b505050506040513d60208110156104f157600080fd5b810190808051906020019092919050505073ffffffffffffffffffffffffffffffffffffffff163373ffffffffffffffffffffffffffffffffffffffff1614610585576040517f08c379a0000000000000000000000000000000000000000000000000000000008152600401808060200182810382526030815260200180610a4d6030913960400191505060405180910390fd5b600060608473ffffffffffffffffffffffffffffffffffffffff1684846040518083838082843780830192505050925050506000604051808303816000865af19150503d80600081146105f4576040519150601f19603f3d011682016040523d82523d6000602084013e6105f9565b606091505b50915091508181906106a6576040517f08c379a00000000000000000000000000000000000000000000000000000000081526004018080602001828103825283818151815260200191508051906020019080838360005b8381101561066b578082015181840152602081019050610650565b50505050905090810190601f1680156106985780820380516001836020036101000a031916815260200191505b509250505060405180910390fd5b505050505050565b60007f360894a13ba1a3210667c828492db98dca3e2076cc3735a920a3ca505d382bbc54905090565b6106df61083b565b73ffffffffffffffffffffffffffffffffffffffff1663893d20e86040518163ffffffff1660e01b815260040160206040518083038186803b15801561072457600080fd5b505afa158015610738573d6000803e3d6000fd5b505050506040513d602081101561074e57600080fd5b810190808051906020019092919050505073ffffffffffffffffffffffffffffffffffffffff163373ffffffffffffffffffffffffffffffffffffffff16146107e2576040517f08c379a0000000000000000000000000000000000000000000000000000000008152600401808060200182810382526030815260200180610a4d6030913960400191505060405180910390fd5b6107eb816108ed565b7f637d0ba5806b2c873952a12cd23e7cf28669dba115b2ded43df3d2d75c71e8c181604051808273ffffffffffffffffffffffffffffffffffffffff16815260200191505060405180910390a150565b60008060009054906101000a900473ffffffffffffffffffffffffffffffffffffffff16905090565b60008082116108db576040517f08c379a000000000000000000000000000000000000000000000000000000000815260040180806020018281038252601a8152602001807f536166654d6174683a206469766973696f6e206279207a65726f00000000000081525060200191505060405180910390fd5b8183816108e457fe5b04905092915050565b7fbc966524590ce702cc9340e80d86ea9095afa6b8eecbb5d6213f57633223918160001b8173ffffffffffffffffffffffffffffffffffffffff166352d1902d6040518163ffffffff1660e01b815260040160206040518083038186803b15801561095757600080fd5b505afa15801561096b573d6000803e3d6000fd5b505050506040513d602081101561098157600080fd5b8101908080519060200190929190505050146109e8576040517f08c379a000000000000000000000000000000000000000000000000000000000815260040180806020018281038252603e815260200180610a0f603e913960400191505060405180910390fd5b807f360894a13ba1a3210667c828492db98dca3e2076cc3735a920a3ca505d382bbc555056fe5f5f757064617465436f6465416464726573733a205f6e65787450726f746f636f6c466565526573657276654c6962206e6f7420636f6d70617469626c654f6e6c79207468652044697370617463686572206f776e65722063616e2063616c6c20746869732066756e6374696f6ea164736f6c634300060c000a","linkReferences":{}},"methodIdentifiers":{"buyBackSharesViaTrustedVaultProxy(uint256,uint256,uint256)":"96c45aec","callOnContract(address,bytes)":"a90cce4b","getDispatcher()":"ebb3d589","getProtocolFeeReserveLib()":"b3e2546b","init(address)":"19ab453c","proxiableUUID()":"52d1902d","setProtocolFeeReserveLib(address)":"c75a882a"},"id":101}