{"abi":[{"type":"constructor","inputs":[{"name":"_initialBondOfferingMarket","type":"address","internalType":"address"}],"stateMutability":"nonpayable"},{"type":"function","name":"getDebtAssets","inputs":[],"outputs":[{"name":"assets_","type":"address[]","internalType":"address[]"},{"name":"amounts_","type":"uint256[]","internalType":"uint256[]"}],"stateMutability":"nonpayable"},{"type":"function","name":"getIssuedVouchers","inputs":[],"outputs":[{"name":"vouchers_","type":"address[]","internalType":"address[]"}],"stateMutability":"view"},{"type":"function","name":"getManagedAssets","inputs":[],"outputs":[{"name":"assets_","type":"address[]","internalType":"address[]"},{"name":"amounts_","type":"uint256[]","internalType":"uint256[]"}],"stateMutability":"nonpayable"},{"type":"function","name":"getOffers","inputs":[],"outputs":[{"name":"offers_","type":"uint24[]","internalType":"uint24[]"}],"stateMutability":"view"},{"type":"function","name":"init","inputs":[{"name":"","type":"bytes","internalType":"bytes"}],"outputs":[],"stateMutability":"nonpayable"},{"type":"function","name":"receiveCallFromVault","inputs":[{"name":"_actionData","type":"bytes","internalType":"bytes"}],"outputs":[],"stateMutability":"nonpayable"},{"type":"event","name":"IssuedVoucherAdded","inputs":[{"name":"voucher","type":"address","indexed":true,"internalType":"address"}],"anonymous":false},{"type":"event","name":"IssuedVoucherRemoved","inputs":[{"name":"voucher","type":"address","indexed":true,"internalType":"address"}],"anonymous":false},{"type":"event","name":"OfferAdded","inputs":[{"name":"offerId","type":"uint24","indexed":true,"internalType":"uint24"}],"anonymous":false},{"type":"event","name":"OfferRemoved","inputs":[{"name":"offerId","type":"uint24","indexed":true,"internalType":"uint24"}],"anonymous":false}],"bytecode":{"object":"0x60a06040523480156200001157600080fd5b50604051620042773803806200427783398181016040528101906200003791906200008c565b8073ffffffffffffffffffffffffffffffffffffffff1660808173ffffffffffffffffffffffffffffffffffffffff1660601b815250505062000106565b6000815190506200008681620000ec565b92915050565b6000602082840312156200009f57600080fd5b6000620000af8482850162000075565b91505092915050565b6000620000c582620000cc565b9050919050565b600073ffffffffffffffffffffffffffffffffffffffff82169050919050565b620000f781620000b8565b81146200010357600080fd5b50565b60805160601c61413062000147600039806109b85280610a7f5280610e55528061130252806113df528061160b528061192a5280611a6752506141306000f3fe608060405234801561001057600080fd5b50600436106100625760003560e01c80630f081d50146100675780633ee992ee146100855780634ddf47d4146100a357806380daddb8146100bf578063e5c23a97146100de578063ecd658b4146100fa575b600080fd5b61006f610119565b60405161007c9190613bdb565b60405180910390f35b61008d6101a7565b60405161009a9190613c34565b60405180910390f35b6100bd60048036038101906100b8919061334b565b610229565b005b6100c761022c565b6040516100d5929190613bfd565b60405180910390f35b6100f860048036038101906100f3919061334b565b610362565b005b61010261046a565b604051610110929190613bfd565b60405180910390f35b6060600080548060200260200160405190810160405280929190818152602001828054801561019d57602002820191906000526020600020905b8160009054906101000a900473ffffffffffffffffffffffffffffffffffffffff1673ffffffffffffffffffffffffffffffffffffffff1681526020019060010190808311610153575b5050505050905090565b6060600180548060200260200160405190810160405280929190818152602001828054801561021f57602002820191906000526020600020906000905b82829054906101000a900462ffffff1662ffffff16815260200190600301906020826002010492830192600103820291508084116101e45790505b5050505050905090565b50565b60608060606102396101a7565b9050610243610470565b809350819450505060608061025783610908565b9150915060008251905060005b818110156102c95761029284828151811061027b57fe5b602002602001015188610c7790919063ffffffff16565b96506102ba8382815181106102a357fe5b602002602001015187610d8890919063ffffffff16565b95508080600101915050610264565b506060806102d686610e3d565b9150915060008251905060005b81811015610348576103118482815181106102fa57fe5b60200260200101518b610c7790919063ffffffff16565b995061033983828151811061032257fe5b60200260200101518a610d8890919063ffffffff16565b985080806001019150506102e3565b50610353898961100d565b98509850505050505050509091565b600060608280602001905181019061037a919061345b565b915091506000600481111561038b57fe5b8214156103a05761039b816112ca565b610465565b600160048111156103ad57fe5b8214156103c1576103bc6115e7565b610464565b600260048111156103ce57fe5b8214156103e3576103de816116fa565b610463565b600360048111156103f057fe5b8214156104055761040081611913565b610462565b60048081111561041157fe5b8214156104265761042181611dd3565b610461565b6040517f08c379a000000000000000000000000000000000000000000000000000000000815260040161045890613cd8565b60405180910390fd5b5b5b5b5b505050565b60608091565b606080606061047d610119565b905060008151905060005b818110156109015760008551905060008483815181106104a457fe5b602002602001015173ffffffffffffffffffffffffffffffffffffffff16634118ca7d6040518163ffffffff1660e01b815260040160206040518083038186803b1580156104f157600080fd5b505afa158015610505573d6000803e3d6000fd5b505050506040513d601f19601f820116820180604052508101906105299190613189565b905060608173ffffffffffffffffffffffffffffffffffffffff1663ecaf82a5306040518263ffffffff1660e01b81526004016105669190613acb565b60006040518083038186803b15801561057e57600080fd5b505afa158015610592573d6000803e3d6000fd5b505050506040513d6000823e3d601f19601f820116820180604052508101906105bb91906132e1565b90506000805b82518110156107a3576105d2612a20565b8887815181106105de57fe5b602002602001015173ffffffffffffffffffffffffffffffffffffffff1663d3ceafb985848151811061060d57fe5b60200260200101516040518263ffffffff1660e01b81526004016106319190613d93565b6101a06040518083038186803b15801561064a57600080fd5b505afa15801561065e573d6000803e3d6000fd5b505050506040513d601f19601f8201168201806040525081019061068291906133df565b90508060e0015167ffffffffffffffff164210156106d5576040517f08c379a00000000000000000000000000000000000000000000000000000000081526004016106cc90613d18565b60405180910390fd5b60008573ffffffffffffffffffffffffffffffffffffffff1663875f43848685815181106106ff57fe5b60200260200101516040518263ffffffff1660e01b81526004016107239190613d93565b60206040518083038186803b15801561073b57600080fd5b505afa15801561074f573d6000803e3d6000fd5b505050506040513d601f19601f820116820180604052508101906107739190613432565b9050600081111561079457610791818561203d90919063ffffffff16565b93505b505080806001019150506105c1565b506000811115610868576108508786815181106107bc57fe5b602002602001015173ffffffffffffffffffffffffffffffffffffffff16636f307dc36040518163ffffffff1660e01b815260040160206040518083038186803b15801561080957600080fd5b505afa15801561081d573d6000803e3d6000fd5b505050506040513d601f19601f820116820180604052508101906108419190613189565b8a610c7790919063ffffffff16565b98506108658189610d8890919063ffffffff16565b97505b83895114156108f05761089887868151811061088057fe5b6020026020010151600061209290919063ffffffff16565b508685815181106108a557fe5b602002602001015173ffffffffffffffffffffffffffffffffffffffff167ffd92edd176a06585677580bb1800864a64631aef521abcba2722708c7084c2e460405160405180910390a25b505050508080600101915050610488565b5050509091565b6060806000835190508067ffffffffffffffff8111801561092857600080fd5b506040519080825280602002602001820160405280156109575781602001602082028036833780820191505090505b5092508067ffffffffffffffff8111801561097157600080fd5b506040519080825280602002602001820160405280156109a05781602001602082028036833780820191505090505b50915060005b81811015610c70576109b6612b11565b7f000000000000000000000000000000000000000000000000000000000000000073ffffffffffffffffffffffffffffffffffffffff16639cfb2ab08784815181106109fe57fe5b60200260200101516040518263ffffffff1660e01b8152600401610a229190613d78565b6101a06040518083038186803b158015610a3b57600080fd5b505afa158015610a4f573d6000803e3d6000fd5b505050506040513d601f19601f82011682018060405250810190610a7391906133b5565b9050610a7d612c23565b7f000000000000000000000000000000000000000000000000000000000000000073ffffffffffffffffffffffffffffffffffffffff1663c39333ab888581518110610ac557fe5b60200260200101516040518263ffffffff1660e01b8152600401610ae99190613d78565b60a06040518083038186803b158015610b0157600080fd5b505afa158015610b15573d6000803e3d6000fd5b505050506040513d601f19601f82011682018060405250810190610b39919061338c565b90506000610b7c82600001516fffffffffffffffffffffffffffffffff168460a001516fffffffffffffffffffffffffffffffff1661220890919063ffffffff16565b905082610100015173ffffffffffffffffffffffffffffffffffffffff16636f307dc36040518163ffffffff1660e01b815260040160206040518083038186803b158015610bc957600080fd5b505afa158015610bdd573d6000803e3d6000fd5b505050506040513d601f19601f82011682018060405250810190610c019190613189565b878581518110610c0d57fe5b602002602001019073ffffffffffffffffffffffffffffffffffffffff16908173ffffffffffffffffffffffffffffffffffffffff168152505080868581518110610c5457fe5b60200260200101818152505050505080806001019150506109a6565b5050915091565b6060600183510167ffffffffffffffff81118015610c9457600080fd5b50604051908082528060200260200182016040528015610cc35781602001602082028036833780820191505090505b50905060005b8351811015610d3957838181518110610cde57fe5b6020026020010151828281518110610cf257fe5b602002602001019073ffffffffffffffffffffffffffffffffffffffff16908173ffffffffffffffffffffffffffffffffffffffff16815250508080600101915050610cc9565b508181845181518110610d4857fe5b602002602001019073ffffffffffffffffffffffffffffffffffffffff16908173ffffffffffffffffffffffffffffffffffffffff168152505092915050565b6060600183510167ffffffffffffffff81118015610da557600080fd5b50604051908082528060200260200182016040528015610dd45781602001602082028036833780820191505090505b50905060005b8351811015610e1c57838181518110610def57fe5b6020026020010151828281518110610e0357fe5b6020026020010181815250508080600101915050610dda565b508181845181518110610e2b57fe5b60200260200101818152505092915050565b60608060008351905060005b818110156110065760007f000000000000000000000000000000000000000000000000000000000000000073ffffffffffffffffffffffffffffffffffffffff16639cfb2ab0878481518110610e9b57fe5b60200260200101516040518263ffffffff1660e01b8152600401610ebf9190613d78565b6101a06040518083038186803b158015610ed857600080fd5b505afa158015610eec573d6000803e3d6000fd5b505050506040513d601f19601f82011682018060405250810190610f1091906133b5565b61012001519050610f2a818661225e90919063ffffffff16565b15610f355750610ff9565b60008173ffffffffffffffffffffffffffffffffffffffff166370a08231306040518263ffffffff1660e01b8152600401610f709190613acb565b60206040518083038186803b158015610f8857600080fd5b505afa158015610f9c573d6000803e3d6000fd5b505050506040513d601f19601f82011682018060405250810190610fc09190613432565b90506000811115610ff657610fde8287610c7790919063ffffffff16565b9550610ff38186610d8890919063ffffffff16565b94505b50505b8080600101915050610e49565b5050915091565b60608060008451141561101f576112c3565b6000600190506000600190505b85518110156110ce576000805b828110156110b15787818151811061104d57fe5b602002602001015173ffffffffffffffffffffffffffffffffffffffff1688848151811061107757fe5b602002602001015173ffffffffffffffffffffffffffffffffffffffff1614156110a457600191506110b1565b8080600101915050611039565b50806110c05782806001019350505b50808060010191505061102c565b508067ffffffffffffffff811180156110e657600080fd5b506040519080825280602002602001820160405280156111155781602001602082028036833780820191505090505b5092508067ffffffffffffffff8111801561112f57600080fd5b5060405190808252806020026020018201604052801561115e5781602001602082028036833780820191505090505b5091506000805b86518110156112bf576000805b8381101561121c5786818151811061118657fe5b602002602001015173ffffffffffffffffffffffffffffffffffffffff168984815181106111b057fe5b602002602001015173ffffffffffffffffffffffffffffffffffffffff16141561120f57600191508783815181106111e457fe5b60200260200101518682815181106111f857fe5b60200260200101818151019150818152505061121c565b8080600101915050611172565b50806112b15787828151811061122e57fe5b602002602001015186848151811061124257fe5b602002602001019073ffffffffffffffffffffffffffffffffffffffff16908173ffffffffffffffffffffffffffffffffffffffff168152505086828151811061128857fe5b602002602001015185848151811061129c57fe5b60200260200101818152505082806001019350505b508080600101915050611165565b5050505b9250929050565b60008060008060008060008060606112e0612c23565b6112e98b6122d5565b99509950995099509950995099509950995099506113db7f000000000000000000000000000000000000000000000000000000000000000082604001516fffffffffffffffffffffffffffffffff168c73ffffffffffffffffffffffffffffffffffffffff16636f307dc36040518163ffffffff1660e01b815260040160206040518083038186803b15801561137e57600080fd5b505afa158015611392573d6000803e3d6000fd5b505050506040513d601f19601f820116820180604052508101906113b69190613189565b73ffffffffffffffffffffffffffffffffffffffff166123209092919063ffffffff16565b60007f000000000000000000000000000000000000000000000000000000000000000073ffffffffffffffffffffffffffffffffffffffff1663227845568c8c8c8c8c8c8c8c8c8c6040518b63ffffffff1660e01b81526004016114489a99989796959493929190613b0f565b602060405180830381600087803b15801561146257600080fd5b505af1158015611476573d6000803e3d6000fd5b505050506040513d601f19601f8201168201806040525081019061149a9190613409565b90506114b08b600061247e90919063ffffffff16565b61155b5760008b9080600181540180825580915050600190039060005260206000200160009091909190916101000a81548173ffffffffffffffffffffffffffffffffffffffff021916908373ffffffffffffffffffffffffffffffffffffffff1602179055508a73ffffffffffffffffffffffffffffffffffffffff167f6b3e0dcc57df05fef7e2c63274ec9b334d9fad324cedda20d168b66e6f487b4c60405160405180910390a25b60018190806001815401808255809150506001900390600052602060002090600a91828204019190066003029091909190916101000a81548162ffffff021916908362ffffff1602179055508062ffffff167f27652f622b1c2e924c22bbcd9793267e09bd9469ff3e1d1aef7baa7bb542727760405160405180910390a2505050505050505050505050565b60606115f16101a7565b9050606060008251905060005b818110156116e9576116da7f000000000000000000000000000000000000000000000000000000000000000073ffffffffffffffffffffffffffffffffffffffff16639cfb2ab086848151811061165157fe5b60200260200101516040518263ffffffff1660e01b81526004016116759190613d78565b6101a06040518083038186803b15801561168e57600080fd5b505afa1580156116a2573d6000803e3d6000fd5b505050506040513d601f19601f820116820180604052508101906116c691906133b5565b61012001518461252290919063ffffffff16565b925080806001019150506115fe565b506116f4338361254e565b50505050565b600080611706836126cf565b9150915060008273ffffffffffffffffffffffffffffffffffffffff16634118ca7d6040518163ffffffff1660e01b815260040160206040518083038186803b15801561175257600080fd5b505afa158015611766573d6000803e3d6000fd5b505050506040513d601f19601f8201168201806040525081019061178a9190613189565b9050611794612a20565b8173ffffffffffffffffffffffffffffffffffffffff1663d3ceafb9846040518263ffffffff1660e01b81526004016117cd9190613d93565b6101a06040518083038186803b1580156117e657600080fd5b505afa1580156117fa573d6000803e3d6000fd5b505050506040513d601f19601f8201168201806040525081019061181e91906133df565b9050600081602001519050611874837fffffffffffffffffffffffffffffffffffffffffffffffffffffffffffffffff8373ffffffffffffffffffffffffffffffffffffffff166123209092919063ffffffff16565b8273ffffffffffffffffffffffffffffffffffffffff1663278ecde1856040518263ffffffff1660e01b81526004016118ad9190613d93565b600060405180830381600087803b1580156118c757600080fd5b505af11580156118db573d6000803e3d6000fd5b5050505061190b8360008373ffffffffffffffffffffffffffffffffffffffff166123209092919063ffffffff16565b505050505050565b600061191e826126ef565b9050611928612b11565b7f000000000000000000000000000000000000000000000000000000000000000073ffffffffffffffffffffffffffffffffffffffff16639cfb2ab0836040518263ffffffff1660e01b81526004016119819190613d78565b6101a06040518083038186803b15801561199a57600080fd5b505afa1580156119ae573d6000803e3d6000fd5b505050506040513d601f19601f820116820180604052508101906119d291906133b5565b905060008161012001519050600082610100015173ffffffffffffffffffffffffffffffffffffffff16636f307dc36040518163ffffffff1660e01b815260040160206040518083038186803b158015611a2b57600080fd5b505afa158015611a3f573d6000803e3d6000fd5b505050506040513d601f19601f82011682018060405250810190611a639190613189565b90507f000000000000000000000000000000000000000000000000000000000000000073ffffffffffffffffffffffffffffffffffffffff1663c569a8f2856040518263ffffffff1660e01b8152600401611abe9190613d78565b600060405180830381600087803b158015611ad857600080fd5b505af1158015611aec573d6000803e3d6000fd5b505050506000600180549050905060005b81811015611dca578562ffffff1660018281548110611b1857fe5b90600052602060002090600a91828204019190066003029054906101000a900462ffffff1662ffffff161415611dbd5760008473ffffffffffffffffffffffffffffffffffffffff166370a08231306040518263ffffffff1660e01b8152600401611b839190613acb565b60206040518083038186803b158015611b9b57600080fd5b505afa158015611baf573d6000803e3d6000fd5b505050506040513d601f19601f82011682018060405250810190611bd39190613432565b90506000811115611c0a57611c0933828773ffffffffffffffffffffffffffffffffffffffff1661270c9092919063ffffffff16565b5b60008473ffffffffffffffffffffffffffffffffffffffff166370a08231306040518263ffffffff1660e01b8152600401611c459190613acb565b60206040518083038186803b158015611c5d57600080fd5b505afa158015611c71573d6000803e3d6000fd5b505050506040513d601f19601f82011682018060405250810190611c959190613432565b90506000811115611ccc57611ccb33828773ffffffffffffffffffffffffffffffffffffffff1661270c9092919063ffffffff16565b5b60018403831015611d4a57600180850381548110611ce657fe5b90600052602060002090600a91828204019190066003029054906101000a900462ffffff1660018481548110611d1857fe5b90600052602060002090600a91828204019190066003026101000a81548162ffffff021916908362ffffff1602179055505b6001805480611d5557fe5b60019003818190600052602060002090600a91828204019190066003026101000a81549062ffffff021916905590558762ffffff167f5117ada9c4efa32749567ede1058300f17ca6204e7a5a68bac0dd615667af42660405160405180910390a25050611dca565b8080600101915050611afd565b50505050505050565b600080611ddf83612792565b9150915060008290508073ffffffffffffffffffffffffffffffffffffffff16634118ca7d6040518163ffffffff1660e01b815260040160206040518083038186803b158015611e2e57600080fd5b505afa158015611e42573d6000803e3d6000fd5b505050506040513d601f19601f82011682018060405250810190611e669190613189565b73ffffffffffffffffffffffffffffffffffffffff16632e1a7d4d836040518263ffffffff1660e01b8152600401611e9e9190613d93565b602060405180830381600087803b158015611eb857600080fd5b505af1158015611ecc573d6000803e3d6000fd5b505050506040513d601f19601f82011682018060405250810190611ef09190613432565b5060008173ffffffffffffffffffffffffffffffffffffffff16636f307dc36040518163ffffffff1660e01b815260040160206040518083038186803b158015611f3957600080fd5b505afa158015611f4d573d6000803e3d6000fd5b505050506040513d601f19601f82011682018060405250810190611f719190613189565b905060008173ffffffffffffffffffffffffffffffffffffffff166370a08231306040518263ffffffff1660e01b8152600401611fae9190613acb565b60206040518083038186803b158015611fc657600080fd5b505afa158015611fda573d6000803e3d6000fd5b505050506040513d601f19601f82011682018060405250810190611ffe9190613432565b905060008111156120355761203433828473ffffffffffffffffffffffffffffffffffffffff1661270c9092919063ffffffff16565b5b505050505050565b600080828401905083811015612088576040517f08c379a000000000000000000000000000000000000000000000000000000000815260040161207f90613c78565b60405180910390fd5b8091505092915050565b6000808380549050905060005b81811015612200578373ffffffffffffffffffffffffffffffffffffffff168582815481106120ca57fe5b9060005260206000200160009054906101000a900473ffffffffffffffffffffffffffffffffffffffff1673ffffffffffffffffffffffffffffffffffffffff1614156121f357600182038110156121ab5784600183038154811061212b57fe5b9060005260206000200160009054906101000a900473ffffffffffffffffffffffffffffffffffffffff1685828154811061216257fe5b9060005260206000200160006101000a81548173ffffffffffffffffffffffffffffffffffffffff021916908373ffffffffffffffffffffffffffffffffffffffff1602179055505b848054806121b557fe5b6001900381819060005260206000200160006101000a81549073ffffffffffffffffffffffffffffffffffffffff0219169055905560019250612200565b808060010191505061209f565b505092915050565b600080821161224c576040517f08c379a000000000000000000000000000000000000000000000000000000000815260040161224390613cb8565b60405180910390fd5b81838161225557fe5b04905092915050565b6000805b83518110156122c95783818151811061227757fe5b602002602001015173ffffffffffffffffffffffffffffffffffffffff168373ffffffffffffffffffffffffffffffffffffffff1614156122bc5760019150506122cf565b8080600101915050612262565b50600090505b92915050565b60008060008060008060008060606122eb612c23565b8a8060200190518101906122ff91906131b2565b99509950995099509950995099509950995099509193959799509193959799565b60008114806123b9575060008373ffffffffffffffffffffffffffffffffffffffff1663dd62ed3e30856040518363ffffffff1660e01b8152600401612367929190613ae6565b60206040518083038186803b15801561237f57600080fd5b505afa158015612393573d6000803e3d6000fd5b505050506040513d601f19601f820116820180604052508101906123b79190613432565b145b6123f8576040517f08c379a00000000000000000000000000000000000000000000000000000000081526004016123ef90613d58565b60405180910390fd5b6124798363095ea7b360e01b8484604051602401612417929190613bb2565b604051602081830303815290604052907bffffffffffffffffffffffffffffffffffffffffffffffffffffffff19166020820180517bffffffffffffffffffffffffffffffffffffffffffffffffffffffff83818316178352505050506127b2565b505050565b6000808380549050905060005b818110156125155784818154811061249f57fe5b9060005260206000200160009054906101000a900473ffffffffffffffffffffffffffffffffffffffff1673ffffffffffffffffffffffffffffffffffffffff168473ffffffffffffffffffffffffffffffffffffffff1614156125085760019250505061251c565b808060010191505061248b565b5060009150505b92915050565b606061252e838361225e565b1561253b57829050612548565b6125458383610c77565b90505b92915050565b6060815167ffffffffffffffff8111801561256857600080fd5b506040519080825280602002602001820160405280156125975781602001602082028036833780820191505090505b50905060005b82518110156126c85760008382815181106125b457fe5b602002602001015190508073ffffffffffffffffffffffffffffffffffffffff166370a08231306040518263ffffffff1660e01b81526004016125f79190613acb565b60206040518083038186803b15801561260f57600080fd5b505afa158015612623573d6000803e3d6000fd5b505050506040513d601f19601f820116820180604052508101906126479190613432565b83838151811061265357fe5b602002602001018181525050600083838151811061266d57fe5b602002602001015111156126ba576126b98584848151811061268b57fe5b60200260200101518373ffffffffffffffffffffffffffffffffffffffff1661270c9092919063ffffffff16565b5b50808060010191505061259d565b5092915050565b600080828060200190518101906126e691906132a5565b91509150915091565b6000818060200190518101906127059190613409565b9050919050565b61278d8363a9059cbb60e01b848460405160240161272b929190613bb2565b604051602081830303815290604052907bffffffffffffffffffffffffffffffffffffffffffffffffffffffff19166020820180517bffffffffffffffffffffffffffffffffffffffffffffffffffffffff83818316178352505050506127b2565b505050565b600080828060200190518101906127a991906132a5565b91509150915091565b6060612814826040518060400160405280602081526020017f5361666545524332303a206c6f772d6c6576656c2063616c6c206661696c65648152508573ffffffffffffffffffffffffffffffffffffffff166128799092919063ffffffff16565b905060008151111561287457808060200190518101906128349190613322565b612873576040517f08c379a000000000000000000000000000000000000000000000000000000000815260040161286a90613d38565b60405180910390fd5b5b505050565b60606128888484600085612891565b90509392505050565b6060824710156128d6576040517f08c379a00000000000000000000000000000000000000000000000000000000081526004016128cd90613c98565b60405180910390fd5b6128df856129a6565b61291e576040517f08c379a000000000000000000000000000000000000000000000000000000000815260040161291590613cf8565b60405180910390fd5b600060608673ffffffffffffffffffffffffffffffffffffffff1685876040516129489190613ab4565b60006040518083038185875af1925050503d8060008114612985576040519150601f19603f3d011682016040523d82523d6000602084013e61298a565b606091505b509150915061299a8282866129b9565b92505050949350505050565b600080823b905060008111915050919050565b606083156129c957829050612a19565b6000835111156129dc5782518084602001fd5b816040517f08c379a0000000000000000000000000000000000000000000000000000000008152600401612a109190613c56565b60405180910390fd5b9392505050565b604051806101a00160405280600073ffffffffffffffffffffffffffffffffffffffff168152602001600073ffffffffffffffffffffffffffffffffffffffff1681526020016000815260200160006fffffffffffffffffffffffffffffffff16815260200160006fffffffffffffffffffffffffffffffff16815260200160006fffffffffffffffffffffffffffffffff168152602001600067ffffffffffffffff168152602001600067ffffffffffffffff16815260200160006001811115612ae757fe5b81526020016000151581526020016000151581526020016000151581526020016000151581525090565b604051806101a00160405280600062ffffff168152602001600063ffffffff168152602001600063ffffffff16815260200160006001811115612b5057fe5b815260200160006fffffffffffffffffffffffffffffffff16815260200160006fffffffffffffffffffffffffffffffff16815260200160006fffffffffffffffffffffffffffffffff16815260200160006fffffffffffffffffffffffffffffffff168152602001600073ffffffffffffffffffffffffffffffffffffffff168152602001600073ffffffffffffffffffffffffffffffffffffffff168152602001600073ffffffffffffffffffffffffffffffffffffffff1681526020016000151581526020016000151581525090565b6040518060a0016040528060006fffffffffffffffffffffffffffffffff16815260200160006fffffffffffffffffffffffffffffffff16815260200160006fffffffffffffffffffffffffffffffff168152602001600067ffffffffffffffff168152602001600067ffffffffffffffff1681525090565b600081519050612cab8161404b565b92915050565b600081519050612cc081614062565b92915050565b600082601f830112612cd757600080fd5b8151612cea612ce582613ddb565b613dae565b91508181835260208401935060208101905083856020840282011115612d0f57600080fd5b60005b83811015612d3f5781612d25888261314a565b845260208401935060208301925050600181019050612d12565b5050505092915050565b600081519050612d5881614079565b92915050565b600082601f830112612d6f57600080fd5b8135612d82612d7d82613e03565b613dae565b91508082526020830160208301858383011115612d9e57600080fd5b612da9838284613feb565b50505092915050565b600082601f830112612dc357600080fd5b8151612dd6612dd182613e03565b613dae565b91508082526020830160208301858383011115612df257600080fd5b612dfd838284613ffa565b50505092915050565b600081519050612e1581614090565b92915050565b600081519050612e2a816140a0565b92915050565b600060a08284031215612e4257600080fd5b612e4c60a0613dae565b90506000612e5c84828501613120565b6000830152506020612e7084828501613120565b6020830152506040612e8484828501613120565b6040830152506060612e9884828501613174565b6060830152506080612eac84828501613174565b60808301525092915050565b60006101a08284031215612ecb57600080fd5b612ed66101a0613dae565b90506000612ee684828501613135565b6000830152506020612efa8482850161315f565b6020830152506040612f0e8482850161315f565b6040830152506060612f2284828501612e1b565b6060830152506080612f3684828501613120565b60808301525060a0612f4a84828501613120565b60a08301525060c0612f5e84828501613120565b60c08301525060e0612f7284828501613120565b60e083015250610100612f8784828501612c9c565b61010083015250610120612f9d84828501612c9c565b61012083015250610140612fb384828501612c9c565b61014083015250610160612fc984828501612d49565b61016083015250610180612fdf84828501612d49565b6101808301525092915050565b60006101a08284031215612fff57600080fd5b61300a6101a0613dae565b9050600061301a84828501612c9c565b600083015250602061302e84828501612c9c565b60208301525060406130428482850161314a565b604083015250606061305684828501613120565b606083015250608061306a84828501613120565b60808301525060a061307e84828501613120565b60a08301525060c061309284828501613174565b60c08301525060e06130a684828501613174565b60e0830152506101006130bb84828501612e06565b610100830152506101206130d184828501612d49565b610120830152506101406130e784828501612d49565b610140830152506101606130fd84828501612d49565b6101608301525061018061311384828501612d49565b6101808301525092915050565b60008151905061312f816140b0565b92915050565b600081519050613144816140c7565b92915050565b600081519050613159816140de565b92915050565b60008151905061316e816140f5565b92915050565b6000815190506131838161410c565b92915050565b60006020828403121561319b57600080fd5b60006131a984828501612c9c565b91505092915050565b6000806000806000806000806000806101c08b8d0312156131d257600080fd5b60006131e08d828e01612cb1565b9a505060206131f18d828e01612cb1565b99505060406132028d828e01613120565b98505060606132138d828e01613120565b97505060806132248d828e0161315f565b96505060a06132358d828e0161315f565b95505060c06132468d828e01612d49565b94505060e06132578d828e01612e1b565b9350506101008b015167ffffffffffffffff81111561327557600080fd5b6132818d828e01612db2565b9250506101206132938d828e01612e30565b9150509295989b9194979a5092959850565b600080604083850312156132b857600080fd5b60006132c685828601612cb1565b92505060206132d78582860161314a565b9150509250929050565b6000602082840312156132f357600080fd5b600082015167ffffffffffffffff81111561330d57600080fd5b61331984828501612cc6565b91505092915050565b60006020828403121561333457600080fd5b600061334284828501612d49565b91505092915050565b60006020828403121561335d57600080fd5b600082013567ffffffffffffffff81111561337757600080fd5b61338384828501612d5e565b91505092915050565b600060a0828403121561339e57600080fd5b60006133ac84828501612e30565b91505092915050565b60006101a082840312156133c857600080fd5b60006133d684828501612eb8565b91505092915050565b60006101a082840312156133f257600080fd5b600061340084828501612fec565b91505092915050565b60006020828403121561341b57600080fd5b600061342984828501613135565b91505092915050565b60006020828403121561344457600080fd5b60006134528482850161314a565b91505092915050565b6000806040838503121561346e57600080fd5b600061347c8582860161314a565b925050602083015167ffffffffffffffff81111561349957600080fd5b6134a585828601612db2565b9150509250929050565b60006134bb83836134f7565b60208301905092915050565b60006134d38383613a5a565b60208301905092915050565b60006134eb8383613a78565b60208301905092915050565b61350081613f1d565b82525050565b61350f81613f1d565b82525050565b600061352082613e5f565b61352a8185613ebd565b935061353583613e2f565b8060005b8381101561356657815161354d88826134af565b975061355883613e96565b925050600181019050613539565b5085935050505092915050565b600061357e82613e6a565b6135888185613ece565b935061359383613e3f565b8060005b838110156135c45781516135ab88826134c7565b97506135b683613ea3565b925050600181019050613597565b5085935050505092915050565b60006135dc82613e75565b6135e68185613edf565b93506135f183613e4f565b8060005b8381101561362257815161360988826134df565b975061361483613eb0565b9250506001810190506135f5565b5085935050505092915050565b61363881613f41565b82525050565b600061364982613e80565b6136538185613ef0565b9350613663818560208601613ffa565b61366c8161402d565b840191505092915050565b600061368282613e80565b61368c8185613f01565b935061369c818560208601613ffa565b80840191505092915050565b6136b181613fd9565b82525050565b60006136c282613e8b565b6136cc8185613f0c565b93506136dc818560208601613ffa565b6136e58161402d565b840191505092915050565b60006136fd601b83613f0c565b91507f536166654d6174683a206164646974696f6e206f766572666c6f7700000000006000830152602082019050919050565b600061373d602683613f0c565b91507f416464726573733a20696e73756666696369656e742062616c616e636520666f60008301527f722063616c6c00000000000000000000000000000000000000000000000000006020830152604082019050919050565b60006137a3601a83613f0c565b91507f536166654d6174683a206469766973696f6e206279207a65726f0000000000006000830152602082019050919050565b60006137e3602683613f0c565b91507f7265636569766543616c6c46726f6d5661756c743a20496e76616c696420616360008301527f74696f6e496400000000000000000000000000000000000000000000000000006020830152604082019050919050565b6000613849601d83613f0c565b91507f416464726573733a2063616c6c20746f206e6f6e2d636f6e74726163740000006000830152602082019050919050565b6000613889605783613f0c565b91507f5f5f676574576974686472617761626c654173736574416d6f756e7473416e6460008301527f52656d6f766557697468647261776e566f7563686572733a207072652d6d617460208301527f7572652069737375656420766f756368657220736c6f740000000000000000006040830152606082019050919050565b6000613915602a83613f0c565b91507f5361666545524332303a204552433230206f7065726174696f6e20646964206e60008301527f6f742073756363656564000000000000000000000000000000000000000000006020830152604082019050919050565b600061397b603683613f0c565b91507f5361666545524332303a20617070726f76652066726f6d206e6f6e2d7a65726f60008301527f20746f206e6f6e2d7a65726f20616c6c6f77616e6365000000000000000000006020830152604082019050919050565b60a0820160008201516139ea6000850182613a3c565b5060208201516139fd6020850182613a3c565b506040820151613a106040850182613a3c565b506060820151613a236060850182613aa5565b506080820151613a366080850182613aa5565b50505050565b613a4581613f60565b82525050565b613a5481613f60565b82525050565b613a6381613f9c565b82525050565b613a7281613f9c565b82525050565b613a8181613fab565b82525050565b613a9081613fab565b82525050565b613a9f81613fb5565b82525050565b613aae81613fc5565b82525050565b6000613ac08284613677565b915081905092915050565b6000602082019050613ae06000830184613506565b92915050565b6000604082019050613afb6000830185613506565b613b086020830184613506565b9392505050565b60006101c082019050613b25600083018d613506565b613b32602083018c613506565b613b3f604083018b613a4b565b613b4c606083018a613a4b565b613b596080830189613a96565b613b6660a0830188613a96565b613b7360c083018761362f565b613b8060e08301866136a8565b818103610100830152613b93818561363e565b9050613ba36101208301846139d4565b9b9a5050505050505050505050565b6000604082019050613bc76000830185613506565b613bd46020830184613a87565b9392505050565b60006020820190508181036000830152613bf58184613515565b905092915050565b60006040820190508181036000830152613c178185613515565b90508181036020830152613c2b81846135d1565b90509392505050565b60006020820190508181036000830152613c4e8184613573565b905092915050565b60006020820190508181036000830152613c7081846136b7565b905092915050565b60006020820190508181036000830152613c91816136f0565b9050919050565b60006020820190508181036000830152613cb181613730565b9050919050565b60006020820190508181036000830152613cd181613796565b9050919050565b60006020820190508181036000830152613cf1816137d6565b9050919050565b60006020820190508181036000830152613d118161383c565b9050919050565b60006020820190508181036000830152613d318161387c565b9050919050565b60006020820190508181036000830152613d5181613908565b9050919050565b60006020820190508181036000830152613d718161396e565b9050919050565b6000602082019050613d8d6000830184613a69565b92915050565b6000602082019050613da86000830184613a87565b92915050565b6000604051905081810181811067ffffffffffffffff82111715613dd157600080fd5b8060405250919050565b600067ffffffffffffffff821115613df257600080fd5b602082029050602081019050919050565b600067ffffffffffffffff821115613e1a57600080fd5b601f19601f8301169050602081019050919050565b6000819050602082019050919050565b6000819050602082019050919050565b6000819050602082019050919050565b600081519050919050565b600081519050919050565b600081519050919050565b600081519050919050565b600081519050919050565b6000602082019050919050565b6000602082019050919050565b6000602082019050919050565b600082825260208201905092915050565b600082825260208201905092915050565b600082825260208201905092915050565b600082825260208201905092915050565b600081905092915050565b600082825260208201905092915050565b6000613f2882613f7c565b9050919050565b6000613f3a82613f7c565b9050919050565b60008115159050919050565b6000819050613f5b8261403e565b919050565b60006fffffffffffffffffffffffffffffffff82169050919050565b600073ffffffffffffffffffffffffffffffffffffffff82169050919050565b600062ffffff82169050919050565b6000819050919050565b600063ffffffff82169050919050565b600067ffffffffffffffff82169050919050565b6000613fe482613f4d565b9050919050565b82818337600083830152505050565b60005b83811015614018578082015181840152602081019050613ffd565b83811115614027576000848401525b50505050565b6000601f19601f8301169050919050565b6002811061404857fe5b50565b61405481613f1d565b811461405f57600080fd5b50565b61406b81613f2f565b811461407657600080fd5b50565b61408281613f41565b811461408d57600080fd5b50565b6002811061409d57600080fd5b50565b600281106140ad57600080fd5b50565b6140b981613f60565b81146140c457600080fd5b50565b6140d081613f9c565b81146140db57600080fd5b50565b6140e781613fab565b81146140f257600080fd5b50565b6140fe81613fb5565b811461410957600080fd5b50565b61411581613fc5565b811461412057600080fd5b5056fea164736f6c634300060c000a","linkReferences":{}},"methodIdentifiers":{"getDebtAssets()":"ecd658b4","getIssuedVouchers()":"0f081d50","getManagedAssets()":"80daddb8","getOffers()":"3ee992ee","init(bytes)":"4ddf47d4","receiveCallFromVault(bytes)":"e5c23a97"},"id":180}