{"abi":[{"type":"constructor","inputs":[{"name":"_initialBondOfferingMarket","type":"address","internalType":"address"}],"stateMutability":"nonpayable"},{"type":"function","name":"getDebtAssets","inputs":[],"outputs":[{"name":"assets_","type":"address[]","internalType":"address[]"},{"name":"amounts_","type":"uint256[]","internalType":"uint256[]"}],"stateMutability":"nonpayable"},{"type":"function","name":"getIssuedVouchers","inputs":[],"outputs":[{"name":"vouchers_","type":"address[]","internalType":"address[]"}],"stateMutability":"view"},{"type":"function","name":"getManagedAssets","inputs":[],"outputs":[{"name":"assets_","type":"address[]","internalType":"address[]"},{"name":"amounts_","type":"uint256[]","internalType":"uint256[]"}],"stateMutability":"nonpayable"},{"type":"function","name":"getOffers","inputs":[],"outputs":[{"name":"offers_","type":"uint24[]","internalType":"uint24[]"}],"stateMutability":"view"},{"type":"function","name":"init","inputs":[{"name":"","type":"bytes","internalType":"bytes"}],"outputs":[],"stateMutability":"nonpayable"},{"type":"function","name":"receiveCallFromVault","inputs":[{"name":"_actionData","type":"bytes","internalType":"bytes"}],"outputs":[],"stateMutability":"nonpayable"},{"type":"event","name":"IssuedVoucherAdded","inputs":[{"name":"voucher","type":"address","indexed":true,"internalType":"address"}],"anonymous":false},{"type":"event","name":"IssuedVoucherRemoved","inputs":[{"name":"voucher","type":"address","indexed":true,"internalType":"address"}],"anonymous":false},{"type":"event","name":"OfferAdded","inputs":[{"name":"offerId","type":"uint24","indexed":true,"internalType":"uint24"}],"anonymous":false},{"type":"event","name":"OfferRemoved","inputs":[{"name":"offerId","type":"uint24","indexed":true,"internalType":"uint24"}],"anonymous":false}],"bytecode":{"object":"0x60a06040523480156200001157600080fd5b50604051620032ef380380620032ef83398101604081905262000034916200005d565b60601b6001600160601b031916608052620000b2565b8051620000578162000098565b92915050565b6000602082840312156200007057600080fd5b60006200007e84846200004a565b949350505050565b60006001600160a01b03821662000057565b620000a38162000086565b8114620000af57600080fd5b50565b60805160601c6131fc620000f36000398061082a52806108e45280610c1a528061100852806110d0528061129f5280611544528061166852506131fc6000f3fe608060405234801561001057600080fd5b50600436106100625760003560e01c80630f081d50146100675780633ee992ee146100855780634ddf47d41461009a57806380daddb8146100af578063e5c23a97146100c5578063ecd658b4146100d8575b600080fd5b61006f6100e0565b60405161007c9190612f7b565b60405180910390f35b61008d610142565b60405161007c9190612fb1565b6100ad6100a83660046128e5565b6101c3565b005b6100b76101c6565b60405161007c929190612f8c565b6100ad6100d33660046128e5565b6102e9565b6100b7610386565b6060600080548060200260200160405190810160405280929190818152602001828054801561013857602002820191906000526020600020905b81546001600160a01b0316815260019091019060200180831161011a575b5050505050905090565b6060600180548060200260200160405190810160405280929190818152602001828054801561013857602002820191906000526020600020906000905b82829054906101000a900462ffffff1662ffffff168152602001906003019060208260020104928301926001038202915080841161017f5790505050505050905090565b50565b60608060606101d3610142565b90506101dd61038c565b90935091506060806101ee83610788565b8151919350915060005b818110156102585761022684828151811061020f57fe5b602002602001015188610a9090919063ffffffff16565b965061024e83828151811061023757fe5b602002602001015187610b5b90919063ffffffff16565b95506001016101f8565b5060608061026586610c04565b8151919350915060005b818110156102cf5761029d84828151811061028657fe5b60200260200101518b610a9090919063ffffffff16565b99506102c58382815181106102ae57fe5b60200260200101518a610b5b90919063ffffffff16565b985060010161026f565b506102da8989610d8f565b98509850505050505050509091565b600060608280602001905181019061030191906129b1565b9092509050816103195761031481610fd0565b610381565b600182141561032a5761031461127d565b600282141561033c5761031481611374565b600382141561034e5761031481611518565b6004821415610360576103148161195a565b60405162461bcd60e51b815260040161037890613003565b60405180910390fd5b505050565b60608091565b60608060606103996100e0565b805190915060005b818110156107815760008551905060008483815181106103bd57fe5b60200260200101516001600160a01b0316634118ca7d6040518163ffffffff1660e01b815260040160206040518083038186803b1580156103fd57600080fd5b505afa158015610411573d6000803e3d6000fd5b505050506040513d601f19601f82011682018060405250810190610435919061274b565b90506060816001600160a01b031663ecaf82a5306040518263ffffffff1660e01b81526004016104659190612e9b565b60006040518083038186803b15801561047d57600080fd5b505afa158015610491573d6000803e3d6000fd5b505050506040513d6000823e601f3d908101601f191682016040526104b99190810190612893565b90506000805b8251811015610652576104d0612236565b8887815181106104dc57fe5b60200260200101516001600160a01b031663d3ceafb98584815181106104fe57fe5b60200260200101516040518263ffffffff1660e01b81526004016105229190613061565b6101a06040518083038186803b15801561053b57600080fd5b505afa15801561054f573d6000803e3d6000fd5b505050506040513d601f19601f820116820180604052508101906105739190612956565b90508060e001516001600160401b03164210156105a25760405162461bcd60e51b815260040161037890613023565b6000856001600160a01b031663875f43848685815181106105bf57fe5b60200260200101516040518263ffffffff1660e01b81526004016105e39190613061565b60206040518083038186803b1580156105fb57600080fd5b505afa15801561060f573d6000803e3d6000fd5b505050506040513d601f19601f820116820180604052508101906106339190612993565b90508015610648576106458482611b6d565b93505b50506001016104bf565b5080156106f6576106e787868151811061066857fe5b60200260200101516001600160a01b0316636f307dc36040518163ffffffff1660e01b815260040160206040518083038186803b1580156106a857600080fd5b505afa1580156106bc573d6000803e3d6000fd5b505050506040513d601f19601f820116820180604052508101906106e0919061274b565b8a90610a90565b98506106f38882610b5b565b97505b83895114156107715761072687868151811061070e57fe5b60200260200101516000611b9990919063ffffffff16565b5086858151811061073357fe5b60200260200101516001600160a01b03167ffd92edd176a06585677580bb1800864a64631aef521abcba2722708c7084c2e460405160405180910390a25b5050600190920191506103a19050565b5050509091565b80516060908190806001600160401b03811180156107a557600080fd5b506040519080825280602002602001820160405280156107cf578160200160208202803683370190505b509250806001600160401b03811180156107e857600080fd5b50604051908082528060200260200182016040528015610812578160200160208202803683370190505b50915060005b81811015610a895761082861229f565b7f00000000000000000000000000000000000000000000000000000000000000006001600160a01b0316639cfb2ab087848151811061086357fe5b60200260200101516040518263ffffffff1660e01b81526004016108879190613053565b6101a06040518083038186803b1580156108a057600080fd5b505afa1580156108b4573d6000803e3d6000fd5b505050506040513d601f19601f820116820180604052508101906108d89190612937565b90506108e2612309565b7f00000000000000000000000000000000000000000000000000000000000000006001600160a01b031663c39333ab88858151811061091d57fe5b60200260200101516040518263ffffffff1660e01b81526004016109419190613053565b60a06040518083038186803b15801561095957600080fd5b505afa15801561096d573d6000803e3d6000fd5b505050506040513d601f19601f820116820180604052508101906109919190612919565b905060006109c282600001516001600160801b03168460a001516001600160801b0316611c9190919063ffffffff16565b90508261010001516001600160a01b0316636f307dc36040518163ffffffff1660e01b815260040160206040518083038186803b158015610a0257600080fd5b505afa158015610a16573d6000803e3d6000fd5b505050506040513d601f19601f82011682018060405250810190610a3a919061274b565b878581518110610a4657fe5b60200260200101906001600160a01b031690816001600160a01b03168152505080868581518110610a7357fe5b6020908102919091010152505050600101610818565b5050915091565b606082516001016001600160401b0381118015610aac57600080fd5b50604051908082528060200260200182016040528015610ad6578160200160208202803683370190505b50905060005b8351811015610b2557838181518110610af157fe5b6020026020010151828281518110610b0557fe5b6001600160a01b0390921660209283029190910190910152600101610adc565b508181845181518110610b3457fe5b60200260200101906001600160a01b031690816001600160a01b0316815250505b92915050565b606082516001016001600160401b0381118015610b7757600080fd5b50604051908082528060200260200182016040528015610ba1578160200160208202803683370190505b50905060005b8351811015610be357838181518110610bbc57fe5b6020026020010151828281518110610bd057fe5b6020908102919091010152600101610ba7565b508181845181518110610bf257fe5b60200260200101818152505092915050565b8051606090819060005b81811015610a895760007f00000000000000000000000000000000000000000000000000000000000000006001600160a01b0316639cfb2ab0878481518110610c5357fe5b60200260200101516040518263ffffffff1660e01b8152600401610c779190613053565b6101a06040518083038186803b158015610c9057600080fd5b505afa158015610ca4573d6000803e3d6000fd5b505050506040513d601f19601f82011682018060405250810190610cc89190612937565b61012001519050610cd98582611cc3565b15610ce45750610d87565b6040516370a0823160e01b81526000906001600160a01b038316906370a0823190610d13903090600401612e9b565b60206040518083038186803b158015610d2b57600080fd5b505afa158015610d3f573d6000803e3d6000fd5b505050506040513d601f19601f82011682018060405250810190610d639190612993565b90508015610d8457610d758683610a90565b9550610d818582610b5b565b94505b50505b600101610c0e565b606080835160001415610da157610fc9565b6001805b8551811015610e21576000805b82811015610e0b57878181518110610dc657fe5b60200260200101516001600160a01b0316888481518110610de357fe5b60200260200101516001600160a01b03161415610e035760019150610e0b565b600101610db2565b5080610e18576001909201915b50600101610da5565b50806001600160401b0381118015610e3857600080fd5b50604051908082528060200260200182016040528015610e62578160200160208202803683370190505b509250806001600160401b0381118015610e7b57600080fd5b50604051908082528060200260200182016040528015610ea5578160200160208202803683370190505b5091506000805b8651811015610fc5576000805b83811015610f4457868181518110610ecd57fe5b60200260200101516001600160a01b0316898481518110610eea57fe5b60200260200101516001600160a01b03161415610f3c5760019150878381518110610f1157fe5b6020026020010151868281518110610f2557fe5b602002602001018181510191508181525050610f44565b600101610eb9565b5080610fbc57878281518110610f5657fe5b6020026020010151868481518110610f6a57fe5b60200260200101906001600160a01b031690816001600160a01b031681525050868281518110610f9657fe5b6020026020010151858481518110610faa57fe5b60209081029190910101526001909201915b50600101610eac565b5050505b9250929050565b6000806000806000806000806060610fe6612309565b610fef8b611d19565b99509950995099509950995099509950995099506110b67f000000000000000000000000000000000000000000000000000000000000000082604001516001600160801b03168c6001600160a01b0316636f307dc36040518163ffffffff1660e01b815260040160206040518083038186803b15801561106e57600080fd5b505afa158015611082573d6000803e3d6000fd5b505050506040513d601f19601f820116820180604052508101906110a6919061274b565b6001600160a01b03169190611d64565b60405163113c22ab60e11b81526000906001600160a01b037f00000000000000000000000000000000000000000000000000000000000000001690632278455690611117908e908e908e908e908e908e908e908e908e908e90600401612ec4565b602060405180830381600087803b15801561113157600080fd5b505af1158015611145573d6000803e3d6000fd5b505050506040513d601f19601f820116820180604052508101906111699190612975565b905061117660008c611e5e565b6111ee57600080546001810182558180527f290decd9548b62a8d60345a988386fc84ba6bc95484008f6362f93160ef3e5630180546001600160a01b0319166001600160a01b038e1690811790915560405190917f6b3e0dcc57df05fef7e2c63274ec9b334d9fad324cedda20d168b66e6f487b4c91a25b6001805480820182556000918252600a8082047fb10e2d527612073b26eecdfd717e6a320cf44b4afac2b0732d9fcbe2b7fa0cf601805462ffffff808716600394909506939093026101000a8481029302191691909117905560405190917f27652f622b1c2e924c22bbcd9793267e09bd9469ff3e1d1aef7baa7bb542727791a2505050505050505050505050565b6060611287610142565b805190915060609060005b81811015611363576113597f00000000000000000000000000000000000000000000000000000000000000006001600160a01b0316639cfb2ab08684815181106112d857fe5b60200260200101516040518263ffffffff1660e01b81526004016112fc9190613053565b6101a06040518083038186803b15801561131557600080fd5b505afa158015611329573d6000803e3d6000fd5b505050506040513d601f19601f8201168201806040525081019061134d9190612937565b61012001518490611eb6565b9250600101611292565b5061136e3383611ed8565b50505050565b60008061138083612033565b915091506000826001600160a01b0316634118ca7d6040518163ffffffff1660e01b815260040160206040518083038186803b1580156113bf57600080fd5b505afa1580156113d3573d6000803e3d6000fd5b505050506040513d601f19601f820116820180604052508101906113f7919061274b565b9050611401612236565b60405163d3ceafb960e01b81526001600160a01b0383169063d3ceafb99061142d908690600401613061565b6101a06040518083038186803b15801561144657600080fd5b505afa15801561145a573d6000803e3d6000fd5b505050506040513d601f19601f8201168201806040525081019061147e9190612956565b602081015190915061149c6001600160a01b03821684600019611d64565b60405163278ecde160e01b81526001600160a01b0384169063278ecde1906114c8908790600401613061565b600060405180830381600087803b1580156114e257600080fd5b505af11580156114f6573d6000803e3d6000fd5b50611510925050506001600160a01b038216846000611d64565b505050505050565b600061152382612053565b905061152d61229f565b6040516309cfb2ab60e41b81526001600160a01b037f00000000000000000000000000000000000000000000000000000000000000001690639cfb2ab090611579908590600401613053565b6101a06040518083038186803b15801561159257600080fd5b505afa1580156115a6573d6000803e3d6000fd5b505050506040513d601f19601f820116820180604052508101906115ca9190612937565b90506000816101200151905060008261010001516001600160a01b0316636f307dc36040518163ffffffff1660e01b815260040160206040518083038186803b15801561161657600080fd5b505afa15801561162a573d6000803e3d6000fd5b505050506040513d601f19601f8201168201806040525081019061164e919061274b565b6040516362b4d47960e11b81529091506001600160a01b037f0000000000000000000000000000000000000000000000000000000000000000169063c569a8f29061169d908790600401613053565b600060405180830381600087803b1580156116b757600080fd5b505af11580156116cb573d6000803e3d6000fd5b50506001549150600090505b81811015611951578562ffffff16600182815481106116f257fe5b90600052602060002090600a91828204019190066003029054906101000a900462ffffff1662ffffff161415611949576040516370a0823160e01b81526000906001600160a01b038616906370a0823190611751903090600401612e9b565b60206040518083038186803b15801561176957600080fd5b505afa15801561177d573d6000803e3d6000fd5b505050506040513d601f19601f820116820180604052508101906117a19190612993565b905080156117bd576117bd6001600160a01b0386163383612071565b6040516370a0823160e01b81526000906001600160a01b038616906370a08231906117ec903090600401612e9b565b60206040518083038186803b15801561180457600080fd5b505afa158015611818573d6000803e3d6000fd5b505050506040513d601f19601f8201168201806040525081019061183c9190612993565b90508015611858576118586001600160a01b0386163383612071565b600184038310156118d65760018085038154811061187257fe5b90600052602060002090600a91828204019190066003029054906101000a900462ffffff16600184815481106118a457fe5b90600052602060002090600a91828204019190066003026101000a81548162ffffff021916908362ffffff1602179055505b60018054806118e157fe5b60019003818190600052602060002090600a91828204019190066003026101000a81549062ffffff021916905590558762ffffff167f5117ada9c4efa32749567ede1058300f17ca6204e7a5a68bac0dd615667af42660405160405180910390a25050611951565b6001016116d7565b50505050505050565b60008061196683612033565b915091506000829050806001600160a01b0316634118ca7d6040518163ffffffff1660e01b815260040160206040518083038186803b1580156119a857600080fd5b505afa1580156119bc573d6000803e3d6000fd5b505050506040513d601f19601f820116820180604052508101906119e0919061274b565b6001600160a01b0316632e1a7d4d836040518263ffffffff1660e01b8152600401611a0b9190613061565b602060405180830381600087803b158015611a2557600080fd5b505af1158015611a39573d6000803e3d6000fd5b505050506040513d601f19601f82011682018060405250810190611a5d9190612993565b506000816001600160a01b0316636f307dc36040518163ffffffff1660e01b815260040160206040518083038186803b158015611a9957600080fd5b505afa158015611aad573d6000803e3d6000fd5b505050506040513d601f19601f82011682018060405250810190611ad1919061274b565b90506000816001600160a01b03166370a08231306040518263ffffffff1660e01b8152600401611b019190612e9b565b60206040518083038186803b158015611b1957600080fd5b505afa158015611b2d573d6000803e3d6000fd5b505050506040513d601f19601f82011682018060405250810190611b519190612993565b90508015611510576115106001600160a01b0383163383612071565b600082820183811015611b925760405162461bcd60e51b815260040161037890612fd3565b9392505050565b8154600090815b81811015611c8957836001600160a01b0316858281548110611bbe57fe5b6000918252602090912001546001600160a01b03161415611c815760018203811015611c4c57846001830381548110611bf357fe5b9060005260206000200160009054906101000a90046001600160a01b0316858281548110611c1d57fe5b9060005260206000200160006101000a8154816001600160a01b0302191690836001600160a01b031602179055505b84805480611c5657fe5b600082815260209020810160001990810180546001600160a01b031916905501905560019250611c89565b600101611ba0565b505092915050565b6000808211611cb25760405162461bcd60e51b815260040161037890612ff3565b818381611cbb57fe5b049392505050565b6000805b8351811015611d0f57838181518110611cdc57fe5b60200260200101516001600160a01b0316836001600160a01b03161415611d07576001915050610b55565b600101611cc7565b5060009392505050565b6000806000806000806000806060611d2f612309565b8a806020019051810190611d439190612769565b99509950995099509950995099509950995099509193959799509193959799565b801580611dec5750604051636eb1769f60e11b81526001600160a01b0384169063dd62ed3e90611d9a9030908690600401612ea9565b60206040518083038186803b158015611db257600080fd5b505afa158015611dc6573d6000803e3d6000fd5b505050506040513d601f19601f82011682018060405250810190611dea9190612993565b155b611e085760405162461bcd60e51b815260040161037890613043565b6103818363095ea7b360e01b8484604051602401611e27929190612f60565b60408051601f198184030181529190526020810180516001600160e01b03166001600160e01b031990931692909217909152612090565b8154600090815b81811015611eab57848181548110611e7957fe5b6000918252602090912001546001600160a01b0385811691161415611ea357600192505050610b55565b600101611e65565b506000949350505050565b6060611ec28383611cc3565b15611ece575081610b55565b611b928383610a90565b606081516001600160401b0381118015611ef157600080fd5b50604051908082528060200260200182016040528015611f1b578160200160208202803683370190505b50905060005b825181101561202c576000838281518110611f3857fe5b60200260200101519050806001600160a01b03166370a08231306040518263ffffffff1660e01b8152600401611f6e9190612e9b565b60206040518083038186803b158015611f8657600080fd5b505afa158015611f9a573d6000803e3d6000fd5b505050506040513d601f19601f82011682018060405250810190611fbe9190612993565b838381518110611fca57fe5b6020026020010181815250506000838381518110611fe457fe5b60200260200101511115612023576120238584848151811061200257fe5b6020026020010151836001600160a01b03166120719092919063ffffffff16565b50600101611f21565b5092915050565b6000808280602001905181019061204a9190612859565b91509150915091565b6000818060200190518101906120699190612975565b90505b919050565b6103818363a9059cbb60e01b8484604051602401611e27929190612f60565b60606120e5826040518060400160405280602081526020017f5361666545524332303a206c6f772d6c6576656c2063616c6c206661696c6564815250856001600160a01b031661211f9092919063ffffffff16565b805190915015610381578080602001905181019061210391906128c7565b6103815760405162461bcd60e51b815260040161037890613033565b606061212e8484600085612136565b949350505050565b6060824710156121585760405162461bcd60e51b815260040161037890612fe3565b612161856121f7565b61217d5760405162461bcd60e51b815260040161037890613013565b60006060866001600160a01b0316858760405161219a9190612e8f565b60006040518083038185875af1925050503d80600081146121d7576040519150601f19603f3d011682016040523d82523d6000602084013e6121dc565b606091505b50915091506121ec8282866121fd565b979650505050505050565b3b151590565b6060831561220c575081611b92565b82511561221c5782518084602001fd5b8160405162461bcd60e51b81526004016103789190612fc2565b604080516101a081018252600080825260208201819052918101829052606081018290526080810182905260a0810182905260c0810182905260e08101829052906101008201908152600060208201819052604082018190526060820181905260809091015290565b604080516101a081018252600080825260208201819052918101829052906060820190815260006020820181905260408201819052606082018190526080820181905260a0820181905260c0820181905260e0820181905261010082018190526101209091015290565b6040805160a08101825260008082526020820181905291810182905260608101829052608081019190915290565b8051610b5581613198565b600082601f83011261235357600080fd5b815161236661236182613095565b61306f565b9150818183526020840193506020810190508385602084028201111561238b57600080fd5b60005b838110156123b757816123a1888261272a565b845250602092830192919091019060010161238e565b5050505092915050565b8051610b55816131ac565b600082601f8301126123dd57600080fd5b81356123eb612361826130b5565b9150808252602083016020830185838301111561240757600080fd5b61241283828461314c565b50505092915050565b600082601f83011261242c57600080fd5b815161243a612361826130b5565b9150808252602083016020830185838301111561245657600080fd5b612412838284613158565b8051610b55816131b5565b600060a0828403121561247e57600080fd5b61248860a061306f565b905060006124968484612714565b82525060206124a784848301612714565b60208301525060406124bb84828501612714565b60408301525060606124cf84828501612740565b60608301525060806124e384828501612740565b60808301525092915050565b60006101a0828403121561250257600080fd5b61250d6101a061306f565b9050600061251b848461271f565b825250602061252c84848301612735565b602083015250604061254084828501612735565b604083015250606061255484828501612461565b606083015250608061256884828501612714565b60808301525060a061257c84828501612714565b60a08301525060c061259084828501612714565b60c08301525060e06125a484828501612714565b60e0830152506101006125b984828501612337565b610100830152506101206125cf84828501612337565b610120830152506101406125e584828501612337565b610140830152506101606125fb848285016123c1565b61016083015250610180612611848285016123c1565b6101808301525092915050565b60006101a0828403121561263157600080fd5b61263c6101a061306f565b9050600061264a8484612337565b825250602061265b84848301612337565b602083015250604061266f8482850161272a565b604083015250606061268384828501612714565b606083015250608061269784828501612714565b60808301525060a06126ab84828501612714565b60a08301525060c06126bf84828501612740565b60c08301525060e06126d384828501612740565b60e0830152506101006126e884828501612461565b610100830152506101206126fe848285016123c1565b610120830152506101406125e5848285016123c1565b8051610b55816131c2565b8051610b55816131cb565b8051610b55816131d4565b8051610b55816131dd565b8051610b55816131e6565b60006020828403121561275d57600080fd5b600061212e8484612337565b6000806000806000806000806000806101c08b8d03121561278957600080fd5b60006127958d8d612337565b9a505060206127a68d828e01612337565b99505060406127b78d828e01612714565b98505060606127c88d828e01612714565b97505060806127d98d828e01612735565b96505060a06127ea8d828e01612735565b95505060c06127fb8d828e016123c1565b94505060e061280c8d828e01612461565b9350506101008b01516001600160401b0381111561282957600080fd5b6128358d828e0161241b565b9250506101206128478d828e0161246c565b9150509295989b9194979a5092959850565b6000806040838503121561286c57600080fd5b60006128788585612337565b92505060206128898582860161272a565b9150509250929050565b6000602082840312156128a557600080fd5b81516001600160401b038111156128bb57600080fd5b61212e84828501612342565b6000602082840312156128d957600080fd5b600061212e84846123c1565b6000602082840312156128f757600080fd5b81356001600160401b0381111561290d57600080fd5b61212e848285016123cc565b600060a0828403121561292b57600080fd5b600061212e848461246c565b60006101a0828403121561294a57600080fd5b600061212e84846124ef565b60006101a0828403121561296957600080fd5b600061212e848461261e565b60006020828403121561298757600080fd5b600061212e848461271f565b6000602082840312156129a557600080fd5b600061212e848461272a565b600080604083850312156129c457600080fd5b60006129d0858561272a565b92505060208301516001600160401b038111156129ec57600080fd5b6128898582860161241b565b6000612a048383612a24565b505060200190565b6000612a048383612e6b565b6000612a048383612e74565b612a2d816130ef565b82525050565b6000612a3e826130e2565b612a4881856130e6565b9350612a53836130dc565b8060005b83811015612a81578151612a6b88826129f8565b9750612a76836130dc565b925050600101612a57565b509495945050505050565b6000612a97826130e2565b612aa181856130e6565b9350612aac836130dc565b8060005b83811015612a81578151612ac48882612a0c565b9750612acf836130dc565b925050600101612ab0565b6000612ae5826130e2565b612aef81856130e6565b9350612afa836130dc565b8060005b83811015612a81578151612b128882612a18565b9750612b1d836130dc565b925050600101612afe565b612a2d816130fa565b6000612b3c826130e2565b612b4681856130e6565b9350612b56818560208601613158565b612b5f81613184565b9093019392505050565b6000612b74826130e2565b612b7e818561206c565b9350612b8e818560208601613158565b9290920192915050565b612a2d81613141565b6000612bae601b836130e6565b7f536166654d6174683a206164646974696f6e206f766572666c6f770000000000815260200192915050565b6000612be76026836130e6565b7f416464726573733a20696e73756666696369656e742062616c616e636520666f8152651c8818d85b1b60d21b602082015260400192915050565b6000612c2f601a836130e6565b7f536166654d6174683a206469766973696f6e206279207a65726f000000000000815260200192915050565b6000612c686026836130e6565b7f7265636569766543616c6c46726f6d5661756c743a20496e76616c69642061638152651d1a5bdb925960d21b602082015260400192915050565b6000612cb0601d836130e6565b7f416464726573733a2063616c6c20746f206e6f6e2d636f6e7472616374000000815260200192915050565b6000612ce96057836130e6565b7f5f5f676574576974686472617761626c654173736574416d6f756e7473416e6481527f52656d6f766557697468647261776e566f7563686572733a207072652d6d617460208201527f7572652069737375656420766f756368657220736c6f74000000000000000000604082015260600192915050565b6000612d6e602a836130e6565b7f5361666545524332303a204552433230206f7065726174696f6e20646964206e8152691bdd081cdd58d8d9595960b21b602082015260400192915050565b6000612dba6036836130e6565b7f5361666545524332303a20617070726f76652066726f6d206e6f6e2d7a65726f81527520746f206e6f6e2d7a65726f20616c6c6f77616e636560501b602082015260400192915050565b805160a0830190612e168482612e62565b506020820151612e296020850182612e62565b506040820151612e3c6040850182612e62565b506060820151612e4f6060850182612e86565b50608082015161136e6080850182612e86565b612a2d81613109565b612a2d81613121565b612a2d81613129565b612a2d8161312c565b612a2d81613135565b6000611b928284612b69565b60208101610b558284612a24565b60408101612eb78285612a24565b611b926020830184612a24565b6101c08101612ed3828d612a24565b612ee0602083018c612a24565b612eed604083018b612e62565b612efa606083018a612e62565b612f076080830189612e7d565b612f1460a0830188612e7d565b612f2160c0830187612b28565b612f2e60e0830186612b98565b818103610100830152612f418185612b31565b9050612f51610120830184612e05565b9b9a5050505050505050505050565b60408101612f6e8285612a24565b611b926020830184612e74565b60208082528101611b928184612a33565b60408082528101612f9d8185612a33565b9050818103602083015261212e8184612ada565b60208082528101611b928184612a8c565b60208082528101611b928184612b31565b6020808252810161206981612ba1565b6020808252810161206981612bda565b6020808252810161206981612c22565b6020808252810161206981612c5b565b6020808252810161206981612ca3565b6020808252810161206981612cdc565b6020808252810161206981612d61565b6020808252810161206981612dad565b60208101610b558284612e6b565b60208101610b558284612e74565b6040518181016001600160401b038111828210171561308d57600080fd5b604052919050565b60006001600160401b038211156130ab57600080fd5b5060209081020190565b60006001600160401b038211156130cb57600080fd5b506020601f91909101601f19160190565b60200190565b5190565b90815260200190565b600061206982613115565b151590565b8061206c8161318e565b6001600160801b031690565b6001600160a01b031690565b62ffffff1690565b90565b63ffffffff1690565b6001600160401b031690565b6000612069826130ff565b82818337506000910152565b60005b8381101561317357818101518382015260200161315b565b8381111561136e5750506000910152565b601f01601f191690565b600281106101c357fe5b6131a1816130ef565b81146101c357600080fd5b6131a1816130fa565b600281106101c357600080fd5b6131a181613109565b6131a181613121565b6131a181613129565b6131a18161312c565b6131a18161313556fea164736f6c634300060c000a","linkReferences":{}},"methodIdentifiers":{"getDebtAssets()":"ecd658b4","getIssuedVouchers()":"0f081d50","getManagedAssets()":"80daddb8","getOffers()":"3ee992ee","init(bytes)":"4ddf47d4","receiveCallFromVault(bytes)":"e5c23a97"},"id":180}