{"abi":[{"type":"constructor","inputs":[{"name":"_dispatcher","type":"address","internalType":"address"},{"name":"_implementation","type":"address","internalType":"address"}],"stateMutability":"nonpayable"},{"type":"function","name":"deploy","inputs":[{"name":"_pid","type":"uint256","internalType":"uint256"}],"outputs":[{"name":"wrapperProxy_","type":"address","internalType":"address"}],"stateMutability":"nonpayable"},{"type":"function","name":"getCurveLpTokenForWrapper","inputs":[{"name":"_wrapper","type":"address","internalType":"address"}],"outputs":[{"name":"lpToken_","type":"address","internalType":"address"}],"stateMutability":"view"},{"type":"function","name":"getOwner","inputs":[],"outputs":[{"name":"owner_","type":"address","internalType":"address"}],"stateMutability":"view"},{"type":"function","name":"getWrapperForConvexPool","inputs":[{"name":"_pid","type":"uint256","internalType":"uint256"}],"outputs":[{"name":"wrapper_","type":"address","internalType":"address"}],"stateMutability":"view"},{"type":"function","name":"implementation","inputs":[],"outputs":[{"name":"","type":"address","internalType":"address"}],"stateMutability":"view"},{"type":"function","name":"pauseWrappers","inputs":[{"name":"_wrappers","type":"address[]","internalType":"address[]"}],"outputs":[],"stateMutability":"nonpayable"},{"type":"function","name":"setImplementation","inputs":[{"name":"_nextImplementation","type":"address","internalType":"address"}],"outputs":[],"stateMutability":"nonpayable"},{"type":"function","name":"unpauseWrappers","inputs":[{"name":"_wrappers","type":"address[]","internalType":"address[]"}],"outputs":[],"stateMutability":"nonpayable"},{"type":"event","name":"ImplementationSet","inputs":[{"name":"implementation","type":"address","indexed":false,"internalType":"address"}],"anonymous":false},{"type":"event","name":"ProxyDeployed","inputs":[{"name":"proxy","type":"address","indexed":false,"internalType":"address"}],"anonymous":false},{"type":"event","name":"WrapperDeployed","inputs":[{"name":"pid","type":"uint256","indexed":true,"internalType":"uint256"},{"name":"wrapperProxy","type":"address","indexed":false,"internalType":"address"},{"name":"curveLpToken","type":"address","indexed":false,"internalType":"address"}],"anonymous":false}],"bytecode":{"object":"0x60a06040523480156200001157600080fd5b5060405162001bd338038062001bd3833981810160405281019062000037919062000125565b818181818173ffffffffffffffffffffffffffffffffffffffff1660808173ffffffffffffffffffffffffffffffffffffffff1681525050806000806101000a81548173ffffffffffffffffffffffffffffffffffffffff021916908373ffffffffffffffffffffffffffffffffffffffff1602179055505050505050506200016c565b600080fd5b600073ffffffffffffffffffffffffffffffffffffffff82169050919050565b6000620000ed82620000c0565b9050919050565b620000ff81620000e0565b81146200010b57600080fd5b50565b6000815190506200011f81620000f4565b92915050565b600080604083850312156200013f576200013e620000bb565b5b60006200014f858286016200010e565b925050602062000162858286016200010e565b9150509250929050565b608051611a4b6200018860003960006102ad0152611a4b6000f3fe60806040523480156200001157600080fd5b5060043610620000945760003560e01c80638aeb8b8411620000635780638aeb8b84146200014957806397b02f0c1462000169578063a5e387511462000189578063d784d42614620001bf5762000094565b80631c25201c1462000099578063456b4a3714620000cf5780635c60da1b1462000105578063893d20e81462000127575b600080fd5b620000b76004803603810190620000b1919062000a17565b620001df565b604051620000c6919062000a8e565b60405180910390f35b620000ed6004803603810190620000e7919062000adc565b6200021c565b604051620000fc919062000a8e565b60405180910390f35b6200010f62000285565b6040516200011e919062000a8e565b60405180910390f35b62000131620002a9565b60405162000140919062000a8e565b60405180910390f35b62000167600480360381019062000161919062000b7c565b62000342565b005b62000187600480360381019062000181919062000b7c565b62000482565b005b620001a76004803603810190620001a1919062000a17565b620005c2565b604051620001b6919062000a8e565b60405180910390f35b620001dd6004803603810190620001d7919062000adc565b62000851565b005b60006001600083815260200190815260200160002060009054906101000a900473ffffffffffffffffffffffffffffffffffffffff169050919050565b6000600260008373ffffffffffffffffffffffffffffffffffffffff1673ffffffffffffffffffffffffffffffffffffffff16815260200190815260200160002060009054906101000a900473ffffffffffffffffffffffffffffffffffffffff169050919050565b60008054906101000a900473ffffffffffffffffffffffffffffffffffffffff1681565b60007f000000000000000000000000000000000000000000000000000000000000000073ffffffffffffffffffffffffffffffffffffffff1663893d20e86040518163ffffffff1660e01b8152600401602060405180830381865afa15801562000317573d6000803e3d6000fd5b505050506040513d601f19601f820116820180604052508101906200033d919062000be8565b905090565b6200034c620002a9565b73ffffffffffffffffffffffffffffffffffffffff163373ffffffffffffffffffffffffffffffffffffffff1614620003bc576040517f08c379a0000000000000000000000000000000000000000000000000000000008152600401620003b39062000c7b565b60405180910390fd5b60005b828290508110156200047d57828282818110620003e157620003e062000c9d565b5b9050602002016020810190620003f8919062000adc565b73ffffffffffffffffffffffffffffffffffffffff166357d159c660006040518263ffffffff1660e01b815260040162000433919062000ce9565b600060405180830381600087803b1580156200044e57600080fd5b505af115801562000463573d6000803e3d6000fd5b505050508080620004749062000d35565b915050620003bf565b505050565b6200048c620002a9565b73ffffffffffffffffffffffffffffffffffffffff163373ffffffffffffffffffffffffffffffffffffffff1614620004fc576040517f08c379a0000000000000000000000000000000000000000000000000000000008152600401620004f39062000c7b565b60405180910390fd5b60005b82829050811015620005bd5782828281811062000521576200052062000c9d565b5b905060200201602081019062000538919062000adc565b73ffffffffffffffffffffffffffffffffffffffff166357d159c660016040518263ffffffff1660e01b815260040162000573919062000ce9565b600060405180830381600087803b1580156200058e57600080fd5b505af1158015620005a3573d6000803e3d6000fd5b505050508080620005b49062000d35565b915050620004ff565b505050565b60008073ffffffffffffffffffffffffffffffffffffffff16620005e683620001df565b73ffffffffffffffffffffffffffffffffffffffff16146200063f576040517f08c379a0000000000000000000000000000000000000000000000000000000008152600401620006369062000dd2565b60405180910390fd5b600063b7b0422d60e01b836040516024016200065c919062000e05565b604051602081830303815290604052907bffffffffffffffffffffffffffffffffffffffffffffffffffffffff19166020820180517bffffffffffffffffffffffffffffffffffffffffffffffffffffffff83818316178352505050509050620006c68162000947565b9150816001600085815260200190815260200160002060006101000a81548173ffffffffffffffffffffffffffffffffffffffff021916908373ffffffffffffffffffffffffffffffffffffffff16021790555060008273ffffffffffffffffffffffffffffffffffffffff1663b899aea46040518163ffffffff1660e01b8152600401602060405180830381865afa15801562000768573d6000803e3d6000fd5b505050506040513d601f19601f820116820180604052508101906200078e919062000be8565b905080600260008573ffffffffffffffffffffffffffffffffffffffff1673ffffffffffffffffffffffffffffffffffffffff16815260200190815260200160002060006101000a81548173ffffffffffffffffffffffffffffffffffffffff021916908373ffffffffffffffffffffffffffffffffffffffff160217905550837fe547dfbae0eb3c2c335669b841fa076eb2a1a64eab9bd2fb49868b5e624586f184836040516200084292919062000e22565b60405180910390a25050919050565b6200085b620002a9565b73ffffffffffffffffffffffffffffffffffffffff163373ffffffffffffffffffffffffffffffffffffffff1614620008cb576040517f08c379a0000000000000000000000000000000000000000000000000000000008152600401620008c29062000c7b565b60405180910390fd5b806000806101000a81548173ffffffffffffffffffffffffffffffffffffffff021916908373ffffffffffffffffffffffffffffffffffffffff1602179055507fab64f92ab780ecbf4f3866f57cee465ff36c89450dcce20237ca7a8d81fb7d13816040516200093c919062000a8e565b60405180910390a150565b600030826040516200095990620009c4565b6200096692919062000ee9565b604051809103906000f08015801562000983573d6000803e3d6000fd5b5090507fe542a942474a745be15595bbad9536fc3040d687435b060b2b9f07c1b744981881604051620009b7919062000a8e565b60405180910390a1919050565b610b2d8062000f1e83390190565b600080fd5b600080fd5b6000819050919050565b620009f181620009dc565b8114620009fd57600080fd5b50565b60008135905062000a1181620009e6565b92915050565b60006020828403121562000a305762000a2f620009d2565b5b600062000a408482850162000a00565b91505092915050565b600073ffffffffffffffffffffffffffffffffffffffff82169050919050565b600062000a768262000a49565b9050919050565b62000a888162000a69565b82525050565b600060208201905062000aa5600083018462000a7d565b92915050565b62000ab68162000a69565b811462000ac257600080fd5b50565b60008135905062000ad68162000aab565b92915050565b60006020828403121562000af55762000af4620009d2565b5b600062000b058482850162000ac5565b91505092915050565b600080fd5b600080fd5b600080fd5b60008083601f84011262000b365762000b3562000b0e565b5b8235905067ffffffffffffffff81111562000b565762000b5562000b13565b5b60208301915083602082028301111562000b755762000b7462000b18565b5b9250929050565b6000806020838503121562000b965762000b95620009d2565b5b600083013567ffffffffffffffff81111562000bb75762000bb6620009d7565b5b62000bc58582860162000b1d565b92509250509250929050565b60008151905062000be28162000aab565b92915050565b60006020828403121562000c015762000c00620009d2565b5b600062000c118482850162000bd1565b91505092915050565b600082825260208201905092915050565b7f6f6e6c794f776e65720000000000000000000000000000000000000000000000600082015250565b600062000c6360098362000c1a565b915062000c708262000c2b565b602082019050919050565b6000602082019050818103600083015262000c968162000c54565b9050919050565b7f4e487b7100000000000000000000000000000000000000000000000000000000600052603260045260246000fd5b60008115159050919050565b62000ce38162000ccc565b82525050565b600060208201905062000d00600083018462000cd8565b92915050565b7f4e487b7100000000000000000000000000000000000000000000000000000000600052601160045260246000fd5b600062000d4282620009dc565b91507fffffffffffffffffffffffffffffffffffffffffffffffffffffffffffffffff820362000d775762000d7662000d06565b5b600182019050919050565b7f6465706c6f793a205772617070657220616c7265616479206578697374730000600082015250565b600062000dba601e8362000c1a565b915062000dc78262000d82565b602082019050919050565b6000602082019050818103600083015262000ded8162000dab565b9050919050565b62000dff81620009dc565b82525050565b600060208201905062000e1c600083018462000df4565b92915050565b600060408201905062000e39600083018562000a7d565b62000e48602083018462000a7d565b9392505050565b600081519050919050565b600082825260208201905092915050565b60005b8381101562000e8b57808201518184015260208101905062000e6e565b60008484015250505050565b6000601f19601f8301169050919050565b600062000eb58262000e4f565b62000ec1818562000e5a565b935062000ed381856020860162000e6b565b62000ede8162000e97565b840191505092915050565b600060408201905062000f00600083018562000a7d565b818103602083015262000f14818462000ea8565b9050939250505056fe608060405260405162000b2d38038062000b2d8339818101604052810190610027919061063b565b6100398282600061004060201b60201c565b5050610929565b61004f8361012960201b60201c565b8273ffffffffffffffffffffffffffffffffffffffff167f1cf3b03a6cf19fa2baba4df148e9dcabedea7f8a5c07840e207e5c089be95d3e60405160405180910390a260008251118061009f5750805b15610124576101228373ffffffffffffffffffffffffffffffffffffffff16635c60da1b6040518163ffffffff1660e01b8152600401602060405180830381865afa1580156100f2573d6000803e3d6000fd5b505050506040513d601f19601f820116820180604052508101906101169190610697565b836102aa60201b60201c565b505b505050565b610138816102de60201b60201c565b610177576040517f08c379a000000000000000000000000000000000000000000000000000000000815260040161016e90610747565b60405180910390fd5b6101f48173ffffffffffffffffffffffffffffffffffffffff16635c60da1b6040518163ffffffff1660e01b8152600401602060405180830381865afa1580156101c5573d6000803e3d6000fd5b505050506040513d601f19601f820116820180604052508101906101e99190610697565b6102de60201b60201c565b610233576040517f08c379a000000000000000000000000000000000000000000000000000000000815260040161022a906107d9565b60405180910390fd5b806102667fa3f0ad74e5423aebfd80d3ef4346578335a9a72aeaee59ff6cb3582b35133d5060001b61030160201b60201c565b60000160006101000a81548173ffffffffffffffffffffffffffffffffffffffff021916908373ffffffffffffffffffffffffffffffffffffffff16021790555050565b60606102d6838360405180606001604052806027815260200162000b066027913961030b60201b60201c565b905092915050565b6000808273ffffffffffffffffffffffffffffffffffffffff163b119050919050565b6000819050919050565b60606000808573ffffffffffffffffffffffffffffffffffffffff16856040516103359190610840565b600060405180830381855af49150503d8060008114610370576040519150601f19603f3d011682016040523d82523d6000602084013e610375565b606091505b509150915061038c8683838761039760201b60201c565b925050509392505050565b606083156103ff5760008351036103f7576103b7856102de60201b60201c565b6103f6576040517f08c379a00000000000000000000000000000000000000000000000000000000081526004016103ed906108a3565b60405180910390fd5b5b829050610410565b61040f838361041860201b60201c565b5b949350505050565b60008251111561042b5781518083602001fd5b806040517f08c379a000000000000000000000000000000000000000000000000000000000815260040161045f9190610907565b60405180910390fd5b6000604051905090565b600080fd5b600080fd5b600073ffffffffffffffffffffffffffffffffffffffff82169050919050565b60006104a78261047c565b9050919050565b6104b78161049c565b81146104c257600080fd5b50565b6000815190506104d4816104ae565b92915050565b600080fd5b600080fd5b6000601f19601f8301169050919050565b7f4e487b7100000000000000000000000000000000000000000000000000000000600052604160045260246000fd5b61052d826104e4565b810181811067ffffffffffffffff8211171561054c5761054b6104f5565b5b80604052505050565b600061055f610468565b905061056b8282610524565b919050565b600067ffffffffffffffff82111561058b5761058a6104f5565b5b610594826104e4565b9050602081019050919050565b60005b838110156105bf5780820151818401526020810190506105a4565b60008484015250505050565b60006105de6105d984610570565b610555565b9050828152602081018484840111156105fa576105f96104df565b5b6106058482856105a1565b509392505050565b600082601f830112610622576106216104da565b5b81516106328482602086016105cb565b91505092915050565b6000806040838503121561065257610651610472565b5b6000610660858286016104c5565b925050602083015167ffffffffffffffff81111561068157610680610477565b5b61068d8582860161060d565b9150509250929050565b6000602082840312156106ad576106ac610472565b5b60006106bb848285016104c5565b91505092915050565b600082825260208201905092915050565b7f455243313936373a206e657720626561636f6e206973206e6f74206120636f6e60008201527f7472616374000000000000000000000000000000000000000000000000000000602082015250565b60006107316025836106c4565b915061073c826106d5565b604082019050919050565b6000602082019050818103600083015261076081610724565b9050919050565b7f455243313936373a20626561636f6e20696d706c656d656e746174696f6e206960008201527f73206e6f74206120636f6e747261637400000000000000000000000000000000602082015250565b60006107c36030836106c4565b91506107ce82610767565b604082019050919050565b600060208201905081810360008301526107f2816107b6565b9050919050565b600081519050919050565b600081905092915050565b600061081a826107f9565b6108248185610804565b93506108348185602086016105a1565b80840191505092915050565b600061084c828461080f565b915081905092915050565b7f416464726573733a2063616c6c20746f206e6f6e2d636f6e7472616374000000600082015250565b600061088d601d836106c4565b915061089882610857565b602082019050919050565b600060208201905081810360008301526108bc81610880565b9050919050565b600081519050919050565b60006108d9826108c3565b6108e381856106c4565b93506108f38185602086016105a1565b6108fc816104e4565b840191505092915050565b6000602082019050818103600083015261092181846108ce565b905092915050565b6101cd80620009396000396000f3fe6080604052366100135761001161001d565b005b61001b61001d565b005b610025610037565b610035610030610039565b6100b6565b565b565b60006100436100dc565b73ffffffffffffffffffffffffffffffffffffffff16635c60da1b6040518163ffffffff1660e01b8152600401602060405180830381865afa15801561008d573d6000803e3d6000fd5b505050506040513d601f19601f820116820180604052508101906100b191906101a0565b905090565b3660008037600080366000845af43d6000803e80600081146100d7573d6000f35b3d6000fd5b600061010a7fa3f0ad74e5423aebfd80d3ef4346578335a9a72aeaee59ff6cb3582b35133d5060001b610133565b60000160009054906101000a900473ffffffffffffffffffffffffffffffffffffffff16905090565b6000819050919050565b600080fd5b600073ffffffffffffffffffffffffffffffffffffffff82169050919050565b600061016d82610142565b9050919050565b61017d81610162565b811461018857600080fd5b50565b60008151905061019a81610174565b92915050565b6000602082840312156101b6576101b561013d565b5b60006101c48482850161018b565b9150509291505056416464726573733a206c6f772d6c6576656c2064656c65676174652063616c6c206661696c6564","linkReferences":{}},"methodIdentifiers":{"deploy(uint256)":"a5e38751","getCurveLpTokenForWrapper(address)":"456b4a37","getOwner()":"893d20e8","getWrapperForConvexPool(uint256)":"1c25201c","implementation()":"5c60da1b","pauseWrappers(address[])":"97b02f0c","setImplementation(address)":"d784d426","unpauseWrappers(address[])":"8aeb8b84"},"id":29}