{"abi":[{"type":"constructor","inputs":[{"name":"_steth","type":"address","internalType":"contract ILidoSteth"},{"name":"_stethEthChainlinkAggregator","type":"address","internalType":"contract IChainlinkAggregator"}],"stateMutability":"nonpayable"},{"type":"function","name":"decimals","inputs":[],"outputs":[{"name":"decimals_","type":"uint8","internalType":"uint8"}],"stateMutability":"pure"},{"type":"function","name":"latestRoundData","inputs":[],"outputs":[{"name":"","type":"uint80","internalType":"uint80"},{"name":"answer_","type":"int256","internalType":"int256"},{"name":"startedAt_","type":"uint256","internalType":"uint256"},{"name":"updatedAt_","type":"uint256","internalType":"uint256"},{"name":"","type":"uint80","internalType":"uint80"}],"stateMutability":"view"},{"type":"error","name":"ChainlinkLikeWstethPriceFeed__NegativeAnswer","inputs":[]}],"bytecode":{"object":"0x60c060405234801561001057600080fd5b5060405161039f38038061039f83398101604081905261002f9161005e565b6001600160a01b039182166080521660a052610098565b6001600160a01b038116811461005b57600080fd5b50565b6000806040838503121561007157600080fd5b825161007c81610046565b602084015190925061008d81610046565b809150509250929050565b60805160a0516102e36100bc600039600061013401526000609901526102e36000f3fe608060405234801561001057600080fd5b50600436106100365760003560e01c8063313ce5671461003b578063feaf968c1461004f575b600080fd5b604051601281526020015b60405180910390f35b61005761008e565b6040805169ffffffffffffffffffff968716815260208101959095528401929092526060830152909116608082015260a001610046565b6000806000806000807f00000000000000000000000000000000000000000000000000000000000000006001600160a01b0316637a28fb88670de0b6b3a76400006040518263ffffffff1660e01b81526004016100ed91815260200190565b602060405180830381865afa15801561010a573d6000803e3d6000fd5b505050506040513d601f19601f8201168201806040525081019061012e919061020e565b905060007f00000000000000000000000000000000000000000000000000000000000000006001600160a01b031663feaf968c6040518163ffffffff1660e01b815260040160a060405180830381865afa158015610190573d6000803e3d6000fd5b505050506040513d601f19601f820116820180604052508101906101b49190610246565b50909750955091505060008112156101df5760405163097fd4c760e01b815260040160405180910390fd5b670de0b6b3a76400006101f28383610296565b6101fc91906102c1565b60009750955086925050509091929394565b60006020828403121561022057600080fd5b5051919050565b805169ffffffffffffffffffff8116811461024157600080fd5b919050565b600080600080600060a0868803121561025e57600080fd5b61026786610227565b945060208601519350604086015192506060860151915061028a60808701610227565b90509295509295909350565b80820281158282048414176102bb57634e487b7160e01b600052601160045260246000fd5b92915050565b6000826102de57634e487b7160e01b600052601260045260246000fd5b50049056","linkReferences":{}},"methodIdentifiers":{"decimals()":"313ce567","latestRoundData()":"feaf968c"},"id":178}