{"abi":[{"type":"constructor","inputs":[{"name":"_feeManager","type":"address","internalType":"address"}],"stateMutability":"nonpayable"},{"type":"function","name":"activateForFund","inputs":[{"name":"","type":"address","internalType":"address"},{"name":"","type":"address","internalType":"address"}],"outputs":[],"stateMutability":"nonpayable"},{"type":"function","name":"addFundSettings","inputs":[{"name":"","type":"address","internalType":"address"},{"name":"","type":"bytes","internalType":"bytes"}],"outputs":[],"stateMutability":"nonpayable"},{"type":"function","name":"getFeeManager","inputs":[],"outputs":[{"name":"feeManager_","type":"address","internalType":"address"}],"stateMutability":"view"},{"type":"function","name":"getRecipientForFund","inputs":[{"name":"","type":"address","internalType":"address"}],"outputs":[{"name":"recipient_","type":"address","internalType":"address"}],"stateMutability":"view"},{"type":"function","name":"payout","inputs":[{"name":"","type":"address","internalType":"address"},{"name":"","type":"address","internalType":"address"}],"outputs":[{"name":"","type":"bool","internalType":"bool"}],"stateMutability":"nonpayable"},{"type":"function","name":"settle","inputs":[{"name":"_comptrollerProxy","type":"address","internalType":"address"},{"name":"_vaultProxy","type":"address","internalType":"address"},{"name":"","type":"uint8","internalType":"enum IFeeManager.FeeHook"},{"name":"_settlementData","type":"bytes","internalType":"bytes"},{"name":"","type":"uint256","internalType":"uint256"}],"outputs":[{"name":"settlementType_","type":"uint8","internalType":"enum IFeeManager.SettlementType"},{"name":"payer_","type":"address","internalType":"address"},{"name":"sharesDue_","type":"uint256","internalType":"uint256"}],"stateMutability":"nonpayable"},{"type":"function","name":"settlesOnHook","inputs":[{"name":"_hook","type":"uint8","internalType":"enum IFeeManager.FeeHook"}],"outputs":[{"name":"settles_","type":"bool","internalType":"bool"},{"name":"usesGav_","type":"bool","internalType":"bool"}],"stateMutability":"view"},{"type":"function","name":"update","inputs":[{"name":"","type":"address","internalType":"address"},{"name":"","type":"address","internalType":"address"},{"name":"","type":"uint8","internalType":"enum IFeeManager.FeeHook"},{"name":"","type":"bytes","internalType":"bytes"},{"name":"","type":"uint256","internalType":"uint256"}],"outputs":[],"stateMutability":"nonpayable"},{"type":"function","name":"updatesOnHook","inputs":[{"name":"","type":"uint8","internalType":"enum IFeeManager.FeeHook"}],"outputs":[{"name":"updates_","type":"bool","internalType":"bool"},{"name":"usesGav_","type":"bool","internalType":"bool"}],"stateMutability":"view"},{"type":"event","name":"Settled","inputs":[{"name":"comptrollerProxy","type":"address","indexed":true,"internalType":"address"},{"name":"payer","type":"address","indexed":true,"internalType":"address"},{"name":"sharesQuantity","type":"uint256","indexed":false,"internalType":"uint256"}],"anonymous":false}],"bytecode":{"object":"0x60a060405234801561001057600080fd5b5060405161067f38038061067f8339818101604052602081101561003357600080fd5b5051606081901b6001600160601b0319166080526001600160a01b031661061361006c600039806103dc528061058b52506106136000f3fe608060405234801561001057600080fd5b50600436106100935760003560e01c806341892d7e1161006657806341892d7e1461021657806362780b3c146102e1578063b78b481314610323578063e337a91f14610365578063f2d638261461038557610093565b80630f5f6b4f14610098578063233faf5f1461011a5780633146d058146101ad578063320f0ddd146101db575b600080fd5b610118600480360360408110156100ae57600080fd5b6001600160a01b0382351691908101906040810160208201356401000000008111156100d957600080fd5b8201836020820111156100eb57600080fd5b8035906020019184600183028401116401000000008311171561010d57600080fd5b50909250905061038d565b005b610118600480360360a081101561013057600080fd5b6001600160a01b03823581169260208101359091169160ff604083013516919081019060808101606082013564010000000081111561016e57600080fd5b82018360208201111561018057600080fd5b803590602001918460018302840111640100000000831117156101a257600080fd5b919350915035610392565b610118600480360360408110156101c357600080fd5b506001600160a01b038135811691602001351661039a565b6101fb600480360360208110156101f157600080fd5b503560ff1661039e565b60408051921515835290151560208301528051918290030190f35b6102a9600480360360a081101561022c57600080fd5b6001600160a01b03823581169260208101359091169160ff604083013516919081019060808101606082013564010000000081111561026a57600080fd5b82018360208201111561027c57600080fd5b8035906020019184600183028401116401000000008311171561029e57600080fd5b9193509150356103cd565b604051808460058111156102b957fe5b8152602001836001600160a01b03168152602001828152602001935050505060405180910390f35b610307600480360360208110156102f757600080fd5b50356001600160a01b0316610573565b604080516001600160a01b039092168252519081900360200190f35b6103516004803603604081101561033957600080fd5b506001600160a01b0381358116916020013516610579565b604080519115158252519081900360200190f35b6101fb6004803603602081101561037b57600080fd5b503560ff16610581565b610307610589565b505050565b505050505050565b5050565b60008060028360038111156103af57fe5b14156103c157506001905060006103c8565b5060009050805b915091565b60008080336001600160a01b037f000000000000000000000000000000000000000000000000000000000000000016146104385760405162461bcd60e51b81526004018080602001828103825260258152602001806105e26025913960400191505060405180910390fd5b6000886001600160a01b03166370a0823160016040518263ffffffff1660e01b815260040180826001600160a01b0316815260200191505060206040518083038186803b15801561048857600080fd5b505afa15801561049c573d6000803e3d6000fd5b505050506040513d60208110156104b257600080fd5b50519050620f424081106104d157600080600093509350935050610567565b80620f424003915061051887878080601f0160208091040260200160405190810160405280939291908181526020018383808284376000920191909152506105ad92505050565b50506040805184815290519194506001600160a01b0380861692908d16917f7e79a2206061184e05985ae0578dec52f817756a441996f984cdc817efc25a68919081900360200190a360019350505b96509650969350505050565b50600190565b600092915050565b600080915091565b7f000000000000000000000000000000000000000000000000000000000000000090565b60008060008380602001905160608110156105c757600080fd5b50805160208201516040909201519096919550935091505056fe4f6e6c7920746865204665654d616e6765722063616e206d616b6520746869732063616c6ca164736f6c634300060c000a","linkReferences":{}},"methodIdentifiers":{"activateForFund(address,address)":"3146d058","addFundSettings(address,bytes)":"0f5f6b4f","getFeeManager()":"f2d63826","getRecipientForFund(address)":"62780b3c","payout(address,address)":"b78b4813","settle(address,address,uint8,bytes,uint256)":"41892d7e","settlesOnHook(uint8)":"320f0ddd","update(address,address,uint8,bytes,uint256)":"233faf5f","updatesOnHook(uint8)":"e337a91f"},"id":169}