{"abi":[{"type":"constructor","inputs":[{"name":"_fundDeployer","type":"address","internalType":"address"}],"stateMutability":"nonpayable"},{"type":"function","name":"activateForFund","inputs":[{"name":"","type":"bool","internalType":"bool"}],"outputs":[],"stateMutability":"nonpayable"},{"type":"function","name":"deactivateForFund","inputs":[],"outputs":[],"stateMutability":"nonpayable"},{"type":"function","name":"getEnabledFeesForFund","inputs":[{"name":"_comptrollerProxy","type":"address","internalType":"address"}],"outputs":[{"name":"enabledFees_","type":"address[]","internalType":"address[]"}],"stateMutability":"view"},{"type":"function","name":"getFeeSharesOutstandingForFund","inputs":[{"name":"_comptrollerProxy","type":"address","internalType":"address"},{"name":"_fee","type":"address","internalType":"address"}],"outputs":[{"name":"sharesOutstanding_","type":"uint256","internalType":"uint256"}],"stateMutability":"view"},{"type":"function","name":"getFundDeployer","inputs":[],"outputs":[{"name":"fundDeployer_","type":"address","internalType":"address"}],"stateMutability":"view"},{"type":"function","name":"getOwner","inputs":[],"outputs":[{"name":"owner_","type":"address","internalType":"address"}],"stateMutability":"view"},{"type":"function","name":"getVaultProxyForFund","inputs":[{"name":"_comptrollerProxy","type":"address","internalType":"address"}],"outputs":[{"name":"vaultProxy_","type":"address","internalType":"address"}],"stateMutability":"view"},{"type":"function","name":"invokeHook","inputs":[{"name":"_hook","type":"uint8","internalType":"enum IFeeManager.FeeHook"},{"name":"_settlementData","type":"bytes","internalType":"bytes"},{"name":"_gav","type":"uint256","internalType":"uint256"}],"outputs":[],"stateMutability":"nonpayable"},{"type":"function","name":"receiveCallFromComptroller","inputs":[{"name":"","type":"address","internalType":"address"},{"name":"_actionId","type":"uint256","internalType":"uint256"},{"name":"_callArgs","type":"bytes","internalType":"bytes"}],"outputs":[],"stateMutability":"nonpayable"},{"type":"function","name":"setConfigForFund","inputs":[{"name":"_comptrollerProxy","type":"address","internalType":"address"},{"name":"_vaultProxy","type":"address","internalType":"address"},{"name":"_configData","type":"bytes","internalType":"bytes"}],"outputs":[],"stateMutability":"nonpayable"},{"type":"event","name":"FeeEnabledForFund","inputs":[{"name":"comptrollerProxy","type":"address","indexed":true,"internalType":"address"},{"name":"fee","type":"address","indexed":true,"internalType":"address"},{"name":"settingsData","type":"bytes","indexed":false,"internalType":"bytes"}],"anonymous":false},{"type":"event","name":"FeeSettledForFund","inputs":[{"name":"comptrollerProxy","type":"address","indexed":true,"internalType":"address"},{"name":"fee","type":"address","indexed":true,"internalType":"address"},{"name":"settlementType","type":"uint8","indexed":true,"internalType":"enum IFeeManager.SettlementType"},{"name":"payer","type":"address","indexed":false,"internalType":"address"},{"name":"payee","type":"address","indexed":false,"internalType":"address"},{"name":"sharesDue","type":"uint256","indexed":false,"internalType":"uint256"}],"anonymous":false},{"type":"event","name":"SharesOutstandingPaidForFund","inputs":[{"name":"comptrollerProxy","type":"address","indexed":true,"internalType":"address"},{"name":"fee","type":"address","indexed":true,"internalType":"address"},{"name":"payee","type":"address","indexed":true,"internalType":"address"},{"name":"sharesDue","type":"uint256","indexed":false,"internalType":"uint256"}],"anonymous":false},{"type":"event","name":"ValidatedVaultProxySetForFund","inputs":[{"name":"comptrollerProxy","type":"address","indexed":true,"internalType":"address"},{"name":"vaultProxy","type":"address","indexed":true,"internalType":"address"}],"anonymous":false}],"bytecode":{"object":"0x60a06040523480156200001157600080fd5b5060405162002a6f38038062002a6f833981810160405281019062000037919062000090565b80808073ffffffffffffffffffffffffffffffffffffffff1660808173ffffffffffffffffffffffffffffffffffffffff1660601b815250505050506200010a565b6000815190506200008a81620000f0565b92915050565b600060208284031215620000a357600080fd5b6000620000b38482850162000079565b91505092915050565b6000620000c982620000d0565b9050919050565b600073ffffffffffffffffffffffffffffffffffffffff82169050919050565b620000fb81620000bc565b81146200010757600080fd5b50565b60805160601c6129426200012d6000398061043752806104dc52506129426000f3fe608060405234801561001057600080fd5b506004361061009e5760003560e01c806397c0ac871161006657806397c0ac8714610145578063a9f3b42f14610163578063aa051c2c14610193578063bd8e959a146101c3578063f067cc11146101cd5761009e565b80631bee801e146100a357806346790346146100bf5780637759c164146100ef57806380d570631461010b578063893d20e814610127575b600080fd5b6100bd60048036038101906100b89190611da7565b6101e9565b005b6100d960048036038101906100d49190611cad565b6102b4565b6040516100e691906123ea565b60405180910390f35b61010960048036038101906101049190611f4e565b61031c565b005b61012560048036038101906101209190611ec0565b610374565b005b61012f610433565b60405161013c91906123ea565b60405180910390f35b61014d6104d8565b60405161015a91906123ea565b60405180910390f35b61017d60048036038101906101789190611cad565b610500565b60405161018a9190612518565b60405180910390f35b6101ad60048036038101906101a89190611cff565b6105cd565b6040516101ba91906126a7565b60405180910390f35b6101cb610654565b005b6101e760048036038101906101e29190611d3b565b6106b0565b005b60008314156102165761021133600060405180602001604052806000815250600060016109c4565b6102ae565b60018314156102725761026d3383838080601f016020809104026020016040519081016040528093929190818152602001838380828437600081840152601f19601f82011690508083019250505050505050610a90565b6102ad565b6040517f08c379a00000000000000000000000000000000000000000000000000000000081526004016102a4906125c7565b60405180910390fd5b5b50505050565b60008060008373ffffffffffffffffffffffffffffffffffffffff1673ffffffffffffffffffffffffffffffffffffffff16815260200190815260200160002060009054906101000a900473ffffffffffffffffffffffffffffffffffffffff169050919050565b61036e338585858080601f016020809104026020016040519081016040528093929190818152602001838380828437600081840152601f19601f820116905080830192505050505050508460016109c4565b50505050565b60003390506000610384826102b4565b9050606061039183610500565b905060005b815181101561042c578181815181106103ab57fe5b602002602001015173ffffffffffffffffffffffffffffffffffffffff16633146d05885856040518363ffffffff1660e01b81526004016103ed929190612405565b600060405180830381600087803b15801561040757600080fd5b505af115801561041b573d6000803e3d6000fd5b505050508080600101915050610396565b5050505050565b60007f000000000000000000000000000000000000000000000000000000000000000073ffffffffffffffffffffffffffffffffffffffff1663893d20e86040518163ffffffff1660e01b815260040160206040518083038186803b15801561049b57600080fd5b505afa1580156104af573d6000803e3d6000fd5b505050506040513d601f19601f820116820180604052508101906104d39190611cd6565b905090565b60007f0000000000000000000000000000000000000000000000000000000000000000905090565b6060600160008373ffffffffffffffffffffffffffffffffffffffff1673ffffffffffffffffffffffffffffffffffffffff1681526020019081526020016000208054806020026020016040519081016040528092919081815260200182805480156105c157602002820191906000526020600020905b8160009054906101000a900473ffffffffffffffffffffffffffffffffffffffff1673ffffffffffffffffffffffffffffffffffffffff1681526020019060010190808311610577575b50505050509050919050565b6000600260008473ffffffffffffffffffffffffffffffffffffffff1673ffffffffffffffffffffffffffffffffffffffff16815260200190815260200160002060008373ffffffffffffffffffffffffffffffffffffffff1673ffffffffffffffffffffffffffffffffffffffff16815260200190815260200160002054905092915050565b60003390506000610664826102b4565b9050606061067183610500565b905060005b81518110156106aa5761069d848484848151811061069057fe5b6020026020010151610b99565b8080600101915050610676565b50505050565b6106b86104d8565b73ffffffffffffffffffffffffffffffffffffffff163373ffffffffffffffffffffffffffffffffffffffff1614610725576040517f08c379a000000000000000000000000000000000000000000000000000000000815260040161071c90612647565b60405180910390fd5b61072f8484610cd5565b60608083838101906107419190611e54565b915091508051825114610789576040517f08c379a000000000000000000000000000000000000000000000000000000000815260040161078090612607565b60405180910390fd5b61079282610db0565b6107d1576040517f08c379a00000000000000000000000000000000000000000000000000000000081526004016107c890612627565b60405180910390fd5b60005b82518110156109bb578281815181106107e957fe5b602002602001015173ffffffffffffffffffffffffffffffffffffffff16630f5f6b4f8884848151811061081957fe5b60200260200101516040518363ffffffff1660e01b815260040161083e9291906124bf565b600060405180830381600087803b15801561085857600080fd5b505af115801561086c573d6000803e3d6000fd5b50505050600160008873ffffffffffffffffffffffffffffffffffffffff1673ffffffffffffffffffffffffffffffffffffffff1681526020019081526020016000208382815181106108bb57fe5b60200260200101519080600181540180825580915050600190039060005260206000200160009091909190916101000a81548173ffffffffffffffffffffffffffffffffffffffff021916908373ffffffffffffffffffffffffffffffffffffffff16021790555082818151811061092f57fe5b602002602001015173ffffffffffffffffffffffffffffffffffffffff168773ffffffffffffffffffffffffffffffffffffffff167f62b7814f137868e44c7a83c2b0a340fc5dacef8f3e748867d0f5f879fc0ef6da84848151811061099157fe5b60200260200101516040516109a6919061253a565b60405180910390a380806001019150506107d4565b50505050505050565b60606109cf86610500565b90506000815114156109e15750610a89565b60006109ec876102b4565b9050600073ffffffffffffffffffffffffffffffffffffffff168173ffffffffffffffffffffffffffffffffffffffff161415610a5e576040517f08c379a0000000000000000000000000000000000000000000000000000000008152600401610a5590612687565b60405180910390fd5b6000610a6e8883858a8a8a610e73565b90508315610a8557610a848883858a8a86610f81565b5b5050505b5050505050565b606081806020019051810190610aa69190611e13565b90506000610ab3336102b4565b905060005b8251811015610b9257828181518110610acd57fe5b602002602001015173ffffffffffffffffffffffffffffffffffffffff1663b78b481386846040518363ffffffff1660e01b8152600401610b0f929190612405565b602060405180830381600087803b158015610b2957600080fd5b505af1158015610b3d573d6000803e3d6000fd5b505050506040513d601f19601f82011682018060405250810190610b619190611ee9565b15610b8557610b848583858481518110610b7757fe5b6020026020010151610b99565b5b8080600101915050610ab8565b5050505050565b6000610ba584836105cd565b90506000811415610bb65750610cd0565b600260008573ffffffffffffffffffffffffffffffffffffffff1673ffffffffffffffffffffffffffffffffffffffff16815260200190815260200160002060008373ffffffffffffffffffffffffffffffffffffffff1673ffffffffffffffffffffffffffffffffffffffff168152602001908152602001600020600090556000610c438585856110f3565b9050610c518585838561123d565b8073ffffffffffffffffffffffffffffffffffffffff168373ffffffffffffffffffffffffffffffffffffffff168673ffffffffffffffffffffffffffffffffffffffff167f4e6eff738a7af3dbd4288f753eb551833c09a82d6c3dfaf07a23c3fcc82a352285604051610cc591906126a7565b60405180910390a450505b505050565b806000808473ffffffffffffffffffffffffffffffffffffffff1673ffffffffffffffffffffffffffffffffffffffff16815260200190815260200160002060006101000a81548173ffffffffffffffffffffffffffffffffffffffff021916908373ffffffffffffffffffffffffffffffffffffffff1602179055508073ffffffffffffffffffffffffffffffffffffffff168273ffffffffffffffffffffffffffffffffffffffff167f8852dcaa71340ea616a65ffac013450dfb238607481fb9d78346c667fe256c1360405160405180910390a35050565b60006001825111610dc45760019050610e6e565b60008251905060005b81811015610e675760006001820190505b82811015610e5957848181518110610df257fe5b602002602001015173ffffffffffffffffffffffffffffffffffffffff16858381518110610e1c57fe5b602002602001015173ffffffffffffffffffffffffffffffffffffffff161415610e4c5760009350505050610e6e565b8080600101915050610dde565b508080600101915050610dcd565b5060019150505b919050565b600081905060005b8551811015610f7657600080878381518110610e9357fe5b602002602001015173ffffffffffffffffffffffffffffffffffffffff1663320f0ddd886040518263ffffffff1660e01b8152600401610ed3919061255c565b604080518083038186803b158015610eea57600080fd5b505afa158015610efe573d6000803e3d6000fd5b505050506040513d601f19601f82011682018060405250810190610f229190611f12565b9150915081610f32575050610f69565b8015610f4557610f428a856112d4565b93505b610f668a8a8a8681518110610f5657fe5b60200260200101518a8a8961136f565b50505b8080600101915050610e7b565b509695505050505050565b600081905060005b85518110156110e957600080878381518110610fa157fe5b602002602001015173ffffffffffffffffffffffffffffffffffffffff1663e337a91f886040518263ffffffff1660e01b8152600401610fe1919061255c565b604080518083038186803b158015610ff857600080fd5b505afa15801561100c573d6000803e3d6000fd5b505050506040513d601f19601f820116820180604052508101906110309190611f12565b91509150816110405750506110dc565b8015611053576110508a856112d4565b93505b87838151811061105f57fe5b602002602001015173ffffffffffffffffffffffffffffffffffffffff1663233faf5f8b8b8a8a896040518663ffffffff1660e01b81526004016110a795949392919061242e565b600060405180830381600087803b1580156110c157600080fd5b505af11580156110d5573d6000803e3d6000fd5b5050505050505b8080600101915050610f89565b5050505050505050565b60008173ffffffffffffffffffffffffffffffffffffffff166362780b3c856040518263ffffffff1660e01b815260040161112e91906123ea565b60206040518083038186803b15801561114657600080fd5b505afa15801561115a573d6000803e3d6000fd5b505050506040513d601f19601f8201168201806040525081019061117e9190611cd6565b9050600073ffffffffffffffffffffffffffffffffffffffff168173ffffffffffffffffffffffffffffffffffffffff161415611236578273ffffffffffffffffffffffffffffffffffffffff1663893d20e86040518163ffffffff1660e01b815260040160206040518083038186803b1580156111fb57600080fd5b505afa15801561120f573d6000803e3d6000fd5b505050506040513d601f19601f820116820180604052508101906112339190611cd6565b90505b9392505050565b8373ffffffffffffffffffffffffffffffffffffffff166310acd06d600385858560405160200161127093929190612488565b6040516020818303038152906040526040518363ffffffff1660e01b815260040161129c929190612577565b600060405180830381600087803b1580156112b657600080fd5b505af11580156112ca573d6000803e3d6000fd5b5050505050505050565b600080821415611365578273ffffffffffffffffffffffffffffffffffffffff166356cff99f6040518163ffffffff1660e01b8152600401602060405180830381600087803b15801561132657600080fd5b505af115801561133a573d6000803e3d6000fd5b505050506040513d601f19601f8201168201806040525081019061135e9190612009565b9050611369565b8190505b92915050565b60008060008673ffffffffffffffffffffffffffffffffffffffff166341892d7e8a8a8989896040518663ffffffff1660e01b81526004016113b595949392919061242e565b606060405180830381600087803b1580156113cf57600080fd5b505af11580156113e3573d6000803e3d6000fd5b505050506040513d601f19601f820116820180604052508101906114079190611fba565b9250925092506000600581111561141a57fe5b83600581111561142657fe5b141561143457505050611818565b60006001600581111561144357fe5b84600581111561144f57fe5b1415611473576114608a8a8a6110f3565b905061146e8a84838561123d565b61179e565b6002600581111561148057fe5b84600581111561148c57fe5b14156114af5761149d8a8a8a6110f3565b90506114aa8a8284611820565b61179d565b600360058111156114bc57fe5b8460058111156114c857fe5b14156114de576114d98a84846118b4565b61179c565b600460058111156114eb57fe5b8460058111156114f757fe5b141561161f5761158c82600260008d73ffffffffffffffffffffffffffffffffffffffff1673ffffffffffffffffffffffffffffffffffffffff16815260200190815260200160002060008b73ffffffffffffffffffffffffffffffffffffffff1673ffffffffffffffffffffffffffffffffffffffff1681526020019081526020016000205461194890919063ffffffff16565b600260008c73ffffffffffffffffffffffffffffffffffffffff1673ffffffffffffffffffffffffffffffffffffffff16815260200190815260200160002060008a73ffffffffffffffffffffffffffffffffffffffff1673ffffffffffffffffffffffffffffffffffffffff1681526020019081526020016000208190555088905061161a8a8284611820565b61179b565b60058081111561162b57fe5b84600581111561163757fe5b141561175f576116cc82600260008d73ffffffffffffffffffffffffffffffffffffffff1673ffffffffffffffffffffffffffffffffffffffff16815260200190815260200160002060008b73ffffffffffffffffffffffffffffffffffffffff1673ffffffffffffffffffffffffffffffffffffffff1681526020019081526020016000205461199d90919063ffffffff16565b600260008c73ffffffffffffffffffffffffffffffffffffffff1673ffffffffffffffffffffffffffffffffffffffff16815260200190815260200160002060008a73ffffffffffffffffffffffffffffffffffffffff1673ffffffffffffffffffffffffffffffffffffffff1681526020019081526020016000208190555088925061175a8a84846118b4565b61179a565b6040517f08c379a000000000000000000000000000000000000000000000000000000000815260040161179190612667565b60405180910390fd5b5b5b5b5b8360058111156117aa57fe5b8873ffffffffffffffffffffffffffffffffffffffff168b73ffffffffffffffffffffffffffffffffffffffff167fef7da7c40d1fc52df907f6fed0e539680d5fb491c3b8f94db234a360dafe1d6286858760405161180b93929190612488565b60405180910390a4505050505b505050505050565b8273ffffffffffffffffffffffffffffffffffffffff166310acd06d600284846040516020016118519291906124ef565b6040516020818303038152906040526040518363ffffffff1660e01b815260040161187d929190612577565b600060405180830381600087803b15801561189757600080fd5b505af11580156118ab573d6000803e3d6000fd5b50505050505050565b8273ffffffffffffffffffffffffffffffffffffffff166310acd06d600184846040516020016118e59291906124ef565b6040516020818303038152906040526040518363ffffffff1660e01b8152600401611911929190612577565b600060405180830381600087803b15801561192b57600080fd5b505af115801561193f573d6000803e3d6000fd5b50505050505050565b600080828401905083811015611993576040517f08c379a000000000000000000000000000000000000000000000000000000000815260040161198a906125a7565b60405180910390fd5b8091505092915050565b6000828211156119e2576040517f08c379a00000000000000000000000000000000000000000000000000000000081526004016119d9906125e7565b60405180910390fd5b818303905092915050565b6000813590506119fc816128d0565b92915050565b600081519050611a11816128d0565b92915050565b600082601f830112611a2857600080fd5b8135611a3b611a36826126ef565b6126c2565b91508181835260208401935060208101905083856020840282011115611a6057600080fd5b60005b83811015611a905781611a7688826119ed565b845260208401935060208301925050600181019050611a63565b5050505092915050565b600082601f830112611aab57600080fd5b8151611abe611ab9826126ef565b6126c2565b91508181835260208401935060208101905083856020840282011115611ae357600080fd5b60005b83811015611b135781611af98882611a02565b845260208401935060208301925050600181019050611ae6565b5050505092915050565b600082601f830112611b2e57600080fd5b8135611b41611b3c82612717565b6126c2565b9150818183526020840193506020810190508360005b83811015611b875781358601611b6d8882611c05565b845260208401935060208301925050600181019050611b57565b5050505092915050565b600081359050611ba0816128e7565b92915050565b600081519050611bb5816128e7565b92915050565b60008083601f840112611bcd57600080fd5b8235905067ffffffffffffffff811115611be657600080fd5b602083019150836001820283011115611bfe57600080fd5b9250929050565b600082601f830112611c1657600080fd5b8135611c29611c248261273f565b6126c2565b91508082526020830160208301858383011115611c4557600080fd5b611c50838284612863565b50505092915050565b600081359050611c68816128fe565b92915050565b600081519050611c7d8161290e565b92915050565b600081359050611c928161291e565b92915050565b600081519050611ca78161291e565b92915050565b600060208284031215611cbf57600080fd5b6000611ccd848285016119ed565b91505092915050565b600060208284031215611ce857600080fd5b6000611cf684828501611a02565b91505092915050565b60008060408385031215611d1257600080fd5b6000611d20858286016119ed565b9250506020611d31858286016119ed565b9150509250929050565b60008060008060608587031215611d5157600080fd5b6000611d5f878288016119ed565b9450506020611d70878288016119ed565b935050604085013567ffffffffffffffff811115611d8d57600080fd5b611d9987828801611bbb565b925092505092959194509250565b60008060008060608587031215611dbd57600080fd5b6000611dcb878288016119ed565b9450506020611ddc87828801611c83565b935050604085013567ffffffffffffffff811115611df957600080fd5b611e0587828801611bbb565b925092505092959194509250565b600060208284031215611e2557600080fd5b600082015167ffffffffffffffff811115611e3f57600080fd5b611e4b84828501611a9a565b91505092915050565b60008060408385031215611e6757600080fd5b600083013567ffffffffffffffff811115611e8157600080fd5b611e8d85828601611a17565b925050602083013567ffffffffffffffff811115611eaa57600080fd5b611eb685828601611b1d565b9150509250929050565b600060208284031215611ed257600080fd5b6000611ee084828501611b91565b91505092915050565b600060208284031215611efb57600080fd5b6000611f0984828501611ba6565b91505092915050565b60008060408385031215611f2557600080fd5b6000611f3385828601611ba6565b9250506020611f4485828601611ba6565b9150509250929050565b60008060008060608587031215611f6457600080fd5b6000611f7287828801611c59565b945050602085013567ffffffffffffffff811115611f8f57600080fd5b611f9b87828801611bbb565b93509350506040611fae87828801611c83565b91505092959194509250565b600080600060608486031215611fcf57600080fd5b6000611fdd86828701611c6e565b9350506020611fee86828701611a02565b9250506040611fff86828701611c98565b9150509250925092565b60006020828403121561201b57600080fd5b600061202984828501611c98565b91505092915050565b600061203e838361204a565b60208301905092915050565b612053816127d1565b82525050565b612062816127d1565b82525050565b60006120738261277b565b61207d818561279e565b93506120888361276b565b8060005b838110156120b95781516120a08882612032565b97506120ab83612791565b92505060018101905061208c565b5085935050505092915050565b60006120d182612786565b6120db81856127af565b93506120eb818560208601612872565b6120f4816128a5565b840191505092915050565b6121088161283f565b82525050565b61211781612851565b82525050565b600061212a601b836127c0565b91507f536166654d6174683a206164646974696f6e206f766572666c6f7700000000006000830152602082019050919050565b600061216a602d836127c0565b91507f7265636569766543616c6c46726f6d436f6d7074726f6c6c65723a20496e766160008301527f6c6964205f616374696f6e4964000000000000000000000000000000000000006020830152604082019050919050565b60006121d0601e836127c0565b91507f536166654d6174683a207375627472616374696f6e206f766572666c6f7700006000830152602082019050919050565b6000612210603d836127c0565b91507f736574436f6e666967466f7246756e643a206665657320616e6420736574746960008301527f6e677344617461206172726179206c656e6774687320756e657175616c0000006020830152604082019050919050565b60006122766030836127c0565b91507f736574436f6e666967466f7246756e643a20666565732063616e6e6f7420696e60008301527f636c756465206475706c696361746573000000000000000000000000000000006020830152604082019050919050565b60006122dc6028836127c0565b91507f4f6e6c79207468652046756e644465706c6f7965722063616e206d616b65207460008301527f6869732063616c6c0000000000000000000000000000000000000000000000006020830152604082019050919050565b60006123426023836127c0565b91507f5f5f736574746c654665653a20496e76616c696420536574746c656d656e745460008301527f79706500000000000000000000000000000000000000000000000000000000006020830152604082019050919050565b60006123a86020836127c0565b91507f5f5f696e766f6b65486f6f6b3a2046756e64206973206e6f74206163746976656000830152602082019050919050565b6123e481612835565b82525050565b60006020820190506123ff6000830184612059565b92915050565b600060408201905061241a6000830185612059565b6124276020830184612059565b9392505050565b600060a0820190506124436000830188612059565b6124506020830187612059565b61245d60408301866120ff565b818103606083015261246f81856120c6565b905061247e60808301846123db565b9695505050505050565b600060608201905061249d6000830186612059565b6124aa6020830185612059565b6124b760408301846123db565b949350505050565b60006040820190506124d46000830185612059565b81810360208301526124e681846120c6565b90509392505050565b60006040820190506125046000830185612059565b61251160208301846123db565b9392505050565b600060208201905081810360008301526125328184612068565b905092915050565b6000602082019050818103600083015261255481846120c6565b905092915050565b600060208201905061257160008301846120ff565b92915050565b600060408201905061258c600083018561210e565b818103602083015261259e81846120c6565b90509392505050565b600060208201905081810360008301526125c08161211d565b9050919050565b600060208201905081810360008301526125e08161215d565b9050919050565b60006020820190508181036000830152612600816121c3565b9050919050565b6000602082019050818103600083015261262081612203565b9050919050565b6000602082019050818103600083015261264081612269565b9050919050565b60006020820190508181036000830152612660816122cf565b9050919050565b6000602082019050818103600083015261268081612335565b9050919050565b600060208201905081810360008301526126a08161239b565b9050919050565b60006020820190506126bc60008301846123db565b92915050565b6000604051905081810181811067ffffffffffffffff821117156126e557600080fd5b8060405250919050565b600067ffffffffffffffff82111561270657600080fd5b602082029050602081019050919050565b600067ffffffffffffffff82111561272e57600080fd5b602082029050602081019050919050565b600067ffffffffffffffff82111561275657600080fd5b601f19601f8301169050602081019050919050565b6000819050602082019050919050565b600081519050919050565b600081519050919050565b6000602082019050919050565b600082825260208201905092915050565b600082825260208201905092915050565b600082825260208201905092915050565b60006127dc82612815565b9050919050565b60008115159050919050565b60008190506127fd826128b6565b919050565b6000819050612810826128c3565b919050565b600073ffffffffffffffffffffffffffffffffffffffff82169050919050565b6000819050919050565b600061284a826127ef565b9050919050565b600061285c82612802565b9050919050565b82818337600083830152505050565b60005b83811015612890578082015181840152602081019050612875565b8381111561289f576000848401525b50505050565b6000601f19601f8301169050919050565b600481106128c057fe5b50565b600b81106128cd57fe5b50565b6128d9816127d1565b81146128e457600080fd5b50565b6128f0816127e3565b81146128fb57600080fd5b50565b6004811061290b57600080fd5b50565b6006811061291b57600080fd5b50565b61292781612835565b811461293257600080fd5b5056fea164736f6c634300060c000a","linkReferences":{}},"methodIdentifiers":{"activateForFund(bool)":"80d57063","deactivateForFund()":"bd8e959a","getEnabledFeesForFund(address)":"a9f3b42f","getFeeSharesOutstandingForFund(address,address)":"aa051c2c","getFundDeployer()":"97c0ac87","getOwner()":"893d20e8","getVaultProxyForFund(address)":"46790346","invokeHook(uint8,bytes,uint256)":"7759c164","receiveCallFromComptroller(address,uint256,bytes)":"1bee801e","setConfigForFund(address,address,bytes)":"f067cc11"},"id":188}