{"abi":[{"type":"constructor","inputs":[{"name":"_integrationManager","type":"address","internalType":"address"}],"stateMutability":"nonpayable"},{"type":"function","name":"getIntegrationManager","inputs":[],"outputs":[{"name":"integrationManager_","type":"address","internalType":"address"}],"stateMutability":"view"},{"type":"function","name":"parseAssetsForAction","inputs":[{"name":"_vaultProxy","type":"address","internalType":"address"},{"name":"_selector","type":"bytes4","internalType":"bytes4"},{"name":"_actionData","type":"bytes","internalType":"bytes"}],"outputs":[{"name":"spendAssetsHandleType_","type":"uint8","internalType":"enum IIntegrationManager.SpendAssetsHandleType"},{"name":"spendAssets_","type":"address[]","internalType":"address[]"},{"name":"spendAssetAmounts_","type":"uint256[]","internalType":"uint256[]"},{"name":"","type":"address[]","internalType":"address[]"},{"name":"","type":"uint256[]","internalType":"uint256[]"}],"stateMutability":"view"},{"type":"function","name":"transfer","inputs":[{"name":"_vaultProxy","type":"address","internalType":"address"},{"name":"_actionData","type":"bytes","internalType":"bytes"},{"name":"_assetData","type":"bytes","internalType":"bytes"}],"outputs":[],"stateMutability":"nonpayable"},{"type":"error","name":"TransferAssetsAdapter__ParseAssetsForAction__InvalidSelector","inputs":[]}],"bytecode":{"object":"0x60a060405234801561001057600080fd5b50604051610e54380380610e5483398101604081905261002f91610040565b6001600160a01b0316608052610070565b60006020828403121561005257600080fd5b81516001600160a01b038116811461006957600080fd5b9392505050565b608051610dc4610090600039600081816095015260ca0152610dc46000f3fe608060405234801561001057600080fd5b50600436106100415760003560e01c80633461917c14610046578063c54efee51461005b578063e7c4569014610088575b600080fd5b6100596100543660046107aa565b6100bf565b005b61006e61006936600461082d565b610231565b60405161007f959493929190610913565b60405180910390f35b6040516001600160a01b037f000000000000000000000000000000000000000000000000000000000000000016815260200161007f565b336001600160a01b037f000000000000000000000000000000000000000000000000000000000000000016146101575760405162461bcd60e51b815260206004820152603260248201527f4f6e6c792074686520496e746567726174696f6e4d616e616765722063616e2060448201527131b0b636103a3434b990333ab731ba34b7b760711b60648201526084015b60405180910390fd5b600061016584860186610a8f565b90506000806101a985858080601f01602080910402602001604051908101604052809392919081815260200183838082843760009201919091525061046792505050565b509150915060005b836020015151811015610226576102148985600001518484815181106101d9576101d9610b91565b60200260200101518685815181106101f3576101f3610b91565b60200260200101516001600160a01b031661048d909392919063ffffffff16565b8061021e81610ba7565b9150506101b1565b505050505050505050565b600060608080806001600160e01b03198816630d18645f60e21b1461026957604051635bc195b360e01b815260040160405180910390fd5b600061027787890189610a8f565b6020810151519091508067ffffffffffffffff81111561029957610299610990565b6040519080825280602002602001820160405280156102c2578160200160208202803683370190505b5095508067ffffffffffffffff8111156102de576102de610990565b604051908082528060200260200182016040528015610307578160200160208202803683370190505b50945060005b818110156104385760008360200151828151811061032d5761032d610b91565b6020026020010151905060008460400151838151811061034f5761034f610b91565b602002602001015190508189848151811061036c5761036c610b91565b60200260200101906001600160a01b031690816001600160a01b031681525050600019811461039b5780610405565b6040516370a0823160e01b81526001600160a01b038f811660048301528316906370a0823190602401602060405180830381865afa1580156103e1573d6000803e3d6000fd5b505050506040513d601f19601f820116820180604052508101906104059190610bce565b88848151811061041757610417610b91565b6020026020010181815250505050808061043090610ba7565b91505061030d565b50506040805160008082526020820190815281830190925260019c969b50949950939750929550929350505050565b6060806060838060200190518101906104809190610c4b565b9250925092509193909250565b6104998484848461049f565b50505050565b604080516001600160a01b038581166024830152848116604483015260648083018590528351808403909101815260849092018352602080830180516001600160e01b03166323b872dd60e01b17905283518085019094528084527f5361666545524332303a206c6f772d6c6576656c2063616c6c206661696c656490840152610499928792916000916105379185169084906105b9565b8051909150156105b457808060200190518101906105559190610d28565b6105b45760405162461bcd60e51b815260206004820152602a60248201527f5361666545524332303a204552433230206f7065726174696f6e20646964206e6044820152691bdd081cdd58d8d9595960b21b606482015260840161014e565b505050565b60606105c884846000856105d0565b949350505050565b6060824710156106315760405162461bcd60e51b815260206004820152602660248201527f416464726573733a20696e73756666696369656e742062616c616e636520666f6044820152651c8818d85b1b60d21b606482015260840161014e565b600080866001600160a01b0316858760405161064d9190610d75565b60006040518083038185875af1925050503d806000811461068a576040519150601f19603f3d011682016040523d82523d6000602084013e61068f565b606091505b50915091506106a0878383876106ab565b979650505050505050565b6060831561071a578251600003610713576001600160a01b0385163b6107135760405162461bcd60e51b815260206004820152601d60248201527f416464726573733a2063616c6c20746f206e6f6e2d636f6e7472616374000000604482015260640161014e565b50816105c8565b6105c8838381511561072f5781518083602001fd5b8060405162461bcd60e51b815260040161014e9190610d91565b6001600160a01b038116811461075e57600080fd5b50565b60008083601f84011261077357600080fd5b50813567ffffffffffffffff81111561078b57600080fd5b6020830191508360208285010111156107a357600080fd5b9250929050565b6000806000806000606086880312156107c257600080fd5b85356107cd81610749565b9450602086013567ffffffffffffffff808211156107ea57600080fd5b6107f689838a01610761565b9096509450604088013591508082111561080f57600080fd5b5061081c88828901610761565b969995985093965092949392505050565b6000806000806060858703121561084357600080fd5b843561084e81610749565b935060208501356001600160e01b03198116811461086b57600080fd5b9250604085013567ffffffffffffffff81111561088757600080fd5b61089387828801610761565b95989497509550505050565b600081518084526020808501945080840160005b838110156108d85781516001600160a01b0316875295820195908201906001016108b3565b509495945050505050565b600081518084526020808501945080840160005b838110156108d8578151875295820195908201906001016108f7565b60006003871061093357634e487b7160e01b600052602160045260246000fd5b86825260a0602083015261094a60a083018761089f565b828103604084015261095c81876108e3565b90508281036060840152610970818661089f565b9050828103608084015261098481856108e3565b98975050505050505050565b634e487b7160e01b600052604160045260246000fd5b6040516060810167ffffffffffffffff811182821017156109c9576109c9610990565b60405290565b604051601f8201601f1916810167ffffffffffffffff811182821017156109f8576109f8610990565b604052919050565b600067ffffffffffffffff821115610a1a57610a1a610990565b5060051b60200190565b600082601f830112610a3557600080fd5b81356020610a4a610a4583610a00565b6109cf565b82815260059290921b84018101918181019086841115610a6957600080fd5b8286015b84811015610a845780358352918301918301610a6d565b509695505050505050565b60006020808385031215610aa257600080fd5b823567ffffffffffffffff80821115610aba57600080fd5b9084019060608287031215610ace57600080fd5b610ad66109a6565b8235610ae181610749565b81528284013582811115610af457600080fd5b8301601f81018813610b0557600080fd5b8035610b13610a4582610a00565b81815260059190911b8201860190868101908a831115610b3257600080fd5b928701925b82841015610b59578335610b4a81610749565b82529287019290870190610b37565b8088860152505050506040830135935081841115610b7657600080fd5b610b8287858501610a24565b60408201529695505050505050565b634e487b7160e01b600052603260045260246000fd5b600060018201610bc757634e487b7160e01b600052601160045260246000fd5b5060010190565b600060208284031215610be057600080fd5b5051919050565b600082601f830112610bf857600080fd5b81516020610c08610a4583610a00565b82815260059290921b84018101918181019086841115610c2757600080fd5b8286015b84811015610a84578051610c3e81610749565b8352918301918301610c2b565b600080600060608486031215610c6057600080fd5b835167ffffffffffffffff80821115610c7857600080fd5b610c8487838801610be7565b9450602091508186015181811115610c9b57600080fd5b8601601f81018813610cac57600080fd5b8051610cba610a4582610a00565b81815260059190911b8201840190848101908a831115610cd957600080fd5b928501925b82841015610cf757835182529285019290850190610cde565b60408a0151909750945050505080821115610d1157600080fd5b50610d1e86828701610be7565b9150509250925092565b600060208284031215610d3a57600080fd5b81518015158114610d4a57600080fd5b9392505050565b60005b83811015610d6c578181015183820152602001610d54565b50506000910152565b60008251610d87818460208701610d51565b9190910192915050565b6020815260008251806020840152610db0816040850160208701610d51565b601f01601f1916919091016040019291505056","linkReferences":{}},"methodIdentifiers":{"getIntegrationManager()":"e7c45690","parseAssetsForAction(address,bytes4,bytes)":"c54efee5","transfer(address,bytes,bytes)":"3461917c"},"id":149}