{"abi":[{"type":"constructor","inputs":[{"name":"_integrationManager","type":"address","internalType":"address"}],"stateMutability":"nonpayable"},{"type":"function","name":"getIntegrationManager","inputs":[],"outputs":[{"name":"integrationManager_","type":"address","internalType":"address"}],"stateMutability":"view"},{"type":"function","name":"parseAssetsForAction","inputs":[{"name":"_vaultProxy","type":"address","internalType":"address"},{"name":"_selector","type":"bytes4","internalType":"bytes4"},{"name":"_actionData","type":"bytes","internalType":"bytes"}],"outputs":[{"name":"spendAssetsHandleType_","type":"uint8","internalType":"enum IIntegrationManager.SpendAssetsHandleType"},{"name":"spendAssets_","type":"address[]","internalType":"address[]"},{"name":"spendAssetAmounts_","type":"uint256[]","internalType":"uint256[]"},{"name":"","type":"address[]","internalType":"address[]"},{"name":"","type":"uint256[]","internalType":"uint256[]"}],"stateMutability":"view"},{"type":"function","name":"transfer","inputs":[{"name":"_vaultProxy","type":"address","internalType":"address"},{"name":"_actionData","type":"bytes","internalType":"bytes"},{"name":"_assetData","type":"bytes","internalType":"bytes"}],"outputs":[],"stateMutability":"nonpayable"},{"type":"error","name":"TransferAssetsAdapter__ParseAssetsForAction__InvalidSelector","inputs":[]}],"bytecode":{"object":"0x60a060405234801561001057600080fd5b506040516110b63803806110b683398101604081905261002f91610075565b6001600160a01b031660805261009e565b60006001600160a01b0382165b92915050565b61005c81610040565b811461006757600080fd5b50565b805161004d81610053565b60006020828403121561008a5761008a600080fd5b6000610096848461006a565b949350505050565b608051610ff86100be60003960008181608a015260c10152610ff86000f3fe608060405234801561001057600080fd5b50600436106100415760003560e01c80633461917c14610046578063c54efee51461005b578063e7c4569014610088575b600080fd5b6100596100543660046106de565b6100b6565b005b61006e610069366004610787565b6101e1565b60405161007f9594939291906108f9565b60405180910390f35b7f000000000000000000000000000000000000000000000000000000000000000060405161007f9190610955565b336001600160a01b037f000000000000000000000000000000000000000000000000000000000000000016146101075760405162461bcd60e51b81526004016100fe906109b5565b60405180910390fd5b600061011584860186610bdd565b905060008061015985858080601f01602080910402602001604051908101604052809392919081815260200183838082843760009201919091525061041892505050565b509150915060005b8360200151518110156101d6576101c489856000015184848151811061018957610189610c17565b60200260200101518685815181106101a3576101a3610c17565b60200260200101516001600160a01b031661043e909392919063ffffffff16565b806101ce81610c43565b915050610161565b505050505050505050565b600060608080806001600160e01b03198816630d18645f60e21b1461021957604051635bc195b360e01b815260040160405180910390fd5b600061022787890189610bdd565b602081015151909150806001600160401b03811115610248576102486109c5565b604051908082528060200260200182016040528015610271578160200160208202803683370190505b509550806001600160401b0381111561028c5761028c6109c5565b6040519080825280602002602001820160405280156102b5578160200160208202803683370190505b50945060005b818110156103e9576000836020015182815181106102db576102db610c17565b602002602001015190506000846040015183815181106102fd576102fd610c17565b602002602001015190508189848151811061031a5761031a610c17565b60200260200101906001600160a01b031690816001600160a01b031681525050600019811461034957806103b6565b816001600160a01b03166370a082318f6040518263ffffffff1660e01b81526004016103759190610955565b602060405180830381865afa158015610392573d6000803e3d6000fd5b505050506040513d601f19601f820116820180604052508101906103b69190610c68565b8884815181106103c8576103c8610c17565b602002602001018181525050505080806103e190610c43565b9150506102bb565b50506040805160008082526020820190815281830190925260019c969b50949950939750929550929350505050565b6060806060838060200190518101906104319190610d7e565b9250925092509193909250565b61044a84848484610450565b50505050565b61044a846323b872dd60e01b85858560405160240161047193929190610e1b565b60408051601f198184030181529190526020810180516001600160e01b03166001600160e01b03199093169290921790915260006104f8826040518060400160405280602081526020017f5361666545524332303a206c6f772d6c6576656c2063616c6c206661696c6564815250856001600160a01b03166105379092919063ffffffff16565b80519091501561053257808060200190518101906105169190610e56565b6105325760405162461bcd60e51b81526004016100fe90610ebe565b505050565b6060610546848460008561054e565b949350505050565b6060824710156105705760405162461bcd60e51b81526004016100fe90610f11565b600080866001600160a01b0316858760405161058c9190610f67565b60006040518083038185875af1925050503d80600081146105c9576040519150601f19603f3d011682016040523d82523d6000602084013e6105ce565b606091505b50915091506105df878383876105ea565b979650505050505050565b60608315610629578251600003610622576001600160a01b0385163b6106225760405162461bcd60e51b81526004016100fe90610f7a565b5081610546565b610546838381511561063e5781518083602001fd5b8060405162461bcd60e51b81526004016100fe9190610fe7565b60006001600160a01b0382165b92915050565b61067481610658565b811461067f57600080fd5b50565b80356106658161066b565b60008083601f8401126106a2576106a2600080fd5b5081356001600160401b038111156106bc576106bc600080fd5b6020830191508360018202830111156106d7576106d7600080fd5b9250929050565b6000806000806000606086880312156106f9576106f9600080fd5b60006107058888610682565b95505060208601356001600160401b0381111561072457610724600080fd5b6107308882890161068d565b945094505060408601356001600160401b0381111561075157610751600080fd5b61075d8882890161068d565b92509250509295509295909350565b6001600160e01b03198116610674565b80356106658161076c565b600080600080606085870312156107a0576107a0600080fd5b60006107ac8787610682565b94505060206107bd8782880161077c565b93505060408501356001600160401b038111156107dc576107dc600080fd5b6107e88782880161068d565b95989497509550505050565b634e487b7160e01b600052602160045260246000fd5b6003811061067f5761067f6107f4565b806108248161080a565b919050565b60006106658261081a565b61083d81610829565b82525050565b61083d81610658565b60006108588383610843565b505060200190565b600061086a825190565b80845260209384019383018060005b8381101561089e57815161088d888261084c565b975060208301925050600101610879565b509495945050505050565b8061083d565b600061085883836108a9565b60006108c5825190565b80845260209384019383018060005b8381101561089e5781516108e888826108af565b9750602083019250506001016108d4565b60a081016109078288610834565b81810360208301526109198187610860565b9050818103604083015261092d81866108bb565b905081810360608301526109418185610860565b905081810360808301526105df81846108bb565b602081016106658284610843565b603281526000602082017f4f6e6c792074686520496e746567726174696f6e4d616e616765722063616e2081527131b0b636103a3434b990333ab731ba34b7b760711b602082015291505b5060400190565b6020808252810161066581610963565b634e487b7160e01b600052604160045260246000fd5b601f19601f83011681018181106001600160401b0382111715610a0057610a006109c5565b6040525050565b6000610a1260405190565b905061082482826109db565b60006001600160401b03821115610a3757610a376109c5565b5060209081020190565b6000610a54610a4f84610a1e565b610a07565b83815290506020808201908402830185811115610a7357610a73600080fd5b835b81811015610a975780610a888882610682565b84525060209283019201610a75565b5050509392505050565b600082601f830112610ab557610ab5600080fd5b8135610546848260208601610a41565b80610674565b803561066581610ac5565b6000610ae4610a4f84610a1e565b83815290506020808201908402830185811115610b0357610b03600080fd5b835b81811015610a975780610b188882610acb565b84525060209283019201610b05565b600082601f830112610b3b57610b3b600080fd5b8135610546848260208601610ad6565b600060608284031215610b6057610b60600080fd5b610b6a6060610a07565b90506000610b788484610682565b82525060208201356001600160401b03811115610b9757610b97600080fd5b610ba384828501610aa1565b60208301525060408201356001600160401b03811115610bc557610bc5600080fd5b610bd184828501610b27565b60408301525092915050565b600060208284031215610bf257610bf2600080fd5b81356001600160401b03811115610c0b57610c0b600080fd5b61054684828501610b4b565b634e487b7160e01b600052603260045260246000fd5b634e487b7160e01b600052601160045260246000fd5b60006000198203610c5657610c56610c2d565b5060010190565b805161066581610ac5565b600060208284031215610c7d57610c7d600080fd5b60006105468484610c5d565b80516106658161066b565b6000610ca2610a4f84610a1e565b83815290506020808201908402830185811115610cc157610cc1600080fd5b835b81811015610a975780610cd68882610c89565b84525060209283019201610cc3565b600082601f830112610cf957610cf9600080fd5b8151610546848260208601610c94565b6000610d17610a4f84610a1e565b83815290506020808201908402830185811115610d3657610d36600080fd5b835b81811015610a975780610d4b8882610c5d565b84525060209283019201610d38565b600082601f830112610d6e57610d6e600080fd5b8151610546848260208601610d09565b600080600060608486031215610d9657610d96600080fd5b83516001600160401b03811115610daf57610daf600080fd5b610dbb86828701610ce5565b93505060208401516001600160401b03811115610dda57610dda600080fd5b610de686828701610d5a565b92505060408401516001600160401b03811115610e0557610e05600080fd5b610e1186828701610ce5565b9150509250925092565b60608101610e298286610843565b610e366020830185610843565b61054660408301846108a9565b801515610674565b805161066581610e43565b600060208284031215610e6b57610e6b600080fd5b60006105468484610e4b565b602a81526000602082017f5361666545524332303a204552433230206f7065726174696f6e20646964206e8152691bdd081cdd58d8d9595960b21b602082015291506109ae565b6020808252810161066581610e77565b602681526000602082017f416464726573733a20696e73756666696369656e742062616c616e636520666f8152651c8818d85b1b60d21b602082015291506109ae565b6020808252810161066581610ece565b60005b83811015610f3c578181015183820152602001610f24565b50506000910152565b6000610f4f825190565b610f5d818560208601610f21565b9290920192915050565b6000610f738284610f45565b9392505050565b6020808252810161066581601d81527f416464726573733a2063616c6c20746f206e6f6e2d636f6e7472616374000000602082015260400190565b6000610fbf825190565b808452602084019350610fd6818560208601610f21565b601f01601f19169290920192915050565b60208082528101610f738184610fb556","linkReferences":{}},"methodIdentifiers":{"getIntegrationManager()":"e7c45690","parseAssetsForAction(address,bytes4,bytes)":"c54efee5","transfer(address,bytes,bytes)":"3461917c"},"id":157}