{"abi":[{"type":"constructor","inputs":[{"name":"_integrationManager","type":"address","internalType":"address"},{"name":"_oneInchV5Exchange","type":"address","internalType":"address"}],"stateMutability":"nonpayable"},{"type":"function","name":"CLAIM_REWARDS_SELECTOR","inputs":[],"outputs":[{"name":"","type":"bytes4","internalType":"bytes4"}],"stateMutability":"view"},{"type":"function","name":"LEND_AND_STAKE_SELECTOR","inputs":[],"outputs":[{"name":"","type":"bytes4","internalType":"bytes4"}],"stateMutability":"view"},{"type":"function","name":"LEND_SELECTOR","inputs":[],"outputs":[{"name":"","type":"bytes4","internalType":"bytes4"}],"stateMutability":"view"},{"type":"function","name":"ONE_INCH_V5_AGGREGATION_ROUTER_CONTRACT","inputs":[],"outputs":[{"name":"","type":"address","internalType":"contract IOneInchV5AggregationRouter"}],"stateMutability":"view"},{"type":"function","name":"REDEEM_SELECTOR","inputs":[],"outputs":[{"name":"","type":"bytes4","internalType":"bytes4"}],"stateMutability":"view"},{"type":"function","name":"STAKE_SELECTOR","inputs":[],"outputs":[{"name":"","type":"bytes4","internalType":"bytes4"}],"stateMutability":"view"},{"type":"function","name":"TAKE_MULTIPLE_ORDERS_SELECTOR","inputs":[],"outputs":[{"name":"","type":"bytes4","internalType":"bytes4"}],"stateMutability":"view"},{"type":"function","name":"TAKE_ORDER_SELECTOR","inputs":[],"outputs":[{"name":"","type":"bytes4","internalType":"bytes4"}],"stateMutability":"view"},{"type":"function","name":"UNSTAKE_AND_REDEEM_SELECTOR","inputs":[],"outputs":[{"name":"","type":"bytes4","internalType":"bytes4"}],"stateMutability":"view"},{"type":"function","name":"UNSTAKE_SELECTOR","inputs":[],"outputs":[{"name":"","type":"bytes4","internalType":"bytes4"}],"stateMutability":"view"},{"type":"function","name":"getIntegrationManager","inputs":[],"outputs":[{"name":"integrationManager_","type":"address","internalType":"address"}],"stateMutability":"view"},{"type":"function","name":"parseAssetsForAction","inputs":[{"name":"_vaultProxy","type":"address","internalType":"address"},{"name":"_selector","type":"bytes4","internalType":"bytes4"},{"name":"_actionData","type":"bytes","internalType":"bytes"}],"outputs":[{"name":"spendAssetsHandleType_","type":"uint8","internalType":"enum IIntegrationManager.SpendAssetsHandleType"},{"name":"spendAssets_","type":"address[]","internalType":"address[]"},{"name":"spendAssetAmounts_","type":"uint256[]","internalType":"uint256[]"},{"name":"incomingAssets_","type":"address[]","internalType":"address[]"},{"name":"minIncomingAssetAmounts_","type":"uint256[]","internalType":"uint256[]"}],"stateMutability":"view"},{"type":"function","name":"takeMultipleOrders","inputs":[{"name":"_vaultProxy","type":"address","internalType":"address"},{"name":"_actionData","type":"bytes","internalType":"bytes"},{"name":"_assetData","type":"bytes","internalType":"bytes"}],"outputs":[],"stateMutability":"nonpayable"},{"type":"function","name":"takeOrder","inputs":[{"name":"_vaultProxy","type":"address","internalType":"address"},{"name":"_actionData","type":"bytes","internalType":"bytes"},{"name":"_assetData","type":"bytes","internalType":"bytes"}],"outputs":[],"stateMutability":"nonpayable"},{"type":"function","name":"takeOrderAndValidateIncoming","inputs":[{"name":"_vaultProxy","type":"address","internalType":"address"},{"name":"_orderData","type":"bytes","internalType":"bytes"}],"outputs":[],"stateMutability":"nonpayable"},{"type":"event","name":"MultipleOrdersItemFailed","inputs":[{"name":"index","type":"uint256","indexed":false,"internalType":"uint256"},{"name":"reason","type":"bytes","indexed":false,"internalType":"bytes"}],"anonymous":false}],"bytecode":{"object":"0x60c06040523480156200001157600080fd5b50604051620023a1380380620023a1833981016040819052620000349162000066565b6001600160601b0319606092831b8116608052911b1660a052620000d1565b80516200006081620000b7565b92915050565b600080604083850312156200007a57600080fd5b600062000088858562000053565b92505060206200009b8582860162000053565b9150509250929050565b60006001600160a01b03821662000060565b620000c281620000a5565b8114620000ce57600080fd5b50565b60805160601c60a05160601c61229c62000105600039806104f95280610f545280610f94525080610962525061229c6000f3fe608060405234801561001057600080fd5b50600436106100f55760003560e01c806340da225d11610097578063c32990a211610066578063c32990a214610198578063c54efee5146101a0578063e7c45690146101c4578063f7d882b5146101d9576100f5565b806340da225d1461016b57806381e0cc6514610173578063863e5ad014610188578063b23228cf14610190576100f5565b8063131461c0116100d3578063131461c014610140578063257cb1a3146101485780632d979b8c146101505780633ffc159114610163576100f5565b806303e38a2b146100fa578063080456c11461010f5780630e7f692d1461012d575b600080fd5b61010d610108366004611959565b6101e1565b005b61011761027a565b604051610124919061202e565b60405180910390f35b61010d61013b366004611959565b61029e565b610117610422565b610117610446565b61010d61015e366004611904565b61046a565b6101176104af565b6101176104d3565b61017b6104f7565b604051610124919061203c565b61011761051b565b61011761053f565b610117610563565b6101b36101ae36600461189d565b610587565b60405161012495949392919061204a565b6101cc610960565b6040516101249190611f7e565b610117610984565b8482828080601f01602080910402602001604051908101604052809392919081815260200183838082843760009201919091525050604080516020601f8a018190048102820181019092528881526102569350915088908890819084018382808284376000920191909152506109a892505050565b6060610261826109d4565b5050905061026f83826109fa565b505050505050505050565b7f8334eb99be0145865eba9889fca2ee920288090caefff4cc776038e20ad9259a81565b8482828080601f01602080910402602001604051908101604052809392919081815260200183838082843760009201829052506060935091506102e390508888610b56565b9150915080156103e25760005b82518110156103dc57306001600160a01b0316632d979b8c8b85848151811061031557fe5b60200260200101516040518363ffffffff1660e01b815260040161033a929190611fa7565b600060405180830381600087803b15801561035457600080fd5b505af1925050508015610365575060015b6103d4573d808015610393576040519150601f19603f3d011682016040523d82523d6000602084013e610398565b606091505b507f3a14c92f155e1c07fef79933a3b56bd101ab83092702170ae1a4c53712c5099b82826040516103ca929190612137565b60405180910390a1505b6001016102f0565b50610415565b60005b82518110156104135761040b8a8483815181106103fe57fe5b6020026020010151610b72565b6001016103e5565b505b50506060610261826109d4565b7f29fa046e79524c3c5ac4c01df692c35e217802b2b13b21121b76cf0ef02b138c81565b7f099f75155f0e997bf83a7993a71d5e7e7540bd386fe1e84643a09ce6b412521981565b6104aa8383838080601f016020809104026020016040519081016040528093929190818152602001838380828437600092019190915250610b7292505050565b505050565b7ffa7dd04da627f433da73c4355ead9c75682a67a8fc84d3f6170ef0922f402d2481565b7fb9dfbaccbe5cd2a84fdcf1d15f23ef25d23086f5afbaa99516065ed4a5bbc7a381565b7f000000000000000000000000000000000000000000000000000000000000000081565b7f03e38a2bd7063d45c897edeafc330e71657502dd86434d3c37a489caf116af6981565b7f68e30677f607df46e87da13e15b637784cfa62374b653f35ab43d10361a2f83081565b7f0e7f692dad5b88fdee426250d6eae91207e56a2e8112b7364579bed1790e5bf481565b600060608080806001600160e01b031988166303e38a2b60e01b141561075657604080516001808252818301909252906020808301908036833750506040805160018082528183019092529296509050602080830190803683375050604080516001808252818301909252929550905060208083019080368337505060408051600180825281830190925292945090506020808301908036833701905050905061062f6114ec565b61066e88888080601f016020809104026020016040519081016040528093929190818152602001838380828437600092019190915250610cc192505050565b5091505080606001516001600160a01b03168a6001600160a01b0316146106b05760405162461bcd60e51b81526004016106a7906120e7565b60405180910390fd5b8060000151856000815181106106c257fe5b60200260200101906001600160a01b031690816001600160a01b0316815250508060800151846000815181106106f457fe5b60200260200101818152505080602001518360008151811061071257fe5b60200260200101906001600160a01b031690816001600160a01b0316815250508060a001518260008151811061074457fe5b60200260200101818152505050610951565b6001600160e01b03198816630e7f692d60e01b141561093957606061077b8888610b56565b50905080516001600160401b038111801561079557600080fd5b506040519080825280602002602001820160405280156107bf578160200160208202803683370190505b50945080516001600160401b03811180156107d957600080fd5b50604051908082528060200260200182016040528015610803578160200160208202803683370190505b50935060005b81518110156108df5761081a6114ec565b61083683838151811061082957fe5b6020026020010151610cc1565b5091505080606001516001600160a01b03168c6001600160a01b03161461086f5760405162461bcd60e51b81526004016106a7906120e7565b806000015187838151811061088057fe5b60200260200101906001600160a01b031690816001600160a01b03168152505080608001518683815181106108b157fe5b6020026020010181815250506108d4816020015186610ce190919063ffffffff16565b945050600101610809565b506108ea8585610d0a565b845191965094506001600160401b038111801561090657600080fd5b50604051908082528060200260200182016040528015610930578160200160208202803683370190505b50915050610951565b60405162461bcd60e51b81526004016106a790612127565b60029450945094509450945094565b7f000000000000000000000000000000000000000000000000000000000000000090565b7fc29fa9dde84204c2908778afd0613d802d31cf046179b88f6d2b4a4e507ea2d581565b60006109b26114ec565b60606109bd84610cc1565b9250925092506109ce838383610f4a565b50505050565b6060806060838060200190518101906109ed91906119de565b9250925092509193909250565b606081516001600160401b0381118015610a1357600080fd5b50604051908082528060200260200182016040528015610a3d578160200160208202803683370190505b50905060005b8251811015610b4e576000838281518110610a5a57fe5b60200260200101519050806001600160a01b03166370a08231306040518263ffffffff1660e01b8152600401610a909190611f7e565b60206040518083038186803b158015610aa857600080fd5b505afa158015610abc573d6000803e3d6000fd5b505050506040513d601f19601f82011682018060405250810190610ae09190611ad3565b838381518110610aec57fe5b6020026020010181815250506000838381518110610b0657fe5b60200260200101511115610b4557610b4585848481518110610b2457fe5b6020026020010151836001600160a01b03166110259092919063ffffffff16565b50600101610a43565b505b92915050565b60606000610b6683850185611a65565b915091505b9250929050565b610b7a6114ec565b610b8382610cc1565b50915050600081602001516001600160a01b03166370a08231856040518263ffffffff1660e01b8152600401610bb99190611f7e565b60206040518083038186803b158015610bd157600080fd5b505afa158015610be5573d6000803e3d6000fd5b505050506040513d601f19601f82011682018060405250810190610c099190611ad3565b9050610c14836109a8565b8160a00151610ca38284602001516001600160a01b03166370a08231886040518263ffffffff1660e01b8152600401610c4d9190611f7e565b60206040518083038186803b158015610c6557600080fd5b505afa158015610c79573d6000803e3d6000fd5b505050506040513d601f19601f82011682018060405250810190610c9d9190611ad3565b9061107b565b10156109ce5760405162461bcd60e51b81526004016106a7906120b7565b6000610ccb6114ec565b6060838060200190518101906109ed9190611837565b6060610ced83836110a3565b15610cf9575081610b50565b610d0383836110f9565b9392505050565b606080835160001415610d1c57610b6b565b6001805b8551811015610d9c576000805b82811015610d8657878181518110610d4157fe5b60200260200101516001600160a01b0316888481518110610d5e57fe5b60200260200101516001600160a01b03161415610d7e5760019150610d86565b600101610d2d565b5080610d93576001909201915b50600101610d20565b50806001600160401b0381118015610db357600080fd5b50604051908082528060200260200182016040528015610ddd578160200160208202803683370190505b509250806001600160401b0381118015610df657600080fd5b50604051908082528060200260200182016040528015610e20578160200160208202803683370190505b5091506000805b8651811015610f40576000805b83811015610ebf57868181518110610e4857fe5b60200260200101516001600160a01b0316898481518110610e6557fe5b60200260200101516001600160a01b03161415610eb75760019150878381518110610e8c57fe5b6020026020010151868281518110610ea057fe5b602002602001018181510191508181525050610ebf565b600101610e34565b5080610f3757878281518110610ed157fe5b6020026020010151868481518110610ee557fe5b60200260200101906001600160a01b031690816001600160a01b031681525050868281518110610f1157fe5b6020026020010151858481518110610f2557fe5b60209081029190910101526001909201915b50600101610e27565b5050509250929050565b610f7d82600001517f000000000000000000000000000000000000000000000000000000000000000084608001516111c3565b6040516312aa3caf60e01b81526001600160a01b037f000000000000000000000000000000000000000000000000000000000000000016906312aa3caf90610fcd90869086908690600401611fc7565b6040805180830381600087803b158015610fe657600080fd5b505af1158015610ffa573d6000803e3d6000fd5b505050506040513d601f19601f8201168201806040525081019061101e9190611af1565b5050505050565b6104aa8363a9059cbb60e01b8484604051602401611044929190612013565b60408051601f198184030181529190526020810180516001600160e01b03166001600160e01b03199093169290921790915261127f565b60008282111561109d5760405162461bcd60e51b81526004016106a7906120c7565b50900390565b6000805b83518110156110ef578381815181106110bc57fe5b60200260200101516001600160a01b0316836001600160a01b031614156110e7576001915050610b50565b6001016110a7565b5060009392505050565b606082516001016001600160401b038111801561111557600080fd5b5060405190808252806020026020018201604052801561113f578160200160208202803683370190505b50905060005b835181101561118e5783818151811061115a57fe5b602002602001015182828151811061116e57fe5b6001600160a01b0390921660209283029190910190910152600101611145565b50818184518151811061119d57fe5b60200260200101906001600160a01b031690816001600160a01b03168152505092915050565b604051636eb1769f60e11b81526000906001600160a01b0385169063dd62ed3e906111f49030908790600401611f8c565b60206040518083038186803b15801561120c57600080fd5b505afa158015611220573d6000803e3d6000fd5b505050506040513d601f19601f820116820180604052508101906112449190611ad3565b9050818110156109ce578015611269576112696001600160a01b03851684600061130e565b6109ce6001600160a01b0385168460001961130e565b60606112d4826040518060400160405280602081526020017f5361666545524332303a206c6f772d6c6576656c2063616c6c206661696c6564815250856001600160a01b03166113d19092919063ffffffff16565b8051909150156104aa57808060200190518101906112f29190611ab5565b6104aa5760405162461bcd60e51b81526004016106a790612107565b8015806113965750604051636eb1769f60e11b81526001600160a01b0384169063dd62ed3e906113449030908690600401611f8c565b60206040518083038186803b15801561135c57600080fd5b505afa158015611370573d6000803e3d6000fd5b505050506040513d601f19601f820116820180604052508101906113949190611ad3565b155b6113b25760405162461bcd60e51b81526004016106a790612117565b6104aa8363095ea7b360e01b8484604051602401611044929190612013565b60606113e084846000856113e8565b949350505050565b60608247101561140a5760405162461bcd60e51b81526004016106a7906120d7565b611413856114a9565b61142f5760405162461bcd60e51b81526004016106a7906120f7565b60006060866001600160a01b0316858760405161144c9190611f72565b60006040518083038185875af1925050503d8060008114611489576040519150601f19603f3d011682016040523d82523d6000602084013e61148e565b606091505b509150915061149e8282866114b3565b979650505050505050565b803b15155b919050565b606083156114c2575081610d03565b8251156114d25782518084602001fd5b8160405162461bcd60e51b81526004016106a791906120a6565b6040805160e081018252600080825260208201819052918101829052606081018290526080810182905260a0810182905260c081019190915290565b8035610b5081612260565b8051610b5081612260565b600082601f83011261154f57600080fd5b815161156261155d8261216b565b612145565b9150818183526020840193506020810190508385602084028201111561158757600080fd5b60005b838110156115b3578161159d8882611533565b845250602092830192919091019060010161158a565b5050505092915050565b600082601f8301126115ce57600080fd5b81356115dc61155d8261216b565b81815260209384019390925082018360005b838110156115b3578135860161160488826116ec565b84525060209283019291909101906001016115ee565b600082601f83011261162b57600080fd5b815161163961155d8261216b565b9150818183526020840193506020810190508385602084028201111561165e57600080fd5b60005b838110156115b35781611674888261182c565b8452506020928301929190910190600101611661565b8035610b5081612274565b8051610b5081612274565b8035610b508161227d565b60008083601f8401126116bd57600080fd5b5081356001600160401b038111156116d457600080fd5b602083019150836001820283011115610b6b57600080fd5b600082601f8301126116fd57600080fd5b813561170b61155d8261218b565b9150808252602083016020830185838301111561172757600080fd5b611732838284612211565b50505092915050565b600082601f83011261174c57600080fd5b815161175a61155d8261218b565b9150808252602083016020830185838301111561177657600080fd5b61173283828461221d565b600060e0828403121561179357600080fd5b61179d60e0612145565b905060006117ab8484611533565b82525060206117bc84848301611533565b60208301525060406117d084828501611533565b60408301525060606117e484828501611533565b60608301525060806117f88482850161182c565b60808301525060a061180c8482850161182c565b60a08301525060c06118208482850161182c565b60c08301525092915050565b8051610b5081612286565b6000806000610120848603121561184d57600080fd5b60006118598686611533565b935050602061186a86828701611781565b9250506101008401516001600160401b0381111561188757600080fd5b6118938682870161173b565b9150509250925092565b600080600080606085870312156118b357600080fd5b60006118bf8787611528565b94505060206118d0878288016116a0565b93505060408501356001600160401b038111156118ec57600080fd5b6118f8878288016116ab565b95989497509550505050565b60008060006040848603121561191957600080fd5b60006119258686611528565b93505060208401356001600160401b0381111561194157600080fd5b61194d868287016116ab565b92509250509250925092565b60008060008060006060868803121561197157600080fd5b600061197d8888611528565b95505060208601356001600160401b0381111561199957600080fd5b6119a5888289016116ab565b945094505060408601356001600160401b038111156119c357600080fd5b6119cf888289016116ab565b92509250509295509295909350565b6000806000606084860312156119f357600080fd5b83516001600160401b03811115611a0957600080fd5b611a158682870161153e565b93505060208401516001600160401b03811115611a3157600080fd5b611a3d8682870161161a565b92505060408401516001600160401b03811115611a5957600080fd5b6118938682870161153e565b60008060408385031215611a7857600080fd5b82356001600160401b03811115611a8e57600080fd5b611a9a858286016115bd565b9250506020611aab8582860161168a565b9150509250929050565b600060208284031215611ac757600080fd5b60006113e08484611695565b600060208284031215611ae557600080fd5b60006113e0848461182c565b60008060408385031215611b0457600080fd5b6000611b10858561182c565b9250506020611aab8582860161182c565b6000611b2d8383611b41565b505060200190565b6000611b2d8383611f69565b611b4a816121c5565b82525050565b6000611b5b826121b8565b611b6581856121bc565b9350611b70836121b2565b8060005b83811015611b9e578151611b888882611b21565b9750611b93836121b2565b925050600101611b74565b509495945050505050565b6000611bb4826121b8565b611bbe81856121bc565b9350611bc9836121b2565b8060005b83811015611b9e578151611be18882611b35565b9750611bec836121b2565b925050600101611bcd565b611b4a816121d5565b6000611c0b826121b8565b611c1581856121bc565b9350611c2581856020860161221d565b611c2e81612249565b9093019392505050565b6000611c43826121b8565b611c4d81856114ae565b9350611c5d81856020860161221d565b9290920192915050565b611b4a816121fb565b611b4a81612206565b6000611c86604a836121bc565b7f5f5f74616b654f72646572416e6456616c6964617465496e636f6d696e673a2081527f526563656976656420696e636f6d696e67206173736574206c657373207468616020820152691b88195e1c1958dd195960b21b604082015260600192915050565b6000611cf8601e836121bc565b7f536166654d6174683a207375627472616374696f6e206f766572666c6f770000815260200192915050565b6000611d316026836121bc565b7f416464726573733a20696e73756666696369656e742062616c616e636520666f8152651c8818d85b1b60d21b602082015260400192915050565b6000611d796029836121bc565b7f7061727365417373657473466f72416374696f6e3a20696e76616c69642064738152683a2932b1b2b4bb32b960b91b602082015260400192915050565b6000610b506000836121bc565b6000611dd1601d836121bc565b7f416464726573733a2063616c6c20746f206e6f6e2d636f6e7472616374000000815260200192915050565b6000611e0a602a836121bc565b7f5361666545524332303a204552433230206f7065726174696f6e20646964206e8152691bdd081cdd58d8d9595960b21b602082015260400192915050565b6000611e566036836121bc565b7f5361666545524332303a20617070726f76652066726f6d206e6f6e2d7a65726f81527520746f206e6f6e2d7a65726f20616c6c6f77616e636560501b602082015260400192915050565b6000611eae6027836121bc565b7f7061727365417373657473466f72416374696f6e3a205f73656c6563746f72208152661a5b9d985b1a5960ca1b602082015260400192915050565b805160e0830190611efb8482611b41565b506020820151611f0e6020850182611b41565b506040820151611f216040850182611b41565b506060820151611f346060850182611b41565b506080820151611f476080850182611f69565b5060a0820151611f5a60a0850182611f69565b5060c08201516109ce60c08501825b611b4a816121f8565b6000610d038284611c38565b60208101610b508284611b41565b60408101611f9a8285611b41565b610d036020830184611b41565b60408101611fb58285611b41565b81810360208301526113e08184611c00565b6101408101611fd68286611b41565b611fe36020830185611eea565b818103610100830152611ff581611db7565b905081810361012083015261200a8184611c00565b95945050505050565b604081016120218285611b41565b610d036020830184611f69565b60208101610b508284611bf7565b60208101610b508284611c67565b60a081016120588288611c70565b818103602083015261206a8187611b50565b9050818103604083015261207e8186611ba9565b905081810360608301526120928185611b50565b9050818103608083015261149e8184611ba9565b60208082528101610d038184611c00565b60208082528101610b5081611c79565b60208082528101610b5081611ceb565b60208082528101610b5081611d24565b60208082528101610b5081611d6c565b60208082528101610b5081611dc4565b60208082528101610b5081611dfd565b60208082528101610b5081611e49565b60208082528101610b5081611ea1565b60408101611fb58285611f69565b6040518181016001600160401b038111828210171561216357600080fd5b604052919050565b60006001600160401b0382111561218157600080fd5b5060209081020190565b60006001600160401b038211156121a157600080fd5b506020601f91909101601f19160190565b60200190565b5190565b90815260200190565b6000610b50826121ec565b151590565b6001600160e01b03191690565b806114ae81612253565b6001600160a01b031690565b90565b6000610b50826121c5565b6000610b50826121e2565b82818337506000910152565b60005b83811015612238578181015183820152602001612220565b838111156109ce5750506000910152565b601f01601f191690565b6003811061225d57fe5b50565b612269816121c5565b811461225d57600080fd5b612269816121d0565b612269816121d5565b612269816121f856fea164736f6c634300060c000a","linkReferences":{}},"methodIdentifiers":{"CLAIM_REWARDS_SELECTOR()":"40da225d","LEND_AND_STAKE_SELECTOR()":"131461c0","LEND_SELECTOR()":"257cb1a3","ONE_INCH_V5_AGGREGATION_ROUTER_CONTRACT()":"81e0cc65","REDEEM_SELECTOR()":"f7d882b5","STAKE_SELECTOR()":"3ffc1591","TAKE_MULTIPLE_ORDERS_SELECTOR()":"c32990a2","TAKE_ORDER_SELECTOR()":"863e5ad0","UNSTAKE_AND_REDEEM_SELECTOR()":"080456c1","UNSTAKE_SELECTOR()":"b23228cf","getIntegrationManager()":"e7c45690","parseAssetsForAction(address,bytes4,bytes)":"c54efee5","takeMultipleOrders(address,bytes,bytes)":"0e7f692d","takeOrder(address,bytes,bytes)":"03e38a2b","takeOrderAndValidateIncoming(address,bytes)":"2d979b8c"},"id":216}