{"abi":[{"type":"constructor","inputs":[{"name":"_globalConfigProxy","type":"address","internalType":"address"},{"name":"_initializer","type":"address","internalType":"address"}],"stateMutability":"nonpayable"},{"type":"function","name":"claimToken","inputs":[{"name":"_token","type":"address","internalType":"address"}],"outputs":[{"name":"claimedAmount_","type":"uint256","internalType":"uint256"}],"stateMutability":"nonpayable"},{"type":"function","name":"claimTokenAmountTo","inputs":[{"name":"_token","type":"address","internalType":"address"},{"name":"_amount","type":"uint256","internalType":"uint256"},{"name":"_to","type":"address","internalType":"address"}],"outputs":[{"name":"claimedAmount_","type":"uint256","internalType":"uint256"}],"stateMutability":"nonpayable"},{"type":"function","name":"getSplitPercentageForUser","inputs":[{"name":"_user","type":"address","internalType":"address"}],"outputs":[{"name":"splitPercentage_","type":"uint256","internalType":"uint256"}],"stateMutability":"view"},{"type":"function","name":"getTokenBalClaimableForUser","inputs":[{"name":"_user","type":"address","internalType":"address"},{"name":"_token","type":"address","internalType":"address"}],"outputs":[{"name":"balClaimable_","type":"uint256","internalType":"uint256"}],"stateMutability":"view"},{"type":"function","name":"getTokenBalClaimedForUser","inputs":[{"name":"_user","type":"address","internalType":"address"},{"name":"_token","type":"address","internalType":"address"}],"outputs":[{"name":"balClaimed_","type":"uint256","internalType":"uint256"}],"stateMutability":"view"},{"type":"function","name":"getTotalTokenBalClaimed","inputs":[{"name":"_token","type":"address","internalType":"address"}],"outputs":[{"name":"totalBalClaimed_","type":"uint256","internalType":"uint256"}],"stateMutability":"view"},{"type":"function","name":"init","inputs":[{"name":"_users","type":"address[]","internalType":"address[]"},{"name":"_splitPercentages","type":"uint256[]","internalType":"uint256[]"}],"outputs":[],"stateMutability":"nonpayable"},{"type":"function","name":"redeemShares","inputs":[{"name":"_vaultProxy","type":"address","internalType":"address"},{"name":"_amount","type":"uint256","internalType":"uint256"},{"name":"_redeemContract","type":"address","internalType":"address"},{"name":"_redeemSelector","type":"bytes4","internalType":"bytes4"},{"name":"_redeemData","type":"bytes","internalType":"bytes"}],"outputs":[{"name":"sharesRedeemed_","type":"uint256","internalType":"uint256"}],"stateMutability":"nonpayable"},{"type":"event","name":"SplitPercentageSet","inputs":[{"name":"user","type":"address","indexed":true,"internalType":"address"},{"name":"percentage","type":"uint256","indexed":false,"internalType":"uint256"}],"anonymous":false},{"type":"event","name":"TokenClaimed","inputs":[{"name":"user","type":"address","indexed":true,"internalType":"address"},{"name":"token","type":"address","indexed":true,"internalType":"address"},{"name":"amount","type":"uint256","indexed":false,"internalType":"uint256"}],"anonymous":false}],"bytecode":{"object":"0x60c060405234801561001057600080fd5b50604051611af5380380611af58339818101604052604081101561003357600080fd5b8101908080519060200190929190805190602001909291905050508173ffffffffffffffffffffffffffffffffffffffff1660808173ffffffffffffffffffffffffffffffffffffffff1660601b815250508073ffffffffffffffffffffffffffffffffffffffff1660a08173ffffffffffffffffffffffffffffffffffffffff1660601b81525050505060805160601c60a05160601c611a0e6100e76000398061056b5250806108135250611a0e6000f3fe608060405234801561001057600080fd5b50600436106100885760003560e01c8063418981821161005b578063418981821461028d5780638a3503fa14610305578063c91995a31461035d578063cb482df61461045d57610088565b80630cffb1851461008d5780630f0ee54c146100e557806332f289cf14610167578063371aa158146101bf575b600080fd5b6100cf600480360360208110156100a357600080fd5b81019080803573ffffffffffffffffffffffffffffffffffffffff1690602001909291905050506104d5565b6040518082815260200191505060405180910390f35b610151600480360360608110156100fb57600080fd5b81019080803573ffffffffffffffffffffffffffffffffffffffff16906020019092919080359060200190929190803573ffffffffffffffffffffffffffffffffffffffff16906020019092919050505061051d565b6040518082815260200191505060405180910390f35b6101a96004803603602081101561017d57600080fd5b81019080803573ffffffffffffffffffffffffffffffffffffffff169060200190929190505050610534565b6040518082815260200191505060405180910390f35b61028b600480360360408110156101d557600080fd5b81019080803590602001906401000000008111156101f257600080fd5b82018360208201111561020457600080fd5b8035906020019184602083028401116401000000008311171561022657600080fd5b90919293919293908035906020019064010000000081111561024757600080fd5b82018360208201111561025957600080fd5b8035906020019184602083028401116401000000008311171561027b57600080fd5b9091929391929390505050610569565b005b6102ef600480360360408110156102a357600080fd5b81019080803573ffffffffffffffffffffffffffffffffffffffff169060200190929190803573ffffffffffffffffffffffffffffffffffffffff1690602001909291905050506106bc565b6040518082815260200191505060405180910390f35b6103476004803603602081101561031b57600080fd5b81019080803573ffffffffffffffffffffffffffffffffffffffff169060200190929190505050610743565b6040518082815260200191505060405180910390f35b610447600480360360a081101561037357600080fd5b81019080803573ffffffffffffffffffffffffffffffffffffffff16906020019092919080359060200190929190803573ffffffffffffffffffffffffffffffffffffffff16906020019092919080357bffffffffffffffffffffffffffffffffffffffffffffffffffffffff191690602001909291908035906020019064010000000081111561040357600080fd5b82018360208201111561041557600080fd5b8035906020019184600183028401116401000000008311171561043757600080fd5b909192939192939050505061078c565b6040518082815260200191505060405180910390f35b6104bf6004803603604081101561047357600080fd5b81019080803573ffffffffffffffffffffffffffffffffffffffff169060200190929190803573ffffffffffffffffffffffffffffffffffffffff169060200190929190505050610b88565b6040518082815260200191505060405180910390f35b60008060008373ffffffffffffffffffffffffffffffffffffffff1673ffffffffffffffffffffffffffffffffffffffff168152602001908152602001600020549050919050565b600061052b33858585610c69565b90509392505050565b600061056233837fffffffffffffffffffffffffffffffffffffffffffffffffffffffffffffffff33610c69565b9050919050565b7f000000000000000000000000000000000000000000000000000000000000000073ffffffffffffffffffffffffffffffffffffffff163373ffffffffffffffffffffffffffffffffffffffff161461062a576040517f08c379a00000000000000000000000000000000000000000000000000000000081526004018080602001828103825260128152602001807f696e69743a20556e617574686f72697a6564000000000000000000000000000081525060200191505060405180910390fd5b6106b6848480806020026020016040519081016040528093929190818152602001838360200280828437600081840152601f19601f82011690508083019250505050505050838380806020026020016040519081016040528093929190818152602001838360200280828437600081840152601f19601f82011690508083019250505050505050610cab565b50505050565b6000600260008473ffffffffffffffffffffffffffffffffffffffff1673ffffffffffffffffffffffffffffffffffffffff16815260200190815260200160002060008373ffffffffffffffffffffffffffffffffffffffff1673ffffffffffffffffffffffffffffffffffffffff16815260200190815260200160002054905092915050565b6000600160008373ffffffffffffffffffffffffffffffffffffffff1673ffffffffffffffffffffffffffffffffffffffff168152602001908152602001600020549050919050565b6000610799338888610fe6565b905060008111610811576040517f08c379a000000000000000000000000000000000000000000000000000000000815260040180806020018281038252601f8152602001807f72656465656d5368617265733a204e6f2073686172657320636c61696d65640081525060200191505060405180910390fd5b7f000000000000000000000000000000000000000000000000000000000000000073ffffffffffffffffffffffffffffffffffffffff16635d4755dc8861aaaa84898989896040518863ffffffff1660e01b8152600401808873ffffffffffffffffffffffffffffffffffffffff1681526020018773ffffffffffffffffffffffffffffffffffffffff1681526020018681526020018573ffffffffffffffffffffffffffffffffffffffff168152602001847bffffffffffffffffffffffffffffffffffffffffffffffffffffffff19168152602001806020018281038252848482818152602001925080828437600081840152601f19601f8201169050808301925050509850505050505050505060206040518083038186803b15801561093957600080fd5b505afa15801561094d573d6000803e3d6000fd5b505050506040513d602081101561096357600080fd5b81019080805190602001909291905050506109c9576040517f08c379a000000000000000000000000000000000000000000000000000000000815260040180806020018281038252602181526020018061194b6021913960400191505060405180910390fd5b600060608673ffffffffffffffffffffffffffffffffffffffff1686868660405160200180847bffffffffffffffffffffffffffffffffffffffffffffffffffffffff191681526004018383808284378083019250505093505050506040516020818303038152906040526040518082805190602001908083835b60208310610a675780518252602082019150602081019050602083039250610a44565b6001836020036101000a0380198251168184511680821785525050505050509050019150506000604051808303816000865af19150503d8060008114610ac9576040519150601f19603f3d011682016040523d82523d6000602084013e610ace565b606091505b5091509150818190610b7b576040517f08c379a00000000000000000000000000000000000000000000000000000000081526004018080602001828103825283818151815260200191508051906020019080838360005b83811015610b40578082015181840152602081019050610b25565b50505050905090810190601f168015610b6d5780820380516001836020036101000a031916815260200191505b509250505060405180910390fd5b5050509695505050505050565b6000610c61610b9684610743565b610ba085856106bc565b610c5c8573ffffffffffffffffffffffffffffffffffffffff166370a08231306040518263ffffffff1660e01b8152600401808273ffffffffffffffffffffffffffffffffffffffff16815260200191505060206040518083038186803b158015610c0a57600080fd5b505afa158015610c1e573d6000803e3d6000fd5b505050506040513d6020811015610c3457600080fd5b8101908080519060200190929190505050610c4e876104d5565b6112b690919063ffffffff16565b61133e565b905092915050565b6000610c76858585610fe6565b9050610ca382828673ffffffffffffffffffffffffffffffffffffffff166113879092919063ffffffff16565b949350505050565b6000805b8351811015610f6957600073ffffffffffffffffffffffffffffffffffffffff16848281518110610cdc57fe5b602002602001015173ffffffffffffffffffffffffffffffffffffffff161415610d6e576040517f08c379a000000000000000000000000000000000000000000000000000000000815260040180806020018281038252601b8152602001807f5f5f73657453706c6974526174696f3a20456d7074792075736572000000000081525060200191505060405180910390fd5b60006001820190505b8451811015610e5557848181518110610d8c57fe5b602002602001015173ffffffffffffffffffffffffffffffffffffffff16858381518110610db657fe5b602002602001015173ffffffffffffffffffffffffffffffffffffffff161415610e48576040517f08c379a000000000000000000000000000000000000000000000000000000000815260040180806020018281038252601f8152602001807f5f5f73657453706c6974526174696f3a204475706c696361746520757365720081525060200191505060405180910390fd5b8080600101915050610d77565b50828181518110610e6257fe5b602002602001015160016000868481518110610e7a57fe5b602002602001015173ffffffffffffffffffffffffffffffffffffffff1673ffffffffffffffffffffffffffffffffffffffff16815260200190815260200160002081905550610ee6838281518110610ecf57fe5b6020026020010151836112b690919063ffffffff16565b9150838181518110610ef457fe5b602002602001015173ffffffffffffffffffffffffffffffffffffffff167f531137a286e6d7db4298ad238c8007a3e9f4d5c41c4550d1f22c1b6965103ecd848381518110610f3f57fe5b60200260200101516040518082815260200191505060405180910390a28080600101915050610caf565b506127108114610fe1576040517f08c379a000000000000000000000000000000000000000000000000000000000815260040180806020018281038252601f8152602001807f5f5f73657453706c6974526174696f3a2053706c6974206e6f7420313030250081525060200191505060405180910390fd5b505050565b600080610ff2846104d5565b9050600061100086866106bc565b905060006110b88673ffffffffffffffffffffffffffffffffffffffff166370a08231306040518263ffffffff1660e01b8152600401808273ffffffffffffffffffffffffffffffffffffffff16815260200191505060206040518083038186803b15801561106e57600080fd5b505afa158015611082573d6000803e3d6000fd5b505050506040513d602081101561109857600080fd5b8101908080519060200190929190505050846112b690919063ffffffff16565b905060006110cf6110c889610743565b848461133e565b90507fffffffffffffffffffffffffffffffffffffffffffffffffffffffffffffffff8614156111015780945061115e565b8086111561115a576040517f08c379a00000000000000000000000000000000000000000000000000000000081526004018080602001828103825260258152602001806119dd6025913960400191505060405180910390fd5b8594505b61117185856112b690919063ffffffff16565b6000808973ffffffffffffffffffffffffffffffffffffffff1673ffffffffffffffffffffffffffffffffffffffff168152602001908152602001600020819055506111c685846112b690919063ffffffff16565b600260008a73ffffffffffffffffffffffffffffffffffffffff1673ffffffffffffffffffffffffffffffffffffffff16815260200190815260200160002060008973ffffffffffffffffffffffffffffffffffffffff1673ffffffffffffffffffffffffffffffffffffffff168152602001908152602001600020819055508673ffffffffffffffffffffffffffffffffffffffff168873ffffffffffffffffffffffffffffffffffffffff167f4831bdd9dcf3048a28319ce81d3cab7a15366bcf449bc7803a539107440809cc876040518082815260200191505060405180910390a3505050509392505050565b600080828401905083811015611334576040517f08c379a000000000000000000000000000000000000000000000000000000000815260040180806020018281038252601b8152602001807f536166654d6174683a206164646974696f6e206f766572666c6f77000000000081525060200191505060405180910390fd5b8091505092915050565b60008061136861271061135a878661142990919063ffffffff16565b6114af90919063ffffffff16565b905061137d848261153890919063ffffffff16565b9150509392505050565b6114248363a9059cbb60e01b8484604051602401808373ffffffffffffffffffffffffffffffffffffffff16815260200182815260200192505050604051602081830303815290604052907bffffffffffffffffffffffffffffffffffffffffffffffffffffffff19166020820180517bffffffffffffffffffffffffffffffffffffffffffffffffffffffff83818316178352505050506115bb565b505050565b60008083141561143c57600090506114a9565b600082840290508284828161144d57fe5b04146114a4576040517f08c379a00000000000000000000000000000000000000000000000000000000081526004018080602001828103825260218152602001806119926021913960400191505060405180910390fd5b809150505b92915050565b6000808211611526576040517f08c379a000000000000000000000000000000000000000000000000000000000815260040180806020018281038252601a8152602001807f536166654d6174683a206469766973696f6e206279207a65726f00000000000081525060200191505060405180910390fd5b81838161152f57fe5b04905092915050565b6000828211156115b0576040517f08c379a000000000000000000000000000000000000000000000000000000000815260040180806020018281038252601e8152602001807f536166654d6174683a207375627472616374696f6e206f766572666c6f77000081525060200191505060405180910390fd5b818303905092915050565b606061161d826040518060400160405280602081526020017f5361666545524332303a206c6f772d6c6576656c2063616c6c206661696c65648152508573ffffffffffffffffffffffffffffffffffffffff166116aa9092919063ffffffff16565b90506000815111156116a55780806020019051602081101561163e57600080fd5b81019080805190602001909291905050506116a4576040517f08c379a000000000000000000000000000000000000000000000000000000000815260040180806020018281038252602a8152602001806119b3602a913960400191505060405180910390fd5b5b505050565b60606116b984846000856116c2565b90509392505050565b60608247101561171d576040517f08c379a000000000000000000000000000000000000000000000000000000000815260040180806020018281038252602681526020018061196c6026913960400191505060405180910390fd5b6117268561186b565b611798576040517f08c379a000000000000000000000000000000000000000000000000000000000815260040180806020018281038252601d8152602001807f416464726573733a2063616c6c20746f206e6f6e2d636f6e747261637400000081525060200191505060405180910390fd5b600060608673ffffffffffffffffffffffffffffffffffffffff1685876040518082805190602001908083835b602083106117e857805182526020820191506020810190506020830392506117c5565b6001836020036101000a03801982511681845116808217855250505050505090500191505060006040518083038185875af1925050503d806000811461184a576040519150601f19603f3d011682016040523d82523d6000602084013e61184f565b606091505b509150915061185f82828661187e565b92505050949350505050565b600080823b905060008111915050919050565b6060831561188e57829050611943565b6000835111156118a15782518084602001fd5b816040517f08c379a00000000000000000000000000000000000000000000000000000000081526004018080602001828103825283818151815260200191508051906020019080838360005b838110156119085780820151818401526020810190506118ed565b50505050905090810190601f1680156119355780820380516001836020036101000a031916815260200191505b509250505060405180910390fd5b939250505056fe72656465656d5368617265733a20496e76616c69642072656465656d2063616c6c416464726573733a20696e73756666696369656e742062616c616e636520666f722063616c6c536166654d6174683a206d756c7469706c69636174696f6e206f766572666c6f775361666545524332303a204552433230206f7065726174696f6e20646964206e6f742073756363656564636c61696d546f6b656e3a205f616d6f756e74206578636565647320636c61696d61626c65a164736f6c634300060c000a","linkReferences":{}},"methodIdentifiers":{"claimToken(address)":"32f289cf","claimTokenAmountTo(address,uint256,address)":"0f0ee54c","getSplitPercentageForUser(address)":"8a3503fa","getTokenBalClaimableForUser(address,address)":"cb482df6","getTokenBalClaimedForUser(address,address)":"41898182","getTotalTokenBalClaimed(address)":"0cffb185","init(address[],uint256[])":"371aa158","redeemShares(address,uint256,address,bytes4,bytes)":"c91995a3"},"id":109}