{"abi":[{"type":"constructor","inputs":[{"name":"_policyManager","type":"address","internalType":"address"},{"name":"_addressListRegistry","type":"address","internalType":"address"},{"name":"_valueInterpreter","type":"address","internalType":"address"},{"name":"_wethToken","type":"address","internalType":"address"},{"name":"_bypassableAdaptersListId","type":"uint256","internalType":"uint256"},{"name":"_tolerancePeriodDuration","type":"uint256","internalType":"uint256"},{"name":"_pricelessAssetBypassTimelock","type":"uint256","internalType":"uint256"},{"name":"_pricelessAssetBypassTimeLimit","type":"uint256","internalType":"uint256"}],"stateMutability":"nonpayable"},{"type":"function","name":"activateForFund","inputs":[{"name":"","type":"address","internalType":"address"}],"outputs":[],"stateMutability":"nonpayable"},{"type":"function","name":"addFundSettings","inputs":[{"name":"_comptrollerProxy","type":"address","internalType":"address"},{"name":"_encodedSettings","type":"bytes","internalType":"bytes"}],"outputs":[],"stateMutability":"nonpayable"},{"type":"function","name":"assetIsBypassableForFund","inputs":[{"name":"_comptrollerProxy","type":"address","internalType":"address"},{"name":"_asset","type":"address","internalType":"address"}],"outputs":[{"name":"isBypassable_","type":"bool","internalType":"bool"}],"stateMutability":"view"},{"type":"function","name":"canDisable","inputs":[],"outputs":[{"name":"canDisable_","type":"bool","internalType":"bool"}],"stateMutability":"pure"},{"type":"function","name":"getAddressListRegistry","inputs":[],"outputs":[{"name":"addressListRegistry_","type":"address","internalType":"address"}],"stateMutability":"view"},{"type":"function","name":"getAssetBypassWindowStartForFund","inputs":[{"name":"_comptrollerProxy","type":"address","internalType":"address"},{"name":"_asset","type":"address","internalType":"address"}],"outputs":[{"name":"windowStart_","type":"uint256","internalType":"uint256"}],"stateMutability":"view"},{"type":"function","name":"getBypassableAdaptersListId","inputs":[],"outputs":[{"name":"bypassableAdaptersListId_","type":"uint256","internalType":"uint256"}],"stateMutability":"view"},{"type":"function","name":"getPolicyInfoForFund","inputs":[{"name":"_comptrollerProxy","type":"address","internalType":"address"}],"outputs":[{"name":"policyInfo_","type":"tuple","internalType":"struct ICumulativeSlippageTolerancePolicy.PolicyInfo","components":[{"name":"tolerance","type":"uint64","internalType":"uint64"},{"name":"cumulativeSlippage","type":"uint64","internalType":"uint64"},{"name":"lastSlippageTimestamp","type":"uint128","internalType":"uint128"}]}],"stateMutability":"view"},{"type":"function","name":"getPolicyManager","inputs":[],"outputs":[{"name":"policyManager_","type":"address","internalType":"address"}],"stateMutability":"view"},{"type":"function","name":"getPricelessAssetBypassTimeLimit","inputs":[],"outputs":[{"name":"timeLimit_","type":"uint256","internalType":"uint256"}],"stateMutability":"view"},{"type":"function","name":"getPricelessAssetBypassTimelock","inputs":[],"outputs":[{"name":"timelock_","type":"uint256","internalType":"uint256"}],"stateMutability":"view"},{"type":"function","name":"getPricelessAssetBypassValueInterpreter","inputs":[],"outputs":[{"name":"valueInterpreter_","type":"address","internalType":"address"}],"stateMutability":"view"},{"type":"function","name":"getPricelessAssetBypassWethToken","inputs":[],"outputs":[{"name":"wethToken_","type":"address","internalType":"address"}],"stateMutability":"view"},{"type":"function","name":"getTolerancePeriodDuration","inputs":[],"outputs":[{"name":"tolerancePeriodDuration_","type":"uint256","internalType":"uint256"}],"stateMutability":"view"},{"type":"function","name":"identifier","inputs":[],"outputs":[{"name":"identifier_","type":"string","internalType":"string"}],"stateMutability":"pure"},{"type":"function","name":"implementedHooks","inputs":[],"outputs":[{"name":"implementedHooks_","type":"uint8[]","internalType":"enum IPolicyManager.PolicyHook[]"}],"stateMutability":"pure"},{"type":"function","name":"startAssetBypassTimelock","inputs":[{"name":"_asset","type":"address","internalType":"address"}],"outputs":[],"stateMutability":"nonpayable"},{"type":"function","name":"updateFundSettings","inputs":[{"name":"","type":"address","internalType":"address"},{"name":"","type":"bytes","internalType":"bytes"}],"outputs":[],"stateMutability":"nonpayable"},{"type":"function","name":"validateRule","inputs":[{"name":"_comptrollerProxy","type":"address","internalType":"address"},{"name":"","type":"uint8","internalType":"enum IPolicyManager.PolicyHook"},{"name":"_encodedArgs","type":"bytes","internalType":"bytes"}],"outputs":[{"name":"isValid_","type":"bool","internalType":"bool"}],"stateMutability":"nonpayable"},{"type":"event","name":"CumulativeSlippageUpdatedForFund","inputs":[{"name":"comptrollerProxy","type":"address","indexed":true,"internalType":"address"},{"name":"nextCumulativeSlippage","type":"uint256","indexed":false,"internalType":"uint256"}],"anonymous":false},{"type":"event","name":"FundSettingsSet","inputs":[{"name":"comptrollerProxy","type":"address","indexed":true,"internalType":"address"},{"name":"tolerance","type":"uint256","indexed":false,"internalType":"uint256"}],"anonymous":false},{"type":"event","name":"PricelessAssetBypassed","inputs":[{"name":"comptrollerProxy","type":"address","indexed":true,"internalType":"address"},{"name":"asset","type":"address","indexed":true,"internalType":"address"}],"anonymous":false},{"type":"event","name":"PricelessAssetTimelockStarted","inputs":[{"name":"comptrollerProxy","type":"address","indexed":true,"internalType":"address"},{"name":"asset","type":"address","indexed":true,"internalType":"address"}],"anonymous":false}],"bytecode":{"object":"0x6101806040523480156200001257600080fd5b506040516200184138038062001841833981016040819052620000359162000097565b6001600160601b0319606098891b811660805260a09290925260c05293861b841660e05291851b8316610100529290931b166101205261014052610160526200011e565b80516001600160a01b03811681146200009157600080fd5b92915050565b600080600080600080600080610100898b031215620000b4578384fd5b620000c08a8a62000079565b9750620000d18a60208b0162000079565b9650620000e28a60408b0162000079565b9550620000f38a60608b0162000079565b94506080890151935060a0890151925060c0890151915060e089015190509295985092959890939650565b60805160601c60a05160c05160e05160601c6101005160601c6101205160601c61014051610160516116af620001926000398061094152508061098952508061083152508061063952508061061052508061088c52508061065d5250806104c7528061068c528061096552506116af6000f3fe608060405234801561001057600080fd5b50600436106101215760003560e01c80635da4cdb2116100ad578063cbf54bb211610071578063cbf54bb21461022f578063ceb9a0ad14610244578063cf09a09214610257578063d44ad6cb1461025f578063e09da6811461026757610121565b80635da4cdb2146101e457806374708934146101f75780637998a1c4146101ff5780637fe292681461021457806385d63ec91461021c57610121565b80631ef92578116100f45780631ef925781461017f578063234dfb1714610194578063441053981461019c578063579be718146101b15780635bbb869c146101c457610121565b806307d2890e146101265780630d4d75101461013b5780630f5f6b4f1461014e57806314f8e61514610161575b600080fd5b610139610134366004610f86565b61026f565b005b6101396101493660046110d2565b6104a4565b61013961015c3660046110d2565b6104bc565b61016961060e565b60405161017691906111e8565b60405180910390f35b610187610632565b604051610176919061126d565b610169610637565b6101a461065b565b6040516101769190611614565b6101876101bf366004611124565b61067f565b6101d76101d2366004610f86565b61079f565b60405161017691906115dc565b6101a46101f236600461109a565b610804565b61016961082f565b610207610853565b6040516101769190611278565b6101a461088a565b61018761022a36600461109a565b6108ae565b6102376108e5565b604051610176919061121f565b610139610252366004610f86565b61093c565b6101a461093f565b610169610963565b6101a4610987565b6000336001600160a01b0316635a53e3486040518163ffffffff1660e01b815260040160206040518083038186803b1580156102aa57600080fd5b505afa1580156102be573d6000803e3d6000fd5b505050506040513d601f19601f820116820180604052508101906102e29190610fa2565b9050806001600160a01b031663c98091876040518163ffffffff1660e01b815260040160206040518083038186803b15801561031d57600080fd5b505afa158015610331573d6000803e3d6000fd5b505050506040513d601f19601f820116820180604052508101906103559190610fa2565b6001600160a01b0316336001600160a01b03161461038e5760405162461bcd60e51b815260040161038590611559565b60405180910390fd5b61039661060e565b6001600160a01b0316634c67e1068360016103af610637565b6040518463ffffffff1660e01b81526004016103cd939291906111fc565b602060405180830381600087803b1580156103e757600080fd5b505af1925050508015610417575060408051601f3d908101601f19168201909252610414918101906111a9565b60015b6104875761042d61042661065b565b42906109ab565b6001600160a01b0380831660008181526020818152604080832094881680845294909152808220949094559251919290917f76fadd0d061c0fa0e079ec4814cecf7f5f6f43e604f241551dd35b6c3c9a69809190a36104a0565b5060405162461bcd60e51b8152600401610385906113cd565b5050565b60405162461bcd60e51b815260040161038590611302565b336001600160a01b037f000000000000000000000000000000000000000000000000000000000000000016146105045760405162461bcd60e51b8152600401610385906114a0565b6000610512828401846111c1565b9050670de0b6b3a7640000816001600160401b0316106105445760405162461bcd60e51b815260040161038590611418565b604080516060810182526001600160401b038084168252600060208084018281528486018381526001600160a01b038b1680855260019093529286902094518554915193516001600160801b03908116600160801b02948616600160401b0267ffffffffffffffff60401b199290961667ffffffffffffffff199093169290921716939093179092161790915590517f27abf63785bf8ff6d81b909a910422392df35bed801ecf834d5b60c8e72b859490610600908490611634565b60405180910390a250505050565b7f000000000000000000000000000000000000000000000000000000000000000090565b600090565b7f000000000000000000000000000000000000000000000000000000000000000090565b7f000000000000000000000000000000000000000000000000000000000000000090565b6000336001600160a01b037f000000000000000000000000000000000000000000000000000000000000000016146106c95760405162461bcd60e51b8152600401610385906114a0565b600060608060608061071088888080601f0160208091040260200160405190810160405280939291908181526020018383808284376000920191909152506109d792505050565b96509650965096505095505061072585610a0d565b1561073857600195505050505050610797565b60006107478b86868686610a9b565b90508061075d5760019650505050505050610797565b6001600160a01b038b166000908152600160205260409020546001600160401b03168061078b8d8483610b20565b11159750505050505050505b949350505050565b6107a7610e28565b506001600160a01b0316600090815260016020908152604091829020825160608101845290546001600160401b038082168352600160401b82041692820192909252600160801b9091046001600160801b03169181019190915290565b6001600160a01b03808316600090815260208181526040808320938516835292905220545b92915050565b7f000000000000000000000000000000000000000000000000000000000000000090565b60408051808201909152601d81527f43554d554c41544956455f534c4950504147455f544f4c4552414e4345000000602082015290565b7f000000000000000000000000000000000000000000000000000000000000000090565b6000806108bb8484610804565b90504281111580156107975750426108db6108d461088a565b83906109ab565b1015949350505050565b6040805160018082528183019092526060916020808301908036833701905050905060018160008151811061091657fe5b6020026020010190600981111561092957fe5b9081600981111561093657fe5b90525090565b50565b7f000000000000000000000000000000000000000000000000000000000000000090565b7f000000000000000000000000000000000000000000000000000000000000000090565b7f000000000000000000000000000000000000000000000000000000000000000090565b6000828201838110156109d05760405162461bcd60e51b8152600401610385906112cb565b9392505050565b6000806000606080606080878060200190518101906109f69190610fbe565b959e949d50929b5090995097509550909350915050565b6000610a1761082f565b6001600160a01b0316631c563204610a2d610987565b846040518363ffffffff1660e01b8152600401610a4b92919061161d565b60206040518083038186803b158015610a6357600080fd5b505afa158015610a77573d6000803e3d6000fd5b505050506040513d601f19601f820116820180604052508101906108299190611189565b600080610ab1878585610aac610637565b610c3b565b905080610ac2576000915050610b17565b6000610ad2888888610aac610637565b905080821115610b10576000610ae88383610c90565b9050610b0683610b0083670de0b6b3a7640000610cb8565b90610cf2565b9350505050610b17565b6000925050505b95945050505050565b6001600160a01b03831660009081526001602052604090208054600160401b90046001600160401b0316908115610ba8576000610b86610b5e61093f565b8354610b0090610b7f904290600160801b90046001600160801b0316610c90565b8790610cb8565b905082811015610ba157610b9a8382610c90565b9250610ba6565b600092505b505b610bb282856109ab565b81546001600160801b03428116600160801b026001600160401b038416600160401b0267ffffffffffffffff60401b1990931692909217161782556040519092506001600160a01b038616907f4f2b5515347f3a595b0228c4e8afea6d14c5f08c4038241a43473ea876f6273990610c2b908590611614565b60405180910390a2509392505050565b6000805b8451811015610c8757610c7d6108d487878481518110610c5b57fe5b6020026020010151878581518110610c6f57fe5b602002602001015187610d24565b9150600101610c3f565b50949350505050565b600082821115610cb25760405162461bcd60e51b81526004016103859061135f565b50900390565b600082610cc757506000610829565b82820282848281610cd457fe5b04146109d05760405162461bcd60e51b81526004016103859061145f565b6000808211610d135760405162461bcd60e51b815260040161038590611396565b818381610d1c57fe5b049392505050565b6000610d2e61060e565b6001600160a01b0316634c67e1068585856040518463ffffffff1660e01b8152600401610d5d939291906111fc565b602060405180830381600087803b158015610d7757600080fd5b505af1925050508015610da7575060408051601f3d908101601f19168201909252610da4918101906111a9565b60015b610e1657610db585856108ae565b610dd15760405162461bcd60e51b8152600401610385906114e9565b836001600160a01b0316856001600160a01b03167fa2de3d3e85d58ec3c62bcbd0a67a60fac9f9002f6e70cfe768a49fa19d7dcf4660405160405180910390a3610e1d565b9050610797565b506000949350505050565b604080516060810182526000808252602082018190529181019190915290565b80516108298161168d565b600082601f830112610e63578081fd5b8151610e76610e718261166e565b611648565b818152915060208083019084810181840286018201871015610e9757600080fd5b60005b84811015610ebf578151610ead8161168d565b84529282019290820190600101610e9a565b505050505092915050565b600082601f830112610eda578081fd5b8151610ee8610e718261166e565b818152915060208083019084810181840286018201871015610f0957600080fd5b60005b84811015610ebf57815184529282019290820190600101610f0c565b80516001600160e01b03198116811461082957600080fd5b60008083601f840112610f51578182fd5b5081356001600160401b03811115610f67578182fd5b602083019150836020828501011115610f7f57600080fd5b9250929050565b600060208284031215610f97578081fd5b81356109d08161168d565b600060208284031215610fb3578081fd5b81516109d08161168d565b600080600080600080600060e0888a031215610fd8578283fd5b610fe28989610e48565b9650610ff18960208a01610e48565b95506110008960408a01610f28565b945060608801516001600160401b038082111561101b578485fd5b6110278b838c01610e53565b955060808a015191508082111561103c578485fd5b6110488b838c01610eca565b945060a08a015191508082111561105d578384fd5b6110698b838c01610e53565b935060c08a015191508082111561107e578283fd5b5061108b8a828b01610eca565b91505092959891949750929550565b600080604083850312156110ac578182fd5b82356110b78161168d565b915060208301356110c78161168d565b809150509250929050565b6000806000604084860312156110e6578283fd5b83356110f18161168d565b925060208401356001600160401b0381111561110b578283fd5b61111786828701610f40565b9497909650939450505050565b60008060008060608587031215611139578384fd5b84356111448161168d565b93506020850135600a8110611157578384fd5b925060408501356001600160401b03811115611171578283fd5b61117d87828801610f40565b95989497509550505050565b60006020828403121561119a578081fd5b815180151581146109d0578182fd5b6000602082840312156111ba578081fd5b5051919050565b6000602082840312156111d2578081fd5b81356001600160401b03811681146109d0578182fd5b6001600160a01b0391909116815260200190565b6001600160a01b0393841681526020810192909252909116604082015260600190565b6020808252825182820181905260009190848201906040850190845b81811015611261578351600a811061124f57fe5b8352928401929184019160010161123b565b50909695505050505050565b901515815260200190565b6000602080835283518082850152825b818110156112a457858101830151858201604001528201611288565b818111156112b55783604083870101525b50601f01601f1916929092016040019392505050565b6020808252601b908201527f536166654d6174683a206164646974696f6e206f766572666c6f770000000000604082015260600190565b60208082526037908201527f75706461746546756e6453657474696e67733a2055706461746573206e6f742060408201527f616c6c6f77656420666f72207468697320706f6c696379000000000000000000606082015260800190565b6020808252601e908201527f536166654d6174683a207375627472616374696f6e206f766572666c6f770000604082015260600190565b6020808252601a908201527f536166654d6174683a206469766973696f6e206279207a65726f000000000000604082015260600190565b6020808252602b908201527f7374617274417373657442797061737354696d656c6f636b3a2041737365742060408201526a686173206120707269636560a81b606082015260800190565b60208082526027908201527f61646446756e6453657474696e67733a204d617820746f6c6572616e636520656040820152661e18d95959195960ca1b606082015260800190565b60208082526021908201527f536166654d6174683a206d756c7469706c69636174696f6e206f766572666c6f6040820152607760f81b606082015260800190565b60208082526029908201527f4f6e6c792074686520506f6c6963794d616e616765722063616e206d616b65206040820152681d1a1a5cc818d85b1b60ba1b606082015260800190565b6020808252604a908201527f5f5f63616c6356616c75654578636c7564696e6742797061737361626c65507260408201527f6963656c65737341737365743a20496e76616c6964206173736574206e6f742060608201526962797061737361626c6560b01b608082015260a00190565b60208082526059908201527f7374617274417373657442797061737354696d656c6f636b3a2053656e64657260408201527f206973206e6f7420746865205661756c7450726f7879206f662074686520617360608201527f736f63696174656420436f6d7074726f6c6c657250726f787900000000000000608082015260a00190565b81516001600160401b039081168252602080840151909116908201526040918201516001600160801b03169181019190915260600190565b90815260200190565b9182526001600160a01b0316602082015260400190565b6001600160401b0391909116815260200190565b6040518181016001600160401b038111828210171561166657600080fd5b604052919050565b60006001600160401b03821115611683578081fd5b5060209081020190565b6001600160a01b038116811461093c57600080fdfea164736f6c634300060c000a","linkReferences":{}},"methodIdentifiers":{"activateForFund(address)":"ceb9a0ad","addFundSettings(address,bytes)":"0f5f6b4f","assetIsBypassableForFund(address,address)":"85d63ec9","canDisable()":"1ef92578","getAddressListRegistry()":"74708934","getAssetBypassWindowStartForFund(address,address)":"5da4cdb2","getBypassableAdaptersListId()":"e09da681","getPolicyInfoForFund(address)":"5bbb869c","getPolicyManager()":"d44ad6cb","getPricelessAssetBypassTimeLimit()":"7fe29268","getPricelessAssetBypassTimelock()":"44105398","getPricelessAssetBypassValueInterpreter()":"14f8e615","getPricelessAssetBypassWethToken()":"234dfb17","getTolerancePeriodDuration()":"cf09a092","identifier()":"7998a1c4","implementedHooks()":"cbf54bb2","startAssetBypassTimelock(address)":"07d2890e","updateFundSettings(address,bytes)":"0d4d7510","validateRule(address,uint8,bytes)":"579be718"},"id":216}