{"abi":[{"type":"constructor","inputs":[{"name":"_addressListRegistry","type":"address","internalType":"address"},{"name":"_listDescription","type":"string","internalType":"string"},{"name":"_poolAddressProvider","type":"address","internalType":"address"}],"stateMutability":"nonpayable"},{"type":"function","name":"addValidatedItemsToList","inputs":[{"name":"_items","type":"address[]","internalType":"address[]"}],"outputs":[],"stateMutability":"nonpayable"}],"bytecode":{"object":"0x60e06040523480156200001157600080fd5b506040516200124438038062001244833981810160405281019062000037919062000372565b82828173ffffffffffffffffffffffffffffffffffffffff1660808173ffffffffffffffffffffffffffffffffffffffff1660601b8152505060008273ffffffffffffffffffffffffffffffffffffffff1663be68406e306001600067ffffffffffffffff81118015620000aa57600080fd5b50604051908082528060200260200182016040528015620000da5781602001602082028036833780820191505090505b506040518463ffffffff1660e01b8152600401620000fb9392919062000631565b602060405180830381600087803b1580156200011657600080fd5b505af11580156200012b573d6000803e3d6000fd5b505050506040513d601f19601f82011682018060405250810190620001519190620003e1565b90508060a081815250506060600167ffffffffffffffff811180156200017657600080fd5b50604051908082528060200260200182016040528015620001a65781602001602082028036833780820191505090505b5090506060600167ffffffffffffffff81118015620001c457600080fd5b50604051908082528060200260200182016040528015620001fa57816020015b6060815260200190600190039081620001e45790505b50905082826000815181106200020c57fe5b60200260200101818152505083816000815181106200022757fe5b60200260200101819052508473ffffffffffffffffffffffffffffffffffffffff1663b426f94683836040518363ffffffff1660e01b81526004016200026f92919062000675565b600060405180830381600087803b1580156200028a57600080fd5b505af11580156200029f573d6000803e3d6000fd5b5050505050505050508073ffffffffffffffffffffffffffffffffffffffff1660c08173ffffffffffffffffffffffffffffffffffffffff1660601b81525050505050620008c2565b600081519050620002f9816200088e565b92915050565b600082601f8301126200031157600080fd5b8151620003286200032282620006de565b620006b0565b915080825260208301602083018583830111156200034557600080fd5b6200035283828462000839565b50505092915050565b6000815190506200036c81620008a8565b92915050565b6000806000606084860312156200038857600080fd5b60006200039886828701620002e8565b935050602084015167ffffffffffffffff811115620003b657600080fd5b620003c486828701620002ff565b9250506040620003d786828701620002e8565b9150509250925092565b600060208284031215620003f457600080fd5b600062000404848285016200035b565b91505092915050565b60006200041b838362000457565b60208301905092915050565b6000620004358383620005df565b905092915050565b60006200044b838362000620565b60208301905092915050565b6200046281620007d2565b82525050565b6200047381620007d2565b82525050565b600062000486826200073b565b6200049281856200078e565b93506200049f836200070b565b8060005b83811015620004d6578151620004ba88826200040d565b9750620004c78362000767565b925050600181019050620004a3565b5085935050505092915050565b6000620004f08262000746565b620004fc81856200079f565b93508360208202850162000510856200071b565b8060005b8581101562000552578484038952815162000530858262000427565b94506200053d8362000774565b925060208a0199505060018101905062000514565b50829750879550505050505092915050565b6000620005718262000751565b6200057d8185620007b0565b93506200058a836200072b565b8060005b83811015620005c1578151620005a588826200043d565b9750620005b28362000781565b9250506001810190506200058e565b5085935050505092915050565b620005d98162000825565b82525050565b6000620005ec826200075c565b620005f88185620007c1565b93506200060a81856020860162000839565b62000615816200086f565b840191505092915050565b6200062b816200081b565b82525050565b600060608201905062000648600083018662000468565b620006576020830185620005ce565b81810360408301526200066b818462000479565b9050949350505050565b6000604082019050818103600083015262000691818562000564565b90508181036020830152620006a78184620004e3565b90509392505050565b6000604051905081810181811067ffffffffffffffff82111715620006d457600080fd5b8060405250919050565b600067ffffffffffffffff821115620006f657600080fd5b601f19601f8301169050602081019050919050565b6000819050602082019050919050565b6000819050602082019050919050565b6000819050602082019050919050565b600081519050919050565b600081519050919050565b600081519050919050565b600081519050919050565b6000602082019050919050565b6000602082019050919050565b6000602082019050919050565b600082825260208201905092915050565b600082825260208201905092915050565b600082825260208201905092915050565b600082825260208201905092915050565b6000620007df82620007fb565b9050919050565b6000819050620007f68262000880565b919050565b600073ffffffffffffffffffffffffffffffffffffffff82169050919050565b6000819050919050565b60006200083282620007e6565b9050919050565b60005b83811015620008595780820151818401526020810190506200083c565b8381111562000869576000848401525b50505050565b6000601f19601f8301169050919050565b600481106200088b57fe5b50565b6200089981620007d2565b8114620008a557600080fd5b50565b620008b3816200081b565b8114620008bf57600080fd5b50565b60805160601c60a05160c05160601c610951620008f36000398061010d5250806094525080605852506109516000f3fe608060405234801561001057600080fd5b506004361061002b5760003560e01c8063a8f0bc4114610030575b600080fd5b61004a6004803603810190610045919061061f565b61004c565b005b6100568282610109565b7f000000000000000000000000000000000000000000000000000000000000000073ffffffffffffffffffffffffffffffffffffffff16638da3d7367f000000000000000000000000000000000000000000000000000000000000000084846040518463ffffffff1660e01b81526004016100d3939291906107ab565b600060405180830381600087803b1580156100ed57600080fd5b505af1158015610101573d6000803e3d6000fd5b505050505050565b60007f000000000000000000000000000000000000000000000000000000000000000073ffffffffffffffffffffffffffffffffffffffff1663026b1d5f6040518163ffffffff1660e01b815260040160206040518083038186803b15801561017157600080fd5b505afa158015610185573d6000803e3d6000fd5b505050506040513d601f19601f820116820180604052508101906101a991906105f6565b905060005b838390508110156103675760008484838181106101c757fe5b90506020020160208101906101dc91906105cd565b90508273ffffffffffffffffffffffffffffffffffffffff166335ea6a758273ffffffffffffffffffffffffffffffffffffffff1663b16a19de6040518163ffffffff1660e01b815260040160206040518083038186803b15801561024057600080fd5b505afa158015610254573d6000803e3d6000fd5b505050506040513d601f19601f8201168201806040525081019061027891906105f6565b6040518263ffffffff1660e01b81526004016102949190610770565b6101e060405180830381600087803b1580156102af57600080fd5b505af11580156102c3573d6000803e3d6000fd5b505050506040513d601f19601f820116820180604052508101906102e79190610664565b610100015173ffffffffffffffffffffffffffffffffffffffff168173ffffffffffffffffffffffffffffffffffffffff1614610359576040517f08c379a00000000000000000000000000000000000000000000000000000000081526004016103509061078b565b60405180910390fd5b5080806001019150506101ae565b50505050565b60008135905061037c816108d1565b92915050565b600081519050610391816108d1565b92915050565b60008083601f8401126103a957600080fd5b8235905067ffffffffffffffff8111156103c257600080fd5b6020830191508360208202830111156103da57600080fd5b9250929050565b6000602082840312156103f357600080fd5b6103fd60206107dd565b9050600061040d848285016105a3565b60008301525092915050565b60006101e0828403121561042c57600080fd5b6104376101e06107dd565b90506000610447848285016103e1565b600083015250602061045b84828501610579565b602083015250604061046f84828501610579565b604083015250606061048384828501610579565b606083015250608061049784828501610579565b60808301525060a06104ab84828501610579565b60a08301525060c06104bf848285016105b8565b60c08301525060e06104d38482850161058e565b60e0830152506101006104e884828501610382565b610100830152506101206104fe84828501610382565b6101208301525061014061051484828501610382565b6101408301525061016061052a84828501610382565b6101608301525061018061054084828501610579565b610180830152506101a061055684828501610579565b6101a0830152506101c061056c84828501610579565b6101c08301525092915050565b600081519050610588816108e8565b92915050565b60008151905061059d816108ff565b92915050565b6000815190506105b281610916565b92915050565b6000815190506105c78161092d565b92915050565b6000602082840312156105df57600080fd5b60006105ed8482850161036d565b91505092915050565b60006020828403121561060857600080fd5b600061061684828501610382565b91505092915050565b6000806020838503121561063257600080fd5b600083013567ffffffffffffffff81111561064c57600080fd5b61065885828601610397565b92509250509250929050565b60006101e0828403121561067757600080fd5b600061068584828501610419565b91505092915050565b600061069a83836106a6565b60208301905092915050565b6106af8161085a565b82525050565b6106be8161085a565b82525050565b60006106d08385610821565b93506106db8261080a565b8060005b85811015610714576106f18284610843565b6106fb888261068e565b975061070683610814565b9250506001810190506106df565b5085925050509392505050565b600061072e601f83610832565b91507f5f5f76616c69646174654974656d733a20496e76616c69642061546f6b656e006000830152602082019050919050565b61076a816108b6565b82525050565b600060208201905061078560008301846106b5565b92915050565b600060208201905081810360008301526107a481610721565b9050919050565b60006040820190506107c06000830186610761565b81810360208301526107d38184866106c4565b9050949350505050565b6000604051905081810181811067ffffffffffffffff8211171561080057600080fd5b8060405250919050565b6000819050919050565b6000602082019050919050565b600082825260208201905092915050565b600082825260208201905092915050565b6000610852602084018461036d565b905092915050565b600061086582610896565b9050919050565b60006fffffffffffffffffffffffffffffffff82169050919050565b600061ffff82169050919050565b600073ffffffffffffffffffffffffffffffffffffffff82169050919050565b6000819050919050565b600064ffffffffff82169050919050565b6108da8161085a565b81146108e557600080fd5b50565b6108f18161086c565b81146108fc57600080fd5b50565b61090881610888565b811461091357600080fd5b50565b61091f816108b6565b811461092a57600080fd5b50565b610936816108c0565b811461094157600080fd5b5056fea164736f6c634300060c000a","linkReferences":{}},"methodIdentifiers":{"addValidatedItemsToList(address[])":"a8f0bc41"},"id":71}