{"abi":[{"type":"constructor","inputs":[{"name":"_wethToken","type":"address","internalType":"address"},{"name":"_referrer","type":"address","internalType":"address"}],"stateMutability":"nonpayable"},{"type":"function","name":"WETH_TOKEN","inputs":[],"outputs":[{"name":"","type":"address","internalType":"contract IWETH"}],"stateMutability":"view"},{"type":"function","name":"getDebtAssets","inputs":[],"outputs":[{"name":"assets_","type":"address[]","internalType":"address[]"},{"name":"amounts_","type":"uint256[]","internalType":"uint256[]"}],"stateMutability":"pure"},{"type":"function","name":"getExitRequests","inputs":[],"outputs":[{"name":"exitRequests_","type":"tuple[]","internalType":"struct StakeWiseV3StakingPositionLibBase1.ExitRequest[]","components":[{"name":"stakeWiseVaultAddress","type":"address","internalType":"address"},{"name":"positionTicket","type":"uint256","internalType":"uint256"},{"name":"sharesAmount","type":"uint256","internalType":"uint256"}]}],"stateMutability":"view"},{"type":"function","name":"getManagedAssets","inputs":[],"outputs":[{"name":"assets_","type":"address[]","internalType":"address[]"},{"name":"amounts_","type":"uint256[]","internalType":"uint256[]"}],"stateMutability":"view"},{"type":"function","name":"getStakeWiseVaultTokens","inputs":[],"outputs":[{"name":"stakeWiseVaultTokens_","type":"address[]","internalType":"address[]"}],"stateMutability":"view"},{"type":"function","name":"init","inputs":[{"name":"","type":"bytes","internalType":"bytes"}],"outputs":[],"stateMutability":"nonpayable"},{"type":"function","name":"receiveCallFromVault","inputs":[{"name":"_actionData","type":"bytes","internalType":"bytes"}],"outputs":[],"stateMutability":"nonpayable"},{"type":"event","name":"ExitRequestAdded","inputs":[{"name":"stakeWiseVaultAddress","type":"address","indexed":true,"internalType":"address"},{"name":"positionTicket","type":"uint256","indexed":false,"internalType":"uint256"},{"name":"sharesAmount","type":"uint256","indexed":false,"internalType":"uint256"}],"anonymous":false},{"type":"event","name":"ExitRequestRemoved","inputs":[{"name":"stakeWiseVaultAddress","type":"address","indexed":true,"internalType":"address"},{"name":"positionTicket","type":"uint256","indexed":false,"internalType":"uint256"}],"anonymous":false},{"type":"event","name":"VaultTokenAdded","inputs":[{"name":"stakeWiseVaultAddress","type":"address","indexed":true,"internalType":"address"}],"anonymous":false},{"type":"event","name":"VaultTokenRemoved","inputs":[{"name":"stakeWiseVaultAddress","type":"address","indexed":true,"internalType":"address"}],"anonymous":false}],"bytecode":{"object":"0x60c06040523480156200001157600080fd5b506040516200232c3803806200232c833981810160405281019062000037919062000111565b8173ffffffffffffffffffffffffffffffffffffffff1660808173ffffffffffffffffffffffffffffffffffffffff16815250508073ffffffffffffffffffffffffffffffffffffffff1660a08173ffffffffffffffffffffffffffffffffffffffff1681525050505062000158565b600080fd5b600073ffffffffffffffffffffffffffffffffffffffff82169050919050565b6000620000d982620000ac565b9050919050565b620000eb81620000cc565b8114620000f757600080fd5b50565b6000815190506200010b81620000e0565b92915050565b600080604083850312156200012b576200012a620000a7565b5b60006200013b85828601620000fa565b92505060206200014e85828601620000fa565b9150509250929050565b60805160a0516121a06200018c600039600061087f0152600081816101540152818161030e01526107d601526121a06000f3fe608060405234801561001057600080fd5b506004361061007d5760003560e01c806380daddb81161005b57806380daddb8146100da578063d17de0f5146100f9578063e5c23a9714610117578063ecd658b4146101335761007d565b806337d277d4146100825780634ddf47d4146100a0578063700380ba146100bc575b600080fd5b61008a610152565b60405161009791906115a7565b60405180910390f35b6100ba60048036038101906100b5919061171c565b610176565b005b6100c4610179565b6040516100d19190611890565b60405180910390f35b6100e2610242565b6040516100f0929190611a10565b60405180910390f35b610101610672565b60405161010e9190611a47565b60405180910390f35b610131600480360381019061012c919061171c565b610700565b005b61013b6107be565b604051610149929190611a10565b60405180910390f35b7f000000000000000000000000000000000000000000000000000000000000000081565b50565b60606000805480602002602001604051908101604052809291908181526020016000905b8282101561023957838290600052602060002090600302016040518060600160405290816000820160009054906101000a900473ffffffffffffffffffffffffffffffffffffffff1673ffffffffffffffffffffffffffffffffffffffff1673ffffffffffffffffffffffffffffffffffffffff168152602001600182015481526020016002820154815250508152602001906001019061019d565b50505050905090565b606080600060018054905090506000808054905090506000821480156102685750600081145b1561027457505061066e565b600167ffffffffffffffff81111561028f5761028e6115f1565b5b6040519080825280602002602001820160405280156102bd5781602001602082028036833780820191505090505b509350600167ffffffffffffffff8111156102db576102da6115f1565b5b6040519080825280602002602001820160405280156103095781602001602082028036833780820191505090505b5092507f00000000000000000000000000000000000000000000000000000000000000008460008151811061034157610340611a69565b5b602002602001019073ffffffffffffffffffffffffffffffffffffffff16908173ffffffffffffffffffffffffffffffffffffffff168152505060005b828110156104ff5760006001828154811061039c5761039b611a69565b5b9060005260206000200160009054906101000a900473ffffffffffffffffffffffffffffffffffffffff1690508073ffffffffffffffffffffffffffffffffffffffff166307a2d13a8273ffffffffffffffffffffffffffffffffffffffff166370a08231306040518263ffffffff1660e01b815260040161041e9190611aa7565b602060405180830381865afa15801561043b573d6000803e3d6000fd5b505050506040513d601f19601f8201168201806040525081019061045f9190611aee565b6040518263ffffffff1660e01b815260040161047b9190611b2a565b602060405180830381865afa158015610498573d6000803e3d6000fd5b505050506040513d601f19601f820116820180604052508101906104bc9190611aee565b856000815181106104d0576104cf611a69565b5b602002602001018181516104e49190611b74565b915081815250505080806104f790611ba8565b91505061037e565b5060005b8181101561066a5760008082815481106105205761051f611a69565b5b90600052602060002090600302016040518060600160405290816000820160009054906101000a900473ffffffffffffffffffffffffffffffffffffffff1673ffffffffffffffffffffffffffffffffffffffff1673ffffffffffffffffffffffffffffffffffffffff168152602001600182015481526020016002820154815250509050806000015173ffffffffffffffffffffffffffffffffffffffff166307a2d13a82604001516040518263ffffffff1660e01b81526004016105e69190611b2a565b602060405180830381865afa158015610603573d6000803e3d6000fd5b505050506040513d601f19601f820116820180604052508101906106279190611aee565b8560008151811061063b5761063a611a69565b5b6020026020010181815161064f9190611b74565b9150818152505050808061066290611ba8565b915050610503565b5050505b9091565b606060018054806020026020016040519081016040528092919081815260200182805480156106f657602002820191906000526020600020905b8160009054906101000a900473ffffffffffffffffffffffffffffffffffffffff1673ffffffffffffffffffffffffffffffffffffffff16815260200190600101908083116106ac575b5050505050905090565b600080828060200190518101906107179190611c8a565b915091506000600381111561072f5761072e611ce6565b5b82036107435761073e816107c4565b6107b9565b6001600381111561075757610756611ce6565b5b820361076b57610766816109c3565b6107b8565b6002600381111561077f5761077e611ce6565b5b82036107935761078e81610a60565b6107b7565b6003808111156107a6576107a5611ce6565b5b82036107b6576107b581610c0a565b5b5b5b5b505050565b60608091565b6000806107d08361107e565b915091507f000000000000000000000000000000000000000000000000000000000000000073ffffffffffffffffffffffffffffffffffffffff16632e1a7d4d826040518263ffffffff1660e01b815260040161082d9190611b2a565b600060405180830381600087803b15801561084757600080fd5b505af115801561085b573d6000803e3d6000fd5b505050508173ffffffffffffffffffffffffffffffffffffffff1663f9609f0882307f00000000000000000000000000000000000000000000000000000000000000006040518463ffffffff1660e01b81526004016108bb929190611d15565b60206040518083038185885af11580156108d9573d6000803e3d6000fd5b50505050506040513d601f19601f820116820180604052508101906108fe9190611aee565b5061091382600161109e90919063ffffffff16565b6109be576001829080600181540180825580915050600190039060005260206000200160009091909190916101000a81548173ffffffffffffffffffffffffffffffffffffffff021916908373ffffffffffffffffffffffffffffffffffffffff1602179055508173ffffffffffffffffffffffffffffffffffffffff167f88ef01b059028b2eca86c5b93c590d72cdc40e9f86f5456836dfc9e4b6f647c660405160405180910390a25b505050565b6000806109cf8361114e565b915091508173ffffffffffffffffffffffffffffffffffffffff16637bde82f282336040518363ffffffff1660e01b8152600401610a0e929190611d3e565b6020604051808303816000875af1158015610a2d573d6000803e3d6000fd5b505050506040513d601f19601f82011682018060405250810190610a519190611aee565b50610a5b8261116e565b505050565b600080610a6c8361124b565b9150915060008273ffffffffffffffffffffffffffffffffffffffff16638ceab9aa83306040518363ffffffff1660e01b8152600401610aad929190611d3e565b6020604051808303816000875af1158015610acc573d6000803e3d6000fd5b505050506040513d601f19601f82011682018060405250810190610af09190611aee565b9050600060405180606001604052808573ffffffffffffffffffffffffffffffffffffffff16815260200183815260200184815250908060018154018082558091505060019003906000526020600020906003020160009091909190915060008201518160000160006101000a81548173ffffffffffffffffffffffffffffffffffffffff021916908373ffffffffffffffffffffffffffffffffffffffff160217905550602082015181600101556040820151816002015550508273ffffffffffffffffffffffffffffffffffffffff167f03689b11d43796c174f5e97d38d7bbbfdec8c926a755021c0f6de753d81df1488284604051610bf3929190611d67565b60405180910390a2610c048361116e565b50505050565b600080610c168361126b565b9150915060008273ffffffffffffffffffffffffffffffffffffffff166360d60e6e836040518263ffffffff1660e01b8152600401610c559190611b2a565b602060405180830381865afa158015610c72573d6000803e3d6000fd5b505050506040513d601f19601f82011682018060405250810190610c969190611dc6565b90506000811215610cdc576040517f08c379a0000000000000000000000000000000000000000000000000000000008152600401610cd390611e76565b60405180910390fd5b6000808473ffffffffffffffffffffffffffffffffffffffff16637c4b24ed85856040518363ffffffff1660e01b8152600401610d1a929190611d67565b6060604051808303816000875af1158015610d39573d6000803e3d6000fd5b505050506040513d601f19601f82011682018060405250810190610d5d9190611e96565b509150915060008111610da5576040517f08c379a0000000000000000000000000000000000000000000000000000000008152600401610d9c90611f5b565b60405180910390fd5b60006001600080549050610db99190611f7b565b905060005b81811161106a576000808281548110610dda57610dd9611a69565b5b906000526020600020906003020190508773ffffffffffffffffffffffffffffffffffffffff168160000160009054906101000a900473ffffffffffffffffffffffffffffffffffffffff1673ffffffffffffffffffffffffffffffffffffffff16148015610e4c5750868160010154145b156110565760008514610ed5576000848260020154610e6b9190611f7b565b90508082600201819055508582600101819055508873ffffffffffffffffffffffffffffffffffffffff167f03689b11d43796c174f5e97d38d7bbbfdec8c926a755021c0f6de753d81df1488783604051610ec7929190611d67565b60405180910390a250611002565b828214610f9f5760008381548110610ef057610eef611a69565b5b906000526020600020906003020160008381548110610f1257610f11611a69565b5b90600052602060002090600302016000820160009054906101000a900473ffffffffffffffffffffffffffffffffffffffff168160000160006101000a81548173ffffffffffffffffffffffffffffffffffffffff021916908373ffffffffffffffffffffffffffffffffffffffff16021790555060018201548160010155600282015481600201559050505b6000805480610fb157610fb0611faf565b5b6001900381819060005260206000209060030201600080820160006101000a81549073ffffffffffffffffffffffffffffffffffffffff021916905560018201600090556002820160009055505090555b8773ffffffffffffffffffffffffffffffffffffffff167f3d261e373117a307d2d181b4f314d3766a6faf5993ff506bfbf45c1ca6e4f320886040516110489190611b2a565b60405180910390a25061106a565b50808061106290611ba8565b915050610dbe565b50611075334761128b565b50505050505050565b60008082806020019051810190611095919061201c565b91509150915091565b6000808380549050905060005b81811015611141578481815481106110c6576110c5611a69565b5b9060005260206000200160009054906101000a900473ffffffffffffffffffffffffffffffffffffffff1673ffffffffffffffffffffffffffffffffffffffff168473ffffffffffffffffffffffffffffffffffffffff160361112e57600192505050611148565b808061113990611ba8565b9150506110ab565b5060009150505b92915050565b60008082806020019051810190611165919061201c565b91509150915091565b60008173ffffffffffffffffffffffffffffffffffffffff166370a08231306040518263ffffffff1660e01b81526004016111a99190611aa7565b602060405180830381865afa1580156111c6573d6000803e3d6000fd5b505050506040513d601f19601f820116820180604052508101906111ea9190611aee565b036112485761120381600161137f90919063ffffffff16565b508073ffffffffffffffffffffffffffffffffffffffff167f8f2293508f2042f4fd7587fb58da874871c269886a75fa451596732e4886b59360405160405180910390a25b50565b60008082806020019051810190611262919061201c565b91509150915091565b60008082806020019051810190611282919061201c565b91509150915091565b804710156112ce576040517f08c379a00000000000000000000000000000000000000000000000000000000081526004016112c5906120a8565b60405180910390fd5b60008273ffffffffffffffffffffffffffffffffffffffff16826040516112f4906120f9565b60006040518083038185875af1925050503d8060008114611331576040519150601f19603f3d011682016040523d82523d6000602084013e611336565b606091505b505090508061137a576040517f08c379a000000000000000000000000000000000000000000000000000000000815260040161137190612180565b60405180910390fd5b505050565b6000808380549050905060005b81811015611520578373ffffffffffffffffffffffffffffffffffffffff168582815481106113be576113bd611a69565b5b9060005260206000200160009054906101000a900473ffffffffffffffffffffffffffffffffffffffff1673ffffffffffffffffffffffffffffffffffffffff160361150d576001826114119190611f7b565b8110156114be57846001836114269190611f7b565b8154811061143757611436611a69565b5b9060005260206000200160009054906101000a900473ffffffffffffffffffffffffffffffffffffffff1685828154811061147557611474611a69565b5b9060005260206000200160006101000a81548173ffffffffffffffffffffffffffffffffffffffff021916908373ffffffffffffffffffffffffffffffffffffffff1602179055505b848054806114cf576114ce611faf565b5b6001900381819060005260206000200160006101000a81549073ffffffffffffffffffffffffffffffffffffffff0219169055905560019250611520565b808061151890611ba8565b91505061138c565b505092915050565b600073ffffffffffffffffffffffffffffffffffffffff82169050919050565b6000819050919050565b600061156d61156861156384611528565b611548565b611528565b9050919050565b600061157f82611552565b9050919050565b600061159182611574565b9050919050565b6115a181611586565b82525050565b60006020820190506115bc6000830184611598565b92915050565b6000604051905090565b600080fd5b600080fd5b600080fd5b600080fd5b6000601f19601f8301169050919050565b7f4e487b7100000000000000000000000000000000000000000000000000000000600052604160045260246000fd5b611629826115e0565b810181811067ffffffffffffffff82111715611648576116476115f1565b5b80604052505050565b600061165b6115c2565b90506116678282611620565b919050565b600067ffffffffffffffff821115611687576116866115f1565b5b611690826115e0565b9050602081019050919050565b82818337600083830152505050565b60006116bf6116ba8461166c565b611651565b9050828152602081018484840111156116db576116da6115db565b5b6116e684828561169d565b509392505050565b600082601f830112611703576117026115d6565b5b81356117138482602086016116ac565b91505092915050565b600060208284031215611732576117316115cc565b5b600082013567ffffffffffffffff8111156117505761174f6115d1565b5b61175c848285016116ee565b91505092915050565b600081519050919050565b600082825260208201905092915050565b6000819050602082019050919050565b600061179c82611528565b9050919050565b6117ac81611791565b82525050565b6000819050919050565b6117c5816117b2565b82525050565b6060820160008201516117e160008501826117a3565b5060208201516117f460208501826117bc565b50604082015161180760408501826117bc565b50505050565b600061181983836117cb565b60608301905092915050565b6000602082019050919050565b600061183d82611765565b6118478185611770565b935061185283611781565b8060005b8381101561188357815161186a888261180d565b975061187583611825565b925050600181019050611856565b5085935050505092915050565b600060208201905081810360008301526118aa8184611832565b905092915050565b600081519050919050565b600082825260208201905092915050565b6000819050602082019050919050565b60006118ea83836117a3565b60208301905092915050565b6000602082019050919050565b600061190e826118b2565b61191881856118bd565b9350611923836118ce565b8060005b8381101561195457815161193b88826118de565b9750611946836118f6565b925050600181019050611927565b5085935050505092915050565b600081519050919050565b600082825260208201905092915050565b6000819050602082019050919050565b600061199983836117bc565b60208301905092915050565b6000602082019050919050565b60006119bd82611961565b6119c7818561196c565b93506119d28361197d565b8060005b83811015611a035781516119ea888261198d565b97506119f5836119a5565b9250506001810190506119d6565b5085935050505092915050565b60006040820190508181036000830152611a2a8185611903565b90508181036020830152611a3e81846119b2565b90509392505050565b60006020820190508181036000830152611a618184611903565b905092915050565b7f4e487b7100000000000000000000000000000000000000000000000000000000600052603260045260246000fd5b611aa181611791565b82525050565b6000602082019050611abc6000830184611a98565b92915050565b611acb816117b2565b8114611ad657600080fd5b50565b600081519050611ae881611ac2565b92915050565b600060208284031215611b0457611b036115cc565b5b6000611b1284828501611ad9565b91505092915050565b611b24816117b2565b82525050565b6000602082019050611b3f6000830184611b1b565b92915050565b7f4e487b7100000000000000000000000000000000000000000000000000000000600052601160045260246000fd5b6000611b7f826117b2565b9150611b8a836117b2565b9250828201905080821115611ba257611ba1611b45565b5b92915050565b6000611bb3826117b2565b91507fffffffffffffffffffffffffffffffffffffffffffffffffffffffffffffffff8203611be557611be4611b45565b5b600182019050919050565b60005b83811015611c0e578082015181840152602081019050611bf3565b60008484015250505050565b6000611c2d611c288461166c565b611651565b905082815260208101848484011115611c4957611c486115db565b5b611c54848285611bf0565b509392505050565b600082601f830112611c7157611c706115d6565b5b8151611c81848260208601611c1a565b91505092915050565b60008060408385031215611ca157611ca06115cc565b5b6000611caf85828601611ad9565b925050602083015167ffffffffffffffff811115611cd057611ccf6115d1565b5b611cdc85828601611c5c565b9150509250929050565b7f4e487b7100000000000000000000000000000000000000000000000000000000600052602160045260246000fd5b6000604082019050611d2a6000830185611a98565b611d376020830184611a98565b9392505050565b6000604082019050611d536000830185611b1b565b611d606020830184611a98565b9392505050565b6000604082019050611d7c6000830185611b1b565b611d896020830184611b1b565b9392505050565b6000819050919050565b611da381611d90565b8114611dae57600080fd5b50565b600081519050611dc081611d9a565b92915050565b600060208284031215611ddc57611ddb6115cc565b5b6000611dea84828501611db1565b91505092915050565b600082825260208201905092915050565b7f5f5f636c61696d4578697465644173736574733a20706f736974696f6e54696360008201527f6b6574206973206e6f7420696e20657869742071756575650000000000000000602082015250565b6000611e60603883611df3565b9150611e6b82611e04565b604082019050919050565b60006020820190508181036000830152611e8f81611e53565b9050919050565b600080600060608486031215611eaf57611eae6115cc565b5b6000611ebd86828701611ad9565b9350506020611ece86828701611ad9565b9250506040611edf86828701611ad9565b9150509250925092565b7f5f5f636c61696d4578697465644173736574733a20636c61696d65645368617260008201527f6573206d7573742062652067726561746572207468616e203000000000000000602082015250565b6000611f45603983611df3565b9150611f5082611ee9565b604082019050919050565b60006020820190508181036000830152611f7481611f38565b9050919050565b6000611f86826117b2565b9150611f91836117b2565b9250828203905081811115611fa957611fa8611b45565b5b92915050565b7f4e487b7100000000000000000000000000000000000000000000000000000000600052603160045260246000fd5b6000611fe982611791565b9050919050565b611ff981611fde565b811461200457600080fd5b50565b60008151905061201681611ff0565b92915050565b60008060408385031215612033576120326115cc565b5b600061204185828601612007565b925050602061205285828601611ad9565b9150509250929050565b7f416464726573733a20696e73756666696369656e742062616c616e6365000000600082015250565b6000612092601d83611df3565b915061209d8261205c565b602082019050919050565b600060208201905081810360008301526120c181612085565b9050919050565b600081905092915050565b50565b60006120e36000836120c8565b91506120ee826120d3565b600082019050919050565b6000612104826120d6565b9150819050919050565b7f416464726573733a20756e61626c6520746f2073656e642076616c75652c207260008201527f6563697069656e74206d61792068617665207265766572746564000000000000602082015250565b600061216a603a83611df3565b91506121758261210e565b604082019050919050565b600060208201905081810360008301526121998161215d565b905091905056","linkReferences":{}},"methodIdentifiers":{"WETH_TOKEN()":"37d277d4","getDebtAssets()":"ecd658b4","getExitRequests()":"700380ba","getManagedAssets()":"80daddb8","getStakeWiseVaultTokens()":"d17de0f5","init(bytes)":"4ddf47d4","receiveCallFromVault(bytes)":"e5c23a97"},"id":61}