{"abi":[{"type":"constructor","inputs":[{"name":"_userWithdrawalManagerAddress","type":"address","internalType":"address"},{"name":"_ethxAddress","type":"address","internalType":"address"},{"name":"_wethAddress","type":"address","internalType":"address"}],"stateMutability":"nonpayable"},{"type":"function","name":"ETHX_ADDRESS","inputs":[],"outputs":[{"name":"","type":"address","internalType":"address"}],"stateMutability":"view"},{"type":"function","name":"USER_WITHDRAWAL_MANAGER","inputs":[],"outputs":[{"name":"","type":"address","internalType":"contract IStaderUserWithdrawalManager"}],"stateMutability":"view"},{"type":"function","name":"WETH_ADDRESS","inputs":[],"outputs":[{"name":"","type":"address","internalType":"address"}],"stateMutability":"view"},{"type":"function","name":"getDebtAssets","inputs":[],"outputs":[{"name":"assets_","type":"address[]","internalType":"address[]"},{"name":"amounts_","type":"uint256[]","internalType":"uint256[]"}],"stateMutability":"pure"},{"type":"function","name":"getManagedAssets","inputs":[],"outputs":[{"name":"assets_","type":"address[]","internalType":"address[]"},{"name":"amounts_","type":"uint256[]","internalType":"uint256[]"}],"stateMutability":"view"},{"type":"function","name":"init","inputs":[{"name":"","type":"bytes","internalType":"bytes"}],"outputs":[],"stateMutability":"nonpayable"},{"type":"function","name":"receiveCallFromVault","inputs":[{"name":"_actionData","type":"bytes","internalType":"bytes"}],"outputs":[],"stateMutability":"nonpayable"},{"type":"error","name":"StaderWithdrawalsPositionLib__ReceiveCallFromVault__InvalidActionId","inputs":[]}],"bytecode":{"object":"0x60e06040523480156200001157600080fd5b506040516200108d3803806200108d83398101604081905262000034916200008c565b6001600160a01b0391821660805291811660a0521660c052620000e4565b60006001600160a01b0382165b92915050565b620000708162000052565b81146200007c57600080fd5b50565b80516200005f8162000065565b600080600060608486031215620000a657620000a6600080fd5b6000620000b486866200007f565b9350506020620000c7868287016200007f565b9250506040620000da868287016200007f565b9150509250925092565b60805160a05160c051610f436200014a600039600081816087015261042101526000818160d9015281816101a40152818161021e015281816102e9015281816106b501526107470152600081816101230152818161017701526103e20152610f436000f3fe608060405234801561001057600080fd5b506004361061007d5760003560e01c806380daddb81161005b57806380daddb814610108578063af5665ce1461011e578063e5c23a9714610145578063ecd658b41461015857600080fd5b8063040141e5146100825780634ddf47d4146100bf57806371ced908146100d4575b600080fd5b6100a97f000000000000000000000000000000000000000000000000000000000000000081565b6040516100b6919061087f565b60405180910390f35b6100d26100cd366004610990565b610160565b005b6100fb7f000000000000000000000000000000000000000000000000000000000000000081565b6040516100b691906109ea565b610110610217565b6040516100b6929190610aa5565b6100a97f000000000000000000000000000000000000000000000000000000000000000081565b6100d2610153366004610990565b61045b565b606080610110565b60405163095ea7b360e01b81526001600160a01b037f0000000000000000000000000000000000000000000000000000000000000000169063095ea7b3906101d0907f00000000000000000000000000000000000000000000000000000000000000009060001990600401610aca565b6020604051808303816000875af11580156101ef573d6000803e3d6000fd5b505050506040513d601f19601f820116820180604052508101906102139190610b06565b5050565b60608060007f00000000000000000000000000000000000000000000000000000000000000006001600160a01b0316637a99ab07306040518263ffffffff1660e01b8152600401610268919061087f565b600060405180830381865afa158015610285573d6000803e3d6000fd5b505050506040513d6000823e601f3d908101601f191682016040526102ad9190810190610bdb565b905080516000036102d65750506040805160008082526020820190815281830190925292909150565b60008060005b83518110156103d55760007f00000000000000000000000000000000000000000000000000000000000000006001600160a01b031663911f7acd86848151811061032857610328610c16565b60200260200101516040518263ffffffff1660e01b815260040161034c9190610c2c565b60a060405180830381865afa158015610369573d6000803e3d6000fd5b505050506040513d601f19601f8201168201806040525081019061038d9190610cd4565b6060810151909150156103b05760608101516103a99084610d0b565b92506103c2565b60208101516103bf9085610d0b565b93505b50806103cd81610d1e565b9150506102dc565b50811561041557610406857f00000000000000000000000000000000000000000000000000000000000000006104da565b945061041284836105cc565b93505b801561045457610445857f00000000000000000000000000000000000000000000000000000000000000006104da565b945061045184826105cc565b93505b5050509091565b600080828060200190518101906104729190610db4565b90925090508161049d57610498818060200190518101906104939190610e42565b61069c565b505050565b600182036104c157610498818060200190518101906104bc9190610e42565b61072e565b6040516370d10f7f60e01b815260040160405180910390fd5b6060825160016104ea9190610d0b565b67ffffffffffffffff8111156105025761050261088d565b60405190808252806020026020018201604052801561052b578160200160208202803683370190505b50905060005b83518110156105905783818151811061054c5761054c610c16565b602002602001015182828151811061056657610566610c16565b6001600160a01b03909216602092830291909101909101528061058881610d1e565b915050610531565b5081818451815181106105a5576105a5610c16565b60200260200101906001600160a01b031690816001600160a01b0316815250505b92915050565b6060825160016105dc9190610d0b565b67ffffffffffffffff8111156105f4576105f461088d565b60405190808252806020026020018201604052801561061d578160200160208202803683370190505b50905060005b83518110156106755783818151811061063e5761063e610c16565b602002602001015182828151811061065857610658610c16565b60209081029190910101528061066d81610d1e565b915050610623565b50818184518151811061068a5761068a610c16565b60200260200101818152505092915050565b8051604051631998287760e31b81526001600160a01b037f0000000000000000000000000000000000000000000000000000000000000000169163ccc143b8916106eb91903090600401610e63565b6020604051808303816000875af115801561070a573d6000803e3d6000fd5b505050506040513d601f19601f820116820180604052508101906102139190610e7e565b805160405163379607f560e01b81526001600160a01b037f0000000000000000000000000000000000000000000000000000000000000000169163379607f59161077b9190600401610c2c565b600060405180830381600087803b15801561079557600080fd5b505af11580156107a9573d6000803e3d6000fd5b505050506107b733476107ba565b50565b804710156107e35760405162461bcd60e51b81526004016107da90610e9f565b60405180910390fd5b6000826001600160a01b0316826040516107fc90610eda565b60006040518083038185875af1925050503d8060008114610839576040519150601f19603f3d011682016040523d82523d6000602084013e61083e565b606091505b50509050806104985760405162461bcd60e51b81526004016107da90610ee2565b60006001600160a01b0382166105c6565b6108798161085f565b82525050565b602081016105c68284610870565b634e487b7160e01b600052604160045260246000fd5b601f19601f830116810181811067ffffffffffffffff821117156108c9576108c961088d565b6040525050565b60006108db60405190565b90506108e782826108a3565b919050565b600067ffffffffffffffff8211156109065761090661088d565b601f19601f83011660200192915050565b82818337506000910152565b6000610936610931846108ec565b6108d0565b90508281526020810184848401111561095157610951600080fd5b61095c848285610917565b509392505050565b600082601f83011261097857610978600080fd5b8135610988848260208601610923565b949350505050565b6000602082840312156109a5576109a5600080fd5b813567ffffffffffffffff8111156109bf576109bf600080fd5b61098884828501610964565b60006105c68261085f565b60006105c6826109cb565b610879816109d6565b602081016105c682846109e1565b6000610a048383610870565b505060200190565b6000610a16825190565b80845260209384019383018060005b83811015610a4a578151610a3988826109f8565b975060208301925050600101610a25565b509495945050505050565b80610879565b6000610a048383610a55565b6000610a71825190565b80845260209384019383018060005b83811015610a4a578151610a948882610a5b565b975060208301925050600101610a80565b60408082528101610ab68185610a0c565b905081810360208301526109888184610a67565b60408101610ad88285610870565b610ae56020830184610a55565b9392505050565b8015155b81146107b757600080fd5b80516105c681610aec565b600060208284031215610b1b57610b1b600080fd5b60006109888484610afb565b600067ffffffffffffffff821115610b4157610b4161088d565b5060209081020190565b80610af0565b80516105c681610b4b565b6000610b6a61093184610b27565b83815290506020808201908402830185811115610b8957610b89600080fd5b835b81811015610bad5780610b9e8882610b51565b84525060209283019201610b8b565b5050509392505050565b600082601f830112610bcb57610bcb600080fd5b8151610988848260208601610b5c565b600060208284031215610bf057610bf0600080fd5b815167ffffffffffffffff811115610c0a57610c0a600080fd5b61098884828501610bb7565b634e487b7160e01b600052603260045260246000fd5b602081016105c68284610a55565b610af08161085f565b80516105c681610c3a565b600060a08284031215610c6357610c63600080fd5b610c6d60a06108d0565b90506000610c7b8484610c43565b8252506020610c8c84848301610b51565b6020830152506040610ca084828501610b51565b6040830152506060610cb484828501610b51565b6060830152506080610cc884828501610b51565b60808301525092915050565b600060a08284031215610ce957610ce9600080fd5b60006109888484610c4e565b634e487b7160e01b600052601160045260246000fd5b808201808211156105c6576105c6610cf5565b60006000198203610d3157610d31610cf5565b5060010190565b60005b83811015610d53578181015183820152602001610d3b565b50506000910152565b6000610d6a610931846108ec565b905082815260208101848484011115610d8557610d85600080fd5b61095c848285610d38565b600082601f830112610da457610da4600080fd5b8151610988848260208601610d5c565b60008060408385031215610dca57610dca600080fd5b6000610dd68585610b51565b925050602083015167ffffffffffffffff811115610df657610df6600080fd5b610e0285828601610d90565b9150509250929050565b600060208284031215610e2157610e21600080fd5b610e2b60206108d0565b90506000610e398484610b51565b82525092915050565b600060208284031215610e5757610e57600080fd5b60006109888484610e0c565b60408101610e718285610a55565b610ae56020830184610870565b600060208284031215610e9357610e93600080fd5b60006109888484610b51565b602080825281016105c681601d81527f416464726573733a20696e73756666696369656e742062616c616e6365000000602082015260400190565b6000816105c6565b602080825281016105c681603a81527f416464726573733a20756e61626c6520746f2073656e642076616c75652c207260208201527f6563697069656e74206d6179206861766520726576657274656400000000000060408201526060019056","linkReferences":{}},"methodIdentifiers":{"ETHX_ADDRESS()":"af5665ce","USER_WITHDRAWAL_MANAGER()":"71ced908","WETH_ADDRESS()":"040141e5","getDebtAssets()":"ecd658b4","getManagedAssets()":"80daddb8","init(bytes)":"4ddf47d4","receiveCallFromVault(bytes)":"e5c23a97"},"id":146}