{"abi":[{"type":"constructor","inputs":[{"name":"_fundValueCalculatorRouter","type":"address","internalType":"contract IFundValueCalculatorRouter"},{"name":"_externalPositionFactory","type":"address","internalType":"contract IExternalPositionFactory"},{"name":"_policyManager","type":"address","internalType":"contract IPolicyManagerExtended"},{"name":"_feeManager","type":"address","internalType":"contract IFeeManagerExtended"}],"stateMutability":"nonpayable"},{"type":"function","name":"getVaultActiveExternalPositionsDetails","inputs":[{"name":"_vaultProxy","type":"address","internalType":"address"}],"outputs":[{"name":"","type":"bytes","internalType":"bytes"}],"stateMutability":"nonpayable"},{"type":"function","name":"getVaultActiveExternalPositionsDetailsDecoded","inputs":[{"name":"_vaultProxy","type":"address","internalType":"address"}],"outputs":[{"name":"","type":"tuple[]","internalType":"struct HelperDataReader.ExternalPositionDetails[]","components":[{"name":"label","type":"string","internalType":"string"},{"name":"id","type":"address","internalType":"address"},{"name":"typeId","type":"uint256","internalType":"uint256"},{"name":"debtAssetsAmounts","type":"tuple[]","internalType":"struct HelperDataReader.AssetAmount[]","components":[{"name":"asset","type":"address","internalType":"address"},{"name":"amount","type":"uint256","internalType":"uint256"}]},{"name":"managedAssetsAmounts","type":"tuple[]","internalType":"struct HelperDataReader.AssetAmount[]","components":[{"name":"asset","type":"address","internalType":"address"},{"name":"amount","type":"uint256","internalType":"uint256"}]}]}],"stateMutability":"nonpayable"},{"type":"function","name":"getVaultDetails","inputs":[{"name":"_vaultProxy","type":"address","internalType":"address"}],"outputs":[{"name":"","type":"bytes","internalType":"bytes"}],"stateMutability":"nonpayable"},{"type":"function","name":"getVaultDetailsDecoded","inputs":[{"name":"_vaultProxy","type":"address","internalType":"address"}],"outputs":[{"name":"","type":"tuple","internalType":"struct HelperDataReader.VaultDetails","components":[{"name":"name","type":"string","internalType":"string"},{"name":"symbol","type":"string","internalType":"string"},{"name":"totalSupply","type":"uint256","internalType":"uint256"},{"name":"denominationAsset","type":"address","internalType":"address"},{"name":"netShareValue","type":"uint256","internalType":"uint256"},{"name":"grossAssetValue","type":"uint256","internalType":"uint256"},{"name":"owner","type":"address","internalType":"address"},{"name":"hasInvalidAum","type":"bool","internalType":"bool"}]}],"stateMutability":"nonpayable"},{"type":"function","name":"getVaultDetailsExtended","inputs":[{"name":"_vaultProxy","type":"address","internalType":"address"}],"outputs":[{"name":"","type":"bytes","internalType":"bytes"}],"stateMutability":"nonpayable"},{"type":"function","name":"getVaultDetailsExtendedDecoded","inputs":[{"name":"_vaultProxy","type":"address","internalType":"address"}],"outputs":[{"name":"","type":"tuple","internalType":"struct HelperDataReader.VaultDetailsExtended","components":[{"name":"name","type":"string","internalType":"string"},{"name":"symbol","type":"string","internalType":"string"},{"name":"totalSupply","type":"uint256","internalType":"uint256"},{"name":"denominationAsset","type":"address","internalType":"address"},{"name":"netShareValue","type":"uint256","internalType":"uint256"},{"name":"grossAssetValue","type":"uint256","internalType":"uint256"},{"name":"owner","type":"address","internalType":"address"},{"name":"hasInvalidAum","type":"bool","internalType":"bool"},{"name":"trackedAssetsAmounts","type":"tuple[]","internalType":"struct HelperDataReader.AssetAmount[]","components":[{"name":"asset","type":"address","internalType":"address"},{"name":"amount","type":"uint256","internalType":"uint256"}]},{"name":"activeExternalPositionsDetails","type":"tuple[]","internalType":"struct HelperDataReader.ExternalPositionDetails[]","components":[{"name":"label","type":"string","internalType":"string"},{"name":"id","type":"address","internalType":"address"},{"name":"typeId","type":"uint256","internalType":"uint256"},{"name":"debtAssetsAmounts","type":"tuple[]","internalType":"struct HelperDataReader.AssetAmount[]","components":[{"name":"asset","type":"address","internalType":"address"},{"name":"amount","type":"uint256","internalType":"uint256"}]},{"name":"managedAssetsAmounts","type":"tuple[]","internalType":"struct HelperDataReader.AssetAmount[]","components":[{"name":"asset","type":"address","internalType":"address"},{"name":"amount","type":"uint256","internalType":"uint256"}]}]},{"name":"policiesDetails","type":"tuple[]","internalType":"struct HelperDataReader.PolicyDetails[]","components":[{"name":"identifier","type":"string","internalType":"string"},{"name":"id","type":"address","internalType":"address"}]},{"name":"feesDetails","type":"tuple[]","internalType":"struct HelperDataReader.FeeDetails[]","components":[{"name":"recipientForFund","type":"address","internalType":"address"},{"name":"id","type":"address","internalType":"address"}]}]}],"stateMutability":"nonpayable"},{"type":"function","name":"getVaultFeesDetails","inputs":[{"name":"_vaultProxy","type":"address","internalType":"address"}],"outputs":[{"name":"","type":"bytes","internalType":"bytes"}],"stateMutability":"view"},{"type":"function","name":"getVaultFeesDetailsDecoded","inputs":[{"name":"_vaultProxy","type":"address","internalType":"address"}],"outputs":[{"name":"","type":"tuple[]","internalType":"struct HelperDataReader.FeeDetails[]","components":[{"name":"recipientForFund","type":"address","internalType":"address"},{"name":"id","type":"address","internalType":"address"}]}],"stateMutability":"view"},{"type":"function","name":"getVaultPoliciesDetails","inputs":[{"name":"_vaultProxy","type":"address","internalType":"address"}],"outputs":[{"name":"","type":"bytes","internalType":"bytes"}],"stateMutability":"view"},{"type":"function","name":"getVaultPoliciesDetailsDecoded","inputs":[{"name":"_vaultProxy","type":"address","internalType":"address"}],"outputs":[{"name":"","type":"tuple[]","internalType":"struct HelperDataReader.PolicyDetails[]","components":[{"name":"identifier","type":"string","internalType":"string"},{"name":"id","type":"address","internalType":"address"}]}],"stateMutability":"view"},{"type":"function","name":"getVaultTrackedAssetsAmounts","inputs":[{"name":"_vaultProxy","type":"address","internalType":"address"}],"outputs":[{"name":"","type":"bytes","internalType":"bytes"}],"stateMutability":"view"},{"type":"function","name":"getVaultTrackedAssetsAmountsDecoded","inputs":[{"name":"_vaultProxy","type":"address","internalType":"address"}],"outputs":[{"name":"","type":"tuple[]","internalType":"struct HelperDataReader.AssetAmount[]","components":[{"name":"asset","type":"address","internalType":"address"},{"name":"amount","type":"uint256","internalType":"uint256"}]}],"stateMutability":"view"}],"bytecode":{"object":"0x6101006040523480156200001257600080fd5b5060405162002b7e38038062002b7e83398181016040528101906200003891906200025f565b8373ffffffffffffffffffffffffffffffffffffffff1660808173ffffffffffffffffffffffffffffffffffffffff16815250508273ffffffffffffffffffffffffffffffffffffffff1660a08173ffffffffffffffffffffffffffffffffffffffff16815250508173ffffffffffffffffffffffffffffffffffffffff1660c08173ffffffffffffffffffffffffffffffffffffffff16815250508073ffffffffffffffffffffffffffffffffffffffff1660e08173ffffffffffffffffffffffffffffffffffffffff168152505050505050620002d1565b600080fd5b600073ffffffffffffffffffffffffffffffffffffffff82169050919050565b6000620001448262000117565b9050919050565b6000620001588262000137565b9050919050565b6200016a816200014b565b81146200017657600080fd5b50565b6000815190506200018a816200015f565b92915050565b60006200019d8262000137565b9050919050565b620001af8162000190565b8114620001bb57600080fd5b50565b600081519050620001cf81620001a4565b92915050565b6000620001e28262000137565b9050919050565b620001f481620001d5565b81146200020057600080fd5b50565b6000815190506200021481620001e9565b92915050565b6000620002278262000137565b9050919050565b62000239816200021a565b81146200024557600080fd5b50565b60008151905062000259816200022e565b92915050565b600080600080608085870312156200027c576200027b62000112565b5b60006200028c8782880162000179565b94505060206200029f87828801620001be565b9350506040620002b28782880162000203565b9250506060620002c58782880162000248565b91505092959194509250565b60805160a05160c05160e05161286c620003126000396000610c4e015260006109d0015260006111d70152600081816106210152610733015261286c6000f3fe608060405234801561001057600080fd5b50600436106100b45760003560e01c806383677c1e1161007157806383677c1e146101d9578063a562c03014610209578063aae1bd7a14610239578063c57e1be714610269578063ee5ad2e414610299578063fe3ba3ae146102c9576100b4565b80630241b4cf146100b957806315878250146100e95780634b19e5221461011957806365c1afb01461014957806367a44ca3146101795780637932436a146101a9575b600080fd5b6100d360048036038101906100ce91906118d0565b6102f9565b6040516100e0919061198d565b60405180910390f35b61010360048036038101906100fe91906118d0565b61032a565b604051610110919061198d565b60405180910390f35b610133600480360381019061012e91906118d0565b61035b565b6040516101409190611afe565b60405180910390f35b610163600480360381019061015e91906118d0565b610849565b6040516101709190612048565b60405180910390f35b610193600480360381019061018e91906118d0565b610926565b6040516101a0919061198d565b60405180910390f35b6101c360048036038101906101be91906118d0565b610957565b6040516101d091906120f0565b60405180910390f35b6101f360048036038101906101ee91906118d0565b610bd5565b6040516102009190612181565b60405180910390f35b610223600480360381019061021e91906118d0565b610e6f565b6040516102309190612212565b60405180910390f35b610253600480360381019061024e91906118d0565b611062565b60405161026091906122ba565b60405180910390f35b610283600480360381019061027e91906118d0565b6115de565b604051610290919061198d565b60405180910390f35b6102b360048036038101906102ae91906118d0565b61160f565b6040516102c0919061198d565b60405180910390f35b6102e360048036038101906102de91906118d0565b611640565b6040516102f0919061198d565b60405180910390f35b606061030482610957565b60405160200161031491906120f0565b6040516020818303038152906040529050919050565b606061033582611062565b60405160200161034591906122ba565b6040516020818303038152906040529050919050565b610363611671565b60008273ffffffffffffffffffffffffffffffffffffffff166306fdde036040518163ffffffff1660e01b8152600401600060405180830381865afa1580156103b0573d6000803e3d6000fd5b505050506040513d6000823e3d601f19601f820116820180604052508101906103d99190612402565b905060008373ffffffffffffffffffffffffffffffffffffffff166395d89b416040518163ffffffff1660e01b8152600401600060405180830381865afa158015610428573d6000803e3d6000fd5b505050506040513d6000823e3d601f19601f820116820180604052508101906104519190612402565b905060008473ffffffffffffffffffffffffffffffffffffffff166318160ddd6040518163ffffffff1660e01b8152600401602060405180830381865afa1580156104a0573d6000803e3d6000fd5b505050506040513d601f19601f820116820180604052508101906104c49190612477565b905060008573ffffffffffffffffffffffffffffffffffffffff16635a53e3486040518163ffffffff1660e01b8152600401602060405180830381865afa158015610513573d6000803e3d6000fd5b505050506040513d601f19601f8201168201806040525081019061053791906124b9565b905060008673ffffffffffffffffffffffffffffffffffffffff1663893d20e86040518163ffffffff1660e01b8152600401602060405180830381865afa158015610586573d6000803e3d6000fd5b505050506040513d601f19601f820116820180604052508101906105aa91906124b9565b905060008273ffffffffffffffffffffffffffffffffffffffff1663e269c3d66040518163ffffffff1660e01b8152600401602060405180830381865afa1580156105f9573d6000803e3d6000fd5b505050506040513d601f19601f8201168201806040525081019061061d91906124b9565b90507f000000000000000000000000000000000000000000000000000000000000000073ffffffffffffffffffffffffffffffffffffffff16633ba6b851896040518263ffffffff1660e01b815260040161067891906124f5565b60408051808303816000875af19250505080156106b357506040513d601f19601f820116820180604052508101906106b09190612510565b60015b61072f576040518061010001604052808781526020018681526020018581526020018273ffffffffffffffffffffffffffffffffffffffff16815260200160008152602001600081526020018373ffffffffffffffffffffffffffffffffffffffff168152602001600115158152509650505050505050610844565b60007f000000000000000000000000000000000000000000000000000000000000000073ffffffffffffffffffffffffffffffffffffffff1663037276c18c6040518263ffffffff1660e01b815260040161078a91906124f5565b60408051808303816000875af11580156107a8573d6000803e3d6000fd5b505050506040513d601f19601f820116820180604052508101906107cc9190612510565b9150506040518061010001604052808a81526020018981526020018881526020018573ffffffffffffffffffffffffffffffffffffffff1681526020018381526020018281526020018673ffffffffffffffffffffffffffffffffffffffff1681526020016000151581525099505050505050505050505b919050565b6108516116e4565b600061085c8361035b565b9050604051806101800160405280826000015181526020018260200151815260200182604001518152602001826060015173ffffffffffffffffffffffffffffffffffffffff168152602001826080015181526020018260a0015181526020018260c0015173ffffffffffffffffffffffffffffffffffffffff1681526020018260e00151151581526020016108f185610e6f565b81526020016108ff85611062565b815260200161090d85610957565b815260200161091b85610bd5565b815250915050919050565b60606109318261035b565b6040516020016109419190611afe565b6040516020818303038152906040529050919050565b606060008273ffffffffffffffffffffffffffffffffffffffff16635a53e3486040518163ffffffff1660e01b8152600401602060405180830381865afa1580156109a6573d6000803e3d6000fd5b505050506040513d601f19601f820116820180604052508101906109ca91906124b9565b905060007f000000000000000000000000000000000000000000000000000000000000000073ffffffffffffffffffffffffffffffffffffffff16638af6d89e836040518263ffffffff1660e01b8152600401610a2791906124f5565b600060405180830381865afa158015610a44573d6000803e3d6000fd5b505050506040513d6000823e3d601f19601f82011682018060405250810190610a6d9190612618565b90506000815167ffffffffffffffff811115610a8c57610a8b6122e6565b5b604051908082528060200260200182016040528015610ac557816020015b610ab2611773565b815260200190600190039081610aaa5790505b50905060005b8251811015610bc9576000838281518110610ae957610ae8612661565b5b6020026020010151905060008173ffffffffffffffffffffffffffffffffffffffff16637998a1c46040518163ffffffff1660e01b8152600401600060405180830381865afa158015610b40573d6000803e3d6000fd5b505050506040513d6000823e3d601f19601f82011682018060405250810190610b699190612402565b905060405180604001604052808281526020018373ffffffffffffffffffffffffffffffffffffffff16815250848481518110610ba957610ba8612661565b5b602002602001018190525050508080610bc1906126bf565b915050610acb565b50809350505050919050565b606060008273ffffffffffffffffffffffffffffffffffffffff16635a53e3486040518163ffffffff1660e01b8152600401602060405180830381865afa158015610c24573d6000803e3d6000fd5b505050506040513d601f19601f82011682018060405250810190610c4891906124b9565b905060007f000000000000000000000000000000000000000000000000000000000000000073ffffffffffffffffffffffffffffffffffffffff1663a9f3b42f836040518263ffffffff1660e01b8152600401610ca591906124f5565b600060405180830381865afa158015610cc2573d6000803e3d6000fd5b505050506040513d6000823e3d601f19601f82011682018060405250810190610ceb9190612618565b90506000815167ffffffffffffffff811115610d0a57610d096122e6565b5b604051908082528060200260200182016040528015610d4357816020015b610d306117a3565b815260200190600190039081610d285790505b50905060005b8251811015610e63576000838281518110610d6757610d66612661565b5b6020026020010151905060008173ffffffffffffffffffffffffffffffffffffffff166362780b3c876040518263ffffffff1660e01b8152600401610dac91906124f5565b602060405180830381865afa158015610dc9573d6000803e3d6000fd5b505050506040513d601f19601f82011682018060405250810190610ded91906124b9565b905060405180604001604052808273ffffffffffffffffffffffffffffffffffffffff1681526020018373ffffffffffffffffffffffffffffffffffffffff16815250848481518110610e4357610e42612661565b5b602002602001018190525050508080610e5b906126bf565b915050610d49565b50809350505050919050565b606060008273ffffffffffffffffffffffffffffffffffffffff1663c4b973706040518163ffffffff1660e01b8152600401600060405180830381865afa158015610ebe573d6000803e3d6000fd5b505050506040513d6000823e3d601f19601f82011682018060405250810190610ee79190612618565b90506000815167ffffffffffffffff811115610f0657610f056122e6565b5b604051908082528060200260200182016040528015610f3f57816020015b610f2c6117e9565b815260200190600190039081610f245790505b50905060005b8251811015611057576040518060400160405280848381518110610f6c57610f6b612661565b5b602002602001015173ffffffffffffffffffffffffffffffffffffffff168152602001848381518110610fa257610fa1612661565b5b602002602001015173ffffffffffffffffffffffffffffffffffffffff166370a08231886040518263ffffffff1660e01b8152600401610fe291906124f5565b602060405180830381865afa158015610fff573d6000803e3d6000fd5b505050506040513d601f19601f820116820180604052508101906110239190612477565b81525082828151811061103957611038612661565b5b6020026020010181905250808061104f906126bf565b915050610f45565b508092505050919050565b606060008273ffffffffffffffffffffffffffffffffffffffff1663b8b7f1476040518163ffffffff1660e01b8152600401600060405180830381865afa1580156110b1573d6000803e3d6000fd5b505050506040513d6000823e3d601f19601f820116820180604052508101906110da9190612618565b90506000815167ffffffffffffffff8111156110f9576110f86122e6565b5b60405190808252806020026020018201604052801561113257816020015b61111f611819565b8152602001906001900390816111175790505b50905060005b82518110156115d357600083828151811061115657611155612661565b5b6020026020010151905060008173ffffffffffffffffffffffffffffffffffffffff166312bc0a446040518163ffffffff1660e01b8152600401602060405180830381865afa1580156111ad573d6000803e3d6000fd5b505050506040513d601f19601f820116820180604052508101906111d19190612477565b905060007f000000000000000000000000000000000000000000000000000000000000000073ffffffffffffffffffffffffffffffffffffffff16639b6832a5836040518263ffffffff1660e01b815260040161122e9190612716565b600060405180830381865afa15801561124b573d6000803e3d6000fd5b505050506040513d6000823e3d601f19601f820116820180604052508101906112749190612402565b90506000808473ffffffffffffffffffffffffffffffffffffffff1663ecd658b46040518163ffffffff1660e01b81526004016000604051808303816000875af11580156112c6573d6000803e3d6000fd5b505050506040513d6000823e3d601f19601f820116820180604052508101906112ef91906127f4565b915091506000808673ffffffffffffffffffffffffffffffffffffffff166380daddb86040518163ffffffff1660e01b81526004016000604051808303816000875af1158015611343573d6000803e3d6000fd5b505050506040513d6000823e3d601f19601f8201168201806040525081019061136c91906127f4565b915091506000845167ffffffffffffffff81111561138d5761138c6122e6565b5b6040519080825280602002602001820160405280156113c657816020015b6113b36117e9565b8152602001906001900390816113ab5790505b50905060005b85518110156114655760405180604001604052808783815181106113f3576113f2612661565b5b602002602001015173ffffffffffffffffffffffffffffffffffffffff16815260200186838151811061142957611428612661565b5b602002602001015181525082828151811061144757611446612661565b5b6020026020010181905250808061145d906126bf565b9150506113cc565b506000835167ffffffffffffffff811115611483576114826122e6565b5b6040519080825280602002602001820160405280156114bc57816020015b6114a96117e9565b8152602001906001900390816114a15790505b50905060005b845181101561155b5760405180604001604052808683815181106114e9576114e8612661565b5b602002602001015173ffffffffffffffffffffffffffffffffffffffff16815260200185838151811061151f5761151e612661565b5b602002602001015181525082828151811061153d5761153c612661565b5b60200260200101819052508080611553906126bf565b9150506114c2565b506040518060a001604052808881526020018a73ffffffffffffffffffffffffffffffffffffffff168152602001898152602001838152602001828152508b8b815181106115ac576115ab612661565b5b602002602001018190525050505050505050505080806115cb906126bf565b915050611138565b508092505050919050565b60606115e982610e6f565b6040516020016115f99190612212565b6040516020818303038152906040529050919050565b606061161a82610849565b60405160200161162a9190612048565b6040516020818303038152906040529050919050565b606061164b82610bd5565b60405160200161165b9190612181565b6040516020818303038152906040529050919050565b604051806101000160405280606081526020016060815260200160008152602001600073ffffffffffffffffffffffffffffffffffffffff1681526020016000815260200160008152602001600073ffffffffffffffffffffffffffffffffffffffff1681526020016000151581525090565b604051806101800160405280606081526020016060815260200160008152602001600073ffffffffffffffffffffffffffffffffffffffff1681526020016000815260200160008152602001600073ffffffffffffffffffffffffffffffffffffffff168152602001600015158152602001606081526020016060815260200160608152602001606081525090565b604051806040016040528060608152602001600073ffffffffffffffffffffffffffffffffffffffff1681525090565b6040518060400160405280600073ffffffffffffffffffffffffffffffffffffffff168152602001600073ffffffffffffffffffffffffffffffffffffffff1681525090565b6040518060400160405280600073ffffffffffffffffffffffffffffffffffffffff168152602001600081525090565b6040518060a0016040528060608152602001600073ffffffffffffffffffffffffffffffffffffffff1681526020016000815260200160608152602001606081525090565b6000604051905090565b600080fd5b600080fd5b600073ffffffffffffffffffffffffffffffffffffffff82169050919050565b600061189d82611872565b9050919050565b6118ad81611892565b81146118b857600080fd5b50565b6000813590506118ca816118a4565b92915050565b6000602082840312156118e6576118e5611868565b5b60006118f4848285016118bb565b91505092915050565b600081519050919050565b600082825260208201905092915050565b60005b8381101561193757808201518184015260208101905061191c565b60008484015250505050565b6000601f19601f8301169050919050565b600061195f826118fd565b6119698185611908565b9350611979818560208601611919565b61198281611943565b840191505092915050565b600060208201905081810360008301526119a78184611954565b905092915050565b600081519050919050565b600082825260208201905092915050565b60006119d6826119af565b6119e081856119ba565b93506119f0818560208601611919565b6119f981611943565b840191505092915050565b6000819050919050565b611a1781611a04565b82525050565b611a2681611892565b82525050565b60008115159050919050565b611a4181611a2c565b82525050565b6000610100830160008301518482036000860152611a6582826119cb565b91505060208301518482036020860152611a7f82826119cb565b9150506040830151611a946040860182611a0e565b506060830151611aa76060860182611a1d565b506080830151611aba6080860182611a0e565b5060a0830151611acd60a0860182611a0e565b5060c0830151611ae060c0860182611a1d565b5060e0830151611af360e0860182611a38565b508091505092915050565b60006020820190508181036000830152611b188184611a47565b905092915050565b600081519050919050565b600082825260208201905092915050565b6000819050602082019050919050565b604082016000820151611b626000850182611a1d565b506020820151611b756020850182611a0e565b50505050565b6000611b878383611b4c565b60408301905092915050565b6000602082019050919050565b6000611bab82611b20565b611bb58185611b2b565b9350611bc083611b3c565b8060005b83811015611bf1578151611bd88882611b7b565b9750611be383611b93565b925050600181019050611bc4565b5085935050505092915050565b600081519050919050565b600082825260208201905092915050565b6000819050602082019050919050565b600060a0830160008301518482036000860152611c4782826119cb565b9150506020830151611c5c6020860182611a1d565b506040830151611c6f6040860182611a0e565b5060608301518482036060860152611c878282611ba0565b91505060808301518482036080860152611ca18282611ba0565b9150508091505092915050565b6000611cba8383611c2a565b905092915050565b6000602082019050919050565b6000611cda82611bfe565b611ce48185611c09565b935083602082028501611cf685611c1a565b8060005b85811015611d325784840389528151611d138582611cae565b9450611d1e83611cc2565b925060208a01995050600181019050611cfa565b50829750879550505050505092915050565b600081519050919050565b600082825260208201905092915050565b6000819050602082019050919050565b60006040830160008301518482036000860152611d8d82826119cb565b9150506020830151611da26020860182611a1d565b508091505092915050565b6000611db98383611d70565b905092915050565b6000602082019050919050565b6000611dd982611d44565b611de38185611d4f565b935083602082028501611df585611d60565b8060005b85811015611e315784840389528151611e128582611dad565b9450611e1d83611dc1565b925060208a01995050600181019050611df9565b50829750879550505050505092915050565b600081519050919050565b600082825260208201905092915050565b6000819050602082019050919050565b604082016000820151611e856000850182611a1d565b506020820151611e986020850182611a1d565b50505050565b6000611eaa8383611e6f565b60408301905092915050565b6000602082019050919050565b6000611ece82611e43565b611ed88185611e4e565b9350611ee383611e5f565b8060005b83811015611f14578151611efb8882611e9e565b9750611f0683611eb6565b925050600181019050611ee7565b5085935050505092915050565b6000610180830160008301518482036000860152611f3f82826119cb565b91505060208301518482036020860152611f5982826119cb565b9150506040830151611f6e6040860182611a0e565b506060830151611f816060860182611a1d565b506080830151611f946080860182611a0e565b5060a0830151611fa760a0860182611a0e565b5060c0830151611fba60c0860182611a1d565b5060e0830151611fcd60e0860182611a38565b50610100830151848203610100860152611fe78282611ba0565b9150506101208301518482036101208601526120038282611ccf565b91505061014083015184820361014086015261201f8282611dce565b91505061016083015184820361016086015261203b8282611ec3565b9150508091505092915050565b600060208201905081810360008301526120628184611f21565b905092915050565b600082825260208201905092915050565b600061208682611d44565b612090818561206a565b9350836020820285016120a285611d60565b8060005b858110156120de57848403895281516120bf8582611dad565b94506120ca83611dc1565b925060208a019950506001810190506120a6565b50829750879550505050505092915050565b6000602082019050818103600083015261210a818461207b565b905092915050565b600082825260208201905092915050565b600061212e82611e43565b6121388185612112565b935061214383611e5f565b8060005b8381101561217457815161215b8882611e9e565b975061216683611eb6565b925050600181019050612147565b5085935050505092915050565b6000602082019050818103600083015261219b8184612123565b905092915050565b600082825260208201905092915050565b60006121bf82611b20565b6121c981856121a3565b93506121d483611b3c565b8060005b838110156122055781516121ec8882611b7b565b97506121f783611b93565b9250506001810190506121d8565b5085935050505092915050565b6000602082019050818103600083015261222c81846121b4565b905092915050565b600082825260208201905092915050565b600061225082611bfe565b61225a8185612234565b93508360208202850161226c85611c1a565b8060005b858110156122a857848403895281516122898582611cae565b945061229483611cc2565b925060208a01995050600181019050612270565b50829750879550505050505092915050565b600060208201905081810360008301526122d48184612245565b905092915050565b600080fd5b600080fd5b7f4e487b7100000000000000000000000000000000000000000000000000000000600052604160045260246000fd5b61231e82611943565b810181811067ffffffffffffffff8211171561233d5761233c6122e6565b5b80604052505050565b600061235061185e565b905061235c8282612315565b919050565b600067ffffffffffffffff82111561237c5761237b6122e6565b5b61238582611943565b9050602081019050919050565b60006123a56123a084612361565b612346565b9050828152602081018484840111156123c1576123c06122e1565b5b6123cc848285611919565b509392505050565b600082601f8301126123e9576123e86122dc565b5b81516123f9848260208601612392565b91505092915050565b60006020828403121561241857612417611868565b5b600082015167ffffffffffffffff8111156124365761243561186d565b5b612442848285016123d4565b91505092915050565b61245481611a04565b811461245f57600080fd5b50565b6000815190506124718161244b565b92915050565b60006020828403121561248d5761248c611868565b5b600061249b84828501612462565b91505092915050565b6000815190506124b3816118a4565b92915050565b6000602082840312156124cf576124ce611868565b5b60006124dd848285016124a4565b91505092915050565b6124ef81611892565b82525050565b600060208201905061250a60008301846124e6565b92915050565b6000806040838503121561252757612526611868565b5b6000612535858286016124a4565b925050602061254685828601612462565b9150509250929050565b600067ffffffffffffffff82111561256b5761256a6122e6565b5b602082029050602081019050919050565b600080fd5b600061259461258f84612550565b612346565b905080838252602082019050602084028301858111156125b7576125b661257c565b5b835b818110156125e057806125cc88826124a4565b8452602084019350506020810190506125b9565b5050509392505050565b600082601f8301126125ff576125fe6122dc565b5b815161260f848260208601612581565b91505092915050565b60006020828403121561262e5761262d611868565b5b600082015167ffffffffffffffff81111561264c5761264b61186d565b5b612658848285016125ea565b91505092915050565b7f4e487b7100000000000000000000000000000000000000000000000000000000600052603260045260246000fd5b7f4e487b7100000000000000000000000000000000000000000000000000000000600052601160045260246000fd5b60006126ca82611a04565b91507fffffffffffffffffffffffffffffffffffffffffffffffffffffffffffffffff82036126fc576126fb612690565b5b600182019050919050565b61271081611a04565b82525050565b600060208201905061272b6000830184612707565b92915050565b600067ffffffffffffffff82111561274c5761274b6122e6565b5b602082029050602081019050919050565b600061277061276b84612731565b612346565b905080838252602082019050602084028301858111156127935761279261257c565b5b835b818110156127bc57806127a88882612462565b845260208401935050602081019050612795565b5050509392505050565b600082601f8301126127db576127da6122dc565b5b81516127eb84826020860161275d565b91505092915050565b6000806040838503121561280b5761280a611868565b5b600083015167ffffffffffffffff8111156128295761282861186d565b5b612835858286016125ea565b925050602083015167ffffffffffffffff8111156128565761285561186d565b5b612862858286016127c6565b915050925092905056","linkReferences":{}},"methodIdentifiers":{"getVaultActiveExternalPositionsDetails(address)":"15878250","getVaultActiveExternalPositionsDetailsDecoded(address)":"aae1bd7a","getVaultDetails(address)":"67a44ca3","getVaultDetailsDecoded(address)":"4b19e522","getVaultDetailsExtended(address)":"ee5ad2e4","getVaultDetailsExtendedDecoded(address)":"65c1afb0","getVaultFeesDetails(address)":"fe3ba3ae","getVaultFeesDetailsDecoded(address)":"83677c1e","getVaultPoliciesDetails(address)":"0241b4cf","getVaultPoliciesDetailsDecoded(address)":"7932436a","getVaultTrackedAssetsAmounts(address)":"c57e1be7","getVaultTrackedAssetsAmountsDecoded(address)":"a562c030"},"id":83}