{"abi":[{"type":"constructor","inputs":[{"name":"_morphoBlueAddress","type":"address","internalType":"address"}],"stateMutability":"nonpayable"},{"type":"function","name":"MORPHO","inputs":[],"outputs":[{"name":"","type":"address","internalType":"contract IMorphoBlue"}],"stateMutability":"view"},{"type":"function","name":"flashLoan","inputs":[{"name":"_assetAddress","type":"address","internalType":"address"},{"name":"_amount","type":"uint256","internalType":"uint256"},{"name":"_calls","type":"tuple[]","internalType":"struct IMorphoBlueFlashLoanAssetManager.Call[]","components":[{"name":"target","type":"address","internalType":"address"},{"name":"data","type":"bytes","internalType":"bytes"}]}],"outputs":[],"stateMutability":"nonpayable"},{"type":"function","name":"getBorrowedAssetsRecipient","inputs":[],"outputs":[{"name":"borrowedAssetsRecipient_","type":"address","internalType":"address"}],"stateMutability":"view"},{"type":"function","name":"getOwner","inputs":[],"outputs":[{"name":"owner_","type":"address","internalType":"address"}],"stateMutability":"view"},{"type":"function","name":"init","inputs":[{"name":"_owner","type":"address","internalType":"address"},{"name":"_borrowedAssetsRecipient","type":"address","internalType":"address"}],"outputs":[],"stateMutability":"nonpayable"},{"type":"function","name":"onMorphoFlashLoan","inputs":[{"name":"_amount","type":"uint256","internalType":"uint256"},{"name":"_data","type":"bytes","internalType":"bytes"}],"outputs":[],"stateMutability":"nonpayable"},{"type":"event","name":"BorrowedAssetsRecipientSet","inputs":[{"name":"borrowedAssetsRecipient","type":"address","indexed":false,"internalType":"address"}],"anonymous":false},{"type":"event","name":"OwnerSet","inputs":[{"name":"owner","type":"address","indexed":false,"internalType":"address"}],"anonymous":false},{"type":"error","name":"MorphoBlueFlashLoanAssetManager__FlashLoan__Unauthorized","inputs":[]},{"type":"error","name":"MorphoBlueFlashLoanAssetManager__Init__AlreadyInitialized","inputs":[]},{"type":"error","name":"MorphoBlueFlashLoanAssetManager__OnMorphoFlashLoan__UnauthorizedCaller","inputs":[]},{"type":"error","name":"MorphoBlueFlashLoanAssetManager__OnMorphoFlashLoan__UnauthorizedInitiator","inputs":[]}],"bytecode":{"object":"0x60a060405234801561001057600080fd5b5060405161112f38038061112f83398101604081905261002f91610075565b6001600160a01b031660805261009e565b60006001600160a01b0382165b92915050565b61005c81610040565b811461006757600080fd5b50565b805161004d81610053565b60006020828403121561008a5761008a600080fd5b6000610096848461006a565b949350505050565b6080516110626100cd600039600081816094015281816101370152818161020f015261035a01526110626000f3fe608060405234801561001057600080fd5b50600436106100625760003560e01c806309169ab61461006757806331f570721461007c5780633acb56241461008f578063893d20e8146100cc578063b3441037146100e6578063f09a4016146100f7575b600080fd5b61007a610075366004610832565b61010a565b005b61007a61008a3660046108eb565b610204565b6100b67f000000000000000000000000000000000000000000000000000000000000000081565b6040516100c3919061096c565b60405180910390f35b6000546001600160a01b03165b6040516100c39190610983565b6001546001600160a01b03166100d9565b61007a610105366004610991565b610387565b6000546001600160a01b031633146101355760405163568fd7a560e01b815260040160405180910390fd5b7f00000000000000000000000000000000000000000000000000000000000000006001600160a01b031663e0232b4285856040518060400160405280896001600160a01b0316815260200187879061018d9190610bca565b905260405161019f9190602001610d00565b6040516020818303038152906040526040518463ffffffff1660e01b81526004016101cc93929190610d17565b600060405180830381600087803b1580156101e657600080fd5b505af11580156101fa573d6000803e3d6000fd5b5050505050505050565b336001600160a01b037f0000000000000000000000000000000000000000000000000000000000000000161461024d57604051633ccc6a7f60e11b815260040160405180910390fd5b600061025b82840184610dc1565b80516020820151919250906102f961027b6001546001600160a01b031690565b6040516370a0823160e01b81526001600160a01b038516906370a08231906102a7903090600401610983565b602060405180830381865afa1580156102c4573d6000803e3d6000fd5b505050506040513d601f19601f820116820180604052508101906102e89190610e07565b6001600160a01b03851691906103c7565b60005b815181101561034a57600082828151811061031957610319610e28565b60200260200101519050610335816000015182602001516103d7565b5050808061034290610e54565b9150506102fc565b5061037f6001600160a01b0383167f000000000000000000000000000000000000000000000000000000000000000088610424565b505050505050565b6000546001600160a01b0316156103b1576040516342ac28db60e01b815260040160405180910390fd5b6103ba8261042f565b6103c381610485565b5050565b6103d28383836104d0565b505050565b606061041b838360006040518060400160405280601e81526020017f416464726573733a206c6f772d6c6576656c2063616c6c206661696c65640000815250610526565b90505b92915050565b6103d28383836105cd565b600080546001600160a01b0319166001600160a01b0383161790556040517f50146d0e3c60aa1d17a70635b05494f864e86144a2201275021014fbf08bafe29061047a908390610983565b60405180910390a150565b600180546001600160a01b0319166001600160a01b0383161790556040517f7937204cb59c6f900353d0ad24547380dc38d28e483e09c2f4b4b101b495990f9061047a908390610983565b6103d28363a9059cbb60e01b84846040516024016104ef929190610e6e565b60408051601f198184030181529190526020810180516001600160e01b03166001600160e01b031990931692909217909152610681565b6060824710156105515760405162461bcd60e51b815260040161054890610ecf565b60405180910390fd5b600080866001600160a01b0316858760405161056d9190610f01565b60006040518083038185875af1925050503d80600081146105aa576040519150601f19603f3d011682016040523d82523d6000602084013e6105af565b606091505b50915091506105c087838387610710565b925050505b949350505050565b8015806106465750604051636eb1769f60e11b81526001600160a01b0384169063dd62ed3e906106039030908690600401610f0d565b602060405180830381865afa158015610620573d6000803e3d6000fd5b505050506040513d601f19601f820116820180604052508101906106449190610e07565b155b6106625760405162461bcd60e51b815260040161054890610f7b565b6103d28363095ea7b360e01b84846040516024016104ef929190610e6e565b60006106d6826040518060400160405280602081526020017f5361666545524332303a206c6f772d6c6576656c2063616c6c206661696c6564815250856001600160a01b03166107599092919063ffffffff16565b8051909150156103d257808060200190518101906106f49190610f9e565b6103d25760405162461bcd60e51b815260040161054890611006565b6060831561074f578251600003610748576001600160a01b0385163b6107485760405162461bcd60e51b815260040161054890611016565b50816105c5565b6105c58383610772565b60606107688484600085610526565b90505b9392505050565b8151156107825781518083602001fd5b8060405162461bcd60e51b81526004016105489190611051565b60006001600160a01b03821661041e565b6107b68161079c565b81146107c157600080fd5b50565b803561041e816107ad565b806107b6565b803561041e816107cf565b60008083601f8401126107f5576107f5600080fd5b50813567ffffffffffffffff81111561081057610810600080fd5b60208301915083602082028301111561082b5761082b600080fd5b9250929050565b6000806000806060858703121561084b5761084b600080fd5b600061085787876107c4565b9450506020610868878288016107d5565b935050604085013567ffffffffffffffff81111561088857610888600080fd5b610894878288016107e0565b95989497509550505050565b60008083601f8401126108b5576108b5600080fd5b50813567ffffffffffffffff8111156108d0576108d0600080fd5b60208301915083600182028301111561082b5761082b600080fd5b60008060006040848603121561090357610903600080fd5b600061090f86866107d5565b935050602084013567ffffffffffffffff81111561092f5761092f600080fd5b61093b868287016108a0565b92509250509250925092565b600061041e8261079c565b600061041e82610947565b61096681610952565b82525050565b6020810161041e828461095d565b6109668161079c565b6020810161041e828461097a565b600080604083850312156109a7576109a7600080fd5b60006109b385856107c4565b92505060206109c4858286016107c4565b9150509250929050565b634e487b7160e01b600052604160045260246000fd5b601f19601f830116810181811067ffffffffffffffff82111715610a0a57610a0a6109ce565b6040525050565b6000610a1c60405190565b9050610a2882826109e4565b919050565b600067ffffffffffffffff821115610a4757610a476109ce565b5060209081020190565b600067ffffffffffffffff821115610a6b57610a6b6109ce565b601f19601f83011660200192915050565b82818337506000910152565b6000610a9b610a9684610a51565b610a11565b905082815260208101848484011115610ab657610ab6600080fd5b610ac1848285610a7c565b509392505050565b600082601f830112610add57610add600080fd5b81356105c5848260208601610a88565b600060408284031215610b0257610b02600080fd5b610b0c6040610a11565b90506000610b1a84846107c4565b825250602082013567ffffffffffffffff811115610b3a57610b3a600080fd5b610b4684828501610ac9565b60208301525092915050565b6000610b60610a9684610a2d565b83815290506020808201908402830185811115610b7f57610b7f600080fd5b835b81811015610bc057803567ffffffffffffffff811115610ba357610ba3600080fd5b808601610bb08982610aed565b8552505060209283019201610b81565b5050509392505050565b600061041b368484610b52565b60005b83811015610bf2578181015183820152602001610bda565b50506000910152565b6000610c05825190565b808452602084019350610c1c818560208601610bd7565b601f01601f19169290920192915050565b80516000906040840190610c41858261097a565b5060208301518482036020860152610c598282610bfb565b95945050505050565b600061041b8383610c2d565b6000610c78825190565b80845260208401935083602082028501610c928560200190565b8060005b85811015610cc75784840389528151610caf8582610c62565b94506020830160209a909a0199925050600101610c96565b5091979650505050505050565b80516000906040840190610ce8858261097a565b5060208301518482036020860152610c598282610c6e565b6020808252810161041b8184610cd4565b80610966565b60608101610d25828661097a565b610d326020830185610d11565b8181036040830152610c598184610bfb565b600082601f830112610d5857610d58600080fd5b81356105c5848260208601610b52565b600060408284031215610d7d57610d7d600080fd5b610d876040610a11565b90506000610d9584846107c4565b825250602082013567ffffffffffffffff811115610db557610db5600080fd5b610b4684828501610d44565b600060208284031215610dd657610dd6600080fd5b813567ffffffffffffffff811115610df057610df0600080fd5b6105c584828501610d68565b805161041e816107cf565b600060208284031215610e1c57610e1c600080fd5b60006105c58484610dfc565b634e487b7160e01b600052603260045260246000fd5b634e487b7160e01b600052601160045260246000fd5b60006000198203610e6757610e67610e3e565b5060010190565b60408101610e7c828561097a565b61076b6020830184610d11565b602681526000602082017f416464726573733a20696e73756666696369656e742062616c616e636520666f8152651c8818d85b1b60d21b602082015291505b5060400190565b6020808252810161041e81610e89565b6000610ee9825190565b610ef7818560208601610bd7565b9290920192915050565b600061076b8284610edf565b60408101610f1b828561097a565b61076b602083018461097a565b603681526000602082017f5361666545524332303a20617070726f76652066726f6d206e6f6e2d7a65726f81527520746f206e6f6e2d7a65726f20616c6c6f77616e636560501b60208201529150610ec8565b6020808252810161041e81610f28565b8015156107b6565b805161041e81610f8b565b600060208284031215610fb357610fb3600080fd5b60006105c58484610f93565b602a81526000602082017f5361666545524332303a204552433230206f7065726174696f6e20646964206e8152691bdd081cdd58d8d9595960b21b60208201529150610ec8565b6020808252810161041e81610fbf565b6020808252810161041e81601d81527f416464726573733a2063616c6c20746f206e6f6e2d636f6e7472616374000000602082015260400190565b6020808252810161041b8184610bfb56","linkReferences":{}},"methodIdentifiers":{"MORPHO()":"3acb5624","flashLoan(address,uint256,(address,bytes)[])":"09169ab6","getBorrowedAssetsRecipient()":"b3441037","getOwner()":"893d20e8","init(address,address)":"f09a4016","onMorphoFlashLoan(uint256,bytes)":"31f57072"},"id":77}