{"abi":[{"type":"constructor","inputs":[{"name":"_nonFungibleTokenManager","type":"address","internalType":"address"},{"name":"_valueInterpreter","type":"address","internalType":"address"}],"stateMutability":"nonpayable"},{"type":"function","name":"getDebtAssets","inputs":[],"outputs":[{"name":"assets_","type":"address[]","internalType":"address[]"},{"name":"amounts_","type":"uint256[]","internalType":"uint256[]"}],"stateMutability":"pure"},{"type":"function","name":"getManagedAssets","inputs":[],"outputs":[{"name":"assets_","type":"address[]","internalType":"address[]"},{"name":"amounts_","type":"uint256[]","internalType":"uint256[]"}],"stateMutability":"nonpayable"},{"type":"function","name":"getNftIds","inputs":[],"outputs":[{"name":"nftIds_","type":"uint256[]","internalType":"uint256[]"}],"stateMutability":"view"},{"type":"function","name":"getNonFungibleTokenManager","inputs":[],"outputs":[{"name":"nonFungibleTokenManager_","type":"address","internalType":"address"}],"stateMutability":"view"},{"type":"function","name":"getPairForNft","inputs":[{"name":"_nftId","type":"uint256","internalType":"uint256"}],"outputs":[{"name":"token0_","type":"address","internalType":"address"},{"name":"token1_","type":"address","internalType":"address"}],"stateMutability":"view"},{"type":"function","name":"getToken0ForNft","inputs":[{"name":"_nftId","type":"uint256","internalType":"uint256"}],"outputs":[{"name":"token0_","type":"address","internalType":"address"}],"stateMutability":"view"},{"type":"function","name":"getToken1ForNft","inputs":[{"name":"_nftId","type":"uint256","internalType":"uint256"}],"outputs":[{"name":"token1_","type":"address","internalType":"address"}],"stateMutability":"view"},{"type":"function","name":"getValueInterpreter","inputs":[],"outputs":[{"name":"valueInterpreter_","type":"address","internalType":"address"}],"stateMutability":"view"},{"type":"function","name":"init","inputs":[{"name":"","type":"bytes","internalType":"bytes"}],"outputs":[],"stateMutability":"nonpayable"},{"type":"function","name":"receiveCallFromVault","inputs":[{"name":"_actionData","type":"bytes","internalType":"bytes"}],"outputs":[],"stateMutability":"nonpayable"},{"type":"event","name":"NFTPositionAdded","inputs":[{"name":"tokenId","type":"uint256","indexed":true,"internalType":"uint256"}],"anonymous":false},{"type":"event","name":"NFTPositionRemoved","inputs":[{"name":"tokenId","type":"uint256","indexed":true,"internalType":"uint256"}],"anonymous":false}],"bytecode":{"object":"0x60c06040523480156200001157600080fd5b5060405162002e9f38038062002e9f833981016040819052620000349162000070565b6001600160601b0319606092831b8116608052911b1660a052620000a7565b80516001600160a01b03811681146200006b57600080fd5b919050565b6000806040838503121562000083578182fd5b6200008e8362000053565b91506200009e6020840162000053565b90509250929050565b60805160601c60a05160601c612dc9620000d66000398061045252806105c852508061018e5250612dc96000f3fe608060405234801561001057600080fd5b506004361061009e5760003560e01c8063875fb4b311610066578063875fb4b314610114578063e0d803ad1461011c578063e5c23a971461012f578063ecd658b414610142578063eff2452a1461014a5761009e565b80634ddf47d4146100a35780635f358573146100b85780636904481a146100e1578063804ff143146100e957806380daddb8146100fe575b600080fd5b6100b66100b136600461272d565b61016b565b005b6100cb6100c63660046127da565b61016e565b6040516100d89190612a0b565b60405180910390f35b6100cb61018c565b6100f16101b0565b6040516100d89190612abc565b610106610208565b6040516100d8929190612a5c565b6100cb6105c6565b6100cb61012a3660046127da565b6105ea565b6100b661013d36600461272d565b610605565b61010661080c565b61015d6101583660046127da565b610812565b6040516100d8929190612a1f565b50565b6000818152600260205260409020546001600160a01b03165b919050565b7f000000000000000000000000000000000000000000000000000000000000000090565b606060008054806020026020016040519081016040528092919081815260200182805480156101fe57602002820191906000526020600020905b8154815260200190600101908083116101ea575b5050505050905090565b60608060006102156101b0565b905080516000141561022757506105c2565b805160020267ffffffffffffffff8111801561024257600080fd5b5060405190808252806020026020018201604052801561026c578160200160208202803683370190505b509250825167ffffffffffffffff8111801561028757600080fd5b506040519080825280602002602001820160405280156102b1578160200160208202803683370190505b5091506000815167ffffffffffffffff811180156102ce57600080fd5b506040519080825280602002602001820160405280156102f8578160200160208202803683370190505b50905060005b82518110156105a45760008061032685848151811061031957fe5b6020026020010151610812565b91509150600083600202905060008160010190508389838151811061034757fe5b60200260200101906001600160a01b031690816001600160a01b0316815250508289828151811061037457fe5b60200260200101906001600160a01b031690816001600160a01b0316815250506000805b86811015610429578a81600202815181106103af57fe5b60200260200101516001600160a01b0316866001600160a01b031614801561040157508a81600202600101815181106103e457fe5b60200260200101516001600160a01b0316856001600160a01b0316145b156104215787818151811061041257fe5b60200260200101519150610429565b600101610398565b506001600160a01b03811661054057604051632633f08360e11b81526000906001600160a01b037f00000000000000000000000000000000000000000000000000000000000000001690634c67e10690610493908890670de0b6b3a7640000908b90600401612a39565b602060405180830381600087803b1580156104ad57600080fd5b505af11580156104c1573d6000803e3d6000fd5b505050506040513d601f19601f820116820180604052508101906104e591906127f2565b905061050f61050a82610504600160c01b670de0b6b3a7640000610830565b90610892565b6108f9565b91508188888151811061051e57fe5b60200260200101906001600160a01b031690816001600160a01b031681525050505b61056561054b61018c565b89888151811061055757fe5b60200260200101518361094a565b8a858151811061057157fe5b602002602001018b858151811061058457fe5b6020908102919091010191909152525050600190930192506102fe915050565b506001825111156105bf576105b9848461097d565b90945092505b50505b9091565b7f000000000000000000000000000000000000000000000000000000000000000090565b6000908152600160205260409020546001600160a01b031690565b6000808280602001905181019061061c919061280a565b9092509050816106d757600080600080600080600080600061063d8a610bc0565b9850985098509850985098509850985098506106c96040518061016001604052808b6001600160a01b031681526020018a6001600160a01b031681526020018962ffffff1681526020018860020b81526020018760020b8152602001868152602001858152602001848152602001838152602001306001600160a01b0316815260200142815250610c64565b505050505050505050610807565b600182141561073a5760008060008060006106f186610f17565b945094509450945094506107306040518060c0016040528087815260200186815260200185815260200184815260200183815260200142815250610f5d565b5050505050610807565b600282141561079b57600080600080610752856110ed565b93509350935093506107926040518060a00160405280868152602001856001600160801b031681526020018481526020018381526020014281525061112a565b50505050610807565b60048214156107c7576000806000806107b3856110ed565b9350935093509350610792848484846111bb565b60038214156107e6576107e16107dc82611407565b611426565b610807565b60405162461bcd60e51b81526004016107fe90612b02565b60405180910390fd5b505050565b60608091565b60008061081e836105ea565b6108278461016e565b91509150915091565b60008261083f5750600061088c565b8282028284828161084c57fe5b04146108895760405162461bcd60e51b8152600401808060200182810382526021815260200180612d3c6021913960400191505060405180910390fd5b90505b92915050565b60008082116108e8576040805162461bcd60e51b815260206004820152601a60248201527f536166654d6174683a206469766973696f6e206279207a65726f000000000000604482015290519081900360640190fd5b8183816108f157fe5b049392505050565b6000600382111561093c575080600160028204015b818110156109365780915060028182858161092557fe5b04018161092e57fe5b04905061090e565b50610187565b811561018757506001919050565b60008060008061095b8787876114d0565b9150915060008061096c898961158c565b940195505050019050935093915050565b60608083516000141561098f57610bb9565b6001805b8551811015610a0f576000805b828110156109f9578781815181106109b457fe5b60200260200101516001600160a01b03168884815181106109d157fe5b60200260200101516001600160a01b031614156109f157600191506109f9565b6001016109a0565b5080610a06576001909201915b50600101610993565b508067ffffffffffffffff81118015610a2757600080fd5b50604051908082528060200260200182016040528015610a51578160200160208202803683370190505b5092508067ffffffffffffffff81118015610a6b57600080fd5b50604051908082528060200260200182016040528015610a95578160200160208202803683370190505b5091506000805b8651811015610bb5576000805b83811015610b3457868181518110610abd57fe5b60200260200101516001600160a01b0316898481518110610ada57fe5b60200260200101516001600160a01b03161415610b2c5760019150878381518110610b0157fe5b6020026020010151868281518110610b1557fe5b602002602001018181510191508181525050610b34565b600101610aa9565b5080610bac57878281518110610b4657fe5b6020026020010151868481518110610b5a57fe5b60200260200101906001600160a01b031690816001600160a01b031681525050868281518110610b8657fe5b6020026020010151858481518110610b9a57fe5b60209081029190910101526001909201915b50600101610a9c565b5050505b9250929050565b600080600080600080600080600089806020019051610120811015610be457600080fd5b810190808051906020019092919080519060200190929190805190602001909291908051906020019092919080519060200190929190805190602001909291908051906020019092919080519060200190929190805190602001909291905050509850985098509850985098509850985098509193959799909294969850565b8051610c7c90610c7261018c565b8360a0015161173f565b610c968160200151610c8c61018c565b8360c0015161173f565b6000806000610ca361018c565b6001600160a01b03166388316456856040518263ffffffff1660e01b8152600401610cce9190612c12565b608060405180830381600087803b158015610ce857600080fd5b505af1158015610cfc573d6000803e3d6000fd5b505050506040513d601f19601f82011682018060405250810190610d209190612889565b60008054600180820183558280527f290decd9548b62a8d60345a988386fc84ba6bc95484008f6362f93160ef3e56390910186905589518683526020918252604080842080546001600160a01b03199081166001600160a01b0394851617909155838d0151600290945293208054909316911617905560a0880151939650909450925050821015610e4157610e413385600001516001600160a01b03166370a08231306040518263ffffffff1660e01b8152600401610ddf9190612a0b565b60206040518083038186803b158015610df757600080fd5b505afa158015610e0b573d6000803e3d6000fd5b505050506040513d601f19601f82011682018060405250810190610e2f91906127f2565b86516001600160a01b031691906117fb565b8360c00151811015610ee657610ee63385602001516001600160a01b03166370a08231306040518263ffffffff1660e01b8152600401610e819190612a0b565b60206040518083038186803b158015610e9957600080fd5b505afa158015610ead573d6000803e3d6000fd5b505050506040513d601f19601f82011682018060405250810190610ed191906127f2565b60208701516001600160a01b031691906117fb565b60405183907fa831009a1dec500e6875fc241cfbe036162eb78da63101cbd7bfa24eaef48b3a90600090a250505050565b60008060008060008580602001905160a0811015610f3457600080fd5b508051602082015160408301516060840151608090940151929a91995097509195509350915050565b600080610f6861018c565b6001600160a01b031663219f5d17846040518263ffffffff1660e01b8152600401610f939190612bce565b606060405180830381600087803b158015610fad57600080fd5b505af1158015610fc1573d6000803e3d6000fd5b505050506040513d601f19601f82011682018060405250810190610fe591906127a6565b9250925050826020015182101561109a57600061100584600001516105ea565b905061109833826001600160a01b03166370a08231306040518263ffffffff1660e01b81526004016110379190612a0b565b60206040518083038186803b15801561104f57600080fd5b505afa158015611063573d6000803e3d6000fd5b505050506040513d601f19601f8201168201806040525081019061108791906127f2565b6001600160a01b03841691906117fb565b505b82604001518110156108075760006110b5846000015161016e565b90506110e733826001600160a01b03166370a08231306040518263ffffffff1660e01b81526004016110379190612a0b565b50505050565b60008060008084806020019051608081101561110857600080fd5b5080516020820151604083015160609093015191989097509195509350915050565b61113261018c565b6001600160a01b0316630c49ccbe826040518263ffffffff1660e01b815260040161115d9190612b8b565b6040805180830381600087803b15801561117657600080fd5b505af115801561118a573d6000803e3d6000fd5b505050506040513d601f19601f820116820180604052508101906111ae91906128c4565b5050805161016b90611426565b6001600160801b0383811614156111d8576111d58461180e565b92505b6001600160801b0383161561129d576111ef61018c565b6001600160a01b0316630c49ccbe6040518060a00160405280878152602001866001600160801b03168152602001858152602001848152602001428152506040518263ffffffff1660e01b81526004016112499190612b8b565b6040805180830381600087803b15801561126257600080fd5b505af1158015611276573d6000803e3d6000fd5b505050506040513d601f19601f8201168201806040525081019061129a91906128c4565b50505b6112a684611426565b6112ae61018c565b6001600160a01b03166342966c68856040518263ffffffff1660e01b81526004016112d99190612cc0565b600060405180830381600087803b1580156112f357600080fd5b505af1158015611307573d6000803e3d6000fd5b505060008054925090505b818110156113a757856000828154811061132857fe5b9060005260206000200154141561139f5760018203811015611379576000600183038154811061135457fe5b90600052602060002001546000828154811061136c57fe5b6000918252602090912001555b600080548061138457fe5b600190038181906000526020600020016000905590556113a7565b600101611312565b50600085815260016020908152604080832080546001600160a01b0319908116909155600290925280832080549092169091555186917fb308fd4e2abaef716bcb96e9c382d61e5917345fd816de0d20278a23fbe109c791a25050505050565b600081806020019051602081101561141e57600080fd5b505192915050565b61142e61018c565b604080516080810182528381523360208201526001600160801b038183018190526060820152905163fc6f786560e01b81526001600160a01b03929092169163fc6f78659161147f91600401612b48565b6040805180830381600087803b15801561149857600080fd5b505af11580156114ac573d6000803e3d6000fd5b505050506040513d601f19601f8201168201806040525081019061080791906128c4565b6000806000806000876001600160a01b03166399fbab88886040518263ffffffff1660e01b8152600401808281526020019150506101806040518083038186803b15801561151d57600080fd5b505afa158015611531573d6000803e3d6000fd5b505050506040513d61018081101561154857600080fd5b5060a081015160c082015160e090920151909450909250905061157d8661156e85611904565b61157785611904565b84611c36565b94509450505050935093915050565b6000806000806000806000806000806000808d6001600160a01b03166399fbab888e6040518263ffffffff1660e01b8152600401808281526020019150506101806040518083038186803b1580156115e357600080fd5b505afa1580156115f7573d6000803e3d6000fd5b505050506040513d61018081101561160e57600080fd5b810190808051906020019092919080519060200190929190805190602001909291908051906020019092919080519060200190929190805190602001909291908051906020019092919080519060200190929190805190602001909291908051906020019092919080519060200190929190805190602001909291905050506001600160801b03169b506001600160801b03169b509b509b509b509b509b509b509b509b50505061172a8e6040518061014001604052808d6001600160a01b031681526020018c6001600160a01b031681526020018b62ffffff1681526020018a60020b81526020018960020b8152602001886001600160801b0316815260200187815260200186815260200185815260200184815250611cd2565b9b509b50505050505050505050509250929050565b604051636eb1769f60e11b81526000906001600160a01b0385169063dd62ed3e906117709030908790600401612a1f565b60206040518083038186803b15801561178857600080fd5b505afa15801561179c573d6000803e3d6000fd5b505050506040513d601f19601f820116820180604052508101906117c091906127f2565b9050818110156110e75780156117e5576117e56001600160a01b038516846000611df0565b6110e76001600160a01b03851684600019611df0565b61080761180784611e03565b8383611e06565b600080600061181b61018c565b6001600160a01b03166399fbab8860e01b8560405160240161183d9190612cc0565b60408051601f198184030181529181526020820180516001600160e01b03166001600160e01b031990941693909317909252905161187b91906129ef565b600060405180830381855afa9150503d80600081146118b6576040519150601f19603f3d011682016040523d82523d6000602084013e6118bb565b606091505b50915091508181906118e05760405162461bcd60e51b81526004016107fe9190612acf565b50808060200190518101906118f591906128e7565b9b9a5050505050505050505050565b60008060008360020b1261191b578260020b611923565b8260020b6000035b9050620d89e8811115611961576040805162461bcd60e51b81526020600482015260016024820152601560fa1b604482015290519081900360640190fd5b60006001821661197557600160801b611987565b6ffffcb933bd6fad37aa2d162d1a5940015b70ffffffffffffffffffffffffffffffffff16905060028216156119bb576ffff97272373d413259a46990580e213a0260801c5b60048216156119da576ffff2e50f5f656932ef12357cf3c7fdcc0260801c5b60088216156119f9576fffe5caca7e10e4e61c3624eaa0941cd00260801c5b6010821615611a18576fffcb9843d60f6159c9db58835c9266440260801c5b6020821615611a37576fff973b41fa98c081472e6896dfb254c00260801c5b6040821615611a56576fff2ea16466c96a3843ec78b326b528610260801c5b6080821615611a75576ffe5dee046a99a2a811c461f1969c30530260801c5b610100821615611a95576ffcbe86c7900a88aedcffc83b479aa3a40260801c5b610200821615611ab5576ff987a7253ac413176f2b074cf7815e540260801c5b610400821615611ad5576ff3392b0822b70005940c7a398e4b70f30260801c5b610800821615611af5576fe7159475a2c29b7443b29c7fa6e889d90260801c5b611000821615611b15576fd097f3bdfd2022b8845ad8f792aa58250260801c5b612000821615611b35576fa9f746462d870fdf8a65dc1f90e061e50260801c5b614000821615611b55576f70d869a156d2a1b890bb3df62baf32f70260801c5b618000821615611b75576f31be135f97d08fd981231505542fcfa60260801c5b62010000821615611b96576f09aa508b5b7a84e1c677de54f3e99bc90260801c5b62020000821615611bb6576e5d6af8dedb81196699c329225ee6040260801c5b62040000821615611bd5576d2216e584f5fa1ea926041bedfe980260801c5b62080000821615611bf2576b048a170391f7dc42444e8fa20260801c5b60008460020b1315611c0d578060001981611c0957fe5b0490505b640100000000810615611c21576001611c24565b60005b60ff16602082901c0192505050919050565b600080836001600160a01b0316856001600160a01b03161115611c57579293925b846001600160a01b0316866001600160a01b031611611c8257611c7b858585611e58565b9150611cc9565b836001600160a01b0316866001600160a01b03161015611cbb57611ca7868585611e58565b9150611cb4858785611ec3565b9050611cc9565b611cc6858585611ec3565b90505b94509492505050565b600080600080611d8d611d7e876001600160a01b031663c45a01556040518163ffffffff1660e01b815260040160206040518083038186803b158015611d1757600080fd5b505afa158015611d2b573d6000803e3d6000fd5b505050506040513d6020811015611d4157600080fd5b50516040805160608101825289516001600160a01b03908116825260208b810151909116908201528982015162ffffff1691810191909152611f0e565b86606001518760800151611ff2565b91509150846101000151611db98660c0015184038760a001516001600160801b0316600160801b6122af565b019350846101200151611de48660e0015183038760a001516001600160801b0316600160801b6122af565b01925050509250929050565b610807611dfc84611e03565b838361235e565b90565b604080516001600160a01b038416602482015260448082018490528251808303909101815260649091019091526020810180516001600160e01b031663a9059cbb60e01b17905261080790849061246d565b6000826001600160a01b0316846001600160a01b03161115611e78579192915b836001600160a01b0316611eb1606060ff16846001600160801b0316901b8686036001600160a01b0316866001600160a01b03166122af565b81611eb857fe5b0490505b9392505050565b6000826001600160a01b0316846001600160a01b03161115611ee3579192915b611f06826001600160801b03168585036001600160a01b0316600160601b6122af565b949350505050565b600081602001516001600160a01b031682600001516001600160a01b031610611f3657600080fd5b50805160208083015160409384015184516001600160a01b0394851681850152939091168385015262ffffff166060808401919091528351808403820181526080840185528051908301206001600160f81b031960a085015294901b6bffffffffffffffffffffffff191660a183015260b58201939093527fe34f199b19b2b4f47f68442619d555527d244f78a3297ea89325f843f87b8b5460d5808301919091528251808303909101815260f5909101909152805191012090565b6000806000856001600160a01b0316633850c7bd6040518163ffffffff1660e01b815260040160e06040518083038186803b15801561203057600080fd5b505afa158015612044573d6000803e3d6000fd5b505050506040513d60e081101561205a57600080fd5b50602001516040805163f30dba9360e01b8152600288900b6004820152905191925060009182916001600160a01b038a169163f30dba939160248082019261010092909190829003018186803b1580156120b357600080fd5b505afa1580156120c7573d6000803e3d6000fd5b505050506040513d6101008110156120de57600080fd5b50604080820151606090920151815163f30dba9360e01b815260028a900b60048201529151929450925060009182916001600160a01b038c169163f30dba939160248082019261010092909190829003018186803b15801561213f57600080fd5b505afa158015612153573d6000803e3d6000fd5b505050506040513d61010081101561216a57600080fd5b5060408101516060909101519092509050600289810b9086900b121561219957818403965080830395506122a2565b8760020b8560020b12156122975760008a6001600160a01b031663f30583996040518163ffffffff1660e01b815260040160206040518083038186803b1580156121e257600080fd5b505afa1580156121f6573d6000803e3d6000fd5b505050506040513d602081101561220c57600080fd5b505160408051634614131960e01b815290519192506000916001600160a01b038e16916346141319916004808301926020929190829003018186803b15801561225457600080fd5b505afa158015612268573d6000803e3d6000fd5b505050506040513d602081101561227e57600080fd5b50519186900384900398505083900381900395506122a2565b838203965082810395505b5050505050935093915050565b60008080600019858709868602925082811090839003039050806122e557600084116122da57600080fd5b508290049050611ebc565b8084116122f157600080fd5b6000848688096000868103871696879004966002600389028118808a02820302808a02820302808a02820302808a02820302808a02820302808a02909103029181900381900460010186841190950394909402919094039290920491909117919091029150509392505050565b8015806123e4575060408051636eb1769f60e11b81523060048201526001600160a01b03848116602483015291519185169163dd62ed3e91604480820192602092909190829003018186803b1580156123b657600080fd5b505afa1580156123ca573d6000803e3d6000fd5b505050506040513d60208110156123e057600080fd5b5051155b61241f5760405162461bcd60e51b8152600401808060200182810382526036815260200180612d876036913960400191505060405180910390fd5b604080516001600160a01b038416602482015260448082018490528251808303909101815260649091019091526020810180516001600160e01b031663095ea7b360e01b1790526108079084905b60006124c2826040518060400160405280602081526020017f5361666545524332303a206c6f772d6c6576656c2063616c6c206661696c6564815250856001600160a01b031661251e9092919063ffffffff16565b805190915015610807578080602001905160208110156124e157600080fd5b50516108075760405162461bcd60e51b815260040180806020018281038252602a815260200180612d5d602a913960400191505060405180910390fd5b6060611f0684846000858561253285612643565b612583576040805162461bcd60e51b815260206004820152601d60248201527f416464726573733a2063616c6c20746f206e6f6e2d636f6e7472616374000000604482015290519081900360640190fd5b600080866001600160a01b031685876040518082805190602001908083835b602083106125c15780518252601f1990920191602091820191016125a2565b6001836020036101000a03801982511681845116808217855250505050505090500191505060006040518083038185875af1925050503d8060008114612623576040519150601f19603f3d011682016040523d82523d6000602084013e612628565b606091505b5091509150612638828286612649565b979650505050505050565b3b151590565b60608315612658575081611ebc565b8251156126685782518084602001fd5b8160405162461bcd60e51b81526004018080602001828103825283818151815260200191508051906020019080838360005b838110156126b257818101518382015260200161269a565b50505050905090810190601f1680156126df5780820380516001836020036101000a031916815260200191505b509250505060405180910390fd5b80516001600160a01b038116811461018757600080fd5b8051600281900b811461018757600080fd5b80516001600160801b038116811461018757600080fd5b60006020828403121561273e578081fd5b813567ffffffffffffffff811115612754578182fd5b8201601f81018413612764578182fd5b803561277761277282612ced565b612cc9565b81815285602083850101111561278b578384fd5b81602084016020830137908101602001929092525092915050565b6000806000606084860312156127ba578182fd5b6127c384612716565b925060208401519150604084015190509250925092565b6000602082840312156127eb578081fd5b5035919050565b600060208284031215612803578081fd5b5051919050565b6000806040838503121561281c578182fd5b82519150602083015167ffffffffffffffff811115612839578182fd5b8301601f81018513612849578182fd5b805161285761277282612ced565b81815286602083850101111561286b578384fd5b61287c826020830160208601612d0f565b8093505050509250929050565b6000806000806080858703121561289e578081fd5b845193506128ae60208601612716565b6040860151606090960151949790965092505050565b600080604083850312156128d6578182fd5b505080516020909101519092909150565b600080600080600080600080610100898b031215612903578384fd5b88516bffffffffffffffffffffffff8116811461291e578485fd5b975061292c60208a016126ed565b965061293a60408a016126ed565b955061294860608a016126ed565b9450608089015162ffffff8116811461295f578485fd5b935061296d60a08a01612704565b925061297b60c08a01612704565b915061298960e08a01612716565b90509295985092959890939650565b6001600160a01b03169052565b6000815180845260208085019450808401835b838110156129d4578151875295820195908201906001016129b8565b509495945050505050565b60020b9052565b62ffffff169052565b60008251612a01818460208701612d0f565b9190910192915050565b6001600160a01b0391909116815260200190565b6001600160a01b0392831681529116602082015260400190565b6001600160a01b0393841681526020810192909252909116604082015260600190565b604080825283519082018190526000906020906060840190828701845b82811015612a9e5781516001600160a01b031684529284019290840190600101612a79565b50505083810382850152612ab281866129a5565b9695505050505050565b600060208252611ebc60208301846129a5565b6000602082528251806020840152612aee816040850160208701612d0f565b601f01601f19169190910160400192915050565b60208082526026908201527f7265636569766543616c6c46726f6d5661756c743a20496e76616c69642061636040820152651d1a5bdb925960d21b606082015260800190565b815181526020808301516001600160a01b0316908201526040808301516001600160801b0390811691830191909152606092830151169181019190915260800190565b600060a082019050825182526001600160801b03602084015116602083015260408301516040830152606083015160608301526080830151608083015292915050565b600060c082019050825182526020830151602083015260408301516040830152606083015160608301526080830151608083015260a083015160a083015292915050565b600061016082019050612c26828451612998565b6020830151612c386020840182612998565b506040830151612c4b60408401826129e6565b506060830151612c5e60608401826129df565b506080830151612c7160808401826129df565b5060a083015160a083015260c083015160c083015260e083015160e083015261010080840151818401525061012080840151612caf82850182612998565b505061014092830151919092015290565b90815260200190565b60405181810167ffffffffffffffff81118282101715612ce557fe5b604052919050565b600067ffffffffffffffff821115612d0157fe5b50601f01601f191660200190565b60005b83811015612d2a578181015183820152602001612d12565b838111156110e7575050600091015256fe536166654d6174683a206d756c7469706c69636174696f6e206f766572666c6f775361666545524332303a204552433230206f7065726174696f6e20646964206e6f7420737563636565645361666545524332303a20617070726f76652066726f6d206e6f6e2d7a65726f20746f206e6f6e2d7a65726f20616c6c6f77616e6365a164736f6c6343000706000a","linkReferences":{}},"methodIdentifiers":{"getDebtAssets()":"ecd658b4","getManagedAssets()":"80daddb8","getNftIds()":"804ff143","getNonFungibleTokenManager()":"6904481a","getPairForNft(uint256)":"eff2452a","getToken0ForNft(uint256)":"e0d803ad","getToken1ForNft(uint256)":"5f358573","getValueInterpreter()":"875fb4b3","init(bytes)":"4ddf47d4","receiveCallFromVault(bytes)":"e5c23a97"},"id":6}