{"abi":[{"type":"constructor","inputs":[{"name":"_dispatcher","type":"address","internalType":"address"}],"stateMutability":"nonpayable"},{"type":"function","name":"addToList","inputs":[{"name":"_id","type":"uint256","internalType":"uint256"},{"name":"_items","type":"uint256[]","internalType":"uint256[]"}],"outputs":[],"stateMutability":"nonpayable"},{"type":"function","name":"areAllInAllLists","inputs":[{"name":"_ids","type":"uint256[]","internalType":"uint256[]"},{"name":"_items","type":"uint256[]","internalType":"uint256[]"}],"outputs":[{"name":"areAllInAllLists_","type":"bool","internalType":"bool"}],"stateMutability":"view"},{"type":"function","name":"areAllInList","inputs":[{"name":"_id","type":"uint256","internalType":"uint256"},{"name":"_items","type":"uint256[]","internalType":"uint256[]"}],"outputs":[{"name":"areAllInList_","type":"bool","internalType":"bool"}],"stateMutability":"view"},{"type":"function","name":"areAllInSomeOfLists","inputs":[{"name":"_ids","type":"uint256[]","internalType":"uint256[]"},{"name":"_items","type":"uint256[]","internalType":"uint256[]"}],"outputs":[{"name":"areAllInSomeOfLists_","type":"bool","internalType":"bool"}],"stateMutability":"view"},{"type":"function","name":"areAllNotInAnyOfLists","inputs":[{"name":"_ids","type":"uint256[]","internalType":"uint256[]"},{"name":"_items","type":"uint256[]","internalType":"uint256[]"}],"outputs":[{"name":"areAllNotInAnyOfLists_","type":"bool","internalType":"bool"}],"stateMutability":"view"},{"type":"function","name":"areAllNotInList","inputs":[{"name":"_id","type":"uint256","internalType":"uint256"},{"name":"_items","type":"uint256[]","internalType":"uint256[]"}],"outputs":[{"name":"areAllNotInList_","type":"bool","internalType":"bool"}],"stateMutability":"view"},{"type":"function","name":"attestLists","inputs":[{"name":"_ids","type":"uint256[]","internalType":"uint256[]"},{"name":"_descriptions","type":"string[]","internalType":"string[]"}],"outputs":[],"stateMutability":"nonpayable"},{"type":"function","name":"createList","inputs":[{"name":"_owner","type":"address","internalType":"address"},{"name":"_updateType","type":"uint8","internalType":"enum IUintListRegistry.UpdateType"},{"name":"_initialItems","type":"uint256[]","internalType":"uint256[]"}],"outputs":[{"name":"id_","type":"uint256","internalType":"uint256"}],"stateMutability":"nonpayable"},{"type":"function","name":"getDispatcher","inputs":[],"outputs":[{"name":"dispatcher_","type":"address","internalType":"address"}],"stateMutability":"view"},{"type":"function","name":"getListCount","inputs":[],"outputs":[{"name":"count_","type":"uint256","internalType":"uint256"}],"stateMutability":"view"},{"type":"function","name":"getListOwner","inputs":[{"name":"_id","type":"uint256","internalType":"uint256"}],"outputs":[{"name":"owner_","type":"address","internalType":"address"}],"stateMutability":"view"},{"type":"function","name":"getListUpdateType","inputs":[{"name":"_id","type":"uint256","internalType":"uint256"}],"outputs":[{"name":"updateType_","type":"uint8","internalType":"enum IUintListRegistry.UpdateType"}],"stateMutability":"view"},{"type":"function","name":"isInAllLists","inputs":[{"name":"_ids","type":"uint256[]","internalType":"uint256[]"},{"name":"_item","type":"uint256","internalType":"uint256"}],"outputs":[{"name":"isInAllLists_","type":"bool","internalType":"bool"}],"stateMutability":"view"},{"type":"function","name":"isInList","inputs":[{"name":"_id","type":"uint256","internalType":"uint256"},{"name":"_item","type":"uint256","internalType":"uint256"}],"outputs":[{"name":"isInList_","type":"bool","internalType":"bool"}],"stateMutability":"view"},{"type":"function","name":"isInSomeOfLists","inputs":[{"name":"_ids","type":"uint256[]","internalType":"uint256[]"},{"name":"_item","type":"uint256","internalType":"uint256"}],"outputs":[{"name":"isInSomeOfLists_","type":"bool","internalType":"bool"}],"stateMutability":"view"},{"type":"function","name":"removeFromList","inputs":[{"name":"_id","type":"uint256","internalType":"uint256"},{"name":"_items","type":"uint256[]","internalType":"uint256[]"}],"outputs":[],"stateMutability":"nonpayable"},{"type":"function","name":"setListOwner","inputs":[{"name":"_id","type":"uint256","internalType":"uint256"},{"name":"_nextOwner","type":"address","internalType":"address"}],"outputs":[],"stateMutability":"nonpayable"},{"type":"function","name":"setListUpdateType","inputs":[{"name":"_id","type":"uint256","internalType":"uint256"},{"name":"_nextUpdateType","type":"uint8","internalType":"enum IUintListRegistry.UpdateType"}],"outputs":[],"stateMutability":"nonpayable"},{"type":"event","name":"ItemAddedToList","inputs":[{"name":"id","type":"uint256","indexed":true,"internalType":"uint256"},{"name":"item","type":"uint256","indexed":false,"internalType":"uint256"}],"anonymous":false},{"type":"event","name":"ItemRemovedFromList","inputs":[{"name":"id","type":"uint256","indexed":true,"internalType":"uint256"},{"name":"item","type":"uint256","indexed":false,"internalType":"uint256"}],"anonymous":false},{"type":"event","name":"ListAttested","inputs":[{"name":"id","type":"uint256","indexed":true,"internalType":"uint256"},{"name":"description","type":"string","indexed":false,"internalType":"string"}],"anonymous":false},{"type":"event","name":"ListCreated","inputs":[{"name":"creator","type":"address","indexed":true,"internalType":"address"},{"name":"owner","type":"address","indexed":true,"internalType":"address"},{"name":"id","type":"uint256","indexed":false,"internalType":"uint256"},{"name":"updateType","type":"uint8","indexed":false,"internalType":"enum IUintListRegistry.UpdateType"}],"anonymous":false},{"type":"event","name":"ListOwnerSet","inputs":[{"name":"id","type":"uint256","indexed":true,"internalType":"uint256"},{"name":"nextOwner","type":"address","indexed":true,"internalType":"address"}],"anonymous":false},{"type":"event","name":"ListUpdateTypeSet","inputs":[{"name":"id","type":"uint256","indexed":true,"internalType":"uint256"},{"name":"prevUpdateType","type":"uint8","indexed":false,"internalType":"enum IUintListRegistry.UpdateType"},{"name":"nextUpdateType","type":"uint8","indexed":true,"internalType":"enum IUintListRegistry.UpdateType"}],"anonymous":false}],"bytecode":{"object":"0x60a06040523480156200001157600080fd5b506040516200153b3803806200153b8339810160408190526200003491620000ef565b606081901b6001600160601b031916608052604080518082019091526000808252602082018181528154600181018355918052825160029092027f290decd9548b62a8d60345a988386fc84ba6bc95484008f6362f93160ef3e5630180546001600160a01b039093166001600160a01b031990931692909217808355905190829060ff60a01b1916600160a01b836003811115620000ce57fe5b021790555050505062000144565b8051620000e9816200012a565b92915050565b6000602082840312156200010257600080fd5b6000620001108484620000dc565b949350505050565b60006001600160a01b038216620000e9565b620001358162000118565b81146200014157600080fd5b50565b60805160601c6113d9620001626000398061086352506113d96000f3fe608060405234801561001057600080fd5b50600436106101165760003560e01c80637e7f6936116100a2578063b426f94611610071578063b426f94614610246578063e75411ef14610259578063ebb3d5891461026c578063ee4483dc14610274578063f71e46691461028757610116565b80637e7f6936146101fa57806382b719761461020d578063956e8faa14610220578063a62b27271461023357610116565b80632cfd1d16116100e95780632cfd1d161461018c57806342a61ecd146101a15780634e4edcd0146101b45780634ee5b4aa146101c7578063539f2ab4146101da57610116565b806319bcc9381461011b578063285ddf3c146101445780632a182965146101645780632ce37b1014610177575b600080fd5b61012e610129366004610ee2565b61029a565b60405161013b91906111d8565b60405180910390f35b610157610152366004610fd5565b6102ca565b60405161013b91906111e6565b610157610172366004610e32565b610304565b61017f61034e565b60405161013b9190611274565b61019f61019a366004610f30565b610354565b005b6101576101af366004610e9b565b6104b2565b61019f6101c2366004610f30565b6104f2565b6101576101d5366004610e9b565b6105ab565b6101ed6101e8366004610ee2565b6105e8565b60405161013b91906111f4565b610157610208366004610f86565b610617565b61015761021b366004610e32565b610658565b61019f61022e366004610f00565b610698565b610157610241366004610e32565b610728565b61019f610254366004610dda565b61075c565b610157610267366004610f86565b61082e565b61012e610861565b61019f610282366004610fa5565b610885565b61017f610295366004610d72565b610981565b60008082815481106102a857fe5b60009182526020909120600290910201546001600160a01b031690505b919050565b60008083815481106102d857fe5b600091825260208083208584526001600290930201919091019052604090205460ff1690505b92915050565b6000805b82518110156103445761032e8484838151811061032157fe5b60200260200101516104b2565b61033c5760009150506102fe565b600101610308565b5060019392505050565b60005490565b8261035f3382610aac565b6103845760405162461bcd60e51b815260040161037b90611214565b60405180910390fd5b600061038f856105e8565b9050600281600381111561039f57fe5b14806103b6575060038160038111156103b457fe5b145b6103d25760405162461bcd60e51b815260040161037b90611244565b60005b838110156104aa576103f9868686848181106103ed57fe5b905060200201356102ca565b156104a257600080878154811061040c57fe5b9060005260206000209060020201600101600087878581811061042b57fe5b90506020020135815260200190815260200160002060006101000a81548160ff021916908315150217905550857fa62524cf3a1efcf9b74bd64dce1275bc3d56375cbdff2d81b823be3c5cce763586868481811061048557fe5b905060200201356040516104999190611274565b60405180910390a25b6001016103d5565b505050505050565b6000805b8351811015610344576104dc8482815181106104ce57fe5b6020026020010151846102ca565b6104ea5760009150506102fe565b6001016104b6565b826104fd3382610aac565b6105195760405162461bcd60e51b815260040161037b90611214565b6000610524856105e8565b9050600181600381111561053457fe5b148061054b5750600381600381111561054957fe5b145b6105675760405162461bcd60e51b815260040161037b90611254565b6105a485858580806020026020016040519081016040528093929190818152602001838360200280828437600092019190915250610b8c92505050565b5050505050565b6000805b83518110156105de576105c78482815181106104ce57fe5b156105d65760019150506102fe565b6001016105af565b5060009392505050565b60008082815481106105f657fe5b6000918252602090912060029091020154600160a01b900460ff1692915050565b6000805b8251811015610344576106418484838151811061063457fe5b60200260200101516102ca565b156106505760009150506102fe565b60010161061b565b6000805b8251811015610344576106828484838151811061067557fe5b60200260200101516105ab565b6106905760009150506102fe565b60010161065c565b816106a33382610aac565b6106bf5760405162461bcd60e51b815260040161037b90611214565b81600084815481106106cd57fe5b6000918252602082206002919091020180546001600160a01b0319166001600160a01b039384161790556040519184169185917f2d1c424d2803af2219fba896bc3092aed0ab3f7b022f412b79562b0fc2c2907d91a3505050565b6000805b8251811015610344576107458484838151811061067557fe5b156107545760009150506102fe565b60010161072c565b82811461077b5760405162461bcd60e51b815260040161037b90611224565b60005b838110156105a4576107a23386868481811061079657fe5b90506020020135610aac565b6107be5760405162461bcd60e51b815260040161037b90611234565b8484828181106107ca57fe5b905060200201357fddbb257b211697fab7f1ee9f59674cba284dbd7b9f6e1f3da5b645c890bf94008484848181106107fe57fe5b905060200281019061081091906112a4565b60405161081e929190611202565b60405180910390a260010161077e565b6000805b82518110156103445761084b8484838151811061063457fe5b6108595760009150506102fe565b600101610832565b7f000000000000000000000000000000000000000000000000000000000000000090565b816108903382610aac565b6108ac5760405162461bcd60e51b815260040161037b90611214565b60006108b7846105e8565b905060008360038111156108c757fe5b14806108de575060038160038111156108dc57fe5b145b6108fa5760405162461bcd60e51b815260040161037b90611264565b826000858154811061090857fe5b60009182526020909120600290910201805460ff60a01b1916600160a01b83600381111561093257fe5b021790555082600381111561094357fe5b847f44966c6bc2b3eef1eea6958dc704bb8527d350a282589bb13dd056819bd9d6468360405161097391906111f4565b60405180910390a350505050565b600061098b61034e565b905060006040518060400160405280876001600160a01b031681526020018660038111156109b557fe5b905281546001810183556000928352602092839020825160029092020180546001600160a01b0319166001600160a01b0390921691909117808255928201519192909190829060ff60a01b1916600160a01b836003811115610a1357fe5b02179055505050846001600160a01b0316336001600160a01b03167fc2b2d696fda57bcf0347d9ea036ce8258434f4171cd131b4c1d22a6f0ae960d28387604051610a5f929190611282565b60405180910390a3610aa481848480806020026020016040519081016040528093929190818152602001838360200280828437600092019190915250610b8c92505050565b949350505050565b600080610ab88361029a565b9050806001600160a01b0316846001600160a01b03161480610aa45750610add610861565b6001600160a01b0316816001600160a01b0316148015610aa45750610b00610861565b6001600160a01b031663893d20e86040518163ffffffff1660e01b815260040160206040518083038186803b158015610b3857600080fd5b505afa158015610b4c573d6000803e3d6000fd5b505050506040513d601f19601f82011682018060405250810190610b709190610d54565b6001600160a01b0316846001600160a01b031614949350505050565b60005b8151811015610c5b57610ba88383838151811061063457fe5b610c5357600160008481548110610bbb57fe5b90600052602060002090600202016001016000848481518110610bda57fe5b6020026020010151815260200190815260200160002060006101000a81548160ff021916908315150217905550827f07cfe25e4b14780897cda3f2e73a50b728b4363e3bc6ff3fcd0c70e09f2b19dd838381518110610c3557fe5b6020026020010151604051610c4a9190611274565b60405180910390a25b600101610b8f565b505050565b80356102fe816113a2565b80516102fe816113a2565b60008083601f840112610c8857600080fd5b50813567ffffffffffffffff811115610ca057600080fd5b602083019150836020820283011115610cb857600080fd5b9250929050565b600082601f830112610cd057600080fd5b8135610ce3610cde82611321565b6112fa565b91508181835260208401935060208101905083856020840282011115610d0857600080fd5b60005b83811015610d345781610d1e8882610d49565b8452506020928301929190910190600101610d0b565b5050505092915050565b80356102fe816113b6565b80356102fe816113c3565b600060208284031215610d6657600080fd5b6000610aa48484610c6b565b60008060008060608587031215610d8857600080fd5b6000610d948787610c60565b9450506020610da587828801610d3e565b935050604085013567ffffffffffffffff811115610dc257600080fd5b610dce87828801610c76565b95989497509550505050565b60008060008060408587031215610df057600080fd5b843567ffffffffffffffff811115610e0757600080fd5b610e1387828801610c76565b9450945050602085013567ffffffffffffffff811115610dc257600080fd5b60008060408385031215610e4557600080fd5b823567ffffffffffffffff811115610e5c57600080fd5b610e6885828601610cbf565b925050602083013567ffffffffffffffff811115610e8557600080fd5b610e9185828601610cbf565b9150509250929050565b60008060408385031215610eae57600080fd5b823567ffffffffffffffff811115610ec557600080fd5b610ed185828601610cbf565b9250506020610e9185828601610d49565b600060208284031215610ef457600080fd5b6000610aa48484610d49565b60008060408385031215610f1357600080fd5b6000610f1f8585610d49565b9250506020610e9185828601610c60565b600080600060408486031215610f4557600080fd5b6000610f518686610d49565b935050602084013567ffffffffffffffff811115610f6e57600080fd5b610f7a86828701610c76565b92509250509250925092565b60008060408385031215610f9957600080fd5b6000610e688585610d49565b60008060408385031215610fb857600080fd5b6000610fc48585610d49565b9250506020610e9185828601610d3e565b60008060408385031215610fe857600080fd5b6000610ed18585610d49565b610ffd8161134b565b82525050565b610ffd81611356565b610ffd81611374565b60006110218385611342565b935061102e83858461137f565b6110378361138b565b9093019392505050565b600061104e601b83611342565b7f4f6e6c792063616c6c61626c65206279206c697374206f776e65720000000000815260200192915050565b6000611087601b83611342565b7f6174746573744c697374733a20556e657175616c206172726179730000000000815260200192915050565b60006110c0602883611342565b7f6174746573744c697374733a204f6e6c792063616c6c61626c65206279206c6981526739ba1037bbb732b960c11b602082015260400192915050565b600061110a602783611342565b7f72656d6f766546726f6d4c6973743a2043616e6e6f742072656d6f76652066728152661bdb481b1a5cdd60ca1b602082015260400192915050565b6000611153601d83611342565b7f616464546f4c6973743a2043616e6e6f742061646420746f206c697374000000815260200192915050565b600061118c602e83611342565b7f7365744c697374557064617465547970653a205f6e657874557064617465547981526d1c19481b9bdd08185b1b1bddd95960921b602082015260400192915050565b610ffd81611371565b602081016102fe8284610ff4565b602081016102fe8284611003565b602081016102fe828461100c565b60208082528101610aa4818486611015565b602080825281016102fe81611041565b602080825281016102fe8161107a565b602080825281016102fe816110b3565b602080825281016102fe816110fd565b602080825281016102fe81611146565b602080825281016102fe8161117f565b602081016102fe82846111cf565b6040810161129082856111cf565b61129d602083018461100c565b9392505050565b6000808335601e19368590030181126112bc57600080fd5b80840192508235915067ffffffffffffffff8211156112da57600080fd5b6020830192506001820236038313156112f257600080fd5b509250929050565b60405181810167ffffffffffffffff8111828210171561131957600080fd5b604052919050565b600067ffffffffffffffff82111561133857600080fd5b5060209081020190565b90815260200190565b60006102fe82611365565b151590565b806102c581611395565b6001600160a01b031690565b90565b60006102fe8261135b565b82818337506000910152565b601f01601f191690565b6004811061139f57fe5b50565b6113ab8161134b565b811461139f57600080fd5b6004811061139f57600080fd5b6113ab8161137156fea164736f6c634300060c000a","linkReferences":{}},"methodIdentifiers":{"addToList(uint256,uint256[])":"4e4edcd0","areAllInAllLists(uint256[],uint256[])":"2a182965","areAllInList(uint256,uint256[])":"e75411ef","areAllInSomeOfLists(uint256[],uint256[])":"82b71976","areAllNotInAnyOfLists(uint256[],uint256[])":"a62b2727","areAllNotInList(uint256,uint256[])":"7e7f6936","attestLists(uint256[],string[])":"b426f946","createList(address,uint8,uint256[])":"f71e4669","getDispatcher()":"ebb3d589","getListCount()":"2ce37b10","getListOwner(uint256)":"19bcc938","getListUpdateType(uint256)":"539f2ab4","isInAllLists(uint256[],uint256)":"42a61ecd","isInList(uint256,uint256)":"285ddf3c","isInSomeOfLists(uint256[],uint256)":"4ee5b4aa","removeFromList(uint256,uint256[])":"2cfd1d16","setListOwner(uint256,address)":"956e8faa","setListUpdateType(uint256,uint8)":"ee4483dc"},"id":118}