{"abi":[{"type":"constructor","inputs":[{"name":"_fundDeployer","type":"address","internalType":"address"},{"name":"_policyManager","type":"address","internalType":"address"},{"name":"_valueInterpreter","type":"address","internalType":"address"}],"stateMutability":"nonpayable"},{"type":"function","name":"activateForFund","inputs":[{"name":"","type":"bool","internalType":"bool"}],"outputs":[],"stateMutability":"nonpayable"},{"type":"function","name":"deactivateForFund","inputs":[],"outputs":[],"stateMutability":"nonpayable"},{"type":"function","name":"getFundDeployer","inputs":[],"outputs":[{"name":"fundDeployer_","type":"address","internalType":"address"}],"stateMutability":"view"},{"type":"function","name":"getOwner","inputs":[],"outputs":[{"name":"owner_","type":"address","internalType":"address"}],"stateMutability":"view"},{"type":"function","name":"getPolicyManager","inputs":[],"outputs":[{"name":"policyManager_","type":"address","internalType":"address"}],"stateMutability":"view"},{"type":"function","name":"getValueInterpreter","inputs":[],"outputs":[{"name":"valueInterpreter_","type":"address","internalType":"address"}],"stateMutability":"view"},{"type":"function","name":"getVaultProxyForFund","inputs":[{"name":"_comptrollerProxy","type":"address","internalType":"address"}],"outputs":[{"name":"vaultProxy_","type":"address","internalType":"address"}],"stateMutability":"view"},{"type":"function","name":"receiveCallFromComptroller","inputs":[{"name":"_caller","type":"address","internalType":"address"},{"name":"_actionId","type":"uint256","internalType":"uint256"},{"name":"_callArgs","type":"bytes","internalType":"bytes"}],"outputs":[],"stateMutability":"nonpayable"},{"type":"function","name":"setConfigForFund","inputs":[{"name":"_comptrollerProxy","type":"address","internalType":"address"},{"name":"_vaultProxy","type":"address","internalType":"address"},{"name":"","type":"bytes","internalType":"bytes"}],"outputs":[],"stateMutability":"nonpayable"},{"type":"event","name":"CallOnIntegrationExecutedForFund","inputs":[{"name":"comptrollerProxy","type":"address","indexed":true,"internalType":"address"},{"name":"caller","type":"address","indexed":false,"internalType":"address"},{"name":"adapter","type":"address","indexed":true,"internalType":"address"},{"name":"selector","type":"bytes4","indexed":true,"internalType":"bytes4"},{"name":"integrationData","type":"bytes","indexed":false,"internalType":"bytes"},{"name":"incomingAssets","type":"address[]","indexed":false,"internalType":"address[]"},{"name":"incomingAssetAmounts","type":"uint256[]","indexed":false,"internalType":"uint256[]"},{"name":"spendAssets","type":"address[]","indexed":false,"internalType":"address[]"},{"name":"spendAssetAmounts","type":"uint256[]","indexed":false,"internalType":"uint256[]"}],"anonymous":false},{"type":"event","name":"ValidatedVaultProxySetForFund","inputs":[{"name":"comptrollerProxy","type":"address","indexed":true,"internalType":"address"},{"name":"vaultProxy","type":"address","indexed":true,"internalType":"address"}],"anonymous":false}],"bytecode":{"object":"0x60e060405234801561001057600080fd5b506040516132473803806132478339818101604052606081101561003357600080fd5b8101908080519060200190929190805190602001909291908051906020019092919050505082808073ffffffffffffffffffffffffffffffffffffffff1660808173ffffffffffffffffffffffffffffffffffffffff1660601b8152505050508173ffffffffffffffffffffffffffffffffffffffff1660a08173ffffffffffffffffffffffffffffffffffffffff1660601b815250508073ffffffffffffffffffffffffffffffffffffffff1660c08173ffffffffffffffffffffffffffffffffffffffff1660601b8152505050505060805160601c60a05160601c60c05160601c61310961013e600039806106dd5250806107d752508061070552806107ad52506131096000f3fe608060405234801561001057600080fd5b50600436106100935760003560e01c8063893d20e811610066578063893d20e81461020d57806397c0ac8714610241578063bd8e959a14610275578063d44ad6cb1461027f578063f067cc11146102b357610093565b80631bee801e14610098578063467903461461013b57806380d57063146101a9578063875fb4b3146101d9575b600080fd5b610139600480360360608110156100ae57600080fd5b81019080803573ffffffffffffffffffffffffffffffffffffffff16906020019092919080359060200190929190803590602001906401000000008111156100f557600080fd5b82018360208201111561010757600080fd5b8035906020019184600183028401116401000000008311171561012957600080fd5b909192939192939050505061036c565b005b61017d6004803603602081101561015157600080fd5b81019080803573ffffffffffffffffffffffffffffffffffffffff16906020019092919050505061066e565b604051808273ffffffffffffffffffffffffffffffffffffffff16815260200191505060405180910390f35b6101d7600480360360208110156101bf57600080fd5b810190808035151590602001909291905050506106d6565b005b6101e16106d9565b604051808273ffffffffffffffffffffffffffffffffffffffff16815260200191505060405180910390f35b610215610701565b604051808273ffffffffffffffffffffffffffffffffffffffff16815260200191505060405180910390f35b6102496107a9565b604051808273ffffffffffffffffffffffffffffffffffffffff16815260200191505060405180910390f35b61027d6107d1565b005b6102876107d3565b604051808273ffffffffffffffffffffffffffffffffffffffff16815260200191505060405180910390f35b61036a600480360360608110156102c957600080fd5b81019080803573ffffffffffffffffffffffffffffffffffffffff169060200190929190803573ffffffffffffffffffffffffffffffffffffffff1690602001909291908035906020019064010000000081111561032657600080fd5b82018360208201111561033857600080fd5b8035906020019184600183028401116401000000008311171561035a57600080fd5b90919293919293905050506107fb565b005b6000339050600061037c8261066e565b9050600073ffffffffffffffffffffffffffffffffffffffff168173ffffffffffffffffffffffffffffffffffffffff161415610404576040517f08c379a000000000000000000000000000000000000000000000000000000000815260040180806020018281038252602d81526020018061306d602d913960400191505060405180910390fd5b8073ffffffffffffffffffffffffffffffffffffffff1663714ca2d1876040518263ffffffff1660e01b8152600401808273ffffffffffffffffffffffffffffffffffffffff16815260200191505060206040518083038186803b15801561046b57600080fd5b505afa15801561047f573d6000803e3d6000fd5b505050506040513d602081101561049557600080fd5b81019080805190602001909291905050506104fb576040517f08c379a0000000000000000000000000000000000000000000000000000000008152600401808060200182810382526028815260200180612fbb6028913960400191505060405180910390fd5b60008514156105595761055486838387878080601f016020809104026020016040519081016040528093929190818152602001838380828437600081840152601f19601f82011690508083019250505050505050610896565b610666565b60018514156105b6576105b1868386868080601f016020809104026020016040519081016040528093929190818152602001838380828437600081840152601f19601f82011690508083019250505050505050610ea9565b610665565b60028514156106135761060e868386868080601f016020809104026020016040519081016040528093929190818152602001838380828437600081840152601f19601f8201169050808301925050505050505061122e565b610664565b6040517f08c379a000000000000000000000000000000000000000000000000000000000815260040180806020018281038252602d815260200180612f62602d913960400191505060405180910390fd5b5b5b505050505050565b60008060008373ffffffffffffffffffffffffffffffffffffffff1673ffffffffffffffffffffffffffffffffffffffff16815260200190815260200160002060009054906101000a900473ffffffffffffffffffffffffffffffffffffffff169050919050565b50565b60007f0000000000000000000000000000000000000000000000000000000000000000905090565b60007f000000000000000000000000000000000000000000000000000000000000000073ffffffffffffffffffffffffffffffffffffffff1663893d20e86040518163ffffffff1660e01b815260040160206040518083038186803b15801561076957600080fd5b505afa15801561077d573d6000803e3d6000fd5b505050506040513d602081101561079357600080fd5b8101908080519060200190929190505050905090565b60007f0000000000000000000000000000000000000000000000000000000000000000905090565b565b60007f0000000000000000000000000000000000000000000000000000000000000000905090565b6108036107a9565b73ffffffffffffffffffffffffffffffffffffffff163373ffffffffffffffffffffffffffffffffffffffff1614610886576040517f08c379a00000000000000000000000000000000000000000000000000000000081526004018080602001828103825260288152602001806130456028913960400191505060405180910390fd5b61089084846114a2565b50505050565b8173ffffffffffffffffffffffffffffffffffffffff16635a53e3486040518163ffffffff1660e01b815260040160206040518083038186803b1580156108dc57600080fd5b505afa1580156108f0573d6000803e3d6000fd5b505050506040513d602081101561090657600080fd5b810190808051906020019092919050505073ffffffffffffffffffffffffffffffffffffffff168373ffffffffffffffffffffffffffffffffffffffff161461099a576040517f08c379a000000000000000000000000000000000000000000000000000000000815260040180806020018281038252602e815260200180612edf602e913960400191505060405180910390fd5b60008060606109a88461157d565b9250925092506060806060806109c18a8a898989611673565b93509350935093506109d16107d3565b73ffffffffffffffffffffffffffffffffffffffff16630442bad58b60018e8b8b8a8a8a8a604051602001808873ffffffffffffffffffffffffffffffffffffffff1681526020018773ffffffffffffffffffffffffffffffffffffffff168152602001867bffffffffffffffffffffffffffffffffffffffffffffffffffffffff1916815260200180602001806020018060200180602001858103855289818151815260200191508051906020019060200280838360005b83811015610aa5578082015181840152602081019050610a8a565b50505050905001858103845288818151815260200191508051906020019060200280838360005b83811015610ae7578082015181840152602081019050610acc565b50505050905001858103835287818151815260200191508051906020019060200280838360005b83811015610b29578082015181840152602081019050610b0e565b50505050905001858103825286818151815260200191508051906020019060200280838360005b83811015610b6b578082015181840152602081019050610b50565b505050509050019b5050505050505050505050506040516020818303038152906040526040518463ffffffff1660e01b8152600401808473ffffffffffffffffffffffffffffffffffffffff168152602001836009811115610bc957fe5b815260200180602001828103825283818151815260200191508051906020019080838360005b83811015610c0a578082015181840152602081019050610bef565b50505050905090810190601f168015610c375780820380516001836020036101000a031916815260200191505b50945050505050600060405180830381600087803b158015610c5857600080fd5b505af1158015610c6c573d6000803e3d6000fd5b50505050857bffffffffffffffffffffffffffffffffffffffffffffffffffffffff19168773ffffffffffffffffffffffffffffffffffffffff168b73ffffffffffffffffffffffffffffffffffffffff167ff9a77e6aa0d5e80e8c932c9586e789fc0f4efe610f844fc982129c6f385bfffa8e8989898989604051808773ffffffffffffffffffffffffffffffffffffffff168152602001806020018060200180602001806020018060200186810386528b818151815260200191508051906020019080838360005b83811015610d51578082015181840152602081019050610d36565b50505050905090810190601f168015610d7e5780820380516001836020036101000a031916815260200191505b5086810385528a818151815260200191508051906020019060200280838360005b83811015610dba578082015181840152602081019050610d9f565b50505050905001868103845289818151815260200191508051906020019060200280838360005b83811015610dfc578082015181840152602081019050610de1565b50505050905001868103835288818151815260200191508051906020019060200280838360005b83811015610e3e578082015181840152602081019050610e23565b50505050905001868103825287818151815260200191508051906020019060200280838360005b83811015610e80578082015181840152602081019050610e65565b505050509050019b50505050505050505050505060405180910390a45050505050505050505050565b6060818060200190516020811015610ec057600080fd5b8101908080516040519392919084640100000000821115610ee057600080fd5b83820191506020820185811115610ef657600080fd5b8251866020820283011164010000000082111715610f1357600080fd5b8083526020830192505050908051906020019060200280838360005b83811015610f4a578082015181840152602081019050610f2f565b505050509050016040525050509050610f616107d3565b73ffffffffffffffffffffffffffffffffffffffff16630442bad58460048785604051602001808373ffffffffffffffffffffffffffffffffffffffff16815260200180602001828103825283818151815260200191508051906020019060200280838360005b83811015610fe3578082015181840152602081019050610fc8565b5050505090500193505050506040516020818303038152906040526040518463ffffffff1660e01b8152600401808473ffffffffffffffffffffffffffffffffffffffff16815260200183600981111561103957fe5b815260200180602001828103825283818151815260200191508051906020019080838360005b8381101561107a57808201518184015260208101905061105f565b50505050905090810190601f1680156110a75780820380516001836020036101000a031916815260200191505b50945050505050600060405180830381600087803b1580156110c857600080fd5b505af11580156110dc573d6000803e3d6000fd5b5050505060005b8151811015611227576110f46106d9565b73ffffffffffffffffffffffffffffffffffffffff16639be918e683838151811061111b57fe5b60200260200101516040518263ffffffff1660e01b8152600401808273ffffffffffffffffffffffffffffffffffffffff16815260200191505060206040518083038186803b15801561116d57600080fd5b505afa158015611181573d6000803e3d6000fd5b505050506040513d602081101561119757600080fd5b81019080805190602001909291905050506111fd576040517f08c379a000000000000000000000000000000000000000000000000000000000815260040180806020018281038252602c815260200180612f36602c913960400191505060405180910390fd5b61121a8483838151811061120d57fe5b60200260200101516117d4565b80806001019150506110e3565b5050505050565b606081806020019051602081101561124557600080fd5b810190808051604051939291908464010000000082111561126557600080fd5b8382019150602082018581111561127b57600080fd5b825186602082028301116401000000008211171561129857600080fd5b8083526020830192505050908051906020019060200280838360005b838110156112cf5780820151818401526020810190506112b4565b5050505090500160405250505090506112e66107d3565b73ffffffffffffffffffffffffffffffffffffffff16630442bad58460058785604051602001808373ffffffffffffffffffffffffffffffffffffffff16815260200180602001828103825283818151815260200191508051906020019060200280838360005b8381101561136857808201518184015260208101905061134d565b5050505090500193505050506040516020818303038152906040526040518463ffffffff1660e01b8152600401808473ffffffffffffffffffffffffffffffffffffffff1681526020018360098111156113be57fe5b815260200180602001828103825283818151815260200191508051906020019080838360005b838110156113ff5780820151818401526020810190506113e4565b50505050905090810190601f16801561142c5780820380516001836020036101000a031916815260200191505b50945050505050600060405180830381600087803b15801561144d57600080fd5b505af1158015611461573d6000803e3d6000fd5b5050505060005b815181101561149b5761148e8483838151811061148157fe5b60200260200101516118f1565b8080600101915050611468565b5050505050565b806000808473ffffffffffffffffffffffffffffffffffffffff1673ffffffffffffffffffffffffffffffffffffffff16815260200190815260200160002060006101000a81548173ffffffffffffffffffffffffffffffffffffffff021916908373ffffffffffffffffffffffffffffffffffffffff1602179055508073ffffffffffffffffffffffffffffffffffffffff168273ffffffffffffffffffffffffffffffffffffffff167f8852dcaa71340ea616a65ffac013450dfb238607481fb9d78346c667fe256c1360405160405180910390a35050565b600080606083806020019051606081101561159757600080fd5b810190808051906020019092919080519060200190929190805160405193929190846401000000008211156115cb57600080fd5b838201915060208201858111156115e157600080fd5b82518660018202830111640100000000821117156115fe57600080fd5b8083526020830192505050908051906020019080838360005b83811015611632578082015181840152602081019050611617565b50505050905090810190601f16801561165f5780820380516001836020036101000a031916815260200191505b506040525050509250925092509193909250565b606080606080606080600060608061168e8e8e8e8e8e611a0e565b809750819850829d50839950849a50859b50869f50505050505050506117a98d8d8d8d8b878f60405160200180806020018060200180602001848103845287818151815260200191508051906020019060200280838360005b838110156117025780820151818401526020810190506116e7565b50505050905001848103835286818151815260200191508051906020019060200280838360005b83811015611744578082015181840152602081019050611729565b50505050905001848103825285818151815260200191508051906020019060200280838360005b8381101561178657808201518184015260208101905061176b565b50505050905001965050505050505060405160208183030381529060405261235b565b6117bb8e8e8e8c8989898e8a8a612626565b8097508199505050505050505095509550955095915050565b8173ffffffffffffffffffffffffffffffffffffffff166310acd06d600483604051602001808273ffffffffffffffffffffffffffffffffffffffff1681526020019150506040516020818303038152906040526040518363ffffffff1660e01b81526004018083600a81111561184757fe5b815260200180602001828103825283818151815260200191508051906020019080838360005b8381101561188857808201518184015260208101905061186d565b50505050905090810190601f1680156118b55780820380516001836020036101000a031916815260200191505b509350505050600060405180830381600087803b1580156118d557600080fd5b505af11580156118e9573d6000803e3d6000fd5b505050505050565b8173ffffffffffffffffffffffffffffffffffffffff166310acd06d600683604051602001808273ffffffffffffffffffffffffffffffffffffffff1681526020019150506040516020818303038152906040526040518363ffffffff1660e01b81526004018083600a81111561196457fe5b815260200180602001828103825283818151815260200191508051906020019080838360005b838110156119a557808201518184015260208101905061198a565b50505050905090810190601f1680156119d25780820380516001836020036101000a031916815260200191505b509350505050600060405180830381600087803b1580156119f257600080fd5b505af1158015611a06573d6000803e3d6000fd5b505050505050565b6060806060600060608060608973ffffffffffffffffffffffffffffffffffffffff1663c54efee58c8b8b6040518463ffffffff1660e01b8152600401808473ffffffffffffffffffffffffffffffffffffffff168152602001837bffffffffffffffffffffffffffffffffffffffffffffffffffffffff1916815260200180602001828103825283818151815260200191508051906020019080838360005b83811015611ac9578082015181840152602081019050611aae565b50505050905090810190601f168015611af65780820380516001836020036101000a031916815260200191505b5094505050505060006040518083038186803b158015611b1557600080fd5b505afa158015611b29573d6000803e3d6000fd5b505050506040513d6000823e3d601f19601f8201168201806040525060a0811015611b5357600080fd5b810190808051906020019092919080516040519392919084640100000000821115611b7d57600080fd5b83820191506020820185811115611b9357600080fd5b8251866020820283011164010000000082111715611bb057600080fd5b8083526020830192505050908051906020019060200280838360005b83811015611be7578082015181840152602081019050611bcc565b5050505090500160405260200180516040519392919084640100000000821115611c1057600080fd5b83820191506020820185811115611c2657600080fd5b8251866020820283011164010000000082111715611c4357600080fd5b8083526020830192505050908051906020019060200280838360005b83811015611c7a578082015181840152602081019050611c5f565b5050505090500160405260200180516040519392919084640100000000821115611ca357600080fd5b83820191506020820185811115611cb957600080fd5b8251866020820283011164010000000082111715611cd657600080fd5b8083526020830192505050908051906020019060200280838360005b83811015611d0d578082015181840152602081019050611cf2565b5050505090500160405260200180516040519392919084640100000000821115611d3657600080fd5b83820191506020820185811115611d4c57600080fd5b8251866020820283011164010000000082111715611d6957600080fd5b8083526020830192505050908051906020019060200280838360005b83811015611da0578082015181840152602081019050611d85565b50505050905001604052505050809950819b5082965083975084985050505050508151835114611e1b576040517f08c379a000000000000000000000000000000000000000000000000000000000815260040180806020018281038252602c815260200180612f8f602c913960400191505060405180910390fd5b8451875114611e75576040517f08c379a000000000000000000000000000000000000000000000000000000000815260040180806020018281038252602f81526020018061309a602f913960400191505060405180910390fd5b611e7e83612a34565b611ed3576040517f08c379a0000000000000000000000000000000000000000000000000000000008152600401808060200182810382526026815260200180612fe36026913960400191505060405180910390fd5b611edc87612a34565b611f31576040517f08c379a0000000000000000000000000000000000000000000000000000000008152600401808060200182810382526029815260200180612f0d6029913960400191505060405180910390fd5b865167ffffffffffffffff81118015611f4957600080fd5b50604051908082528060200260200182016040528015611f785781602001602082028036833780820191505090505b50955060005b875181101561217257611f8f6106d9565b73ffffffffffffffffffffffffffffffffffffffff16639be918e6898381518110611fb657fe5b60200260200101516040518263ffffffff1660e01b8152600401808273ffffffffffffffffffffffffffffffffffffffff16815260200191505060206040518083038186803b15801561200857600080fd5b505afa15801561201c573d6000803e3d6000fd5b505050506040513d602081101561203257600080fd5b8101908080519060200190929190505050612098576040517f08c379a000000000000000000000000000000000000000000000000000000000815260040180806020018281038252602e815260200180612eb1602e913960400191505060405180910390fd5b8781815181106120a457fe5b602002602001015173ffffffffffffffffffffffffffffffffffffffff166370a082318d6040518263ffffffff1660e01b8152600401808273ffffffffffffffffffffffffffffffffffffffff16815260200191505060206040518083038186803b15801561211257600080fd5b505afa158015612126573d6000803e3d6000fd5b505050506040513d602081101561213c57600080fd5b810190808051906020019092919050505087828151811061215957fe5b6020026020010181815250508080600101915050611f7e565b50825167ffffffffffffffff8111801561218b57600080fd5b506040519080825280602002602001820160405280156121ba5781602001602082028036833780820191505090505b50905060005b835181101561234b578381815181106121d557fe5b602002602001015173ffffffffffffffffffffffffffffffffffffffff166370a082318d6040518263ffffffff1660e01b8152600401808273ffffffffffffffffffffffffffffffffffffffff16815260200191505060206040518083038186803b15801561224357600080fd5b505afa158015612257573d6000803e3d6000fd5b505050506040513d602081101561226d57600080fd5b810190808051906020019092919050505082828151811061228a57fe5b602002602001018181525050600160028111156122a357fe5b8560028111156122af57fe5b14156122ec576122e78d8583815181106122c557fe5b60200260200101518d8685815181106122da57fe5b6020026020010151612af7565b61233e565b6002808111156122f857fe5b85600281111561230457fe5b141561233d5761233c8d85838151811061231a57fe5b60200260200101518d86858151811061232f57fe5b6020026020010151612c3c565b5b5b80806001019150506121c0565b50959b949a509550955095509550565b600060608573ffffffffffffffffffffffffffffffffffffffff1685888686604051602401808473ffffffffffffffffffffffffffffffffffffffff1681526020018060200180602001838103835285818151815260200191508051906020019080838360005b838110156123dd5780820151818401526020810190506123c2565b50505050905090810190601f16801561240a5780820380516001836020036101000a031916815260200191505b50838103825284818151815260200191508051906020019080838360005b83811015612443578082015181840152602081019050612428565b50505050905090810190601f1680156124705780820380516001836020036101000a031916815260200191505b5095505050505050604051602081830303815290604052907bffffffffffffffffffffffffffffffffffffffffffffffffffffffff19166020820180517bffffffffffffffffffffffffffffffffffffffffffffffffffffffff83818316178352505050506040518082805190602001908083835b6020831061250857805182526020820191506020810190506020830392506124e5565b6001836020036101000a0380198251168184511680821785525050505050509050019150506000604051808303816000865af19150503d806000811461256a576040519150601f19603f3d011682016040523d82523d6000602084013e61256f565b606091505b509150915081819061261c576040517f08c379a00000000000000000000000000000000000000000000000000000000081526004018080602001828103825283818151815260200191508051906020019080838360005b838110156125e15780820151818401526020810190506125c6565b50505050905090810190601f16801561260e5780820380516001836020036101000a031916815260200191505b509250505060405180910390fd5b5050505050505050565b606080885167ffffffffffffffff8111801561264157600080fd5b506040519080825280602002602001820160405280156126705781602001602082028036833780820191505090505b50915060005b8951811015612782576126c189828151811061268e57fe5b60200260200101516126b38e8d85815181106126a657fe5b6020026020010151612d81565b612e2d90919063ffffffff16565b8382815181106126cd57fe5b6020026020010181815250508781815181106126e557fe5b60200260200101518382815181106126f957fe5b60200260200101511015612758576040517f08c379a000000000000000000000000000000000000000000000000000000000815260040180806020018281038252603c815260200180613009603c913960400191505060405180910390fd5b6127758d8b838151811061276857fe5b60200260200101516117d4565b8080600101915050612676565b50845167ffffffffffffffff8111801561279b57600080fd5b506040519080825280602002602001820160405280156127ca5781602001602082028036833780820191505090505b50905060005b8551811015612a245760006127f88d8884815181106127eb57fe5b6020026020010151612d81565b905084828151811061280657fe5b60200260200101518110156128545761283b8186848151811061282557fe5b6020026020010151612e2d90919063ffffffff16565b83838151811061284757fe5b6020026020010181815250505b6001600281111561286157fe5b88600281111561286d57fe5b14801561294c5750600087838151811061288357fe5b602002602001015173ffffffffffffffffffffffffffffffffffffffff1663dd62ed3e8f8f6040518363ffffffff1660e01b8152600401808373ffffffffffffffffffffffffffffffffffffffff1681526020018273ffffffffffffffffffffffffffffffffffffffff1681526020019250505060206040518083038186803b15801561290f57600080fd5b505afa158015612923573d6000803e3d6000fd5b505050506040513d602081101561293957600080fd5b8101908080519060200190929190505050115b15612976576129718e88848151811061296157fe5b60200260200101518e6000612af7565b612a16565b6000600281111561298357fe5b88600281111561298f57fe5b1415612a15578582815181106129a157fe5b60200260200101518383815181106129b557fe5b60200260200101511115612a14576040517f08c379a00000000000000000000000000000000000000000000000000000000081526004018080602001828103825260348152602001806130c96034913960400191505060405180910390fd5b5b5b5080806001019150506127d0565b509a509a98505050505050505050565b60006001825111612a485760019050612af2565b60008251905060005b81811015612aeb5760006001820190505b82811015612add57848181518110612a7657fe5b602002602001015173ffffffffffffffffffffffffffffffffffffffff16858381518110612aa057fe5b602002602001015173ffffffffffffffffffffffffffffffffffffffff161415612ad05760009350505050612af2565b8080600101915050612a62565b508080600101915050612a51565b5060019150505b919050565b8373ffffffffffffffffffffffffffffffffffffffff166310acd06d6005858585604051602001808473ffffffffffffffffffffffffffffffffffffffff1681526020018373ffffffffffffffffffffffffffffffffffffffff16815260200182815260200193505050506040516020818303038152906040526040518363ffffffff1660e01b81526004018083600a811115612b9057fe5b815260200180602001828103825283818151815260200191508051906020019080838360005b83811015612bd1578082015181840152602081019050612bb6565b50505050905090810190601f168015612bfe5780820380516001836020036101000a031916815260200191505b509350505050600060405180830381600087803b158015612c1e57600080fd5b505af1158015612c32573d6000803e3d6000fd5b5050505050505050565b8373ffffffffffffffffffffffffffffffffffffffff166310acd06d6007858585604051602001808473ffffffffffffffffffffffffffffffffffffffff1681526020018373ffffffffffffffffffffffffffffffffffffffff16815260200182815260200193505050506040516020818303038152906040526040518363ffffffff1660e01b81526004018083600a811115612cd557fe5b815260200180602001828103825283818151815260200191508051906020019080838360005b83811015612d16578082015181840152602081019050612cfb565b50505050905090810190601f168015612d435780820380516001836020036101000a031916815260200191505b509350505050600060405180830381600087803b158015612d6357600080fd5b505af1158015612d77573d6000803e3d6000fd5b5050505050505050565b60008173ffffffffffffffffffffffffffffffffffffffff166370a08231846040518263ffffffff1660e01b8152600401808273ffffffffffffffffffffffffffffffffffffffff16815260200191505060206040518083038186803b158015612dea57600080fd5b505afa158015612dfe573d6000803e3d6000fd5b505050506040513d6020811015612e1457600080fd5b8101908080519060200190929190505050905092915050565b600082821115612ea5576040517f08c379a000000000000000000000000000000000000000000000000000000000815260040180806020018281038252601e8152602001807f536166654d6174683a207375627472616374696f6e206f766572666c6f77000081525060200191505060405180910390fd5b81830390509291505056fe5f5f70726550726f63657373436f493a204e6f6e2d72656365697661626c6520696e636f6d696e672061737365747265636569766543616c6c46726f6d436f6d7074726f6c6c65723a2046756e64206973206e6f74206163746976655f5f70726550726f63657373436f493a204475706c696361746520696e636f6d696e672061737365745f5f616464547261636b6564417373657473546f5661756c743a20556e737570706f727465642061737365747265636569766543616c6c46726f6d436f6d7074726f6c6c65723a20496e76616c6964205f616374696f6e49645f5f70726550726f63657373436f493a205370656e64206173736574732061727261797320756e657175616c7265636569766543616c6c46726f6d436f6d7074726f6c6c65723a20556e617574686f72697a65645f5f70726550726f63657373436f493a204475706c6963617465207370656e642061737365745f5f706f737450726f63657373436f493a20526563656976656420696e636f6d696e67206173736574206c657373207468616e2065787065637465644f6e6c79207468652046756e644465706c6f7965722063616e206d616b6520746869732063616c6c7265636569766543616c6c46726f6d436f6d7074726f6c6c65723a2046756e64206973206e6f742076616c69645f5f70726550726f63657373436f493a20496e636f6d696e67206173736574732061727261797320756e657175616c5f5f706f737450726f63657373436f493a205370656e7420616d6f756e742067726561746572207468616e206578706563746564a164736f6c634300060c000a","linkReferences":{}},"methodIdentifiers":{"activateForFund(bool)":"80d57063","deactivateForFund()":"bd8e959a","getFundDeployer()":"97c0ac87","getOwner()":"893d20e8","getPolicyManager()":"d44ad6cb","getValueInterpreter()":"875fb4b3","getVaultProxyForFund(address)":"46790346","receiveCallFromComptroller(address,uint256,bytes)":"1bee801e","setConfigForFund(address,address,bytes)":"f067cc11"},"id":205}