{"abi":[{"type":"constructor","inputs":[],"stateMutability":"nonpayable"},{"type":"function","name":"EIP712_DOMAIN_TYPE","inputs":[],"outputs":[{"name":"","type":"string","internalType":"string"}],"stateMutability":"view"},{"type":"function","name":"GENERIC_PARAMS","inputs":[],"outputs":[{"name":"","type":"string","internalType":"string"}],"stateMutability":"view"},{"type":"function","name":"_getEncoded","inputs":[{"name":"req","type":"tuple","internalType":"struct IForwarder.ForwardRequest","components":[{"name":"from","type":"address","internalType":"address"},{"name":"to","type":"address","internalType":"address"},{"name":"value","type":"uint256","internalType":"uint256"},{"name":"gas","type":"uint256","internalType":"uint256"},{"name":"nonce","type":"uint256","internalType":"uint256"},{"name":"data","type":"bytes","internalType":"bytes"},{"name":"validUntil","type":"uint256","internalType":"uint256"}]},{"name":"requestTypeHash","type":"bytes32","internalType":"bytes32"},{"name":"suffixData","type":"bytes","internalType":"bytes"}],"outputs":[{"name":"","type":"bytes","internalType":"bytes"}],"stateMutability":"pure"},{"type":"function","name":"domains","inputs":[{"name":"","type":"bytes32","internalType":"bytes32"}],"outputs":[{"name":"","type":"bool","internalType":"bool"}],"stateMutability":"view"},{"type":"function","name":"execute","inputs":[{"name":"req","type":"tuple","internalType":"struct IForwarder.ForwardRequest","components":[{"name":"from","type":"address","internalType":"address"},{"name":"to","type":"address","internalType":"address"},{"name":"value","type":"uint256","internalType":"uint256"},{"name":"gas","type":"uint256","internalType":"uint256"},{"name":"nonce","type":"uint256","internalType":"uint256"},{"name":"data","type":"bytes","internalType":"bytes"},{"name":"validUntil","type":"uint256","internalType":"uint256"}]},{"name":"domainSeparator","type":"bytes32","internalType":"bytes32"},{"name":"requestTypeHash","type":"bytes32","internalType":"bytes32"},{"name":"suffixData","type":"bytes","internalType":"bytes"},{"name":"sig","type":"bytes","internalType":"bytes"}],"outputs":[{"name":"success","type":"bool","internalType":"bool"},{"name":"ret","type":"bytes","internalType":"bytes"}],"stateMutability":"payable"},{"type":"function","name":"getNonce","inputs":[{"name":"from","type":"address","internalType":"address"}],"outputs":[{"name":"","type":"uint256","internalType":"uint256"}],"stateMutability":"view"},{"type":"function","name":"registerDomainSeparator","inputs":[{"name":"name","type":"string","internalType":"string"},{"name":"version","type":"string","internalType":"string"}],"outputs":[],"stateMutability":"nonpayable"},{"type":"function","name":"registerRequestType","inputs":[{"name":"typeName","type":"string","internalType":"string"},{"name":"typeSuffix","type":"string","internalType":"string"}],"outputs":[],"stateMutability":"nonpayable"},{"type":"function","name":"typeHashes","inputs":[{"name":"","type":"bytes32","internalType":"bytes32"}],"outputs":[{"name":"","type":"bool","internalType":"bool"}],"stateMutability":"view"},{"type":"function","name":"verify","inputs":[{"name":"req","type":"tuple","internalType":"struct IForwarder.ForwardRequest","components":[{"name":"from","type":"address","internalType":"address"},{"name":"to","type":"address","internalType":"address"},{"name":"value","type":"uint256","internalType":"uint256"},{"name":"gas","type":"uint256","internalType":"uint256"},{"name":"nonce","type":"uint256","internalType":"uint256"},{"name":"data","type":"bytes","internalType":"bytes"},{"name":"validUntil","type":"uint256","internalType":"uint256"}]},{"name":"domainSeparator","type":"bytes32","internalType":"bytes32"},{"name":"requestTypeHash","type":"bytes32","internalType":"bytes32"},{"name":"suffixData","type":"bytes","internalType":"bytes"},{"name":"sig","type":"bytes","internalType":"bytes"}],"outputs":[],"stateMutability":"view"},{"type":"event","name":"DomainRegistered","inputs":[{"name":"domainSeparator","type":"bytes32","indexed":true,"internalType":"bytes32"},{"name":"domainValue","type":"bytes","indexed":false,"internalType":"bytes"}],"anonymous":false},{"type":"event","name":"RequestTypeRegistered","inputs":[{"name":"typeHash","type":"bytes32","indexed":true,"internalType":"bytes32"},{"name":"typeStr","type":"string","indexed":false,"internalType":"string"}],"anonymous":false}],"bytecode":{"object":"0x608060405234801561000f575f5ffd5b505f6040518060800160405280605d81526020016113cb605d913960405160200161003a91906100bc565b60408051601f1981840301815291905290506100558161005b565b5061012b565b80516020808301919091205f81815291829052604091829020805460ff19166001179055905181907f64d6bce64323458c44643c51fe45113efc882082f7b7fd5f09f0d69d2eedb202906100b09085906100f6565b60405180910390a25050565b6e08cdee4eec2e4c8a4cae2eacae6e85608b1b81525f82518060208501600f85015e602960f81b600f939091019283015250601001919050565b602081525f82518060208401528060208501604085015e5f604082850101526040601f19601f83011684010191505092915050565b611293806101385f395ff3fe60806040526004361061008f575f3560e01c8063c3f28abd11610057578063c3f28abd1461017d578063c722f17714610191578063d9210be5146101bf578063e024dc7f146101de578063e2b62f2d146101ff575f5ffd5b8063066a310c1461009357806321fe98df146100bd5780632d0335ab146100fb5780639c7b45921461013d578063ad9f99c71461015e575b5f5ffd5b34801561009e575f5ffd5b506100a761021e565b6040516100b49190610d49565b60405180910390f35b3480156100c8575f5ffd5b506100eb6100d7366004610d5b565b5f6020819052908152604090205460ff1681565b60405190151581526020016100b4565b348015610106575f5ffd5b5061012f610115366004610d72565b6001600160a01b03165f9081526002602052604090205490565b6040519081526020016100b4565b348015610148575f5ffd5b5061015c610157366004610ddd565b61023a565b005b348015610169575f5ffd5b5061015c610178366004610e5f565b61032e565b348015610188575f5ffd5b506100a761037a565b34801561019c575f5ffd5b506100eb6101ab366004610d5b565b60016020525f908152604090205460ff1681565b3480156101ca575f5ffd5b5061015c6101d9366004610ddd565b610396565b6101f16101ec366004610e5f565b610487565b6040516100b4929190610f0b565b34801561020a575f5ffd5b506100a7610219366004610f2d565b610643565b6040518060800160405280605d81526020016111af605d913981565b5f4690505f60405180608001604052806052815260200161120c6052913980519060200120868660405161026f929190610f85565b60405180910390208585604051610287929190610f85565b6040805191829003822060208301949094528101919091526060810191909152608081018390523060a082015260c00160408051601f1981840301815282825280516020808301919091205f81815260019283905293909320805460ff1916909117905592509081907f4bc68689cbe89a4a6333a3ab0a70093874da3e5bfb71e93102027f3f073687d89061031d908590610d49565b60405180910390a250505050505050565b6040870135156103595760405162461bcd60e51b815260040161035090610f94565b60405180910390fd5b610362876106dd565b61037187878787878787610758565b50505050505050565b60405180608001604052806052815260200161120c6052913981565b5f5b83811015610433575f8585838181106103b3576103b3610fe2565b909101356001600160f81b031916915050600560fb1b81148015906103e65750602960f81b6001600160f81b0319821614155b61042a5760405162461bcd60e51b81526020600482015260156024820152744657443a20696e76616c696420747970656e616d6560581b6044820152606401610350565b50600101610398565b505f84846040518060800160405280605d81526020016111af605d9139858560405160200161046695949392919061100d565b604051602081830303815290604052905061048081610908565b5050505050565b5f6060604089013515801561049a575034155b6104b65760405162461bcd60e51b815260040161035090610f94565b6104c589898989898989610758565b6104ce89610969565b60c089013515806104e25750438960c00135115b6105255760405162461bcd60e51b81526020600482015260146024820152731195d10e881c995c5d595cdd08195e1c1a5c995960621b6044820152606401610350565b5f61053360a08b018b61104d565b61054060208d018d610d72565b60405160200161055293929190611090565b6040516020818303038152906040529050896060013560405a61057690603f6110ca565b61058091906110e1565b10156105c65760405162461bcd60e51b81526020600482015260156024820152744657443a20696e73756666696369656e742067617360581b6044820152606401610350565b6105d660408b0160208c01610d72565b6001600160a01b03168a60600135826040516105f29190611100565b5f604051808303815f8787f1925050503d805f811461062c576040519150601f19603f3d011682016040523d82523d5f602084013e610631565b606091505b50909b909a5098505050505050505050565b6060836106536020870187610d72565b6001600160a01b031661066c6040880160208901610d72565b6001600160a01b03166040880135606089013560808a013561069160a08c018c61104d565b60405161069f929190610f85565b6040519081900381206106c49796959493929160c08e0135908c908c9060200161110b565b6040516020818303038152906040529050949350505050565b608081013560025f6106f26020850185610d72565b6001600160a01b03166001600160a01b031681526020019081526020015f2054146107555760405162461bcd60e51b815260206004820152601360248201527208cae887440dcdedcc6ca40dad2e6dac2e8c6d606b1b6044820152606401610350565b50565b5f8681526001602052604090205460ff166107b55760405162461bcd60e51b815260206004820152601d60248201527f4657443a20756e7265676973746572656420646f6d61696e207365702e0000006044820152606401610350565b5f8581526020819052604090205460ff166108125760405162461bcd60e51b815260206004820152601a60248201527f4657443a20756e726567697374657265642074797065686173680000000000006044820152606401610350565b5f8661082089888888610643565b805160209182012060405161084c93920161190160f01b81526002810192909252602282015260420190565b60408051601f19818403018152919052805160209182012091506108b290610876908a018a610d72565b8285858080601f0160208091040260200160405190810160405280939291908181526020018383808284375f920191909152506109eb92505050565b6108fe5760405162461bcd60e51b815260206004820152601760248201527f4657443a207369676e6174757265206d69736d617463680000000000000000006044820152606401610350565b5050505050505050565b80516020808301919091205f81815291829052604091829020805460ff19166001179055905181907f64d6bce64323458c44643c51fe45113efc882082f7b7fd5f09f0d69d2eedb2029061095d908590610d49565b60405180910390a25050565b608081013560025f61097e6020850185610d72565b6001600160a01b0316815260208101919091526040015f9081208054916109a483611157565b91905055146107555760405162461bcd60e51b815260206004820152601360248201527208cae887440dcdedcc6ca40dad2e6dac2e8c6d606b1b6044820152606401610350565b5f833b15610a7f57604051630b135d3f60e11b81526001600160a01b03851690631626ba7e90610a21908690869060040161116f565b602060405180830381865afa925050508015610a5a575060408051601f3d908101601f19168201909252610a5791810190611187565b60015b610a6557505f610aa0565b6001600160e01b031916630b135d3f60e11b149050610aa0565b836001600160a01b0316610a938484610aa7565b6001600160a01b03161490505b9392505050565b5f8151604103610ad8576020820151604083015160608401515f1a610ace86828585610b4d565b9350505050610b47565b8151604003610aff5760208201516040830151610af6858383610cf2565b92505050610b47565b60405162461bcd60e51b815260206004820152601f60248201527f45434453413a20696e76616c6964207369676e6174757265206c656e677468006044820152606401610350565b92915050565b5f7f7fffffffffffffffffffffffffffffff5d576e7357a4501ddfe92f46681b20a0821115610bc95760405162461bcd60e51b815260206004820152602260248201527f45434453413a20696e76616c6964207369676e6174757265202773272076616c604482015261756560f01b6064820152608401610350565b8360ff16601b1480610bde57508360ff16601c145b610c355760405162461bcd60e51b815260206004820152602260248201527f45434453413a20696e76616c6964207369676e6174757265202776272076616c604482015261756560f01b6064820152608401610350565b604080515f8082526020820180845288905260ff871692820192909252606081018590526080810184905260019060a0016020604051602081039080840390855afa158015610c86573d5f5f3e3d5ffd5b5050604051601f1901519150506001600160a01b038116610ce95760405162461bcd60e51b815260206004820152601860248201527f45434453413a20696e76616c6964207369676e617475726500000000000000006044820152606401610350565b95945050505050565b5f6001600160ff1b03821660ff83901c601b01610d1186828785610b4d565b9695505050505050565b5f81518084528060208401602086015e5f602082860101526020601f19601f83011685010191505092915050565b602081525f610aa06020830184610d1b565b5f60208284031215610d6b575f5ffd5b5035919050565b5f60208284031215610d82575f5ffd5b81356001600160a01b0381168114610aa0575f5ffd5b5f5f83601f840112610da8575f5ffd5b50813567ffffffffffffffff811115610dbf575f5ffd5b602083019150836020828501011115610dd6575f5ffd5b9250929050565b5f5f5f5f60408587031215610df0575f5ffd5b843567ffffffffffffffff811115610e06575f5ffd5b610e1287828801610d98565b909550935050602085013567ffffffffffffffff811115610e31575f5ffd5b610e3d87828801610d98565b95989497509550505050565b5f60e08284031215610e59575f5ffd5b50919050565b5f5f5f5f5f5f5f60a0888a031215610e75575f5ffd5b873567ffffffffffffffff811115610e8b575f5ffd5b610e978a828b01610e49565b9750506020880135955060408801359450606088013567ffffffffffffffff811115610ec1575f5ffd5b610ecd8a828b01610d98565b909550935050608088013567ffffffffffffffff811115610eec575f5ffd5b610ef88a828b01610d98565b989b979a50959850939692959293505050565b8215158152604060208201525f610f256040830184610d1b565b949350505050565b5f5f5f5f60608587031215610f40575f5ffd5b843567ffffffffffffffff811115610f56575f5ffd5b610f6287828801610e49565b94505060208501359250604085013567ffffffffffffffff811115610e31575f5ffd5b818382375f9101908152919050565b6020808252602e908201527f4657443a20666f7277617264657220646f6573206e6f7420616c6c6f7720636160408201526d6c6c7320776974682076616c756560901b606082015260800190565b634e487b7160e01b5f52603260045260245ffd5b5f81518060208401855e5f93019283525090919050565b848682375f858201600560fb1b81526110296001820187610ff6565b9050600b60fa1b8152838560018301375f9301600101928352509095945050505050565b5f5f8335601e19843603018112611062575f5ffd5b83018035915067ffffffffffffffff82111561107c575f5ffd5b602001915036819003821315610dd6575f5ffd5b8284823760609190911b6bffffffffffffffffffffffff19169101908152601401919050565b634e487b7160e01b5f52601160045260245ffd5b8082028115828204841417610b4757610b476110b6565b5f826110fb57634e487b7160e01b5f52601260045260245ffd5b500490565b5f610aa08284610ff6565b8a81528960208201528860408201528760608201528660808201528560a08201528460c08201528360e082015281836101008301375f9101610100019081529998505050505050505050565b5f60018201611168576111686110b6565b5060010190565b828152604060208201525f610f256040830184610d1b565b5f60208284031215611197575f5ffd5b81516001600160e01b031981168114610aa0575f5ffdfe616464726573732066726f6d2c6164647265737320746f2c75696e743235362076616c75652c75696e74323536206761732c75696e74323536206e6f6e63652c627974657320646174612c75696e743235362076616c6964556e74696c454950373132446f6d61696e28737472696e67206e616d652c737472696e672076657273696f6e2c75696e7432353620636861696e49642c6164647265737320766572696679696e67436f6e747261637429a2646970667358221220f755795f6da0b62a6fe24a1ec38175bf5bfee69bbeecf2a2fce52df14522d3ba64736f6c634300081c0033616464726573732066726f6d2c6164647265737320746f2c75696e743235362076616c75652c75696e74323536206761732c75696e74323536206e6f6e63652c627974657320646174612c75696e743235362076616c6964556e74696c","linkReferences":{}},"methodIdentifiers":{"EIP712_DOMAIN_TYPE()":"c3f28abd","GENERIC_PARAMS()":"066a310c","_getEncoded((address,address,uint256,uint256,uint256,bytes,uint256),bytes32,bytes)":"e2b62f2d","domains(bytes32)":"c722f177","execute((address,address,uint256,uint256,uint256,bytes,uint256),bytes32,bytes32,bytes,bytes)":"e024dc7f","getNonce(address)":"2d0335ab","registerDomainSeparator(string,string)":"9c7b4592","registerRequestType(string,string)":"d9210be5","typeHashes(bytes32)":"21fe98df","verify((address,address,uint256,uint256,uint256,bytes,uint256),bytes32,bytes32,bytes,bytes)":"ad9f99c7"},"storageLayout":{"storage":[{"astId":48705,"contract":"src/trustForwrder/AcceptsContractSignaturesForwarder.sol:AcceptsContractSignaturesForwarder","label":"typeHashes","offset":0,"slot":"0","type":"t_mapping(t_bytes32,t_bool)"},{"astId":48709,"contract":"src/trustForwrder/AcceptsContractSignaturesForwarder.sol:AcceptsContractSignaturesForwarder","label":"domains","offset":0,"slot":"1","type":"t_mapping(t_bytes32,t_bool)"},{"astId":48713,"contract":"src/trustForwrder/AcceptsContractSignaturesForwarder.sol:AcceptsContractSignaturesForwarder","label":"nonces","offset":0,"slot":"2","type":"t_mapping(t_address,t_uint256)"}],"types":{"t_address":{"encoding":"inplace","label":"address","numberOfBytes":"20"},"t_bool":{"encoding":"inplace","label":"bool","numberOfBytes":"1"},"t_bytes32":{"encoding":"inplace","label":"bytes32","numberOfBytes":"32"},"t_mapping(t_address,t_uint256)":{"encoding":"mapping","key":"t_address","label":"mapping(address => uint256)","numberOfBytes":"32","value":"t_uint256"},"t_mapping(t_bytes32,t_bool)":{"encoding":"mapping","key":"t_bytes32","label":"mapping(bytes32 => bool)","numberOfBytes":"32","value":"t_bool"},"t_uint256":{"encoding":"inplace","label":"uint256","numberOfBytes":"32"}}},"id":55}