{"abi":[{"type":"constructor","inputs":[],"stateMutability":"nonpayable"},{"type":"function","name":"cancelMigration","inputs":[{"name":"_vaultProxy","type":"address","internalType":"address"},{"name":"_bypassFailure","type":"bool","internalType":"bool"}],"outputs":[],"stateMutability":"nonpayable"},{"type":"function","name":"claimOwnership","inputs":[],"outputs":[],"stateMutability":"nonpayable"},{"type":"function","name":"deployVaultProxy","inputs":[{"name":"_vaultLib","type":"address","internalType":"address"},{"name":"_owner","type":"address","internalType":"address"},{"name":"_vaultAccessor","type":"address","internalType":"address"},{"name":"_fundName","type":"string","internalType":"string"}],"outputs":[{"name":"vaultProxy_","type":"address","internalType":"address"}],"stateMutability":"nonpayable"},{"type":"function","name":"executeMigration","inputs":[{"name":"_vaultProxy","type":"address","internalType":"address"},{"name":"_bypassFailure","type":"bool","internalType":"bool"}],"outputs":[],"stateMutability":"nonpayable"},{"type":"function","name":"getCurrentFundDeployer","inputs":[],"outputs":[{"name":"currentFundDeployer_","type":"address","internalType":"address"}],"stateMutability":"view"},{"type":"function","name":"getFundDeployerForVaultProxy","inputs":[{"name":"_vaultProxy","type":"address","internalType":"address"}],"outputs":[{"name":"fundDeployer_","type":"address","internalType":"address"}],"stateMutability":"view"},{"type":"function","name":"getMigrationRequestDetailsForVaultProxy","inputs":[{"name":"_vaultProxy","type":"address","internalType":"address"}],"outputs":[{"name":"nextFundDeployer_","type":"address","internalType":"address"},{"name":"nextVaultAccessor_","type":"address","internalType":"address"},{"name":"nextVaultLib_","type":"address","internalType":"address"},{"name":"executableTimestamp_","type":"uint256","internalType":"uint256"}],"stateMutability":"view"},{"type":"function","name":"getMigrationTimelock","inputs":[],"outputs":[{"name":"migrationTimelock_","type":"uint256","internalType":"uint256"}],"stateMutability":"view"},{"type":"function","name":"getNominatedOwner","inputs":[],"outputs":[{"name":"nominatedOwner_","type":"address","internalType":"address"}],"stateMutability":"view"},{"type":"function","name":"getOwner","inputs":[],"outputs":[{"name":"owner_","type":"address","internalType":"address"}],"stateMutability":"view"},{"type":"function","name":"getSharesTokenSymbol","inputs":[],"outputs":[{"name":"sharesTokenSymbol_","type":"string","internalType":"string"}],"stateMutability":"view"},{"type":"function","name":"getTimelockRemainingForMigrationRequest","inputs":[{"name":"_vaultProxy","type":"address","internalType":"address"}],"outputs":[{"name":"secondsRemaining_","type":"uint256","internalType":"uint256"}],"stateMutability":"view"},{"type":"function","name":"hasExecutableMigrationRequest","inputs":[{"name":"_vaultProxy","type":"address","internalType":"address"}],"outputs":[{"name":"hasExecutableRequest_","type":"bool","internalType":"bool"}],"stateMutability":"view"},{"type":"function","name":"hasMigrationRequest","inputs":[{"name":"_vaultProxy","type":"address","internalType":"address"}],"outputs":[{"name":"hasMigrationRequest_","type":"bool","internalType":"bool"}],"stateMutability":"view"},{"type":"function","name":"removeNominatedOwner","inputs":[],"outputs":[],"stateMutability":"nonpayable"},{"type":"function","name":"setCurrentFundDeployer","inputs":[{"name":"_nextFundDeployer","type":"address","internalType":"address"}],"outputs":[],"stateMutability":"nonpayable"},{"type":"function","name":"setMigrationTimelock","inputs":[{"name":"_nextTimelock","type":"uint256","internalType":"uint256"}],"outputs":[],"stateMutability":"nonpayable"},{"type":"function","name":"setNominatedOwner","inputs":[{"name":"_nextNominatedOwner","type":"address","internalType":"address"}],"outputs":[],"stateMutability":"nonpayable"},{"type":"function","name":"setSharesTokenSymbol","inputs":[{"name":"_nextSymbol","type":"string","internalType":"string"}],"outputs":[],"stateMutability":"nonpayable"},{"type":"function","name":"signalMigration","inputs":[{"name":"_vaultProxy","type":"address","internalType":"address"},{"name":"_nextVaultAccessor","type":"address","internalType":"address"},{"name":"_nextVaultLib","type":"address","internalType":"address"},{"name":"_bypassFailure","type":"bool","internalType":"bool"}],"outputs":[],"stateMutability":"nonpayable"},{"type":"event","name":"CurrentFundDeployerSet","inputs":[{"name":"prevFundDeployer","type":"address","indexed":false,"internalType":"address"},{"name":"nextFundDeployer","type":"address","indexed":false,"internalType":"address"}],"anonymous":false},{"type":"event","name":"MigrationCancelled","inputs":[{"name":"vaultProxy","type":"address","indexed":true,"internalType":"address"},{"name":"prevFundDeployer","type":"address","indexed":true,"internalType":"address"},{"name":"nextFundDeployer","type":"address","indexed":true,"internalType":"address"},{"name":"nextVaultAccessor","type":"address","indexed":false,"internalType":"address"},{"name":"nextVaultLib","type":"address","indexed":false,"internalType":"address"},{"name":"executableTimestamp","type":"uint256","indexed":false,"internalType":"uint256"}],"anonymous":false},{"type":"event","name":"MigrationExecuted","inputs":[{"name":"vaultProxy","type":"address","indexed":true,"internalType":"address"},{"name":"prevFundDeployer","type":"address","indexed":true,"internalType":"address"},{"name":"nextFundDeployer","type":"address","indexed":true,"internalType":"address"},{"name":"nextVaultAccessor","type":"address","indexed":false,"internalType":"address"},{"name":"nextVaultLib","type":"address","indexed":false,"internalType":"address"},{"name":"executableTimestamp","type":"uint256","indexed":false,"internalType":"uint256"}],"anonymous":false},{"type":"event","name":"MigrationInCancelHookFailed","inputs":[{"name":"failureReturnData","type":"bytes","indexed":false,"internalType":"bytes"},{"name":"vaultProxy","type":"address","indexed":true,"internalType":"address"},{"name":"prevFundDeployer","type":"address","indexed":true,"internalType":"address"},{"name":"nextFundDeployer","type":"address","indexed":true,"internalType":"address"},{"name":"nextVaultAccessor","type":"address","indexed":false,"internalType":"address"},{"name":"nextVaultLib","type":"address","indexed":false,"internalType":"address"}],"anonymous":false},{"type":"event","name":"MigrationOutHookFailed","inputs":[{"name":"failureReturnData","type":"bytes","indexed":false,"internalType":"bytes"},{"name":"hook","type":"uint8","indexed":false,"internalType":"enum IMigrationHookHandler.MigrationOutHook"},{"name":"vaultProxy","type":"address","indexed":true,"internalType":"address"},{"name":"prevFundDeployer","type":"address","indexed":true,"internalType":"address"},{"name":"nextFundDeployer","type":"address","indexed":true,"internalType":"address"},{"name":"nextVaultAccessor","type":"address","indexed":false,"internalType":"address"},{"name":"nextVaultLib","type":"address","indexed":false,"internalType":"address"}],"anonymous":false},{"type":"event","name":"MigrationSignaled","inputs":[{"name":"vaultProxy","type":"address","indexed":true,"internalType":"address"},{"name":"prevFundDeployer","type":"address","indexed":true,"internalType":"address"},{"name":"nextFundDeployer","type":"address","indexed":true,"internalType":"address"},{"name":"nextVaultAccessor","type":"address","indexed":false,"internalType":"address"},{"name":"nextVaultLib","type":"address","indexed":false,"internalType":"address"},{"name":"executableTimestamp","type":"uint256","indexed":false,"internalType":"uint256"}],"anonymous":false},{"type":"event","name":"MigrationTimelockSet","inputs":[{"name":"prevTimelock","type":"uint256","indexed":false,"internalType":"uint256"},{"name":"nextTimelock","type":"uint256","indexed":false,"internalType":"uint256"}],"anonymous":false},{"type":"event","name":"NominatedOwnerRemoved","inputs":[{"name":"nominatedOwner","type":"address","indexed":true,"internalType":"address"}],"anonymous":false},{"type":"event","name":"NominatedOwnerSet","inputs":[{"name":"nominatedOwner","type":"address","indexed":true,"internalType":"address"}],"anonymous":false},{"type":"event","name":"OwnershipTransferred","inputs":[{"name":"prevOwner","type":"address","indexed":true,"internalType":"address"},{"name":"nextOwner","type":"address","indexed":true,"internalType":"address"}],"anonymous":false},{"type":"event","name":"SharesTokenSymbolSet","inputs":[{"name":"_nextSymbol","type":"string","indexed":false,"internalType":"string"}],"anonymous":false},{"type":"event","name":"VaultProxyDeployed","inputs":[{"name":"fundDeployer","type":"address","indexed":true,"internalType":"address"},{"name":"owner","type":"address","indexed":true,"internalType":"address"},{"name":"vaultProxy","type":"address","indexed":false,"internalType":"address"},{"name":"vaultLib","type":"address","indexed":true,"internalType":"address"},{"name":"vaultAccessor","type":"address","indexed":false,"internalType":"address"},{"name":"fundName","type":"string","indexed":false,"internalType":"string"}],"anonymous":false}],"bytecode":{"object":"0x60806040523480156200001157600080fd5b506202a300600355600280546001600160a01b031916331790556040805180820190915260048082526322a72d2360e11b60209092019182526200005691816200005d565b50620000f9565b828054600181600116156101000203166002900490600052602060002090601f016020900481019282601f10620000a057805160ff1916838001178555620000d0565b82800160010185558215620000d0579182015b82811115620000d0578251825591602001919060010190620000b3565b50620000de929150620000e2565b5090565b5b80821115620000de5760008155600101620000e3565b61294b80620001096000396000f3fe60806040523480156200001157600080fd5b5060043610620001485760003560e01c806377a8c62411620000bd57806397af7050116200007b57806397af7050146200042d5780639c9d48da1462000456578063b47b06001462000487578063d0449d3d1462000509578063d15f9b9c14620005325762000148565b806377a8c62414620003885780637c77b2ed14620003b15780637dad9fc814620003bb5780638156eecf1462000419578063893d20e814620004235762000148565b80633d7c74f8116200010b5780633d7c74f814620002795780634e71e0c814620002a257806366231cea14620002ac578063728e17a014620002e9578063757bc0dd14620003125762000148565b80631df419f7146200014d57806322a0c08b146200016f578063288b6a3614620002225780632fa0c161146200022c57806338b3eb1b1462000248575b600080fd5b6200016d600480360360208110156200016557600080fd5b503562000573565b005b62000206600480360360808110156200018757600080fd5b6001600160a01b0382358116926020810135821692604082013590921691810190608081016060820135640100000000811115620001c457600080fd5b820183602082011115620001d757600080fd5b80359060200191846001830284011164010000000083111715620001fa57600080fd5b50909250905062000646565b604080516001600160a01b039092168252519081900360200190f35b62000206620008df565b62000236620008ee565b60408051918252519081900360200190f35b6200016d600480360360408110156200026057600080fd5b506001600160a01b0381351690602001351515620008f4565b62000206600480360360208110156200029157600080fd5b50356001600160a01b031662000c46565b6200016d62000c67565b620002d560048036036020811015620002c457600080fd5b50356001600160a01b031662000d10565b604080519115158252519081900360200190f35b6200016d600480360360208110156200030157600080fd5b50356001600160a01b031662000d43565b6200016d600480360360208110156200032a57600080fd5b8101906020810181356401000000008111156200034657600080fd5b8201836020820111156200035957600080fd5b803590602001918460018302840111640100000000831117156200037c57600080fd5b50909250905062000ebd565b6200023660048036036020811015620003a057600080fd5b50356001600160a01b031662000f7b565b6200020662000fc4565b620003e460048036036020811015620003d357600080fd5b50356001600160a01b031662000fd3565b604080516001600160a01b03958616815293851660208501529190931682820152606082019290925290519081900360800190f35b6200016d6200106b565b6200020662001147565b6200016d600480360360208110156200044557600080fd5b50356001600160a01b031662001156565b6200016d600480360360408110156200046e57600080fd5b506001600160a01b0381351690602001351515620012e1565b620004916200152a565b6040805160208082528351818301528351919283929083019185019080838360005b83811015620004cd578181015183820152602001620004b3565b50505050905090810190601f168015620004fb5780820380516001836020036101000a031916815260200191505b509250505060405180910390f35b620002d5600480360360208110156200052157600080fd5b50356001600160a01b0316620015c4565b6200016d600480360360808110156200054a57600080fd5b506001600160a01b038135811691602081013582169160408201351690606001351515620015e4565b6002546001600160a01b03163314620005be5760405162461bcd60e51b815260040180806020018281038252602e8152602001806200263c602e913960400191505060405180910390fd5b60035481811415620006025760405162461bcd60e51b815260040180806020018281038252603b81526020018062002904603b913960400191505060405180910390fd5b6003829055604080518281526020810184905281517f481ce28a1145a5d9b59e2d1d7eba33bc3350124def8fdc91032238d343ad5361929181900390910190a15050565b600080546001600160a01b03163314620006925760405162461bcd60e51b8152600401808060200182810382526034815260200180620024b66034913960400191505060405180910390fd5b6200069d8462001832565b620006da5760405162461bcd60e51b815260040180806020018281038252602d8152602001806200269b602d913960400191505060405180910390fd5b6060635c9a6d3760e01b8686868660405160240180856001600160a01b03168152602001846001600160a01b0316815260200180602001828103825284848281815260200192508082843760008382015260408051601f909201601f1990811690940182810390940182529283526020810180516001600160e01b03166001600160e01b0319909b169a909a17909952505196975087968e965062000786955093506200204c92505050565b8080602001836001600160a01b03168152602001828103825284818151815260200191508051906020019080838360005b83811015620007d1578181015183820152602001620007b7565b50505050905090810190601f168015620007ff5780820380516001836020036101000a031916815260200191505b509350505050604051809103906000f08015801562000822573d6000803e3d6000fd5b506001600160a01b0380821660008181526005602090815260409182902080546001600160a01b0319163390811790915582519384528a85169184019190915260609183018281529183018890529395508a8316928a169184917fa50560b448ad796ef60adfeffe1c19ed34daf94c2aa6905d0e209017dbc19f589188918c918c918c919060808201848480828437600083820152604051601f909101601f191690920182900397509095505050505050a4505095945050505050565b6001546001600160a01b031690565b60035490565b620008fe6200205a565b506001600160a01b038083166000908152600660209081526040918290208251608081018452815485168082526001830154861693820193909352600282015490941692840192909252600390910154606083015280620009915760405162461bcd60e51b815260040180806020018281038252603d815260200180620028c7603d913960400191505060405180910390fd5b336001600160a01b03821614620009da5760405162461bcd60e51b81526004018080602001828103825260458152602001806200279c6045913960600191505060405180910390fd5b6000546001600160a01b0382811691161462000a285760405162461bcd60e51b815260040180806020018281038252604f815260200180620025ed604f913960600191505060405180910390fd5b60608201514281111562000a6e5760405162461bcd60e51b8152600401808060200182810382526038815260200180620027296038913960400191505060405180910390fd5b6001600160a01b0380861660009081526005602090815260409182902054908601519186015192169162000aa9600289858886868d62001838565b876001600160a01b0316634140d607826040518263ffffffff1660e01b815260040180826001600160a01b03168152602001915050600060405180830381600087803b15801562000af957600080fd5b505af115801562000b0e573d6000803e3d6000fd5b50505050876001600160a01b031663ab9253ac836040518263ffffffff1660e01b815260040180826001600160a01b03168152602001915050600060405180830381600087803b15801562000b6257600080fd5b505af115801562000b77573d6000803e3d6000fd5b5050506001600160a01b03808a1660009081526005602090815260408083208054948b166001600160a01b0319958616179055600690915281208054831681556001810180548416905560028101805490931690925560039182015562000be5915089858886868d62001838565b604080516001600160a01b038481168252838116602083015281830187905291518288169286811692908c16917fad6fb3d36e2cda148dfd43203c1a40c0da9a9baa662ae9d6c3b0c3e4a9d6a6359181900360600190a45050505050505050565b6001600160a01b03808216600090815260056020526040902054165b919050565b6001546001600160a01b031633811462000cb35760405162461bcd60e51b815260040180806020018281038252603e8152602001806200281c603e913960400191505060405180910390fd5b600180546001600160a01b0319908116909155600280546001600160a01b0384811693821684179092556040519116919082907f8be0079c531659141344cd1fd0a4f28419497f9722a3daafe3b4186f6b6457e090600090a35050565b6001600160a01b038116600090815260066020526040812060030154801580159062000d3c5750804210155b9392505050565b6002546001600160a01b0316331462000d8e5760405162461bcd60e51b815260040180806020018281038252602e8152602001806200263c602e913960400191505060405180910390fd5b6001600160a01b03811662000dd55760405162461bcd60e51b8152600401808060200182810382526036815260200180620026c86036913960400191505060405180910390fd5b6002546001600160a01b038281169116141562000e245760405162461bcd60e51b815260040180806020018281038252603b81526020018062002761603b913960400191505060405180910390fd5b6001546001600160a01b038281169116141562000e735760405162461bcd60e51b815260040180806020018281038252603b815260200180620027e1603b913960400191505060405180910390fd5b600180546001600160a01b0319166001600160a01b0383169081179091556040517f132c19de901bb4ed8403c34734b6c841d5dc57745824da452a52433519ea5abf90600090a250565b6002546001600160a01b0316331462000f085760405162461bcd60e51b815260040180806020018281038252602e8152602001806200263c602e913960400191505060405180910390fd5b62000f166004838362002081565b507ff0115712c23b609855a28d7b8963c6d16d732ae388b11e5d4ec6d5eae4ad8698828260405180806020018281038252848482818152602001925080828437600083820152604051601f909101601f19169092018290039550909350505050a15050565b6001600160a01b0381166000908152600660205260408120600301548062000fa857600091505062000c62565b80421062000fbb57600091505062000c62565b42900392915050565b6000546001600160a01b031690565b60008060008062000fe36200205a565b506001600160a01b038086166000908152600660209081526040918290208251608081018452815485168152600182015485169281019290925260028101549093169181019190915260039091015460608201819052156200106257806000015181602001518260400151836060015194509450945094505062001064565b505b9193509193565b6002546001600160a01b03163314620010b65760405162461bcd60e51b815260040180806020018281038252602e8152602001806200263c602e913960400191505060405180910390fd5b6001546001600160a01b031680620011005760405162461bcd60e51b81526004018080602001828103825260318152602001806200266a6031913960400191505060405180910390fd5b600180546001600160a01b03191690556040516001600160a01b038216907fe4136584a5e8bb85d66301f3ce8b11cc2e5a8bea3979f10ea2451353849acc4790600090a250565b6002546001600160a01b031690565b6002546001600160a01b03163314620011a15760405162461bcd60e51b815260040180806020018281038252602e8152602001806200263c602e913960400191505060405180910390fd5b6001600160a01b038116620011e85760405162461bcd60e51b81526004018080602001828103825260398152602001806200258e6039913960400191505060405180910390fd5b620011f38162001832565b620012305760405162461bcd60e51b8152600401808060200182810382526036815260200180620028916036913960400191505060405180910390fd5b6000546001600160a01b03908116908216811415620012815760405162461bcd60e51b81526004018080602001828103825260488152602001806200251a6048913960600191505060405180910390fd5b600080546001600160a01b0319166001600160a01b03848116918217909255604080519284168352602083019190915280517f44cf34a26ccbaa8a20e6098a1278e28682572ec9921eb43d8dab274a503e92f59281900390910190a15050565b620012eb6200205a565b506001600160a01b0380831660009081526006602090815260409182902082516080810184528154851680825260018301548616938201939093526002820154909416928401929092526003909101546060830152806200137e5760405162461bcd60e51b815260040180806020018281038252602c81526020018062002562602c913960400191505060405180910390fd5b336001600160a01b038216148062001407575060408051633ef03e7560e11b815233600482015290516001600160a01b03861691637de07cea916024808301926020929190829003018186803b158015620013d857600080fd5b505afa158015620013ed573d6000803e3d6000fd5b505050506040513d60208110156200140457600080fd5b50515b620014445760405162461bcd60e51b8152600401808060200182810382526026815260200180620025c76026913960400191505060405180910390fd5b6001600160a01b0380851660009081526005602090815260408083205486830151878301516060890151600690955292852080546001600160a01b03199081168255600182018054821690556002820180549091169055600301949094559093169290620014b9600489868887878d62001838565b620014c988858786868c62001bd1565b604080516001600160a01b038581168252848116602083015281830184905291518288169287811692908c16917f9851a8f232c380eb2c1065756776e37d85d4fe0c8cb4005b0d72c749bfef923e9181900360600190a45050505050505050565b60048054604080516020601f6002600019610100600188161502019095169490940493840181900481028201810190925282815260609390929091830182828015620015ba5780601f106200158e57610100808354040283529160200191620015ba565b820191906000526020600020905b8154815290600101906020018083116200159c57829003601f168201915b5050505050905090565b6001600160a01b0316600090815260066020526040902060030154151590565b6000546001600160a01b031633146200162f5760405162461bcd60e51b8152600401808060200182810382526034815260200180620024b66034913960400191505060405180910390fd5b6200163a8362001832565b620016775760405162461bcd60e51b8152600401808060200182810382526030815260200180620024ea6030913960400191505060405180910390fd5b6001600160a01b038085166000908152600560205260409020541680620016d05760405162461bcd60e51b815260040180806020018281038252602b815260200180620026fe602b913960400191505060405180910390fd5b336001600160a01b0382168114156200171b5760405162461bcd60e51b81526004018080602001828103825260378152602001806200285a6037913960400191505060405180910390fd5b6200172d600087848489898962001838565b60038054604080516080810182526001600160a01b03808616825289811660208084019182528a831684860190815242909601606085018181528e85166000908152600690935295909120935184549084166001600160a01b0319918216178555915160018086018054928616928516929092179091559551600285018054919094169216919091179091559151930192909255620017d2908885858a8a8a62001838565b604080516001600160a01b038881168252878116602083015281830184905291518285169286811692908b16917fb519c42fdb88f83f098814813f2ebff14fbf14f3e68b054e5a98834c69d54bfb9181900360600190a450505050505050565b3b151590565b60006060866001600160a01b0316633f84c12c60e01b8a8a898989604051602401808660048111156200186757fe5b8152602001856001600160a01b03168152602001846001600160a01b03168152602001836001600160a01b03168152602001826001600160a01b0316815260200195505050505050604051602081830303815290604052906001600160e01b0319166020820180516001600160e01b0383818316178352505050506040518082805190602001908083835b60208310620019135780518252601f199092019160209182019101620018f2565b6001836020036101000a0380198251168184511680821785525050505050509050019150506000604051808303816000865af19150503d806000811462001977576040519150601f19603f3d011682016040523d82523d6000602084013e6200197c565b606091505b50915091508162001bc65782620019938a62001ea1565b826040516020018083805190602001908083835b60208310620019c85780518252601f199092019160209182019101620019a7565b51815160209384036101000a600019018019909216911617905285519190930192850191508083835b6020831062001a125780518252601f199092019160209182019101620019f1565b6001836020036101000a038019825116818451168082178552505050505050905001925050506040516020818303038152906040529062001ad45760405162461bcd60e51b81526004018080602001828103825283818151815260200191508051906020019080838360005b8381101562001a9857818101518382015260200162001a7e565b50505050905090810190601f16801562001ac65780820380516001836020036101000a031916815260200191505b509250505060405180910390fd5b50856001600160a01b0316876001600160a01b0316896001600160a01b03167fbf0ae6830883bd89855f2e7b17a2924b5de0b2b3d4a8834d7c2c0d5dc53447db848d8a8a604051808060200185600481111562001b2d57fe5b8152602001846001600160a01b03168152602001836001600160a01b03168152602001828103825286818151815260200191508051906020019080838360005b8381101562001b8757818101518382015260200162001b6d565b50505050905090810190601f16801562001bb55780820380516001836020036101000a031916815260200191505b509550505050505060405180910390a45b505050505050505050565b604080516001600160a01b038881166024830152878116604483015285811660648301528481166084808401919091528351808403909101815260a490920183526020820180516001600160e01b031663df369ba760e01b17815292518251600094606094938a169392918291908083835b6020831062001c645780518252601f19909201916020918201910162001c43565b6001836020036101000a0380198251168184511680821785525050505050509050019150506000604051808303816000865af19150503d806000811462001cc8576040519150601f19603f3d011682016040523d82523d6000602084013e62001ccd565b606091505b50915091508162001e9757828160405160200180807f4d6967726174696f6e4f757443616e63656c486f6f6b3a20000000000000000081525060180182805190602001908083835b6020831062001d365780518252601f19909201916020918201910162001d15565b6001836020036101000a0380198251168184511680821785525050505050509050019150506040516020818303038152906040529062001db95760405162461bcd60e51b815260206004820181815283516024840152835190928392604490910191908501908083836000831562001a9857818101518382015260200162001a7e565b50856001600160a01b0316876001600160a01b0316896001600160a01b03167f7c79070aa51adb676fb9c8d0f7a1f841ff9cf514444b37c95297ed1c52547b328489896040518080602001846001600160a01b03168152602001836001600160a01b03168152602001828103825285818151815260200191508051906020019080838360005b8381101562001e5957818101518382015260200162001e3f565b50505050905090810190601f16801562001e875780820380516001836020036101000a031916815260200191505b5094505050505060405180910390a45b5050505050505050565b6060600082600481111562001eb257fe5b141562001ef4575060408051808201909152601c81527f4d6967726174696f6e4f7574486f6f6b2e5072655369676e616c3a2000000000602082015262000c62565b600182600481111562001f0357fe5b141562001f45575060408051808201909152601d81527f4d6967726174696f6e4f7574486f6f6b2e506f73745369676e616c3a20000000602082015262000c62565b600282600481111562001f5457fe5b141562001f96575060408051808201909152601d81527f4d6967726174696f6e4f7574486f6f6b2e5072654d6967726174653a20000000602082015262000c62565b600382600481111562001fa557fe5b141562001fe7575060408051808201909152601e81527f4d6967726174696f6e4f7574486f6f6b2e506f73744d6967726174653a200000602082015262000c62565b600482600481111562001ff657fe5b141562002038575060408051808201909152601d81527f4d6967726174696f6e4f7574486f6f6b2e506f737443616e63656c3a20000000602082015262000c62565b505060408051602081019091526000815290565b610398806200211e83390190565b60408051608081018252600080825260208201819052918101829052606081019190915290565b828054600181600116156101000203166002900490600052602060002090601f016020900481019282601f10620020c45782800160ff19823516178555620020f4565b82800160010185558215620020f4579182015b82811115620020f4578235825591602001919060010190620020d7565b506200210292915062002106565b5090565b5b808211156200210257600081556001016200210756fe608060405234801561001057600080fd5b506040516103983803806103988339818101604052604081101561003357600080fd5b810190808051604051939291908464010000000082111561005357600080fd5b90830190602082018581111561006857600080fd5b825164010000000081118282018810171561008257600080fd5b82525081516020918201929091019080838360005b838110156100af578181015183820152602001610097565b50505050905090810190601f1680156100dc5780820380516001836020036101000a031916815260200191505b5060408181526020928301516352d1902d60e01b835290519094506001600160a01b03851693506352d1902d92600480840193919291829003018186803b15801561012657600080fd5b505afa15801561013a573d6000803e3d6000fd5b505050506040513d602081101561015057600080fd5b50517f027b9570e9fedc1a80b937ae9a06861e5faef3992491af30b684a64b3fbec7a5146101af5760405162461bcd60e51b81526004018080602001828103825260258152602001806103736025913960400191505060405180910390fd5b807f360894a13ba1a3210667c828492db98dca3e2076cc3735a920a3ca505d382bbc5560006060826001600160a01b0316846040518082805190602001908083835b602083106102105780518252601f1990920191602091820191016101f1565b6001836020036101000a038019825116818451168082178552505050505050905001915050600060405180830381855af49150503d8060008114610270576040519150601f19603f3d011682016040523d82523d6000602084013e610275565b606091505b50915091508181906103055760405162461bcd60e51b81526004018080602001828103825283818151815260200191508051906020019080838360005b838110156102ca5781810151838201526020016102b2565b50505050905090810190601f1680156102f75780820380516001836020036101000a031916815260200191505b509250505060405180910390fd5b5050505050605b806103186000396000f3fe60806040527f360894a13ba1a3210667c828492db98dca3e2076cc3735a920a3ca505d382bbc543660008037600080366000846127105a03f43d806000803e818015604957816000f35b816000fdfea164736f6c634300060c000a636f6e7374727563746f723a205f7661756c744c6962206e6f7420636f6d70617469626c654f6e6c79207468652063757272656e742046756e644465706c6f7965722063616e2063616c6c20746869732066756e6374696f6e7369676e616c4d6967726174696f6e3a204e6f6e2d636f6e7472616374205f6e6578745661756c744163636573736f7273657443757272656e7446756e644465706c6f7965723a205f6e65787446756e644465706c6f79657220697320616c72656164792063757272656e7446756e644465706c6f79657263616e63656c4d6967726174696f6e3a204e6f206d6967726174696f6e20726571756573742065786973747373657443757272656e7446756e644465706c6f7965723a205f6e65787446756e644465706c6f7965722063616e6e6f7420626520656d70747963616e63656c4d6967726174696f6e3a204e6f7420616e20616c6c6f7765642063616c6c6572657865637574654d6967726174696f6e3a20546865207461726765742046756e644465706c6f796572206973206e6f206c6f6e676572207468652063757272656e742046756e644465706c6f7965724f6e6c792074686520636f6e7472616374206f776e65722063616e2063616c6c20746869732066756e6374696f6e72656d6f76654e6f6d696e617465644f776e65723a205468657265206973206e6f206e6f6d696e61746564206f776e65726465706c6f795661756c7450726f78793a204e6f6e2d636f6e7472616374205f7661756c744163636573736f727365744e6f6d696e617465644f776e65723a205f6e6578744e6f6d696e617465644f776e65722063616e6e6f7420626520656d7074797369676e616c4d6967726174696f6e3a205f7661756c7450726f787920646f6573206e6f74206578697374657865637574654d6967726174696f6e3a20546865206d6967726174696f6e2074696d656c6f636b20686173206e6f7420656c61707365647365744e6f6d696e617465644f776e65723a205f6e6578744e6f6d696e617465644f776e657220697320616c726561647920746865206f776e6572657865637574654d6967726174696f6e3a204f6e6c7920746865207461726765742046756e644465706c6f7965722063616e2063616c6c20746869732066756e6374696f6e7365744e6f6d696e617465644f776e65723a205f6e6578744e6f6d696e617465644f776e657220697320616c7265616479206e6f6d696e61746564636c61696d4f776e6572736869703a204f6e6c7920746865206e6f6d696e617465644f776e65722063616e2063616c6c20746869732066756e6374696f6e7369676e616c4d6967726174696f6e3a2043616e206f6e6c79206d69677261746520746f2061206e65772046756e644465706c6f79657273657443757272656e7446756e644465706c6f7965723a204e6f6e2d636f6e7472616374205f6e65787446756e644465706c6f796572657865637574654d6967726174696f6e3a204e6f206d6967726174696f6e20726571756573742065786973747320666f72205f7661756c7450726f78797365744d6967726174696f6e54696d656c6f636b3a205f6e65787454696d656c6f636b206973207468652063757272656e742074696d656c6f636ba164736f6c634300060c000a","linkReferences":{}},"methodIdentifiers":{"cancelMigration(address,bool)":"9c9d48da","claimOwnership()":"4e71e0c8","deployVaultProxy(address,address,address,string)":"22a0c08b","executeMigration(address,bool)":"38b3eb1b","getCurrentFundDeployer()":"7c77b2ed","getFundDeployerForVaultProxy(address)":"3d7c74f8","getMigrationRequestDetailsForVaultProxy(address)":"7dad9fc8","getMigrationTimelock()":"2fa0c161","getNominatedOwner()":"288b6a36","getOwner()":"893d20e8","getSharesTokenSymbol()":"b47b0600","getTimelockRemainingForMigrationRequest(address)":"77a8c624","hasExecutableMigrationRequest(address)":"66231cea","hasMigrationRequest(address)":"d0449d3d","removeNominatedOwner()":"8156eecf","setCurrentFundDeployer(address)":"97af7050","setMigrationTimelock(uint256)":"1df419f7","setNominatedOwner(address)":"728e17a0","setSharesTokenSymbol(string)":"757bc0dd","signalMigration(address,address,address,bool)":"d15f9b9c"},"id":80}