{
  "abi": [
    {
      "type": "constructor",
      "inputs": [],
      "stateMutability": "nonpayable"
    },
    {
      "type": "function",
      "name": "cancelMigration",
      "inputs": [
        {
          "name": "_vaultProxy",
          "type": "address",
          "internalType": "address"
        },
        {
          "name": "_bypassFailure",
          "type": "bool",
          "internalType": "bool"
        }
      ],
      "outputs": [],
      "stateMutability": "nonpayable"
    },
    {
      "type": "function",
      "name": "claimOwnership",
      "inputs": [],
      "outputs": [],
      "stateMutability": "nonpayable"
    },
    {
      "type": "function",
      "name": "deployVaultProxy",
      "inputs": [
        {
          "name": "_vaultLib",
          "type": "address",
          "internalType": "address"
        },
        {
          "name": "_owner",
          "type": "address",
          "internalType": "address"
        },
        {
          "name": "_vaultAccessor",
          "type": "address",
          "internalType": "address"
        },
        {
          "name": "_fundName",
          "type": "string",
          "internalType": "string"
        }
      ],
      "outputs": [
        {
          "name": "vaultProxy_",
          "type": "address",
          "internalType": "address"
        }
      ],
      "stateMutability": "nonpayable"
    },
    {
      "type": "function",
      "name": "executeMigration",
      "inputs": [
        {
          "name": "_vaultProxy",
          "type": "address",
          "internalType": "address"
        },
        {
          "name": "_bypassFailure",
          "type": "bool",
          "internalType": "bool"
        }
      ],
      "outputs": [],
      "stateMutability": "nonpayable"
    },
    {
      "type": "function",
      "name": "getCurrentFundDeployer",
      "inputs": [],
      "outputs": [
        {
          "name": "currentFundDeployer_",
          "type": "address",
          "internalType": "address"
        }
      ],
      "stateMutability": "view"
    },
    {
      "type": "function",
      "name": "getFundDeployerForVaultProxy",
      "inputs": [
        {
          "name": "_vaultProxy",
          "type": "address",
          "internalType": "address"
        }
      ],
      "outputs": [
        {
          "name": "fundDeployer_",
          "type": "address",
          "internalType": "address"
        }
      ],
      "stateMutability": "view"
    },
    {
      "type": "function",
      "name": "getMigrationRequestDetailsForVaultProxy",
      "inputs": [
        {
          "name": "_vaultProxy",
          "type": "address",
          "internalType": "address"
        }
      ],
      "outputs": [
        {
          "name": "nextFundDeployer_",
          "type": "address",
          "internalType": "address"
        },
        {
          "name": "nextVaultAccessor_",
          "type": "address",
          "internalType": "address"
        },
        {
          "name": "nextVaultLib_",
          "type": "address",
          "internalType": "address"
        },
        {
          "name": "executableTimestamp_",
          "type": "uint256",
          "internalType": "uint256"
        }
      ],
      "stateMutability": "view"
    },
    {
      "type": "function",
      "name": "getMigrationTimelock",
      "inputs": [],
      "outputs": [
        {
          "name": "migrationTimelock_",
          "type": "uint256",
          "internalType": "uint256"
        }
      ],
      "stateMutability": "view"
    },
    {
      "type": "function",
      "name": "getNominatedOwner",
      "inputs": [],
      "outputs": [
        {
          "name": "nominatedOwner_",
          "type": "address",
          "internalType": "address"
        }
      ],
      "stateMutability": "view"
    },
    {
      "type": "function",
      "name": "getOwner",
      "inputs": [],
      "outputs": [
        {
          "name": "owner_",
          "type": "address",
          "internalType": "address"
        }
      ],
      "stateMutability": "view"
    },
    {
      "type": "function",
      "name": "getSharesTokenSymbol",
      "inputs": [],
      "outputs": [
        {
          "name": "sharesTokenSymbol_",
          "type": "string",
          "internalType": "string"
        }
      ],
      "stateMutability": "view"
    },
    {
      "type": "function",
      "name": "getTimelockRemainingForMigrationRequest",
      "inputs": [
        {
          "name": "_vaultProxy",
          "type": "address",
          "internalType": "address"
        }
      ],
      "outputs": [
        {
          "name": "secondsRemaining_",
          "type": "uint256",
          "internalType": "uint256"
        }
      ],
      "stateMutability": "view"
    },
    {
      "type": "function",
      "name": "hasExecutableMigrationRequest",
      "inputs": [
        {
          "name": "_vaultProxy",
          "type": "address",
          "internalType": "address"
        }
      ],
      "outputs": [
        {
          "name": "hasExecutableRequest_",
          "type": "bool",
          "internalType": "bool"
        }
      ],
      "stateMutability": "view"
    },
    {
      "type": "function",
      "name": "hasMigrationRequest",
      "inputs": [
        {
          "name": "_vaultProxy",
          "type": "address",
          "internalType": "address"
        }
      ],
      "outputs": [
        {
          "name": "hasMigrationRequest_",
          "type": "bool",
          "internalType": "bool"
        }
      ],
      "stateMutability": "view"
    },
    {
      "type": "function",
      "name": "removeNominatedOwner",
      "inputs": [],
      "outputs": [],
      "stateMutability": "nonpayable"
    },
    {
      "type": "function",
      "name": "setCurrentFundDeployer",
      "inputs": [
        {
          "name": "_nextFundDeployer",
          "type": "address",
          "internalType": "address"
        }
      ],
      "outputs": [],
      "stateMutability": "nonpayable"
    },
    {
      "type": "function",
      "name": "setMigrationTimelock",
      "inputs": [
        {
          "name": "_nextTimelock",
          "type": "uint256",
          "internalType": "uint256"
        }
      ],
      "outputs": [],
      "stateMutability": "nonpayable"
    },
    {
      "type": "function",
      "name": "setNominatedOwner",
      "inputs": [
        {
          "name": "_nextNominatedOwner",
          "type": "address",
          "internalType": "address"
        }
      ],
      "outputs": [],
      "stateMutability": "nonpayable"
    },
    {
      "type": "function",
      "name": "setSharesTokenSymbol",
      "inputs": [
        {
          "name": "_nextSymbol",
          "type": "string",
          "internalType": "string"
        }
      ],
      "outputs": [],
      "stateMutability": "nonpayable"
    },
    {
      "type": "function",
      "name": "signalMigration",
      "inputs": [
        {
          "name": "_vaultProxy",
          "type": "address",
          "internalType": "address"
        },
        {
          "name": "_nextVaultAccessor",
          "type": "address",
          "internalType": "address"
        },
        {
          "name": "_nextVaultLib",
          "type": "address",
          "internalType": "address"
        },
        {
          "name": "_bypassFailure",
          "type": "bool",
          "internalType": "bool"
        }
      ],
      "outputs": [],
      "stateMutability": "nonpayable"
    },
    {
      "type": "event",
      "name": "CurrentFundDeployerSet",
      "inputs": [
        {
          "name": "prevFundDeployer",
          "type": "address",
          "indexed": false,
          "internalType": "address"
        },
        {
          "name": "nextFundDeployer",
          "type": "address",
          "indexed": false,
          "internalType": "address"
        }
      ],
      "anonymous": false
    },
    {
      "type": "event",
      "name": "MigrationCancelled",
      "inputs": [
        {
          "name": "vaultProxy",
          "type": "address",
          "indexed": true,
          "internalType": "address"
        },
        {
          "name": "prevFundDeployer",
          "type": "address",
          "indexed": true,
          "internalType": "address"
        },
        {
          "name": "nextFundDeployer",
          "type": "address",
          "indexed": true,
          "internalType": "address"
        },
        {
          "name": "nextVaultAccessor",
          "type": "address",
          "indexed": false,
          "internalType": "address"
        },
        {
          "name": "nextVaultLib",
          "type": "address",
          "indexed": false,
          "internalType": "address"
        },
        {
          "name": "executableTimestamp",
          "type": "uint256",
          "indexed": false,
          "internalType": "uint256"
        }
      ],
      "anonymous": false
    },
    {
      "type": "event",
      "name": "MigrationExecuted",
      "inputs": [
        {
          "name": "vaultProxy",
          "type": "address",
          "indexed": true,
          "internalType": "address"
        },
        {
          "name": "prevFundDeployer",
          "type": "address",
          "indexed": true,
          "internalType": "address"
        },
        {
          "name": "nextFundDeployer",
          "type": "address",
          "indexed": true,
          "internalType": "address"
        },
        {
          "name": "nextVaultAccessor",
          "type": "address",
          "indexed": false,
          "internalType": "address"
        },
        {
          "name": "nextVaultLib",
          "type": "address",
          "indexed": false,
          "internalType": "address"
        },
        {
          "name": "executableTimestamp",
          "type": "uint256",
          "indexed": false,
          "internalType": "uint256"
        }
      ],
      "anonymous": false
    },
    {
      "type": "event",
      "name": "MigrationInCancelHookFailed",
      "inputs": [
        {
          "name": "failureReturnData",
          "type": "bytes",
          "indexed": false,
          "internalType": "bytes"
        },
        {
          "name": "vaultProxy",
          "type": "address",
          "indexed": true,
          "internalType": "address"
        },
        {
          "name": "prevFundDeployer",
          "type": "address",
          "indexed": true,
          "internalType": "address"
        },
        {
          "name": "nextFundDeployer",
          "type": "address",
          "indexed": true,
          "internalType": "address"
        },
        {
          "name": "nextVaultAccessor",
          "type": "address",
          "indexed": false,
          "internalType": "address"
        },
        {
          "name": "nextVaultLib",
          "type": "address",
          "indexed": false,
          "internalType": "address"
        }
      ],
      "anonymous": false
    },
    {
      "type": "event",
      "name": "MigrationOutHookFailed",
      "inputs": [
        {
          "name": "failureReturnData",
          "type": "bytes",
          "indexed": false,
          "internalType": "bytes"
        },
        {
          "name": "hook",
          "type": "uint8",
          "indexed": false,
          "internalType": "enum IMigrationHookHandler.MigrationOutHook"
        },
        {
          "name": "vaultProxy",
          "type": "address",
          "indexed": true,
          "internalType": "address"
        },
        {
          "name": "prevFundDeployer",
          "type": "address",
          "indexed": true,
          "internalType": "address"
        },
        {
          "name": "nextFundDeployer",
          "type": "address",
          "indexed": true,
          "internalType": "address"
        },
        {
          "name": "nextVaultAccessor",
          "type": "address",
          "indexed": false,
          "internalType": "address"
        },
        {
          "name": "nextVaultLib",
          "type": "address",
          "indexed": false,
          "internalType": "address"
        }
      ],
      "anonymous": false
    },
    {
      "type": "event",
      "name": "MigrationSignaled",
      "inputs": [
        {
          "name": "vaultProxy",
          "type": "address",
          "indexed": true,
          "internalType": "address"
        },
        {
          "name": "prevFundDeployer",
          "type": "address",
          "indexed": true,
          "internalType": "address"
        },
        {
          "name": "nextFundDeployer",
          "type": "address",
          "indexed": true,
          "internalType": "address"
        },
        {
          "name": "nextVaultAccessor",
          "type": "address",
          "indexed": false,
          "internalType": "address"
        },
        {
          "name": "nextVaultLib",
          "type": "address",
          "indexed": false,
          "internalType": "address"
        },
        {
          "name": "executableTimestamp",
          "type": "uint256",
          "indexed": false,
          "internalType": "uint256"
        }
      ],
      "anonymous": false
    },
    {
      "type": "event",
      "name": "MigrationTimelockSet",
      "inputs": [
        {
          "name": "prevTimelock",
          "type": "uint256",
          "indexed": false,
          "internalType": "uint256"
        },
        {
          "name": "nextTimelock",
          "type": "uint256",
          "indexed": false,
          "internalType": "uint256"
        }
      ],
      "anonymous": false
    },
    {
      "type": "event",
      "name": "NominatedOwnerRemoved",
      "inputs": [
        {
          "name": "nominatedOwner",
          "type": "address",
          "indexed": true,
          "internalType": "address"
        }
      ],
      "anonymous": false
    },
    {
      "type": "event",
      "name": "NominatedOwnerSet",
      "inputs": [
        {
          "name": "nominatedOwner",
          "type": "address",
          "indexed": true,
          "internalType": "address"
        }
      ],
      "anonymous": false
    },
    {
      "type": "event",
      "name": "OwnershipTransferred",
      "inputs": [
        {
          "name": "prevOwner",
          "type": "address",
          "indexed": true,
          "internalType": "address"
        },
        {
          "name": "nextOwner",
          "type": "address",
          "indexed": true,
          "internalType": "address"
        }
      ],
      "anonymous": false
    },
    {
      "type": "event",
      "name": "SharesTokenSymbolSet",
      "inputs": [
        {
          "name": "_nextSymbol",
          "type": "string",
          "indexed": false,
          "internalType": "string"
        }
      ],
      "anonymous": false
    },
    {
      "type": "event",
      "name": "VaultProxyDeployed",
      "inputs": [
        {
          "name": "fundDeployer",
          "type": "address",
          "indexed": true,
          "internalType": "address"
        },
        {
          "name": "owner",
          "type": "address",
          "indexed": true,
          "internalType": "address"
        },
        {
          "name": "vaultProxy",
          "type": "address",
          "indexed": false,
          "internalType": "address"
        },
        {
          "name": "vaultLib",
          "type": "address",
          "indexed": true,
          "internalType": "address"
        },
        {
          "name": "vaultAccessor",
          "type": "address",
          "indexed": false,
          "internalType": "address"
        },
        {
          "name": "fundName",
          "type": "string",
          "indexed": false,
          "internalType": "string"
        }
      ],
      "anonymous": false
    }
  ],
  "bytecode": {
    "object": "0x60806040523480156200001157600080fd5b506202a30060038190555033600260006101000a81548173ffffffffffffffffffffffffffffffffffffffff021916908373ffffffffffffffffffffffffffffffffffffffff1602179055506040518060400160405280600481526020017f454e5a460000000000000000000000000000000000000000000000000000000081525060049080519060200190620000aa929190620000b1565b5062000157565b828054600181600116156101000203166002900490600052602060002090601f016020900481019282601f10620000f457805160ff191683800117855562000125565b8280016001018555821562000125579182015b828111156200012457825182559160200191906001019062000107565b5b50905062000134919062000138565b5090565b5b808211156200015357600081600090555060010162000139565b5090565b61426780620001676000396000f3fe60806040523480156200001157600080fd5b5060043610620001485760003560e01c806377a8c62411620000bd57806397af7050116200007b57806397af705014620006555780639c9d48da146200069c578063b47b060014620006ef578063d0449d3d1462000777578063d15f9b9c14620007d45762000148565b806377a8c62414620004d05780637c77b2ed146200052b5780637dad9fc814620005615780638156eecf1462000613578063893d20e8146200061f5762000148565b80633d7c74f8116200010b5780633d7c74f814620003305780634e71e0c814620003a157806366231cea14620003ad578063728e17a0146200040a578063757bc0dd14620004515762000148565b80631df419f7146200014d57806322a0c08b146200017e578063288b6a3614620002875780632fa0c16114620002bd57806338b3eb1b14620002dd575b600080fd5b6200017c600480360360208110156200016557600080fd5b810190808035906020019092919050505062000867565b005b6200025b600480360360808110156200019657600080fd5b81019080803573ffffffffffffffffffffffffffffffffffffffff169060200190929190803573ffffffffffffffffffffffffffffffffffffffff169060200190929190803573ffffffffffffffffffffffffffffffffffffffff169060200190929190803590602001906401000000008111156200021457600080fd5b8201836020820111156200022757600080fd5b803590602001918460018302840111640100000000831117156200024a57600080fd5b9091929391929390505050620009bb565b604051808273ffffffffffffffffffffffffffffffffffffffff16815260200191505060405180910390f35b6200029162000dd9565b604051808273ffffffffffffffffffffffffffffffffffffffff16815260200191505060405180910390f35b620002c762000e03565b6040518082815260200191505060405180910390f35b6200032e60048036036040811015620002f557600080fd5b81019080803573ffffffffffffffffffffffffffffffffffffffff16906020019092919080351515906020019092919050505062000e0d565b005b62000375600480360360208110156200034857600080fd5b81019080803573ffffffffffffffffffffffffffffffffffffffff1690602001909291905050506200152f565b604051808273ffffffffffffffffffffffffffffffffffffffff16815260200191505060405180910390f35b620003ab62001598565b005b620003f260048036036020811015620003c557600080fd5b81019080803573ffffffffffffffffffffffffffffffffffffffff16906020019092919050505062001730565b60405180821515815260200191505060405180910390f35b6200044f600480360360208110156200042257600080fd5b81019080803573ffffffffffffffffffffffffffffffffffffffff16906020019092919050505062001791565b005b620004ce600480360360208110156200046957600080fd5b81019080803590602001906401000000008111156200048757600080fd5b8201836020820111156200049a57600080fd5b80359060200191846001830284011164010000000083111715620004bd57600080fd5b909192939192939050505062001a9a565b005b6200051560048036036020811015620004e857600080fd5b81019080803573ffffffffffffffffffffffffffffffffffffffff16906020019092919050505062001bbd565b6040518082815260200191505060405180910390f35b6200053562001c39565b604051808273ffffffffffffffffffffffffffffffffffffffff16815260200191505060405180910390f35b620005a6600480360360208110156200057957600080fd5b81019080803573ffffffffffffffffffffffffffffffffffffffff16906020019092919050505062001c62565b604051808573ffffffffffffffffffffffffffffffffffffffff1681526020018473ffffffffffffffffffffffffffffffffffffffff1681526020018373ffffffffffffffffffffffffffffffffffffffff16815260200182815260200194505050505060405180910390f35b6200061d62001e04565b005b6200062962001fc6565b604051808273ffffffffffffffffffffffffffffffffffffffff16815260200191505060405180910390f35b6200069a600480360360208110156200066d57600080fd5b81019080803573ffffffffffffffffffffffffffffffffffffffff16906020019092919050505062001ff0565b005b620006ed60048036036040811015620006b457600080fd5b81019080803573ffffffffffffffffffffffffffffffffffffffff169060200190929190803515159060200190929190505050620022de565b005b620006f962002826565b6040518080602001828103825283818151815260200191508051906020019080838360005b838110156200073b5780820151818401526020810190506200071e565b50505050905090810190601f168015620007695780820380516001836020036101000a031916815260200191505b509250505060405180910390f35b620007bc600480360360208110156200078f57600080fd5b81019080803573ffffffffffffffffffffffffffffffffffffffff169060200190929190505050620028cc565b60405180821515815260200191505060405180910390f35b6200086560048036036080811015620007ec57600080fd5b81019080803573ffffffffffffffffffffffffffffffffffffffff169060200190929190803573ffffffffffffffffffffffffffffffffffffffff169060200190929190803573ffffffffffffffffffffffffffffffffffffffff1690602001909291908035151590602001909291905050506200291a565b005b600260009054906101000a900473ffffffffffffffffffffffffffffffffffffffff1673ffffffffffffffffffffffffffffffffffffffff163373ffffffffffffffffffffffffffffffffffffffff16146200090f576040517f08c379a000000000000000000000000000000000000000000000000000000000815260040180806020018281038252602e81526020018062003f58602e913960400191505060405180910390fd5b600060035490508082141562000971576040517f08c379a000000000000000000000000000000000000000000000000000000000815260040180806020018281038252603b81526020018062004220603b913960400191505060405180910390fd5b816003819055507f481ce28a1145a5d9b59e2d1d7eba33bc3350124def8fdc91032238d343ad53618183604051808381526020018281526020019250505060405180910390a15050565b60008060009054906101000a900473ffffffffffffffffffffffffffffffffffffffff1673ffffffffffffffffffffffffffffffffffffffff163373ffffffffffffffffffffffffffffffffffffffff161462000a64576040517f08c379a000000000000000000000000000000000000000000000000000000000815260040180806020018281038252603481526020018062003dd26034913960400191505060405180910390fd5b62000a6f8462002e0c565b62000ac6576040517f08c379a000000000000000000000000000000000000000000000000000000000815260040180806020018281038252602d81526020018062003fb7602d913960400191505060405180910390fd5b6060635c9a6d3760e01b86868686604051602401808573ffffffffffffffffffffffffffffffffffffffff1681526020018473ffffffffffffffffffffffffffffffffffffffff168152602001806020018281038252848482818152602001925080828437600081840152601f19601f82011690508083019250505095505050505050604051602081830303815290604052907bffffffffffffffffffffffffffffffffffffffffffffffffffffffff19166020820180517bffffffffffffffffffffffffffffffffffffffffffffffffffffffff83818316178352505050509050808760405162000bb890620038a4565b80806020018373ffffffffffffffffffffffffffffffffffffffff168152602001828103825284818151815260200191508051906020019080838360005b8381101562000c1357808201518184015260208101905062000bf6565b50505050905090810190601f16801562000c415780820380516001836020036101000a031916815260200191505b509350505050604051809103906000f08015801562000c64573d6000803e3d6000fd5b509150600033905080600560008573ffffffffffffffffffffffffffffffffffffffff1673ffffffffffffffffffffffffffffffffffffffff16815260200190815260200160002060006101000a81548173ffffffffffffffffffffffffffffffffffffffff021916908373ffffffffffffffffffffffffffffffffffffffff1602179055508773ffffffffffffffffffffffffffffffffffffffff168773ffffffffffffffffffffffffffffffffffffffff168273ffffffffffffffffffffffffffffffffffffffff167fa50560b448ad796ef60adfeffe1c19ed34daf94c2aa6905d0e209017dbc19f58868a8a8a604051808573ffffffffffffffffffffffffffffffffffffffff1681526020018473ffffffffffffffffffffffffffffffffffffffff168152602001806020018281038252848482818152602001925080828437600081840152601f19601f8201169050808301925050509550505050505060405180910390a4505095945050505050565b6000600160009054906101000a900473ffffffffffffffffffffffffffffffffffffffff16905090565b6000600354905090565b62000e17620038b2565b600660008473ffffffffffffffffffffffffffffffffffffffff1673ffffffffffffffffffffffffffffffffffffffff1681526020019081526020016000206040518060800160405290816000820160009054906101000a900473ffffffffffffffffffffffffffffffffffffffff1673ffffffffffffffffffffffffffffffffffffffff1673ffffffffffffffffffffffffffffffffffffffff1681526020016001820160009054906101000a900473ffffffffffffffffffffffffffffffffffffffff1673ffffffffffffffffffffffffffffffffffffffff1673ffffffffffffffffffffffffffffffffffffffff1681526020016002820160009054906101000a900473ffffffffffffffffffffffffffffffffffffffff1673ffffffffffffffffffffffffffffffffffffffff1673ffffffffffffffffffffffffffffffffffffffff1681526020016003820154815250509050600081600001519050600073ffffffffffffffffffffffffffffffffffffffff168173ffffffffffffffffffffffffffffffffffffffff16141562001000576040517f08c379a000000000000000000000000000000000000000000000000000000000815260040180806020018281038252603d815260200180620041e3603d913960400191505060405180910390fd5b8073ffffffffffffffffffffffffffffffffffffffff163373ffffffffffffffffffffffffffffffffffffffff161462001086576040517f08c379a0000000000000000000000000000000000000000000000000000000008152600401808060200182810382526045815260200180620040b86045913960600191505060405180910390fd5b60008054906101000a900473ffffffffffffffffffffffffffffffffffffffff1673ffffffffffffffffffffffffffffffffffffffff168173ffffffffffffffffffffffffffffffffffffffff16146200112c576040517f08c379a000000000000000000000000000000000000000000000000000000000815260040180806020018281038252604f81526020018062003f09604f913960600191505060405180910390fd5b6000826060015190508042101562001190576040517f08c379a0000000000000000000000000000000000000000000000000000000008152600401808060200182810382526038815260200180620040456038913960400191505060405180910390fd5b6000600560008773ffffffffffffffffffffffffffffffffffffffff1673ffffffffffffffffffffffffffffffffffffffff16815260200190815260200160002060009054906101000a900473ffffffffffffffffffffffffffffffffffffffff16905060008460200151905060008560400151905062001218600289858886868d62002e1f565b8773ffffffffffffffffffffffffffffffffffffffff16634140d607826040518263ffffffff1660e01b8152600401808273ffffffffffffffffffffffffffffffffffffffff168152602001915050600060405180830381600087803b1580156200128257600080fd5b505af115801562001297573d6000803e3d6000fd5b505050508773ffffffffffffffffffffffffffffffffffffffff1663ab9253ac836040518263ffffffff1660e01b8152600401808273ffffffffffffffffffffffffffffffffffffffff168152602001915050600060405180830381600087803b1580156200130557600080fd5b505af11580156200131a573d6000803e3d6000fd5b5050505084600560008a73ffffffffffffffffffffffffffffffffffffffff1673ffffffffffffffffffffffffffffffffffffffff16815260200190815260200160002060006101000a81548173ffffffffffffffffffffffffffffffffffffffff021916908373ffffffffffffffffffffffffffffffffffffffff160217905550600660008973ffffffffffffffffffffffffffffffffffffffff1673ffffffffffffffffffffffffffffffffffffffff168152602001908152602001600020600080820160006101000a81549073ffffffffffffffffffffffffffffffffffffffff02191690556001820160006101000a81549073ffffffffffffffffffffffffffffffffffffffff02191690556002820160006101000a81549073ffffffffffffffffffffffffffffffffffffffff0219169055600382016000905550506200146d600389858886868d62002e1f565b8473ffffffffffffffffffffffffffffffffffffffff168373ffffffffffffffffffffffffffffffffffffffff168973ffffffffffffffffffffffffffffffffffffffff167fad6fb3d36e2cda148dfd43203c1a40c0da9a9baa662ae9d6c3b0c3e4a9d6a635858589604051808473ffffffffffffffffffffffffffffffffffffffff1681526020018373ffffffffffffffffffffffffffffffffffffffff168152602001828152602001935050505060405180910390a45050505050505050565b6000600560008373ffffffffffffffffffffffffffffffffffffffff1673ffffffffffffffffffffffffffffffffffffffff16815260200190815260200160002060009054906101000a900473ffffffffffffffffffffffffffffffffffffffff169050919050565b6000600160009054906101000a900473ffffffffffffffffffffffffffffffffffffffff1690508073ffffffffffffffffffffffffffffffffffffffff163373ffffffffffffffffffffffffffffffffffffffff161462001645576040517f08c379a000000000000000000000000000000000000000000000000000000000815260040180806020018281038252603e81526020018062004138603e913960400191505060405180910390fd5b600160006101000a81549073ffffffffffffffffffffffffffffffffffffffff02191690556000600260009054906101000a900473ffffffffffffffffffffffffffffffffffffffff16905081600260006101000a81548173ffffffffffffffffffffffffffffffffffffffff021916908373ffffffffffffffffffffffffffffffffffffffff1602179055508173ffffffffffffffffffffffffffffffffffffffff168173ffffffffffffffffffffffffffffffffffffffff167f8be0079c531659141344cd1fd0a4f28419497f9722a3daafe3b4186f6b6457e060405160405180910390a35050565b600080600660008473ffffffffffffffffffffffffffffffffffffffff1673ffffffffffffffffffffffffffffffffffffffff168152602001908152602001600020600301549050600081118015620017895750804210155b915050919050565b600260009054906101000a900473ffffffffffffffffffffffffffffffffffffffff1673ffffffffffffffffffffffffffffffffffffffff163373ffffffffffffffffffffffffffffffffffffffff161462001839576040517f08c379a000000000000000000000000000000000000000000000000000000000815260040180806020018281038252602e81526020018062003f58602e913960400191505060405180910390fd5b600073ffffffffffffffffffffffffffffffffffffffff168173ffffffffffffffffffffffffffffffffffffffff161415620018c1576040517f08c379a000000000000000000000000000000000000000000000000000000000815260040180806020018281038252603681526020018062003fe46036913960400191505060405180910390fd5b600260009054906101000a900473ffffffffffffffffffffffffffffffffffffffff1673ffffffffffffffffffffffffffffffffffffffff168173ffffffffffffffffffffffffffffffffffffffff1614156200196a576040517f08c379a000000000000000000000000000000000000000000000000000000000815260040180806020018281038252603b8152602001806200407d603b913960400191505060405180910390fd5b600160009054906101000a900473ffffffffffffffffffffffffffffffffffffffff1673ffffffffffffffffffffffffffffffffffffffff168173ffffffffffffffffffffffffffffffffffffffff16141562001a13576040517f08c379a000000000000000000000000000000000000000000000000000000000815260040180806020018281038252603b815260200180620040fd603b913960400191505060405180910390fd5b80600160006101000a81548173ffffffffffffffffffffffffffffffffffffffff021916908373ffffffffffffffffffffffffffffffffffffffff1602179055508073ffffffffffffffffffffffffffffffffffffffff167f132c19de901bb4ed8403c34734b6c841d5dc57745824da452a52433519ea5abf60405160405180910390a250565b600260009054906101000a900473ffffffffffffffffffffffffffffffffffffffff1673ffffffffffffffffffffffffffffffffffffffff163373ffffffffffffffffffffffffffffffffffffffff161462001b42576040517f08c379a000000000000000000000000000000000000000000000000000000000815260040180806020018281038252602e81526020018062003f58602e913960400191505060405180910390fd5b81816004919062001b559291906200391c565b507ff0115712c23b609855a28d7b8963c6d16d732ae388b11e5d4ec6d5eae4ad8698828260405180806020018281038252848482818152602001925080828437600081840152601f19601f820116905080830192505050935050505060405180910390a15050565b600080600660008473ffffffffffffffffffffffffffffffffffffffff1673ffffffffffffffffffffffffffffffffffffffff168152602001908152602001600020600301549050600081141562001c1a57600091505062001c34565b80421062001c2d57600091505062001c34565b4281039150505b919050565b60008060009054906101000a900473ffffffffffffffffffffffffffffffffffffffff16905090565b60008060008062001c72620038b2565b600660008773ffffffffffffffffffffffffffffffffffffffff1673ffffffffffffffffffffffffffffffffffffffff1681526020019081526020016000206040518060800160405290816000820160009054906101000a900473ffffffffffffffffffffffffffffffffffffffff1673ffffffffffffffffffffffffffffffffffffffff1673ffffffffffffffffffffffffffffffffffffffff1681526020016001820160009054906101000a900473ffffffffffffffffffffffffffffffffffffffff1673ffffffffffffffffffffffffffffffffffffffff1673ffffffffffffffffffffffffffffffffffffffff1681526020016002820160009054906101000a900473ffffffffffffffffffffffffffffffffffffffff1673ffffffffffffffffffffffffffffffffffffffff1673ffffffffffffffffffffffffffffffffffffffff168152602001600382015481525050905060008160600151111562001dfb57806000015181602001518260400151836060015194509450945094505062001dfd565b505b9193509193565b600260009054906101000a900473ffffffffffffffffffffffffffffffffffffffff1673ffffffffffffffffffffffffffffffffffffffff163373ffffffffffffffffffffffffffffffffffffffff161462001eac576040517f08c379a000000000000000000000000000000000000000000000000000000000815260040180806020018281038252602e81526020018062003f58602e913960400191505060405180910390fd5b6000600160009054906101000a900473ffffffffffffffffffffffffffffffffffffffff169050600073ffffffffffffffffffffffffffffffffffffffff168173ffffffffffffffffffffffffffffffffffffffff16141562001f5b576040517f08c379a000000000000000000000000000000000000000000000000000000000815260040180806020018281038252603181526020018062003f866031913960400191505060405180910390fd5b600160006101000a81549073ffffffffffffffffffffffffffffffffffffffff02191690558073ffffffffffffffffffffffffffffffffffffffff167fe4136584a5e8bb85d66301f3ce8b11cc2e5a8bea3979f10ea2451353849acc4760405160405180910390a250565b6000600260009054906101000a900473ffffffffffffffffffffffffffffffffffffffff16905090565b600260009054906101000a900473ffffffffffffffffffffffffffffffffffffffff1673ffffffffffffffffffffffffffffffffffffffff163373ffffffffffffffffffffffffffffffffffffffff161462002098576040517f08c379a000000000000000000000000000000000000000000000000000000000815260040180806020018281038252602e81526020018062003f58602e913960400191505060405180910390fd5b600073ffffffffffffffffffffffffffffffffffffffff168173ffffffffffffffffffffffffffffffffffffffff16141562002120576040517f08c379a000000000000000000000000000000000000000000000000000000000815260040180806020018281038252603981526020018062003eaa6039913960400191505060405180910390fd5b6200212b8162002e0c565b62002182576040517f08c379a0000000000000000000000000000000000000000000000000000000008152600401808060200182810382526036815260200180620041ad6036913960400191505060405180910390fd5b60008060009054906101000a900473ffffffffffffffffffffffffffffffffffffffff1690508073ffffffffffffffffffffffffffffffffffffffff168273ffffffffffffffffffffffffffffffffffffffff1614156200222f576040517f08c379a000000000000000000000000000000000000000000000000000000000815260040180806020018281038252604881526020018062003e366048913960600191505060405180910390fd5b816000806101000a81548173ffffffffffffffffffffffffffffffffffffffff021916908373ffffffffffffffffffffffffffffffffffffffff1602179055507f44cf34a26ccbaa8a20e6098a1278e28682572ec9921eb43d8dab274a503e92f58183604051808373ffffffffffffffffffffffffffffffffffffffff1681526020018273ffffffffffffffffffffffffffffffffffffffff1681526020019250505060405180910390a15050565b620022e8620038b2565b600660008473ffffffffffffffffffffffffffffffffffffffff1673ffffffffffffffffffffffffffffffffffffffff1681526020019081526020016000206040518060800160405290816000820160009054906101000a900473ffffffffffffffffffffffffffffffffffffffff1673ffffffffffffffffffffffffffffffffffffffff1673ffffffffffffffffffffffffffffffffffffffff1681526020016001820160009054906101000a900473ffffffffffffffffffffffffffffffffffffffff1673ffffffffffffffffffffffffffffffffffffffff1673ffffffffffffffffffffffffffffffffffffffff1681526020016002820160009054906101000a900473ffffffffffffffffffffffffffffffffffffffff1673ffffffffffffffffffffffffffffffffffffffff1673ffffffffffffffffffffffffffffffffffffffff1681526020016003820154815250509050600081600001519050600073ffffffffffffffffffffffffffffffffffffffff168173ffffffffffffffffffffffffffffffffffffffff161415620024d1576040517f08c379a000000000000000000000000000000000000000000000000000000000815260040180806020018281038252602c81526020018062003e7e602c913960400191505060405180910390fd5b8073ffffffffffffffffffffffffffffffffffffffff163373ffffffffffffffffffffffffffffffffffffffff161480620025ad57508373ffffffffffffffffffffffffffffffffffffffff16637de07cea336040518263ffffffff1660e01b8152600401808273ffffffffffffffffffffffffffffffffffffffff16815260200191505060206040518083038186803b1580156200256f57600080fd5b505afa15801562002584573d6000803e3d6000fd5b505050506040513d60208110156200259b57600080fd5b81019080805190602001909291905050505b62002604576040517f08c379a000000000000000000000000000000000000000000000000000000000815260040180806020018281038252602681526020018062003ee36026913960400191505060405180910390fd5b6000600560008673ffffffffffffffffffffffffffffffffffffffff1673ffffffffffffffffffffffffffffffffffffffff16815260200190815260200160002060009054906101000a900473ffffffffffffffffffffffffffffffffffffffff169050600083602001519050600084604001519050600085606001519050600660008973ffffffffffffffffffffffffffffffffffffffff1673ffffffffffffffffffffffffffffffffffffffff168152602001908152602001600020600080820160006101000a81549073ffffffffffffffffffffffffffffffffffffffff02191690556001820160006101000a81549073ffffffffffffffffffffffffffffffffffffffff02191690556002820160006101000a81549073ffffffffffffffffffffffffffffffffffffffff02191690556003820160009055505062002754600489868887878d62002e1f565b6200276488858786868c62003295565b8473ffffffffffffffffffffffffffffffffffffffff168473ffffffffffffffffffffffffffffffffffffffff168973ffffffffffffffffffffffffffffffffffffffff167f9851a8f232c380eb2c1065756776e37d85d4fe0c8cb4005b0d72c749bfef923e868686604051808473ffffffffffffffffffffffffffffffffffffffff1681526020018373ffffffffffffffffffffffffffffffffffffffff168152602001828152602001935050505060405180910390a45050505050505050565b606060048054600181600116156101000203166002900480601f016020809104026020016040519081016040528092919081815260200182805460018160011615610100020316600290048015620028c25780601f106200289657610100808354040283529160200191620028c2565b820191906000526020600020905b815481529060010190602001808311620028a457829003601f168201915b5050505050905090565b600080600660008473ffffffffffffffffffffffffffffffffffffffff1673ffffffffffffffffffffffffffffffffffffffff16815260200190815260200160002060030154119050919050565b60008054906101000a900473ffffffffffffffffffffffffffffffffffffffff1673ffffffffffffffffffffffffffffffffffffffff163373ffffffffffffffffffffffffffffffffffffffff1614620029c0576040517f08c379a000000000000000000000000000000000000000000000000000000000815260040180806020018281038252603481526020018062003dd26034913960400191505060405180910390fd5b620029cb8362002e0c565b62002a22576040517f08c379a000000000000000000000000000000000000000000000000000000000815260040180806020018281038252603081526020018062003e066030913960400191505060405180910390fd5b6000600560008673ffffffffffffffffffffffffffffffffffffffff1673ffffffffffffffffffffffffffffffffffffffff16815260200190815260200160002060009054906101000a900473ffffffffffffffffffffffffffffffffffffffff169050600073ffffffffffffffffffffffffffffffffffffffff168173ffffffffffffffffffffffffffffffffffffffff16141562002b0e576040517f08c379a000000000000000000000000000000000000000000000000000000000815260040180806020018281038252602b8152602001806200401a602b913960400191505060405180910390fd5b60003390508173ffffffffffffffffffffffffffffffffffffffff168173ffffffffffffffffffffffffffffffffffffffff16141562002b9a576040517f08c379a0000000000000000000000000000000000000000000000000000000008152600401808060200182810382526037815260200180620041766037913960400191505060405180910390fd5b62002bac600087848489898962002e1f565b60006003544201905060405180608001604052808373ffffffffffffffffffffffffffffffffffffffff1681526020018773ffffffffffffffffffffffffffffffffffffffff1681526020018673ffffffffffffffffffffffffffffffffffffffff16815260200182815250600660008973ffffffffffffffffffffffffffffffffffffffff1673ffffffffffffffffffffffffffffffffffffffff16815260200190815260200160002060008201518160000160006101000a81548173ffffffffffffffffffffffffffffffffffffffff021916908373ffffffffffffffffffffffffffffffffffffffff16021790555060208201518160010160006101000a81548173ffffffffffffffffffffffffffffffffffffffff021916908373ffffffffffffffffffffffffffffffffffffffff16021790555060408201518160020160006101000a81548173ffffffffffffffffffffffffffffffffffffffff021916908373ffffffffffffffffffffffffffffffffffffffff1602179055506060820151816003015590505062002d4b60018885858a8a8a62002e1f565b8173ffffffffffffffffffffffffffffffffffffffff168373ffffffffffffffffffffffffffffffffffffffff168873ffffffffffffffffffffffffffffffffffffffff167fb519c42fdb88f83f098814813f2ebff14fbf14f3e68b054e5a98834c69d54bfb898986604051808473ffffffffffffffffffffffffffffffffffffffff1681526020018373ffffffffffffffffffffffffffffffffffffffff168152602001828152602001935050505060405180910390a450505050505050565b600080823b905060008111915050919050565b600060608673ffffffffffffffffffffffffffffffffffffffff16633f84c12c60e01b8a8a8989896040516024018086600481111562002e5b57fe5b81526020018573ffffffffffffffffffffffffffffffffffffffff1681526020018473ffffffffffffffffffffffffffffffffffffffff1681526020018373ffffffffffffffffffffffffffffffffffffffff1681526020018273ffffffffffffffffffffffffffffffffffffffff16815260200195505050505050604051602081830303815290604052907bffffffffffffffffffffffffffffffffffffffffffffffffffffffff19166020820180517bffffffffffffffffffffffffffffffffffffffffffffffffffffffff83818316178352505050506040518082805190602001908083835b6020831062002f69578051825260208201915060208101905060208303925062002f44565b6001836020036101000a0380198251168184511680821785525050505050509050019150506000604051808303816000865af19150503d806000811462002fcd576040519150601f19603f3d011682016040523d82523d6000602084013e62002fd2565b606091505b5091509150816200328a578262002fe98a620036ab565b826040516020018083805190602001908083835b6020831062003022578051825260208201915060208101905060208303925062002ffd565b6001836020036101000a03801982511681845116808217855250505050505090500182805190602001908083835b6020831062003075578051825260208201915060208101905060208303925062003050565b6001836020036101000a038019825116818451168082178552505050505050905001925050506040516020818303038152906040529062003154576040517f08c379a00000000000000000000000000000000000000000000000000000000081526004018080602001828103825283818151815260200191508051906020019080838360005b8381101562003118578082015181840152602081019050620030fb565b50505050905090810190601f168015620031465780820380516001836020036101000a031916815260200191505b509250505060405180910390fd5b508573ffffffffffffffffffffffffffffffffffffffff168773ffffffffffffffffffffffffffffffffffffffff168973ffffffffffffffffffffffffffffffffffffffff167fbf0ae6830883bd89855f2e7b17a2924b5de0b2b3d4a8834d7c2c0d5dc53447db848d8a8a6040518080602001856004811115620031d457fe5b81526020018473ffffffffffffffffffffffffffffffffffffffff1681526020018373ffffffffffffffffffffffffffffffffffffffff168152602001828103825286818151815260200191508051906020019080838360005b838110156200324b5780820151818401526020810190506200322e565b50505050905090810190601f168015620032795780820380516001836020036101000a031916815260200191505b509550505050505060405180910390a45b505050505050505050565b600060608573ffffffffffffffffffffffffffffffffffffffff1663df369ba760e01b89898888604051602401808573ffffffffffffffffffffffffffffffffffffffff1681526020018473ffffffffffffffffffffffffffffffffffffffff1681526020018373ffffffffffffffffffffffffffffffffffffffff1681526020018273ffffffffffffffffffffffffffffffffffffffff168152602001945050505050604051602081830303815290604052907bffffffffffffffffffffffffffffffffffffffffffffffffffffffff19166020820180517bffffffffffffffffffffffffffffffffffffffffffffffffffffffff83818316178352505050506040518082805190602001908083835b60208310620033cb5780518252602082019150602081019050602083039250620033a6565b6001836020036101000a0380198251168184511680821785525050505050509050019150506000604051808303816000865af19150503d80600081146200342f576040519150601f19603f3d011682016040523d82523d6000602084013e62003434565b606091505b509150915081620036a157828160405160200180807f4d6967726174696f6e4f757443616e63656c486f6f6b3a20000000000000000081525060180182805190602001908083835b60208310620034a157805182526020820191506020810190506020830392506200347c565b6001836020036101000a038019825116818451168082178552505050505050905001915050604051602081830303815290604052906200357f576040517f08c379a00000000000000000000000000000000000000000000000000000000081526004018080602001828103825283818151815260200191508051906020019080838360005b838110156200354357808201518184015260208101905062003526565b50505050905090810190601f168015620035715780820380516001836020036101000a031916815260200191505b509250505060405180910390fd5b508573ffffffffffffffffffffffffffffffffffffffff168773ffffffffffffffffffffffffffffffffffffffff168973ffffffffffffffffffffffffffffffffffffffff167f7c79070aa51adb676fb9c8d0f7a1f841ff9cf514444b37c95297ed1c52547b3284898960405180806020018473ffffffffffffffffffffffffffffffffffffffff1681526020018373ffffffffffffffffffffffffffffffffffffffff168152602001828103825285818151815260200191508051906020019080838360005b838110156200366357808201518184015260208101905062003646565b50505050905090810190601f168015620036915780820380516001836020036101000a031916815260200191505b5094505050505060405180910390a45b5050505050505050565b606060006004811115620036bb57fe5b826004811115620036c857fe5b14156200370d576040518060400160405280601c81526020017f4d6967726174696f6e4f7574486f6f6b2e5072655369676e616c3a200000000081525090506200389f565b600160048111156200371b57fe5b8260048111156200372857fe5b14156200376d576040518060400160405280601d81526020017f4d6967726174696f6e4f7574486f6f6b2e506f73745369676e616c3a2000000081525090506200389f565b600260048111156200377b57fe5b8260048111156200378857fe5b1415620037cd576040518060400160405280601d81526020017f4d6967726174696f6e4f7574486f6f6b2e5072654d6967726174653a2000000081525090506200389f565b60036004811115620037db57fe5b826004811115620037e857fe5b14156200382d576040518060400160405280601e81526020017f4d6967726174696f6e4f7574486f6f6b2e506f73744d6967726174653a20000081525090506200389f565b6004808111156200383a57fe5b8260048111156200384757fe5b14156200388c576040518060400160405280601d81526020017f4d6967726174696f6e4f7574486f6f6b2e506f737443616e63656c3a2000000081525090506200389f565b6040518060200160405280600081525090505b919050565b61040f80620039c383390190565b6040518060800160405280600073ffffffffffffffffffffffffffffffffffffffff168152602001600073ffffffffffffffffffffffffffffffffffffffff168152602001600073ffffffffffffffffffffffffffffffffffffffff168152602001600081525090565b828054600181600116156101000203166002900490600052602060002090601f016020900481019282601f106200395f57803560ff191683800117855562003990565b8280016001018555821562003990579182015b828111156200398f57823582559160200191906001019062003972565b5b5090506200399f9190620039a3565b5090565b5b80821115620039be576000816000905550600101620039a4565b509056fe608060405234801561001057600080fd5b5060405161040f38038061040f8339818101604052604081101561003357600080fd5b810190808051604051939291908464010000000082111561005357600080fd5b8382019150602082018581111561006957600080fd5b825186600182028301116401000000008211171561008657600080fd5b8083526020830192505050908051906020019080838360005b838110156100ba57808201518184015260208101905061009f565b50505050905090810190601f1680156100e75780820380516001836020036101000a031916815260200191505b50604052602001805190602001909291905050508073ffffffffffffffffffffffffffffffffffffffff166352d1902d6040518163ffffffff1660e01b815260040160206040518083038186803b15801561014157600080fd5b505afa158015610155573d6000803e3d6000fd5b505050506040513d602081101561016b57600080fd5b81019080805190602001909291905050507f027b9570e9fedc1a80b937ae9a06861e5faef3992491af30b684a64b3fbec7a560001b146101f6576040517f08c379a00000000000000000000000000000000000000000000000000000000081526004018080602001828103825260258152602001806103ea6025913960400191505060405180910390fd5b807f360894a13ba1a3210667c828492db98dca3e2076cc3735a920a3ca505d382bbc55600060608273ffffffffffffffffffffffffffffffffffffffff16846040518082805190602001908083835b602083106102685780518252602082019150602081019050602083039250610245565b6001836020036101000a038019825116818451168082178552505050505050905001915050600060405180830381855af49150503d80600081146102c8576040519150601f19603f3d011682016040523d82523d6000602084013e6102cd565b606091505b509150915081819061037a576040517f08c379a00000000000000000000000000000000000000000000000000000000081526004018080602001828103825283818151815260200191508051906020019080838360005b8381101561033f578082015181840152602081019050610324565b50505050905090810190601f16801561036c5780820380516001836020036101000a031916815260200191505b509250505060405180910390fd5b5050505050605d8061038d6000396000f3fe60806040527f360894a13ba1a3210667c828492db98dca3e2076cc3735a920a3ca505d382bbc543660008037600080366000846127105a03f43d806000803e8160008114604b57816000f35b816000fdfea164736f6c634300060c000a636f6e7374727563746f723a205f7661756c744c6962206e6f7420636f6d70617469626c654f6e6c79207468652063757272656e742046756e644465706c6f7965722063616e2063616c6c20746869732066756e6374696f6e7369676e616c4d6967726174696f6e3a204e6f6e2d636f6e7472616374205f6e6578745661756c744163636573736f7273657443757272656e7446756e644465706c6f7965723a205f6e65787446756e644465706c6f79657220697320616c72656164792063757272656e7446756e644465706c6f79657263616e63656c4d6967726174696f6e3a204e6f206d6967726174696f6e20726571756573742065786973747373657443757272656e7446756e644465706c6f7965723a205f6e65787446756e644465706c6f7965722063616e6e6f7420626520656d70747963616e63656c4d6967726174696f6e3a204e6f7420616e20616c6c6f7765642063616c6c6572657865637574654d6967726174696f6e3a20546865207461726765742046756e644465706c6f796572206973206e6f206c6f6e676572207468652063757272656e742046756e644465706c6f7965724f6e6c792074686520636f6e7472616374206f776e65722063616e2063616c6c20746869732066756e6374696f6e72656d6f76654e6f6d696e617465644f776e65723a205468657265206973206e6f206e6f6d696e61746564206f776e65726465706c6f795661756c7450726f78793a204e6f6e2d636f6e7472616374205f7661756c744163636573736f727365744e6f6d696e617465644f776e65723a205f6e6578744e6f6d696e617465644f776e65722063616e6e6f7420626520656d7074797369676e616c4d6967726174696f6e3a205f7661756c7450726f787920646f6573206e6f74206578697374657865637574654d6967726174696f6e3a20546865206d6967726174696f6e2074696d656c6f636b20686173206e6f7420656c61707365647365744e6f6d696e617465644f776e65723a205f6e6578744e6f6d696e617465644f776e657220697320616c726561647920746865206f776e6572657865637574654d6967726174696f6e3a204f6e6c7920746865207461726765742046756e644465706c6f7965722063616e2063616c6c20746869732066756e6374696f6e7365744e6f6d696e617465644f776e65723a205f6e6578744e6f6d696e617465644f776e657220697320616c7265616479206e6f6d696e61746564636c61696d4f776e6572736869703a204f6e6c7920746865206e6f6d696e617465644f776e65722063616e2063616c6c20746869732066756e6374696f6e7369676e616c4d6967726174696f6e3a2043616e206f6e6c79206d69677261746520746f2061206e65772046756e644465706c6f79657273657443757272656e7446756e644465706c6f7965723a204e6f6e2d636f6e7472616374205f6e65787446756e644465706c6f796572657865637574654d6967726174696f6e3a204e6f206d6967726174696f6e20726571756573742065786973747320666f72205f7661756c7450726f78797365744d6967726174696f6e54696d656c6f636b3a205f6e65787454696d656c6f636b206973207468652063757272656e742074696d656c6f636ba164736f6c634300060c000a",
    "linkReferences": {}
  },
  "methodIdentifiers": {
    "cancelMigration(address,bool)": "9c9d48da",
    "claimOwnership()": "4e71e0c8",
    "deployVaultProxy(address,address,address,string)": "22a0c08b",
    "executeMigration(address,bool)": "38b3eb1b",
    "getCurrentFundDeployer()": "7c77b2ed",
    "getFundDeployerForVaultProxy(address)": "3d7c74f8",
    "getMigrationRequestDetailsForVaultProxy(address)": "7dad9fc8",
    "getMigrationTimelock()": "2fa0c161",
    "getNominatedOwner()": "288b6a36",
    "getOwner()": "893d20e8",
    "getSharesTokenSymbol()": "b47b0600",
    "getTimelockRemainingForMigrationRequest(address)": "77a8c624",
    "hasExecutableMigrationRequest(address)": "66231cea",
    "hasMigrationRequest(address)": "d0449d3d",
    "removeNominatedOwner()": "8156eecf",
    "setCurrentFundDeployer(address)": "97af7050",
    "setMigrationTimelock(uint256)": "1df419f7",
    "setNominatedOwner(address)": "728e17a0",
    "setSharesTokenSymbol(string)": "757bc0dd",
    "signalMigration(address,address,address,bool)": "d15f9b9c"
  },
  "id": 80
}