{"abi":[{"type":"constructor","inputs":[{"name":"_fundDeployer","type":"address","internalType":"address"}],"stateMutability":"nonpayable"},{"type":"function","name":"activateForFund","inputs":[],"outputs":[],"stateMutability":"nonpayable"},{"type":"function","name":"deactivateForFund","inputs":[],"outputs":[],"stateMutability":"nonpayable"},{"type":"function","name":"getEnabledFeesForFund","inputs":[{"name":"_comptrollerProxy","type":"address","internalType":"address"}],"outputs":[{"name":"enabledFees_","type":"address[]","internalType":"address[]"}],"stateMutability":"view"},{"type":"function","name":"getFundDeployer","inputs":[],"outputs":[{"name":"fundDeployer_","type":"address","internalType":"address"}],"stateMutability":"view"},{"type":"function","name":"getOwner","inputs":[],"outputs":[{"name":"owner_","type":"address","internalType":"address"}],"stateMutability":"view"},{"type":"function","name":"getVaultProxyForFund","inputs":[{"name":"_comptrollerProxy","type":"address","internalType":"address"}],"outputs":[{"name":"vaultProxy_","type":"address","internalType":"address"}],"stateMutability":"view"},{"type":"function","name":"invokeHook","inputs":[{"name":"_hook","type":"uint8","internalType":"enum IFeeManager.FeeHook"},{"name":"_settlementData","type":"bytes","internalType":"bytes"},{"name":"_gav","type":"uint256","internalType":"uint256"}],"outputs":[],"stateMutability":"nonpayable"},{"type":"function","name":"receiveCallFromComptroller","inputs":[{"name":"","type":"address","internalType":"address"},{"name":"_actionId","type":"uint256","internalType":"uint256"},{"name":"","type":"bytes","internalType":"bytes"}],"outputs":[],"stateMutability":"nonpayable"},{"type":"function","name":"setConfigForFund","inputs":[{"name":"_configData","type":"bytes","internalType":"bytes"}],"outputs":[],"stateMutability":"nonpayable"},{"type":"event","name":"FeeEnabledForFund","inputs":[{"name":"comptrollerProxy","type":"address","indexed":true,"internalType":"address"},{"name":"fee","type":"address","indexed":true,"internalType":"address"},{"name":"settingsData","type":"bytes","indexed":false,"internalType":"bytes"}],"anonymous":false},{"type":"event","name":"FeeSettledForFund","inputs":[{"name":"comptrollerProxy","type":"address","indexed":true,"internalType":"address"},{"name":"fee","type":"address","indexed":true,"internalType":"address"},{"name":"settlementType","type":"uint8","indexed":true,"internalType":"enum IFeeManager.SettlementType"},{"name":"payer","type":"address","indexed":false,"internalType":"address"},{"name":"payee","type":"address","indexed":false,"internalType":"address"},{"name":"sharesDue","type":"uint256","indexed":false,"internalType":"uint256"}],"anonymous":false},{"type":"event","name":"ValidatedVaultProxySetForFund","inputs":[{"name":"comptrollerProxy","type":"address","indexed":true,"internalType":"address"},{"name":"vaultProxy","type":"address","indexed":true,"internalType":"address"}],"anonymous":false}],"bytecode":{"object":"0x60a060405234801561001057600080fd5b5060405161172c38038061172c83398101604081905261002f91610040565b6001600160a01b0316608052610070565b60006020828403121561005257600080fd5b81516001600160a01b038116811461006957600080fd5b9392505050565b6080516116936100996000396000818161012e01528181610316015261076b01526116936000f3fe608060405234801561001057600080fd5b50600436106100935760003560e01c8063893d20e811610066578063893d20e81461011157806389cbe1d01461011957806397c0ac871461012c578063a9f3b42f14610152578063bd8e959a146100ab57600080fd5b80631bee801e1461009857806321725d01146100ad57806346790346146100b55780637759c164146100fe575b600080fd5b6100ab6100a63660046110cc565b610172565b005b6100ab610207565b6100e16100c3366004611128565b6001600160a01b039081166000908152602081905260409020541690565b6040516001600160a01b0390911681526020015b60405180910390f35b6100ab61010c366004611152565b6102cc565b6100e1610312565b6100ab6101273660046111ae565b61039b565b7f00000000000000000000000000000000000000000000000000000000000000006100e1565b610165610160366004611128565b61063c565b6040516100f591906111f0565b8260000361019e5761019933600060405180602001604052806000815250600060016106b2565b610201565b60405162461bcd60e51b815260206004820152602d60248201527f7265636569766543616c6c46726f6d436f6d7074726f6c6c65723a20496e766160448201526c1b1a590817d858dd1a5bdb9259609a1b60648201526084015b60405180910390fd5b50505050565b336000818152602081905260408120546001600160a01b03169061022a8361063c565b905060005b81518110156102015781818151811061024a5761024a61123d565b6020908102919091010151604051630628da0b60e31b81526001600160a01b038681166004830152858116602483015290911690633146d05890604401600060405180830381600087803b1580156102a157600080fd5b505af11580156102b5573d6000803e3d6000fd5b5050505080806102c490611269565b91505061022f565b610201338585858080601f016020809104026020016040519081016040528093929190818152602001838380828437600092019190915250879250600191506106b29050565b60007f00000000000000000000000000000000000000000000000000000000000000006001600160a01b031663893d20e86040518163ffffffff1660e01b8152600401602060405180830381865afa158015610372573d6000803e3d6000fd5b505050506040513d601f19601f820116820180604052508101906103969190611282565b905090565b336103a581610767565b506000806103b5848601866113f3565b9150915080518251146104305760405162461bcd60e51b815260206004820152603d60248201527f736574436f6e666967466f7246756e643a206665657320616e6420736574746960448201527f6e677344617461206172726179206c656e6774687320756e657175616c00000060648201526084016101f8565b610439826108c1565b61049e5760405162461bcd60e51b815260206004820152603060248201527f736574436f6e666967466f7246756e643a20666565732063616e6e6f7420696e60448201526f636c756465206475706c69636174657360801b60648201526084016101f8565b60005b8251811015610634578281815181106104bc576104bc61123d565b60200260200101516001600160a01b0316630f5f6b4f858484815181106104e5576104e561123d565b60200260200101516040518363ffffffff1660e01b815260040161050a9291906114fb565b600060405180830381600087803b15801561052457600080fd5b505af1158015610538573d6000803e3d6000fd5b505050506001600160a01b038416600090815260016020526040902083518490839081106105685761056861123d565b60209081029190910181015182546001810184556000938452919092200180546001600160a01b0319166001600160a01b0390921691909117905582518390829081106105b7576105b761123d565b60200260200101516001600160a01b0316846001600160a01b03167f62b7814f137868e44c7a83c2b0a340fc5dacef8f3e748867d0f5f879fc0ef6da8484815181106106055761060561123d565b602002602001015160405161061a919061151f565b60405180910390a38061062c81611269565b9150506104a1565b505050505050565b6001600160a01b0381166000908152600160209081526040918290208054835181840281018401909452808452606093928301828280156106a657602002820191906000526020600020905b81546001600160a01b03168152600190910190602001808311610688575b50505050509050919050565b60006106bd8661063c565b905080516000036106ce5750610760565b6001600160a01b0386811660009081526020819052604090205416806107365760405162461bcd60e51b815260206004820181905260248201527f5f5f696e766f6b65486f6f6b3a2046756e64206973206e6f742061637469766560448201526064016101f8565b60006107468883858a8a8a61097e565b9050831561075c5761075c8883858a8a86610a7d565b5050505b5050505050565b60007f0000000000000000000000000000000000000000000000000000000000000000604051631054b35560e21b81526001600160a01b0384811660048301529190911690634152cd5490602401602060405180830381865afa1580156107d2573d6000803e3d6000fd5b505050506040513d601f19601f820116820180604052508101906107f69190611282565b90506001600160a01b0381166108695760405162461bcd60e51b815260206004820152603260248201527f5f5f73657456616c6964617465645661756c7450726f78793a20496e76616c696044820152716420436f6d7074726f6c6c657250726f787960701b60648201526084016101f8565b6001600160a01b0382811660008181526020819052604080822080546001600160a01b0319169486169485179055517f8852dcaa71340ea616a65ffac013450dfb238607481fb9d78346c667fe256c139190a3919050565b600060018251116108d457506001919050565b815160005b818110156109745760006108ee826001611532565b90505b828110156109615784818151811061090b5761090b61123d565b60200260200101516001600160a01b031685838151811061092e5761092e61123d565b60200260200101516001600160a01b03160361094f57506000949350505050565b8061095981611269565b9150506108f1565b508061096c81611269565b9150506108d9565b5060019392505050565b8060005b8551811015610a72576000808783815181106109a0576109a061123d565b60200260200101516001600160a01b031663320f0ddd886040518263ffffffff1660e01b81526004016109d3919061156f565b6040805180830381865afa1580156109ef573d6000803e3d6000fd5b505050506040513d601f19601f82011682018060405250810190610a139190611592565b9150915081610a23575050610a60565b8015610a3657610a338a85610bc9565b93505b610a5d8a8a8a8681518110610a4d57610a4d61123d565b60200260200101518a8a89610c47565b50505b80610a6a81611269565b915050610982565b509695505050505050565b8060005b855181101561075c57600080878381518110610a9f57610a9f61123d565b60200260200101516001600160a01b031663e337a91f886040518263ffffffff1660e01b8152600401610ad2919061156f565b6040805180830381865afa158015610aee573d6000803e3d6000fd5b505050506040513d601f19601f82011682018060405250810190610b129190611592565b9150915081610b22575050610bb7565b8015610b3557610b328a85610bc9565b93505b878381518110610b4757610b4761123d565b60200260200101516001600160a01b031663233faf5f8b8b8a8a896040518663ffffffff1660e01b8152600401610b829594939291906115c5565b600060405180830381600087803b158015610b9c57600080fd5b505af1158015610bb0573d6000803e3d6000fd5b5050505050505b80610bc181611269565b915050610a81565b600081600003610c3e57826001600160a01b03166356cff99f6040518163ffffffff1660e01b81526004016020604051808303816000875af1158015610c13573d6000803e3d6000fd5b505050506040513d601f19601f82011682018060405250810190610c37919061160e565b9050610c41565b50805b92915050565b6000806000866001600160a01b03166341892d7e8a8a8989896040518663ffffffff1660e01b8152600401610c809594939291906115c5565b6060604051808303816000875af1158015610c9f573d6000803e3d6000fd5b505050506040513d601f19601f82011682018060405250810190610cc39190611627565b919450925090506000836003811115610cde57610cde611545565b03610ceb57505050610634565b60006001846003811115610d0157610d01611545565b03610d2457610d118a8a8a610e3e565b9050610d1f8a848385610f28565b610dcd565b6002846003811115610d3857610d38611545565b03610d5557610d488a8a8a610e3e565b9050610d1f8a8284610fae565b6003846003811115610d6957610d69611545565b03610d7957610d1f8a848461103c565b60405162461bcd60e51b815260206004820152602360248201527f5f5f736574746c654665653a20496e76616c696420536574746c656d656e745460448201526279706560e81b60648201526084016101f8565b836003811115610ddf57610ddf611545565b604080516001600160a01b0386811682528481166020830152918101859052818b16918d16907fef7da7c40d1fc52df907f6fed0e539680d5fb491c3b8f94db234a360dafe1d629060600160405180910390a450505050505050505050565b60405163189e02cf60e21b81526001600160a01b038481166004830152600091908316906362780b3c90602401602060405180830381865afa158015610e88573d6000803e3d6000fd5b505050506040513d601f19601f82011682018060405250810190610eac9190611282565b90506001600160a01b038116610f2157826001600160a01b031663893d20e86040518163ffffffff1660e01b8152600401602060405180830381865afa158015610efa573d6000803e3d6000fd5b505050506040513d601f19601f82011682018060405250810190610f1e9190611282565b90505b9392505050565b604080516001600160a01b0385811660208301528481168284015260608083018590528351808403909101815260808301938490526310acd06d60e01b9093528616916310acd06d91610f809160039160840161166a565b600060405180830381600087803b158015610f9a57600080fd5b505af115801561075c573d6000803e3d6000fd5b604080516001600160a01b038481166020830152918101839052908416906310acd06d906002906060015b6040516020818303038152906040526040518363ffffffff1660e01b815260040161100592919061166a565b600060405180830381600087803b15801561101f57600080fd5b505af1158015611033573d6000803e3d6000fd5b50505050505050565b604080516001600160a01b038481166020830152918101839052908416906310acd06d90600190606001610fd9565b6001600160a01b038116811461108057600080fd5b50565b60008083601f84011261109557600080fd5b50813567ffffffffffffffff8111156110ad57600080fd5b6020830191508360208285010111156110c557600080fd5b9250929050565b600080600080606085870312156110e257600080fd5b84356110ed8161106b565b935060208501359250604085013567ffffffffffffffff81111561111057600080fd5b61111c87828801611083565b95989497509550505050565b60006020828403121561113a57600080fd5b8135610f218161106b565b6004811061108057600080fd5b6000806000806060858703121561116857600080fd5b843561117381611145565b9350602085013567ffffffffffffffff81111561118f57600080fd5b61119b87828801611083565b9598909750949560400135949350505050565b600080602083850312156111c157600080fd5b823567ffffffffffffffff8111156111d857600080fd5b6111e485828601611083565b90969095509350505050565b6020808252825182820181905260009190848201906040850190845b818110156112315783516001600160a01b03168352928401929184019160010161120c565b50909695505050505050565b634e487b7160e01b600052603260045260246000fd5b634e487b7160e01b600052601160045260246000fd5b60006001820161127b5761127b611253565b5060010190565b60006020828403121561129457600080fd5b8151610f218161106b565b634e487b7160e01b600052604160045260246000fd5b604051601f8201601f1916810167ffffffffffffffff811182821017156112de576112de61129f565b604052919050565b600067ffffffffffffffff8211156113005761130061129f565b5060051b60200190565b6000601f838184011261131c57600080fd5b8235602061133161132c836112e6565b6112b5565b82815260059290921b8501810191818101908784111561135057600080fd5b8287015b848110156113e757803567ffffffffffffffff808211156113755760008081fd5b818a0191508a603f83011261138a5760008081fd5b858201356040828211156113a0576113a061129f565b6113b1828b01601f191689016112b5565b92508183528c818386010111156113c85760008081fd5b8181850189850137506000908201870152845250918301918301611354565b50979650505050505050565b6000806040838503121561140657600080fd5b823567ffffffffffffffff8082111561141e57600080fd5b818501915085601f83011261143257600080fd5b8135602061144261132c836112e6565b82815260059290921b8401810191818101908984111561146157600080fd5b948201945b838610156114885785356114798161106b565b82529482019490820190611466565b9650508601359250508082111561149e57600080fd5b506114ab8582860161130a565b9150509250929050565b6000815180845260005b818110156114db576020818501810151868301820152016114bf565b506000602082860101526020601f19601f83011685010191505092915050565b6001600160a01b0383168152604060208201819052600090610f1e908301846114b5565b602081526000610f2160208301846114b5565b80820180821115610c4157610c41611253565b634e487b7160e01b600052602160045260246000fd5b6004811061156b5761156b611545565b9052565b60208101610c41828461155b565b8051801515811461158d57600080fd5b919050565b600080604083850312156115a557600080fd5b6115ae8361157d565b91506115bc6020840161157d565b90509250929050565b6001600160a01b0386811682528516602082015260006115e8604083018661155b565b60a060608301526115fc60a08301856114b5565b90508260808301529695505050505050565b60006020828403121561162057600080fd5b5051919050565b60008060006060848603121561163c57600080fd5b835161164781611145565b60208501519093506116588161106b565b80925050604084015190509250925092565b6000600b841061167c5761167c611545565b83825260406020830152610f1e60408301846114b556","linkReferences":{}},"methodIdentifiers":{"activateForFund()":"21725d01","deactivateForFund()":"bd8e959a","getEnabledFeesForFund(address)":"a9f3b42f","getFundDeployer()":"97c0ac87","getOwner()":"893d20e8","getVaultProxyForFund(address)":"46790346","invokeHook(uint8,bytes,uint256)":"7759c164","receiveCallFromComptroller(address,uint256,bytes)":"1bee801e","setConfigForFund(bytes)":"89cbe1d0"},"id":140}