{"abi":[{"type":"constructor","inputs":[{"name":"_fundDeployer","type":"address","internalType":"address"}],"stateMutability":"nonpayable"},{"type":"function","name":"activateForFund","inputs":[],"outputs":[],"stateMutability":"nonpayable"},{"type":"function","name":"deactivateForFund","inputs":[],"outputs":[],"stateMutability":"nonpayable"},{"type":"function","name":"getEnabledFeesForFund","inputs":[{"name":"_comptrollerProxy","type":"address","internalType":"address"}],"outputs":[{"name":"enabledFees_","type":"address[]","internalType":"address[]"}],"stateMutability":"view"},{"type":"function","name":"getFundDeployer","inputs":[],"outputs":[{"name":"fundDeployer_","type":"address","internalType":"address"}],"stateMutability":"view"},{"type":"function","name":"getOwner","inputs":[],"outputs":[{"name":"owner_","type":"address","internalType":"address"}],"stateMutability":"view"},{"type":"function","name":"getVaultProxyForFund","inputs":[{"name":"_comptrollerProxy","type":"address","internalType":"address"}],"outputs":[{"name":"vaultProxy_","type":"address","internalType":"address"}],"stateMutability":"view"},{"type":"function","name":"invokeHook","inputs":[{"name":"_hook","type":"uint8","internalType":"enum IFeeManager.FeeHook"},{"name":"_settlementData","type":"bytes","internalType":"bytes"},{"name":"_gav","type":"uint256","internalType":"uint256"}],"outputs":[],"stateMutability":"nonpayable"},{"type":"function","name":"receiveCallFromComptroller","inputs":[{"name":"","type":"address","internalType":"address"},{"name":"_actionId","type":"uint256","internalType":"uint256"},{"name":"","type":"bytes","internalType":"bytes"}],"outputs":[],"stateMutability":"nonpayable"},{"type":"function","name":"setConfigForFund","inputs":[{"name":"_configData","type":"bytes","internalType":"bytes"}],"outputs":[],"stateMutability":"nonpayable"},{"type":"event","name":"FeeEnabledForFund","inputs":[{"name":"comptrollerProxy","type":"address","indexed":true,"internalType":"address"},{"name":"fee","type":"address","indexed":true,"internalType":"address"},{"name":"settingsData","type":"bytes","indexed":false,"internalType":"bytes"}],"anonymous":false},{"type":"event","name":"FeeSettledForFund","inputs":[{"name":"comptrollerProxy","type":"address","indexed":true,"internalType":"address"},{"name":"fee","type":"address","indexed":true,"internalType":"address"},{"name":"settlementType","type":"uint8","indexed":true,"internalType":"enum IFeeManager.SettlementType"},{"name":"payer","type":"address","indexed":false,"internalType":"address"},{"name":"payee","type":"address","indexed":false,"internalType":"address"},{"name":"sharesDue","type":"uint256","indexed":false,"internalType":"uint256"}],"anonymous":false},{"type":"event","name":"ValidatedVaultProxySetForFund","inputs":[{"name":"comptrollerProxy","type":"address","indexed":true,"internalType":"address"},{"name":"vaultProxy","type":"address","indexed":true,"internalType":"address"}],"anonymous":false}],"bytecode":{"object":"0x60a06040523480156200001157600080fd5b50604051620019ce380380620019ce833981016040819052620000349162000080565b6001600160a01b0316608052620000ad565b60006001600160a01b0382165b92915050565b620000648162000046565b81146200007057600080fd5b50565b8051620000538162000059565b600060208284031215620000975762000097600080fd5b6000620000a5848462000073565b949350505050565b6080516118f7620000d760003960008181610127015281816102c5015261066101526118f76000f3fe608060405234801561001057600080fd5b50600436106100935760003560e01c8063893d20e811610066578063893d20e81461010a57806389cbe1d01461011257806397c0ac8714610125578063a9f3b42f1461014b578063bd8e959a146100ab57600080fd5b80631bee801e1461009857806321725d01146100ad57806346790346146100b55780637759c164146100f7575b600080fd5b6100ab6100a6366004610f42565b61016b565b005b6100ab6101be565b6100e16100c3366004610fb0565b6001600160a01b039081166000908152602081905260409020541690565b6040516100ee9190610fe8565b60405180910390f35b6100ab61010536600461100e565b61027b565b6100e16102c1565b6100ab61012036600461107e565b61034a565b7f00000000000000000000000000000000000000000000000000000000000000006100e1565b61015e610159366004610fb0565b61054c565b6040516100ee9190611123565b826000036101975761019233600060405180602001604052806000815250600060016105c2565b6101b8565b60405162461bcd60e51b81526004016101af90611181565b60405180910390fd5b50505050565b336000818152602081905260408120546001600160a01b0316906101e18361054c565b905060005b81518110156101b85781818151811061020157610201611191565b60200260200101516001600160a01b0316633146d05885856040518363ffffffff1660e01b81526004016102369291906111a7565b600060405180830381600087803b15801561025057600080fd5b505af1158015610264573d6000803e3d6000fd5b505050508080610273906111d8565b9150506101e6565b6101b8338585858080601f016020809104026020016040519081016040528093929190818152602001838380828437600092019190915250879250600191506105c29050565b60007f00000000000000000000000000000000000000000000000000000000000000006001600160a01b031663893d20e86040518163ffffffff1660e01b8152600401602060405180830381865afa158015610321573d6000803e3d6000fd5b505050506040513d601f19601f8201168201806040525081019061034591906111fd565b905090565b3361035481610647565b506000806103648486018661144e565b9150915080518251146103895760405162461bcd60e51b81526004016101af9061151a565b61039282610757565b6103ae5760405162461bcd60e51b81526004016101af90611577565b60005b8251811015610544578281815181106103cc576103cc611191565b60200260200101516001600160a01b0316630f5f6b4f858484815181106103f5576103f5611191565b60200260200101516040518363ffffffff1660e01b815260040161041a9291906115dd565b600060405180830381600087803b15801561043457600080fd5b505af1158015610448573d6000803e3d6000fd5b505050506001600160a01b0384166000908152600160205260409020835184908390811061047857610478611191565b60209081029190910181015182546001810184556000938452919092200180546001600160a01b0319166001600160a01b0390921691909117905582518390829081106104c7576104c7611191565b60200260200101516001600160a01b0316846001600160a01b03167f62b7814f137868e44c7a83c2b0a340fc5dacef8f3e748867d0f5f879fc0ef6da84848151811061051557610515611191565b602002602001015160405161052a91906115fd565b60405180910390a38061053c816111d8565b9150506103b1565b505050505050565b6001600160a01b0381166000908152600160209081526040918290208054835181840281018401909452808452606093928301828280156105b657602002820191906000526020600020905b81546001600160a01b03168152600190910190602001808311610598575b50505050509050919050565b60006105cd8661054c565b905080516000036105de5750610640565b6001600160a01b0386811660009081526020819052604090205416806106165760405162461bcd60e51b81526004016101af9061160e565b60006106268883858a8a8a610814565b9050831561063c5761063c8883858a8a86610914565b5050505b5050505050565b604051631054b35560e21b81526000906001600160a01b037f00000000000000000000000000000000000000000000000000000000000000001690634152cd5490610696908590600401610fe8565b602060405180830381865afa1580156106b3573d6000803e3d6000fd5b505050506040513d601f19601f820116820180604052508101906106d791906111fd565b90506001600160a01b0381166106ff5760405162461bcd60e51b81526004016101af90611697565b6001600160a01b0382811660008181526020819052604080822080546001600160a01b0319169486169485179055517f8852dcaa71340ea616a65ffac013450dfb238607481fb9d78346c667fe256c139190a3919050565b6000600182511161076a57506001919050565b815160005b8181101561080a5760006107848260016116a7565b90505b828110156107f7578481815181106107a1576107a1611191565b60200260200101516001600160a01b03168583815181106107c4576107c4611191565b60200260200101516001600160a01b0316036107e557506000949350505050565b806107ef816111d8565b915050610787565b5080610802816111d8565b91505061076f565b5060019392505050565b8060005b85518110156109085760008087838151811061083657610836611191565b60200260200101516001600160a01b031663320f0ddd886040518263ffffffff1660e01b815260040161086991906116fe565b6040805180830381865afa158015610885573d6000803e3d6000fd5b505050506040513d601f19601f820116820180604052508101906108a9919061171f565b91509150816108b95750506108f6565b80156108cc576108c98a85610a60565b93505b6108f38a8a8a86815181106108e3576108e3611191565b60200260200101518a8a89610ade565b50505b80610900816111d8565b915050610818565b505b9695505050505050565b8060005b855181101561063c5760008087838151811061093657610936611191565b60200260200101516001600160a01b031663e337a91f886040518263ffffffff1660e01b815260040161096991906116fe565b6040805180830381865afa158015610985573d6000803e3d6000fd5b505050506040513d601f19601f820116820180604052508101906109a9919061171f565b91509150816109b9575050610a4e565b80156109cc576109c98a85610a60565b93505b8783815181106109de576109de611191565b60200260200101516001600160a01b031663233faf5f8b8b8a8a896040518663ffffffff1660e01b8152600401610a19959493929190611758565b600060405180830381600087803b158015610a3357600080fd5b505af1158015610a47573d6000803e3d6000fd5b5050505050505b80610a58816111d8565b915050610918565b600081600003610ad557826001600160a01b03166356cff99f6040518163ffffffff1660e01b81526004016020604051808303816000875af1158015610aaa573d6000803e3d6000fd5b505050506040513d601f19601f82011682018060405250810190610ace91906117ac565b9050610ad8565b50805b92915050565b6000806000866001600160a01b03166341892d7e8a8a8989896040518663ffffffff1660e01b8152600401610b17959493929190611758565b6060604051808303816000875af1158015610b36573d6000803e3d6000fd5b505050506040513d601f19601f82011682018060405250810190610b5a91906117d8565b919450925090506000836003811115610b7557610b756116ba565b03610b8257505050610544565b60006001846003811115610b9857610b986116ba565b03610bbb57610ba88a8a8a610c95565b9050610bb68a848385610d81565b610c28565b6002846003811115610bcf57610bcf6116ba565b03610bec57610bdf8a8a8a610c95565b9050610bb68a8284610e01565b6003846003811115610c0057610c006116ba565b03610c1057610bb68a8484610e88565b60405162461bcd60e51b81526004016101af90611868565b836003811115610c3a57610c3a6116ba565b886001600160a01b03168b6001600160a01b03167fef7da7c40d1fc52df907f6fed0e539680d5fb491c3b8f94db234a360dafe1d62868587604051610c8193929190611878565b60405180910390a450505050505050505050565b60405163189e02cf60e21b81526000906001600160a01b038316906362780b3c90610cc4908790600401610fe8565b602060405180830381865afa158015610ce1573d6000803e3d6000fd5b505050506040513d601f19601f82011682018060405250810190610d0591906111fd565b90506001600160a01b038116610d7a57826001600160a01b031663893d20e86040518163ffffffff1660e01b8152600401602060405180830381865afa158015610d53573d6000803e3d6000fd5b505050506040513d601f19601f82011682018060405250810190610d7791906111fd565b90505b9392505050565b836001600160a01b03166310acd06d6003858585604051602001610da793929190611878565b6040516020818303038152906040526040518363ffffffff1660e01b8152600401610dd39291906118ce565b600060405180830381600087803b158015610ded57600080fd5b505af115801561063c573d6000803e3d6000fd5b826001600160a01b03166310acd06d60028484604051602001610e259291906118dc565b6040516020818303038152906040526040518363ffffffff1660e01b8152600401610e519291906118ce565b600060405180830381600087803b158015610e6b57600080fd5b505af1158015610e7f573d6000803e3d6000fd5b50505050505050565b826001600160a01b03166310acd06d60018484604051602001610e259291906118dc565b60006001600160a01b038216610ad8565b610ec681610eac565b8114610ed157600080fd5b50565b8035610ad881610ebd565b80610ec6565b8035610ad881610edf565b60008083601f840112610f0557610f05600080fd5b50813567ffffffffffffffff811115610f2057610f20600080fd5b602083019150836001820283011115610f3b57610f3b600080fd5b9250929050565b60008060008060608587031215610f5b57610f5b600080fd5b6000610f678787610ed4565b9450506020610f7887828801610ee5565b935050604085013567ffffffffffffffff811115610f9857610f98600080fd5b610fa487828801610ef0565b95989497509550505050565b600060208284031215610fc557610fc5600080fd5b6000610fd18484610ed4565b949350505050565b610fe281610eac565b82525050565b60208101610ad88284610fd9565b60048110610ed157600080fd5b8035610ad881610ff6565b6000806000806060858703121561102757611027600080fd5b60006110338787611003565b945050602085013567ffffffffffffffff81111561105357611053600080fd5b61105f87828801610ef0565b9350935050604061107287828801610ee5565b91505092959194509250565b6000806020838503121561109457611094600080fd5b823567ffffffffffffffff8111156110ae576110ae600080fd5b6110ba85828601610ef0565b92509250509250929050565b60006110d28383610fd9565b505060200190565b60006110e4825190565b80845260209384019383018060005b8381101561111857815161110788826110c6565b9750602083019250506001016110f3565b509495945050505050565b60208082528101610d7a81846110da565b602d81526000602082017f7265636569766543616c6c46726f6d436f6d7074726f6c6c65723a20496e766181526c1b1a590817d858dd1a5bdb9259609a1b602082015291505b5060400190565b60208082528101610ad881611134565b634e487b7160e01b600052603260045260246000fd5b604081016111b58285610fd9565b610d7a6020830184610fd9565b634e487b7160e01b600052601160045260246000fd5b600060001982036111eb576111eb6111c2565b5060010190565b8051610ad881610ebd565b60006020828403121561121257611212600080fd5b6000610fd184846111f2565b634e487b7160e01b600052604160045260246000fd5b601f19601f830116810181811067ffffffffffffffff8211171561125a5761125a61121e565b6040525050565b600061126c60405190565b90506112788282611234565b919050565b600067ffffffffffffffff8211156112975761129761121e565b5060209081020190565b60006112b46112af8461127d565b611261565b838152905060208082019084028301858111156112d3576112d3600080fd5b835b818110156112f757806112e88882610ed4565b845250602092830192016112d5565b5050509392505050565b600082601f83011261131557611315600080fd5b8135610fd18482602086016112a1565b600067ffffffffffffffff82111561133f5761133f61121e565b601f19601f83011660200192915050565b82818337506000910152565b600061136a6112af84611325565b90508281526020810184848401111561138557611385600080fd5b611390848285611350565b509392505050565b600082601f8301126113ac576113ac600080fd5b8135610fd184826020860161135c565b60006113ca6112af8461127d565b838152905060208082019084028301858111156113e9576113e9600080fd5b835b818110156112f757803567ffffffffffffffff81111561140d5761140d600080fd5b80860161141a8982611398565b85525050602092830192016113eb565b600082601f83011261143e5761143e600080fd5b8135610fd18482602086016113bc565b6000806040838503121561146457611464600080fd5b823567ffffffffffffffff81111561147e5761147e600080fd5b61148a85828601611301565b925050602083013567ffffffffffffffff8111156114aa576114aa600080fd5b6114b68582860161142a565b9150509250929050565b603d81526000602082017f736574436f6e666967466f7246756e643a206665657320616e6420736574746981527f6e677344617461206172726179206c656e6774687320756e657175616c0000006020820152915061117a565b60208082528101610ad8816114c0565b603081526000602082017f736574436f6e666967466f7246756e643a20666565732063616e6e6f7420696e81526f636c756465206475706c69636174657360801b6020820152915061117a565b60208082528101610ad88161152a565b60005b838110156115a257818101518382015260200161158a565b50506000910152565b60006115b5825190565b8084526020840193506115cc818560208601611587565b601f01601f19169290920192915050565b604081016115eb8285610fd9565b8181036020830152610d7781846115ab565b60208082528101610d7a81846115ab565b60208082528181019081527f5f5f696e766f6b65486f6f6b3a2046756e64206973206e6f7420616374697665604083015260608201610ad8565b603281526000602082017f5f5f73657456616c6964617465645661756c7450726f78793a20496e76616c698152716420436f6d7074726f6c6c657250726f787960701b6020820152915061117a565b60208082528101610ad881611648565b80820180821115610ad857610ad86111c2565b634e487b7160e01b600052602160045260246000fd5b60048110610ed157610ed16116ba565b80611278816116d0565b6000610ad8826116e0565b610fe2816116ea565b60208101610ad882846116f5565b801515610ec6565b8051610ad88161170c565b6000806040838503121561173557611735600080fd5b60006117418585611714565b92505060206114b685828601611714565b80610fe2565b60a081016117668288610fd9565b6117736020830187610fd9565b61178060408301866116f5565b818103606083015261179281856115ab565b905061090a6080830184611752565b8051610ad881610edf565b6000602082840312156117c1576117c1600080fd5b6000610fd184846117a1565b8051610ad881610ff6565b6000806000606084860312156117f0576117f0600080fd5b60006117fc86866117cd565b935050602061180d868287016111f2565b925050604061181e868287016117a1565b9150509250925092565b602381526000602082017f5f5f736574746c654665653a20496e76616c696420536574746c656d656e745481526279706560e81b6020820152915061117a565b60208082528101610ad881611828565b606081016118868286610fd9565b6118936020830185610fd9565b610fd16040830184611752565b600b8110610ed157610ed16116ba565b80611278816118a0565b6000610ad8826118b0565b610fe2816118ba565b604081016115eb82856118c5565b604081016118ea8285610fd9565b610d7a602083018461175256","linkReferences":{}},"methodIdentifiers":{"activateForFund()":"21725d01","deactivateForFund()":"bd8e959a","getEnabledFeesForFund(address)":"a9f3b42f","getFundDeployer()":"97c0ac87","getOwner()":"893d20e8","getVaultProxyForFund(address)":"46790346","invokeHook(uint8,bytes,uint256)":"7759c164","receiveCallFromComptroller(address,uint256,bytes)":"1bee801e","setConfigForFund(bytes)":"89cbe1d0"},"id":158}