{"abi":[{"type":"constructor","inputs":[{"name":"_integrationManager","type":"address","internalType":"address"},{"name":"_augustusSwapper","type":"address","internalType":"address"},{"name":"_tokenTransferProxy","type":"address","internalType":"address"},{"name":"_feePartner","type":"address","internalType":"address"},{"name":"_feePercent","type":"uint256","internalType":"uint256"}],"stateMutability":"nonpayable"},{"type":"function","name":"getIntegrationManager","inputs":[],"outputs":[{"name":"integrationManager_","type":"address","internalType":"address"}],"stateMutability":"view"},{"type":"function","name":"getParaSwapV5AugustusSwapper","inputs":[],"outputs":[{"name":"augustusSwapper_","type":"address","internalType":"address"}],"stateMutability":"view"},{"type":"function","name":"getParaSwapV5TokenTransferProxy","inputs":[],"outputs":[{"name":"tokenTransferProxy_","type":"address","internalType":"address"}],"stateMutability":"view"},{"type":"function","name":"parseAssetsForAction","inputs":[{"name":"","type":"address","internalType":"address"},{"name":"_selector","type":"bytes4","internalType":"bytes4"},{"name":"_actionData","type":"bytes","internalType":"bytes"}],"outputs":[{"name":"spendAssetsHandleType_","type":"uint8","internalType":"enum IIntegrationManager.SpendAssetsHandleType"},{"name":"spendAssets_","type":"address[]","internalType":"address[]"},{"name":"spendAssetAmounts_","type":"uint256[]","internalType":"uint256[]"},{"name":"incomingAssets_","type":"address[]","internalType":"address[]"},{"name":"minIncomingAssetAmounts_","type":"uint256[]","internalType":"uint256[]"}],"stateMutability":"view"},{"type":"function","name":"takeMultipleOrders","inputs":[{"name":"_vaultProxy","type":"address","internalType":"address"},{"name":"_actionData","type":"bytes","internalType":"bytes"},{"name":"_assetData","type":"bytes","internalType":"bytes"}],"outputs":[],"stateMutability":"nonpayable"},{"type":"function","name":"takeOrder","inputs":[{"name":"_vaultProxy","type":"address","internalType":"address"},{"name":"_actionData","type":"bytes","internalType":"bytes"},{"name":"","type":"bytes","internalType":"bytes"}],"outputs":[],"stateMutability":"nonpayable"},{"type":"function","name":"takeOrderAndValidateIncoming","inputs":[{"name":"_vaultProxy","type":"address","internalType":"address"},{"name":"_orderData","type":"bytes","internalType":"bytes"}],"outputs":[],"stateMutability":"nonpayable"},{"type":"event","name":"MultipleOrdersItemFailed","inputs":[{"name":"index","type":"uint256","indexed":false,"internalType":"uint256"},{"name":"reason","type":"bytes","indexed":false,"internalType":"bytes"}],"anonymous":false}],"bytecode":{"object":"0x6101206040523480156200001257600080fd5b506040516200311138038062003111833981016040819052620000359162000089565b6001600160601b0319606095861b811660805293851b841660a05290841b831660c05260e05290911b166101005262000143565b805162000076816200011e565b92915050565b8051620000768162000138565b600080600080600060a08688031215620000a257600080fd5b6000620000b0888862000069565b9550506020620000c38882890162000069565b9450506040620000d68882890162000069565b9350506060620000e98882890162000069565b9250506080620000fc888289016200007c565b9150509295509295909350565b60006001600160a01b03821662000076565b90565b620001298162000109565b81146200013557600080fd5b50565b62000129816200011b565b60805160601c60a05160601c60c05160601c60e0516101005160601c612f6e620001a3600039806102f5525080610ec05280611031528061118b525080610e915280611002528061115c52508061035e5250806106d55250612f6e6000f3fe608060405234801561001057600080fd5b506004361061007d5760003560e01c80632d979b8c1161005b5780632d979b8c146100c857806391bc27dc146100db578063c54efee5146100e3578063e7c45690146101075761007d565b806303e38a2b146100825780630e7f692d146100975780632c428679146100aa575b600080fd5b610095610090366004611fc7565b61010f565b005b6100956100a5366004611fc7565b610156565b6100b26102f3565b6040516100bf9190612c77565b60405180910390f35b6100956100d6366004611f72565b610317565b6100b261035c565b6100f66100f1366004611f0b565b610380565b6040516100bf959493929190612cdb565b6100b26106d3565b61014f8585858080601f0160208091040260200160405190810160405280939291908181526020018383808284376000920191909152506106f792505050565b5050505050565b8482828080601f016020809104026020016040519081016040528093929190818152602001838380828437600092018290525060609350915061019b905088886107a2565b91509150801561029a5760005b825181101561029457306001600160a01b0316632d979b8c8b8584815181106101cd57fe5b60200260200101516040518363ffffffff1660e01b81526004016101f2929190612ca0565b600060405180830381600087803b15801561020c57600080fd5b505af192505050801561021d575060015b61028c573d80801561024b576040519150601f19603f3d011682016040523d82523d6000602084013e610250565b606091505b507f3a14c92f155e1c07fef79933a3b56bd101ab83092702170ae1a4c53712c5099b8282604051610282929190612deb565b60405180910390a1505b6001016101a8565b506102cd565b60005b82518110156102cb576102c38a8483815181106102b657fe5b60200260200101516107be565b60010161029d565b505b505060606102da8261091c565b505090506102e88382610942565b505050505050505050565b7f000000000000000000000000000000000000000000000000000000000000000090565b6103578383838080601f0160208091040260200160405190810160405280939291908181526020018383808284376000920191909152506107be92505050565b505050565b7f000000000000000000000000000000000000000000000000000000000000000090565b600060608080806001600160e01b031988166303e38a2b60e01b14156105045760408051600180825281830190925290602080830190803683375050604080516001808252818301909252929650905060208083019080368337505060408051600180825281830190925292955090506020808301908036833750506040805160018082528183019092529294509050602080830190803683370190505090506000606061046389898080601f016020809104026020016040519081016040528093929190818152602001838380828437600092019190915250610a9e92505050565b9091929394509091508760008151811061047957fe5b602002602001018b60008151811061048d57fe5b602002602001018b6000815181106104a157fe5b60209081029190910101949094526001600160a01b039094169092529290915290925090506104d08282610ad4565b846000815181106104dd57fe5b60200260200101906001600160a01b031690816001600160a01b03168152505050506106c4565b6001600160e01b03198816630e7f692d60e01b14156106a357606061052988886107a2565b50905080516001600160401b038111801561054357600080fd5b5060405190808252806020026020018201604052801561056d578160200160208202803683370190505b50945080516001600160401b038111801561058757600080fd5b506040519080825280602002602001820160405280156105b1578160200160208202803683370190505b50935060005b815181101561064957600060606105e08484815181106105d357fe5b6020026020010151610a9e565b8e51949650929450928d9150889081106105f657fe5b602002602001018b888151811061060957fe5b60209081029190910101939093526001600160a01b039093169091529250905061063d6106368383610ad4565b8790610bac565b955050506001016105b7565b506106548585610bd5565b845191965094506001600160401b038111801561067057600080fd5b5060405190808252806020026020018201604052801561069a578160200160208202803683370190505b509150506106c4565b60405162461bcd60e51b81526004016106bb90612da8565b60405180910390fd5b60029450945094509450945094565b7f000000000000000000000000000000000000000000000000000000000000000090565b600080600080600080606061070b88610a9e565b959c50939a509198509650945092509050600282600281111561072a57fe5b141561074c57610747858589898d8861074288610e15565b610e33565b6102e8565b600182600281111561075a57fe5b141561077757610747858589898d8861077288610f94565b610faa565b600082600281111561078557fe5b14156102e8576102e88585898961079b866110b3565b8e896110cf565b606060006107b2838501856120dd565b915091505b9250929050565b60008060606107cc84610a9e565b9650965050505050925060006107e28383610ad4565b90506000816001600160a01b03166370a08231886040518263ffffffff1660e01b81526004016108129190612c77565b60206040518083038186803b15801561082a57600080fd5b505afa15801561083e573d6000803e3d6000fd5b505050506040513d601f19601f8201168201806040525081019061086291906121e7565b905061086e87876106f7565b846108f582846001600160a01b03166370a082318b6040518263ffffffff1660e01b815260040161089f9190612c77565b60206040518083038186803b1580156108b757600080fd5b505afa1580156108cb573d6000803e3d6000fd5b505050506040513d601f19601f820116820180604052508101906108ef91906121e7565b9061120d565b10156109135760405162461bcd60e51b81526004016106bb90612d48565b50505050505050565b606080606083806020019051810190610935919061204c565b9250925092509193909250565b606081516001600160401b038111801561095b57600080fd5b50604051908082528060200260200182016040528015610985578160200160208202803683370190505b50905060005b8251811015610a965760008382815181106109a257fe5b60200260200101519050806001600160a01b03166370a08231306040518263ffffffff1660e01b81526004016109d89190612c77565b60206040518083038186803b1580156109f057600080fd5b505afa158015610a04573d6000803e3d6000fd5b505050506040513d601f19601f82011682018060405250810190610a2891906121e7565b838381518110610a3457fe5b6020026020010181815250506000838381518110610a4e57fe5b60200260200101511115610a8d57610a8d85848481518110610a6c57fe5b6020026020010151836001600160a01b03166112359092919063ffffffff16565b5060010161098b565b505b92915050565b600080600080600080606087806020019051810190610abd9190612205565b959e949d50929b5090995097509550909350915050565b60006002836002811115610ae457fe5b1415610b39576060610af583610e15565b9050606081600081518110610b0657fe5b602002602001015160200151905080600182510381518110610b2457fe5b60200260200101516000015192505050610a98565b6001836002811115610b4757fe5b1415610b7e576060610b5883610f94565b905080600182510381518110610b6a57fe5b602002602001015160000151915050610a98565b6000836002811115610b8c57fe5b1415610a9857610b9a6116ff565b610ba3836110b3565b51949350505050565b6060610bb88383611248565b15610bc4575081610a98565b610bce838361129e565b9392505050565b606080835160001415610be7576107b7565b6001805b8551811015610c67576000805b82811015610c5157878181518110610c0c57fe5b60200260200101516001600160a01b0316888481518110610c2957fe5b60200260200101516001600160a01b03161415610c495760019150610c51565b600101610bf8565b5080610c5e576001909201915b50600101610beb565b50806001600160401b0381118015610c7e57600080fd5b50604051908082528060200260200182016040528015610ca8578160200160208202803683370190505b509250806001600160401b0381118015610cc157600080fd5b50604051908082528060200260200182016040528015610ceb578160200160208202803683370190505b5091506000805b8651811015610e0b576000805b83811015610d8a57868181518110610d1357fe5b60200260200101516001600160a01b0316898481518110610d3057fe5b60200260200101516001600160a01b03161415610d825760019150878381518110610d5757fe5b6020026020010151868281518110610d6b57fe5b602002602001018181510191508181525050610d8a565b600101610cff565b5080610e0257878281518110610d9c57fe5b6020026020010151868481518110610db057fe5b60200260200101906001600160a01b031690816001600160a01b031681525050868281518110610ddc57fe5b6020026020010151858481518110610df057fe5b60209081029190910101526001909201915b50600101610cf2565b5050509250929050565b606081806020019051810190610e2b919061212d565b90505b919050565b610e4587610e3f6102f3565b88611368565b610e4d611737565b604051806101600160405280896001600160a01b03168152602001888152602001878152602001868152602001856001600160a01b031681526020018381526020017f00000000000000000000000000000000000000000000000000000000000000006001600160a01b031681526020017f00000000000000000000000000000000000000000000000000000000000000008152602001604051806020016040528060008152508152602001428152602001846001600160801b0319168152509050610f1761035c565b6001600160a01b03166346c67b6d826040518263ffffffff1660e01b8152600401610f429190612db8565b602060405180830381600087803b158015610f5c57600080fd5b505af1158015610f70573d6000803e3d6000fd5b505050506040513d601f19601f820116820180604052508101906102e891906121e7565b606081806020019051810190610e2b9190612161565b610fb687610e3f6102f3565b610fbe611737565b604051806101600160405280896001600160a01b03168152602001888152602001878152602001868152602001856001600160a01b031681526020018381526020017f00000000000000000000000000000000000000000000000000000000000000006001600160a01b031681526020017f00000000000000000000000000000000000000000000000000000000000000008152602001604051806020016040528060008152508152602001428152602001846001600160801b031916815250905061108861035c565b6001600160a01b031663a94e78ef826040518263ffffffff1660e01b8152600401610f429190612dc9565b6110bb6116ff565b81806020019051810190610e2b91906121b3565b6110db87610e3f6102f3565b6110e36117b6565b604051806101e00160405280896001600160a01b0316815260200185600001516001600160a01b0316815260200188815260200187815260200186815260200185602001518152602001856040015181526020018560600151815260200185608001518152602001846001600160a01b031681526020017f00000000000000000000000000000000000000000000000000000000000000006001600160a01b031681526020017f00000000000000000000000000000000000000000000000000000000000000008152602001604051806020016040528060008152508152602001428152602001836001600160801b03191681525090506111e261035c565b6001600160a01b03166354e3f31b826040518263ffffffff1660e01b8152600401610f429190612dda565b60008282111561122f5760405162461bcd60e51b81526004016106bb90612d58565b50900390565b6103576112418461142a565b838361142d565b6000805b83518110156112945783818151811061126157fe5b60200260200101516001600160a01b0316836001600160a01b0316141561128c576001915050610a98565b60010161124c565b5060009392505050565b606082516001016001600160401b03811180156112ba57600080fd5b506040519080825280602002602001820160405280156112e4578160200160208202803683370190505b50905060005b8351811015611333578381815181106112ff57fe5b602002602001015182828151811061131357fe5b6001600160a01b03909216602092830291909101909101526001016112ea565b50818184518151811061134257fe5b60200260200101906001600160a01b031690816001600160a01b03168152505092915050565b604051636eb1769f60e11b81526000906001600160a01b0385169063dd62ed3e906113999030908790600401612c85565b60206040518083038186803b1580156113b157600080fd5b505afa1580156113c5573d6000803e3d6000fd5b505050506040513d601f19601f820116820180604052508101906113e991906121e7565b90508181101561142457801561140e5761140e6001600160a01b038516846000611483565b6114246001600160a01b03851684600019611483565b50505050565b90565b6103578363a9059cbb60e01b848460405160240161144c929190612cc0565b60408051601f198184030181529190526020810180516001600160e01b03166001600160e01b031990931692909217909152611496565b61035761148f8461142a565b8383611525565b60606114eb826040518060400160405280602081526020017f5361666545524332303a206c6f772d6c6576656c2063616c6c206661696c6564815250856001600160a01b03166115e89092919063ffffffff16565b80519091501561035757808060200190518101906115099190612195565b6103575760405162461bcd60e51b81526004016106bb90612d88565b8015806115ad5750604051636eb1769f60e11b81526001600160a01b0384169063dd62ed3e9061155b9030908690600401612c85565b60206040518083038186803b15801561157357600080fd5b505afa158015611587573d6000803e3d6000fd5b505050506040513d601f19601f820116820180604052508101906115ab91906121e7565b155b6115c95760405162461bcd60e51b81526004016106bb90612d98565b6103578363095ea7b360e01b848460405160240161144c929190612cc0565b60606115f784846000856115ff565b949350505050565b6060824710156116215760405162461bcd60e51b81526004016106bb90612d68565b61162a856116c0565b6116465760405162461bcd60e51b81526004016106bb90612d78565b60006060866001600160a01b031685876040516116639190612c6b565b60006040518083038185875af1925050503d80600081146116a0576040519150601f19603f3d011682016040523d82523d6000602084013e6116a5565b606091505b50915091506116b58282866116c6565b979650505050505050565b3b151590565b606083156116d5575081610bce565b8251156116e55782518084602001fd5b8160405162461bcd60e51b81526004016106bb9190612d37565b6040518060a0016040528060006001600160a01b03168152602001606081526020016060815260200160608152602001606081525090565b60405180610160016040528060006001600160a01b0316815260200160008152602001600081526020016000815260200160006001600160a01b031681526020016060815260200160006001600160a01b0316815260200160008152602001606081526020016000815260200160006001600160801b03191681525090565b604051806101e0016040528060006001600160a01b0316815260200160006001600160a01b031681526020016000815260200160008152602001600081526020016060815260200160608152602001606081526020016060815260200160006001600160a01b0316815260200160006001600160a01b0316815260200160008152602001606081526020016000815260200160006001600160801b03191681525090565b8035610a9881612f1c565b8051610a9881612f1c565b600082601f83011261188157600080fd5b815161189461188f82612e1f565b612df9565b915081818352602084019350602081019050838560208402820111156118b957600080fd5b60005b838110156118e557816118cf8882611865565b84525060209283019291909101906001016118bc565b5050505092915050565b600082601f83011261190057600080fd5b813561190e61188f82612e1f565b81815260209384019390925082018360005b838110156118e557813586016119368882611b9d565b8452506020928301929190910190600101611920565b600082601f83011261195d57600080fd5b815161196b61188f82612e1f565b81815260209384019390925082018360005b838110156118e557815186016119938882611c3d565b845250602092830192919091019060010161197d565b600082601f8301126119ba57600080fd5b81516119c861188f82612e1f565b81815260209384019390925082018360005b838110156118e557815186016119f08882611cc3565b84525060209283019291909101906001016119da565b600082601f830112611a1757600080fd5b8151611a2561188f82612e1f565b81815260209384019390925082018360005b838110156118e55781518601611a4d8882611d21565b8452506020928301929190910190600101611a37565b600082601f830112611a7457600080fd5b8151611a8261188f82612e1f565b81815260209384019390925082018360005b838110156118e55781518601611aaa8882611d93565b8452506020928301929190910190600101611a94565b600082601f830112611ad157600080fd5b8151611adf61188f82612e1f565b91508181835260208401935060208101905083856020840282011115611b0457600080fd5b60005b838110156118e55781611b1a8882611f00565b8452506020928301929190910190600101611b07565b8035610a9881612f30565b8051610a9881612f30565b8051610a9881612f39565b8035610a9881612f42565b60008083601f840112611b6e57600080fd5b5081356001600160401b03811115611b8557600080fd5b6020830191508360018202830111156107b757600080fd5b600082601f830112611bae57600080fd5b8135611bbc61188f82612e3f565b91508082526020830160208301858383011115611bd857600080fd5b611be3838284612ecd565b50505092915050565b600082601f830112611bfd57600080fd5b8151611c0b61188f82612e3f565b91508082526020830160208301858383011115611c2757600080fd5b611be3838284612ed9565b8051610a9881612f4b565b600060808284031215611c4f57600080fd5b611c596080612df9565b90506000611c678484611865565b8252506020611c7884848301611f00565b6020830152506040611c8c84828501611f00565b60408301525060608201516001600160401b03811115611cab57600080fd5b611cb784828501611a63565b60608301525092915050565b600060408284031215611cd557600080fd5b611cdf6040612df9565b90506000611ced8484611f00565b82525060208201516001600160401b03811115611d0957600080fd5b611d1584828501611a06565b60208301525092915050565b600060608284031215611d3357600080fd5b611d3d6060612df9565b90506000611d4b8484611865565b8252506020611d5c84848301611f00565b60208301525060408201516001600160401b03811115611d7b57600080fd5b611d878482850161194c565b60408301525092915050565b600060a08284031215611da557600080fd5b611daf60a0612df9565b90506000611dbd8484611f00565b8252506020611dce84848301611865565b6020830152506040611de284828501611f00565b60408301525060608201516001600160401b03811115611e0157600080fd5b611e0d84828501611bec565b6060830152506080611e2184828501611f00565b60808301525092915050565b600060a08284031215611e3f57600080fd5b611e4960a0612df9565b90506000611e578484611865565b82525060208201516001600160401b03811115611e7357600080fd5b611e7f84828501611870565b60208301525060408201516001600160401b03811115611e9e57600080fd5b611eaa84828501611bec565b60408301525060608201516001600160401b03811115611ec957600080fd5b611ed584828501611ac0565b60608301525060808201516001600160401b03811115611ef457600080fd5b611e2184828501611ac0565b8051610a9881612f58565b60008060008060608587031215611f2157600080fd5b6000611f2d878761185a565b9450506020611f3e87828801611b51565b93505060408501356001600160401b03811115611f5a57600080fd5b611f6687828801611b5c565b95989497509550505050565b600080600060408486031215611f8757600080fd5b6000611f93868661185a565b93505060208401356001600160401b03811115611faf57600080fd5b611fbb86828701611b5c565b92509250509250925092565b600080600080600060608688031215611fdf57600080fd5b6000611feb888861185a565b95505060208601356001600160401b0381111561200757600080fd5b61201388828901611b5c565b945094505060408601356001600160401b0381111561203157600080fd5b61203d88828901611b5c565b92509250509295509295909350565b60008060006060848603121561206157600080fd5b83516001600160401b0381111561207757600080fd5b61208386828701611870565b93505060208401516001600160401b0381111561209f57600080fd5b6120ab86828701611ac0565b92505060408401516001600160401b038111156120c757600080fd5b6120d386828701611870565b9150509250925092565b600080604083850312156120f057600080fd5b82356001600160401b0381111561210657600080fd5b612112858286016118ef565b925050602061212385828601611b30565b9150509250929050565b60006020828403121561213f57600080fd5b81516001600160401b0381111561215557600080fd5b6115f7848285016119a9565b60006020828403121561217357600080fd5b81516001600160401b0381111561218957600080fd5b6115f784828501611a06565b6000602082840312156121a757600080fd5b60006115f78484611b3b565b6000602082840312156121c557600080fd5b81516001600160401b038111156121db57600080fd5b6115f784828501611e2d565b6000602082840312156121f957600080fd5b60006115f78484611f00565b600080600080600080600060e0888a03121561222057600080fd5b600061222c8a8a611f00565b975050602061223d8a828b01611f00565b965050604061224e8a828b01611865565b955050606061225f8a828b01611f00565b94505060806122708a828b01611b46565b93505060a06122818a828b01611c32565b92505060c08801516001600160401b0381111561229d57600080fd5b6122a98a828b01611bec565b91505092959891949750929550565b60006122c48383612308565b505060200190565b6000610bce838361287d565b6000610bce83836128d8565b6000610bce83836129f3565b6000610bce8383612a32565b60006122c48383612c62565b61231181612e79565b82525050565b600061232282612e6c565b61232c8185612e70565b935061233783612e66565b8060005b8381101561236557815161234f88826122b8565b975061235a83612e66565b92505060010161233b565b509495945050505050565b600061237b82612e6c565b6123858185612e70565b935061239083612e66565b8060005b838110156123655781516123a888826122b8565b97506123b383612e66565b925050600101612394565b60006123c982612e6c565b6123d38185612e70565b9350836020820285016123e585612e66565b8060005b8581101561241f578484038952815161240285826122cc565b945061240d83612e66565b60209a909a01999250506001016123e9565b5091979650505050505050565b600061243782612e6c565b6124418185612e70565b93508360208202850161245385612e66565b8060005b8581101561241f578484038952815161247085826122d8565b945061247b83612e66565b60209a909a0199925050600101612457565b600061249882612e6c565b6124a28185612e70565b9350836020820285016124b485612e66565b8060005b8581101561241f57848403895281516124d185826122e4565b94506124dc83612e66565b60209a909a01999250506001016124b8565b60006124f982612e6c565b6125038185612e70565b93508360208202850161251585612e66565b8060005b8581101561241f578484038952815161253285826122f0565b945061253d83612e66565b60209a909a0199925050600101612519565b600061255a82612e6c565b6125648185612e70565b935061256f83612e66565b8060005b8381101561236557815161258788826122fc565b975061259283612e66565b925050600101612573565b60006125a882612e6c565b6125b28185612e70565b93506125bd83612e66565b8060005b838110156123655781516125d588826122fc565b97506125e083612e66565b9250506001016125c1565b61231181612e89565b60006125ff82612e6c565b6126098185612e70565b9350612619818560208601612ed9565b61262281612f05565b9093019392505050565b600061263782612e6c565b6126418185610e2e565b9350612651818560208601612ed9565b9290920192915050565b61231181612ec2565b6000612671604a83612e70565b7f5f5f74616b654f72646572416e6456616c6964617465496e636f6d696e673a2081527f526563656976656420696e636f6d696e67206173736574206c657373207468616020820152691b88195e1c1958dd195960b21b604082015260600192915050565b60006126e3601e83612e70565b7f536166654d6174683a207375627472616374696f6e206f766572666c6f770000815260200192915050565b600061271c602683612e70565b7f416464726573733a20696e73756666696369656e742062616c616e636520666f8152651c8818d85b1b60d21b602082015260400192915050565b6000612764601d83612e70565b7f416464726573733a2063616c6c20746f206e6f6e2d636f6e7472616374000000815260200192915050565b600061279d602a83612e70565b7f5361666545524332303a204552433230206f7065726174696f6e20646964206e8152691bdd081cdd58d8d9595960b21b602082015260400192915050565b60006127e9603683612e70565b7f5361666545524332303a20617070726f76652066726f6d206e6f6e2d7a65726f81527520746f206e6f6e2d7a65726f20616c6c6f77616e636560501b602082015260400192915050565b6000612841602783612e70565b7f7061727365417373657473466f72416374696f6e3a205f73656c6563746f72208152661a5b9d985b1a5960ca1b602082015260400192915050565b805160009060808401906128918582612308565b5060208301516128a46020860182612c62565b5060408301516128b76040860182612c62565b50606083015184820360608601526128cf82826124ee565b95945050505050565b805160009060408401906128ec8582612c62565b50602083015184820360208601526128cf828261248d565b80516000906101608401906129198582612308565b50602083015161292c6020860182612c62565b50604083015161293f6040860182612c62565b5060608301516129526060860182612c62565b5060808301516129656080860182612308565b5060a083015184820360a086015261297d828261242c565b91505060c083015161299260c0860182612308565b5060e08301516129a560e0860182612c62565b506101008301518482036101008601526129bf82826125f4565b9150506101208301516129d6610120860182612c62565b506101408301516129eb6101408601826125eb565b509392505050565b80516000906060840190612a078582612308565b506020830151612a1a6020860182612c62565b50604083015184820360408601526128cf82826123be565b805160009060a0840190612a468582612c62565b506020830151612a596020860182612308565b506040830151612a6c6040860182612c62565b5060608301518482036060860152612a8482826125f4565b91505060808301516129eb6080860182612c62565b8051600090610160840190612aae8582612308565b506020830151612ac16020860182612c62565b506040830151612ad46040860182612c62565b506060830151612ae76060860182612c62565b506080830151612afa6080860182612308565b5060a083015184820360a086015261297d828261248d565b80516000906101e0840190612b278582612308565b506020830151612b3a6020860182612308565b506040830151612b4d6040860182612c62565b506060830151612b606060860182612c62565b506080830151612b736080860182612c62565b5060a083015184820360a0860152612b8b8282612317565b91505060c083015184820360c0860152612ba582826125f4565b91505060e083015184820360e0860152612bbf828261254f565b915050610100830151848203610100860152612bdb828261254f565b915050610120830151612bf2610120860182612308565b50610140830151612c07610140860182612308565b50610160830151612c1c610160860182612c62565b50610180830151848203610180860152612c3682826125f4565b9150506101a0830151612c4d6101a0860182612c62565b506101c08301516129eb6101c08601826125eb565b6123118161142a565b6000610bce828461262c565b60208101610a988284612308565b60408101612c938285612308565b610bce6020830184612308565b60408101612cae8285612308565b81810360208301526115f781846125f4565b60408101612cce8285612308565b610bce6020830184612c62565b60a08101612ce9828861265b565b8181036020830152612cfb8187612370565b90508181036040830152612d0f818661259d565b90508181036060830152612d238185612370565b905081810360808301526116b5818461259d565b60208082528101610bce81846125f4565b60208082528101610e2b81612664565b60208082528101610e2b816126d6565b60208082528101610e2b8161270f565b60208082528101610e2b81612757565b60208082528101610e2b81612790565b60208082528101610e2b816127dc565b60208082528101610e2b81612834565b60208082528101610bce8184612904565b60208082528101610bce8184612a99565b60208082528101610bce8184612b12565b60408101612cae8285612c62565b6040518181016001600160401b0381118282101715612e1757600080fd5b604052919050565b60006001600160401b03821115612e3557600080fd5b5060209081020190565b60006001600160401b03821115612e5557600080fd5b506020601f91909101601f19160190565b60200190565b5190565b90815260200190565b6000610e2b82612eb6565b151590565b6fffffffffffffffffffffffffffffffff191690565b6001600160e01b03191690565b80610e2e81612f0f565b6001600160a01b031690565b6000610e2b82612eac565b82818337506000910152565b60005b83811015612ef4578181015183820152602001612edc565b838111156114245750506000910152565b601f01601f191690565b60038110612f1957fe5b50565b612f2581612e79565b8114612f1957600080fd5b612f2581612e84565b612f2581612e89565b612f2581612e9f565b60038110612f1957600080fd5b612f258161142a56fea164736f6c634300060c000a","linkReferences":{}},"methodIdentifiers":{"getIntegrationManager()":"e7c45690","getParaSwapV5AugustusSwapper()":"91bc27dc","getParaSwapV5TokenTransferProxy()":"2c428679","parseAssetsForAction(address,bytes4,bytes)":"c54efee5","takeMultipleOrders(address,bytes,bytes)":"0e7f692d","takeOrder(address,bytes,bytes)":"03e38a2b","takeOrderAndValidateIncoming(address,bytes)":"2d979b8c"},"id":189}