{"abi":[{"type":"constructor","inputs":[{"name":"_integrationManager","type":"address","internalType":"address"},{"name":"_augustusSwapper","type":"address","internalType":"address"},{"name":"_tokenTransferProxy","type":"address","internalType":"address"},{"name":"_feePartner","type":"address","internalType":"address"},{"name":"_feePercent","type":"uint256","internalType":"uint256"}],"stateMutability":"nonpayable"},{"type":"function","name":"getIntegrationManager","inputs":[],"outputs":[{"name":"integrationManager_","type":"address","internalType":"address"}],"stateMutability":"view"},{"type":"function","name":"getParaSwapV5AugustusSwapper","inputs":[],"outputs":[{"name":"augustusSwapper_","type":"address","internalType":"address"}],"stateMutability":"view"},{"type":"function","name":"getParaSwapV5TokenTransferProxy","inputs":[],"outputs":[{"name":"tokenTransferProxy_","type":"address","internalType":"address"}],"stateMutability":"view"},{"type":"function","name":"parseAssetsForAction","inputs":[{"name":"","type":"address","internalType":"address"},{"name":"_selector","type":"bytes4","internalType":"bytes4"},{"name":"_actionData","type":"bytes","internalType":"bytes"}],"outputs":[{"name":"spendAssetsHandleType_","type":"uint8","internalType":"enum IIntegrationManager.SpendAssetsHandleType"},{"name":"spendAssets_","type":"address[]","internalType":"address[]"},{"name":"spendAssetAmounts_","type":"uint256[]","internalType":"uint256[]"},{"name":"incomingAssets_","type":"address[]","internalType":"address[]"},{"name":"minIncomingAssetAmounts_","type":"uint256[]","internalType":"uint256[]"}],"stateMutability":"view"},{"type":"function","name":"takeMultipleOrders","inputs":[{"name":"_vaultProxy","type":"address","internalType":"address"},{"name":"_actionData","type":"bytes","internalType":"bytes"},{"name":"_assetData","type":"bytes","internalType":"bytes"}],"outputs":[],"stateMutability":"nonpayable"},{"type":"function","name":"takeOrder","inputs":[{"name":"_vaultProxy","type":"address","internalType":"address"},{"name":"_actionData","type":"bytes","internalType":"bytes"},{"name":"","type":"bytes","internalType":"bytes"}],"outputs":[],"stateMutability":"nonpayable"},{"type":"function","name":"takeOrderAndValidateIncoming","inputs":[{"name":"_vaultProxy","type":"address","internalType":"address"},{"name":"_orderData","type":"bytes","internalType":"bytes"}],"outputs":[],"stateMutability":"nonpayable"},{"type":"event","name":"MultipleOrdersItemFailed","inputs":[{"name":"index","type":"uint256","indexed":false,"internalType":"uint256"},{"name":"reason","type":"bytes","indexed":false,"internalType":"bytes"}],"anonymous":false}],"bytecode":{"object":"0x6101206040523480156200001257600080fd5b5060405162002bb638038062002bb6833981016040819052620000359162000069565b6001600160601b0319606095861b811660805293851b841660a05290841b831660c05260e05290911b1661010052620000f5565b600080600080600060a0868803121562000081578081fd5b85516200008e81620000dc565b6020870151909550620000a181620000dc565b6040870151909450620000b481620000dc565b6060870151909350620000c781620000dc565b80925050608086015190509295509295909350565b6001600160a01b0381168114620000f257600080fd5b50565b60805160601c60a05160601c60c05160601c60e0516101005160601c612a6162000155600039806102f5525080610eb852806110295280611183525080610e895280610ffa528061115452508061035e5250806106d55250612a616000f3fe608060405234801561001057600080fd5b506004361061007d5760003560e01c80632d979b8c1161005b5780632d979b8c146100c857806391bc27dc146100db578063c54efee5146100e3578063e7c45690146101075761007d565b806303e38a2b146100825780630e7f692d146100975780632c428679146100aa575b600080fd5b610095610090366004611cf9565b61010f565b005b6100956100a5366004611cf9565b610156565b6100b26102f3565b6040516100bf9190612412565b60405180910390f35b6100956100d6366004611ca7565b610317565b6100b261035c565b6100f66100f1366004611c39565b610380565b6040516100bf95949392919061247d565b6100b26106d3565b61014f8585858080601f0160208091040260200160405190810160405280939291908181526020018383808284376000920191909152506106f792505050565b5050505050565b8482828080601f016020809104026020016040519081016040528093929190818152602001838380828437600092018290525060609350915061019b905088886107a2565b91509150801561029a5760005b825181101561029457306001600160a01b0316632d979b8c8b8584815181106101cd57fe5b60200260200101516040518363ffffffff1660e01b81526004016101f2929190612440565b600060405180830381600087803b15801561020c57600080fd5b505af192505050801561021d575060015b61028c573d80801561024b576040519150601f19603f3d011682016040523d82523d6000602084013e610250565b606091505b507f3a14c92f155e1c07fef79933a3b56bd101ab83092702170ae1a4c53712c5099b828260405161028292919061296c565b60405180910390a1505b6001016101a8565b506102cd565b60005b82518110156102cb576102c38a8483815181106102b657fe5b60200260200101516107be565b60010161029d565b505b505060606102da8261091c565b505090506102e88382610942565b505050505050505050565b7f000000000000000000000000000000000000000000000000000000000000000090565b6103578383838080601f0160208091040260200160405190810160405280939291908181526020018383808284376000920191909152506107be92505050565b505050565b7f000000000000000000000000000000000000000000000000000000000000000090565b600060608080806001600160e01b031988166303e38a2b60e01b14156105045760408051600180825281830190925290602080830190803683375050604080516001808252818301909252929650905060208083019080368337505060408051600180825281830190925292955090506020808301908036833750506040805160018082528183019092529294509050602080830190803683370190505090506000606061046389898080601f016020809104026020016040519081016040528093929190818152602001838380828437600092019190915250610a9e92505050565b9091929394509091508760008151811061047957fe5b602002602001018b60008151811061048d57fe5b602002602001018b6000815181106104a157fe5b60209081029190910101949094526001600160a01b039094169092529290915290925090506104d08282610ad4565b846000815181106104dd57fe5b60200260200101906001600160a01b031690816001600160a01b03168152505050506106c4565b6001600160e01b03198816630e7f692d60e01b14156106a357606061052988886107a2565b50905080516001600160401b038111801561054357600080fd5b5060405190808252806020026020018201604052801561056d578160200160208202803683370190505b50945080516001600160401b038111801561058757600080fd5b506040519080825280602002602001820160405280156105b1578160200160208202803683370190505b50935060005b815181101561064957600060606105e08484815181106105d357fe5b6020026020010151610a9e565b8e51949650929450928d9150889081106105f657fe5b602002602001018b888151811061060957fe5b60209081029190910101939093526001600160a01b039093169091529250905061063d6106368383610ad4565b8790610bac565b955050506001016105b7565b506106548585610bd5565b845191965094506001600160401b038111801561067057600080fd5b5060405190808252806020026020018201604052801561069a578160200160208202803683370190505b509150506106c4565b60405162461bcd60e51b81526004016106bb906126bd565b60405180910390fd5b60029450945094509450945094565b7f000000000000000000000000000000000000000000000000000000000000000090565b600080600080600080606061070b88610a9e565b959c50939a509198509650945092509050600282600281111561072a57fe5b141561074c57610747858589898d8861074288610e15565b610e2b565b6102e8565b600182600281111561075a57fe5b141561077757610747858589898d8861077288610f8c565b610fa2565b600082600281111561078557fe5b14156102e8576102e88585898961079b866110ab565b8e896110c7565b606060006107b283850185611dfb565b915091505b9250929050565b60008060606107cc84610a9e565b9650965050505050925060006107e28383610ad4565b90506000816001600160a01b03166370a08231886040518263ffffffff1660e01b81526004016108129190612412565b60206040518083038186803b15801561082a57600080fd5b505afa15801561083e573d6000803e3d6000fd5b505050506040513d601f19601f820116820180604052508101906108629190612094565b905061086e87876106f7565b846108f582846001600160a01b03166370a082318b6040518263ffffffff1660e01b815260040161089f9190612412565b60206040518083038186803b1580156108b757600080fd5b505afa1580156108cb573d6000803e3d6000fd5b505050506040513d601f19601f820116820180604052508101906108ef9190612094565b90611205565b10156109135760405162461bcd60e51b81526004016106bb906124f9565b50505050505050565b6060806060838060200190518101906109359190611d78565b9250925092509193909250565b606081516001600160401b038111801561095b57600080fd5b50604051908082528060200260200182016040528015610985578160200160208202803683370190505b50905060005b8251811015610a965760008382815181106109a257fe5b60200260200101519050806001600160a01b03166370a08231306040518263ffffffff1660e01b81526004016109d89190612412565b60206040518083038186803b1580156109f057600080fd5b505afa158015610a04573d6000803e3d6000fd5b505050506040513d601f19601f82011682018060405250810190610a289190612094565b838381518110610a3457fe5b6020026020010181815250506000838381518110610a4e57fe5b60200260200101511115610a8d57610a8d85848481518110610a6c57fe5b6020026020010151836001600160a01b031661122d9092919063ffffffff16565b5060010161098b565b505b92915050565b600080600080600080606087806020019051810190610abd91906120ac565b959e949d50929b5090995097509550909350915050565b60006002836002811115610ae457fe5b1415610b39576060610af583610e15565b9050606081600081518110610b0657fe5b602002602001015160200151905080600182510381518110610b2457fe5b60200260200101516000015192505050610a98565b6001836002811115610b4757fe5b1415610b7e576060610b5883610f8c565b905080600182510381518110610b6a57fe5b602002602001015160000151915050610a98565b6000836002811115610b8c57fe5b1415610a9857610b9a6116f7565b610ba3836110ab565b51949350505050565b6060610bb88383611240565b15610bc4575081610a98565b610bce8383611296565b9392505050565b606080835160001415610be7576107b7565b6001805b8551811015610c67576000805b82811015610c5157878181518110610c0c57fe5b60200260200101516001600160a01b0316888481518110610c2957fe5b60200260200101516001600160a01b03161415610c495760019150610c51565b600101610bf8565b5080610c5e576001909201915b50600101610beb565b50806001600160401b0381118015610c7e57600080fd5b50604051908082528060200260200182016040528015610ca8578160200160208202803683370190505b509250806001600160401b0381118015610cc157600080fd5b50604051908082528060200260200182016040528015610ceb578160200160208202803683370190505b5091506000805b8651811015610e0b576000805b83811015610d8a57868181518110610d1357fe5b60200260200101516001600160a01b0316898481518110610d3057fe5b60200260200101516001600160a01b03161415610d825760019150878381518110610d5757fe5b6020026020010151868281518110610d6b57fe5b602002602001018181510191508181525050610d8a565b600101610cff565b5080610e0257878281518110610d9c57fe5b6020026020010151868481518110610db057fe5b60200260200101906001600160a01b031690816001600160a01b031681525050868281518110610ddc57fe5b6020026020010151858481518110610df057fe5b60209081029190910101526001909201915b50600101610cf2565b5050509250929050565b606081806020019051810190610a989190611e97565b610e3d87610e376102f3565b88611360565b610e4561172f565b604051806101600160405280896001600160a01b03168152602001888152602001878152602001868152602001856001600160a01b031681526020018381526020017f00000000000000000000000000000000000000000000000000000000000000006001600160a01b031681526020017f00000000000000000000000000000000000000000000000000000000000000008152602001604051806020016040528060008152508152602001428152602001846001600160801b0319168152509050610f0f61035c565b6001600160a01b03166346c67b6d826040518263ffffffff1660e01b8152600401610f3a9190612704565b602060405180830381600087803b158015610f5457600080fd5b505af1158015610f68573d6000803e3d6000fd5b505050506040513d601f19601f820116820180604052508101906102e89190612094565b606081806020019051810190610a989190611f61565b610fae87610e376102f3565b610fb661172f565b604051806101600160405280896001600160a01b03168152602001888152602001878152602001868152602001856001600160a01b031681526020018381526020017f00000000000000000000000000000000000000000000000000000000000000006001600160a01b031681526020017f00000000000000000000000000000000000000000000000000000000000000008152602001604051806020016040528060008152508152602001428152602001846001600160801b031916815250905061108061035c565b6001600160a01b031663a94e78ef826040518263ffffffff1660e01b8152600401610f3a91906127d2565b6110b36116f7565b81806020019051810190610a989190611faf565b6110d387610e376102f3565b6110db6117ae565b604051806101e00160405280896001600160a01b0316815260200185600001516001600160a01b0316815260200188815260200187815260200186815260200185602001518152602001856040015181526020018560600151815260200185608001518152602001846001600160a01b031681526020017f00000000000000000000000000000000000000000000000000000000000000006001600160a01b031681526020017f00000000000000000000000000000000000000000000000000000000000000008152602001604051806020016040528060008152508152602001428152602001836001600160801b03191681525090506111da61035c565b6001600160a01b03166354e3f31b826040518263ffffffff1660e01b8152600401610f3a9190612833565b6000828211156112275760405162461bcd60e51b81526004016106bb90612569565b50900390565b61035761123984611422565b8383611425565b6000805b835181101561128c5783818151811061125957fe5b60200260200101516001600160a01b0316836001600160a01b03161415611284576001915050610a98565b600101611244565b5060009392505050565b606082516001016001600160401b03811180156112b257600080fd5b506040519080825280602002602001820160405280156112dc578160200160208202803683370190505b50905060005b835181101561132b578381815181106112f757fe5b602002602001015182828151811061130b57fe5b6001600160a01b03909216602092830291909101909101526001016112e2565b50818184518151811061133a57fe5b60200260200101906001600160a01b031690816001600160a01b03168152505092915050565b604051636eb1769f60e11b81526000906001600160a01b0385169063dd62ed3e906113919030908790600401612426565b60206040518083038186803b1580156113a957600080fd5b505afa1580156113bd573d6000803e3d6000fd5b505050506040513d601f19601f820116820180604052508101906113e19190612094565b90508181101561141c578015611406576114066001600160a01b03851684600061147b565b61141c6001600160a01b0385168460001961147b565b50505050565b90565b6103578363a9059cbb60e01b8484604051602401611444929190612464565b60408051601f198184030181529190526020810180516001600160e01b03166001600160e01b03199093169290921790915261148e565b61035761148784611422565b838361151d565b60606114e3826040518060400160405280602081526020017f5361666545524332303a206c6f772d6c6576656c2063616c6c206661696c6564815250856001600160a01b03166115e09092919063ffffffff16565b80519091501561035757808060200190518101906115019190611f93565b6103575760405162461bcd60e51b81526004016106bb9061261d565b8015806115a55750604051636eb1769f60e11b81526001600160a01b0384169063dd62ed3e906115539030908690600401612426565b60206040518083038186803b15801561156b57600080fd5b505afa15801561157f573d6000803e3d6000fd5b505050506040513d601f19601f820116820180604052508101906115a39190612094565b155b6115c15760405162461bcd60e51b81526004016106bb90612667565b6103578363095ea7b360e01b8484604051602401611444929190612464565b60606115ef84846000856115f7565b949350505050565b6060824710156116195760405162461bcd60e51b81526004016106bb906125a0565b611622856116b8565b61163e5760405162461bcd60e51b81526004016106bb906125e6565b60006060866001600160a01b0316858760405161165b91906123f6565b60006040518083038185875af1925050503d8060008114611698576040519150601f19603f3d011682016040523d82523d6000602084013e61169d565b606091505b50915091506116ad8282866116be565b979650505050505050565b3b151590565b606083156116cd575081610bce565b8251156116dd5782518084602001fd5b8160405162461bcd60e51b81526004016106bb91906124e6565b6040518060a0016040528060006001600160a01b03168152602001606081526020016060815260200160608152602001606081525090565b60405180610160016040528060006001600160a01b0316815260200160008152602001600081526020016000815260200160006001600160a01b031681526020016060815260200160006001600160a01b0316815260200160008152602001606081526020016000815260200160006001600160801b03191681525090565b604051806101e0016040528060006001600160a01b0316815260200160006001600160a01b031681526020016000815260200160008152602001600081526020016060815260200160608152602001606081526020016060815260200160006001600160a01b0316815260200160006001600160a01b0316815260200160008152602001606081526020016000815260200160006001600160801b03191681525090565b8051610a9881612a2e565b600082601f83011261186d578081fd5b815161188061187b826129ab565b612985565b8181529150602080830190848101818402860182018710156118a157600080fd5b60005b848110156118c95781516118b781612a2e565b845292820192908201906001016118a4565b505050505092915050565b600082601f8301126118e4578081fd5b81516118f261187b826129ab565b818152915060208083019084810160005b848110156118c957815187016060818a03601f1901121561192357600080fd5b61192d6060612985565b8482015161193a81612a2e565b815260408201518582015260608201516001600160401b0381111561195e57600080fd5b80830192505089603f83011261197357600080fd5b8482015161198361187b826129ab565b818152868101906040850160005b848110156119bb576119a98f604084518a0101611b13565b84529289019290890190600101611991565b5050604084015250508552509282019290820190600101611903565b600082601f8301126119e7578081fd5b81516119f561187b826129ab565b818152915060208083019084810181840286018201871015611a1657600080fd5b60005b848110156118c957815184529282019290820190600101611a19565b8035610a9881612a46565b60008083601f840112611a51578182fd5b5081356001600160401b03811115611a67578182fd5b6020830191508360208285010111156107b757600080fd5b600082601f830112611a8f578081fd5b8135611a9d61187b826129ca565b9150808252836020828501011115611ab457600080fd5b8060208401602084013760009082016020015292915050565b600082601f830112611add578081fd5b8151611aeb61187b826129ca565b9150808252836020828501011115611b0257600080fd5b610a96816020840160208601612a02565b600060808284031215611b24578081fd5b611b2e6080612985565b90508151611b3b81612a2e565b8152602082810151818301526040808401519083015260608301516001600160401b0380821115611b6b57600080fd5b818501915085601f830112611b7f57600080fd5b8151611b8d61187b826129ab565b8181528481019084860160005b84811015611c26578151870160a080601f19838f03011215611bbb57600080fd5b611bc481612985565b8a83015181526040830151611bd881612a2e565b818c015260608301516040820152608083015189811115611bf857600080fd5b611c068f8d83870101611acd565b606083015250910151608082015284529287019290870190600101611b9a565b5050606087015250939695505050505050565b60008060008060608587031215611c4e578384fd5b8435611c5981612a2e565b935060208501356001600160e01b031981168114611c75578384fd5b925060408501356001600160401b03811115611c8f578283fd5b611c9b87828801611a40565b95989497509550505050565b600080600060408486031215611cbb578081fd5b8335611cc681612a2e565b925060208401356001600160401b03811115611ce0578182fd5b611cec86828701611a40565b9497909650939450505050565b600080600080600060608688031215611d10578283fd5b8535611d1b81612a2e565b945060208601356001600160401b0380821115611d36578485fd5b611d4289838a01611a40565b90965094506040880135915080821115611d5a578283fd5b50611d6788828901611a40565b969995985093965092949392505050565b600080600060608486031215611d8c578081fd5b83516001600160401b0380821115611da2578283fd5b611dae8783880161185d565b94506020860151915080821115611dc3578283fd5b611dcf878388016119d7565b93506040860151915080821115611de4578283fd5b50611df18682870161185d565b9150509250925092565b60008060408385031215611e0d578182fd5b82356001600160401b03811115611e22578283fd5b8301601f81018513611e32578283fd5b8035611e4061187b826129ab565b81815260208082019190848101875b85811015611e7857611e668b8484358a0101611a7f565b85529382019390820190600101611e4f565b5050819650611e8989828a01611a35565b955050505050509250929050565b60006020808385031215611ea9578182fd5b82516001600160401b0380821115611ebf578384fd5b818501915085601f830112611ed2578384fd5b8151611ee061187b826129ab565b81815284810190848601875b84811015611f525781518701604080601f19838f03011215611f0c578a8bfd5b611f1581612985565b828b01518152908201519088821115611f2c578b8cfd5b611f3a8e8c848601016118d4565b818c0152865250509287019290870190600101611eec565b50909998505050505050505050565b600060208284031215611f72578081fd5b81516001600160401b03811115611f87578182fd5b6115ef848285016118d4565b600060208284031215611fa4578081fd5b8151610bce81612a46565b600060208284031215611fc0578081fd5b81516001600160401b0380821115611fd6578283fd5b9083019060a08286031215611fe9578283fd5b611ff360a0612985565b611ffd8684611852565b8152602083015182811115612010578485fd5b61201c8782860161185d565b602083015250604083015182811115612033578485fd5b61203f87828601611acd565b604083015250606083015182811115612056578485fd5b612062878286016119d7565b606083015250608083015182811115612079578485fd5b612085878286016119d7565b60808301525095945050505050565b6000602082840312156120a5578081fd5b5051919050565b600080600080600080600060e0888a0312156120c6578485fd5b875196506020880151955060408801516120df81612a2e565b606089015160808a015191965094506001600160801b031981168114612103578283fd5b60a089015190935060038110612117578283fd5b60c08901519092506001600160401b03811115612132578182fd5b61213e8a828b01611acd565b91505092959891949750929550565b60006080830160018060a01b038351168452602080840151818601526040840151604086015260608401516080606087015282815180855260a08801915060a084820289010194508383019250855b818110156121ca57609f198987030183526121b88685516121d7565b9550928401929184019160010161219c565b5093979650505050505050565b60008151835260018060a01b03602083015116602084015260408201516040840152606082015160a0606085015261221260a08501826123ca565b608093840151949093019390935250919050565b6001600160a01b03169052565b6000815180845260208085019450808401835b8381101561226b5781516001600160a01b031687529582019590820190600101612246565b509495945050505050565b6000815180845260208085018081965082840281019150828601855b858110156122d057828403895281518051855285015160408686018190526122bc818701836122dd565b9a87019a9550505090840190600101612292565b5091979650505050505050565b6000815180845260208085018081965082840281019150828601855b858110156122d05782840389528151606080860161231783516129f6565b87528288015188880152604092830151928701919091528151819061233c81836129ed565b93890193925082915080890282018b5b8281101561237657838203855261236482875161214d565b958b0195948b0194915060010161234c565b509c89019c975050509286019250506001016122f9565b6000815180845260208085019450808401835b8381101561226b578151875295820195908201906001016123a0565b6001600160801b0319169052565b600081518084526123e2816020860160208601612a02565b601f01601f19169290920160200192915050565b60008251612408818460208701612a02565b9190910192915050565b6001600160a01b0391909116815260200190565b6001600160a01b0392831681529116602082015260400190565b6001600160a01b03831681526040602082018190526000906115ef908301846123ca565b6001600160a01b03929092168252602082015260400190565b60006003871061248957fe5b86825260a060208301526124a060a0830187612233565b82810360408401526124b2818761238d565b905082810360608401526124c68186612233565b905082810360808401526124da818561238d565b98975050505050505050565b600060208252610bce60208301846123ca565b6020808252604a908201527f5f5f74616b654f72646572416e6456616c6964617465496e636f6d696e673a2060408201527f526563656976656420696e636f6d696e67206173736574206c657373207468616060820152691b88195e1c1958dd195960b21b608082015260a00190565b6020808252601e908201527f536166654d6174683a207375627472616374696f6e206f766572666c6f770000604082015260600190565b60208082526026908201527f416464726573733a20696e73756666696369656e742062616c616e636520666f6040820152651c8818d85b1b60d21b606082015260800190565b6020808252601d908201527f416464726573733a2063616c6c20746f206e6f6e2d636f6e7472616374000000604082015260600190565b6020808252602a908201527f5361666545524332303a204552433230206f7065726174696f6e20646964206e6040820152691bdd081cdd58d8d9595960b21b606082015260800190565b60208082526036908201527f5361666545524332303a20617070726f76652066726f6d206e6f6e2d7a65726f60408201527520746f206e6f6e2d7a65726f20616c6c6f77616e636560501b606082015260800190565b60208082526027908201527f7061727365417373657473466f72416374696f6e3a205f73656c6563746f72206040820152661a5b9d985b1a5960ca1b606082015260800190565b600060208252612718602083018451612226565b602083015160408301526040830151606083015260608301516080830152608083015161274860a0840182612226565b5060a08301516101608060c0850152612765610180850183612276565b915060c085015161277960e0860182612226565b5060e0850151610100818187015280870151915050610120601f1986850301818701526127a684836123ca565b908701516101408781019190915287015190935090506127c8828601826123bc565b5090949350505050565b6000602082526127e6602083018451612226565b602083015160408301526040830151606083015260608301516080830152608083015161281660a0840182612226565b5060a08301516101608060c08501526127656101808501836122dd565b600060208252612847602083018451612226565b60208301516128596040840182612226565b506040830151606083015260608301516080830152608083015160a083015260a08301516101e08060c0850152612894610200850183612233565b915060c0850151601f19808685030160e08701526128b284836123ca565b935060e087015191506101008187860301818801526128d1858461238d565b9450808801519250506101208187860301818801526128f0858461238d565b94508088015192505061014061290881880184612226565b870151915061016061291c87820184612226565b808801519250506101808281880152808801519250506101a081878603018188015261294885846123ca565b908801516101c08881019190915288015190945091506127c89050828601826123bc565b6000838252604060208301526115ef60408301846123ca565b6040518181016001600160401b03811182821017156129a357600080fd5b604052919050565b60006001600160401b038211156129c0578081fd5b5060209081020190565b60006001600160401b038211156129df578081fd5b50601f01601f191660200190565b90815260200190565b6001600160a01b031690565b60005b83811015612a1d578181015183820152602001612a05565b8381111561141c5750506000910152565b6001600160a01b0381168114612a4357600080fd5b50565b8015158114612a4357600080fdfea164736f6c634300060c000a","linkReferences":{}},"methodIdentifiers":{"getIntegrationManager()":"e7c45690","getParaSwapV5AugustusSwapper()":"91bc27dc","getParaSwapV5TokenTransferProxy()":"2c428679","parseAssetsForAction(address,bytes4,bytes)":"c54efee5","takeMultipleOrders(address,bytes,bytes)":"0e7f692d","takeOrder(address,bytes,bytes)":"03e38a2b","takeOrderAndValidateIncoming(address,bytes)":"2d979b8c"},"id":179}