{"abi":[{"type":"constructor","inputs":[{"name":"_fundDeployer","type":"address","internalType":"address"}],"stateMutability":"nonpayable"},{"type":"function","name":"addDerivatives","inputs":[{"name":"_derivatives","type":"address[]","internalType":"address[]"},{"name":"_underlyings","type":"address[]","internalType":"address[]"}],"outputs":[],"stateMutability":"nonpayable"},{"type":"function","name":"calcUnderlyingValues","inputs":[{"name":"_derivative","type":"address","internalType":"address"},{"name":"_derivativeAmount","type":"uint256","internalType":"uint256"}],"outputs":[{"name":"underlyings_","type":"address[]","internalType":"address[]"},{"name":"underlyingAmounts_","type":"uint256[]","internalType":"uint256[]"}],"stateMutability":"nonpayable"},{"type":"function","name":"getFundDeployer","inputs":[],"outputs":[{"name":"fundDeployer_","type":"address","internalType":"address"}],"stateMutability":"view"},{"type":"function","name":"getOwner","inputs":[],"outputs":[{"name":"owner_","type":"address","internalType":"address"}],"stateMutability":"view"},{"type":"function","name":"getUnderlyingForDerivative","inputs":[{"name":"_derivative","type":"address","internalType":"address"}],"outputs":[{"name":"underlying_","type":"address","internalType":"address"}],"stateMutability":"view"},{"type":"function","name":"isSupportedAsset","inputs":[{"name":"_asset","type":"address","internalType":"address"}],"outputs":[{"name":"isSupported_","type":"bool","internalType":"bool"}],"stateMutability":"view"},{"type":"function","name":"removeDerivatives","inputs":[{"name":"_derivatives","type":"address[]","internalType":"address[]"}],"outputs":[],"stateMutability":"nonpayable"},{"type":"event","name":"DerivativeAdded","inputs":[{"name":"derivative","type":"address","indexed":true,"internalType":"address"},{"name":"underlying","type":"address","indexed":true,"internalType":"address"}],"anonymous":false},{"type":"event","name":"DerivativeRemoved","inputs":[{"name":"derivative","type":"address","indexed":true,"internalType":"address"}],"anonymous":false}],"bytecode":{"object":"0x60a060405234801561001057600080fd5b50604051610e5e380380610e5e8339818101604052602081101561003357600080fd5b5051606081901b6001600160601b0319166080526001600160a01b0316610df261006c600039806108b05280610af55250610df26000f3fe608060405234801561001057600080fd5b506004361061007d5760003560e01c8063893d20e81161005b578063893d20e8146102b25780638f72b136146102ba57806397c0ac871461035d5780639be918e6146103655761007d565b806339cbb63c1461008257806366adb867146101ab578063727212f6146101ed575b600080fd5b6101a96004803603604081101561009857600080fd5b8101906020810181356401000000008111156100b357600080fd5b8201836020820111156100c557600080fd5b803590602001918460208302840111640100000000831117156100e757600080fd5b919080806020026020016040519081016040528093929190818152602001838360200280828437600092019190915250929594936020810193503591505064010000000081111561013757600080fd5b82018360208201111561014957600080fd5b8035906020019184602083028401116401000000008311171561016b57600080fd5b91908080602002602001604051908101604052809392919081815260200183836020028082843760009201919091525092955061039f945050505050565b005b6101d1600480360360208110156101c157600080fd5b50356001600160a01b031661070c565b604080516001600160a01b039092168252519081900360200190f35b6102196004803603604081101561020357600080fd5b506001600160a01b03813516906020013561072a565b604051808060200180602001838103835285818151815260200191508051906020019060200280838360005b8381101561025d578181015183820152602001610245565b50505050905001838103825284818151815260200191508051906020019060200280838360005b8381101561029c578181015183820152602001610284565b5050505090500194505050505060405180910390f35b6101d16108ac565b6101a9600480360360208110156102d057600080fd5b8101906020810181356401000000008111156102eb57600080fd5b8201836020820111156102fd57600080fd5b8035906020019184602083028401116401000000008311171561031f57600080fd5b919080806020026020016040519081016040528093929190818152602001838360200280828437600092019190915250929550610938945050505050565b6101d1610af3565b61038b6004803603602081101561037b57600080fd5b50356001600160a01b0316610b17565b604080519115158252519081900360200190f35b6103a76108ac565b6001600160a01b0316336001600160a01b0316146103f65760405162461bcd60e51b8152600401808060200182810382526049815260200180610cd76049913960600191505060405180910390fd5b60008251116104365760405162461bcd60e51b8152600401808060200182810382526022815260200180610d986022913960400191505060405180910390fd5b805182511461048c576040805162461bcd60e51b815260206004820152601e60248201527f61646444657269766174697665733a20556e657175616c206172726179730000604482015290519081900360640190fd5b60005b82518110156107075760006001600160a01b03168382815181106104af57fe5b60200260200101516001600160a01b03161415610513576040805162461bcd60e51b815260206004820181905260248201527f61646444657269766174697665733a20456d7074792064657269766174697665604482015290519081900360640190fd5b60006001600160a01b031682828151811061052a57fe5b60200260200101516001600160a01b0316141561058e576040805162461bcd60e51b815260206004820181905260248201527f61646444657269766174697665733a20456d70747920756e6465726c79696e67604482015290519081900360640190fd5b60006001600160a01b03166105b58483815181106105a857fe5b602002602001015161070c565b6001600160a01b0316146105fa5760405162461bcd60e51b8152600401808060200182810382526021815260200180610d206021913960400191505060405180910390fd5b61062a83828151811061060957fe5b602002602001015183838151811061061d57fe5b6020026020010151610b34565b81818151811061063657fe5b602002602001015160008085848151811061064d57fe5b60200260200101516001600160a01b03166001600160a01b0316815260200190815260200160002060006101000a8154816001600160a01b0302191690836001600160a01b031602179055508181815181106106a557fe5b60200260200101516001600160a01b03168382815181106106c257fe5b60200260200101516001600160a01b03167faa4ae250fb435bb4b31ed0b95822bc179fc6c5dd0c727c3ffe08d444025efd9860405160405180910390a360010161048f565b505050565b6001600160a01b039081166000908152602081905260409020541690565b604080516001808252818301909252606091829190602080830190803683370190505091506107588461070c565b8260008151811061076557fe5b60200260200101906001600160a01b031690816001600160a01b03168152505060006001600160a01b03168260008151811061079d57fe5b60200260200101516001600160a01b031614156107eb5760405162461bcd60e51b815260040180806020018281038252602c815260200180610dba602c913960400191505060405180910390fd5b604080516001808252818301909252906020808301908036833701905050905061088c670de0b6b3a7640000610886866001600160a01b0316637ff9b5966040518163ffffffff1660e01b815260040160206040518083038186803b15801561085357600080fd5b505afa158015610867573d6000803e3d6000fd5b505050506040513d602081101561087d57600080fd5b50518690610be8565b90610c4a565b8160008151811061089957fe5b6020026020010181815250509250929050565b60007f00000000000000000000000000000000000000000000000000000000000000006001600160a01b031663893d20e86040518163ffffffff1660e01b815260040160206040518083038186803b15801561090757600080fd5b505afa15801561091b573d6000803e3d6000fd5b505050506040513d602081101561093157600080fd5b5051905090565b6109406108ac565b6001600160a01b0316336001600160a01b03161461098f5760405162461bcd60e51b8152600401808060200182810382526049815260200180610cd76049913960600191505060405180910390fd5b60008151116109cf5760405162461bcd60e51b8152600401808060200182810382526025815260200180610cb26025913960400191505060405180910390fd5b60005b8151811015610aef5760006001600160a01b03166109f58383815181106105a857fe5b6001600160a01b03161415610a51576040805162461bcd60e51b815260206004820181905260248201527f72656d6f766544657269766174697665733a2056616c7565206e6f7420736574604482015290519081900360640190fd5b600080838381518110610a6057fe5b60200260200101516001600160a01b03166001600160a01b0316815260200190815260200160002060006101000a8154906001600160a01b030219169055818181518110610aaa57fe5b60200260200101516001600160a01b03167fc15eb25d807b570f4567baf6e97c7b26d58a7d0512dc85e8db15375a056b860460405160405180910390a26001016109d2565b5050565b7f000000000000000000000000000000000000000000000000000000000000000090565b600080610b238361070c565b6001600160a01b0316141592915050565b806001600160a01b0316826001600160a01b031663fc0c546a6040518163ffffffff1660e01b815260040160206040518083038186803b158015610b7757600080fd5b505afa158015610b8b573d6000803e3d6000fd5b505050506040513d6020811015610ba157600080fd5b50516001600160a01b031614610aef5760405162461bcd60e51b8152600401808060200182810382526036815260200180610d416036913960400191505060405180910390fd5b600082610bf757506000610c44565b82820282848281610c0457fe5b0414610c415760405162461bcd60e51b8152600401808060200182810382526021815260200180610d776021913960400191505060405180910390fd5b90505b92915050565b6000808211610ca0576040805162461bcd60e51b815260206004820152601a60248201527f536166654d6174683a206469766973696f6e206279207a65726f000000000000604482015290519081900360640190fd5b818381610ca957fe5b04939250505056fe72656d6f766544657269766174697665733a20456d707479205f64657269766174697665736f6e6c7946756e644465706c6f7965724f776e65723a204f6e6c79207468652046756e644465706c6f796572206f776e65722063616e2063616c6c20746869732066756e6374696f6e61646444657269766174697665733a2056616c756520616c7265616479207365745f5f76616c6964617465446572697661746976653a20496e76616c696420756e6465726c79696e6720666f722049646c65546f6b656e536166654d6174683a206d756c7469706c69636174696f6e206f766572666c6f7761646444657269766174697665733a20456d707479205f646572697661746976657363616c63556e6465726c79696e6756616c7565733a20556e737570706f727465642064657269766174697665a164736f6c634300060c000a","linkReferences":{}},"methodIdentifiers":{"addDerivatives(address[],address[])":"39cbb63c","calcUnderlyingValues(address,uint256)":"727212f6","getFundDeployer()":"97c0ac87","getOwner()":"893d20e8","getUnderlyingForDerivative(address)":"66adb867","isSupportedAsset(address)":"9be918e6","removeDerivatives(address[])":"8f72b136"},"id":289}