{"abi":[{"type":"constructor","inputs":[{"name":"_feeManager","type":"address","internalType":"address"}],"stateMutability":"nonpayable"},{"type":"function","name":"activateForFund","inputs":[{"name":"","type":"address","internalType":"address"},{"name":"","type":"address","internalType":"address"}],"outputs":[],"stateMutability":"nonpayable"},{"type":"function","name":"addFundSettings","inputs":[{"name":"_comptrollerProxy","type":"address","internalType":"address"},{"name":"_settingsData","type":"bytes","internalType":"bytes"}],"outputs":[],"stateMutability":"nonpayable"},{"type":"function","name":"getFeeManager","inputs":[],"outputs":[{"name":"feeManager_","type":"address","internalType":"address"}],"stateMutability":"view"},{"type":"function","name":"getRateForFund","inputs":[{"name":"_comptrollerProxy","type":"address","internalType":"address"}],"outputs":[{"name":"rate_","type":"uint256","internalType":"uint256"}],"stateMutability":"view"},{"type":"function","name":"getRecipientForFund","inputs":[{"name":"","type":"address","internalType":"address"}],"outputs":[{"name":"recipient_","type":"address","internalType":"address"}],"stateMutability":"view"},{"type":"function","name":"getSettlementType","inputs":[],"outputs":[{"name":"settlementType_","type":"uint8","internalType":"enum IFeeManager.SettlementType"}],"stateMutability":"view"},{"type":"function","name":"payout","inputs":[{"name":"","type":"address","internalType":"address"},{"name":"","type":"address","internalType":"address"}],"outputs":[{"name":"","type":"bool","internalType":"bool"}],"stateMutability":"nonpayable"},{"type":"function","name":"settle","inputs":[{"name":"_comptrollerProxy","type":"address","internalType":"address"},{"name":"","type":"address","internalType":"address"},{"name":"","type":"uint8","internalType":"enum IFeeManager.FeeHook"},{"name":"_settlementData","type":"bytes","internalType":"bytes"},{"name":"","type":"uint256","internalType":"uint256"}],"outputs":[{"name":"settlementType_","type":"uint8","internalType":"enum IFeeManager.SettlementType"},{"name":"payer_","type":"address","internalType":"address"},{"name":"sharesDue_","type":"uint256","internalType":"uint256"}],"stateMutability":"nonpayable"},{"type":"function","name":"settlesOnHook","inputs":[{"name":"_hook","type":"uint8","internalType":"enum IFeeManager.FeeHook"}],"outputs":[{"name":"settles_","type":"bool","internalType":"bool"},{"name":"usesGav_","type":"bool","internalType":"bool"}],"stateMutability":"view"},{"type":"function","name":"update","inputs":[{"name":"","type":"address","internalType":"address"},{"name":"","type":"address","internalType":"address"},{"name":"","type":"uint8","internalType":"enum IFeeManager.FeeHook"},{"name":"","type":"bytes","internalType":"bytes"},{"name":"","type":"uint256","internalType":"uint256"}],"outputs":[],"stateMutability":"nonpayable"},{"type":"function","name":"updatesOnHook","inputs":[{"name":"","type":"uint8","internalType":"enum IFeeManager.FeeHook"}],"outputs":[{"name":"updates_","type":"bool","internalType":"bool"},{"name":"usesGav_","type":"bool","internalType":"bool"}],"stateMutability":"view"},{"type":"event","name":"FundSettingsAdded","inputs":[{"name":"comptrollerProxy","type":"address","indexed":true,"internalType":"address"},{"name":"rate","type":"uint256","indexed":false,"internalType":"uint256"}],"anonymous":false},{"type":"event","name":"Settled","inputs":[{"name":"comptrollerProxy","type":"address","indexed":true,"internalType":"address"},{"name":"payer","type":"address","indexed":true,"internalType":"address"},{"name":"sharesQuantity","type":"uint256","indexed":false,"internalType":"uint256"}],"anonymous":false}],"bytecode":{"object":"0x60c060405234801561001057600080fd5b5060405161099c38038061099c8339818101604052602081101561003357600080fd5b50516001600160601b0319606082901b16608052600360f81b60a0526001600160a01b03166003610916610086600039806106ef528061072752508061040f52806105b6528061075c52506109166000f3fe608060405234801561001057600080fd5b50600436106100a95760003560e01c806341892d7e1161007157806341892d7e1461026457806362780b3c1461032f5780637bdd5b1d14610371578063b78b48131461039a578063e337a91f146103dc578063f2d63826146103fc576100a9565b80630f5f6b4f146100ae578063233faf5f146101305780633146d058146101c3578063320f0ddd146101f15780633eecc2bf1461022c575b600080fd5b61012e600480360360408110156100c457600080fd5b6001600160a01b0382351691908101906040810160208201356401000000008111156100ef57600080fd5b82018360208201111561010157600080fd5b8035906020019184600183028401116401000000008311171561012357600080fd5b509092509050610404565b005b61012e600480360360a081101561014657600080fd5b6001600160a01b03823581169260208101359091169160ff604083013516919081019060808101606082013564010000000081111561018457600080fd5b82018360208201111561019657600080fd5b803590602001918460018302840111640100000000831117156101b857600080fd5b919350915035610551565b61012e600480360360408110156101d957600080fd5b506001600160a01b0381358116916020013516610559565b6102116004803603602081101561020757600080fd5b503560ff1661055d565b60408051921515835290151560208301528051918290030190f35b6102526004803603602081101561024257600080fd5b50356001600160a01b031661058c565b60408051918252519081900360200190f35b6102f7600480360360a081101561027a57600080fd5b6001600160a01b03823581169260208101359091169160ff60408301351691908101906080810160608201356401000000008111156102b857600080fd5b8201836020820111156102ca57600080fd5b803590602001918460018302840111640100000000831117156102ec57600080fd5b9193509150356105a7565b6040518084600381111561030757fe5b8152602001836001600160a01b03168152602001828152602001935050505060405180910390f35b6103556004803603602081101561034557600080fd5b50356001600160a01b031661071f565b604080516001600160a01b039092168252519081900360200190f35b610379610725565b6040518082600381111561038957fe5b815260200191505060405180910390f35b6103c8600480360360408110156103b057600080fd5b506001600160a01b0381358116916020013516610749565b604080519115158252519081900360200190f35b610211600480360360208110156103f257600080fd5b503560ff16610752565b61035561075a565b336001600160a01b037f0000000000000000000000000000000000000000000000000000000000000000161461046b5760405162461bcd60e51b815260040180806020018281038252602581526020018061087a6025913960400191505060405180910390fd5b60008282602081101561047d57600080fd5b50359050806104bd5760405162461bcd60e51b81526004018080602001828103825260248152602001806108e66024913960400191505060405180910390fd5b61271081106104fd5760405162461bcd60e51b81526004018080602001828103825260268152602001806108c06026913960400191505060405180910390fd5b6001600160a01b03841660008181526020818152604091829020849055815184815291517f90b7d1516011c1da1279f3ae0ed052b1416e7c373d4ec40cf515aa53c5f839df9281900390910190a250505050565b505050505050565b5050565b600080600283600381111561056e57fe5b14156105805750600190506000610587565b5060009050805b915091565b6001600160a01b031660009081526020819052604090205490565b60008080336001600160a01b037f000000000000000000000000000000000000000000000000000000000000000016146106125760405162461bcd60e51b815260040180806020018281038252602581526020018061087a6025913960400191505060405180910390fd5b600061065387878080601f01602080910402602001604051908101604052809392919081815260200183838082843760009201919091525061077e92505050565b6001600160a01b038d166000908152602081905260409020549295509250610689905061271061068384846107b2565b90610812565b9250826106a25760008060009450945094505050610713565b836001600160a01b03168b6001600160a01b03167f7e79a2206061184e05985ae0578dec52f817756a441996f984cdc817efc25a68856040518082815260200191505060405180910390a37f0000000000000000000000000000000000000000000000000000000000000000945050505b96509650969350505050565b50600090565b7f000000000000000000000000000000000000000000000000000000000000000090565b60005b92915050565b600080915091565b7f000000000000000000000000000000000000000000000000000000000000000090565b600080600083806020019051606081101561079857600080fd5b508051602082015160409092015190969195509350915050565b6000826107c15750600061074c565b828202828482816107ce57fe5b041461080b5760405162461bcd60e51b815260040180806020018281038252602181526020018061089f6021913960400191505060405180910390fd5b9392505050565b6000808211610868576040805162461bcd60e51b815260206004820152601a60248201527f536166654d6174683a206469766973696f6e206279207a65726f000000000000604482015290519081900360640190fd5b81838161087157fe5b04939250505056fe4f6e6c7920746865204665654d616e6765722063616e206d616b6520746869732063616c6c536166654d6174683a206d756c7469706c69636174696f6e206f766572666c6f7761646446756e6453657474696e67733a204665652072617465206d617820657863656564656461646446756e6453657474696e67733a204665652072617465206d757374206265203e30a164736f6c634300060c000a","linkReferences":{}},"methodIdentifiers":{"activateForFund(address,address)":"3146d058","addFundSettings(address,bytes)":"0f5f6b4f","getFeeManager()":"f2d63826","getRateForFund(address)":"3eecc2bf","getRecipientForFund(address)":"62780b3c","getSettlementType()":"7bdd5b1d","payout(address,address)":"b78b4813","settle(address,address,uint8,bytes,uint256)":"41892d7e","settlesOnHook(uint8)":"320f0ddd","update(address,address,uint8,bytes,uint256)":"233faf5f","updatesOnHook(uint8)":"e337a91f"},"id":154}