{"abi":[{"type":"constructor","inputs":[{"name":"_thisAggregatorDecimals","type":"uint8","internalType":"uint8"},{"name":"_quoteConversionAggregatorAddress","type":"address","internalType":"address"},{"name":"_quoteConversionAggregatorInverted","type":"bool","internalType":"bool"}],"stateMutability":"nonpayable"},{"type":"function","name":"DECIMALS","inputs":[],"outputs":[{"name":"","type":"uint8","internalType":"uint8"}],"stateMutability":"view"},{"type":"function","name":"QUOTE_CONVERSION_AGGREGATOR_ADDRESS","inputs":[],"outputs":[{"name":"","type":"address","internalType":"address"}],"stateMutability":"view"},{"type":"function","name":"QUOTE_CONVERSION_AGGREGATOR_INVERTED","inputs":[],"outputs":[{"name":"","type":"bool","internalType":"bool"}],"stateMutability":"view"},{"type":"function","name":"baseRate","inputs":[],"outputs":[{"name":"rate_","type":"uint256","internalType":"uint256"},{"name":"ratePrecision_","type":"uint256","internalType":"uint256"},{"name":"timestamp_","type":"uint256","internalType":"uint256"}],"stateMutability":"view"},{"type":"function","name":"decimals","inputs":[],"outputs":[{"name":"decimals_","type":"uint8","internalType":"uint8"}],"stateMutability":"view"},{"type":"function","name":"latestRoundData","inputs":[],"outputs":[{"name":"","type":"uint80","internalType":"uint80"},{"name":"","type":"int256","internalType":"int256"},{"name":"","type":"uint256","internalType":"uint256"},{"name":"","type":"uint256","internalType":"uint256"},{"name":"","type":"uint80","internalType":"uint80"}],"stateMutability":"view"},{"type":"function","name":"rate","inputs":[],"outputs":[{"name":"","type":"uint256","internalType":"uint256"}],"stateMutability":"view"},{"type":"function","name":"ratePrecision","inputs":[],"outputs":[{"name":"","type":"uint256","internalType":"uint256"}],"stateMutability":"view"},{"type":"function","name":"setRate","inputs":[{"name":"_rate","type":"uint256","internalType":"uint256"}],"outputs":[],"stateMutability":"nonpayable"},{"type":"function","name":"setRatePrecision","inputs":[{"name":"_ratePrecision","type":"uint256","internalType":"uint256"}],"outputs":[],"stateMutability":"nonpayable"},{"type":"function","name":"setTimestamp","inputs":[{"name":"_timestamp","type":"uint256","internalType":"uint256"}],"outputs":[],"stateMutability":"nonpayable"},{"type":"function","name":"timestamp","inputs":[],"outputs":[{"name":"","type":"uint256","internalType":"uint256"}],"stateMutability":"view"},{"type":"error","name":"PriceFeedHelpersLib__ParseRateFromChainlinkAggregator__NegativeAnswer","inputs":[{"name":"answer","type":"int256","internalType":"int256"}]}],"bytecode":{"object":"0x6101206040523480156200001257600080fd5b5060405162000a9338038062000a93833981016040819052620000359162000168565b60ff83166080528282826200004c83600a62000307565b60e0526001600160a01b03821660a081905281151560c052620000715760006200007c565b6200007c826200008d565b61010052506200034b945050505050565b6000816001600160a01b031663313ce5676040518163ffffffff1660e01b8152600401602060405180830381865afa158015620000ce573d6000803e3d6000fd5b505050506040513d601f19601f82011682018060405250810190620000f491906200031e565b6200010190600a62000307565b92915050565b60ff81165b81146200011857600080fd5b50565b8051620001018162000107565b60006001600160a01b03821662000101565b6200010c8162000128565b805162000101816200013a565b8015156200010c565b8051620001018162000152565b600080600060608486031215620001825762000182600080fd5b60006200019086866200011b565b9350506020620001a38682870162000145565b9250506040620001b6868287016200015b565b9150509250925092565b634e487b7160e01b600052601160045260246000fd5b80825b60018511156200021c57808604811115620001f857620001f8620001c0565b60018516156200020757908102905b8002620002148560011c90565b9450620001d9565b94509492505050565b600082620002365750600162000300565b81620002455750600062000300565b81600181146200025e576002811462000269576200029d565b600191505062000300565b60ff8411156200027d576200027d620001c0565b8360020a915084821115620002965762000296620001c0565b5062000300565b5060208310610133831016604e8410600b8410161715620002d5575081810a83811115620002cf57620002cf620001c0565b62000300565b620002e48484846001620001d6565b92509050818404811115620002fd57620002fd620001c0565b81025b9392505050565b600060ff8316925062000300600019848462000225565b600060208284031215620003355762000335600080fd5b60006200034384846200011b565b949350505050565b60805160a05160c05160e051610100516106e1620003b2600039600081816102cb01526103150152600061035c01526000818160be01526102a101526000818161015d015281816102400152610275015260008181610129015261018e01526106e16000f3fe608060405234801561001057600080fd5b50600436106100b45760003560e01c806334fcf4371161007157806334fcf437146101b25780633a4ac20a146101c7578063a0a2b573146101da578063b80777ea146101ed578063f40a0448146101f6578063feaf968c146101ff57600080fd5b80630918d214146100b95780631f68f20a146100f65780632c4e722e1461010e5780632e0f2625146101245780632faa3a0914610158578063313ce5671461018c575b600080fd5b6100e07f000000000000000000000000000000000000000000000000000000000000000081565b6040516100ed91906104b7565b60405180910390f35b6000546001546002546040516100ed939291906104cb565b61011760005481565b6040516100ed91906104fb565b61014b7f000000000000000000000000000000000000000000000000000000000000000081565b6040516100ed9190610512565b61017f7f000000000000000000000000000000000000000000000000000000000000000081565b6040516100ed919061053a565b7f000000000000000000000000000000000000000000000000000000000000000061014b565b6101c56101c0366004610563565b600055565b005b6101c56101d5366004610563565b600155565b6101c56101e8366004610563565b600255565b61011760025481565b61011760015481565b610207610218565b6040516100ed959493929190610596565b6000806000806000806000806102376000546001546002549192909190565b919450925090507f00000000000000000000000000000000000000000000000000000000000000006001600160a01b031615610355576000806102997f0000000000000000000000000000000000000000000000000000000000000000610395565b9150915060007f000000000000000000000000000000000000000000000000000000000000000015610312576102fc837f00000000000000000000000000000000000000000000000000000000000000006b033b2e3c9fd0803ce8000000610439565b92506b033b2e3c9fd0803ce80000009050610335565b507f00000000000000000000000000000000000000000000000000000000000000005b61034086868561045a565b955080945061034f8483610467565b93505050505b61038083837f000000000000000000000000000000000000000000000000000000000000000061047c565b60009990985089975090955086945092505050565b6000806000836001600160a01b031663feaf968c6040518163ffffffff1660e01b815260040160a060405180830381865afa1580156103d8573d6000803e3d6000fd5b505050506040513d601f19601f820116820180604052508101906103fc919061060a565b509450909250505060008112156104315780604051630d6f078960e31b815260040161042891906104fb565b60405180910390fd5b939092509050565b6000836104468484610698565b61045091906106cd565b90505b9392505050565b6000826104468386610698565b60006104738383610497565b90505b92915050565b600081830361048c575082610453565b826104468386610698565b60008183106104a65781610473565b5090919050565b8015155b82525050565b6020810161047682846104ad565b806104b1565b606081016104d982866104c5565b6104e660208301856104c5565b6104f360408301846104c5565b949350505050565b6020810161047682846104c5565b60ff81166104b1565b602081016104768284610509565b60006001600160a01b038216610476565b6104b181610520565b602081016104768284610531565b805b811461055557600080fd5b50565b803561047681610548565b60006020828403121561057857610578600080fd5b60006104f38484610558565b69ffffffffffffffffffff81166104b1565b60a081016105a48288610584565b6105b160208301876104c5565b6105be60408301866104c5565b6105cb60608301856104c5565b6105d86080830184610584565b9695505050505050565b69ffffffffffffffffffff811661054a565b8051610476816105e2565b805161047681610548565b600080600080600060a0868803121561062557610625600080fd5b600061063188886105f4565b9550506020610642888289016105ff565b9450506040610653888289016105ff565b9350506060610664888289016105ff565b9250506080610675888289016105f4565b9150509295509295909350565b634e487b7160e01b600052601160045260246000fd5b8181028082158382048514176106b0576106b0610682565b5092915050565b634e487b7160e01b600052601260045260246000fd5b6000826106dc576106dc6106b7565b50049056","linkReferences":{}},"methodIdentifiers":{"DECIMALS()":"2e0f2625","QUOTE_CONVERSION_AGGREGATOR_ADDRESS()":"2faa3a09","QUOTE_CONVERSION_AGGREGATOR_INVERTED()":"0918d214","baseRate()":"1f68f20a","decimals()":"313ce567","latestRoundData()":"feaf968c","rate()":"2c4e722e","ratePrecision()":"f40a0448","setRate(uint256)":"34fcf437","setRatePrecision(uint256)":"3a4ac20a","setTimestamp(uint256)":"a0a2b573","timestamp()":"b80777ea"},"id":235}