{"abi":[{"type":"constructor","inputs":[{"name":"_fundValueCalculatorRouter","type":"address","internalType":"address"},{"name":"_wethToken","type":"address","internalType":"address"},{"name":"_ethUsdAggregator","type":"address","internalType":"address"},{"name":"_staleRateThreshold","type":"uint256","internalType":"uint256"}],"stateMutability":"nonpayable"},{"type":"function","name":"calcGav","inputs":[{"name":"_vaultProxy","type":"address","internalType":"address"}],"outputs":[{"name":"gav_","type":"uint256","internalType":"uint256"}],"stateMutability":"nonpayable"},{"type":"function","name":"calcGrossShareValue","inputs":[{"name":"_vaultProxy","type":"address","internalType":"address"}],"outputs":[{"name":"grossShareValue_","type":"uint256","internalType":"uint256"}],"stateMutability":"nonpayable"},{"type":"function","name":"calcNav","inputs":[{"name":"_vaultProxy","type":"address","internalType":"address"}],"outputs":[{"name":"nav_","type":"uint256","internalType":"uint256"}],"stateMutability":"nonpayable"},{"type":"function","name":"calcNetShareValue","inputs":[{"name":"_vaultProxy","type":"address","internalType":"address"}],"outputs":[{"name":"netShareValue_","type":"uint256","internalType":"uint256"}],"stateMutability":"nonpayable"},{"type":"function","name":"calcNetValueForSharesHolder","inputs":[{"name":"_vaultProxy","type":"address","internalType":"address"},{"name":"_sharesHolder","type":"address","internalType":"address"}],"outputs":[{"name":"netValue_","type":"uint256","internalType":"uint256"}],"stateMutability":"nonpayable"},{"type":"function","name":"getEthUsdAggregatorContract","inputs":[],"outputs":[{"name":"ethUsdAggregatorContract_","type":"address","internalType":"contract IChainlinkAggregatorFundValueCalculatorUsdWrapper"}],"stateMutability":"view"},{"type":"function","name":"getFundValueCalculatorRouter","inputs":[],"outputs":[{"name":"fundValueCalculatorRouter_","type":"address","internalType":"address"}],"stateMutability":"view"},{"type":"function","name":"getStaleRateThreshold","inputs":[],"outputs":[{"name":"staleRateThreshold_","type":"uint256","internalType":"uint256"}],"stateMutability":"view"},{"type":"function","name":"getWethToken","inputs":[],"outputs":[{"name":"wethToken_","type":"address","internalType":"address"}],"stateMutability":"view"}],"bytecode":{"object":"0x61010060405234801561001157600080fd5b50604051610d7a380380610d7a8339818101604052608081101561003457600080fd5b81019080805190602001909291908051906020019092919080519060200190929190805190602001909291905050508173ffffffffffffffffffffffffffffffffffffffff1660808173ffffffffffffffffffffffffffffffffffffffff1660601b815250508373ffffffffffffffffffffffffffffffffffffffff1660a08173ffffffffffffffffffffffffffffffffffffffff1660601b815250508060c081815250508273ffffffffffffffffffffffffffffffffffffffff1660e08173ffffffffffffffffffffffffffffffffffffffff1660601b815250505050505060805160601c60a05160601c60c05160e05160601c610c286101526000398061052252508061075d5250806104145250806106305250610c286000f3fe608060405234801561001057600080fd5b50600436106100935760003560e01c806353d467f31161006657806353d467f3146101b05780636ed0a4ef1461020857806381dfa95b1461023c578063b54fbdaa146102b4578063c3552663146102d257610093565b8063037276c1146100985780632f88698c146100f05780633ba6b851146101245780634c252f911461017c575b600080fd5b6100da600480360360208110156100ae57600080fd5b81019080803573ffffffffffffffffffffffffffffffffffffffff16906020019092919050505061032a565b6040518082815260200191505060405180910390f35b6100f8610410565b604051808273ffffffffffffffffffffffffffffffffffffffff16815260200191505060405180910390f35b6101666004803603602081101561013a57600080fd5b81019080803573ffffffffffffffffffffffffffffffffffffffff169060200190929190505050610438565b6040518082815260200191505060405180910390f35b61018461051e565b604051808273ffffffffffffffffffffffffffffffffffffffff16815260200191505060405180910390f35b6101f2600480360360208110156101c657600080fd5b81019080803573ffffffffffffffffffffffffffffffffffffffff169060200190929190505050610546565b6040518082815260200191505060405180910390f35b61021061062c565b604051808273ffffffffffffffffffffffffffffffffffffffff16815260200191505060405180910390f35b61029e6004803603604081101561025257600080fd5b81019080803573ffffffffffffffffffffffffffffffffffffffff169060200190929190803573ffffffffffffffffffffffffffffffffffffffff169060200190929190505050610654565b6040518082815260200191505060405180910390f35b6102bc610759565b6040518082815260200191505060405180910390f35b610314600480360360208110156102e857600080fd5b81019080803573ffffffffffffffffffffffffffffffffffffffff169060200190929190505050610781565b6040518082815260200191505060405180910390f35b600080610335610410565b73ffffffffffffffffffffffffffffffffffffffff166351ac29c78461035961051e565b6040518363ffffffff1660e01b8152600401808373ffffffffffffffffffffffffffffffffffffffff1681526020018273ffffffffffffffffffffffffffffffffffffffff16815260200192505050602060405180830381600087803b1580156103c257600080fd5b505af11580156103d6573d6000803e3d6000fd5b505050506040513d60208110156103ec57600080fd5b8101908080519060200190929190505050905061040881610867565b915050919050565b60007f0000000000000000000000000000000000000000000000000000000000000000905090565b600080610443610410565b73ffffffffffffffffffffffffffffffffffffffff1663faf6eeef8461046761051e565b6040518363ffffffff1660e01b8152600401808373ffffffffffffffffffffffffffffffffffffffff1681526020018273ffffffffffffffffffffffffffffffffffffffff16815260200192505050602060405180830381600087803b1580156104d057600080fd5b505af11580156104e4573d6000803e3d6000fd5b505050506040513d60208110156104fa57600080fd5b8101908080519060200190929190505050905061051681610867565b915050919050565b60007f0000000000000000000000000000000000000000000000000000000000000000905090565b600080610551610410565b73ffffffffffffffffffffffffffffffffffffffff1663c65988ff8461057561051e565b6040518363ffffffff1660e01b8152600401808373ffffffffffffffffffffffffffffffffffffffff1681526020018273ffffffffffffffffffffffffffffffffffffffff16815260200192505050602060405180830381600087803b1580156105de57600080fd5b505af11580156105f2573d6000803e3d6000fd5b505050506040513d602081101561060857600080fd5b8101908080519060200190929190505050905061062481610867565b915050919050565b60007f0000000000000000000000000000000000000000000000000000000000000000905090565b60008061065f610410565b73ffffffffffffffffffffffffffffffffffffffff16634807ccbd858561068461051e565b6040518463ffffffff1660e01b8152600401808473ffffffffffffffffffffffffffffffffffffffff1681526020018373ffffffffffffffffffffffffffffffffffffffff1681526020018273ffffffffffffffffffffffffffffffffffffffff1681526020019350505050602060405180830381600087803b15801561070a57600080fd5b505af115801561071e573d6000803e3d6000fd5b505050506040513d602081101561073457600080fd5b8101908080519060200190929190505050905061075081610867565b91505092915050565b60007f0000000000000000000000000000000000000000000000000000000000000000905090565b60008061078c610410565b73ffffffffffffffffffffffffffffffffffffffff1663eefcb1b3846107b061051e565b6040518363ffffffff1660e01b8152600401808373ffffffffffffffffffffffffffffffffffffffff1681526020018273ffffffffffffffffffffffffffffffffffffffff16815260200192505050602060405180830381600087803b15801561081957600080fd5b505af115801561082d573d6000803e3d6000fd5b505050506040513d602081101561084357600080fd5b8101908080519060200190929190505050905061085f81610867565b915050919050565b600080600061087461062c565b73ffffffffffffffffffffffffffffffffffffffff1663feaf968c6040518163ffffffff1660e01b815260040160a06040518083038186803b1580156108b957600080fd5b505afa1580156108cd573d6000803e3d6000fd5b505050506040513d60a08110156108e357600080fd5b810190808051906020019092919080519060200190929190805190602001909291908051906020019092919080519060200190929190505050509350509250506000821361097c576040517f08c379a0000000000000000000000000000000000000000000000000000000008152600401808060200182810382526022815260200180610bfa6022913960400191505060405180910390fd5b610996610987610759565b42610a2090919063ffffffff16565b8110156109ee576040517f08c379a0000000000000000000000000000000000000000000000000000000008152600401808060200182810382526026815260200180610bb36026913960400191505060405180910390fd5b610a176008600a0a610a098487610aa390919063ffffffff16565b610b2990919063ffffffff16565b92505050919050565b600082821115610a98576040517f08c379a000000000000000000000000000000000000000000000000000000000815260040180806020018281038252601e8152602001807f536166654d6174683a207375627472616374696f6e206f766572666c6f77000081525060200191505060405180910390fd5b818303905092915050565b600080831415610ab65760009050610b23565b6000828402905082848281610ac757fe5b0414610b1e576040517f08c379a0000000000000000000000000000000000000000000000000000000008152600401808060200182810382526021815260200180610bd96021913960400191505060405180910390fd5b809150505b92915050565b6000808211610ba0576040517f08c379a000000000000000000000000000000000000000000000000000000000815260040180806020018281038252601a8152602001807f536166654d6174683a206469766973696f6e206279207a65726f00000000000081525060200191505060405180910390fd5b818381610ba957fe5b0490509291505056fe5f5f636f6e76657274457468546f5573643a205374616c652072617465206465746563746564536166654d6174683a206d756c7469706c69636174696f6e206f766572666c6f775f5f636f6e76657274457468546f5573643a20426164206574685573642072617465a164736f6c634300060c000a","linkReferences":{}},"methodIdentifiers":{"calcGav(address)":"037276c1","calcGrossShareValue(address)":"c3552663","calcNav(address)":"53d467f3","calcNetShareValue(address)":"3ba6b851","calcNetValueForSharesHolder(address,address)":"81dfa95b","getEthUsdAggregatorContract()":"6ed0a4ef","getFundValueCalculatorRouter()":"2f88698c","getStaleRateThreshold()":"b54fbdaa","getWethToken()":"4c252f91"},"id":98}