{"abi":[{"type":"constructor","inputs":[{"name":"_fundDeployer","type":"address","internalType":"address"},{"name":"_externalPositionFactory","type":"address","internalType":"address"},{"name":"_policyManager","type":"address","internalType":"address"}],"stateMutability":"nonpayable"},{"type":"function","name":"activateForFund","inputs":[],"outputs":[],"stateMutability":"nonpayable"},{"type":"function","name":"deactivateForFund","inputs":[],"outputs":[],"stateMutability":"nonpayable"},{"type":"function","name":"getExternalPositionFactory","inputs":[],"outputs":[{"name":"externalPositionFactory_","type":"address","internalType":"address"}],"stateMutability":"view"},{"type":"function","name":"getExternalPositionLibForType","inputs":[{"name":"_typeId","type":"uint256","internalType":"uint256"}],"outputs":[{"name":"lib_","type":"address","internalType":"address"}],"stateMutability":"view"},{"type":"function","name":"getExternalPositionParserForType","inputs":[{"name":"_typeId","type":"uint256","internalType":"uint256"}],"outputs":[{"name":"parser_","type":"address","internalType":"address"}],"stateMutability":"view"},{"type":"function","name":"getFundDeployer","inputs":[],"outputs":[{"name":"fundDeployer_","type":"address","internalType":"address"}],"stateMutability":"view"},{"type":"function","name":"getOwner","inputs":[],"outputs":[{"name":"owner_","type":"address","internalType":"address"}],"stateMutability":"view"},{"type":"function","name":"getPolicyManager","inputs":[],"outputs":[{"name":"policyManager_","type":"address","internalType":"address"}],"stateMutability":"view"},{"type":"function","name":"getVaultProxyForFund","inputs":[{"name":"_comptrollerProxy","type":"address","internalType":"address"}],"outputs":[{"name":"vaultProxy_","type":"address","internalType":"address"}],"stateMutability":"view"},{"type":"function","name":"receiveCallFromComptroller","inputs":[{"name":"_caller","type":"address","internalType":"address"},{"name":"_actionId","type":"uint256","internalType":"uint256"},{"name":"_callArgs","type":"bytes","internalType":"bytes"}],"outputs":[],"stateMutability":"nonpayable"},{"type":"function","name":"setConfigForFund","inputs":[{"name":"","type":"bytes","internalType":"bytes"}],"outputs":[],"stateMutability":"nonpayable"},{"type":"function","name":"updateExternalPositionTypesInfo","inputs":[{"name":"_typeIds","type":"uint256[]","internalType":"uint256[]"},{"name":"_libs","type":"address[]","internalType":"address[]"},{"name":"_parsers","type":"address[]","internalType":"address[]"}],"outputs":[],"stateMutability":"nonpayable"},{"type":"event","name":"CallOnExternalPositionExecutedForFund","inputs":[{"name":"caller","type":"address","indexed":true,"internalType":"address"},{"name":"comptrollerProxy","type":"address","indexed":true,"internalType":"address"},{"name":"externalPosition","type":"address","indexed":true,"internalType":"address"},{"name":"actionId","type":"uint256","indexed":false,"internalType":"uint256"},{"name":"actionArgs","type":"bytes","indexed":false,"internalType":"bytes"},{"name":"assetsToTransfer","type":"address[]","indexed":false,"internalType":"address[]"},{"name":"amountsToTransfer","type":"uint256[]","indexed":false,"internalType":"uint256[]"},{"name":"assetsToReceive","type":"address[]","indexed":false,"internalType":"address[]"}],"anonymous":false},{"type":"event","name":"ExternalPositionDeployedForFund","inputs":[{"name":"comptrollerProxy","type":"address","indexed":true,"internalType":"address"},{"name":"vaultProxy","type":"address","indexed":true,"internalType":"address"},{"name":"externalPosition","type":"address","indexed":false,"internalType":"address"},{"name":"externalPositionTypeId","type":"uint256","indexed":true,"internalType":"uint256"},{"name":"data","type":"bytes","indexed":false,"internalType":"bytes"}],"anonymous":false},{"type":"event","name":"ExternalPositionTypeInfoUpdated","inputs":[{"name":"typeId","type":"uint256","indexed":true,"internalType":"uint256"},{"name":"lib","type":"address","indexed":false,"internalType":"address"},{"name":"parser","type":"address","indexed":false,"internalType":"address"}],"anonymous":false},{"type":"event","name":"ValidatedVaultProxySetForFund","inputs":[{"name":"comptrollerProxy","type":"address","indexed":true,"internalType":"address"},{"name":"vaultProxy","type":"address","indexed":true,"internalType":"address"}],"anonymous":false}],"bytecode":{"object":"0x60e06040523480156200001157600080fd5b50604051620021d7380380620021d783398101604081905262000034916200008c565b6001600160a01b0392831660805290821660a0521660c052620000e4565b60006001600160a01b0382165b92915050565b620000708162000052565b81146200007c57600080fd5b50565b80516200005f8162000065565b600080600060608486031215620000a657620000a6600080fd5b6000620000b486866200007f565b9350506020620000c7868287016200007f565b9250506040620000da868287016200007f565b9150509250925092565b60805160a05160c05161208462000153600039600081816101e2015281816107bb01528181610bda01528181610d070152610f09015260008181610125015281816104a8015281816109340152610de30152600081816101bc015281816106be0152610fd601526120846000f3fe608060405234801561001057600080fd5b50600436106100b45760003560e01c80637c65c114116100715780637c65c11414610176578063893d20e81461019f57806389cbe1d0146101a757806397c0ac87146101ba578063bd8e959a146100cc578063d44ad6cb146101e057600080fd5b80631bee801e146100b957806321725d01146100cc57806346790346146100ce5780634c68a8dc14610110578063634ac96d1461012357806375d8bb0e14610149575b600080fd5b6100cc6100c7366004611230565b610206565b005b6100fa6100dc36600461129d565b6001600160a01b039081166000908152602081905260409020541690565b60405161010791906112d5565b60405180910390f35b6100cc61011e36600461145d565b610434565b7f00000000000000000000000000000000000000000000000000000000000000006100fa565b6100fa6101573660046114fa565b600090815260016020819052604090912001546001600160a01b031690565b6100fa6101843660046114fa565b6000908152600160205260409020546001600160a01b031690565b6100fa6106ba565b6100cc6101b536600461151b565b610743565b7f00000000000000000000000000000000000000000000000000000000000000006100fa565b7f00000000000000000000000000000000000000000000000000000000000000006100fa565b336000818152602081905260409020546001600160a01b0316806102455760405162461bcd60e51b815260040161023c906115af565b60405180910390fd5b60405163714ca2d160e01b81526001600160a01b0382169063714ca2d1906102719089906004016112d5565b602060405180830381865afa15801561028e573d6000803e3d6000fd5b505050506040513d601f19601f820116820180604052508101906102b291906115d2565b6102ce5760405162461bcd60e51b815260040161023c90611638565b8461031a5761031586838387878080601f01602080910402602001604051908101604052809392919081815260200183838082843760009201919091525061075192505050565b61042c565b6001850361038157600080600061036687878080601f016020809104026020016040519081016040528093929190818152602001838380828437600092019190915250610a7092505050565b9250925092506103798986858585610a96565b50505061042c565b600285036103ca57610315868386868080601f016020809104026020016040519081016040528093929190818152602001838380828437600092019190915250610ced92505050565b600385036104145761031586838387878080601f016020809104026020016040519081016040528093929190818152602001838380828437600092019190915250610db392505050565b60405162461bcd60e51b815260040161023c906116a8565b505050505050565b61043c6106ba565b6001600160a01b0316336001600160a01b03161461046c5760405162461bcd60e51b815260040161023c90611727565b8051835114801561047e575080518251145b61049a5760405162461bcd60e51b815260040161023c90611783565b60005b83518110156106b4577f00000000000000000000000000000000000000000000000000000000000000006001600160a01b0316633825abe86040518163ffffffff1660e01b8152600401602060405180830381865afa158015610504573d6000803e3d6000fd5b505050506040513d601f19601f82011682018060405250810190610528919061179e565b84828151811061053a5761053a6117bf565b60200260200101511061055f5760405162461bcd60e51b815260040161023c90611826565b604051806040016040528083838151811061057c5761057c6117bf565b60200260200101516001600160a01b031681526020018483815181106105a4576105a46117bf565b60200260200101516001600160a01b0316815250600160008684815181106105ce576105ce6117bf565b602090810291909101810151825281810192909252604001600020825181546001600160a01b03199081166001600160a01b039283161783559390920151600190910180549093169116179055835184908290811061062f5761062f6117bf565b60200260200101517f14f0f52379e27a06185de7281205c2496464cf539a6dcc46258cc6cebe89dc3084838151811061066a5761066a6117bf565b6020026020010151848481518110610684576106846117bf565b602002602001015160405161069a929190611836565b60405180910390a2806106ac8161186e565b91505061049d565b50505050565b60007f00000000000000000000000000000000000000000000000000000000000000006001600160a01b031663893d20e86040518163ffffffff1660e01b8152600401602060405180830381865afa15801561071a573d6000803e3d6000fd5b505050506040513d601f19601f8201168201806040525081019061073e9190611893565b905090565b61074c33610fbc565b505050565b60008060008380602001905181019061076a9190611962565b9250925092506000610791846000908152600160205260409020546001600160a01b031690565b90506001600160a01b0381166107b95760405162461bcd60e51b815260040161023c90611a21565b7f00000000000000000000000000000000000000000000000000000000000000006001600160a01b0316630442bad58860068b888860405160200161080093929190611a69565b6040516020818303038152906040526040518463ffffffff1660e01b815260040161082d93929190611acd565b600060405180830381600087803b15801561084757600080fd5b505af115801561085b573d6000803e3d6000fd5b5050604051636d8b639760e11b8152600092506001600160a01b038416915063db16c72e90610890908a908890600401611ae8565b6000604051808303816000875af11580156108af573d6000803e3d6000fd5b505050506040513d6000823e601f3d908101601f191682016040526108d79190810190611b08565b90506000634ddf47d460e01b826040516024016108f49190611b42565b60408051601f198184030181529190526020810180516001600160e01b03166001600160e01b031990931692909217909152905060006001600160a01b037f00000000000000000000000000000000000000000000000000000000000000001663f908bc778a8961097e81600090815260016020819052604090912001546001600160a01b031690565b866040518563ffffffff1660e01b815260040161099e9493929190611b53565b6020604051808303816000875af11580156109bd573d6000803e3d6000fd5b505050506040513d601f19601f820116820180604052508101906109e19190611893565b905086896001600160a01b03168b6001600160a01b03167fc3b9bcc16acc2ee56104cb9a5d736ade0f1446a66aa9e217d8fa5b44f946b59e8487604051610a29929190611ae8565b60405180910390a4610a3b8a826110cc565b845115610a6357600080610a4e87610a70565b9250925050610a608d8d858585610a96565b50505b5050505050505050505050565b600080606083806020019051810190610a899190611b97565b9250925092509193909250565b6000610afd846001600160a01b03166312bc0a446040518163ffffffff1660e01b8152600401602060405180830381865afa158015610ad9573d6000803e3d6000fd5b505050506040513d601f19601f82011682018060405250810190610184919061179e565b90506000806000836001600160a01b031663bbd2d6468888886040518463ffffffff1660e01b8152600401610b3493929190611a69565b6000604051808303816000875af1158015610b53573d6000803e3d6000fd5b505050506040513d6000823e601f3d908101601f19168201604052610b7b9190810190611cb6565b92509250925060008686604051602001610b96929190611d49565b6040516020818303038152906040529050610bd8898983878787604051602001610bc4959493929190611dfe565b604051602081830303815290604052611148565b7f00000000000000000000000000000000000000000000000000000000000000006001600160a01b0316630442bad58a60078d8c89898989604051602001610c2596959493929190611e65565b6040516020818303038152906040526040518463ffffffff1660e01b8152600401610c5293929190611acd565b600060405180830381600087803b158015610c6c57600080fd5b505af1158015610c80573d6000803e3d6000fd5b50505050876001600160a01b0316896001600160a01b03168b6001600160a01b03167f62e5ab7686baa8b666d45a227de296ea589ff48f1f215ca0e647ef6417a8657e8a8a898989604051610cd9959493929190611eda565b60405180910390a450505050505050505050565b600081806020019051810190610d039190611893565b90507f00000000000000000000000000000000000000000000000000000000000000006001600160a01b0316630442bad58460088785604051602001610d4a929190611836565b6040516020818303038152906040526040518463ffffffff1660e01b8152600401610d7793929190611acd565b600060405180830381600087803b158015610d9157600080fd5b505af1158015610da5573d6000803e3d6000fd5b505050506106b48382611177565b600081806020019051810190610dc99190611893565b6040516371b79dc160e01b81529091506001600160a01b037f000000000000000000000000000000000000000000000000000000000000000016906371b79dc190610e189084906004016112d5565b602060405180830381865afa158015610e35573d6000803e3d6000fd5b505050506040513d601f19601f82011682018060405250810190610e5991906115d2565b610e755760405162461bcd60e51b815260040161023c90611f5a565b826001600160a01b0316816001600160a01b031663c98091876040518163ffffffff1660e01b8152600401602060405180830381865afa158015610ebd573d6000803e3d6000fd5b505050506040513d601f19601f82011682018060405250810190610ee19190611893565b6001600160a01b031614610f075760405162461bcd60e51b815260040161023c90611fd9565b7f00000000000000000000000000000000000000000000000000000000000000006001600160a01b0316630442bad58560098885604051602001610f4c929190611836565b6040516020818303038152906040526040518463ffffffff1660e01b8152600401610f7993929190611acd565b600060405180830381600087803b158015610f9357600080fd5b505af1158015610fa7573d6000803e3d6000fd5b50505050610fb584826110cc565b5050505050565b604051631054b35560e21b81526000906001600160a01b037f00000000000000000000000000000000000000000000000000000000000000001690634152cd549061100b9085906004016112d5565b602060405180830381865afa158015611028573d6000803e3d6000fd5b505050506040513d601f19601f8201168201806040525081019061104c9190611893565b90506001600160a01b0381166110745760405162461bcd60e51b815260040161023c90612038565b6001600160a01b0382811660008181526020819052604080822080546001600160a01b0319169486169485179055517f8852dcaa71340ea616a65ffac013450dfb238607481fb9d78346c667fe256c139190a3919050565b816001600160a01b03166310acd06d6008836040516020016110ee91906112d5565b6040516020818303038152906040526040518363ffffffff1660e01b815260040161111a929190612076565b600060405180830381600087803b15801561113457600080fd5b505af115801561042c573d6000803e3d6000fd5b6040516310acd06d60e01b81526001600160a01b038316906310acd06d9061111a906009908590600401612076565b816001600160a01b03166310acd06d600a836040516020016110ee91906112d5565b60006001600160a01b0382165b92915050565b6111b581611199565b81146111c057600080fd5b50565b80356111a6816111ac565b806111b5565b80356111a6816111ce565b60008083601f8401126111f4576111f4600080fd5b5081356001600160401b0381111561120e5761120e600080fd5b60208301915083600182028301111561122957611229600080fd5b9250929050565b6000806000806060858703121561124957611249600080fd5b600061125587876111c3565b9450506020611266878288016111d4565b93505060408501356001600160401b0381111561128557611285600080fd5b611291878288016111df565b95989497509550505050565b6000602082840312156112b2576112b2600080fd5b60006112be84846111c3565b949350505050565b6112cf81611199565b82525050565b602081016111a682846112c6565b634e487b7160e01b600052604160045260246000fd5b601f19601f83011681018181106001600160401b038211171561131e5761131e6112e3565b6040525050565b600061133060405190565b905061133c82826112f9565b919050565b60006001600160401b0382111561135a5761135a6112e3565b5060209081020190565b600061137761137284611341565b611325565b8381529050602080820190840283018581111561139657611396600080fd5b835b818110156113ba57806113ab88826111d4565b84525060209283019201611398565b5050509392505050565b600082601f8301126113d8576113d8600080fd5b81356112be848260208601611364565b60006113f661137284611341565b8381529050602080820190840283018581111561141557611415600080fd5b835b818110156113ba578061142a88826111c3565b84525060209283019201611417565b600082601f83011261144d5761144d600080fd5b81356112be8482602086016113e8565b60008060006060848603121561147557611475600080fd5b83356001600160401b0381111561148e5761148e600080fd5b61149a868287016113c4565b93505060208401356001600160401b038111156114b9576114b9600080fd5b6114c586828701611439565b92505060408401356001600160401b038111156114e4576114e4600080fd5b6114f086828701611439565b9150509250925092565b60006020828403121561150f5761150f600080fd5b60006112be84846111d4565b6000806020838503121561153157611531600080fd5b82356001600160401b0381111561154a5761154a600080fd5b611556858286016111df565b92509250509250929050565b602d81526000602082017f7265636569766543616c6c46726f6d436f6d7074726f6c6c65723a2046756e6481526c081a5cc81b9bdd081d985b1a59609a1b602082015291505b5060400190565b602080825281016111a681611562565b8015156111b5565b80516111a6816115bf565b6000602082840312156115e7576115e7600080fd5b60006112be84846115c7565b602881526000602082017f7265636569766543616c6c46726f6d436f6d7074726f6c6c65723a20556e61758152671d1a1bdc9a5e995960c21b602082015291506115a8565b602080825281016111a6816115f3565b634e487b7160e01b600052602160045260246000fd5b602d81526000602082017f7265636569766543616c6c46726f6d436f6d7074726f6c6c65723a20496e766181526c1b1a590817d858dd1a5bdb9259609a1b602082015291506115a8565b602080825281016111a68161165e565b604981526000602082017f6f6e6c7946756e644465706c6f7965724f776e65723a204f6e6c79207468652081527f46756e644465706c6f796572206f776e65722063616e2063616c6c207468697360208201526810333ab731ba34b7b760b91b604082015291505b5060600190565b602080825281016111a6816116b8565b602f81526000602082017f75706461746545787465726e616c506f736974696f6e5479706573496e666f3a81526e20556e657175616c2061727261797360881b602082015291506115a8565b602080825281016111a681611737565b80516111a6816111ce565b6000602082840312156117b3576117b3600080fd5b60006112be8484611793565b634e487b7160e01b600052603260045260246000fd5b603481526000602082017f75706461746545787465726e616c506f736974696f6e5479706573496e666f3a81527308151e5c1948191bd95cc81b9bdd08195e1a5cdd60621b602082015291506115a8565b602080825281016111a6816117d5565b6040810161184482856112c6565b61185160208301846112c6565b9392505050565b634e487b7160e01b600052601160045260246000fd5b6000600019820361188157611881611858565b5060010190565b80516111a6816111ac565b6000602082840312156118a8576118a8600080fd5b60006112be8484611888565b60006001600160401b038211156118cd576118cd6112e3565b601f19601f83011660200192915050565b60005b838110156118f95781810151838201526020016118e1565b50506000910152565b6000611910611372846118b4565b90508281526020810184848401111561192b5761192b600080fd5b6119368482856118de565b509392505050565b600082601f83011261195257611952600080fd5b81516112be848260208601611902565b60008060006060848603121561197a5761197a600080fd5b60006119868686611793565b93505060208401516001600160401b038111156119a5576119a5600080fd5b6119b18682870161193e565b92505060408401516001600160401b038111156119d0576119d0600080fd5b6114f08682870161193e565b602881526000602082017f5f5f63726561746545787465726e616c506f736974696f6e3a20496e76616c6981526719081d1e5c19525960c21b602082015291506115a8565b602080825281016111a6816119dc565b806112cf565b6000611a41825190565b808452602084019350611a588185602086016118de565b601f01601f19169290920192915050565b60608101611a7782866112c6565b611a846020830185611a31565b8181036040830152611a968184611a37565b95945050505050565b600a81106111c0576111c0611648565b8061133c81611a9f565b60006111a682611aaf565b6112cf81611ab9565b60608101611adb82866112c6565b611a846020830185611ac4565b60408101611af682856112c6565b81810360208301526112be8184611a37565b600060208284031215611b1d57611b1d600080fd5b81516001600160401b03811115611b3657611b36600080fd5b6112be8482850161193e565b602080825281016118518184611a37565b60808101611b6182876112c6565b611b6e6020830186611a31565b611b7b60408301856112c6565b8181036060830152611b8d8184611a37565b9695505050505050565b600080600060608486031215611baf57611baf600080fd5b6000611bbb8686611888565b93505060206119b186828701611793565b6000611bda61137284611341565b83815290506020808201908402830185811115611bf957611bf9600080fd5b835b818110156113ba5780611c0e8882611888565b84525060209283019201611bfb565b600082601f830112611c3157611c31600080fd5b81516112be848260208601611bcc565b6000611c4f61137284611341565b83815290506020808201908402830185811115611c6e57611c6e600080fd5b835b818110156113ba5780611c838882611793565b84525060209283019201611c70565b600082601f830112611ca657611ca6600080fd5b81516112be848260208601611c41565b600080600060608486031215611cce57611cce600080fd5b83516001600160401b03811115611ce757611ce7600080fd5b611cf386828701611c1d565b93505060208401516001600160401b03811115611d1257611d12600080fd5b611d1e86828701611c92565b92505060408401516001600160401b03811115611d3d57611d3d600080fd5b6114f086828701611c1d565b60408101611af68285611a31565b6000611d6383836112c6565b505060200190565b6000611d75825190565b80845260209384019383018060005b83811015611da9578151611d988882611d57565b975060208301925050600101611d84565b509495945050505050565b6000611d638383611a31565b6000611dca825190565b80845260209384019383018060005b83811015611da9578151611ded8882611db4565b975060208301925050600101611dd9565b60a08101611e0c82886112c6565b8181036020830152611e1e8187611a37565b90508181036040830152611e328186611d6b565b90508181036060830152611e468185611dc0565b90508181036080830152611e5a8184611d6b565b979650505050505050565b60c08101611e7382896112c6565b611e8060208301886112c6565b8181036040830152611e928187611d6b565b90508181036060830152611ea68186611dc0565b90508181036080830152611eba8185611d6b565b905081810360a0830152611ece8184611a37565b98975050505050505050565b60a08101611e0c8288611a31565b604f81526000602082017f5f5f7265616374697661746545787465726e616c506f736974696f6e3a20416381527f636f756e742070726f7669646564206973206e6f7420612076616c696420657860208201526e3a32b93730b6103837b9b4ba34b7b760891b60408201529150611720565b602080825281016111a681611ee8565b604c81526000602082017f5f5f7265616374697661746545787465726e616c506f736974696f6e3a20457881527f7465726e616c20706f736974696f6e2062656c6f6e677320746f20612064696660208201526b19995c995b9d081d985d5b1d60a21b60408201529150611720565b602080825281016111a681611f6a565b603281526000602082017f5f5f73657456616c6964617465645661756c7450726f78793a20496e76616c698152716420436f6d7074726f6c6c657250726f787960701b602082015291506115a8565b602080825281016111a681611fe9565b600b81106111c0576111c0611648565b8061133c81612048565b60006111a682612058565b6112cf81612062565b60408101611af6828561206d56","linkReferences":{}},"methodIdentifiers":{"activateForFund()":"21725d01","deactivateForFund()":"bd8e959a","getExternalPositionFactory()":"634ac96d","getExternalPositionLibForType(uint256)":"75d8bb0e","getExternalPositionParserForType(uint256)":"7c65c114","getFundDeployer()":"97c0ac87","getOwner()":"893d20e8","getPolicyManager()":"d44ad6cb","getVaultProxyForFund(address)":"46790346","receiveCallFromComptroller(address,uint256,bytes)":"1bee801e","setConfigForFund(bytes)":"89cbe1d0","updateExternalPositionTypesInfo(uint256[],address[],address[])":"4c68a8dc"},"id":103}