{"abi":[{"type":"constructor","inputs":[{"name":"_fundDeployer","type":"address","internalType":"address"},{"name":"_externalPositionFactory","type":"address","internalType":"address"},{"name":"_policyManager","type":"address","internalType":"address"}],"stateMutability":"nonpayable"},{"type":"function","name":"activateForFund","inputs":[],"outputs":[],"stateMutability":"nonpayable"},{"type":"function","name":"deactivateForFund","inputs":[],"outputs":[],"stateMutability":"nonpayable"},{"type":"function","name":"getExternalPositionFactory","inputs":[],"outputs":[{"name":"externalPositionFactory_","type":"address","internalType":"address"}],"stateMutability":"view"},{"type":"function","name":"getExternalPositionLibForType","inputs":[{"name":"_typeId","type":"uint256","internalType":"uint256"}],"outputs":[{"name":"lib_","type":"address","internalType":"address"}],"stateMutability":"view"},{"type":"function","name":"getExternalPositionParserForType","inputs":[{"name":"_typeId","type":"uint256","internalType":"uint256"}],"outputs":[{"name":"parser_","type":"address","internalType":"address"}],"stateMutability":"view"},{"type":"function","name":"getFundDeployer","inputs":[],"outputs":[{"name":"fundDeployer_","type":"address","internalType":"address"}],"stateMutability":"view"},{"type":"function","name":"getOwner","inputs":[],"outputs":[{"name":"owner_","type":"address","internalType":"address"}],"stateMutability":"view"},{"type":"function","name":"getPolicyManager","inputs":[],"outputs":[{"name":"policyManager_","type":"address","internalType":"address"}],"stateMutability":"view"},{"type":"function","name":"getVaultProxyForFund","inputs":[{"name":"_comptrollerProxy","type":"address","internalType":"address"}],"outputs":[{"name":"vaultProxy_","type":"address","internalType":"address"}],"stateMutability":"view"},{"type":"function","name":"receiveCallFromComptroller","inputs":[{"name":"_caller","type":"address","internalType":"address"},{"name":"_actionId","type":"uint256","internalType":"uint256"},{"name":"_callArgs","type":"bytes","internalType":"bytes"}],"outputs":[],"stateMutability":"nonpayable"},{"type":"function","name":"setConfigForFund","inputs":[{"name":"","type":"bytes","internalType":"bytes"}],"outputs":[],"stateMutability":"nonpayable"},{"type":"function","name":"updateExternalPositionTypesInfo","inputs":[{"name":"_typeIds","type":"uint256[]","internalType":"uint256[]"},{"name":"_libs","type":"address[]","internalType":"address[]"},{"name":"_parsers","type":"address[]","internalType":"address[]"}],"outputs":[],"stateMutability":"nonpayable"},{"type":"event","name":"CallOnExternalPositionExecutedForFund","inputs":[{"name":"caller","type":"address","indexed":true,"internalType":"address"},{"name":"comptrollerProxy","type":"address","indexed":true,"internalType":"address"},{"name":"externalPosition","type":"address","indexed":true,"internalType":"address"},{"name":"actionId","type":"uint256","indexed":false,"internalType":"uint256"},{"name":"actionArgs","type":"bytes","indexed":false,"internalType":"bytes"},{"name":"assetsToTransfer","type":"address[]","indexed":false,"internalType":"address[]"},{"name":"amountsToTransfer","type":"uint256[]","indexed":false,"internalType":"uint256[]"},{"name":"assetsToReceive","type":"address[]","indexed":false,"internalType":"address[]"}],"anonymous":false},{"type":"event","name":"ExternalPositionDeployedForFund","inputs":[{"name":"comptrollerProxy","type":"address","indexed":true,"internalType":"address"},{"name":"vaultProxy","type":"address","indexed":true,"internalType":"address"},{"name":"externalPosition","type":"address","indexed":false,"internalType":"address"},{"name":"externalPositionTypeId","type":"uint256","indexed":true,"internalType":"uint256"},{"name":"data","type":"bytes","indexed":false,"internalType":"bytes"}],"anonymous":false},{"type":"event","name":"ExternalPositionTypeInfoUpdated","inputs":[{"name":"typeId","type":"uint256","indexed":true,"internalType":"uint256"},{"name":"lib","type":"address","indexed":false,"internalType":"address"},{"name":"parser","type":"address","indexed":false,"internalType":"address"}],"anonymous":false},{"type":"event","name":"ValidatedVaultProxySetForFund","inputs":[{"name":"comptrollerProxy","type":"address","indexed":true,"internalType":"address"},{"name":"vaultProxy","type":"address","indexed":true,"internalType":"address"}],"anonymous":false}],"bytecode":{"object":"0x60e06040523480156200001157600080fd5b5060405162001f3638038062001f3683398101604081905262000034916200006f565b6001600160a01b0392831660805290821660a0521660c052620000b9565b80516001600160a01b03811681146200006a57600080fd5b919050565b6000806000606084860312156200008557600080fd5b620000908462000052565b9250620000a06020850162000052565b9150620000b06040850162000052565b90509250925092565b60805160a05160c051611e0e62000128600039600081816101e8015281816109da01528181610df901528181610f26015261121501526000818161012b0152818161062401528181610b5301526110010152600081816101c20152818161089c01526112e10152611e0e6000f3fe608060405234801561001057600080fd5b50600436106100b45760003560e01c80637c65c114116100715780637c65c1141461017c578063893d20e8146101a557806389cbe1d0146101ad57806397c0ac87146101c0578063bd8e959a146100cc578063d44ad6cb146101e657600080fd5b80631bee801e146100b957806321725d01146100cc57806346790346146100ce5780634c68a8dc14610116578063634ac96d1461012957806375d8bb0e1461014f575b600080fd5b6100cc6100c7366004611569565b61020c565b005b6100fa6100dc3660046115c5565b6001600160a01b039081166000908152602081905260409020541690565b6040516001600160a01b03909116815260200160405180910390f35b6100cc6101243660046116c8565b610500565b7f00000000000000000000000000000000000000000000000000000000000000006100fa565b6100fa61015d3660046117a5565b600090815260016020819052604090912001546001600160a01b031690565b6100fa61018a3660046117a5565b6000908152600160205260409020546001600160a01b031690565b6100fa610898565b6100cc6101bb3660046117be565b610921565b7f00000000000000000000000000000000000000000000000000000000000000006100fa565b7f00000000000000000000000000000000000000000000000000000000000000006100fa565b336000818152602081905260409020546001600160a01b03168061028d5760405162461bcd60e51b815260206004820152602d60248201527f7265636569766543616c6c46726f6d436f6d7074726f6c6c65723a2046756e6460448201526c081a5cc81b9bdd081d985b1a59609a1b60648201526084015b60405180910390fd5b60405163714ca2d160e01b81526001600160a01b03878116600483015282169063714ca2d190602401602060405180830381865afa1580156102d3573d6000803e3d6000fd5b505050506040513d601f19601f820116820180604052508101906102f79190611800565b6103545760405162461bcd60e51b815260206004820152602860248201527f7265636569766543616c6c46726f6d436f6d7074726f6c6c65723a20556e61756044820152671d1a1bdc9a5e995960c21b6064820152608401610284565b846103a05761039b86838387878080601f01602080910402602001604051908101604052809392919081815260200183838082843760009201919091525061092f92505050565b6104f8565b600185036104075760008060006103ec87878080601f016020809104026020016040519081016040528093929190818152602001838380828437600092019190915250610c8f92505050565b9250925092506103ff8986858585610cb5565b5050506104f8565b600285036104505761039b868386868080601f016020809104026020016040519081016040528093929190818152602001838380828437600092019190915250610f0c92505050565b6003850361049a5761039b86838387878080601f016020809104026020016040519081016040528093929190818152602001838380828437600092019190915250610fe792505050565b60405162461bcd60e51b815260206004820152602d60248201527f7265636569766543616c6c46726f6d436f6d7074726f6c6c65723a20496e766160448201526c1b1a590817d858dd1a5bdb9259609a1b6064820152608401610284565b505050505050565b610508610898565b6001600160a01b0316336001600160a01b0316146105a05760405162461bcd60e51b815260206004820152604960248201527f6f6e6c7946756e644465706c6f7965724f776e65723a204f6e6c79207468652060448201527f46756e644465706c6f796572206f776e65722063616e2063616c6c207468697360648201526810333ab731ba34b7b760b91b608482015260a401610284565b805183511480156105b2575080518251145b6106165760405162461bcd60e51b815260206004820152602f60248201527f75706461746545787465726e616c506f736974696f6e5479706573496e666f3a60448201526e20556e657175616c2061727261797360881b6064820152608401610284565b60005b8351811015610892577f00000000000000000000000000000000000000000000000000000000000000006001600160a01b0316633825abe86040518163ffffffff1660e01b8152600401602060405180830381865afa158015610680573d6000803e3d6000fd5b505050506040513d601f19601f820116820180604052508101906106a49190611838565b8482815181106106b6576106b6611851565b6020026020010151106107285760405162461bcd60e51b815260206004820152603460248201527f75706461746545787465726e616c506f736974696f6e5479706573496e666f3a60448201527308151e5c1948191bd95cc81b9bdd08195e1a5cdd60621b6064820152608401610284565b604051806040016040528083838151811061074557610745611851565b60200260200101516001600160a01b0316815260200184838151811061076d5761076d611851565b60200260200101516001600160a01b03168152506001600086848151811061079757610797611851565b602090810291909101810151825281810192909252604001600020825181546001600160a01b03199081166001600160a01b03928316178355939092015160019091018054909316911617905583518490829081106107f8576107f8611851565b60200260200101517f14f0f52379e27a06185de7281205c2496464cf539a6dcc46258cc6cebe89dc3084838151811061083357610833611851565b602002602001015184848151811061084d5761084d611851565b60200260200101516040516108789291906001600160a01b0392831681529116602082015260400190565b60405180910390a28061088a81611867565b915050610619565b50505050565b60007f00000000000000000000000000000000000000000000000000000000000000006001600160a01b031663893d20e86040518163ffffffff1660e01b8152600401602060405180830381865afa1580156108f8573d6000803e3d6000fd5b505050506040513d601f19601f8201168201806040525081019061091c919061188e565b905090565b61092a336112dd565b505050565b600080600083806020019051810190610948919061193b565b925092509250600061096f846000908152600160205260409020546001600160a01b031690565b90506001600160a01b0381166109d85760405162461bcd60e51b815260206004820152602860248201527f5f5f63726561746545787465726e616c506f736974696f6e3a20496e76616c6960448201526719081d1e5c19525960c21b6064820152608401610284565b7f00000000000000000000000000000000000000000000000000000000000000006001600160a01b0316630442bad58860068b8888604051602001610a1f939291906119ca565b6040516020818303038152906040526040518463ffffffff1660e01b8152600401610a4c939291906119fa565b600060405180830381600087803b158015610a6657600080fd5b505af1158015610a7a573d6000803e3d6000fd5b5050604051636d8b639760e11b8152600092506001600160a01b038416915063db16c72e90610aaf908a908890600401611a32565b6000604051808303816000875af1158015610ace573d6000803e3d6000fd5b505050506040513d6000823e601f3d908101601f19168201604052610af69190810190611a56565b90506000634ddf47d460e01b82604051602401610b139190611a8b565b60408051601f198184030181529190526020810180516001600160e01b03166001600160e01b031990931692909217909152905060006001600160a01b037f00000000000000000000000000000000000000000000000000000000000000001663f908bc778a89610b9d81600090815260016020819052604090912001546001600160a01b031690565b866040518563ffffffff1660e01b8152600401610bbd9493929190611a9e565b6020604051808303816000875af1158015610bdc573d6000803e3d6000fd5b505050506040513d601f19601f82011682018060405250810190610c00919061188e565b905086896001600160a01b03168b6001600160a01b03167fc3b9bcc16acc2ee56104cb9a5d736ade0f1446a66aa9e217d8fa5b44f946b59e8487604051610c48929190611a32565b60405180910390a4610c5a8a82611437565b845115610c8257600080610c6d87610c8f565b9250925050610c7f8d8d858585610cb5565b50505b5050505050505050505050565b600080606083806020019051810190610ca89190611adb565b9250925092509193909250565b6000610d1c846001600160a01b03166312bc0a446040518163ffffffff1660e01b8152600401602060405180830381865afa158015610cf8573d6000803e3d6000fd5b505050506040513d601f19601f8201168201806040525081019061018a9190611838565b90506000806000836001600160a01b031663bbd2d6468888886040518463ffffffff1660e01b8152600401610d53939291906119ca565b6000604051808303816000875af1158015610d72573d6000803e3d6000fd5b505050506040513d6000823e601f3d908101601f19168201604052610d9a9190810190611b8f565b92509250925060008686604051602001610db5929190611c62565b6040516020818303038152906040529050610df7898983878787604051602001610de3959493929190611cef565b6040516020818303038152906040526114b3565b7f00000000000000000000000000000000000000000000000000000000000000006001600160a01b0316630442bad58a60078d8c89898989604051602001610e4496959493929190611d59565b6040516020818303038152906040526040518463ffffffff1660e01b8152600401610e71939291906119fa565b600060405180830381600087803b158015610e8b57600080fd5b505af1158015610e9f573d6000803e3d6000fd5b50505050876001600160a01b0316896001600160a01b03168b6001600160a01b03167f62e5ab7686baa8b666d45a227de296ea589ff48f1f215ca0e647ef6417a8657e8a8a898989604051610ef8959493929190611dcc565b60405180910390a450505050505050505050565b600081806020019051810190610f22919061188e565b90507f00000000000000000000000000000000000000000000000000000000000000006001600160a01b0316630442bad58460088785604051602001610f7e9291906001600160a01b0392831681529116602082015260400190565b6040516020818303038152906040526040518463ffffffff1660e01b8152600401610fab939291906119fa565b600060405180830381600087803b158015610fc557600080fd5b505af1158015610fd9573d6000803e3d6000fd5b5050505061089283826114e2565b600081806020019051810190610ffd919061188e565b90507f00000000000000000000000000000000000000000000000000000000000000006040516371b79dc160e01b81526001600160a01b03838116600483015291909116906371b79dc190602401602060405180830381865afa158015611068573d6000803e3d6000fd5b505050506040513d601f19601f8201168201806040525081019061108c9190611800565b6111165760405162461bcd60e51b815260206004820152604f60248201527f5f5f7265616374697661746545787465726e616c506f736974696f6e3a20416360448201527f636f756e742070726f7669646564206973206e6f7420612076616c696420657860648201526e3a32b93730b6103837b9b4ba34b7b760891b608482015260a401610284565b826001600160a01b0316816001600160a01b031663c98091876040518163ffffffff1660e01b8152600401602060405180830381865afa15801561115e573d6000803e3d6000fd5b505050506040513d601f19601f82011682018060405250810190611182919061188e565b6001600160a01b0316146112135760405162461bcd60e51b815260206004820152604c60248201527f5f5f7265616374697661746545787465726e616c506f736974696f6e3a20457860448201527f7465726e616c20706f736974696f6e2062656c6f6e677320746f20612064696660648201526b19995c995b9d081d985d5b1d60a21b608482015260a401610284565b7f00000000000000000000000000000000000000000000000000000000000000006001600160a01b0316630442bad5856009888560405160200161126d9291906001600160a01b0392831681529116602082015260400190565b6040516020818303038152906040526040518463ffffffff1660e01b815260040161129a939291906119fa565b600060405180830381600087803b1580156112b457600080fd5b505af11580156112c8573d6000803e3d6000fd5b505050506112d68482611437565b5050505050565b60007f0000000000000000000000000000000000000000000000000000000000000000604051631054b35560e21b81526001600160a01b0384811660048301529190911690634152cd5490602401602060405180830381865afa158015611348573d6000803e3d6000fd5b505050506040513d601f19601f8201168201806040525081019061136c919061188e565b90506001600160a01b0381166113df5760405162461bcd60e51b815260206004820152603260248201527f5f5f73657456616c6964617465645661756c7450726f78793a20496e76616c696044820152716420436f6d7074726f6c6c657250726f787960701b6064820152608401610284565b6001600160a01b0382811660008181526020819052604080822080546001600160a01b0319169486169485179055517f8852dcaa71340ea616a65ffac013450dfb238607481fb9d78346c667fe256c139190a3919050565b604080516001600160a01b0383811660208301528416916310acd06d91600891015b6040516020818303038152906040526040518363ffffffff1660e01b8152600401611485929190611de5565b600060405180830381600087803b15801561149f57600080fd5b505af11580156104f8573d6000803e3d6000fd5b6040516310acd06d60e01b81526001600160a01b038316906310acd06d90611485906009908590600401611de5565b604080516001600160a01b0383811660208301528416916310acd06d91600a9101611459565b6001600160a01b038116811461151d57600080fd5b50565b60008083601f84011261153257600080fd5b50813567ffffffffffffffff81111561154a57600080fd5b60208301915083602082850101111561156257600080fd5b9250929050565b6000806000806060858703121561157f57600080fd5b843561158a81611508565b935060208501359250604085013567ffffffffffffffff8111156115ad57600080fd5b6115b987828801611520565b95989497509550505050565b6000602082840312156115d757600080fd5b81356115e281611508565b9392505050565b634e487b7160e01b600052604160045260246000fd5b604051601f8201601f1916810167ffffffffffffffff81118282101715611628576116286115e9565b604052919050565b600067ffffffffffffffff82111561164a5761164a6115e9565b5060051b60200190565b600082601f83011261166557600080fd5b8135602061167a61167583611630565b6115ff565b82815260059290921b8401810191818101908684111561169957600080fd5b8286015b848110156116bd5780356116b081611508565b835291830191830161169d565b509695505050505050565b6000806000606084860312156116dd57600080fd5b833567ffffffffffffffff808211156116f557600080fd5b818601915086601f83011261170957600080fd5b8135602061171961167583611630565b82815260059290921b8401810191818101908a84111561173857600080fd5b948201945b838610156117565785358252948201949082019061173d565b9750508701359250508082111561176c57600080fd5b61177887838801611654565b9350604086013591508082111561178e57600080fd5b5061179b86828701611654565b9150509250925092565b6000602082840312156117b757600080fd5b5035919050565b600080602083850312156117d157600080fd5b823567ffffffffffffffff8111156117e857600080fd5b6117f485828601611520565b90969095509350505050565b60006020828403121561181257600080fd5b815180151581146115e257600080fd5b634e487b7160e01b600052602160045260246000fd5b60006020828403121561184a57600080fd5b5051919050565b634e487b7160e01b600052603260045260246000fd5b60006001820161188757634e487b7160e01b600052601160045260246000fd5b5060010190565b6000602082840312156118a057600080fd5b81516115e281611508565b60005b838110156118c65781810151838201526020016118ae565b50506000910152565b600082601f8301126118e057600080fd5b815167ffffffffffffffff8111156118fa576118fa6115e9565b61190d601f8201601f19166020016115ff565b81815284602083860101111561192257600080fd5b6119338260208301602087016118ab565b949350505050565b60008060006060848603121561195057600080fd5b83519250602084015167ffffffffffffffff8082111561196f57600080fd5b61197b878388016118cf565b9350604086015191508082111561199157600080fd5b5061179b868287016118cf565b600081518084526119b68160208601602086016118ab565b601f01601f19169290920160200192915050565b60018060a01b03841681528260208201526060604082015260006119f1606083018461199e565b95945050505050565b6001600160a01b03841681526000600a8410611a1857611a18611822565b836020830152606060408301526119f1606083018461199e565b6001600160a01b03831681526040602082018190526000906119339083018461199e565b600060208284031215611a6857600080fd5b815167ffffffffffffffff811115611a7f57600080fd5b611933848285016118cf565b6020815260006115e2602083018461199e565b6001600160a01b0385811682526020820185905283166040820152608060608201819052600090611ad19083018461199e565b9695505050505050565b600080600060608486031215611af057600080fd5b8351611afb81611508565b60208501516040860151919450925067ffffffffffffffff811115611b1f57600080fd5b61179b868287016118cf565b600082601f830112611b3c57600080fd5b81516020611b4c61167583611630565b82815260059290921b84018101918181019086841115611b6b57600080fd5b8286015b848110156116bd578051611b8281611508565b8352918301918301611b6f565b600080600060608486031215611ba457600080fd5b835167ffffffffffffffff80821115611bbc57600080fd5b611bc887838801611b2b565b9450602091508186015181811115611bdf57600080fd5b8601601f81018813611bf057600080fd5b8051611bfe61167582611630565b81815260059190911b8201840190848101908a831115611c1d57600080fd5b928501925b82841015611c3b57835182529285019290850190611c22565b60408a0151909750945050505080821115611c5557600080fd5b5061179b86828701611b2b565b828152604060208201526000611933604083018461199e565b600081518084526020808501945080840160005b83811015611cb45781516001600160a01b031687529582019590820190600101611c8f565b509495945050505050565b600081518084526020808501945080840160005b83811015611cb457815187529582019590820190600101611cd3565b6001600160a01b038616815260a060208201819052600090611d139083018761199e565b8281036040840152611d258187611c7b565b90508281036060840152611d398186611cbf565b90508281036080840152611d4d8185611c7b565b98975050505050505050565b6001600160a01b0387811682528616602082015260c060408201819052600090611d8590830187611c7b565b8281036060840152611d978187611cbf565b90508281036080840152611dab8186611c7b565b905082810360a0840152611dbf818561199e565b9998505050505050505050565b85815260a060208201526000611d1360a083018761199e565b6000600b8410611df757611df7611822565b83825260406020830152611933604083018461199e56","linkReferences":{}},"methodIdentifiers":{"activateForFund()":"21725d01","deactivateForFund()":"bd8e959a","getExternalPositionFactory()":"634ac96d","getExternalPositionLibForType(uint256)":"75d8bb0e","getExternalPositionParserForType(uint256)":"7c65c114","getFundDeployer()":"97c0ac87","getOwner()":"893d20e8","getPolicyManager()":"d44ad6cb","getVaultProxyForFund(address)":"46790346","receiveCallFromComptroller(address,uint256,bytes)":"1bee801e","setConfigForFund(bytes)":"89cbe1d0","updateExternalPositionTypesInfo(uint256[],address[],address[])":"4c68a8dc"},"id":90}