{"abi":[{"type":"constructor","inputs":[{"name":"_policyManager","type":"address","internalType":"address"}],"stateMutability":"nonpayable"},{"type":"function","name":"activateForFund","inputs":[{"name":"_comptrollerProxy","type":"address","internalType":"address"}],"outputs":[],"stateMutability":"nonpayable"},{"type":"function","name":"addFundSettings","inputs":[{"name":"_comptrollerProxy","type":"address","internalType":"address"},{"name":"_encodedSettings","type":"bytes","internalType":"bytes"}],"outputs":[],"stateMutability":"nonpayable"},{"type":"function","name":"canDisable","inputs":[],"outputs":[{"name":"canDisable_","type":"bool","internalType":"bool"}],"stateMutability":"pure"},{"type":"function","name":"externalPositionTypeIsAllowedForFund","inputs":[{"name":"_comptrollerProxy","type":"address","internalType":"address"},{"name":"_externalPositionTypeId","type":"uint256","internalType":"uint256"}],"outputs":[{"name":"isAllowed_","type":"bool","internalType":"bool"}],"stateMutability":"view"},{"type":"function","name":"getPolicyManager","inputs":[],"outputs":[{"name":"policyManager_","type":"address","internalType":"address"}],"stateMutability":"view"},{"type":"function","name":"identifier","inputs":[],"outputs":[{"name":"identifier_","type":"string","internalType":"string"}],"stateMutability":"pure"},{"type":"function","name":"implementedHooks","inputs":[],"outputs":[{"name":"implementedHooks_","type":"uint8[]","internalType":"enum IPolicyManager.PolicyHook[]"}],"stateMutability":"pure"},{"type":"function","name":"updateFundSettings","inputs":[{"name":"","type":"address","internalType":"address"},{"name":"","type":"bytes","internalType":"bytes"}],"outputs":[],"stateMutability":"nonpayable"},{"type":"function","name":"validateRule","inputs":[{"name":"_comptrollerProxy","type":"address","internalType":"address"},{"name":"_hook","type":"uint8","internalType":"enum IPolicyManager.PolicyHook"},{"name":"_encodedArgs","type":"bytes","internalType":"bytes"}],"outputs":[{"name":"isValid_","type":"bool","internalType":"bool"}],"stateMutability":"nonpayable"},{"type":"event","name":"AllowedExternalPositionTypeAddedForFund","inputs":[{"name":"comptrollerProxy","type":"address","indexed":true,"internalType":"address"},{"name":"externalPositionTypeId","type":"uint256","indexed":true,"internalType":"uint256"}],"anonymous":false}],"bytecode":{"object":"0x60a060405234801561001057600080fd5b50604051610faf380380610faf8339818101604052602081101561003357600080fd5b8101908080519060200190929190505050808073ffffffffffffffffffffffffffffffffffffffff1660808173ffffffffffffffffffffffffffffffffffffffff1660601b81525050505060805160601c610f0a6100a5600039806104b752806109c25280610d175250610f0a6000f3fe608060405234801561001057600080fd5b50600436106100935760003560e01c806373f8d40e1161006657806373f8d40e146102a65780637998a1c41461030a578063cbf54bb21461038d578063ceb9a0ad146103ec578063d44ad6cb1461043057610093565b80630d4d7510146100985780630f5f6b4f146101315780631ef92578146101ca578063579be718146101ea575b600080fd5b61012f600480360360408110156100ae57600080fd5b81019080803573ffffffffffffffffffffffffffffffffffffffff169060200190929190803590602001906401000000008111156100eb57600080fd5b8201836020820111156100fd57600080fd5b8035906020019184600183028401116401000000008311171561011f57600080fd5b9091929391929390505050610464565b005b6101c86004803603604081101561014757600080fd5b81019080803573ffffffffffffffffffffffffffffffffffffffff1690602001909291908035906020019064010000000081111561018457600080fd5b82018360208201111561019657600080fd5b803590602001918460018302840111640100000000831117156101b857600080fd5b90919293919293905050506104b5565b005b6101d26106fa565b60405180821515815260200191505060405180910390f35b61028e6004803603606081101561020057600080fd5b81019080803573ffffffffffffffffffffffffffffffffffffffff169060200190929190803560ff1690602001909291908035906020019064010000000081111561024a57600080fd5b82018360208201111561025c57600080fd5b8035906020019184600183028401116401000000008311171561027e57600080fd5b90919293919293905050506106ff565b60405180821515815260200191505060405180910390f35b6102f2600480360360408110156102bc57600080fd5b81019080803573ffffffffffffffffffffffffffffffffffffffff16906020019092919080359060200190929190505050610867565b60405180821515815260200191505060405180910390f35b6103126108ce565b6040518080602001828103825283818151815260200191508051906020019080838360005b83811015610352578082015181840152602081019050610337565b50505050905090810190601f16801561037f5780820380516001836020036101000a031916815260200191505b509250505060405180910390f35b61039561090b565b6040518080602001828103825283818151815260200191508051906020019060200280838360005b838110156103d85780820151818401526020810190506103bd565b505050509050019250505060405180910390f35b61042e6004803603602081101561040257600080fd5b81019080803573ffffffffffffffffffffffffffffffffffffffff1690602001909291905050506109c0565b005b610438610d13565b604051808273ffffffffffffffffffffffffffffffffffffffff16815260200191505060405180910390f35b6040517f08c379a0000000000000000000000000000000000000000000000000000000008152600401808060200182810382526037815260200180610e6e6037913960400191505060405180910390fd5b7f000000000000000000000000000000000000000000000000000000000000000073ffffffffffffffffffffffffffffffffffffffff163373ffffffffffffffffffffffffffffffffffffffff1614610559576040517f08c379a0000000000000000000000000000000000000000000000000000000008152600401808060200182810382526029815260200180610ea56029913960400191505060405180910390fd5b60608282602081101561056b57600080fd5b810190808035906020019064010000000081111561058857600080fd5b82018360208201111561059a57600080fd5b803590602001918460208302840111640100000000831117156105bc57600080fd5b919080806020026020016040519081016040528093929190818152602001838360200280828437600081840152601f19601f820116905080830192505050505050509192919290505050905060005b81518110156106f35760016000808773ffffffffffffffffffffffffffffffffffffffff1673ffffffffffffffffffffffffffffffffffffffff168152602001908152602001600020600084848151811061066257fe5b6020026020010151815260200190815260200160002060006101000a81548160ff02191690831515021790555081818151811061069b57fe5b60200260200101518573ffffffffffffffffffffffffffffffffffffffff167f1a00471f7050c952312b148cb5d6f7bfab7e1f6909dcd0630a99e304dc8403fb60405160405180910390a3808060010191505061060b565b5050505050565b600090565b6000806006600981111561070f57fe5b85600981111561071b57fe5b141561077b5761076e84848080601f016020809104026020016040519081016040528093929190818152602001838380828437600081840152601f19601f82011690508083019250505050505050610d3b565b9091505080915050610852565b60006107ca85858080601f016020809104026020016040519081016040528093929190818152602001838380828437600081840152601f19601f82011690508083019250505050505050610e31565b9150508073ffffffffffffffffffffffffffffffffffffffff166312bc0a446040518163ffffffff1660e01b815260040160206040518083038186803b15801561081357600080fd5b505afa158015610827573d6000803e3d6000fd5b505050506040513d602081101561083d57600080fd5b81019080805190602001909291905050509150505b61085c8682610867565b915050949350505050565b60008060008473ffffffffffffffffffffffffffffffffffffffff1673ffffffffffffffffffffffffffffffffffffffff168152602001908152602001600020600083815260200190815260200160002060009054906101000a900460ff16905092915050565b60606040518060400160405280601f81526020017f414c4c4f5745445f45585445524e414c5f504f534954494f4e5f545950455300815250905090565b6060600267ffffffffffffffff8111801561092557600080fd5b506040519080825280602002602001820160405280156109545781602001602082028036833780820191505090505b50905060068160008151811061096657fe5b6020026020010190600981111561097957fe5b9081600981111561098657fe5b8152505060098160018151811061099957fe5b602002602001019060098111156109ac57fe5b908160098111156109b957fe5b8152505090565b7f000000000000000000000000000000000000000000000000000000000000000073ffffffffffffffffffffffffffffffffffffffff163373ffffffffffffffffffffffffffffffffffffffff1614610a64576040517f08c379a0000000000000000000000000000000000000000000000000000000008152600401808060200182810382526029815260200180610ea56029913960400191505060405180910390fd5b60608173ffffffffffffffffffffffffffffffffffffffff1663c98091876040518163ffffffff1660e01b815260040160206040518083038186803b158015610aac57600080fd5b505afa158015610ac0573d6000803e3d6000fd5b505050506040513d6020811015610ad657600080fd5b810190808051906020019092919050505073ffffffffffffffffffffffffffffffffffffffff1663b8b7f1476040518163ffffffff1660e01b815260040160006040518083038186803b158015610b2c57600080fd5b505afa158015610b40573d6000803e3d6000fd5b505050506040513d6000823e3d601f19601f820116820180604052506020811015610b6a57600080fd5b8101908080516040519392919084640100000000821115610b8a57600080fd5b83820191506020820185811115610ba057600080fd5b8251866020820283011164010000000082111715610bbd57600080fd5b8083526020830192505050908051906020019060200280838360005b83811015610bf4578082015181840152602081019050610bd9565b50505050905001604052505050905060005b8151811015610d0e57610cac83838381518110610c1f57fe5b602002602001015173ffffffffffffffffffffffffffffffffffffffff166312bc0a446040518163ffffffff1660e01b815260040160206040518083038186803b158015610c6c57600080fd5b505afa158015610c80573d6000803e3d6000fd5b505050506040513d6020811015610c9657600080fd5b8101908080519060200190929190505050610867565b610d01576040517f08c379a0000000000000000000000000000000000000000000000000000000008152600401808060200182810382526030815260200180610ece6030913960400191505060405180910390fd5b8080600101915050610c06565b505050565b60007f0000000000000000000000000000000000000000000000000000000000000000905090565b6000806060838060200190516060811015610d5557600080fd5b81019080805190602001909291908051906020019092919080516040519392919084640100000000821115610d8957600080fd5b83820191506020820185811115610d9f57600080fd5b8251866001820283011164010000000082111715610dbc57600080fd5b8083526020830192505050908051906020019080838360005b83811015610df0578082015181840152602081019050610dd5565b50505050905090810190601f168015610e1d5780820380516001836020036101000a031916815260200191505b506040525050509250925092509193909250565b600080828060200190516040811015610e4957600080fd5b8101908080519060200190929190805190602001909291905050509150915091509156fe75706461746546756e6453657474696e67733a2055706461746573206e6f7420616c6c6f77656420666f72207468697320706f6c6963794f6e6c792074686520506f6c6963794d616e616765722063616e206d616b6520746869732063616c6c6163746976617465466f7246756e643a20446973616c6c6f7765642045787465726e616c506f736974696f6e54797065a164736f6c634300060c000a","linkReferences":{}},"methodIdentifiers":{"activateForFund(address)":"ceb9a0ad","addFundSettings(address,bytes)":"0f5f6b4f","canDisable()":"1ef92578","externalPositionTypeIsAllowedForFund(address,uint256)":"73f8d40e","getPolicyManager()":"d44ad6cb","identifier()":"7998a1c4","implementedHooks()":"cbf54bb2","updateFundSettings(address,bytes)":"0d4d7510","validateRule(address,uint8,bytes)":"579be718"},"id":255}