{"abi":[{"type":"constructor","inputs":[{"name":"_staderStakePoolsManagerAddress","type":"address","internalType":"address"}],"stateMutability":"nonpayable"},{"type":"function","name":"STADER_STAKE_POOLS_MANAGER","inputs":[],"outputs":[{"name":"","type":"address","internalType":"contract IStaderStakePoolsManager"}],"stateMutability":"view"},{"type":"function","name":"decimals","inputs":[],"outputs":[{"name":"decimals_","type":"uint8","internalType":"uint8"}],"stateMutability":"pure"},{"type":"function","name":"latestRoundData","inputs":[],"outputs":[{"name":"roundId_","type":"uint80","internalType":"uint80"},{"name":"answer_","type":"int256","internalType":"int256"},{"name":"startedAt_","type":"uint256","internalType":"uint256"},{"name":"updatedAt_","type":"uint256","internalType":"uint256"},{"name":"answeredInRound_","type":"uint80","internalType":"uint80"}],"stateMutability":"view"}],"bytecode":{"object":"0x60a060405234801561001057600080fd5b506040516102f03803806102f083398101604081905261002f91610075565b6001600160a01b031660805261009e565b60006001600160a01b0382165b92915050565b61005c81610040565b811461006757600080fd5b50565b805161004d81610053565b60006020828403121561008a5761008a600080fd5b6000610096848461006a565b949350505050565b6080516102326100be600039600081816063015260b501526102326000f3fe608060405234801561001057600080fd5b50600436106100415760003560e01c8063313ce56714610046578063d16a7e2c1461005e578063feaf968c14610092575b600080fd5b6012604051610055919061014c565b60405180910390f35b6100857f000000000000000000000000000000000000000000000000000000000000000081565b6040516100559190610190565b61009a6100ab565b6040516100559594939291906101b6565b60008060008060007f00000000000000000000000000000000000000000000000000000000000000006001600160a01b031663e6aa216c6040518163ffffffff1660e01b8152600401602060405180830381865afa158015610111573d6000803e3d6000fd5b505050506040513d601f19601f820116820180604052508101906101359190610209565b93504291509091929394565b60ff81165b82525050565b6020810161015a8284610141565b92915050565b60006001600160a01b03821661015a565b600061015a82610160565b600061015a82610171565b6101468161017c565b6020810161015a8284610187565b69ffffffffffffffffffff8116610146565b80610146565b60a081016101c4828861019e565b6101d160208301876101b0565b6101de60408301866101b0565b6101eb60608301856101b0565b6101f8608083018461019e565b9695505050505050565b805161015a565b60006020828403121561021e5761021e600080fd5b600061022a8484610202565b94935050505056","linkReferences":{}},"methodIdentifiers":{"STADER_STAKE_POOLS_MANAGER()":"d16a7e2c","decimals()":"313ce567","latestRoundData()":"feaf968c"},"id":190}