{"abi":[{"type":"constructor","inputs":[{"name":"_wethToken","type":"address","internalType":"address"},{"name":"_relayHub","type":"address","internalType":"address"},{"name":"_trustedForwarder","type":"address","internalType":"address"},{"name":"_depositCooldown","type":"uint256","internalType":"uint256"},{"name":"_depositMaxTotal","type":"uint256","internalType":"uint256"},{"name":"_relayFeeMaxBase","type":"uint256","internalType":"uint256"},{"name":"_relayFeeMaxPercent","type":"uint256","internalType":"uint256"}],"stateMutability":"nonpayable"},{"type":"function","name":"addAdditionalRelayUsers","inputs":[{"name":"_usersToAdd","type":"address[]","internalType":"address[]"}],"outputs":[],"stateMutability":"nonpayable"},{"type":"function","name":"deposit","inputs":[],"outputs":[],"stateMutability":"nonpayable"},{"type":"function","name":"getGasAndDataLimits","inputs":[],"outputs":[{"name":"limits_","type":"tuple","internalType":"struct IGsnPaymaster.GasAndDataLimits","components":[{"name":"acceptanceBudget","type":"uint256","internalType":"uint256"},{"name":"preRelayedCallGasLimit","type":"uint256","internalType":"uint256"},{"name":"postRelayedCallGasLimit","type":"uint256","internalType":"uint256"},{"name":"calldataSizeLimit","type":"uint256","internalType":"uint256"}]}],"stateMutability":"view"},{"type":"function","name":"getHubAddr","inputs":[],"outputs":[{"name":"relayHub_","type":"address","internalType":"address"}],"stateMutability":"view"},{"type":"function","name":"getLastDepositTimestamp","inputs":[],"outputs":[{"name":"lastDepositTimestamp_","type":"uint256","internalType":"uint256"}],"stateMutability":"view"},{"type":"function","name":"getParentComptroller","inputs":[],"outputs":[{"name":"parentComptroller_","type":"address","internalType":"address"}],"stateMutability":"view"},{"type":"function","name":"getParentVault","inputs":[],"outputs":[{"name":"parentVault_","type":"address","internalType":"address"}],"stateMutability":"view"},{"type":"function","name":"getRelayHubDeposit","inputs":[],"outputs":[{"name":"depositBalance_","type":"uint256","internalType":"uint256"}],"stateMutability":"view"},{"type":"function","name":"getWethToken","inputs":[],"outputs":[{"name":"wethToken_","type":"address","internalType":"address"}],"stateMutability":"view"},{"type":"function","name":"init","inputs":[{"name":"_vault","type":"address","internalType":"address"}],"outputs":[],"stateMutability":"nonpayable"},{"type":"function","name":"isAdditionalRelayUser","inputs":[{"name":"_who","type":"address","internalType":"address"}],"outputs":[{"name":"isAdditionalRelayUser_","type":"bool","internalType":"bool"}],"stateMutability":"view"},{"type":"function","name":"postRelayedCall","inputs":[{"name":"_context","type":"bytes","internalType":"bytes"},{"name":"_success","type":"bool","internalType":"bool"},{"name":"","type":"uint256","internalType":"uint256"},{"name":"_relayData","type":"tuple","internalType":"struct IGsnTypes.RelayData","components":[{"name":"gasPrice","type":"uint256","internalType":"uint256"},{"name":"pctRelayFee","type":"uint256","internalType":"uint256"},{"name":"baseRelayFee","type":"uint256","internalType":"uint256"},{"name":"relayWorker","type":"address","internalType":"address"},{"name":"paymaster","type":"address","internalType":"address"},{"name":"forwarder","type":"address","internalType":"address"},{"name":"paymasterData","type":"bytes","internalType":"bytes"},{"name":"clientId","type":"uint256","internalType":"uint256"}]}],"outputs":[],"stateMutability":"nonpayable"},{"type":"function","name":"preRelayedCall","inputs":[{"name":"_relayRequest","type":"tuple","internalType":"struct IGsnTypes.RelayRequest","components":[{"name":"request","type":"tuple","internalType":"struct IGsnForwarder.ForwardRequest","components":[{"name":"from","type":"address","internalType":"address"},{"name":"to","type":"address","internalType":"address"},{"name":"value","type":"uint256","internalType":"uint256"},{"name":"gas","type":"uint256","internalType":"uint256"},{"name":"nonce","type":"uint256","internalType":"uint256"},{"name":"data","type":"bytes","internalType":"bytes"},{"name":"validUntil","type":"uint256","internalType":"uint256"}]},{"name":"relayData","type":"tuple","internalType":"struct IGsnTypes.RelayData","components":[{"name":"gasPrice","type":"uint256","internalType":"uint256"},{"name":"pctRelayFee","type":"uint256","internalType":"uint256"},{"name":"baseRelayFee","type":"uint256","internalType":"uint256"},{"name":"relayWorker","type":"address","internalType":"address"},{"name":"paymaster","type":"address","internalType":"address"},{"name":"forwarder","type":"address","internalType":"address"},{"name":"paymasterData","type":"bytes","internalType":"bytes"},{"name":"clientId","type":"uint256","internalType":"uint256"}]}]},{"name":"","type":"bytes","internalType":"bytes"},{"name":"","type":"bytes","internalType":"bytes"},{"name":"","type":"uint256","internalType":"uint256"}],"outputs":[{"name":"context_","type":"bytes","internalType":"bytes"},{"name":"rejectOnRecipientRevert_","type":"bool","internalType":"bool"}],"stateMutability":"nonpayable"},{"type":"function","name":"removeAdditionalRelayUsers","inputs":[{"name":"_usersToRemove","type":"address[]","internalType":"address[]"}],"outputs":[],"stateMutability":"nonpayable"},{"type":"function","name":"trustedForwarder","inputs":[],"outputs":[{"name":"trustedForwarder_","type":"address","internalType":"address"}],"stateMutability":"view"},{"type":"function","name":"versionPaymaster","inputs":[],"outputs":[{"name":"versionString_","type":"string","internalType":"string"}],"stateMutability":"view"},{"type":"function","name":"withdrawBalance","inputs":[],"outputs":[],"stateMutability":"nonpayable"},{"type":"event","name":"AdditionalRelayUserAdded","inputs":[{"name":"account","type":"address","indexed":true,"internalType":"address"}],"anonymous":false},{"type":"event","name":"AdditionalRelayUserRemoved","inputs":[{"name":"account","type":"address","indexed":true,"internalType":"address"}],"anonymous":false},{"type":"event","name":"Deposited","inputs":[{"name":"amount","type":"uint256","indexed":false,"internalType":"uint256"}],"anonymous":false},{"type":"event","name":"TransactionRelayed","inputs":[{"name":"authorizer","type":"address","indexed":true,"internalType":"address"},{"name":"invokedSelector","type":"bytes4","indexed":false,"internalType":"bytes4"},{"name":"successful","type":"bool","indexed":false,"internalType":"bool"}],"anonymous":false},{"type":"event","name":"Withdrawn","inputs":[{"name":"amount","type":"uint256","indexed":false,"internalType":"uint256"}],"anonymous":false}],"bytecode":{"object":"0x6101606040523480156200001257600080fd5b5060405162002b6a38038062002b6a83398181016040528101906200003891906200013b565b83608081815250508260a081815250508160c081815250508060e081815250508573ffffffffffffffffffffffffffffffffffffffff166101008173ffffffffffffffffffffffffffffffffffffffff1660601b815250508473ffffffffffffffffffffffffffffffffffffffff166101208173ffffffffffffffffffffffffffffffffffffffff1660601b815250508673ffffffffffffffffffffffffffffffffffffffff166101408173ffffffffffffffffffffffffffffffffffffffff1660601b81525050505050505050506200025a565b6000815190506200011e8162000226565b92915050565b600081519050620001358162000240565b92915050565b600080600080600080600060e0888a0312156200015757600080fd5b6000620001678a828b016200010d565b97505060206200017a8a828b016200010d565b96505060406200018d8a828b016200010d565b9550506060620001a08a828b0162000124565b9450506080620001b38a828b0162000124565b93505060a0620001c68a828b0162000124565b92505060c0620001d98a828b0162000124565b91505092959891949750929550565b6000620001f582620001fc565b9050919050565b600073ffffffffffffffffffffffffffffffffffffffff82169050919050565b6000819050919050565b6200023181620001e8565b81146200023d57600080fd5b50565b6200024b816200021c565b81146200025757600080fd5b50565b60805160a05160c05160e0516101005160601c6101205160601c6101405160601c6128a4620002c66000398061086752508061037d5280610e4b5280611381525080610aeb5250806104a252508061042c5250806115a952806115dc52508061156752506128a46000f3fe608060405234801561001057600080fd5b506004361061010a5760003560e01c80637abfbd47116100a2578063970d4c1611610071578063970d4c1614610282578063ad5cb1cf1461029e578063b039a88f146102bc578063d0e30db0146102da578063de866200146102e45761010a565b80637abfbd471461020c5780637da0a877146102285780638f4698d214610246578063921276ea146102645761010a565b80635fd8c710116100de5780635fd8c710146101985780636231179d146101a257806374e861d6146101d257806376fa01c3146101f05761010a565b8062be5dd41461010f57806319ab453c146101405780632afe31c11461015c5780634c252f911461017a575b600080fd5b61012960048036038101906101249190611b4d565b610302565b6040516101379291906123a3565b60405180910390f35b61015a60048036038101906101559190611990565b610713565b005b6101646107cc565b6040516101719190612610565b60405180910390f35b610182610863565b60405161018f919061231b565b60405180910390f35b6101a061088b565b005b6101bc60048036038101906101b79190611990565b610a91565b6040516101c9919061235f565b60405180910390f35b6101da610ae7565b6040516101e7919061231b565b60405180910390f35b61020a60048036038101906102059190611ab5565b610b0f565b005b61022660048036038101906102219190611a1e565b610c24565b005b610230610e47565b60405161023d919061231b565b60405180910390f35b61024e610e6f565b60405161025b9190612610565b60405180910390f35b61026c610e79565b60405161027991906123d3565b60405180910390f35b61029c60048036038101906102979190611a1e565b610e99565b005b6102a66110bb565b6040516102b3919061231b565b60405180910390f35b6102c46110eb565b6040516102d191906125f5565b60405180910390f35b6102e2611124565b005b6102ec6111a3565b6040516102f9919061231b565b60405180910390f35b6060600061030e610ae7565b73ffffffffffffffffffffffffffffffffffffffff163373ffffffffffffffffffffffffffffffffffffffff161461037b576040517f08c379a000000000000000000000000000000000000000000000000000000000815260040161037290612515565b60405180910390fd5b7f000000000000000000000000000000000000000000000000000000000000000073ffffffffffffffffffffffffffffffffffffffff168880602001906103c291906126cf565b60a00160208101906103d49190611990565b73ffffffffffffffffffffffffffffffffffffffff161461042a576040517f08c379a000000000000000000000000000000000000000000000000000000000815260040161042190612435565b60405180910390fd5b7f000000000000000000000000000000000000000000000000000000000000000088806020019061045b91906126cf565b6040013511156104a0576040517f08c379a000000000000000000000000000000000000000000000000000000000815260040161049790612575565b60405180910390fd5b7f00000000000000000000000000000000000000000000000000000000000000008880602001906104d191906126cf565b602001351115610516576040517f08c379a000000000000000000000000000000000000000000000000000000000815260040161050d906125b5565b60405180910390fd5b600088806000019061052891906126ab565b604001351461056c576040517f08c379a000000000000000000000000000000000000000000000000000000000815260040161056390612455565b60405180910390fd5b60006105766111a3565b90508073ffffffffffffffffffffffffffffffffffffffff1663368618898a80600001906105a491906126ab565b60000160208101906105b69190611990565b6040518263ffffffff1660e01b81526004016105d2919061231b565b60206040518083038186803b1580156105ea57600080fd5b505afa1580156105fe573d6000803e3d6000fd5b505050506040513d601f19601f820116820180604052508101906106229190611a8c565b80610653575061065289806000019061063b91906126ab565b600001602081019061064d9190611990565b610a91565b5b610692576040517f08c379a0000000000000000000000000000000000000000000000000000000008152600401610689906123f5565b60405180910390fd5b60006106bb8a80600001906106a791906126ab565b8060a001906106b69190612654565b6111cc565b90508980600001906106cd91906126ab565b60000160208101906106df9190611990565b816040516020016106f1929190612336565b6040516020818303038152906040526000935093505050965096945050505050565b600073ffffffffffffffffffffffffffffffffffffffff166107336111a3565b73ffffffffffffffffffffffffffffffffffffffff1614610789576040517f08c379a000000000000000000000000000000000000000000000000000000000815260040161078090612535565b60405180910390fd5b806000806101000a81548173ffffffffffffffffffffffffffffffffffffffff021916908373ffffffffffffffffffffffffffffffffffffffff16021790555050565b60006107d6610ae7565b73ffffffffffffffffffffffffffffffffffffffff166370a08231306040518263ffffffff1660e01b815260040161080e919061231b565b60206040518083038186803b15801561082657600080fd5b505afa15801561083a573d6000803e3d6000fd5b505050506040513d601f19601f8201168201806040525081019061085e9190611c00565b905090565b60007f0000000000000000000000000000000000000000000000000000000000000000905090565b60006108956111a3565b905060006108a161136d565b90508173ffffffffffffffffffffffffffffffffffffffff1663893d20e86040518163ffffffff1660e01b815260040160206040518083038186803b1580156108e957600080fd5b505afa1580156108fd573d6000803e3d6000fd5b505050506040513d601f19601f8201168201806040525081019061092191906119b9565b73ffffffffffffffffffffffffffffffffffffffff168173ffffffffffffffffffffffffffffffffffffffff16148061098d575061095e826113ea565b73ffffffffffffffffffffffffffffffffffffffff168173ffffffffffffffffffffffffffffffffffffffff16145b6109cc576040517f08c379a00000000000000000000000000000000000000000000000000000000081526004016109c3906124f5565b60405180910390fd5b6109d4610ae7565b73ffffffffffffffffffffffffffffffffffffffff1662f714ce6109f66107cc565b306040518363ffffffff1660e01b8152600401610a1492919061262b565b600060405180830381600087803b158015610a2e57600080fd5b505af1158015610a42573d6000803e3d6000fd5b505050506000479050610a558382611471565b7f430648de173157e069201c943adb2d4e340e7cf5b27b1b09c9cb852f03d63b5681604051610a849190612610565b60405180910390a1505050565b6000600260008373ffffffffffffffffffffffffffffffffffffffff1673ffffffffffffffffffffffffffffffffffffffff16815260200190815260200160002060009054906101000a900460ff169050919050565b60007f0000000000000000000000000000000000000000000000000000000000000000905090565b610b17610ae7565b73ffffffffffffffffffffffffffffffffffffffff163373ffffffffffffffffffffffffffffffffffffffff1614610b84576040517f08c379a0000000000000000000000000000000000000000000000000000000008152600401610b7b90612515565b60405180910390fd5b6000818060c00190610b969190612654565b810190610ba39190611a63565b90508015610bb457610bb3611565565b5b6000808787810190610bc691906119e2565b915091508173ffffffffffffffffffffffffffffffffffffffff167f0899cabaea081bac7a32055422e160973f6e38e6ecb8faee1f6aa46b1b76d9148288604051610c1292919061237a565b60405180910390a25050505050505050565b610c2c6111a3565b73ffffffffffffffffffffffffffffffffffffffff1663893d20e86040518163ffffffff1660e01b815260040160206040518083038186803b158015610c7157600080fd5b505afa158015610c85573d6000803e3d6000fd5b505050506040513d601f19601f82011682018060405250810190610ca991906119b9565b73ffffffffffffffffffffffffffffffffffffffff16610cc761136d565b73ffffffffffffffffffffffffffffffffffffffff1614610d1d576040517f08c379a0000000000000000000000000000000000000000000000000000000008152600401610d14906125d5565b60405180910390fd5b60005b82829050811015610e42576000838383818110610d3957fe5b9050602002016020810190610d4e9190611990565b9050610d5981610a91565b15610d99576040517f08c379a0000000000000000000000000000000000000000000000000000000008152600401610d9090612555565b60405180910390fd5b6001600260008373ffffffffffffffffffffffffffffffffffffffff1673ffffffffffffffffffffffffffffffffffffffff16815260200190815260200160002060006101000a81548160ff0219169083151502179055508073ffffffffffffffffffffffffffffffffffffffff167f1c72adb3c9c3b4bb9d4122a7ae7d398fa5d7dc73e3619a55899a9f9022e11fd660405160405180910390a2508080600101915050610d20565b505050565b60007f0000000000000000000000000000000000000000000000000000000000000000905090565b6000600154905090565b606060405180606001604052806023815260200161287560239139905090565b610ea16111a3565b73ffffffffffffffffffffffffffffffffffffffff1663893d20e86040518163ffffffff1660e01b815260040160206040518083038186803b158015610ee657600080fd5b505afa158015610efa573d6000803e3d6000fd5b505050506040513d601f19601f82011682018060405250810190610f1e91906119b9565b73ffffffffffffffffffffffffffffffffffffffff16610f3c61136d565b73ffffffffffffffffffffffffffffffffffffffff1614610f92576040517f08c379a0000000000000000000000000000000000000000000000000000000008152600401610f89906125d5565b60405180910390fd5b60005b828290508110156110b6576000838383818110610fae57fe5b9050602002016020810190610fc39190611990565b9050610fce81610a91565b61100d576040517f08c379a000000000000000000000000000000000000000000000000000000000815260040161100490612475565b60405180910390fd5b6000600260008373ffffffffffffffffffffffffffffffffffffffff1673ffffffffffffffffffffffffffffffffffffffff16815260200190815260200160002060006101000a81548160ff0219169083151502179055508073ffffffffffffffffffffffffffffffffffffffff167f478b42f734cf6f6a312ca94cf5fb82bfbdc49fd1507bb5fac53e0b390182cf6860405160405180910390a2508080600101915050610f95565b505050565b60006110e660008054906101000a900473ffffffffffffffffffffffffffffffffffffffff166113ea565b905090565b6110f36117f5565b6040518060800160405280620249f08152602001620186a081526020016201adb08152602001612904815250905090565b61112c6110bb565b73ffffffffffffffffffffffffffffffffffffffff163373ffffffffffffffffffffffffffffffffffffffff1614611199576040517f08c379a000000000000000000000000000000000000000000000000000000000815260040161119090612595565b60405180910390fd5b6111a1611565565b565b60008060009054906101000a900473ffffffffffffffffffffffffffffffffffffffff16905090565b60006004838390501015611215576040517f08c379a000000000000000000000000000000000000000000000000000000000815260040161120c90612415565b60405180910390fd5b60188383600381811061122457fe5b9050013560f81c60f81b7effffffffffffffffffffffffffffffffffffffffffffffffffffffffffffff19167bffffffffffffffffffffffffffffffffffffffffffffffffffffffff1916901c60108484600281811061128057fe5b9050013560f81c60f81b7effffffffffffffffffffffffffffffffffffffffffffffffffffffffffffff19167bffffffffffffffffffffffffffffffffffffffffffffffffffffffff1916901c6008858560018181106112dc57fe5b9050013560f81c60f81b7effffffffffffffffffffffffffffffffffffffffffffffffffffffffffffff19167bffffffffffffffffffffffffffffffffffffffffffffffffffffffff1916901c8585600081811061133657fe5b9050013560f81c60f81b7effffffffffffffffffffffffffffffffffffffffffffffffffffffffffffff1916171717905092915050565b600060146000369050101580156113cf57507f000000000000000000000000000000000000000000000000000000000000000073ffffffffffffffffffffffffffffffffffffffff163373ffffffffffffffffffffffffffffffffffffffff16145b156113e357601436033560601c90506113e7565b3390505b90565b60008173ffffffffffffffffffffffffffffffffffffffff16635a53e3486040518163ffffffff1660e01b815260040160206040518083038186803b15801561143257600080fd5b505afa158015611446573d6000803e3d6000fd5b505050506040513d601f19601f8201168201806040525081019061146a91906119b9565b9050919050565b804710156114b4576040517f08c379a00000000000000000000000000000000000000000000000000000000081526004016114ab906124d5565b60405180910390fd5b60008273ffffffffffffffffffffffffffffffffffffffff16826040516114da90612306565b60006040518083038185875af1925050503d8060008114611517576040519150601f19603f3d011682016040523d82523d6000602084013e61151c565b606091505b5050905080611560576040517f08c379a0000000000000000000000000000000000000000000000000000000008152600401611557906124b5565b60405180910390fd5b505050565b7f000000000000000000000000000000000000000000000000000000000000000061158e610e6f565b4203101561159b576117a3565b60006115a56107cc565b90507f000000000000000000000000000000000000000000000000000000000000000081106115d457506117a3565b6000611609827f00000000000000000000000000000000000000000000000000000000000000006117a590919063ffffffff16565b90506116136110bb565b73ffffffffffffffffffffffffffffffffffffffff166379951f0f826040518263ffffffff1660e01b815260040161164b9190612610565b600060405180830381600087803b15801561166557600080fd5b505af1158015611679573d6000803e3d6000fd5b50505050611685610863565b73ffffffffffffffffffffffffffffffffffffffff16632e1a7d4d826040518263ffffffff1660e01b81526004016116bd9190612610565b600060405180830381600087803b1580156116d757600080fd5b505af11580156116eb573d6000803e3d6000fd5b505050506116f7610ae7565b73ffffffffffffffffffffffffffffffffffffffff1663aa67c91982306040518363ffffffff1660e01b8152600401611730919061231b565b6000604051808303818588803b15801561174957600080fd5b505af115801561175d573d6000803e3d6000fd5b5050505050426001819055507f2a89b2e3d580398d6dc2db5e0f336b52602bbaa51afa9bb5cdf59239cf0d2bea816040516117989190612610565b60405180910390a150505b565b6000828211156117ea576040517f08c379a00000000000000000000000000000000000000000000000000000000081526004016117e190612495565b60405180910390fd5b818303905092915050565b6040518060800160405280600081526020016000815260200160008152602001600081525090565b60008135905061182c81612801565b92915050565b60008151905061184181612801565b92915050565b60008135905061185681612818565b92915050565b60008083601f84011261186e57600080fd5b8235905067ffffffffffffffff81111561188757600080fd5b60208301915083602082028301111561189f57600080fd5b9250929050565b6000813590506118b58161282f565b92915050565b6000815190506118ca8161282f565b92915050565b6000813590506118df81612846565b92915050565b60008083601f8401126118f757600080fd5b8235905067ffffffffffffffff81111561191057600080fd5b60208301915083600182028301111561192857600080fd5b9250929050565b6000610100828403121561194257600080fd5b81905092915050565b60006040828403121561195d57600080fd5b81905092915050565b6000813590506119758161285d565b92915050565b60008151905061198a8161285d565b92915050565b6000602082840312156119a257600080fd5b60006119b08482850161181d565b91505092915050565b6000602082840312156119cb57600080fd5b60006119d984828501611832565b91505092915050565b600080604083850312156119f557600080fd5b6000611a0385828601611847565b9250506020611a14858286016118d0565b9150509250929050565b60008060208385031215611a3157600080fd5b600083013567ffffffffffffffff811115611a4b57600080fd5b611a578582860161185c565b92509250509250929050565b600060208284031215611a7557600080fd5b6000611a83848285016118a6565b91505092915050565b600060208284031215611a9e57600080fd5b6000611aac848285016118bb565b91505092915050565b600080600080600060808688031215611acd57600080fd5b600086013567ffffffffffffffff811115611ae757600080fd5b611af3888289016118e5565b95509550506020611b06888289016118a6565b9350506040611b1788828901611966565b925050606086013567ffffffffffffffff811115611b3457600080fd5b611b408882890161192f565b9150509295509295909350565b60008060008060008060808789031215611b6657600080fd5b600087013567ffffffffffffffff811115611b8057600080fd5b611b8c89828a0161194b565b965050602087013567ffffffffffffffff811115611ba957600080fd5b611bb589828a016118e5565b9550955050604087013567ffffffffffffffff811115611bd457600080fd5b611be089828a016118e5565b93509350506060611bf389828a01611966565b9150509295509295509295565b600060208284031215611c1257600080fd5b6000611c208482850161197b565b91505092915050565b611c3281612749565b82525050565b611c4181612737565b82525050565b611c508161275b565b82525050565b611c5f81612767565b82525050565b6000611c70826126f4565b611c7a818561270a565b9350611c8a8185602086016127bd565b611c93816127f0565b840191505092915050565b6000611ca9826126ff565b611cb38185612726565b9350611cc38185602086016127bd565b611ccc816127f0565b840191505092915050565b6000611ce4602383612726565b91507f70726552656c6179656443616c6c3a20556e617574686f72697a65642063616c60008301527f6c657200000000000000000000000000000000000000000000000000000000006020830152604082019050919050565b6000611d4a603c83612726565b91507f5f5f706172736554784461746146756e6374696f6e53656c6563746f723a205f60008301527f747844617461206973206e6f7420612076616c6964206c656e677468000000006020830152604082019050919050565b6000611db0602683612726565b91507f70726552656c6179656443616c6c3a20556e617574686f72697a656420666f7260008301527f77617264657200000000000000000000000000000000000000000000000000006020830152604082019050919050565b6000611e16601e83612726565b91507f70726552656c6179656443616c6c3a204e6f6e2d7a65726f2076616c756500006000830152602082019050919050565b6000611e56602f83612726565b91507f72656d6f76654164646974696f6e616c52656c617955736572733a205573657260008301527f206e6f74207265676973746572656400000000000000000000000000000000006020830152604082019050919050565b6000611ebc601e83612726565b91507f536166654d6174683a207375627472616374696f6e206f766572666c6f7700006000830152602082019050919050565b6000611efc603a83612726565b91507f416464726573733a20756e61626c6520746f2073656e642076616c75652c207260008301527f6563697069656e74206d617920686176652072657665727465640000000000006020830152604082019050919050565b6000611f62601d83612726565b91507f416464726573733a20696e73756666696369656e742062616c616e63650000006000830152602082019050919050565b6000611fa2603883612726565b91507f776974686472617742616c616e63653a204f6e6c79206f776e6572206f72206360008301527f6f6d7074726f6c6c657220697320617574686f72697a656400000000000000006020830152604082019050919050565b6000612008601e83612726565b91507f43616e206f6e6c792062652063616c6c65642062792052656c617948756200006000830152602082019050919050565b6000612048602383612726565b91507f696e69743a205061796d617374657220616c726561647920696e697469616c6960008301527f7a656400000000000000000000000000000000000000000000000000000000006020830152604082019050919050565b60006120ae602883612726565b91507f6164644164646974696f6e616c52656c617955736572733a205573657220726560008301527f67697374657265640000000000000000000000000000000000000000000000006020830152604082019050919050565b6000612114602183612726565b91507f70726552656c6179656443616c6c3a2048696768206261736552656c6179466560008301527f65000000000000000000000000000000000000000000000000000000000000006020830152604082019050919050565b600061217a602c83612726565b91507f43616e206f6e6c792062652063616c6c65642062792074686520706172656e7460008301527f20636f6d7074726f6c6c657200000000000000000000000000000000000000006020830152604082019050919050565b60006121e0602083612726565b91507f70726552656c6179656443616c6c3a20486967682070637452656c61794665656000830152602082019050919050565b600061222060008361271b565b9150600082019050919050565b600061223a602a83612726565b91507f4f6e6c79207468652066756e64206f776e65722063616e2063616c6c2074686960008301527f732066756e6374696f6e000000000000000000000000000000000000000000006020830152604082019050919050565b6080820160008201516122a960008501826122e8565b5060208201516122bc60208501826122e8565b5060408201516122cf60408501826122e8565b5060608201516122e260608501826122e8565b50505050565b6122f1816127b3565b82525050565b612300816127b3565b82525050565b600061231182612213565b9150819050919050565b60006020820190506123306000830184611c38565b92915050565b600060408201905061234b6000830185611c38565b6123586020830184611c56565b9392505050565b60006020820190506123746000830184611c47565b92915050565b600060408201905061238f6000830185611c56565b61239c6020830184611c47565b9392505050565b600060408201905081810360008301526123bd8185611c65565b90506123cc6020830184611c47565b9392505050565b600060208201905081810360008301526123ed8184611c9e565b905092915050565b6000602082019050818103600083015261240e81611cd7565b9050919050565b6000602082019050818103600083015261242e81611d3d565b9050919050565b6000602082019050818103600083015261244e81611da3565b9050919050565b6000602082019050818103600083015261246e81611e09565b9050919050565b6000602082019050818103600083015261248e81611e49565b9050919050565b600060208201905081810360008301526124ae81611eaf565b9050919050565b600060208201905081810360008301526124ce81611eef565b9050919050565b600060208201905081810360008301526124ee81611f55565b9050919050565b6000602082019050818103600083015261250e81611f95565b9050919050565b6000602082019050818103600083015261252e81611ffb565b9050919050565b6000602082019050818103600083015261254e8161203b565b9050919050565b6000602082019050818103600083015261256e816120a1565b9050919050565b6000602082019050818103600083015261258e81612107565b9050919050565b600060208201905081810360008301526125ae8161216d565b9050919050565b600060208201905081810360008301526125ce816121d3565b9050919050565b600060208201905081810360008301526125ee8161222d565b9050919050565b600060808201905061260a6000830184612293565b92915050565b600060208201905061262560008301846122f7565b92915050565b600060408201905061264060008301856122f7565b61264d6020830184611c29565b9392505050565b6000808335600160200384360303811261266d57600080fd5b80840192508235915067ffffffffffffffff82111561268b57600080fd5b6020830192506001820236038313156126a357600080fd5b509250929050565b60008235600160e0038336030381126126c357600080fd5b80830191505092915050565b600082356001610100038336030381126126e857600080fd5b80830191505092915050565b600081519050919050565b600081519050919050565b600082825260208201905092915050565b600081905092915050565b600082825260208201905092915050565b600061274282612793565b9050919050565b600061275482612793565b9050919050565b60008115159050919050565b60007fffffffff0000000000000000000000000000000000000000000000000000000082169050919050565b600073ffffffffffffffffffffffffffffffffffffffff82169050919050565b6000819050919050565b60005b838110156127db5780820151818401526020810190506127c0565b838111156127ea576000848401525b50505050565b6000601f19601f8301169050919050565b61280a81612737565b811461281557600080fd5b50565b61282181612749565b811461282c57600080fd5b50565b6128388161275b565b811461284357600080fd5b50565b61284f81612767565b811461285a57600080fd5b50565b612866816127b3565b811461287157600080fd5b5056fe322e322e332b6f70656e67736e2e656e7a796d6566756e642e697061796d6173746572a164736f6c634300060c000a","linkReferences":{}},"methodIdentifiers":{"addAdditionalRelayUsers(address[])":"7abfbd47","deposit()":"d0e30db0","getGasAndDataLimits()":"b039a88f","getHubAddr()":"74e861d6","getLastDepositTimestamp()":"8f4698d2","getParentComptroller()":"ad5cb1cf","getParentVault()":"de866200","getRelayHubDeposit()":"2afe31c1","getWethToken()":"4c252f91","init(address)":"19ab453c","isAdditionalRelayUser(address)":"6231179d","postRelayedCall(bytes,bool,uint256,(uint256,uint256,uint256,address,address,address,bytes,uint256))":"76fa01c3","preRelayedCall(((address,address,uint256,uint256,uint256,bytes,uint256),(uint256,uint256,uint256,address,address,address,bytes,uint256)),bytes,bytes,uint256)":"00be5dd4","removeAdditionalRelayUsers(address[])":"970d4c16","trustedForwarder()":"7da0a877","versionPaymaster()":"921276ea","withdrawBalance()":"5fd8c710"},"id":273}