{"abi":[{"type":"constructor","inputs":[{"name":"_addressListRegistry","type":"address","internalType":"address"},{"name":"_globalConfigProxy","type":"address","internalType":"address"},{"name":"_gsnTrustedForwardersAddressListId","type":"uint256","internalType":"uint256"}],"stateMutability":"nonpayable"},{"type":"function","name":"ADDRESS_LIST_REGISTRY","inputs":[],"outputs":[{"name":"","type":"address","internalType":"contract IAddressListRegistry"}],"stateMutability":"view"},{"type":"function","name":"GLOBAL_CONFIG","inputs":[],"outputs":[{"name":"","type":"address","internalType":"contract IGlobalConfig2"}],"stateMutability":"view"},{"type":"function","name":"addManagers","inputs":[{"name":"_managers","type":"address[]","internalType":"address[]"}],"outputs":[],"stateMutability":"nonpayable"},{"type":"function","name":"cancelRequest","inputs":[{"name":"_id","type":"uint88","internalType":"uint88"}],"outputs":[],"stateMutability":"nonpayable"},{"type":"function","name":"depositFromQueue","inputs":[{"name":"_endId","type":"uint88","internalType":"uint88"},{"name":"_idsToBypass","type":"uint256[]","internalType":"uint256[]"}],"outputs":[],"stateMutability":"nonpayable"},{"type":"function","name":"getDepositAsset","inputs":[],"outputs":[{"name":"asset_","type":"address","internalType":"contract IERC20"}],"stateMutability":"view"},{"type":"function","name":"getDepositorAllowlistId","inputs":[],"outputs":[{"name":"depositorAllowlistId_","type":"uint256","internalType":"uint256"}],"stateMutability":"view"},{"type":"function","name":"getMinDepositAssetAmount","inputs":[],"outputs":[{"name":"minDepositAssetAmount_","type":"uint256","internalType":"uint256"}],"stateMutability":"view"},{"type":"function","name":"getMinRequestTime","inputs":[],"outputs":[{"name":"minRequestTime_","type":"uint64","internalType":"uint64"}],"stateMutability":"view"},{"type":"function","name":"getNextNewId","inputs":[],"outputs":[{"name":"id_","type":"uint88","internalType":"uint88"}],"stateMutability":"view"},{"type":"function","name":"getNextQueuedId","inputs":[],"outputs":[{"name":"id_","type":"uint88","internalType":"uint88"}],"stateMutability":"view"},{"type":"function","name":"getRequest","inputs":[{"name":"_id","type":"uint256","internalType":"uint256"}],"outputs":[{"name":"request_","type":"tuple","internalType":"struct ISingleAssetDepositQueue.Request","components":[{"name":"user","type":"address","internalType":"address"},{"name":"canCancelTime","type":"uint96","internalType":"uint96"},{"name":"depositAssetAmount","type":"uint256","internalType":"uint256"}]}],"stateMutability":"view"},{"type":"function","name":"getVaultProxy","inputs":[],"outputs":[{"name":"vaultProxy_","type":"address","internalType":"address"}],"stateMutability":"view"},{"type":"function","name":"init","inputs":[{"name":"_vaultProxy","type":"address","internalType":"address"},{"name":"_depositAsset","type":"address","internalType":"contract IERC20"},{"name":"_managers","type":"address[]","internalType":"address[]"},{"name":"_minDepositAssetAmount","type":"uint128","internalType":"uint128"},{"name":"_minRequestTime","type":"uint64","internalType":"uint64"},{"name":"_depositorAllowlistId","type":"uint64","internalType":"uint64"}],"outputs":[],"stateMutability":"nonpayable"},{"type":"function","name":"isManager","inputs":[{"name":"_user","type":"address","internalType":"address"}],"outputs":[{"name":"isManager_","type":"bool","internalType":"bool"}],"stateMutability":"view"},{"type":"function","name":"queueIsShutdown","inputs":[],"outputs":[{"name":"isShutdown_","type":"bool","internalType":"bool"}],"stateMutability":"view"},{"type":"function","name":"removeManagers","inputs":[{"name":"_managers","type":"address[]","internalType":"address[]"}],"outputs":[],"stateMutability":"nonpayable"},{"type":"function","name":"requestDeposit","inputs":[{"name":"_depositAssetAmount","type":"uint128","internalType":"uint128"}],"outputs":[{"name":"id_","type":"uint88","internalType":"uint88"}],"stateMutability":"nonpayable"},{"type":"function","name":"setDepositorAllowlistId","inputs":[{"name":"_depositorAllowlistId","type":"uint64","internalType":"uint64"}],"outputs":[],"stateMutability":"nonpayable"},{"type":"function","name":"setMinDepositAssetAmount","inputs":[{"name":"_minDepositAssetAmount","type":"uint128","internalType":"uint128"}],"outputs":[],"stateMutability":"nonpayable"},{"type":"function","name":"setMinRequestTime","inputs":[{"name":"_minRequestTime","type":"uint64","internalType":"uint64"}],"outputs":[],"stateMutability":"nonpayable"},{"type":"function","name":"shutdown","inputs":[],"outputs":[],"stateMutability":"nonpayable"},{"type":"event","name":"DepositRequestAdded","inputs":[{"name":"id","type":"uint88","indexed":false,"internalType":"uint88"},{"name":"user","type":"address","indexed":false,"internalType":"address"},{"name":"depositAssetAmount","type":"uint128","indexed":false,"internalType":"uint128"},{"name":"canCancelTime","type":"uint96","indexed":false,"internalType":"uint96"}],"anonymous":false},{"type":"event","name":"Deposited","inputs":[{"name":"id","type":"uint256","indexed":false,"internalType":"uint256"},{"name":"sharesAmountReceived","type":"uint256","indexed":false,"internalType":"uint256"}],"anonymous":false},{"type":"event","name":"DepositorAllowlistIdSet","inputs":[{"name":"depositorAllowlistId","type":"uint64","indexed":false,"internalType":"uint64"}],"anonymous":false},{"type":"event","name":"Initialized","inputs":[{"name":"vaultProxy","type":"address","indexed":false,"internalType":"address"},{"name":"depositAsset","type":"address","indexed":false,"internalType":"contract IERC20"}],"anonymous":false},{"type":"event","name":"ManagerAdded","inputs":[{"name":"user","type":"address","indexed":false,"internalType":"address"}],"anonymous":false},{"type":"event","name":"ManagerRemoved","inputs":[{"name":"user","type":"address","indexed":false,"internalType":"address"}],"anonymous":false},{"type":"event","name":"MinDepositAssetAmountSet","inputs":[{"name":"minDepositAssetAmount","type":"uint128","indexed":false,"internalType":"uint128"}],"anonymous":false},{"type":"event","name":"MinRequestTimeSet","inputs":[{"name":"minRequestTime","type":"uint64","indexed":false,"internalType":"uint64"}],"anonymous":false},{"type":"event","name":"RequestBypassed","inputs":[{"name":"id","type":"uint88","indexed":false,"internalType":"uint88"}],"anonymous":false},{"type":"event","name":"RequestCanceled","inputs":[{"name":"id","type":"uint88","indexed":false,"internalType":"uint88"}],"anonymous":false},{"type":"event","name":"Shutdown","inputs":[],"anonymous":false},{"type":"error","name":"SingleAssetDepositQueue__AddManager__AlreadyManager","inputs":[]},{"type":"error","name":"SingleAssetDepositQueue__CancelRequest__MinRequestTimeNotElapsed","inputs":[]},{"type":"error","name":"SingleAssetDepositQueue__CancelRequest__Unauthorized","inputs":[]},{"type":"error","name":"SingleAssetDepositQueue__DepositFromQueue__OutOfRange","inputs":[]},{"type":"error","name":"SingleAssetDepositQueue__Init__AlreadyInitialized","inputs":[]},{"type":"error","name":"SingleAssetDepositQueue__Init__UndefinedVaultProxy","inputs":[]},{"type":"error","name":"SingleAssetDepositQueue__NotShutdown__Shutdown","inputs":[]},{"type":"error","name":"SingleAssetDepositQueue__OnlyManagerOrOwner__Unauthorized","inputs":[]},{"type":"error","name":"SingleAssetDepositQueue__OnlyOwner__Unauthorized","inputs":[]},{"type":"error","name":"SingleAssetDepositQueue__RemoveManager__NotManager","inputs":[]},{"type":"error","name":"SingleAssetDepositQueue__RequestDeposit__DepositAmountEqualsToZero","inputs":[]},{"type":"error","name":"SingleAssetDepositQueue__RequestDeposit__DepositorIsNotAllowlisted","inputs":[]},{"type":"error","name":"SingleAssetDepositQueue__RequestDeposit__TooLowDepositAmount","inputs":[]}],"bytecode":{"object":"0x6101006040523480156200001257600080fd5b5060405162002365380380620023658339810160408190526200003591620000a6565b6001600160a01b03928316608081905260a09190915260e0521660c052620000fe565b60006001600160a01b0382165b92915050565b620000768162000058565b81146200008257600080fd5b50565b805162000065816200006b565b8062000076565b8051620000658162000092565b600080600060608486031215620000c057620000c0600080fd5b6000620000ce868662000085565b9350506020620000e18682870162000085565b9250506040620000f48682870162000099565b9150509250925092565b60805160a05160c05160e05161221f62000146600039600081816101b10152610b7c01526000818161027401526106fa0152600061153101526000611504015261221f6000f3fe608060405234801561001057600080fd5b50600436106101425760003560e01c8063ac194422116100b8578063cdad981b1161007c578063cdad981b146102e7578063d7daf8a0146102fa578063f3ae24151461030d578063f54a34a214610346578063fc0e74d114610366578063fd56ff271461036e57600080fd5b8063ac19442214610257578063afc172b91461026f578063c4b038a114610296578063c58343ef146102a7578063c9809187146102c757600080fd5b80633c18e9d51161010a5780633c18e9d5146101e05780636005062f146101f357806364bd3eb7146102065780638300aaac146102195780638c5f9e741461022c578063a1bc646b1461023f57600080fd5b8063095b2ac5146101475780630b8880101461015c57806310f3ee291461017f5780631671ee5d1461019257806329bcea29146101ac575b600080fd5b61015a6101553660046118f1565b610380565b005b6000546001600160581b03165b604051610176919061195d565b60405180910390f35b61015a61018d36600461196b565b61099f565b6002546001600160401b03165b60405161017691906119b8565b6101d37f000000000000000000000000000000000000000000000000000000000000000081565b60405161017691906119f6565b6101696101ee366004611a1e565b610ab1565b61015a610201366004611a1e565b610d6b565b61015a610214366004611a59565b610d9f565b61015a610227366004611a59565b610dd0565b61015a61023a36600461196b565b610e01565b600254600160401b90046001600160801b031661019f565b600154600160a81b90046001600160581b0316610169565b6101d37f000000000000000000000000000000000000000000000000000000000000000081565b6001546001600160a01b03166101d3565b6102ba6102b5366004611a8b565b610e37565b6040516101769190611afb565b600054600160581b90046001600160a01b03166040516101769190611b09565b61015a6102f5366004611b17565b610e97565b61015a610308366004611b60565b610fcf565b61033961031b366004611c0a565b6001600160a01b031660009081526003602052604090205460ff1690565b6040516101769190611c33565b600254600160c01b90046001600160401b03166040516101769190611c50565b61015a6110e6565b600154600160a01b900460ff16610339565b600154600160a01b900460ff16156103ab57604051638f7718f960e01b815260040160405180910390fd5b60006103b5611177565b905060006103db826001600160a01b031660009081526003602052604090205460ff1690565b806103ea57506103ea826111a5565b90508061040a57604051631530083960e01b815260040160405180910390fd5b600154600160a81b90046001600160581b03166001600160581b0316856001600160581b03161061044e5760405163fd6810f760e01b815260040160405180910390fd5b6000546001600160581b0316610465866001611c74565b600080546affffffffffffffffffffff19166001600160581b0392909216919091178155806104948389611c97565b61049f906001611c74565b6001600160581b031690506000816001600160401b038111156104c4576104c4611cba565b6040519080825280602002602001820160405280156104ed578160200160208202803683370190505b5090506000826001600160401b0381111561050a5761050a611cba565b604051908082528060200260200182016040528015610533578160200160208202803683370190505b509050845b8a6001600160581b0316816001600160581b0316116106c957600061055d8783611c97565b90506000610573836001600160581b0316610e37565b905080604001516000036105885750506106b7565b6105d1836001600160581b03168d8d8080602002602001604051908101604052809392919081815260200183836020028082843760009201919091525092939250506112359050565b15610614577fd7fdbb24486ab73e8e3b7c548b4a43721e559003f39011b4154f06385a67a6c783604051610605919061195d565b60405180910390a150506106b7565b806000015185836001600160581b03168151811061063457610634611cd0565b60200260200101906001600160a01b031690816001600160a01b031681525050806040015184836001600160581b03168151811061067457610674611cd0565b6020908102919091010152604081015161068e9088611ce6565b96506106b4836001600160581b0316600090815260046020526040812081815560010155565b50505b806106c181611cf9565b915050610538565b5060008054600154604051637f18043360e01b8152600160581b9092046001600160a01b03908116939181169282917f00000000000000000000000000000000000000000000000000000000000000001690637f1804339061073390879087908d90600401611d26565b600060405180830381865afa158015610750573d6000803e3d6000fd5b505050506040513d6000823e601f3d908101601f191682016040526107789190810190611e54565b604051636eb1769f60e11b815291935091506001600160a01b0384169063dd62ed3e906107ab9030908690600401611eab565b602060405180830381865afa1580156107c8573d6000803e3d6000fd5b505050506040513d601f19601f820116820180604052508101906107ec9190611ed1565b600003610809576108096001600160a01b0384168360001961128a565b61081c6001600160a01b03831682611295565b50506040516370a0823160e01b8152600091506001600160a01b038416906370a082319061084e903090600401611b09565b602060405180830381865afa15801561086b573d6000803e3d6000fd5b505050506040513d601f19601f8201168201806040525081019061088f9190611ed1565b90506001600160581b0388165b8d6001600160581b0316811161098f5760006108c16001600160581b038b1683611ef2565b905060008682815181106108d7576108d7611cd0565b60200260200101519050806000036108f057505061097d565b60008a6108fd8387611f05565b6109079190611f3a565b905061094089848151811061091e5761091e611cd0565b602002602001015182896001600160a01b03166112e09092919063ffffffff16565b7f06da3309189fa49284f335d2c2bcb4cb0b8ad2a59ad92a9bdebeeb8f1ceba5118482604051610971929190611f4e565b60405180910390a15050505b8061098781611f69565b91505061089c565b5050505050505050505050505050565b6109af6109aa611177565b6111a5565b6109cc57604051630ff7eec160e31b815260040160405180910390fd5b60005b81811015610aac5760008383838181106109eb576109eb611cd0565b9050602002016020810190610a009190611c0a565b9050610a24816001600160a01b031660009081526003602052604090205460ff1690565b610a4157604051635624385360e01b815260040160405180910390fd5b6001600160a01b03811660009081526003602052604090819020805460ff19169055517fef69f7d97228658c92417be1b16b19058315de71fecb435d07b7d23728b6bd3190610a91908390611b09565b60405180910390a15080610aa481611f69565b9150506109cf565b505050565b600154600090600160a01b900460ff1615610adf57604051638f7718f960e01b815260040160405180910390fd5b816001600160801b0316600003610b085760405162cff23560e31b815260040160405180910390fd5b600254600160401b90046001600160801b0316826001600160801b03161015610b445760405163983a0f1b60e01b815260040160405180910390fd5b336000610b596002546001600160401b031690565b90508015801590610bf657506040516307158c8160e21b81526001600160a01b037f00000000000000000000000000000000000000000000000000000000000000001690631c56320490610bb39084908690600401611f7c565b602060405180830381865afa158015610bd0573d6000803e3d6000fd5b505050506040513d601f19601f82011682018060405250810190610bf49190611f9d565b155b15610c1457604051630650155560e01b815260040160405180910390fd5b60018054600160a81b90046001600160581b0316906015610c3483611cf9565b91906101000a8154816001600160581b0302191690836001600160581b0316021790555092506000610c766002546001600160401b03600160c01b9091041690565b610c89906001600160401b031642611ce6565b604080516060810182526001600160a01b0380871682526001600160601b0380851660208085019182526001600160801b038c168587018181526001600160581b038d16600090815260049093529690912094519151909216600160a01b0292169190911782559151600190910155909150610d269084903090610d156001546001600160a01b031690565b6001600160a01b03169291906112eb565b7f4abe2c995208f3a874f8a4b03412b1d8d4d6db0e1f54db661142fda73d7456a284848784604051610d5b9493929190611fcd565b60405180910390a1505050919050565b610d766109aa611177565b610d9357604051630ff7eec160e31b815260040160405180910390fd5b610d9c816112fd565b50565b610daa6109aa611177565b610dc757604051630ff7eec160e31b815260040160405180910390fd5b610d9c8161136a565b610ddb6109aa611177565b610df857604051630ff7eec160e31b815260040160405180910390fd5b610d9c816113b6565b610e0c6109aa611177565b610e2957604051630ff7eec160e31b815260040160405180910390fd5b610e338282611406565b5050565b60408051606080820183526000808352602080840182905292840181905293845260048252928290208251938401835280546001600160a01b0381168552600160a01b90046001600160601b031691840191909152600101549082015290565b6000610eab826001600160581b0316610e37565b80519091506001600160a01b03163314610ed857604051631912e3a160e11b815260040160405180910390fd5b80602001516001600160601b031642101580610efd5750600154600160a01b900460ff165b80610f2457506000546001600160581b03166001600160581b0316826001600160581b0316105b610f4157604051632171027b60e21b815260040160405180910390fd5b610f65826001600160581b0316600090815260046020526040812081815560010155565b610f9481600001518260400151610f846001546001600160a01b031690565b6001600160a01b031691906112e0565b7f334d6712134aa7394a0d15e698a3a6ee141c66fc2384f47d9e44783e17720d6982604051610fc3919061195d565b60405180910390a15050565b600054600160581b90046001600160a01b0316156110005760405163cdf311f160e01b815260040160405180910390fd5b6001600160a01b0387166110275760405163b373fcab60e01b815260040160405180910390fd5b600080547fff0000000000000000000000000000000000000000ffffffffffffffffffffff16600160581b6001600160a01b038a81169190910291909117909155600180546001600160a01b0319169188169190911790556110898585611406565b611092836112fd565b61109b826113b6565b6110a48161136a565b7f3cd5ec01b1ae7cfec6ca1863e2cd6aa25d6d1702825803ff2b7cc95010fffdc287876040516110d592919061200b565b60405180910390a150505050505050565b600154600160a01b900460ff161561111157604051638f7718f960e01b815260040160405180910390fd5b61111c6109aa611177565b61113957604051630ff7eec160e31b815260040160405180910390fd5b6001805460ff60a01b1916600160a01b1790556040517f4426aa1fb73e391071491fcfe21a88b5c38a0a0333a1f6e77161470439704cf890600090a1565b60006014361080159061118e575061118e336114ea565b156111a0575060131936013560601c90565b503390565b60008054600160581b90046001600160a01b03166001600160a01b031663893d20e86040518163ffffffff1660e01b8152600401602060405180830381865afa1580156111f6573d6000803e3d6000fd5b505050506040513d601f19601f8201168201806040525081019061121a9190612026565b6001600160a01b0316826001600160a01b0316149050919050565b6000805b835181101561127e5783818151811061125457611254611cd0565b6020026020010151830361126c576001915050611284565b8061127681611f69565b915050611239565b50600090505b92915050565b610aac83838361159c565b60606112d9838360006040518060400160405280601e81526020017f416464726573733a206c6f772d6c6576656c2063616c6c206661696c65640000815250611690565b9392505050565b610aac83838361172e565b6112f78484848461174d565b50505050565b6002805477ffffffffffffffffffffffffffffffff00000000000000001916600160401b6001600160801b038416021790556040517f3bb800fd93398253e69548c2782784daaa25561d61a432c27854699215f8a84f9061135f908390612047565b60405180910390a150565b6002805467ffffffffffffffff19166001600160401b0383161790556040517f711dbdae2601efa4493dc1121f9759cb4b1c00bd7caff0002481ebd0944cb1a99061135f908390611c50565b600280546001600160c01b0316600160c01b6001600160401b038416021790556040517f8a7597e8d5f6309174f29e93b8d949e6f77d8ae391223e62c0928aabb7e289819061135f908390611c50565b60005b81811015610aac57600083838381811061142557611425611cd0565b905060200201602081019061143a9190611c0a565b905061145e816001600160a01b031660009081526003602052604090205460ff1690565b1561147c5760405163c2b31db360e01b815260040160405180910390fd5b6001600160a01b03811660009081526003602052604090819020805460ff19166001179055517f3b4a40cccf2058c593542587329dd385be4f0b588db5471fbd9598e56dd7093a906114cf908390611b09565b60405180910390a150806114e281611f69565b915050611409565b6040516307158c8160e21b81526000906001600160a01b037f00000000000000000000000000000000000000000000000000000000000000001690631c5632049061155b907f0000000000000000000000000000000000000000000000000000000000000000908690600401611f7c565b602060405180830381865afa158015611578573d6000803e3d6000fd5b505050506040513d601f19601f820116820180604052508101906112849190611f9d565b8015806116155750604051636eb1769f60e11b81526001600160a01b0384169063dd62ed3e906115d29030908690600401611eab565b602060405180830381865afa1580156115ef573d6000803e3d6000fd5b505050506040513d601f19601f820116820180604052508101906116139190611ed1565b155b61163a5760405162461bcd60e51b8152600401611631906120ab565b60405180910390fd5b610aac8363095ea7b360e01b84846040516024016116599291906120bb565b60408051601f198184030181529190526020810180516001600160e01b03166001600160e01b03199093169290921790915261176e565b6060824710156116b25760405162461bcd60e51b81526004016116319061210c565b600080866001600160a01b031685876040516116ce919061213e565b60006040518083038185875af1925050503d806000811461170b576040519150601f19603f3d011682016040523d82523d6000602084013e611710565b606091505b5091509150611721878383876117fd565b925050505b949350505050565b610aac8363a9059cbb60e01b84846040516024016116599291906120bb565b6112f7846323b872dd60e01b85858560405160240161165993929190611d26565b60006117c3826040518060400160405280602081526020017f5361666545524332303a206c6f772d6c6576656c2063616c6c206661696c6564815250856001600160a01b03166118469092919063ffffffff16565b805190915015610aac57808060200190518101906117e19190611f9d565b610aac5760405162461bcd60e51b815260040161163190612191565b6060831561183c578251600003611835576001600160a01b0385163b6118355760405162461bcd60e51b8152600401611631906121a1565b5081611726565b6117268383611855565b60606117268484600085611690565b8151156118655781518083602001fd5b8060405162461bcd60e51b8152600401611631919061220e565b6001600160581b0381165b8114610d9c57600080fd5b80356112848161187f565b60008083601f8401126118b5576118b5600080fd5b5081356001600160401b038111156118cf576118cf600080fd5b6020830191508360208202830111156118ea576118ea600080fd5b9250929050565b60008060006040848603121561190957611909600080fd5b60006119158686611895565b93505060208401356001600160401b0381111561193457611934600080fd5b611940868287016118a0565b92509250509250925092565b6001600160581b0381165b82525050565b60208101611284828461194c565b6000806020838503121561198157611981600080fd5b82356001600160401b0381111561199a5761199a600080fd5b6119a6858286016118a0565b92509250509250929050565b80611957565b6020810161128482846119b2565b60006001600160a01b038216611284565b6000611284826119c6565b6000611284826119d7565b611957816119e2565b6020810161128482846119ed565b6001600160801b03811661188a565b803561128481611a04565b600060208284031215611a3357611a33600080fd5b60006117268484611a13565b6001600160401b03811661188a565b803561128481611a3f565b600060208284031215611a6e57611a6e600080fd5b60006117268484611a4e565b8061188a565b803561128481611a7a565b600060208284031215611aa057611aa0600080fd5b60006117268484611a80565b611957816119c6565b6001600160601b038116611957565b80516060830190611ad58482611aac565b506020820151611ae86020850182611ab5565b5060408201516112f760408501826119b2565b606081016112848284611ac4565b602081016112848284611aac565b600060208284031215611b2c57611b2c600080fd5b60006117268484611895565b61188a816119c6565b803561128481611b38565b61188a816119d7565b803561128481611b4c565b600080600080600080600060c0888a031215611b7e57611b7e600080fd5b6000611b8a8a8a611b41565b9750506020611b9b8a828b01611b55565b96505060408801356001600160401b03811115611bba57611bba600080fd5b611bc68a828b016118a0565b95509550506060611bd98a828b01611a13565b9350506080611bea8a828b01611a4e565b92505060a0611bfb8a828b01611a4e565b91505092959891949750929550565b600060208284031215611c1f57611c1f600080fd5b60006117268484611b41565b801515611957565b602081016112848284611c2b565b6001600160401b038116611957565b602081016112848284611c41565b634e487b7160e01b600052601160045260246000fd5b6001600160581b0391821691908116908282019081111561128457611284611c5e565b6001600160581b0391821691908116908282039081111561128457611284611c5e565b634e487b7160e01b600052604160045260246000fd5b634e487b7160e01b600052603260045260246000fd5b8082018082111561128457611284611c5e565b6001600160581b031660006afffffffffffffffffffffe198201611d1f57611d1f611c5e565b5060010190565b60608101611d348286611aac565b611d416020830185611aac565b61172660408301846119b2565b805161128481611b38565b601f19601f83011681018181106001600160401b0382111715611d7e57611d7e611cba565b6040525050565b6000611d9060405190565b9050611d9c8282611d59565b919050565b60006001600160401b03821115611dba57611dba611cba565b601f19601f83011660200192915050565b60005b83811015611de6578181015183820152602001611dce565b50506000910152565b6000611e02611dfd84611da1565b611d85565b905082815260208101848484011115611e1d57611e1d600080fd5b611e28848285611dcb565b509392505050565b600082601f830112611e4457611e44600080fd5b8151611726848260208601611def565b60008060408385031215611e6a57611e6a600080fd5b6000611e768585611d4e565b92505060208301516001600160401b03811115611e9557611e95600080fd5b611ea185828601611e30565b9150509250929050565b60408101611eb98285611aac565b6112d96020830184611aac565b805161128481611a7a565b600060208284031215611ee657611ee6600080fd5b60006117268484611ec6565b8181038181111561128457611284611c5e565b818102808215838204851417611f1d57611f1d611c5e565b5092915050565b634e487b7160e01b600052601260045260246000fd5b600082611f4957611f49611f24565b500490565b60408101611f5c82856119b2565b6112d960208301846119b2565b60006000198203611d1f57611d1f611c5e565b60408101611eb982856119b2565b80151561188a565b805161128481611f8a565b600060208284031215611fb257611fb2600080fd5b60006117268484611f92565b6001600160801b038116611957565b60808101611fdb828761194c565b611fe86020830186611aac565b611ff56040830185611fbe565b6120026060830184611ab5565b95945050505050565b604081016120198285611aac565b6112d960208301846119ed565b60006020828403121561203b5761203b600080fd5b60006117268484611d4e565b602081016112848284611fbe565b603681526000602082017f5361666545524332303a20617070726f76652066726f6d206e6f6e2d7a65726f81527520746f206e6f6e2d7a65726f20616c6c6f77616e636560501b602082015291505b5060400190565b6020808252810161128481612055565b60408101611f5c8285611aac565b602681526000602082017f416464726573733a20696e73756666696369656e742062616c616e636520666f8152651c8818d85b1b60d21b602082015291506120a4565b60208082528101611284816120c9565b6000612126825190565b612134818560208601611dcb565b9290920192915050565b60006112d9828461211c565b602a81526000602082017f5361666545524332303a204552433230206f7065726174696f6e20646964206e8152691bdd081cdd58d8d9595960b21b602082015291506120a4565b602080825281016112848161214a565b6020808252810161128481601d81527f416464726573733a2063616c6c20746f206e6f6e2d636f6e7472616374000000602082015260400190565b60006121e6825190565b8084526020840193506121fd818560208601611dcb565b601f01601f19169290920192915050565b602080825281016112d981846121dc56","linkReferences":{}},"methodIdentifiers":{"ADDRESS_LIST_REGISTRY()":"29bcea29","GLOBAL_CONFIG()":"afc172b9","addManagers(address[])":"8c5f9e74","cancelRequest(uint88)":"cdad981b","depositFromQueue(uint88,uint256[])":"095b2ac5","getDepositAsset()":"c4b038a1","getDepositorAllowlistId()":"1671ee5d","getMinDepositAssetAmount()":"a1bc646b","getMinRequestTime()":"f54a34a2","getNextNewId()":"ac194422","getNextQueuedId()":"0b888010","getRequest(uint256)":"c58343ef","getVaultProxy()":"c9809187","init(address,address,address[],uint128,uint64,uint64)":"d7daf8a0","isManager(address)":"f3ae2415","queueIsShutdown()":"fd56ff27","removeManagers(address[])":"10f3ee29","requestDeposit(uint128)":"3c18e9d5","setDepositorAllowlistId(uint64)":"64bd3eb7","setMinDepositAssetAmount(uint128)":"6005062f","setMinRequestTime(uint64)":"8300aaac","shutdown()":"fc0e74d1"},"id":70}