{"abi":[{"type":"constructor","inputs":[{"name":"_termControllerAddress","type":"address","internalType":"address"}],"stateMutability":"nonpayable"},{"type":"function","name":"parseAssetsForAction","inputs":[{"name":"","type":"address","internalType":"address"},{"name":"_actionId","type":"uint256","internalType":"uint256"},{"name":"_encodedActionArgs","type":"bytes","internalType":"bytes"}],"outputs":[{"name":"assetsToTransfer_","type":"address[]","internalType":"address[]"},{"name":"amountsToTransfer_","type":"uint256[]","internalType":"uint256[]"},{"name":"assetsToReceive_","type":"address[]","internalType":"address[]"}],"stateMutability":"view"},{"type":"function","name":"parseInitArgs","inputs":[{"name":"","type":"address","internalType":"address"},{"name":"","type":"bytes","internalType":"bytes"}],"outputs":[{"name":"","type":"bytes","internalType":"bytes"}],"stateMutability":"pure"}],"bytecode":{"object":"0x60a060405234801561001057600080fd5b5060405161100c38038061100c83398101604081905261002f91610075565b6001600160a01b031660805261009e565b60006001600160a01b0382165b92915050565b61005c81610040565b811461006757600080fd5b50565b805161004d81610053565b60006020828403121561008a5761008a600080fd5b6000610096848461006a565b949350505050565b608051610f536100b960003960006104ea0152610f536000f3fe608060405234801561001057600080fd5b50600436106100365760003560e01c8063bbd2d6461461003b578063db16c72e14610066575b600080fd5b61004e610049366004610890565b610086565b60405161005d939291906109b7565b60405180910390f35b6100796100743660046109f9565b610493565b60405161005d9190610aa7565b60608080846102be5760008060008061009e886104a9565b93509350935093506100af846104d3565b80518351811480156100c15750808351145b6100e65760405162461bcd60e51b81526004016100dd90610afc565b60405180910390fd5b600080866001600160a01b031663a95c4d626040518163ffffffff1660e01b8152600401602060405180830381865afa158015610127573d6000803e3d6000fd5b505050506040513d601f19601f8201168201806040525081019061014b9190610b17565b905060005b8381101561021657600085828151811061016c5761016c610b38565b602002602001015113156101a65784818151811061018c5761018c610b38565b60200260200101518361019f9190610b64565b9250610204565b885160000361020457604080516001808252818301909252906020808301908036833701905050985081896000815181106101e3576101e3610b38565b60200260200101906001600160a01b031690816001600160a01b0316815250505b8061020e81610b77565b915050610150565b5081156102b25760408051600180825281830190925290602080830190803683375050604080516001808252818301909252929c50905060208083019080368337019050509850808a60008151811061027157610271610b38565b60200260200101906001600160a01b031690816001600160a01b03168152505081896000815181106102a5576102a5610b38565b6020026020010181815250505b5050505050505061048a565b600185036103985760006102d18561057f565b5090506102dd816104d3565b6040805160018082528183019092529060208083019080368337019050509150806001600160a01b031663a95c4d626040518163ffffffff1660e01b8152600401602060405180830381865afa15801561033b573d6000803e3d6000fd5b505050506040513d601f19601f8201168201806040525081019061035f9190610b17565b8260008151811061037257610372610b38565b60200260200101906001600160a01b031690816001600160a01b0316815250505061048a565b600285036103ab5760006102d1856105a0565b6003850361048a5760006103be856105b7565b905060005b8151811015610487576103ee8282815181106103e1576103e1610b38565b60200260200101516104d3565b61047382828151811061040357610403610b38565b60200260200101516001600160a01b031663a95c4d626040518163ffffffff1660e01b8152600401602060405180830381865afa158015610448573d6000803e3d6000fd5b505050506040513d601f19601f8201168201806040525081019061046c9190610b17565b84906105cd565b92508061047f81610b77565b9150506103c3565b50505b93509350939050565b6040805160208101909152600081525b92915050565b60006060806060848060200190518101906104c49190610cd3565b93509350935093509193509193565b60405163e7e4b8db60e01b81526001600160a01b037f0000000000000000000000000000000000000000000000000000000000000000169063e7e4b8db9061051f908490600401610d88565b602060405180830381865afa15801561053c573d6000803e3d6000fd5b505050506040513d601f19601f820116820180604052508101906105609190610da9565b61057c5760405162461bcd60e51b81526004016100dd90610e12565b50565b60006060828060200190518101906105979190610e22565b91509150915091565b600080828060200190518101906105979190610e70565b6060818060200190518101906104a39190610f18565b60606105d983836105f6565b156105e55750816104a3565b6105ef838361065b565b9392505050565b6000805b83518110156106515783818151811061061557610615610b38565b60200260200101516001600160a01b0316836001600160a01b03160361063f5760019150506104a3565b8061064981610b77565b9150506105fa565b5060009392505050565b60608251600161066b9190610b64565b67ffffffffffffffff8111156106835761068361078d565b6040519080825280602002602001820160405280156106ac578160200160208202803683370190505b50905060005b8351811015610711578381815181106106cd576106cd610b38565b60200260200101518282815181106106e7576106e7610b38565b6001600160a01b03909216602092830291909101909101528061070981610b77565b9150506106b2565b50818184518151811061072657610726610b38565b60200260200101906001600160a01b031690816001600160a01b03168152505092915050565b60006001600160a01b0382166104a3565b6107668161074c565b811461057c57600080fd5b80356104a38161075d565b80610766565b80356104a38161077c565b634e487b7160e01b600052604160045260246000fd5b601f19601f830116810181811067ffffffffffffffff821117156107c9576107c961078d565b6040525050565b60006107db60405190565b90506107e782826107a3565b919050565b600067ffffffffffffffff8211156108065761080661078d565b601f19601f83011660200192915050565b82818337506000910152565b6000610836610831846107ec565b6107d0565b90508281526020810184848401111561085157610851600080fd5b61085c848285610817565b509392505050565b600082601f83011261087857610878600080fd5b8135610888848260208601610823565b949350505050565b6000806000606084860312156108a8576108a8600080fd5b60006108b48686610771565b93505060206108c586828701610782565b925050604084013567ffffffffffffffff8111156108e5576108e5600080fd5b6108f186828701610864565b9150509250925092565b6109048161074c565b82525050565b600061091683836108fb565b505060200190565b6000610928825190565b80845260209384019383018060005b8381101561095c57815161094b888261090a565b975060208301925050600101610937565b509495945050505050565b80610904565b60006109168383610967565b6000610983825190565b80845260209384019383018060005b8381101561095c5781516109a6888261096d565b975060208301925050600101610992565b606080825281016109c8818661091e565b905081810360208301526109dc8185610979565b905081810360408301526109f0818461091e565b95945050505050565b60008060408385031215610a0f57610a0f600080fd5b6000610a1b8585610771565b925050602083013567ffffffffffffffff811115610a3b57610a3b600080fd5b610a4785828601610864565b9150509250929050565b60005b83811015610a6c578181015183820152602001610a54565b50506000910152565b6000610a7f825190565b808452602084019350610a96818560208601610a51565b601f01601f19169290920192915050565b602080825281016105ef8184610a75565b602481526000602082017f7061727365417373657473466f72416374696f6e3a20556e657175616c2061728152637261797360e01b602082015291505b5060400190565b602080825281016104a381610ab8565b80516104a38161075d565b600060208284031215610b2c57610b2c600080fd5b60006108888484610b0c565b634e487b7160e01b600052603260045260246000fd5b634e487b7160e01b600052601160045260246000fd5b808201808211156104a3576104a3610b4e565b60006000198203610b8a57610b8a610b4e565b5060010190565b60006104a38261074c565b61076681610b91565b80516104a381610b9c565b600067ffffffffffffffff821115610bca57610bca61078d565b5060209081020190565b80516104a38161077c565b6000610bed61083184610bb0565b83815290506020808201908402830185811115610c0c57610c0c600080fd5b835b81811015610c305780610c218882610bd4565b84525060209283019201610c0e565b5050509392505050565b600082601f830112610c4e57610c4e600080fd5b8151610888848260208601610bdf565b6000610c6c61083184610bb0565b83815290506020808201908402830185811115610c8b57610c8b600080fd5b835b81811015610c305780610ca08882610bd4565b84525060209283019201610c8d565b600082601f830112610cc357610cc3600080fd5b8151610888848260208601610c5e565b60008060008060808587031215610cec57610cec600080fd5b6000610cf88787610ba5565b945050602085015167ffffffffffffffff811115610d1857610d18600080fd5b610d2487828801610c3a565b935050604085015167ffffffffffffffff811115610d4457610d44600080fd5b610d5087828801610c3a565b925050606085015167ffffffffffffffff811115610d7057610d70600080fd5b610d7c87828801610caf565b91505092959194509250565b602081016104a382846108fb565b801515610766565b80516104a381610d96565b600060208284031215610dbe57610dbe600080fd5b60006108888484610d9e565b602b81526000602082017f5f5f76616c69646174655465726d41756374696f6e3a20696e76616c6964207481526a32b9369030bab1ba34b7b760a91b60208201529150610af5565b602080825281016104a381610dca565b60008060408385031215610e3857610e38600080fd5b6000610e448585610ba5565b925050602083015167ffffffffffffffff811115610e6457610e64600080fd5b610a4785828601610c3a565b60008060408385031215610e8657610e86600080fd5b6000610e928585610ba5565b9250506020610a4785828601610bd4565b6000610eb161083184610bb0565b83815290506020808201908402830185811115610ed057610ed0600080fd5b835b81811015610c305780610ee58882610ba5565b84525060209283019201610ed2565b600082601f830112610f0857610f08600080fd5b8151610888848260208601610ea3565b600060208284031215610f2d57610f2d600080fd5b815167ffffffffffffffff811115610f4757610f47600080fd5b61088884828501610ef456","linkReferences":{}},"methodIdentifiers":{"parseAssetsForAction(address,uint256,bytes)":"bbd2d646","parseInitArgs(address,bytes)":"db16c72e"},"id":143}