{"abi":[{"type":"constructor","inputs":[{"name":"_fundDeployer","type":"address","internalType":"address"},{"name":"_valueInterpreter","type":"address","internalType":"address"},{"name":"_factory","type":"address","internalType":"address"}],"stateMutability":"nonpayable"},{"type":"function","name":"addPoolTokens","inputs":[{"name":"_poolTokens","type":"address[]","internalType":"address[]"}],"outputs":[],"stateMutability":"nonpayable"},{"type":"function","name":"calcUnderlyingValues","inputs":[{"name":"_derivative","type":"address","internalType":"address"},{"name":"_derivativeAmount","type":"uint256","internalType":"uint256"}],"outputs":[{"name":"underlyings_","type":"address[]","internalType":"address[]"},{"name":"underlyingAmounts_","type":"uint256[]","internalType":"uint256[]"}],"stateMutability":"nonpayable"},{"type":"function","name":"getFactory","inputs":[],"outputs":[{"name":"factory_","type":"address","internalType":"address"}],"stateMutability":"view"},{"type":"function","name":"getFundDeployer","inputs":[],"outputs":[{"name":"fundDeployer_","type":"address","internalType":"address"}],"stateMutability":"view"},{"type":"function","name":"getOwner","inputs":[],"outputs":[{"name":"owner_","type":"address","internalType":"address"}],"stateMutability":"view"},{"type":"function","name":"getPoolTokenInfo","inputs":[{"name":"_poolToken","type":"address","internalType":"address"}],"outputs":[{"name":"poolTokenInfo_","type":"tuple","internalType":"struct UniswapV2PoolPriceFeed.PoolTokenInfo","components":[{"name":"token0","type":"address","internalType":"address"},{"name":"token1","type":"address","internalType":"address"},{"name":"token0Decimals","type":"uint8","internalType":"uint8"},{"name":"token1Decimals","type":"uint8","internalType":"uint8"}]}],"stateMutability":"view"},{"type":"function","name":"getPoolTokenUnderlyings","inputs":[{"name":"_poolToken","type":"address","internalType":"address"}],"outputs":[{"name":"token0_","type":"address","internalType":"address"},{"name":"token1_","type":"address","internalType":"address"}],"stateMutability":"view"},{"type":"function","name":"getValueInterpreter","inputs":[],"outputs":[{"name":"valueInterpreter_","type":"address","internalType":"address"}],"stateMutability":"view"},{"type":"function","name":"isSupportedAsset","inputs":[{"name":"_asset","type":"address","internalType":"address"}],"outputs":[{"name":"isSupported_","type":"bool","internalType":"bool"}],"stateMutability":"view"},{"type":"event","name":"PoolTokenAdded","inputs":[{"name":"poolToken","type":"address","indexed":true,"internalType":"address"},{"name":"token0","type":"address","indexed":false,"internalType":"address"},{"name":"token1","type":"address","indexed":false,"internalType":"address"}],"anonymous":false}],"bytecode":{"object":"0x60e06040523480156200001157600080fd5b50604051620029d0380380620029d08339818101604052810190620000379190620000fe565b828073ffffffffffffffffffffffffffffffffffffffff1660808173ffffffffffffffffffffffffffffffffffffffff1660601b81525050508073ffffffffffffffffffffffffffffffffffffffff1660a08173ffffffffffffffffffffffffffffffffffffffff1660601b815250508173ffffffffffffffffffffffffffffffffffffffff1660c08173ffffffffffffffffffffffffffffffffffffffff1660601b81525050505050620001a2565b600081519050620000f88162000188565b92915050565b6000806000606084860312156200011457600080fd5b60006200012486828701620000e7565b93505060206200013786828701620000e7565b92505060406200014a86828701620000e7565b9150509250925092565b6000620001618262000168565b9050919050565b600073ffffffffffffffffffffffffffffffffffffffff82169050919050565b620001938162000154565b81146200019f57600080fd5b50565b60805160601c60a05160601c60c05160601c6127da620001f660003980610e1a5280610fd25280611259528061130d52806113c9525080610d095280610e42525080610e6a5280610f0f52506127da6000f3fe608060405234801561001057600080fd5b50600436106100935760003560e01c8063875fb4b311610066578063875fb4b31461014657806388cc58e414610164578063893d20e81461018257806397c0ac87146101a05780639be918e6146101be57610093565b806301b453e51461009857806332db4ed5146100c957806367e0e076146100e5578063727212f614610115575b600080fd5b6100b260048036038101906100ad9190611e29565b6101ee565b6040516100c0929190612454565b60405180910390f35b6100e360048036038101906100de9190611eb7565b6102be565b005b6100ff60048036038101906100fa9190611e29565b61097c565b60405161010c9190612626565b60405180910390f35b61012f600480360381019061012a9190611e7b565b610aba565b60405161013d9291906124b4565b60405180910390f35b61014e610e16565b60405161015b9190612439565b60405180910390f35b61016c610e3e565b6040516101799190612439565b60405180910390f35b61018a610e66565b6040516101979190612439565b60405180910390f35b6101a8610f0b565b6040516101b59190612439565b60405180910390f35b6101d860048036038101906101d39190611e29565b610f33565b6040516101e591906124eb565b60405180910390f35b6000806000808473ffffffffffffffffffffffffffffffffffffffff1673ffffffffffffffffffffffffffffffffffffffff16815260200190815260200160002060000160009054906101000a900473ffffffffffffffffffffffffffffffffffffffff166000808573ffffffffffffffffffffffffffffffffffffffff1673ffffffffffffffffffffffffffffffffffffffff16815260200190815260200160002060010160009054906101000a900473ffffffffffffffffffffffffffffffffffffffff1691509150915091565b6102c6610e66565b73ffffffffffffffffffffffffffffffffffffffff163373ffffffffffffffffffffffffffffffffffffffff1614610333576040517f08c379a000000000000000000000000000000000000000000000000000000000815260040161032a90612506565b60405180910390fd5b60008282905011610379576040517f08c379a0000000000000000000000000000000000000000000000000000000008152600401610370906125e6565b60405180910390fd5b60005b8282905081101561097757600073ffffffffffffffffffffffffffffffffffffffff168383838181106103ab57fe5b90506020020160208101906103c09190611e29565b73ffffffffffffffffffffffffffffffffffffffff161415610417576040517f08c379a000000000000000000000000000000000000000000000000000000000815260040161040e90612606565b60405180910390fd5b600073ffffffffffffffffffffffffffffffffffffffff1660008085858581811061043e57fe5b90506020020160208101906104539190611e29565b73ffffffffffffffffffffffffffffffffffffffff1673ffffffffffffffffffffffffffffffffffffffff16815260200190815260200160002060000160009054906101000a900473ffffffffffffffffffffffffffffffffffffffff1673ffffffffffffffffffffffffffffffffffffffff1614610507576040517f08c379a00000000000000000000000000000000000000000000000000000000081526004016104fe906125c6565b60405180910390fd5b600083838381811061051557fe5b905060200201602081019061052a9190611e29565b905060008173ffffffffffffffffffffffffffffffffffffffff16630dfe16816040518163ffffffff1660e01b815260040160206040518083038186803b15801561057457600080fd5b505afa158015610588573d6000803e3d6000fd5b505050506040513d601f19601f820116820180604052508101906105ac9190611e52565b905060008273ffffffffffffffffffffffffffffffffffffffff1663d21220a76040518163ffffffff1660e01b815260040160206040518083038186803b1580156105f657600080fd5b505afa15801561060a573d6000803e3d6000fd5b505050506040513d601f19601f8201168201806040525081019061062e9190611e52565b905061063a8282610fcd565b610679576040517f08c379a000000000000000000000000000000000000000000000000000000000815260040161067090612566565b60405180910390fd5b60405180608001604052808373ffffffffffffffffffffffffffffffffffffffff1681526020018273ffffffffffffffffffffffffffffffffffffffff1681526020018373ffffffffffffffffffffffffffffffffffffffff1663313ce5676040518163ffffffff1660e01b815260040160206040518083038186803b15801561070257600080fd5b505afa158015610716573d6000803e3d6000fd5b505050506040513d601f19601f8201168201806040525081019061073a9190611f9d565b60ff1681526020018273ffffffffffffffffffffffffffffffffffffffff1663313ce5676040518163ffffffff1660e01b815260040160206040518083038186803b15801561078857600080fd5b505afa15801561079c573d6000803e3d6000fd5b505050506040513d601f19601f820116820180604052508101906107c09190611f9d565b60ff168152506000808888888181106107d557fe5b90506020020160208101906107ea9190611e29565b73ffffffffffffffffffffffffffffffffffffffff1673ffffffffffffffffffffffffffffffffffffffff16815260200190815260200160002060008201518160000160006101000a81548173ffffffffffffffffffffffffffffffffffffffff021916908373ffffffffffffffffffffffffffffffffffffffff16021790555060208201518160010160006101000a81548173ffffffffffffffffffffffffffffffffffffffff021916908373ffffffffffffffffffffffffffffffffffffffff16021790555060408201518160010160146101000a81548160ff021916908360ff16021790555060608201518160010160156101000a81548160ff021916908360ff16021790555090505085858581811061090357fe5b90506020020160208101906109189190611e29565b73ffffffffffffffffffffffffffffffffffffffff167f2d64d749034284f79591001c60e51eeab7a396decc5296df21e417306e9d92bf838360405161095f929190612454565b60405180910390a2505050808060010191505061037c565b505050565b610984611cdd565b6000808373ffffffffffffffffffffffffffffffffffffffff1673ffffffffffffffffffffffffffffffffffffffff1681526020019081526020016000206040518060800160405290816000820160009054906101000a900473ffffffffffffffffffffffffffffffffffffffff1673ffffffffffffffffffffffffffffffffffffffff1673ffffffffffffffffffffffffffffffffffffffff1681526020016001820160009054906101000a900473ffffffffffffffffffffffffffffffffffffffff1673ffffffffffffffffffffffffffffffffffffffff1673ffffffffffffffffffffffffffffffffffffffff1681526020016001820160149054906101000a900460ff1660ff1660ff1681526020016001820160159054906101000a900460ff1660ff1660ff16815250509050919050565b606080610ac5611cdd565b6000808673ffffffffffffffffffffffffffffffffffffffff1673ffffffffffffffffffffffffffffffffffffffff1681526020019081526020016000206040518060800160405290816000820160009054906101000a900473ffffffffffffffffffffffffffffffffffffffff1673ffffffffffffffffffffffffffffffffffffffff1673ffffffffffffffffffffffffffffffffffffffff1681526020016001820160009054906101000a900473ffffffffffffffffffffffffffffffffffffffff1673ffffffffffffffffffffffffffffffffffffffff1673ffffffffffffffffffffffffffffffffffffffff1681526020016001820160149054906101000a900460ff1660ff1660ff1681526020016001820160159054906101000a900460ff1660ff1660ff16815250509050600267ffffffffffffffff81118015610c0e57600080fd5b50604051908082528060200260200182016040528015610c3d5781602001602082028036833780820191505090505b509250806000015183600081518110610c5257fe5b602002602001019073ffffffffffffffffffffffffffffffffffffffff16908173ffffffffffffffffffffffffffffffffffffffff1681525050806020015183600181518110610c9e57fe5b602002602001019073ffffffffffffffffffffffffffffffffffffffff16908173ffffffffffffffffffffffffffffffffffffffff1681525050600080610cfd83600001518460200151856040015160ff16866060015160ff16611254565b91509150600080610d307f00000000000000000000000000000000000000000000000000000000000000008a8686611482565b91509150600267ffffffffffffffff81118015610d4c57600080fd5b50604051908082528060200260200182016040528015610d7b5781602001602082028036833780820191505090505b509550610dab670de0b6b3a7640000610d9d848b6114b290919063ffffffff16565b61152290919063ffffffff16565b86600081518110610db857fe5b602002602001018181525050610df1670de0b6b3a7640000610de3838b6114b290919063ffffffff16565b61152290919063ffffffff16565b86600181518110610dfe57fe5b60200260200101818152505050505050509250929050565b60007f0000000000000000000000000000000000000000000000000000000000000000905090565b60007f0000000000000000000000000000000000000000000000000000000000000000905090565b60007f000000000000000000000000000000000000000000000000000000000000000073ffffffffffffffffffffffffffffffffffffffff1663893d20e86040518163ffffffff1660e01b815260040160206040518083038186803b158015610ece57600080fd5b505afa158015610ee2573d6000803e3d6000fd5b505050506040513d601f19601f82011682018060405250810190610f069190611e52565b905090565b60007f0000000000000000000000000000000000000000000000000000000000000000905090565b60008073ffffffffffffffffffffffffffffffffffffffff166000808473ffffffffffffffffffffffffffffffffffffffff1673ffffffffffffffffffffffffffffffffffffffff16815260200190815260200160002060000160009054906101000a900473ffffffffffffffffffffffffffffffffffffffff1673ffffffffffffffffffffffffffffffffffffffff1614159050919050565b6000807f000000000000000000000000000000000000000000000000000000000000000090508073ffffffffffffffffffffffffffffffffffffffff1663c496f8e8856040518263ffffffff1660e01b815260040161102c9190612439565b60206040518083038186803b15801561104457600080fd5b505afa158015611058573d6000803e3d6000fd5b505050506040513d601f19601f8201168201806040525081019061107c9190611efc565b1561111e578073ffffffffffffffffffffffffffffffffffffffff16639be918e6846040518263ffffffff1660e01b81526004016110ba9190612439565b60206040518083038186803b1580156110d257600080fd5b505afa1580156110e6573d6000803e3d6000fd5b505050506040513d601f19601f8201168201806040525081019061110a9190611efc565b1561111957600191505061124e565b611248565b8073ffffffffffffffffffffffffffffffffffffffff166364b01dc1856040518263ffffffff1660e01b81526004016111579190612439565b60206040518083038186803b15801561116f57600080fd5b505afa158015611183573d6000803e3d6000fd5b505050506040513d601f19601f820116820180604052508101906111a79190611efc565b801561123857508073ffffffffffffffffffffffffffffffffffffffff1663c496f8e8846040518263ffffffff1660e01b81526004016111e79190612439565b60206040518083038186803b1580156111ff57600080fd5b505afa158015611213573d6000803e3d6000fd5b505050506040513d601f19601f820116820180604052508101906112379190611efc565b5b1561124757600191505061124e565b5b60009150505b92915050565b6000807f000000000000000000000000000000000000000000000000000000000000000073ffffffffffffffffffffffffffffffffffffffff1663c496f8e8876040518263ffffffff1660e01b81526004016112b09190612439565b60206040518083038186803b1580156112c857600080fd5b505afa1580156112dc573d6000803e3d6000fd5b505050506040513d601f19601f820116820180604052508101906113009190611efc565b156113c15782600a0a90507f000000000000000000000000000000000000000000000000000000000000000073ffffffffffffffffffffffffffffffffffffffff16634c67e1068683896040518463ffffffff1660e01b81526004016113689392919061247d565b602060405180830381600087803b15801561138257600080fd5b505af1158015611396573d6000803e3d6000fd5b505050506040513d601f19601f820116820180604052508101906113ba9190611f74565b9150611479565b83600a0a91507f000000000000000000000000000000000000000000000000000000000000000073ffffffffffffffffffffffffffffffffffffffff16634c67e1068784886040518463ffffffff1660e01b81526004016114249392919061247d565b602060405180830381600087803b15801561143e57600080fd5b505af1158015611452573d6000803e3d6000fd5b505050506040513d601f19601f820116820180604052508101906114769190611f74565b90505b94509492505050565b600080600080611493878787611578565b915091506114a3888884846116d6565b93509350505094509492505050565b6000808314156114c5576000905061151c565b60008284029050828482816114d657fe5b0414611517576040517f08c379a000000000000000000000000000000000000000000000000000000000815260040161150e906125a6565b60405180910390fd5b809150505b92915050565b6000808211611566576040517f08c379a000000000000000000000000000000000000000000000000000000000815260040161155d90612586565b60405180910390fd5b81838161156f57fe5b04905092915050565b6000808473ffffffffffffffffffffffffffffffffffffffff16630902f1ac6040518163ffffffff1660e01b815260040160606040518083038186803b1580156115c157600080fd5b505afa1580156115d5573d6000803e3d6000fd5b505050506040513d601f19601f820116820180604052508101906115f99190611f25565b826dffffffffffffffffffffffffffff169250816dffffffffffffffffffffffffffff169150508092508193505050600080611637868686866119c1565b91509150600081141561164b5750506116ce565b811561169057600061165e828686611b5b565b90506116738286611bd690919063ffffffff16565b94506116888185611c2b90919063ffffffff16565b9350506116cb565b600061169d828587611b5b565b90506116b28285611bd690919063ffffffff16565b93506116c78186611c2b90919063ffffffff16565b9450505b50505b935093915050565b600080600085905060008173ffffffffffffffffffffffffffffffffffffffff166318160ddd6040518163ffffffff1660e01b815260040160206040518083038186803b15801561172657600080fd5b505afa15801561173a573d6000803e3d6000fd5b505050506040513d601f19601f8201168201806040525081019061175e9190611f74565b9050600073ffffffffffffffffffffffffffffffffffffffff168873ffffffffffffffffffffffffffffffffffffffff1663017e7e586040518163ffffffff1660e01b815260040160206040518083038186803b1580156117be57600080fd5b505afa1580156117d2573d6000803e3d6000fd5b505050506040513d601f19601f820116820180604052508101906117f69190611e52565b73ffffffffffffffffffffffffffffffffffffffff16146119585760008273ffffffffffffffffffffffffffffffffffffffff16637464fc3d6040518163ffffffff1660e01b815260040160206040518083038186803b15801561185957600080fd5b505afa15801561186d573d6000803e3d6000fd5b505050506040513d601f19601f820116820180604052508101906118919190611f74565b905060008111156119565760006118b96118b4888a6114b290919063ffffffff16565b611c7b565b905060006118c683611c7b565b9050808211156119535760006118f76118e88385611c2b90919063ffffffff16565b866114b290919063ffffffff16565b90506000611921836119136005876114b290919063ffffffff16565b611bd690919063ffffffff16565b90506000611938828461152290919063ffffffff16565b905061194d8188611bd690919063ffffffff16565b96505050505b50505b505b61198581611977670de0b6b3a7640000896114b290919063ffffffff16565b61152290919063ffffffff16565b6119b2826119a4670de0b6b3a7640000896114b290919063ffffffff16565b61152290919063ffffffff16565b93509350505094509492505050565b600080856119ea846119dc88886114b290919063ffffffff16565b61152290919063ffffffff16565b1091506000808315611a8f57611a5d611a58611a116103e58a6114b290919063ffffffff16565b611a4a6103e8611a3c8d611a2e8c8e6114b290919063ffffffff16565b6114b290919063ffffffff16565b6114b290919063ffffffff16565b61152290919063ffffffff16565b611c7b565b9150611a886103e5611a7a6103e8896114b290919063ffffffff16565b61152290919063ffffffff16565b9050611b24565b611af6611af1611aaa6103e58b6114b290919063ffffffff16565b611ae36103e8611ad58c611ac78c8e6114b290919063ffffffff16565b6114b290919063ffffffff16565b6114b290919063ffffffff16565b61152290919063ffffffff16565b611c7b565b9150611b216103e5611b136103e8886114b290919063ffffffff16565b61152290919063ffffffff16565b90505b80821015611b3a57600080935093505050611b52565b611b4d8183611c2b90919063ffffffff16565b925050505b94509492505050565b600080611b736103e5866114b290919063ffffffff16565b90506000611b8a84836114b290919063ffffffff16565b90506000611bb583611ba76103e8896114b290919063ffffffff16565b611bd690919063ffffffff16565b9050611bca818361152290919063ffffffff16565b93505050509392505050565b600080828401905083811015611c21576040517f08c379a0000000000000000000000000000000000000000000000000000000008152600401611c1890612526565b60405180910390fd5b8091505092915050565b600082821115611c70576040517f08c379a0000000000000000000000000000000000000000000000000000000008152600401611c6790612546565b60405180910390fd5b818303905092915050565b60006003821115611cca578190506000600160028481611c9757fe5b040190505b81811015611cc457809150600281828581611cb357fe5b040181611cbc57fe5b049050611c9c565b50611cd8565b60008214611cd757600190505b5b919050565b6040518060800160405280600073ffffffffffffffffffffffffffffffffffffffff168152602001600073ffffffffffffffffffffffffffffffffffffffff168152602001600060ff168152602001600060ff1681525090565b600081359050611d4681612743565b92915050565b600081519050611d5b81612743565b92915050565b60008083601f840112611d7357600080fd5b8235905067ffffffffffffffff811115611d8c57600080fd5b602083019150836020820283011115611da457600080fd5b9250929050565b600081519050611dba8161275a565b92915050565b600081519050611dcf81612771565b92915050565b600081359050611de481612788565b92915050565b600081519050611df981612788565b92915050565b600081519050611e0e8161279f565b92915050565b600081519050611e23816127b6565b92915050565b600060208284031215611e3b57600080fd5b6000611e4984828501611d37565b91505092915050565b600060208284031215611e6457600080fd5b6000611e7284828501611d4c565b91505092915050565b60008060408385031215611e8e57600080fd5b6000611e9c85828601611d37565b9250506020611ead85828601611dd5565b9150509250929050565b60008060208385031215611eca57600080fd5b600083013567ffffffffffffffff811115611ee457600080fd5b611ef085828601611d61565b92509250509250929050565b600060208284031215611f0e57600080fd5b6000611f1c84828501611dab565b91505092915050565b600080600060608486031215611f3a57600080fd5b6000611f4886828701611dc0565b9350506020611f5986828701611dc0565b9250506040611f6a86828701611dff565b9150509250925092565b600060208284031215611f8657600080fd5b6000611f9484828501611dea565b91505092915050565b600060208284031215611faf57600080fd5b6000611fbd84828501611e14565b91505092915050565b6000611fd28383611ff6565b60208301905092915050565b6000611fea838361240c565b60208301905092915050565b611fff816126c4565b82525050565b61200e816126c4565b82525050565b600061201f82612661565b6120298185612691565b935061203483612641565b8060005b8381101561206557815161204c8882611fc6565b975061205783612677565b925050600181019050612038565b5085935050505092915050565b600061207d8261266c565b61208781856126a2565b935061209283612651565b8060005b838110156120c35781516120aa8882611fde565b97506120b583612684565b925050600181019050612096565b5085935050505092915050565b6120d9816126d6565b82525050565b60006120ec6049836126b3565b91507f6f6e6c7946756e644465706c6f7965724f776e65723a204f6e6c79207468652060008301527f46756e644465706c6f796572206f776e65722063616e2063616c6c207468697360208301527f2066756e6374696f6e00000000000000000000000000000000000000000000006040830152606082019050919050565b6000612178601b836126b3565b91507f536166654d6174683a206164646974696f6e206f766572666c6f7700000000006000830152602082019050919050565b60006121b8601e836126b3565b91507f536166654d6174683a207375627472616374696f6e206f766572666c6f7700006000830152602082019050919050565b60006121f86025836126b3565b91507f616464506f6f6c546f6b656e733a20556e737570706f7274656420706f6f6c2060008301527f746f6b656e0000000000000000000000000000000000000000000000000000006020830152604082019050919050565b600061225e601a836126b3565b91507f536166654d6174683a206469766973696f6e206279207a65726f0000000000006000830152602082019050919050565b600061229e6021836126b3565b91507f536166654d6174683a206d756c7469706c69636174696f6e206f766572666c6f60008301527f77000000000000000000000000000000000000000000000000000000000000006020830152604082019050919050565b60006123046020836126b3565b91507f616464506f6f6c546f6b656e733a2056616c756520616c7265616479207365746000830152602082019050919050565b60006123446020836126b3565b91507f616464506f6f6c546f6b656e733a20456d707479205f706f6f6c546f6b656e736000830152602082019050919050565b6000612384601e836126b3565b91507f616464506f6f6c546f6b656e733a20456d70747920706f6f6c546f6b656e00006000830152602082019050919050565b6080820160008201516123cd6000850182611ff6565b5060208201516123e06020850182611ff6565b5060408201516123f3604085018261242a565b506060820151612406606085018261242a565b50505050565b6124158161271c565b82525050565b6124248161271c565b82525050565b61243381612736565b82525050565b600060208201905061244e6000830184612005565b92915050565b60006040820190506124696000830185612005565b6124766020830184612005565b9392505050565b60006060820190506124926000830186612005565b61249f602083018561241b565b6124ac6040830184612005565b949350505050565b600060408201905081810360008301526124ce8185612014565b905081810360208301526124e28184612072565b90509392505050565b600060208201905061250060008301846120d0565b92915050565b6000602082019050818103600083015261251f816120df565b9050919050565b6000602082019050818103600083015261253f8161216b565b9050919050565b6000602082019050818103600083015261255f816121ab565b9050919050565b6000602082019050818103600083015261257f816121eb565b9050919050565b6000602082019050818103600083015261259f81612251565b9050919050565b600060208201905081810360008301526125bf81612291565b9050919050565b600060208201905081810360008301526125df816122f7565b9050919050565b600060208201905081810360008301526125ff81612337565b9050919050565b6000602082019050818103600083015261261f81612377565b9050919050565b600060808201905061263b60008301846123b7565b92915050565b6000819050602082019050919050565b6000819050602082019050919050565b600081519050919050565b600081519050919050565b6000602082019050919050565b6000602082019050919050565b600082825260208201905092915050565b600082825260208201905092915050565b600082825260208201905092915050565b60006126cf826126fc565b9050919050565b60008115159050919050565b60006dffffffffffffffffffffffffffff82169050919050565b600073ffffffffffffffffffffffffffffffffffffffff82169050919050565b6000819050919050565b600063ffffffff82169050919050565b600060ff82169050919050565b61274c816126c4565b811461275757600080fd5b50565b612763816126d6565b811461276e57600080fd5b50565b61277a816126e2565b811461278557600080fd5b50565b6127918161271c565b811461279c57600080fd5b50565b6127a881612726565b81146127b357600080fd5b50565b6127bf81612736565b81146127ca57600080fd5b5056fea164736f6c634300060c000a","linkReferences":{}},"methodIdentifiers":{"addPoolTokens(address[])":"32db4ed5","calcUnderlyingValues(address,uint256)":"727212f6","getFactory()":"88cc58e4","getFundDeployer()":"97c0ac87","getOwner()":"893d20e8","getPoolTokenInfo(address)":"67e0e076","getPoolTokenUnderlyings(address)":"01b453e5","getValueInterpreter()":"875fb4b3","isSupportedAsset(address)":"9be918e6"},"id":292}