{"abi":[{"type":"constructor","inputs":[{"name":"_pendlePyYtLpOracleAddress","type":"address","internalType":"contract IPendleV2PyYtLpOracle"}],"stateMutability":"nonpayable"},{"type":"function","name":"getMarketOracleDurationForUser","inputs":[{"name":"_user","type":"address","internalType":"address"},{"name":"_marketAddress","type":"address","internalType":"address"}],"outputs":[{"name":"duration_","type":"uint32","internalType":"uint32"}],"stateMutability":"view"},{"type":"function","name":"getPtOracleMarketAndDurationForUser","inputs":[{"name":"_user","type":"address","internalType":"address"},{"name":"_ptAddress","type":"address","internalType":"address"}],"outputs":[{"name":"marketAddress_","type":"address","internalType":"address"},{"name":"duration_","type":"uint32","internalType":"uint32"}],"stateMutability":"view"},{"type":"function","name":"getPtOracleMarketForUser","inputs":[{"name":"_user","type":"address","internalType":"address"},{"name":"_ptAddress","type":"address","internalType":"address"}],"outputs":[{"name":"marketAddress_","type":"address","internalType":"address"}],"stateMutability":"view"},{"type":"function","name":"updateMarketsForCaller","inputs":[{"name":"_updateMarketInputs","type":"tuple[]","internalType":"struct IPendleV2MarketRegistry.UpdateMarketInput[]","components":[{"name":"marketAddress","type":"address","internalType":"address"},{"name":"duration","type":"uint32","internalType":"uint32"}]},{"name":"_skipValidation","type":"bool","internalType":"bool"}],"outputs":[],"stateMutability":"nonpayable"},{"type":"event","name":"MarketForUserUpdated","inputs":[{"name":"user","type":"address","indexed":true,"internalType":"address"},{"name":"marketAddress","type":"address","indexed":true,"internalType":"address"},{"name":"duration","type":"uint32","indexed":false,"internalType":"uint32"}],"anonymous":false},{"type":"event","name":"PtForUserUpdated","inputs":[{"name":"user","type":"address","indexed":true,"internalType":"address"},{"name":"ptAddress","type":"address","indexed":true,"internalType":"address"},{"name":"marketAddress","type":"address","indexed":true,"internalType":"address"}],"anonymous":false},{"type":"error","name":"InsufficientOracleState","inputs":[{"name":"increaseCardinalityRequired","type":"bool","internalType":"bool"},{"name":"oldestObservationSatisfied","type":"bool","internalType":"bool"}]}],"bytecode":{"object":"0x60a060405234801561001057600080fd5b5060405161093638038061093683398101604081905261002f91610080565b6001600160a01b03166080526100a9565b60006001600160a01b0382165b92915050565b600061004d82610040565b61006781610053565b811461007257600080fd5b50565b805161004d8161005e565b60006020828403121561009557610095600080fd5b60006100a18484610075565b949350505050565b6080516108726100c460003960006103fb01526108726000f3fe608060405234801561001057600080fd5b506004361061004c5760003560e01c80632a7e2d9b1461005157806337ced2ac1461007a578063687839431461009b578063ff1c8c20146100e5575b600080fd5b61006461005f3660046104fb565b6100fa565b6040516100719190610547565b60405180910390f35b61008d6100883660046104fb565b610129565b604051610071929190610561565b6100d86100a93660046104fb565b6001600160a01b0391821660009081526020818152604080832093909416825291909152205463ffffffff1690565b6040516100719190610583565b6100f86100f33660046105ef565b61016d565b005b6001600160a01b0380831660009081526001602090815260408083208585168452909152902054165b92915050565b60008061013684846100fa565b6001600160a01b038086166000908152602081815260408083209385168352929052205490925063ffffffff1690505b9250929050565b3360005b838110156103ef57600085858381811061018d5761018d61064a565b9050604002018036038101906101a39190610720565b90506000816020015163ffffffff161180156101bd575083155b156101d4576101d4816000015182602001516103f6565b602081810180516001600160a01b0386811660008181528086526040808220885185168352909652859020805463ffffffff191663ffffffff9094169390931790925584519251935192169290917f6ec005aec61ec2a89f555e337bd5df378668117b5a58947467c5f2dacc5354049161024d91610583565b60405180910390a3600081600001516001600160a01b0316632c8ce6bc6040518163ffffffff1660e01b8152600401606060405180830381865afa158015610299573d6000803e3d6000fd5b505050506040513d601f19601f820116820180604052508101906102bd9190610773565b50915050600082600001516001600160a01b03166102db86846100fa565b6001600160a01b03161490506000836020015163ffffffff161115610371578061036c5782516001600160a01b038681166000818152600160209081526040808320888616808552925280832080546001600160a01b031916968616969096179095558751945194909316937f595d14c7d1a6df5295f78d8ae1d183b899c291c9eb9684a93d3fd02c117fe12c9190a45b6103d9565b80156103d9576001600160a01b0380861660008181526001602090815260408083209487168084529490915280822080546001600160a01b031916905551909291907f595d14c7d1a6df5295f78d8ae1d183b899c291c9eb9684a93d3fd02c117fe12c908490a45b50505080806103e7906107cf565b915050610171565b5050505050565b6000807f00000000000000000000000000000000000000000000000000000000000000006001600160a01b031663873e960085856040518363ffffffff1660e01b8152600401610447929190610561565b606060405180830381865afa158015610464573d6000803e3d6000fd5b505050506040513d601f19601f820116820180604052508101906104889190610809565b92505091508180610497575080155b156104c2578181604051634a0637c560e01b81526004016104b9929190610857565b60405180910390fd5b50505050565b60006001600160a01b038216610123565b6104e2816104c8565b81146104ed57600080fd5b50565b8035610123816104d9565b6000806040838503121561051157610511600080fd5b600061051d85856104f0565b925050602061052e858286016104f0565b9150509250929050565b610541816104c8565b82525050565b602081016101238284610538565b63ffffffff8116610541565b6040810161056f8285610538565b61057c6020830184610555565b9392505050565b602081016101238284610555565b60008083601f8401126105a6576105a6600080fd5b50813567ffffffffffffffff8111156105c1576105c1600080fd5b60208301915083604082028301111561016657610166600080fd5b8015156104e2565b8035610123816105dc565b60008060006040848603121561060757610607600080fd5b833567ffffffffffffffff81111561062157610621600080fd5b61062d86828701610591565b93509350506020610640868287016105e4565b9150509250925092565b634e487b7160e01b600052603260045260246000fd5b634e487b7160e01b600052604160045260246000fd5b601f19601f830116810181811067ffffffffffffffff8211171561069c5761069c610660565b6040525050565b60006106ae60405190565b90506106ba8282610676565b919050565b63ffffffff81166104e2565b8035610123816106bf565b6000604082840312156106eb576106eb600080fd5b6106f560406106a3565b9050600061070384846104f0565b8252506020610714848483016106cb565b60208301525092915050565b60006040828403121561073557610735600080fd5b600061074184846106d6565b949350505050565b6000610123826104c8565b6104e281610749565b805161012381610754565b8051610123816104d9565b60008060006060848603121561078b5761078b600080fd5b6000610797868661075d565b93505060206107a88682870161075d565b925050604061064086828701610768565b634e487b7160e01b600052601160045260246000fd5b600060001982036107e2576107e26107b9565b5060010190565b8051610123816105dc565b61ffff81166104e2565b8051610123816107f4565b60008060006060848603121561082157610821600080fd5b600061082d86866107e9565b935050602061083e868287016107fe565b9250506040610640868287016107e9565b801515610541565b60408101610865828561084f565b61057c602083018461084f56","linkReferences":{}},"methodIdentifiers":{"getMarketOracleDurationForUser(address,address)":"68783943","getPtOracleMarketAndDurationForUser(address,address)":"37ced2ac","getPtOracleMarketForUser(address,address)":"2a7e2d9b","updateMarketsForCaller((address,uint32)[],bool)":"ff1c8c20"},"id":144}