{"abi":[{"type":"constructor","inputs":[{"name":"_pendlePyYtLpOracleAddress","type":"address","internalType":"contract IPendleV2PyYtLpOracle"}],"stateMutability":"nonpayable"},{"type":"function","name":"getMarketOracleDurationForUser","inputs":[{"name":"_user","type":"address","internalType":"address"},{"name":"_marketAddress","type":"address","internalType":"address"}],"outputs":[{"name":"duration_","type":"uint32","internalType":"uint32"}],"stateMutability":"view"},{"type":"function","name":"getPtOracleMarketAndDurationForUser","inputs":[{"name":"_user","type":"address","internalType":"address"},{"name":"_ptAddress","type":"address","internalType":"address"}],"outputs":[{"name":"marketAddress_","type":"address","internalType":"address"},{"name":"duration_","type":"uint32","internalType":"uint32"}],"stateMutability":"view"},{"type":"function","name":"getPtOracleMarketForUser","inputs":[{"name":"_user","type":"address","internalType":"address"},{"name":"_ptAddress","type":"address","internalType":"address"}],"outputs":[{"name":"marketAddress_","type":"address","internalType":"address"}],"stateMutability":"view"},{"type":"function","name":"updateMarketsForCaller","inputs":[{"name":"_updateMarketInputs","type":"tuple[]","internalType":"struct IPendleV2MarketRegistry.UpdateMarketInput[]","components":[{"name":"marketAddress","type":"address","internalType":"address"},{"name":"duration","type":"uint32","internalType":"uint32"}]},{"name":"_skipValidation","type":"bool","internalType":"bool"}],"outputs":[],"stateMutability":"nonpayable"},{"type":"event","name":"MarketForUserUpdated","inputs":[{"name":"user","type":"address","indexed":true,"internalType":"address"},{"name":"marketAddress","type":"address","indexed":true,"internalType":"address"},{"name":"duration","type":"uint32","indexed":false,"internalType":"uint32"}],"anonymous":false},{"type":"event","name":"PtForUserUpdated","inputs":[{"name":"user","type":"address","indexed":true,"internalType":"address"},{"name":"ptAddress","type":"address","indexed":true,"internalType":"address"},{"name":"marketAddress","type":"address","indexed":true,"internalType":"address"}],"anonymous":false},{"type":"error","name":"InsufficientOracleState","inputs":[{"name":"increaseCardinalityRequired","type":"bool","internalType":"bool"},{"name":"oldestObservationSatisfied","type":"bool","internalType":"bool"}]}],"bytecode":{"object":"0x60a060405234801561001057600080fd5b5060405161079638038061079683398101604081905261002f91610040565b6001600160a01b0316608052610070565b60006020828403121561005257600080fd5b81516001600160a01b038116811461006957600080fd5b9392505050565b60805161070b61008b600039600061043a015261070b6000f3fe608060405234801561001057600080fd5b506004361061004c5760003560e01c80632a7e2d9b1461005157806337ced2ac1461008157806368783943146100b8578063ff1c8c201461010a575b600080fd5b61006461005f366004610500565b61011f565b6040516001600160a01b0390911681526020015b60405180910390f35b61009461008f366004610500565b610149565b604080516001600160a01b03909316835263ffffffff909116602083015201610078565b6100f56100c6366004610500565b6001600160a01b0391821660009081526020818152604080832093909416825291909152205463ffffffff1690565b60405163ffffffff9091168152602001610078565b61011d610118366004610547565b61018c565b005b6001600160a01b039182166000908152600160209081526040808320938516835292905220541690565b600080610156848461011f565b6001600160a01b038086166000908152602081815260408083209385168352929052205490925063ffffffff1690509250929050565b3360005b838110156104045760008585838181106101ac576101ac6105cd565b9050604002018036038101906101c291906105e3565b90506000816020015163ffffffff161180156101dc575083155b156101f3576101f38160000151826020015161040b565b602081810180516001600160a01b0386811660008181528086526040808220885185168352875290819020805463ffffffff191663ffffffff958616179055865194519051931683529216927f6ec005aec61ec2a89f555e337bd5df378668117b5a58947467c5f2dacc535404910160405180910390a3600081600001516001600160a01b0316632c8ce6bc6040518163ffffffff1660e01b8152600401606060405180830381865afa1580156102ae573d6000803e3d6000fd5b505050506040513d601f19601f820116820180604052508101906102d29190610659565b50915050600082600001516001600160a01b03166102f0868461011f565b6001600160a01b03161490506000836020015163ffffffff16111561038657806103815782516001600160a01b038681166000818152600160209081526040808320888616808552925280832080546001600160a01b031916968616969096179095558751945194909316937f595d14c7d1a6df5295f78d8ae1d183b899c291c9eb9684a93d3fd02c117fe12c9190a45b6103ee565b80156103ee576001600160a01b0380861660008181526001602090815260408083209487168084529490915280822080546001600160a01b031916905551909291907f595d14c7d1a6df5295f78d8ae1d183b899c291c9eb9684a93d3fd02c117fe12c908490a45b50505080806103fc9061069b565b915050610190565b5050505050565b60405162439f4b60e91b81526001600160a01b03838116600483015263ffffffff8316602483015260009182917f0000000000000000000000000000000000000000000000000000000000000000169063873e960090604401606060405180830381865afa158015610481573d6000803e3d6000fd5b505050506040513d601f19601f820116820180604052508101906104a591906106c2565b925050915081806104b4575080155b156104e257604051634a0637c560e01b81528215156004820152811515602482015260440160405180910390fd5b50505050565b6001600160a01b03811681146104fd57600080fd5b50565b6000806040838503121561051357600080fd5b823561051e816104e8565b9150602083013561052e816104e8565b809150509250929050565b80151581146104fd57600080fd5b60008060006040848603121561055c57600080fd5b833567ffffffffffffffff8082111561057457600080fd5b818601915086601f83011261058857600080fd5b81358181111561059757600080fd5b8760208260061b85010111156105ac57600080fd5b602092830195509350508401356105c281610539565b809150509250925092565b634e487b7160e01b600052603260045260246000fd5b6000604082840312156105f557600080fd5b6040516040810181811067ffffffffffffffff8211171561062657634e487b7160e01b600052604160045260246000fd5b6040528235610634816104e8565b8152602083013563ffffffff8116811461064d57600080fd5b60208201529392505050565b60008060006060848603121561066e57600080fd5b8351610679816104e8565b602085015190935061068a816104e8565b60408501519092506105c2816104e8565b6000600182016106bb57634e487b7160e01b600052601160045260246000fd5b5060010190565b6000806000606084860312156106d757600080fd5b83516106e281610539565b602085015190935061ffff811681146106fa57600080fd5b60408501519092506105c28161053956","linkReferences":{}},"methodIdentifiers":{"getMarketOracleDurationForUser(address,address)":"68783943","getPtOracleMarketAndDurationForUser(address,address)":"37ced2ac","getPtOracleMarketForUser(address,address)":"2a7e2d9b","updateMarketsForCaller((address,uint32)[],bool)":"ff1c8c20"},"id":129}