{"abi":[{"type":"constructor","inputs":[{"name":"_policyManager","type":"address","internalType":"address"},{"name":"_addressListRegistry","type":"address","internalType":"address"}],"stateMutability":"nonpayable"},{"type":"function","name":"activateForFund","inputs":[{"name":"","type":"address","internalType":"address"}],"outputs":[],"stateMutability":"nonpayable"},{"type":"function","name":"addFundSettings","inputs":[{"name":"_comptrollerProxy","type":"address","internalType":"address"},{"name":"_encodedSettings","type":"bytes","internalType":"bytes"}],"outputs":[],"stateMutability":"nonpayable"},{"type":"function","name":"canDisable","inputs":[],"outputs":[{"name":"canDisable_","type":"bool","internalType":"bool"}],"stateMutability":"pure"},{"type":"function","name":"getAddressListRegistry","inputs":[],"outputs":[{"name":"addressListRegistry_","type":"address","internalType":"address"}],"stateMutability":"view"},{"type":"function","name":"getListIdsForFund","inputs":[{"name":"_comptrollerProxy","type":"address","internalType":"address"}],"outputs":[{"name":"listIds_","type":"uint256[]","internalType":"uint256[]"}],"stateMutability":"view"},{"type":"function","name":"getPolicyManager","inputs":[],"outputs":[{"name":"policyManager_","type":"address","internalType":"address"}],"stateMutability":"view"},{"type":"function","name":"identifier","inputs":[],"outputs":[{"name":"identifier_","type":"string","internalType":"string"}],"stateMutability":"pure"},{"type":"function","name":"implementedHooks","inputs":[],"outputs":[{"name":"implementedHooks_","type":"uint8[]","internalType":"enum IPolicyManager.PolicyHook[]"}],"stateMutability":"pure"},{"type":"function","name":"passesRule","inputs":[{"name":"_comptrollerProxy","type":"address","internalType":"address"},{"name":"_assets","type":"address[]","internalType":"address[]"}],"outputs":[{"name":"isValid_","type":"bool","internalType":"bool"}],"stateMutability":"view"},{"type":"function","name":"updateFundSettings","inputs":[{"name":"","type":"address","internalType":"address"},{"name":"","type":"bytes","internalType":"bytes"}],"outputs":[],"stateMutability":"nonpayable"},{"type":"function","name":"validateRule","inputs":[{"name":"_comptrollerProxy","type":"address","internalType":"address"},{"name":"","type":"uint8","internalType":"enum IPolicyManager.PolicyHook"},{"name":"_encodedArgs","type":"bytes","internalType":"bytes"}],"outputs":[{"name":"isValid_","type":"bool","internalType":"bool"}],"stateMutability":"nonpayable"},{"type":"event","name":"ListsSetForFund","inputs":[{"name":"comptrollerProxy","type":"address","indexed":true,"internalType":"address"},{"name":"listIds","type":"uint256[]","indexed":false,"internalType":"uint256[]"}],"anonymous":false}],"bytecode":{"object":"0x60c060405234801561001057600080fd5b5060405161114e38038061114e83398101604081905261002f9161004d565b6001600160601b0319606092831b8116608052911b1660a05261009e565b6000806040838503121561005f578182fd5b825161006a81610086565b602084015190925061007b81610086565b809150509250929050565b6001600160a01b038116811461009b57600080fd5b50565b60805160601c60a05160601c6110826100cc600039806102725250806101c052806103bf52506110826000f3fe608060405234801561001057600080fd5b50600436106100a95760003560e01c80637998a1c4116100715780637998a1c41461011c578063c18a633814610131578063cbf54bb214610144578063ceb9a0ad14610159578063d44ad6cb1461016c578063dffd7c6f14610174576100a9565b80630d4d7510146100ae5780630f5f6b4f146100c35780631ef92578146100d6578063579be718146100f45780637470893414610107575b600080fd5b6100c16100bc366004610b9c565b610194565b005b6100c16100d1366004610b9c565b6101b5565b6100de61020d565b6040516100eb9190610ecd565b60405180910390f35b6100de610102366004610bef565b610212565b61010f610270565b6040516100eb9190610e01565b610124610294565b6040516100eb9190610ed8565b6100de61013f366004610aef565b6102cb565b61014c610363565b6040516100eb9190610e47565b6100c16101673660046109be565b6103ba565b61010f6103bd565b6101876101823660046109be565b6103e1565b6040516100eb9190610e95565b60405162461bcd60e51b81526004016101ac90610f2b565b60405180910390fd5b336001600160a01b037f000000000000000000000000000000000000000000000000000000000000000016146101fd5760405162461bcd60e51b81526004016101ac90610f88565b61020883838361044b565b505050565b600190565b6000606061025584848080601f01602080910402602001604051908101604052809392919081815260200183838082843760009201919091525061070e92505050565b5050935050505061026686826102cb565b9695505050505050565b7f000000000000000000000000000000000000000000000000000000000000000090565b60408051808201909152601d81527f414c4c4f5745445f4153534554535f464f525f524544454d5054494f4e000000602082015290565b60006102d5610270565b6001600160a01b03166330bdd3866102ec856103e1565b846040518363ffffffff1660e01b815260040161030a929190610ea8565b60206040518083038186803b15801561032257600080fd5b505afa158015610336573d6000803e3d6000fd5b505050506040513d601f19601f8201168201806040525081019061035a9190610d0f565b90505b92915050565b6040805160018082528183019092526060916020808301908036833701905050905060038160008151811061039457fe5b602002602001019060098111156103a757fe5b908160098111156103b457fe5b90525090565b50565b7f000000000000000000000000000000000000000000000000000000000000000090565b6001600160a01b0381166000908152602081815260409182902080548351818402810184019094528084526060939283018282801561043f57602002820191906000526020600020905b81548152602001906001019080831161042b575b50505050509050919050565b60608061045a83850185610c55565b915091506060815183510167ffffffffffffffff8111801561047b57600080fd5b506040519080825280602002602001820160405280156104a5578160200160208202803683370190505b5090508051600014156104ca5760405162461bcd60e51b81526004016101ac90610fd1565b6001600160a01b03861660009081526020819052604090205415610509576001600160a01b038616600090815260208190526040812061050991610805565b60005b835181101561059c5783818151811061052157fe5b602002602001015182828151811061053557fe5b602002602001018181525050600080886001600160a01b03166001600160a01b0316815260200190815260200160002084828151811061057157fe5b602090810291909101810151825460018181018555600094855292909320909201919091550161050c565b508151156106c5576000866001600160a01b031663c98091876040518163ffffffff1660e01b815260040160206040518083038186803b1580156105df57600080fd5b505afa1580156105f3573d6000803e3d6000fd5b505050506040513d601f19601f8201168201806040525081019061061791906109e1565b905060005b83518110156106c257600081865101905061064a8386848151811061063d57fe5b6020026020010151610740565b84828151811061065657fe5b6020026020010181815250506000808a6001600160a01b03166001600160a01b0316815260200190815260200160002084828151811061069257fe5b6020908102919091018101518254600181810185556000948552929093209092019190915591909101905061061c565b50505b856001600160a01b03167fd63f5b55f54cdda3234eab3aa26d85b99854a43efea66e0c459220fd7b3a332f826040516106fe9190610e95565b60405180910390a2505050505050565b600080600060608060008680602001905181019061072c91906109fd565b949c939b5091995097509550909350915050565b600080606061074e846107e4565b9150915061075a610270565b6001600160a01b031663be68406e8684846040518463ffffffff1660e01b815260040161078993929190610e15565b602060405180830381600087803b1580156107a357600080fd5b505af11580156107b7573d6000803e3d6000fd5b505050506040513d601f19601f820116820180604052508101906107db9190610d77565b95945050505050565b60006060828060200190518101906107fc9190610d2f565b91509150915091565b50805460008255906000526020600020908101906103ba91905b80821115610833576000815560010161081f565b5090565b803561035d81611060565b600082601f830112610852578081fd5b815161086561086082611040565b611019565b81815291506020808301908481018184028601820187101561088657600080fd5b60005b848110156108ae57815161089c81611060565b84529282019290820190600101610889565b505050505092915050565b6000601f83818401126108ca578182fd5b82356108d861086082611040565b818152925060208084019085810160005b8481101561096b578135880189603f82011261090457600080fd5b8381013567ffffffffffffffff81111561091d57600080fd5b61092e818901601f19168601611019565b81815260408c8184860101111561094457600080fd5b828185018884013750600091810186019190915285525092820192908201906001016108e9565b50505050505092915050565b60008083601f840112610988578182fd5b50813567ffffffffffffffff81111561099f578182fd5b6020830191508360208285010111156109b757600080fd5b9250929050565b6000602082840312156109cf578081fd5b81356109da81611060565b9392505050565b6000602082840312156109f2578081fd5b81516109da81611060565b60008060008060008060c08789031215610a15578182fd5b8651610a2081611060565b80965050602080880151610a3381611060565b604089015160608a0151919750955067ffffffffffffffff80821115610a57578485fd5b610a638b838c01610842565b955060808a0151915080821115610a78578485fd5b508801601f81018a13610a89578384fd5b8051610a9761086082611040565b81815283810190838501858402850186018e1015610ab3578788fd5b8794505b83851015610ad5578051835260019490940193918501918501610ab7565b50809650505050505060a087015190509295509295509295565b60008060408385031215610b01578182fd5b8235610b0c81611060565b915060208381013567ffffffffffffffff811115610b28578283fd5b8401601f81018613610b38578283fd5b8035610b4661086082611040565b81815283810190838501858402850186018a1015610b62578687fd5b8694505b83851015610b8c57610b788a82610837565b835260019490940193918501918501610b66565b5080955050505050509250929050565b600080600060408486031215610bb0578283fd5b8335610bbb81611060565b9250602084013567ffffffffffffffff811115610bd6578283fd5b610be286828701610977565b9497909650939450505050565b60008060008060608587031215610c04578384fd5b8435610c0f81611060565b93506020850135600a8110610c22578384fd5b9250604085013567ffffffffffffffff811115610c3d578283fd5b610c4987828801610977565b95989497509550505050565b60008060408385031215610c67578182fd5b823567ffffffffffffffff80821115610c7e578384fd5b818501915085601f830112610c91578384fd5b8135610c9f61086082611040565b80828252602080830192508086018a828387028901011115610cbf578889fd5b8896505b84871015610ce1578035845260019690960195928101928101610cc3565b509096508701359350505080821115610cf8578283fd5b50610d05858286016108b9565b9150509250929050565b600060208284031215610d20578081fd5b815180151581146109da578182fd5b60008060408385031215610d41578182fd5b825160048110610d4f578283fd5b602084015190925067ffffffffffffffff811115610d6b578182fd5b610d0585828601610842565b600060208284031215610d88578081fd5b5051919050565b6000815180845260208085019450808401835b83811015610dc75781516001600160a01b031687529582019590820190600101610da2565b509495945050505050565b6000815180845260208085019450808401835b83811015610dc757815187529582019590820190600101610de5565b6001600160a01b0391909116815260200190565b6001600160a01b0384168152600060048410610e2d57fe5b836020830152606060408301526107db6060830184610d8f565b6020808252825182820181905260009190848201906040850190845b81811015610e89578351600a8110610e7757fe5b83529284019291840191600101610e63565b50909695505050505050565b60006020825261035a6020830184610dd2565b600060408252610ebb6040830185610dd2565b82810360208401526107db8185610d8f565b901515815260200190565b6000602080835283518082850152825b81811015610f0457858101830151858201604001528201610ee8565b81811115610f155783604083870101525b50601f01601f1916929092016040019392505050565b60208082526037908201527f75706461746546756e6453657474696e67733a2055706461746573206e6f742060408201527f616c6c6f77656420666f72207468697320706f6c696379000000000000000000606082015260800190565b60208082526029908201527f4f6e6c792074686520506f6c6963794d616e616765722063616e206d616b65206040820152681d1a1a5cc818d85b1b60ba1b606082015260800190565b60208082526028908201527f5f5f7570646174654c69737473466f7246756e643a204e6f206c6973747320736040820152671c1958da599a595960c21b606082015260800190565b60405181810167ffffffffffffffff8111828210171561103857600080fd5b604052919050565b600067ffffffffffffffff821115611056578081fd5b5060209081020190565b6001600160a01b03811681146103ba57600080fdfea164736f6c634300060c000a","linkReferences":{}},"methodIdentifiers":{"activateForFund(address)":"ceb9a0ad","addFundSettings(address,bytes)":"0f5f6b4f","canDisable()":"1ef92578","getAddressListRegistry()":"74708934","getListIdsForFund(address)":"dffd7c6f","getPolicyManager()":"d44ad6cb","identifier()":"7998a1c4","implementedHooks()":"cbf54bb2","passesRule(address,address[])":"c18a6338","updateFundSettings(address,bytes)":"0d4d7510","validateRule(address,uint8,bytes)":"579be718"},"id":219}