{"abi":[{"type":"constructor","inputs":[{"name":"_integrationManager","type":"address","internalType":"address"},{"name":"_addressProvider","type":"address","internalType":"address"},{"name":"_wethToken","type":"address","internalType":"address"}],"stateMutability":"nonpayable"},{"type":"receive","stateMutability":"payable"},{"type":"function","name":"CLAIM_REWARDS_SELECTOR","inputs":[],"outputs":[{"name":"","type":"bytes4","internalType":"bytes4"}],"stateMutability":"view"},{"type":"function","name":"LEND_AND_STAKE_SELECTOR","inputs":[],"outputs":[{"name":"","type":"bytes4","internalType":"bytes4"}],"stateMutability":"view"},{"type":"function","name":"LEND_SELECTOR","inputs":[],"outputs":[{"name":"","type":"bytes4","internalType":"bytes4"}],"stateMutability":"view"},{"type":"function","name":"REDEEM_SELECTOR","inputs":[],"outputs":[{"name":"","type":"bytes4","internalType":"bytes4"}],"stateMutability":"view"},{"type":"function","name":"STAKE_SELECTOR","inputs":[],"outputs":[{"name":"","type":"bytes4","internalType":"bytes4"}],"stateMutability":"view"},{"type":"function","name":"TAKE_MULTIPLE_ORDERS_SELECTOR","inputs":[],"outputs":[{"name":"","type":"bytes4","internalType":"bytes4"}],"stateMutability":"view"},{"type":"function","name":"TAKE_ORDER_SELECTOR","inputs":[],"outputs":[{"name":"","type":"bytes4","internalType":"bytes4"}],"stateMutability":"view"},{"type":"function","name":"UNSTAKE_AND_REDEEM_SELECTOR","inputs":[],"outputs":[{"name":"","type":"bytes4","internalType":"bytes4"}],"stateMutability":"view"},{"type":"function","name":"UNSTAKE_SELECTOR","inputs":[],"outputs":[{"name":"","type":"bytes4","internalType":"bytes4"}],"stateMutability":"view"},{"type":"function","name":"getCurveExchangeAddressProvider","inputs":[],"outputs":[{"name":"curveExchangeAddressProvider_","type":"address","internalType":"address"}],"stateMutability":"view"},{"type":"function","name":"getCurveExchangeWethToken","inputs":[],"outputs":[{"name":"curveExchangeWethToken_","type":"address","internalType":"address"}],"stateMutability":"view"},{"type":"function","name":"getIntegrationManager","inputs":[],"outputs":[{"name":"integrationManager_","type":"address","internalType":"address"}],"stateMutability":"view"},{"type":"function","name":"parseAssetsForAction","inputs":[{"name":"","type":"address","internalType":"address"},{"name":"_selector","type":"bytes4","internalType":"bytes4"},{"name":"_actionData","type":"bytes","internalType":"bytes"}],"outputs":[{"name":"spendAssetsHandleType_","type":"uint8","internalType":"enum IIntegrationManager.SpendAssetsHandleType"},{"name":"spendAssets_","type":"address[]","internalType":"address[]"},{"name":"spendAssetAmounts_","type":"uint256[]","internalType":"uint256[]"},{"name":"incomingAssets_","type":"address[]","internalType":"address[]"},{"name":"minIncomingAssetAmounts_","type":"uint256[]","internalType":"uint256[]"}],"stateMutability":"view"},{"type":"function","name":"takeOrder","inputs":[{"name":"_vaultProxy","type":"address","internalType":"address"},{"name":"_actionData","type":"bytes","internalType":"bytes"},{"name":"","type":"bytes","internalType":"bytes"}],"outputs":[],"stateMutability":"nonpayable"}],"bytecode":{"object":"0x60e060405234801561001057600080fd5b506040516114c43803806114c48339818101604052606081101561003357600080fd5b50805160208201516040909201516001600160601b0319606092831b811660805292821b831660a052901b1660c05260805160601c60a05160601c60c05160601c61140a6100ba600039806109335280610a325280610a675280610b9c5280610ca25280610d1852508061065c528061099f5250806104df52806108eb525061140a6000f3fe6080604052600436106100e15760003560e01c8063863e5ad01161007f578063c54efee511610059578063c54efee5146102c4578063e7c4569014610495578063f7d882b5146104aa578063fd070ae4146104bf576100e8565b8063863e5ad014610285578063b23228cf1461029a578063c32990a2146102af576100e8565b8063257cb1a3116100bb578063257cb1a3146102155780633ffc15911461022a57806340da225d1461023f57806372202e8f14610254576100e8565b806303e38a2b146100ed578063080456c1146101ce578063131461c014610200576100e8565b366100e857005b600080fd5b3480156100f957600080fd5b506101cc6004803603606081101561011057600080fd5b6001600160a01b03823516919081019060408101602082013564010000000081111561013b57600080fd5b82018360208201111561014d57600080fd5b8035906020019184600183028401116401000000008311171561016f57600080fd5b91939092909160208101903564010000000081111561018d57600080fd5b82018360208201111561019f57600080fd5b803590602001918460018302840111640100000000831117156101c157600080fd5b5090925090506104d4565b005b3480156101da57600080fd5b506101e36105a6565b604080516001600160e01b03199092168252519081900360200190f35b34801561020c57600080fd5b506101e36105ca565b34801561022157600080fd5b506101e36105ee565b34801561023657600080fd5b506101e3610612565b34801561024b57600080fd5b506101e3610636565b34801561026057600080fd5b5061026961065a565b604080516001600160a01b039092168252519081900360200190f35b34801561029157600080fd5b506101e361067e565b3480156102a657600080fd5b506101e36106a2565b3480156102bb57600080fd5b506101e36106c6565b3480156102d057600080fd5b50610360600480360360608110156102e757600080fd5b6001600160a01b03823516916001600160e01b03196020820135169181019060608101604082013564010000000081111561032157600080fd5b82018360208201111561033357600080fd5b8035906020019184600183028401116401000000008311171561035557600080fd5b5090925090506106ea565b6040518086600281111561037057fe5b815260200180602001806020018060200180602001858103855289818151815260200191508051906020019060200280838360005b838110156103bd5781810151838201526020016103a5565b50505050905001858103845288818151815260200191508051906020019060200280838360005b838110156103fc5781810151838201526020016103e4565b50505050905001858103835287818151815260200191508051906020019060200280838360005b8381101561043b578181015183820152602001610423565b50505050905001858103825286818151815260200191508051906020019060200280838360005b8381101561047a578181015183820152602001610462565b50505050905001995050505050505050505060405180910390f35b3480156104a157600080fd5b506102696108e9565b3480156104b657600080fd5b506101e361090d565b3480156104cb57600080fd5b50610269610931565b336001600160a01b037f0000000000000000000000000000000000000000000000000000000000000000161461053b5760405162461bcd60e51b81526004018080602001828103825260328152602001806113456032913960400191505060405180910390fd5b600080600080600061058289898080601f01602080910402602001604051908101604052809392919081815260200183838082843760009201919091525061095592505050565b9450945094509450945061059a8a868686868661099b565b50505050505050505050565b7f8334eb99be0145865eba9889fca2ee920288090caefff4cc776038e20ad9259a81565b7f29fa046e79524c3c5ac4c01df692c35e217802b2b13b21121b76cf0ef02b138c81565b7f099f75155f0e997bf83a7993a71d5e7e7540bd386fe1e84643a09ce6b412521981565b7ffa7dd04da627f433da73c4355ead9c75682a67a8fc84d3f6170ef0922f402d2481565b7fb9dfbaccbe5cd2a84fdcf1d15f23ef25d23086f5afbaa99516065ed4a5bbc7a381565b7f000000000000000000000000000000000000000000000000000000000000000090565b7f03e38a2bd7063d45c897edeafc330e71657502dd86434d3c37a489caf116af6981565b7f68e30677f607df46e87da13e15b637784cfa62374b653f35ab43d10361a2f83081565b7f0e7f692dad5b88fdee426250d6eae91207e56a2e8112b7364579bed1790e5bf481565b600060608080806001600160e01b031988166303e38a2b60e01b146107405760405162461bcd60e51b81526004018080602001828103825260278152602001806113d76027913960400191505060405180910390fd5b60008060008060006107878c8c8080601f01602080910402602001604051908101604052809392919081815260200183838082843760009201919091525061095592505050565b9398509196509450925090506001600160a01b0385166107d85760405162461bcd60e51b815260040180806020018281038252602e815260200180611317602e913960400191505060405180910390fd5b6040805160018082528183019092529060208083019080368337019050509850838960008151811061080657fe5b6001600160a01b0392909216602092830291909101820152604080516001808252818301909252918281019080368337019050509750828860008151811061084a57fe5b602090810291909101015260408051600180825281830190925290816020016020820280368337019050509650818760008151811061088557fe5b6001600160a01b039290921660209283029190910182015260408051600180825281830190925291828101908036833701905050955080866000815181106108c957fe5b602002602001018181525050600299505050505050945094509450945094565b7f000000000000000000000000000000000000000000000000000000000000000090565b7fc29fa9dde84204c2908778afd0613d802d31cf046179b88f6d2b4a4e507ea2d581565b7f000000000000000000000000000000000000000000000000000000000000000090565b60008060008060008580602001905160a081101561097257600080fd5b508051602082015160408301516060840151608090940151929a91995097509195509350915050565b60007f00000000000000000000000000000000000000000000000000000000000000006001600160a01b031663493f4f7460026040518263ffffffff1660e01b81526004018082815260200191505060206040518083038186803b158015610a0257600080fd5b505afa158015610a16573d6000803e3d6000fd5b505050506040513d6020811015610a2c57600080fd5b505190507f00000000000000000000000000000000000000000000000000000000000000006001600160a01b039081169086161415610b9a577f00000000000000000000000000000000000000000000000000000000000000006001600160a01b0316632e1a7d4d856040518263ffffffff1660e01b815260040180828152602001915050600060405180830381600087803b158015610acb57600080fd5b505af1158015610adf573d6000803e3d6000fd5b505060408051631a4c1ca360e01b81526001600160a01b038a8116600483015273eeeeeeeeeeeeeeeeeeeeeeeeeeeeeeeeeeeeeeee6024830152878116604483015260648201899052608482018790528b811660a483015291519185169350631a4c1ca39250879160c480830192602092919082900301818588803b158015610b6757600080fd5b505af1158015610b7b573d6000803e3d6000fd5b50505050506040513d6020811015610b9257600080fd5b50610df39050565b7f00000000000000000000000000000000000000000000000000000000000000006001600160a01b0316836001600160a01b03161415610d4957610bdf858286610dfc565b60408051631a4c1ca360e01b81526001600160a01b038881166004830152878116602483015273eeeeeeeeeeeeeeeeeeeeeeeeeeeeeeeeeeeeeeee604483015260648201879052608482018590523060a4830152915191831691631a4c1ca39160c4808201926020929091908290030181600087803b158015610c6157600080fd5b505af1158015610c75573d6000803e3d6000fd5b505050506040513d6020811015610c8b57600080fd5b505060408051630d0e30db60e41b815290513031917f00000000000000000000000000000000000000000000000000000000000000006001600160a01b03169163d0e30db0918491600480830192600092919082900301818588803b158015610cf357600080fd5b505af1158015610d07573d6000803e3d6000fd5b50610d439350506001600160a01b037f00000000000000000000000000000000000000000000000000000000000000001691508a905083610eba565b50610df3565b610d54858286610dfc565b60408051631a4c1ca360e01b81526001600160a01b03888116600483015287811660248301528581166044830152606482018790526084820185905289811660a4830152915191831691631a4c1ca39160c4808201926020929091908290030181600087803b158015610dc657600080fd5b505af1158015610dda573d6000803e3d6000fd5b505050506040513d6020811015610df057600080fd5b50505b50505050505050565b60408051636eb1769f60e11b81523060048201526001600160a01b038481166024830152915160009286169163dd62ed3e916044808301926020929190829003018186803b158015610e4d57600080fd5b505afa158015610e61573d6000803e3d6000fd5b505050506040513d6020811015610e7757600080fd5b5051905081811015610eb4578015610e9e57610e9e6001600160a01b038516846000610f11565b610eb46001600160a01b03851684600019610f11565b50505050565b604080516001600160a01b038416602482015260448082018490528251808303909101815260649091019091526020810180516001600160e01b031663a9059cbb60e01b179052610f0c908490611020565b505050565b801580610f97575060408051636eb1769f60e11b81523060048201526001600160a01b03848116602483015291519185169163dd62ed3e91604480820192602092909190829003018186803b158015610f6957600080fd5b505afa158015610f7d573d6000803e3d6000fd5b505050506040513d6020811015610f9357600080fd5b5051155b610fd25760405162461bcd60e51b81526004018080602001828103825260368152602001806113a16036913960400191505060405180910390fd5b604080516001600160a01b038416602482015260448082018490528251808303909101815260649091019091526020810180516001600160e01b031663095ea7b360e01b179052610f0c9084905b6060611075826040518060400160405280602081526020017f5361666545524332303a206c6f772d6c6576656c2063616c6c206661696c6564815250856001600160a01b03166110d19092919063ffffffff16565b805190915015610f0c5780806020019051602081101561109457600080fd5b5051610f0c5760405162461bcd60e51b815260040180806020018281038252602a815260200180611377602a913960400191505060405180910390fd5b60606110e084846000856110ea565b90505b9392505050565b60608247101561112b5760405162461bcd60e51b81526004018080602001828103825260268152602001806112f16026913960400191505060405180910390fd5b61113485611246565b611185576040805162461bcd60e51b815260206004820152601d60248201527f416464726573733a2063616c6c20746f206e6f6e2d636f6e7472616374000000604482015290519081900360640190fd5b60006060866001600160a01b031685876040518082805190602001908083835b602083106111c45780518252601f1990920191602091820191016111a5565b6001836020036101000a03801982511681845116808217855250505050505090500191505060006040518083038185875af1925050503d8060008114611226576040519150601f19603f3d011682016040523d82523d6000602084013e61122b565b606091505b509150915061123b82828661124c565b979650505050505050565b3b151590565b6060831561125b5750816110e3565b82511561126b5782518084602001fd5b8160405162461bcd60e51b81526004018080602001828103825283818151815260200191508051906020019080838360005b838110156112b557818101518382015260200161129d565b50505050905090810190601f1680156112e25780820380516001836020036101000a031916815260200191505b509250505060405180910390fdfe416464726573733a20696e73756666696369656e742062616c616e636520666f722063616c6c7061727365417373657473466f72416374696f6e3a204e6f20706f6f6c20616464726573732070726f76696465644f6e6c792074686520496e746567726174696f6e4d616e616765722063616e2063616c6c20746869732066756e6374696f6e5361666545524332303a204552433230206f7065726174696f6e20646964206e6f7420737563636565645361666545524332303a20617070726f76652066726f6d206e6f6e2d7a65726f20746f206e6f6e2d7a65726f20616c6c6f77616e63657061727365417373657473466f72416374696f6e3a205f73656c6563746f7220696e76616c6964a164736f6c634300060c000a","linkReferences":{}},"methodIdentifiers":{"CLAIM_REWARDS_SELECTOR()":"40da225d","LEND_AND_STAKE_SELECTOR()":"131461c0","LEND_SELECTOR()":"257cb1a3","REDEEM_SELECTOR()":"f7d882b5","STAKE_SELECTOR()":"3ffc1591","TAKE_MULTIPLE_ORDERS_SELECTOR()":"c32990a2","TAKE_ORDER_SELECTOR()":"863e5ad0","UNSTAKE_AND_REDEEM_SELECTOR()":"080456c1","UNSTAKE_SELECTOR()":"b23228cf","getCurveExchangeAddressProvider()":"72202e8f","getCurveExchangeWethToken()":"fd070ae4","getIntegrationManager()":"e7c45690","parseAssetsForAction(address,bytes4,bytes)":"c54efee5","takeOrder(address,bytes,bytes)":"03e38a2b"},"id":213}