{"abi":[{"type":"constructor","inputs":[{"name":"_fundDeployer","type":"address","internalType":"address"},{"name":"_valueInterpreter","type":"address","internalType":"address"},{"name":"_intermediaryAsset","type":"address","internalType":"address"},{"name":"_balancerVault","type":"address","internalType":"address"},{"name":"_poolFactories","type":"address[]","internalType":"address[]"}],"stateMutability":"nonpayable"},{"type":"function","name":"addPoolFactories","inputs":[{"name":"_poolFactories","type":"address[]","internalType":"address[]"}],"outputs":[],"stateMutability":"nonpayable"},{"type":"function","name":"calcUnderlyingValues","inputs":[{"name":"_derivative","type":"address","internalType":"address"},{"name":"_derivativeAmount","type":"uint256","internalType":"uint256"}],"outputs":[{"name":"underlyings_","type":"address[]","internalType":"address[]"},{"name":"underlyingAmounts_","type":"uint256[]","internalType":"uint256[]"}],"stateMutability":"nonpayable"},{"type":"function","name":"getFundDeployer","inputs":[],"outputs":[{"name":"fundDeployer_","type":"address","internalType":"address"}],"stateMutability":"view"},{"type":"function","name":"getOwner","inputs":[],"outputs":[{"name":"owner_","type":"address","internalType":"address"}],"stateMutability":"view"},{"type":"function","name":"getPoolFactories","inputs":[],"outputs":[{"name":"factories_","type":"address[]","internalType":"address[]"}],"stateMutability":"view"},{"type":"function","name":"isSupportedAsset","inputs":[{"name":"_asset","type":"address","internalType":"address"}],"outputs":[{"name":"isSupported_","type":"bool","internalType":"bool"}],"stateMutability":"view"},{"type":"function","name":"removePoolFactories","inputs":[{"name":"_poolFactories","type":"address[]","internalType":"address[]"}],"outputs":[],"stateMutability":"nonpayable"},{"type":"event","name":"PoolFactoryAdded","inputs":[{"name":"poolFactory","type":"address","indexed":false,"internalType":"address"}],"anonymous":false},{"type":"event","name":"PoolFactoryRemoved","inputs":[{"name":"poolFactory","type":"address","indexed":false,"internalType":"address"}],"anonymous":false}],"bytecode":{"object":"0x6101006040523480156200001257600080fd5b5060405162002fd838038062002fd8833981810160405281019062000038919062000397565b848073ffffffffffffffffffffffffffffffffffffffff1660808173ffffffffffffffffffffffffffffffffffffffff1660601b81525050508173ffffffffffffffffffffffffffffffffffffffff1660a08173ffffffffffffffffffffffffffffffffffffffff1660601b815250508273ffffffffffffffffffffffffffffffffffffffff1660c08173ffffffffffffffffffffffffffffffffffffffff1660601b815250508373ffffffffffffffffffffffffffffffffffffffff1660e08173ffffffffffffffffffffffffffffffffffffffff1660601b8152505062000127816200013260201b60201c565b505050505062000505565b60005b815181101562000246576200016e8282815181106200015057fe5b602002602001015160006200024a60201b62000c861790919060201c565b620002385760008282815181106200018257fe5b60200260200101519080600181540180825580915050600190039060005260206000200160009091909190916101000a81548173ffffffffffffffffffffffffffffffffffffffff021916908373ffffffffffffffffffffffffffffffffffffffff1602179055507fed48b5354ebc9ec871d70260374c2cdc552ec57a6b36e1dbc1fbdbe0921c136f8282815181106200021857fe5b60200260200101516040516200022f919062000443565b60405180910390a15b808060010191505062000135565b5050565b6000808380549050905060005b81811015620002e6578481815481106200026d57fe5b9060005260206000200160009054906101000a900473ffffffffffffffffffffffffffffffffffffffff1673ffffffffffffffffffffffffffffffffffffffff168473ffffffffffffffffffffffffffffffffffffffff161415620002d857600192505050620002ed565b808060010191505062000257565b5060009150505b92915050565b6000815190506200030481620004eb565b92915050565b600082601f8301126200031c57600080fd5b8151620003336200032d826200048e565b62000460565b915081818352602084019350602081019050838560208402820111156200035957600080fd5b60005b838110156200038d5781620003728882620002f3565b8452602084019350602083019250506001810190506200035c565b5050505092915050565b600080600080600060a08688031215620003b057600080fd5b6000620003c088828901620002f3565b9550506020620003d388828901620002f3565b9450506040620003e688828901620002f3565b9350506060620003f988828901620002f3565b925050608086015167ffffffffffffffff8111156200041757600080fd5b62000425888289016200030a565b9150509295509295909350565b6200043d81620004b7565b82525050565b60006020820190506200045a600083018462000432565b92915050565b6000604051905081810181811067ffffffffffffffff821117156200048457600080fd5b8060405250919050565b600067ffffffffffffffff821115620004a657600080fd5b602082029050602081019050919050565b6000620004c482620004cb565b9050919050565b600073ffffffffffffffffffffffffffffffffffffffff82169050919050565b620004f681620004b7565b81146200050257600080fd5b50565b60805160601c60a05160601c60c05160601c60e05160601c612a8262000556600039806106c65250806107ad52806108fc5250806102cb528061035d52508061099f5280610a445250612a826000f3fe608060405234801561001057600080fd5b506004361061007d5760003560e01c8063893d20e81161005b578063893d20e8146100ed57806397c0ac871461010b5780639be918e614610129578063ec421ea0146101595761007d565b806327082f73146100825780634c8f6529146100a0578063727212f6146100bc575b600080fd5b61008a610175565b60405161009791906126de565b60405180910390f35b6100ba60048036038101906100b5919061210b565b610203565b005b6100d660048036038101906100d191906120cf565b6102c6565b6040516100e4929190612700565b60405180910390f35b6100f561099b565b6040516101029190612655565b60405180910390f35b610113610a40565b6040516101209190612655565b60405180910390f35b610143600480360381019061013e919061207d565b610a68565b6040516101509190612737565b60405180910390f35b610173600480360381019061016e919061210b565b610b60565b005b606060008054806020026020016040519081016040528092919081815260200182805480156101f957602002820191906000526020600020905b8160009054906101000a900473ffffffffffffffffffffffffffffffffffffffff1673ffffffffffffffffffffffffffffffffffffffff16815260200190600101908083116101af575b5050505050905090565b61020b61099b565b73ffffffffffffffffffffffffffffffffffffffff163373ffffffffffffffffffffffffffffffffffffffff1614610278576040517f08c379a000000000000000000000000000000000000000000000000000000000815260040161026f9061276d565b60405180910390fd5b6102c2828280806020026020016040519081016040528093929190818152602001838360200280828437600081840152601f19601f82011690508083019250505050505050610d2a565b5050565b6060807f000000000000000000000000000000000000000000000000000000000000000073ffffffffffffffffffffffffffffffffffffffff1663fa6e671d306000806040518463ffffffff1660e01b815260040161032793929190612670565b600060405180830381600087803b15801561034157600080fd5b505af1158015610355573d6000803e3d6000fd5b5050505060607f000000000000000000000000000000000000000000000000000000000000000073ffffffffffffffffffffffffffffffffffffffff1663f94d46688673ffffffffffffffffffffffffffffffffffffffff166338fff2d06040518163ffffffff1660e01b815260040160206040518083038186803b1580156103dd57600080fd5b505afa1580156103f1573d6000803e3d6000fd5b505050506040513d601f19601f820116820180604052508101906104159190612239565b6040518263ffffffff1660e01b81526004016104319190612752565b60006040518083038186803b15801561044957600080fd5b505afa15801561045d573d6000803e3d6000fd5b505050506040513d6000823e3d601f19601f820116820180604052508101906104869190612150565b50509050600167ffffffffffffffff811180156104a257600080fd5b506040519080825280602002602001820160405280156104d15781602001602082028036833780820191505090505b509250600167ffffffffffffffff811180156104ec57600080fd5b5060405190808252806020026020018201604052801561051b5781602001602082028036833780820191505090505b50915060008573ffffffffffffffffffffffffffffffffffffffff166318160ddd6040518163ffffffff1660e01b815260040160206040518083038186803b15801561056657600080fd5b505afa15801561057a573d6000803e3d6000fd5b505050506040513d601f19601f8201168201806040525081019061059e9190612262565b905060008673ffffffffffffffffffffffffffffffffffffffff1663c0ff1a156040518163ffffffff1660e01b815260040160206040518083038186803b1580156105e857600080fd5b505afa1580156105fc573d6000803e3d6000fd5b505050506040513d601f19601f820116820180604052508101906106209190612262565b905060608773ffffffffffffffffffffffffffffffffffffffff1663f89f27ed6040518163ffffffff1660e01b815260040160006040518083038186803b15801561066a57600080fd5b505afa15801561067e573d6000803e3d6000fd5b505050506040513d6000823e3d601f19601f820116820180604052508101906106a791906121cf565b90506000670de0b6b3a7640000905060005b85518110156108d05760007f000000000000000000000000000000000000000000000000000000000000000073ffffffffffffffffffffffffffffffffffffffff16634c67e10688848151811061070c57fe5b602002602001015189858151811061072057fe5b602002602001015173ffffffffffffffffffffffffffffffffffffffff1663313ce5676040518163ffffffff1660e01b815260040160206040518083038186803b15801561076d57600080fd5b505afa158015610781573d6000803e3d6000fd5b505050506040513d601f19601f820116820180604052508101906107a5919061228b565b60ff16600a0a7f00000000000000000000000000000000000000000000000000000000000000006040518463ffffffff1660e01b81526004016107ea939291906126a7565b602060405180830381600087803b15801561080457600080fd5b505af1158015610818573d6000803e3d6000fd5b505050506040513d601f19601f8201168201806040525081019061083c9190612262565b90506108c06108b161087d86858151811061085357fe5b602002602001015187868151811061086757fe5b6020026020010151610e3390919063ffffffff16565b6108a387868151811061088c57fe5b602002602001015185610e3390919063ffffffff16565b61105b90919063ffffffff16565b8461112e90919063ffffffff16565b92505080806001019150506106b9565b5060006108f8856108ea868561112e90919063ffffffff16565b61105b90919063ffffffff16565b90507f00000000000000000000000000000000000000000000000000000000000000008860008151811061092857fe5b602002602001019073ffffffffffffffffffffffffffffffffffffffff16908173ffffffffffffffffffffffffffffffffffffffff1681525050610975818a61112e90919063ffffffff16565b8760008151811061098257fe5b6020026020010181815250505050505050509250929050565b60007f000000000000000000000000000000000000000000000000000000000000000073ffffffffffffffffffffffffffffffffffffffff1663893d20e86040518163ffffffff1660e01b815260040160206040518083038186803b158015610a0357600080fd5b505afa158015610a17573d6000803e3d6000fd5b505050506040513d601f19601f82011682018060405250810190610a3b91906120a6565b905090565b60007f0000000000000000000000000000000000000000000000000000000000000000905090565b6000805b600080549050811015610b555760008181548110610a8657fe5b9060005260206000200160009054906101000a900473ffffffffffffffffffffffffffffffffffffffff1673ffffffffffffffffffffffffffffffffffffffff16636634b753846040518263ffffffff1660e01b8152600401610ae99190612655565b60206040518083038186803b158015610b0157600080fd5b505afa158015610b15573d6000803e3d6000fd5b505050506040513d601f19601f82011682018060405250810190610b399190612210565b15610b48576001915050610b5b565b8080600101915050610a6c565b50600090505b919050565b610b6861099b565b73ffffffffffffffffffffffffffffffffffffffff163373ffffffffffffffffffffffffffffffffffffffff1614610bd5576040517f08c379a0000000000000000000000000000000000000000000000000000000008152600401610bcc9061276d565b60405180910390fd5b60005b82829050811015610c8157610c17838383818110610bf257fe5b9050602002016020810190610c07919061207d565b60006111c190919063ffffffff16565b15610c74577faf425cea5645b25ac2f49fdb1a46bf13689e763057f4e556078fea1cc2ecfb9b838383818110610c4957fe5b9050602002016020810190610c5e919061207d565b604051610c6b9190612655565b60405180910390a15b8080600101915050610bd8565b505050565b6000808380549050905060005b81811015610d1d57848181548110610ca757fe5b9060005260206000200160009054906101000a900473ffffffffffffffffffffffffffffffffffffffff1673ffffffffffffffffffffffffffffffffffffffff168473ffffffffffffffffffffffffffffffffffffffff161415610d1057600192505050610d24565b8080600101915050610c93565b5060009150505b92915050565b60005b8151811015610e2f57610d5d828281518110610d4557fe5b60200260200101516000610c8690919063ffffffff16565b610e22576000828281518110610d6f57fe5b60200260200101519080600181540180825580915050600190039060005260206000200160009091909190916101000a81548173ffffffffffffffffffffffffffffffffffffffff021916908373ffffffffffffffffffffffffffffffffffffffff1602179055507fed48b5354ebc9ec871d70260374c2cdc552ec57a6b36e1dbc1fbdbe0921c136f828281518110610e0457fe5b6020026020010151604051610e199190612655565b60405180910390a15b8080600101915050610d2d565b5050565b600080821415610e4d57670de0b6b3a76400009050611055565b6000831415610e5f5760009050611055565b600060ff84901c14610ea6576040517f08c379a0000000000000000000000000000000000000000000000000000000008152600401610e9d906127cd565b60405180910390fd5b600083905068056bc75e2d631000007f400000000000000000000000000000000000000000000000000000000000000081610edd57fe5b048310610f1f576040517f08c379a0000000000000000000000000000000000000000000000000000000008152600401610f16906127ad565b60405180910390fd5b600083905060008267016345785d8a0000670de0b6b3a764000003128015610f58575067016345785d8a0000670de0b6b3a76400000183125b15610fac576000610f6884611337565b9050670de0b6b3a764000083670de0b6b3a76400008381610f8557fe5b070281610f8e57fe5b0583670de0b6b3a76400008381610fa157fe5b050201915050610fba565b81610fb6846114e4565b0290505b670de0b6b3a76400008181610fcb57fe5b059050807ffffffffffffffffffffffffffffffffffffffffffffffffdc702bd3a30fc000013158015611007575068070c1cc73b00c800008113155b611046576040517f08c379a000000000000000000000000000000000000000000000000000000000815260040161103d9061278d565b60405180910390fd5b61104f8161197b565b93505050505b92915050565b6000808214156110a0576040517f08c379a00000000000000000000000000000000000000000000000000000000081526004016110979061284d565b60405180910390fd5b60008314156110b25760009050611128565b6000670de0b6b3a764000084029050670de0b6b3a76400008482816110d357fe5b0414611114576040517f08c379a000000000000000000000000000000000000000000000000000000000815260040161110b906127ed565b60405180910390fd5b600183600183038161112257fe5b04019150505b92915050565b6000808284029050600084148061114d57508284828161114a57fe5b04145b61118c576040517f08c379a00000000000000000000000000000000000000000000000000000000081526004016111839061280d565b60405180910390fd5b600081141561119f5760009150506111bb565b6001670de0b6b3a764000060018303816111b557fe5b04019150505b92915050565b6000808380549050905060005b8181101561132f578373ffffffffffffffffffffffffffffffffffffffff168582815481106111f957fe5b9060005260206000200160009054906101000a900473ffffffffffffffffffffffffffffffffffffffff1673ffffffffffffffffffffffffffffffffffffffff16141561132257600182038110156112da5784600183038154811061125a57fe5b9060005260206000200160009054906101000a900473ffffffffffffffffffffffffffffffffffffffff1685828154811061129157fe5b9060005260206000200160006101000a81548173ffffffffffffffffffffffffffffffffffffffff021916908373ffffffffffffffffffffffffffffffffffffffff1602179055505b848054806112e457fe5b6001900381819060005260206000200160006101000a81549073ffffffffffffffffffffffffffffffffffffffff021916905590556001925061132f565b80806001019150506111ce565b505092915050565b6000670de0b6b3a76400008202915060006ec097ce7bc90715b34b9f100000000083016ec097ce7bc90715b34b9f1000000000808503028161137557fe5b05905060006ec097ce7bc90715b34b9f10000000008283028161139457fe5b059050600082905060008190506ec097ce7bc90715b34b9f1000000000838302816113bb57fe5b059150600382816113c857fe5b05810190506ec097ce7bc90715b34b9f1000000000838302816113e757fe5b059150600582816113f457fe5b05810190506ec097ce7bc90715b34b9f10000000008383028161141357fe5b0591506007828161142057fe5b05810190506ec097ce7bc90715b34b9f10000000008383028161143f57fe5b0591506009828161144c57fe5b05810190506ec097ce7bc90715b34b9f10000000008383028161146b57fe5b059150600b828161147857fe5b05810190506ec097ce7bc90715b34b9f10000000008383028161149757fe5b059150600d82816114a457fe5b05810190506ec097ce7bc90715b34b9f1000000000838302816114c357fe5b059150600f82816114d057fe5b058101905060028102945050505050919050565b6000670de0b6b3a764000082121561151c5761151282670de0b6b3a764000080028161150c57fe5b056114e4565b6000039050611976565b6000670de0b6b3a7640000770195e54c5dd42177f53a27172fa9ec63026282700000000002831261157a57770195e54c5dd42177f53a27172fa9ec630262827000000000838161156857fe5b0592506806f05b59d3b2000000810190505b670de0b6b3a76400006b1425982cf597cd205cef73800283126115be576b1425982cf597cd205cef738083816115ac57fe5b0592506803782dace9d9000000810190505b6064810290506064830292506e01855144814a7ff805980ff00840008312611615576e01855144814a7ff805980ff008400068056bc75e2d6310000084028161160357fe5b05925068ad78ebc5ac62000000810190505b6b02df0ab5a80a22c61ab5a700831261165a576b02df0ab5a80a22c61ab5a70068056bc75e2d6310000084028161164857fe5b0592506856bc75e2d631000000810190505b693f1fce3da636ea5cf850831261169b57693f1fce3da636ea5cf85068056bc75e2d6310000084028161168957fe5b059250682b5e3af16b18800000810190505b690127fa27722cc06cc5e283126116dc57690127fa27722cc06cc5e268056bc75e2d631000008402816116ca57fe5b0592506815af1d78b58c400000810190505b68280e60114edb805d03831261171b5768280e60114edb805d0368056bc75e2d6310000084028161170957fe5b059250680ad78ebc5ac6200000810190505b680ebc5fb41746121110831261175a57680ebc5fb4174612111068056bc75e2d6310000084028161174857fe5b05925068056bc75e2d63100000810190505b6808f00f760a4b2db55d8312611799576808f00f760a4b2db55d68056bc75e2d6310000084028161178757fe5b0592506802b5e3af16b1880000810190505b6806f5f177578893793783126117d8576806f5f177578893793768056bc75e2d631000008402816117c657fe5b05925068015af1d78b58c40000810190505b6806248f33704b2866038312611816576806248f33704b28660368056bc75e2d6310000084028161180557fe5b05925067ad78ebc5ac620000810190505b6805c548670b9510e7ac8312611854576805c548670b9510e7ac68056bc75e2d6310000084028161184357fe5b0592506756bc75e2d6310000810190505b600068056bc75e2d63100000840168056bc75e2d63100000808603028161187757fe5b059050600068056bc75e2d631000008283028161189057fe5b0590506000829050600081905068056bc75e2d63100000838302816118b157fe5b059150600382816118be57fe5b058101905068056bc75e2d63100000838302816118d757fe5b059150600582816118e457fe5b058101905068056bc75e2d63100000838302816118fd57fe5b0591506007828161190a57fe5b058101905068056bc75e2d631000008383028161192357fe5b0591506009828161193057fe5b058101905068056bc75e2d631000008383028161194957fe5b059150600b828161195657fe5b058101905060028102905060648186018161196d57fe5b05955050505050505b919050565b60007ffffffffffffffffffffffffffffffffffffffffffffffffdc702bd3a30fc000082121580156119b6575068070c1cc73b00c800008213155b6119f5576040517f08c379a00000000000000000000000000000000000000000000000000000000081526004016119ec9061282d565b60405180910390fd5b6000821215611a2457611a0a8260000361197b565b670de0b6b3a7640000800281611a1c57fe5b059050611e95565b60006806f05b59d3b20000008312611a64576806f05b59d3b200000083039250770195e54c5dd42177f53a27172fa9ec6302628270000000009050611a9c565b6803782dace9d90000008312611a96576803782dace9d9000000830392506b1425982cf597cd205cef73809050611a9b565b600190505b5b606483029250600068056bc75e2d63100000905068ad78ebc5ac620000008412611af55768ad78ebc5ac620000008403935068056bc75e2d631000006e01855144814a7ff805980ff0084000820281611af157fe5b0590505b6856bc75e2d6310000008412611b37576856bc75e2d6310000008403935068056bc75e2d631000006b02df0ab5a80a22c61ab5a700820281611b3357fe5b0590505b682b5e3af16b188000008412611b7757682b5e3af16b188000008403935068056bc75e2d63100000693f1fce3da636ea5cf850820281611b7357fe5b0590505b6815af1d78b58c4000008412611bb7576815af1d78b58c4000008403935068056bc75e2d63100000690127fa27722cc06cc5e2820281611bb357fe5b0590505b680ad78ebc5ac62000008412611bf657680ad78ebc5ac62000008403935068056bc75e2d6310000068280e60114edb805d03820281611bf257fe5b0590505b68056bc75e2d631000008412611c355768056bc75e2d631000008403935068056bc75e2d63100000680ebc5fb41746121110820281611c3157fe5b0590505b6802b5e3af16b18800008412611c74576802b5e3af16b18800008403935068056bc75e2d631000006808f00f760a4b2db55d820281611c7057fe5b0590505b68015af1d78b58c400008412611cb35768015af1d78b58c400008403935068056bc75e2d631000006806f5f1775788937937820281611caf57fe5b0590505b600068056bc75e2d63100000905060008590508082019150600268056bc75e2d6310000087830281611ce157fe5b0581611ce957fe5b0590508082019150600368056bc75e2d6310000087830281611d0757fe5b0581611d0f57fe5b0590508082019150600468056bc75e2d6310000087830281611d2d57fe5b0581611d3557fe5b0590508082019150600568056bc75e2d6310000087830281611d5357fe5b0581611d5b57fe5b0590508082019150600668056bc75e2d6310000087830281611d7957fe5b0581611d8157fe5b0590508082019150600768056bc75e2d6310000087830281611d9f57fe5b0581611da757fe5b0590508082019150600868056bc75e2d6310000087830281611dc557fe5b0581611dcd57fe5b0590508082019150600968056bc75e2d6310000087830281611deb57fe5b0581611df357fe5b0590508082019150600a68056bc75e2d6310000087830281611e1157fe5b0581611e1957fe5b0590508082019150600b68056bc75e2d6310000087830281611e3757fe5b0581611e3f57fe5b0590508082019150600c68056bc75e2d6310000087830281611e5d57fe5b0581611e6557fe5b059050808201915060648468056bc75e2d6310000084860281611e8457fe5b050281611e8d57fe5b059450505050505b919050565b600081359050611ea981612a02565b92915050565b600081519050611ebe81612a02565b92915050565b60008083601f840112611ed657600080fd5b8235905067ffffffffffffffff811115611eef57600080fd5b602083019150836020820283011115611f0757600080fd5b9250929050565b600082601f830112611f1f57600080fd5b8151611f32611f2d8261289a565b61286d565b91508181835260208401935060208101905083856020840282011115611f5757600080fd5b60005b83811015611f875781611f6d8882611eaf565b845260208401935060208301925050600181019050611f5a565b5050505092915050565b600082601f830112611fa257600080fd5b8151611fb5611fb0826128c2565b61286d565b91508181835260208401935060208101905083856020840282011115611fda57600080fd5b60005b8381101561200a5781611ff08882612053565b845260208401935060208301925050600181019050611fdd565b5050505092915050565b60008151905061202381612a19565b92915050565b60008151905061203881612a30565b92915050565b60008135905061204d81612a47565b92915050565b60008151905061206281612a47565b92915050565b60008151905061207781612a5e565b92915050565b60006020828403121561208f57600080fd5b600061209d84828501611e9a565b91505092915050565b6000602082840312156120b857600080fd5b60006120c684828501611eaf565b91505092915050565b600080604083850312156120e257600080fd5b60006120f085828601611e9a565b92505060206121018582860161203e565b9150509250929050565b6000806020838503121561211e57600080fd5b600083013567ffffffffffffffff81111561213857600080fd5b61214485828601611ec4565b92509250509250929050565b60008060006060848603121561216557600080fd5b600084015167ffffffffffffffff81111561217f57600080fd5b61218b86828701611f0e565b935050602084015167ffffffffffffffff8111156121a857600080fd5b6121b486828701611f91565b92505060406121c586828701612053565b9150509250925092565b6000602082840312156121e157600080fd5b600082015167ffffffffffffffff8111156121fb57600080fd5b61220784828501611f91565b91505092915050565b60006020828403121561222257600080fd5b600061223084828501612014565b91505092915050565b60006020828403121561224b57600080fd5b600061225984828501612029565b91505092915050565b60006020828403121561227457600080fd5b600061228284828501612053565b91505092915050565b60006020828403121561229d57600080fd5b60006122ab84828501612068565b91505092915050565b60006122c083836122f3565b60208301905092915050565b60006122d88383612637565b60208301905092915050565b6122ed816129cc565b82525050565b6122fc8161296d565b82525050565b61230b8161296d565b82525050565b600061231c8261290a565b612326818561293a565b9350612331836128ea565b8060005b8381101561236257815161234988826122b4565b975061235483612920565b925050600181019050612335565b5085935050505092915050565b600061237a82612915565b612384818561294b565b935061238f836128fa565b8060005b838110156123c05781516123a788826122cc565b97506123b28361292d565b925050600181019050612393565b5085935050505092915050565b6123d68161297f565b82525050565b6123e58161298b565b82525050565b60006123f860498361295c565b91507f6f6e6c7946756e644465706c6f7965724f776e65723a204f6e6c79207468652060008301527f46756e644465706c6f796572206f776e65722063616e2063616c6c207468697360208301527f2066756e6374696f6e00000000000000000000000000000000000000000000006040830152606082019050919050565b600061248460158361295c565b91507f70726f64756374206f7574206f6620626f756e647300000000000000000000006000830152602082019050919050565b60006124c460108361295c565b91507f5f79206f7574206f6620626f756e6473000000000000000000000000000000006000830152602082019050919050565b600061250460108361295c565b91507f5f78206f7574206f6620626f756e6473000000000000000000000000000000006000830152602082019050919050565b6000612544600c8361295c565b91507f64697620696e7465726e616c00000000000000000000000000000000000000006000830152602082019050919050565b6000612584600c8361295c565b91507f6d756c206f766572666c6f7700000000000000000000000000000000000000006000830152602082019050919050565b60006125c460108361295c565b91507f696e76616c6964206578706f6e656e74000000000000000000000000000000006000830152602082019050919050565b6000612604600d8361295c565b91507f7a65726f206469766973696f6e000000000000000000000000000000000000006000830152602082019050919050565b612640816129b5565b82525050565b61264f816129b5565b82525050565b600060208201905061266a6000830184612302565b92915050565b60006060820190506126856000830186612302565b61269260208301856122e4565b61269f60408301846123cd565b949350505050565b60006060820190506126bc6000830186612302565b6126c96020830185612646565b6126d66040830184612302565b949350505050565b600060208201905081810360008301526126f88184612311565b905092915050565b6000604082019050818103600083015261271a8185612311565b9050818103602083015261272e818461236f565b90509392505050565b600060208201905061274c60008301846123cd565b92915050565b600060208201905061276760008301846123dc565b92915050565b60006020820190508181036000830152612786816123eb565b9050919050565b600060208201905081810360008301526127a681612477565b9050919050565b600060208201905081810360008301526127c6816124b7565b9050919050565b600060208201905081810360008301526127e6816124f7565b9050919050565b6000602082019050818103600083015261280681612537565b9050919050565b6000602082019050818103600083015261282681612577565b9050919050565b60006020820190508181036000830152612846816125b7565b9050919050565b60006020820190508181036000830152612866816125f7565b9050919050565b6000604051905081810181811067ffffffffffffffff8211171561289057600080fd5b8060405250919050565b600067ffffffffffffffff8211156128b157600080fd5b602082029050602081019050919050565b600067ffffffffffffffff8211156128d957600080fd5b602082029050602081019050919050565b6000819050602082019050919050565b6000819050602082019050919050565b600081519050919050565b600081519050919050565b6000602082019050919050565b6000602082019050919050565b600082825260208201905092915050565b600082825260208201905092915050565b600082825260208201905092915050565b600061297882612995565b9050919050565b60008115159050919050565b6000819050919050565b600073ffffffffffffffffffffffffffffffffffffffff82169050919050565b6000819050919050565b600060ff82169050919050565b60006129d7826129de565b9050919050565b60006129e9826129f0565b9050919050565b60006129fb82612995565b9050919050565b612a0b8161296d565b8114612a1657600080fd5b50565b612a228161297f565b8114612a2d57600080fd5b50565b612a398161298b565b8114612a4457600080fd5b50565b612a50816129b5565b8114612a5b57600080fd5b50565b612a67816129bf565b8114612a7257600080fd5b5056fea164736f6c634300060c000a","linkReferences":{}},"methodIdentifiers":{"addPoolFactories(address[])":"4c8f6529","calcUnderlyingValues(address,uint256)":"727212f6","getFundDeployer()":"97c0ac87","getOwner()":"893d20e8","getPoolFactories()":"27082f73","isSupportedAsset(address)":"9be918e6","removePoolFactories(address[])":"ec421ea0"},"id":285}