{"abi":[{"type":"constructor","inputs":[{"name":"_valueInterpreter","type":"address","internalType":"address"},{"name":"_nonfungiblePositionManager","type":"address","internalType":"address"}],"stateMutability":"nonpayable"},{"type":"function","name":"getUniswapV3NonfungiblePositionManager","inputs":[],"outputs":[{"name":"nonfungiblePositionManager_","type":"address","internalType":"address"}],"stateMutability":"view"},{"type":"function","name":"getValueInterpreter","inputs":[],"outputs":[{"name":"valueInterpreter_","type":"address","internalType":"address"}],"stateMutability":"view"},{"type":"function","name":"parseAssetsForAction","inputs":[{"name":"_externalPosition","type":"address","internalType":"address"},{"name":"_actionId","type":"uint256","internalType":"uint256"},{"name":"_encodedActionArgs","type":"bytes","internalType":"bytes"}],"outputs":[{"name":"assetsToTransfer_","type":"address[]","internalType":"address[]"},{"name":"amountsToTransfer_","type":"uint256[]","internalType":"uint256[]"},{"name":"assetsToReceive_","type":"address[]","internalType":"address[]"}],"stateMutability":"view"},{"type":"function","name":"parseInitArgs","inputs":[{"name":"","type":"address","internalType":"address"},{"name":"","type":"bytes","internalType":"bytes"}],"outputs":[{"name":"","type":"bytes","internalType":"bytes"}],"stateMutability":"view"}],"bytecode":{"object":"0x60c060405234801561001057600080fd5b50604051610bc3380380610bc38339818101604052604081101561003357600080fd5b5080516020909101516001600160601b0319606091821b811660805291901b1660a05260805160601c60a05160601c610b4461007f600039806103675250806103435250610b446000f3fe608060405234801561001057600080fd5b506004361061004c5760003560e01c80635438cc7214610051578063875fb4b314610075578063bbd2d6461461007d578063db16c72e14610216575b600080fd5b610059610341565b604080516001600160a01b039092168252519081900360200190f35b610059610365565b6101386004803603606081101561009357600080fd5b6001600160a01b03823516916020810135918101906060810160408201356401000000008111156100c357600080fd5b8201836020820111156100d557600080fd5b803590602001918460018302840111640100000000831117156100f757600080fd5b91908080601f016020809104026020016040519081016040528093929190818152602001838380828437600092019190915250929550610389945050505050565b60405180806020018060200180602001848103845287818151815260200191508051906020019060200280838360005b83811015610180578181015183820152602001610168565b50505050905001848103835286818151815260200191508051906020019060200280838360005b838110156101bf5781810151838201526020016101a7565b50505050905001848103825285818151815260200191508051906020019060200280838360005b838110156101fe5781810151838201526020016101e6565b50505050905001965050505050505060405180910390f35b6102cc6004803603604081101561022c57600080fd5b6001600160a01b03823516919081019060408101602082013564010000000081111561025757600080fd5b82018360208201111561026957600080fd5b8035906020019184600183028401116401000000008311171561028b57600080fd5b91908080601f0160208091040260200160405190810160405280939291908181526020018383808284376000920191909152509295506107ca945050505050565b6040805160208082528351818301528351919283929083019185019080838360005b838110156103065781810151838201526020016102ee565b50505050905090810190601f1680156103335780820380516001836020036101000a031916815260200191505b509250505060405180910390f35b7f000000000000000000000000000000000000000000000000000000000000000090565b7f000000000000000000000000000000000000000000000000000000000000000090565b60608080846104c5576000806000806103a1886107d2565b505096509650505050935093506103b88484610876565b6103f35760405162461bcd60e51b8152600401808060200182810382526026815260200180610b126026913960400191505060405180910390fd5b6040805160028082526060820183529091602083019080368337019050509650838760008151811061042157fe5b60200260200101906001600160a01b031690816001600160a01b031681525050828760018151811061044f57fe5b6001600160a01b0392909216602092830291909101820152604080516002808252606082018352909290919083019080368337019050509550818660008151811061049657fe5b60200260200101818152505080866001815181106104b057fe5b602002602001018181525050505050506107c1565b60018514156106d25760008060006104dc87610aa3565b50509250925092506104ec610341565b6001600160a01b0316636352211e846040518263ffffffff1660e01b81526004018082815260200191505060206040518083038186803b15801561052f57600080fd5b505afa158015610543573d6000803e3d6000fd5b505050506040513d602081101561055957600080fd5b50516001600160a01b038a81169116146105a45760405162461bcd60e51b8152600401808060200182810382526028815260200180610aea6028913960400191505060405180910390fd5b604080516002808252606082018352909160208301908036833750506040805160028082526060820183529399509291506020830190803683375050604080516377f9229560e11b81526004810187905281519398506001600160a01b038d169363eff2452a935060248083019392829003018186803b15801561062757600080fd5b505afa15801561063b573d6000803e3d6000fd5b505050506040513d604081101561065157600080fd5b5080516020909101518751889060009061066757fe5b602002602001018860018151811061067b57fe5b6001600160a01b039384166020918202929092010152911690528451829086906000906106a457fe5b60200260200101818152505080856001815181106106be57fe5b6020026020010181815250505050506107c1565b60008480602001905160208110156106e957600080fd5b505160408051600280825260608201835292935091906020830190803683375050604080516377f9229560e11b81526004810185905281519395506001600160a01b038b169363eff2452a935060248083019392829003018186803b15801561075157600080fd5b505afa158015610765573d6000803e3d6000fd5b505050506040513d604081101561077b57600080fd5b5080516020909101518351849060009061079157fe5b60200260200101846001815181106107a557fe5b6001600160a01b03938416602091820292909201015291169052505b93509350939050565b606092915050565b6000806000806000806000806000898060200190516101208110156107f657600080fd5b810190808051906020019092919080519060200190929190805190602001909291908051906020019092919080519060200190929190805190602001909291908051906020019092919080519060200190929190805190602001909291905050509850985098509850985098509850985098509193959799909294969850565b600080610881610365565b9050806001600160a01b031663c496f8e8856040518263ffffffff1660e01b815260040180826001600160a01b0316815260200191505060206040518083038186803b1580156108d057600080fd5b505afa1580156108e4573d6000803e3d6000fd5b505050506040513d60208110156108fa57600080fd5b50511561098e57806001600160a01b0316639be918e6846040518263ffffffff1660e01b815260040180826001600160a01b0316815260200191505060206040518083038186803b15801561094e57600080fd5b505afa158015610962573d6000803e3d6000fd5b505050506040513d602081101561097857600080fd5b505115610989576001915050610a9d565b610a97565b806001600160a01b03166364b01dc1856040518263ffffffff1660e01b815260040180826001600160a01b0316815260200191505060206040518083038186803b1580156109db57600080fd5b505afa1580156109ef573d6000803e3d6000fd5b505050506040513d6020811015610a0557600080fd5b50518015610a885750806001600160a01b031663c496f8e8846040518263ffffffff1660e01b815260040180826001600160a01b0316815260200191505060206040518083038186803b158015610a5b57600080fd5b505afa158015610a6f573d6000803e3d6000fd5b505050506040513d6020811015610a8557600080fd5b50515b15610a97576001915050610a9d565b60009150505b92915050565b60008060008060008580602001905160a0811015610ac057600080fd5b508051602082015160408301516060840151608090940151929a9199509750919550935091505056fe5f5f6465636f6465456e636f646564416374696f6e417267733a20496e76616c6964206e667449647061727365417373657473466f72416374696f6e3a20556e737570706f727465642070616972a164736f6c6343000706000a","linkReferences":{}},"methodIdentifiers":{"getUniswapV3NonfungiblePositionManager()":"5438cc72","getValueInterpreter()":"875fb4b3","parseAssetsForAction(address,uint256,bytes)":"bbd2d646","parseInitArgs(address,bytes)":"db16c72e"},"id":10}