{"abi":[{"type":"constructor","inputs":[{"name":"_allowedMorphoBlueVaultsListId","type":"uint256","internalType":"uint256"},{"name":"_morphoBlueAddress","type":"address","internalType":"address"},{"name":"_uintListRegistryAddress","type":"address","internalType":"address"}],"stateMutability":"nonpayable"},{"type":"function","name":"getDebtAssets","inputs":[],"outputs":[{"name":"assets_","type":"address[]","internalType":"address[]"},{"name":"amounts_","type":"uint256[]","internalType":"uint256[]"}],"stateMutability":"view"},{"type":"function","name":"getManagedAssets","inputs":[],"outputs":[{"name":"assets_","type":"address[]","internalType":"address[]"},{"name":"amounts_","type":"uint256[]","internalType":"uint256[]"}],"stateMutability":"view"},{"type":"function","name":"getMarketIds","inputs":[],"outputs":[{"name":"marketIds_","type":"bytes32[]","internalType":"bytes32[]"}],"stateMutability":"view"},{"type":"function","name":"init","inputs":[{"name":"","type":"bytes","internalType":"bytes"}],"outputs":[],"stateMutability":"nonpayable"},{"type":"function","name":"receiveCallFromVault","inputs":[{"name":"_actionData","type":"bytes","internalType":"bytes"}],"outputs":[],"stateMutability":"nonpayable"},{"type":"event","name":"MarketIdAdded","inputs":[{"name":"marketId","type":"bytes32","indexed":true,"internalType":"bytes32"}],"anonymous":false},{"type":"event","name":"MarketIdRemoved","inputs":[{"name":"marketId","type":"bytes32","indexed":true,"internalType":"bytes32"}],"anonymous":false},{"type":"error","name":"DisallowedMarket","inputs":[]},{"type":"error","name":"InvalidActionId","inputs":[]}],"bytecode":{"object":"0x60e06040523480156200001157600080fd5b5060405162002c8538038062002c8583398101604081905262000034916200006f565b6080929092526001600160a01b0390811660a0521660c052620000b0565b80516001600160a01b03811681146200006a57600080fd5b919050565b6000806000606084860312156200008557600080fd5b83519250620000976020850162000052565b9150620000a76040850162000052565b90509250925092565b60805160a05160c051612b196200016c60003960006107310152600081816101350152818161023b015281816102f2015281816104c10152818161058f0152818161063e01528181610cbe01528181610d4401528181610d8001528181610e2d01528181610f4c01528181610fd401528181611010015281816110a8015281816111b8015281816112d30152818161134a0152818161139701528181611429015281816114c40152611ab5015260006107040152612b196000f3fe608060405234801561001057600080fd5b50600436106100575760003560e01c8063398c6f7e1461005c5780634ddf47d41461007a57806380daddb81461008d578063e5c23a97146100a3578063ecd658b4146100b6575b600080fd5b6100646100be565b60405161007191906122e0565b60405180910390f35b61008b610088366004612393565b50565b005b610095610116565b604051610071929190612413565b61008b6100b1366004612393565b610407565b6100956104a4565b6060600080548060200260200160405190810160405280929190818152602001828054801561010c57602002820191906000526020600020905b8154815260200190600101908083116100f8575b5050505050905090565b60608060006101236100be565b905060005b81518110156103f35760007f00000000000000000000000000000000000000000000000000000000000000006001600160a01b03166393c5206284848151811061017457610174612497565b6020026020010151306040518363ffffffff1660e01b81526004016101ac9291909182526001600160a01b0316602082015260400190565b606060405180830381865afa1580156101c9573d6000803e3d6000fd5b505050506040513d601f19601f820116820180604052508101906101ed91906124c9565b805190915015801561020a575060408101516001600160801b0316155b1561021557506103e1565b61023783838151811061022a5761022a612497565b60200260200101516106f5565b60007f00000000000000000000000000000000000000000000000000000000000000006001600160a01b0316632c3c915785858151811061027a5761027a612497565b60200260200101516040518263ffffffff1660e01b81526004016102a091815260200190565b60a060405180830381865afa1580156102bd573d6000803e3d6000fd5b505050506040513d601f19601f820116820180604052508101906102e19190612545565b8251909150156103965760006103767f00000000000000000000000000000000000000000000000000000000000000006040518060a0016040528085600001516001600160a01b0316815260200185602001516001600160a01b0316815260200185604001516001600160a01b0316815260200185606001516001600160a01b031681526020018560800151815250306107c1565b8251909150610386908890610815565b96506103928682610907565b9550505b60408201516001600160801b0316156103de5760208101516103b9908790610815565b95506103db82604001516001600160801b03168661090790919063ffffffff16565b94505b50505b806103eb816125e5565b915050610128565b506103fe83836109d7565b92509250509091565b6000808280602001905181019061041e9190612622565b9092509050816104365761043181610c8c565b505050565b600182036104475761043181610e06565b600282036104585761043181610f1a565b600382036104695761043181611081565b6004820361047a5761043181611180565b6005820361048b57610431816112a1565b60405163703469d160e11b815260040160405180910390fd5b60608060006104b16100be565b905060005b81518110156103f3577f00000000000000000000000000000000000000000000000000000000000000006001600160a01b03166393c5206283838151811061050057610500612497565b6020026020010151306040518363ffffffff1660e01b81526004016105389291909182526001600160a01b0316602082015260400190565b606060405180830381865afa158015610555573d6000803e3d6000fd5b505050506040513d601f19601f8201168201806040525081019061057991906124c9565b602001516001600160801b0316156106e35760007f00000000000000000000000000000000000000000000000000000000000000006001600160a01b0316632c3c91578484815181106105ce576105ce612497565b60200260200101516040518263ffffffff1660e01b81526004016105f491815260200190565b60a060405180830381865afa158015610611573d6000803e3d6000fd5b505050506040513d601f19601f820116820180604052508101906106359190612545565b905060006106c27f00000000000000000000000000000000000000000000000000000000000000006040518060a0016040528085600001516001600160a01b0316815260200185602001516001600160a01b0316815260200185604001516001600160a01b0316815260200185606001516001600160a01b03168152602001856080015181525030611554565b82519091506106d2908790610815565b95506106de8582610907565b945050505b806106ed816125e5565b9150506104b6565b604051630a1777cf60e21b81527f00000000000000000000000000000000000000000000000000000000000000006004820152602481018290527f00000000000000000000000000000000000000000000000000000000000000006001600160a01b03169063285ddf3c90604401602060405180830381865afa158015610780573d6000803e3d6000fd5b505050506040513d601f19601f820116820180604052508101906107a491906126a5565b61008857604051633f27222b60e01b815260040160405180910390fd5b6000806107cf8460a0902090565b905060006107e76001600160a01b038716838661159d565b90506000806107f6888861164d565b50919350915061080990508383836118d6565b98975050505050505050565b60608251600161082591906126c7565b67ffffffffffffffff81111561083d5761083d612324565b604051908082528060200260200182016040528015610866578160200160208202803683370190505b50905060005b83518110156108cb5783818151811061088757610887612497565b60200260200101518282815181106108a1576108a1612497565b6001600160a01b0390921660209283029190910190910152806108c3816125e5565b91505061086c565b5081818451815181106108e0576108e0612497565b60200260200101906001600160a01b031690816001600160a01b0316815250505b92915050565b60608251600161091791906126c7565b67ffffffffffffffff81111561092f5761092f612324565b604051908082528060200260200182016040528015610958578160200160208202803683370190505b50905060005b83518110156109b05783818151811061097957610979612497565b602002602001015182828151811061099357610993612497565b6020908102919091010152806109a8816125e5565b91505061095e565b5081818451815181106109c5576109c5612497565b60200260200101818152505092915050565b606080835160000315610c85576001805b8551811015610a8a576000805b82811015610a6357878181518110610a0f57610a0f612497565b60200260200101516001600160a01b0316888481518110610a3257610a32612497565b60200260200101516001600160a01b031603610a515760019150610a63565b80610a5b816125e5565b9150506109f5565b5080610a775782610a73816125e5565b9350505b5080610a82816125e5565b9150506109e8565b508067ffffffffffffffff811115610aa457610aa4612324565b604051908082528060200260200182016040528015610acd578160200160208202803683370190505b5092508067ffffffffffffffff811115610ae957610ae9612324565b604051908082528060200260200182016040528015610b12578160200160208202803683370190505b5091506000805b8651811015610c81576000805b83811015610bd757868181518110610b4057610b40612497565b60200260200101516001600160a01b0316898481518110610b6357610b63612497565b60200260200101516001600160a01b031603610bc55760019150878381518110610b8f57610b8f612497565b6020026020010151868281518110610ba957610ba9612497565b60200260200101818151610bbd91906126c7565b905250610bd7565b80610bcf816125e5565b915050610b26565b5080610c6e57878281518110610bef57610bef612497565b6020026020010151868481518110610c0957610c09612497565b60200260200101906001600160a01b031690816001600160a01b031681525050868281518110610c3b57610c3b612497565b6020026020010151858481518110610c5557610c55612497565b602090810291909101015282610c6a816125e5565b9350505b5080610c79816125e5565b915050610b19565b5050505b9250929050565b600080610c9883611903565b91509150610ca5826106f5565b604051632c3c915760e01b8152600481018390526000907f00000000000000000000000000000000000000000000000000000000000000006001600160a01b031690632c3c91579060240160a060405180830381865afa158015610d0d573d6000803e3d6000fd5b505050506040513d601f19601f82011682018060405250810190610d319190612545565b9050610d3c83611923565b8051610d69907f0000000000000000000000000000000000000000000000000000000000000000846119e7565b60405163a99aad8960e01b81526001600160a01b037f0000000000000000000000000000000000000000000000000000000000000000169063a99aad8990610dbc90849086906000903090600401612719565b60408051808303816000875af1158015610dda573d6000803e3d6000fd5b505050506040513d601f19601f82011682018060405250810190610dfe9190612761565b505050505050565b600080610e1283611903565b604051632c3c915760e01b81526004810183905291935091507f00000000000000000000000000000000000000000000000000000000000000006001600160a01b031690635c2bea49908290632c3c91579060240160a060405180830381865afa158015610e84573d6000803e3d6000fd5b505050506040513d601f19601f82011682018060405250810190610ea89190612545565b60008430336040518663ffffffff1660e01b8152600401610ecd959493929190612785565b60408051808303816000875af1158015610eeb573d6000803e3d6000fd5b505050506040513d601f19601f82011682018060405250810190610f0f9190612761565b505061043182611a96565b600080610f2683611903565b91509150610f33826106f5565b604051632c3c915760e01b8152600481018390526000907f00000000000000000000000000000000000000000000000000000000000000006001600160a01b031690632c3c91579060240160a060405180830381865afa158015610f9b573d6000803e3d6000fd5b505050506040513d601f19601f82011682018060405250810190610fbf9190612545565b9050610fca83611923565b610ff981602001517f0000000000000000000000000000000000000000000000000000000000000000846119e7565b60405163238d657960e01b81526001600160a01b037f0000000000000000000000000000000000000000000000000000000000000000169063238d657990611049908490869030906004016127c1565b600060405180830381600087803b15801561106357600080fd5b505af1158015611077573d6000803e3d6000fd5b5050505050505050565b60008061108d83611903565b604051632c3c915760e01b81526004810183905291935091507f00000000000000000000000000000000000000000000000000000000000000006001600160a01b031690638720316d908290632c3c91579060240160a060405180830381865afa1580156110ff573d6000803e3d6000fd5b505050506040513d601f19601f820116820180604052508101906111239190612545565b8330336040518563ffffffff1660e01b81526004016111459493929190612803565b600060405180830381600087803b15801561115f57600080fd5b505af1158015611173573d6000803e3d6000fd5b5050505061043182611a96565b60008061118c83611903565b91509150611199826106f5565b6111a282611923565b604051632c3c915760e01b8152600481018390527f00000000000000000000000000000000000000000000000000000000000000006001600160a01b0316906350d8cd4b908290632c3c91579060240160a060405180830381865afa15801561120f573d6000803e3d6000fd5b505050506040513d601f19601f820116820180604052508101906112339190612545565b83600030336040518663ffffffff1660e01b8152600401611258959493929190612785565b60408051808303816000875af1158015611276573d6000803e3d6000fd5b505050506040513d601f19601f8201168201806040525081019061129a9190612761565b5050505050565b6000806112ad83611903565b604051632c3c915760e01b81526004810183905291935091506000906001600160a01b037f00000000000000000000000000000000000000000000000000000000000000001690632c3c91579060240160a060405180830381865afa15801561131a573d6000803e3d6000fd5b505050506040513d601f19601f8201168201806040525081019061133e9190612545565b905061136f81600001517f0000000000000000000000000000000000000000000000000000000000000000846119e7565b60001982036114ad576040516349e2903160e11b8152600481018490523060248201526000907f00000000000000000000000000000000000000000000000000000000000000006001600160a01b0316906393c5206290604401606060405180830381865afa1580156113e6573d6000803e3d6000fd5b505050506040513d601f19601f8201168201806040525081019061140a91906124c9565b60208101516040516320b76e8160e01b81529192506001600160a01b037f000000000000000000000000000000000000000000000000000000000000000016916320b76e81916114639186916000913090600401612837565b60408051808303816000875af1158015611481573d6000803e3d6000fd5b505050506040513d601f19601f820116820180604052508101906114a59190612761565b505050611545565b6040516320b76e8160e01b81526001600160a01b037f000000000000000000000000000000000000000000000000000000000000000016906320b76e819061150090849086906000903090600401612719565b60408051808303816000875af115801561151e573d6000803e3d6000fd5b505050506040513d601f19601f820116820180604052508101906115429190612761565b50505b61154e83611a96565b50505050565b6000806115628460a0902090565b9050600061157a6001600160a01b0387168386611b9d565b9050600080611589888861164d565b909450925061080991508490508383611c51565b6000806115b26115ad8585611c76565b611cf1565b604051637784c68560e01b81529091506001600160a01b03861690637784c685906115e19084906004016122e0565b600060405180830381865afa1580156115fe573d6000803e3d6000fd5b505050506040513d6000823e601f3d908101601f191682016040526116269190810190612888565b60008151811061163857611638612497565b602002602001015160001c9150509392505050565b60008060008060006116608660a0902090565b604051632e3071cd60e11b8152600481018290529091506000906001600160a01b03891690635c60e39a9060240160c060405180830381865afa1580156116ab573d6000803e3d6000fd5b505050506040513d601f19601f820116820180604052508101906116cf9190612922565b9050600081608001516001600160801b0316426116ec91906129c1565b90508015801590611709575060408201516001600160801b031615155b8015611721575060608801516001600160a01b031615155b156118a2576060880151604051638c00bf6b60e01b81526000916001600160a01b031690638c00bf6b9061175b908c9087906004016129d4565b602060405180830381865afa158015611778573d6000803e3d6000fd5b505050506040513d601f19601f8201168201806040525081019061179c9190612a3b565b905060006117c16117ad8385611d3c565b60408601516001600160801b031690611da7565b90506117cc81611dbc565b846040018181516117dd9190612a54565b6001600160801b03169052506117f281611dbc565b84518590611801908390612a54565b6001600160801b0390811690915260a08601511615905061189f57600061183e8560a001516001600160801b031683611da790919063ffffffff16565b905060006118748287600001516001600160801b031661185e91906129c1565b60208801518491906001600160801b0316611e22565b905061187f81611dbc565b866020018181516118909190612a54565b6001600160801b031690525050505b50505b508051602082015160408301516060909301516001600160801b039283169b9183169a509282169850911695509350505050565b60006118fb6118e66001856126c7565b6118f3620f4240856126c7565b869190611e3f565b949350505050565b6000808280602001905181019061191a9190612761565b91509150915091565b61198681600080548060200260200160405190810160405280929190818152602001828054801561197357602002820191906000526020600020905b81548152602001906001019080831161195f575b5050505050611e5690919063ffffffff16565b61008857600080546001810182558180527f290decd9548b62a8d60345a988386fc84ba6bc95484008f6362f93160ef3e5630182905560405182917f6e6d24d06dcdbc8f1b4ca0aba4a9841c8306f67855dc235cbc58ecbef0c17fae91a250565b604051636eb1769f60e11b81523060048201526001600160a01b0383811660248301526000919085169063dd62ed3e90604401602060405180830381865afa158015611a37573d6000803e3d6000fd5b505050506040513d601f19601f82011682018060405250810190611a5b9190612a3b565b90508181101561154e578015611a8057611a806001600160a01b038516846000611ea9565b61154e6001600160a01b03851684600019611ea9565b6040516349e2903160e11b8152600481018290523060248201526000907f00000000000000000000000000000000000000000000000000000000000000006001600160a01b0316906393c5206290604401606060405180830381865afa158015611b04573d6000803e3d6000fd5b505050506040513d601f19601f82011682018060405250810190611b2891906124c9565b8051909150158015611b45575060208101516001600160801b0316155b8015611b5c575060408101516001600160801b0316155b15611b9957611b6c600083611eb4565b5060405182907f6c7da13aec6855abcc63bfaa65ca4ac25fae71a5426dcc88bc6feae22ae66bf990600090a25b5050565b600080611bad6115ad8585611f87565b604051637784c68560e01b81529091506001600160a01b03861690637784c68590611bdc9084906004016122e0565b600060405180830381865afa158015611bf9573d6000803e3d6000fd5b505050506040513d6000823e601f3d908101601f19168201604052611c219190810190612888565b600081518110611c3357611c33612497565b602002602001015160001c6001600160801b03169150509392505050565b60006118fb611c616001856126c7565b611c6e620f4240856126c7565b869190611fa9565b60008082846002604051602001611c97929190918252602082015260400190565b60408051601f1981840301815282825280516020918201206001600160a01b03909416908301528101919091526060016040516020818303038152906040528051906020012060001c611cea91906126c7565b9392505050565b60408051600180825281830190925260609160009190602080830190803683370190505090508281600081518110611d2b57611d2b612497565b602090810291909101015292915050565b600080611d498385612a7b565b90506000611d6a8280611d65670de0b6b3a76400006002612a7b565b611e3f565b90506000611d868284611d65670de0b6b3a76400006003612a7b565b905080611d9383856126c7565b611d9d91906126c7565b9695505050505050565b6000611cea8383670de0b6b3a7640000611e3f565b6040805180820190915260148152731b585e081d5a5b9d0c4c8e08195e18d95959195960621b60208201526000906001600160801b03831115611e1b5760405162461bcd60e51b8152600401611e129190612a92565b60405180910390fd5b5090919050565b60006118fb611e34620f4240846126c7565b6118f36001866126c7565b600081611e4c8486612a7b565b6118fb9190612ac5565b6000805b8351811015611e9f57838181518110611e7557611e75612497565b60200260200101518303611e8d576001915050610901565b80611e97816125e5565b915050611e5a565b5060009392505050565b610431838383611fcb565b8154600090815b81811015611f7f5783858281548110611ed657611ed6612497565b906000526020600020015403611f6d57611ef16001836129c1565b811015611f3e5784611f046001846129c1565b81548110611f1457611f14612497565b9060005260206000200154858281548110611f3157611f31612497565b6000918252602090912001555b84805480611f4e57611f4e612ae7565b6001900381819060005260206000200160009055905560019250611f7f565b80611f77816125e5565b915050611ebb565b505092915050565b6000600182846002604051602001611c97929190918252602082015260400190565b600081611fb76001826129c1565b611fc18587612a7b565b611e4c91906126c7565b8015806120455750604051636eb1769f60e11b81523060048201526001600160a01b03838116602483015284169063dd62ed3e90604401602060405180830381865afa15801561201f573d6000803e3d6000fd5b505050506040513d601f19601f820116820180604052508101906120439190612a3b565b155b6120b05760405162461bcd60e51b815260206004820152603660248201527f5361666545524332303a20617070726f76652066726f6d206e6f6e2d7a65726f60448201527520746f206e6f6e2d7a65726f20616c6c6f77616e636560501b6064820152608401611e12565b604080516001600160a01b03848116602483015260448083018590528351808403909101815260649092018352602080830180516001600160e01b031663095ea7b360e01b17905283518085019094528084527f5361666545524332303a206c6f772d6c6576656c2063616c6c206661696c656490840152610431928692916000916121409185169084906121bd565b805190915015610431578080602001905181019061215e91906126a5565b6104315760405162461bcd60e51b815260206004820152602a60248201527f5361666545524332303a204552433230206f7065726174696f6e20646964206e6044820152691bdd081cdd58d8d9595960b21b6064820152608401611e12565b60606118fb848460008585600080866001600160a01b031685876040516121e49190612afd565b60006040518083038185875af1925050503d8060008114612221576040519150601f19603f3d011682016040523d82523d6000602084013e612226565b606091505b509150915061223787838387612242565b979650505050505050565b606083156122b15782516000036122aa576001600160a01b0385163b6122aa5760405162461bcd60e51b815260206004820152601d60248201527f416464726573733a2063616c6c20746f206e6f6e2d636f6e74726163740000006044820152606401611e12565b50816118fb565b6118fb83838151156122c65781518083602001fd5b8060405162461bcd60e51b8152600401611e129190612a92565b6020808252825182820181905260009190848201906040850190845b81811015612318578351835292840192918401916001016122fc565b50909695505050505050565b634e487b7160e01b600052604160045260246000fd5b604051601f8201601f1916810167ffffffffffffffff8111828210171561236357612363612324565b604052919050565b600067ffffffffffffffff82111561238557612385612324565b50601f01601f191660200190565b6000602082840312156123a557600080fd5b813567ffffffffffffffff8111156123bc57600080fd5b8201601f810184136123cd57600080fd5b80356123e06123db8261236b565b61233a565b8181528560208385010111156123f557600080fd5b81602084016020830137600091810160200191909152949350505050565b604080825283519082018190526000906020906060840190828701845b828110156124555781516001600160a01b031684529284019290840190600101612430565b5050508381038285015284518082528583019183019060005b8181101561248a5783518352928401929184019160010161246e565b5090979650505050505050565b634e487b7160e01b600052603260045260246000fd5b80516001600160801b03811681146124c457600080fd5b919050565b6000606082840312156124db57600080fd5b6040516060810181811067ffffffffffffffff821117156124fe576124fe612324565b60405282518152612511602084016124ad565b6020820152612522604084016124ad565b60408201529392505050565b80516001600160a01b03811681146124c457600080fd5b600060a0828403121561255757600080fd5b60405160a0810181811067ffffffffffffffff8211171561257a5761257a612324565b6040526125868361252e565b81526125946020840161252e565b60208201526125a56040840161252e565b60408201526125b66060840161252e565b6060820152608083015160808201528091505092915050565b634e487b7160e01b600052601160045260246000fd5b6000600182016125f7576125f76125cf565b5060010190565b60005b83811015612619578181015183820152602001612601565b50506000910152565b6000806040838503121561263557600080fd5b82519150602083015167ffffffffffffffff81111561265357600080fd5b8301601f8101851361266457600080fd5b80516126726123db8261236b565b81815286602083850101111561268757600080fd5b6126988260208301602086016125fe565b8093505050509250929050565b6000602082840312156126b757600080fd5b81518015158114611cea57600080fd5b80820180821115610901576109016125cf565b80516001600160a01b03908116835260208083015182169084015260408083015182169084015260608083015190911690830152608090810151910152565b600061012061272883886126da565b60a08301959095525060c08101929092526001600160a01b031660e0820152610100810182905260009181019190915261014001919050565b6000806040838503121561277457600080fd5b505080516020909101519092909150565b610120810161279482886126da565b60a082019590955260c08101939093526001600160a01b0391821660e08401521661010090910152919050565b60006101006127d083876126da565b60a0830194909452506001600160a01b039190911660c082015260e0810182905260009181019190915261012001919050565b610100810161281282876126da565b60a08201949094526001600160a01b0392831660c0820152911660e090910152919050565b600061012061284683886126da565b60a0830195909552506001600160801b039290921660c08301526001600160a01b031660e0820152610100810182905260009181019190915261014001919050565b6000602080838503121561289b57600080fd5b825167ffffffffffffffff808211156128b357600080fd5b818501915085601f8301126128c757600080fd5b8151818111156128d9576128d9612324565b8060051b91506128ea84830161233a565b818152918301840191848101908884111561290457600080fd5b938501935b8385101561080957845182529385019390850190612909565b600060c0828403121561293457600080fd5b60405160c0810181811067ffffffffffffffff8211171561295757612957612324565b604052612963836124ad565b8152612971602084016124ad565b6020820152612982604084016124ad565b6040820152612993606084016124ad565b60608201526129a4608084016124ad565b60808201526129b560a084016124ad565b60a08201529392505050565b81810381811115610901576109016125cf565b61016081016129e382856126da565b6001600160801b038084511660a08401528060208501511660c08401528060408501511660e084015280606085015116610100840152806080850151166101208401528060a085015116610140840152509392505050565b600060208284031215612a4d57600080fd5b5051919050565b6001600160801b03818116838216019080821115612a7457612a746125cf565b5092915050565b8082028115828204841417610901576109016125cf565b6020815260008251806020840152612ab18160408501602087016125fe565b601f01601f19169190910160400192915050565b600082612ae257634e487b7160e01b600052601260045260246000fd5b500490565b634e487b7160e01b600052603160045260246000fd5b60008251612b0f8184602087016125fe565b919091019291505056","linkReferences":{}},"methodIdentifiers":{"getDebtAssets()":"ecd658b4","getManagedAssets()":"80daddb8","getMarketIds()":"398c6f7e","init(bytes)":"4ddf47d4","receiveCallFromVault(bytes)":"e5c23a97"},"id":120}