{"abi":[{"type":"constructor","inputs":[{"name":"_allowedMorphoBlueVaultsListId","type":"uint256","internalType":"uint256"},{"name":"_morphoBlueAddress","type":"address","internalType":"address"},{"name":"_uintListRegistryAddress","type":"address","internalType":"address"}],"stateMutability":"nonpayable"},{"type":"function","name":"getDebtAssets","inputs":[],"outputs":[{"name":"assets_","type":"address[]","internalType":"address[]"},{"name":"amounts_","type":"uint256[]","internalType":"uint256[]"}],"stateMutability":"view"},{"type":"function","name":"getManagedAssets","inputs":[],"outputs":[{"name":"assets_","type":"address[]","internalType":"address[]"},{"name":"amounts_","type":"uint256[]","internalType":"uint256[]"}],"stateMutability":"view"},{"type":"function","name":"getMarketIds","inputs":[],"outputs":[{"name":"marketIds_","type":"bytes32[]","internalType":"bytes32[]"}],"stateMutability":"view"},{"type":"function","name":"init","inputs":[{"name":"","type":"bytes","internalType":"bytes"}],"outputs":[],"stateMutability":"nonpayable"},{"type":"function","name":"receiveCallFromVault","inputs":[{"name":"_actionData","type":"bytes","internalType":"bytes"}],"outputs":[],"stateMutability":"nonpayable"},{"type":"event","name":"MarketIdAdded","inputs":[{"name":"marketId","type":"bytes32","indexed":true,"internalType":"bytes32"}],"anonymous":false},{"type":"event","name":"MarketIdRemoved","inputs":[{"name":"marketId","type":"bytes32","indexed":true,"internalType":"bytes32"}],"anonymous":false},{"type":"error","name":"DisallowedMarket","inputs":[]},{"type":"error","name":"InvalidActionId","inputs":[]}],"bytecode":{"object":"0x60e06040523480156200001157600080fd5b5060405162002ff638038062002ff68339810160408190526200003491620000a0565b6080929092526001600160a01b0390811660a0521660c052620000f8565b805b81146200006057600080fd5b50565b8051620000708162000052565b92915050565b60006001600160a01b03821662000070565b620000548162000076565b8051620000708162000088565b600080600060608486031215620000ba57620000ba600080fd5b6000620000c8868662000063565b9350506020620000db8682870162000093565b9250506040620000ee8682870162000093565b9150509250925092565b60805160a05160c051612e42620001b460003960006106e401526000818161013501528181610229015281816102de015281816104ad015281816105690152818161061601528181610c9901528181610d2201528181610d5e01528181610e0c01528181610f2f01528181610fba01528181610ff60152818161108f015281816111a3015281816112a30152818161133a0152818161138201528181611419015281816114b40152611aa0015260006107110152612e426000f3fe608060405234801561001057600080fd5b50600436106100575760003560e01c8063398c6f7e1461005c5780634ddf47d41461007a57806380daddb81461008d578063e5c23a97146100a3578063ecd658b4146100b6575b600080fd5b6100646100be565b6040516100719190612266565b60405180910390f35b61008b610088366004612372565b50565b005b610095610116565b60405161007192919061244f565b61008b6100b1366004612372565b6103f3565b610095610490565b6060600080548060200260200160405190810160405280929190818152602001828054801561010c57602002820191906000526020600020905b8154815260200190600101908083116100f8575b5050505050905090565b60608060006101236100be565b905060005b81518110156103df5760007f00000000000000000000000000000000000000000000000000000000000000006001600160a01b03166393c5206284848151811061017457610174612474565b6020026020010151306040518363ffffffff1660e01b815260040161019a92919061248a565b606060405180830381865afa1580156101b7573d6000803e3d6000fd5b505050506040513d601f19601f820116820180604052508101906101db9190612535565b80519091501580156101f8575060408101516001600160801b0316155b1561020357506103cd565b61022583838151811061021857610218612474565b60200260200101516106cd565b60007f00000000000000000000000000000000000000000000000000000000000000006001600160a01b0316632c3c915785858151811061026857610268612474565b60200260200101516040518263ffffffff1660e01b815260040161028c9190612556565b60a060405180830381865afa1580156102a9573d6000803e3d6000fd5b505050506040513d601f19601f820116820180604052508101906102cd91906125fe565b8251909150156103825760006103627f00000000000000000000000000000000000000000000000000000000000000006040518060a0016040528085600001516001600160a01b0316815260200185602001516001600160a01b0316815260200185604001516001600160a01b0316815260200185606001516001600160a01b03168152602001856080015181525030610799565b82519091506103729088906107ef565b965061037e86826108e1565b9550505b60408201516001600160801b0316156103ca5760208101516103a59087906107ef565b95506103c782604001516001600160801b0316866108e190919063ffffffff16565b94505b50505b806103d781612635565b915050610128565b506103ea83836109b1565b92509250509091565b6000808280602001905181019061040a91906126cb565b9092509050816104225761041d81610c66565b505050565b600182036104335761041d81610de4565b600282036104445761041d81610efc565b600382036104555761041d81611067565b600482036104665761041d8161116a565b600582036104775761041d8161128f565b60405163703469d160e11b815260040160405180910390fd5b606080600061049d6100be565b905060005b81518110156103df577f00000000000000000000000000000000000000000000000000000000000000006001600160a01b03166393c520628383815181106104ec576104ec612474565b6020026020010151306040518363ffffffff1660e01b815260040161051292919061248a565b606060405180830381865afa15801561052f573d6000803e3d6000fd5b505050506040513d601f19601f820116820180604052508101906105539190612535565b602001516001600160801b0316156106bb5760007f00000000000000000000000000000000000000000000000000000000000000006001600160a01b0316632c3c91578484815181106105a8576105a8612474565b60200260200101516040518263ffffffff1660e01b81526004016105cc9190612556565b60a060405180830381865afa1580156105e9573d6000803e3d6000fd5b505050506040513d601f19601f8201168201806040525081019061060d91906125fe565b9050600061069a7f00000000000000000000000000000000000000000000000000000000000000006040518060a0016040528085600001516001600160a01b0316815260200185602001516001600160a01b0316815260200185604001516001600160a01b0316815260200185606001516001600160a01b03168152602001856080015181525030611544565b82519091506106aa9087906107ef565b95506106b685826108e1565b945050505b806106c581612635565b9150506104a2565b604051630a1777cf60e21b81526001600160a01b037f0000000000000000000000000000000000000000000000000000000000000000169063285ddf3c9061073b907f0000000000000000000000000000000000000000000000000000000000000000908590600401612723565b602060405180830381865afa158015610758573d6000803e3d6000fd5b505050506040513d601f19601f8201168201806040525081019061077c9190612751565b61008857604051633f27222b60e01b815260040160405180910390fd5b6000806107a78460a0902090565b905060006107bf6001600160a01b038716838661158d565b90506000806107ce888861163d565b5091935091506107e190508383836118c8565b9450505050505b9392505050565b6060825160016107ff9190612772565b67ffffffffffffffff81111561081757610817612277565b604051908082528060200260200182016040528015610840578160200160208202803683370190505b50905060005b83518110156108a55783818151811061086157610861612474565b602002602001015182828151811061087b5761087b612474565b6001600160a01b03909216602092830291909101909101528061089d81612635565b915050610846565b5081818451815181106108ba576108ba612474565b60200260200101906001600160a01b031690816001600160a01b0316815250505b92915050565b6060825160016108f19190612772565b67ffffffffffffffff81111561090957610909612277565b604051908082528060200260200182016040528015610932578160200160208202803683370190505b50905060005b835181101561098a5783818151811061095357610953612474565b602002602001015182828151811061096d5761096d612474565b60209081029190910101528061098281612635565b915050610938565b50818184518151811061099f5761099f612474565b60200260200101818152505092915050565b606080835160000315610c5f576001805b8551811015610a64576000805b82811015610a3d578781815181106109e9576109e9612474565b60200260200101516001600160a01b0316888481518110610a0c57610a0c612474565b60200260200101516001600160a01b031603610a2b5760019150610a3d565b80610a3581612635565b9150506109cf565b5080610a515782610a4d81612635565b9350505b5080610a5c81612635565b9150506109c2565b508067ffffffffffffffff811115610a7e57610a7e612277565b604051908082528060200260200182016040528015610aa7578160200160208202803683370190505b5092508067ffffffffffffffff811115610ac357610ac3612277565b604051908082528060200260200182016040528015610aec578160200160208202803683370190505b5091506000805b8651811015610c5b576000805b83811015610bb157868181518110610b1a57610b1a612474565b60200260200101516001600160a01b0316898481518110610b3d57610b3d612474565b60200260200101516001600160a01b031603610b9f5760019150878381518110610b6957610b69612474565b6020026020010151868281518110610b8357610b83612474565b60200260200101818151610b979190612772565b905250610bb1565b80610ba981612635565b915050610b00565b5080610c4857878281518110610bc957610bc9612474565b6020026020010151868481518110610be357610be3612474565b60200260200101906001600160a01b031690816001600160a01b031681525050868281518110610c1557610c15612474565b6020026020010151858481518110610c2f57610c2f612474565b602090810291909101015282610c4481612635565b9350505b5080610c5381612635565b915050610af3565b5050505b9250929050565b600080610c72836118f5565b91509150610c7f826106cd565b604051632c3c915760e01b81526000906001600160a01b037f00000000000000000000000000000000000000000000000000000000000000001690632c3c915790610cce908690600401612556565b60a060405180830381865afa158015610ceb573d6000803e3d6000fd5b505050506040513d601f19601f82011682018060405250810190610d0f91906125fe565b9050610d1a83611915565b8051610d47907f0000000000000000000000000000000000000000000000000000000000000000846119d9565b60405163a99aad8960e01b81526001600160a01b037f0000000000000000000000000000000000000000000000000000000000000000169063a99aad8990610d9a908490869060009030906004016127fa565b60408051808303816000875af1158015610db8573d6000803e3d6000fd5b505050506040513d601f19601f82011682018060405250810190610ddc9190612846565b505050505050565b600080610df0836118f5565b604051632c3c915760e01b815291935091506001600160a01b037f00000000000000000000000000000000000000000000000000000000000000001690635c2bea49908290632c3c915790610e49908790600401612556565b60a060405180830381865afa158015610e66573d6000803e3d6000fd5b505050506040513d601f19601f82011682018060405250810190610e8a91906125fe565b60008430336040518663ffffffff1660e01b8152600401610eaf959493929190612879565b60408051808303816000875af1158015610ecd573d6000803e3d6000fd5b505050506040513d601f19601f82011682018060405250810190610ef19190612846565b505061041d82611a86565b600080610f08836118f5565b91509150610f15826106cd565b604051632c3c915760e01b81526000906001600160a01b037f00000000000000000000000000000000000000000000000000000000000000001690632c3c915790610f64908690600401612556565b60a060405180830381865afa158015610f81573d6000803e3d6000fd5b505050506040513d601f19601f82011682018060405250810190610fa591906125fe565b9050610fb083611915565b610fdf81602001517f0000000000000000000000000000000000000000000000000000000000000000846119d9565b60405163238d657960e01b81526001600160a01b037f0000000000000000000000000000000000000000000000000000000000000000169063238d65799061102f908490869030906004016128bd565b600060405180830381600087803b15801561104957600080fd5b505af115801561105d573d6000803e3d6000fd5b5050505050505050565b600080611073836118f5565b604051632c3c915760e01b815291935091506001600160a01b037f00000000000000000000000000000000000000000000000000000000000000001690638720316d908290632c3c9157906110cc908790600401612556565b60a060405180830381865afa1580156110e9573d6000803e3d6000fd5b505050506040513d601f19601f8201168201806040525081019061110d91906125fe565b8330336040518563ffffffff1660e01b815260040161112f9493929190612900565b600060405180830381600087803b15801561114957600080fd5b505af115801561115d573d6000803e3d6000fd5b5050505061041d82611a86565b600080611176836118f5565b91509150611183826106cd565b61118c82611915565b604051632c3c915760e01b81526001600160a01b037f000000000000000000000000000000000000000000000000000000000000000016906350d8cd4b908290632c3c9157906111e0908790600401612556565b60a060405180830381865afa1580156111fd573d6000803e3d6000fd5b505050506040513d601f19601f8201168201806040525081019061122191906125fe565b83600030336040518663ffffffff1660e01b8152600401611246959493929190612936565b60408051808303816000875af1158015611264573d6000803e3d6000fd5b505050506040513d601f19601f820116820180604052508101906112889190612846565b5050505050565b60008061129b836118f5565b9150915060007f00000000000000000000000000000000000000000000000000000000000000006001600160a01b0316632c3c9157846040518263ffffffff1660e01b81526004016112ed9190612556565b60a060405180830381865afa15801561130a573d6000803e3d6000fd5b505050506040513d601f19601f8201168201806040525081019061132e91906125fe565b905061135f81600001517f0000000000000000000000000000000000000000000000000000000000000000846119d9565b600019820361149d576040516349e2903160e11b81526000906001600160a01b037f000000000000000000000000000000000000000000000000000000000000000016906393c52062906113b9908790309060040161248a565b606060405180830381865afa1580156113d6573d6000803e3d6000fd5b505050506040513d601f19601f820116820180604052508101906113fa9190612535565b60208101516040516320b76e8160e01b81529192506001600160a01b037f000000000000000000000000000000000000000000000000000000000000000016916320b76e8191611453918691600091309060040161297d565b60408051808303816000875af1158015611471573d6000803e3d6000fd5b505050506040513d601f19601f820116820180604052508101906114959190612846565b505050611535565b6040516320b76e8160e01b81526001600160a01b037f000000000000000000000000000000000000000000000000000000000000000016906320b76e81906114f0908490869060009030906004016127fa565b60408051808303816000875af115801561150e573d6000803e3d6000fd5b505050506040513d601f19601f820116820180604052508101906115329190612846565b50505b61153e83611a86565b50505050565b6000806115528460a0902090565b9050600061156a6001600160a01b0387168386611b8d565b9050600080611579888861163d565b90945092506107e191508490508383611c41565b6000806115a261159d8585611c66565b611cc8565b604051637784c68560e01b81529091506001600160a01b03861690637784c685906115d1908490600401612266565b600060405180830381865afa1580156115ee573d6000803e3d6000fd5b505050506040513d6000823e601f3d908101601f191682016040526116169190810190612a49565b60008151811061162857611628612474565b602002602001015160001c9150509392505050565b60008060008060006116508660a0902090565b90506000876001600160a01b0316635c60e39a836040518263ffffffff1660e01b81526004016116809190612a95565b60c060405180830381865afa15801561169d573d6000803e3d6000fd5b505050506040513d601f19601f820116820180604052508101906116c19190612b3d565b9050600081608001516001600160801b0316426116de9190612b5e565b905080158015906116fb575060408201516001600160801b031615155b8015611713575060608801516001600160a01b031615155b15611894576060880151604051638c00bf6b60e01b81526000916001600160a01b031690638c00bf6b9061174d908c908790600401612bf0565b602060405180830381865afa15801561176a573d6000803e3d6000fd5b505050506040513d601f19601f8201168201806040525081019061178e9190612c0c565b905060006117b361179f8385611d13565b60408601516001600160801b031690611d7e565b90506117be81611d93565b846040018181516117cf9190612c2d565b6001600160801b03169052506117e481611d93565b845185906117f3908390612c2d565b6001600160801b0390811690915260a0860151161590506118915760006118308560a001516001600160801b031683611d7e90919063ffffffff16565b905060006118668287600001516001600160801b03166118509190612b5e565b60208801518491906001600160801b0316611df9565b905061187181611d93565b866020018181516118829190612c2d565b6001600160801b031690525050505b50505b508051602082015160408301516060909301516001600160801b039283169b9183169a509282169850911695509350505050565b60006118ed6118d8600185612772565b6118e5620f424085612772565b869190611e16565b949350505050565b6000808280602001905181019061190c9190612846565b91509150915091565b61197881600080548060200260200160405190810160405280929190818152602001828054801561196557602002820191906000526020600020905b815481526020019060010190808311611951575b5050505050611e2d90919063ffffffff16565b61008857600080546001810182558180527f290decd9548b62a8d60345a988386fc84ba6bc95484008f6362f93160ef3e5630182905560405182917f6e6d24d06dcdbc8f1b4ca0aba4a9841c8306f67855dc235cbc58ecbef0c17fae91a250565b604051636eb1769f60e11b81526000906001600160a01b0385169063dd62ed3e90611a0a9030908790600401612c50565b602060405180830381865afa158015611a27573d6000803e3d6000fd5b505050506040513d601f19601f82011682018060405250810190611a4b9190612c0c565b90508181101561153e578015611a7057611a706001600160a01b038516846000611e80565b61153e6001600160a01b03851684600019611e80565b6040516349e2903160e11b81526000906001600160a01b037f000000000000000000000000000000000000000000000000000000000000000016906393c5206290611ad7908590309060040161248a565b606060405180830381865afa158015611af4573d6000803e3d6000fd5b505050506040513d601f19601f82011682018060405250810190611b189190612535565b8051909150158015611b35575060208101516001600160801b0316155b8015611b4c575060408101516001600160801b0316155b15611b8957611b5c600083611e8b565b5060405182907f6c7da13aec6855abcc63bfaa65ca4ac25fae71a5426dcc88bc6feae22ae66bf990600090a25b5050565b600080611b9d61159d8585611f5e565b604051637784c68560e01b81529091506001600160a01b03861690637784c68590611bcc908490600401612266565b600060405180830381865afa158015611be9573d6000803e3d6000fd5b505050506040513d6000823e601f3d908101601f19168201604052611c119190810190612a49565b600081518110611c2357611c23612474565b602002602001015160001c6001600160801b03169150509392505050565b60006118ed611c51600185612772565b611c5e620f424085612772565b869190611f77565b60008082846002604051602001611c7e929190612c5e565b60405160208183030381529060405280519060200120604051602001611ca5929190612c6c565b6040516020818303038152906040528051906020012060001c6107e89190612772565b60408051600180825281830190925260609160009190602080830190803683370190505090508281600081518110611d0257611d02612474565b602090810291909101015292915050565b600080611d208385612c7a565b90506000611d418280611d3c670de0b6b3a76400006002612c7a565b611e16565b90506000611d5d8284611d3c670de0b6b3a76400006003612c7a565b905080611d6a8385612772565b611d749190612772565b9695505050505050565b60006107e88383670de0b6b3a7640000611e16565b6040805180820190915260148152731b585e081d5a5b9d0c4c8e08195e18d95959195960621b60208201526000906001600160801b03831115611df25760405162461bcd60e51b8152600401611de99190612ccb565b60405180910390fd5b5090919050565b60006118ed611e0b620f424084612772565b6118e5600186612772565b600081611e238486612c7a565b6118ed9190612cf2565b6000805b8351811015611e7657838181518110611e4c57611e4c612474565b60200260200101518303611e645760019150506108db565b80611e6e81612635565b915050611e31565b5060009392505050565b61041d838383611f99565b8154600090815b81811015611f565783858281548110611ead57611ead612474565b906000526020600020015403611f4457611ec8600183612b5e565b811015611f155784611edb600184612b5e565b81548110611eeb57611eeb612474565b9060005260206000200154858281548110611f0857611f08612474565b6000918252602090912001555b84805480611f2557611f25612d06565b6001900381819060005260206000200160009055905560019250611f56565b80611f4e81612635565b915050611e92565b505092915050565b6000600182846002604051602001611c7e929190612c5e565b600081611f85600182612b5e565b611f8f8587612c7a565b611e239190612772565b8015806120125750604051636eb1769f60e11b81526001600160a01b0384169063dd62ed3e90611fcf9030908690600401612c50565b602060405180830381865afa158015611fec573d6000803e3d6000fd5b505050506040513d601f19601f820116820180604052508101906120109190612c0c565b155b61202e5760405162461bcd60e51b8152600401611de990612d72565b61041d8363095ea7b360e01b848460405160240161204d929190612c6c565b60408051601f198184030181529190526020810180516001600160e01b03166001600160e01b03199093169290921790915260006120d4826040518060400160405280602081526020017f5361666545524332303a206c6f772d6c6576656c2063616c6c206661696c6564815250856001600160a01b031661210e9092919063ffffffff16565b80519091501561041d57808060200190518101906120f29190612751565b61041d5760405162461bcd60e51b8152600401611de990612dc9565b60606118ed848460008585600080866001600160a01b031685876040516121359190612dfb565b60006040518083038185875af1925050503d8060008114612172576040519150601f19603f3d011682016040523d82523d6000602084013e612177565b606091505b509150915061218887838387612193565b979650505050505050565b606083156121d25782516000036121cb576001600160a01b0385163b6121cb5760405162461bcd60e51b8152600401611de990612e07565b50816118ed565b6118ed83838151156121e75781518083602001fd5b8060405162461bcd60e51b8152600401611de99190612ccb565b805b82525050565b60006122158383612201565b505060200190565b6000612227825190565b80845260209384019383018060005b8381101561225b57815161224a8882612209565b975060208301925050600101612236565b509495945050505050565b602080825281016107e8818461221d565b634e487b7160e01b600052604160045260246000fd5b601f19601f830116810181811067ffffffffffffffff821117156122b3576122b3612277565b6040525050565b60006122c560405190565b90506122d1828261228d565b919050565b600067ffffffffffffffff8211156122f0576122f0612277565b601f19601f83011660200192915050565b82818337506000910152565b600061232061231b846122d6565b6122ba565b90508281526020810184848401111561233b5761233b600080fd5b612346848285612301565b509392505050565b600082601f83011261236257612362600080fd5b81356118ed84826020860161230d565b60006020828403121561238757612387600080fd5b813567ffffffffffffffff8111156123a1576123a1600080fd5b6118ed8482850161234e565b60006001600160a01b0382166108db565b612203816123ad565b600061221583836123be565b60006123dd825190565b80845260209384019383018060005b8381101561225b57815161240088826123c7565b9750602083019250506001016123ec565b600061241b825190565b80845260209384019383018060005b8381101561225b57815161243e8882612209565b97506020830192505060010161242a565b6040808252810161246081856123d3565b905081810360208301526118ed8184612411565b634e487b7160e01b600052603260045260246000fd5b604081016124988285612201565b6107e860208301846123be565b805b811461008857600080fd5b80516108db816124a5565b6001600160801b0381166124a7565b80516108db816124bd565b6000606082840312156124ec576124ec600080fd5b6124f660606122ba565b9050600061250484846124b2565b8252506020612515848483016124cc565b6020830152506040612529848285016124cc565b60408301525092915050565b60006060828403121561254a5761254a600080fd5b60006118ed84846124d7565b602081016108db8284612201565b6124a7816123ad565b80516108db81612564565b600060a0828403121561258d5761258d600080fd5b61259760a06122ba565b905060006125a5848461256d565b82525060206125b68484830161256d565b60208301525060406125ca8482850161256d565b60408301525060606125de8482850161256d565b60608301525060806125f2848285016124b2565b60808301525092915050565b600060a0828403121561261357612613600080fd5b60006118ed8484612578565b634e487b7160e01b600052601160045260246000fd5b600060001982036126485761264861261f565b5060010190565b60005b8381101561266a578181015183820152602001612652565b50506000910152565b600061268161231b846122d6565b90508281526020810184848401111561269c5761269c600080fd5b61234684828561264f565b600082601f8301126126bb576126bb600080fd5b81516118ed848260208601612673565b600080604083850312156126e1576126e1600080fd5b60006126ed85856124b2565b925050602083015167ffffffffffffffff81111561270d5761270d600080fd5b612719858286016126a7565b9150509250929050565b604081016127318285612201565b6107e86020830184612201565b8015156124a7565b80516108db8161273e565b60006020828403121561276657612766600080fd5b60006118ed8484612746565b808201808211156108db576108db61261f565b805160a083019061279684826123be565b5060208201516127a960208501826123be565b5060408201516127bc60408501826123be565b5060608201516127cf60608501826123be565b50608082015161153e6080850182612201565b60006108db6127ee8381565b90565b612203816127e2565b61012081016128098287612785565b61281660a0830186612201565b61282360c08301856127f1565b61283060e08301846123be565b8181036101008301526000815260208101611d74565b6000806040838503121561285c5761285c600080fd5b600061286885856124b2565b9250506020612719858286016124b2565b61012081016128888288612785565b61289560a08301876127f1565b6128a260c0830186612201565b6128af60e08301856123be565b611d746101008301846123be565b61010081016128cc8286612785565b6128d960a0830185612201565b6128e660c08301846123be565b81810360e083015260008152602081015b95945050505050565b610100810161290f8287612785565b61291c60a0830186612201565b61292960c08301856123be565b6128f760e08301846123be565b61012081016129458288612785565b61295260a0830187612201565b6128a260c08301866127f1565b60006108db6127ee6001600160801b03841681565b6122038161295f565b610120810161298c8287612785565b61299960a08301866127f1565b61282360c0830185612974565b600067ffffffffffffffff8211156129c0576129c0612277565b5060209081020190565b60006129d861231b846129a6565b838152905060208082019084028301858111156129f7576129f7600080fd5b835b81811015612a1b5780612a0c88826124b2565b845250602092830192016129f9565b5050509392505050565b600082601f830112612a3957612a39600080fd5b81516118ed8482602086016129ca565b600060208284031215612a5e57612a5e600080fd5b815167ffffffffffffffff811115612a7857612a78600080fd5b6118ed84828501612a25565b6000816108db565b61220381612a84565b602081016108db8284612a8c565b600060c08284031215612ab857612ab8600080fd5b612ac260c06122ba565b90506000612ad084846124cc565b8252506020612ae1848483016124cc565b6020830152506040612af5848285016124cc565b6040830152506060612b09848285016124cc565b6060830152506080612b1d848285016124cc565b60808301525060a0612b31848285016124cc565b60a08301525092915050565b600060c08284031215612b5257612b52600080fd5b60006118ed8484612aa3565b818103818111156108db576108db61261f565b6001600160801b038116612203565b805160c0830190612b918482612b71565b506020820151612ba46020850182612b71565b506040820151612bb76040850182612b71565b506060820151612bca6060850182612b71565b506080820151612bdd6080850182612b71565b5060a082015161153e60a0850182612b71565b6101608101612bff8285612785565b6107e860a0830184612b80565b600060208284031215612c2157612c21600080fd5b60006118ed84846124b2565b6001600160801b039182169190811690828201908111156108db576108db61261f565b6040810161249882856123be565b604081016127318285612a8c565b6040810161273182856123be565b818102808215838204851417612c9257612c9261261f565b5092915050565b6000612ca3825190565b808452602084019350612cba81856020860161264f565b601f01601f19169290920192915050565b602080825281016107e88184612c99565b634e487b7160e01b600052601260045260246000fd5b600082612d0157612d01612cdc565b500490565b634e487b7160e01b600052603160045260246000fd5b603681526000602082017f5361666545524332303a20617070726f76652066726f6d206e6f6e2d7a65726f81527520746f206e6f6e2d7a65726f20616c6c6f77616e636560501b602082015291505b5060400190565b602080825281016108db81612d1c565b602a81526000602082017f5361666545524332303a204552433230206f7065726174696f6e20646964206e8152691bdd081cdd58d8d9595960b21b60208201529150612d6b565b602080825281016108db81612d82565b6000612de3825190565b612df181856020860161264f565b9290920192915050565b60006107e88284612dd9565b602080825281016108db81601d81527f416464726573733a2063616c6c20746f206e6f6e2d636f6e747261637400000060208201526040019056","linkReferences":{}},"methodIdentifiers":{"getDebtAssets()":"ecd658b4","getManagedAssets()":"80daddb8","getMarketIds()":"398c6f7e","init(bytes)":"4ddf47d4","receiveCallFromVault(bytes)":"e5c23a97"},"id":135}