{"abi":[{"type":"function","name":"exposed_convertRatePrecision","inputs":[{"name":"_rate","type":"uint256","internalType":"uint256"},{"name":"_fromPrecision","type":"uint256","internalType":"uint256"},{"name":"_toPrecision","type":"uint256","internalType":"uint256"}],"outputs":[{"name":"convertedRate_","type":"uint256","internalType":"uint256"}],"stateMutability":"pure"},{"type":"function","name":"exposed_convertRateToNewQuoteAsset","inputs":[{"name":"_baseRate","type":"uint256","internalType":"uint256"},{"name":"_baseRatePrecision","type":"uint256","internalType":"uint256"},{"name":"_quoteRate","type":"uint256","internalType":"uint256"}],"outputs":[{"name":"convertedRate_","type":"uint256","internalType":"uint256"}],"stateMutability":"pure"},{"type":"function","name":"exposed_formatRateAsChainlinkAggregator","inputs":[{"name":"_rate","type":"uint256","internalType":"uint256"},{"name":"_timestamp","type":"uint256","internalType":"uint256"}],"outputs":[{"name":"","type":"uint80","internalType":"uint80"},{"name":"answer_","type":"int256","internalType":"int256"},{"name":"","type":"uint256","internalType":"uint256"},{"name":"updatedAt_","type":"uint256","internalType":"uint256"},{"name":"","type":"uint80","internalType":"uint80"}],"stateMutability":"pure"},{"type":"function","name":"exposed_invertRate","inputs":[{"name":"_rate","type":"uint256","internalType":"uint256"},{"name":"_ratePrecision","type":"uint256","internalType":"uint256"},{"name":"_toPrecision","type":"uint256","internalType":"uint256"}],"outputs":[{"name":"convertedRate_","type":"uint256","internalType":"uint256"}],"stateMutability":"pure"},{"type":"function","name":"exposed_parsePrecisionFromChainlinkAggregator","inputs":[{"name":"_aggregatorAddress","type":"address","internalType":"address"}],"outputs":[{"name":"precision_","type":"uint256","internalType":"uint256"}],"stateMutability":"view"},{"type":"function","name":"exposed_parseRateFromChainlinkAggregator","inputs":[{"name":"_aggregatorAddress","type":"address","internalType":"address"}],"outputs":[{"name":"rate_","type":"uint256","internalType":"uint256"},{"name":"timestamp_","type":"uint256","internalType":"uint256"}],"stateMutability":"view"},{"type":"function","name":"exposed_selectOldestTimestamp","inputs":[{"name":"_timestampA","type":"uint256","internalType":"uint256"},{"name":"_timestampB","type":"uint256","internalType":"uint256"}],"outputs":[{"name":"oldestTimestamp_","type":"uint256","internalType":"uint256"}],"stateMutability":"pure"},{"type":"function","name":"exposed_selectRateByToleranceDeviation","inputs":[{"name":"_idealRate","type":"uint256","internalType":"uint256"},{"name":"_marketRate","type":"uint256","internalType":"uint256"},{"name":"_deviationToleranceBps","type":"uint256","internalType":"uint256"}],"outputs":[{"name":"selectedRate_","type":"uint256","internalType":"uint256"}],"stateMutability":"pure"},{"type":"error","name":"PriceFeedHelpersLib__ParseRateFromChainlinkAggregator__NegativeAnswer","inputs":[{"name":"answer","type":"int256","internalType":"int256"}]}],"bytecode":{"object":"0x608060405234801561001057600080fd5b50610781806100206000396000f3fe608060405234801561001057600080fd5b50600436106100885760003560e01c8063da7e31781161005b578063da7e3178146100fd578063daaf2ea414610110578063dc913f3c14610123578063fc81f2ca1461014c57600080fd5b806314f652ee1461008d5780634d072534146100b65780637751ae4a146100c9578063c36d0c79146100ea575b600080fd5b6100a061009b3660046103b7565b61015f565b6040516100ad919061040f565b60405180910390f35b6100a06100c43660046103b7565b610176565b6100dc6100d7366004610442565b610183565b6040516100ad92919061046b565b6100a06100f8366004610442565b610198565b6100a061010b3660046103b7565b6101a9565b6100a061011e366004610486565b6101b6565b61013b610131366004610486565b6000928391908290565b6040516100ad9594939291906104d5565b6100a061015a3660046103b7565b6101c2565b600061016c8484846101cf565b90505b9392505050565b600061016c8484846101e6565b60008061018f83610201565b91509150915091565b60006101a3826102a5565b92915050565b600061016c848484610314565b600061016f8383610321565b600061016c84848461032d565b6000836101dc848461052d565b61016c9190610562565b60008183036101f657508261016f565b826101dc838661052d565b6000806000836001600160a01b031663feaf968c6040518163ffffffff1660e01b815260040160a060405180830381865afa158015610244573d6000803e3d6000fd5b505050506040513d601f19601f82011682018060405250810190610268919061059e565b5094509092505050600081121561029d5780604051630d6f078960e31b8152600401610294919061040f565b60405180910390fd5b939092509050565b6000816001600160a01b031663313ce5676040518163ffffffff1660e01b8152600401602060405180830381865afa1580156102e5573d6000803e3d6000fd5b505050506040513d601f19601f82011682018060405250810190610309919061062a565b6101a390600a610759565b6000826101dc838661052d565b600061016f8383610386565b60008083851161034657610341858561076e565b610350565b610350848661076e565b90506000856103618361271061052d565b61036b9190610562565b905083811161037a578561037c565b845b9695505050505050565b6000818310610395578161016f565b5090919050565b805b81146103a957600080fd5b50565b80356101a38161039c565b6000806000606084860312156103cf576103cf600080fd5b60006103db86866103ac565b93505060206103ec868287016103ac565b92505060406103fd868287016103ac565b9150509250925092565b805b82525050565b602081016101a38284610407565b60006001600160a01b0382166101a3565b61039e8161041d565b80356101a38161042e565b60006020828403121561045757610457600080fd5b60006104638484610437565b949350505050565b604081016104798285610407565b61016f6020830184610407565b6000806040838503121561049c5761049c600080fd5b60006104a885856103ac565b92505060206104b9858286016103ac565b9150509250929050565b69ffffffffffffffffffff8116610409565b60a081016104e382886104c3565b6104f06020830187610407565b6104fd6040830186610407565b61050a6060830185610407565b61037c60808301846104c3565b634e487b7160e01b600052601160045260246000fd5b81810280821583820485141761054557610545610517565b5092915050565b634e487b7160e01b600052601260045260246000fd5b6000826105715761057161054c565b500490565b69ffffffffffffffffffff811661039e565b80516101a381610576565b80516101a38161039c565b600080600080600060a086880312156105b9576105b9600080fd5b60006105c58888610588565b95505060206105d688828901610593565b94505060406105e788828901610593565b93505060606105f888828901610593565b925050608061060988828901610588565b9150509295509295909350565b60ff811661039e565b80516101a381610616565b60006020828403121561063f5761063f600080fd5b6000610463848461061f565b80825b600185111561068a5780860481111561066957610669610517565b600185161561067757908102905b80026106838560011c90565b945061064e565b94509492505050565b6000826106a25750600161016f565b816106af5750600061016f565b81600181146106c557600281146106cf576106fc565b600191505061016f565b60ff8411156106e0576106e0610517565b8360020a9150848211156106f6576106f6610517565b5061016f565b5060208310610133831016604e8410600b841016171561072f575081810a8381111561072a5761072a610517565b61016f565b61073c848484600161064b565b9250905081840481111561075257610752610517565b0292915050565b600060ff8316925061016f6000198484610693565b818103818111156101a3576101a361051756","linkReferences":{}},"methodIdentifiers":{"exposed_convertRatePrecision(uint256,uint256,uint256)":"4d072534","exposed_convertRateToNewQuoteAsset(uint256,uint256,uint256)":"da7e3178","exposed_formatRateAsChainlinkAggregator(uint256,uint256)":"dc913f3c","exposed_invertRate(uint256,uint256,uint256)":"14f652ee","exposed_parsePrecisionFromChainlinkAggregator(address)":"c36d0c79","exposed_parseRateFromChainlinkAggregator(address)":"7751ae4a","exposed_selectOldestTimestamp(uint256,uint256)":"daaf2ea4","exposed_selectRateByToleranceDeviation(uint256,uint256,uint256)":"fc81f2ca"},"id":234}