{"abi":[{"type":"constructor","inputs":[{"name":"_thisAggregatorDecimals","type":"uint8","internalType":"uint8"},{"name":"_quoteConversionAggregatorAddress","type":"address","internalType":"address"},{"name":"_quoteConversionAggregatorInverted","type":"bool","internalType":"bool"},{"name":"_marketAggregatorAddress","type":"address","internalType":"address"},{"name":"_deviationToleranceBps","type":"uint256","internalType":"uint256"}],"stateMutability":"nonpayable"},{"type":"function","name":"DECIMALS","inputs":[],"outputs":[{"name":"","type":"uint8","internalType":"uint8"}],"stateMutability":"view"},{"type":"function","name":"DEVIATION_TOLERANCE_BPS","inputs":[],"outputs":[{"name":"","type":"uint256","internalType":"uint256"}],"stateMutability":"view"},{"type":"function","name":"MARKET_AGGREGATOR_ADDRESS","inputs":[],"outputs":[{"name":"","type":"address","internalType":"address"}],"stateMutability":"view"},{"type":"function","name":"QUOTE_CONVERSION_AGGREGATOR_ADDRESS","inputs":[],"outputs":[{"name":"","type":"address","internalType":"address"}],"stateMutability":"view"},{"type":"function","name":"QUOTE_CONVERSION_AGGREGATOR_INVERTED","inputs":[],"outputs":[{"name":"","type":"bool","internalType":"bool"}],"stateMutability":"view"},{"type":"function","name":"baseRate","inputs":[],"outputs":[{"name":"rate_","type":"uint256","internalType":"uint256"},{"name":"ratePrecision_","type":"uint256","internalType":"uint256"},{"name":"timestamp_","type":"uint256","internalType":"uint256"}],"stateMutability":"view"},{"type":"function","name":"decimals","inputs":[],"outputs":[{"name":"decimals_","type":"uint8","internalType":"uint8"}],"stateMutability":"view"},{"type":"function","name":"idealRate","inputs":[],"outputs":[{"name":"rate_","type":"uint256","internalType":"uint256"},{"name":"ratePrecision_","type":"uint256","internalType":"uint256"},{"name":"timestamp_","type":"uint256","internalType":"uint256"}],"stateMutability":"view"},{"type":"function","name":"idealRatePrecision","inputs":[],"outputs":[{"name":"","type":"uint256","internalType":"uint256"}],"stateMutability":"view"},{"type":"function","name":"idealRateStored","inputs":[],"outputs":[{"name":"","type":"uint256","internalType":"uint256"}],"stateMutability":"view"},{"type":"function","name":"idealRateTimestamp","inputs":[],"outputs":[{"name":"","type":"uint256","internalType":"uint256"}],"stateMutability":"view"},{"type":"function","name":"latestRoundData","inputs":[],"outputs":[{"name":"","type":"uint80","internalType":"uint80"},{"name":"","type":"int256","internalType":"int256"},{"name":"","type":"uint256","internalType":"uint256"},{"name":"","type":"uint256","internalType":"uint256"},{"name":"","type":"uint80","internalType":"uint80"}],"stateMutability":"view"},{"type":"function","name":"setIdealRate","inputs":[{"name":"_rate","type":"uint256","internalType":"uint256"}],"outputs":[],"stateMutability":"nonpayable"},{"type":"function","name":"setIdealRatePrecision","inputs":[{"name":"_ratePrecision","type":"uint256","internalType":"uint256"}],"outputs":[],"stateMutability":"nonpayable"},{"type":"function","name":"setIdealRateTimestamp","inputs":[{"name":"_timestamp","type":"uint256","internalType":"uint256"}],"outputs":[],"stateMutability":"nonpayable"},{"type":"error","name":"PriceFeedHelpersLib__ParseRateFromChainlinkAggregator__NegativeAnswer","inputs":[{"name":"answer","type":"int256","internalType":"int256"}]}],"bytecode":{"object":"0x6101806040523480156200001257600080fd5b5060405162000cec38038062000cec8339810160408190526200003591620001ab565b60ff851660805284848484848484846200005183600a62000376565b60e0526001600160a01b03821660a081905281151560c0526200007657600062000081565b6200008182620000bc565b610100525050506101408190526001600160a01b03821661012052620000a782620000bc565b6101605250620003ba98505050505050505050565b6000816001600160a01b031663313ce5676040518163ffffffff1660e01b8152600401602060405180830381865afa158015620000fd573d6000803e3d6000fd5b505050506040513d601f19601f820116820180604052508101906200012391906200038d565b6200013090600a62000376565b92915050565b60ff81165b81146200014757600080fd5b50565b8051620001308162000136565b60006001600160a01b03821662000130565b6200013b8162000157565b8051620001308162000169565b8015156200013b565b8051620001308162000181565b806200013b565b8051620001308162000197565b600080600080600060a08688031215620001c857620001c8600080fd5b6000620001d688886200014a565b9550506020620001e98882890162000174565b9450506040620001fc888289016200018a565b93505060606200020f8882890162000174565b925050608062000222888289016200019e565b9150509295509295909350565b634e487b7160e01b600052601160045260246000fd5b80825b60018511156200028b578086048111156200026757620002676200022f565b60018516156200027657908102905b8002620002838560011c90565b945062000248565b94509492505050565b600082620002a5575060016200036f565b81620002b4575060006200036f565b8160018114620002cd5760028114620002d8576200030c565b60019150506200036f565b60ff841115620002ec57620002ec6200022f565b8360020a9150848211156200030557620003056200022f565b506200036f565b5060208310610133831016604e8410600b841016171562000344575081810a838111156200033e576200033e6200022f565b6200036f565b62000353848484600162000245565b925090508184048111156200036c576200036c6200022f565b81025b9392505050565b600060ff831692506200036f600019848462000294565b600060208284031215620003a457620003a4600080fd5b6000620003b284846200014a565b949350505050565b60805160a05160c05160e0516101005161012051610140516101605161089c62000450600039600061048301526000818161013c01526104b101526000818161024f015261045201526000818161037b01526103c50152600061040c01526000818160ff01526103510152600081816101d9015281816102f001526103250152600081816101a5015261020a015261089c6000f3fe608060405234801561001057600080fd5b50600436106100f55760003560e01c8063313ce56711610097578063a55ca4f811610066578063a55ca4f814610271578063f36329f91461027a578063f798a13914610288578063feaf968c1461029b57600080fd5b8063313ce567146102085780636b29ce401461022e5780637c3ce451146102415780639e79aa741461024a57600080fd5b806312d50312116100d357806312d50312146101745780631f68f20a146101895780632e0f2625146101a05780632faa3a09146101d457600080fd5b80630918d214146100fa5780630e587e19146101375780630fea70061461016b575b600080fd5b6101217f000000000000000000000000000000000000000000000000000000000000000081565b60405161012e9190610669565b60405180910390f35b61015e7f000000000000000000000000000000000000000000000000000000000000000081565b60405161012e919061067d565b61015e60025481565b6101876101823660046106a6565b600055565b005b6101916102b4565b60405161012e939291906106cf565b6101c77f000000000000000000000000000000000000000000000000000000000000000081565b60405161012e9190610700565b6101fb7f000000000000000000000000000000000000000000000000000000000000000081565b60405161012e9190610728565b7f00000000000000000000000000000000000000000000000000000000000000006101c7565b61018761023c3660046106a6565b600255565b61015e60005481565b6101fb7f000000000000000000000000000000000000000000000000000000000000000081565b61015e60015481565b600054600154600254610191565b6101876102963660046106a6565b600155565b6102a36102d3565b60405161012e959493929190610748565b6000546001546002546102c8838383610445565b925092509250909192565b6000806000806000806000806102e76102b4565b919450925090507f00000000000000000000000000000000000000000000000000000000000000006001600160a01b031615610405576000806103497f00000000000000000000000000000000000000000000000000000000000000006104ee565b9150915060007f0000000000000000000000000000000000000000000000000000000000000000156103c2576103ac837f00000000000000000000000000000000000000000000000000000000000000006b033b2e3c9fd0803ce8000000610592565b92506b033b2e3c9fd0803ce800000090506103e5565b507f00000000000000000000000000000000000000000000000000000000000000005b6103f08686856105b3565b95508094506103ff84836105c0565b93505050505b61043083837f00000000000000000000000000000000000000000000000000000000000000006105d5565b60009990985089975090955086945092505050565b60008060008060006104767f00000000000000000000000000000000000000000000000000000000000000006104ee565b915091508693506104a8827f0000000000000000000000000000000000000000000000000000000000000000866105d5565b91506104d588837f00000000000000000000000000000000000000000000000000000000000000006105f0565b94506104e186826105c0565b9250505093509350939050565b6000806000836001600160a01b031663feaf968c6040518163ffffffff1660e01b815260040160a060405180830381865afa158015610531573d6000803e3d6000fd5b505050506040513d601f19601f8201168201806040525081019061055591906107b2565b5094509092505050600081121561058a5780604051630d6f078960e31b8152600401610581919061067d565b60405180910390fd5b939092509050565b60008361059f8484610840565b6105a99190610875565b90505b9392505050565b60008261059f8386610840565b60006105cc8383610649565b90505b92915050565b60008183036105e55750826105ac565b8261059f8386610840565b600080838511610609576106048585610889565b610613565b6106138486610889565b905060008561062483612710610840565b61062e9190610875565b905083811161063d578561063f565b845b9695505050505050565b600081831061065857816105cc565b5090919050565b8015155b82525050565b602081016105cf828461065f565b80610663565b602081016105cf8284610677565b805b811461069857600080fd5b50565b80356105cf8161068b565b6000602082840312156106bb576106bb600080fd5b60006106c7848461069b565b949350505050565b606081016106dd8286610677565b6106ea6020830185610677565b6106c76040830184610677565b60ff8116610663565b602081016105cf82846106f7565b60006001600160a01b0382166105cf565b6106638161070e565b602081016105cf828461071f565b69ffffffffffffffffffff8116610663565b60a081016107568288610736565b6107636020830187610677565b6107706040830186610677565b61077d6060830185610677565b61063f6080830184610736565b69ffffffffffffffffffff811661068d565b80516105cf8161078a565b80516105cf8161068b565b600080600080600060a086880312156107cd576107cd600080fd5b60006107d9888861079c565b95505060206107ea888289016107a7565b94505060406107fb888289016107a7565b935050606061080c888289016107a7565b925050608061081d8882890161079c565b9150509295509295909350565b634e487b7160e01b600052601160045260246000fd5b8181028082158382048514176108585761085861082a565b5092915050565b634e487b7160e01b600052601260045260246000fd5b6000826108845761088461085f565b500490565b818103818111156105cf576105cf61082a56","linkReferences":{}},"methodIdentifiers":{"DECIMALS()":"2e0f2625","DEVIATION_TOLERANCE_BPS()":"0e587e19","MARKET_AGGREGATOR_ADDRESS()":"9e79aa74","QUOTE_CONVERSION_AGGREGATOR_ADDRESS()":"2faa3a09","QUOTE_CONVERSION_AGGREGATOR_INVERTED()":"0918d214","baseRate()":"1f68f20a","decimals()":"313ce567","idealRate()":"f36329f9","idealRatePrecision()":"a55ca4f8","idealRateStored()":"7c3ce451","idealRateTimestamp()":"0fea7006","latestRoundData()":"feaf968c","setIdealRate(uint256)":"12d50312","setIdealRatePrecision(uint256)":"f798a139","setIdealRateTimestamp(uint256)":"6b29ce40"},"id":231}