{"abi":[{"type":"constructor","inputs":[],"stateMutability":"nonpayable"},{"type":"function","name":"CLOCK_MODE","inputs":[],"outputs":[{"name":"","type":"string","internalType":"string"}],"stateMutability":"view"},{"type":"function","name":"DECIMALS","inputs":[],"outputs":[{"name":"","type":"uint8","internalType":"uint8"}],"stateMutability":"view"},{"type":"function","name":"DOMAIN_SEPARATOR","inputs":[],"outputs":[{"name":"","type":"bytes32","internalType":"bytes32"}],"stateMutability":"view"},{"type":"function","name":"NAME","inputs":[],"outputs":[{"name":"","type":"string","internalType":"string"}],"stateMutability":"view"},{"type":"function","name":"SUPPLY","inputs":[],"outputs":[{"name":"","type":"uint256","internalType":"uint256"}],"stateMutability":"view"},{"type":"function","name":"SYMBOL","inputs":[],"outputs":[{"name":"","type":"string","internalType":"string"}],"stateMutability":"view"},{"type":"function","name":"UPGRADE_INTERFACE_VERSION","inputs":[],"outputs":[{"name":"","type":"string","internalType":"string"}],"stateMutability":"view"},{"type":"function","name":"allowance","inputs":[{"name":"owner","type":"address","internalType":"address"},{"name":"spender","type":"address","internalType":"address"}],"outputs":[{"name":"","type":"uint256","internalType":"uint256"}],"stateMutability":"view"},{"type":"function","name":"approve","inputs":[{"name":"spender","type":"address","internalType":"address"},{"name":"value","type":"uint256","internalType":"uint256"}],"outputs":[{"name":"","type":"bool","internalType":"bool"}],"stateMutability":"nonpayable"},{"type":"function","name":"balanceOf","inputs":[{"name":"account","type":"address","internalType":"address"}],"outputs":[{"name":"","type":"uint256","internalType":"uint256"}],"stateMutability":"view"},{"type":"function","name":"burn","inputs":[{"name":"value","type":"uint256","internalType":"uint256"}],"outputs":[],"stateMutability":"nonpayable"},{"type":"function","name":"burnFrom","inputs":[{"name":"account","type":"address","internalType":"address"},{"name":"value","type":"uint256","internalType":"uint256"}],"outputs":[],"stateMutability":"nonpayable"},{"type":"function","name":"checkpoints","inputs":[{"name":"account","type":"address","internalType":"address"},{"name":"pos","type":"uint32","internalType":"uint32"}],"outputs":[{"name":"","type":"tuple","internalType":"struct Checkpoints.Checkpoint208","components":[{"name":"_key","type":"uint48","internalType":"uint48"},{"name":"_value","type":"uint208","internalType":"uint208"}]}],"stateMutability":"view"},{"type":"function","name":"clock","inputs":[],"outputs":[{"name":"","type":"uint48","internalType":"uint48"}],"stateMutability":"view"},{"type":"function","name":"decimals","inputs":[],"outputs":[{"name":"","type":"uint8","internalType":"uint8"}],"stateMutability":"view"},{"type":"function","name":"delegate","inputs":[{"name":"delegatee","type":"address","internalType":"address"}],"outputs":[],"stateMutability":"nonpayable"},{"type":"function","name":"delegateBySig","inputs":[{"name":"delegatee","type":"address","internalType":"address"},{"name":"nonce","type":"uint256","internalType":"uint256"},{"name":"expiry","type":"uint256","internalType":"uint256"},{"name":"v","type":"uint8","internalType":"uint8"},{"name":"r","type":"bytes32","internalType":"bytes32"},{"name":"s","type":"bytes32","internalType":"bytes32"}],"outputs":[],"stateMutability":"nonpayable"},{"type":"function","name":"delegates","inputs":[{"name":"account","type":"address","internalType":"address"}],"outputs":[{"name":"","type":"address","internalType":"address"}],"stateMutability":"view"},{"type":"function","name":"eip712Domain","inputs":[],"outputs":[{"name":"fields","type":"bytes1","internalType":"bytes1"},{"name":"name","type":"string","internalType":"string"},{"name":"version","type":"string","internalType":"string"},{"name":"chainId","type":"uint256","internalType":"uint256"},{"name":"verifyingContract","type":"address","internalType":"address"},{"name":"salt","type":"bytes32","internalType":"bytes32"},{"name":"extensions","type":"uint256[]","internalType":"uint256[]"}],"stateMutability":"view"},{"type":"function","name":"getPastTotalSupply","inputs":[{"name":"timepoint","type":"uint256","internalType":"uint256"}],"outputs":[{"name":"","type":"uint256","internalType":"uint256"}],"stateMutability":"view"},{"type":"function","name":"getPastVotes","inputs":[{"name":"account","type":"address","internalType":"address"},{"name":"timepoint","type":"uint256","internalType":"uint256"}],"outputs":[{"name":"","type":"uint256","internalType":"uint256"}],"stateMutability":"view"},{"type":"function","name":"getVotes","inputs":[{"name":"account","type":"address","internalType":"address"}],"outputs":[{"name":"","type":"uint256","internalType":"uint256"}],"stateMutability":"view"},{"type":"function","name":"initialize","inputs":[{"name":"initialOwner","type":"address","internalType":"address"}],"outputs":[],"stateMutability":"nonpayable"},{"type":"function","name":"name","inputs":[],"outputs":[{"name":"","type":"string","internalType":"string"}],"stateMutability":"view"},{"type":"function","name":"nonces","inputs":[{"name":"owner","type":"address","internalType":"address"}],"outputs":[{"name":"","type":"uint256","internalType":"uint256"}],"stateMutability":"view"},{"type":"function","name":"numCheckpoints","inputs":[{"name":"account","type":"address","internalType":"address"}],"outputs":[{"name":"","type":"uint32","internalType":"uint32"}],"stateMutability":"view"},{"type":"function","name":"owner","inputs":[],"outputs":[{"name":"","type":"address","internalType":"address"}],"stateMutability":"view"},{"type":"function","name":"permit","inputs":[{"name":"owner","type":"address","internalType":"address"},{"name":"spender","type":"address","internalType":"address"},{"name":"value","type":"uint256","internalType":"uint256"},{"name":"deadline","type":"uint256","internalType":"uint256"},{"name":"v","type":"uint8","internalType":"uint8"},{"name":"r","type":"bytes32","internalType":"bytes32"},{"name":"s","type":"bytes32","internalType":"bytes32"}],"outputs":[],"stateMutability":"nonpayable"},{"type":"function","name":"proxiableUUID","inputs":[],"outputs":[{"name":"","type":"bytes32","internalType":"bytes32"}],"stateMutability":"view"},{"type":"function","name":"renounceOwnership","inputs":[],"outputs":[],"stateMutability":"nonpayable"},{"type":"function","name":"symbol","inputs":[],"outputs":[{"name":"","type":"string","internalType":"string"}],"stateMutability":"view"},{"type":"function","name":"totalSupply","inputs":[],"outputs":[{"name":"","type":"uint256","internalType":"uint256"}],"stateMutability":"view"},{"type":"function","name":"transfer","inputs":[{"name":"to","type":"address","internalType":"address"},{"name":"value","type":"uint256","internalType":"uint256"}],"outputs":[{"name":"","type":"bool","internalType":"bool"}],"stateMutability":"nonpayable"},{"type":"function","name":"transferFrom","inputs":[{"name":"from","type":"address","internalType":"address"},{"name":"to","type":"address","internalType":"address"},{"name":"value","type":"uint256","internalType":"uint256"}],"outputs":[{"name":"","type":"bool","internalType":"bool"}],"stateMutability":"nonpayable"},{"type":"function","name":"transferOwnership","inputs":[{"name":"newOwner","type":"address","internalType":"address"}],"outputs":[],"stateMutability":"nonpayable"},{"type":"function","name":"upgradeToAndCall","inputs":[{"name":"newImplementation","type":"address","internalType":"address"},{"name":"data","type":"bytes","internalType":"bytes"}],"outputs":[],"stateMutability":"payable"},{"type":"event","name":"Approval","inputs":[{"name":"owner","type":"address","indexed":true,"internalType":"address"},{"name":"spender","type":"address","indexed":true,"internalType":"address"},{"name":"value","type":"uint256","indexed":false,"internalType":"uint256"}],"anonymous":false},{"type":"event","name":"DelegateChanged","inputs":[{"name":"delegator","type":"address","indexed":true,"internalType":"address"},{"name":"fromDelegate","type":"address","indexed":true,"internalType":"address"},{"name":"toDelegate","type":"address","indexed":true,"internalType":"address"}],"anonymous":false},{"type":"event","name":"DelegateVotesChanged","inputs":[{"name":"delegate","type":"address","indexed":true,"internalType":"address"},{"name":"previousVotes","type":"uint256","indexed":false,"internalType":"uint256"},{"name":"newVotes","type":"uint256","indexed":false,"internalType":"uint256"}],"anonymous":false},{"type":"event","name":"EIP712DomainChanged","inputs":[],"anonymous":false},{"type":"event","name":"Initialized","inputs":[{"name":"version","type":"uint64","indexed":false,"internalType":"uint64"}],"anonymous":false},{"type":"event","name":"OwnershipTransferred","inputs":[{"name":"previousOwner","type":"address","indexed":true,"internalType":"address"},{"name":"newOwner","type":"address","indexed":true,"internalType":"address"}],"anonymous":false},{"type":"event","name":"Transfer","inputs":[{"name":"from","type":"address","indexed":true,"internalType":"address"},{"name":"to","type":"address","indexed":true,"internalType":"address"},{"name":"value","type":"uint256","indexed":false,"internalType":"uint256"}],"anonymous":false},{"type":"event","name":"Upgraded","inputs":[{"name":"implementation","type":"address","indexed":true,"internalType":"address"}],"anonymous":false},{"type":"error","name":"AddressEmptyCode","inputs":[{"name":"target","type":"address","internalType":"address"}]},{"type":"error","name":"CheckpointUnorderedInsertion","inputs":[]},{"type":"error","name":"ECDSAInvalidSignature","inputs":[]},{"type":"error","name":"ECDSAInvalidSignatureLength","inputs":[{"name":"length","type":"uint256","internalType":"uint256"}]},{"type":"error","name":"ECDSAInvalidSignatureS","inputs":[{"name":"s","type":"bytes32","internalType":"bytes32"}]},{"type":"error","name":"ERC1967InvalidImplementation","inputs":[{"name":"implementation","type":"address","internalType":"address"}]},{"type":"error","name":"ERC1967NonPayable","inputs":[]},{"type":"error","name":"ERC20ExceededSafeSupply","inputs":[{"name":"increasedSupply","type":"uint256","internalType":"uint256"},{"name":"cap","type":"uint256","internalType":"uint256"}]},{"type":"error","name":"ERC20InsufficientAllowance","inputs":[{"name":"spender","type":"address","internalType":"address"},{"name":"allowance","type":"uint256","internalType":"uint256"},{"name":"needed","type":"uint256","internalType":"uint256"}]},{"type":"error","name":"ERC20InsufficientBalance","inputs":[{"name":"sender","type":"address","internalType":"address"},{"name":"balance","type":"uint256","internalType":"uint256"},{"name":"needed","type":"uint256","internalType":"uint256"}]},{"type":"error","name":"ERC20InvalidApprover","inputs":[{"name":"approver","type":"address","internalType":"address"}]},{"type":"error","name":"ERC20InvalidReceiver","inputs":[{"name":"receiver","type":"address","internalType":"address"}]},{"type":"error","name":"ERC20InvalidSender","inputs":[{"name":"sender","type":"address","internalType":"address"}]},{"type":"error","name":"ERC20InvalidSpender","inputs":[{"name":"spender","type":"address","internalType":"address"}]},{"type":"error","name":"ERC2612ExpiredSignature","inputs":[{"name":"deadline","type":"uint256","internalType":"uint256"}]},{"type":"error","name":"ERC2612InvalidSigner","inputs":[{"name":"signer","type":"address","internalType":"address"},{"name":"owner","type":"address","internalType":"address"}]},{"type":"error","name":"ERC5805FutureLookup","inputs":[{"name":"timepoint","type":"uint256","internalType":"uint256"},{"name":"clock","type":"uint48","internalType":"uint48"}]},{"type":"error","name":"ERC6372InconsistentClock","inputs":[]},{"type":"error","name":"FailedCall","inputs":[]},{"type":"error","name":"InvalidAccountNonce","inputs":[{"name":"account","type":"address","internalType":"address"},{"name":"currentNonce","type":"uint256","internalType":"uint256"}]},{"type":"error","name":"InvalidInitialization","inputs":[]},{"type":"error","name":"NotInitializing","inputs":[]},{"type":"error","name":"OwnableInvalidOwner","inputs":[{"name":"owner","type":"address","internalType":"address"}]},{"type":"error","name":"OwnableUnauthorizedAccount","inputs":[{"name":"account","type":"address","internalType":"address"}]},{"type":"error","name":"SafeCastOverflowedUintDowncast","inputs":[{"name":"bits","type":"uint8","internalType":"uint8"},{"name":"value","type":"uint256","internalType":"uint256"}]},{"type":"error","name":"UUPSUnauthorizedCallContext","inputs":[]},{"type":"error","name":"UUPSUnsupportedProxiableUUID","inputs":[{"name":"slot","type":"bytes32","internalType":"bytes32"}]},{"type":"error","name":"VotesExpiredSignature","inputs":[{"name":"expiry","type":"uint256","internalType":"uint256"}]}],"bytecode":{"object":"0x60a060405230608052348015610013575f5ffd5b5061001c610021565b6100d3565b7ff0c57e16840df040f15088dc2f81fe391c3923bec73e23a9662efc9c229c6a00805468010000000000000000900460ff16156100715760405163f92ee8a960e01b815260040160405180910390fd5b80546001600160401b03908116146100d05780546001600160401b0319166001600160401b0390811782556040519081527fc7f505b2f371ae2175ee4913f4499e1f2633a7b5936321eed1cdaeb6115181d29060200160405180910390a15b50565b608051612d376100f95f395f8181611181015281816111aa01526112e90152612d375ff3fe608060405260043610610207575f3560e01c80637ecebe0011610113578063ad3cb1cc1161009d578063d505accf1161006d578063d505accf14610637578063dd62ed3e14610656578063f1127ed814610675578063f2fde38b146106c0578063f76f8d78146106df575f5ffd5b8063ad3cb1cc146105b5578063c3cda520146105e5578063c4d66de814610604578063c50497ae14610623575f5ffd5b806391ddadf4116100e357806391ddadf41461050557806395d89b41146105305780639ab24eb014610544578063a3f4df7e14610563578063a9059cbb14610596575f5ffd5b80637ecebe001461046457806384b0196e146104835780638da5cb5b146104aa5780638e539e8c146104e6575f5ffd5b80634bf5d7e9116101945780635c19a95c116101645780635c19a95c146103bf5780636fcfff45146103de57806370a0823114610412578063715018a61461043157806379cc679014610445575f5ffd5b80634bf5d7e91461034d5780634f1ef2861461036157806352d1902d14610374578063587cde1e14610388575f5ffd5b80632e0f2625116101da5780632e0f2625146102c0578063313ce567146102e65780633644e515146102f95780633a46b1a81461030d57806342966c681461032c575f5ffd5b806306fdde031461020b578063095ea7b31461023557806318160ddd1461026457806323b872dd146102a1575b5f5ffd5b348015610216575f5ffd5b5061021f61070d565b60405161022c91906125fb565b60405180910390f35b348015610240575f5ffd5b5061025461024f366004612628565b6107b2565b604051901515815260200161022c565b34801561026f575f5ffd5b507f52c63247e1f47db19d5ce0460030c497f067ca4cebf71ba98eeadabe20bace02545b60405190815260200161022c565b3480156102ac575f5ffd5b506102546102bb366004612650565b6107cb565b3480156102cb575f5ffd5b506102d4601281565b60405160ff909116815260200161022c565b3480156102f1575f5ffd5b5060126102d4565b348015610304575f5ffd5b506102936107ee565b348015610318575f5ffd5b50610293610327366004612628565b6107fc565b348015610337575f5ffd5b5061034b61034636600461268a565b610847565b005b348015610358575f5ffd5b5061021f610854565b61034b61036f3660046126b5565b6108cc565b34801561037f575f5ffd5b506102936108eb565b348015610393575f5ffd5b506103a76103a2366004612779565b610906565b6040516001600160a01b03909116815260200161022c565b3480156103ca575f5ffd5b5061034b6103d9366004612779565b61092f565b3480156103e9575f5ffd5b506103fd6103f8366004612779565b61093a565b60405163ffffffff909116815260200161022c565b34801561041d575f5ffd5b5061029361042c366004612779565b610944565b34801561043c575f5ffd5b5061034b610974565b348015610450575f5ffd5b5061034b61045f366004612628565b610987565b34801561046f575f5ffd5b5061029361047e366004612779565b61099c565b34801561048e575f5ffd5b506104976109a6565b60405161022c9796959493929190612792565b3480156104b5575f5ffd5b507f9016d09d72d40fdae2fd8ceac6b6234c7706214fd39c1cd1e609a0528c199300546001600160a01b03166103a7565b3480156104f1575f5ffd5b5061029361050036600461268a565b610a54565b348015610510575f5ffd5b50610519610a89565b60405165ffffffffffff909116815260200161022c565b34801561053b575f5ffd5b5061021f610a92565b34801561054f575f5ffd5b5061029361055e366004612779565b610ad0565b34801561056e575f5ffd5b5061021f604051806040016040528060088152602001675661756c7465726160c01b81525081565b3480156105a1575f5ffd5b506102546105b0366004612628565b610b1e565b3480156105c0575f5ffd5b5061021f604051806040016040528060058152602001640352e302e360dc1b81525081565b3480156105f0575f5ffd5b5061034b6105ff366004612838565b610b2b565b34801561060f575f5ffd5b5061034b61061e366004612779565b610be7565b34801561062e575f5ffd5b50610293610d81565b348015610642575f5ffd5b5061034b61065136600461288c565b610d9e565b348015610661575f5ffd5b506102936106703660046128f2565b610eb7565b348015610680575f5ffd5b5061069461068f366004612923565b610f00565b60408051825165ffffffffffff1681526020928301516001600160d01b0316928101929092520161022c565b3480156106cb575f5ffd5b5061034b6106da366004612779565b610f24565b3480156106ea575f5ffd5b5061021f6040518060400160405280600381526020016256544560e81b81525081565b60605f5f516020612ca25f395f51905f525b905080600301805461073090612960565b80601f016020809104026020016040519081016040528092919081815260200182805461075c90612960565b80156107a75780601f1061077e576101008083540402835291602001916107a7565b820191905f5260205f20905b81548152906001019060200180831161078a57829003601f168201915b505050505091505090565b5f336107bf818585610f5e565b60019150505b92915050565b5f336107d8858285610f70565b6107e3858585610fd4565b506001949350505050565b5f6107f7611031565b905090565b5f5f516020612c825f395f51905f526108366108178461103a565b6001600160a01b0386165f908152600184016020526040902090611088565b6001600160d01b0316949350505050565b6108513382611138565b50565b606061085e61116c565b65ffffffffffff1661086e610a89565b65ffffffffffff1614610894576040516301bfc1c560e61b815260040160405180910390fd5b5060408051808201909152601d81527f6d6f64653d626c6f636b6e756d6265722666726f6d3d64656661756c74000000602082015290565b6108d4611176565b6108dd8261121a565b6108e78282611222565b5050565b5f6108f46112de565b505f516020612ce25f395f51905f5290565b6001600160a01b039081165f9081525f516020612c825f395f51905f5260205260409020541690565b336108e78183611327565b5f6107c5826113ae565b5f805f516020612ca25f395f51905f525b6001600160a01b039093165f9081526020939093525050604090205490565b61097c6113fd565b6109855f611458565b565b610992823383610f70565b6108e78282611138565b5f6107c5826114c8565b5f60608082808083815f516020612cc25f395f51905f5280549091501580156109d157506001810154155b610a1a5760405162461bcd60e51b81526020600482015260156024820152741152540dcc4c8e88155b9a5b9a5d1a585b1a5e9959605a1b60448201526064015b60405180910390fd5b610a226114d2565b610a2a611510565b604080515f80825260208201909252600f60f81b9c939b5091995046985030975095509350915050565b5f5f516020612c825f395f51905f52610a79610a6f8461103a565b6002830190611088565b6001600160d01b03169392505050565b5f6107f761116c565b7f52c63247e1f47db19d5ce0460030c497f067ca4cebf71ba98eeadabe20bace0480546060915f516020612ca25f395f51905f529161073090612960565b6001600160a01b0381165f9081527fe8b26c30fad74198956032a3533d903385d56dd795af560196f9c78d4af40d01602052604081205f516020612c825f395f51905f5290610a7990611526565b5f336107bf818585610fd4565b83421115610b4f57604051632341d78760e11b815260048101859052602401610a11565b604080517fe48329057bfd03d55e49b547132e39cffd9c1820ad7b9d4c5307691425d15adf60208201526001600160a01b0388169181019190915260608101869052608081018590525f90610bc890610bc09060a0016040516020818303038152906040528051906020012061155d565b858585611589565b9050610bd481876115b5565b610bde8188611327565b50505050505050565b5f610bf06115f3565b805490915060ff600160401b820416159067ffffffffffffffff165f81158015610c175750825b90505f8267ffffffffffffffff166001148015610c335750303b155b905081158015610c41575080155b15610c5f5760405163f92ee8a960e01b815260040160405180910390fd5b845467ffffffffffffffff191660011785558315610c8957845460ff60401b1916600160401b1785555b610cce604051806040016040528060088152602001675661756c7465726160c01b8152506040518060400160405280600381526020016256544560e81b81525061161b565b610cd661162d565b610cff604051806040016040528060088152602001675661756c7465726160c01b815250611635565b610d0761162d565b610d1086611660565b610d3386610d206012600a612a87565b610d2e90633b9aca00612a95565b611671565b8315610d7957845460ff60401b19168555604051600181527fc7f505b2f371ae2175ee4913f4499e1f2633a7b5936321eed1cdaeb6115181d29060200160405180910390a15b505050505050565b610d8d6012600a612a87565b610d9b90633b9aca00612a95565b81565b83421115610dc25760405163313c898160e11b815260048101859052602401610a11565b5f7f6e71edae12b1b97f4d1f60370fef10105fa2faae0126114a169c64845d6126c9888888610df08c6116a5565b6040805160208101969096526001600160a01b0394851690860152929091166060840152608083015260a082015260c0810186905260e0016040516020818303038152906040528051906020012090505f610e4a8261155d565b90505f610e5982878787611589565b9050896001600160a01b0316816001600160a01b031614610ea0576040516325c0072360e11b81526001600160a01b0380831660048301528b166024820152604401610a11565b610eab8a8a8a610f5e565b50505050505050505050565b6001600160a01b039182165f9081527f52c63247e1f47db19d5ce0460030c497f067ca4cebf71ba98eeadabe20bace016020908152604080832093909416825291909152205490565b604080518082019091525f8082526020820152610f1d83836116e6565b9392505050565b610f2c6113fd565b6001600160a01b038116610f5557604051631e4fbdf760e01b81525f6004820152602401610a11565b61085181611458565b610f6b838383600161174f565b505050565b5f610f7b8484610eb7565b90505f19811015610fce5781811015610fc057604051637dc7a0d960e11b81526001600160a01b03841660048201526024810182905260448101839052606401610a11565b610fce84848484035f61174f565b50505050565b6001600160a01b038316610ffd57604051634b637e8f60e11b81525f6004820152602401610a11565b6001600160a01b0382166110265760405163ec442f0560e01b81525f6004820152602401610a11565b610f6b838383611833565b5f6107f761183e565b5f5f611044610a89565b90508065ffffffffffff16831061107f57604051637669fc0f60e11b81526004810184905265ffffffffffff82166024820152604401610a11565b610f1d836118b1565b81545f90818160058111156110e4575f6110a1846118e7565b6110ab9085612aac565b5f8881526020902090915081015465ffffffffffff90811690871610156110d4578091506110e2565b6110df816001612abf565b92505b505b5f6110f187878585611a3a565b9050801561112b5761111587611108600184612aac565b5f91825260209091200190565b54600160301b90046001600160d01b031661112d565b5f5b979650505050505050565b6001600160a01b03821661116157604051634b637e8f60e11b81525f6004820152602401610a11565b6108e7825f83611833565b5f6107f7436118b1565b306001600160a01b037f00000000000000000000000000000000000000000000000000000000000000001614806111fc57507f00000000000000000000000000000000000000000000000000000000000000006001600160a01b03166111f05f516020612ce25f395f51905f52546001600160a01b031690565b6001600160a01b031614155b156109855760405163703e46dd60e11b815260040160405180910390fd5b6108516113fd565b816001600160a01b03166352d1902d6040518163ffffffff1660e01b8152600401602060405180830381865afa92505050801561127c575060408051601f3d908101601f1916820190925261127991810190612ad2565b60015b6112a457604051634c9c8ce360e01b81526001600160a01b0383166004820152602401610a11565b5f516020612ce25f395f51905f5281146112d457604051632a87526960e21b815260048101829052602401610a11565b610f6b8383611a99565b306001600160a01b037f000000000000000000000000000000000000000000000000000000000000000016146109855760405163703e46dd60e11b815260040160405180910390fd5b5f516020612c825f395f51905f525f61133f84610906565b6001600160a01b038581165f8181526020869052604080822080546001600160a01b031916898616908117909155905194955093928516927f3134e8a2e6d97e929a7e54011ea5485d7d196dd5f0ba4d4ef95803e8e3fc257f9190a4610fce81846113a987611aee565b611af8565b6001600160a01b0381165f9081527fe8b26c30fad74198956032a3533d903385d56dd795af560196f9c78d4af40d0160205260408120545f516020612c825f395f51905f5290610f1d90611c6e565b3361142f7f9016d09d72d40fdae2fd8ceac6b6234c7706214fd39c1cd1e609a0528c199300546001600160a01b031690565b6001600160a01b0316146109855760405163118cdaa760e01b8152336004820152602401610a11565b7f9016d09d72d40fdae2fd8ceac6b6234c7706214fd39c1cd1e609a0528c19930080546001600160a01b031981166001600160a01b03848116918217845560405192169182907f8be0079c531659141344cd1fd0a4f28419497f9722a3daafe3b4186f6b6457e0905f90a3505050565b5f6107c582611c9e565b7fa16a46d94261c7517cc8ff89f61c0ce93598e3c849801011dee649a6a557d10280546060915f516020612cc25f395f51905f529161073090612960565b60605f5f516020612cc25f395f51905f5261071f565b80545f9080156115555761153f83611108600184612aac565b54600160301b90046001600160d01b0316610f1d565b5f9392505050565b5f6107c5611569611031565b8360405161190160f01b8152600281019290925260228201526042902090565b5f5f5f5f61159988888888611cc6565b9250925092506115a98282611d8e565b50909695505050505050565b5f6115bf836116a5565b9050808214610f6b576040516301d4b62360e61b81526001600160a01b038416600482015260248101829052604401610a11565b5f807ff0c57e16840df040f15088dc2f81fe391c3923bec73e23a9662efc9c229c6a006107c5565b611623611e46565b6108e78282611e6b565b610985611e46565b61163d611e46565b61085181604051806040016040528060018152602001603160f81b815250611ebb565b611668611e46565b61085181611f1a565b6001600160a01b03821661169a5760405163ec442f0560e01b81525f6004820152602401610a11565b6108e75f8383611833565b6001600160a01b03165f9081527f5ab42ced628888259c08ac98db1eb0cf702fc1501344311d8b100cd1bfe4bb006020526040902080546001810190915590565b6040805180820182525f80825260208083018290526001600160a01b03861682527fe8b26c30fad74198956032a3533d903385d56dd795af560196f9c78d4af40d019052919091205f516020612c825f395f51905f52906117479084611f22565b949350505050565b5f516020612ca25f395f51905f526001600160a01b0385166117865760405163e602df0560e01b81525f6004820152602401610a11565b6001600160a01b0384166117af57604051634a1406b160e11b81525f6004820152602401610a11565b6001600160a01b038086165f9081526001830160209081526040808320938816835292905220839055811561182c57836001600160a01b0316856001600160a01b03167f8c5be1e5ebec7d5bd14f71427d1e84f3dd0314c0f7b2291e5b200ac8c7c3b9258560405161182391815260200190565b60405180910390a35b5050505050565b610f6b838383611f8f565b5f7f8b73c3c69bb8fe3d512ecc4cf759cc79239f7b179b0ffacaa9a75d522b39400f611868612014565b61187061207c565b60408051602081019490945283019190915260608201524660808201523060a082015260c00160405160208183030381529060405280519060200120905090565b5f65ffffffffffff8211156118e3576040516306dfcc6560e41b81526030600482015260248101839052604401610a11565b5090565b5f600182116118f4575090565b816001600160801b821061190d5760809190911c9060401b5b600160401b82106119235760409190911c9060201b5b640100000000821061193a5760209190911c9060101b5b62010000821061194f5760109190911c9060081b5b61010082106119635760089190911c9060041b5b601082106119765760049190911c9060021b5b600482106119825760011b5b600302600190811c9081858161199a5761199a612ae9565b048201901c905060018185816119b2576119b2612ae9565b048201901c905060018185816119ca576119ca612ae9565b048201901c905060018185816119e2576119e2612ae9565b048201901c905060018185816119fa576119fa612ae9565b048201901c90506001818581611a1257611a12612ae9565b048201901c9050611a31818581611a2b57611a2b612ae9565b04821190565b90039392505050565b5f5b81831015611a91575f611a4f84846120be565b5f8781526020902090915065ffffffffffff86169082015465ffffffffffff161115611a7d57809250611a8b565b611a88816001612abf565b93505b50611a3c565b509392505050565b611aa2826120d8565b6040516001600160a01b038316907fbc7cd75a20ee27fd9adebab32041f755214dbc6bffa90cc0225b39da2e5c2d3b905f90a2805115611ae657610f6b828261213b565b6108e76121db565b5f6107c582610944565b5f516020612c825f395f51905f526001600160a01b0384811690841614801590611b2157505f82115b15610fce576001600160a01b03841615611bca576001600160a01b0384165f90815260018201602052604081208190611b65906121fa611b6087612205565b612238565b6001600160d01b031691506001600160d01b03169150856001600160a01b03167fdec2bacdd2f05b59de34da9b523dff8be42e5e38e818c82fdb0bae774387a7248383604051611bbf929190918252602082015260400190565b60405180910390a250505b6001600160a01b03831615610fce576001600160a01b0383165f90815260018201602052604081208190611c0490612270611b6087612205565b6001600160d01b031691506001600160d01b03169150846001600160a01b03167fdec2bacdd2f05b59de34da9b523dff8be42e5e38e818c82fdb0bae774387a7248383604051611c5e929190918252602082015260400190565b60405180910390a2505050505050565b5f63ffffffff8211156118e3576040516306dfcc6560e41b81526020600482015260248101839052604401610a11565b5f807f5ab42ced628888259c08ac98db1eb0cf702fc1501344311d8b100cd1bfe4bb00610955565b5f80807f7fffffffffffffffffffffffffffffff5d576e7357a4501ddfe92f46681b20a0841115611cff57505f91506003905082611d84565b604080515f808252602082018084528a905260ff891692820192909252606081018790526080810186905260019060a0016020604051602081039080840390855afa158015611d50573d5f5f3e3d5ffd5b5050604051601f1901519150506001600160a01b038116611d7b57505f925060019150829050611d84565b92505f91508190505b9450945094915050565b5f826003811115611da157611da1612afd565b03611daa575050565b6001826003811115611dbe57611dbe612afd565b03611ddc5760405163f645eedf60e01b815260040160405180910390fd5b6002826003811115611df057611df0612afd565b03611e115760405163fce698f760e01b815260048101829052602401610a11565b6003826003811115611e2557611e25612afd565b036108e7576040516335e2f38360e21b815260048101829052602401610a11565b611e4e61227b565b61098557604051631afcd79f60e31b815260040160405180910390fd5b611e73611e46565b5f516020612ca25f395f51905f527f52c63247e1f47db19d5ce0460030c497f067ca4cebf71ba98eeadabe20bace03611eac8482612b55565b5060048101610fce8382612b55565b611ec3611e46565b5f516020612cc25f395f51905f527fa16a46d94261c7517cc8ff89f61c0ce93598e3c849801011dee649a6a557d102611efc8482612b55565b5060038101611f0b8382612b55565b505f8082556001909101555050565b610f2c611e46565b604080518082019091525f8082526020820152825f018263ffffffff1681548110611f4f57611f4f612c10565b5f9182526020918290206040805180820190915291015465ffffffffffff81168252600160301b90046001600160d01b0316918101919091529392505050565b611f9a838383612294565b6001600160a01b038316612009575f611fd17f52c63247e1f47db19d5ce0460030c497f067ca4cebf71ba98eeadabe20bace025490565b90506001600160d01b038082111561200657604051630e58ae9360e11b81526004810183905260248101829052604401610a11565b50505b610f6b8383836123cd565b5f5f516020612cc25f395f51905f528161202c6114d2565b80519091501561204457805160209091012092915050565b81548015612053579392505050565b7fc5d2460186f7233c927e7db2dcc703c0e500b653ca82273b7bfad8045d85a470935050505090565b5f5f516020612cc25f395f51905f5281612094611510565b8051909150156120ac57805160209091012092915050565b60018201548015612053579392505050565b5f6120cc6002848418612c24565b610f1d90848416612abf565b806001600160a01b03163b5f0361210d57604051634c9c8ce360e01b81526001600160a01b0382166004820152602401610a11565b5f516020612ce25f395f51905f5280546001600160a01b0319166001600160a01b0392909216919091179055565b60605f612148848461243e565b905080801561216957505f3d118061216957505f846001600160a01b03163b115b1561217e57612176612451565b9150506107c5565b80156121a857604051639996b31560e01b81526001600160a01b0385166004820152602401610a11565b3d156121bb576121b661246a565b6121d4565b60405163d6bda27560e01b815260040160405180910390fd5b5092915050565b34156109855760405163b398979f60e01b815260040160405180910390fd5b5f610f1d8284612c43565b5f6001600160d01b038211156118e3576040516306dfcc6560e41b815260d0600482015260248101839052604401610a11565b5f5f612263612245610a89565b61225b61225188611526565b868863ffffffff16565b879190612475565b915091505b935093915050565b5f610f1d8284612c62565b5f6122846115f3565b54600160401b900460ff16919050565b5f516020612ca25f395f51905f526001600160a01b0384166122ce5781816002015f8282546122c39190612abf565b9091555061233e9050565b6001600160a01b0384165f90815260208290526040902054828110156123205760405163391434e360e21b81526001600160a01b03861660048201526024810182905260448101849052606401610a11565b6001600160a01b0385165f9081526020839052604090209083900390555b6001600160a01b03831661235c57600281018054839003905561237a565b6001600160a01b0383165f9081526020829052604090208054830190555b826001600160a01b0316846001600160a01b03167fddf252ad1be2c89b69c2b068fc378daa952ba7f163c4a11628f55a4df523b3ef846040516123bf91815260200190565b60405180910390a350505050565b5f516020612c825f395f51905f526001600160a01b0384166123ff576123fc81600201612270611b6085612205565b50505b6001600160a01b03831661242357612420816002016121fa611b6085612205565b50505b610fce61242f85610906565b61243885610906565b84611af8565b5f5f5f835160208501865af49392505050565b6040513d81523d5f602083013e3d602001810160405290565b6040513d5f823e3d81fd5b5f8061226385858582545f9081908015612573575f61249987611108600185612aac565b805490915065ffffffffffff80821691600160301b90046001600160d01b03169088168211156124dc57604051632520601d60e01b815260040160405180910390fd5b8765ffffffffffff168265ffffffffffff160361251557825465ffffffffffff16600160301b6001600160d01b03891602178355612565565b6040805180820190915265ffffffffffff808a1682526001600160d01b03808a1660208085019182528d54600181018f555f8f81529190912094519151909216600160301b029216919091179101555b945085935061226892505050565b50506040805180820190915265ffffffffffff80851682526001600160d01b0380851660208085019182528854600181018a555f8a815291822095519251909316600160301b029190931617920191909155905081612268565b5f81518084528060208401602086015e5f602082860101526020601f19601f83011685010191505092915050565b602081525f610f1d60208301846125cd565b80356001600160a01b0381168114612623575f5ffd5b919050565b5f5f60408385031215612639575f5ffd5b6126428361260d565b946020939093013593505050565b5f5f5f60608486031215612662575f5ffd5b61266b8461260d565b92506126796020850161260d565b929592945050506040919091013590565b5f6020828403121561269a575f5ffd5b5035919050565b634e487b7160e01b5f52604160045260245ffd5b5f5f604083850312156126c6575f5ffd5b6126cf8361260d565b9150602083013567ffffffffffffffff8111156126ea575f5ffd5b8301601f810185136126fa575f5ffd5b803567ffffffffffffffff811115612714576127146126a1565b604051601f8201601f19908116603f0116810167ffffffffffffffff81118282101715612743576127436126a1565b60405281815282820160200187101561275a575f5ffd5b816020840160208301375f602083830101528093505050509250929050565b5f60208284031215612789575f5ffd5b610f1d8261260d565b60ff60f81b8816815260e060208201525f6127b060e08301896125cd565b82810360408401526127c281896125cd565b606084018890526001600160a01b038716608085015260a0840186905283810360c0850152845180825260208087019350909101905f5b818110156128175783518352602093840193909201916001016127f9565b50909b9a5050505050505050505050565b803560ff81168114612623575f5ffd5b5f5f5f5f5f5f60c0878903121561284d575f5ffd5b6128568761260d565b9550602087013594506040870135935061287260608801612828565b9598949750929560808101359460a0909101359350915050565b5f5f5f5f5f5f5f60e0888a0312156128a2575f5ffd5b6128ab8861260d565b96506128b96020890161260d565b955060408801359450606088013593506128d560808901612828565b9699959850939692959460a0840135945060c09093013592915050565b5f5f60408385031215612903575f5ffd5b61290c8361260d565b915061291a6020840161260d565b90509250929050565b5f5f60408385031215612934575f5ffd5b61293d8361260d565b9150602083013563ffffffff81168114612955575f5ffd5b809150509250929050565b600181811c9082168061297457607f821691505b60208210810361299257634e487b7160e01b5f52602260045260245ffd5b50919050565b634e487b7160e01b5f52601160045260245ffd5b6001815b6001841115612268578085048111156129cb576129cb612998565b60018416156129d957908102905b60019390931c9280026129b0565b5f826129f5575060016107c5565b81612a0157505f6107c5565b8160018114612a175760028114612a2157612a3d565b60019150506107c5565b60ff841115612a3257612a32612998565b50506001821b6107c5565b5060208310610133831016604e8410600b8410161715612a60575081810a6107c5565b612a6c5f1984846129ac565b805f1904821115612a7f57612a7f612998565b029392505050565b5f610f1d60ff8416836129e7565b80820281158282048414176107c5576107c5612998565b818103818111156107c5576107c5612998565b808201808211156107c5576107c5612998565b5f60208284031215612ae2575f5ffd5b5051919050565b634e487b7160e01b5f52601260045260245ffd5b634e487b7160e01b5f52602160045260245ffd5b601f821115610f6b57805f5260205f20601f840160051c81016020851015612b365750805b601f840160051c820191505b8181101561182c575f8155600101612b42565b815167ffffffffffffffff811115612b6f57612b6f6126a1565b612b8381612b7d8454612960565b84612b11565b6020601f821160018114612bb5575f8315612b9e5750848201515b5f19600385901b1c1916600184901b17845561182c565b5f84815260208120601f198516915b82811015612be45787850151825560209485019460019092019101612bc4565b5084821015612c0157868401515f19600387901b60f8161c191681555b50505050600190811b01905550565b634e487b7160e01b5f52603260045260245ffd5b5f82612c3e57634e487b7160e01b5f52601260045260245ffd5b500490565b6001600160d01b0382811682821603908111156107c5576107c5612998565b6001600160d01b0381811683821601908111156107c5576107c561299856fee8b26c30fad74198956032a3533d903385d56dd795af560196f9c78d4af40d0052c63247e1f47db19d5ce0460030c497f067ca4cebf71ba98eeadabe20bace00a16a46d94261c7517cc8ff89f61c0ce93598e3c849801011dee649a6a557d100360894a13ba1a3210667c828492db98dca3e2076cc3735a920a3ca505d382bbca2646970667358221220864ea75c8ac4397b8d1640a745dbc8650207363115ae4d1390b7d1846ad4c77c64736f6c634300081c0033","linkReferences":{}},"methodIdentifiers":{"CLOCK_MODE()":"4bf5d7e9","DECIMALS()":"2e0f2625","DOMAIN_SEPARATOR()":"3644e515","NAME()":"a3f4df7e","SUPPLY()":"c50497ae","SYMBOL()":"f76f8d78","UPGRADE_INTERFACE_VERSION()":"ad3cb1cc","allowance(address,address)":"dd62ed3e","approve(address,uint256)":"095ea7b3","balanceOf(address)":"70a08231","burn(uint256)":"42966c68","burnFrom(address,uint256)":"79cc6790","checkpoints(address,uint32)":"f1127ed8","clock()":"91ddadf4","decimals()":"313ce567","delegate(address)":"5c19a95c","delegateBySig(address,uint256,uint256,uint8,bytes32,bytes32)":"c3cda520","delegates(address)":"587cde1e","eip712Domain()":"84b0196e","getPastTotalSupply(uint256)":"8e539e8c","getPastVotes(address,uint256)":"3a46b1a8","getVotes(address)":"9ab24eb0","initialize(address)":"c4d66de8","name()":"06fdde03","nonces(address)":"7ecebe00","numCheckpoints(address)":"6fcfff45","owner()":"8da5cb5b","permit(address,address,uint256,uint256,uint8,bytes32,bytes32)":"d505accf","proxiableUUID()":"52d1902d","renounceOwnership()":"715018a6","symbol()":"95d89b41","totalSupply()":"18160ddd","transfer(address,uint256)":"a9059cbb","transferFrom(address,address,uint256)":"23b872dd","transferOwnership(address)":"f2fde38b","upgradeToAndCall(address,bytes)":"4f1ef286"},"storageLayout":{"storage":[],"types":{}},"id":54}