{"abi":[{"type":"constructor","inputs":[{"name":"_integrationManager","type":"address","internalType":"address"},{"name":"_router","type":"address","internalType":"address"},{"name":"_factory","type":"address","internalType":"address"}],"stateMutability":"nonpayable"},{"type":"function","name":"CLAIM_REWARDS_SELECTOR","inputs":[],"outputs":[{"name":"","type":"bytes4","internalType":"bytes4"}],"stateMutability":"view"},{"type":"function","name":"LEND_AND_STAKE_SELECTOR","inputs":[],"outputs":[{"name":"","type":"bytes4","internalType":"bytes4"}],"stateMutability":"view"},{"type":"function","name":"LEND_SELECTOR","inputs":[],"outputs":[{"name":"","type":"bytes4","internalType":"bytes4"}],"stateMutability":"view"},{"type":"function","name":"REDEEM_SELECTOR","inputs":[],"outputs":[{"name":"","type":"bytes4","internalType":"bytes4"}],"stateMutability":"view"},{"type":"function","name":"STAKE_SELECTOR","inputs":[],"outputs":[{"name":"","type":"bytes4","internalType":"bytes4"}],"stateMutability":"view"},{"type":"function","name":"TAKE_MULTIPLE_ORDERS_SELECTOR","inputs":[],"outputs":[{"name":"","type":"bytes4","internalType":"bytes4"}],"stateMutability":"view"},{"type":"function","name":"TAKE_ORDER_SELECTOR","inputs":[],"outputs":[{"name":"","type":"bytes4","internalType":"bytes4"}],"stateMutability":"view"},{"type":"function","name":"UNSTAKE_AND_REDEEM_SELECTOR","inputs":[],"outputs":[{"name":"","type":"bytes4","internalType":"bytes4"}],"stateMutability":"view"},{"type":"function","name":"UNSTAKE_SELECTOR","inputs":[],"outputs":[{"name":"","type":"bytes4","internalType":"bytes4"}],"stateMutability":"view"},{"type":"function","name":"getFactory","inputs":[],"outputs":[{"name":"factory_","type":"address","internalType":"address"}],"stateMutability":"view"},{"type":"function","name":"getIntegrationManager","inputs":[],"outputs":[{"name":"integrationManager_","type":"address","internalType":"address"}],"stateMutability":"view"},{"type":"function","name":"getUniswapV2Router2","inputs":[],"outputs":[{"name":"router_","type":"address","internalType":"address"}],"stateMutability":"view"},{"type":"function","name":"lend","inputs":[{"name":"_vaultProxy","type":"address","internalType":"address"},{"name":"_actionData","type":"bytes","internalType":"bytes"},{"name":"","type":"bytes","internalType":"bytes"}],"outputs":[],"stateMutability":"nonpayable"},{"type":"function","name":"parseAssetsForAction","inputs":[{"name":"","type":"address","internalType":"address"},{"name":"_selector","type":"bytes4","internalType":"bytes4"},{"name":"_actionData","type":"bytes","internalType":"bytes"}],"outputs":[{"name":"spendAssetsHandleType_","type":"uint8","internalType":"enum IIntegrationManager.SpendAssetsHandleType"},{"name":"spendAssets_","type":"address[]","internalType":"address[]"},{"name":"spendAssetAmounts_","type":"uint256[]","internalType":"uint256[]"},{"name":"incomingAssets_","type":"address[]","internalType":"address[]"},{"name":"minIncomingAssetAmounts_","type":"uint256[]","internalType":"uint256[]"}],"stateMutability":"view"},{"type":"function","name":"redeem","inputs":[{"name":"_vaultProxy","type":"address","internalType":"address"},{"name":"_actionData","type":"bytes","internalType":"bytes"},{"name":"_assetData","type":"bytes","internalType":"bytes"}],"outputs":[],"stateMutability":"nonpayable"}],"bytecode":{"object":"0x60e060405234801561001057600080fd5b506040516119663803806119668339818101604052606081101561003357600080fd5b50805160208201516040909201516001600160601b0319606092831b811660805292821b831660a052901b1660c05260805160601c60a05160601c60c05160601c6118a26100c4600039806106c55280610fcb528061115952508061092652806109e15280610a0c5280610a335280610d1b5280610d425250806105225280610716528061094a52506118a26000f3fe608060405234801561001057600080fd5b50600436106100f55760003560e01c806388cc58e411610097578063c54efee511610066578063c54efee514610319578063d1ded408146104db578063e7c45690146104e3578063f7d882b5146104eb576100f5565b806388cc58e414610217578063b23228cf1461023b578063c29fa9dd14610243578063c32990a214610311576100f5565b8063257cb1a3116100d3578063257cb1a3146101f75780633ffc1591146101ff57806340da225d14610207578063863e5ad01461020f576100f5565b8063080456c1146100fa578063099f75151461011f578063131461c0146101ef575b600080fd5b6101026104f3565b604080516001600160e01b03199092168252519081900360200190f35b6101ed6004803603606081101561013557600080fd5b6001600160a01b038235169190810190604081016020820135600160201b81111561015f57600080fd5b82018360208201111561017157600080fd5b803590602001918460018302840111600160201b8311171561019257600080fd5b919390929091602081019035600160201b8111156101af57600080fd5b8201836020820111156101c157600080fd5b803590602001918460018302840111600160201b831117156101e257600080fd5b509092509050610517565b005b61010261060f565b610102610633565b610102610657565b61010261067b565b61010261069f565b61021f6106c3565b604080516001600160a01b039092168252519081900360200190f35b6101026106e7565b6101ed6004803603606081101561025957600080fd5b6001600160a01b038235169190810190604081016020820135600160201b81111561028357600080fd5b82018360208201111561029557600080fd5b803590602001918460018302840111600160201b831117156102b657600080fd5b919390929091602081019035600160201b8111156102d357600080fd5b8201836020820111156102e557600080fd5b803590602001918460018302840111600160201b8311171561030657600080fd5b50909250905061070b565b610102610862565b6103a66004803603606081101561032f57600080fd5b6001600160a01b03823516916001600160e01b031960208201351691810190606081016040820135600160201b81111561036857600080fd5b82018360208201111561037a57600080fd5b803590602001918460018302840111600160201b8311171561039b57600080fd5b509092509050610886565b604051808660028111156103b657fe5b815260200180602001806020018060200180602001858103855289818151815260200191508051906020019060200280838360005b838110156104035781810151838201526020016103eb565b50505050905001858103845288818151815260200191508051906020019060200280838360005b8381101561044257818101518382015260200161042a565b50505050905001858103835287818151815260200191508051906020019060200280838360005b83811015610481578181015183820152602001610469565b50505050905001858103825286818151815260200191508051906020019060200280838360005b838110156104c05781810151838201526020016104a8565b50505050905001995050505050505050505060405180910390f35b61021f610924565b61021f610948565b61010261096c565b7f8334eb99be0145865eba9889fca2ee920288090caefff4cc776038e20ad9259a81565b336001600160a01b037f0000000000000000000000000000000000000000000000000000000000000000161461057e5760405162461bcd60e51b81526004018080602001828103825260328152602001806117dd6032913960400191505060405180910390fd5b610586611798565b61058e611798565b610596611798565b6105d587878080601f01602080910402602001604051908101604052809392919081815260200183838082843760009201919091525061099092505050565b508251602080850151845182860151855193860151979a50959850939650610605958e95939491939192906109db565b5050505050505050565b7f29fa046e79524c3c5ac4c01df692c35e217802b2b13b21121b76cf0ef02b138c81565b7f099f75155f0e997bf83a7993a71d5e7e7540bd386fe1e84643a09ce6b412521981565b7ffa7dd04da627f433da73c4355ead9c75682a67a8fc84d3f6170ef0922f402d2481565b7fb9dfbaccbe5cd2a84fdcf1d15f23ef25d23086f5afbaa99516065ed4a5bbc7a381565b7f03e38a2bd7063d45c897edeafc330e71657502dd86434d3c37a489caf116af6981565b7f000000000000000000000000000000000000000000000000000000000000000090565b7f68e30677f607df46e87da13e15b637784cfa62374b653f35ab43d10361a2f83081565b336001600160a01b037f000000000000000000000000000000000000000000000000000000000000000016146107725760405162461bcd60e51b81526004018080602001828103825260328152602001806117dd6032913960400191505060405180910390fd5b600061077c611798565b610784611798565b6107c387878080601f016020809104026020016040519081016040528093929190818152602001838380828437600092019190915250610b1b92505050565b925092509250606061080a86868080601f016020809104026020016040519081016040528093929190818152602001838380828437600092019190915250610b5892505050565b50509050610857898260008151811061081f57fe5b6020026020010151868660006002811061083557fe5b6020020151876001602002015187600060200201518860016020020151610d15565b505050505050505050565b7f0e7f692dad5b88fdee426250d6eae91207e56a2e8112b7364579bed1790e5bf481565b600060608080806001600160e01b0319881663099f751560e01b14156108bf576108b08787610e21565b94509450945094509450610919565b6001600160e01b0319881663c29fa9dd60e01b14156108e2576108b087876110a9565b60405162461bcd60e51b815260040180806020018281038252602781526020018061186f6027913960400191505060405180910390fd5b945094509450945094565b7f000000000000000000000000000000000000000000000000000000000000000090565b7f000000000000000000000000000000000000000000000000000000000000000090565b7fc29fa9dde84204c2908778afd0613d802d31cf046179b88f6d2b4a4e507ea2d581565b610998611798565b6109a0611798565b6109a8611798565b60008480602001905160e08110156109bf57600080fd5b5060c08101519096604088019650608088019550909350915050565b610a06867f0000000000000000000000000000000000000000000000000000000000000000866112eb565b610a31857f0000000000000000000000000000000000000000000000000000000000000000856112eb565b7f00000000000000000000000000000000000000000000000000000000000000006001600160a01b031663e8e337008787878787878e610a6f6113a9565b6040518963ffffffff1660e01b815260040180896001600160a01b03168152602001886001600160a01b03168152602001878152602001868152602001858152602001848152602001836001600160a01b0316815260200182815260200198505050505050505050606060405180830381600087803b158015610af157600080fd5b505af1158015610b05573d6000803e3d6000fd5b505050506040513d606081101561085757600080fd5b6000610b25611798565b610b2d611798565b8380602001905160a0811015610b4257600080fd5b5080519560208201955060609091019350915050565b6060806060838060200190516060811015610b7257600080fd5b8101908080516040519392919084600160201b821115610b9157600080fd5b908301906020820185811115610ba657600080fd5b82518660208202830111600160201b82111715610bc257600080fd5b82525081516020918201928201910280838360005b83811015610bef578181015183820152602001610bd7565b5050505090500160405260200180516040519392919084600160201b821115610c1757600080fd5b908301906020820185811115610c2c57600080fd5b82518660208202830111600160201b82111715610c4857600080fd5b82525081516020918201928201910280838360005b83811015610c75578181015183820152602001610c5d565b5050505090500160405260200180516040519392919084600160201b821115610c9d57600080fd5b908301906020820185811115610cb257600080fd5b82518660208202830111600160201b82111715610cce57600080fd5b82525081516020918201928201910280838360005b83811015610cfb578181015183820152602001610ce3565b505050509050016040525050509250925092509193909250565b610d40867f0000000000000000000000000000000000000000000000000000000000000000876112eb565b7f00000000000000000000000000000000000000000000000000000000000000006001600160a01b031663baa2abde85858886868d610d7d6113a9565b6040518863ffffffff1660e01b815260040180886001600160a01b03168152602001876001600160a01b03168152602001868152602001858152602001848152602001836001600160a01b031681526020018281526020019750505050505050506040805180830381600087803b158015610df757600080fd5b505af1158015610e0b573d6000803e3d6000fd5b505050506040513d604081101561085757600080fd5b6000606080606080610e31611798565b610e39611798565b6000610e7a8a8a8080601f01602080910402602001604051908101604052809392919081815260200183838082843760009201919091525061099092505050565b93505092509250600267ffffffffffffffff81118015610e9957600080fd5b50604051908082528060200260200182016040528015610ec3578160200160208202803683370190505b509650826000602002015187600081518110610edb57fe5b6001600160a01b0392909216602092830291909101820152830151875188906001908110610f0557fe5b6001600160a01b039290921660209283029190910182015260408051600280825260608201835290929091908301908036833750508351825192985091889150600090610f4e57fe5b6020908102919091010152816001602002015186600181518110610f6e57fe5b602090810291909101015260408051600180825281830190925290816020016020820280368337505084516020808701516040805163e6a4390560e01b81526001600160a01b0394851660048201529184166024830152519499507f00000000000000000000000000000000000000000000000000000000000000009092169363e6a439059350604480840193829003018186803b15801561100f57600080fd5b505afa158015611023573d6000803e3d6000fd5b505050506040513d602081101561103957600080fd5b50518551869060009061104857fe5b6001600160a01b0392909216602092830291909101820152604080516001808252818301909252918281019080368337019050509350808460008151811061108c57fe5b602002602001018181525050600297505050509295509295909350565b600060608060608060006110bb611798565b6110c3611798565b6111028a8a8080601f016020809104026020016040519081016040528093929190818152602001838380828437600092019190915250610b1b92505050565b604080516001808252818301909252939650919450925060208083019080368337505083516020808601516040805163e6a4390560e01b81526001600160a01b039485166004820152918416602483015251949b507f00000000000000000000000000000000000000000000000000000000000000009092169363e6a439059350604480840193829003018186803b15801561119d57600080fd5b505afa1580156111b1573d6000803e3d6000fd5b505050506040513d60208110156111c757600080fd5b5051875188906000906111d657fe5b6001600160a01b0392909216602092830291909101820152604080516001808252818301909252918281019080368337019050509550828660008151811061121a57fe5b602090810291909101015260408051600280825260608201909252908160200160208202803683375050835182519297509187915060009061125857fe5b6001600160a01b039290921660209283029190910182015282015185518690600190811061128257fe5b6001600160a01b0392909216602092830291909101820152604080516002808252606082018352909290919083019080368337505082518251929650918691506000906112cb57fe5b602090810291909101015280600160200201518460018151811061108c57fe5b60408051636eb1769f60e11b81523060048201526001600160a01b038481166024830152915160009286169163dd62ed3e916044808301926020929190829003018186803b15801561133c57600080fd5b505afa158015611350573d6000803e3d6000fd5b505050506040513d602081101561136657600080fd5b50519050818110156113a357801561138d5761138d6001600160a01b0385168460006113b0565b6113a36001600160a01b038516846000196113b0565b50505050565b6001420190565b801580611436575060408051636eb1769f60e11b81523060048201526001600160a01b03848116602483015291519185169163dd62ed3e91604480820192602092909190829003018186803b15801561140857600080fd5b505afa15801561141c573d6000803e3d6000fd5b505050506040513d602081101561143257600080fd5b5051155b6114715760405162461bcd60e51b81526004018080602001828103825260368152602001806118396036913960400191505060405180910390fd5b604080516001600160a01b038416602482015260448082018490528251808303909101815260649091019091526020810180516001600160e01b031663095ea7b360e01b1790526114c39084906114c8565b505050565b606061151d826040518060400160405280602081526020017f5361666545524332303a206c6f772d6c6576656c2063616c6c206661696c6564815250856001600160a01b03166115799092919063ffffffff16565b8051909150156114c35780806020019051602081101561153c57600080fd5b50516114c35760405162461bcd60e51b815260040180806020018281038252602a81526020018061180f602a913960400191505060405180910390fd5b60606115888484600085611592565b90505b9392505050565b6060824710156115d35760405162461bcd60e51b81526004018080602001828103825260268152602001806117b76026913960400191505060405180910390fd5b6115dc856116ee565b61162d576040805162461bcd60e51b815260206004820152601d60248201527f416464726573733a2063616c6c20746f206e6f6e2d636f6e7472616374000000604482015290519081900360640190fd5b60006060866001600160a01b031685876040518082805190602001908083835b6020831061166c5780518252601f19909201916020918201910161164d565b6001836020036101000a03801982511681845116808217855250505050505090500191505060006040518083038185875af1925050503d80600081146116ce576040519150601f19603f3d011682016040523d82523d6000602084013e6116d3565b606091505b50915091506116e38282866116f4565b979650505050505050565b3b151590565b6060831561170357508161158b565b8251156117135782518084602001fd5b8160405162461bcd60e51b81526004018080602001828103825283818151815260200191508051906020019080838360005b8381101561175d578181015183820152602001611745565b50505050905090810190601f16801561178a5780820380516001836020036101000a031916815260200191505b509250505060405180910390fd5b6040518060400160405280600290602082028036833750919291505056fe416464726573733a20696e73756666696369656e742062616c616e636520666f722063616c6c4f6e6c792074686520496e746567726174696f6e4d616e616765722063616e2063616c6c20746869732066756e6374696f6e5361666545524332303a204552433230206f7065726174696f6e20646964206e6f7420737563636565645361666545524332303a20617070726f76652066726f6d206e6f6e2d7a65726f20746f206e6f6e2d7a65726f20616c6c6f77616e63657061727365417373657473466f72416374696f6e3a205f73656c6563746f7220696e76616c6964a164736f6c634300060c000a","linkReferences":{}},"methodIdentifiers":{"CLAIM_REWARDS_SELECTOR()":"40da225d","LEND_AND_STAKE_SELECTOR()":"131461c0","LEND_SELECTOR()":"257cb1a3","REDEEM_SELECTOR()":"f7d882b5","STAKE_SELECTOR()":"3ffc1591","TAKE_MULTIPLE_ORDERS_SELECTOR()":"c32990a2","TAKE_ORDER_SELECTOR()":"863e5ad0","UNSTAKE_AND_REDEEM_SELECTOR()":"080456c1","UNSTAKE_SELECTOR()":"b23228cf","getFactory()":"88cc58e4","getIntegrationManager()":"e7c45690","getUniswapV2Router2()":"d1ded408","lend(address,bytes,bytes)":"099f7515","parseAssetsForAction(address,bytes4,bytes)":"c54efee5","redeem(address,bytes,bytes)":"c29fa9dd"},"id":220}