{"abi":[{"type":"constructor","inputs":[{"name":"_integrationManager","type":"address","internalType":"address"},{"name":"_router","type":"address","internalType":"address"},{"name":"_factory","type":"address","internalType":"address"}],"stateMutability":"nonpayable"},{"type":"function","name":"CLAIM_REWARDS_SELECTOR","inputs":[],"outputs":[{"name":"","type":"bytes4","internalType":"bytes4"}],"stateMutability":"view"},{"type":"function","name":"LEND_AND_STAKE_SELECTOR","inputs":[],"outputs":[{"name":"","type":"bytes4","internalType":"bytes4"}],"stateMutability":"view"},{"type":"function","name":"LEND_SELECTOR","inputs":[],"outputs":[{"name":"","type":"bytes4","internalType":"bytes4"}],"stateMutability":"view"},{"type":"function","name":"REDEEM_SELECTOR","inputs":[],"outputs":[{"name":"","type":"bytes4","internalType":"bytes4"}],"stateMutability":"view"},{"type":"function","name":"STAKE_SELECTOR","inputs":[],"outputs":[{"name":"","type":"bytes4","internalType":"bytes4"}],"stateMutability":"view"},{"type":"function","name":"TAKE_MULTIPLE_ORDERS_SELECTOR","inputs":[],"outputs":[{"name":"","type":"bytes4","internalType":"bytes4"}],"stateMutability":"view"},{"type":"function","name":"TAKE_ORDER_SELECTOR","inputs":[],"outputs":[{"name":"","type":"bytes4","internalType":"bytes4"}],"stateMutability":"view"},{"type":"function","name":"UNSTAKE_AND_REDEEM_SELECTOR","inputs":[],"outputs":[{"name":"","type":"bytes4","internalType":"bytes4"}],"stateMutability":"view"},{"type":"function","name":"UNSTAKE_SELECTOR","inputs":[],"outputs":[{"name":"","type":"bytes4","internalType":"bytes4"}],"stateMutability":"view"},{"type":"function","name":"getFactory","inputs":[],"outputs":[{"name":"factory_","type":"address","internalType":"address"}],"stateMutability":"view"},{"type":"function","name":"getIntegrationManager","inputs":[],"outputs":[{"name":"integrationManager_","type":"address","internalType":"address"}],"stateMutability":"view"},{"type":"function","name":"getUniswapV2Router2","inputs":[],"outputs":[{"name":"router_","type":"address","internalType":"address"}],"stateMutability":"view"},{"type":"function","name":"lend","inputs":[{"name":"_vaultProxy","type":"address","internalType":"address"},{"name":"_actionData","type":"bytes","internalType":"bytes"},{"name":"","type":"bytes","internalType":"bytes"}],"outputs":[],"stateMutability":"nonpayable"},{"type":"function","name":"parseAssetsForAction","inputs":[{"name":"","type":"address","internalType":"address"},{"name":"_selector","type":"bytes4","internalType":"bytes4"},{"name":"_actionData","type":"bytes","internalType":"bytes"}],"outputs":[{"name":"spendAssetsHandleType_","type":"uint8","internalType":"enum IIntegrationManager.SpendAssetsHandleType"},{"name":"spendAssets_","type":"address[]","internalType":"address[]"},{"name":"spendAssetAmounts_","type":"uint256[]","internalType":"uint256[]"},{"name":"incomingAssets_","type":"address[]","internalType":"address[]"},{"name":"minIncomingAssetAmounts_","type":"uint256[]","internalType":"uint256[]"}],"stateMutability":"view"},{"type":"function","name":"redeem","inputs":[{"name":"_vaultProxy","type":"address","internalType":"address"},{"name":"_actionData","type":"bytes","internalType":"bytes"},{"name":"_assetData","type":"bytes","internalType":"bytes"}],"outputs":[],"stateMutability":"nonpayable"}],"bytecode":{"object":"0x60e060405234801561001057600080fd5b5060405161251b38038061251b8339818101604052606081101561003357600080fd5b8101908080519060200190929190805190602001909291908051906020019092919050505081838073ffffffffffffffffffffffffffffffffffffffff1660808173ffffffffffffffffffffffffffffffffffffffff1660601b81525050508073ffffffffffffffffffffffffffffffffffffffff1660a08173ffffffffffffffffffffffffffffffffffffffff1660601b81525050508073ffffffffffffffffffffffffffffffffffffffff1660c08173ffffffffffffffffffffffffffffffffffffffff1660601b8152505050505060805160601c60a05160601c60c05160601c6123b561016660003980610a035280611605528061187a525080610da35280610e7a5280610ea55280610ecc528061124f52806112765250806107be5280610a4d5280610dcb52506123b56000f3fe608060405234801561001057600080fd5b50600436106100f55760003560e01c806388cc58e411610097578063c54efee511610066578063c54efee5146104f2578063d1ded408146106f3578063e7c4569014610727578063f7d882b51461075b576100f5565b806388cc58e414610356578063b23228cf1461038a578063c29fa9dd146103c7578063c32990a2146104b5576100f5565b8063257cb1a3116100d3578063257cb1a3146102625780633ffc15911461029f57806340da225d146102dc578063863e5ad014610319576100f5565b8063080456c1146100fa578063099f751514610137578063131461c014610225575b600080fd5b610102610798565b60405180827bffffffffffffffffffffffffffffffffffffffffffffffffffffffff1916815260200191505060405180910390f35b6102236004803603606081101561014d57600080fd5b81019080803573ffffffffffffffffffffffffffffffffffffffff1690602001909291908035906020019064010000000081111561018a57600080fd5b82018360208201111561019c57600080fd5b803590602001918460018302840111640100000000831117156101be57600080fd5b9091929391929390803590602001906401000000008111156101df57600080fd5b8201836020820111156101f157600080fd5b8035906020019184600183028401116401000000008311171561021357600080fd5b90919293919293905050506107bc565b005b61022d61094b565b60405180827bffffffffffffffffffffffffffffffffffffffffffffffffffffffff1916815260200191505060405180910390f35b61026a61096f565b60405180827bffffffffffffffffffffffffffffffffffffffffffffffffffffffff1916815260200191505060405180910390f35b6102a7610993565b60405180827bffffffffffffffffffffffffffffffffffffffffffffffffffffffff1916815260200191505060405180910390f35b6102e46109b7565b60405180827bffffffffffffffffffffffffffffffffffffffffffffffffffffffff1916815260200191505060405180910390f35b6103216109db565b60405180827bffffffffffffffffffffffffffffffffffffffffffffffffffffffff1916815260200191505060405180910390f35b61035e6109ff565b604051808273ffffffffffffffffffffffffffffffffffffffff16815260200191505060405180910390f35b610392610a27565b60405180827bffffffffffffffffffffffffffffffffffffffffffffffffffffffff1916815260200191505060405180910390f35b6104b3600480360360608110156103dd57600080fd5b81019080803573ffffffffffffffffffffffffffffffffffffffff1690602001909291908035906020019064010000000081111561041a57600080fd5b82018360208201111561042c57600080fd5b8035906020019184600183028401116401000000008311171561044e57600080fd5b90919293919293908035906020019064010000000081111561046f57600080fd5b82018360208201111561048157600080fd5b803590602001918460018302840111640100000000831117156104a357600080fd5b9091929391929390505050610a4b565b005b6104bd610c19565b60405180827bffffffffffffffffffffffffffffffffffffffffffffffffffffffff1916815260200191505060405180910390f35b6105b26004803603606081101561050857600080fd5b81019080803573ffffffffffffffffffffffffffffffffffffffff16906020019092919080357bffffffffffffffffffffffffffffffffffffffffffffffffffffffff191690602001909291908035906020019064010000000081111561056e57600080fd5b82018360208201111561058057600080fd5b803590602001918460018302840111640100000000831117156105a257600080fd5b9091929391929390505050610c3d565b604051808660028111156105c257fe5b815260200180602001806020018060200180602001858103855289818151815260200191508051906020019060200280838360005b838110156106125780820151818401526020810190506105f7565b50505050905001858103845288818151815260200191508051906020019060200280838360005b83811015610654578082015181840152602081019050610639565b50505050905001858103835287818151815260200191508051906020019060200280838360005b8381101561069657808201518184015260208101905061067b565b50505050905001858103825286818151815260200191508051906020019060200280838360005b838110156106d85780820151818401526020810190506106bd565b50505050905001995050505050505050505060405180910390f35b6106fb610d9f565b604051808273ffffffffffffffffffffffffffffffffffffffff16815260200191505060405180910390f35b61072f610dc7565b604051808273ffffffffffffffffffffffffffffffffffffffff16815260200191505060405180910390f35b610763610def565b60405180827bffffffffffffffffffffffffffffffffffffffffffffffffffffffff1916815260200191505060405180910390f35b7f8334eb99be0145865eba9889fca2ee920288090caefff4cc776038e20ad9259a81565b7f000000000000000000000000000000000000000000000000000000000000000073ffffffffffffffffffffffffffffffffffffffff163373ffffffffffffffffffffffffffffffffffffffff1614610860576040517f08c379a00000000000000000000000000000000000000000000000000000000081526004018080602001828103825260328152602001806122f06032913960400191505060405180910390fd5b610868612285565b6108706122a7565b6108786122a7565b6108c587878080601f016020809104026020016040519081016040528093929190818152602001838380828437600081840152601f19601f82011690508083019250505050505050610e13565b5092509250925061094188846000600281106108dd57fe5b6020020151856001600281106108ef57fe5b60200201518560006002811061090157fe5b60200201518660016002811061091357fe5b60200201518660006002811061092557fe5b60200201518760016002811061093757fe5b6020020151610e74565b5050505050505050565b7f29fa046e79524c3c5ac4c01df692c35e217802b2b13b21121b76cf0ef02b138c81565b7f099f75155f0e997bf83a7993a71d5e7e7540bd386fe1e84643a09ce6b412521981565b7ffa7dd04da627f433da73c4355ead9c75682a67a8fc84d3f6170ef0922f402d2481565b7fb9dfbaccbe5cd2a84fdcf1d15f23ef25d23086f5afbaa99516065ed4a5bbc7a381565b7f03e38a2bd7063d45c897edeafc330e71657502dd86434d3c37a489caf116af6981565b60007f0000000000000000000000000000000000000000000000000000000000000000905090565b7f68e30677f607df46e87da13e15b637784cfa62374b653f35ab43d10361a2f83081565b7f000000000000000000000000000000000000000000000000000000000000000073ffffffffffffffffffffffffffffffffffffffff163373ffffffffffffffffffffffffffffffffffffffff1614610aef576040517f08c379a00000000000000000000000000000000000000000000000000000000081526004018080602001828103825260328152602001806122f06032913960400191505060405180910390fd5b6000610af9612285565b610b016122a7565b610b4e87878080601f016020809104026020016040519081016040528093929190818152602001838380828437600081840152601f19601f82011690508083019250505050505050611019565b9250925092506060610ba386868080601f016020809104026020016040519081016040528093929190818152602001838380828437600081840152601f19601f82011690508083019250505050505050611065565b50509050610c0e8982600081518110610bb857fe5b60200260200101518686600060028110610bce57fe5b602002015187600160028110610be057fe5b602002015187600060028110610bf257fe5b602002015188600160028110610c0457fe5b6020020151611249565b505050505050505050565b7f0e7f692dad5b88fdee426250d6eae91207e56a2e8112b7364579bed1790e5bf481565b60006060806060807f099f75155f0e997bf83a7993a71d5e7e7540bd386fe1e84643a09ce6b41252197bffffffffffffffffffffffffffffffffffffffffffffffffffffffff1916887bffffffffffffffffffffffffffffffffffffffffffffffffffffffff19161415610cc457610cb587876113af565b94509450945094509450610d94565b7fc29fa9dde84204c2908778afd0613d802d31cf046179b88f6d2b4a4e507ea2d57bffffffffffffffffffffffffffffffffffffffffffffffffffffffff1916887bffffffffffffffffffffffffffffffffffffffffffffffffffffffff19161415610d4357610d3487876117c1565b94509450945094509450610d94565b6040517f08c379a00000000000000000000000000000000000000000000000000000000081526004018080602001828103825260278152602001806123826027913960400191505060405180910390fd5b945094509450945094565b60007f0000000000000000000000000000000000000000000000000000000000000000905090565b60007f0000000000000000000000000000000000000000000000000000000000000000905090565b7fc29fa9dde84204c2908778afd0613d802d31cf046179b88f6d2b4a4e507ea2d581565b610e1b612285565b610e236122a7565b610e2b6122a7565b60008480602001905160e0811015610e4257600080fd5b810190809190826040019190826040019190826040018051906020019092919050505093509350935093509193509193565b610e9f867f000000000000000000000000000000000000000000000000000000000000000086611bd2565b610eca857f000000000000000000000000000000000000000000000000000000000000000085611bd2565b7f000000000000000000000000000000000000000000000000000000000000000073ffffffffffffffffffffffffffffffffffffffff1663e8e337008787878787878e610f15611d26565b6040518963ffffffff1660e01b8152600401808973ffffffffffffffffffffffffffffffffffffffff1681526020018873ffffffffffffffffffffffffffffffffffffffff1681526020018781526020018681526020018581526020018481526020018373ffffffffffffffffffffffffffffffffffffffff16815260200182815260200198505050505050505050606060405180830381600087803b158015610fbe57600080fd5b505af1158015610fd2573d6000803e3d6000fd5b505050506040513d6060811015610fe857600080fd5b8101908080519060200190929190805190602001909291908051906020019092919050505050505050505050505050565b6000611023612285565b61102b6122a7565b8380602001905160a081101561104057600080fd5b8101908080519060200190929190919082604001919050509250925092509193909250565b606080606083806020019051606081101561107f57600080fd5b810190808051604051939291908464010000000082111561109f57600080fd5b838201915060208201858111156110b557600080fd5b82518660208202830111640100000000821117156110d257600080fd5b8083526020830192505050908051906020019060200280838360005b838110156111095780820151818401526020810190506110ee565b505050509050016040526020018051604051939291908464010000000082111561113257600080fd5b8382019150602082018581111561114857600080fd5b825186602082028301116401000000008211171561116557600080fd5b8083526020830192505050908051906020019060200280838360005b8381101561119c578082015181840152602081019050611181565b50505050905001604052602001805160405193929190846401000000008211156111c557600080fd5b838201915060208201858111156111db57600080fd5b82518660208202830111640100000000821117156111f857600080fd5b8083526020830192505050908051906020019060200280838360005b8381101561122f578082015181840152602081019050611214565b505050509050016040525050509250925092509193909250565b611274867f000000000000000000000000000000000000000000000000000000000000000087611bd2565b7f000000000000000000000000000000000000000000000000000000000000000073ffffffffffffffffffffffffffffffffffffffff1663baa2abde85858886868d6112be611d26565b6040518863ffffffff1660e01b8152600401808873ffffffffffffffffffffffffffffffffffffffff1681526020018773ffffffffffffffffffffffffffffffffffffffff1681526020018681526020018581526020018481526020018373ffffffffffffffffffffffffffffffffffffffff1681526020018281526020019750505050505050506040805180830381600087803b15801561135f57600080fd5b505af1158015611373573d6000803e3d6000fd5b505050506040513d604081101561138957600080fd5b810190808051906020019092919080519060200190929190505050505050505050505050565b60006060806060806113bf612285565b6113c76122a7565b60006114168a8a8080601f016020809104026020016040519081016040528093929190818152602001838380828437600081840152601f19601f82011690508083019250505050505050610e13565b93505092509250600267ffffffffffffffff8111801561143557600080fd5b506040519080825280602002602001820160405280156114645781602001602082028036833780820191505090505b5096508260006002811061147457fe5b60200201518760008151811061148657fe5b602002602001019073ffffffffffffffffffffffffffffffffffffffff16908173ffffffffffffffffffffffffffffffffffffffff1681525050826001600281106114cd57fe5b6020020151876001815181106114df57fe5b602002602001019073ffffffffffffffffffffffffffffffffffffffff16908173ffffffffffffffffffffffffffffffffffffffff1681525050600267ffffffffffffffff8111801561153157600080fd5b506040519080825280602002602001820160405280156115605781602001602082028036833780820191505090505b5095508160006002811061157057fe5b60200201518660008151811061158257fe5b6020026020010181815250508160016002811061159b57fe5b6020020151866001815181106115ad57fe5b602002602001018181525050600167ffffffffffffffff811180156115d157600080fd5b506040519080825280602002602001820160405280156116005781602001602082028036833780820191505090505b5094507f000000000000000000000000000000000000000000000000000000000000000073ffffffffffffffffffffffffffffffffffffffff1663e6a439058460006002811061164c57fe5b60200201518560016002811061165e57fe5b60200201516040518363ffffffff1660e01b8152600401808373ffffffffffffffffffffffffffffffffffffffff1681526020018273ffffffffffffffffffffffffffffffffffffffff1681526020019250505060206040518083038186803b1580156116ca57600080fd5b505afa1580156116de573d6000803e3d6000fd5b505050506040513d60208110156116f457600080fd5b81019080805190602001909291905050508560008151811061171257fe5b602002602001019073ffffffffffffffffffffffffffffffffffffffff16908173ffffffffffffffffffffffffffffffffffffffff1681525050600167ffffffffffffffff8111801561176457600080fd5b506040519080825280602002602001820160405280156117935781602001602082028036833780820191505090505b50935080846000815181106117a457fe5b602002602001018181525050600297505050509295509295909350565b600060608060608060006117d3612285565b6117db6122a7565b6118288a8a8080601f016020809104026020016040519081016040528093929190818152602001838380828437600081840152601f19601f82011690508083019250505050505050611019565b925092509250600167ffffffffffffffff8111801561184657600080fd5b506040519080825280602002602001820160405280156118755781602001602082028036833780820191505090505b5096507f000000000000000000000000000000000000000000000000000000000000000073ffffffffffffffffffffffffffffffffffffffff1663e6a43905836000600281106118c157fe5b6020020151846001600281106118d357fe5b60200201516040518363ffffffff1660e01b8152600401808373ffffffffffffffffffffffffffffffffffffffff1681526020018273ffffffffffffffffffffffffffffffffffffffff1681526020019250505060206040518083038186803b15801561193f57600080fd5b505afa158015611953573d6000803e3d6000fd5b505050506040513d602081101561196957600080fd5b81019080805190602001909291905050508760008151811061198757fe5b602002602001019073ffffffffffffffffffffffffffffffffffffffff16908173ffffffffffffffffffffffffffffffffffffffff1681525050600167ffffffffffffffff811180156119d957600080fd5b50604051908082528060200260200182016040528015611a085781602001602082028036833780820191505090505b5095508286600081518110611a1957fe5b602002602001018181525050600267ffffffffffffffff81118015611a3d57600080fd5b50604051908082528060200260200182016040528015611a6c5781602001602082028036833780820191505090505b50945081600060028110611a7c57fe5b602002015185600081518110611a8e57fe5b602002602001019073ffffffffffffffffffffffffffffffffffffffff16908173ffffffffffffffffffffffffffffffffffffffff168152505081600160028110611ad557fe5b602002015185600181518110611ae757fe5b602002602001019073ffffffffffffffffffffffffffffffffffffffff16908173ffffffffffffffffffffffffffffffffffffffff1681525050600267ffffffffffffffff81118015611b3957600080fd5b50604051908082528060200260200182016040528015611b685781602001602082028036833780820191505090505b50935080600060028110611b7857fe5b602002015184600081518110611b8a57fe5b60200260200101818152505080600160028110611ba357fe5b602002015184600181518110611bb557fe5b602002602001018181525050600297505050509295509295909350565b60008373ffffffffffffffffffffffffffffffffffffffff1663dd62ed3e30856040518363ffffffff1660e01b8152600401808373ffffffffffffffffffffffffffffffffffffffff1681526020018273ffffffffffffffffffffffffffffffffffffffff1681526020019250505060206040518083038186803b158015611c5957600080fd5b505afa158015611c6d573d6000803e3d6000fd5b505050506040513d6020811015611c8357600080fd5b8101908080519060200190929190505050905081811015611d20576000811115611cd457611cd38360008673ffffffffffffffffffffffffffffffffffffffff16611d319092919063ffffffff16565b5b611d1f837fffffffffffffffffffffffffffffffffffffffffffffffffffffffffffffffff8673ffffffffffffffffffffffffffffffffffffffff16611d319092919063ffffffff16565b5b50505050565b600060014201905090565b6000811480611dff575060008373ffffffffffffffffffffffffffffffffffffffff1663dd62ed3e30856040518363ffffffff1660e01b8152600401808373ffffffffffffffffffffffffffffffffffffffff1681526020018273ffffffffffffffffffffffffffffffffffffffff1681526020019250505060206040518083038186803b158015611dc257600080fd5b505afa158015611dd6573d6000803e3d6000fd5b505050506040513d6020811015611dec57600080fd5b8101908080519060200190929190505050145b611e54576040517f08c379a000000000000000000000000000000000000000000000000000000000815260040180806020018281038252603681526020018061234c6036913960400191505060405180910390fd5b611ef18363095ea7b360e01b8484604051602401808373ffffffffffffffffffffffffffffffffffffffff16815260200182815260200192505050604051602081830303815290604052907bffffffffffffffffffffffffffffffffffffffffffffffffffffffff19166020820180517bffffffffffffffffffffffffffffffffffffffffffffffffffffffff8381831617835250505050611ef6565b505050565b6060611f58826040518060400160405280602081526020017f5361666545524332303a206c6f772d6c6576656c2063616c6c206661696c65648152508573ffffffffffffffffffffffffffffffffffffffff16611fe59092919063ffffffff16565b9050600081511115611fe057808060200190516020811015611f7957600080fd5b8101908080519060200190929190505050611fdf576040517f08c379a000000000000000000000000000000000000000000000000000000000815260040180806020018281038252602a815260200180612322602a913960400191505060405180910390fd5b5b505050565b6060611ff48484600085611ffd565b90509392505050565b606082471015612058576040517f08c379a00000000000000000000000000000000000000000000000000000000081526004018080602001828103825260268152602001806122ca6026913960400191505060405180910390fd5b612061856121a6565b6120d3576040517f08c379a000000000000000000000000000000000000000000000000000000000815260040180806020018281038252601d8152602001807f416464726573733a2063616c6c20746f206e6f6e2d636f6e747261637400000081525060200191505060405180910390fd5b600060608673ffffffffffffffffffffffffffffffffffffffff1685876040518082805190602001908083835b602083106121235780518252602082019150602081019050602083039250612100565b6001836020036101000a03801982511681845116808217855250505050505090500191505060006040518083038185875af1925050503d8060008114612185576040519150601f19603f3d011682016040523d82523d6000602084013e61218a565b606091505b509150915061219a8282866121b9565b92505050949350505050565b600080823b905060008111915050919050565b606083156121c95782905061227e565b6000835111156121dc5782518084602001fd5b816040517f08c379a00000000000000000000000000000000000000000000000000000000081526004018080602001828103825283818151815260200191508051906020019080838360005b83811015612243578082015181840152602081019050612228565b50505050905090810190601f1680156122705780820380516001836020036101000a031916815260200191505b509250505060405180910390fd5b9392505050565b6040518060400160405280600290602082028036833780820191505090505090565b604051806040016040528060029060208202803683378082019150509050509056fe416464726573733a20696e73756666696369656e742062616c616e636520666f722063616c6c4f6e6c792074686520496e746567726174696f6e4d616e616765722063616e2063616c6c20746869732066756e6374696f6e5361666545524332303a204552433230206f7065726174696f6e20646964206e6f7420737563636565645361666545524332303a20617070726f76652066726f6d206e6f6e2d7a65726f20746f206e6f6e2d7a65726f20616c6c6f77616e63657061727365417373657473466f72416374696f6e3a205f73656c6563746f7220696e76616c6964a164736f6c634300060c000a","linkReferences":{}},"methodIdentifiers":{"CLAIM_REWARDS_SELECTOR()":"40da225d","LEND_AND_STAKE_SELECTOR()":"131461c0","LEND_SELECTOR()":"257cb1a3","REDEEM_SELECTOR()":"f7d882b5","STAKE_SELECTOR()":"3ffc1591","TAKE_MULTIPLE_ORDERS_SELECTOR()":"c32990a2","TAKE_ORDER_SELECTOR()":"863e5ad0","UNSTAKE_AND_REDEEM_SELECTOR()":"080456c1","UNSTAKE_SELECTOR()":"b23228cf","getFactory()":"88cc58e4","getIntegrationManager()":"e7c45690","getUniswapV2Router2()":"d1ded408","lend(address,bytes,bytes)":"099f7515","parseAssetsForAction(address,bytes4,bytes)":"c54efee5","redeem(address,bytes,bytes)":"c29fa9dd"},"id":220}