{"abi":[{"type":"constructor","inputs":[{"name":"_integrationManager","type":"address","internalType":"address"},{"name":"_addressListRegistry","type":"address","internalType":"address"},{"name":"_aTokenListId","type":"uint256","internalType":"uint256"},{"name":"_pool","type":"address","internalType":"address"},{"name":"_referralCode","type":"uint16","internalType":"uint16"}],"stateMutability":"nonpayable"},{"type":"function","name":"CLAIM_REWARDS_SELECTOR","inputs":[],"outputs":[{"name":"","type":"bytes4","internalType":"bytes4"}],"stateMutability":"view"},{"type":"function","name":"LEND_AND_STAKE_SELECTOR","inputs":[],"outputs":[{"name":"","type":"bytes4","internalType":"bytes4"}],"stateMutability":"view"},{"type":"function","name":"LEND_SELECTOR","inputs":[],"outputs":[{"name":"","type":"bytes4","internalType":"bytes4"}],"stateMutability":"view"},{"type":"function","name":"REDEEM_SELECTOR","inputs":[],"outputs":[{"name":"","type":"bytes4","internalType":"bytes4"}],"stateMutability":"view"},{"type":"function","name":"STAKE_SELECTOR","inputs":[],"outputs":[{"name":"","type":"bytes4","internalType":"bytes4"}],"stateMutability":"view"},{"type":"function","name":"TAKE_MULTIPLE_ORDERS_SELECTOR","inputs":[],"outputs":[{"name":"","type":"bytes4","internalType":"bytes4"}],"stateMutability":"view"},{"type":"function","name":"TAKE_ORDER_SELECTOR","inputs":[],"outputs":[{"name":"","type":"bytes4","internalType":"bytes4"}],"stateMutability":"view"},{"type":"function","name":"UNSTAKE_AND_REDEEM_SELECTOR","inputs":[],"outputs":[{"name":"","type":"bytes4","internalType":"bytes4"}],"stateMutability":"view"},{"type":"function","name":"UNSTAKE_SELECTOR","inputs":[],"outputs":[{"name":"","type":"bytes4","internalType":"bytes4"}],"stateMutability":"view"},{"type":"function","name":"getIntegrationManager","inputs":[],"outputs":[{"name":"integrationManager_","type":"address","internalType":"address"}],"stateMutability":"view"},{"type":"function","name":"lend","inputs":[{"name":"_vaultProxy","type":"address","internalType":"address"},{"name":"","type":"bytes","internalType":"bytes"},{"name":"_assetData","type":"bytes","internalType":"bytes"}],"outputs":[],"stateMutability":"nonpayable"},{"type":"function","name":"parseAssetsForAction","inputs":[{"name":"","type":"address","internalType":"address"},{"name":"_selector","type":"bytes4","internalType":"bytes4"},{"name":"_actionData","type":"bytes","internalType":"bytes"}],"outputs":[{"name":"spendAssetsHandleType_","type":"uint8","internalType":"enum IIntegrationManager.SpendAssetsHandleType"},{"name":"spendAssets_","type":"address[]","internalType":"address[]"},{"name":"spendAssetAmounts_","type":"uint256[]","internalType":"uint256[]"},{"name":"incomingAssets_","type":"address[]","internalType":"address[]"},{"name":"minIncomingAssetAmounts_","type":"uint256[]","internalType":"uint256[]"}],"stateMutability":"view"},{"type":"function","name":"redeem","inputs":[{"name":"_vaultProxy","type":"address","internalType":"address"},{"name":"","type":"bytes","internalType":"bytes"},{"name":"_assetData","type":"bytes","internalType":"bytes"}],"outputs":[],"stateMutability":"nonpayable"}],"bytecode":{"object":"0x61014060405234801561001157600080fd5b5060405161236b38038061236b833981810160405260a081101561003457600080fd5b81019080805190602001909291908051906020019092919080519060200190929190805190602001909291908051906020019092919050505081818686868181848073ffffffffffffffffffffffffffffffffffffffff1660808173ffffffffffffffffffffffffffffffffffffffff1660601b81525050508173ffffffffffffffffffffffffffffffffffffffff1660a08173ffffffffffffffffffffffffffffffffffffffff1660601b815250508060c0818152505060008273ffffffffffffffffffffffffffffffffffffffff166319bcc938836040518263ffffffff1660e01b81526004018082815260200191505060206040518083038186803b15801561013f57600080fd5b505afa158015610153573d6000803e3d6000fd5b505050506040513d602081101561016957600080fd5b810190808051906020019092919050505090508073ffffffffffffffffffffffffffffffffffffffff1660e08173ffffffffffffffffffffffffffffffffffffffff1660601b815250505050505050508173ffffffffffffffffffffffffffffffffffffffff166101008173ffffffffffffffffffffffffffffffffffffffff1660601b815250508061ffff166101208161ffff1660f01b815250505050505050505060805160601c60a05160601c60c05160e05160601c6101005160601c6101205160f01c6120f36102786000398061171d5250806116b752806116de52806117d6525080610fec525080610ea6525080610e6a525080610730528061095e5280610c3c52506120f36000f3fe608060405234801561001057600080fd5b50600436106100cf5760003560e01c8063863e5ad01161008c578063c32990a211610066578063c32990a21461045b578063c54efee514610498578063e7c4569014610699578063f7d882b5146106cd576100cf565b8063863e5ad0146102f3578063b23228cf14610330578063c29fa9dd1461036d576100cf565b8063080456c1146100d4578063099f751514610111578063131461c0146101ff578063257cb1a31461023c5780633ffc15911461027957806340da225d146102b6575b600080fd5b6100dc61070a565b60405180827bffffffffffffffffffffffffffffffffffffffffffffffffffffffff1916815260200191505060405180910390f35b6101fd6004803603606081101561012757600080fd5b81019080803573ffffffffffffffffffffffffffffffffffffffff1690602001909291908035906020019064010000000081111561016457600080fd5b82018360208201111561017657600080fd5b8035906020019184600183028401116401000000008311171561019857600080fd5b9091929391929390803590602001906401000000008111156101b957600080fd5b8201836020820111156101cb57600080fd5b803590602001918460018302840111640100000000831117156101ed57600080fd5b909192939192939050505061072e565b005b610207610884565b60405180827bffffffffffffffffffffffffffffffffffffffffffffffffffffffff1916815260200191505060405180910390f35b6102446108a8565b60405180827bffffffffffffffffffffffffffffffffffffffffffffffffffffffff1916815260200191505060405180910390f35b6102816108cc565b60405180827bffffffffffffffffffffffffffffffffffffffffffffffffffffffff1916815260200191505060405180910390f35b6102be6108f0565b60405180827bffffffffffffffffffffffffffffffffffffffffffffffffffffffff1916815260200191505060405180910390f35b6102fb610914565b60405180827bffffffffffffffffffffffffffffffffffffffffffffffffffffffff1916815260200191505060405180910390f35b610338610938565b60405180827bffffffffffffffffffffffffffffffffffffffffffffffffffffffff1916815260200191505060405180910390f35b6104596004803603606081101561038357600080fd5b81019080803573ffffffffffffffffffffffffffffffffffffffff169060200190929190803590602001906401000000008111156103c057600080fd5b8201836020820111156103d257600080fd5b803590602001918460018302840111640100000000831117156103f457600080fd5b90919293919293908035906020019064010000000081111561041557600080fd5b82018360208201111561042757600080fd5b8035906020019184600183028401116401000000008311171561044957600080fd5b909192939192939050505061095c565b005b610463610ab2565b60405180827bffffffffffffffffffffffffffffffffffffffffffffffffffffffff1916815260200191505060405180910390f35b610558600480360360608110156104ae57600080fd5b81019080803573ffffffffffffffffffffffffffffffffffffffff16906020019092919080357bffffffffffffffffffffffffffffffffffffffffffffffffffffffff191690602001909291908035906020019064010000000081111561051457600080fd5b82018360208201111561052657600080fd5b8035906020019184600183028401116401000000008311171561054857600080fd5b9091929391929390505050610ad6565b6040518086600281111561056857fe5b815260200180602001806020018060200180602001858103855289818151815260200191508051906020019060200280838360005b838110156105b857808201518184015260208101905061059d565b50505050905001858103845288818151815260200191508051906020019060200280838360005b838110156105fa5780820151818401526020810190506105df565b50505050905001858103835287818151815260200191508051906020019060200280838360005b8381101561063c578082015181840152602081019050610621565b50505050905001858103825286818151815260200191508051906020019060200280838360005b8381101561067e578082015181840152602081019050610663565b50505050905001995050505050505050505060405180910390f35b6106a1610c38565b604051808273ffffffffffffffffffffffffffffffffffffffff16815260200191505060405180910390f35b6106d5610c60565b60405180827bffffffffffffffffffffffffffffffffffffffffffffffffffffffff1916815260200191505060405180910390f35b7f8334eb99be0145865eba9889fca2ee920288090caefff4cc776038e20ad9259a81565b7f000000000000000000000000000000000000000000000000000000000000000073ffffffffffffffffffffffffffffffffffffffff163373ffffffffffffffffffffffffffffffffffffffff16146107d2576040517f08c379a000000000000000000000000000000000000000000000000000000000815260040180806020018281038252603281526020018061202e6032913960400191505060405180910390fd5b606080606061082485858080601f016020809104026020016040519081016040528093929190818152602001838380828437600081840152601f19601f82011690508083019250505050505050610c84565b9250925092506108478160008151811061083a57fe5b6020026020010151610e68565b61087a888460008151811061085857fe5b60200260200101518460008151811061086d57fe5b60200260200101516110bb565b5050505050505050565b7f29fa046e79524c3c5ac4c01df692c35e217802b2b13b21121b76cf0ef02b138c81565b7f099f75155f0e997bf83a7993a71d5e7e7540bd386fe1e84643a09ce6b412521981565b7ffa7dd04da627f433da73c4355ead9c75682a67a8fc84d3f6170ef0922f402d2481565b7fb9dfbaccbe5cd2a84fdcf1d15f23ef25d23086f5afbaa99516065ed4a5bbc7a381565b7f03e38a2bd7063d45c897edeafc330e71657502dd86434d3c37a489caf116af6981565b7f68e30677f607df46e87da13e15b637784cfa62374b653f35ab43d10361a2f83081565b7f000000000000000000000000000000000000000000000000000000000000000073ffffffffffffffffffffffffffffffffffffffff163373ffffffffffffffffffffffffffffffffffffffff1614610a00576040517f08c379a000000000000000000000000000000000000000000000000000000000815260040180806020018281038252603281526020018061202e6032913960400191505060405180910390fd5b6060806060610a5285858080601f016020809104026020016040519081016040528093929190818152602001838380828437600081840152601f19601f82011690508083019250505050505050610c84565b925092509250610a7583600081518110610a6857fe5b6020026020010151610e68565b610aa88882600081518110610a8657fe5b602002602001015184600081518110610a9b57fe5b60200260200101516110cb565b5050505050505050565b7f0e7f692dad5b88fdee426250d6eae91207e56a2e8112b7364579bed1790e5bf481565b60006060806060807f099f75155f0e997bf83a7993a71d5e7e7540bd386fe1e84643a09ce6b41252197bffffffffffffffffffffffffffffffffffffffffffffffffffffffff1916887bffffffffffffffffffffffffffffffffffffffffffffffffffffffff19161415610b5d57610b4e87876110db565b94509450945094509450610c2d565b7fc29fa9dde84204c2908778afd0613d802d31cf046179b88f6d2b4a4e507ea2d57bffffffffffffffffffffffffffffffffffffffffffffffffffffffff1916887bffffffffffffffffffffffffffffffffffffffffffffffffffffffff19161415610bdc57610bcd87876113c6565b94509450945094509450610c2d565b6040517f08c379a00000000000000000000000000000000000000000000000000000000081526004018080602001828103825260278152602001806120c06027913960400191505060405180910390fd5b945094509450945094565b60007f0000000000000000000000000000000000000000000000000000000000000000905090565b7fc29fa9dde84204c2908778afd0613d802d31cf046179b88f6d2b4a4e507ea2d581565b6060806060838060200190516060811015610c9e57600080fd5b8101908080516040519392919084640100000000821115610cbe57600080fd5b83820191506020820185811115610cd457600080fd5b8251866020820283011164010000000082111715610cf157600080fd5b8083526020830192505050908051906020019060200280838360005b83811015610d28578082015181840152602081019050610d0d565b5050505090500160405260200180516040519392919084640100000000821115610d5157600080fd5b83820191506020820185811115610d6757600080fd5b8251866020820283011164010000000082111715610d8457600080fd5b8083526020830192505050908051906020019060200280838360005b83811015610dbb578082015181840152602081019050610da0565b5050505090500160405260200180516040519392919084640100000000821115610de457600080fd5b83820191506020820185811115610dfa57600080fd5b8251866020820283011164010000000082111715610e1757600080fd5b8083526020830192505050908051906020019060200280838360005b83811015610e4e578082015181840152602081019050610e33565b505050509050016040525050509250925092509193909250565b7f000000000000000000000000000000000000000000000000000000000000000073ffffffffffffffffffffffffffffffffffffffff16631c5632047f0000000000000000000000000000000000000000000000000000000000000000836040518363ffffffff1660e01b8152600401808381526020018273ffffffffffffffffffffffffffffffffffffffff1681526020019250505060206040518083038186803b158015610f1757600080fd5b505afa158015610f2b573d6000803e3d6000fd5b505050506040513d6020811015610f4157600080fd5b81019080805190602001909291905050506110b8576060600167ffffffffffffffff81118015610f7057600080fd5b50604051908082528060200260200182016040528015610f9f5781602001602082028036833780820191505090505b5090508181600081518110610fb057fe5b602002602001019073ffffffffffffffffffffffffffffffffffffffff16908173ffffffffffffffffffffffffffffffffffffffff16815250507f000000000000000000000000000000000000000000000000000000000000000073ffffffffffffffffffffffffffffffffffffffff1663a8f0bc41826040518263ffffffff1660e01b81526004018080602001828103825283818151815260200191508051906020019060200280838360005b8381101561107957808201518184015260208101905061105e565b5050505090500192505050600060405180830381600087803b15801561109e57600080fd5b505af11580156110b2573d6000803e3d6000fd5b50505050505b50565b6110c68383836116b1565b505050565b6110d68383836117d4565b505050565b600060608060608060008061113389898080601f016020809104026020016040519081016040528093929190818152602001838380828437600081840152601f19601f820116905080830192505050505050506118a0565b91509150600167ffffffffffffffff8111801561114f57600080fd5b5060405190808252806020026020018201604052801561117e5781602001602082028036833780820191505090505b5095508173ffffffffffffffffffffffffffffffffffffffff1663b16a19de6040518163ffffffff1660e01b815260040160206040518083038186803b1580156111c757600080fd5b505afa1580156111db573d6000803e3d6000fd5b505050506040513d60208110156111f157600080fd5b81019080805190602001909291905050508660008151811061120f57fe5b602002602001019073ffffffffffffffffffffffffffffffffffffffff16908173ffffffffffffffffffffffffffffffffffffffff1681525050600167ffffffffffffffff8111801561126157600080fd5b506040519080825280602002602001820160405280156112905781602001602082028036833780820191505090505b50945080856000815181106112a157fe5b602002602001018181525050600167ffffffffffffffff811180156112c557600080fd5b506040519080825280602002602001820160405280156112f45781602001602082028036833780820191505090505b509350818460008151811061130557fe5b602002602001019073ffffffffffffffffffffffffffffffffffffffff16908173ffffffffffffffffffffffffffffffffffffffff1681525050600167ffffffffffffffff8111801561135757600080fd5b506040519080825280602002602001820160405280156113865781602001602082028036833780820191505090505b50925061139d6002826118dc90919063ffffffff16565b836000815181106113aa57fe5b6020026020010181815250506002965050509295509295909350565b600060608060608060008061141e89898080601f016020809104026020016040519081016040528093929190818152602001838380828437600081840152601f19601f820116905080830192505050505050506118a0565b91509150600167ffffffffffffffff8111801561143a57600080fd5b506040519080825280602002602001820160405280156114695781602001602082028036833780820191505090505b509550818660008151811061147a57fe5b602002602001019073ffffffffffffffffffffffffffffffffffffffff16908173ffffffffffffffffffffffffffffffffffffffff1681525050600167ffffffffffffffff811180156114cc57600080fd5b506040519080825280602002602001820160405280156114fb5781602001602082028036833780820191505090505b509450808560008151811061150c57fe5b602002602001018181525050600167ffffffffffffffff8111801561153057600080fd5b5060405190808252806020026020018201604052801561155f5781602001602082028036833780820191505090505b5093508173ffffffffffffffffffffffffffffffffffffffff1663b16a19de6040518163ffffffff1660e01b815260040160206040518083038186803b1580156115a857600080fd5b505afa1580156115bc573d6000803e3d6000fd5b505050506040513d60208110156115d257600080fd5b8101908080519060200190929190505050846000815181106115f057fe5b602002602001019073ffffffffffffffffffffffffffffffffffffffff16908173ffffffffffffffffffffffffffffffffffffffff1681525050600167ffffffffffffffff8111801561164257600080fd5b506040519080825280602002602001820160405280156116715781602001602082028036833780820191505090505b5092506116886002826118dc90919063ffffffff16565b8360008151811061169557fe5b6020026020010181815250506002965050509295509295909350565b6116dc827f00000000000000000000000000000000000000000000000000000000000000008361195f565b7f000000000000000000000000000000000000000000000000000000000000000073ffffffffffffffffffffffffffffffffffffffff1663617ba0378383867f00000000000000000000000000000000000000000000000000000000000000006040518563ffffffff1660e01b8152600401808573ffffffffffffffffffffffffffffffffffffffff1681526020018481526020018373ffffffffffffffffffffffffffffffffffffffff1681526020018261ffff168152602001945050505050600060405180830381600087803b1580156117b757600080fd5b505af11580156117cb573d6000803e3d6000fd5b50505050505050565b7f000000000000000000000000000000000000000000000000000000000000000073ffffffffffffffffffffffffffffffffffffffff166369328dec8383866040518463ffffffff1660e01b8152600401808473ffffffffffffffffffffffffffffffffffffffff1681526020018381526020018273ffffffffffffffffffffffffffffffffffffffff1681526020019350505050600060405180830381600087803b15801561188357600080fd5b505af1158015611897573d6000803e3d6000fd5b50505050505050565b6000808280602001905160408110156118b857600080fd5b81019080805190602001909291908051906020019092919050505091509150915091565b600082821115611954576040517f08c379a000000000000000000000000000000000000000000000000000000000815260040180806020018281038252601e8152602001807f536166654d6174683a207375627472616374696f6e206f766572666c6f77000081525060200191505060405180910390fd5b818303905092915050565b60008373ffffffffffffffffffffffffffffffffffffffff1663dd62ed3e30856040518363ffffffff1660e01b8152600401808373ffffffffffffffffffffffffffffffffffffffff1681526020018273ffffffffffffffffffffffffffffffffffffffff1681526020019250505060206040518083038186803b1580156119e657600080fd5b505afa1580156119fa573d6000803e3d6000fd5b505050506040513d6020811015611a1057600080fd5b8101908080519060200190929190505050905081811015611aad576000811115611a6157611a608360008673ffffffffffffffffffffffffffffffffffffffff16611ab39092919063ffffffff16565b5b611aac837fffffffffffffffffffffffffffffffffffffffffffffffffffffffffffffffff8673ffffffffffffffffffffffffffffffffffffffff16611ab39092919063ffffffff16565b5b50505050565b6000811480611b81575060008373ffffffffffffffffffffffffffffffffffffffff1663dd62ed3e30856040518363ffffffff1660e01b8152600401808373ffffffffffffffffffffffffffffffffffffffff1681526020018273ffffffffffffffffffffffffffffffffffffffff1681526020019250505060206040518083038186803b158015611b4457600080fd5b505afa158015611b58573d6000803e3d6000fd5b505050506040513d6020811015611b6e57600080fd5b8101908080519060200190929190505050145b611bd6576040517f08c379a000000000000000000000000000000000000000000000000000000000815260040180806020018281038252603681526020018061208a6036913960400191505060405180910390fd5b611c738363095ea7b360e01b8484604051602401808373ffffffffffffffffffffffffffffffffffffffff16815260200182815260200192505050604051602081830303815290604052907bffffffffffffffffffffffffffffffffffffffffffffffffffffffff19166020820180517bffffffffffffffffffffffffffffffffffffffffffffffffffffffff8381831617835250505050611c78565b505050565b6060611cda826040518060400160405280602081526020017f5361666545524332303a206c6f772d6c6576656c2063616c6c206661696c65648152508573ffffffffffffffffffffffffffffffffffffffff16611d679092919063ffffffff16565b9050600081511115611d6257808060200190516020811015611cfb57600080fd5b8101908080519060200190929190505050611d61576040517f08c379a000000000000000000000000000000000000000000000000000000000815260040180806020018281038252602a815260200180612060602a913960400191505060405180910390fd5b5b505050565b6060611d768484600085611d7f565b90509392505050565b606082471015611dda576040517f08c379a00000000000000000000000000000000000000000000000000000000081526004018080602001828103825260268152602001806120086026913960400191505060405180910390fd5b611de385611f28565b611e55576040517f08c379a000000000000000000000000000000000000000000000000000000000815260040180806020018281038252601d8152602001807f416464726573733a2063616c6c20746f206e6f6e2d636f6e747261637400000081525060200191505060405180910390fd5b600060608673ffffffffffffffffffffffffffffffffffffffff1685876040518082805190602001908083835b60208310611ea55780518252602082019150602081019050602083039250611e82565b6001836020036101000a03801982511681845116808217855250505050505090500191505060006040518083038185875af1925050503d8060008114611f07576040519150601f19603f3d011682016040523d82523d6000602084013e611f0c565b606091505b5091509150611f1c828286611f3b565b92505050949350505050565b600080823b905060008111915050919050565b60608315611f4b57829050612000565b600083511115611f5e5782518084602001fd5b816040517f08c379a00000000000000000000000000000000000000000000000000000000081526004018080602001828103825283818151815260200191508051906020019080838360005b83811015611fc5578082015181840152602081019050611faa565b50505050905090810190601f168015611ff25780820380516001836020036101000a031916815260200191505b509250505060405180910390fd5b939250505056fe416464726573733a20696e73756666696369656e742062616c616e636520666f722063616c6c4f6e6c792074686520496e746567726174696f6e4d616e616765722063616e2063616c6c20746869732066756e6374696f6e5361666545524332303a204552433230206f7065726174696f6e20646964206e6f7420737563636565645361666545524332303a20617070726f76652066726f6d206e6f6e2d7a65726f20746f206e6f6e2d7a65726f20616c6c6f77616e63657061727365417373657473466f72416374696f6e3a205f73656c6563746f7220696e76616c6964a164736f6c634300060c000a","linkReferences":{}},"methodIdentifiers":{"CLAIM_REWARDS_SELECTOR()":"40da225d","LEND_AND_STAKE_SELECTOR()":"131461c0","LEND_SELECTOR()":"257cb1a3","REDEEM_SELECTOR()":"f7d882b5","STAKE_SELECTOR()":"3ffc1591","TAKE_MULTIPLE_ORDERS_SELECTOR()":"c32990a2","TAKE_ORDER_SELECTOR()":"863e5ad0","UNSTAKE_AND_REDEEM_SELECTOR()":"080456c1","UNSTAKE_SELECTOR()":"b23228cf","getIntegrationManager()":"e7c45690","lend(address,bytes,bytes)":"099f7515","parseAssetsForAction(address,bytes4,bytes)":"c54efee5","redeem(address,bytes,bytes)":"c29fa9dd"},"id":207}