{"abi":[{"type":"constructor","inputs":[{"name":"_dispatcher","type":"address","internalType":"address"},{"name":"_implementation","type":"address","internalType":"address"}],"stateMutability":"nonpayable"},{"type":"function","name":"deploy","inputs":[{"name":"_vaultProxy","type":"address","internalType":"address"},{"name":"_managers","type":"address[]","internalType":"address[]"},{"name":"_redemptionAsset","type":"address","internalType":"address"},{"name":"_useDepositApprovals","type":"bool","internalType":"bool"},{"name":"_useRedemptionApprovals","type":"bool","internalType":"bool"},{"name":"_useTransferApprovals","type":"bool","internalType":"bool"},{"name":"_depositMode","type":"uint8","internalType":"enum IGatedRedemptionQueueSharesWrapper.DepositMode"},{"name":"_windowConfig","type":"tuple","internalType":"struct IGatedRedemptionQueueSharesWrapper.RedemptionWindowConfig","components":[{"name":"firstWindowStart","type":"uint64","internalType":"uint64"},{"name":"frequency","type":"uint32","internalType":"uint32"},{"name":"duration","type":"uint32","internalType":"uint32"},{"name":"relativeSharesCap","type":"uint64","internalType":"uint64"}]}],"outputs":[{"name":"wrapperProxy_","type":"address","internalType":"address"}],"stateMutability":"nonpayable"},{"type":"function","name":"implementation","inputs":[],"outputs":[{"name":"","type":"address","internalType":"address"}],"stateMutability":"view"},{"type":"function","name":"setImplementation","inputs":[{"name":"_nextImplementation","type":"address","internalType":"address"}],"outputs":[],"stateMutability":"nonpayable"},{"type":"event","name":"ImplementationSet","inputs":[{"name":"implementation","type":"address","indexed":false,"internalType":"address"}],"anonymous":false},{"type":"event","name":"ProxyDeployed","inputs":[{"name":"caller","type":"address","indexed":true,"internalType":"address"},{"name":"proxy","type":"address","indexed":false,"internalType":"address"}],"anonymous":false}],"bytecode":{"object":"0x60a060405234801561001057600080fd5b506040516112ac3803806112ac83398101604081905261002f91610077565b60609190911b6001600160601b031916608052600080546001600160a01b0319166001600160a01b039092169190911790556100d9565b8051610071816100c2565b92915050565b6000806040838503121561008a57600080fd5b60006100968585610066565b92505060206100a785828601610066565b9150509250929050565b60006001600160a01b038216610071565b6100cb816100b1565b81146100d657600080fd5b50565b60805160601c6111b26100fa6000398060ae52806101e952506111b26000f3fe60806040523480156200001157600080fd5b5060043610620000465760003560e01c80635c60da1b146200004b578063d784d426146200006d578063eb5d5aa91462000086575b600080fd5b620000556200009d565b60405162000064919062000771565b60405180910390f35b620000846200007e3660046200045d565b620000ac565b005b6200005562000097366004620004a7565b620001d5565b6000546001600160a01b031681565b7f00000000000000000000000000000000000000000000000000000000000000006001600160a01b031663893d20e86040518163ffffffff1660e01b815260040160206040518083038186803b1580156200010657600080fd5b505afa1580156200011b573d6000803e3d6000fd5b505050506040513d601f19601f8201168201806040525081019062000141919062000486565b6001600160a01b0316336001600160a01b0316146200017d5760405162461bcd60e51b8152600401620001749062000835565b60405180910390fd5b600080546001600160a01b0319166001600160a01b0383161790556040517fab64f92ab780ecbf4f3866f57cee465ff36c89450dcce20237ca7a8d81fb7d1390620001ca90839062000771565b60405180910390a150565b6040516307af8e9f60e31b815260009081907f00000000000000000000000000000000000000000000000000000000000000006001600160a01b031690633d7c74f89062000228908e9060040162000771565b60206040518083038186803b1580156200024157600080fd5b505afa15801562000256573d6000803e3d6000fd5b505050506040513d601f19601f820116820180604052508101906200027c919062000486565b6001600160a01b03161415620002a65760405162461bcd60e51b8152600401620001749062000847565b606063f56f2a9060e01b8b8b8b8b8b8b8b8b8b604051602401620002d39998979695949392919062000781565b604051602081830303815290604052906001600160e01b0319166020820180516001600160e01b03838183161783525050505090503081604051620003189062000396565b6200032592919062000811565b604051809103906000f08015801562000342573d6000803e3d6000fd5b509150336001600160a01b03167f3d2489efb661e8b1c3679865db649ca1de61d76a71184a1234de2e55786a6aad8360405162000380919062000771565b60405180910390a2509998505050505050505050565b61081d806200098983390190565b8035620003b18162000942565b92915050565b8051620003b18162000942565b60008083601f840112620003d757600080fd5b50813567ffffffffffffffff811115620003f057600080fd5b6020830191508360208202830111156200040957600080fd5b9250929050565b8035620003b18162000959565b8035620003b18162000964565b6000608082840312156200043d57600080fd5b50919050565b8035620003b18162000972565b8035620003b1816200097d565b6000602082840312156200047057600080fd5b60006200047e8484620003a4565b949350505050565b6000602082840312156200049957600080fd5b60006200047e8484620003b7565b60008060008060008060008060006101608a8c031215620004c757600080fd5b6000620004d58c8c620003a4565b99505060208a013567ffffffffffffffff811115620004f357600080fd5b620005018c828d01620003c4565b98509850506040620005168c828d01620003a4565b9650506060620005298c828d0162000410565b95505060806200053c8c828d0162000410565b94505060a06200054f8c828d0162000410565b93505060c0620005628c828d016200041d565b92505060e0620005758c828d016200042a565b9150509295985092959850929598565b60006200059383836200059b565b505060200190565b620005a681620008a9565b82525050565b6000620005ba838562000866565b9350620005c78262000859565b8060005b858110156200060557620005e082846200086f565b620005ec888262000585565b9750620005f98362000860565b925050600101620005cb565b509495945050505050565b620005a681620008b6565b600062000628826200085c565b62000634818562000866565b935062000646818560208601620008fb565b62000651816200092a565b9093019392505050565b620005a681620008ee565b600062000675601f8362000866565b7f736574496d706c656d656e746174696f6e3a20556e617574686f72697a656400815260200192915050565b6000620006b0601a8362000866565b7f5f7661756c7450726f78793a20496e76616c6964207661756c74000000000000815260200192915050565b60808201620006ec828062000898565b620006f8848262000766565b5062000708602083018362000887565b6200071760208501826200075b565b5062000727604083018362000887565b6200073660408501826200075b565b5062000746606083018362000898565b62000755606085018262000766565b50505050565b620005a681620008d8565b620005a681620008e1565b60208101620003b182846200059b565b610160810162000792828c6200059b565b8181036020830152620007a7818a8c620005ac565b9050620007b860408301896200059b565b620007c7606083018862000610565b620007d6608083018762000610565b620007e560a083018662000610565b620007f460c08301856200065b565b6200080360e0830184620006dc565b9a9950505050505050505050565b604081016200082182856200059b565b81810360208301526200047e81846200061b565b60208082528101620003b18162000666565b60208082528101620003b181620006a1565b90565b5190565b60200190565b90815260200190565b6000620008806020840184620003a4565b9392505050565b600062000880602084018462000443565b600062000880602084018462000450565b6000620003b182620008cc565b151590565b80620008c78162000934565b919050565b6001600160a01b031690565b63ffffffff1690565b67ffffffffffffffff1690565b6000620003b182620008bb565b60005b8381101562000918578181015183820152602001620008fe565b83811115620007555750506000910152565b601f01601f191690565b600281106200093f57fe5b50565b6200094d81620008a9565b81146200093f57600080fd5b6200094d81620008b6565b600281106200093f57600080fd5b6200094d81620008d8565b6200094d81620008e156fe608060405260405161081d38038061081d8339818101604052604081101561002657600080fd5b81516020830180516040519294929383019291908464010000000082111561004d57600080fd5b90830190602082018581111561006257600080fd5b825164010000000081118282018810171561007c57600080fd5b82525081516020918201929091019080838360005b838110156100a9578181015183820152602001610091565b50505050905090810190601f1680156100d65780820380516001836020036101000a031916815260200191505b50604052506100e3915050565b6100ed82826100f4565b505061047f565b6101078261024960201b6100311760201c565b6101425760405162461bcd60e51b815260040180806020018281038252602581526020018061079e6025913960400191505060405180910390fd5b6101ba826001600160a01b0316635c60da1b6040518163ffffffff1660e01b815260040160206040518083038186803b15801561017e57600080fd5b505afa158015610192573d6000803e3d6000fd5b505050506040513d60208110156101a857600080fd5b5051610249602090811b61003117901c565b6101f55760405162461bcd60e51b81526004018080602001828103825260348152602001806107e96034913960400191505060405180910390fd5b60008051602061075d8339815191528281558151156102445761024261021961024f565b8360405180606001604052806021815260200161077d602191396102c260201b6100371760201c565b505b505050565b3b151590565b60006102596103c8565b6001600160a01b0316635c60da1b6040518163ffffffff1660e01b815260040160206040518083038186803b15801561029157600080fd5b505afa1580156102a5573d6000803e3d6000fd5b505050506040513d60208110156102bb57600080fd5b5051905090565b60606102cd84610249565b6103085760405162461bcd60e51b81526004018080602001828103825260268152602001806107c36026913960400191505060405180910390fd5b60006060856001600160a01b0316856040518082805190602001908083835b602083106103465780518252601f199092019160209182019101610327565b6001836020036101000a038019825116818451168082178552505050505050905001915050600060405180830381855af49150503d80600081146103a6576040519150601f19603f3d011682016040523d82523d6000602084013e6103ab565b606091505b5090925090506103bc8282866103db565b925050505b9392505050565b60008051602061075d8339815191525490565b606083156103ea5750816103c1565b8251156103fa5782518084602001fd5b8160405162461bcd60e51b81526004018080602001828103825283818151815260200191508051906020019080838360005b8381101561044457818101518382015260200161042c565b50505050905090810190601f1680156104715780820380516001836020036101000a031916815260200191505b509250505060405180910390fd5b6102cf8061048e6000396000f3fe60806040523661001357610011610017565b005b6100115b61001f61002f565b61002f61002a61013c565b6101af565b565b3b151590565b606061004284610031565b61007d5760405162461bcd60e51b815260040180806020018281038252602681526020018061029d6026913960400191505060405180910390fd5b60006060856001600160a01b0316856040518082805190602001908083835b602083106100bb5780518252601f19909201916020918201910161009c565b6001836020036101000a038019825116818451168082178552505050505050905001915050600060405180830381855af49150503d806000811461011b576040519150601f19603f3d011682016040523d82523d6000602084013e610120565b606091505b50915091506101308282866101d3565b925050505b9392505050565b6000610146610277565b6001600160a01b0316635c60da1b6040518163ffffffff1660e01b815260040160206040518083038186803b15801561017e57600080fd5b505afa158015610192573d6000803e3d6000fd5b505050506040513d60208110156101a857600080fd5b5051905090565b3660008037600080366000845af43d6000803e8080156101ce573d6000f35b3d6000fd5b606083156101e2575081610135565b8251156101f25782518084602001fd5b8160405162461bcd60e51b81526004018080602001828103825283818151815260200191508051906020019080838360005b8381101561023c578181015183820152602001610224565b50505050905090810190601f1680156102695780820380516001836020036101000a031916815260200191505b509250505060405180910390fd5b7fa3f0ad74e5423aebfd80d3ef4346578335a9a72aeaee59ff6cb3582b35133d50549056fe416464726573733a2064656c65676174652063616c6c20746f206e6f6e2d636f6e7472616374a164736f6c634300060c000aa3f0ad74e5423aebfd80d3ef4346578335a9a72aeaee59ff6cb3582b35133d50426561636f6e50726f78793a2066756e6374696f6e2063616c6c206661696c6564426561636f6e50726f78793a20626561636f6e206973206e6f74206120636f6e7472616374416464726573733a2064656c65676174652063616c6c20746f206e6f6e2d636f6e7472616374426561636f6e50726f78793a20626561636f6e20696d706c656d656e746174696f6e206973206e6f74206120636f6e7472616374a164736f6c634300060c000a","linkReferences":{}},"methodIdentifiers":{"deploy(address,address[],address,bool,bool,bool,uint8,(uint64,uint32,uint32,uint64))":"eb5d5aa9","implementation()":"5c60da1b","setImplementation(address)":"d784d426"},"id":100}