{"abi":[{"type":"constructor","inputs":[{"name":"_integrationManager","type":"address","internalType":"address"},{"name":"_router","type":"address","internalType":"address"}],"stateMutability":"nonpayable"},{"type":"function","name":"getIntegrationManager","inputs":[],"outputs":[{"name":"integrationManager_","type":"address","internalType":"address"}],"stateMutability":"view"},{"type":"function","name":"getUniswapV2Router2","inputs":[],"outputs":[{"name":"router_","type":"address","internalType":"address"}],"stateMutability":"view"},{"type":"function","name":"parseAssetsForAction","inputs":[{"name":"","type":"address","internalType":"address"},{"name":"_selector","type":"bytes4","internalType":"bytes4"},{"name":"_actionData","type":"bytes","internalType":"bytes"}],"outputs":[{"name":"spendAssetsHandleType_","type":"uint8","internalType":"enum IIntegrationManager.SpendAssetsHandleType"},{"name":"spendAssets_","type":"address[]","internalType":"address[]"},{"name":"spendAssetAmounts_","type":"uint256[]","internalType":"uint256[]"},{"name":"incomingAssets_","type":"address[]","internalType":"address[]"},{"name":"minIncomingAssetAmounts_","type":"uint256[]","internalType":"uint256[]"}],"stateMutability":"view"},{"type":"function","name":"takeOrder","inputs":[{"name":"_vaultProxy","type":"address","internalType":"address"},{"name":"_actionData","type":"bytes","internalType":"bytes"},{"name":"","type":"bytes","internalType":"bytes"}],"outputs":[],"stateMutability":"nonpayable"}],"bytecode":{"object":"0x60c060405234801561001057600080fd5b50604051610f39380380610f398339818101604052604081101561003357600080fd5b5080516020909101516001600160601b0319606092831b8116608052911b1660a05260805160601c60a05160601c610eac61008d600039806104d652806105f2528061061952508061031a52806104fa5250610eac6000f3fe608060405234801561001057600080fd5b506004361061004c5760003560e01c806303e38a2b14610051578063c54efee514610121578063d1ded408146102e3578063e7c4569014610307575b600080fd5b61011f6004803603606081101561006757600080fd5b6001600160a01b038235169190810190604081016020820135600160201b81111561009157600080fd5b8201836020820111156100a357600080fd5b803590602001918460018302840111600160201b831117156100c457600080fd5b919390929091602081019035600160201b8111156100e157600080fd5b8201836020820111156100f357600080fd5b803590602001918460018302840111600160201b8311171561011457600080fd5b50909250905061030f565b005b6101ae6004803603606081101561013757600080fd5b6001600160a01b03823516916001600160e01b031960208201351691810190606081016040820135600160201b81111561017057600080fd5b82018360208201111561018257600080fd5b803590602001918460018302840111600160201b831117156101a357600080fd5b50909250905061045f565b604051808660028111156101be57fe5b815260200180602001806020018060200180602001858103855289818151815260200191508051906020019060200280838360005b8381101561020b5781810151838201526020016101f3565b50505050905001858103845288818151815260200191508051906020019060200280838360005b8381101561024a578181015183820152602001610232565b50505050905001858103835287818151815260200191508051906020019060200280838360005b83811015610289578181015183820152602001610271565b50505050905001858103825286818151815260200191508051906020019060200280838360005b838110156102c85781810151838201526020016102b0565b50505050905001995050505050505050505060405180910390f35b6102eb6104d4565b604080516001600160a01b039092168252519081900360200190f35b6102eb6104f8565b336001600160a01b037f000000000000000000000000000000000000000000000000000000000000000016146103765760405162461bcd60e51b8152600401808060200182810382526032815260200180610dba6032913960400191505060405180910390fd5b606060006103b986868080601f01602080910402602001604051908101604052809392919081815260200183838082843760009201919091525061051c92505050565b925050915061045687836000815181106103cf57fe5b60200260200101516001600160a01b03166370a08231306040518263ffffffff1660e01b815260040180826001600160a01b0316815260200191505060206040518083038186803b15801561042357600080fd5b505afa158015610437573d6000803e3d6000fd5b505050506040513d602081101561044d57600080fd5b505183856105d8565b50505050505050565b600060608080806001600160e01b031988166303e38a2b60e01b146104b55760405162461bcd60e51b8152600401808060200182810382526027815260200180610e796027913960400191505060405180910390fd5b6104bf8787610709565b94509450945094509450945094509450945094565b7f000000000000000000000000000000000000000000000000000000000000000090565b7f000000000000000000000000000000000000000000000000000000000000000090565b606060008083806020019051606081101561053657600080fd5b8101908080516040519392919084600160201b82111561055557600080fd5b90830190602082018581111561056a57600080fd5b82518660208202830111600160201b8211171561058657600080fd5b82525081516020918201928201910280838360005b838110156105b357818101518382015260200161059b565b5050505091909101604090815260208301519201519499919850939650945050505050565b610617816000815181106105e857fe5b60200260200101517f0000000000000000000000000000000000000000000000000000000000000000856108d5565b7f00000000000000000000000000000000000000000000000000000000000000006001600160a01b0316635c11d79584848488610652610993565b6040518663ffffffff1660e01b81526004018086815260200185815260200180602001846001600160a01b03168152602001838152602001828103825285818151815260200191508051906020019060200280838360005b838110156106c25781810151838201526020016106aa565b505050509050019650505050505050600060405180830381600087803b1580156106eb57600080fd5b505af11580156106ff573d6000803e3d6000fd5b5050505050505050565b600060608060608060606000806107558a8a8080601f01602080910402602001604051908101604052809392919081815260200183838082843760009201919091525061051c92505050565b92509250925060028351101561079c5760405162461bcd60e51b815260040180806020018281038252602d815260200180610dec602d913960400191505060405180910390fd5b6040805160018082528183019092529060208083019080368337019050509650826000815181106107c957fe5b6020026020010151876000815181106107de57fe5b6001600160a01b0392909216602092830291909101820152604080516001808252818301909252918281019080368337019050509550818660008151811061082257fe5b6020908102919091010152604080516001808252818301909252908160200160208202803683370190505094508260018451038151811061085f57fe5b60200260200101518560008151811061087457fe5b6001600160a01b039290921660209283029190910182015260408051600180825281830190925291828101908036833701905050935080846000815181106108b857fe5b602002602001018181525050600297505050509295509295909350565b60408051636eb1769f60e11b81523060048201526001600160a01b038481166024830152915160009286169163dd62ed3e916044808301926020929190829003018186803b15801561092657600080fd5b505afa15801561093a573d6000803e3d6000fd5b505050506040513d602081101561095057600080fd5b505190508181101561098d578015610977576109776001600160a01b03851684600061099a565b61098d6001600160a01b0385168460001961099a565b50505050565b6001420190565b6109ad6109a6846109b2565b83836109b5565b505050565b90565b801580610a3b575060408051636eb1769f60e11b81523060048201526001600160a01b03848116602483015291519185169163dd62ed3e91604480820192602092909190829003018186803b158015610a0d57600080fd5b505afa158015610a21573d6000803e3d6000fd5b505050506040513d6020811015610a3757600080fd5b5051155b610a765760405162461bcd60e51b8152600401808060200182810382526036815260200180610e436036913960400191505060405180910390fd5b604080516001600160a01b038416602482015260448082018490528251808303909101815260649091019091526020810180516001600160e01b031663095ea7b360e01b1790526109ad9084906060610b18826040518060400160405280602081526020017f5361666545524332303a206c6f772d6c6576656c2063616c6c206661696c6564815250856001600160a01b0316610b749092919063ffffffff16565b8051909150156109ad57808060200190516020811015610b3757600080fd5b50516109ad5760405162461bcd60e51b815260040180806020018281038252602a815260200180610e19602a913960400191505060405180910390fd5b6060610b838484600085610b8d565b90505b9392505050565b606082471015610bce5760405162461bcd60e51b8152600401808060200182810382526026815260200180610d946026913960400191505060405180910390fd5b610bd785610ce9565b610c28576040805162461bcd60e51b815260206004820152601d60248201527f416464726573733a2063616c6c20746f206e6f6e2d636f6e7472616374000000604482015290519081900360640190fd5b60006060866001600160a01b031685876040518082805190602001908083835b60208310610c675780518252601f199092019160209182019101610c48565b6001836020036101000a03801982511681845116808217855250505050505090500191505060006040518083038185875af1925050503d8060008114610cc9576040519150601f19603f3d011682016040523d82523d6000602084013e610cce565b606091505b5091509150610cde828286610cef565b979650505050505050565b3b151590565b60608315610cfe575081610b86565b825115610d0e5782518084602001fd5b8160405162461bcd60e51b81526004018080602001828103825283818151815260200191508051906020019080838360005b83811015610d58578181015183820152602001610d40565b50505050905090810190601f168015610d855780820380516001836020036101000a031916815260200191505b509250505060405180910390fdfe416464726573733a20696e73756666696369656e742062616c616e636520666f722063616c6c4f6e6c792074686520496e746567726174696f6e4d616e616765722063616e2063616c6c20746869732066756e6374696f6e5f5f7061727365417373657473466f7254616b654f726465723a205f70617468206d757374206265203e3d20325361666545524332303a204552433230206f7065726174696f6e20646964206e6f7420737563636565645361666545524332303a20617070726f76652066726f6d206e6f6e2d7a65726f20746f206e6f6e2d7a65726f20616c6c6f77616e63657061727365417373657473466f72416374696f6e3a205f73656c6563746f7220696e76616c6964a164736f6c634300060c000a","linkReferences":{}},"methodIdentifiers":{"getIntegrationManager()":"e7c45690","getUniswapV2Router2()":"d1ded408","parseAssetsForAction(address,bytes4,bytes)":"c54efee5","takeOrder(address,bytes,bytes)":"03e38a2b"},"id":180}