{"abi":[{"type":"constructor","inputs":[{"name":"_fundDeployer","type":"address","internalType":"address"},{"name":"_weth","type":"address","internalType":"address"},{"name":"_ceth","type":"address","internalType":"address"}],"stateMutability":"nonpayable"},{"type":"function","name":"addCTokens","inputs":[{"name":"_cTokens","type":"address[]","internalType":"address[]"}],"outputs":[],"stateMutability":"nonpayable"},{"type":"function","name":"calcUnderlyingValues","inputs":[{"name":"_derivative","type":"address","internalType":"address"},{"name":"_derivativeAmount","type":"uint256","internalType":"uint256"}],"outputs":[{"name":"underlyings_","type":"address[]","internalType":"address[]"},{"name":"underlyingAmounts_","type":"uint256[]","internalType":"uint256[]"}],"stateMutability":"nonpayable"},{"type":"function","name":"getFundDeployer","inputs":[],"outputs":[{"name":"fundDeployer_","type":"address","internalType":"address"}],"stateMutability":"view"},{"type":"function","name":"getOwner","inputs":[],"outputs":[{"name":"owner_","type":"address","internalType":"address"}],"stateMutability":"view"},{"type":"function","name":"getTokenFromCToken","inputs":[{"name":"_cToken","type":"address","internalType":"address"}],"outputs":[{"name":"token_","type":"address","internalType":"address"}],"stateMutability":"view"},{"type":"function","name":"isSupportedAsset","inputs":[{"name":"_asset","type":"address","internalType":"address"}],"outputs":[{"name":"isSupported_","type":"bool","internalType":"bool"}],"stateMutability":"view"},{"type":"event","name":"CTokenAdded","inputs":[{"name":"cToken","type":"address","indexed":true,"internalType":"address"},{"name":"token","type":"address","indexed":true,"internalType":"address"}],"anonymous":false}],"bytecode":{"object":"0x60a060405234801561001057600080fd5b50604051610ed0380380610ed08339818101604052606081101561003357600080fd5b81019080805190602001909291908051906020019092919080519060200190929190505050828073ffffffffffffffffffffffffffffffffffffffff1660808173ffffffffffffffffffffffffffffffffffffffff1660601b8152505050816000808373ffffffffffffffffffffffffffffffffffffffff1673ffffffffffffffffffffffffffffffffffffffff16815260200190815260200160002060006101000a81548173ffffffffffffffffffffffffffffffffffffffff021916908373ffffffffffffffffffffffffffffffffffffffff1602179055508173ffffffffffffffffffffffffffffffffffffffff168173ffffffffffffffffffffffffffffffffffffffff167f7acf7482a03de3fea14ab9eb8fa6f7524bb1a61a24898d2337379a5cf7421d7e60405160405180910390a350505060805160601c610d4361018d60003980610a2e5280610ad65250610d436000f3fe608060405234801561001057600080fd5b50600436106100625760003560e01c80631d249354146100675780634cae3ad7146100e0578063727212f61461014e578063893d20e81461023957806397c0ac871461026d5780639be918e6146102a1575b600080fd5b6100de6004803603602081101561007d57600080fd5b810190808035906020019064010000000081111561009a57600080fd5b8201836020820111156100ac57600080fd5b803590602001918460208302840111640100000000831117156100ce57600080fd5b90919293919293905050506102fb565b005b610122600480360360208110156100f657600080fd5b81019080803573ffffffffffffffffffffffffffffffffffffffff16906020019092919050505061071e565b604051808273ffffffffffffffffffffffffffffffffffffffff16815260200191505060405180910390f35b61019a6004803603604081101561016457600080fd5b81019080803573ffffffffffffffffffffffffffffffffffffffff16906020019092919080359060200190929190505050610786565b604051808060200180602001838103835285818151815260200191508051906020019060200280838360005b838110156101e15780820151818401526020810190506101c6565b50505050905001838103825284818151815260200191508051906020019060200280838360005b83811015610223578082015181840152602081019050610208565b5050505090500194505050505060405180910390f35b610241610a2a565b604051808273ffffffffffffffffffffffffffffffffffffffff16815260200191505060405180910390f35b610275610ad2565b604051808273ffffffffffffffffffffffffffffffffffffffff16815260200191505060405180910390f35b6102e3600480360360208110156102b757600080fd5b81019080803573ffffffffffffffffffffffffffffffffffffffff169060200190929190505050610afa565b60405180821515815260200191505060405180910390f35b610303610a2a565b73ffffffffffffffffffffffffffffffffffffffff163373ffffffffffffffffffffffffffffffffffffffff1614610386576040517f08c379a0000000000000000000000000000000000000000000000000000000008152600401808060200182810382526049815260200180610ca16049913960600191505060405180910390fd5b600082829050116103ff576040517f08c379a000000000000000000000000000000000000000000000000000000000815260040180806020018281038252601a8152602001807f61646443546f6b656e733a20456d707479205f63546f6b656e7300000000000081525060200191505060405180910390fd5b60005b8282905081101561071957600073ffffffffffffffffffffffffffffffffffffffff1660008085858581811061043457fe5b9050602002013573ffffffffffffffffffffffffffffffffffffffff1673ffffffffffffffffffffffffffffffffffffffff1673ffffffffffffffffffffffffffffffffffffffff16815260200190815260200160002060009054906101000a900473ffffffffffffffffffffffffffffffffffffffff1673ffffffffffffffffffffffffffffffffffffffff1614610535576040517f08c379a000000000000000000000000000000000000000000000000000000000815260040180806020018281038252601d8152602001807f61646443546f6b656e733a2056616c756520616c72656164792073657400000081525060200191505060405180910390fd5b600083838381811061054357fe5b9050602002013573ffffffffffffffffffffffffffffffffffffffff1673ffffffffffffffffffffffffffffffffffffffff16636f307dc36040518163ffffffff1660e01b8152600401602060405180830381600087803b1580156105a757600080fd5b505af11580156105bb573d6000803e3d6000fd5b505050506040513d60208110156105d157600080fd5b81019080805190602001909291905050509050806000808686868181106105f457fe5b9050602002013573ffffffffffffffffffffffffffffffffffffffff1673ffffffffffffffffffffffffffffffffffffffff1673ffffffffffffffffffffffffffffffffffffffff16815260200190815260200160002060006101000a81548173ffffffffffffffffffffffffffffffffffffffff021916908373ffffffffffffffffffffffffffffffffffffffff1602179055508073ffffffffffffffffffffffffffffffffffffffff168484848181106106ac57fe5b9050602002013573ffffffffffffffffffffffffffffffffffffffff1673ffffffffffffffffffffffffffffffffffffffff167f7acf7482a03de3fea14ab9eb8fa6f7524bb1a61a24898d2337379a5cf7421d7e60405160405180910390a3508080600101915050610402565b505050565b60008060008373ffffffffffffffffffffffffffffffffffffffff1673ffffffffffffffffffffffffffffffffffffffff16815260200190815260200160002060009054906101000a900473ffffffffffffffffffffffffffffffffffffffff169050919050565b606080600167ffffffffffffffff811180156107a157600080fd5b506040519080825280602002602001820160405280156107d05781602001602082028036833780820191505090505b5091506000808573ffffffffffffffffffffffffffffffffffffffff1673ffffffffffffffffffffffffffffffffffffffff16815260200190815260200160002060009054906101000a900473ffffffffffffffffffffffffffffffffffffffff168260008151811061083f57fe5b602002602001019073ffffffffffffffffffffffffffffffffffffffff16908173ffffffffffffffffffffffffffffffffffffffff1681525050600073ffffffffffffffffffffffffffffffffffffffff168260008151811061089e57fe5b602002602001015173ffffffffffffffffffffffffffffffffffffffff161415610913576040517f08c379a000000000000000000000000000000000000000000000000000000000815260040180806020018281038252602c815260200180610d0b602c913960400191505060405180910390fd5b600167ffffffffffffffff8111801561092b57600080fd5b5060405190808252806020026020018201604052801561095a5781602001602082028036833780820191505090505b509050610a0a670de0b6b3a76400006109fc8673ffffffffffffffffffffffffffffffffffffffff1663182df0f56040518163ffffffff1660e01b815260040160206040518083038186803b1580156109b257600080fd5b505afa1580156109c6573d6000803e3d6000fd5b505050506040513d60208110156109dc57600080fd5b810190808051906020019092919050505086610b9190919063ffffffff16565b610c1790919063ffffffff16565b81600081518110610a1757fe5b6020026020010181815250509250929050565b60007f000000000000000000000000000000000000000000000000000000000000000073ffffffffffffffffffffffffffffffffffffffff1663893d20e86040518163ffffffff1660e01b815260040160206040518083038186803b158015610a9257600080fd5b505afa158015610aa6573d6000803e3d6000fd5b505050506040513d6020811015610abc57600080fd5b8101908080519060200190929190505050905090565b60007f0000000000000000000000000000000000000000000000000000000000000000905090565b60008073ffffffffffffffffffffffffffffffffffffffff166000808473ffffffffffffffffffffffffffffffffffffffff1673ffffffffffffffffffffffffffffffffffffffff16815260200190815260200160002060009054906101000a900473ffffffffffffffffffffffffffffffffffffffff1673ffffffffffffffffffffffffffffffffffffffff1614159050919050565b600080831415610ba45760009050610c11565b6000828402905082848281610bb557fe5b0414610c0c576040517f08c379a0000000000000000000000000000000000000000000000000000000008152600401808060200182810382526021815260200180610cea6021913960400191505060405180910390fd5b809150505b92915050565b6000808211610c8e576040517f08c379a000000000000000000000000000000000000000000000000000000000815260040180806020018281038252601a8152602001807f536166654d6174683a206469766973696f6e206279207a65726f00000000000081525060200191505060405180910390fd5b818381610c9757fe5b0490509291505056fe6f6e6c7946756e644465706c6f7965724f776e65723a204f6e6c79207468652046756e644465706c6f796572206f776e65722063616e2063616c6c20746869732066756e6374696f6e536166654d6174683a206d756c7469706c69636174696f6e206f766572666c6f7763616c63556e6465726c79696e6756616c7565733a20556e737570706f727465642064657269766174697665a164736f6c634300060c000a","linkReferences":{}},"methodIdentifiers":{"addCTokens(address[])":"1d249354","calcUnderlyingValues(address,uint256)":"727212f6","getFundDeployer()":"97c0ac87","getOwner()":"893d20e8","getTokenFromCToken(address)":"4cae3ad7","isSupportedAsset(address)":"9be918e6"},"id":286}