{"abi":[{"type":"constructor","inputs":[{"name":"_dispatcher","type":"address","internalType":"address"},{"name":"_addressListRegistry","type":"address","internalType":"address"},{"name":"_fundDeployerV4","type":"address","internalType":"address"},{"name":"_protocolFeeRecipient","type":"address","internalType":"address"},{"name":"_protocolFeeBps","type":"uint256","internalType":"uint256"},{"name":"_initializer","type":"address","internalType":"address"}],"stateMutability":"nonpayable"},{"type":"function","name":"allowance","inputs":[{"name":"owner","type":"address","internalType":"address"},{"name":"spender","type":"address","internalType":"address"}],"outputs":[{"name":"","type":"uint256","internalType":"uint256"}],"stateMutability":"view"},{"type":"function","name":"approve","inputs":[{"name":"spender","type":"address","internalType":"address"},{"name":"amount","type":"uint256","internalType":"uint256"}],"outputs":[{"name":"","type":"bool","internalType":"bool"}],"stateMutability":"nonpayable"},{"type":"function","name":"balanceOf","inputs":[{"name":"account","type":"address","internalType":"address"}],"outputs":[{"name":"","type":"uint256","internalType":"uint256"}],"stateMutability":"view"},{"type":"function","name":"decimals","inputs":[],"outputs":[{"name":"decimals_","type":"uint8","internalType":"uint8"}],"stateMutability":"view"},{"type":"function","name":"decreaseAllowance","inputs":[{"name":"spender","type":"address","internalType":"address"},{"name":"subtractedValue","type":"uint256","internalType":"uint256"}],"outputs":[{"name":"","type":"bool","internalType":"bool"}],"stateMutability":"nonpayable"},{"type":"function","name":"deposit","inputs":[{"name":"_amount","type":"uint256","internalType":"uint256"}],"outputs":[],"stateMutability":"nonpayable"},{"type":"function","name":"enterLockedState","inputs":[],"outputs":[],"stateMutability":"nonpayable"},{"type":"function","name":"enterRedeemState","inputs":[{"name":"_untrackedAssetsToClaim","type":"address[]","internalType":"address[]"}],"outputs":[],"stateMutability":"nonpayable"},{"type":"function","name":"getAllowedDepositorListId","inputs":[],"outputs":[{"name":"allowedDepositorListId_","type":"uint256","internalType":"uint256"}],"stateMutability":"view"},{"type":"function","name":"getDepositToken","inputs":[],"outputs":[{"name":"depositToken_","type":"address","internalType":"address"}],"stateMutability":"view"},{"type":"function","name":"getFeeBps","inputs":[],"outputs":[{"name":"feeBps_","type":"uint256","internalType":"uint256"}],"stateMutability":"view"},{"type":"function","name":"getFeeExcludesDepositTokenPrincipal","inputs":[],"outputs":[{"name":"excludesPrincipal_","type":"bool","internalType":"bool"}],"stateMutability":"view"},{"type":"function","name":"getFeeRecipient","inputs":[],"outputs":[{"name":"feeRecipient_","type":"address","internalType":"address"}],"stateMutability":"view"},{"type":"function","name":"getManager","inputs":[],"outputs":[{"name":"manager_","type":"address","internalType":"address"}],"stateMutability":"view"},{"type":"function","name":"getProtocolFeeStart","inputs":[],"outputs":[{"name":"protocolFeeStart_","type":"uint256","internalType":"uint256"}],"stateMutability":"view"},{"type":"function","name":"getRedeemedAssets","inputs":[],"outputs":[{"name":"redeemedAssets_","type":"address[]","internalType":"address[]"}],"stateMutability":"view"},{"type":"function","name":"getState","inputs":[],"outputs":[{"name":"state_","type":"uint8","internalType":"enum ArbitraryTokenPhasedSharesWrapperLib.State"}],"stateMutability":"view"},{"type":"function","name":"getTotalDepositMax","inputs":[],"outputs":[{"name":"totalDepositMax_","type":"uint256","internalType":"uint256"}],"stateMutability":"view"},{"type":"function","name":"getTransfersAllowed","inputs":[],"outputs":[{"name":"transfersAllowed_","type":"bool","internalType":"bool"}],"stateMutability":"view"},{"type":"function","name":"getVaultProxy","inputs":[],"outputs":[{"name":"vaultProxy_","type":"address","internalType":"address"}],"stateMutability":"view"},{"type":"function","name":"increaseAllowance","inputs":[{"name":"spender","type":"address","internalType":"address"},{"name":"addedValue","type":"uint256","internalType":"uint256"}],"outputs":[{"name":"","type":"bool","internalType":"bool"}],"stateMutability":"nonpayable"},{"type":"function","name":"init","inputs":[{"name":"_vaultProxy","type":"address","internalType":"address"},{"name":"_depositToken","type":"address","internalType":"address"},{"name":"_allowedDepositorListId","type":"uint128","internalType":"uint128"},{"name":"_transfersAllowed","type":"bool","internalType":"bool"},{"name":"_totalDepositMax","type":"uint128","internalType":"uint128"},{"name":"_feeRecipient","type":"address","internalType":"address"},{"name":"_feeBps","type":"uint16","internalType":"uint16"},{"name":"_feeExcludesDepositTokenPrincipal","type":"bool","internalType":"bool"},{"name":"_manager","type":"address","internalType":"address"}],"outputs":[],"stateMutability":"nonpayable"},{"type":"function","name":"name","inputs":[],"outputs":[{"name":"name_","type":"string","internalType":"string"}],"stateMutability":"view"},{"type":"function","name":"setAllowedDepositorListId","inputs":[{"name":"_nextAllowedDepositorListId","type":"uint128","internalType":"uint128"}],"outputs":[],"stateMutability":"nonpayable"},{"type":"function","name":"setManager","inputs":[{"name":"_nextManager","type":"address","internalType":"address"}],"outputs":[],"stateMutability":"nonpayable"},{"type":"function","name":"setTotalDepositMax","inputs":[{"name":"_nextTotalDepositMax","type":"uint128","internalType":"uint128"}],"outputs":[],"stateMutability":"nonpayable"},{"type":"function","name":"symbol","inputs":[],"outputs":[{"name":"symbol_","type":"string","internalType":"string"}],"stateMutability":"view"},{"type":"function","name":"totalSupply","inputs":[],"outputs":[{"name":"","type":"uint256","internalType":"uint256"}],"stateMutability":"view"},{"type":"function","name":"transfer","inputs":[{"name":"_recipient","type":"address","internalType":"address"},{"name":"_amount","type":"uint256","internalType":"uint256"}],"outputs":[{"name":"success_","type":"bool","internalType":"bool"}],"stateMutability":"nonpayable"},{"type":"function","name":"transferFrom","inputs":[{"name":"_sender","type":"address","internalType":"address"},{"name":"_recipient","type":"address","internalType":"address"},{"name":"_amount","type":"uint256","internalType":"uint256"}],"outputs":[{"name":"success_","type":"bool","internalType":"bool"}],"stateMutability":"nonpayable"},{"type":"function","name":"withdraw","inputs":[{"name":"_amount","type":"uint256","internalType":"uint256"},{"name":"_additionalAssets","type":"address[]","internalType":"address[]"}],"outputs":[{"name":"claimedAssets_","type":"address[]","internalType":"address[]"},{"name":"claimedAssetAmounts_","type":"uint256[]","internalType":"uint256[]"}],"stateMutability":"nonpayable"},{"type":"event","name":"AllowedDepositorListIdSet","inputs":[{"name":"listId","type":"uint256","indexed":false,"internalType":"uint256"}],"anonymous":false},{"type":"event","name":"Approval","inputs":[{"name":"owner","type":"address","indexed":true,"internalType":"address"},{"name":"spender","type":"address","indexed":true,"internalType":"address"},{"name":"value","type":"uint256","indexed":false,"internalType":"uint256"}],"anonymous":false},{"type":"event","name":"Deposited","inputs":[{"name":"user","type":"address","indexed":true,"internalType":"address"},{"name":"amount","type":"uint256","indexed":false,"internalType":"uint256"}],"anonymous":false},{"type":"event","name":"FeePaid","inputs":[{"name":"token","type":"address","indexed":false,"internalType":"address"},{"name":"amount","type":"uint256","indexed":false,"internalType":"uint256"}],"anonymous":false},{"type":"event","name":"Initialized","inputs":[{"name":"vaultProxy","type":"address","indexed":false,"internalType":"address"},{"name":"depositToken","type":"address","indexed":false,"internalType":"address"},{"name":"transfersAllowed","type":"bool","indexed":false,"internalType":"bool"},{"name":"feeRecipient","type":"address","indexed":false,"internalType":"address"},{"name":"feeBps","type":"uint16","indexed":false,"internalType":"uint16"},{"name":"feeExcludesDepositTokenPrincipal","type":"bool","indexed":false,"internalType":"bool"}],"anonymous":false},{"type":"event","name":"ManagerSet","inputs":[{"name":"manager","type":"address","indexed":false,"internalType":"address"}],"anonymous":false},{"type":"event","name":"ProtocolFeePaid","inputs":[{"name":"token","type":"address","indexed":false,"internalType":"address"},{"name":"amount","type":"uint256","indexed":false,"internalType":"uint256"}],"anonymous":false},{"type":"event","name":"ProtocolFeeStarted","inputs":[],"anonymous":false},{"type":"event","name":"StateSet","inputs":[{"name":"state","type":"uint8","indexed":false,"internalType":"enum ArbitraryTokenPhasedSharesWrapperLib.State"}],"anonymous":false},{"type":"event","name":"TotalDepositMaxSet","inputs":[{"name":"totalDepositMax","type":"uint256","indexed":false,"internalType":"uint256"}],"anonymous":false},{"type":"event","name":"Transfer","inputs":[{"name":"from","type":"address","indexed":true,"internalType":"address"},{"name":"to","type":"address","indexed":true,"internalType":"address"},{"name":"value","type":"uint256","indexed":false,"internalType":"uint256"}],"anonymous":false},{"type":"event","name":"Withdrawn","inputs":[{"name":"user","type":"address","indexed":true,"internalType":"address"},{"name":"amount","type":"uint256","indexed":false,"internalType":"uint256"},{"name":"claimedAssets","type":"address[]","indexed":false,"internalType":"address[]"},{"name":"claimedAssetAmounts","type":"uint256[]","indexed":false,"internalType":"uint256[]"}],"anonymous":false}],"bytecode":{"object":"0x6101606040523480156200001257600080fd5b5060405162003fec38038062003fec833981810160405260c08110156200003857600080fd5b5080516020808301516040808501516060860151608087015160a09097015183518085018552601981527f5772617070656420456e7a796d6520536861726573204c696200000000000000818801908152855180870190965260098652683ba2a72d2316b634b160b91b97860197909752805197989597939692959491939092620000c7916003919062000135565b508051620000dd90600490602084019062000135565b50506005805460ff19166012179055506001600160601b0319606095861b811660805295851b861660a05292841b851660c05291831b841660e05261010091909152811b9091166101205230901b61014052620001d1565b828054600181600116156101000203166002900490600052602060002090601f016020900481019282601f106200017857805160ff1916838001178555620001a8565b82800160010185558215620001a8579182015b82811115620001a85782518255916020019190600101906200018b565b50620001b6929150620001ba565b5090565b5b80821115620001b65760008155600101620001bb565b60805160601c60a05160601c60c05160601c60e05160601c610100516101205160601c6101405160601c613db06200023c600039806107775280611692525080612cb0525080612c1e525080611dc3525080611e2c525080611e565250806121955250613db06000f3fe608060405234801561001057600080fd5b50600436106101e55760003560e01c8063907e3df31161010f578063b6b55f25116100a2578063dd62ed3e11610071578063dd62ed3e146106b6578063e9085cc7146106e4578063ecb6abd61461070a578063fb1b5c7b14610762576101e5565b8063b6b55f2514610663578063c980918714610680578063d0ebdbe714610688578063d5009584146106ae576101e5565b8063a161a512116100de578063a161a51214610590578063a457c2d714610598578063a9059cbb146105c4578063ae652af6146105f0576101e5565b8063907e3df31461044c578063913cc04a1461045457806395d89b411461047a57806399eca69f14610482576101e5565b8063313ce567116101875780636edac21b116101565780636edac21b146103a857806370a08231146103b0578063851bda82146103d65780638c43447114610444576101e5565b8063313ce56714610330578063395093511461034e57806340806ae61461037a5780634ccb20c014610384576101e5565b80631865c57d116101c35780631865c57d146102c15780632207b386146102ea57806323b872dd146102f25780632c92809814610328576101e5565b806306fdde03146101ea578063095ea7b31461026757806318160ddd146102a7575b600080fd5b6101f261076a565b6040805160208082528351818301528351919283929083019185019080838360005b8381101561022c578181015183820152602001610214565b50505050905090810190601f1680156102595780820380516001836020036101000a031916815260200191505b509250505060405180910390f35b6102936004803603604081101561027d57600080fd5b506001600160a01b038135169060200135610956565b604080519115158252519081900360200190f35b6102af610974565b60408051918252519081900360200190f35b6102c961097a565b604051808260028111156102d957fe5b815260200191505060405180910390f35b6102af61098a565b6102936004803603606081101561030857600080fd5b506001600160a01b038135811691602081013590911690604001356109a0565b6102af610a10565b610338610a21565b6040805160ff9092168252519081900360200190f35b6102936004803603604081101561036457600080fd5b506001600160a01b038135169060200135610a26565b610382610a79565b005b61038c610e59565b604080516001600160a01b039092168252519081900360200190f35b610293610e68565b6102af600480360360208110156103c657600080fd5b50356001600160a01b0316610e78565b610382600480360360208110156103ec57600080fd5b810190602081018135600160201b81111561040657600080fd5b82018360208201111561041857600080fd5b803590602001918460208302840111600160201b8311171561043957600080fd5b509092509050610e97565b6102af6115eb565b6102936115fa565b6103826004803603602081101561046a57600080fd5b50356001600160801b031661160a565b6101f2611685565b6104f76004803603604081101561049857600080fd5b81359190810190604081016020820135600160201b8111156104b957600080fd5b8201836020820111156104cb57600080fd5b803590602001918460208302840111600160201b831117156104ec57600080fd5b509092509050611828565b604051808060200180602001838103835285818151815260200191508051906020019060200280838360005b8381101561053b578181015183820152602001610523565b50505050905001838103825284818151815260200191508051906020019060200280838360005b8381101561057a578181015183820152602001610562565b5050505090500194505050505060405180910390f35b6102af611cd8565b610293600480360360408110156105ae57600080fd5b506001600160a01b038135169060200135611ceb565b610293600480360360408110156105da57600080fd5b506001600160a01b038135169060200135611d53565b610382600480360361012081101561060757600080fd5b506001600160a01b03813581169160208101358216916001600160801b036040830135811692606081013515159260808201359092169160a082013581169161ffff60c0820135169160e0820135151591610100013516611db8565b6103826004803603602081101561067957600080fd5b50356120f5565b61038c6123f4565b6103826004803603602081101561069e57600080fd5b50356001600160a01b0316612403565b61038c612476565b6102af600480360360408110156106cc57600080fd5b506001600160a01b038135811691602001351661248a565b610382600480360360208110156106fa57600080fd5b50356001600160801b03166124b5565b610712612528565b60408051602080825283518183015283519192839290830191858101910280838360005b8381101561074e578181015183820152602001610736565b505050509050019250505060405180910390f35b61038c61258a565b6060306001600160a01b037f00000000000000000000000000000000000000000000000000000000000000001614156107ac576107a5612599565b9050610953565b6107b46123f4565b6001600160a01b03166306fdde036040518163ffffffff1660e01b815260040160006040518083038186803b1580156107ec57600080fd5b505afa158015610800573d6000803e3d6000fd5b505050506040513d6000823e601f3d908101601f19168201604052602081101561082957600080fd5b8101908080516040519392919084600160201b82111561084857600080fd5b90830190602082018581111561085d57600080fd5b8251600160201b81118282018810171561087657600080fd5b82525081516020918201929091019080838360005b838110156108a357818101518382015260200161088b565b50505050905090810190601f1680156108d05780820380516001836020036101000a031916815260200191505b5060405250505060405160200180806702bb930b83832b2160c51b81525060080182805190602001908083835b6020831061091c5780518252601f1990920191602091820191016108fd565b6001836020036101000a03801982511681845116808217855250505050505090500191505060405160208183030381529060405290505b90565b600061096a610963612626565b848461262a565b5060015b92915050565b60025490565b600754600160a01b900460ff1690565b600854600160801b90046001600160801b031690565b60006109aa610e68565b6109fb576040805162461bcd60e51b815260206004820181905260248201527f6f6e6c795472616e7366657273416c6c6f7765643a20446973616c6c6f776564604482015290519081900360640190fd5b610a06848484612716565b90505b9392505050565b600954600160c01b900461ffff1690565b601290565b600061096a610a33612626565b84610a748560016000610a44612626565b6001600160a01b03908116825260208083019390935260409182016000908120918c168152925290205490612798565b61262a565b6000610a836123f4565b9050610a8f33826127f2565b6000610a9961097a565b6002811115610aa457fe5b14610af6576040805162461bcd60e51b815260206004820152601f60248201527f656e7465724c6f636b656453746174653a20496e76616c696420737461746500604482015290519081900360640190fd5b6000816001600160a01b0316635a53e3486040518163ffffffff1660e01b815260040160206040518083038186803b158015610b3157600080fd5b505afa158015610b45573d6000803e3d6000fd5b505050506040513d6020811015610b5b57600080fd5b505160408051637134e1eb60e11b815290519192506000916001600160a01b0384169163e269c3d6916004808301926020929190829003018186803b158015610ba357600080fd5b505afa158015610bb7573d6000803e3d6000fd5b505050506040513d6020811015610bcd57600080fd5b5051604080516370a0823160e01b815230600482015290519192506000916001600160a01b038416916370a08231916024808301926020929190829003018186803b158015610c1b57600080fd5b505afa158015610c2f573d6000803e3d6000fd5b505050506040513d6020811015610c4557600080fd5b50519050610c5d6001600160a01b0383168483612871565b6000836001600160a01b031663beebc5da8360016040518363ffffffff1660e01b81526004018083815260200182815260200192505050602060405180830381600087803b158015610cae57600080fd5b505af1158015610cc2573d6000803e3d6000fd5b505050506040513d6020811015610cd857600080fd5b5051604080516318160ddd60e01b81529051919250600091610d589184916001600160a01b038a16916318160ddd916004808301926020929190829003018186803b158015610d2657600080fd5b505afa158015610d3a573d6000803e3d6000fd5b505050506040513d6020811015610d5057600080fd5b505190612989565b9050801580610d715750610d6e816127106129e6565b82115b610dac5760405162461bcd60e51b8152600401808060200182810382526024815260200180613c236024913960400191505060405180910390fd5b610db66001612a3f565b6000610dc061258a565b9050610e5087826001600160a01b03166370a08231306040518263ffffffff1660e01b815260040180826001600160a01b0316815260200191505060206040518083038186803b158015610e1357600080fd5b505afa158015610e27573d6000803e3d6000fd5b505050506040513d6020811015610e3d57600080fd5b50516001600160a01b0384169190612aa8565b50505050505050565b6009546001600160a01b031690565b600954600160e01b900460ff1690565b6001600160a01b0381166000908152602081905260409020545b919050565b6000610ea16123f4565b9050610ead33826127f2565b6001610eb761097a565b6002811115610ec257fe5b14610f14576040805162461bcd60e51b815260206004820152601f60248201527f656e74657252656465656d53746174653a20496e76616c696420737461746500604482015290519081900360640190fd5b6060816001600160a01b031663b8b7f1476040518163ffffffff1660e01b815260040160006040518083038186803b158015610f4f57600080fd5b505afa158015610f63573d6000803e3d6000fd5b505050506040513d6000823e601f3d908101601f191682016040526020811015610f8c57600080fd5b8101908080516040519392919084600160201b821115610fab57600080fd5b908301906020820185811115610fc057600080fd5b82518660208202830111600160201b82111715610fdc57600080fd5b82525081516020918201928201910280838360005b83811015611009578181015183820152602001610ff1565b50505050905001604052505050905060005b815181101561123457606082828151811061103257fe5b60200260200101516001600160a01b03166380daddb86040518163ffffffff1660e01b8152600401600060405180830381600087803b15801561107457600080fd5b505af1158015611088573d6000803e3d6000fd5b505050506040513d6000823e601f3d908101601f1916820160409081528110156110b157600080fd5b8101908080516040519392919084600160201b8211156110d057600080fd5b9083019060208201858111156110e557600080fd5b82518660208202830111600160201b8211171561110157600080fd5b82525081516020918201928201910280838360005b8381101561112e578181015183820152602001611116565b5050505090500160405260200180516040519392919084600160201b82111561115657600080fd5b90830190602082018581111561116b57600080fd5b82518660208202830111600160201b8211171561118757600080fd5b82525081516020918201928201910280838360005b838110156111b457818101518382015260200161119c565b5050505090500160405250505091505060005b815181101561122a578181815181106111dc57fe5b60200260200101516000146112225760405162461bcd60e51b8152600401808060200182810382526032815260200180613bc86032913960400191505060405180910390fd5b6001016111c7565b505060010161101b565b50600061123f6123f4565b6001600160a01b0316635a53e3486040518163ffffffff1660e01b815260040160206040518083038186803b15801561127757600080fd5b505afa15801561128b573d6000803e3d6000fd5b505050506040513d60208110156112a157600080fd5b5051905060606112ee6112b261258a565b8787808060200260200160405190810160405280939291908181526020018383602002808284376000920191909152509293925050612afa9050565b90506060806001600160a01b038416636af8e7eb30600019866000604051908082528060200260200182016040528015611332578160200160208202803683370190505b506040518563ffffffff1660e01b815260040180856001600160a01b031681526020018481526020018060200180602001838103835285818151815260200191508051906020019060200280838360005b8381101561139b578181015183820152602001611383565b50505050905001838103825284818151815260200191508051906020019060200280838360005b838110156113da5781810151838201526020016113c2565b505050509050019650505050505050600060405180830381600087803b15801561140357600080fd5b505af1158015611417573d6000803e3d6000fd5b505050506040513d6000823e601f3d908101601f19168201604090815281101561144057600080fd5b8101908080516040519392919084600160201b82111561145f57600080fd5b90830190602082018581111561147457600080fd5b82518660208202830111600160201b8211171561149057600080fd5b82525081516020918201928201910280838360005b838110156114bd5781810151838201526020016114a5565b5050505090500160405260200180516040519392919084600160201b8211156114e557600080fd5b9083019060208201858111156114fa57600080fd5b82518660208202830111600160201b8211171561151657600080fd5b82525081516020918201928201910280838360005b8381101561154357818101518382015260200161152b565b5050505090500160405250505091509150606060005b83518110156115af57600083828151811061157057fe5b602002602001015111156115a7576115a484828151811061158d57fe5b602002602001015183612b1890919063ffffffff16565b91505b600101611559565b5080516115c390600a906020840190613a8e565b506115cd81612be3565b6115d681612d61565b6115e06002612a3f565b505050505050505050565b6008546001600160801b031690565b600954600160d01b900460ff1690565b61161a6116156123f4565b612f68565b6001600160a01b0316336001600160a01b031614611679576040805162461bcd60e51b81526020600482015260176024820152761bdb9b1e53dddb995c8e88155b985d5d1a1bdc9a5e9959604a1b604482015290519081900360640190fd5b61168281612fd5565b50565b6060306001600160a01b037f00000000000000000000000000000000000000000000000000000000000000001614156116c0576107a5613028565b6116c86123f4565b6001600160a01b03166395d89b416040518163ffffffff1660e01b815260040160006040518083038186803b15801561170057600080fd5b505afa158015611714573d6000803e3d6000fd5b505050506040513d6000823e601f3d908101601f19168201604052602081101561173d57600080fd5b8101908080516040519392919084600160201b82111561175c57600080fd5b90830190602082018581111561177157600080fd5b8251600160201b81118282018810171561178a57600080fd5b82525081516020918201929091019080838360005b838110156117b757818101518382015260200161179f565b50505050905090810190601f1680156117e45780820380516001836020036101000a031916815260200191505b506040525050506040516020018080607760f81b81525060010182805190602001908083836020831061091c5780518252601f1990920191602091820191016108fd565b6009546060908190600160d81b900460ff161561188c576040805162461bcd60e51b815260206004820152601860248201527f6e6f6e5265656e7472616e743a205265656e7472616e63790000000000000000604482015290519081900360640190fd5b6009805460ff60d81b1916600160d81b17905560006118a961097a565b905060018160028111156118b957fe5b141561190c576040805162461bcd60e51b815260206004820152601960248201527f77697468647261773a20556e616c6c6f77656420537461746500000000000000604482015290519081900360640190fd5b600081600281111561191a57fe5b14156119b757831561195d5760405162461bcd60e51b8152600401808060200182810382526029815260200180613bfa6029913960400191505060405180910390fd5b604080516001808252818301909252906020808301908036833701905050925061198561258a565b8360008151811061199257fe5b60200260200101906001600160a01b031690816001600160a01b031681525050611a77565b6119f385858080602002602001604051908101604052809392919081815260200183836020028082843760009201919091525061308992505050565b611a2e5760405162461bcd60e51b8152600401808060200182810382526025815260200180613c906025913960400191505060405180910390fd5b611a74858580806020026020016040519081016040528093929190818152602001838360200280828437600092019190915250611a6e9250612528915050565b90613113565b92505b6000611a81610974565b9050611a8d3388613267565b835167ffffffffffffffff81118015611aa557600080fd5b50604051908082528060200260200182016040528015611acf578160200160208202803683370190505b50925060005b8451811015611bf1576000858281518110611aec57fe5b60200260200101519050611b8383611b7d8b846001600160a01b03166370a08231306040518263ffffffff1660e01b815260040180826001600160a01b0316815260200191505060206040518083038186803b158015611b4b57600080fd5b505afa158015611b5f573d6000803e3d6000fd5b505050506040513d6020811015611b7557600080fd5b5051906129e6565b90613363565b858381518110611b8f57fe5b6020026020010181815250506000858381518110611ba957fe5b60200260200101511115611be857611be833868481518110611bc757fe5b6020026020010151836001600160a01b0316612aa89092919063ffffffff16565b50600101611ad5565b50336001600160a01b03167f3e4e319c3be0696253cf2e6260a96ddf9a8fa8cfc0e7186500bbcfcef899194d888686604051808481526020018060200180602001838103835285818151815260200191508051906020019060200280838360005b83811015611c6a578181015183820152602001611c52565b50505050905001838103825284818151815260200191508051906020019060200280838360005b83811015611ca9578181015183820152602001611c91565b505050509050019550505050505060405180910390a250506009805460ff60d81b191690559094909350915050565b600954600160a01b900463ffffffff1690565b600061096a611cf8612626565b84610a7485604051806060016040528060258152602001613d7f6025913960016000611d22612626565b6001600160a01b03908116825260208083019390935260409182016000908120918d168152925290205491906133ca565b6000611d5d610e68565b611dae576040805162461bcd60e51b815260206004820181905260248201527f6f6e6c795472616e7366657273416c6c6f7765643a20446973616c6c6f776564604482015290519081900360640190fd5b610a098383613461565b336001600160a01b037f00000000000000000000000000000000000000000000000000000000000000001614611e2a576040805162461bcd60e51b81526020600482015260126024820152711a5b9a5d0e88155b985d5d1a1bdc9a5e995960721b604482015290519081900360640190fd5b7f00000000000000000000000000000000000000000000000000000000000000006001600160a01b03167f00000000000000000000000000000000000000000000000000000000000000006001600160a01b0316633d7c74f88b6040518263ffffffff1660e01b815260040180826001600160a01b0316815260200191505060206040518083038186803b158015611ec157600080fd5b505afa158015611ed5573d6000803e3d6000fd5b505050506040513d6020811015611eeb57600080fd5b50516001600160a01b031614611f48576040805162461bcd60e51b815260206004820152601760248201527f696e69743a20426164207661756c742076657273696f6e000000000000000000604482015290519081900360640190fd5b600780546001600160a01b03808b166001600160a01b03199283161790925560068054928c16929091169190911790556001600160801b03871615611f9057611f9087613475565b6001600160a01b03811615611fa857611fa8816134d2565b6001600160801b03851615611fc057611fc085612fd5565b8515611fda576009805460ff60e01b1916600160e01b1790555b6001600160a01b03841615612085576127108361ffff161061203c576040805162461bcd60e51b81526020600482015260166024820152751a5b9a5d0e8813585e0819995948195e18d95959195960521b604482015290519081900360640190fd5b6009805461ffff60c01b1916600160c01b61ffff861602176001600160a01b0319166001600160a01b0386161790558115612085576009805460ff60d01b1916600160d01b1790555b604080516001600160a01b03808c168252808b166020830152881515828401528616606082015261ffff8516608082015283151560a082015290517fbd8aba18aec1b83d675f3b473e0bfb62d8e3a73b7c786d663bee96d559b450359181900360c00190a1505050505050505050565b60006120ff61097a565b600281111561210a57fe5b1461215c576040805162461bcd60e51b815260206004820152601860248201527f6465706f7369743a20556e616c6c6f7765642053746174650000000000000000604482015290519081900360640190fd5b60006121666115eb565b9050801561225857604080516307158c8160e21b81526004810183905233602482015290516001600160a01b037f00000000000000000000000000000000000000000000000000000000000000001691631c563204916044808301926020929190829003018186803b1580156121db57600080fd5b505afa1580156121ef573d6000803e3d6000fd5b505050506040513d602081101561220557600080fd5b5051612258576040805162461bcd60e51b815260206004820152601960248201527f6465706f7369743a20556e616c6c6f7765642063616c6c657200000000000000604482015290519081900360640190fd5b600061226261258a565b9050600061226e61098a565b9050801561234557806122fa85846001600160a01b03166370a08231306040518263ffffffff1660e01b815260040180826001600160a01b0316815260200191505060206040518083038186803b1580156122c857600080fd5b505afa1580156122dc573d6000803e3d6000fd5b505050506040513d60208110156122f257600080fd5b505190612798565b1115612345576040805162461bcd60e51b815260206004820152601560248201527419195c1bdcda5d0e8813585e08195e18d959591959605a1b604482015290519081900360640190fd5b61234d610974565b612399576009805463ffffffff60a01b1916600160a01b4263ffffffff16021790556040517f5798aa338c5b99bf36b74070080d9d2efadbd4a0c383148e08e3daa7219ab00c90600090a15b6123a3338561352e565b6123b86001600160a01b03831633308761361e565b60408051858152905133917f2da466a7b24304f47e87fa2e1e5a81b9831ce54fec19055ce277ca2f39ba42c4919081900360200190a250505050565b6006546001600160a01b031690565b61240e6116156123f4565b6001600160a01b0316336001600160a01b03161461246d576040805162461bcd60e51b81526020600482015260176024820152761bdb9b1e53dddb995c8e88155b985d5d1a1bdc9a5e9959604a1b604482015290519081900360640190fd5b611682816134d2565b60055461010090046001600160a01b031690565b6001600160a01b03918216600090815260016020908152604080832093909416825291909152205490565b6124c06116156123f4565b6001600160a01b0316336001600160a01b03161461251f576040805162461bcd60e51b81526020600482015260176024820152761bdb9b1e53dddb995c8e88155b985d5d1a1bdc9a5e9959604a1b604482015290519081900360640190fd5b61168281613475565b6060600a80548060200260200160405190810160405280929190818152602001828054801561258057602002820191906000526020600020905b81546001600160a01b03168152600190910190602001808311612562575b5050505050905090565b6007546001600160a01b031690565b60038054604080516020601f60026000196101006001881615020190951694909404938401819004810282018101909252828152606093909290918301828280156125805780601f106125fa57610100808354040283529160200191612580565b820191906000526020600020905b81548152906001019060200180831161260857509395945050505050565b3390565b6001600160a01b03831661266f5760405162461bcd60e51b8152600401808060200182810382526024815260200180613cfb6024913960400191505060405180910390fd5b6001600160a01b0382166126b45760405162461bcd60e51b8152600401808060200182810382526022815260200180613b586022913960400191505060405180910390fd5b6001600160a01b03808416600081815260016020908152604080832094871680845294825291829020859055815185815291517f8c5be1e5ebec7d5bd14f71427d1e84f3dd0314c0f7b2291e5b200ac8c7c3b9259281900390910190a3505050565b600061272384848461367e565b61278e8461272f612626565b610a7485604051806060016040528060288152602001613c68602891396001600160a01b038a1660009081526001602052604081209061276d612626565b6001600160a01b0316815260208101919091526040016000205491906133ca565b5060019392505050565b600082820183811015610a09576040805162461bcd60e51b815260206004820152601b60248201527f536166654d6174683a206164646974696f6e206f766572666c6f770000000000604482015290519081900360640190fd5b6127fa612476565b6001600160a01b0316826001600160a01b03161480612832575061281d81612f68565b6001600160a01b0316826001600160a01b0316145b61286d5760405162461bcd60e51b8152600401808060200182810382526028815260200180613b7a6028913960400191505060405180910390fd5b5050565b8015806128f7575060408051636eb1769f60e11b81523060048201526001600160a01b03848116602483015291519185169163dd62ed3e91604480820192602092909190829003018186803b1580156128c957600080fd5b505afa1580156128dd573d6000803e3d6000fd5b505050506040513d60208110156128f357600080fd5b5051155b6129325760405162461bcd60e51b8152600401808060200182810382526036815260200180613d496036913960400191505060405180910390fd5b604080516001600160a01b038416602482015260448082018490528251808303909101815260649091019091526020810180516001600160e01b031663095ea7b360e01b1790526129849084906137d9565b505050565b6000828211156129e0576040805162461bcd60e51b815260206004820152601e60248201527f536166654d6174683a207375627472616374696f6e206f766572666c6f770000604482015290519081900360640190fd5b50900390565b6000826129f55750600061096e565b82820282848281612a0257fe5b0414610a095760405162461bcd60e51b8152600401808060200182810382526021815260200180613c476021913960400191505060405180910390fd5b6007805482919060ff60a01b1916600160a01b836002811115612a5e57fe5b02179055507fc635bb75c392e81c891d50372a48cfa81b6799ac6d594cb4c28a8c5e8bef6e9b8160405180826002811115612a9557fe5b815260200191505060405180910390a150565b604080516001600160a01b038416602482015260448082018490528251808303909101815260649091019091526020810180516001600160e01b031663a9059cbb60e01b1790526129849084906137d9565b6060612b06838361388a565b15612b1257508161096e565b610a0983835b6060825160010167ffffffffffffffff81118015612b3557600080fd5b50604051908082528060200260200182016040528015612b5f578160200160208202803683370190505b50905060005b8351811015612bae57838181518110612b7a57fe5b6020026020010151828281518110612b8e57fe5b6001600160a01b0390921660209283029190910190910152600101612b65565b508181845181518110612bbd57fe5b60200260200101906001600160a01b031690816001600160a01b03168152505092915050565b6000612bf7612bf0611cd8565b4290612989565b905060005b8251811015612984576000612ca36301e187e0611b7d612710611b7d87612c9d7f00000000000000000000000000000000000000000000000000000000000000008b8a81518110612c4957fe5b60200260200101516001600160a01b03166370a08231306040518263ffffffff1660e01b815260040180826001600160a01b0316815260200191505060206040518083038186803b158015611b4b57600080fd5b906129e6565b90508015612d5857612cfc7f000000000000000000000000000000000000000000000000000000000000000082868581518110612cdc57fe5b60200260200101516001600160a01b0316612aa89092919063ffffffff16565b7fb87e607f6030a23ed9b7dac1a717610f3a3b07325269f18808ba763bdcefe7ae848381518110612d2957fe5b60200260200101518260405180836001600160a01b031681526020018281526020019250505060405180910390a15b50600101612bfc565b6000612d6b610a10565b905080612d785750611682565b6000612d82610e59565b90506000612d8e6115fa565b15612d9e57612d9b61258a565b90505b60005b8451811015612f61576000858281518110612db857fe5b602002602001015190506000836001600160a01b0316826001600160a01b03161415612e6e57612e67826001600160a01b03166370a08231306040518263ffffffff1660e01b815260040180826001600160a01b0316815260200191505060206040518083038186803b158015612e2e57600080fd5b505afa158015612e42573d6000803e3d6000fd5b505050506040513d6020811015612e5857600080fd5b5051612e62610974565b6138e0565b9050612ee3565b604080516370a0823160e01b815230600482015290516001600160a01b038416916370a08231916024808301926020929190829003018186803b158015612eb457600080fd5b505afa158015612ec8573d6000803e3d6000fd5b505050506040513d6020811015612ede57600080fd5b505190505b6000612ef5612710611b7d848a6129e6565b90508015612f5657612f116001600160a01b0384168783612aa8565b604080516001600160a01b03851681526020810183905281517f075a2720282fdf622141dae0b048ef90a21a7e57c134c76912d19d006b3b3f6f929181900390910190a15b505050600101612da1565b5050505050565b6000816001600160a01b031663893d20e86040518163ffffffff1660e01b815260040160206040518083038186803b158015612fa357600080fd5b505afa158015612fb7573d6000803e3d6000fd5b505050506040513d6020811015612fcd57600080fd5b505192915050565b600880546001600160801b03808416600160801b8102919092161790915560408051918252517f0e280fa5ecedea20784caab60fae774807664c009e5e229629e5eef871207db69181900360200190a150565b60048054604080516020601f60026000196101006001881615020190951694909404938401819004810282018101909252828152606093909290918301828280156125805780601f106125fa57610100808354040283529160200191612580565b6000600182511161309c57506001610e92565b815160005b8181101561278e57600181015b8281101561310a578481815181106130c257fe5b60200260200101516001600160a01b03168583815181106130df57fe5b60200260200101516001600160a01b031614156131025760009350505050610e92565b6001016130ae565b506001016130a1565b60606000805b83518110156131525761313f8585838151811061313257fe5b602002602001015161388a565b61314a576001909101905b600101613119565b5080613161578391505061096e565b8084510167ffffffffffffffff8111801561317b57600080fd5b506040519080825280602002602001820160405280156131a5578160200160208202803683370190505b50915060005b84518110156131f4578481815181106131c057fe5b60200260200101518382815181106131d457fe5b6001600160a01b03909216602092830291909101909101526001016131ab565b50835160005b845181101561325e576132138686838151811061313257fe5b6132565784818151811061322357fe5b602002602001015184838151811061323757fe5b6001600160a01b03909216602092830291909101909101526001909101905b6001016131fa565b50505092915050565b6001600160a01b0382166132ac5760405162461bcd60e51b8152600401808060200182810382526021815260200180613cb56021913960400191505060405180910390fd5b6132b882600083612984565b6132f581604051806060016040528060228152602001613b36602291396001600160a01b03851660009081526020819052604090205491906133ca565b6001600160a01b03831660009081526020819052604090205560025461331b9082612989565b6002556040805182815290516000916001600160a01b038516917fddf252ad1be2c89b69c2b068fc378daa952ba7f163c4a11628f55a4df523b3ef9181900360200190a35050565b60008082116133b9576040805162461bcd60e51b815260206004820152601a60248201527f536166654d6174683a206469766973696f6e206279207a65726f000000000000604482015290519081900360640190fd5b8183816133c257fe5b049392505050565b600081848411156134595760405162461bcd60e51b81526004018080602001828103825283818151815260200191508051906020019080838360005b8381101561341e578181015183820152602001613406565b50505050905090810190601f16801561344b5780820380516001836020036101000a031916815260200191505b509250505060405180910390fd5b505050900390565b600061096a61346e612626565b848461367e565b600880546001600160801b0383166fffffffffffffffffffffffffffffffff19909116811790915560408051918252517f3083d42989efabd593f083885067da3d51d2c2d68342a98d68a55eff8beed8d69181900360200190a150565b600580546001600160a01b0383166101008102610100600160a81b03199092169190911790915560408051918252517f60a0f5b9f9e81e98216071b85826681c796256fe3d1354ecb675580fba64fa699181900360200190a150565b6001600160a01b038216613589576040805162461bcd60e51b815260206004820152601f60248201527f45524332303a206d696e7420746f20746865207a65726f206164647265737300604482015290519081900360640190fd5b61359560008383612984565b6002546135a29082612798565b6002556001600160a01b0382166000908152602081905260409020546135c89082612798565b6001600160a01b0383166000818152602081815260408083209490945583518581529351929391927fddf252ad1be2c89b69c2b068fc378daa952ba7f163c4a11628f55a4df523b3ef9281900390910190a35050565b604080516001600160a01b0380861660248301528416604482015260648082018490528251808303909101815260849091019091526020810180516001600160e01b03166323b872dd60e01b1790526136789085906137d9565b50505050565b6001600160a01b0383166136c35760405162461bcd60e51b8152600401808060200182810382526025815260200180613cd66025913960400191505060405180910390fd5b6001600160a01b0382166137085760405162461bcd60e51b8152600401808060200182810382526023815260200180613b136023913960400191505060405180910390fd5b613713838383612984565b61375081604051806060016040528060268152602001613ba2602691396001600160a01b03861660009081526020819052604090205491906133ca565b6001600160a01b03808516600090815260208190526040808220939093559084168152205461377f9082612798565b6001600160a01b038084166000818152602081815260409182902094909455805185815290519193928716927fddf252ad1be2c89b69c2b068fc378daa952ba7f163c4a11628f55a4df523b3ef92918290030190a3505050565b606061382e826040518060400160405280602081526020017f5361666545524332303a206c6f772d6c6576656c2063616c6c206661696c6564815250856001600160a01b03166138fc9092919063ffffffff16565b8051909150156129845780806020019051602081101561384d57600080fd5b50516129845760405162461bcd60e51b815260040180806020018281038252602a815260200180613d1f602a913960400191505060405180910390fd5b6000805b83518110156138d6578381815181106138a357fe5b60200260200101516001600160a01b0316836001600160a01b031614156138ce57600191505061096e565b60010161388e565b5060009392505050565b6000818311156138f3575080820361096e565b50600092915050565b6060610a0684846000858561391085613a22565b613961576040805162461bcd60e51b815260206004820152601d60248201527f416464726573733a2063616c6c20746f206e6f6e2d636f6e7472616374000000604482015290519081900360640190fd5b60006060866001600160a01b031685876040518082805190602001908083835b602083106139a05780518252601f199092019160209182019101613981565b6001836020036101000a03801982511681845116808217855250505050505090500191505060006040518083038185875af1925050503d8060008114613a02576040519150601f19603f3d011682016040523d82523d6000602084013e613a07565b606091505b5091509150613a17828286613a28565b979650505050505050565b3b151590565b60608315613a37575081610a09565b825115613a475782518084602001fd5b60405162461bcd60e51b815260206004820181815284516024840152845185939192839260440191908501908083836000831561341e578181015183820152602001613406565b828054828255906000526020600020908101928215613ae3579160200282015b82811115613ae357825182546001600160a01b0319166001600160a01b03909116178255602090920191600190910190613aae565b50613aef929150613af3565b5090565b5b80821115613aef5780546001600160a01b0319168155600101613af456fe45524332303a207472616e7366657220746f20746865207a65726f206164647265737345524332303a206275726e20616d6f756e7420657863656564732062616c616e636545524332303a20617070726f766520746f20746865207a65726f20616464726573735f5f76616c696461746549734d616e616765724f724f776e65723a20556e617574686f72697a656445524332303a207472616e7366657220616d6f756e7420657863656564732062616c616e6365656e74657252656465656d53746174653a204e6f6e2d7a65726f2076616c75652065787465726e616c20706f736974696f6e77697468647261773a204f6e6c79206465706f73697420746f6b656e20776974686472617761626c65656e7465724c6f636b656453746174653a204d696e20736861726573206e6f74206d6574536166654d6174683a206d756c7469706c69636174696f6e206f766572666c6f7745524332303a207472616e7366657220616d6f756e74206578636565647320616c6c6f77616e636577697468647261773a204475706c6963617465205f6164646974696f6e616c41737365747345524332303a206275726e2066726f6d20746865207a65726f206164647265737345524332303a207472616e736665722066726f6d20746865207a65726f206164647265737345524332303a20617070726f76652066726f6d20746865207a65726f20616464726573735361666545524332303a204552433230206f7065726174696f6e20646964206e6f7420737563636565645361666545524332303a20617070726f76652066726f6d206e6f6e2d7a65726f20746f206e6f6e2d7a65726f20616c6c6f77616e636545524332303a2064656372656173656420616c6c6f77616e63652062656c6f77207a65726fa164736f6c634300060c000a","linkReferences":{}},"methodIdentifiers":{"allowance(address,address)":"dd62ed3e","approve(address,uint256)":"095ea7b3","balanceOf(address)":"70a08231","decimals()":"313ce567","decreaseAllowance(address,uint256)":"a457c2d7","deposit(uint256)":"b6b55f25","enterLockedState()":"40806ae6","enterRedeemState(address[])":"851bda82","getAllowedDepositorListId()":"8c434471","getDepositToken()":"fb1b5c7b","getFeeBps()":"2c928098","getFeeExcludesDepositTokenPrincipal()":"907e3df3","getFeeRecipient()":"4ccb20c0","getManager()":"d5009584","getProtocolFeeStart()":"a161a512","getRedeemedAssets()":"ecb6abd6","getState()":"1865c57d","getTotalDepositMax()":"2207b386","getTransfersAllowed()":"6edac21b","getVaultProxy()":"c9809187","increaseAllowance(address,uint256)":"39509351","init(address,address,uint128,bool,uint128,address,uint16,bool,address)":"ae652af6","name()":"06fdde03","setAllowedDepositorListId(uint128)":"e9085cc7","setManager(address)":"d0ebdbe7","setTotalDepositMax(uint128)":"913cc04a","symbol()":"95d89b41","totalSupply()":"18160ddd","transfer(address,uint256)":"a9059cbb","transferFrom(address,address,uint256)":"23b872dd","withdraw(uint256,address[])":"99eca69f"},"id":310}