{"abi":[{"type":"constructor","inputs":[{"name":"_dispatcher","type":"address","internalType":"address"},{"name":"_addressListRegistry","type":"address","internalType":"address"},{"name":"_fundDeployerV4","type":"address","internalType":"address"},{"name":"_protocolFeeRecipient","type":"address","internalType":"address"},{"name":"_protocolFeeBps","type":"uint256","internalType":"uint256"},{"name":"_initializer","type":"address","internalType":"address"}],"stateMutability":"nonpayable"},{"type":"function","name":"allowance","inputs":[{"name":"owner","type":"address","internalType":"address"},{"name":"spender","type":"address","internalType":"address"}],"outputs":[{"name":"","type":"uint256","internalType":"uint256"}],"stateMutability":"view"},{"type":"function","name":"approve","inputs":[{"name":"spender","type":"address","internalType":"address"},{"name":"amount","type":"uint256","internalType":"uint256"}],"outputs":[{"name":"","type":"bool","internalType":"bool"}],"stateMutability":"nonpayable"},{"type":"function","name":"balanceOf","inputs":[{"name":"account","type":"address","internalType":"address"}],"outputs":[{"name":"","type":"uint256","internalType":"uint256"}],"stateMutability":"view"},{"type":"function","name":"decimals","inputs":[],"outputs":[{"name":"decimals_","type":"uint8","internalType":"uint8"}],"stateMutability":"view"},{"type":"function","name":"decreaseAllowance","inputs":[{"name":"spender","type":"address","internalType":"address"},{"name":"subtractedValue","type":"uint256","internalType":"uint256"}],"outputs":[{"name":"","type":"bool","internalType":"bool"}],"stateMutability":"nonpayable"},{"type":"function","name":"deposit","inputs":[{"name":"_amount","type":"uint256","internalType":"uint256"}],"outputs":[],"stateMutability":"nonpayable"},{"type":"function","name":"enterLockedState","inputs":[],"outputs":[],"stateMutability":"nonpayable"},{"type":"function","name":"enterRedeemState","inputs":[{"name":"_untrackedAssetsToClaim","type":"address[]","internalType":"address[]"}],"outputs":[],"stateMutability":"nonpayable"},{"type":"function","name":"getAllowedDepositorListId","inputs":[],"outputs":[{"name":"allowedDepositorListId_","type":"uint256","internalType":"uint256"}],"stateMutability":"view"},{"type":"function","name":"getDepositToken","inputs":[],"outputs":[{"name":"depositToken_","type":"address","internalType":"address"}],"stateMutability":"view"},{"type":"function","name":"getFeeBps","inputs":[],"outputs":[{"name":"feeBps_","type":"uint256","internalType":"uint256"}],"stateMutability":"view"},{"type":"function","name":"getFeeExcludesDepositTokenPrincipal","inputs":[],"outputs":[{"name":"excludesPrincipal_","type":"bool","internalType":"bool"}],"stateMutability":"view"},{"type":"function","name":"getFeeRecipient","inputs":[],"outputs":[{"name":"feeRecipient_","type":"address","internalType":"address"}],"stateMutability":"view"},{"type":"function","name":"getManager","inputs":[],"outputs":[{"name":"manager_","type":"address","internalType":"address"}],"stateMutability":"view"},{"type":"function","name":"getProtocolFeeStart","inputs":[],"outputs":[{"name":"protocolFeeStart_","type":"uint256","internalType":"uint256"}],"stateMutability":"view"},{"type":"function","name":"getRedeemedAssets","inputs":[],"outputs":[{"name":"redeemedAssets_","type":"address[]","internalType":"address[]"}],"stateMutability":"view"},{"type":"function","name":"getState","inputs":[],"outputs":[{"name":"state_","type":"uint8","internalType":"enum ArbitraryTokenPhasedSharesWrapperLib.State"}],"stateMutability":"view"},{"type":"function","name":"getTotalDepositMax","inputs":[],"outputs":[{"name":"totalDepositMax_","type":"uint256","internalType":"uint256"}],"stateMutability":"view"},{"type":"function","name":"getTransfersAllowed","inputs":[],"outputs":[{"name":"transfersAllowed_","type":"bool","internalType":"bool"}],"stateMutability":"view"},{"type":"function","name":"getVaultProxy","inputs":[],"outputs":[{"name":"vaultProxy_","type":"address","internalType":"address"}],"stateMutability":"view"},{"type":"function","name":"increaseAllowance","inputs":[{"name":"spender","type":"address","internalType":"address"},{"name":"addedValue","type":"uint256","internalType":"uint256"}],"outputs":[{"name":"","type":"bool","internalType":"bool"}],"stateMutability":"nonpayable"},{"type":"function","name":"init","inputs":[{"name":"_vaultProxy","type":"address","internalType":"address"},{"name":"_depositToken","type":"address","internalType":"address"},{"name":"_allowedDepositorListId","type":"uint128","internalType":"uint128"},{"name":"_transfersAllowed","type":"bool","internalType":"bool"},{"name":"_totalDepositMax","type":"uint128","internalType":"uint128"},{"name":"_feeRecipient","type":"address","internalType":"address"},{"name":"_feeBps","type":"uint16","internalType":"uint16"},{"name":"_feeExcludesDepositTokenPrincipal","type":"bool","internalType":"bool"},{"name":"_manager","type":"address","internalType":"address"}],"outputs":[],"stateMutability":"nonpayable"},{"type":"function","name":"name","inputs":[],"outputs":[{"name":"name_","type":"string","internalType":"string"}],"stateMutability":"view"},{"type":"function","name":"setAllowedDepositorListId","inputs":[{"name":"_nextAllowedDepositorListId","type":"uint128","internalType":"uint128"}],"outputs":[],"stateMutability":"nonpayable"},{"type":"function","name":"setManager","inputs":[{"name":"_nextManager","type":"address","internalType":"address"}],"outputs":[],"stateMutability":"nonpayable"},{"type":"function","name":"setTotalDepositMax","inputs":[{"name":"_nextTotalDepositMax","type":"uint128","internalType":"uint128"}],"outputs":[],"stateMutability":"nonpayable"},{"type":"function","name":"symbol","inputs":[],"outputs":[{"name":"symbol_","type":"string","internalType":"string"}],"stateMutability":"view"},{"type":"function","name":"totalSupply","inputs":[],"outputs":[{"name":"","type":"uint256","internalType":"uint256"}],"stateMutability":"view"},{"type":"function","name":"transfer","inputs":[{"name":"_recipient","type":"address","internalType":"address"},{"name":"_amount","type":"uint256","internalType":"uint256"}],"outputs":[{"name":"success_","type":"bool","internalType":"bool"}],"stateMutability":"nonpayable"},{"type":"function","name":"transferFrom","inputs":[{"name":"_sender","type":"address","internalType":"address"},{"name":"_recipient","type":"address","internalType":"address"},{"name":"_amount","type":"uint256","internalType":"uint256"}],"outputs":[{"name":"success_","type":"bool","internalType":"bool"}],"stateMutability":"nonpayable"},{"type":"function","name":"withdraw","inputs":[{"name":"_amount","type":"uint256","internalType":"uint256"},{"name":"_additionalAssets","type":"address[]","internalType":"address[]"}],"outputs":[{"name":"claimedAssets_","type":"address[]","internalType":"address[]"},{"name":"claimedAssetAmounts_","type":"uint256[]","internalType":"uint256[]"}],"stateMutability":"nonpayable"},{"type":"event","name":"AllowedDepositorListIdSet","inputs":[{"name":"listId","type":"uint256","indexed":false,"internalType":"uint256"}],"anonymous":false},{"type":"event","name":"Approval","inputs":[{"name":"owner","type":"address","indexed":true,"internalType":"address"},{"name":"spender","type":"address","indexed":true,"internalType":"address"},{"name":"value","type":"uint256","indexed":false,"internalType":"uint256"}],"anonymous":false},{"type":"event","name":"Deposited","inputs":[{"name":"user","type":"address","indexed":true,"internalType":"address"},{"name":"amount","type":"uint256","indexed":false,"internalType":"uint256"}],"anonymous":false},{"type":"event","name":"FeePaid","inputs":[{"name":"token","type":"address","indexed":false,"internalType":"address"},{"name":"amount","type":"uint256","indexed":false,"internalType":"uint256"}],"anonymous":false},{"type":"event","name":"Initialized","inputs":[{"name":"vaultProxy","type":"address","indexed":false,"internalType":"address"},{"name":"depositToken","type":"address","indexed":false,"internalType":"address"},{"name":"transfersAllowed","type":"bool","indexed":false,"internalType":"bool"},{"name":"feeRecipient","type":"address","indexed":false,"internalType":"address"},{"name":"feeBps","type":"uint16","indexed":false,"internalType":"uint16"},{"name":"feeExcludesDepositTokenPrincipal","type":"bool","indexed":false,"internalType":"bool"}],"anonymous":false},{"type":"event","name":"ManagerSet","inputs":[{"name":"manager","type":"address","indexed":false,"internalType":"address"}],"anonymous":false},{"type":"event","name":"ProtocolFeePaid","inputs":[{"name":"token","type":"address","indexed":false,"internalType":"address"},{"name":"amount","type":"uint256","indexed":false,"internalType":"uint256"}],"anonymous":false},{"type":"event","name":"ProtocolFeeStarted","inputs":[],"anonymous":false},{"type":"event","name":"StateSet","inputs":[{"name":"state","type":"uint8","indexed":false,"internalType":"enum ArbitraryTokenPhasedSharesWrapperLib.State"}],"anonymous":false},{"type":"event","name":"TotalDepositMaxSet","inputs":[{"name":"totalDepositMax","type":"uint256","indexed":false,"internalType":"uint256"}],"anonymous":false},{"type":"event","name":"Transfer","inputs":[{"name":"from","type":"address","indexed":true,"internalType":"address"},{"name":"to","type":"address","indexed":true,"internalType":"address"},{"name":"value","type":"uint256","indexed":false,"internalType":"uint256"}],"anonymous":false},{"type":"event","name":"Withdrawn","inputs":[{"name":"user","type":"address","indexed":true,"internalType":"address"},{"name":"amount","type":"uint256","indexed":false,"internalType":"uint256"},{"name":"claimedAssets","type":"address[]","indexed":false,"internalType":"address[]"},{"name":"claimedAssetAmounts","type":"uint256[]","indexed":false,"internalType":"uint256[]"}],"anonymous":false}],"bytecode":{"object":"0x6101606040523480156200001257600080fd5b5060405162005d6b38038062005d6b833981810160405260c08110156200003857600080fd5b810190808051906020019092919080519060200190929190805190602001909291908051906020019092919080519060200190929190805190602001909291905050506040518060400160405280601981526020017f5772617070656420456e7a796d6520536861726573204c6962000000000000008152506040518060400160405280600981526020017f77454e5a462d6c696200000000000000000000000000000000000000000000008152508160039080519060200190620000ff92919062000298565b5080600490805190602001906200011892919062000298565b506012600560006101000a81548160ff021916908360ff16021790555050508473ffffffffffffffffffffffffffffffffffffffff1660808173ffffffffffffffffffffffffffffffffffffffff1660601b815250508573ffffffffffffffffffffffffffffffffffffffff1660a08173ffffffffffffffffffffffffffffffffffffffff1660601b815250508373ffffffffffffffffffffffffffffffffffffffff1660c08173ffffffffffffffffffffffffffffffffffffffff1660601b815250508073ffffffffffffffffffffffffffffffffffffffff1660e08173ffffffffffffffffffffffffffffffffffffffff1660601b815250508161010081815250508273ffffffffffffffffffffffffffffffffffffffff166101208173ffffffffffffffffffffffffffffffffffffffff1660601b815250503073ffffffffffffffffffffffffffffffffffffffff166101408173ffffffffffffffffffffffffffffffffffffffff1660601b815250505050505050506200033e565b828054600181600116156101000203166002900490600052602060002090601f016020900481019282601f10620002db57805160ff19168380011785556200030c565b828001600101855582156200030c579182015b828111156200030b578251825591602001919060010190620002ee565b5b5090506200031b91906200031f565b5090565b5b808211156200033a57600081600090555060010162000320565b5090565b60805160601c60a05160601c60c05160601c60e05160601c610100516101205160601c6101405160601c6159c2620003a960003980610bbf5280611f215250806140b6525080613f9a5250806128fe5250806129bf5250806129f6525080612ef952506159c26000f3fe608060405234801561001057600080fd5b50600436106101e55760003560e01c8063907e3df31161010f578063b6b55f25116100a2578063dd62ed3e11610071578063dd62ed3e14610a70578063e9085cc714610ae8578063ecb6abd614610b28578063fb1b5c7b14610b87576101e5565b8063b6b55f2514610996578063c9809187146109c4578063d0ebdbe7146109f8578063d500958414610a3c576101e5565b8063a161a512116100de578063a161a512146107ad578063a457c2d7146107cb578063a9059cbb1461082f578063ae652af614610893576101e5565b8063907e3df3146105aa578063913cc04a146105ca57806395d89b411461060a57806399eca69f1461068d576101e5565b8063313ce567116101875780636edac21b116101565780636edac21b1461049b57806370a08231146104bb578063851bda82146105135780638c4344711461058c576101e5565b8063313ce567146103d857806339509351146103f957806340806ae61461045d5780634ccb20c014610467576101e5565b80631865c57d116101c35780631865c57d146102ef5780632207b3861461031857806323b872dd146103365780632c928098146103ba576101e5565b806306fdde03146101ea578063095ea7b31461026d57806318160ddd146102d1575b600080fd5b6101f2610bbb565b6040518080602001828103825283818151815260200191508051906020019080838360005b83811015610232578082015181840152602081019050610217565b50505050905090810190601f16801561025f5780820380516001836020036101000a031916815260200191505b509250505060405180910390f35b6102b96004803603604081101561028357600080fd5b81019080803573ffffffffffffffffffffffffffffffffffffffff16906020019092919080359060200190929190505050610dfe565b60405180821515815260200191505060405180910390f35b6102d9610e1c565b6040518082815260200191505060405180910390f35b6102f7610e26565b6040518082600281111561030757fe5b815260200191505060405180910390f35b610320610e3d565b6040518082815260200191505060405180910390f35b6103a26004803603606081101561034c57600080fd5b81019080803573ffffffffffffffffffffffffffffffffffffffff169060200190929190803573ffffffffffffffffffffffffffffffffffffffff16906020019092919080359060200190929190505050610e75565b60405180821515815260200191505060405180910390f35b6103c2610f05565b6040518082815260200191505060405180910390f35b6103e0610f21565b604051808260ff16815260200191505060405180910390f35b6104456004803603604081101561040f57600080fd5b81019080803573ffffffffffffffffffffffffffffffffffffffff16906020019092919080359060200190929190505050610f2a565b60405180821515815260200191505060405180910390f35b610465610fdd565b005b61046f6114f5565b604051808273ffffffffffffffffffffffffffffffffffffffff16815260200191505060405180910390f35b6104a361151f565b60405180821515815260200191505060405180910390f35b6104fd600480360360208110156104d157600080fd5b81019080803573ffffffffffffffffffffffffffffffffffffffff169060200190929190505050611536565b6040518082815260200191505060405180910390f35b61058a6004803603602081101561052957600080fd5b810190808035906020019064010000000081111561054657600080fd5b82018360208201111561055857600080fd5b8035906020019184602083028401116401000000008311171561057a57600080fd5b909192939192939050505061157e565b005b610594611e12565b6040518082815260200191505060405180910390f35b6105b2611e4a565b60405180821515815260200191505060405180910390f35b610608600480360360208110156105e057600080fd5b8101908080356fffffffffffffffffffffffffffffffff169060200190929190505050611e61565b005b610612611f1d565b6040518080602001828103825283818151815260200191508051906020019080838360005b83811015610652578082015181840152602081019050610637565b50505050905090810190601f16801561067f5780820380516001836020036101000a031916815260200191505b509250505060405180910390f35b61070e600480360360408110156106a357600080fd5b8101908080359060200190929190803590602001906401000000008111156106ca57600080fd5b8201836020820111156106dc57600080fd5b803590602001918460208302840111640100000000831117156106fe57600080fd5b9091929391929390505050612160565b604051808060200180602001838103835285818151815260200191508051906020019060200280838360005b8381101561075557808201518184015260208101905061073a565b50505050905001838103825284818151815260200191508051906020019060200280838360005b8381101561079757808201518184015260208101905061077c565b5050505090500194505050505060405180910390f35b6107b5612781565b6040518082815260200191505060405180910390f35b610817600480360360408110156107e157600080fd5b81019080803573ffffffffffffffffffffffffffffffffffffffff169060200190929190803590602001909291905050506127a1565b60405180821515815260200191505060405180910390f35b61087b6004803603604081101561084557600080fd5b81019080803573ffffffffffffffffffffffffffffffffffffffff1690602001909291908035906020019092919050505061286e565b60405180821515815260200191505060405180910390f35b61099460048036036101208110156108aa57600080fd5b81019080803573ffffffffffffffffffffffffffffffffffffffff169060200190929190803573ffffffffffffffffffffffffffffffffffffffff16906020019092919080356fffffffffffffffffffffffffffffffff16906020019092919080351515906020019092919080356fffffffffffffffffffffffffffffffff169060200190929190803573ffffffffffffffffffffffffffffffffffffffff169060200190929190803561ffff169060200190929190803515159060200190929190803573ffffffffffffffffffffffffffffffffffffffff1690602001909291905050506128fc565b005b6109c2600480360360208110156109ac57600080fd5b8101908080359060200190929190505050612e4f565b005b6109cc613268565b604051808273ffffffffffffffffffffffffffffffffffffffff16815260200191505060405180910390f35b610a3a60048036036020811015610a0e57600080fd5b81019080803573ffffffffffffffffffffffffffffffffffffffff169060200190929190505050613292565b005b610a4461334e565b604051808273ffffffffffffffffffffffffffffffffffffffff16815260200191505060405180910390f35b610ad260048036036040811015610a8657600080fd5b81019080803573ffffffffffffffffffffffffffffffffffffffff169060200190929190803573ffffffffffffffffffffffffffffffffffffffff169060200190929190505050613378565b6040518082815260200191505060405180910390f35b610b2660048036036020811015610afe57600080fd5b8101908080356fffffffffffffffffffffffffffffffff1690602001909291905050506133ff565b005b610b306134bb565b6040518080602001828103825283818151815260200191508051906020019060200280838360005b83811015610b73578082015181840152602081019050610b58565b505050509050019250505060405180910390f35b610b8f613549565b604051808273ffffffffffffffffffffffffffffffffffffffff16815260200191505060405180910390f35b60607f000000000000000000000000000000000000000000000000000000000000000073ffffffffffffffffffffffffffffffffffffffff163073ffffffffffffffffffffffffffffffffffffffff161415610c2057610c19613573565b9050610dfb565b610c28613268565b73ffffffffffffffffffffffffffffffffffffffff166306fdde036040518163ffffffff1660e01b815260040160006040518083038186803b158015610c6d57600080fd5b505afa158015610c81573d6000803e3d6000fd5b505050506040513d6000823e3d601f19601f820116820180604052506020811015610cab57600080fd5b8101908080516040519392919084640100000000821115610ccb57600080fd5b83820191506020820185811115610ce157600080fd5b8251866001820283011164010000000082111715610cfe57600080fd5b8083526020830192505050908051906020019080838360005b83811015610d32578082015181840152602081019050610d17565b50505050905090810190601f168015610d5f5780820380516001836020036101000a031916815260200191505b5060405250505060405160200180807f577261707065642000000000000000000000000000000000000000000000000081525060080182805190602001908083835b60208310610dc45780518252602082019150602081019050602083039250610da1565b6001836020036101000a03801982511681845116808217855250505050505090500191505060405160208183030381529060405290505b90565b6000610e12610e0b613615565b848461361d565b6001905092915050565b6000600254905090565b6000600760149054906101000a900460ff16905090565b6000600860109054906101000a90046fffffffffffffffffffffffffffffffff166fffffffffffffffffffffffffffffffff16905090565b6000610e7f61151f565b610ef1576040517f08c379a00000000000000000000000000000000000000000000000000000000081526004018080602001828103825260208152602001807f6f6e6c795472616e7366657273416c6c6f7765643a20446973616c6c6f77656481525060200191505060405180910390fd5b610efc848484613814565b90509392505050565b6000600960189054906101000a900461ffff1661ffff16905090565b60006012905090565b6000610fd3610f37613615565b84610fce8560016000610f48613615565b73ffffffffffffffffffffffffffffffffffffffff1673ffffffffffffffffffffffffffffffffffffffff16815260200190815260200160002060008973ffffffffffffffffffffffffffffffffffffffff1673ffffffffffffffffffffffffffffffffffffffff168152602001908152602001600020546138ed90919063ffffffff16565b61361d565b6001905092915050565b6000610fe7613268565b9050610ff33382613975565b6000600281111561100057fe5b611008610e26565b600281111561101357fe5b14611086576040517f08c379a000000000000000000000000000000000000000000000000000000000815260040180806020018281038252601f8152602001807f656e7465724c6f636b656453746174653a20496e76616c69642073746174650081525060200191505060405180910390fd5b60008173ffffffffffffffffffffffffffffffffffffffff16635a53e3486040518163ffffffff1660e01b815260040160206040518083038186803b1580156110ce57600080fd5b505afa1580156110e2573d6000803e3d6000fd5b505050506040513d60208110156110f857600080fd5b8101908080519060200190929190505050905060008173ffffffffffffffffffffffffffffffffffffffff1663e269c3d66040518163ffffffff1660e01b815260040160206040518083038186803b15801561115357600080fd5b505afa158015611167573d6000803e3d6000fd5b505050506040513d602081101561117d57600080fd5b8101908080519060200190929190505050905060008173ffffffffffffffffffffffffffffffffffffffff166370a08231306040518263ffffffff1660e01b8152600401808273ffffffffffffffffffffffffffffffffffffffff16815260200191505060206040518083038186803b1580156111f957600080fd5b505afa15801561120d573d6000803e3d6000fd5b505050506040513d602081101561122357600080fd5b8101908080519060200190929190505050905061126183828473ffffffffffffffffffffffffffffffffffffffff16613a429092919063ffffffff16565b60008373ffffffffffffffffffffffffffffffffffffffff1663beebc5da8360016040518363ffffffff1660e01b81526004018083815260200182815260200192505050602060405180830381600087803b1580156112bf57600080fd5b505af11580156112d3573d6000803e3d6000fd5b505050506040513d60208110156112e957600080fd5b810190808051906020019092919050505090506000611391828773ffffffffffffffffffffffffffffffffffffffff166318160ddd6040518163ffffffff1660e01b815260040160206040518083038186803b15801561134857600080fd5b505afa15801561135c573d6000803e3d6000fd5b505050506040513d602081101561137257600080fd5b8101908080519060200190929190505050613c0790919063ffffffff16565b905060008114806113b557506113b261271082613c8a90919063ffffffff16565b82115b61140a576040517f08c379a00000000000000000000000000000000000000000000000000000000081526004018080602001828103825260248152602001806158356024913960400191505060405180910390fd5b6114146001613d10565b600061141e613549565b90506114ec878273ffffffffffffffffffffffffffffffffffffffff166370a08231306040518263ffffffff1660e01b8152600401808273ffffffffffffffffffffffffffffffffffffffff16815260200191505060206040518083038186803b15801561148b57600080fd5b505afa15801561149f573d6000803e3d6000fd5b505050506040513d60208110156114b557600080fd5b81019080805190602001909291905050508373ffffffffffffffffffffffffffffffffffffffff16613d789092919063ffffffff16565b50505050505050565b6000600960009054906101000a900473ffffffffffffffffffffffffffffffffffffffff16905090565b60006009601c9054906101000a900460ff16905090565b60008060008373ffffffffffffffffffffffffffffffffffffffff1673ffffffffffffffffffffffffffffffffffffffff168152602001908152602001600020549050919050565b6000611588613268565b90506115943382613975565b600160028111156115a157fe5b6115a9610e26565b60028111156115b457fe5b14611627576040517f08c379a000000000000000000000000000000000000000000000000000000000815260040180806020018281038252601f8152602001807f656e74657252656465656d53746174653a20496e76616c69642073746174650081525060200191505060405180910390fd5b60608173ffffffffffffffffffffffffffffffffffffffff1663b8b7f1476040518163ffffffff1660e01b815260040160006040518083038186803b15801561166f57600080fd5b505afa158015611683573d6000803e3d6000fd5b505050506040513d6000823e3d601f19601f8201168201806040525060208110156116ad57600080fd5b81019080805160405193929190846401000000008211156116cd57600080fd5b838201915060208201858111156116e357600080fd5b825186602082028301116401000000008211171561170057600080fd5b8083526020830192505050908051906020019060200280838360005b8381101561173757808201518184015260208101905061171c565b50505050905001604052505050905060005b81518110156119ae57606082828151811061176057fe5b602002602001015173ffffffffffffffffffffffffffffffffffffffff166380daddb86040518163ffffffff1660e01b8152600401600060405180830381600087803b1580156117af57600080fd5b505af11580156117c3573d6000803e3d6000fd5b505050506040513d6000823e3d601f19601f8201168201806040525060408110156117ed57600080fd5b810190808051604051939291908464010000000082111561180d57600080fd5b8382019150602082018581111561182357600080fd5b825186602082028301116401000000008211171561184057600080fd5b8083526020830192505050908051906020019060200280838360005b8381101561187757808201518184015260208101905061185c565b50505050905001604052602001805160405193929190846401000000008211156118a057600080fd5b838201915060208201858111156118b657600080fd5b82518660208202830111640100000000821117156118d357600080fd5b8083526020830192505050908051906020019060200280838360005b8381101561190a5780820151818401526020810190506118ef565b5050505090500160405250505091505060005b815181101561199f57600082828151811061193457fe5b602002602001015114611992576040517f08c379a00000000000000000000000000000000000000000000000000000000081526004018080602001828103825260328152602001806157da6032913960400191505060405180910390fd5b808060010191505061191d565b50508080600101915050611749565b5060006119b9613268565b73ffffffffffffffffffffffffffffffffffffffff16635a53e3486040518163ffffffff1660e01b815260040160206040518083038186803b1580156119fe57600080fd5b505afa158015611a12573d6000803e3d6000fd5b505050506040513d6020811015611a2857600080fd5b810190808051906020019092919050505090506060611a98611a48613549565b878780806020026020016040519081016040528093929190818152602001838360200280828437600081840152601f19601f82011690508083019250505050505050613e1a90919063ffffffff16565b90506060808373ffffffffffffffffffffffffffffffffffffffff16636af8e7eb307fffffffffffffffffffffffffffffffffffffffffffffffffffffffffffffffff86600067ffffffffffffffff81118015611af457600080fd5b50604051908082528060200260200182016040528015611b235781602001602082028036833780820191505090505b506040518563ffffffff1660e01b8152600401808573ffffffffffffffffffffffffffffffffffffffff1681526020018481526020018060200180602001838103835285818151815260200191508051906020019060200280838360005b83811015611b9c578082015181840152602081019050611b81565b50505050905001838103825284818151815260200191508051906020019060200280838360005b83811015611bde578082015181840152602081019050611bc3565b505050509050019650505050505050600060405180830381600087803b158015611c0757600080fd5b505af1158015611c1b573d6000803e3d6000fd5b505050506040513d6000823e3d601f19601f820116820180604052506040811015611c4557600080fd5b8101908080516040519392919084640100000000821115611c6557600080fd5b83820191506020820185811115611c7b57600080fd5b8251866020820283011164010000000082111715611c9857600080fd5b8083526020830192505050908051906020019060200280838360005b83811015611ccf578082015181840152602081019050611cb4565b5050505090500160405260200180516040519392919084640100000000821115611cf857600080fd5b83820191506020820185811115611d0e57600080fd5b8251866020820283011164010000000082111715611d2b57600080fd5b8083526020830192505050908051906020019060200280838360005b83811015611d62578082015181840152602081019050611d47565b5050505090500160405250505091509150606060005b8351811015611dd3576000838281518110611d8f57fe5b60200260200101511115611dc657611dc3848281518110611dac57fe5b602002602001015183613e4690919063ffffffff16565b91505b8080600101915050611d78565b5080600a9080519060200190611dea929190615639565b50611df481613f57565b611dfd8161418b565b611e076002613d10565b505050505050505050565b6000600860009054906101000a90046fffffffffffffffffffffffffffffffff166fffffffffffffffffffffffffffffffff16905090565b60006009601a9054906101000a900460ff16905090565b611e71611e6c613268565b614451565b73ffffffffffffffffffffffffffffffffffffffff163373ffffffffffffffffffffffffffffffffffffffff1614611f11576040517f08c379a00000000000000000000000000000000000000000000000000000000081526004018080602001828103825260178152602001807f6f6e6c794f776e65723a20556e617574686f72697a656400000000000000000081525060200191505060405180910390fd5b611f1a816144db565b50565b60607f000000000000000000000000000000000000000000000000000000000000000073ffffffffffffffffffffffffffffffffffffffff163073ffffffffffffffffffffffffffffffffffffffff161415611f8257611f7b614560565b905061215d565b611f8a613268565b73ffffffffffffffffffffffffffffffffffffffff166395d89b416040518163ffffffff1660e01b815260040160006040518083038186803b158015611fcf57600080fd5b505afa158015611fe3573d6000803e3d6000fd5b505050506040513d6000823e3d601f19601f82011682018060405250602081101561200d57600080fd5b810190808051604051939291908464010000000082111561202d57600080fd5b8382019150602082018581111561204357600080fd5b825186600182028301116401000000008211171561206057600080fd5b8083526020830192505050908051906020019080838360005b83811015612094578082015181840152602081019050612079565b50505050905090810190601f1680156120c15780820380516001836020036101000a031916815260200191505b5060405250505060405160200180807f770000000000000000000000000000000000000000000000000000000000000081525060010182805190602001908083835b602083106121265780518252602082019150602081019050602083039250612103565b6001836020036101000a03801982511681845116808217855250505050505090500191505060405160208183030381529060405290505b90565b6060806009601b9054906101000a900460ff16156121e6576040517f08c379a00000000000000000000000000000000000000000000000000000000081526004018080602001828103825260188152602001807f6e6f6e5265656e7472616e743a205265656e7472616e6379000000000000000081525060200191505060405180910390fd5b60016009601b6101000a81548160ff021916908315150217905550600061220b610e26565b90506001600281111561221a57fe5b81600281111561222657fe5b141561229a576040517f08c379a00000000000000000000000000000000000000000000000000000000081526004018080602001828103825260198152602001807f77697468647261773a20556e616c6c6f7765642053746174650000000000000081525060200191505060405180910390fd5b600060028111156122a757fe5b8160028111156122b357fe5b14156123b35760008585905014612315576040517f08c379a000000000000000000000000000000000000000000000000000000000815260040180806020018281038252602981526020018061580c6029913960400191505060405180910390fd5b600167ffffffffffffffff8111801561232d57600080fd5b5060405190808252806020026020018201604052801561235c5781602001602082028036833780820191505090505b509250612367613549565b8360008151811061237457fe5b602002602001019073ffffffffffffffffffffffffffffffffffffffff16908173ffffffffffffffffffffffffffffffffffffffff16815250506124b0565b6123fd858580806020026020016040519081016040528093929190818152602001838360200280828437600081840152601f19601f82011690508083019250505050505050614602565b612452576040517f08c379a00000000000000000000000000000000000000000000000000000000081526004018080602001828103825260258152602001806158a26025913960400191505060405180910390fd5b6124ad858580806020026020016040519081016040528093929190818152602001838360200280828437600081840152601f19601f8201169050808301925050505050505061249f6134bb565b6146c590919063ffffffff16565b92505b60006124ba610e1c565b90506124c6338861488b565b835167ffffffffffffffff811180156124de57600080fd5b5060405190808252806020026020018201604052801561250d5781602001602082028036833780820191505090505b50925060005b845181101561267b57600085828151811061252a57fe5b602002602001015190506125fa836125ec8b8473ffffffffffffffffffffffffffffffffffffffff166370a08231306040518263ffffffff1660e01b8152600401808273ffffffffffffffffffffffffffffffffffffffff16815260200191505060206040518083038186803b1580156125a357600080fd5b505afa1580156125b7573d6000803e3d6000fd5b505050506040513d60208110156125cd57600080fd5b8101908080519060200190929190505050613c8a90919063ffffffff16565b614a4f90919063ffffffff16565b85838151811061260657fe5b602002602001018181525050600085838151811061262057fe5b6020026020010151111561266d5761266c3386848151811061263e57fe5b60200260200101518373ffffffffffffffffffffffffffffffffffffffff16613d789092919063ffffffff16565b5b508080600101915050612513565b503373ffffffffffffffffffffffffffffffffffffffff167f3e4e319c3be0696253cf2e6260a96ddf9a8fa8cfc0e7186500bbcfcef899194d888686604051808481526020018060200180602001838103835285818151815260200191508051906020019060200280838360005b838110156127045780820151818401526020810190506126e9565b50505050905001838103825284818151815260200191508051906020019060200280838360005b8381101561274657808201518184015260208101905061272b565b505050509050019550505050505060405180910390a2505060006009601b6101000a81548160ff021916908315150217905550935093915050565b6000600960149054906101000a900463ffffffff1663ffffffff16905090565b60006128646127ae613615565b8461285f8560405180606001604052806025815260200161599160259139600160006127d8613615565b73ffffffffffffffffffffffffffffffffffffffff1673ffffffffffffffffffffffffffffffffffffffff16815260200190815260200160002060008a73ffffffffffffffffffffffffffffffffffffffff1673ffffffffffffffffffffffffffffffffffffffff16815260200190815260200160002054614ad89092919063ffffffff16565b61361d565b6001905092915050565b600061287861151f565b6128ea576040517f08c379a00000000000000000000000000000000000000000000000000000000081526004018080602001828103825260208152602001807f6f6e6c795472616e7366657273416c6c6f7765643a20446973616c6c6f77656481525060200191505060405180910390fd5b6128f48383614b92565b905092915050565b7f000000000000000000000000000000000000000000000000000000000000000073ffffffffffffffffffffffffffffffffffffffff163373ffffffffffffffffffffffffffffffffffffffff16146129bd576040517f08c379a00000000000000000000000000000000000000000000000000000000081526004018080602001828103825260128152602001807f696e69743a20556e617574686f72697a6564000000000000000000000000000081525060200191505060405180910390fd5b7f000000000000000000000000000000000000000000000000000000000000000073ffffffffffffffffffffffffffffffffffffffff167f000000000000000000000000000000000000000000000000000000000000000073ffffffffffffffffffffffffffffffffffffffff16633d7c74f88b6040518263ffffffff1660e01b8152600401808273ffffffffffffffffffffffffffffffffffffffff16815260200191505060206040518083038186803b158015612a7b57600080fd5b505afa158015612a8f573d6000803e3d6000fd5b505050506040513d6020811015612aa557600080fd5b810190808051906020019092919050505073ffffffffffffffffffffffffffffffffffffffff1614612b3f576040517f08c379a00000000000000000000000000000000000000000000000000000000081526004018080602001828103825260178152602001807f696e69743a20426164207661756c742076657273696f6e00000000000000000081525060200191505060405180910390fd5b87600760006101000a81548173ffffffffffffffffffffffffffffffffffffffff021916908373ffffffffffffffffffffffffffffffffffffffff16021790555088600660006101000a81548173ffffffffffffffffffffffffffffffffffffffff021916908373ffffffffffffffffffffffffffffffffffffffff1602179055506000876fffffffffffffffffffffffffffffffff161115612be657612be587614bb0565b5b600073ffffffffffffffffffffffffffffffffffffffff168173ffffffffffffffffffffffffffffffffffffffff1614612c2457612c2381614c35565b5b6000856fffffffffffffffffffffffffffffffff161115612c4957612c48856144db565b5b8515612c6b5760016009601c6101000a81548160ff0219169083151502179055505b600073ffffffffffffffffffffffffffffffffffffffff168473ffffffffffffffffffffffffffffffffffffffff1614612d9b576127108361ffff1610612d1a576040517f08c379a00000000000000000000000000000000000000000000000000000000081526004018080602001828103825260168152602001807f696e69743a204d6178206665652065786365656465640000000000000000000081525060200191505060405180910390fd5b82600960186101000a81548161ffff021916908361ffff16021790555083600960006101000a81548173ffffffffffffffffffffffffffffffffffffffff021916908373ffffffffffffffffffffffffffffffffffffffff1602179055508115612d9a5760016009601a6101000a81548160ff0219169083151502179055505b5b7fbd8aba18aec1b83d675f3b473e0bfb62d8e3a73b7c786d663bee96d559b45035898988878787604051808773ffffffffffffffffffffffffffffffffffffffff1681526020018673ffffffffffffffffffffffffffffffffffffffff16815260200185151581526020018473ffffffffffffffffffffffffffffffffffffffff1681526020018361ffff1681526020018215158152602001965050505050505060405180910390a1505050505050505050565b60006002811115612e5c57fe5b612e64610e26565b6002811115612e6f57fe5b14612ee2576040517f08c379a00000000000000000000000000000000000000000000000000000000081526004018080602001828103825260188152602001807f6465706f7369743a20556e616c6c6f776564205374617465000000000000000081525060200191505060405180910390fd5b6000612eec611e12565b90506000811115613034577f000000000000000000000000000000000000000000000000000000000000000073ffffffffffffffffffffffffffffffffffffffff16631c56320482336040518363ffffffff1660e01b8152600401808381526020018273ffffffffffffffffffffffffffffffffffffffff1681526020019250505060206040518083038186803b158015612f8657600080fd5b505afa158015612f9a573d6000803e3d6000fd5b505050506040513d6020811015612fb057600080fd5b8101908080519060200190929190505050613033576040517f08c379a00000000000000000000000000000000000000000000000000000000081526004018080602001828103825260198152602001807f6465706f7369743a20556e616c6c6f7765642063616c6c65720000000000000081525060200191505060405180910390fd5b5b600061303e613549565b9050600061304a610e3d565b9050600081111561317f578061310a858473ffffffffffffffffffffffffffffffffffffffff166370a08231306040518263ffffffff1660e01b8152600401808273ffffffffffffffffffffffffffffffffffffffff16815260200191505060206040518083038186803b1580156130c157600080fd5b505afa1580156130d5573d6000803e3d6000fd5b505050506040513d60208110156130eb57600080fd5b81019080805190602001909291905050506138ed90919063ffffffff16565b111561317e576040517f08c379a00000000000000000000000000000000000000000000000000000000081526004018080602001828103825260158152602001807f6465706f7369743a204d6178206578636565646564000000000000000000000081525060200191505060405180910390fd5b5b6000613189610e1c565b14156131dd5742600960146101000a81548163ffffffff021916908363ffffffff1602179055507f5798aa338c5b99bf36b74070080d9d2efadbd4a0c383148e08e3daa7219ab00c60405160405180910390a15b6131e73385614cc6565b6132143330868573ffffffffffffffffffffffffffffffffffffffff16614e8d909392919063ffffffff16565b3373ffffffffffffffffffffffffffffffffffffffff167f2da466a7b24304f47e87fa2e1e5a81b9831ce54fec19055ce277ca2f39ba42c4856040518082815260200191505060405180910390a250505050565b6000600660009054906101000a900473ffffffffffffffffffffffffffffffffffffffff16905090565b6132a261329d613268565b614451565b73ffffffffffffffffffffffffffffffffffffffff163373ffffffffffffffffffffffffffffffffffffffff1614613342576040517f08c379a00000000000000000000000000000000000000000000000000000000081526004018080602001828103825260178152602001807f6f6e6c794f776e65723a20556e617574686f72697a656400000000000000000081525060200191505060405180910390fd5b61334b81614c35565b50565b6000600560019054906101000a900473ffffffffffffffffffffffffffffffffffffffff16905090565b6000600160008473ffffffffffffffffffffffffffffffffffffffff1673ffffffffffffffffffffffffffffffffffffffff16815260200190815260200160002060008373ffffffffffffffffffffffffffffffffffffffff1673ffffffffffffffffffffffffffffffffffffffff16815260200190815260200160002054905092915050565b61340f61340a613268565b614451565b73ffffffffffffffffffffffffffffffffffffffff163373ffffffffffffffffffffffffffffffffffffffff16146134af576040517f08c379a00000000000000000000000000000000000000000000000000000000081526004018080602001828103825260178152602001807f6f6e6c794f776e65723a20556e617574686f72697a656400000000000000000081525060200191505060405180910390fd5b6134b881614bb0565b50565b6060600a80548060200260200160405190810160405280929190818152602001828054801561353f57602002820191906000526020600020905b8160009054906101000a900473ffffffffffffffffffffffffffffffffffffffff1673ffffffffffffffffffffffffffffffffffffffff16815260200190600101908083116134f5575b5050505050905090565b6000600760009054906101000a900473ffffffffffffffffffffffffffffffffffffffff16905090565b606060038054600181600116156101000203166002900480601f01602080910402602001604051908101604052809291908181526020018280546001816001161561010002031660029004801561360b5780601f106135e05761010080835404028352916020019161360b565b820191906000526020600020905b8154815290600101906020018083116135ee57829003601f168201915b5050505050905090565b600033905090565b600073ffffffffffffffffffffffffffffffffffffffff168373ffffffffffffffffffffffffffffffffffffffff1614156136a3576040517f08c379a000000000000000000000000000000000000000000000000000000000815260040180806020018281038252602481526020018061590d6024913960400191505060405180910390fd5b600073ffffffffffffffffffffffffffffffffffffffff168273ffffffffffffffffffffffffffffffffffffffff161415613729576040517f08c379a00000000000000000000000000000000000000000000000000000000081526004018080602001828103825260228152602001806157446022913960400191505060405180910390fd5b80600160008573ffffffffffffffffffffffffffffffffffffffff1673ffffffffffffffffffffffffffffffffffffffff16815260200190815260200160002060008473ffffffffffffffffffffffffffffffffffffffff1673ffffffffffffffffffffffffffffffffffffffff168152602001908152602001600020819055508173ffffffffffffffffffffffffffffffffffffffff168373ffffffffffffffffffffffffffffffffffffffff167f8c5be1e5ebec7d5bd14f71427d1e84f3dd0314c0f7b2291e5b200ac8c7c3b925836040518082815260200191505060405180910390a3505050565b6000613821848484614f4e565b6138e28461382d613615565b6138dd8560405180606001604052806028815260200161587a60289139600160008b73ffffffffffffffffffffffffffffffffffffffff1673ffffffffffffffffffffffffffffffffffffffff1681526020019081526020016000206000613893613615565b73ffffffffffffffffffffffffffffffffffffffff1673ffffffffffffffffffffffffffffffffffffffff16815260200190815260200160002054614ad89092919063ffffffff16565b61361d565b600190509392505050565b60008082840190508381101561396b576040517f08c379a000000000000000000000000000000000000000000000000000000000815260040180806020018281038252601b8152602001807f536166654d6174683a206164646974696f6e206f766572666c6f77000000000081525060200191505060405180910390fd5b8091505092915050565b61397d61334e565b73ffffffffffffffffffffffffffffffffffffffff168273ffffffffffffffffffffffffffffffffffffffff1614806139e957506139ba81614451565b73ffffffffffffffffffffffffffffffffffffffff168273ffffffffffffffffffffffffffffffffffffffff16145b613a3e576040517f08c379a00000000000000000000000000000000000000000000000000000000081526004018080602001828103825260288152602001806157666028913960400191505060405180910390fd5b5050565b6000811480613b10575060008373ffffffffffffffffffffffffffffffffffffffff1663dd62ed3e30856040518363ffffffff1660e01b8152600401808373ffffffffffffffffffffffffffffffffffffffff1681526020018273ffffffffffffffffffffffffffffffffffffffff1681526020019250505060206040518083038186803b158015613ad357600080fd5b505afa158015613ae7573d6000803e3d6000fd5b505050506040513d6020811015613afd57600080fd5b8101908080519060200190929190505050145b613b65576040517f08c379a000000000000000000000000000000000000000000000000000000000815260040180806020018281038252603681526020018061595b6036913960400191505060405180910390fd5b613c028363095ea7b360e01b8484604051602401808373ffffffffffffffffffffffffffffffffffffffff16815260200182815260200192505050604051602081830303815290604052907bffffffffffffffffffffffffffffffffffffffffffffffffffffffff19166020820180517bffffffffffffffffffffffffffffffffffffffffffffffffffffffff838183161783525050505061520f565b505050565b600082821115613c7f576040517f08c379a000000000000000000000000000000000000000000000000000000000815260040180806020018281038252601e8152602001807f536166654d6174683a207375627472616374696f6e206f766572666c6f77000081525060200191505060405180910390fd5b818303905092915050565b600080831415613c9d5760009050613d0a565b6000828402905082848281613cae57fe5b0414613d05576040517f08c379a00000000000000000000000000000000000000000000000000000000081526004018080602001828103825260218152602001806158596021913960400191505060405180910390fd5b809150505b92915050565b80600760146101000a81548160ff02191690836002811115613d2e57fe5b02179055507fc635bb75c392e81c891d50372a48cfa81b6799ac6d594cb4c28a8c5e8bef6e9b8160405180826002811115613d6557fe5b815260200191505060405180910390a150565b613e158363a9059cbb60e01b8484604051602401808373ffffffffffffffffffffffffffffffffffffffff16815260200182815260200192505050604051602081830303815290604052907bffffffffffffffffffffffffffffffffffffffffffffffffffffffff19166020820180517bffffffffffffffffffffffffffffffffffffffffffffffffffffffff838183161783525050505061520f565b505050565b6060613e2683836152fe565b15613e3357829050613e40565b613e3d8383613e46565b90505b92915050565b6060600183510167ffffffffffffffff81118015613e6357600080fd5b50604051908082528060200260200182016040528015613e925781602001602082028036833780820191505090505b50905060005b8351811015613f0857838181518110613ead57fe5b6020026020010151828281518110613ec157fe5b602002602001019073ffffffffffffffffffffffffffffffffffffffff16908173ffffffffffffffffffffffffffffffffffffffff16815250508080600101915050613e98565b508181845181518110613f1757fe5b602002602001019073ffffffffffffffffffffffffffffffffffffffff16908173ffffffffffffffffffffffffffffffffffffffff168152505092915050565b6000613f73613f64612781565b42613c0790919063ffffffff16565b905060005b82518110156141865760006140a66301e187e061409861271061408a8761407c7f00000000000000000000000000000000000000000000000000000000000000008b8a81518110613fc557fe5b602002602001015173ffffffffffffffffffffffffffffffffffffffff166370a08231306040518263ffffffff1660e01b8152600401808273ffffffffffffffffffffffffffffffffffffffff16815260200191505060206040518083038186803b15801561403357600080fd5b505afa158015614047573d6000803e3d6000fd5b505050506040513d602081101561405d57600080fd5b8101908080519060200190929190505050613c8a90919063ffffffff16565b613c8a90919063ffffffff16565b614a4f90919063ffffffff16565b614a4f90919063ffffffff16565b905060008111156141785761410f7f0000000000000000000000000000000000000000000000000000000000000000828685815181106140e257fe5b602002602001015173ffffffffffffffffffffffffffffffffffffffff16613d789092919063ffffffff16565b7fb87e607f6030a23ed9b7dac1a717610f3a3b07325269f18808ba763bdcefe7ae84838151811061413c57fe5b602002602001015182604051808373ffffffffffffffffffffffffffffffffffffffff1681526020018281526020019250505060405180910390a15b508080600101915050613f78565b505050565b6000614195610f05565b905060008114156141a6575061444e565b60006141b06114f5565b905060006141bc611e4a565b156141cc576141c9613549565b90505b60005b84518110156144495760008582815181106141e657fe5b6020026020010151905060008373ffffffffffffffffffffffffffffffffffffffff168273ffffffffffffffffffffffffffffffffffffffff1614156142df576142d88273ffffffffffffffffffffffffffffffffffffffff166370a08231306040518263ffffffff1660e01b8152600401808273ffffffffffffffffffffffffffffffffffffffff16815260200191505060206040518083038186803b15801561429057600080fd5b505afa1580156142a4573d6000803e3d6000fd5b505050506040513d60208110156142ba57600080fd5b81019080805190602001909291905050506142d3610e1c565b615375565b9050614384565b8173ffffffffffffffffffffffffffffffffffffffff166370a08231306040518263ffffffff1660e01b8152600401808273ffffffffffffffffffffffffffffffffffffffff16815260200191505060206040518083038186803b15801561434657600080fd5b505afa15801561435a573d6000803e3d6000fd5b505050506040513d602081101561437057600080fd5b810190808051906020019092919050505090505b60006143ad61271061439f8985613c8a90919063ffffffff16565b614a4f90919063ffffffff16565b90506000811115614439576143e386828573ffffffffffffffffffffffffffffffffffffffff16613d789092919063ffffffff16565b7f075a2720282fdf622141dae0b048ef90a21a7e57c134c76912d19d006b3b3f6f8382604051808373ffffffffffffffffffffffffffffffffffffffff1681526020018281526020019250505060405180910390a15b50505080806001019150506141cf565b505050505b50565b60008173ffffffffffffffffffffffffffffffffffffffff1663893d20e86040518163ffffffff1660e01b815260040160206040518083038186803b15801561449957600080fd5b505afa1580156144ad573d6000803e3d6000fd5b505050506040513d60208110156144c357600080fd5b81019080805190602001909291905050509050919050565b80600860106101000a8154816fffffffffffffffffffffffffffffffff02191690836fffffffffffffffffffffffffffffffff1602179055507f0e280fa5ecedea20784caab60fae774807664c009e5e229629e5eef871207db68160405180826fffffffffffffffffffffffffffffffff16815260200191505060405180910390a150565b606060048054600181600116156101000203166002900480601f0160208091040260200160405190810160405280929190818152602001828054600181600116156101000203166002900480156145f85780601f106145cd576101008083540402835291602001916145f8565b820191906000526020600020905b8154815290600101906020018083116145db57829003601f168201915b5050505050905090565b6000600182511161461657600190506146c0565b60008251905060005b818110156146b95760006001820190505b828110156146ab5784818151811061464457fe5b602002602001015173ffffffffffffffffffffffffffffffffffffffff1685838151811061466e57fe5b602002602001015173ffffffffffffffffffffffffffffffffffffffff16141561469e57600093505050506146c0565b8080600101915050614630565b50808060010191505061461f565b5060019150505b919050565b60606000805b835181101561470b576146f1858583815181106146e457fe5b60200260200101516152fe565b6146fe5781806001019250505b80806001019150506146cb565b50600081141561471e5783915050614885565b8084510167ffffffffffffffff8111801561473857600080fd5b506040519080825280602002602001820160405280156147675781602001602082028036833780820191505090505b50915060005b84518110156147dd5784818151811061478257fe5b602002602001015183828151811061479657fe5b602002602001019073ffffffffffffffffffffffffffffffffffffffff16908173ffffffffffffffffffffffffffffffffffffffff1681525050808060010191505061476d565b5060008451905060005b84518110156148815761480d8686838151811061480057fe5b60200260200101516152fe565b6148745784818151811061481d57fe5b602002602001015184838151811061483157fe5b602002602001019073ffffffffffffffffffffffffffffffffffffffff16908173ffffffffffffffffffffffffffffffffffffffff168152505081806001019250505b80806001019150506147e7565b5050505b92915050565b600073ffffffffffffffffffffffffffffffffffffffff168273ffffffffffffffffffffffffffffffffffffffff161415614911576040517f08c379a00000000000000000000000000000000000000000000000000000000081526004018080602001828103825260218152602001806158c76021913960400191505060405180910390fd5b61491d82600083615394565b61498881604051806060016040528060228152602001615722602291396000808673ffffffffffffffffffffffffffffffffffffffff1673ffffffffffffffffffffffffffffffffffffffff16815260200190815260200160002054614ad89092919063ffffffff16565b6000808473ffffffffffffffffffffffffffffffffffffffff1673ffffffffffffffffffffffffffffffffffffffff168152602001908152602001600020819055506149df81600254613c0790919063ffffffff16565b600281905550600073ffffffffffffffffffffffffffffffffffffffff168273ffffffffffffffffffffffffffffffffffffffff167fddf252ad1be2c89b69c2b068fc378daa952ba7f163c4a11628f55a4df523b3ef836040518082815260200191505060405180910390a35050565b6000808211614ac6576040517f08c379a000000000000000000000000000000000000000000000000000000000815260040180806020018281038252601a8152602001807f536166654d6174683a206469766973696f6e206279207a65726f00000000000081525060200191505060405180910390fd5b818381614acf57fe5b04905092915050565b6000838311158290614b85576040517f08c379a00000000000000000000000000000000000000000000000000000000081526004018080602001828103825283818151815260200191508051906020019080838360005b83811015614b4a578082015181840152602081019050614b2f565b50505050905090810190601f168015614b775780820380516001836020036101000a031916815260200191505b509250505060405180910390fd5b5082840390509392505050565b6000614ba6614b9f613615565b8484614f4e565b6001905092915050565b80600860006101000a8154816fffffffffffffffffffffffffffffffff02191690836fffffffffffffffffffffffffffffffff1602179055507f3083d42989efabd593f083885067da3d51d2c2d68342a98d68a55eff8beed8d68160405180826fffffffffffffffffffffffffffffffff16815260200191505060405180910390a150565b80600560016101000a81548173ffffffffffffffffffffffffffffffffffffffff021916908373ffffffffffffffffffffffffffffffffffffffff1602179055507f60a0f5b9f9e81e98216071b85826681c796256fe3d1354ecb675580fba64fa6981604051808273ffffffffffffffffffffffffffffffffffffffff16815260200191505060405180910390a150565b600073ffffffffffffffffffffffffffffffffffffffff168273ffffffffffffffffffffffffffffffffffffffff161415614d69576040517f08c379a000000000000000000000000000000000000000000000000000000000815260040180806020018281038252601f8152602001807f45524332303a206d696e7420746f20746865207a65726f20616464726573730081525060200191505060405180910390fd5b614d7560008383615394565b614d8a816002546138ed90919063ffffffff16565b600281905550614de1816000808573ffffffffffffffffffffffffffffffffffffffff1673ffffffffffffffffffffffffffffffffffffffff168152602001908152602001600020546138ed90919063ffffffff16565b6000808473ffffffffffffffffffffffffffffffffffffffff1673ffffffffffffffffffffffffffffffffffffffff168152602001908152602001600020819055508173ffffffffffffffffffffffffffffffffffffffff16600073ffffffffffffffffffffffffffffffffffffffff167fddf252ad1be2c89b69c2b068fc378daa952ba7f163c4a11628f55a4df523b3ef836040518082815260200191505060405180910390a35050565b614f48846323b872dd60e01b858585604051602401808473ffffffffffffffffffffffffffffffffffffffff1681526020018373ffffffffffffffffffffffffffffffffffffffff1681526020018281526020019350505050604051602081830303815290604052907bffffffffffffffffffffffffffffffffffffffffffffffffffffffff19166020820180517bffffffffffffffffffffffffffffffffffffffffffffffffffffffff838183161783525050505061520f565b50505050565b600073ffffffffffffffffffffffffffffffffffffffff168373ffffffffffffffffffffffffffffffffffffffff161415614fd4576040517f08c379a00000000000000000000000000000000000000000000000000000000081526004018080602001828103825260258152602001806158e86025913960400191505060405180910390fd5b600073ffffffffffffffffffffffffffffffffffffffff168273ffffffffffffffffffffffffffffffffffffffff16141561505a576040517f08c379a00000000000000000000000000000000000000000000000000000000081526004018080602001828103825260238152602001806156ff6023913960400191505060405180910390fd5b615065838383615394565b6150d08160405180606001604052806026815260200161578e602691396000808773ffffffffffffffffffffffffffffffffffffffff1673ffffffffffffffffffffffffffffffffffffffff16815260200190815260200160002054614ad89092919063ffffffff16565b6000808573ffffffffffffffffffffffffffffffffffffffff1673ffffffffffffffffffffffffffffffffffffffff16815260200190815260200160002081905550615163816000808573ffffffffffffffffffffffffffffffffffffffff1673ffffffffffffffffffffffffffffffffffffffff168152602001908152602001600020546138ed90919063ffffffff16565b6000808473ffffffffffffffffffffffffffffffffffffffff1673ffffffffffffffffffffffffffffffffffffffff168152602001908152602001600020819055508173ffffffffffffffffffffffffffffffffffffffff168373ffffffffffffffffffffffffffffffffffffffff167fddf252ad1be2c89b69c2b068fc378daa952ba7f163c4a11628f55a4df523b3ef836040518082815260200191505060405180910390a3505050565b6060615271826040518060400160405280602081526020017f5361666545524332303a206c6f772d6c6576656c2063616c6c206661696c65648152508573ffffffffffffffffffffffffffffffffffffffff166153999092919063ffffffff16565b90506000815111156152f95780806020019051602081101561529257600080fd5b81019080805190602001909291905050506152f8576040517f08c379a000000000000000000000000000000000000000000000000000000000815260040180806020018281038252602a815260200180615931602a913960400191505060405180910390fd5b5b505050565b6000805b83518110156153695783818151811061531757fe5b602002602001015173ffffffffffffffffffffffffffffffffffffffff168373ffffffffffffffffffffffffffffffffffffffff16141561535c57600191505061536f565b8080600101915050615302565b50600090505b92915050565b60008183111561538957818303905061538e565b600090505b92915050565b505050565b60606153a884846000856153b1565b90509392505050565b60608247101561540c576040517f08c379a00000000000000000000000000000000000000000000000000000000081526004018080602001828103825260268152602001806157b46026913960400191505060405180910390fd5b6154158561555a565b615487576040517f08c379a000000000000000000000000000000000000000000000000000000000815260040180806020018281038252601d8152602001807f416464726573733a2063616c6c20746f206e6f6e2d636f6e747261637400000081525060200191505060405180910390fd5b600060608673ffffffffffffffffffffffffffffffffffffffff1685876040518082805190602001908083835b602083106154d757805182526020820191506020810190506020830392506154b4565b6001836020036101000a03801982511681845116808217855250505050505090500191505060006040518083038185875af1925050503d8060008114615539576040519150601f19603f3d011682016040523d82523d6000602084013e61553e565b606091505b509150915061554e82828661556d565b92505050949350505050565b600080823b905060008111915050919050565b6060831561557d57829050615632565b6000835111156155905782518084602001fd5b816040517f08c379a00000000000000000000000000000000000000000000000000000000081526004018080602001828103825283818151815260200191508051906020019080838360005b838110156155f75780820151818401526020810190506155dc565b50505050905090810190601f1680156156245780820380516001836020036101000a031916815260200191505b509250505060405180910390fd5b9392505050565b8280548282559060005260206000209081019282156156b2579160200282015b828111156156b15782518260006101000a81548173ffffffffffffffffffffffffffffffffffffffff021916908373ffffffffffffffffffffffffffffffffffffffff16021790555091602001919060010190615659565b5b5090506156bf91906156c3565b5090565b5b808211156156fa57600081816101000a81549073ffffffffffffffffffffffffffffffffffffffff0219169055506001016156c4565b509056fe45524332303a207472616e7366657220746f20746865207a65726f206164647265737345524332303a206275726e20616d6f756e7420657863656564732062616c616e636545524332303a20617070726f766520746f20746865207a65726f20616464726573735f5f76616c696461746549734d616e616765724f724f776e65723a20556e617574686f72697a656445524332303a207472616e7366657220616d6f756e7420657863656564732062616c616e6365416464726573733a20696e73756666696369656e742062616c616e636520666f722063616c6c656e74657252656465656d53746174653a204e6f6e2d7a65726f2076616c75652065787465726e616c20706f736974696f6e77697468647261773a204f6e6c79206465706f73697420746f6b656e20776974686472617761626c65656e7465724c6f636b656453746174653a204d696e20736861726573206e6f74206d6574536166654d6174683a206d756c7469706c69636174696f6e206f766572666c6f7745524332303a207472616e7366657220616d6f756e74206578636565647320616c6c6f77616e636577697468647261773a204475706c6963617465205f6164646974696f6e616c41737365747345524332303a206275726e2066726f6d20746865207a65726f206164647265737345524332303a207472616e736665722066726f6d20746865207a65726f206164647265737345524332303a20617070726f76652066726f6d20746865207a65726f20616464726573735361666545524332303a204552433230206f7065726174696f6e20646964206e6f7420737563636565645361666545524332303a20617070726f76652066726f6d206e6f6e2d7a65726f20746f206e6f6e2d7a65726f20616c6c6f77616e636545524332303a2064656372656173656420616c6c6f77616e63652062656c6f77207a65726fa164736f6c634300060c000a","linkReferences":{}},"methodIdentifiers":{"allowance(address,address)":"dd62ed3e","approve(address,uint256)":"095ea7b3","balanceOf(address)":"70a08231","decimals()":"313ce567","decreaseAllowance(address,uint256)":"a457c2d7","deposit(uint256)":"b6b55f25","enterLockedState()":"40806ae6","enterRedeemState(address[])":"851bda82","getAllowedDepositorListId()":"8c434471","getDepositToken()":"fb1b5c7b","getFeeBps()":"2c928098","getFeeExcludesDepositTokenPrincipal()":"907e3df3","getFeeRecipient()":"4ccb20c0","getManager()":"d5009584","getProtocolFeeStart()":"a161a512","getRedeemedAssets()":"ecb6abd6","getState()":"1865c57d","getTotalDepositMax()":"2207b386","getTransfersAllowed()":"6edac21b","getVaultProxy()":"c9809187","increaseAllowance(address,uint256)":"39509351","init(address,address,uint128,bool,uint128,address,uint16,bool,address)":"ae652af6","name()":"06fdde03","setAllowedDepositorListId(uint128)":"e9085cc7","setManager(address)":"d0ebdbe7","setTotalDepositMax(uint128)":"913cc04a","symbol()":"95d89b41","totalSupply()":"18160ddd","transfer(address,uint256)":"a9059cbb","transferFrom(address,address,uint256)":"23b872dd","withdraw(uint256,address[])":"99eca69f"},"id":310}