{"abi":[{"type":"constructor","inputs":[{"name":"_externalPositionManager","type":"address","internalType":"address"},{"name":"_protocolFeeReserve","type":"address","internalType":"address"},{"name":"_protocolFeeTracker","type":"address","internalType":"address"},{"name":"_mlnToken","type":"address","internalType":"address"},{"name":"_mlnBurner","type":"address","internalType":"address"},{"name":"_wethToken","type":"address","internalType":"address"},{"name":"_positionsLimit","type":"uint256","internalType":"uint256"}],"stateMutability":"nonpayable"},{"type":"receive","stateMutability":"payable"},{"type":"function","name":"addAssetManagers","inputs":[{"name":"_managers","type":"address[]","internalType":"address[]"}],"outputs":[],"stateMutability":"nonpayable"},{"type":"function","name":"addTrackedAsset","inputs":[{"name":"_asset","type":"address","internalType":"address"}],"outputs":[],"stateMutability":"nonpayable"},{"type":"function","name":"allowance","inputs":[{"name":"_owner","type":"address","internalType":"address"},{"name":"_spender","type":"address","internalType":"address"}],"outputs":[{"name":"","type":"uint256","internalType":"uint256"}],"stateMutability":"view"},{"type":"function","name":"approve","inputs":[{"name":"_spender","type":"address","internalType":"address"},{"name":"_amount","type":"uint256","internalType":"uint256"}],"outputs":[{"name":"","type":"bool","internalType":"bool"}],"stateMutability":"nonpayable"},{"type":"function","name":"balanceOf","inputs":[{"name":"_account","type":"address","internalType":"address"}],"outputs":[{"name":"","type":"uint256","internalType":"uint256"}],"stateMutability":"view"},{"type":"function","name":"burnShares","inputs":[{"name":"_target","type":"address","internalType":"address"},{"name":"_amount","type":"uint256","internalType":"uint256"}],"outputs":[],"stateMutability":"nonpayable"},{"type":"function","name":"buyBackProtocolFeeShares","inputs":[{"name":"_sharesAmount","type":"uint256","internalType":"uint256"},{"name":"_mlnValue","type":"uint256","internalType":"uint256"},{"name":"_gav","type":"uint256","internalType":"uint256"}],"outputs":[],"stateMutability":"nonpayable"},{"type":"function","name":"callOnContract","inputs":[{"name":"_contract","type":"address","internalType":"address"},{"name":"_callData","type":"bytes","internalType":"bytes"}],"outputs":[{"name":"returnData_","type":"bytes","internalType":"bytes"}],"stateMutability":"nonpayable"},{"type":"function","name":"canManageAssets","inputs":[{"name":"_who","type":"address","internalType":"address"}],"outputs":[{"name":"canManageAssets_","type":"bool","internalType":"bool"}],"stateMutability":"view"},{"type":"function","name":"canMigrate","inputs":[{"name":"_who","type":"address","internalType":"address"}],"outputs":[{"name":"canMigrate_","type":"bool","internalType":"bool"}],"stateMutability":"view"},{"type":"function","name":"canRelayCalls","inputs":[{"name":"_who","type":"address","internalType":"address"}],"outputs":[{"name":"canRelayCalls_","type":"bool","internalType":"bool"}],"stateMutability":"view"},{"type":"function","name":"claimOwnership","inputs":[],"outputs":[],"stateMutability":"nonpayable"},{"type":"function","name":"decimals","inputs":[],"outputs":[{"name":"","type":"uint8","internalType":"uint8"}],"stateMutability":"pure"},{"type":"function","name":"getAccessor","inputs":[],"outputs":[{"name":"accessor_","type":"address","internalType":"address"}],"stateMutability":"view"},{"type":"function","name":"getActiveExternalPositions","inputs":[],"outputs":[{"name":"activeExternalPositions_","type":"address[]","internalType":"address[]"}],"stateMutability":"view"},{"type":"function","name":"getCreator","inputs":[],"outputs":[{"name":"creator_","type":"address","internalType":"address"}],"stateMutability":"view"},{"type":"function","name":"getExternalPositionLibForType","inputs":[{"name":"_typeId","type":"uint256","internalType":"uint256"}],"outputs":[{"name":"externalPositionLib_","type":"address","internalType":"address"}],"stateMutability":"view"},{"type":"function","name":"getExternalPositionManager","inputs":[],"outputs":[{"name":"externalPositionManager_","type":"address","internalType":"address"}],"stateMutability":"view"},{"type":"function","name":"getFundDeployer","inputs":[],"outputs":[{"name":"fundDeployer_","type":"address","internalType":"address"}],"stateMutability":"view"},{"type":"function","name":"getMigrator","inputs":[],"outputs":[{"name":"migrator_","type":"address","internalType":"address"}],"stateMutability":"view"},{"type":"function","name":"getMlnBurner","inputs":[],"outputs":[{"name":"mlnBurner_","type":"address","internalType":"address"}],"stateMutability":"view"},{"type":"function","name":"getMlnToken","inputs":[],"outputs":[{"name":"mlnToken_","type":"address","internalType":"address"}],"stateMutability":"view"},{"type":"function","name":"getNominatedOwner","inputs":[],"outputs":[{"name":"nominatedOwner_","type":"address","internalType":"address"}],"stateMutability":"view"},{"type":"function","name":"getOwner","inputs":[],"outputs":[{"name":"owner_","type":"address","internalType":"address"}],"stateMutability":"view"},{"type":"function","name":"getPositionsLimit","inputs":[],"outputs":[{"name":"positionsLimit_","type":"uint256","internalType":"uint256"}],"stateMutability":"view"},{"type":"function","name":"getProtocolFeeReserve","inputs":[],"outputs":[{"name":"protocolFeeReserve_","type":"address","internalType":"address"}],"stateMutability":"view"},{"type":"function","name":"getProtocolFeeTracker","inputs":[],"outputs":[{"name":"protocolFeeTracker_","type":"address","internalType":"address"}],"stateMutability":"view"},{"type":"function","name":"getTrackedAssets","inputs":[],"outputs":[{"name":"trackedAssets_","type":"address[]","internalType":"address[]"}],"stateMutability":"view"},{"type":"function","name":"getVaultLib","inputs":[],"outputs":[{"name":"vaultLib_","type":"address","internalType":"address"}],"stateMutability":"view"},{"type":"function","name":"getWethToken","inputs":[],"outputs":[{"name":"wethToken_","type":"address","internalType":"address"}],"stateMutability":"view"},{"type":"function","name":"init","inputs":[{"name":"_owner","type":"address","internalType":"address"},{"name":"_accessor","type":"address","internalType":"address"},{"name":"_fundName","type":"string","internalType":"string"}],"outputs":[],"stateMutability":"nonpayable"},{"type":"function","name":"isActiveExternalPosition","inputs":[{"name":"_externalPosition","type":"address","internalType":"address"}],"outputs":[{"name":"isActiveExternalPosition_","type":"bool","internalType":"bool"}],"stateMutability":"view"},{"type":"function","name":"isAssetManager","inputs":[{"name":"_who","type":"address","internalType":"address"}],"outputs":[{"name":"isAssetManager_","type":"bool","internalType":"bool"}],"stateMutability":"view"},{"type":"function","name":"isTrackedAsset","inputs":[{"name":"_asset","type":"address","internalType":"address"}],"outputs":[{"name":"isTrackedAsset_","type":"bool","internalType":"bool"}],"stateMutability":"view"},{"type":"function","name":"mintShares","inputs":[{"name":"_target","type":"address","internalType":"address"},{"name":"_amount","type":"uint256","internalType":"uint256"}],"outputs":[],"stateMutability":"nonpayable"},{"type":"function","name":"name","inputs":[],"outputs":[{"name":"","type":"string","internalType":"string"}],"stateMutability":"view"},{"type":"function","name":"payProtocolFee","inputs":[],"outputs":[],"stateMutability":"nonpayable"},{"type":"function","name":"proxiableUUID","inputs":[],"outputs":[{"name":"uuid_","type":"bytes32","internalType":"bytes32"}],"stateMutability":"pure"},{"type":"function","name":"receiveValidatedVaultAction","inputs":[{"name":"_action","type":"uint8","internalType":"enum IVault.VaultAction"},{"name":"_actionData","type":"bytes","internalType":"bytes"}],"outputs":[],"stateMutability":"nonpayable"},{"type":"function","name":"removeAssetManagers","inputs":[{"name":"_managers","type":"address[]","internalType":"address[]"}],"outputs":[],"stateMutability":"nonpayable"},{"type":"function","name":"removeNominatedOwner","inputs":[],"outputs":[],"stateMutability":"nonpayable"},{"type":"function","name":"setAccessor","inputs":[{"name":"_nextAccessor","type":"address","internalType":"address"}],"outputs":[],"stateMutability":"nonpayable"},{"type":"function","name":"setAccessorForFundReconfiguration","inputs":[{"name":"_nextAccessor","type":"address","internalType":"address"}],"outputs":[],"stateMutability":"nonpayable"},{"type":"function","name":"setFreelyTransferableShares","inputs":[],"outputs":[],"stateMutability":"nonpayable"},{"type":"function","name":"setMigrator","inputs":[{"name":"_nextMigrator","type":"address","internalType":"address"}],"outputs":[],"stateMutability":"nonpayable"},{"type":"function","name":"setName","inputs":[{"name":"_nextName","type":"string","internalType":"string"}],"outputs":[],"stateMutability":"nonpayable"},{"type":"function","name":"setNominatedOwner","inputs":[{"name":"_nextNominatedOwner","type":"address","internalType":"address"}],"outputs":[],"stateMutability":"nonpayable"},{"type":"function","name":"setSymbol","inputs":[{"name":"_nextSymbol","type":"string","internalType":"string"}],"outputs":[],"stateMutability":"nonpayable"},{"type":"function","name":"setVaultLib","inputs":[{"name":"_nextVaultLib","type":"address","internalType":"address"}],"outputs":[],"stateMutability":"nonpayable"},{"type":"function","name":"sharesAreFreelyTransferable","inputs":[],"outputs":[{"name":"sharesAreFreelyTransferable_","type":"bool","internalType":"bool"}],"stateMutability":"view"},{"type":"function","name":"symbol","inputs":[],"outputs":[{"name":"symbol_","type":"string","internalType":"string"}],"stateMutability":"view"},{"type":"function","name":"totalSupply","inputs":[],"outputs":[{"name":"","type":"uint256","internalType":"uint256"}],"stateMutability":"view"},{"type":"function","name":"transfer","inputs":[{"name":"_recipient","type":"address","internalType":"address"},{"name":"_amount","type":"uint256","internalType":"uint256"}],"outputs":[{"name":"success_","type":"bool","internalType":"bool"}],"stateMutability":"nonpayable"},{"type":"function","name":"transferFrom","inputs":[{"name":"_sender","type":"address","internalType":"address"},{"name":"_recipient","type":"address","internalType":"address"},{"name":"_amount","type":"uint256","internalType":"uint256"}],"outputs":[{"name":"success_","type":"bool","internalType":"bool"}],"stateMutability":"nonpayable"},{"type":"function","name":"transferShares","inputs":[{"name":"_from","type":"address","internalType":"address"},{"name":"_to","type":"address","internalType":"address"},{"name":"_amount","type":"uint256","internalType":"uint256"}],"outputs":[],"stateMutability":"nonpayable"},{"type":"function","name":"withdrawAssetTo","inputs":[{"name":"_asset","type":"address","internalType":"address"},{"name":"_target","type":"address","internalType":"address"},{"name":"_amount","type":"uint256","internalType":"uint256"}],"outputs":[],"stateMutability":"nonpayable"},{"type":"event","name":"AccessorSet","inputs":[{"name":"prevAccessor","type":"address","indexed":false,"internalType":"address"},{"name":"nextAccessor","type":"address","indexed":false,"internalType":"address"}],"anonymous":false},{"type":"event","name":"Approval","inputs":[{"name":"owner","type":"address","indexed":true,"internalType":"address"},{"name":"spender","type":"address","indexed":true,"internalType":"address"},{"name":"value","type":"uint256","indexed":false,"internalType":"uint256"}],"anonymous":false},{"type":"event","name":"AssetManagerAdded","inputs":[{"name":"manager","type":"address","indexed":false,"internalType":"address"}],"anonymous":false},{"type":"event","name":"AssetManagerRemoved","inputs":[{"name":"manager","type":"address","indexed":false,"internalType":"address"}],"anonymous":false},{"type":"event","name":"AssetWithdrawn","inputs":[{"name":"asset","type":"address","indexed":true,"internalType":"address"},{"name":"target","type":"address","indexed":true,"internalType":"address"},{"name":"amount","type":"uint256","indexed":false,"internalType":"uint256"}],"anonymous":false},{"type":"event","name":"EthReceived","inputs":[{"name":"sender","type":"address","indexed":true,"internalType":"address"},{"name":"amount","type":"uint256","indexed":false,"internalType":"uint256"}],"anonymous":false},{"type":"event","name":"ExternalPositionAdded","inputs":[{"name":"externalPosition","type":"address","indexed":true,"internalType":"address"}],"anonymous":false},{"type":"event","name":"ExternalPositionRemoved","inputs":[{"name":"externalPosition","type":"address","indexed":true,"internalType":"address"}],"anonymous":false},{"type":"event","name":"FreelyTransferableSharesSet","inputs":[],"anonymous":false},{"type":"event","name":"MigratorSet","inputs":[{"name":"prevMigrator","type":"address","indexed":false,"internalType":"address"},{"name":"nextMigrator","type":"address","indexed":false,"internalType":"address"}],"anonymous":false},{"type":"event","name":"NameSet","inputs":[{"name":"name","type":"string","indexed":false,"internalType":"string"}],"anonymous":false},{"type":"event","name":"NominatedOwnerRemoved","inputs":[{"name":"nominatedOwner","type":"address","indexed":true,"internalType":"address"}],"anonymous":false},{"type":"event","name":"NominatedOwnerSet","inputs":[{"name":"nominatedOwner","type":"address","indexed":true,"internalType":"address"}],"anonymous":false},{"type":"event","name":"OwnerSet","inputs":[{"name":"prevOwner","type":"address","indexed":false,"internalType":"address"},{"name":"nextOwner","type":"address","indexed":false,"internalType":"address"}],"anonymous":false},{"type":"event","name":"OwnershipTransferred","inputs":[{"name":"prevOwner","type":"address","indexed":true,"internalType":"address"},{"name":"nextOwner","type":"address","indexed":true,"internalType":"address"}],"anonymous":false},{"type":"event","name":"ProtocolFeePaidInShares","inputs":[{"name":"sharesAmount","type":"uint256","indexed":false,"internalType":"uint256"}],"anonymous":false},{"type":"event","name":"ProtocolFeeSharesBoughtBack","inputs":[{"name":"sharesAmount","type":"uint256","indexed":false,"internalType":"uint256"},{"name":"mlnValue","type":"uint256","indexed":false,"internalType":"uint256"},{"name":"mlnBurned","type":"uint256","indexed":false,"internalType":"uint256"}],"anonymous":false},{"type":"event","name":"SymbolSet","inputs":[{"name":"symbol","type":"string","indexed":false,"internalType":"string"}],"anonymous":false},{"type":"event","name":"TrackedAssetAdded","inputs":[{"name":"asset","type":"address","indexed":false,"internalType":"address"}],"anonymous":false},{"type":"event","name":"TrackedAssetRemoved","inputs":[{"name":"asset","type":"address","indexed":false,"internalType":"address"}],"anonymous":false},{"type":"event","name":"Transfer","inputs":[{"name":"from","type":"address","indexed":true,"internalType":"address"},{"name":"to","type":"address","indexed":true,"internalType":"address"},{"name":"value","type":"uint256","indexed":false,"internalType":"uint256"}],"anonymous":false},{"type":"event","name":"VaultLibSet","inputs":[{"name":"prevVaultLib","type":"address","indexed":false,"internalType":"address"},{"name":"nextVaultLib","type":"address","indexed":false,"internalType":"address"}],"anonymous":false}],"bytecode":{"object":"0x6101606040523480156200001257600080fd5b5060405162004c5d38038062004c5d8339810160408190526200003591620000b8565b6001600160a01b0396871660805291861660a05291851660c05260e05291831661010052821661012052166101405262000167565b60006001600160a01b0382165b92915050565b62000088816200006a565b81146200009457600080fd5b50565b805162000077816200007d565b8062000088565b80516200007781620000a4565b600080600080600080600060e0888a031215620000d857620000d8600080fd5b6000620000e68a8a62000097565b9750506020620000f98a828b0162000097565b96505060406200010c8a828b0162000097565b95505060606200011f8a828b0162000097565b9450506080620001328a828b0162000097565b93505060a0620001458a828b0162000097565b92505060c0620001588a828b01620000ab565b91505092959891949750929550565b60805160a05160c05160e051610100516101205161014051614a4e6200020f60003960008181610378015261063701526000818161087a01526120fc015260008181610af501528181610d0e01528181610d9f0152612190015260008181610bf40152612f27015260008181610b6e01528181610e090152610e82015260008181610bc101528181610dce0152610ea40152600081816109f80152611a710152614a4e6000f3fe60806040526004361061036f5760003560e01c8063728e17a0116101c6578063b3fc38e9116100f7578063d5c20fa211610095578063e70e605e1161006f578063e70e605e14610b5f578063ee7a7c0414610b92578063fe15c02a14610bb2578063ff3cdf5614610be557600080fd5b8063d5c20fa214610ad1578063da41962e14610ae6578063dd62ed3e14610b1957600080fd5b8063bfc77beb116100d1578063bfc77beb14610a5e578063c47f002714610a7e578063c4b9737014610a9e578063cd63d57814610ab357600080fd5b8063b3fc38e9146109e9578063b84c824614610a1c578063b8b7f14714610a3c57600080fd5b80638156eecf1161016457806397c0ac871161013e57806397c0ac8714610974578063a9059cbb14610989578063a90cce4b146109a9578063ab9253ac146109c957600080fd5b80638156eecf1461092c578063893d20e81461094157806395d89b411461095f57600080fd5b806375d8bb0e116101a057806375d8bb0e1461089e578063797ed339146108be5780637c81ac2d146108f75780637de07cea1461090c57600080fd5b8063728e17a01461082b578063740f2b5a1461084b578063749cc8f51461086b57600080fd5b8063495d753c116102a05780635c9a6d371161023e578063682cea1911610218578063682cea191461077a57806370a082311461079c578063712bd102146107d2578063714ca2d11461080b57600080fd5b80635c9a6d37146107015780636487aa111461072157806364cb36cb1461075a57600080fd5b80634ef0762e1161027a5780634ef0762e14610670578063528c198a1461069057806352d1902d146106b05780635a53e348146106e357600080fd5b8063495d753c146106085780634c252f91146106285780634e71e0c81461065b57600080fd5b806324e600121161030d578063313ce567116102e7578063313ce5671461058c57806336861889146105a85780633e11553d146105c85780634140d607146105e857600080fd5b806324e6001214610531578063288b6a361461055157806328c2ad9c1461057457600080fd5b806318160ddd1161034957806318160ddd146104b15780631ff46bfa146104cf57806323b872dd146104f157806323cf31181461051157600080fd5b806306fdde0314610432578063095ea7b31461045d5780630ee2cb101461048a57600080fd5b3661042d5730317f00000000000000000000000000000000000000000000000000000000000000006001600160a01b031663d0e30db0826040518263ffffffff1660e01b81526004016000604051808303818588803b1580156103d157600080fd5b505af11580156103e5573d6000803e3d6000fd5b5050505050336001600160a01b03167f85177f287940f2f05425a4029951af0e047a7f9c4eaa9a6e6917bcd869f8669582604051610423919061330b565b60405180910390a2005b600080fd5b34801561043e57600080fd5b50610447610c18565b6040516104549190613371565b60405180910390f35b34801561046957600080fd5b5061047d6104783660046133c3565b610caa565b6040516104549190613408565b34801561049657600080fd5b506006546001600160a01b03165b604051610454919061341f565b3480156104bd57600080fd5b506002545b604051610454919061330b565b3480156104db57600080fd5b506104ef6104ea36600461342d565b610cc1565b005b3480156104fd57600080fd5b5061047d61050c36600461347d565b610f0b565b34801561051d57600080fd5b506104ef61052c3660046134b2565b610f2d565b34801561053d57600080fd5b506104ef61054c36600461353c565b610fe9565b34801561055d57600080fd5b50600b5461010090046001600160a01b03166104a4565b34801561058057600080fd5b50600b5460ff1661047d565b34801561059857600080fd5b50601260405161045491906135a0565b3480156105b457600080fd5b5061047d6105c33660046134b2565b611383565b3480156105d457600080fd5b506104ef6105e33660046135f8565b6113e9565b3480156105f457600080fd5b506104ef6106033660046134b2565b611532565b34801561061457600080fd5b506104ef61062336600461347d565b6115b0565b34801561063457600080fd5b507f00000000000000000000000000000000000000000000000000000000000000006104a4565b34801561066757600080fd5b506104ef6115e5565b34801561067c57600080fd5b506104ef61068b3660046134b2565b611678565b34801561069c57600080fd5b506104ef6106ab3660046133c3565b6116ae565b3480156106bc57600080fd5b507f027b9570e9fedc1a80b937ae9a06861e5faef3992491af30b684a64b3fbec7a56104c2565b3480156106ef57600080fd5b506005546001600160a01b03166104a4565b34801561070d57600080fd5b506104ef61071c36600461363f565b6116e6565b34801561072d57600080fd5b5061047d61073c3660046134b2565b6001600160a01b03166000908152600d602052604090205460ff1690565b34801561076657600080fd5b506104ef6107753660046135f8565b611788565b34801561078657600080fd5b50600080516020614a2e833981519152546104a4565b3480156107a857600080fd5b506104c26107b73660046134b2565b6001600160a01b031660009081526003602052604090205490565b3480156107de57600080fd5b5061047d6107ed3660046134b2565b6001600160a01b03166000908152600e602052604090205460ff1690565b34801561081757600080fd5b5061047d6108263660046134b2565b6118bb565b34801561083757600080fd5b506104ef6108463660046134b2565b61190a565b34801561085757600080fd5b506104ef6108663660046134b2565b611a16565b34801561087757600080fd5b507f00000000000000000000000000000000000000000000000000000000000000006104a4565b3480156108aa57600080fd5b506104a46108b93660046136ac565b611a57565b3480156108ca57600080fd5b5061047d6108d93660046134b2565b6001600160a01b03166000908152600a602052604090205460ff1690565b34801561090357600080fd5b506104ef611ae7565b34801561091857600080fd5b5061047d6109273660046134b2565b611b75565b34801561093857600080fd5b506104ef611ba4565b34801561094d57600080fd5b506008546001600160a01b03166104a4565b34801561096b57600080fd5b50610447611c4d565b34801561098057600080fd5b506104a4611d66565b34801561099557600080fd5b5061047d6109a43660046133c3565b611dd8565b3480156109b557600080fd5b506104476109c43660046136cd565b611def565b3480156109d557600080fd5b506104ef6109e43660046134b2565b611ea7565b3480156109f557600080fd5b507f00000000000000000000000000000000000000000000000000000000000000006104a4565b348015610a2857600080fd5b506104ef610a373660046136f1565b611ed1565b348015610a4857600080fd5b50610a51611f66565b6040516104549190613789565b348015610a6a57600080fd5b506104ef610a7936600461347d565b611fc7565b348015610a8a57600080fd5b506104ef610a993660046136f1565b611ffc565b348015610aaa57600080fd5b50610a5161206e565b348015610abf57600080fd5b506007546001600160a01b03166104a4565b348015610add57600080fd5b506104ef6120ce565b348015610af257600080fd5b507f00000000000000000000000000000000000000000000000000000000000000006104a4565b348015610b2557600080fd5b506104c2610b3436600461379a565b6001600160a01b03918216600090815260046020908152604080832093909416825291909152205490565b348015610b6b57600080fd5b507f00000000000000000000000000000000000000000000000000000000000000006104a4565b348015610b9e57600080fd5b506104ef610bad3660046133c3565b6121f0565b348015610bbe57600080fd5b507f00000000000000000000000000000000000000000000000000000000000000006104a4565b348015610bf157600080fd5b507f00000000000000000000000000000000000000000000000000000000000000006104c2565b606060008054610c27906137e3565b80601f0160208091040260200160405190810160405280929190818152602001828054610c53906137e3565b8015610ca05780601f10610c7557610100808354040283529160200191610ca0565b820191906000526020600020905b815481529060010190602001808311610c8357829003601f168201915b5050505050905090565b6000610cb7338484612224565b5060015b92915050565b6005546001600160a01b03163314610cf45760405162461bcd60e51b8152600401610ceb9061385e565b60405180910390fd5b6040516325b116bb60e21b81526000906001600160a01b037f000000000000000000000000000000000000000000000000000000000000000016906396c45aec90610d479087908790879060040161386e565b6020604051808303816000875af1158015610d66573d6000803e3d6000fd5b505050506040513d601f19601f82011682018060405250810190610d8a91906138a1565b905080600003610d9a5750505050565b610dc47f0000000000000000000000000000000000000000000000000000000000000000856122d8565b6001600160a01b037f000000000000000000000000000000000000000000000000000000000000000016610e7557604051630852cd8d60e31b81526001600160a01b037f000000000000000000000000000000000000000000000000000000000000000016906342966c6890610e3e90849060040161330b565b600060405180830381600087803b158015610e5857600080fd5b505af1158015610e6c573d6000803e3d6000fd5b50505050610ec9565b610ec96001600160a01b037f0000000000000000000000000000000000000000000000000000000000000000167f00000000000000000000000000000000000000000000000000000000000000008361238e565b7ff8c67da77ed4cb50a4dec91c60cf78ee219033bd3c55a86d133178c557c2d2cf848483604051610efc9392919061386e565b60405180910390a1505b505050565b6000610f18848484612399565b610f2384848461246b565b90505b9392505050565b6008546001600160a01b0316336001600160a01b031614610f605760405162461bcd60e51b8152600401610ceb90613904565b6007546001600160a01b03908116908216819003610f905760405162461bcd60e51b8152600401610ceb9061394b565b600780546001600160a01b0319166001600160a01b0384161790556040517f9d0761a1fa4d686cd87f8dbf8ca52f90cf19c3c4dc36e66ebbf08fc5ba203f2c90610fdd908390859061395b565b60405180910390a15050565b6005546001600160a01b031633146110135760405162461bcd60e51b8152600401610ceb9061385e565b600883600a81111561102757611027613976565b0361106b57610f0682828080601f0160208091040260200160405190810160405280939291908181526020018383808284376000920191909152506124bd92505050565b600483600a81111561107f5761107f613976565b036110c357610f0682828080601f0160208091040260200160405190810160405280939291908181526020018383808284376000920191909152506124d992505050565b600583600a8111156110d7576110d7613976565b0361111b57610f0682828080601f0160208091040260200160405190810160405280939291908181526020018383808284376000920191909152506124f592505050565b600183600a81111561112f5761112f613976565b0361117357610f0682828080601f01602080910402602001604051908101604052809392919081815260200183838082843760009201919091525061252592505050565b600983600a81111561118757611187613976565b036111cb57610f0682828080601f01602080910402602001604051908101604052809392919081815260200183838082843760009201919091525061254a92505050565b600283600a8111156111df576111df613976565b0361122357610f0682828080601f01602080910402602001604051908101604052809392919081815260200183838082843760009201919091525061258592505050565b600a83600a81111561123757611237613976565b0361127b57610f0682828080601f0160208091040260200160405190810160405280939291908181526020018383808284376000920191909152506125aa92505050565b600683600a81111561128f5761128f613976565b036112d357610f0682828080601f0160208091040260200160405190810160405280939291908181526020018383808284376000920191909152506125c692505050565b600383600a8111156112e7576112e7613976565b0361132b57610f0682828080601f0160208091040260200160405190810160405280939291908181526020018383808284376000920191909152506125e292505050565b600783600a81111561133f5761133f613976565b03610f0657610f0682828080601f01602080910402602001604051908101604052809392919081815260200183838082843760009201919091525061260c92505050565b60006113976008546001600160a01b031690565b6001600160a01b0316826001600160a01b031614806113ce57506001600160a01b0382166000908152600d602052604090205460ff165b80610cbb5750506007546001600160a01b0391821691161490565b6008546001600160a01b0316336001600160a01b03161461141c5760405162461bcd60e51b8152600401610ceb90613904565b60005b81811015610f065761145183838381811061143c5761143c61398c565b905060200201602081019061073c91906134b2565b1561146e5760405162461bcd60e51b8152600401610ceb906139eb565b6001600d60008585858181106114865761148661398c565b905060200201602081019061149b91906134b2565b6001600160a01b031681526020810191909152604001600020805460ff19169115159190911790557f8cf4dd2d46ca2e74b9cc238f9e9c907b5a6a50e2f652162a062d5e8129f35d7a8383838181106114f6576114f661398c565b905060200201602081019061150b91906134b2565b604051611518919061341f565b60405180910390a18061152a81613a11565b91505061141f565b6006546001600160a01b0316331461155c5760405162461bcd60e51b8152600401610ceb90613a7a565b6000611574600080516020614a2e8339815191525490565b905061157f82612636565b7fe504a0278c9d64c1a72d2f528a0c5e3686e093fcd478b3b1224a5c6983207df68183604051610fdd92919061395b565b6005546001600160a01b031633146115da5760405162461bcd60e51b8152600401610ceb9061385e565b610f068383836126e8565b600b5461010090046001600160a01b03163381146116155760405162461bcd60e51b8152600401610ceb90613ae4565b600b8054610100600160a81b0319169055600880546001600160a01b038381166001600160a01b0319831681179093556040519116919082907f8be0079c531659141344cd1fd0a4f28419497f9722a3daafe3b4186f6b6457e090600090a35050565b6005546001600160a01b031633146116a25760405162461bcd60e51b8152600401610ceb9061385e565b6116ab81612776565b50565b6005546001600160a01b031633146116d85760405162461bcd60e51b8152600401610ceb9061385e565b6116e2828261285e565b5050565b6006546001600160a01b03161561170f5760405162461bcd60e51b8152600401610ceb90613b28565b600680546001600160a01b03191633179055600061172e828483613bdf565b5061173883612906565b6117418461297f565b7fe504a0278c9d64c1a72d2f528a0c5e3686e093fcd478b3b1224a5c6983207df6600061177a600080516020614a2e8339815191525490565b604051610efc92919061395b565b6008546001600160a01b0316336001600160a01b0316146117bb5760405162461bcd60e51b8152600401610ceb90613904565b60005b81811015610f06576117db83838381811061143c5761143c61398c565b6117f75760405162461bcd60e51b8152600401610ceb90613ce9565b6000600d600085858581811061180f5761180f61398c565b905060200201602081019061182491906134b2565b6001600160a01b031681526020810191909152604001600020805460ff19169115159190911790557f1a3f6d43a85364a6a2d8297f0cd634e060a6ef9bc11b3a0c89e47d40b89c2f7e83838381811061187f5761187f61398c565b905060200201602081019061189491906134b2565b6040516118a1919061341f565b60405180910390a1806118b381613a11565b9150506117be565b60006118cf6008546001600160a01b031690565b6001600160a01b0316826001600160a01b03161480610cbb57506001600160a01b0382166000908152600d602052604090205460ff16610cbb565b6008546001600160a01b0316336001600160a01b03161461193d5760405162461bcd60e51b8152600401610ceb90613904565b6001600160a01b0381166119635760405162461bcd60e51b8152600401610ceb90613d4c565b6008546001600160a01b03908116908216036119915760405162461bcd60e51b8152600401610ceb90613db6565b600b546001600160a01b036101009091048116908216036119c45760405162461bcd60e51b8152600401610ceb90613e20565b600b8054610100600160a81b0319166101006001600160a01b038416908102919091179091556040517f132c19de901bb4ed8403c34734b6c841d5dc57745824da452a52433519ea5abf90600090a250565b611a1e611d66565b6001600160a01b0316336001600160a01b031614611a4e5760405162461bcd60e51b8152600401610ceb90613e75565b6116ab81612906565b604051633aec5d8760e11b81526000906001600160a01b037f000000000000000000000000000000000000000000000000000000000000000016906375d8bb0e90611aa690859060040161330b565b602060405180830381865afa158015611ac3573d6000803e3d6000fd5b505050506040513d601f19601f82011682018060405250810190610cbb9190613e90565b6008546001600160a01b0316336001600160a01b031614611b1a5760405162461bcd60e51b8152600401610ceb90613904565b600b5460ff1615611b3d5760405162461bcd60e51b8152600401610ceb90613ef6565b600b805460ff191660011790556040517f505ab4202e673074a7b93ec3c2ca442c3526a42232835c56d223bd09672c5b0d90600090a1565b6008546000906001600160a01b0383811691161480610cbb5750506007546001600160a01b0390811691161490565b6008546001600160a01b0316336001600160a01b031614611bd75760405162461bcd60e51b8152600401610ceb90613904565b600b5461010090046001600160a01b031680611c055760405162461bcd60e51b8152600401610ceb90613f54565b600b8054610100600160a81b03191690556040516001600160a01b038216907fe4136584a5e8bb85d66301f3ce8b11cc2e5a8bea3979f10ea2451353849acc4790600090a250565b606060018054611c5c906137e3565b80601f0160208091040260200160405190810160405280929190818152602001828054611c88906137e3565b8015611cd55780601f10611caa57610100808354040283529160200191611cd5565b820191906000526020600020905b815481529060010190602001808311611cb857829003601f168201915b505050505090508051600003611d6357600660009054906101000a90046001600160a01b03166001600160a01b031663b47b06006040518163ffffffff1660e01b8152600401600060405180830381865afa158015611d38573d6000803e3d6000fd5b505050506040513d6000823e601f3d908101601f19168201604052611d60919081019061403b565b90505b90565b6006546040516307af8e9f60e31b81526000916001600160a01b031690633d7c74f890611d9790309060040161341f565b602060405180830381865afa158015611db4573d6000803e3d6000fd5b505050506040513d601f19601f82011682018060405250810190611d609190613e90565b6000611de5338484612399565b610f268383612a22565b6005546060906001600160a01b03163314611e1c5760405162461bcd60e51b8152600401610ceb9061385e565b6000846001600160a01b03168484604051611e38929190614094565b6000604051808303816000865af19150503d8060008114611e75576040519150601f19603f3d011682016040523d82523d6000602084013e611e7a565b606091505b50925090508181611e9e5760405162461bcd60e51b8152600401610ceb9190613371565b50509392505050565b6006546001600160a01b03163314611a4e5760405162461bcd60e51b8152600401610ceb906140f0565b6008546001600160a01b0316336001600160a01b03161480611f0b5750611ef6611d66565b6001600160a01b0316336001600160a01b0316145b611f275760405162461bcd60e51b8152600401610ceb90614123565b6001611f34828483613bdf565b507f3e46ff90086ee29856e77591e82c82ff8ed513379b0fd82e84fc5290dd633c998282604051610fdd929190614156565b6060600c805480602002602001604051908101604052809291908181526020018280548015610ca057602002820191906000526020600020905b81546001600160a01b03168152600190910190602001808311611fa0575050505050905090565b6005546001600160a01b03163314611ff15760405162461bcd60e51b8152600401610ceb9061385e565b610f06838383612a2b565b6008546001600160a01b0316336001600160a01b03161461202f5760405162461bcd60e51b8152600401610ceb90613904565b600061203c828483613bdf565b507f13c98778b0c1a086bb98d7f1986e15788b5d3a1ad4c492e1d78f1c4cc51c20cf8282604051610fdd929190614156565b60606009805480602002602001604051908101604052809291908181526020018280548015610ca0576020028201919060005260206000209081546001600160a01b03168152600190910190602001808311611fa0575050505050905090565b6005546001600160a01b031633146120f85760405162461bcd60e51b8152600401610ceb9061385e565b60007f00000000000000000000000000000000000000000000000000000000000000006001600160a01b031663296102526040518163ffffffff1660e01b81526004016020604051808303816000875af115801561215a573d6000803e3d6000fd5b505050506040513d601f19601f8201168201806040525081019061217e91906138a1565b90508060000361218b5750565b6121b57f00000000000000000000000000000000000000000000000000000000000000008261285e565b7f390f4e733d9d6104fbfb7508fdaf57640ea4179603e995d21027fda40e257697816040516121e4919061330b565b60405180910390a1505b565b6005546001600160a01b0316331461221a5760405162461bcd60e51b8152600401610ceb9061385e565b6116e282826122d8565b6001600160a01b03831661224a5760405162461bcd60e51b8152600401610ceb906141a9565b6001600160a01b0382166122705760405162461bcd60e51b8152600401610ceb906141f8565b6001600160a01b0380841660008181526004602090815260408083209487168084529490915290819020849055517f8c5be1e5ebec7d5bd14f71427d1e84f3dd0314c0f7b2291e5b200ac8c7c3b925906122cb90859061330b565b60405180910390a3505050565b6001600160a01b0382166122fe5760405162461bcd60e51b8152600401610ceb90614246565b6001600160a01b03821660009081526003602052604081208054839290612326908490614256565b92505081905550806002600082825461233f9190614256565b90915550506040516000906001600160a01b038416907fddf252ad1be2c89b69c2b068fc378daa952ba7f163c4a11628f55a4df523b3ef9061238290859061330b565b60405180910390a35050565b610f06838383612b16565b600b5460ff161561240957600554604051631f3abfcf60e31b81526001600160a01b039091169063f9d5fe78906123d490869060040161341f565b60006040518083038186803b1580156123ec57600080fd5b505afa158015612400573d6000803e3d6000fd5b50505050505050565b600554604051630979029360e11b81526001600160a01b03909116906312f205269061243d90869086908690600401614269565b600060405180830381600087803b15801561245757600080fd5b505af1158015612400573d6000803e3d6000fd5b6000612478848484612a2b565b6001600160a01b0384166000908152600460209081526040808320338085529252909120546124b39186916124ae908690614256565b612224565b5060019392505050565b6116ab818060200190518101906124d49190613e90565b612b6c565b6116ab818060200190518101906124f09190613e90565b612776565b60008060008380602001905181019061250e9190614284565b92509250925061251f838383612c20565b50505050565b6000808280602001905181019061253c91906142ca565b91509150610f0682826122d8565b6000806000806000858060200190518101906125669190614414565b9450945094509450945061257d8585858585612cf3565b505050505050565b6000808280602001905181019061259c91906142ca565b91509150610f06828261285e565b6116ab818060200190518101906125c19190613e90565b612e25565b6116ab818060200190518101906125dd9190613e90565b612ea9565b6000806000838060200190518101906125fb9190614284565b92509250925061251f838383612a2b565b6000806000838060200190518101906126259190614284565b92509250925061251f8383836126e8565b806001600160a01b03166352d1902d6040518163ffffffff1660e01b8152600401602060405180830381865afa158015612674573d6000803e3d6000fd5b505050506040513d601f19601f8201168201806040525081019061269891906138a1565b7f027b9570e9fedc1a80b937ae9a06861e5faef3992491af30b684a64b3fbec7a5146126d65760405162461bcd60e51b8152600401610ceb90614542565b600080516020614a2e83398151915255565b82306001600160a01b038216036127115760405162461bcd60e51b8152600401610ceb9061457d565b6127256001600160a01b038516848461238e565b826001600160a01b0316846001600160a01b03167f6f9cbac839b826cc524f53d10416c053fce34ec15fd1001720e777cc49720e7684604051612768919061330b565b60405180910390a350505050565b80306001600160a01b0382160361279f5760405162461bcd60e51b8152600401610ceb9061457d565b6001600160a01b0382166000908152600a602052604090205460ff166116e2576127c7612f25565b6001600160a01b0382166000818152600a6020526040808220805460ff191660019081179091556009805491820181559092527f6e1540171b6c0c960b71a7020d9f60077f6af931a8bbf590da0223dacf75c7af90910180546001600160a01b031916909217909155517fa0d2bfad19dc0c6970d2a2fcff65458a6d7c4fa3b6d904f44961b2c744bdf59190610fdd90849061341f565b6001600160a01b0382166128845760405162461bcd60e51b8152600401610ceb906145c1565b806002600082825461289691906145d1565b90915550506001600160a01b038216600090815260036020526040812080548392906128c39084906145d1565b90915550506040516001600160a01b038316906000907fddf252ad1be2c89b69c2b068fc378daa952ba7f163c4a11628f55a4df523b3ef9061238290859061330b565b6001600160a01b03811661292c5760405162461bcd60e51b8152600401610ceb9061462d565b600580546001600160a01b038381166001600160a01b03198316179092556040519116907fb5a9def940973a936e331170816650368964b0602957d4bc60f5ddc2dc1b69cd90610fdd908390859061395b565b6001600160a01b0381166129a55760405162461bcd60e51b8152600401610ceb90614680565b6008546001600160a01b039081169082168190036129d55760405162461bcd60e51b8152600401610ceb906146d8565b600880546001600160a01b0319166001600160a01b0384161790556040517f342827c97908e5e2f71151c08502a66d44b6f758e3ac2f1de95f02eb95f0a73590610fdd908390859061395b565b6000610cb73384845b6001600160a01b038316612a515760405162461bcd60e51b8152600401610ceb9061472a565b6001600160a01b038216612a775760405162461bcd60e51b8152600401610ceb9061477a565b6001600160a01b03831660009081526003602052604081208054839290612a9f908490614256565b90915550506001600160a01b03821660009081526003602052604081208054839290612acc9084906145d1565b92505081905550816001600160a01b0316836001600160a01b03167fddf252ad1be2c89b69c2b068fc378daa952ba7f163c4a11628f55a4df523b3ef836040516122cb919061330b565b610f068363a9059cbb60e01b8484604051602401612b3592919061478a565b60408051601f198184030181529190526020810180516001600160e01b03166001600160e01b031990931692909217909152612f73565b6001600160a01b0381166000908152600e602052604090205460ff166116ab57612b94612f25565b6001600160a01b0381166000818152600e6020526040808220805460ff19166001908117909155600c8054918201815583527fdf6966c971051c3d54ec59162606531493a51404a002842f56009d7e5cf4a8c70180546001600160a01b03191684179055517f07524f5de87a754cb09f25965c3355b50dfece5fa624111739d5bf5caa05ebe69190a250565b82306001600160a01b03821603612c495760405162461bcd60e51b8152600401610ceb9061457d565b604051636eb1769f60e11b815284906000906001600160a01b0383169063dd62ed3e90612c7c903090899060040161395b565b602060405180830381865afa158015612c99573d6000803e3d6000fd5b505050506040513d601f19601f82011682018060405250810190612cbd91906138a1565b1115612cd857612cd86001600160a01b038216856000613002565b612cec6001600160a01b0382168585613002565b5050505050565b6001600160a01b0385166000908152600e602052604090205460ff16612d2b5760405162461bcd60e51b8152600401610ceb906147ff565b60005b8351811015612d8657612d74848281518110612d4c57612d4c61398c565b602002602001015187858481518110612d6757612d6761398c565b60200260200101516126e8565b80612d7e81613a11565b915050612d2e565b5060405163e5c23a9760e01b81526001600160a01b0386169063e5c23a9790612db3908790600401613371565b600060405180830381600087803b158015612dcd57600080fd5b505af1158015612de1573d6000803e3d6000fd5b5050505060005b815181101561257d57612e13828281518110612e0657612e0661398c565b6020026020010151612776565b80612e1d81613a11565b915050612de8565b6001600160a01b0381166000908152600e602052604090205460ff16156116ab576001600160a01b0381166000908152600e60205260409020805460ff19169055612e71600c8261300d565b506040516001600160a01b038216907f5af401380f7c5a87ba294191b430d5c1c6dcc133c1d774c092cb0d6a52e20bef90600090a250565b6001600160a01b0381166000908152600a602052604090205460ff16156116ab576001600160a01b0381166000908152600a60205260409020805460ff19169055612ef560098261300d565b507f22c4fcf23b40d39b02733ec19a3975b31172f2a5b2ce5d0f1831525276cd7156816040516121e4919061341f565b7f0000000000000000000000000000000000000000000000000000000000000000600c54600954612f5691906145d1565b106121ee5760405162461bcd60e51b8152600401610ceb90614854565b6000612fc8826040518060400160405280602081526020017f5361666545524332303a206c6f772d6c6576656c2063616c6c206661696c6564815250856001600160a01b03166131349092919063ffffffff16565b805190915015610f065780806020019051810190612fe69190614877565b610f065760405162461bcd60e51b8152600401610ceb906148df565b610f06838383613143565b8154600090815b8181101561312c57836001600160a01b03168582815481106130385761303861398c565b6000918252602090912001546001600160a01b03160361311a5761305d600183614256565b8110156130df5784613070600184614256565b815481106130805761308061398c565b9060005260206000200160009054906101000a90046001600160a01b03168582815481106130b0576130b061398c565b9060005260206000200160006101000a8154816001600160a01b0302191690836001600160a01b031602179055505b848054806130ef576130ef6148ef565b600082815260209020810160001990810180546001600160a01b03191690550190556001925061312c565b8061312481613a11565b915050613014565b505092915050565b6060610f2384846000856131f7565b8015806131bc5750604051636eb1769f60e11b81526001600160a01b0384169063dd62ed3e90613179903090869060040161395b565b602060405180830381865afa158015613196573d6000803e3d6000fd5b505050506040513d601f19601f820116820180604052508101906131ba91906138a1565b155b6131d85760405162461bcd60e51b8152600401610ceb90614958565b610f068363095ea7b360e01b8484604051602401612b3592919061478a565b6060824710156132195760405162461bcd60e51b8152600401610ceb906149ab565b600080866001600160a01b0316858760405161323591906149dd565b60006040518083038185875af1925050503d8060008114613272576040519150601f19603f3d011682016040523d82523d6000602084013e613277565b606091505b509150915061328887838387613295565b925050505b949350505050565b606083156132d45782516000036132cd576001600160a01b0385163b6132cd5760405162461bcd60e51b8152600401610ceb90614a1d565b508161328d565b61328d83838151156132e95781518083602001fd5b8060405162461bcd60e51b8152600401610ceb9190613371565b805b82525050565b60208101610cbb8284613303565b60005b8381101561333457818101518382015260200161331c565b50506000910152565b6000613347825190565b80845260208401935061335e818560208601613319565b601f19601f8201165b9093019392505050565b60208082528101610f26818461333d565b60006001600160a01b038216610cbb565b61339c81613382565b81146116ab57600080fd5b8035610cbb81613393565b8061339c565b8035610cbb816133b2565b600080604083850312156133d9576133d9600080fd5b60006133e585856133a7565b92505060206133f6858286016133b8565b9150509250929050565b801515613305565b60208101610cbb8284613400565b61330581613382565b60208101610cbb8284613416565b60008060006060848603121561344557613445600080fd5b600061345186866133b8565b9350506020613462868287016133b8565b9250506040613473868287016133b8565b9150509250925092565b60008060006060848603121561349557613495600080fd5b60006134a186866133a7565b9350506020613462868287016133a7565b6000602082840312156134c7576134c7600080fd5b600061328d84846133a7565b600b81106116ab57600080fd5b8035610cbb816134d3565b60008083601f84011261350057613500600080fd5b5081356001600160401b0381111561351a5761351a600080fd5b60208301915083600182028301111561353557613535600080fd5b9250929050565b60008060006040848603121561355457613554600080fd5b600061356086866134e0565b93505060208401356001600160401b0381111561357f5761357f600080fd5b61358b868287016134eb565b92509250509250925092565b60ff8116613305565b60208101610cbb8284613597565b60008083601f8401126135c3576135c3600080fd5b5081356001600160401b038111156135dd576135dd600080fd5b60208301915083602082028301111561353557613535600080fd5b6000806020838503121561360e5761360e600080fd5b82356001600160401b0381111561362757613627600080fd5b613633858286016135ae565b92509250509250929050565b6000806000806060858703121561365857613658600080fd5b600061366487876133a7565b9450506020613675878288016133a7565b93505060408501356001600160401b0381111561369457613694600080fd5b6136a0878288016134eb565b95989497509550505050565b6000602082840312156136c1576136c1600080fd5b600061328d84846133b8565b6000806000604084860312156136e5576136e5600080fd5b600061356086866133a7565b6000806020838503121561370757613707600080fd5b82356001600160401b0381111561372057613720600080fd5b613633858286016134eb565b60006137388383613416565b505060200190565b600061374a825190565b80845260209384019383018060005b8381101561377e57815161376d888261372c565b975060208301925050600101613759565b509495945050505050565b60208082528101610f268184613740565b600080604083850312156137b0576137b0600080fd5b60006137bc85856133a7565b92505060206133f6858286016133a7565b634e487b7160e01b600052602260045260246000fd5b6002810460018216806137f757607f821691505b602082108103613809576138096137cd565b50919050565b602f81526000602082017f4f6e6c79207468652064657369676e61746564206163636573736f722063616e81526e081b585ad9481d1a1a5cc818d85b1b608a1b602082015291505b5060400190565b60208082528101610cbb8161380f565b6060810161387c8286613303565b6138896020830185613303565b61328d6040830184613303565b8051610cbb816133b2565b6000602082840312156138b6576138b6600080fd5b600061328d8484613896565b602581526000602082017f4f6e6c7920746865206f776e65722063616e2063616c6c20746869732066756e81526431ba34b7b760d91b60208201529150613857565b60208082528101610cbb816138c2565b601e81526000602082017f7365744d69677261746f723a2056616c756520616c7265616479207365740000815291505b5060200190565b60208082528101610cbb81613914565b604081016139698285613416565b610f266020830184613416565b634e487b7160e01b600052602160045260246000fd5b634e487b7160e01b600052603260045260246000fd5b602c81526000602082017f61646441737365744d616e61676572733a204d616e6167657220616c7265616481526b1e481c9959da5cdd195c995960a21b60208201529150613857565b60208082528101610cbb816139a2565b634e487b7160e01b600052601160045260246000fd5b60006000198203613a2457613a246139fb565b5060010190565b603281526000602082017f7365745661756c744c69623a204f6e6c792063616c6c61626c65206279207468815271329031b7b73a3930b1ba1031b932b0ba37b960711b60208201529150613857565b60208082528101610cbb81613a2b565b603e81526000602082017f636c61696d4f776e6572736869703a204f6e6c7920746865206e6f6d696e617481527f65644f776e65722063616e2063616c6c20746869732066756e6374696f6e000060208201529150613857565b60208082528101610cbb81613a8a565b601f81526000602082017f696e69743a2050726f787920616c726561647920696e697469616c697a65640081529150613944565b60208082528101610cbb81613af4565b634e487b7160e01b600052604160045260246000fd5b6000610cbb611d638381565b613b6383613b4e565b815460001960089490940293841b1916921b91909117905550565b6000610f06818484613b5a565b818110156116e257613b9e600082613b7e565b600101613b8b565b601f821115610f06576000818152602090206020601f85010481016020851015613bcd5750805b612cec6020601f860104830182613b8b565b826001600160401b03811115613bf757613bf7613b38565b613c0182546137e3565b613c0c828285613ba6565b6000601f831160018114613c405760008415613c285750858201355b600019600886021c1981166002860217865550612400565b600085815260208120601f198616915b82811015613c705788850135825560209485019460019092019101613c50565b86831015613c8c57600019601f88166008021c19858a01351682555b60016002880201885550505050505050505050565b602b81526000602082017f72656d6f766541737365744d616e61676572733a204d616e61676572206e6f7481526a081c9959da5cdd195c995960aa1b60208201529150613857565b60208082528101610cbb81613ca1565b603681526000602082017f7365744e6f6d696e617465644f776e65723a205f6e6578744e6f6d696e617465815275644f776e65722063616e6e6f7420626520656d70747960501b60208201529150613857565b60208082528101610cbb81613cf9565b603b81526000602082017f7365744e6f6d696e617465644f776e65723a205f6e6578744e6f6d696e61746581527f644f776e657220697320616c726561647920746865206f776e6572000000000060208201529150613857565b60208082528101610cbb81613d5c565b603b81526000602082017f7365744e6f6d696e617465644f776e65723a205f6e6578744e6f6d696e61746581527f644f776e657220697320616c7265616479206e6f6d696e61746564000000000060208201529150613857565b60208082528101610cbb81613dc6565b602881526000602082017f4f6e6c79207468652046756e644465706c6f7965722063616e206d616b6520748152671a1a5cc818d85b1b60c21b60208201529150613857565b60208082528101610cbb81613e30565b8051610cbb81613393565b600060208284031215613ea557613ea5600080fd5b600061328d8484613e85565b602881526000602082017f736574467265656c795472616e7366657261626c655368617265733a20416c728152671958591e481cd95d60c21b60208201529150613857565b60208082528101610cbb81613eb1565b603181526000602082017f72656d6f76654e6f6d696e617465644f776e65723a205468657265206973206e81527037903737b6b4b730ba32b21037bbb732b960791b60208201529150613857565b60208082528101610cbb81613f06565b601f19601f83011681018181106001600160401b0382111715613f8957613f89613b38565b6040525050565b6000613f9b60405190565b9050613fa78282613f64565b919050565b60006001600160401b03821115613fc557613fc5613b38565b601f19601f83011660200192915050565b6000613fe9613fe484613fac565b613f90565b90508281526020810184848401111561400457614004600080fd5b61400f848285613319565b509392505050565b600082601f83011261402b5761402b600080fd5b815161328d848260208601613fd6565b60006020828403121561405057614050600080fd5b81516001600160401b0381111561406957614069600080fd5b61328d84828501614017565b82818337506000910152565b600061408e838584614075565b50500190565b600061328d828486614081565b603281526000602082017f7365744163636573736f723a204f6e6c792063616c6c61626c65206279207468815271329031b7b73a3930b1ba1031b932b0ba37b960711b60208201529150613857565b60208082528101610cbb816140a1565b600c81526000602082016b155b985d5d1a1bdc9a5e995960a21b81529150613944565b60208082528101610cbb81614100565b8183526000602084019350614149838584614075565b601f19601f840116613367565b60208082528101610f23818486614133565b602481526000602082017f45524332303a20617070726f76652066726f6d20746865207a65726f206164648152637265737360e01b60208201529150613857565b60208082528101610cbb81614168565b602281526000602082017f45524332303a20617070726f766520746f20746865207a65726f206164647265815261737360f01b60208201529150613857565b60208082528101610cbb816141b9565b602181526000602082017f45524332303a206275726e2066726f6d20746865207a65726f206164647265738152607360f81b60208201529150613857565b60208082528101610cbb81614208565b81810381811115610cbb57610cbb6139fb565b606081016142778286613416565b6138896020830185613416565b60008060006060848603121561429c5761429c600080fd5b60006142a88686613e85565b93505060206142b986828701613e85565b925050604061347386828701613896565b600080604083850312156142e0576142e0600080fd5b60006142ec8585613e85565b92505060206133f685828601613896565b60006001600160401b0382111561431657614316613b38565b5060209081020190565b600061432e613fe4846142fd565b8381529050602080820190840283018581111561434d5761434d600080fd5b835b8181101561437157806143628882613e85565b8452506020928301920161434f565b5050509392505050565b600082601f83011261438f5761438f600080fd5b815161328d848260208601614320565b60006143ad613fe4846142fd565b838152905060208082019084028301858111156143cc576143cc600080fd5b835b8181101561437157806143e18882613896565b845250602092830192016143ce565b600082601f83011261440457614404600080fd5b815161328d84826020860161439f565b600080600080600060a0868803121561442f5761442f600080fd5b600061443b8888613e85565b95505060208601516001600160401b0381111561445a5761445a600080fd5b61446688828901614017565b94505060408601516001600160401b0381111561448557614485600080fd5b6144918882890161437b565b93505060608601516001600160401b038111156144b0576144b0600080fd5b6144bc888289016143f0565b92505060808601516001600160401b038111156144db576144db600080fd5b6144e78882890161437b565b9150509295509295909350565b603181526000602082017f5f5f757064617465436f6465416464726573733a205f6e6578745661756c744c8152706962206e6f7420636f6d70617469626c6560781b60208201529150613857565b60208082528101610cbb816144f4565b601481526000602082017343616e6e6f7420616374206f6e2073686172657360601b81529150613944565b60208082528101610cbb81614552565b601f81526000602082017f45524332303a206d696e7420746f20746865207a65726f20616464726573730081529150613944565b60208082528101610cbb8161458d565b80820180821115610cbb57610cbb6139fb565b602c81526000602082017f5f5f7365744163636573736f723a205f6e6578744163636573736f722063616e81526b6e6f7420626520656d70747960a01b60208201529150613857565b60208082528101610cbb816145e4565b602681526000602082017f5f5f7365744f776e65723a205f6e6578744f776e65722063616e6e6f7420626581526520656d70747960d01b60208201529150613857565b60208082528101610cbb8161463d565b602b81526000602082017f5f5f7365744f776e65723a205f6e6578744f776e65722069732074686520637581526a393932b73a1037bbb732b960a91b60208201529150613857565b60208082528101610cbb81614690565b602581526000602082017f45524332303a207472616e736665722066726f6d20746865207a65726f206164815264647265737360d81b60208201529150613857565b60208082528101610cbb816146e8565b602381526000602082017f45524332303a207472616e7366657220746f20746865207a65726f206164647281526265737360e81b60208201529150613857565b60208082528101610cbb8161473a565b604081016147988285613416565b610f266020830184613303565b603981526000602082017f5f5f63616c6c4f6e45787465726e616c506f736974696f6e3a204e6f7420616e81527f206163746976652065787465726e616c20706f736974696f6e0000000000000060208201529150613857565b60208082528101610cbb816147a5565b602881526000602082017f5f5f76616c6964617465506f736974696f6e734c696d69743a204c696d697420815267195e18d95959195960c21b60208201529150613857565b60208082528101610cbb8161480f565b80151561339c565b8051610cbb81614864565b60006020828403121561488c5761488c600080fd5b600061328d848461486c565b602a81526000602082017f5361666545524332303a204552433230206f7065726174696f6e20646964206e8152691bdd081cdd58d8d9595960b21b60208201529150613857565b60208082528101610cbb81614898565b634e487b7160e01b600052603160045260246000fd5b603681526000602082017f5361666545524332303a20617070726f76652066726f6d206e6f6e2d7a65726f81527520746f206e6f6e2d7a65726f20616c6c6f77616e636560501b60208201529150613857565b60208082528101610cbb81614905565b602681526000602082017f416464726573733a20696e73756666696369656e742062616c616e636520666f8152651c8818d85b1b60d21b60208201529150613857565b60208082528101610cbb81614968565b60006149c5825190565b6149d3818560208601613319565b9290920192915050565b6000610f2682846149bb565b601d81526000602082017f416464726573733a2063616c6c20746f206e6f6e2d636f6e747261637400000081529150613944565b60208082528101610cbb816149e956fe360894a13ba1a3210667c828492db98dca3e2076cc3735a920a3ca505d382bbc","linkReferences":{}},"methodIdentifiers":{"addAssetManagers(address[])":"3e11553d","addTrackedAsset(address)":"4ef0762e","allowance(address,address)":"dd62ed3e","approve(address,uint256)":"095ea7b3","balanceOf(address)":"70a08231","burnShares(address,uint256)":"ee7a7c04","buyBackProtocolFeeShares(uint256,uint256,uint256)":"1ff46bfa","callOnContract(address,bytes)":"a90cce4b","canManageAssets(address)":"714ca2d1","canMigrate(address)":"7de07cea","canRelayCalls(address)":"36861889","claimOwnership()":"4e71e0c8","decimals()":"313ce567","getAccessor()":"5a53e348","getActiveExternalPositions()":"b8b7f147","getCreator()":"0ee2cb10","getExternalPositionLibForType(uint256)":"75d8bb0e","getExternalPositionManager()":"b3fc38e9","getFundDeployer()":"97c0ac87","getMigrator()":"cd63d578","getMlnBurner()":"fe15c02a","getMlnToken()":"e70e605e","getNominatedOwner()":"288b6a36","getOwner()":"893d20e8","getPositionsLimit()":"ff3cdf56","getProtocolFeeReserve()":"da41962e","getProtocolFeeTracker()":"749cc8f5","getTrackedAssets()":"c4b97370","getVaultLib()":"682cea19","getWethToken()":"4c252f91","init(address,address,string)":"5c9a6d37","isActiveExternalPosition(address)":"712bd102","isAssetManager(address)":"6487aa11","isTrackedAsset(address)":"797ed339","mintShares(address,uint256)":"528c198a","name()":"06fdde03","payProtocolFee()":"d5c20fa2","proxiableUUID()":"52d1902d","receiveValidatedVaultAction(uint8,bytes)":"24e60012","removeAssetManagers(address[])":"64cb36cb","removeNominatedOwner()":"8156eecf","setAccessor(address)":"ab9253ac","setAccessorForFundReconfiguration(address)":"740f2b5a","setFreelyTransferableShares()":"7c81ac2d","setMigrator(address)":"23cf3118","setName(string)":"c47f0027","setNominatedOwner(address)":"728e17a0","setSymbol(string)":"b84c8246","setVaultLib(address)":"4140d607","sharesAreFreelyTransferable()":"28c2ad9c","symbol()":"95d89b41","totalSupply()":"18160ddd","transfer(address,uint256)":"a9059cbb","transferFrom(address,address,uint256)":"23b872dd","transferShares(address,address,uint256)":"bfc77beb","withdrawAssetTo(address,address,uint256)":"495d753c"},"id":101}