{"abi":[{"type":"constructor","inputs":[{"name":"_externalPositionManager","type":"address","internalType":"address"},{"name":"_protocolFeeReserve","type":"address","internalType":"address"},{"name":"_protocolFeeTracker","type":"address","internalType":"address"},{"name":"_mlnToken","type":"address","internalType":"address"},{"name":"_mlnBurner","type":"address","internalType":"address"},{"name":"_wethToken","type":"address","internalType":"address"},{"name":"_positionsLimit","type":"uint256","internalType":"uint256"}],"stateMutability":"nonpayable"},{"type":"receive","stateMutability":"payable"},{"type":"function","name":"addAssetManagers","inputs":[{"name":"_managers","type":"address[]","internalType":"address[]"}],"outputs":[],"stateMutability":"nonpayable"},{"type":"function","name":"addTrackedAsset","inputs":[{"name":"_asset","type":"address","internalType":"address"}],"outputs":[],"stateMutability":"nonpayable"},{"type":"function","name":"allowance","inputs":[{"name":"_owner","type":"address","internalType":"address"},{"name":"_spender","type":"address","internalType":"address"}],"outputs":[{"name":"","type":"uint256","internalType":"uint256"}],"stateMutability":"view"},{"type":"function","name":"approve","inputs":[{"name":"_spender","type":"address","internalType":"address"},{"name":"_amount","type":"uint256","internalType":"uint256"}],"outputs":[{"name":"","type":"bool","internalType":"bool"}],"stateMutability":"nonpayable"},{"type":"function","name":"balanceOf","inputs":[{"name":"_account","type":"address","internalType":"address"}],"outputs":[{"name":"","type":"uint256","internalType":"uint256"}],"stateMutability":"view"},{"type":"function","name":"burnShares","inputs":[{"name":"_target","type":"address","internalType":"address"},{"name":"_amount","type":"uint256","internalType":"uint256"}],"outputs":[],"stateMutability":"nonpayable"},{"type":"function","name":"buyBackProtocolFeeShares","inputs":[{"name":"_sharesAmount","type":"uint256","internalType":"uint256"},{"name":"_mlnValue","type":"uint256","internalType":"uint256"},{"name":"_gav","type":"uint256","internalType":"uint256"}],"outputs":[],"stateMutability":"nonpayable"},{"type":"function","name":"callOnContract","inputs":[{"name":"_contract","type":"address","internalType":"address"},{"name":"_callData","type":"bytes","internalType":"bytes"}],"outputs":[{"name":"returnData_","type":"bytes","internalType":"bytes"}],"stateMutability":"nonpayable"},{"type":"function","name":"canManageAssets","inputs":[{"name":"_who","type":"address","internalType":"address"}],"outputs":[{"name":"canManageAssets_","type":"bool","internalType":"bool"}],"stateMutability":"view"},{"type":"function","name":"canMigrate","inputs":[{"name":"_who","type":"address","internalType":"address"}],"outputs":[{"name":"canMigrate_","type":"bool","internalType":"bool"}],"stateMutability":"view"},{"type":"function","name":"canRelayCalls","inputs":[{"name":"_who","type":"address","internalType":"address"}],"outputs":[{"name":"canRelayCalls_","type":"bool","internalType":"bool"}],"stateMutability":"view"},{"type":"function","name":"claimOwnership","inputs":[],"outputs":[],"stateMutability":"nonpayable"},{"type":"function","name":"decimals","inputs":[],"outputs":[{"name":"","type":"uint8","internalType":"uint8"}],"stateMutability":"pure"},{"type":"function","name":"getAccessor","inputs":[],"outputs":[{"name":"accessor_","type":"address","internalType":"address"}],"stateMutability":"view"},{"type":"function","name":"getActiveExternalPositions","inputs":[],"outputs":[{"name":"activeExternalPositions_","type":"address[]","internalType":"address[]"}],"stateMutability":"view"},{"type":"function","name":"getCreator","inputs":[],"outputs":[{"name":"creator_","type":"address","internalType":"address"}],"stateMutability":"view"},{"type":"function","name":"getExternalPositionLibForType","inputs":[{"name":"_typeId","type":"uint256","internalType":"uint256"}],"outputs":[{"name":"externalPositionLib_","type":"address","internalType":"address"}],"stateMutability":"view"},{"type":"function","name":"getExternalPositionManager","inputs":[],"outputs":[{"name":"externalPositionManager_","type":"address","internalType":"address"}],"stateMutability":"view"},{"type":"function","name":"getFundDeployer","inputs":[],"outputs":[{"name":"fundDeployer_","type":"address","internalType":"address"}],"stateMutability":"view"},{"type":"function","name":"getMigrator","inputs":[],"outputs":[{"name":"migrator_","type":"address","internalType":"address"}],"stateMutability":"view"},{"type":"function","name":"getMlnBurner","inputs":[],"outputs":[{"name":"mlnBurner_","type":"address","internalType":"address"}],"stateMutability":"view"},{"type":"function","name":"getMlnToken","inputs":[],"outputs":[{"name":"mlnToken_","type":"address","internalType":"address"}],"stateMutability":"view"},{"type":"function","name":"getNominatedOwner","inputs":[],"outputs":[{"name":"nominatedOwner_","type":"address","internalType":"address"}],"stateMutability":"view"},{"type":"function","name":"getOwner","inputs":[],"outputs":[{"name":"owner_","type":"address","internalType":"address"}],"stateMutability":"view"},{"type":"function","name":"getPositionsLimit","inputs":[],"outputs":[{"name":"positionsLimit_","type":"uint256","internalType":"uint256"}],"stateMutability":"view"},{"type":"function","name":"getProtocolFeeReserve","inputs":[],"outputs":[{"name":"protocolFeeReserve_","type":"address","internalType":"address"}],"stateMutability":"view"},{"type":"function","name":"getProtocolFeeTracker","inputs":[],"outputs":[{"name":"protocolFeeTracker_","type":"address","internalType":"address"}],"stateMutability":"view"},{"type":"function","name":"getTrackedAssets","inputs":[],"outputs":[{"name":"trackedAssets_","type":"address[]","internalType":"address[]"}],"stateMutability":"view"},{"type":"function","name":"getVaultLib","inputs":[],"outputs":[{"name":"vaultLib_","type":"address","internalType":"address"}],"stateMutability":"view"},{"type":"function","name":"getWethToken","inputs":[],"outputs":[{"name":"wethToken_","type":"address","internalType":"address"}],"stateMutability":"view"},{"type":"function","name":"init","inputs":[{"name":"_owner","type":"address","internalType":"address"},{"name":"_accessor","type":"address","internalType":"address"},{"name":"_fundName","type":"string","internalType":"string"}],"outputs":[],"stateMutability":"nonpayable"},{"type":"function","name":"isActiveExternalPosition","inputs":[{"name":"_externalPosition","type":"address","internalType":"address"}],"outputs":[{"name":"isActiveExternalPosition_","type":"bool","internalType":"bool"}],"stateMutability":"view"},{"type":"function","name":"isAssetManager","inputs":[{"name":"_who","type":"address","internalType":"address"}],"outputs":[{"name":"isAssetManager_","type":"bool","internalType":"bool"}],"stateMutability":"view"},{"type":"function","name":"isTrackedAsset","inputs":[{"name":"_asset","type":"address","internalType":"address"}],"outputs":[{"name":"isTrackedAsset_","type":"bool","internalType":"bool"}],"stateMutability":"view"},{"type":"function","name":"mintShares","inputs":[{"name":"_target","type":"address","internalType":"address"},{"name":"_amount","type":"uint256","internalType":"uint256"}],"outputs":[],"stateMutability":"nonpayable"},{"type":"function","name":"name","inputs":[],"outputs":[{"name":"","type":"string","internalType":"string"}],"stateMutability":"view"},{"type":"function","name":"payProtocolFee","inputs":[],"outputs":[],"stateMutability":"nonpayable"},{"type":"function","name":"proxiableUUID","inputs":[],"outputs":[{"name":"uuid_","type":"bytes32","internalType":"bytes32"}],"stateMutability":"pure"},{"type":"function","name":"receiveValidatedVaultAction","inputs":[{"name":"_action","type":"uint8","internalType":"enum IVault.VaultAction"},{"name":"_actionData","type":"bytes","internalType":"bytes"}],"outputs":[],"stateMutability":"nonpayable"},{"type":"function","name":"removeAssetManagers","inputs":[{"name":"_managers","type":"address[]","internalType":"address[]"}],"outputs":[],"stateMutability":"nonpayable"},{"type":"function","name":"removeNominatedOwner","inputs":[],"outputs":[],"stateMutability":"nonpayable"},{"type":"function","name":"setAccessor","inputs":[{"name":"_nextAccessor","type":"address","internalType":"address"}],"outputs":[],"stateMutability":"nonpayable"},{"type":"function","name":"setAccessorForFundReconfiguration","inputs":[{"name":"_nextAccessor","type":"address","internalType":"address"}],"outputs":[],"stateMutability":"nonpayable"},{"type":"function","name":"setFreelyTransferableShares","inputs":[],"outputs":[],"stateMutability":"nonpayable"},{"type":"function","name":"setMigrator","inputs":[{"name":"_nextMigrator","type":"address","internalType":"address"}],"outputs":[],"stateMutability":"nonpayable"},{"type":"function","name":"setName","inputs":[{"name":"_nextName","type":"string","internalType":"string"}],"outputs":[],"stateMutability":"nonpayable"},{"type":"function","name":"setNominatedOwner","inputs":[{"name":"_nextNominatedOwner","type":"address","internalType":"address"}],"outputs":[],"stateMutability":"nonpayable"},{"type":"function","name":"setSymbol","inputs":[{"name":"_nextSymbol","type":"string","internalType":"string"}],"outputs":[],"stateMutability":"nonpayable"},{"type":"function","name":"setVaultLib","inputs":[{"name":"_nextVaultLib","type":"address","internalType":"address"}],"outputs":[],"stateMutability":"nonpayable"},{"type":"function","name":"sharesAreFreelyTransferable","inputs":[],"outputs":[{"name":"sharesAreFreelyTransferable_","type":"bool","internalType":"bool"}],"stateMutability":"view"},{"type":"function","name":"symbol","inputs":[],"outputs":[{"name":"symbol_","type":"string","internalType":"string"}],"stateMutability":"view"},{"type":"function","name":"totalSupply","inputs":[],"outputs":[{"name":"","type":"uint256","internalType":"uint256"}],"stateMutability":"view"},{"type":"function","name":"transfer","inputs":[{"name":"_recipient","type":"address","internalType":"address"},{"name":"_amount","type":"uint256","internalType":"uint256"}],"outputs":[{"name":"success_","type":"bool","internalType":"bool"}],"stateMutability":"nonpayable"},{"type":"function","name":"transferFrom","inputs":[{"name":"_sender","type":"address","internalType":"address"},{"name":"_recipient","type":"address","internalType":"address"},{"name":"_amount","type":"uint256","internalType":"uint256"}],"outputs":[{"name":"success_","type":"bool","internalType":"bool"}],"stateMutability":"nonpayable"},{"type":"function","name":"transferShares","inputs":[{"name":"_from","type":"address","internalType":"address"},{"name":"_to","type":"address","internalType":"address"},{"name":"_amount","type":"uint256","internalType":"uint256"}],"outputs":[],"stateMutability":"nonpayable"},{"type":"function","name":"withdrawAssetTo","inputs":[{"name":"_asset","type":"address","internalType":"address"},{"name":"_target","type":"address","internalType":"address"},{"name":"_amount","type":"uint256","internalType":"uint256"}],"outputs":[],"stateMutability":"nonpayable"},{"type":"event","name":"AccessorSet","inputs":[{"name":"prevAccessor","type":"address","indexed":false,"internalType":"address"},{"name":"nextAccessor","type":"address","indexed":false,"internalType":"address"}],"anonymous":false},{"type":"event","name":"Approval","inputs":[{"name":"owner","type":"address","indexed":true,"internalType":"address"},{"name":"spender","type":"address","indexed":true,"internalType":"address"},{"name":"value","type":"uint256","indexed":false,"internalType":"uint256"}],"anonymous":false},{"type":"event","name":"AssetManagerAdded","inputs":[{"name":"manager","type":"address","indexed":false,"internalType":"address"}],"anonymous":false},{"type":"event","name":"AssetManagerRemoved","inputs":[{"name":"manager","type":"address","indexed":false,"internalType":"address"}],"anonymous":false},{"type":"event","name":"AssetWithdrawn","inputs":[{"name":"asset","type":"address","indexed":true,"internalType":"address"},{"name":"target","type":"address","indexed":true,"internalType":"address"},{"name":"amount","type":"uint256","indexed":false,"internalType":"uint256"}],"anonymous":false},{"type":"event","name":"EthReceived","inputs":[{"name":"sender","type":"address","indexed":true,"internalType":"address"},{"name":"amount","type":"uint256","indexed":false,"internalType":"uint256"}],"anonymous":false},{"type":"event","name":"ExternalPositionAdded","inputs":[{"name":"externalPosition","type":"address","indexed":true,"internalType":"address"}],"anonymous":false},{"type":"event","name":"ExternalPositionRemoved","inputs":[{"name":"externalPosition","type":"address","indexed":true,"internalType":"address"}],"anonymous":false},{"type":"event","name":"FreelyTransferableSharesSet","inputs":[],"anonymous":false},{"type":"event","name":"MigratorSet","inputs":[{"name":"prevMigrator","type":"address","indexed":false,"internalType":"address"},{"name":"nextMigrator","type":"address","indexed":false,"internalType":"address"}],"anonymous":false},{"type":"event","name":"NameSet","inputs":[{"name":"name","type":"string","indexed":false,"internalType":"string"}],"anonymous":false},{"type":"event","name":"NominatedOwnerRemoved","inputs":[{"name":"nominatedOwner","type":"address","indexed":true,"internalType":"address"}],"anonymous":false},{"type":"event","name":"NominatedOwnerSet","inputs":[{"name":"nominatedOwner","type":"address","indexed":true,"internalType":"address"}],"anonymous":false},{"type":"event","name":"OwnerSet","inputs":[{"name":"prevOwner","type":"address","indexed":false,"internalType":"address"},{"name":"nextOwner","type":"address","indexed":false,"internalType":"address"}],"anonymous":false},{"type":"event","name":"OwnershipTransferred","inputs":[{"name":"prevOwner","type":"address","indexed":true,"internalType":"address"},{"name":"nextOwner","type":"address","indexed":true,"internalType":"address"}],"anonymous":false},{"type":"event","name":"ProtocolFeePaidInShares","inputs":[{"name":"sharesAmount","type":"uint256","indexed":false,"internalType":"uint256"}],"anonymous":false},{"type":"event","name":"ProtocolFeeSharesBoughtBack","inputs":[{"name":"sharesAmount","type":"uint256","indexed":false,"internalType":"uint256"},{"name":"mlnValue","type":"uint256","indexed":false,"internalType":"uint256"},{"name":"mlnBurned","type":"uint256","indexed":false,"internalType":"uint256"}],"anonymous":false},{"type":"event","name":"SymbolSet","inputs":[{"name":"symbol","type":"string","indexed":false,"internalType":"string"}],"anonymous":false},{"type":"event","name":"TrackedAssetAdded","inputs":[{"name":"asset","type":"address","indexed":false,"internalType":"address"}],"anonymous":false},{"type":"event","name":"TrackedAssetRemoved","inputs":[{"name":"asset","type":"address","indexed":false,"internalType":"address"}],"anonymous":false},{"type":"event","name":"Transfer","inputs":[{"name":"from","type":"address","indexed":true,"internalType":"address"},{"name":"to","type":"address","indexed":true,"internalType":"address"},{"name":"value","type":"uint256","indexed":false,"internalType":"uint256"}],"anonymous":false},{"type":"event","name":"VaultLibSet","inputs":[{"name":"prevVaultLib","type":"address","indexed":false,"internalType":"address"},{"name":"nextVaultLib","type":"address","indexed":false,"internalType":"address"}],"anonymous":false}],"bytecode":{"object":"0x6101606040523480156200001257600080fd5b506040516200472238038062004722833981016040819052620000359162000087565b6001600160a01b0396871660805291861660a05291851660c05260e05291831661010052821661012052166101405262000113565b80516001600160a01b03811681146200008257600080fd5b919050565b600080600080600080600060e0888a031215620000a357600080fd5b620000ae886200006a565b9650620000be602089016200006a565b9550620000ce604089016200006a565b9450620000de606089016200006a565b9350620000ee608089016200006a565b9250620000fe60a089016200006a565b915060c0880151905092959891949750929550565b60805160a05160c05160e051610100516101205161014051614567620001bb60003960008181610378015261063b01526000818161087e01526124f1015260008181610af901528181610cfc01528181610dab0152612585015260008181610bf80152613604015260008181610b7201528181610e1c0152610e8a015260008181610bc501528181610dda0152610eac0152600081816109fc0152611d8101526145676000f3fe60806040526004361061036f5760003560e01c8063728e17a0116101c6578063b3fc38e9116100f7578063d5c20fa211610095578063e70e605e1161006f578063e70e605e14610b63578063ee7a7c0414610b96578063fe15c02a14610bb6578063ff3cdf5614610be957600080fd5b8063d5c20fa214610ad5578063da41962e14610aea578063dd62ed3e14610b1d57600080fd5b8063bfc77beb116100d1578063bfc77beb14610a62578063c47f002714610a82578063c4b9737014610aa2578063cd63d57814610ab757600080fd5b8063b3fc38e9146109ed578063b84c824614610a20578063b8b7f14714610a4057600080fd5b80638156eecf1161016457806397c0ac871161013e57806397c0ac8714610978578063a9059cbb1461098d578063a90cce4b146109ad578063ab9253ac146109cd57600080fd5b80638156eecf14610930578063893d20e81461094557806395d89b411461096357600080fd5b806375d8bb0e116101a057806375d8bb0e146108a2578063797ed339146108c25780637c81ac2d146108fb5780637de07cea1461091057600080fd5b8063728e17a01461082f578063740f2b5a1461084f578063749cc8f51461086f57600080fd5b8063495d753c116102a05780635c9a6d371161023e578063682cea1911610218578063682cea191461077e57806370a08231146107a0578063712bd102146107d6578063714ca2d11461080f57600080fd5b80635c9a6d37146107055780636487aa111461072557806364cb36cb1461075e57600080fd5b80634ef0762e1161027a5780634ef0762e14610674578063528c198a1461069457806352d1902d146106b45780635a53e348146106e757600080fd5b8063495d753c1461060c5780634c252f911461062c5780634e71e0c81461065f57600080fd5b806324e600121161030d578063313ce567116102e7578063313ce5671461059057806336861889146105ac5780633e11553d146105cc5780634140d607146105ec57600080fd5b806324e6001214610535578063288b6a361461055557806328c2ad9c1461057857600080fd5b806318160ddd1161034957806318160ddd146104b45780631ff46bfa146104d357806323b872dd146104f557806323cf31181461051557600080fd5b806306fdde0314610427578063095ea7b3146104525780630ee2cb101461048257600080fd5b366104225730317f00000000000000000000000000000000000000000000000000000000000000006001600160a01b031663d0e30db0826040518263ffffffff1660e01b81526004016000604051808303818588803b1580156103d157600080fd5b505af11580156103e5573d6000803e3d6000fd5b50506040518481523393507f85177f287940f2f05425a4029951af0e047a7f9c4eaa9a6e6917bcd869f866959250602001905060405180910390a2005b600080fd5b34801561043357600080fd5b5061043c610c1c565b6040516104499190613b84565b60405180910390f35b34801561045e57600080fd5b5061047261046d366004613bac565b610cae565b6040519015158152602001610449565b34801561048e57600080fd5b506006546001600160a01b03165b6040516001600160a01b039091168152602001610449565b3480156104c057600080fd5b506002545b604051908152602001610449565b3480156104df57600080fd5b506104f36104ee366004613bd8565b610cc5565b005b34801561050157600080fd5b50610472610510366004613c04565b610f1a565b34801561052157600080fd5b506104f3610530366004613c45565b610f3c565b34801561054157600080fd5b506104f3610550366004613cab565b61102f565b34801561056157600080fd5b50600b5461010090046001600160a01b031661049c565b34801561058457600080fd5b50600b5460ff16610472565b34801561059c57600080fd5b5060405160128152602001610449565b3480156105b857600080fd5b506104726105c7366004613c45565b6113c9565b3480156105d857600080fd5b506104f36105e7366004613d04565b61142f565b3480156105f857600080fd5b506104f3610607366004613c45565b6115c3565b34801561061857600080fd5b506104f3610627366004613c04565b61169b565b34801561063857600080fd5b507f000000000000000000000000000000000000000000000000000000000000000061049c565b34801561066b57600080fd5b506104f36116d0565b34801561068057600080fd5b506104f361068f366004613c45565b6117b9565b3480156106a057600080fd5b506104f36106af366004613bac565b6117ef565b3480156106c057600080fd5b507f027b9570e9fedc1a80b937ae9a06861e5faef3992491af30b684a64b3fbec7a56104c5565b3480156106f357600080fd5b506005546001600160a01b031661049c565b34801561071157600080fd5b506104f3610720366004613d79565b611827565b34801561073157600080fd5b50610472610740366004613c45565b6001600160a01b03166000908152600d602052604090205460ff1690565b34801561076a57600080fd5b506104f3610779366004613d04565b61190b565b34801561078a57600080fd5b506000805160206145478339815191525461049c565b3480156107ac57600080fd5b506104c56107bb366004613c45565b6001600160a01b031660009081526003602052604090205490565b3480156107e257600080fd5b506104726107f1366004613c45565b6001600160a01b03166000908152600e602052604090205460ff1690565b34801561081b57600080fd5b5061047261082a366004613c45565b611a88565b34801561083b57600080fd5b506104f361084a366004613c45565b611ad7565b34801561085b57600080fd5b506104f361086a366004613c45565b611cde565b34801561087b57600080fd5b507f000000000000000000000000000000000000000000000000000000000000000061049c565b3480156108ae57600080fd5b5061049c6108bd366004613dde565b611d60565b3480156108ce57600080fd5b506104726108dd366004613c45565b6001600160a01b03166000908152600a602052604090205460ff1690565b34801561090757600080fd5b506104f3611dec565b34801561091c57600080fd5b5061047261092b366004613c45565b611ebb565b34801561093c57600080fd5b506104f3611eea565b34801561095157600080fd5b506008546001600160a01b031661049c565b34801561096f57600080fd5b5061043c611fdd565b34801561098457600080fd5b5061049c6120f6565b34801561099957600080fd5b506104726109a8366004613bac565b612163565b3480156109b957600080fd5b5061043c6109c8366004613df7565b61217a565b3480156109d957600080fd5b506104f36109e8366004613c45565b612232565b3480156109f957600080fd5b507f000000000000000000000000000000000000000000000000000000000000000061049c565b348015610a2c57600080fd5b506104f3610a3b366004613e17565b6122a7565b348015610a4c57600080fd5b50610a5561235b565b6040516104499190613e59565b348015610a6e57600080fd5b506104f3610a7d366004613c04565b6123bc565b348015610a8e57600080fd5b506104f3610a9d366004613e17565b6123f1565b348015610aae57600080fd5b50610a55612463565b348015610ac357600080fd5b506007546001600160a01b031661049c565b348015610ae157600080fd5b506104f36124c3565b348015610af657600080fd5b507f000000000000000000000000000000000000000000000000000000000000000061049c565b348015610b2957600080fd5b506104c5610b38366004613ea6565b6001600160a01b03918216600090815260046020908152604080832093909416825291909152205490565b348015610b6f57600080fd5b507f000000000000000000000000000000000000000000000000000000000000000061049c565b348015610ba257600080fd5b506104f3610bb1366004613bac565b6125e2565b348015610bc257600080fd5b507f000000000000000000000000000000000000000000000000000000000000000061049c565b348015610bf557600080fd5b507f00000000000000000000000000000000000000000000000000000000000000006104c5565b606060008054610c2b90613edf565b80601f0160208091040260200160405190810160405280929190818152602001828054610c5790613edf565b8015610ca45780601f10610c7957610100808354040283529160200191610ca4565b820191906000526020600020905b815481529060010190602001808311610c8757829003601f168201915b5050505050905090565b6000610cbb338484612616565b5060015b92915050565b6005546001600160a01b03163314610cf85760405162461bcd60e51b8152600401610cef90613f19565b60405180910390fd5b60007f00000000000000000000000000000000000000000000000000000000000000006040516325b116bb60e21b81526004810186905260248101859052604481018490526001600160a01b0391909116906396c45aec906064016020604051808303816000875af1158015610d72573d6000803e3d6000fd5b505050506040513d601f19601f82011682018060405250810190610d969190613f68565b905080600003610da65750505050565b610dd07f00000000000000000000000000000000000000000000000000000000000000008561273b565b6001600160a01b037f000000000000000000000000000000000000000000000000000000000000000016610e7d57604051630852cd8d60e31b8152600481018290526001600160a01b037f000000000000000000000000000000000000000000000000000000000000000016906342966c6890602401600060405180830381600087803b158015610e6057600080fd5b505af1158015610e74573d6000803e3d6000fd5b50505050610ed1565b610ed16001600160a01b037f0000000000000000000000000000000000000000000000000000000000000000167f000000000000000000000000000000000000000000000000000000000000000083612827565b60408051858152602081018590529081018290527ff8c67da77ed4cb50a4dec91c60cf78ee219033bd3c55a86d133178c557c2d2cf906060015b60405180910390a1505b505050565b6000610f27848484612832565b610f32848484612909565b90505b9392505050565b6008546001600160a01b0316336001600160a01b031614610f6f5760405162461bcd60e51b8152600401610cef90613f81565b6007546001600160a01b03908116908216819003610fcf5760405162461bcd60e51b815260206004820152601e60248201527f7365744d69677261746f723a2056616c756520616c72656164792073657400006044820152606401610cef565b600780546001600160a01b0319166001600160a01b0384811691821790925560408051928416835260208301919091527f9d0761a1fa4d686cd87f8dbf8ca52f90cf19c3c4dc36e66ebbf08fc5ba203f2c91015b60405180910390a15050565b6005546001600160a01b031633146110595760405162461bcd60e51b8152600401610cef90613f19565b600883600a81111561106d5761106d613fc6565b036110b157610f1582828080601f01602080910402602001604051908101604052809392919081815260200183838082843760009201919091525061295b92505050565b600483600a8111156110c5576110c5613fc6565b0361110957610f1582828080601f01602080910402602001604051908101604052809392919081815260200183838082843760009201919091525061297792505050565b600583600a81111561111d5761111d613fc6565b0361116157610f1582828080601f01602080910402602001604051908101604052809392919081815260200183838082843760009201919091525061299392505050565b600183600a81111561117557611175613fc6565b036111b957610f1582828080601f0160208091040260200160405190810160405280939291908181526020018383808284376000920191909152506129c392505050565b600983600a8111156111cd576111cd613fc6565b0361121157610f1582828080601f0160208091040260200160405190810160405280939291908181526020018383808284376000920191909152506129e892505050565b600283600a81111561122557611225613fc6565b0361126957610f1582828080601f016020809104026020016040519081016040528093929190818152602001838380828437600092019190915250612a2392505050565b600a83600a81111561127d5761127d613fc6565b036112c157610f1582828080601f016020809104026020016040519081016040528093929190818152602001838380828437600092019190915250612a4892505050565b600683600a8111156112d5576112d5613fc6565b0361131957610f1582828080601f016020809104026020016040519081016040528093929190818152602001838380828437600092019190915250612a6492505050565b600383600a81111561132d5761132d613fc6565b0361137157610f1582828080601f016020809104026020016040519081016040528093929190818152602001838380828437600092019190915250612a8092505050565b600783600a81111561138557611385613fc6565b03610f1557610f1582828080601f016020809104026020016040519081016040528093929190818152602001838380828437600092019190915250612aaa92505050565b60006113dd6008546001600160a01b031690565b6001600160a01b0316826001600160a01b0316148061141457506001600160a01b0382166000908152600d602052604090205460ff165b80610cbf5750506007546001600160a01b0391821691161490565b6008546001600160a01b0316336001600160a01b0316146114625760405162461bcd60e51b8152600401610cef90613f81565b60005b81811015610f155761149783838381811061148257611482613fdc565b90506020020160208101906107409190613c45565b156114f95760405162461bcd60e51b815260206004820152602c60248201527f61646441737365744d616e61676572733a204d616e6167657220616c7265616460448201526b1e481c9959da5cdd195c995960a21b6064820152608401610cef565b6001600d600085858581811061151157611511613fdc565b90506020020160208101906115269190613c45565b6001600160a01b031681526020810191909152604001600020805460ff19169115159190911790557f8cf4dd2d46ca2e74b9cc238f9e9c907b5a6a50e2f652162a062d5e8129f35d7a83838381811061158157611581613fdc565b90506020020160208101906115969190613c45565b6040516001600160a01b03909116815260200160405180910390a1806115bb81614008565b915050611465565b6006546001600160a01b031633146116385760405162461bcd60e51b815260206004820152603260248201527f7365745661756c744c69623a204f6e6c792063616c6c61626c65206279207468604482015271329031b7b73a3930b1ba1031b932b0ba37b960711b6064820152608401610cef565b60006116506000805160206145478339815191525490565b905061165b82612ad4565b604080516001600160a01b038084168252841660208201527fe504a0278c9d64c1a72d2f528a0c5e3686e093fcd478b3b1224a5c6983207df69101611023565b6005546001600160a01b031633146116c55760405162461bcd60e51b8152600401610cef90613f19565b610f15838383612bd0565b600b5461010090046001600160a01b03163381146117565760405162461bcd60e51b815260206004820152603e60248201527f636c61696d4f776e6572736869703a204f6e6c7920746865206e6f6d696e617460448201527f65644f776e65722063616e2063616c6c20746869732066756e6374696f6e00006064820152608401610cef565b600b8054610100600160a81b0319169055600880546001600160a01b038381166001600160a01b0319831681179093556040519116919082907f8be0079c531659141344cd1fd0a4f28419497f9722a3daafe3b4186f6b6457e090600090a35050565b6005546001600160a01b031633146117e35760405162461bcd60e51b8152600401610cef90613f19565b6117ec81612c60565b50565b6005546001600160a01b031633146118195760405162461bcd60e51b8152600401610cef90613f19565b6118238282612d47565b5050565b6006546001600160a01b0316156118805760405162461bcd60e51b815260206004820152601f60248201527f696e69743a2050726f787920616c726561647920696e697469616c697a6564006044820152606401610cef565b600680546001600160a01b03191633179055600061189f82848361407d565b506118a983612e1f565b6118b284612ee4565b7fe504a0278c9d64c1a72d2f528a0c5e3686e093fcd478b3b1224a5c6983207df660006118eb6000805160206145478339815191525490565b604080516001600160a01b03938416815292909116602083015201610f0b565b6008546001600160a01b0316336001600160a01b03161461193e5760405162461bcd60e51b8152600401610cef90613f81565b60005b81811015610f155761195e83838381811061148257611482613fdc565b6119be5760405162461bcd60e51b815260206004820152602b60248201527f72656d6f766541737365744d616e61676572733a204d616e61676572206e6f7460448201526a081c9959da5cdd195c995960aa1b6064820152608401610cef565b6000600d60008585858181106119d6576119d6613fdc565b90506020020160208101906119eb9190613c45565b6001600160a01b031681526020810191909152604001600020805460ff19169115159190911790557f1a3f6d43a85364a6a2d8297f0cd634e060a6ef9bc11b3a0c89e47d40b89c2f7e838383818110611a4657611a46613fdc565b9050602002016020810190611a5b9190613c45565b6040516001600160a01b03909116815260200160405180910390a180611a8081614008565b915050611941565b6000611a9c6008546001600160a01b031690565b6001600160a01b0316826001600160a01b03161480610cbf57506001600160a01b0382166000908152600d602052604090205460ff16610cbf565b6008546001600160a01b0316336001600160a01b031614611b0a5760405162461bcd60e51b8152600401610cef90613f81565b6001600160a01b038116611b7f5760405162461bcd60e51b815260206004820152603660248201527f7365744e6f6d696e617465644f776e65723a205f6e6578744e6f6d696e617465604482015275644f776e65722063616e6e6f7420626520656d70747960501b6064820152608401610cef565b6008546001600160a01b0390811690821603611c035760405162461bcd60e51b815260206004820152603b60248201527f7365744e6f6d696e617465644f776e65723a205f6e6578744e6f6d696e61746560448201527f644f776e657220697320616c726561647920746865206f776e657200000000006064820152608401610cef565b600b546001600160a01b03610100909104811690821603611c8c5760405162461bcd60e51b815260206004820152603b60248201527f7365744e6f6d696e617465644f776e65723a205f6e6578744e6f6d696e61746560448201527f644f776e657220697320616c7265616479206e6f6d696e6174656400000000006064820152608401610cef565b600b8054610100600160a81b0319166101006001600160a01b038416908102919091179091556040517f132c19de901bb4ed8403c34734b6c841d5dc57745824da452a52433519ea5abf90600090a250565b611ce66120f6565b6001600160a01b0316336001600160a01b031614611d575760405162461bcd60e51b815260206004820152602860248201527f4f6e6c79207468652046756e644465706c6f7965722063616e206d616b6520746044820152671a1a5cc818d85b1b60c21b6064820152608401610cef565b6117ec81612e1f565b604051633aec5d8760e11b8152600481018290526000906001600160a01b037f000000000000000000000000000000000000000000000000000000000000000016906375d8bb0e90602401602060405180830381865afa158015611dc8573d6000803e3d6000fd5b505050506040513d601f19601f82011682018060405250810190610cbf919061413d565b6008546001600160a01b0316336001600160a01b031614611e1f5760405162461bcd60e51b8152600401610cef90613f81565b600b5460ff1615611e835760405162461bcd60e51b815260206004820152602860248201527f736574467265656c795472616e7366657261626c655368617265733a20416c726044820152671958591e481cd95d60c21b6064820152608401610cef565b600b805460ff191660011790556040517f505ab4202e673074a7b93ec3c2ca442c3526a42232835c56d223bd09672c5b0d90600090a1565b6008546000906001600160a01b0383811691161480610cbf5750506007546001600160a01b0390811691161490565b6008546001600160a01b0316336001600160a01b031614611f1d5760405162461bcd60e51b8152600401610cef90613f81565b600b5461010090046001600160a01b031680611f955760405162461bcd60e51b815260206004820152603160248201527f72656d6f76654e6f6d696e617465644f776e65723a205468657265206973206e60448201527037903737b6b4b730ba32b21037bbb732b960791b6064820152608401610cef565b600b8054610100600160a81b03191690556040516001600160a01b038216907fe4136584a5e8bb85d66301f3ce8b11cc2e5a8bea3979f10ea2451353849acc4790600090a250565b606060018054611fec90613edf565b80601f016020809104026020016040519081016040528092919081815260200182805461201890613edf565b80156120655780601f1061203a57610100808354040283529160200191612065565b820191906000526020600020905b81548152906001019060200180831161204857829003601f168201915b5050505050905080516000036120f357600660009054906101000a90046001600160a01b03166001600160a01b031663b47b06006040518163ffffffff1660e01b8152600401600060405180830381865afa1580156120c8573d6000803e3d6000fd5b505050506040513d6000823e601f3d908101601f191682016040526120f091908101906141da565b90505b90565b6006546040516307af8e9f60e31b81523060048201526000916001600160a01b031690633d7c74f890602401602060405180830381865afa15801561213f573d6000803e3d6000fd5b505050506040513d601f19601f820116820180604052508101906120f0919061413d565b6000612170338484612832565b610f358383613015565b6005546060906001600160a01b031633146121a75760405162461bcd60e51b8152600401610cef90613f19565b6000846001600160a01b031684846040516121c3929190614223565b6000604051808303816000865af19150503d8060008114612200576040519150601f19603f3d011682016040523d82523d6000602084013e612205565b606091505b509250905081816122295760405162461bcd60e51b8152600401610cef9190613b84565b50509392505050565b6006546001600160a01b03163314611d575760405162461bcd60e51b815260206004820152603260248201527f7365744163636573736f723a204f6e6c792063616c6c61626c65206279207468604482015271329031b7b73a3930b1ba1031b932b0ba37b960711b6064820152608401610cef565b6008546001600160a01b0316336001600160a01b031614806122e157506122cc6120f6565b6001600160a01b0316336001600160a01b0316145b61231c5760405162461bcd60e51b815260206004820152600c60248201526b155b985d5d1a1bdc9a5e995960a21b6044820152606401610cef565b600161232982848361407d565b507f3e46ff90086ee29856e77591e82c82ff8ed513379b0fd82e84fc5290dd633c998282604051611023929190614233565b6060600c805480602002602001604051908101604052809291908181526020018280548015610ca457602002820191906000526020600020905b81546001600160a01b03168152600190910190602001808311612395575050505050905090565b6005546001600160a01b031633146123e65760405162461bcd60e51b8152600401610cef90613f19565b610f1583838361301e565b6008546001600160a01b0316336001600160a01b0316146124245760405162461bcd60e51b8152600401610cef90613f81565b600061243182848361407d565b507f13c98778b0c1a086bb98d7f1986e15788b5d3a1ad4c492e1d78f1c4cc51c20cf8282604051611023929190614233565b60606009805480602002602001604051908101604052809291908181526020018280548015610ca4576020028201919060005260206000209081546001600160a01b03168152600190910190602001808311612395575050505050905090565b6005546001600160a01b031633146124ed5760405162461bcd60e51b8152600401610cef90613f19565b60007f00000000000000000000000000000000000000000000000000000000000000006001600160a01b031663296102526040518163ffffffff1660e01b81526004016020604051808303816000875af115801561254f573d6000803e3d6000fd5b505050506040513d601f19601f820116820180604052508101906125739190613f68565b9050806000036125805750565b6125aa7f000000000000000000000000000000000000000000000000000000000000000082612d47565b6040518181527f390f4e733d9d6104fbfb7508fdaf57640ea4179603e995d21027fda40e257697906020015b60405180910390a1505b565b6005546001600160a01b0316331461260c5760405162461bcd60e51b8152600401610cef90613f19565b611823828261273b565b6001600160a01b0383166126785760405162461bcd60e51b8152602060048201526024808201527f45524332303a20617070726f76652066726f6d20746865207a65726f206164646044820152637265737360e01b6064820152608401610cef565b6001600160a01b0382166126d95760405162461bcd60e51b815260206004820152602260248201527f45524332303a20617070726f766520746f20746865207a65726f206164647265604482015261737360f01b6064820152608401610cef565b6001600160a01b0383811660008181526004602090815260408083209487168084529482529182902085905590518481527f8c5be1e5ebec7d5bd14f71427d1e84f3dd0314c0f7b2291e5b200ac8c7c3b92591015b60405180910390a3505050565b6001600160a01b03821661279b5760405162461bcd60e51b815260206004820152602160248201527f45524332303a206275726e2066726f6d20746865207a65726f206164647265736044820152607360f81b6064820152608401610cef565b6001600160a01b038216600090815260036020526040812080548392906127c3908490614262565b9250508190555080600260008282546127dc9190614262565b90915550506040518181526000906001600160a01b038416907fddf252ad1be2c89b69c2b068fc378daa952ba7f163c4a11628f55a4df523b3ef906020015b60405180910390a35050565b610f15838383613185565b600b5460ff161561289f57600554604051631f3abfcf60e31b81526001600160a01b0385811660048301529091169063f9d5fe789060240160006040518083038186803b15801561288257600080fd5b505afa158015612896573d6000803e3d6000fd5b50505050505050565b600554604051630979029360e11b81526001600160a01b038581166004830152848116602483015260448201849052909116906312f2052690606401600060405180830381600087803b1580156128f557600080fd5b505af1158015612896573d6000803e3d6000fd5b600061291684848461301e565b6001600160a01b03841660009081526004602090815260408083203380855292529091205461295191869161294c908690614262565b612616565b5060019392505050565b6117ec81806020019051810190612972919061413d565b6131e8565b6117ec8180602001905181019061298e919061413d565b612c60565b6000806000838060200190518101906129ac9190614275565b9250925092506129bd83838361329c565b50505050565b600080828060200190518101906129da91906142b8565b91509150610f15828261273b565b600080600080600085806020019051810190612a0491906143d9565b94509450945094509450612a1b8585858585613370565b505050505050565b60008082806020019051810190612a3a91906142b8565b91509150610f158282612d47565b6117ec81806020019051810190612a5f919061413d565b6134f8565b6117ec81806020019051810190612a7b919061413d565b61357c565b600080600083806020019051810190612a999190614275565b9250925092506129bd83838361301e565b600080600083806020019051810190612ac39190614275565b9250925092506129bd838383612bd0565b806001600160a01b03166352d1902d6040518163ffffffff1660e01b8152600401602060405180830381865afa158015612b12573d6000803e3d6000fd5b505050506040513d601f19601f82011682018060405250810190612b369190613f68565b7f027b9570e9fedc1a80b937ae9a06861e5faef3992491af30b684a64b3fbec7a514612bbe5760405162461bcd60e51b815260206004820152603160248201527f5f5f757064617465436f6465416464726573733a205f6e6578745661756c744c6044820152706962206e6f7420636f6d70617469626c6560781b6064820152608401610cef565b60008051602061454783398151915255565b82306001600160a01b03821603612bf95760405162461bcd60e51b8152600401610cef906144b1565b612c0d6001600160a01b0385168484612827565b826001600160a01b0316846001600160a01b03167f6f9cbac839b826cc524f53d10416c053fce34ec15fd1001720e777cc49720e7684604051612c5291815260200190565b60405180910390a350505050565b80306001600160a01b03821603612c895760405162461bcd60e51b8152600401610cef906144b1565b6001600160a01b0382166000908152600a602052604090205460ff1661182357612cb1613602565b6001600160a01b0382166000818152600a60209081526040808320805460ff191660019081179091556009805491820181559093527f6e1540171b6c0c960b71a7020d9f60077f6af931a8bbf590da0223dacf75c7af90920180546001600160a01b0319168417905590519182527fa0d2bfad19dc0c6970d2a2fcff65458a6d7c4fa3b6d904f44961b2c744bdf5919101611023565b6001600160a01b038216612d9d5760405162461bcd60e51b815260206004820152601f60248201527f45524332303a206d696e7420746f20746865207a65726f2061646472657373006044820152606401610cef565b8060026000828254612daf91906144df565b90915550506001600160a01b03821660009081526003602052604081208054839290612ddc9084906144df565b90915550506040518181526001600160a01b038316906000907fddf252ad1be2c89b69c2b068fc378daa952ba7f163c4a11628f55a4df523b3ef9060200161281b565b6001600160a01b038116612e8a5760405162461bcd60e51b815260206004820152602c60248201527f5f5f7365744163636573736f723a205f6e6578744163636573736f722063616e60448201526b6e6f7420626520656d70747960a01b6064820152608401610cef565b600580546001600160a01b038381166001600160a01b031983168117909355604080519190921680825260208201939093527fb5a9def940973a936e331170816650368964b0602957d4bc60f5ddc2dc1b69cd9101611023565b6001600160a01b038116612f495760405162461bcd60e51b815260206004820152602660248201527f5f5f7365744f776e65723a205f6e6578744f776e65722063616e6e6f7420626560448201526520656d70747960d01b6064820152608401610cef565b6008546001600160a01b03908116908216819003612fbd5760405162461bcd60e51b815260206004820152602b60248201527f5f5f7365744f776e65723a205f6e6578744f776e65722069732074686520637560448201526a393932b73a1037bbb732b960a91b6064820152608401610cef565b600880546001600160a01b0319166001600160a01b0384811691821790925560408051928416835260208301919091527f342827c97908e5e2f71151c08502a66d44b6f758e3ac2f1de95f02eb95f0a7359101611023565b6000610cbb3384845b6001600160a01b0383166130825760405162461bcd60e51b815260206004820152602560248201527f45524332303a207472616e736665722066726f6d20746865207a65726f206164604482015264647265737360d81b6064820152608401610cef565b6001600160a01b0382166130e45760405162461bcd60e51b815260206004820152602360248201527f45524332303a207472616e7366657220746f20746865207a65726f206164647260448201526265737360e81b6064820152608401610cef565b6001600160a01b0383166000908152600360205260408120805483929061310c908490614262565b90915550506001600160a01b038216600090815260036020526040812080548392906131399084906144df565b92505081905550816001600160a01b0316836001600160a01b03167fddf252ad1be2c89b69c2b068fc378daa952ba7f163c4a11628f55a4df523b3ef8360405161272e91815260200190565b6040516001600160a01b038316602482015260448101829052610f1590849063a9059cbb60e01b906064015b60408051601f198184030181529190526020810180516001600160e01b03166001600160e01b031990931692909217909152613691565b6001600160a01b0381166000908152600e602052604090205460ff166117ec57613210613602565b6001600160a01b0381166000818152600e6020526040808220805460ff19166001908117909155600c8054918201815583527fdf6966c971051c3d54ec59162606531493a51404a002842f56009d7e5cf4a8c70180546001600160a01b03191684179055517f07524f5de87a754cb09f25965c3355b50dfece5fa624111739d5bf5caa05ebe69190a250565b82306001600160a01b038216036132c55760405162461bcd60e51b8152600401610cef906144b1565b604051636eb1769f60e11b81523060048201526001600160a01b038481166024830152859160009183169063dd62ed3e90604401602060405180830381865afa158015613316573d6000803e3d6000fd5b505050506040513d601f19601f8201168201806040525081019061333a9190613f68565b1115613355576133556001600160a01b038216856000613763565b6133696001600160a01b0382168585613763565b5050505050565b6001600160a01b0385166000908152600e602052604090205460ff166133fe5760405162461bcd60e51b815260206004820152603960248201527f5f5f63616c6c4f6e45787465726e616c506f736974696f6e3a204e6f7420616e60448201527f206163746976652065787465726e616c20706f736974696f6e000000000000006064820152608401610cef565b60005b83518110156134595761344784828151811061341f5761341f613fdc565b60200260200101518785848151811061343a5761343a613fdc565b6020026020010151612bd0565b8061345181614008565b915050613401565b5060405163e5c23a9760e01b81526001600160a01b0386169063e5c23a9790613486908790600401613b84565b600060405180830381600087803b1580156134a057600080fd5b505af11580156134b4573d6000803e3d6000fd5b5050505060005b8151811015612a1b576134e68282815181106134d9576134d9613fdc565b6020026020010151612c60565b806134f081614008565b9150506134bb565b6001600160a01b0381166000908152600e602052604090205460ff16156117ec576001600160a01b0381166000908152600e60205260409020805460ff19169055613544600c8261376e565b506040516001600160a01b038216907f5af401380f7c5a87ba294191b430d5c1c6dcc133c1d774c092cb0d6a52e20bef90600090a250565b6001600160a01b0381166000908152600a602052604090205460ff16156117ec576001600160a01b0381166000908152600a60205260409020805460ff191690556135c860098261376e565b506040516001600160a01b03821681527f22c4fcf23b40d39b02733ec19a3975b31172f2a5b2ce5d0f1831525276cd7156906020016125d6565b7f0000000000000000000000000000000000000000000000000000000000000000600c5460095461363391906144df565b106125e05760405162461bcd60e51b815260206004820152602860248201527f5f5f76616c6964617465506f736974696f6e734c696d69743a204c696d697420604482015267195e18d95959195960c21b6064820152608401610cef565b60006136e6826040518060400160405280602081526020017f5361666545524332303a206c6f772d6c6576656c2063616c6c206661696c6564815250856001600160a01b03166138959092919063ffffffff16565b805190915015610f15578080602001905181019061370491906144f2565b610f155760405162461bcd60e51b815260206004820152602a60248201527f5361666545524332303a204552433230206f7065726174696f6e20646964206e6044820152691bdd081cdd58d8d9595960b21b6064820152608401610cef565b610f158383836138a4565b8154600090815b8181101561388d57836001600160a01b031685828154811061379957613799613fdc565b6000918252602090912001546001600160a01b03160361387b576137be600183614262565b81101561384057846137d1600184614262565b815481106137e1576137e1613fdc565b9060005260206000200160009054906101000a90046001600160a01b031685828154811061381157613811613fdc565b9060005260206000200160006101000a8154816001600160a01b0302191690836001600160a01b031602179055505b8480548061385057613850614514565b600082815260209020810160001990810180546001600160a01b03191690550190556001925061388d565b8061388581614008565b915050613775565b505092915050565b6060610f3284846000856139b9565b80158061391e5750604051636eb1769f60e11b81523060048201526001600160a01b03838116602483015284169063dd62ed3e90604401602060405180830381865afa1580156138f8573d6000803e3d6000fd5b505050506040513d601f19601f8201168201806040525081019061391c9190613f68565b155b6139895760405162461bcd60e51b815260206004820152603660248201527f5361666545524332303a20617070726f76652066726f6d206e6f6e2d7a65726f60448201527520746f206e6f6e2d7a65726f20616c6c6f77616e636560501b6064820152608401610cef565b6040516001600160a01b038316602482015260448101829052610f1590849063095ea7b360e01b906064016131b1565b606082471015613a1a5760405162461bcd60e51b815260206004820152602660248201527f416464726573733a20696e73756666696369656e742062616c616e636520666f6044820152651c8818d85b1b60d21b6064820152608401610cef565b600080866001600160a01b03168587604051613a36919061452a565b60006040518083038185875af1925050503d8060008114613a73576040519150601f19603f3d011682016040523d82523d6000602084013e613a78565b606091505b5091509150613a8987838387613a96565b925050505b949350505050565b60608315613b05578251600003613afe576001600160a01b0385163b613afe5760405162461bcd60e51b815260206004820152601d60248201527f416464726573733a2063616c6c20746f206e6f6e2d636f6e74726163740000006044820152606401610cef565b5081613a8e565b613a8e8383815115613b1a5781518083602001fd5b8060405162461bcd60e51b8152600401610cef9190613b84565b60005b83811015613b4f578181015183820152602001613b37565b50506000910152565b60008151808452613b70816020860160208601613b34565b601f01601f19169290920160200192915050565b602081526000610f356020830184613b58565b6001600160a01b03811681146117ec57600080fd5b60008060408385031215613bbf57600080fd5b8235613bca81613b97565b946020939093013593505050565b600080600060608486031215613bed57600080fd5b505081359360208301359350604090920135919050565b600080600060608486031215613c1957600080fd5b8335613c2481613b97565b92506020840135613c3481613b97565b929592945050506040919091013590565b600060208284031215613c5757600080fd5b8135610f3581613b97565b60008083601f840112613c7457600080fd5b50813567ffffffffffffffff811115613c8c57600080fd5b602083019150836020828501011115613ca457600080fd5b9250929050565b600080600060408486031215613cc057600080fd5b8335600b8110613ccf57600080fd5b9250602084013567ffffffffffffffff811115613ceb57600080fd5b613cf786828701613c62565b9497909650939450505050565b60008060208385031215613d1757600080fd5b823567ffffffffffffffff80821115613d2f57600080fd5b818501915085601f830112613d4357600080fd5b813581811115613d5257600080fd5b8660208260051b8501011115613d6757600080fd5b60209290920196919550909350505050565b60008060008060608587031215613d8f57600080fd5b8435613d9a81613b97565b93506020850135613daa81613b97565b9250604085013567ffffffffffffffff811115613dc657600080fd5b613dd287828801613c62565b95989497509550505050565b600060208284031215613df057600080fd5b5035919050565b600080600060408486031215613e0c57600080fd5b8335613ccf81613b97565b60008060208385031215613e2a57600080fd5b823567ffffffffffffffff811115613e4157600080fd5b613e4d85828601613c62565b90969095509350505050565b6020808252825182820181905260009190848201906040850190845b81811015613e9a5783516001600160a01b031683529284019291840191600101613e75565b50909695505050505050565b60008060408385031215613eb957600080fd5b8235613ec481613b97565b91506020830135613ed481613b97565b809150509250929050565b600181811c90821680613ef357607f821691505b602082108103613f1357634e487b7160e01b600052602260045260246000fd5b50919050565b6020808252602f908201527f4f6e6c79207468652064657369676e61746564206163636573736f722063616e60408201526e081b585ad9481d1a1a5cc818d85b1b608a1b606082015260800190565b600060208284031215613f7a57600080fd5b5051919050565b60208082526025908201527f4f6e6c7920746865206f776e65722063616e2063616c6c20746869732066756e60408201526431ba34b7b760d91b606082015260800190565b634e487b7160e01b600052602160045260246000fd5b634e487b7160e01b600052603260045260246000fd5b634e487b7160e01b600052601160045260246000fd5b60006001820161401a5761401a613ff2565b5060010190565b634e487b7160e01b600052604160045260246000fd5b601f821115610f1557600081815260208120601f850160051c8101602086101561405e5750805b601f850160051c820191505b81811015612a1b5782815560010161406a565b67ffffffffffffffff83111561409557614095614021565b6140a9836140a38354613edf565b83614037565b6000601f8411600181146140dd57600085156140c55750838201355b600019600387901b1c1916600186901b178355613369565b600083815260209020601f19861690835b8281101561410e57868501358255602094850194600190920191016140ee565b508682101561412b5760001960f88860031b161c19848701351681555b505060018560011b0183555050505050565b60006020828403121561414f57600080fd5b8151610f3581613b97565b604051601f8201601f1916810167ffffffffffffffff8111828210171561418357614183614021565b604052919050565b600067ffffffffffffffff8311156141a5576141a5614021565b6141b8601f8401601f191660200161415a565b90508281528383830111156141cc57600080fd5b610f35836020830184613b34565b6000602082840312156141ec57600080fd5b815167ffffffffffffffff81111561420357600080fd5b8201601f8101841361421457600080fd5b613a8e8482516020840161418b565b8183823760009101908152919050565b60208152816020820152818360408301376000818301604090810191909152601f909201601f19160101919050565b81810381811115610cbf57610cbf613ff2565b60008060006060848603121561428a57600080fd5b835161429581613b97565b60208501519093506142a681613b97565b80925050604084015190509250925092565b600080604083850312156142cb57600080fd5b82516142d681613b97565b6020939093015192949293505050565b600067ffffffffffffffff82111561430057614300614021565b5060051b60200190565b600082601f83011261431b57600080fd5b8151602061433061432b836142e6565b61415a565b82815260059290921b8401810191818101908684111561434f57600080fd5b8286015b8481101561437357805161436681613b97565b8352918301918301614353565b509695505050505050565b600082601f83011261438f57600080fd5b8151602061439f61432b836142e6565b82815260059290921b840181019181810190868411156143be57600080fd5b8286015b8481101561437357805183529183019183016143c2565b600080600080600060a086880312156143f157600080fd5b85516143fc81613b97565b602087015190955067ffffffffffffffff8082111561441a57600080fd5b818801915088601f83011261442e57600080fd5b61443d8983516020850161418b565b9550604088015191508082111561445357600080fd5b61445f89838a0161430a565b9450606088015191508082111561447557600080fd5b61448189838a0161437e565b9350608088015191508082111561449757600080fd5b506144a48882890161430a565b9150509295509295909350565b60208082526014908201527343616e6e6f7420616374206f6e2073686172657360601b604082015260600190565b80820180821115610cbf57610cbf613ff2565b60006020828403121561450457600080fd5b81518015158114610f3557600080fd5b634e487b7160e01b600052603160045260246000fd5b6000825161453c818460208701613b34565b919091019291505056fe360894a13ba1a3210667c828492db98dca3e2076cc3735a920a3ca505d382bbc","linkReferences":{}},"methodIdentifiers":{"addAssetManagers(address[])":"3e11553d","addTrackedAsset(address)":"4ef0762e","allowance(address,address)":"dd62ed3e","approve(address,uint256)":"095ea7b3","balanceOf(address)":"70a08231","burnShares(address,uint256)":"ee7a7c04","buyBackProtocolFeeShares(uint256,uint256,uint256)":"1ff46bfa","callOnContract(address,bytes)":"a90cce4b","canManageAssets(address)":"714ca2d1","canMigrate(address)":"7de07cea","canRelayCalls(address)":"36861889","claimOwnership()":"4e71e0c8","decimals()":"313ce567","getAccessor()":"5a53e348","getActiveExternalPositions()":"b8b7f147","getCreator()":"0ee2cb10","getExternalPositionLibForType(uint256)":"75d8bb0e","getExternalPositionManager()":"b3fc38e9","getFundDeployer()":"97c0ac87","getMigrator()":"cd63d578","getMlnBurner()":"fe15c02a","getMlnToken()":"e70e605e","getNominatedOwner()":"288b6a36","getOwner()":"893d20e8","getPositionsLimit()":"ff3cdf56","getProtocolFeeReserve()":"da41962e","getProtocolFeeTracker()":"749cc8f5","getTrackedAssets()":"c4b97370","getVaultLib()":"682cea19","getWethToken()":"4c252f91","init(address,address,string)":"5c9a6d37","isActiveExternalPosition(address)":"712bd102","isAssetManager(address)":"6487aa11","isTrackedAsset(address)":"797ed339","mintShares(address,uint256)":"528c198a","name()":"06fdde03","payProtocolFee()":"d5c20fa2","proxiableUUID()":"52d1902d","receiveValidatedVaultAction(uint8,bytes)":"24e60012","removeAssetManagers(address[])":"64cb36cb","removeNominatedOwner()":"8156eecf","setAccessor(address)":"ab9253ac","setAccessorForFundReconfiguration(address)":"740f2b5a","setFreelyTransferableShares()":"7c81ac2d","setMigrator(address)":"23cf3118","setName(string)":"c47f0027","setNominatedOwner(address)":"728e17a0","setSymbol(string)":"b84c8246","setVaultLib(address)":"4140d607","sharesAreFreelyTransferable()":"28c2ad9c","symbol()":"95d89b41","totalSupply()":"18160ddd","transfer(address,uint256)":"a9059cbb","transferFrom(address,address,uint256)":"23b872dd","transferShares(address,address,uint256)":"bfc77beb","withdrawAssetTo(address,address,uint256)":"495d753c"},"id":88}