{"abi":[{"type":"constructor","inputs":[{"name":"_fundDeployer","type":"address","internalType":"address"},{"name":"_yearnVaultV2Registry","type":"address","internalType":"address"}],"stateMutability":"nonpayable"},{"type":"function","name":"addDerivatives","inputs":[{"name":"_derivatives","type":"address[]","internalType":"address[]"},{"name":"_underlyings","type":"address[]","internalType":"address[]"}],"outputs":[],"stateMutability":"nonpayable"},{"type":"function","name":"calcUnderlyingValues","inputs":[{"name":"_derivative","type":"address","internalType":"address"},{"name":"_derivativeAmount","type":"uint256","internalType":"uint256"}],"outputs":[{"name":"underlyings_","type":"address[]","internalType":"address[]"},{"name":"underlyingAmounts_","type":"uint256[]","internalType":"uint256[]"}],"stateMutability":"nonpayable"},{"type":"function","name":"getFundDeployer","inputs":[],"outputs":[{"name":"fundDeployer_","type":"address","internalType":"address"}],"stateMutability":"view"},{"type":"function","name":"getOwner","inputs":[],"outputs":[{"name":"owner_","type":"address","internalType":"address"}],"stateMutability":"view"},{"type":"function","name":"getUnderlyingForDerivative","inputs":[{"name":"_derivative","type":"address","internalType":"address"}],"outputs":[{"name":"underlying_","type":"address","internalType":"address"}],"stateMutability":"view"},{"type":"function","name":"getYearnVaultV2Registry","inputs":[],"outputs":[{"name":"yearnVaultV2Registry_","type":"address","internalType":"address"}],"stateMutability":"view"},{"type":"function","name":"isSupportedAsset","inputs":[{"name":"_asset","type":"address","internalType":"address"}],"outputs":[{"name":"isSupported_","type":"bool","internalType":"bool"}],"stateMutability":"view"},{"type":"function","name":"removeDerivatives","inputs":[{"name":"_derivatives","type":"address[]","internalType":"address[]"}],"outputs":[],"stateMutability":"nonpayable"},{"type":"event","name":"DerivativeAdded","inputs":[{"name":"derivative","type":"address","indexed":true,"internalType":"address"},{"name":"underlying","type":"address","indexed":true,"internalType":"address"}],"anonymous":false},{"type":"event","name":"DerivativeRemoved","inputs":[{"name":"derivative","type":"address","indexed":true,"internalType":"address"}],"anonymous":false}],"bytecode":{"object":"0x60c060405234801561001057600080fd5b5060405161177e38038061177e8339818101604052604081101561003357600080fd5b81019080805190602001909291908051906020019092919050505081808073ffffffffffffffffffffffffffffffffffffffff1660808173ffffffffffffffffffffffffffffffffffffffff1660601b8152505050508073ffffffffffffffffffffffffffffffffffffffff1660a08173ffffffffffffffffffffffffffffffffffffffff1660601b81525050505060805160601c60a05160601c61168e6100f06000398061104b525080610cf15280611023525061168e6000f3fe608060405234801561001057600080fd5b50600436106100885760003560e01c80638f72b1361161005b5780638f72b1361461036657806397c0ac871461041e578063981dc8e4146104525780639be918e61461048657610088565b806339cbb63c1461008d57806366adb867146101d9578063727212f614610247578063893d20e814610332575b600080fd5b6101d7600480360360408110156100a357600080fd5b81019080803590602001906401000000008111156100c057600080fd5b8201836020820111156100d257600080fd5b803590602001918460208302840111640100000000831117156100f457600080fd5b919080806020026020016040519081016040528093929190818152602001838360200280828437600081840152601f19601f8201169050808301925050505050505091929192908035906020019064010000000081111561015457600080fd5b82018360208201111561016657600080fd5b8035906020019184602083028401116401000000008311171561018857600080fd5b919080806020026020016040519081016040528093929190818152602001838360200280828437600081840152601f19601f8201169050808301925050505050505091929192905050506104e0565b005b61021b600480360360208110156101ef57600080fd5b81019080803573ffffffffffffffffffffffffffffffffffffffff1690602001909291905050506109b9565b604051808273ffffffffffffffffffffffffffffffffffffffff16815260200191505060405180910390f35b6102936004803603604081101561025d57600080fd5b81019080803573ffffffffffffffffffffffffffffffffffffffff16906020019092919080359060200190929190505050610a21565b604051808060200180602001838103835285818151815260200191508051906020019060200280838360005b838110156102da5780820151818401526020810190506102bf565b50505050905001838103825284818151815260200191508051906020019060200280838360005b8381101561031c578082015181840152602081019050610301565b5050505090500194505050505060405180910390f35b61033a610ced565b604051808273ffffffffffffffffffffffffffffffffffffffff16815260200191505060405180910390f35b61041c6004803603602081101561037c57600080fd5b810190808035906020019064010000000081111561039957600080fd5b8201836020820111156103ab57600080fd5b803590602001918460208302840111640100000000831117156103cd57600080fd5b919080806020026020016040519081016040528093929190818152602001838360200280828437600081840152601f19601f820116905080830192505050505050509192919290505050610d95565b005b61042661101f565b604051808273ffffffffffffffffffffffffffffffffffffffff16815260200191505060405180910390f35b61045a611047565b604051808273ffffffffffffffffffffffffffffffffffffffff16815260200191505060405180910390f35b6104c86004803603602081101561049c57600080fd5b81019080803573ffffffffffffffffffffffffffffffffffffffff16906020019092919050505061106f565b60405180821515815260200191505060405180910390f35b6104e8610ced565b73ffffffffffffffffffffffffffffffffffffffff163373ffffffffffffffffffffffffffffffffffffffff161461056b576040517f08c379a00000000000000000000000000000000000000000000000000000000081526004018080602001828103825260498152602001806115a96049913960600191505060405180910390fd5b60008251116105c5576040517f08c379a00000000000000000000000000000000000000000000000000000000081526004018080602001828103825260228152602001806116346022913960400191505060405180910390fd5b805182511461063c576040517f08c379a000000000000000000000000000000000000000000000000000000000815260040180806020018281038252601e8152602001807f61646444657269766174697665733a20556e657175616c20617272617973000081525060200191505060405180910390fd5b60005b82518110156109b457600073ffffffffffffffffffffffffffffffffffffffff1683828151811061066c57fe5b602002602001015173ffffffffffffffffffffffffffffffffffffffff1614156106fe576040517f08c379a00000000000000000000000000000000000000000000000000000000081526004018080602001828103825260208152602001807f61646444657269766174697665733a20456d707479206465726976617469766581525060200191505060405180910390fd5b600073ffffffffffffffffffffffffffffffffffffffff1682828151811061072257fe5b602002602001015173ffffffffffffffffffffffffffffffffffffffff1614156107b4576040517f08c379a00000000000000000000000000000000000000000000000000000000081526004018080602001828103825260208152602001807f61646444657269766174697665733a20456d70747920756e6465726c79696e6781525060200191505060405180910390fd5b600073ffffffffffffffffffffffffffffffffffffffff166107e88483815181106107db57fe5b60200260200101516109b9565b73ffffffffffffffffffffffffffffffffffffffff1614610854576040517f08c379a00000000000000000000000000000000000000000000000000000000081526004018080602001828103825260218152602001806115f26021913960400191505060405180910390fd5b61088483828151811061086357fe5b602002602001015183838151811061087757fe5b60200260200101516110b0565b81818151811061089057fe5b60200260200101516000808584815181106108a757fe5b602002602001015173ffffffffffffffffffffffffffffffffffffffff1673ffffffffffffffffffffffffffffffffffffffff16815260200190815260200160002060006101000a81548173ffffffffffffffffffffffffffffffffffffffff021916908373ffffffffffffffffffffffffffffffffffffffff16021790555081818151811061093357fe5b602002602001015173ffffffffffffffffffffffffffffffffffffffff1683828151811061095d57fe5b602002602001015173ffffffffffffffffffffffffffffffffffffffff167faa4ae250fb435bb4b31ed0b95822bc179fc6c5dd0c727c3ffe08d444025efd9860405160405180910390a3808060010191505061063f565b505050565b60008060008373ffffffffffffffffffffffffffffffffffffffff1673ffffffffffffffffffffffffffffffffffffffff16815260200190815260200160002060009054906101000a900473ffffffffffffffffffffffffffffffffffffffff169050919050565b606080600167ffffffffffffffff81118015610a3c57600080fd5b50604051908082528060200260200182016040528015610a6b5781602001602082028036833780820191505090505b509150610a77846109b9565b82600081518110610a8457fe5b602002602001019073ffffffffffffffffffffffffffffffffffffffff16908173ffffffffffffffffffffffffffffffffffffffff1681525050600073ffffffffffffffffffffffffffffffffffffffff1682600081518110610ae357fe5b602002602001015173ffffffffffffffffffffffffffffffffffffffff161415610b58576040517f08c379a000000000000000000000000000000000000000000000000000000000815260040180806020018281038252602c815260200180611656602c913960400191505060405180910390fd5b600167ffffffffffffffff81118015610b7057600080fd5b50604051908082528060200260200182016040528015610b9f5781602001602082028036833780820191505090505b509050610ccd8473ffffffffffffffffffffffffffffffffffffffff1663313ce5676040518163ffffffff1660e01b815260040160206040518083038186803b158015610beb57600080fd5b505afa158015610bff573d6000803e3d6000fd5b505050506040513d6020811015610c1557600080fd5b810190808051906020019092919050505060ff16600a0a610cbf8673ffffffffffffffffffffffffffffffffffffffff166399530b066040518163ffffffff1660e01b815260040160206040518083038186803b158015610c7557600080fd5b505afa158015610c89573d6000803e3d6000fd5b505050506040513d6020811015610c9f57600080fd5b81019080805190602001909291905050508661141790919063ffffffff16565b61149d90919063ffffffff16565b81600081518110610cda57fe5b6020026020010181815250509250929050565b60007f000000000000000000000000000000000000000000000000000000000000000073ffffffffffffffffffffffffffffffffffffffff1663893d20e86040518163ffffffff1660e01b815260040160206040518083038186803b158015610d5557600080fd5b505afa158015610d69573d6000803e3d6000fd5b505050506040513d6020811015610d7f57600080fd5b8101908080519060200190929190505050905090565b610d9d610ced565b73ffffffffffffffffffffffffffffffffffffffff163373ffffffffffffffffffffffffffffffffffffffff1614610e20576040517f08c379a00000000000000000000000000000000000000000000000000000000081526004018080602001828103825260498152602001806115a96049913960600191505060405180910390fd5b6000815111610e7a576040517f08c379a00000000000000000000000000000000000000000000000000000000081526004018080602001828103825260258152602001806115846025913960400191505060405180910390fd5b60005b815181101561101b57600073ffffffffffffffffffffffffffffffffffffffff16610eba838381518110610ead57fe5b60200260200101516109b9565b73ffffffffffffffffffffffffffffffffffffffff161415610f44576040517f08c379a00000000000000000000000000000000000000000000000000000000081526004018080602001828103825260208152602001807f72656d6f766544657269766174697665733a2056616c7565206e6f742073657481525060200191505060405180910390fd5b600080838381518110610f5357fe5b602002602001015173ffffffffffffffffffffffffffffffffffffffff1673ffffffffffffffffffffffffffffffffffffffff16815260200190815260200160002060006101000a81549073ffffffffffffffffffffffffffffffffffffffff0219169055818181518110610fc457fe5b602002602001015173ffffffffffffffffffffffffffffffffffffffff167fc15eb25d807b570f4567baf6e97c7b26d58a7d0512dc85e8db15375a056b860460405160405180910390a28080600101915050610e7d565b5050565b60007f0000000000000000000000000000000000000000000000000000000000000000905090565b60007f0000000000000000000000000000000000000000000000000000000000000000905090565b60008073ffffffffffffffffffffffffffffffffffffffff16611091836109b9565b73ffffffffffffffffffffffffffffffffffffffff1614159050919050565b6000806110bb611047565b905060005b8173ffffffffffffffffffffffffffffffffffffffff1663f9c7bba5856040518263ffffffff1660e01b8152600401808273ffffffffffffffffffffffffffffffffffffffff16815260200191505060206040518083038186803b15801561112757600080fd5b505afa15801561113b573d6000803e3d6000fd5b505050506040513d602081101561115157600080fd5b810190808051906020019092919050505081101561125c578473ffffffffffffffffffffffffffffffffffffffff168273ffffffffffffffffffffffffffffffffffffffff16637bbfc69e86846040518363ffffffff1660e01b8152600401808373ffffffffffffffffffffffffffffffffffffffff1681526020018281526020019250505060206040518083038186803b1580156111ef57600080fd5b505afa158015611203573d6000803e3d6000fd5b505050506040513d602081101561121957600080fd5b810190808051906020019092919050505073ffffffffffffffffffffffffffffffffffffffff16141561124f576001925061125c565b80806001019150506110c0565b50816112b3576040517f08c379a00000000000000000000000000000000000000000000000000000000081526004018080602001828103825260338152602001806115516033913960400191505060405180910390fd5b8273ffffffffffffffffffffffffffffffffffffffff1663313ce5676040518163ffffffff1660e01b815260040160206040518083038186803b1580156112f957600080fd5b505afa15801561130d573d6000803e3d6000fd5b505050506040513d602081101561132357600080fd5b810190808051906020019092919050505060ff168473ffffffffffffffffffffffffffffffffffffffff1663313ce5676040518163ffffffff1660e01b815260040160206040518083038186803b15801561137d57600080fd5b505afa158015611391573d6000803e3d6000fd5b505050506040513d60208110156113a757600080fd5b810190808051906020019092919050505060ff1614611411576040517f08c379a000000000000000000000000000000000000000000000000000000000815260040180806020018281038252602a815260200180611527602a913960400191505060405180910390fd5b50505050565b60008083141561142a5760009050611497565b600082840290508284828161143b57fe5b0414611492576040517f08c379a00000000000000000000000000000000000000000000000000000000081526004018080602001828103825260218152602001806116136021913960400191505060405180910390fd5b809150505b92915050565b6000808211611514576040517f08c379a000000000000000000000000000000000000000000000000000000000815260040180806020018281038252601a8152602001807f536166654d6174683a206469766973696f6e206279207a65726f00000000000081525060200191505060405180910390fd5b81838161151d57fe5b0490509291505056fe5f5f76616c6964617465446572697661746976653a20496e636f6e677275656e7420646563696d616c735f5f76616c6964617465446572697661746976653a20496e76616c696420795661756c7420666f7220756e6465726c79696e6772656d6f766544657269766174697665733a20456d707479205f64657269766174697665736f6e6c7946756e644465706c6f7965724f776e65723a204f6e6c79207468652046756e644465706c6f796572206f776e65722063616e2063616c6c20746869732066756e6374696f6e61646444657269766174697665733a2056616c756520616c726561647920736574536166654d6174683a206d756c7469706c69636174696f6e206f766572666c6f7761646444657269766174697665733a20456d707479205f646572697661746976657363616c63556e6465726c79696e6756616c7565733a20556e737570706f727465642064657269766174697665a164736f6c634300060c000a","linkReferences":{}},"methodIdentifiers":{"addDerivatives(address[],address[])":"39cbb63c","calcUnderlyingValues(address,uint256)":"727212f6","getFundDeployer()":"97c0ac87","getOwner()":"893d20e8","getUnderlyingForDerivative(address)":"66adb867","getYearnVaultV2Registry()":"981dc8e4","isSupportedAsset(address)":"9be918e6","removeDerivatives(address[])":"8f72b136"},"id":294}