{"abi":[{"type":"constructor","inputs":[{"name":"_policyManager","type":"address","internalType":"address"},{"name":"_addressListRegistry","type":"address","internalType":"address"}],"stateMutability":"nonpayable"},{"type":"function","name":"activateForFund","inputs":[{"name":"","type":"address","internalType":"address"}],"outputs":[],"stateMutability":"nonpayable"},{"type":"function","name":"addFundSettings","inputs":[{"name":"_comptrollerProxy","type":"address","internalType":"address"},{"name":"_encodedSettings","type":"bytes","internalType":"bytes"}],"outputs":[],"stateMutability":"nonpayable"},{"type":"function","name":"canDisable","inputs":[],"outputs":[{"name":"canDisable_","type":"bool","internalType":"bool"}],"stateMutability":"pure"},{"type":"function","name":"getAddressListRegistry","inputs":[],"outputs":[{"name":"addressListRegistry_","type":"address","internalType":"address"}],"stateMutability":"view"},{"type":"function","name":"getListIdsForFund","inputs":[{"name":"_comptrollerProxy","type":"address","internalType":"address"}],"outputs":[{"name":"listIds_","type":"uint256[]","internalType":"uint256[]"}],"stateMutability":"view"},{"type":"function","name":"getPolicyManager","inputs":[],"outputs":[{"name":"policyManager_","type":"address","internalType":"address"}],"stateMutability":"view"},{"type":"function","name":"identifier","inputs":[],"outputs":[{"name":"identifier_","type":"string","internalType":"string"}],"stateMutability":"pure"},{"type":"function","name":"implementedHooks","inputs":[],"outputs":[{"name":"implementedHooks_","type":"uint8[]","internalType":"enum IPolicyManager.PolicyHook[]"}],"stateMutability":"pure"},{"type":"function","name":"passesRule","inputs":[{"name":"_comptrollerProxy","type":"address","internalType":"address"},{"name":"_recipient","type":"address","internalType":"address"}],"outputs":[{"name":"isValid_","type":"bool","internalType":"bool"}],"stateMutability":"view"},{"type":"function","name":"updateFundSettings","inputs":[{"name":"_comptrollerProxy","type":"address","internalType":"address"},{"name":"_encodedSettings","type":"bytes","internalType":"bytes"}],"outputs":[],"stateMutability":"nonpayable"},{"type":"function","name":"validateRule","inputs":[{"name":"_comptrollerProxy","type":"address","internalType":"address"},{"name":"","type":"uint8","internalType":"enum IPolicyManager.PolicyHook"},{"name":"_encodedArgs","type":"bytes","internalType":"bytes"}],"outputs":[{"name":"isValid_","type":"bool","internalType":"bool"}],"stateMutability":"nonpayable"},{"type":"event","name":"ListsSetForFund","inputs":[{"name":"comptrollerProxy","type":"address","indexed":true,"internalType":"address"},{"name":"listIds","type":"uint256[]","indexed":false,"internalType":"uint256[]"}],"anonymous":false}],"bytecode":{"object":"0x60c06040523480156200001157600080fd5b506040516200120938038062001209833981016040819052620000349162000066565b6001600160601b0319606092831b8116608052911b1660a052620000d1565b80516200006081620000b7565b92915050565b600080604083850312156200007a57600080fd5b600062000088858562000053565b92505060206200009b8582860162000053565b9150509250929050565b60006001600160a01b03821662000060565b620000c281620000a5565b8114620000ce57600080fd5b50565b60805160601c60a05160601c611109620001006000398061024452508061018c528061039152506111096000f3fe608060405234801561001057600080fd5b50600436106100a95760003560e01c80637998a1c4116100715780637998a1c414610109578063b67cb40c1461011e578063cbf54bb214610131578063ceb9a0ad14610146578063d44ad6cb14610159578063dffd7c6f14610161576100a9565b80630d4d7510146100ae5780630f5f6b4f146100ae5780631ef92578146100c3578063579be718146100e157806374708934146100f4575b600080fd5b6100c16100bc366004610b11565b610181565b005b6100cb6101e2565b6040516100d89190610f57565b60405180910390f35b6100cb6100ef366004610b67565b6101e7565b6100fc610242565b6040516100d89190610ed3565b610111610266565b6040516100d89190610f65565b6100cb61012c366004610ad7565b61029d565b610139610335565b6040516100d89190610f0e565b6100c1610154366004610a32565b61038c565b6100fc61038f565b61017461016f366004610a32565b6103b3565b6040516100d89190610f1f565b336001600160a01b037f000000000000000000000000000000000000000000000000000000000000000016146101d25760405162461bcd60e51b81526004016101c990610f76565b60405180910390fd5b6101dd83838361041e565b505050565b600190565b60008061022984848080601f0160208091040260200160405190810160405280939291908181526020018383808284376000920191909152506106e192505050565b5050509050610238868261029d565b9695505050505050565b7f000000000000000000000000000000000000000000000000000000000000000090565b60408051808201909152601a81527f414c4c4f5745445f4445504f5349545f524543495049454e5453000000000000602082015290565b60006102a7610242565b6001600160a01b03166375674f466102be856103b3565b846040518363ffffffff1660e01b81526004016102dc929190610f30565b60206040518083038186803b1580156102f457600080fd5b505afa158015610308573d6000803e3d6000fd5b505050506040513d601f19601f8201168201806040525081019061032c9190610c2e565b90505b92915050565b6040805160018082528183019092526060916020808301908036833701905050905060008160008151811061036657fe5b6020026020010190600981111561037957fe5b9081600981111561038657fe5b90525090565b50565b7f000000000000000000000000000000000000000000000000000000000000000090565b6001600160a01b0381166000908152602081815260409182902080548351818402810184019094528084526060939283018282801561041157602002820191906000526020600020905b8154815260200190600101908083116103fd575b505050505090505b919050565b60608061042d83850185610bcf565b915091506060815183510167ffffffffffffffff8111801561044e57600080fd5b50604051908082528060200260200182016040528015610478578160200160208202803683370190505b50905080516000141561049d5760405162461bcd60e51b81526004016101c990610f86565b6001600160a01b038616600090815260208190526040902054156104dc576001600160a01b03861660009081526020819052604081206104dc916107cf565b60005b835181101561056f578381815181106104f457fe5b602002602001015182828151811061050857fe5b602002602001018181525050600080886001600160a01b03166001600160a01b0316815260200190815260200160002084828151811061054457fe5b60209081029190910181015182546001818101855560009485529290932090920191909155016104df565b50815115610698576000866001600160a01b031663c98091876040518163ffffffff1660e01b815260040160206040518083038186803b1580156105b257600080fd5b505afa1580156105c6573d6000803e3d6000fd5b505050506040513d601f19601f820116820180604052508101906105ea9190610a58565b905060005b835181101561069557600081865101905061061d8386848151811061061057fe5b602002602001015161070a565b84828151811061062957fe5b6020026020010181815250506000808a6001600160a01b03166001600160a01b0316815260200190815260200160002084828151811061066557fe5b602090810291909101810151825460018181018555600094855292909320909201919091559190910190506105ef565b50505b856001600160a01b03167fd63f5b55f54cdda3234eab3aa26d85b99854a43efea66e0c459220fd7b3a332f826040516106d19190610f1f565b60405180910390a2505050505050565b600080600080848060200190518101906106fb9190610a76565b93509350935093509193509193565b6000806060610718846107ae565b91509150610724610242565b6001600160a01b031663be68406e8684846040518463ffffffff1660e01b815260040161075393929190610ee1565b602060405180830381600087803b15801561076d57600080fd5b505af1158015610781573d6000803e3d6000fd5b505050506040513d601f19601f820116820180604052508101906107a59190610c94565b95945050505050565b60006060828060200190518101906107c69190610c4c565b91509150915091565b508054600082559060005260206000209081019061038c91905b808211156107fd57600081556001016107e9565b5090565b803561032f816110bc565b805161032f816110bc565b600082601f83011261082857600080fd5b815161083b61083682610fbd565b610f96565b9150818183526020840193506020810190508385602084028201111561086057600080fd5b60005b8381101561088c5781610876888261080c565b8452506020928301929190910190600101610863565b5050505092915050565b600082601f8301126108a757600080fd5b81356108b561083682610fbd565b81815260209384019390925082018360005b8381101561088c57813586016108dd88826109b7565b84525060209283019291909101906001016108c7565b600082601f83011261090457600080fd5b813561091261083682610fbd565b9150818183526020840193506020810190508385602084028201111561093757600080fd5b60005b8381101561088c578161094d8882610a1c565b845250602092830192919091019060010161093a565b805161032f816110d0565b60008083601f84011261098057600080fd5b50813567ffffffffffffffff81111561099857600080fd5b6020830191508360018202830111156109b057600080fd5b9250929050565b600082601f8301126109c857600080fd5b81356109d661083682610fde565b915080825260208301602083018583830111156109f257600080fd5b6109fd838284611062565b50505092915050565b803561032f816110d9565b805161032f816110e6565b803561032f816110f3565b805161032f816110f3565b600060208284031215610a4457600080fd5b6000610a508484610801565b949350505050565b600060208284031215610a6a57600080fd5b6000610a50848461080c565b60008060008060808587031215610a8c57600080fd5b6000610a98878761080c565b9450506020610aa987828801610a27565b9350506040610aba87828801610a27565b9250506060610acb87828801610a27565b91505092959194509250565b60008060408385031215610aea57600080fd5b6000610af68585610801565b9250506020610b0785828601610801565b9150509250929050565b600080600060408486031215610b2657600080fd5b6000610b328686610801565b935050602084013567ffffffffffffffff811115610b4f57600080fd5b610b5b8682870161096e565b92509250509250925092565b60008060008060608587031215610b7d57600080fd5b6000610b898787610801565b9450506020610b9a87828801610a06565b935050604085013567ffffffffffffffff811115610bb757600080fd5b610bc38782880161096e565b95989497509550505050565b60008060408385031215610be257600080fd5b823567ffffffffffffffff811115610bf957600080fd5b610c05858286016108f3565b925050602083013567ffffffffffffffff811115610c2257600080fd5b610b0785828601610896565b600060208284031215610c4057600080fd5b6000610a508484610963565b60008060408385031215610c5f57600080fd5b6000610c6b8585610a11565b925050602083015167ffffffffffffffff811115610c8857600080fd5b610b0785828601610817565b600060208284031215610ca657600080fd5b6000610a508484610a27565b6000610cbe8383610cde565b505060200190565b6000610cbe8383610deb565b6000610cbe8383610eca565b610ce781611019565b82525050565b6000610cf88261100c565b610d028185611010565b9350610d0d83611006565b8060005b83811015610d3b578151610d258882610cb2565b9750610d3083611006565b925050600101610d11565b509495945050505050565b6000610d518261100c565b610d5b8185611010565b9350610d6683611006565b8060005b83811015610d3b578151610d7e8882610cc6565b9750610d8983611006565b925050600101610d6a565b6000610d9f8261100c565b610da98185611010565b9350610db483611006565b8060005b83811015610d3b578151610dcc8882610cd2565b9750610dd783611006565b925050600101610db8565b610ce781611024565b610ce78161104c565b610ce781611057565b6000610e088261100c565b610e128185611010565b9350610e2281856020860161106e565b610e2b8161109e565b9093019392505050565b6000610e42602983611010565b7f4f6e6c792074686520506f6c6963794d616e616765722063616e206d616b65208152681d1a1a5cc818d85b1b60ba1b602082015260400192915050565b6000610e8d602883611010565b7f5f5f7570646174654c69737473466f7246756e643a204e6f206c6973747320738152671c1958da599a595960c21b602082015260400192915050565b610ce781611049565b6020810161032f8284610cde565b60608101610eef8286610cde565b610efc6020830185610df4565b81810360408301526107a58184610ced565b6020808252810161032c8184610d46565b6020808252810161032c8184610d94565b60408082528101610f418185610d94565b9050610f506020830184610cde565b9392505050565b6020810161032f8284610de2565b6020808252810161032c8184610dfd565b6020808252810161032f81610e35565b6020808252810161032f81610e80565b60405181810167ffffffffffffffff81118282101715610fb557600080fd5b604052919050565b600067ffffffffffffffff821115610fd457600080fd5b5060209081020190565b600067ffffffffffffffff821115610ff557600080fd5b506020601f91909101601f19160190565b60200190565b5190565b90815260200190565b600061032f8261103d565b151590565b80610419816110a8565b80610419816110b2565b6001600160a01b031690565b90565b600061032f82611029565b600061032f82611033565b82818337506000910152565b60005b83811015611089578181015183820152602001611071565b83811115611098576000848401525b50505050565b601f01601f191690565b600a811061038c57fe5b6004811061038c57fe5b6110c581611019565b811461038c57600080fd5b6110c581611024565b600a811061038c57600080fd5b6004811061038c57600080fd5b6110c58161104956fea164736f6c634300060c000a","linkReferences":{}},"methodIdentifiers":{"activateForFund(address)":"ceb9a0ad","addFundSettings(address,bytes)":"0f5f6b4f","canDisable()":"1ef92578","getAddressListRegistry()":"74708934","getListIdsForFund(address)":"dffd7c6f","getPolicyManager()":"d44ad6cb","identifier()":"7998a1c4","implementedHooks()":"cbf54bb2","passesRule(address,address)":"b67cb40c","updateFundSettings(address,bytes)":"0d4d7510","validateRule(address,uint8,bytes)":"579be718"},"id":261}