{"abi":[{"type":"constructor","inputs":[{"name":"_fundDeployerV4","type":"address","internalType":"address"}],"stateMutability":"nonpayable"},{"type":"function","name":"formatDepositCall","inputs":[{"name":"_vaultProxy","type":"address","internalType":"address"},{"name":"_depositAsset","type":"address","internalType":"address"},{"name":"_depositAssetAmount","type":"uint256","internalType":"uint256"}],"outputs":[{"name":"target_","type":"address","internalType":"address"},{"name":"payload_","type":"bytes","internalType":"bytes"}],"stateMutability":"view"},{"type":"function","name":"formatSingleAssetRedemptionCall","inputs":[{"name":"_vaultProxy","type":"address","internalType":"address"},{"name":"_recipient","type":"address","internalType":"address"},{"name":"_asset","type":"address","internalType":"address"},{"name":"_amount","type":"uint256","internalType":"uint256"},{"name":"_amountIsShares","type":"bool","internalType":"bool"}],"outputs":[{"name":"target_","type":"address","internalType":"address"},{"name":"payload_","type":"bytes","internalType":"bytes"}],"stateMutability":"view"},{"type":"function","name":"getDispatcher","inputs":[],"outputs":[{"name":"dispatcher_","type":"address","internalType":"address"}],"stateMutability":"view"},{"type":"function","name":"getGlobalConfigLib","inputs":[],"outputs":[{"name":"globalConfigLib_","type":"address","internalType":"address"}],"stateMutability":"view"},{"type":"function","name":"init","inputs":[{"name":"_dispatcher","type":"address","internalType":"address"}],"outputs":[],"stateMutability":"nonpayable"},{"type":"function","name":"isValidRedeemSharesCall","inputs":[{"name":"_vaultProxy","type":"address","internalType":"address"},{"name":"_recipientToValidate","type":"address","internalType":"address"},{"name":"_sharesAmountToValidate","type":"uint256","internalType":"uint256"},{"name":"_redeemContract","type":"address","internalType":"address"},{"name":"_redeemSelector","type":"bytes4","internalType":"bytes4"},{"name":"_redeemData","type":"bytes","internalType":"bytes"}],"outputs":[{"name":"isValid_","type":"bool","internalType":"bool"}],"stateMutability":"view"},{"type":"function","name":"proxiableUUID","inputs":[],"outputs":[{"name":"uuid_","type":"bytes32","internalType":"bytes32"}],"stateMutability":"pure"},{"type":"function","name":"setGlobalConfigLib","inputs":[{"name":"_nextGlobalConfigLib","type":"address","internalType":"address"}],"outputs":[],"stateMutability":"nonpayable"},{"type":"event","name":"GlobalConfigLibSet","inputs":[{"name":"nextGlobalConfigLib","type":"address","indexed":false,"internalType":"address"}],"anonymous":false}],"bytecode":{"object":"0x60a060405234801561001057600080fd5b50604051610e59380380610e598339818101604052602081101561003357600080fd5b5051606081901b6001600160601b0319166080526001600160a01b0316610de8610071600039806103b6528061077e52806109275250610de86000f3fe608060405234801561001057600080fd5b50600436106100885760003560e01c80635d4755dc1161005b5780635d4755dc146101c15780637f1804331461027a5780639528ee16146102b0578063ebb3d589146102d457610088565b806319ab453c1461008d5780632441593c146100b557806343233f011461018157806352d1902d146101a7575b600080fd5b6100b3600480360360208110156100a357600080fd5b50356001600160a01b03166102dc565b005b6100f9600480360360a08110156100cb57600080fd5b506001600160a01b0381358116916020810135821691604082013516906060810135906080013515156103a3565b60405180836001600160a01b0316815260200180602001828103825283818151815260200191508051906020019080838360005b8381101561014557818101518382015260200161012d565b50505050905090810190601f1680156101725780820380516001836020036101000a031916815260200191505b50935050505060405180910390f35b6100b36004803603602081101561019757600080fd5b50356001600160a01b0316610650565b6101af61074a565b60408051918252519081900360200190f35b610266600480360360c08110156101d757600080fd5b6001600160a01b0382358116926020810135821692604082013592606083013516916001600160e01b03196080820135169181019060c0810160a082013564010000000081111561022757600080fd5b82018360208201111561023957600080fd5b8035906020019184600183028401116401000000008311171561025b57600080fd5b50909250905061076e565b604080519115158252519081900360200190f35b6100f96004803603606081101561029057600080fd5b506001600160a01b03813581169160208101359091169060400135610914565b6102b8610b0b565b604080516001600160a01b039092168252519081900360200190f35b6102b8610b30565b60006102e6610b30565b6001600160a01b031614610341576040805162461bcd60e51b815260206004820152601f60248201527f696e69743a2050726f787920616c726561647920696e697469616c697a656400604482015290519081900360640190fd5b600080546001600160a01b0319166001600160a01b0383161790557fce6de52b779ce41beea76a6e7a997211f0006af21ed2e2924caa5bdc92dac318610385610b0b565b604080516001600160a01b039092168252519081900360200190a150565b6000606060006103b288610b3f565b90507f00000000000000000000000000000000000000000000000000000000000000006001600160a01b0316816001600160a01b0316141561060e578361042a5760405162461bcd60e51b815260040180806020018281038252603d815260200180610ce5603d913960400191505060405180910390fd5b876001600160a01b0316635a53e3486040518163ffffffff1660e01b815260040160206040518083038186803b15801561046357600080fd5b505afa158015610477573d6000803e3d6000fd5b505050506040513d602081101561048d57600080fd5b5051604080516001808252818301909252919450606091906020808301908036833701905050905086816000815181106104c357fe5b6001600160a01b0392909216602092830291909101909101526040805160018082528183019092526060918160200160208202803683370190505090506127108160008151811061051057fe5b602002602001018181525050633462fcc160e01b8988848460405160240180856001600160a01b031681526020018481526020018060200180602001838103835285818151815260200191508051906020019060200280838360005b8381101561058457818101518382015260200161056c565b50505050905001838103825284818151815260200191508051906020019060200280838360005b838110156105c35781810151838201526020016105ab565b505050509050019650505050505050604051602081830303815290604052906001600160e01b0319166020820180516001600160e01b03838183161783525050505093505050610645565b60405162461bcd60e51b8152600401808060200182810382526034815260200180610cb16034913960400191505060405180910390fd5b509550959350505050565b610658610b30565b6001600160a01b031663893d20e86040518163ffffffff1660e01b815260040160206040518083038186803b15801561069057600080fd5b505afa1580156106a4573d6000803e3d6000fd5b505050506040513d60208110156106ba57600080fd5b50516001600160a01b031633146107025760405162461bcd60e51b8152600401808060200182810382526030815260200180610d866030913960400191505060405180910390fd5b61070b81610bc7565b604080516001600160a01b038316815290517fce6de52b779ce41beea76a6e7a997211f0006af21ed2e2924caa5bdc92dac3189181900360200190a150565b7ff25d88d51901d7fabc9924b03f4c2fe4300e6fe1aae4b5134c0a90b68cd8e81c90565b60008061077a89610b3f565b90507f00000000000000000000000000000000000000000000000000000000000000006001600160a01b0316816001600160a01b0316141561090357886001600160a01b0316635a53e3486040518163ffffffff1660e01b815260040160206040518083038186803b1580156107ef57600080fd5b505afa158015610803573d6000803e3d6000fd5b505050506040513d602081101561081957600080fd5b50516001600160a01b03878116911614610837576000915050610909565b6001600160e01b03198516633462fcc160e01b148061086657506001600160e01b03198516636af8e7eb60e01b145b610874576000915050610909565b6000808585604081101561088757600080fd5b506001600160a01b0381358116935060209091013591508a1661aaaa148015906108c35750816001600160a01b03168a6001600160a01b031614155b156108d45760009350505050610909565b60011989148015906108e65750808914155b156108f75760009350505050610909565b60019350505050610909565b60009150505b979650505050505050565b60006060600061092386610b3f565b90507f00000000000000000000000000000000000000000000000000000000000000006001600160a01b0316816001600160a01b03161415610acb576000866001600160a01b0316635a53e3486040518163ffffffff1660e01b815260040160206040518083038186803b15801561099a57600080fd5b505afa1580156109ae573d6000803e3d6000fd5b505050506040513d60208110156109c457600080fd5b505160408051637134e1eb60e11b815290519192506001600160a01b0383169163e269c3d691600480820192602092909190829003018186803b158015610a0a57600080fd5b505afa158015610a1e573d6000803e3d6000fd5b505050506040513d6020811015610a3457600080fd5b50516001600160a01b03878116911614610a7f5760405162461bcd60e51b815260040180806020018281038252602c815260200180610d5a602c913960400191505060405180910390fd5b604080516024810187905260016044808301919091528251808303909101815260649091019091526020810180516001600160e01b0316635f75e2ed60e11b1790529093509150610b02565b60405162461bcd60e51b8152600401808060200182810382526026815260200180610db66026913960400191505060405180910390fd5b50935093915050565b7f360894a13ba1a3210667c828492db98dca3e2076cc3735a920a3ca505d382bbc5490565b6000546001600160a01b031690565b6000610b49610b30565b6001600160a01b0316633d7c74f8836040518263ffffffff1660e01b815260040180826001600160a01b0316815260200191505060206040518083038186803b158015610b9557600080fd5b505afa158015610ba9573d6000803e3d6000fd5b505050506040513d6020811015610bbf57600080fd5b505192915050565b7ff25d88d51901d7fabc9924b03f4c2fe4300e6fe1aae4b5134c0a90b68cd8e81c60001b816001600160a01b03166352d1902d6040518163ffffffff1660e01b815260040160206040518083038186803b158015610c2457600080fd5b505afa158015610c38573d6000803e3d6000fd5b505050506040513d6020811015610c4e57600080fd5b505114610c8c5760405162461bcd60e51b8152600401808060200182810382526038815260200180610d226038913960400191505060405180910390fd5b7f360894a13ba1a3210667c828492db98dca3e2076cc3735a920a3ca505d382bbc5556fe666f726d617453696e676c654173736574526564656d7074696f6e43616c6c3a20556e737570706f727465642072656c65617365666f726d617453696e676c654173736574526564656d7074696f6e43616c6c3a205f616d6f756e744973536861726573206d75737420626520747275655f5f757064617465436f6465416464726573733a205f6e657874476c6f62616c436f6e6669674c6962206e6f7420636f6d70617469626c65666f726d61744465706f73697443616c6c3a20556e737570706f72746564205f6465706f73697441737365744f6e6c79207468652044697370617463686572206f776e65722063616e2063616c6c20746869732066756e6374696f6e666f726d61744465706f73697443616c6c3a20556e737570706f727465642072656c65617365a164736f6c634300060c000a","linkReferences":{}},"methodIdentifiers":{"formatDepositCall(address,address,uint256)":"7f180433","formatSingleAssetRedemptionCall(address,address,address,uint256,bool)":"2441593c","getDispatcher()":"ebb3d589","getGlobalConfigLib()":"9528ee16","init(address)":"19ab453c","isValidRedeemSharesCall(address,address,uint256,address,bytes4,bytes)":"5d4755dc","proxiableUUID()":"52d1902d","setGlobalConfigLib(address)":"43233f01"},"id":76}