{"abi":[{"type":"constructor","inputs":[{"name":"_libAddress","type":"address","internalType":"address"}],"stateMutability":"nonpayable"},{"type":"function","name":"deployProxy","inputs":[{"name":"_owner","type":"address","internalType":"address"},{"name":"_vaultProxyAddress","type":"address","internalType":"address"},{"name":"_lossTolerance","type":"uint64","internalType":"uint64"},{"name":"_lossTolerancePeriodDuration","type":"uint32","internalType":"uint32"},{"name":"_shutdowner","type":"address","internalType":"address"}],"outputs":[{"name":"proxyAddress_","type":"address","internalType":"address"}],"stateMutability":"nonpayable"},{"type":"event","name":"ProxyDeployed","inputs":[{"name":"deployer","type":"address","indexed":true,"internalType":"address"},{"name":"proxyAddress","type":"address","indexed":false,"internalType":"address"},{"name":"owner","type":"address","indexed":true,"internalType":"address"},{"name":"vaultProxy","type":"address","indexed":true,"internalType":"address"},{"name":"lossTolerance","type":"uint64","indexed":false,"internalType":"uint64"},{"name":"lossTolerancePeriodDuration","type":"uint32","indexed":false,"internalType":"uint32"},{"name":"shutDowner","type":"address","indexed":false,"internalType":"address"}],"anonymous":false}],"bytecode":{"object":"0x60a060405234801561001057600080fd5b506040516105f73803806105f783398101604081905261002f91610040565b6001600160a01b0316608052610070565b60006020828403121561005257600080fd5b81516001600160a01b038116811461006957600080fd5b9392505050565b60805161056d61008a600039600060d7015261056d6000f3fe608060405234801561001057600080fd5b506004361061002b5760003560e01c80630f3d5a8a14610030575b600080fd5b61004361003e3660046101c9565b61005f565b6040516001600160a01b03909116815260200160405180910390f35b604080516001600160a01b038781166024830152868116604483015267ffffffffffffffff8616606483015263ffffffff85166084830152831660a4808301919091528251808303909101815260c490910182526020810180516001600160e01b0316632d5fdbeb60e01b17905290516000919081907f000000000000000000000000000000000000000000000000000000000000000090610100906101a0565b61010b929190610248565b604051809103906000f080158015610127573d6000803e3d6000fd5b50604080516001600160a01b03838116825267ffffffffffffffff8916602083015263ffffffff8816828401528681166060830152915192945088821692918a169133917ff6398d02bb76745dc968e16ad0a56f9541c1735ae53b000f0d324eaeaff967da919081900360800190a45095945050505050565b6102c4806102a983390190565b80356001600160a01b03811681146101c457600080fd5b919050565b600080600080600060a086880312156101e157600080fd5b6101ea866101ad565b94506101f8602087016101ad565b9350604086013567ffffffffffffffff8116811461021557600080fd5b9250606086013563ffffffff8116811461022e57600080fd5b915061023c608087016101ad565b90509295509295909350565b604081526000835180604084015260005b818110156102765760208187018101516060868401015201610259565b50600060608285018101919091526001600160a01b03949094166020840152601f01601f19169091019091019291505056fe60a060405234801561001057600080fd5b506040516102c43803806102c483398101604081905261002f91610151565b6001600160a01b0381166080527f360894a13ba1a3210667c828492db98dca3e2076cc3735a920a3ca505d382bbc8190558151156100f457600080826001600160a01b0316846040516100829190610210565b600060405180830381855af49150503d80600081146100bd576040519150601f19603f3d011682016040523d82523d6000602084013e6100c2565b606091505b50915091508181906100f05760405162461bcd60e51b81526004016100e7919061022c565b60405180910390fd5b5050505b505061025f565b634e487b7160e01b600052604160045260246000fd5b60005b8381101561012c578181015183820152602001610114565b50506000910152565b80516001600160a01b038116811461014c57600080fd5b919050565b6000806040838503121561016457600080fd5b82516001600160401b038082111561017b57600080fd5b818501915085601f83011261018f57600080fd5b8151818111156101a1576101a16100fb565b604051601f8201601f19908116603f011681019083821181831017156101c9576101c96100fb565b816040528281528860208487010111156101e257600080fd5b6101f3836020830160208801610111565b809650505050505061020760208401610135565b90509250929050565b60008251610222818460208701610111565b9190910192915050565b602081526000825180602084015261024b816040850160208701610111565b601f01601f19169190910160400192915050565b608051604d610277600039600060060152604d6000f3fe60806040527f00000000000000000000000000000000000000000000000000000000000000003660008037600080366000846127105a03f43d806000803e818015604857816000f35b816000fd","linkReferences":{}},"methodIdentifiers":{"deployProxy(address,address,uint64,uint32,address)":"0f3d5a8a"},"id":67}