{"abi":[{"type":"constructor","inputs":[{"name":"_libAddress","type":"address","internalType":"address"}],"stateMutability":"nonpayable"},{"type":"function","name":"deployProxy","inputs":[{"name":"_owner","type":"address","internalType":"address"},{"name":"_vaultProxyAddress","type":"address","internalType":"address"},{"name":"_lossTolerance","type":"uint64","internalType":"uint64"},{"name":"_lossTolerancePeriodDuration","type":"uint32","internalType":"uint32"},{"name":"_shutdowner","type":"address","internalType":"address"}],"outputs":[{"name":"proxyAddress_","type":"address","internalType":"address"}],"stateMutability":"nonpayable"},{"type":"event","name":"ProxyDeployed","inputs":[{"name":"deployer","type":"address","indexed":true,"internalType":"address"},{"name":"proxyAddress","type":"address","indexed":false,"internalType":"address"},{"name":"owner","type":"address","indexed":true,"internalType":"address"},{"name":"vaultProxy","type":"address","indexed":true,"internalType":"address"},{"name":"lossTolerance","type":"uint64","indexed":false,"internalType":"uint64"},{"name":"lossTolerancePeriodDuration","type":"uint32","indexed":false,"internalType":"uint32"},{"name":"shutDowner","type":"address","indexed":false,"internalType":"address"}],"anonymous":false}],"bytecode":{"object":"0x60a060405234801561001057600080fd5b506040516107c83803806107c883398101604081905261002f91610075565b6001600160a01b031660805261009e565b60006001600160a01b0382165b92915050565b61005c81610040565b811461006757600080fd5b50565b805161004d81610053565b60006020828403121561008a5761008a600080fd5b6000610096848461006a565b949350505050565b6080516107106100b8600039600060b501526107106000f3fe608060405234801561001057600080fd5b506004361061002b5760003560e01c80630f3d5a8a14610030575b600080fd5b61004361003e3660046101e4565b610059565b604051610050919061026b565b60405180910390f35b600080632d5fdbeb60e01b878787878760405160240161007d959493929190610295565b604051602081830303815290604052906001600160e01b0319166020820180516001600160e01b0383818316178352505050509050807f00000000000000000000000000000000000000000000000000000000000000006040516100e090610170565b6100eb929190610337565b604051809103906000f080158015610107573d6000803e3d6000fd5b509150856001600160a01b0316876001600160a01b0316336001600160a01b03167ff6398d02bb76745dc968e16ad0a56f9541c1735ae53b000f0d324eaeaff967da8589898960405161015d949392919061035e565b60405180910390a4505b95945050505050565b61037c8061039483390190565b60006001600160a01b0382165b92915050565b6101998161017d565b81146101a457600080fd5b50565b803561018a81610190565b67ffffffffffffffff8116610199565b803561018a816101b2565b63ffffffff8116610199565b803561018a816101cd565b600080600080600060a086880312156101ff576101ff600080fd5b600061020b88886101a7565b955050602061021c888289016101a7565b945050604061022d888289016101c2565b935050606061023e888289016101d9565b925050608061024f888289016101a7565b9150509295509295909350565b6102658161017d565b82525050565b6020810161018a828461025c565b67ffffffffffffffff8116610265565b63ffffffff8116610265565b60a081016102a3828861025c565b6102b0602083018761025c565b6102bd6040830186610279565b6102ca6060830185610289565b6102d7608083018461025c565b9695505050505050565b60005b838110156102fc5781810151838201526020016102e4565b50506000910152565b600061030f825190565b8084526020840193506103268185602086016102e1565b601f01601f19169290920192915050565b604080825281016103488185610305565b9050610357602083018461025c565b9392505050565b6080810161036c828761025c565b6103796020830186610279565b6103866040830185610289565b610167606083018461025c56fe60a060405234801561001057600080fd5b5060405161037c38038061037c83398101604081905261002f91610249565b6001600160a01b0381166080527f360894a13ba1a3210667c828492db98dca3e2076cc3735a920a3ca505d382bbc8190558151156100f457600080826001600160a01b03168460405161008291906102c1565b600060405180830381855af49150503d80600081146100bd576040519150601f19603f3d011682016040523d82523d6000602084013e6100c2565b606091505b50915091508181906100f05760405162461bcd60e51b81526004016100e79190610306565b60405180910390fd5b5050505b5050610317565b634e487b7160e01b600052604160045260246000fd5b601f19601f83011681018181106001600160401b0382111715610136576101366100fb565b6040525050565b600061014860405190565b90506101548282610111565b919050565b60006001600160401b03821115610172576101726100fb565b601f19601f83011660200192915050565b60005b8381101561019e578181015183820152602001610186565b50506000910152565b60006101ba6101b584610159565b61013d565b9050828152602081018484840111156101d5576101d5600080fd5b6101e0848285610183565b509392505050565b600082601f8301126101fc576101fc600080fd5b815161020c8482602086016101a7565b949350505050565b60006001600160a01b0382165b92915050565b61023081610214565b811461023b57600080fd5b50565b805161022181610227565b6000806040838503121561025f5761025f600080fd5b82516001600160401b0381111561027857610278600080fd5b610284858286016101e8565b92505060206102958582860161023e565b9150509250929050565b60006102a9825190565b6102b7818560208601610183565b9290920192915050565b60006102cd828461029f565b9392505050565b60006102de825190565b8084526020840193506102f5818560208601610183565b601f01601f19169290920192915050565b602080825281016102cd81846102d4565b608051604d61032f600039600060060152604d6000f3fe60806040527f00000000000000000000000000000000000000000000000000000000000000003660008037600080366000846127105a03f43d806000803e818015604857816000f35b816000fd","linkReferences":{}},"methodIdentifiers":{"deployProxy(address,address,uint64,uint32,address)":"0f3d5a8a"},"id":80}