{"abi":[{"type":"constructor","inputs":[{"name":"_integrationManager","type":"address","internalType":"address"},{"name":"_bebopBlend","type":"address","internalType":"address"},{"name":"_addressListRegistry","type":"address","internalType":"address"},{"name":"_trustedMakersListId","type":"uint256","internalType":"uint256"}],"stateMutability":"nonpayable"},{"type":"function","name":"ADDRESS_LIST_REGISTRY","inputs":[],"outputs":[{"name":"","type":"address","internalType":"contract IAddressListRegistry"}],"stateMutability":"view"},{"type":"function","name":"BEBOP_BLEND","inputs":[],"outputs":[{"name":"","type":"address","internalType":"contract IBebopBlend"}],"stateMutability":"view"},{"type":"function","name":"TRUSTED_MAKERS_LIST_ID","inputs":[],"outputs":[{"name":"","type":"uint256","internalType":"uint256"}],"stateMutability":"view"},{"type":"function","name":"action","inputs":[{"name":"","type":"address","internalType":"address"},{"name":"_actionData","type":"bytes","internalType":"bytes"},{"name":"","type":"bytes","internalType":"bytes"}],"outputs":[],"stateMutability":"nonpayable"},{"type":"function","name":"getIntegrationManager","inputs":[],"outputs":[{"name":"integrationManager_","type":"address","internalType":"address"}],"stateMutability":"view"},{"type":"function","name":"isAllowedMaker","inputs":[{"name":"_who","type":"address","internalType":"address"}],"outputs":[{"name":"isAllowedMaker_","type":"bool","internalType":"bool"}],"stateMutability":"view"},{"type":"function","name":"parseAssetsForAction","inputs":[{"name":"_vaultProxy","type":"address","internalType":"address"},{"name":"_selector","type":"bytes4","internalType":"bytes4"},{"name":"_actionData","type":"bytes","internalType":"bytes"}],"outputs":[{"name":"spendAssetsHandleType_","type":"uint8","internalType":"enum IIntegrationManager.SpendAssetsHandleType"},{"name":"spendAssets_","type":"address[]","internalType":"address[]"},{"name":"spendAssetAmounts_","type":"uint256[]","internalType":"uint256[]"},{"name":"incomingAssets_","type":"address[]","internalType":"address[]"},{"name":"minIncomingAssetAmounts_","type":"uint256[]","internalType":"uint256[]"}],"stateMutability":"view"},{"type":"error","name":"BebopBlendAdapter__InvalidAction","inputs":[]},{"type":"error","name":"BebopBlendAdapter__SwapSingle__InvalidReceiver","inputs":[]},{"type":"error","name":"BebopBlendAdapter__SwapSingle__UntrustedMaker","inputs":[]}],"bytecode":{"object":"0x6101006040523480156200001257600080fd5b50604051620016ca380380620016ca8339810160408190526200003591620000a6565b6001600160a01b0393841660805291831660c05290911660a05260e05262000114565b60006001600160a01b0382165b92915050565b620000768162000058565b81146200008257600080fd5b50565b805162000065816200006b565b8062000076565b8051620000658162000092565b60008060008060808587031215620000c157620000c1600080fd5b6000620000cf878762000085565b9450506020620000e28782880162000085565b9350506040620000f58782880162000085565b9250506060620001088782880162000099565b91505092959194509250565b60805160a05160c05160e0516115546200017660003960008181610152015281816102f8015261036201526000818160c4015281816103e101526104310152600081816087015261033501526000818161012101526101ac01526115546000f3fe608060405234801561001057600080fd5b506004361061007d5760003560e01c8063c54efee51161005b578063c54efee5146100fb578063e7c456901461011f578063f5d213141461014d578063ff7ede371461018157600080fd5b806329bcea29146100825780633ac81531146100bf578063a7a19e00146100e6575b600080fd5b6100a97f000000000000000000000000000000000000000000000000000000000000000081565b6040516100b691906109e1565b60405180910390f35b6100a97f000000000000000000000000000000000000000000000000000000000000000081565b6100f96100f4366004610a63565b6101a1565b005b61010e610109366004610b0e565b610241565b6040516100b6959493929190610c7b565b7f00000000000000000000000000000000000000000000000000000000000000006040516100b69190610ce2565b6101747f000000000000000000000000000000000000000000000000000000000000000081565b6040516100b69190610cf0565b61019461018f366004610cfe565b6102f4565b6040516100b69190610d27565b336001600160a01b037f000000000000000000000000000000000000000000000000000000000000000016146101f25760405162461bcd60e51b81526004016101e990610d87565b60405180910390fd5b60008061020185870187610ea5565b9092509050600082801561021757610217610b7c565b036102385761023881806020019051810190610233919061117c565b6103d3565b50505050505050565b600060608080806001600160e01b031988166253d0cf60e91b1461027857604051634c2c5d7560e11b815260040160405180910390fd5b600080610287888a018a610ea5565b9092509050600082801561029d5761029d610b7c565b036102d0576102bf8b828060200190518101906102ba919061117c565b61049e565b9650965096509650965050506102e9565b604051634c2c5d7560e11b815260040160405180910390fd5b945094509450945094565b60007f000000000000000000000000000000000000000000000000000000000000000015806103cd57506040516307158c8160e21b81526001600160a01b037f00000000000000000000000000000000000000000000000000000000000000001690631c5632049061038c907f00000000000000000000000000000000000000000000000000000000000000009086906004016111b7565b602060405180830381865afa1580156103a9573d6000803e3d6000fd5b505050506040513d601f19601f820116820180604052508101906103cd91906111e5565b92915050565b61040e8160000151608001517f0000000000000000000000000000000000000000000000000000000000000000836000015160c0015161064e565b8051602082015160c08201516040516326e75e5d60e11b81526001600160a01b037f00000000000000000000000000000000000000000000000000000000000000001693634dcebcba9361046993919290919060040161133b565b600060405180830381600087803b15801561048357600080fd5b505af1158015610497573d6000803e3d6000fd5b5050505050565b60006060806060806104b78660000151604001516102f4565b6104d457604051637173237360e11b815260040160405180910390fd5b866001600160a01b0316866000015161010001516001600160a01b03161461050f576040516357574fc160e11b815260040160405180910390fd5b60408051600180825281830190925290602080830190803683370190505093508560000151608001518460008151811061054b5761054b61136d565b6001600160a01b0392909216602092830291909101820152604080516001808252818301909252918281019080368337019050509250856000015160c001518360008151811061059d5761059d61136d565b602090810291909101015260408051600180825281830190925290816020016020820280368337019050509150856000015160a00151826000815181106105e6576105e661136d565b6001600160a01b03929092166020928302919091018201526040805160018082528183019092529182810190803683370190505090508560400151816000815181106106345761063461136d565b602002602001018181525050600294509295509295909350565b604051636eb1769f60e11b81526000906001600160a01b0385169063dd62ed3e9061067f9030908790600401611383565b602060405180830381865afa15801561069c573d6000803e3d6000fd5b505050506040513d601f19601f820116820180604052508101906106c09190611391565b9050818110156106fb5780156106e5576106e56001600160a01b038516846000610701565b6106fb6001600160a01b03851684600019610701565b50505050565b61070c838383610711565b505050565b80158061078a5750604051636eb1769f60e11b81526001600160a01b0384169063dd62ed3e906107479030908690600401611383565b602060405180830381865afa158015610764573d6000803e3d6000fd5b505050506040513d601f19601f820116820180604052508101906107889190611391565b155b6107a65760405162461bcd60e51b81526004016101e990611405565b61070c8363095ea7b360e01b84846040516024016107c5929190611415565b60408051601f198184030181529190526020810180516001600160e01b03166001600160e01b031990931692909217909152600061084c826040518060400160405280602081526020017f5361666545524332303a206c6f772d6c6576656c2063616c6c206661696c6564815250856001600160a01b03166108869092919063ffffffff16565b80519091501561070c578080602001905181019061086a91906111e5565b61070c5760405162461bcd60e51b81526004016101e990611477565b6060610895848460008561089f565b90505b9392505050565b6060824710156108c15760405162461bcd60e51b81526004016101e9906114ca565b600080866001600160a01b031685876040516108dd91906114fc565b60006040518083038185875af1925050503d806000811461091a576040519150601f19603f3d011682016040523d82523d6000602084013e61091f565b606091505b50915091506109308783838761093d565b925050505b949350505050565b6060831561097c578251600003610975576001600160a01b0385163b6109755760405162461bcd60e51b81526004016101e990611508565b5081610935565b61093583838151156109915781518083602001fd5b8060405162461bcd60e51b81526004016101e99190611543565b60006001600160a01b0382166103cd565b60006103cd826109ab565b60006103cd826109bc565b6109db816109c7565b82525050565b602081016103cd82846109d2565b6109f8816109ab565b8114610a0357600080fd5b50565b80356103cd816109ef565b60008083601f840112610a2657610a26600080fd5b50813567ffffffffffffffff811115610a4157610a41600080fd5b602083019150836001820283011115610a5c57610a5c600080fd5b9250929050565b600080600080600060608688031215610a7e57610a7e600080fd5b6000610a8a8888610a06565b955050602086013567ffffffffffffffff811115610aaa57610aaa600080fd5b610ab688828901610a11565b9450945050604086013567ffffffffffffffff811115610ad857610ad8600080fd5b610ae488828901610a11565b92509250509295509295909350565b6001600160e01b031981166109f8565b80356103cd81610af3565b60008060008060608587031215610b2757610b27600080fd5b6000610b338787610a06565b9450506020610b4487828801610b03565b935050604085013567ffffffffffffffff811115610b6457610b64600080fd5b610b7087828801610a11565b95989497509550505050565b634e487b7160e01b600052602160045260246000fd5b60038110610a0357610a03610b7c565b80610bac81610b92565b919050565b60006103cd82610ba2565b6109db81610bb1565b6109db816109ab565b6000610bda8383610bc5565b505060200190565b6000610bec825190565b80845260209384019383018060005b83811015610c20578151610c0f8882610bce565b975060208301925050600101610bfb565b509495945050505050565b806109db565b6000610bda8383610c2b565b6000610c47825190565b80845260209384019383018060005b83811015610c20578151610c6a8882610c31565b975060208301925050600101610c56565b60a08101610c898288610bbc565b8181036020830152610c9b8187610be2565b90508181036040830152610caf8186610c3d565b90508181036060830152610cc38185610be2565b90508181036080830152610cd78184610c3d565b979650505050505050565b602081016103cd8284610bc5565b602081016103cd8284610c2b565b600060208284031215610d1357610d13600080fd5b60006109358484610a06565b8015156109db565b602081016103cd8284610d1f565b603281526000602082017f4f6e6c792074686520496e746567726174696f6e4d616e616765722063616e2081527131b0b636103a3434b990333ab731ba34b7b760711b602082015291505b5060400190565b602080825281016103cd81610d35565b60018110610a0357600080fd5b80356103cd81610d97565b634e487b7160e01b600052604160045260246000fd5b601f19601f830116810181811067ffffffffffffffff82111715610deb57610deb610daf565b6040525050565b6000610dfd60405190565b9050610bac8282610dc5565b600067ffffffffffffffff821115610e2357610e23610daf565b601f19601f83011660200192915050565b82818337506000910152565b6000610e53610e4e84610e09565b610df2565b905082815260208101848484011115610e6e57610e6e600080fd5b610e79848285610e34565b509392505050565b600082601f830112610e9557610e95600080fd5b8135610935848260208601610e40565b60008060408385031215610ebb57610ebb600080fd5b6000610ec78585610da4565b925050602083013567ffffffffffffffff811115610ee757610ee7600080fd5b610ef385828601610e81565b9150509250929050565b806109f8565b80516103cd81610efd565b80516103cd816109ef565b60006101608284031215610f2f57610f2f600080fd5b610f3a610160610df2565b90506000610f488484610f03565b8252506020610f5984848301610f0e565b6020830152506040610f6d84828501610f0e565b6040830152506060610f8184828501610f03565b6060830152506080610f9584828501610f0e565b60808301525060a0610fa984828501610f0e565b60a08301525060c0610fbd84828501610f03565b60c08301525060e0610fd184828501610f03565b60e083015250610100610fe684828501610f0e565b61010083015250610120610ffc84828501610f03565b6101208301525061014061101284828501610f03565b6101408301525092915050565b60005b8381101561103a578181015183820152602001611022565b50506000910152565b6000611051610e4e84610e09565b90508281526020810184848401111561106c5761106c600080fd5b610e7984828561101f565b600082601f83011261108b5761108b600080fd5b8151610935848260208601611043565b6000604082840312156110b0576110b0600080fd5b6110ba6040610df2565b825190915067ffffffffffffffff8111156110d7576110d7600080fd5b6110e384828501611077565b82525060206110f484848301610f03565b60208301525092915050565b60006101a0828403121561111657611116600080fd5b6111206060610df2565b9050600061112e8484610f19565b82525061016082015167ffffffffffffffff81111561114f5761114f600080fd5b61115b8482850161109b565b60208301525061018061117084828501610f03565b60408301525092915050565b60006020828403121561119157611191600080fd5b815167ffffffffffffffff8111156111ab576111ab600080fd5b61093584828501611100565b604081016111c58285610c2b565b6108986020830184610bc5565b8015156109f8565b80516103cd816111d2565b6000602082840312156111fa576111fa600080fd5b600061093584846111da565b80516101608301906112188482610c2b565b50602082015161122b6020850182610bc5565b50604082015161123e6040850182610bc5565b5060608201516112516060850182610c2b565b5060808201516112646080850182610bc5565b5060a082015161127760a0850182610bc5565b5060c082015161128a60c0850182610c2b565b5060e082015161129d60e0850182610c2b565b506101008201516112b2610100850182610bc5565b506101208201516112c7610120850182610c2b565b506101408201516106fb610140850182610c2b565b60006112e6825190565b8084526020840193506112fd81856020860161101f565b601f01601f19169290920192915050565b805160408084526000919084019061132682826112dc565b9150506020830151610e796020860182610c2b565b6101a0810161134a8286611206565b81810361016083015261135d818561130e565b9050610935610180830184610c2b565b634e487b7160e01b600052603260045260246000fd5b604081016111c58285610bc5565b6000602082840312156113a6576113a6600080fd5b60006109358484610f03565b603681526000602082017f5361666545524332303a20617070726f76652066726f6d206e6f6e2d7a65726f81527520746f206e6f6e2d7a65726f20616c6c6f77616e636560501b60208201529150610d80565b602080825281016103cd816113b2565b604081016114238285610bc5565b6108986020830184610c2b565b602a81526000602082017f5361666545524332303a204552433230206f7065726174696f6e20646964206e8152691bdd081cdd58d8d9595960b21b60208201529150610d80565b602080825281016103cd81611430565b602681526000602082017f416464726573733a20696e73756666696369656e742062616c616e636520666f8152651c8818d85b1b60d21b60208201529150610d80565b602080825281016103cd81611487565b60006114e4825190565b6114f281856020860161101f565b9290920192915050565b600061089882846114da565b602080825281016103cd81601d81527f416464726573733a2063616c6c20746f206e6f6e2d636f6e7472616374000000602082015260400190565b6020808252810161089881846112dc56","linkReferences":{}},"methodIdentifiers":{"ADDRESS_LIST_REGISTRY()":"29bcea29","BEBOP_BLEND()":"3ac81531","TRUSTED_MAKERS_LIST_ID()":"f5d21314","action(address,bytes,bytes)":"a7a19e00","getIntegrationManager()":"e7c45690","isAllowedMaker(address)":"ff7ede37","parseAssetsForAction(address,bytes4,bytes)":"c54efee5"},"id":149}