{"abi":[{"type":"constructor","inputs":[{"name":"_integrationManager","type":"address","internalType":"address"},{"name":"_staderStakePoolsManagerAddress","type":"address","internalType":"address"},{"name":"_ethxAddress","type":"address","internalType":"address"},{"name":"_wethAddress","type":"address","internalType":"address"}],"stateMutability":"nonpayable"},{"type":"receive","stateMutability":"payable"},{"type":"function","name":"STADER_STAKE_POOLS_MANAGER","inputs":[],"outputs":[{"name":"","type":"address","internalType":"contract IStaderStakePoolsManager"}],"stateMutability":"view"},{"type":"function","name":"getIntegrationManager","inputs":[],"outputs":[{"name":"integrationManager_","type":"address","internalType":"address"}],"stateMutability":"view"},{"type":"function","name":"parseAssetsForAction","inputs":[{"name":"","type":"address","internalType":"address"},{"name":"_selector","type":"bytes4","internalType":"bytes4"},{"name":"_actionData","type":"bytes","internalType":"bytes"}],"outputs":[{"name":"spendAssetsHandleType_","type":"uint8","internalType":"enum IIntegrationManager.SpendAssetsHandleType"},{"name":"spendAssets_","type":"address[]","internalType":"address[]"},{"name":"spendAssetAmounts_","type":"uint256[]","internalType":"uint256[]"},{"name":"incomingAssets_","type":"address[]","internalType":"address[]"},{"name":"minIncomingAssetAmounts_","type":"uint256[]","internalType":"uint256[]"}],"stateMutability":"view"},{"type":"function","name":"unwrap","inputs":[{"name":"_vaultProxy","type":"address","internalType":"address"},{"name":"_actionData","type":"bytes","internalType":"bytes"},{"name":"","type":"bytes","internalType":"bytes"}],"outputs":[],"stateMutability":"nonpayable"},{"type":"function","name":"wrap","inputs":[{"name":"_vaultProxy","type":"address","internalType":"address"},{"name":"_actionData","type":"bytes","internalType":"bytes"},{"name":"","type":"bytes","internalType":"bytes"}],"outputs":[],"stateMutability":"nonpayable"}],"bytecode":{"object":"0x6101206040523480156200001257600080fd5b506040516200140c3803806200140c833981016040819052620000359162000098565b6001600160a01b0393841660805290831660a052821660c052600160e052166101005262000106565b60006001600160a01b0382165b92915050565b6200007c816200005e565b81146200008857600080fd5b50565b80516200006b8162000071565b60008060008060808587031215620000b357620000b3600080fd5b6000620000c187876200008b565b9450506020620000d4878288016200008b565b9350506040620000e7878288016200008b565b9250506060620000fa878288016200008b565b91505092959194509250565b60805160a05160c05160e05161010051611275620001976000396000818160e801526108820152600081816101f2015261037d01526000818161022b015281816102c0015281816103b801528181610617015261073001526000818161042f015281816104c40152818161066b01526106dc0152600081816101260152818161015d01526102fa01526112756000f3fe60806040526004361061004e5760003560e01c80639497f9181461005a578063a5ca2d711461007c578063c54efee51461009c578063d16a7e2c146100d6578063e7c456901461011757600080fd5b3661005557005b600080fd5b34801561006657600080fd5b5061007a610075366004610b8c565b610152565b005b34801561008857600080fd5b5061007a610097366004610b8c565b6102ef565b3480156100a857600080fd5b506100bc6100b7366004610c37565b6104eb565b6040516100cd959493929190610daa565b60405180910390f35b3480156100e257600080fd5b5061010a7f000000000000000000000000000000000000000000000000000000000000000081565b6040516100cd9190610e41565b34801561012357600080fd5b507f00000000000000000000000000000000000000000000000000000000000000006040516100cd9190610e4f565b336001600160a01b037f000000000000000000000000000000000000000000000000000000000000000016146101a35760405162461bcd60e51b815260040161019a90610eaf565b60405180910390fd5b60006101e485858080601f01602080910402602001604051908101604052809392919081815260200183838082843760009201919091525061078792505050565b5090506101f0816107a7565b7f0000000000000000000000000000000000000000000000000000000000000000156102255761022086476107bf565b6102e7565b6102e7867f00000000000000000000000000000000000000000000000000000000000000006001600160a01b03166370a08231306040518263ffffffff1660e01b81526004016102759190610e4f565b602060405180830381865afa158015610292573d6000803e3d6000fd5b505050506040513d601f19601f820116820180604052508101906102b69190610ed0565b6001600160a01b037f0000000000000000000000000000000000000000000000000000000000000000169190610860565b505050505050565b336001600160a01b037f000000000000000000000000000000000000000000000000000000000000000016146103375760405162461bcd60e51b815260040161019a90610eaf565b600061037885858080601f01602080910402602001604051908101604052809392919081815260200183838082843760009201919091525061078792505050565b5090507f00000000000000000000000000000000000000000000000000000000000000001561042057604051632e1a7d4d60e01b81526001600160a01b037f00000000000000000000000000000000000000000000000000000000000000001690632e1a7d4d906103ed908490600401610ef1565b600060405180830381600087803b15801561040757600080fd5b505af115801561041b573d6000803e3d6000fd5b505050505b6104298161086b565b6102e7867f00000000000000000000000000000000000000000000000000000000000000006001600160a01b03166370a08231306040518263ffffffff1660e01b81526004016104799190610e4f565b602060405180830381865afa158015610496573d6000803e3d6000fd5b505050506040513d601f19601f820116820180604052508101906104ba9190610ed0565b6001600160a01b037f0000000000000000000000000000000000000000000000000000000000000000169190610860565b600060608060608060008061053589898080601f01602080910402602001604051908101604052809392919081815260200183838082843760009201919091525061078792505050565b60408051600180825281830190925260029a509294509092506020808301908036833750506040805160018082528183019092529298509050602080830190803683375050604080516001808252818301909252929750905060208083019080368337505060408051600180825281830190925292965090506020808301908036833701905050925081856000815181106105d2576105d2610eff565b60200260200101818152505080836000815181106105f2576105f2610eff565b6020908102919091010152635a35d28f60e01b6001600160e01b03198b16016106c2577f00000000000000000000000000000000000000000000000000000000000000008660008151811061064957610649610eff565b60200260200101906001600160a01b031690816001600160a01b0316815250507f00000000000000000000000000000000000000000000000000000000000000008460008151811061069d5761069d610eff565b60200260200101906001600160a01b031690816001600160a01b03168152505061077a565b630d6d00dd60e31b6001600160e01b03198b1601610762577f00000000000000000000000000000000000000000000000000000000000000008660008151811061070e5761070e610eff565b60200260200101906001600160a01b031690816001600160a01b0316815250507f00000000000000000000000000000000000000000000000000000000000000008460008151811061069d5761069d610eff565b60405162461bcd60e51b815260040161019a90610f59565b5050945094509450945094565b6000808280602001905181019061079e9190610f69565b91509150915091565b60405162461bcd60e51b815260040161019a90610fdd565b804710156107df5760405162461bcd60e51b815260040161019a90611021565b6000826001600160a01b0316826040516107f890611031565b60006040518083038185875af1925050503d8060008114610835576040519150601f19603f3d011682016040523d82523d6000602084013e61083a565b606091505b505090508061085b5760405162461bcd60e51b815260040161019a90611093565b505050565b61085b838383610900565b60405163f340fa0160e01b81526001600160a01b037f0000000000000000000000000000000000000000000000000000000000000000169063f340fa019083906108b9903090600401610e4f565b60206040518083038185885af11580156108d7573d6000803e3d6000fd5b50505050506040513d601f19601f820116820180604052508101906108fc9190610ed0565b5050565b61085b8363a9059cbb60e01b848460405160240161091f9291906110a3565b60408051601f198184030181529190526020810180516001600160e01b03166001600160e01b03199093169290921790915260006109a6826040518060400160405280602081526020017f5361666545524332303a206c6f772d6c6576656c2063616c6c206661696c6564815250856001600160a01b03166109e09092919063ffffffff16565b80519091501561085b57808060200190518101906109c491906110d1565b61085b5760405162461bcd60e51b815260040161019a90611139565b60606109ef84846000856109f9565b90505b9392505050565b606082471015610a1b5760405162461bcd60e51b815260040161019a9061118c565b600080866001600160a01b03168587604051610a3791906111e2565b60006040518083038185875af1925050503d8060008114610a74576040519150601f19603f3d011682016040523d82523d6000602084013e610a79565b606091505b5091509150610a8a87838387610a97565b925050505b949350505050565b60608315610ad6578251600003610acf576001600160a01b0385163b610acf5760405162461bcd60e51b815260040161019a90611222565b5081610a8f565b610a8f8383815115610aeb5781518083602001fd5b8060405162461bcd60e51b815260040161019a9190611264565b60006001600160a01b0382165b92915050565b610b2181610b05565b8114610b2c57600080fd5b50565b8035610b1281610b18565b60008083601f840112610b4f57610b4f600080fd5b50813567ffffffffffffffff811115610b6a57610b6a600080fd5b602083019150836001820283011115610b8557610b85600080fd5b9250929050565b600080600080600060608688031215610ba757610ba7600080fd5b6000610bb38888610b2f565b955050602086013567ffffffffffffffff811115610bd357610bd3600080fd5b610bdf88828901610b3a565b9450945050604086013567ffffffffffffffff811115610c0157610c01600080fd5b610c0d88828901610b3a565b92509250509295509295909350565b6001600160e01b03198116610b21565b8035610b1281610c1c565b60008060008060608587031215610c5057610c50600080fd5b6000610c5c8787610b2f565b9450506020610c6d87828801610c2c565b935050604085013567ffffffffffffffff811115610c8d57610c8d600080fd5b610c9987828801610b3a565b95989497509550505050565b634e487b7160e01b600052602160045260246000fd5b60038110610b2c57610b2c610ca5565b80610cd581610cbb565b919050565b6000610b1282610ccb565b610cee81610cda565b82525050565b610cee81610b05565b6000610d098383610cf4565b505060200190565b6000610d1b825190565b80845260209384019383018060005b83811015610d4f578151610d3e8882610cfd565b975060208301925050600101610d2a565b509495945050505050565b80610cee565b6000610d098383610d5a565b6000610d76825190565b80845260209384019383018060005b83811015610d4f578151610d998882610d60565b975060208301925050600101610d85565b60a08101610db88288610ce5565b8181036020830152610dca8187610d11565b90508181036040830152610dde8186610d6c565b90508181036060830152610df28185610d11565b90508181036080830152610e068184610d6c565b979650505050505050565b60006001600160a01b038216610b12565b6000610b1282610e11565b6000610b1282610e22565b610cee81610e2d565b60208101610b128284610e38565b60208101610b128284610cf4565b603281526000602082017f4f6e6c792074686520496e746567726174696f6e4d616e616765722063616e2081527131b0b636103a3434b990333ab731ba34b7b760711b602082015291505b5060400190565b60208082528101610b1281610e5d565b80610b21565b8051610b1281610ebf565b600060208284031215610ee557610ee5600080fd5b6000610a8f8484610ec5565b60208101610b128284610d5a565b634e487b7160e01b600052603260045260246000fd5b602781526000602082017f7061727365417373657473466f72416374696f6e3a205f73656c6563746f72208152661a5b9d985b1a5960ca1b60208201529150610ea8565b60208082528101610b1281610f15565b60008060408385031215610f7f57610f7f600080fd5b6000610f8b8585610ec5565b9250506020610f9c85828601610ec5565b9150509250929050565b601981526000602082017f5f5f756e777261703a204e6f7420696d706c656d656e74656400000000000000815291505b5060200190565b60208082528101610b1281610fa6565b601d81526000602082017f416464726573733a20696e73756666696369656e742062616c616e636500000081529150610fd6565b60208082528101610b1281610fed565b600081610b12565b603a81526000602082017f416464726573733a20756e61626c6520746f2073656e642076616c75652c207281527f6563697069656e74206d6179206861766520726576657274656400000000000060208201529150610ea8565b60208082528101610b1281611039565b604081016110b18285610cf4565b6109f26020830184610d5a565b801515610b21565b8051610b12816110be565b6000602082840312156110e6576110e6600080fd5b6000610a8f84846110c6565b602a81526000602082017f5361666545524332303a204552433230206f7065726174696f6e20646964206e8152691bdd081cdd58d8d9595960b21b60208201529150610ea8565b60208082528101610b12816110f2565b602681526000602082017f416464726573733a20696e73756666696369656e742062616c616e636520666f8152651c8818d85b1b60d21b60208201529150610ea8565b60208082528101610b1281611149565b60005b838110156111b757818101518382015260200161119f565b50506000910152565b60006111ca825190565b6111d881856020860161119c565b9290920192915050565b60006109f282846111c0565b601d81526000602082017f416464726573733a2063616c6c20746f206e6f6e2d636f6e747261637400000081529150610fd6565b60208082528101610b12816111ee565b600061123c825190565b80845260208401935061125381856020860161119c565b601f01601f19169290920192915050565b602080825281016109f2818461123256","linkReferences":{}},"methodIdentifiers":{"STADER_STAKE_POOLS_MANAGER()":"d16a7e2c","getIntegrationManager()":"e7c45690","parseAssetsForAction(address,bytes4,bytes)":"c54efee5","unwrap(address,bytes,bytes)":"9497f918","wrap(address,bytes,bytes)":"a5ca2d71"},"id":155}