{"abi":[{"type":"constructor","inputs":[{"name":"_integrationManager","type":"address","internalType":"address"},{"name":"_idlePriceFeed","type":"address","internalType":"address"}],"stateMutability":"nonpayable"},{"type":"function","name":"CLAIM_REWARDS_SELECTOR","inputs":[],"outputs":[{"name":"","type":"bytes4","internalType":"bytes4"}],"stateMutability":"view"},{"type":"function","name":"LEND_AND_STAKE_SELECTOR","inputs":[],"outputs":[{"name":"","type":"bytes4","internalType":"bytes4"}],"stateMutability":"view"},{"type":"function","name":"LEND_SELECTOR","inputs":[],"outputs":[{"name":"","type":"bytes4","internalType":"bytes4"}],"stateMutability":"view"},{"type":"function","name":"REDEEM_SELECTOR","inputs":[],"outputs":[{"name":"","type":"bytes4","internalType":"bytes4"}],"stateMutability":"view"},{"type":"function","name":"STAKE_SELECTOR","inputs":[],"outputs":[{"name":"","type":"bytes4","internalType":"bytes4"}],"stateMutability":"view"},{"type":"function","name":"TAKE_MULTIPLE_ORDERS_SELECTOR","inputs":[],"outputs":[{"name":"","type":"bytes4","internalType":"bytes4"}],"stateMutability":"view"},{"type":"function","name":"TAKE_ORDER_SELECTOR","inputs":[],"outputs":[{"name":"","type":"bytes4","internalType":"bytes4"}],"stateMutability":"view"},{"type":"function","name":"UNSTAKE_AND_REDEEM_SELECTOR","inputs":[],"outputs":[{"name":"","type":"bytes4","internalType":"bytes4"}],"stateMutability":"view"},{"type":"function","name":"UNSTAKE_SELECTOR","inputs":[],"outputs":[{"name":"","type":"bytes4","internalType":"bytes4"}],"stateMutability":"view"},{"type":"function","name":"claimRewards","inputs":[{"name":"_vaultProxy","type":"address","internalType":"address"},{"name":"_actionData","type":"bytes","internalType":"bytes"},{"name":"_assetData","type":"bytes","internalType":"bytes"}],"outputs":[],"stateMutability":"nonpayable"},{"type":"function","name":"getIdlePriceFeed","inputs":[],"outputs":[{"name":"idlePriceFeed_","type":"address","internalType":"address"}],"stateMutability":"view"},{"type":"function","name":"getIntegrationManager","inputs":[],"outputs":[{"name":"integrationManager_","type":"address","internalType":"address"}],"stateMutability":"view"},{"type":"function","name":"lend","inputs":[{"name":"_vaultProxy","type":"address","internalType":"address"},{"name":"","type":"bytes","internalType":"bytes"},{"name":"_assetData","type":"bytes","internalType":"bytes"}],"outputs":[],"stateMutability":"nonpayable"},{"type":"function","name":"parseAssetsForAction","inputs":[{"name":"_vaultProxy","type":"address","internalType":"address"},{"name":"_selector","type":"bytes4","internalType":"bytes4"},{"name":"_actionData","type":"bytes","internalType":"bytes"}],"outputs":[{"name":"spendAssetsHandleType_","type":"uint8","internalType":"enum IIntegrationManager.SpendAssetsHandleType"},{"name":"spendAssets_","type":"address[]","internalType":"address[]"},{"name":"spendAssetAmounts_","type":"uint256[]","internalType":"uint256[]"},{"name":"incomingAssets_","type":"address[]","internalType":"address[]"},{"name":"minIncomingAssetAmounts_","type":"uint256[]","internalType":"uint256[]"}],"stateMutability":"view"},{"type":"function","name":"redeem","inputs":[{"name":"_vaultProxy","type":"address","internalType":"address"},{"name":"_actionData","type":"bytes","internalType":"bytes"},{"name":"_assetData","type":"bytes","internalType":"bytes"}],"outputs":[],"stateMutability":"nonpayable"}],"bytecode":{"object":"0x60c060405234801561001057600080fd5b50604051612d6d380380612d6d8339818101604052604081101561003357600080fd5b810190808051906020019092919080519060200190929190505050818073ffffffffffffffffffffffffffffffffffffffff1660808173ffffffffffffffffffffffffffffffffffffffff1660601b81525050508073ffffffffffffffffffffffffffffffffffffffff1660a08173ffffffffffffffffffffffffffffffffffffffff1660601b81525050505060805160601c60a05160601c612c706100fd60003980610ade52806124925250806108785280610b285280610ca452806110cc5250612c706000f3fe608060405234801561001057600080fd5b50600436106100f55760003560e01c8063a21f9a2c11610097578063c32990a211610066578063c32990a2146105a3578063c54efee5146105e0578063e7c45690146107e1578063f7d882b514610815576100f5565b8063a21f9a2c14610356578063b23228cf1461038a578063b9dfbacc146103c7578063c29fa9dd146104b5576100f5565b8063257cb1a3116100d3578063257cb1a3146102625780633ffc15911461029f57806340da225d146102dc578063863e5ad014610319576100f5565b8063080456c1146100fa578063099f751514610137578063131461c014610225575b600080fd5b610102610852565b60405180827bffffffffffffffffffffffffffffffffffffffffffffffffffffffff1916815260200191505060405180910390f35b6102236004803603606081101561014d57600080fd5b81019080803573ffffffffffffffffffffffffffffffffffffffff1690602001909291908035906020019064010000000081111561018a57600080fd5b82018360208201111561019c57600080fd5b803590602001918460018302840111640100000000831117156101be57600080fd5b9091929391929390803590602001906401000000008111156101df57600080fd5b8201836020820111156101f157600080fd5b8035906020019184600183028401116401000000008311171561021357600080fd5b9091929391929390505050610876565b005b61022d610a26565b60405180827bffffffffffffffffffffffffffffffffffffffffffffffffffffffff1916815260200191505060405180910390f35b61026a610a4a565b60405180827bffffffffffffffffffffffffffffffffffffffffffffffffffffffff1916815260200191505060405180910390f35b6102a7610a6e565b60405180827bffffffffffffffffffffffffffffffffffffffffffffffffffffffff1916815260200191505060405180910390f35b6102e4610a92565b60405180827bffffffffffffffffffffffffffffffffffffffffffffffffffffffff1916815260200191505060405180910390f35b610321610ab6565b60405180827bffffffffffffffffffffffffffffffffffffffffffffffffffffffff1916815260200191505060405180910390f35b61035e610ada565b604051808273ffffffffffffffffffffffffffffffffffffffff16815260200191505060405180910390f35b610392610b02565b60405180827bffffffffffffffffffffffffffffffffffffffffffffffffffffffff1916815260200191505060405180910390f35b6104b3600480360360608110156103dd57600080fd5b81019080803573ffffffffffffffffffffffffffffffffffffffff1690602001909291908035906020019064010000000081111561041a57600080fd5b82018360208201111561042c57600080fd5b8035906020019184600183028401116401000000008311171561044e57600080fd5b90919293919293908035906020019064010000000081111561046f57600080fd5b82018360208201111561048157600080fd5b803590602001918460018302840111640100000000831117156104a357600080fd5b9091929391929390505050610b26565b005b6105a1600480360360608110156104cb57600080fd5b81019080803573ffffffffffffffffffffffffffffffffffffffff1690602001909291908035906020019064010000000081111561050857600080fd5b82018360208201111561051a57600080fd5b8035906020019184600183028401116401000000008311171561053c57600080fd5b90919293919293908035906020019064010000000081111561055d57600080fd5b82018360208201111561056f57600080fd5b8035906020019184600183028401116401000000008311171561059157600080fd5b9091929391929390505050610ca2565b005b6105ab610ec2565b60405180827bffffffffffffffffffffffffffffffffffffffffffffffffffffffff1916815260200191505060405180910390f35b6106a0600480360360608110156105f657600080fd5b81019080803573ffffffffffffffffffffffffffffffffffffffff16906020019092919080357bffffffffffffffffffffffffffffffffffffffffffffffffffffffff191690602001909291908035906020019064010000000081111561065c57600080fd5b82018360208201111561066e57600080fd5b8035906020019184600183028401116401000000008311171561069057600080fd5b9091929391929390505050610ee6565b604051808660028111156106b057fe5b815260200180602001806020018060200180602001858103855289818151815260200191508051906020019060200280838360005b838110156107005780820151818401526020810190506106e5565b50505050905001858103845288818151815260200191508051906020019060200280838360005b83811015610742578082015181840152602081019050610727565b50505050905001858103835287818151815260200191508051906020019060200280838360005b83811015610784578082015181840152602081019050610769565b50505050905001858103825286818151815260200191508051906020019060200280838360005b838110156107c65780820151818401526020810190506107ab565b50505050905001995050505050505050505060405180910390f35b6107e96110c8565b604051808273ffffffffffffffffffffffffffffffffffffffff16815260200191505060405180910390f35b61081d6110f0565b60405180827bffffffffffffffffffffffffffffffffffffffffffffffffffffffff1916815260200191505060405180910390f35b7f8334eb99be0145865eba9889fca2ee920288090caefff4cc776038e20ad9259a81565b7f000000000000000000000000000000000000000000000000000000000000000073ffffffffffffffffffffffffffffffffffffffff163373ffffffffffffffffffffffffffffffffffffffff161461091a576040517f08c379a0000000000000000000000000000000000000000000000000000000008152600401808060200182810382526032815260200180612b4b6032913960400191505060405180910390fd5b8482828080601f016020809104026020016040519081016040528093929190818152602001838380828437600081840152601f19601f8201169050808301925050505050505060608060606109b287878080601f016020809104026020016040519081016040528093929190818152602001838380828437600081840152601f19601f82011690508083019250505050505050611114565b9250925092506109ff816000815181106109c857fe5b6020026020010151846000815181106109dd57fe5b6020026020010151846000815181106109f257fe5b60200260200101516112f8565b5050506060610a0d82611114565b92505050610a1b83826113d4565b505050505050505050565b7f29fa046e79524c3c5ac4c01df692c35e217802b2b13b21121b76cf0ef02b138c81565b7f099f75155f0e997bf83a7993a71d5e7e7540bd386fe1e84643a09ce6b412521981565b7ffa7dd04da627f433da73c4355ead9c75682a67a8fc84d3f6170ef0922f402d2481565b7fb9dfbaccbe5cd2a84fdcf1d15f23ef25d23086f5afbaa99516065ed4a5bbc7a381565b7f03e38a2bd7063d45c897edeafc330e71657502dd86434d3c37a489caf116af6981565b60007f0000000000000000000000000000000000000000000000000000000000000000905090565b7f68e30677f607df46e87da13e15b637784cfa62374b653f35ab43d10361a2f83081565b7f000000000000000000000000000000000000000000000000000000000000000073ffffffffffffffffffffffffffffffffffffffff163373ffffffffffffffffffffffffffffffffffffffff1614610bca576040517f08c379a0000000000000000000000000000000000000000000000000000000008152600401808060200182810382526032815260200180612b4b6032913960400191505060405180910390fd5b8482828080601f016020809104026020016040519081016040528093929190818152602001838380828437600081840152601f19601f820116905080830192505050505050506000610c5f87878080601f016020809104026020016040519081016040528093929190818152602001838380828437600081840152601f19601f8201169050808301925050505050505061156e565b9050610c6a8161159d565b610c7c88610c7783611630565b6113d4565b50506060610c8982611114565b50509050610c9783826113d4565b505050505050505050565b7f000000000000000000000000000000000000000000000000000000000000000073ffffffffffffffffffffffffffffffffffffffff163373ffffffffffffffffffffffffffffffffffffffff1614610d46576040517f08c379a0000000000000000000000000000000000000000000000000000000008152600401808060200182810382526032815260200180612b4b6032913960400191505060405180910390fd5b8482828080601f016020809104026020016040519081016040528093929190818152602001838380828437600081840152601f19601f820116905080830192505050505050506000610ddb87878080601f016020809104026020016040519081016040528093929190818152602001838380828437600081840152601f19601f820116905080830192505050505050506118af565b50509050610e8a818273ffffffffffffffffffffffffffffffffffffffff166370a08231306040518263ffffffff1660e01b8152600401808273ffffffffffffffffffffffffffffffffffffffff16815260200191505060206040518083038186803b158015610e4a57600080fd5b505afa158015610e5e573d6000803e3d6000fd5b505050506040513d6020811015610e7457600080fd5b81019080805190602001909291905050506118fb565b610e9c88610e9783611630565b6113d4565b50506060610ea982611114565b92505050610eb783826113d4565b505050505050505050565b7f0e7f692dad5b88fdee426250d6eae91207e56a2e8112b7364579bed1790e5bf481565b60006060806060807fb9dfbaccbe5cd2a84fdcf1d15f23ef25d23086f5afbaa99516065ed4a5bbc7a37bffffffffffffffffffffffffffffffffffffffffffffffffffffffff1916887bffffffffffffffffffffffffffffffffffffffffffffffffffffffff19161415610f6e57610f5f89888861198e565b945094509450945094506110bd565b7f099f75155f0e997bf83a7993a71d5e7e7540bd386fe1e84643a09ce6b41252197bffffffffffffffffffffffffffffffffffffffffffffffffffffffff1916887bffffffffffffffffffffffffffffffffffffffffffffffffffffffff19161415610fed57610fde8787611cb6565b945094509450945094506110bd565b7fc29fa9dde84204c2908778afd0613d802d31cf046179b88f6d2b4a4e507ea2d57bffffffffffffffffffffffffffffffffffffffffffffffffffffffff1916887bffffffffffffffffffffffffffffffffffffffffffffffffffffffff1916141561106c5761105d8787611fa7565b945094509450945094506110bd565b6040517f08c379a0000000000000000000000000000000000000000000000000000000008152600401808060200182810382526027815260200180612c3d6027913960400191505060405180910390fd5b945094509450945094565b60007f0000000000000000000000000000000000000000000000000000000000000000905090565b7fc29fa9dde84204c2908778afd0613d802d31cf046179b88f6d2b4a4e507ea2d581565b606080606083806020019051606081101561112e57600080fd5b810190808051604051939291908464010000000082111561114e57600080fd5b8382019150602082018581111561116457600080fd5b825186602082028301116401000000008211171561118157600080fd5b8083526020830192505050908051906020019060200280838360005b838110156111b857808201518184015260208101905061119d565b50505050905001604052602001805160405193929190846401000000008211156111e157600080fd5b838201915060208201858111156111f757600080fd5b825186602082028301116401000000008211171561121457600080fd5b8083526020830192505050908051906020019060200280838360005b8381101561124b578082015181840152602081019050611230565b505050509050016040526020018051604051939291908464010000000082111561127457600080fd5b8382019150602082018581111561128a57600080fd5b82518660208202830111640100000000821117156112a757600080fd5b8083526020830192505050908051906020019060200280838360005b838110156112de5780820151818401526020810190506112c3565b505050509050016040525050509250925092509193909250565b611303828483612298565b8273ffffffffffffffffffffffffffffffffffffffff16632befabbf826001731ad1fc9964c551f456238dd88d6a38344b5319d76040518463ffffffff1660e01b81526004018084815260200183151581526020018273ffffffffffffffffffffffffffffffffffffffff1681526020019350505050602060405180830381600087803b15801561139357600080fd5b505af11580156113a7573d6000803e3d6000fd5b505050506040513d60208110156113bd57600080fd5b810190808051906020019092919050505050505050565b6060815167ffffffffffffffff811180156113ee57600080fd5b5060405190808252806020026020018201604052801561141d5781602001602082028036833780820191505090505b50905060005b825181101561156757600083828151811061143a57fe5b602002602001015190508073ffffffffffffffffffffffffffffffffffffffff166370a08231306040518263ffffffff1660e01b8152600401808273ffffffffffffffffffffffffffffffffffffffff16815260200191505060206040518083038186803b1580156114ab57600080fd5b505afa1580156114bf573d6000803e3d6000fd5b505050506040513d60208110156114d557600080fd5b81019080805190602001909291905050508383815181106114f257fe5b602002602001018181525050600083838151811061150c57fe5b60200260200101511115611559576115588584848151811061152a57fe5b60200260200101518373ffffffffffffffffffffffffffffffffffffffff166123ec9092919063ffffffff16565b5b508080600101915050611423565b5092915050565b600081806020019051602081101561158557600080fd5b81019080805190602001909291905050509050919050565b8073ffffffffffffffffffffffffffffffffffffffff16638b30b51660006040518263ffffffff1660e01b815260040180828152602001915050602060405180830381600087803b1580156115f157600080fd5b505af1158015611605573d6000803e3d6000fd5b505050506040513d602081101561161b57600080fd5b81019080805190602001909291905050505050565b606060008290508073ffffffffffffffffffffffffffffffffffffffff166350b28af760006040518263ffffffff1660e01b8152600401808273ffffffffffffffffffffffffffffffffffffffff16815260200191505060006040518083038186803b15801561169f57600080fd5b505afa1580156116b3573d6000803e3d6000fd5b505050506040513d6000823e3d601f19601f8201168201806040525060208110156116dd57600080fd5b81019080805160405193929190846401000000008211156116fd57600080fd5b8382019150602082018581111561171357600080fd5b825186602082028301116401000000008211171561173057600080fd5b8083526020830192505050908051906020019060200280838360005b8381101561176757808201518184015260208101905061174c565b505050509050016040525050505167ffffffffffffffff8111801561178b57600080fd5b506040519080825280602002602001820160405280156117ba5781602001602082028036833780820191505090505b50915060005b82518110156118a8578173ffffffffffffffffffffffffffffffffffffffff1663746daa4e826040518263ffffffff1660e01b81526004018082815260200191505060206040518083038186803b15801561181a57600080fd5b505afa15801561182e573d6000803e3d6000fd5b505050506040513d602081101561184457600080fd5b810190808051906020019092919050505083828151811061186157fe5b602002602001019073ffffffffffffffffffffffffffffffffffffffff16908173ffffffffffffffffffffffffffffffffffffffff168152505080806001019150506117c0565b5050919050565b60008060008380602001905160608110156118c957600080fd5b810190808051906020019092919080519060200190929190805190602001909291905050509250925092509193909250565b8173ffffffffffffffffffffffffffffffffffffffff16638b30b516826040518263ffffffff1660e01b815260040180828152602001915050602060405180830381600087803b15801561194e57600080fd5b505af1158015611962573d6000803e3d6000fd5b505050506040513d602081101561197857600080fd5b8101908080519060200190929190505050505050565b600060608060608060006119e588888080601f016020809104026020016040519081016040528093929190818152602001838380828437600081840152601f19601f8201169050808301925050505050505061156e565b9050600073ffffffffffffffffffffffffffffffffffffffff16611a088261248e565b73ffffffffffffffffffffffffffffffffffffffff161415611a75576040517f08c379a0000000000000000000000000000000000000000000000000000000008152600401808060200182810382526033815260200180612b7d6033913960400191505060405180910390fd5b600167ffffffffffffffff81118015611a8d57600080fd5b50604051908082528060200260200182016040528015611abc5781602001602082028036833780820191505090505b5094508085600081518110611acd57fe5b602002602001019073ffffffffffffffffffffffffffffffffffffffff16908173ffffffffffffffffffffffffffffffffffffffff1681525050600167ffffffffffffffff81118015611b1f57600080fd5b50604051908082528060200260200182016040528015611b4e5781602001602082028036833780820191505090505b5093508073ffffffffffffffffffffffffffffffffffffffff166370a082318a6040518263ffffffff1660e01b8152600401808273ffffffffffffffffffffffffffffffffffffffff16815260200191505060206040518083038186803b158015611bb857600080fd5b505afa158015611bcc573d6000803e3d6000fd5b505050506040513d6020811015611be257600080fd5b810190808051906020019092919050505084600081518110611c0057fe5b60200260200101818152505060028585600067ffffffffffffffff81118015611c2857600080fd5b50604051908082528060200260200182016040528015611c575781602001602082028036833780820191505090505b50600067ffffffffffffffff81118015611c7057600080fd5b50604051908082528060200260200182016040528015611c9f5781602001602082028036833780820191505090505b509550955095509550955050939792965093509350565b60006060806060806000806000611d108a8a8080601f016020809104026020016040519081016040528093929190818152602001838380828437600081840152601f19601f82011690508083019250505050505050612559565b9250925092506000611d218461248e565b9050600073ffffffffffffffffffffffffffffffffffffffff168173ffffffffffffffffffffffffffffffffffffffff161415611da9576040517f08c379a000000000000000000000000000000000000000000000000000000000815260040180806020018281038252602b815260200180612afa602b913960400191505060405180910390fd5b600167ffffffffffffffff81118015611dc157600080fd5b50604051908082528060200260200182016040528015611df05781602001602082028036833780820191505090505b5097508088600081518110611e0157fe5b602002602001019073ffffffffffffffffffffffffffffffffffffffff16908173ffffffffffffffffffffffffffffffffffffffff1681525050600167ffffffffffffffff81118015611e5357600080fd5b50604051908082528060200260200182016040528015611e825781602001602082028036833780820191505090505b5096508287600081518110611e9357fe5b602002602001018181525050600167ffffffffffffffff81118015611eb757600080fd5b50604051908082528060200260200182016040528015611ee65781602001602082028036833780820191505090505b5095508386600081518110611ef757fe5b602002602001019073ffffffffffffffffffffffffffffffffffffffff16908173ffffffffffffffffffffffffffffffffffffffff1681525050600167ffffffffffffffff81118015611f4957600080fd5b50604051908082528060200260200182016040528015611f785781602001602082028036833780820191505090505b5094508185600081518110611f8957fe5b60200260200101818152505060029850505050509295509295909350565b600060608060608060008060006120018a8a8080601f016020809104026020016040519081016040528093929190818152602001838380828437600081840152601f19601f820116905080830192505050505050506118af565b92509250925060006120128461248e565b9050600073ffffffffffffffffffffffffffffffffffffffff168173ffffffffffffffffffffffffffffffffffffffff16141561209a576040517f08c379a000000000000000000000000000000000000000000000000000000000815260040180806020018281038252602d815260200180612bb0602d913960400191505060405180910390fd5b600167ffffffffffffffff811180156120b257600080fd5b506040519080825280602002602001820160405280156120e15781602001602082028036833780820191505090505b50975083886000815181106120f257fe5b602002602001019073ffffffffffffffffffffffffffffffffffffffff16908173ffffffffffffffffffffffffffffffffffffffff1681525050600167ffffffffffffffff8111801561214457600080fd5b506040519080825280602002602001820160405280156121735781602001602082028036833780820191505090505b509650828760008151811061218457fe5b602002602001018181525050600167ffffffffffffffff811180156121a857600080fd5b506040519080825280602002602001820160405280156121d75781602001602082028036833780820191505090505b50955080866000815181106121e857fe5b602002602001019073ffffffffffffffffffffffffffffffffffffffff16908173ffffffffffffffffffffffffffffffffffffffff1681525050600167ffffffffffffffff8111801561223a57600080fd5b506040519080825280602002602001820160405280156122695781602001602082028036833780820191505090505b509450818560008151811061227a57fe5b60200260200101818152505060029850505050509295509295909350565b60008373ffffffffffffffffffffffffffffffffffffffff1663dd62ed3e30856040518363ffffffff1660e01b8152600401808373ffffffffffffffffffffffffffffffffffffffff1681526020018273ffffffffffffffffffffffffffffffffffffffff1681526020019250505060206040518083038186803b15801561231f57600080fd5b505afa158015612333573d6000803e3d6000fd5b505050506040513d602081101561234957600080fd5b81019080805190602001909291905050509050818110156123e657600081111561239a576123998360008673ffffffffffffffffffffffffffffffffffffffff166125a59092919063ffffffff16565b5b6123e5837fffffffffffffffffffffffffffffffffffffffffffffffffffffffffffffffff8673ffffffffffffffffffffffffffffffffffffffff166125a59092919063ffffffff16565b5b50505050565b6124898363a9059cbb60e01b8484604051602401808373ffffffffffffffffffffffffffffffffffffffff16815260200182815260200192505050604051602081830303815290604052907bffffffffffffffffffffffffffffffffffffffffffffffffffffffff19166020820180517bffffffffffffffffffffffffffffffffffffffffffffffffffffffff838183161783525050505061276a565b505050565b60007f000000000000000000000000000000000000000000000000000000000000000073ffffffffffffffffffffffffffffffffffffffff166366adb867836040518263ffffffff1660e01b8152600401808273ffffffffffffffffffffffffffffffffffffffff16815260200191505060206040518083038186803b15801561251757600080fd5b505afa15801561252b573d6000803e3d6000fd5b505050506040513d602081101561254157600080fd5b81019080805190602001909291905050509050919050565b600080600083806020019051606081101561257357600080fd5b810190808051906020019092919080519060200190929190805190602001909291905050509250925092509193909250565b6000811480612673575060008373ffffffffffffffffffffffffffffffffffffffff1663dd62ed3e30856040518363ffffffff1660e01b8152600401808373ffffffffffffffffffffffffffffffffffffffff1681526020018273ffffffffffffffffffffffffffffffffffffffff1681526020019250505060206040518083038186803b15801561263657600080fd5b505afa15801561264a573d6000803e3d6000fd5b505050506040513d602081101561266057600080fd5b8101908080519060200190929190505050145b6126c8576040517f08c379a0000000000000000000000000000000000000000000000000000000008152600401808060200182810382526036815260200180612c076036913960400191505060405180910390fd5b6127658363095ea7b360e01b8484604051602401808373ffffffffffffffffffffffffffffffffffffffff16815260200182815260200192505050604051602081830303815290604052907bffffffffffffffffffffffffffffffffffffffffffffffffffffffff19166020820180517bffffffffffffffffffffffffffffffffffffffffffffffffffffffff838183161783525050505061276a565b505050565b60606127cc826040518060400160405280602081526020017f5361666545524332303a206c6f772d6c6576656c2063616c6c206661696c65648152508573ffffffffffffffffffffffffffffffffffffffff166128599092919063ffffffff16565b9050600081511115612854578080602001905160208110156127ed57600080fd5b8101908080519060200190929190505050612853576040517f08c379a000000000000000000000000000000000000000000000000000000000815260040180806020018281038252602a815260200180612bdd602a913960400191505060405180910390fd5b5b505050565b60606128688484600085612871565b90509392505050565b6060824710156128cc576040517f08c379a0000000000000000000000000000000000000000000000000000000008152600401808060200182810382526026815260200180612b256026913960400191505060405180910390fd5b6128d585612a1a565b612947576040517f08c379a000000000000000000000000000000000000000000000000000000000815260040180806020018281038252601d8152602001807f416464726573733a2063616c6c20746f206e6f6e2d636f6e747261637400000081525060200191505060405180910390fd5b600060608673ffffffffffffffffffffffffffffffffffffffff1685876040518082805190602001908083835b602083106129975780518252602082019150602081019050602083039250612974565b6001836020036101000a03801982511681845116808217855250505050505090500191505060006040518083038185875af1925050503d80600081146129f9576040519150601f19603f3d011682016040523d82523d6000602084013e6129fe565b606091505b5091509150612a0e828286612a2d565b92505050949350505050565b600080823b905060008111915050919050565b60608315612a3d57829050612af2565b600083511115612a505782518084602001fd5b816040517f08c379a00000000000000000000000000000000000000000000000000000000081526004018080602001828103825283818151815260200191508051906020019080838360005b83811015612ab7578082015181840152602081019050612a9c565b50505050905090810190601f168015612ae45780820380516001836020036101000a031916815260200191505b509250505060405180910390fd5b939250505056fe5f5f7061727365417373657473466f724c656e643a20556e737570706f727465642069646c65546f6b656e416464726573733a20696e73756666696369656e742062616c616e636520666f722063616c6c4f6e6c792074686520496e746567726174696f6e4d616e616765722063616e2063616c6c20746869732066756e6374696f6e5f5f7061727365417373657473466f72436c61696d526577617264733a20556e737570706f727465642069646c65546f6b656e5f5f7061727365417373657473466f7252656465656d3a20556e737570706f727465642069646c65546f6b656e5361666545524332303a204552433230206f7065726174696f6e20646964206e6f7420737563636565645361666545524332303a20617070726f76652066726f6d206e6f6e2d7a65726f20746f206e6f6e2d7a65726f20616c6c6f77616e63657061727365417373657473466f72416374696f6e3a205f73656c6563746f7220696e76616c6964a164736f6c634300060c000a","linkReferences":{}},"methodIdentifiers":{"CLAIM_REWARDS_SELECTOR()":"40da225d","LEND_AND_STAKE_SELECTOR()":"131461c0","LEND_SELECTOR()":"257cb1a3","REDEEM_SELECTOR()":"f7d882b5","STAKE_SELECTOR()":"3ffc1591","TAKE_MULTIPLE_ORDERS_SELECTOR()":"c32990a2","TAKE_ORDER_SELECTOR()":"863e5ad0","UNSTAKE_AND_REDEEM_SELECTOR()":"080456c1","UNSTAKE_SELECTOR()":"b23228cf","claimRewards(address,bytes,bytes)":"b9dfbacc","getIdlePriceFeed()":"a21f9a2c","getIntegrationManager()":"e7c45690","lend(address,bytes,bytes)":"099f7515","parseAssetsForAction(address,bytes4,bytes)":"c54efee5","redeem(address,bytes,bytes)":"c29fa9dd"},"id":215}