{"abi":[{"type":"constructor","inputs":[{"name":"_integrationManager","type":"address","internalType":"address"},{"name":"_idlePriceFeed","type":"address","internalType":"address"}],"stateMutability":"nonpayable"},{"type":"function","name":"CLAIM_REWARDS_SELECTOR","inputs":[],"outputs":[{"name":"","type":"bytes4","internalType":"bytes4"}],"stateMutability":"view"},{"type":"function","name":"LEND_AND_STAKE_SELECTOR","inputs":[],"outputs":[{"name":"","type":"bytes4","internalType":"bytes4"}],"stateMutability":"view"},{"type":"function","name":"LEND_SELECTOR","inputs":[],"outputs":[{"name":"","type":"bytes4","internalType":"bytes4"}],"stateMutability":"view"},{"type":"function","name":"REDEEM_SELECTOR","inputs":[],"outputs":[{"name":"","type":"bytes4","internalType":"bytes4"}],"stateMutability":"view"},{"type":"function","name":"STAKE_SELECTOR","inputs":[],"outputs":[{"name":"","type":"bytes4","internalType":"bytes4"}],"stateMutability":"view"},{"type":"function","name":"TAKE_MULTIPLE_ORDERS_SELECTOR","inputs":[],"outputs":[{"name":"","type":"bytes4","internalType":"bytes4"}],"stateMutability":"view"},{"type":"function","name":"TAKE_ORDER_SELECTOR","inputs":[],"outputs":[{"name":"","type":"bytes4","internalType":"bytes4"}],"stateMutability":"view"},{"type":"function","name":"UNSTAKE_AND_REDEEM_SELECTOR","inputs":[],"outputs":[{"name":"","type":"bytes4","internalType":"bytes4"}],"stateMutability":"view"},{"type":"function","name":"UNSTAKE_SELECTOR","inputs":[],"outputs":[{"name":"","type":"bytes4","internalType":"bytes4"}],"stateMutability":"view"},{"type":"function","name":"claimRewards","inputs":[{"name":"_vaultProxy","type":"address","internalType":"address"},{"name":"_actionData","type":"bytes","internalType":"bytes"},{"name":"_assetData","type":"bytes","internalType":"bytes"}],"outputs":[],"stateMutability":"nonpayable"},{"type":"function","name":"getIdlePriceFeed","inputs":[],"outputs":[{"name":"idlePriceFeed_","type":"address","internalType":"address"}],"stateMutability":"view"},{"type":"function","name":"getIntegrationManager","inputs":[],"outputs":[{"name":"integrationManager_","type":"address","internalType":"address"}],"stateMutability":"view"},{"type":"function","name":"lend","inputs":[{"name":"_vaultProxy","type":"address","internalType":"address"},{"name":"","type":"bytes","internalType":"bytes"},{"name":"_assetData","type":"bytes","internalType":"bytes"}],"outputs":[],"stateMutability":"nonpayable"},{"type":"function","name":"parseAssetsForAction","inputs":[{"name":"_vaultProxy","type":"address","internalType":"address"},{"name":"_selector","type":"bytes4","internalType":"bytes4"},{"name":"_actionData","type":"bytes","internalType":"bytes"}],"outputs":[{"name":"spendAssetsHandleType_","type":"uint8","internalType":"enum IIntegrationManager.SpendAssetsHandleType"},{"name":"spendAssets_","type":"address[]","internalType":"address[]"},{"name":"spendAssetAmounts_","type":"uint256[]","internalType":"uint256[]"},{"name":"incomingAssets_","type":"address[]","internalType":"address[]"},{"name":"minIncomingAssetAmounts_","type":"uint256[]","internalType":"uint256[]"}],"stateMutability":"view"},{"type":"function","name":"redeem","inputs":[{"name":"_vaultProxy","type":"address","internalType":"address"},{"name":"_actionData","type":"bytes","internalType":"bytes"},{"name":"_assetData","type":"bytes","internalType":"bytes"}],"outputs":[],"stateMutability":"nonpayable"}],"bytecode":{"object":"0x60c060405234801561001057600080fd5b50604051611f6b380380611f6b8339818101604052604081101561003357600080fd5b5080516020909101516001600160601b0319606092831b8116608052911b1660a05260805160601c60a05160601c611ed9610092600039806107ea52806118ee5250806105e8528061083b52806109515280610bac5250611ed96000f3fe608060405234801561001057600080fd5b50600436106100f55760003560e01c8063a21f9a2c11610097578063c32990a211610066578063c32990a2146103df578063c54efee5146103e7578063e7c45690146105a9578063f7d882b5146105b1576100f5565b8063a21f9a2c14610217578063b23228cf1461023b578063b9dfbacc14610243578063c29fa9dd14610311576100f5565b8063257cb1a3116100d3578063257cb1a3146101f75780633ffc1591146101ff57806340da225d14610207578063863e5ad01461020f576100f5565b8063080456c1146100fa578063099f75151461011f578063131461c0146101ef575b600080fd5b6101026105b9565b604080516001600160e01b03199092168252519081900360200190f35b6101ed6004803603606081101561013557600080fd5b6001600160a01b038235169190810190604081016020820135600160201b81111561015f57600080fd5b82018360208201111561017157600080fd5b803590602001918460018302840111600160201b8311171561019257600080fd5b919390929091602081019035600160201b8111156101af57600080fd5b8201836020820111156101c157600080fd5b803590602001918460018302840111600160201b831117156101e257600080fd5b5090925090506105dd565b005b610102610734565b610102610758565b61010261077c565b6101026107a0565b6101026107c4565b61021f6107e8565b604080516001600160a01b039092168252519081900360200190f35b61010261080c565b6101ed6004803603606081101561025957600080fd5b6001600160a01b038235169190810190604081016020820135600160201b81111561028357600080fd5b82018360208201111561029557600080fd5b803590602001918460018302840111600160201b831117156102b657600080fd5b919390929091602081019035600160201b8111156102d357600080fd5b8201836020820111156102e557600080fd5b803590602001918460018302840111600160201b8311171561030657600080fd5b509092509050610830565b6101ed6004803603606081101561032757600080fd5b6001600160a01b038235169190810190604081016020820135600160201b81111561035157600080fd5b82018360208201111561036357600080fd5b803590602001918460018302840111600160201b8311171561038457600080fd5b919390929091602081019035600160201b8111156103a157600080fd5b8201836020820111156103b357600080fd5b803590602001918460018302840111600160201b831117156103d457600080fd5b509092509050610946565b610102610ac4565b610474600480360360608110156103fd57600080fd5b6001600160a01b03823516916001600160e01b031960208201351691810190606081016040820135600160201b81111561043657600080fd5b82018360208201111561044857600080fd5b803590602001918460018302840111600160201b8311171561046957600080fd5b509092509050610ae8565b6040518086600281111561048457fe5b815260200180602001806020018060200180602001858103855289818151815260200191508051906020019060200280838360005b838110156104d15781810151838201526020016104b9565b50505050905001858103845288818151815260200191508051906020019060200280838360005b838110156105105781810151838201526020016104f8565b50505050905001858103835287818151815260200191508051906020019060200280838360005b8381101561054f578181015183820152602001610537565b50505050905001858103825286818151815260200191508051906020019060200280838360005b8381101561058e578181015183820152602001610576565b50505050905001995050505050505050505060405180910390f35b61021f610baa565b610102610bce565b7f8334eb99be0145865eba9889fca2ee920288090caefff4cc776038e20ad9259a81565b336001600160a01b037f000000000000000000000000000000000000000000000000000000000000000016146106445760405162461bcd60e51b8152600401808060200182810382526032815260200180611db46032913960400191505060405180910390fd5b8482828080601f01602080910402602001604051908101604052809392919081815260200183838082843760009201919091525050604080516020601f88018190048102820181019092528681526060935083925082916106c091908990899081908401838280828437600092019190915250610bf292505050565b92509250925061070d816000815181106106d657fe5b6020026020010151846000815181106106eb57fe5b60200260200101518460008151811061070057fe5b6020026020010151610daf565b505050606061071b82610bf2565b925050506107298382610e55565b505050505050505050565b7f29fa046e79524c3c5ac4c01df692c35e217802b2b13b21121b76cf0ef02b138c81565b7f099f75155f0e997bf83a7993a71d5e7e7540bd386fe1e84643a09ce6b412521981565b7ffa7dd04da627f433da73c4355ead9c75682a67a8fc84d3f6170ef0922f402d2481565b7fb9dfbaccbe5cd2a84fdcf1d15f23ef25d23086f5afbaa99516065ed4a5bbc7a381565b7f03e38a2bd7063d45c897edeafc330e71657502dd86434d3c37a489caf116af6981565b7f000000000000000000000000000000000000000000000000000000000000000090565b7f68e30677f607df46e87da13e15b637784cfa62374b653f35ab43d10361a2f83081565b336001600160a01b037f000000000000000000000000000000000000000000000000000000000000000016146108975760405162461bcd60e51b8152600401808060200182810382526032815260200180611db46032913960400191505060405180910390fd5b8482828080601f0160208091040260200160405190810160405280939291908181526020018383808284376000920182905250604080516020601f8c018190048102820181019092528a815291945061090e93509091508990899081908401838280828437600092019190915250610fb092505050565b905061091981610fcf565b61092b8861092683611045565b610e55565b5050606061093882610bf2565b505090506107298382610e55565b336001600160a01b037f000000000000000000000000000000000000000000000000000000000000000016146109ad5760405162461bcd60e51b8152600401808060200182810382526032815260200180611db46032913960400191505060405180910390fd5b8482828080601f0160208091040260200160405190810160405280939291908181526020018383808284376000920182905250604080516020601f8c018190048102820181019092528a8152919450610a249350909150899089908190840183828082843760009201919091525061124d92505050565b50509050610aaa81826001600160a01b03166370a08231306040518263ffffffff1660e01b815260040180826001600160a01b0316815260200191505060206040518083038186803b158015610a7957600080fd5b505afa158015610a8d573d6000803e3d6000fd5b505050506040513d6020811015610aa357600080fd5b5051611281565b610ab78861092683611045565b5050606061071b82610bf2565b7f0e7f692dad5b88fdee426250d6eae91207e56a2e8112b7364579bed1790e5bf481565b600060608080806001600160e01b03198816632e77eeb360e21b1415610b2257610b138988886112f7565b94509450945094509450610b9f565b6001600160e01b0319881663099f751560e01b1415610b4557610b1387876114dc565b6001600160e01b0319881663c29fa9dd60e01b1415610b6857610b13878761168f565b60405162461bcd60e51b8152600401808060200182810382526027815260200180611ea66027913960400191505060405180910390fd5b945094509450945094565b7f000000000000000000000000000000000000000000000000000000000000000090565b7fc29fa9dde84204c2908778afd0613d802d31cf046179b88f6d2b4a4e507ea2d581565b6060806060838060200190516060811015610c0c57600080fd5b8101908080516040519392919084600160201b821115610c2b57600080fd5b908301906020820185811115610c4057600080fd5b82518660208202830111600160201b82111715610c5c57600080fd5b82525081516020918201928201910280838360005b83811015610c89578181015183820152602001610c71565b5050505090500160405260200180516040519392919084600160201b821115610cb157600080fd5b908301906020820185811115610cc657600080fd5b82518660208202830111600160201b82111715610ce257600080fd5b82525081516020918201928201910280838360005b83811015610d0f578181015183820152602001610cf7565b5050505090500160405260200180516040519392919084600160201b821115610d3757600080fd5b908301906020820185811115610d4c57600080fd5b82518660208202830111600160201b82111715610d6857600080fd5b82525081516020918201928201910280838360005b83811015610d95578181015183820152602001610d7d565b505050509050016040525050509250925092509193909250565b610dba8284836117e0565b60408051632befabbf60e01b81526004810183905260016024820152731ad1fc9964c551f456238dd88d6a38344b5319d7604482015290516001600160a01b03851691632befabbf9160648083019260209291908290030181600087803b158015610e2457600080fd5b505af1158015610e38573d6000803e3d6000fd5b505050506040513d6020811015610e4e57600080fd5b5050505050565b6060815167ffffffffffffffff81118015610e6f57600080fd5b50604051908082528060200260200182016040528015610e99578160200160208202803683370190505b50905060005b8251811015610fa9576000838281518110610eb657fe5b60200260200101519050806001600160a01b03166370a08231306040518263ffffffff1660e01b815260040180826001600160a01b0316815260200191505060206040518083038186803b158015610f0d57600080fd5b505afa158015610f21573d6000803e3d6000fd5b505050506040513d6020811015610f3757600080fd5b50518351849084908110610f4757fe5b6020026020010181815250506000838381518110610f6157fe5b60200260200101511115610fa057610fa085848481518110610f7f57fe5b6020026020010151836001600160a01b03166118989092919063ffffffff16565b50600101610e9f565b5092915050565b6000818060200190516020811015610fc757600080fd5b505192915050565b806001600160a01b0316638b30b51660006040518263ffffffff1660e01b815260040180828152602001915050602060405180830381600087803b15801561101657600080fd5b505af115801561102a573d6000803e3d6000fd5b505050506040513d602081101561104057600080fd5b505050565b604080516350b28af760e01b8152600060048201819052915160609284926001600160a01b038416926350b28af792602480840193919291829003018186803b15801561109157600080fd5b505afa1580156110a5573d6000803e3d6000fd5b505050506040513d6000823e601f3d908101601f1916820160405260208110156110ce57600080fd5b8101908080516040519392919084600160201b8211156110ed57600080fd5b90830190602082018581111561110257600080fd5b82518660208202830111600160201b8211171561111e57600080fd5b82525081516020918201928201910280838360005b8381101561114b578181015183820152602001611133565b505050509050016040525050505167ffffffffffffffff8111801561116f57600080fd5b50604051908082528060200260200182016040528015611199578160200160208202803683370190505b50915060005b825181101561124657816001600160a01b031663746daa4e826040518263ffffffff1660e01b81526004018082815260200191505060206040518083038186803b1580156111ec57600080fd5b505afa158015611200573d6000803e3d6000fd5b505050506040513d602081101561121657600080fd5b5051835184908390811061122657fe5b6001600160a01b039092166020928302919091019091015260010161119f565b5050919050565b600080600083806020019051606081101561126757600080fd5b508051602082015160409092015190969195509350915050565b816001600160a01b0316638b30b516826040518263ffffffff1660e01b815260040180828152602001915050602060405180830381600087803b1580156112c757600080fd5b505af11580156112db573d6000803e3d6000fd5b505050506040513d60208110156112f157600080fd5b50505050565b6000606080606080600061134088888080601f016020809104026020016040519081016040528093929190818152602001838380828437600092019190915250610fb092505050565b9050600061134d826118ea565b6001600160a01b031614156113935760405162461bcd60e51b8152600401808060200182810382526033815260200180611de66033913960400191505060405180910390fd5b604080516001808252818301909252906020808301908036833701905050945080856000815181106113c157fe5b6001600160a01b0392909216602092830291909101820152604080516001808252818301909252918281019080368337019050509350806001600160a01b03166370a082318a6040518263ffffffff1660e01b815260040180826001600160a01b0316815260200191505060206040518083038186803b15801561144457600080fd5b505afa158015611458573d6000803e3d6000fd5b505050506040513d602081101561146e57600080fd5b50518451859060009061147d57fe5b60209081029190910101526002858560006040519080825280602002602001820160405280156114b7578160200160208202803683370190505b50604080516000815260208101909152939d929c50909a509850909650945050505050565b600060608060608060008060006115288a8a8080601f01602080910402602001604051908101604052809392919081815260200183838082843760009201919091525061124d92505050565b9250925092506000611539846118ea565b90506001600160a01b0381166115805760405162461bcd60e51b815260040180806020018281038252602b815260200180611d63602b913960400191505060405180910390fd5b604080516001808252818301909252906020808301908036833701905050975080886000815181106115ae57fe5b6001600160a01b039290921660209283029190910182015260408051600180825281830190925291828101908036833701905050965082876000815181106115f257fe5b602090810291909101015260408051600180825281830190925290816020016020820280368337019050509550838660008151811061162d57fe5b6001600160a01b0392909216602092830291909101820152604080516001808252818301909252918281019080368337019050509450818560008151811061167157fe5b60200260200101818152505060029850505050509295509295909350565b600060608060608060008060006116db8a8a8080601f01602080910402602001604051908101604052809392919081815260200183838082843760009201919091525061124d92505050565b92509250925060006116ec846118ea565b90506001600160a01b0381166117335760405162461bcd60e51b815260040180806020018281038252602d815260200180611e19602d913960400191505060405180910390fd5b6040805160018082528183019092529060208083019080368337019050509750838860008151811061176157fe5b6001600160a01b039290921660209283029190910182015260408051600180825281830190925291828101908036833701905050965082876000815181106117a557fe5b602090810291909101015260408051600180825281830190925290816020016020820280368337019050509550808660008151811061162d57fe5b60408051636eb1769f60e11b81523060048201526001600160a01b038481166024830152915160009286169163dd62ed3e916044808301926020929190829003018186803b15801561183157600080fd5b505afa158015611845573d6000803e3d6000fd5b505050506040513d602081101561185b57600080fd5b50519050818110156112f1578015611882576118826001600160a01b038516846000611983565b6112f16001600160a01b03851684600019611983565b604080516001600160a01b038416602482015260448082018490528251808303909101815260649091019091526020810180516001600160e01b031663a9059cbb60e01b179052611040908490611a92565b60007f00000000000000000000000000000000000000000000000000000000000000006001600160a01b03166366adb867836040518263ffffffff1660e01b815260040180826001600160a01b0316815260200191505060206040518083038186803b15801561195957600080fd5b505afa15801561196d573d6000803e3d6000fd5b505050506040513d6020811015610fc757600080fd5b801580611a09575060408051636eb1769f60e11b81523060048201526001600160a01b03848116602483015291519185169163dd62ed3e91604480820192602092909190829003018186803b1580156119db57600080fd5b505afa1580156119ef573d6000803e3d6000fd5b505050506040513d6020811015611a0557600080fd5b5051155b611a445760405162461bcd60e51b8152600401808060200182810382526036815260200180611e706036913960400191505060405180910390fd5b604080516001600160a01b038416602482015260448082018490528251808303909101815260649091019091526020810180516001600160e01b031663095ea7b360e01b1790526110409084905b6060611ae7826040518060400160405280602081526020017f5361666545524332303a206c6f772d6c6576656c2063616c6c206661696c6564815250856001600160a01b0316611b439092919063ffffffff16565b80519091501561104057808060200190516020811015611b0657600080fd5b50516110405760405162461bcd60e51b815260040180806020018281038252602a815260200180611e46602a913960400191505060405180910390fd5b6060611b528484600085611b5c565b90505b9392505050565b606082471015611b9d5760405162461bcd60e51b8152600401808060200182810382526026815260200180611d8e6026913960400191505060405180910390fd5b611ba685611cb8565b611bf7576040805162461bcd60e51b815260206004820152601d60248201527f416464726573733a2063616c6c20746f206e6f6e2d636f6e7472616374000000604482015290519081900360640190fd5b60006060866001600160a01b031685876040518082805190602001908083835b60208310611c365780518252601f199092019160209182019101611c17565b6001836020036101000a03801982511681845116808217855250505050505090500191505060006040518083038185875af1925050503d8060008114611c98576040519150601f19603f3d011682016040523d82523d6000602084013e611c9d565b606091505b5091509150611cad828286611cbe565b979650505050505050565b3b151590565b60608315611ccd575081611b55565b825115611cdd5782518084602001fd5b8160405162461bcd60e51b81526004018080602001828103825283818151815260200191508051906020019080838360005b83811015611d27578181015183820152602001611d0f565b50505050905090810190601f168015611d545780820380516001836020036101000a031916815260200191505b509250505060405180910390fdfe5f5f7061727365417373657473466f724c656e643a20556e737570706f727465642069646c65546f6b656e416464726573733a20696e73756666696369656e742062616c616e636520666f722063616c6c4f6e6c792074686520496e746567726174696f6e4d616e616765722063616e2063616c6c20746869732066756e6374696f6e5f5f7061727365417373657473466f72436c61696d526577617264733a20556e737570706f727465642069646c65546f6b656e5f5f7061727365417373657473466f7252656465656d3a20556e737570706f727465642069646c65546f6b656e5361666545524332303a204552433230206f7065726174696f6e20646964206e6f7420737563636565645361666545524332303a20617070726f76652066726f6d206e6f6e2d7a65726f20746f206e6f6e2d7a65726f20616c6c6f77616e63657061727365417373657473466f72416374696f6e3a205f73656c6563746f7220696e76616c6964a164736f6c634300060c000a","linkReferences":{}},"methodIdentifiers":{"CLAIM_REWARDS_SELECTOR()":"40da225d","LEND_AND_STAKE_SELECTOR()":"131461c0","LEND_SELECTOR()":"257cb1a3","REDEEM_SELECTOR()":"f7d882b5","STAKE_SELECTOR()":"3ffc1591","TAKE_MULTIPLE_ORDERS_SELECTOR()":"c32990a2","TAKE_ORDER_SELECTOR()":"863e5ad0","UNSTAKE_AND_REDEEM_SELECTOR()":"080456c1","UNSTAKE_SELECTOR()":"b23228cf","claimRewards(address,bytes,bytes)":"b9dfbacc","getIdlePriceFeed()":"a21f9a2c","getIntegrationManager()":"e7c45690","lend(address,bytes,bytes)":"099f7515","parseAssetsForAction(address,bytes4,bytes)":"c54efee5","redeem(address,bytes,bytes)":"c29fa9dd"},"id":215}