{"abi":[{"type":"constructor","inputs":[{"name":"_policyManager","type":"address","internalType":"address"},{"name":"_addressListRegistry","type":"address","internalType":"address"}],"stateMutability":"nonpayable"},{"type":"function","name":"BYPASS_FLAG","inputs":[],"outputs":[{"name":"","type":"uint256","internalType":"uint256"}],"stateMutability":"view"},{"type":"function","name":"activateForFund","inputs":[{"name":"","type":"address","internalType":"address"}],"outputs":[],"stateMutability":"nonpayable"},{"type":"function","name":"addFundSettings","inputs":[{"name":"_comptrollerProxy","type":"address","internalType":"address"},{"name":"_encodedSettings","type":"bytes","internalType":"bytes"}],"outputs":[],"stateMutability":"nonpayable"},{"type":"function","name":"canDisable","inputs":[],"outputs":[{"name":"canDisable_","type":"bool","internalType":"bool"}],"stateMutability":"pure"},{"type":"function","name":"getListIdsForFundAndUser","inputs":[{"name":"_comptrollerProxy","type":"address","internalType":"address"},{"name":"_user","type":"address","internalType":"address"}],"outputs":[{"name":"listIds_","type":"uint256[]","internalType":"uint256[]"}],"stateMutability":"view"},{"type":"function","name":"getPolicyManager","inputs":[],"outputs":[{"name":"policyManager_","type":"address","internalType":"address"}],"stateMutability":"view"},{"type":"function","name":"identifier","inputs":[],"outputs":[{"name":"identifier_","type":"string","internalType":"string"}],"stateMutability":"pure"},{"type":"function","name":"implementedHooks","inputs":[],"outputs":[{"name":"implementedHooks_","type":"uint8[]","internalType":"enum IPolicyManager.PolicyHook[]"}],"stateMutability":"pure"},{"type":"function","name":"passesRule","inputs":[{"name":"_comptrollerProxy","type":"address","internalType":"address"},{"name":"_caller","type":"address","internalType":"address"},{"name":"_adapter","type":"address","internalType":"address"}],"outputs":[{"name":"isValid_","type":"bool","internalType":"bool"}],"stateMutability":"view"},{"type":"function","name":"updateFundSettings","inputs":[{"name":"_comptrollerProxy","type":"address","internalType":"address"},{"name":"_encodedSettings","type":"bytes","internalType":"bytes"}],"outputs":[],"stateMutability":"nonpayable"},{"type":"function","name":"validateRule","inputs":[{"name":"_comptrollerProxy","type":"address","internalType":"address"},{"name":"","type":"uint8","internalType":"enum IPolicyManager.PolicyHook"},{"name":"_encodedArgs","type":"bytes","internalType":"bytes"}],"outputs":[{"name":"isValid_","type":"bool","internalType":"bool"}],"stateMutability":"nonpayable"},{"type":"event","name":"ListsSetForFundAndUser","inputs":[{"name":"comptrollerProxy","type":"address","indexed":true,"internalType":"address"},{"name":"user","type":"address","indexed":true,"internalType":"address"},{"name":"listIds","type":"uint256[]","indexed":false,"internalType":"uint256[]"}],"anonymous":false}],"bytecode":{"object":"0x60c06040523480156200001157600080fd5b50604051620016b8380380620016b8833981016040819052620000349162000066565b6001600160601b0319606092831b8116608052911b1660a052620000d1565b80516200006081620000b7565b92915050565b600080604083850312156200007a57600080fd5b600062000088858562000053565b92505060206200009b8582860162000053565b9150509250929050565b60006001600160a01b03821662000060565b620000c281620000a5565b8114620000ce57600080fd5b50565b60805160601c60a05160601c6115b362000105600039806104c8528061096b525080610199528061055f52506115b36000f3fe608060405234801561001057600080fd5b50600436106100a95760003560e01c80637998a1c4116100715780637998a1c414610109578063b174666c1461011e578063cbf54bb21461013e578063ccdf1caf14610153578063ceb9a0ad14610166578063d44ad6cb14610179576100a9565b80630d4d7510146100ae5780630f5f6b4f146100ae5780631ef92578146100c3578063572a45e1146100e1578063579be718146100f6575b600080fd5b6100c16100bc366004610f48565b61018e565b005b6100cb6101ef565b6040516100d891906113db565b60405180910390f35b6100e96101f4565b6040516100d8919061141a565b6100cb610104366004610f9d565b6101fa565b61011161025d565b6040516100d891906113e9565b61013161012c366004610ec1565b610294565b6040516100d891906113aa565b61014661030c565b6040516100d89190611399565b6100cb610161366004610efb565b610363565b6100c1610174366004610d85565b61055a565b61018161055d565b6040516100d8919061135e565b336001600160a01b037f000000000000000000000000000000000000000000000000000000000000000016146101df5760405162461bcd60e51b81526004016101d69061140a565b60405180910390fd5b6101ea838383610581565b505050565b600190565b60001981565b600080600061023e85858080601f01602080910402602001604051908101604052809392919081815260200183838082843760009201919091525061060092505050565b505050505091509150610252878383610363565b979650505050505050565b60408051808201909152601c81527f414c4c4f5745445f41444150544552535f5045525f4d414e4147455200000000602082015290565b6001600160a01b038083166000908152602081815260408083209385168352928152908290208054835181840281018401909452808452606093928301828280156102fe57602002820191906000526020600020905b8154815260200190600101908083116102ea575b505050505090505b92915050565b6040805160018082528183019092526060916020808301908036833701905050905060018160008151811061033d57fe5b6020026020010190600981111561035057fe5b9081600981111561035d57fe5b90525090565b6000836001600160a01b031663c98091876040518163ffffffff1660e01b815260040160206040518083038186803b15801561039e57600080fd5b505afa1580156103b2573d6000803e3d6000fd5b505050506040513d601f19601f820116820180604052508101906103d69190610dab565b6001600160a01b031663893d20e86040518163ffffffff1660e01b815260040160206040518083038186803b15801561040e57600080fd5b505afa158015610422573d6000803e3d6000fd5b505050506040513d601f19601f820116820180604052508101906104469190610dab565b6001600160a01b0316836001600160a01b0316141561046757506001610553565b60606104738585610294565b9050805160001415610489576000915050610553565b6000198160008151811061049957fe5b602002602001015114156104b1576001915050610553565b604051633ab3a7a360e11b81526001600160a01b037f000000000000000000000000000000000000000000000000000000000000000016906375674f46906104ff90849087906004016113bb565b60206040518083038186803b15801561051757600080fd5b505afa15801561052b573d6000803e3d6000fd5b505050506040513d601f19601f8201168201806040525081019061054f91906110be565b9150505b9392505050565b50565b7f000000000000000000000000000000000000000000000000000000000000000090565b60608061058e8484610636565b9150915080518251146105b35760405162461bcd60e51b81526004016101d6906113fa565b60005b81518110156105f8576105f0868483815181106105cf57fe5b60200260200101518484815181106105e357fe5b6020026020010151610651565b6001016105b6565b505050505050565b60008060006060806060808780602001905181019061061f9190610dc9565b959e949d50929b5090995097509550909350915050565b60608061064583850185611004565b915091505b9250929050565b60608061065d83610921565b6001600160a01b03808816600090815260208181526040808320938a16835292905220549193509150156106b9576001600160a01b0380861660009081526020818152604080832093881683529290529081206106b991610a17565b606081518351016001600160401b03811180156106d557600080fd5b506040519080825280602002602001820160405280156106ff578160200160208202803683370190505b508051909150156108ce5760005b83518110156107a15783818151811061072257fe5b602002602001015182828151811061073657fe5b6020908102919091018101919091526001600160a01b0380891660009081528083526040808220928a168252919092529020845185908390811061077657fe5b602090810291909101810151825460018181018555600094855292909320909201919091550161070d565b508151156108ce576000866001600160a01b031663c98091876040518163ffffffff1660e01b815260040160206040518083038186803b1580156107e457600080fd5b505afa1580156107f8573d6000803e3d6000fd5b505050506040513d601f19601f8201168201806040525081019061081c9190610dab565b905060005b83518110156108cb57600081865101905061084f8386848151811061084257fe5b6020026020010151610941565b84828151811061085b57fe5b6020908102919091018101919091526001600160a01b03808b1660009081528083526040808220928c168252919092529020845185908390811061089b57fe5b60209081029190910181015182546001818101855560009485529290932090920191909155919091019050610821565b50505b846001600160a01b0316866001600160a01b03167fe737257df130e7ddcae83b49adac67dc3dcc32950b3e5ee558eae2f0b842a50f8360405161091191906113aa565b60405180910390a3505050505050565b606080828060200190518101906109389190611061565b91509150915091565b600080606061094f846109ff565b604051635f34203760e11b815291935091506001600160a01b037f0000000000000000000000000000000000000000000000000000000000000000169063be68406e906109a49088908690869060040161136c565b602060405180830381600087803b1580156109be57600080fd5b505af11580156109d2573d6000803e3d6000fd5b505050506040513d601f19601f820116820180604052508101906109f69190611123565b95945050505050565b600060608280602001905181019061093891906110dc565b508054600082559060005260206000209081019061055a91905b80821115610a455760008155600101610a31565b5090565b80356103068161155d565b80516103068161155d565b600082601f830112610a7057600080fd5b8135610a83610a7e8261144e565b611428565b91508181835260208401935060208101905083856020840282011115610aa857600080fd5b60005b83811015610ad45781610abe8882610a49565b8452506020928301929190910190600101610aab565b5050505092915050565b600082601f830112610aef57600080fd5b8151610afd610a7e8261144e565b91508181835260208401935060208101905083856020840282011115610b2257600080fd5b60005b83811015610ad45781610b388882610a54565b8452506020928301929190910190600101610b25565b600082601f830112610b5f57600080fd5b8135610b6d610a7e8261144e565b81815260209384019390925082018360005b83811015610ad45781358601610b958882610ccf565b8452506020928301929190910190600101610b7f565b600082601f830112610bbc57600080fd5b8151610bca610a7e8261144e565b81815260209384019390925082018360005b83811015610ad45781518601610bf28882610d1e565b8452506020928301929190910190600101610bdc565b600082601f830112610c1957600080fd5b8151610c27610a7e8261144e565b91508181835260208401935060208101905083856020840282011115610c4c57600080fd5b60005b83811015610ad45781610c628882610d7a565b8452506020928301929190910190600101610c4f565b805161030681611571565b80516103068161157a565b60008083601f840112610ca057600080fd5b5081356001600160401b03811115610cb757600080fd5b60208301915083600182028301111561064a57600080fd5b600082601f830112610ce057600080fd5b8135610cee610a7e8261146e565b91508082526020830160208301858383011115610d0a57600080fd5b610d15838284611503565b50505092915050565b600082601f830112610d2f57600080fd5b8151610d3d610a7e8261146e565b91508082526020830160208301858383011115610d5957600080fd5b610d1583828461150f565b803561030681611583565b805161030681611590565b80516103068161159d565b600060208284031215610d9757600080fd5b6000610da38484610a49565b949350505050565b600060208284031215610dbd57600080fd5b6000610da38484610a54565b600080600080600080600060e0888a031215610de457600080fd5b6000610df08a8a610a54565b9750506020610e018a828b01610a54565b9650506040610e128a828b01610c83565b95505060608801516001600160401b03811115610e2e57600080fd5b610e3a8a828b01610ade565b94505060808801516001600160401b03811115610e5657600080fd5b610e628a828b01610c08565b93505060a08801516001600160401b03811115610e7e57600080fd5b610e8a8a828b01610ade565b92505060c08801516001600160401b03811115610ea657600080fd5b610eb28a828b01610c08565b91505092959891949750929550565b60008060408385031215610ed457600080fd5b6000610ee08585610a49565b9250506020610ef185828601610a49565b9150509250929050565b600080600060608486031215610f1057600080fd5b6000610f1c8686610a49565b9350506020610f2d86828701610a49565b9250506040610f3e86828701610a49565b9150509250925092565b600080600060408486031215610f5d57600080fd5b6000610f698686610a49565b93505060208401356001600160401b03811115610f8557600080fd5b610f9186828701610c8e565b92509250509250925092565b60008060008060608587031215610fb357600080fd5b6000610fbf8787610a49565b9450506020610fd087828801610d64565b93505060408501356001600160401b03811115610fec57600080fd5b610ff887828801610c8e565b95989497509550505050565b6000806040838503121561101757600080fd5b82356001600160401b0381111561102d57600080fd5b61103985828601610a5f565b92505060208301356001600160401b0381111561105557600080fd5b610ef185828601610b4e565b6000806040838503121561107457600080fd5b82516001600160401b0381111561108a57600080fd5b61109685828601610c08565b92505060208301516001600160401b038111156110b257600080fd5b610ef185828601610bab565b6000602082840312156110d057600080fd5b6000610da38484610c78565b600080604083850312156110ef57600080fd5b60006110fb8585610d6f565b92505060208301516001600160401b0381111561111757600080fd5b610ef185828601610ade565b60006020828403121561113557600080fd5b6000610da38484610d7a565b600061114d838361116d565b505060200190565b600061114d838361127a565b600061114d8383611355565b611176816114a8565b82525050565b60006111878261149b565b611191818561149f565b935061119c83611495565b8060005b838110156111ca5781516111b48882611141565b97506111bf83611495565b9250506001016111a0565b509495945050505050565b60006111e08261149b565b6111ea818561149f565b93506111f583611495565b8060005b838110156111ca57815161120d8882611155565b975061121883611495565b9250506001016111f9565b600061122e8261149b565b611238818561149f565b935061124383611495565b8060005b838110156111ca57815161125b8882611161565b975061126683611495565b925050600101611247565b611176816114b3565b611176816114ed565b611176816114f8565b60006112978261149b565b6112a1818561149f565b93506112b181856020860161150f565b6112ba8161153f565b9093019392505050565b60006112d160248361149f565b7f5f5f7570646174654c69737473466f7246756e643a20756e657175616c2061728152637261797360e01b602082015260400192915050565b600061131760298361149f565b7f4f6e6c792074686520506f6c6963794d616e616765722063616e206d616b65208152681d1a1a5cc818d85b1b60ba1b602082015260400192915050565b611176816114ea565b60208101610306828461116d565b6060810161137a828661116d565b6113876020830185611283565b81810360408301526109f6818461117c565b6020808252810161055381846111d5565b602080825281016105538184611223565b604080825281016113cc8185611223565b9050610553602083018461116d565b602081016103068284611271565b60208082528101610553818461128c565b60208082528101610306816112c4565b602080825281016103068161130a565b602081016103068284611355565b6040518181016001600160401b038111828210171561144657600080fd5b604052919050565b60006001600160401b0382111561146457600080fd5b5060209081020190565b60006001600160401b0382111561148457600080fd5b506020601f91909101601f19160190565b60200190565b5190565b90815260200190565b6000610306826114de565b151590565b6001600160e01b03191690565b806114cf81611549565b919050565b806114cf81611553565b6001600160a01b031690565b90565b6000610306826114c5565b6000610306826114d4565b82818337506000910152565b60005b8381101561152a578181015183820152602001611512565b83811115611539576000848401525b50505050565b601f01601f191690565b600a811061055a57fe5b6004811061055a57fe5b611566816114a8565b811461055a57600080fd5b611566816114b3565b611566816114b8565b600a811061055a57600080fd5b6004811061055a57600080fd5b611566816114ea56fea164736f6c634300060c000a","linkReferences":{}},"methodIdentifiers":{"BYPASS_FLAG()":"572a45e1","activateForFund(address)":"ceb9a0ad","addFundSettings(address,bytes)":"0f5f6b4f","canDisable()":"1ef92578","getListIdsForFundAndUser(address,address)":"b174666c","getPolicyManager()":"d44ad6cb","identifier()":"7998a1c4","implementedHooks()":"cbf54bb2","passesRule(address,address,address)":"ccdf1caf","updateFundSettings(address,bytes)":"0d4d7510","validateRule(address,uint8,bytes)":"579be718"},"id":207}