{"abi":[{"type":"constructor","inputs":[{"name":"_wrappedNativeAsset","type":"address","internalType":"address"}],"stateMutability":"nonpayable"},{"type":"function","name":"borrow","inputs":[{"name":"_amount","type":"uint256","internalType":"uint256"}],"outputs":[],"stateMutability":"nonpayable"},{"type":"function","name":"getAccountingModule","inputs":[],"outputs":[{"name":"accountingModule_","type":"address","internalType":"address"}],"stateMutability":"view"},{"type":"function","name":"getBorrowableAmount","inputs":[],"outputs":[{"name":"borrowableAmount_","type":"uint256","internalType":"uint256"}],"stateMutability":"view"},{"type":"function","name":"getBorrower","inputs":[],"outputs":[{"name":"borrower_","type":"address","internalType":"address"}],"stateMutability":"view"},{"type":"function","name":"getDebtAssets","inputs":[],"outputs":[{"name":"assets_","type":"address[]","internalType":"address[]"},{"name":"amounts_","type":"uint256[]","internalType":"uint256[]"}],"stateMutability":"nonpayable"},{"type":"function","name":"getLoanAsset","inputs":[],"outputs":[{"name":"asset_","type":"address","internalType":"address"}],"stateMutability":"view"},{"type":"function","name":"getManagedAssets","inputs":[],"outputs":[{"name":"assets_","type":"address[]","internalType":"address[]"},{"name":"amounts_","type":"uint256[]","internalType":"uint256[]"}],"stateMutability":"nonpayable"},{"type":"function","name":"getTotalBorrowed","inputs":[],"outputs":[{"name":"totalBorrowed_","type":"uint256","internalType":"uint256"}],"stateMutability":"view"},{"type":"function","name":"getTotalRepaid","inputs":[],"outputs":[{"name":"totalRepaid_","type":"uint256","internalType":"uint256"}],"stateMutability":"view"},{"type":"function","name":"init","inputs":[{"name":"","type":"bytes","internalType":"bytes"}],"outputs":[],"stateMutability":"nonpayable"},{"type":"function","name":"loanIsClosed","inputs":[],"outputs":[{"name":"isClosed_","type":"bool","internalType":"bool"}],"stateMutability":"view"},{"type":"function","name":"receiveCallFromVault","inputs":[{"name":"_actionData","type":"bytes","internalType":"bytes"}],"outputs":[],"stateMutability":"nonpayable"},{"type":"function","name":"repay","inputs":[{"name":"_amount","type":"uint256","internalType":"uint256"}],"outputs":[],"stateMutability":"nonpayable"},{"type":"event","name":"BorrowableAmountUpdated","inputs":[{"name":"borrowableAmount","type":"uint256","indexed":false,"internalType":"uint256"}],"anonymous":false},{"type":"event","name":"LoanClosed","inputs":[],"anonymous":false},{"type":"event","name":"LoanConfigured","inputs":[{"name":"borrower","type":"address","indexed":true,"internalType":"address"},{"name":"loanAsset","type":"address","indexed":true,"internalType":"address"},{"name":"accountingModule","type":"address","indexed":true,"internalType":"address"},{"name":"description","type":"bytes32","indexed":false,"internalType":"bytes32"}],"anonymous":false},{"type":"event","name":"TotalBorrowedUpdated","inputs":[{"name":"totalBorrowed","type":"uint256","indexed":false,"internalType":"uint256"}],"anonymous":false},{"type":"event","name":"TotalRepaidUpdated","inputs":[{"name":"totalRepaid","type":"uint256","indexed":false,"internalType":"uint256"}],"anonymous":false}],"bytecode":{"object":"0x60a060405234801561001057600080fd5b5060405161298a38038061298a8339818101604052602081101561003357600080fd5b81019080805190602001909291905050508073ffffffffffffffffffffffffffffffffffffffff1660808173ffffffffffffffffffffffffffffffffffffffff1660601b815250505060805160601c6128ec61009e60003980611e745280611ebe52506128ec6000f3fe608060405234801561001057600080fd5b50600436106100cf5760003560e01c80636d82f6451161008c578063acf8982e11610066578063acf8982e14610346578063c5ebeaec1461037a578063e5c23a97146103a8578063ecd658b414610463576100cf565b80636d82f6451461026157806377658e801461027f57806380daddb81461029f576100cf565b80630307c4a1146100d457806307758efb146100f25780631cb0c3e714610126578063371fd8e61461015a5780634ddf47d4146101885780635841430014610243575b600080fd5b6100dc61050a565b6040518082815260200191505060405180910390f35b6100fa610542565b604051808273ffffffffffffffffffffffffffffffffffffffff16815260200191505060405180910390f35b61012e61056b565b604051808273ffffffffffffffffffffffffffffffffffffffff16815260200191505060405180910390f35b6101866004803603602081101561017057600080fd5b8101908080359060200190929190505050610595565b005b6102416004803603602081101561019e57600080fd5b81019080803590602001906401000000008111156101bb57600080fd5b8201836020820111156101cd57600080fd5b803590602001918460018302840111640100000000831117156101ef57600080fd5b91908080601f016020809104026020016040519081016040528093929190818152602001838380828437600081840152601f19601f82011690508083019250505050505050919291929050505061081e565b005b61024b610821565b6040518082815260200191505060405180910390f35b610269610859565b6040518082815260200191505060405180910390f35b610287610863565b60405180821515815260200191505060405180910390f35b6102a761087a565b604051808060200180602001838103835285818151815260200191508051906020019060200280838360005b838110156102ee5780820151818401526020810190506102d3565b50505050905001838103825284818151815260200191508051906020019060200280838360005b83811015610330578082015181840152602081019050610315565b5050505090500194505050505060405180910390f35b61034e610ac4565b604051808273ffffffffffffffffffffffffffffffffffffffff16815260200191505060405180910390f35b6103a66004803603602081101561039057600080fd5b8101908080359060200190929190505050610aee565b005b610461600480360360208110156103be57600080fd5b81019080803590602001906401000000008111156103db57600080fd5b8201836020820111156103ed57600080fd5b8035906020019184600183028401116401000000008311171561040f57600080fd5b91908080601f016020809104026020016040519081016040528093929190818152602001838380828437600081840152601f19601f820116905080830192505050505050509192919290505050610ddc565b005b61046b610fc1565b604051808060200180602001838103835285818151815260200191508051906020019060200280838360005b838110156104b2578082015181840152602081019050610497565b50505050905001838103825284818151815260200191508051906020019060200280838360005b838110156104f45780820151818401526020810190506104d9565b5050505090500194505050505060405180910390f35b6000600360009054906101000a90046fffffffffffffffffffffffffffffffff166fffffffffffffffffffffffffffffffff16905090565b60008060009054906101000a900473ffffffffffffffffffffffffffffffffffffffff16905090565b6000600160009054906101000a900473ffffffffffffffffffffffffffffffffffffffff16905090565b600061059f610821565b905060006105ab610542565b905060008073ffffffffffffffffffffffffffffffffffffffff168273ffffffffffffffffffffffffffffffffffffffff161461068e578173ffffffffffffffffffffffffffffffffffffffff16631324041c61060661050a565b85876040518463ffffffff1660e01b8152600401808481526020018381526020018281526020019350505050602060405180830381600087803b15801561064c57600080fd5b505af1158015610660573d6000803e3d6000fd5b505050506040513d602081101561067657600080fd5b810190808051906020019092919050505090506106d3565b7fffffffffffffffffffffffffffffffffffffffffffffffffffffffffffffffff8414156106ce576106c76106c161050a565b84610fc7565b90506106d2565b8390505b5b60008111610749576040517f08c379a00000000000000000000000000000000000000000000000000000000081526004018080602001828103825260178152602001807f72657061793a204e6f7468696e6720746f20726570617900000000000000000081525060200191505060405180910390fd5b61076461075f8285610fe690919063ffffffff16565b61106e565b610818333073ffffffffffffffffffffffffffffffffffffffff1663c98091876040518163ffffffff1660e01b815260040160206040518083038186803b1580156107ae57600080fd5b505afa1580156107c2573d6000803e3d6000fd5b505050506040513d60208110156107d857600080fd5b8101908080519060200190929190505050836107f2610ac4565b73ffffffffffffffffffffffffffffffffffffffff166110e9909392919063ffffffff16565b50505050565b50565b6000600360109054906101000a90046fffffffffffffffffffffffffffffffff166fffffffffffffffffffffffffffffffff16905090565b6000600254905090565b6000600460149054906101000a900460ff16905090565b606080610885610863565b1561088f57610ac0565b6000610899610542565b905060008073ffffffffffffffffffffffffffffffffffffffff168273ffffffffffffffffffffffffffffffffffffffff1614610979578173ffffffffffffffffffffffffffffffffffffffff16637bb6668e6108f461050a565b6108fc610821565b6040518363ffffffff1660e01b8152600401808381526020018281526020019250505060206040518083038186803b15801561093757600080fd5b505afa15801561094b573d6000803e3d6000fd5b505050506040513d602081101561096157600080fd5b81019080805190602001909291905050509050610994565b61099161098461050a565b61098c610821565b610fc7565b90505b6109ae61099f610859565b82610fe690919063ffffffff16565b905060008114156109c0575050610ac0565b600167ffffffffffffffff811180156109d857600080fd5b50604051908082528060200260200182016040528015610a075781602001602082028036833780820191505090505b509350610a12610ac4565b84600081518110610a1f57fe5b602002602001019073ffffffffffffffffffffffffffffffffffffffff16908173ffffffffffffffffffffffffffffffffffffffff1681525050600167ffffffffffffffff81118015610a7157600080fd5b50604051908082528060200260200182016040528015610aa05781602001602082028036833780820191505090505b5092508083600081518110610ab157fe5b60200260200101818152505050505b9091565b6000600460009054906101000a900473ffffffffffffffffffffffffffffffffffffffff16905090565b610af661056b565b73ffffffffffffffffffffffffffffffffffffffff163373ffffffffffffffffffffffffffffffffffffffff1614610b96576040517f08c379a00000000000000000000000000000000000000000000000000000000081526004018080602001828103825260148152602001807f626f72726f773a20556e617574686f72697a656400000000000000000000000081525060200191505060405180910390fd5b60008111610c0c576040517f08c379a00000000000000000000000000000000000000000000000000000000081526004018080602001828103825260158152602001807f626f72726f773a20456d707479205f616d6f756e74000000000000000000000081525060200191505060405180910390fd5b6000610c1661050a565b90506000610c22610542565b9050600073ffffffffffffffffffffffffffffffffffffffff168173ffffffffffffffffffffffffffffffffffffffff1614610cdb578073ffffffffffffffffffffffffffffffffffffffff16638602074e83610c7d610821565b866040518463ffffffff1660e01b8152600401808481526020018381526020018281526020019350505050600060405180830381600087803b158015610cc257600080fd5b505af1158015610cd6573d6000803e3d6000fd5b505050505b610cfd610cf884610cea610859565b6111aa90919063ffffffff16565b61122d565b610d108383610fe690919063ffffffff16565b9150610d1b8261126e565b600360006101000a8154816fffffffffffffffffffffffffffffffff02191690836fffffffffffffffffffffffffffffffff160217905550610da03384600460009054906101000a900473ffffffffffffffffffffffffffffffffffffffff1673ffffffffffffffffffffffffffffffffffffffff166112e19092919063ffffffff16565b7f17f13fd3f7c4712af33f1770ebcb822dd20a2dbc00850eab48d786623d97b959826040518082815260200191505060405180910390a1505050565b60006060828060200190516040811015610df557600080fd5b810190808051906020019092919080516040519392919084640100000000821115610e1f57600080fd5b83820191506020820185811115610e3557600080fd5b8251866001820283011164010000000082111715610e5257600080fd5b8083526020830192505050908051906020019080838360005b83811015610e86578082015181840152602081019050610e6b565b50505050905090810190601f168015610eb35780820380516001836020036101000a031916815260200191505b506040525050509150915060006004811115610ecb57fe5b821415610ee057610edb81611383565b610fbc565b60016004811115610eed57fe5b821415610f0257610efd81611799565b610fbb565b60026004811115610f0f57fe5b821415610f2457610f1f816118ce565b610fba565b60036004811115610f3157fe5b821415610f4657610f41816119a8565b610fb9565b600480811115610f5257fe5b821415610f6757610f62816119be565b610fb8565b6040517f08c379a00000000000000000000000000000000000000000000000000000000081526004018080602001828103825260268152602001806127ee6026913960400191505060405180910390fd5b5b5b5b5b505050565b60608091565b600081831115610fdb578183039050610fe0565b600090505b92915050565b600080828401905083811015611064576040517f08c379a000000000000000000000000000000000000000000000000000000000815260040180806020018281038252601b8152602001807f536166654d6174683a206164646974696f6e206f766572666c6f77000000000081525060200191505060405180910390fd5b8091505092915050565b6110778161126e565b600360106101000a8154816fffffffffffffffffffffffffffffffff02191690836fffffffffffffffffffffffffffffffff1602179055507f5fbda7f48544d8b75745d0afbdee80c8795852baa78a9c2d6aed0b244f9367ef816040518082815260200191505060405180910390a150565b6111a4846323b872dd60e01b858585604051602401808473ffffffffffffffffffffffffffffffffffffffff1681526020018373ffffffffffffffffffffffffffffffffffffffff1681526020018281526020019350505050604051602081830303815290604052907bffffffffffffffffffffffffffffffffffffffffffffffffffffffff19166020820180517bffffffffffffffffffffffffffffffffffffffffffffffffffffffff8381831617835250505050611b63565b50505050565b600082821115611222576040517f08c379a000000000000000000000000000000000000000000000000000000000815260040180806020018281038252601e8152602001807f536166654d6174683a207375627472616374696f6e206f766572666c6f77000081525060200191505060405180910390fd5b818303905092915050565b806002819055507fefab1a36212873214a245322bb960227417faad7a04286819bc74cb820a63342816040518082815260200191505060405180910390a150565b600070010000000000000000000000000000000082106112d9576040517f08c379a00000000000000000000000000000000000000000000000000000000081526004018080602001828103825260278152602001806127a16027913960400191505060405180910390fd5b819050919050565b61137e8363a9059cbb60e01b8484604051602401808373ffffffffffffffffffffffffffffffffffffffff16815260200182815260200192505050604051602081830303815290604052907bffffffffffffffffffffffffffffffffffffffffffffffffffffffff19166020820180517bffffffffffffffffffffffffffffffffffffffffffffffffffffffff8381831617835250505050611b63565b505050565b600073ffffffffffffffffffffffffffffffffffffffff166113a3610ac4565b73ffffffffffffffffffffffffffffffffffffffff161461140f576040517f08c379a00000000000000000000000000000000000000000000000000000000081526004018080602001828103825260298152602001806128b76029913960400191505060405180910390fd5b6000806000806060600061142287611c52565b955095509550955095509550600073ffffffffffffffffffffffffffffffffffffffff168673ffffffffffffffffffffffffffffffffffffffff1614156114b4576040517f08c379a000000000000000000000000000000000000000000000000000000000815260040180806020018281038252602581526020018061286b6025913960400191505060405180910390fd5b600073ffffffffffffffffffffffffffffffffffffffff168573ffffffffffffffffffffffffffffffffffffffff16141561153a576040517f08c379a00000000000000000000000000000000000000000000000000000000081526004018080602001828103825260278152602001806128906027913960400191505060405180910390fd5b85600160006101000a81548173ffffffffffffffffffffffffffffffffffffffff021916908373ffffffffffffffffffffffffffffffffffffffff16021790555084600460006101000a81548173ffffffffffffffffffffffffffffffffffffffff021916908373ffffffffffffffffffffffffffffffffffffffff160217905550600073ffffffffffffffffffffffffffffffffffffffff168373ffffffffffffffffffffffffffffffffffffffff161461170157826000806101000a81548173ffffffffffffffffffffffffffffffffffffffff021916908373ffffffffffffffffffffffffffffffffffffffff1602179055508273ffffffffffffffffffffffffffffffffffffffff166346739e73836040518263ffffffff1660e01b81526004018080602001828103825283818151815260200191508051906020019080838360005b8381101561169c578082015181840152602081019050611681565b50505050905090810190601f1680156116c95780820380516001836020036101000a031916815260200191505b5092505050600060405180830381600087803b1580156116e857600080fd5b505af11580156116fc573d6000803e3d6000fd5b505050505b8273ffffffffffffffffffffffffffffffffffffffff168573ffffffffffffffffffffffffffffffffffffffff168773ffffffffffffffffffffffffffffffffffffffff167f0d48a14589e59522bbc3a98345ee51dcdd958b27ec84f512c139ea74626c3aa3846040518082815260200191505060405180910390a460008411156117905761178f8461122d565b5b50505050505050565b6117a1610863565b15611814576040517f08c379a000000000000000000000000000000000000000000000000000000000815260040180806020018281038252601a8152602001807f6f6e6c794e6f74436c6f7365643a204c6f616e20636c6f73656400000000000081525060200191505060405180910390fd5b600061181f82611d76565b905060008112156118a757600081600003905061185461184f82611841610859565b6111aa90919063ffffffff16565b61122d565b6118a13382600460009054906101000a900473ffffffffffffffffffffffffffffffffffffffff1673ffffffffffffffffffffffffffffffffffffffff166112e19092919063ffffffff16565b506118ca565b6118c96118c4826118b6610859565b610fe690919063ffffffff16565b61122d565b5b5050565b6118d6610542565b73ffffffffffffffffffffffffffffffffffffffff16639e950b22826040518263ffffffff1660e01b81526004018080602001828103825283818151815260200191508051906020019080838360005b83811015611941578082015181840152602081019050611926565b50505050905090810190601f16801561196e5780820380516001836020036101000a031916815260200191505b5092505050600060405180830381600087803b15801561198d57600080fd5b505af11580156119a1573d6000803e3d6000fd5b5050505050565b6119bb6119b482611da5565b6000611e5a565b50565b6119c6610863565b15611a39576040517f08c379a000000000000000000000000000000000000000000000000000000000815260040180806020018281038252601a8152602001807f6f6e6c794e6f74436c6f7365643a204c6f616e20636c6f73656400000000000081525060200191505060405180910390fd5b611a4c611a458261223a565b6001611e5a565b6000611a56610542565b9050600073ffffffffffffffffffffffffffffffffffffffff168173ffffffffffffffffffffffffffffffffffffffff1614611b0e578073ffffffffffffffffffffffffffffffffffffffff16631770ac3a611ab061050a565b611ab8610821565b6040518363ffffffff1660e01b81526004018083815260200182815260200192505050600060405180830381600087803b158015611af557600080fd5b505af1158015611b09573d6000803e3d6000fd5b505050505b611b18600061122d565b6001600460146101000a81548160ff0219169083151502179055507f409fced1b85ae32a29fb1e18894d8361a5f2653dc27adf7102d86175c2901d7c60405160405180910390a15050565b6060611bc5826040518060400160405280602081526020017f5361666545524332303a206c6f772d6c6576656c2063616c6c206661696c65648152508573ffffffffffffffffffffffffffffffffffffffff166122ef9092919063ffffffff16565b9050600081511115611c4d57808060200190516020811015611be657600080fd5b8101908080519060200190929190505050611c4c576040517f08c379a000000000000000000000000000000000000000000000000000000000815260040180806020018281038252602a815260200180612841602a913960400191505060405180910390fd5b5b505050565b600080600080606060008680602001905160c0811015611c7157600080fd5b810190808051906020019092919080519060200190929190805190602001909291908051906020019092919080516040519392919084640100000000821115611cb957600080fd5b83820191506020820185811115611ccf57600080fd5b8251866001820283011164010000000082111715611cec57600080fd5b8083526020830192505050908051906020019080838360005b83811015611d20578082015181840152602081019050611d05565b50505050905090810190601f168015611d4d5780820380516001836020036101000a031916815260200191505b506040526020018051906020019092919050505095509550955095509550955091939550919395565b6000818060200190516020811015611d8d57600080fd5b81019080805190602001909291905050509050919050565b6060818060200190516020811015611dbc57600080fd5b8101908080516040519392919084640100000000821115611ddc57600080fd5b83820191506020820185811115611df257600080fd5b8251866020820283011164010000000082111715611e0f57600080fd5b8083526020830192505050908051906020019060200280838360005b83811015611e46578082015181840152602081019050611e2b565b505050509050016040525050509050919050565b600073ffffffffffffffffffffffffffffffffffffffff167f000000000000000000000000000000000000000000000000000000000000000073ffffffffffffffffffffffffffffffffffffffff1614611f405760004790506000811115611f3e577f000000000000000000000000000000000000000000000000000000000000000073ffffffffffffffffffffffffffffffffffffffff1663d0e30db0826040518263ffffffff1660e01b81526004016000604051808303818588803b158015611f2457600080fd5b505af1158015611f38573d6000803e3d6000fd5b50505050505b505b6000611f4a610ac4565b9050611f5f818461230790919063ffffffff16565b15611fb5576040517f08c379a000000000000000000000000000000000000000000000000000000000815260040180806020018281038252602d815260200180612814602d913960400191505060405180910390fd5b60008173ffffffffffffffffffffffffffffffffffffffff166370a08231306040518263ffffffff1660e01b8152600401808273ffffffffffffffffffffffffffffffffffffffff16815260200191505060206040518083038186803b15801561201e57600080fd5b505afa158015612032573d6000803e3d6000fd5b505050506040513d602081101561204857600080fd5b81019080805190602001909291905050509050600061206e82612069610859565b610fc7565b905060008111156121de57600080612084610821565b90506000612090610542565b9050600073ffffffffffffffffffffffffffffffffffffffff168173ffffffffffffffffffffffffffffffffffffffff16146121bb578073ffffffffffffffffffffffffffffffffffffffff1663e00c34906120ea61050a565b84878c6040518563ffffffff1660e01b81526004018085815260200184815260200183815260200180602001828103825283818151815260200191508051906020019060200280838360005b83811015612151578082015181840152602081019050612136565b5050505090500195505050505050602060405180830381600087803b15801561217957600080fd5b505af115801561218d573d6000803e3d6000fd5b505050506040513d60208110156121a357600080fd5b810190808051906020019092919050505092506121bf565b8392505b6121da6121d58484610fe690919063ffffffff16565b61106e565b5050505b600084156121ee578290506121f2565b8190505b60008111156122275761222633828673ffffffffffffffffffffffffffffffffffffffff166112e19092919063ffffffff16565b5b612231338761237e565b50505050505050565b606081806020019051602081101561225157600080fd5b810190808051604051939291908464010000000082111561227157600080fd5b8382019150602082018581111561228757600080fd5b82518660208202830111640100000000821117156122a457600080fd5b8083526020830192505050908051906020019060200280838360005b838110156122db5780820151818401526020810190506122c0565b505050509050016040525050509050919050565b60606122fe8484600085612518565b90509392505050565b6000805b83518110156123725783818151811061232057fe5b602002602001015173ffffffffffffffffffffffffffffffffffffffff168373ffffffffffffffffffffffffffffffffffffffff161415612365576001915050612378565b808060010191505061230b565b50600090505b92915050565b6060815167ffffffffffffffff8111801561239857600080fd5b506040519080825280602002602001820160405280156123c75781602001602082028036833780820191505090505b50905060005b82518110156125115760008382815181106123e457fe5b602002602001015190508073ffffffffffffffffffffffffffffffffffffffff166370a08231306040518263ffffffff1660e01b8152600401808273ffffffffffffffffffffffffffffffffffffffff16815260200191505060206040518083038186803b15801561245557600080fd5b505afa158015612469573d6000803e3d6000fd5b505050506040513d602081101561247f57600080fd5b810190808051906020019092919050505083838151811061249c57fe5b60200260200101818152505060008383815181106124b657fe5b6020026020010151111561250357612502858484815181106124d457fe5b60200260200101518373ffffffffffffffffffffffffffffffffffffffff166112e19092919063ffffffff16565b5b5080806001019150506123cd565b5092915050565b606082471015612573576040517f08c379a00000000000000000000000000000000000000000000000000000000081526004018080602001828103825260268152602001806127c86026913960400191505060405180910390fd5b61257c856126c1565b6125ee576040517f08c379a000000000000000000000000000000000000000000000000000000000815260040180806020018281038252601d8152602001807f416464726573733a2063616c6c20746f206e6f6e2d636f6e747261637400000081525060200191505060405180910390fd5b600060608673ffffffffffffffffffffffffffffffffffffffff1685876040518082805190602001908083835b6020831061263e578051825260208201915060208101905060208303925061261b565b6001836020036101000a03801982511681845116808217855250505050505090500191505060006040518083038185875af1925050503d80600081146126a0576040519150601f19603f3d011682016040523d82523d6000602084013e6126a5565b606091505b50915091506126b58282866126d4565b92505050949350505050565b600080823b905060008111915050919050565b606083156126e457829050612799565b6000835111156126f75782518084602001fd5b816040517f08c379a00000000000000000000000000000000000000000000000000000000081526004018080602001828103825283818151815260200191508051906020019080838360005b8381101561275e578082015181840152602081019050612743565b50505050905090810190601f16801561278b5780820380516001836020036101000a031916815260200191505b509250505060405180910390fd5b939250505056fe53616665436173743a2076616c756520646f65736e27742066697420696e203132382062697473416464726573733a20696e73756666696369656e742062616c616e636520666f722063616c6c7265636569766543616c6c46726f6d5661756c743a20496e76616c696420616374696f6e49645f5f7265636f6e63696c653a2045787472612061737365747320636f6e7461696e73206c6f616e2061737365745361666545524332303a204552433230206f7065726174696f6e20646964206e6f7420737563636565645f5f616374696f6e436f6e6669677572654c6f616e3a20456d70747920626f72726f7765725f5f616374696f6e436f6e6669677572654c6f616e3a20456d707479206c6f616e2061737365745f5f616374696f6e436f6e6669677572654c6f616e3a20416c726561647920636f6e66696775726564a164736f6c634300060c000a","linkReferences":{}},"methodIdentifiers":{"borrow(uint256)":"c5ebeaec","getAccountingModule()":"07758efb","getBorrowableAmount()":"6d82f645","getBorrower()":"1cb0c3e7","getDebtAssets()":"ecd658b4","getLoanAsset()":"acf8982e","getManagedAssets()":"80daddb8","getTotalBorrowed()":"0307c4a1","getTotalRepaid()":"58414300","init(bytes)":"4ddf47d4","loanIsClosed()":"77658e80","receiveCallFromVault(bytes)":"e5c23a97","repay(uint256)":"371fd8e6"},"id":148}