{"abi":[{"type":"constructor","inputs":[{"name":"_dispatcher","type":"address","internalType":"address"},{"name":"_implementation","type":"address","internalType":"address"}],"stateMutability":"nonpayable"},{"type":"function","name":"getOwner","inputs":[],"outputs":[{"name":"owner_","type":"address","internalType":"address"}],"stateMutability":"view"},{"type":"function","name":"implementation","inputs":[],"outputs":[{"name":"","type":"address","internalType":"address"}],"stateMutability":"view"},{"type":"function","name":"setImplementation","inputs":[{"name":"_nextImplementation","type":"address","internalType":"address"}],"outputs":[],"stateMutability":"nonpayable"},{"type":"event","name":"ImplementationSet","inputs":[{"name":"implementation","type":"address","indexed":false,"internalType":"address"}],"anonymous":false},{"type":"event","name":"ProxyDeployed","inputs":[{"name":"proxy","type":"address","indexed":false,"internalType":"address"}],"anonymous":false}],"bytecode":{"object":"0x60a060405234801561001057600080fd5b5060405161052a38038061052a83398181016040528101906100329190610110565b8173ffffffffffffffffffffffffffffffffffffffff1660808173ffffffffffffffffffffffffffffffffffffffff1681525050806000806101000a81548173ffffffffffffffffffffffffffffffffffffffff021916908373ffffffffffffffffffffffffffffffffffffffff1602179055505050610150565b600080fd5b600073ffffffffffffffffffffffffffffffffffffffff82169050919050565b60006100dd826100b2565b9050919050565b6100ed816100d2565b81146100f857600080fd5b50565b60008151905061010a816100e4565b92915050565b60008060408385031215610127576101266100ad565b5b6000610135858286016100fb565b9250506020610146858286016100fb565b9150509250929050565b6080516103c061016a600039600060c601526103c06000f3fe608060405234801561001057600080fd5b50600436106100415760003560e01c80635c60da1b14610046578063893d20e814610064578063d784d42614610082575b600080fd5b61004e61009e565b60405161005b9190610288565b60405180910390f35b61006c6100c2565b6040516100799190610288565b60405180910390f35b61009c600480360381019061009791906102d4565b610158565b005b60008054906101000a900473ffffffffffffffffffffffffffffffffffffffff1681565b60007f000000000000000000000000000000000000000000000000000000000000000073ffffffffffffffffffffffffffffffffffffffff1663893d20e86040518163ffffffff1660e01b8152600401602060405180830381865afa15801561012f573d6000803e3d6000fd5b505050506040513d601f19601f820116820180604052508101906101539190610316565b905090565b6101606100c2565b73ffffffffffffffffffffffffffffffffffffffff163373ffffffffffffffffffffffffffffffffffffffff16146101cd576040517f08c379a00000000000000000000000000000000000000000000000000000000081526004016101c4906103a0565b60405180910390fd5b806000806101000a81548173ffffffffffffffffffffffffffffffffffffffff021916908373ffffffffffffffffffffffffffffffffffffffff1602179055507fab64f92ab780ecbf4f3866f57cee465ff36c89450dcce20237ca7a8d81fb7d138160405161023c9190610288565b60405180910390a150565b600073ffffffffffffffffffffffffffffffffffffffff82169050919050565b600061027282610247565b9050919050565b61028281610267565b82525050565b600060208201905061029d6000830184610279565b92915050565b600080fd5b6102b181610267565b81146102bc57600080fd5b50565b6000813590506102ce816102a8565b92915050565b6000602082840312156102ea576102e96102a3565b5b60006102f8848285016102bf565b91505092915050565b600081519050610310816102a8565b92915050565b60006020828403121561032c5761032b6102a3565b5b600061033a84828501610301565b91505092915050565b600082825260208201905092915050565b7f6f6e6c794f776e65720000000000000000000000000000000000000000000000600082015250565b600061038a600983610343565b915061039582610354565b602082019050919050565b600060208201905081810360008301526103b98161037d565b905091905056","linkReferences":{}},"methodIdentifiers":{"getOwner()":"893d20e8","implementation()":"5c60da1b","setImplementation(address)":"d784d426"},"id":88}