{"abi":[{"type":"constructor","inputs":[{"name":"_wethToken","type":"address","internalType":"address"},{"name":"_exitedValidatorEthThreshold","type":"uint256","internalType":"uint256"}],"stateMutability":"nonpayable"},{"type":"function","name":"getDebtAssets","inputs":[],"outputs":[{"name":"assets_","type":"address[]","internalType":"address[]"},{"name":"amounts_","type":"uint256[]","internalType":"uint256[]"}],"stateMutability":"pure"},{"type":"function","name":"getManagedAssets","inputs":[],"outputs":[{"name":"assets_","type":"address[]","internalType":"address[]"},{"name":"amounts_","type":"uint256[]","internalType":"uint256[]"}],"stateMutability":"view"},{"type":"function","name":"getValidatorCount","inputs":[],"outputs":[{"name":"validatorCount_","type":"uint256","internalType":"uint256"}],"stateMutability":"view"},{"type":"function","name":"init","inputs":[{"name":"","type":"bytes","internalType":"bytes"}],"outputs":[],"stateMutability":"nonpayable"},{"type":"function","name":"positionValueIsPaused","inputs":[],"outputs":[{"name":"paused_","type":"bool","internalType":"bool"}],"stateMutability":"view"},{"type":"function","name":"receiveCallFromVault","inputs":[{"name":"_actionData","type":"bytes","internalType":"bytes"}],"outputs":[],"stateMutability":"nonpayable"},{"type":"event","name":"PositionValuePaused","inputs":[],"anonymous":false},{"type":"event","name":"PositionValueUnpaused","inputs":[],"anonymous":false},{"type":"event","name":"ValidatorsAdded","inputs":[{"name":"stakingContractAddress","type":"address","indexed":false,"internalType":"address"},{"name":"validatorAmount","type":"uint256","indexed":false,"internalType":"uint256"}],"anonymous":false},{"type":"event","name":"ValidatorsRemoved","inputs":[{"name":"stakingContractAddress","type":"address","indexed":false,"internalType":"address"},{"name":"validatorAmount","type":"uint256","indexed":false,"internalType":"uint256"}],"anonymous":false}],"bytecode":{"object":"0x60c06040523480156200001157600080fd5b50604051620014b2380380620014b2833981016040819052620000349162000097565b6080526001600160a01b031660a052620000da565b60006001600160a01b0382165b92915050565b620000678162000049565b81146200007357600080fd5b50565b805162000056816200005c565b8062000067565b8051620000568162000083565b60008060408385031215620000af57620000af600080fd5b6000620000bd858562000076565b9250506020620000d0858286016200008a565b9150509250929050565b60805160a05161139d620001156000396000818161014e0152818161029b0152818161046601526104e40152600061073e015261139d6000f3fe608060405234801561001057600080fd5b50600436106100625760003560e01c8063290f126b146100675780634ddf47d4146100835780637071688a1461009657806380daddb8146100a6578063e5c23a97146100bc578063ecd658b4146100cf575b600080fd5b60015460ff1660405161007a9190610b1b565b60405180910390f35b610094610091366004610c24565b50565b005b60005460405161007a9190610c65565b6100ae6100d7565b60405161007a929190610d34565b6100946100ca366004610c24565b6101da565b6060806100ae565b6060806100e660015460ff1690565b1561010c5760405162461bcd60e51b815260040161010390610d9b565b60405180910390fd5b604080516001808252818301909252906020808301908036833750506040805160018082528183019092529294509050602080830190803683370190505090507f00000000000000000000000000000000000000000000000000000000000000008260008151811061018057610180610dab565b60200260200101906001600160a01b031690816001600160a01b0316815250506801bc16d674ec8000006000546101b79190610dd7565b816000815181106101ca576101ca610dab565b6020026020010181815250509091565b600080828060200190518101906101f19190610e8a565b909250905081610209576102048161025b565b505050565b6001820361021a57610204816103ac565b6002820361022a5761020461045f565b6003820361023b576102048161050f565b6004820361024b57610204610583565b60058203610204576102046105dd565b60008061026783610634565b909250905060006102816801bc16d674ec80000083610dd7565b604051632e1a7d4d60e01b81529091506001600160a01b037f00000000000000000000000000000000000000000000000000000000000000001690632e1a7d4d906102d0908490600401610c65565b600060405180830381600087803b1580156102ea57600080fd5b505af11580156102fe573d6000803e3d6000fd5b50505050826001600160a01b031663d0e30db0826040518263ffffffff1660e01b81526004016000604051808303818588803b15801561033d57600080fd5b505af1158015610351573d6000803e3d6000fd5b5050505050816000808282546103679190610ef8565b90915550506040517f68c3ce677c367b7afcaf3a43fd233dbbffb64c69fa9d55962079ad6d3dd93ce89061039e9085908590610f0b565b60405180910390a150505050565b60008060006103ba84610654565b9194509250905060008160028111156103d5576103d5610ee2565b036103e9576103e4838361067b565b610451565b60018160028111156103fd576103fd610ee2565b0361040c576103e48383610711565b600281600281111561042057610420610ee2565b036104395761042f8383610711565b6103e4838361067b565b60405162461bcd60e51b815260040161010390610f69565b61045961045f565b50505050565b60004790507f00000000000000000000000000000000000000000000000000000000000000006001600160a01b031663d0e30db0826040518263ffffffff1660e01b81526004016000604051808303818588803b1580156104bf57600080fd5b505af11580156104d3573d6000803e3d6000fd5b506100919350506001600160a01b037f0000000000000000000000000000000000000000000000000000000000000000169150339050836108cf565b60008061051b836108da565b604051632dac1b7b60e21b815291935091506001600160a01b0383169063b6b06dec9061054c908490600401610fab565b600060405180830381600087803b15801561056657600080fd5b505af115801561057a573d6000803e3d6000fd5b50505050505050565b60015460ff16156105a65760405162461bcd60e51b815260040161010390610ffd565b6001805460ff1916811790556040517f85b12046fa6d629ffce93e60f505f8615fbff886548a5dd68a06fa8f351198b890600090a1565b60015460ff166105ff5760405162461bcd60e51b81526004016101039061104c565b6001805460ff191690556040517fe066d018d05e443eacd0e60c5e6876e7afcae9a9ee7e8d6b45dfdbd5d4ce14cb90600090a1565b6000808280602001905181019061064b9190611070565b91509150915091565b6000606060008380602001905181019061066e919061117b565b9250925092509193909250565b60005b815181101561020457826001600160a01b031663bf509bd48383815181106106a8576106a8610dab565b60200260200101516040518263ffffffff1660e01b81526004016106cc9190610fab565b600060405180830381600087803b1580156106e657600080fd5b505af11580156106fa573d6000803e3d6000fd5b505050508080610709906111e6565b91505061067e565b6000805b825181101561085957600083828151811061073257610732610dab565b602002602001015190507f0000000000000000000000000000000000000000000000000000000000000000856001600160a01b0316631ee13343836040518263ffffffff1660e01b81526004016107899190610fab565b602060405180830381865afa1580156107a6573d6000803e3d6000fd5b505050506040513d601f19601f820116820180604052508101906107ca9190611200565b6001600160a01b031631106107e7576107e4600184610ef8565b92505b604051632ba03a7960e01b81526001600160a01b03861690632ba03a7990610813908490600401610fab565b600060405180830381600087803b15801561082d57600080fd5b505af1158015610841573d6000803e3d6000fd5b50505050508080610851906111e6565b915050610715565b508015610204576108728161086d60005490565b6108f2565b90508015610204578060008082825461088b9190611221565b90915550506040517f854e49581a213ca8a02b980593f9295b0ab88c01084c50267f8d3682fe70fbd6906108c29085908490610f0b565b60405180910390a1505050565b61020483838361090c565b600060608280602001905181019061064b9190611234565b60008183106109015781610903565b825b90505b92915050565b6102048363a9059cbb60e01b848460405160240161092b929190610f0b565b60408051601f198184030181529190526020810180516001600160e01b03166001600160e01b03199093169290921790915260006109b2826040518060400160405280602081526020017f5361666545524332303a206c6f772d6c6576656c2063616c6c206661696c6564815250856001600160a01b03166109ec9092919063ffffffff16565b80519091501561020457808060200190518101906109d09190611269565b6102045760405162461bcd60e51b8152600401610103906112d1565b60606109fb8484600085610a05565b90505b9392505050565b606082471015610a275760405162461bcd60e51b815260040161010390611324565b600080866001600160a01b03168587604051610a439190611356565b60006040518083038185875af1925050503d8060008114610a80576040519150601f19603f3d011682016040523d82523d6000602084013e610a85565b606091505b5091509150610a9687838387610aa3565b925050505b949350505050565b60608315610ae2578251600003610adb576001600160a01b0385163b610adb5760405162461bcd60e51b815260040161010390611362565b5081610a9b565b610a9b8383815115610af75781518083602001fd5b8060405162461bcd60e51b81526004016101039190610fab565b8015155b82525050565b602081016109068284610b11565b634e487b7160e01b600052604160045260246000fd5b601f19601f830116810181811067ffffffffffffffff82111715610b6557610b65610b29565b6040525050565b6000610b7760405190565b9050610b838282610b3f565b919050565b600067ffffffffffffffff821115610ba257610ba2610b29565b601f19601f83011660200192915050565b82818337506000910152565b6000610bd2610bcd84610b88565b610b6c565b905082815260208101848484011115610bed57610bed600080fd5b610bf8848285610bb3565b509392505050565b600082601f830112610c1457610c14600080fd5b8135610a9b848260208601610bbf565b600060208284031215610c3957610c39600080fd5b813567ffffffffffffffff811115610c5357610c53600080fd5b610a9b84828501610c00565b80610b15565b602081016109068284610c5f565b60006001600160a01b038216610906565b610b1581610c73565b6000610c998383610c84565b505060200190565b6000610cab825190565b80845260209384019383018060005b83811015610cdf578151610cce8882610c8d565b975060208301925050600101610cba565b509495945050505050565b6000610c998383610c5f565b6000610d00825190565b80845260209384019383018060005b83811015610cdf578151610d238882610cea565b975060208301925050600101610d0f565b60408082528101610d458185610ca1565b905081810360208301526109fb8184610cf6565b602281526000602082017f6765744d616e616765644173736574733a2056616c756174696f6e2070617573815261195960f21b602082015291505b5060400190565b6020808252810161090681610d59565b634e487b7160e01b600052603260045260246000fd5b634e487b7160e01b600052601160045260246000fd5b818102808215838204851417610def57610def610dc1565b5092915050565b805b811461009157600080fd5b805161090681610df6565b60005b83811015610e29578181015183820152602001610e11565b50506000910152565b6000610e40610bcd84610b88565b905082815260208101848484011115610e5b57610e5b600080fd5b610bf8848285610e0e565b600082601f830112610e7a57610e7a600080fd5b8151610a9b848260208601610e32565b60008060408385031215610ea057610ea0600080fd5b6000610eac8585610e03565b925050602083015167ffffffffffffffff811115610ecc57610ecc600080fd5b610ed885828601610e66565b9150509250929050565b634e487b7160e01b600052602160045260246000fd5b8082018082111561090657610906610dc1565b60408101610f198285610c84565b6109fe6020830184610c5f565b602681526000602082017f5f5f636c61696d466565733a20556e737570706f7274656420636c61696d466581526565207479706560d01b60208201529150610d94565b6020808252810161090681610f26565b6000610f83825190565b808452602084019350610f9a818560208601610e0e565b601f01601f19169290920192915050565b602080825281016109038184610f79565b602481526000602082017f5f5f7061757365506f736974696f6e56616c75653a20416c72656164792070618152631d5cd95960e21b60208201529150610d94565b6020808252810161090681610fbc565b602281526000602082017f5f5f756e7061757365506f736974696f6e56616c75653a204e6f742070617573815261195960f21b60208201529150610d94565b602080825281016109068161100d565b610df881610c73565b80516109068161105c565b6000806040838503121561108657611086600080fd5b60006110928585611065565b9250506020610ed885828601610e03565b600067ffffffffffffffff8211156110bd576110bd610b29565b5060209081020190565b60006110d5610bcd846110a3565b838152905060208082019084028301858111156110f4576110f4600080fd5b835b8181101561113557805167ffffffffffffffff81111561111857611118600080fd5b8086016111258982610e66565b85525050602092830192016110f6565b5050509392505050565b600082601f83011261115357611153600080fd5b8151610a9b8482602086016110c7565b6003811061009157600080fd5b805161090681611163565b60008060006060848603121561119357611193600080fd5b600061119f8686611065565b935050602084015167ffffffffffffffff8111156111bf576111bf600080fd5b6111cb8682870161113f565b92505060406111dc86828701611170565b9150509250925092565b600060001982036111f9576111f9610dc1565b5060010190565b60006020828403121561121557611215600080fd5b6000610a9b8484611065565b8181038181111561090657610906610dc1565b6000806040838503121561124a5761124a600080fd5b6000610eac8585611065565b801515610df8565b805161090681611256565b60006020828403121561127e5761127e600080fd5b6000610a9b848461125e565b602a81526000602082017f5361666545524332303a204552433230206f7065726174696f6e20646964206e8152691bdd081cdd58d8d9595960b21b60208201529150610d94565b602080825281016109068161128a565b602681526000602082017f416464726573733a20696e73756666696369656e742062616c616e636520666f8152651c8818d85b1b60d21b60208201529150610d94565b60208082528101610906816112e1565b600061133e825190565b61134c818560208601610e0e565b9290920192915050565b60006109fe8284611334565b6020808252810161090681601d81527f416464726573733a2063616c6c20746f206e6f6e2d636f6e747261637400000060208201526040019056","linkReferences":{}},"methodIdentifiers":{"getDebtAssets()":"ecd658b4","getManagedAssets()":"80daddb8","getValidatorCount()":"7071688a","init(bytes)":"4ddf47d4","positionValueIsPaused()":"290f126b","receiveCallFromVault(bytes)":"e5c23a97"},"id":114}