{"abi":[{"type":"constructor","inputs":[{"name":"_globalConfigProxy","type":"address","internalType":"address"},{"name":"_wrappedNativeAsset","type":"address","internalType":"address"}],"stateMutability":"nonpayable"},{"type":"receive","stateMutability":"payable"},{"type":"function","name":"addManagers","inputs":[{"name":"_managers","type":"address[]","internalType":"address[]"}],"outputs":[],"stateMutability":"nonpayable"},{"type":"function","name":"allowance","inputs":[{"name":"owner","type":"address","internalType":"address"},{"name":"spender","type":"address","internalType":"address"}],"outputs":[{"name":"","type":"uint256","internalType":"uint256"}],"stateMutability":"view"},{"type":"function","name":"approve","inputs":[{"name":"spender","type":"address","internalType":"address"},{"name":"amount","type":"uint256","internalType":"uint256"}],"outputs":[{"name":"","type":"bool","internalType":"bool"}],"stateMutability":"nonpayable"},{"type":"function","name":"balanceOf","inputs":[{"name":"account","type":"address","internalType":"address"}],"outputs":[{"name":"","type":"uint256","internalType":"uint256"}],"stateMutability":"view"},{"type":"function","name":"calcLatestRedemptionWindow","inputs":[],"outputs":[{"name":"windowStart_","type":"uint256","internalType":"uint256"},{"name":"windowEnd_","type":"uint256","internalType":"uint256"}],"stateMutability":"view"},{"type":"function","name":"cancelRequestDeposit","inputs":[{"name":"_depositAsset","type":"address","internalType":"address"}],"outputs":[],"stateMutability":"nonpayable"},{"type":"function","name":"cancelRequestRedeem","inputs":[],"outputs":[],"stateMutability":"nonpayable"},{"type":"function","name":"decimals","inputs":[],"outputs":[{"name":"decimals_","type":"uint8","internalType":"uint8"}],"stateMutability":"view"},{"type":"function","name":"decreaseAllowance","inputs":[{"name":"spender","type":"address","internalType":"address"},{"name":"subtractedValue","type":"uint256","internalType":"uint256"}],"outputs":[{"name":"","type":"bool","internalType":"bool"}],"stateMutability":"nonpayable"},{"type":"function","name":"deposit","inputs":[{"name":"_depositAsset","type":"address","internalType":"address"},{"name":"_depositAssetAmount","type":"uint256","internalType":"uint256"},{"name":"_minSharesAmount","type":"uint256","internalType":"uint256"}],"outputs":[{"name":"sharesReceived_","type":"uint256","internalType":"uint256"}],"stateMutability":"payable"},{"type":"function","name":"depositAllFromQueue","inputs":[{"name":"_depositAsset","type":"address","internalType":"address"}],"outputs":[{"name":"users_","type":"address[]","internalType":"address[]"},{"name":"userSharesReceived_","type":"uint256[]","internalType":"uint256[]"}],"stateMutability":"nonpayable"},{"type":"function","name":"depositApprovalsAreUsed","inputs":[],"outputs":[{"name":"approvalsUsed_","type":"bool","internalType":"bool"}],"stateMutability":"view"},{"type":"function","name":"depositFromQueue","inputs":[{"name":"_depositAsset","type":"address","internalType":"address"},{"name":"_users","type":"address[]","internalType":"address[]"}],"outputs":[{"name":"userSharesReceived_","type":"uint256[]","internalType":"uint256[]"}],"stateMutability":"nonpayable"},{"type":"function","name":"forceTransfer","inputs":[{"name":"_sender","type":"address","internalType":"address"},{"name":"_recipient","type":"address","internalType":"address"}],"outputs":[{"name":"amount_","type":"uint256","internalType":"uint256"}],"stateMutability":"nonpayable"},{"type":"function","name":"getDepositApproval","inputs":[{"name":"_user","type":"address","internalType":"address"},{"name":"_asset","type":"address","internalType":"address"}],"outputs":[{"name":"amount_","type":"uint256","internalType":"uint256"}],"stateMutability":"view"},{"type":"function","name":"getDepositMode","inputs":[],"outputs":[{"name":"mode_","type":"uint8","internalType":"enum GatedRedemptionQueueSharesWrapperLibBase1.DepositMode"}],"stateMutability":"view"},{"type":"function","name":"getDepositQueueUserRequest","inputs":[{"name":"_depositAsset","type":"address","internalType":"address"},{"name":"_user","type":"address","internalType":"address"}],"outputs":[{"name":"request_","type":"tuple","internalType":"struct GatedRedemptionQueueSharesWrapperLibBase1.DepositRequest","components":[{"name":"index","type":"uint64","internalType":"uint64"},{"name":"assetAmount","type":"uint128","internalType":"uint128"}]}],"stateMutability":"view"},{"type":"function","name":"getDepositQueueUsers","inputs":[{"name":"_depositAsset","type":"address","internalType":"address"}],"outputs":[{"name":"users_","type":"address[]","internalType":"address[]"}],"stateMutability":"view"},{"type":"function","name":"getRedemptionApproval","inputs":[{"name":"_user","type":"address","internalType":"address"}],"outputs":[{"name":"amount_","type":"uint256","internalType":"uint256"}],"stateMutability":"view"},{"type":"function","name":"getRedemptionAsset","inputs":[],"outputs":[{"name":"asset_","type":"address","internalType":"address"}],"stateMutability":"view"},{"type":"function","name":"getRedemptionQueue","inputs":[],"outputs":[{"name":"totalSharesPending_","type":"uint256","internalType":"uint256"},{"name":"relativeSharesAllowed_","type":"uint256","internalType":"uint256"},{"name":"relativeSharesCheckpointed_","type":"uint256","internalType":"uint256"}],"stateMutability":"view"},{"type":"function","name":"getRedemptionQueueUserByIndex","inputs":[{"name":"_index","type":"uint256","internalType":"uint256"}],"outputs":[{"name":"user_","type":"address","internalType":"address"}],"stateMutability":"view"},{"type":"function","name":"getRedemptionQueueUserRequest","inputs":[{"name":"_user","type":"address","internalType":"address"}],"outputs":[{"name":"request_","type":"tuple","internalType":"struct GatedRedemptionQueueSharesWrapperLibBase1.RedemptionRequest","components":[{"name":"index","type":"uint64","internalType":"uint64"},{"name":"lastRedeemed","type":"uint64","internalType":"uint64"},{"name":"sharesPending","type":"uint128","internalType":"uint128"}]}],"stateMutability":"view"},{"type":"function","name":"getRedemptionQueueUsers","inputs":[],"outputs":[{"name":"users_","type":"address[]","internalType":"address[]"}],"stateMutability":"view"},{"type":"function","name":"getRedemptionQueueUsersLength","inputs":[],"outputs":[{"name":"length_","type":"uint256","internalType":"uint256"}],"stateMutability":"view"},{"type":"function","name":"getRedemptionWindowConfig","inputs":[],"outputs":[{"name":"redemptionWindowConfig_","type":"tuple","internalType":"struct GatedRedemptionQueueSharesWrapperLibBase1.RedemptionWindowConfig","components":[{"name":"firstWindowStart","type":"uint64","internalType":"uint64"},{"name":"frequency","type":"uint32","internalType":"uint32"},{"name":"duration","type":"uint32","internalType":"uint32"},{"name":"relativeSharesCap","type":"uint64","internalType":"uint64"}]}],"stateMutability":"view"},{"type":"function","name":"getTransferApproval","inputs":[{"name":"_sender","type":"address","internalType":"address"},{"name":"_recipient","type":"address","internalType":"address"}],"outputs":[{"name":"amount_","type":"uint256","internalType":"uint256"}],"stateMutability":"view"},{"type":"function","name":"getVaultProxy","inputs":[],"outputs":[{"name":"vaultProxy_","type":"address","internalType":"address"}],"stateMutability":"view"},{"type":"function","name":"increaseAllowance","inputs":[{"name":"spender","type":"address","internalType":"address"},{"name":"addedValue","type":"uint256","internalType":"uint256"}],"outputs":[{"name":"","type":"bool","internalType":"bool"}],"stateMutability":"nonpayable"},{"type":"function","name":"init","inputs":[{"name":"_vaultProxy","type":"address","internalType":"address"},{"name":"_managers","type":"address[]","internalType":"address[]"},{"name":"_redemptionAsset","type":"address","internalType":"address"},{"name":"_useDepositApprovals","type":"bool","internalType":"bool"},{"name":"_useRedemptionApprovals","type":"bool","internalType":"bool"},{"name":"_useTransferApprovals","type":"bool","internalType":"bool"},{"name":"_depositMode","type":"uint8","internalType":"enum GatedRedemptionQueueSharesWrapperLibBase1.DepositMode"},{"name":"_windowConfig","type":"tuple","internalType":"struct GatedRedemptionQueueSharesWrapperLibBase1.RedemptionWindowConfig","components":[{"name":"firstWindowStart","type":"uint64","internalType":"uint64"},{"name":"frequency","type":"uint32","internalType":"uint32"},{"name":"duration","type":"uint32","internalType":"uint32"},{"name":"relativeSharesCap","type":"uint64","internalType":"uint64"}]}],"outputs":[],"stateMutability":"nonpayable"},{"type":"function","name":"isManager","inputs":[{"name":"_user","type":"address","internalType":"address"}],"outputs":[{"name":"isManager_","type":"bool","internalType":"bool"}],"stateMutability":"view"},{"type":"function","name":"kick","inputs":[{"name":"_user","type":"address","internalType":"address"}],"outputs":[{"name":"sharesRedeemed_","type":"uint256","internalType":"uint256"}],"stateMutability":"nonpayable"},{"type":"function","name":"name","inputs":[],"outputs":[{"name":"name_","type":"string","internalType":"string"}],"stateMutability":"view"},{"type":"function","name":"redeemFromQueue","inputs":[{"name":"_startIndex","type":"uint256","internalType":"uint256"},{"name":"_endIndex","type":"uint256","internalType":"uint256"}],"outputs":[{"name":"usersRedeemed_","type":"address[]","internalType":"address[]"},{"name":"sharesRedeemed_","type":"uint256[]","internalType":"uint256[]"}],"stateMutability":"nonpayable"},{"type":"function","name":"redemptionApprovalsAreUsed","inputs":[],"outputs":[{"name":"approvalsUsed_","type":"bool","internalType":"bool"}],"stateMutability":"view"},{"type":"function","name":"removeManagers","inputs":[{"name":"_managers","type":"address[]","internalType":"address[]"}],"outputs":[],"stateMutability":"nonpayable"},{"type":"function","name":"requestDeposit","inputs":[{"name":"_depositAsset","type":"address","internalType":"address"},{"name":"_depositAssetAmount","type":"uint256","internalType":"uint256"}],"outputs":[],"stateMutability":"payable"},{"type":"function","name":"requestRedeem","inputs":[{"name":"_sharesAmount","type":"uint256","internalType":"uint256"}],"outputs":[],"stateMutability":"nonpayable"},{"type":"function","name":"setDepositApprovals","inputs":[{"name":"_users","type":"address[]","internalType":"address[]"},{"name":"_assets","type":"address[]","internalType":"address[]"},{"name":"_amounts","type":"uint256[]","internalType":"uint256[]"}],"outputs":[],"stateMutability":"nonpayable"},{"type":"function","name":"setDepositMode","inputs":[{"name":"_mode","type":"uint8","internalType":"enum GatedRedemptionQueueSharesWrapperLibBase1.DepositMode"}],"outputs":[],"stateMutability":"nonpayable"},{"type":"function","name":"setRedemptionApprovals","inputs":[{"name":"_users","type":"address[]","internalType":"address[]"},{"name":"_amounts","type":"uint256[]","internalType":"uint256[]"}],"outputs":[],"stateMutability":"nonpayable"},{"type":"function","name":"setRedemptionAsset","inputs":[{"name":"_nextRedemptionAsset","type":"address","internalType":"address"}],"outputs":[],"stateMutability":"nonpayable"},{"type":"function","name":"setRedemptionWindowConfig","inputs":[{"name":"_nextWindowConfig","type":"tuple","internalType":"struct GatedRedemptionQueueSharesWrapperLibBase1.RedemptionWindowConfig","components":[{"name":"firstWindowStart","type":"uint64","internalType":"uint64"},{"name":"frequency","type":"uint32","internalType":"uint32"},{"name":"duration","type":"uint32","internalType":"uint32"},{"name":"relativeSharesCap","type":"uint64","internalType":"uint64"}]}],"outputs":[],"stateMutability":"nonpayable"},{"type":"function","name":"setTransferApprovals","inputs":[{"name":"_users","type":"address[]","internalType":"address[]"},{"name":"_recipients","type":"address[]","internalType":"address[]"},{"name":"_amounts","type":"uint256[]","internalType":"uint256[]"}],"outputs":[],"stateMutability":"nonpayable"},{"type":"function","name":"setUseDepositApprovals","inputs":[{"name":"_nextUseDepositApprovals","type":"bool","internalType":"bool"}],"outputs":[],"stateMutability":"nonpayable"},{"type":"function","name":"setUseRedemptionApprovals","inputs":[{"name":"_nextUseRedemptionApprovals","type":"bool","internalType":"bool"}],"outputs":[],"stateMutability":"nonpayable"},{"type":"function","name":"setUseTransferApprovals","inputs":[{"name":"_nextUseTransferApprovals","type":"bool","internalType":"bool"}],"outputs":[],"stateMutability":"nonpayable"},{"type":"function","name":"symbol","inputs":[],"outputs":[{"name":"symbol_","type":"string","internalType":"string"}],"stateMutability":"view"},{"type":"function","name":"totalSupply","inputs":[],"outputs":[{"name":"","type":"uint256","internalType":"uint256"}],"stateMutability":"view"},{"type":"function","name":"transfer","inputs":[{"name":"_recipient","type":"address","internalType":"address"},{"name":"_amount","type":"uint256","internalType":"uint256"}],"outputs":[{"name":"success_","type":"bool","internalType":"bool"}],"stateMutability":"nonpayable"},{"type":"function","name":"transferApprovalsAreUsed","inputs":[],"outputs":[{"name":"approvalsUsed_","type":"bool","internalType":"bool"}],"stateMutability":"view"},{"type":"function","name":"transferFrom","inputs":[{"name":"_sender","type":"address","internalType":"address"},{"name":"_recipient","type":"address","internalType":"address"},{"name":"_amount","type":"uint256","internalType":"uint256"}],"outputs":[{"name":"success_","type":"bool","internalType":"bool"}],"stateMutability":"nonpayable"},{"type":"event","name":"Approval","inputs":[{"name":"owner","type":"address","indexed":true,"internalType":"address"},{"name":"spender","type":"address","indexed":true,"internalType":"address"},{"name":"value","type":"uint256","indexed":false,"internalType":"uint256"}],"anonymous":false},{"type":"event","name":"DepositApproval","inputs":[{"name":"user","type":"address","indexed":true,"internalType":"address"},{"name":"asset","type":"address","indexed":true,"internalType":"address"},{"name":"amount","type":"uint256","indexed":false,"internalType":"uint256"}],"anonymous":false},{"type":"event","name":"DepositModeSet","inputs":[{"name":"mode","type":"uint8","indexed":false,"internalType":"enum GatedRedemptionQueueSharesWrapperLibBase1.DepositMode"}],"anonymous":false},{"type":"event","name":"DepositRequestAdded","inputs":[{"name":"user","type":"address","indexed":true,"internalType":"address"},{"name":"depositAsset","type":"address","indexed":true,"internalType":"address"},{"name":"depositAssetAmount","type":"uint256","indexed":false,"internalType":"uint256"}],"anonymous":false},{"type":"event","name":"DepositRequestRemoved","inputs":[{"name":"user","type":"address","indexed":true,"internalType":"address"},{"name":"depositAsset","type":"address","indexed":true,"internalType":"address"}],"anonymous":false},{"type":"event","name":"Deposited","inputs":[{"name":"user","type":"address","indexed":true,"internalType":"address"},{"name":"depositToken","type":"address","indexed":true,"internalType":"address"},{"name":"depositTokenAmount","type":"uint256","indexed":false,"internalType":"uint256"},{"name":"sharesReceived","type":"uint256","indexed":false,"internalType":"uint256"}],"anonymous":false},{"type":"event","name":"Initialized","inputs":[{"name":"vaultProxy","type":"address","indexed":true,"internalType":"address"}],"anonymous":false},{"type":"event","name":"Kicked","inputs":[{"name":"user","type":"address","indexed":true,"internalType":"address"},{"name":"sharesAmount","type":"uint256","indexed":false,"internalType":"uint256"}],"anonymous":false},{"type":"event","name":"ManagerAdded","inputs":[{"name":"user","type":"address","indexed":true,"internalType":"address"}],"anonymous":false},{"type":"event","name":"ManagerRemoved","inputs":[{"name":"user","type":"address","indexed":true,"internalType":"address"}],"anonymous":false},{"type":"event","name":"Redeemed","inputs":[{"name":"user","type":"address","indexed":true,"internalType":"address"},{"name":"sharesAmount","type":"uint256","indexed":false,"internalType":"uint256"},{"name":"redemptionAsset","type":"address","indexed":true,"internalType":"address"},{"name":"redemptionAssetAmount","type":"uint256","indexed":false,"internalType":"uint256"}],"anonymous":false},{"type":"event","name":"RedemptionApproval","inputs":[{"name":"user","type":"address","indexed":true,"internalType":"address"},{"name":"amount","type":"uint256","indexed":false,"internalType":"uint256"}],"anonymous":false},{"type":"event","name":"RedemptionAssetSet","inputs":[{"name":"asset","type":"address","indexed":true,"internalType":"address"}],"anonymous":false},{"type":"event","name":"RedemptionRequestAdded","inputs":[{"name":"user","type":"address","indexed":true,"internalType":"address"},{"name":"sharesAmount","type":"uint256","indexed":false,"internalType":"uint256"}],"anonymous":false},{"type":"event","name":"RedemptionRequestRemoved","inputs":[{"name":"user","type":"address","indexed":true,"internalType":"address"}],"anonymous":false},{"type":"event","name":"RedemptionWindowConfigSet","inputs":[{"name":"firstWindowStart","type":"uint256","indexed":false,"internalType":"uint256"},{"name":"frequency","type":"uint256","indexed":false,"internalType":"uint256"},{"name":"duration","type":"uint256","indexed":false,"internalType":"uint256"},{"name":"relativeSharesCap","type":"uint256","indexed":false,"internalType":"uint256"}],"anonymous":false},{"type":"event","name":"Transfer","inputs":[{"name":"from","type":"address","indexed":true,"internalType":"address"},{"name":"to","type":"address","indexed":true,"internalType":"address"},{"name":"value","type":"uint256","indexed":false,"internalType":"uint256"}],"anonymous":false},{"type":"event","name":"TransferApproval","inputs":[{"name":"sender","type":"address","indexed":true,"internalType":"address"},{"name":"recipient","type":"address","indexed":true,"internalType":"address"},{"name":"amount","type":"uint256","indexed":false,"internalType":"uint256"}],"anonymous":false},{"type":"event","name":"TransferForced","inputs":[{"name":"sender","type":"address","indexed":true,"internalType":"address"},{"name":"recipient","type":"address","indexed":true,"internalType":"address"},{"name":"amount","type":"uint256","indexed":false,"internalType":"uint256"}],"anonymous":false},{"type":"event","name":"UseDepositApprovalsSet","inputs":[{"name":"useApprovals","type":"bool","indexed":false,"internalType":"bool"}],"anonymous":false},{"type":"event","name":"UseRedemptionApprovalsSet","inputs":[{"name":"useApprovals","type":"bool","indexed":false,"internalType":"bool"}],"anonymous":false},{"type":"event","name":"UseTransferApprovalsSet","inputs":[{"name":"useApprovals","type":"bool","indexed":false,"internalType":"bool"}],"anonymous":false}],"bytecode":{"object":"0x60e06040523480156200001157600080fd5b506040516200617138038062006171833981016040819052620000349162000199565b604080518082018252601981527f5772617070656420456e7a796d6520536861726573204c6962000000000000006020808301918252835180850190945260098452683ba2a72d2316b634b160b91b9084015281519192916200009a91600391620000ea565b508051620000b0906004906020840190620000ea565b50506005805460ff191660121790555060016006556001600160601b0319606092831b811660805230831b60a052911b1660c05262000204565b828054600181600116156101000203166002900490600052602060002090601f016020900481019282601f106200012d57805160ff19168380011785556200015d565b828001600101855582156200015d579182015b828111156200015d57825182559160200191906001019062000140565b506200016b9291506200016f565b5090565b5b808211156200016b576000815560010162000170565b80516200019381620001ea565b92915050565b60008060408385031215620001ad57600080fd5b6000620001bb858562000186565b9250506020620001ce8582860162000186565b9150509250929050565b60006001600160a01b03821662000193565b620001f581620001d8565b81146200020157600080fd5b50565b60805160601c60a05160601c60c05160601c615f0f6200026260003980610d3b5280610da1528061219252806122e2528061299f52806129df5280613bc052508061099752806118f5525080612ba45280613be65250615f0f6000f3fe6080604052600436106103035760003560e01c806370a0823111610190578063aa2f892d116100dc578063cea6a0ee11610095578063f3ae24151161006f578063f3ae241514610913578063f56f2a9014610933578063f7cb895214610953578063fd71b12b146109685761030a565b8063cea6a0ee146108af578063dd62ed3e146108d3578063dd62f839146108f35761030a565b8063aa2f892d146107f8578063b35e832514610818578063b3cb06c31461083a578063b9a3abdb1461085a578063c98091871461087a578063ca4ca8fa1461088f5761030a565b80638f958f71116101495780639a8fea95116101235780639a8fea9514610776578063a457c2d71461078b578063a8e5eeb1146107ab578063a9059cbb146107d85761030a565b80638f958f711461072c57806395d89b411461074157806396c55175146107565761030a565b806370a082311461066a5780637ba069311461068a5780637cb4f020146106aa5780638530503e146106bf5780638c5f9e74146106ec5780638d1d24da1461070c5761030a565b8063313ce5671161024f578063469df1171161020857806358205209116101e257806358205209146105fd57806361791f27146106125780636753c159146106355780636829bda7146106555761030a565b8063469df117146105aa5780634d947471146105ca5780635696bdae146105ea5761030a565b8063313ce567146104e6578063318f98aa1461050857806334c945061461053557806338f1917d146105555780633950935114610575578063447d7e19146105955761030a565b806315fd7a52116102bc5780632424877511610296578063242487751461044b5780632bfebfdb1461046b5780632f21802f146104985780632f63221d146104c65761030a565b806315fd7a52146103f657806318160ddd1461041657806323b872dd1461042b5761030a565b806306fdde031461030f578063095ea7b31461033a57806309f8ca5c146103675780630d34e23f146103895780630efe6a8b146103b657806310f3ee29146103d65761030a565b3661030a57005b600080fd5b34801561031b57600080fd5b5061032461098a565b6040516103319190615926565b60405180910390f35b34801561034657600080fd5b5061035a6103553660046145d6565b610a6d565b604051610331919061590a565b34801561037357600080fd5b50610387610382366004614813565b610a8b565b005b34801561039557600080fd5b506103a96103a43660046143ba565b610aad565b60405161033191906158c3565b6103c96103c4366004614606565b610b27565b6040516103319190615c61565b3480156103e257600080fd5b506103876103f1366004614638565b610c27565b34801561040257600080fd5b50610387610411366004614785565b610cd8565b34801561042257600080fd5b506103c9610ce9565b34801561043757600080fd5b5061035a610446366004614430565b610cef565b34801561045757600080fd5b506103876104663660046143ba565b610d11565b34801561047757600080fd5b5061048b6104863660046143f6565b610e2b565b6040516103319190615c37565b3480156104a457600080fd5b506104b86104b33660046143ba565b610e88565b6040516103319291906158d4565b3480156104d257600080fd5b506103c96104e13660046143f6565b610fc0565b3480156104f257600080fd5b506104fb610feb565b6040516103319190615cd6565b34801561051457600080fd5b5061052861052336600461484f565b610ff0565b60405161033191906157ef565b34801561054157600080fd5b50610387610550366004614679565b61101d565b34801561056157600080fd5b506103c96105703660046143ba565b61119d565b34801561058157600080fd5b5061035a6105903660046145d6565b6111b8565b3480156105a157600080fd5b506103a961120b565b3480156105b657600080fd5b506103876105c5366004614679565b611270565b3480156105d657600080fd5b506103876105e5366004614785565b6113e7565b6103876105f83660046145d6565b6113f8565b34801561060957600080fd5b5061038761158b565b34801561061e57600080fd5b5061062761166b565b604051610331929190615c6f565b34801561064157600080fd5b506103c96106503660046143f6565b611744565b34801561066157600080fd5b5061052861176f565b34801561067657600080fd5b506103c96106853660046143ba565b61177e565b34801561069657600080fd5b506103876106a53660046143ba565b611799565b3480156106b657600080fd5b506103c96117aa565b3480156106cb57600080fd5b506106df6106da366004614548565b6117b0565b60405161033191906158f9565b3480156106f857600080fd5b50610387610707366004614638565b6117bc565b34801561071857600080fd5b50610387610727366004614717565b6117d2565b34801561073857600080fd5b5061035a6118d8565b34801561074d57600080fd5b506103246118e8565b34801561076257600080fd5b506103c96107713660046143ba565b6119af565b34801561078257600080fd5b5061035a611a6a565b34801561079757600080fd5b5061035a6107a63660046145d6565b611a7a565b3480156107b757600080fd5b506107cb6107c63660046143ba565b611ae2565b6040516103319190615c45565b3480156107e457600080fd5b5061035a6107f33660046145d6565b611b47565b34801561080457600080fd5b5061038761081336600461484f565b611b5e565b34801561082457600080fd5b5061082d611d58565b6040516103319190615918565b34801561084657600080fd5b506103c96108553660046143f6565b611d68565b34801561086657600080fd5b50610387610875366004614785565b611de2565b34801561088657600080fd5b50610528611df3565b34801561089b57600080fd5b506104b86108aa36600461488b565b611e02565b3480156108bb57600080fd5b506108c4612479565b60405161033193929190615c7d565b3480156108df57600080fd5b506103c96108ee3660046143f6565b6124a4565b3480156108ff57600080fd5b5061038761090e3660046147c1565b6124cf565b34801561091f57600080fd5b5061035a61092e3660046143ba565b6124e0565b34801561093f57600080fd5b5061038761094e36600461447d565b6124fe565b34801561095f57600080fd5b5061035a6125ca565b34801561097457600080fd5b5061097d6125da565b6040516103319190615c53565b6060306001600160a01b037f00000000000000000000000000000000000000000000000000000000000000001614156109cc576109c5612631565b9050610a6a565b6109d4611df3565b6001600160a01b03166306fdde036040518163ffffffff1660e01b815260040160006040518083038186803b158015610a0c57600080fd5b505afa158015610a20573d6000803e3d6000fd5b505050506040513d6000823e601f3d908101601f19168201604052610a4891908101906147df565b604051602001610a5891906157e4565b60405160208183030381529060405290505b90565b6000610a81610a7a6126be565b84846126c2565b5060015b92915050565b610a93612776565b610aaa610aa536839003830183614831565b61278d565b50565b6001600160a01b038116600090815260096020908152604091829020600101805483518184028101840190945280845260609392830182828015610b1a57602002820191906000526020600020905b81546001600160a01b03168152600190910190602001808311610afc575b505050505090505b919050565b600060026006541415610b555760405162461bcd60e51b8152600401610b4c90615be7565b60405180910390fd5b60026006556000610b64611d58565b6001811115610b6f57fe5b14610b8c5760405162461bcd60e51b8152600401610b4c90615b37565b610b968484612975565b9350610ba28484612afa565b905081811015610bc45760405162461bcd60e51b8152600401610b4c90615aa7565b610bce3382612d32565b836001600160a01b0316336001600160a01b03167ff5681f9d0db1b911ac18ee83d515a1cf1051853a9eae418316a2fdf7dea427c58584604051610c13929190615c6f565b60405180910390a360016006559392505050565b610c2f612df2565b60005b81811015610cd3576000838383818110610c4857fe5b9050602002016020810190610c5d91906143ba565b9050610c68816124e0565b610c845760405162461bcd60e51b8152600401610b4c90615987565b6001600160a01b0381166000818152600e6020526040808220805460ff19169055517fef69f7d97228658c92417be1b16b19058315de71fecb435d07b7d23728b6bd319190a250600101610c32565b505050565b610ce0612776565b610aaa81612e9a565b60025490565b6000610cfc848484612eec565b610d07848484612fb3565b90505b9392505050565b60006001600160a01b03821673eeeeeeeeeeeeeeeeeeeeeeeeeeeeeeeeeeeeeeee1415610d5f57507f0000000000000000000000000000000000000000000000000000000000000000905060015b6000610d6b8333610e2b565b602001516001600160801b03169050610d843384613035565b8115610e1757604051632e1a7d4d60e01b81526001600160a01b037f00000000000000000000000000000000000000000000000000000000000000001690632e1a7d4d90610dd6908490600401615c61565b600060405180830381600087803b158015610df057600080fd5b505af1158015610e04573d6000803e3d6000fd5b50505050610e1233826131e5565b610cd3565b610cd36001600160a01b0384163383613281565b610e33614149565b506001600160a01b0391821660009081526009602090815260408083209390941682529182528290208251808401909352546001600160401b0381168352600160401b90046001600160801b03169082015290565b606080610e93614160565b6001600160a01b0384166000908152600960209081526040918290208251600182018054808502830186018652938201848152919492938593840182828015610f0557602002820191906000526020600020905b81546001600160a01b03168152600190910190602001808311610ee7575b5050509190925250508151519192508190506001600160401b0381118015610f2c57600080fd5b50604051908082528060200260200182016040528015610f56578160200160208202803683370190505b50935060005b81811015610fac578251805182840360001901908110610f7857fe5b6020026020010151858281518110610f8c57fe5b6001600160a01b0390921660209283029190910190910152600101610f5c565b50610fb785856132d7565b92505050915091565b6001600160a01b039182166000908152600f6020908152604080832093909416825291909152205490565b601290565b6000600a600201828154811061100257fe5b6000918252602090912001546001600160a01b031692915050565b611025612776565b848314801561103357508481145b61104f5760405162461bcd60e51b8152600401610b4c90615b77565b60005b858110156111945782828281811061106657fe5b90506020020135600f600089898581811061107d57fe5b905060200201602081019061109291906143ba565b6001600160a01b03166001600160a01b0316815260200190815260200160002060008787858181106110c057fe5b90506020020160208101906110d591906143ba565b6001600160a01b031681526020810191909152604001600020558484828181106110fb57fe5b905060200201602081019061111091906143ba565b6001600160a01b031687878381811061112557fe5b905060200201602081019061113a91906143ba565b6001600160a01b03167f4dae074c756df580211e8a4d151b1943c628014581d922bca6f1ed34971da8f785858581811061117057fe5b905060200201356040516111849190615c61565b60405180910390a3600101611052565b50505050505050565b6001600160a01b031660009081526011602052604090205490565b6000610a816111c56126be565b8461120685600160006111d66126be565b6001600160a01b03908116825260208083019390935260409182016000908120918c16815292529020549061351f565b6126c2565b6060600a60020180548060200260200160405190810160405280929190818152602001828054801561126657602002820191906000526020600020905b81546001600160a01b03168152600190910190602001808311611248575b5050505050905090565b611278612776565b848314801561128657508481145b6112a25760405162461bcd60e51b8152600401610b4c90615ba7565b60005b85811015611194578282828181106112b957fe5b90506020020135601060008989858181106112d057fe5b90506020020160208101906112e591906143ba565b6001600160a01b03166001600160a01b03168152602001908152602001600020600087878581811061131357fe5b905060200201602081019061132891906143ba565b6001600160a01b0316815260208101919091526040016000205584848281811061134e57fe5b905060200201602081019061136391906143ba565b6001600160a01b031687878381811061137857fe5b905060200201602081019061138d91906143ba565b6001600160a01b03167fd87fddc704b730421c81d78c453e00a9fce9becb5d1bac170929a72880a7115e8585858181106113c357fe5b905060200201356040516113d79190615c61565b60405180910390a36001016112a5565b6113ef612776565b610aaa81613544565b6001611402611d58565b600181111561140d57fe5b1461142a5760405162461bcd60e51b8152600401610b4c90615a17565b6000811161144a5760405162461bcd60e51b8152600401610b4c90615bb7565b6114548282612975565b6001600160a01b038116600090815260096020908152604080832033845291829052822080549395509092909190600160401b90046001600160801b0316156114ba5781546114b390600160401b90046001600160801b03168561351f565b9050611502565b506001808301805483546001600160401b0390911667ffffffffffffffff19909116178355805491820181556000908152602090200180546001600160a01b03191633179055825b61150b8161358b565b82546001600160801b0391909116600160401b0277ffffffffffffffffffffffffffffffff0000000000000000199091161782556040516001600160a01b0386169033907f2ab2579088ff15202416579ce6818ab68f5b1aaeec1ae3a049495ffae2e4d2959061157c908890615c61565b60405180910390a35050505050565b600260065414156115ae5760405162461bcd60e51b8152600401610b4c90615be7565b60026006556115bc426135b4565b156115d95760405162461bcd60e51b8152600401610b4c90615af7565b336000908152600b6020526040902054600a90600160801b90046001600160801b0316806116195760405162461bcd60e51b8152600401610b4c906159a7565b815461163790611632906001600160801b0316836135ec565b61358b565b82546001600160801b0319166001600160801b03919091161782556002820154611662903390613614565b50506001600655565b600080611676614173565b61167e6125da565b80519091506001600160401b03164210806116a1575080516001600160401b0316155b156116b3576000809250925050611740565b60006116e9826020015163ffffffff166116e384600001516001600160401b0316426135ec90919063ffffffff16565b9061375c565b905061171c61170b836020015163ffffffff168361378e90919063ffffffff16565b83516001600160401b03169061351f565b935061173b826040015163ffffffff168561351f90919063ffffffff16565b925050505b9091565b6001600160a01b03918216600090815260106020908152604080832093909416825291909152205490565b6008546001600160a01b031690565b6001600160a01b031660009081526020819052604090205490565b6117a1612776565b610aaa816137c8565b600c5490565b6060610d0a83836132d7565b6117c4612df2565b6117ce8282613838565b5050565b6117da612776565b8281146117f95760405162461bcd60e51b8152600401610b4c90615ae7565b60005b838110156118d15782828281811061181057fe5b905060200201356011600087878581811061182757fe5b905060200201602081019061183c91906143ba565b6001600160a01b0316815260208101919091526040016000205584848281811061186257fe5b905060200201602081019061187791906143ba565b6001600160a01b03167f86a006418c5abeb0342afa5645c469058b419458005b407f04edf930d35650478484848181106118ad57fe5b905060200201356040516118c19190615c61565b60405180910390a26001016117fc565b5050505050565b600754600160b01b900460ff1690565b6060306001600160a01b037f0000000000000000000000000000000000000000000000000000000000000000161415611923576109c56138e0565b61192b611df3565b6001600160a01b03166395d89b416040518163ffffffff1660e01b815260040160006040518083038186803b15801561196357600080fd5b505afa158015611977573d6000803e3d6000fd5b505050506040513d6000823e601f3d908101601f1916820160405261199f91908101906147df565b604051602001610a5891906157c2565b6000600260065414156119d45760405162461bcd60e51b8152600401610b4c90615be7565b60026006556119e1612776565b6119ea426135b4565b156119f7576119f7613941565b611a0082613a40565b611a098261177e565b9050611a158282613ab6565b611a1f8282613b8c565b816001600160a01b03167f8684348ed72cd103be12fcb99e9c5917294a8092ccd4808d1cd7b19daf98299182604051611a589190615c61565b60405180910390a26001600655919050565b600754600160a81b900460ff1690565b6000610a81611a876126be565b8461120685604051806060016040528060258152602001615ede6025913960016000611ab16126be565b6001600160a01b03908116825260208083019390935260409182016000908120918d16815292529020549190613cb4565b611aea61419a565b506001600160a01b03166000908152600b6020908152604091829020825160608101845290546001600160401b038082168352600160401b82041692820192909252600160801b9091046001600160801b03169181019190915290565b6000611b54338484612eec565b610d0a8383613ce0565b60026006541415611b815760405162461bcd60e51b8152600401610b4c90615be7565b6002600655611b8f426135b4565b15611bac5760405162461bcd60e51b8152600401610b4c90615c27565b611bb46118d8565b15611c02576000611bc43361119d565b90506000198114611c005780821115611bef5760405162461bcd60e51b8152600401610b4c906159f7565b336000908152601160205260408120555b505b336000908152600b60205260408120600a8054909290611c2b906001600160801b03168561351f565b8254909150600090611c4d90600160801b90046001600160801b03168661351f565b9050611c583361177e565b811115611c775760405162461bcd60e51b8152600401610b4c90615957565b611c808261358b565b84546001600160801b0319166001600160801b0391909116178455611ca48161358b565b83546001600160801b03918216600160801b02911617835584811415611d0b5760028401805484546001600160401b0390911667ffffffffffffffff199091161784558054600181018255600091825260209091200180546001600160a01b031916331790555b336001600160a01b03167f8442da065c568ee5c2d856b7d959cdc982160318607425e37fa33ae08e0a1ff986604051611d449190615c61565b60405180910390a250506001600655505050565b600754600160a01b900460ff1690565b6000611d72612df2565b611d7b83613a40565b611d848361177e565b9050611d91838383613cf0565b816001600160a01b0316836001600160a01b03167fad34dd289188ac4213b22096c7feeb1acec84f81893c94c0478f6b1464d6832883604051611dd49190615c61565b60405180910390a392915050565b611dea612776565b610aaa81613e05565b6007546001600160a01b031690565b60608060026006541415611e285760405162461bcd60e51b8152600401610b4c90615be7565b6002600655611e35612776565b600080611e4061166b565b91509150611e4f428383613e4c565b611e6b5760405162461bcd60e51b8152600401610b4c906159c7565b600c54600a90600019871415611e82576001810396505b808710611ea15760405162461bcd60e51b8152600401610b4c906159b7565b86881115611ec15760405162461bcd60e51b8152600401610b4c90615a97565b611ec9613941565b8154670de0b6b3a76400006001600160401b03600160801b9092048216109060009060018b8b030190819081118015611f0157600080fd5b50604051908082528060200260200182016040528015611f2b578160200160208202803683370190505b509850806001600160401b0381118015611f4457600080fd5b50604051908082528060200260200182016040528015611f6e578160200160208202803683370190505b509750895b8115612124576000866002018281548110611f8a57fe5b60009182526020808320909101546001600160a01b031680835260018a019091526040909120805491925090611fd2906001600160401b03600160401b909104168b8b613e4c565b15611fef5760405162461bcd60e51b8152600401610b4c90615b27565b6000861561208b5781548954600160801b918290046001600160801b031691670de0b6b3a76400009161202d918491046001600160401b031661378e565b8161203457fe5b04915061204461163282846135ec565b83546001600160401b034216600160401b026fffffffffffffffff0000000000000000196001600160801b03938416600160801b02939092169290921716178355506120b0565b508054600160801b90046001600160801b03166120a88389613614565b600019909701965b6120ba8382613ab6565b848060019003955050828d86815181106120d057fe5b60200260200101906001600160a01b031690816001600160a01b031681525050808c86815181106120fd57fe5b6020908102919091010152612112868261351f565b9550506000199092019150611f739050565b50845461213e90611632906001600160801b0316846135ec565b85546001600160801b0319166001600160801b039190911617855560008061216461176f565b90506001600160a01b03811673eeeeeeeeeeeeeeeeeeeeeeeeeeeeeeeeeeeeeeee14156121b25750600190507f00000000000000000000000000000000000000000000000000000000000000005b6040516370a0823160e01b81526000906001600160a01b038316906370a08231906121e19030906004016157fd565b60206040518083038186803b1580156121f957600080fd5b505afa15801561220d573d6000803e3d6000fd5b505050506040513d601f19601f82011682018060405250810190612231919061486d565b905061223d3086613b8c565b6122c381836001600160a01b03166370a08231306040518263ffffffff1660e01b815260040161226d91906157fd565b60206040518083038186803b15801561228557600080fd5b505afa158015612299573d6000803e3d6000fd5b505050506040513d601f19601f820116820180604052508101906122bd919061486d565b906135ec565b9050821561234a57604051632e1a7d4d60e01b81526001600160a01b037f00000000000000000000000000000000000000000000000000000000000000001690632e1a7d4d90612317908490600401615c61565b600060405180830381600087803b15801561233157600080fd5b505af1158015612345573d6000803e3d6000fd5b505050505b60005b8c51811015612460576000612382876116e38f858151811061236b57fe5b60200260200101518661378e90919063ffffffff16565b905084156123ac576123a78e838151811061239957fe5b6020026020010151826131e5565b6123dd565b6123dd8e83815181106123bb57fe5b602002602001015182866001600160a01b03166132819092919063ffffffff16565b6123e561176f565b6001600160a01b03168e83815181106123fa57fe5b60200260200101516001600160a01b03167f9bcd01273db9e6cb09d97dc078fdda04f3812029365f21e09e2d77c4600f98f98f858151811061243857fe5b60200260200101518460405161244f929190615c6f565b60405180910390a35060010161234d565b5050505050505050505050600160065590939092509050565b600a546001600160801b038116916001600160401b03600160801b8304811692600160c01b90041690565b6001600160a01b03918216600090815260016020908152604080832093909416825291909152205490565b6124d7612776565b610aaa81613e63565b6001600160a01b03166000908152600e602052604090205460ff1690565b6007546001600160a01b0316156125275760405162461bcd60e51b8152600401610b4c90615b07565b600780546001600160a01b0319166001600160a01b038b1617905561254c8888613838565b612555866137c8565b61255e85613e05565b61256784613544565b61257083612e9a565b61257982613e63565b61258b610aa536839003830183614831565b6040516001600160a01b038a16907f908408e307fc569b417f6cbec5d5a06f44a0a505ac0479b47d421a4b2fd6a1e690600090a2505050505050505050565b600754600160b81b900460ff1690565b6125e2614173565b5060408051608081018252600d546001600160401b03808216835263ffffffff600160401b830481166020850152600160601b83041693830193909352600160801b9004909116606082015290565b60038054604080516020601f60026000196101006001881615020190951694909404938401819004810282018101909252828152606093909290918301828280156112665780601f1061269257610100808354040283529160200191611266565b820191906000526020600020905b8154815290600101906020018083116126a057509395945050505050565b3390565b6001600160a01b0383166126e85760405162461bcd60e51b8152600401610b4c90615b57565b6001600160a01b03821661270e5760405162461bcd60e51b8152600401610b4c90615977565b6001600160a01b0380841660008181526001602090815260408083209487168084529490915290819020849055517f8c5be1e5ebec7d5bd14f71427d1e84f3dd0314c0f7b2291e5b200ac8c7c3b92590612769908590615c61565b60405180910390a3505050565b61277f336124e0565b61278b5761278b612df2565b565b80516001600160401b03161580156127ad5750604081015163ffffffff16155b80156127c15750602081015163ffffffff16155b80156127d8575060608101516001600160401b0316155b61289a574281600001516001600160401b0316116128085760405162461bcd60e51b8152600401610b4c90615b97565b6000816040015163ffffffff16116128325760405162461bcd60e51b8152600401610b4c90615ac7565b806040015163ffffffff16816020015163ffffffff16116128655760405162461bcd60e51b8152600401610b4c90615a27565b670de0b6b3a764000081606001516001600160401b0316111561289a5760405162461bcd60e51b8152600401610b4c90615a07565b8051600d80546020840151604080860151606087015167ffffffffffffffff199094166001600160401b03808816919091176bffffffff00000000000000001916600160401b63ffffffff808716919091029190911763ffffffff60601b1916600160601b918416919091021767ffffffffffffffff60801b1916600160801b9186169190910217909455600a80546001600160801b03168155905190947f2b031552c22336dc4af5bd89436b409d517289ddd34cfc8e4e1543dc4235e6519461296994919392909190615c98565b60405180910390a15050565b60006001600160a01b03831673eeeeeeeeeeeeeeeeeeeeeeeeeeeeeeeeeeeeeeee1415612a5657507f00000000000000000000000000000000000000000000000000000000000000003482146129dd5760405162461bcd60e51b8152600401610b4c90615997565b7f00000000000000000000000000000000000000000000000000000000000000006001600160a01b031663d0e30db0836040518263ffffffff1660e01b81526004016000604051808303818588803b158015612a3857600080fd5b505af1158015612a4c573d6000803e3d6000fd5b5050505050612a8b565b3415612a745760405162461bcd60e51b8152600401610b4c90615bd7565b5081612a8b6001600160a01b038216333085613eb6565b612a93611a6a565b15610a85576000612aa43383610fc0565b90506000198114612af357828114612ace5760405162461bcd60e51b8152600401610b4c906159e7565b336000908152600f602090815260408083206001600160a01b03861684529091528120555b5092915050565b6000612b05426135b4565b15612b1257612b12613941565b6000612b1c611df3565b90506000816001600160a01b03166370a08231306040518263ffffffff1660e01b8152600401612b4c91906157fd565b60206040518083038186803b158015612b6457600080fd5b505afa158015612b78573d6000803e3d6000fd5b505050506040513d601f19601f82011682018060405250810190612b9c919061486d565b9050600060607f00000000000000000000000000000000000000000000000000000000000000006001600160a01b0316637f1804338589896040518463ffffffff1660e01b8152600401612bf293929190615880565b60006040518083038186803b158015612c0a57600080fd5b505afa158015612c1e573d6000803e3d6000fd5b505050506040513d6000823e601f3d908101601f19168201604052612c46919081019061458f565b604051636eb1769f60e11b815291935091506001600160a01b0388169063dd62ed3e90612c79903090869060040161580b565b60206040518083038186803b158015612c9157600080fd5b505afa158015612ca5573d6000803e3d6000fd5b505050506040513d601f19601f82011682018060405250810190612cc9919061486d565b612ce357612ce36001600160a01b03881683600019613ed7565b612cf66001600160a01b03831682613f9a565b50612d2783856001600160a01b03166370a08231306040518263ffffffff1660e01b815260040161226d91906157fd565b979650505050505050565b6001600160a01b038216612d585760405162461bcd60e51b8152600401610b4c90615c17565b612d6460008383610cd3565b600254612d71908261351f565b6002556001600160a01b038216600090815260208190526040902054612d97908261351f565b6001600160a01b0383166000818152602081905260408082209390935591519091907fddf252ad1be2c89b69c2b068fc378daa952ba7f163c4a11628f55a4df523b3ef90612de6908590615c61565b60405180910390a35050565b612dfa611df3565b6001600160a01b031663893d20e86040518163ffffffff1660e01b815260040160206040518083038186803b158015612e3257600080fd5b505afa158015612e46573d6000803e3d6000fd5b505050506040513d601f19601f82011682018060405250810190612e6a91906143d8565b6001600160a01b0316336001600160a01b03161461278b5760405162461bcd60e51b8152600401610b4c90615967565b6007805460ff60b81b1916600160b81b831515021790556040517f64e7f780e6e1129031b8bdd0e74a6718620d8dac82a40fd17743c71249bc019390612ee190839061590a565b60405180910390a150565b6001600160a01b0383166000908152600b6020526040902054612f2290600160801b90046001600160801b03166122bd8561177e565b811115612f415760405162461bcd60e51b8152600401610b4c90615a47565b612f496125ca565b15610cd3576000612f5a8484611744565b90506000198114612fad57818114612f845760405162461bcd60e51b8152600401610b4c90615b87565b6001600160a01b0380851660009081526010602090815260408083209387168352929052908120555b50505050565b6000612fc0848484613cf0565b61302b84612fcc6126be565b61120685604051806060016040528060288152602001615eb6602891396001600160a01b038a1660009081526001602052604081209061300a6126be565b6001600160a01b031681526020810191909152604001600020549190613cb4565b5060019392505050565b6001600160a01b038181166000908152600960209081526040808320938616835290839052902054600160401b90046001600160801b03166130895760405162461bcd60e51b8152600401610b4c90615c07565b6001600160a01b03831660009081526020829052604090205460018201546001600160401b0390911690600019810182101561314f5760008360010160018303815481106130d357fe5b6000918252602090912001546001850180546001600160a01b0390921692508291859081106130fe57fe5b600091825260208083209190910180546001600160a01b0319166001600160a01b039485161790559290911681529084905260409020805467ffffffffffffffff19166001600160401b0384161790555b6001600160a01b038516600090815260208490526040902080546001600160c01b03191690556001830180548061318257fe5b600082815260208120820160001990810180546001600160a01b03191690559091019091556040516001600160a01b0386811692908816917fb09a3ffb29f49c75375c2d249da8a12a1ceaebfe650e0bdaae4992cbd631f4e69190a35050505050565b804710156132055760405162461bcd60e51b8152600401610b4c90615a77565b6000826001600160a01b03168260405161321e906157d9565b60006040518083038185875af1925050503d806000811461325b576040519150601f19603f3d011682016040523d82523d6000602084013e613260565b606091505b5050905080610cd35760405162461bcd60e51b8152600401610b4c90615a67565b610cd38363a9059cbb60e01b84846040516024016132a09291906158a8565b60408051601f198184030181529190526020810180516001600160e01b03166001600160e01b031990931692909217909152613fdc565b6060600260065414156132fc5760405162461bcd60e51b8152600401610b4c90615be7565b6002600655613309612776565b81516060816001600160401b038111801561332357600080fd5b5060405190808252806020026020018201604052801561334d578160200160208202803683370190505b509050816001600160401b038111801561336657600080fd5b50604051908082528060200260200182016040528015613390578160200160208202803683370190505b5092506000805b8381101561342e5760008682815181106133ad57fe5b6020908102919091018101516001600160a01b038a81166000908152600984526040808220928416825291909352909120548551919250600160401b90046001600160801b031690819086908590811061340357fe5b6020908102919091010152613418848261351f565b9350613424828a613035565b5050600101613397565b50600061343b8783612afa565b905060005b865181101561350f57600087828151811061345757fe5b60200260200101519050600085838151811061346f57fe5b602002602001015190506000613492866116e3848861378e90919063ffffffff16565b9050808985815181106134a157fe5b6020026020010181815250506134b78382612d32565b8a6001600160a01b0316836001600160a01b03167ff5681f9d0db1b911ac18ee83d515a1cf1051853a9eae418316a2fdf7dea427c584846040516134fc929190615c6f565b60405180910390a3505050600101613440565b5050505050600160065592915050565b600082820183811015610d0a5760405162461bcd60e51b8152600401610b4c906159d7565b6007805460ff60b01b1916600160b01b831515021790556040517fd281e56a7f217bdcf7035d71951c03cd2ad9bb04f3b3388c53fa2f85dcb7245e90612ee190839061590a565b6000600160801b82106135b05760405162461bcd60e51b8152600401610b4c90615a37565b5090565b60008060006135c161166b565b9150915081600014156135d957600092505050610b22565b6135e4848383613e4c565b949350505050565b60008282111561360e5760405162461bcd60e51b8152600401610b4c90615a57565b50900390565b6001600160a01b0382166000908152600b6020526040902054600a906001600160401b031660001983018110156136d857600082600201600185038154811061365957fe5b6000918252602090912001546002840180546001600160a01b03909216925082918490811061368457fe5b600091825260208083209190910180546001600160a01b0319166001600160a01b039485161790559290911681526001840190915260409020805467ffffffffffffffff19166001600160401b0383161790555b6001600160a01b03841660009081526001830160205260408120556002820180548061370057fe5b600082815260208120820160001990810180546001600160a01b03191690559091019091556040516001600160a01b038616917f328fa7077ce5de1ca1520bbd7c37ef13c017de42d86cd7053c06fffaa1c5187a91a250505050565b600080821161377d5760405162461bcd60e51b8152600401610b4c90615a87565b81838161378657fe5b049392505050565b60008261379d57506000610a85565b828202828482816137aa57fe5b0414610d0a5760405162461bcd60e51b8152600401610b4c90615ad7565b6001600160a01b0381166137ee5760405162461bcd60e51b8152600401610b4c90615937565b600880546001600160a01b0319166001600160a01b0383169081179091556040517f410f9465288aecd0c52f8000879de6419ab719bcb75db47009c66d629155208e90600090a250565b60005b81811015610cd357600083838381811061385157fe5b905060200201602081019061386691906143ba565b9050613871816124e0565b1561388e5760405162461bcd60e51b8152600401610b4c90615ab7565b6001600160a01b0381166000818152600e6020526040808220805460ff19166001179055517f3b4a40cccf2058c593542587329dd385be4f0b588db5471fbd9598e56dd7093a9190a25060010161383b565b60048054604080516020601f60026000196101006001881615020190951694909404938401819004810282018101909252828152606093909290918301828280156112665780601f1061269257610100808354040283529160200191611266565b600a80546001600160801b031615806139705750805461397090600160c01b90046001600160401b03166135b4565b1561397b575061278b565b6000670de0b6b3a76400006139ac6139916125da565b606001516001600160401b03166139a6610ce9565b9061378e565b816139b357fe5b835491900491506000906001600160801b03168210156139f55782546139ee906001600160801b03166116e3670de0b6b3a76400008561378e565b9050613a00565b50670de0b6b3a76400005b825467ffffffffffffffff60801b1916600160801b6001600160401b0392831602176001600160c01b0316600160c01b4292909216919091021790915550565b6001600160a01b0381166000908152600b6020526040902054600a90600160801b90046001600160801b03168015610cd3578154613a8b90611632906001600160801b0316836135ec565b82546001600160801b0319166001600160801b03919091161782556002820154610cd3908490613614565b6001600160a01b038216613adc5760405162461bcd60e51b8152600401610b4c90615b17565b613ae882600083610cd3565b613b2581604051806060016040528060228152602001615e6e602291396001600160a01b0385166000908152602081905260409020549190613cb4565b6001600160a01b038316600090815260208190526040902055600254613b4b90826135ec565b6002556040516000906001600160a01b038416907fddf252ad1be2c89b69c2b068fc378daa952ba7f163c4a11628f55a4df523b3ef90612de6908590615c61565b6000613b9661176f565b90506001600160a01b03811673eeeeeeeeeeeeeeeeeeeeeeeeeeeeeeeeeeeeeeee1415613be057507f00000000000000000000000000000000000000000000000000000000000000005b600060607f00000000000000000000000000000000000000000000000000000000000000006001600160a01b0316632441593c613c1b611df3565b87868860016040518663ffffffff1660e01b8152600401613c40959493929190615834565b60006040518083038186803b158015613c5857600080fd5b505afa158015613c6c573d6000803e3d6000fd5b505050506040513d6000823e601f3d908101601f19168201604052613c94919081019061458f565b9092509050613cac6001600160a01b03831682613f9a565b505050505050565b60008184841115613cd85760405162461bcd60e51b8152600401610b4c9190615926565b505050900390565b6000610a81613ced6126be565b84845b6001600160a01b038316613d165760405162461bcd60e51b8152600401610b4c90615b47565b6001600160a01b038216613d3c5760405162461bcd60e51b8152600401610b4c90615947565b613d47838383610cd3565b613d8481604051806060016040528060268152602001615e90602691396001600160a01b0386166000908152602081905260409020549190613cb4565b6001600160a01b038085166000908152602081905260408082209390935590841681522054613db3908261351f565b6001600160a01b0380841660008181526020819052604090819020939093559151908516907fddf252ad1be2c89b69c2b068fc378daa952ba7f163c4a11628f55a4df523b3ef90612769908590615c61565b6007805460ff60a81b1916600160a81b831515021790556040517f8ee78a6848b5a5226d78b64328db1890ef13d87d478dfa9f0e423ea6698b580b90612ee190839061590a565b6000828410158015610d0757505090911115919050565b6007805482919060ff60a01b1916600160a01b836001811115613e8257fe5b02179055507fd7612a42f58c414b7884944df57f84b1c3b1767cf1e070cf282db93a9e1f99fd81604051612ee19190615918565b612fad846323b872dd60e01b8585856040516024016132a093929190615880565b801580613f5f5750604051636eb1769f60e11b81526001600160a01b0384169063dd62ed3e90613f0d9030908690600401615826565b60206040518083038186803b158015613f2557600080fd5b505afa158015613f39573d6000803e3d6000fd5b505050506040513d601f19601f82011682018060405250810190613f5d919061486d565b155b613f7b5760405162461bcd60e51b8152600401610b4c90615bf7565b610cd38363095ea7b360e01b84846040516024016132a09291906158a8565b6060610d0a83836040518060400160405280601e81526020017f416464726573733a206c6f772d6c6576656c2063616c6c206661696c6564000081525061406b565b6060614031826040518060400160405280602081526020017f5361666545524332303a206c6f772d6c6576656c2063616c6c206661696c6564815250856001600160a01b031661406b9092919063ffffffff16565b805190915015610cd3578080602001905181019061404f91906147a3565b610cd35760405162461bcd60e51b8152600401610b4c90615bc7565b6060610d0784846000858561407f8561410a565b61409b5760405162461bcd60e51b8152600401610b4c90615b67565b60006060866001600160a01b031685876040516140b891906157b6565b60006040518083038185875af1925050503d80600081146140f5576040519150601f19603f3d011682016040523d82523d6000602084013e6140fa565b606091505b5091509150612d27828286614110565b3b151590565b6060831561411f575081610d0a565b82511561412f5782518084602001fd5b8160405162461bcd60e51b8152600401610b4c9190615926565b604080518082019091526000808252602082015290565b6040518060200160405280606081525090565b60408051608081018252600080825260208201819052918101829052606081019190915290565b604080516060810182526000808252602082018190529181019190915290565b8035610a8581615e28565b8051610a8581615e28565b60008083601f8401126141e257600080fd5b5081356001600160401b038111156141f957600080fd5b60208301915083602082028301111561421157600080fd5b9250929050565b600082601f83011261422957600080fd5b813561423c61423782615d0a565b615ce4565b9150818183526020840193506020810190508385602084028201111561426157600080fd5b60005b8381101561428d578161427788826141ba565b8452506020928301929190910190600101614264565b5050505092915050565b8035610a8581615e3c565b8051610a8581615e3c565b600082601f8301126142be57600080fd5b81516142cc61423782615d2a565b915080825260208301602083018583830111156142e857600080fd5b6142f3838284615de8565b50505092915050565b8035610a8581615e45565b60006080828403121561431957600080fd5b50919050565b60006080828403121561433157600080fd5b61433b6080615ce4565b9050600061434984846143af565b825250602061435a848483016143a4565b602083015250604061436e848285016143a4565b6040830152506060614382848285016143af565b60608301525092915050565b8035610a8581615e52565b8051610a8581615e52565b8035610a8581615e5b565b8035610a8581615e64565b6000602082840312156143cc57600080fd5b60006135e484846141ba565b6000602082840312156143ea57600080fd5b60006135e484846141c5565b6000806040838503121561440957600080fd5b600061441585856141ba565b9250506020614426858286016141ba565b9150509250929050565b60008060006060848603121561444557600080fd5b600061445186866141ba565b9350506020614462868287016141ba565b92505060406144738682870161438e565b9150509250925092565b60008060008060008060008060006101608a8c03121561449c57600080fd5b60006144a88c8c6141ba565b99505060208a01356001600160401b038111156144c457600080fd5b6144d08c828d016141d0565b985098505060406144e38c828d016141ba565b96505060606144f48c828d01614297565b95505060806145058c828d01614297565b94505060a06145168c828d01614297565b93505060c06145278c828d016142fc565b92505060e06145388c828d01614307565b9150509295985092959850929598565b6000806040838503121561455b57600080fd5b600061456785856141ba565b92505060208301356001600160401b0381111561458357600080fd5b61442685828601614218565b600080604083850312156145a257600080fd5b60006145ae85856141c5565b92505060208301516001600160401b038111156145ca57600080fd5b614426858286016142ad565b600080604083850312156145e957600080fd5b60006145f585856141ba565b92505060206144268582860161438e565b60008060006060848603121561461b57600080fd5b600061462786866141ba565b93505060206144628682870161438e565b6000806020838503121561464b57600080fd5b82356001600160401b0381111561466157600080fd5b61466d858286016141d0565b92509250509250929050565b6000806000806000806060878903121561469257600080fd5b86356001600160401b038111156146a857600080fd5b6146b489828a016141d0565b965096505060208701356001600160401b038111156146d257600080fd5b6146de89828a016141d0565b945094505060408701356001600160401b038111156146fc57600080fd5b61470889828a016141d0565b92509250509295509295509295565b6000806000806040858703121561472d57600080fd5b84356001600160401b0381111561474357600080fd5b61474f878288016141d0565b945094505060208501356001600160401b0381111561476d57600080fd5b614779878288016141d0565b95989497509550505050565b60006020828403121561479757600080fd5b60006135e48484614297565b6000602082840312156147b557600080fd5b60006135e484846142a2565b6000602082840312156147d357600080fd5b60006135e484846142fc565b6000602082840312156147f157600080fd5b81516001600160401b0381111561480757600080fd5b6135e4848285016142ad565b60006080828403121561482557600080fd5b60006135e48484614307565b60006080828403121561484357600080fd5b60006135e4848461431f565b60006020828403121561486157600080fd5b60006135e4848461438e565b60006020828403121561487f57600080fd5b60006135e48484614399565b6000806040838503121561489e57600080fd5b60006145f5858561438e565b60006148b683836148d9565b505060200190565b60006148b68383615780565b6148d381615db1565b82525050565b6148d381615d64565b60006148ed82615d57565b6148f78185615d5b565b935061490283615d51565b8060005b8381101561493057815161491a88826148aa565b975061492583615d51565b925050600101614906565b509495945050505050565b600061494682615d57565b6149508185615d5b565b935061495b83615d51565b8060005b8381101561493057815161497388826148be565b975061497e83615d51565b92505060010161495f565b6148d381615d6f565b600061499d82615d57565b6149a78185610b22565b93506149b7818560208601615de8565b9290920192915050565b6148d381615dbc565b60006149d582615d57565b6149df8185615d5b565b93506149ef818560208601615de8565b6149f881615e14565b9093019392505050565b6000614a0f602983615d5b565b7f5f5f736574526564656d7074696f6e41737365743a204e6f20726564656d70748152681a5bdb88185cdcd95d60ba1b602082015260400192915050565b6000614a5a600183610b22565b607760f81b815260010192915050565b6000614a77602383615d5b565b7f45524332303a207472616e7366657220746f20746865207a65726f206164647281526265737360e81b602082015260400192915050565b6000614abc601e83615d5b565b7f7265717565737452656465656d3a20457863656564732062616c616e63650000815260200192915050565b6000614af5600c83615d5b565b6b155b985d5d1a1bdc9a5e995960a21b815260200192915050565b6000614b1d602283615d5b565b7f45524332303a20617070726f766520746f20746865207a65726f206164647265815261737360f01b602082015260400192915050565b6000614b61601d83615d5b565b7f72656d6f76654d616e61676572733a204e6f742061206d616e61676572000000815260200192915050565b6000614b9a602083615d5b565b7f5f5f7072654465706f7369743a206d73672e76616c7565206d69736d61746368815260200192915050565b6000614bd3601f83615d5b565b7f63616e63656c5265717565737452656465656d3a204e6f207265717565737400815260200192915050565b6000614c0c602783615d5b565b7f72656465656d46726f6d51756575653a204f75742d6f662d72616e6765205f658152660dcc892dcc8caf60cb1b602082015260400192915050565b6000614c55602a83615d5b565b7f72656465656d46726f6d51756575653a204f75747369646520726564656d7074815269696f6e2077696e646f7760b01b602082015260400192915050565b6000614ca1601b83615d5b565b7f536166654d6174683a206164646974696f6e206f766572666c6f770000000000815260200192915050565b6000614cda601f83615d5b565b7f5f5f7072654465706f7369743a20417070726f76616c206d69736d6174636800815260200192915050565b6000614d13601f83615d5b565b7f7265717565737452656465656d3a204578636565647320617070726f76616c00815260200192915050565b6000614d4c603b83615d5b565b7f5f5f736574526564656d7074696f6e57696e646f77436f6e6669673a2072656c81527f6174697665536861726573436170206578636565647320313030250000000000602082015260400192915050565b6000614dab601a83615d5b565b7f726571756573744465706f7369743a2057726f6e67206d6f6465000000000000815260200192915050565b6000614de4603783615d5b565b7f5f5f736574526564656d7074696f6e57696e646f77436f6e6669673a2064757281527f6174696f6e2065786365656473206672657175656e6379000000000000000000602082015260400192915050565b6000614e43602783615d5b565b7f53616665436173743a2076616c756520646f65736e27742066697420696e20318152663238206269747360c81b602082015260400192915050565b6000614e8c602983615d5b565b7f5f5f70726550726f636573735472616e736665723a20496e20726564656d7074815268696f6e20717565756560b81b602082015260400192915050565b6000614ed7601e83615d5b565b7f536166654d6174683a207375627472616374696f6e206f766572666c6f770000815260200192915050565b6000614f10603a83615d5b565b7f416464726573733a20756e61626c6520746f2073656e642076616c75652c207281527f6563697069656e74206d61792068617665207265766572746564000000000000602082015260400192915050565b6000614f6f601d83615d5b565b7f416464726573733a20696e73756666696369656e742062616c616e6365000000815260200192915050565b6000614fa8601a83615d5b565b7f536166654d6174683a206469766973696f6e206279207a65726f000000000000815260200192915050565b6000614fe1602383615d5b565b7f72656465656d46726f6d51756575653a204d69736f72646572656420696e646581526278657360e81b602082015260400192915050565b6000615026601c83615d5b565b7f6465706f7369743a20496e73756666696369656e742073686172657300000000815260200192915050565b600061505f601e83615d5b565b7f5f5f6164644d616e61676572733a20416c7265616479206d616e616765720000815260200192915050565b6000615098602883615d5b565b7f5f5f736574526564656d7074696f6e57696e646f77436f6e6669673a204e6f20815267323ab930ba34b7b760c11b602082015260400192915050565b60006150e2602183615d5b565b7f536166654d6174683a206d756c7469706c69636174696f6e206f766572666c6f8152607760f81b602082015260400192915050565b6000615125602683615d5b565b7f736574526564656d7074696f6e417070726f76616c733a20556e657175616c2081526561727261797360d01b602082015260400192915050565b600061516d602d83615d5b565b7f63616e63656c5265717565737452656465656d3a20496e73696465207265646581526c6d7074696f6e2077696e646f7760981b602082015260400192915050565b60006151bc601183615d5b565b701a5b9a5d0e88125b9a5d1a585b1a5e9959607a1b815260200192915050565b60006151e9602183615d5b565b7f45524332303a206275726e2066726f6d20746865207a65726f206164647265738152607360f81b602082015260400192915050565b600061522c602b83615d5b565b7f72656465656d46726f6d51756575653a20416c72656164792072656465656d6581526a6420696e2077696e646f7760a81b602082015260400192915050565b6000615279601383615d5b565b726465706f7369743a2057726f6e67206d6f646560681b815260200192915050565b60006152a8602583615d5b565b7f45524332303a207472616e736665722066726f6d20746865207a65726f206164815264647265737360d81b602082015260400192915050565b6000610a85600083610b22565b60006152fc602483615d5b565b7f45524332303a20617070726f76652066726f6d20746865207a65726f206164648152637265737360e01b602082015260400192915050565b6000615342601d83615d5b565b7f416464726573733a2063616c6c20746f206e6f6e2d636f6e7472616374000000815260200192915050565b600061537b602383615d5b565b7f7365744465706f736974417070726f76616c733a20556e657175616c2061727281526261797360e81b602082015260400192915050565b60006153c0602783615d5b565b7f5f5f70726550726f636573735472616e736665723a20417070726f76616c206d8152660d2e6dac2e8c6d60cb1b602082015260400192915050565b6000615409603583615d5b565b7f5f5f736574526564656d7074696f6e57696e646f77436f6e6669673a20496e76815274185b1a5908199a5c9cdd15da5b991bddd4dd185c9d605a1b602082015260400192915050565b6000615460602483615d5b565b7f7365745472616e73666572417070726f76616c733a20556e657175616c2061728152637261797360e01b602082015260400192915050565b60006154a6601e83615d5b565b7f726571756573744465706f7369743a204d697373696e6720616d6f756e740000815260200192915050565b60006154df602a83615d5b565b7f5361666545524332303a204552433230206f7065726174696f6e20646964206e8152691bdd081cdd58d8d9595960b21b602082015260400192915050565b600061552b602083615d5b565b7f5f5f7072654465706f7369743a204e6f6e2d7a65726f206d73672e76616c7565815260200192915050565b6000615564601f83615d5b565b7f5265656e7472616e637947756172643a207265656e7472616e742063616c6c00815260200192915050565b600061559d603683615d5b565b7f5361666545524332303a20617070726f76652066726f6d206e6f6e2d7a65726f81527520746f206e6f6e2d7a65726f20616c6c6f77616e636560501b602082015260400192915050565b60006155f5602283615d5b565b7f5f5f72656d6f76654465706f736974526571756573743a204e6f2072657175658152611cdd60f21b602082015260400192915050565b6000615639601f83615d5b565b7f45524332303a206d696e7420746f20746865207a65726f206164647265737300815260200192915050565b6000615672602783615d5b565b7f7265717565737452656465656d3a20496e7369646520726564656d7074696f6e8152662077696e646f7760c81b602082015260400192915050565b60006156bb600883610b22565b6702bb930b83832b2160c51b815260080192915050565b805160408301906156e384826157a4565b506020820151612fad6020850182615777565b8051606083019061570784826157a4565b50602082015161571a60208501826157a4565b506040820151612fad6040850182615777565b8051608083019061573e84826157a4565b5060208201516157516020850182615792565b5060408201516157646040850182615792565b506060820151612fad60608501826157a4565b6148d381615d7e565b6148d381610a6a565b6148d381615dd2565b6148d381615d96565b6148d381615ddd565b6148d381615d9f565b6148d381615dab565b6000610d0a8284614992565b60006157cd82614a4d565b9150610d0a8284614992565b6000610a85826152e2565b60006157cd826156ae565b60208101610a8582846148d9565b60208101610a8582846148ca565b6040810161581982856148ca565b610d0a60208301846148d9565b6040810161581982856148d9565b60a0810161584282886148d9565b61584f60208301876148d9565b61585c60408301866148d9565b6158696060830185615780565b6158766080830184614989565b9695505050505050565b6060810161588e82866148d9565b61589b60208301856148d9565b6135e46040830184615780565b604081016158b682856148d9565b610d0a6020830184615780565b60208082528101610d0a81846148e2565b604080825281016158e581856148e2565b90508181036020830152610d07818461493b565b60208082528101610d0a818461493b565b60208101610a858284614989565b60208101610a8582846149c1565b60208082528101610d0a81846149ca565b60208082528101610a8581614a02565b60208082528101610a8581614a6a565b60208082528101610a8581614aaf565b60208082528101610a8581614ae8565b60208082528101610a8581614b10565b60208082528101610a8581614b54565b60208082528101610a8581614b8d565b60208082528101610a8581614bc6565b60208082528101610a8581614bff565b60208082528101610a8581614c48565b60208082528101610a8581614c94565b60208082528101610a8581614ccd565b60208082528101610a8581614d06565b60208082528101610a8581614d3f565b60208082528101610a8581614d9e565b60208082528101610a8581614dd7565b60208082528101610a8581614e36565b60208082528101610a8581614e7f565b60208082528101610a8581614eca565b60208082528101610a8581614f03565b60208082528101610a8581614f62565b60208082528101610a8581614f9b565b60208082528101610a8581614fd4565b60208082528101610a8581615019565b60208082528101610a8581615052565b60208082528101610a858161508b565b60208082528101610a85816150d5565b60208082528101610a8581615118565b60208082528101610a8581615160565b60208082528101610a85816151af565b60208082528101610a85816151dc565b60208082528101610a858161521f565b60208082528101610a858161526c565b60208082528101610a858161529b565b60208082528101610a85816152ef565b60208082528101610a8581615335565b60208082528101610a858161536e565b60208082528101610a85816153b3565b60208082528101610a85816153fc565b60208082528101610a8581615453565b60208082528101610a8581615499565b60208082528101610a85816154d2565b60208082528101610a858161551e565b60208082528101610a8581615557565b60208082528101610a8581615590565b60208082528101610a85816155e8565b60208082528101610a858161562c565b60208082528101610a8581615665565b60408101610a8582846156d2565b60608101610a8582846156f6565b60808101610a85828461572d565b60208101610a858284615780565b604081016158b68285615780565b60608101615c8b8286615780565b61589b6020830185615780565b60808101615ca6828761579b565b615cb36020830186615789565b615cc06040830185615789565b615ccd606083018461579b565b95945050505050565b60208101610a8582846157ad565b6040518181016001600160401b0381118282101715615d0257600080fd5b604052919050565b60006001600160401b03821115615d2057600080fd5b5060209081020190565b60006001600160401b03821115615d4057600080fd5b506020601f91909101601f19160190565b60200190565b5190565b90815260200190565b6000610a8582615d8a565b151590565b80610b2281615e1e565b6001600160801b031690565b6001600160a01b031690565b63ffffffff1690565b6001600160401b031690565b60ff1690565b6000610a8582615dc7565b6000610a8582615d74565b6000610a8582615d64565b6000610a8582615d96565b6000610a8582615d9f565b60005b83811015615e03578181015183820152602001615deb565b83811115612fad5750506000910152565b601f01601f191690565b60028110610aaa57fe5b615e3181615d64565b8114610aaa57600080fd5b615e3181615d6f565b60028110610aaa57600080fd5b615e3181610a6a565b615e3181615d96565b615e3181615d9f56fe45524332303a206275726e20616d6f756e7420657863656564732062616c616e636545524332303a207472616e7366657220616d6f756e7420657863656564732062616c616e636545524332303a207472616e7366657220616d6f756e74206578636565647320616c6c6f77616e636545524332303a2064656372656173656420616c6c6f77616e63652062656c6f77207a65726fa164736f6c634300060c000a","linkReferences":{}},"methodIdentifiers":{"addManagers(address[])":"8c5f9e74","allowance(address,address)":"dd62ed3e","approve(address,uint256)":"095ea7b3","balanceOf(address)":"70a08231","calcLatestRedemptionWindow()":"61791f27","cancelRequestDeposit(address)":"24248775","cancelRequestRedeem()":"58205209","decimals()":"313ce567","decreaseAllowance(address,uint256)":"a457c2d7","deposit(address,uint256,uint256)":"0efe6a8b","depositAllFromQueue(address)":"2f21802f","depositApprovalsAreUsed()":"9a8fea95","depositFromQueue(address,address[])":"8530503e","forceTransfer(address,address)":"b3cb06c3","getDepositApproval(address,address)":"2f63221d","getDepositMode()":"b35e8325","getDepositQueueUserRequest(address,address)":"2bfebfdb","getDepositQueueUsers(address)":"0d34e23f","getRedemptionApproval(address)":"38f1917d","getRedemptionAsset()":"6829bda7","getRedemptionQueue()":"cea6a0ee","getRedemptionQueueUserByIndex(uint256)":"318f98aa","getRedemptionQueueUserRequest(address)":"a8e5eeb1","getRedemptionQueueUsers()":"447d7e19","getRedemptionQueueUsersLength()":"7cb4f020","getRedemptionWindowConfig()":"fd71b12b","getTransferApproval(address,address)":"6753c159","getVaultProxy()":"c9809187","increaseAllowance(address,uint256)":"39509351","init(address,address[],address,bool,bool,bool,uint8,(uint64,uint32,uint32,uint64))":"f56f2a90","isManager(address)":"f3ae2415","kick(address)":"96c55175","name()":"06fdde03","redeemFromQueue(uint256,uint256)":"ca4ca8fa","redemptionApprovalsAreUsed()":"8f958f71","removeManagers(address[])":"10f3ee29","requestDeposit(address,uint256)":"5696bdae","requestRedeem(uint256)":"aa2f892d","setDepositApprovals(address[],address[],uint256[])":"34c94506","setDepositMode(uint8)":"dd62f839","setRedemptionApprovals(address[],uint256[])":"8d1d24da","setRedemptionAsset(address)":"7ba06931","setRedemptionWindowConfig((uint64,uint32,uint32,uint64))":"09f8ca5c","setTransferApprovals(address[],address[],uint256[])":"469df117","setUseDepositApprovals(bool)":"b9a3abdb","setUseRedemptionApprovals(bool)":"4d947471","setUseTransferApprovals(bool)":"15fd7a52","symbol()":"95d89b41","totalSupply()":"18160ddd","transfer(address,uint256)":"a9059cbb","transferApprovalsAreUsed()":"f7cb8952","transferFrom(address,address,uint256)":"23b872dd"},"id":113}