{"abi":[{"type":"constructor","inputs":[{"name":"_globalConfigProxy","type":"address","internalType":"address"},{"name":"_wrappedNativeAsset","type":"address","internalType":"address"}],"stateMutability":"nonpayable"},{"type":"receive","stateMutability":"payable"},{"type":"function","name":"addManagers","inputs":[{"name":"_managers","type":"address[]","internalType":"address[]"}],"outputs":[],"stateMutability":"nonpayable"},{"type":"function","name":"allowance","inputs":[{"name":"owner","type":"address","internalType":"address"},{"name":"spender","type":"address","internalType":"address"}],"outputs":[{"name":"","type":"uint256","internalType":"uint256"}],"stateMutability":"view"},{"type":"function","name":"approve","inputs":[{"name":"spender","type":"address","internalType":"address"},{"name":"amount","type":"uint256","internalType":"uint256"}],"outputs":[{"name":"","type":"bool","internalType":"bool"}],"stateMutability":"nonpayable"},{"type":"function","name":"balanceOf","inputs":[{"name":"account","type":"address","internalType":"address"}],"outputs":[{"name":"","type":"uint256","internalType":"uint256"}],"stateMutability":"view"},{"type":"function","name":"calcLatestRedemptionWindow","inputs":[],"outputs":[{"name":"windowStart_","type":"uint256","internalType":"uint256"},{"name":"windowEnd_","type":"uint256","internalType":"uint256"}],"stateMutability":"view"},{"type":"function","name":"cancelRequestDeposit","inputs":[{"name":"_depositAsset","type":"address","internalType":"address"}],"outputs":[],"stateMutability":"nonpayable"},{"type":"function","name":"cancelRequestRedeem","inputs":[],"outputs":[],"stateMutability":"nonpayable"},{"type":"function","name":"decimals","inputs":[],"outputs":[{"name":"decimals_","type":"uint8","internalType":"uint8"}],"stateMutability":"view"},{"type":"function","name":"decreaseAllowance","inputs":[{"name":"spender","type":"address","internalType":"address"},{"name":"subtractedValue","type":"uint256","internalType":"uint256"}],"outputs":[{"name":"","type":"bool","internalType":"bool"}],"stateMutability":"nonpayable"},{"type":"function","name":"deposit","inputs":[{"name":"_depositAsset","type":"address","internalType":"address"},{"name":"_depositAssetAmount","type":"uint256","internalType":"uint256"},{"name":"_minSharesAmount","type":"uint256","internalType":"uint256"}],"outputs":[{"name":"sharesReceived_","type":"uint256","internalType":"uint256"}],"stateMutability":"payable"},{"type":"function","name":"depositAllFromQueue","inputs":[{"name":"_depositAsset","type":"address","internalType":"address"}],"outputs":[{"name":"users_","type":"address[]","internalType":"address[]"},{"name":"userSharesReceived_","type":"uint256[]","internalType":"uint256[]"}],"stateMutability":"nonpayable"},{"type":"function","name":"depositApprovalsAreUsed","inputs":[],"outputs":[{"name":"approvalsUsed_","type":"bool","internalType":"bool"}],"stateMutability":"view"},{"type":"function","name":"depositFromQueue","inputs":[{"name":"_depositAsset","type":"address","internalType":"address"},{"name":"_users","type":"address[]","internalType":"address[]"}],"outputs":[{"name":"userSharesReceived_","type":"uint256[]","internalType":"uint256[]"}],"stateMutability":"nonpayable"},{"type":"function","name":"forceTransfer","inputs":[{"name":"_sender","type":"address","internalType":"address"},{"name":"_recipient","type":"address","internalType":"address"}],"outputs":[{"name":"amount_","type":"uint256","internalType":"uint256"}],"stateMutability":"nonpayable"},{"type":"function","name":"getDepositApproval","inputs":[{"name":"_user","type":"address","internalType":"address"},{"name":"_asset","type":"address","internalType":"address"}],"outputs":[{"name":"amount_","type":"uint256","internalType":"uint256"}],"stateMutability":"view"},{"type":"function","name":"getDepositMode","inputs":[],"outputs":[{"name":"mode_","type":"uint8","internalType":"enum GatedRedemptionQueueSharesWrapperLibBase1.DepositMode"}],"stateMutability":"view"},{"type":"function","name":"getDepositQueueUserRequest","inputs":[{"name":"_depositAsset","type":"address","internalType":"address"},{"name":"_user","type":"address","internalType":"address"}],"outputs":[{"name":"request_","type":"tuple","internalType":"struct GatedRedemptionQueueSharesWrapperLibBase1.DepositRequest","components":[{"name":"index","type":"uint64","internalType":"uint64"},{"name":"assetAmount","type":"uint128","internalType":"uint128"}]}],"stateMutability":"view"},{"type":"function","name":"getDepositQueueUsers","inputs":[{"name":"_depositAsset","type":"address","internalType":"address"}],"outputs":[{"name":"users_","type":"address[]","internalType":"address[]"}],"stateMutability":"view"},{"type":"function","name":"getRedemptionApproval","inputs":[{"name":"_user","type":"address","internalType":"address"}],"outputs":[{"name":"amount_","type":"uint256","internalType":"uint256"}],"stateMutability":"view"},{"type":"function","name":"getRedemptionAsset","inputs":[],"outputs":[{"name":"asset_","type":"address","internalType":"address"}],"stateMutability":"view"},{"type":"function","name":"getRedemptionQueue","inputs":[],"outputs":[{"name":"totalSharesPending_","type":"uint256","internalType":"uint256"},{"name":"relativeSharesAllowed_","type":"uint256","internalType":"uint256"},{"name":"relativeSharesCheckpointed_","type":"uint256","internalType":"uint256"}],"stateMutability":"view"},{"type":"function","name":"getRedemptionQueueUserByIndex","inputs":[{"name":"_index","type":"uint256","internalType":"uint256"}],"outputs":[{"name":"user_","type":"address","internalType":"address"}],"stateMutability":"view"},{"type":"function","name":"getRedemptionQueueUserRequest","inputs":[{"name":"_user","type":"address","internalType":"address"}],"outputs":[{"name":"request_","type":"tuple","internalType":"struct GatedRedemptionQueueSharesWrapperLibBase1.RedemptionRequest","components":[{"name":"index","type":"uint64","internalType":"uint64"},{"name":"lastRedeemed","type":"uint64","internalType":"uint64"},{"name":"sharesPending","type":"uint128","internalType":"uint128"}]}],"stateMutability":"view"},{"type":"function","name":"getRedemptionQueueUsers","inputs":[],"outputs":[{"name":"users_","type":"address[]","internalType":"address[]"}],"stateMutability":"view"},{"type":"function","name":"getRedemptionQueueUsersLength","inputs":[],"outputs":[{"name":"length_","type":"uint256","internalType":"uint256"}],"stateMutability":"view"},{"type":"function","name":"getRedemptionWindowConfig","inputs":[],"outputs":[{"name":"redemptionWindowConfig_","type":"tuple","internalType":"struct GatedRedemptionQueueSharesWrapperLibBase1.RedemptionWindowConfig","components":[{"name":"firstWindowStart","type":"uint64","internalType":"uint64"},{"name":"frequency","type":"uint32","internalType":"uint32"},{"name":"duration","type":"uint32","internalType":"uint32"},{"name":"relativeSharesCap","type":"uint64","internalType":"uint64"}]}],"stateMutability":"view"},{"type":"function","name":"getTransferApproval","inputs":[{"name":"_sender","type":"address","internalType":"address"},{"name":"_recipient","type":"address","internalType":"address"}],"outputs":[{"name":"amount_","type":"uint256","internalType":"uint256"}],"stateMutability":"view"},{"type":"function","name":"getVaultProxy","inputs":[],"outputs":[{"name":"vaultProxy_","type":"address","internalType":"address"}],"stateMutability":"view"},{"type":"function","name":"increaseAllowance","inputs":[{"name":"spender","type":"address","internalType":"address"},{"name":"addedValue","type":"uint256","internalType":"uint256"}],"outputs":[{"name":"","type":"bool","internalType":"bool"}],"stateMutability":"nonpayable"},{"type":"function","name":"init","inputs":[{"name":"_vaultProxy","type":"address","internalType":"address"},{"name":"_managers","type":"address[]","internalType":"address[]"},{"name":"_redemptionAsset","type":"address","internalType":"address"},{"name":"_useDepositApprovals","type":"bool","internalType":"bool"},{"name":"_useRedemptionApprovals","type":"bool","internalType":"bool"},{"name":"_useTransferApprovals","type":"bool","internalType":"bool"},{"name":"_depositMode","type":"uint8","internalType":"enum GatedRedemptionQueueSharesWrapperLibBase1.DepositMode"},{"name":"_windowConfig","type":"tuple","internalType":"struct GatedRedemptionQueueSharesWrapperLibBase1.RedemptionWindowConfig","components":[{"name":"firstWindowStart","type":"uint64","internalType":"uint64"},{"name":"frequency","type":"uint32","internalType":"uint32"},{"name":"duration","type":"uint32","internalType":"uint32"},{"name":"relativeSharesCap","type":"uint64","internalType":"uint64"}]}],"outputs":[],"stateMutability":"nonpayable"},{"type":"function","name":"isManager","inputs":[{"name":"_user","type":"address","internalType":"address"}],"outputs":[{"name":"isManager_","type":"bool","internalType":"bool"}],"stateMutability":"view"},{"type":"function","name":"kick","inputs":[{"name":"_user","type":"address","internalType":"address"}],"outputs":[{"name":"sharesRedeemed_","type":"uint256","internalType":"uint256"}],"stateMutability":"nonpayable"},{"type":"function","name":"name","inputs":[],"outputs":[{"name":"name_","type":"string","internalType":"string"}],"stateMutability":"view"},{"type":"function","name":"redeemFromQueue","inputs":[{"name":"_startIndex","type":"uint256","internalType":"uint256"},{"name":"_endIndex","type":"uint256","internalType":"uint256"}],"outputs":[{"name":"usersRedeemed_","type":"address[]","internalType":"address[]"},{"name":"sharesRedeemed_","type":"uint256[]","internalType":"uint256[]"}],"stateMutability":"nonpayable"},{"type":"function","name":"redemptionApprovalsAreUsed","inputs":[],"outputs":[{"name":"approvalsUsed_","type":"bool","internalType":"bool"}],"stateMutability":"view"},{"type":"function","name":"removeManagers","inputs":[{"name":"_managers","type":"address[]","internalType":"address[]"}],"outputs":[],"stateMutability":"nonpayable"},{"type":"function","name":"requestDeposit","inputs":[{"name":"_depositAsset","type":"address","internalType":"address"},{"name":"_depositAssetAmount","type":"uint256","internalType":"uint256"}],"outputs":[],"stateMutability":"payable"},{"type":"function","name":"requestRedeem","inputs":[{"name":"_sharesAmount","type":"uint256","internalType":"uint256"}],"outputs":[],"stateMutability":"nonpayable"},{"type":"function","name":"setDepositApprovals","inputs":[{"name":"_users","type":"address[]","internalType":"address[]"},{"name":"_assets","type":"address[]","internalType":"address[]"},{"name":"_amounts","type":"uint256[]","internalType":"uint256[]"}],"outputs":[],"stateMutability":"nonpayable"},{"type":"function","name":"setDepositMode","inputs":[{"name":"_mode","type":"uint8","internalType":"enum GatedRedemptionQueueSharesWrapperLibBase1.DepositMode"}],"outputs":[],"stateMutability":"nonpayable"},{"type":"function","name":"setRedemptionApprovals","inputs":[{"name":"_users","type":"address[]","internalType":"address[]"},{"name":"_amounts","type":"uint256[]","internalType":"uint256[]"}],"outputs":[],"stateMutability":"nonpayable"},{"type":"function","name":"setRedemptionAsset","inputs":[{"name":"_nextRedemptionAsset","type":"address","internalType":"address"}],"outputs":[],"stateMutability":"nonpayable"},{"type":"function","name":"setRedemptionWindowConfig","inputs":[{"name":"_nextWindowConfig","type":"tuple","internalType":"struct GatedRedemptionQueueSharesWrapperLibBase1.RedemptionWindowConfig","components":[{"name":"firstWindowStart","type":"uint64","internalType":"uint64"},{"name":"frequency","type":"uint32","internalType":"uint32"},{"name":"duration","type":"uint32","internalType":"uint32"},{"name":"relativeSharesCap","type":"uint64","internalType":"uint64"}]}],"outputs":[],"stateMutability":"nonpayable"},{"type":"function","name":"setTransferApprovals","inputs":[{"name":"_users","type":"address[]","internalType":"address[]"},{"name":"_recipients","type":"address[]","internalType":"address[]"},{"name":"_amounts","type":"uint256[]","internalType":"uint256[]"}],"outputs":[],"stateMutability":"nonpayable"},{"type":"function","name":"setUseDepositApprovals","inputs":[{"name":"_nextUseDepositApprovals","type":"bool","internalType":"bool"}],"outputs":[],"stateMutability":"nonpayable"},{"type":"function","name":"setUseRedemptionApprovals","inputs":[{"name":"_nextUseRedemptionApprovals","type":"bool","internalType":"bool"}],"outputs":[],"stateMutability":"nonpayable"},{"type":"function","name":"setUseTransferApprovals","inputs":[{"name":"_nextUseTransferApprovals","type":"bool","internalType":"bool"}],"outputs":[],"stateMutability":"nonpayable"},{"type":"function","name":"symbol","inputs":[],"outputs":[{"name":"symbol_","type":"string","internalType":"string"}],"stateMutability":"view"},{"type":"function","name":"totalSupply","inputs":[],"outputs":[{"name":"","type":"uint256","internalType":"uint256"}],"stateMutability":"view"},{"type":"function","name":"transfer","inputs":[{"name":"_recipient","type":"address","internalType":"address"},{"name":"_amount","type":"uint256","internalType":"uint256"}],"outputs":[{"name":"success_","type":"bool","internalType":"bool"}],"stateMutability":"nonpayable"},{"type":"function","name":"transferApprovalsAreUsed","inputs":[],"outputs":[{"name":"approvalsUsed_","type":"bool","internalType":"bool"}],"stateMutability":"view"},{"type":"function","name":"transferFrom","inputs":[{"name":"_sender","type":"address","internalType":"address"},{"name":"_recipient","type":"address","internalType":"address"},{"name":"_amount","type":"uint256","internalType":"uint256"}],"outputs":[{"name":"success_","type":"bool","internalType":"bool"}],"stateMutability":"nonpayable"},{"type":"event","name":"Approval","inputs":[{"name":"owner","type":"address","indexed":true,"internalType":"address"},{"name":"spender","type":"address","indexed":true,"internalType":"address"},{"name":"value","type":"uint256","indexed":false,"internalType":"uint256"}],"anonymous":false},{"type":"event","name":"DepositApproval","inputs":[{"name":"user","type":"address","indexed":true,"internalType":"address"},{"name":"asset","type":"address","indexed":true,"internalType":"address"},{"name":"amount","type":"uint256","indexed":false,"internalType":"uint256"}],"anonymous":false},{"type":"event","name":"DepositModeSet","inputs":[{"name":"mode","type":"uint8","indexed":false,"internalType":"enum GatedRedemptionQueueSharesWrapperLibBase1.DepositMode"}],"anonymous":false},{"type":"event","name":"DepositRequestAdded","inputs":[{"name":"user","type":"address","indexed":true,"internalType":"address"},{"name":"depositAsset","type":"address","indexed":true,"internalType":"address"},{"name":"depositAssetAmount","type":"uint256","indexed":false,"internalType":"uint256"}],"anonymous":false},{"type":"event","name":"DepositRequestRemoved","inputs":[{"name":"user","type":"address","indexed":true,"internalType":"address"},{"name":"depositAsset","type":"address","indexed":true,"internalType":"address"}],"anonymous":false},{"type":"event","name":"Deposited","inputs":[{"name":"user","type":"address","indexed":true,"internalType":"address"},{"name":"depositToken","type":"address","indexed":true,"internalType":"address"},{"name":"depositTokenAmount","type":"uint256","indexed":false,"internalType":"uint256"},{"name":"sharesReceived","type":"uint256","indexed":false,"internalType":"uint256"}],"anonymous":false},{"type":"event","name":"Initialized","inputs":[{"name":"vaultProxy","type":"address","indexed":true,"internalType":"address"}],"anonymous":false},{"type":"event","name":"Kicked","inputs":[{"name":"user","type":"address","indexed":true,"internalType":"address"},{"name":"sharesAmount","type":"uint256","indexed":false,"internalType":"uint256"}],"anonymous":false},{"type":"event","name":"ManagerAdded","inputs":[{"name":"user","type":"address","indexed":true,"internalType":"address"}],"anonymous":false},{"type":"event","name":"ManagerRemoved","inputs":[{"name":"user","type":"address","indexed":true,"internalType":"address"}],"anonymous":false},{"type":"event","name":"Redeemed","inputs":[{"name":"user","type":"address","indexed":true,"internalType":"address"},{"name":"sharesAmount","type":"uint256","indexed":false,"internalType":"uint256"},{"name":"redemptionAsset","type":"address","indexed":true,"internalType":"address"},{"name":"redemptionAssetAmount","type":"uint256","indexed":false,"internalType":"uint256"}],"anonymous":false},{"type":"event","name":"RedemptionApproval","inputs":[{"name":"user","type":"address","indexed":true,"internalType":"address"},{"name":"amount","type":"uint256","indexed":false,"internalType":"uint256"}],"anonymous":false},{"type":"event","name":"RedemptionAssetSet","inputs":[{"name":"asset","type":"address","indexed":true,"internalType":"address"}],"anonymous":false},{"type":"event","name":"RedemptionRequestAdded","inputs":[{"name":"user","type":"address","indexed":true,"internalType":"address"},{"name":"sharesAmount","type":"uint256","indexed":false,"internalType":"uint256"}],"anonymous":false},{"type":"event","name":"RedemptionRequestRemoved","inputs":[{"name":"user","type":"address","indexed":true,"internalType":"address"}],"anonymous":false},{"type":"event","name":"RedemptionWindowConfigSet","inputs":[{"name":"firstWindowStart","type":"uint256","indexed":false,"internalType":"uint256"},{"name":"frequency","type":"uint256","indexed":false,"internalType":"uint256"},{"name":"duration","type":"uint256","indexed":false,"internalType":"uint256"},{"name":"relativeSharesCap","type":"uint256","indexed":false,"internalType":"uint256"}],"anonymous":false},{"type":"event","name":"Transfer","inputs":[{"name":"from","type":"address","indexed":true,"internalType":"address"},{"name":"to","type":"address","indexed":true,"internalType":"address"},{"name":"value","type":"uint256","indexed":false,"internalType":"uint256"}],"anonymous":false},{"type":"event","name":"TransferApproval","inputs":[{"name":"sender","type":"address","indexed":true,"internalType":"address"},{"name":"recipient","type":"address","indexed":true,"internalType":"address"},{"name":"amount","type":"uint256","indexed":false,"internalType":"uint256"}],"anonymous":false},{"type":"event","name":"TransferForced","inputs":[{"name":"sender","type":"address","indexed":true,"internalType":"address"},{"name":"recipient","type":"address","indexed":true,"internalType":"address"},{"name":"amount","type":"uint256","indexed":false,"internalType":"uint256"}],"anonymous":false},{"type":"event","name":"UseDepositApprovalsSet","inputs":[{"name":"useApprovals","type":"bool","indexed":false,"internalType":"bool"}],"anonymous":false},{"type":"event","name":"UseRedemptionApprovalsSet","inputs":[{"name":"useApprovals","type":"bool","indexed":false,"internalType":"bool"}],"anonymous":false},{"type":"event","name":"UseTransferApprovalsSet","inputs":[{"name":"useApprovals","type":"bool","indexed":false,"internalType":"bool"}],"anonymous":false}],"bytecode":{"object":"0x60e06040523480156200001157600080fd5b5060405162009a4538038062009a45833981810160405281019062000037919062000265565b6040518060400160405280601981526020017f5772617070656420456e7a796d6520536861726573204c6962000000000000008152506040518060400160405280600981526020017f77454e5a462d6c696200000000000000000000000000000000000000000000008152508160039080519060200190620000bb929190620001a8565b508060049080519060200190620000d4929190620001a8565b506012600560006101000a81548160ff021916908360ff160217905550505060016006819055508173ffffffffffffffffffffffffffffffffffffffff1660808173ffffffffffffffffffffffffffffffffffffffff1660601b815250503073ffffffffffffffffffffffffffffffffffffffff1660a08173ffffffffffffffffffffffffffffffffffffffff1660601b815250508073ffffffffffffffffffffffffffffffffffffffff1660c08173ffffffffffffffffffffffffffffffffffffffff1660601b815250505050620002f4565b828054600181600116156101000203166002900490600052602060002090601f016020900481019282601f10620001eb57805160ff19168380011785556200021c565b828001600101855582156200021c579182015b828111156200021b578251825591602001919060010190620001fe565b5b5090506200022b91906200022f565b5090565b5b808211156200024a57600081600090555060010162000230565b5090565b6000815190506200025f81620002da565b92915050565b600080604083850312156200027957600080fd5b600062000289858286016200024e565b92505060206200029c858286016200024e565b9150509250929050565b6000620002b382620002ba565b9050919050565b600073ffffffffffffffffffffffffffffffffffffffff82169050919050565b620002e581620002a6565b8114620002f157600080fd5b50565b60805160601c60a05160601c60c05160601c6196f3620003526000398061126f52806112c752806134e3528061364552806141d2528061423752806161e5525080610d0252806125c45250806144f4528061620d52506196f36000f3fe6080604052600436106103035760003560e01c806370a0823111610190578063aa2f892d116100dc578063cea6a0ee11610095578063f3ae24151161006f578063f3ae241514610c42578063f56f2a9014610c7f578063f7cb895214610ca8578063fd71b12b14610cd35761030a565b8063cea6a0ee14610baf578063dd62ed3e14610bdc578063dd62f83914610c195761030a565b8063aa2f892d14610a8c578063b35e832514610ab5578063b3cb06c314610ae0578063b9a3abdb14610b1d578063c980918714610b46578063ca4ca8fa14610b715761030a565b80638f958f71116101495780639a8fea95116101235780639a8fea95146109aa578063a457c2d7146109d5578063a8e5eeb114610a12578063a9059cbb14610a4f5761030a565b80638f958f711461091757806395d89b411461094257806396c551751461096d5761030a565b806370a08231146107f75780637ba06931146108345780637cb4f0201461085d5780638530503e146108885780638c5f9e74146108c55780638d1d24da146108ee5761030a565b8063313ce5671161024f578063469df1171161020857806358205209116101e2578063582052091461074c57806361791f27146107635780636753c1591461078f5780636829bda7146107cc5761030a565b8063469df117146106de5780634d947471146107075780635696bdae146107305761030a565b8063313ce567146105a8578063318f98aa146105d357806334c945061461061057806338f1917d146106395780633950935114610676578063447d7e19146106b35761030a565b806315fd7a52116102bc578063242487751161029657806324248775146104c75780632bfebfdb146104f05780632f21802f1461052d5780632f63221d1461056b5761030a565b806315fd7a521461043657806318160ddd1461045f57806323b872dd1461048a5761030a565b806306fdde031461030f578063095ea7b31461033a57806309f8ca5c146103775780630d34e23f146103a05780630efe6a8b146103dd57806310f3ee291461040d5761030a565b3661030a57005b600080fd5b34801561031b57600080fd5b50610324610cfe565b6040516103319190618b9f565b60405180910390f35b34801561034657600080fd5b50610361600480360381019061035c91906171ac565b610e12565b60405161036e9190618b69565b60405180910390f35b34801561038357600080fd5b5061039e60048036038101906103999190617451565b610e30565b005b3480156103ac57600080fd5b506103c760048036038101906103c29190616f59565b610e54565b6040516103d49190618aee565b60405180910390f35b6103f760048036038101906103f291906171e8565b610f24565b6040516104049190619232565b60405180910390f35b34801561041957600080fd5b50610434600480360381019061042f9190617237565b6110af565b005b34801561044257600080fd5b5061045d60048036038101906104589190617395565b6111e0565b005b34801561046b57600080fd5b506104746111f4565b6040516104819190619232565b60405180910390f35b34801561049657600080fd5b506104b160048036038101906104ac9190616fe7565b6111fe565b6040516104be9190618b69565b60405180910390f35b3480156104d357600080fd5b506104ee60048036038101906104e99190616f59565b61121f565b005b3480156104fc57600080fd5b5061051760048036038101906105129190616fab565b611390565b60405161052491906191e1565b60405180910390f35b34801561053957600080fd5b50610554600480360381019061054f9190616f59565b6114a6565b604051610562929190618b10565b60405180910390f35b34801561057757600080fd5b50610592600480360381019061058d9190616fab565b61166d565b60405161059f9190619232565b60405180910390f35b3480156105b457600080fd5b506105bd6116f4565b6040516105ca91906192f2565b60405180910390f35b3480156105df57600080fd5b506105fa60048036038101906105f591906174a3565b6116fd565b60405161060791906189b3565b60405180910390f35b34801561061c57600080fd5b506106376004803603810190610632919061727c565b611741565b005b34801561064557600080fd5b50610660600480360381019061065b9190616f59565b611950565b60405161066d9190619232565b60405180910390f35b34801561068257600080fd5b5061069d600480360381019061069891906171ac565b611999565b6040516106aa9190618b69565b60405180910390f35b3480156106bf57600080fd5b506106c8611a4c565b6040516106d59190618aee565b60405180910390f35b3480156106ea57600080fd5b506107056004803603810190610700919061727c565b611add565b005b34801561071357600080fd5b5061072e60048036038101906107299190617395565b611cec565b005b61074a600480360381019061074591906171ac565b611d00565b005b34801561075857600080fd5b50610761612008565b005b34801561076f57600080fd5b50610778612203565b60405161078692919061924d565b60405180910390f35b34801561079b57600080fd5b506107b660048036038101906107b19190616fab565b6122fa565b6040516107c39190619232565b60405180910390f35b3480156107d857600080fd5b506107e1612381565b6040516107ee91906189b3565b60405180910390f35b34801561080357600080fd5b5061081e60048036038101906108199190616f59565b6123ab565b60405161082b9190619232565b60405180910390f35b34801561084057600080fd5b5061085b60048036038101906108569190616f59565b6123f3565b005b34801561086957600080fd5b50610872612407565b60405161087f9190619232565b60405180910390f35b34801561089457600080fd5b506108af60048036038101906108aa9190617104565b612417565b6040516108bc9190618b47565b60405180910390f35b3480156108d157600080fd5b506108ec60048036038101906108e79190617237565b61242b565b005b3480156108fa57600080fd5b5061091560048036038101906109109190617320565b612441565b005b34801561092357600080fd5b5061092c6125a9565b6040516109399190618b69565b60405180910390f35b34801561094e57600080fd5b506109576125c0565b6040516109649190618b9f565b60405180910390f35b34801561097957600080fd5b50610994600480360381019061098f9190616f59565b6126d4565b6040516109a19190619232565b60405180910390f35b3480156109b657600080fd5b506109bf6127c6565b6040516109cc9190618b69565b60405180910390f35b3480156109e157600080fd5b506109fc60048036038101906109f791906171ac565b6127dd565b604051610a099190618b69565b60405180910390f35b348015610a1e57600080fd5b50610a396004803603810190610a349190616f59565b6128aa565b604051610a4691906191fc565b60405180910390f35b348015610a5b57600080fd5b50610a766004803603810190610a7191906171ac565b6129b4565b604051610a839190618b69565b60405180910390f35b348015610a9857600080fd5b50610ab36004803603810190610aae91906174a3565b6129d3565b005b348015610ac157600080fd5b50610aca612ddf565b604051610ad79190618b84565b60405180910390f35b348015610aec57600080fd5b50610b076004803603810190610b029190616fab565b612df6565b604051610b149190619232565b60405180910390f35b348015610b2957600080fd5b50610b446004803603810190610b3f9190617395565b612e8a565b005b348015610b5257600080fd5b50610b5b612e9e565b604051610b6891906189b3565b60405180910390f35b348015610b7d57600080fd5b50610b986004803603810190610b9391906174f5565b612ec8565b604051610ba6929190618b10565b60405180910390f35b348015610bbb57600080fd5b50610bc461383a565b604051610bd393929190619276565b60405180910390f35b348015610be857600080fd5b50610c036004803603810190610bfe9190616fab565b6138cf565b604051610c109190619232565b60405180910390f35b348015610c2557600080fd5b50610c406004803603810190610c3b91906173e7565b613956565b005b348015610c4e57600080fd5b50610c696004803603810190610c649190616f59565b61396a565b604051610c769190618b69565b60405180910390f35b348015610c8b57600080fd5b50610ca66004803603810190610ca19190617036565b6139c0565b005b348015610cb457600080fd5b50610cbd613b30565b604051610cca9190618b69565b60405180910390f35b348015610cdf57600080fd5b50610ce8613b47565b604051610cf59190619217565b60405180910390f35b60607f000000000000000000000000000000000000000000000000000000000000000073ffffffffffffffffffffffffffffffffffffffff163073ffffffffffffffffffffffffffffffffffffffff161415610d6357610d5c613c11565b9050610e0f565b610d6b612e9e565b73ffffffffffffffffffffffffffffffffffffffff166306fdde036040518163ffffffff1660e01b815260040160006040518083038186803b158015610db057600080fd5b505afa158015610dc4573d6000803e3d6000fd5b505050506040513d6000823e3d601f19601f82011682018060405250810190610ded9190617410565b604051602001610dfd9190618991565b60405160208183030381529060405290505b90565b6000610e26610e1f613cb3565b8484613cbb565b6001905092915050565b610e38613e86565b610e5181803603810190610e4c919061747a565b613e9e565b50565b6060600960008373ffffffffffffffffffffffffffffffffffffffff1673ffffffffffffffffffffffffffffffffffffffff168152602001908152602001600020600101805480602002602001604051908101604052809291908181526020018280548015610f1857602002820191906000526020600020905b8160009054906101000a900473ffffffffffffffffffffffffffffffffffffffff1673ffffffffffffffffffffffffffffffffffffffff1681526020019060010190808311610ece575b50505050509050919050565b600060026006541415610f6c576040517f08c379a0000000000000000000000000000000000000000000000000000000008152600401610f6390619141565b60405180910390fd5b600260068190555060006001811115610f8157fe5b610f89612ddf565b6001811115610f9457fe5b14610fd4576040517f08c379a0000000000000000000000000000000000000000000000000000000008152600401610fcb90618fe1565b60405180910390fd5b610fde8484614186565b9350610fea848461443c565b90508181101561102f576040517f08c379a000000000000000000000000000000000000000000000000000000000815260040161102690618ec1565b60405180910390fd5b6110393382614758565b8373ffffffffffffffffffffffffffffffffffffffff163373ffffffffffffffffffffffffffffffffffffffff167ff5681f9d0db1b911ac18ee83d515a1cf1051853a9eae418316a2fdf7dea427c5858460405161109892919061924d565b60405180910390a360016006819055509392505050565b6110b76148ec565b60005b828290508110156111db5760008383838181106110d357fe5b90506020020160208101906110e89190616f59565b90506110f38161396a565b611132576040517f08c379a000000000000000000000000000000000000000000000000000000000815260040161112990618c61565b60405180910390fd5b6000600e60008373ffffffffffffffffffffffffffffffffffffffff1673ffffffffffffffffffffffffffffffffffffffff16815260200190815260200160002060006101000a81548160ff0219169083151502179055508073ffffffffffffffffffffffffffffffffffffffff167fef69f7d97228658c92417be1b16b19058315de71fecb435d07b7d23728b6bd3160405160405180910390a25080806001019150506110ba565b505050565b6111e8613e86565b6111f1816149e0565b50565b6000600254905090565b600061120b848484614a34565b611216848484614c10565b90509392505050565b600073eeeeeeeeeeeeeeeeeeeeeeeeeeeeeeeeeeeeeeee73ffffffffffffffffffffffffffffffffffffffff168273ffffffffffffffffffffffffffffffffffffffff16141561129157600190507f000000000000000000000000000000000000000000000000000000000000000091505b600061129d8333611390565b602001516fffffffffffffffffffffffffffffffff1690506112bf3384614ce9565b811561135f577f000000000000000000000000000000000000000000000000000000000000000073ffffffffffffffffffffffffffffffffffffffff16632e1a7d4d826040518263ffffffff1660e01b815260040161131e9190619232565b600060405180830381600087803b15801561133857600080fd5b505af115801561134c573d6000803e3d6000fd5b5050505061135a338261508a565b61138b565b61138a33828573ffffffffffffffffffffffffffffffffffffffff1661517e9092919063ffffffff16565b5b505050565b611398616b76565b600960008473ffffffffffffffffffffffffffffffffffffffff1673ffffffffffffffffffffffffffffffffffffffff16815260200190815260200160002060000160008373ffffffffffffffffffffffffffffffffffffffff1673ffffffffffffffffffffffffffffffffffffffff1681526020019081526020016000206040518060400160405290816000820160009054906101000a900467ffffffffffffffff1667ffffffffffffffff1667ffffffffffffffff1681526020016000820160089054906101000a90046fffffffffffffffffffffffffffffffff166fffffffffffffffffffffffffffffffff166fffffffffffffffffffffffffffffffff1681525050905092915050565b6060806114b1616bac565b600960008573ffffffffffffffffffffffffffffffffffffffff1673ffffffffffffffffffffffffffffffffffffffff1681526020019081526020016000206040518060200160405290816001820180548060200260200160405190810160405280929190818152602001828054801561158057602002820191906000526020600020905b8160009054906101000a900473ffffffffffffffffffffffffffffffffffffffff1673ffffffffffffffffffffffffffffffffffffffff1681526020019060010190808311611536575b5050505050815250509050600081600001515190508067ffffffffffffffff811180156115ac57600080fd5b506040519080825280602002602001820160405280156115db5781602001602082028036833780820191505090505b50935060005b81811015611659578260000151816001840303815181106115fe57fe5b602002602001015185828151811061161257fe5b602002602001019073ffffffffffffffffffffffffffffffffffffffff16908173ffffffffffffffffffffffffffffffffffffffff168152505080806001019150506115e1565b506116648585615204565b92505050915091565b6000600f60008473ffffffffffffffffffffffffffffffffffffffff1673ffffffffffffffffffffffffffffffffffffffff16815260200190815260200160002060008373ffffffffffffffffffffffffffffffffffffffff1673ffffffffffffffffffffffffffffffffffffffff16815260200190815260200160002054905092915050565b60006012905090565b6000600a600201828154811061170f57fe5b9060005260206000200160009054906101000a900473ffffffffffffffffffffffffffffffffffffffff169050919050565b611749613e86565b838390508686905014801561176357508181905086869050145b6117a2576040517f08c379a000000000000000000000000000000000000000000000000000000000815260040161179990619061565b60405180910390fd5b60005b86869050811015611947578282828181106117bc57fe5b90506020020135600f60008989858181106117d357fe5b90506020020160208101906117e89190616f59565b73ffffffffffffffffffffffffffffffffffffffff1673ffffffffffffffffffffffffffffffffffffffff168152602001908152602001600020600087878581811061183057fe5b90506020020160208101906118459190616f59565b73ffffffffffffffffffffffffffffffffffffffff1673ffffffffffffffffffffffffffffffffffffffff1681526020019081526020016000208190555084848281811061188f57fe5b90506020020160208101906118a49190616f59565b73ffffffffffffffffffffffffffffffffffffffff168787838181106118c657fe5b90506020020160208101906118db9190616f59565b73ffffffffffffffffffffffffffffffffffffffff167f4dae074c756df580211e8a4d151b1943c628014581d922bca6f1ed34971da8f785858581811061191e57fe5b905060200201356040516119329190619232565b60405180910390a380806001019150506117a5565b50505050505050565b6000601160008373ffffffffffffffffffffffffffffffffffffffff1673ffffffffffffffffffffffffffffffffffffffff168152602001908152602001600020549050919050565b6000611a426119a6613cb3565b84611a3d85600160006119b7613cb3565b73ffffffffffffffffffffffffffffffffffffffff1673ffffffffffffffffffffffffffffffffffffffff16815260200190815260200160002060008973ffffffffffffffffffffffffffffffffffffffff1673ffffffffffffffffffffffffffffffffffffffff1681526020019081526020016000205461553790919063ffffffff16565b613cbb565b6001905092915050565b6060600a600201805480602002602001604051908101604052809291908181526020018280548015611ad357602002820191906000526020600020905b8160009054906101000a900473ffffffffffffffffffffffffffffffffffffffff1673ffffffffffffffffffffffffffffffffffffffff1681526020019060010190808311611a89575b5050505050905090565b611ae5613e86565b8383905086869050148015611aff57508181905086869050145b611b3e576040517f08c379a0000000000000000000000000000000000000000000000000000000008152600401611b35906190c1565b60405180910390fd5b60005b86869050811015611ce357828282818110611b5857fe5b9050602002013560106000898985818110611b6f57fe5b9050602002016020810190611b849190616f59565b73ffffffffffffffffffffffffffffffffffffffff1673ffffffffffffffffffffffffffffffffffffffff1681526020019081526020016000206000878785818110611bcc57fe5b9050602002016020810190611be19190616f59565b73ffffffffffffffffffffffffffffffffffffffff1673ffffffffffffffffffffffffffffffffffffffff16815260200190815260200160002081905550848482818110611c2b57fe5b9050602002016020810190611c409190616f59565b73ffffffffffffffffffffffffffffffffffffffff16878783818110611c6257fe5b9050602002016020810190611c779190616f59565b73ffffffffffffffffffffffffffffffffffffffff167fd87fddc704b730421c81d78c453e00a9fce9becb5d1bac170929a72880a7115e858585818110611cba57fe5b90506020020135604051611cce9190619232565b60405180910390a38080600101915050611b41565b50505050505050565b611cf4613e86565b611cfd8161558c565b50565b600180811115611d0c57fe5b611d14612ddf565b6001811115611d1f57fe5b14611d5f576040517f08c379a0000000000000000000000000000000000000000000000000000000008152600401611d5690618d81565b60405180910390fd5b60008111611da2576040517f08c379a0000000000000000000000000000000000000000000000000000000008152600401611d99906190e1565b60405180910390fd5b611dac8282614186565b91506000600960008473ffffffffffffffffffffffffffffffffffffffff1673ffffffffffffffffffffffffffffffffffffffff168152602001908152602001600020905060008160000160003373ffffffffffffffffffffffffffffffffffffffff1673ffffffffffffffffffffffffffffffffffffffff16815260200190815260200160002090506000808260000160089054906101000a90046fffffffffffffffffffffffffffffffff166fffffffffffffffffffffffffffffffff161115611ebe57611eb7848360000160089054906101000a90046fffffffffffffffffffffffffffffffff166fffffffffffffffffffffffffffffffff1661553790919063ffffffff16565b9050611f59565b83905082600101805490508260000160006101000a81548167ffffffffffffffff021916908367ffffffffffffffff16021790555082600101339080600181540180825580915050600190039060005260206000200160009091909190916101000a81548173ffffffffffffffffffffffffffffffffffffffff021916908373ffffffffffffffffffffffffffffffffffffffff1602179055505b611f62816155e0565b8260000160086101000a8154816fffffffffffffffffffffffffffffffff02191690836fffffffffffffffffffffffffffffffff1602179055508473ffffffffffffffffffffffffffffffffffffffff163373ffffffffffffffffffffffffffffffffffffffff167f2ab2579088ff15202416579ce6818ab68f5b1aaeec1ae3a049495ffae2e4d29586604051611ff99190619232565b60405180910390a35050505050565b6002600654141561204e576040517f08c379a000000000000000000000000000000000000000000000000000000000815260040161204590619141565b60405180910390fd5b600260068190555061205f4261563d565b1561209f576040517f08c379a000000000000000000000000000000000000000000000000000000000815260040161209690618f61565b60405180910390fd5b6000600a905060008160010160003373ffffffffffffffffffffffffffffffffffffffff1673ffffffffffffffffffffffffffffffffffffffff16815260200190815260200160002060000160109054906101000a90046fffffffffffffffffffffffffffffffff166fffffffffffffffffffffffffffffffff1690506000811161215f576040517f08c379a000000000000000000000000000000000000000000000000000000000815260040161215690618ca1565b60405180910390fd5b6121ac6121a7828460000160009054906101000a90046fffffffffffffffffffffffffffffffff166fffffffffffffffffffffffffffffffff1661567790919063ffffffff16565b6155e0565b8260000160006101000a8154816fffffffffffffffffffffffffffffffff02191690836fffffffffffffffffffffffffffffffff1602179055506121f73383600201805490506156c7565b50506001600681905550565b60008061220e616bbf565b612216613b47565b9050806000015167ffffffffffffffff1642108061224257506000816000015167ffffffffffffffff16145b156122545760008092509250506122f6565b6000612293826020015163ffffffff16612285846000015167ffffffffffffffff164261567790919063ffffffff16565b61596d90919063ffffffff16565b90506122d26122b5836020015163ffffffff16836159c390919063ffffffff16565b836000015167ffffffffffffffff1661553790919063ffffffff16565b93506122f1826040015163ffffffff168561553790919063ffffffff16565b925050505b9091565b6000601060008473ffffffffffffffffffffffffffffffffffffffff1673ffffffffffffffffffffffffffffffffffffffff16815260200190815260200160002060008373ffffffffffffffffffffffffffffffffffffffff1673ffffffffffffffffffffffffffffffffffffffff16815260200190815260200160002054905092915050565b6000600860009054906101000a900473ffffffffffffffffffffffffffffffffffffffff16905090565b60008060008373ffffffffffffffffffffffffffffffffffffffff1673ffffffffffffffffffffffffffffffffffffffff168152602001908152602001600020549050919050565b6123fb613e86565b61240481615a33565b50565b6000600a60020180549050905090565b60606124238383615204565b905092915050565b6124336148ec565b61243d8282615b2a565b5050565b612449613e86565b818190508484905014612491576040517f08c379a000000000000000000000000000000000000000000000000000000000815260040161248890618f41565b60405180910390fd5b60005b848490508110156125a2578282828181106124ab57fe5b90506020020135601160008787858181106124c257fe5b90506020020160208101906124d79190616f59565b73ffffffffffffffffffffffffffffffffffffffff1673ffffffffffffffffffffffffffffffffffffffff1681526020019081526020016000208190555084848281811061252157fe5b90506020020160208101906125369190616f59565b73ffffffffffffffffffffffffffffffffffffffff167f86a006418c5abeb0342afa5645c469058b419458005b407f04edf930d356504784848481811061257957fe5b9050602002013560405161258d9190619232565b60405180910390a28080600101915050612494565b5050505050565b6000600760169054906101000a900460ff16905090565b60607f000000000000000000000000000000000000000000000000000000000000000073ffffffffffffffffffffffffffffffffffffffff163073ffffffffffffffffffffffffffffffffffffffff1614156126255761261e615c54565b90506126d1565b61262d612e9e565b73ffffffffffffffffffffffffffffffffffffffff166395d89b416040518163ffffffff1660e01b815260040160006040518083038186803b15801561267257600080fd5b505afa158015612686573d6000803e3d6000fd5b505050506040513d6000823e3d601f19601f820116820180604052508101906126af9190617410565b6040516020016126bf919061895a565b60405160208183030381529060405290505b90565b60006002600654141561271c576040517f08c379a000000000000000000000000000000000000000000000000000000000815260040161271390619141565b60405180910390fd5b600260068190555061272c613e86565b6127354261563d565b1561274357612742615cf6565b5b61274c82615ebd565b612755826123ab565b90506127618282615fe1565b61276b828261618f565b8173ffffffffffffffffffffffffffffffffffffffff167f8684348ed72cd103be12fcb99e9c5917294a8092ccd4808d1cd7b19daf982991826040516127b19190619232565b60405180910390a26001600681905550919050565b6000600760159054906101000a900460ff16905090565b60006128a06127ea613cb3565b8461289b856040518060600160405280602581526020016196c26025913960016000612814613cb3565b73ffffffffffffffffffffffffffffffffffffffff1673ffffffffffffffffffffffffffffffffffffffff16815260200190815260200160002060008a73ffffffffffffffffffffffffffffffffffffffff1673ffffffffffffffffffffffffffffffffffffffff168152602001908152602001600020546162fe9092919063ffffffff16565b613cbb565b6001905092915050565b6128b2616c07565b600a60010160008373ffffffffffffffffffffffffffffffffffffffff1673ffffffffffffffffffffffffffffffffffffffff1681526020019081526020016000206040518060600160405290816000820160009054906101000a900467ffffffffffffffff1667ffffffffffffffff1667ffffffffffffffff1681526020016000820160089054906101000a900467ffffffffffffffff1667ffffffffffffffff1667ffffffffffffffff1681526020016000820160109054906101000a90046fffffffffffffffffffffffffffffffff166fffffffffffffffffffffffffffffffff166fffffffffffffffffffffffffffffffff16815250509050919050565b60006129c1338484614a34565b6129cb8383616353565b905092915050565b60026006541415612a19576040517f08c379a0000000000000000000000000000000000000000000000000000000008152600401612a1090619141565b60405180910390fd5b6002600681905550612a2a4261563d565b15612a6a576040517f08c379a0000000000000000000000000000000000000000000000000000000008152600401612a61906191c1565b60405180910390fd5b612a726125a9565b15612b34576000612a8233611950565b90507fffffffffffffffffffffffffffffffffffffffffffffffffffffffffffffffff8114612b325780821115612aee576040517f08c379a0000000000000000000000000000000000000000000000000000000008152600401612ae590618d41565b60405180910390fd5b601160003373ffffffffffffffffffffffffffffffffffffffff1673ffffffffffffffffffffffffffffffffffffffff168152602001908152602001600020600090555b505b6000600a905060008160010160003373ffffffffffffffffffffffffffffffffffffffff1673ffffffffffffffffffffffffffffffffffffffff16815260200190815260200160002090506000612bc6848460000160009054906101000a90046fffffffffffffffffffffffffffffffff166fffffffffffffffffffffffffffffffff1661553790919063ffffffff16565b90506000612c0f858460000160109054906101000a90046fffffffffffffffffffffffffffffffff166fffffffffffffffffffffffffffffffff1661553790919063ffffffff16565b9050612c1a336123ab565b811115612c5c576040517f08c379a0000000000000000000000000000000000000000000000000000000008152600401612c5390618c01565b60405180910390fd5b612c65826155e0565b8460000160006101000a8154816fffffffffffffffffffffffffffffffff02191690836fffffffffffffffffffffffffffffffff160217905550612ca8816155e0565b8360000160106101000a8154816fffffffffffffffffffffffffffffffff02191690836fffffffffffffffffffffffffffffffff16021790555080851415612d825783600201805490508360000160006101000a81548167ffffffffffffffff021916908367ffffffffffffffff16021790555083600201339080600181540180825580915050600190039060005260206000200160009091909190916101000a81548173ffffffffffffffffffffffffffffffffffffffff021916908373ffffffffffffffffffffffffffffffffffffffff1602179055505b3373ffffffffffffffffffffffffffffffffffffffff167f8442da065c568ee5c2d856b7d959cdc982160318607425e37fa33ae08e0a1ff986604051612dc89190619232565b60405180910390a250505050600160068190555050565b6000600760149054906101000a900460ff16905090565b6000612e006148ec565b612e0983615ebd565b612e12836123ab565b9050612e1f838383616371565b8173ffffffffffffffffffffffffffffffffffffffff168373ffffffffffffffffffffffffffffffffffffffff167fad34dd289188ac4213b22096c7feeb1acec84f81893c94c0478f6b1464d6832883604051612e7c9190619232565b60405180910390a392915050565b612e92613e86565b612e9b81616606565b50565b6000600760009054906101000a900473ffffffffffffffffffffffffffffffffffffffff16905090565b60608060026006541415612f11576040517f08c379a0000000000000000000000000000000000000000000000000000000008152600401612f0890619141565b60405180910390fd5b6002600681905550612f21613e86565b600080612f2c612203565b91509150612f3b42838361665a565b612f7a576040517f08c379a0000000000000000000000000000000000000000000000000000000008152600401612f7190618ce1565b60405180910390fd5b6000600a90506000816002018054905090507fffffffffffffffffffffffffffffffffffffffffffffffffffffffffffffffff871415612fbb576001810396505b808710612ffd576040517f08c379a0000000000000000000000000000000000000000000000000000000008152600401612ff490618cc1565b60405180910390fd5b86881115613040576040517f08c379a000000000000000000000000000000000000000000000000000000000815260040161303790618ea1565b60405180910390fd5b613048615cf6565b6000670de0b6b3a76400008360000160109054906101000a900467ffffffffffffffff1667ffffffffffffffff1610905060008060018b8b030190508067ffffffffffffffff8111801561309b57600080fd5b506040519080825280602002602001820160405280156130ca5781602001602082028036833780820191505090505b5098508067ffffffffffffffff811180156130e457600080fd5b506040519080825280602002602001820160405280156131135781602001602082028036833780820191505090505b50975060008a90505b600082111561340457600086600201828154811061313657fe5b9060005260206000200160009054906101000a900473ffffffffffffffffffffffffffffffffffffffff16905060008760010160008373ffffffffffffffffffffffffffffffffffffffff1673ffffffffffffffffffffffffffffffffffffffff16815260200190815260200160002090506131d58160000160089054906101000a900467ffffffffffffffff1667ffffffffffffffff168b8b61665a565b15613215576040517f08c379a000000000000000000000000000000000000000000000000000000000815260040161320c90618fc1565b60405180910390fd5b600086156133225760008260000160109054906101000a90046fffffffffffffffffffffffffffffffff166fffffffffffffffffffffffffffffffff169050670de0b6b3a76400006132928b60000160109054906101000a900467ffffffffffffffff1667ffffffffffffffff16836159c390919063ffffffff16565b8161329957fe5b0491506132b76132b2838361567790919063ffffffff16565b6155e0565b8360000160106101000a8154816fffffffffffffffffffffffffffffffff02191690836fffffffffffffffffffffffffffffffff160217905550428360000160086101000a81548167ffffffffffffffff021916908367ffffffffffffffff1602179055505061336b565b8160000160109054906101000a90046fffffffffffffffffffffffffffffffff166fffffffffffffffffffffffffffffffff16905061336183896156c7565b8780600190039850505b6133758382615fe1565b848060019003955050828d868151811061338b57fe5b602002602001019073ffffffffffffffffffffffffffffffffffffffff16908173ffffffffffffffffffffffffffffffffffffffff1681525050808c86815181106133d257fe5b6020026020010181815250506133f1818761553790919063ffffffff16565b955050505080806001900391505061311c565b5061345261344d838760000160009054906101000a90046fffffffffffffffffffffffffffffffff166fffffffffffffffffffffffffffffffff1661567790919063ffffffff16565b6155e0565b8560000160006101000a8154816fffffffffffffffffffffffffffffffff02191690836fffffffffffffffffffffffffffffffff160217905550600080613497612381565b905073eeeeeeeeeeeeeeeeeeeeeeeeeeeeeeeeeeeeeeee73ffffffffffffffffffffffffffffffffffffffff168173ffffffffffffffffffffffffffffffffffffffff161415613509577f00000000000000000000000000000000000000000000000000000000000000009050600191505b60008173ffffffffffffffffffffffffffffffffffffffff166370a08231306040518263ffffffff1660e01b815260040161354491906189ce565b60206040518083038186803b15801561355c57600080fd5b505afa158015613570573d6000803e3d6000fd5b505050506040513d601f19601f8201168201806040525081019061359491906174cc565b90506135a0308661618f565b61363b818373ffffffffffffffffffffffffffffffffffffffff166370a08231306040518263ffffffff1660e01b81526004016135dd91906189ce565b60206040518083038186803b1580156135f557600080fd5b505afa158015613609573d6000803e3d6000fd5b505050506040513d601f19601f8201168201806040525081019061362d91906174cc565b61567790919063ffffffff16565b905082156136cf577f000000000000000000000000000000000000000000000000000000000000000073ffffffffffffffffffffffffffffffffffffffff16632e1a7d4d826040518263ffffffff1660e01b815260040161369c9190619232565b600060405180830381600087803b1580156136b657600080fd5b505af11580156136ca573d6000803e3d6000fd5b505050505b60005b8c51811015613820576000613715876137078f85815181106136f057fe5b6020026020010151866159c390919063ffffffff16565b61596d90919063ffffffff16565b9050841561373f5761373a8e838151811061372c57fe5b60200260200101518261508a565b61377e565b61377d8e838151811061374e57fe5b6020026020010151828673ffffffffffffffffffffffffffffffffffffffff1661517e9092919063ffffffff16565b5b613786612381565b73ffffffffffffffffffffffffffffffffffffffff168e83815181106137a857fe5b602002602001015173ffffffffffffffffffffffffffffffffffffffff167f9bcd01273db9e6cb09d97dc078fdda04f3812029365f21e09e2d77c4600f98f98f85815181106137f357fe5b60200260200101518460405161380a92919061924d565b60405180910390a35080806001019150506136d2565b505050505050505050505060016006819055509250929050565b6000806000600a60000160009054906101000a90046fffffffffffffffffffffffffffffffff16600a60000160109054906101000a900467ffffffffffffffff16600a60000160189054906101000a900467ffffffffffffffff16826fffffffffffffffffffffffffffffffff1692508167ffffffffffffffff1691508067ffffffffffffffff169050925092509250909192565b6000600160008473ffffffffffffffffffffffffffffffffffffffff1673ffffffffffffffffffffffffffffffffffffffff16815260200190815260200160002060008373ffffffffffffffffffffffffffffffffffffffff1673ffffffffffffffffffffffffffffffffffffffff16815260200190815260200160002054905092915050565b61395e613e86565b61396781616675565b50565b6000600e60008373ffffffffffffffffffffffffffffffffffffffff1673ffffffffffffffffffffffffffffffffffffffff16815260200190815260200160002060009054906101000a900460ff169050919050565b600073ffffffffffffffffffffffffffffffffffffffff16600760009054906101000a900473ffffffffffffffffffffffffffffffffffffffff1673ffffffffffffffffffffffffffffffffffffffff1614613a51576040517f08c379a0000000000000000000000000000000000000000000000000000000008152600401613a4890618f81565b60405180910390fd5b88600760006101000a81548173ffffffffffffffffffffffffffffffffffffffff021916908373ffffffffffffffffffffffffffffffffffffffff160217905550613a9c8888615b2a565b613aa586615a33565b613aae85616606565b613ab78461558c565b613ac0836149e0565b613ac982616675565b613ae281803603810190613add919061747a565b613e9e565b8873ffffffffffffffffffffffffffffffffffffffff167f908408e307fc569b417f6cbec5d5a06f44a0a505ac0479b47d421a4b2fd6a1e660405160405180910390a2505050505050505050565b6000600760179054906101000a900460ff16905090565b613b4f616bbf565b600d6040518060800160405290816000820160009054906101000a900467ffffffffffffffff1667ffffffffffffffff1667ffffffffffffffff1681526020016000820160089054906101000a900463ffffffff1663ffffffff1663ffffffff16815260200160008201600c9054906101000a900463ffffffff1663ffffffff1663ffffffff1681526020016000820160109054906101000a900467ffffffffffffffff1667ffffffffffffffff1667ffffffffffffffff1681525050905090565b606060038054600181600116156101000203166002900480601f016020809104026020016040519081016040528092919081815260200182805460018160011615610100020316600290048015613ca95780601f10613c7e57610100808354040283529160200191613ca9565b820191906000526020600020905b815481529060010190602001808311613c8c57829003601f168201915b5050505050905090565b600033905090565b600073ffffffffffffffffffffffffffffffffffffffff168373ffffffffffffffffffffffffffffffffffffffff161415613d2b576040517f08c379a0000000000000000000000000000000000000000000000000000000008152600401613d2290619021565b60405180910390fd5b600073ffffffffffffffffffffffffffffffffffffffff168273ffffffffffffffffffffffffffffffffffffffff161415613d9b576040517f08c379a0000000000000000000000000000000000000000000000000000000008152600401613d9290618c41565b60405180910390fd5b80600160008573ffffffffffffffffffffffffffffffffffffffff1673ffffffffffffffffffffffffffffffffffffffff16815260200190815260200160002060008473ffffffffffffffffffffffffffffffffffffffff1673ffffffffffffffffffffffffffffffffffffffff168152602001908152602001600020819055508173ffffffffffffffffffffffffffffffffffffffff168373ffffffffffffffffffffffffffffffffffffffff167f8c5be1e5ebec7d5bd14f71427d1e84f3dd0314c0f7b2291e5b200ac8c7c3b92583604051613e799190619232565b60405180910390a3505050565b613e8f3361396a565b613e9c57613e9b6148ec565b5b565b6000816000015167ffffffffffffffff16148015613ec657506000816040015163ffffffff16145b8015613edc57506000816020015163ffffffff16145b8015613ef657506000816060015167ffffffffffffffff16145b6140475742816000015167ffffffffffffffff1611613f4a576040517f08c379a0000000000000000000000000000000000000000000000000000000008152600401613f41906190a1565b60405180910390fd5b6000816040015163ffffffff1611613f97576040517f08c379a0000000000000000000000000000000000000000000000000000000008152600401613f8e90618f01565b60405180910390fd5b806040015163ffffffff16816020015163ffffffff1611613fed576040517f08c379a0000000000000000000000000000000000000000000000000000000008152600401613fe490618da1565b60405180910390fd5b670de0b6b3a7640000816060015167ffffffffffffffff161115614046576040517f08c379a000000000000000000000000000000000000000000000000000000000815260040161403d90618d61565b60405180910390fd5b5b80600d60008201518160000160006101000a81548167ffffffffffffffff021916908367ffffffffffffffff16021790555060208201518160000160086101000a81548163ffffffff021916908363ffffffff160217905550604082015181600001600c6101000a81548163ffffffff021916908363ffffffff16021790555060608201518160000160106101000a81548167ffffffffffffffff021916908367ffffffffffffffff1602179055509050506000600a90508060000160106101000a81549067ffffffffffffffff02191690558060000160186101000a81549067ffffffffffffffff02191690557f2b031552c22336dc4af5bd89436b409d517289ddd34cfc8e4e1543dc4235e651826000015183602001518460400151856060015160405161417a94939291906192ad565b60405180910390a15050565b600073eeeeeeeeeeeeeeeeeeeeeeeeeeeeeeeeeeeeeeee73ffffffffffffffffffffffffffffffffffffffff168373ffffffffffffffffffffffffffffffffffffffff1614156142bb577f00000000000000000000000000000000000000000000000000000000000000009050348214614235576040517f08c379a000000000000000000000000000000000000000000000000000000000815260040161422c90618c81565b60405180910390fd5b7f000000000000000000000000000000000000000000000000000000000000000073ffffffffffffffffffffffffffffffffffffffff1663d0e30db0836040518263ffffffff1660e01b81526004016000604051808303818588803b15801561429d57600080fd5b505af11580156142b1573d6000803e3d6000fd5b505050505061432f565b600034146142fe576040517f08c379a00000000000000000000000000000000000000000000000000000000081526004016142f590619121565b60405180910390fd5b82905061432e3330848473ffffffffffffffffffffffffffffffffffffffff166166d2909392919063ffffffff16565b5b6143376127c6565b15614436576000614348338361166d565b90507fffffffffffffffffffffffffffffffffffffffffffffffffffffffffffffffff8114614434578281146143b3576040517f08c379a00000000000000000000000000000000000000000000000000000000081526004016143aa90618d21565b60405180910390fd5b600f60003373ffffffffffffffffffffffffffffffffffffffff1673ffffffffffffffffffffffffffffffffffffffff16815260200190815260200160002060008373ffffffffffffffffffffffffffffffffffffffff1673ffffffffffffffffffffffffffffffffffffffff168152602001908152602001600020600090555b505b92915050565b60006144474261563d565b1561445557614454615cf6565b5b600061445f612e9e565b905060008173ffffffffffffffffffffffffffffffffffffffff166370a08231306040518263ffffffff1660e01b815260040161449c91906189ce565b60206040518083038186803b1580156144b457600080fd5b505afa1580156144c8573d6000803e3d6000fd5b505050506040513d601f19601f820116820180604052508101906144ec91906174cc565b9050600060607f000000000000000000000000000000000000000000000000000000000000000073ffffffffffffffffffffffffffffffffffffffff16637f1804338589896040518463ffffffff1660e01b815260040161454f93929190618a8e565b60006040518083038186803b15801561456757600080fd5b505afa15801561457b573d6000803e3d6000fd5b505050506040513d6000823e3d601f19601f820116820180604052508101906145a49190617158565b9150915060008773ffffffffffffffffffffffffffffffffffffffff1663dd62ed3e30856040518363ffffffff1660e01b81526004016145e59291906189e9565b60206040518083038186803b1580156145fd57600080fd5b505afa158015614611573d6000803e3d6000fd5b505050506040513d601f19601f8201168201806040525081019061463591906174cc565b141561468757614686827fffffffffffffffffffffffffffffffffffffffffffffffffffffffffffffffff8973ffffffffffffffffffffffffffffffffffffffff1661675b9092919063ffffffff16565b5b6146b0818373ffffffffffffffffffffffffffffffffffffffff166168b990919063ffffffff16565b5061474c838573ffffffffffffffffffffffffffffffffffffffff166370a08231306040518263ffffffff1660e01b81526004016146ee91906189ce565b60206040518083038186803b15801561470657600080fd5b505afa15801561471a573d6000803e3d6000fd5b505050506040513d601f19601f8201168201806040525081019061473e91906174cc565b61567790919063ffffffff16565b94505050505092915050565b600073ffffffffffffffffffffffffffffffffffffffff168273ffffffffffffffffffffffffffffffffffffffff1614156147c8576040517f08c379a00000000000000000000000000000000000000000000000000000000081526004016147bf906191a1565b60405180910390fd5b6147d460008383616903565b6147e98160025461553790919063ffffffff16565b600281905550614840816000808573ffffffffffffffffffffffffffffffffffffffff1673ffffffffffffffffffffffffffffffffffffffff1681526020019081526020016000205461553790919063ffffffff16565b6000808473ffffffffffffffffffffffffffffffffffffffff1673ffffffffffffffffffffffffffffffffffffffff168152602001908152602001600020819055508173ffffffffffffffffffffffffffffffffffffffff16600073ffffffffffffffffffffffffffffffffffffffff167fddf252ad1be2c89b69c2b068fc378daa952ba7f163c4a11628f55a4df523b3ef836040516148e09190619232565b60405180910390a35050565b6148f4612e9e565b73ffffffffffffffffffffffffffffffffffffffff1663893d20e86040518163ffffffff1660e01b815260040160206040518083038186803b15801561493957600080fd5b505afa15801561494d573d6000803e3d6000fd5b505050506040513d601f19601f820116820180604052508101906149719190616f82565b73ffffffffffffffffffffffffffffffffffffffff163373ffffffffffffffffffffffffffffffffffffffff16146149de576040517f08c379a00000000000000000000000000000000000000000000000000000000081526004016149d590618c21565b60405180910390fd5b565b80600760176101000a81548160ff0219169083151502179055507f64e7f780e6e1129031b8bdd0e74a6718620d8dac82a40fd17743c71249bc019381604051614a299190618b69565b60405180910390a150565b614ac2600a60010160008573ffffffffffffffffffffffffffffffffffffffff1673ffffffffffffffffffffffffffffffffffffffff16815260200190815260200160002060000160109054906101000a90046fffffffffffffffffffffffffffffffff166fffffffffffffffffffffffffffffffff16614ab4856123ab565b61567790919063ffffffff16565b811115614b04576040517f08c379a0000000000000000000000000000000000000000000000000000000008152600401614afb90618de1565b60405180910390fd5b614b0c613b30565b15614c0b576000614b1d84846122fa565b90507fffffffffffffffffffffffffffffffffffffffffffffffffffffffffffffffff8114614c0957818114614b88576040517f08c379a0000000000000000000000000000000000000000000000000000000008152600401614b7f90619081565b60405180910390fd5b601060008573ffffffffffffffffffffffffffffffffffffffff1673ffffffffffffffffffffffffffffffffffffffff16815260200190815260200160002060008473ffffffffffffffffffffffffffffffffffffffff1673ffffffffffffffffffffffffffffffffffffffff168152602001908152602001600020600090555b505b505050565b6000614c1d848484616371565b614cde84614c29613cb3565b614cd98560405180606001604052806028815260200161969a60289139600160008b73ffffffffffffffffffffffffffffffffffffffff1673ffffffffffffffffffffffffffffffffffffffff1681526020019081526020016000206000614c8f613cb3565b73ffffffffffffffffffffffffffffffffffffffff1673ffffffffffffffffffffffffffffffffffffffff168152602001908152602001600020546162fe9092919063ffffffff16565b613cbb565b600190509392505050565b6000600960008373ffffffffffffffffffffffffffffffffffffffff1673ffffffffffffffffffffffffffffffffffffffff168152602001908152602001600020905060008160000160008573ffffffffffffffffffffffffffffffffffffffff1673ffffffffffffffffffffffffffffffffffffffff16815260200190815260200160002060000160089054906101000a90046fffffffffffffffffffffffffffffffff166fffffffffffffffffffffffffffffffff1611614de1576040517f08c379a0000000000000000000000000000000000000000000000000000000008152600401614dd890619181565b60405180910390fd5b60008160000160008573ffffffffffffffffffffffffffffffffffffffff1673ffffffffffffffffffffffffffffffffffffffff16815260200190815260200160002060000160009054906101000a900467ffffffffffffffff1667ffffffffffffffff16905060008260010180549050905060018103821015614f65576000836001016001830381548110614e7357fe5b9060005260206000200160009054906101000a900473ffffffffffffffffffffffffffffffffffffffff16905080846001018481548110614eb057fe5b9060005260206000200160006101000a81548173ffffffffffffffffffffffffffffffffffffffff021916908373ffffffffffffffffffffffffffffffffffffffff160217905550828460000160008373ffffffffffffffffffffffffffffffffffffffff1673ffffffffffffffffffffffffffffffffffffffff16815260200190815260200160002060000160006101000a81548167ffffffffffffffff021916908367ffffffffffffffff160217905550505b8260000160008673ffffffffffffffffffffffffffffffffffffffff1673ffffffffffffffffffffffffffffffffffffffff168152602001908152602001600020600080820160006101000a81549067ffffffffffffffff02191690556000820160086101000a8154906fffffffffffffffffffffffffffffffff0219169055505082600101805480614ff457fe5b6001900381819060005260206000200160006101000a81549073ffffffffffffffffffffffffffffffffffffffff021916905590558373ffffffffffffffffffffffffffffffffffffffff168573ffffffffffffffffffffffffffffffffffffffff167fb09a3ffb29f49c75375c2d249da8a12a1ceaebfe650e0bdaae4992cbd631f4e660405160405180910390a35050505050565b804710156150cd576040517f08c379a00000000000000000000000000000000000000000000000000000000081526004016150c490618e41565b60405180910390fd5b60008273ffffffffffffffffffffffffffffffffffffffff16826040516150f39061897c565b60006040518083038185875af1925050503d8060008114615130576040519150601f19603f3d011682016040523d82523d6000602084013e615135565b606091505b5050905080615179576040517f08c379a000000000000000000000000000000000000000000000000000000000815260040161517090618e21565b60405180910390fd5b505050565b6151ff8363a9059cbb60e01b848460405160240161519d929190618ac5565b604051602081830303815290604052907bffffffffffffffffffffffffffffffffffffffffffffffffffffffff19166020820180517bffffffffffffffffffffffffffffffffffffffffffffffffffffffff8381831617835250505050616908565b505050565b60606002600654141561524c576040517f08c379a000000000000000000000000000000000000000000000000000000000815260040161524390619141565b60405180910390fd5b600260068190555061525c613e86565b60008251905060608167ffffffffffffffff8111801561527b57600080fd5b506040519080825280602002602001820160405280156152aa5781602001602082028036833780820191505090505b5090508167ffffffffffffffff811180156152c457600080fd5b506040519080825280602002602001820160405280156152f35781602001602082028036833780820191505090505b5092506000805b8381101561541657600086828151811061531057fe5b602002602001015190506000600960008a73ffffffffffffffffffffffffffffffffffffffff1673ffffffffffffffffffffffffffffffffffffffff16815260200190815260200160002060000160008373ffffffffffffffffffffffffffffffffffffffff1673ffffffffffffffffffffffffffffffffffffffff16815260200190815260200160002060000160089054906101000a90046fffffffffffffffffffffffffffffffff166fffffffffffffffffffffffffffffffff169050808584815181106153dc57fe5b6020026020010181815250506153fb818561553790919063ffffffff16565b9350615407828a614ce9565b505080806001019150506152fa565b506000615423878361443c565b905060005b865181101561552457600087828151811061543f57fe5b60200260200101519050600085838151811061545757fe5b6020026020010151905060006154888661547a84886159c390919063ffffffff16565b61596d90919063ffffffff16565b90508089858151811061549757fe5b6020026020010181815250506154ad8382614758565b8a73ffffffffffffffffffffffffffffffffffffffff168373ffffffffffffffffffffffffffffffffffffffff167ff5681f9d0db1b911ac18ee83d515a1cf1051853a9eae418316a2fdf7dea427c5848460405161550c92919061924d565b60405180910390a35050508080600101915050615428565b5050505050600160068190555092915050565b600080828401905083811015615582576040517f08c379a000000000000000000000000000000000000000000000000000000000815260040161557990618d01565b60405180910390fd5b8091505092915050565b80600760166101000a81548160ff0219169083151502179055507fd281e56a7f217bdcf7035d71951c03cd2ad9bb04f3b3388c53fa2f85dcb7245e816040516155d59190618b69565b60405180910390a150565b60007001000000000000000000000000000000008210615635576040517f08c379a000000000000000000000000000000000000000000000000000000000815260040161562c90618dc1565b60405180910390fd5b819050919050565b600080600061564a612203565b91509150600082141561566257600092505050615672565b61566d84838361665a565b925050505b919050565b6000828211156156bc576040517f08c379a00000000000000000000000000000000000000000000000000000000081526004016156b390618e01565b60405180910390fd5b818303905092915050565b6000600a905060008160010160008573ffffffffffffffffffffffffffffffffffffffff1673ffffffffffffffffffffffffffffffffffffffff16815260200190815260200160002060000160009054906101000a900467ffffffffffffffff1667ffffffffffffffff1690506001830381101561584557600082600201600185038154811061575357fe5b9060005260206000200160009054906101000a900473ffffffffffffffffffffffffffffffffffffffff1690508083600201838154811061579057fe5b9060005260206000200160006101000a81548173ffffffffffffffffffffffffffffffffffffffff021916908373ffffffffffffffffffffffffffffffffffffffff160217905550818360010160008373ffffffffffffffffffffffffffffffffffffffff1673ffffffffffffffffffffffffffffffffffffffff16815260200190815260200160002060000160006101000a81548167ffffffffffffffff021916908367ffffffffffffffff160217905550505b8160010160008573ffffffffffffffffffffffffffffffffffffffff1673ffffffffffffffffffffffffffffffffffffffff168152602001908152602001600020600080820160006101000a81549067ffffffffffffffff02191690556000820160086101000a81549067ffffffffffffffff02191690556000820160106101000a8154906fffffffffffffffffffffffffffffffff02191690555050816002018054806158ef57fe5b6001900381819060005260206000200160006101000a81549073ffffffffffffffffffffffffffffffffffffffff021916905590558373ffffffffffffffffffffffffffffffffffffffff167f328fa7077ce5de1ca1520bbd7c37ef13c017de42d86cd7053c06fffaa1c5187a60405160405180910390a250505050565b60008082116159b1576040517f08c379a00000000000000000000000000000000000000000000000000000000081526004016159a890618e81565b60405180910390fd5b8183816159ba57fe5b04905092915050565b6000808314156159d65760009050615a2d565b60008284029050828482816159e757fe5b0414615a28576040517f08c379a0000000000000000000000000000000000000000000000000000000008152600401615a1f90618f21565b60405180910390fd5b809150505b92915050565b600073ffffffffffffffffffffffffffffffffffffffff168173ffffffffffffffffffffffffffffffffffffffff161415615aa3576040517f08c379a0000000000000000000000000000000000000000000000000000000008152600401615a9a90618bc1565b60405180910390fd5b80600860006101000a81548173ffffffffffffffffffffffffffffffffffffffff021916908373ffffffffffffffffffffffffffffffffffffffff1602179055508073ffffffffffffffffffffffffffffffffffffffff167f410f9465288aecd0c52f8000879de6419ab719bcb75db47009c66d629155208e60405160405180910390a250565b60005b82829050811015615c4f576000838383818110615b4657fe5b9050602002016020810190615b5b9190616f59565b9050615b668161396a565b15615ba6576040517f08c379a0000000000000000000000000000000000000000000000000000000008152600401615b9d90618ee1565b60405180910390fd5b6001600e60008373ffffffffffffffffffffffffffffffffffffffff1673ffffffffffffffffffffffffffffffffffffffff16815260200190815260200160002060006101000a81548160ff0219169083151502179055508073ffffffffffffffffffffffffffffffffffffffff167f3b4a40cccf2058c593542587329dd385be4f0b588db5471fbd9598e56dd7093a60405160405180910390a2508080600101915050615b2d565b505050565b606060048054600181600116156101000203166002900480601f016020809104026020016040519081016040528092919081815260200182805460018160011615610100020316600290048015615cec5780601f10615cc157610100808354040283529160200191615cec565b820191906000526020600020905b815481529060010190602001808311615ccf57829003601f168201915b5050505050905090565b6000600a905060008160000160009054906101000a90046fffffffffffffffffffffffffffffffff166fffffffffffffffffffffffffffffffff161480615d645750615d638160000160189054906101000a900467ffffffffffffffff1667ffffffffffffffff1661563d565b5b15615d6f5750615ebb565b6000670de0b6b3a7640000615da9615d85613b47565b6060015167ffffffffffffffff16615d9b6111f4565b6159c390919063ffffffff16565b81615db057fe5b0490506000818360000160009054906101000a90046fffffffffffffffffffffffffffffffff166fffffffffffffffffffffffffffffffff161115615e5557615e4e8360000160009054906101000a90046fffffffffffffffffffffffffffffffff166fffffffffffffffffffffffffffffffff16615e4084670de0b6b3a76400006159c390919063ffffffff16565b61596d90919063ffffffff16565b9050615e61565b670de0b6b3a764000090505b808360000160106101000a81548167ffffffffffffffff021916908367ffffffffffffffff160217905550428360000160186101000a81548167ffffffffffffffff021916908367ffffffffffffffff1602179055505050505b565b6000600a905060008160010160008473ffffffffffffffffffffffffffffffffffffffff1673ffffffffffffffffffffffffffffffffffffffff16815260200190815260200160002060000160109054906101000a90046fffffffffffffffffffffffffffffffff166fffffffffffffffffffffffffffffffff1690506000811115615fdc57615f90615f8b828460000160009054906101000a90046fffffffffffffffffffffffffffffffff166fffffffffffffffffffffffffffffffff1661567790919063ffffffff16565b6155e0565b8260000160006101000a8154816fffffffffffffffffffffffffffffffff02191690836fffffffffffffffffffffffffffffffff160217905550615fdb8383600201805490506156c7565b5b505050565b600073ffffffffffffffffffffffffffffffffffffffff168273ffffffffffffffffffffffffffffffffffffffff161415616051576040517f08c379a000000000000000000000000000000000000000000000000000000000815260040161604890618fa1565b60405180910390fd5b61605d82600083616903565b6160c881604051806060016040528060228152602001619652602291396000808673ffffffffffffffffffffffffffffffffffffffff1673ffffffffffffffffffffffffffffffffffffffff168152602001908152602001600020546162fe9092919063ffffffff16565b6000808473ffffffffffffffffffffffffffffffffffffffff1673ffffffffffffffffffffffffffffffffffffffff1681526020019081526020016000208190555061611f8160025461567790919063ffffffff16565b600281905550600073ffffffffffffffffffffffffffffffffffffffff168273ffffffffffffffffffffffffffffffffffffffff167fddf252ad1be2c89b69c2b068fc378daa952ba7f163c4a11628f55a4df523b3ef836040516161839190619232565b60405180910390a35050565b6000616199612381565b905073eeeeeeeeeeeeeeeeeeeeeeeeeeeeeeeeeeeeeeee73ffffffffffffffffffffffffffffffffffffffff168173ffffffffffffffffffffffffffffffffffffffff161415616207577f000000000000000000000000000000000000000000000000000000000000000090505b600060607f000000000000000000000000000000000000000000000000000000000000000073ffffffffffffffffffffffffffffffffffffffff16632441593c61624f612e9e565b87868860016040518663ffffffff1660e01b8152600401616274959493929190618a3b565b60006040518083038186803b15801561628c57600080fd5b505afa1580156162a0573d6000803e3d6000fd5b505050506040513d6000823e3d601f19601f820116820180604052508101906162c99190617158565b915091506162f6818373ffffffffffffffffffffffffffffffffffffffff166168b990919063ffffffff16565b505050505050565b6000838311158290616346576040517f08c379a000000000000000000000000000000000000000000000000000000000815260040161633d9190618b9f565b60405180910390fd5b5082840390509392505050565b6000616367616360613cb3565b8484616371565b6001905092915050565b600073ffffffffffffffffffffffffffffffffffffffff168373ffffffffffffffffffffffffffffffffffffffff1614156163e1576040517f08c379a00000000000000000000000000000000000000000000000000000000081526004016163d890619001565b60405180910390fd5b600073ffffffffffffffffffffffffffffffffffffffff168273ffffffffffffffffffffffffffffffffffffffff161415616451576040517f08c379a000000000000000000000000000000000000000000000000000000000815260040161644890618be1565b60405180910390fd5b61645c838383616903565b6164c781604051806060016040528060268152602001619674602691396000808773ffffffffffffffffffffffffffffffffffffffff1673ffffffffffffffffffffffffffffffffffffffff168152602001908152602001600020546162fe9092919063ffffffff16565b6000808573ffffffffffffffffffffffffffffffffffffffff1673ffffffffffffffffffffffffffffffffffffffff1681526020019081526020016000208190555061655a816000808573ffffffffffffffffffffffffffffffffffffffff1673ffffffffffffffffffffffffffffffffffffffff1681526020019081526020016000205461553790919063ffffffff16565b6000808473ffffffffffffffffffffffffffffffffffffffff1673ffffffffffffffffffffffffffffffffffffffff168152602001908152602001600020819055508173ffffffffffffffffffffffffffffffffffffffff168373ffffffffffffffffffffffffffffffffffffffff167fddf252ad1be2c89b69c2b068fc378daa952ba7f163c4a11628f55a4df523b3ef836040516165f99190619232565b60405180910390a3505050565b80600760156101000a81548160ff0219169083151502179055507f8ee78a6848b5a5226d78b64328db1890ef13d87d478dfa9f0e423ea6698b580b8160405161664f9190618b69565b60405180910390a150565b600082841015801561666c5750818411155b90509392505050565b80600760146101000a81548160ff0219169083600181111561669357fe5b02179055507fd7612a42f58c414b7884944df57f84b1c3b1767cf1e070cf282db93a9e1f99fd816040516166c79190618b84565b60405180910390a150565b616755846323b872dd60e01b8585856040516024016166f393929190618a8e565b604051602081830303815290604052907bffffffffffffffffffffffffffffffffffffffffffffffffffffffff19166020820180517bffffffffffffffffffffffffffffffffffffffffffffffffffffffff8381831617835250505050616908565b50505050565b60008114806167f4575060008373ffffffffffffffffffffffffffffffffffffffff1663dd62ed3e30856040518363ffffffff1660e01b81526004016167a2929190618a12565b60206040518083038186803b1580156167ba57600080fd5b505afa1580156167ce573d6000803e3d6000fd5b505050506040513d601f19601f820116820180604052508101906167f291906174cc565b145b616833576040517f08c379a000000000000000000000000000000000000000000000000000000000815260040161682a90619161565b60405180910390fd5b6168b48363095ea7b360e01b8484604051602401616852929190618ac5565b604051602081830303815290604052907bffffffffffffffffffffffffffffffffffffffffffffffffffffffff19166020820180517bffffffffffffffffffffffffffffffffffffffffffffffffffffffff8381831617835250505050616908565b505050565b60606168fb83836040518060400160405280601e81526020017f416464726573733a206c6f772d6c6576656c2063616c6c206661696c656400008152506169cf565b905092915050565b505050565b606061696a826040518060400160405280602081526020017f5361666545524332303a206c6f772d6c6576656c2063616c6c206661696c65648152508573ffffffffffffffffffffffffffffffffffffffff166169cf9092919063ffffffff16565b90506000815111156169ca578080602001905181019061698a91906173be565b6169c9576040517f08c379a00000000000000000000000000000000000000000000000000000000081526004016169c090619101565b60405180910390fd5b5b505050565b60606169de84846000856169e7565b90509392505050565b606082471015616a2c576040517f08c379a0000000000000000000000000000000000000000000000000000000008152600401616a2390618e61565b60405180910390fd5b616a3585616afc565b616a74576040517f08c379a0000000000000000000000000000000000000000000000000000000008152600401616a6b90619041565b60405180910390fd5b600060608673ffffffffffffffffffffffffffffffffffffffff168587604051616a9e9190618943565b60006040518083038185875af1925050503d8060008114616adb576040519150601f19603f3d011682016040523d82523d6000602084013e616ae0565b606091505b5091509150616af0828286616b0f565b92505050949350505050565b600080823b905060008111915050919050565b60608315616b1f57829050616b6f565b600083511115616b325782518084602001fd5b816040517f08c379a0000000000000000000000000000000000000000000000000000000008152600401616b669190618b9f565b60405180910390fd5b9392505050565b6040518060400160405280600067ffffffffffffffff16815260200160006fffffffffffffffffffffffffffffffff1681525090565b6040518060200160405280606081525090565b6040518060800160405280600067ffffffffffffffff168152602001600063ffffffff168152602001600063ffffffff168152602001600067ffffffffffffffff1681525090565b6040518060600160405280600067ffffffffffffffff168152602001600067ffffffffffffffff16815260200160006fffffffffffffffffffffffffffffffff1681525090565b600081359050616c5d816195ce565b92915050565b600081519050616c72816195ce565b92915050565b60008083601f840112616c8a57600080fd5b8235905067ffffffffffffffff811115616ca357600080fd5b602083019150836020820283011115616cbb57600080fd5b9250929050565b600082601f830112616cd357600080fd5b8135616ce6616ce18261933a565b61930d565b91508181835260208401935060208101905083856020840282011115616d0b57600080fd5b60005b83811015616d3b5781616d218882616c4e565b845260208401935060208301925050600181019050616d0e565b5050505092915050565b60008083601f840112616d5757600080fd5b8235905067ffffffffffffffff811115616d7057600080fd5b602083019150836020820283011115616d8857600080fd5b9250929050565b600081359050616d9e816195e5565b92915050565b600081519050616db3816195e5565b92915050565b600082601f830112616dca57600080fd5b8151616ddd616dd882619362565b61930d565b91508082526020830160208301858383011115616df957600080fd5b616e0483828461957d565b50505092915050565b600081359050616e1c816195fc565b92915050565b600082601f830112616e3357600080fd5b8151616e46616e418261938e565b61930d565b91508082526020830160208301858383011115616e6257600080fd5b616e6d83828461957d565b50505092915050565b600060808284031215616e8857600080fd5b81905092915050565b600060808284031215616ea357600080fd5b616ead608061930d565b90506000616ebd84828501616f44565b6000830152506020616ed184828501616f2f565b6020830152506040616ee584828501616f2f565b6040830152506060616ef984828501616f44565b60608301525092915050565b600081359050616f148161960c565b92915050565b600081519050616f298161960c565b92915050565b600081359050616f3e81619623565b92915050565b600081359050616f538161963a565b92915050565b600060208284031215616f6b57600080fd5b6000616f7984828501616c4e565b91505092915050565b600060208284031215616f9457600080fd5b6000616fa284828501616c63565b91505092915050565b60008060408385031215616fbe57600080fd5b6000616fcc85828601616c4e565b9250506020616fdd85828601616c4e565b9150509250929050565b600080600060608486031215616ffc57600080fd5b600061700a86828701616c4e565b935050602061701b86828701616c4e565b925050604061702c86828701616f05565b9150509250925092565b60008060008060008060008060006101608a8c03121561705557600080fd5b60006170638c828d01616c4e565b99505060208a013567ffffffffffffffff81111561708057600080fd5b61708c8c828d01616c78565b9850985050604061709f8c828d01616c4e565b96505060606170b08c828d01616d8f565b95505060806170c18c828d01616d8f565b94505060a06170d28c828d01616d8f565b93505060c06170e38c828d01616e0d565b92505060e06170f48c828d01616e76565b9150509295985092959850929598565b6000806040838503121561711757600080fd5b600061712585828601616c4e565b925050602083013567ffffffffffffffff81111561714257600080fd5b61714e85828601616cc2565b9150509250929050565b6000806040838503121561716b57600080fd5b600061717985828601616c63565b925050602083015167ffffffffffffffff81111561719657600080fd5b6171a285828601616db9565b9150509250929050565b600080604083850312156171bf57600080fd5b60006171cd85828601616c4e565b92505060206171de85828601616f05565b9150509250929050565b6000806000606084860312156171fd57600080fd5b600061720b86828701616c4e565b935050602061721c86828701616f05565b925050604061722d86828701616f05565b9150509250925092565b6000806020838503121561724a57600080fd5b600083013567ffffffffffffffff81111561726457600080fd5b61727085828601616c78565b92509250509250929050565b6000806000806000806060878903121561729557600080fd5b600087013567ffffffffffffffff8111156172af57600080fd5b6172bb89828a01616c78565b9650965050602087013567ffffffffffffffff8111156172da57600080fd5b6172e689828a01616c78565b9450945050604087013567ffffffffffffffff81111561730557600080fd5b61731189828a01616d45565b92509250509295509295509295565b6000806000806040858703121561733657600080fd5b600085013567ffffffffffffffff81111561735057600080fd5b61735c87828801616c78565b9450945050602085013567ffffffffffffffff81111561737b57600080fd5b61738787828801616d45565b925092505092959194509250565b6000602082840312156173a757600080fd5b60006173b584828501616d8f565b91505092915050565b6000602082840312156173d057600080fd5b60006173de84828501616da4565b91505092915050565b6000602082840312156173f957600080fd5b600061740784828501616e0d565b91505092915050565b60006020828403121561742257600080fd5b600082015167ffffffffffffffff81111561743c57600080fd5b61744884828501616e22565b91505092915050565b60006080828403121561746357600080fd5b600061747184828501616e76565b91505092915050565b60006080828403121561748c57600080fd5b600061749a84828501616e91565b91505092915050565b6000602082840312156174b557600080fd5b60006174c384828501616f05565b91505092915050565b6000602082840312156174de57600080fd5b60006174ec84828501616f1a565b91505092915050565b6000806040838503121561750857600080fd5b600061751685828601616f05565b925050602061752785828601616f05565b9150509250929050565b600061753d8383617570565b60208301905092915050565b600061755583836188da565b60208301905092915050565b61756a81619511565b82525050565b61757981619469565b82525050565b61758881619469565b82525050565b6000617599826193da565b6175a38185619420565b93506175ae836193ba565b8060005b838110156175df5781516175c68882617531565b97506175d183619406565b9250506001810190506175b2565b5085935050505092915050565b60006175f7826193e5565b6176018185619431565b935061760c836193ca565b8060005b8381101561763d5781516176248882617549565b975061762f83619413565b925050600181019050617610565b5085935050505092915050565b6176538161947b565b82525050565b6000617664826193f0565b61766e8185619442565b935061767e81856020860161957d565b80840191505092915050565b61769381619523565b82525050565b60006176a4826193fb565b6176ae818561944d565b93506176be81856020860161957d565b6176c7816195b0565b840191505092915050565b60006176dd826193fb565b6176e7818561945e565b93506176f781856020860161957d565b80840191505092915050565b600061771060298361944d565b91507f5f5f736574526564656d7074696f6e41737365743a204e6f20726564656d707460008301527f696f6e20617373657400000000000000000000000000000000000000000000006020830152604082019050919050565b600061777660018361945e565b91507f77000000000000000000000000000000000000000000000000000000000000006000830152600182019050919050565b60006177b660238361944d565b91507f45524332303a207472616e7366657220746f20746865207a65726f206164647260008301527f65737300000000000000000000000000000000000000000000000000000000006020830152604082019050919050565b600061781c601e8361944d565b91507f7265717565737452656465656d3a20457863656564732062616c616e636500006000830152602082019050919050565b600061785c600c8361944d565b91507f556e617574686f72697a656400000000000000000000000000000000000000006000830152602082019050919050565b600061789c60228361944d565b91507f45524332303a20617070726f766520746f20746865207a65726f20616464726560008301527f73730000000000000000000000000000000000000000000000000000000000006020830152604082019050919050565b6000617902601d8361944d565b91507f72656d6f76654d616e61676572733a204e6f742061206d616e616765720000006000830152602082019050919050565b600061794260208361944d565b91507f5f5f7072654465706f7369743a206d73672e76616c7565206d69736d617463686000830152602082019050919050565b6000617982601f8361944d565b91507f63616e63656c5265717565737452656465656d3a204e6f2072657175657374006000830152602082019050919050565b60006179c260278361944d565b91507f72656465656d46726f6d51756575653a204f75742d6f662d72616e6765205f6560008301527f6e64496e646578000000000000000000000000000000000000000000000000006020830152604082019050919050565b6000617a28602a8361944d565b91507f72656465656d46726f6d51756575653a204f75747369646520726564656d707460008301527f696f6e2077696e646f77000000000000000000000000000000000000000000006020830152604082019050919050565b6000617a8e601b8361944d565b91507f536166654d6174683a206164646974696f6e206f766572666c6f7700000000006000830152602082019050919050565b6000617ace601f8361944d565b91507f5f5f7072654465706f7369743a20417070726f76616c206d69736d61746368006000830152602082019050919050565b6000617b0e601f8361944d565b91507f7265717565737452656465656d3a204578636565647320617070726f76616c006000830152602082019050919050565b6000617b4e603b8361944d565b91507f5f5f736574526564656d7074696f6e57696e646f77436f6e6669673a2072656c60008301527f61746976655368617265734361702065786365656473203130302500000000006020830152604082019050919050565b6000617bb4601a8361944d565b91507f726571756573744465706f7369743a2057726f6e67206d6f64650000000000006000830152602082019050919050565b6000617bf460378361944d565b91507f5f5f736574526564656d7074696f6e57696e646f77436f6e6669673a2064757260008301527f6174696f6e2065786365656473206672657175656e63790000000000000000006020830152604082019050919050565b6000617c5a60278361944d565b91507f53616665436173743a2076616c756520646f65736e27742066697420696e203160008301527f32382062697473000000000000000000000000000000000000000000000000006020830152604082019050919050565b6000617cc060298361944d565b91507f5f5f70726550726f636573735472616e736665723a20496e20726564656d707460008301527f696f6e20717565756500000000000000000000000000000000000000000000006020830152604082019050919050565b6000617d26601e8361944d565b91507f536166654d6174683a207375627472616374696f6e206f766572666c6f7700006000830152602082019050919050565b6000617d66603a8361944d565b91507f416464726573733a20756e61626c6520746f2073656e642076616c75652c207260008301527f6563697069656e74206d617920686176652072657665727465640000000000006020830152604082019050919050565b6000617dcc601d8361944d565b91507f416464726573733a20696e73756666696369656e742062616c616e63650000006000830152602082019050919050565b6000617e0c60268361944d565b91507f416464726573733a20696e73756666696369656e742062616c616e636520666f60008301527f722063616c6c00000000000000000000000000000000000000000000000000006020830152604082019050919050565b6000617e72601a8361944d565b91507f536166654d6174683a206469766973696f6e206279207a65726f0000000000006000830152602082019050919050565b6000617eb260238361944d565b91507f72656465656d46726f6d51756575653a204d69736f72646572656420696e646560008301527f78657300000000000000000000000000000000000000000000000000000000006020830152604082019050919050565b6000617f18601c8361944d565b91507f6465706f7369743a20496e73756666696369656e7420736861726573000000006000830152602082019050919050565b6000617f58601e8361944d565b91507f5f5f6164644d616e61676572733a20416c7265616479206d616e6167657200006000830152602082019050919050565b6000617f9860288361944d565b91507f5f5f736574526564656d7074696f6e57696e646f77436f6e6669673a204e6f2060008301527f6475726174696f6e0000000000000000000000000000000000000000000000006020830152604082019050919050565b6000617ffe60218361944d565b91507f536166654d6174683a206d756c7469706c69636174696f6e206f766572666c6f60008301527f77000000000000000000000000000000000000000000000000000000000000006020830152604082019050919050565b600061806460268361944d565b91507f736574526564656d7074696f6e417070726f76616c733a20556e657175616c2060008301527f61727261797300000000000000000000000000000000000000000000000000006020830152604082019050919050565b60006180ca602d8361944d565b91507f63616e63656c5265717565737452656465656d3a20496e73696465207265646560008301527f6d7074696f6e2077696e646f77000000000000000000000000000000000000006020830152604082019050919050565b600061813060118361944d565b91507f696e69743a20496e697469616c697a65640000000000000000000000000000006000830152602082019050919050565b600061817060218361944d565b91507f45524332303a206275726e2066726f6d20746865207a65726f2061646472657360008301527f73000000000000000000000000000000000000000000000000000000000000006020830152604082019050919050565b60006181d6602b8361944d565b91507f72656465656d46726f6d51756575653a20416c72656164792072656465656d6560008301527f6420696e2077696e646f770000000000000000000000000000000000000000006020830152604082019050919050565b600061823c60138361944d565b91507f6465706f7369743a2057726f6e67206d6f6465000000000000000000000000006000830152602082019050919050565b600061827c60258361944d565b91507f45524332303a207472616e736665722066726f6d20746865207a65726f20616460008301527f64726573730000000000000000000000000000000000000000000000000000006020830152604082019050919050565b60006182e2600083619442565b9150600082019050919050565b60006182fc60248361944d565b91507f45524332303a20617070726f76652066726f6d20746865207a65726f2061646460008301527f72657373000000000000000000000000000000000000000000000000000000006020830152604082019050919050565b6000618362601d8361944d565b91507f416464726573733a2063616c6c20746f206e6f6e2d636f6e74726163740000006000830152602082019050919050565b60006183a260238361944d565b91507f7365744465706f736974417070726f76616c733a20556e657175616c2061727260008301527f61797300000000000000000000000000000000000000000000000000000000006020830152604082019050919050565b600061840860278361944d565b91507f5f5f70726550726f636573735472616e736665723a20417070726f76616c206d60008301527f69736d61746368000000000000000000000000000000000000000000000000006020830152604082019050919050565b600061846e60358361944d565b91507f5f5f736574526564656d7074696f6e57696e646f77436f6e6669673a20496e7660008301527f616c696420666972737457696e646f77537461727400000000000000000000006020830152604082019050919050565b60006184d460248361944d565b91507f7365745472616e73666572417070726f76616c733a20556e657175616c20617260008301527f72617973000000000000000000000000000000000000000000000000000000006020830152604082019050919050565b600061853a601e8361944d565b91507f726571756573744465706f7369743a204d697373696e6720616d6f756e7400006000830152602082019050919050565b600061857a602a8361944d565b91507f5361666545524332303a204552433230206f7065726174696f6e20646964206e60008301527f6f742073756363656564000000000000000000000000000000000000000000006020830152604082019050919050565b60006185e060208361944d565b91507f5f5f7072654465706f7369743a204e6f6e2d7a65726f206d73672e76616c75656000830152602082019050919050565b6000618620601f8361944d565b91507f5265656e7472616e637947756172643a207265656e7472616e742063616c6c006000830152602082019050919050565b600061866060368361944d565b91507f5361666545524332303a20617070726f76652066726f6d206e6f6e2d7a65726f60008301527f20746f206e6f6e2d7a65726f20616c6c6f77616e6365000000000000000000006020830152604082019050919050565b60006186c660228361944d565b91507f5f5f72656d6f76654465706f736974526571756573743a204e6f20726571756560008301527f73740000000000000000000000000000000000000000000000000000000000006020830152604082019050919050565b600061872c601f8361944d565b91507f45524332303a206d696e7420746f20746865207a65726f2061646472657373006000830152602082019050919050565b600061876c60278361944d565b91507f7265717565737452656465656d3a20496e7369646520726564656d7074696f6e60008301527f2077696e646f77000000000000000000000000000000000000000000000000006020830152604082019050919050565b60006187d260088361945e565b91507f57726170706564200000000000000000000000000000000000000000000000006000830152600882019050919050565b60408201600082015161881b6000850182618925565b50602082015161882e60208501826188cb565b50505050565b60608201600082015161884a6000850182618925565b50602082015161885d6020850182618925565b50604082015161887060408501826188cb565b50505050565b60808201600082015161888c6000850182618925565b50602082015161889f6020850182618907565b5060408201516188b26040850182618907565b5060608201516188c56060850182618925565b50505050565b6188d48161949a565b82525050565b6188e3816194d6565b82525050565b6188f2816194d6565b82525050565b61890181619559565b82525050565b618910816194e0565b82525050565b61891f8161956b565b82525050565b61892e816194f0565b82525050565b61893d81619504565b82525050565b600061894f8284617659565b915081905092915050565b600061896582617769565b915061897182846176d2565b915081905092915050565b6000618987826182d5565b9150819050919050565b600061899c826187c5565b91506189a882846176d2565b915081905092915050565b60006020820190506189c8600083018461757f565b92915050565b60006020820190506189e36000830184617561565b92915050565b60006040820190506189fe6000830185617561565b618a0b602083018461757f565b9392505050565b6000604082019050618a27600083018561757f565b618a34602083018461757f565b9392505050565b600060a082019050618a50600083018861757f565b618a5d602083018761757f565b618a6a604083018661757f565b618a7760608301856188e9565b618a84608083018461764a565b9695505050505050565b6000606082019050618aa3600083018661757f565b618ab0602083018561757f565b618abd60408301846188e9565b949350505050565b6000604082019050618ada600083018561757f565b618ae760208301846188e9565b9392505050565b60006020820190508181036000830152618b08818461758e565b905092915050565b60006040820190508181036000830152618b2a818561758e565b90508181036020830152618b3e81846175ec565b90509392505050565b60006020820190508181036000830152618b6181846175ec565b905092915050565b6000602082019050618b7e600083018461764a565b92915050565b6000602082019050618b99600083018461768a565b92915050565b60006020820190508181036000830152618bb98184617699565b905092915050565b60006020820190508181036000830152618bda81617703565b9050919050565b60006020820190508181036000830152618bfa816177a9565b9050919050565b60006020820190508181036000830152618c1a8161780f565b9050919050565b60006020820190508181036000830152618c3a8161784f565b9050919050565b60006020820190508181036000830152618c5a8161788f565b9050919050565b60006020820190508181036000830152618c7a816178f5565b9050919050565b60006020820190508181036000830152618c9a81617935565b9050919050565b60006020820190508181036000830152618cba81617975565b9050919050565b60006020820190508181036000830152618cda816179b5565b9050919050565b60006020820190508181036000830152618cfa81617a1b565b9050919050565b60006020820190508181036000830152618d1a81617a81565b9050919050565b60006020820190508181036000830152618d3a81617ac1565b9050919050565b60006020820190508181036000830152618d5a81617b01565b9050919050565b60006020820190508181036000830152618d7a81617b41565b9050919050565b60006020820190508181036000830152618d9a81617ba7565b9050919050565b60006020820190508181036000830152618dba81617be7565b9050919050565b60006020820190508181036000830152618dda81617c4d565b9050919050565b60006020820190508181036000830152618dfa81617cb3565b9050919050565b60006020820190508181036000830152618e1a81617d19565b9050919050565b60006020820190508181036000830152618e3a81617d59565b9050919050565b60006020820190508181036000830152618e5a81617dbf565b9050919050565b60006020820190508181036000830152618e7a81617dff565b9050919050565b60006020820190508181036000830152618e9a81617e65565b9050919050565b60006020820190508181036000830152618eba81617ea5565b9050919050565b60006020820190508181036000830152618eda81617f0b565b9050919050565b60006020820190508181036000830152618efa81617f4b565b9050919050565b60006020820190508181036000830152618f1a81617f8b565b9050919050565b60006020820190508181036000830152618f3a81617ff1565b9050919050565b60006020820190508181036000830152618f5a81618057565b9050919050565b60006020820190508181036000830152618f7a816180bd565b9050919050565b60006020820190508181036000830152618f9a81618123565b9050919050565b60006020820190508181036000830152618fba81618163565b9050919050565b60006020820190508181036000830152618fda816181c9565b9050919050565b60006020820190508181036000830152618ffa8161822f565b9050919050565b6000602082019050818103600083015261901a8161826f565b9050919050565b6000602082019050818103600083015261903a816182ef565b9050919050565b6000602082019050818103600083015261905a81618355565b9050919050565b6000602082019050818103600083015261907a81618395565b9050919050565b6000602082019050818103600083015261909a816183fb565b9050919050565b600060208201905081810360008301526190ba81618461565b9050919050565b600060208201905081810360008301526190da816184c7565b9050919050565b600060208201905081810360008301526190fa8161852d565b9050919050565b6000602082019050818103600083015261911a8161856d565b9050919050565b6000602082019050818103600083015261913a816185d3565b9050919050565b6000602082019050818103600083015261915a81618613565b9050919050565b6000602082019050818103600083015261917a81618653565b9050919050565b6000602082019050818103600083015261919a816186b9565b9050919050565b600060208201905081810360008301526191ba8161871f565b9050919050565b600060208201905081810360008301526191da8161875f565b9050919050565b60006040820190506191f66000830184618805565b92915050565b60006060820190506192116000830184618834565b92915050565b600060808201905061922c6000830184618876565b92915050565b600060208201905061924760008301846188e9565b92915050565b600060408201905061926260008301856188e9565b61926f60208301846188e9565b9392505050565b600060608201905061928b60008301866188e9565b61929860208301856188e9565b6192a560408301846188e9565b949350505050565b60006080820190506192c26000830187618916565b6192cf60208301866188f8565b6192dc60408301856188f8565b6192e96060830184618916565b95945050505050565b60006020820190506193076000830184618934565b92915050565b6000604051905081810181811067ffffffffffffffff8211171561933057600080fd5b8060405250919050565b600067ffffffffffffffff82111561935157600080fd5b602082029050602081019050919050565b600067ffffffffffffffff82111561937957600080fd5b601f19601f8301169050602081019050919050565b600067ffffffffffffffff8211156193a557600080fd5b601f19601f8301169050602081019050919050565b6000819050602082019050919050565b6000819050602082019050919050565b600081519050919050565b600081519050919050565b600081519050919050565b600081519050919050565b6000602082019050919050565b6000602082019050919050565b600082825260208201905092915050565b600082825260208201905092915050565b600081905092915050565b600082825260208201905092915050565b600081905092915050565b6000619474826194b6565b9050919050565b60008115159050919050565b6000819050619495826195c1565b919050565b60006fffffffffffffffffffffffffffffffff82169050919050565b600073ffffffffffffffffffffffffffffffffffffffff82169050919050565b6000819050919050565b600063ffffffff82169050919050565b600067ffffffffffffffff82169050919050565b600060ff82169050919050565b600061951c82619535565b9050919050565b600061952e82619487565b9050919050565b600061954082619547565b9050919050565b6000619552826194b6565b9050919050565b6000619564826194e0565b9050919050565b6000619576826194f0565b9050919050565b60005b8381101561959b578082015181840152602081019050619580565b838111156195aa576000848401525b50505050565b6000601f19601f8301169050919050565b600281106195cb57fe5b50565b6195d781619469565b81146195e257600080fd5b50565b6195ee8161947b565b81146195f957600080fd5b50565b6002811061960957600080fd5b50565b619615816194d6565b811461962057600080fd5b50565b61962c816194e0565b811461963757600080fd5b50565b619643816194f0565b811461964e57600080fd5b5056fe45524332303a206275726e20616d6f756e7420657863656564732062616c616e636545524332303a207472616e7366657220616d6f756e7420657863656564732062616c616e636545524332303a207472616e7366657220616d6f756e74206578636565647320616c6c6f77616e636545524332303a2064656372656173656420616c6c6f77616e63652062656c6f77207a65726fa164736f6c634300060c000a","linkReferences":{}},"methodIdentifiers":{"addManagers(address[])":"8c5f9e74","allowance(address,address)":"dd62ed3e","approve(address,uint256)":"095ea7b3","balanceOf(address)":"70a08231","calcLatestRedemptionWindow()":"61791f27","cancelRequestDeposit(address)":"24248775","cancelRequestRedeem()":"58205209","decimals()":"313ce567","decreaseAllowance(address,uint256)":"a457c2d7","deposit(address,uint256,uint256)":"0efe6a8b","depositAllFromQueue(address)":"2f21802f","depositApprovalsAreUsed()":"9a8fea95","depositFromQueue(address,address[])":"8530503e","forceTransfer(address,address)":"b3cb06c3","getDepositApproval(address,address)":"2f63221d","getDepositMode()":"b35e8325","getDepositQueueUserRequest(address,address)":"2bfebfdb","getDepositQueueUsers(address)":"0d34e23f","getRedemptionApproval(address)":"38f1917d","getRedemptionAsset()":"6829bda7","getRedemptionQueue()":"cea6a0ee","getRedemptionQueueUserByIndex(uint256)":"318f98aa","getRedemptionQueueUserRequest(address)":"a8e5eeb1","getRedemptionQueueUsers()":"447d7e19","getRedemptionQueueUsersLength()":"7cb4f020","getRedemptionWindowConfig()":"fd71b12b","getTransferApproval(address,address)":"6753c159","getVaultProxy()":"c9809187","increaseAllowance(address,uint256)":"39509351","init(address,address[],address,bool,bool,bool,uint8,(uint64,uint32,uint32,uint64))":"f56f2a90","isManager(address)":"f3ae2415","kick(address)":"96c55175","name()":"06fdde03","redeemFromQueue(uint256,uint256)":"ca4ca8fa","redemptionApprovalsAreUsed()":"8f958f71","removeManagers(address[])":"10f3ee29","requestDeposit(address,uint256)":"5696bdae","requestRedeem(uint256)":"aa2f892d","setDepositApprovals(address[],address[],uint256[])":"34c94506","setDepositMode(uint8)":"dd62f839","setRedemptionApprovals(address[],uint256[])":"8d1d24da","setRedemptionAsset(address)":"7ba06931","setRedemptionWindowConfig((uint64,uint32,uint32,uint64))":"09f8ca5c","setTransferApprovals(address[],address[],uint256[])":"469df117","setUseDepositApprovals(bool)":"b9a3abdb","setUseRedemptionApprovals(bool)":"4d947471","setUseTransferApprovals(bool)":"15fd7a52","symbol()":"95d89b41","totalSupply()":"18160ddd","transfer(address,uint256)":"a9059cbb","transferApprovalsAreUsed()":"f7cb8952","transferFrom(address,address,uint256)":"23b872dd"},"id":113}