{"abi":[{"type":"constructor","inputs":[{"name":"_valueInterpreter","type":"address","internalType":"address"}],"stateMutability":"nonpayable"},{"type":"function","name":"calcNormalizedAssetValue","inputs":[{"name":"_baseAsset","type":"address","internalType":"address"},{"name":"_quoteAsset","type":"address","internalType":"address"}],"outputs":[{"name":"timestamp_","type":"uint256","internalType":"uint256"},{"name":"value_","type":"uint256","internalType":"uint256"},{"name":"valueIsValid_","type":"bool","internalType":"bool"}],"stateMutability":"nonpayable"},{"type":"function","name":"getValueInterpreter","inputs":[],"outputs":[{"name":"valueInterpreter_","type":"address","internalType":"address"}],"stateMutability":"view"}],"bytecode":{"object":"0x60a060405234801561001057600080fd5b506040516103e13803806103e18339818101604052602081101561003357600080fd5b5051606081901b6001600160601b0319166080526001600160a01b031661037a61006760003980610261525061037a6000f3fe608060405234801561001057600080fd5b50600436106100365760003560e01c8063572707a61461003b578063875fb4b314610089575b600080fd5b6100696004803603604081101561005157600080fd5b506001600160a01b03813581169160200135166100ad565b604080519384526020840192909252151582820152519081900360600190f35b61009161025f565b604080516001600160a01b039092168252519081900360200190f35b60008060004292506000856001600160a01b031663313ce5676040518163ffffffff1660e01b815260040160206040518083038186803b1580156100f057600080fd5b505afa158015610104573d6000803e3d6000fd5b505050506040513d602081101561011a57600080fd5b505160ff16600a0a905061012c61025f565b6001600160a01b0316634c67e1068783886040518463ffffffff1660e01b815260040180846001600160a01b03168152602001838152602001826001600160a01b031681526020019350505050602060405180830381600087803b15801561019357600080fd5b505af19250505080156101b857506040513d60208110156101b357600080fd5b505160015b6101c1576101c8565b9250600191505b6000856001600160a01b031663313ce5676040518163ffffffff1660e01b815260040160206040518083038186803b15801561020357600080fd5b505afa158015610217573d6000803e3d6000fd5b505050506040513d602081101561022d57600080fd5b505160ff169050610254600a82900a61024e86670de0b6b3a7640000610283565b906102e5565b935050509250925092565b7f000000000000000000000000000000000000000000000000000000000000000090565b600082610292575060006102df565b8282028284828161029f57fe5b04146102dc5760405162461bcd60e51b815260040180806020018281038252602181526020018061034d6021913960400191505060405180910390fd5b90505b92915050565b600080821161033b576040805162461bcd60e51b815260206004820152601a60248201527f536166654d6174683a206469766973696f6e206279207a65726f000000000000604482015290519081900360640190fd5b81838161034457fe5b04939250505056fe536166654d6174683a206d756c7469706c69636174696f6e206f766572666c6f77a164736f6c634300060c000a","linkReferences":{}},"methodIdentifiers":{"calcNormalizedAssetValue(address,address)":"572707a6","getValueInterpreter()":"875fb4b3"},"id":306}