{"abi":[{"type":"constructor","inputs":[{"name":"_valueInterpreter","type":"address","internalType":"address"}],"stateMutability":"nonpayable"},{"type":"function","name":"calcNormalizedAssetValue","inputs":[{"name":"_baseAsset","type":"address","internalType":"address"},{"name":"_quoteAsset","type":"address","internalType":"address"}],"outputs":[{"name":"timestamp_","type":"uint256","internalType":"uint256"},{"name":"value_","type":"uint256","internalType":"uint256"},{"name":"valueIsValid_","type":"bool","internalType":"bool"}],"stateMutability":"nonpayable"},{"type":"function","name":"getValueInterpreter","inputs":[],"outputs":[{"name":"valueInterpreter_","type":"address","internalType":"address"}],"stateMutability":"view"}],"bytecode":{"object":"0x60a060405234801561001057600080fd5b506040516105273803806105278339818101604052602081101561003357600080fd5b81019080805190602001909291905050508073ffffffffffffffffffffffffffffffffffffffff1660808173ffffffffffffffffffffffffffffffffffffffff1660601b815250505060805160601c61048e6100996000398061032d525061048e6000f3fe608060405234801561001057600080fd5b50600436106100365760003560e01c8063572707a61461003b578063875fb4b3146100c3575b600080fd5b61009d6004803603604081101561005157600080fd5b81019080803573ffffffffffffffffffffffffffffffffffffffff169060200190929190803573ffffffffffffffffffffffffffffffffffffffff1690602001909291905050506100f7565b604051808481526020018381526020018215158152602001935050505060405180910390f35b6100cb610329565b604051808273ffffffffffffffffffffffffffffffffffffffff16815260200191505060405180910390f35b600080600042925060008573ffffffffffffffffffffffffffffffffffffffff1663313ce5676040518163ffffffff1660e01b815260040160206040518083038186803b15801561014757600080fd5b505afa15801561015b573d6000803e3d6000fd5b505050506040513d602081101561017157600080fd5b810190808051906020019092919050505060ff16600a0a9050610192610329565b73ffffffffffffffffffffffffffffffffffffffff16634c67e1068783886040518463ffffffff1660e01b8152600401808473ffffffffffffffffffffffffffffffffffffffff1681526020018381526020018273ffffffffffffffffffffffffffffffffffffffff1681526020019350505050602060405180830381600087803b15801561022057600080fd5b505af192505050801561025457506040513d602081101561024057600080fd5b810190808051906020019092919050505060015b61025d57610266565b80935060019250505b60008573ffffffffffffffffffffffffffffffffffffffff1663313ce5676040518163ffffffff1660e01b815260040160206040518083038186803b1580156102ae57600080fd5b505afa1580156102c2573d6000803e3d6000fd5b505050506040513d60208110156102d857600080fd5b810190808051906020019092919050505060ff16905061031e81600a0a610310670de0b6b3a76400008761035190919063ffffffff16565b6103d790919063ffffffff16565b935050509250925092565b60007f0000000000000000000000000000000000000000000000000000000000000000905090565b60008083141561036457600090506103d1565b600082840290508284828161037557fe5b04146103cc576040517f08c379a00000000000000000000000000000000000000000000000000000000081526004018080602001828103825260218152602001806104616021913960400191505060405180910390fd5b809150505b92915050565b600080821161044e576040517f08c379a000000000000000000000000000000000000000000000000000000000815260040180806020018281038252601a8152602001807f536166654d6174683a206469766973696f6e206279207a65726f00000000000081525060200191505060405180910390fd5b81838161045757fe5b0490509291505056fe536166654d6174683a206d756c7469706c69636174696f6e206f766572666c6f77a164736f6c634300060c000a","linkReferences":{}},"methodIdentifiers":{"calcNormalizedAssetValue(address,address)":"572707a6","getValueInterpreter()":"875fb4b3"},"id":306}