{"abi":[{"type":"constructor","inputs":[{"name":"_integrationManager","type":"address","internalType":"address"}],"stateMutability":"nonpayable"},{"type":"function","name":"action","inputs":[{"name":"_vaultProxy","type":"address","internalType":"address"},{"name":"_actionData","type":"bytes","internalType":"bytes"},{"name":"_assetData","type":"bytes","internalType":"bytes"}],"outputs":[],"stateMutability":"nonpayable"},{"type":"function","name":"getIntegrationManager","inputs":[],"outputs":[{"name":"integrationManager_","type":"address","internalType":"address"}],"stateMutability":"view"},{"type":"function","name":"parseAssetsForAction","inputs":[{"name":"_vaultProxy","type":"address","internalType":"address"},{"name":"_selector","type":"bytes4","internalType":"bytes4"},{"name":"_actionData","type":"bytes","internalType":"bytes"}],"outputs":[{"name":"spendAssetsHandleType_","type":"uint8","internalType":"enum IIntegrationManager.SpendAssetsHandleType"},{"name":"spendAssets_","type":"address[]","internalType":"address[]"},{"name":"spendAssetAmounts_","type":"uint256[]","internalType":"uint256[]"},{"name":"incomingAssets_","type":"address[]","internalType":"address[]"},{"name":"minIncomingAssetAmounts_","type":"uint256[]","internalType":"uint256[]"}],"stateMutability":"view"},{"type":"error","name":"MyAdapter__InvalidAction","inputs":[]}],"bytecode":{"object":"0x60a060405234801561001057600080fd5b5060405161087c38038061087c83398101604081905261002f91610075565b6001600160a01b031660805261009e565b60006001600160a01b0382165b92915050565b61005c81610040565b811461006757600080fd5b50565b805161004d81610053565b60006020828403121561008a5761008a600080fd5b6000610096848461006a565b949350505050565b6080516107be6100be60003960008181608a015260c101526107be6000f3fe608060405234801561001057600080fd5b50600436106100415760003560e01c8063a7a19e0014610046578063c54efee51461005b578063e7c4569014610088575b600080fd5b610059610054366004610305565b6100b6565b005b61006e6100693660046103b0565b6101a8565b60405161007f959493929190610523565b60405180910390f35b7f000000000000000000000000000000000000000000000000000000000000000060405161007f919061058a565b336001600160a01b037f000000000000000000000000000000000000000000000000000000000000000016146101075760405162461bcd60e51b81526004016100fe90610598565b60405180910390fd5b60008061011685870187610704565b9092509050600082600181111561012f5761012f61041e565b0361015557610150878280602001905181019061014c919061079d565b5050565b61019f565b60018260018111156101695761016961041e565b0361018657610150878280602001905181019061014c919061079d565b60405163b74d681360e01b815260040160405180910390fd5b50505050505050565b600060608080806001600160e01b031988166253d0cf60e91b146101df5760405163b74d681360e01b815260040160405180910390fd5b6000806101ee888a018a610704565b909250905060008260018111156102075761020761041e565b036102435761023281806020019051810190610223919061079d565b50600090606090819081908190565b965096509650965096505050610273565b60018260018111156102575761025761041e565b036101865761023281806020019051810190610223919061079d565b945094509450945094565b60006001600160a01b0382165b92915050565b61029a8161027e565b81146102a557600080fd5b50565b803561028b81610291565b60008083601f8401126102c8576102c8600080fd5b50813567ffffffffffffffff8111156102e3576102e3600080fd5b6020830191508360018202830111156102fe576102fe600080fd5b9250929050565b60008060008060006060868803121561032057610320600080fd5b600061032c88886102a8565b955050602086013567ffffffffffffffff81111561034c5761034c600080fd5b610358888289016102b3565b9450945050604086013567ffffffffffffffff81111561037a5761037a600080fd5b610386888289016102b3565b92509250509295509295909350565b6001600160e01b0319811661029a565b803561028b81610395565b600080600080606085870312156103c9576103c9600080fd5b60006103d587876102a8565b94505060206103e6878288016103a5565b935050604085013567ffffffffffffffff81111561040657610406600080fd5b610412878288016102b3565b95989497509550505050565b634e487b7160e01b600052602160045260246000fd5b600381106102a5576102a561041e565b8061044e81610434565b919050565b600061028b82610444565b61046781610453565b82525050565b6104678161027e565b6000610482838361046d565b505060200190565b6000610494825190565b80845260209384019383018060005b838110156104c85781516104b78882610476565b9750602083019250506001016104a3565b509495945050505050565b80610467565b600061048283836104d3565b60006104ef825190565b80845260209384019383018060005b838110156104c857815161051288826104d9565b9750602083019250506001016104fe565b60a08101610531828861045e565b8181036020830152610543818761048a565b9050818103604083015261055781866104e5565b9050818103606083015261056b818561048a565b9050818103608083015261057f81846104e5565b979650505050505050565b6020810161028b828461046d565b6020808252810161028b81603281527f4f6e6c792074686520496e746567726174696f6e4d616e616765722063616e2060208201527131b0b636103a3434b990333ab731ba34b7b760711b604082015260600190565b600281106102a557600080fd5b803561028b816105ee565b634e487b7160e01b600052604160045260246000fd5b601f19601f830116810181811067ffffffffffffffff8211171561064257610642610606565b6040525050565b600061065460405190565b905061044e828261061c565b600067ffffffffffffffff82111561067a5761067a610606565b601f19601f83011660200192915050565b82818337506000910152565b60006106aa6106a584610660565b610649565b9050828152602081018484840111156106c5576106c5600080fd5b6106d084828561068b565b509392505050565b600082601f8301126106ec576106ec600080fd5b81356106fc848260208601610697565b949350505050565b6000806040838503121561071a5761071a600080fd5b600061072685856105fb565b925050602083013567ffffffffffffffff81111561074657610746600080fd5b610752858286016106d8565b9150509250929050565b805161028b81610291565b60006020828403121561077c5761077c600080fd5b6107866020610649565b90506000610794848461075c565b82525092915050565b6000602082840312156107b2576107b2600080fd5b60006106fc848461076756","linkReferences":{}},"methodIdentifiers":{"action(address,bytes,bytes)":"a7a19e00","getIntegrationManager()":"e7c45690","parseAssetsForAction(address,bytes4,bytes)":"c54efee5"},"id":207}