{"abi":[{"type":"constructor","inputs":[{"name":"_fundDeployer","type":"address","internalType":"address"},{"name":"_valueInterpreter","type":"address","internalType":"address"},{"name":"_factory","type":"address","internalType":"address"}],"stateMutability":"nonpayable"},{"type":"function","name":"addPoolTokens","inputs":[{"name":"_poolTokens","type":"address[]","internalType":"address[]"}],"outputs":[],"stateMutability":"nonpayable"},{"type":"function","name":"calcUnderlyingValues","inputs":[{"name":"_derivative","type":"address","internalType":"address"},{"name":"_derivativeAmount","type":"uint256","internalType":"uint256"}],"outputs":[{"name":"underlyings_","type":"address[]","internalType":"address[]"},{"name":"underlyingAmounts_","type":"uint256[]","internalType":"uint256[]"}],"stateMutability":"nonpayable"},{"type":"function","name":"getFactory","inputs":[],"outputs":[{"name":"factory_","type":"address","internalType":"address"}],"stateMutability":"view"},{"type":"function","name":"getFundDeployer","inputs":[],"outputs":[{"name":"fundDeployer_","type":"address","internalType":"address"}],"stateMutability":"view"},{"type":"function","name":"getOwner","inputs":[],"outputs":[{"name":"owner_","type":"address","internalType":"address"}],"stateMutability":"view"},{"type":"function","name":"getPoolTokenInfo","inputs":[{"name":"_poolToken","type":"address","internalType":"address"}],"outputs":[{"name":"poolTokenInfo_","type":"tuple","internalType":"struct IUniswapV2PoolPriceFeed.PoolTokenInfo","components":[{"name":"token0","type":"address","internalType":"address"},{"name":"token1","type":"address","internalType":"address"},{"name":"token0Decimals","type":"uint8","internalType":"uint8"},{"name":"token1Decimals","type":"uint8","internalType":"uint8"}]}],"stateMutability":"view"},{"type":"function","name":"getPoolTokenUnderlyings","inputs":[{"name":"_poolToken","type":"address","internalType":"address"}],"outputs":[{"name":"token0_","type":"address","internalType":"address"},{"name":"token1_","type":"address","internalType":"address"}],"stateMutability":"view"},{"type":"function","name":"getValueInterpreter","inputs":[],"outputs":[{"name":"valueInterpreter_","type":"address","internalType":"address"}],"stateMutability":"view"},{"type":"function","name":"isSupportedAsset","inputs":[{"name":"_asset","type":"address","internalType":"address"}],"outputs":[{"name":"isSupported_","type":"bool","internalType":"bool"}],"stateMutability":"view"},{"type":"event","name":"PoolTokenAdded","inputs":[{"name":"poolToken","type":"address","indexed":true,"internalType":"address"},{"name":"token0","type":"address","indexed":false,"internalType":"address"},{"name":"token1","type":"address","indexed":false,"internalType":"address"}],"anonymous":false}],"bytecode":{"object":"0x60e06040523480156200001157600080fd5b5060405162001c0b38038062001c0b83398101604081905262000034916200006e565b6001600160601b0319606093841b811660805290831b811660a052911b1660c052620000ee565b80516200006881620000d4565b92915050565b6000806000606084860312156200008457600080fd5b60006200009286866200005b565b9350506020620000a5868287016200005b565b9250506040620000b8868287016200005b565b9150509250925092565b60006001600160a01b03821662000068565b620000df81620000c2565b8114620000eb57600080fd5b50565b60805160601c60a05160601c60c05160601c611ac9620001426000398061084452806109785280610bbb5280610c785280610d28525080610783528061086852508061088e52806109245250611ac96000f3fe608060405234801561001057600080fd5b50600436106100935760003560e01c8063875fb4b311610066578063875fb4b31461011857806388cc58e41461012d578063893d20e81461013557806397c0ac871461013d5780639be918e61461014557610093565b806301b453e51461009857806332db4ed5146100c257806367e0e076146100d7578063727212f6146100f7575b600080fd5b6100ab6100a6366004611410565b610165565b6040516100b9929190611917565b60405180910390f35b6100d56100d036600461148e565b61018f565b005b6100ea6100e5366004611410565b610605565b6040516100b99190611a1d565b61010a610105366004611454565b61066d565b6040516100b992919061195a565b610120610842565b6040516100b99190611909565b610120610866565b61012061088a565b610120610922565b610158610153366004611410565b610946565b6040516100b9919061197f565b6001600160a01b039081166000908152602081905260409020805460019091015490821692911690565b61019761088a565b6001600160a01b0316336001600160a01b0316146101d05760405162461bcd60e51b81526004016101c79061198d565b60405180910390fd5b806101ed5760405162461bcd60e51b81526004016101c7906119fd565b60005b8181101561060057600083838381811061020657fe5b905060200201602081019061021b9190611410565b6001600160a01b031614156102425760405162461bcd60e51b81526004016101c790611a0d565b6000808085858581811061025257fe5b90506020020160208101906102679190611410565b6001600160a01b03908116825260208201929092526040016000205416146102a15760405162461bcd60e51b81526004016101c7906119ed565b60008383838181106102af57fe5b90506020020160208101906102c49190611410565b90506000816001600160a01b0316630dfe16816040518163ffffffff1660e01b815260040160206040518083038186803b15801561030157600080fd5b505afa158015610315573d6000803e3d6000fd5b505050506040513d601f19601f820116820180604052508101906103399190611436565b90506000826001600160a01b031663d21220a76040518163ffffffff1660e01b815260040160206040518083038186803b15801561037657600080fd5b505afa15801561038a573d6000803e3d6000fd5b505050506040513d601f19601f820116820180604052508101906103ae9190611436565b90506103ba8282610966565b6103d65760405162461bcd60e51b81526004016101c7906119bd565b6040518060800160405280836001600160a01b03168152602001826001600160a01b03168152602001836001600160a01b031663313ce5676040518163ffffffff1660e01b815260040160206040518083038186803b15801561043857600080fd5b505afa15801561044c573d6000803e3d6000fd5b505050506040513d601f19601f820116820180604052508101906104709190611559565b60ff168152602001826001600160a01b031663313ce5676040518163ffffffff1660e01b815260040160206040518083038186803b1580156104b157600080fd5b505afa1580156104c5573d6000803e3d6000fd5b505050506040513d601f19601f820116820180604052508101906104e99190611559565b60ff1690526000808888888181106104fd57fe5b90506020020160208101906105129190611410565b6001600160a01b0390811682526020808301939093526040918201600020845181546001600160a01b03199081169184169190911782559385015160019091018054938601516060909601519390941691161760ff60a01b1916600160a01b60ff948516021760ff60a81b1916600160a81b939091169290920291909117905585858581811061059e57fe5b90506020020160208101906105b39190611410565b6001600160a01b03167f2d64d749034284f79591001c60e51eeab7a396decc5296df21e417306e9d92bf83836040516105ed929190611917565b60405180910390a25050506001016101f0565b505050565b61060d61134f565b506001600160a01b038082166000908152602081815260409182902082516080810184528154851681526001909101549384169181019190915260ff600160a01b8404811692820192909252600160a81b9092041660608201525b919050565b60608061067861134f565b506001600160a01b038481166000908152602081815260409182902082516080810184528154851681526001909101549384168183015260ff600160a01b8504811682850152600160a81b9094049093166060808501919091528251600280825291810184529290918301908036833701905050925080600001518360008151811061070057fe5b60200260200101906001600160a01b031690816001600160a01b03168152505080602001518360018151811061073257fe5b60200260200101906001600160a01b031690816001600160a01b03168152505060008061077783600001518460200151856040015160ff16866060015160ff16610bb6565b915091506000806107aa7f00000000000000000000000000000000000000000000000000000000000000008a8686610dbf565b604080516002808252606082019092529294509092508160200160208202803683370190505095506107ee670de0b6b3a76400006107e88a85610def565b90610e30565b866000815181106107fb57fe5b602090810291909101015261081c670de0b6b3a76400006107e88a84610def565b8660018151811061082957fe5b60200260200101818152505050505050505b9250929050565b7f000000000000000000000000000000000000000000000000000000000000000090565b7f000000000000000000000000000000000000000000000000000000000000000090565b60007f00000000000000000000000000000000000000000000000000000000000000006001600160a01b031663893d20e86040518163ffffffff1660e01b815260040160206040518083038186803b1580156108e557600080fd5b505afa1580156108f9573d6000803e3d6000fd5b505050506040513d601f19601f8201168201806040525081019061091d9190611436565b905090565b7f000000000000000000000000000000000000000000000000000000000000000090565b6001600160a01b0390811660009081526020819052604090205416151590565b604051631892df1d60e31b81526000907f0000000000000000000000000000000000000000000000000000000000000000906001600160a01b0382169063c496f8e8906109b7908790600401611909565b60206040518083038186803b1580156109cf57600080fd5b505afa1580156109e3573d6000803e3d6000fd5b505050506040513d601f19601f82011682018060405250810190610a0791906114d0565b15610a9c57604051634df48c7360e11b81526001600160a01b03821690639be918e690610a38908690600401611909565b60206040518083038186803b158015610a5057600080fd5b505afa158015610a64573d6000803e3d6000fd5b505050506040513d601f19601f82011682018060405250810190610a8891906114d0565b15610a97576001915050610bb0565b610baa565b6040516364b01dc160e01b81526001600160a01b038216906364b01dc190610ac8908790600401611909565b60206040518083038186803b158015610ae057600080fd5b505afa158015610af4573d6000803e3d6000fd5b505050506040513d601f19601f82011682018060405250810190610b1891906114d0565b8015610b9b5750604051631892df1d60e31b81526001600160a01b0382169063c496f8e890610b4b908690600401611909565b60206040518083038186803b158015610b6357600080fd5b505afa158015610b77573d6000803e3d6000fd5b505050506040513d601f19601f82011682018060405250810190610b9b91906114d0565b15610baa576001915050610bb0565b60009150505b92915050565b6000807f00000000000000000000000000000000000000000000000000000000000000006001600160a01b031663c496f8e8876040518263ffffffff1660e01b8152600401610c059190611909565b60206040518083038186803b158015610c1d57600080fd5b505afa158015610c31573d6000803e3d6000fd5b505050506040513d601f19601f82011682018060405250810190610c5591906114d0565b15610d0a5750604051632633f08360e11b8152600a83900a906001600160a01b037f00000000000000000000000000000000000000000000000000000000000000001690634c67e10690610cb190889085908b90600401611932565b602060405180830381600087803b158015610ccb57600080fd5b505af1158015610cdf573d6000803e3d6000fd5b505050506040513d601f19601f82011682018060405250810190610d03919061153b565b9150610db6565b604051632633f08360e11b8152600a85900a92506001600160a01b037f00000000000000000000000000000000000000000000000000000000000000001690634c67e10690610d6190899086908a90600401611932565b602060405180830381600087803b158015610d7b57600080fd5b505af1158015610d8f573d6000803e3d6000fd5b505050506040513d601f19601f82011682018060405250810190610db3919061153b565b90505b94509492505050565b600080600080610dd0878787610e62565b91509150610de088888484610f71565b93509350505094509492505050565b600082610dfe57506000610bb0565b82820282848281610e0b57fe5b0414610e295760405162461bcd60e51b81526004016101c7906119dd565b9392505050565b6000808211610e515760405162461bcd60e51b81526004016101c7906119cd565b818381610e5a57fe5b049392505050565b600080846001600160a01b0316630902f1ac6040518163ffffffff1660e01b815260040160606040518083038186803b158015610e9e57600080fd5b505afa158015610eb2573d6000803e3d6000fd5b505050506040513d601f19601f82011682018060405250810190610ed691906114ee565b506001600160701b039182169350169050600080610ef68686868661119e565b915091508060001415610f0a575050610f69565b8115610f3d576000610f1d828686611269565b9050610f2985836112b1565b9450610f3584826112d6565b935050610f66565b6000610f4a828587611269565b9050610f5684836112b1565b9350610f6285826112d6565b9450505b50505b935093915050565b60008060008590506000816001600160a01b03166318160ddd6040518163ffffffff1660e01b815260040160206040518083038186803b158015610fb457600080fd5b505afa158015610fc8573d6000803e3d6000fd5b505050506040513d601f19601f82011682018060405250810190610fec919061153b565b905060006001600160a01b0316886001600160a01b031663017e7e586040518163ffffffff1660e01b815260040160206040518083038186803b15801561103257600080fd5b505afa158015611046573d6000803e3d6000fd5b505050506040513d601f19601f8201168201806040525081019061106a9190611436565b6001600160a01b031614611172576000826001600160a01b0316637464fc3d6040518163ffffffff1660e01b815260040160206040518083038186803b1580156110b357600080fd5b505afa1580156110c7573d6000803e3d6000fd5b505050506040513d601f19601f820116820180604052508101906110eb919061153b565b905080156111705760006111076111028989610def565b6112fe565b90506000611114836112fe565b90508082111561116d57600061113461112d84846112d6565b8690610def565b9050600061114d83611147866005610def565b906112b1565b9050600061115b8383610e30565b905061116787826112b1565b96505050505b50505b505b611188816107e888670de0b6b3a7640000610def565b610de0826107e888670de0b6b3a7640000610def565b600080856111b0846107e88789610def565b1091506000808315611201576111e66111026111ce896103e5610def565b6107e86103e86111e08d818d8d610def565b90610def565b91506111fa6103e56107e8886103e8610def565b905061123c565b6112256111026112138a6103e5610def565b6107e86103e86111e08c818d8d610def565b91506112396103e56107e8876103e8610def565b90505b8082101561125257600080935093505050610db6565b61125c82826112d6565b9250505094509492505050565b600080611278856103e5610def565b905060006112868285610def565b9050600061129a83611147886103e8610def565b90506112a68282610e30565b979650505050505050565b600082820183811015610e295760405162461bcd60e51b81526004016101c79061199d565b6000828211156112f85760405162461bcd60e51b81526004016101c7906119ad565b50900390565b60006003821115611341575080600160028204015b8181101561133b5780915060028182858161132a57fe5b04018161133357fe5b049050611313565b50610668565b811561066857506001919050565b60408051608081018252600080825260208201819052918101829052606081019190915290565b8035610bb081611a78565b8051610bb081611a78565b60008083601f84011261139e57600080fd5b50813567ffffffffffffffff8111156113b657600080fd5b60208301915083602082028301111561083b57600080fd5b8051610bb081611a8f565b8051610bb081611a98565b8035610bb081611aa1565b8051610bb081611aa1565b8051610bb081611aaa565b8051610bb081611ab3565b60006020828403121561142257600080fd5b600061142e8484611376565b949350505050565b60006020828403121561144857600080fd5b600061142e8484611381565b6000806040838503121561146757600080fd5b60006114738585611376565b9250506020611484858286016113e4565b9150509250929050565b600080602083850312156114a157600080fd5b823567ffffffffffffffff8111156114b857600080fd5b6114c48582860161138c565b92509250509250929050565b6000602082840312156114e257600080fd5b600061142e84846113ce565b60008060006060848603121561150357600080fd5b600061150f86866113d9565b9350506020611520868287016113d9565b9250506040611531868287016113fa565b9150509250925092565b60006020828403121561154d57600080fd5b600061142e84846113ef565b60006020828403121561156b57600080fd5b600061142e8484611405565b60006115838383611597565b505060200190565b600061158383836118f7565b6115a081611a3e565b82525050565b60006115b182611a31565b6115bb8185611a35565b93506115c683611a2b565b8060005b838110156115f45781516115de8882611577565b97506115e983611a2b565b9250506001016115ca565b509495945050505050565b600061160a82611a31565b6116148185611a35565b935061161f83611a2b565b8060005b838110156115f4578151611637888261158b565b975061164283611a2b565b925050600101611623565b6115a081611a49565b6000611663604983611a35565b7f6f6e6c7946756e644465706c6f7965724f776e65723a204f6e6c79207468652081527f46756e644465706c6f796572206f776e65722063616e2063616c6c207468697360208201526810333ab731ba34b7b760b91b604082015260600192915050565b60006116d4601b83611a35565b7f536166654d6174683a206164646974696f6e206f766572666c6f770000000000815260200192915050565b600061170d601e83611a35565b7f536166654d6174683a207375627472616374696f6e206f766572666c6f770000815260200192915050565b6000611746602583611a35565b7f616464506f6f6c546f6b656e733a20556e737570706f7274656420706f6f6c208152643a37b5b2b760d91b602082015260400192915050565b600061178d601a83611a35565b7f536166654d6174683a206469766973696f6e206279207a65726f000000000000815260200192915050565b60006117c6602183611a35565b7f536166654d6174683a206d756c7469706c69636174696f6e206f766572666c6f8152607760f81b602082015260400192915050565b6000611809602083611a35565b7f616464506f6f6c546f6b656e733a2056616c756520616c726561647920736574815260200192915050565b6000611842602083611a35565b7f616464506f6f6c546f6b656e733a20456d707479205f706f6f6c546f6b656e73815260200192915050565b600061187b601e83611a35565b7f616464506f6f6c546f6b656e733a20456d70747920706f6f6c546f6b656e0000815260200192915050565b805160808301906118b88482611597565b5060208201516118cb6020850182611597565b5060408201516118de6040850182611900565b5060608201516118f16060850182611900565b50505050565b6115a081611a66565b6115a081611a72565b60208101610bb08284611597565b604081016119258285611597565b610e296020830184611597565b606081016119408286611597565b61194d60208301856118f7565b61142e6040830184611597565b6040808252810161196b81856115a6565b9050818103602083015261142e81846115ff565b60208101610bb0828461164d565b60208082528101610bb081611656565b60208082528101610bb0816116c7565b60208082528101610bb081611700565b60208082528101610bb081611739565b60208082528101610bb081611780565b60208082528101610bb0816117b9565b60208082528101610bb0816117fc565b60208082528101610bb081611835565b60208082528101610bb08161186e565b60808101610bb082846118a7565b60200190565b5190565b90815260200190565b6000610bb082611a5a565b151590565b6001600160701b031690565b6001600160a01b031690565b90565b63ffffffff1690565b60ff1690565b611a8181611a3e565b8114611a8c57600080fd5b50565b611a8181611a49565b611a8181611a4e565b611a8181611a66565b611a8181611a69565b611a8181611a7256fea164736f6c634300060c000a","linkReferences":{}},"methodIdentifiers":{"addPoolTokens(address[])":"32db4ed5","calcUnderlyingValues(address,uint256)":"727212f6","getFactory()":"88cc58e4","getFundDeployer()":"97c0ac87","getOwner()":"893d20e8","getPoolTokenInfo(address)":"67e0e076","getPoolTokenUnderlyings(address)":"01b453e5","getValueInterpreter()":"875fb4b3","isSupportedAsset(address)":"9be918e6"},"id":237}