{"abi":[{"type":"constructor","inputs":[{"name":"_fundDeployer","type":"address","internalType":"address"}],"stateMutability":"nonpayable"},{"type":"function","name":"getFeeBpsDefault","inputs":[],"outputs":[{"name":"feeBpsDefault_","type":"uint256","internalType":"uint256"}],"stateMutability":"view"},{"type":"function","name":"getFeeBpsForVault","inputs":[{"name":"_vaultProxy","type":"address","internalType":"address"}],"outputs":[{"name":"feeBps_","type":"uint256","internalType":"uint256"}],"stateMutability":"view"},{"type":"function","name":"getFeeBpsOverrideForVault","inputs":[{"name":"_vaultProxy","type":"address","internalType":"address"}],"outputs":[{"name":"feeBpsOverride_","type":"uint256","internalType":"uint256"}],"stateMutability":"view"},{"type":"function","name":"getFundDeployer","inputs":[],"outputs":[{"name":"fundDeployer_","type":"address","internalType":"address"}],"stateMutability":"view"},{"type":"function","name":"getLastPaidForVault","inputs":[{"name":"_vaultProxy","type":"address","internalType":"address"}],"outputs":[{"name":"lastPaid_","type":"uint256","internalType":"uint256"}],"stateMutability":"view"},{"type":"function","name":"getOwner","inputs":[],"outputs":[{"name":"owner_","type":"address","internalType":"address"}],"stateMutability":"view"},{"type":"function","name":"initializeForVault","inputs":[{"name":"_vaultProxy","type":"address","internalType":"address"}],"outputs":[],"stateMutability":"nonpayable"},{"type":"function","name":"payFee","inputs":[],"outputs":[{"name":"sharesDue_","type":"uint256","internalType":"uint256"}],"stateMutability":"nonpayable"},{"type":"function","name":"setFeeBpsDefault","inputs":[{"name":"_nextFeeBpsDefault","type":"uint256","internalType":"uint256"}],"outputs":[],"stateMutability":"nonpayable"},{"type":"function","name":"setFeeBpsOverrideForVault","inputs":[{"name":"_vaultProxy","type":"address","internalType":"address"},{"name":"_nextFeeBpsOverride","type":"uint256","internalType":"uint256"}],"outputs":[],"stateMutability":"nonpayable"},{"type":"function","name":"setLastPaidForVault","inputs":[{"name":"_vaultProxy","type":"address","internalType":"address"},{"name":"_nextTimestamp","type":"uint256","internalType":"uint256"}],"outputs":[],"stateMutability":"nonpayable"},{"type":"event","name":"FeeBpsDefaultSet","inputs":[{"name":"nextFeeBpsDefault","type":"uint256","indexed":false,"internalType":"uint256"}],"anonymous":false},{"type":"event","name":"FeeBpsOverrideSetForVault","inputs":[{"name":"vaultProxy","type":"address","indexed":true,"internalType":"address"},{"name":"nextFeeBpsOverride","type":"uint256","indexed":false,"internalType":"uint256"}],"anonymous":false},{"type":"event","name":"FeePaidForVault","inputs":[{"name":"vaultProxy","type":"address","indexed":true,"internalType":"address"},{"name":"sharesAmount","type":"uint256","indexed":false,"internalType":"uint256"},{"name":"secondsPaid","type":"uint256","indexed":false,"internalType":"uint256"}],"anonymous":false},{"type":"event","name":"InitializedForVault","inputs":[{"name":"vaultProxy","type":"address","indexed":false,"internalType":"address"}],"anonymous":false},{"type":"event","name":"LastPaidSetForVault","inputs":[{"name":"vaultProxy","type":"address","indexed":true,"internalType":"address"},{"name":"prevTimestamp","type":"uint256","indexed":false,"internalType":"uint256"},{"name":"nextTimestamp","type":"uint256","indexed":false,"internalType":"uint256"}],"anonymous":false}],"bytecode":{"object":"0x60a060405234801561001057600080fd5b50604051610b74380380610b748339818101604052602081101561003357600080fd5b5051606081901b6001600160601b0319166080526001600160a01b0316610b0861006c6000398061055052806105da5250610b086000f3fe608060405234801561001057600080fd5b50600436106100a95760003560e01c806397c0ac871161007157806397c0ac871461015d5780639f17818814610165578063b69f36521461018b578063bcdba20a146101b1578063f033ac56146101b9578063f8fc2961146101e5576100a9565b80630a48e041146100ae578063137e8d9b146100d657806329610252146100f35780637c73c6991461010d578063893d20e814610139575b600080fd5b6100d4600480360360208110156100c457600080fd5b50356001600160a01b031661020b565b005b6100d4600480360360208110156100ec57600080fd5b50356102ab565b6100fb610393565b60408051918252519081900360200190f35b6100d46004803603604081101561012357600080fd5b506001600160a01b038135169060200135610461565b61014161054c565b604080516001600160a01b039092168252519081900360200190f35b6101416105d8565b6100fb6004803603602081101561017b57600080fd5b50356001600160a01b03166105fc565b6100fb600480360360208110156101a157600080fd5b50356001600160a01b031661061b565b6100fb610636565b6100d4600480360360408110156101cf57600080fd5b506001600160a01b03813516906020013561063c565b6100fb600480360360208110156101fb57600080fd5b50356001600160a01b0316610779565b6102136105d8565b6001600160a01b0316336001600160a01b0316146102625760405162461bcd60e51b815260040180806020018281038252602c815260200180610a90602c913960400191505060405180910390fd5b61026c8142610799565b604080516001600160a01b038316815290517fd3ba69979a943b00f5eea9e34dba3f3104dcf0c16890e7d8c693a0d52de074589181900360200190a150565b6102b361054c565b6001600160a01b0316336001600160a01b0316146103025760405162461bcd60e51b81526004018080602001828103825260498152602001806109ae6049913960600191505060405180910390fd5b6127108110610358576040805162461bcd60e51b815260206004820152601d60248201527f73657444656661756c744665654270733a2045786365656473206d6178000000604482015290519081900360640190fd5b60008190556040805182815290517f39c6a3e3a79878fee4b8deeec6702a2c4971f2bdcb4bb41aa2b6cf58c9905e5d9181900360200190a150565b600033816103a08261061b565b90504281106103b45760009250505061045e565b600081116103f35760405162461bcd60e51b81526004018080602001828103825260228152602001806109f76022913960400191505060405180910390fd5b60006103ff42836107b5565b905061040b8382610812565b93506104178342610799565b604080518581526020810183905281516001600160a01b038616927f1e6728e7f6ab409f42c28a298d4691e94f5426e54658999f76770bff70e56eaf928290030190a25050505b90565b61046961054c565b6001600160a01b0316336001600160a01b0316146104b85760405162461bcd60e51b81526004018080602001828103825260498152602001806109ae6049913960600191505060405180910390fd5b61271081106104f85760405162461bcd60e51b8152600401808060200182810382526026815260200180610a196026913960400191505060405180910390fd5b6001600160a01b038216600081815260016020908152604091829020849055815184815291517fb1a79d5ffbf14d3dbd6507eb9ea97f172baa93ff87773c8a9613841bcf3632759281900390910190a25050565b60007f00000000000000000000000000000000000000000000000000000000000000006001600160a01b031663893d20e86040518163ffffffff1660e01b815260040160206040518083038186803b1580156105a757600080fd5b505afa1580156105bb573d6000803e3d6000fd5b505050506040513d60208110156105d157600080fd5b5051905090565b7f000000000000000000000000000000000000000000000000000000000000000090565b6001600160a01b0381166000908152600160205260409020545b919050565b6001600160a01b031660009081526002602052604090205490565b60005490565b61064461054c565b6001600160a01b0316336001600160a01b0316146106935760405162461bcd60e51b81526004018080602001828103825260498152602001806109ae6049913960600191505060405180910390fd5b600061069e8361061b565b9050600081116106df5760405162461bcd60e51b8152600401808060200182810382526030815260200180610a3f6030913960400191505060405180910390fd5b808211806106ec57504282115b6107275760405162461bcd60e51b8152600401808060200182810382526040815260200180610abc6040913960400191505060405180910390fd5b6107318383610799565b604080518281526020810184905281516001600160a01b038616927fbcfa0c3d77a6e27e439a116566a0dd57d1f2c68d510dc877c6ac541b5275a9cf928290030190a2505050565b6000610784826105fc565b90508061061657610793610636565b92915050565b6001600160a01b03909116600090815260026020526040902055565b60008282111561080c576040805162461bcd60e51b815260206004820152601e60248201527f536166654d6174683a207375627472616374696f6e206f766572666c6f770000604482015290519081900360640190fd5b50900390565b600080836001600160a01b03166318160ddd6040518163ffffffff1660e01b815260040160206040518083038186803b15801561084e57600080fd5b505afa158015610862573d6000803e3d6000fd5b505050506040513d602081101561087857600080fd5b5051905060006108ad6127106108a76301e187e081886108a161089a8c610779565b89906108e6565b906108e6565b90610946565b905060006108bb83836107b5565b9050806108ce5760009350505050610793565b6108dc816108a784866108e6565b9695505050505050565b6000826108f557506000610793565b8282028284828161090257fe5b041461093f5760405162461bcd60e51b8152600401808060200182810382526021815260200180610a6f6021913960400191505060405180910390fd5b9392505050565b600080821161099c576040805162461bcd60e51b815260206004820152601a60248201527f536166654d6174683a206469766973696f6e206279207a65726f000000000000604482015290519081900360640190fd5b8183816109a557fe5b04939250505056fe6f6e6c7946756e644465706c6f7965724f776e65723a204f6e6c79207468652046756e644465706c6f796572206f776e65722063616e2063616c6c20746869732066756e6374696f6e7061794665653a205661756c7450726f7879206e6f7420696e697469616c697a65647365744665654270734f76657272696465466f725661756c743a2045786365656473206d61787365744c61737450616964466f725661756c743a205f7661756c7450726f7879206e6f7420696e697469616c697a6564536166654d6174683a206d756c7469706c69636174696f6e206f766572666c6f774f6e6c79207468652046756e644465706c6f7965722063616e2063616c6c20746869732066756e6374696f6e7365744c61737450616964466f725661756c743a2043616e206f6e6c7920696e637265617365206f72207365742061206675747572652074696d657374616d70a164736f6c634300060c000a","linkReferences":{}},"methodIdentifiers":{"getFeeBpsDefault()":"bcdba20a","getFeeBpsForVault(address)":"f8fc2961","getFeeBpsOverrideForVault(address)":"9f178188","getFundDeployer()":"97c0ac87","getLastPaidForVault(address)":"b69f3652","getOwner()":"893d20e8","initializeForVault(address)":"0a48e041","payFee()":"29610252","setFeeBpsDefault(uint256)":"137e8d9b","setFeeBpsOverrideForVault(address,uint256)":"7c73c699","setLastPaidForVault(address,uint256)":"f033ac56"},"id":276}