{"abi":[{"type":"constructor","inputs":[{"name":"_aavePoolAddressProviderAddress","type":"address","internalType":"address"},{"name":"_aaveReferralCode","type":"uint16","internalType":"uint16"}],"stateMutability":"nonpayable"},{"type":"function","name":"AAVE_REFERRAL_CODE","inputs":[],"outputs":[{"name":"","type":"uint16","internalType":"uint16"}],"stateMutability":"view"},{"type":"function","name":"ADDRESSES_PROVIDER","inputs":[],"outputs":[{"name":"","type":"address","internalType":"address"}],"stateMutability":"view"},{"type":"function","name":"POOL","inputs":[],"outputs":[{"name":"poolAddress_","type":"address","internalType":"address"}],"stateMutability":"view"},{"type":"function","name":"executeOperation","inputs":[{"name":"_assets","type":"address[]","internalType":"address[]"},{"name":"_amounts","type":"uint256[]","internalType":"uint256[]"},{"name":"_premiums","type":"uint256[]","internalType":"uint256[]"},{"name":"_initiator","type":"address","internalType":"address"},{"name":"_params","type":"bytes","internalType":"bytes"}],"outputs":[{"name":"success_","type":"bool","internalType":"bool"}],"stateMutability":"nonpayable"},{"type":"function","name":"flashLoan","inputs":[{"name":"_assets","type":"address[]","internalType":"address[]"},{"name":"_amounts","type":"uint256[]","internalType":"uint256[]"},{"name":"_encodedCalls","type":"bytes","internalType":"bytes"}],"outputs":[],"stateMutability":"nonpayable"},{"type":"function","name":"getBorrowedAssetsRecipient","inputs":[],"outputs":[{"name":"borrowedAssetsRecipient_","type":"address","internalType":"address"}],"stateMutability":"view"},{"type":"function","name":"getOwner","inputs":[],"outputs":[{"name":"owner_","type":"address","internalType":"address"}],"stateMutability":"view"},{"type":"function","name":"init","inputs":[{"name":"_owner","type":"address","internalType":"address"},{"name":"_borrowedAssetsRecipient","type":"address","internalType":"address"}],"outputs":[],"stateMutability":"nonpayable"},{"type":"event","name":"BorrowedAssetsRecipientSet","inputs":[{"name":"borrowedAssetsRecipient","type":"address","indexed":false,"internalType":"address"}],"anonymous":false},{"type":"event","name":"OwnerSet","inputs":[{"name":"owner","type":"address","indexed":false,"internalType":"address"}],"anonymous":false},{"type":"error","name":"AaveV3FlashLoanAssetManager__ExecuteOperation__BalanceExceedsRepayment","inputs":[{"name":"balance","type":"uint256","internalType":"uint256"}]},{"type":"error","name":"AaveV3FlashLoanAssetManager__ExecuteOperation__UnauthorizedCaller","inputs":[]},{"type":"error","name":"AaveV3FlashLoanAssetManager__ExecuteOperation__UnauthorizedInitiator","inputs":[]},{"type":"error","name":"AaveV3FlashLoanAssetManager__FlashLoan__Unauthorized","inputs":[]},{"type":"error","name":"AaveV3FlashLoanAssetManager__Init__AlreadyInitialized","inputs":[]}],"bytecode":{"object":"0x60c06040523480156200001157600080fd5b50604051620015463803806200154683398101604081905262000034916200009f565b61ffff166080526001600160a01b031660a052620000e2565b60006001600160a01b0382165b92915050565b6200006b816200004d565b81146200007757600080fd5b50565b80516200005a8162000060565b61ffff81166200006b565b80516200005a8162000087565b60008060408385031215620000b757620000b7600080fd5b6000620000c585856200007a565b9250506020620000d88582860162000092565b9150509250929050565b60805160a05161143262000114600039600081816092015261017401526000818160cf015261028701526114326000f3fe608060405234801561001057600080fd5b50600436106100885760003560e01c8063893d20e81161005b578063893d20e81461011b578063920f5c841461012c578063b34410371461014c578063f09a40161461015d57600080fd5b80630542975c1461008d57806305a363de146100ca5780637535d246146100fe578063788fb48414610106575b600080fd5b6100b47f000000000000000000000000000000000000000000000000000000000000000081565b6040516100c19190610a31565b60405180910390f35b6100f17f000000000000000000000000000000000000000000000000000000000000000081565b6040516100c19190610a49565b6100b4610170565b610119610114366004610af2565b6101f9565b005b6000546001600160a01b03166100b4565b61013f61013a366004610bbe565b610305565b6040516100c19190610cb6565b6001546001600160a01b03166100b4565b61011961016b366004610cc4565b610605565b60007f00000000000000000000000000000000000000000000000000000000000000006001600160a01b031663026b1d5f6040518163ffffffff1660e01b8152600401602060405180830381865afa1580156101d0573d6000803e3d6000fd5b505050506040513d601f19601f820116820180604052508101906101f49190610d0c565b905090565b6000546001600160a01b031633146102245760405163c05b7f7760e01b815260040160405180910390fd5b61022c610170565b6001600160a01b031663ab9c4b5d3088888888826001600160401b0381111561025757610257610d2d565b604051908082528060200260200182016040528015610280578160200160208202803683370190505b5060008a8a7f00000000000000000000000000000000000000000000000000000000000000006040518b63ffffffff1660e01b81526004016102cb9a99989796959493929190610e75565b600060405180830381600087803b1580156102e557600080fd5b505af11580156102f9573d6000803e3d6000fd5b50505050505050505050565b60006001600160a01b03841630146103305760405163f00d10ff60e01b815260040160405180910390fd5b600061033a610170565b9050336001600160a01b0382161461036557604051630589cbd160e41b815260040160405180910390fd5b60006103796001546001600160a01b031690565b905060005b8b8110156104465760008d8d8381811061039a5761039a610eff565b90506020020160208101906103af9190610f15565b905061043383826001600160a01b03166370a08231306040518263ffffffff1660e01b81526004016103e19190610a31565b602060405180830381865afa1580156103fe573d6000803e3d6000fd5b505050506040513d601f19601f820116820180604052508101906104229190610f47565b6001600160a01b0384169190610645565b508061043e81610f7e565b91505061037e565b506000905061045784860186611191565b905060005b81518110156104aa57600082828151811061047957610479610eff565b6020026020010151905061049581600001518260200151610655565b505080806104a290610f7e565b91505061045c565b505060005b8a8110156105f35760008c8c838181106104cb576104cb610eff565b90506020020160208101906104e09190610f15565b905060008989848181106104f6576104f6610eff565b905060200201358c8c8581811061050f5761050f610eff565b9050602002013561052091906111cb565b90506000826001600160a01b03166370a08231306040518263ffffffff1660e01b81526004016105509190610a31565b602060405180830381865afa15801561056d573d6000803e3d6000fd5b505050506040513d601f19601f820116820180604052508101906105919190610f47565b905061059e6002836111cb565b8111156105c95780604051634bf832b360e01b81526004016105c091906111de565b60405180910390fd5b6105dd6001600160a01b03841686846106a2565b50505080806105eb90610f7e565b9150506104af565b5060019b9a5050505050505050505050565b6000546001600160a01b03161561062f576040516378135bed60e01b815260040160405180910390fd5b610638826106ad565b61064181610703565b5050565b61065083838361074e565b505050565b6060610699838360006040518060400160405280601e81526020017f416464726573733a206c6f772d6c6576656c2063616c6c206661696c656400008152506107a4565b90505b92915050565b610650838383610842565b600080546001600160a01b0319166001600160a01b0383161790556040517f50146d0e3c60aa1d17a70635b05494f864e86144a2201275021014fbf08bafe2906106f8908390610a31565b60405180910390a150565b600180546001600160a01b0319166001600160a01b0383161790556040517f7937204cb59c6f900353d0ad24547380dc38d28e483e09c2f4b4b101b495990f906106f8908390610a31565b6106508363a9059cbb60e01b848460405160240161076d9291906111ec565b60408051601f198184030181529190526020810180516001600160e01b03166001600160e01b0319909316929092179091526108f6565b6060824710156107c65760405162461bcd60e51b81526004016105c09061124d565b600080866001600160a01b031685876040516107e291906112a3565b60006040518083038185875af1925050503d806000811461081f576040519150601f19603f3d011682016040523d82523d6000602084013e610824565b606091505b509150915061083587838387610985565b925050505b949350505050565b8015806108bb5750604051636eb1769f60e11b81526001600160a01b0384169063dd62ed3e9061087890309086906004016112af565b602060405180830381865afa158015610895573d6000803e3d6000fd5b505050506040513d601f19601f820116820180604052508101906108b99190610f47565b155b6108d75760405162461bcd60e51b81526004016105c09061131d565b6106508363095ea7b360e01b848460405160240161076d9291906111ec565b600061094b826040518060400160405280602081526020017f5361666545524332303a206c6f772d6c6576656c2063616c6c206661696c6564815250856001600160a01b03166109ce9092919063ffffffff16565b80519091501561065057808060200190518101906109699190611340565b6106505760405162461bcd60e51b81526004016105c0906113a8565b606083156109c45782516000036109bd576001600160a01b0385163b6109bd5760405162461bcd60e51b81526004016105c0906113b8565b508161083a565b61083a83836109e7565b60606109dd84846000856107a4565b90505b9392505050565b8151156109f75781518083602001fd5b8060405162461bcd60e51b81526004016105c09190611421565b60006001600160a01b03821661069c565b610a2b81610a11565b82525050565b6020810161069c8284610a22565b61ffff8116610a2b565b6020810161069c8284610a3f565b60008083601f840112610a6c57610a6c600080fd5b5081356001600160401b03811115610a8657610a86600080fd5b602083019150836020820283011115610aa157610aa1600080fd5b9250929050565b60008083601f840112610abd57610abd600080fd5b5081356001600160401b03811115610ad757610ad7600080fd5b602083019150836001820283011115610aa157610aa1600080fd5b60008060008060008060608789031215610b0e57610b0e600080fd5b86356001600160401b03811115610b2757610b27600080fd5b610b3389828a01610a57565b965096505060208701356001600160401b03811115610b5457610b54600080fd5b610b6089828a01610a57565b945094505060408701356001600160401b03811115610b8157610b81600080fd5b610b8d89828a01610aa8565b92509250509295509295509295565b610ba581610a11565b8114610bb057600080fd5b50565b803561069c81610b9c565b600080600080600080600080600060a08a8c031215610bdf57610bdf600080fd5b89356001600160401b03811115610bf857610bf8600080fd5b610c048c828d01610a57565b995099505060208a01356001600160401b03811115610c2557610c25600080fd5b610c318c828d01610a57565b975097505060408a01356001600160401b03811115610c5257610c52600080fd5b610c5e8c828d01610a57565b95509550506060610c718c828d01610bb3565b93505060808a01356001600160401b03811115610c9057610c90600080fd5b610c9c8c828d01610aa8565b92509250509295985092959850929598565b801515610a2b565b6020810161069c8284610cae565b60008060408385031215610cda57610cda600080fd5b6000610ce68585610bb3565b9250506020610cf785828601610bb3565b9150509250929050565b805161069c81610b9c565b600060208284031215610d2157610d21600080fd5b600061083a8484610d01565b634e487b7160e01b600052604160045260246000fd5b6000610d4f8383610a22565b505060200190565b60006106996020840184610bb3565b8183526000602084019350818060005b85811015610da357610d888284610d57565b610d928882610d43565b975060208301925050600101610d76565b509495945050505050565b82818337505050565b81835260006020840193506001600160fb1b03831115610dd957610dd9600080fd5b602083029250610dea838584610dae565b50500190565b80610a2b565b6000610d4f8383610df0565b6000610e0c825190565b80845260209384019383018060005b83811015610da3578151610e2f8882610df6565b975060208301925050600101610e1b565b82818337506000910152565b8183526000602084019350610e62838584610e40565b601f19601f8401165b9093019392505050565b60e08101610e83828d610a22565b8181036020830152610e96818b8d610d66565b90508181036040830152610eab81898b610db7565b90508181036060830152610ebf8188610e02565b9050610ece6080830187610a22565b81810360a0830152610ee1818587610e4c565b9050610ef060c0830184610a3f565b9b9a5050505050505050505050565b634e487b7160e01b600052603260045260246000fd5b600060208284031215610f2a57610f2a600080fd5b600061083a8484610bb3565b80610ba5565b805161069c81610f36565b600060208284031215610f5c57610f5c600080fd5b600061083a8484610f3c565b634e487b7160e01b600052601160045260246000fd5b60006000198203610f9157610f91610f68565b5060010190565b601f19601f83011681018181106001600160401b0382111715610fbd57610fbd610d2d565b6040525050565b6000610fcf60405190565b9050610fdb8282610f98565b919050565b60006001600160401b03821115610ff957610ff9610d2d565b5060209081020190565b60006001600160401b0382111561101c5761101c610d2d565b601f19601f83011660200192915050565b600061104061103b84611003565b610fc4565b90508281526020810184848401111561105b5761105b600080fd5b611066848285610e40565b509392505050565b600082601f83011261108257611082600080fd5b813561083a84826020860161102d565b6000604082840312156110a7576110a7600080fd5b6110b16040610fc4565b905060006110bf8484610bb3565b82525060208201356001600160401b038111156110de576110de600080fd5b6110ea8482850161106e565b60208301525092915050565b600061110461103b84610fe0565b8381529050602080820190840283018581111561112357611123600080fd5b835b818110156111635780356001600160401b0381111561114657611146600080fd5b8086016111538982611092565b8552505060209283019201611125565b5050509392505050565b600082601f83011261118157611181600080fd5b813561083a8482602086016110f6565b6000602082840312156111a6576111a6600080fd5b81356001600160401b038111156111bf576111bf600080fd5b61083a8482850161116d565b8082018082111561069c5761069c610f68565b6020810161069c8284610df0565b604081016111fa8285610a22565b6109e06020830184610df0565b602681526000602082017f416464726573733a20696e73756666696369656e742062616c616e636520666f8152651c8818d85b1b60d21b602082015291505b5060400190565b6020808252810161069c81611207565b60005b83811015611278578181015183820152602001611260565b50506000910152565b600061128b825190565b61129981856020860161125d565b9290920192915050565b60006109e08284611281565b604081016112bd8285610a22565b6109e06020830184610a22565b603681526000602082017f5361666545524332303a20617070726f76652066726f6d206e6f6e2d7a65726f81527520746f206e6f6e2d7a65726f20616c6c6f77616e636560501b60208201529150611246565b6020808252810161069c816112ca565b801515610ba5565b805161069c8161132d565b60006020828403121561135557611355600080fd5b600061083a8484611335565b602a81526000602082017f5361666545524332303a204552433230206f7065726174696f6e20646964206e8152691bdd081cdd58d8d9595960b21b60208201529150611246565b6020808252810161069c81611361565b6020808252810161069c81601d81527f416464726573733a2063616c6c20746f206e6f6e2d636f6e7472616374000000602082015260400190565b60006113fd825190565b80845260208401935061141481856020860161125d565b601f19601f820116610e6b565b6020808252810161069981846113f356","linkReferences":{}},"methodIdentifiers":{"AAVE_REFERRAL_CODE()":"05a363de","ADDRESSES_PROVIDER()":"0542975c","POOL()":"7535d246","executeOperation(address[],uint256[],uint256[],address,bytes)":"920f5c84","flashLoan(address[],uint256[],bytes)":"788fb484","getBorrowedAssetsRecipient()":"b3441037","getOwner()":"893d20e8","init(address,address)":"f09a4016"},"id":74}