{"abi":[{"type":"constructor","inputs":[{"name":"_aavePoolAddressProviderAddress","type":"address","internalType":"address"},{"name":"_aaveReferralCode","type":"uint16","internalType":"uint16"}],"stateMutability":"nonpayable"},{"type":"function","name":"AAVE_REFERRAL_CODE","inputs":[],"outputs":[{"name":"","type":"uint16","internalType":"uint16"}],"stateMutability":"view"},{"type":"function","name":"ADDRESSES_PROVIDER","inputs":[],"outputs":[{"name":"","type":"address","internalType":"address"}],"stateMutability":"view"},{"type":"function","name":"POOL","inputs":[],"outputs":[{"name":"poolAddress_","type":"address","internalType":"address"}],"stateMutability":"view"},{"type":"function","name":"executeOperation","inputs":[{"name":"_assets","type":"address[]","internalType":"address[]"},{"name":"_amounts","type":"uint256[]","internalType":"uint256[]"},{"name":"_premiums","type":"uint256[]","internalType":"uint256[]"},{"name":"_initiator","type":"address","internalType":"address"},{"name":"_params","type":"bytes","internalType":"bytes"}],"outputs":[{"name":"success_","type":"bool","internalType":"bool"}],"stateMutability":"nonpayable"},{"type":"function","name":"flashLoan","inputs":[{"name":"_assets","type":"address[]","internalType":"address[]"},{"name":"_amounts","type":"uint256[]","internalType":"uint256[]"},{"name":"_encodedCalls","type":"bytes","internalType":"bytes"}],"outputs":[],"stateMutability":"nonpayable"},{"type":"function","name":"getBorrowedAssetsRecipient","inputs":[],"outputs":[{"name":"borrowedAssetsRecipient_","type":"address","internalType":"address"}],"stateMutability":"view"},{"type":"function","name":"getOwner","inputs":[],"outputs":[{"name":"owner_","type":"address","internalType":"address"}],"stateMutability":"view"},{"type":"function","name":"init","inputs":[{"name":"_owner","type":"address","internalType":"address"},{"name":"_borrowedAssetsRecipient","type":"address","internalType":"address"}],"outputs":[],"stateMutability":"nonpayable"},{"type":"event","name":"BorrowedAssetsRecipientSet","inputs":[{"name":"borrowedAssetsRecipient","type":"address","indexed":false,"internalType":"address"}],"anonymous":false},{"type":"event","name":"OwnerSet","inputs":[{"name":"owner","type":"address","indexed":false,"internalType":"address"}],"anonymous":false},{"type":"error","name":"AaveV3FlashLoanAssetManager__ExecuteOperation__BalanceExceedsRepayment","inputs":[{"name":"balance","type":"uint256","internalType":"uint256"}]},{"type":"error","name":"AaveV3FlashLoanAssetManager__ExecuteOperation__UnauthorizedCaller","inputs":[]},{"type":"error","name":"AaveV3FlashLoanAssetManager__ExecuteOperation__UnauthorizedInitiator","inputs":[]},{"type":"error","name":"AaveV3FlashLoanAssetManager__FlashLoan__Unauthorized","inputs":[]},{"type":"error","name":"AaveV3FlashLoanAssetManager__Init__AlreadyInitialized","inputs":[]}],"bytecode":{"object":"0x60c060405234801561001057600080fd5b506040516112b93803806112b983398101604081905261002f91610047565b61ffff166080526001600160a01b031660a052610094565b6000806040838503121561005a57600080fd5b82516001600160a01b038116811461007157600080fd5b602084015190925061ffff8116811461008957600080fd5b809150509250929050565b60805160a0516111f46100c5600039600081816092015261018401526000818160d6015261029801526111f46000f3fe608060405234801561001057600080fd5b50600436106100885760003560e01c8063893d20e81161005b578063893d20e814610128578063920f5c8414610139578063b34410371461015c578063f09a40161461016d57600080fd5b80630542975c1461008d57806305a363de146100d15780637535d2461461010b578063788fb48414610113575b600080fd5b6100b47f000000000000000000000000000000000000000000000000000000000000000081565b6040516001600160a01b0390911681526020015b60405180910390f35b6100f87f000000000000000000000000000000000000000000000000000000000000000081565b60405161ffff90911681526020016100c8565b6100b4610180565b610126610121366004610bc0565b610209565b005b6000546001600160a01b03166100b4565b61014c610147366004610c72565b610316565b60405190151581526020016100c8565b6001546001600160a01b03166100b4565b61012661017b366004610d4d565b61060e565b60007f00000000000000000000000000000000000000000000000000000000000000006001600160a01b031663026b1d5f6040518163ffffffff1660e01b8152600401602060405180830381865afa1580156101e0573d6000803e3d6000fd5b505050506040513d601f19601f820116820180604052508101906102049190610d86565b905090565b6000546001600160a01b031633146102345760405163c05b7f7760e01b815260040160405180910390fd5b61023c610180565b6001600160a01b031663ab9c4b5d30888888888267ffffffffffffffff81111561026857610268610daa565b604051908082528060200260200182016040528015610291578160200160208202803683370190505b5060008a8a7f00000000000000000000000000000000000000000000000000000000000000006040518b63ffffffff1660e01b81526004016102dc9a99989796959493929190610e56565b600060405180830381600087803b1580156102f657600080fd5b505af115801561030a573d6000803e3d6000fd5b50505050505050505050565b60006001600160a01b03841630146103415760405163f00d10ff60e01b815260040160405180910390fd5b600061034b610180565b9050336001600160a01b0382161461037657604051630589cbd160e41b815260040160405180910390fd5b600061038a6001546001600160a01b031690565b905060005b8b8110156104555760008d8d838181106103ab576103ab610f17565b90506020020160208101906103c09190610f2d565b6040516370a0823160e01b81523060048201529091506104429084906001600160a01b038416906370a0823190602401602060405180830381865afa15801561040d573d6000803e3d6000fd5b505050506040513d601f19601f820116820180604052508101906104319190610f4a565b6001600160a01b038416919061064e565b508061044d81610f79565b91505061038f565b506000905061046684860186610fec565b905060005b81518110156104b957600082828151811061048857610488610f17565b602002602001015190506104a48160000151826020015161065e565b505080806104b190610f79565b91505061046b565b505060005b8a8110156105fc5760008c8c838181106104da576104da610f17565b90506020020160208101906104ef9190610f2d565b9050600089898481811061050557610505610f17565b905060200201358c8c8581811061051e5761051e610f17565b9050602002013561052f919061114c565b6040516370a0823160e01b81523060048201529091506000906001600160a01b038416906370a0823190602401602060405180830381865afa158015610579573d6000803e3d6000fd5b505050506040513d601f19601f8201168201806040525081019061059d9190610f4a565b90506105aa60028361114c565b8111156105d257604051634bf832b360e01b8152600481018290526024015b60405180910390fd5b6105e66001600160a01b03841686846106ab565b50505080806105f490610f79565b9150506104be565b5060019b9a5050505050505050505050565b6000546001600160a01b031615610638576040516378135bed60e01b815260040160405180910390fd5b610641826106b6565b61064a8161070b565b5050565b610659838383610759565b505050565b60606106a2838360006040518060400160405280601e81526020017f416464726573733a206c6f772d6c6576656c2063616c6c206661696c656400008152506107bc565b90505b92915050565b610659838383610899565b600080546001600160a01b0319166001600160a01b0383169081179091556040519081527f50146d0e3c60aa1d17a70635b05494f864e86144a2201275021014fbf08bafe2906020015b60405180910390a150565b600180546001600160a01b0319166001600160a01b0383169081179091556040519081527f7937204cb59c6f900353d0ad24547380dc38d28e483e09c2f4b4b101b495990f90602001610700565b6040516001600160a01b03831660248201526044810182905261065990849063a9059cbb60e01b906064015b60408051601f198184030181529190526020810180516001600160e01b03166001600160e01b0319909316929092179091526109ae565b60608247101561081d5760405162461bcd60e51b815260206004820152602660248201527f416464726573733a20696e73756666696369656e742062616c616e636520666f6044820152651c8818d85b1b60d21b60648201526084016105c9565b600080866001600160a01b031685876040516108399190611183565b60006040518083038185875af1925050503d8060008114610876576040519150601f19603f3d011682016040523d82523d6000602084013e61087b565b606091505b509150915061088c87838387610a80565b925050505b949350505050565b8015806109135750604051636eb1769f60e11b81523060048201526001600160a01b03838116602483015284169063dd62ed3e90604401602060405180830381865afa1580156108ed573d6000803e3d6000fd5b505050506040513d601f19601f820116820180604052508101906109119190610f4a565b155b61097e5760405162461bcd60e51b815260206004820152603660248201527f5361666545524332303a20617070726f76652066726f6d206e6f6e2d7a65726f60448201527520746f206e6f6e2d7a65726f20616c6c6f77616e636560501b60648201526084016105c9565b6040516001600160a01b03831660248201526044810182905261065990849063095ea7b360e01b90606401610785565b6000610a03826040518060400160405280602081526020017f5361666545524332303a206c6f772d6c6576656c2063616c6c206661696c6564815250856001600160a01b0316610af99092919063ffffffff16565b8051909150156106595780806020019051810190610a21919061119f565b6106595760405162461bcd60e51b815260206004820152602a60248201527f5361666545524332303a204552433230206f7065726174696f6e20646964206e6044820152691bdd081cdd58d8d9595960b21b60648201526084016105c9565b60608315610aef578251600003610ae8576001600160a01b0385163b610ae85760405162461bcd60e51b815260206004820152601d60248201527f416464726573733a2063616c6c20746f206e6f6e2d636f6e747261637400000060448201526064016105c9565b5081610891565b6108918383610b08565b606061089184846000856107bc565b815115610b185781518083602001fd5b8060405162461bcd60e51b81526004016105c991906111c1565b60008083601f840112610b4457600080fd5b50813567ffffffffffffffff811115610b5c57600080fd5b6020830191508360208260051b8501011115610b7757600080fd5b9250929050565b60008083601f840112610b9057600080fd5b50813567ffffffffffffffff811115610ba857600080fd5b602083019150836020828501011115610b7757600080fd5b60008060008060008060608789031215610bd957600080fd5b863567ffffffffffffffff80821115610bf157600080fd5b610bfd8a838b01610b32565b90985096506020890135915080821115610c1657600080fd5b610c228a838b01610b32565b90965094506040890135915080821115610c3b57600080fd5b50610c4889828a01610b7e565b979a9699509497509295939492505050565b6001600160a01b0381168114610c6f57600080fd5b50565b600080600080600080600080600060a08a8c031215610c9057600080fd5b893567ffffffffffffffff80821115610ca857600080fd5b610cb48d838e01610b32565b909b50995060208c0135915080821115610ccd57600080fd5b610cd98d838e01610b32565b909950975060408c0135915080821115610cf257600080fd5b610cfe8d838e01610b32565b909750955060608c01359150610d1382610c5a565b90935060808b01359080821115610d2957600080fd5b50610d368c828d01610b7e565b915080935050809150509295985092959850929598565b60008060408385031215610d6057600080fd5b8235610d6b81610c5a565b91506020830135610d7b81610c5a565b809150509250929050565b600060208284031215610d9857600080fd5b8151610da381610c5a565b9392505050565b634e487b7160e01b600052604160045260246000fd5b81835260006001600160fb1b03831115610dd957600080fd5b8260051b80836020870137939093016020019392505050565b600081518084526020808501945080840160005b83811015610e2257815187529582019590820190600101610e06565b509495945050505050565b81835281816020850137506000828201602090810191909152601f909101601f19169091010190565b6001600160a01b038b8116825260e060208084018290529083018b90526000918c916101008501845b8e811015610ea6578435610e9281610c5a565b841682529382019390820190600101610e7f565b508581036040870152610eba818d8f610dc0565b93505050508281036060840152610ed18189610df2565b6001600160a01b0388166080850152905082810360a0840152610ef5818688610e2d565b915050610f0860c083018461ffff169052565b9b9a5050505050505050505050565b634e487b7160e01b600052603260045260246000fd5b600060208284031215610f3f57600080fd5b8135610da381610c5a565b600060208284031215610f5c57600080fd5b5051919050565b634e487b7160e01b600052601160045260246000fd5b600060018201610f8b57610f8b610f63565b5060010190565b6040805190810167ffffffffffffffff81118282101715610fb557610fb5610daa565b60405290565b604051601f8201601f1916810167ffffffffffffffff81118282101715610fe457610fe4610daa565b604052919050565b60006020808385031215610fff57600080fd5b823567ffffffffffffffff8082111561101757600080fd5b818501915085601f83011261102b57600080fd5b81358181111561103d5761103d610daa565b8060051b61104c858201610fbb565b918252838101850191858101908984111561106657600080fd5b86860192505b8383101561113f578235858111156110845760008081fd5b86016040601f19828d03810182131561109d5760008081fd5b6110a5610f92565b8a8401356110b281610c5a565b815283830135898111156110c65760008081fd5b8085019450508d603f8501126110dc5760008081fd5b8a840135898111156110f0576110f0610daa565b6111008c84601f84011601610fbb565b92508083528e848287010111156111175760008081fd5b808486018d85013760009083018c0152808b019190915284525050918601919086019061106c565b9998505050505050505050565b808201808211156106a5576106a5610f63565b60005b8381101561117a578181015183820152602001611162565b50506000910152565b6000825161119581846020870161115f565b9190910192915050565b6000602082840312156111b157600080fd5b81518015158114610da357600080fd5b60208152600082518060208401526111e081604085016020870161115f565b601f01601f1916919091016040019291505056","linkReferences":{}},"methodIdentifiers":{"AAVE_REFERRAL_CODE()":"05a363de","ADDRESSES_PROVIDER()":"0542975c","POOL()":"7535d246","executeOperation(address[],uint256[],uint256[],address,bytes)":"920f5c84","flashLoan(address[],uint256[],bytes)":"788fb484","getBorrowedAssetsRecipient()":"b3441037","getOwner()":"893d20e8","init(address,address)":"f09a4016"},"id":64}