{"abi":[{"type":"constructor","inputs":[{"name":"_fundDeployer","type":"address","internalType":"address"},{"name":"_wethToken","type":"address","internalType":"address"},{"name":"_chainlinkStaleRateThreshold","type":"uint256","internalType":"uint256"}],"stateMutability":"nonpayable"},{"type":"function","name":"addDerivatives","inputs":[{"name":"_derivatives","type":"address[]","internalType":"address[]"},{"name":"_priceFeeds","type":"address[]","internalType":"address[]"}],"outputs":[],"stateMutability":"nonpayable"},{"type":"function","name":"addPrimitives","inputs":[{"name":"_primitives","type":"address[]","internalType":"address[]"},{"name":"_aggregators","type":"address[]","internalType":"address[]"},{"name":"_rateAssets","type":"uint8[]","internalType":"enum IChainlinkPriceFeedMixin.RateAsset[]"}],"outputs":[],"stateMutability":"nonpayable"},{"type":"function","name":"calcCanonicalAssetValue","inputs":[{"name":"_baseAsset","type":"address","internalType":"address"},{"name":"_amount","type":"uint256","internalType":"uint256"},{"name":"_quoteAsset","type":"address","internalType":"address"}],"outputs":[{"name":"value_","type":"uint256","internalType":"uint256"}],"stateMutability":"nonpayable"},{"type":"function","name":"calcCanonicalAssetsTotalValue","inputs":[{"name":"_baseAssets","type":"address[]","internalType":"address[]"},{"name":"_amounts","type":"uint256[]","internalType":"uint256[]"},{"name":"_quoteAsset","type":"address","internalType":"address"}],"outputs":[{"name":"value_","type":"uint256","internalType":"uint256"}],"stateMutability":"nonpayable"},{"type":"function","name":"getAggregatorForPrimitive","inputs":[{"name":"_primitive","type":"address","internalType":"address"}],"outputs":[{"name":"aggregator_","type":"address","internalType":"address"}],"stateMutability":"view"},{"type":"function","name":"getEthUsdAggregator","inputs":[],"outputs":[{"name":"ethUsdAggregator_","type":"address","internalType":"address"}],"stateMutability":"view"},{"type":"function","name":"getFundDeployer","inputs":[],"outputs":[{"name":"fundDeployer_","type":"address","internalType":"address"}],"stateMutability":"view"},{"type":"function","name":"getOwner","inputs":[],"outputs":[{"name":"owner_","type":"address","internalType":"address"}],"stateMutability":"view"},{"type":"function","name":"getPriceFeedForDerivative","inputs":[{"name":"_derivative","type":"address","internalType":"address"}],"outputs":[{"name":"priceFeed_","type":"address","internalType":"address"}],"stateMutability":"view"},{"type":"function","name":"getRateAssetForPrimitive","inputs":[{"name":"_primitive","type":"address","internalType":"address"}],"outputs":[{"name":"rateAsset_","type":"uint8","internalType":"enum IChainlinkPriceFeedMixin.RateAsset"}],"stateMutability":"view"},{"type":"function","name":"getStaleRateThreshold","inputs":[],"outputs":[{"name":"staleRateThreshold_","type":"uint256","internalType":"uint256"}],"stateMutability":"view"},{"type":"function","name":"getUnitForPrimitive","inputs":[{"name":"_primitive","type":"address","internalType":"address"}],"outputs":[{"name":"unit_","type":"uint256","internalType":"uint256"}],"stateMutability":"view"},{"type":"function","name":"getWethToken","inputs":[],"outputs":[{"name":"wethToken_","type":"address","internalType":"address"}],"stateMutability":"view"},{"type":"function","name":"isSupportedAsset","inputs":[{"name":"_asset","type":"address","internalType":"address"}],"outputs":[{"name":"isSupported_","type":"bool","internalType":"bool"}],"stateMutability":"view"},{"type":"function","name":"isSupportedDerivativeAsset","inputs":[{"name":"_asset","type":"address","internalType":"address"}],"outputs":[{"name":"isSupported_","type":"bool","internalType":"bool"}],"stateMutability":"view"},{"type":"function","name":"isSupportedPrimitiveAsset","inputs":[{"name":"_asset","type":"address","internalType":"address"}],"outputs":[{"name":"isSupported_","type":"bool","internalType":"bool"}],"stateMutability":"view"},{"type":"function","name":"removeDerivatives","inputs":[{"name":"_derivatives","type":"address[]","internalType":"address[]"}],"outputs":[],"stateMutability":"nonpayable"},{"type":"function","name":"removePrimitives","inputs":[{"name":"_primitives","type":"address[]","internalType":"address[]"}],"outputs":[],"stateMutability":"nonpayable"},{"type":"function","name":"setEthUsdAggregator","inputs":[{"name":"_nextEthUsdAggregator","type":"address","internalType":"address"}],"outputs":[],"stateMutability":"nonpayable"},{"type":"function","name":"updateDerivatives","inputs":[{"name":"_derivatives","type":"address[]","internalType":"address[]"},{"name":"_priceFeeds","type":"address[]","internalType":"address[]"}],"outputs":[],"stateMutability":"nonpayable"},{"type":"function","name":"updatePrimitives","inputs":[{"name":"_primitives","type":"address[]","internalType":"address[]"},{"name":"_aggregators","type":"address[]","internalType":"address[]"},{"name":"_rateAssets","type":"uint8[]","internalType":"enum IChainlinkPriceFeedMixin.RateAsset[]"}],"outputs":[],"stateMutability":"nonpayable"},{"type":"event","name":"DerivativeAdded","inputs":[{"name":"derivative","type":"address","indexed":true,"internalType":"address"},{"name":"priceFeed","type":"address","indexed":false,"internalType":"address"}],"anonymous":false},{"type":"event","name":"DerivativeRemoved","inputs":[{"name":"derivative","type":"address","indexed":true,"internalType":"address"}],"anonymous":false},{"type":"event","name":"EthUsdAggregatorSet","inputs":[{"name":"prevEthUsdAggregator","type":"address","indexed":false,"internalType":"address"},{"name":"nextEthUsdAggregator","type":"address","indexed":false,"internalType":"address"}],"anonymous":false},{"type":"event","name":"PrimitiveAdded","inputs":[{"name":"primitive","type":"address","indexed":true,"internalType":"address"},{"name":"aggregator","type":"address","indexed":false,"internalType":"address"},{"name":"rateAsset","type":"uint8","indexed":false,"internalType":"enum IChainlinkPriceFeedMixin.RateAsset"},{"name":"unit","type":"uint256","indexed":false,"internalType":"uint256"}],"anonymous":false},{"type":"event","name":"PrimitiveRemoved","inputs":[{"name":"primitive","type":"address","indexed":true,"internalType":"address"}],"anonymous":false}],"bytecode":{"object":"0x60e06040523480156200001157600080fd5b506040516200418a3803806200418a8339818101604052810190620000379190620000ea565b8181848073ffffffffffffffffffffffffffffffffffffffff1660808173ffffffffffffffffffffffffffffffffffffffff1660601b81525050508060a081815250508173ffffffffffffffffffffffffffffffffffffffff1660c08173ffffffffffffffffffffffffffffffffffffffff1660601b815250505050505050620001b2565b600081519050620000cd816200017e565b92915050565b600081519050620000e48162000198565b92915050565b6000806000606084860312156200010057600080fd5b60006200011086828701620000bc565b93505060206200012386828701620000bc565b92505060406200013686828701620000d3565b9150509250925092565b60006200014d8262000154565b9050919050565b600073ffffffffffffffffffffffffffffffffffffffff82169050919050565b6000819050919050565b620001898162000140565b81146200019557600080fd5b50565b620001a38162000174565b8114620001af57600080fd5b50565b60805160601c60a05160c05160601c613fa0620001ea60003980610551525080610cd052508061085252806109ba5250613fa06000f3fe608060405234801561001057600080fd5b50600436106101375760003560e01c806397c0ac87116100b8578063b54fbdaa1161007c578063b54fbdaa14610360578063c496f8e81461037e578063cf0399c8146103ae578063e106264f146103ca578063e2dd0978146103e6578063e35e318e1461041657610137565b806397c0ac87146102aa5780639be918e6146102c8578063a98acadc146102f8578063ae6f52ad14610314578063b3d3af3b1461034457610137565b80636d3b9410116100ff5780636d3b94101461020657806374626f8714610222578063787f256814610240578063893d20e8146102705780638f72b1361461028e57610137565b806339cbb63c1461013c5780634c252f91146101585780634c67e1061461017657806364b01dc1146101a657806368e81c6d146101d6575b600080fd5b61015660048036038101906101519190612b7b565b610446565b005b61016061054d565b60405161016d919061396f565b60405180910390f35b610190600480360381019061018b9190612ae7565b610575565b60405161019d9190613da9565b60405180910390f35b6101c060048036038101906101bb9190612a95565b610651565b6040516101cd9190613a13565b60405180910390f35b6101f060048036038101906101eb9190612a95565b610692565b6040516101fd919061396f565b60405180910390f35b610220600480360381019061021b9190612bf0565b6106fa565b005b61022a61078f565b604051610237919061396f565b60405180910390f35b61025a60048036038101906102559190612a95565b6107b9565b6040516102679190613da9565b60405180910390f35b61027861084e565b604051610285919061396f565b60405180910390f35b6102a860048036038101906102a39190612b36565b6108f3565b005b6102b26109b6565b6040516102bf919061396f565b60405180910390f35b6102e260048036038101906102dd9190612a95565b6109de565b6040516102ef9190613a13565b60405180910390f35b610312600480360381019061030d9190612a95565b610a00565b005b61032e60048036038101906103299190612d00565b610a81565b60405161033b9190613da9565b60405180910390f35b61035e60048036038101906103599190612b7b565b610b7b565b005b610368610ccc565b6040516103759190613da9565b60405180910390f35b61039860048036038101906103939190612a95565b610cf4565b6040516103a59190613a13565b60405180910390f35b6103c860048036038101906103c39190612bf0565b610d73565b005b6103e460048036038101906103df9190612b36565b610dfe565b005b61040060048036038101906103fb9190612a95565b610e81565b60405161040d919061396f565b60405180910390f35b610430600480360381019061042b9190612a95565b610eed565b60405161043d9190613a2e565b60405180910390f35b61044e61084e565b73ffffffffffffffffffffffffffffffffffffffff163373ffffffffffffffffffffffffffffffffffffffff16146104bb576040517f08c379a00000000000000000000000000000000000000000000000000000000081526004016104b290613aa9565b60405180910390fd5b610547848480806020026020016040519081016040528093929190818152602001838360200280828437600081840152601f19601f82011690508083019250505050505050838380806020026020016040519081016040528093929190818152602001838360200280828437600081840152601f19601f82011690508083019250505050505050610f8b565b50505050565b60007f0000000000000000000000000000000000000000000000000000000000000000905090565b60008173ffffffffffffffffffffffffffffffffffffffff168473ffffffffffffffffffffffffffffffffffffffff1614806105b15750600083145b156105be5782905061064a565b6105c782610cf4565b156105de576105d78484846111be565b905061064a565b6105e782610651565b80156105f857506105f784610cf4565b5b1561060f576106088484846112be565b905061064a565b6040517f08c379a000000000000000000000000000000000000000000000000000000000815260040161064190613ae9565b60405180910390fd5b9392505050565b60008073ffffffffffffffffffffffffffffffffffffffff1661067383610692565b73ffffffffffffffffffffffffffffffffffffffff1614159050919050565b60008060008373ffffffffffffffffffffffffffffffffffffffff1673ffffffffffffffffffffffffffffffffffffffff16815260200190815260200160002060009054906101000a900473ffffffffffffffffffffffffffffffffffffffff169050919050565b61070261084e565b73ffffffffffffffffffffffffffffffffffffffff163373ffffffffffffffffffffffffffffffffffffffff161461076f576040517f08c379a000000000000000000000000000000000000000000000000000000000815260040161076690613aa9565b60405180910390fd5b61077986866113d2565b6107878686868686866115ed565b505050505050565b6000600160009054906101000a900473ffffffffffffffffffffffffffffffffffffffff16905090565b60006107c361054d565b73ffffffffffffffffffffffffffffffffffffffff168273ffffffffffffffffffffffffffffffffffffffff16141561080657670de0b6b3a76400009050610849565b600360008373ffffffffffffffffffffffffffffffffffffffff1673ffffffffffffffffffffffffffffffffffffffff1681526020019081526020016000205490505b919050565b60007f000000000000000000000000000000000000000000000000000000000000000073ffffffffffffffffffffffffffffffffffffffff1663893d20e86040518163ffffffff1660e01b815260040160206040518083038186803b1580156108b657600080fd5b505afa1580156108ca573d6000803e3d6000fd5b505050506040513d601f19601f820116820180604052508101906108ee9190612abe565b905090565b6108fb61084e565b73ffffffffffffffffffffffffffffffffffffffff163373ffffffffffffffffffffffffffffffffffffffff1614610968576040517f08c379a000000000000000000000000000000000000000000000000000000000815260040161095f90613aa9565b60405180910390fd5b6109b2828280806020026020016040519081016040528093929190818152602001838360200280828437600081840152601f19601f82011690508083019250505050505050611a68565b5050565b60007f0000000000000000000000000000000000000000000000000000000000000000905090565b60006109e982610cf4565b806109f957506109f882610651565b5b9050919050565b610a0861084e565b73ffffffffffffffffffffffffffffffffffffffff163373ffffffffffffffffffffffffffffffffffffffff1614610a75576040517f08c379a0000000000000000000000000000000000000000000000000000000008152600401610a6c90613aa9565b60405180910390fd5b610a7e81611bda565b50565b60008251845114610ac7576040517f08c379a0000000000000000000000000000000000000000000000000000000008152600401610abe90613bc9565b60405180910390fd5b610ad082610cf4565b610b0f576040517f08c379a0000000000000000000000000000000000000000000000000000000008152600401610b0690613a69565b60405180910390fd5b60005b8451811015610b73576000610b4e868381518110610b2c57fe5b6020026020010151868481518110610b4057fe5b6020026020010151866111be565b9050610b638184611cdc90919063ffffffff16565b9250508080600101915050610b12565b509392505050565b610b8361084e565b73ffffffffffffffffffffffffffffffffffffffff163373ffffffffffffffffffffffffffffffffffffffff1614610bf0576040517f08c379a0000000000000000000000000000000000000000000000000000000008152600401610be790613aa9565b60405180910390fd5b610c3a848480806020026020016040519081016040528093929190818152602001838360200280828437600081840152601f19601f82011690508083019250505050505050611a68565b610cc6848480806020026020016040519081016040528093929190818152602001838360200280828437600081840152601f19601f82011690508083019250505050505050838380806020026020016040519081016040528093929190818152602001838360200280828437600081840152601f19601f82011690508083019250505050505050610f8b565b50505050565b60007f0000000000000000000000000000000000000000000000000000000000000000905090565b6000610cfe61054d565b73ffffffffffffffffffffffffffffffffffffffff168273ffffffffffffffffffffffffffffffffffffffff161480610d6c5750600073ffffffffffffffffffffffffffffffffffffffff16610d5383610e81565b73ffffffffffffffffffffffffffffffffffffffff1614155b9050919050565b610d7b61084e565b73ffffffffffffffffffffffffffffffffffffffff163373ffffffffffffffffffffffffffffffffffffffff1614610de8576040517f08c379a0000000000000000000000000000000000000000000000000000000008152600401610ddf90613aa9565b60405180910390fd5b610df68686868686866115ed565b505050505050565b610e0661084e565b73ffffffffffffffffffffffffffffffffffffffff163373ffffffffffffffffffffffffffffffffffffffff1614610e73576040517f08c379a0000000000000000000000000000000000000000000000000000000008152600401610e6a90613aa9565b60405180910390fd5b610e7d82826113d2565b5050565b6000600260008373ffffffffffffffffffffffffffffffffffffffff1673ffffffffffffffffffffffffffffffffffffffff16815260200190815260200160002060000160009054906101000a900473ffffffffffffffffffffffffffffffffffffffff169050919050565b6000610ef761054d565b73ffffffffffffffffffffffffffffffffffffffff168273ffffffffffffffffffffffffffffffffffffffff161415610f335760009050610f86565b600260008373ffffffffffffffffffffffffffffffffffffffff1673ffffffffffffffffffffffffffffffffffffffff16815260200190815260200160002060000160149054906101000a900460ff1690505b919050565b8051825114610fcf576040517f08c379a0000000000000000000000000000000000000000000000000000000008152600401610fc690613d49565b60405180910390fd5b60005b82518110156111b957600073ffffffffffffffffffffffffffffffffffffffff1661100f84838151811061100257fe5b6020026020010151610692565b73ffffffffffffffffffffffffffffffffffffffff1614611065576040517f08c379a000000000000000000000000000000000000000000000000000000000815260040161105c90613c69565b60405180910390fd5b61109583828151811061107457fe5b602002602001015183838151811061108857fe5b6020026020010151611d31565b8181815181106110a157fe5b60200260200101516000808584815181106110b857fe5b602002602001015173ffffffffffffffffffffffffffffffffffffffff1673ffffffffffffffffffffffffffffffffffffffff16815260200190815260200160002060006101000a81548173ffffffffffffffffffffffffffffffffffffffff021916908373ffffffffffffffffffffffffffffffffffffffff16021790555082818151811061114457fe5b602002602001015173ffffffffffffffffffffffffffffffffffffffff167faa4ae250fb435bb4b31ed0b95822bc179fc6c5dd0c727c3ffe08d444025efd9883838151811061118f57fe5b60200260200101516040516111a4919061396f565b60405180910390a28080600101915050610fd2565b505050565b60008173ffffffffffffffffffffffffffffffffffffffff168473ffffffffffffffffffffffffffffffffffffffff1614806111fa5750600083145b15611207578290506112b7565b61121084610cf4565b1561122757611220848484611dfd565b90506112b7565b600061123285610692565b9050600073ffffffffffffffffffffffffffffffffffffffff168173ffffffffffffffffffffffffffffffffffffffff161461127c5761127481868686611eb6565b9150506112b7565b6040517f08c379a00000000000000000000000000000000000000000000000000000000081526004016112ae90613d29565b60405180910390fd5b9392505050565b6000808273ffffffffffffffffffffffffffffffffffffffff1663313ce5676040518163ffffffff1660e01b815260040160206040518083038186803b15801561130757600080fd5b505afa15801561131b573d6000803e3d6000fd5b505050506040513d601f19601f8201168201806040525081019061133f9190612e48565b60ff16600a0a9050600061135284610692565b905060006113628286858a611eb6565b905061271081116113a8576040517f08c379a000000000000000000000000000000000000000000000000000000000815260040161139f90613d69565b60405180910390fd5b6113c66113bf600183611cdc90919063ffffffff16565b8488612048565b93505050509392505050565b60005b828290508110156115e857600073ffffffffffffffffffffffffffffffffffffffff1661142184848481811061140757fe5b905060200201602081019061141c9190612a95565b610e81565b73ffffffffffffffffffffffffffffffffffffffff161415611478576040517f08c379a000000000000000000000000000000000000000000000000000000000815260040161146f90613ca9565b60405180910390fd5b6002600084848481811061148857fe5b905060200201602081019061149d9190612a95565b73ffffffffffffffffffffffffffffffffffffffff1673ffffffffffffffffffffffffffffffffffffffff168152602001908152602001600020600080820160006101000a81549073ffffffffffffffffffffffffffffffffffffffff02191690556000820160146101000a81549060ff021916905550506003600084848481811061152557fe5b905060200201602081019061153a9190612a95565b73ffffffffffffffffffffffffffffffffffffffff1673ffffffffffffffffffffffffffffffffffffffff1681526020019081526020016000206000905582828281811061158457fe5b90506020020160208101906115999190612a95565b73ffffffffffffffffffffffffffffffffffffffff167fb100e8178a081ba9130260173ee2ebe0db3a6c3b6751a7801111ab3017df0e9760405160405180910390a280806001019150506113d5565b505050565b838390508686905014611635576040517f08c379a000000000000000000000000000000000000000000000000000000000815260040161162c90613d09565b60405180910390fd5b81819050868690501461167d576040517f08c379a000000000000000000000000000000000000000000000000000000000815260040161167490613ba9565b60405180910390fd5b60005b86869050811015611a5f57600073ffffffffffffffffffffffffffffffffffffffff166116cc8888848181106116b257fe5b90506020020160208101906116c79190612a95565b610e81565b73ffffffffffffffffffffffffffffffffffffffff1614611722576040517f08c379a000000000000000000000000000000000000000000000000000000000815260040161171990613d89565b60405180910390fd5b61174b85858381811061173157fe5b90506020020160208101906117469190612a95565b612078565b604051806040016040528086868481811061176257fe5b90506020020160208101906117779190612a95565b73ffffffffffffffffffffffffffffffffffffffff16815260200184848481811061179e57fe5b90506020020160208101906117b39190612da8565b60018111156117be57fe5b815250600260008989858181106117d157fe5b90506020020160208101906117e69190612a95565b73ffffffffffffffffffffffffffffffffffffffff1673ffffffffffffffffffffffffffffffffffffffff16815260200190815260200160002060008201518160000160006101000a81548173ffffffffffffffffffffffffffffffffffffffff021916908373ffffffffffffffffffffffffffffffffffffffff16021790555060208201518160000160146101000a81548160ff0219169083600181111561188b57fe5b021790555090505060008787838181106118a157fe5b90506020020160208101906118b69190612a95565b73ffffffffffffffffffffffffffffffffffffffff1663313ce5676040518163ffffffff1660e01b815260040160206040518083038186803b1580156118fb57600080fd5b505afa15801561190f573d6000803e3d6000fd5b505050506040513d601f19601f820116820180604052508101906119339190612e48565b60ff16600a0a905080600360008a8a8681811061194c57fe5b90506020020160208101906119619190612a95565b73ffffffffffffffffffffffffffffffffffffffff1673ffffffffffffffffffffffffffffffffffffffff168152602001908152602001600020819055508787838181106119ab57fe5b90506020020160208101906119c09190612a95565b73ffffffffffffffffffffffffffffffffffffffff167f742bdf00da3d8f16c0fab93ce38eb6a536a019c9e283888dd44c3a08c0148c02878785818110611a0357fe5b9050602002016020810190611a189190612a95565b868686818110611a2457fe5b9050602002016020810190611a399190612da8565b84604051611a49939291906139b3565b60405180910390a2508080600101915050611680565b50505050505050565b60005b8151811015611bd657600073ffffffffffffffffffffffffffffffffffffffff16611aa8838381518110611a9b57fe5b6020026020010151610692565b73ffffffffffffffffffffffffffffffffffffffff161415611aff576040517f08c379a0000000000000000000000000000000000000000000000000000000008152600401611af690613be9565b60405180910390fd5b600080838381518110611b0e57fe5b602002602001015173ffffffffffffffffffffffffffffffffffffffff1673ffffffffffffffffffffffffffffffffffffffff16815260200190815260200160002060006101000a81549073ffffffffffffffffffffffffffffffffffffffff0219169055818181518110611b7f57fe5b602002602001015173ffffffffffffffffffffffffffffffffffffffff167fc15eb25d807b570f4567baf6e97c7b26d58a7d0512dc85e8db15375a056b860460405160405180910390a28080600101915050611a6b565b5050565b6000611be461078f565b90508073ffffffffffffffffffffffffffffffffffffffff168273ffffffffffffffffffffffffffffffffffffffff161415611c55576040517f08c379a0000000000000000000000000000000000000000000000000000000008152600401611c4c90613a49565b60405180910390fd5b611c5e82612078565b81600160006101000a81548173ffffffffffffffffffffffffffffffffffffffff021916908373ffffffffffffffffffffffffffffffffffffffff1602179055507f98b60a60ba6130248e985ae4140dc3109d9c2980c7e435fed385e2756bc944618183604051611cd092919061398a565b60405180910390a15050565b600080828401905083811015611d27576040517f08c379a0000000000000000000000000000000000000000000000000000000008152600401611d1e90613ac9565b60405180910390fd5b8091505092915050565b8073ffffffffffffffffffffffffffffffffffffffff16639be918e6836040518263ffffffff1660e01b8152600401611d6a919061396f565b60206040518083038186803b158015611d8257600080fd5b505afa158015611d96573d6000803e3d6000fd5b505050506040513d601f19601f82011682018060405250810190611dba9190612d7f565b611df9576040517f08c379a0000000000000000000000000000000000000000000000000000000008152600401611df090613ce9565b60405180910390fd5b5050565b600080611e0985612151565b905060008113611e4e576040517f08c379a0000000000000000000000000000000000000000000000000000000008152600401611e4590613c29565b60405180910390fd5b6000611e5984612151565b905060008113611e9e576040517f08c379a0000000000000000000000000000000000000000000000000000000008152600401611e9590613c89565b60405180910390fd5b611eab86868487856122bd565b925050509392505050565b60006060808673ffffffffffffffffffffffffffffffffffffffff1663727212f687876040518363ffffffff1660e01b8152600401611ef69291906139ea565b600060405180830381600087803b158015611f1057600080fd5b505af1158015611f24573d6000803e3d6000fd5b505050506040513d6000823e3d601f19601f82011682018060405250810190611f4d9190612c94565b915091506000825111611f95576040517f08c379a0000000000000000000000000000000000000000000000000000000008152600401611f8c90613c09565b60405180910390fd5b8051825114611fd9576040517f08c379a0000000000000000000000000000000000000000000000000000000008152600401611fd090613b29565b60405180910390fd5b60005b825181101561203d576000612018848381518110611ff657fe5b602002602001015184848151811061200a57fe5b6020026020010151886111be565b905061202d8186611cdc90919063ffffffff16565b9450508080600101915050611fdc565b505050949350505050565b600061206f84612061858561245d90919063ffffffff16565b6124cd90919063ffffffff16565b90509392505050565b6000808273ffffffffffffffffffffffffffffffffffffffff1663feaf968c6040518163ffffffff1660e01b815260040160a06040518083038186803b1580156120c157600080fd5b505afa1580156120d5573d6000803e3d6000fd5b505050506040513d601f19601f820116820180604052508101906120f99190612dd1565b5093505092505060008213612143576040517f08c379a000000000000000000000000000000000000000000000000000000000815260040161213a90613cc9565b60405180910390fd5b61214c81612523565b505050565b600061215b61054d565b73ffffffffffffffffffffffffffffffffffffffff168273ffffffffffffffffffffffffffffffffffffffff16141561219e57670de0b6b3a764000090506122b8565b60006121a983610e81565b9050600073ffffffffffffffffffffffffffffffffffffffff168173ffffffffffffffffffffffffffffffffffffffff16141561221b576040517f08c379a000000000000000000000000000000000000000000000000000000000815260040161221290613a89565b60405180910390fd5b60008173ffffffffffffffffffffffffffffffffffffffff1663feaf968c6040518163ffffffff1660e01b815260040160a06040518083038186803b15801561226357600080fd5b505afa158015612277573d6000803e3d6000fd5b505050506040513d601f19601f8201168201806040525081019061229b9190612dd1565b90919293509091505080925081945050506122b581612523565b50505b919050565b6000806122c987610eed565b905060006122d685610eed565b905060006122e3896107b9565b905060006122f0876107b9565b90508260018111156122fe57fe5b84600181111561230a57fe5b14156123285761231d89838a848a612582565b945050505050612454565b60008061233361078f565b73ffffffffffffffffffffffffffffffffffffffff1663feaf968c6040518163ffffffff1660e01b815260040160a06040518083038186803b15801561237857600080fd5b505afa15801561238c573d6000803e3d6000fd5b505050506040513d601f19601f820116820180604052508101906123b09190612dd1565b50935050925050600082136123fa576040517f08c379a00000000000000000000000000000000000000000000000000000000081526004016123f190613b69565b60405180910390fd5b61240381612523565b6000600181111561241057fe5b86600181111561241c57fe5b141561243d576124308b858c868c876125d8565b9650505050505050612454565b61244b8b858c868c87612660565b96505050505050505b95945050505050565b60008083141561247057600090506124c7565b600082840290508284828161248157fe5b04146124c2576040517f08c379a00000000000000000000000000000000000000000000000000000000081526004016124b990613c49565b60405180910390fd5b809150505b92915050565b6000808211612511576040517f08c379a000000000000000000000000000000000000000000000000000000000815260040161250890613b49565b60405180910390fd5b81838161251a57fe5b04905092915050565b61253d61252e610ccc565b426126e890919063ffffffff16565b81101561257f576040517f08c379a000000000000000000000000000000000000000000000000000000000815260040161257690613b89565b60405180910390fd5b50565b60006125cd61259a838761245d90919063ffffffff16565b6125bf856125b1888b61245d90919063ffffffff16565b61245d90919063ffffffff16565b6124cd90919063ffffffff16565b905095945050505050565b60008061261a670de0b6b3a764000061260c856125fe8a8d61245d90919063ffffffff16565b61245d90919063ffffffff16565b6124cd90919063ffffffff16565b90506126538461264589612637898661245d90919063ffffffff16565b6124cd90919063ffffffff16565b6124cd90919063ffffffff16565b9150509695505050505050565b60008061269a8361268c8761267e8a8d61245d90919063ffffffff16565b61245d90919063ffffffff16565b6124cd90919063ffffffff16565b90506126db846126cd896126bf670de0b6b3a76400008661245d90919063ffffffff16565b6124cd90919063ffffffff16565b6124cd90919063ffffffff16565b9150509695505050505050565b60008282111561272d576040517f08c379a000000000000000000000000000000000000000000000000000000000815260040161272490613b09565b60405180910390fd5b818303905092915050565b60008135905061274781613ef9565b92915050565b60008151905061275c81613ef9565b92915050565b60008083601f84011261277457600080fd5b8235905067ffffffffffffffff81111561278d57600080fd5b6020830191508360208202830111156127a557600080fd5b9250929050565b600082601f8301126127bd57600080fd5b81356127d06127cb82613df1565b613dc4565b915081818352602084019350602081019050838560208402820111156127f557600080fd5b60005b83811015612825578161280b8882612738565b8452602084019350602083019250506001810190506127f8565b5050505092915050565b600082601f83011261284057600080fd5b815161285361284e82613df1565b613dc4565b9150818183526020840193506020810190508385602084028201111561287857600080fd5b60005b838110156128a8578161288e888261274d565b84526020840193506020830192505060018101905061287b565b5050505092915050565b60008083601f8401126128c457600080fd5b8235905067ffffffffffffffff8111156128dd57600080fd5b6020830191508360208202830111156128f557600080fd5b9250929050565b600082601f83011261290d57600080fd5b813561292061291b82613e19565b613dc4565b9150818183526020840193506020810190508385602084028201111561294557600080fd5b60005b83811015612975578161295b8882612a41565b845260208401935060208301925050600181019050612948565b5050505092915050565b600082601f83011261299057600080fd5b81516129a361299e82613e19565b613dc4565b915081818352602084019350602081019050838560208402820111156129c857600080fd5b60005b838110156129f857816129de8882612a56565b8452602084019350602083019250506001810190506129cb565b5050505092915050565b600081519050612a1181613f10565b92915050565b600081359050612a2681613f27565b92915050565b600081519050612a3b81613f37565b92915050565b600081359050612a5081613f4e565b92915050565b600081519050612a6581613f4e565b92915050565b600081519050612a7a81613f7c565b92915050565b600081519050612a8f81613f65565b92915050565b600060208284031215612aa757600080fd5b6000612ab584828501612738565b91505092915050565b600060208284031215612ad057600080fd5b6000612ade8482850161274d565b91505092915050565b600080600060608486031215612afc57600080fd5b6000612b0a86828701612738565b9350506020612b1b86828701612a41565b9250506040612b2c86828701612738565b9150509250925092565b60008060208385031215612b4957600080fd5b600083013567ffffffffffffffff811115612b6357600080fd5b612b6f85828601612762565b92509250509250929050565b60008060008060408587031215612b9157600080fd5b600085013567ffffffffffffffff811115612bab57600080fd5b612bb787828801612762565b9450945050602085013567ffffffffffffffff811115612bd657600080fd5b612be287828801612762565b925092505092959194509250565b60008060008060008060608789031215612c0957600080fd5b600087013567ffffffffffffffff811115612c2357600080fd5b612c2f89828a01612762565b9650965050602087013567ffffffffffffffff811115612c4e57600080fd5b612c5a89828a01612762565b9450945050604087013567ffffffffffffffff811115612c7957600080fd5b612c8589828a016128b2565b92509250509295509295509295565b60008060408385031215612ca757600080fd5b600083015167ffffffffffffffff811115612cc157600080fd5b612ccd8582860161282f565b925050602083015167ffffffffffffffff811115612cea57600080fd5b612cf68582860161297f565b9150509250929050565b600080600060608486031215612d1557600080fd5b600084013567ffffffffffffffff811115612d2f57600080fd5b612d3b868287016127ac565b935050602084013567ffffffffffffffff811115612d5857600080fd5b612d64868287016128fc565b9250506040612d7586828701612738565b9150509250925092565b600060208284031215612d9157600080fd5b6000612d9f84828501612a02565b91505092915050565b600060208284031215612dba57600080fd5b6000612dc884828501612a17565b91505092915050565b600080600080600060a08688031215612de957600080fd5b6000612df788828901612a6b565b9550506020612e0888828901612a2c565b9450506040612e1988828901612a56565b9350506060612e2a88828901612a56565b9250506080612e3b88828901612a6b565b9150509295509295909350565b600060208284031215612e5a57600080fd5b6000612e6884828501612a80565b91505092915050565b612e7a81613e52565b82525050565b612e8981613e64565b82525050565b612e9881613eda565b82525050565b6000612eab602883613e41565b91507f5f5f73657445746855736441676772656761746f723a2056616c756520616c7260008301527f65616479207365740000000000000000000000000000000000000000000000006020830152604082019050919050565b6000612f11603683613e41565b91507f63616c6343616e6f6e6963616c417373657473546f74616c56616c75653a205560008301527f6e737570706f72746564205f71756f74654173736574000000000000000000006020830152604082019050919050565b6000612f77602d83613e41565b91507f5f5f6765744c617465737452617465446174613a205072696d6974697665206460008301527f6f6573206e6f74206578697374000000000000000000000000000000000000006020830152604082019050919050565b6000612fdd604983613e41565b91507f6f6e6c7946756e644465706c6f7965724f776e65723a204f6e6c79207468652060008301527f46756e644465706c6f796572206f776e65722063616e2063616c6c207468697360208301527f2066756e6374696f6e00000000000000000000000000000000000000000000006040830152606082019050919050565b6000613069601b83613e41565b91507f536166654d6174683a206164646974696f6e206f766572666c6f7700000000006000830152602082019050919050565b60006130a9602f83613e41565b91507f63616c6343616e6f6e6963616c417373657456616c75653a20556e737570706f60008301527f7274656420636f6e76657273696f6e00000000000000000000000000000000006020830152604082019050919050565b600061310f601e83613e41565b91507f536166654d6174683a207375627472616374696f6e206f766572666c6f7700006000830152602082019050919050565b600061314f602d83613e41565b91507f5f5f63616c634465726976617469766556616c75653a2041727261797320756e60008301527f657175616c206c656e67746873000000000000000000000000000000000000006020830152604082019050919050565b60006131b5601a83613e41565b91507f536166654d6174683a206469766973696f6e206279207a65726f0000000000006000830152602082019050919050565b60006131f5602783613e41565b91507f5f5f63616c63436f6e76657273696f6e416d6f756e743a20426164206574685560008301527f73642072617465000000000000000000000000000000000000000000000000006020830152604082019050919050565b600061325b602d83613e41565b91507f5f5f76616c69646174655261746549734e6f745374616c653a205374616c652060008301527f72617465206465746563746564000000000000000000000000000000000000006020830152604082019050919050565b60006132c1604283613e41565b91507f5f5f6164645072696d6974697665733a20556e657175616c205f7072696d697460008301527f6976657320616e64205f72617465417373657473206172726179206c656e677460208301527f68730000000000000000000000000000000000000000000000000000000000006040830152606082019050919050565b600061334d603583613e41565b91507f63616c6343616e6f6e6963616c417373657473546f74616c56616c75653a204160008301527f727261797320756e657175616c206c656e6774687300000000000000000000006020830152604082019050919050565b60006133b3602b83613e41565b91507f72656d6f766544657269766174697665733a2044657269766174697665206e6f60008301527f74207965742061646465640000000000000000000000000000000000000000006020830152604082019050919050565b6000613419602583613e41565b91507f5f5f63616c634465726976617469766556616c75653a204e6f20756e6465726c60008301527f79696e67730000000000000000000000000000000000000000000000000000006020830152604082019050919050565b600061347f602d83613e41565b91507f5f5f63616c6343616e6f6e6963616c56616c75653a20496e76616c696420626160008301527f73652061737365742072617465000000000000000000000000000000000000006020830152604082019050919050565b60006134e5602183613e41565b91507f536166654d6174683a206d756c7469706c69636174696f6e206f766572666c6f60008301527f77000000000000000000000000000000000000000000000000000000000000006020830152604082019050919050565b600061354b601f83613e41565b91507f5f5f61646444657269766174697665733a20416c7265616479206164646564006000830152602082019050919050565b600061358b602e83613e41565b91507f5f5f63616c6343616e6f6e6963616c56616c75653a20496e76616c696420717560008301527f6f746520617373657420726174650000000000000000000000000000000000006020830152604082019050919050565b60006135f1602b83613e41565b91507f5f5f72656d6f76655072696d6974697665733a205072696d6974697665206e6f60008301527f74207965742061646465640000000000000000000000000000000000000000006020830152604082019050919050565b6000613657602683613e41565b91507f5f5f76616c696461746541676772656761746f723a204e6f207261746520646560008301527f74656374656400000000000000000000000000000000000000000000000000006020830152604082019050919050565b60006136bd603583613e41565b91507f5f5f76616c6964617465446572697661746976655072696365466565643a205560008301527f6e737570706f72746564206465726976617469766500000000000000000000006020830152604082019050919050565b6000613723604383613e41565b91507f5f5f6164645072696d6974697665733a20556e657175616c205f7072696d697460008301527f6976657320616e64205f61676772656761746f7273206172726179206c656e6760208301527f74687300000000000000000000000000000000000000000000000000000000006040830152606082019050919050565b60006137af602883613e41565b91507f5f5f63616c63417373657456616c75653a20556e737570706f72746564205f6260008301527f61736541737365740000000000000000000000000000000000000000000000006020830152604082019050919050565b6000613815604483613e41565b91507f5f5f61646444657269766174697665733a20556e657175616c205f646572697660008301527f61746976657320616e64205f70726963654665656473206172726179206c656e60208301527f67746873000000000000000000000000000000000000000000000000000000006040830152606082019050919050565b60006138a1603383613e41565b91507f5f5f63616c635072696d6974697665546f4465726976617469766556616c756560008301527f3a20496e73756666696369656e742072617465000000000000000000000000006020830152604082019050919050565b6000613907602283613e41565b91507f5f5f6164645072696d6974697665733a2056616c756520616c7265616479207360008301527f65740000000000000000000000000000000000000000000000000000000000006020830152604082019050919050565b61396981613ead565b82525050565b60006020820190506139846000830184612e71565b92915050565b600060408201905061399f6000830185612e71565b6139ac6020830184612e71565b9392505050565b60006060820190506139c86000830186612e71565b6139d56020830185612e8f565b6139e26040830184613960565b949350505050565b60006040820190506139ff6000830185612e71565b613a0c6020830184613960565b9392505050565b6000602082019050613a286000830184612e80565b92915050565b6000602082019050613a436000830184612e8f565b92915050565b60006020820190508181036000830152613a6281612e9e565b9050919050565b60006020820190508181036000830152613a8281612f04565b9050919050565b60006020820190508181036000830152613aa281612f6a565b9050919050565b60006020820190508181036000830152613ac281612fd0565b9050919050565b60006020820190508181036000830152613ae28161305c565b9050919050565b60006020820190508181036000830152613b028161309c565b9050919050565b60006020820190508181036000830152613b2281613102565b9050919050565b60006020820190508181036000830152613b4281613142565b9050919050565b60006020820190508181036000830152613b62816131a8565b9050919050565b60006020820190508181036000830152613b82816131e8565b9050919050565b60006020820190508181036000830152613ba28161324e565b9050919050565b60006020820190508181036000830152613bc2816132b4565b9050919050565b60006020820190508181036000830152613be281613340565b9050919050565b60006020820190508181036000830152613c02816133a6565b9050919050565b60006020820190508181036000830152613c228161340c565b9050919050565b60006020820190508181036000830152613c4281613472565b9050919050565b60006020820190508181036000830152613c62816134d8565b9050919050565b60006020820190508181036000830152613c828161353e565b9050919050565b60006020820190508181036000830152613ca28161357e565b9050919050565b60006020820190508181036000830152613cc2816135e4565b9050919050565b60006020820190508181036000830152613ce28161364a565b9050919050565b60006020820190508181036000830152613d02816136b0565b9050919050565b60006020820190508181036000830152613d2281613716565b9050919050565b60006020820190508181036000830152613d42816137a2565b9050919050565b60006020820190508181036000830152613d6281613808565b9050919050565b60006020820190508181036000830152613d8281613894565b9050919050565b60006020820190508181036000830152613da2816138fa565b9050919050565b6000602082019050613dbe6000830184613960565b92915050565b6000604051905081810181811067ffffffffffffffff82111715613de757600080fd5b8060405250919050565b600067ffffffffffffffff821115613e0857600080fd5b602082029050602081019050919050565b600067ffffffffffffffff821115613e3057600080fd5b602082029050602081019050919050565b600082825260208201905092915050565b6000613e5d82613e8d565b9050919050565b60008115159050919050565b6000819050613e7e82613eec565b919050565b6000819050919050565b600073ffffffffffffffffffffffffffffffffffffffff82169050919050565b6000819050919050565b600060ff82169050919050565b600069ffffffffffffffffffff82169050919050565b6000613ee582613e70565b9050919050565b60028110613ef657fe5b50565b613f0281613e52565b8114613f0d57600080fd5b50565b613f1981613e64565b8114613f2457600080fd5b50565b60028110613f3457600080fd5b50565b613f4081613e83565b8114613f4b57600080fd5b50565b613f5781613ead565b8114613f6257600080fd5b50565b613f6e81613eb7565b8114613f7957600080fd5b50565b613f8581613ec4565b8114613f9057600080fd5b5056fea164736f6c634300060c000a","linkReferences":{}},"methodIdentifiers":{"addDerivatives(address[],address[])":"39cbb63c","addPrimitives(address[],address[],uint8[])":"cf0399c8","calcCanonicalAssetValue(address,uint256,address)":"4c67e106","calcCanonicalAssetsTotalValue(address[],uint256[],address)":"ae6f52ad","getAggregatorForPrimitive(address)":"e2dd0978","getEthUsdAggregator()":"74626f87","getFundDeployer()":"97c0ac87","getOwner()":"893d20e8","getPriceFeedForDerivative(address)":"68e81c6d","getRateAssetForPrimitive(address)":"e35e318e","getStaleRateThreshold()":"b54fbdaa","getUnitForPrimitive(address)":"787f2568","getWethToken()":"4c252f91","isSupportedAsset(address)":"9be918e6","isSupportedDerivativeAsset(address)":"64b01dc1","isSupportedPrimitiveAsset(address)":"c496f8e8","removeDerivatives(address[])":"8f72b136","removePrimitives(address[])":"e106264f","setEthUsdAggregator(address)":"a98acadc","updateDerivatives(address[],address[])":"b3d3af3b","updatePrimitives(address[],address[],uint8[])":"6d3b9410"},"id":305}