{"abi":[{"type":"constructor","inputs":[{"name":"_dispatcher","type":"address","internalType":"address"},{"name":"_paymasterLib","type":"address","internalType":"address"}],"stateMutability":"nonpayable"},{"type":"function","name":"deployProxy","inputs":[{"name":"_constructData","type":"bytes","internalType":"bytes"}],"outputs":[{"name":"proxy_","type":"address","internalType":"address"}],"stateMutability":"nonpayable"},{"type":"function","name":"getCanonicalLib","inputs":[],"outputs":[{"name":"canonicalLib_","type":"address","internalType":"address"}],"stateMutability":"view"},{"type":"function","name":"getDispatcher","inputs":[],"outputs":[{"name":"dispatcher_","type":"address","internalType":"address"}],"stateMutability":"view"},{"type":"function","name":"getOwner","inputs":[],"outputs":[{"name":"owner_","type":"address","internalType":"address"}],"stateMutability":"view"},{"type":"function","name":"setCanonicalLib","inputs":[{"name":"_nextCanonicalLib","type":"address","internalType":"address"}],"outputs":[],"stateMutability":"nonpayable"},{"type":"event","name":"CanonicalLibSet","inputs":[{"name":"nextCanonicalLib","type":"address","indexed":false,"internalType":"address"}],"anonymous":false},{"type":"event","name":"ProxyDeployed","inputs":[{"name":"caller","type":"address","indexed":true,"internalType":"address"},{"name":"proxy","type":"address","indexed":false,"internalType":"address"},{"name":"constructData","type":"bytes","indexed":false,"internalType":"bytes"}],"anonymous":false}],"bytecode":{"object":"0x60a060405234801561001057600080fd5b50604051610b68380380610b688339818101604052604081101561003357600080fd5b8101908080519060200190929190805190602001909291905050508061005e8161009d60201b60201c565b508173ffffffffffffffffffffffffffffffffffffffff1660808173ffffffffffffffffffffffffffffffffffffffff1660601b81525050505061012d565b806000806101000a81548173ffffffffffffffffffffffffffffffffffffffff021916908373ffffffffffffffffffffffffffffffffffffffff1602179055507f9007c6c0b3b1622c381c19563620e3ce8b824e958af3020495bd6654e8a0310a81604051808273ffffffffffffffffffffffffffffffffffffffff16815260200191505060405180910390a150565b60805160601c610a1e61014a600039806105055250610a1e6000f3fe608060405234801561001057600080fd5b50600436106100575760003560e01c80630c0872f51461005c578063893d20e81461014157806398a7c4c714610175578063d0ac1a8d146101a9578063ebb3d589146101ed575b600080fd5b6101156004803603602081101561007257600080fd5b810190808035906020019064010000000081111561008f57600080fd5b8201836020820111156100a157600080fd5b803590602001918460018302840111640100000000831117156100c357600080fd5b91908080601f016020809104026020016040519081016040528093929190818152602001838380828437600081840152601f19601f820116905080830192505050505050509192919290505050610221565b604051808273ffffffffffffffffffffffffffffffffffffffff16815260200191505060405180910390f35b6101496103b2565b604051808273ffffffffffffffffffffffffffffffffffffffff16815260200191505060405180910390f35b61017d610441565b604051808273ffffffffffffffffffffffffffffffffffffffff16815260200191505060405180910390f35b6101eb600480360360208110156101bf57600080fd5b81019080803573ffffffffffffffffffffffffffffffffffffffff16906020019092919050505061046a565b005b6101f5610501565b604051808273ffffffffffffffffffffffffffffffffffffffff16815260200191505060405180910390f35b60008130604051610231906105b9565b80806020018373ffffffffffffffffffffffffffffffffffffffff168152602001828103825284818151815260200191508051906020019080838360005b8381101561028a57808201518184015260208101905061026f565b50505050905090810190601f1680156102b75780820380516001836020036101000a031916815260200191505b509350505050604051809103906000f0801580156102d9573d6000803e3d6000fd5b5090503373ffffffffffffffffffffffffffffffffffffffff167f8f1eab90fee81d885732c2e07a3a9b9f6c32278756471123fa57486858c3f7018284604051808373ffffffffffffffffffffffffffffffffffffffff16815260200180602001828103825283818151815260200191508051906020019080838360005b83811015610372578082015181840152602081019050610357565b50505050905090810190601f16801561039f5780820380516001836020036101000a031916815260200191505b50935050505060405180910390a2919050565b60006103bc610501565b73ffffffffffffffffffffffffffffffffffffffff1663893d20e86040518163ffffffff1660e01b815260040160206040518083038186803b15801561040157600080fd5b505afa158015610415573d6000803e3d6000fd5b505050506040513d602081101561042b57600080fd5b8101908080519060200190929190505050905090565b60008060009054906101000a900473ffffffffffffffffffffffffffffffffffffffff16905090565b6104726103b2565b73ffffffffffffffffffffffffffffffffffffffff163373ffffffffffffffffffffffffffffffffffffffff16146104f5576040517f08c379a00000000000000000000000000000000000000000000000000000000081526004018080602001828103825260368152602001806109dc6036913960400191505060405180910390fd5b6104fe81610529565b50565b60007f0000000000000000000000000000000000000000000000000000000000000000905090565b806000806101000a81548173ffffffffffffffffffffffffffffffffffffffff021916908373ffffffffffffffffffffffffffffffffffffffff1602179055507f9007c6c0b3b1622c381c19563620e3ce8b824e958af3020495bd6654e8a0310a81604051808273ffffffffffffffffffffffffffffffffffffffff16815260200191505060405180910390a150565b610415806105c78339019056fe60a060405234801561001057600080fd5b506040516104153803806104158339818101604052604081101561003357600080fd5b810190808051604051939291908464010000000082111561005357600080fd5b8382019150602082018581111561006957600080fd5b825186600182028301116401000000008211171561008657600080fd5b8083526020830192505050908051906020019080838360005b838110156100ba57808201518184015260208101905061009f565b50505050905090810190601f1680156100e75780820380516001836020036101000a031916815260200191505b50604052602001805190602001909291905050508073ffffffffffffffffffffffffffffffffffffffff1660808173ffffffffffffffffffffffffffffffffffffffff1660601b81525050600060608273ffffffffffffffffffffffffffffffffffffffff166398a7c4c76040518163ffffffff1660e01b815260040160206040518083038186803b15801561017c57600080fd5b505afa158015610190573d6000803e3d6000fd5b505050506040513d60208110156101a657600080fd5b810190808051906020019092919050505073ffffffffffffffffffffffffffffffffffffffff16846040518082805190602001908083835b6020831061020157805182526020820191506020810190506020830392506101de565b6001836020036101000a038019825116818451168082178552505050505050905001915050600060405180830381855af49150503d8060008114610261576040519150601f19603f3d011682016040523d82523d6000602084013e610266565b606091505b5091509150818190610313576040517f08c379a00000000000000000000000000000000000000000000000000000000081526004018080602001828103825283818151815260200191508051906020019080838360005b838110156102d85780820151818401526020810190506102bd565b50505050905090810190601f1680156103055780820380516001836020036101000a031916815260200191505b509250505060405180910390fd5b505050505060805160601c60e361033260003980600e525060e36000f3fe608060405236600a57005b60007f000000000000000000000000000000000000000000000000000000000000000073ffffffffffffffffffffffffffffffffffffffff166398a7c4c76040518163ffffffff1660e01b815260040160206040518083038186803b158015607157600080fd5b505afa1580156084573d6000803e3d6000fd5b505050506040513d6020811015609957600080fd5b810190808051906020019092919050505090503660008037600080366000846127105a03f43d806000803e816000811460d157816000f35b816000fdfea164736f6c634300060c000a73657443616e6f6e6963616c4c69623a204f6e6c7920746865206f776e65722063616e2063616c6c20746869732066756e6374696f6ea164736f6c634300060c000a","linkReferences":{}},"methodIdentifiers":{"deployProxy(bytes)":"0c0872f5","getCanonicalLib()":"98a7c4c7","getDispatcher()":"ebb3d589","getOwner()":"893d20e8","setCanonicalLib(address)":"d0ac1a8d"},"id":272}