{"abi":[{"type":"constructor","inputs":[{"name":"_aggregator","type":"address","internalType":"contract IChainlinkAggregator"},{"name":"_rateAsset","type":"uint8","internalType":"enum IChainlinkPriceFeedMixin.RateAsset"}],"stateMutability":"nonpayable"},{"type":"function","name":"decimals","inputs":[],"outputs":[{"name":"decimals_","type":"uint8","internalType":"uint8"}],"stateMutability":"view"},{"type":"function","name":"latestRoundData","inputs":[],"outputs":[{"name":"roundId_","type":"uint80","internalType":"uint80"},{"name":"answer_","type":"int256","internalType":"int256"},{"name":"startedAt_","type":"uint256","internalType":"uint256"},{"name":"updatedAt_","type":"uint256","internalType":"uint256"},{"name":"answeredInRound_","type":"uint80","internalType":"uint80"}],"stateMutability":"view"},{"type":"error","name":"NegativeAnswer","inputs":[]},{"type":"error","name":"NoScalingNeeded","inputs":[]},{"type":"error","name":"UnsupportedRateAsset","inputs":[]}],"bytecode":{"object":"0x6101006040523480156200001257600080fd5b506040516200084a3803806200084a833981016040819052620000359162000231565b6001600160a01b0382166080526000808260018111156200005a576200005a62000274565b036200006957506012620000a8565b600182600181111562000080576200008062000274565b036200008f57506008620000a8565b6040516360d8df3f60e11b815260040160405180910390fd5b8060ff1660e08160ff16815250506000806000856001600160a01b031663313ce5676040518163ffffffff1660e01b8152600401602060405180830381865afa158015620000fa573d6000803e3d6000fd5b505050506040513d601f19601f82011682018060405250810190620001209190620002a1565b90508360ff168160ff161115620001565760019150620001418482620002e4565b6200014e90600a62000435565b92506200018e565b8360ff168160ff161015620001755760009150620001418185620002e4565b604051633baaa81d60e21b815260040160405180910390fd5b60a0839052816001811115620001a857620001a862000274565b60c0816001811115620001bf57620001bf62000274565b815250505050505050506200044c565b60006001600160a01b0382165b92915050565b6000620001dc82620001cf565b620001fa81620001e2565b81146200020657600080fd5b50565b8051620001dc81620001ef565b600281106200020657600080fd5b8051620001dc8162000216565b60008060408385031215620002495762000249600080fd5b600062000257858562000209565b92505060206200026a8582860162000224565b9150509250929050565b634e487b7160e01b600052602160045260246000fd5b60ff8116620001fa565b8051620001dc816200028a565b600060208284031215620002b857620002b8600080fd5b6000620002c6848462000294565b949350505050565b634e487b7160e01b600052601160045260246000fd5b60ff918216919081169082820390811115620001dc57620001dc620002ce565b80825b60018511156200034a57808604811115620003265762000326620002ce565b60018516156200033557908102905b8002620003428560011c90565b945062000307565b94509492505050565b60008262000364575060016200042e565b8162000373575060006200042e565b81600181146200038c57600281146200039757620003cb565b60019150506200042e565b60ff841115620003ab57620003ab620002ce565b8360020a915084821115620003c457620003c4620002ce565b506200042e565b5060208310610133831016604e8410600b841016171562000403575081810a83811115620003fd57620003fd620002ce565b6200042e565b62000412848484600162000304565b925090508184048111156200042b576200042b620002ce565b81025b9392505050565b600060ff831692506200042e600019848462000353565b60805160a05160c05160e0516103bf6200048b6000396000603d0152600061014901526000818161018301526101b401526000609601526103bf6000f3fe608060405234801561001057600080fd5b50600436106100365760003560e01c8063313ce5671461003b578063feaf968c14610072575b600080fd5b7f000000000000000000000000000000000000000000000000000000000000000060405161006991906101ef565b60405180910390f35b61007a61008b565b60405161006995949392919061021b565b6000806000806000807f00000000000000000000000000000000000000000000000000000000000000006001600160a01b031663feaf968c6040518163ffffffff1660e01b815260040160a060405180830381865afa1580156100f2573d6000803e3d6000fd5b505050506040513d601f19601f82011682018060405250810190610116919061029f565b93995090965094509092509050600081121561014557604051637eaa610160e11b815260040160405180910390fd5b60007f0000000000000000000000000000000000000000000000000000000000000000600181111561017957610179610317565b036101af576101a87f000000000000000000000000000000000000000000000000000000000000000082610343565b94506101dc565b6101d97f000000000000000000000000000000000000000000000000000000000000000082610391565b94505b509091929394565b60ff81165b82525050565b602081016101fd82846101e4565b92915050565b69ffffffffffffffffffff81166101e9565b806101e9565b60a081016102298288610203565b6102366020830187610215565b6102436040830186610215565b6102506060830185610215565b61025d6080830184610203565b9695505050505050565b69ffffffffffffffffffff81165b811461028057600080fd5b50565b80516101fd81610267565b80610275565b80516101fd8161028e565b600080600080600060a086880312156102ba576102ba600080fd5b60006102c68888610283565b95505060206102d788828901610294565b94505060406102e888828901610294565b93505060606102f988828901610294565b925050608061030a88828901610283565b9150509295509295909350565b634e487b7160e01b600052602160045260246000fd5b634e487b7160e01b600052601160045260246000fd5b8181028060008312600160ff1b851416156103605761036061032d565b82820584148315176103745761037461032d565b5092915050565b634e487b7160e01b600052601260045260246000fd5b6000826103a0576103a061037b565b600160ff1b8214600019841416156103ba576103ba61032d565b50059056","linkReferences":{}},"methodIdentifiers":{"decimals()":"313ce567","latestRoundData()":"feaf968c"},"id":208}