{"abi":[{"type":"constructor","inputs":[{"name":"_policyManager","type":"address","internalType":"address"},{"name":"_addressListRegistry","type":"address","internalType":"address"}],"stateMutability":"nonpayable"},{"type":"function","name":"activateForFund","inputs":[{"name":"","type":"address","internalType":"address"}],"outputs":[],"stateMutability":"nonpayable"},{"type":"function","name":"addFundSettings","inputs":[{"name":"_comptrollerProxy","type":"address","internalType":"address"},{"name":"_encodedSettings","type":"bytes","internalType":"bytes"}],"outputs":[],"stateMutability":"nonpayable"},{"type":"function","name":"canDisable","inputs":[],"outputs":[{"name":"canDisable_","type":"bool","internalType":"bool"}],"stateMutability":"pure"},{"type":"function","name":"getAddressListRegistry","inputs":[],"outputs":[{"name":"addressListRegistry_","type":"address","internalType":"address"}],"stateMutability":"view"},{"type":"function","name":"getListIdsForFund","inputs":[{"name":"_comptrollerProxy","type":"address","internalType":"address"}],"outputs":[{"name":"listIds_","type":"uint256[]","internalType":"uint256[]"}],"stateMutability":"view"},{"type":"function","name":"getPolicyManager","inputs":[],"outputs":[{"name":"policyManager_","type":"address","internalType":"address"}],"stateMutability":"view"},{"type":"function","name":"identifier","inputs":[],"outputs":[{"name":"identifier_","type":"string","internalType":"string"}],"stateMutability":"pure"},{"type":"function","name":"implementedHooks","inputs":[],"outputs":[{"name":"implementedHooks_","type":"uint8[]","internalType":"enum IPolicyManager.PolicyHook[]"}],"stateMutability":"pure"},{"type":"function","name":"updateFundSettings","inputs":[{"name":"","type":"address","internalType":"address"},{"name":"","type":"bytes","internalType":"bytes"}],"outputs":[],"stateMutability":"nonpayable"},{"type":"function","name":"validateRule","inputs":[{"name":"_comptrollerProxy","type":"address","internalType":"address"},{"name":"","type":"uint8","internalType":"enum IPolicyManager.PolicyHook"},{"name":"_encodedArgs","type":"bytes","internalType":"bytes"}],"outputs":[{"name":"isValid_","type":"bool","internalType":"bool"}],"stateMutability":"view"},{"type":"event","name":"ListsSetForFund","inputs":[{"name":"comptrollerProxy","type":"address","indexed":true,"internalType":"address"},{"name":"listIds","type":"uint256[]","indexed":false,"internalType":"uint256[]"}],"anonymous":false}],"bytecode":{"object":"0x60c060405234801561001057600080fd5b5060405161115138038061115183398101604081905261002f91610062565b6001600160a01b039182166080521660a052610095565b80516001600160a01b038116811461005d57600080fd5b919050565b6000806040838503121561007557600080fd5b61007e83610046565b915061008c60208401610046565b90509250929050565b60805160a0516110836100ce6000396000818160f80152818161030c015261081d01526000818161016d015261022f01526110836000f3fe608060405234801561001057600080fd5b506004361061009e5760003560e01c80637998a1c4116100665780637998a1c414610130578063cbf54bb214610145578063ceb9a0ad1461015a578063d44ad6cb1461016b578063dffd7c6f1461019157600080fd5b80630d4d7510146100a35780630f5f6b4f146100b85780631ef92578146100cb578063579be718146100e357806374708934146100f6575b600080fd5b6100b66100b136600461096d565b6101b1565b005b6100b66100c636600461096d565b610224565b60015b60405190151581526020015b60405180910390f35b6100ce6100f13660046109c2565b6102be565b7f00000000000000000000000000000000000000000000000000000000000000005b6040516001600160a01b0390911681526020016100da565b6101386103ae565b6040516100da9190610a2b565b61014d6103ce565b6040516100da9190610a8f565b6100b6610168366004610ae3565b50565b7f0000000000000000000000000000000000000000000000000000000000000000610118565b6101a461019f366004610ae3565b610437565b6040516100da9190610b42565b60405162461bcd60e51b815260206004820152603760248201527f75706461746546756e6453657474696e67733a2055706461746573206e6f742060448201527f616c6c6f77656420666f72207468697320706f6c69637900000000000000000060648201526084015b60405180910390fd5b336001600160a01b037f000000000000000000000000000000000000000000000000000000000000000016146102ae5760405162461bcd60e51b815260206004820152602960248201527f4f6e6c792074686520506f6c6963794d616e616765722063616e206d616b65206044820152681d1a1a5cc818d85b1b60ba1b606482015260840161021b565b6102b98383836104a1565b505050565b60008061030084848080601f0160208091040260200160405190810160405280939291908181526020018383808284376000920191909152506107d492505050565b5050505050905061032e7f000000000000000000000000000000000000000000000000000000000000000090565b6001600160a01b03166375674f4661034588610437565b836040518363ffffffff1660e01b8152600401610363929190610b55565b602060405180830381865afa158015610380573d6000803e3d6000fd5b505050506040513d601f19601f820116820180604052508101906103a49190610b7f565b9695505050505050565b606060405180606001604052806025815260200161105e60259139905090565b6040805160018082528183019092526060916020808301908036833701905050905060038160008151811061040557610405610bb7565b6020026020010190600981111561041e5761041e610a79565b9081600981111561043157610431610a79565b90525090565b6001600160a01b0381166000908152602081815260409182902080548351818402810184019094528084526060939283018282801561049557602002820191906000526020600020905b815481526020019060010190808311610481575b50505050509050919050565b6000806104b083850185610d0b565b915091506000815183516104c49190610dda565b67ffffffffffffffff8111156104dc576104dc610ba1565b604051908082528060200260200182016040528015610505578160200160208202803683370190505b509050805160000361056a5760405162461bcd60e51b815260206004820152602860248201527f5f5f7570646174654c69737473466f7246756e643a204e6f206c6973747320736044820152671c1958da599a595960c21b606482015260840161021b565b6001600160a01b038616600090815260208190526040902054156105a9576001600160a01b03861660009081526020819052604081206105a9916108dd565b60005b8351811015610654578381815181106105c7576105c7610bb7565b60200260200101518282815181106105e1576105e1610bb7565b602002602001018181525050600080886001600160a01b03166001600160a01b0316815260200190815260200160002084828151811061062357610623610bb7565b602090810291909101810151825460018101845560009384529190922001558061064c81610ded565b9150506105ac565b5081511561078b576000866001600160a01b031663c98091876040518163ffffffff1660e01b8152600401602060405180830381865afa15801561069c573d6000803e3d6000fd5b505050506040513d601f19601f820116820180604052508101906106c09190610e06565b905060005b83518110156107885760008186516106dd9190610dda565b9050610702838684815181106106f5576106f5610bb7565b6020026020010151610806565b84828151811061071457610714610bb7565b6020026020010181815250506000808a6001600160a01b03166001600160a01b0316815260200190815260200160002084828151811061075657610756610bb7565b60209081029190910181015182546001810184556000938452919092200155508061078081610ded565b9150506106c5565b50505b856001600160a01b03167fd63f5b55f54cdda3234eab3aa26d85b99854a43efea66e0c459220fd7b3a332f826040516107c49190610b42565b60405180910390a2505050505050565b60008060006060806000868060200190518101906107f29190610e92565b949c939b5091995097509550909350915050565b6000806000610814846108bc565b9150915061083f7f000000000000000000000000000000000000000000000000000000000000000090565b6001600160a01b031663be68406e8684846040518463ffffffff1660e01b815260040161086e93929190610f86565b6020604051808303816000875af115801561088d573d6000803e3d6000fd5b505050506040513d601f19601f820116820180604052508101906108b19190610ff9565b925050505b92915050565b60006060828060200190518101906108d49190611012565b91509150915091565b508054600082559060005260206000209081019061016891905b8082111561090b57600081556001016108f7565b5090565b6001600160a01b038116811461016857600080fd5b60008083601f84011261093657600080fd5b50813567ffffffffffffffff81111561094e57600080fd5b60208301915083602082850101111561096657600080fd5b9250929050565b60008060006040848603121561098257600080fd5b833561098d8161090f565b9250602084013567ffffffffffffffff8111156109a957600080fd5b6109b586828701610924565b9497909650939450505050565b600080600080606085870312156109d857600080fd5b84356109e38161090f565b93506020850135600a81106109f757600080fd5b9250604085013567ffffffffffffffff811115610a1357600080fd5b610a1f87828801610924565b95989497509550505050565b600060208083528351808285015260005b81811015610a5857858101830151858201604001528201610a3c565b506000604082860101526040601f19601f8301168501019250505092915050565b634e487b7160e01b600052602160045260246000fd5b6020808252825182820181905260009190848201906040850190845b81811015610ad7578351600a8110610ac557610ac5610a79565b83529284019291840191600101610aab565b50909695505050505050565b600060208284031215610af557600080fd5b8135610b008161090f565b9392505050565b600081518084526020808501945080840160005b83811015610b3757815187529582019590820190600101610b1b565b509495945050505050565b602081526000610b006020830184610b07565b604081526000610b686040830185610b07565b905060018060a01b03831660208301529392505050565b600060208284031215610b9157600080fd5b81518015158114610b0057600080fd5b634e487b7160e01b600052604160045260246000fd5b634e487b7160e01b600052603260045260246000fd5b604051601f8201601f1916810167ffffffffffffffff81118282101715610bf657610bf6610ba1565b604052919050565b600067ffffffffffffffff821115610c1857610c18610ba1565b5060051b60200190565b6000601f8381840112610c3457600080fd5b82356020610c49610c4483610bfe565b610bcd565b82815260059290921b85018101918181019087841115610c6857600080fd5b8287015b84811015610cff57803567ffffffffffffffff80821115610c8d5760008081fd5b818a0191508a603f830112610ca25760008081fd5b85820135604082821115610cb857610cb8610ba1565b610cc9828b01601f19168901610bcd565b92508183528c81838601011115610ce05760008081fd5b8181850189850137506000908201870152845250918301918301610c6c565b50979650505050505050565b60008060408385031215610d1e57600080fd5b823567ffffffffffffffff80821115610d3657600080fd5b818501915085601f830112610d4a57600080fd5b81356020610d5a610c4483610bfe565b82815260059290921b84018101918181019089841115610d7957600080fd5b948201945b83861015610d9757853582529482019490820190610d7e565b96505086013592505080821115610dad57600080fd5b50610dba85828601610c22565b9150509250929050565b634e487b7160e01b600052601160045260246000fd5b808201808211156108b6576108b6610dc4565b600060018201610dff57610dff610dc4565b5060010190565b600060208284031215610e1857600080fd5b8151610b008161090f565b600082601f830112610e3457600080fd5b81516020610e44610c4483610bfe565b82815260059290921b84018101918181019086841115610e6357600080fd5b8286015b84811015610e87578051610e7a8161090f565b8352918301918301610e67565b509695505050505050565b60008060008060008060c08789031215610eab57600080fd5b8651610eb68161090f565b80965050602080880151610ec98161090f565b604089015160608a0151919750955067ffffffffffffffff80821115610eee57600080fd5b610efa8b838c01610e23565b955060808a0151915080821115610f1057600080fd5b508801601f81018a13610f2257600080fd5b8051610f30610c4482610bfe565b81815260059190911b8201830190838101908c831115610f4f57600080fd5b928401925b82841015610f6d57835182529284019290840190610f54565b809650505050505060a087015190509295509295509295565b6001600160a01b0384811682526000906060830190602060048710610fad57610fad610a79565b8481018790526060604086015285519283905285810192608086019060005b81811015610fea578551851683529483019491830191600101610fcc565b50909998505050505050505050565b60006020828403121561100b57600080fd5b5051919050565b6000806040838503121561102557600080fd5b82516004811061103457600080fd5b602084015190925067ffffffffffffffff81111561105157600080fd5b610dba85828601610e2356fe414c4c4f5745445f52454445454d4552535f464f525f53504543494649435f415353455453","linkReferences":{}},"methodIdentifiers":{"activateForFund(address)":"ceb9a0ad","addFundSettings(address,bytes)":"0f5f6b4f","canDisable()":"1ef92578","getAddressListRegistry()":"74708934","getListIdsForFund(address)":"dffd7c6f","getPolicyManager()":"d44ad6cb","identifier()":"7998a1c4","implementedHooks()":"cbf54bb2","updateFundSettings(address,bytes)":"0d4d7510","validateRule(address,uint8,bytes)":"579be718"},"id":158}