{"abi":[{"type":"constructor","inputs":[{"name":"_policyManager","type":"address","internalType":"address"},{"name":"_addressListRegistry","type":"address","internalType":"address"}],"stateMutability":"nonpayable"},{"type":"function","name":"activateForFund","inputs":[{"name":"","type":"address","internalType":"address"}],"outputs":[],"stateMutability":"nonpayable"},{"type":"function","name":"addFundSettings","inputs":[{"name":"_comptrollerProxy","type":"address","internalType":"address"},{"name":"_encodedSettings","type":"bytes","internalType":"bytes"}],"outputs":[],"stateMutability":"nonpayable"},{"type":"function","name":"canDisable","inputs":[],"outputs":[{"name":"canDisable_","type":"bool","internalType":"bool"}],"stateMutability":"pure"},{"type":"function","name":"getAddressListRegistry","inputs":[],"outputs":[{"name":"addressListRegistry_","type":"address","internalType":"address"}],"stateMutability":"view"},{"type":"function","name":"getListIdsForFund","inputs":[{"name":"_comptrollerProxy","type":"address","internalType":"address"}],"outputs":[{"name":"listIds_","type":"uint256[]","internalType":"uint256[]"}],"stateMutability":"view"},{"type":"function","name":"getPolicyManager","inputs":[],"outputs":[{"name":"policyManager_","type":"address","internalType":"address"}],"stateMutability":"view"},{"type":"function","name":"identifier","inputs":[],"outputs":[{"name":"identifier_","type":"string","internalType":"string"}],"stateMutability":"pure"},{"type":"function","name":"implementedHooks","inputs":[],"outputs":[{"name":"implementedHooks_","type":"uint8[]","internalType":"enum IPolicyManager.PolicyHook[]"}],"stateMutability":"pure"},{"type":"function","name":"updateFundSettings","inputs":[{"name":"","type":"address","internalType":"address"},{"name":"","type":"bytes","internalType":"bytes"}],"outputs":[],"stateMutability":"nonpayable"},{"type":"function","name":"validateRule","inputs":[{"name":"_comptrollerProxy","type":"address","internalType":"address"},{"name":"","type":"uint8","internalType":"enum IPolicyManager.PolicyHook"},{"name":"_encodedArgs","type":"bytes","internalType":"bytes"}],"outputs":[{"name":"isValid_","type":"bool","internalType":"bool"}],"stateMutability":"view"},{"type":"event","name":"ListsSetForFund","inputs":[{"name":"comptrollerProxy","type":"address","indexed":true,"internalType":"address"},{"name":"listIds","type":"uint256[]","indexed":false,"internalType":"uint256[]"}],"anonymous":false}],"bytecode":{"object":"0x60c06040523480156200001157600080fd5b506040516200141738038062001417833981016040819052620000349162000086565b6001600160a01b039182166080521660a052620000c9565b60006001600160a01b0382165b92915050565b6200006a816200004c565b81146200007657600080fd5b50565b805162000059816200005f565b600080604083850312156200009e576200009e600080fd5b6000620000ac858562000079565b9250506020620000bf8582860162000079565b9150509250929050565b60805160a051611314620001036000396000818160f90152818161026e015261073d01526000818161016301526101d301526113146000f3fe608060405234801561001057600080fd5b506004361061009e5760003560e01c80637998a1c4116100665780637998a1c414610126578063cbf54bb21461013b578063ceb9a0ad14610150578063d44ad6cb14610161578063dffd7c6f1461018757600080fd5b80630d4d7510146100a35780630f5f6b4f146100b85780631ef92578146100cb578063579be718146100e457806374708934146100f7575b600080fd5b6100b66100b13660046108b0565b6101a7565b005b6100b66100c63660046108b0565b6101c8565b60015b6040516100db9190610915565b60405180910390f35b6100ce6100f236600461093b565b610220565b7f00000000000000000000000000000000000000000000000000000000000000005b6040516100db91906109b1565b61012e610310565b6040516100db9190610a15565b610143610330565b6040516100db9190610ad3565b6100b661015e366004610ae4565b50565b7f0000000000000000000000000000000000000000000000000000000000000000610119565b61019a610195366004610ae4565b610399565b6040516100db9190610b5d565b60405162461bcd60e51b81526004016101bf90610bcb565b60405180910390fd5b336001600160a01b037f000000000000000000000000000000000000000000000000000000000000000016146102105760405162461bcd60e51b81526004016101bf90610c21565b61021b838383610403565b505050565b60008061026284848080601f0160208091040260200160405190810160405280939291908181526020018383808284376000920191909152506106f492505050565b505050505090506102907f000000000000000000000000000000000000000000000000000000000000000090565b6001600160a01b03166375674f466102a788610399565b836040518363ffffffff1660e01b81526004016102c5929190610c31565b602060405180830381865afa1580156102e2573d6000803e3d6000fd5b505050506040513d601f19601f820116820180604052508101906103069190610c64565b9695505050505050565b60606040518060600160405280602581526020016112ef60259139905090565b6040805160018082528183019092526060916020808301908036833701905050905060038160008151811061036757610367610c9b565b6020026020010190600981111561038057610380610a2d565b9081600981111561039357610393610a2d565b90525090565b6001600160a01b038116600090815260208181526040918290208054835181840281018401909452808452606093928301828280156103f757602002820191906000526020600020905b8154815260200190600101908083116103e3575b50505050509050919050565b60008061041283850185610ed3565b915091506000815183516104269190610f59565b6001600160401b0381111561043d5761043d610c85565b604051908082528060200260200182016040528015610466578160200160208202803683370190505b509050805160000361048a5760405162461bcd60e51b81526004016101bf90610fb1565b6001600160a01b038616600090815260208190526040902054156104c9576001600160a01b03861660009081526020819052604081206104c9916107fd565b60005b8351811015610574578381815181106104e7576104e7610c9b565b602002602001015182828151811061050157610501610c9b565b602002602001018181525050600080886001600160a01b03166001600160a01b0316815260200190815260200160002084828151811061054357610543610c9b565b602090810291909101810151825460018101845560009384529190922001558061056c81610fc1565b9150506104cc565b508151156106ab576000866001600160a01b031663c98091876040518163ffffffff1660e01b8152600401602060405180830381865afa1580156105bc573d6000803e3d6000fd5b505050506040513d601f19601f820116820180604052508101906105e09190610fe6565b905060005b83518110156106a85760008186516105fd9190610f59565b90506106228386848151811061061557610615610c9b565b6020026020010151610726565b84828151811061063457610634610c9b565b6020026020010181815250506000808a6001600160a01b03166001600160a01b0316815260200190815260200160002084828151811061067657610676610c9b565b6020908102919091018101518254600181018455600093845291909220015550806106a081610fc1565b9150506105e5565b50505b856001600160a01b03167fd63f5b55f54cdda3234eab3aa26d85b99854a43efea66e0c459220fd7b3a332f826040516106e49190610b5d565b60405180910390a2505050505050565b600080600060608060008680602001905181019061071291906110fc565b949c939b5091995097509550909350915050565b6000806000610734846107dc565b9150915061075f7f000000000000000000000000000000000000000000000000000000000000000090565b6001600160a01b031663be68406e8684846040518463ffffffff1660e01b815260040161078e93929190611232565b6020604051808303816000875af11580156107ad573d6000803e3d6000fd5b505050506040513d601f19601f820116820180604052508101906107d19190611268565b925050505b92915050565b60006060828060200190518101906107f491906112a1565b91509150915091565b508054600082559060005260206000209081019061015e91905b8082111561082b5760008155600101610817565b5090565b60006001600160a01b0382166107d6565b6108498161082f565b811461015e57600080fd5b80356107d681610840565b60008083601f84011261087457610874600080fd5b5081356001600160401b0381111561088e5761088e600080fd5b6020830191508360018202830111156108a9576108a9600080fd5b9250929050565b6000806000604084860312156108c8576108c8600080fd5b60006108d48686610854565b93505060208401356001600160401b038111156108f3576108f3600080fd5b6108ff8682870161085f565b92509250509250925092565b8015155b82525050565b602081016107d6828461090b565b600a811061015e57600080fd5b80356107d681610923565b6000806000806060858703121561095457610954600080fd5b60006109608787610854565b945050602061097187828801610930565b93505060408501356001600160401b0381111561099057610990600080fd5b61099c8782880161085f565b95989497509550505050565b61090f8161082f565b602081016107d682846109a8565b60005b838110156109da5781810151838201526020016109c2565b50506000910152565b60006109ed825190565b808452602084019350610a048185602086016109bf565b601f01601f19169290920192915050565b60208082528101610a2681846109e3565b9392505050565b634e487b7160e01b600052602160045260246000fd5b600a811061015e5761015e610a2d565b80610a5d81610a43565b919050565b60006107d682610a53565b61090f81610a62565b6000610a828383610a6d565b505060200190565b6000610a94825190565b80845260209384019383018060005b83811015610ac8578151610ab78882610a76565b975060208301925050600101610aa3565b509495945050505050565b60208082528101610a268184610a8a565b600060208284031215610af957610af9600080fd5b6000610b058484610854565b949350505050565b8061090f565b6000610a828383610b0d565b6000610b29825190565b80845260209384019383018060005b83811015610ac8578151610b4c8882610b13565b975060208301925050600101610b38565b60208082528101610a268184610b1f565b603781526000602082017f75706461746546756e6453657474696e67733a2055706461746573206e6f742081527f616c6c6f77656420666f72207468697320706f6c696379000000000000000000602082015291505b5060400190565b602080825281016107d681610b6e565b602981526000602082017f4f6e6c792074686520506f6c6963794d616e616765722063616e206d616b65208152681d1a1a5cc818d85b1b60ba1b60208201529150610bc4565b602080825281016107d681610bdb565b60408082528101610c428185610b1f565b9050610a2660208301846109a8565b801515610849565b80516107d681610c51565b600060208284031215610c7957610c79600080fd5b6000610b058484610c59565b634e487b7160e01b600052604160045260246000fd5b634e487b7160e01b600052603260045260246000fd5b601f19601f83011681018181106001600160401b0382111715610cd657610cd6610c85565b6040525050565b6000610ce860405190565b9050610a5d8282610cb1565b60006001600160401b03821115610d0d57610d0d610c85565b5060209081020190565b80610849565b80356107d681610d17565b6000610d3b610d3684610cf4565b610cdd565b83815290506020808201908402830185811115610d5a57610d5a600080fd5b835b81811015610d7e5780610d6f8882610d1d565b84525060209283019201610d5c565b5050509392505050565b600082601f830112610d9c57610d9c600080fd5b8135610b05848260208601610d28565b60006001600160401b03821115610dc557610dc5610c85565b601f19601f83011660200192915050565b82818337506000910152565b6000610df0610d3684610dac565b905082815260208101848484011115610e0b57610e0b600080fd5b610e16848285610dd6565b509392505050565b600082601f830112610e3257610e32600080fd5b8135610b05848260208601610de2565b6000610e50610d3684610cf4565b83815290506020808201908402830185811115610e6f57610e6f600080fd5b835b81811015610d7e5780356001600160401b03811115610e9257610e92600080fd5b808601610e9f8982610e1e565b8552505060209283019201610e71565b600082601f830112610ec357610ec3600080fd5b8135610b05848260208601610e42565b60008060408385031215610ee957610ee9600080fd5b82356001600160401b03811115610f0257610f02600080fd5b610f0e85828601610d88565b92505060208301356001600160401b03811115610f2d57610f2d600080fd5b610f3985828601610eaf565b9150509250929050565b634e487b7160e01b600052601160045260246000fd5b808201808211156107d6576107d6610f43565b602881526000602082017f5f5f7570646174654c69737473466f7246756e643a204e6f206c6973747320738152671c1958da599a595960c21b60208201529150610bc4565b602080825281016107d681610f6c565b60006000198203610fd457610fd4610f43565b5060010190565b80516107d681610840565b600060208284031215610ffb57610ffb600080fd5b6000610b058484610fdb565b80516107d681610d17565b6000611020610d3684610cf4565b8381529050602080820190840283018581111561103f5761103f600080fd5b835b81811015610d7e57806110548882610fdb565b84525060209283019201611041565b600082601f83011261107757611077600080fd5b8151610b05848260208601611012565b6000611095610d3684610cf4565b838152905060208082019084028301858111156110b4576110b4600080fd5b835b81811015610d7e57806110c98882611007565b845250602092830192016110b6565b600082601f8301126110ec576110ec600080fd5b8151610b05848260208601611087565b60008060008060008060c0878903121561111857611118600080fd5b60006111248989610fdb565b965050602061113589828a01610fdb565b955050604061114689828a01611007565b94505060608701516001600160401b0381111561116557611165600080fd5b61117189828a01611063565b93505060808701516001600160401b0381111561119057611190600080fd5b61119c89828a016110d8565b92505060a06111ad89828a01611007565b9150509295509295509295565b6004811061015e5761015e610a2d565b80610a5d816111ba565b60006107d6826111ca565b61090f816111d4565b6000610a8283836109a8565b60006111fe825190565b80845260209384019383018060005b83811015610ac857815161122188826111e8565b97506020830192505060010161120d565b6060810161124082866109a8565b61124d60208301856111df565b818103604083015261125f81846111f4565b95945050505050565b60006020828403121561127d5761127d600080fd5b6000610b058484611007565b6004811061015e57600080fd5b80516107d681611289565b600080604083850312156112b7576112b7600080fd5b60006112c38585611296565b92505060208301516001600160401b038111156112e2576112e2600080fd5b610f398582860161106356fe414c4c4f5745445f52454445454d4552535f464f525f53504543494649435f415353455453","linkReferences":{}},"methodIdentifiers":{"activateForFund(address)":"ceb9a0ad","addFundSettings(address,bytes)":"0f5f6b4f","canDisable()":"1ef92578","getAddressListRegistry()":"74708934","getListIdsForFund(address)":"dffd7c6f","getPolicyManager()":"d44ad6cb","identifier()":"7998a1c4","implementedHooks()":"cbf54bb2","updateFundSettings(address,bytes)":"0d4d7510","validateRule(address,uint8,bytes)":"579be718"},"id":181}