{"abi":[{"type":"constructor","inputs":[{"name":"_policyManager","type":"address","internalType":"address"},{"name":"_addressListRegistry","type":"address","internalType":"address"}],"stateMutability":"nonpayable"},{"type":"function","name":"BYPASS_FLAG","inputs":[],"outputs":[{"name":"","type":"uint256","internalType":"uint256"}],"stateMutability":"view"},{"type":"function","name":"activateForFund","inputs":[{"name":"","type":"address","internalType":"address"}],"outputs":[],"stateMutability":"nonpayable"},{"type":"function","name":"addFundSettings","inputs":[{"name":"_comptrollerProxy","type":"address","internalType":"address"},{"name":"_encodedSettings","type":"bytes","internalType":"bytes"}],"outputs":[],"stateMutability":"nonpayable"},{"type":"function","name":"canDisable","inputs":[],"outputs":[{"name":"canDisable_","type":"bool","internalType":"bool"}],"stateMutability":"pure"},{"type":"function","name":"getListIdsForFundAndUser","inputs":[{"name":"_comptrollerProxy","type":"address","internalType":"address"},{"name":"_user","type":"address","internalType":"address"}],"outputs":[{"name":"listIds_","type":"uint256[]","internalType":"uint256[]"}],"stateMutability":"view"},{"type":"function","name":"getPolicyManager","inputs":[],"outputs":[{"name":"policyManager_","type":"address","internalType":"address"}],"stateMutability":"view"},{"type":"function","name":"identifier","inputs":[],"outputs":[{"name":"identifier_","type":"string","internalType":"string"}],"stateMutability":"pure"},{"type":"function","name":"implementedHooks","inputs":[],"outputs":[{"name":"implementedHooks_","type":"uint8[]","internalType":"enum IPolicyManager.PolicyHook[]"}],"stateMutability":"pure"},{"type":"function","name":"passesRule","inputs":[{"name":"_comptrollerProxy","type":"address","internalType":"address"},{"name":"_caller","type":"address","internalType":"address"},{"name":"_adapter","type":"address","internalType":"address"}],"outputs":[{"name":"isValid_","type":"bool","internalType":"bool"}],"stateMutability":"view"},{"type":"function","name":"updateFundSettings","inputs":[{"name":"_comptrollerProxy","type":"address","internalType":"address"},{"name":"_encodedSettings","type":"bytes","internalType":"bytes"}],"outputs":[],"stateMutability":"nonpayable"},{"type":"function","name":"validateRule","inputs":[{"name":"_comptrollerProxy","type":"address","internalType":"address"},{"name":"","type":"uint8","internalType":"enum IPolicyManager.PolicyHook"},{"name":"_encodedArgs","type":"bytes","internalType":"bytes"}],"outputs":[{"name":"isValid_","type":"bool","internalType":"bool"}],"stateMutability":"nonpayable"},{"type":"event","name":"ListsSetForFundAndUser","inputs":[{"name":"comptrollerProxy","type":"address","indexed":true,"internalType":"address"},{"name":"user","type":"address","indexed":true,"internalType":"address"},{"name":"listIds","type":"uint256[]","indexed":false,"internalType":"uint256[]"}],"anonymous":false}],"bytecode":{"object":"0x60c06040523480156200001157600080fd5b506040516200203e3803806200203e8339818101604052810190620000379190620000ca565b8181818073ffffffffffffffffffffffffffffffffffffffff1660808173ffffffffffffffffffffffffffffffffffffffff1660601b81525050508073ffffffffffffffffffffffffffffffffffffffff1660a08173ffffffffffffffffffffffffffffffffffffffff1660601b815250505050505062000159565b600081519050620000c4816200013f565b92915050565b60008060408385031215620000de57600080fd5b6000620000ee85828601620000b3565b92505060206200010185828601620000b3565b9150509250929050565b600062000118826200011f565b9050919050565b600073ffffffffffffffffffffffffffffffffffffffff82169050919050565b6200014a816200010b565b81146200015657600080fd5b50565b60805160601c60a05160601c611eac62000192600039806107395280610dc452508061022a52806102c852806107f45250611eac6000f3fe608060405234801561001057600080fd5b50600436106100a95760003560e01c80637998a1c4116100715780637998a1c414610152578063b174666c14610170578063cbf54bb2146101a0578063ccdf1caf146101be578063ceb9a0ad146101ee578063d44ad6cb1461020a576100a9565b80630d4d7510146100ae5780630f5f6b4f146100ca5780631ef92578146100e6578063572a45e114610104578063579be71814610122575b600080fd5b6100c860048036038101906100c391906114c0565b610228565b005b6100e460048036038101906100df91906114c0565b6102c6565b005b6100ee610364565b6040516100fb9190611a9f565b60405180910390f35b61010c61036d565b6040516101199190611b1c565b60405180910390f35b61013c60048036038101906101379190611518565b610391565b6040516101499190611a9f565b60405180910390f35b61015a610403565b6040516101679190611aba565b60405180910390f35b61018a60048036038101906101859190611435565b610440565b6040516101979190611a4d565b60405180910390f35b6101a8610514565b6040516101b59190611a2b565b60405180910390f35b6101d860048036038101906101d39190611471565b610596565b6040516101e59190611a9f565b60405180910390f35b610208600480360381019061020391906112e5565b6107ed565b005b6102126107f0565b60405161021f91906119d2565b60405180910390f35b7f000000000000000000000000000000000000000000000000000000000000000073ffffffffffffffffffffffffffffffffffffffff163373ffffffffffffffffffffffffffffffffffffffff16146102b6576040517f08c379a00000000000000000000000000000000000000000000000000000000081526004016102ad90611afc565b60405180910390fd5b6102c1838383610818565b505050565b7f000000000000000000000000000000000000000000000000000000000000000073ffffffffffffffffffffffffffffffffffffffff163373ffffffffffffffffffffffffffffffffffffffff1614610354576040517f08c379a000000000000000000000000000000000000000000000000000000000815260040161034b90611afc565b60405180910390fd5b61035f838383610818565b505050565b60006001905090565b7fffffffffffffffffffffffffffffffffffffffffffffffffffffffffffffffff81565b60008060006103e385858080601f016020809104026020016040519081016040528093929190818152602001838380828437600081840152601f19601f820116905080830192505050505050506108bf565b5050505050915091506103f7878383610596565b92505050949350505050565b60606040518060400160405280601c81526020017f414c4c4f5745445f41444150544552535f5045525f4d414e4147455200000000815250905090565b60606000808473ffffffffffffffffffffffffffffffffffffffff1673ffffffffffffffffffffffffffffffffffffffff16815260200190815260200160002060008373ffffffffffffffffffffffffffffffffffffffff1673ffffffffffffffffffffffffffffffffffffffff16815260200190815260200160002080548060200260200160405190810160405280929190818152602001828054801561050757602002820191906000526020600020905b8154815260200190600101908083116104f3575b5050505050905092915050565b6060600167ffffffffffffffff8111801561052e57600080fd5b5060405190808252806020026020018201604052801561055d5781602001602082028036833780820191505090505b50905060018160008151811061056f57fe5b6020026020010190600981111561058257fe5b9081600981111561058f57fe5b8152505090565b60008373ffffffffffffffffffffffffffffffffffffffff1663c98091876040518163ffffffff1660e01b815260040160206040518083038186803b1580156105de57600080fd5b505afa1580156105f2573d6000803e3d6000fd5b505050506040513d601f19601f82011682018060405250810190610616919061130e565b73ffffffffffffffffffffffffffffffffffffffff1663893d20e86040518163ffffffff1660e01b815260040160206040518083038186803b15801561065b57600080fd5b505afa15801561066f573d6000803e3d6000fd5b505050506040513d601f19601f82011682018060405250810190610693919061130e565b73ffffffffffffffffffffffffffffffffffffffff168373ffffffffffffffffffffffffffffffffffffffff1614156106cf57600190506107e6565b60606106db8585610440565b90506000815114156106f15760009150506107e6565b7fffffffffffffffffffffffffffffffffffffffffffffffffffffffffffffffff8160008151811061071f57fe5b602002602001015114156107375760019150506107e6565b7f000000000000000000000000000000000000000000000000000000000000000073ffffffffffffffffffffffffffffffffffffffff166375674f4682856040518363ffffffff1660e01b8152600401610792929190611a6f565b60206040518083038186803b1580156107aa57600080fd5b505afa1580156107be573d6000803e3d6000fd5b505050506040513d601f19601f820116820180604052508101906107e2919061165c565b9150505b9392505050565b50565b60007f0000000000000000000000000000000000000000000000000000000000000000905090565b60608061082584846108f7565b91509150805182511461086d576040517f08c379a000000000000000000000000000000000000000000000000000000000815260040161086490611adc565b60405180910390fd5b60005b81518110156108b7576108aa8684838151811061088957fe5b602002602001015184848151811061089d57fe5b6020026020010151610914565b8080600101915050610870565b505050505050565b6000806000606080606080878060200190518101906108de9190611337565b9650965096509650965096509650919395979092949650565b60608083838101906109099190611584565b915091509250929050565b60608061092083610d90565b9150915060008060008773ffffffffffffffffffffffffffffffffffffffff1673ffffffffffffffffffffffffffffffffffffffff16815260200190815260200160002060008673ffffffffffffffffffffffffffffffffffffffff1673ffffffffffffffffffffffffffffffffffffffff168152602001908152602001600020805490501115610a33576000808673ffffffffffffffffffffffffffffffffffffffff1673ffffffffffffffffffffffffffffffffffffffff16815260200190815260200160002060008573ffffffffffffffffffffffffffffffffffffffff1673ffffffffffffffffffffffffffffffffffffffff1681526020019081526020016000206000610a329190610e9c565b5b6060815183510167ffffffffffffffff81118015610a5057600080fd5b50604051908082528060200260200182016040528015610a7f5781602001602082028036833780820191505090505b509050600081511115610d235760005b8351811015610b8657838181518110610aa457fe5b6020026020010151828281518110610ab857fe5b6020026020010181815250506000808873ffffffffffffffffffffffffffffffffffffffff1673ffffffffffffffffffffffffffffffffffffffff16815260200190815260200160002060008773ffffffffffffffffffffffffffffffffffffffff1673ffffffffffffffffffffffffffffffffffffffff168152602001908152602001600020848281518110610b4b57fe5b602002602001015190806001815401808255809150506001900390600052602060002001600090919091909150558080600101915050610a8f565b50600082511115610d225760008673ffffffffffffffffffffffffffffffffffffffff1663c98091876040518163ffffffff1660e01b815260040160206040518083038186803b158015610bd957600080fd5b505afa158015610bed573d6000803e3d6000fd5b505050506040513d601f19601f82011682018060405250810190610c11919061130e565b905060005b8351811015610d1f576000818651019050610c4483868481518110610c3757fe5b6020026020010151610db0565b848281518110610c5057fe5b6020026020010181815250506000808a73ffffffffffffffffffffffffffffffffffffffff1673ffffffffffffffffffffffffffffffffffffffff16815260200190815260200160002060008973ffffffffffffffffffffffffffffffffffffffff1673ffffffffffffffffffffffffffffffffffffffff168152602001908152602001600020848281518110610ce357fe5b60200260200101519080600181540180825580915050600190039060005260206000200160009091909190915055508080600101915050610c16565b50505b5b8473ffffffffffffffffffffffffffffffffffffffff168673ffffffffffffffffffffffffffffffffffffffff167fe737257df130e7ddcae83b49adac67dc3dcc32950b3e5ee558eae2f0b842a50f83604051610d809190611a4d565b60405180910390a3505050505050565b60608082806020019051810190610da791906115f0565b91509150915091565b6000806060610dbe84610e7b565b915091507f000000000000000000000000000000000000000000000000000000000000000073ffffffffffffffffffffffffffffffffffffffff1663be68406e8684846040518463ffffffff1660e01b8152600401610e1f939291906119ed565b602060405180830381600087803b158015610e3957600080fd5b505af1158015610e4d573d6000803e3d6000fd5b505050506040513d601f19601f82011682018060405250810190610e7191906116d9565b9250505092915050565b6000606082806020019051810190610e939190611685565b91509150915091565b5080546000825590600052602060002090810190610eba9190610ebd565b50565b5b80821115610ed6576000816000905550600101610ebe565b5090565b600081359050610ee981611e0c565b92915050565b600081519050610efe81611e0c565b92915050565b600081519050610f1381611e23565b92915050565b600082601f830112610f2a57600080fd5b8135610f3d610f3882611b64565b611b37565b91508181835260208401935060208101905083856020840282011115610f6257600080fd5b60005b83811015610f925781610f788882610eda565b845260208401935060208301925050600181019050610f65565b5050505092915050565b600082601f830112610fad57600080fd5b8151610fc0610fbb82611b64565b611b37565b91508181835260208401935060208101905083856020840282011115610fe557600080fd5b60005b838110156110155781610ffb8882610eef565b845260208401935060208301925050600181019050610fe8565b5050505092915050565b600082601f83011261103057600080fd5b813561104361103e82611b8c565b611b37565b9150818183526020840193506020810190508360005b83811015611089578135860161106f88826111fe565b845260208401935060208301925050600181019050611059565b5050505092915050565b600082601f8301126110a457600080fd5b81516110b76110b282611b8c565b611b37565b9150818183526020840193506020810190508360005b838110156110fd57815186016110e38882611252565b8452602084019350602083019250506001810190506110cd565b5050505092915050565b600082601f83011261111857600080fd5b815161112b61112682611bb4565b611b37565b9150818183526020840193506020810190508385602084028201111561115057600080fd5b60005b83811015611180578161116688826112d0565b845260208401935060208301925050600181019050611153565b5050505092915050565b60008151905061119981611e3a565b92915050565b6000815190506111ae81611e51565b92915050565b60008083601f8401126111c657600080fd5b8235905067ffffffffffffffff8111156111df57600080fd5b6020830191508360018202830111156111f757600080fd5b9250929050565b600082601f83011261120f57600080fd5b813561122261121d82611bdc565b611b37565b9150808252602083016020830185838301111561123e57600080fd5b611249838284611d9f565b50505092915050565b600082601f83011261126357600080fd5b815161127661127182611bdc565b611b37565b9150808252602083016020830185838301111561129257600080fd5b61129d838284611dae565b50505092915050565b6000813590506112b581611e68565b92915050565b6000815190506112ca81611e78565b92915050565b6000815190506112df81611e88565b92915050565b6000602082840312156112f757600080fd5b600061130584828501610eda565b91505092915050565b60006020828403121561132057600080fd5b600061132e84828501610eef565b91505092915050565b600080600080600080600060e0888a03121561135257600080fd5b60006113608a828b01610f04565b97505060206113718a828b01610f04565b96505060406113828a828b0161119f565b955050606088015167ffffffffffffffff81111561139f57600080fd5b6113ab8a828b01610f9c565b945050608088015167ffffffffffffffff8111156113c857600080fd5b6113d48a828b01611107565b93505060a088015167ffffffffffffffff8111156113f157600080fd5b6113fd8a828b01610f9c565b92505060c088015167ffffffffffffffff81111561141a57600080fd5b6114268a828b01611107565b91505092959891949750929550565b6000806040838503121561144857600080fd5b600061145685828601610eda565b925050602061146785828601610eda565b9150509250929050565b60008060006060848603121561148657600080fd5b600061149486828701610eda565b93505060206114a586828701610eda565b92505060406114b686828701610eda565b9150509250925092565b6000806000604084860312156114d557600080fd5b60006114e386828701610eda565b935050602084013567ffffffffffffffff81111561150057600080fd5b61150c868287016111b4565b92509250509250925092565b6000806000806060858703121561152e57600080fd5b600061153c87828801610eda565b945050602061154d878288016112a6565b935050604085013567ffffffffffffffff81111561156a57600080fd5b611576878288016111b4565b925092505092959194509250565b6000806040838503121561159757600080fd5b600083013567ffffffffffffffff8111156115b157600080fd5b6115bd85828601610f19565b925050602083013567ffffffffffffffff8111156115da57600080fd5b6115e68582860161101f565b9150509250929050565b6000806040838503121561160357600080fd5b600083015167ffffffffffffffff81111561161d57600080fd5b61162985828601611107565b925050602083015167ffffffffffffffff81111561164657600080fd5b61165285828601611093565b9150509250929050565b60006020828403121561166e57600080fd5b600061167c8482850161118a565b91505092915050565b6000806040838503121561169857600080fd5b60006116a6858286016112bb565b925050602083015167ffffffffffffffff8111156116c357600080fd5b6116cf85828601610f9c565b9150509250929050565b6000602082840312156116eb57600080fd5b60006116f9848285016112d0565b91505092915050565b600061170e838361174a565b60208301905092915050565b60006117268383611891565b60208301905092915050565b600061173e83836119b4565b60208301905092915050565b61175381611ccf565b82525050565b61176281611ccf565b82525050565b600061177382611c38565b61177d8185611c8b565b935061178883611c08565b8060005b838110156117b95781516117a08882611702565b97506117ab83611c64565b92505060018101905061178c565b5085935050505092915050565b60006117d182611c43565b6117db8185611cad565b93506117e683611c18565b8060005b838110156118175781516117fe888261171a565b975061180983611c71565b9250506001810190506117ea565b5085935050505092915050565b600061182f82611c4e565b6118398185611c9c565b935061184483611c28565b8060005b8381101561187557815161185c8882611732565b975061186783611c7e565b925050600181019050611848565b5085935050505092915050565b61188b81611cf3565b82525050565b61189a81611d7b565b82525050565b6118a981611d8d565b82525050565b60006118ba82611c59565b6118c48185611cbe565b93506118d4818560208601611dae565b6118dd81611de1565b840191505092915050565b60006118f5602483611cbe565b91507f5f5f7570646174654c69737473466f7246756e643a20756e657175616c20617260008301527f72617973000000000000000000000000000000000000000000000000000000006020830152604082019050919050565b600061195b602983611cbe565b91507f4f6e6c792074686520506f6c6963794d616e616765722063616e206d616b652060008301527f746869732063616c6c00000000000000000000000000000000000000000000006020830152604082019050919050565b6119bd81611d71565b82525050565b6119cc81611d71565b82525050565b60006020820190506119e76000830184611759565b92915050565b6000606082019050611a026000830186611759565b611a0f60208301856118a0565b8181036040830152611a218184611768565b9050949350505050565b60006020820190508181036000830152611a4581846117c6565b905092915050565b60006020820190508181036000830152611a678184611824565b905092915050565b60006040820190508181036000830152611a898185611824565b9050611a986020830184611759565b9392505050565b6000602082019050611ab46000830184611882565b92915050565b60006020820190508181036000830152611ad481846118af565b905092915050565b60006020820190508181036000830152611af5816118e8565b9050919050565b60006020820190508181036000830152611b158161194e565b9050919050565b6000602082019050611b3160008301846119c3565b92915050565b6000604051905081810181811067ffffffffffffffff82111715611b5a57600080fd5b8060405250919050565b600067ffffffffffffffff821115611b7b57600080fd5b602082029050602081019050919050565b600067ffffffffffffffff821115611ba357600080fd5b602082029050602081019050919050565b600067ffffffffffffffff821115611bcb57600080fd5b602082029050602081019050919050565b600067ffffffffffffffff821115611bf357600080fd5b601f19601f8301169050602081019050919050565b6000819050602082019050919050565b6000819050602082019050919050565b6000819050602082019050919050565b600081519050919050565b600081519050919050565b600081519050919050565b600081519050919050565b6000602082019050919050565b6000602082019050919050565b6000602082019050919050565b600082825260208201905092915050565b600082825260208201905092915050565b600082825260208201905092915050565b600082825260208201905092915050565b6000611cda82611d51565b9050919050565b6000611cec82611d51565b9050919050565b60008115159050919050565b60007fffffffff0000000000000000000000000000000000000000000000000000000082169050919050565b6000819050611d3982611df2565b919050565b6000819050611d4c82611dff565b919050565b600073ffffffffffffffffffffffffffffffffffffffff82169050919050565b6000819050919050565b6000611d8682611d2b565b9050919050565b6000611d9882611d3e565b9050919050565b82818337600083830152505050565b60005b83811015611dcc578082015181840152602081019050611db1565b83811115611ddb576000848401525b50505050565b6000601f19601f8301169050919050565b600a8110611dfc57fe5b50565b60048110611e0957fe5b50565b611e1581611ccf565b8114611e2057600080fd5b50565b611e2c81611ce1565b8114611e3757600080fd5b50565b611e4381611cf3565b8114611e4e57600080fd5b50565b611e5a81611cff565b8114611e6557600080fd5b50565b600a8110611e7557600080fd5b50565b60048110611e8557600080fd5b50565b611e9181611d71565b8114611e9c57600080fd5b5056fea164736f6c634300060c000a","linkReferences":{}},"methodIdentifiers":{"BYPASS_FLAG()":"572a45e1","activateForFund(address)":"ceb9a0ad","addFundSettings(address,bytes)":"0f5f6b4f","canDisable()":"1ef92578","getListIdsForFundAndUser(address,address)":"b174666c","getPolicyManager()":"d44ad6cb","identifier()":"7998a1c4","implementedHooks()":"cbf54bb2","passesRule(address,address,address)":"ccdf1caf","updateFundSettings(address,bytes)":"0d4d7510","validateRule(address,uint8,bytes)":"579be718"},"id":252}