{"abi":[{"type":"constructor","inputs":[{"name":"_policyManager","type":"address","internalType":"address"},{"name":"_addressListRegistry","type":"address","internalType":"address"}],"stateMutability":"nonpayable"},{"type":"function","name":"activateForFund","inputs":[{"name":"","type":"address","internalType":"address"}],"outputs":[],"stateMutability":"nonpayable"},{"type":"function","name":"addFundSettings","inputs":[{"name":"_comptrollerProxy","type":"address","internalType":"address"},{"name":"_encodedSettings","type":"bytes","internalType":"bytes"}],"outputs":[],"stateMutability":"nonpayable"},{"type":"function","name":"canDisable","inputs":[],"outputs":[{"name":"canDisable_","type":"bool","internalType":"bool"}],"stateMutability":"pure"},{"type":"function","name":"getAddressListRegistry","inputs":[],"outputs":[{"name":"addressListRegistry_","type":"address","internalType":"address"}],"stateMutability":"view"},{"type":"function","name":"getListIdsForFund","inputs":[{"name":"_comptrollerProxy","type":"address","internalType":"address"}],"outputs":[{"name":"listIds_","type":"uint256[]","internalType":"uint256[]"}],"stateMutability":"view"},{"type":"function","name":"getPolicyManager","inputs":[],"outputs":[{"name":"policyManager_","type":"address","internalType":"address"}],"stateMutability":"view"},{"type":"function","name":"identifier","inputs":[],"outputs":[{"name":"identifier_","type":"string","internalType":"string"}],"stateMutability":"pure"},{"type":"function","name":"implementedHooks","inputs":[],"outputs":[{"name":"implementedHooks_","type":"uint8[]","internalType":"enum IPolicyManager.PolicyHook[]"}],"stateMutability":"pure"},{"type":"function","name":"passesRule","inputs":[{"name":"_comptrollerProxy","type":"address","internalType":"address"},{"name":"_recipient","type":"address","internalType":"address"}],"outputs":[{"name":"isValid_","type":"bool","internalType":"bool"}],"stateMutability":"view"},{"type":"function","name":"updateFundSettings","inputs":[{"name":"_comptrollerProxy","type":"address","internalType":"address"},{"name":"_encodedSettings","type":"bytes","internalType":"bytes"}],"outputs":[],"stateMutability":"nonpayable"},{"type":"function","name":"validateRule","inputs":[{"name":"_comptrollerProxy","type":"address","internalType":"address"},{"name":"","type":"uint8","internalType":"enum IPolicyManager.PolicyHook"},{"name":"_encodedArgs","type":"bytes","internalType":"bytes"}],"outputs":[{"name":"isValid_","type":"bool","internalType":"bool"}],"stateMutability":"nonpayable"},{"type":"event","name":"ListsSetForFund","inputs":[{"name":"comptrollerProxy","type":"address","indexed":true,"internalType":"address"},{"name":"listIds","type":"uint256[]","indexed":false,"internalType":"uint256[]"}],"anonymous":false}],"bytecode":{"object":"0x60c06040523480156200001157600080fd5b506040516200194c3803806200194c8339818101604052810190620000379190620000ca565b8181818073ffffffffffffffffffffffffffffffffffffffff1660808173ffffffffffffffffffffffffffffffffffffffff1660601b81525050508073ffffffffffffffffffffffffffffffffffffffff1660a08173ffffffffffffffffffffffffffffffffffffffff1660601b815250505050505062000159565b600081519050620000c4816200013f565b92915050565b60008060408385031215620000de57600080fd5b6000620000ee85828601620000b3565b92505060206200010185828601620000b3565b9150509250929050565b600062000118826200011f565b9050919050565b600073ffffffffffffffffffffffffffffffffffffffff82169050919050565b6200014a816200010b565b81146200015657600080fd5b50565b60805160601c60a05160601c6117bf6200018d600039806103da52508061022a52806102c8528061054b52506117bf6000f3fe608060405234801561001057600080fd5b50600436106100a95760003560e01c80637998a1c4116100715780637998a1c414610152578063b67cb40c14610170578063cbf54bb2146101a0578063ceb9a0ad146101be578063d44ad6cb146101da578063dffd7c6f146101f8576100a9565b80630d4d7510146100ae5780630f5f6b4f146100ca5780631ef92578146100e6578063579be718146101045780637470893414610134575b600080fd5b6100c860048036038101906100c39190610e8a565b610228565b005b6100e460048036038101906100df9190610e8a565b6102c6565b005b6100ee610364565b6040516100fb91906113ee565b60405180910390f35b61011e60048036038101906101199190610ee2565b61036d565b60405161012b91906113ee565b60405180910390f35b61013c6103d6565b6040516101499190611321565b60405180910390f35b61015a6103fe565b6040516101679190611409565b60405180910390f35b61018a60048036038101906101859190610e4e565b61041e565b60405161019791906113ee565b60405180910390f35b6101a86104c2565b6040516101b5919061137a565b60405180910390f35b6101d860048036038101906101d39190610dad565b610544565b005b6101e2610547565b6040516101ef9190611321565b60405180910390f35b610212600480360381019061020d9190610dad565b61056f565b60405161021f919061139c565b60405180910390f35b7f000000000000000000000000000000000000000000000000000000000000000073ffffffffffffffffffffffffffffffffffffffff163373ffffffffffffffffffffffffffffffffffffffff16146102b6576040517f08c379a00000000000000000000000000000000000000000000000000000000081526004016102ad9061142b565b60405180910390fd5b6102c1838383610605565b505050565b7f000000000000000000000000000000000000000000000000000000000000000073ffffffffffffffffffffffffffffffffffffffff163373ffffffffffffffffffffffffffffffffffffffff1614610354576040517f08c379a000000000000000000000000000000000000000000000000000000000815260040161034b9061142b565b60405180910390fd5b61035f838383610605565b505050565b60006001905090565b6000806103bd84848080601f016020809104026020016040519081016040528093929190818152602001838380828437600081840152601f19601f820116905080830192505050505050506109b6565b509150506103cb868261041e565b915050949350505050565b60007f0000000000000000000000000000000000000000000000000000000000000000905090565b606060405180606001604052806022815260200161179160229139905090565b60006104286103d6565b73ffffffffffffffffffffffffffffffffffffffff166375674f4661044c8561056f565b846040518363ffffffff1660e01b815260040161046a9291906113be565b60206040518083038186803b15801561048257600080fd5b505afa158015610496573d6000803e3d6000fd5b505050506040513d601f19601f820116820180604052508101906104ba9190610fba565b905092915050565b6060600167ffffffffffffffff811180156104dc57600080fd5b5060405190808252806020026020018201604052801561050b5781602001602082028036833780820191505090505b50905060028160008151811061051d57fe5b6020026020010190600981111561053057fe5b9081600981111561053d57fe5b8152505090565b50565b60007f0000000000000000000000000000000000000000000000000000000000000000905090565b60606000808373ffffffffffffffffffffffffffffffffffffffff1673ffffffffffffffffffffffffffffffffffffffff1681526020019081526020016000208054806020026020016040519081016040528092919081815260200182805480156105f957602002820191906000526020600020905b8154815260200190600101908083116105e5575b50505050509050919050565b60608083838101906106179190610f4e565b915091506060815183510167ffffffffffffffff8111801561063857600080fd5b506040519080825280602002602001820160405280156106675781602001602082028036833780820191505090505b5090506000815114156106af576040517f08c379a00000000000000000000000000000000000000000000000000000000081526004016106a69061144b565b60405180910390fd5b60008060008873ffffffffffffffffffffffffffffffffffffffff1673ffffffffffffffffffffffffffffffffffffffff168152602001908152602001600020805490501115610744576000808773ffffffffffffffffffffffffffffffffffffffff1673ffffffffffffffffffffffffffffffffffffffff16815260200190815260200160002060006107439190610aaf565b5b60005b83518110156108015783818151811061075c57fe5b602002602001015182828151811061077057fe5b6020026020010181815250506000808873ffffffffffffffffffffffffffffffffffffffff1673ffffffffffffffffffffffffffffffffffffffff1681526020019081526020016000208482815181106107c657fe5b602002602001015190806001815401808255809150506001900390600052602060002001600090919091909150558080600101915050610747565b506000825111156109605760008673ffffffffffffffffffffffffffffffffffffffff1663c98091876040518163ffffffff1660e01b815260040160206040518083038186803b15801561085457600080fd5b505afa158015610868573d6000803e3d6000fd5b505050506040513d601f19601f8201168201806040525081019061088c9190610dd6565b905060005b835181101561095d5760008186510190506108bf838684815181106108b257fe5b60200260200101516109dc565b8482815181106108cb57fe5b6020026020010181815250506000808a73ffffffffffffffffffffffffffffffffffffffff1673ffffffffffffffffffffffffffffffffffffffff16815260200190815260200160002084828151811061092157fe5b60200260200101519080600181540180825580915050600190039060005260206000200160009091909190915055508080600101915050610891565b50505b8573ffffffffffffffffffffffffffffffffffffffff167fd63f5b55f54cdda3234eab3aa26d85b99854a43efea66e0c459220fd7b3a332f826040516109a6919061139c565b60405180910390a2505050505050565b6000806000838060200190518101906109cf9190610dff565b9250925092509193909250565b60008060606109ea84610a8e565b915091506109f66103d6565b73ffffffffffffffffffffffffffffffffffffffff1663be68406e8684846040518463ffffffff1660e01b8152600401610a329392919061133c565b602060405180830381600087803b158015610a4c57600080fd5b505af1158015610a60573d6000803e3d6000fd5b505050506040513d601f19601f82011682018060405250810190610a849190611037565b9250505092915050565b6000606082806020019051810190610aa69190610fe3565b91509150915091565b5080546000825590600052602060002090810190610acd9190610ad0565b50565b5b80821115610ae9576000816000905550600101610ad1565b5090565b600081359050610afc81611714565b92915050565b600081519050610b1181611714565b92915050565b600081519050610b268161172b565b92915050565b600082601f830112610b3d57600080fd5b8151610b50610b4b82611498565b61146b565b91508181835260208401935060208101905083856020840282011115610b7557600080fd5b60005b83811015610ba55781610b8b8882610b02565b845260208401935060208301925050600181019050610b78565b5050505092915050565b600082601f830112610bc057600080fd5b8135610bd3610bce826114c0565b61146b565b9150818183526020840193506020810190508360005b83811015610c195781358601610bff8882610d05565b845260208401935060208301925050600181019050610be9565b5050505092915050565b600082601f830112610c3457600080fd5b8135610c47610c42826114e8565b61146b565b91508181835260208401935060208101905083856020840282011115610c6c57600080fd5b60005b83811015610c9c5781610c828882610d83565b845260208401935060208301925050600181019050610c6f565b5050505092915050565b600081519050610cb581611742565b92915050565b60008083601f840112610ccd57600080fd5b8235905067ffffffffffffffff811115610ce657600080fd5b602083019150836001820283011115610cfe57600080fd5b9250929050565b600082601f830112610d1657600080fd5b8135610d29610d2482611510565b61146b565b91508082526020830160208301858383011115610d4557600080fd5b610d508382846116a7565b50505092915050565b600081359050610d6881611759565b92915050565b600081519050610d7d81611769565b92915050565b600081359050610d9281611779565b92915050565b600081519050610da781611779565b92915050565b600060208284031215610dbf57600080fd5b6000610dcd84828501610aed565b91505092915050565b600060208284031215610de857600080fd5b6000610df684828501610b02565b91505092915050565b600080600060608486031215610e1457600080fd5b6000610e2286828701610b17565b9350506020610e3386828701610b17565b9250506040610e4486828701610d98565b9150509250925092565b60008060408385031215610e6157600080fd5b6000610e6f85828601610aed565b9250506020610e8085828601610aed565b9150509250929050565b600080600060408486031215610e9f57600080fd5b6000610ead86828701610aed565b935050602084013567ffffffffffffffff811115610eca57600080fd5b610ed686828701610cbb565b92509250509250925092565b60008060008060608587031215610ef857600080fd5b6000610f0687828801610aed565b9450506020610f1787828801610d59565b935050604085013567ffffffffffffffff811115610f3457600080fd5b610f4087828801610cbb565b925092505092959194509250565b60008060408385031215610f6157600080fd5b600083013567ffffffffffffffff811115610f7b57600080fd5b610f8785828601610c23565b925050602083013567ffffffffffffffff811115610fa457600080fd5b610fb085828601610baf565b9150509250929050565b600060208284031215610fcc57600080fd5b6000610fda84828501610ca6565b91505092915050565b60008060408385031215610ff657600080fd5b600061100485828601610d6e565b925050602083015167ffffffffffffffff81111561102157600080fd5b61102d85828601610b2c565b9150509250929050565b60006020828403121561104957600080fd5b600061105784828501610d98565b91505092915050565b600061106c83836110a8565b60208301905092915050565b600061108483836111ef565b60208301905092915050565b600061109c8383611312565b60208301905092915050565b6110b181611603565b82525050565b6110c081611603565b82525050565b60006110d18261156c565b6110db81856115bf565b93506110e68361153c565b8060005b838110156111175781516110fe8882611060565b975061110983611598565b9250506001810190506110ea565b5085935050505092915050565b600061112f82611577565b61113981856115e1565b93506111448361154c565b8060005b8381101561117557815161115c8882611078565b9750611167836115a5565b925050600181019050611148565b5085935050505092915050565b600061118d82611582565b61119781856115d0565b93506111a28361155c565b8060005b838110156111d35781516111ba8882611090565b97506111c5836115b2565b9250506001810190506111a6565b5085935050505092915050565b6111e981611627565b82525050565b6111f881611683565b82525050565b61120781611695565b82525050565b60006112188261158d565b61122281856115f2565b93506112328185602086016116b6565b61123b816116e9565b840191505092915050565b60006112536029836115f2565b91507f4f6e6c792074686520506f6c6963794d616e616765722063616e206d616b652060008301527f746869732063616c6c00000000000000000000000000000000000000000000006020830152604082019050919050565b60006112b96028836115f2565b91507f5f5f7570646174654c69737473466f7246756e643a204e6f206c69737473207360008301527f70656369666965640000000000000000000000000000000000000000000000006020830152604082019050919050565b61131b81611679565b82525050565b600060208201905061133660008301846110b7565b92915050565b600060608201905061135160008301866110b7565b61135e60208301856111fe565b818103604083015261137081846110c6565b9050949350505050565b600060208201905081810360008301526113948184611124565b905092915050565b600060208201905081810360008301526113b68184611182565b905092915050565b600060408201905081810360008301526113d88185611182565b90506113e760208301846110b7565b9392505050565b600060208201905061140360008301846111e0565b92915050565b60006020820190508181036000830152611423818461120d565b905092915050565b6000602082019050818103600083015261144481611246565b9050919050565b60006020820190508181036000830152611464816112ac565b9050919050565b6000604051905081810181811067ffffffffffffffff8211171561148e57600080fd5b8060405250919050565b600067ffffffffffffffff8211156114af57600080fd5b602082029050602081019050919050565b600067ffffffffffffffff8211156114d757600080fd5b602082029050602081019050919050565b600067ffffffffffffffff8211156114ff57600080fd5b602082029050602081019050919050565b600067ffffffffffffffff82111561152757600080fd5b601f19601f8301169050602081019050919050565b6000819050602082019050919050565b6000819050602082019050919050565b6000819050602082019050919050565b600081519050919050565b600081519050919050565b600081519050919050565b600081519050919050565b6000602082019050919050565b6000602082019050919050565b6000602082019050919050565b600082825260208201905092915050565b600082825260208201905092915050565b600082825260208201905092915050565b600082825260208201905092915050565b600061160e82611659565b9050919050565b600061162082611659565b9050919050565b60008115159050919050565b6000819050611641826116fa565b919050565b600081905061165482611707565b919050565b600073ffffffffffffffffffffffffffffffffffffffff82169050919050565b6000819050919050565b600061168e82611633565b9050919050565b60006116a082611646565b9050919050565b82818337600083830152505050565b60005b838110156116d45780820151818401526020810190506116b9565b838111156116e3576000848401525b50505050565b6000601f19601f8301169050919050565b600a811061170457fe5b50565b6004811061171157fe5b50565b61171d81611603565b811461172857600080fd5b50565b61173481611615565b811461173f57600080fd5b50565b61174b81611627565b811461175657600080fd5b50565b600a811061176657600080fd5b50565b6004811061177657600080fd5b50565b61178281611679565b811461178d57600080fd5b5056fe414c4c4f5745445f5348415245535f5452414e534645525f524543495049454e5453a164736f6c634300060c000a","linkReferences":{}},"methodIdentifiers":{"activateForFund(address)":"ceb9a0ad","addFundSettings(address,bytes)":"0f5f6b4f","canDisable()":"1ef92578","getAddressListRegistry()":"74708934","getListIdsForFund(address)":"dffd7c6f","getPolicyManager()":"d44ad6cb","identifier()":"7998a1c4","implementedHooks()":"cbf54bb2","passesRule(address,address)":"b67cb40c","updateFundSettings(address,bytes)":"0d4d7510","validateRule(address,uint8,bytes)":"579be718"},"id":262}