{"abi":[{"type":"constructor","inputs":[{"name":"_integrationManager","type":"address","internalType":"address"},{"name":"_compoundPriceFeed","type":"address","internalType":"address"},{"name":"_wethToken","type":"address","internalType":"address"}],"stateMutability":"nonpayable"},{"type":"receive","stateMutability":"payable"},{"type":"function","name":"claimRewards","inputs":[{"name":"_vaultProxy","type":"address","internalType":"address"},{"name":"_actionData","type":"bytes","internalType":"bytes"},{"name":"","type":"bytes","internalType":"bytes"}],"outputs":[],"stateMutability":"nonpayable"},{"type":"function","name":"getCompoundPriceFeed","inputs":[],"outputs":[{"name":"compoundPriceFeed_","type":"address","internalType":"address"}],"stateMutability":"view"},{"type":"function","name":"getCompoundWethToken","inputs":[],"outputs":[{"name":"compoundWethToken_","type":"address","internalType":"address"}],"stateMutability":"view"},{"type":"function","name":"getIntegrationManager","inputs":[],"outputs":[{"name":"integrationManager_","type":"address","internalType":"address"}],"stateMutability":"view"},{"type":"function","name":"lend","inputs":[{"name":"_vaultProxy","type":"address","internalType":"address"},{"name":"","type":"bytes","internalType":"bytes"},{"name":"_assetData","type":"bytes","internalType":"bytes"}],"outputs":[],"stateMutability":"nonpayable"},{"type":"function","name":"parseAssetsForAction","inputs":[{"name":"","type":"address","internalType":"address"},{"name":"_selector","type":"bytes4","internalType":"bytes4"},{"name":"_actionData","type":"bytes","internalType":"bytes"}],"outputs":[{"name":"spendAssetsHandleType_","type":"uint8","internalType":"enum IIntegrationManager.SpendAssetsHandleType"},{"name":"spendAssets_","type":"address[]","internalType":"address[]"},{"name":"spendAssetAmounts_","type":"uint256[]","internalType":"uint256[]"},{"name":"incomingAssets_","type":"address[]","internalType":"address[]"},{"name":"minIncomingAssetAmounts_","type":"uint256[]","internalType":"uint256[]"}],"stateMutability":"view"},{"type":"function","name":"redeem","inputs":[{"name":"_vaultProxy","type":"address","internalType":"address"},{"name":"","type":"bytes","internalType":"bytes"},{"name":"_assetData","type":"bytes","internalType":"bytes"}],"outputs":[],"stateMutability":"nonpayable"}],"bytecode":{"object":"0x60e060405234801561001057600080fd5b50604051611c50380380611c508339818101604052606081101561003357600080fd5b50805160208201516040909201516001600160601b0319606092831b811660805290821b811660a05291901b1660c05260805160601c60a05160601c60c05160601c611b8b6100c560003980610696528061113352806113765250806106ba5280610c135280610c4d5280611027528061105c52508061054852806106e7528061084b5280610a325250611b8b6000f3fe6080604052600436106100745760003560e01c8063b9dfbacc1161004e578063b9dfbacc146101a3578063c29fa9dd1461027e578063c54efee514610359578063e7c45690146105285761007b565b8063099f75151461008057806332bf82271461015d57806371dce8501461018e5761007b565b3661007b57005b600080fd5b34801561008c57600080fd5b5061015b600480360360608110156100a357600080fd5b6001600160a01b038235169190810190604081016020820135600160201b8111156100cd57600080fd5b8201836020820111156100df57600080fd5b803590602001918460018302840111600160201b8311171561010057600080fd5b919390929091602081019035600160201b81111561011d57600080fd5b82018360208201111561012f57600080fd5b803590602001918460018302840111600160201b8311171561015057600080fd5b50909250905061053d565b005b34801561016957600080fd5b50610172610694565b604080516001600160a01b039092168252519081900360200190f35b34801561019a57600080fd5b506101726106b8565b3480156101af57600080fd5b5061015b600480360360608110156101c657600080fd5b6001600160a01b038235169190810190604081016020820135600160201b8111156101f057600080fd5b82018360208201111561020257600080fd5b803590602001918460018302840111600160201b8311171561022357600080fd5b919390929091602081019035600160201b81111561024057600080fd5b82018360208201111561025257600080fd5b803590602001918460018302840111600160201b8311171561027357600080fd5b5090925090506106dc565b34801561028a57600080fd5b5061015b600480360360608110156102a157600080fd5b6001600160a01b038235169190810190604081016020820135600160201b8111156102cb57600080fd5b8201836020820111156102dd57600080fd5b803590602001918460018302840111600160201b831117156102fe57600080fd5b919390929091602081019035600160201b81111561031b57600080fd5b82018360208201111561032d57600080fd5b803590602001918460018302840111600160201b8311171561034e57600080fd5b509092509050610840565b34801561036557600080fd5b506103f36004803603606081101561037c57600080fd5b6001600160a01b03823516916001600160e01b031960208201351691810190606081016040820135600160201b8111156103b557600080fd5b8201836020820111156103c757600080fd5b803590602001918460018302840111600160201b831117156103e857600080fd5b509092509050610970565b6040518086600281111561040357fe5b815260200180602001806020018060200180602001858103855289818151815260200191508051906020019060200280838360005b83811015610450578181015183820152602001610438565b50505050905001858103845288818151815260200191508051906020019060200280838360005b8381101561048f578181015183820152602001610477565b50505050905001858103835287818151815260200191508051906020019060200280838360005b838110156104ce5781810151838201526020016104b6565b50505050905001858103825286818151815260200191508051906020019060200280838360005b8381101561050d5781810151838201526020016104f5565b50505050905001995050505050505050505060405180910390f35b34801561053457600080fd5b50610172610a30565b336001600160a01b037f000000000000000000000000000000000000000000000000000000000000000016146105a45760405162461bcd60e51b8152600401808060200182810382526032815260200180611a746032913960400191505060405180910390fd5b8482828080601f01602080910402602001604051908101604052809392919081815260200183838082843760009201919091525050604080516020601f880181900481028201810190925286815260609350839250829161062091908990899081908401838280828437600092019190915250610a5492505050565b92509250925061066d8360008151811061063657fe5b60200260200101518360008151811061064b57fe5b60200260200101518360008151811061066057fe5b6020026020010151610c11565b505050606061067b82610a54565b925050506106898382610da5565b505050505050505050565b7f000000000000000000000000000000000000000000000000000000000000000090565b7f000000000000000000000000000000000000000000000000000000000000000090565b336001600160a01b037f000000000000000000000000000000000000000000000000000000000000000016146107435760405162461bcd60e51b8152600401808060200182810382526032815260200180611a746032913960400191505060405180910390fd5b6060600061078686868080601f016020809104026020016040519081016040528093929190818152602001838380828437600092019190915250610f0092505050565b91509150806001600160a01b0316631c3db2e088846040518363ffffffff1660e01b815260040180836001600160a01b0316815260200180602001828103825283818151815260200191508051906020019060200280838360005b838110156107f95781810151838201526020016107e1565b505050509050019350505050600060405180830381600087803b15801561081f57600080fd5b505af1158015610833573d6000803e3d6000fd5b5050505050505050505050565b336001600160a01b037f000000000000000000000000000000000000000000000000000000000000000016146108a75760405162461bcd60e51b8152600401808060200182810382526032815260200180611a746032913960400191505060405180910390fd5b8482828080601f01602080910402602001604051908101604052809392919081815260200183838082843760009201919091525050604080516020601f880181900481028201810190925286815260609350839250829161092391908990899081908401838280828437600092019190915250610a5492505050565b92509250925061066d8360008151811061093957fe5b60200260200101518360008151811061094e57fe5b60200260200101518360008151811061096357fe5b6020026020010151610fb3565b600060608080806001600160e01b0319881663099f751560e01b14156109a95761099a87876110dd565b94509450945094509450610a25565b6001600160e01b0319881663c29fa9dd60e01b14156109cc5761099a8787611320565b6001600160e01b03198816632e77eeb360e21b14156109ee5760009450610a25565b60405162461bcd60e51b8152600401808060200182810382526027815260200180611b586027913960400191505060405180910390fd5b945094509450945094565b7f000000000000000000000000000000000000000000000000000000000000000090565b6060806060838060200190516060811015610a6e57600080fd5b8101908080516040519392919084600160201b821115610a8d57600080fd5b908301906020820185811115610aa257600080fd5b82518660208202830111600160201b82111715610abe57600080fd5b82525081516020918201928201910280838360005b83811015610aeb578181015183820152602001610ad3565b5050505090500160405260200180516040519392919084600160201b821115610b1357600080fd5b908301906020820185811115610b2857600080fd5b82518660208202830111600160201b82111715610b4457600080fd5b82525081516020918201928201910280838360005b83811015610b71578181015183820152602001610b59565b5050505090500160405260200180516040519392919084600160201b821115610b9957600080fd5b908301906020820185811115610bae57600080fd5b82518660208202830111600160201b82111715610bca57600080fd5b82525081516020918201928201910280838360005b83811015610bf7578181015183820152602001610bdf565b505050509050016040525050509250925092509193909250565b7f00000000000000000000000000000000000000000000000000000000000000006001600160a01b0316836001600160a01b03161415610d22577f00000000000000000000000000000000000000000000000000000000000000006001600160a01b0316632e1a7d4d836040518263ffffffff1660e01b815260040180828152602001915050600060405180830381600087803b158015610cb157600080fd5b505af1158015610cc5573d6000803e3d6000fd5b50505050806001600160a01b0316631249c58b836040518263ffffffff1660e01b81526004016000604051808303818588803b158015610d0457600080fd5b505af1158015610d18573d6000803e3d6000fd5b5050505050610da0565b610d2d838284611501565b806001600160a01b031663a0712d68836040518263ffffffff1660e01b815260040180828152602001915050602060405180830381600087803b158015610d7357600080fd5b505af1158015610d87573d6000803e3d6000fd5b505050506040513d6020811015610d9d57600080fd5b50505b505050565b6060815167ffffffffffffffff81118015610dbf57600080fd5b50604051908082528060200260200182016040528015610de9578160200160208202803683370190505b50905060005b8251811015610ef9576000838281518110610e0657fe5b60200260200101519050806001600160a01b03166370a08231306040518263ffffffff1660e01b815260040180826001600160a01b0316815260200191505060206040518083038186803b158015610e5d57600080fd5b505afa158015610e71573d6000803e3d6000fd5b505050506040513d6020811015610e8757600080fd5b50518351849084908110610e9757fe5b6020026020010181815250506000838381518110610eb157fe5b60200260200101511115610ef057610ef085848481518110610ecf57fe5b6020026020010151836001600160a01b03166115bf9092919063ffffffff16565b50600101610def565b5092915050565b60606000828060200190516040811015610f1957600080fd5b8101908080516040519392919084600160201b821115610f3857600080fd5b908301906020820185811115610f4d57600080fd5b82518660208202830111600160201b82111715610f6957600080fd5b82525081516020918201928201910280838360005b83811015610f96578181015183820152602001610f7e565b505050509190910160405250602001519294509192505050915091565b826001600160a01b031663db006a75836040518263ffffffff1660e01b815260040180828152602001915050602060405180830381600087803b158015610ff957600080fd5b505af115801561100d573d6000803e3d6000fd5b505050506040513d602081101561102357600080fd5b50507f00000000000000000000000000000000000000000000000000000000000000006001600160a01b039081169082161415610da0577f00000000000000000000000000000000000000000000000000000000000000006001600160a01b031663d0e30db0306001600160a01b0316316040518263ffffffff1660e01b81526004016000604051808303818588803b1580156110bf57600080fd5b505af11580156110d3573d6000803e3d6000fd5b5050505050505050565b600060608060608060008060006111298a8a8080601f0160208091040260200160405190810160405280939291908181526020018383808284376000920191909152506115d292505050565b92509250925060007f00000000000000000000000000000000000000000000000000000000000000006001600160a01b0316634cae3ad7856040518263ffffffff1660e01b815260040180826001600160a01b0316815260200191505060206040518083038186803b15801561119e57600080fd5b505afa1580156111b2573d6000803e3d6000fd5b505050506040513d60208110156111c857600080fd5b505190506001600160a01b0381166112115760405162461bcd60e51b8152600401808060200182810382526028815260200180611ad06028913960400191505060405180910390fd5b6040805160018082528183019092529060208083019080368337019050509750808860008151811061123f57fe5b6001600160a01b0392909216602092830291909101820152604080516001808252818301909252918281019080368337019050509650828760008151811061128357fe5b60209081029190910101526040805160018082528183019092529081602001602082028036833701905050955083866000815181106112be57fe5b6001600160a01b0392909216602092830291909101820152604080516001808252818301909252918281019080368337019050509450818560008151811061130257fe5b60200260200101818152505060029850505050509295509295909350565b6000606080606080600080600061136c8a8a8080601f0160208091040260200160405190810160405280939291908181526020018383808284376000920191909152506115d292505050565b92509250925060007f00000000000000000000000000000000000000000000000000000000000000006001600160a01b0316634cae3ad7856040518263ffffffff1660e01b815260040180826001600160a01b0316815260200191505060206040518083038186803b1580156113e157600080fd5b505afa1580156113f5573d6000803e3d6000fd5b505050506040513d602081101561140b57600080fd5b505190506001600160a01b0381166114545760405162461bcd60e51b815260040180806020018281038252602a815260200180611aa6602a913960400191505060405180910390fd5b6040805160018082528183019092529060208083019080368337019050509750838860008151811061148257fe5b6001600160a01b039290921660209283029190910182015260408051600180825281830190925291828101908036833701905050965082876000815181106114c657fe5b60209081029190910101526040805160018082528183019092529081602001602082028036833701905050955080866000815181106112be57fe5b60408051636eb1769f60e11b81523060048201526001600160a01b038481166024830152915160009286169163dd62ed3e916044808301926020929190829003018186803b15801561155257600080fd5b505afa158015611566573d6000803e3d6000fd5b505050506040513d602081101561157c57600080fd5b50519050818110156115b95780156115a3576115a36001600160a01b038516846000611606565b6115b96001600160a01b03851684600019611606565b50505050565b610da06115cb84611619565b838361161c565b60008060008380602001905160608110156115ec57600080fd5b508051602082015160409092015190969195509350915050565b610da061161284611619565b838361166e565b90565b604080516001600160a01b038416602482015260448082018490528251808303909101815260649091019091526020810180516001600160e01b031663a9059cbb60e01b179052610da090849061177d565b8015806116f4575060408051636eb1769f60e11b81523060048201526001600160a01b03848116602483015291519185169163dd62ed3e91604480820192602092909190829003018186803b1580156116c657600080fd5b505afa1580156116da573d6000803e3d6000fd5b505050506040513d60208110156116f057600080fd5b5051155b61172f5760405162461bcd60e51b8152600401808060200182810382526036815260200180611b226036913960400191505060405180910390fd5b604080516001600160a01b038416602482015260448082018490528251808303909101815260649091019091526020810180516001600160e01b031663095ea7b360e01b179052610da09084905b60606117d2826040518060400160405280602081526020017f5361666545524332303a206c6f772d6c6576656c2063616c6c206661696c6564815250856001600160a01b031661182e9092919063ffffffff16565b805190915015610da0578080602001905160208110156117f157600080fd5b5051610da05760405162461bcd60e51b815260040180806020018281038252602a815260200180611af8602a913960400191505060405180910390fd5b606061183d8484600085611847565b90505b9392505050565b6060824710156118885760405162461bcd60e51b8152600401808060200182810382526026815260200180611a4e6026913960400191505060405180910390fd5b611891856119a3565b6118e2576040805162461bcd60e51b815260206004820152601d60248201527f416464726573733a2063616c6c20746f206e6f6e2d636f6e7472616374000000604482015290519081900360640190fd5b60006060866001600160a01b031685876040518082805190602001908083835b602083106119215780518252601f199092019160209182019101611902565b6001836020036101000a03801982511681845116808217855250505050505090500191505060006040518083038185875af1925050503d8060008114611983576040519150601f19603f3d011682016040523d82523d6000602084013e611988565b606091505b50915091506119988282866119a9565b979650505050505050565b3b151590565b606083156119b8575081611840565b8251156119c85782518084602001fd5b8160405162461bcd60e51b81526004018080602001828103825283818151815260200191508051906020019080838360005b83811015611a125781810151838201526020016119fa565b50505050905090810190601f168015611a3f5780820380516001836020036101000a031916815260200191505b509250505060405180910390fdfe416464726573733a20696e73756666696369656e742062616c616e636520666f722063616c6c4f6e6c792074686520496e746567726174696f6e4d616e616765722063616e2063616c6c20746869732066756e6374696f6e5f5f7061727365417373657473466f7252656465656d3a20556e737570706f727465642063546f6b656e5f5f7061727365417373657473466f724c656e643a20556e737570706f727465642063546f6b656e5361666545524332303a204552433230206f7065726174696f6e20646964206e6f7420737563636565645361666545524332303a20617070726f76652066726f6d206e6f6e2d7a65726f20746f206e6f6e2d7a65726f20616c6c6f77616e63657061727365417373657473466f72416374696f6e3a205f73656c6563746f7220696e76616c6964a164736f6c634300060c000a","linkReferences":{}},"methodIdentifiers":{"claimRewards(address,bytes,bytes)":"b9dfbacc","getCompoundPriceFeed()":"32bf8227","getCompoundWethToken()":"71dce850","getIntegrationManager()":"e7c45690","lend(address,bytes,bytes)":"099f7515","parseAssetsForAction(address,bytes4,bytes)":"c54efee5","redeem(address,bytes,bytes)":"c29fa9dd"},"id":174}