{"abi":[{"type":"constructor","inputs":[{"name":"_integrationManager","type":"address","internalType":"address"},{"name":"_oneInchV5Exchange","type":"address","internalType":"address"}],"stateMutability":"nonpayable"},{"type":"function","name":"ONE_INCH_V5_AGGREGATION_ROUTER_CONTRACT","inputs":[],"outputs":[{"name":"","type":"address","internalType":"contract IOneInchV5AggregationRouter"}],"stateMutability":"view"},{"type":"function","name":"getIntegrationManager","inputs":[],"outputs":[{"name":"integrationManager_","type":"address","internalType":"address"}],"stateMutability":"view"},{"type":"function","name":"parseAssetsForAction","inputs":[{"name":"_vaultProxy","type":"address","internalType":"address"},{"name":"_selector","type":"bytes4","internalType":"bytes4"},{"name":"_actionData","type":"bytes","internalType":"bytes"}],"outputs":[{"name":"spendAssetsHandleType_","type":"uint8","internalType":"enum IIntegrationManager.SpendAssetsHandleType"},{"name":"spendAssets_","type":"address[]","internalType":"address[]"},{"name":"spendAssetAmounts_","type":"uint256[]","internalType":"uint256[]"},{"name":"incomingAssets_","type":"address[]","internalType":"address[]"},{"name":"minIncomingAssetAmounts_","type":"uint256[]","internalType":"uint256[]"}],"stateMutability":"view"},{"type":"function","name":"takeMultipleOrders","inputs":[{"name":"_vaultProxy","type":"address","internalType":"address"},{"name":"_actionData","type":"bytes","internalType":"bytes"},{"name":"_assetData","type":"bytes","internalType":"bytes"}],"outputs":[],"stateMutability":"nonpayable"},{"type":"function","name":"takeOrder","inputs":[{"name":"_vaultProxy","type":"address","internalType":"address"},{"name":"_actionData","type":"bytes","internalType":"bytes"},{"name":"_assetData","type":"bytes","internalType":"bytes"}],"outputs":[],"stateMutability":"nonpayable"},{"type":"function","name":"takeOrderAndValidateIncoming","inputs":[{"name":"_vaultProxy","type":"address","internalType":"address"},{"name":"_orderData","type":"bytes","internalType":"bytes"}],"outputs":[],"stateMutability":"nonpayable"},{"type":"event","name":"MultipleOrdersItemFailed","inputs":[{"name":"index","type":"uint256","indexed":false,"internalType":"uint256"},{"name":"reason","type":"bytes","indexed":false,"internalType":"bytes"}],"anonymous":false}],"bytecode":{"object":"0x60c06040523480156200001157600080fd5b506040516200218438038062002184833981016040819052620000349162000066565b6001600160601b0319606092831b8116608052911b1660a052620000d1565b80516200006081620000b7565b92915050565b600080604083850312156200007a57600080fd5b600062000088858562000053565b92505060206200009b8582860162000053565b9150509250929050565b60006001600160a01b03821662000060565b620000c281620000a5565b8114620000ce57600080fd5b50565b60805160601c60a05160601c61207f620001056000398061035d5280610d285280610d6852508061075a525061207f6000f3fe608060405234801561001057600080fd5b50600436106100625760003560e01c806303e38a2b146100675780630e7f692d1461007c5780632d979b8c1461008f57806381e0cc65146100a2578063c54efee5146100c0578063e7c45690146100e4575b600080fd5b61007a610075366004611756565b6100f9565b005b61007a61008a366004611756565b610192565b61007a61009d366004611701565b610316565b6100aa61035b565b6040516100b79190611e22565b60405180910390f35b6100d36100ce36600461169a565b61037f565b6040516100b7959493929190611e30565b6100ec610758565b6040516100b79190611d72565b8482828080601f01602080910402602001604051908101604052809392919081815260200183838082843760009201919091525050604080516020601f8a0181900481028201810190925288815261016e93509150889088908190840183828082843760009201919091525061077c92505050565b6060610179826107a8565b5050905061018783826107ce565b505050505050505050565b8482828080601f01602080910402602001604051908101604052809392919081815260200183838082843760009201829052506060935091506101d79050888861092a565b9150915080156102d65760005b82518110156102d057306001600160a01b0316632d979b8c8b85848151811061020957fe5b60200260200101516040518363ffffffff1660e01b815260040161022e929190611d9b565b600060405180830381600087803b15801561024857600080fd5b505af1925050508015610259575060015b6102c8573d808015610287576040519150601f19603f3d011682016040523d82523d6000602084013e61028c565b606091505b507f3a14c92f155e1c07fef79933a3b56bd101ab83092702170ae1a4c53712c5099b82826040516102be929190611f1d565b60405180910390a1505b6001016101e4565b50610309565b60005b8251811015610307576102ff8a8483815181106102f257fe5b6020026020010151610946565b6001016102d9565b505b50506060610179826107a8565b6103568383838080601f01602080910402602001604051908101604052809392919081815260200183838082843760009201919091525061094692505050565b505050565b7f000000000000000000000000000000000000000000000000000000000000000081565b600060608080806001600160e01b031988166303e38a2b60e01b141561054e5760408051600180825281830190925290602080830190803683375050604080516001808252818301909252929650905060208083019080368337505060408051600180825281830190925292955090506020808301908036833750506040805160018082528183019092529294509050602080830190803683370190505090506104276112e9565b61046688888080601f016020809104026020016040519081016040528093929190818152602001838380828437600092019190915250610a9592505050565b5091505080606001516001600160a01b03168a6001600160a01b0316146104a85760405162461bcd60e51b815260040161049f90611ecd565b60405180910390fd5b8060000151856000815181106104ba57fe5b60200260200101906001600160a01b031690816001600160a01b0316815250508060800151846000815181106104ec57fe5b60200260200101818152505080602001518360008151811061050a57fe5b60200260200101906001600160a01b031690816001600160a01b0316815250508060a001518260008151811061053c57fe5b60200260200101818152505050610749565b6001600160e01b03198816630e7f692d60e01b1415610731576060610573888861092a565b50905080516001600160401b038111801561058d57600080fd5b506040519080825280602002602001820160405280156105b7578160200160208202803683370190505b50945080516001600160401b03811180156105d157600080fd5b506040519080825280602002602001820160405280156105fb578160200160208202803683370190505b50935060005b81518110156106d7576106126112e9565b61062e83838151811061062157fe5b6020026020010151610a95565b5091505080606001516001600160a01b03168c6001600160a01b0316146106675760405162461bcd60e51b815260040161049f90611ecd565b806000015187838151811061067857fe5b60200260200101906001600160a01b031690816001600160a01b03168152505080608001518683815181106106a957fe5b6020026020010181815250506106cc816020015186610ab590919063ffffffff16565b945050600101610601565b506106e28585610ade565b845191965094506001600160401b03811180156106fe57600080fd5b50604051908082528060200260200182016040528015610728578160200160208202803683370190505b50915050610749565b60405162461bcd60e51b815260040161049f90611f0d565b60029450945094509450945094565b7f000000000000000000000000000000000000000000000000000000000000000090565b60006107866112e9565b606061079184610a95565b9250925092506107a2838383610d1e565b50505050565b6060806060838060200190518101906107c191906117db565b9250925092509193909250565b606081516001600160401b03811180156107e757600080fd5b50604051908082528060200260200182016040528015610811578160200160208202803683370190505b50905060005b825181101561092257600083828151811061082e57fe5b60200260200101519050806001600160a01b03166370a08231306040518263ffffffff1660e01b81526004016108649190611d72565b60206040518083038186803b15801561087c57600080fd5b505afa158015610890573d6000803e3d6000fd5b505050506040513d601f19601f820116820180604052508101906108b491906118d0565b8383815181106108c057fe5b60200260200101818152505060008383815181106108da57fe5b6020026020010151111561091957610919858484815181106108f857fe5b6020026020010151836001600160a01b0316610df99092919063ffffffff16565b50600101610817565b505b92915050565b6060600061093a83850185611862565b915091505b9250929050565b61094e6112e9565b61095782610a95565b50915050600081602001516001600160a01b03166370a08231856040518263ffffffff1660e01b815260040161098d9190611d72565b60206040518083038186803b1580156109a557600080fd5b505afa1580156109b9573d6000803e3d6000fd5b505050506040513d601f19601f820116820180604052508101906109dd91906118d0565b90506109e88361077c565b8160a00151610a778284602001516001600160a01b03166370a08231886040518263ffffffff1660e01b8152600401610a219190611d72565b60206040518083038186803b158015610a3957600080fd5b505afa158015610a4d573d6000803e3d6000fd5b505050506040513d601f19601f82011682018060405250810190610a7191906118d0565b90610e0c565b10156107a25760405162461bcd60e51b815260040161049f90611e9d565b6000610a9f6112e9565b6060838060200190518101906107c19190611634565b6060610ac18383610e34565b15610acd575081610924565b610ad78383610e8a565b9392505050565b606080835160001415610af05761093f565b6001805b8551811015610b70576000805b82811015610b5a57878181518110610b1557fe5b60200260200101516001600160a01b0316888481518110610b3257fe5b60200260200101516001600160a01b03161415610b525760019150610b5a565b600101610b01565b5080610b67576001909201915b50600101610af4565b50806001600160401b0381118015610b8757600080fd5b50604051908082528060200260200182016040528015610bb1578160200160208202803683370190505b509250806001600160401b0381118015610bca57600080fd5b50604051908082528060200260200182016040528015610bf4578160200160208202803683370190505b5091506000805b8651811015610d14576000805b83811015610c9357868181518110610c1c57fe5b60200260200101516001600160a01b0316898481518110610c3957fe5b60200260200101516001600160a01b03161415610c8b5760019150878381518110610c6057fe5b6020026020010151868281518110610c7457fe5b602002602001018181510191508181525050610c93565b600101610c08565b5080610d0b57878281518110610ca557fe5b6020026020010151868481518110610cb957fe5b60200260200101906001600160a01b031690816001600160a01b031681525050868281518110610ce557fe5b6020026020010151858481518110610cf957fe5b60209081029190910101526001909201915b50600101610bfb565b5050509250929050565b610d5182600001517f00000000000000000000000000000000000000000000000000000000000000008460800151610f54565b6040516312aa3caf60e01b81526001600160a01b037f000000000000000000000000000000000000000000000000000000000000000016906312aa3caf90610da190869086908690600401611dbb565b6040805180830381600087803b158015610dba57600080fd5b505af1158015610dce573d6000803e3d6000fd5b505050506040513d601f19601f82011682018060405250810190610df291906118ee565b5050505050565b610356610e0584611010565b8383611017565b600082821115610e2e5760405162461bcd60e51b815260040161049f90611ead565b50900390565b6000805b8351811015610e8057838181518110610e4d57fe5b60200260200101516001600160a01b0316836001600160a01b03161415610e78576001915050610924565b600101610e38565b5060009392505050565b606082516001016001600160401b0381118015610ea657600080fd5b50604051908082528060200260200182016040528015610ed0578160200160208202803683370190505b50905060005b8351811015610f1f57838181518110610eeb57fe5b6020026020010151828281518110610eff57fe5b6001600160a01b0390921660209283029190910190910152600101610ed6565b508181845181518110610f2e57fe5b60200260200101906001600160a01b031690816001600160a01b03168152505092915050565b604051636eb1769f60e11b81526000906001600160a01b0385169063dd62ed3e90610f859030908790600401611d80565b60206040518083038186803b158015610f9d57600080fd5b505afa158015610fb1573d6000803e3d6000fd5b505050506040513d601f19601f82011682018060405250810190610fd591906118d0565b9050818110156107a2578015610ffa57610ffa6001600160a01b03851684600061106d565b6107a26001600160a01b0385168460001961106d565b805b919050565b6103568363a9059cbb60e01b8484604051602401611036929190611e07565b60408051601f198184030181529190526020810180516001600160e01b03166001600160e01b031990931692909217909152611080565b61035661107984611010565b838361110f565b60606110d5826040518060400160405280602081526020017f5361666545524332303a206c6f772d6c6576656c2063616c6c206661696c6564815250856001600160a01b03166111d29092919063ffffffff16565b80519091501561035657808060200190518101906110f391906118b2565b6103565760405162461bcd60e51b815260040161049f90611eed565b8015806111975750604051636eb1769f60e11b81526001600160a01b0384169063dd62ed3e906111459030908690600401611d80565b60206040518083038186803b15801561115d57600080fd5b505afa158015611171573d6000803e3d6000fd5b505050506040513d601f19601f8201168201806040525081019061119591906118d0565b155b6111b35760405162461bcd60e51b815260040161049f90611efd565b6103568363095ea7b360e01b8484604051602401611036929190611e07565b60606111e184846000856111e9565b949350505050565b60608247101561120b5760405162461bcd60e51b815260040161049f90611ebd565b611214856112aa565b6112305760405162461bcd60e51b815260040161049f90611edd565b60006060866001600160a01b0316858760405161124d9190611d66565b60006040518083038185875af1925050503d806000811461128a576040519150601f19603f3d011682016040523d82523d6000602084013e61128f565b606091505b509150915061129f8282866112b0565b979650505050505050565b3b151590565b606083156112bf575081610ad7565b8251156112cf5782518084602001fd5b8160405162461bcd60e51b815260040161049f9190611e8c565b6040805160e081018252600080825260208201819052918101829052606081018290526080810182905260a0810182905260c081019190915290565b803561092481612043565b805161092481612043565b600082601f83011261134c57600080fd5b815161135f61135a82611f51565b611f2b565b9150818183526020840193506020810190508385602084028201111561138457600080fd5b60005b838110156113b0578161139a8882611330565b8452506020928301929190910190600101611387565b5050505092915050565b600082601f8301126113cb57600080fd5b81356113d961135a82611f51565b81815260209384019390925082018360005b838110156113b0578135860161140188826114e9565b84525060209283019291909101906001016113eb565b600082601f83011261142857600080fd5b815161143661135a82611f51565b9150818183526020840193506020810190508385602084028201111561145b57600080fd5b60005b838110156113b057816114718882611629565b845250602092830192919091019060010161145e565b803561092481612057565b805161092481612057565b803561092481612060565b60008083601f8401126114ba57600080fd5b5081356001600160401b038111156114d157600080fd5b60208301915083600182028301111561093f57600080fd5b600082601f8301126114fa57600080fd5b813561150861135a82611f71565b9150808252602083016020830185838301111561152457600080fd5b61152f838284611ff4565b50505092915050565b600082601f83011261154957600080fd5b815161155761135a82611f71565b9150808252602083016020830185838301111561157357600080fd5b61152f838284612000565b600060e0828403121561159057600080fd5b61159a60e0611f2b565b905060006115a88484611330565b82525060206115b984848301611330565b60208301525060406115cd84828501611330565b60408301525060606115e184828501611330565b60608301525060806115f584828501611629565b60808301525060a061160984828501611629565b60a08301525060c061161d84828501611629565b60c08301525092915050565b805161092481612069565b6000806000610120848603121561164a57600080fd5b60006116568686611330565b93505060206116678682870161157e565b9250506101008401516001600160401b0381111561168457600080fd5b61169086828701611538565b9150509250925092565b600080600080606085870312156116b057600080fd5b60006116bc8787611325565b94505060206116cd8782880161149d565b93505060408501356001600160401b038111156116e957600080fd5b6116f5878288016114a8565b95989497509550505050565b60008060006040848603121561171657600080fd5b60006117228686611325565b93505060208401356001600160401b0381111561173e57600080fd5b61174a868287016114a8565b92509250509250925092565b60008060008060006060868803121561176e57600080fd5b600061177a8888611325565b95505060208601356001600160401b0381111561179657600080fd5b6117a2888289016114a8565b945094505060408601356001600160401b038111156117c057600080fd5b6117cc888289016114a8565b92509250509295509295909350565b6000806000606084860312156117f057600080fd5b83516001600160401b0381111561180657600080fd5b6118128682870161133b565b93505060208401516001600160401b0381111561182e57600080fd5b61183a86828701611417565b92505060408401516001600160401b0381111561185657600080fd5b6116908682870161133b565b6000806040838503121561187557600080fd5b82356001600160401b0381111561188b57600080fd5b611897858286016113ba565b92505060206118a885828601611487565b9150509250929050565b6000602082840312156118c457600080fd5b60006111e18484611492565b6000602082840312156118e257600080fd5b60006111e18484611629565b6000806040838503121561190157600080fd5b600061190d8585611629565b92505060206118a885828601611629565b600061192a838361193e565b505060200190565b600061192a8383611d5d565b61194781611fab565b82525050565b600061195882611f9e565b6119628185611fa2565b935061196d83611f98565b8060005b8381101561199b578151611985888261191e565b975061199083611f98565b925050600101611971565b509495945050505050565b60006119b182611f9e565b6119bb8185611fa2565b93506119c683611f98565b8060005b8381101561199b5781516119de8882611932565b97506119e983611f98565b9250506001016119ca565b60006119ff82611f9e565b611a098185611fa2565b9350611a19818560208601612000565b611a228161202c565b9093019392505050565b6000611a3782611f9e565b611a418185611012565b9350611a51818560208601612000565b9290920192915050565b61194781611fde565b61194781611fe9565b6000611a7a604a83611fa2565b7f5f5f74616b654f72646572416e6456616c6964617465496e636f6d696e673a2081527f526563656976656420696e636f6d696e67206173736574206c657373207468616020820152691b88195e1c1958dd195960b21b604082015260600192915050565b6000611aec601e83611fa2565b7f536166654d6174683a207375627472616374696f6e206f766572666c6f770000815260200192915050565b6000611b25602683611fa2565b7f416464726573733a20696e73756666696369656e742062616c616e636520666f8152651c8818d85b1b60d21b602082015260400192915050565b6000611b6d602983611fa2565b7f7061727365417373657473466f72416374696f6e3a20696e76616c69642064738152683a2932b1b2b4bb32b960b91b602082015260400192915050565b6000610924600083611fa2565b6000611bc5601d83611fa2565b7f416464726573733a2063616c6c20746f206e6f6e2d636f6e7472616374000000815260200192915050565b6000611bfe602a83611fa2565b7f5361666545524332303a204552433230206f7065726174696f6e20646964206e8152691bdd081cdd58d8d9595960b21b602082015260400192915050565b6000611c4a603683611fa2565b7f5361666545524332303a20617070726f76652066726f6d206e6f6e2d7a65726f81527520746f206e6f6e2d7a65726f20616c6c6f77616e636560501b602082015260400192915050565b6000611ca2602783611fa2565b7f7061727365417373657473466f72416374696f6e3a205f73656c6563746f72208152661a5b9d985b1a5960ca1b602082015260400192915050565b805160e0830190611cef848261193e565b506020820151611d02602085018261193e565b506040820151611d15604085018261193e565b506060820151611d28606085018261193e565b506080820151611d3b6080850182611d5d565b5060a0820151611d4e60a0850182611d5d565b5060c08201516107a260c08501825b61194781611010565b6000610ad78284611a2c565b60208101610924828461193e565b60408101611d8e828561193e565b610ad7602083018461193e565b60408101611da9828561193e565b81810360208301526111e181846119f4565b6101408101611dca828661193e565b611dd76020830185611cde565b818103610100830152611de981611bab565b9050818103610120830152611dfe81846119f4565b95945050505050565b60408101611e15828561193e565b610ad76020830184611d5d565b602081016109248284611a5b565b60a08101611e3e8288611a64565b8181036020830152611e50818761194d565b90508181036040830152611e6481866119a6565b90508181036060830152611e78818561194d565b9050818103608083015261129f81846119a6565b60208082528101610ad781846119f4565b6020808252810161092481611a6d565b6020808252810161092481611adf565b6020808252810161092481611b18565b6020808252810161092481611b60565b6020808252810161092481611bb8565b6020808252810161092481611bf1565b6020808252810161092481611c3d565b6020808252810161092481611c95565b60408101611da98285611d5d565b6040518181016001600160401b0381118282101715611f4957600080fd5b604052919050565b60006001600160401b03821115611f6757600080fd5b5060209081020190565b60006001600160401b03821115611f8757600080fd5b506020601f91909101601f19160190565b60200190565b5190565b90815260200190565b600061092482611fd2565b151590565b6001600160e01b03191690565b8061101281612036565b6001600160a01b031690565b600061092482611fab565b600061092482611fc8565b82818337506000910152565b60005b8381101561201b578181015183820152602001612003565b838111156107a25750506000910152565b601f01601f191690565b6003811061204057fe5b50565b61204c81611fab565b811461204057600080fd5b61204c81611fb6565b61204c81611fbb565b61204c8161101056fea164736f6c634300060c000a","linkReferences":{}},"methodIdentifiers":{"ONE_INCH_V5_AGGREGATION_ROUTER_CONTRACT()":"81e0cc65","getIntegrationManager()":"e7c45690","parseAssetsForAction(address,bytes4,bytes)":"c54efee5","takeMultipleOrders(address,bytes,bytes)":"0e7f692d","takeOrder(address,bytes,bytes)":"03e38a2b","takeOrderAndValidateIncoming(address,bytes)":"2d979b8c"},"id":188}