{"abi":[{"type":"constructor","inputs":[{"name":"_integrationManager","type":"address","internalType":"address"},{"name":"_oneInchV5Exchange","type":"address","internalType":"address"}],"stateMutability":"nonpayable"},{"type":"function","name":"ONE_INCH_V5_AGGREGATION_ROUTER_CONTRACT","inputs":[],"outputs":[{"name":"","type":"address","internalType":"contract IOneInchV5AggregationRouter"}],"stateMutability":"view"},{"type":"function","name":"getIntegrationManager","inputs":[],"outputs":[{"name":"integrationManager_","type":"address","internalType":"address"}],"stateMutability":"view"},{"type":"function","name":"parseAssetsForAction","inputs":[{"name":"_vaultProxy","type":"address","internalType":"address"},{"name":"_selector","type":"bytes4","internalType":"bytes4"},{"name":"_actionData","type":"bytes","internalType":"bytes"}],"outputs":[{"name":"spendAssetsHandleType_","type":"uint8","internalType":"enum IIntegrationManager.SpendAssetsHandleType"},{"name":"spendAssets_","type":"address[]","internalType":"address[]"},{"name":"spendAssetAmounts_","type":"uint256[]","internalType":"uint256[]"},{"name":"incomingAssets_","type":"address[]","internalType":"address[]"},{"name":"minIncomingAssetAmounts_","type":"uint256[]","internalType":"uint256[]"}],"stateMutability":"view"},{"type":"function","name":"takeMultipleOrders","inputs":[{"name":"_vaultProxy","type":"address","internalType":"address"},{"name":"_actionData","type":"bytes","internalType":"bytes"},{"name":"_assetData","type":"bytes","internalType":"bytes"}],"outputs":[],"stateMutability":"nonpayable"},{"type":"function","name":"takeOrder","inputs":[{"name":"_vaultProxy","type":"address","internalType":"address"},{"name":"_actionData","type":"bytes","internalType":"bytes"},{"name":"_assetData","type":"bytes","internalType":"bytes"}],"outputs":[],"stateMutability":"nonpayable"},{"type":"function","name":"takeOrderAndValidateIncoming","inputs":[{"name":"_vaultProxy","type":"address","internalType":"address"},{"name":"_orderData","type":"bytes","internalType":"bytes"}],"outputs":[],"stateMutability":"nonpayable"},{"type":"event","name":"MultipleOrdersItemFailed","inputs":[{"name":"index","type":"uint256","indexed":false,"internalType":"uint256"},{"name":"reason","type":"bytes","indexed":false,"internalType":"bytes"}],"anonymous":false}],"bytecode":{"object":"0x60c06040523480156200001157600080fd5b5060405162001eab38038062001eab833981016040819052620000349162000053565b6001600160601b0319606092831b8116608052911b1660a052620000aa565b6000806040838503121562000066578182fd5b8251620000738162000091565b6020840151909250620000868162000091565b809150509250929050565b6001600160a01b0381168114620000a757600080fd5b50565b60805160601c60a05160601c611dcd620000de600039806103505280610d1b5280610d5b52508061074d5250611dcd6000f3fe608060405234801561001057600080fd5b50600436106100625760003560e01c806303e38a2b146100675780630e7f692d1461007c5780632d979b8c1461008f57806381e0cc65146100a2578063c54efee5146100c0578063e7c45690146100e4575b600080fd5b61007a610075366004611609565b6100ec565b005b61007a61008a366004611609565b610185565b61007a61009d3660046115b7565b610309565b6100aa61034e565b6040516100b79190611904565b60405180910390f35b6100d36100ce366004611549565b610372565b6040516100b7959493929190611a08565b6100aa61074b565b8482828080601f01602080910402602001604051908101604052809392919081815260200183838082843760009201919091525050604080516020601f8a0181900481028201810190925288815261016193509150889088908190840183828082843760009201919091525061076f92505050565b606061016c8261079b565b5050905061017a83826107c1565b505050505050505050565b8482828080601f01602080910402602001604051908101604052809392919081815260200183838082843760009201829052506060935091506101ca9050888861091d565b9150915080156102c95760005b82518110156102c357306001600160a01b0316632d979b8c8b8584815181106101fc57fe5b60200260200101516040518363ffffffff1660e01b8152600401610221929190611932565b600060405180830381600087803b15801561023b57600080fd5b505af192505050801561024c575060015b6102bb573d80801561027a576040519150601f19603f3d011682016040523d82523d6000602084013e61027f565b606091505b507f3a14c92f155e1c07fef79933a3b56bd101ab83092702170ae1a4c53712c5099b82826040516102b1929190611cd8565b60405180910390a1505b6001016101d7565b506102fc565b60005b82518110156102fa576102f28a8483815181106102e557fe5b6020026020010151610939565b6001016102cc565b505b5050606061016c8261079b565b6103498383838080601f01602080910402602001604051908101604052809392919081815260200183838082843760009201919091525061093992505050565b505050565b7f000000000000000000000000000000000000000000000000000000000000000081565b600060608080806001600160e01b031988166303e38a2b60e01b141561054157604080516001808252818301909252906020808301908036833750506040805160018082528183019092529296509050602080830190803683375050604080516001808252818301909252929550905060208083019080368337505060408051600180825281830190925292945090506020808301908036833701905050905061041a6112d8565b61045988888080601f016020809104026020016040519081016040528093929190818152602001838380828437600092019190915250610a8892505050565b5091505080606001516001600160a01b03168a6001600160a01b03161461049b5760405162461bcd60e51b815260040161049290611b71565b60405180910390fd5b8060000151856000815181106104ad57fe5b60200260200101906001600160a01b031690816001600160a01b0316815250508060800151846000815181106104df57fe5b6020026020010181815250508060200151836000815181106104fd57fe5b60200260200101906001600160a01b031690816001600160a01b0316815250508060a001518260008151811061052f57fe5b6020026020010181815250505061073c565b6001600160e01b03198816630e7f692d60e01b1415610724576060610566888861091d565b50905080516001600160401b038111801561058057600080fd5b506040519080825280602002602001820160405280156105aa578160200160208202803683370190505b50945080516001600160401b03811180156105c457600080fd5b506040519080825280602002602001820160405280156105ee578160200160208202803683370190505b50935060005b81518110156106ca576106056112d8565b61062183838151811061061457fe5b6020026020010151610a88565b5091505080606001516001600160a01b03168c6001600160a01b03161461065a5760405162461bcd60e51b815260040161049290611b71565b806000015187838151811061066b57fe5b60200260200101906001600160a01b031690816001600160a01b031681525050806080015186838151811061069c57fe5b6020026020010181815250506106bf816020015186610aa890919063ffffffff16565b9450506001016105f4565b506106d58585610ad1565b845191965094506001600160401b03811180156106f157600080fd5b5060405190808252806020026020018201604052801561071b578160200160208202803683370190505b5091505061073c565b60405162461bcd60e51b815260040161049290611c91565b60029450945094509450945094565b7f000000000000000000000000000000000000000000000000000000000000000090565b60006107796112d8565b606061078484610a88565b925092509250610795838383610d11565b50505050565b6060806060838060200190518101906107b49190611688565b9250925092509193909250565b606081516001600160401b03811180156107da57600080fd5b50604051908082528060200260200182016040528015610804578160200160208202803683370190505b50905060005b825181101561091557600083828151811061082157fe5b60200260200101519050806001600160a01b03166370a08231306040518263ffffffff1660e01b81526004016108579190611904565b60206040518083038186803b15801561086f57600080fd5b505afa158015610883573d6000803e3d6000fd5b505050506040513d601f19601f820116820180604052508101906108a7919061180f565b8383815181106108b357fe5b60200260200101818152505060008383815181106108cd57fe5b6020026020010151111561090c5761090c858484815181106108eb57fe5b6020026020010151836001600160a01b0316610dec9092919063ffffffff16565b5060010161080a565b505b92915050565b6060600061092d83850185611757565b915091505b9250929050565b6109416112d8565b61094a82610a88565b50915050600081602001516001600160a01b03166370a08231856040518263ffffffff1660e01b81526004016109809190611904565b60206040518083038186803b15801561099857600080fd5b505afa1580156109ac573d6000803e3d6000fd5b505050506040513d601f19601f820116820180604052508101906109d0919061180f565b90506109db8361076f565b8160a00151610a6a8284602001516001600160a01b03166370a08231886040518263ffffffff1660e01b8152600401610a149190611904565b60206040518083038186803b158015610a2c57600080fd5b505afa158015610a40573d6000803e3d6000fd5b505050506040513d601f19601f82011682018060405250810190610a64919061180f565b90610dff565b10156107955760405162461bcd60e51b815260040161049290611a84565b6000610a926112d8565b6060838060200190518101906107b49190611474565b6060610ab48383610e27565b15610ac0575081610917565b610aca8383610e7d565b9392505050565b606080835160001415610ae357610932565b6001805b8551811015610b63576000805b82811015610b4d57878181518110610b0857fe5b60200260200101516001600160a01b0316888481518110610b2557fe5b60200260200101516001600160a01b03161415610b455760019150610b4d565b600101610af4565b5080610b5a576001909201915b50600101610ae7565b50806001600160401b0381118015610b7a57600080fd5b50604051908082528060200260200182016040528015610ba4578160200160208202803683370190505b509250806001600160401b0381118015610bbd57600080fd5b50604051908082528060200260200182016040528015610be7578160200160208202803683370190505b5091506000805b8651811015610d07576000805b83811015610c8657868181518110610c0f57fe5b60200260200101516001600160a01b0316898481518110610c2c57fe5b60200260200101516001600160a01b03161415610c7e5760019150878381518110610c5357fe5b6020026020010151868281518110610c6757fe5b602002602001018181510191508181525050610c86565b600101610bfb565b5080610cfe57878281518110610c9857fe5b6020026020010151868481518110610cac57fe5b60200260200101906001600160a01b031690816001600160a01b031681525050868281518110610cd857fe5b6020026020010151858481518110610cec57fe5b60209081029190910101526001909201915b50600101610bee565b5050509250929050565b610d4482600001517f00000000000000000000000000000000000000000000000000000000000000008460800151610f47565b6040516312aa3caf60e01b81526001600160a01b037f000000000000000000000000000000000000000000000000000000000000000016906312aa3caf90610d9490869086908690600401611956565b6040805180830381600087803b158015610dad57600080fd5b505af1158015610dc1573d6000803e3d6000fd5b505050506040513d601f19601f82011682018060405250810190610de59190611827565b5050505050565b610349610df884611003565b8383611006565b600082821115610e215760405162461bcd60e51b815260040161049290611af4565b50900390565b6000805b8351811015610e7357838181518110610e4057fe5b60200260200101516001600160a01b0316836001600160a01b03161415610e6b576001915050610917565b600101610e2b565b5060009392505050565b606082516001016001600160401b0381118015610e9957600080fd5b50604051908082528060200260200182016040528015610ec3578160200160208202803683370190505b50905060005b8351811015610f1257838181518110610ede57fe5b6020026020010151828281518110610ef257fe5b6001600160a01b0390921660209283029190910190910152600101610ec9565b508181845181518110610f2157fe5b60200260200101906001600160a01b031690816001600160a01b03168152505092915050565b604051636eb1769f60e11b81526000906001600160a01b0385169063dd62ed3e90610f789030908790600401611918565b60206040518083038186803b158015610f9057600080fd5b505afa158015610fa4573d6000803e3d6000fd5b505050506040513d601f19601f82011682018060405250810190610fc8919061180f565b905081811015610795578015610fed57610fed6001600160a01b03851684600061105c565b6107956001600160a01b0385168460001961105c565b90565b6103498363a9059cbb60e01b84846040516024016110259291906119ef565b60408051601f198184030181529190526020810180516001600160e01b03166001600160e01b03199093169290921790915261106f565b61034961106884611003565b83836110fe565b60606110c4826040518060400160405280602081526020017f5361666545524332303a206c6f772d6c6576656c2063616c6c206661696c6564815250856001600160a01b03166111c19092919063ffffffff16565b80519091501561034957808060200190518101906110e291906117f3565b6103495760405162461bcd60e51b815260040161049290611bf1565b8015806111865750604051636eb1769f60e11b81526001600160a01b0384169063dd62ed3e906111349030908690600401611918565b60206040518083038186803b15801561114c57600080fd5b505afa158015611160573d6000803e3d6000fd5b505050506040513d601f19601f82011682018060405250810190611184919061180f565b155b6111a25760405162461bcd60e51b815260040161049290611c3b565b6103498363095ea7b360e01b84846040516024016110259291906119ef565b60606111d084846000856111d8565b949350505050565b6060824710156111fa5760405162461bcd60e51b815260040161049290611b2b565b61120385611299565b61121f5760405162461bcd60e51b815260040161049290611bba565b60006060866001600160a01b0316858760405161123c91906118e8565b60006040518083038185875af1925050503d8060008114611279576040519150601f19603f3d011682016040523d82523d6000602084013e61127e565b606091505b509150915061128e82828661129f565b979650505050505050565b3b151590565b606083156112ae575081610aca565b8251156112be5782518084602001fd5b8160405162461bcd60e51b81526004016104929190611a71565b6040805160e081018252600080825260208201819052918101829052606081018290526080810182905260a0810182905260c081019190915290565b805161091781611d9a565b600082601f83011261132f578081fd5b815161134261133d82611d17565b611cf1565b81815291506020808301908481018184028601820187101561136357600080fd5b60005b8481101561138b57815161137981611d9a565b84529282019290820190600101611366565b505050505092915050565b803561091781611db2565b60008083601f8401126113b2578182fd5b5081356001600160401b038111156113c8578182fd5b60208301915083602082850101111561093257600080fd5b600082601f8301126113f0578081fd5b81356113fe61133d82611d36565b915080825283602082850101111561141557600080fd5b8060208401602084013760009082016020015292915050565b600082601f83011261143e578081fd5b815161144c61133d82611d36565b915080825283602082850101111561146357600080fd5b610915816020840160208601611d6e565b600080600083850361012081121561148a578384fd5b845161149581611d9a565b935060e0601f19820112156114a8578283fd5b506114b360e0611cf1565b6114c08660208701611314565b81526114cf8660408701611314565b60208201526114e18660608701611314565b60408201526114f38660808701611314565b606082015260a0850151608082015260c085015160a082015260e085015160c0820152809250506101008401516001600160401b03811115611533578182fd5b61153f8682870161142e565b9150509250925092565b6000806000806060858703121561155e578081fd5b843561156981611d9a565b935060208501356001600160e01b031981168114611585578182fd5b925060408501356001600160401b0381111561159f578182fd5b6115ab878288016113a1565b95989497509550505050565b6000806000604084860312156115cb578283fd5b83356115d681611d9a565b925060208401356001600160401b038111156115f0578283fd5b6115fc868287016113a1565b9497909650939450505050565b600080600080600060608688031215611620578081fd5b853561162b81611d9a565b945060208601356001600160401b0380821115611646578283fd5b61165289838a016113a1565b9096509450604088013591508082111561166a578283fd5b50611677888289016113a1565b969995985093965092949392505050565b60008060006060848603121561169c578283fd5b83516001600160401b03808211156116b2578485fd5b6116be8783880161131f565b94506020915081860151818111156116d4578485fd5b8601601f810188136116e4578485fd5b80516116f261133d82611d17565b81815284810190838601868402850187018c101561170e578889fd5b8894505b83851015611730578051835260019490940193918601918601611712565b5060408a015190975094505050508082111561174a578283fd5b5061153f8682870161131f565b60008060408385031215611769578081fd5b82356001600160401b0381111561177e578182fd5b8301601f8101851361178e578182fd5b803561179c61133d82611d17565b81815260208082019190848101865b858110156117d4576117c28b8484358a01016113e0565b855293820193908201906001016117ab565b50508196506117e589828a01611396565b955050505050509250929050565b600060208284031215611804578081fd5b8151610aca81611db2565b600060208284031215611820578081fd5b5051919050565b60008060408385031215611839578182fd5b505080516020909101519092909150565b6000815180845260208085019450808401835b838110156118825781516001600160a01b03168752958201959082019060010161185d565b509495945050505050565b6000815180845260208085019450808401835b83811015611882578151875295820195908201906001016118a0565b600081518084526118d4816020860160208601611d6e565b601f01601f19169290920160200192915050565b600082516118fa818460208701611d6e565b9190910192915050565b6001600160a01b0391909116815260200190565b6001600160a01b0392831681529116602082015260400190565b6001600160a01b03831681526040602082018190526000906111d0908301846118bc565b6001600160a01b03848116825283516000916101409161197590611d62565b602085015280602087015116604085015280604087015116606085015280606087015116608085015250608085015160a084015260a085015160c084015260c085015160e0840152806101008401526119d082828501611d59565b90508281036101208401526119e581856118bc565b9695505050505050565b6001600160a01b03929092168252602082015260400190565b600060038710611a1457fe5b86825260a06020830152611a2b60a083018761184a565b8281036040840152611a3d818761188d565b90508281036060840152611a51818661184a565b90508281036080840152611a65818561188d565b98975050505050505050565b600060208252610aca60208301846118bc565b6020808252604a908201527f5f5f74616b654f72646572416e6456616c6964617465496e636f6d696e673a2060408201527f526563656976656420696e636f6d696e67206173736574206c657373207468616060820152691b88195e1c1958dd195960b21b608082015260a00190565b6020808252601e908201527f536166654d6174683a207375627472616374696f6e206f766572666c6f770000604082015260600190565b60208082526026908201527f416464726573733a20696e73756666696369656e742062616c616e636520666f6040820152651c8818d85b1b60d21b606082015260800190565b60208082526029908201527f7061727365417373657473466f72416374696f6e3a20696e76616c69642064736040820152683a2932b1b2b4bb32b960b91b606082015260800190565b6020808252601d908201527f416464726573733a2063616c6c20746f206e6f6e2d636f6e7472616374000000604082015260600190565b6020808252602a908201527f5361666545524332303a204552433230206f7065726174696f6e20646964206e6040820152691bdd081cdd58d8d9595960b21b606082015260800190565b60208082526036908201527f5361666545524332303a20617070726f76652066726f6d206e6f6e2d7a65726f60408201527520746f206e6f6e2d7a65726f20616c6c6f77616e636560501b606082015260800190565b60208082526027908201527f7061727365417373657473466f72416374696f6e3a205f73656c6563746f72206040820152661a5b9d985b1a5960ca1b606082015260800190565b6000838252604060208301526111d060408301846118bc565b6040518181016001600160401b0381118282101715611d0f57600080fd5b604052919050565b60006001600160401b03821115611d2c578081fd5b5060209081020190565b60006001600160401b03821115611d4b578081fd5b50601f01601f191660200190565b90815260200190565b6001600160a01b031690565b60005b83811015611d89578181015183820152602001611d71565b838111156107955750506000910152565b6001600160a01b0381168114611daf57600080fd5b50565b8015158114611daf57600080fdfea164736f6c634300060c000a","linkReferences":{}},"methodIdentifiers":{"ONE_INCH_V5_AGGREGATION_ROUTER_CONTRACT()":"81e0cc65","getIntegrationManager()":"e7c45690","parseAssetsForAction(address,bytes4,bytes)":"c54efee5","takeMultipleOrders(address,bytes,bytes)":"0e7f692d","takeOrder(address,bytes,bytes)":"03e38a2b","takeOrderAndValidateIncoming(address,bytes)":"2d979b8c"},"id":178}