{"abi":[{"type":"constructor","inputs":[{"name":"_integrationManager","type":"address","internalType":"address"},{"name":"_curvePriceFeed","type":"address","internalType":"address"},{"name":"_wrappedNativeAsset","type":"address","internalType":"address"},{"name":"_curveMinter","type":"address","internalType":"address"},{"name":"_crvToken","type":"address","internalType":"address"},{"name":"_nativeAssetAddress","type":"address","internalType":"address"}],"stateMutability":"nonpayable"},{"type":"receive","stateMutability":"payable"},{"type":"function","name":"claimRewards","inputs":[{"name":"_vaultProxy","type":"address","internalType":"address"},{"name":"_actionData","type":"bytes","internalType":"bytes"},{"name":"","type":"bytes","internalType":"bytes"}],"outputs":[],"stateMutability":"nonpayable"},{"type":"function","name":"getCurveGaugeV2RewardsHandlerCrvToken","inputs":[],"outputs":[{"name":"crvToken_","type":"address","internalType":"address"}],"stateMutability":"view"},{"type":"function","name":"getCurveGaugeV2RewardsHandlerMinter","inputs":[],"outputs":[{"name":"minter_","type":"address","internalType":"address"}],"stateMutability":"view"},{"type":"function","name":"getCurveLiquidityWrappedNativeAsset","inputs":[],"outputs":[{"name":"addressProvider_","type":"address","internalType":"address"}],"stateMutability":"view"},{"type":"function","name":"getIntegrationManager","inputs":[],"outputs":[{"name":"integrationManager_","type":"address","internalType":"address"}],"stateMutability":"view"},{"type":"function","name":"lend","inputs":[{"name":"_vaultProxy","type":"address","internalType":"address"},{"name":"_actionData","type":"bytes","internalType":"bytes"},{"name":"_assetData","type":"bytes","internalType":"bytes"}],"outputs":[],"stateMutability":"nonpayable"},{"type":"function","name":"lendAndStake","inputs":[{"name":"_vaultProxy","type":"address","internalType":"address"},{"name":"_actionData","type":"bytes","internalType":"bytes"},{"name":"_assetData","type":"bytes","internalType":"bytes"}],"outputs":[],"stateMutability":"nonpayable"},{"type":"function","name":"parseAssetsForAction","inputs":[{"name":"","type":"address","internalType":"address"},{"name":"_selector","type":"bytes4","internalType":"bytes4"},{"name":"_actionData","type":"bytes","internalType":"bytes"}],"outputs":[{"name":"spendAssetsHandleType_","type":"uint8","internalType":"enum IIntegrationManager.SpendAssetsHandleType"},{"name":"spendAssets_","type":"address[]","internalType":"address[]"},{"name":"spendAssetAmounts_","type":"uint256[]","internalType":"uint256[]"},{"name":"incomingAssets_","type":"address[]","internalType":"address[]"},{"name":"minIncomingAssetAmounts_","type":"uint256[]","internalType":"uint256[]"}],"stateMutability":"view"},{"type":"function","name":"redeem","inputs":[{"name":"_vaultProxy","type":"address","internalType":"address"},{"name":"_actionData","type":"bytes","internalType":"bytes"},{"name":"_assetData","type":"bytes","internalType":"bytes"}],"outputs":[],"stateMutability":"nonpayable"},{"type":"function","name":"stake","inputs":[{"name":"_vaultProxy","type":"address","internalType":"address"},{"name":"","type":"bytes","internalType":"bytes"},{"name":"_assetData","type":"bytes","internalType":"bytes"}],"outputs":[],"stateMutability":"nonpayable"},{"type":"function","name":"unstake","inputs":[{"name":"_vaultProxy","type":"address","internalType":"address"},{"name":"_actionData","type":"bytes","internalType":"bytes"},{"name":"_assetData","type":"bytes","internalType":"bytes"}],"outputs":[],"stateMutability":"nonpayable"},{"type":"function","name":"unstakeAndRedeem","inputs":[{"name":"_vaultProxy","type":"address","internalType":"address"},{"name":"_actionData","type":"bytes","internalType":"bytes"},{"name":"_assetData","type":"bytes","internalType":"bytes"}],"outputs":[],"stateMutability":"nonpayable"}],"bytecode":{"object":"0x61014060405234801561001157600080fd5b50604051613ed7380380613ed7833981810160405260c081101561003457600080fd5b5080516020820151604083015160608085015160808087015160a0978801516001600160601b031997851b881690925293831b861690965294811b841660c05290811b831660e05292831b82166101005290911b166101205260805160601c60a05160601c60c05160601c60e05160601c6101005160601c6101205160601c613da961012e60003980610bb8528061201c52806122b4528061244952806126ca52806130325250806112505280611da45280612e35525080610cf5525080613b06525080610a5d5250806109005280610a8a5280610d225280610e1c5280610f375280610fed528061122c528061127d5250613da96000f3fe6080604052600436106100ab5760003560e01c8063b9dfbacc11610064578063b9dfbacc1461046b578063c29fa9dd14610546578063c54efee514610621578063e7c45690146107f0578063f003eb8514610805578063fa7dd04d1461081a576100b2565b8063099f7515146100b757806312c9d3861461019457806329fa046e146101c5578063332d709f146102a057806368e30677146102b55780638334eb9914610390576100b2565b366100b257005b600080fd5b3480156100c357600080fd5b50610192600480360360608110156100da57600080fd5b6001600160a01b038235169190810190604081016020820135600160201b81111561010457600080fd5b82018360208201111561011657600080fd5b803590602001918460018302840111600160201b8311171561013757600080fd5b919390929091602081019035600160201b81111561015457600080fd5b82018360208201111561016657600080fd5b803590602001918460018302840111600160201b8311171561018757600080fd5b5090925090506108f5565b005b3480156101a057600080fd5b506101a9610a5b565b604080516001600160a01b039092168252519081900360200190f35b3480156101d157600080fd5b50610192600480360360608110156101e857600080fd5b6001600160a01b038235169190810190604081016020820135600160201b81111561021257600080fd5b82018360208201111561022457600080fd5b803590602001918460018302840111600160201b8311171561024557600080fd5b919390929091602081019035600160201b81111561026257600080fd5b82018360208201111561027457600080fd5b803590602001918460018302840111600160201b8311171561029557600080fd5b509092509050610a7f565b3480156102ac57600080fd5b506101a9610cf3565b3480156102c157600080fd5b50610192600480360360608110156102d857600080fd5b6001600160a01b038235169190810190604081016020820135600160201b81111561030257600080fd5b82018360208201111561031457600080fd5b803590602001918460018302840111600160201b8311171561033557600080fd5b919390929091602081019035600160201b81111561035257600080fd5b82018360208201111561036457600080fd5b803590602001918460018302840111600160201b8311171561038557600080fd5b509092509050610d17565b34801561039c57600080fd5b50610192600480360360608110156103b357600080fd5b6001600160a01b038235169190810190604081016020820135600160201b8111156103dd57600080fd5b8201836020820111156103ef57600080fd5b803590602001918460018302840111600160201b8311171561041057600080fd5b919390929091602081019035600160201b81111561042d57600080fd5b82018360208201111561043f57600080fd5b803590602001918460018302840111600160201b8311171561046057600080fd5b509092509050610e11565b34801561047757600080fd5b506101926004803603606081101561048e57600080fd5b6001600160a01b038235169190810190604081016020820135600160201b8111156104b857600080fd5b8201836020820111156104ca57600080fd5b803590602001918460018302840111600160201b831117156104eb57600080fd5b919390929091602081019035600160201b81111561050857600080fd5b82018360208201111561051a57600080fd5b803590602001918460018302840111600160201b8311171561053b57600080fd5b509092509050610f2c565b34801561055257600080fd5b506101926004803603606081101561056957600080fd5b6001600160a01b038235169190810190604081016020820135600160201b81111561059357600080fd5b8201836020820111156105a557600080fd5b803590602001918460018302840111600160201b831117156105c657600080fd5b919390929091602081019035600160201b8111156105e357600080fd5b8201836020820111156105f557600080fd5b803590602001918460018302840111600160201b8311171561061657600080fd5b509092509050610fe2565b34801561062d57600080fd5b506106bb6004803603606081101561064457600080fd5b6001600160a01b03823516916001600160e01b031960208201351691810190606081016040820135600160201b81111561067d57600080fd5b82018360208201111561068f57600080fd5b803590602001918460018302840111600160201b831117156106b057600080fd5b5090925090506110df565b604051808660028111156106cb57fe5b815260200180602001806020018060200180602001858103855289818151815260200191508051906020019060200280838360005b83811015610718578181015183820152602001610700565b50505050905001858103845288818151815260200191508051906020019060200280838360005b8381101561075757818101518382015260200161073f565b50505050905001858103835287818151815260200191508051906020019060200280838360005b8381101561079657818101518382015260200161077e565b50505050905001858103825286818151815260200191508051906020019060200280838360005b838110156107d55781810151838201526020016107bd565b50505050905001995050505050505050505060405180910390f35b3480156107fc57600080fd5b506101a961122a565b34801561081157600080fd5b506101a961124e565b34801561082657600080fd5b506101926004803603606081101561083d57600080fd5b6001600160a01b038235169190810190604081016020820135600160201b81111561086757600080fd5b82018360208201111561087957600080fd5b803590602001918460018302840111600160201b8311171561089a57600080fd5b919390929091602081019035600160201b8111156108b757600080fd5b8201836020820111156108c957600080fd5b803590602001918460018302840111600160201b831117156108ea57600080fd5b509092509050611272565b336001600160a01b037f0000000000000000000000000000000000000000000000000000000000000000161461095c5760405162461bcd60e51b8152600401808060200182810382526032815260200180613ce46032913960400191505060405180910390fd5b8482828080601f0160208091040260200160405190810160405280939291908181526020018383808284376000920182905250604080516020601f8c018190048102820181019092528a81529194506060935084925082916109d8918c908c90819084018382808284376000920191909152506113b092505050565b93509350935093506060610a2189898080601f01602080910402602001604051908101604052809392919081815260200183838082843760009201919091525061147992505050565b50509050610a328582868686611636565b50505050506060610a4282611479565b92505050610a5083826118ea565b505050505050505050565b7f000000000000000000000000000000000000000000000000000000000000000090565b336001600160a01b037f00000000000000000000000000000000000000000000000000000000000000001614610ae65760405162461bcd60e51b8152600401808060200182810382526032815260200180613ce46032913960400191505060405180910390fd5b8482828080601f0160208091040260200160405190810160405280939291908181526020018383808284376000920182905250604080516020601f8c018190048102820181019092528a81529194506060935084925082918291610b6591908d908d9081908401838280828437600092019190915250611a4592505050565b945094509450945094506060610bb08a8a8080601f01602080910402602001604051908101604052809392919081815260200183838082843760009201919091525061147992505050565b5050905060007f00000000000000000000000000000000000000000000000000000000000000006001600160a01b0316631f5bce55886040518263ffffffff1660e01b815260040180826001600160a01b0316815260200191505060206040518083038186803b158015610c2357600080fd5b505afa158015610c37573d6000803e3d6000fd5b505050506040513d6020811015610c4d57600080fd5b50519050610c5e8783888787611636565b610ce18582836001600160a01b03166370a08231306040518263ffffffff1660e01b815260040180826001600160a01b0316815260200191505060206040518083038186803b158015610cb057600080fd5b505afa158015610cc4573d6000803e3d6000fd5b505050506040513d6020811015610cda57600080fd5b5051611b19565b505050505050506060610a4282611479565b7f000000000000000000000000000000000000000000000000000000000000000090565b336001600160a01b037f00000000000000000000000000000000000000000000000000000000000000001614610d7e5760405162461bcd60e51b8152600401808060200182810382526032815260200180613ce46032913960400191505060405180910390fd5b8482828080601f0160208091040260200160405190810160405280939291908181526020018383808284376000920182905250604080516020601f8c018190048102820181019092528a8152919450849350610df592508a908a9081908401838280828437600092019190915250611b8f92505050565b9250925050610e048282611bc3565b50506060610a4282611479565b336001600160a01b037f00000000000000000000000000000000000000000000000000000000000000001614610e785760405162461bcd60e51b8152600401808060200182810382526032815260200180613ce46032913960400191505060405180910390fd5b8482828080601f0160208091040260200160405190810160405280939291908181526020018383808284376000920182905250604080516020601f8c018190048102820181019092528a815291945084935083925082918291606091610ef8918e908e9081908401838280828437600092019190915250611c2592505050565b955095509550955095509550610f0e8585611bc3565b610f1b8685858585611d28565b5050505050506060610a4282611479565b336001600160a01b037f00000000000000000000000000000000000000000000000000000000000000001614610f935760405162461bcd60e51b8152600401808060200182810382526032815260200180613ce46032913960400191505060405180910390fd5b610fdb610fd585858080601f016020809104026020016040519081016040528093929190818152602001838380828437600092019190915250611d7492505050565b86611d95565b5050505050565b336001600160a01b037f000000000000000000000000000000000000000000000000000000000000000016146110495760405162461bcd60e51b8152600401808060200182810382526032815260200180613ce46032913960400191505060405180910390fd5b8482828080601f0160208091040260200160405190810160405280939291908181526020018383808284376000920182905250604080516020601f8c018190048102820181019092528a815291945084935083925082916060916110c891908d908d9081908401838280828437600092019190915250611e4992505050565b94509450945094509450610a328585858585611d28565b600060608080806001600160e01b03198816632e77eeb360e21b141561111657611107611f42565b9450945094509450945061121f565b6001600160e01b0319881663099f751560e01b1415611139576111078787611fa2565b6001600160e01b031988166314fd023760e11b141561115c576111078787612132565b6001600160e01b0319881663c29fa9dd60e01b141561117f576111078787612237565b6001600160e01b0319881663fa7dd04d60e01b14156111a25761110787876123cb565b6001600160e01b031988166368e3067760e01b14156111c55761110787876125cd565b6001600160e01b03198816638334eb9960e01b14156111e857611107878761276e565b60405162461bcd60e51b8152600401808060200182810382526027815260200180613d766027913960400191505060405180910390fd5b945094509450945094565b7f000000000000000000000000000000000000000000000000000000000000000090565b7f000000000000000000000000000000000000000000000000000000000000000090565b336001600160a01b037f000000000000000000000000000000000000000000000000000000000000000016146112d95760405162461bcd60e51b8152600401808060200182810382526032815260200180613ce46032913960400191505060405180910390fd5b8482828080601f01602080910402602001604051908101604052809392919081815260200183838082843760009201919091525050604080516020601f88018190048102820181019092528681526060935083925082916113559190899089908190840183828082843760009201919091525061147992505050565b9250925092506113a28160008151811061136b57fe5b60200260200101518460008151811061138057fe5b60200260200101518460008151811061139557fe5b6020026020010151611b19565b5050506060610a4282611479565b600060606000808480602001905160808110156113cc57600080fd5b815160208301805160405192949293830192919084600160201b8211156113f257600080fd5b90830190602082018581111561140757600080fd5b82518660208202830111600160201b8211171561142357600080fd5b82525081516020918201928201910280838360005b83811015611450578181015183820152602001611438565b505050509190910160409081526020830151920151959b949a5090985093965091945050505050565b606080606083806020019051606081101561149357600080fd5b8101908080516040519392919084600160201b8211156114b257600080fd5b9083019060208201858111156114c757600080fd5b82518660208202830111600160201b821117156114e357600080fd5b82525081516020918201928201910280838360005b838110156115105781810151838201526020016114f8565b5050505090500160405260200180516040519392919084600160201b82111561153857600080fd5b90830190602082018581111561154d57600080fd5b82518660208202830111600160201b8211171561156957600080fd5b82525081516020918201928201910280838360005b8381101561159657818101518382015260200161157e565b5050505090500160405260200180516040519392919084600160201b8211156115be57600080fd5b9083019060208201858111156115d357600080fd5b82518660208202830111600160201b821117156115ef57600080fd5b82525081516020918201928201910280838360005b8381101561161c578181015183820152602001611604565b505050509050016040525050509250925092509193909250565b6000805b85518110156117a95761164b610a5b565b6001600160a01b031686828151811061166057fe5b60200260200101516001600160a01b031614156117635761167f610a5b565b6001600160a01b03166370a08231306040518263ffffffff1660e01b815260040180826001600160a01b0316815260200191505060206040518083038186803b1580156116cb57600080fd5b505afa1580156116df573d6000803e3d6000fd5b505050506040513d60208110156116f557600080fd5b50519150611701610a5b565b6001600160a01b0316632e1a7d4d836040518263ffffffff1660e01b815260040180828152602001915050600060405180830381600087803b15801561174657600080fd5b505af115801561175a573d6000803e3d6000fd5b505050506117a1565b6117a186828151811061177257fe5b6020026020010151887f161bcca7119915b50764b4abe86529797775a5f1719510000000000000000000612877565b60010161163a565b5060006060876001600160a01b0316836117c4888888612935565b6040518082805190602001908083835b602083106117f35780518252601f1990920191602091820191016117d4565b6001836020036101000a03801982511681845116808217855250505050505090500191505060006040518083038185875af1925050503d8060008114611855576040519150601f19603f3d011682016040523d82523d6000602084013e61185a565b606091505b5091509150818190610a505760405162461bcd60e51b81526004018080602001828103825283818151815260200191508051906020019080838360005b838110156118af578181015183820152602001611897565b50505050905090810190601f1680156118dc5780820380516001836020036101000a031916815260200191505b509250505060405180910390fd5b6060815167ffffffffffffffff8111801561190457600080fd5b5060405190808252806020026020018201604052801561192e578160200160208202803683370190505b50905060005b8251811015611a3e57600083828151811061194b57fe5b60200260200101519050806001600160a01b03166370a08231306040518263ffffffff1660e01b815260040180826001600160a01b0316815260200191505060206040518083038186803b1580156119a257600080fd5b505afa1580156119b6573d6000803e3d6000fd5b505050506040513d60208110156119cc57600080fd5b505183518490849081106119dc57fe5b60200260200101818152505060008383815181106119f657fe5b60200260200101511115611a3557611a3585848481518110611a1457fe5b6020026020010151836001600160a01b0316612a869092919063ffffffff16565b50600101611934565b5092915050565b6000606060008060008580602001905160a0811015611a6357600080fd5b815160208301805160405192949293830192919084600160201b821115611a8957600080fd5b908301906020820185811115611a9e57600080fd5b82518660208202830111600160201b82111715611aba57600080fd5b82525081516020918201928201910280838360005b83811015611ae7578181015183820152602001611acf565b50505050919091016040908152602083015190830151606090930151969d959c509a5090985093965091945050505050565b611b24828483612877565b60408051636e553f6560e01b81526004810183905230602482015290516001600160a01b03851691636e553f6591604480830192600092919082900301818387803b158015611b7257600080fd5b505af1158015611b86573d6000803e3d6000fd5b50505050505050565b6000806000838060200190516060811015611ba957600080fd5b508051602082015160409092015190969195509350915050565b816001600160a01b0316632e1a7d4d826040518263ffffffff1660e01b815260040180828152602001915050600060405180830381600087803b158015611c0957600080fd5b505af1158015611c1d573d6000803e3d6000fd5b505050505050565b600080600080600060608680602001905160c0811015611c4457600080fd5b815160208301516040808501516060860151608087015160a088018051945196989597939692959194929382019284600160201b821115611c8457600080fd5b908301906020820185811115611c9957600080fd5b8251600160201b811182820188101715611cb257600080fd5b82525081516020918201929091019080838360005b83811015611cdf578181015183820152602001611cc7565b50505050905090810190601f168015611d0c5780820380516001836020036101000a031916815260200191505b5060405250505095509550955095509550955091939550919395565b6001826001811115611d3657fe5b1415611d6057600080611d4883612a9e565b91509150611d598787848489612ac9565b5050610fdb565b610fdb8585611d6e84612c80565b86612d28565b6000818060200190516020811015611d8b57600080fd5b505190505b919050565b611d9d612e33565b15611e3b577f00000000000000000000000000000000000000000000000000000000000000006001600160a01b03166327f18ae383836040518363ffffffff1660e01b815260040180836001600160a01b03168152602001826001600160a01b0316815260200192505050600060405180830381600087803b158015611e2257600080fd5b505af1158015611e36573d6000803e3d6000fd5b505050505b611e458282612e62565b5050565b60008060008060608580602001905160a0811015611e6657600080fd5b8151602083015160408085015160608601516080870180519351959794969295919491939282019284600160201b821115611ea057600080fd5b908301906020820185811115611eb557600080fd5b8251600160201b811182820188101715611ece57600080fd5b82525081516020918201929091019080838360005b83811015611efb578181015183820152602001611ee3565b50505050905090810190601f168015611f285780820380516001836020036101000a031916815260200191505b506040525050509450945094509450945091939590929450565b600060608080808480604051908082528060200260200182016040528015611f74578160200160208202803683370190505b5060408051600080825260208201818152828401918252606083019093529399929850965094509092509050565b600060608060608060006060600080611ff08b8b8080601f0160208091040260200160405190810160405280939291908181526020018383808284376000920191909152506113b092505050565b6040805160018082528183019092529498509296509094509250602080830190803683370190505095507f00000000000000000000000000000000000000000000000000000000000000006001600160a01b0316631f5bce55856040518263ffffffff1660e01b815260040180826001600160a01b0316815260200191505060206040518083038186803b15801561208757600080fd5b505afa15801561209b573d6000803e3d6000fd5b505050506040513d60208110156120b157600080fd5b5051865187906000906120c057fe5b6001600160a01b0392909216602092830291909101820152604080516001808252818301909252918281019080368337019050509450818560008151811061210457fe5b60200260200101818152505061211b848483612eb1565b60029a509098509650505050509295509295909350565b60006060806060806000606060008060006121828c8c8080601f016020809104026020016040519081016040528093929190818152602001838380828437600092019190915250611a4592505050565b945094509450945094506121968584613026565b6121a1858583612eb1565b604080516001808252818301909252929b509099506020808301908036833701905050965082876000815181106121d457fe5b6001600160a01b0392909216602092830291909101820152604080516001808252818301909252918281019080368337019050509550818660008151811061221857fe5b6020026020010181815250506002995050505050509295509295909350565b600060608060608060008060008060606122868c8c8080601f016020809104026020016040519081016040528093929190818152602001838380828437600092019190915250611e4992505050565b604080516001808252818301909252959a5093985091965094509250602080830190803683370190505098507f00000000000000000000000000000000000000000000000000000000000000006001600160a01b0316631f5bce55866040518263ffffffff1660e01b815260040180826001600160a01b0316815260200191505060206040518083038186803b15801561231f57600080fd5b505afa158015612333573d6000803e3d6000fd5b505050506040513d602081101561234957600080fd5b505189518a9060009061235857fe5b6001600160a01b0392909216602092830291909101820152604080516001808252818301909252918281019080368337019050509750838860008151811061239c57fe5b6020026020010181815250506123b485848484613124565b60029e9a9d50989b50995096979650505050505050565b600060608060608060008060006124178a8a8080601f016020809104026020016040519081016040528093929190818152602001838380828437600092019190915250611b8f92505050565b9250925092506124278383613026565b60408051600180825281830190925290602080830190803683370190505096507f00000000000000000000000000000000000000000000000000000000000000006001600160a01b0316631f5bce55846040518263ffffffff1660e01b815260040180826001600160a01b0316815260200191505060206040518083038186803b1580156124b457600080fd5b505afa1580156124c8573d6000803e3d6000fd5b505050506040513d60208110156124de57600080fd5b5051875188906000906124ed57fe5b6001600160a01b0392909216602092830291909101820152604080516001808252818301909252918281019080368337019050509550808660008151811061253157fe5b602090810291909101015260408051600180825281830190925290816020016020820280368337019050509450818560008151811061256c57fe5b6001600160a01b039290921660209283029190910182015260408051600180825281830190925291828101908036833701905050935080846000815181106125b057fe5b602002602001018181525050600297505050509295509295909350565b600060608060608060008060006126198a8a8080601f016020809104026020016040519081016040528093929190818152602001838380828437600092019190915250611b8f92505050565b9250925092506126298383613026565b6040805160018082528183019092529060208083019080368337019050509650818760008151811061265757fe5b6001600160a01b0392909216602092830291909101820152604080516001808252818301909252918281019080368337019050509550808660008151811061269b57fe5b6020908102919091010152604080516001808252818301909252908160200160208202803683370190505094507f00000000000000000000000000000000000000000000000000000000000000006001600160a01b0316631f5bce55846040518263ffffffff1660e01b815260040180826001600160a01b0316815260200191505060206040518083038186803b15801561273557600080fd5b505afa158015612749573d6000803e3d6000fd5b505050506040513d602081101561275f57600080fd5b50518551869060009061256c57fe5b6000606080606080600080600080600060606127bf8d8d8080601f016020809104026020016040519081016040528093929190818152602001838380828437600092019190915250611c2592505050565b9550955095509550955095506127d58686613026565b6040805160018082528183019092529060208083019080368337019050509950848a60008151811061280357fe5b6001600160a01b0392909216602092830291909101820152604080516001808252818301909252918281019080368337019050509850838960008151811061284757fe5b60200260200101818152505061285f86848484613124565b60029f9b9e50999c509a509798975050505050505050565b60408051636eb1769f60e11b81523060048201526001600160a01b038481166024830152915160009286169163dd62ed3e916044808301926020929190829003018186803b1580156128c857600080fd5b505afa1580156128dc573d6000803e3d6000fd5b505050506040513d60208110156128f257600080fd5b505190508181101561292f578015612919576129196001600160a01b038516846000613279565b61292f6001600160a01b03851684600019613279565b50505050565b606080821561295f5750604080516001602080830191909152825180830390910181529082019091525b61296a85518461328c565b8560405160200180828051906020019060200280838360005b8381101561299b578181015183820152602001612983565b50505050905001915050604051602081830303815290604052858360405160200180856001600160e01b031916815260040184805190602001908083835b602083106129f85780518252601f1990920191602091820191016129d9565b51815160209384036101000a60001901801990921691161790529201858152845190830192850191508083835b60208310612a445780518252601f199092019160209182019101612a25565b6001836020036101000a0380198251168184511680821785525050505050509050019450505050506040516020818303038152906040529150505b9392505050565b612a99612a92846133c8565b83836133cb565b505050565b600080828060200190516040811015612ab657600080fd5b5080516020909101519092509050915091565b60608115612b2a57506040805160248101869052600f85900b60448201526064810184905260016084808301919091528251808303909101815260a49091019091526020810180516001600160e01b031663517a55a360e01b179052612b75565b506040805160248101869052600f85900b604482015260648082018590528251808303909101815260849091019091526020810180516001600160e01b0316630d2680e960e11b1790525b60006060876001600160a01b0316836040518082805190602001908083835b60208310612bb35780518252601f199092019160209182019101612b94565b6001836020036101000a0380198251168184511680821785525050505050509050019150506000604051808303816000865af19150503d8060008114612c15576040519150601f19603f3d011682016040523d82523d6000602084013e612c1a565b606091505b5091509150818190612c6d5760405162461bcd60e51b81526020600482018181528351602484015283519092839260449091019190850190808383600083156118af578181015183820152602001611897565b50612c7661341d565b5050505050505050565b6060818060200190516020811015612c9757600080fd5b8101908080516040519392919084600160201b821115612cb657600080fd5b908301906020820185811115612ccb57600080fd5b82518660208202830111600160201b82111715612ce757600080fd5b82525081516020918201928201910280838360005b83811015612d14578181015183820152602001612cfc565b505050509050016040525050509050919050565b60006060856001600160a01b0316612d4186868661346a565b6040518082805190602001908083835b60208310612d705780518252601f199092019160209182019101612d51565b6001836020036101000a0380198251168184511680821785525050505050509050019150506000604051808303816000865af19150503d8060008114612dd2576040519150601f19603f3d011682016040523d82523d6000602084013e612dd7565b606091505b5091509150818190612e2a5760405162461bcd60e51b81526020600482018181528351602484015283519092839260449091019190850190808383600083156118af578181015183820152602001611897565b50611c1d61341d565b7f00000000000000000000000000000000000000000000000000000000000000006001600160a01b0316151590565b816001600160a01b03166384e9bd7e826040518263ffffffff1660e01b815260040180826001600160a01b03168152602001915050600060405180830381600087803b158015611c0957600080fd5b6060806000805b8551811015612eec576000868281518110612ecf57fe5b60200260200101511115612ee4576001909101905b600101612eb8565b508067ffffffffffffffff81118015612f0457600080fd5b50604051908082528060200260200182016040528015612f2e578160200160208202803683370190505b5092508067ffffffffffffffff81118015612f4857600080fd5b50604051908082528060200260200182016040528015612f72578160200160208202803683370190505b5091506000805b865181101561301b576000878281518110612f9057fe5b6020026020010151111561301357612fa988828861357d565b858381518110612fb557fe5b60200260200101906001600160a01b031690816001600160a01b031681525050868181518110612fe157fe5b6020026020010151848381518110612ff557fe5b6020908102919091010152600190910190828214156130135761301b565b600101612f79565b505050935093915050565b816001600160a01b03167f00000000000000000000000000000000000000000000000000000000000000006001600160a01b0316636a2175c0836040518263ffffffff1660e01b815260040180826001600160a01b0316815260200191505060206040518083038186803b15801561309d57600080fd5b505afa1580156130b1573d6000803e3d6000fd5b505050506040513d60208110156130c757600080fd5b50516001600160a01b031614611e45576040805162461bcd60e51b815260206004820152601860248201527f5f5f76616c696461746547617567653a20496e76616c69640000000000000000604482015290519081900360640190fd5b606080600184600181111561313557fe5b14156131db5760008061314785612a9e565b6040805160018082528183019092529294509092506020808301908036833701905050935061317788838961357d565b8460008151811061318457fe5b6001600160a01b039290921660209283029190910182015260408051600180825281830190925291828101908036833701905050925080836000815181106131c857fe5b6020026020010181815250505050613270565b6131e483612c80565b9050805167ffffffffffffffff811180156131fe57600080fd5b50604051908082528060200260200182016040528015613228578160200160208202803683370190505b50915060005b825181101561326e5761324287828861357d565b83828151811061324e57fe5b6001600160a01b039092166020928302919091019091015260010161322e565b505b94509492505050565b612a99613285846133c8565b838361376f565b6000606082156132b457506040805180820190915260058152640b189bdbdb60da1b60208201525b6132bd84613882565b816040516020018080756164645f6c69717569646974792875696e743235365b60501b81525060160183805190602001908083835b602083106133115780518252601f1990920191602091820191016132f2565b51815160209384036101000a600019018019909216911617905261174b60f21b91909301908152663ab4b73a191a9b60c91b60028201528451600990910192850191508083835b602083106133775780518252601f199092019160209182019101613358565b6001836020036101000a03801982511681845116808217855250505050505090500180602960f81b815250600101925050506040516020818303038152906040528051906020012091505092915050565b90565b604080516001600160a01b038416602482015260448082018490528251808303909101815260649091019091526020810180516001600160e01b031663a9059cbb60e01b179052612a9990849061395d565b303180156134675761342d610a5b565b6001600160a01b031663d0e30db0826040518263ffffffff1660e01b81526004016000604051808303818588803b158015611c0957600080fd5b50565b60608082156134945750604080516001602080830191909152825180830390910181529082019091525b61349f845184613a0e565b858560405160200180828051906020019060200280838360005b838110156134d15781810151838201526020016134b9565b505050509050019150506040516020818303038152906040528360405160200180856001600160e01b031916815260040184815260200183805190602001908083835b602083106135335780518252601f199092019160209182019101613514565b51815160001960209485036101000a0190811690199190911617905285519390910192908501915080838360208310612a445780518252601f199092019160209182019101612a25565b6000811561367457836001600160a01b031663b9947eb0846040518263ffffffff1660e01b81526004018082815260200191505060206040518083038186803b1580156135c957600080fd5b505afa9250505080156135ee57506040513d60208110156135e957600080fd5b505160015b61366c57836001600160a01b031663b739953e846040518263ffffffff1660e01b81526004018082600f0b815260200191505060206040518083038186803b15801561363957600080fd5b505afa15801561364d573d6000803e3d6000fd5b505050506040513d602081101561366357600080fd5b5051905061366f565b90505b61375e565b836001600160a01b031663c6610657846040518263ffffffff1660e01b81526004018082815260200191505060206040518083038186803b1580156136b857600080fd5b505afa9250505080156136dd57506040513d60208110156136d857600080fd5b505160015b61375b57836001600160a01b03166323746eb8846040518263ffffffff1660e01b81526004018082600f0b815260200191505060206040518083038186803b15801561372857600080fd5b505afa15801561373c573d6000803e3d6000fd5b505050506040513d602081101561375257600080fd5b5051905061375e565b90505b61376781613b02565b949350505050565b8015806137f5575060408051636eb1769f60e11b81523060048201526001600160a01b03848116602483015291519185169163dd62ed3e91604480820192602092909190829003018186803b1580156137c757600080fd5b505afa1580156137db573d6000803e3d6000fd5b505050506040513d60208110156137f157600080fd5b5051155b6138305760405162461bcd60e51b8152600401808060200182810382526036815260200180613d406036913960400191505060405180910390fd5b604080516001600160a01b038416602482015260448082018490528251808303909101815260649091019091526020810180516001600160e01b031663095ea7b360e01b179052612a9990849061395d565b6060816138a757506040805180820190915260018152600360fc1b6020820152611d90565b8160005b81156138bf57600101600a820491506138ab565b60608167ffffffffffffffff811180156138d857600080fd5b506040519080825280601f01601f191660200182016040528015613903576020820181803683370190505b50859350905060001982015b831561395457600a840660300160f81b8282806001900393508151811061393257fe5b60200101906001600160f81b031916908160001a905350600a8404935061390f565b50949350505050565b60606139b2826040518060400160405280602081526020017f5361666545524332303a206c6f772d6c6576656c2063616c6c206661696c6564815250856001600160a01b0316613b519092919063ffffffff16565b805190915015612a99578080602001905160208110156139d157600080fd5b5051612a995760405162461bcd60e51b815260040180806020018281038252602a815260200180613d16602a913960400191505060405180910390fd5b600060608215613a3657506040805180820190915260058152640b189bdbdb60da1b60208201525b613a3f84613882565b6040517f72656d6f76655f6c69717569646974792875696e743235362c0000000000000060208083019182526775696e743235365b60c01b603984015283518593604101918501908083835b60208310613aaa5780518252601f199092019160209182019101613a8b565b6001836020036101000a03801982511681845116808217855250505050505090500180605d60f81b8152506001018280519060200190808383602083106133775780518252601f199092019160209182019101613358565b60007f00000000000000000000000000000000000000000000000000000000000000006001600160a01b0316826001600160a01b03161415613b4d57613b46610a5b565b9050611d90565b5090565b6060613767848460008585613b6585613c77565b613bb6576040805162461bcd60e51b815260206004820152601d60248201527f416464726573733a2063616c6c20746f206e6f6e2d636f6e7472616374000000604482015290519081900360640190fd5b60006060866001600160a01b031685876040518082805190602001908083835b60208310613bf55780518252601f199092019160209182019101613bd6565b6001836020036101000a03801982511681845116808217855250505050505090500191505060006040518083038185875af1925050503d8060008114613c57576040519150601f19603f3d011682016040523d82523d6000602084013e613c5c565b606091505b5091509150613c6c828286613c7d565b979650505050505050565b3b151590565b60608315613c8c575081612a7f565b825115613c9c5782518084602001fd5b60405162461bcd60e51b81526020600482018181528451602484015284518593919283926044019190850190808383600083156118af57818101518382015260200161189756fe4f6e6c792074686520496e746567726174696f6e4d616e616765722063616e2063616c6c20746869732066756e6374696f6e5361666545524332303a204552433230206f7065726174696f6e20646964206e6f7420737563636565645361666545524332303a20617070726f76652066726f6d206e6f6e2d7a65726f20746f206e6f6e2d7a65726f20616c6c6f77616e63657061727365417373657473466f72416374696f6e3a205f73656c6563746f7220696e76616c6964a164736f6c634300060c000a","linkReferences":{}},"methodIdentifiers":{"claimRewards(address,bytes,bytes)":"b9dfbacc","getCurveGaugeV2RewardsHandlerCrvToken()":"332d709f","getCurveGaugeV2RewardsHandlerMinter()":"f003eb85","getCurveLiquidityWrappedNativeAsset()":"12c9d386","getIntegrationManager()":"e7c45690","lend(address,bytes,bytes)":"099f7515","lendAndStake(address,bytes,bytes)":"29fa046e","parseAssetsForAction(address,bytes4,bytes)":"c54efee5","redeem(address,bytes,bytes)":"c29fa9dd","stake(address,bytes,bytes)":"fa7dd04d","unstake(address,bytes,bytes)":"68e30677","unstakeAndRedeem(address,bytes,bytes)":"8334eb99"},"id":187}