{"abi":[{"type":"constructor","inputs":[{"name":"_fundDeployer","type":"address","internalType":"address"},{"name":"_addressProvider","type":"address","internalType":"address"},{"name":"_poolOwner","type":"address","internalType":"address"},{"name":"_virtualPriceDeviationThreshold","type":"uint256","internalType":"uint256"}],"stateMutability":"nonpayable"},{"type":"function","name":"addGaugeTokens","inputs":[{"name":"_gaugeTokens","type":"address[]","internalType":"address[]"},{"name":"_pools","type":"address[]","internalType":"address[]"}],"outputs":[],"stateMutability":"nonpayable"},{"type":"function","name":"addGaugeTokensWithoutValidation","inputs":[{"name":"_gaugeTokens","type":"address[]","internalType":"address[]"},{"name":"_pools","type":"address[]","internalType":"address[]"}],"outputs":[],"stateMutability":"nonpayable"},{"type":"function","name":"addPools","inputs":[{"name":"_pools","type":"address[]","internalType":"address[]"},{"name":"_invariantProxyAssets","type":"address[]","internalType":"address[]"},{"name":"_reentrantVirtualPrices","type":"bool[]","internalType":"bool[]"},{"name":"_lpTokens","type":"address[]","internalType":"address[]"},{"name":"_gaugeTokens","type":"address[]","internalType":"address[]"}],"outputs":[],"stateMutability":"nonpayable"},{"type":"function","name":"addPoolsWithoutValidation","inputs":[{"name":"_pools","type":"address[]","internalType":"address[]"},{"name":"_invariantProxyAssets","type":"address[]","internalType":"address[]"},{"name":"_reentrantVirtualPrices","type":"bool[]","internalType":"bool[]"},{"name":"_lpTokens","type":"address[]","internalType":"address[]"},{"name":"_gaugeTokens","type":"address[]","internalType":"address[]"}],"outputs":[],"stateMutability":"nonpayable"},{"type":"function","name":"calcUnderlyingValues","inputs":[{"name":"_derivative","type":"address","internalType":"address"},{"name":"_derivativeAmount","type":"uint256","internalType":"uint256"}],"outputs":[{"name":"underlyings_","type":"address[]","internalType":"address[]"},{"name":"underlyingAmounts_","type":"uint256[]","internalType":"uint256[]"}],"stateMutability":"nonpayable"},{"type":"function","name":"getCurvePoolOwner","inputs":[],"outputs":[{"name":"poolOwner_","type":"address","internalType":"address"}],"stateMutability":"view"},{"type":"function","name":"getFundDeployer","inputs":[],"outputs":[{"name":"fundDeployer_","type":"address","internalType":"address"}],"stateMutability":"view"},{"type":"function","name":"getLpTokenForPool","inputs":[{"name":"_pool","type":"address","internalType":"address"}],"outputs":[{"name":"lpToken_","type":"address","internalType":"address"}],"stateMutability":"view"},{"type":"function","name":"getOwner","inputs":[],"outputs":[{"name":"owner_","type":"address","internalType":"address"}],"stateMutability":"view"},{"type":"function","name":"getPoolForDerivative","inputs":[{"name":"_derivative","type":"address","internalType":"address"}],"outputs":[{"name":"pool_","type":"address","internalType":"address"}],"stateMutability":"view"},{"type":"function","name":"getPoolInfo","inputs":[{"name":"_pool","type":"address","internalType":"address"}],"outputs":[{"name":"poolInfo_","type":"tuple","internalType":"struct ICurvePriceFeed.PoolInfo","components":[{"name":"invariantProxyAsset","type":"address","internalType":"address"},{"name":"invariantProxyAssetDecimals","type":"uint8","internalType":"uint8"},{"name":"lastValidatedVirtualPrice","type":"uint88","internalType":"uint88"}]}],"stateMutability":"view"},{"type":"function","name":"isSupportedAsset","inputs":[{"name":"_asset","type":"address","internalType":"address"}],"outputs":[{"name":"isSupported_","type":"bool","internalType":"bool"}],"stateMutability":"view"},{"type":"function","name":"removeDerivatives","inputs":[{"name":"_derivatives","type":"address[]","internalType":"address[]"}],"outputs":[],"stateMutability":"nonpayable"},{"type":"function","name":"removePools","inputs":[{"name":"_pools","type":"address[]","internalType":"address[]"}],"outputs":[],"stateMutability":"nonpayable"},{"type":"function","name":"setCurvePoolOwner","inputs":[{"name":"_nextPoolOwner","type":"address","internalType":"address"}],"outputs":[],"stateMutability":"nonpayable"},{"type":"function","name":"updatePoolInfo","inputs":[{"name":"_pools","type":"address[]","internalType":"address[]"},{"name":"_invariantProxyAssets","type":"address[]","internalType":"address[]"},{"name":"_reentrantVirtualPrices","type":"bool[]","internalType":"bool[]"}],"outputs":[],"stateMutability":"nonpayable"},{"type":"event","name":"CurvePoolOwnerSet","inputs":[{"name":"poolOwner","type":"address","indexed":false,"internalType":"address"}],"anonymous":false},{"type":"event","name":"DerivativeAdded","inputs":[{"name":"derivative","type":"address","indexed":true,"internalType":"address"},{"name":"pool","type":"address","indexed":true,"internalType":"address"}],"anonymous":false},{"type":"event","name":"DerivativeRemoved","inputs":[{"name":"derivative","type":"address","indexed":true,"internalType":"address"}],"anonymous":false},{"type":"event","name":"InvariantProxyAssetForPoolSet","inputs":[{"name":"pool","type":"address","indexed":true,"internalType":"address"},{"name":"invariantProxyAsset","type":"address","indexed":true,"internalType":"address"}],"anonymous":false},{"type":"event","name":"PoolRemoved","inputs":[{"name":"pool","type":"address","indexed":true,"internalType":"address"}],"anonymous":false},{"type":"event","name":"ValidatedVirtualPriceForPoolUpdated","inputs":[{"name":"pool","type":"address","indexed":true,"internalType":"address"},{"name":"virtualPrice","type":"uint256","indexed":false,"internalType":"uint256"}],"anonymous":false}],"bytecode":{"object":"0x60e06040523480156200001157600080fd5b50604051620025b0380380620025b08339810160408190526200003491620000de565b6001600160601b0319606085811b821660805284901b1660a05260c08190526200005e8262000068565b5050505062000146565b600080546001600160a01b0319166001600160a01b0383161790556040517f285938205335d4bea92402795be7d763d8fdcf6b363506d1e419f026c37f44bd90620000b590839062000132565b60405180910390a150565b80516001600160a01b0381168114620000d857600080fd5b92915050565b60008060008060808587031215620000f4578384fd5b620001008686620000c0565b9350620001118660208701620000c0565b9250620001228660408701620000c0565b6060959095015193969295505050565b6001600160a01b0391909116815260200190565b60805160601c60a05160601c60c05161242d62000183600039806114bc525080610ece5280610f3f525080610bc65280610d49525061242d6000f3fe608060405234801561001057600080fd5b50600436106101005760003560e01c8063727212f6116100975780639be918e6116100665780639be918e614610206578063bb5c7b1514610226578063f044506b1461022e578063f6d959c31461024157610100565b8063727212f6146101c2578063893d20e8146101e35780638f72b136146101eb57806397c0ac87146101fe57610100565b80634b164140116100d35780634b1641401461017657806351e7d01f14610189578063540eaddc1461019c5780636a2175c0146101af57610100565b80630254f0541461010557806305ecc2d41461011a57806306bfa9381461012d5780631f5bce5514610156575b600080fd5b610118610113366004611d2f565b610254565b005b610118610128366004611aae565b6105cc565b61014061013b366004611aae565b610610565b60405161014d9190612388565b60405180910390f35b610169610164366004611aae565b61066e565b60405161014d9190611e88565b610118610184366004611bf0565b61068c565b610118610197366004611c30565b6107c0565b6101186101aa366004611d2f565b61093c565b6101696101bd366004611aae565b610992565b6101d56101d0366004611ae6565b6109b0565b60405161014d929190611e9c565b610169610bc2565b6101186101f9366004611bf0565b610c5a565b610169610d47565b610219610214366004611aae565b610d6b565b60405161014d9190611f2a565b610169610d88565b61011861023c366004611c99565b610d97565b61011861024f366004611c30565b610e80565b61025c610bc2565b6001600160a01b0316336001600160a01b0316146102955760405162461bcd60e51b815260040161028c90611f87565b60405180910390fd5b600061029f610eca565b905060006102ab610f25565b905060005b8b8110156105ab57826001600160a01b031663379510498e8e848181106102d357fe5b90506020020160208101906102e89190611aae565b6040518263ffffffff1660e01b81526004016103049190611e88565b60206040518083038186803b15801561031c57600080fd5b505afa158015610330573d6000803e3d6000fd5b505050506040513d601f19601f820116820180604052508101906103549190611aca565b6001600160a01b031687878381811061036957fe5b905060200201602081019061037e9190611aae565b6001600160a01b0316141561040e57600085858381811061039b57fe5b90506020020160208101906103b09190611aae565b6001600160a01b031614610409576104098585838181106103cd57fe5b90506020020160208101906103e29190611aae565b8e8e848181106103ee57fe5b90506020020160208101906104039190611aae565b85610f8d565b6105a3565b8c8c8281811061041a57fe5b905060200201602081019061042f9190611aae565b6001600160a01b031687878381811061044457fe5b90506020020160208101906104599190611aae565b6001600160a01b031614801561050a57506000826001600160a01b031663940494f18f8f8581811061048757fe5b905060200201602081019061049c9190611aae565b6040518263ffffffff1660e01b81526004016104b89190611e88565b60206040518083038186803b1580156104d057600080fd5b505afa1580156104e4573d6000803e3d6000fd5b505050506040513d601f19601f820116820180604052508101906105089190611e3a565b115b1561058b57600085858381811061051d57fe5b90506020020160208101906105329190611aae565b6001600160a01b0316146104095761040985858381811061054f57fe5b90506020020160208101906105649190611aae565b8e8e8481811061057057fe5b90506020020160208101906105859190611aae565b84611073565b60405162461bcd60e51b815260040161028c906122d5565b6001016102b0565b506105be8c8c8c8c8c8c8c8c8c8c61111f565b505050505050505050505050565b6105d4610bc2565b6001600160a01b0316336001600160a01b0316146106045760405162461bcd60e51b815260040161028c90611f87565b61060d81611390565b50565b610618611a10565b506001600160a01b03908116600090815260026020908152604091829020825160608101845290549384168152600160a01b840460ff1691810191909152600160a81b9092046001600160581b03169082015290565b6001600160a01b039081166000908152600360205260409020541690565b610694610bc2565b6001600160a01b0316336001600160a01b0316146106c45760405162461bcd60e51b815260040161028c90611f87565b60005b818110156107bb57600260008484848181106106df57fe5b90506020020160208101906106f49190611aae565b6001600160a01b031681526020810191909152604001600090812081905560039084848481811061072157fe5b90506020020160208101906107369190611aae565b6001600160a01b03168152602081019190915260400160002080546001600160a01b031916905582828281811061076957fe5b905060200201602081019061077e9190611aae565b6001600160a01b03167f4106dfdaa577573db51c0ca93f766dbedfa0758faa2e7f5bcdb7c142be803c3f60405160405180910390a26001016106c7565b505050565b6107c8610bc2565b6001600160a01b0316336001600160a01b0316146107f85760405162461bcd60e51b815260040161028c90611f87565b6000610802610eca565b9050600061080e610f25565b905060005b858110156109275786868281811061082757fe5b905060200201602081019061083c9190611aae565b6001600160a01b0316826001600160a01b031663daf297b987878581811061086057fe5b90506020020160208101906108759190611aae565b6040518263ffffffff1660e01b81526004016108919190611e88565b60206040518083038186803b1580156108a957600080fd5b505afa1580156108bd573d6000803e3d6000fd5b505050506040513d601f19601f820116820180604052508101906108e19190611aca565b6001600160a01b03161461091f5761091f8787838181106108fe57fe5b90506020020160208101906109139190611aae565b8686848181106103ee57fe5b600101610813565b50610934868686866113e6565b505050505050565b610944610bc2565b6001600160a01b0316336001600160a01b0316146109745760405162461bcd60e51b815260040161028c90611f87565b6109868a8a8a8a8a8a8a8a8a8a61111f565b50505050505050505050565b6001600160a01b039081166000908152600160205260409020541690565b60608060006109be85610992565b90506001600160a01b0381166109e65760405162461bcd60e51b815260040161028c90611f35565b6109ee611a10565b6109f782610610565b90506000826001600160a01b031663bb7b8b806040518163ffffffff1660e01b815260040160206040518083038186803b158015610a3457600080fd5b505afa158015610a48573d6000803e3d6000fd5b505050506040513d601f19601f82011682018060405250810190610a6c9190611e3a565b9050600082604001516001600160581b0316118015610a9d5750610a9d8183604001516001600160581b0316611487565b15610aac57610aac83826114ea565b6040805160018082528183019092529060208083019080368337019050509450816000015185600081518110610ade57fe5b6001600160a01b0392909216602092830291909101820152604080516001808252818301909252918281019080368337019050509350816020015160ff1660121415610b5e57610b40670de0b6b3a7640000610b3a8884611565565b906115a6565b84600081518110610b4d57fe5b602002602001018181525050610bb7565b610b9d670de0b6b3a7640000610b3a670de0b6b3a7640000610b3a866020015160ff16600a0a610b97878d61156590919063ffffffff16565b90611565565b84600081518110610baa57fe5b6020026020010181815250505b5050505b9250929050565b60007f00000000000000000000000000000000000000000000000000000000000000006001600160a01b031663893d20e86040518163ffffffff1660e01b815260040160206040518083038186803b158015610c1d57600080fd5b505afa158015610c31573d6000803e3d6000fd5b505050506040513d601f19601f82011682018060405250810190610c559190611aca565b905090565b610c62610bc2565b6001600160a01b0316336001600160a01b031614610c925760405162461bcd60e51b815260040161028c90611f87565b60005b818110156107bb5760016000848484818110610cad57fe5b9050602002016020810190610cc29190611aae565b6001600160a01b03168152602081019190915260400160002080546001600160a01b0319169055828282818110610cf557fe5b9050602002016020810190610d0a9190611aae565b6001600160a01b03167fc15eb25d807b570f4567baf6e97c7b26d58a7d0512dc85e8db15375a056b860460405160405180910390a2600101610c95565b7f000000000000000000000000000000000000000000000000000000000000000090565b600080610d7783610992565b6001600160a01b0316141592915050565b6000546001600160a01b031690565b610d9f610bc2565b6001600160a01b0316336001600160a01b031614610dcf5760405162461bcd60e51b815260040161028c90611f87565b8483148015610ddd57508481145b610df95760405162461bcd60e51b815260040161028c9061230c565b60005b85811015610e7757610e6f878783818110610e1357fe5b9050602002016020810190610e289190611aae565b868684818110610e3457fe5b9050602002016020810190610e499190611aae565b858585818110610e5557fe5b9050602002016020810190610e6a9190611e1a565b6115d8565b600101610dfc565b50505050505050565b610e88610bc2565b6001600160a01b0316336001600160a01b031614610eb85760405162461bcd60e51b815260040161028c90611f87565b610ec4848484846113e6565b50505050565b60007f00000000000000000000000000000000000000000000000000000000000000006001600160a01b031663a262904b6040518163ffffffff1660e01b815260040160206040518083038186803b158015610c1d57600080fd5b60405163124fd3dd60e21b81526000906001600160a01b037f0000000000000000000000000000000000000000000000000000000000000000169063493f4f7490610f75906003906004016123be565b60206040518083038186803b158015610c1d57600080fd5b610f95611a30565b6040516356059ffb60e01b81526001600160a01b038316906356059ffb90610fc1908690600401611e88565b6102806040518083038186803b158015610fda57600080fd5b505afa158015610fee573d6000803e3d6000fd5b505050506040513d601f19601f820116820180604052508101906110129190611b11565b50905060005b600a81101561105a578181600a811061102d57fe5b60200201516001600160a01b0316856001600160a01b031614156110525750506107bb565b600101611018565b5060405162461bcd60e51b815260040161028c906121ff565b60405163daf297b960e01b81526001600160a01b0382169063daf297b99061109f908590600401611e88565b60206040518083038186803b1580156110b757600080fd5b505afa1580156110cb573d6000803e3d6000fd5b505050506040513d601f19601f820116820180604052508101906110ef9190611aca565b6001600160a01b0316836001600160a01b0316146107bb5760405162461bcd60e51b815260040161028c90612249565b888714801561112d57508885145b801561113857508883145b801561114357508881145b61115f5760405162461bcd60e51b815260040161028c90611ff6565b60005b8981101561138357600085858381811061117857fe5b905060200201602081019061118d9190611aae565b6001600160a01b031614156111b45760405162461bcd60e51b815260040161028c906121c8565b60006111da8c8c848181106111c557fe5b90506020020160208101906101649190611aae565b6001600160a01b0316146112005760405162461bcd60e51b815260040161028c90612119565b6112298b8b8381811061120f57fe5b90506020020160208101906112249190611aae565b6117dc565b61127a8b8b8381811061123857fe5b905060200201602081019061124d9190611aae565b8a8a8481811061125957fe5b905060200201602081019061126e9190611aae565b898985818110610e5557fe5b84848281811061128657fe5b905060200201602081019061129b9190611aae565b600360008d8d858181106112ab57fe5b90506020020160208101906112c09190611aae565b6001600160a01b039081168252602082019290925260400160002080546001600160a01b0319169290911691909117905561133b85858381811061130057fe5b90506020020160208101906113159190611aae565b8c8c8481811061132157fe5b90506020020160208101906113369190611aae565b61186c565b600083838381811061134957fe5b905060200201602081019061135e9190611aae565b6001600160a01b03161461137b5761137b83838381811061130057fe5b600101611162565b5050505050505050505050565b600080546001600160a01b0319166001600160a01b0383161790556040517f285938205335d4bea92402795be7d763d8fdcf6b363506d1e419f026c37f44bd906113db908390611e88565b60405180910390a150565b8281146114055760405162461bcd60e51b815260040161028c90612064565b60005b838110156114805760006114218484848181106111c557fe5b6001600160a01b031614156114485760405162461bcd60e51b815260040161028c90612343565b61147885858381811061145757fe5b905060200201602081019061146c9190611aae565b84848481811061132157fe5b600101611408565b5050505050565b600080828411156114a35761149c8484611987565b90506114b0565b6114ad8385611987565b90505b6114e0612710610b3a857f0000000000000000000000000000000000000000000000000000000000000000611565565b1090505b92915050565b6114f3826119af565b6001600160a01b0382166000818152600260205260409081902080546001600160a81b0316600160a81b6001600160581b03861602179055517fe4e8751d7ee9680c15b1a348b174e860467c86da7f4da037714ff62621947fb5906115599084906123be565b60405180910390a25050565b600082611574575060006114e4565b8282028284828161158157fe5b041461159f5760405162461bcd60e51b815260040161028c90612150565b9392505050565b60008082116115c75760405162461bcd60e51b815260040161028c90612099565b8183816115d057fe5b049392505050565b6000811561169e576115e9846119af565b836001600160a01b031663bb7b8b806040518163ffffffff1660e01b815260040160206040518083038186803b15801561162257600080fd5b505afa158015611636573d6000803e3d6000fd5b505050506040513d601f19601f8201168201806040525081019061165a9190611e3a565b9050836001600160a01b03167fe4e8751d7ee9680c15b1a348b174e860467c86da7f4da037714ff62621947fb58260405161169591906123be565b60405180910390a25b6040518060600160405280846001600160a01b03168152602001846001600160a01b031663313ce5676040518163ffffffff1660e01b815260040160206040518083038186803b1580156116f157600080fd5b505afa158015611705573d6000803e3d6000fd5b505050506040513d601f19601f820116820180604052508101906117299190611e52565b60ff90811682526001600160581b038481166020938401526001600160a01b03888116600081815260028652604080822088518154988a0151998301516001600160a01b03199099169086161760ff60a01b1916600160a01b9990971698909802959095176001600160a81b0316600160a81b96909416959095029290921790945590519286169290917fd748ce6086753f34f4a44a74c6e4ca397bcb452a0ce8389ba826794b0bd77dc391a350505050565b6000816001600160a01b031663bb7b8b806040518163ffffffff1660e01b815260040160206040518083038186803b15801561181757600080fd5b505afa15801561182b573d6000803e3d6000fd5b505050506040513d601f19601f8201168201806040525081019061184f9190611e3a565b1161060d5760405162461bcd60e51b815260040161028c906120d0565b600061187783610992565b6001600160a01b03161461189d5760405162461bcd60e51b815260040161028c9061229e565b816001600160a01b031663313ce5676040518163ffffffff1660e01b815260040160206040518083038186803b1580156118d657600080fd5b505afa1580156118ea573d6000803e3d6000fd5b505050506040513d601f19601f8201168201806040525081019061190e9190611e52565b60ff166012146119305760405162461bcd60e51b815260040161028c90612191565b6001600160a01b0382811660008181526001602052604080822080546001600160a01b0319169486169485179055517faa4ae250fb435bb4b31ed0b95822bc179fc6c5dd0c727c3ffe08d444025efd989190a35050565b6000828211156119a95760405162461bcd60e51b815260040161028c9061202d565b50900390565b6119b7610d88565b6001600160a01b031663e4e67c0f826040518263ffffffff1660e01b81526004016119e29190611e88565b600060405180830381600087803b1580156119fc57600080fd5b505af1158015611480573d6000803e3d6000fd5b604080516060810182526000808252602082018190529181019190915290565b604051806101400160405280600a906020820280368337509192915050565b80516114e48161240b565b60008083601f840112611a6b578081fd5b50813567ffffffffffffffff811115611a82578182fd5b6020830191508360208083028501011115610bbb57600080fd5b8051600f81900b81146114e457600080fd5b600060208284031215611abf578081fd5b813561159f8161240b565b600060208284031215611adb578081fd5b815161159f8161240b565b60008060408385031215611af8578081fd5b8235611b038161240b565b946020939093013593505050565b600080610280808486031215611b25578283fd5b84601f850112611b33578283fd5b600a611b46611b41826123ee565b6123c7565b8086610140880189811115611b59578788fd5b875b85811015611b8257611b6d8b84611a4f565b85526020948501949290920191600101611b5b565b508297508961015f8a0112611b95578687fd5b611ba1611b41866123ee565b93508392509050878501891015611bb6578586fd5b8594505b83851015611be157611bcc8982611a9c565b83526001949094019360209283019201611bba565b50809450505050509250929050565b60008060208385031215611c02578182fd5b823567ffffffffffffffff811115611c18578283fd5b611c2485828601611a5a565b90969095509350505050565b60008060008060408587031215611c45578182fd5b843567ffffffffffffffff80821115611c5c578384fd5b611c6888838901611a5a565b90965094506020870135915080821115611c80578384fd5b50611c8d87828801611a5a565b95989497509550505050565b60008060008060008060608789031215611cb1578182fd5b863567ffffffffffffffff80821115611cc8578384fd5b611cd48a838b01611a5a565b90985096506020890135915080821115611cec578384fd5b611cf88a838b01611a5a565b90965094506040890135915080821115611d10578384fd5b50611d1d89828a01611a5a565b979a9699509497509295939492505050565b60008060008060008060008060008060a08b8d031215611d4d578384fd5b8a3567ffffffffffffffff80821115611d64578586fd5b611d708e838f01611a5a565b909c509a5060208d0135915080821115611d88578586fd5b611d948e838f01611a5a565b909a50985060408d0135915080821115611dac578586fd5b611db88e838f01611a5a565b909850965060608d0135915080821115611dd0578586fd5b611ddc8e838f01611a5a565b909650945060808d0135915080821115611df4578384fd5b50611e018d828e01611a5a565b915080935050809150509295989b9194979a5092959850565b600060208284031215611e2b578081fd5b8135801515811461159f578182fd5b600060208284031215611e4b578081fd5b5051919050565b600060208284031215611e63578081fd5b815160ff8116811461159f578182fd5b815260200190565b6001600160a01b03169052565b6001600160a01b0391909116815260200190565b604080825283519082018190526000906020906060840190828701845b82811015611edc57611ecc848351611e7b565b9284019290840190600101611eb9565b50505083810382850152808551611ef381846123be565b91508387019250845b81811015611f1d57611f0f838551611e73565b938501939250600101611efc565b5090979650505050505050565b901515815260200190565b60208082526032908201527f63616c63556e6465726c79696e6756616c7565733a205f64657269766174697660408201527119481a5cc81b9bdd081cdd5c1c1bdc9d195960721b606082015260800190565b60208082526049908201527f6f6e6c7946756e644465706c6f7965724f776e65723a204f6e6c79207468652060408201527f46756e644465706c6f796572206f776e65722063616e2063616c6c207468697360608201526810333ab731ba34b7b760b91b608082015260a00190565b6020808252601a908201527f5f5f616464506f6f6c733a20556e657175616c20617272617973000000000000604082015260600190565b6020808252601e908201527f536166654d6174683a207375627472616374696f6e206f766572666c6f770000604082015260600190565b6020808252818101527f5f5f6164644761756765546f6b656e733a20556e657175616c20617272617973604082015260600190565b6020808252601a908201527f536166654d6174683a206469766973696f6e206279207a65726f000000000000604082015260600190565b60208082526029908201527f5f5f76616c6964617465506f6f6c436f6d7061746962696c6974793a20496e636040820152686f6d70617469626c6560b81b606082015260800190565b6020808252601e908201527f5f5f616464506f6f6c733a20416c726561647920726567697374657265640000604082015260600190565b60208082526021908201527f536166654d6174683a206d756c7469706c69636174696f6e206f766572666c6f6040820152607760f81b606082015260800190565b6020808252601f908201527f5f5f616464446572697661746976653a204e6f742031382d646563696d616c00604082015260600190565b60208082526019908201527f5f5f616464506f6f6c733a20456d707479206c70546f6b656e00000000000000604082015260600190565b6020808252602a908201527f5f5f76616c696461746547617567654d61696e52656769737472793a20496e76604082015269616c696420676175676560b01b606082015260800190565b60208082526035908201527f5f5f76616c696461746547617567654d657461706f6f6c466163746f727952656040820152746769737472793a20496e76616c696420676175676560581b606082015260800190565b6020808252601f908201527f5f5f616464446572697661746976653a20416c72656164792065786973747300604082015260600190565b60208082526018908201527f616464506f6f6c733a20496e76616c696420696e707574730000000000000000604082015260600190565b6020808252601e908201527f757064617465506f6f6c496e666f3a20556e657175616c206172726179730000604082015260600190565b60208082526025908201527f5f5f6164644761756765546f6b656e733a20506f6f6c206e6f742072656769736040820152641d195c995960da1b606082015260800190565b81516001600160a01b0316815260208083015160ff16908201526040918201516001600160581b03169181019190915260600190565b90815260200190565b60405181810167ffffffffffffffff811182821017156123e657600080fd5b604052919050565b600067ffffffffffffffff821115612404578081fd5b5060200290565b6001600160a01b038116811461060d57600080fdfea164736f6c634300060c000a","linkReferences":{}},"methodIdentifiers":{"addGaugeTokens(address[],address[])":"51e7d01f","addGaugeTokensWithoutValidation(address[],address[])":"f6d959c3","addPools(address[],address[],bool[],address[],address[])":"0254f054","addPoolsWithoutValidation(address[],address[],bool[],address[],address[])":"540eaddc","calcUnderlyingValues(address,uint256)":"727212f6","getCurvePoolOwner()":"bb5c7b15","getFundDeployer()":"97c0ac87","getLpTokenForPool(address)":"1f5bce55","getOwner()":"893d20e8","getPoolForDerivative(address)":"6a2175c0","getPoolInfo(address)":"06bfa938","isSupportedAsset(address)":"9be918e6","removeDerivatives(address[])":"8f72b136","removePools(address[])":"4b164140","setCurvePoolOwner(address)":"05ecc2d4","updatePoolInfo(address[],address[],bool[])":"f044506b"},"id":238}