{"abi":[{"type":"constructor","inputs":[{"name":"_policyManager","type":"address","internalType":"address"}],"stateMutability":"nonpayable"},{"type":"function","name":"activateForFund","inputs":[{"name":"","type":"address","internalType":"address"}],"outputs":[],"stateMutability":"nonpayable"},{"type":"function","name":"addFundSettings","inputs":[{"name":"_comptrollerProxy","type":"address","internalType":"address"},{"name":"_encodedSettings","type":"bytes","internalType":"bytes"}],"outputs":[],"stateMutability":"nonpayable"},{"type":"function","name":"canDisable","inputs":[],"outputs":[{"name":"canDisable_","type":"bool","internalType":"bool"}],"stateMutability":"pure"},{"type":"function","name":"getFundSettings","inputs":[{"name":"_comptrollerProxy","type":"address","internalType":"address"}],"outputs":[{"name":"fundSettings_","type":"tuple","internalType":"struct IMinMaxInvestmentPolicy.FundSettings","components":[{"name":"minInvestmentAmount","type":"uint256","internalType":"uint256"},{"name":"maxInvestmentAmount","type":"uint256","internalType":"uint256"}]}],"stateMutability":"view"},{"type":"function","name":"getPolicyManager","inputs":[],"outputs":[{"name":"policyManager_","type":"address","internalType":"address"}],"stateMutability":"view"},{"type":"function","name":"identifier","inputs":[],"outputs":[{"name":"identifier_","type":"string","internalType":"string"}],"stateMutability":"pure"},{"type":"function","name":"implementedHooks","inputs":[],"outputs":[{"name":"implementedHooks_","type":"uint8[]","internalType":"enum IPolicyManager.PolicyHook[]"}],"stateMutability":"pure"},{"type":"function","name":"passesRule","inputs":[{"name":"_comptrollerProxy","type":"address","internalType":"address"},{"name":"_investmentAmount","type":"uint256","internalType":"uint256"}],"outputs":[{"name":"isValid_","type":"bool","internalType":"bool"}],"stateMutability":"view"},{"type":"function","name":"updateFundSettings","inputs":[{"name":"_comptrollerProxy","type":"address","internalType":"address"},{"name":"_encodedSettings","type":"bytes","internalType":"bytes"}],"outputs":[],"stateMutability":"nonpayable"},{"type":"function","name":"validateRule","inputs":[{"name":"_comptrollerProxy","type":"address","internalType":"address"},{"name":"","type":"uint8","internalType":"enum IPolicyManager.PolicyHook"},{"name":"_encodedArgs","type":"bytes","internalType":"bytes"}],"outputs":[{"name":"isValid_","type":"bool","internalType":"bool"}],"stateMutability":"nonpayable"},{"type":"event","name":"FundSettingsSet","inputs":[{"name":"comptrollerProxy","type":"address","indexed":true,"internalType":"address"},{"name":"minInvestmentAmount","type":"uint256","indexed":false,"internalType":"uint256"},{"name":"maxInvestmentAmount","type":"uint256","indexed":false,"internalType":"uint256"}],"anonymous":false}],"bytecode":{"object":"0x60a060405234801561001057600080fd5b5060405161089138038061089183398101604081905261002f91610044565b60601b6001600160601b031916608052610072565b600060208284031215610055578081fd5b81516001600160a01b038116811461006b578182fd5b9392505050565b60805160601c6107fd61009460003980610179528061038152506107fd6000f3fe608060405234801561001057600080fd5b506004361061009e5760003560e01c80636e3a9982116100665780636e3a9982146101095780637998a1c41461011c578063cbf54bb214610131578063ceb9a0ad14610146578063d44ad6cb146101595761009e565b80630d4d7510146100a35780630f5f6b4f146100a35780631ef92578146100b85780634fa4e54b146100d6578063579be718146100f6575b600080fd5b6100b66100b1366004610534565b61016e565b005b6100c0610204565b6040516100cd919061069d565b60405180910390f35b6100e96100e43660046104d3565b610209565b6040516100cd91906107b6565b6100c0610104366004610587565b610242565b6100c06101173660046105ed565b61029d565b6101246102f9565b6040516100cd91906106a8565b610139610325565b6040516100cd919061064f565b6100b66101543660046104d3565b61037c565b61016161037f565b6040516100cd919061063b565b336001600160a01b037f000000000000000000000000000000000000000000000000000000000000000016146101bf5760405162461bcd60e51b81526004016101b6906106fb565b60405180910390fd5b6101ff8383838080601f0160208091040260200160405190810160405280939291908181526020018383808284376000920191909152506103a392505050565b505050565b600190565b610211610472565b506001600160a01b031660009081526020818152604091829020825180840190935280548352600101549082015290565b60008061028484848080601f01602080910402602001604051908101604052809392919081815260200183838082843760009201919091525061044992505050565b5050915050610293868261029d565b9695505050505050565b6001600160a01b03821660009081526020819052604081208054600190910154816102ce5783111591506102f39050565b806102de575082101590506102f3565b8184101580156102ee5750808411155b925050505b92915050565b60408051808201909152601281527113525397d3505617d253959154d51351539560721b602082015290565b6040805160018082528183019092526060916020808301908036833701905050905060008160008151811061035657fe5b6020026020010190600981111561036957fe5b9081600981111561037657fe5b90525090565b50565b7f000000000000000000000000000000000000000000000000000000000000000090565b600080828060200190518101906103ba9190610618565b9150915080600014806103cc57508082105b6103e85760405162461bcd60e51b81526004016101b690610744565b6001600160a01b03841660008181526020819052604090819020848155600101839055517fed112d6c0e84b6900209ce5a4c04541bc63a517e0160888c447ee70be47ce60f9061043b90859085906107cd565b60405180910390a250505050565b6000806000808480602001905181019061046391906104f6565b93509350935093509193509193565b604051806040016040528060008152602001600081525090565b60008083601f84011261049d578182fd5b50813567ffffffffffffffff8111156104b4578182fd5b6020830191508360208285010111156104cc57600080fd5b9250929050565b6000602082840312156104e4578081fd5b81356104ef816107db565b9392505050565b6000806000806080858703121561050b578283fd5b8451610516816107db565b60208601516040870151606090970151919890975090945092505050565b600080600060408486031215610548578283fd5b8335610553816107db565b9250602084013567ffffffffffffffff81111561056e578283fd5b61057a8682870161048c565b9497909650939450505050565b6000806000806060858703121561059c578384fd5b84356105a7816107db565b93506020850135600a81106105ba578384fd5b9250604085013567ffffffffffffffff8111156105d5578283fd5b6105e18782880161048c565b95989497509550505050565b600080604083850312156105ff578182fd5b823561060a816107db565b946020939093013593505050565b6000806040838503121561062a578182fd5b505080516020909101519092909150565b6001600160a01b0391909116815260200190565b6020808252825182820181905260009190848201906040850190845b81811015610691578351600a811061067f57fe5b8352928401929184019160010161066b565b50909695505050505050565b901515815260200190565b6000602080835283518082850152825b818110156106d4578581018301518582016040015282016106b8565b818111156106e55783604083870101525b50601f01601f1916929092016040019392505050565b60208082526029908201527f4f6e6c792074686520506f6c6963794d616e616765722063616e206d616b65206040820152681d1a1a5cc818d85b1b60ba1b606082015260800190565b6020808252604c908201527f5f5f73657446756e6453657474696e67733a206d696e496e766573746d656e7460408201527f416d6f756e74206d757374206265206c657373207468616e206d6178496e766560608201526b1cdd1b595b9d105b5bdd5b9d60a21b608082015260a00190565b815181526020918201519181019190915260400190565b918252602082015260400190565b6001600160a01b038116811461037c57600080fdfea164736f6c634300060c000a","linkReferences":{}},"methodIdentifiers":{"activateForFund(address)":"ceb9a0ad","addFundSettings(address,bytes)":"0f5f6b4f","canDisable()":"1ef92578","getFundSettings(address)":"4fa4e54b","getPolicyManager()":"d44ad6cb","identifier()":"7998a1c4","implementedHooks()":"cbf54bb2","passesRule(address,uint256)":"6e3a9982","updateFundSettings(address,bytes)":"0d4d7510","validateRule(address,uint8,bytes)":"579be718"},"id":225}