{"abi":[{"type":"constructor","inputs":[{"name":"_integrationManager","type":"address","internalType":"address"},{"name":"_router","type":"address","internalType":"address"}],"stateMutability":"nonpayable"},{"type":"function","name":"CLAIM_REWARDS_SELECTOR","inputs":[],"outputs":[{"name":"","type":"bytes4","internalType":"bytes4"}],"stateMutability":"view"},{"type":"function","name":"LEND_AND_STAKE_SELECTOR","inputs":[],"outputs":[{"name":"","type":"bytes4","internalType":"bytes4"}],"stateMutability":"view"},{"type":"function","name":"LEND_SELECTOR","inputs":[],"outputs":[{"name":"","type":"bytes4","internalType":"bytes4"}],"stateMutability":"view"},{"type":"function","name":"REDEEM_SELECTOR","inputs":[],"outputs":[{"name":"","type":"bytes4","internalType":"bytes4"}],"stateMutability":"view"},{"type":"function","name":"STAKE_SELECTOR","inputs":[],"outputs":[{"name":"","type":"bytes4","internalType":"bytes4"}],"stateMutability":"view"},{"type":"function","name":"TAKE_MULTIPLE_ORDERS_SELECTOR","inputs":[],"outputs":[{"name":"","type":"bytes4","internalType":"bytes4"}],"stateMutability":"view"},{"type":"function","name":"TAKE_ORDER_SELECTOR","inputs":[],"outputs":[{"name":"","type":"bytes4","internalType":"bytes4"}],"stateMutability":"view"},{"type":"function","name":"UNSTAKE_AND_REDEEM_SELECTOR","inputs":[],"outputs":[{"name":"","type":"bytes4","internalType":"bytes4"}],"stateMutability":"view"},{"type":"function","name":"UNSTAKE_SELECTOR","inputs":[],"outputs":[{"name":"","type":"bytes4","internalType":"bytes4"}],"stateMutability":"view"},{"type":"function","name":"getIntegrationManager","inputs":[],"outputs":[{"name":"integrationManager_","type":"address","internalType":"address"}],"stateMutability":"view"},{"type":"function","name":"getUniswapV2Router2","inputs":[],"outputs":[{"name":"router_","type":"address","internalType":"address"}],"stateMutability":"view"},{"type":"function","name":"parseAssetsForAction","inputs":[{"name":"","type":"address","internalType":"address"},{"name":"_selector","type":"bytes4","internalType":"bytes4"},{"name":"_actionData","type":"bytes","internalType":"bytes"}],"outputs":[{"name":"spendAssetsHandleType_","type":"uint8","internalType":"enum IIntegrationManager.SpendAssetsHandleType"},{"name":"spendAssets_","type":"address[]","internalType":"address[]"},{"name":"spendAssetAmounts_","type":"uint256[]","internalType":"uint256[]"},{"name":"incomingAssets_","type":"address[]","internalType":"address[]"},{"name":"minIncomingAssetAmounts_","type":"uint256[]","internalType":"uint256[]"}],"stateMutability":"view"},{"type":"function","name":"takeOrder","inputs":[{"name":"_vaultProxy","type":"address","internalType":"address"},{"name":"_actionData","type":"bytes","internalType":"bytes"},{"name":"","type":"bytes","internalType":"bytes"}],"outputs":[],"stateMutability":"nonpayable"}],"bytecode":{"object":"0x60c060405234801561001057600080fd5b506040516118513803806118518339818101604052604081101561003357600080fd5b81019080805190602001909291908051906020019092919050505080828073ffffffffffffffffffffffffffffffffffffffff1660808173ffffffffffffffffffffffffffffffffffffffff1660601b81525050508073ffffffffffffffffffffffffffffffffffffffff1660a08173ffffffffffffffffffffffffffffffffffffffff1660601b8152505050505060805160601c60a05160601c6117576100fa60003980610a155280610b745280610b9b5250806106525280610a3d52506117576000f3fe608060405234801561001057600080fd5b50600436106100cf5760003560e01c8063863e5ad01161008c578063c54efee511610066578063c54efee5146103aa578063d1ded408146105ab578063e7c45690146105df578063f7d882b514610613576100cf565b8063863e5ad0146102f3578063b23228cf14610330578063c32990a21461036d576100cf565b806303e38a2b146100d4578063080456c1146101c2578063131461c0146101ff578063257cb1a31461023c5780633ffc15911461027957806340da225d146102b6575b600080fd5b6101c0600480360360608110156100ea57600080fd5b81019080803573ffffffffffffffffffffffffffffffffffffffff1690602001909291908035906020019064010000000081111561012757600080fd5b82018360208201111561013957600080fd5b8035906020019184600183028401116401000000008311171561015b57600080fd5b90919293919293908035906020019064010000000081111561017c57600080fd5b82018360208201111561018e57600080fd5b803590602001918460018302840111640100000000831117156101b057600080fd5b9091929391929390505050610650565b005b6101ca610814565b60405180827bffffffffffffffffffffffffffffffffffffffffffffffffffffffff1916815260200191505060405180910390f35b610207610838565b60405180827bffffffffffffffffffffffffffffffffffffffffffffffffffffffff1916815260200191505060405180910390f35b61024461085c565b60405180827bffffffffffffffffffffffffffffffffffffffffffffffffffffffff1916815260200191505060405180910390f35b610281610880565b60405180827bffffffffffffffffffffffffffffffffffffffffffffffffffffffff1916815260200191505060405180910390f35b6102be6108a4565b60405180827bffffffffffffffffffffffffffffffffffffffffffffffffffffffff1916815260200191505060405180910390f35b6102fb6108c8565b60405180827bffffffffffffffffffffffffffffffffffffffffffffffffffffffff1916815260200191505060405180910390f35b6103386108ec565b60405180827bffffffffffffffffffffffffffffffffffffffffffffffffffffffff1916815260200191505060405180910390f35b610375610910565b60405180827bffffffffffffffffffffffffffffffffffffffffffffffffffffffff1916815260200191505060405180910390f35b61046a600480360360608110156103c057600080fd5b81019080803573ffffffffffffffffffffffffffffffffffffffff16906020019092919080357bffffffffffffffffffffffffffffffffffffffffffffffffffffffff191690602001909291908035906020019064010000000081111561042657600080fd5b82018360208201111561043857600080fd5b8035906020019184600183028401116401000000008311171561045a57600080fd5b9091929391929390505050610934565b6040518086600281111561047a57fe5b815260200180602001806020018060200180602001858103855289818151815260200191508051906020019060200280838360005b838110156104ca5780820151818401526020810190506104af565b50505050905001858103845288818151815260200191508051906020019060200280838360005b8381101561050c5780820151818401526020810190506104f1565b50505050905001858103835287818151815260200191508051906020019060200280838360005b8381101561054e578082015181840152602081019050610533565b50505050905001858103825286818151815260200191508051906020019060200280838360005b83811015610590578082015181840152602081019050610575565b50505050905001995050505050505050505060405180910390f35b6105b3610a11565b604051808273ffffffffffffffffffffffffffffffffffffffff16815260200191505060405180910390f35b6105e7610a39565b604051808273ffffffffffffffffffffffffffffffffffffffff16815260200191505060405180910390f35b61061b610a61565b60405180827bffffffffffffffffffffffffffffffffffffffffffffffffffffffff1916815260200191505060405180910390f35b7f000000000000000000000000000000000000000000000000000000000000000073ffffffffffffffffffffffffffffffffffffffff163373ffffffffffffffffffffffffffffffffffffffff16146106f4576040517f08c379a00000000000000000000000000000000000000000000000000000000081526004018080602001828103825260328152602001806116656032913960400191505060405180910390fd5b6060600061074586868080601f016020809104026020016040519081016040528093929190818152602001838380828437600081840152601f19601f82011690508083019250505050505050610a85565b925050915061080b878360008151811061075b57fe5b602002602001015173ffffffffffffffffffffffffffffffffffffffff166370a08231306040518263ffffffff1660e01b8152600401808273ffffffffffffffffffffffffffffffffffffffff16815260200191505060206040518083038186803b1580156107c957600080fd5b505afa1580156107dd573d6000803e3d6000fd5b505050506040513d60208110156107f357600080fd5b81019080805190602001909291905050508385610b5a565b50505050505050565b7f8334eb99be0145865eba9889fca2ee920288090caefff4cc776038e20ad9259a81565b7f29fa046e79524c3c5ac4c01df692c35e217802b2b13b21121b76cf0ef02b138c81565b7f099f75155f0e997bf83a7993a71d5e7e7540bd386fe1e84643a09ce6b412521981565b7ffa7dd04da627f433da73c4355ead9c75682a67a8fc84d3f6170ef0922f402d2481565b7fb9dfbaccbe5cd2a84fdcf1d15f23ef25d23086f5afbaa99516065ed4a5bbc7a381565b7f03e38a2bd7063d45c897edeafc330e71657502dd86434d3c37a489caf116af6981565b7f68e30677f607df46e87da13e15b637784cfa62374b653f35ab43d10361a2f83081565b7f0e7f692dad5b88fdee426250d6eae91207e56a2e8112b7364579bed1790e5bf481565b60006060806060807f03e38a2bd7063d45c897edeafc330e71657502dd86434d3c37a489caf116af697bffffffffffffffffffffffffffffffffffffffffffffffffffffffff1916887bffffffffffffffffffffffffffffffffffffffffffffffffffffffff1916146109f2576040517f08c379a00000000000000000000000000000000000000000000000000000000081526004018080602001828103825260278152602001806117246027913960400191505060405180910390fd5b6109fc8787610ca8565b94509450945094509450945094509450945094565b60007f0000000000000000000000000000000000000000000000000000000000000000905090565b60007f0000000000000000000000000000000000000000000000000000000000000000905090565b7fc29fa9dde84204c2908778afd0613d802d31cf046179b88f6d2b4a4e507ea2d581565b6060600080838060200190516060811015610a9f57600080fd5b8101908080516040519392919084640100000000821115610abf57600080fd5b83820191506020820185811115610ad557600080fd5b8251866020820283011164010000000082111715610af257600080fd5b8083526020830192505050908051906020019060200280838360005b83811015610b29578082015181840152602081019050610b0e565b5050505090500160405260200180519060200190929190805190602001909291905050509250925092509193909250565b610b9981600081518110610b6a57fe5b60200260200101517f000000000000000000000000000000000000000000000000000000000000000085610f8b565b7f000000000000000000000000000000000000000000000000000000000000000073ffffffffffffffffffffffffffffffffffffffff16635c11d79584848488610be16110df565b6040518663ffffffff1660e01b815260040180868152602001858152602001806020018473ffffffffffffffffffffffffffffffffffffffff168152602001838152602001828103825285818151815260200191508051906020019060200280838360005b83811015610c61578082015181840152602081019050610c46565b505050509050019650505050505050600060405180830381600087803b158015610c8a57600080fd5b505af1158015610c9e573d6000803e3d6000fd5b5050505050505050565b60006060806060806060600080610d028a8a8080601f016020809104026020016040519081016040528093929190818152602001838380828437600081840152601f19601f82011690508083019250505050505050610a85565b925092509250600283511015610d63576040517f08c379a000000000000000000000000000000000000000000000000000000000815260040180806020018281038252602d815260200180611697602d913960400191505060405180910390fd5b600167ffffffffffffffff81118015610d7b57600080fd5b50604051908082528060200260200182016040528015610daa5781602001602082028036833780820191505090505b50965082600081518110610dba57fe5b602002602001015187600081518110610dcf57fe5b602002602001019073ffffffffffffffffffffffffffffffffffffffff16908173ffffffffffffffffffffffffffffffffffffffff1681525050600167ffffffffffffffff81118015610e2157600080fd5b50604051908082528060200260200182016040528015610e505781602001602082028036833780820191505090505b5095508186600081518110610e6157fe5b602002602001018181525050600167ffffffffffffffff81118015610e8557600080fd5b50604051908082528060200260200182016040528015610eb45781602001602082028036833780820191505090505b50945082600184510381518110610ec757fe5b602002602001015185600081518110610edc57fe5b602002602001019073ffffffffffffffffffffffffffffffffffffffff16908173ffffffffffffffffffffffffffffffffffffffff1681525050600167ffffffffffffffff81118015610f2e57600080fd5b50604051908082528060200260200182016040528015610f5d5781602001602082028036833780820191505090505b5093508084600081518110610f6e57fe5b602002602001018181525050600297505050509295509295909350565b60008373ffffffffffffffffffffffffffffffffffffffff1663dd62ed3e30856040518363ffffffff1660e01b8152600401808373ffffffffffffffffffffffffffffffffffffffff1681526020018273ffffffffffffffffffffffffffffffffffffffff1681526020019250505060206040518083038186803b15801561101257600080fd5b505afa158015611026573d6000803e3d6000fd5b505050506040513d602081101561103c57600080fd5b81019080805190602001909291905050509050818110156110d957600081111561108d5761108c8360008673ffffffffffffffffffffffffffffffffffffffff166110ea9092919063ffffffff16565b5b6110d8837fffffffffffffffffffffffffffffffffffffffffffffffffffffffffffffffff8673ffffffffffffffffffffffffffffffffffffffff166110ea9092919063ffffffff16565b5b50505050565b600060014201905090565b60008114806111b8575060008373ffffffffffffffffffffffffffffffffffffffff1663dd62ed3e30856040518363ffffffff1660e01b8152600401808373ffffffffffffffffffffffffffffffffffffffff1681526020018273ffffffffffffffffffffffffffffffffffffffff1681526020019250505060206040518083038186803b15801561117b57600080fd5b505afa15801561118f573d6000803e3d6000fd5b505050506040513d60208110156111a557600080fd5b8101908080519060200190929190505050145b61120d576040517f08c379a00000000000000000000000000000000000000000000000000000000081526004018080602001828103825260368152602001806116ee6036913960400191505060405180910390fd5b6112aa8363095ea7b360e01b8484604051602401808373ffffffffffffffffffffffffffffffffffffffff16815260200182815260200192505050604051602081830303815290604052907bffffffffffffffffffffffffffffffffffffffffffffffffffffffff19166020820180517bffffffffffffffffffffffffffffffffffffffffffffffffffffffff83818316178352505050506112af565b505050565b6060611311826040518060400160405280602081526020017f5361666545524332303a206c6f772d6c6576656c2063616c6c206661696c65648152508573ffffffffffffffffffffffffffffffffffffffff1661139e9092919063ffffffff16565b90506000815111156113995780806020019051602081101561133257600080fd5b8101908080519060200190929190505050611398576040517f08c379a000000000000000000000000000000000000000000000000000000000815260040180806020018281038252602a8152602001806116c4602a913960400191505060405180910390fd5b5b505050565b60606113ad84846000856113b6565b90509392505050565b606082471015611411576040517f08c379a000000000000000000000000000000000000000000000000000000000815260040180806020018281038252602681526020018061163f6026913960400191505060405180910390fd5b61141a8561155f565b61148c576040517f08c379a000000000000000000000000000000000000000000000000000000000815260040180806020018281038252601d8152602001807f416464726573733a2063616c6c20746f206e6f6e2d636f6e747261637400000081525060200191505060405180910390fd5b600060608673ffffffffffffffffffffffffffffffffffffffff1685876040518082805190602001908083835b602083106114dc57805182526020820191506020810190506020830392506114b9565b6001836020036101000a03801982511681845116808217855250505050505090500191505060006040518083038185875af1925050503d806000811461153e576040519150601f19603f3d011682016040523d82523d6000602084013e611543565b606091505b5091509150611553828286611572565b92505050949350505050565b600080823b905060008111915050919050565b6060831561158257829050611637565b6000835111156115955782518084602001fd5b816040517f08c379a00000000000000000000000000000000000000000000000000000000081526004018080602001828103825283818151815260200191508051906020019080838360005b838110156115fc5780820151818401526020810190506115e1565b50505050905090810190601f1680156116295780820380516001836020036101000a031916815260200191505b509250505060405180910390fd5b939250505056fe416464726573733a20696e73756666696369656e742062616c616e636520666f722063616c6c4f6e6c792074686520496e746567726174696f6e4d616e616765722063616e2063616c6c20746869732066756e6374696f6e5f5f7061727365417373657473466f7254616b654f726465723a205f70617468206d757374206265203e3d20325361666545524332303a204552433230206f7065726174696f6e20646964206e6f7420737563636565645361666545524332303a20617070726f76652066726f6d206e6f6e2d7a65726f20746f206e6f6e2d7a65726f20616c6c6f77616e63657061727365417373657473466f72416374696f6e3a205f73656c6563746f7220696e76616c6964a164736f6c634300060c000a","linkReferences":{}},"methodIdentifiers":{"CLAIM_REWARDS_SELECTOR()":"40da225d","LEND_AND_STAKE_SELECTOR()":"131461c0","LEND_SELECTOR()":"257cb1a3","REDEEM_SELECTOR()":"f7d882b5","STAKE_SELECTOR()":"3ffc1591","TAKE_MULTIPLE_ORDERS_SELECTOR()":"c32990a2","TAKE_ORDER_SELECTOR()":"863e5ad0","UNSTAKE_AND_REDEEM_SELECTOR()":"080456c1","UNSTAKE_SELECTOR()":"b23228cf","getIntegrationManager()":"e7c45690","getUniswapV2Router2()":"d1ded408","parseAssetsForAction(address,bytes4,bytes)":"c54efee5","takeOrder(address,bytes,bytes)":"03e38a2b"},"id":219}