{"abi":[{"type":"constructor","inputs":[{"name":"_integrationManager","type":"address","internalType":"address"},{"name":"_router","type":"address","internalType":"address"}],"stateMutability":"nonpayable"},{"type":"function","name":"CLAIM_REWARDS_SELECTOR","inputs":[],"outputs":[{"name":"","type":"bytes4","internalType":"bytes4"}],"stateMutability":"view"},{"type":"function","name":"LEND_AND_STAKE_SELECTOR","inputs":[],"outputs":[{"name":"","type":"bytes4","internalType":"bytes4"}],"stateMutability":"view"},{"type":"function","name":"LEND_SELECTOR","inputs":[],"outputs":[{"name":"","type":"bytes4","internalType":"bytes4"}],"stateMutability":"view"},{"type":"function","name":"REDEEM_SELECTOR","inputs":[],"outputs":[{"name":"","type":"bytes4","internalType":"bytes4"}],"stateMutability":"view"},{"type":"function","name":"STAKE_SELECTOR","inputs":[],"outputs":[{"name":"","type":"bytes4","internalType":"bytes4"}],"stateMutability":"view"},{"type":"function","name":"TAKE_MULTIPLE_ORDERS_SELECTOR","inputs":[],"outputs":[{"name":"","type":"bytes4","internalType":"bytes4"}],"stateMutability":"view"},{"type":"function","name":"TAKE_ORDER_SELECTOR","inputs":[],"outputs":[{"name":"","type":"bytes4","internalType":"bytes4"}],"stateMutability":"view"},{"type":"function","name":"UNSTAKE_AND_REDEEM_SELECTOR","inputs":[],"outputs":[{"name":"","type":"bytes4","internalType":"bytes4"}],"stateMutability":"view"},{"type":"function","name":"UNSTAKE_SELECTOR","inputs":[],"outputs":[{"name":"","type":"bytes4","internalType":"bytes4"}],"stateMutability":"view"},{"type":"function","name":"getIntegrationManager","inputs":[],"outputs":[{"name":"integrationManager_","type":"address","internalType":"address"}],"stateMutability":"view"},{"type":"function","name":"getUniswapV2Router2","inputs":[],"outputs":[{"name":"router_","type":"address","internalType":"address"}],"stateMutability":"view"},{"type":"function","name":"parseAssetsForAction","inputs":[{"name":"","type":"address","internalType":"address"},{"name":"_selector","type":"bytes4","internalType":"bytes4"},{"name":"_actionData","type":"bytes","internalType":"bytes"}],"outputs":[{"name":"spendAssetsHandleType_","type":"uint8","internalType":"enum IIntegrationManager.SpendAssetsHandleType"},{"name":"spendAssets_","type":"address[]","internalType":"address[]"},{"name":"spendAssetAmounts_","type":"uint256[]","internalType":"uint256[]"},{"name":"incomingAssets_","type":"address[]","internalType":"address[]"},{"name":"minIncomingAssetAmounts_","type":"uint256[]","internalType":"uint256[]"}],"stateMutability":"view"},{"type":"function","name":"takeOrder","inputs":[{"name":"_vaultProxy","type":"address","internalType":"address"},{"name":"_actionData","type":"bytes","internalType":"bytes"},{"name":"","type":"bytes","internalType":"bytes"}],"outputs":[],"stateMutability":"nonpayable"}],"bytecode":{"object":"0x60c060405234801561001057600080fd5b506040516111543803806111548339818101604052604081101561003357600080fd5b5080516020909101516001600160601b0319606092831b8116608052911b1660a05260805160601c60a05160601c6110c761008d600039806106de528061081e5280610845525080610402528061070252506110c76000f3fe608060405234801561001057600080fd5b50600436106100cf5760003560e01c8063863e5ad01161008c578063c54efee511610066578063c54efee514610201578063d1ded408146103c3578063e7c45690146103e7578063f7d882b5146103ef576100cf565b8063863e5ad0146101e9578063b23228cf146101f1578063c32990a2146101f9576100cf565b806303e38a2b146100d4578063080456c1146101a4578063131461c0146101c9578063257cb1a3146101d15780633ffc1591146101d957806340da225d146101e1575b600080fd5b6101a2600480360360608110156100ea57600080fd5b6001600160a01b038235169190810190604081016020820135600160201b81111561011457600080fd5b82018360208201111561012657600080fd5b803590602001918460018302840111600160201b8311171561014757600080fd5b919390929091602081019035600160201b81111561016457600080fd5b82018360208201111561017657600080fd5b803590602001918460018302840111600160201b8311171561019757600080fd5b5090925090506103f7565b005b6101ac610547565b604080516001600160e01b03199092168252519081900360200190f35b6101ac61056b565b6101ac61058f565b6101ac6105b3565b6101ac6105d7565b6101ac6105fb565b6101ac61061f565b6101ac610643565b61028e6004803603606081101561021757600080fd5b6001600160a01b03823516916001600160e01b031960208201351691810190606081016040820135600160201b81111561025057600080fd5b82018360208201111561026257600080fd5b803590602001918460018302840111600160201b8311171561028357600080fd5b509092509050610667565b6040518086600281111561029e57fe5b815260200180602001806020018060200180602001858103855289818151815260200191508051906020019060200280838360005b838110156102eb5781810151838201526020016102d3565b50505050905001858103845288818151815260200191508051906020019060200280838360005b8381101561032a578181015183820152602001610312565b50505050905001858103835287818151815260200191508051906020019060200280838360005b83811015610369578181015183820152602001610351565b50505050905001858103825286818151815260200191508051906020019060200280838360005b838110156103a8578181015183820152602001610390565b50505050905001995050505050505050505060405180910390f35b6103cb6106dc565b604080516001600160a01b039092168252519081900360200190f35b6103cb610700565b6101ac610724565b336001600160a01b037f0000000000000000000000000000000000000000000000000000000000000000161461045e5760405162461bcd60e51b8152600401808060200182810382526032815260200180610fd56032913960400191505060405180910390fd5b606060006104a186868080601f01602080910402602001604051908101604052809392919081815260200183838082843760009201919091525061074892505050565b925050915061053e87836000815181106104b757fe5b60200260200101516001600160a01b03166370a08231306040518263ffffffff1660e01b815260040180826001600160a01b0316815260200191505060206040518083038186803b15801561050b57600080fd5b505afa15801561051f573d6000803e3d6000fd5b505050506040513d602081101561053557600080fd5b50518385610804565b50505050505050565b7f8334eb99be0145865eba9889fca2ee920288090caefff4cc776038e20ad9259a81565b7f29fa046e79524c3c5ac4c01df692c35e217802b2b13b21121b76cf0ef02b138c81565b7f099f75155f0e997bf83a7993a71d5e7e7540bd386fe1e84643a09ce6b412521981565b7ffa7dd04da627f433da73c4355ead9c75682a67a8fc84d3f6170ef0922f402d2481565b7fb9dfbaccbe5cd2a84fdcf1d15f23ef25d23086f5afbaa99516065ed4a5bbc7a381565b7f03e38a2bd7063d45c897edeafc330e71657502dd86434d3c37a489caf116af6981565b7f68e30677f607df46e87da13e15b637784cfa62374b653f35ab43d10361a2f83081565b7f0e7f692dad5b88fdee426250d6eae91207e56a2e8112b7364579bed1790e5bf481565b600060608080806001600160e01b031988166303e38a2b60e01b146106bd5760405162461bcd60e51b81526004018080602001828103825260278152602001806110946027913960400191505060405180910390fd5b6106c78787610935565b94509450945094509450945094509450945094565b7f000000000000000000000000000000000000000000000000000000000000000090565b7f000000000000000000000000000000000000000000000000000000000000000090565b7fc29fa9dde84204c2908778afd0613d802d31cf046179b88f6d2b4a4e507ea2d581565b606060008083806020019051606081101561076257600080fd5b8101908080516040519392919084600160201b82111561078157600080fd5b90830190602082018581111561079657600080fd5b82518660208202830111600160201b821117156107b257600080fd5b82525081516020918201928201910280838360005b838110156107df5781810151838201526020016107c7565b5050505091909101604090815260208301519201519499919850939650945050505050565b6108438160008151811061081457fe5b60200260200101517f000000000000000000000000000000000000000000000000000000000000000085610b01565b7f00000000000000000000000000000000000000000000000000000000000000006001600160a01b0316635c11d7958484848861087e610bbf565b6040518663ffffffff1660e01b81526004018086815260200185815260200180602001846001600160a01b03168152602001838152602001828103825285818151815260200191508051906020019060200280838360005b838110156108ee5781810151838201526020016108d6565b505050509050019650505050505050600060405180830381600087803b15801561091757600080fd5b505af115801561092b573d6000803e3d6000fd5b5050505050505050565b600060608060608060606000806109818a8a8080601f01602080910402602001604051908101604052809392919081815260200183838082843760009201919091525061074892505050565b9250925092506002835110156109c85760405162461bcd60e51b815260040180806020018281038252602d815260200180611007602d913960400191505060405180910390fd5b6040805160018082528183019092529060208083019080368337019050509650826000815181106109f557fe5b602002602001015187600081518110610a0a57fe5b6001600160a01b03929092166020928302919091018201526040805160018082528183019092529182810190803683370190505095508186600081518110610a4e57fe5b60209081029190910101526040805160018082528183019092529081602001602082028036833701905050945082600184510381518110610a8b57fe5b602002602001015185600081518110610aa057fe5b6001600160a01b03929092166020928302919091018201526040805160018082528183019092529182810190803683370190505093508084600081518110610ae457fe5b602002602001018181525050600297505050509295509295909350565b60408051636eb1769f60e11b81523060048201526001600160a01b038481166024830152915160009286169163dd62ed3e916044808301926020929190829003018186803b158015610b5257600080fd5b505afa158015610b66573d6000803e3d6000fd5b505050506040513d6020811015610b7c57600080fd5b5051905081811015610bb9578015610ba357610ba36001600160a01b038516846000610bc6565b610bb96001600160a01b03851684600019610bc6565b50505050565b6001420190565b801580610c4c575060408051636eb1769f60e11b81523060048201526001600160a01b03848116602483015291519185169163dd62ed3e91604480820192602092909190829003018186803b158015610c1e57600080fd5b505afa158015610c32573d6000803e3d6000fd5b505050506040513d6020811015610c4857600080fd5b5051155b610c875760405162461bcd60e51b815260040180806020018281038252603681526020018061105e6036913960400191505060405180910390fd5b604080516001600160a01b038416602482015260448082018490528251808303909101815260649091019091526020810180516001600160e01b031663095ea7b360e01b179052610cd9908490610cde565b505050565b6060610d33826040518060400160405280602081526020017f5361666545524332303a206c6f772d6c6576656c2063616c6c206661696c6564815250856001600160a01b0316610d8f9092919063ffffffff16565b805190915015610cd957808060200190516020811015610d5257600080fd5b5051610cd95760405162461bcd60e51b815260040180806020018281038252602a815260200180611034602a913960400191505060405180910390fd5b6060610d9e8484600085610da8565b90505b9392505050565b606082471015610de95760405162461bcd60e51b8152600401808060200182810382526026815260200180610faf6026913960400191505060405180910390fd5b610df285610f04565b610e43576040805162461bcd60e51b815260206004820152601d60248201527f416464726573733a2063616c6c20746f206e6f6e2d636f6e7472616374000000604482015290519081900360640190fd5b60006060866001600160a01b031685876040518082805190602001908083835b60208310610e825780518252601f199092019160209182019101610e63565b6001836020036101000a03801982511681845116808217855250505050505090500191505060006040518083038185875af1925050503d8060008114610ee4576040519150601f19603f3d011682016040523d82523d6000602084013e610ee9565b606091505b5091509150610ef9828286610f0a565b979650505050505050565b3b151590565b60608315610f19575081610da1565b825115610f295782518084602001fd5b8160405162461bcd60e51b81526004018080602001828103825283818151815260200191508051906020019080838360005b83811015610f73578181015183820152602001610f5b565b50505050905090810190601f168015610fa05780820380516001836020036101000a031916815260200191505b509250505060405180910390fdfe416464726573733a20696e73756666696369656e742062616c616e636520666f722063616c6c4f6e6c792074686520496e746567726174696f6e4d616e616765722063616e2063616c6c20746869732066756e6374696f6e5f5f7061727365417373657473466f7254616b654f726465723a205f70617468206d757374206265203e3d20325361666545524332303a204552433230206f7065726174696f6e20646964206e6f7420737563636565645361666545524332303a20617070726f76652066726f6d206e6f6e2d7a65726f20746f206e6f6e2d7a65726f20616c6c6f77616e63657061727365417373657473466f72416374696f6e3a205f73656c6563746f7220696e76616c6964a164736f6c634300060c000a","linkReferences":{}},"methodIdentifiers":{"CLAIM_REWARDS_SELECTOR()":"40da225d","LEND_AND_STAKE_SELECTOR()":"131461c0","LEND_SELECTOR()":"257cb1a3","REDEEM_SELECTOR()":"f7d882b5","STAKE_SELECTOR()":"3ffc1591","TAKE_MULTIPLE_ORDERS_SELECTOR()":"c32990a2","TAKE_ORDER_SELECTOR()":"863e5ad0","UNSTAKE_AND_REDEEM_SELECTOR()":"080456c1","UNSTAKE_SELECTOR()":"b23228cf","getIntegrationManager()":"e7c45690","getUniswapV2Router2()":"d1ded408","parseAssetsForAction(address,bytes4,bytes)":"c54efee5","takeOrder(address,bytes,bytes)":"03e38a2b"},"id":219}