{"abi":[{"type":"constructor","inputs":[{"name":"_integrationManager","type":"address","internalType":"address"},{"name":"_swethAddress","type":"address","internalType":"address"},{"name":"_wethAddress","type":"address","internalType":"address"},{"name":"_referralAddress","type":"address","internalType":"address"}],"stateMutability":"nonpayable"},{"type":"receive","stateMutability":"payable"},{"type":"function","name":"getIntegrationManager","inputs":[],"outputs":[{"name":"integrationManager_","type":"address","internalType":"address"}],"stateMutability":"view"},{"type":"function","name":"parseAssetsForAction","inputs":[{"name":"","type":"address","internalType":"address"},{"name":"_selector","type":"bytes4","internalType":"bytes4"},{"name":"_actionData","type":"bytes","internalType":"bytes"}],"outputs":[{"name":"spendAssetsHandleType_","type":"uint8","internalType":"enum IIntegrationManager.SpendAssetsHandleType"},{"name":"spendAssets_","type":"address[]","internalType":"address[]"},{"name":"spendAssetAmounts_","type":"uint256[]","internalType":"uint256[]"},{"name":"incomingAssets_","type":"address[]","internalType":"address[]"},{"name":"minIncomingAssetAmounts_","type":"uint256[]","internalType":"uint256[]"}],"stateMutability":"view"},{"type":"function","name":"unwrap","inputs":[{"name":"_vaultProxy","type":"address","internalType":"address"},{"name":"_actionData","type":"bytes","internalType":"bytes"},{"name":"","type":"bytes","internalType":"bytes"}],"outputs":[],"stateMutability":"nonpayable"},{"type":"function","name":"wrap","inputs":[{"name":"_vaultProxy","type":"address","internalType":"address"},{"name":"_actionData","type":"bytes","internalType":"bytes"},{"name":"","type":"bytes","internalType":"bytes"}],"outputs":[],"stateMutability":"nonpayable"}],"bytecode":{"object":"0x6101206040523480156200001257600080fd5b506040516200138838038062001388833981016040819052620000359162000098565b6001600160a01b0393841660805291831660a052821660c052600160e052166101005262000106565b60006001600160a01b0382165b92915050565b6200007c816200005e565b81146200008857600080fd5b50565b80516200006b8162000071565b60008060008060808587031215620000b357620000b3600080fd5b6000620000c187876200008b565b9450506020620000d4878288016200008b565b9350506040620000e7878288016200008b565b9250506060620000fa878288016200008b565b91505092959194509250565b60805160a05160c05160e051610100516111f16200019760003960006108650152600081816101a601526103310152600081816101df015281816102740152818161036c015281816105cb01526106e40152600081816103e3015281816104780152818161061f01528181610690015261083601526000818160da0152818161011101526102ae01526111f16000f3fe6080604052600436106100435760003560e01c80639497f9181461004f578063a5ca2d7114610071578063c54efee514610091578063e7c45690146100cb57600080fd5b3661004a57005b600080fd5b34801561005b57600080fd5b5061006f61006a366004610b46565b610106565b005b34801561007d57600080fd5b5061006f61008c366004610b46565b6102a3565b34801561009d57600080fd5b506100b16100ac366004610bf1565b61049f565b6040516100c2959493929190610d64565b60405180910390f35b3480156100d757600080fd5b507f00000000000000000000000000000000000000000000000000000000000000006040516100c29190610dcb565b336001600160a01b037f000000000000000000000000000000000000000000000000000000000000000016146101575760405162461bcd60e51b815260040161014e90610e2b565b60405180910390fd5b600061019885858080601f01602080910402602001604051908101604052809392919081815260200183838082843760009201919091525061073b92505050565b5090506101a48161075b565b7f0000000000000000000000000000000000000000000000000000000000000000156101d9576101d48647610773565b61029b565b61029b867f00000000000000000000000000000000000000000000000000000000000000006001600160a01b03166370a08231306040518263ffffffff1660e01b81526004016102299190610dcb565b602060405180830381865afa158015610246573d6000803e3d6000fd5b505050506040513d601f19601f8201168201806040525081019061026a9190610e4c565b6001600160a01b037f0000000000000000000000000000000000000000000000000000000000000000169190610814565b505050505050565b336001600160a01b037f000000000000000000000000000000000000000000000000000000000000000016146102eb5760405162461bcd60e51b815260040161014e90610e2b565b600061032c85858080601f01602080910402602001604051908101604052809392919081815260200183838082843760009201919091525061073b92505050565b5090507f0000000000000000000000000000000000000000000000000000000000000000156103d457604051632e1a7d4d60e01b81526001600160a01b037f00000000000000000000000000000000000000000000000000000000000000001690632e1a7d4d906103a1908490600401610e6d565b600060405180830381600087803b1580156103bb57600080fd5b505af11580156103cf573d6000803e3d6000fd5b505050505b6103dd8161081f565b61029b867f00000000000000000000000000000000000000000000000000000000000000006001600160a01b03166370a08231306040518263ffffffff1660e01b815260040161042d9190610dcb565b602060405180830381865afa15801561044a573d6000803e3d6000fd5b505050506040513d601f19601f8201168201806040525081019061046e9190610e4c565b6001600160a01b037f0000000000000000000000000000000000000000000000000000000000000000169190610814565b60006060806060806000806104e989898080601f01602080910402602001604051908101604052809392919081815260200183838082843760009201919091525061073b92505050565b60408051600180825281830190925260029a5092945090925060208083019080368337505060408051600180825281830190925292985090506020808301908036833750506040805160018082528183019092529297509050602080830190803683375050604080516001808252818301909252929650905060208083019080368337019050509250818560008151811061058657610586610e7b565b60200260200101818152505080836000815181106105a6576105a6610e7b565b6020908102919091010152635a35d28f60e01b6001600160e01b03198b1601610676577f0000000000000000000000000000000000000000000000000000000000000000866000815181106105fd576105fd610e7b565b60200260200101906001600160a01b031690816001600160a01b0316815250507f00000000000000000000000000000000000000000000000000000000000000008460008151811061065157610651610e7b565b60200260200101906001600160a01b031690816001600160a01b03168152505061072e565b630d6d00dd60e31b6001600160e01b03198b1601610716577f0000000000000000000000000000000000000000000000000000000000000000866000815181106106c2576106c2610e7b565b60200260200101906001600160a01b031690816001600160a01b0316815250507f00000000000000000000000000000000000000000000000000000000000000008460008151811061065157610651610e7b565b60405162461bcd60e51b815260040161014e90610ed5565b5050945094509450945094565b600080828060200190518101906107529190610ee5565b91509150915091565b60405162461bcd60e51b815260040161014e90610f59565b804710156107935760405162461bcd60e51b815260040161014e90610f9d565b6000826001600160a01b0316826040516107ac90610fad565b60006040518083038185875af1925050503d80600081146107e9576040519150601f19603f3d011682016040523d82523d6000602084013e6107ee565b606091505b505090508061080f5760405162461bcd60e51b815260040161014e9061100f565b505050565b61080f8383836108ba565b60405163c18d7cb760e01b81526001600160a01b037f0000000000000000000000000000000000000000000000000000000000000000169063c18d7cb790479061088d907f000000000000000000000000000000000000000000000000000000000000000090600401610dcb565b6000604051808303818588803b1580156108a657600080fd5b505af115801561029b573d6000803e3d6000fd5b61080f8363a9059cbb60e01b84846040516024016108d992919061101f565b60408051601f198184030181529190526020810180516001600160e01b03166001600160e01b0319909316929092179091526000610960826040518060400160405280602081526020017f5361666545524332303a206c6f772d6c6576656c2063616c6c206661696c6564815250856001600160a01b031661099a9092919063ffffffff16565b80519091501561080f578080602001905181019061097e919061104d565b61080f5760405162461bcd60e51b815260040161014e906110b5565b60606109a984846000856109b3565b90505b9392505050565b6060824710156109d55760405162461bcd60e51b815260040161014e90611108565b600080866001600160a01b031685876040516109f1919061115e565b60006040518083038185875af1925050503d8060008114610a2e576040519150601f19603f3d011682016040523d82523d6000602084013e610a33565b606091505b5091509150610a4487838387610a51565b925050505b949350505050565b60608315610a90578251600003610a89576001600160a01b0385163b610a895760405162461bcd60e51b815260040161014e9061119e565b5081610a49565b610a498383815115610aa55781518083602001fd5b8060405162461bcd60e51b815260040161014e91906111e0565b60006001600160a01b0382165b92915050565b610adb81610abf565b8114610ae657600080fd5b50565b8035610acc81610ad2565b60008083601f840112610b0957610b09600080fd5b50813567ffffffffffffffff811115610b2457610b24600080fd5b602083019150836001820283011115610b3f57610b3f600080fd5b9250929050565b600080600080600060608688031215610b6157610b61600080fd5b6000610b6d8888610ae9565b955050602086013567ffffffffffffffff811115610b8d57610b8d600080fd5b610b9988828901610af4565b9450945050604086013567ffffffffffffffff811115610bbb57610bbb600080fd5b610bc788828901610af4565b92509250509295509295909350565b6001600160e01b03198116610adb565b8035610acc81610bd6565b60008060008060608587031215610c0a57610c0a600080fd5b6000610c168787610ae9565b9450506020610c2787828801610be6565b935050604085013567ffffffffffffffff811115610c4757610c47600080fd5b610c5387828801610af4565b95989497509550505050565b634e487b7160e01b600052602160045260246000fd5b60038110610ae657610ae6610c5f565b80610c8f81610c75565b919050565b6000610acc82610c85565b610ca881610c94565b82525050565b610ca881610abf565b6000610cc38383610cae565b505060200190565b6000610cd5825190565b80845260209384019383018060005b83811015610d09578151610cf88882610cb7565b975060208301925050600101610ce4565b509495945050505050565b80610ca8565b6000610cc38383610d14565b6000610d30825190565b80845260209384019383018060005b83811015610d09578151610d538882610d1a565b975060208301925050600101610d3f565b60a08101610d728288610c9f565b8181036020830152610d848187610ccb565b90508181036040830152610d988186610d26565b90508181036060830152610dac8185610ccb565b90508181036080830152610dc08184610d26565b979650505050505050565b60208101610acc8284610cae565b603281526000602082017f4f6e6c792074686520496e746567726174696f6e4d616e616765722063616e2081527131b0b636103a3434b990333ab731ba34b7b760711b602082015291505b5060400190565b60208082528101610acc81610dd9565b80610adb565b8051610acc81610e3b565b600060208284031215610e6157610e61600080fd5b6000610a498484610e41565b60208101610acc8284610d14565b634e487b7160e01b600052603260045260246000fd5b602781526000602082017f7061727365417373657473466f72416374696f6e3a205f73656c6563746f72208152661a5b9d985b1a5960ca1b60208201529150610e24565b60208082528101610acc81610e91565b60008060408385031215610efb57610efb600080fd5b6000610f078585610e41565b9250506020610f1885828601610e41565b9150509250929050565b601981526000602082017f5f5f756e777261703a204e6f7420696d706c656d656e74656400000000000000815291505b5060200190565b60208082528101610acc81610f22565b601d81526000602082017f416464726573733a20696e73756666696369656e742062616c616e636500000081529150610f52565b60208082528101610acc81610f69565b600081610acc565b603a81526000602082017f416464726573733a20756e61626c6520746f2073656e642076616c75652c207281527f6563697069656e74206d6179206861766520726576657274656400000000000060208201529150610e24565b60208082528101610acc81610fb5565b6040810161102d8285610cae565b6109ac6020830184610d14565b801515610adb565b8051610acc8161103a565b60006020828403121561106257611062600080fd5b6000610a498484611042565b602a81526000602082017f5361666545524332303a204552433230206f7065726174696f6e20646964206e8152691bdd081cdd58d8d9595960b21b60208201529150610e24565b60208082528101610acc8161106e565b602681526000602082017f416464726573733a20696e73756666696369656e742062616c616e636520666f8152651c8818d85b1b60d21b60208201529150610e24565b60208082528101610acc816110c5565b60005b8381101561113357818101518382015260200161111b565b50506000910152565b6000611146825190565b611154818560208601611118565b9290920192915050565b60006109ac828461113c565b601d81526000602082017f416464726573733a2063616c6c20746f206e6f6e2d636f6e747261637400000081529150610f52565b60208082528101610acc8161116a565b60006111b8825190565b8084526020840193506111cf818560208601611118565b601f01601f19169290920192915050565b602080825281016109ac81846111ae56","linkReferences":{}},"methodIdentifiers":{"getIntegrationManager()":"e7c45690","parseAssetsForAction(address,bytes4,bytes)":"c54efee5","unwrap(address,bytes,bytes)":"9497f918","wrap(address,bytes,bytes)":"a5ca2d71"},"id":156}