{"abi":[{"type":"function","name":"calcFaceValue","inputs":[{"name":"_totalBorrowed","type":"uint256","internalType":"uint256"},{"name":"_totalRepaid","type":"uint256","internalType":"uint256"}],"outputs":[{"name":"faceValue_","type":"uint256","internalType":"uint256"}],"stateMutability":"view"},{"type":"function","name":"configure","inputs":[{"name":"_configData","type":"bytes","internalType":"bytes"}],"outputs":[],"stateMutability":"nonpayable"},{"type":"function","name":"getOracleInfoForLoan","inputs":[{"name":"_loan","type":"address","internalType":"address"}],"outputs":[{"name":"oracleInfo_","type":"tuple","internalType":"struct ArbitraryLoanTotalNominalDeltaOracleModule.OracleInfo","components":[{"name":"oracle","type":"address","internalType":"address"},{"name":"stalenessThreshold","type":"uint32","internalType":"uint32"}]}],"stateMutability":"view"},{"type":"function","name":"preBorrow","inputs":[{"name":"","type":"uint256","internalType":"uint256"},{"name":"","type":"uint256","internalType":"uint256"},{"name":"","type":"uint256","internalType":"uint256"}],"outputs":[],"stateMutability":"nonpayable"},{"type":"function","name":"preClose","inputs":[{"name":"","type":"uint256","internalType":"uint256"},{"name":"","type":"uint256","internalType":"uint256"}],"outputs":[],"stateMutability":"nonpayable"},{"type":"function","name":"preReconcile","inputs":[{"name":"","type":"uint256","internalType":"uint256"},{"name":"","type":"uint256","internalType":"uint256"},{"name":"_repayableLoanAssetAmount","type":"uint256","internalType":"uint256"},{"name":"","type":"address[]","internalType":"address[]"}],"outputs":[{"name":"repayAmount_","type":"uint256","internalType":"uint256"}],"stateMutability":"nonpayable"},{"type":"function","name":"preRepay","inputs":[{"name":"_totalBorrowed","type":"uint256","internalType":"uint256"},{"name":"_prevTotalRepaid","type":"uint256","internalType":"uint256"},{"name":"_repayAmountInput","type":"uint256","internalType":"uint256"}],"outputs":[{"name":"repayAmount_","type":"uint256","internalType":"uint256"}],"stateMutability":"nonpayable"},{"type":"function","name":"receiveCallFromLoan","inputs":[{"name":"","type":"bytes","internalType":"bytes"}],"outputs":[],"stateMutability":"nonpayable"},{"type":"event","name":"OracleSetForLoan","inputs":[{"name":"loan","type":"address","indexed":true,"internalType":"address"},{"name":"oracle","type":"address","indexed":true,"internalType":"address"},{"name":"stalenessThreshold","type":"uint32","indexed":false,"internalType":"uint32"}],"anonymous":false}],"bytecode":{"object":"0x608060405234801561001057600080fd5b50610b13806100206000396000f3fe608060405234801561001057600080fd5b50600436106100885760003560e01c80638602074e1161005b5780638602074e146100f15780639e950b2214610104578063b70d1c7e14610117578063e00c34901461013757610088565b80631324041c1461008d5780631770ac3a146100b657806346739e73146100cb5780637bb6668e146100de575b600080fd5b6100a061009b36600461073b565b61014a565b6040516100ad9190610a3a565b60405180910390f35b6100c96100c436600461070b565b610172565b005b6100c96100d9366004610688565b610176565b6100a06100ec36600461070b565b61026d565b6100c96100ff36600461073b565b610283565b6100c9610112366004610688565b610288565b61012a610125366004610628565b6102a0565b6040516100ad9190610a2c565b6100a0610145366004610788565b6102ea565b6000600019821415610168576101613385856102f3565b905061016b565b50805b9392505050565b5050565b600033905060008083806020019051810190610192919061064e565b90925090506001600160a01b0382166101c65760405162461bcd60e51b81526004016101bd906109ec565b60405180910390fd5b6040805180820182526001600160a01b0384811680835263ffffffff8581166020808601918252898516600081815291829052908790209551865492516001600160a01b031990931695169490941763ffffffff60a01b1916600160a01b91909216021790925591519091907fb28cf685cf80ef726582ae8f60c1ee6dfdb57895eac21aa2c752d93495196eb69061025f908590610a48565b60405180910390a350505050565b600061027a3384846102f3565b90505b92915050565b505050565b60405162461bcd60e51b81526004016101bd90610a0c565b6102a861053d565b506001600160a01b03908116600090815260208181526040918290208251808401909352549283168252600160a01b90920463ffffffff169181019190915290565b50909392505050565b60006102fd61053d565b610306856102a0565b9050600080826020015163ffffffff1611156103d957600082600001516001600160a01b0316634def98556040518163ffffffff1660e01b8152600401604080518083038186803b15801561035a57600080fd5b505afa15801561036e573d6000803e3d6000fd5b505050506040513d601f19601f8201168201806040525081019061039291906106db565b90925090506103a14282610489565b836020015163ffffffff161015806103b7575081155b6103d35760405162461bcd60e51b81526004016101bd906109cc565b50610451565b81600001516001600160a01b031663209652556040518163ffffffff1660e01b815260040160206040518083038186803b15801561041657600080fd5b505afa15801561042a573d6000803e3d6000fd5b505050506040513d601f19601f8201168201806040525081019061044e91906106bd565b90505b60006104678561046188856104b1565b906104f7565b9050600081131561047c57925061016b915050565b5060009695505050505050565b6000828211156104ab5760405162461bcd60e51b81526004016101bd906109fc565b50900390565b60008282018183128015906104c65750838112155b806104db57506000831280156104db57508381125b61027a5760405162461bcd60e51b81526004016101bd906109dc565b600081830381831280159061050c5750838113155b80610521575060008312801561052157508381135b61027a5760405162461bcd60e51b81526004016101bd90610a1c565b604080518082019091526000808252602082015290565b803561027d81610add565b805161027d81610add565b60008083601f84011261057c57600080fd5b50813567ffffffffffffffff81111561059457600080fd5b6020830191508360208202830111156105ac57600080fd5b9250929050565b600082601f8301126105c457600080fd5b81356105d76105d282610a7d565b610a56565b915080825260208301602083018583830111156105f357600080fd5b6105fe838284610ad1565b50505092915050565b805161027d81610af4565b803561027d81610af4565b805161027d81610afd565b60006020828403121561063a57600080fd5b60006106468484610554565b949350505050565b6000806040838503121561066157600080fd5b600061066d858561055f565b925050602061067e8582860161061d565b9150509250929050565b60006020828403121561069a57600080fd5b813567ffffffffffffffff8111156106b157600080fd5b610646848285016105b3565b6000602082840312156106cf57600080fd5b60006106468484610607565b600080604083850312156106ee57600080fd5b60006106fa8585610607565b925050602061067e85828601610607565b6000806040838503121561071e57600080fd5b600061072a8585610612565b925050602061067e85828601610612565b60008060006060848603121561075057600080fd5b600061075c8686610612565b935050602061076d86828701610612565b925050604061077e86828701610612565b9150509250925092565b6000806000806000608086880312156107a057600080fd5b60006107ac8888610612565b95505060206107bd88828901610612565b94505060406107ce88828901610612565b935050606086013567ffffffffffffffff8111156107eb57600080fd5b6107f78882890161056a565b92509250509295509295909350565b61080f81610aae565b82525050565b6000610822601b83610aa5565b7f63616c634661636556616c75653a205374616c65206f7261636c650000000000815260200192915050565b600061085b602183610aa5565b7f5369676e6564536166654d6174683a206164646974696f6e206f766572666c6f8152607760f81b602082015260400192915050565b600061089e601783610aa5565b7f636f6e6669677572653a20456d707479206f7261636c65000000000000000000815260200192915050565b60006108d7601e83610aa5565b7f536166654d6174683a207375627472616374696f6e206f766572666c6f770000815260200192915050565b6000610910602583610aa5565b7f7265636569766543616c6c46726f6d4c6f616e3a20496e76616c6964206163748152641a5bdb925960da1b602082015260400192915050565b6000610957602483610aa5565b7f5369676e6564536166654d6174683a207375627472616374696f6e206f766572815263666c6f7760e01b602082015260400192915050565b805160408301906109a18482610806565b5060208201516109b460208501826109c3565b50505050565b61080f81610ab9565b61080f81610ac8565b6020808252810161027d81610815565b6020808252810161027d8161084e565b6020808252810161027d81610891565b6020808252810161027d816108ca565b6020808252810161027d81610903565b6020808252810161027d8161094a565b6040810161027d8284610990565b6020810161027d82846109ba565b6020810161027d82846109c3565b60405181810167ffffffffffffffff81118282101715610a7557600080fd5b604052919050565b600067ffffffffffffffff821115610a9457600080fd5b506020601f91909101601f19160190565b90815260200190565b600061027d82610abc565b90565b6001600160a01b031690565b63ffffffff1690565b82818337506000910152565b610ae681610aae565b8114610af157600080fd5b50565b610ae681610ab9565b610ae681610ac856fea164736f6c634300060c000a","linkReferences":{}},"methodIdentifiers":{"calcFaceValue(uint256,uint256)":"7bb6668e","configure(bytes)":"46739e73","getOracleInfoForLoan(address)":"b70d1c7e","preBorrow(uint256,uint256,uint256)":"8602074e","preClose(uint256,uint256)":"1770ac3a","preReconcile(uint256,uint256,uint256,address[])":"e00c3490","preRepay(uint256,uint256,uint256)":"1324041c","receiveCallFromLoan(bytes)":"9e950b22"},"id":152}