{"abi":[{"type":"function","name":"calcFaceValue","inputs":[{"name":"_totalBorrowed","type":"uint256","internalType":"uint256"},{"name":"_totalRepaid","type":"uint256","internalType":"uint256"}],"outputs":[{"name":"faceValue_","type":"uint256","internalType":"uint256"}],"stateMutability":"view"},{"type":"function","name":"configure","inputs":[{"name":"_configData","type":"bytes","internalType":"bytes"}],"outputs":[],"stateMutability":"nonpayable"},{"type":"function","name":"getOracleInfoForLoan","inputs":[{"name":"_loan","type":"address","internalType":"address"}],"outputs":[{"name":"oracleInfo_","type":"tuple","internalType":"struct ArbitraryLoanTotalNominalDeltaOracleModule.OracleInfo","components":[{"name":"oracle","type":"address","internalType":"address"},{"name":"stalenessThreshold","type":"uint32","internalType":"uint32"}]}],"stateMutability":"view"},{"type":"function","name":"preBorrow","inputs":[{"name":"","type":"uint256","internalType":"uint256"},{"name":"","type":"uint256","internalType":"uint256"},{"name":"","type":"uint256","internalType":"uint256"}],"outputs":[],"stateMutability":"nonpayable"},{"type":"function","name":"preClose","inputs":[{"name":"","type":"uint256","internalType":"uint256"},{"name":"","type":"uint256","internalType":"uint256"}],"outputs":[],"stateMutability":"nonpayable"},{"type":"function","name":"preReconcile","inputs":[{"name":"","type":"uint256","internalType":"uint256"},{"name":"","type":"uint256","internalType":"uint256"},{"name":"_repayableLoanAssetAmount","type":"uint256","internalType":"uint256"},{"name":"","type":"address[]","internalType":"address[]"}],"outputs":[{"name":"repayAmount_","type":"uint256","internalType":"uint256"}],"stateMutability":"nonpayable"},{"type":"function","name":"preRepay","inputs":[{"name":"_totalBorrowed","type":"uint256","internalType":"uint256"},{"name":"_prevTotalRepaid","type":"uint256","internalType":"uint256"},{"name":"_repayAmountInput","type":"uint256","internalType":"uint256"}],"outputs":[{"name":"repayAmount_","type":"uint256","internalType":"uint256"}],"stateMutability":"nonpayable"},{"type":"function","name":"receiveCallFromLoan","inputs":[{"name":"","type":"bytes","internalType":"bytes"}],"outputs":[],"stateMutability":"nonpayable"},{"type":"event","name":"OracleSetForLoan","inputs":[{"name":"loan","type":"address","indexed":true,"internalType":"address"},{"name":"oracle","type":"address","indexed":true,"internalType":"address"},{"name":"stalenessThreshold","type":"uint32","indexed":false,"internalType":"uint32"}],"anonymous":false}],"bytecode":{"object":"0x608060405234801561001057600080fd5b50611086806100206000396000f3fe608060405234801561001057600080fd5b50600436106100885760003560e01c80638602074e1161005b5780638602074e146101255780639e950b2214610141578063b70d1c7e1461015d578063e00c34901461018d57610088565b80631324041c1461008d5780631770ac3a146100bd57806346739e73146100d95780637bb6668e146100f5575b600080fd5b6100a760048036038101906100a29190610ae8565b6101bd565b6040516100b49190610eef565b60405180910390f35b6100d760048036038101906100d29190610aac565b610204565b005b6100f360048036038101906100ee9190610a06565b610208565b005b61010f600480360381019061010a9190610aac565b6103e3565b60405161011c9190610eef565b60405180910390f35b61013f600480360381019061013a9190610ae8565b6103f8565b005b61015b60048036038101906101569190610a06565b6103fd565b005b610177600480360381019061017291906109a1565b610438565b6040516101849190610ed4565b60405180910390f35b6101a760048036038101906101a29190610b37565b61050c565b6040516101b49190610eef565b60405180910390f35b60007fffffffffffffffffffffffffffffffffffffffffffffffffffffffffffffffff8214156101f9576101f233858561051a565b90506101fd565b8190505b9392505050565b5050565b60003390506000808380602001905181019061022491906109ca565b91509150600073ffffffffffffffffffffffffffffffffffffffff168273ffffffffffffffffffffffffffffffffffffffff161415610298576040517f08c379a000000000000000000000000000000000000000000000000000000000815260040161028f90610e54565b60405180910390fd5b60405180604001604052808373ffffffffffffffffffffffffffffffffffffffff1681526020018263ffffffff168152506000808573ffffffffffffffffffffffffffffffffffffffff1673ffffffffffffffffffffffffffffffffffffffff16815260200190815260200160002060008201518160000160006101000a81548173ffffffffffffffffffffffffffffffffffffffff021916908373ffffffffffffffffffffffffffffffffffffffff16021790555060208201518160000160146101000a81548163ffffffff021916908363ffffffff1602179055509050508173ffffffffffffffffffffffffffffffffffffffff168373ffffffffffffffffffffffffffffffffffffffff167fb28cf685cf80ef726582ae8f60c1ee6dfdb57895eac21aa2c752d93495196eb6836040516103d59190610f0a565b60405180910390a350505050565b60006103f033848461051a565b905092915050565b505050565b6040517f08c379a000000000000000000000000000000000000000000000000000000000815260040161042f90610e94565b60405180910390fd5b61044061084f565b6000808373ffffffffffffffffffffffffffffffffffffffff1673ffffffffffffffffffffffffffffffffffffffff1681526020019081526020016000206040518060400160405290816000820160009054906101000a900473ffffffffffffffffffffffffffffffffffffffff1673ffffffffffffffffffffffffffffffffffffffff1673ffffffffffffffffffffffffffffffffffffffff1681526020016000820160149054906101000a900463ffffffff1663ffffffff1663ffffffff16815250509050919050565b600083905095945050505050565b600061052461084f565b61052d85610438565b9050600080826020015163ffffffff16111561063e576000826000015173ffffffffffffffffffffffffffffffffffffffff16634def98556040518163ffffffff1660e01b8152600401604080518083038186803b15801561058e57600080fd5b505afa1580156105a2573d6000803e3d6000fd5b505050506040513d601f19601f820116820180604052508101906105c69190610a70565b80925081935050506105e1814261070f90919063ffffffff16565b836020015163ffffffff161015806105f95750600082145b610638576040517f08c379a000000000000000000000000000000000000000000000000000000000815260040161062f90610e14565b60405180910390fd5b506106c3565b816000015173ffffffffffffffffffffffffffffffffffffffff1663209652556040518163ffffffff1660e01b815260040160206040518083038186803b15801561068857600080fd5b505afa15801561069c573d6000803e3d6000fd5b505050506040513d601f19601f820116820180604052508101906106c09190610a47565b90505b60006106ea856106dc848961075f90919063ffffffff16565b6107d790919063ffffffff16565b9050600081131561070057809350505050610708565b600093505050505b9392505050565b600082821115610754576040517f08c379a000000000000000000000000000000000000000000000000000000000815260040161074b90610e74565b60405180910390fd5b818303905092915050565b6000808284019050600083121580156107785750838112155b8061078e575060008312801561078d57508381125b5b6107cd576040517f08c379a00000000000000000000000000000000000000000000000000000000081526004016107c490610e34565b60405180910390fd5b8091505092915050565b6000808284039050600083121580156107f05750838113155b80610806575060008312801561080557508381135b5b610845576040517f08c379a000000000000000000000000000000000000000000000000000000000815260040161083c90610eb4565b60405180910390fd5b8091505092915050565b6040518060400160405280600073ffffffffffffffffffffffffffffffffffffffff168152602001600063ffffffff1681525090565b60008135905061089481611006565b92915050565b6000815190506108a98161101d565b92915050565b60008083601f8401126108c157600080fd5b8235905067ffffffffffffffff8111156108da57600080fd5b6020830191508360208202830111156108f257600080fd5b9250929050565b600082601f83011261090a57600080fd5b813561091d61091882610f52565b610f25565b9150808252602083016020830185838301111561093957600080fd5b610944838284610ff7565b50505092915050565b60008151905061095c81611034565b92915050565b6000813590506109718161104b565b92915050565b6000815190506109868161104b565b92915050565b60008151905061099b81611062565b92915050565b6000602082840312156109b357600080fd5b60006109c184828501610885565b91505092915050565b600080604083850312156109dd57600080fd5b60006109eb8582860161089a565b92505060206109fc8582860161098c565b9150509250929050565b600060208284031215610a1857600080fd5b600082013567ffffffffffffffff811115610a3257600080fd5b610a3e848285016108f9565b91505092915050565b600060208284031215610a5957600080fd5b6000610a678482850161094d565b91505092915050565b60008060408385031215610a8357600080fd5b6000610a918582860161094d565b9250506020610aa285828601610977565b9150509250929050565b60008060408385031215610abf57600080fd5b6000610acd85828601610962565b9250506020610ade85828601610962565b9150509250929050565b600080600060608486031215610afd57600080fd5b6000610b0b86828701610962565b9350506020610b1c86828701610962565b9250506040610b2d86828701610962565b9150509250925092565b600080600080600060808688031215610b4f57600080fd5b6000610b5d88828901610962565b9550506020610b6e88828901610962565b9450506040610b7f88828901610962565b935050606086013567ffffffffffffffff811115610b9c57600080fd5b610ba8888289016108af565b92509250509295509295909350565b610bc081610f8f565b82525050565b6000610bd3601b83610f7e565b91507f63616c634661636556616c75653a205374616c65206f7261636c6500000000006000830152602082019050919050565b6000610c13602183610f7e565b91507f5369676e6564536166654d6174683a206164646974696f6e206f766572666c6f60008301527f77000000000000000000000000000000000000000000000000000000000000006020830152604082019050919050565b6000610c79601783610f7e565b91507f636f6e6669677572653a20456d707479206f7261636c650000000000000000006000830152602082019050919050565b6000610cb9601e83610f7e565b91507f536166654d6174683a207375627472616374696f6e206f766572666c6f7700006000830152602082019050919050565b6000610cf9602583610f7e565b91507f7265636569766543616c6c46726f6d4c6f616e3a20496e76616c69642061637460008301527f696f6e49640000000000000000000000000000000000000000000000000000006020830152604082019050919050565b6000610d5f602483610f7e565b91507f5369676e6564536166654d6174683a207375627472616374696f6e206f76657260008301527f666c6f77000000000000000000000000000000000000000000000000000000006020830152604082019050919050565b604082016000820151610dce6000850182610bb7565b506020820151610de16020850182610df6565b50505050565b610df081610fdd565b82525050565b610dff81610fe7565b82525050565b610e0e81610fe7565b82525050565b60006020820190508181036000830152610e2d81610bc6565b9050919050565b60006020820190508181036000830152610e4d81610c06565b9050919050565b60006020820190508181036000830152610e6d81610c6c565b9050919050565b60006020820190508181036000830152610e8d81610cac565b9050919050565b60006020820190508181036000830152610ead81610cec565b9050919050565b60006020820190508181036000830152610ecd81610d52565b9050919050565b6000604082019050610ee96000830184610db8565b92915050565b6000602082019050610f046000830184610de7565b92915050565b6000602082019050610f1f6000830184610e05565b92915050565b6000604051905081810181811067ffffffffffffffff82111715610f4857600080fd5b8060405250919050565b600067ffffffffffffffff821115610f6957600080fd5b601f19601f8301169050602081019050919050565b600082825260208201905092915050565b6000610f9a82610fbd565b9050919050565b6000610fac82610fbd565b9050919050565b6000819050919050565b600073ffffffffffffffffffffffffffffffffffffffff82169050919050565b6000819050919050565b600063ffffffff82169050919050565b82818337600083830152505050565b61100f81610f8f565b811461101a57600080fd5b50565b61102681610fa1565b811461103157600080fd5b50565b61103d81610fb3565b811461104857600080fd5b50565b61105481610fdd565b811461105f57600080fd5b50565b61106b81610fe7565b811461107657600080fd5b5056fea164736f6c634300060c000a","linkReferences":{}},"methodIdentifiers":{"calcFaceValue(uint256,uint256)":"7bb6668e","configure(bytes)":"46739e73","getOracleInfoForLoan(address)":"b70d1c7e","preBorrow(uint256,uint256,uint256)":"8602074e","preClose(uint256,uint256)":"1770ac3a","preReconcile(uint256,uint256,uint256,address[])":"e00c3490","preRepay(uint256,uint256,uint256)":"1324041c","receiveCallFromLoan(bytes)":"9e950b22"},"id":152}