{"abi":[{"type":"constructor","inputs":[{"name":"_feeManager","type":"address","internalType":"address"}],"stateMutability":"nonpayable"},{"type":"function","name":"activateForFund","inputs":[{"name":"","type":"address","internalType":"address"},{"name":"","type":"address","internalType":"address"}],"outputs":[],"stateMutability":"nonpayable"},{"type":"function","name":"addFundSettings","inputs":[{"name":"_comptrollerProxy","type":"address","internalType":"address"},{"name":"_settingsData","type":"bytes","internalType":"bytes"}],"outputs":[],"stateMutability":"nonpayable"},{"type":"function","name":"getFeeManager","inputs":[],"outputs":[{"name":"feeManager_","type":"address","internalType":"address"}],"stateMutability":"view"},{"type":"function","name":"getRateForFund","inputs":[{"name":"_comptrollerProxy","type":"address","internalType":"address"}],"outputs":[{"name":"rate_","type":"uint256","internalType":"uint256"}],"stateMutability":"view"},{"type":"function","name":"getRecipientForFund","inputs":[{"name":"_comptrollerProxy","type":"address","internalType":"address"}],"outputs":[{"name":"recipient_","type":"address","internalType":"address"}],"stateMutability":"view"},{"type":"function","name":"getSettlementType","inputs":[],"outputs":[{"name":"settlementType_","type":"uint8","internalType":"enum IFeeManager.SettlementType"}],"stateMutability":"view"},{"type":"function","name":"payout","inputs":[{"name":"","type":"address","internalType":"address"},{"name":"","type":"address","internalType":"address"}],"outputs":[{"name":"","type":"bool","internalType":"bool"}],"stateMutability":"nonpayable"},{"type":"function","name":"setRecipientForFund","inputs":[{"name":"_comptrollerProxy","type":"address","internalType":"address"},{"name":"_recipient","type":"address","internalType":"address"}],"outputs":[],"stateMutability":"nonpayable"},{"type":"function","name":"settle","inputs":[{"name":"_comptrollerProxy","type":"address","internalType":"address"},{"name":"","type":"address","internalType":"address"},{"name":"","type":"uint8","internalType":"enum IFeeManager.FeeHook"},{"name":"_settlementData","type":"bytes","internalType":"bytes"},{"name":"","type":"uint256","internalType":"uint256"}],"outputs":[{"name":"settlementType_","type":"uint8","internalType":"enum IFeeManager.SettlementType"},{"name":"payer_","type":"address","internalType":"address"},{"name":"sharesDue_","type":"uint256","internalType":"uint256"}],"stateMutability":"nonpayable"},{"type":"function","name":"settlesOnHook","inputs":[{"name":"_hook","type":"uint8","internalType":"enum IFeeManager.FeeHook"}],"outputs":[{"name":"settles_","type":"bool","internalType":"bool"},{"name":"usesGav_","type":"bool","internalType":"bool"}],"stateMutability":"view"},{"type":"function","name":"update","inputs":[{"name":"","type":"address","internalType":"address"},{"name":"","type":"address","internalType":"address"},{"name":"","type":"uint8","internalType":"enum IFeeManager.FeeHook"},{"name":"","type":"bytes","internalType":"bytes"},{"name":"","type":"uint256","internalType":"uint256"}],"outputs":[],"stateMutability":"nonpayable"},{"type":"function","name":"updatesOnHook","inputs":[{"name":"","type":"uint8","internalType":"enum IFeeManager.FeeHook"}],"outputs":[{"name":"updates_","type":"bool","internalType":"bool"},{"name":"usesGav_","type":"bool","internalType":"bool"}],"stateMutability":"view"},{"type":"event","name":"FundSettingsAdded","inputs":[{"name":"comptrollerProxy","type":"address","indexed":true,"internalType":"address"},{"name":"rate","type":"uint256","indexed":false,"internalType":"uint256"}],"anonymous":false},{"type":"event","name":"RecipientSetForFund","inputs":[{"name":"comptrollerProxy","type":"address","indexed":true,"internalType":"address"},{"name":"recipient","type":"address","indexed":true,"internalType":"address"}],"anonymous":false},{"type":"event","name":"Settled","inputs":[{"name":"comptrollerProxy","type":"address","indexed":true,"internalType":"address"},{"name":"payer","type":"address","indexed":true,"internalType":"address"},{"name":"sharesQuantity","type":"uint256","indexed":false,"internalType":"uint256"}],"anonymous":false}],"bytecode":{"object":"0x60c060405234801561001057600080fd5b50604051610bea380380610bea8339818101604052602081101561003357600080fd5b5051606081901b6001600160601b031916608052600160f81b60a0526001600160a01b03166001610b646100866000398061061e52806106615250806104e552806107b852806107e55250610b646000f3fe608060405234801561001057600080fd5b50600436106100b45760003560e01c806362780b3c1161007157806362780b3c1461033a5780637bdd5b1d1461037c5780638c55f80f146103a5578063b78b4813146103d3578063e337a91f14610415578063f2d6382614610435576100b4565b80630f5f6b4f146100b9578063233faf5f1461013b5780633146d058146101ce578063320f0ddd146101fc5780633eecc2bf1461023757806341892d7e1461026f575b600080fd5b610139600480360360408110156100cf57600080fd5b6001600160a01b0382351691908101906040810160208201356401000000008111156100fa57600080fd5b82018360208201111561010c57600080fd5b8035906020019184600183028401116401000000008311171561012e57600080fd5b50909250905061043d565b005b610139600480360360a081101561015157600080fd5b6001600160a01b03823581169260208101359091169160ff604083013516919081019060808101606082013564010000000081111561018f57600080fd5b8201836020820111156101a157600080fd5b803590602001918460018302840111640100000000831117156101c357600080fd5b919350915035610480565b610139600480360360408110156101e457600080fd5b506001600160a01b0381358116916020013516610488565b61021c6004803603602081101561021257600080fd5b503560ff1661048c565b60408051921515835290151560208301528051918290030190f35b61025d6004803603602081101561024d57600080fd5b50356001600160a01b03166104bb565b60408051918252519081900360200190f35b610302600480360360a081101561028557600080fd5b6001600160a01b03823581169260208101359091169160ff60408301351691908101906080810160608201356401000000008111156102c357600080fd5b8201836020820111156102d557600080fd5b803590602001918460018302840111640100000000831117156102f757600080fd5b9193509150356104d6565b6040518084600581111561031257fe5b8152602001836001600160a01b03168152602001828152602001935050505060405180910390f35b6103606004803603602081101561035057600080fd5b50356001600160a01b031661064e565b604080516001600160a01b039092168252519081900360200190f35b61038461065f565b6040518082600581111561039457fe5b815260200191505060405180910390f35b610139600480360360408110156103bb57600080fd5b506001600160a01b0381358116916020013516610683565b610401600480360360408110156103e957600080fd5b506001600160a01b03813581169160200135166107a6565b604080519115158252519081900360200190f35b61021c6004803603602081101561042b57600080fd5b503560ff166107ae565b6103606107b6565b6104488383836107da565b60008282604081101561045a57600080fd5b50602001356001600160a01b03169050801561047a5761047a8482610927565b50505050565b505050505050565b5050565b600080600283600381111561049d57fe5b14156104af57506001905060006104b6565b5060009050805b915091565b6001600160a01b031660009081526020819052604090205490565b60008080336001600160a01b037f000000000000000000000000000000000000000000000000000000000000000016146105415760405162461bcd60e51b8152600401808060200182810382526025815260200180610a986025913960400191505060405180910390fd5b600061058287878080601f01602080910402602001604051908101604052809392919081815260200183838082843760009201919091525061097e92505050565b6001600160a01b038d1660009081526020819052604090205492955092506105b890506127106105b284846109b2565b90610a12565b9250826105d15760008060009450945094505050610642565b836001600160a01b03168b6001600160a01b03167f7e79a2206061184e05985ae0578dec52f817756a441996f984cdc817efc25a68856040518082815260200191505060405180910390a37f0000000000000000000000000000000000000000000000000000000000000000945050505b96509650969350505050565b600061065982610a79565b92915050565b7f000000000000000000000000000000000000000000000000000000000000000090565b816001600160a01b031663c98091876040518163ffffffff1660e01b815260040160206040518083038186803b1580156106bc57600080fd5b505afa1580156106d0573d6000803e3d6000fd5b505050506040513d60208110156106e657600080fd5b505160408051631127a41d60e31b815290516001600160a01b039092169163893d20e891600480820192602092909190829003018186803b15801561072a57600080fd5b505afa15801561073e573d6000803e3d6000fd5b505050506040513d602081101561075457600080fd5b50516001600160a01b0316331461079c5760405162461bcd60e51b8152600401808060200182810382526030815260200180610b286030913960400191505060405180910390fd5b6104888282610927565b600092915050565b600080915091565b7f000000000000000000000000000000000000000000000000000000000000000090565b336001600160a01b037f000000000000000000000000000000000000000000000000000000000000000016146108415760405162461bcd60e51b8152600401808060200182810382526025815260200180610a986025913960400191505060405180910390fd5b60008282602081101561085357600080fd5b50359050806108935760405162461bcd60e51b8152600401808060200182810382526024815260200180610b046024913960400191505060405180910390fd5b61271081106108d35760405162461bcd60e51b8152600401808060200182810382526026815260200180610ade6026913960400191505060405180910390fd5b6001600160a01b03841660008181526020818152604091829020849055815184815291517f90b7d1516011c1da1279f3ae0ed052b1416e7c373d4ec40cf515aa53c5f839df9281900390910190a250505050565b6001600160a01b0382811660008181526001602052604080822080546001600160a01b0319169486169485179055517fa11fc98cfb391622348acc16de92f0efb77d55f71a6e9fa18bfef387ae8d19ce9190a35050565b600080600083806020019051606081101561099857600080fd5b508051602082015160409092015190969195509350915050565b6000826109c157506000610659565b828202828482816109ce57fe5b0414610a0b5760405162461bcd60e51b8152600401808060200182810382526021815260200180610abd6021913960400191505060405180910390fd5b9392505050565b6000808211610a68576040805162461bcd60e51b815260206004820152601a60248201527f536166654d6174683a206469766973696f6e206279207a65726f000000000000604482015290519081900360640190fd5b818381610a7157fe5b049392505050565b6001600160a01b03908116600090815260016020526040902054169056fe4f6e6c7920746865204665654d616e6765722063616e206d616b6520746869732063616c6c536166654d6174683a206d756c7469706c69636174696f6e206f766572666c6f7761646446756e6453657474696e67733a204665652072617465206d617820657863656564656461646446756e6453657474696e67733a204665652072617465206d757374206265203e305f5f736574526563697069656e74466f7246756e643a204f6e6c79207661756c74206f776e65722063616c6c61626c65a164736f6c634300060c000a","linkReferences":{}},"methodIdentifiers":{"activateForFund(address,address)":"3146d058","addFundSettings(address,bytes)":"0f5f6b4f","getFeeManager()":"f2d63826","getRateForFund(address)":"3eecc2bf","getRecipientForFund(address)":"62780b3c","getSettlementType()":"7bdd5b1d","payout(address,address)":"b78b4813","setRecipientForFund(address,address)":"8c55f80f","settle(address,address,uint8,bytes,uint256)":"41892d7e","settlesOnHook(uint8)":"320f0ddd","update(address,address,uint8,bytes,uint256)":"233faf5f","updatesOnHook(uint8)":"e337a91f"},"id":165}