{"abi":[{"type":"constructor","inputs":[{"name":"_thisAggregatorDecimals","type":"uint8","internalType":"uint8"},{"name":"_quoteConversionAggregatorAddress","type":"address","internalType":"address"},{"name":"_quoteConversionAggregatorInverted","type":"bool","internalType":"bool"},{"name":"_marketAggregatorAddress","type":"address","internalType":"address"},{"name":"_deviationToleranceBps","type":"uint256","internalType":"uint256"}],"stateMutability":"nonpayable"},{"type":"function","name":"DECIMALS","inputs":[],"outputs":[{"name":"","type":"uint8","internalType":"uint8"}],"stateMutability":"view"},{"type":"function","name":"DEVIATION_TOLERANCE_BPS","inputs":[],"outputs":[{"name":"","type":"uint256","internalType":"uint256"}],"stateMutability":"view"},{"type":"function","name":"MARKET_AGGREGATOR_ADDRESS","inputs":[],"outputs":[{"name":"","type":"address","internalType":"address"}],"stateMutability":"view"},{"type":"function","name":"QUOTE_CONVERSION_AGGREGATOR_ADDRESS","inputs":[],"outputs":[{"name":"","type":"address","internalType":"address"}],"stateMutability":"view"},{"type":"function","name":"QUOTE_CONVERSION_AGGREGATOR_INVERTED","inputs":[],"outputs":[{"name":"","type":"bool","internalType":"bool"}],"stateMutability":"view"},{"type":"function","name":"baseRate","inputs":[],"outputs":[{"name":"rate_","type":"uint256","internalType":"uint256"},{"name":"ratePrecision_","type":"uint256","internalType":"uint256"},{"name":"timestamp_","type":"uint256","internalType":"uint256"}],"stateMutability":"view"},{"type":"function","name":"decimals","inputs":[],"outputs":[{"name":"decimals_","type":"uint8","internalType":"uint8"}],"stateMutability":"view"},{"type":"function","name":"idealRate","inputs":[],"outputs":[{"name":"rate_","type":"uint256","internalType":"uint256"},{"name":"ratePrecision_","type":"uint256","internalType":"uint256"},{"name":"timestamp_","type":"uint256","internalType":"uint256"}],"stateMutability":"view"},{"type":"function","name":"latestRoundData","inputs":[],"outputs":[{"name":"","type":"uint80","internalType":"uint80"},{"name":"","type":"int256","internalType":"int256"},{"name":"","type":"uint256","internalType":"uint256"},{"name":"","type":"uint256","internalType":"uint256"},{"name":"","type":"uint80","internalType":"uint80"}],"stateMutability":"view"},{"type":"error","name":"PriceFeedHelpersLib__ParseRateFromChainlinkAggregator__NegativeAnswer","inputs":[{"name":"answer","type":"int256","internalType":"int256"}]}],"bytecode":{"object":"0x6101806040523480156200001257600080fd5b5060405162000c4938038062000c498339810160408190526200003591620001ab565b60ff851660805284848484848484846200005183600a62000376565b60e0526001600160a01b03821660a081905281151560c0526200007657600062000081565b6200008182620000bc565b610100525050506101408190526001600160a01b03821661012052620000a782620000bc565b6101605250620003ba98505050505050505050565b6000816001600160a01b031663313ce5676040518163ffffffff1660e01b8152600401602060405180830381865afa158015620000fd573d6000803e3d6000fd5b505050506040513d601f19601f820116820180604052508101906200012391906200038d565b6200013090600a62000376565b92915050565b60ff81165b81146200014757600080fd5b50565b8051620001308162000136565b60006001600160a01b03821662000130565b6200013b8162000157565b8051620001308162000169565b8015156200013b565b8051620001308162000181565b806200013b565b8051620001308162000197565b600080600080600060a08688031215620001c857620001c8600080fd5b6000620001d688886200014a565b9550506020620001e98882890162000174565b9450506040620001fc888289016200018a565b93505060606200020f8882890162000174565b925050608062000222888289016200019e565b9150509295509295909350565b634e487b7160e01b600052601160045260246000fd5b80825b60018511156200028b578086048111156200026757620002676200022f565b60018516156200027657908102905b8002620002838560011c90565b945062000248565b94509492505050565b600082620002a5575060016200036f565b81620002b4575060006200036f565b8160018114620002cd5760028114620002d8576200030c565b60019150506200036f565b60ff841115620002ec57620002ec6200022f565b8360020a9150848211156200030557620003056200022f565b506200036f565b5060208310610133831016604e8410600b841016171562000344575081810a838111156200033e576200033e6200022f565b6200036f565b62000353848484600162000245565b925090508184048111156200036c576200036c6200022f565b81025b9392505050565b600060ff831692506200036f600019848462000294565b600060208284031215620003a457620003a4600080fd5b6000620003b284846200014a565b949350505050565b60805160a05160c05160e051610100516101205161014051610160516107ec6200045d60003960006103ff01526000818160da015261042d0152600081816101b301526103ce0152600081816102f701526103410152600081816101d7015281816102180152610388015260008181609d01526102cd0152600081816101590152818161026c01526102a1015260008181610125015261018a01526107ec6000f3fe608060405234801561001057600080fd5b50600436106100935760003560e01c80632faa3a09116100665780632faa3a0914610154578063313ce567146101885780639e79aa74146101ae578063f36329f9146101d5578063feaf968c146101fd57600080fd5b80630918d214146100985780630e587e19146100d55780631f68f20a146101095780632e0f262514610120575b600080fd5b6100bf7f000000000000000000000000000000000000000000000000000000000000000081565b6040516100cc91906105e5565b60405180910390f35b6100fc7f000000000000000000000000000000000000000000000000000000000000000081565b6040516100cc91906105f9565b610111610216565b6040516100cc93929190610607565b6101477f000000000000000000000000000000000000000000000000000000000000000081565b6040516100cc9190610640565b61017b7f000000000000000000000000000000000000000000000000000000000000000081565b6040516100cc9190610668565b7f0000000000000000000000000000000000000000000000000000000000000000610147565b61017b7f000000000000000000000000000000000000000000000000000000000000000081565b7f00000000000000000000000000000000000000000000000000000000000000008042610111565b61020561024f565b6040516100cc959493929190610688565b7f000000000000000000000000000000000000000000000000000000000000000080426102448280836103c1565b925092509250909192565b600080600080600080600080610263610216565b919450925090507f00000000000000000000000000000000000000000000000000000000000000006001600160a01b031615610381576000806102c57f000000000000000000000000000000000000000000000000000000000000000061046a565b9150915060007f00000000000000000000000000000000000000000000000000000000000000001561033e57610328837f00000000000000000000000000000000000000000000000000000000000000006b033b2e3c9fd0803ce800000061050e565b92506b033b2e3c9fd0803ce80000009050610361565b507f00000000000000000000000000000000000000000000000000000000000000005b61036c86868561052f565b955080945061037b848361053c565b93505050505b6103ac83837f0000000000000000000000000000000000000000000000000000000000000000610551565b60009990985089975090955086945092505050565b60008060008060006103f27f000000000000000000000000000000000000000000000000000000000000000061046a565b91509150869350610424827f000000000000000000000000000000000000000000000000000000000000000086610551565b915061045188837f000000000000000000000000000000000000000000000000000000000000000061056c565b945061045d868261053c565b9250505093509350939050565b6000806000836001600160a01b031663feaf968c6040518163ffffffff1660e01b815260040160a060405180830381865afa1580156104ad573d6000803e3d6000fd5b505050506040513d601f19601f820116820180604052508101906104d19190610702565b509450909250505060008112156105065780604051630d6f078960e31b81526004016104fd91906105f9565b60405180910390fd5b939092509050565b60008361051b8484610790565b61052591906107c5565b90505b9392505050565b60008261051b8386610790565b600061054883836105c5565b90505b92915050565b6000818303610561575082610528565b8261051b8386610790565b6000808385116105855761058085856107d9565b61058f565b61058f84866107d9565b90506000856105a083612710610790565b6105aa91906107c5565b90508381116105b957856105bb565b845b9695505050505050565b60008183106105d45781610548565b5090919050565b8015155b82525050565b6020810161054b82846105db565b806105df565b6020810161054b82846105f3565b6060810161061582866105f3565b61062260208301856105f3565b61062f60408301846105f3565b949350505050565b60ff81166105df565b6020810161054b8284610637565b60006001600160a01b03821661054b565b6105df8161064e565b6020810161054b828461065f565b69ffffffffffffffffffff81166105df565b60a081016106968288610676565b6106a360208301876105f3565b6106b060408301866105f3565b6106bd60608301856105f3565b6105bb6080830184610676565b69ffffffffffffffffffff81165b81146106e357600080fd5b50565b805161054b816106ca565b806106d8565b805161054b816106f1565b600080600080600060a0868803121561071d5761071d600080fd5b600061072988886106e6565b955050602061073a888289016106f7565b945050604061074b888289016106f7565b935050606061075c888289016106f7565b925050608061076d888289016106e6565b9150509295509295909350565b634e487b7160e01b600052601160045260246000fd5b8181028082158382048514176107a8576107a861077a565b5092915050565b634e487b7160e01b600052601260045260246000fd5b6000826107d4576107d46107af565b500490565b8181038181111561054b5761054b61077a56","linkReferences":{}},"methodIdentifiers":{"DECIMALS()":"2e0f2625","DEVIATION_TOLERANCE_BPS()":"0e587e19","MARKET_AGGREGATOR_ADDRESS()":"9e79aa74","QUOTE_CONVERSION_AGGREGATOR_ADDRESS()":"2faa3a09","QUOTE_CONVERSION_AGGREGATOR_INVERTED()":"0918d214","baseRate()":"1f68f20a","decimals()":"313ce567","idealRate()":"f36329f9","latestRoundData()":"feaf968c"},"id":209}