{"abi":[{"type":"constructor","inputs":[{"name":"_dispatcher","type":"address","internalType":"address"}],"stateMutability":"nonpayable"},{"type":"function","name":"cancelMigration","inputs":[{"name":"_vaultProxy","type":"address","internalType":"address"},{"name":"_bypassPrevReleaseFailure","type":"bool","internalType":"bool"}],"outputs":[],"stateMutability":"nonpayable"},{"type":"function","name":"cancelReconfiguration","inputs":[{"name":"_vaultProxy","type":"address","internalType":"address"}],"outputs":[],"stateMutability":"nonpayable"},{"type":"function","name":"createMigrationRequest","inputs":[{"name":"_vaultProxy","type":"address","internalType":"address"},{"name":"_comptrollerConfig","type":"tuple","internalType":"struct IComptroller.ConfigInput","components":[{"name":"denominationAsset","type":"address","internalType":"address"},{"name":"sharesActionTimelock","type":"uint256","internalType":"uint256"},{"name":"feeManagerConfigData","type":"bytes","internalType":"bytes"},{"name":"policyManagerConfigData","type":"bytes","internalType":"bytes"},{"name":"extensionsConfig","type":"tuple[]","internalType":"struct IComptroller.ExtensionConfigInput[]","components":[{"name":"extension","type":"address","internalType":"address"},{"name":"configData","type":"bytes","internalType":"bytes"}]}]},{"name":"_bypassPrevReleaseFailure","type":"bool","internalType":"bool"}],"outputs":[{"name":"comptrollerProxy_","type":"address","internalType":"address"}],"stateMutability":"nonpayable"},{"type":"function","name":"createNewFund","inputs":[{"name":"_fundOwner","type":"address","internalType":"address"},{"name":"_fundName","type":"string","internalType":"string"},{"name":"_fundSymbol","type":"string","internalType":"string"},{"name":"_comptrollerConfig","type":"tuple","internalType":"struct IComptroller.ConfigInput","components":[{"name":"denominationAsset","type":"address","internalType":"address"},{"name":"sharesActionTimelock","type":"uint256","internalType":"uint256"},{"name":"feeManagerConfigData","type":"bytes","internalType":"bytes"},{"name":"policyManagerConfigData","type":"bytes","internalType":"bytes"},{"name":"extensionsConfig","type":"tuple[]","internalType":"struct IComptroller.ExtensionConfigInput[]","components":[{"name":"extension","type":"address","internalType":"address"},{"name":"configData","type":"bytes","internalType":"bytes"}]}]}],"outputs":[{"name":"comptrollerProxy_","type":"address","internalType":"address"},{"name":"vaultProxy_","type":"address","internalType":"address"}],"stateMutability":"nonpayable"},{"type":"function","name":"createReconfigurationRequest","inputs":[{"name":"_vaultProxy","type":"address","internalType":"address"},{"name":"_comptrollerConfig","type":"tuple","internalType":"struct IComptroller.ConfigInput","components":[{"name":"denominationAsset","type":"address","internalType":"address"},{"name":"sharesActionTimelock","type":"uint256","internalType":"uint256"},{"name":"feeManagerConfigData","type":"bytes","internalType":"bytes"},{"name":"policyManagerConfigData","type":"bytes","internalType":"bytes"},{"name":"extensionsConfig","type":"tuple[]","internalType":"struct IComptroller.ExtensionConfigInput[]","components":[{"name":"extension","type":"address","internalType":"address"},{"name":"configData","type":"bytes","internalType":"bytes"}]}]}],"outputs":[{"name":"comptrollerProxy_","type":"address","internalType":"address"}],"stateMutability":"nonpayable"},{"type":"function","name":"deregisterBuySharesOnBehalfCallers","inputs":[{"name":"_callers","type":"address[]","internalType":"address[]"}],"outputs":[],"stateMutability":"nonpayable"},{"type":"function","name":"deregisterVaultCalls","inputs":[{"name":"_contracts","type":"address[]","internalType":"address[]"},{"name":"_selectors","type":"bytes4[]","internalType":"bytes4[]"},{"name":"_dataHashes","type":"bytes32[]","internalType":"bytes32[]"}],"outputs":[],"stateMutability":"nonpayable"},{"type":"function","name":"executeMigration","inputs":[{"name":"_vaultProxy","type":"address","internalType":"address"},{"name":"_bypassPrevReleaseFailure","type":"bool","internalType":"bool"}],"outputs":[],"stateMutability":"nonpayable"},{"type":"function","name":"executeReconfiguration","inputs":[{"name":"_vaultProxy","type":"address","internalType":"address"}],"outputs":[],"stateMutability":"nonpayable"},{"type":"function","name":"getComptrollerLib","inputs":[],"outputs":[{"name":"comptrollerLib_","type":"address","internalType":"address"}],"stateMutability":"view"},{"type":"function","name":"getCreator","inputs":[],"outputs":[{"name":"creator_","type":"address","internalType":"address"}],"stateMutability":"view"},{"type":"function","name":"getDispatcher","inputs":[],"outputs":[{"name":"dispatcher_","type":"address","internalType":"address"}],"stateMutability":"view"},{"type":"function","name":"getOwner","inputs":[],"outputs":[{"name":"owner_","type":"address","internalType":"address"}],"stateMutability":"view"},{"type":"function","name":"getProtocolFeeTracker","inputs":[],"outputs":[{"name":"protocolFeeTracker_","type":"address","internalType":"address"}],"stateMutability":"view"},{"type":"function","name":"getReconfigurationRequestForVaultProxy","inputs":[{"name":"_vaultProxy","type":"address","internalType":"address"}],"outputs":[{"name":"reconfigurationRequest_","type":"tuple","internalType":"struct IFundDeployer.ReconfigurationRequest","components":[{"name":"nextComptrollerProxy","type":"address","internalType":"address"},{"name":"executableTimestamp","type":"uint256","internalType":"uint256"}]}],"stateMutability":"view"},{"type":"function","name":"getReconfigurationTimelock","inputs":[],"outputs":[{"name":"reconfigurationTimelock_","type":"uint256","internalType":"uint256"}],"stateMutability":"view"},{"type":"function","name":"getVaultLib","inputs":[],"outputs":[{"name":"vaultLib_","type":"address","internalType":"address"}],"stateMutability":"view"},{"type":"function","name":"getVaultProxyForComptrollerProxy","inputs":[{"name":"_comptrollerProxy","type":"address","internalType":"address"}],"outputs":[{"name":"vaultProxy_","type":"address","internalType":"address"}],"stateMutability":"view"},{"type":"function","name":"hasReconfigurationRequest","inputs":[{"name":"_vaultProxy","type":"address","internalType":"address"}],"outputs":[{"name":"hasReconfigurationRequest_","type":"bool","internalType":"bool"}],"stateMutability":"view"},{"type":"function","name":"invokeMigrationInCancelHook","inputs":[{"name":"","type":"address","internalType":"address"},{"name":"","type":"address","internalType":"address"},{"name":"","type":"address","internalType":"address"},{"name":"","type":"address","internalType":"address"}],"outputs":[],"stateMutability":"nonpayable"},{"type":"function","name":"invokeMigrationOutHook","inputs":[{"name":"_hook","type":"uint8","internalType":"enum IMigrationHookHandler.MigrationOutHook"},{"name":"_vaultProxy","type":"address","internalType":"address"},{"name":"","type":"address","internalType":"address"},{"name":"","type":"address","internalType":"address"},{"name":"","type":"address","internalType":"address"}],"outputs":[],"stateMutability":"nonpayable"},{"type":"function","name":"isAllowedBuySharesOnBehalfCaller","inputs":[{"name":"_who","type":"address","internalType":"address"}],"outputs":[{"name":"isAllowed_","type":"bool","internalType":"bool"}],"stateMutability":"view"},{"type":"function","name":"isAllowedVaultCall","inputs":[{"name":"_contract","type":"address","internalType":"address"},{"name":"_selector","type":"bytes4","internalType":"bytes4"},{"name":"_dataHash","type":"bytes32","internalType":"bytes32"}],"outputs":[{"name":"isAllowed_","type":"bool","internalType":"bool"}],"stateMutability":"view"},{"type":"function","name":"isRegisteredVaultCall","inputs":[{"name":"_contract","type":"address","internalType":"address"},{"name":"_selector","type":"bytes4","internalType":"bytes4"},{"name":"_dataHash","type":"bytes32","internalType":"bytes32"}],"outputs":[{"name":"isRegistered_","type":"bool","internalType":"bool"}],"stateMutability":"view"},{"type":"function","name":"registerBuySharesOnBehalfCallers","inputs":[{"name":"_callers","type":"address[]","internalType":"address[]"}],"outputs":[],"stateMutability":"nonpayable"},{"type":"function","name":"registerVaultCalls","inputs":[{"name":"_contracts","type":"address[]","internalType":"address[]"},{"name":"_selectors","type":"bytes4[]","internalType":"bytes4[]"},{"name":"_dataHashes","type":"bytes32[]","internalType":"bytes32[]"}],"outputs":[],"stateMutability":"nonpayable"},{"type":"function","name":"releaseIsLive","inputs":[],"outputs":[{"name":"isLive_","type":"bool","internalType":"bool"}],"stateMutability":"view"},{"type":"function","name":"setComptrollerLib","inputs":[{"name":"_comptrollerLib","type":"address","internalType":"address"}],"outputs":[],"stateMutability":"nonpayable"},{"type":"function","name":"setProtocolFeeTracker","inputs":[{"name":"_protocolFeeTracker","type":"address","internalType":"address"}],"outputs":[],"stateMutability":"nonpayable"},{"type":"function","name":"setReconfigurationTimelock","inputs":[{"name":"_nextTimelock","type":"uint256","internalType":"uint256"}],"outputs":[],"stateMutability":"nonpayable"},{"type":"function","name":"setReleaseLive","inputs":[],"outputs":[],"stateMutability":"nonpayable"},{"type":"function","name":"setVaultLib","inputs":[{"name":"_vaultLib","type":"address","internalType":"address"}],"outputs":[],"stateMutability":"nonpayable"},{"type":"event","name":"BuySharesOnBehalfCallerDeregistered","inputs":[{"name":"caller","type":"address","indexed":false,"internalType":"address"}],"anonymous":false},{"type":"event","name":"BuySharesOnBehalfCallerRegistered","inputs":[{"name":"caller","type":"address","indexed":false,"internalType":"address"}],"anonymous":false},{"type":"event","name":"ComptrollerLibSet","inputs":[{"name":"comptrollerLib","type":"address","indexed":false,"internalType":"address"}],"anonymous":false},{"type":"event","name":"ComptrollerProxyDeployed","inputs":[{"name":"creator","type":"address","indexed":true,"internalType":"address"},{"name":"comptrollerProxy","type":"address","indexed":true,"internalType":"address"},{"name":"vaultProxy","type":"address","indexed":true,"internalType":"address"},{"name":"comptrollerConfig","type":"tuple","indexed":false,"internalType":"struct IComptroller.ConfigInput","components":[{"name":"denominationAsset","type":"address","internalType":"address"},{"name":"sharesActionTimelock","type":"uint256","internalType":"uint256"},{"name":"feeManagerConfigData","type":"bytes","internalType":"bytes"},{"name":"policyManagerConfigData","type":"bytes","internalType":"bytes"},{"name":"extensionsConfig","type":"tuple[]","internalType":"struct IComptroller.ExtensionConfigInput[]","components":[{"name":"extension","type":"address","internalType":"address"},{"name":"configData","type":"bytes","internalType":"bytes"}]}]}],"anonymous":false},{"type":"event","name":"MigrationRequestCreated","inputs":[{"name":"creator","type":"address","indexed":true,"internalType":"address"},{"name":"vaultProxy","type":"address","indexed":true,"internalType":"address"},{"name":"comptrollerProxy","type":"address","indexed":false,"internalType":"address"}],"anonymous":false},{"type":"event","name":"NewFundCreated","inputs":[{"name":"creator","type":"address","indexed":true,"internalType":"address"},{"name":"vaultProxy","type":"address","indexed":false,"internalType":"address"},{"name":"comptrollerProxy","type":"address","indexed":false,"internalType":"address"}],"anonymous":false},{"type":"event","name":"ProtocolFeeTrackerSet","inputs":[{"name":"protocolFeeTracker","type":"address","indexed":false,"internalType":"address"}],"anonymous":false},{"type":"event","name":"ReconfigurationRequestCancelled","inputs":[{"name":"vaultProxy","type":"address","indexed":true,"internalType":"address"},{"name":"nextComptrollerProxy","type":"address","indexed":true,"internalType":"address"}],"anonymous":false},{"type":"event","name":"ReconfigurationRequestCreated","inputs":[{"name":"creator","type":"address","indexed":true,"internalType":"address"},{"name":"vaultProxy","type":"address","indexed":true,"internalType":"address"},{"name":"comptrollerProxy","type":"address","indexed":false,"internalType":"address"},{"name":"executableTimestamp","type":"uint256","indexed":false,"internalType":"uint256"}],"anonymous":false},{"type":"event","name":"ReconfigurationRequestExecuted","inputs":[{"name":"vaultProxy","type":"address","indexed":true,"internalType":"address"},{"name":"prevComptrollerProxy","type":"address","indexed":true,"internalType":"address"},{"name":"nextComptrollerProxy","type":"address","indexed":true,"internalType":"address"}],"anonymous":false},{"type":"event","name":"ReconfigurationTimelockSet","inputs":[{"name":"nextTimelock","type":"uint256","indexed":false,"internalType":"uint256"}],"anonymous":false},{"type":"event","name":"ReleaseIsLive","inputs":[],"anonymous":false},{"type":"event","name":"VaultCallDeregistered","inputs":[{"name":"contractAddress","type":"address","indexed":true,"internalType":"address"},{"name":"selector","type":"bytes4","indexed":false,"internalType":"bytes4"},{"name":"dataHash","type":"bytes32","indexed":false,"internalType":"bytes32"}],"anonymous":false},{"type":"event","name":"VaultCallRegistered","inputs":[{"name":"contractAddress","type":"address","indexed":true,"internalType":"address"},{"name":"selector","type":"bytes4","indexed":false,"internalType":"bytes4"},{"name":"dataHash","type":"bytes32","indexed":false,"internalType":"bytes32"}],"anonymous":false},{"type":"event","name":"VaultLibSet","inputs":[{"name":"vaultLib","type":"address","indexed":false,"internalType":"address"}],"anonymous":false}],"bytecode":{"object":"0x60c06040523480156200001157600080fd5b50604051620038a3380380620038a383398101604081905262000034916200010b565b604051706d6c6e2e7661756c7443616c6c2e616e7960781b6020820152603101604051602081830303815290604052805190602001207f5bf1898dd28c4d29f33c4c1bb9b8a7e2f6322847d70be63e8f89de024d08a66960001b14620000ee5760405162461bcd60e51b815260206004820152602560248201527f636f6e7374727563746f723a20496e636f727265637420414e595f5641554c5460448201526417d0d0531360da1b606482015260840160405180910390fd5b336080526001600160a01b031660a0526202a3006003556200013d565b6000602082840312156200011e57600080fd5b81516001600160a01b03811681146200013657600080fd5b9392505050565b60805160a0516136f3620001b06000396000818161053d01528181610b2201528181610d7101528181610fa9015281816110c8015281816115c8015281816116f301528181611849015281816123fd01526126fb0152600081816102390152818161067b015261159f01526136f36000f3fe60806040523480156200001157600080fd5b5060043610620002195760003560e01c806372eb5f2b1162000125578063cd3ecbeb11620000af578063ebb3d589116200007a578063ebb3d589146200053b578063ed9eeb7f1462000562578063efcde9e31462000579578063ff845718146200059057600080fd5b8063cd3ecbeb14620004e4578063cebffb5814620004fb578063d5189add146200050d578063df369ba7146200052457600080fd5b806393a2ecd911620000f057806393a2ecd9146200049157806398f0d4bb14620004a35780639c9d48da14620004b65780639f9df78514620004cd57600080fd5b806372eb5f2b1462000422578063749cc8f5146200045e578063893d20e814620004705780638c500ea3146200047a57600080fd5b80634140d60711620001a757806354391f09116200017257806354391f091462000399578063682cea1914620003c85780636c579e5714620003da5780636f2b7574146200040b57600080fd5b80634140d60714620003255780634152cd54146200033c57806341deb20a146200036b5780634bacc5f7146200038257600080fd5b806336b4ea4f11620001e857806336b4ea4f14620002b857806338b3eb1b14620002e05780633b30dce714620002f75780633f84c12c146200030e57600080fd5b80630d2fcd76146200021e5780630ee2cb101462000237578063164dd2d4146200027657806334b9e1e51462000280575b600080fd5b620002356200022f36600462002a58565b620005a7565b005b7f00000000000000000000000000000000000000000000000000000000000000005b6040516001600160a01b0390911681526020015b60405180910390f35b6200023562000670565b620002976200029136600462002ae4565b62000912565b604080516001600160a01b039384168152929091166020830152016200026d565b620002cf620002c936600462002bb3565b62000ab9565b60405190151581526020016200026d565b62000235620002f136600462002c05565b62000b11565b620002356200030836600462002c43565b62000cee565b620002356200031f36600462002c5d565b62000d66565b620002356200033636600462002a58565b62000e89565b620002596200034d36600462002a58565b6001600160a01b039081166000908152600560205260409020541690565b620002596200037c36600462002cdc565b62000f42565b620002356200039336600462002d90565b620011c7565b620002cf620003aa36600462002a58565b6001600160a01b031660009081526004602052604090205460ff1690565b6002546001600160a01b031662000259565b620002cf620003eb36600462002a58565b6001600160a01b0390811660009081526007602052604090205416151590565b620002356200041c36600462002d90565b62001390565b620004396200043336600462002a58565b6200153e565b6040805182516001600160a01b0316815260209283015192810192909252016200026d565b6001546001600160a01b031662000259565b6200025962001587565b620002cf6200048b36600462002bb3565b6200164b565b6000546001600160a01b031662000259565b600254600160a01b900460ff16620002cf565b62000235620004c736600462002c05565b620016e4565b62000235620004de36600462002a58565b6200177e565b62000259620004f536600462002dd6565b62001837565b6003546040519081526020016200026d565b620002356200051e36600462002a58565b62001ac2565b620002356200053536600462002e2c565b50505050565b7f000000000000000000000000000000000000000000000000000000000000000062000259565b620002356200057336600462002ea7565b62001bcc565b620002356200058a36600462002ea7565b62001f7b565b62000235620005a136600462002a58565b620022c2565b620005b162001587565b6001600160a01b0316336001600160a01b031614620005ed5760405162461bcd60e51b8152600401620005e49062002fca565b60405180910390fd5b6000546001600160a01b031680156200061a5760405162461bcd60e51b8152600401620005e49062003018565b600080546001600160a01b0319166001600160a01b0384169081179091556040519081527f38e37d5fdf60e4358769c3b616594ad451626b1e023c65eaa1062116feadacf8906020015b60405180910390a15050565b336001600160a01b037f00000000000000000000000000000000000000000000000000000000000000001614620007105760405162461bcd60e51b815260206004820152603760248201527f73657452656c656173654c6976653a204f6e6c79207468652063726561746f7260448201527f2063616e2063616c6c20746869732066756e6374696f6e0000000000000000006064820152608401620005e4565b600254600160a01b900460ff16156200076c5760405162461bcd60e51b815260206004820152601c60248201527f73657452656c656173654c6976653a20416c7265616479206c697665000000006044820152606401620005e4565b6000546001600160a01b0316620007d85760405162461bcd60e51b815260206004820152602960248201527f73657452656c656173654c6976653a20636f6d7074726f6c6c65724c696220696044820152681cc81b9bdd081cd95d60ba1b6064820152608401620005e4565b6000620007ed6001546001600160a01b031690565b6001600160a01b0316036200085b5760405162461bcd60e51b815260206004820152602d60248201527f73657452656c656173654c6976653a2070726f746f636f6c466565547261636b60448201526c195c881a5cc81b9bdd081cd95d609a1b6064820152608401620005e4565b6000620008706002546001600160a01b031690565b6001600160a01b031603620008d45760405162461bcd60e51b815260206004820152602360248201527f73657452656c656173654c6976653a207661756c744c6962206973206e6f74206044820152621cd95d60ea1b6064820152608401620005e4565b6002805460ff60a01b1916600160a01b1790556040517f0356d4f8f825c1c2803d9e1f15724b6b8eea8992d04fad04da8bcbe6ff30296f90600090a1565b6000806200092a60025460ff600160a01b9091041690565b620009725760405162461bcd60e51b815260206004820152601760248201527652656c65617365206973206e6f7420796574206c69766560481b6044820152606401620005e4565b336200097d6200269b565b92506200098f89848a8a8a8a620026f7565b91506200099f818484876200281f565b826001600160a01b0316630f15f4c06040518163ffffffff1660e01b8152600401600060405180830381600087803b158015620009db57600080fd5b505af1158015620009f0573d6000803e3d6000fd5b5050505062000a076001546001600160a01b031690565b604051630a48e04160e01b81526001600160a01b0384811660048301529190911690630a48e04190602401600060405180830381600087803b15801562000a4d57600080fd5b505af115801562000a62573d6000803e3d6000fd5b5050604080516001600160a01b0386811682528781166020830152851693507f04dab3bc63cc7e4b52aa28a026644559e2937d78dbf7b81e26dfecdd8bbe33b992500160405180910390a250965096945050505050565b600060066000858560405160200162000ad49291906200304f565b60408051601f1981840301815291815281516020928301208352828201939093529082016000908120858252909152205460ff1690509392505050565b8162000b1e813362002905565b60007f0000000000000000000000000000000000000000000000000000000000000000604051630fb5b3f960e31b81526001600160a01b038681166004830152919250600091831690637dad9fc890602401608060405180830381865afa15801562000b8e573d6000803e3d6000fd5b505050506040513d601f19601f8201168201806040525081019062000bb491906200307b565b50506040516338b3eb1b60e01b81526001600160a01b038881166004830152871515602483015291935090841691506338b3eb1b90604401600060405180830381600087803b15801562000c0757600080fd5b505af115801562000c1c573d6000803e3d6000fd5b50505050806001600160a01b0316630f15f4c06040518163ffffffff1660e01b8152600401600060405180830381600087803b15801562000c5c57600080fd5b505af115801562000c71573d6000803e3d6000fd5b5050505062000c886001546001600160a01b031690565b604051630a48e04160e01b81526001600160a01b0387811660048301529190911690630a48e04190602401600060405180830381600087803b15801562000cce57600080fd5b505af115801562000ce3573d6000803e3d6000fd5b505050505050505050565b62000cf862001587565b6001600160a01b0316336001600160a01b03161462000d2b5760405162461bcd60e51b8152600401620005e49062002fca565b60038190556040518181527fa12f25dbb69b970318f8cc02d37f8cfe5bb3fec3a55630fd7e419d6dc42f1d919060200160405180910390a150565b336001600160a01b037f0000000000000000000000000000000000000000000000000000000000000000161462000def5760405162461bcd60e51b815260206004820152602660248201527f4f6e6c7920446973706174636865722063616e2063616c6c20746869732066756044820152653731ba34b7b760d11b6064820152608401620005e4565b600285600481111562000e065762000e06620030d5565b0362000e82576000846001600160a01b0316635a53e3486040518163ffffffff1660e01b8152600401602060405180830381865afa15801562000e4d573d6000803e3d6000fd5b505050506040513d601f19601f8201168201806040525081019062000e739190620030eb565b905062000e8081620029e0565b505b5050505050565b62000e9362001587565b6001600160a01b0316336001600160a01b03161462000ec65760405162461bcd60e51b8152600401620005e49062002fca565b6002546001600160a01b0316801562000ef35760405162461bcd60e51b8152600401620005e49062003018565b600280546001600160a01b0319166001600160a01b0384169081179091556040519081527f1e01982aac1b1376985c41ed48c69e04ff4c75107bfe0b8a4827693d2ddba04e9060200162000664565b600254600090600160a01b900460ff1662000f9a5760405162461bcd60e51b815260206004820152601760248201527652656c65617365206973206e6f7420796574206c69766560481b6044820152606401620005e4565b8362000fa7813362002905565b7f000000000000000000000000000000000000000000000000000000000000000060405163d0449d3d60e01b81526001600160a01b038781166004830152919091169063d0449d3d90602401602060405180830381865afa15801562001011573d6000803e3d6000fd5b505050506040513d601f19601f820116820180604052508101906200103791906200310b565b15620010ac5760405162461bcd60e51b815260206004820152603960248201527f6372656174654d6967726174696f6e526571756573743a2041204d696772617460448201527f696f6e5265717565737420616c726561647920657869737473000000000000006064820152608401620005e4565b620010b66200269b565b9150620010c6338387876200281f565b7f00000000000000000000000000000000000000000000000000000000000000006001600160a01b031663d15f9b9c86846200110a6002546001600160a01b031690565b60405160e085901b6001600160e01b03191681526001600160a01b039384166004820152918316602483015290911660448201528515156064820152608401600060405180830381600087803b1580156200116457600080fd5b505af115801562001179573d6000803e3d6000fd5b50506040516001600160a01b038581168252881692503391507f7cb609d1845028175b74ce1b27f0b41ba93711f8699a747463f0cf89c5c95b819060200160405180910390a3509392505050565b620011d162001587565b6001600160a01b0316336001600160a01b031614620012045760405162461bcd60e51b8152600401620005e49062002fca565b60005b818110156200138b57620012408383838181106200122957620012296200312b565b9050602002016020810190620003aa919062002a58565b620012b45760405162461bcd60e51b815260206004820152603960248201527f646572656769737465724275795368617265734f6e426568616c6643616c6c6560448201527f72733a2043616c6c6572206e6f742072656769737465726564000000000000006064820152608401620005e4565b600060046000858585818110620012cf57620012cf6200312b565b9050602002016020810190620012e6919062002a58565b6001600160a01b031681526020810191909152604001600020805460ff19169115159190911790557fe49a33dc7a73a9833a0358b29ef8d5fecbfff419af0c4fd9219f57a7147009c68383838181106200134457620013446200312b565b90506020020160208101906200135b919062002a58565b6040516001600160a01b03909116815260200160405180910390a180620013828162003157565b91505062001207565b505050565b6200139a62001587565b6001600160a01b0316336001600160a01b031614620013cd5760405162461bcd60e51b8152600401620005e49062002fca565b60005b818110156200138b57620013f28383838181106200122957620012296200312b565b15620014675760405162461bcd60e51b815260206004820152603b60248201527f72656769737465724275795368617265734f6e426568616c6643616c6c65727360448201527f3a2043616c6c657220616c7265616479207265676973746572656400000000006064820152608401620005e4565b6001600460008585858181106200148257620014826200312b565b905060200201602081019062001499919062002a58565b6001600160a01b031681526020810191909152604001600020805460ff19169115159190911790557f7b322f508cd6b0cc569822d5a028bb23e6698192d88a7b9669ab48fd68916eda838383818110620014f757620014f76200312b565b90506020020160208101906200150e919062002a58565b6040516001600160a01b03909116815260200160405180910390a180620015358162003157565b915050620013d0565b604080518082018252600080825260209182018190526001600160a01b039384168152600782528290208251808401909352805490931682526001909201549181019190915290565b600254600090600160a01b900460ff16620015c657507f000000000000000000000000000000000000000000000000000000000000000090565b905090565b7f00000000000000000000000000000000000000000000000000000000000000006001600160a01b031663893d20e86040518163ffffffff1660e01b8152600401602060405180830381865afa15801562001625573d6000803e3d6000fd5b505050506040513d601f19601f82011682018060405250810190620015c19190620030eb565b6000808484604051602001620016639291906200304f565b60408051601f19818403018152918152815160209283012060008181526006845282812087825290935291205490915060ff1680620016db575060008181526006602090815260408083207f5bf1898dd28c4d29f33c4c1bb9b8a7e2f6322847d70be63e8f89de024d08a669845290915290205460ff165b95945050505050565b81620016f1813362002905565b7f0000000000000000000000000000000000000000000000000000000000000000604051634e4ea46d60e11b81526001600160a01b03858116600483015284151560248301529190911690639c9d48da90604401600060405180830381600087803b1580156200176057600080fd5b505af115801562001775573d6000803e3d6000fd5b50505050505050565b6200178862001587565b6001600160a01b0316336001600160a01b031614620017bb5760405162461bcd60e51b8152600401620005e49062002fca565b6001546001600160a01b03168015620017e85760405162461bcd60e51b8152600401620005e49062003018565b600180546001600160a01b0319166001600160a01b0384169081179091556040519081527f1a8919bc714742db0ed6eb86960768bdd5103c1dabb914651aaec5796907db159060200162000664565b60003362001846848262002905565b307f00000000000000000000000000000000000000000000000000000000000000006040516307af8e9f60e31b81526001600160a01b0387811660048301529190911690633d7c74f890602401602060405180830381865afa158015620018b1573d6000803e3d6000fd5b505050506040513d601f19601f82011682018060405250810190620018d79190620030eb565b6001600160a01b031614620019555760405162461bcd60e51b815260206004820152603c60248201527f6372656174655265636f6e66696775726174696f6e526571756573743a20566160448201527f756c7450726f7879206e6f74206f6e20746869732072656c65617365000000006064820152608401620005e4565b6001600160a01b038085166000908152600760205260409020541615620019fc5760405162461bcd60e51b815260206004820152604e60248201527f6372656174655265636f6e66696775726174696f6e526571756573743a20566160448201527f756c7450726f78792068617320612070656e64696e67207265636f6e6669677560648201526d1c985d1a5bdb881c995c5d595cdd60921b608482015260a401620005e4565b62001a066200269b565b915062001a16818386866200281f565b600062001a2260035490565b62001a2e904262003173565b6040805180820182526001600160a01b0386811680835260208084018681528b8416600081815260078452879020955186546001600160a01b0319169086161786559051600190950194909455845191825281018590529394509092908516917fbc4a5bba58d663a7e6752f3a72d2737260a60caeec28e0bf880ee25711f7fe1e910160405180910390a350505b92915050565b8062001acf813362002905565b6001600160a01b03808316600090815260076020526040902054168062001b705760405162461bcd60e51b815260206004820152604860248201527f63616e63656c5265636f6e66696775726174696f6e3a204e6f207265636f6e6660448201527f696775726174696f6e20726571756573742065786973747320666f72205f7661606482015267756c7450726f787960c01b608482015260a401620005e4565b6001600160a01b0380841660008181526007602052604080822080546001600160a01b031916815560010182905551928416927f8eae645f408f18cb738736a49846a7ccb7a4ed8cdf9b960624ea965ffbe96e919190a3505050565b62001bd662001587565b6001600160a01b0316336001600160a01b03161462001c095760405162461bcd60e51b8152600401620005e49062002fca565b8362001c675760405162461bcd60e51b815260206004820152602660248201527f646572656769737465725661756c7443616c6c733a20456d707479205f636f6e60448201526574726163747360d01b6064820152608401620005e4565b838214801562001c775750805184145b62001cd75760405162461bcd60e51b815260206004820152602960248201527f646572656769737465725661756c7443616c6c733a20556e6576656e20696e7060448201526875742061727261797360b81b6064820152608401620005e4565b60005b8481101562000e805762001d6286868381811062001cfc5762001cfc6200312b565b905060200201602081019062001d13919062002a58565b85858481811062001d285762001d286200312b565b905060200201602081019062001d3f919062003189565b84848151811062001d545762001d546200312b565b602002602001015162000ab9565b62001dc25760405162461bcd60e51b815260206004820152602960248201527f646572656769737465725661756c7443616c6c733a2043616c6c206e6f7420726044820152681959da5cdd195c995960ba1b6064820152608401620005e4565b60006006600088888581811062001ddd5762001ddd6200312b565b905060200201602081019062001df4919062002a58565b87878681811062001e095762001e096200312b565b905060200201602081019062001e20919062003189565b60405160200162001e339291906200304f565b604051602081830303815290604052805190602001208152602001908152602001600020600084848151811062001e6e5762001e6e6200312b565b6020026020010151815260200190815260200160002060006101000a81548160ff02191690831515021790555085858281811062001eb05762001eb06200312b565b905060200201602081019062001ec7919062002a58565b6001600160a01b03167f845c9ef356cc5570a54e9eb6be3e6d95a2aaad4c4c7d7b2c0cf8c7cdd78d614d85858481811062001f065762001f066200312b565b905060200201602081019062001f1d919062003189565b84848151811062001f325762001f326200312b565b602002602001015160405162001f5e9291906001600160e01b0319929092168252602082015260400190565b60405180910390a28062001f728162003157565b91505062001cda565b62001f8562001587565b6001600160a01b0316336001600160a01b03161462001fb85760405162461bcd60e51b8152600401620005e49062002fca565b83620020135760405162461bcd60e51b8152602060048201526024808201527f72656769737465725661756c7443616c6c733a20456d707479205f636f6e74726044820152636163747360e01b6064820152608401620005e4565b8382148015620020235750805184145b620020815760405162461bcd60e51b815260206004820152602760248201527f72656769737465725661756c7443616c6c733a20556e6576656e20696e7075746044820152662061727261797360c81b6064820152608401620005e4565b60005b8481101562000e8057620020a686868381811062001cfc5762001cfc6200312b565b15620021095760405162461bcd60e51b815260206004820152602b60248201527f72656769737465725661756c7443616c6c733a2043616c6c20616c726561647960448201526a081c9959da5cdd195c995960aa1b6064820152608401620005e4565b6001600660008888858181106200212457620021246200312b565b90506020020160208101906200213b919062002a58565b8787868181106200215057620021506200312b565b905060200201602081019062002167919062003189565b6040516020016200217a9291906200304f565b6040516020818303038152906040528051906020012081526020019081526020016000206000848481518110620021b557620021b56200312b565b6020026020010151815260200190815260200160002060006101000a81548160ff021916908315150217905550858582818110620021f757620021f76200312b565b90506020020160208101906200220e919062002a58565b6001600160a01b03167fb1fbe377864edcbf521713f906125bd99a3638c7a9e4087f6a70019686a741d18585848181106200224d576200224d6200312b565b905060200201602081019062002264919062003189565b8484815181106200227957620022796200312b565b6020026020010151604051620022a59291906001600160e01b0319929092168252602082015260400190565b60405180910390a280620022b98162003157565b91505062002084565b80620022cf813362002905565b6000620022dc836200153e565b80519091506001600160a01b0316620023705760405162461bcd60e51b815260206004820152604960248201527f657865637574655265636f6e66696775726174696f6e3a204e6f207265636f6e60448201527f66696775726174696f6e20726571756573742065786973747320666f72205f7660648201526861756c7450726f787960b81b608482015260a401620005e4565b8060200151421015620023fa5760405162461bcd60e51b8152602060048201526044602482018190527f657865637574655265636f6e66696775726174696f6e3a20546865207265636f908201527f6e66696775726174696f6e2074696d656c6f636b20686173206e6f7420656c616064820152631c1cd95960e21b608482015260a401620005e4565b307f00000000000000000000000000000000000000000000000000000000000000006040516307af8e9f60e31b81526001600160a01b0386811660048301529190911690633d7c74f890602401602060405180830381865afa15801562002465573d6000803e3d6000fd5b505050506040513d601f19601f820116820180604052508101906200248b9190620030eb565b6001600160a01b0316146200250b576040805162461bcd60e51b81526020600482015260248101919091527f657865637574655265636f6e66696775726174696f6e3a205f7661756c74507260448201527f6f7879206973206e6f206c6f6e676572206f6e20746869732072656c656173656064820152608401620005e4565b6000836001600160a01b0316635a53e3486040518163ffffffff1660e01b8152600401602060405180830381865afa1580156200254c573d6000803e3d6000fd5b505050506040513d601f19601f82011682018060405250810190620025729190620030eb565b90506200257f81620029e0565b8151604051633a0795ad60e11b81526001600160a01b0391821660048201529085169063740f2b5a90602401600060405180830381600087803b158015620025c657600080fd5b505af1158015620025db573d6000803e3d6000fd5b5050505081600001516001600160a01b0316630f15f4c06040518163ffffffff1660e01b8152600401600060405180830381600087803b1580156200261f57600080fd5b505af115801562002634573d6000803e3d6000fd5b505050506001600160a01b0384811660008181526007602052604080822080546001600160a01b03191681556001018290558551905190841693851692917fa587629d93edeac6431610facaeec919890c8bc040ef849f720e42315148d7d991a450505050565b600080546001600160a01b0316604051620026b69062002a31565b60408082526000908201526001600160a01b039091166020820152606001604051809103906000f080158015620026f1573d6000803e3d6000fd5b50905090565b60007f00000000000000000000000000000000000000000000000000000000000000006001600160a01b03166322a0c08b6200273b6002546001600160a01b031690565b898989896040518663ffffffff1660e01b815260040162002761959493929190620031d0565b6020604051808303816000875af115801562002781573d6000803e3d6000fd5b505050506040513d601f19601f82011682018060405250810190620027a79190620030eb565b905081156200281557604051635c26412360e11b81526001600160a01b0382169063b84c824690620027e0908690869060040162003212565b600060405180830381600087803b158015620027fb57600080fd5b505af115801562002810573d6000803e3d6000fd5b505050505b9695505050505050565b6001600160a01b038381166000818152600560205260409081902080546001600160a01b0319169386169390931790925590516307cadcbd60e31b8152633e56e5e890620028749085908590600401620033ed565b600060405180830381600087803b1580156200288f57600080fd5b505af1158015620028a4573d6000803e3d6000fd5b50505050816001600160a01b0316836001600160a01b0316856001600160a01b03167f424534e81c98887963969e9f118161decf53e76dfbb702efef121634c571c05084604051620028f7919062003413565b60405180910390a450505050565b604051633ef03e7560e11b81526001600160a01b038281166004830152831690637de07cea90602401602060405180830381865afa1580156200294c573d6000803e3d6000fd5b505050506040513d601f19601f820116820180604052508101906200297291906200310b565b620029dc5760405162461bcd60e51b815260206004820152603360248201527f4f6e6c792061207065726d697373696f6e6564206d69677261746f722063616e6044820152721031b0b636103a3434b990333ab731ba34b7b760691b6064820152608401620005e4565b5050565b806001600160a01b03166351b42b006040518163ffffffff1660e01b8152600401600060405180830381600087803b15801562002a1c57600080fd5b505af115801562000e82573d6000803e3d6000fd5b6102ca806200342983390190565b6001600160a01b038116811462002a5557600080fd5b50565b60006020828403121562002a6b57600080fd5b813562002a788162002a3f565b9392505050565b60008083601f84011262002a9257600080fd5b50813567ffffffffffffffff81111562002aab57600080fd5b60208301915083602082850101111562002ac457600080fd5b9250929050565b600060a0828403121562002ade57600080fd5b50919050565b6000806000806000806080878903121562002afe57600080fd5b863562002b0b8162002a3f565b9550602087013567ffffffffffffffff8082111562002b2957600080fd5b62002b378a838b0162002a7f565b9097509550604089013591508082111562002b5157600080fd5b62002b5f8a838b0162002a7f565b9095509350606089013591508082111562002b7957600080fd5b5062002b8889828a0162002acb565b9150509295509295509295565b80356001600160e01b03198116811462002bae57600080fd5b919050565b60008060006060848603121562002bc957600080fd5b833562002bd68162002a3f565b925062002be66020850162002b95565b9150604084013590509250925092565b801515811462002a5557600080fd5b6000806040838503121562002c1957600080fd5b823562002c268162002a3f565b9150602083013562002c388162002bf6565b809150509250929050565b60006020828403121562002c5657600080fd5b5035919050565b600080600080600060a0868803121562002c7657600080fd5b85356005811062002c8657600080fd5b9450602086013562002c988162002a3f565b9350604086013562002caa8162002a3f565b9250606086013562002cbc8162002a3f565b9150608086013562002cce8162002a3f565b809150509295509295909350565b60008060006060848603121562002cf257600080fd5b833562002cff8162002a3f565b9250602084013567ffffffffffffffff81111562002d1c57600080fd5b62002d2a8682870162002acb565b925050604084013562002d3d8162002bf6565b809150509250925092565b60008083601f84011262002d5b57600080fd5b50813567ffffffffffffffff81111562002d7457600080fd5b6020830191508360208260051b850101111562002ac457600080fd5b6000806020838503121562002da457600080fd5b823567ffffffffffffffff81111562002dbc57600080fd5b62002dca8582860162002d48565b90969095509350505050565b6000806040838503121562002dea57600080fd5b823562002df78162002a3f565b9150602083013567ffffffffffffffff81111562002e1457600080fd5b62002e228582860162002acb565b9150509250929050565b6000806000806080858703121562002e4357600080fd5b843562002e508162002a3f565b9350602085013562002e628162002a3f565b9250604085013562002e748162002a3f565b9150606085013562002e868162002a3f565b939692955090935050565b634e487b7160e01b600052604160045260246000fd5b60008060008060006060868803121562002ec057600080fd5b853567ffffffffffffffff8082111562002ed957600080fd5b62002ee789838a0162002d48565b909750955060209150878201358181111562002f0257600080fd5b62002f108a828b0162002d48565b90965094505060408801358181111562002f2957600080fd5b8801601f81018a1362002f3b57600080fd5b80358281111562002f505762002f5062002e91565b8060051b604051601f19603f8301168101818110868211171562002f785762002f7862002e91565b60405291825284820193508281018501918c83111562002f9757600080fd5b928501925b8284101562002fb75783358552938501939285019262002f9c565b8096505050505050509295509295909350565b6020808252602e908201527f4f6e6c792074686520636f6e7472616374206f776e65722063616e2063616c6c60408201526d103a3434b990333ab731ba34b7b760911b606082015260800190565b6020808252601f908201527f546869732076616c75652063616e206f6e6c7920626520736574206f6e636500604082015260600190565b60609290921b6bffffffffffffffffffffffff191682526001600160e01b031916601482015260180190565b600080600080608085870312156200309257600080fd5b84516200309f8162002a3f565b6020860151909450620030b28162002a3f565b6040860151909350620030c58162002a3f565b6060959095015193969295505050565b634e487b7160e01b600052602160045260246000fd5b600060208284031215620030fe57600080fd5b815162002a788162002a3f565b6000602082840312156200311e57600080fd5b815162002a788162002bf6565b634e487b7160e01b600052603260045260246000fd5b634e487b7160e01b600052601160045260246000fd5b6000600182016200316c576200316c62003141565b5060010190565b8082018082111562001abc5762001abc62003141565b6000602082840312156200319c57600080fd5b62002a788262002b95565b81835281816020850137506000828201602090810191909152601f909101601f19169091010190565b6001600160a01b038681168252858116602083015284166040820152608060608201819052600090620032079083018486620031a7565b979650505050505050565b60208152600062003228602083018486620031a7565b949350505050565b6000808335601e198436030181126200324857600080fd5b830160208101925035905067ffffffffffffffff8111156200326957600080fd5b80360382131562002ac457600080fd5b81835260006020808501808196508560051b81019150846000805b888110156200330c578385038a528235603e19893603018112620032b6578283fd5b880160408135620032c78162002a3f565b6001600160a01b03168752620032e08289018362003230565b92508189890152620032f68289018483620031a7565b9c89019c97505050928601925060010162003294565b509298975050505050505050565b60008135620033298162002a3f565b6001600160a01b03168352602082810135908401526200334d604083018362003230565b60a060408601526200336460a086018284620031a7565b91505062003376606084018462003230565b85830360608701526200338b838284620031a7565b925050506080830135601e19843603018112620033a757600080fd5b830160208101903567ffffffffffffffff811115620033c557600080fd5b8060051b3603821315620033d857600080fd5b85830360808701526200281583828462003279565b6001600160a01b038316815260406020820181905260009062003228908301846200331a565b60208152600062002a7860208301846200331a56fe60a060405234801561001057600080fd5b506040516102ca3803806102ca83398101604081905261002f91610157565b6001600160a01b0381166080527f360894a13ba1a3210667c828492db98dca3e2076cc3735a920a3ca505d382bbc819055815182908290156100f857600080826001600160a01b0316846040516100869190610216565b600060405180830381855af49150503d80600081146100c1576040519150601f19603f3d011682016040523d82523d6000602084013e6100c6565b606091505b50915091508181906100f45760405162461bcd60e51b81526004016100eb9190610232565b60405180910390fd5b5050505b50505050610265565b634e487b7160e01b600052604160045260246000fd5b60005b8381101561013257818101518382015260200161011a565b50506000910152565b80516001600160a01b038116811461015257600080fd5b919050565b6000806040838503121561016a57600080fd5b82516001600160401b038082111561018157600080fd5b818501915085601f83011261019557600080fd5b8151818111156101a7576101a7610101565b604051601f8201601f19908116603f011681019083821181831017156101cf576101cf610101565b816040528281528860208487010111156101e857600080fd5b6101f9836020830160208801610117565b809650505050505061020d6020840161013b565b90509250929050565b60008251610228818460208701610117565b9190910192915050565b6020815260008251806020840152610251816040850160208701610117565b601f01601f19169190910160400192915050565b608051604d61027d600039600060060152604d6000f3fe60806040527f00000000000000000000000000000000000000000000000000000000000000003660008037600080366000846127105a03f43d806000803e818015604857816000f35b816000fd","linkReferences":{}},"methodIdentifiers":{"cancelMigration(address,bool)":"9c9d48da","cancelReconfiguration(address)":"d5189add","createMigrationRequest(address,(address,uint256,bytes,bytes,(address,bytes)[]),bool)":"41deb20a","createNewFund(address,string,string,(address,uint256,bytes,bytes,(address,bytes)[]))":"34b9e1e5","createReconfigurationRequest(address,(address,uint256,bytes,bytes,(address,bytes)[]))":"cd3ecbeb","deregisterBuySharesOnBehalfCallers(address[])":"4bacc5f7","deregisterVaultCalls(address[],bytes4[],bytes32[])":"ed9eeb7f","executeMigration(address,bool)":"38b3eb1b","executeReconfiguration(address)":"ff845718","getComptrollerLib()":"93a2ecd9","getCreator()":"0ee2cb10","getDispatcher()":"ebb3d589","getOwner()":"893d20e8","getProtocolFeeTracker()":"749cc8f5","getReconfigurationRequestForVaultProxy(address)":"72eb5f2b","getReconfigurationTimelock()":"cebffb58","getVaultLib()":"682cea19","getVaultProxyForComptrollerProxy(address)":"4152cd54","hasReconfigurationRequest(address)":"6c579e57","invokeMigrationInCancelHook(address,address,address,address)":"df369ba7","invokeMigrationOutHook(uint8,address,address,address,address)":"3f84c12c","isAllowedBuySharesOnBehalfCaller(address)":"54391f09","isAllowedVaultCall(address,bytes4,bytes32)":"8c500ea3","isRegisteredVaultCall(address,bytes4,bytes32)":"36b4ea4f","registerBuySharesOnBehalfCallers(address[])":"6f2b7574","registerVaultCalls(address[],bytes4[],bytes32[])":"efcde9e3","releaseIsLive()":"98f0d4bb","setComptrollerLib(address)":"0d2fcd76","setProtocolFeeTracker(address)":"9f9df785","setReconfigurationTimelock(uint256)":"3b30dce7","setReleaseLive()":"164dd2d4","setVaultLib(address)":"4140d607"},"id":82}