{"abi":[{"type":"constructor","inputs":[{"name":"_dispatcher","type":"address","internalType":"address"}],"stateMutability":"nonpayable"},{"type":"function","name":"cancelMigration","inputs":[{"name":"_vaultProxy","type":"address","internalType":"address"},{"name":"_bypassPrevReleaseFailure","type":"bool","internalType":"bool"}],"outputs":[],"stateMutability":"nonpayable"},{"type":"function","name":"cancelReconfiguration","inputs":[{"name":"_vaultProxy","type":"address","internalType":"address"}],"outputs":[],"stateMutability":"nonpayable"},{"type":"function","name":"createMigrationRequest","inputs":[{"name":"_vaultProxy","type":"address","internalType":"address"},{"name":"_comptrollerConfig","type":"tuple","internalType":"struct IComptroller.ConfigInput","components":[{"name":"denominationAsset","type":"address","internalType":"address"},{"name":"sharesActionTimelock","type":"uint256","internalType":"uint256"},{"name":"feeManagerConfigData","type":"bytes","internalType":"bytes"},{"name":"policyManagerConfigData","type":"bytes","internalType":"bytes"},{"name":"extensionsConfig","type":"tuple[]","internalType":"struct IComptroller.ExtensionConfigInput[]","components":[{"name":"extension","type":"address","internalType":"address"},{"name":"configData","type":"bytes","internalType":"bytes"}]}]},{"name":"_bypassPrevReleaseFailure","type":"bool","internalType":"bool"}],"outputs":[{"name":"comptrollerProxy_","type":"address","internalType":"address"}],"stateMutability":"nonpayable"},{"type":"function","name":"createNewFund","inputs":[{"name":"_fundOwner","type":"address","internalType":"address"},{"name":"_fundName","type":"string","internalType":"string"},{"name":"_fundSymbol","type":"string","internalType":"string"},{"name":"_comptrollerConfig","type":"tuple","internalType":"struct IComptroller.ConfigInput","components":[{"name":"denominationAsset","type":"address","internalType":"address"},{"name":"sharesActionTimelock","type":"uint256","internalType":"uint256"},{"name":"feeManagerConfigData","type":"bytes","internalType":"bytes"},{"name":"policyManagerConfigData","type":"bytes","internalType":"bytes"},{"name":"extensionsConfig","type":"tuple[]","internalType":"struct IComptroller.ExtensionConfigInput[]","components":[{"name":"extension","type":"address","internalType":"address"},{"name":"configData","type":"bytes","internalType":"bytes"}]}]}],"outputs":[{"name":"comptrollerProxy_","type":"address","internalType":"address"},{"name":"vaultProxy_","type":"address","internalType":"address"}],"stateMutability":"nonpayable"},{"type":"function","name":"createReconfigurationRequest","inputs":[{"name":"_vaultProxy","type":"address","internalType":"address"},{"name":"_comptrollerConfig","type":"tuple","internalType":"struct IComptroller.ConfigInput","components":[{"name":"denominationAsset","type":"address","internalType":"address"},{"name":"sharesActionTimelock","type":"uint256","internalType":"uint256"},{"name":"feeManagerConfigData","type":"bytes","internalType":"bytes"},{"name":"policyManagerConfigData","type":"bytes","internalType":"bytes"},{"name":"extensionsConfig","type":"tuple[]","internalType":"struct IComptroller.ExtensionConfigInput[]","components":[{"name":"extension","type":"address","internalType":"address"},{"name":"configData","type":"bytes","internalType":"bytes"}]}]}],"outputs":[{"name":"comptrollerProxy_","type":"address","internalType":"address"}],"stateMutability":"nonpayable"},{"type":"function","name":"deregisterBuySharesOnBehalfCallers","inputs":[{"name":"_callers","type":"address[]","internalType":"address[]"}],"outputs":[],"stateMutability":"nonpayable"},{"type":"function","name":"deregisterVaultCalls","inputs":[{"name":"_contracts","type":"address[]","internalType":"address[]"},{"name":"_selectors","type":"bytes4[]","internalType":"bytes4[]"},{"name":"_dataHashes","type":"bytes32[]","internalType":"bytes32[]"}],"outputs":[],"stateMutability":"nonpayable"},{"type":"function","name":"executeMigration","inputs":[{"name":"_vaultProxy","type":"address","internalType":"address"},{"name":"_bypassPrevReleaseFailure","type":"bool","internalType":"bool"}],"outputs":[],"stateMutability":"nonpayable"},{"type":"function","name":"executeReconfiguration","inputs":[{"name":"_vaultProxy","type":"address","internalType":"address"}],"outputs":[],"stateMutability":"nonpayable"},{"type":"function","name":"getComptrollerLib","inputs":[],"outputs":[{"name":"comptrollerLib_","type":"address","internalType":"address"}],"stateMutability":"view"},{"type":"function","name":"getCreator","inputs":[],"outputs":[{"name":"creator_","type":"address","internalType":"address"}],"stateMutability":"view"},{"type":"function","name":"getDispatcher","inputs":[],"outputs":[{"name":"dispatcher_","type":"address","internalType":"address"}],"stateMutability":"view"},{"type":"function","name":"getOwner","inputs":[],"outputs":[{"name":"owner_","type":"address","internalType":"address"}],"stateMutability":"view"},{"type":"function","name":"getProtocolFeeTracker","inputs":[],"outputs":[{"name":"protocolFeeTracker_","type":"address","internalType":"address"}],"stateMutability":"view"},{"type":"function","name":"getReconfigurationRequestForVaultProxy","inputs":[{"name":"_vaultProxy","type":"address","internalType":"address"}],"outputs":[{"name":"reconfigurationRequest_","type":"tuple","internalType":"struct IFundDeployer.ReconfigurationRequest","components":[{"name":"nextComptrollerProxy","type":"address","internalType":"address"},{"name":"executableTimestamp","type":"uint256","internalType":"uint256"}]}],"stateMutability":"view"},{"type":"function","name":"getReconfigurationTimelock","inputs":[],"outputs":[{"name":"reconfigurationTimelock_","type":"uint256","internalType":"uint256"}],"stateMutability":"view"},{"type":"function","name":"getVaultLib","inputs":[],"outputs":[{"name":"vaultLib_","type":"address","internalType":"address"}],"stateMutability":"view"},{"type":"function","name":"getVaultProxyForComptrollerProxy","inputs":[{"name":"_comptrollerProxy","type":"address","internalType":"address"}],"outputs":[{"name":"vaultProxy_","type":"address","internalType":"address"}],"stateMutability":"view"},{"type":"function","name":"hasReconfigurationRequest","inputs":[{"name":"_vaultProxy","type":"address","internalType":"address"}],"outputs":[{"name":"hasReconfigurationRequest_","type":"bool","internalType":"bool"}],"stateMutability":"view"},{"type":"function","name":"invokeMigrationInCancelHook","inputs":[{"name":"","type":"address","internalType":"address"},{"name":"","type":"address","internalType":"address"},{"name":"","type":"address","internalType":"address"},{"name":"","type":"address","internalType":"address"}],"outputs":[],"stateMutability":"nonpayable"},{"type":"function","name":"invokeMigrationOutHook","inputs":[{"name":"_hook","type":"uint8","internalType":"enum IMigrationHookHandler.MigrationOutHook"},{"name":"_vaultProxy","type":"address","internalType":"address"},{"name":"","type":"address","internalType":"address"},{"name":"","type":"address","internalType":"address"},{"name":"","type":"address","internalType":"address"}],"outputs":[],"stateMutability":"nonpayable"},{"type":"function","name":"isAllowedBuySharesOnBehalfCaller","inputs":[{"name":"_who","type":"address","internalType":"address"}],"outputs":[{"name":"isAllowed_","type":"bool","internalType":"bool"}],"stateMutability":"view"},{"type":"function","name":"isAllowedVaultCall","inputs":[{"name":"_contract","type":"address","internalType":"address"},{"name":"_selector","type":"bytes4","internalType":"bytes4"},{"name":"_dataHash","type":"bytes32","internalType":"bytes32"}],"outputs":[{"name":"isAllowed_","type":"bool","internalType":"bool"}],"stateMutability":"view"},{"type":"function","name":"isRegisteredVaultCall","inputs":[{"name":"_contract","type":"address","internalType":"address"},{"name":"_selector","type":"bytes4","internalType":"bytes4"},{"name":"_dataHash","type":"bytes32","internalType":"bytes32"}],"outputs":[{"name":"isRegistered_","type":"bool","internalType":"bool"}],"stateMutability":"view"},{"type":"function","name":"registerBuySharesOnBehalfCallers","inputs":[{"name":"_callers","type":"address[]","internalType":"address[]"}],"outputs":[],"stateMutability":"nonpayable"},{"type":"function","name":"registerVaultCalls","inputs":[{"name":"_contracts","type":"address[]","internalType":"address[]"},{"name":"_selectors","type":"bytes4[]","internalType":"bytes4[]"},{"name":"_dataHashes","type":"bytes32[]","internalType":"bytes32[]"}],"outputs":[],"stateMutability":"nonpayable"},{"type":"function","name":"releaseIsLive","inputs":[],"outputs":[{"name":"isLive_","type":"bool","internalType":"bool"}],"stateMutability":"view"},{"type":"function","name":"setComptrollerLib","inputs":[{"name":"_comptrollerLib","type":"address","internalType":"address"}],"outputs":[],"stateMutability":"nonpayable"},{"type":"function","name":"setProtocolFeeTracker","inputs":[{"name":"_protocolFeeTracker","type":"address","internalType":"address"}],"outputs":[],"stateMutability":"nonpayable"},{"type":"function","name":"setReconfigurationTimelock","inputs":[{"name":"_nextTimelock","type":"uint256","internalType":"uint256"}],"outputs":[],"stateMutability":"nonpayable"},{"type":"function","name":"setReleaseLive","inputs":[],"outputs":[],"stateMutability":"nonpayable"},{"type":"function","name":"setVaultLib","inputs":[{"name":"_vaultLib","type":"address","internalType":"address"}],"outputs":[],"stateMutability":"nonpayable"},{"type":"event","name":"BuySharesOnBehalfCallerDeregistered","inputs":[{"name":"caller","type":"address","indexed":false,"internalType":"address"}],"anonymous":false},{"type":"event","name":"BuySharesOnBehalfCallerRegistered","inputs":[{"name":"caller","type":"address","indexed":false,"internalType":"address"}],"anonymous":false},{"type":"event","name":"ComptrollerLibSet","inputs":[{"name":"comptrollerLib","type":"address","indexed":false,"internalType":"address"}],"anonymous":false},{"type":"event","name":"ComptrollerProxyDeployed","inputs":[{"name":"creator","type":"address","indexed":true,"internalType":"address"},{"name":"comptrollerProxy","type":"address","indexed":true,"internalType":"address"},{"name":"vaultProxy","type":"address","indexed":true,"internalType":"address"},{"name":"comptrollerConfig","type":"tuple","indexed":false,"internalType":"struct IComptroller.ConfigInput","components":[{"name":"denominationAsset","type":"address","internalType":"address"},{"name":"sharesActionTimelock","type":"uint256","internalType":"uint256"},{"name":"feeManagerConfigData","type":"bytes","internalType":"bytes"},{"name":"policyManagerConfigData","type":"bytes","internalType":"bytes"},{"name":"extensionsConfig","type":"tuple[]","internalType":"struct IComptroller.ExtensionConfigInput[]","components":[{"name":"extension","type":"address","internalType":"address"},{"name":"configData","type":"bytes","internalType":"bytes"}]}]}],"anonymous":false},{"type":"event","name":"MigrationRequestCreated","inputs":[{"name":"creator","type":"address","indexed":true,"internalType":"address"},{"name":"vaultProxy","type":"address","indexed":true,"internalType":"address"},{"name":"comptrollerProxy","type":"address","indexed":false,"internalType":"address"}],"anonymous":false},{"type":"event","name":"NewFundCreated","inputs":[{"name":"creator","type":"address","indexed":true,"internalType":"address"},{"name":"vaultProxy","type":"address","indexed":false,"internalType":"address"},{"name":"comptrollerProxy","type":"address","indexed":false,"internalType":"address"}],"anonymous":false},{"type":"event","name":"ProtocolFeeTrackerSet","inputs":[{"name":"protocolFeeTracker","type":"address","indexed":false,"internalType":"address"}],"anonymous":false},{"type":"event","name":"ReconfigurationRequestCancelled","inputs":[{"name":"vaultProxy","type":"address","indexed":true,"internalType":"address"},{"name":"nextComptrollerProxy","type":"address","indexed":true,"internalType":"address"}],"anonymous":false},{"type":"event","name":"ReconfigurationRequestCreated","inputs":[{"name":"creator","type":"address","indexed":true,"internalType":"address"},{"name":"vaultProxy","type":"address","indexed":true,"internalType":"address"},{"name":"comptrollerProxy","type":"address","indexed":false,"internalType":"address"},{"name":"executableTimestamp","type":"uint256","indexed":false,"internalType":"uint256"}],"anonymous":false},{"type":"event","name":"ReconfigurationRequestExecuted","inputs":[{"name":"vaultProxy","type":"address","indexed":true,"internalType":"address"},{"name":"prevComptrollerProxy","type":"address","indexed":true,"internalType":"address"},{"name":"nextComptrollerProxy","type":"address","indexed":true,"internalType":"address"}],"anonymous":false},{"type":"event","name":"ReconfigurationTimelockSet","inputs":[{"name":"nextTimelock","type":"uint256","indexed":false,"internalType":"uint256"}],"anonymous":false},{"type":"event","name":"ReleaseIsLive","inputs":[],"anonymous":false},{"type":"event","name":"VaultCallDeregistered","inputs":[{"name":"contractAddress","type":"address","indexed":true,"internalType":"address"},{"name":"selector","type":"bytes4","indexed":false,"internalType":"bytes4"},{"name":"dataHash","type":"bytes32","indexed":false,"internalType":"bytes32"}],"anonymous":false},{"type":"event","name":"VaultCallRegistered","inputs":[{"name":"contractAddress","type":"address","indexed":true,"internalType":"address"},{"name":"selector","type":"bytes4","indexed":false,"internalType":"bytes4"},{"name":"dataHash","type":"bytes32","indexed":false,"internalType":"bytes32"}],"anonymous":false},{"type":"event","name":"VaultLibSet","inputs":[{"name":"vaultLib","type":"address","indexed":false,"internalType":"address"}],"anonymous":false}],"bytecode":{"object":"0x60c06040523480156200001157600080fd5b5060405162003f4c38038062003f4c8339810160408190526200003491620000ff565b60405160200162000045906200012c565b604051602081830303815290604052805190602001207f5bf1898dd28c4d29f33c4c1bb9b8a7e2f6322847d70be63e8f89de024d08a66960001b14620000a85760405162461bcd60e51b81526004016200009f906200014f565b60405180910390fd5b336080526001600160a01b031660a0526202a30060035562000199565b60006001600160a01b0382165b92915050565b620000e381620000c5565b8114620000ef57600080fd5b50565b8051620000d281620000d8565b600060208284031215620001165762000116600080fd5b6000620001248484620000f2565b949350505050565b706d6c6e2e7661756c7443616c6c2e616e7960781b8152600060118201620000d2565b60208082528101620000d281602581527f636f6e7374727563746f723a20496e636f727265637420414e595f5641554c5460208201526417d0d0531360da1b604082015260600190565b60805160a051613d406200020c6000396000818161050f0152818161099501528181610be101528181610dc501528181610e7c015281816112b8015281816113f80152818161154901528181611d6f0152611ff401526000818161023901528181610650015261128f0152613d406000f3fe60806040523480156200001157600080fd5b5060043610620002195760003560e01c806372eb5f2b1162000125578063cd3ecbeb11620000af578063ebb3d589116200007a578063ebb3d589146200050d578063ed9eeb7f1462000534578063efcde9e3146200054b578063ff845718146200056257600080fd5b8063cd3ecbeb14620004b6578063cebffb5814620004cd578063d5189add14620004df578063df369ba714620004f657600080fd5b806393a2ecd911620000f057806393a2ecd9146200046357806398f0d4bb14620004755780639c9d48da14620004885780639f9df785146200049f57600080fd5b806372eb5f2b146200040a578063749cc8f51462000430578063893d20e814620004425780638c500ea3146200044c57600080fd5b80634140d60711620001a757806354391f09116200017257806354391f091462000381578063682cea1914620003b05780636c579e5714620003c25780636f2b757414620003f357600080fd5b80634140d607146200030d5780634152cd54146200032457806341deb20a14620003535780634bacc5f7146200036a57600080fd5b806336b4ea4f11620001e857806336b4ea4f14620002a257806338b3eb1b14620002c85780633b30dce714620002df5780633f84c12c14620002f657600080fd5b80630d2fcd76146200021e5780630ee2cb101462000237578063164dd2d4146200027157806334b9e1e5146200027b575b600080fd5b620002356200022f3660046200232b565b62000579565b005b7f00000000000000000000000000000000000000000000000000000000000000005b60405162000268919062002369565b60405180910390f35b6200023562000645565b620002926200028c366004620023ed565b620007a2565b60405162000268929190620024b7565b620002b9620002b336600462002508565b62000920565b60405162000268919062002569565b62000235620002d93660046200258f565b62000979565b62000235620002f0366004620025d2565b62000b57565b620002356200030736600462002612565b62000bd6565b620002356200031e3660046200232b565b62000cbb565b62000259620003353660046200232b565b6001600160a01b039081166000908152600560205260409020541690565b620002596200036436600462002696565b62000d72565b620002356200037b36600462002750565b62000f69565b620002b9620003923660046200232b565b6001600160a01b031660009081526004602052604090205460ff1690565b6002546001600160a01b031662000259565b620002b9620003d33660046200232b565b6001600160a01b0390811660009081526007602052604090205416151590565b620002356200040436600462002750565b620010d9565b620004216200041b3660046200232b565b6200122e565b604051620002689190620027cc565b6001546001600160a01b031662000259565b6200025962001277565b620002b96200045d36600462002508565b6200133b565b6000546001600160a01b031662000259565b600254600160a01b900460ff16620002b9565b62000235620004993660046200258f565b620013d4565b62000235620004b03660046200232b565b6200146a565b62000259620004c7366004620027dc565b62001521565b60035460405162000268919062002831565b62000235620004f03660046200232b565b620016f3565b620002356200050736600462002841565b50505050565b7f000000000000000000000000000000000000000000000000000000000000000062000259565b6200023562000545366004620029cb565b62001797565b620002356200055c366004620029cb565b62001a72565b62000235620005733660046200232b565b62001ce8565b6200058362001277565b6001600160a01b0316336001600160a01b031614620005bf5760405162461bcd60e51b8152600401620005b69062002ac1565b60405180910390fd5b6000546001600160a01b03168015620005ec5760405162461bcd60e51b8152600401620005b69062002b0a565b600080546001600160a01b0319166001600160a01b0384161790556040517f38e37d5fdf60e4358769c3b616594ad451626b1e023c65eaa1062116feadacf8906200063990849062002369565b60405180910390a15050565b336001600160a01b037f00000000000000000000000000000000000000000000000000000000000000001614620006905760405162461bcd60e51b8152600401620005b69062002b77565b600254600160a01b900460ff1615620006bd5760405162461bcd60e51b8152600401620005b69062002bbe565b6000546001600160a01b0316620006e85760405162461bcd60e51b8152600401620005b69062002c17565b6000620006fd6001546001600160a01b031690565b6001600160a01b031603620007265760405162461bcd60e51b8152600401620005b69062002c74565b60006200073b6002546001600160a01b031690565b6001600160a01b031603620007645760405162461bcd60e51b8152600401620005b69062002cc7565b6002805460ff60a01b1916600160a01b1790556040517f0356d4f8f825c1c2803d9e1f15724b6b8eea8992d04fad04da8bcbe6ff30296f90600090a1565b600080620007ba60025460ff600160a01b9091041690565b620007d95760405162461bcd60e51b8152600401620005b69062002d0e565b33620007e462001fa6565b9250620007f689848a8a8a8a62001ff0565b9150620008068184848762002118565b826001600160a01b0316630f15f4c06040518163ffffffff1660e01b8152600401600060405180830381600087803b1580156200084257600080fd5b505af115801562000857573d6000803e3d6000fd5b505050506200086e6001546001600160a01b031690565b6001600160a01b0316630a48e041836040518263ffffffff1660e01b81526004016200089b919062002369565b600060405180830381600087803b158015620008b657600080fd5b505af1158015620008cb573d6000803e3d6000fd5b50505050806001600160a01b03167f04dab3bc63cc7e4b52aa28a026644559e2937d78dbf7b81e26dfecdd8bbe33b983856040516200090c929190620024b7565b60405180910390a250965096945050505050565b60006006600085856040516020016200093b92919062002d60565b60408051601f1981840301815291815281516020928301208352828201939093529082016000908120858252909152205460ff1690505b9392505050565b81620009868133620021fe565b604051630fb5b3f960e31b81527f0000000000000000000000000000000000000000000000000000000000000000906000906001600160a01b03831690637dad9fc890620009d990889060040162002369565b608060405180830381865afa158015620009f7573d6000803e3d6000fd5b505050506040513d601f19601f8201168201806040525081019062000a1d919062002da4565b50506040516338b3eb1b60e01b81529092506001600160a01b03841691506338b3eb1b9062000a53908890889060040162002e06565b600060405180830381600087803b15801562000a6e57600080fd5b505af115801562000a83573d6000803e3d6000fd5b50505050806001600160a01b0316630f15f4c06040518163ffffffff1660e01b8152600401600060405180830381600087803b15801562000ac357600080fd5b505af115801562000ad8573d6000803e3d6000fd5b5050505062000aef6001546001600160a01b031690565b6001600160a01b0316630a48e041866040518263ffffffff1660e01b815260040162000b1c919062002369565b600060405180830381600087803b15801562000b3757600080fd5b505af115801562000b4c573d6000803e3d6000fd5b505050505050505050565b62000b6162001277565b6001600160a01b0316336001600160a01b03161462000b945760405162461bcd60e51b8152600401620005b69062002ac1565b60038190556040517fa12f25dbb69b970318f8cc02d37f8cfe5bb3fec3a55630fd7e419d6dc42f1d919062000bcb90839062002831565b60405180910390a150565b336001600160a01b037f0000000000000000000000000000000000000000000000000000000000000000161462000c215760405162461bcd60e51b8152600401620005b69062002e69565b600285600481111562000c385762000c3862002e7b565b0362000cb4576000846001600160a01b0316635a53e3486040518163ffffffff1660e01b8152600401602060405180830381865afa15801562000c7f573d6000803e3d6000fd5b505050506040513d601f19601f8201168201806040525081019062000ca5919062002e91565b905062000cb28162002293565b505b5050505050565b62000cc562001277565b6001600160a01b0316336001600160a01b03161462000cf85760405162461bcd60e51b8152600401620005b69062002ac1565b6002546001600160a01b0316801562000d255760405162461bcd60e51b8152600401620005b69062002b0a565b600280546001600160a01b0319166001600160a01b0384161790556040517f1e01982aac1b1376985c41ed48c69e04ff4c75107bfe0b8a4827693d2ddba04e906200063990849062002369565b600254600090600160a01b900460ff1662000da15760405162461bcd60e51b8152600401620005b69062002d0e565b8362000dae8133620021fe565b60405163d0449d3d60e01b81526001600160a01b037f0000000000000000000000000000000000000000000000000000000000000000169063d0449d3d9062000dfc90889060040162002369565b602060405180830381865afa15801562000e1a573d6000803e3d6000fd5b505050506040513d601f19601f8201168201806040525081019062000e40919062002ec3565b1562000e605760405162461bcd60e51b8152600401620005b69062002f43565b62000e6a62001fa6565b915062000e7a3383878762002118565b7f00000000000000000000000000000000000000000000000000000000000000006001600160a01b031663d15f9b9c868462000ebe6002546001600160a01b031690565b876040518563ffffffff1660e01b815260040162000ee0949392919062002f55565b600060405180830381600087803b15801562000efb57600080fd5b505af115801562000f10573d6000803e3d6000fd5b50505050846001600160a01b0316336001600160a01b03167f7cb609d1845028175b74ce1b27f0b41ba93711f8699a747463f0cf89c5c95b818460405162000f59919062002369565b60405180910390a3509392505050565b62000f7362001277565b6001600160a01b0316336001600160a01b03161462000fa65760405162461bcd60e51b8152600401620005b69062002ac1565b60005b81811015620010d45762000fe283838381811062000fcb5762000fcb62002f92565b90506020020160208101906200039291906200232b565b620010015760405162461bcd60e51b8152600401620005b69062003003565b6000600460008585858181106200101c576200101c62002f92565b90506020020160208101906200103391906200232b565b6001600160a01b031681526020810191909152604001600020805460ff19169115159190911790557fe49a33dc7a73a9833a0358b29ef8d5fecbfff419af0c4fd9219f57a7147009c683838381811062001091576200109162002f92565b9050602002016020810190620010a891906200232b565b604051620010b7919062002369565b60405180910390a180620010cb816200302b565b91505062000fa9565b505050565b620010e362001277565b6001600160a01b0316336001600160a01b031614620011165760405162461bcd60e51b8152600401620005b69062002ac1565b60005b81811015620010d4576200113b83838381811062000fcb5762000fcb62002f92565b156200115b5760405162461bcd60e51b8152600401620005b690620030a3565b60016004600085858581811062001176576200117662002f92565b90506020020160208101906200118d91906200232b565b6001600160a01b031681526020810191909152604001600020805460ff19169115159190911790557f7b322f508cd6b0cc569822d5a028bb23e6698192d88a7b9669ab48fd68916eda838383818110620011eb57620011eb62002f92565b90506020020160208101906200120291906200232b565b60405162001211919062002369565b60405180910390a18062001225816200302b565b91505062001119565b604080518082018252600080825260209182018190526001600160a01b039384168152600782528290208251808401909352805490931682526001909201549181019190915290565b600254600090600160a01b900460ff16620012b657507f000000000000000000000000000000000000000000000000000000000000000090565b905090565b7f00000000000000000000000000000000000000000000000000000000000000006001600160a01b031663893d20e86040518163ffffffff1660e01b8152600401602060405180830381865afa15801562001315573d6000803e3d6000fd5b505050506040513d601f19601f82011682018060405250810190620012b1919062002e91565b60008084846040516020016200135392919062002d60565b60408051601f19818403018152918152815160209283012060008181526006845282812087825290935291205490915060ff1680620013cb575060008181526006602090815260408083207f5bf1898dd28c4d29f33c4c1bb9b8a7e2f6322847d70be63e8f89de024d08a669845290915290205460ff165b95945050505050565b81620013e18133620021fe565b604051634e4ea46d60e11b81526001600160a01b037f00000000000000000000000000000000000000000000000000000000000000001690639c9d48da9062001431908690869060040162002e06565b600060405180830381600087803b1580156200144c57600080fd5b505af115801562001461573d6000803e3d6000fd5b50505050505050565b6200147462001277565b6001600160a01b0316336001600160a01b031614620014a75760405162461bcd60e51b8152600401620005b69062002ac1565b6001546001600160a01b03168015620014d45760405162461bcd60e51b8152600401620005b69062002b0a565b600180546001600160a01b0319166001600160a01b0384161790556040517f1a8919bc714742db0ed6eb86960768bdd5103c1dabb914651aaec5796907db15906200063990849062002369565b600033620015308482620021fe565b6040516307af8e9f60e31b815230906001600160a01b037f00000000000000000000000000000000000000000000000000000000000000001690633d7c74f8906200158090889060040162002369565b602060405180830381865afa1580156200159e573d6000803e3d6000fd5b505050506040513d601f19601f82011682018060405250810190620015c4919062002e91565b6001600160a01b031614620015ed5760405162461bcd60e51b8152600401620005b69062003110565b6001600160a01b038085166000908152600760205260409020541615620016285760405162461bcd60e51b8152600401620005b69062003196565b6200163262001fa6565b9150620016428183868662002118565b60006200164e60035490565b6200165a9042620031a8565b6040805180820182526001600160a01b03868116825260208083018581528a83166000818152600790935291859020935184546001600160a01b03191690841617845551600190930192909255915192935091908416907fbc4a5bba58d663a7e6752f3a72d2737260a60caeec28e0bf880ee25711f7fe1e90620016e29087908690620031be565b60405180910390a350505b92915050565b80620017008133620021fe565b6001600160a01b0380831660009081526007602052604090205416806200173b5760405162461bcd60e51b8152600401620005b69062003249565b6001600160a01b0380841660008181526007602052604080822080546001600160a01b031916815560010182905551928416927f8eae645f408f18cb738736a49846a7ccb7a4ed8cdf9b960624ea965ffbe96e919190a3505050565b620017a162001277565b6001600160a01b0316336001600160a01b031614620017d45760405162461bcd60e51b8152600401620005b69062002ac1565b83620017f45760405162461bcd60e51b8152600401620005b6906200329f565b8382148015620018045750805184145b620018235760405162461bcd60e51b8152600401620005b690620032f8565b60005b8481101562000cb257620018ae86868381811062001848576200184862002f92565b90506020020160208101906200185f91906200232b565b85858481811062001874576200187462002f92565b90506020020160208101906200188b91906200330a565b848481518110620018a057620018a062002f92565b602002602001015162000920565b620018cd5760405162461bcd60e51b8152600401620005b69062003376565b600060066000888885818110620018e857620018e862002f92565b9050602002016020810190620018ff91906200232b565b87878681811062001914576200191462002f92565b90506020020160208101906200192b91906200330a565b6040516020016200193e92919062002d60565b604051602081830303815290604052805190602001208152602001908152602001600020600084848151811062001979576200197962002f92565b6020026020010151815260200190815260200160002060006101000a81548160ff021916908315150217905550858582818110620019bb57620019bb62002f92565b9050602002016020810190620019d291906200232b565b6001600160a01b03167f845c9ef356cc5570a54e9eb6be3e6d95a2aaad4c4c7d7b2c0cf8c7cdd78d614d85858481811062001a115762001a1162002f92565b905060200201602081019062001a2891906200330a565b84848151811062001a3d5762001a3d62002f92565b602002602001015160405162001a5592919062003388565b60405180910390a28062001a69816200302b565b91505062001826565b62001a7c62001277565b6001600160a01b0316336001600160a01b03161462001aaf5760405162461bcd60e51b8152600401620005b69062002ac1565b8362001acf5760405162461bcd60e51b8152600401620005b690620033da565b838214801562001adf5750805184145b62001afe5760405162461bcd60e51b8152600401620005b69062003431565b60005b8481101562000cb25762001b2386868381811062001848576200184862002f92565b1562001b435760405162461bcd60e51b8152600401620005b6906200348c565b60016006600088888581811062001b5e5762001b5e62002f92565b905060200201602081019062001b7591906200232b565b87878681811062001b8a5762001b8a62002f92565b905060200201602081019062001ba191906200330a565b60405160200162001bb492919062002d60565b604051602081830303815290604052805190602001208152602001908152602001600020600084848151811062001bef5762001bef62002f92565b6020026020010151815260200190815260200160002060006101000a81548160ff02191690831515021790555085858281811062001c315762001c3162002f92565b905060200201602081019062001c4891906200232b565b6001600160a01b03167fb1fbe377864edcbf521713f906125bd99a3638c7a9e4087f6a70019686a741d185858481811062001c875762001c8762002f92565b905060200201602081019062001c9e91906200330a565b84848151811062001cb35762001cb362002f92565b602002602001015160405162001ccb92919062003388565b60405180910390a28062001cdf816200302b565b91505062001b01565b8062001cf58133620021fe565b600062001d02836200122e565b80519091506001600160a01b031662001d2f5760405162461bcd60e51b8152600401620005b6906200350b565b806020015142101562001d565760405162461bcd60e51b8152600401620005b69062003585565b6040516307af8e9f60e31b815230906001600160a01b037f00000000000000000000000000000000000000000000000000000000000000001690633d7c74f89062001da690879060040162002369565b602060405180830381865afa15801562001dc4573d6000803e3d6000fd5b505050506040513d601f19601f8201168201806040525081019062001dea919062002e91565b6001600160a01b03161462001e135760405162461bcd60e51b8152600401620005b690620035f2565b6000836001600160a01b0316635a53e3486040518163ffffffff1660e01b8152600401602060405180830381865afa15801562001e54573d6000803e3d6000fd5b505050506040513d601f19601f8201168201806040525081019062001e7a919062002e91565b905062001e878162002293565b8151604051633a0795ad60e11b81526001600160a01b0386169163740f2b5a9162001eb6919060040162002369565b600060405180830381600087803b15801562001ed157600080fd5b505af115801562001ee6573d6000803e3d6000fd5b5050505081600001516001600160a01b0316630f15f4c06040518163ffffffff1660e01b8152600401600060405180830381600087803b15801562001f2a57600080fd5b505af115801562001f3f573d6000803e3d6000fd5b505050506001600160a01b0384811660008181526007602052604080822080546001600160a01b03191681556001018290558551905190841693851692917fa587629d93edeac6431610facaeec919890c8bc040ef849f720e42315148d7d991a450505050565b600080546001600160a01b031660405162001fc190620022e4565b62001fcd919062003604565b604051809103906000f08015801562001fea573d6000803e3d6000fd5b50905090565b60007f00000000000000000000000000000000000000000000000000000000000000006001600160a01b03166322a0c08b620020346002546001600160a01b031690565b898989896040518663ffffffff1660e01b81526004016200205a9594939291906200365c565b6020604051808303816000875af11580156200207a573d6000803e3d6000fd5b505050506040513d601f19601f82011682018060405250810190620020a0919062002e91565b905081156200210e57604051635c26412360e11b81526001600160a01b0382169063b84c824690620020d99086908690600401620036aa565b600060405180830381600087803b158015620020f457600080fd5b505af115801562002109573d6000803e3d6000fd5b505050505b9695505050505050565b6001600160a01b038381166000818152600560205260409081902080546001600160a01b0319169386169390931790925590516307cadcbd60e31b8152633e56e5e8906200216d908590859060040162003923565b600060405180830381600087803b1580156200218857600080fd5b505af11580156200219d573d6000803e3d6000fd5b50505050816001600160a01b0316836001600160a01b0316856001600160a01b03167f424534e81c98887963969e9f118161decf53e76dfbb702efef121634c571c05084604051620021f0919062003947565b60405180910390a450505050565b604051633ef03e7560e11b81526001600160a01b03831690637de07cea906200222c90849060040162002369565b602060405180830381865afa1580156200224a573d6000803e3d6000fd5b505050506040513d601f19601f8201168201806040525081019062002270919062002ec3565b6200228f5760405162461bcd60e51b8152600401620005b690620039ab565b5050565b806001600160a01b03166351b42b006040518163ffffffff1660e01b8152600401600060405180830381600087803b158015620022cf57600080fd5b505af115801562000cb4573d6000803e3d6000fd5b61038280620039be83390190565b60006001600160a01b038216620016ed565b6200230f81620022f2565b81146200231b57600080fd5b50565b8035620016ed8162002304565b600060208284031215620023425762002342600080fd5b60006200235084846200231e565b949350505050565b6200236381620022f2565b82525050565b60208101620016ed828462002358565b60008083601f840112620023905762002390600080fd5b5081356001600160401b03811115620023ac57620023ac600080fd5b602083019150836001820283011115620023c957620023c9600080fd5b9250929050565b600060a08284031215620023e757620023e7600080fd5b50919050565b600080600080600080608087890312156200240b576200240b600080fd5b60006200241989896200231e565b96505060208701356001600160401b038111156200243a576200243a600080fd5b6200244889828a0162002379565b955095505060408701356001600160401b038111156200246b576200246b600080fd5b6200247989828a0162002379565b935093505060608701356001600160401b038111156200249c576200249c600080fd5b620024aa89828a01620023d0565b9150509295509295509295565b60408101620024c7828562002358565b62000972602083018462002358565b6001600160e01b031981166200230f565b8035620016ed81620024d6565b806200230f565b8035620016ed81620024f4565b600080600060608486031215620025225762002522600080fd5b60006200253086866200231e565b93505060206200254386828701620024e7565b92505060406200255686828701620024fb565b9150509250925092565b80151562002363565b60208101620016ed828462002560565b8015156200230f565b8035620016ed8162002579565b60008060408385031215620025a757620025a7600080fd5b6000620025b585856200231e565b9250506020620025c88582860162002582565b9150509250929050565b600060208284031215620025e957620025e9600080fd5b6000620023508484620024fb565b600581106200231b57600080fd5b8035620016ed81620025f7565b600080600080600060a086880312156200262f576200262f600080fd5b60006200263d888862002605565b955050602062002650888289016200231e565b945050604062002663888289016200231e565b935050606062002676888289016200231e565b925050608062002689888289016200231e565b9150509295509295909350565b600080600060608486031215620026b057620026b0600080fd5b6000620026be86866200231e565b93505060208401356001600160401b03811115620026df57620026df600080fd5b620026ed86828701620023d0565b9250506040620025568682870162002582565b60008083601f840112620027175762002717600080fd5b5081356001600160401b03811115620027335762002733600080fd5b602083019150836020820283011115620023c957620023c9600080fd5b60008060208385031215620027685762002768600080fd5b82356001600160401b03811115620027835762002783600080fd5b620027918582860162002700565b92509250509250929050565b8062002363565b80516040830190620027b7848262002358565b5060208201516200050760208501826200279d565b60408101620016ed8284620027a4565b60008060408385031215620027f457620027f4600080fd5b60006200280285856200231e565b92505060208301356001600160401b03811115620028235762002823600080fd5b620025c885828601620023d0565b60208101620016ed82846200279d565b600080600080608085870312156200285c576200285c600080fd5b60006200286a87876200231e565b94505060206200287d878288016200231e565b935050604062002890878288016200231e565b9250506060620028a3878288016200231e565b91505092959194509250565b634e487b7160e01b600052604160045260246000fd5b601f19601f83011681018181106001600160401b0382111715620028ed57620028ed620028af565b6040525050565b60006200290060405190565b90506200290e8282620028c5565b919050565b60006001600160401b038211156200292f576200292f620028af565b5060209081020190565b6000620029506200294a8462002913565b620028f4565b83815290506020808201908402830185811115620029715762002971600080fd5b835b81811015620029995780620029898882620024fb565b8452506020928301920162002973565b5050509392505050565b600082601f830112620029b957620029b9600080fd5b81356200235084826020860162002939565b600080600080600060608688031215620029e857620029e8600080fd5b85356001600160401b0381111562002a035762002a03600080fd5b62002a118882890162002700565b955095505060208601356001600160401b0381111562002a345762002a34600080fd5b62002a428882890162002700565b935093505060408601356001600160401b0381111562002a655762002a65600080fd5b6200268988828901620029a3565b602e81526000602082017f4f6e6c792074686520636f6e7472616374206f776e65722063616e2063616c6c81526d103a3434b990333ab731ba34b7b760911b602082015291505b5060400190565b60208082528101620016ed8162002a73565b601f81526000602082017f546869732076616c75652063616e206f6e6c7920626520736574206f6e636500815291505b5060200190565b60208082528101620016ed8162002ad3565b603781526000602082017f73657452656c656173654c6976653a204f6e6c79207468652063726561746f7281527f2063616e2063616c6c20746869732066756e6374696f6e0000000000000000006020820152915062002aba565b60208082528101620016ed8162002b1c565b601c81526000602082017f73657452656c656173654c6976653a20416c7265616479206c697665000000008152915062002b03565b60208082528101620016ed8162002b89565b602981526000602082017f73657452656c656173654c6976653a20636f6d7074726f6c6c65724c696220698152681cc81b9bdd081cd95d60ba1b6020820152915062002aba565b60208082528101620016ed8162002bd0565b602d81526000602082017f73657452656c656173654c6976653a2070726f746f636f6c466565547261636b81526c195c881a5cc81b9bdd081cd95d609a1b6020820152915062002aba565b60208082528101620016ed8162002c29565b602381526000602082017f73657452656c656173654c6976653a207661756c744c6962206973206e6f74208152621cd95d60ea1b6020820152915062002aba565b60208082528101620016ed8162002c86565b601781526000602082017f52656c65617365206973206e6f7420796574206c6976650000000000000000008152915062002b03565b60208082528101620016ed8162002cd9565b6000620016ed8260601b90565b6000620016ed8262002d20565b6200236362002d4982620022f2565b62002d2d565b6001600160e01b0319811662002363565b600062002d6e828562002d3a565b60148201915062002d80828462002d4f565b5060040192915050565b8051620016ed8162002304565b8051620016ed81620024f4565b6000806000806080858703121562002dbf5762002dbf600080fd5b600062002dcd878762002d8a565b945050602062002de08782880162002d8a565b935050604062002df38782880162002d8a565b9250506060620028a38782880162002d97565b6040810162002e16828562002358565b62000972602083018462002560565b602681526000602082017f4f6e6c7920446973706174636865722063616e2063616c6c20746869732066758152653731ba34b7b760d11b6020820152915062002aba565b60208082528101620016ed8162002e25565b634e487b7160e01b600052602160045260246000fd5b60006020828403121562002ea85762002ea8600080fd5b600062002350848462002d8a565b8051620016ed8162002579565b60006020828403121562002eda5762002eda600080fd5b600062002350848462002eb6565b603981526000602082017f6372656174654d6967726174696f6e526571756573743a2041204d696772617481527f696f6e5265717565737420616c726561647920657869737473000000000000006020820152915062002aba565b60208082528101620016ed8162002ee8565b6080810162002f65828762002358565b62002f74602083018662002358565b62002f83604083018562002358565b620013cb606083018462002560565b634e487b7160e01b600052603260045260246000fd5b603981526000602082017f646572656769737465724275795368617265734f6e426568616c6643616c6c6581527f72733a2043616c6c6572206e6f742072656769737465726564000000000000006020820152915062002aba565b60208082528101620016ed8162002fa8565b634e487b7160e01b600052601160045260246000fd5b6000600019820362003041576200304162003015565b5060010190565b603b81526000602082017f72656769737465724275795368617265734f6e426568616c6643616c6c65727381527f3a2043616c6c657220616c7265616479207265676973746572656400000000006020820152915062002aba565b60208082528101620016ed8162003048565b603c81526000602082017f6372656174655265636f6e66696775726174696f6e526571756573743a20566181527f756c7450726f7879206e6f74206f6e20746869732072656c65617365000000006020820152915062002aba565b60208082528101620016ed81620030b5565b604e81526000602082017f6372656174655265636f6e66696775726174696f6e526571756573743a20566181527f756c7450726f78792068617320612070656e64696e67207265636f6e6669677560208201526d1c985d1a5bdb881c995c5d595cdd60921b604082015291505b5060600190565b60208082528101620016ed8162003122565b80820180821115620016ed57620016ed62003015565b60408101620031ce828562002358565b6200097260208301846200279d565b604881526000602082017f63616e63656c5265636f6e66696775726174696f6e3a204e6f207265636f6e6681527f696775726174696f6e20726571756573742065786973747320666f72205f7661602082015267756c7450726f787960c01b604082015291506200318f565b60208082528101620016ed81620031dd565b602681526000602082017f646572656769737465725661756c7443616c6c733a20456d707479205f636f6e81526574726163747360d01b6020820152915062002aba565b60208082528101620016ed816200325b565b602981526000602082017f646572656769737465725661756c7443616c6c733a20556e6576656e20696e7081526875742061727261797360b81b6020820152915062002aba565b60208082528101620016ed81620032b1565b600060208284031215620033215762003321600080fd5b6000620023508484620024e7565b602981526000602082017f646572656769737465725661756c7443616c6c733a2043616c6c206e6f7420728152681959da5cdd195c995960ba1b6020820152915062002aba565b60208082528101620016ed816200332f565b60408101620031ce828562002d4f565b602481526000602082017f72656769737465725661756c7443616c6c733a20456d707479205f636f6e74728152636163747360e01b6020820152915062002aba565b60208082528101620016ed8162003398565b602781526000602082017f72656769737465725661756c7443616c6c733a20556e6576656e20696e7075748152662061727261797360c81b6020820152915062002aba565b60208082528101620016ed81620033ec565b602b81526000602082017f72656769737465725661756c7443616c6c733a2043616c6c20616c726561647981526a081c9959da5cdd195c995960aa1b6020820152915062002aba565b60208082528101620016ed8162003443565b604981526000602082017f657865637574655265636f6e66696775726174696f6e3a204e6f207265636f6e81527f66696775726174696f6e20726571756573742065786973747320666f72205f7660208201526861756c7450726f787960b81b604082015291506200318f565b60208082528101620016ed816200349e565b604481526000602082017f657865637574655265636f6e66696775726174696f6e3a20546865207265636f81527f6e66696775726174696f6e2074696d656c6f636b20686173206e6f7420656c616020820152631c1cd95960e21b604082015291506200318f565b60208082528101620016ed816200351d565b604081526000602082017f657865637574655265636f6e66696775726174696f6e3a205f7661756c74507281527f6f7879206973206e6f206c6f6e676572206f6e20746869732072656c656173656020820152915062002aba565b60208082528101620016ed8162003597565b604080825281016200361a816000815260200190565b9050620016ed602083018462002358565b82818337506000910152565b81835260006020840193506200364f8385846200362b565b5050601f01601f19160190565b608081016200366c828862002358565b6200367b602083018762002358565b6200368a604083018662002358565b81810360608301526200369f81848662003637565b979650505050505050565b602080825281016200235081848662003637565b60006200097260208401846200231e565b6000620009726020840184620024fb565b6000808335601e1936859003018112620036fd57620036fd600080fd5b8381016020810193503591506001600160401b03821115620037225762003722600080fd5b36829003831315620037375762003737600080fd5b509250929050565b6000808335601e19368590030181126200375c576200375c600080fd5b8381016020810193503591506001600160401b03821115620037815762003781600080fd5b602082023603831315620037375762003737600080fd5b600060408301620037aa8380620036be565b620037b6858262002358565b50620037c66020840184620036e0565b85830360208701526200210e83828462003637565b600062000972838362003798565b60008235603e1936849003018112620038055762003805600080fd5b90910192915050565b818352600060208401935083602084028101838060005b87811015620038645784840389526200383f8284620037e9565b6200384b8582620037db565b94506020830160209a909a019992505060010162003825565b5091979650505050505050565b600060a08301620038838380620036be565b6200388f858262002358565b506200389f6020840184620036cf565b620038ae60208601826200279d565b50620038be6040840184620036e0565b8583036040870152620038d383828462003637565b92505050620038e66060840184620036e0565b8583036060870152620038fb83828462003637565b925050506200390e60808401846200373f565b85830360808701526200210e8382846200380e565b6040810162003933828562002358565b818103602083015262002350818462003871565b6020808252810162000972818462003871565b603381526000602082017f4f6e6c792061207065726d697373696f6e6564206d69677261746f722063616e8152721031b0b636103a3434b990333ab731ba34b7b760691b6020820152915062002aba565b60208082528101620016ed816200395a56fe60a060405234801561001057600080fd5b5060405161038238038061038283398101604081905261002f9161024f565b6001600160a01b0381166080527f360894a13ba1a3210667c828492db98dca3e2076cc3735a920a3ca505d382bbc819055815182908290156100f857600080826001600160a01b03168460405161008691906102c7565b600060405180830381855af49150503d80600081146100c1576040519150601f19603f3d011682016040523d82523d6000602084013e6100c6565b606091505b50915091508181906100f45760405162461bcd60e51b81526004016100eb919061030c565b60405180910390fd5b5050505b5050505061031d565b634e487b7160e01b600052604160045260246000fd5b601f19601f83011681018181106001600160401b038211171561013c5761013c610101565b6040525050565b600061014e60405190565b905061015a8282610117565b919050565b60006001600160401b0382111561017857610178610101565b601f19601f83011660200192915050565b60005b838110156101a457818101518382015260200161018c565b50506000910152565b60006101c06101bb8461015f565b610143565b9050828152602081018484840111156101db576101db600080fd5b6101e6848285610189565b509392505050565b600082601f83011261020257610202600080fd5b81516102128482602086016101ad565b949350505050565b60006001600160a01b0382165b92915050565b6102368161021a565b811461024157600080fd5b50565b80516102278161022d565b6000806040838503121561026557610265600080fd5b82516001600160401b0381111561027e5761027e600080fd5b61028a858286016101ee565b925050602061029b85828601610244565b9150509250929050565b60006102af825190565b6102bd818560208601610189565b9290920192915050565b60006102d382846102a5565b9392505050565b60006102e4825190565b8084526020840193506102fb818560208601610189565b601f01601f19169290920192915050565b602080825281016102d381846102da565b608051604d610335600039600060060152604d6000f3fe60806040527f00000000000000000000000000000000000000000000000000000000000000003660008037600080366000846127105a03f43d806000803e818015604857816000f35b816000fd","linkReferences":{}},"methodIdentifiers":{"cancelMigration(address,bool)":"9c9d48da","cancelReconfiguration(address)":"d5189add","createMigrationRequest(address,(address,uint256,bytes,bytes,(address,bytes)[]),bool)":"41deb20a","createNewFund(address,string,string,(address,uint256,bytes,bytes,(address,bytes)[]))":"34b9e1e5","createReconfigurationRequest(address,(address,uint256,bytes,bytes,(address,bytes)[]))":"cd3ecbeb","deregisterBuySharesOnBehalfCallers(address[])":"4bacc5f7","deregisterVaultCalls(address[],bytes4[],bytes32[])":"ed9eeb7f","executeMigration(address,bool)":"38b3eb1b","executeReconfiguration(address)":"ff845718","getComptrollerLib()":"93a2ecd9","getCreator()":"0ee2cb10","getDispatcher()":"ebb3d589","getOwner()":"893d20e8","getProtocolFeeTracker()":"749cc8f5","getReconfigurationRequestForVaultProxy(address)":"72eb5f2b","getReconfigurationTimelock()":"cebffb58","getVaultLib()":"682cea19","getVaultProxyForComptrollerProxy(address)":"4152cd54","hasReconfigurationRequest(address)":"6c579e57","invokeMigrationInCancelHook(address,address,address,address)":"df369ba7","invokeMigrationOutHook(uint8,address,address,address,address)":"3f84c12c","isAllowedBuySharesOnBehalfCaller(address)":"54391f09","isAllowedVaultCall(address,bytes4,bytes32)":"8c500ea3","isRegisteredVaultCall(address,bytes4,bytes32)":"36b4ea4f","registerBuySharesOnBehalfCallers(address[])":"6f2b7574","registerVaultCalls(address[],bytes4[],bytes32[])":"efcde9e3","releaseIsLive()":"98f0d4bb","setComptrollerLib(address)":"0d2fcd76","setProtocolFeeTracker(address)":"9f9df785","setReconfigurationTimelock(uint256)":"3b30dce7","setReleaseLive()":"164dd2d4","setVaultLib(address)":"4140d607"},"id":95}