{"abi":[{"type":"constructor","inputs":[{"name":"_policyManagerAddress","type":"address","internalType":"address"},{"name":"_valueInterpreter","type":"address","internalType":"contract IValueInterpreter"}],"stateMutability":"nonpayable"},{"type":"function","name":"activateForFund","inputs":[{"name":"","type":"address","internalType":"address"}],"outputs":[],"stateMutability":"nonpayable"},{"type":"function","name":"addFundSettings","inputs":[{"name":"_comptrollerProxy","type":"address","internalType":"address"},{"name":"_encodedSettings","type":"bytes","internalType":"bytes"}],"outputs":[],"stateMutability":"nonpayable"},{"type":"function","name":"canDisable","inputs":[],"outputs":[{"name":"canDisable_","type":"bool","internalType":"bool"}],"stateMutability":"pure"},{"type":"function","name":"getAssetConfigsForFund","inputs":[{"name":"_comptrollerProxy","type":"address","internalType":"address"}],"outputs":[{"name":"assetConfigs_","type":"tuple[]","internalType":"struct INoDepegPolicyBase.AssetConfig[]","components":[{"name":"asset","type":"address","internalType":"contract IERC20"},{"name":"referenceAsset","type":"address","internalType":"contract IERC20"},{"name":"deviationToleranceInBps","type":"uint16","internalType":"uint16"}]}],"stateMutability":"view"},{"type":"function","name":"getPolicyManager","inputs":[],"outputs":[{"name":"policyManager_","type":"address","internalType":"address"}],"stateMutability":"view"},{"type":"function","name":"identifier","inputs":[],"outputs":[{"name":"identifier_","type":"string","internalType":"string"}],"stateMutability":"pure"},{"type":"function","name":"implementedHooks","inputs":[],"outputs":[{"name":"implementedHooks_","type":"uint8[]","internalType":"enum IPolicyManager.PolicyHook[]"}],"stateMutability":"pure"},{"type":"function","name":"updateFundSettings","inputs":[{"name":"_comptrollerProxy","type":"address","internalType":"address"},{"name":"_encodedSettings","type":"bytes","internalType":"bytes"}],"outputs":[],"stateMutability":"nonpayable"},{"type":"function","name":"validateRule","inputs":[{"name":"_comptrollerProxy","type":"address","internalType":"address"},{"name":"","type":"uint8","internalType":"enum IPolicyManager.PolicyHook"},{"name":"","type":"bytes","internalType":"bytes"}],"outputs":[{"name":"isValid_","type":"bool","internalType":"bool"}],"stateMutability":"nonpayable"},{"type":"event","name":"FundSettingsUpdated","inputs":[{"name":"comptrollerProxy","type":"address","indexed":true,"internalType":"address"},{"name":"assetConfigs","type":"tuple[]","indexed":false,"internalType":"struct INoDepegPolicyBase.AssetConfig[]","components":[{"name":"asset","type":"address","internalType":"contract IERC20"},{"name":"referenceAsset","type":"address","internalType":"contract IERC20"},{"name":"deviationToleranceInBps","type":"uint16","internalType":"uint16"}]}],"anonymous":false}],"bytecode":{"object":"0x60c06040523480156200001157600080fd5b5060405162001208380380620012088339810160408190526200003491620000ab565b6001600160a01b039182166080521660a052620000ee565b60006001600160a01b0382165b92915050565b6200006a816200004c565b81146200007657600080fd5b50565b805162000059816200005f565b600062000059826200004c565b6200006a8162000086565b8051620000598162000093565b60008060408385031215620000c357620000c3600080fd5b6000620000d1858562000079565b9250506020620000e4858286016200009e565b9150509250929050565b60805160a0516110e66200012260003960006102e801526000818161012901528181610180015261020201526110e66000f3fe608060405234801561001057600080fd5b50600436106100935760003560e01c80637998a1c4116100665780637998a1c4146100ec578063cbf54bb214610101578063ceb9a0ad14610116578063d44ad6cb14610127578063f6ffaa891461015557600080fd5b80630d4d7510146100985780630f5f6b4f146100ad5780631ef92578146100c0578063579be718146100d9575b600080fd5b6100ab6100a636600461084b565b610175565b005b6100ab6100bb36600461084b565b6101f7565b60015b6040516100d091906108b1565b60405180910390f35b6100c36100e73660046108d7565b61023f565b6100f46104cd565b6040516100d0919061099b565b6101096104ed565b6040516100d09190610a59565b6100ab610124366004610a6a565b50565b7f00000000000000000000000000000000000000000000000000000000000000006040516100d09190610a94565b610168610163366004610a6a565b610556565b6040516100d09190610b6b565b336001600160a01b037f000000000000000000000000000000000000000000000000000000000000000016146101c65760405162461bcd60e51b81526004016101bd90610bc5565b60405180910390fd5b6001600160a01b03831660009081526020819052604081206101e791610776565b6101f28383836105f6565b505050565b336001600160a01b037f000000000000000000000000000000000000000000000000000000000000000016146101e75760405162461bcd60e51b81526004016101bd90610bc5565b6001600160a01b038416600090815260208190526040812054815b818110156104be576001600160a01b038716600090815260208190526040812080548390811061028c5761028c610bd5565b6000918252602080832060408051606081018252600290940290910180546001600160a01b039081168086526001909201548082168686015261ffff600160a01b9091041685840152825163313ce56760e01b815292519496507f00000000000000000000000000000000000000000000000000000000000000001693634c67e106939192839263313ce567926004808401938290030181865afa158015610338573d6000803e3d6000fd5b505050506040513d601f19601f8201168201806040525081019061035c9190610bff565b61036790600a610d44565b85602001516040518463ffffffff1660e01b815260040161038a93929190610d5f565b6020604051808303816000875af11580156103a9573d6000803e3d6000fd5b505050506040513d601f19601f820116820180604052508101906103cd9190610d98565b9050600082602001516001600160a01b031663313ce5676040518163ffffffff1660e01b8152600401602060405180830381865afa158015610413573d6000803e3d6000fd5b505050506040513d601f19601f820116820180604052508101906104379190610bff565b61044290600a610d44565b905060008183111561045f576104588284610db9565b905061046c565b6104698383610db9565b90505b60008261047b83612710610dcc565b6104859190610e01565b9050846040015161ffff1681106104a65760009750505050505050506104c5565b505050505080806104b690610e15565b91505061025a565b5060019150505b949350505050565b60606040518060600160405280602d81526020016110b9602d9139905090565b6040805160018082528183019092526060916020808301908036833701905050905060038160008151811061052457610524610bd5565b6020026020010190600981111561053d5761053d6109b3565b90816009811115610550576105506109b3565b90525090565b6001600160a01b038116600090815260208181526040808320805482518185028101850190935280835260609492939192909184015b828210156105eb576000848152602090819020604080516060810182526002860290920180546001600160a01b03908116845260019182015490811684860152600160a01b900461ffff1691830191909152908352909201910161058c565b505050509050919050565b600061060482840184610fc5565b805190915060005b8181101561072d57600083828151811061062857610628610bd5565b60200260200101516040015161ffff1690506000811161065a5760405162461bcd60e51b81526004016101bd9061104e565b612710811061067b5760405162461bcd60e51b81526004016101bd906110a8565b6001600160a01b038716600090815260208190526040902084518590849081106106a7576106a7610bd5565b602090810291909101810151825460018181018555600094855293839020825160029092020180546001600160a01b039283166001600160a01b03199091161781559282015192909301805460409092015161ffff16600160a01b026001600160b01b03199092169290931691909117179055508061072581610e15565b91505061060c565b50846001600160a01b03167fc5794448566f7731d3557a2e89a2af9fc082e68622e20f979b58e4dfb2c58e6d836040516107679190610b6b565b60405180910390a25050505050565b508054600082556002029060005260206000209081019061012491905b808211156107c35780546001600160a01b03191681556001810180546001600160b01b0319169055600201610793565b5090565b60006001600160a01b0382165b92915050565b6107e3816107c7565b811461012457600080fd5b80356107d4816107da565b60008083601f84011261080e5761080e600080fd5b50813567ffffffffffffffff81111561082957610829600080fd5b60208301915083600182028301111561084457610844600080fd5b9250929050565b60008060006040848603121561086357610863600080fd5b600061086f86866107ee565b935050602084013567ffffffffffffffff81111561088f5761088f600080fd5b61089b868287016107f9565b92509250509250925092565b8015155b82525050565b602081016107d482846108a7565b600a811061012457600080fd5b80356107d4816108bf565b600080600080606085870312156108f0576108f0600080fd5b60006108fc87876107ee565b945050602061090d878288016108cc565b935050604085013567ffffffffffffffff81111561092d5761092d600080fd5b610939878288016107f9565b95989497509550505050565b60005b83811015610960578181015183820152602001610948565b50506000910152565b6000610973825190565b80845260208401935061098a818560208601610945565b601f01601f19169290920192915050565b602080825281016109ac8184610969565b9392505050565b634e487b7160e01b600052602160045260246000fd5b600a8110610124576101246109b3565b806109e3816109c9565b919050565b60006107d4826109d9565b6108ab816109e8565b6000610a0883836109f3565b505060200190565b6000610a1a825190565b80845260209384019383018060005b83811015610a4e578151610a3d88826109fc565b975060208301925050600101610a29565b509495945050505050565b602080825281016109ac8184610a10565b600060208284031215610a7f57610a7f600080fd5b60006104c584846107ee565b6108ab816107c7565b602081016107d48284610a8b565b60006001600160a01b0382166107d4565b60006107d482610aa2565b60006107d482610ab3565b6108ab81610abe565b61ffff81166108ab565b80516060830190610aed8482610ac9565b506020820151610b006020850182610ac9565b506040820151610b136040850182610ad2565b50505050565b6000610b258383610adc565b505060600190565b6000610b37825190565b80845260209384019383018060005b83811015610a4e578151610b5a8882610b19565b975060208301925050600101610b46565b602080825281016109ac8184610b2d565b602981526000602082017f4f6e6c792074686520506f6c6963794d616e616765722063616e206d616b65208152681d1a1a5cc818d85b1b60ba1b602082015291505b5060400190565b602080825281016107d481610b7c565b634e487b7160e01b600052603260045260246000fd5b60ff81166107e3565b80516107d481610beb565b600060208284031215610c1457610c14600080fd5b60006104c58484610bf4565b634e487b7160e01b600052601160045260246000fd5b80825b6001851115610c7557808604811115610c5457610c54610c20565b6001851615610c6257908102905b8002610c6e8560011c90565b9450610c39565b94509492505050565b600082610c8d575060016109ac565b81610c9a575060006109ac565b8160018114610cb05760028114610cba57610ce7565b60019150506109ac565b60ff841115610ccb57610ccb610c20565b8360020a915084821115610ce157610ce1610c20565b506109ac565b5060208310610133831016604e8410600b8410161715610d1a575081810a83811115610d1557610d15610c20565b6109ac565b610d278484846001610c36565b92509050818404811115610d3d57610d3d610c20565b0292915050565b600060ff831692506109ac6000198484610c7e565b806108ab565b60608101610d6d8286610a8b565b610d7a6020830185610d59565b6104c56040830184610a8b565b806107e3565b80516107d481610d87565b600060208284031215610dad57610dad600080fd5b60006104c58484610d8d565b818103818111156107d4576107d4610c20565b818102808215838204851417610de457610de4610c20565b5092915050565b634e487b7160e01b600052601260045260246000fd5b600082610e1057610e10610deb565b500490565b60006000198203610e2857610e28610c20565b5060010190565b634e487b7160e01b600052604160045260246000fd5b601f19601f830116810181811067ffffffffffffffff82111715610e6b57610e6b610e2f565b6040525050565b6000610e7d60405190565b90506109e38282610e45565b600067ffffffffffffffff821115610ea357610ea3610e2f565b5060209081020190565b60006107d4826107c7565b6107e381610ead565b80356107d481610eb8565b61ffff81166107e3565b80356107d481610ecc565b600060608284031215610ef657610ef6600080fd5b610f006060610e72565b90506000610f0e8484610ec1565b8252506020610f1f84848301610ec1565b6020830152506040610f3384828501610ed6565b60408301525092915050565b6000610f52610f4d84610e89565b610e72565b83815290506020810160608402830185811115610f7157610f71600080fd5b835b81811015610f975780610f868882610ee1565b845250602090920191606001610f73565b5050509392505050565b600082601f830112610fb557610fb5600080fd5b81356104c5848260208601610f3f565b600060208284031215610fda57610fda600080fd5b813567ffffffffffffffff811115610ff457610ff4600080fd5b6104c584828501610fa1565b603181526000602082017f5f5f75706461746546756e6453657474696e67733a204d697373696e6720646581527076696174696f6e20746f6c6572616e636560781b60208201529150610bbe565b602080825281016107d481611000565b602d81526000602082017f5f5f75706461746546756e6453657474696e67733a204d61782064657669617481526c696f6e20746f6c6572616e636560981b60208201529150610bbe565b602080825281016107d48161105e56fe4e4f5f44455045475f4f4e5f52454445454d5f5348415245535f464f525f53504543494649435f415353455453","linkReferences":{}},"methodIdentifiers":{"activateForFund(address)":"ceb9a0ad","addFundSettings(address,bytes)":"0f5f6b4f","canDisable()":"1ef92578","getAssetConfigsForFund(address)":"f6ffaa89","getPolicyManager()":"d44ad6cb","identifier()":"7998a1c4","implementedHooks()":"cbf54bb2","updateFundSettings(address,bytes)":"0d4d7510","validateRule(address,uint8,bytes)":"579be718"},"id":170}