{"abi":[{"type":"constructor","inputs":[{"name":"_compoundComptroller","type":"address","internalType":"address"},{"name":"_compToken","type":"address","internalType":"address"},{"name":"_weth","type":"address","internalType":"address"}],"stateMutability":"nonpayable"},{"type":"function","name":"assetIsCollateral","inputs":[{"name":"_asset","type":"address","internalType":"address"}],"outputs":[{"name":"isCollateral","type":"bool","internalType":"bool"}],"stateMutability":"view"},{"type":"function","name":"getCTokenFromBorrowedAsset","inputs":[{"name":"_borrowedAsset","type":"address","internalType":"address"}],"outputs":[{"name":"cToken_","type":"address","internalType":"address"}],"stateMutability":"view"},{"type":"function","name":"getCompToken","inputs":[],"outputs":[{"name":"compToken_","type":"address","internalType":"address"}],"stateMutability":"view"},{"type":"function","name":"getCompoundComptroller","inputs":[],"outputs":[{"name":"compoundComptroller_","type":"address","internalType":"address"}],"stateMutability":"view"},{"type":"function","name":"getDebtAssets","inputs":[],"outputs":[{"name":"assets_","type":"address[]","internalType":"address[]"},{"name":"amounts_","type":"uint256[]","internalType":"uint256[]"}],"stateMutability":"nonpayable"},{"type":"function","name":"getManagedAssets","inputs":[],"outputs":[{"name":"assets_","type":"address[]","internalType":"address[]"},{"name":"amounts_","type":"uint256[]","internalType":"uint256[]"}],"stateMutability":"nonpayable"},{"type":"function","name":"getWethToken","inputs":[],"outputs":[{"name":"wethToken_","type":"address","internalType":"address"}],"stateMutability":"view"},{"type":"function","name":"init","inputs":[{"name":"","type":"bytes","internalType":"bytes"}],"outputs":[],"stateMutability":"nonpayable"},{"type":"function","name":"receiveCallFromVault","inputs":[{"name":"_actionData","type":"bytes","internalType":"bytes"}],"outputs":[],"stateMutability":"nonpayable"},{"type":"event","name":"AssetBorrowed","inputs":[{"name":"asset","type":"address","indexed":true,"internalType":"address"},{"name":"amount","type":"uint256","indexed":false,"internalType":"uint256"}],"anonymous":false},{"type":"event","name":"BorrowedAssetRepaid","inputs":[{"name":"asset","type":"address","indexed":true,"internalType":"address"},{"name":"amount","type":"uint256","indexed":false,"internalType":"uint256"}],"anonymous":false},{"type":"event","name":"CollateralAssetAdded","inputs":[{"name":"asset","type":"address","indexed":true,"internalType":"address"},{"name":"amount","type":"uint256","indexed":false,"internalType":"uint256"}],"anonymous":false},{"type":"event","name":"CollateralAssetRemoved","inputs":[{"name":"asset","type":"address","indexed":true,"internalType":"address"},{"name":"amount","type":"uint256","indexed":false,"internalType":"uint256"}],"anonymous":false}],"bytecode":{"object":"0x60e060405234801561001057600080fd5b50604051611fa7380380611fa78339818101604052606081101561003357600080fd5b50805160208201516040909201516001600160601b0319606092831b811660a05292821b8316608052901b1660c05260805160601c60a05160601c60c05160601c611f10610097600039806103215250806104f05250806103665250611f106000f3fe608060405234801561001057600080fd5b50600436106100935760003560e01c806380daddb81161006657806380daddb8146101a45780639e209ad114610245578063d889378e1461024d578063e5c23a9714610273578063ecd658b41461031757610093565b80634c252f91146100985780634ddf47d4146100bc5780634eeb4a161461016257806370a58ec61461019c575b600080fd5b6100a061031f565b604080516001600160a01b039092168252519081900360200190f35b610160600480360360208110156100d257600080fd5b810190602081018135600160201b8111156100ec57600080fd5b8201836020820111156100fe57600080fd5b803590602001918460018302840111600160201b8311171561011f57600080fd5b91908080601f016020809104026020016040519081016040528093929190818152602001838380828437600092019190915250929550610343945050505050565b005b6101886004803603602081101561017857600080fd5b50356001600160a01b0316610346565b604080519115158252519081900360200190f35b6100a0610364565b6101ac610388565b604051808060200180602001838103835285818151815260200191508051906020019060200280838360005b838110156101f05781810151838201526020016101d8565b50505050905001838103825284818151815260200191508051906020019060200280838360005b8381101561022f578181015183820152602001610217565b5050505090500194505050505060405180910390f35b6100a06104ee565b6100a06004803603602081101561026357600080fd5b50356001600160a01b0316610512565b6101606004803603602081101561028957600080fd5b810190602081018135600160201b8111156102a357600080fd5b8201836020820111156102b557600080fd5b803590602001918460018302840111600160201b831117156102d657600080fd5b91908080601f016020809104026020016040519081016040528093929190818152602001838380828437600092019190915250929550610530945050505050565b6101ac610889565b7f000000000000000000000000000000000000000000000000000000000000000090565b50565b6001600160a01b031660009081526002602052604090205460ff1690565b7f000000000000000000000000000000000000000000000000000000000000000090565b60608060018054806020026020016040519081016040528092919081815260200182805480156103e157602002820191906000526020600020905b81546001600160a01b031681526001909101906020018083116103c3575b50506001549395505067ffffffffffffffff8311915050801561040357600080fd5b5060405190808252806020026020018201604052801561042d578160200160208202803683370190505b50905060005b82518110156104e95782818151811061044857fe5b60200260200101516001600160a01b03166370a08231306040518263ffffffff1660e01b815260040180826001600160a01b0316815260200191505060206040518083038186803b15801561049c57600080fd5b505afa1580156104b0573d6000803e3d6000fd5b505050506040513d60208110156104c657600080fd5b505182518390839081106104d657fe5b6020908102919091010152600101610433565b509091565b7f000000000000000000000000000000000000000000000000000000000000000090565b6001600160a01b039081166000908152600360205260409020541690565b6000606082806020019051604081101561054957600080fd5b815160208301805160405192949293830192919084600160201b82111561056f57600080fd5b90830190602082018581111561058457600080fd5b8251600160201b81118282018810171561059d57600080fd5b82525081516020918201929091019080838360005b838110156105ca5781810151838201526020016105b2565b50505050905090810190601f1680156105f75780820380516001836020036101000a031916815260200191505b5060405250505091509150606080606083806020019051606081101561061c57600080fd5b8101908080516040519392919084600160201b82111561063b57600080fd5b90830190602082018581111561065057600080fd5b82518660208202830111600160201b8211171561066c57600080fd5b82525081516020918201928201910280838360005b83811015610699578181015183820152602001610681565b5050505090500160405260200180516040519392919084600160201b8211156106c157600080fd5b9083019060208201858111156106d657600080fd5b82518660208202830111600160201b821117156106f257600080fd5b82525081516020918201928201910280838360005b8381101561071f578181015183820152602001610707565b5050505090500160405260200180516040519392919084600160201b82111561074757600080fd5b90830190602082018581111561075c57600080fd5b8251600160201b81118282018810171561077557600080fd5b82525081516020918201929091019080838360005b838110156107a257818101518382015260200161078a565b50505050905090810190601f1680156107cf5780820380516001836020036101000a031916815260200191505b50604052505050925092509250600060048111156107e957fe5b8514156107ff576107fa83836109f5565b610881565b6001851415610812576107fa8383610cd9565b6002851415610826576107fa838383610f07565b6003851415610839576107fa838361130a565b600485141561084a576107fa611561565b60405162461bcd60e51b8152600401808060200182810382526026815260200180611df56026913960400191505060405180910390fd5b505050505050565b60608060008054806020026020016040519081016040528092919081815260200182805480156108e257602002820191906000526020600020905b81546001600160a01b031681526001909101906020018083116108c4575b50505050509150815167ffffffffffffffff8111801561090157600080fd5b5060405190808252806020026020018201604052801561092b578160200160208202803683370190505b50905060005b82518110156104e957600061095884838151811061094b57fe5b6020026020010151610512565b9050806001600160a01b03166395dd9193306040518263ffffffff1660e01b815260040180826001600160a01b0316815260200191505060206040518083038186803b1580156109a757600080fd5b505afa1580156109bb573d6000803e3d6000fd5b505050506040513d60208110156109d157600080fd5b505183518490849081106109e157fe5b602090810291909101015250600101610931565b60606109ff6104ee565b6001600160a01b031663c2998238846040518263ffffffff1660e01b81526004018080602001828103825283818151815260200191508051906020019060200280838360005b83811015610a5d578181015183820152602001610a45565b5050505090500192505050600060405180830381600087803b158015610a8257600080fd5b505af1158015610a96573d6000803e3d6000fd5b505050506040513d6000823e601f3d908101601f191682016040526020811015610abf57600080fd5b8101908080516040519392919084600160201b821115610ade57600080fd5b908301906020820185811115610af357600080fd5b82518660208202830111600160201b82111715610b0f57600080fd5b82525081516020918201928201910280838360005b83811015610b3c578181015183820152602001610b24565b50505050905001604052505050905060005b8351811015610cd357818181518110610b6357fe5b6020026020010151600014610ba95760405162461bcd60e51b8152600401808060200182810382526043815260200180611e1b6043913960600191505060405180910390fd5b610bc5848281518110610bb857fe5b6020026020010151610346565b610c6457600160026000868481518110610bdb57fe5b60200260200101516001600160a01b03166001600160a01b0316815260200190815260200160002060006101000a81548160ff0219169083151502179055506001848281518110610c2857fe5b60209081029190910181015182546001810184556000938452919092200180546001600160a01b0319166001600160a01b039092169190911790555b838181518110610c7057fe5b60200260200101516001600160a01b03167fde38363fe42a9cae1654e31132bb3736927f007235cf41265805b96de98cf59f848381518110610cae57fe5b60200260200101516040518082815260200191505060405180910390a2600101610b4e565b50505050565b60005b8251811015610f0257610cf4838281518110610bb857fe5b610d2f5760405162461bcd60e51b8152600401808060200182810382526031815260200180611d386031913960400191505060405180910390fd5b818181518110610d3b57fe5b6020026020010151838281518110610d4f57fe5b60200260200101516001600160a01b03166370a08231306040518263ffffffff1660e01b815260040180826001600160a01b0316815260200191505060206040518083038186803b158015610da357600080fd5b505afa158015610db7573d6000803e3d6000fd5b505050506040513d6020811015610dcd57600080fd5b50511415610e4f57600060026000858481518110610de757fe5b60200260200101516001600160a01b03166001600160a01b0316815260200190815260200160002060006101000a81548160ff021916908315150217905550610e4d838281518110610e3557fe5b6020026020010151600161166990919063ffffffff16565b505b610e9333838381518110610e5f57fe5b6020026020010151858481518110610e7357fe5b60200260200101516001600160a01b03166117619092919063ffffffff16565b828181518110610e9f57fe5b60200260200101516001600160a01b03167ffb7cd2a565112408eb382485bb381cf1fc961858030a24b6d20de0a749c2f78a838381518110610edd57fe5b60200260200101516040518082815260200191505060405180910390a2600101610cdc565b505050565b6060818060200190516020811015610f1e57600080fd5b8101908080516040519392919084600160201b821115610f3d57600080fd5b908301906020820185811115610f5257600080fd5b82518660208202830111600160201b82111715610f6e57600080fd5b82525081516020918201928201910280838360005b83811015610f9b578181015183820152602001610f83565b50505050905001604052505050905060005b8451811015611303576000610fc786838151811061094b57fe5b90506001600160a01b03811661109557828281518110610fe357fe5b602002602001015160036000888581518110610ffb57fe5b60200260200101516001600160a01b03166001600160a01b0316815260200190815260200160002060006101000a8154816001600160a01b0302191690836001600160a01b03160217905550600086838151811061105557fe5b60209081029190910181015182546001810184556000938452919092200180546001600160a01b0319166001600160a01b039092169190911790556110f8565b8282815181106110a157fe5b60200260200101516001600160a01b0316816001600160a01b0316146110f85760405162461bcd60e51b8152600401808060200182810382526046815260200180611e5e6046913960600191505060405180910390fd5b82828151811061110457fe5b60200260200101516001600160a01b031663c5ebeaec86848151811061112657fe5b60200260200101516040518263ffffffff1660e01b815260040180828152602001915050602060405180830381600087803b15801561116457600080fd5b505af1158015611178573d6000803e3d6000fd5b505050506040513d602081101561118e57600080fd5b5051156111cc5760405162461bcd60e51b8152600401808060200182810382526035815260200180611dc06035913960400191505060405180910390fd5b6111d461031f565b6001600160a01b03168683815181106111e957fe5b60200260200101516001600160a01b0316141561126f5761120861031f565b6001600160a01b031663d0e30db086848151811061122257fe5b60200260200101516040518263ffffffff1660e01b81526004016000604051808303818588803b15801561125557600080fd5b505af1158015611269573d6000803e3d6000fd5b50505050505b6112933386848151811061127f57fe5b6020026020010151888581518110610e7357fe5b85828151811061129f57fe5b60200260200101516001600160a01b03167f03c44a7ddb65ca5f1bbeffda35ba96457c370e957138d14005ff3e55551ab50f8684815181106112dd57fe5b60200260200101516040518082815260200191505060405180910390a250600101610fad565b5050505050565b60005b8251811015610f0257600061132784838151811061094b57fe5b905060001983838151811061133857fe5b602002602001015114156113d357604080516395dd919360e01b815230600482015290516001600160a01b038316916395dd9193916024808301926020929190829003018186803b15801561138c57600080fd5b505afa1580156113a0573d6000803e3d6000fd5b505050506040513d60208110156113b657600080fd5b505183518490849081106113c657fe5b6020026020010181815250505b611404818584815181106113e357fe5b60200260200101518585815181106113f757fe5b60200260200101516117b3565b604080516395dd919360e01b815230600482015290516001600160a01b038316916395dd9193916024808301926020929190829003018186803b15801561144a57600080fd5b505afa15801561145e573d6000803e3d6000fd5b505050506040513d602081101561147457600080fd5b50516114f1576003600085848151811061148a57fe5b60200260200101516001600160a01b03166001600160a01b0316815260200190815260200160002060006101000a8154906001600160a01b0302191690556114ef8483815181106114d757fe5b6020026020010151600061166990919063ffffffff16565b505b8382815181106114fd57fe5b60200260200101516001600160a01b03167fb3ef5936c6a45fc10d27f174d569533c42819c98975f3da26d592c63e94415fe84848151811061153b57fe5b60200260200101516040518082815260200191505060405180910390a25060010161130d565b6115696104ee565b6001600160a01b031663e9af0292306040518263ffffffff1660e01b815260040180826001600160a01b03168152602001915050600060405180830381600087803b1580156115b757600080fd5b505af11580156115cb573d6000803e3d6000fd5b5050505060006115d9610364565b905061034333826001600160a01b03166370a08231306040518263ffffffff1660e01b815260040180826001600160a01b0316815260200191505060206040518083038186803b15801561162c57600080fd5b505afa158015611640573d6000803e3d6000fd5b505050506040513d602081101561165657600080fd5b50516001600160a01b0384169190611761565b8154600090815b8181101561175957836001600160a01b031685828154811061168e57fe5b6000918252602090912001546001600160a01b03161415611751576001820381101561171c578460018303815481106116c357fe5b9060005260206000200160009054906101000a90046001600160a01b03168582815481106116ed57fe5b9060005260206000200160006101000a8154816001600160a01b0302191690836001600160a01b031602179055505b8480548061172657fe5b600082815260209020810160001990810180546001600160a01b031916905501905560019250611759565b600101611670565b505092915050565b604080516001600160a01b038416602482015260448082018490528251808303909101815260649091019091526020810180516001600160e01b031663a9059cbb60e01b179052610f02908490611954565b6117bb61031f565b6001600160a01b0316826001600160a01b03161415611892576117dc61031f565b6001600160a01b0316632e1a7d4d826040518263ffffffff1660e01b815260040180828152602001915050600060405180830381600087803b15801561182157600080fd5b505af1158015611835573d6000803e3d6000fd5b50505050826001600160a01b0316634e4d9fea826040518263ffffffff1660e01b81526004016000604051808303818588803b15801561187457600080fd5b505af1158015611888573d6000803e3d6000fd5b5050505050610f02565b6118a66001600160a01b0383168483611a05565b826001600160a01b0316630e752702826040518263ffffffff1660e01b815260040180828152602001915050602060405180830381600087803b1580156118ec57600080fd5b505af1158015611900573d6000803e3d6000fd5b505050506040513d602081101561191657600080fd5b505115610f025760405162461bcd60e51b8152600401808060200182810382526031815260200180611d696031913960400191505060405180910390fd5b60606119a9826040518060400160405280602081526020017f5361666545524332303a206c6f772d6c6576656c2063616c6c206661696c6564815250856001600160a01b0316611b189092919063ffffffff16565b805190915015610f02578080602001905160208110156119c857600080fd5b5051610f025760405162461bcd60e51b815260040180806020018281038252602a815260200180611ea4602a913960400191505060405180910390fd5b801580611a8b575060408051636eb1769f60e11b81523060048201526001600160a01b03848116602483015291519185169163dd62ed3e91604480820192602092909190829003018186803b158015611a5d57600080fd5b505afa158015611a71573d6000803e3d6000fd5b505050506040513d6020811015611a8757600080fd5b5051155b611ac65760405162461bcd60e51b8152600401808060200182810382526036815260200180611ece6036913960400191505060405180910390fd5b604080516001600160a01b038416602482015260448082018490528251808303909101815260649091019091526020810180516001600160e01b031663095ea7b360e01b179052610f02908490611954565b6060611b278484600085611b31565b90505b9392505050565b606082471015611b725760405162461bcd60e51b8152600401808060200182810382526026815260200180611d9a6026913960400191505060405180910390fd5b611b7b85611c8d565b611bcc576040805162461bcd60e51b815260206004820152601d60248201527f416464726573733a2063616c6c20746f206e6f6e2d636f6e7472616374000000604482015290519081900360640190fd5b60006060866001600160a01b031685876040518082805190602001908083835b60208310611c0b5780518252601f199092019160209182019101611bec565b6001836020036101000a03801982511681845116808217855250505050505090500191505060006040518083038185875af1925050503d8060008114611c6d576040519150601f19603f3d011682016040523d82523d6000602084013e611c72565b606091505b5091509150611c82828286611c93565b979650505050505050565b3b151590565b60608315611ca2575081611b2a565b825115611cb25782518084602001fd5b8160405162461bcd60e51b81526004018080602001828103825283818151815260200191508051906020019080838360005b83811015611cfc578181015183820152602001611ce4565b50505050905090810190601f168015611d295780820380516001836020036101000a031916815260200191505b509250505060405180910390fdfe5f5f72656d6f7665436f6c6c61746572616c4173736574733a204173736574206973206e6f7420636f6c6c61746572616c5f5f7265706179426f72726f77656441737365743a204572726f72207768696c65207265706179696e6720626f72726f77416464726573733a20696e73756666696369656e742062616c616e636520666f722063616c6c5f5f626f72726f774173736574733a2050726f626c656d207768696c6520626f72726f77696e672066726f6d20436f6d706f756e647265636569766543616c6c46726f6d5661756c743a20496e76616c696420616374696f6e49645f5f616464436f6c6c61746572616c4173736574733a204572726f72207768696c652063616c6c696e6720656e7465724d61726b657473206f6e20436f6d706f756e645f5f626f72726f774173736574733a2043616e206f6e6c7920626f72726f772066726f6d206f6e652063546f6b656e20666f72206120676976656e20756e6465726c79696e675361666545524332303a204552433230206f7065726174696f6e20646964206e6f7420737563636565645361666545524332303a20617070726f76652066726f6d206e6f6e2d7a65726f20746f206e6f6e2d7a65726f20616c6c6f77616e6365a164736f6c634300060c000a","linkReferences":{}},"methodIdentifiers":{"assetIsCollateral(address)":"4eeb4a16","getCTokenFromBorrowedAsset(address)":"d889378e","getCompToken()":"70a58ec6","getCompoundComptroller()":"9e209ad1","getDebtAssets()":"ecd658b4","getManagedAssets()":"80daddb8","getWethToken()":"4c252f91","init(bytes)":"4ddf47d4","receiveCallFromVault(bytes)":"e5c23a97"},"id":154}