{"abi":[{"type":"constructor","inputs":[{"name":"_feeManager","type":"address","internalType":"address"},{"name":"_protocolFeeTracker","type":"address","internalType":"address"},{"name":"_valueInterpreter","type":"address","internalType":"address"}],"stateMutability":"nonpayable"},{"type":"function","name":"calcGav","inputs":[{"name":"_vaultProxy","type":"address","internalType":"address"}],"outputs":[{"name":"denominationAsset_","type":"address","internalType":"address"},{"name":"gav_","type":"uint256","internalType":"uint256"}],"stateMutability":"nonpayable"},{"type":"function","name":"calcGavInAsset","inputs":[{"name":"_vaultProxy","type":"address","internalType":"address"},{"name":"_quoteAsset","type":"address","internalType":"address"}],"outputs":[{"name":"gav_","type":"uint256","internalType":"uint256"}],"stateMutability":"nonpayable"},{"type":"function","name":"calcGrossShareValue","inputs":[{"name":"_vaultProxy","type":"address","internalType":"address"}],"outputs":[{"name":"denominationAsset_","type":"address","internalType":"address"},{"name":"grossShareValue_","type":"uint256","internalType":"uint256"}],"stateMutability":"nonpayable"},{"type":"function","name":"calcGrossShareValueInAsset","inputs":[{"name":"_vaultProxy","type":"address","internalType":"address"},{"name":"_quoteAsset","type":"address","internalType":"address"}],"outputs":[{"name":"grossShareValue_","type":"uint256","internalType":"uint256"}],"stateMutability":"nonpayable"},{"type":"function","name":"calcNav","inputs":[{"name":"_vaultProxy","type":"address","internalType":"address"}],"outputs":[{"name":"denominationAsset_","type":"address","internalType":"address"},{"name":"nav_","type":"uint256","internalType":"uint256"}],"stateMutability":"nonpayable"},{"type":"function","name":"calcNavInAsset","inputs":[{"name":"_vaultProxy","type":"address","internalType":"address"},{"name":"_quoteAsset","type":"address","internalType":"address"}],"outputs":[{"name":"nav_","type":"uint256","internalType":"uint256"}],"stateMutability":"nonpayable"},{"type":"function","name":"calcNetShareValue","inputs":[{"name":"_vaultProxy","type":"address","internalType":"address"}],"outputs":[{"name":"denominationAsset_","type":"address","internalType":"address"},{"name":"netShareValue_","type":"uint256","internalType":"uint256"}],"stateMutability":"nonpayable"},{"type":"function","name":"calcNetShareValueInAsset","inputs":[{"name":"_vaultProxy","type":"address","internalType":"address"},{"name":"_quoteAsset","type":"address","internalType":"address"}],"outputs":[{"name":"netShareValue_","type":"uint256","internalType":"uint256"}],"stateMutability":"nonpayable"},{"type":"function","name":"calcNetValueForSharesHolder","inputs":[{"name":"_vaultProxy","type":"address","internalType":"address"},{"name":"_sharesHolder","type":"address","internalType":"address"}],"outputs":[{"name":"denominationAsset_","type":"address","internalType":"address"},{"name":"netValue_","type":"uint256","internalType":"uint256"}],"stateMutability":"nonpayable"},{"type":"function","name":"calcNetValueForSharesHolderInAsset","inputs":[{"name":"_vaultProxy","type":"address","internalType":"address"},{"name":"_sharesHolder","type":"address","internalType":"address"},{"name":"_quoteAsset","type":"address","internalType":"address"}],"outputs":[{"name":"netValue_","type":"uint256","internalType":"uint256"}],"stateMutability":"nonpayable"},{"type":"function","name":"calcProtocolFeeDueForFund","inputs":[{"name":"_vaultProxy","type":"address","internalType":"address"}],"outputs":[{"name":"sharesDue_","type":"uint256","internalType":"uint256"}],"stateMutability":"view"},{"type":"function","name":"getFeeManager","inputs":[],"outputs":[{"name":"feeManager_","type":"address","internalType":"address"}],"stateMutability":"view"},{"type":"function","name":"getProtocolFeeTracker","inputs":[],"outputs":[{"name":"protocolFeeTracker_","type":"address","internalType":"address"}],"stateMutability":"view"},{"type":"function","name":"getValueInterpreter","inputs":[],"outputs":[{"name":"valueInterpreter_","type":"address","internalType":"address"}],"stateMutability":"view"}],"bytecode":{"object":"0x60e060405234801561001057600080fd5b50604051610f6d380380610f6d8339818101604052606081101561003357600080fd5b50805160208201516040909201516001600160601b0319606092831b811660805292821b831660a052901b1660c05260805160601c60a05160601c60c05160601c610ed661009760003980610b06525080610a31525080610bfd5250610ed66000f3fe608060405234801561001057600080fd5b50600436106100ea5760003560e01c806381dfa95b1161008c578063c65988ff11610066578063c65988ff146102a2578063eefcb1b3146102d0578063f2d63826146102fe578063faf6eeef14610306576100ea565b806381dfa95b14610246578063875fb4b314610274578063c35526631461027c576100ea565b80634807ccbd116100c85780634807ccbd1461019657806351ac29c7146101ce57806353d467f3146101fc578063749cc8f514610222576100ea565b8063037276c1146100ef578063140a9924146101385780633ba6b85114610170575b600080fd5b6101156004803603602081101561010557600080fd5b50356001600160a01b0316610334565b604080516001600160a01b03909316835260208301919091528051918290030190f35b61015e6004803603602081101561014e57600080fd5b50356001600160a01b0316610422565b60408051918252519081900360200190f35b6101156004803603602081101561018657600080fd5b50356001600160a01b0316610623565b61015e600480360360608110156101ac57600080fd5b506001600160a01b03813581169160208101358216916040909101351661082b565b61015e600480360360408110156101e457600080fd5b506001600160a01b03813581169160200135166108e5565b6101156004803603602081101561021257600080fd5b50356001600160a01b031661099d565b61022a610a2f565b604080516001600160a01b039092168252519081900360200190f35b6101156004803603604081101561025c57600080fd5b506001600160a01b0381358116916020013516610a53565b61022a610b04565b6101156004803603602081101561029257600080fd5b50356001600160a01b0316610b28565b61015e600480360360408110156102b857600080fd5b506001600160a01b0381358116916020013516610bdf565b61015e600480360360408110156102e657600080fd5b506001600160a01b0381358116916020013516610bed565b61022a610bfb565b61015e6004803603604081101561031c57600080fd5b506001600160a01b0381358116916020013516610c1f565b600080600061034284610c2d565b9050806001600160a01b031663e269c3d66040518163ffffffff1660e01b815260040160206040518083038186803b15801561037d57600080fd5b505afa158015610391573d6000803e3d6000fd5b505050506040513d60208110156103a757600080fd5b5051604080516356cff99f60e01b815290516001600160a01b038416916356cff99f9160048083019260209291908290030181600087803b1580156103eb57600080fd5b505af11580156103ff573d6000803e3d6000fd5b505050506040513d602081101561041557600080fd5b5051909350915050915091565b60008061042d610a2f565b6001600160a01b031663b69f3652846040518263ffffffff1660e01b815260040180826001600160a01b0316815260200191505060206040518083038186803b15801561047957600080fd5b505afa15801561048d573d6000803e3d6000fd5b505050506040513d60208110156104a357600080fd5b5051905042811015806104b4575080155b156104c357600091505061061e565b60006104cf4283610c9a565b90506000846001600160a01b03166318160ddd6040518163ffffffff1660e01b815260040160206040518083038186803b15801561050c57600080fd5b505afa158015610520573d6000803e3d6000fd5b505050506040513d602081101561053657600080fd5b5051905060006105e26127106105dc6301e187e081876105d6610557610a2f565b6001600160a01b031663f8fc29618e6040518263ffffffff1660e01b815260040180826001600160a01b0316815260200191505060206040518083038186803b1580156105a357600080fd5b505afa1580156105b7573d6000803e3d6000fd5b505050506040513d60208110156105cd57600080fd5b50518990610cf7565b90610cf7565b90610d50565b905060006105f08383610c9a565b9050806106055760009550505050505061061e565b61061660026105dc83818688610cf7565b955050505050505b919050565b600080600061063184610c2d565b9050806001600160a01b03166339bf70d161064a610bfb565b604080516001600160e01b031960e085901b1681526001600160a01b0390921660048301526000602483018190526060604484015260648301819052905160a48084019382900301818387803b1580156106a357600080fd5b505af11580156106b7573d6000803e3d6000fd5b5050505060006106c685610422565b9050816001600160a01b031663e269c3d66040518163ffffffff1660e01b815260040160206040518083038186803b15801561070157600080fd5b505afa158015610715573d6000803e3d6000fd5b505050506040513d602081101561072b57600080fd5b5051604080516356cff99f60e01b815290519195506108229186916001600160a01b038616916356cff99f916004808201926020929091908290030181600087803b15801561077957600080fd5b505af115801561078d573d6000803e3d6000fd5b505050506040513d60208110156107a357600080fd5b5051604080516318160ddd60e01b8152905161081d9186916001600160a01b038c16916318160ddd916004808301926020929190829003018186803b1580156107eb57600080fd5b505afa1580156107ff573d6000803e3d6000fd5b505050506040513d602081101561081557600080fd5b505190610db7565b610e11565b92505050915091565b600080600061083a8686610a53565b91509150610846610b04565b6001600160a01b0316634c67e1068383876040518463ffffffff1660e01b815260040180846001600160a01b03168152602001838152602001826001600160a01b031681526020019350505050602060405180830381600087803b1580156108ad57600080fd5b505af11580156108c1573d6000803e3d6000fd5b505050506040513d60208110156108d757600080fd5b5051925050505b9392505050565b60008060006108f385610334565b915091506108ff610b04565b6001600160a01b0316634c67e1068383876040518463ffffffff1660e01b815260040180846001600160a01b03168152602001838152602001826001600160a01b031681526020019350505050602060405180830381600087803b15801561096657600080fd5b505af115801561097a573d6000803e3d6000fd5b505050506040513d602081101561099057600080fd5b5051925050505b92915050565b6000806000836001600160a01b03166318160ddd6040518163ffffffff1660e01b815260040160206040518083038186803b1580156109db57600080fd5b505afa1580156109ef573d6000803e3d6000fd5b505050506040513d6020811015610a0557600080fd5b505190506000610a1485610623565b9094509050610822670de0b6b3a76400006105dc8484610cf7565b7f000000000000000000000000000000000000000000000000000000000000000090565b6000806000846001600160a01b03166370a08231856040518263ffffffff1660e01b815260040180826001600160a01b0316815260200191505060206040518083038186803b158015610aa557600080fd5b505afa158015610ab9573d6000803e3d6000fd5b505050506040513d6020811015610acf57600080fd5b505190506000610ade86610623565b9094509050610af9670de0b6b3a76400006105dc8484610cf7565b925050509250929050565b7f000000000000000000000000000000000000000000000000000000000000000090565b6000806000610b3684610c2d565b9050806001600160a01b031663e269c3d66040518163ffffffff1660e01b815260040160206040518083038186803b158015610b7157600080fd5b505afa158015610b85573d6000803e3d6000fd5b505050506040513d6020811015610b9b57600080fd5b50516040805163369c940f60e21b815290516001600160a01b0384169163da72503c9160048083019260209291908290030181600087803b1580156103eb57600080fd5b60008060006108f38561099d565b60008060006108f385610b28565b7f000000000000000000000000000000000000000000000000000000000000000090565b60008060006108f385610623565b6000816001600160a01b0316635a53e3486040518163ffffffff1660e01b815260040160206040518083038186803b158015610c6857600080fd5b505afa158015610c7c573d6000803e3d6000fd5b505050506040513d6020811015610c9257600080fd5b505192915050565b600082821115610cf1576040805162461bcd60e51b815260206004820152601e60248201527f536166654d6174683a207375627472616374696f6e206f766572666c6f770000604482015290519081900360640190fd5b50900390565b600082610d0657506000610997565b82820282848281610d1357fe5b04146108de5760405162461bcd60e51b8152600401808060200182810382526021815260200180610ea96021913960400191505060405180910390fd5b6000808211610da6576040805162461bcd60e51b815260206004820152601a60248201527f536166654d6174683a206469766973696f6e206279207a65726f000000000000604482015290519081900360640190fd5b818381610daf57fe5b049392505050565b6000828201838110156108de576040805162461bcd60e51b815260206004820152601b60248201527f536166654d6174683a206164646974696f6e206f766572666c6f770000000000604482015290519081900360640190fd5b600081610e8a57836001600160a01b031663313ce5676040518163ffffffff1660e01b815260040160206040518083038186803b158015610e5157600080fd5b505afa158015610e65573d6000803e3d6000fd5b505050506040513d6020811015610e7b57600080fd5b505160ff16600a0a90506108de565b610ea0826105dc85670de0b6b3a7640000610cf7565b94935050505056fe536166654d6174683a206d756c7469706c69636174696f6e206f766572666c6f77a164736f6c634300060c000a","linkReferences":{}},"methodIdentifiers":{"calcGav(address)":"037276c1","calcGavInAsset(address,address)":"51ac29c7","calcGrossShareValue(address)":"c3552663","calcGrossShareValueInAsset(address,address)":"eefcb1b3","calcNav(address)":"53d467f3","calcNavInAsset(address,address)":"c65988ff","calcNetShareValue(address)":"3ba6b851","calcNetShareValueInAsset(address,address)":"faf6eeef","calcNetValueForSharesHolder(address,address)":"81dfa95b","calcNetValueForSharesHolderInAsset(address,address,address)":"4807ccbd","calcProtocolFeeDueForFund(address)":"140a9924","getFeeManager()":"f2d63826","getProtocolFeeTracker()":"749cc8f5","getValueInterpreter()":"875fb4b3"},"id":257}