{"abi":[{"type":"constructor","inputs":[{"name":"_wethToken","type":"address","internalType":"address"},{"name":"_exitedValidatorEthThreshold","type":"uint256","internalType":"uint256"}],"stateMutability":"nonpayable"},{"type":"function","name":"getDebtAssets","inputs":[],"outputs":[{"name":"assets_","type":"address[]","internalType":"address[]"},{"name":"amounts_","type":"uint256[]","internalType":"uint256[]"}],"stateMutability":"pure"},{"type":"function","name":"getManagedAssets","inputs":[],"outputs":[{"name":"assets_","type":"address[]","internalType":"address[]"},{"name":"amounts_","type":"uint256[]","internalType":"uint256[]"}],"stateMutability":"view"},{"type":"function","name":"getValidatorCount","inputs":[],"outputs":[{"name":"validatorCount_","type":"uint256","internalType":"uint256"}],"stateMutability":"view"},{"type":"function","name":"init","inputs":[{"name":"","type":"bytes","internalType":"bytes"}],"outputs":[],"stateMutability":"nonpayable"},{"type":"function","name":"positionValueIsPaused","inputs":[],"outputs":[{"name":"paused_","type":"bool","internalType":"bool"}],"stateMutability":"view"},{"type":"function","name":"receiveCallFromVault","inputs":[{"name":"_actionData","type":"bytes","internalType":"bytes"}],"outputs":[],"stateMutability":"nonpayable"},{"type":"event","name":"PositionValuePaused","inputs":[],"anonymous":false},{"type":"event","name":"PositionValueUnpaused","inputs":[],"anonymous":false},{"type":"event","name":"ValidatorsAdded","inputs":[{"name":"stakingContractAddress","type":"address","indexed":false,"internalType":"address"},{"name":"validatorAmount","type":"uint256","indexed":false,"internalType":"uint256"}],"anonymous":false},{"type":"event","name":"ValidatorsRemoved","inputs":[{"name":"stakingContractAddress","type":"address","indexed":false,"internalType":"address"},{"name":"validatorAmount","type":"uint256","indexed":false,"internalType":"uint256"}],"anonymous":false}],"bytecode":{"object":"0x60c06040523480156200001157600080fd5b50604051620014ac380380620014ac833981016040819052620000349162000097565b6080526001600160a01b031660a052620000da565b60006001600160a01b0382165b92915050565b620000678162000049565b81146200007357600080fd5b50565b805162000056816200005c565b8062000067565b8051620000568162000083565b60008060408385031215620000af57620000af600080fd5b6000620000bd858562000076565b9250506020620000d0858286016200008a565b9150509250929050565b60805160a051611397620001156000396000818161014e0152818161029b0152818161046601526104e40152600061073e01526113976000f3fe608060405234801561001057600080fd5b50600436106100625760003560e01c8063290f126b146100675780634ddf47d4146100835780637071688a1461009657806380daddb8146100a6578063e5c23a97146100bc578063ecd658b4146100cf575b600080fd5b60015460ff1660405161007a9190610b15565b60405180910390f35b610094610091366004610c1e565b50565b005b60005460405161007a9190610c5f565b6100ae6100d7565b60405161007a929190610d2e565b6100946100ca366004610c1e565b6101da565b6060806100ae565b6060806100e660015460ff1690565b1561010c5760405162461bcd60e51b815260040161010390610d95565b60405180910390fd5b604080516001808252818301909252906020808301908036833750506040805160018082528183019092529294509050602080830190803683370190505090507f00000000000000000000000000000000000000000000000000000000000000008260008151811061018057610180610da5565b60200260200101906001600160a01b031690816001600160a01b0316815250506801bc16d674ec8000006000546101b79190610dd1565b816000815181106101ca576101ca610da5565b6020026020010181815250509091565b600080828060200190518101906101f19190610e84565b909250905081610209576102048161025b565b505050565b6001820361021a57610204816103ac565b6002820361022a5761020461045f565b6003820361023b576102048161050f565b6004820361024b57610204610583565b60058203610204576102046105dd565b60008061026783610634565b909250905060006102816801bc16d674ec80000083610dd1565b604051632e1a7d4d60e01b81529091506001600160a01b037f00000000000000000000000000000000000000000000000000000000000000001690632e1a7d4d906102d0908490600401610c5f565b600060405180830381600087803b1580156102ea57600080fd5b505af11580156102fe573d6000803e3d6000fd5b50505050826001600160a01b031663d0e30db0826040518263ffffffff1660e01b81526004016000604051808303818588803b15801561033d57600080fd5b505af1158015610351573d6000803e3d6000fd5b5050505050816000808282546103679190610ef2565b90915550506040517f68c3ce677c367b7afcaf3a43fd233dbbffb64c69fa9d55962079ad6d3dd93ce89061039e9085908590610f05565b60405180910390a150505050565b60008060006103ba84610654565b9194509250905060008160028111156103d5576103d5610edc565b036103e9576103e4838361067b565b610451565b60018160028111156103fd576103fd610edc565b0361040c576103e48383610711565b600281600281111561042057610420610edc565b036104395761042f8383610711565b6103e4838361067b565b60405162461bcd60e51b815260040161010390610f63565b61045961045f565b50505050565b60004790507f00000000000000000000000000000000000000000000000000000000000000006001600160a01b031663d0e30db0826040518263ffffffff1660e01b81526004016000604051808303818588803b1580156104bf57600080fd5b505af11580156104d3573d6000803e3d6000fd5b506100919350506001600160a01b037f0000000000000000000000000000000000000000000000000000000000000000169150339050836108cf565b60008061051b83610925565b604051632dac1b7b60e21b815291935091506001600160a01b0383169063b6b06dec9061054c908490600401610fa5565b600060405180830381600087803b15801561056657600080fd5b505af115801561057a573d6000803e3d6000fd5b50505050505050565b60015460ff16156105a65760405162461bcd60e51b815260040161010390610ff7565b6001805460ff1916811790556040517f85b12046fa6d629ffce93e60f505f8615fbff886548a5dd68a06fa8f351198b890600090a1565b60015460ff166105ff5760405162461bcd60e51b815260040161010390611046565b6001805460ff191690556040517fe066d018d05e443eacd0e60c5e6876e7afcae9a9ee7e8d6b45dfdbd5d4ce14cb90600090a1565b6000808280602001905181019061064b919061106a565b91509150915091565b6000606060008380602001905181019061066e9190611175565b9250925092509193909250565b60005b815181101561020457826001600160a01b031663bf509bd48383815181106106a8576106a8610da5565b60200260200101516040518263ffffffff1660e01b81526004016106cc9190610fa5565b600060405180830381600087803b1580156106e657600080fd5b505af11580156106fa573d6000803e3d6000fd5b505050508080610709906111e0565b91505061067e565b6000805b825181101561085957600083828151811061073257610732610da5565b602002602001015190507f0000000000000000000000000000000000000000000000000000000000000000856001600160a01b0316631ee13343836040518263ffffffff1660e01b81526004016107899190610fa5565b602060405180830381865afa1580156107a6573d6000803e3d6000fd5b505050506040513d601f19601f820116820180604052508101906107ca91906111fa565b6001600160a01b031631106107e7576107e4600184610ef2565b92505b604051632ba03a7960e01b81526001600160a01b03861690632ba03a7990610813908490600401610fa5565b600060405180830381600087803b15801561082d57600080fd5b505af1158015610841573d6000803e3d6000fd5b50505050508080610851906111e0565b915050610715565b508015610204576108728161086d60005490565b61093d565b90508015610204578060008082825461088b919061121b565b90915550506040517f854e49581a213ca8a02b980593f9295b0ab88c01084c50267f8d3682fe70fbd6906108c29085908490610f05565b60405180910390a1505050565b6102048363a9059cbb60e01b84846040516024016108ee929190610f05565b60408051601f198184030181529190526020810180516001600160e01b03166001600160e01b031990931692909217909152610957565b600060608280602001905181019061064b919061122e565b600081831061094c578161094e565b825b90505b92915050565b60006109ac826040518060400160405280602081526020017f5361666545524332303a206c6f772d6c6576656c2063616c6c206661696c6564815250856001600160a01b03166109e69092919063ffffffff16565b80519091501561020457808060200190518101906109ca9190611263565b6102045760405162461bcd60e51b8152600401610103906112cb565b60606109f584846000856109ff565b90505b9392505050565b606082471015610a215760405162461bcd60e51b81526004016101039061131e565b600080866001600160a01b03168587604051610a3d9190611350565b60006040518083038185875af1925050503d8060008114610a7a576040519150601f19603f3d011682016040523d82523d6000602084013e610a7f565b606091505b5091509150610a9087838387610a9d565b925050505b949350505050565b60608315610adc578251600003610ad5576001600160a01b0385163b610ad55760405162461bcd60e51b81526004016101039061135c565b5081610a95565b610a958383815115610af15781518083602001fd5b8060405162461bcd60e51b81526004016101039190610fa5565b8015155b82525050565b602081016109518284610b0b565b634e487b7160e01b600052604160045260246000fd5b601f19601f830116810181811067ffffffffffffffff82111715610b5f57610b5f610b23565b6040525050565b6000610b7160405190565b9050610b7d8282610b39565b919050565b600067ffffffffffffffff821115610b9c57610b9c610b23565b601f19601f83011660200192915050565b82818337506000910152565b6000610bcc610bc784610b82565b610b66565b905082815260208101848484011115610be757610be7600080fd5b610bf2848285610bad565b509392505050565b600082601f830112610c0e57610c0e600080fd5b8135610a95848260208601610bb9565b600060208284031215610c3357610c33600080fd5b813567ffffffffffffffff811115610c4d57610c4d600080fd5b610a9584828501610bfa565b80610b0f565b602081016109518284610c59565b60006001600160a01b038216610951565b610b0f81610c6d565b6000610c938383610c7e565b505060200190565b6000610ca5825190565b80845260209384019383018060005b83811015610cd9578151610cc88882610c87565b975060208301925050600101610cb4565b509495945050505050565b6000610c938383610c59565b6000610cfa825190565b80845260209384019383018060005b83811015610cd9578151610d1d8882610ce4565b975060208301925050600101610d09565b60408082528101610d3f8185610c9b565b905081810360208301526109f58184610cf0565b602281526000602082017f6765744d616e616765644173736574733a2056616c756174696f6e2070617573815261195960f21b602082015291505b5060400190565b6020808252810161095181610d53565b634e487b7160e01b600052603260045260246000fd5b634e487b7160e01b600052601160045260246000fd5b818102808215838204851417610de957610de9610dbb565b5092915050565b805b811461009157600080fd5b805161095181610df0565b60005b83811015610e23578181015183820152602001610e0b565b50506000910152565b6000610e3a610bc784610b82565b905082815260208101848484011115610e5557610e55600080fd5b610bf2848285610e08565b600082601f830112610e7457610e74600080fd5b8151610a95848260208601610e2c565b60008060408385031215610e9a57610e9a600080fd5b6000610ea68585610dfd565b925050602083015167ffffffffffffffff811115610ec657610ec6600080fd5b610ed285828601610e60565b9150509250929050565b634e487b7160e01b600052602160045260246000fd5b8082018082111561095157610951610dbb565b60408101610f138285610c7e565b6109f86020830184610c59565b602681526000602082017f5f5f636c61696d466565733a20556e737570706f7274656420636c61696d466581526565207479706560d01b60208201529150610d8e565b6020808252810161095181610f20565b6000610f7d825190565b808452602084019350610f94818560208601610e08565b601f01601f19169290920192915050565b6020808252810161094e8184610f73565b602481526000602082017f5f5f7061757365506f736974696f6e56616c75653a20416c72656164792070618152631d5cd95960e21b60208201529150610d8e565b6020808252810161095181610fb6565b602281526000602082017f5f5f756e7061757365506f736974696f6e56616c75653a204e6f742070617573815261195960f21b60208201529150610d8e565b6020808252810161095181611007565b610df281610c6d565b805161095181611056565b6000806040838503121561108057611080600080fd5b600061108c858561105f565b9250506020610ed285828601610dfd565b600067ffffffffffffffff8211156110b7576110b7610b23565b5060209081020190565b60006110cf610bc78461109d565b838152905060208082019084028301858111156110ee576110ee600080fd5b835b8181101561112f57805167ffffffffffffffff81111561111257611112600080fd5b80860161111f8982610e60565b85525050602092830192016110f0565b5050509392505050565b600082601f83011261114d5761114d600080fd5b8151610a958482602086016110c1565b6003811061009157600080fd5b80516109518161115d565b60008060006060848603121561118d5761118d600080fd5b6000611199868661105f565b935050602084015167ffffffffffffffff8111156111b9576111b9600080fd5b6111c586828701611139565b92505060406111d68682870161116a565b9150509250925092565b600060001982036111f3576111f3610dbb565b5060010190565b60006020828403121561120f5761120f600080fd5b6000610a95848461105f565b8181038181111561095157610951610dbb565b6000806040838503121561124457611244600080fd5b6000610ea6858561105f565b801515610df2565b805161095181611250565b60006020828403121561127857611278600080fd5b6000610a958484611258565b602a81526000602082017f5361666545524332303a204552433230206f7065726174696f6e20646964206e8152691bdd081cdd58d8d9595960b21b60208201529150610d8e565b6020808252810161095181611284565b602681526000602082017f416464726573733a20696e73756666696369656e742062616c616e636520666f8152651c8818d85b1b60d21b60208201529150610d8e565b60208082528101610951816112db565b6000611338825190565b611346818560208601610e08565b9290920192915050565b60006109f8828461132e565b6020808252810161095181601d81527f416464726573733a2063616c6c20746f206e6f6e2d636f6e747261637400000060208201526040019056","linkReferences":{}},"methodIdentifiers":{"getDebtAssets()":"ecd658b4","getManagedAssets()":"80daddb8","getValidatorCount()":"7071688a","init(bytes)":"4ddf47d4","positionValueIsPaused()":"290f126b","receiveCallFromVault(bytes)":"e5c23a97"},"id":50}