{"abi":[{"type":"function","name":"claimOwnership","inputs":[],"outputs":[],"stateMutability":"nonpayable"},{"type":"function","name":"getLastUpdated","inputs":[],"outputs":[{"name":"lastUpdated_","type":"uint256","internalType":"uint256"}],"stateMutability":"view"},{"type":"function","name":"getNominatedOwner","inputs":[],"outputs":[{"name":"nominatedOwner_","type":"address","internalType":"address"}],"stateMutability":"view"},{"type":"function","name":"getOwner","inputs":[],"outputs":[{"name":"owner_","type":"address","internalType":"address"}],"stateMutability":"view"},{"type":"function","name":"getUpdater","inputs":[],"outputs":[{"name":"updater_","type":"address","internalType":"address"}],"stateMutability":"view"},{"type":"function","name":"getValue","inputs":[],"outputs":[{"name":"value_","type":"int256","internalType":"int256"}],"stateMutability":"view"},{"type":"function","name":"getValueWithTimestamp","inputs":[],"outputs":[{"name":"value_","type":"int256","internalType":"int256"},{"name":"lastUpdated_","type":"uint256","internalType":"uint256"}],"stateMutability":"view"},{"type":"function","name":"init","inputs":[{"name":"_owner","type":"address","internalType":"address"},{"name":"_updater","type":"address","internalType":"address"},{"name":"_description","type":"bytes32","internalType":"bytes32"}],"outputs":[],"stateMutability":"nonpayable"},{"type":"function","name":"setNominatedOwner","inputs":[{"name":"_nextNominatedOwner","type":"address","internalType":"address"}],"outputs":[],"stateMutability":"nonpayable"},{"type":"function","name":"setUpdater","inputs":[{"name":"_nextUpdater","type":"address","internalType":"address"}],"outputs":[],"stateMutability":"nonpayable"},{"type":"function","name":"updateValue","inputs":[{"name":"_nextValue","type":"int192","internalType":"int192"}],"outputs":[],"stateMutability":"nonpayable"},{"type":"event","name":"Initialized","inputs":[{"name":"description","type":"bytes32","indexed":false,"internalType":"bytes32"}],"anonymous":false},{"type":"event","name":"NominatedOwnerSet","inputs":[{"name":"nominatedOwner","type":"address","indexed":true,"internalType":"address"}],"anonymous":false},{"type":"event","name":"OwnerSet","inputs":[{"name":"owner","type":"address","indexed":false,"internalType":"address"}],"anonymous":false},{"type":"event","name":"UpdaterSet","inputs":[{"name":"updater","type":"address","indexed":false,"internalType":"address"}],"anonymous":false},{"type":"event","name":"ValueUpdated","inputs":[{"name":"value","type":"int256","indexed":false,"internalType":"int256"}],"anonymous":false}],"bytecode":{"object":"0x608060405234801561001057600080fd5b50610ad9806100206000396000f3fe608060405234801561001057600080fd5b50600436106100a95760003560e01c80634e71e0c8116100715780634e71e0c8146101c4578063728e17a0146101ce57806378121dd414610212578063893d20e81461023057806399d54d39146102645780639d54f41914610298576100a9565b806320965255146100ae578063288b6a36146100cc5780632cd5667214610100578063347258aa146101315780634def98551461019f575b600080fd5b6100b66102dc565b6040518082815260200191505060405180910390f35b6100d46102f6565b604051808273ffffffffffffffffffffffffffffffffffffffff16815260200191505060405180910390f35b61012f6004803603602081101561011657600080fd5b81019080803560170b906020019092919050505061031f565b005b61019d6004803603606081101561014757600080fd5b81019080803573ffffffffffffffffffffffffffffffffffffffff169060200190929190803573ffffffffffffffffffffffffffffffffffffffff16906020019092919080359060200190929190505050610479565b005b6101a7610648565b604051808381526020018281526020019250505060405180910390f35b6101cc610663565b005b610210600480360360208110156101e457600080fd5b81019080803573ffffffffffffffffffffffffffffffffffffffff169060200190929190505050610740565b005b61021a6107f4565b6040518082815260200191505060405180910390f35b61023861081c565b604051808273ffffffffffffffffffffffffffffffffffffffff16815260200191505060405180910390f35b61026c610846565b604051808273ffffffffffffffffffffffffffffffffffffffff16815260200191505060405180910390f35b6102da600480360360208110156102ae57600080fd5b81019080803573ffffffffffffffffffffffffffffffffffffffff169060200190929190505050610870565b005b6000600360009054906101000a900460170b60170b905090565b60008060009054906101000a900473ffffffffffffffffffffffffffffffffffffffff16905090565b610327610846565b73ffffffffffffffffffffffffffffffffffffffff163373ffffffffffffffffffffffffffffffffffffffff16146103c7576040517f08c379a00000000000000000000000000000000000000000000000000000000081526004018080602001828103825260198152602001807f75706461746556616c75653a20556e617574686f72697a65640000000000000081525060200191505060405180910390fd5b80600360006101000a81548177ffffffffffffffffffffffffffffffffffffffffffffffff021916908360170b77ffffffffffffffffffffffffffffffffffffffffffffffff16021790555042600360186101000a81548167ffffffffffffffff021916908367ffffffffffffffff1602179055507f6577488b46c5d4bec17c8c7e5461e3b03f90932b44b31572d9b9cf30d21bdd8f81604051808260170b815260200191505060405180910390a150565b600073ffffffffffffffffffffffffffffffffffffffff1661049961081c565b73ffffffffffffffffffffffffffffffffffffffff1614610522576040517f08c379a00000000000000000000000000000000000000000000000000000000081526004018080602001828103825260198152602001807f696e69743a20416c726561647920696e697469616c697a65640000000000000081525060200191505060405180910390fd5b600073ffffffffffffffffffffffffffffffffffffffff168373ffffffffffffffffffffffffffffffffffffffff1614156105c5576040517f08c379a00000000000000000000000000000000000000000000000000000000081526004018080602001828103825260128152602001807f696e69743a20456d707479205f6f776e6572000000000000000000000000000081525060200191505060405180910390fd5b6105ce83610924565b7fdc73717d728bcfa015e8117438a65319aa06e979ca324afa6e1ea645c28ea15d816040518082815260200191505060405180910390a1600073ffffffffffffffffffffffffffffffffffffffff168273ffffffffffffffffffffffffffffffffffffffff161461064357610642826109b5565b5b505050565b6000806106536102dc565b61065b6107f4565b915091509091565b600061066d6102f6565b90508073ffffffffffffffffffffffffffffffffffffffff163373ffffffffffffffffffffffffffffffffffffffff1614610710576040517f08c379a000000000000000000000000000000000000000000000000000000000815260040180806020018281038252601c8152602001807f636c61696d4f776e6572736869703a20556e617574686f72697a65640000000081525060200191505060405180910390fd5b61071981610924565b6000806101000a81549073ffffffffffffffffffffffffffffffffffffffff021916905550565b61074861081c565b73ffffffffffffffffffffffffffffffffffffffff163373ffffffffffffffffffffffffffffffffffffffff16146107e8576040517f08c379a00000000000000000000000000000000000000000000000000000000081526004018080602001828103825260178152602001807f6f6e6c794f776e65723a20556e617574686f72697a656400000000000000000081525060200191505060405180910390fd5b6107f181610a46565b50565b6000600360189054906101000a900467ffffffffffffffff1667ffffffffffffffff16905090565b6000600160009054906101000a900473ffffffffffffffffffffffffffffffffffffffff16905090565b6000600260009054906101000a900473ffffffffffffffffffffffffffffffffffffffff16905090565b61087861081c565b73ffffffffffffffffffffffffffffffffffffffff163373ffffffffffffffffffffffffffffffffffffffff1614610918576040517f08c379a00000000000000000000000000000000000000000000000000000000081526004018080602001828103825260178152602001807f6f6e6c794f776e65723a20556e617574686f72697a656400000000000000000081525060200191505060405180910390fd5b610921816109b5565b50565b80600160006101000a81548173ffffffffffffffffffffffffffffffffffffffff021916908373ffffffffffffffffffffffffffffffffffffffff1602179055507f50146d0e3c60aa1d17a70635b05494f864e86144a2201275021014fbf08bafe281604051808273ffffffffffffffffffffffffffffffffffffffff16815260200191505060405180910390a150565b80600260006101000a81548173ffffffffffffffffffffffffffffffffffffffff021916908373ffffffffffffffffffffffffffffffffffffffff1602179055507f5a39b8d3fd7361f3c5173afba233b7f1530567d03f9dfb0a2ca414960f08541d81604051808273ffffffffffffffffffffffffffffffffffffffff16815260200191505060405180910390a150565b806000806101000a81548173ffffffffffffffffffffffffffffffffffffffff021916908373ffffffffffffffffffffffffffffffffffffffff1602179055508073ffffffffffffffffffffffffffffffffffffffff167f132c19de901bb4ed8403c34734b6c841d5dc57745824da452a52433519ea5abf60405160405180910390a25056fea164736f6c634300060c000a","linkReferences":{}},"methodIdentifiers":{"claimOwnership()":"4e71e0c8","getLastUpdated()":"78121dd4","getNominatedOwner()":"288b6a36","getOwner()":"893d20e8","getUpdater()":"99d54d39","getValue()":"20965255","getValueWithTimestamp()":"4def9855","init(address,address,bytes32)":"347258aa","setNominatedOwner(address)":"728e17a0","setUpdater(address)":"9d54f419","updateValue(int192)":"2cd56672"},"id":78}