{"abi":[{"type":"constructor","inputs":[{"name":"_dispatcher","type":"address","internalType":"contract IDispatcher"},{"name":"_fundValueCalculatorRouter","type":"address","internalType":"contract IFundValueCalculatorRouter"}],"stateMutability":"nonpayable"},{"type":"function","name":"DISPATCHER","inputs":[],"outputs":[{"name":"","type":"address","internalType":"contract IDispatcher"}],"stateMutability":"view"},{"type":"function","name":"FUND_VALUE_CALCULATOR_ROUTER","inputs":[],"outputs":[{"name":"","type":"address","internalType":"contract IFundValueCalculatorRouter"}],"stateMutability":"view"},{"type":"function","name":"calcUnderlyingValues","inputs":[{"name":"_derivative","type":"address","internalType":"address"},{"name":"_derivativeAmount","type":"uint256","internalType":"uint256"}],"outputs":[{"name":"underlyings_","type":"address[]","internalType":"address[]"},{"name":"underlyingAmounts_","type":"uint256[]","internalType":"uint256[]"}],"stateMutability":"nonpayable"},{"type":"function","name":"isSupportedAsset","inputs":[{"name":"_asset","type":"address","internalType":"address"}],"outputs":[{"name":"isSupported_","type":"bool","internalType":"bool"}],"stateMutability":"view"}],"bytecode":{"object":"0x60c060405234801561001057600080fd5b506040516106a23803806106a283398101604081905261002f91610086565b6001600160a01b039182166080521660a0526100c3565b60006001600160a01b0382165b92915050565b600061005382610046565b61006d81610059565b811461007857600080fd5b50565b805161005381610064565b6000806040838503121561009c5761009c600080fd5b60006100a8858561007b565b92505060206100b98582860161007b565b9150509250929050565b60805160a0516105af6100f36000396000818160d4015260fe01526000818160a0015261025201526105af6000f3fe608060405234801561001057600080fd5b506004361061004c5760003560e01c8063727212f6146100515780639be918e61461007b578063a7a5d12b1461009b578063cf9339a4146100cf575b600080fd5b61006461005f366004610327565b6100f6565b604051610072929190610420565b60405180910390f35b61008e61008936600461044d565b61023e565b6040516100729190610476565b6100c27f000000000000000000000000000000000000000000000000000000000000000081565b60405161007291906104b4565b6100c27f000000000000000000000000000000000000000000000000000000000000000081565b6060806000807f00000000000000000000000000000000000000000000000000000000000000006001600160a01b0316633ba6b851876040518263ffffffff1660e01b815260040161014891906104c2565b60408051808303816000875af1158015610166573d6000803e3d6000fd5b505050506040513d601f19601f8201168201806040525081019061018a91906104e6565b6040805160018082528183019092529294509092506020808301908036833701905050935081846000815181106101c3576101c3610519565b6001600160a01b0392909216602092830291909101820152604080516001808252818301909252918281019080368337019050509250670de0b6b3a764000061020c8287610545565b610216919061057a565b8360008151811061022957610229610519565b60200260200101818152505050509250929050565b6040516307af8e9f60e31b815260009081907f00000000000000000000000000000000000000000000000000000000000000006001600160a01b031690633d7c74f89061028f9086906004016104c2565b602060405180830381865afa1580156102ac573d6000803e3d6000fd5b505050506040513d601f19601f820116820180604052508101906102d0919061058e565b6001600160a01b0316141592915050565b60006001600160a01b0382165b92915050565b6102fd816102e1565b811461030857600080fd5b50565b80356102ee816102f4565b806102fd565b80356102ee81610316565b6000806040838503121561033d5761033d600080fd5b6000610349858561030b565b925050602061035a8582860161031c565b9150509250929050565b61036d816102e1565b82525050565b600061037f8383610364565b505060200190565b6000610391825190565b80845260209384019383018060005b838110156103c55781516103b48882610373565b9750602083019250506001016103a0565b509495945050505050565b8061036d565b600061037f83836103d0565b60006103ec825190565b80845260209384019383018060005b838110156103c557815161040f88826103d6565b9750602083019250506001016103fb565b604080825281016104318185610387565b9050818103602083015261044581846103e2565b949350505050565b60006020828403121561046257610462600080fd5b6000610445848461030b565b80151561036d565b602081016102ee828461046e565b60006001600160a01b0382166102ee565b60006102ee82610484565b60006102ee82610495565b61036d816104a0565b602081016102ee82846104ab565b602081016102ee8284610364565b80516102ee816102f4565b80516102ee81610316565b600080604083850312156104fc576104fc600080fd5b600061050885856104d0565b925050602061035a858286016104db565b634e487b7160e01b600052603260045260246000fd5b634e487b7160e01b600052601160045260246000fd5b81810280821583820485141761055d5761055d61052f565b5092915050565b634e487b7160e01b600052601260045260246000fd5b60008261058957610589610564565b500490565b6000602082840312156105a3576105a3600080fd5b600061044584846104d056","linkReferences":{}},"methodIdentifiers":{"DISPATCHER()":"a7a5d12b","FUND_VALUE_CALCULATOR_ROUTER()":"cf9339a4","calcUnderlyingValues(address,uint256)":"727212f6","isSupportedAsset(address)":"9be918e6"},"id":178}