{"abi":[{"type":"constructor","inputs":[{"name":"_dispatcher","type":"address","internalType":"address"}],"stateMutability":"nonpayable"},{"type":"function","name":"addNewPositionTypes","inputs":[{"name":"_labels","type":"string[]","internalType":"string[]"}],"outputs":[],"stateMutability":"nonpayable"},{"type":"function","name":"addPositionDeployers","inputs":[{"name":"_accounts","type":"address[]","internalType":"address[]"}],"outputs":[],"stateMutability":"nonpayable"},{"type":"function","name":"deploy","inputs":[{"name":"_vaultProxy","type":"address","internalType":"address"},{"name":"_typeId","type":"uint256","internalType":"uint256"},{"name":"_constructLib","type":"address","internalType":"address"},{"name":"_constructData","type":"bytes","internalType":"bytes"}],"outputs":[{"name":"externalPositionProxy_","type":"address","internalType":"address"}],"stateMutability":"nonpayable"},{"type":"function","name":"getDispatcher","inputs":[],"outputs":[{"name":"dispatcher_","type":"address","internalType":"address"}],"stateMutability":"view"},{"type":"function","name":"getLabelForPositionType","inputs":[{"name":"_typeId","type":"uint256","internalType":"uint256"}],"outputs":[{"name":"label_","type":"string","internalType":"string"}],"stateMutability":"view"},{"type":"function","name":"getPositionTypeCounter","inputs":[],"outputs":[{"name":"positionTypeCounter_","type":"uint256","internalType":"uint256"}],"stateMutability":"view"},{"type":"function","name":"isExternalPositionProxy","inputs":[{"name":"_account","type":"address","internalType":"address"}],"outputs":[{"name":"isExternalPositionProxy_","type":"bool","internalType":"bool"}],"stateMutability":"view"},{"type":"function","name":"isPositionDeployer","inputs":[{"name":"_account","type":"address","internalType":"address"}],"outputs":[{"name":"isPositionDeployer_","type":"bool","internalType":"bool"}],"stateMutability":"view"},{"type":"function","name":"removePositionDeployers","inputs":[{"name":"_accounts","type":"address[]","internalType":"address[]"}],"outputs":[],"stateMutability":"nonpayable"},{"type":"function","name":"updatePositionTypeLabels","inputs":[{"name":"_typeIds","type":"uint256[]","internalType":"uint256[]"},{"name":"_labels","type":"string[]","internalType":"string[]"}],"outputs":[],"stateMutability":"nonpayable"},{"type":"event","name":"PositionDeployed","inputs":[{"name":"vaultProxy","type":"address","indexed":true,"internalType":"address"},{"name":"typeId","type":"uint256","indexed":true,"internalType":"uint256"},{"name":"constructLib","type":"address","indexed":true,"internalType":"address"},{"name":"constructData","type":"bytes","indexed":false,"internalType":"bytes"}],"anonymous":false},{"type":"event","name":"PositionDeployerAdded","inputs":[{"name":"positionDeployer","type":"address","indexed":false,"internalType":"address"}],"anonymous":false},{"type":"event","name":"PositionDeployerRemoved","inputs":[{"name":"positionDeployer","type":"address","indexed":false,"internalType":"address"}],"anonymous":false},{"type":"event","name":"PositionTypeAdded","inputs":[{"name":"typeId","type":"uint256","indexed":false,"internalType":"uint256"},{"name":"label","type":"string","indexed":false,"internalType":"string"}],"anonymous":false},{"type":"event","name":"PositionTypeLabelUpdated","inputs":[{"name":"typeId","type":"uint256","indexed":true,"internalType":"uint256"},{"name":"label","type":"string","indexed":false,"internalType":"string"}],"anonymous":false}],"bytecode":{"object":"0x60a06040523480156200001157600080fd5b50604051620022dd380380620022dd83398181016040528101906200003791906200008c565b8073ffffffffffffffffffffffffffffffffffffffff1660808173ffffffffffffffffffffffffffffffffffffffff1660601b815250505062000106565b6000815190506200008681620000ec565b92915050565b6000602082840312156200009f57600080fd5b6000620000af8482850162000075565b91505092915050565b6000620000c582620000cc565b9050919050565b600073ffffffffffffffffffffffffffffffffffffffff82169050919050565b620000f781620000b8565b81146200010357600080fd5b50565b60805160601c6121b96200012460003980610a0052506121b96000f3fe60806040523480156200001157600080fd5b5060043610620000ac5760003560e01c8063b678863b116200006f578063b678863b1462000195578063e976aa0e14620001b5578063ebb3d58914620001d5578063f908bc7714620001f7578063fdad10f2146200022d57620000ac565b80633825abe814620000b15780635869506714620000d35780635cf5f4f0146200010957806371b79dc114620001295780639b6832a5146200015f575b600080fd5b620000bb6200024d565b604051620000ca9190620016d5565b60405180910390f35b620000f16004803603810190620000eb91906200102c565b62000256565b604051620001009190620015a0565b60405180910390f35b62000127600480360381019062000121919062001109565b620002ac565b005b6200014760048036038101906200014191906200102c565b620004e1565b604051620001569190620015a0565b60405180910390f35b6200017d600480360381019062000177919062001213565b62000537565b6040516200018c919062001607565b60405180910390f35b620001b36004803603810190620001ad919062001197565b620005f0565b005b620001d36004803603810190620001cd91906200114e565b6200081f565b005b620001df620009fc565b604051620001ee91906200152f565b60405180910390f35b6200021560048036038101906200020f919062001084565b62000a24565b6040516200022491906200152f565b60405180910390f35b6200024b600480360381019062000245919062001109565b62000b7c565b005b60008054905090565b6000600360008373ffffffffffffffffffffffffffffffffffffffff1673ffffffffffffffffffffffffffffffffffffffff16815260200190815260200160002060009054906101000a900460ff169050919050565b620002b6620009fc565b73ffffffffffffffffffffffffffffffffffffffff1663893d20e86040518163ffffffff1660e01b815260040160206040518083038186803b158015620002fc57600080fd5b505afa15801562000311573d6000803e3d6000fd5b505050506040513d601f19601f8201168201806040525081019062000337919062001058565b73ffffffffffffffffffffffffffffffffffffffff163373ffffffffffffffffffffffffffffffffffffffff1614620003a7576040517f08c379a00000000000000000000000000000000000000000000000000000000081526004016200039e9062001691565b60405180910390fd5b60005b8151811015620004dd57620003d3828281518110620003c557fe5b602002602001015162000256565b1562000416576040517f08c379a00000000000000000000000000000000000000000000000000000000081526004016200040d90620016b3565b60405180910390fd5b6001600360008484815181106200042957fe5b602002602001015173ffffffffffffffffffffffffffffffffffffffff1673ffffffffffffffffffffffffffffffffffffffff16815260200190815260200160002060006101000a81548160ff0219169083151502179055507f4e2cddb881b704c83c6ade58337e3de618b1a567844cc023636b12f2593c92f5828281518110620004b057fe5b6020026020010151604051620004c791906200152f565b60405180910390a18080600101915050620003aa565b5050565b6000600260008373ffffffffffffffffffffffffffffffffffffffff1673ffffffffffffffffffffffffffffffffffffffff16815260200190815260200160002060009054906101000a900460ff169050919050565b6060600160008381526020019081526020016000208054600181600116156101000203166002900480601f016020809104026020016040519081016040528092919081815260200182805460018160011615610100020316600290048015620005e45780601f10620005b857610100808354040283529160200191620005e4565b820191906000526020600020905b815481529060010190602001808311620005c657829003601f168201915b50505050509050919050565b620005fa620009fc565b73ffffffffffffffffffffffffffffffffffffffff1663893d20e86040518163ffffffff1660e01b815260040160206040518083038186803b1580156200064057600080fd5b505afa15801562000655573d6000803e3d6000fd5b505050506040513d601f19601f820116820180604052508101906200067b919062001058565b73ffffffffffffffffffffffffffffffffffffffff163373ffffffffffffffffffffffffffffffffffffffff1614620006eb576040517f08c379a0000000000000000000000000000000000000000000000000000000008152600401620006e29062001691565b60405180910390fd5b81819050848490501462000736576040517f08c379a00000000000000000000000000000000000000000000000000000000081526004016200072d906200166f565b60405180910390fd5b60005b8484905081101562000818578282828181106200075257fe5b905060200281019062000766919062001728565b600160008888868181106200077757fe5b90506020020135815260200190815260200160002091906200079b92919062000db0565b50848482818110620007a957fe5b905060200201357ff2a237a53e7bb8b02a659a4a650726a021c70b7a95fb81df08497a61659a279a848484818110620007de57fe5b9050602002810190620007f2919062001728565b60405162000802929190620015e1565b60405180910390a2808060010191505062000739565b5050505050565b62000829620009fc565b73ffffffffffffffffffffffffffffffffffffffff1663893d20e86040518163ffffffff1660e01b815260040160206040518083038186803b1580156200086f57600080fd5b505afa15801562000884573d6000803e3d6000fd5b505050506040513d601f19601f82011682018060405250810190620008aa919062001058565b73ffffffffffffffffffffffffffffffffffffffff163373ffffffffffffffffffffffffffffffffffffffff16146200091a576040517f08c379a0000000000000000000000000000000000000000000000000000000008152600401620009119062001691565b60405180910390fd5b60005b82829050811015620009f7576000620009356200024d565b905060008081548092919060010191905055508383838181106200095557fe5b905060200281019062000969919062001728565b6001600084815260200190815260200160002091906200098b92919062000db0565b507fc43043ed6e970dd281081754f024483e889327202cc79ec3f4aa05953547213381858585818110620009bb57fe5b9050602002810190620009cf919062001728565b604051620009e093929190620016f2565b60405180910390a15080806001019150506200091d565b505050565b60007f0000000000000000000000000000000000000000000000000000000000000000905090565b600062000a313362000256565b62000a73576040517f08c379a000000000000000000000000000000000000000000000000000000000815260040162000a6a906200164d565b60405180910390fd5b8484848460405162000a859062000e37565b62000a9494939291906200154c565b604051809103906000f08015801562000ab1573d6000803e3d6000fd5b5090506001600260008373ffffffffffffffffffffffffffffffffffffffff1673ffffffffffffffffffffffffffffffffffffffff16815260200190815260200160002060006101000a81548160ff0219169083151502179055508273ffffffffffffffffffffffffffffffffffffffff16848673ffffffffffffffffffffffffffffffffffffffff167f1b6bd29f1cd483c0ffcdab807b5fb7193c1ec1661c42cc1c9cba25f9c32efe928560405162000b6c9190620015bd565b60405180910390a4949350505050565b62000b86620009fc565b73ffffffffffffffffffffffffffffffffffffffff1663893d20e86040518163ffffffff1660e01b815260040160206040518083038186803b15801562000bcc57600080fd5b505afa15801562000be1573d6000803e3d6000fd5b505050506040513d601f19601f8201168201806040525081019062000c07919062001058565b73ffffffffffffffffffffffffffffffffffffffff163373ffffffffffffffffffffffffffffffffffffffff161462000c77576040517f08c379a000000000000000000000000000000000000000000000000000000000815260040162000c6e9062001691565b60405180910390fd5b60005b815181101562000dac5762000ca382828151811062000c9557fe5b602002602001015162000256565b62000ce5576040517f08c379a000000000000000000000000000000000000000000000000000000000815260040162000cdc906200162b565b60405180910390fd5b60006003600084848151811062000cf857fe5b602002602001015173ffffffffffffffffffffffffffffffffffffffff1673ffffffffffffffffffffffffffffffffffffffff16815260200190815260200160002060006101000a81548160ff0219169083151502179055507fa800cb2ff9f46268ead3d548d8466dfea9fcab8ff13867076c45be6e38ab97a682828151811062000d7f57fe5b602002602001015160405162000d9691906200152f565b60405180910390a1808060010191505062000c7a565b5050565b828054600181600116156101000203166002900490600052602060002090601f016020900481019282601f1062000df357803560ff191683800117855562000e24565b8280016001018555821562000e24579182015b8281111562000e2357823582559160200191906001019062000e06565b5b50905062000e33919062000e45565b5090565b61089a806200191383390190565b5b8082111562000e6057600081600090555060010162000e46565b5090565b60008135905062000e7581620018de565b92915050565b60008151905062000e8c81620018de565b92915050565b600082601f83011262000ea457600080fd5b813562000ebb62000eb582620017b0565b62001782565b9150818183526020840193506020810190508385602084028201111562000ee157600080fd5b60005b8381101562000f15578162000efa888262000e64565b84526020840193506020830192505060018101905062000ee4565b5050505092915050565b60008083601f84011262000f3257600080fd5b8235905067ffffffffffffffff81111562000f4c57600080fd5b60208301915083602082028301111562000f6557600080fd5b9250929050565b60008083601f84011262000f7f57600080fd5b8235905067ffffffffffffffff81111562000f9957600080fd5b60208301915083602082028301111562000fb257600080fd5b9250929050565b600082601f83011262000fcb57600080fd5b813562000fe262000fdc82620017d9565b62001782565b9150808252602083016020830185838301111562000fff57600080fd5b6200100c83828462001888565b50505092915050565b6000813590506200102681620018f8565b92915050565b6000602082840312156200103f57600080fd5b60006200104f8482850162000e64565b91505092915050565b6000602082840312156200106b57600080fd5b60006200107b8482850162000e7b565b91505092915050565b600080600080608085870312156200109b57600080fd5b6000620010ab8782880162000e64565b9450506020620010be8782880162001015565b9350506040620010d18782880162000e64565b925050606085013567ffffffffffffffff811115620010ef57600080fd5b620010fd8782880162000fb9565b91505092959194509250565b6000602082840312156200111c57600080fd5b600082013567ffffffffffffffff8111156200113757600080fd5b620011458482850162000e92565b91505092915050565b600080602083850312156200116257600080fd5b600083013567ffffffffffffffff8111156200117d57600080fd5b6200118b8582860162000f1f565b92509250509250929050565b60008060008060408587031215620011ae57600080fd5b600085013567ffffffffffffffff811115620011c957600080fd5b620011d78782880162000f6c565b9450945050602085013567ffffffffffffffff811115620011f757600080fd5b620012058782880162000f1f565b925092505092959194509250565b6000602082840312156200122657600080fd5b6000620012368482850162001015565b91505092915050565b6200124a816200183e565b82525050565b6200125b8162001852565b82525050565b60006200126e8262001806565b6200127a81856200181c565b93506200128c81856020860162001897565b6200129781620018cd565b840191505092915050565b6000620012b083856200182d565b9350620012bf83858462001888565b620012ca83620018cd565b840190509392505050565b6000620012e28262001811565b620012ee81856200182d565b93506200130081856020860162001897565b6200130b81620018cd565b840191505092915050565b600062001325603b836200182d565b91507f72656d6f7665506f736974696f6e4465706c6f796572733a204163636f756e7460008301527f206973206e6f74206120706f736974696f6e206465706c6f79657200000000006020830152604082019050919050565b60006200138d6037836200182d565b91507f6465706c6f793a204f6e6c79206120706f736974696f6e206465706c6f79657260008301527f2063616e2063616c6c20746869732066756e6374696f6e0000000000000000006020830152604082019050919050565b6000620013f56028836200182d565b91507f757064617465506f736974696f6e547970654c6162656c733a20556e6571756160008301527f6c206172726179730000000000000000000000000000000000000000000000006020830152604082019050919050565b60006200145d6030836200182d565b91507f4f6e6c79207468652044697370617463686572206f776e65722063616e20636160008301527f6c6c20746869732066756e6374696f6e000000000000000000000000000000006020830152604082019050919050565b6000620014c5603c836200182d565b91507f616464506f736974696f6e4465706c6f796572733a204163636f756e7420697360008301527f20616c7265616479206120706f736974696f6e206465706c6f796572000000006020830152604082019050919050565b62001529816200187e565b82525050565b60006020820190506200154660008301846200123f565b92915050565b60006080820190506200156360008301876200123f565b6200157260208301866200151e565b6200158160408301856200123f565b818103606083015262001595818462001261565b905095945050505050565b6000602082019050620015b7600083018462001250565b92915050565b60006020820190508181036000830152620015d9818462001261565b905092915050565b60006020820190508181036000830152620015fe818486620012a2565b90509392505050565b60006020820190508181036000830152620016238184620012d5565b905092915050565b60006020820190508181036000830152620016468162001316565b9050919050565b6000602082019050818103600083015262001668816200137e565b9050919050565b600060208201905081810360008301526200168a81620013e6565b9050919050565b60006020820190508181036000830152620016ac816200144e565b9050919050565b60006020820190508181036000830152620016ce81620014b6565b9050919050565b6000602082019050620016ec60008301846200151e565b92915050565b60006040820190506200170960008301866200151e565b81810360208301526200171e818486620012a2565b9050949350505050565b600080833560016020038436030381126200174257600080fd5b80840192508235915067ffffffffffffffff8211156200176157600080fd5b6020830192506001820236038313156200177a57600080fd5b509250929050565b6000604051905081810181811067ffffffffffffffff82111715620017a657600080fd5b8060405250919050565b600067ffffffffffffffff821115620017c857600080fd5b602082029050602081019050919050565b600067ffffffffffffffff821115620017f157600080fd5b601f19601f8301169050602081019050919050565b600081519050919050565b600081519050919050565b600082825260208201905092915050565b600082825260208201905092915050565b60006200184b826200185e565b9050919050565b60008115159050919050565b600073ffffffffffffffffffffffffffffffffffffffff82169050919050565b6000819050919050565b82818337600083830152505050565b60005b83811015620018b75780820151818401526020810190506200189a565b83811115620018c7576000848401525b50505050565b6000601f19601f8301169050919050565b620018e9816200183e565b8114620018f557600080fd5b50565b62001903816200187e565b81146200190f57600080fd5b5056fe60c060405234801561001057600080fd5b5060405161089a38038061089a8339818101604052608081101561003357600080fd5b810190808051906020019092919080519060200190929190805190602001909291908051604051939291908464010000000082111561007157600080fd5b8382019150602082018581111561008757600080fd5b82518660018202830111640100000000821117156100a457600080fd5b8083526020830192505050908051906020019080838360005b838110156100d85780820151818401526020810190506100bd565b50505050905090810190601f1680156101055780820380516001836020036101000a031916815260200191505b506040525050508373ffffffffffffffffffffffffffffffffffffffff1660a08173ffffffffffffffffffffffffffffffffffffffff1660601b815250508260808181525050600060608373ffffffffffffffffffffffffffffffffffffffff16836040518082805190602001908083835b6020831061019a5780518252602082019150602081019050602083039250610177565b6001836020036101000a038019825116818451168082178552505050505050905001915050600060405180830381855af49150503d80600081146101fa576040519150601f19603f3d011682016040523d82523d6000602084013e6101ff565b606091505b50915091508181906102ac576040517f08c379a00000000000000000000000000000000000000000000000000000000081526004018080602001828103825283818151815260200191508051906020019080838360005b83811015610271578082015181840152602081019050610256565b50505050905090810190601f16801561029e5780820380516001836020036101000a031916815260200191505b509250505060405180910390fd5b5050505050505060805160a05160601c6105c16102d9600039806101fe52508061022652506105c16000f3fe6080604052600436106100385760003560e01c806312bc0a4414610108578063c980918714610133578063e5c23a97146101745761003f565b3661003f57005b60006100496101fa565b73ffffffffffffffffffffffffffffffffffffffff166375d8bb0e61006c610222565b6040518263ffffffff1660e01b81526004018082815260200191505060206040518083038186803b1580156100a057600080fd5b505afa1580156100b4573d6000803e3d6000fd5b505050506040513d60208110156100ca57600080fd5b810190808051906020019092919050505090503660008037600080366000846127105a03f43d806000803e816000811461010357816000f35b816000fd5b34801561011457600080fd5b5061011d610222565b6040518082815260200191505060405180910390f35b34801561013f57600080fd5b506101486101fa565b604051808273ffffffffffffffffffffffffffffffffffffffff16815260200191505060405180910390f35b34801561018057600080fd5b506101f86004803603602081101561019757600080fd5b81019080803590602001906401000000008111156101b457600080fd5b8201836020820111156101c657600080fd5b803590602001918460018302840111640100000000831117156101e857600080fd5b909192939192939050505061024a565b005b60007f0000000000000000000000000000000000000000000000000000000000000000905090565b60007f0000000000000000000000000000000000000000000000000000000000000000905090565b6102526101fa565b73ffffffffffffffffffffffffffffffffffffffff163373ffffffffffffffffffffffffffffffffffffffff16146102d5576040517f08c379a000000000000000000000000000000000000000000000000000000000815260040180806020018281038252603781526020018061057e6037913960400191505060405180910390fd5b60006102df6101fa565b73ffffffffffffffffffffffffffffffffffffffff166375d8bb0e610302610222565b6040518263ffffffff1660e01b81526004018082815260200191505060206040518083038186803b15801561033657600080fd5b505afa15801561034a573d6000803e3d6000fd5b505050506040513d602081101561036057600080fd5b81019080805190602001909291905050509050600060608273ffffffffffffffffffffffffffffffffffffffff1663e5c23a9760e01b868660405160240180806020018281038252848482818152602001925080828437600081840152601f19601f8201169050808301925050509350505050604051602081830303815290604052907bffffffffffffffffffffffffffffffffffffffffffffffffffffffff19166020820180517bffffffffffffffffffffffffffffffffffffffffffffffffffffffff83818316178352505050506040518082805190602001908083835b602083106104635780518252602082019150602081019050602083039250610440565b6001836020036101000a038019825116818451168082178552505050505050905001915050600060405180830381855af49150503d80600081146104c3576040519150601f19603f3d011682016040523d82523d6000602084013e6104c8565b606091505b5091509150818190610575576040517f08c379a00000000000000000000000000000000000000000000000000000000081526004018080602001828103825283818151815260200191508051906020019080838360005b8381101561053a57808201518184015260208101905061051f565b50505050905090810190601f1680156105675780820380516001836020036101000a031916815260200191505b509250505060405180910390fd5b50505050505056fe7265636569766543616c6c46726f6d5661756c743a204f6e6c7920746865207661756c742063616e206d616b6520746869732063616c6ca164736f6c634300060c000aa164736f6c634300060c000a","linkReferences":{}},"methodIdentifiers":{"addNewPositionTypes(string[])":"e976aa0e","addPositionDeployers(address[])":"5cf5f4f0","deploy(address,uint256,address,bytes)":"f908bc77","getDispatcher()":"ebb3d589","getLabelForPositionType(uint256)":"9b6832a5","getPositionTypeCounter()":"3825abe8","isExternalPositionProxy(address)":"71b79dc1","isPositionDeployer(address)":"58695067","removePositionDeployers(address[])":"fdad10f2","updatePositionTypeLabels(uint256[],string[])":"b678863b"},"id":83}