{"abi":[{"type":"constructor","inputs":[{"name":"_dispatcher","type":"address","internalType":"address"},{"name":"_protocolFeeReserve","type":"address","internalType":"address"},{"name":"_fundDeployer","type":"address","internalType":"address"},{"name":"_valueInterpreter","type":"address","internalType":"address"},{"name":"_feeManager","type":"address","internalType":"address"},{"name":"_policyManager","type":"address","internalType":"address"},{"name":"_mlnToken","type":"address","internalType":"address"},{"name":"_wethToken","type":"address","internalType":"address"}],"stateMutability":"nonpayable"},{"type":"function","name":"activate","inputs":[],"outputs":[],"stateMutability":"nonpayable"},{"type":"function","name":"buyBackProtocolFeeShares","inputs":[{"name":"_sharesAmount","type":"uint256","internalType":"uint256"}],"outputs":[],"stateMutability":"nonpayable"},{"type":"function","name":"buyShares","inputs":[{"name":"_investmentAmount","type":"uint256","internalType":"uint256"},{"name":"_minSharesQuantity","type":"uint256","internalType":"uint256"}],"outputs":[{"name":"sharesReceived_","type":"uint256","internalType":"uint256"}],"stateMutability":"nonpayable"},{"type":"function","name":"buySharesOnBehalf","inputs":[{"name":"_buyer","type":"address","internalType":"address"},{"name":"_investmentAmount","type":"uint256","internalType":"uint256"},{"name":"_minSharesQuantity","type":"uint256","internalType":"uint256"}],"outputs":[{"name":"sharesReceived_","type":"uint256","internalType":"uint256"}],"stateMutability":"nonpayable"},{"type":"function","name":"calcGav","inputs":[],"outputs":[{"name":"gav_","type":"uint256","internalType":"uint256"}],"stateMutability":"nonpayable"},{"type":"function","name":"calcGrossShareValue","inputs":[],"outputs":[{"name":"grossShareValue_","type":"uint256","internalType":"uint256"}],"stateMutability":"nonpayable"},{"type":"function","name":"callOnExtension","inputs":[{"name":"_extension","type":"address","internalType":"address"},{"name":"_actionId","type":"uint256","internalType":"uint256"},{"name":"_callArgs","type":"bytes","internalType":"bytes"}],"outputs":[],"stateMutability":"nonpayable"},{"type":"function","name":"deactivate","inputs":[],"outputs":[],"stateMutability":"nonpayable"},{"type":"function","name":"doesAutoProtocolFeeSharesBuyback","inputs":[],"outputs":[{"name":"doesAutoBuyback_","type":"bool","internalType":"bool"}],"stateMutability":"view"},{"type":"function","name":"getDenominationAsset","inputs":[],"outputs":[{"name":"denominationAsset_","type":"address","internalType":"address"}],"stateMutability":"view"},{"type":"function","name":"getDispatcher","inputs":[],"outputs":[{"name":"dispatcher_","type":"address","internalType":"address"}],"stateMutability":"view"},{"type":"function","name":"getExtensions","inputs":[],"outputs":[{"name":"extensions_","type":"address[]","internalType":"address[]"}],"stateMutability":"view"},{"type":"function","name":"getFeeManager","inputs":[],"outputs":[{"name":"feeManager_","type":"address","internalType":"address"}],"stateMutability":"view"},{"type":"function","name":"getFundDeployer","inputs":[],"outputs":[{"name":"fundDeployer_","type":"address","internalType":"address"}],"stateMutability":"view"},{"type":"function","name":"getLastSharesBoughtTimestampForAccount","inputs":[{"name":"_who","type":"address","internalType":"address"}],"outputs":[{"name":"lastSharesBoughtTimestamp_","type":"uint256","internalType":"uint256"}],"stateMutability":"view"},{"type":"function","name":"getMlnToken","inputs":[],"outputs":[{"name":"mlnToken_","type":"address","internalType":"address"}],"stateMutability":"view"},{"type":"function","name":"getPolicyManager","inputs":[],"outputs":[{"name":"policyManager_","type":"address","internalType":"address"}],"stateMutability":"view"},{"type":"function","name":"getProtocolFeeReserve","inputs":[],"outputs":[{"name":"protocolFeeReserve_","type":"address","internalType":"address"}],"stateMutability":"view"},{"type":"function","name":"getSharesActionTimelock","inputs":[],"outputs":[{"name":"sharesActionTimelock_","type":"uint256","internalType":"uint256"}],"stateMutability":"view"},{"type":"function","name":"getValueInterpreter","inputs":[],"outputs":[{"name":"valueInterpreter_","type":"address","internalType":"address"}],"stateMutability":"view"},{"type":"function","name":"getVaultProxy","inputs":[],"outputs":[{"name":"vaultProxy_","type":"address","internalType":"address"}],"stateMutability":"view"},{"type":"function","name":"getWethToken","inputs":[],"outputs":[{"name":"wethToken_","type":"address","internalType":"address"}],"stateMutability":"view"},{"type":"function","name":"init","inputs":[{"name":"_vaultProxy","type":"address","internalType":"address"},{"name":"_config","type":"tuple","internalType":"struct IComptroller.ConfigInput","components":[{"name":"denominationAsset","type":"address","internalType":"address"},{"name":"sharesActionTimelock","type":"uint256","internalType":"uint256"},{"name":"feeManagerConfigData","type":"bytes","internalType":"bytes"},{"name":"policyManagerConfigData","type":"bytes","internalType":"bytes"},{"name":"extensionsConfig","type":"tuple[]","internalType":"struct IComptroller.ExtensionConfigInput[]","components":[{"name":"extension","type":"address","internalType":"address"},{"name":"configData","type":"bytes","internalType":"bytes"}]}]}],"outputs":[],"stateMutability":"nonpayable"},{"type":"function","name":"isExtension","inputs":[{"name":"_who","type":"address","internalType":"address"}],"outputs":[{"name":"isExtension_","type":"bool","internalType":"bool"}],"stateMutability":"view"},{"type":"function","name":"permissionedVaultAction","inputs":[{"name":"_action","type":"uint8","internalType":"enum IVault.VaultAction"},{"name":"_actionData","type":"bytes","internalType":"bytes"}],"outputs":[],"stateMutability":"nonpayable"},{"type":"function","name":"preTransferSharesHook","inputs":[{"name":"_sender","type":"address","internalType":"address"},{"name":"_recipient","type":"address","internalType":"address"},{"name":"_amount","type":"uint256","internalType":"uint256"}],"outputs":[],"stateMutability":"nonpayable"},{"type":"function","name":"preTransferSharesHookFreelyTransferable","inputs":[{"name":"_sender","type":"address","internalType":"address"}],"outputs":[],"stateMutability":"view"},{"type":"function","name":"redeemSharesForSpecificAssets","inputs":[{"name":"_recipient","type":"address","internalType":"address"},{"name":"_sharesQuantity","type":"uint256","internalType":"uint256"},{"name":"_payoutAssets","type":"address[]","internalType":"address[]"},{"name":"_payoutAssetPercentages","type":"uint256[]","internalType":"uint256[]"}],"outputs":[{"name":"payoutAmounts_","type":"uint256[]","internalType":"uint256[]"}],"stateMutability":"nonpayable"},{"type":"function","name":"redeemSharesInKind","inputs":[{"name":"_recipient","type":"address","internalType":"address"},{"name":"_sharesQuantity","type":"uint256","internalType":"uint256"},{"name":"_additionalAssets","type":"address[]","internalType":"address[]"},{"name":"_assetsToSkip","type":"address[]","internalType":"address[]"}],"outputs":[{"name":"payoutAssets_","type":"address[]","internalType":"address[]"},{"name":"payoutAmounts_","type":"uint256[]","internalType":"uint256[]"}],"stateMutability":"nonpayable"},{"type":"function","name":"setAutoProtocolFeeSharesBuyback","inputs":[{"name":"_nextAutoProtocolFeeSharesBuyback","type":"bool","internalType":"bool"}],"outputs":[],"stateMutability":"nonpayable"},{"type":"function","name":"vaultCallOnContract","inputs":[{"name":"_contract","type":"address","internalType":"address"},{"name":"_selector","type":"bytes4","internalType":"bytes4"},{"name":"_encodedArgs","type":"bytes","internalType":"bytes"}],"outputs":[{"name":"returnData_","type":"bytes","internalType":"bytes"}],"stateMutability":"nonpayable"},{"type":"event","name":"AutoProtocolFeeSharesBuybackSet","inputs":[{"name":"autoProtocolFeeSharesBuyback","type":"bool","indexed":false,"internalType":"bool"}],"anonymous":false},{"type":"event","name":"BuyBackMaxProtocolFeeSharesFailed","inputs":[{"name":"failureReturnData","type":"bytes","indexed":true,"internalType":"bytes"},{"name":"sharesAmount","type":"uint256","indexed":false,"internalType":"uint256"},{"name":"buybackValueInMln","type":"uint256","indexed":false,"internalType":"uint256"},{"name":"gav","type":"uint256","indexed":false,"internalType":"uint256"}],"anonymous":false},{"type":"event","name":"ExtensionEnabled","inputs":[{"name":"extension","type":"address","indexed":true,"internalType":"address"},{"name":"configData","type":"bytes","indexed":false,"internalType":"bytes"}],"anonymous":false},{"type":"event","name":"Initialized","inputs":[{"name":"vaultProxy","type":"address","indexed":false,"internalType":"address"},{"name":"config","type":"tuple","indexed":false,"internalType":"struct IComptroller.ConfigInput","components":[{"name":"denominationAsset","type":"address","internalType":"address"},{"name":"sharesActionTimelock","type":"uint256","internalType":"uint256"},{"name":"feeManagerConfigData","type":"bytes","internalType":"bytes"},{"name":"policyManagerConfigData","type":"bytes","internalType":"bytes"},{"name":"extensionsConfig","type":"tuple[]","internalType":"struct IComptroller.ExtensionConfigInput[]","components":[{"name":"extension","type":"address","internalType":"address"},{"name":"configData","type":"bytes","internalType":"bytes"}]}]}],"anonymous":false},{"type":"event","name":"MigratedSharesDuePaid","inputs":[{"name":"sharesDue","type":"uint256","indexed":false,"internalType":"uint256"}],"anonymous":false},{"type":"event","name":"PayProtocolFeeDuringDestructFailed","inputs":[],"anonymous":false},{"type":"event","name":"PreRedeemSharesHookFailed","inputs":[{"name":"failureReturnData","type":"bytes","indexed":true,"internalType":"bytes"},{"name":"redeemer","type":"address","indexed":true,"internalType":"address"},{"name":"sharesAmount","type":"uint256","indexed":false,"internalType":"uint256"}],"anonymous":false},{"type":"event","name":"RedeemSharesInKindCalcGavFailed","inputs":[],"anonymous":false},{"type":"event","name":"SharesBought","inputs":[{"name":"buyer","type":"address","indexed":true,"internalType":"address"},{"name":"investmentAmount","type":"uint256","indexed":false,"internalType":"uint256"},{"name":"sharesIssued","type":"uint256","indexed":false,"internalType":"uint256"},{"name":"sharesReceived","type":"uint256","indexed":false,"internalType":"uint256"}],"anonymous":false},{"type":"event","name":"SharesRedeemed","inputs":[{"name":"redeemer","type":"address","indexed":true,"internalType":"address"},{"name":"recipient","type":"address","indexed":true,"internalType":"address"},{"name":"sharesAmount","type":"uint256","indexed":false,"internalType":"uint256"},{"name":"receivedAssets","type":"address[]","indexed":false,"internalType":"address[]"},{"name":"receivedAssetAmounts","type":"uint256[]","indexed":false,"internalType":"uint256[]"}],"anonymous":false}],"bytecode":{"object":"0x6101806040523480156200001257600080fd5b50604051620053f1380380620053f1833981016040819052620000359162000092565b6001600160a01b0397881660805292871660c05293861660a05292851660e05291841661010052918316610120529082166101405216610160526200013a565b80516001600160a01b03811681146200008d57600080fd5b919050565b600080600080600080600080610100898b031215620000b057600080fd5b620000bb8962000075565b9750620000cb60208a0162000075565b9650620000db60408a0162000075565b9550620000eb60608a0162000075565b9450620000fb60808a0162000075565b93506200010b60a08a0162000075565b92506200011b60c08a0162000075565b91506200012b60e08a0162000075565b90509295985092959890939650565b60805160a05160c05160e051610100516101205161014051610160516151a26200024f600039600061027e01526000818161033901528181610e79015281816114c30152818161278901528181612d5501528181612e7201526136d50152600081816104130152613a430152600081816103ed01528181610623015281816109840152818161105a01528181612a71015261403601526000818161047201526137060152600081816104be015281816105b00152818161073901528181610cf701528181610fce0152818161393f01528181613e330152613f8201526000818161037201528181611bc001528181611f1e015281816120fe015261386f01526000818161049801526137dc01526151a26000f3fe608060405234801561001057600080fd5b50600436106101e55760003560e01c8063877fd8941161010f578063da72503c116100a2578063ebb3d58911610071578063ebb3d58914610496578063f2d63826146104bc578063f847ed48146104e2578063f9d5fe781461050e57600080fd5b8063da72503c14610437578063e269c3d61461043f578063e572ced114610450578063e70e605e1461047057600080fd5b8063beebc5da116100de578063beebc5da146103c7578063c9809187146103da578063d44ad6cb146103eb578063da41962e1461041157600080fd5b8063877fd8941461035d57806397c0ac8714610370578063a01fd15714610396578063b10ea2b0146103b457600080fd5b80634c252f91116101875780636af8e7eb116101565780636af8e7eb146102d85780637f20170d146102f957806383b7db6314610322578063875fb4b31461033757600080fd5b80634c252f911461027c5780634da471b7146102b657806351b42b00146102c857806356cff99f146102d057600080fd5b80632dc7a3a0116101c35780632dc7a3a01461021a5780633462fcc11461022d57806339bf70d1146102565780633e56e5e81461026957600080fd5b80630f15f4c0146101ea57806310acd06d146101f457806312f2052614610207575b600080fd5b6101f2610521565b005b6101f261020236600461437a565b61072e565b6101f26102153660046143e7565b6108f2565b6101f2610228366004614436565b610a2e565b61024061023b366004614497565b610a8f565b60405161024d919061455d565b60405180910390f35b6101f2610264366004614570565b610ccf565b6101f26102773660046145cb565b610e0d565b7f00000000000000000000000000000000000000000000000000000000000000005b6040516001600160a01b03909116815260200161024d565b6002545b60405190815260200161024d565b6101f261118b565b6102ba6112ac565b6102eb6102e6366004614497565b6115ca565b60405161024d92919061465a565b6102ba610307366004614688565b6001600160a01b031660009081526003602052604090205490565b61032a611b42565b60405161024d91906146a5565b7f000000000000000000000000000000000000000000000000000000000000000061029e565b6102ba61036b3660046146b8565b611ba4565b7f000000000000000000000000000000000000000000000000000000000000000061029e565b600154600160a01b900460ff165b604051901515815260200161024d565b6101f26103c23660046146ed565b611cb0565b6102ba6103d5366004614706565b611ddd565b6001546001600160a01b031661029e565b7f000000000000000000000000000000000000000000000000000000000000000061029e565b7f000000000000000000000000000000000000000000000000000000000000000061029e565b6102ba611e07565b6000546001600160a01b031661029e565b61046361045e366004614728565b611f11565b60405161024d91906147d1565b7f000000000000000000000000000000000000000000000000000000000000000061029e565b7f000000000000000000000000000000000000000000000000000000000000000061029e565b7f000000000000000000000000000000000000000000000000000000000000000061029e565b6103a46104f0366004614688565b6001600160a01b031660009081526004602052604090205460ff1690565b6101f261051c366004614688565b6120d5565b6105296120f3565b6001546001600160a01b03166001600160a01b0316634ef0762e6105556000546001600160a01b031690565b6040516001600160e01b031960e084901b1681526001600160a01b039091166004820152602401600060405180830381600087803b15801561059657600080fd5b505af11580156105aa573d6000803e3d6000fd5b505050507f00000000000000000000000000000000000000000000000000000000000000006001600160a01b03166321725d016040518163ffffffff1660e01b8152600401600060405180830381600087803b15801561060957600080fd5b505af115801561061d573d6000803e3d6000fd5b505050507f00000000000000000000000000000000000000000000000000000000000000006001600160a01b03166321725d016040518163ffffffff1660e01b8152600401600060405180830381600087803b15801561067c57600080fd5b505af1158015610690573d6000803e3d6000fd5b50506005549150600090505b8181101561072a57600581815481106106b7576106b76147e4565b6000918252602082200154604080516321725d0160e01b815290516001600160a01b03909216926321725d019260048084019382900301818387803b1580156106ff57600080fd5b505af1158015610713573d6000803e3d6000fd5b50505050808061072290614810565b91505061069c565b5050565b336001600160a01b037f000000000000000000000000000000000000000000000000000000000000000016148061077457503360009081526004602052604090205460ff165b6107da5760405162461bcd60e51b815260206004820152602c60248201527f7065726d697373696f6e65645661756c74416374696f6e3a20556e617574686f60448201526b3934bd32b21031b0b63632b960a11b60648201526084015b60405180910390fd5b600683600a8111156107ee576107ee614829565b03610887576000546001600160a01b031661080b83830184614688565b6001600160a01b0316036108875760405162461bcd60e51b815260206004820152603a60248201527f7065726d697373696f6e65645661756c74416374696f6e3a2043616e6e6f742060448201527f756e747261636b2064656e6f6d696e6174696f6e20617373657400000000000060648201526084016107d1565b600154604051631273000960e11b81526001600160a01b03909116906324e60012906108bb90869086908690600401614868565b600060405180830381600087803b1580156108d557600080fd5b505af11580156108e9573d6000803e3d6000fd5b50505050505050565b60006109066001546001600160a01b031690565b9050336001600160a01b038216146109785760405162461bcd60e51b815260206004820152602f60248201527f7072655472616e73666572536861726573486f6f6b3a204f6e6c79205661756c60448201526e7450726f78792063616c6c61626c6560881b60648201526084016107d1565b610982818561216d565b7f00000000000000000000000000000000000000000000000000000000000000006001600160a01b0316630442bad53060028787876040516020016109c993929190614892565b6040516020818303038152906040526040518463ffffffff1660e01b81526004016109f6939291906148b6565b600060405180830381600087803b158015610a1057600080fd5b505af1158015610a24573d6000803e3d6000fd5b5050505050505050565b610a37336121fe565b60018054821515600160a01b0260ff60a01b199091161790556040517f8ccd4cc3a51ed6f61f2b34b8d0a1ac137376931714380a7702b410ed174d6a7390610a8490831515815260200190565b60405180910390a150565b6060610a996122cb565b6001805460ff60a81b1916600160a81b1790556000610ab53390565b9050848314610b1c5760405162461bcd60e51b815260206004820152602d60248201527f72656465656d536861726573466f7253706563696669634173736574733a205560448201526c6e657175616c2061727261797360981b60648201526084016107d1565b610b5886868080602002602001604051908101604052809392919081815260200183836020028082843760009201919091525061231392505050565b610bc25760405162461bcd60e51b815260206004820152603560248201527f72656465656d536861726573466f7253706563696669634173736574733a20446044820152741d5c1b1a58d85d19481c185e5bdd5d08185cdcd95d605a1b60648201526084016107d1565b6000610bcc6112ac565b90506000610be26001546001600160a01b031690565b9050600080610bf583868d6001886123d0565b9092509050610c1d838d8c8c8c8c87610c0e8a8d6148ee565b610c189190614905565b6126c0565b9550610c62858d848d8d808060200260200160405190810160405280939291908181526020018383602002808284376000920191909152508d92508b9150612a6f9050565b8b6001600160a01b0316856001600160a01b03167fbf88879a1555e4d7d38ebeffabce61fdf5e12ea0468abf855a72ec17b432bed5848d8d8b604051610cab9493929190614927565b60405180910390a350505050506001805460ff60a81b191690559695505050505050565b610cd76122cb565b6001805460ff60a81b1916600160a81b1790556001600160a01b038481167f0000000000000000000000000000000000000000000000000000000000000000919091161480610d3e57506001600160a01b03841660009081526004602052604090205460ff165b610d965760405162461bcd60e51b815260206004820152602360248201527f63616c6c4f6e457874656e73696f6e3a205f657874656e73696f6e20696e76616044820152621b1a5960ea1b60648201526084016107d1565b604051630df7400f60e11b81526001600160a01b03851690631bee801e90610dc8903390879087908790600401614993565b600060405180830381600087803b158015610de257600080fd5b505af1158015610df6573d6000803e3d6000fd5b50506001805460ff60a81b19169055505050505050565b6000610e216001546001600160a01b031690565b6001600160a01b031614610e775760405162461bcd60e51b815260206004820152601960248201527f696e69743a20416c726561647920696e697469616c697a65640000000000000060448201526064016107d1565b7f00000000000000000000000000000000000000000000000000000000000000006001600160a01b031663c496f8e8610eb36020840184614688565b6040516001600160e01b031960e084901b1681526001600160a01b039091166004820152602401602060405180830381865afa158015610ef7573d6000803e3d6000fd5b505050506040513d601f19601f82011682018060405250810190610f1b91906149bb565b610f675760405162461bcd60e51b815260206004820152601c60248201527f696e69743a204261642064656e6f6d696e6174696f6e2061737365740000000060448201526064016107d1565b600180546001600160a01b0319166001600160a01b038416179055610f8f6020820182614688565b600080546001600160a01b0319166001600160a01b03929092169190911781556020820135600255610fc460408301836149d8565b90501115611058577f00000000000000000000000000000000000000000000000000000000000000006001600160a01b03166389cbe1d061100860408401846149d8565b6040518363ffffffff1660e01b8152600401611025929190614a1e565b600060405180830381600087803b15801561103f57600080fd5b505af1158015611053573d6000803e3d6000fd5b505050505b7f00000000000000000000000000000000000000000000000000000000000000006001600160a01b03166389cbe1d061109460608401846149d8565b6040518363ffffffff1660e01b81526004016110b1929190614a1e565b600060405180830381600087803b1580156110cb57600080fd5b505af11580156110df573d6000803e3d6000fd5b50600092506110f49150506080830183614a32565b9050905060005b8181101561114c5761113a6111136080850185614a32565b83818110611123576111236147e4565b90506020028101906111359190614a7b565b612b23565b8061114481614810565b9150506110fb565b507f19e1afd34c6203e74c1d43b341df22ac7bd4aff964f0e13e89eff662bb6c7b42838360405161117e929190614b78565b60405180910390a1505050565b6111936120f3565b6001546001600160a01b03166001600160a01b031663d5c20fa26040518163ffffffff1660e01b8152600401600060405180830381600087803b1580156111d957600080fd5b505af19250505080156111ea575060015b611218576040517f8a7579328a911284dedef6a7e68bbb1eae7d59418f2699cb5a3c26f6e57e4d7790600090a15b60055460005b8181101561072a5760058181548110611239576112396147e4565b600091825260208220015460408051635ec74acd60e11b815290516001600160a01b039092169263bd8e959a9260048084019382900301818387803b15801561128157600080fd5b505af1158015611295573d6000803e3d6000fd5b5050505080806112a490614810565b91505061121e565b6000806112c16001546001600160a01b031690565b90506000816001600160a01b031663c4b973706040518163ffffffff1660e01b8152600401600060405180830381865afa158015611303573d6000803e3d6000fd5b505050506040513d6000823e601f3d908101601f1916820160405261132b9190810190614d36565b90506000826001600160a01b031663b8b7f1476040518163ffffffff1660e01b8152600401600060405180830381865afa15801561136d573d6000803e3d6000fd5b505050506040513d6000823e601f3d908101601f191682016040526113959190810190614d36565b9050815160001480156113a757508051155b156113b6576000935050505090565b600082516001600160401b038111156113d1576113d1614c59565b6040519080825280602002602001820160405280156113fa578160200160208202803683370190505b50905060005b83518110156114c05783818151811061141b5761141b6147e4565b60209081029190910101516040516370a0823160e01b81526001600160a01b038781166004830152909116906370a0823190602401602060405180830381865afa15801561146d573d6000803e3d6000fd5b505050506040513d601f19601f820116820180604052508101906114919190614d6a565b8282815181106114a3576114a36147e4565b6020908102919091010152806114b881614810565b915050611400565b507f00000000000000000000000000000000000000000000000000000000000000006001600160a01b031663ae6f52ad84836115046000546001600160a01b031690565b6040518463ffffffff1660e01b815260040161152293929190614d83565b6020604051808303816000875af1158015611541573d6000803e3d6000fd5b505050506040513d601f19601f820116820180604052508101906115659190614d6a565b8251909550156115c35760005b82518110156115c157600061159f848381518110611592576115926147e4565b6020026020010151612cdd565b90506115ab8188614dc1565b96505080806115b990614810565b915050611572565b505b5050505090565b6060806115d56122cb565b6001805460ff60a81b1916600160a81b17905560006115f13390565b905061162f87878080602002602001604051908101604052809392919081815260200183836020028082843760009201919091525061231392505050565b6116a15760405162461bcd60e51b815260206004820152603960248201527f72656465656d536861726573496e4b696e643a205f6164646974696f6e616c4160448201527f737365747320636f6e7461696e73206475706c6963617465730000000000000060648201526084016107d1565b6116dd85858080602002602001604051908101604052809392919081815260200183836020028082843760009201919091525061231392505050565b6117475760405162461bcd60e51b815260206004820152603560248201527f72656465656d536861726573496e4b696e643a205f617373657473546f536b696044820152747020636f6e7461696e73206475706c69636174657360581b60648201526084016107d1565b60015460408051630c4b973760e41b81529051611824926001600160a01b03169163c4b973709160048083019260009291908290030181865afa158015611792573d6000803e3d6000fd5b505050506040513d6000823e601f3d908101601f191682016040526117ba9190810190614d36565b88888080602002602001604051908101604052809392919081815260200183836020028082843760009201919091525050604080516020808c0282810182019093528b82529093508b92508a918291850190849080828437600092019190915250612f3992505050565b9250600061183c60015460ff600160a01b9091041690565b156118d257306001600160a01b03166356cff99f6040518163ffffffff1660e01b81526004016020604051808303816000875af192505050801561189d575060408051601f3d908101601f1916820190925261189a91810190614d6a565b60015b6118cf576040517ff5939ff9a66cf6d21ec93b246060bc17f5c062847e28d967d3dd617636b238d490600090a16118d2565b90505b60015460009081906118f0906001600160a01b0316858d84876123d0565b9150915085516001600160401b0381111561190d5761190d614c59565b604051908082528060200260200182016040528015611936578160200160208202803683370190505b50945060005b8651811015611ad4578183888381518110611959576119596147e4565b60209081029190910101516001546040516370a0823160e01b81526001600160a01b0391821660048201529116906370a0823190602401602060405180830381865afa1580156119ad573d6000803e3d6000fd5b505050506040513d601f19601f820116820180604052508101906119d19190614d6a565b6119db91906148ee565b6119e59190614905565b8682815181106119f7576119f76147e4565b6020026020010181815250506000868281518110611a1757611a176147e4565b60200260200101511115611ac25760015487516001600160a01b039091169063495d753c90899084908110611a4e57611a4e6147e4565b60200260200101518f898581518110611a6957611a696147e4565b60200260200101516040518463ffffffff1660e01b8152600401611a8f93929190614892565b600060405180830381600087803b158015611aa957600080fd5b505af1158015611abd573d6000803e3d6000fd5b505050505b80611acc81614810565b91505061193c565b508b6001600160a01b0316846001600160a01b03167fbf88879a1555e4d7d38ebeffabce61fdf5e12ea0468abf855a72ec17b432bed5848989604051611b1c93929190614dd4565b60405180910390a3505050506001805460ff60a81b191690559097909650945050505050565b60606005805480602002602001604051908101604052809291908181526020018280548015611b9a57602002820191906000526020600020905b81546001600160a01b03168152600190910190602001808311611b7c575b5050505050905090565b6000806000611bb260025490565b11905033811580611c4b57507f00000000000000000000000000000000000000000000000000000000000000006040516354391f0960e01b81526001600160a01b03838116600483015291909116906354391f0990602401602060405180830381865afa158015611c27573d6000803e3d6000fd5b505050506040513d601f19601f82011682018060405250810190611c4b91906149bb565b611c975760405162461bcd60e51b815260206004820152601f60248201527f6275795368617265734f6e426568616c663a20556e617574686f72697a65640060448201526064016107d1565b611ca48686868585613185565b925050505b9392505050565b6001546001600160a01b03168063714ca2d1336040516001600160e01b031960e084901b1681526001600160a01b039091166004820152602401602060405180830381865afa158015611d07573d6000803e3d6000fd5b505050506040513d601f19601f82011682018060405250810190611d2b91906149bb565b611d865760405162461bcd60e51b815260206004820152602660248201527f6275794261636b50726f746f636f6c4665655368617265733a20556e617574686044820152651bdc9a5e995960d21b60648201526084016107d1565b6000611d906112ac565b9050816001600160a01b0316631ff46bfa84611dad8587866135f3565b6040516001600160e01b031960e085901b16815260048101929092526024820152604481018490526064016108bb565b6000806000611deb60025490565b11905033611dfc8186868583613185565b925050505b92915050565b600080611e126112ac565b9050611f0b81611e2a6001546001600160a01b031690565b6001600160a01b03166318160ddd6040518163ffffffff1660e01b8152600401602060405180830381865afa158015611e67573d6000803e3d6000fd5b505050506040513d601f19601f82011682018060405250810190611e8b9190614d6a565b6000546001600160a01b03166001600160a01b031663313ce5676040518163ffffffff1660e01b8152600401602060405180830381865afa158015611ed4573d6000803e3d6000fd5b505050506040513d601f19601f82011682018060405250810190611ef89190614dff565b611f069060ff16600a614f06565b6137aa565b91505090565b6060611f1c336121fe565b7f00000000000000000000000000000000000000000000000000000000000000006001600160a01b0316638c500ea386868686604051611f5d929190614f12565b60405190819003812060e085901b6001600160e01b031990811683526001600160a01b0390941660048301529190921660248301526044820152606401602060405180830381865afa158015611fb7573d6000803e3d6000fd5b505050506040513d601f19601f82011682018060405250810190611fdb91906149bb565b6120275760405162461bcd60e51b815260206004820181905260248201527f7661756c7443616c6c4f6e436f6e74726163743a204e6f7420616c6c6f77656460448201526064016107d1565b6001546001600160a01b03166001600160a01b031663a90cce4b8686868660405160200161205793929190614f22565b6040516020818303038152906040526040518363ffffffff1660e01b8152600401612083929190614f46565b6000604051808303816000875af11580156120a2573d6000803e3d6000fd5b505050506040513d6000823e601f3d908101601f191682016040526120ca9190810190614f6a565b90505b949350505050565b6120f06120ea6001546001600160a01b031690565b8261216d565b50565b336001600160a01b037f0000000000000000000000000000000000000000000000000000000000000000161461216b5760405162461bcd60e51b815260206004820152601a60248201527f4f6e6c792046756e644465706c6f7965722063616c6c61626c6500000000000060448201526064016107d1565b565b6001600160a01b03811660009081526003602052604090205480158061219e575060025461219b8242614ffd565b10155b806121ad57506121ad836137d8565b6121f95760405162461bcd60e51b815260206004820152601860248201527f53686172657320616374696f6e2074696d656c6f636b6564000000000000000060448201526064016107d1565b505050565b6001546001600160a01b03166001600160a01b031663893d20e86040518163ffffffff1660e01b8152600401602060405180830381865afa158015612247573d6000803e3d6000fd5b505050506040513d601f19601f8201168201806040525081019061226b9190615010565b6001600160a01b0316816001600160a01b0316146120f05760405162461bcd60e51b815260206004820152601860248201527f4f6e6c792066756e64206f776e65722063616c6c61626c65000000000000000060448201526064016107d1565b600154600160a81b900460ff161561216b5760405162461bcd60e51b815260206004820152600b60248201526a52652d656e7472616e636560a81b60448201526064016107d1565b6000600182511161232657506001919050565b815160005b818110156123c6576000612340826001614dc1565b90505b828110156123b35784818151811061235d5761235d6147e4565b60200260200101516001600160a01b0316858381518110612380576123806147e4565b60200260200101516001600160a01b0316036123a157506000949350505050565b806123ab81614810565b915050612343565b50806123be81614810565b91505061232b565b5060019392505050565b6000806123dd878761216d565b6040516370a0823160e01b81526001600160a01b03878116600483015288916000918316906370a0823190602401602060405180830381865afa158015612428573d6000803e3d6000fd5b505050506040513d601f19601f8201168201806040525081019061244c9190614d6a565b9050600019870361245f57809350612463565b8693505b600084116124c45760405162461bcd60e51b815260206004820152602860248201527f5f5f72656465656d53686172657353657475703a204e6f2073686172657320746044820152676f2072656465656d60c01b60648201526084016107d1565b6124d0888588886138fa565b6040516370a0823160e01b81526001600160a01b038981166004830152600091908416906370a0823190602401602060405180830381865afa15801561251a573d6000803e3d6000fd5b505050506040513d601f19601f8201168201806040525081019061253e9190614d6a565b9050600019880361255157809450612570565b81811015612570576125638183614ffd565b61256d9086614ffd565b94505b896001600160a01b031663d5c20fa26040518163ffffffff1660e01b8152600401600060405180830381600087803b1580156125ab57600080fd5b505af11580156125bf573d6000803e3d6000fd5b505050506000861180156125dc5750600154600160a01b900460ff165b156125eb576125eb8a87613a30565b826001600160a01b03166318160ddd6040518163ffffffff1660e01b8152600401602060405180830381865afa158015612629573d6000803e3d6000fd5b505050506040513d601f19601f8201168201806040525081019061264d9190614d6a565b604051633b9e9f0160e21b81526001600160a01b038b8116600483015260248201889052919550908b169063ee7a7c0490604401600060405180830381600087803b15801561269b57600080fd5b505af11580156126af573d6000803e3d6000fd5b505050505050509550959350505050565b606060006126d66000546001600160a01b031690565b90506000866001600160401b038111156126f2576126f2614c59565b60405190808252806020026020018201604052801561271b578160200160208202803683370190505b50925060005b878110156129ea5786868281811061273b5761273b6147e4565b905060200201358261274d9190614dc1565b915061aaaa898983818110612764576127646147e4565b90506020020160208101906127799190614688565b6001600160a01b0316146129d8577f00000000000000000000000000000000000000000000000000000000000000006001600160a01b0316634c67e106846127108a8a868181106127cc576127cc6147e4565b90506020020135896127de91906148ee565b6127e89190614905565b8c8c868181106127fa576127fa6147e4565b905060200201602081019061280f9190614688565b60405160e085901b6001600160e01b03191681526001600160a01b039384166004820152602481019290925290911660448201526064016020604051808303816000875af1158015612865573d6000803e3d6000fd5b505050506040513d601f19601f820116820180604052508101906128899190614d6a565b84828151811061289b5761289b6147e4565b60200260200101818152505060008482815181106128bb576128bb6147e4565b6020026020010151116129365760405162461bcd60e51b815260206004820152603860248201527f5f5f7061796f7574537065636966696564417373657450657263656e7461676560448201527f733a205a65726f20616d6f756e7420666f72206173736574000000000000000060648201526084016107d1565b8a6001600160a01b031663495d753c8a8a84818110612957576129576147e4565b905060200201602081019061296c9190614688565b8c87858151811061297f5761297f6147e4565b60200260200101516040518463ffffffff1660e01b81526004016129a593929190614892565b600060405180830381600087803b1580156129bf57600080fd5b505af11580156129d3573d6000803e3d6000fd5b505050505b806129e281614810565b915050612721565b506127108114612a625760405162461bcd60e51b815260206004820152603b60248201527f5f5f7061796f7574537065636966696564417373657450657263656e7461676560448201527f733a2050657263656e7473206d75737420746f74616c2031303025000000000060648201526084016107d1565b5050979650505050505050565b7f00000000000000000000000000000000000000000000000000000000000000006001600160a01b0316630442bad5306003898989898989604051602001612abc9695949392919061502d565b6040516020818303038152906040526040518463ffffffff1660e01b8152600401612ae9939291906148b6565b600060405180830381600087803b158015612b0357600080fd5b505af1158015612b17573d6000803e3d6000fd5b50505050505050505050565b612b336104f06020830183614688565b15612b8b5760405162461bcd60e51b815260206004820152602260248201527f5f5f656e61626c65457874656e73696f6e3a20416c726561647920656e61626c604482015261195960f21b60648201526084016107d1565b600160046000612b9e6020850185614688565b6001600160a01b03168152602080820192909252604001600020805460ff191692151592909217909155600590612bd790830183614688565b815460018101835560009283526020928390200180546001600160a01b0319166001600160a01b0392909216919091179055612c1590820182614688565b6001600160a01b03166389cbe1d0612c3060208401846149d8565b6040518363ffffffff1660e01b8152600401612c4d929190614a1e565b600060405180830381600087803b158015612c6757600080fd5b505af1158015612c7b573d6000803e3d6000fd5b50612c8d925050506020820182614688565b6001600160a01b03167fa161618d5504469735e28d741f7d53a9b5e7872613e35481e2b6c4540e2e59aa612cc460208401846149d8565b604051612cd2929190614a1e565b60405180910390a250565b6000806000836001600160a01b03166380daddb86040518163ffffffff1660e01b81526004016000604051808303816000875af1158015612d22573d6000803e3d6000fd5b505050506040513d6000823e601f3d908101601f19168201604052612d4a9190810190615086565b915091506000612d777f000000000000000000000000000000000000000000000000000000000000000090565b6001600160a01b031663ae6f52ad8484612d996000546001600160a01b031690565b6040518463ffffffff1660e01b8152600401612db793929190614d83565b6020604051808303816000875af1158015612dd6573d6000803e3d6000fd5b505050506040513d601f19601f82011682018060405250810190612dfa9190614d6a565b9050600080866001600160a01b031663ecd658b46040518163ffffffff1660e01b81526004016000604051808303816000875af1158015612e3f573d6000803e3d6000fd5b505050506040513d6000823e601f3d908101601f19168201604052612e679190810190615086565b915091506000612e947f000000000000000000000000000000000000000000000000000000000000000090565b6001600160a01b031663ae6f52ad8484612eb66000546001600160a01b031690565b6040518463ffffffff1660e01b8152600401612ed493929190614d83565b6020604051808303816000875af1158015612ef3573d6000803e3d6000fd5b505050506040513d601f19601f82011682018060405250810190612f179190614d6a565b905080841115612f2e57612f2b8185614ffd565b96505b505050505050919050565b60606000612f478584613bcd565b90508351600003612f59579050611ca9565b600084516001600160401b03811115612f7457612f74614c59565b604051908082528060200260200182016040528015612f9d578160200160208202803683370190505b5090506000805b865181101561302157612fd9878281518110612fc257612fc26147e4565b602002602001015185613d9690919063ffffffff16565b61300f576001838281518110612ff157612ff16147e4565b911515602092830291909101909101528161300b81614810565b9250505b8061301981614810565b915050612fa4565b508060000361303557829350505050611ca9565b8083516130429190614dc1565b6001600160401b0381111561305957613059614c59565b604051908082528060200260200182016040528015613082578160200160208202803683370190505b50935060005b83518110156130e7578381815181106130a3576130a36147e4565b60200260200101518582815181106130bd576130bd6147e4565b6001600160a01b0390921660209283029190910190910152806130df81614810565b915050613088565b50825160005b875181101561317957838181518110613108576131086147e4565b60200260200101511561316757878181518110613127576131276147e4565b6020026020010151868381518110613141576131416147e4565b6001600160a01b03909216602092830291909101909101528161316381614810565b9250505b8061317181614810565b9150506130ed565b50505050509392505050565b600061318f6122cb565b6001805460ff60a81b1916600160a81b179055836132025760405162461bcd60e51b815260206004820152602a60248201527f5f5f6275795368617265733a205f6d696e5368617265735175616e746974792060448201526906d757374206265203e360b41b60648201526084016107d1565b60006132166001546001600160a01b031690565b905083158061322b5750613229816137d8565b155b6132915760405162461bcd60e51b815260206004820152603160248201527f5f5f6275795368617265733a2050656e64696e67206d6967726174696f6e206f60448201527039103932b1b7b73334b3bab930ba34b7b760791b60648201526084016107d1565b600061329b6112ac565b90506132a8888883613dfb565b816001600160a01b031663d5c20fa26040518163ffffffff1660e01b8152600401600060405180830381600087803b1580156132e357600080fd5b505af11580156132f7573d6000803e3d6000fd5b5050505061330f60015460ff600160a01b9091041690565b1561331e5761331e8282613a30565b600061333d6133356000546001600160a01b031690565b86858b613e6b565b9050600061338383856001600160a01b03166318160ddd6040518163ffffffff1660e01b8152600401602060405180830381865afa158015611e67573d6000803e3d6000fd5b905060008161339a670de0b6b3a7640000856148ee565b6133a49190614905565b6040516370a0823160e01b81526001600160a01b038d811660048301529192506000918716906370a0823190602401602060405180830381865afa1580156133f0573d6000803e3d6000fd5b505050506040513d601f19601f820116820180604052508101906134149190614d6a565b6040516329460cc560e11b81526001600160a01b038e81166004830152602482018590529192509087169063528c198a90604401600060405180830381600087803b15801561346257600080fd5b505af1158015613476573d6000803e3d6000fd5b505050506134868c858488613f72565b6040516370a0823160e01b81526001600160a01b038d811660048301528291908816906370a0823190602401602060405180830381865afa1580156134cf573d6000803e3d6000fd5b505050506040513d601f19601f820116820180604052508101906134f39190614d6a565b6134fd9190614ffd565b9650898710156135695760405162461bcd60e51b815260206004820152603160248201527f5f5f6275795368617265733a20536861726573207265636569766564203c205f6044820152706d696e5368617265735175616e7469747960781b60648201526084016107d1565b881561358b576001600160a01b038c1660009081526003602052604090204290555b60408051858152602081018490529081018890526001600160a01b038d16907f849165c18b9d0fb161bcb145e4ab523d350e5c98f1dbbb1960331e7ee3ca67679060600160405180910390a25050505050506001805460ff60a81b1916905595945050505050565b6000806136086000546001600160a01b031690565b905060006136b084876001600160a01b03166318160ddd6040518163ffffffff1660e01b8152600401602060405180830381865afa15801561364e573d6000803e3d6000fd5b505050506040513d601f19601f820116820180604052508101906136729190614d6a565b846001600160a01b031663313ce5676040518163ffffffff1660e01b8152600401602060405180830381865afa158015611ed4573d6000803e3d6000fd5b90506000670de0b6b3a76400006136c787846148ee565b6136d19190614905565b90507f00000000000000000000000000000000000000000000000000000000000000006001600160a01b0316634c67e10684837f000000000000000000000000000000000000000000000000000000000000000060405160e085901b6001600160e01b03191681526001600160a01b039384166004820152602481019290925290911660448201526064016020604051808303816000875af115801561377b573d6000803e3d6000fd5b505050506040513d601f19601f8201168201806040525081019061379f9190614d6a565b979650505050505050565b6000826000036137bb575080611ca9565b826137ce670de0b6b3a7640000866148ee565b6120cd9190614905565b60007f000000000000000000000000000000000000000000000000000000000000000060405163d0449d3d60e01b81526001600160a01b038481166004830152919091169063d0449d3d90602401602060405180830381865afa158015613843573d6000803e3d6000fd5b505050506040513d601f19601f8201168201806040525081019061386791906149bb565b80611e0157507f0000000000000000000000000000000000000000000000000000000000000000604051636c579e5760e01b81526001600160a01b0384811660048301529190911690636c579e5790602401602060405180830381865afa1580156138d6573d6000803e3d6000fd5b505050506040513d601f19601f82011682018060405250810190611e0191906149bb565b604080516001600160a01b038681166020830152818301869052841515606080840191909152835180840390910181526080830193849052631dd6705960e21b9093527f00000000000000000000000000000000000000000000000000000000000000001691637759c16491613977916003918690608401615140565b600060405180830381600087803b15801561399157600080fd5b505af19250505080156139a2575060015b613a2a573d8080156139d0576040519150601f19603f3d011682016040523d82523d6000602084013e6139d5565b606091505b50846001600160a01b0316816040516139ee9190615179565b604051908190038120868252907fb3ea7e5141baf21804d12f5a635e83e0cb869c8b06b88648364769f85aa73fc29060200160405180910390a3505b50505050565b60006001600160a01b0383166370a082317f00000000000000000000000000000000000000000000000000000000000000006040516001600160e01b031960e084901b1681526001600160a01b039091166004820152602401602060405180830381865afa158015613aa6573d6000803e3d6000fd5b505050506040513d601f19601f82011682018060405250810190613aca9190614d6a565b90506000613ad98483856135f3565b604051630ffa35fd60e11b81526004810184905260248101829052604481018590529091506001600160a01b03851690631ff46bfa90606401600060405180830381600087803b158015613b2c57600080fd5b505af1925050508015613b3d575060015b613a2a573d808015613b6b576040519150601f19603f3d011682016040523d82523d6000602084013e613b70565b606091505b5080604051613b7f9190615179565b6040805191829003822085835260208301859052908201869052907f0917b727c8497d0fc305acafacb424e8c9b12715d2b9b19bee777ef9d134f08f9060600160405180910390a250613a2a565b60608151600003613bdf575081611e01565b600083516001600160401b03811115613bfa57613bfa614c59565b604051908082528060200260200182016040528015613c23578160200160208202803683370190505b50845190915060005b8551811015613ca157613c5885878381518110613c4b57613c4b6147e4565b6020026020010151613d96565b15613c8f576001838281518110613c7157613c716147e4565b9115156020928302919091019091015281613c8b8161518b565b9250505b80613c9981614810565b915050613c2c565b5084518103613cb257849250613d8e565b8015613d8e57806001600160401b03811115613cd057613cd0614c59565b604051908082528060200260200182016040528015613cf9578160200160208202803683370190505b5092506000805b8651811015613d8b57838181518110613d1b57613d1b6147e4565b6020026020010151613d7957868181518110613d3957613d396147e4565b6020026020010151858381518110613d5357613d536147e4565b6001600160a01b039092166020928302919091019091015281613d7581614810565b9250505b80613d8381614810565b915050613d00565b50505b505092915050565b6000805b8351811015613df157838181518110613db557613db56147e4565b60200260200101516001600160a01b0316836001600160a01b031603613ddf576001915050611e01565b80613de981614810565b915050613d9a565b5060009392505050565b604080516001600160a01b0385811660208301528183018590528251808303840181526060830193849052631dd6705960e21b9093527f00000000000000000000000000000000000000000000000000000000000000001691637759c164916108bb916001918690606401615140565b6040516370a0823160e01b81526001600160a01b03838116600483015260009182918716906370a0823190602401602060405180830381865afa158015613eb6573d6000803e3d6000fd5b505050506040513d601f19601f82011682018060405250810190613eda9190614d6a565b9050613ef16001600160a01b0387168686866140f3565b6040516370a0823160e01b81526001600160a01b0385811660048301528291908816906370a0823190602401602060405180830381865afa158015613f3a573d6000803e3d6000fd5b505050506040513d601f19601f82011682018060405250810190613f5e9190614d6a565b613f689190614ffd565b9695505050505050565b6000613f7e8483614dc1565b90507f0000000000000000000000000000000000000000000000000000000000000000604080516001600160a01b03888116602083015291810187905260608101869052911690637759c16490600290608001604051602081830303815290604052846040518463ffffffff1660e01b8152600401613fff93929190615140565b600060405180830381600087803b15801561401957600080fd5b505af115801561402d573d6000803e3d6000fd5b505050506140587f000000000000000000000000000000000000000000000000000000000000000090565b604080516001600160a01b0388811660208301528183018890526060820187905260808083018690528351808403909101815260a0830193849052630442bad560e01b9093529290921691630442bad5916140ba91309160009160a4016148b6565b600060405180830381600087803b1580156140d457600080fd5b505af11580156140e8573d6000803e3d6000fd5b505050505050505050565b613a2a84848484613a2a846323b872dd60e01b85858560405160240161411b93929190614892565b60408051601f198184030181529190526020810180516001600160e01b03166001600160e01b03199093169290921790915260006141a2826040518060400160405280602081526020017f5361666545524332303a206c6f772d6c6576656c2063616c6c206661696c6564815250856001600160a01b031661421f9092919063ffffffff16565b8051909150156121f957808060200190518101906141c091906149bb565b6121f95760405162461bcd60e51b815260206004820152602a60248201527f5361666545524332303a204552433230206f7065726174696f6e20646964206e6044820152691bdd081cdd58d8d9595960b21b60648201526084016107d1565b60606120cd848460008585600080866001600160a01b031685876040516142469190615179565b60006040518083038185875af1925050503d8060008114614283576040519150601f19603f3d011682016040523d82523d6000602084013e614288565b606091505b509150915061379f87838387606083156143035782516000036142fc576001600160a01b0385163b6142fc5760405162461bcd60e51b815260206004820152601d60248201527f416464726573733a2063616c6c20746f206e6f6e2d636f6e747261637400000060448201526064016107d1565b50816120cd565b6120cd83838151156143185781518083602001fd5b8060405162461bcd60e51b81526004016107d191906147d1565b60008083601f84011261434457600080fd5b5081356001600160401b0381111561435b57600080fd5b60208301915083602082850101111561437357600080fd5b9250929050565b60008060006040848603121561438f57600080fd5b8335600b811061439e57600080fd5b925060208401356001600160401b038111156143b957600080fd5b6143c586828701614332565b9497909650939450505050565b6001600160a01b03811681146120f057600080fd5b6000806000606084860312156143fc57600080fd5b8335614407816143d2565b92506020840135614417816143d2565b929592945050506040919091013590565b80151581146120f057600080fd5b60006020828403121561444857600080fd5b8135611ca981614428565b60008083601f84011261446557600080fd5b5081356001600160401b0381111561447c57600080fd5b6020830191508360208260051b850101111561437357600080fd5b600080600080600080608087890312156144b057600080fd5b86356144bb816143d2565b95506020870135945060408701356001600160401b03808211156144de57600080fd5b6144ea8a838b01614453565b9096509450606089013591508082111561450357600080fd5b5061451089828a01614453565b979a9699509497509295939492505050565b600081518084526020808501945080840160005b8381101561455257815187529582019590820190600101614536565b509495945050505050565b602081526000611ca96020830184614522565b6000806000806060858703121561458657600080fd5b8435614591816143d2565b93506020850135925060408501356001600160401b038111156145b357600080fd5b6145bf87828801614332565b95989497509550505050565b600080604083850312156145de57600080fd5b82356145e9816143d2565b915060208301356001600160401b0381111561460457600080fd5b830160a0818603121561461657600080fd5b809150509250929050565b600081518084526020808501945080840160005b838110156145525781516001600160a01b031687529582019590820190600101614635565b60408152600061466d6040830185614621565b828103602084015261467f8185614522565b95945050505050565b60006020828403121561469a57600080fd5b8135611ca9816143d2565b602081526000611ca96020830184614621565b6000806000606084860312156146cd57600080fd5b83356146d8816143d2565b95602085013595506040909401359392505050565b6000602082840312156146ff57600080fd5b5035919050565b6000806040838503121561471957600080fd5b50508035926020909101359150565b6000806000806060858703121561473e57600080fd5b8435614749816143d2565b935060208501356001600160e01b03198116811461476657600080fd5b925060408501356001600160401b038111156145b357600080fd5b60005b8381101561479c578181015183820152602001614784565b50506000910152565b600081518084526147bd816020860160208601614781565b601f01601f19169290920160200192915050565b602081526000611ca960208301846147a5565b634e487b7160e01b600052603260045260246000fd5b634e487b7160e01b600052601160045260246000fd5b600060018201614822576148226147fa565b5060010190565b634e487b7160e01b600052602160045260246000fd5b81835281816020850137506000828201602090810191909152601f909101601f19169091010190565b6000600b851061487a5761487a614829565b848252604060208301526120ca60408301848661483f565b6001600160a01b039384168152919092166020820152604081019190915260600190565b6001600160a01b03841681526000600a84106148d4576148d4614829565b836020830152606060408301526120ca60608301846147a5565b8082028115828204841417611e0157611e016147fa565b60008261492257634e487b7160e01b600052601260045260246000fd5b500490565b84815260606020808301829052908201849052600090859060808401835b87811015614973578335614958816143d2565b6001600160a01b031682529282019290820190600101614945565b5084810360408601526149868187614522565b9998505050505050505050565b60018060a01b0385168152836020820152606060408201526000613f6860608301848661483f565b6000602082840312156149cd57600080fd5b8151611ca981614428565b6000808335601e198436030181126149ef57600080fd5b8301803591506001600160401b03821115614a0957600080fd5b60200191503681900382131561437357600080fd5b6020815260006120cd60208301848661483f565b6000808335601e19843603018112614a4957600080fd5b8301803591506001600160401b03821115614a6357600080fd5b6020019150600581901b360382131561437357600080fd5b60008235603e19833603018112614a9157600080fd5b9190910192915050565b6000808335601e19843603018112614ab257600080fd5b83016020810192503590506001600160401b03811115614ad157600080fd5b80360382131561437357600080fd5b81835260006020808501808196508560051b81019150846000805b88811015614b6a578385038a528235603e19893603018112614b1b578283fd5b880160408135614b2a816143d2565b6001600160a01b03168752614b4182890183614a9b565b92508189890152614b55828901848361483f565b9c89019c975050509286019250600101614afb565b509298975050505050505050565b6001600160a01b038381168252604060208301526000908335614b9a816143d2565b8181166040850152505060208301356060830152614bbb6040840184614a9b565b60a06080850152614bd060e08501828461483f565b915050614be06060850185614a9b565b603f19808685030160a0870152614bf884838561483f565b935060808701359250601e19873603018312614c1357600080fd5b6020928701928301923591506001600160401b03821115614c3357600080fd5b8160051b3603831315614c4557600080fd5b8584030160c086015261379f838284614ae0565b634e487b7160e01b600052604160045260246000fd5b604051601f8201601f191681016001600160401b0381118282101715614c9757614c97614c59565b604052919050565b60006001600160401b03821115614cb857614cb8614c59565b5060051b60200190565b600082601f830112614cd357600080fd5b81516020614ce8614ce383614c9f565b614c6f565b82815260059290921b84018101918181019086841115614d0757600080fd5b8286015b84811015614d2b578051614d1e816143d2565b8352918301918301614d0b565b509695505050505050565b600060208284031215614d4857600080fd5b81516001600160401b03811115614d5e57600080fd5b6120cd84828501614cc2565b600060208284031215614d7c57600080fd5b5051919050565b606081526000614d966060830186614621565b8281036020840152614da88186614522565b91505060018060a01b0383166040830152949350505050565b80820180821115611e0157611e016147fa565b838152606060208201526000614ded6060830185614621565b8281036040840152613f688185614522565b600060208284031215614e1157600080fd5b815160ff81168114611ca957600080fd5b600181815b80851115614e5d578160001904821115614e4357614e436147fa565b80851615614e5057918102915b93841c9390800290614e27565b509250929050565b600082614e7457506001611e01565b81614e8157506000611e01565b8160018114614e975760028114614ea157614ebd565b6001915050611e01565b60ff841115614eb257614eb26147fa565b50506001821b611e01565b5060208310610133831016604e8410600b8410161715614ee0575081810a611e01565b614eea8383614e22565b8060001904821115614efe57614efe6147fa565b029392505050565b6000611ca98383614e65565b8183823760009101908152919050565b6001600160e01b031984168152818360048301376000910160040190815292915050565b6001600160a01b03831681526040602082018190526000906120cd908301846147a5565b600060208284031215614f7c57600080fd5b81516001600160401b0380821115614f9357600080fd5b818401915084601f830112614fa757600080fd5b815181811115614fb957614fb9614c59565b614fcc601f8201601f1916602001614c6f565b9150808252856020828501011115614fe357600080fd5b614ff4816020840160208601614781565b50949350505050565b81810381811115611e0157611e016147fa565b60006020828403121561502257600080fd5b8151611ca9816143d2565b6001600160a01b038781168252861660208201526040810185905260c06060820181905260009061506090830186614621565b82810360808401526150728186614522565b9150508260a0830152979650505050505050565b6000806040838503121561509957600080fd5b82516001600160401b03808211156150b057600080fd5b6150bc86838701614cc2565b93506020915081850151818111156150d357600080fd5b85019050601f810186136150e657600080fd5b80516150f4614ce382614c9f565b81815260059190911b8201830190838101908883111561511357600080fd5b928401925b8284101561513157835182529284019290840190615118565b80955050505050509250929050565b60006004851061515257615152614829565b8482526060602083015261516960608301856147a5565b9050826040830152949350505050565b60008251614a91818460208701614781565b60008161519a5761519a6147fa565b50600019019056","linkReferences":{}},"methodIdentifiers":{"activate()":"0f15f4c0","buyBackProtocolFeeShares(uint256)":"b10ea2b0","buyShares(uint256,uint256)":"beebc5da","buySharesOnBehalf(address,uint256,uint256)":"877fd894","calcGav()":"56cff99f","calcGrossShareValue()":"da72503c","callOnExtension(address,uint256,bytes)":"39bf70d1","deactivate()":"51b42b00","doesAutoProtocolFeeSharesBuyback()":"a01fd157","getDenominationAsset()":"e269c3d6","getDispatcher()":"ebb3d589","getExtensions()":"83b7db63","getFeeManager()":"f2d63826","getFundDeployer()":"97c0ac87","getLastSharesBoughtTimestampForAccount(address)":"7f20170d","getMlnToken()":"e70e605e","getPolicyManager()":"d44ad6cb","getProtocolFeeReserve()":"da41962e","getSharesActionTimelock()":"4da471b7","getValueInterpreter()":"875fb4b3","getVaultProxy()":"c9809187","getWethToken()":"4c252f91","init(address,(address,uint256,bytes,bytes,(address,bytes)[]))":"3e56e5e8","isExtension(address)":"f847ed48","permissionedVaultAction(uint8,bytes)":"10acd06d","preTransferSharesHook(address,address,uint256)":"12f20526","preTransferSharesHookFreelyTransferable(address)":"f9d5fe78","redeemSharesForSpecificAssets(address,uint256,address[],uint256[])":"3462fcc1","redeemSharesInKind(address,uint256,address[],address[])":"6af8e7eb","setAutoProtocolFeeSharesBuyback(bool)":"2dc7a3a0","vaultCallOnContract(address,bytes4,bytes)":"e572ced1"},"id":84}