{"abi":[{"type":"constructor","inputs":[{"name":"_dispatcher","type":"address","internalType":"address"},{"name":"_protocolFeeReserve","type":"address","internalType":"address"},{"name":"_fundDeployer","type":"address","internalType":"address"},{"name":"_valueInterpreter","type":"address","internalType":"address"},{"name":"_feeManager","type":"address","internalType":"address"},{"name":"_policyManager","type":"address","internalType":"address"},{"name":"_mlnToken","type":"address","internalType":"address"},{"name":"_wethToken","type":"address","internalType":"address"}],"stateMutability":"nonpayable"},{"type":"function","name":"activate","inputs":[],"outputs":[],"stateMutability":"nonpayable"},{"type":"function","name":"buyBackProtocolFeeShares","inputs":[{"name":"_sharesAmount","type":"uint256","internalType":"uint256"}],"outputs":[],"stateMutability":"nonpayable"},{"type":"function","name":"buyShares","inputs":[{"name":"_investmentAmount","type":"uint256","internalType":"uint256"},{"name":"_minSharesQuantity","type":"uint256","internalType":"uint256"}],"outputs":[{"name":"sharesReceived_","type":"uint256","internalType":"uint256"}],"stateMutability":"nonpayable"},{"type":"function","name":"buySharesOnBehalf","inputs":[{"name":"_buyer","type":"address","internalType":"address"},{"name":"_investmentAmount","type":"uint256","internalType":"uint256"},{"name":"_minSharesQuantity","type":"uint256","internalType":"uint256"}],"outputs":[{"name":"sharesReceived_","type":"uint256","internalType":"uint256"}],"stateMutability":"nonpayable"},{"type":"function","name":"calcGav","inputs":[],"outputs":[{"name":"gav_","type":"uint256","internalType":"uint256"}],"stateMutability":"nonpayable"},{"type":"function","name":"calcGrossShareValue","inputs":[],"outputs":[{"name":"grossShareValue_","type":"uint256","internalType":"uint256"}],"stateMutability":"nonpayable"},{"type":"function","name":"callOnExtension","inputs":[{"name":"_extension","type":"address","internalType":"address"},{"name":"_actionId","type":"uint256","internalType":"uint256"},{"name":"_callArgs","type":"bytes","internalType":"bytes"}],"outputs":[],"stateMutability":"nonpayable"},{"type":"function","name":"deactivate","inputs":[],"outputs":[],"stateMutability":"nonpayable"},{"type":"function","name":"doesAutoProtocolFeeSharesBuyback","inputs":[],"outputs":[{"name":"doesAutoBuyback_","type":"bool","internalType":"bool"}],"stateMutability":"view"},{"type":"function","name":"getDenominationAsset","inputs":[],"outputs":[{"name":"denominationAsset_","type":"address","internalType":"address"}],"stateMutability":"view"},{"type":"function","name":"getDispatcher","inputs":[],"outputs":[{"name":"dispatcher_","type":"address","internalType":"address"}],"stateMutability":"view"},{"type":"function","name":"getExtensions","inputs":[],"outputs":[{"name":"extensions_","type":"address[]","internalType":"address[]"}],"stateMutability":"view"},{"type":"function","name":"getFeeManager","inputs":[],"outputs":[{"name":"feeManager_","type":"address","internalType":"address"}],"stateMutability":"view"},{"type":"function","name":"getFundDeployer","inputs":[],"outputs":[{"name":"fundDeployer_","type":"address","internalType":"address"}],"stateMutability":"view"},{"type":"function","name":"getLastSharesBoughtTimestampForAccount","inputs":[{"name":"_who","type":"address","internalType":"address"}],"outputs":[{"name":"lastSharesBoughtTimestamp_","type":"uint256","internalType":"uint256"}],"stateMutability":"view"},{"type":"function","name":"getMlnToken","inputs":[],"outputs":[{"name":"mlnToken_","type":"address","internalType":"address"}],"stateMutability":"view"},{"type":"function","name":"getPolicyManager","inputs":[],"outputs":[{"name":"policyManager_","type":"address","internalType":"address"}],"stateMutability":"view"},{"type":"function","name":"getProtocolFeeReserve","inputs":[],"outputs":[{"name":"protocolFeeReserve_","type":"address","internalType":"address"}],"stateMutability":"view"},{"type":"function","name":"getSharesActionTimelock","inputs":[],"outputs":[{"name":"sharesActionTimelock_","type":"uint256","internalType":"uint256"}],"stateMutability":"view"},{"type":"function","name":"getValueInterpreter","inputs":[],"outputs":[{"name":"valueInterpreter_","type":"address","internalType":"address"}],"stateMutability":"view"},{"type":"function","name":"getVaultProxy","inputs":[],"outputs":[{"name":"vaultProxy_","type":"address","internalType":"address"}],"stateMutability":"view"},{"type":"function","name":"getWethToken","inputs":[],"outputs":[{"name":"wethToken_","type":"address","internalType":"address"}],"stateMutability":"view"},{"type":"function","name":"init","inputs":[{"name":"_vaultProxy","type":"address","internalType":"address"},{"name":"_config","type":"tuple","internalType":"struct IComptroller.ConfigInput","components":[{"name":"denominationAsset","type":"address","internalType":"address"},{"name":"sharesActionTimelock","type":"uint256","internalType":"uint256"},{"name":"feeManagerConfigData","type":"bytes","internalType":"bytes"},{"name":"policyManagerConfigData","type":"bytes","internalType":"bytes"},{"name":"extensionsConfig","type":"tuple[]","internalType":"struct IComptroller.ExtensionConfigInput[]","components":[{"name":"extension","type":"address","internalType":"address"},{"name":"configData","type":"bytes","internalType":"bytes"}]}]}],"outputs":[],"stateMutability":"nonpayable"},{"type":"function","name":"isExtension","inputs":[{"name":"_who","type":"address","internalType":"address"}],"outputs":[{"name":"isExtension_","type":"bool","internalType":"bool"}],"stateMutability":"view"},{"type":"function","name":"permissionedVaultAction","inputs":[{"name":"_action","type":"uint8","internalType":"enum IVault.VaultAction"},{"name":"_actionData","type":"bytes","internalType":"bytes"}],"outputs":[],"stateMutability":"nonpayable"},{"type":"function","name":"preTransferSharesHook","inputs":[{"name":"_sender","type":"address","internalType":"address"},{"name":"_recipient","type":"address","internalType":"address"},{"name":"_amount","type":"uint256","internalType":"uint256"}],"outputs":[],"stateMutability":"nonpayable"},{"type":"function","name":"preTransferSharesHookFreelyTransferable","inputs":[{"name":"_sender","type":"address","internalType":"address"}],"outputs":[],"stateMutability":"view"},{"type":"function","name":"redeemSharesForSpecificAssets","inputs":[{"name":"_recipient","type":"address","internalType":"address"},{"name":"_sharesQuantity","type":"uint256","internalType":"uint256"},{"name":"_payoutAssets","type":"address[]","internalType":"address[]"},{"name":"_payoutAssetPercentages","type":"uint256[]","internalType":"uint256[]"}],"outputs":[{"name":"payoutAmounts_","type":"uint256[]","internalType":"uint256[]"}],"stateMutability":"nonpayable"},{"type":"function","name":"redeemSharesInKind","inputs":[{"name":"_recipient","type":"address","internalType":"address"},{"name":"_sharesQuantity","type":"uint256","internalType":"uint256"},{"name":"_additionalAssets","type":"address[]","internalType":"address[]"},{"name":"_assetsToSkip","type":"address[]","internalType":"address[]"}],"outputs":[{"name":"payoutAssets_","type":"address[]","internalType":"address[]"},{"name":"payoutAmounts_","type":"uint256[]","internalType":"uint256[]"}],"stateMutability":"nonpayable"},{"type":"function","name":"setAutoProtocolFeeSharesBuyback","inputs":[{"name":"_nextAutoProtocolFeeSharesBuyback","type":"bool","internalType":"bool"}],"outputs":[],"stateMutability":"nonpayable"},{"type":"function","name":"vaultCallOnContract","inputs":[{"name":"_contract","type":"address","internalType":"address"},{"name":"_selector","type":"bytes4","internalType":"bytes4"},{"name":"_encodedArgs","type":"bytes","internalType":"bytes"}],"outputs":[{"name":"returnData_","type":"bytes","internalType":"bytes"}],"stateMutability":"nonpayable"},{"type":"event","name":"AutoProtocolFeeSharesBuybackSet","inputs":[{"name":"autoProtocolFeeSharesBuyback","type":"bool","indexed":false,"internalType":"bool"}],"anonymous":false},{"type":"event","name":"BuyBackMaxProtocolFeeSharesFailed","inputs":[{"name":"failureReturnData","type":"bytes","indexed":true,"internalType":"bytes"},{"name":"sharesAmount","type":"uint256","indexed":false,"internalType":"uint256"},{"name":"buybackValueInMln","type":"uint256","indexed":false,"internalType":"uint256"},{"name":"gav","type":"uint256","indexed":false,"internalType":"uint256"}],"anonymous":false},{"type":"event","name":"ExtensionEnabled","inputs":[{"name":"extension","type":"address","indexed":true,"internalType":"address"},{"name":"configData","type":"bytes","indexed":false,"internalType":"bytes"}],"anonymous":false},{"type":"event","name":"Initialized","inputs":[{"name":"vaultProxy","type":"address","indexed":false,"internalType":"address"},{"name":"config","type":"tuple","indexed":false,"internalType":"struct IComptroller.ConfigInput","components":[{"name":"denominationAsset","type":"address","internalType":"address"},{"name":"sharesActionTimelock","type":"uint256","internalType":"uint256"},{"name":"feeManagerConfigData","type":"bytes","internalType":"bytes"},{"name":"policyManagerConfigData","type":"bytes","internalType":"bytes"},{"name":"extensionsConfig","type":"tuple[]","internalType":"struct IComptroller.ExtensionConfigInput[]","components":[{"name":"extension","type":"address","internalType":"address"},{"name":"configData","type":"bytes","internalType":"bytes"}]}]}],"anonymous":false},{"type":"event","name":"MigratedSharesDuePaid","inputs":[{"name":"sharesDue","type":"uint256","indexed":false,"internalType":"uint256"}],"anonymous":false},{"type":"event","name":"PayProtocolFeeDuringDestructFailed","inputs":[],"anonymous":false},{"type":"event","name":"PreRedeemSharesHookFailed","inputs":[{"name":"failureReturnData","type":"bytes","indexed":true,"internalType":"bytes"},{"name":"redeemer","type":"address","indexed":true,"internalType":"address"},{"name":"sharesAmount","type":"uint256","indexed":false,"internalType":"uint256"}],"anonymous":false},{"type":"event","name":"RedeemSharesInKindCalcGavFailed","inputs":[],"anonymous":false},{"type":"event","name":"SharesBought","inputs":[{"name":"buyer","type":"address","indexed":true,"internalType":"address"},{"name":"investmentAmount","type":"uint256","indexed":false,"internalType":"uint256"},{"name":"sharesIssued","type":"uint256","indexed":false,"internalType":"uint256"},{"name":"sharesReceived","type":"uint256","indexed":false,"internalType":"uint256"}],"anonymous":false},{"type":"event","name":"SharesRedeemed","inputs":[{"name":"redeemer","type":"address","indexed":true,"internalType":"address"},{"name":"recipient","type":"address","indexed":true,"internalType":"address"},{"name":"sharesAmount","type":"uint256","indexed":false,"internalType":"uint256"},{"name":"receivedAssets","type":"address[]","indexed":false,"internalType":"address[]"},{"name":"receivedAssetAmounts","type":"uint256[]","indexed":false,"internalType":"uint256[]"}],"anonymous":false}],"bytecode":{"object":"0x6101806040523480156200001257600080fd5b50604051620059fd380380620059fd8339810160408190526200003591620000af565b6001600160a01b0397881660805292871660c05293861660a05292851660e052918416610100529183166101205290821661014052166101605262000174565b60006001600160a01b0382165b92915050565b620000938162000075565b81146200009f57600080fd5b50565b8051620000828162000088565b600080600080600080600080610100898b031215620000d157620000d1600080fd5b6000620000df8b8b620000a2565b9850506020620000f28b828c01620000a2565b9750506040620001058b828c01620000a2565b9650506060620001188b828c01620000a2565b95505060806200012b8b828c01620000a2565b94505060a06200013e8b828c01620000a2565b93505060c0620001518b828c01620000a2565b92505060e0620001648b828c01620000a2565b9150509295985092959890939650565b60805160a05160c05160e0516101005161012051610140516101605161577462000289600039600061027e01526000818161032d01528181610c7a01528181611287015281816122f1015281816127be015281816128db015261307501526000818161040401526133bb0152600081816103de015281816106090152818161088b01528181610e2001528181612515015261397f01526000818161046301526130a60152600081816104af015281816105960152818161071f01528181610b6401528181610d94015281816132640152818161374c01526138d6015260008181610366015281816118fa01528181611bb801528181611d5301526131ec015260008181610489015261315901526157746000f3fe608060405234801561001057600080fd5b50600436106101e55760003560e01c8063877fd8941161010f578063da72503c116100a2578063ebb3d58911610071578063ebb3d58914610487578063f2d63826146104ad578063f847ed48146104d3578063f9d5fe78146104ff57600080fd5b8063da72503c14610428578063e269c3d614610430578063e572ced114610441578063e70e605e1461046157600080fd5b8063beebc5da116100de578063beebc5da146103b8578063c9809187146103cb578063d44ad6cb146103dc578063da41962e1461040257600080fd5b8063877fd8941461035157806397c0ac8714610364578063a01fd1571461038a578063b10ea2b0146103a557600080fd5b80634c252f91116101875780636af8e7eb116101565780636af8e7eb146102cc5780637f20170d146102ed57806383b7db6314610316578063875fb4b31461032b57600080fd5b80634c252f911461027c5780634da471b7146102ab57806351b42b00146102bc57806356cff99f146102c457600080fd5b80632dc7a3a0116101c35780632dc7a3a01461021a5780633462fcc11461022d57806339bf70d1146102565780633e56e5e81461026957600080fd5b80630f15f4c0146101ea57806310acd06d146101f457806312f2052614610207575b600080fd5b6101f2610512565b005b6101f2610202366004613c64565b610714565b6101f2610215366004613d00565b610841565b6101f2610228366004613d63565b610935565b61024061023b366004613dce565b610990565b60405161024d9190613ed3565b60405180910390f35b6101f2610264366004613ee4565b610b3c565b6101f2610277366004613f6c565b610c3e565b7f00000000000000000000000000000000000000000000000000000000000000005b60405161024d9190613fcc565b6002545b60405161024d9190613fda565b6101f2610f51565b6102af611072565b6102df6102da366004613dce565b61138e565b60405161024d929190614032565b6102af6102fb366004614057565b6001600160a01b031660009081526003602052604090205490565b61031e611867565b60405161024d9190614078565b7f000000000000000000000000000000000000000000000000000000000000000061029e565b6102af61035f366004614089565b6118c9565b7f000000000000000000000000000000000000000000000000000000000000000061029e565b600154600160a01b900460ff165b60405161024d91906140c6565b6101f26103b33660046140d4565b6119a5565b6102af6103c63660046140f5565b611a77565b6001546001600160a01b031661029e565b7f000000000000000000000000000000000000000000000000000000000000000061029e565b7f000000000000000000000000000000000000000000000000000000000000000061029e565b6102af611aa1565b6000546001600160a01b031661029e565b61045461044f366004614143565b611bab565b60405161024d91906141d1565b7f000000000000000000000000000000000000000000000000000000000000000061029e565b7f000000000000000000000000000000000000000000000000000000000000000061029e565b7f000000000000000000000000000000000000000000000000000000000000000061029e565b6103986104e1366004614057565b6001600160a01b031660009081526004602052604090205460ff1690565b6101f261050d366004614057565b611d2a565b61051a611d48565b6001546001600160a01b03166001600160a01b0316634ef0762e6105466000546001600160a01b031690565b6040518263ffffffff1660e01b81526004016105629190613fcc565b600060405180830381600087803b15801561057c57600080fd5b505af1158015610590573d6000803e3d6000fd5b505050507f00000000000000000000000000000000000000000000000000000000000000006001600160a01b03166321725d016040518163ffffffff1660e01b8152600401600060405180830381600087803b1580156105ef57600080fd5b505af1158015610603573d6000803e3d6000fd5b505050507f00000000000000000000000000000000000000000000000000000000000000006001600160a01b03166321725d016040518163ffffffff1660e01b8152600401600060405180830381600087803b15801561066257600080fd5b505af1158015610676573d6000803e3d6000fd5b50506005549150600090505b81811015610710576005818154811061069d5761069d6141e2565b6000918252602082200154604080516321725d0160e01b815290516001600160a01b03909216926321725d019260048084019382900301818387803b1580156106e557600080fd5b505af11580156106f9573d6000803e3d6000fd5b5050505080806107089061420e565b915050610682565b5050565b336001600160a01b037f000000000000000000000000000000000000000000000000000000000000000016148061075a57503360009081526004602052604090205460ff165b61077f5760405162461bcd60e51b815260040161077690614274565b60405180910390fd5b600683600a81111561079357610793614284565b036107d6576000546001600160a01b03166107b083830184614057565b6001600160a01b0316036107d65760405162461bcd60e51b8152600401610776906142f4565b600154604051631273000960e11b81526001600160a01b03909116906324e600129061080a90869086908690600401614366565b600060405180830381600087803b15801561082457600080fd5b505af1158015610838573d6000803e3d6000fd5b50505050505050565b60006108556001546001600160a01b031690565b9050336001600160a01b0382161461087f5760405162461bcd60e51b8152600401610776906143d3565b6108898185611d92565b7f00000000000000000000000000000000000000000000000000000000000000006001600160a01b0316630442bad53060028787876040516020016108d0939291906143e3565b6040516020818303038152906040526040518463ffffffff1660e01b81526004016108fd93929190614439565b600060405180830381600087803b15801561091757600080fd5b505af115801561092b573d6000803e3d6000fd5b5050505050505050565b61093e33611df3565b6001805460ff60a01b1916600160a01b831515021790556040517f8ccd4cc3a51ed6f61f2b34b8d0a1ac137376931714380a7702b410ed174d6a73906109859083906140c6565b60405180910390a150565b606061099a611e90565b6001805460ff60a81b1916600160a81b17905560006109b63390565b90508483146109d75760405162461bcd60e51b8152600401610776906144b0565b610a13868680806020026020016040519081016040528093929190818152602001838360200280828437600092019190915250611eba92505050565b610a2f5760405162461bcd60e51b815260040161077690614512565b6000610a39611072565b90506000610a4f6001546001600160a01b031690565b9050600080610a6283868d600188611f77565b9092509050610a8a838d8c8c8c8c87610a7b8a8d614522565b610a859190614557565b612228565b9550610acf858d848d8d808060200260200160405190810160405280939291908181526020018383602002808284376000920191909152508d92508b91506125139050565b8b6001600160a01b0316856001600160a01b03167fbf88879a1555e4d7d38ebeffabce61fdf5e12ea0468abf855a72ec17b432bed5848d8d8b604051610b1894939291906145b7565b60405180910390a350505050506001805460ff60a81b191690559695505050505050565b610b44611e90565b6001805460ff60a81b1916600160a81b1790556001600160a01b038481167f0000000000000000000000000000000000000000000000000000000000000000919091161480610bab57506001600160a01b03841660009081526004602052604090205460ff165b610bc75760405162461bcd60e51b81526004016107769061462c565b604051630df7400f60e11b81526001600160a01b03851690631bee801e90610bf990339087908790879060040161463c565b600060405180830381600087803b158015610c1357600080fd5b505af1158015610c27573d6000803e3d6000fd5b50506001805460ff60a81b19169055505050505050565b6000610c526001546001600160a01b031690565b6001600160a01b031614610c785760405162461bcd60e51b8152600401610776906146a1565b7f00000000000000000000000000000000000000000000000000000000000000006001600160a01b031663c496f8e8610cb46020840184614057565b6040518263ffffffff1660e01b8152600401610cd09190613fcc565b602060405180830381865afa158015610ced573d6000803e3d6000fd5b505050506040513d601f19601f82011682018060405250810190610d1191906146bc565b610d2d5760405162461bcd60e51b815260040161077690614711565b600180546001600160a01b0319166001600160a01b038416179055610d556020820182614057565b600080546001600160a01b0319166001600160a01b03929092169190911781556020820135600255610d8a6040830183614721565b90501115610e1e577f00000000000000000000000000000000000000000000000000000000000000006001600160a01b03166389cbe1d0610dce6040840184614721565b6040518363ffffffff1660e01b8152600401610deb92919061477f565b600060405180830381600087803b158015610e0557600080fd5b505af1158015610e19573d6000803e3d6000fd5b505050505b7f00000000000000000000000000000000000000000000000000000000000000006001600160a01b03166389cbe1d0610e5a6060840184614721565b6040518363ffffffff1660e01b8152600401610e7792919061477f565b600060405180830381600087803b158015610e9157600080fd5b505af1158015610ea5573d6000803e3d6000fd5b5060009250610eba9150506080830183614791565b9050905060005b81811015610f1257610f00610ed96080850185614791565b83818110610ee957610ee96141e2565b9050602002810190610efb91906147e5565b6125c7565b80610f0a8161420e565b915050610ec1565b507f19e1afd34c6203e74c1d43b341df22ac7bd4aff964f0e13e89eff662bb6c7b428383604051610f44929190614a21565b60405180910390a1505050565b610f59611d48565b6001546001600160a01b03166001600160a01b031663d5c20fa26040518163ffffffff1660e01b8152600401600060405180830381600087803b158015610f9f57600080fd5b505af1925050508015610fb0575060015b610fde576040517f8a7579328a911284dedef6a7e68bbb1eae7d59418f2699cb5a3c26f6e57e4d7790600090a15b60055460005b818110156107105760058181548110610fff57610fff6141e2565b600091825260208220015460408051635ec74acd60e11b815290516001600160a01b039092169263bd8e959a9260048084019382900301818387803b15801561104757600080fd5b505af115801561105b573d6000803e3d6000fd5b50505050808061106a9061420e565b915050610fe4565b6000806110876001546001600160a01b031690565b90506000816001600160a01b031663c4b973706040518163ffffffff1660e01b8152600401600060405180830381865afa1580156110c9573d6000803e3d6000fd5b505050506040513d6000823e601f3d908101601f191682016040526110f19190810190614b4c565b90506000826001600160a01b031663b8b7f1476040518163ffffffff1660e01b8152600401600060405180830381865afa158015611133573d6000803e3d6000fd5b505050506040513d6000823e601f3d908101601f1916820160405261115b9190810190614b4c565b90508151600014801561116d57508051155b1561117c576000935050505090565b600082516001600160401b0381111561119757611197614a41565b6040519080825280602002602001820160405280156111c0578160200160208202803683370190505b50905060005b8351811015611284578381815181106111e1576111e16141e2565b60200260200101516001600160a01b03166370a08231866040518263ffffffff1660e01b81526004016112149190613fcc565b602060405180830381865afa158015611231573d6000803e3d6000fd5b505050506040513d601f19601f820116820180604052508101906112559190614b91565b828281518110611267576112676141e2565b60209081029190910101528061127c8161420e565b9150506111c6565b507f00000000000000000000000000000000000000000000000000000000000000006001600160a01b031663ae6f52ad84836112c86000546001600160a01b031690565b6040518463ffffffff1660e01b81526004016112e693929190614bb2565b6020604051808303816000875af1158015611305573d6000803e3d6000fd5b505050506040513d601f19601f820116820180604052508101906113299190614b91565b8251909550156113875760005b8251811015611385576000611363848381518110611356576113566141e2565b6020026020010151612746565b905061136f8188614be6565b965050808061137d9061420e565b915050611336565b505b5050505090565b606080611399611e90565b6001805460ff60a81b1916600160a81b17905560006113b53390565b90506113f3878780806020026020016040519081016040528093929190818152602001838360200280828437600092019190915250611eba92505050565b61140f5760405162461bcd60e51b815260040161077690614c53565b61144b858580806020026020016040519081016040528093929190818152602001838360200280828437600092019190915250611eba92505050565b6114675760405162461bcd60e51b815260040161077690614cb5565b60015460408051630c4b973760e41b81529051611544926001600160a01b03169163c4b973709160048083019260009291908290030181865afa1580156114b2573d6000803e3d6000fd5b505050506040513d6000823e601f3d908101601f191682016040526114da9190810190614b4c565b88888080602002602001604051908101604052809392919081815260200183836020028082843760009201919091525050604080516020808c0282810182019093528b82529093508b92508a9182918501908490808284376000920191909152506129a292505050565b9250600061155c60015460ff600160a01b9091041690565b156115f257306001600160a01b03166356cff99f6040518163ffffffff1660e01b81526004016020604051808303816000875af19250505080156115bd575060408051601f3d908101601f191682019092526115ba91810190614b91565b60015b6115ef576040517ff5939ff9a66cf6d21ec93b246060bc17f5c062847e28d967d3dd617636b238d490600090a16115f2565b90505b6001546000908190611610906001600160a01b0316858d8487611f77565b9150915085516001600160401b0381111561162d5761162d614a41565b604051908082528060200260200182016040528015611656578160200160208202803683370190505b50945060005b86518110156117f9578183888381518110611679576116796141e2565b60209081029190910101516001546040516370a0823160e01b81526001600160a01b03928316926370a08231926116b592911690600401613fcc565b602060405180830381865afa1580156116d2573d6000803e3d6000fd5b505050506040513d601f19601f820116820180604052508101906116f69190614b91565b6117009190614522565b61170a9190614557565b86828151811061171c5761171c6141e2565b602002602001018181525050600086828151811061173c5761173c6141e2565b602002602001015111156117e75760015487516001600160a01b039091169063495d753c90899084908110611773576117736141e2565b60200260200101518f89858151811061178e5761178e6141e2565b60200260200101516040518463ffffffff1660e01b81526004016117b4939291906143e3565b600060405180830381600087803b1580156117ce57600080fd5b505af11580156117e2573d6000803e3d6000fd5b505050505b806117f18161420e565b91505061165c565b508b6001600160a01b0316846001600160a01b03167fbf88879a1555e4d7d38ebeffabce61fdf5e12ea0468abf855a72ec17b432bed584898960405161184193929190614cc5565b60405180910390a3505050506001805460ff60a81b191690559097909650945050505050565b606060058054806020026020016040519081016040528092919081815260200182805480156118bf57602002820191906000526020600020905b81546001600160a01b031681526001909101906020018083116118a1575b5050505050905090565b60008060006118d760025490565b1190503381158061197057506040516354391f0960e01b81526001600160a01b037f000000000000000000000000000000000000000000000000000000000000000016906354391f099061192f908490600401613fcc565b602060405180830381865afa15801561194c573d6000803e3d6000fd5b505050506040513d601f19601f8201168201806040525081019061197091906146bc565b61198c5760405162461bcd60e51b815260040161077690614d2d565b6119998686868585612bee565b925050505b9392505050565b6001546001600160a01b03168063714ca2d1336040518263ffffffff1660e01b81526004016119d49190613fcc565b602060405180830381865afa1580156119f1573d6000803e3d6000fd5b505050506040513d601f19601f82011682018060405250810190611a1591906146bc565b611a315760405162461bcd60e51b815260040161077690614d80565b6000611a3b611072565b9050816001600160a01b0316631ff46bfa84611a58858786612f7d565b846040518463ffffffff1660e01b815260040161080a93929190614d90565b6000806000611a8560025490565b11905033611a968186868583612bee565b925050505b92915050565b600080611aac611072565b9050611ba581611ac46001546001600160a01b031690565b6001600160a01b03166318160ddd6040518163ffffffff1660e01b8152600401602060405180830381865afa158015611b01573d6000803e3d6000fd5b505050506040513d601f19601f82011682018060405250810190611b259190614b91565b6000546001600160a01b03166001600160a01b031663313ce5676040518163ffffffff1660e01b8152600401602060405180830381865afa158015611b6e573d6000803e3d6000fd5b505050506040513d601f19601f82011682018060405250810190611b929190614dbf565b611ba09060ff16600a614eee565b613111565b91505090565b6060611bb633611df3565b7f00000000000000000000000000000000000000000000000000000000000000006001600160a01b0316638c500ea386868686604051611bf7929190614f10565b6040519081900381206001600160e01b031960e086901b168252611c1f939291600401614f2d565b602060405180830381865afa158015611c3c573d6000803e3d6000fd5b505050506040513d601f19601f82011682018060405250810190611c6091906146bc565b611c7c5760405162461bcd60e51b815260040161077690614f7a565b6001546001600160a01b03166001600160a01b031663a90cce4b86868686604051602001611cac93929190614f8a565b6040516020818303038152906040526040518363ffffffff1660e01b8152600401611cd8929190614fb0565b6000604051808303816000875af1158015611cf7573d6000803e3d6000fd5b505050506040513d6000823e601f3d908101601f19168201604052611d1f919081019061505a565b90505b949350505050565b611d45611d3f6001546001600160a01b031690565b82611d92565b50565b336001600160a01b037f00000000000000000000000000000000000000000000000000000000000000001614611d905760405162461bcd60e51b8152600401610776906150c8565b565b6001600160a01b038116600090815260036020526040902054801580611dc35750600254611dc082426150d8565b10155b80611dd25750611dd28361313f565b611dee5760405162461bcd60e51b81526004016107769061511f565b505050565b6001546001600160a01b03166001600160a01b031663893d20e86040518163ffffffff1660e01b8152600401602060405180830381865afa158015611e3c573d6000803e3d6000fd5b505050506040513d601f19601f82011682018060405250810190611e60919061512f565b6001600160a01b0316816001600160a01b031614611d455760405162461bcd60e51b815260040161077690615184565b600154600160a81b900460ff1615611d905760405162461bcd60e51b8152600401610776906151b6565b60006001825111611ecd57506001919050565b815160005b81811015611f6d576000611ee7826001614be6565b90505b82811015611f5a57848181518110611f0457611f046141e2565b60200260200101516001600160a01b0316858381518110611f2757611f276141e2565b60200260200101516001600160a01b031603611f4857506000949350505050565b80611f528161420e565b915050611eea565b5080611f658161420e565b915050611ed2565b5060019392505050565b600080611f848787611d92565b6040516370a0823160e01b815287906000906001600160a01b038316906370a0823190611fb5908b90600401613fcc565b602060405180830381865afa158015611fd2573d6000803e3d6000fd5b505050506040513d601f19601f82011682018060405250810190611ff69190614b91565b905060001987036120095780935061200d565b8693505b6000841161202d5760405162461bcd60e51b81526004016107769061520b565b61203988858888613262565b6040516370a0823160e01b81526000906001600160a01b038416906370a0823190612068908c90600401613fcc565b602060405180830381865afa158015612085573d6000803e3d6000fd5b505050506040513d601f19601f820116820180604052508101906120a99190614b91565b905060001988036120bc578094506120db565b818110156120db576120ce81836150d8565b6120d890866150d8565b94505b896001600160a01b031663d5c20fa26040518163ffffffff1660e01b8152600401600060405180830381600087803b15801561211657600080fd5b505af115801561212a573d6000803e3d6000fd5b505050506000861180156121475750600154600160a01b900460ff165b15612156576121568a87613394565b826001600160a01b03166318160ddd6040518163ffffffff1660e01b8152600401602060405180830381865afa158015612194573d6000803e3d6000fd5b505050506040513d601f19601f820116820180604052508101906121b89190614b91565b604051633b9e9f0160e21b81529094506001600160a01b038b169063ee7a7c04906121e9908c90899060040161521b565b600060405180830381600087803b15801561220357600080fd5b505af1158015612217573d6000803e3d6000fd5b505050505050509550959350505050565b6060600061223e6000546001600160a01b031690565b90506000866001600160401b0381111561225a5761225a614a41565b604051908082528060200260200182016040528015612283578160200160208202803683370190505b50925060005b878110156124e3578686828181106122a3576122a36141e2565b90506020020135826122b59190614be6565b915061aaaa8989838181106122cc576122cc6141e2565b90506020020160208101906122e19190614057565b6001600160a01b0316146124d1577f00000000000000000000000000000000000000000000000000000000000000006001600160a01b0316634c67e106846127108a8a86818110612334576123346141e2565b90506020020135896123469190614522565b6123509190614557565b8c8c86818110612362576123626141e2565b90506020020160208101906123779190614057565b6040518463ffffffff1660e01b815260040161239593929190615236565b6020604051808303816000875af11580156123b4573d6000803e3d6000fd5b505050506040513d601f19601f820116820180604052508101906123d89190614b91565b8482815181106123ea576123ea6141e2565b602002602001018181525050600084828151811061240a5761240a6141e2565b60200260200101511161242f5760405162461bcd60e51b8152600401610776906152b8565b8a6001600160a01b031663495d753c8a8a84818110612450576124506141e2565b90506020020160208101906124659190614057565b8c878581518110612478576124786141e2565b60200260200101516040518463ffffffff1660e01b815260040161249e939291906143e3565b600060405180830381600087803b1580156124b857600080fd5b505af11580156124cc573d6000803e3d6000fd5b505050505b806124db8161420e565b915050612289565b5061271081146125055760405162461bcd60e51b815260040161077690615322565b50505b979650505050505050565b7f00000000000000000000000000000000000000000000000000000000000000006001600160a01b0316630442bad530600389898989898960405160200161256096959493929190615332565b6040516020818303038152906040526040518463ffffffff1660e01b815260040161258d93929190614439565b600060405180830381600087803b1580156125a757600080fd5b505af11580156125bb573d6000803e3d6000fd5b50505050505050505050565b6125d76104e16020830183614057565b156125f45760405162461bcd60e51b8152600401610776906153ce565b6001600460006126076020850185614057565b6001600160a01b03168152602080820192909252604001600020805460ff19169215159290921790915560059061264090830183614057565b815460018101835560009283526020928390200180546001600160a01b0319166001600160a01b039290921691909117905561267e90820182614057565b6001600160a01b03166389cbe1d06126996020840184614721565b6040518363ffffffff1660e01b81526004016126b692919061477f565b600060405180830381600087803b1580156126d057600080fd5b505af11580156126e4573d6000803e3d6000fd5b506126f6925050506020820182614057565b6001600160a01b03167fa161618d5504469735e28d741f7d53a9b5e7872613e35481e2b6c4540e2e59aa61272d6020840184614721565b60405161273b92919061477f565b60405180910390a250565b6000806000836001600160a01b03166380daddb86040518163ffffffff1660e01b81526004016000604051808303816000875af115801561278b573d6000803e3d6000fd5b505050506040513d6000823e601f3d908101601f191682016040526127b39190810190615453565b9150915060006127e07f000000000000000000000000000000000000000000000000000000000000000090565b6001600160a01b031663ae6f52ad84846128026000546001600160a01b031690565b6040518463ffffffff1660e01b815260040161282093929190614bb2565b6020604051808303816000875af115801561283f573d6000803e3d6000fd5b505050506040513d601f19601f820116820180604052508101906128639190614b91565b9050600080866001600160a01b031663ecd658b46040518163ffffffff1660e01b81526004016000604051808303816000875af11580156128a8573d6000803e3d6000fd5b505050506040513d6000823e601f3d908101601f191682016040526128d09190810190615453565b9150915060006128fd7f000000000000000000000000000000000000000000000000000000000000000090565b6001600160a01b031663ae6f52ad848461291f6000546001600160a01b031690565b6040518463ffffffff1660e01b815260040161293d93929190614bb2565b6020604051808303816000875af115801561295c573d6000803e3d6000fd5b505050506040513d601f19601f820116820180604052508101906129809190614b91565b9050808411156129975761299481856150d8565b96505b505050505050919050565b606060006129b0858461351c565b905083516000036129c257905061199e565b600084516001600160401b038111156129dd576129dd614a41565b604051908082528060200260200182016040528015612a06578160200160208202803683370190505b5090506000805b8651811015612a8a57612a42878281518110612a2b57612a2b6141e2565b6020026020010151856136e590919063ffffffff16565b612a78576001838281518110612a5a57612a5a6141e2565b9115156020928302919091019091015281612a748161420e565b9250505b80612a828161420e565b915050612a0d565b5080600003612a9e5782935050505061199e565b808351612aab9190614be6565b6001600160401b03811115612ac257612ac2614a41565b604051908082528060200260200182016040528015612aeb578160200160208202803683370190505b50935060005b8351811015612b5057838181518110612b0c57612b0c6141e2565b6020026020010151858281518110612b2657612b266141e2565b6001600160a01b039092166020928302919091019091015280612b488161420e565b915050612af1565b50825160005b8751811015612be257838181518110612b7157612b716141e2565b602002602001015115612bd057878181518110612b9057612b906141e2565b6020026020010151868381518110612baa57612baa6141e2565b6001600160a01b039092166020928302919091019091015281612bcc8161420e565b9250505b80612bda8161420e565b915050612b56565b50505050509392505050565b6000612bf8611e90565b6001805460ff60a81b1916600160a81b17905583612c285760405162461bcd60e51b815260040161077690615500565b6000612c3c6001546001600160a01b031690565b9050831580612c515750612c4f8161313f565b155b612c6d5760405162461bcd60e51b81526004016107769061555e565b6000612c77611072565b9050612c8488888361374a565b816001600160a01b031663d5c20fa26040518163ffffffff1660e01b8152600401600060405180830381600087803b158015612cbf57600080fd5b505af1158015612cd3573d6000803e3d6000fd5b50505050612ceb60015460ff600160a01b9091041690565b15612cfa57612cfa8282613394565b6000612d19612d116000546001600160a01b031690565b86858b6137bc565b90506000612d5f83856001600160a01b03166318160ddd6040518163ffffffff1660e01b8152600401602060405180830381865afa158015611b01573d6000803e3d6000fd5b9050600081612d76670de0b6b3a764000085614522565b612d809190614557565b90506000856001600160a01b03166370a082318d6040518263ffffffff1660e01b8152600401612db09190613fcc565b602060405180830381865afa158015612dcd573d6000803e3d6000fd5b505050506040513d601f19601f82011682018060405250810190612df19190614b91565b6040516329460cc560e11b81529091506001600160a01b0387169063528c198a90612e22908f90869060040161521b565b600060405180830381600087803b158015612e3c57600080fd5b505af1158015612e50573d6000803e3d6000fd5b50505050612e608c8584886138c6565b80866001600160a01b03166370a082318e6040518263ffffffff1660e01b8152600401612e8d9190613fcc565b602060405180830381865afa158015612eaa573d6000803e3d6000fd5b505050506040513d601f19601f82011682018060405250810190612ece9190614b91565b612ed891906150d8565b965089871015612efa5760405162461bcd60e51b8152600401610776906155bc565b8815612f1c576001600160a01b038c1660009081526003602052604090204290555b8b6001600160a01b03167f849165c18b9d0fb161bcb145e4ab523d350e5c98f1dbbb1960331e7ee3ca676785848a604051612f5993929190614d90565b60405180910390a25050505050506001805460ff60a81b1916905595945050505050565b600080612f926000546001600160a01b031690565b9050600061303a84876001600160a01b03166318160ddd6040518163ffffffff1660e01b8152600401602060405180830381865afa158015612fd8573d6000803e3d6000fd5b505050506040513d601f19601f82011682018060405250810190612ffc9190614b91565b846001600160a01b031663313ce5676040518163ffffffff1660e01b8152600401602060405180830381865afa158015611b6e573d6000803e3d6000fd5b90506000670de0b6b3a76400006130518784614522565b61305b9190614557565b604051632633f08360e11b81529091506001600160a01b037f00000000000000000000000000000000000000000000000000000000000000001690634c67e106906130ce90869085907f000000000000000000000000000000000000000000000000000000000000000090600401615236565b6020604051808303816000875af11580156130ed573d6000803e3d6000fd5b505050506040513d601f19601f820116820180604052508101906125089190614b91565b60008260000361312257508061199e565b82613135670de0b6b3a764000086614522565b611d229190614557565b60405163d0449d3d60e01b81526000906001600160a01b037f0000000000000000000000000000000000000000000000000000000000000000169063d0449d3d9061318e908590600401613fcc565b602060405180830381865afa1580156131ab573d6000803e3d6000fd5b505050506040513d601f19601f820116820180604052508101906131cf91906146bc565b80611a9b5750604051636c579e5760e01b81526001600160a01b037f00000000000000000000000000000000000000000000000000000000000000001690636c579e5790613221908590600401613fcc565b602060405180830381865afa15801561323e573d6000803e3d6000fd5b505050506040513d601f19601f82011682018060405250810190611a9b91906146bc565b7f00000000000000000000000000000000000000000000000000000000000000006001600160a01b0316637759c16460038686866040516020016132a8939291906155cc565b604051602081830303815290604052846040518463ffffffff1660e01b81526004016132d693929190615622565b600060405180830381600087803b1580156132f057600080fd5b505af1925050508015613301575060015b61338e573d80801561332f576040519150601f19603f3d011682016040523d82523d6000602084013e613334565b606091505b50846001600160a01b03168160405161334d9190615673565b60405180910390207fb3ea7e5141baf21804d12f5a635e83e0cb869c8b06b88648364769f85aa73fc2866040516133849190613fda565b60405180910390a3505b50505050565b6040516370a0823160e01b81526000906001600160a01b038416906370a08231906133e3907f000000000000000000000000000000000000000000000000000000000000000090600401613fcc565b602060405180830381865afa158015613400573d6000803e3d6000fd5b505050506040513d601f19601f820116820180604052508101906134249190614b91565b90506000613433848385612f7d565b604051630ffa35fd60e11b81529091506001600160a01b03851690631ff46bfa9061346690859085908890600401614d90565b600060405180830381600087803b15801561348057600080fd5b505af1925050508015613491575060015b61338e573d8080156134bf576040519150601f19603f3d011682016040523d82523d6000602084013e6134c4565b606091505b50806040516134d39190615673565b60405180910390207f0917b727c8497d0fc305acafacb424e8c9b12715d2b9b19bee777ef9d134f08f84848760405161350e93929190614d90565b60405180910390a25061338e565b6060815160000361352e575081611a9b565b600083516001600160401b0381111561354957613549614a41565b604051908082528060200260200182016040528015613572578160200160208202803683370190505b50845190915060005b85518110156135f0576135a78587838151811061359a5761359a6141e2565b60200260200101516136e5565b156135de5760018382815181106135c0576135c06141e2565b91151560209283029190910190910152816135da8161567f565b9250505b806135e88161420e565b91505061357b565b5084518103613601578492506136dd565b80156136dd57806001600160401b0381111561361f5761361f614a41565b604051908082528060200260200182016040528015613648578160200160208202803683370190505b5092506000805b86518110156136da5783818151811061366a5761366a6141e2565b60200260200101516136c857868181518110613688576136886141e2565b60200260200101518583815181106136a2576136a26141e2565b6001600160a01b0390921660209283029190910190910152816136c48161420e565b9250505b806136d28161420e565b91505061364f565b50505b505092915050565b6000805b835181101561374057838181518110613704576137046141e2565b60200260200101516001600160a01b0316836001600160a01b03160361372e576001915050611a9b565b806137388161420e565b9150506136e9565b5060009392505050565b7f00000000000000000000000000000000000000000000000000000000000000006001600160a01b0316637759c1646001858560405160200161378e92919061521b565b604051602081830303815290604052846040518463ffffffff1660e01b815260040161080a93929190615622565b600080856001600160a01b03166370a08231856040518263ffffffff1660e01b81526004016137eb9190613fcc565b602060405180830381865afa158015613808573d6000803e3d6000fd5b505050506040513d601f19601f8201168201806040525081019061382c9190614b91565b90506138436001600160a01b038716868686613a2f565b6040516370a0823160e01b815281906001600160a01b038816906370a0823190613871908890600401613fcc565b602060405180830381865afa15801561388e573d6000803e3d6000fd5b505050506040513d601f19601f820116820180604052508101906138b29190614b91565b6138bc91906150d8565b9695505050505050565b60006138d28483614be6565b90507f00000000000000000000000000000000000000000000000000000000000000006001600160a01b0316637759c164600287878760405160200161391a93929190615696565b604051602081830303815290604052846040518463ffffffff1660e01b815260040161394893929190615622565b600060405180830381600087803b15801561396257600080fd5b505af1158015613976573d6000803e3d6000fd5b505050506139a17f000000000000000000000000000000000000000000000000000000000000000090565b6001600160a01b0316630442bad5306000888888876040516020016139c994939291906156a4565b6040516020818303038152906040526040518463ffffffff1660e01b81526004016139f693929190614439565b600060405180830381600087803b158015613a1057600080fd5b505af1158015613a24573d6000803e3d6000fd5b505050505050505050565b61338e8484848461338e846323b872dd60e01b858585604051602401613a57939291906143e3565b60408051601f198184030181529190526020810180516001600160e01b03166001600160e01b0319909316929092179091526000613ade826040518060400160405280602081526020017f5361666545524332303a206c6f772d6c6576656c2063616c6c206661696c6564815250856001600160a01b0316613b189092919063ffffffff16565b805190915015611dee5780806020019051810190613afc91906146bc565b611dee5760405162461bcd60e51b815260040161077690615720565b6060611d22848460008585600080866001600160a01b03168587604051613b3f9190615673565b60006040518083038185875af1925050503d8060008114613b7c576040519150601f19603f3d011682016040523d82523d6000602084013e613b81565b606091505b50915091506125088783838760608315613bcc578251600003613bc5576001600160a01b0385163b613bc55760405162461bcd60e51b815260040161077690615764565b5081611d22565b611d228383815115613be15781518083602001fd5b8060405162461bcd60e51b815260040161077691906141d1565b600b8110611d4557600080fd5b8035611a9b81613bfb565b60008083601f840112613c2857613c28600080fd5b5081356001600160401b03811115613c4257613c42600080fd5b602083019150836001820283011115613c5d57613c5d600080fd5b9250929050565b600080600060408486031215613c7c57613c7c600080fd5b6000613c888686613c08565b93505060208401356001600160401b03811115613ca757613ca7600080fd5b613cb386828701613c13565b92509250509250925092565b60006001600160a01b038216611a9b565b613cd981613cbf565b8114611d4557600080fd5b8035611a9b81613cd0565b80613cd9565b8035611a9b81613cef565b600080600060608486031215613d1857613d18600080fd5b6000613d248686613ce4565b9350506020613d3586828701613ce4565b9250506040613d4686828701613cf5565b9150509250925092565b801515613cd9565b8035611a9b81613d50565b600060208284031215613d7857613d78600080fd5b6000611d228484613d58565b60008083601f840112613d9957613d99600080fd5b5081356001600160401b03811115613db357613db3600080fd5b602083019150836020820283011115613c5d57613c5d600080fd5b60008060008060008060808789031215613dea57613dea600080fd5b6000613df68989613ce4565b9650506020613e0789828a01613cf5565b95505060408701356001600160401b03811115613e2657613e26600080fd5b613e3289828a01613d84565b945094505060608701356001600160401b03811115613e5357613e53600080fd5b613e5f89828a01613d84565b92509250509295509295509295565b805b82525050565b6000613e828383613e6e565b505060200190565b6000613e94825190565b80845260209384019383018060005b83811015613ec8578151613eb78882613e76565b975060208301925050600101613ea3565b509495945050505050565b6020808252810161199e8184613e8a565b60008060008060608587031215613efd57613efd600080fd5b6000613f098787613ce4565b9450506020613f1a87828801613cf5565b93505060408501356001600160401b03811115613f3957613f39600080fd5b613f4587828801613c13565b95989497509550505050565b600060a08284031215613f6657613f66600080fd5b50919050565b60008060408385031215613f8257613f82600080fd5b6000613f8e8585613ce4565b92505060208301356001600160401b03811115613fad57613fad600080fd5b613fb985828601613f51565b9150509250929050565b613e7081613cbf565b60208101611a9b8284613fc3565b60208101611a9b8284613e6e565b6000613e828383613fc3565b6000613ffe825190565b80845260209384019383018060005b83811015613ec85781516140218882613fe8565b97506020830192505060010161400d565b604080825281016140438185613ff4565b90508181036020830152611d228184613e8a565b60006020828403121561406c5761406c600080fd5b6000611d228484613ce4565b6020808252810161199e8184613ff4565b6000806000606084860312156140a1576140a1600080fd5b60006140ad8686613ce4565b9350506020613d3586828701613cf5565b801515613e70565b60208101611a9b82846140be565b6000602082840312156140e9576140e9600080fd5b6000611d228484613cf5565b6000806040838503121561410b5761410b600080fd5b60006141178585613cf5565b9250506020613fb985828601613cf5565b6001600160e01b03198116613cd9565b8035611a9b81614128565b6000806000806060858703121561415c5761415c600080fd5b60006141688787613ce4565b9450506020613f1a87828801614138565b60005b8381101561419457818101518382015260200161417c565b50506000910152565b60006141a7825190565b8084526020840193506141be818560208601614179565b601f19601f8201165b9093019392505050565b6020808252810161199e818461419d565b634e487b7160e01b600052603260045260246000fd5b634e487b7160e01b600052601160045260246000fd5b60006000198203614221576142216141f8565b5060010190565b602c81526000602082017f7065726d697373696f6e65645661756c74416374696f6e3a20556e617574686f81526b3934bd32b21031b0b63632b960a11b602082015291505b5060400190565b60208082528101611a9b81614228565b634e487b7160e01b600052602160045260246000fd5b603a81526000602082017f7065726d697373696f6e65645661756c74416374696f6e3a2043616e6e6f742081527f756e747261636b2064656e6f6d696e6174696f6e2061737365740000000000006020820152915061426d565b60208082528101611a9b8161429a565b600b8110611d4557611d45614284565b8061431e81614304565b919050565b6000611a9b82614314565b613e7081614323565b82818337506000910152565b8183526000602084019350614359838584614337565b601f19601f8401166141c7565b60408101614374828661432e565b8181036020830152611d1f818486614343565b602f81526000602082017f7072655472616e73666572536861726573486f6f6b3a204f6e6c79205661756c81526e7450726f78792063616c6c61626c6560881b6020820152915061426d565b60208082528101611a9b81614387565b606081016143f18286613fc3565b6143fe6020830185613fc3565b611d226040830184613e6e565b600a8110611d4557611d45614284565b8061431e8161440b565b6000611a9b8261441b565b613e7081614425565b606081016144478286613fc3565b6144546020830185614430565b8181036040830152611d1f818461419d565b602d81526000602082017f72656465656d536861726573466f7253706563696669634173736574733a205581526c6e657175616c2061727261797360981b6020820152915061426d565b60208082528101611a9b81614466565b603581526000602082017f72656465656d536861726573466f7253706563696669634173736574733a20448152741d5c1b1a58d85d19481c185e5bdd5d08185cdcd95d605a1b6020820152915061426d565b60208082528101611a9b816144c0565b81810280821583820485141761453a5761453a6141f8565b5092915050565b634e487b7160e01b600052601260045260246000fd5b60008261456657614566614541565b500490565b600061199e6020840184613ce4565b8183526000602084019350818060005b85811015613ec85761459c828461456b565b6145a68882613fe8565b97506020830192505060010161458a565b606081016145c58287613e6e565b81810360208301526145d881858761457a565b905081810360408301526138bc8184613e8a565b602381526000602082017f63616c6c4f6e457874656e73696f6e3a205f657874656e73696f6e20696e76618152621b1a5960ea1b6020820152915061426d565b60208082528101611a9b816145ec565b6060810161464a8287613fc3565b6146576020830186613e6e565b81810360408301526138bc818486614343565b601981526000602082017f696e69743a20416c726561647920696e697469616c697a656400000000000000815291505b5060200190565b60208082528101611a9b8161466a565b8051611a9b81613d50565b6000602082840312156146d1576146d1600080fd5b6000611d2284846146b1565b601c81526000602082017f696e69743a204261642064656e6f6d696e6174696f6e206173736574000000008152915061469a565b60208082528101611a9b816146dd565b6000808335601e193685900301811261473c5761473c600080fd5b8084019250823591506001600160401b0382111561475c5761475c600080fd5b60208301925060018202360383131561477757614777600080fd5b509250929050565b60208082528101611d22818486614343565b6000808335601e19368590030181126147ac576147ac600080fd5b8084019250823591506001600160401b038211156147cc576147cc600080fd5b6020928301928202360383131561477757614777600080fd5b60008235603e19368490030181126147ff576147ff600080fd5b9190910192915050565b600061199e6020840184613cf5565b6000808335601e193685900301811261483357614833600080fd5b8381016020810193503591506001600160401b0382111561485657614856600080fd5b3682900383131561477757614777600080fd5b6000808335601e193685900301811261488457614884600080fd5b8381016020810193503591506001600160401b038211156148a7576148a7600080fd5b60208202360383131561477757614777600080fd5b6000604083016148cc838061456b565b6148d68582613fc3565b506148e46020840184614818565b85830360208701526138bc838284614343565b600061199e83836148bc565b60008235603e193684900301811261491d5761491d600080fd5b90910192915050565b818352600060208401935083602084028101838060005b878110156149765784840389526149548284614903565b61495e85826148f7565b94506020830160209a909a019992505060010161493d565b5091979650505050505050565b600060a08301614993838061456b565b61499d8582613fc3565b506149ab6020840184614809565b6149b86020860182613e6e565b506149c66040840184614818565b85830360408701526149d9838284614343565b925050506149ea6060840184614818565b85830360608701526149fd838284614343565b92505050614a0e6080840184614869565b85830360808701526138bc838284614926565b60408101614a2f8285613fc3565b8181036020830152611d228184614983565b634e487b7160e01b600052604160045260246000fd5b601f19601f83011681018181106001600160401b0382111715614a7c57614a7c614a41565b6040525050565b6000614a8e60405190565b905061431e8282614a57565b60006001600160401b03821115614ab357614ab3614a41565b5060209081020190565b8051611a9b81613cd0565b6000614adb614ad684614a9a565b614a83565b83815290506020808201908402830185811115614afa57614afa600080fd5b835b81811015614b1e5780614b0f8882614abd565b84525060209283019201614afc565b5050509392505050565b600082601f830112614b3c57614b3c600080fd5b8151611d22848260208601614ac8565b600060208284031215614b6157614b61600080fd5b81516001600160401b03811115614b7a57614b7a600080fd5b611d2284828501614b28565b8051611a9b81613cef565b600060208284031215614ba657614ba6600080fd5b6000611d228484614b86565b60608082528101614bc38186613ff4565b90508181036020830152614bd78185613e8a565b9050611d226040830184613fc3565b80820180821115611a9b57611a9b6141f8565b603981526000602082017f72656465656d536861726573496e4b696e643a205f6164646974696f6e616c4181527f737365747320636f6e7461696e73206475706c696361746573000000000000006020820152915061426d565b60208082528101611a9b81614bf9565b603581526000602082017f72656465656d536861726573496e4b696e643a205f617373657473546f536b698152747020636f6e7461696e73206475706c69636174657360581b6020820152915061426d565b60208082528101611a9b81614c63565b60608101614cd38286613e6e565b8181036020830152614ce58185613ff4565b90508181036040830152611d1f8184613e8a565b601f81526000602082017f6275795368617265734f6e426568616c663a20556e617574686f72697a6564008152915061469a565b60208082528101611a9b81614cf9565b602681526000602082017f6275794261636b50726f746f636f6c4665655368617265733a20556e617574688152651bdc9a5e995960d21b6020820152915061426d565b60208082528101611a9b81614d3d565b60608101614d9e8286613e6e565b6143fe6020830185613e6e565b60ff8116613cd9565b8051611a9b81614dab565b600060208284031215614dd457614dd4600080fd5b6000611d228484614db4565b80825b6001851115614e1f57808604811115614dfe57614dfe6141f8565b6001851615614e0c57908102905b8002614e188560011c90565b9450614de3565b94509492505050565b600082614e375750600161199e565b81614e445750600061199e565b8160018114614e5a5760028114614e6457614e91565b600191505061199e565b60ff841115614e7557614e756141f8565b8360020a915084821115614e8b57614e8b6141f8565b5061199e565b5060208310610133831016604e8410600b8410161715614ec4575081810a83811115614ebf57614ebf6141f8565b61199e565b614ed18484846001614de0565b92509050818404811115614ee757614ee76141f8565b0292915050565b600061199e6000198484614e28565b6000614f0a838584614337565b50500190565b6000611d22828486614efd565b6001600160e01b03198116613e70565b60608101614f3b8286613fc3565b6143fe6020830185614f1d565b60208082527f7661756c7443616c6c4f6e436f6e74726163743a204e6f7420616c6c6f7765649101908152600061469a565b60208082528101611a9b81614f48565b6000614f968286614f1d565b600482019150614fa7828486614efd565b95945050505050565b60408101614fbe8285613fc3565b8181036020830152611d22818461419d565b60006001600160401b03821115614fe957614fe9614a41565b601f19601f83011660200192915050565b6000615008614ad684614fd0565b90508281526020810184848401111561502357615023600080fd5b61502e848285614179565b509392505050565b600082601f83011261504a5761504a600080fd5b8151611d22848260208601614ffa565b60006020828403121561506f5761506f600080fd5b81516001600160401b0381111561508857615088600080fd5b611d2284828501615036565b601a81526000602082017f4f6e6c792046756e644465706c6f7965722063616c6c61626c650000000000008152915061469a565b60208082528101611a9b81615094565b81810381811115611a9b57611a9b6141f8565b601881526000602082017f53686172657320616374696f6e2074696d656c6f636b656400000000000000008152915061469a565b60208082528101611a9b816150eb565b60006020828403121561514457615144600080fd5b6000611d228484614abd565b601881526000602082017f4f6e6c792066756e64206f776e65722063616c6c61626c6500000000000000008152915061469a565b60208082528101611a9b81615150565b600b81526000602082016a52652d656e7472616e636560a81b8152915061469a565b60208082528101611a9b81615194565b602881526000602082017f5f5f72656465656d53686172657353657475703a204e6f2073686172657320748152676f2072656465656d60c01b6020820152915061426d565b60208082528101611a9b816151c6565b604081016152298285613fc3565b61199e6020830184613e6e565b606081016152448286613fc3565b6152516020830185613e6e565b611d226040830184613fc3565b603881526000602082017f5f5f7061796f7574537065636966696564417373657450657263656e7461676581527f733a205a65726f20616d6f756e7420666f7220617373657400000000000000006020820152915061426d565b60208082528101611a9b8161525e565b603b81526000602082017f5f5f7061796f7574537065636966696564417373657450657263656e7461676581527f733a2050657263656e7473206d75737420746f74616c203130302500000000006020820152915061426d565b60208082528101611a9b816152c8565b60c081016153408289613fc3565b61534d6020830188613fc3565b61535a6040830187613e6e565b818103606083015261536c8186613ff4565b905081810360808301526153808185613e8a565b905061250860a0830184613e6e565b602281526000602082017f5f5f656e61626c65457874656e73696f6e3a20416c726561647920656e61626c815261195960f21b6020820152915061426d565b60208082528101611a9b8161538f565b60006153ec614ad684614a9a565b8381529050602080820190840283018581111561540b5761540b600080fd5b835b81811015614b1e57806154208882614b86565b8452506020928301920161540d565b600082601f83011261544357615443600080fd5b8151611d228482602086016153de565b6000806040838503121561546957615469600080fd5b82516001600160401b0381111561548257615482600080fd5b61548e85828601614b28565b92505060208301516001600160401b038111156154ad576154ad600080fd5b613fb98582860161542f565b602a81526000602082017f5f5f6275795368617265733a205f6d696e5368617265735175616e746974792081526906d757374206265203e360b41b6020820152915061426d565b60208082528101611a9b816154b9565b603181526000602082017f5f5f6275795368617265733a2050656e64696e67206d6967726174696f6e206f81527039103932b1b7b73334b3bab930ba34b7b760791b6020820152915061426d565b60208082528101611a9b81615510565b603181526000602082017f5f5f6275795368617265733a20536861726573207265636569766564203c205f8152706d696e5368617265735175616e7469747960781b6020820152915061426d565b60208082528101611a9b8161556e565b606081016155da8286613fc3565b6155e76020830185613e6e565b611d2260408301846140be565b60048110611d4557611d45614284565b8061431e816155f4565b6000611a9b82615604565b613e708161560e565b606081016156308286615619565b8181036020830152615642818561419d565b9050611d226040830184613e6e565b600061565b825190565b615669818560208601614179565b9290920192915050565b600061199e8284615651565b60008161568e5761568e6141f8565b506000190190565b60608101614d9e8286613fc3565b608081016156b28287613fc3565b6156bf6020830186613e6e565b6156cc6040830185613e6e565b614fa76060830184613e6e565b602a81526000602082017f5361666545524332303a204552433230206f7065726174696f6e20646964206e8152691bdd081cdd58d8d9595960b21b6020820152915061426d565b60208082528101611a9b816156d9565b601d81526000602082017f416464726573733a2063616c6c20746f206e6f6e2d636f6e74726163740000008152915061469a565b60208082528101611a9b8161573056","linkReferences":{}},"methodIdentifiers":{"activate()":"0f15f4c0","buyBackProtocolFeeShares(uint256)":"b10ea2b0","buyShares(uint256,uint256)":"beebc5da","buySharesOnBehalf(address,uint256,uint256)":"877fd894","calcGav()":"56cff99f","calcGrossShareValue()":"da72503c","callOnExtension(address,uint256,bytes)":"39bf70d1","deactivate()":"51b42b00","doesAutoProtocolFeeSharesBuyback()":"a01fd157","getDenominationAsset()":"e269c3d6","getDispatcher()":"ebb3d589","getExtensions()":"83b7db63","getFeeManager()":"f2d63826","getFundDeployer()":"97c0ac87","getLastSharesBoughtTimestampForAccount(address)":"7f20170d","getMlnToken()":"e70e605e","getPolicyManager()":"d44ad6cb","getProtocolFeeReserve()":"da41962e","getSharesActionTimelock()":"4da471b7","getValueInterpreter()":"875fb4b3","getVaultProxy()":"c9809187","getWethToken()":"4c252f91","init(address,(address,uint256,bytes,bytes,(address,bytes)[]))":"3e56e5e8","isExtension(address)":"f847ed48","permissionedVaultAction(uint8,bytes)":"10acd06d","preTransferSharesHook(address,address,uint256)":"12f20526","preTransferSharesHookFreelyTransferable(address)":"f9d5fe78","redeemSharesForSpecificAssets(address,uint256,address[],uint256[])":"3462fcc1","redeemSharesInKind(address,uint256,address[],address[])":"6af8e7eb","setAutoProtocolFeeSharesBuyback(bool)":"2dc7a3a0","vaultCallOnContract(address,bytes4,bytes)":"e572ced1"},"id":97}