{"abi":[{"type":"constructor","inputs":[{"name":"_policyManager","type":"address","internalType":"address"},{"name":"_addressListRegistry","type":"address","internalType":"address"},{"name":"_valueInterpreter","type":"address","internalType":"address"},{"name":"_wethToken","type":"address","internalType":"address"},{"name":"_bypassableAdaptersListId","type":"uint256","internalType":"uint256"},{"name":"_tolerancePeriodDuration","type":"uint256","internalType":"uint256"},{"name":"_pricelessAssetBypassTimelock","type":"uint256","internalType":"uint256"},{"name":"_pricelessAssetBypassTimeLimit","type":"uint256","internalType":"uint256"}],"stateMutability":"nonpayable"},{"type":"function","name":"activateForFund","inputs":[{"name":"","type":"address","internalType":"address"}],"outputs":[],"stateMutability":"nonpayable"},{"type":"function","name":"addFundSettings","inputs":[{"name":"_comptrollerProxy","type":"address","internalType":"address"},{"name":"_encodedSettings","type":"bytes","internalType":"bytes"}],"outputs":[],"stateMutability":"nonpayable"},{"type":"function","name":"assetIsBypassableForFund","inputs":[{"name":"_comptrollerProxy","type":"address","internalType":"address"},{"name":"_asset","type":"address","internalType":"address"}],"outputs":[{"name":"isBypassable_","type":"bool","internalType":"bool"}],"stateMutability":"view"},{"type":"function","name":"canDisable","inputs":[],"outputs":[{"name":"canDisable_","type":"bool","internalType":"bool"}],"stateMutability":"pure"},{"type":"function","name":"getAddressListRegistry","inputs":[],"outputs":[{"name":"addressListRegistry_","type":"address","internalType":"address"}],"stateMutability":"view"},{"type":"function","name":"getAssetBypassWindowStartForFund","inputs":[{"name":"_comptrollerProxy","type":"address","internalType":"address"},{"name":"_asset","type":"address","internalType":"address"}],"outputs":[{"name":"windowStart_","type":"uint256","internalType":"uint256"}],"stateMutability":"view"},{"type":"function","name":"getBypassableAdaptersListId","inputs":[],"outputs":[{"name":"bypassableAdaptersListId_","type":"uint256","internalType":"uint256"}],"stateMutability":"view"},{"type":"function","name":"getPolicyInfoForFund","inputs":[{"name":"_comptrollerProxy","type":"address","internalType":"address"}],"outputs":[{"name":"policyInfo_","type":"tuple","internalType":"struct CumulativeSlippageTolerancePolicy.PolicyInfo","components":[{"name":"tolerance","type":"uint64","internalType":"uint64"},{"name":"cumulativeSlippage","type":"uint64","internalType":"uint64"},{"name":"lastSlippageTimestamp","type":"uint128","internalType":"uint128"}]}],"stateMutability":"view"},{"type":"function","name":"getPolicyManager","inputs":[],"outputs":[{"name":"policyManager_","type":"address","internalType":"address"}],"stateMutability":"view"},{"type":"function","name":"getPricelessAssetBypassTimeLimit","inputs":[],"outputs":[{"name":"timeLimit_","type":"uint256","internalType":"uint256"}],"stateMutability":"view"},{"type":"function","name":"getPricelessAssetBypassTimelock","inputs":[],"outputs":[{"name":"timelock_","type":"uint256","internalType":"uint256"}],"stateMutability":"view"},{"type":"function","name":"getPricelessAssetBypassValueInterpreter","inputs":[],"outputs":[{"name":"valueInterpreter_","type":"address","internalType":"address"}],"stateMutability":"view"},{"type":"function","name":"getPricelessAssetBypassWethToken","inputs":[],"outputs":[{"name":"wethToken_","type":"address","internalType":"address"}],"stateMutability":"view"},{"type":"function","name":"getTolerancePeriodDuration","inputs":[],"outputs":[{"name":"tolerancePeriodDuration_","type":"uint256","internalType":"uint256"}],"stateMutability":"view"},{"type":"function","name":"identifier","inputs":[],"outputs":[{"name":"identifier_","type":"string","internalType":"string"}],"stateMutability":"pure"},{"type":"function","name":"implementedHooks","inputs":[],"outputs":[{"name":"implementedHooks_","type":"uint8[]","internalType":"enum IPolicyManager.PolicyHook[]"}],"stateMutability":"pure"},{"type":"function","name":"startAssetBypassTimelock","inputs":[{"name":"_asset","type":"address","internalType":"address"}],"outputs":[],"stateMutability":"nonpayable"},{"type":"function","name":"updateFundSettings","inputs":[{"name":"","type":"address","internalType":"address"},{"name":"","type":"bytes","internalType":"bytes"}],"outputs":[],"stateMutability":"nonpayable"},{"type":"function","name":"validateRule","inputs":[{"name":"_comptrollerProxy","type":"address","internalType":"address"},{"name":"","type":"uint8","internalType":"enum IPolicyManager.PolicyHook"},{"name":"_encodedArgs","type":"bytes","internalType":"bytes"}],"outputs":[{"name":"isValid_","type":"bool","internalType":"bool"}],"stateMutability":"nonpayable"},{"type":"event","name":"CumulativeSlippageUpdatedForFund","inputs":[{"name":"comptrollerProxy","type":"address","indexed":true,"internalType":"address"},{"name":"nextCumulativeSlippage","type":"uint256","indexed":false,"internalType":"uint256"}],"anonymous":false},{"type":"event","name":"FundSettingsSet","inputs":[{"name":"comptrollerProxy","type":"address","indexed":true,"internalType":"address"},{"name":"tolerance","type":"uint256","indexed":false,"internalType":"uint256"}],"anonymous":false},{"type":"event","name":"PricelessAssetBypassed","inputs":[{"name":"comptrollerProxy","type":"address","indexed":true,"internalType":"address"},{"name":"asset","type":"address","indexed":true,"internalType":"address"}],"anonymous":false},{"type":"event","name":"PricelessAssetTimelockStarted","inputs":[{"name":"comptrollerProxy","type":"address","indexed":true,"internalType":"address"},{"name":"asset","type":"address","indexed":true,"internalType":"address"}],"anonymous":false}],"bytecode":{"object":"0x6101806040523480156200001257600080fd5b506040516200287a3803806200287a83398181016040528101906200003891906200017e565b858583838b8073ffffffffffffffffffffffffffffffffffffffff1660808173ffffffffffffffffffffffffffffffffffffffff1660601b81525050508160a081815250508060c081815250508373ffffffffffffffffffffffffffffffffffffffff1660e08173ffffffffffffffffffffffffffffffffffffffff1660601b815250508273ffffffffffffffffffffffffffffffffffffffff166101008173ffffffffffffffffffffffffffffffffffffffff1660601b81525050505050508673ffffffffffffffffffffffffffffffffffffffff166101208173ffffffffffffffffffffffffffffffffffffffff1660601b815250508361014081815250508261016081815250505050505050505050620002b3565b60008151905062000161816200027f565b92915050565b600081519050620001788162000299565b92915050565b600080600080600080600080610100898b0312156200019c57600080fd5b6000620001ac8b828c0162000150565b9850506020620001bf8b828c0162000150565b9750506040620001d28b828c0162000150565b9650506060620001e58b828c0162000150565b9550506080620001f88b828c0162000167565b94505060a06200020b8b828c0162000167565b93505060c06200021e8b828c0162000167565b92505060e0620002318b828c0162000167565b9150509295985092959890939650565b60006200024e8262000255565b9050919050565b600073ffffffffffffffffffffffffffffffffffffffff82169050919050565b6000819050919050565b6200028a8162000241565b81146200029657600080fd5b50565b620002a48162000275565b8114620002b057600080fd5b50565b60805160601c60a05160c05160e05160601c6101005160601c6101205160601c61014051610160516125536200032760003980610ea2525080610ef2525080610d4f5250806109b752508061098a525080610db45250806109df52508061071d5280610a075280610eca52506125536000f3fe608060405234801561001057600080fd5b50600436106101215760003560e01c80635da4cdb2116100ad578063cbf54bb211610071578063cbf54bb21461030c578063ceb9a0ad1461032a578063cf09a09214610346578063d44ad6cb14610364578063e09da6811461038257610121565b80635da4cdb21461025257806374708934146102825780637998a1c4146102a05780637fe29268146102be57806385d63ec9146102dc57610121565b80631ef92578116100f45780631ef9257814610198578063234dfb17146101b657806344105398146101d4578063579be718146101f25780635bbb869c1461022257610121565b806307d2890e146101265780630d4d7510146101425780630f5f6b4f1461015e57806314f8e6151461017a575b600080fd5b610140600480360381019061013b91906117de565b6103a0565b005b61015c6004803603810190610157919061196a565b6106e0565b005b6101786004803603810190610173919061196a565b61071b565b005b610182610986565b60405161018f9190611fe8565b60405180910390f35b6101a06109ae565b6040516101ad9190612093565b60405180910390f35b6101be6109b3565b6040516101cb9190611fe8565b60405180910390f35b6101dc6109db565b6040516101e9919061222b565b60405180910390f35b61020c600480360381019061020791906119c2565b610a03565b6040516102199190612093565b60405180910390f35b61023c600480360381019061023791906117de565b610bbe565b6040516102499190612210565b60405180910390f35b61026c6004803603810190610267919061192e565b610cc5565b604051610279919061222b565b60405180910390f35b61028a610d4b565b6040516102979190611fe8565b60405180910390f35b6102a8610d73565b6040516102b591906120ae565b60405180910390f35b6102c6610db0565b6040516102d3919061222b565b60405180910390f35b6102f660048036038101906102f1919061192e565b610dd8565b6040516103039190612093565b60405180910390f35b610314610e19565b6040516103219190612071565b60405180910390f35b610344600480360381019061033f91906117de565b610e9b565b005b61034e610e9e565b60405161035b919061222b565b60405180910390f35b61036c610ec6565b6040516103799190611fe8565b60405180910390f35b61038a610eee565b604051610397919061222b565b60405180910390f35b60003373ffffffffffffffffffffffffffffffffffffffff16635a53e3486040518163ffffffff1660e01b815260040160206040518083038186803b1580156103e857600080fd5b505afa1580156103fc573d6000803e3d6000fd5b505050506040513d601f19601f820116820180604052508101906104209190611807565b90508073ffffffffffffffffffffffffffffffffffffffff1663c98091876040518163ffffffff1660e01b815260040160206040518083038186803b15801561046857600080fd5b505afa15801561047c573d6000803e3d6000fd5b505050506040513d601f19601f820116820180604052508101906104a09190611807565b73ffffffffffffffffffffffffffffffffffffffff163373ffffffffffffffffffffffffffffffffffffffff161461050d576040517f08c379a0000000000000000000000000000000000000000000000000000000008152600401610504906121f0565b60405180910390fd5b610515610986565b73ffffffffffffffffffffffffffffffffffffffff16634c67e10683600161053b6109b3565b6040518463ffffffff1660e01b815260040161055993929190612003565b602060405180830381600087803b15801561057357600080fd5b505af19250505080156105a457506040513d601f19601f820116820180604052508101906105a19190611a57565b60015b6106a0576105c26105b36109db565b42610f1690919063ffffffff16565b6000808373ffffffffffffffffffffffffffffffffffffffff1673ffffffffffffffffffffffffffffffffffffffff16815260200190815260200160002060008473ffffffffffffffffffffffffffffffffffffffff1673ffffffffffffffffffffffffffffffffffffffff168152602001908152602001600020819055508173ffffffffffffffffffffffffffffffffffffffff168173ffffffffffffffffffffffffffffffffffffffff167f76fadd0d061c0fa0e079ec4814cecf7f5f6f43e604f241551dd35b6c3c9a698060405160405180910390a36106dc565b506040517f08c379a00000000000000000000000000000000000000000000000000000000081526004016106d390612150565b60405180910390fd5b5050565b6040517f08c379a0000000000000000000000000000000000000000000000000000000008152600401610712906120f0565b60405180910390fd5b7f000000000000000000000000000000000000000000000000000000000000000073ffffffffffffffffffffffffffffffffffffffff163373ffffffffffffffffffffffffffffffffffffffff16146107a9576040517f08c379a00000000000000000000000000000000000000000000000000000000081526004016107a0906121b0565b60405180910390fd5b600082828101906107ba9190611a80565b9050670de0b6b3a76400008167ffffffffffffffff1610610810576040517f08c379a000000000000000000000000000000000000000000000000000000000815260040161080790612170565b60405180910390fd5b60405180606001604052808267ffffffffffffffff168152602001600067ffffffffffffffff16815260200160006fffffffffffffffffffffffffffffffff16815250600160008673ffffffffffffffffffffffffffffffffffffffff1673ffffffffffffffffffffffffffffffffffffffff16815260200190815260200160002060008201518160000160006101000a81548167ffffffffffffffff021916908367ffffffffffffffff16021790555060208201518160000160086101000a81548167ffffffffffffffff021916908367ffffffffffffffff16021790555060408201518160000160106101000a8154816fffffffffffffffffffffffffffffffff02191690836fffffffffffffffffffffffffffffffff1602179055509050508373ffffffffffffffffffffffffffffffffffffffff167f27abf63785bf8ff6d81b909a910422392df35bed801ecf834d5b60c8e72b859482604051610978919061226f565b60405180910390a250505050565b60007f0000000000000000000000000000000000000000000000000000000000000000905090565b600090565b60007f0000000000000000000000000000000000000000000000000000000000000000905090565b60007f0000000000000000000000000000000000000000000000000000000000000000905090565b60007f000000000000000000000000000000000000000000000000000000000000000073ffffffffffffffffffffffffffffffffffffffff163373ffffffffffffffffffffffffffffffffffffffff1614610a93576040517f08c379a0000000000000000000000000000000000000000000000000000000008152600401610a8a906121b0565b60405180910390fd5b6000606080606080610ae888888080601f016020809104026020016040519081016040528093929190818152602001838380828437600081840152601f19601f82011690508083019250505050505050610f6b565b965096509650965050955050610afd85610fa3565b15610b1057600195505050505050610bb6565b6000610b1f8b86868686611045565b90506000811415610b395760019650505050505050610bb6565b6000600160008d73ffffffffffffffffffffffffffffffffffffffff1673ffffffffffffffffffffffffffffffffffffffff16815260200190815260200160002060000160009054906101000a900467ffffffffffffffff1667ffffffffffffffff16905080610baa8d84846110ed565b11159750505050505050505b949350505050565b610bc661159f565b600160008373ffffffffffffffffffffffffffffffffffffffff1673ffffffffffffffffffffffffffffffffffffffff1681526020019081526020016000206040518060600160405290816000820160009054906101000a900467ffffffffffffffff1667ffffffffffffffff1667ffffffffffffffff1681526020016000820160089054906101000a900467ffffffffffffffff1667ffffffffffffffff1667ffffffffffffffff1681526020016000820160109054906101000a90046fffffffffffffffffffffffffffffffff166fffffffffffffffffffffffffffffffff166fffffffffffffffffffffffffffffffff16815250509050919050565b60008060008473ffffffffffffffffffffffffffffffffffffffff1673ffffffffffffffffffffffffffffffffffffffff16815260200190815260200160002060008373ffffffffffffffffffffffffffffffffffffffff1673ffffffffffffffffffffffffffffffffffffffff16815260200190815260200160002054905092915050565b60007f0000000000000000000000000000000000000000000000000000000000000000905090565b60606040518060400160405280601d81526020017f43554d554c41544956455f534c4950504147455f544f4c4552414e4345000000815250905090565b60007f0000000000000000000000000000000000000000000000000000000000000000905090565b600080610de58484610cc5565b9050428111158015610e10575042610e0d610dfe610db0565b83610f1690919063ffffffff16565b10155b91505092915050565b6060600167ffffffffffffffff81118015610e3357600080fd5b50604051908082528060200260200182016040528015610e625781602001602082028036833780820191505090505b509050600181600081518110610e7457fe5b60200260200101906009811115610e8757fe5b90816009811115610e9457fe5b8152505090565b50565b60007f0000000000000000000000000000000000000000000000000000000000000000905090565b60007f0000000000000000000000000000000000000000000000000000000000000000905090565b60007f0000000000000000000000000000000000000000000000000000000000000000905090565b600080828401905083811015610f61576040517f08c379a0000000000000000000000000000000000000000000000000000000008152600401610f58906120d0565b60405180910390fd5b8091505092915050565b600080600060608060608087806020019051810190610f8a9190611830565b9650965096509650965096509650919395979092949650565b6000610fad610d4b565b73ffffffffffffffffffffffffffffffffffffffff16631c563204610fd0610eee565b846040518363ffffffff1660e01b8152600401610fee929190612246565b60206040518083038186803b15801561100657600080fd5b505afa15801561101a573d6000803e3d6000fd5b505050506040513d601f19601f8201168201806040525081019061103e9190611a2e565b9050919050565b60008061105b8785856110566109b3565b6112cd565b905060008114156110705760009150506110e4565b60006110858888886110806109b3565b6112cd565b9050808211156110dd5760006110a4828461133690919063ffffffff16565b90506110d3836110c5670de0b6b3a76400008461138690919063ffffffff16565b6113f690919063ffffffff16565b93505050506110e4565b6000925050505b95945050505050565b600080600160008673ffffffffffffffffffffffffffffffffffffffff1673ffffffffffffffffffffffffffffffffffffffff16815260200190815260200160002090508060000160089054906101000a900467ffffffffffffffff1667ffffffffffffffff16915060008211156111fc5760006111d161116c610e9e565b6111c36111b48560000160109054906101000a90046fffffffffffffffffffffffffffffffff166fffffffffffffffffffffffffffffffff164261133690919063ffffffff16565b8761138690919063ffffffff16565b6113f690919063ffffffff16565b9050828110156111f5576111ee818461133690919063ffffffff16565b92506111fa565b600092505b505b61120f8483610f1690919063ffffffff16565b9150818160000160086101000a81548167ffffffffffffffff021916908367ffffffffffffffff160217905550428160000160106101000a8154816fffffffffffffffffffffffffffffffff02191690836fffffffffffffffffffffffffffffffff1602179055508473ffffffffffffffffffffffffffffffffffffffff167f4f2b5515347f3a595b0228c4e8afea6d14c5f08c4038241a43473ea876f62739836040516112bd919061222b565b60405180910390a2509392505050565b6000805b845181101561132d5761131e61130f878784815181106112ed57fe5b602002602001015187858151811061130157fe5b60200260200101518761144c565b83610f1690919063ffffffff16565b915080806001019150506112d1565b50949350505050565b60008282111561137b576040517f08c379a000000000000000000000000000000000000000000000000000000000815260040161137290612110565b60405180910390fd5b818303905092915050565b60008083141561139957600090506113f0565b60008284029050828482816113aa57fe5b04146113eb576040517f08c379a00000000000000000000000000000000000000000000000000000000081526004016113e290612190565b60405180910390fd5b809150505b92915050565b600080821161143a576040517f08c379a000000000000000000000000000000000000000000000000000000000815260040161143190612130565b60405180910390fd5b81838161144357fe5b04905092915050565b6000611456610986565b73ffffffffffffffffffffffffffffffffffffffff16634c67e1068585856040518463ffffffff1660e01b81526004016114929392919061203a565b602060405180830381600087803b1580156114ac57600080fd5b505af19250505080156114dd57506040513d601f19601f820116820180604052508101906114da9190611a57565b60015b611589576114eb8585610dd8565b61152a576040517f08c379a0000000000000000000000000000000000000000000000000000000008152600401611521906121d0565b60405180910390fd5b8373ffffffffffffffffffffffffffffffffffffffff168573ffffffffffffffffffffffffffffffffffffffff167fa2de3d3e85d58ec3c62bcbd0a67a60fac9f9002f6e70cfe768a49fa19d7dcf4660405160405180910390a3611592565b80915050611597565b600090505b949350505050565b6040518060600160405280600067ffffffffffffffff168152602001600067ffffffffffffffff16815260200160006fffffffffffffffffffffffffffffffff1681525090565b6000813590506115f5816124ac565b92915050565b60008151905061160a816124ac565b92915050565b60008151905061161f816124c3565b92915050565b600082601f83011261163657600080fd5b8151611649611644826122b7565b61228a565b9150818183526020840193506020810190508385602084028201111561166e57600080fd5b60005b8381101561169e578161168488826115fb565b845260208401935060208301925050600181019050611671565b5050505092915050565b600082601f8301126116b957600080fd5b81516116cc6116c7826122df565b61228a565b915081818352602084019350602081019050838560208402820111156116f157600080fd5b60005b83811015611721578161170788826117b4565b8452602084019350602083019250506001810190506116f4565b5050505092915050565b60008151905061173a816124da565b92915050565b60008151905061174f816124f1565b92915050565b60008083601f84011261176757600080fd5b8235905067ffffffffffffffff81111561178057600080fd5b60208301915083600182028301111561179857600080fd5b9250929050565b6000813590506117ae81612508565b92915050565b6000815190506117c381612518565b92915050565b6000813590506117d88161252f565b92915050565b6000602082840312156117f057600080fd5b60006117fe848285016115e6565b91505092915050565b60006020828403121561181957600080fd5b6000611827848285016115fb565b91505092915050565b600080600080600080600060e0888a03121561184b57600080fd5b60006118598a828b01611610565b975050602061186a8a828b01611610565b965050604061187b8a828b01611740565b955050606088015167ffffffffffffffff81111561189857600080fd5b6118a48a828b01611625565b945050608088015167ffffffffffffffff8111156118c157600080fd5b6118cd8a828b016116a8565b93505060a088015167ffffffffffffffff8111156118ea57600080fd5b6118f68a828b01611625565b92505060c088015167ffffffffffffffff81111561191357600080fd5b61191f8a828b016116a8565b91505092959891949750929550565b6000806040838503121561194157600080fd5b600061194f858286016115e6565b9250506020611960858286016115e6565b9150509250929050565b60008060006040848603121561197f57600080fd5b600061198d868287016115e6565b935050602084013567ffffffffffffffff8111156119aa57600080fd5b6119b686828701611755565b92509250509250925092565b600080600080606085870312156119d857600080fd5b60006119e6878288016115e6565b94505060206119f78782880161179f565b935050604085013567ffffffffffffffff811115611a1457600080fd5b611a2087828801611755565b925092505092959194509250565b600060208284031215611a4057600080fd5b6000611a4e8482850161172b565b91505092915050565b600060208284031215611a6957600080fd5b6000611a77848285016117b4565b91505092915050565b600060208284031215611a9257600080fd5b6000611aa0848285016117c9565b91505092915050565b6000611ab58383611b3d565b60208301905092915050565b611aca8161235c565b82525050565b6000611adb82612317565b611ae5818561233a565b9350611af083612307565b8060005b83811015611b21578151611b088882611aa9565b9750611b138361232d565b925050600181019050611af4565b5085935050505092915050565b611b3781612380565b82525050565b611b4681612425565b82525050565b611b5581612437565b82525050565b6000611b6682612322565b611b70818561234b565b9350611b8081856020860161245b565b611b898161248e565b840191505092915050565b6000611ba1601b8361234b565b91507f536166654d6174683a206164646974696f6e206f766572666c6f7700000000006000830152602082019050919050565b6000611be160378361234b565b91507f75706461746546756e6453657474696e67733a2055706461746573206e6f742060008301527f616c6c6f77656420666f72207468697320706f6c6963790000000000000000006020830152604082019050919050565b6000611c47601e8361234b565b91507f536166654d6174683a207375627472616374696f6e206f766572666c6f7700006000830152602082019050919050565b6000611c87601a8361234b565b91507f536166654d6174683a206469766973696f6e206279207a65726f0000000000006000830152602082019050919050565b6000611cc7602b8361234b565b91507f7374617274417373657442797061737354696d656c6f636b3a2041737365742060008301527f68617320612070726963650000000000000000000000000000000000000000006020830152604082019050919050565b6000611d2d60278361234b565b91507f61646446756e6453657474696e67733a204d617820746f6c6572616e6365206560008301527f78636565646564000000000000000000000000000000000000000000000000006020830152604082019050919050565b6000611d9360218361234b565b91507f536166654d6174683a206d756c7469706c69636174696f6e206f766572666c6f60008301527f77000000000000000000000000000000000000000000000000000000000000006020830152604082019050919050565b6000611df960298361234b565b91507f4f6e6c792074686520506f6c6963794d616e616765722063616e206d616b652060008301527f746869732063616c6c00000000000000000000000000000000000000000000006020830152604082019050919050565b6000611e5f604a8361234b565b91507f5f5f63616c6356616c75654578636c7564696e6742797061737361626c65507260008301527f6963656c65737341737365743a20496e76616c6964206173736574206e6f742060208301527f62797061737361626c65000000000000000000000000000000000000000000006040830152606082019050919050565b6000611eeb60598361234b565b91507f7374617274417373657442797061737354696d656c6f636b3a2053656e64657260008301527f206973206e6f7420746865205661756c7450726f7879206f662074686520617360208301527f736f63696174656420436f6d7074726f6c6c657250726f7879000000000000006040830152606082019050919050565b606082016000820151611f806000850182611fd9565b506020820151611f936020850182611fd9565b506040820151611fa66040850182611fac565b50505050565b611fb5816123cb565b82525050565b611fc481612407565b82525050565b611fd381612449565b82525050565b611fe281612411565b82525050565b6000602082019050611ffd6000830184611ac1565b92915050565b60006060820190506120186000830186611ac1565b6120256020830185611b4c565b6120326040830184611ac1565b949350505050565b600060608201905061204f6000830186611ac1565b61205c6020830185611fbb565b6120696040830184611ac1565b949350505050565b6000602082019050818103600083015261208b8184611ad0565b905092915050565b60006020820190506120a86000830184611b2e565b92915050565b600060208201905081810360008301526120c88184611b5b565b905092915050565b600060208201905081810360008301526120e981611b94565b9050919050565b6000602082019050818103600083015261210981611bd4565b9050919050565b6000602082019050818103600083015261212981611c3a565b9050919050565b6000602082019050818103600083015261214981611c7a565b9050919050565b6000602082019050818103600083015261216981611cba565b9050919050565b6000602082019050818103600083015261218981611d20565b9050919050565b600060208201905081810360008301526121a981611d86565b9050919050565b600060208201905081810360008301526121c981611dec565b9050919050565b600060208201905081810360008301526121e981611e52565b9050919050565b6000602082019050818103600083015261220981611ede565b9050919050565b60006060820190506122256000830184611f6a565b92915050565b60006020820190506122406000830184611fbb565b92915050565b600060408201905061225b6000830185611fbb565b6122686020830184611ac1565b9392505050565b60006020820190506122846000830184611fca565b92915050565b6000604051905081810181811067ffffffffffffffff821117156122ad57600080fd5b8060405250919050565b600067ffffffffffffffff8211156122ce57600080fd5b602082029050602081019050919050565b600067ffffffffffffffff8211156122f657600080fd5b602082029050602081019050919050565b6000819050602082019050919050565b600081519050919050565b600081519050919050565b6000602082019050919050565b600082825260208201905092915050565b600082825260208201905092915050565b6000612367826123e7565b9050919050565b6000612379826123e7565b9050919050565b60008115159050919050565b60007fffffffff0000000000000000000000000000000000000000000000000000000082169050919050565b60008190506123c68261249f565b919050565b60006fffffffffffffffffffffffffffffffff82169050919050565b600073ffffffffffffffffffffffffffffffffffffffff82169050919050565b6000819050919050565b600067ffffffffffffffff82169050919050565b6000612430826123b8565b9050919050565b600061244282612407565b9050919050565b600061245482612411565b9050919050565b60005b8381101561247957808201518184015260208101905061245e565b83811115612488576000848401525b50505050565b6000601f19601f8301169050919050565b600a81106124a957fe5b50565b6124b58161235c565b81146124c057600080fd5b50565b6124cc8161236e565b81146124d757600080fd5b50565b6124e381612380565b81146124ee57600080fd5b50565b6124fa8161238c565b811461250557600080fd5b50565b600a811061251557600080fd5b50565b61252181612407565b811461252c57600080fd5b50565b61253881612411565b811461254357600080fd5b5056fea164736f6c634300060c000a","linkReferences":{}},"methodIdentifiers":{"activateForFund(address)":"ceb9a0ad","addFundSettings(address,bytes)":"0f5f6b4f","assetIsBypassableForFund(address,address)":"85d63ec9","canDisable()":"1ef92578","getAddressListRegistry()":"74708934","getAssetBypassWindowStartForFund(address,address)":"5da4cdb2","getBypassableAdaptersListId()":"e09da681","getPolicyInfoForFund(address)":"5bbb869c","getPolicyManager()":"d44ad6cb","getPricelessAssetBypassTimeLimit()":"7fe29268","getPricelessAssetBypassTimelock()":"44105398","getPricelessAssetBypassValueInterpreter()":"14f8e615","getPricelessAssetBypassWethToken()":"234dfb17","getTolerancePeriodDuration()":"cf09a092","identifier()":"7998a1c4","implementedHooks()":"cbf54bb2","startAssetBypassTimelock(address)":"07d2890e","updateFundSettings(address,bytes)":"0d4d7510","validateRule(address,uint8,bytes)":"579be718"},"id":256}