{"abi":[{"type":"constructor","inputs":[{"name":"_policyManager","type":"address","internalType":"address"},{"name":"_uintListRegistry","type":"address","internalType":"address"}],"stateMutability":"nonpayable"},{"type":"function","name":"BYPASS_FLAG","inputs":[],"outputs":[{"name":"","type":"uint256","internalType":"uint256"}],"stateMutability":"view"},{"type":"function","name":"activateForFund","inputs":[{"name":"","type":"address","internalType":"address"}],"outputs":[],"stateMutability":"nonpayable"},{"type":"function","name":"addFundSettings","inputs":[{"name":"_comptrollerProxy","type":"address","internalType":"address"},{"name":"_encodedSettings","type":"bytes","internalType":"bytes"}],"outputs":[],"stateMutability":"nonpayable"},{"type":"function","name":"canDisable","inputs":[],"outputs":[{"name":"canDisable_","type":"bool","internalType":"bool"}],"stateMutability":"pure"},{"type":"function","name":"getListIdsForFundAndUser","inputs":[{"name":"_comptrollerProxy","type":"address","internalType":"address"},{"name":"_user","type":"address","internalType":"address"}],"outputs":[{"name":"listIds_","type":"uint256[]","internalType":"uint256[]"}],"stateMutability":"view"},{"type":"function","name":"getPolicyManager","inputs":[],"outputs":[{"name":"policyManager_","type":"address","internalType":"address"}],"stateMutability":"view"},{"type":"function","name":"identifier","inputs":[],"outputs":[{"name":"identifier_","type":"string","internalType":"string"}],"stateMutability":"pure"},{"type":"function","name":"implementedHooks","inputs":[],"outputs":[{"name":"implementedHooks_","type":"uint8[]","internalType":"enum IPolicyManager.PolicyHook[]"}],"stateMutability":"pure"},{"type":"function","name":"passesRule","inputs":[{"name":"_comptrollerProxy","type":"address","internalType":"address"},{"name":"_caller","type":"address","internalType":"address"},{"name":"_externalPositionTypeId","type":"uint256","internalType":"uint256"}],"outputs":[{"name":"isValid_","type":"bool","internalType":"bool"}],"stateMutability":"view"},{"type":"function","name":"updateFundSettings","inputs":[{"name":"_comptrollerProxy","type":"address","internalType":"address"},{"name":"_encodedSettings","type":"bytes","internalType":"bytes"}],"outputs":[],"stateMutability":"nonpayable"},{"type":"function","name":"validateRule","inputs":[{"name":"_comptrollerProxy","type":"address","internalType":"address"},{"name":"_hook","type":"uint8","internalType":"enum IPolicyManager.PolicyHook"},{"name":"_encodedArgs","type":"bytes","internalType":"bytes"}],"outputs":[{"name":"isValid_","type":"bool","internalType":"bool"}],"stateMutability":"nonpayable"},{"type":"event","name":"ListsSetForFundAndUser","inputs":[{"name":"comptrollerProxy","type":"address","indexed":true,"internalType":"address"},{"name":"user","type":"address","indexed":true,"internalType":"address"},{"name":"listIds","type":"uint256[]","indexed":false,"internalType":"uint256[]"}],"anonymous":false}],"bytecode":{"object":"0x60c06040523480156200001157600080fd5b50604051620023d2380380620023d28339818101604052810190620000379190620000ca565b8181818073ffffffffffffffffffffffffffffffffffffffff1660808173ffffffffffffffffffffffffffffffffffffffff1660601b81525050508073ffffffffffffffffffffffffffffffffffffffff1660a08173ffffffffffffffffffffffffffffffffffffffff1660601b815250505050505062000159565b600081519050620000c4816200013f565b92915050565b60008060408385031215620000de57600080fd5b6000620000ee85828601620000b3565b92505060206200010185828601620000b3565b9150509250929050565b600062000118826200011f565b9050919050565b600073ffffffffffffffffffffffffffffffffffffffff82169050919050565b6200014a816200010b565b81146200015657600080fd5b50565b60805160601c60a05160601c6122406200019260003980610ab552806111a052508061022a52806102c85280610b7052506122406000f3fe608060405234801561001057600080fd5b50600436106100a95760003560e01c80637998a1c4116100715780637998a1c414610152578063b174666c14610170578063cbf54bb2146101a0578063cdb6552c146101be578063ceb9a0ad146101ee578063d44ad6cb1461020a576100a9565b80630d4d7510146100ae5780630f5f6b4f146100ca5780631ef92578146100e6578063572a45e114610104578063579be71814610122575b600080fd5b6100c860048036038101906100c3919061192a565b610228565b005b6100e460048036038101906100df919061192a565b6102c6565b005b6100ee610364565b6040516100fb9190611e84565b60405180910390f35b61010c61036d565b6040516101199190611f01565b60405180910390f35b61013c60048036038101906101379190611982565b610391565b6040516101499190611e84565b60405180910390f35b61015a610703565b6040516101679190611e9f565b60405180910390f35b61018a6004803603810190610185919061189f565b610723565b6040516101979190611e32565b60405180910390f35b6101a86107f7565b6040516101b59190611e10565b60405180910390f35b6101d860048036038101906101d391906118db565b610912565b6040516101e59190611e84565b60405180910390f35b610208600480360381019061020391906116c1565b610b69565b005b610212610b6c565b60405161021f9190611db7565b60405180910390f35b7f000000000000000000000000000000000000000000000000000000000000000073ffffffffffffffffffffffffffffffffffffffff163373ffffffffffffffffffffffffffffffffffffffff16146102b6576040517f08c379a00000000000000000000000000000000000000000000000000000000081526004016102ad90611ee1565b60405180910390fd5b6102c1838383610b94565b505050565b7f000000000000000000000000000000000000000000000000000000000000000073ffffffffffffffffffffffffffffffffffffffff163373ffffffffffffffffffffffffffffffffffffffff1614610354576040517f08c379a000000000000000000000000000000000000000000000000000000000815260040161034b90611ee1565b60405180910390fd5b61035f838383610b94565b505050565b60006001905090565b7fffffffffffffffffffffffffffffffffffffffffffffffffffffffffffffffff81565b6000806000600660098111156103a357fe5b8660098111156103af57fe5b14156104105761040285858080601f016020809104026020016040519081016040528093929190818152602001838380828437600081840152601f19601f82011690508083019250505050505050610c3b565b5080935081925050506106ec565b6007600981111561041d57fe5b86600981111561042957fe5b141561051657600061047e86868080601f016020809104026020016040519081016040528093929190818152602001838380828437600081840152601f19601f82011690508083019250505050505050610c61565b9091925090915090505080925081935050508073ffffffffffffffffffffffffffffffffffffffff166312bc0a446040518163ffffffff1660e01b815260040160206040518083038186803b1580156104d657600080fd5b505afa1580156104ea573d6000803e3d6000fd5b505050506040513d601f19601f8201168201806040525081019061050e9190611b43565b9250506106eb565b60098081111561052257fe5b86600981111561052e57fe5b141561061157600061058386868080601f016020809104026020016040519081016040528093929190818152602001838380828437600081840152601f19601f82011690508083019250505050505050610c93565b80925081935050508073ffffffffffffffffffffffffffffffffffffffff166312bc0a446040518163ffffffff1660e01b815260040160206040518083038186803b1580156105d157600080fd5b505afa1580156105e5573d6000803e3d6000fd5b505050506040513d601f19601f820116820180604052508101906106099190611b43565b9250506106ea565b600061066086868080601f016020809104026020016040519081016040528093929190818152602001838380828437600081840152601f19601f82011690508083019250505050505050610cb3565b80925081935050508073ffffffffffffffffffffffffffffffffffffffff166312bc0a446040518163ffffffff1660e01b815260040160206040518083038186803b1580156106ae57600080fd5b505afa1580156106c2573d6000803e3d6000fd5b505050506040513d601f19601f820116820180604052508101906106e69190611b43565b9250505b5b5b6106f7878284610912565b92505050949350505050565b60606040518060600160405280602b8152602001612209602b9139905090565b60606000808473ffffffffffffffffffffffffffffffffffffffff1673ffffffffffffffffffffffffffffffffffffffff16815260200190815260200160002060008373ffffffffffffffffffffffffffffffffffffffff1673ffffffffffffffffffffffffffffffffffffffff1681526020019081526020016000208054806020026020016040519081016040528092919081815260200182805480156107ea57602002820191906000526020600020905b8154815260200190600101908083116107d6575b5050505050905092915050565b6060600467ffffffffffffffff8111801561081157600080fd5b506040519080825280602002602001820160405280156108405781602001602082028036833780820191505090505b50905060068160008151811061085257fe5b6020026020010190600981111561086557fe5b9081600981111561087257fe5b8152505060078160018151811061088557fe5b6020026020010190600981111561089857fe5b908160098111156108a557fe5b815250506009816002815181106108b857fe5b602002602001019060098111156108cb57fe5b908160098111156108d857fe5b815250506008816003815181106108eb57fe5b602002602001019060098111156108fe57fe5b9081600981111561090b57fe5b8152505090565b60008373ffffffffffffffffffffffffffffffffffffffff1663c98091876040518163ffffffff1660e01b815260040160206040518083038186803b15801561095a57600080fd5b505afa15801561096e573d6000803e3d6000fd5b505050506040513d601f19601f8201168201806040525081019061099291906116ea565b73ffffffffffffffffffffffffffffffffffffffff1663893d20e86040518163ffffffff1660e01b815260040160206040518083038186803b1580156109d757600080fd5b505afa1580156109eb573d6000803e3d6000fd5b505050506040513d601f19601f82011682018060405250810190610a0f91906116ea565b73ffffffffffffffffffffffffffffffffffffffff168373ffffffffffffffffffffffffffffffffffffffff161415610a4b5760019050610b62565b6060610a578585610723565b9050600081511415610a6d576000915050610b62565b7fffffffffffffffffffffffffffffffffffffffffffffffffffffffffffffffff81600081518110610a9b57fe5b60200260200101511415610ab3576001915050610b62565b7f000000000000000000000000000000000000000000000000000000000000000073ffffffffffffffffffffffffffffffffffffffff16634ee5b4aa82856040518363ffffffff1660e01b8152600401610b0e929190611e54565b60206040518083038186803b158015610b2657600080fd5b505afa158015610b3a573d6000803e3d6000fd5b505050506040513d601f19601f82011682018060405250810190610b5e9190611ac6565b9150505b9392505050565b50565b60007f0000000000000000000000000000000000000000000000000000000000000000905090565b606080610ba18484610cd3565b915091508051825114610be9576040517f08c379a0000000000000000000000000000000000000000000000000000000008152600401610be090611ec1565b60405180910390fd5b60005b8151811015610c3357610c2686848381518110610c0557fe5b6020026020010151848481518110610c1957fe5b6020026020010151610cf0565b8080600101915050610bec565b505050505050565b600080606083806020019051810190610c549190611838565b9250925092509193909250565b60008060608060608086806020019051810190610c7e919061174f565b95509550955095509550955091939550919395565b60008082806020019051810190610caa9190611713565b91509150915091565b60008082806020019051810190610cca9190611713565b91509150915091565b6060808383810190610ce591906119ee565b915091509250929050565b606080610cfc8361116c565b9150915060008060008773ffffffffffffffffffffffffffffffffffffffff1673ffffffffffffffffffffffffffffffffffffffff16815260200190815260200160002060008673ffffffffffffffffffffffffffffffffffffffff1673ffffffffffffffffffffffffffffffffffffffff168152602001908152602001600020805490501115610e0f576000808673ffffffffffffffffffffffffffffffffffffffff1673ffffffffffffffffffffffffffffffffffffffff16815260200190815260200160002060008573ffffffffffffffffffffffffffffffffffffffff1673ffffffffffffffffffffffffffffffffffffffff1681526020019081526020016000206000610e0e9190611278565b5b6060815183510167ffffffffffffffff81118015610e2c57600080fd5b50604051908082528060200260200182016040528015610e5b5781602001602082028036833780820191505090505b5090506000815111156110ff5760005b8351811015610f6257838181518110610e8057fe5b6020026020010151828281518110610e9457fe5b6020026020010181815250506000808873ffffffffffffffffffffffffffffffffffffffff1673ffffffffffffffffffffffffffffffffffffffff16815260200190815260200160002060008773ffffffffffffffffffffffffffffffffffffffff1673ffffffffffffffffffffffffffffffffffffffff168152602001908152602001600020848281518110610f2757fe5b602002602001015190806001815401808255809150506001900390600052602060002001600090919091909150558080600101915050610e6b565b506000825111156110fe5760008673ffffffffffffffffffffffffffffffffffffffff1663c98091876040518163ffffffff1660e01b815260040160206040518083038186803b158015610fb557600080fd5b505afa158015610fc9573d6000803e3d6000fd5b505050506040513d601f19601f82011682018060405250810190610fed91906116ea565b905060005b83518110156110fb5760008186510190506110208386848151811061101357fe5b602002602001015161118c565b84828151811061102c57fe5b6020026020010181815250506000808a73ffffffffffffffffffffffffffffffffffffffff1673ffffffffffffffffffffffffffffffffffffffff16815260200190815260200160002060008973ffffffffffffffffffffffffffffffffffffffff1673ffffffffffffffffffffffffffffffffffffffff1681526020019081526020016000208482815181106110bf57fe5b60200260200101519080600181540180825580915050600190039060005260206000200160009091909190915055508080600101915050610ff2565b50505b5b8473ffffffffffffffffffffffffffffffffffffffff168673ffffffffffffffffffffffffffffffffffffffff167fe737257df130e7ddcae83b49adac67dc3dcc32950b3e5ee558eae2f0b842a50f8360405161115c9190611e32565b60405180910390a3505050505050565b606080828060200190518101906111839190611a5a565b91509150915091565b600080606061119a84611257565b915091507f000000000000000000000000000000000000000000000000000000000000000073ffffffffffffffffffffffffffffffffffffffff1663f71e46698684846040518463ffffffff1660e01b81526004016111fb93929190611dd2565b602060405180830381600087803b15801561121557600080fd5b505af1158015611229573d6000803e3d6000fd5b505050506040513d601f19601f8201168201806040525081019061124d9190611b43565b9250505092915050565b600060608280602001905181019061126f9190611aef565b91509150915091565b50805460008255906000526020600020908101906112969190611299565b50565b5b808211156112b257600081600090555060010161129a565b5090565b6000813590506112c58161218c565b92915050565b6000815190506112da8161218c565b92915050565b6000815190506112ef816121a3565b92915050565b600082601f83011261130657600080fd5b813561131961131482611f49565b611f1c565b9150818183526020840193506020810190508385602084028201111561133e57600080fd5b60005b8381101561136e578161135488826112b6565b845260208401935060208301925050600181019050611341565b5050505092915050565b600082601f83011261138957600080fd5b815161139c61139782611f49565b611f1c565b915081818352602084019350602081019050838560208402820111156113c157600080fd5b60005b838110156113f157816113d788826112cb565b8452602084019350602083019250506001810190506113c4565b5050505092915050565b600082601f83011261140c57600080fd5b813561141f61141a82611f71565b611f1c565b9150818183526020840193506020810190508360005b83811015611465578135860161144b88826115c5565b845260208401935060208301925050600181019050611435565b5050505092915050565b600082601f83011261148057600080fd5b815161149361148e82611f71565b611f1c565b9150818183526020840193506020810190508360005b838110156114d957815186016114bf8882611619565b8452602084019350602083019250506001810190506114a9565b5050505092915050565b600082601f8301126114f457600080fd5b815161150761150282611f99565b611f1c565b9150818183526020840193506020810190508385602084028201111561152c57600080fd5b60005b8381101561155c578161154288826116ac565b84526020840193506020830192505060018101905061152f565b5050505092915050565b600081519050611575816121ba565b92915050565b60008083601f84011261158d57600080fd5b8235905067ffffffffffffffff8111156115a657600080fd5b6020830191508360018202830111156115be57600080fd5b9250929050565b600082601f8301126115d657600080fd5b81356115e96115e482611fc1565b611f1c565b9150808252602083016020830185838301111561160557600080fd5b61161083828461211f565b50505092915050565b600082601f83011261162a57600080fd5b815161163d61163882611fc1565b611f1c565b9150808252602083016020830185838301111561165957600080fd5b61166483828461212e565b50505092915050565b60008135905061167c816121d1565b92915050565b600081519050611691816121e1565b92915050565b6000813590506116a6816121f1565b92915050565b6000815190506116bb816121f1565b92915050565b6000602082840312156116d357600080fd5b60006116e1848285016112b6565b91505092915050565b6000602082840312156116fc57600080fd5b600061170a848285016112cb565b91505092915050565b6000806040838503121561172657600080fd5b6000611734858286016112e0565b9250506020611745858286016112e0565b9150509250929050565b60008060008060008060c0878903121561176857600080fd5b600061177689828a016112e0565b965050602061178789828a016112e0565b955050604087015167ffffffffffffffff8111156117a457600080fd5b6117b089828a01611378565b945050606087015167ffffffffffffffff8111156117cd57600080fd5b6117d989828a016114e3565b935050608087015167ffffffffffffffff8111156117f657600080fd5b61180289828a01611378565b92505060a087015167ffffffffffffffff81111561181f57600080fd5b61182b89828a01611619565b9150509295509295509295565b60008060006060848603121561184d57600080fd5b600061185b868287016112e0565b935050602061186c868287016116ac565b925050604084015167ffffffffffffffff81111561188957600080fd5b61189586828701611619565b9150509250925092565b600080604083850312156118b257600080fd5b60006118c0858286016112b6565b92505060206118d1858286016112b6565b9150509250929050565b6000806000606084860312156118f057600080fd5b60006118fe868287016112b6565b935050602061190f868287016112b6565b925050604061192086828701611697565b9150509250925092565b60008060006040848603121561193f57600080fd5b600061194d868287016112b6565b935050602084013567ffffffffffffffff81111561196a57600080fd5b6119768682870161157b565b92509250509250925092565b6000806000806060858703121561199857600080fd5b60006119a6878288016112b6565b94505060206119b78782880161166d565b935050604085013567ffffffffffffffff8111156119d457600080fd5b6119e08782880161157b565b925092505092959194509250565b60008060408385031215611a0157600080fd5b600083013567ffffffffffffffff811115611a1b57600080fd5b611a27858286016112f5565b925050602083013567ffffffffffffffff811115611a4457600080fd5b611a50858286016113fb565b9150509250929050565b60008060408385031215611a6d57600080fd5b600083015167ffffffffffffffff811115611a8757600080fd5b611a93858286016114e3565b925050602083015167ffffffffffffffff811115611ab057600080fd5b611abc8582860161146f565b9150509250929050565b600060208284031215611ad857600080fd5b6000611ae684828501611566565b91505092915050565b60008060408385031215611b0257600080fd5b6000611b1085828601611682565b925050602083015167ffffffffffffffff811115611b2d57600080fd5b611b39858286016114e3565b9150509250929050565b600060208284031215611b5557600080fd5b6000611b63848285016116ac565b91505092915050565b6000611b788383611c76565b60208301905092915050565b6000611b908383611d99565b60208301905092915050565b611ba58161207b565b82525050565b6000611bb68261200d565b611bc08185612059565b9350611bcb83611fed565b8060005b83811015611bfc578151611be38882611b6c565b9750611bee8361202e565b925050600181019050611bcf565b5085935050505092915050565b6000611c1482612018565b611c1e8185612048565b9350611c2983611ffd565b8060005b83811015611c5a578151611c418882611b84565b9750611c4c8361203b565b925050600181019050611c2d565b5085935050505092915050565b611c708161209f565b82525050565b611c7f816120fb565b82525050565b611c8e8161210d565b82525050565b6000611c9f82612023565b611ca9818561206a565b9350611cb981856020860161212e565b611cc281612161565b840191505092915050565b6000611cda60248361206a565b91507f5f5f7570646174654c69737473466f7246756e643a20756e657175616c20617260008301527f72617973000000000000000000000000000000000000000000000000000000006020830152604082019050919050565b6000611d4060298361206a565b91507f4f6e6c792074686520506f6c6963794d616e616765722063616e206d616b652060008301527f746869732063616c6c00000000000000000000000000000000000000000000006020830152604082019050919050565b611da2816120f1565b82525050565b611db1816120f1565b82525050565b6000602082019050611dcc6000830184611b9c565b92915050565b6000606082019050611de76000830186611b9c565b611df46020830185611c85565b8181036040830152611e068184611c09565b9050949350505050565b60006020820190508181036000830152611e2a8184611bab565b905092915050565b60006020820190508181036000830152611e4c8184611c09565b905092915050565b60006040820190508181036000830152611e6e8185611c09565b9050611e7d6020830184611da8565b9392505050565b6000602082019050611e996000830184611c67565b92915050565b60006020820190508181036000830152611eb98184611c94565b905092915050565b60006020820190508181036000830152611eda81611ccd565b9050919050565b60006020820190508181036000830152611efa81611d33565b9050919050565b6000602082019050611f166000830184611da8565b92915050565b6000604051905081810181811067ffffffffffffffff82111715611f3f57600080fd5b8060405250919050565b600067ffffffffffffffff821115611f6057600080fd5b602082029050602081019050919050565b600067ffffffffffffffff821115611f8857600080fd5b602082029050602081019050919050565b600067ffffffffffffffff821115611fb057600080fd5b602082029050602081019050919050565b600067ffffffffffffffff821115611fd857600080fd5b601f19601f8301169050602081019050919050565b6000819050602082019050919050565b6000819050602082019050919050565b600081519050919050565b600081519050919050565b600081519050919050565b6000602082019050919050565b6000602082019050919050565b600082825260208201905092915050565b600082825260208201905092915050565b600082825260208201905092915050565b6000612086826120d1565b9050919050565b6000612098826120d1565b9050919050565b60008115159050919050565b60008190506120b982612172565b919050565b60008190506120cc8261217f565b919050565b600073ffffffffffffffffffffffffffffffffffffffff82169050919050565b6000819050919050565b6000612106826120ab565b9050919050565b6000612118826120be565b9050919050565b82818337600083830152505050565b60005b8381101561214c578082015181840152602081019050612131565b8381111561215b576000848401525b50505050565b6000601f19601f8301169050919050565b600a811061217c57fe5b50565b6004811061218957fe5b50565b6121958161207b565b81146121a057600080fd5b50565b6121ac8161208d565b81146121b757600080fd5b50565b6121c38161209f565b81146121ce57600080fd5b50565b600a81106121de57600080fd5b50565b600481106121ee57600080fd5b50565b6121fa816120f1565b811461220557600080fd5b5056fe414c4c4f5745445f45585445524e414c5f504f534954494f4e5f54595045535f5045525f4d414e41474552a164736f6c634300060c000a","linkReferences":{}},"methodIdentifiers":{"BYPASS_FLAG()":"572a45e1","activateForFund(address)":"ceb9a0ad","addFundSettings(address,bytes)":"0f5f6b4f","canDisable()":"1ef92578","getListIdsForFundAndUser(address,address)":"b174666c","getPolicyManager()":"d44ad6cb","identifier()":"7998a1c4","implementedHooks()":"cbf54bb2","passesRule(address,address,uint256)":"cdb6552c","updateFundSettings(address,bytes)":"0d4d7510","validateRule(address,uint8,bytes)":"579be718"},"id":254}