{"abi":[{"type":"constructor","inputs":[{"name":"_feeManager","type":"address","internalType":"address"},{"name":"_protocolFeeTracker","type":"address","internalType":"address"},{"name":"_valueInterpreter","type":"address","internalType":"address"}],"stateMutability":"nonpayable"},{"type":"function","name":"calcGav","inputs":[{"name":"_vaultProxy","type":"address","internalType":"address"}],"outputs":[{"name":"denominationAsset_","type":"address","internalType":"address"},{"name":"gav_","type":"uint256","internalType":"uint256"}],"stateMutability":"nonpayable"},{"type":"function","name":"calcGavInAsset","inputs":[{"name":"_vaultProxy","type":"address","internalType":"address"},{"name":"_quoteAsset","type":"address","internalType":"address"}],"outputs":[{"name":"gav_","type":"uint256","internalType":"uint256"}],"stateMutability":"nonpayable"},{"type":"function","name":"calcGrossShareValue","inputs":[{"name":"_vaultProxy","type":"address","internalType":"address"}],"outputs":[{"name":"denominationAsset_","type":"address","internalType":"address"},{"name":"grossShareValue_","type":"uint256","internalType":"uint256"}],"stateMutability":"nonpayable"},{"type":"function","name":"calcGrossShareValueInAsset","inputs":[{"name":"_vaultProxy","type":"address","internalType":"address"},{"name":"_quoteAsset","type":"address","internalType":"address"}],"outputs":[{"name":"grossShareValue_","type":"uint256","internalType":"uint256"}],"stateMutability":"nonpayable"},{"type":"function","name":"calcNav","inputs":[{"name":"_vaultProxy","type":"address","internalType":"address"}],"outputs":[{"name":"denominationAsset_","type":"address","internalType":"address"},{"name":"nav_","type":"uint256","internalType":"uint256"}],"stateMutability":"nonpayable"},{"type":"function","name":"calcNavInAsset","inputs":[{"name":"_vaultProxy","type":"address","internalType":"address"},{"name":"_quoteAsset","type":"address","internalType":"address"}],"outputs":[{"name":"nav_","type":"uint256","internalType":"uint256"}],"stateMutability":"nonpayable"},{"type":"function","name":"calcNetShareValue","inputs":[{"name":"_vaultProxy","type":"address","internalType":"address"}],"outputs":[{"name":"denominationAsset_","type":"address","internalType":"address"},{"name":"netShareValue_","type":"uint256","internalType":"uint256"}],"stateMutability":"nonpayable"},{"type":"function","name":"calcNetShareValueInAsset","inputs":[{"name":"_vaultProxy","type":"address","internalType":"address"},{"name":"_quoteAsset","type":"address","internalType":"address"}],"outputs":[{"name":"netShareValue_","type":"uint256","internalType":"uint256"}],"stateMutability":"nonpayable"},{"type":"function","name":"calcNetValueForSharesHolder","inputs":[{"name":"_vaultProxy","type":"address","internalType":"address"},{"name":"_sharesHolder","type":"address","internalType":"address"}],"outputs":[{"name":"denominationAsset_","type":"address","internalType":"address"},{"name":"netValue_","type":"uint256","internalType":"uint256"}],"stateMutability":"nonpayable"},{"type":"function","name":"calcNetValueForSharesHolderInAsset","inputs":[{"name":"_vaultProxy","type":"address","internalType":"address"},{"name":"_sharesHolder","type":"address","internalType":"address"},{"name":"_quoteAsset","type":"address","internalType":"address"}],"outputs":[{"name":"netValue_","type":"uint256","internalType":"uint256"}],"stateMutability":"nonpayable"},{"type":"function","name":"calcProtocolFeeDueForFund","inputs":[{"name":"_vaultProxy","type":"address","internalType":"address"}],"outputs":[{"name":"sharesDue_","type":"uint256","internalType":"uint256"}],"stateMutability":"view"},{"type":"function","name":"getFeeManager","inputs":[],"outputs":[{"name":"feeManager_","type":"address","internalType":"address"}],"stateMutability":"view"},{"type":"function","name":"getProtocolFeeTracker","inputs":[],"outputs":[{"name":"protocolFeeTracker_","type":"address","internalType":"address"}],"stateMutability":"view"},{"type":"function","name":"getValueInterpreter","inputs":[],"outputs":[{"name":"valueInterpreter_","type":"address","internalType":"address"}],"stateMutability":"view"}],"bytecode":{"object":"0x60e060405234801561001057600080fd5b506040516119f93803806119f98339818101604052606081101561003357600080fd5b810190808051906020019092919080519060200190929190805190602001909291905050508273ffffffffffffffffffffffffffffffffffffffff1660808173ffffffffffffffffffffffffffffffffffffffff1660601b815250508173ffffffffffffffffffffffffffffffffffffffff1660a08173ffffffffffffffffffffffffffffffffffffffff1660601b815250508073ffffffffffffffffffffffffffffffffffffffff1660c08173ffffffffffffffffffffffffffffffffffffffff1660601b8152505050505060805160601c60a05160601c60c05160601c6118c4610135600039806110f2525080610fd652508061141252506118c46000f3fe608060405234801561001057600080fd5b50600436106100ea5760003560e01c806381dfa95b1161008c578063c65988ff11610066578063c65988ff14610528578063eefcb1b3146105a0578063f2d6382614610618578063faf6eeef1461064c576100ea565b806381dfa95b146103ea578063875fb4b31461047f578063c3552663146104b3576100ea565b80634807ccbd116100c85780634807ccbd1461023157806351ac29c7146102c957806353d467f314610341578063749cc8f5146103b6576100ea565b8063037276c1146100ef578063140a9924146101645780633ba6b851146101bc575b600080fd5b6101316004803603602081101561010557600080fd5b81019080803573ffffffffffffffffffffffffffffffffffffffff1690602001909291905050506106c4565b604051808373ffffffffffffffffffffffffffffffffffffffff1681526020018281526020019250505060405180910390f35b6101a66004803603602081101561017a57600080fd5b81019080803573ffffffffffffffffffffffffffffffffffffffff1690602001909291905050506107e2565b6040518082815260200191505060405180910390f35b6101fe600480360360208110156101d257600080fd5b81019080803573ffffffffffffffffffffffffffffffffffffffff169060200190929190505050610ab8565b604051808373ffffffffffffffffffffffffffffffffffffffff1681526020018281526020019250505060405180910390f35b6102b36004803603606081101561024757600080fd5b81019080803573ffffffffffffffffffffffffffffffffffffffff169060200190929190803573ffffffffffffffffffffffffffffffffffffffff169060200190929190803573ffffffffffffffffffffffffffffffffffffffff169060200190929190505050610d25565b6040518082815260200191505060405180910390f35b61032b600480360360408110156102df57600080fd5b81019080803573ffffffffffffffffffffffffffffffffffffffff169060200190929190803573ffffffffffffffffffffffffffffffffffffffff169060200190929190505050610e14565b6040518082815260200191505060405180910390f35b6103836004803603602081101561035757600080fd5b81019080803573ffffffffffffffffffffffffffffffffffffffff169060200190929190505050610f01565b604051808373ffffffffffffffffffffffffffffffffffffffff1681526020018281526020019250505060405180910390f35b6103be610fd2565b604051808273ffffffffffffffffffffffffffffffffffffffff16815260200191505060405180910390f35b61044c6004803603604081101561040057600080fd5b81019080803573ffffffffffffffffffffffffffffffffffffffff169060200190929190803573ffffffffffffffffffffffffffffffffffffffff169060200190929190505050610ffa565b604051808373ffffffffffffffffffffffffffffffffffffffff1681526020018281526020019250505060405180910390f35b6104876110ee565b604051808273ffffffffffffffffffffffffffffffffffffffff16815260200191505060405180910390f35b6104f5600480360360208110156104c957600080fd5b81019080803573ffffffffffffffffffffffffffffffffffffffff169060200190929190505050611116565b604051808373ffffffffffffffffffffffffffffffffffffffff1681526020018281526020019250505060405180910390f35b61058a6004803603604081101561053e57600080fd5b81019080803573ffffffffffffffffffffffffffffffffffffffff169060200190929190803573ffffffffffffffffffffffffffffffffffffffff169060200190929190505050611234565b6040518082815260200191505060405180910390f35b610602600480360360408110156105b657600080fd5b81019080803573ffffffffffffffffffffffffffffffffffffffff169060200190929190803573ffffffffffffffffffffffffffffffffffffffff169060200190929190505050611321565b6040518082815260200191505060405180910390f35b61062061140e565b604051808273ffffffffffffffffffffffffffffffffffffffff16815260200191505060405180910390f35b6106ae6004803603604081101561066257600080fd5b81019080803573ffffffffffffffffffffffffffffffffffffffff169060200190929190803573ffffffffffffffffffffffffffffffffffffffff169060200190929190505050611436565b6040518082815260200191505060405180910390f35b60008060006106d284611523565b90508073ffffffffffffffffffffffffffffffffffffffff1663e269c3d66040518163ffffffff1660e01b815260040160206040518083038186803b15801561071a57600080fd5b505afa15801561072e573d6000803e3d6000fd5b505050506040513d602081101561074457600080fd5b81019080805190602001909291905050508173ffffffffffffffffffffffffffffffffffffffff166356cff99f6040518163ffffffff1660e01b8152600401602060405180830381600087803b15801561079d57600080fd5b505af11580156107b1573d6000803e3d6000fd5b505050506040513d60208110156107c757600080fd5b81019080805190602001909291905050509250925050915091565b6000806107ed610fd2565b73ffffffffffffffffffffffffffffffffffffffff1663b69f3652846040518263ffffffff1660e01b8152600401808273ffffffffffffffffffffffffffffffffffffffff16815260200191505060206040518083038186803b15801561085357600080fd5b505afa158015610867573d6000803e3d6000fd5b505050506040513d602081101561087d57600080fd5b81019080805190602001909291905050509050428110158061089f5750600081145b156108ae576000915050610ab3565b60006108c382426115ad90919063ffffffff16565b905060008473ffffffffffffffffffffffffffffffffffffffff166318160ddd6040518163ffffffff1660e01b815260040160206040518083038186803b15801561090d57600080fd5b505afa158015610921573d6000803e3d6000fd5b505050506040513d602081101561093757600080fd5b810190808051906020019092919050505090506000610a43612710610a356301e187e0610a2787610a19610969610fd2565b73ffffffffffffffffffffffffffffffffffffffff1663f8fc29618e6040518263ffffffff1660e01b8152600401808273ffffffffffffffffffffffffffffffffffffffff16815260200191505060206040518083038186803b1580156109cf57600080fd5b505afa1580156109e3573d6000803e3d6000fd5b505050506040513d60208110156109f957600080fd5b81019080805190602001909291905050508961163090919063ffffffff16565b61163090919063ffffffff16565b6116b690919063ffffffff16565b6116b690919063ffffffff16565b90506000610a5a82846115ad90919063ffffffff16565b90506000811415610a7357600095505050505050610ab3565b610aab6002610a9d83610a8f878761163090919063ffffffff16565b6116b690919063ffffffff16565b6116b690919063ffffffff16565b955050505050505b919050565b6000806000610ac684611523565b90508073ffffffffffffffffffffffffffffffffffffffff166339bf70d1610aec61140e565b60006040518363ffffffff1660e01b8152600401808373ffffffffffffffffffffffffffffffffffffffff168152602001828152602001806020018281038252600081526020016020019350505050600060405180830381600087803b158015610b5557600080fd5b505af1158015610b69573d6000803e3d6000fd5b505050506000610b78856107e2565b90508173ffffffffffffffffffffffffffffffffffffffff1663e269c3d66040518163ffffffff1660e01b815260040160206040518083038186803b158015610bc057600080fd5b505afa158015610bd4573d6000803e3d6000fd5b505050506040513d6020811015610bea57600080fd5b81019080805190602001909291905050509350610d1c848373ffffffffffffffffffffffffffffffffffffffff166356cff99f6040518163ffffffff1660e01b8152600401602060405180830381600087803b158015610c4957600080fd5b505af1158015610c5d573d6000803e3d6000fd5b505050506040513d6020811015610c7357600080fd5b8101908080519060200190929190505050610d17848973ffffffffffffffffffffffffffffffffffffffff166318160ddd6040518163ffffffff1660e01b815260040160206040518083038186803b158015610cce57600080fd5b505afa158015610ce2573d6000803e3d6000fd5b505050506040513d6020811015610cf857600080fd5b810190808051906020019092919050505061173f90919063ffffffff16565b6117c7565b92505050915091565b6000806000610d348686610ffa565b91509150610d406110ee565b73ffffffffffffffffffffffffffffffffffffffff16634c67e1068383876040518463ffffffff1660e01b8152600401808473ffffffffffffffffffffffffffffffffffffffff1681526020018381526020018273ffffffffffffffffffffffffffffffffffffffff1681526020019350505050602060405180830381600087803b158015610dce57600080fd5b505af1158015610de2573d6000803e3d6000fd5b505050506040513d6020811015610df857600080fd5b8101908080519060200190929190505050925050509392505050565b6000806000610e22856106c4565b91509150610e2e6110ee565b73ffffffffffffffffffffffffffffffffffffffff16634c67e1068383876040518463ffffffff1660e01b8152600401808473ffffffffffffffffffffffffffffffffffffffff1681526020018381526020018273ffffffffffffffffffffffffffffffffffffffff1681526020019350505050602060405180830381600087803b158015610ebc57600080fd5b505af1158015610ed0573d6000803e3d6000fd5b505050506040513d6020811015610ee657600080fd5b81019080805190602001909291905050509250505092915050565b60008060008373ffffffffffffffffffffffffffffffffffffffff166318160ddd6040518163ffffffff1660e01b815260040160206040518083038186803b158015610f4c57600080fd5b505afa158015610f60573d6000803e3d6000fd5b505050506040513d6020811015610f7657600080fd5b810190808051906020019092919050505090506000610f9485610ab8565b8092508195505050610fc9670de0b6b3a7640000610fbb838561163090919063ffffffff16565b6116b690919063ffffffff16565b92505050915091565b60007f0000000000000000000000000000000000000000000000000000000000000000905090565b60008060008473ffffffffffffffffffffffffffffffffffffffff166370a08231856040518263ffffffff1660e01b8152600401808273ffffffffffffffffffffffffffffffffffffffff16815260200191505060206040518083038186803b15801561106657600080fd5b505afa15801561107a573d6000803e3d6000fd5b505050506040513d602081101561109057600080fd5b8101908080519060200190929190505050905060006110ae86610ab8565b80925081955050506110e3670de0b6b3a76400006110d5838561163090919063ffffffff16565b6116b690919063ffffffff16565b925050509250929050565b60007f0000000000000000000000000000000000000000000000000000000000000000905090565b600080600061112484611523565b90508073ffffffffffffffffffffffffffffffffffffffff1663e269c3d66040518163ffffffff1660e01b815260040160206040518083038186803b15801561116c57600080fd5b505afa158015611180573d6000803e3d6000fd5b505050506040513d602081101561119657600080fd5b81019080805190602001909291905050508173ffffffffffffffffffffffffffffffffffffffff1663da72503c6040518163ffffffff1660e01b8152600401602060405180830381600087803b1580156111ef57600080fd5b505af1158015611203573d6000803e3d6000fd5b505050506040513d602081101561121957600080fd5b81019080805190602001909291905050509250925050915091565b600080600061124285610f01565b9150915061124e6110ee565b73ffffffffffffffffffffffffffffffffffffffff16634c67e1068383876040518463ffffffff1660e01b8152600401808473ffffffffffffffffffffffffffffffffffffffff1681526020018381526020018273ffffffffffffffffffffffffffffffffffffffff1681526020019350505050602060405180830381600087803b1580156112dc57600080fd5b505af11580156112f0573d6000803e3d6000fd5b505050506040513d602081101561130657600080fd5b81019080805190602001909291905050509250505092915050565b600080600061132f85611116565b9150915061133b6110ee565b73ffffffffffffffffffffffffffffffffffffffff16634c67e1068383876040518463ffffffff1660e01b8152600401808473ffffffffffffffffffffffffffffffffffffffff1681526020018381526020018273ffffffffffffffffffffffffffffffffffffffff1681526020019350505050602060405180830381600087803b1580156113c957600080fd5b505af11580156113dd573d6000803e3d6000fd5b505050506040513d60208110156113f357600080fd5b81019080805190602001909291905050509250505092915050565b60007f0000000000000000000000000000000000000000000000000000000000000000905090565b600080600061144485610ab8565b915091506114506110ee565b73ffffffffffffffffffffffffffffffffffffffff16634c67e1068383876040518463ffffffff1660e01b8152600401808473ffffffffffffffffffffffffffffffffffffffff1681526020018381526020018273ffffffffffffffffffffffffffffffffffffffff1681526020019350505050602060405180830381600087803b1580156114de57600080fd5b505af11580156114f2573d6000803e3d6000fd5b505050506040513d602081101561150857600080fd5b81019080805190602001909291905050509250505092915050565b60008173ffffffffffffffffffffffffffffffffffffffff16635a53e3486040518163ffffffff1660e01b815260040160206040518083038186803b15801561156b57600080fd5b505afa15801561157f573d6000803e3d6000fd5b505050506040513d602081101561159557600080fd5b81019080805190602001909291905050509050919050565b600082821115611625576040517f08c379a000000000000000000000000000000000000000000000000000000000815260040180806020018281038252601e8152602001807f536166654d6174683a207375627472616374696f6e206f766572666c6f77000081525060200191505060405180910390fd5b818303905092915050565b60008083141561164357600090506116b0565b600082840290508284828161165457fe5b04146116ab576040517f08c379a00000000000000000000000000000000000000000000000000000000081526004018080602001828103825260218152602001806118976021913960400191505060405180910390fd5b809150505b92915050565b600080821161172d576040517f08c379a000000000000000000000000000000000000000000000000000000000815260040180806020018281038252601a8152602001807f536166654d6174683a206469766973696f6e206279207a65726f00000000000081525060200191505060405180910390fd5b81838161173657fe5b04905092915050565b6000808284019050838110156117bd576040517f08c379a000000000000000000000000000000000000000000000000000000000815260040180806020018281038252601b8152602001807f536166654d6174683a206164646974696f6e206f766572666c6f77000000000081525060200191505060405180910390fd5b8091505092915050565b60008082141561185f578373ffffffffffffffffffffffffffffffffffffffff1663313ce5676040518163ffffffff1660e01b815260040160206040518083038186803b15801561181757600080fd5b505afa15801561182b573d6000803e3d6000fd5b505050506040513d602081101561184157600080fd5b810190808051906020019092919050505060ff16600a0a905061188f565b61188c8261187e670de0b6b3a76400008661163090919063ffffffff16565b6116b690919063ffffffff16565b90505b939250505056fe536166654d6174683a206d756c7469706c69636174696f6e206f766572666c6f77a164736f6c634300060c000a","linkReferences":{}},"methodIdentifiers":{"calcGav(address)":"037276c1","calcGavInAsset(address,address)":"51ac29c7","calcGrossShareValue(address)":"c3552663","calcGrossShareValueInAsset(address,address)":"eefcb1b3","calcNav(address)":"53d467f3","calcNavInAsset(address,address)":"c65988ff","calcNetShareValue(address)":"3ba6b851","calcNetShareValueInAsset(address,address)":"faf6eeef","calcNetValueForSharesHolder(address,address)":"81dfa95b","calcNetValueForSharesHolderInAsset(address,address,address)":"4807ccbd","calcProtocolFeeDueForFund(address)":"140a9924","getFeeManager()":"f2d63826","getProtocolFeeTracker()":"749cc8f5","getValueInterpreter()":"875fb4b3"},"id":307}