{"abi":[{"type":"constructor","inputs":[{"name":"_mysoRouterAddress","type":"address","internalType":"address"}],"stateMutability":"nonpayable"},{"type":"function","name":"MYSO_ROUTER","inputs":[],"outputs":[{"name":"","type":"address","internalType":"contract IMysoV3Router"}],"stateMutability":"view"},{"type":"function","name":"getDebtAssets","inputs":[],"outputs":[{"name":"assets_","type":"address[]","internalType":"address[]"},{"name":"amounts_","type":"uint256[]","internalType":"uint256[]"}],"stateMutability":"pure"},{"type":"function","name":"getEscrowIdxs","inputs":[{"name":"_from","type":"uint256","internalType":"uint256"},{"name":"_numElements","type":"uint256","internalType":"uint256"}],"outputs":[{"name":"openEscrowsIdxs_","type":"uint32[]","internalType":"uint32[]"}],"stateMutability":"view"},{"type":"function","name":"getManagedAssets","inputs":[],"outputs":[{"name":"assets_","type":"address[]","internalType":"address[]"},{"name":"amounts_","type":"uint256[]","internalType":"uint256[]"}],"stateMutability":"view"},{"type":"function","name":"getNumOpenEscrows","inputs":[],"outputs":[{"name":"numOpenEscrows_","type":"uint256","internalType":"uint256"}],"stateMutability":"view"},{"type":"function","name":"init","inputs":[{"name":"","type":"bytes","internalType":"bytes"}],"outputs":[],"stateMutability":"nonpayable"},{"type":"function","name":"receiveCallFromVault","inputs":[{"name":"_actionData","type":"bytes","internalType":"bytes"}],"outputs":[],"stateMutability":"nonpayable"},{"type":"event","name":"EscrowClosedAndSwept","inputs":[{"name":"escrowIdx","type":"uint256","indexed":false,"internalType":"uint256"}],"anonymous":false},{"type":"event","name":"EscrowCreated","inputs":[{"name":"escrowIdx","type":"uint256","indexed":false,"internalType":"uint256"}],"anonymous":false},{"type":"error","name":"MysoV3OptionWritingPositionLib__ReceiveCallFromVault__InvalidActionId","inputs":[]},{"type":"error","name":"MysoV3OptionWritingPosition__CloseAndSweep__InvalidEmptyArray","inputs":[]},{"type":"error","name":"MysoV3OptionWritingPosition__CloseAndSweep__NotExpiredOption","inputs":[]},{"type":"error","name":"MysoV3OptionWritingPosition__CloseAndSweep__UnassociatedEscrow","inputs":[]},{"type":"error","name":"MysoV3OptionWritingPosition__GetEscrowIndices__InvalidRange","inputs":[]},{"type":"error","name":"MysoV3OptionWritingPosition__GetManagedAssets__OpenEscrowsExist","inputs":[]},{"type":"error","name":"MysoV3OptionWritingPosition__InputArraysLengthMismatch","inputs":[]},{"type":"error","name":"MysoV3OptionWritingPosition__Sweep__EscrowAlreadyClosed","inputs":[]}],"bytecode":{"object":"0x60a06040523480156200001157600080fd5b506040516200287e3803806200287e833981016040819052620000349162000080565b6001600160a01b0316608052620000ad565b60006001600160a01b0382165b92915050565b620000648162000046565b81146200007057600080fd5b50565b8051620000538162000059565b600060208284031215620000975762000097600080fd5b6000620000a5848462000073565b949350505050565b608051612785620000f96000396000818160e9015281816103ab015281816103f7015281816104a8015281816104f401528181610599015281816109a90152610f7a01526127856000f3fe608060405234801561001057600080fd5b506004361061007d5760003560e01c8063a30422ee1161005b578063a30422ee146100c4578063ab7bc3e2146100e4578063e5c23a9714610118578063ecd658b41461012b57600080fd5b80634ddf47d4146100825780637cee96621461009557806380daddb8146100ae575b600080fd5b610093610090366004611580565b50565b005b6000546040516100a591906115c2565b60405180910390f35b6100b6610133565b6040516100a5929190611691565b6100d76100d23660046116ce565b61019e565b6040516100a59190611761565b61010b7f000000000000000000000000000000000000000000000000000000000000000081565b6040516100a591906117b4565b610093610126366004611580565b6102a4565b6100b661038f565b6000546060908190156101595760405163079530c360e01b815260040160405180910390fd5b60005b604051908082528060200260200182016040528015610185578160200160208202803683370190505b5060408051600081526020810190915290939092509050565b60608115806101b757506000546101b583856117d8565b115b156101d5576040516302af5f1360e51b815260040160405180910390fd5b816001600160401b038111156101ed576101ed611487565b604051908082528060200260200182016040528015610216578160200160208202803683370190505b50905060005b8281101561029d57600061023082866117d8565b81548110610240576102406117eb565b90600052602060002090600891828204019190066004029054906101000a900463ffffffff16828281518110610278576102786117eb565b63ffffffff9092166020928302919091019091015261029681611801565b905061021c565b5092915050565b600080828060200190518101906102bb91906118a2565b9092509050816102e6576102e1818060200190518101906102dc9190611be2565b610399565b505050565b6001820361030a576102e1818060200190518101906103059190611dc9565b610497565b6002820361032e576102e1818060200190518101906103299190611ee5565b610565565b60038203610352576102e18180602001905181019061034d9190612006565b6108ab565b60048203610376576102e1818060200190518101906103719190612090565b6108e4565b604051630f245a9d60e21b815260040160405180910390fd5b606080600061015c565b80515180516080909101516103d991907f0000000000000000000000000000000000000000000000000000000000000000906001600160801b03166108f2565b80516020820151604051631efc7b1760e11b81526001600160a01b037f00000000000000000000000000000000000000000000000000000000000000001692633df8f62e9261042e923092919060040161229c565b600060405180830381600087803b15801561044857600080fd5b505af115801561045c573d6000803e3d6000fd5b505050506104686109a5565b80515160c0015160400151600090610486578151516040015161048b565b815151515b90506102e13382610ace565b805180516040909101516104d691907f0000000000000000000000000000000000000000000000000000000000000000906001600160801b03166108f2565b80516020820151604051635920d57760e01b81526001600160a01b037f00000000000000000000000000000000000000000000000000000000000000001692635920d5779261052b92309291906004016123d6565b600060405180830381600087803b15801561054557600080fd5b505af1158015610559573d6000803e3d6000fd5b505050506100906109a5565b80515160000361058857604051630d7bf57b60e21b815260040160405180910390fd5b60005b8151518110156108a75760007f00000000000000000000000000000000000000000000000000000000000000006001600160a01b03166347e5dc20846000015184815181106105dc576105dc6117eb565b602002602001015160016040518363ffffffff1660e01b8152600401610603929190612430565b600060405180830381865afa158015610620573d6000803e3d6000fd5b505050506040513d6000823e601f3d908101601f19168201604052610648919081019061244b565b60008151811061065a5761065a6117eb565b602002602001015190506000816001600160a01b0316632844e1e06040518163ffffffff1660e01b815260040161016060405180830381865afa1580156106a5573d6000803e3d6000fd5b505050506040513d601f19601f820116820180604052508101906106c99190612485565b9050816001600160a01b031663f0aa49d26040518163ffffffff1660e01b8152600401602060405180830381865afa158015610709573d6000803e3d6000fd5b505050506040513d601f19601f8201168201806040525081019061072d91906124a7565b158061080b5750816001600160a01b03166318160ddd6040518163ffffffff1660e01b8152600401602060405180830381865afa158015610772573d6000803e3d6000fd5b505050506040513d601f19601f8201168201806040525081019061079691906124c8565b15801561080b5750816001600160a01b0316634c19386c6040518163ffffffff1660e01b8152600401602060405180830381865afa1580156107dc573d6000803e3d6000fd5b505050506040513d601f19601f8201168201806040525081019061080091906124e9565b6001600160801b0316155b1561084d5761084684600001518481518110610829576108296117eb565b602002602001015183836000015184604001518860200151610b60565b5050610895565b806020015165ffffffffffff164211610879576040516314f61cf160e31b815260040160405180910390fd5b61089284600001518481518110610829576108296117eb565b50505b8061089f81611801565b91505061058b565b5050565b602081015151815151146108d2576040516352445ef760e01b815260040160405180910390fd5b61009081600001518260200151610ec3565b6108a7338260000151611042565b604051636eb1769f60e11b81526000906001600160a01b0385169063dd62ed3e90610923903090879060040161250a565b602060405180830381865afa158015610940573d6000803e3d6000fd5b505050506040513d601f19601f8201168201806040525081019061096491906124c8565b90508181101561099f578015610989576109896001600160a01b0385168460006111aa565b61099f6001600160a01b038516846000196111aa565b50505050565b60007f00000000000000000000000000000000000000000000000000000000000000006001600160a01b03166318e2a5606040518163ffffffff1660e01b8152600401602060405180830381865afa158015610a05573d6000803e3d6000fd5b505050506040513d601f19601f82011682018060405250810190610a2991906124c8565b90506000610a38600183612525565b600080546001810182559080527f290decd9548b62a8d60345a988386fc84ba6bc95484008f6362f93160ef3e5636008820401805460079092166004026101000a63ffffffff81810219909316928416029190911790556040519091507fca802b28938736a358ed2e446f2c9707d29773a4c3bcc5d12dc8b949569f96f490610ac2908390612545565b60405180910390a15050565b6040516370a0823160e01b81526000906001600160a01b038316906370a0823190610afd903090600401612553565b602060405180830381865afa158015610b1a573d6000803e3d6000fd5b505050506040513d601f19601f82011682018060405250810190610b3e91906124c8565b90508015610b5a57610b5a6001600160a01b03831684836111b5565b92915050565b306001600160a01b0316846001600160a01b0316638da5cb5b6040518163ffffffff1660e01b8152600401602060405180830381865afa158015610ba8573d6000803e3d6000fd5b505050506040513d601f19601f82011682018060405250810190610bcc9190612561565b6001600160a01b031614610bf357604051631d5395bb60e21b815260040160405180910390fd5b6000805b600054811015610d315760008181548110610c1457610c146117eb565b90600052602060002090600891828204019190066004029054906101000a900463ffffffff1663ffffffff168763ffffffff1603610d1f576000805460019350610c5f908490612582565b81548110610c6f57610c6f6117eb565b90600052602060002090600891828204019190066004029054906101000a900463ffffffff1660008281548110610ca857610ca86117eb565b90600052602060002090600891828204019190066004026101000a81548163ffffffff021916908363ffffffff1602179055506000805480610cec57610cec612595565b600082815260209020600860001990920191820401805463ffffffff600460078516026101000a02191690559055610d31565b80610d2981611801565b915050610bf7565b5080610d50576040516313ea76c160e01b815260040160405180910390fd5b81610e6e576040805160028082526060820183526000926020830190803683370190505090508581600081518110610d8a57610d8a6117eb565b60200260200101906001600160a01b031690816001600160a01b0316815250508581600181518110610dbe57610dbe6117eb565b6001600160a01b039290921660209283029190910182015260408051600280825260608201835260009391929091830190803683370190505090508581600081518110610e0d57610e0d6117eb565b60200260200101906001600160a01b031690816001600160a01b0316815250508481600181518110610e4157610e416117eb565b60200260200101906001600160a01b031690816001600160a01b031681525050610e6b8282610ec3565b50505b610e783385610ace565b50610e833384610ace565b507f861031828dc00fc7e9a345cc25d03d5ae9c1346e204dae895e6887a53559eae786604051610eb39190612545565b60405180910390a1505050505050565b60005b82518110156102e1576000828281518110610ee357610ee36117eb565b60200260200101516001600160a01b03166370a08231858481518110610f0b57610f0b6117eb565b60200260200101516040518263ffffffff1660e01b8152600401610f2f9190612553565b602060405180830381865afa158015610f4c573d6000803e3d6000fd5b505050506040513d601f19601f82011682018060405250810190610f7091906124c8565b9050801561102f577f00000000000000000000000000000000000000000000000000000000000000006001600160a01b0316630b620b81858481518110610fb957610fb96117eb565b602002602001015133868681518110610fd457610fd46117eb565b6020026020010151856040518563ffffffff1660e01b8152600401610ffc94939291906125ab565b600060405180830381600087803b15801561101657600080fd5b505af115801561102a573d6000803e3d6000fd5b505050505b508061103a81611801565b915050610ec6565b606081516001600160401b0381111561105d5761105d611487565b604051908082528060200260200182016040528015611086578160200160208202803683370190505b50905060005b825181101561029d5760008382815181106110a9576110a96117eb565b60200260200101519050806001600160a01b03166370a08231306040518263ffffffff1660e01b81526004016110df9190612553565b602060405180830381865afa1580156110fc573d6000803e3d6000fd5b505050506040513d601f19601f8201168201806040525081019061112091906124c8565b838381518110611132576111326117eb565b6020026020010181815250506000838381518110611152576111526117eb565b602002602001015111156111975761119785848481518110611176576111766117eb565b6020026020010151836001600160a01b03166111b59092919063ffffffff16565b50806111a281611801565b91505061108c565b6102e18383836111c0565b6102e18383836112b4565b8015806112395750604051636eb1769f60e11b81526001600160a01b0384169063dd62ed3e906111f6903090869060040161250a565b602060405180830381865afa158015611213573d6000803e3d6000fd5b505050506040513d601f19601f8201168201806040525081019061123791906124c8565b155b61125e5760405162461bcd60e51b815260040161125590612636565b60405180910390fd5b6102e18363095ea7b360e01b848460405160240161127d929190612646565b60408051601f198184030181529190526020810180516001600160e01b03166001600160e01b0319909316929092179091526112d3565b6102e18363a9059cbb60e01b848460405160240161127d929190612646565b6000611328826040518060400160405280602081526020017f5361666545524332303a206c6f772d6c6576656c2063616c6c206661696c6564815250856001600160a01b03166113629092919063ffffffff16565b8051909150156102e1578080602001905181019061134691906124a7565b6102e15760405162461bcd60e51b8152600401611255906126a8565b6060611371848460008561137b565b90505b9392505050565b60608247101561139d5760405162461bcd60e51b8152600401611255906126fb565b600080866001600160a01b031685876040516113b9919061272d565b60006040518083038185875af1925050503d80600081146113f6576040519150601f19603f3d011682016040523d82523d6000602084013e6113fb565b606091505b509150915061140c87838387611419565b925050505b949350505050565b60608315611458578251600003611451576001600160a01b0385163b6114515760405162461bcd60e51b815260040161125590612739565b5081611411565b611411838381511561146d5781518083602001fd5b8060405162461bcd60e51b81526004016112559190612774565b634e487b7160e01b600052604160045260246000fd5b601f19601f83011681018181106001600160401b03821117156114c2576114c2611487565b6040525050565b60006114d460405190565b90506114e0828261149d565b919050565b60006001600160401b038211156114fe576114fe611487565b601f19601f83011660200192915050565b82818337506000910152565b600061152e611529846114e5565b6114c9565b90508281526020810184848401111561154957611549600080fd5b61155484828561150f565b509392505050565b600082601f83011261157057611570600080fd5b813561141184826020860161151b565b60006020828403121561159557611595600080fd5b81356001600160401b038111156115ae576115ae600080fd5b6114118482850161155c565b805b82525050565b60208101610b5a82846115ba565b60006001600160a01b038216610b5a565b6115bc816115d0565b60006115f683836115e1565b505060200190565b6000611608825190565b80845260209384019383018060005b8381101561163c57815161162b88826115ea565b975060208301925050600101611617565b509495945050505050565b60006115f683836115ba565b600061165d825190565b80845260209384019383018060005b8381101561163c5781516116808882611647565b97506020830192505060010161166c565b604080825281016116a281856115fe565b905081810360208301526113718184611653565b805b811461009057600080fd5b8035610b5a816116b6565b600080604083850312156116e4576116e4600080fd5b60006116f085856116c3565b9250506020611701858286016116c3565b9150509250929050565b63ffffffff81166115bc565b60006115f6838361170b565b600061172d825190565b80845260209384019383018060005b8381101561163c5781516117508882611717565b97506020830192505060010161173c565b602080825281016113748184611723565b6000610b5a6001600160a01b038316611789565b90565b6001600160a01b031690565b6000610b5a82611772565b6000610b5a82611795565b6115bc816117a0565b60208101610b5a82846117ab565b634e487b7160e01b600052601160045260246000fd5b80820180821115610b5a57610b5a6117c2565b634e487b7160e01b600052603260045260246000fd5b60006000198203611814576118146117c2565b5060010190565b8051610b5a816116b6565b60005b83811015611841578181015183820152602001611829565b50506000910152565b6000611858611529846114e5565b90508281526020810184848401111561187357611873600080fd5b611554848285611826565b600082601f83011261189257611892600080fd5b815161141184826020860161184a565b600080604083850312156118b8576118b8600080fd5b60006118c4858561181b565b92505060208301516001600160401b038111156118e3576118e3600080fd5b6117018582860161187e565b6116b8816115d0565b8051610b5a816118ef565b65ffffffffffff81166116b8565b8051610b5a81611903565b6001600160801b0381166116b8565b8051610b5a8161191c565b6001600160401b0381166116b8565b8051610b5a81611936565b8015156116b8565b8051610b5a81611950565b600060a0828403121561197857611978600080fd5b61198260a06114c9565b905060006119908484611945565b82525060206119a1848483016118f8565b60208301525060406119b584828501611958565b60408301525060606119c984828501611958565b60608301525060806119dd848285016118f8565b60808301525092915050565b600061016082840312156119ff576119ff600080fd5b611a0960e06114c9565b90506000611a1784846118f8565b8252506020611a2884848301611911565b6020830152506040611a3c848285016118f8565b6040830152506060611a5084828501611911565b6060830152506080611a648482850161192b565b60808301525060a0611a788482850161192b565b60a08301525060c0611a8c84828501611963565b60c08301525092915050565b600060808284031215611aad57611aad600080fd5b611ab760806114c9565b90506000611ac5848461192b565b8252506020611ad68484830161181b565b60208301525060408201516001600160401b03811115611af857611af8600080fd5b611b048482850161187e565b6040830152506060611b18848285016118f8565b60608301525092915050565b60006101808284031215611b3a57611b3a600080fd5b611b4460406114c9565b90506000611b5284846119e9565b8252506101608201516001600160401b03811115611b7257611b72600080fd5b611b7e84828501611a98565b60208301525092915050565b600060408284031215611b9f57611b9f600080fd5b611ba960406114c9565b82519091506001600160401b03811115611bc557611bc5600080fd5b611bd184828501611b24565b8252506020611b7e848483016118f8565b600060208284031215611bf757611bf7600080fd5b81516001600160401b03811115611c1057611c10600080fd5b61141184828501611b8a565b63ffffffff81166116b8565b8051610b5a81611c1c565b60006101208284031215611c4957611c49600080fd5b611c546101206114c9565b90506000611c62848461192b565b8252506020611c7384848301611911565b6020830152506040611c8784828501611911565b6040830152506060611c9b84828501611c28565b6060830152506080611caf84828501611c28565b60808301525060a0611cc384828501611945565b60a08301525060c0611cd784828501611945565b60c08301525060e0611ceb8482850161192b565b60e083015250610100611d008482850161192b565b6101008301525092915050565b60006102208284031215611d2357611d23600080fd5b611d2d60a06114c9565b90506000611d3b84846118f8565b8252506020611d4c848483016118f8565b6020830152506040611d608482850161192b565b6040830152506060611d7484828501611c33565b6060830152506101806119dd84828501611963565b60006102408284031215611d9f57611d9f600080fd5b611da960406114c9565b90506000611db78484611d0d565b825250610220611b7e848483016118f8565b60006102408284031215611ddf57611ddf600080fd5b60006114118484611d89565b60006001600160401b03821115611e0457611e04611487565b5060209081020190565b6000611e1c61152984611deb565b83815290506020808201908402830185811115611e3b57611e3b600080fd5b835b81811015611e5f5780611e508882611c28565b84525060209283019201611e3d565b5050509392505050565b600082601f830112611e7d57611e7d600080fd5b8151611411848260208601611e0e565b600060408284031215611ea257611ea2600080fd5b611eac60406114c9565b82519091506001600160401b03811115611ec857611ec8600080fd5b611ed484828501611e69565b8252506020611b7e84848301611958565b600060208284031215611efa57611efa600080fd5b81516001600160401b03811115611f1357611f13600080fd5b61141184828501611e8d565b6000611f2d61152984611deb565b83815290506020808201908402830185811115611f4c57611f4c600080fd5b835b81811015611e5f5780611f6188826118f8565b84525060209283019201611f4e565b600082601f830112611f8457611f84600080fd5b8151611411848260208601611f1f565b600060408284031215611fa957611fa9600080fd5b611fb360406114c9565b82519091506001600160401b03811115611fcf57611fcf600080fd5b611fdb84828501611f70565b82525060208201516001600160401b03811115611ffa57611ffa600080fd5b611b7e84828501611f70565b60006020828403121561201b5761201b600080fd5b81516001600160401b0381111561203457612034600080fd5b61141184828501611f94565b60006020828403121561205557612055600080fd5b61205f60206114c9565b82519091506001600160401b0381111561207b5761207b600080fd5b61208784828501611f70565b82525092915050565b6000602082840312156120a5576120a5600080fd5b81516001600160401b038111156120be576120be600080fd5b61141184828501612040565b65ffffffffffff81166115bc565b6001600160801b0381166115bc565b6001600160401b0381166115bc565b8015156115bc565b805160a083019061210f84826120e7565b50602082015161212260208501826115e1565b50604082015161213560408501826120f6565b50606082015161214860608501826120f6565b50608082015161099f60808501826115e1565b805161016083019061216d84826115e1565b50602082015161218060208501826120ca565b50604082015161219360408501826115e1565b5060608201516121a660608501826120ca565b5060808201516121b960808501826120d8565b5060a08201516121cc60a08501826120d8565b5060c082015161099f60c08501826120fe565b60006121e9825190565b808452602084019350612200818560208601611826565b601f01601f19169290920192915050565b8051600090608084019061222585826120d8565b50602083015161223860208601826115ba565b506040830151848203604086015261225082826121df565b915050606083015161155460608601826115e1565b805160009061018084019061227a858261215b565b5060208301518482036101608601526122938282612211565b95945050505050565b606081016122aa82866115e1565b81810360208301526122bc8185612265565b905061141160408301846115e1565b80516101208301906122dd84826120d8565b5060208201516122f060208501826120ca565b50604082015161230360408501826120ca565b506060820151612316606085018261170b565b506080820151612329608085018261170b565b5060a082015161233c60a08501826120e7565b5060c082015161234f60c08501826120e7565b5060e082015161236260e08501826120d8565b5061010082015161099f6101008501826120d8565b805161022083019061238984826115e1565b50602082015161239c60208501826115e1565b5060408201516123af60408501826120d8565b5060608201516123c260608501826122cb565b50608082015161099f6101808501826120fe565b61026081016123e582866115e1565b6123f26020830185612377565b6114116102408301846115e1565b6000610b5a61178663ffffffff841681565b6115bc81612400565b6000610b5a6117868381565b6115bc8161241b565b6040810161243e8285612412565b6113746020830184612427565b60006020828403121561246057612460600080fd5b81516001600160401b0381111561247957612479600080fd5b61141184828501611f70565b6000610160828403121561249b5761249b600080fd5b600061141184846119e9565b6000602082840312156124bc576124bc600080fd5b60006114118484611958565b6000602082840312156124dd576124dd600080fd5b6000611411848461181b565b6000602082840312156124fe576124fe600080fd5b6000611411848461192b565b6040810161251882856115e1565b61137460208301846115e1565b63ffffffff918216919081169082820390811115610b5a57610b5a6117c2565b60208101610b5a8284612412565b60208101610b5a82846115e1565b60006020828403121561257657612576600080fd5b600061141184846118f8565b81810381811115610b5a57610b5a6117c2565b634e487b7160e01b600052603160045260246000fd5b608081016125b982876115e1565b6125c660208301866115e1565b6125d360408301856115e1565b61229360608301846115ba565b603681526000602082017f5361666545524332303a20617070726f76652066726f6d206e6f6e2d7a65726f81527520746f206e6f6e2d7a65726f20616c6c6f77616e636560501b602082015291505b5060400190565b60208082528101610b5a816125e0565b6040810161265482856115e1565b61137460208301846115ba565b602a81526000602082017f5361666545524332303a204552433230206f7065726174696f6e20646964206e8152691bdd081cdd58d8d9595960b21b6020820152915061262f565b60208082528101610b5a81612661565b602681526000602082017f416464726573733a20696e73756666696369656e742062616c616e636520666f8152651c8818d85b1b60d21b6020820152915061262f565b60208082528101610b5a816126b8565b6000612715825190565b612723818560208601611826565b9290920192915050565b6000611374828461270b565b60208082528101610b5a81601d81527f416464726573733a2063616c6c20746f206e6f6e2d636f6e7472616374000000602082015260400190565b6020808252810161137481846121df56","linkReferences":{}},"methodIdentifiers":{"MYSO_ROUTER()":"ab7bc3e2","getDebtAssets()":"ecd658b4","getEscrowIdxs(uint256,uint256)":"a30422ee","getManagedAssets()":"80daddb8","getNumOpenEscrows()":"7cee9662","init(bytes)":"4ddf47d4","receiveCallFromVault(bytes)":"e5c23a97"},"id":129}