{"abi":[{"type":"constructor","inputs":[{"name":"_integrationManager","type":"address","internalType":"address"},{"name":"_compoundPriceFeed","type":"address","internalType":"address"},{"name":"_wethToken","type":"address","internalType":"address"}],"stateMutability":"nonpayable"},{"type":"receive","stateMutability":"payable"},{"type":"function","name":"CLAIM_REWARDS_SELECTOR","inputs":[],"outputs":[{"name":"","type":"bytes4","internalType":"bytes4"}],"stateMutability":"view"},{"type":"function","name":"LEND_AND_STAKE_SELECTOR","inputs":[],"outputs":[{"name":"","type":"bytes4","internalType":"bytes4"}],"stateMutability":"view"},{"type":"function","name":"LEND_SELECTOR","inputs":[],"outputs":[{"name":"","type":"bytes4","internalType":"bytes4"}],"stateMutability":"view"},{"type":"function","name":"REDEEM_SELECTOR","inputs":[],"outputs":[{"name":"","type":"bytes4","internalType":"bytes4"}],"stateMutability":"view"},{"type":"function","name":"STAKE_SELECTOR","inputs":[],"outputs":[{"name":"","type":"bytes4","internalType":"bytes4"}],"stateMutability":"view"},{"type":"function","name":"TAKE_MULTIPLE_ORDERS_SELECTOR","inputs":[],"outputs":[{"name":"","type":"bytes4","internalType":"bytes4"}],"stateMutability":"view"},{"type":"function","name":"TAKE_ORDER_SELECTOR","inputs":[],"outputs":[{"name":"","type":"bytes4","internalType":"bytes4"}],"stateMutability":"view"},{"type":"function","name":"UNSTAKE_AND_REDEEM_SELECTOR","inputs":[],"outputs":[{"name":"","type":"bytes4","internalType":"bytes4"}],"stateMutability":"view"},{"type":"function","name":"UNSTAKE_SELECTOR","inputs":[],"outputs":[{"name":"","type":"bytes4","internalType":"bytes4"}],"stateMutability":"view"},{"type":"function","name":"claimRewards","inputs":[{"name":"_vaultProxy","type":"address","internalType":"address"},{"name":"_actionData","type":"bytes","internalType":"bytes"},{"name":"","type":"bytes","internalType":"bytes"}],"outputs":[],"stateMutability":"nonpayable"},{"type":"function","name":"getCompoundPriceFeed","inputs":[],"outputs":[{"name":"compoundPriceFeed_","type":"address","internalType":"address"}],"stateMutability":"view"},{"type":"function","name":"getCompoundWethToken","inputs":[],"outputs":[{"name":"compoundWethToken_","type":"address","internalType":"address"}],"stateMutability":"view"},{"type":"function","name":"getIntegrationManager","inputs":[],"outputs":[{"name":"integrationManager_","type":"address","internalType":"address"}],"stateMutability":"view"},{"type":"function","name":"lend","inputs":[{"name":"_vaultProxy","type":"address","internalType":"address"},{"name":"","type":"bytes","internalType":"bytes"},{"name":"_assetData","type":"bytes","internalType":"bytes"}],"outputs":[],"stateMutability":"nonpayable"},{"type":"function","name":"parseAssetsForAction","inputs":[{"name":"","type":"address","internalType":"address"},{"name":"_selector","type":"bytes4","internalType":"bytes4"},{"name":"_actionData","type":"bytes","internalType":"bytes"}],"outputs":[{"name":"spendAssetsHandleType_","type":"uint8","internalType":"enum IIntegrationManager.SpendAssetsHandleType"},{"name":"spendAssets_","type":"address[]","internalType":"address[]"},{"name":"spendAssetAmounts_","type":"uint256[]","internalType":"uint256[]"},{"name":"incomingAssets_","type":"address[]","internalType":"address[]"},{"name":"minIncomingAssetAmounts_","type":"uint256[]","internalType":"uint256[]"}],"stateMutability":"view"},{"type":"function","name":"redeem","inputs":[{"name":"_vaultProxy","type":"address","internalType":"address"},{"name":"","type":"bytes","internalType":"bytes"},{"name":"_assetData","type":"bytes","internalType":"bytes"}],"outputs":[],"stateMutability":"nonpayable"}],"bytecode":{"object":"0x60e060405234801561001057600080fd5b50604051612b56380380612b568339818101604052606081101561003357600080fd5b8101908080519060200190929190805190602001909291908051906020019092919050505082828280838073ffffffffffffffffffffffffffffffffffffffff1660808173ffffffffffffffffffffffffffffffffffffffff1660601b81525050508073ffffffffffffffffffffffffffffffffffffffff1660a08173ffffffffffffffffffffffffffffffffffffffff1660601b81525050508173ffffffffffffffffffffffffffffffffffffffff1660c08173ffffffffffffffffffffffffffffffffffffffff1660601b8152505050505050505060805160601c60a05160601c60c05160601c6129ea61016c60003980610b7f5280611a265280611dd0525080610bef52806113fe528061145252806118d252806119265250806109855280610c5d5280610e2952806111d052506129ea6000f3fe6080604052600436106100f75760003560e01c8063863e5ad01161008a578063c32990a211610059578063c32990a21461067c578063c54efee5146106c6578063e7c45690146108d4578063f7d882b514610915576100fe565b8063863e5ad0146103f2578063b23228cf1461043c578063b9dfbacc14610486578063c29fa9dd14610581576100fe565b806332bf8227116100c657806332bf8227146102dc5780633ffc15911461031d57806340da225d1461036757806371dce850146103b1576100fe565b8063080456c114610103578063099f75151461014d578063131461c014610248578063257cb1a314610292576100fe565b366100fe57005b600080fd5b34801561010f57600080fd5b5061011861095f565b60405180827bffffffffffffffffffffffffffffffffffffffffffffffffffffffff1916815260200191505060405180910390f35b34801561015957600080fd5b506102466004803603606081101561017057600080fd5b81019080803573ffffffffffffffffffffffffffffffffffffffff169060200190929190803590602001906401000000008111156101ad57600080fd5b8201836020820111156101bf57600080fd5b803590602001918460018302840111640100000000831117156101e157600080fd5b90919293919293908035906020019064010000000081111561020257600080fd5b82018360208201111561021457600080fd5b8035906020019184600183028401116401000000008311171561023657600080fd5b9091929391929390505050610983565b005b34801561025457600080fd5b5061025d610b33565b60405180827bffffffffffffffffffffffffffffffffffffffffffffffffffffffff1916815260200191505060405180910390f35b34801561029e57600080fd5b506102a7610b57565b60405180827bffffffffffffffffffffffffffffffffffffffffffffffffffffffff1916815260200191505060405180910390f35b3480156102e857600080fd5b506102f1610b7b565b604051808273ffffffffffffffffffffffffffffffffffffffff16815260200191505060405180910390f35b34801561032957600080fd5b50610332610ba3565b60405180827bffffffffffffffffffffffffffffffffffffffffffffffffffffffff1916815260200191505060405180910390f35b34801561037357600080fd5b5061037c610bc7565b60405180827bffffffffffffffffffffffffffffffffffffffffffffffffffffffff1916815260200191505060405180910390f35b3480156103bd57600080fd5b506103c6610beb565b604051808273ffffffffffffffffffffffffffffffffffffffff16815260200191505060405180910390f35b3480156103fe57600080fd5b50610407610c13565b60405180827bffffffffffffffffffffffffffffffffffffffffffffffffffffffff1916815260200191505060405180910390f35b34801561044857600080fd5b50610451610c37565b60405180827bffffffffffffffffffffffffffffffffffffffffffffffffffffffff1916815260200191505060405180910390f35b34801561049257600080fd5b5061057f600480360360608110156104a957600080fd5b81019080803573ffffffffffffffffffffffffffffffffffffffff169060200190929190803590602001906401000000008111156104e657600080fd5b8201836020820111156104f857600080fd5b8035906020019184600183028401116401000000008311171561051a57600080fd5b90919293919293908035906020019064010000000081111561053b57600080fd5b82018360208201111561054d57600080fd5b8035906020019184600183028401116401000000008311171561056f57600080fd5b9091929391929390505050610c5b565b005b34801561058d57600080fd5b5061067a600480360360608110156105a457600080fd5b81019080803573ffffffffffffffffffffffffffffffffffffffff169060200190929190803590602001906401000000008111156105e157600080fd5b8201836020820111156105f357600080fd5b8035906020019184600183028401116401000000008311171561061557600080fd5b90919293919293908035906020019064010000000081111561063657600080fd5b82018360208201111561064857600080fd5b8035906020019184600183028401116401000000008311171561066a57600080fd5b9091929391929390505050610e27565b005b34801561068857600080fd5b50610691610fd7565b60405180827bffffffffffffffffffffffffffffffffffffffffffffffffffffffff1916815260200191505060405180910390f35b3480156106d257600080fd5b50610793600480360360608110156106e957600080fd5b81019080803573ffffffffffffffffffffffffffffffffffffffff16906020019092919080357bffffffffffffffffffffffffffffffffffffffffffffffffffffffff191690602001909291908035906020019064010000000081111561074f57600080fd5b82018360208201111561076157600080fd5b8035906020019184600183028401116401000000008311171561078357600080fd5b9091929391929390505050610ffb565b604051808660028111156107a357fe5b815260200180602001806020018060200180602001858103855289818151815260200191508051906020019060200280838360005b838110156107f35780820151818401526020810190506107d8565b50505050905001858103845288818151815260200191508051906020019060200280838360005b8381101561083557808201518184015260208101905061081a565b50505050905001858103835287818151815260200191508051906020019060200280838360005b8381101561087757808201518184015260208101905061085c565b50505050905001858103825286818151815260200191508051906020019060200280838360005b838110156108b957808201518184015260208101905061089e565b50505050905001995050505050505050505060405180910390f35b3480156108e057600080fd5b506108e96111cc565b604051808273ffffffffffffffffffffffffffffffffffffffff16815260200191505060405180910390f35b34801561092157600080fd5b5061092a6111f4565b60405180827bffffffffffffffffffffffffffffffffffffffffffffffffffffffff1916815260200191505060405180910390f35b7f8334eb99be0145865eba9889fca2ee920288090caefff4cc776038e20ad9259a81565b7f000000000000000000000000000000000000000000000000000000000000000073ffffffffffffffffffffffffffffffffffffffff163373ffffffffffffffffffffffffffffffffffffffff1614610a27576040517f08c379a00000000000000000000000000000000000000000000000000000000081526004018080602001828103825260328152602001806128d36032913960400191505060405180910390fd5b8482828080601f016020809104026020016040519081016040528093929190818152602001838380828437600081840152601f19601f820116905080830192505050505050506060806060610abf87878080601f016020809104026020016040519081016040528093929190818152602001838380828437600081840152601f19601f82011690508083019250505050505050611218565b925092509250610b0c83600081518110610ad557fe5b602002602001015183600081518110610aea57fe5b602002602001015183600081518110610aff57fe5b60200260200101516113fc565b5050506060610b1a82611218565b92505050610b2883826115e1565b505050505050505050565b7f29fa046e79524c3c5ac4c01df692c35e217802b2b13b21121b76cf0ef02b138c81565b7f099f75155f0e997bf83a7993a71d5e7e7540bd386fe1e84643a09ce6b412521981565b60007f0000000000000000000000000000000000000000000000000000000000000000905090565b7ffa7dd04da627f433da73c4355ead9c75682a67a8fc84d3f6170ef0922f402d2481565b7fb9dfbaccbe5cd2a84fdcf1d15f23ef25d23086f5afbaa99516065ed4a5bbc7a381565b60007f0000000000000000000000000000000000000000000000000000000000000000905090565b7f03e38a2bd7063d45c897edeafc330e71657502dd86434d3c37a489caf116af6981565b7f68e30677f607df46e87da13e15b637784cfa62374b653f35ab43d10361a2f83081565b7f000000000000000000000000000000000000000000000000000000000000000073ffffffffffffffffffffffffffffffffffffffff163373ffffffffffffffffffffffffffffffffffffffff1614610cff576040517f08c379a00000000000000000000000000000000000000000000000000000000081526004018080602001828103825260328152602001806128d36032913960400191505060405180910390fd5b60606000610d5086868080601f016020809104026020016040519081016040528093929190818152602001838380828437600081840152601f19601f8201169050808301925050505050505061177b565b915091508073ffffffffffffffffffffffffffffffffffffffff16631c3db2e088846040518363ffffffff1660e01b8152600401808373ffffffffffffffffffffffffffffffffffffffff16815260200180602001828103825283818151815260200191508051906020019060200280838360005b83811015610de0578082015181840152602081019050610dc5565b505050509050019350505050600060405180830381600087803b158015610e0657600080fd5b505af1158015610e1a573d6000803e3d6000fd5b5050505050505050505050565b7f000000000000000000000000000000000000000000000000000000000000000073ffffffffffffffffffffffffffffffffffffffff163373ffffffffffffffffffffffffffffffffffffffff1614610ecb576040517f08c379a00000000000000000000000000000000000000000000000000000000081526004018080602001828103825260328152602001806128d36032913960400191505060405180910390fd5b8482828080601f016020809104026020016040519081016040528093929190818152602001838380828437600081840152601f19601f820116905080830192505050505050506060806060610f6387878080601f016020809104026020016040519081016040528093929190818152602001838380828437600081840152601f19601f82011690508083019250505050505050611218565b925092509250610fb083600081518110610f7957fe5b602002602001015183600081518110610f8e57fe5b602002602001015183600081518110610fa357fe5b6020026020010151611841565b5050506060610fbe82611218565b92505050610fcc83826115e1565b505050505050505050565b7f0e7f692dad5b88fdee426250d6eae91207e56a2e8112b7364579bed1790e5bf481565b60006060806060807f099f75155f0e997bf83a7993a71d5e7e7540bd386fe1e84643a09ce6b41252197bffffffffffffffffffffffffffffffffffffffffffffffffffffffff1916887bffffffffffffffffffffffffffffffffffffffffffffffffffffffff191614156110825761107387876119c2565b945094509450945094506111c1565b7fc29fa9dde84204c2908778afd0613d802d31cf046179b88f6d2b4a4e507ea2d57bffffffffffffffffffffffffffffffffffffffffffffffffffffffff1916887bffffffffffffffffffffffffffffffffffffffffffffffffffffffff19161415611101576110f28787611d6c565b945094509450945094506111c1565b7fb9dfbaccbe5cd2a84fdcf1d15f23ef25d23086f5afbaa99516065ed4a5bbc7a37bffffffffffffffffffffffffffffffffffffffffffffffffffffffff1916887bffffffffffffffffffffffffffffffffffffffffffffffffffffffff1916141561117057600094506111c1565b6040517f08c379a00000000000000000000000000000000000000000000000000000000081526004018080602001828103825260278152602001806129b76027913960400191505060405180910390fd5b945094509450945094565b60007f0000000000000000000000000000000000000000000000000000000000000000905090565b7fc29fa9dde84204c2908778afd0613d802d31cf046179b88f6d2b4a4e507ea2d581565b606080606083806020019051606081101561123257600080fd5b810190808051604051939291908464010000000082111561125257600080fd5b8382019150602082018581111561126857600080fd5b825186602082028301116401000000008211171561128557600080fd5b8083526020830192505050908051906020019060200280838360005b838110156112bc5780820151818401526020810190506112a1565b50505050905001604052602001805160405193929190846401000000008211156112e557600080fd5b838201915060208201858111156112fb57600080fd5b825186602082028301116401000000008211171561131857600080fd5b8083526020830192505050908051906020019060200280838360005b8381101561134f578082015181840152602081019050611334565b505050509050016040526020018051604051939291908464010000000082111561137857600080fd5b8382019150602082018581111561138e57600080fd5b82518660208202830111640100000000821117156113ab57600080fd5b8083526020830192505050908051906020019060200280838360005b838110156113e25780820151818401526020810190506113c7565b505050509050016040525050509250925092509193909250565b7f000000000000000000000000000000000000000000000000000000000000000073ffffffffffffffffffffffffffffffffffffffff168373ffffffffffffffffffffffffffffffffffffffff161415611541577f000000000000000000000000000000000000000000000000000000000000000073ffffffffffffffffffffffffffffffffffffffff16632e1a7d4d836040518263ffffffff1660e01b815260040180828152602001915050600060405180830381600087803b1580156114c357600080fd5b505af11580156114d7573d6000803e3d6000fd5b505050508073ffffffffffffffffffffffffffffffffffffffff16631249c58b836040518263ffffffff1660e01b81526004016000604051808303818588803b15801561152357600080fd5b505af1158015611537573d6000803e3d6000fd5b50505050506115dc565b61154c838284612116565b8073ffffffffffffffffffffffffffffffffffffffff1663a0712d68836040518263ffffffff1660e01b815260040180828152602001915050602060405180830381600087803b15801561159f57600080fd5b505af11580156115b3573d6000803e3d6000fd5b505050506040513d60208110156115c957600080fd5b8101908080519060200190929190505050505b505050565b6060815167ffffffffffffffff811180156115fb57600080fd5b5060405190808252806020026020018201604052801561162a5781602001602082028036833780820191505090505b50905060005b825181101561177457600083828151811061164757fe5b602002602001015190508073ffffffffffffffffffffffffffffffffffffffff166370a08231306040518263ffffffff1660e01b8152600401808273ffffffffffffffffffffffffffffffffffffffff16815260200191505060206040518083038186803b1580156116b857600080fd5b505afa1580156116cc573d6000803e3d6000fd5b505050506040513d60208110156116e257600080fd5b81019080805190602001909291905050508383815181106116ff57fe5b602002602001018181525050600083838151811061171957fe5b60200260200101511115611766576117658584848151811061173757fe5b60200260200101518373ffffffffffffffffffffffffffffffffffffffff1661226a9092919063ffffffff16565b5b508080600101915050611630565b5092915050565b6060600082806020019051604081101561179457600080fd5b81019080805160405193929190846401000000008211156117b457600080fd5b838201915060208201858111156117ca57600080fd5b82518660208202830111640100000000821117156117e757600080fd5b8083526020830192505050908051906020019060200280838360005b8381101561181e578082015181840152602081019050611803565b505050509050016040526020018051906020019092919050505091509150915091565b8273ffffffffffffffffffffffffffffffffffffffff1663db006a75836040518263ffffffff1660e01b815260040180828152602001915050602060405180830381600087803b15801561189457600080fd5b505af11580156118a8573d6000803e3d6000fd5b505050506040513d60208110156118be57600080fd5b8101908080519060200190929190505050507f000000000000000000000000000000000000000000000000000000000000000073ffffffffffffffffffffffffffffffffffffffff168173ffffffffffffffffffffffffffffffffffffffff1614156119bd577f000000000000000000000000000000000000000000000000000000000000000073ffffffffffffffffffffffffffffffffffffffff1663d0e30db03073ffffffffffffffffffffffffffffffffffffffff16316040518263ffffffff1660e01b81526004016000604051808303818588803b1580156119a357600080fd5b505af11580156119b7573d6000803e3d6000fd5b50505050505b505050565b60006060806060806000806000611a1c8a8a8080601f016020809104026020016040519081016040528093929190818152602001838380828437600081840152601f19601f8201169050808301925050505050505061230c565b92509250925060007f000000000000000000000000000000000000000000000000000000000000000073ffffffffffffffffffffffffffffffffffffffff16634cae3ad7856040518263ffffffff1660e01b8152600401808273ffffffffffffffffffffffffffffffffffffffff16815260200191505060206040518083038186803b158015611aab57600080fd5b505afa158015611abf573d6000803e3d6000fd5b505050506040513d6020811015611ad557600080fd5b81019080805190602001909291905050509050600073ffffffffffffffffffffffffffffffffffffffff168173ffffffffffffffffffffffffffffffffffffffff161415611b6e576040517f08c379a000000000000000000000000000000000000000000000000000000000815260040180806020018281038252602881526020018061292f6028913960400191505060405180910390fd5b600167ffffffffffffffff81118015611b8657600080fd5b50604051908082528060200260200182016040528015611bb55781602001602082028036833780820191505090505b5097508088600081518110611bc657fe5b602002602001019073ffffffffffffffffffffffffffffffffffffffff16908173ffffffffffffffffffffffffffffffffffffffff1681525050600167ffffffffffffffff81118015611c1857600080fd5b50604051908082528060200260200182016040528015611c475781602001602082028036833780820191505090505b5096508287600081518110611c5857fe5b602002602001018181525050600167ffffffffffffffff81118015611c7c57600080fd5b50604051908082528060200260200182016040528015611cab5781602001602082028036833780820191505090505b5095508386600081518110611cbc57fe5b602002602001019073ffffffffffffffffffffffffffffffffffffffff16908173ffffffffffffffffffffffffffffffffffffffff1681525050600167ffffffffffffffff81118015611d0e57600080fd5b50604051908082528060200260200182016040528015611d3d5781602001602082028036833780820191505090505b5094508185600081518110611d4e57fe5b60200260200101818152505060029850505050509295509295909350565b60006060806060806000806000611dc68a8a8080601f016020809104026020016040519081016040528093929190818152602001838380828437600081840152601f19601f8201169050808301925050505050505061230c565b92509250925060007f000000000000000000000000000000000000000000000000000000000000000073ffffffffffffffffffffffffffffffffffffffff16634cae3ad7856040518263ffffffff1660e01b8152600401808273ffffffffffffffffffffffffffffffffffffffff16815260200191505060206040518083038186803b158015611e5557600080fd5b505afa158015611e69573d6000803e3d6000fd5b505050506040513d6020811015611e7f57600080fd5b81019080805190602001909291905050509050600073ffffffffffffffffffffffffffffffffffffffff168173ffffffffffffffffffffffffffffffffffffffff161415611f18576040517f08c379a000000000000000000000000000000000000000000000000000000000815260040180806020018281038252602a815260200180612905602a913960400191505060405180910390fd5b600167ffffffffffffffff81118015611f3057600080fd5b50604051908082528060200260200182016040528015611f5f5781602001602082028036833780820191505090505b5097508388600081518110611f7057fe5b602002602001019073ffffffffffffffffffffffffffffffffffffffff16908173ffffffffffffffffffffffffffffffffffffffff1681525050600167ffffffffffffffff81118015611fc257600080fd5b50604051908082528060200260200182016040528015611ff15781602001602082028036833780820191505090505b509650828760008151811061200257fe5b602002602001018181525050600167ffffffffffffffff8111801561202657600080fd5b506040519080825280602002602001820160405280156120555781602001602082028036833780820191505090505b509550808660008151811061206657fe5b602002602001019073ffffffffffffffffffffffffffffffffffffffff16908173ffffffffffffffffffffffffffffffffffffffff1681525050600167ffffffffffffffff811180156120b857600080fd5b506040519080825280602002602001820160405280156120e75781602001602082028036833780820191505090505b50945081856000815181106120f857fe5b60200260200101818152505060029850505050509295509295909350565b60008373ffffffffffffffffffffffffffffffffffffffff1663dd62ed3e30856040518363ffffffff1660e01b8152600401808373ffffffffffffffffffffffffffffffffffffffff1681526020018273ffffffffffffffffffffffffffffffffffffffff1681526020019250505060206040518083038186803b15801561219d57600080fd5b505afa1580156121b1573d6000803e3d6000fd5b505050506040513d60208110156121c757600080fd5b8101908080519060200190929190505050905081811015612264576000811115612218576122178360008673ffffffffffffffffffffffffffffffffffffffff166123589092919063ffffffff16565b5b612263837fffffffffffffffffffffffffffffffffffffffffffffffffffffffffffffffff8673ffffffffffffffffffffffffffffffffffffffff166123589092919063ffffffff16565b5b50505050565b6123078363a9059cbb60e01b8484604051602401808373ffffffffffffffffffffffffffffffffffffffff16815260200182815260200192505050604051602081830303815290604052907bffffffffffffffffffffffffffffffffffffffffffffffffffffffff19166020820180517bffffffffffffffffffffffffffffffffffffffffffffffffffffffff838183161783525050505061251d565b505050565b600080600083806020019051606081101561232657600080fd5b810190808051906020019092919080519060200190929190805190602001909291905050509250925092509193909250565b6000811480612426575060008373ffffffffffffffffffffffffffffffffffffffff1663dd62ed3e30856040518363ffffffff1660e01b8152600401808373ffffffffffffffffffffffffffffffffffffffff1681526020018273ffffffffffffffffffffffffffffffffffffffff1681526020019250505060206040518083038186803b1580156123e957600080fd5b505afa1580156123fd573d6000803e3d6000fd5b505050506040513d602081101561241357600080fd5b8101908080519060200190929190505050145b61247b576040517f08c379a00000000000000000000000000000000000000000000000000000000081526004018080602001828103825260368152602001806129816036913960400191505060405180910390fd5b6125188363095ea7b360e01b8484604051602401808373ffffffffffffffffffffffffffffffffffffffff16815260200182815260200192505050604051602081830303815290604052907bffffffffffffffffffffffffffffffffffffffffffffffffffffffff19166020820180517bffffffffffffffffffffffffffffffffffffffffffffffffffffffff838183161783525050505061251d565b505050565b606061257f826040518060400160405280602081526020017f5361666545524332303a206c6f772d6c6576656c2063616c6c206661696c65648152508573ffffffffffffffffffffffffffffffffffffffff1661260c9092919063ffffffff16565b9050600081511115612607578080602001905160208110156125a057600080fd5b8101908080519060200190929190505050612606576040517f08c379a000000000000000000000000000000000000000000000000000000000815260040180806020018281038252602a815260200180612957602a913960400191505060405180910390fd5b5b505050565b606061261b8484600085612624565b90509392505050565b60608247101561267f576040517f08c379a00000000000000000000000000000000000000000000000000000000081526004018080602001828103825260268152602001806128ad6026913960400191505060405180910390fd5b612688856127cd565b6126fa576040517f08c379a000000000000000000000000000000000000000000000000000000000815260040180806020018281038252601d8152602001807f416464726573733a2063616c6c20746f206e6f6e2d636f6e747261637400000081525060200191505060405180910390fd5b600060608673ffffffffffffffffffffffffffffffffffffffff1685876040518082805190602001908083835b6020831061274a5780518252602082019150602081019050602083039250612727565b6001836020036101000a03801982511681845116808217855250505050505090500191505060006040518083038185875af1925050503d80600081146127ac576040519150601f19603f3d011682016040523d82523d6000602084013e6127b1565b606091505b50915091506127c18282866127e0565b92505050949350505050565b600080823b905060008111915050919050565b606083156127f0578290506128a5565b6000835111156128035782518084602001fd5b816040517f08c379a00000000000000000000000000000000000000000000000000000000081526004018080602001828103825283818151815260200191508051906020019080838360005b8381101561286a57808201518184015260208101905061284f565b50505050905090810190601f1680156128975780820380516001836020036101000a031916815260200191505b509250505060405180910390fd5b939250505056fe416464726573733a20696e73756666696369656e742062616c616e636520666f722063616c6c4f6e6c792074686520496e746567726174696f6e4d616e616765722063616e2063616c6c20746869732066756e6374696f6e5f5f7061727365417373657473466f7252656465656d3a20556e737570706f727465642063546f6b656e5f5f7061727365417373657473466f724c656e643a20556e737570706f727465642063546f6b656e5361666545524332303a204552433230206f7065726174696f6e20646964206e6f7420737563636565645361666545524332303a20617070726f76652066726f6d206e6f6e2d7a65726f20746f206e6f6e2d7a65726f20616c6c6f77616e63657061727365417373657473466f72416374696f6e3a205f73656c6563746f7220696e76616c6964a164736f6c634300060c000a","linkReferences":{}},"methodIdentifiers":{"CLAIM_REWARDS_SELECTOR()":"40da225d","LEND_AND_STAKE_SELECTOR()":"131461c0","LEND_SELECTOR()":"257cb1a3","REDEEM_SELECTOR()":"f7d882b5","STAKE_SELECTOR()":"3ffc1591","TAKE_MULTIPLE_ORDERS_SELECTOR()":"c32990a2","TAKE_ORDER_SELECTOR()":"863e5ad0","UNSTAKE_AND_REDEEM_SELECTOR()":"080456c1","UNSTAKE_SELECTOR()":"b23228cf","claimRewards(address,bytes,bytes)":"b9dfbacc","getCompoundPriceFeed()":"32bf8227","getCompoundWethToken()":"71dce850","getIntegrationManager()":"e7c45690","lend(address,bytes,bytes)":"099f7515","parseAssetsForAction(address,bytes4,bytes)":"c54efee5","redeem(address,bytes,bytes)":"c29fa9dd"},"id":210}