{"abi":[{"type":"constructor","inputs":[{"name":"_integrationManager","type":"address","internalType":"address"},{"name":"_compoundPriceFeed","type":"address","internalType":"address"},{"name":"_wethToken","type":"address","internalType":"address"}],"stateMutability":"nonpayable"},{"type":"receive","stateMutability":"payable"},{"type":"function","name":"CLAIM_REWARDS_SELECTOR","inputs":[],"outputs":[{"name":"","type":"bytes4","internalType":"bytes4"}],"stateMutability":"view"},{"type":"function","name":"LEND_AND_STAKE_SELECTOR","inputs":[],"outputs":[{"name":"","type":"bytes4","internalType":"bytes4"}],"stateMutability":"view"},{"type":"function","name":"LEND_SELECTOR","inputs":[],"outputs":[{"name":"","type":"bytes4","internalType":"bytes4"}],"stateMutability":"view"},{"type":"function","name":"REDEEM_SELECTOR","inputs":[],"outputs":[{"name":"","type":"bytes4","internalType":"bytes4"}],"stateMutability":"view"},{"type":"function","name":"STAKE_SELECTOR","inputs":[],"outputs":[{"name":"","type":"bytes4","internalType":"bytes4"}],"stateMutability":"view"},{"type":"function","name":"TAKE_MULTIPLE_ORDERS_SELECTOR","inputs":[],"outputs":[{"name":"","type":"bytes4","internalType":"bytes4"}],"stateMutability":"view"},{"type":"function","name":"TAKE_ORDER_SELECTOR","inputs":[],"outputs":[{"name":"","type":"bytes4","internalType":"bytes4"}],"stateMutability":"view"},{"type":"function","name":"UNSTAKE_AND_REDEEM_SELECTOR","inputs":[],"outputs":[{"name":"","type":"bytes4","internalType":"bytes4"}],"stateMutability":"view"},{"type":"function","name":"UNSTAKE_SELECTOR","inputs":[],"outputs":[{"name":"","type":"bytes4","internalType":"bytes4"}],"stateMutability":"view"},{"type":"function","name":"claimRewards","inputs":[{"name":"_vaultProxy","type":"address","internalType":"address"},{"name":"_actionData","type":"bytes","internalType":"bytes"},{"name":"","type":"bytes","internalType":"bytes"}],"outputs":[],"stateMutability":"nonpayable"},{"type":"function","name":"getCompoundPriceFeed","inputs":[],"outputs":[{"name":"compoundPriceFeed_","type":"address","internalType":"address"}],"stateMutability":"view"},{"type":"function","name":"getCompoundWethToken","inputs":[],"outputs":[{"name":"compoundWethToken_","type":"address","internalType":"address"}],"stateMutability":"view"},{"type":"function","name":"getIntegrationManager","inputs":[],"outputs":[{"name":"integrationManager_","type":"address","internalType":"address"}],"stateMutability":"view"},{"type":"function","name":"lend","inputs":[{"name":"_vaultProxy","type":"address","internalType":"address"},{"name":"","type":"bytes","internalType":"bytes"},{"name":"_assetData","type":"bytes","internalType":"bytes"}],"outputs":[],"stateMutability":"nonpayable"},{"type":"function","name":"parseAssetsForAction","inputs":[{"name":"","type":"address","internalType":"address"},{"name":"_selector","type":"bytes4","internalType":"bytes4"},{"name":"_actionData","type":"bytes","internalType":"bytes"}],"outputs":[{"name":"spendAssetsHandleType_","type":"uint8","internalType":"enum IIntegrationManager.SpendAssetsHandleType"},{"name":"spendAssets_","type":"address[]","internalType":"address[]"},{"name":"spendAssetAmounts_","type":"uint256[]","internalType":"uint256[]"},{"name":"incomingAssets_","type":"address[]","internalType":"address[]"},{"name":"minIncomingAssetAmounts_","type":"uint256[]","internalType":"uint256[]"}],"stateMutability":"view"},{"type":"function","name":"redeem","inputs":[{"name":"_vaultProxy","type":"address","internalType":"address"},{"name":"","type":"bytes","internalType":"bytes"},{"name":"_assetData","type":"bytes","internalType":"bytes"}],"outputs":[],"stateMutability":"nonpayable"}],"bytecode":{"object":"0x60e060405234801561001057600080fd5b50604051611ec8380380611ec88339818101604052606081101561003357600080fd5b50805160208201516040909201516001600160601b0319606092831b811660805290821b811660a05291901b1660c05260805160601c60a05160601c60c05160601c611e036100c56000398061085f52806113d452806116175250806108cb5280610eb45280610eee52806112c852806112fd5250806106c952806109405280610aa45280610caf5250611e036000f3fe6080604052600436106100f75760003560e01c8063863e5ad01161008a578063c32990a211610059578063c32990a21461048c578063c54efee5146104a1578063e7c4569014610670578063f7d882b514610685576100fe565b8063863e5ad0146102ac578063b23228cf146102c1578063b9dfbacc146102d6578063c29fa9dd146103b1576100fe565b806332bf8227116100c657806332bf82271461023c5780633ffc15911461026d57806340da225d1461028257806371dce85014610297576100fe565b8063080456c114610103578063099f751514610135578063131461c014610212578063257cb1a314610227576100fe565b366100fe57005b600080fd5b34801561010f57600080fd5b5061011861069a565b604080516001600160e01b03199092168252519081900360200190f35b34801561014157600080fd5b506102106004803603606081101561015857600080fd5b6001600160a01b038235169190810190604081016020820135600160201b81111561018257600080fd5b82018360208201111561019457600080fd5b803590602001918460018302840111600160201b831117156101b557600080fd5b919390929091602081019035600160201b8111156101d257600080fd5b8201836020820111156101e457600080fd5b803590602001918460018302840111600160201b8311171561020557600080fd5b5090925090506106be565b005b34801561021e57600080fd5b50610118610815565b34801561023357600080fd5b50610118610839565b34801561024857600080fd5b5061025161085d565b604080516001600160a01b039092168252519081900360200190f35b34801561027957600080fd5b50610118610881565b34801561028e57600080fd5b506101186108a5565b3480156102a357600080fd5b506102516108c9565b3480156102b857600080fd5b506101186108ed565b3480156102cd57600080fd5b50610118610911565b3480156102e257600080fd5b50610210600480360360608110156102f957600080fd5b6001600160a01b038235169190810190604081016020820135600160201b81111561032357600080fd5b82018360208201111561033557600080fd5b803590602001918460018302840111600160201b8311171561035657600080fd5b919390929091602081019035600160201b81111561037357600080fd5b82018360208201111561038557600080fd5b803590602001918460018302840111600160201b831117156103a657600080fd5b509092509050610935565b3480156103bd57600080fd5b50610210600480360360608110156103d457600080fd5b6001600160a01b038235169190810190604081016020820135600160201b8111156103fe57600080fd5b82018360208201111561041057600080fd5b803590602001918460018302840111600160201b8311171561043157600080fd5b919390929091602081019035600160201b81111561044e57600080fd5b82018360208201111561046057600080fd5b803590602001918460018302840111600160201b8311171561048157600080fd5b509092509050610a99565b34801561049857600080fd5b50610118610bc9565b3480156104ad57600080fd5b5061053b600480360360608110156104c457600080fd5b6001600160a01b03823516916001600160e01b031960208201351691810190606081016040820135600160201b8111156104fd57600080fd5b82018360208201111561050f57600080fd5b803590602001918460018302840111600160201b8311171561053057600080fd5b509092509050610bed565b6040518086600281111561054b57fe5b815260200180602001806020018060200180602001858103855289818151815260200191508051906020019060200280838360005b83811015610598578181015183820152602001610580565b50505050905001858103845288818151815260200191508051906020019060200280838360005b838110156105d75781810151838201526020016105bf565b50505050905001858103835287818151815260200191508051906020019060200280838360005b838110156106165781810151838201526020016105fe565b50505050905001858103825286818151815260200191508051906020019060200280838360005b8381101561065557818101518382015260200161063d565b50505050905001995050505050505050505060405180910390f35b34801561067c57600080fd5b50610251610cad565b34801561069157600080fd5b50610118610cd1565b7f8334eb99be0145865eba9889fca2ee920288090caefff4cc776038e20ad9259a81565b336001600160a01b037f000000000000000000000000000000000000000000000000000000000000000016146107255760405162461bcd60e51b8152600401808060200182810382526032815260200180611cec6032913960400191505060405180910390fd5b8482828080601f01602080910402602001604051908101604052809392919081815260200183838082843760009201919091525050604080516020601f88018190048102820181019092528681526060935083925082916107a191908990899081908401838280828437600092019190915250610cf592505050565b9250925092506107ee836000815181106107b757fe5b6020026020010151836000815181106107cc57fe5b6020026020010151836000815181106107e157fe5b6020026020010151610eb2565b50505060606107fc82610cf5565b9250505061080a8382611046565b505050505050505050565b7f29fa046e79524c3c5ac4c01df692c35e217802b2b13b21121b76cf0ef02b138c81565b7f099f75155f0e997bf83a7993a71d5e7e7540bd386fe1e84643a09ce6b412521981565b7f000000000000000000000000000000000000000000000000000000000000000090565b7ffa7dd04da627f433da73c4355ead9c75682a67a8fc84d3f6170ef0922f402d2481565b7fb9dfbaccbe5cd2a84fdcf1d15f23ef25d23086f5afbaa99516065ed4a5bbc7a381565b7f000000000000000000000000000000000000000000000000000000000000000090565b7f03e38a2bd7063d45c897edeafc330e71657502dd86434d3c37a489caf116af6981565b7f68e30677f607df46e87da13e15b637784cfa62374b653f35ab43d10361a2f83081565b336001600160a01b037f0000000000000000000000000000000000000000000000000000000000000000161461099c5760405162461bcd60e51b8152600401808060200182810382526032815260200180611cec6032913960400191505060405180910390fd5b606060006109df86868080601f0160208091040260200160405190810160405280939291908181526020018383808284376000920191909152506111a192505050565b91509150806001600160a01b0316631c3db2e088846040518363ffffffff1660e01b815260040180836001600160a01b0316815260200180602001828103825283818151815260200191508051906020019060200280838360005b83811015610a52578181015183820152602001610a3a565b505050509050019350505050600060405180830381600087803b158015610a7857600080fd5b505af1158015610a8c573d6000803e3d6000fd5b5050505050505050505050565b336001600160a01b037f00000000000000000000000000000000000000000000000000000000000000001614610b005760405162461bcd60e51b8152600401808060200182810382526032815260200180611cec6032913960400191505060405180910390fd5b8482828080601f01602080910402602001604051908101604052809392919081815260200183838082843760009201919091525050604080516020601f8801819004810282018101909252868152606093508392508291610b7c91908990899081908401838280828437600092019190915250610cf592505050565b9250925092506107ee83600081518110610b9257fe5b602002602001015183600081518110610ba757fe5b602002602001015183600081518110610bbc57fe5b6020026020010151611254565b7f0e7f692dad5b88fdee426250d6eae91207e56a2e8112b7364579bed1790e5bf481565b600060608080806001600160e01b0319881663099f751560e01b1415610c2657610c17878761137e565b94509450945094509450610ca2565b6001600160e01b0319881663c29fa9dd60e01b1415610c4957610c1787876115c1565b6001600160e01b03198816632e77eeb360e21b1415610c6b5760009450610ca2565b60405162461bcd60e51b8152600401808060200182810382526027815260200180611dd06027913960400191505060405180910390fd5b945094509450945094565b7f000000000000000000000000000000000000000000000000000000000000000090565b7fc29fa9dde84204c2908778afd0613d802d31cf046179b88f6d2b4a4e507ea2d581565b6060806060838060200190516060811015610d0f57600080fd5b8101908080516040519392919084600160201b821115610d2e57600080fd5b908301906020820185811115610d4357600080fd5b82518660208202830111600160201b82111715610d5f57600080fd5b82525081516020918201928201910280838360005b83811015610d8c578181015183820152602001610d74565b5050505090500160405260200180516040519392919084600160201b821115610db457600080fd5b908301906020820185811115610dc957600080fd5b82518660208202830111600160201b82111715610de557600080fd5b82525081516020918201928201910280838360005b83811015610e12578181015183820152602001610dfa565b5050505090500160405260200180516040519392919084600160201b821115610e3a57600080fd5b908301906020820185811115610e4f57600080fd5b82518660208202830111600160201b82111715610e6b57600080fd5b82525081516020918201928201910280838360005b83811015610e98578181015183820152602001610e80565b505050509050016040525050509250925092509193909250565b7f00000000000000000000000000000000000000000000000000000000000000006001600160a01b0316836001600160a01b03161415610fc3577f00000000000000000000000000000000000000000000000000000000000000006001600160a01b0316632e1a7d4d836040518263ffffffff1660e01b815260040180828152602001915050600060405180830381600087803b158015610f5257600080fd5b505af1158015610f66573d6000803e3d6000fd5b50505050806001600160a01b0316631249c58b836040518263ffffffff1660e01b81526004016000604051808303818588803b158015610fa557600080fd5b505af1158015610fb9573d6000803e3d6000fd5b5050505050611041565b610fce8382846117a2565b806001600160a01b031663a0712d68836040518263ffffffff1660e01b815260040180828152602001915050602060405180830381600087803b15801561101457600080fd5b505af1158015611028573d6000803e3d6000fd5b505050506040513d602081101561103e57600080fd5b50505b505050565b6060815167ffffffffffffffff8111801561106057600080fd5b5060405190808252806020026020018201604052801561108a578160200160208202803683370190505b50905060005b825181101561119a5760008382815181106110a757fe5b60200260200101519050806001600160a01b03166370a08231306040518263ffffffff1660e01b815260040180826001600160a01b0316815260200191505060206040518083038186803b1580156110fe57600080fd5b505afa158015611112573d6000803e3d6000fd5b505050506040513d602081101561112857600080fd5b5051835184908490811061113857fe5b602002602001018181525050600083838151811061115257fe5b60200260200101511115611191576111918584848151811061117057fe5b6020026020010151836001600160a01b03166118609092919063ffffffff16565b50600101611090565b5092915050565b606060008280602001905160408110156111ba57600080fd5b8101908080516040519392919084600160201b8211156111d957600080fd5b9083019060208201858111156111ee57600080fd5b82518660208202830111600160201b8211171561120a57600080fd5b82525081516020918201928201910280838360005b8381101561123757818101518382015260200161121f565b505050509190910160405250602001519294509192505050915091565b826001600160a01b031663db006a75836040518263ffffffff1660e01b815260040180828152602001915050602060405180830381600087803b15801561129a57600080fd5b505af11580156112ae573d6000803e3d6000fd5b505050506040513d60208110156112c457600080fd5b50507f00000000000000000000000000000000000000000000000000000000000000006001600160a01b039081169082161415611041577f00000000000000000000000000000000000000000000000000000000000000006001600160a01b031663d0e30db0306001600160a01b0316316040518263ffffffff1660e01b81526004016000604051808303818588803b15801561136057600080fd5b505af1158015611374573d6000803e3d6000fd5b5050505050505050565b600060608060608060008060006113ca8a8a8080601f0160208091040260200160405190810160405280939291908181526020018383808284376000920191909152506118b292505050565b92509250925060007f00000000000000000000000000000000000000000000000000000000000000006001600160a01b0316634cae3ad7856040518263ffffffff1660e01b815260040180826001600160a01b0316815260200191505060206040518083038186803b15801561143f57600080fd5b505afa158015611453573d6000803e3d6000fd5b505050506040513d602081101561146957600080fd5b505190506001600160a01b0381166114b25760405162461bcd60e51b8152600401808060200182810382526028815260200180611d486028913960400191505060405180910390fd5b604080516001808252818301909252906020808301908036833701905050975080886000815181106114e057fe5b6001600160a01b0392909216602092830291909101820152604080516001808252818301909252918281019080368337019050509650828760008151811061152457fe5b602090810291909101015260408051600180825281830190925290816020016020820280368337019050509550838660008151811061155f57fe5b6001600160a01b039290921660209283029190910182015260408051600180825281830190925291828101908036833701905050945081856000815181106115a357fe5b60200260200101818152505060029850505050509295509295909350565b6000606080606080600080600061160d8a8a8080601f0160208091040260200160405190810160405280939291908181526020018383808284376000920191909152506118b292505050565b92509250925060007f00000000000000000000000000000000000000000000000000000000000000006001600160a01b0316634cae3ad7856040518263ffffffff1660e01b815260040180826001600160a01b0316815260200191505060206040518083038186803b15801561168257600080fd5b505afa158015611696573d6000803e3d6000fd5b505050506040513d60208110156116ac57600080fd5b505190506001600160a01b0381166116f55760405162461bcd60e51b815260040180806020018281038252602a815260200180611d1e602a913960400191505060405180910390fd5b6040805160018082528183019092529060208083019080368337019050509750838860008151811061172357fe5b6001600160a01b0392909216602092830291909101820152604080516001808252818301909252918281019080368337019050509650828760008151811061176757fe5b602090810291909101015260408051600180825281830190925290816020016020820280368337019050509550808660008151811061155f57fe5b60408051636eb1769f60e11b81523060048201526001600160a01b038481166024830152915160009286169163dd62ed3e916044808301926020929190829003018186803b1580156117f357600080fd5b505afa158015611807573d6000803e3d6000fd5b505050506040513d602081101561181d57600080fd5b505190508181101561185a578015611844576118446001600160a01b0385168460006118e6565b61185a6001600160a01b038516846000196118e6565b50505050565b604080516001600160a01b038416602482015260448082018490528251808303909101815260649091019091526020810180516001600160e01b031663a9059cbb60e01b1790526110419084906119f5565b60008060008380602001905160608110156118cc57600080fd5b508051602082015160409092015190969195509350915050565b80158061196c575060408051636eb1769f60e11b81523060048201526001600160a01b03848116602483015291519185169163dd62ed3e91604480820192602092909190829003018186803b15801561193e57600080fd5b505afa158015611952573d6000803e3d6000fd5b505050506040513d602081101561196857600080fd5b5051155b6119a75760405162461bcd60e51b8152600401808060200182810382526036815260200180611d9a6036913960400191505060405180910390fd5b604080516001600160a01b038416602482015260448082018490528251808303909101815260649091019091526020810180516001600160e01b031663095ea7b360e01b1790526110419084905b6060611a4a826040518060400160405280602081526020017f5361666545524332303a206c6f772d6c6576656c2063616c6c206661696c6564815250856001600160a01b0316611aa69092919063ffffffff16565b80519091501561104157808060200190516020811015611a6957600080fd5b50516110415760405162461bcd60e51b815260040180806020018281038252602a815260200180611d70602a913960400191505060405180910390fd5b6060611ab58484600085611abf565b90505b9392505050565b606082471015611b005760405162461bcd60e51b8152600401808060200182810382526026815260200180611cc66026913960400191505060405180910390fd5b611b0985611c1b565b611b5a576040805162461bcd60e51b815260206004820152601d60248201527f416464726573733a2063616c6c20746f206e6f6e2d636f6e7472616374000000604482015290519081900360640190fd5b60006060866001600160a01b031685876040518082805190602001908083835b60208310611b995780518252601f199092019160209182019101611b7a565b6001836020036101000a03801982511681845116808217855250505050505090500191505060006040518083038185875af1925050503d8060008114611bfb576040519150601f19603f3d011682016040523d82523d6000602084013e611c00565b606091505b5091509150611c10828286611c21565b979650505050505050565b3b151590565b60608315611c30575081611ab8565b825115611c405782518084602001fd5b8160405162461bcd60e51b81526004018080602001828103825283818151815260200191508051906020019080838360005b83811015611c8a578181015183820152602001611c72565b50505050905090810190601f168015611cb75780820380516001836020036101000a031916815260200191505b509250505060405180910390fdfe416464726573733a20696e73756666696369656e742062616c616e636520666f722063616c6c4f6e6c792074686520496e746567726174696f6e4d616e616765722063616e2063616c6c20746869732066756e6374696f6e5f5f7061727365417373657473466f7252656465656d3a20556e737570706f727465642063546f6b656e5f5f7061727365417373657473466f724c656e643a20556e737570706f727465642063546f6b656e5361666545524332303a204552433230206f7065726174696f6e20646964206e6f7420737563636565645361666545524332303a20617070726f76652066726f6d206e6f6e2d7a65726f20746f206e6f6e2d7a65726f20616c6c6f77616e63657061727365417373657473466f72416374696f6e3a205f73656c6563746f7220696e76616c6964a164736f6c634300060c000a","linkReferences":{}},"methodIdentifiers":{"CLAIM_REWARDS_SELECTOR()":"40da225d","LEND_AND_STAKE_SELECTOR()":"131461c0","LEND_SELECTOR()":"257cb1a3","REDEEM_SELECTOR()":"f7d882b5","STAKE_SELECTOR()":"3ffc1591","TAKE_MULTIPLE_ORDERS_SELECTOR()":"c32990a2","TAKE_ORDER_SELECTOR()":"863e5ad0","UNSTAKE_AND_REDEEM_SELECTOR()":"080456c1","UNSTAKE_SELECTOR()":"b23228cf","claimRewards(address,bytes,bytes)":"b9dfbacc","getCompoundPriceFeed()":"32bf8227","getCompoundWethToken()":"71dce850","getIntegrationManager()":"e7c45690","lend(address,bytes,bytes)":"099f7515","parseAssetsForAction(address,bytes4,bytes)":"c54efee5","redeem(address,bytes,bytes)":"c29fa9dd"},"id":210}