{"abi":[{"type":"function","name":"deploy","inputs":[{"name":"_solvBtcUsdAggregatorAddress","type":"address","internalType":"address"},{"name":"_solvBtcYieldTokenAddress","type":"address","internalType":"address"}],"outputs":[],"stateMutability":"nonpayable"},{"type":"event","name":"InstanceDeployed","inputs":[{"name":"instanceAddress","type":"address","indexed":false,"internalType":"address"}],"anonymous":false}],"bytecode":{"object":"0x608060405234801561001057600080fd5b50610d01806100206000396000f3fe608060405234801561001057600080fd5b506004361061002b5760003560e01c8063545e7c6114610030575b600080fd5b61004361003e3660046100fd565b610045565b005b60008282604051610055906100bb565b610060929190610149565b604051809103906000f08015801561007c573d6000803e3d6000fd5b5090507f117c72e6c25f0a072e36e148df71468ce2f3dbe7defec5b2c257a6e3eb65278c816040516100ae919061016b565b60405180910390a1505050565b610b878061017a83390190565b60006001600160a01b0382165b92915050565b6100e4816100c8565b81146100ef57600080fd5b50565b80356100d5816100db565b6000806040838503121561011357610113600080fd5b600061011f85856100f2565b9250506020610130858286016100f2565b9150509250929050565b610143816100c8565b82525050565b60408101610157828561013a565b610164602083018461013a565b9392505050565b602081016100d5828461013a56fe6101606040523480156200001257600080fd5b5060405162000b8738038062000b878339810160408190526200003591620001c9565b60086080819052829060009082826200005083600a62000353565b60e0526001600160a01b03821660a081905281151560c0526200007557600062000080565b620000808262000116565b61010052505050506001600160a01b0382166101208190526040805163313ce56760e01b8152905191925063313ce5679160048083019260209291908290030181865afa158015620000d6573d6000803e3d6000fd5b505050506040513d601f19601f82011682018060405250810190620000fc919062000381565b6200010990600a62000353565b6101405250620003ae9050565b6000816001600160a01b031663313ce5676040518163ffffffff1660e01b8152600401602060405180830381865afa15801562000157573d6000803e3d6000fd5b505050506040513d601f19601f820116820180604052508101906200017d919062000381565b6200018a90600a62000353565b92915050565b60006001600160a01b0382166200018a565b620001ad8162000190565b8114620001b957600080fd5b50565b80516200018a81620001a2565b60008060408385031215620001e157620001e1600080fd5b6000620001ef8585620001bc565b92505060206200020285828601620001bc565b9150509250929050565b634e487b7160e01b600052601160045260246000fd5b80825b600185111562000268578086048111156200024457620002446200020c565b60018516156200025357908102905b8002620002608560011c90565b945062000225565b94509492505050565b60008262000282575060016200034c565b8162000291575060006200034c565b8160018114620002aa5760028114620002b557620002e9565b60019150506200034c565b60ff841115620002c957620002c96200020c565b8360020a915084821115620002e257620002e26200020c565b506200034c565b5060208310610133831016604e8410600b841016171562000321575081810a838111156200031b576200031b6200020c565b6200034c565b62000330848484600162000222565b925090508184048111156200034957620003496200020c565b81025b9392505050565b600060ff831692506200034c600019848462000271565b60ff8116620001ad565b80516200018a816200036a565b600060208284031215620003985762000398600080fd5b6000620003a6848462000374565b949350505050565b60805160a05160c05160e0516101005161012051610140516107566200043160003960006101e701526000818161016901526101b801526000818161031e0152610368015260006103af015260008181608701526102f401526000818161010f0152818161029301526102c801526000818160db015261014001526107566000f3fe608060405234801561001057600080fd5b506004361061007d5760003560e01c80632faa3a091161005b5780632faa3a091461010a578063313ce5671461013e578063bd8398da14610164578063feaf968c1461019857600080fd5b80630918d214146100825780631f68f20a146100bf5780632e0f2625146100d6575b600080fd5b6100a97f000000000000000000000000000000000000000000000000000000000000000081565b6040516100b6919061050a565b60405180910390f35b6100c76101b1565b6040516100b69392919061051e565b6100fd7f000000000000000000000000000000000000000000000000000000000000000081565b6040516100b69190610557565b6101317f000000000000000000000000000000000000000000000000000000000000000081565b6040516100b6919061057f565b7f00000000000000000000000000000000000000000000000000000000000000006100fd565b61018b7f000000000000000000000000000000000000000000000000000000000000000081565b6040516100b691906105ac565b6101a0610276565b6040516100b69594939291906105cc565b60008060007f00000000000000000000000000000000000000000000000000000000000000006001600160a01b03166371e26e007f00000000000000000000000000000000000000000000000000000000000000006040518263ffffffff1660e01b81526004016102229190610618565b602060405180830381865afa15801561023f573d6000803e3d6000fd5b505050506040513d601f19601f820116820180604052508101906102639190610641565b93670de0b6b3a764000093504292509050565b60008060008060008060008061028a6101b1565b919450925090507f00000000000000000000000000000000000000000000000000000000000000006001600160a01b0316156103a8576000806102ec7f00000000000000000000000000000000000000000000000000000000000000006103e8565b9150915060007f0000000000000000000000000000000000000000000000000000000000000000156103655761034f837f00000000000000000000000000000000000000000000000000000000000000006b033b2e3c9fd0803ce800000061048c565b92506b033b2e3c9fd0803ce80000009050610388565b507f00000000000000000000000000000000000000000000000000000000000000005b6103938686856104ad565b95508094506103a284836104ba565b93505050505b6103d383837f00000000000000000000000000000000000000000000000000000000000000006104cf565b60009990985089975090955086945092505050565b6000806000836001600160a01b031663feaf968c6040518163ffffffff1660e01b815260040160a060405180830381865afa15801561042b573d6000803e3d6000fd5b505050506040513d601f19601f8201168201806040525081019061044f919061067f565b509450909250505060008112156104845780604051630d6f078960e31b815260040161047b9190610618565b60405180910390fd5b939092509050565b600083610499848461070d565b6104a39190610742565b90505b9392505050565b600082610499838661070d565b60006104c683836104ea565b90505b92915050565b60008183036104df5750826104a6565b82610499838661070d565b60008183106104f957816104c6565b5090919050565b8015155b82525050565b602081016104c98284610500565b80610504565b6060810161052c8286610518565b6105396020830185610518565b6105466040830184610518565b949350505050565b60ff8116610504565b602081016104c9828461054e565b60006001600160a01b0382166104c9565b61050481610565565b602081016104c98284610576565b60006104c982610565565b60006104c98261058d565b61050481610598565b602081016104c982846105a3565b69ffffffffffffffffffff8116610504565b60a081016105da82886105ba565b6105e76020830187610518565b6105f46040830186610518565b6106016060830185610518565b61060e60808301846105ba565b9695505050505050565b602081016104c98284610518565b805b811461063357600080fd5b50565b80516104c981610626565b60006020828403121561065657610656600080fd5b60006105468484610636565b69ffffffffffffffffffff8116610628565b80516104c981610662565b600080600080600060a0868803121561069a5761069a600080fd5b60006106a68888610674565b95505060206106b788828901610636565b94505060406106c888828901610636565b93505060606106d988828901610636565b92505060806106ea88828901610674565b9150509295509295909350565b634e487b7160e01b600052601160045260246000fd5b818102808215838204851417610725576107256106f7565b5092915050565b634e487b7160e01b600052601260045260246000fd5b6000826107515761075161072c565b50049056","linkReferences":{}},"methodIdentifiers":{"deploy(address,address)":"545e7c61"},"id":194}