{"abi":[{"type":"constructor","inputs":[{"name":"_chainlinkPriceFeedProvider","type":"address","internalType":"contract IGMXV2ChainlinkPriceFeedProvider"},{"name":"_dataStore","type":"address","internalType":"contract IGMXV2DataStore"},{"name":"_reader","type":"address","internalType":"contract IGMXV2Reader"},{"name":"_referralStorageAddress","type":"address","internalType":"address"},{"name":"_uiFeeReceiverAddress","type":"address","internalType":"address"},{"name":"_wrappedNativeToken","type":"address","internalType":"contract IWETH"}],"stateMutability":"nonpayable"},{"type":"function","name":"CHAINLINK_PRICE_FEED_PROVIDER","inputs":[],"outputs":[{"name":"","type":"address","internalType":"contract IGMXV2ChainlinkPriceFeedProvider"}],"stateMutability":"view"},{"type":"function","name":"DATA_STORE","inputs":[],"outputs":[{"name":"","type":"address","internalType":"contract IGMXV2DataStore"}],"stateMutability":"view"},{"type":"function","name":"READER","inputs":[],"outputs":[{"name":"","type":"address","internalType":"contract IGMXV2Reader"}],"stateMutability":"view"},{"type":"function","name":"REFERRAL_STORAGE_ADDRESS","inputs":[],"outputs":[{"name":"","type":"address","internalType":"address"}],"stateMutability":"view"},{"type":"function","name":"UI_FEE_RECEIVER_ADDRESS","inputs":[],"outputs":[{"name":"","type":"address","internalType":"address"}],"stateMutability":"view"},{"type":"function","name":"WRAPPED_NATIVE_TOKEN","inputs":[],"outputs":[{"name":"","type":"address","internalType":"contract IWETH"}],"stateMutability":"view"},{"type":"function","name":"getManagedAssets","inputs":[],"outputs":[{"name":"assets_","type":"address[]","internalType":"address[]"},{"name":"amounts_","type":"uint256[]","internalType":"uint256[]"}],"stateMutability":"view"},{"type":"event","name":"CallbackContractSet","inputs":[{"name":"market","type":"address","indexed":false,"internalType":"address"}],"anonymous":false},{"type":"event","name":"ClaimableCollateralAdded","inputs":[{"name":"claimableCollateralKey","type":"bytes32","indexed":false,"internalType":"bytes32"},{"name":"token","type":"address","indexed":false,"internalType":"address"},{"name":"market","type":"address","indexed":false,"internalType":"address"},{"name":"timeKey","type":"uint256","indexed":false,"internalType":"uint256"}],"anonymous":false},{"type":"event","name":"ClaimableCollateralRemoved","inputs":[{"name":"claimableCollateralKey","type":"bytes32","indexed":false,"internalType":"bytes32"}],"anonymous":false},{"type":"event","name":"TrackedAssetAdded","inputs":[{"name":"asset","type":"address","indexed":false,"internalType":"address"}],"anonymous":false},{"type":"event","name":"TrackedAssetsCleared","inputs":[],"anonymous":false},{"type":"event","name":"TrackedMarketAdded","inputs":[{"name":"market","type":"address","indexed":false,"internalType":"address"}],"anonymous":false},{"type":"event","name":"TrackedMarketRemoved","inputs":[{"name":"market","type":"address","indexed":false,"internalType":"address"}],"anonymous":false}],"bytecode":{"object":"0x6101406040523480156200001257600080fd5b506040516200294c3803806200294c8339810160408190526200003591620000c5565b6001600160a01b0394851660805292841660a05293831660c052821660e0529181166101005216610120526200015d565b60006001600160a01b0382165b92915050565b6000620000738262000066565b620000918162000079565b81146200009d57600080fd5b50565b8051620000738162000086565b620000918162000066565b80516200007381620000ad565b60008060008060008060c08789031215620000e357620000e3600080fd5b6000620000f18989620000a0565b96505060206200010489828a01620000a0565b95505060406200011789828a01620000a0565b94505060606200012a89828a01620000b8565b93505060806200013d89828a01620000b8565b92505060a06200015089828a01620000a0565b9150509295509295509295565b60805160a05160c05160e05161010051610120516127326200021a6000396000818160c4015281816106720152610793015260008181608701526103c701526000818160f8015261039f0152600081816101830152610c6401526000818161011f0152818161035001528181610ab901528181610b900152610ed401526000818161015c0152818161037d0152818161083f015281816108f701528181610ae601528181610bc501528181610f010152610fda01526127326000f3fe608060405234801561001057600080fd5b506004361061007d5760003560e01c8063698eec441161005b578063698eec441461011a57806380daddb814610141578063c1d07cc214610157578063e7cc9ced1461017e57600080fd5b806308b3b26b146100825780631b3f8c5e146100bf5780632091304b146100f3575b600080fd5b6100a97f000000000000000000000000000000000000000000000000000000000000000081565b6040516100b691906113ef565b60405180910390f35b6100e67f000000000000000000000000000000000000000000000000000000000000000081565b6040516100b6919061143f565b6100a97f000000000000000000000000000000000000000000000000000000000000000081565b6100e67f000000000000000000000000000000000000000000000000000000000000000081565b6101496101a5565b6040516100b69291906114fa565b6100e67f000000000000000000000000000000000000000000000000000000000000000081565b6100e67f000000000000000000000000000000000000000000000000000000000000000081565b60608060006101b2610a9f565b9050600081516001600160401b038111156101cf576101cf611527565b6040519080825280602002602001820160405280156101f8578160200160208202803683370190505b509050600082516001600160401b0381111561021657610216611527565b60405190808252806020026020018201604052801561024f57816020015b61023c611368565b8152602001906001900390816102345790505b50905060005b81518110156103355760008482815181106102725761027261153d565b602002602001015160000151602001519050600061028f82610b61565b9050818584815181106102a4576102a461153d565b60200260200101906001600160a01b031690816001600160a01b03168152505060405180606001604052806102dc8360200151610c36565b81526020016102ee8360400151610c36565b81526020016103008360600151610c36565b8152508484815181106103155761031561153d565b60200260200101819052505050808061032d90611569565b915050610255565b50604051630582f07560e51b81526000906001600160a01b037f0000000000000000000000000000000000000000000000000000000000000000169063b05e0ea0906103f5907f0000000000000000000000000000000000000000000000000000000000000000907f0000000000000000000000000000000000000000000000000000000000000000903090899089907f0000000000000000000000000000000000000000000000000000000000000000908a906000199060040161164b565b600060405180830381865afa158015610412573d6000803e3d6000fd5b505050506040513d6000823e601f3d908101601f1916820160405261043a9190810190611eb5565b905060005b81518110156105a457600082828151811061045c5761045c61153d565b6020026020010151905060008160000151602001516040015190508160400151602001516000146104b457816020015160c00151602001518260400151602001516104a79190611f05565b6104b19082611f19565b90505b60008260a0015113156104ee57816020015160c00151602001518260a001516104dd9190611f05565b6104e79082611f19565b9050610537565b6000826020015160c00151600001518360a0015161050b90611f2c565b6105159190611f05565b905081811015610530576105298183611f48565b9150610535565b600091505b505b8082602001516101e0015110156105635760208201516101e0015161055c9082611f48565b9050610567565b5060005b801561058f576105778882610cfb565b8251516040015190985061058c908a90610dca565b98505b5050808061059c90611569565b91505061043f565b5060006105af610eba565b90506000805b82518110156106655760008382815181106105d2576105d261153d565b60200260200101519050600260088111156105ef576105ef611f5b565b602082015151600881111561060657610606611f5b565b0361063c57805160c0015161061c908b90610dca565b99506106398160200151606001518a610cfb90919063ffffffff16565b98505b602081015160c0015161064f9084611f19565b925050808061065d90611569565b9150506105b5565b5080156106a557610696887f0000000000000000000000000000000000000000000000000000000000000000610dca565b97506106a28782610cfb565b96505b60005b600154811015610779576000600182815481106106c7576106c761153d565b60009182526020822001546040516370a0823160e01b81526001600160a01b03909116925082906370a08231906107029030906004016113ef565b602060405180830381865afa15801561071f573d6000803e3d6000fd5b505050506040513d601f19601f820116820180604052508101906107439190611f71565b90508015610764576107558b83610dca565b9a506107618a82610cfb565b99505b5050808061077190611569565b9150506106a8565b504780156107ba5761078b8882610cfb565b97506107b7897f0000000000000000000000000000000000000000000000000000000000000000610dca565b98505b60005b600354811015610995576000600382815481106107dc576107dc61153d565b600091825260208083209091015480835260048252604092839020835160608101855281546001600160a01b03908116808352600184015490911694820194909452600290910154938101939093529250610838908d90610dca565b9b5061097e7f00000000000000000000000000000000000000000000000000000000000000006001600160a01b031663bd02d0f5610883846020015185600001518660400151610f77565b6040518263ffffffff1660e01b815260040161089f9190611f92565b602060405180830381865afa1580156108bc573d6000803e3d6000fd5b505050506040513d601f19601f820116820180604052508101906108e09190611f71565b60405163bd02d0f560e01b81526001600160a01b037f0000000000000000000000000000000000000000000000000000000000000000169063bd02d0f59061092c908790600401611f92565b602060405180830381865afa158015610949573d6000803e3d6000fd5b505050506040513d601f19601f8201168201806040525081019061096d9190611f71565b6109779190611f48565b8c90610cfb565b9a505050808061098d90611569565b9150506107bd565b5060005b600254811015610a855760006109d5600283815481106109bb576109bb61153d565b6000918252602090912001546001600160a01b0316610b61565b905060006109eb82600001518360400151610fd6565b90508015610a12576040820151610a03908d90610dca565b9b50610a0f8b82610cfb565b9a505b81606001516001600160a01b031682604001516001600160a01b031614610a70576000610a4783600001518460600151610fd6565b90508015610a6e576060830151610a5f908e90610dca565b9c50610a6b8c82610cfb565b9b505b505b50508080610a7d90611569565b915050610999565b50610a9089896110b5565b98509850505050505050509091565b604051633be7d8b160e11b81526060906001600160a01b037f000000000000000000000000000000000000000000000000000000000000000016906377cfb16290610b17907f000000000000000000000000000000000000000000000000000000000000000090309060009060001990600401611fa0565b600060405180830381865afa158015610b34573d6000803e3d6000fd5b505050506040513d6000823e601f3d908101601f19168201604052610b5c9190810190612057565b905090565b604080516080810182526000808252602082018190528183018190526060820152905163714af34b60e01b81527f00000000000000000000000000000000000000000000000000000000000000006001600160a01b03169063714af34b90610bef907f0000000000000000000000000000000000000000000000000000000000000000908690600401612091565b608060405180830381865afa158015610c0c573d6000803e3d6000fd5b505050506040513d601f19601f82011682018060405250810190610c309190612112565b92915050565b604080518082019091526000808252602082015260405163377bbdaf60e01b81526000906001600160a01b037f0000000000000000000000000000000000000000000000000000000000000000169063377bbdaf90610c99908690600401612133565b60a060405180830381865afa158015610cb6573d6000803e3d6000fd5b505050506040513d601f19601f82011682018060405250810190610cda91906121dd565b60408051808201825260208084015182529190920151908201529392505050565b606082516001610d0b9190611f19565b6001600160401b03811115610d2257610d22611527565b604051908082528060200260200182016040528015610d4b578160200160208202803683370190505b50905060005b8351811015610da357838181518110610d6c57610d6c61153d565b6020026020010151828281518110610d8657610d8661153d565b602090810291909101015280610d9b81611569565b915050610d51565b508181845181518110610db857610db861153d565b60200260200101818152505092915050565b606082516001610dda9190611f19565b6001600160401b03811115610df157610df1611527565b604051908082528060200260200182016040528015610e1a578160200160208202803683370190505b50905060005b8351811015610e7f57838181518110610e3b57610e3b61153d565b6020026020010151828281518110610e5557610e5561153d565b6001600160a01b039092166020928302919091019091015280610e7781611569565b915050610e20565b508181845181518110610e9457610e9461153d565b60200260200101906001600160a01b031690816001600160a01b03168152505092915050565b6040516342a6f8d360e01b81526060906001600160a01b037f000000000000000000000000000000000000000000000000000000000000000016906342a6f8d390610f32907f000000000000000000000000000000000000000000000000000000000000000090309060009060001990600401611fa0565b600060405180830381865afa158015610f4f573d6000803e3d6000fd5b505050506040513d6000823e601f3d908101601f19168201604052610b5c91908101906125ec565b6000604051602001610f889061265d565b6040516020818303038152906040528051906020012084848430604051602001610fb695949392919061266d565b6040516020818303038152906040528051906020012090505b9392505050565b60007f00000000000000000000000000000000000000000000000000000000000000006001600160a01b031663bd02d0f5604051602001611016906126ed565b6040516020818303038152906040528051906020012085853060405160200161104294939291906126fd565b604051602081830303815290604052805190602001206040518263ffffffff1660e01b81526004016110749190611f92565b602060405180830381865afa158015611091573d6000803e3d6000fd5b505050506040513d601f19601f82011682018060405250810190610fcf9190611f71565b606080835160000315611361576001805b8551811015611168576000805b82811015611141578781815181106110ed576110ed61153d565b60200260200101516001600160a01b03168884815181106111105761111061153d565b60200260200101516001600160a01b03160361112f5760019150611141565b8061113981611569565b9150506110d3565b5080611155578261115181611569565b9350505b508061116081611569565b9150506110c6565b50806001600160401b0381111561118157611181611527565b6040519080825280602002602001820160405280156111aa578160200160208202803683370190505b509250806001600160401b038111156111c5576111c5611527565b6040519080825280602002602001820160405280156111ee578160200160208202803683370190505b5091506000805b865181101561135d576000805b838110156112b35786818151811061121c5761121c61153d565b60200260200101516001600160a01b031689848151811061123f5761123f61153d565b60200260200101516001600160a01b0316036112a1576001915087838151811061126b5761126b61153d565b60200260200101518682815181106112855761128561153d565b602002602001018181516112999190611f19565b9052506112b3565b806112ab81611569565b915050611202565b508061134a578782815181106112cb576112cb61153d565b60200260200101518684815181106112e5576112e561153d565b60200260200101906001600160a01b031690816001600160a01b0316815250508682815181106113175761131761153d565b60200260200101518584815181106113315761133161153d565b60209081029190910101528261134681611569565b9350505b508061135581611569565b9150506111f5565b5050505b9250929050565b6040805160a081019091526000606082018181526080830191909152819081526020016113a8604051806040016040528060008152602001600081525090565b81526020016113ca604051806040016040528060008152602001600081525090565b905290565b60006001600160a01b038216610c30565b6113e9816113cf565b82525050565b60208101610c3082846113e0565b6000610c306001600160a01b038316611414565b90565b6001600160a01b031690565b6000610c30826113fd565b6000610c3082611420565b6113e98161142b565b60208101610c308284611436565b600061145983836113e0565b505060200190565b600061146b825190565b80845260209384019383018060005b8381101561149f57815161148e888261144d565b97506020830192505060010161147a565b509495945050505050565b806113e9565b600061145983836114aa565b60006114c6825190565b80845260209384019383018060005b8381101561149f5781516114e988826114b0565b9750602083019250506001016114d5565b6040808252810161150b8185611461565b9050818103602083015261151f81846114bc565b949350505050565b634e487b7160e01b600052604160045260246000fd5b634e487b7160e01b600052603260045260246000fd5b634e487b7160e01b600052601160045260246000fd5b6000600019820361157c5761157c611553565b5060010190565b8051604083019061159484826114aa565b5060208201516115a760208501826114aa565b50505050565b805160c08301906115be8482611583565b5060208201516115d16040850182611583565b5060408201516115a76080850182611583565b60006115f083836115ad565b505060c00190565b6000611602825190565b80845260209384019383018060005b8381101561149f57815161162588826115e4565b975060208301925050600101611611565b6000610c306114118381565b6113e981611636565b610100810161165a828b611436565b611667602083018a6113e0565b61167460408301896113e0565b81810360608301526116868188611461565b9050818103608083015261169a81876115f8565b90506116a960a08301866113e0565b6116b660c0830185611642565b6116c360e08301846114aa565b9998505050505050505050565b601f19601f83011681018181106001600160401b03821117156116f5576116f5611527565b6040525050565b600061170760405190565b905061171382826116d0565b919050565b60006001600160401b0382111561173157611731611527565b5060209081020190565b611744816113cf565b811461174f57600080fd5b50565b8051610c308161173b565b60006060828403121561177257611772600080fd5b61177c60606116fc565b9050600061178a8484611752565b825250602061179b84848301611752565b60208301525060406117af84828501611752565b60408301525092915050565b80611744565b8051610c30816117bb565b600061012082840312156117e2576117e2600080fd5b6117ed6101206116fc565b905060006117fb84846117c1565b825250602061180c848483016117c1565b6020830152506040611820848285016117c1565b6040830152506060611834848285016117c1565b6060830152506080611848848285016117c1565b60808301525060a061185c848285016117c1565b60a08301525060c0611870848285016117c1565b60c08301525060e0611884848285016117c1565b60e083015250610100611899848285016117c1565b6101008301525092915050565b801515611744565b8051610c30816118a6565b6000602082840312156118ce576118ce600080fd5b6118d860206116fc565b905060006118e684846118ae565b82525092915050565b60006101a0828403121561190557611905600080fd5b61190f60606116fc565b9050600061191d848461175d565b825250606061192e848483016117cc565b6020830152506101806117af848285016118b9565b6000610140828403121561195957611959600080fd5b6119646101406116fc565b9050600061197284846117c1565b825250602061198384848301611752565b602083015250604061199784828501611752565b60408301525060606119ab848285016117c1565b60608301525060806119bf848285016117c1565b60808301525060a06119d3848285016117c1565b60a08301525060c06119e7848285016117c1565b60c08301525060e06119fb848285016117c1565b60e083015250610100611a10848285016117c1565b61010083015250610120611a26848285016117c1565b6101208301525092915050565b600060608284031215611a4857611a48600080fd5b611a5260606116fc565b90506000611a6084846117c1565b8252506020611a71848483016117c1565b60208301525060406117af848285016117c1565b600060c08284031215611a9a57611a9a600080fd5b611aa460c06116fc565b90506000611ab284846117c1565b8252506020611ac3848483016117c1565b6020830152506040611ad7848285016117c1565b6040830152506060611aeb848285016117c1565b6060830152506080611aff848285016117c1565b60808301525060a0611b13848285016117c1565b60a08301525092915050565b600060808284031215611b3457611b34600080fd5b611b3e60806116fc565b90506000611b4c84846117c1565b8252506020611b5d848483016117c1565b6020830152506040611b71848285016117c1565b6040830152506060611b85848285016117c1565b60608301525092915050565b600060608284031215611ba657611ba6600080fd5b611bb060606116fc565b90506000611a608484611752565b600060408284031215611bd357611bd3600080fd5b611bdd60406116fc565b90506000611beb84846117c1565b8252506020611bfc848483016117c1565b60208301525092915050565b60006105408284031215611c1e57611c1e600080fd5b611c296102206116fc565b90506000611c378484611943565b825250610140611c4984848301611a33565b6020830152506101a0611c5e84828501611a85565b604083015250610260611c7384828501611b1f565b6060830152506102e0611c8884828501611b91565b608083015250610340611c9d84828501611b1f565b60a0830152506103c0611cb284828501611bbe565b60c083015250610400611cc7848285016117c1565b60e083015250610420611cdc848285016117c1565b61010083015250610440611cf2848285016117c1565b61012083015250610460611d08848285016117c1565b61014083015250610480611d1e848285016117c1565b610160830152506104a0611d34848285016117c1565b610180830152506104c0611d4a848285016117c1565b6101a0830152506104e0611d60848285016117c1565b6101c083015250610500611d76848285016117c1565b6101e083015250610520611d8c848285016117c1565b6102008301525092915050565b60006107a08284031215611daf57611daf600080fd5b611db960c06116fc565b90506000611dc784846118ef565b8252506101a0611dd984848301611c08565b6020830152506106e0611dee84828501611a33565b604083015250610740611e03848285016117c1565b606083015250610760611e18848285016117c1565b608083015250610780611b13848285016117c1565b6000611e40611e3b84611718565b6116fc565b8381529050602081016107a08402830185811115611e6057611e60600080fd5b835b81811015611e875780611e758882611d99565b8452506020909201916107a001611e62565b5050509392505050565b600082601f830112611ea557611ea5600080fd5b815161151f848260208601611e2d565b600060208284031215611eca57611eca600080fd5b81516001600160401b03811115611ee357611ee3600080fd5b61151f84828501611e91565b634e487b7160e01b600052601260045260246000fd5b600082611f1457611f14611eef565b500490565b80820180821115610c3057610c30611553565b6000600160ff1b8203611f4157611f41611553565b5060000390565b81810381811115610c3057610c30611553565b634e487b7160e01b600052602160045260246000fd5b600060208284031215611f8657611f86600080fd5b600061151f84846117c1565b60208101610c3082846114aa565b60808101611fae8287611436565b611fbb60208301866113e0565b611fc86040830185611642565b611fd560608301846114aa565b95945050505050565b6000611fec611e3b84611718565b8381529050602081016101a0840283018581111561200c5761200c600080fd5b835b81811015611e87578061202188826118ef565b8452506020909201916101a00161200e565b600082601f83011261204757612047600080fd5b815161151f848260208601611fde565b60006020828403121561206c5761206c600080fd5b81516001600160401b0381111561208557612085600080fd5b61151f84828501612033565b6040810161209f8285611436565b610fcf60208301846113e0565b6000608082840312156120c1576120c1600080fd5b6120cb60806116fc565b905060006120d98484611752565b82525060206120ea84848301611752565b60208301525060406120fe84828501611752565b6040830152506060611b8584828501611752565b60006080828403121561212757612127600080fd5b600061151f84846120ac565b6040810161214182846113e0565b8181036020830152610fcf816000815260200190565b600060a0828403121561216c5761216c600080fd5b61217660a06116fc565b905060006121848484611752565b8252506020612195848483016117c1565b60208301525060406121a9848285016117c1565b60408301525060606121bd848285016117c1565b60608301525060806121d184828501611752565b60808301525092915050565b600060a082840312156121f2576121f2600080fd5b600061151f8484612157565b600061220c611e3b84611718565b8381529050602080820190840283018581111561222b5761222b600080fd5b835b81811015611e8757806122408882611752565b8452506020928301920161222d565b600082601f83011261226357612263600080fd5b815161151f8482602086016121fe565b6000610100828403121561228957612289600080fd5b6122946101006116fc565b905060006122a28484611752565b82525060206122b384848301611752565b60208301525060406122c784828501611752565b60408301525060606122db84828501611752565b60608301525060806122ef84828501611752565b60808301525060a061230384828501611752565b60a08301525060c061231784828501611752565b60c08301525060e08201516001600160401b0381111561233957612339600080fd5b6123458482850161224f565b60e08301525092915050565b6009811061174f57600080fd5b8051610c3081612351565b6003811061174f57600080fd5b8051610c3081612369565b6000610160828403121561239757612397600080fd5b6123a26101606116fc565b905060006123b0848461235e565b82525060206123c184848301612376565b60208301525060406123d5848285016117c1565b60408301525060606123e9848285016117c1565b60608301525060806123fd848285016117c1565b60808301525060a0612411848285016117c1565b60a08301525060c0612425848285016117c1565b60c08301525060e0612439848285016117c1565b60e08301525061010061244e848285016117c1565b61010083015250610120612464848285016117c1565b6101208301525061014061247a848285016117c1565b6101408301525092915050565b60006080828403121561249c5761249c600080fd5b6124a660806116fc565b905060006124b484846118ae565b82525060206124c5848483016118ae565b60208301525060406124d9848285016118ae565b6040830152506060611b85848285016118ae565b6000610200828403121561250357612503600080fd5b61250d60606116fc565b82519091506001600160401b0381111561252957612529600080fd5b61253584828501612273565b825250602061254684848301612381565b6020830152506101806117af84828501612487565b6000612569611e3b84611718565b8381529050602080820190840283018581111561258857612588600080fd5b835b81811015611e875780516001600160401b038111156125ab576125ab600080fd5b8086016125b889826124ed565b855250506020928301920161258a565b600082601f8301126125dc576125dc600080fd5b815161151f84826020860161255b565b60006020828403121561260157612601600080fd5b81516001600160401b0381111561261a5761261a600080fd5b61151f848285016125c8565b601981526000602082017f434c41494d45445f434f4c4c41544552414c5f414d4f554e5400000000000000815291505b5060200190565b60208082528101610c3081612626565b60a0810161267b82886114aa565b61268860208301876113e0565b61269560408301866113e0565b6126a260608301856114aa565b6126af60808301846113e0565b9695505050505050565b601881526000602082017f434c41494d41424c455f46554e44494e475f414d4f554e54000000000000000081529150612656565b60208082528101610c30816126b9565b6080810161270b82876114aa565b61271860208301866113e0565b61272560408301856113e0565b611fd560608301846113e056","linkReferences":{}},"methodIdentifiers":{"CHAINLINK_PRICE_FEED_PROVIDER()":"e7cc9ced","DATA_STORE()":"c1d07cc2","READER()":"698eec44","REFERRAL_STORAGE_ADDRESS()":"2091304b","UI_FEE_RECEIVER_ADDRESS()":"08b3b26b","WRAPPED_NATIVE_TOKEN()":"1b3f8c5e","getManagedAssets()":"80daddb8"},"id":117}