{"abi":[{"type":"constructor","inputs":[{"name":"_chainlinkPriceFeedProvider","type":"address","internalType":"contract IGMXV2ChainlinkPriceFeedProvider"},{"name":"_dataStore","type":"address","internalType":"contract IGMXV2DataStore"},{"name":"_reader","type":"address","internalType":"contract IGMXV2Reader"},{"name":"_referralStorageAddress","type":"address","internalType":"address"},{"name":"_uiFeeReceiverAddress","type":"address","internalType":"address"},{"name":"_wrappedNativeToken","type":"address","internalType":"contract IWETH"}],"stateMutability":"nonpayable"},{"type":"function","name":"CHAINLINK_PRICE_FEED_PROVIDER","inputs":[],"outputs":[{"name":"","type":"address","internalType":"contract IGMXV2ChainlinkPriceFeedProvider"}],"stateMutability":"view"},{"type":"function","name":"DATA_STORE","inputs":[],"outputs":[{"name":"","type":"address","internalType":"contract IGMXV2DataStore"}],"stateMutability":"view"},{"type":"function","name":"READER","inputs":[],"outputs":[{"name":"","type":"address","internalType":"contract IGMXV2Reader"}],"stateMutability":"view"},{"type":"function","name":"REFERRAL_STORAGE_ADDRESS","inputs":[],"outputs":[{"name":"","type":"address","internalType":"address"}],"stateMutability":"view"},{"type":"function","name":"UI_FEE_RECEIVER_ADDRESS","inputs":[],"outputs":[{"name":"","type":"address","internalType":"address"}],"stateMutability":"view"},{"type":"function","name":"WRAPPED_NATIVE_TOKEN","inputs":[],"outputs":[{"name":"","type":"address","internalType":"contract IWETH"}],"stateMutability":"view"},{"type":"function","name":"getManagedAssets","inputs":[],"outputs":[{"name":"assets_","type":"address[]","internalType":"address[]"},{"name":"amounts_","type":"uint256[]","internalType":"uint256[]"}],"stateMutability":"view"},{"type":"event","name":"CallbackContractSet","inputs":[{"name":"market","type":"address","indexed":false,"internalType":"address"}],"anonymous":false},{"type":"event","name":"ClaimableCollateralAdded","inputs":[{"name":"claimableCollateralKey","type":"bytes32","indexed":false,"internalType":"bytes32"},{"name":"token","type":"address","indexed":false,"internalType":"address"},{"name":"market","type":"address","indexed":false,"internalType":"address"},{"name":"timeKey","type":"uint256","indexed":false,"internalType":"uint256"}],"anonymous":false},{"type":"event","name":"ClaimableCollateralRemoved","inputs":[{"name":"claimableCollateralKey","type":"bytes32","indexed":false,"internalType":"bytes32"}],"anonymous":false},{"type":"event","name":"TrackedAssetAdded","inputs":[{"name":"asset","type":"address","indexed":false,"internalType":"address"}],"anonymous":false},{"type":"event","name":"TrackedAssetsCleared","inputs":[],"anonymous":false},{"type":"event","name":"TrackedMarketAdded","inputs":[{"name":"market","type":"address","indexed":false,"internalType":"address"}],"anonymous":false},{"type":"event","name":"TrackedMarketRemoved","inputs":[{"name":"market","type":"address","indexed":false,"internalType":"address"}],"anonymous":false},{"type":"error","name":"InvalidClaimableFactor","inputs":[{"name":"claimableFactor","type":"uint256","internalType":"uint256"}]}],"bytecode":{"object":"0x6101406040523480156200001257600080fd5b5060405162003126380380620031268339810160408190526200003591620000c5565b6001600160a01b0394851660805292841660a05293831660c052821660e0529181166101005216610120526200015d565b60006001600160a01b0382165b92915050565b6000620000738262000066565b620000918162000079565b81146200009d57600080fd5b50565b8051620000738162000086565b620000918162000066565b80516200007381620000ad565b60008060008060008060c08789031215620000e357620000e3600080fd5b6000620000f18989620000a0565b96505060206200010489828a01620000a0565b95505060406200011789828a01620000a0565b94505060606200012a89828a01620000b8565b93505060806200013d89828a01620000b8565b92505060a06200015089828a01620000a0565b9150509295509295509295565b60805160a05160c05160e0516101005161012051612ef76200022f6000396000818160c4015281816107e101526109020152600081816087015261045501526000818160f8015261042d0152600081816101830152610e2801526000818161011f015281816103de01528181610c7d01528181610d5401526110d001526000818161015c0152818161040b015281816109f701528181610ab301528181610caa01528181610d89015281816110fd0152818161117801528181611213015281816112c201526114210152612ef76000f3fe608060405234801561001057600080fd5b506004361061007d5760003560e01c8063698eec441161005b578063698eec441461011a57806380daddb814610141578063c1d07cc214610157578063e7cc9ced1461017e57600080fd5b806308b3b26b146100825780631b3f8c5e146100bf5780632091304b146100f3575b600080fd5b6100a97f000000000000000000000000000000000000000000000000000000000000000081565b6040516100b69190611992565b60405180910390f35b6100e67f000000000000000000000000000000000000000000000000000000000000000081565b6040516100b691906119e2565b6100a97f000000000000000000000000000000000000000000000000000000000000000081565b6100e67f000000000000000000000000000000000000000000000000000000000000000081565b6101496101a5565b6040516100b6929190611a9d565b6100e67f000000000000000000000000000000000000000000000000000000000000000081565b6100e67f000000000000000000000000000000000000000000000000000000000000000081565b60608060006101b2610c63565b9050600081516001600160401b038111156101cf576101cf611aca565b6040519080825280602002602001820160405280156101f8578160200160208202803683370190505b509050600082516001600160401b0381111561021657610216611aca565b60405190808252806020026020018201604052801561024f57816020015b61023c61190b565b8152602001906001900390816102345790505b509050600083516001600160401b0381111561026d5761026d611aca565b6040519080825280602002602001820160405280156102bf57816020015b60408051608081018252600080825260208083018290529282018190526060820152825260001990920191018161028b5790505b50905060005b82518110156103c35760008582815181106102e2576102e2611ae0565b60200260200101516000015160200151905060006102ff82610d25565b90508186848151811061031457610314611ae0565b60200260200101906001600160a01b031690816001600160a01b0316815250508084848151811061034757610347611ae0565b6020026020010181905250604051806060016040528061036a8360200151610dfa565b815260200161037c8360400151610dfa565b815260200161038e8360600151610dfa565b8152508584815181106103a3576103a3611ae0565b6020026020010181905250505080806103bb90611b0c565b9150506102c5565b50604051630582f07560e51b81526000906001600160a01b037f0000000000000000000000000000000000000000000000000000000000000000169063b05e0ea090610483907f0000000000000000000000000000000000000000000000000000000000000000907f00000000000000000000000000000000000000000000000000000000000000009030908a908a907f0000000000000000000000000000000000000000000000000000000000000000908a9060001990600401611bee565b600060405180830381865afa1580156104a0573d6000803e3d6000fd5b505050506040513d6000823e601f3d908101601f191682016040526104c89190810190612440565b905060005b81518110156107055760008282815181106104ea576104ea611ae0565b602002602001015190506000808260800151131561052557816040015160c0015160200151826080015161051e9190612490565b9050610562565b60008260800151121561056257610556826040015160c00151600001518360800151610550906124be565b90610ebf565b61055f906124be565b90505b600080836060015160800151131561059b57826040015160c00151602001518360600151608001516105949190612490565b90506105da565b600083606001516080015112156105da576105ce836040015160c0015160000151846060015160800151610550906124be565b6105d7906124be565b90505b600083604001516101e001518284866020015160200151604001516105ff91906124da565b61060991906124da565b61061391906124fd565b90506000811315610643576106288b82610ef7565b60208501515160400151909b50610640908d90610fc6565b9b505b600087868151811061065757610657611ae0565b60200260200101519050846040015160400151602001516000146106a9576040810151610685908e90610fc6565b9c506106a6856040015160400151602001518d610ef790919063ffffffff16565b9b505b6040808601518101510151156106ed5760608101516106c9908e90610fc6565b9c506106ea856040015160400151604001518d610ef790919063ffffffff16565b9b505b505050505080806106fd90611b0c565b9150506104cd565b5060006107106110b6565b90506000805b82518110156107d457600083828151811061073357610733611ae0565b60200260200101519050600260088111156107505761075061251f565b602080830151015151600881111561076a5761076a61251f565b036107a85760208101515160c00151610784908c90610fc6565b9a506107a5816020015160200151606001518b610ef790919063ffffffff16565b99505b602080820151015160c001516107be9084612535565b92505080806107cc90611b0c565b915050610716565b50801561081457610805897f0000000000000000000000000000000000000000000000000000000000000000610fc6565b98506108118882610ef7565b97505b60005b6001548110156108e85760006001828154811061083657610836611ae0565b60009182526020822001546040516370a0823160e01b81526001600160a01b03909116925082906370a0823190610871903090600401611992565b602060405180830381865afa15801561088e573d6000803e3d6000fd5b505050506040513d601f19601f820116820180604052508101906108b29190612548565b905080156108d3576108c48c83610fc6565b9b506108d08b82610ef7565b9a505b505080806108e090611b0c565b915050610817565b50478015610929576108fa8982610ef7565b98506109268a7f0000000000000000000000000000000000000000000000000000000000000000610fc6565b99505b60005b600354811015610b585760006003828154811061094b5761094b611ae0565b6000918252602080832090910154808352600482526040808420815160608101835281546001600160a01b0390811680835260018401549091169582018690526002909201549281018390529295509193926109a8929091611173565b90506c0c9f2c9cd04674edea400000008111156109e35780604051636c2738d360e01b81526004016109da9190612569565b60405180910390fd5b81516109f0908f90610fc6565b9d50610b407f00000000000000000000000000000000000000000000000000000000000000006001600160a01b031663bd02d0f5610a3b8560200151866000015187604001516113a5565b6040518263ffffffff1660e01b8152600401610a579190612569565b602060405180830381865afa158015610a74573d6000803e3d6000fd5b505050506040513d601f19601f82011682018060405250810190610a989190612548565b60405163bd02d0f560e01b8152610b2f906001600160a01b037f0000000000000000000000000000000000000000000000000000000000000000169063bd02d0f590610ae8908990600401612569565b602060405180830381865afa158015610b05573d6000803e3d6000fd5b505050506040513d601f19601f82011682018060405250810190610b299190612548565b84611403565b610b399190612577565b8e90610ef7565b9c505050508080610b5090611b0c565b91505061092c565b5060005b600254811015610c48576000610b9860028381548110610b7e57610b7e611ae0565b6000918252602090912001546001600160a01b0316610d25565b90506000610bae8260000151836040015161141d565b90508015610bd5576040820151610bc6908e90610fc6565b9c50610bd28c82610ef7565b9b505b81606001516001600160a01b031682604001516001600160a01b031614610c33576000610c0a8360000151846060015161141d565b90508015610c31576060830151610c22908f90610fc6565b9d50610c2e8d82610ef7565b9c505b505b50508080610c4090611b0c565b915050610b5c565b50610c538a8a6114fc565b9950995050505050505050509091565b604051633be7d8b160e11b81526060906001600160a01b037f000000000000000000000000000000000000000000000000000000000000000016906377cfb16290610cdb907f00000000000000000000000000000000000000000000000000000000000000009030906000906000199060040161258a565b600060405180830381865afa158015610cf8573d6000803e3d6000fd5b505050506040513d6000823e601f3d908101601f19168201604052610d209190810190612641565b905090565b604080516080810182526000808252602082018190528183018190526060820152905163714af34b60e01b81527f00000000000000000000000000000000000000000000000000000000000000006001600160a01b03169063714af34b90610db3907f000000000000000000000000000000000000000000000000000000000000000090869060040161267b565b608060405180830381865afa158015610dd0573d6000803e3d6000fd5b505050506040513d601f19601f82011682018060405250810190610df491906126fc565b92915050565b604080518082019091526000808252602082015260405163377bbdaf60e01b81526000906001600160a01b037f0000000000000000000000000000000000000000000000000000000000000000169063377bbdaf90610e5d90869060040161271d565b60a060405180830381865afa158015610e7a573d6000803e3d6000fd5b505050506040513d601f19601f82011682018060405250810190610e9e91906127c7565b60408051808201825260208084015182529190920151908201529392505050565b60008215610eed5781610ed3600185612577565b610edd91906127e8565b610ee8906001612535565b610ef0565b60005b9392505050565b606082516001610f079190612535565b6001600160401b03811115610f1e57610f1e611aca565b604051908082528060200260200182016040528015610f47578160200160208202803683370190505b50905060005b8351811015610f9f57838181518110610f6857610f68611ae0565b6020026020010151828281518110610f8257610f82611ae0565b602090810291909101015280610f9781611b0c565b915050610f4d565b508181845181518110610fb457610fb4611ae0565b60200260200101818152505092915050565b606082516001610fd69190612535565b6001600160401b03811115610fed57610fed611aca565b604051908082528060200260200182016040528015611016578160200160208202803683370190505b50905060005b835181101561107b5783818151811061103757611037611ae0565b602002602001015182828151811061105157611051611ae0565b6001600160a01b03909216602092830291909101909101528061107381611b0c565b91505061101c565b50818184518151811061109057611090611ae0565b60200260200101906001600160a01b031690816001600160a01b03168152505092915050565b6040516342a6f8d360e01b81526060906001600160a01b037f000000000000000000000000000000000000000000000000000000000000000016906342a6f8d39061112e907f00000000000000000000000000000000000000000000000000000000000000009030906000906000199060040161258a565b600060405180830381865afa15801561114b573d6000803e3d6000fd5b505050506040513d6000823e601f3d908101601f19168201604052610d209190810190612cfc565b6000807f00000000000000000000000000000000000000000000000000000000000000006001600160a01b031663bd02d0f56111b08787876117af565b6040518263ffffffff1660e01b81526004016111cc9190612569565b602060405180830381865afa1580156111e9573d6000803e3d6000fd5b505050506040513d601f19601f8201168201806040525081019061120d9190612548565b905060007f00000000000000000000000000000000000000000000000000000000000000006001600160a01b031663bd02d0f561124c888888306117ec565b6040518263ffffffff1660e01b81526004016112689190612569565b602060405180830381865afa158015611285573d6000803e3d6000fd5b505050506040513d601f19601f820116820180604052508101906112a99190612548565b905060008183116112ba57816112bc565b825b905060007f00000000000000000000000000000000000000000000000000000000000000006001600160a01b031663bd02d0f56112fb8a8a8a3061184b565b6040518263ffffffff1660e01b81526004016113179190612569565b602060405180830381865afa158015611334573d6000803e3d6000fd5b505050506040513d601f19601f820116820180604052508101906113589190612548565b905081158015611366575080155b1561137c576c0c9f2c9cd04674edea4000000091505b808211156113955761138e8183612577565b915061139a565b600091505b509695505050505050565b60006040516020016113b690612d6d565b60405160208183030381529060405280519060200120848484306040516020016113e4959493929190612d7d565b6040516020818303038152906040528051906020012090509392505050565b6000610ef083836c0c9f2c9cd04674edea4000000061185c565b60007f00000000000000000000000000000000000000000000000000000000000000006001600160a01b031663bd02d0f560405160200161145d90612dfd565b604051602081830303815290604052805190602001208585306040516020016114899493929190612e0d565b604051602081830303815290604052805190602001206040518263ffffffff1660e01b81526004016114bb9190612569565b602060405180830381865afa1580156114d8573d6000803e3d6000fd5b505050506040513d601f19601f82011682018060405250810190610ef09190612548565b6060808351600003156117a8576001805b85518110156115af576000805b828110156115885787818151811061153457611534611ae0565b60200260200101516001600160a01b031688848151811061155757611557611ae0565b60200260200101516001600160a01b0316036115765760019150611588565b8061158081611b0c565b91505061151a565b508061159c578261159881611b0c565b9350505b50806115a781611b0c565b91505061150d565b50806001600160401b038111156115c8576115c8611aca565b6040519080825280602002602001820160405280156115f1578160200160208202803683370190505b509250806001600160401b0381111561160c5761160c611aca565b604051908082528060200260200182016040528015611635578160200160208202803683370190505b5091506000805b86518110156117a4576000805b838110156116fa5786818151811061166357611663611ae0565b60200260200101516001600160a01b031689848151811061168657611686611ae0565b60200260200101516001600160a01b0316036116e857600191508783815181106116b2576116b2611ae0565b60200260200101518682815181106116cc576116cc611ae0565b602002602001018181516116e09190612535565b9052506116fa565b806116f281611b0c565b915050611649565b50806117915787828151811061171257611712611ae0565b602002602001015186848151811061172c5761172c611ae0565b60200260200101906001600160a01b031690816001600160a01b03168152505086828151811061175e5761175e611ae0565b602002602001015185848151811061177857611778611ae0565b60209081029190910101528261178d81611b0c565b9350505b508061179c81611b0c565b91505061163c565b5050505b9250929050565b60006040516020016117c090612e76565b604051602081830303815290604052805190602001208484846040516020016113e49493929190612e86565b60006040516020016117fd90612e76565b604051602081830303815290604052805190602001208585858560405160200161182b959493929190612d7d565b604051602081830303815290604052805190602001209050949350505050565b60006040516020016117fd90612eae565b60008080600019858709858702925082811083820303915050806000036118965783828161188c5761188c61247a565b0492505050610ef0565b8084116118a257600080fd5b60008486880960026001871981018816978890046003810283188082028403028082028403028082028403028082028403028082028403029081029092039091026000889003889004909101858311909403939093029303949094049190911702949350505050565b6040805160a0810190915260006060820181815260808301919091528190815260200161194b604051806040016040528060008152602001600081525090565b815260200161196d604051806040016040528060008152602001600081525090565b905290565b60006001600160a01b038216610df4565b61198c81611972565b82525050565b60208101610df48284611983565b6000610df46001600160a01b0383166119b7565b90565b6001600160a01b031690565b6000610df4826119a0565b6000610df4826119c3565b61198c816119ce565b60208101610df482846119d9565b60006119fc8383611983565b505060200190565b6000611a0e825190565b80845260209384019383018060005b83811015611a42578151611a3188826119f0565b975060208301925050600101611a1d565b509495945050505050565b8061198c565b60006119fc8383611a4d565b6000611a69825190565b80845260209384019383018060005b83811015611a42578151611a8c8882611a53565b975060208301925050600101611a78565b60408082528101611aae8185611a04565b90508181036020830152611ac28184611a5f565b949350505050565b634e487b7160e01b600052604160045260246000fd5b634e487b7160e01b600052603260045260246000fd5b634e487b7160e01b600052601160045260246000fd5b60006000198203611b1f57611b1f611af6565b5060010190565b80516040830190611b378482611a4d565b506020820151611b4a6020850182611a4d565b50505050565b805160c0830190611b618482611b26565b506020820151611b746040850182611b26565b506040820151611b4a6080850182611b26565b6000611b938383611b50565b505060c00190565b6000611ba5825190565b80845260209384019383018060005b83811015611a42578151611bc88882611b87565b975060208301925050600101611bb4565b6000610df46119b48381565b61198c81611bd9565b6101008101611bfd828b6119d9565b611c0a602083018a611983565b611c176040830189611983565b8181036060830152611c298188611a04565b90508181036080830152611c3d8187611b9b565b9050611c4c60a0830186611983565b611c5960c0830185611be5565b611c6660e0830184611a4d565b9998505050505050505050565b601f19601f83011681018181106001600160401b0382111715611c9857611c98611aca565b6040525050565b6000611caa60405190565b9050611cb68282611c73565b919050565b60006001600160401b03821115611cd457611cd4611aca565b5060209081020190565b805b8114611ceb57600080fd5b50565b8051610df481611cde565b611ce081611972565b8051610df481611cf9565b600060608284031215611d2257611d22600080fd5b611d2c6060611c9f565b90506000611d3a8484611d02565b8252506020611d4b84848301611d02565b6020830152506040611d5f84828501611d02565b60408301525092915050565b60006101408284031215611d8157611d81600080fd5b611d8c610140611c9f565b90506000611d9a8484611cee565b8252506020611dab84848301611cee565b6020830152506040611dbf84828501611cee565b6040830152506060611dd384828501611cee565b6060830152506080611de784828501611cee565b60808301525060a0611dfb84828501611cee565b60a08301525060c0611e0f84828501611cee565b60c08301525060e0611e2384828501611cee565b60e083015250610100611e3884828501611cee565b61010083015250610120611e4e84828501611cee565b6101208301525092915050565b801515611ce0565b8051610df481611e5b565b600060208284031215611e8357611e83600080fd5b611e8d6020611c9f565b90506000611e9b8484611e63565b82525092915050565b60006101c08284031215611eba57611eba600080fd5b611ec46060611c9f565b90506000611ed28484611d0d565b8252506060611ee384848301611d6b565b6020830152506101a0611d5f84828501611e6e565b60006101408284031215611f0e57611f0e600080fd5b611f19610140611c9f565b90506000611f278484611cee565b8252506020611f3884848301611d02565b6020830152506040611dbf84828501611d02565b600060608284031215611f6157611f61600080fd5b611f6b6060611c9f565b90506000611f798484611cee565b8252506020611f8a84848301611cee565b6020830152506040611d5f84828501611cee565b600060c08284031215611fb357611fb3600080fd5b611fbd60c0611c9f565b90506000611fcb8484611cee565b8252506020611fdc84848301611cee565b6020830152506040611ff084828501611cee565b604083015250606061200484828501611cee565b606083015250608061201884828501611cee565b60808301525060a061202c84828501611cee565b60a08301525092915050565b60006080828403121561204d5761204d600080fd5b6120576080611c9f565b905060006120658484611cee565b825250602061207684848301611cee565b602083015250604061208a84828501611cee565b604083015250606061209e84828501611cee565b60608301525092915050565b6000606082840312156120bf576120bf600080fd5b6120c96060611c9f565b90506000611f798484611d02565b6000604082840312156120ec576120ec600080fd5b6120f66040611c9f565b905060006121048484611cee565b825250602061211584848301611cee565b60208301525092915050565b6000610540828403121561213757612137600080fd5b612142610220611c9f565b905060006121508484611ef8565b82525061014061216284848301611f4c565b6020830152506101a061217784828501611f9e565b60408301525061026061218c84828501612038565b6060830152506102e06121a1848285016120aa565b6080830152506103406121b684828501612038565b60a0830152506103c06121cb848285016120d7565b60c0830152506104006121e084828501611cee565b60e0830152506104206121f584828501611cee565b6101008301525061044061220b84828501611cee565b6101208301525061046061222184828501611cee565b6101408301525061048061223784828501611cee565b610160830152506104a061224d84828501611cee565b610180830152506104c061226384828501611cee565b6101a0830152506104e061227984828501611cee565b6101c08301525061050061228f84828501611cee565b6101e0830152506105206122a584828501611cee565b6102008301525092915050565b600060c082840312156122c7576122c7600080fd5b6122d160c0611c9f565b905060006122df8484611cee565b82525060206122f084848301611cee565b6020830152506040611ff084828501611e63565b6000610840828403121561231a5761231a600080fd5b61232460e0611c9f565b905060006123328484611cee565b825250602061234384848301611ea4565b6020830152506101e061235884828501612121565b60408301525061072061236d848285016122b2565b6060830152506107e061238284828501611cee565b60808301525061080061239784828501611cee565b60a0830152506108206123ac84828501611cee565b60c08301525092915050565b60006123cb6123c684611cbb565b611c9f565b83815290506020810161084084028301858111156123eb576123eb600080fd5b835b8181101561241257806124008882612304565b845250602090920191610840016123ed565b5050509392505050565b600082601f83011261243057612430600080fd5b8151611ac28482602086016123b8565b60006020828403121561245557612455600080fd5b81516001600160401b0381111561246e5761246e600080fd5b611ac28482850161241c565b634e487b7160e01b600052601260045260246000fd5b60008261249f5761249f61247a565b600160ff1b8214600019841416156124b9576124b9611af6565b500590565b6000600160ff1b82036124d3576124d3611af6565b5060000390565b8082016000821280158483129081169015919091161715610df457610df4611af6565b81810360008312801583831316838312919091161715610df457610df4611af6565b634e487b7160e01b600052602160045260246000fd5b80820180821115610df457610df4611af6565b60006020828403121561255d5761255d600080fd5b6000611ac28484611cee565b60208101610df48284611a4d565b81810381811115610df457610df4611af6565b6080810161259882876119d9565b6125a56020830186611983565b6125b26040830185611be5565b6125bf6060830184611a4d565b95945050505050565b60006125d66123c684611cbb565b8381529050602081016101c084028301858111156125f6576125f6600080fd5b835b81811015612412578061260b8882611ea4565b8452506020909201916101c0016125f8565b600082601f83011261263157612631600080fd5b8151611ac28482602086016125c8565b60006020828403121561265657612656600080fd5b81516001600160401b0381111561266f5761266f600080fd5b611ac28482850161261d565b6040810161268982856119d9565b610ef06020830184611983565b6000608082840312156126ab576126ab600080fd5b6126b56080611c9f565b905060006126c38484611d02565b82525060206126d484848301611d02565b60208301525060406126e884828501611d02565b604083015250606061209e84828501611d02565b60006080828403121561271157612711600080fd5b6000611ac28484612696565b6040810161272b8284611983565b8181036020830152610ef0816000815260200190565b600060a0828403121561275657612756600080fd5b61276060a0611c9f565b9050600061276e8484611d02565b825250602061277f84848301611cee565b602083015250604061279384828501611cee565b60408301525060606127a784828501611cee565b60608301525060806127bb84828501611d02565b60808301525092915050565b600060a082840312156127dc576127dc600080fd5b6000611ac28484612741565b6000826127f7576127f761247a565b500490565b600061280a6123c684611cbb565b8381529050602080820190840283018581111561282957612829600080fd5b835b81811015612412578061283e8882611d02565b8452506020928301920161282b565b600082601f83011261286157612861600080fd5b8151611ac28482602086016127fc565b6000610100828403121561288757612887600080fd5b612892610100611c9f565b905060006128a08484611d02565b82525060206128b184848301611d02565b60208301525060406128c584828501611d02565b60408301525060606128d984828501611d02565b60608301525060806128ed84828501611d02565b60808301525060a061290184828501611d02565b60a08301525060c061291584828501611d02565b60c08301525060e08201516001600160401b0381111561293757612937600080fd5b6129438482850161284d565b60e08301525092915050565b60098110611ceb57600080fd5b8051610df48161294f565b60038110611ceb57600080fd5b8051610df481612967565b6000610180828403121561299557612995600080fd5b6129a0610180611c9f565b905060006129ae848461295c565b82525060206129bf84848301612974565b60208301525060406129d384828501611cee565b60408301525060606129e784828501611cee565b60608301525060806129fb84828501611cee565b60808301525060a0612a0f84828501611cee565b60a08301525060c0612a2384828501611cee565b60c08301525060e0612a3784828501611cee565b60e083015250610100612a4c84828501611cee565b61010083015250610120612a6284828501611cee565b61012083015250610140612a7884828501611cee565b61014083015250610160612a8e84828501611cee565b6101608301525092915050565b600060808284031215612ab057612ab0600080fd5b612aba6080611c9f565b90506000612ac88484611e63565b8252506020612ad984848301611e63565b6020830152506040612aed84828501611e63565b604083015250606061209e84828501611e63565b6000612b0f6123c684611cbb565b83815290506020808201908402830185811115612b2e57612b2e600080fd5b835b818110156124125780612b438882611cee565b84525060209283019201612b30565b600082601f830112612b6657612b66600080fd5b8151611ac2848260208601612b01565b60006102408284031215612b8c57612b8c600080fd5b612b966080611c9f565b82519091506001600160401b03811115612bb257612bb2600080fd5b612bbe84828501612871565b8252506020612bcf8484830161297f565b6020830152506101a0612be484828501612a9b565b6040830152506102208201516001600160401b03811115612c0757612c07600080fd5b61209e84828501612b52565b600060408284031215612c2857612c28600080fd5b612c326040611c9f565b90506000612c408484611cee565b82525060208201516001600160401b03811115612c5f57612c5f600080fd5b61211584828501612b76565b6000612c796123c684611cbb565b83815290506020808201908402830185811115612c9857612c98600080fd5b835b818110156124125780516001600160401b03811115612cbb57612cbb600080fd5b808601612cc88982612c13565b8552505060209283019201612c9a565b600082601f830112612cec57612cec600080fd5b8151611ac2848260208601612c6b565b600060208284031215612d1157612d11600080fd5b81516001600160401b03811115612d2a57612d2a600080fd5b611ac284828501612cd8565b601981526000602082017f434c41494d45445f434f4c4c41544552414c5f414d4f554e5400000000000000815291505b5060200190565b60208082528101610df481612d36565b60a08101612d8b8288611a4d565b612d986020830187611983565b612da56040830186611983565b612db26060830185611a4d565b612dbf6080830184611983565b9695505050505050565b601881526000602082017f434c41494d41424c455f46554e44494e475f414d4f554e54000000000000000081529150612d66565b60208082528101610df481612dc9565b60808101612e1b8287611a4d565b612e286020830186611983565b612e356040830185611983565b6125bf6060830184611983565b601b81526000602082017f434c41494d41424c455f434f4c4c41544552414c5f464143544f52000000000081529150612d66565b60208082528101610df481612e42565b60808101612e948287611a4d565b612ea16020830186611983565b6125b26040830185611983565b60208082528101610df481602581527f434c41494d41424c455f434f4c4c41544552414c5f524544554354494f4e5f4660208201526420a1aa27a960d91b60408201526060019056","linkReferences":{}},"methodIdentifiers":{"CHAINLINK_PRICE_FEED_PROVIDER()":"e7cc9ced","DATA_STORE()":"c1d07cc2","READER()":"698eec44","REFERRAL_STORAGE_ADDRESS()":"2091304b","UI_FEE_RECEIVER_ADDRESS()":"08b3b26b","WRAPPED_NATIVE_TOKEN()":"1b3f8c5e","getManagedAssets()":"80daddb8"},"id":107}