{"abi":[{"type":"constructor","inputs":[{"name":"_addressListRegistry","type":"address","internalType":"address"},{"name":"_trustedForwardersAddressListId","type":"uint256","internalType":"uint256"}],"stateMutability":"nonpayable"},{"type":"function","name":"exposed_isGSNTrustedForwarder","inputs":[{"name":"_who","type":"address","internalType":"address"}],"outputs":[{"name":"isTrustedForwarder_","type":"bool","internalType":"bool"}],"stateMutability":"view"},{"type":"function","name":"exposed_msgSender","inputs":[],"outputs":[{"name":"canonicalSender_","type":"address","internalType":"address"}],"stateMutability":"view"}],"bytecode":{"object":"0x60c060405234801561001057600080fd5b5060405161034b38038061034b83398101604081905261002f9161008b565b6001600160a01b0390911660805260a0526100c8565b60006001600160a01b0382165b92915050565b61006181610045565b811461006c57600080fd5b50565b805161005281610058565b80610061565b80516100528161007a565b600080604083850312156100a1576100a1600080fd5b60006100ad858561006f565b92505060206100be85828601610080565b9150509250929050565b60805160a0516102606100eb600039600060e00152600060b301526102606000f3fe608060405234801561001057600080fd5b50600436106100365760003560e01c8063052d1c701461003b578063352b358814610064575b600080fd5b61004e6100493660046101ac565b610079565b60405161005b91906101df565b60405180910390f35b61006c61008a565b60405161005b91906101f6565b600061008482610099565b92915050565b600061009461014b565b905090565b6040516307158c8160e21b81526000906001600160a01b037f00000000000000000000000000000000000000000000000000000000000000001690631c5632049061010a907f000000000000000000000000000000000000000000000000000000000000000090869060040161020a565b602060405180830381865afa158015610127573d6000803e3d6000fd5b505050506040513d601f19601f82011682018060405250810190610084919061023f565b600060143610801590610162575061016233610099565b15610174575060131936013560601c90565b503390565b60006001600160a01b038216610084565b61019381610179565b811461019e57600080fd5b50565b80356100848161018a565b6000602082840312156101c1576101c1600080fd5b60006101cd84846101a1565b949350505050565b8015155b82525050565b6020810161008482846101d5565b6101d981610179565b6020810161008482846101ed565b806101d9565b604081016102188285610204565b61022560208301846101ed565b9392505050565b801515610193565b80516100848161022c565b60006020828403121561025457610254600080fd5b60006101cd848461023456","linkReferences":{}},"methodIdentifiers":{"exposed_isGSNTrustedForwarder(address)":"052d1c70","exposed_msgSender()":"352b3588"},"id":232}