{"abi":[{"type":"constructor","inputs":[{"name":"_addressListRegistry","type":"address","internalType":"address"},{"name":"_trustedForwardersAddressListId","type":"uint256","internalType":"uint256"}],"stateMutability":"nonpayable"},{"type":"function","name":"exposed_isGSNTrustedForwarder","inputs":[{"name":"_who","type":"address","internalType":"address"}],"outputs":[{"name":"isTrustedForwarder_","type":"bool","internalType":"bool"}],"stateMutability":"view"},{"type":"function","name":"exposed_msgSender","inputs":[],"outputs":[{"name":"canonicalSender_","type":"address","internalType":"address"}],"stateMutability":"view"}],"bytecode":{"object":"0x60c060405234801561001057600080fd5b5060405161027a38038061027a83398101604081905261002f91610045565b6001600160a01b0390911660805260a05261007f565b6000806040838503121561005857600080fd5b82516001600160a01b038116811461006f57600080fd5b6020939093015192949293505050565b60805160a0516101d86100a2600039600060b20152600060eb01526101d86000f3fe608060405234801561001057600080fd5b50600436106100365760003560e01c8063052d1c701461003b578063352b358814610063575b600080fd5b61004e610049366004610186565b610083565b60405190151581526020015b60405180910390f35b61006b610094565b6040516001600160a01b03909116815260200161005a565b600061008e826100a3565b92915050565b600061009e610158565b905090565b6040516307158c8160e21b81527f000000000000000000000000000000000000000000000000000000000000000060048201526001600160a01b0382811660248301526000917f000000000000000000000000000000000000000000000000000000000000000090911690631c56320490604401602060405180830381865afa158015610134573d6000803e3d6000fd5b505050506040513d601f19601f8201168201806040525081019061008e91906101b6565b60006014361080159061016f575061016f336100a3565b15610181575060131936013560601c90565b503390565b60006020828403121561019857600080fd5b81356001600160a01b03811681146101af57600080fd5b9392505050565b6000602082840312156101c857600080fd5b815180151581146101af57600080fd","linkReferences":{}},"methodIdentifiers":{"exposed_isGSNTrustedForwarder(address)":"052d1c70","exposed_msgSender()":"352b3588"},"id":191}