{"abi":[{"type":"constructor","inputs":[{"name":"_mysoRouterAddress","type":"address","internalType":"address"}],"stateMutability":"nonpayable"},{"type":"function","name":"MYSO_ROUTER","inputs":[],"outputs":[{"name":"","type":"address","internalType":"contract IMysoV3Router"}],"stateMutability":"view"},{"type":"function","name":"parseAssetsForAction","inputs":[{"name":"","type":"address","internalType":"address"},{"name":"_actionId","type":"uint256","internalType":"uint256"},{"name":"_encodedActionArgs","type":"bytes","internalType":"bytes"}],"outputs":[{"name":"assetsToTransfer_","type":"address[]","internalType":"address[]"},{"name":"amountsToTransfer_","type":"uint256[]","internalType":"uint256[]"},{"name":"assetsToReceive_","type":"address[]","internalType":"address[]"}],"stateMutability":"view"},{"type":"function","name":"parseInitArgs","inputs":[{"name":"","type":"address","internalType":"address"},{"name":"","type":"bytes","internalType":"bytes"}],"outputs":[{"name":"","type":"bytes","internalType":"bytes"}],"stateMutability":"nonpayable"}],"bytecode":{"object":"0x60a06040523480156200001157600080fd5b50604051620014e5380380620014e5833981016040819052620000349162000080565b6001600160a01b0316608052620000ad565b60006001600160a01b0382165b92915050565b620000648162000046565b81146200007057600080fd5b50565b8051620000538162000059565b600060208284031215620000975762000097600080fd5b6000620000a5848462000073565b949350505050565b608051611416620000cf60003960008181604b015261039701526114166000f3fe608060405234801561001057600080fd5b50600436106100415760003560e01c8063ab7bc3e214610046578063bbd2d64614610083578063db16c72e146100a5575b600080fd5b61006d7f000000000000000000000000000000000000000000000000000000000000000081565b60405161007a9190610767565b60405180910390f35b6100966100913660046108ba565b6100c8565b60405161007a939291906109da565b6100bb6100b3366004610a1c565b606092915050565b60405161007a9190610ac9565b60608080846100f9576100ed848060200190518101906100e89190610e27565b6101a6565b9194509250905061019d565b600185036101275761011d84806020019051810190610118919061100e565b6102d2565b909350915061019d565b600285036101525761014b84806020019051810190610146919061112a565b610384565b905061019d565b600385036101765761014b84806020019051810190610171919061124b565b61050d565b6004850361019d5761019a8480602001905181019061019591906112d5565b610563565b90505b93509350939050565b6040805160018082528183019092526060918291829160208083019080368337505060408051600180825281830190925292955090506020808301908036833750506040805160018082528183019092529294509050602080830190803683375050855151518551929350918591506000906102245761022461130f565b60200260200101906001600160a01b031690816001600160a01b031681525050836000015160000151608001516001600160801b03168260008151811061026d5761026d61130f565b602090810291909101015283515160c00151604001516102935783515160400151610298565b835151515b816000815181106102ab576102ab61130f565b60200260200101906001600160a01b031690816001600160a01b0316815250509193909250565b604080516001808252818301909252606091829190602080830190803683375050604080516001808252818301909252929450905060208083019080368337505084515184519293509184915060009061032e5761032e61130f565b60200260200101906001600160a01b031690816001600160a01b0316815250508260000151604001516001600160801b0316816000815181106103735761037361130f565b602002602001018181525050915091565b606060005b8251518110156105075760007f00000000000000000000000000000000000000000000000000000000000000006001600160a01b03166347e5dc20856000015184815181106103da576103da61130f565b602002602001015160016040518363ffffffff1660e01b8152600401610401929190611355565b600060405180830381865afa15801561041e573d6000803e3d6000fd5b505050506040513d6000823e601f3d908101601f191682016040526104469190810190611377565b905060008160008151811061045d5761045d61130f565b60200260200101516001600160a01b0316632844e1e06040518163ffffffff1660e01b815260040161016060405180830381865afa1580156104a3573d6000803e3d6000fd5b505050506040513d601f19601f820116820180604052508101906104c791906113b1565b80519091506104d790859061059f565b93506104f081604001518561059f90919063ffffffff16565b9350505080806104ff906113e9565b915050610389565b50919050565b606060005b8260200151518110156105075761054f836020015182815181106105385761053861130f565b60200260200101518361059f90919063ffffffff16565b91508061055b816113e9565b915050610512565b606060005b8251518110156105075761058b836000015182815181106105385761053861130f565b915080610597816113e9565b915050610568565b60606105ab83836105ca565b156105b75750816105c4565b6105c1838361062f565b90505b92915050565b6000805b8351811015610625578381815181106105e9576105e961130f565b60200260200101516001600160a01b0316836001600160a01b0316036106135760019150506105c4565b8061061d816113e9565b9150506105ce565b5060009392505050565b60608251600161063f9190611403565b6001600160401b03811115610656576106566107b9565b60405190808252806020026020018201604052801561067f578160200160208202803683370190505b50905060005b83518110156106e4578381815181106106a0576106a061130f565b60200260200101518282815181106106ba576106ba61130f565b6001600160a01b0390921660209283029190910190910152806106dc816113e9565b915050610685565b5081818451815181106106f9576106f961130f565b60200260200101906001600160a01b031690816001600160a01b03168152505092915050565b60006105c46001600160a01b038316610736565b90565b6001600160a01b031690565b60006105c48261071f565b60006105c482610742565b6107618161074d565b82525050565b602081016105c48284610758565b60006001600160a01b0382166105c4565b61078f81610775565b811461079a57600080fd5b50565b80356105c481610786565b8061078f565b80356105c4816107a8565b634e487b7160e01b600052604160045260246000fd5b601f19601f83011681018181106001600160401b03821117156107f4576107f46107b9565b6040525050565b600061080660405190565b905061081282826107cf565b919050565b60006001600160401b03821115610830576108306107b9565b601f19601f83011660200192915050565b82818337506000910152565b600061086061085b84610817565b6107fb565b90508281526020810184848401111561087b5761087b600080fd5b610886848285610841565b509392505050565b600082601f8301126108a2576108a2600080fd5b81356108b284826020860161084d565b949350505050565b6000806000606084860312156108d2576108d2600080fd5b60006108de868661079d565b93505060206108ef868287016107ae565b92505060408401356001600160401b0381111561090e5761090e600080fd5b61091a8682870161088e565b9150509250925092565b61076181610775565b60006109398383610924565b505060200190565b600061094b825190565b80845260209384019383018060005b8381101561097f57815161096e888261092d565b97506020830192505060010161095a565b509495945050505050565b80610761565b6000610939838361098a565b60006109a6825190565b80845260209384019383018060005b8381101561097f5781516109c98882610990565b9750602083019250506001016109b5565b606080825281016109eb8186610941565b905081810360208301526109ff818561099c565b90508181036040830152610a138184610941565b95945050505050565b60008060408385031215610a3257610a32600080fd5b6000610a3e858561079d565b92505060208301356001600160401b03811115610a5d57610a5d600080fd5b610a698582860161088e565b9150509250929050565b60005b83811015610a8e578181015183820152602001610a76565b50506000910152565b6000610aa1825190565b808452602084019350610ab8818560208601610a73565b601f01601f19169290920192915050565b602080825281016105c18184610a97565b80516105c481610786565b65ffffffffffff811661078f565b80516105c481610ae5565b6001600160801b03811661078f565b80516105c481610afe565b6001600160401b03811661078f565b80516105c481610b18565b80151561078f565b80516105c481610b32565b600060a08284031215610b5a57610b5a600080fd5b610b6460a06107fb565b90506000610b728484610b27565b8252506020610b8384848301610ada565b6020830152506040610b9784828501610b3a565b6040830152506060610bab84828501610b3a565b6060830152506080610bbf84828501610ada565b60808301525092915050565b60006101608284031215610be157610be1600080fd5b610beb60e06107fb565b90506000610bf98484610ada565b8252506020610c0a84848301610af3565b6020830152506040610c1e84828501610ada565b6040830152506060610c3284828501610af3565b6060830152506080610c4684828501610b0d565b60808301525060a0610c5a84828501610b0d565b60a08301525060c0610c6e84828501610b45565b60c08301525092915050565b80516105c4816107a8565b6000610c9361085b84610817565b905082815260208101848484011115610cae57610cae600080fd5b610886848285610a73565b600082601f830112610ccd57610ccd600080fd5b81516108b2848260208601610c85565b600060808284031215610cf257610cf2600080fd5b610cfc60806107fb565b90506000610d0a8484610b0d565b8252506020610d1b84848301610c7a565b60208301525060408201516001600160401b03811115610d3d57610d3d600080fd5b610d4984828501610cb9565b6040830152506060610d5d84828501610ada565b60608301525092915050565b60006101808284031215610d7f57610d7f600080fd5b610d8960406107fb565b90506000610d978484610bcb565b8252506101608201516001600160401b03811115610db757610db7600080fd5b610dc384828501610cdd565b60208301525092915050565b600060408284031215610de457610de4600080fd5b610dee60406107fb565b82519091506001600160401b03811115610e0a57610e0a600080fd5b610e1684828501610d69565b8252506020610dc384848301610ada565b600060208284031215610e3c57610e3c600080fd5b81516001600160401b03811115610e5557610e55600080fd5b6108b284828501610dcf565b63ffffffff811661078f565b80516105c481610e61565b60006101208284031215610e8e57610e8e600080fd5b610e996101206107fb565b90506000610ea78484610b0d565b8252506020610eb884848301610af3565b6020830152506040610ecc84828501610af3565b6040830152506060610ee084828501610e6d565b6060830152506080610ef484828501610e6d565b60808301525060a0610f0884828501610b27565b60a08301525060c0610f1c84828501610b27565b60c08301525060e0610f3084828501610b0d565b60e083015250610100610f4584828501610b0d565b6101008301525092915050565b60006102208284031215610f6857610f68600080fd5b610f7260a06107fb565b90506000610f808484610ada565b8252506020610f9184848301610ada565b6020830152506040610fa584828501610b0d565b6040830152506060610fb984828501610e78565b606083015250610180610bbf84828501610b45565b60006102408284031215610fe457610fe4600080fd5b610fee60406107fb565b90506000610ffc8484610f52565b825250610220610dc384848301610ada565b6000610240828403121561102457611024600080fd5b60006108b28484610fce565b60006001600160401b03821115611049576110496107b9565b5060209081020190565b600061106161085b84611030565b8381529050602080820190840283018581111561108057611080600080fd5b835b818110156110a457806110958882610e6d565b84525060209283019201611082565b5050509392505050565b600082601f8301126110c2576110c2600080fd5b81516108b2848260208601611053565b6000604082840312156110e7576110e7600080fd5b6110f160406107fb565b82519091506001600160401b0381111561110d5761110d600080fd5b611119848285016110ae565b8252506020610dc384848301610b3a565b60006020828403121561113f5761113f600080fd5b81516001600160401b0381111561115857611158600080fd5b6108b2848285016110d2565b600061117261085b84611030565b8381529050602080820190840283018581111561119157611191600080fd5b835b818110156110a457806111a68882610ada565b84525060209283019201611193565b600082601f8301126111c9576111c9600080fd5b81516108b2848260208601611164565b6000604082840312156111ee576111ee600080fd5b6111f860406107fb565b82519091506001600160401b0381111561121457611214600080fd5b611220848285016111b5565b82525060208201516001600160401b0381111561123f5761123f600080fd5b610dc3848285016111b5565b60006020828403121561126057611260600080fd5b81516001600160401b0381111561127957611279600080fd5b6108b2848285016111d9565b60006020828403121561129a5761129a600080fd5b6112a460206107fb565b82519091506001600160401b038111156112c0576112c0600080fd5b6112cc848285016111b5565b82525092915050565b6000602082840312156112ea576112ea600080fd5b81516001600160401b0381111561130357611303600080fd5b6108b284828501611285565b634e487b7160e01b600052603260045260246000fd5b60006105c461073363ffffffff841681565b61076181611325565b60006105c46107338381565b61076181611340565b604081016113638285611337565b611370602083018461134c565b9392505050565b60006020828403121561138c5761138c600080fd5b81516001600160401b038111156113a5576113a5600080fd5b6108b2848285016111b5565b600061016082840312156113c7576113c7600080fd5b60006108b28484610bcb565b634e487b7160e01b600052601160045260246000fd5b600060001982036113fc576113fc6113d3565b5060010190565b808201808211156105c4576105c46113d356","linkReferences":{}},"methodIdentifiers":{"MYSO_ROUTER()":"ab7bc3e2","parseAssetsForAction(address,uint256,bytes)":"bbd2d646","parseInitArgs(address,bytes)":"db16c72e"},"id":130}