{"abi":[{"type":"function","name":"buyBackSharesViaTrustedVaultProxy","inputs":[{"name":"_sharesAmount","type":"uint256","internalType":"uint256"},{"name":"_mlnValue","type":"uint256","internalType":"uint256"},{"name":"","type":"uint256","internalType":"uint256"}],"outputs":[{"name":"mlnAmountToBurn_","type":"uint256","internalType":"uint256"}],"stateMutability":"nonpayable"},{"type":"function","name":"callOnContract","inputs":[{"name":"_contract","type":"address","internalType":"address"},{"name":"_callData","type":"bytes","internalType":"bytes"}],"outputs":[],"stateMutability":"nonpayable"},{"type":"function","name":"getDispatcher","inputs":[],"outputs":[{"name":"dispatcher_","type":"address","internalType":"address"}],"stateMutability":"view"},{"type":"function","name":"getProtocolFeeReserveLib","inputs":[],"outputs":[{"name":"protocolFeeReserveLib_","type":"address","internalType":"address"}],"stateMutability":"view"},{"type":"function","name":"init","inputs":[{"name":"_dispatcher","type":"address","internalType":"address"}],"outputs":[],"stateMutability":"nonpayable"},{"type":"function","name":"proxiableUUID","inputs":[],"outputs":[{"name":"uuid_","type":"bytes32","internalType":"bytes32"}],"stateMutability":"pure"},{"type":"function","name":"setProtocolFeeReserveLib","inputs":[{"name":"_nextProtocolFeeReserveLib","type":"address","internalType":"address"}],"outputs":[],"stateMutability":"nonpayable"},{"type":"event","name":"MlnTokenBalanceWithdrawn","inputs":[{"name":"to","type":"address","indexed":true,"internalType":"address"},{"name":"amount","type":"uint256","indexed":false,"internalType":"uint256"}],"anonymous":false},{"type":"event","name":"ProtocolFeeReserveLibSet","inputs":[{"name":"nextProtocolFeeReserveLib","type":"address","indexed":false,"internalType":"address"}],"anonymous":false},{"type":"event","name":"SharesBoughtBack","inputs":[{"name":"vaultProxy","type":"address","indexed":true,"internalType":"address"},{"name":"sharesAmount","type":"uint256","indexed":false,"internalType":"uint256"},{"name":"mlnValue","type":"uint256","indexed":false,"internalType":"uint256"},{"name":"mlnBurned","type":"uint256","indexed":false,"internalType":"uint256"}],"anonymous":false}],"bytecode":{"object":"0x608060405234801561001057600080fd5b506107b9806100206000396000f3fe608060405234801561001057600080fd5b506004361061007d5760003560e01c8063a90cce4b1161005b578063a90cce4b146100ed578063b3e2546b1461016d578063c75a882a14610191578063ebb3d589146101b75761007d565b806319ab453c1461008257806352d1902d146100aa57806396c45aec146100c4575b600080fd5b6100a86004803603602081101561009857600080fd5b50356001600160a01b03166101bf565b005b6100b2610286565b60408051918252519081900360200190f35b6100b2600480360360608110156100da57600080fd5b50803590602081013590604001356102aa565b6100a86004803603604081101561010357600080fd5b6001600160a01b03823516919081019060408101602082013564010000000081111561012e57600080fd5b82018360208201111561014057600080fd5b8035906020019184600183028401116401000000008311171561016257600080fd5b509092509050610311565b6101756104c0565b604080516001600160a01b039092168252519081900360200190f35b6100a8600480360360208110156101a757600080fd5b50356001600160a01b03166104e5565b6101756105df565b60006101c96105df565b6001600160a01b031614610224576040805162461bcd60e51b815260206004820152601f60248201527f696e69743a2050726f787920616c726561647920696e697469616c697a656400604482015290519081900360640190fd5b600080546001600160a01b0319166001600160a01b0383161790557f637d0ba5806b2c873952a12cd23e7cf28669dba115b2ded43df3d2d75c71e8c16102686104c0565b604080516001600160a01b039092168252519081900360200190a150565b7fbc966524590ce702cc9340e80d86ea9095afa6b8eecbb5d6213f57633223918190565b60006102b78360026105ee565b9050806102c65750600061030a565b6040805185815260208101859052808201839052905133917f6b63e290827c0f9226da4ffa1b681a509f0764acfc1ab99503a4f55012ec3c19919081900360600190a25b9392505050565b6103196105df565b6001600160a01b031663893d20e86040518163ffffffff1660e01b815260040160206040518083038186803b15801561035157600080fd5b505afa158015610365573d6000803e3d6000fd5b505050506040513d602081101561037b57600080fd5b50516001600160a01b031633146103c35760405162461bcd60e51b815260040180806020018281038252603081526020018061077d6030913960400191505060405180910390fd5b60006060846001600160a01b03168484604051808383808284376040519201945060009350909150508083038183865af19150503d8060008114610423576040519150601f19603f3d011682016040523d82523d6000602084013e610428565b606091505b50915091508181906104b85760405162461bcd60e51b81526004018080602001828103825283818151815260200191508051906020019080838360005b8381101561047d578181015183820152602001610465565b50505050905090810190601f1680156104aa5780820380516001836020036101000a031916815260200191505b509250505060405180910390fd5b505050505050565b7f360894a13ba1a3210667c828492db98dca3e2076cc3735a920a3ca505d382bbc5490565b6104ed6105df565b6001600160a01b031663893d20e86040518163ffffffff1660e01b815260040160206040518083038186803b15801561052557600080fd5b505afa158015610539573d6000803e3d6000fd5b505050506040513d602081101561054f57600080fd5b50516001600160a01b031633146105975760405162461bcd60e51b815260040180806020018281038252603081526020018061077d6030913960400191505060405180910390fd5b6105a081610655565b604080516001600160a01b038316815290517f637d0ba5806b2c873952a12cd23e7cf28669dba115b2ded43df3d2d75c71e8c19181900360200190a150565b6000546001600160a01b031690565b6000808211610644576040805162461bcd60e51b815260206004820152601a60248201527f536166654d6174683a206469766973696f6e206279207a65726f000000000000604482015290519081900360640190fd5b81838161064d57fe5b049392505050565b7fbc966524590ce702cc9340e80d86ea9095afa6b8eecbb5d6213f57633223918160001b816001600160a01b03166352d1902d6040518163ffffffff1660e01b815260040160206040518083038186803b1580156106b257600080fd5b505afa1580156106c6573d6000803e3d6000fd5b505050506040513d60208110156106dc57600080fd5b50511461071a5760405162461bcd60e51b815260040180806020018281038252603e81526020018061073f603e913960400191505060405180910390fd5b7f360894a13ba1a3210667c828492db98dca3e2076cc3735a920a3ca505d382bbc5556fe5f5f757064617465436f6465416464726573733a205f6e65787450726f746f636f6c466565526573657276654c6962206e6f7420636f6d70617469626c654f6e6c79207468652044697370617463686572206f776e65722063616e2063616c6c20746869732066756e6374696f6ea164736f6c634300060c000a","linkReferences":{}},"methodIdentifiers":{"buyBackSharesViaTrustedVaultProxy(uint256,uint256,uint256)":"96c45aec","callOnContract(address,bytes)":"a90cce4b","getDispatcher()":"ebb3d589","getProtocolFeeReserveLib()":"b3e2546b","init(address)":"19ab453c","proxiableUUID()":"52d1902d","setProtocolFeeReserveLib(address)":"c75a882a"},"id":89}