{"abi":[{"type":"constructor","inputs":[{"name":"_referrerAddress","type":"address","internalType":"address"}],"stateMutability":"nonpayable"},{"type":"function","name":"getDebtAssets","inputs":[],"outputs":[{"name":"assets_","type":"address[]","internalType":"address[]"},{"name":"amounts_","type":"uint256[]","internalType":"uint256[]"}],"stateMutability":"pure"},{"type":"function","name":"getManagedAssets","inputs":[],"outputs":[{"name":"assets_","type":"address[]","internalType":"address[]"},{"name":"amounts_","type":"uint256[]","internalType":"uint256[]"}],"stateMutability":"view"},{"type":"function","name":"getOfferIdsFromTermAuction","inputs":[{"name":"_termAuctionAddress","type":"address","internalType":"address"}],"outputs":[{"name":"offerIds_","type":"bytes32[]","internalType":"bytes32[]"}],"stateMutability":"view"},{"type":"function","name":"getTermAuctions","inputs":[],"outputs":[{"name":"termAuctions_","type":"address[]","internalType":"address[]"}],"stateMutability":"view"},{"type":"function","name":"init","inputs":[{"name":"","type":"bytes","internalType":"bytes"}],"outputs":[],"stateMutability":"nonpayable"},{"type":"function","name":"receiveCallFromVault","inputs":[{"name":"_actionData","type":"bytes","internalType":"bytes"}],"outputs":[],"stateMutability":"nonpayable"},{"type":"event","name":"OfferAdded","inputs":[{"name":"termAuction","type":"address","indexed":true,"internalType":"address"},{"name":"offerId","type":"bytes32","indexed":true,"internalType":"bytes32"}],"anonymous":false},{"type":"event","name":"OfferRemoved","inputs":[{"name":"termAuction","type":"address","indexed":true,"internalType":"address"},{"name":"offerId","type":"bytes32","indexed":true,"internalType":"bytes32"}],"anonymous":false},{"type":"event","name":"TermAuctionAdded","inputs":[{"name":"termAuction","type":"address","indexed":true,"internalType":"address"}],"anonymous":false},{"type":"event","name":"TermAuctionRemoved","inputs":[{"name":"termAuction","type":"address","indexed":true,"internalType":"address"}],"anonymous":false}],"bytecode":{"object":"0x60a06040523480156200001157600080fd5b506040516200316338038062003163833981016040819052620000349162000080565b6001600160a01b0316608052620000ad565b60006001600160a01b0382165b92915050565b620000648162000046565b81146200007057600080fd5b50565b8051620000538162000059565b600060208284031215620000975762000097600080fd5b6000620000a5848462000073565b949350505050565b60805161309a620000c960003960006110f9015261309a6000f3fe608060405234801561001057600080fd5b50600436106100625760003560e01c8063050c2735146100675780634ddf47d41461008557806380daddb814610098578063afb806da146100ae578063e5c23a97146100ce578063ecd658b4146100e1575b600080fd5b61006f6100e9565b60405161007c919061235a565b60405180910390f35b610096610093366004612464565b50565b005b6100a061014b565b60405161007c9291906124ee565b6100c16100bc366004612532565b61047b565b60405161007c9190612591565b6100966100dc366004612464565b6104e7565b6060806100a0565b6060600080548060200260200160405190810160405280929190818152602001828054801561014157602002820191906000526020600020905b81546001600160a01b03168152600190910190602001808311610123575b5050505050905090565b6000805460609182919081900361016157509091565b6000816001600160401b0381111561017b5761017b61236b565b6040519080825280602002602001820160405280156101a4578160200160208202803683370190505b5090506000826001600160401b038111156101c1576101c161236b565b6040519080825280602002602001820160405280156101ea578160200160208202803683370190505b50905060005b8381101561039657600080828154811061020c5761020c6125a2565b60009182526020918290200154604080516354ae26b160e11b815290516001600160a01b039092169350839263a95c4d62926004808401938290030181865afa15801561025d573d6000803e3d6000fd5b505050506040513d601f19601f8201168201806040525081019061028191906125c3565b848381518110610293576102936125a2565b60200260200101906001600160a01b031690816001600160a01b031681525050806001600160a01b0316635fb8f3ed6040518163ffffffff1660e01b8152600401602060405180830381865afa1580156102f1573d6000803e3d6000fd5b505050506040513d601f19601f8201168201806040525081019061031591906125f7565b6103505761032281610549565b838381518110610334576103346125a2565b60200260200101818151610348919061262e565b905250610383565b610359816106cf565b83838151811061036b5761036b6125a2565b6020026020010181815161037f919061262e565b9052505b508061038e81612641565b9150506101f0565b506103a18282610939565b909550935060005b8551811015610473578581815181106103c4576103c46125a2565b60200260200101516001600160a01b03166370a08231306040518263ffffffff1660e01b81526004016103f7919061265b565b602060405180830381865afa158015610414573d6000803e3d6000fd5b505050506040513d601f19601f82011682018060405250810190610438919061267a565b85828151811061044a5761044a6125a2565b6020026020010181815161045e919061262e565b9052508061046b81612641565b9150506103a9565b505050509091565b6001600160a01b0381166000908152600160209081526040918290208054835181840281018401909452808452606093928301828280156104db57602002820191906000526020600020905b8154815260200190600101908083116104c7575b50505050509050919050565b600080828060200190518101906104fe9190612717565b9092509050816105165761051181610bec565b505050565b600182036105275761051181611288565b6002820361053857610511816114de565b60038203610511576105118161169c565b6001600160a01b0381166000908152600160209081526040808320805482518185028101850190935280835284938301828280156105a657602002820191906000526020600020905b815481526020019060010190808311610592575b505050505090506000836001600160a01b031663505d799e6040518163ffffffff1660e01b8152600401602060405180830381865afa1580156105ed573d6000803e3d6000fd5b505050506040513d601f19601f8201168201806040525081019061061191906125c3565b905060005b82518110156106c757816001600160a01b03166372e3a5b1848381518110610640576106406125a2565b60200260200101516040518263ffffffff1660e01b8152600401610664919061276e565b60e060405180830381865afa158015610681573d6000803e3d6000fd5b505050506040513d601f19601f820116820180604052508101906106a5919061282a565b608001516106b3908561262e565b9350806106bf81612641565b915050610616565b505050919050565b600080826001600160a01b031663357a77d26040518163ffffffff1660e01b8152600401602060405180830381865afa158015610710573d6000803e3d6000fd5b505050506040513d601f19601f8201168201806040525081019061073491906125c3565b90506000816001600160a01b0316635ca84e6e6040518163ffffffff1660e01b8152600401602060405180830381865afa158015610776573d6000803e3d6000fd5b505050506040513d601f19601f8201168201806040525081019061079a91906125c3565b90506000816001600160a01b03166370a08231306040518263ffffffff1660e01b81526004016107ca919061265b565b602060405180830381865afa1580156107e7573d6000803e3d6000fd5b505050506040513d601f19601f8201168201806040525081019061080b919061267a565b90508060000361082057506000949350505050565b670de0b6b3a7640000826001600160a01b031663ef4474cd6040518163ffffffff1660e01b8152600401602060405180830381865afa158015610867573d6000803e3d6000fd5b505050506040513d601f19601f8201168201806040525081019061088b919061267a565b610895908361284b565b61089f9190612880565b9350826001600160a01b0316631b2354376040518163ffffffff1660e01b8152600401602060405180830381865afa1580156108df573d6000803e3d6000fd5b505050506040513d601f19601f82011682018060405250810190610903919061267a565b4210156106c757670de0b6b3a764000061091c86611897565b610926908661284b565b6109309190612880565b95945050505050565b606080835160000315610be5576001805b85518110156109ec576000805b828110156109c557878181518110610971576109716125a2565b60200260200101516001600160a01b0316888481518110610994576109946125a2565b60200260200101516001600160a01b0316036109b357600191506109c5565b806109bd81612641565b915050610957565b50806109d957826109d581612641565b9350505b50806109e481612641565b91505061094a565b50806001600160401b03811115610a0557610a0561236b565b604051908082528060200260200182016040528015610a2e578160200160208202803683370190505b509250806001600160401b03811115610a4957610a4961236b565b604051908082528060200260200182016040528015610a72578160200160208202803683370190505b5091506000805b8651811015610be1576000805b83811015610b3757868181518110610aa057610aa06125a2565b60200260200101516001600160a01b0316898481518110610ac357610ac36125a2565b60200260200101516001600160a01b031603610b255760019150878381518110610aef57610aef6125a2565b6020026020010151868281518110610b0957610b096125a2565b60200260200101818151610b1d919061262e565b905250610b37565b80610b2f81612641565b915050610a86565b5080610bce57878281518110610b4f57610b4f6125a2565b6020026020010151868481518110610b6957610b696125a2565b60200260200101906001600160a01b031690816001600160a01b031681525050868281518110610b9b57610b9b6125a2565b6020026020010151858481518110610bb557610bb56125a2565b602090810291909101015282610bca81612641565b9350505b5080610bd981612641565b915050610a79565b5050505b9250929050565b600080600080610bfb85611b3a565b82519397509195509350915080610c2d5760405162461bcd60e51b8152600401610c24906128e0565b60405180910390fd5b6000856001600160a01b031663a95c4d626040518163ffffffff1660e01b8152600401602060405180830381865afa158015610c6d573d6000803e3d6000fd5b505050506040513d601f19601f82011682018060405250810190610c9191906125c3565b90506000826001600160401b03811115610cad57610cad61236b565b604051908082528060200260200182016040528015610d0657816020015b6040805160a081018252600080825260208083018290529282018190526060820181905260808201528252600019909201910181610ccb5790505b5090506000805b84811015610f21576000896001600160a01b031663505d799e6040518163ffffffff1660e01b8152600401602060405180830381865afa158015610d55573d6000803e3d6000fd5b505050506040513d601f19601f82011682018060405250810190610d7991906125c3565b6001600160a01b03166372e3a5b18a8481518110610d9957610d996125a2565b60200260200101516040518263ffffffff1660e01b8152600401610dbd919061276e565b60e060405180830381865afa158015610dda573d6000803e3d6000fd5b505050506040513d601f19601f82011682018060405250810190610dfe919061282a565b6080015190506000878381518110610e1857610e186125a2565b60200260200101511215610e2b57600192505b6000610e62888481518110610e4257610e426125a2565b6020026020010151610e5384611b64565b610e5d91906128f0565b611b91565b905060008111610e845760405162461bcd60e51b8152600401610c249061295b565b6040518060a001604052808b8581518110610ea157610ea16125a2565b60200260200101518152602001306001600160a01b031681526020018a8581518110610ecf57610ecf6125a2565b60200260200101518152602001828152602001876001600160a01b0316815250858481518110610f0157610f016125a2565b602002602001018190525050508080610f1990612641565b915050610d0d565b506001600160a01b0388166000908152600160205260408120805490910361108457600080546001810182558180527f290decd9548b62a8d60345a988386fc84ba6bc95484008f6362f93160ef3e5630180546001600160a01b0319166001600160a01b038c1690811790915560405190917f76fd943b2e8062c5408e8451a7cee92d374865e2660deb3b2ae20666e5cb26ca91a2611084848a6001600160a01b031663357a77d26040518163ffffffff1660e01b8152600401602060405180830381865afa158015610ff8573d6000803e3d6000fd5b505050506040513d601f19601f8201168201806040525081019061101c91906125c3565b6001600160a01b0316635c4b440e6040518163ffffffff1660e01b8152600401602060405180830381865afa158015611059573d6000803e3d6000fd5b505050506040513d601f19601f8201168201806040525081019061107d91906125c3565b6001611bb3565b6000896001600160a01b031663505d799e6040518163ffffffff1660e01b8152600401602060405180830381865afa1580156110c4573d6000803e3d6000fd5b505050506040513d601f19601f820116820180604052508101906110e891906125c3565b6001600160a01b031663ab63cf0e857f00000000000000000000000000000000000000000000000000000000000000006040518363ffffffff1660e01b8152600401611135929190612a1a565b6000604051808303816000875af1158015611154573d6000803e3d6000fd5b505050506040513d6000823e601f3d908101601f1916820160405261117c9190810190612adc565b905061118781611c60565b6111a35760405162461bcd60e51b8152600401610c2490612b5a565b60005b815181101561126b5760008282815181106111c3576111c36125a2565b602002602001015190508a82815181106111df576111df6125a2565b60200260200101518383815181106111f9576111f96125a2565b60200260200101510361120c5750611259565b835460018101855560008581526020812090910182905560405182916001600160a01b038f16917f14ccd03551dc792ef75459babb732f62813ec758e29d1fecfc08b541485026309190a3505b8061126381612641565b9150506111a6565b50821561127b5761127b8a611d0b565b5050505050505050505050565b60008061129483611dfc565b91509150816001600160a01b031663505d799e6040518163ffffffff1660e01b8152600401602060405180830381865afa1580156112d6573d6000803e3d6000fd5b505050506040513d601f19601f820116820180604052508101906112fa91906125c3565b6001600160a01b031663720e52c5826040518263ffffffff1660e01b81526004016113259190612591565b600060405180830381600087803b15801561133f57600080fd5b505af1158015611353573d6000803e3d6000fd5b5050506001600160a01b038316600090815260016020526040812091505b82518110156114bc57815460005b818110156114a757838181548110611399576113996125a2565b90600052602060002001548584815181106113b6576113b66125a2565b602002602001015103611495576113ce600183612b6a565b811461141a57836113e0600184612b6a565b815481106113f0576113f06125a2565b906000526020600020015484828154811061140d5761140d6125a2565b6000918252602090912001555b8380548061142a5761142a612b7d565b60019003818190600052602060002001600090559055848381518110611452576114526125a2565b6020026020010151866001600160a01b03167f36593702ffafe873f664e24e22a96d8dd3a12dba937b1102f22b3d73a4f5878c60405160405180910390a36114a7565b8061149f81612641565b91505061137f565b505080806114b490612641565b915050611371565b5080546000036114cf576114cf83611e1d565b6114d883611d0b565b50505050565b6000806114ea83611e81565b915091506000826001600160a01b031663357a77d26040518163ffffffff1660e01b8152600401602060405180830381865afa15801561152e573d6000803e3d6000fd5b505050506040513d601f19601f8201168201806040525081019061155291906125c3565b604051637e237e8960e01b81529091506001600160a01b03821690637e237e89906115839030908690600401612b93565b600060405180830381600087803b15801561159d57600080fd5b505af11580156115b1573d6000803e3d6000fd5b505050506115be83611d0b565b806001600160a01b0316635ca84e6e6040518163ffffffff1660e01b8152600401602060405180830381865afa1580156115fc573d6000803e3d6000fd5b505050506040513d601f19601f8201168201806040525081019061162091906125c3565b6001600160a01b03166370a08231306040518263ffffffff1660e01b815260040161164b919061265b565b602060405180830381865afa158015611668573d6000803e3d6000fd5b505050506040513d601f19601f8201168201806040525081019061168c919061267a565b6000036114d8576114d883611e1d565b60006116a782611e98565b905060005b81518110156105115760008282815181106116c9576116c96125a2565b602002602001015190506116dc81611d0b565b806001600160a01b0316635fb8f3ed6040518163ffffffff1660e01b8152600401602060405180830381865afa15801561171a573d6000803e3d6000fd5b505050506040513d601f19601f8201168201806040525081019061173e91906125f7565b80156118765750806001600160a01b031663357a77d26040518163ffffffff1660e01b8152600401602060405180830381865afa158015611783573d6000803e3d6000fd5b505050506040513d601f19601f820116820180604052508101906117a791906125c3565b6001600160a01b0316635ca84e6e6040518163ffffffff1660e01b8152600401602060405180830381865afa1580156117e4573d6000803e3d6000fd5b505050506040513d601f19601f8201168201806040525081019061180891906125c3565b6001600160a01b03166370a08231306040518263ffffffff1660e01b8152600401611833919061265b565b602060405180830381865afa158015611850573d6000803e3d6000fd5b505050506040513d601f19601f82011682018060405250810190611874919061267a565b155b156118845761188481611e1d565b508061188f81612641565b9150506116ac565b600080826001600160a01b03166332a0f2d76040518163ffffffff1660e01b8152600401602060405180830381865afa1580156118d8573d6000803e3d6000fd5b505050506040513d601f19601f820116820180604052508101906118fc919061267a565b90506000836001600160a01b0316637a6944c56040518163ffffffff1660e01b8152600401602060405180830381865afa15801561193e573d6000803e3d6000fd5b505050506040513d601f19601f82011682018060405250810190611962919061267a565b90506000670de0b6b3a764000061197d6301da9c008461284b565b6119879190612880565b856001600160a01b031663357a77d26040518163ffffffff1660e01b8152600401602060405180830381865afa1580156119c5573d6000803e3d6000fd5b505050506040513d601f19601f820116820180604052508101906119e991906125c3565b6001600160a01b0316631b2354376040518163ffffffff1660e01b8152600401602060405180830381865afa158015611a26573d6000803e3d6000fd5b505050506040513d601f19601f82011682018060405250810190611a4a919061267a565b611a549190612b6a565b905060006301da9c00670de0b6b3a7640000611a708442612b6a565b611a7a919061284b565b611a849190612880565b90506000670de0b6b3a7640000611a9b858761284b565b611aa59190612880565b611ab790670de0b6b3a764000061262e565b9050600081611ace670de0b6b3a76400008061284b565b611ad89190612880565b90506000670de0b6b3a7640000611aef858961284b565b611af99190612880565b611b0b90670de0b6b3a764000061262e565b90506000670de0b6b3a7640000611b22838561284b565b611b2c9190612880565b9a9950505050505050505050565b6000606080606084806020019051810190611b559190612c42565b93509350935093509193509193565b60006001600160ff1b03821115611b8d5760405162461bcd60e51b8152600401610c2490612d39565b5090565b600080821215611b8d5760405162461bcd60e51b8152600401610c2490612d7e565b604051636eb1769f60e11b81526000906001600160a01b0385169063dd62ed3e90611be49030908790600401612d8e565b602060405180830381865afa158015611c01573d6000803e3d6000fd5b505050506040513d601f19601f82011682018060405250810190611c25919061267a565b9050818110156114d8578015611c4a57611c4a6001600160a01b038516846000611eb4565b6114d86001600160a01b03851684600019611eb4565b60006001825111611c7357506001919050565b815160005b81811015611d01576000611c8d82600161262e565b90505b82811015611cee57848181518110611caa57611caa6125a2565b6020026020010151858381518110611cc457611cc46125a2565b602002602001015103611cdc57506000949350505050565b80611ce681612641565b915050611c90565b5080611cf981612641565b915050611c78565b5060019392505050565b6000816001600160a01b031663a95c4d626040518163ffffffff1660e01b8152600401602060405180830381865afa158015611d4b573d6000803e3d6000fd5b505050506040513d601f19601f82011682018060405250810190611d6f91906125c3565b90506000816001600160a01b03166370a08231306040518263ffffffff1660e01b8152600401611d9f919061265b565b602060405180830381865afa158015611dbc573d6000803e3d6000fd5b505050506040513d601f19601f82011682018060405250810190611de0919061267a565b90508015610511576105116001600160a01b0383163383611ebf565b6000606082806020019051810190611e149190612da9565b91509150915091565b611e28600082611eca565b506001600160a01b0381166000908152600160205260408120611e4a916122af565b6040516001600160a01b038216907f23e6e15564939c515f79635426d2d8492efec07f36d4b17b3e1b5e9cf607253e90600090a250565b60008082806020019051810190611e149190612df6565b606081806020019051810190611eae9190612e9e565b92915050565b610511838383611ff1565b6105118383836120dc565b8154600090815b81811015611fe957836001600160a01b0316858281548110611ef557611ef56125a2565b6000918252602090912001546001600160a01b031603611fd757611f1a600183612b6a565b811015611f9c5784611f2d600184612b6a565b81548110611f3d57611f3d6125a2565b9060005260206000200160009054906101000a90046001600160a01b0316858281548110611f6d57611f6d6125a2565b9060005260206000200160006101000a8154816001600160a01b0302191690836001600160a01b031602179055505b84805480611fac57611fac612b7d565b600082815260209020810160001990810180546001600160a01b031916905501905560019250611fe9565b80611fe181612641565b915050611ed1565b505092915050565b80158061206a5750604051636eb1769f60e11b81526001600160a01b0384169063dd62ed3e906120279030908690600401612d8e565b602060405180830381865afa158015612044573d6000803e3d6000fd5b505050506040513d601f19601f82011682018060405250810190612068919061267a565b155b6120865760405162461bcd60e51b8152600401610c2490612f2b565b6105118363095ea7b360e01b84846040516024016120a5929190612b93565b60408051601f198184030181529190526020810180516001600160e01b03166001600160e01b0319909316929092179091526120fb565b6105118363a9059cbb60e01b84846040516024016120a5929190612b93565b6000612150826040518060400160405280602081526020017f5361666545524332303a206c6f772d6c6576656c2063616c6c206661696c6564815250856001600160a01b031661218a9092919063ffffffff16565b805190915015610511578080602001905181019061216e91906125f7565b6105115760405162461bcd60e51b8152600401610c2490612f82565b606061219984846000856121a3565b90505b9392505050565b6060824710156121c55760405162461bcd60e51b8152600401610c2490612fd5565b600080866001600160a01b031685876040516121e19190613007565b60006040518083038185875af1925050503d806000811461221e576040519150601f19603f3d011682016040523d82523d6000602084013e612223565b606091505b509150915061223487838387612241565b925050505b949350505050565b60608315612280578251600003612279576001600160a01b0385163b6122795760405162461bcd60e51b8152600401610c2490613047565b5081612239565b61223983838151156122955781518083602001fd5b8060405162461bcd60e51b8152600401610c249190613089565b508054600082559060005260206000209081019061009391905b80821115611b8d57600081556001016122c9565b60006001600160a01b038216611eae565b6122f7816122dd565b82525050565b600061230983836122ee565b505060200190565b600061231b825190565b80845260209384019383018060005b8381101561234f57815161233e88826122fd565b97506020830192505060010161232a565b509495945050505050565b6020808252810161219c8184612311565b634e487b7160e01b600052604160045260246000fd5b601f19601f83011681018181106001600160401b03821117156123a6576123a661236b565b6040525050565b60006123b860405190565b90506123c48282612381565b919050565b60006001600160401b038211156123e2576123e261236b565b601f19601f83011660200192915050565b82818337506000910152565b600061241261240d846123c9565b6123ad565b90508281526020810184848401111561242d5761242d600080fd5b6124388482856123f3565b509392505050565b600082601f83011261245457612454600080fd5b81356122398482602086016123ff565b60006020828403121561247957612479600080fd5b81356001600160401b0381111561249257612492600080fd5b61223984828501612440565b806122f7565b6000612309838361249e565b60006124ba825190565b80845260209384019383018060005b8381101561234f5781516124dd88826124a4565b9750602083019250506001016124c9565b604080825281016124ff8185612311565b9050818103602083015261219981846124b0565b61251c816122dd565b811461009357600080fd5b8035611eae81612513565b60006020828403121561254757612547600080fd5b60006122398484612527565b600061255d825190565b80845260209384019383018060005b8381101561234f57815161258088826124a4565b97506020830192505060010161256c565b6020808252810161219c8184612553565b634e487b7160e01b600052603260045260246000fd5b8051611eae81612513565b6000602082840312156125d8576125d8600080fd5b600061223984846125b8565b80151561251c565b8051611eae816125e4565b60006020828403121561260c5761260c600080fd5b600061223984846125ec565b634e487b7160e01b600052601160045260246000fd5b80820180821115611eae57611eae612618565b6000600019820361265457612654612618565b5060010190565b60208101611eae82846122ee565b8061251c565b8051611eae81612669565b60006020828403121561268f5761268f600080fd5b6000612239848461266f565b60005b838110156126b657818101518382015260200161269e565b50506000910152565b60006126cd61240d846123c9565b9050828152602081018484840111156126e8576126e8600080fd5b61243884828561269b565b600082601f83011261270757612707600080fd5b81516122398482602086016126bf565b6000806040838503121561272d5761272d600080fd5b6000612739858561266f565b92505060208301516001600160401b0381111561275857612758600080fd5b612764858286016126f3565b9150509250929050565b60208101611eae828461249e565b600060e0828403121561279157612791600080fd5b61279b60e06123ad565b905060006127a9848461266f565b82525060206127ba848483016125b8565b60208301525060406127ce8482850161266f565b60408301525060606127e28482850161266f565b60608301525060806127f68482850161266f565b60808301525060a061280a848285016125b8565b60a08301525060c061281e848285016125ec565b60c08301525092915050565b600060e0828403121561283f5761283f600080fd5b6000612239848461277c565b81810280821583820485141761286357612863612618565b5092915050565b634e487b7160e01b600052601260045260246000fd5b60008261288f5761288f61286a565b500490565b602c81526000602082017f5f5f6164644f725570646174654f66666572733a20456d707479207375626d6981526b747465644f6666657249647360a01b602082015291505b5060400190565b60208082528101611eae81612894565b8082016000821280158483129081169015919091161715611eae57611eae612618565b602b81526000602082017f6164644f725570646174654f66666572733a204f6666657220616d6f756e742081526a06d757374206265203e20360ac1b602082015291506128d9565b60208082528101611eae81612913565b805160a083019061297c848261249e565b50602082015161298f60208501826122ee565b5060408201516129a2604085018261249e565b5060608201516129b5606085018261249e565b5060808201516114d860808501826122ee565b60006129d4838361296b565b505060a00190565b60006129e6825190565b80845260209384019383018060005b8381101561234f578151612a0988826129c8565b9750602083019250506001016129f5565b60408082528101612a2b81856129dc565b905061219c60208301846122ee565b60006001600160401b03821115612a5357612a5361236b565b5060209081020190565b6000612a6b61240d84612a3a565b83815290506020808201908402830185811115612a8a57612a8a600080fd5b835b81811015612aae5780612a9f888261266f565b84525060209283019201612a8c565b5050509392505050565b600082601f830112612acc57612acc600080fd5b8151612239848260208601612a5d565b600060208284031215612af157612af1600080fd5b81516001600160401b03811115612b0a57612b0a600080fd5b61223984828501612ab8565b602781526000602082017f5f5f6164644f725570646174654f66666572733a204475706c6963617465206f8152666666657249647360c81b602082015291506128d9565b60208082528101611eae81612b16565b81810381811115611eae57611eae612618565b634e487b7160e01b600052603160045260246000fd5b60408101612ba182856122ee565b61219c602083018461249e565b6000611eae826122dd565b61251c81612bae565b8051611eae81612bb9565b6000612bdb61240d84612a3a565b83815290506020808201908402830185811115612bfa57612bfa600080fd5b835b81811015612aae5780612c0f888261266f565b84525060209283019201612bfc565b600082601f830112612c3257612c32600080fd5b8151612239848260208601612bcd565b60008060008060808587031215612c5b57612c5b600080fd5b6000612c678787612bc2565b94505060208501516001600160401b03811115612c8657612c86600080fd5b612c9287828801612ab8565b93505060408501516001600160401b03811115612cb157612cb1600080fd5b612cbd87828801612ab8565b92505060608501516001600160401b03811115612cdc57612cdc600080fd5b612ce887828801612c1e565b91505092959194509250565b602881526000602082017f53616665436173743a2076616c756520646f65736e27742066697420696e2061815267371034b73a191a9b60c11b602082015291506128d9565b60208082528101611eae81612cf4565b60208082527f53616665436173743a2076616c7565206d75737420626520706f736974697665910190815260005b5060200190565b60208082528101611eae81612d49565b60408101612d9c82856122ee565b61219c60208301846122ee565b60008060408385031215612dbf57612dbf600080fd5b6000612dcb8585612bc2565b92505060208301516001600160401b03811115612dea57612dea600080fd5b61276485828601612ab8565b60008060408385031215612e0c57612e0c600080fd5b6000612e188585612bc2565b92505060206127648582860161266f565b6000612e3761240d84612a3a565b83815290506020808201908402830185811115612e5657612e56600080fd5b835b81811015612aae5780612e6b8882612bc2565b84525060209283019201612e58565b600082601f830112612e8e57612e8e600080fd5b8151612239848260208601612e29565b600060208284031215612eb357612eb3600080fd5b81516001600160401b03811115612ecc57612ecc600080fd5b61223984828501612e7a565b603681526000602082017f5361666545524332303a20617070726f76652066726f6d206e6f6e2d7a65726f81527520746f206e6f6e2d7a65726f20616c6c6f77616e636560501b602082015291506128d9565b60208082528101611eae81612ed8565b602a81526000602082017f5361666545524332303a204552433230206f7065726174696f6e20646964206e8152691bdd081cdd58d8d9595960b21b602082015291506128d9565b60208082528101611eae81612f3b565b602681526000602082017f416464726573733a20696e73756666696369656e742062616c616e636520666f8152651c8818d85b1b60d21b602082015291506128d9565b60208082528101611eae81612f92565b6000612fef825190565b612ffd81856020860161269b565b9290920192915050565b600061219c8284612fe5565b601d81526000602082017f416464726573733a2063616c6c20746f206e6f6e2d636f6e747261637400000081529150612d77565b60208082528101611eae81613013565b6000613061825190565b80845260208401935061307881856020860161269b565b601f01601f19169290920192915050565b6020808252810161219c818461305756","linkReferences":{}},"methodIdentifiers":{"getDebtAssets()":"ecd658b4","getManagedAssets()":"80daddb8","getOfferIdsFromTermAuction(address)":"afb806da","getTermAuctions()":"050c2735","init(bytes)":"4ddf47d4","receiveCallFromVault(bytes)":"e5c23a97"},"id":142}