{"abi":[{"type":"constructor","inputs":[{"name":"_referrerAddress","type":"address","internalType":"address"}],"stateMutability":"nonpayable"},{"type":"function","name":"getDebtAssets","inputs":[],"outputs":[{"name":"assets_","type":"address[]","internalType":"address[]"},{"name":"amounts_","type":"uint256[]","internalType":"uint256[]"}],"stateMutability":"pure"},{"type":"function","name":"getManagedAssets","inputs":[],"outputs":[{"name":"assets_","type":"address[]","internalType":"address[]"},{"name":"amounts_","type":"uint256[]","internalType":"uint256[]"}],"stateMutability":"view"},{"type":"function","name":"getOfferIdsFromTermAuction","inputs":[{"name":"_termAuctionAddress","type":"address","internalType":"address"}],"outputs":[{"name":"offerIds_","type":"bytes32[]","internalType":"bytes32[]"}],"stateMutability":"view"},{"type":"function","name":"getTermAuctions","inputs":[],"outputs":[{"name":"termAuctions_","type":"address[]","internalType":"address[]"}],"stateMutability":"view"},{"type":"function","name":"init","inputs":[{"name":"","type":"bytes","internalType":"bytes"}],"outputs":[],"stateMutability":"nonpayable"},{"type":"function","name":"receiveCallFromVault","inputs":[{"name":"_actionData","type":"bytes","internalType":"bytes"}],"outputs":[],"stateMutability":"nonpayable"},{"type":"event","name":"OfferAdded","inputs":[{"name":"termAuction","type":"address","indexed":true,"internalType":"address"},{"name":"offerId","type":"bytes32","indexed":true,"internalType":"bytes32"}],"anonymous":false},{"type":"event","name":"OfferRemoved","inputs":[{"name":"termAuction","type":"address","indexed":true,"internalType":"address"},{"name":"offerId","type":"bytes32","indexed":true,"internalType":"bytes32"}],"anonymous":false},{"type":"event","name":"TermAuctionAdded","inputs":[{"name":"termAuction","type":"address","indexed":true,"internalType":"address"}],"anonymous":false},{"type":"event","name":"TermAuctionRemoved","inputs":[{"name":"termAuction","type":"address","indexed":true,"internalType":"address"}],"anonymous":false}],"bytecode":{"object":"0x60a06040523480156200001157600080fd5b5060405162002def38038062002def833981016040819052620000349162000046565b6001600160a01b031660805262000078565b6000602082840312156200005957600080fd5b81516001600160a01b03811681146200007157600080fd5b9392505050565b608051612d5b62000094600039600061117f0152612d5b6000f3fe608060405234801561001057600080fd5b50600436106100625760003560e01c8063050c2735146100675780634ddf47d41461008557806380daddb814610098578063afb806da146100ae578063e5c23a97146100ce578063ecd658b4146100e1575b600080fd5b61006f6100e9565b60405161007c919061256f565b60405180910390f35b6100966100933660046125f6565b50565b005b6100a061014b565b60405161007c929190612675565b6100c16100bc3660046126e1565b61047b565b60405161007c91906126fe565b6100966100dc3660046125f6565b6104e7565b6060806100a0565b6060600080548060200260200160405190810160405280929190818152602001828054801561014157602002820191906000526020600020905b81546001600160a01b03168152600190910190602001808311610123575b5050505050905090565b6000805460609182919081900361016157509091565b6000816001600160401b0381111561017b5761017b612589565b6040519080825280602002602001820160405280156101a4578160200160208202803683370190505b5090506000826001600160401b038111156101c1576101c1612589565b6040519080825280602002602001820160405280156101ea578160200160208202803683370190505b50905060005b8381101561039657600080828154811061020c5761020c612742565b60009182526020918290200154604080516354ae26b160e11b815290516001600160a01b039092169350839263a95c4d62926004808401938290030181865afa15801561025d573d6000803e3d6000fd5b505050506040513d601f19601f820116820180604052508101906102819190612758565b84838151811061029357610293612742565b60200260200101906001600160a01b031690816001600160a01b031681525050806001600160a01b0316635fb8f3ed6040518163ffffffff1660e01b8152600401602060405180830381865afa1580156102f1573d6000803e3d6000fd5b505050506040513d601f19601f82011682018060405250810190610315919061278a565b6103505761032281610549565b83838151811061033457610334612742565b6020026020010181815161034891906127bb565b905250610383565b610359816106d1565b83838151811061036b5761036b612742565b6020026020010181815161037f91906127bb565b9052505b508061038e816127ce565b9150506101f0565b506103a18282610938565b909550935060005b8551811015610473578581815181106103c4576103c4612742565b60209081029190910101516040516370a0823160e01b81523060048201526001600160a01b03909116906370a0823190602401602060405180830381865afa158015610414573d6000803e3d6000fd5b505050506040513d601f19601f8201168201806040525081019061043891906127e7565b85828151811061044a5761044a612742565b6020026020010181815161045e91906127bb565b9052508061046b816127ce565b9150506103a9565b505050509091565b6001600160a01b0381166000908152600160209081526040918290208054835181840281018401909452808452606093928301828280156104db57602002820191906000526020600020905b8154815260200190600101908083116104c7575b50505050509050919050565b600080828060200190518101906104fe9190612824565b9092509050816105165761051181610beb565b505050565b60018203610527576105118161134e565b6002820361053857610511816115a4565b600382036105115761051181611760565b6001600160a01b0381166000908152600160209081526040808320805482518185028101850190935280835284938301828280156105a657602002820191906000526020600020905b815481526020019060010190808311610592575b505050505090506000836001600160a01b031663505d799e6040518163ffffffff1660e01b8152600401602060405180830381865afa1580156105ed573d6000803e3d6000fd5b505050506040513d601f19601f820116820180604052508101906106119190612758565b905060005b82518110156106c957816001600160a01b03166372e3a5b184838151811061064057610640612742565b60200260200101516040518263ffffffff1660e01b815260040161066691815260200190565b60e060405180830381865afa158015610683573d6000803e3d6000fd5b505050506040513d601f19601f820116820180604052508101906106a791906128a6565b608001516106b590856127bb565b9350806106c1816127ce565b915050610616565b505050919050565b600080826001600160a01b031663357a77d26040518163ffffffff1660e01b8152600401602060405180830381865afa158015610712573d6000803e3d6000fd5b505050506040513d601f19601f820116820180604052508101906107369190612758565b90506000816001600160a01b0316635ca84e6e6040518163ffffffff1660e01b8152600401602060405180830381865afa158015610778573d6000803e3d6000fd5b505050506040513d601f19601f8201168201806040525081019061079c9190612758565b6040516370a0823160e01b81523060048201529091506000906001600160a01b038316906370a0823190602401602060405180830381865afa1580156107e6573d6000803e3d6000fd5b505050506040513d601f19601f8201168201806040525081019061080a91906127e7565b90508060000361081f57506000949350505050565b670de0b6b3a7640000826001600160a01b031663ef4474cd6040518163ffffffff1660e01b8152600401602060405180830381865afa158015610866573d6000803e3d6000fd5b505050506040513d601f19601f8201168201806040525081019061088a91906127e7565b610894908361293f565b61089e9190612956565b9350826001600160a01b0316631b2354376040518163ffffffff1660e01b8152600401602060405180830381865afa1580156108de573d6000803e3d6000fd5b505050506040513d601f19601f8201168201806040525081019061090291906127e7565b4210156106c957670de0b6b3a764000061091b86611959565b610925908661293f565b61092f9190612956565b95945050505050565b606080835160000315610be4576001805b85518110156109eb576000805b828110156109c45787818151811061097057610970612742565b60200260200101516001600160a01b031688848151811061099357610993612742565b60200260200101516001600160a01b0316036109b257600191506109c4565b806109bc816127ce565b915050610956565b50806109d857826109d4816127ce565b9350505b50806109e3816127ce565b915050610949565b50806001600160401b03811115610a0457610a04612589565b604051908082528060200260200182016040528015610a2d578160200160208202803683370190505b509250806001600160401b03811115610a4857610a48612589565b604051908082528060200260200182016040528015610a71578160200160208202803683370190505b5091506000805b8651811015610be0576000805b83811015610b3657868181518110610a9f57610a9f612742565b60200260200101516001600160a01b0316898481518110610ac257610ac2612742565b60200260200101516001600160a01b031603610b245760019150878381518110610aee57610aee612742565b6020026020010151868281518110610b0857610b08612742565b60200260200101818151610b1c91906127bb565b905250610b36565b80610b2e816127ce565b915050610a85565b5080610bcd57878281518110610b4e57610b4e612742565b6020026020010151868481518110610b6857610b68612742565b60200260200101906001600160a01b031690816001600160a01b031681525050868281518110610b9a57610b9a612742565b6020026020010151858481518110610bb457610bb4612742565b602090810291909101015282610bc9816127ce565b9350505b5080610bd8816127ce565b915050610a78565b5050505b9250929050565b600080600080610bfa85611bfc565b82519397509195509350915080610c6d5760405162461bcd60e51b815260206004820152602c60248201527f5f5f6164644f725570646174654f66666572733a20456d707479207375626d6960448201526b747465644f6666657249647360a01b60648201526084015b60405180910390fd5b6000856001600160a01b031663a95c4d626040518163ffffffff1660e01b8152600401602060405180830381865afa158015610cad573d6000803e3d6000fd5b505050506040513d601f19601f82011682018060405250810190610cd19190612758565b90506000826001600160401b03811115610ced57610ced612589565b604051908082528060200260200182016040528015610d4657816020015b6040805160a081018252600080825260208083018290529282018190526060820181905260808201528252600019909201910181610d0b5790505b5090506000805b84811015610fa7576000896001600160a01b031663505d799e6040518163ffffffff1660e01b8152600401602060405180830381865afa158015610d95573d6000803e3d6000fd5b505050506040513d601f19601f82011682018060405250810190610db99190612758565b6001600160a01b03166372e3a5b18a8481518110610dd957610dd9612742565b60200260200101516040518263ffffffff1660e01b8152600401610dff91815260200190565b60e060405180830381865afa158015610e1c573d6000803e3d6000fd5b505050506040513d601f19601f82011682018060405250810190610e4091906128a6565b6080015190506000878381518110610e5a57610e5a612742565b60200260200101511215610e6d57600192505b6000610ea4888481518110610e8457610e84612742565b6020026020010151610e9584611c26565b610e9f9190612978565b611c94565b905060008111610f0a5760405162461bcd60e51b815260206004820152602b60248201527f6164644f725570646174654f66666572733a204f6666657220616d6f756e742060448201526a06d757374206265203e20360ac1b6064820152608401610c64565b6040518060a001604052808b8581518110610f2757610f27612742565b60200260200101518152602001306001600160a01b031681526020018a8581518110610f5557610f55612742565b60200260200101518152602001828152602001876001600160a01b0316815250858481518110610f8757610f87612742565b602002602001018190525050508080610f9f906127ce565b915050610d4d565b506001600160a01b0388166000908152600160205260408120805490910361110a57600080546001810182558180527f290decd9548b62a8d60345a988386fc84ba6bc95484008f6362f93160ef3e5630180546001600160a01b0319166001600160a01b038c1690811790915560405190917f76fd943b2e8062c5408e8451a7cee92d374865e2660deb3b2ae20666e5cb26ca91a261110a848a6001600160a01b031663357a77d26040518163ffffffff1660e01b8152600401602060405180830381865afa15801561107e573d6000803e3d6000fd5b505050506040513d601f19601f820116820180604052508101906110a29190612758565b6001600160a01b0316635c4b440e6040518163ffffffff1660e01b8152600401602060405180830381865afa1580156110df573d6000803e3d6000fd5b505050506040513d601f19601f820116820180604052508101906111039190612758565b6001611ce6565b6000896001600160a01b031663505d799e6040518163ffffffff1660e01b8152600401602060405180830381865afa15801561114a573d6000803e3d6000fd5b505050506040513d601f19601f8201168201806040525081019061116e9190612758565b6001600160a01b031663ab63cf0e857f00000000000000000000000000000000000000000000000000000000000000006040518363ffffffff1660e01b81526004016111bb929190612998565b6000604051808303816000875af11580156111da573d6000803e3d6000fd5b505050506040513d6000823e601f3d908101601f191682016040526112029190810190612ab3565b905061120d81611d95565b6112695760405162461bcd60e51b815260206004820152602760248201527f5f5f6164644f725570646174654f66666572733a204475706c6963617465206f6044820152666666657249647360c81b6064820152608401610c64565b60005b815181101561133157600082828151811061128957611289612742565b602002602001015190508a82815181106112a5576112a5612742565b60200260200101518383815181106112bf576112bf612742565b6020026020010151036112d2575061131f565b835460018101855560008581526020812090910182905560405182916001600160a01b038f16917f14ccd03551dc792ef75459babb732f62813ec758e29d1fecfc08b541485026309190a3505b80611329816127ce565b91505061126c565b508215611341576113418a611e40565b5050505050505050505050565b60008061135a83611f2e565b91509150816001600160a01b031663505d799e6040518163ffffffff1660e01b8152600401602060405180830381865afa15801561139c573d6000803e3d6000fd5b505050506040513d601f19601f820116820180604052508101906113c09190612758565b6001600160a01b031663720e52c5826040518263ffffffff1660e01b81526004016113eb91906126fe565b600060405180830381600087803b15801561140557600080fd5b505af1158015611419573d6000803e3d6000fd5b5050506001600160a01b038316600090815260016020526040812091505b825181101561158257815460005b8181101561156d5783818154811061145f5761145f612742565b906000526020600020015485848151811061147c5761147c612742565b60200260200101510361155b57611494600183612ae7565b81146114e057836114a6600184612ae7565b815481106114b6576114b6612742565b90600052602060002001548482815481106114d3576114d3612742565b6000918252602090912001555b838054806114f0576114f0612afa565b6001900381819060005260206000200160009055905584838151811061151857611518612742565b6020026020010151866001600160a01b03167f36593702ffafe873f664e24e22a96d8dd3a12dba937b1102f22b3d73a4f5878c60405160405180910390a361156d565b80611565816127ce565b915050611445565b5050808061157a906127ce565b915050611437565b5080546000036115955761159583611f4f565b61159e83611e40565b50505050565b6000806115b083611fb3565b915091506000826001600160a01b031663357a77d26040518163ffffffff1660e01b8152600401602060405180830381865afa1580156115f4573d6000803e3d6000fd5b505050506040513d601f19601f820116820180604052508101906116189190612758565b604051637e237e8960e01b8152306004820152602481018490529091506001600160a01b03821690637e237e8990604401600060405180830381600087803b15801561166357600080fd5b505af1158015611677573d6000803e3d6000fd5b5050505061168483611e40565b806001600160a01b0316635ca84e6e6040518163ffffffff1660e01b8152600401602060405180830381865afa1580156116c2573d6000803e3d6000fd5b505050506040513d601f19601f820116820180604052508101906116e69190612758565b6040516370a0823160e01b81523060048201526001600160a01b0391909116906370a0823190602401602060405180830381865afa15801561172c573d6000803e3d6000fd5b505050506040513d601f19601f8201168201806040525081019061175091906127e7565b60000361159e5761159e83611f4f565b600061176b82611fca565b905060005b815181101561051157600082828151811061178d5761178d612742565b602002602001015190506117a081611e40565b806001600160a01b0316635fb8f3ed6040518163ffffffff1660e01b8152600401602060405180830381865afa1580156117de573d6000803e3d6000fd5b505050506040513d601f19601f82011682018060405250810190611802919061278a565b80156119385750806001600160a01b031663357a77d26040518163ffffffff1660e01b8152600401602060405180830381865afa158015611847573d6000803e3d6000fd5b505050506040513d601f19601f8201168201806040525081019061186b9190612758565b6001600160a01b0316635ca84e6e6040518163ffffffff1660e01b8152600401602060405180830381865afa1580156118a8573d6000803e3d6000fd5b505050506040513d601f19601f820116820180604052508101906118cc9190612758565b6040516370a0823160e01b81523060048201526001600160a01b0391909116906370a0823190602401602060405180830381865afa158015611912573d6000803e3d6000fd5b505050506040513d601f19601f8201168201806040525081019061193691906127e7565b155b156119465761194681611f4f565b5080611951816127ce565b915050611770565b600080826001600160a01b03166332a0f2d76040518163ffffffff1660e01b8152600401602060405180830381865afa15801561199a573d6000803e3d6000fd5b505050506040513d601f19601f820116820180604052508101906119be91906127e7565b90506000836001600160a01b0316637a6944c56040518163ffffffff1660e01b8152600401602060405180830381865afa158015611a00573d6000803e3d6000fd5b505050506040513d601f19601f82011682018060405250810190611a2491906127e7565b90506000670de0b6b3a7640000611a3f6301da9c008461293f565b611a499190612956565b856001600160a01b031663357a77d26040518163ffffffff1660e01b8152600401602060405180830381865afa158015611a87573d6000803e3d6000fd5b505050506040513d601f19601f82011682018060405250810190611aab9190612758565b6001600160a01b0316631b2354376040518163ffffffff1660e01b8152600401602060405180830381865afa158015611ae8573d6000803e3d6000fd5b505050506040513d601f19601f82011682018060405250810190611b0c91906127e7565b611b169190612ae7565b905060006301da9c00670de0b6b3a7640000611b328442612ae7565b611b3c919061293f565b611b469190612956565b90506000670de0b6b3a7640000611b5d858761293f565b611b679190612956565b611b7990670de0b6b3a76400006127bb565b9050600081611b90670de0b6b3a76400008061293f565b611b9a9190612956565b90506000670de0b6b3a7640000611bb1858961293f565b611bbb9190612956565b611bcd90670de0b6b3a76400006127bb565b90506000670de0b6b3a7640000611be4838561293f565b611bee9190612956565b9a9950505050505050505050565b6000606080606084806020019051810190611c179190612b10565b93509350935093509193509193565b60006001600160ff1b03821115611c905760405162461bcd60e51b815260206004820152602860248201527f53616665436173743a2076616c756520646f65736e27742066697420696e2061604482015267371034b73a191a9b60c11b6064820152608401610c64565b5090565b600080821215611c905760405162461bcd60e51b815260206004820181905260248201527f53616665436173743a2076616c7565206d75737420626520706f7369746976656044820152606401610c64565b604051636eb1769f60e11b81523060048201526001600160a01b0383811660248301526000919085169063dd62ed3e90604401602060405180830381865afa158015611d36573d6000803e3d6000fd5b505050506040513d601f19601f82011682018060405250810190611d5a91906127e7565b90508181101561159e578015611d7f57611d7f6001600160a01b038516846000611fe6565b61159e6001600160a01b03851684600019611fe6565b60006001825111611da857506001919050565b815160005b81811015611e36576000611dc28260016127bb565b90505b82811015611e2357848181518110611ddf57611ddf612742565b6020026020010151858381518110611df957611df9612742565b602002602001015103611e1157506000949350505050565b80611e1b816127ce565b915050611dc5565b5080611e2e816127ce565b915050611dad565b5060019392505050565b6000816001600160a01b031663a95c4d626040518163ffffffff1660e01b8152600401602060405180830381865afa158015611e80573d6000803e3d6000fd5b505050506040513d601f19601f82011682018060405250810190611ea49190612758565b6040516370a0823160e01b81523060048201529091506000906001600160a01b038316906370a0823190602401602060405180830381865afa158015611eee573d6000803e3d6000fd5b505050506040513d601f19601f82011682018060405250810190611f1291906127e7565b90508015610511576105116001600160a01b0383163383611ff1565b6000606082806020019051810190611f469190612c00565b91509150915091565b611f5a600082611ffc565b506001600160a01b0381166000908152600160205260408120611f7c916124fd565b6040516001600160a01b038216907f23e6e15564939c515f79635426d2d8492efec07f36d4b17b3e1b5e9cf607253e90600090a250565b60008082806020019051810190611f469190612c50565b606081806020019051810190611fe09190612c7e565b92915050565b610511838383612123565b61051183838361226b565b8154600090815b8181101561211b57836001600160a01b031685828154811061202757612027612742565b6000918252602090912001546001600160a01b0316036121095761204c600183612ae7565b8110156120ce578461205f600184612ae7565b8154811061206f5761206f612742565b9060005260206000200160009054906101000a90046001600160a01b031685828154811061209f5761209f612742565b9060005260206000200160006101000a8154816001600160a01b0302191690836001600160a01b031602179055505b848054806120de576120de612afa565b600082815260209020810160001990810180546001600160a01b03191690550190556001925061211b565b80612113816127ce565b915050612003565b505092915050565b80158061219d5750604051636eb1769f60e11b81523060048201526001600160a01b03838116602483015284169063dd62ed3e90604401602060405180830381865afa158015612177573d6000803e3d6000fd5b505050506040513d601f19601f8201168201806040525081019061219b91906127e7565b155b6122085760405162461bcd60e51b815260206004820152603660248201527f5361666545524332303a20617070726f76652066726f6d206e6f6e2d7a65726f60448201527520746f206e6f6e2d7a65726f20616c6c6f77616e636560501b6064820152608401610c64565b6040516001600160a01b03831660248201526044810182905261051190849063095ea7b360e01b906064015b60408051601f198184030181529190526020810180516001600160e01b03166001600160e01b03199093169290921790915261229b565b6040516001600160a01b03831660248201526044810182905261051190849063a9059cbb60e01b90606401612234565b60006122f0826040518060400160405280602081526020017f5361666545524332303a206c6f772d6c6576656c2063616c6c206661696c6564815250856001600160a01b031661236d9092919063ffffffff16565b805190915015610511578080602001905181019061230e919061278a565b6105115760405162461bcd60e51b815260206004820152602a60248201527f5361666545524332303a204552433230206f7065726174696f6e20646964206e6044820152691bdd081cdd58d8d9595960b21b6064820152608401610c64565b606061237c8484600085612384565b949350505050565b6060824710156123e55760405162461bcd60e51b815260206004820152602660248201527f416464726573733a20696e73756666696369656e742062616c616e636520666f6044820152651c8818d85b1b60d21b6064820152608401610c64565b600080866001600160a01b031685876040516124019190612d0c565b60006040518083038185875af1925050503d806000811461243e576040519150601f19603f3d011682016040523d82523d6000602084013e612443565b606091505b50915091506124548783838761245f565b979650505050505050565b606083156124ce5782516000036124c7576001600160a01b0385163b6124c75760405162461bcd60e51b815260206004820152601d60248201527f416464726573733a2063616c6c20746f206e6f6e2d636f6e74726163740000006044820152606401610c64565b508161237c565b61237c83838151156124e35781518083602001fd5b8060405162461bcd60e51b8152600401610c649190612d28565b508054600082559060005260206000209081019061009391905b80821115611c905760008155600101612517565b600081518084526020808501945080840160005b838110156125645781516001600160a01b03168752958201959082019060010161253f565b509495945050505050565b602081526000612582602083018461252b565b9392505050565b634e487b7160e01b600052604160045260246000fd5b604051601f8201601f191681016001600160401b03811182821017156125c7576125c7612589565b604052919050565b60006001600160401b038211156125e8576125e8612589565b50601f01601f191660200190565b60006020828403121561260857600080fd5b81356001600160401b0381111561261e57600080fd5b8201601f8101841361262f57600080fd5b803561264261263d826125cf565b61259f565b81815285602083850101111561265757600080fd5b81602084016020830137600091810160200191909152949350505050565b604081526000612688604083018561252b565b82810360208481019190915284518083528582019282019060005b818110156126bf578451835293830193918301916001016126a3565b5090979650505050505050565b6001600160a01b038116811461009357600080fd5b6000602082840312156126f357600080fd5b8135612582816126cc565b6020808252825182820181905260009190848201906040850190845b818110156127365783518352928401929184019160010161271a565b50909695505050505050565b634e487b7160e01b600052603260045260246000fd5b60006020828403121561276a57600080fd5b8151612582816126cc565b8051801515811461278557600080fd5b919050565b60006020828403121561279c57600080fd5b61258282612775565b634e487b7160e01b600052601160045260246000fd5b80820180821115611fe057611fe06127a5565b6000600182016127e0576127e06127a5565b5060010190565b6000602082840312156127f957600080fd5b5051919050565b60005b8381101561281b578181015183820152602001612803565b50506000910152565b6000806040838503121561283757600080fd5b8251915060208301516001600160401b0381111561285457600080fd5b8301601f8101851361286557600080fd5b805161287361263d826125cf565b81815286602083850101111561288857600080fd5b612899826020830160208601612800565b8093505050509250929050565b600060e082840312156128b857600080fd5b60405160e081018181106001600160401b03821117156128da576128da612589565b6040528251815260208301516128ef816126cc565b8060208301525060408301516040820152606083015160608201526080830151608082015260a0830151612922816126cc565b60a082015261293360c08401612775565b60c08201529392505050565b8082028115828204841417611fe057611fe06127a5565b60008261297357634e487b7160e01b600052601260045260246000fd5b500490565b808201828112600083128015821682158216171561211b5761211b6127a5565b6040808252835182820181905260009190606090818501906020808901865b83811015612a0557815180518652838101516001600160a01b039081168588015288820151898801528782015188880152608091820151169086015260a090940193908201906001016129b7565b5050829550612a1e818801896001600160a01b03169052565b50505050509392505050565b60006001600160401b03821115612a4357612a43612589565b5060051b60200190565b600082601f830112612a5e57600080fd5b81516020612a6e61263d83612a2a565b82815260059290921b84018101918181019086841115612a8d57600080fd5b8286015b84811015612aa85780518352918301918301612a91565b509695505050505050565b600060208284031215612ac557600080fd5b81516001600160401b03811115612adb57600080fd5b61237c84828501612a4d565b81810381811115611fe057611fe06127a5565b634e487b7160e01b600052603160045260246000fd5b60008060008060808587031215612b2657600080fd5b8451612b31816126cc565b809450506020808601516001600160401b0380821115612b5057600080fd5b612b5c89838a01612a4d565b95506040880151915080821115612b7257600080fd5b612b7e89838a01612a4d565b94506060880151915080821115612b9457600080fd5b508601601f81018813612ba657600080fd5b8051612bb461263d82612a2a565b81815260059190911b8201830190838101908a831115612bd357600080fd5b928401925b82841015612bf157835182529284019290840190612bd8565b979a9699509497505050505050565b60008060408385031215612c1357600080fd5b8251612c1e816126cc565b60208401519092506001600160401b03811115612c3a57600080fd5b612c4685828601612a4d565b9150509250929050565b60008060408385031215612c6357600080fd5b8251612c6e816126cc565b6020939093015192949293505050565b60006020808385031215612c9157600080fd5b82516001600160401b03811115612ca757600080fd5b8301601f81018513612cb857600080fd5b8051612cc661263d82612a2a565b81815260059190911b82018301908381019087831115612ce557600080fd5b928401925b82841015612454578351612cfd816126cc565b82529284019290840190612cea565b60008251612d1e818460208701612800565b9190910192915050565b6020815260008251806020840152612d47816040850160208701612800565b601f01601f1916919091016040019291505056","linkReferences":{}},"methodIdentifiers":{"getDebtAssets()":"ecd658b4","getManagedAssets()":"80daddb8","getOfferIdsFromTermAuction(address)":"afb806da","getTermAuctions()":"050c2735","init(bytes)":"4ddf47d4","receiveCallFromVault(bytes)":"e5c23a97"},"id":137}