{"abi":[{"type":"constructor","inputs":[{"name":"_fundDeployer","type":"address","internalType":"address"},{"name":"_externalPositionFactory","type":"address","internalType":"address"},{"name":"_policyManager","type":"address","internalType":"address"}],"stateMutability":"nonpayable"},{"type":"function","name":"activateForFund","inputs":[{"name":"","type":"bool","internalType":"bool"}],"outputs":[],"stateMutability":"nonpayable"},{"type":"function","name":"deactivateForFund","inputs":[],"outputs":[],"stateMutability":"nonpayable"},{"type":"function","name":"getExternalPositionFactory","inputs":[],"outputs":[{"name":"externalPositionFactory_","type":"address","internalType":"address"}],"stateMutability":"view"},{"type":"function","name":"getExternalPositionLibForType","inputs":[{"name":"_typeId","type":"uint256","internalType":"uint256"}],"outputs":[{"name":"lib_","type":"address","internalType":"address"}],"stateMutability":"view"},{"type":"function","name":"getExternalPositionParserForType","inputs":[{"name":"_typeId","type":"uint256","internalType":"uint256"}],"outputs":[{"name":"parser_","type":"address","internalType":"address"}],"stateMutability":"view"},{"type":"function","name":"getFundDeployer","inputs":[],"outputs":[{"name":"fundDeployer_","type":"address","internalType":"address"}],"stateMutability":"view"},{"type":"function","name":"getOwner","inputs":[],"outputs":[{"name":"owner_","type":"address","internalType":"address"}],"stateMutability":"view"},{"type":"function","name":"getPolicyManager","inputs":[],"outputs":[{"name":"policyManager_","type":"address","internalType":"address"}],"stateMutability":"view"},{"type":"function","name":"getVaultProxyForFund","inputs":[{"name":"_comptrollerProxy","type":"address","internalType":"address"}],"outputs":[{"name":"vaultProxy_","type":"address","internalType":"address"}],"stateMutability":"view"},{"type":"function","name":"receiveCallFromComptroller","inputs":[{"name":"_caller","type":"address","internalType":"address"},{"name":"_actionId","type":"uint256","internalType":"uint256"},{"name":"_callArgs","type":"bytes","internalType":"bytes"}],"outputs":[],"stateMutability":"nonpayable"},{"type":"function","name":"setConfigForFund","inputs":[{"name":"_comptrollerProxy","type":"address","internalType":"address"},{"name":"_vaultProxy","type":"address","internalType":"address"},{"name":"","type":"bytes","internalType":"bytes"}],"outputs":[],"stateMutability":"nonpayable"},{"type":"function","name":"updateExternalPositionTypesInfo","inputs":[{"name":"_typeIds","type":"uint256[]","internalType":"uint256[]"},{"name":"_libs","type":"address[]","internalType":"address[]"},{"name":"_parsers","type":"address[]","internalType":"address[]"}],"outputs":[],"stateMutability":"nonpayable"},{"type":"event","name":"CallOnExternalPositionExecutedForFund","inputs":[{"name":"caller","type":"address","indexed":true,"internalType":"address"},{"name":"comptrollerProxy","type":"address","indexed":true,"internalType":"address"},{"name":"externalPosition","type":"address","indexed":true,"internalType":"address"},{"name":"actionId","type":"uint256","indexed":false,"internalType":"uint256"},{"name":"actionArgs","type":"bytes","indexed":false,"internalType":"bytes"},{"name":"assetsToTransfer","type":"address[]","indexed":false,"internalType":"address[]"},{"name":"amountsToTransfer","type":"uint256[]","indexed":false,"internalType":"uint256[]"},{"name":"assetsToReceive","type":"address[]","indexed":false,"internalType":"address[]"}],"anonymous":false},{"type":"event","name":"ExternalPositionDeployedForFund","inputs":[{"name":"comptrollerProxy","type":"address","indexed":true,"internalType":"address"},{"name":"vaultProxy","type":"address","indexed":true,"internalType":"address"},{"name":"externalPosition","type":"address","indexed":false,"internalType":"address"},{"name":"externalPositionTypeId","type":"uint256","indexed":true,"internalType":"uint256"},{"name":"data","type":"bytes","indexed":false,"internalType":"bytes"}],"anonymous":false},{"type":"event","name":"ExternalPositionTypeInfoUpdated","inputs":[{"name":"typeId","type":"uint256","indexed":true,"internalType":"uint256"},{"name":"lib","type":"address","indexed":false,"internalType":"address"},{"name":"parser","type":"address","indexed":false,"internalType":"address"}],"anonymous":false},{"type":"event","name":"ValidatedVaultProxySetForFund","inputs":[{"name":"comptrollerProxy","type":"address","indexed":true,"internalType":"address"},{"name":"vaultProxy","type":"address","indexed":true,"internalType":"address"}],"anonymous":false}],"bytecode":{"object":"0x60e060405234801561001057600080fd5b506040516130da3803806130da8339818101604052606081101561003357600080fd5b8101908080519060200190929190805190602001909291908051906020019092919050505082808073ffffffffffffffffffffffffffffffffffffffff1660808173ffffffffffffffffffffffffffffffffffffffff1660601b8152505050508173ffffffffffffffffffffffffffffffffffffffff1660a08173ffffffffffffffffffffffffffffffffffffffff1660601b815250508073ffffffffffffffffffffffffffffffffffffffff1660c08173ffffffffffffffffffffffffffffffffffffffff1660601b8152505050505060805160601c60a05160601c60c05160601c612f9761014360003980610f71525080610df452806116c8525080610e9f5280610f475250612f976000f3fe608060405234801561001057600080fd5b50600436106100b45760003560e01c806380d570631161007157806380d570631461048e578063893d20e8146104be57806397c0ac87146104f2578063bd8e959a14610526578063d44ad6cb14610530578063f067cc1114610564576100b4565b80631bee801e146100b9578063467903461461015c5780634c68a8dc146101ca578063634ac96d146103aa57806375d8bb0e146103de5780637c65c11414610436575b600080fd5b61015a600480360360608110156100cf57600080fd5b81019080803573ffffffffffffffffffffffffffffffffffffffff169060200190929190803590602001909291908035906020019064010000000081111561011657600080fd5b82018360208201111561012857600080fd5b8035906020019184600183028401116401000000008311171561014a57600080fd5b909192939192939050505061061d565b005b61019e6004803603602081101561017257600080fd5b81019080803573ffffffffffffffffffffffffffffffffffffffff1690602001909291905050506109c2565b604051808273ffffffffffffffffffffffffffffffffffffffff16815260200191505060405180910390f35b6103a8600480360360608110156101e057600080fd5b81019080803590602001906401000000008111156101fd57600080fd5b82018360208201111561020f57600080fd5b8035906020019184602083028401116401000000008311171561023157600080fd5b919080806020026020016040519081016040528093929190818152602001838360200280828437600081840152601f19601f8201169050808301925050505050505091929192908035906020019064010000000081111561029157600080fd5b8201836020820111156102a357600080fd5b803590602001918460208302840111640100000000831117156102c557600080fd5b919080806020026020016040519081016040528093929190818152602001838360200280828437600081840152601f19601f8201169050808301925050505050505091929192908035906020019064010000000081111561032557600080fd5b82018360208201111561033757600080fd5b8035906020019184602083028401116401000000008311171561035957600080fd5b919080806020026020016040519081016040528093929190818152602001838360200280828437600081840152601f19601f820116905080830192505050505050509192919290505050610a2a565b005b6103b2610df0565b604051808273ffffffffffffffffffffffffffffffffffffffff16815260200191505060405180910390f35b61040a600480360360208110156103f457600080fd5b8101908080359060200190929190505050610e18565b604051808273ffffffffffffffffffffffffffffffffffffffff16815260200191505060405180910390f35b6104626004803603602081101561044c57600080fd5b8101908080359060200190929190505050610e58565b604051808273ffffffffffffffffffffffffffffffffffffffff16815260200191505060405180910390f35b6104bc600480360360208110156104a457600080fd5b81019080803515159060200190929190505050610e98565b005b6104c6610e9b565b604051808273ffffffffffffffffffffffffffffffffffffffff16815260200191505060405180910390f35b6104fa610f43565b604051808273ffffffffffffffffffffffffffffffffffffffff16815260200191505060405180910390f35b61052e610f6b565b005b610538610f6d565b604051808273ffffffffffffffffffffffffffffffffffffffff16815260200191505060405180910390f35b61061b6004803603606081101561057a57600080fd5b81019080803573ffffffffffffffffffffffffffffffffffffffff169060200190929190803573ffffffffffffffffffffffffffffffffffffffff169060200190929190803590602001906401000000008111156105d757600080fd5b8201836020820111156105e957600080fd5b8035906020019184600183028401116401000000008311171561060b57600080fd5b9091929391929390505050610f95565b005b6000339050600061062d826109c2565b9050600073ffffffffffffffffffffffffffffffffffffffff168173ffffffffffffffffffffffffffffffffffffffff1614156106b5576040517f08c379a000000000000000000000000000000000000000000000000000000000815260040180806020018281038252602d815260200180612f2f602d913960400191505060405180910390fd5b8073ffffffffffffffffffffffffffffffffffffffff1663714ca2d1876040518263ffffffff1660e01b8152600401808273ffffffffffffffffffffffffffffffffffffffff16815260200191505060206040518083038186803b15801561071c57600080fd5b505afa158015610730573d6000803e3d6000fd5b505050506040513d602081101561074657600080fd5b81019080805190602001909291905050506107ac576040517f08c379a0000000000000000000000000000000000000000000000000000000008152600401808060200182810382526028815260200180612e376028913960400191505060405180910390fd5b600060038111156107b957fe5b8514156108155761081086838387878080601f016020809104026020016040519081016040528093929190818152602001838380828437600081840152601f19601f82011690508083019250505050505050611030565b6109ba565b6001600381111561082257fe5b85141561089657600080606061087b87878080601f016020809104026020016040519081016040528093929190818152602001838380828437600081840152601f19601f82011690508083019250505050505050611952565b92509250925061088e8986858585611a48565b5050506109b9565b600260038111156108a357fe5b8514156108fe576108f9868386868080601f016020809104026020016040519081016040528093929190818152602001838380828437600081840152601f19601f82011690508083019250505050505050612445565b6109b8565b60038081111561090a57fe5b8514156109665761096186838387878080601f016020809104026020016040519081016040528093929190818152602001838380828437600081840152601f19601f820116905080830192505050505050506125db565b6109b7565b6040517f08c379a000000000000000000000000000000000000000000000000000000000815260040180806020018281038252602d815260200180612dbb602d913960400191505060405180910390fd5b5b5b5b505050505050565b60008060008373ffffffffffffffffffffffffffffffffffffffff1673ffffffffffffffffffffffffffffffffffffffff16815260200190815260200160002060009054906101000a900473ffffffffffffffffffffffffffffffffffffffff169050919050565b610a32610e9b565b73ffffffffffffffffffffffffffffffffffffffff163373ffffffffffffffffffffffffffffffffffffffff1614610ab5576040517f08c379a0000000000000000000000000000000000000000000000000000000008152600401808060200182810382526049815260200180612d726049913960600191505060405180910390fd5b80518351148015610ac7575080518251145b610b1c576040517f08c379a000000000000000000000000000000000000000000000000000000000815260040180806020018281038252602f815260200180612f5c602f913960400191505060405180910390fd5b60005b8351811015610dea57610b30610df0565b73ffffffffffffffffffffffffffffffffffffffff16633825abe86040518163ffffffff1660e01b815260040160206040518083038186803b158015610b7557600080fd5b505afa158015610b89573d6000803e3d6000fd5b505050506040513d6020811015610b9f57600080fd5b8101908080519060200190929190505050848281518110610bbc57fe5b602002602001015110610c1a576040517f08c379a0000000000000000000000000000000000000000000000000000000008152600401808060200182810382526034815260200180612e5f6034913960400191505060405180910390fd5b6040518060400160405280838381518110610c3157fe5b602002602001015173ffffffffffffffffffffffffffffffffffffffff168152602001848381518110610c6057fe5b602002602001015173ffffffffffffffffffffffffffffffffffffffff1681525060016000868481518110610c9157fe5b6020026020010151815260200190815260200160002060008201518160000160006101000a81548173ffffffffffffffffffffffffffffffffffffffff021916908373ffffffffffffffffffffffffffffffffffffffff16021790555060208201518160010160006101000a81548173ffffffffffffffffffffffffffffffffffffffff021916908373ffffffffffffffffffffffffffffffffffffffff160217905550905050838181518110610d4457fe5b60200260200101517f14f0f52379e27a06185de7281205c2496464cf539a6dcc46258cc6cebe89dc30848381518110610d7957fe5b6020026020010151848481518110610d8d57fe5b6020026020010151604051808373ffffffffffffffffffffffffffffffffffffffff1681526020018273ffffffffffffffffffffffffffffffffffffffff1681526020019250505060405180910390a28080600101915050610b1f565b50505050565b60007f0000000000000000000000000000000000000000000000000000000000000000905090565b60006001600083815260200190815260200160002060010160009054906101000a900473ffffffffffffffffffffffffffffffffffffffff169050919050565b60006001600083815260200190815260200160002060000160009054906101000a900473ffffffffffffffffffffffffffffffffffffffff169050919050565b50565b60007f000000000000000000000000000000000000000000000000000000000000000073ffffffffffffffffffffffffffffffffffffffff1663893d20e86040518163ffffffff1660e01b815260040160206040518083038186803b158015610f0357600080fd5b505afa158015610f17573d6000803e3d6000fd5b505050506040513d6020811015610f2d57600080fd5b8101908080519060200190929190505050905090565b60007f0000000000000000000000000000000000000000000000000000000000000000905090565b565b60007f0000000000000000000000000000000000000000000000000000000000000000905090565b610f9d610f43565b73ffffffffffffffffffffffffffffffffffffffff163373ffffffffffffffffffffffffffffffffffffffff1614611020576040517f08c379a0000000000000000000000000000000000000000000000000000000008152600401808060200182810382526028815260200180612e936028913960400191505060405180910390fd5b61102a8484612974565b50505050565b600060608083806020019051606081101561104a57600080fd5b81019080805190602001909291908051604051939291908464010000000082111561107457600080fd5b8382019150602082018581111561108a57600080fd5b82518660018202830111640100000000821117156110a757600080fd5b8083526020830192505050908051906020019080838360005b838110156110db5780820151818401526020810190506110c0565b50505050905090810190601f1680156111085780820380516001836020036101000a031916815260200191505b506040526020018051604051939291908464010000000082111561112b57600080fd5b8382019150602082018581111561114157600080fd5b825186600182028301116401000000008211171561115e57600080fd5b8083526020830192505050908051906020019080838360005b83811015611192578082015181840152602081019050611177565b50505050905090810190601f1680156111bf5780820380516001836020036101000a031916815260200191505b5060405250505092509250925060006111d784610e58565b9050600073ffffffffffffffffffffffffffffffffffffffff168173ffffffffffffffffffffffffffffffffffffffff16141561125f576040517f08c379a0000000000000000000000000000000000000000000000000000000008152600401808060200182810382526028815260200180612ebb6028913960400191505060405180910390fd5b611267610f6d565b73ffffffffffffffffffffffffffffffffffffffff16630442bad58860068b8888604051602001808473ffffffffffffffffffffffffffffffffffffffff16815260200183815260200180602001828103825283818151815260200191508051906020019080838360005b838110156112ed5780820151818401526020810190506112d2565b50505050905090810190601f16801561131a5780820380516001836020036101000a031916815260200191505b509450505050506040516020818303038152906040526040518463ffffffff1660e01b8152600401808473ffffffffffffffffffffffffffffffffffffffff16815260200183600981111561136b57fe5b815260200180602001828103825283818151815260200191508051906020019080838360005b838110156113ac578082015181840152602081019050611391565b50505050905090810190601f1680156113d95780820380516001836020036101000a031916815260200191505b50945050505050600060405180830381600087803b1580156113fa57600080fd5b505af115801561140e573d6000803e3d6000fd5b5050505060608173ffffffffffffffffffffffffffffffffffffffff1663db16c72e88866040518363ffffffff1660e01b8152600401808373ffffffffffffffffffffffffffffffffffffffff16815260200180602001828103825283818151815260200191508051906020019080838360005b8381101561149d578082015181840152602081019050611482565b50505050905090810190601f1680156114ca5780820380516001836020036101000a031916815260200191505b509350505050600060405180830381600087803b1580156114ea57600080fd5b505af11580156114fe573d6000803e3d6000fd5b505050506040513d6000823e3d601f19601f82011682018060405250602081101561152857600080fd5b810190808051604051939291908464010000000082111561154857600080fd5b8382019150602082018581111561155e57600080fd5b825186600182028301116401000000008211171561157b57600080fd5b8083526020830192505050908051906020019080838360005b838110156115af578082015181840152602081019050611594565b50505050905090810190601f1680156115dc5780820380516001836020036101000a031916815260200191505b5060405250505090506060634ddf47d460e01b826040516024018080602001828103825283818151815260200191508051906020019080838360005b83811015611633578082015181840152602081019050611618565b50505050905090810190601f1680156116605780820380516001836020036101000a031916815260200191505b5092505050604051602081830303815290604052907bffffffffffffffffffffffffffffffffffffffffffffffffffffffff19166020820180517bffffffffffffffffffffffffffffffffffffffffffffffffffffffff8381831617835250505050905060007f000000000000000000000000000000000000000000000000000000000000000073ffffffffffffffffffffffffffffffffffffffff1663f908bc778a8961170d8b610e18565b866040518563ffffffff1660e01b8152600401808573ffffffffffffffffffffffffffffffffffffffff1681526020018481526020018373ffffffffffffffffffffffffffffffffffffffff16815260200180602001828103825283818151815260200191508051906020019080838360005b8381101561179b578082015181840152602081019050611780565b50505050905090810190601f1680156117c85780820380516001836020036101000a031916815260200191505b5095505050505050602060405180830381600087803b1580156117ea57600080fd5b505af11580156117fe573d6000803e3d6000fd5b505050506040513d602081101561181457600080fd5b81019080805190602001909291905050509050868973ffffffffffffffffffffffffffffffffffffffff168b73ffffffffffffffffffffffffffffffffffffffff167fc3b9bcc16acc2ee56104cb9a5d736ade0f1446a66aa9e217d8fa5b44f946b59e8487604051808373ffffffffffffffffffffffffffffffffffffffff16815260200180602001828103825283818151815260200191508051906020019080838360005b838110156118d55780820151818401526020810190506118ba565b50505050905090810190601f1680156119025780820380516001836020036101000a031916815260200191505b50935050505060405180910390a461191a8a82612a4f565b6000855114611945576000606061193087611952565b92509250506119428d8d858585611a48565b50505b5050505050505050505050565b600080606083806020019051606081101561196c57600080fd5b810190808051906020019092919080519060200190929190805160405193929190846401000000008211156119a057600080fd5b838201915060208201858111156119b657600080fd5b82518660018202830111640100000000821117156119d357600080fd5b8083526020830192505050908051906020019080838360005b83811015611a075780820151818401526020810190506119ec565b50505050905090810190601f168015611a345780820380516001836020036101000a031916815260200191505b506040525050509250925092509193909250565b6000611ad38473ffffffffffffffffffffffffffffffffffffffff166312bc0a446040518163ffffffff1660e01b815260040160206040518083038186803b158015611a9357600080fd5b505afa158015611aa7573d6000803e3d6000fd5b505050506040513d6020811015611abd57600080fd5b8101908080519060200190929190505050610e58565b905060608060608373ffffffffffffffffffffffffffffffffffffffff1663bbd2d6468888886040518463ffffffff1660e01b8152600401808473ffffffffffffffffffffffffffffffffffffffff16815260200183815260200180602001828103825283818151815260200191508051906020019080838360005b83811015611b6a578082015181840152602081019050611b4f565b50505050905090810190601f168015611b975780820380516001836020036101000a031916815260200191505b50945050505050600060405180830381600087803b158015611bb857600080fd5b505af1158015611bcc573d6000803e3d6000fd5b505050506040513d6000823e3d601f19601f820116820180604052506060811015611bf657600080fd5b8101908080516040519392919084640100000000821115611c1657600080fd5b83820191506020820185811115611c2c57600080fd5b8251866020820283011164010000000082111715611c4957600080fd5b8083526020830192505050908051906020019060200280838360005b83811015611c80578082015181840152602081019050611c65565b5050505090500160405260200180516040519392919084640100000000821115611ca957600080fd5b83820191506020820185811115611cbf57600080fd5b8251866020820283011164010000000082111715611cdc57600080fd5b8083526020830192505050908051906020019060200280838360005b83811015611d13578082015181840152602081019050611cf8565b5050505090500160405260200180516040519392919084640100000000821115611d3c57600080fd5b83820191506020820185811115611d5257600080fd5b8251866020820283011164010000000082111715611d6f57600080fd5b8083526020830192505050908051906020019060200280838360005b83811015611da6578082015181840152602081019050611d8b565b50505050905001604052505050925092509250606086866040516020018083815260200180602001828103825283818151815260200191508051906020019080838360005b83811015611e06578082015181840152602081019050611deb565b50505050905090810190601f168015611e335780820380516001836020036101000a031916815260200191505b5093505050506040516020818303038152906040529050611fd1898983878787604051602001808673ffffffffffffffffffffffffffffffffffffffff16815260200180602001806020018060200180602001858103855289818151815260200191508051906020019080838360005b83811015611ebe578082015181840152602081019050611ea3565b50505050905090810190601f168015611eeb5780820380516001836020036101000a031916815260200191505b50858103845288818151815260200191508051906020019060200280838360005b83811015611f27578082015181840152602081019050611f0c565b50505050905001858103835287818151815260200191508051906020019060200280838360005b83811015611f69578082015181840152602081019050611f4e565b50505050905001858103825286818151815260200191508051906020019060200280838360005b83811015611fab578082015181840152602081019050611f90565b505050509050019950505050505050505050604051602081830303815290604052612b6c565b611fd9610f6d565b73ffffffffffffffffffffffffffffffffffffffff16630442bad58a60078d8c89898989604051602001808773ffffffffffffffffffffffffffffffffffffffff1681526020018673ffffffffffffffffffffffffffffffffffffffff16815260200180602001806020018060200180602001858103855289818151815260200191508051906020019060200280838360005b8381101561208757808201518184015260208101905061206c565b50505050905001858103845288818151815260200191508051906020019060200280838360005b838110156120c95780820151818401526020810190506120ae565b50505050905001858103835287818151815260200191508051906020019060200280838360005b8381101561210b5780820151818401526020810190506120f0565b50505050905001858103825286818151815260200191508051906020019080838360005b8381101561214a57808201518184015260208101905061212f565b50505050905090810190601f1680156121775780820380516001836020036101000a031916815260200191505b509a50505050505050505050506040516020818303038152906040526040518463ffffffff1660e01b8152600401808473ffffffffffffffffffffffffffffffffffffffff1681526020018360098111156121ce57fe5b815260200180602001828103825283818151815260200191508051906020019080838360005b8381101561220f5780820151818401526020810190506121f4565b50505050905090810190601f16801561223c5780820380516001836020036101000a031916815260200191505b50945050505050600060405180830381600087803b15801561225d57600080fd5b505af1158015612271573d6000803e3d6000fd5b505050508773ffffffffffffffffffffffffffffffffffffffff168973ffffffffffffffffffffffffffffffffffffffff168b73ffffffffffffffffffffffffffffffffffffffff167f62e5ab7686baa8b666d45a227de296ea589ff48f1f215ca0e647ef6417a8657e8a8a8989896040518086815260200180602001806020018060200180602001858103855289818151815260200191508051906020019080838360005b83811015612332578082015181840152602081019050612317565b50505050905090810190601f16801561235f5780820380516001836020036101000a031916815260200191505b50858103845288818151815260200191508051906020019060200280838360005b8381101561239b578082015181840152602081019050612380565b50505050905001858103835287818151815260200191508051906020019060200280838360005b838110156123dd5780820151818401526020810190506123c2565b50505050905001858103825286818151815260200191508051906020019060200280838360005b8381101561241f578082015181840152602081019050612404565b50505050905001995050505050505050505060405180910390a450505050505050505050565b600081806020019051602081101561245c57600080fd5b81019080805190602001909291905050509050612477610f6d565b73ffffffffffffffffffffffffffffffffffffffff16630442bad58460088785604051602001808373ffffffffffffffffffffffffffffffffffffffff1681526020018273ffffffffffffffffffffffffffffffffffffffff168152602001925050506040516020818303038152906040526040518463ffffffff1660e01b8152600401808473ffffffffffffffffffffffffffffffffffffffff16815260200183600981111561252457fe5b815260200180602001828103825283818151815260200191508051906020019080838360005b8381101561256557808201518184015260208101905061254a565b50505050905090810190601f1680156125925780820380516001836020036101000a031916815260200191505b50945050505050600060405180830381600087803b1580156125b357600080fd5b505af11580156125c7573d6000803e3d6000fd5b505050506125d58382612c54565b50505050565b60008180602001905160208110156125f257600080fd5b8101908080519060200190929190505050905061260d610df0565b73ffffffffffffffffffffffffffffffffffffffff166371b79dc1826040518263ffffffff1660e01b8152600401808273ffffffffffffffffffffffffffffffffffffffff16815260200191505060206040518083038186803b15801561267357600080fd5b505afa158015612687573d6000803e3d6000fd5b505050506040513d602081101561269d57600080fd5b8101908080519060200190929190505050612703576040517f08c379a000000000000000000000000000000000000000000000000000000000815260040180806020018281038252604f815260200180612de8604f913960600191505060405180910390fd5b8273ffffffffffffffffffffffffffffffffffffffff168173ffffffffffffffffffffffffffffffffffffffff1663c98091876040518163ffffffff1660e01b815260040160206040518083038186803b15801561276057600080fd5b505afa158015612774573d6000803e3d6000fd5b505050506040513d602081101561278a57600080fd5b810190808051906020019092919050505073ffffffffffffffffffffffffffffffffffffffff1614612807576040517f08c379a000000000000000000000000000000000000000000000000000000000815260040180806020018281038252604c815260200180612ee3604c913960600191505060405180910390fd5b61280f610f6d565b73ffffffffffffffffffffffffffffffffffffffff16630442bad58560098885604051602001808373ffffffffffffffffffffffffffffffffffffffff1681526020018273ffffffffffffffffffffffffffffffffffffffff168152602001925050506040516020818303038152906040526040518463ffffffff1660e01b8152600401808473ffffffffffffffffffffffffffffffffffffffff1681526020018360098111156128bc57fe5b815260200180602001828103825283818151815260200191508051906020019080838360005b838110156128fd5780820151818401526020810190506128e2565b50505050905090810190601f16801561292a5780820380516001836020036101000a031916815260200191505b50945050505050600060405180830381600087803b15801561294b57600080fd5b505af115801561295f573d6000803e3d6000fd5b5050505061296d8482612a4f565b5050505050565b806000808473ffffffffffffffffffffffffffffffffffffffff1673ffffffffffffffffffffffffffffffffffffffff16815260200190815260200160002060006101000a81548173ffffffffffffffffffffffffffffffffffffffff021916908373ffffffffffffffffffffffffffffffffffffffff1602179055508073ffffffffffffffffffffffffffffffffffffffff168273ffffffffffffffffffffffffffffffffffffffff167f8852dcaa71340ea616a65ffac013450dfb238607481fb9d78346c667fe256c1360405160405180910390a35050565b8173ffffffffffffffffffffffffffffffffffffffff166310acd06d600883604051602001808273ffffffffffffffffffffffffffffffffffffffff1681526020019150506040516020818303038152906040526040518363ffffffff1660e01b81526004018083600a811115612ac257fe5b815260200180602001828103825283818151815260200191508051906020019080838360005b83811015612b03578082015181840152602081019050612ae8565b50505050905090810190601f168015612b305780820380516001836020036101000a031916815260200191505b509350505050600060405180830381600087803b158015612b5057600080fd5b505af1158015612b64573d6000803e3d6000fd5b505050505050565b8173ffffffffffffffffffffffffffffffffffffffff166310acd06d6009836040518363ffffffff1660e01b81526004018083600a811115612baa57fe5b815260200180602001828103825283818151815260200191508051906020019080838360005b83811015612beb578082015181840152602081019050612bd0565b50505050905090810190601f168015612c185780820380516001836020036101000a031916815260200191505b509350505050600060405180830381600087803b158015612c3857600080fd5b505af1158015612c4c573d6000803e3d6000fd5b505050505050565b8173ffffffffffffffffffffffffffffffffffffffff166310acd06d600a83604051602001808273ffffffffffffffffffffffffffffffffffffffff1681526020019150506040516020818303038152906040526040518363ffffffff1660e01b81526004018083600a811115612cc757fe5b815260200180602001828103825283818151815260200191508051906020019080838360005b83811015612d08578082015181840152602081019050612ced565b50505050905090810190601f168015612d355780820380516001836020036101000a031916815260200191505b509350505050600060405180830381600087803b158015612d5557600080fd5b505af1158015612d69573d6000803e3d6000fd5b50505050505056fe6f6e6c7946756e644465706c6f7965724f776e65723a204f6e6c79207468652046756e644465706c6f796572206f776e65722063616e2063616c6c20746869732066756e6374696f6e7265636569766543616c6c46726f6d436f6d7074726f6c6c65723a20496e76616c6964205f616374696f6e49645f5f7265616374697661746545787465726e616c506f736974696f6e3a204163636f756e742070726f7669646564206973206e6f7420612076616c69642065787465726e616c20706f736974696f6e7265636569766543616c6c46726f6d436f6d7074726f6c6c65723a20556e617574686f72697a656475706461746545787465726e616c506f736974696f6e5479706573496e666f3a205479706520646f6573206e6f742065786973744f6e6c79207468652046756e644465706c6f7965722063616e206d616b6520746869732063616c6c5f5f63726561746545787465726e616c506f736974696f6e3a20496e76616c6964207479706549645f5f7265616374697661746545787465726e616c506f736974696f6e3a2045787465726e616c20706f736974696f6e2062656c6f6e677320746f206120646966666572656e74207661756c747265636569766543616c6c46726f6d436f6d7074726f6c6c65723a2046756e64206973206e6f742076616c696475706461746545787465726e616c506f736974696f6e5479706573496e666f3a20556e657175616c20617272617973a164736f6c634300060c000a","linkReferences":{}},"methodIdentifiers":{"activateForFund(bool)":"80d57063","deactivateForFund()":"bd8e959a","getExternalPositionFactory()":"634ac96d","getExternalPositionLibForType(uint256)":"75d8bb0e","getExternalPositionParserForType(uint256)":"7c65c114","getFundDeployer()":"97c0ac87","getOwner()":"893d20e8","getPolicyManager()":"d44ad6cb","getVaultProxyForFund(address)":"46790346","receiveCallFromComptroller(address,uint256,bytes)":"1bee801e","setConfigForFund(address,address,bytes)":"f067cc11","updateExternalPositionTypesInfo(uint256[],address[],address[])":"4c68a8dc"},"id":138}