{"abi":[{"type":"constructor","inputs":[],"stateMutability":"nonpayable"},{"type":"function","name":"deploy","inputs":[{"name":"_owner","type":"address","internalType":"address"},{"name":"_updater","type":"address","internalType":"address"},{"name":"_description","type":"bytes32","internalType":"bytes32"}],"outputs":[{"name":"proxy_","type":"address","internalType":"address"}],"stateMutability":"nonpayable"},{"type":"event","name":"ProxyDeployed","inputs":[{"name":"caller","type":"address","indexed":true,"internalType":"address"},{"name":"proxy","type":"address","indexed":false,"internalType":"address"}],"anonymous":false}],"bytecode":{"object":"0x60a060405234801561001057600080fd5b5060405161001d90610075565b604051809103906000f080158015610039573d6000803e3d6000fd5b5073ffffffffffffffffffffffffffffffffffffffff1660808173ffffffffffffffffffffffffffffffffffffffff1660601b81525050610082565b610af9806106b783390190565b60805160601c61061861009f6000398061018352506106186000f3fe608060405234801561001057600080fd5b506004361061002b5760003560e01c8063b031107914610030575b600080fd5b61009c6004803603606081101561004657600080fd5b81019080803573ffffffffffffffffffffffffffffffffffffffff169060200190929190803573ffffffffffffffffffffffffffffffffffffffff169060200190929190803590602001909291905050506100c8565b604051808273ffffffffffffffffffffffffffffffffffffffff16815260200191505060405180910390f35b6000606063347258aa60e01b858585604051602401808473ffffffffffffffffffffffffffffffffffffffff1681526020018373ffffffffffffffffffffffffffffffffffffffff1681526020018281526020019350505050604051602081830303815290604052907bffffffffffffffffffffffffffffffffffffffffffffffffffffffff19166020820180517bffffffffffffffffffffffffffffffffffffffffffffffffffffffff83818316178352505050509050807f00000000000000000000000000000000000000000000000000000000000000006040516101ae906102c5565b80806020018373ffffffffffffffffffffffffffffffffffffffff168152602001828103825284818151815260200191508051906020019080838360005b838110156102075780820151818401526020810190506101ec565b50505050905090810190601f1680156102345780820380516001836020036101000a031916815260200191505b509350505050604051809103906000f080158015610256573d6000803e3d6000fd5b5091503373ffffffffffffffffffffffffffffffffffffffff167f3d2489efb661e8b1c3679865db649ca1de61d76a71184a1234de2e55786a6aad83604051808273ffffffffffffffffffffffffffffffffffffffff16815260200191505060405180910390a2509392505050565b610339806102d38339019056fe60a060405234801561001057600080fd5b506040516103393803806103398339818101604052604081101561003357600080fd5b810190808051604051939291908464010000000082111561005357600080fd5b8382019150602082018581111561006957600080fd5b825186600182028301116401000000008211171561008657600080fd5b8083526020830192505050908051906020019080838360005b838110156100ba57808201518184015260208101905061009f565b50505050905090810190601f1680156100e75780820380516001836020036101000a031916815260200191505b506040526020018051906020019092919050505081818073ffffffffffffffffffffffffffffffffffffffff1660808173ffffffffffffffffffffffffffffffffffffffff1660601b81525050807f360894a13ba1a3210667c828492db98dca3e2076cc3735a920a3ca505d382bbc55600060608273ffffffffffffffffffffffffffffffffffffffff16846040518082805190602001908083835b602083106101a65780518252602082019150602081019050602083039250610183565b6001836020036101000a038019825116818451168082178552505050505050905001915050600060405180830381855af49150503d8060008114610206576040519150601f19603f3d011682016040523d82523d6000602084013e61020b565b606091505b50915091508181906102b8576040517f08c379a00000000000000000000000000000000000000000000000000000000081526004018080602001828103825283818151815260200191508051906020019080838360005b8381101561027d578082015181840152602081019050610262565b50505050905090810190601f1680156102aa5780820380516001836020036101000a031916815260200191505b509250505060405180910390fd5b5050505050505060805160601c60606102d9600039806008525060606000f3fe608060405260007f000000000000000000000000000000000000000000000000000000000000000090503660008037600080366000846127105a03f43d806000803e8160008114604e57816000f35b816000fdfea164736f6c634300060c000aa164736f6c634300060c000a608060405234801561001057600080fd5b50610ad9806100206000396000f3fe608060405234801561001057600080fd5b50600436106100a95760003560e01c80634e71e0c8116100715780634e71e0c8146101c4578063728e17a0146101ce57806378121dd414610212578063893d20e81461023057806399d54d39146102645780639d54f41914610298576100a9565b806320965255146100ae578063288b6a36146100cc5780632cd5667214610100578063347258aa146101315780634def98551461019f575b600080fd5b6100b66102dc565b6040518082815260200191505060405180910390f35b6100d46102f6565b604051808273ffffffffffffffffffffffffffffffffffffffff16815260200191505060405180910390f35b61012f6004803603602081101561011657600080fd5b81019080803560170b906020019092919050505061031f565b005b61019d6004803603606081101561014757600080fd5b81019080803573ffffffffffffffffffffffffffffffffffffffff169060200190929190803573ffffffffffffffffffffffffffffffffffffffff16906020019092919080359060200190929190505050610479565b005b6101a7610648565b604051808381526020018281526020019250505060405180910390f35b6101cc610663565b005b610210600480360360208110156101e457600080fd5b81019080803573ffffffffffffffffffffffffffffffffffffffff169060200190929190505050610740565b005b61021a6107f4565b6040518082815260200191505060405180910390f35b61023861081c565b604051808273ffffffffffffffffffffffffffffffffffffffff16815260200191505060405180910390f35b61026c610846565b604051808273ffffffffffffffffffffffffffffffffffffffff16815260200191505060405180910390f35b6102da600480360360208110156102ae57600080fd5b81019080803573ffffffffffffffffffffffffffffffffffffffff169060200190929190505050610870565b005b6000600360009054906101000a900460170b60170b905090565b60008060009054906101000a900473ffffffffffffffffffffffffffffffffffffffff16905090565b610327610846565b73ffffffffffffffffffffffffffffffffffffffff163373ffffffffffffffffffffffffffffffffffffffff16146103c7576040517f08c379a00000000000000000000000000000000000000000000000000000000081526004018080602001828103825260198152602001807f75706461746556616c75653a20556e617574686f72697a65640000000000000081525060200191505060405180910390fd5b80600360006101000a81548177ffffffffffffffffffffffffffffffffffffffffffffffff021916908360170b77ffffffffffffffffffffffffffffffffffffffffffffffff16021790555042600360186101000a81548167ffffffffffffffff021916908367ffffffffffffffff1602179055507f6577488b46c5d4bec17c8c7e5461e3b03f90932b44b31572d9b9cf30d21bdd8f81604051808260170b815260200191505060405180910390a150565b600073ffffffffffffffffffffffffffffffffffffffff1661049961081c565b73ffffffffffffffffffffffffffffffffffffffff1614610522576040517f08c379a00000000000000000000000000000000000000000000000000000000081526004018080602001828103825260198152602001807f696e69743a20416c726561647920696e697469616c697a65640000000000000081525060200191505060405180910390fd5b600073ffffffffffffffffffffffffffffffffffffffff168373ffffffffffffffffffffffffffffffffffffffff1614156105c5576040517f08c379a00000000000000000000000000000000000000000000000000000000081526004018080602001828103825260128152602001807f696e69743a20456d707479205f6f776e6572000000000000000000000000000081525060200191505060405180910390fd5b6105ce83610924565b7fdc73717d728bcfa015e8117438a65319aa06e979ca324afa6e1ea645c28ea15d816040518082815260200191505060405180910390a1600073ffffffffffffffffffffffffffffffffffffffff168273ffffffffffffffffffffffffffffffffffffffff161461064357610642826109b5565b5b505050565b6000806106536102dc565b61065b6107f4565b915091509091565b600061066d6102f6565b90508073ffffffffffffffffffffffffffffffffffffffff163373ffffffffffffffffffffffffffffffffffffffff1614610710576040517f08c379a000000000000000000000000000000000000000000000000000000000815260040180806020018281038252601c8152602001807f636c61696d4f776e6572736869703a20556e617574686f72697a65640000000081525060200191505060405180910390fd5b61071981610924565b6000806101000a81549073ffffffffffffffffffffffffffffffffffffffff021916905550565b61074861081c565b73ffffffffffffffffffffffffffffffffffffffff163373ffffffffffffffffffffffffffffffffffffffff16146107e8576040517f08c379a00000000000000000000000000000000000000000000000000000000081526004018080602001828103825260178152602001807f6f6e6c794f776e65723a20556e617574686f72697a656400000000000000000081525060200191505060405180910390fd5b6107f181610a46565b50565b6000600360189054906101000a900467ffffffffffffffff1667ffffffffffffffff16905090565b6000600160009054906101000a900473ffffffffffffffffffffffffffffffffffffffff16905090565b6000600260009054906101000a900473ffffffffffffffffffffffffffffffffffffffff16905090565b61087861081c565b73ffffffffffffffffffffffffffffffffffffffff163373ffffffffffffffffffffffffffffffffffffffff1614610918576040517f08c379a00000000000000000000000000000000000000000000000000000000081526004018080602001828103825260178152602001807f6f6e6c794f776e65723a20556e617574686f72697a656400000000000000000081525060200191505060405180910390fd5b610921816109b5565b50565b80600160006101000a81548173ffffffffffffffffffffffffffffffffffffffff021916908373ffffffffffffffffffffffffffffffffffffffff1602179055507f50146d0e3c60aa1d17a70635b05494f864e86144a2201275021014fbf08bafe281604051808273ffffffffffffffffffffffffffffffffffffffff16815260200191505060405180910390a150565b80600260006101000a81548173ffffffffffffffffffffffffffffffffffffffff021916908373ffffffffffffffffffffffffffffffffffffffff1602179055507f5a39b8d3fd7361f3c5173afba233b7f1530567d03f9dfb0a2ca414960f08541d81604051808273ffffffffffffffffffffffffffffffffffffffff16815260200191505060405180910390a150565b806000806101000a81548173ffffffffffffffffffffffffffffffffffffffff021916908373ffffffffffffffffffffffffffffffffffffffff1602179055508073ffffffffffffffffffffffffffffffffffffffff167f132c19de901bb4ed8403c34734b6c841d5dc57745824da452a52433519ea5abf60405160405180910390a25056fea164736f6c634300060c000a","linkReferences":{}},"methodIdentifiers":{"deploy(address,address,bytes32)":"b0311079"},"id":77}