{"abi":[{"type":"constructor","inputs":[{"name":"_integrationManager","type":"address","internalType":"address"},{"name":"_valueInterpreter","type":"address","internalType":"address"},{"name":"_originator","type":"address","internalType":"address"},{"name":"_synthetixRedeemer","type":"address","internalType":"address"},{"name":"_synthetix","type":"address","internalType":"address"},{"name":"_susd","type":"address","internalType":"address"},{"name":"_trackingCode","type":"bytes32","internalType":"bytes32"}],"stateMutability":"nonpayable"},{"type":"function","name":"CLAIM_REWARDS_SELECTOR","inputs":[],"outputs":[{"name":"","type":"bytes4","internalType":"bytes4"}],"stateMutability":"view"},{"type":"function","name":"LEND_AND_STAKE_SELECTOR","inputs":[],"outputs":[{"name":"","type":"bytes4","internalType":"bytes4"}],"stateMutability":"view"},{"type":"function","name":"LEND_SELECTOR","inputs":[],"outputs":[{"name":"","type":"bytes4","internalType":"bytes4"}],"stateMutability":"view"},{"type":"function","name":"REDEEM_SELECTOR","inputs":[],"outputs":[{"name":"","type":"bytes4","internalType":"bytes4"}],"stateMutability":"view"},{"type":"function","name":"STAKE_SELECTOR","inputs":[],"outputs":[{"name":"","type":"bytes4","internalType":"bytes4"}],"stateMutability":"view"},{"type":"function","name":"TAKE_MULTIPLE_ORDERS_SELECTOR","inputs":[],"outputs":[{"name":"","type":"bytes4","internalType":"bytes4"}],"stateMutability":"view"},{"type":"function","name":"TAKE_ORDER_SELECTOR","inputs":[],"outputs":[{"name":"","type":"bytes4","internalType":"bytes4"}],"stateMutability":"view"},{"type":"function","name":"UNSTAKE_AND_REDEEM_SELECTOR","inputs":[],"outputs":[{"name":"","type":"bytes4","internalType":"bytes4"}],"stateMutability":"view"},{"type":"function","name":"UNSTAKE_SELECTOR","inputs":[],"outputs":[{"name":"","type":"bytes4","internalType":"bytes4"}],"stateMutability":"view"},{"type":"function","name":"getIntegrationManager","inputs":[],"outputs":[{"name":"integrationManager_","type":"address","internalType":"address"}],"stateMutability":"view"},{"type":"function","name":"getSynthetix","inputs":[],"outputs":[{"name":"synthetix_","type":"address","internalType":"address"}],"stateMutability":"view"},{"type":"function","name":"getSynthetixOriginator","inputs":[],"outputs":[{"name":"synthetixOriginator_","type":"address","internalType":"address"}],"stateMutability":"view"},{"type":"function","name":"getSynthetixRedeemer","inputs":[],"outputs":[{"name":"synthetixRedeemer_","type":"address","internalType":"address"}],"stateMutability":"view"},{"type":"function","name":"getSynthetixTrackingCode","inputs":[],"outputs":[{"name":"synthetixTrackingCode_","type":"bytes32","internalType":"bytes32"}],"stateMutability":"view"},{"type":"function","name":"parseAssetsForAction","inputs":[{"name":"_vaultProxy","type":"address","internalType":"address"},{"name":"_selector","type":"bytes4","internalType":"bytes4"},{"name":"_actionData","type":"bytes","internalType":"bytes"}],"outputs":[{"name":"spendAssetsHandleType_","type":"uint8","internalType":"enum IIntegrationManager.SpendAssetsHandleType"},{"name":"spendAssets_","type":"address[]","internalType":"address[]"},{"name":"spendAssetAmounts_","type":"uint256[]","internalType":"uint256[]"},{"name":"incomingAssets_","type":"address[]","internalType":"address[]"},{"name":"minIncomingAssetAmounts_","type":"uint256[]","internalType":"uint256[]"}],"stateMutability":"view"},{"type":"function","name":"redeem","inputs":[{"name":"_vaultProxy","type":"address","internalType":"address"},{"name":"_actionData","type":"bytes","internalType":"bytes"},{"name":"_assetData","type":"bytes","internalType":"bytes"}],"outputs":[],"stateMutability":"nonpayable"},{"type":"function","name":"takeOrder","inputs":[{"name":"_vaultProxy","type":"address","internalType":"address"},{"name":"_actionData","type":"bytes","internalType":"bytes"},{"name":"","type":"bytes","internalType":"bytes"}],"outputs":[],"stateMutability":"nonpayable"}],"bytecode":{"object":"0x61016060405234801561001157600080fd5b5060405161232c38038061232c833981810160405260e081101561003457600080fd5b8101908080519060200190929190805190602001909291908051906020019092919080519060200190929190805190602001909291908051906020019092919080519060200190929190505050848484838a8073ffffffffffffffffffffffffffffffffffffffff1660808173ffffffffffffffffffffffffffffffffffffffff1660601b81525050508373ffffffffffffffffffffffffffffffffffffffff1660c08173ffffffffffffffffffffffffffffffffffffffff1660601b815250508273ffffffffffffffffffffffffffffffffffffffff1660e08173ffffffffffffffffffffffffffffffffffffffff1660601b815250508173ffffffffffffffffffffffffffffffffffffffff1660a08173ffffffffffffffffffffffffffffffffffffffff1660601b81525050806101008181525050505050508173ffffffffffffffffffffffffffffffffffffffff166101208173ffffffffffffffffffffffffffffffffffffffff1660601b815250508573ffffffffffffffffffffffffffffffffffffffff166101408173ffffffffffffffffffffffffffffffffffffffff1660601b815250505050505050505060805160601c60a05160601c60c05160601c60e05160601c610100516101205160601c6101405160601c6120b861027460003980610cf75250806109015280610f4f5280611257525080610a0e52806114ba5250806109e652806116575250806113b35280611499525080610a5a52806114495250806108025280610aa4528061138b52506120b86000f3fe608060405234801561001057600080fd5b506004361061010b5760003560e01c8063863e5ad0116100a2578063c32990a211610071578063c32990a21461051d578063c54efee51461055a578063e7c456901461075b578063f3863b971461078f578063f7d882b5146107c35761010b565b8063863e5ad01461038157806390956d99146103be578063b23228cf146103f2578063c29fa9dd1461042f5761010b565b80633ffc1591116100de5780633ffc1591146102b557806340da225d146102f257806371dca19b1461032f5780637b0f0a57146103635761010b565b806303e38a2b14610110578063080456c1146101fe578063131461c01461023b578063257cb1a314610278575b600080fd5b6101fc6004803603606081101561012657600080fd5b81019080803573ffffffffffffffffffffffffffffffffffffffff1690602001909291908035906020019064010000000081111561016357600080fd5b82018360208201111561017557600080fd5b8035906020019184600183028401116401000000008311171561019757600080fd5b9091929391929390803590602001906401000000008111156101b857600080fd5b8201836020820111156101ca57600080fd5b803590602001918460018302840111640100000000831117156101ec57600080fd5b9091929391929390505050610800565b005b61020661092e565b60405180827bffffffffffffffffffffffffffffffffffffffffffffffffffffffff1916815260200191505060405180910390f35b610243610952565b60405180827bffffffffffffffffffffffffffffffffffffffffffffffffffffffff1916815260200191505060405180910390f35b610280610976565b60405180827bffffffffffffffffffffffffffffffffffffffffffffffffffffffff1916815260200191505060405180910390f35b6102bd61099a565b60405180827bffffffffffffffffffffffffffffffffffffffffffffffffffffffff1916815260200191505060405180910390f35b6102fa6109be565b60405180827bffffffffffffffffffffffffffffffffffffffffffffffffffffffff1916815260200191505060405180910390f35b6103376109e2565b604051808273ffffffffffffffffffffffffffffffffffffffff16815260200191505060405180910390f35b61036b610a0a565b6040518082815260200191505060405180910390f35b610389610a32565b60405180827bffffffffffffffffffffffffffffffffffffffffffffffffffffffff1916815260200191505060405180910390f35b6103c6610a56565b604051808273ffffffffffffffffffffffffffffffffffffffff16815260200191505060405180910390f35b6103fa610a7e565b60405180827bffffffffffffffffffffffffffffffffffffffffffffffffffffffff1916815260200191505060405180910390f35b61051b6004803603606081101561044557600080fd5b81019080803573ffffffffffffffffffffffffffffffffffffffff1690602001909291908035906020019064010000000081111561048257600080fd5b82018360208201111561049457600080fd5b803590602001918460018302840111640100000000831117156104b657600080fd5b9091929391929390803590602001906401000000008111156104d757600080fd5b8201836020820111156104e957600080fd5b8035906020019184600183028401116401000000008311171561050b57600080fd5b9091929391929390505050610aa2565b005b610525610c0b565b60405180827bffffffffffffffffffffffffffffffffffffffffffffffffffffffff1916815260200191505060405180910390f35b61061a6004803603606081101561057057600080fd5b81019080803573ffffffffffffffffffffffffffffffffffffffff16906020019092919080357bffffffffffffffffffffffffffffffffffffffffffffffffffffffff19169060200190929190803590602001906401000000008111156105d657600080fd5b8201836020820111156105e857600080fd5b8035906020019184600183028401116401000000008311171561060a57600080fd5b9091929391929390505050610c2f565b6040518086600281111561062a57fe5b815260200180602001806020018060200180602001858103855289818151815260200191508051906020019060200280838360005b8381101561067a57808201518184015260208101905061065f565b50505050905001858103845288818151815260200191508051906020019060200280838360005b838110156106bc5780820151818401526020810190506106a1565b50505050905001858103835287818151815260200191508051906020019060200280838360005b838110156106fe5780820151818401526020810190506106e3565b50505050905001858103825286818151815260200191508051906020019060200280838360005b83811015610740578082015181840152602081019050610725565b50505050905001995050505050505050505060405180910390f35b610763611387565b604051808273ffffffffffffffffffffffffffffffffffffffff16815260200191505060405180910390f35b6107976113af565b604051808273ffffffffffffffffffffffffffffffffffffffff16815260200191505060405180910390f35b6107cb6113d7565b60405180827bffffffffffffffffffffffffffffffffffffffffffffffffffffffff1916815260200191505060405180910390f35b7f000000000000000000000000000000000000000000000000000000000000000073ffffffffffffffffffffffffffffffffffffffff163373ffffffffffffffffffffffffffffffffffffffff16146108a4576040517f08c379a00000000000000000000000000000000000000000000000000000000081526004018080602001828103825260328152602001806120046032913960400191505060405180910390fd5b6000806108f486868080601f016020809104026020016040519081016040528093929190818152602001838380828437600081840152601f19601f820116905080830192505050505050506113fb565b92509250506109258783837f0000000000000000000000000000000000000000000000000000000000000000611447565b50505050505050565b7f8334eb99be0145865eba9889fca2ee920288090caefff4cc776038e20ad9259a81565b7f29fa046e79524c3c5ac4c01df692c35e217802b2b13b21121b76cf0ef02b138c81565b7f099f75155f0e997bf83a7993a71d5e7e7540bd386fe1e84643a09ce6b412521981565b7ffa7dd04da627f433da73c4355ead9c75682a67a8fc84d3f6170ef0922f402d2481565b7fb9dfbaccbe5cd2a84fdcf1d15f23ef25d23086f5afbaa99516065ed4a5bbc7a381565b60007f0000000000000000000000000000000000000000000000000000000000000000905090565b60007f0000000000000000000000000000000000000000000000000000000000000000905090565b7f03e38a2bd7063d45c897edeafc330e71657502dd86434d3c37a489caf116af6981565b60007f0000000000000000000000000000000000000000000000000000000000000000905090565b7f68e30677f607df46e87da13e15b637784cfa62374b653f35ab43d10361a2f83081565b7f000000000000000000000000000000000000000000000000000000000000000073ffffffffffffffffffffffffffffffffffffffff163373ffffffffffffffffffffffffffffffffffffffff1614610b46576040517f08c379a00000000000000000000000000000000000000000000000000000000081526004018080602001828103825260328152602001806120046032913960400191505060405180910390fd5b8482828080601f016020809104026020016040519081016040528093929190818152602001838380828437600081840152601f19601f820116905080830192505050505050506060610bdb87878080601f016020809104026020016040519081016040528093929190818152602001838380828437600081840152601f19601f820116905080830192505050505050506115a0565b9050610be681611655565b506060610bf282611724565b92505050610c008382611908565b505050505050505050565b7f0e7f692dad5b88fdee426250d6eae91207e56a2e8112b7364579bed1790e5bf481565b60006060806060807f03e38a2bd7063d45c897edeafc330e71657502dd86434d3c37a489caf116af697bffffffffffffffffffffffffffffffffffffffffffffffffffffffff1916887bffffffffffffffffffffffffffffffffffffffffffffffffffffffff19161415611025576000806000610cef8a8a8080601f016020809104026020016040519081016040528093929190818152602001838380828437600081840152601f19601f820116905080830192505050505050506113fb565b9250925092507f000000000000000000000000000000000000000000000000000000000000000073ffffffffffffffffffffffffffffffffffffffff16639be918e6836040518263ffffffff1660e01b8152600401808273ffffffffffffffffffffffffffffffffffffffff16815260200191505060206040518083038186803b158015610d7c57600080fd5b505afa158015610d90573d6000803e3d6000fd5b505050506040513d6020811015610da657600080fd5b810190808051906020019092919050505015610e0d576040517f08c379a00000000000000000000000000000000000000000000000000000000081526004018080602001828103825260258152602001806120366025913960400191505060405180910390fd5b600167ffffffffffffffff81118015610e2557600080fd5b50604051908082528060200260200182016040528015610e545781602001602082028036833780820191505090505b5096508187600081518110610e6557fe5b602002602001019073ffffffffffffffffffffffffffffffffffffffff16908173ffffffffffffffffffffffffffffffffffffffff1681525050600167ffffffffffffffff81118015610eb757600080fd5b50604051908082528060200260200182016040528015610ee65781602001602082028036833780820191505090505b5095508086600081518110610ef757fe5b602002602001018181525050600167ffffffffffffffff81118015610f1b57600080fd5b50604051908082528060200260200182016040528015610f4a5781602001602082028036833780820191505090505b5094507f000000000000000000000000000000000000000000000000000000000000000085600081518110610f7b57fe5b602002602001019073ffffffffffffffffffffffffffffffffffffffff16908173ffffffffffffffffffffffffffffffffffffffff1681525050600167ffffffffffffffff81118015610fcd57600080fd5b50604051908082528060200260200182016040528015610ffc5781602001602082028036833780820191505090505b509350828460008151811061100d57fe5b6020026020010181815250506000975050505061137c565b7fc29fa9dde84204c2908778afd0613d802d31cf046179b88f6d2b4a4e507ea2d57bffffffffffffffffffffffffffffffffffffffffffffffffffffffff1916887bffffffffffffffffffffffffffffffffffffffffffffffffffffffff1916141561132b576110d887878080601f016020809104026020016040519081016040528093929190818152602001838380828437600081840152601f19601f820116905080830192505050505050506115a0565b9350835167ffffffffffffffff811180156110f257600080fd5b506040519080825280602002602001820160405280156111215781602001602082028036833780820191505090505b50925060005b845181101561120a5784818151811061113c57fe5b602002602001015173ffffffffffffffffffffffffffffffffffffffff166370a082318b6040518263ffffffff1660e01b8152600401808273ffffffffffffffffffffffffffffffffffffffff16815260200191505060206040518083038186803b1580156111aa57600080fd5b505afa1580156111be573d6000803e3d6000fd5b505050506040513d60208110156111d457600080fd5b81019080805190602001909291905050508482815181106111f157fe5b6020026020010181815250508080600101915050611127565b50600167ffffffffffffffff8111801561122357600080fd5b506040519080825280602002602001820160405280156112525781602001602082028036833780820191505090505b5091507f00000000000000000000000000000000000000000000000000000000000000008260008151811061128357fe5b602002602001019073ffffffffffffffffffffffffffffffffffffffff16908173ffffffffffffffffffffffffffffffffffffffff1681525050600167ffffffffffffffff811180156112d557600080fd5b506040519080825280602002602001820160405280156113045781602001602082028036833780820191505090505b50905060018160008151811061131657fe5b6020026020010181815250506002945061137c565b6040517f08c379a00000000000000000000000000000000000000000000000000000000081526004018080602001828103825260278152602001806120856027913960400191505060405180910390fd5b945094509450945094565b60007f0000000000000000000000000000000000000000000000000000000000000000905090565b60007f0000000000000000000000000000000000000000000000000000000000000000905090565b7fc29fa9dde84204c2908778afd0613d802d31cf046179b88f6d2b4a4e507ea2d581565b600080600083806020019051606081101561141557600080fd5b810190808051906020019092919080519060200190929190805190602001909291905050509250925092509193909250565b7f000000000000000000000000000000000000000000000000000000000000000073ffffffffffffffffffffffffffffffffffffffff166391e56b688561148d86611aa2565b8561149786611aa2565b7f00000000000000000000000000000000000000000000000000000000000000007f00000000000000000000000000000000000000000000000000000000000000006040518763ffffffff1660e01b8152600401808773ffffffffffffffffffffffffffffffffffffffff1681526020018681526020018581526020018481526020018373ffffffffffffffffffffffffffffffffffffffff1681526020018281526020019650505050505050602060405180830381600087803b15801561155e57600080fd5b505af1158015611572573d6000803e3d6000fd5b505050506040513d602081101561158857600080fd5b81019080805190602001909291905050505050505050565b60608180602001905160208110156115b757600080fd5b81019080805160405193929190846401000000008211156115d757600080fd5b838201915060208201858111156115ed57600080fd5b825186602082028301116401000000008211171561160a57600080fd5b8083526020830192505050908051906020019060200280838360005b83811015611641578082015181840152602081019050611626565b505050509050016040525050509050919050565b7f000000000000000000000000000000000000000000000000000000000000000073ffffffffffffffffffffffffffffffffffffffff1663d6232e89826040518263ffffffff1660e01b81526004018080602001828103825283818151815260200191508051906020019060200280838360005b838110156116e45780820151818401526020810190506116c9565b5050505090500192505050600060405180830381600087803b15801561170957600080fd5b505af115801561171d573d6000803e3d6000fd5b5050505050565b606080606083806020019051606081101561173e57600080fd5b810190808051604051939291908464010000000082111561175e57600080fd5b8382019150602082018581111561177457600080fd5b825186602082028301116401000000008211171561179157600080fd5b8083526020830192505050908051906020019060200280838360005b838110156117c85780820151818401526020810190506117ad565b50505050905001604052602001805160405193929190846401000000008211156117f157600080fd5b8382019150602082018581111561180757600080fd5b825186602082028301116401000000008211171561182457600080fd5b8083526020830192505050908051906020019060200280838360005b8381101561185b578082015181840152602081019050611840565b505050509050016040526020018051604051939291908464010000000082111561188457600080fd5b8382019150602082018581111561189a57600080fd5b82518660208202830111640100000000821117156118b757600080fd5b8083526020830192505050908051906020019060200280838360005b838110156118ee5780820151818401526020810190506118d3565b505050509050016040525050509250925092509193909250565b6060815167ffffffffffffffff8111801561192257600080fd5b506040519080825280602002602001820160405280156119515781602001602082028036833780820191505090505b50905060005b8251811015611a9b57600083828151811061196e57fe5b602002602001015190508073ffffffffffffffffffffffffffffffffffffffff166370a08231306040518263ffffffff1660e01b8152600401808273ffffffffffffffffffffffffffffffffffffffff16815260200191505060206040518083038186803b1580156119df57600080fd5b505afa1580156119f3573d6000803e3d6000fd5b505050506040513d6020811015611a0957600080fd5b8101908080519060200190929190505050838381518110611a2657fe5b6020026020010181815250506000838381518110611a4057fe5b60200260200101511115611a8d57611a8c85848481518110611a5e57fe5b60200260200101518373ffffffffffffffffffffffffffffffffffffffff16611bac9092919063ffffffff16565b5b508080600101915050611957565b5092915050565b60008173ffffffffffffffffffffffffffffffffffffffff1663d4b839926040518163ffffffff1660e01b815260040160206040518083038186803b158015611aea57600080fd5b505afa158015611afe573d6000803e3d6000fd5b505050506040513d6020811015611b1457600080fd5b810190808051906020019092919050505073ffffffffffffffffffffffffffffffffffffffff1663dbd06c856040518163ffffffff1660e01b815260040160206040518083038186803b158015611b6a57600080fd5b505afa158015611b7e573d6000803e3d6000fd5b505050506040513d6020811015611b9457600080fd5b81019080805190602001909291905050509050919050565b611c498363a9059cbb60e01b8484604051602401808373ffffffffffffffffffffffffffffffffffffffff16815260200182815260200192505050604051602081830303815290604052907bffffffffffffffffffffffffffffffffffffffffffffffffffffffff19166020820180517bffffffffffffffffffffffffffffffffffffffffffffffffffffffff8381831617835250505050611c4e565b505050565b6060611cb0826040518060400160405280602081526020017f5361666545524332303a206c6f772d6c6576656c2063616c6c206661696c65648152508573ffffffffffffffffffffffffffffffffffffffff16611d3d9092919063ffffffff16565b9050600081511115611d3857808060200190516020811015611cd157600080fd5b8101908080519060200190929190505050611d37576040517f08c379a000000000000000000000000000000000000000000000000000000000815260040180806020018281038252602a81526020018061205b602a913960400191505060405180910390fd5b5b505050565b6060611d4c8484600085611d55565b90509392505050565b606082471015611db0576040517f08c379a0000000000000000000000000000000000000000000000000000000008152600401808060200182810382526026815260200180611fde6026913960400191505060405180910390fd5b611db985611efe565b611e2b576040517f08c379a000000000000000000000000000000000000000000000000000000000815260040180806020018281038252601d8152602001807f416464726573733a2063616c6c20746f206e6f6e2d636f6e747261637400000081525060200191505060405180910390fd5b600060608673ffffffffffffffffffffffffffffffffffffffff1685876040518082805190602001908083835b60208310611e7b5780518252602082019150602081019050602083039250611e58565b6001836020036101000a03801982511681845116808217855250505050505090500191505060006040518083038185875af1925050503d8060008114611edd576040519150601f19603f3d011682016040523d82523d6000602084013e611ee2565b606091505b5091509150611ef2828286611f11565b92505050949350505050565b600080823b905060008111915050919050565b60608315611f2157829050611fd6565b600083511115611f345782518084602001fd5b816040517f08c379a00000000000000000000000000000000000000000000000000000000081526004018080602001828103825283818151815260200191508051906020019080838360005b83811015611f9b578082015181840152602081019050611f80565b50505050905090810190601f168015611fc85780820380516001836020036101000a031916815260200191505b509250505060405180910390fd5b939250505056fe416464726573733a20696e73756666696369656e742062616c616e636520666f722063616c6c4f6e6c792074686520496e746567726174696f6e4d616e616765722063616e2063616c6c20746869732066756e6374696f6e7061727365417373657473466f72416374696f6e3a20556e616c6c6f7765642073796e74685361666545524332303a204552433230206f7065726174696f6e20646964206e6f7420737563636565647061727365417373657473466f72416374696f6e3a205f73656c6563746f7220696e76616c6964a164736f6c634300060c000a","linkReferences":{}},"methodIdentifiers":{"CLAIM_REWARDS_SELECTOR()":"40da225d","LEND_AND_STAKE_SELECTOR()":"131461c0","LEND_SELECTOR()":"257cb1a3","REDEEM_SELECTOR()":"f7d882b5","STAKE_SELECTOR()":"3ffc1591","TAKE_MULTIPLE_ORDERS_SELECTOR()":"c32990a2","TAKE_ORDER_SELECTOR()":"863e5ad0","UNSTAKE_AND_REDEEM_SELECTOR()":"080456c1","UNSTAKE_SELECTOR()":"b23228cf","getIntegrationManager()":"e7c45690","getSynthetix()":"90956d99","getSynthetixOriginator()":"f3863b97","getSynthetixRedeemer()":"71dca19b","getSynthetixTrackingCode()":"7b0f0a57","parseAssetsForAction(address,bytes4,bytes)":"c54efee5","redeem(address,bytes,bytes)":"c29fa9dd","takeOrder(address,bytes,bytes)":"03e38a2b"},"id":218}