{"abi":[{"type":"constructor","inputs":[{"name":"_integrationManager","type":"address","internalType":"address"},{"name":"_valueInterpreter","type":"address","internalType":"address"},{"name":"_originator","type":"address","internalType":"address"},{"name":"_synthetixRedeemer","type":"address","internalType":"address"},{"name":"_synthetix","type":"address","internalType":"address"},{"name":"_susd","type":"address","internalType":"address"},{"name":"_trackingCode","type":"bytes32","internalType":"bytes32"}],"stateMutability":"nonpayable"},{"type":"function","name":"CLAIM_REWARDS_SELECTOR","inputs":[],"outputs":[{"name":"","type":"bytes4","internalType":"bytes4"}],"stateMutability":"view"},{"type":"function","name":"LEND_AND_STAKE_SELECTOR","inputs":[],"outputs":[{"name":"","type":"bytes4","internalType":"bytes4"}],"stateMutability":"view"},{"type":"function","name":"LEND_SELECTOR","inputs":[],"outputs":[{"name":"","type":"bytes4","internalType":"bytes4"}],"stateMutability":"view"},{"type":"function","name":"REDEEM_SELECTOR","inputs":[],"outputs":[{"name":"","type":"bytes4","internalType":"bytes4"}],"stateMutability":"view"},{"type":"function","name":"STAKE_SELECTOR","inputs":[],"outputs":[{"name":"","type":"bytes4","internalType":"bytes4"}],"stateMutability":"view"},{"type":"function","name":"TAKE_MULTIPLE_ORDERS_SELECTOR","inputs":[],"outputs":[{"name":"","type":"bytes4","internalType":"bytes4"}],"stateMutability":"view"},{"type":"function","name":"TAKE_ORDER_SELECTOR","inputs":[],"outputs":[{"name":"","type":"bytes4","internalType":"bytes4"}],"stateMutability":"view"},{"type":"function","name":"UNSTAKE_AND_REDEEM_SELECTOR","inputs":[],"outputs":[{"name":"","type":"bytes4","internalType":"bytes4"}],"stateMutability":"view"},{"type":"function","name":"UNSTAKE_SELECTOR","inputs":[],"outputs":[{"name":"","type":"bytes4","internalType":"bytes4"}],"stateMutability":"view"},{"type":"function","name":"getIntegrationManager","inputs":[],"outputs":[{"name":"integrationManager_","type":"address","internalType":"address"}],"stateMutability":"view"},{"type":"function","name":"getSynthetix","inputs":[],"outputs":[{"name":"synthetix_","type":"address","internalType":"address"}],"stateMutability":"view"},{"type":"function","name":"getSynthetixOriginator","inputs":[],"outputs":[{"name":"synthetixOriginator_","type":"address","internalType":"address"}],"stateMutability":"view"},{"type":"function","name":"getSynthetixRedeemer","inputs":[],"outputs":[{"name":"synthetixRedeemer_","type":"address","internalType":"address"}],"stateMutability":"view"},{"type":"function","name":"getSynthetixTrackingCode","inputs":[],"outputs":[{"name":"synthetixTrackingCode_","type":"bytes32","internalType":"bytes32"}],"stateMutability":"view"},{"type":"function","name":"parseAssetsForAction","inputs":[{"name":"_vaultProxy","type":"address","internalType":"address"},{"name":"_selector","type":"bytes4","internalType":"bytes4"},{"name":"_actionData","type":"bytes","internalType":"bytes"}],"outputs":[{"name":"spendAssetsHandleType_","type":"uint8","internalType":"enum IIntegrationManager.SpendAssetsHandleType"},{"name":"spendAssets_","type":"address[]","internalType":"address[]"},{"name":"spendAssetAmounts_","type":"uint256[]","internalType":"uint256[]"},{"name":"incomingAssets_","type":"address[]","internalType":"address[]"},{"name":"minIncomingAssetAmounts_","type":"uint256[]","internalType":"uint256[]"}],"stateMutability":"view"},{"type":"function","name":"redeem","inputs":[{"name":"_vaultProxy","type":"address","internalType":"address"},{"name":"_actionData","type":"bytes","internalType":"bytes"},{"name":"_assetData","type":"bytes","internalType":"bytes"}],"outputs":[],"stateMutability":"nonpayable"},{"type":"function","name":"takeOrder","inputs":[{"name":"_vaultProxy","type":"address","internalType":"address"},{"name":"_actionData","type":"bytes","internalType":"bytes"},{"name":"","type":"bytes","internalType":"bytes"}],"outputs":[],"stateMutability":"nonpayable"}],"bytecode":{"object":"0x61016060405234801561001157600080fd5b50604051611995380380611995833981810160405260e081101561003457600080fd5b5080516020820151604083015160608085015160808087015160a08089015160c0998a01516001600160601b031999871b8a1690945295851b881690985291831b861660e05290821b851690955261010094909452831b82166101205290911b166101405260805160601c60a05160601c60c05160601c60e05160601c610100516101205160601c6101405160601c61186f610126600039806109155250806105e15280610a895280610c8c5250806106e85280610e5a5250806106c45280610fe7525080610d7a5280610e395250806107305280610df652508061053652806107815280610d56525061186f6000f3fe608060405234801561001057600080fd5b506004361061010b5760003560e01c8063863e5ad0116100a2578063c32990a211610071578063c32990a214610349578063c54efee514610351578063e7c4569014610513578063f3863b971461051b578063f7d882b5146105235761010b565b8063863e5ad01461026357806390956d991461026b578063b23228cf14610273578063c29fa9dd1461027b5761010b565b80633ffc1591116100de5780633ffc15911461021557806340da225d1461021d57806371dca19b146102255780637b0f0a57146102495761010b565b806303e38a2b14610110578063080456c1146101e0578063131461c014610205578063257cb1a31461020d575b600080fd5b6101de6004803603606081101561012657600080fd5b6001600160a01b038235169190810190604081016020820135600160201b81111561015057600080fd5b82018360208201111561016257600080fd5b803590602001918460018302840111600160201b8311171561018357600080fd5b919390929091602081019035600160201b8111156101a057600080fd5b8201836020820111156101b257600080fd5b803590602001918460018302840111600160201b831117156101d357600080fd5b50909250905061052b565b005b6101e861060e565b604080516001600160e01b03199092168252519081900360200190f35b6101e8610632565b6101e8610656565b6101e861067a565b6101e861069e565b61022d6106c2565b604080516001600160a01b039092168252519081900360200190f35b6102516106e6565b60408051918252519081900360200190f35b6101e861070a565b61022d61072e565b6101e8610752565b6101de6004803603606081101561029157600080fd5b6001600160a01b038235169190810190604081016020820135600160201b8111156102bb57600080fd5b8201836020820111156102cd57600080fd5b803590602001918460018302840111600160201b831117156102ee57600080fd5b919390929091602081019035600160201b81111561030b57600080fd5b82018360208201111561031d57600080fd5b803590602001918460018302840111600160201b8311171561033e57600080fd5b509092509050610776565b6101e8610885565b6103de6004803603606081101561036757600080fd5b6001600160a01b03823516916001600160e01b031960208201351691810190606081016040820135600160201b8111156103a057600080fd5b8201836020820111156103b257600080fd5b803590602001918460018302840111600160201b831117156103d357600080fd5b5090925090506108a9565b604051808660028111156103ee57fe5b815260200180602001806020018060200180602001858103855289818151815260200191508051906020019060200280838360005b8381101561043b578181015183820152602001610423565b50505050905001858103845288818151815260200191508051906020019060200280838360005b8381101561047a578181015183820152602001610462565b50505050905001858103835287818151815260200191508051906020019060200280838360005b838110156104b95781810151838201526020016104a1565b50505050905001858103825286818151815260200191508051906020019060200280838360005b838110156104f85781810151838201526020016104e0565b50505050905001995050505050505050505060405180910390f35b61022d610d54565b61022d610d78565b6101e8610d9c565b336001600160a01b037f000000000000000000000000000000000000000000000000000000000000000016146105925760405162461bcd60e51b81526004018080602001828103825260328152602001806117bb6032913960400191505060405180910390fd5b6000806105d486868080601f016020809104026020016040519081016040528093929190818152602001838380828437600092019190915250610dc092505050565b92509250506106058783837f0000000000000000000000000000000000000000000000000000000000000000610df4565b50505050505050565b7f8334eb99be0145865eba9889fca2ee920288090caefff4cc776038e20ad9259a81565b7f29fa046e79524c3c5ac4c01df692c35e217802b2b13b21121b76cf0ef02b138c81565b7f099f75155f0e997bf83a7993a71d5e7e7540bd386fe1e84643a09ce6b412521981565b7ffa7dd04da627f433da73c4355ead9c75682a67a8fc84d3f6170ef0922f402d2481565b7fb9dfbaccbe5cd2a84fdcf1d15f23ef25d23086f5afbaa99516065ed4a5bbc7a381565b7f000000000000000000000000000000000000000000000000000000000000000090565b7f000000000000000000000000000000000000000000000000000000000000000090565b7f03e38a2bd7063d45c897edeafc330e71657502dd86434d3c37a489caf116af6981565b7f000000000000000000000000000000000000000000000000000000000000000090565b7f68e30677f607df46e87da13e15b637784cfa62374b653f35ab43d10361a2f83081565b336001600160a01b037f000000000000000000000000000000000000000000000000000000000000000016146107dd5760405162461bcd60e51b81526004018080602001828103825260328152602001806117bb6032913960400191505060405180910390fd5b8482828080601f01602080910402602001604051908101604052809392919081815260200183838082843760009201919091525050604080516020601f8a01819004810282018101909252888152606093506108559250908990899081908401838280828437600092019190915250610f1692505050565b905061086081610fbe565b50606061086c8261107a565b9250505061087a8382611237565b505050505050505050565b7f0e7f692dad5b88fdee426250d6eae91207e56a2e8112b7364579bed1790e5bf481565b600060608080806001600160e01b031988166303e38a2b60e01b1415610b1157600080600061090d8a8a8080601f016020809104026020016040519081016040528093929190818152602001838380828437600092019190915250610dc092505050565b9250925092507f00000000000000000000000000000000000000000000000000000000000000006001600160a01b0316639be918e6836040518263ffffffff1660e01b815260040180826001600160a01b0316815260200191505060206040518083038186803b15801561098057600080fd5b505afa158015610994573d6000803e3d6000fd5b505050506040513d60208110156109aa57600080fd5b5051156109e85760405162461bcd60e51b81526004018080602001828103825260258152602001806117ed6025913960400191505060405180910390fd5b60408051600180825281830190925290602080830190803683370190505096508187600081518110610a1657fe5b6001600160a01b03929092166020928302919091018201526040805160018082528183019092529182810190803683370190505095508086600081518110610a5a57fe5b6020908102919091010152604080516001808252818301909252908160200160208202803683370190505094507f000000000000000000000000000000000000000000000000000000000000000085600081518110610ab557fe5b6001600160a01b03929092166020928302919091018201526040805160018082528183019092529182810190803683370190505093508284600081518110610af957fe5b60200260200101818152505060009750505050610d49565b6001600160e01b0319881663c29fa9dd60e01b1415610d1257610b6987878080601f016020809104026020016040519081016040528093929190818152602001838380828437600092019190915250610f1692505050565b9350835167ffffffffffffffff81118015610b8357600080fd5b50604051908082528060200260200182016040528015610bad578160200160208202803683370190505b50925060005b8451811015610c6957848181518110610bc857fe5b60200260200101516001600160a01b03166370a082318b6040518263ffffffff1660e01b815260040180826001600160a01b0316815260200191505060206040518083038186803b158015610c1c57600080fd5b505afa158015610c30573d6000803e3d6000fd5b505050506040513d6020811015610c4657600080fd5b50518451859083908110610c5657fe5b6020908102919091010152600101610bb3565b5060408051600180825281830190925290602080830190803683370190505091507f000000000000000000000000000000000000000000000000000000000000000082600081518110610cb857fe5b6001600160a01b0392909216602092830291909101820152604080516001808252818301909252918281019080368337019050509050600181600081518110610cfd57fe5b60200260200101818152505060029450610d49565b60405162461bcd60e51b815260040180806020018281038252602781526020018061183c6027913960400191505060405180910390fd5b945094509450945094565b7f000000000000000000000000000000000000000000000000000000000000000090565b7f000000000000000000000000000000000000000000000000000000000000000090565b7fc29fa9dde84204c2908778afd0613d802d31cf046179b88f6d2b4a4e507ea2d581565b6000806000838060200190516060811015610dda57600080fd5b508051602082015160409092015190969195509350915050565b7f00000000000000000000000000000000000000000000000000000000000000006001600160a01b03166391e56b6885610e2d86611392565b85610e3786611392565b7f00000000000000000000000000000000000000000000000000000000000000007f00000000000000000000000000000000000000000000000000000000000000006040518763ffffffff1660e01b815260040180876001600160a01b03168152602001868152602001858152602001848152602001836001600160a01b031681526020018281526020019650505050505050602060405180830381600087803b158015610ee457600080fd5b505af1158015610ef8573d6000803e3d6000fd5b505050506040513d6020811015610f0e57600080fd5b505050505050565b6060818060200190516020811015610f2d57600080fd5b8101908080516040519392919084600160201b821115610f4c57600080fd5b908301906020820185811115610f6157600080fd5b82518660208202830111600160201b82111715610f7d57600080fd5b82525081516020918201928201910280838360005b83811015610faa578181015183820152602001610f92565b505050509050016040525050509050919050565b60405163d6232e8960e01b81526020600482018181528351602484015283516001600160a01b037f0000000000000000000000000000000000000000000000000000000000000000169363d6232e8993869392839260440191808601910280838360005b8381101561103a578181015183820152602001611022565b5050505090500192505050600060405180830381600087803b15801561105f57600080fd5b505af1158015611073573d6000803e3d6000fd5b5050505050565b606080606083806020019051606081101561109457600080fd5b8101908080516040519392919084600160201b8211156110b357600080fd5b9083019060208201858111156110c857600080fd5b82518660208202830111600160201b821117156110e457600080fd5b82525081516020918201928201910280838360005b838110156111115781810151838201526020016110f9565b5050505090500160405260200180516040519392919084600160201b82111561113957600080fd5b90830190602082018581111561114e57600080fd5b82518660208202830111600160201b8211171561116a57600080fd5b82525081516020918201928201910280838360005b8381101561119757818101518382015260200161117f565b5050505090500160405260200180516040519392919084600160201b8211156111bf57600080fd5b9083019060208201858111156111d457600080fd5b82518660208202830111600160201b821117156111f057600080fd5b82525081516020918201928201910280838360005b8381101561121d578181015183820152602001611205565b505050509050016040525050509250925092509193909250565b6060815167ffffffffffffffff8111801561125157600080fd5b5060405190808252806020026020018201604052801561127b578160200160208202803683370190505b50905060005b825181101561138b57600083828151811061129857fe5b60200260200101519050806001600160a01b03166370a08231306040518263ffffffff1660e01b815260040180826001600160a01b0316815260200191505060206040518083038186803b1580156112ef57600080fd5b505afa158015611303573d6000803e3d6000fd5b505050506040513d602081101561131957600080fd5b5051835184908490811061132957fe5b602002602001018181525050600083838151811061134357fe5b60200260200101511115611382576113828584848151811061136157fe5b6020026020010151836001600160a01b031661146d9092919063ffffffff16565b50600101611281565b5092915050565b6000816001600160a01b031663d4b839926040518163ffffffff1660e01b815260040160206040518083038186803b1580156113cd57600080fd5b505afa1580156113e1573d6000803e3d6000fd5b505050506040513d60208110156113f757600080fd5b50516040805163dbd06c8560e01b815290516001600160a01b039092169163dbd06c8591600480820192602092909190829003018186803b15801561143b57600080fd5b505afa15801561144f573d6000803e3d6000fd5b505050506040513d602081101561146557600080fd5b505192915050565b604080516001600160a01b038416602482015260448082018490528251808303909101815260649091019091526020810180516001600160e01b031663a9059cbb60e01b1790526114bf9084906114c4565b505050565b6060611519826040518060400160405280602081526020017f5361666545524332303a206c6f772d6c6576656c2063616c6c206661696c6564815250856001600160a01b03166115759092919063ffffffff16565b8051909150156114bf5780806020019051602081101561153857600080fd5b50516114bf5760405162461bcd60e51b815260040180806020018281038252602a815260200180611812602a913960400191505060405180910390fd5b6060611584848460008561158e565b90505b9392505050565b6060824710156115cf5760405162461bcd60e51b81526004018080602001828103825260268152602001806117956026913960400191505060405180910390fd5b6115d8856116ea565b611629576040805162461bcd60e51b815260206004820152601d60248201527f416464726573733a2063616c6c20746f206e6f6e2d636f6e7472616374000000604482015290519081900360640190fd5b60006060866001600160a01b031685876040518082805190602001908083835b602083106116685780518252601f199092019160209182019101611649565b6001836020036101000a03801982511681845116808217855250505050505090500191505060006040518083038185875af1925050503d80600081146116ca576040519150601f19603f3d011682016040523d82523d6000602084013e6116cf565b606091505b50915091506116df8282866116f0565b979650505050505050565b3b151590565b606083156116ff575081611587565b82511561170f5782518084602001fd5b8160405162461bcd60e51b81526004018080602001828103825283818151815260200191508051906020019080838360005b83811015611759578181015183820152602001611741565b50505050905090810190601f1680156117865780820380516001836020036101000a031916815260200191505b509250505060405180910390fdfe416464726573733a20696e73756666696369656e742062616c616e636520666f722063616c6c4f6e6c792074686520496e746567726174696f6e4d616e616765722063616e2063616c6c20746869732066756e6374696f6e7061727365417373657473466f72416374696f6e3a20556e616c6c6f7765642073796e74685361666545524332303a204552433230206f7065726174696f6e20646964206e6f7420737563636565647061727365417373657473466f72416374696f6e3a205f73656c6563746f7220696e76616c6964a164736f6c634300060c000a","linkReferences":{}},"methodIdentifiers":{"CLAIM_REWARDS_SELECTOR()":"40da225d","LEND_AND_STAKE_SELECTOR()":"131461c0","LEND_SELECTOR()":"257cb1a3","REDEEM_SELECTOR()":"f7d882b5","STAKE_SELECTOR()":"3ffc1591","TAKE_MULTIPLE_ORDERS_SELECTOR()":"c32990a2","TAKE_ORDER_SELECTOR()":"863e5ad0","UNSTAKE_AND_REDEEM_SELECTOR()":"080456c1","UNSTAKE_SELECTOR()":"b23228cf","getIntegrationManager()":"e7c45690","getSynthetix()":"90956d99","getSynthetixOriginator()":"f3863b97","getSynthetixRedeemer()":"71dca19b","getSynthetixTrackingCode()":"7b0f0a57","parseAssetsForAction(address,bytes4,bytes)":"c54efee5","redeem(address,bytes,bytes)":"c29fa9dd","takeOrder(address,bytes,bytes)":"03e38a2b"},"id":218}