{"abi":[{"type":"function","name":"parseAssetsForAction","inputs":[{"name":"_externalPosition","type":"address","internalType":"address"},{"name":"_actionId","type":"uint256","internalType":"uint256"},{"name":"_encodedActionArgs","type":"bytes","internalType":"bytes"}],"outputs":[{"name":"assetsToTransfer_","type":"address[]","internalType":"address[]"},{"name":"amountsToTransfer_","type":"uint256[]","internalType":"uint256[]"},{"name":"assetsToReceive_","type":"address[]","internalType":"address[]"}],"stateMutability":"nonpayable"},{"type":"function","name":"parseInitArgs","inputs":[{"name":"","type":"address","internalType":"address"},{"name":"","type":"bytes","internalType":"bytes"}],"outputs":[{"name":"","type":"bytes","internalType":"bytes"}],"stateMutability":"nonpayable"}],"bytecode":{"object":"0x608060405234801561001057600080fd5b50610eac806100206000396000f3fe608060405234801561001057600080fd5b50600436106100365760003560e01c8063bbd2d6461461003b578063db16c72e14610205575b600080fd5b61011e6004803603606081101561005157600080fd5b81019080803573ffffffffffffffffffffffffffffffffffffffff169060200190929190803590602001909291908035906020019064010000000081111561009857600080fd5b8201836020820111156100aa57600080fd5b803590602001918460018302840111640100000000831117156100cc57600080fd5b91908080601f016020809104026020016040519081016040528093929190818152602001838380828437600081840152601f19601f820116905080830192505050505050509192919290505050610359565b60405180806020018060200180602001848103845287818151815260200191508051906020019060200280838360005b8381101561016957808201518184015260208101905061014e565b50505050905001848103835286818151815260200191508051906020019060200280838360005b838110156101ab578082015181840152602081019050610190565b50505050905001848103825285818151815260200191508051906020019060200280838360005b838110156101ed5780820151818401526020810190506101d2565b50505050905001965050505050505060405180910390f35b6102de6004803603604081101561021b57600080fd5b81019080803573ffffffffffffffffffffffffffffffffffffffff1690602001909291908035906020019064010000000081111561025857600080fd5b82018360208201111561026a57600080fd5b8035906020019184600183028401116401000000008311171561028c57600080fd5b91908080601f016020809104026020016040519081016040528093929190818152602001838380828437600081840152601f19601f820116905080830192505050505050509192919290505050610a26565b6040518080602001828103825283818151815260200191508051906020019080838360005b8381101561031e578082015181840152602081019050610303565b50505050905090810190601f16801561034b5780820380516001836020036101000a031916815260200191505b509250505060405180910390f35b60608060606000600481111561036b57fe5b85141561048d5760008061037e86610a2e565b5050509250925050600081111561048657600167ffffffffffffffff811180156103a757600080fd5b506040519080825280602002602001820160405280156103d65781602001602082028036833780820191505090505b50945081856000815181106103e757fe5b602002602001019073ffffffffffffffffffffffffffffffffffffffff16908173ffffffffffffffffffffffffffffffffffffffff1681525050600167ffffffffffffffff8111801561043957600080fd5b506040519080825280602002602001820160405280156104685781602001602082028036833780820191505090505b509350808460008151811061047957fe5b6020026020010181815250505b5050610a1d565b6001600481111561049a57fe5b85141561074b5760006104ac85610b52565b905060008112156105ce57600167ffffffffffffffff811180156104cf57600080fd5b506040519080825280602002602001820160405280156104fe5781602001602082028036833780820191505090505b5091508673ffffffffffffffffffffffffffffffffffffffff1663acf8982e6040518163ffffffff1660e01b815260040160206040518083038186803b15801561054757600080fd5b505afa15801561055b573d6000803e3d6000fd5b505050506040513d602081101561057157600080fd5b81019080805190602001909291905050508260008151811061058f57fe5b602002602001019073ffffffffffffffffffffffffffffffffffffffff16908173ffffffffffffffffffffffffffffffffffffffff1681525050610745565b600167ffffffffffffffff811180156105e657600080fd5b506040519080825280602002602001820160405280156106155781602001602082028036833780820191505090505b5093508673ffffffffffffffffffffffffffffffffffffffff1663acf8982e6040518163ffffffff1660e01b815260040160206040518083038186803b15801561065e57600080fd5b505afa158015610672573d6000803e3d6000fd5b505050506040513d602081101561068857600080fd5b8101908080519060200190929190505050846000815181106106a657fe5b602002602001019073ffffffffffffffffffffffffffffffffffffffff16908173ffffffffffffffffffffffffffffffffffffffff1681525050600167ffffffffffffffff811180156106f857600080fd5b506040519080825280602002602001820160405280156107275781602001602082028036833780820191505090505b509250808360008151811061073857fe5b6020026020010181815250505b50610a1c565b60048081111561075757fe5b8514156108b45761076784610b81565b905060008673ffffffffffffffffffffffffffffffffffffffff1663acf8982e6040518163ffffffff1660e01b815260040160206040518083038186803b1580156107b157600080fd5b505afa1580156107c5573d6000803e3d6000fd5b505050506040513d60208110156107db57600080fd5b8101908080519060200190929190505050905060008173ffffffffffffffffffffffffffffffffffffffff166370a08231896040518263ffffffff1660e01b8152600401808273ffffffffffffffffffffffffffffffffffffffff16815260200191505060206040518083038186803b15801561085757600080fd5b505afa15801561086b573d6000803e3d6000fd5b505050506040513d602081101561088157600080fd5b810190808051906020019092919050505011156108ae576108ab8183610c3690919063ffffffff16565b91505b50610a1b565b600360048111156108c157fe5b851415610a1a576108d184610c62565b905060008673ffffffffffffffffffffffffffffffffffffffff1663acf8982e6040518163ffffffff1660e01b815260040160206040518083038186803b15801561091b57600080fd5b505afa15801561092f573d6000803e3d6000fd5b505050506040513d602081101561094557600080fd5b8101908080519060200190929190505050905060008173ffffffffffffffffffffffffffffffffffffffff166370a08231896040518263ffffffff1660e01b8152600401808273ffffffffffffffffffffffffffffffffffffffff16815260200191505060206040518083038186803b1580156109c157600080fd5b505afa1580156109d5573d6000803e3d6000fd5b505050506040513d60208110156109eb57600080fd5b81019080805190602001909291905050501115610a1857610a158183610c3690919063ffffffff16565b91505b505b5b5b5b93509350939050565b606092915050565b600080600080606060008680602001905160c0811015610a4d57600080fd5b810190808051906020019092919080519060200190929190805190602001909291908051906020019092919080516040519392919084640100000000821115610a9557600080fd5b83820191506020820185811115610aab57600080fd5b8251866001820283011164010000000082111715610ac857600080fd5b8083526020830192505050908051906020019080838360005b83811015610afc578082015181840152602081019050610ae1565b50505050905090810190601f168015610b295780820380516001836020036101000a031916815260200191505b506040526020018051906020019092919050505095509550955095509550955091939550919395565b6000818060200190516020811015610b6957600080fd5b81019080805190602001909291905050509050919050565b6060818060200190516020811015610b9857600080fd5b8101908080516040519392919084640100000000821115610bb857600080fd5b83820191506020820185811115610bce57600080fd5b8251866020820283011164010000000082111715610beb57600080fd5b8083526020830192505050908051906020019060200280838360005b83811015610c22578082015181840152602081019050610c07565b505050509050016040525050509050919050565b6060610c428383610d17565b15610c4f57829050610c5c565b610c598383610d8e565b90505b92915050565b6060818060200190516020811015610c7957600080fd5b8101908080516040519392919084640100000000821115610c9957600080fd5b83820191506020820185811115610caf57600080fd5b8251866020820283011164010000000082111715610ccc57600080fd5b8083526020830192505050908051906020019060200280838360005b83811015610d03578082015181840152602081019050610ce8565b505050509050016040525050509050919050565b6000805b8351811015610d8257838181518110610d3057fe5b602002602001015173ffffffffffffffffffffffffffffffffffffffff168373ffffffffffffffffffffffffffffffffffffffff161415610d75576001915050610d88565b8080600101915050610d1b565b50600090505b92915050565b6060600183510167ffffffffffffffff81118015610dab57600080fd5b50604051908082528060200260200182016040528015610dda5781602001602082028036833780820191505090505b50905060005b8351811015610e5057838181518110610df557fe5b6020026020010151828281518110610e0957fe5b602002602001019073ffffffffffffffffffffffffffffffffffffffff16908173ffffffffffffffffffffffffffffffffffffffff16815250508080600101915050610de0565b508181845181518110610e5f57fe5b602002602001019073ffffffffffffffffffffffffffffffffffffffff16908173ffffffffffffffffffffffffffffffffffffffff16815250509291505056fea164736f6c634300060c000a","linkReferences":{}},"methodIdentifiers":{"parseAssetsForAction(address,uint256,bytes)":"bbd2d646","parseInitArgs(address,bytes)":"db16c72e"},"id":149}